{
  "address": "0x7AE200733a014319a9c3aa4683158bc581CfbEC0",
  "abi": [
    {
      "inputs": [
        {
          "components": [
            {
              "internalType": "bytes",
              "name": "data",
              "type": "bytes"
            }
          ],
          "internalType": "struct inEuint32",
          "name": "_initialSupply",
          "type": "tuple"
        }
      ],
      "stateMutability": "nonpayable",
      "type": "constructor"
    },
    {
      "inputs": [],
      "name": "AllowanceOverflow",
      "type": "error"
    },
    {
      "inputs": [],
      "name": "AllowanceUnderflow",
      "type": "error"
    },
    {
      "inputs": [],
      "name": "ECDSAInvalidSignature",
      "type": "error"
    },
    {
      "inputs": [
        {
          "internalType": "uint256",
          "name": "length",
          "type": "uint256"
        }
      ],
      "name": "ECDSAInvalidSignatureLength",
      "type": "error"
    },
    {
      "inputs": [
        {
          "internalType": "bytes32",
          "name": "s",
          "type": "bytes32"
        }
      ],
      "name": "ECDSAInvalidSignatureS",
      "type": "error"
    },
    {
      "inputs": [],
      "name": "ErrorInsufficientFunds",
      "type": "error"
    },
    {
      "inputs": [],
      "name": "InsufficientAllowance",
      "type": "error"
    },
    {
      "inputs": [],
      "name": "InsufficientBalance",
      "type": "error"
    },
    {
      "inputs": [],
      "name": "InvalidPermit",
      "type": "error"
    },
    {
      "inputs": [],
      "name": "InvalidShortString",
      "type": "error"
    },
    {
      "inputs": [],
      "name": "PermitExpired",
      "type": "error"
    },
    {
      "inputs": [],
      "name": "SignerNotMessageSender",
      "type": "error"
    },
    {
      "inputs": [],
      "name": "SignerNotOwner",
      "type": "error"
    },
    {
      "inputs": [
        {
          "internalType": "string",
          "name": "str",
          "type": "string"
        }
      ],
      "name": "StringTooLong",
      "type": "error"
    },
    {
      "inputs": [],
      "name": "TotalSupplyOverflow",
      "type": "error"
    },
    {
      "anonymous": false,
      "inputs": [
        {
          "indexed": true,
          "internalType": "address",
          "name": "owner",
          "type": "address"
        },
        {
          "indexed": true,
          "internalType": "address",
          "name": "spender",
          "type": "address"
        },
        {
          "indexed": false,
          "internalType": "uint256",
          "name": "amount",
          "type": "uint256"
        }
      ],
      "name": "Approval",
      "type": "event"
    },
    {
      "anonymous": false,
      "inputs": [
        {
          "indexed": true,
          "internalType": "address",
          "name": "owner",
          "type": "address"
        },
        {
          "indexed": true,
          "internalType": "address",
          "name": "spender",
          "type": "address"
        }
      ],
      "name": "ApprovalEncrypted",
      "type": "event"
    },
    {
      "anonymous": false,
      "inputs": [],
      "name": "EIP712DomainChanged",
      "type": "event"
    },
    {
      "anonymous": false,
      "inputs": [
        {
          "indexed": true,
          "internalType": "address",
          "name": "from",
          "type": "address"
        },
        {
          "indexed": true,
          "internalType": "address",
          "name": "to",
          "type": "address"
        },
        {
          "indexed": false,
          "internalType": "uint256",
          "name": "amount",
          "type": "uint256"
        }
      ],
      "name": "Transfer",
      "type": "event"
    },
    {
      "anonymous": false,
      "inputs": [
        {
          "indexed": true,
          "internalType": "address",
          "name": "from",
          "type": "address"
        },
        {
          "indexed": true,
          "internalType": "address",
          "name": "to",
          "type": "address"
        }
      ],
      "name": "TransferEncrypted",
      "type": "event"
    },
    {
      "inputs": [],
      "name": "DOMAIN_SEPARATOR",
      "outputs": [
        {
          "internalType": "bytes32",
          "name": "result",
          "type": "bytes32"
        }
      ],
      "stateMutability": "view",
      "type": "function"
    },
    {
      "inputs": [
        {
          "internalType": "address",
          "name": "owner",
          "type": "address"
        },
        {
          "internalType": "address",
          "name": "spender",
          "type": "address"
        }
      ],
      "name": "allowance",
      "outputs": [
        {
          "internalType": "uint256",
          "name": "result",
          "type": "uint256"
        }
      ],
      "stateMutability": "view",
      "type": "function"
    },
    {
      "inputs": [
        {
          "internalType": "address",
          "name": "spender",
          "type": "address"
        },
        {
          "components": [
            {
              "internalType": "bytes32",
              "name": "publicKey",
              "type": "bytes32"
            },
            {
              "internalType": "bytes",
              "name": "signature",
              "type": "bytes"
            }
          ],
          "internalType": "struct Permission",
          "name": "permission",
          "type": "tuple"
        }
      ],
      "name": "allowanceEncrypted",
      "outputs": [
        {
          "internalType": "string",
          "name": "",
          "type": "string"
        }
      ],
      "stateMutability": "view",
      "type": "function"
    },
    {
      "inputs": [
        {
          "internalType": "address",
          "name": "spender",
          "type": "address"
        },
        {
          "internalType": "uint256",
          "name": "amount",
          "type": "uint256"
        }
      ],
      "name": "approve",
      "outputs": [
        {
          "internalType": "bool",
          "name": "",
          "type": "bool"
        }
      ],
      "stateMutability": "nonpayable",
      "type": "function"
    },
    {
      "inputs": [
        {
          "internalType": "address",
          "name": "spender",
          "type": "address"
        },
        {
          "components": [
            {
              "internalType": "bytes",
              "name": "data",
              "type": "bytes"
            }
          ],
          "internalType": "struct inEuint32",
          "name": "value",
          "type": "tuple"
        }
      ],
      "name": "approveEncrypted",
      "outputs": [
        {
          "internalType": "bool",
          "name": "",
          "type": "bool"
        }
      ],
      "stateMutability": "nonpayable",
      "type": "function"
    },
    {
      "inputs": [
        {
          "internalType": "address",
          "name": "owner",
          "type": "address"
        }
      ],
      "name": "balanceOf",
      "outputs": [
        {
          "internalType": "uint256",
          "name": "result",
          "type": "uint256"
        }
      ],
      "stateMutability": "view",
      "type": "function"
    },
    {
      "inputs": [
        {
          "internalType": "address",
          "name": "account",
          "type": "address"
        },
        {
          "components": [
            {
              "internalType": "bytes32",
              "name": "publicKey",
              "type": "bytes32"
            },
            {
              "internalType": "bytes",
              "name": "signature",
              "type": "bytes"
            }
          ],
          "internalType": "struct Permission",
          "name": "auth",
          "type": "tuple"
        }
      ],
      "name": "balanceOfEncrypted",
      "outputs": [
        {
          "internalType": "string",
          "name": "",
          "type": "string"
        }
      ],
      "stateMutability": "view",
      "type": "function"
    },
    {
      "inputs": [],
      "name": "decimals",
      "outputs": [
        {
          "internalType": "uint8",
          "name": "",
          "type": "uint8"
        }
      ],
      "stateMutability": "pure",
      "type": "function"
    },
    {
      "inputs": [],
      "name": "eip712Domain",
      "outputs": [
        {
          "internalType": "bytes1",
          "name": "fields",
          "type": "bytes1"
        },
        {
          "internalType": "string",
          "name": "name",
          "type": "string"
        },
        {
          "internalType": "string",
          "name": "version",
          "type": "string"
        },
        {
          "internalType": "uint256",
          "name": "chainId",
          "type": "uint256"
        },
        {
          "internalType": "address",
          "name": "verifyingContract",
          "type": "address"
        },
        {
          "internalType": "bytes32",
          "name": "salt",
          "type": "bytes32"
        },
        {
          "internalType": "uint256[]",
          "name": "extensions",
          "type": "uint256[]"
        }
      ],
      "stateMutability": "view",
      "type": "function"
    },
    {
      "inputs": [],
      "name": "name",
      "outputs": [
        {
          "internalType": "string",
          "name": "",
          "type": "string"
        }
      ],
      "stateMutability": "view",
      "type": "function"
    },
    {
      "inputs": [
        {
          "internalType": "address",
          "name": "owner",
          "type": "address"
        }
      ],
      "name": "nonces",
      "outputs": [
        {
          "internalType": "uint256",
          "name": "result",
          "type": "uint256"
        }
      ],
      "stateMutability": "view",
      "type": "function"
    },
    {
      "inputs": [
        {
          "internalType": "address",
          "name": "owner",
          "type": "address"
        },
        {
          "internalType": "address",
          "name": "spender",
          "type": "address"
        },
        {
          "internalType": "uint256",
          "name": "value",
          "type": "uint256"
        },
        {
          "internalType": "uint256",
          "name": "deadline",
          "type": "uint256"
        },
        {
          "internalType": "uint8",
          "name": "v",
          "type": "uint8"
        },
        {
          "internalType": "bytes32",
          "name": "r",
          "type": "bytes32"
        },
        {
          "internalType": "bytes32",
          "name": "s",
          "type": "bytes32"
        }
      ],
      "name": "permit",
      "outputs": [],
      "stateMutability": "nonpayable",
      "type": "function"
    },
    {
      "inputs": [],
      "name": "symbol",
      "outputs": [
        {
          "internalType": "string",
          "name": "",
          "type": "string"
        }
      ],
      "stateMutability": "view",
      "type": "function"
    },
    {
      "inputs": [],
      "name": "totalSupply",
      "outputs": [
        {
          "internalType": "uint256",
          "name": "result",
          "type": "uint256"
        }
      ],
      "stateMutability": "view",
      "type": "function"
    },
    {
      "inputs": [
        {
          "internalType": "address",
          "name": "to",
          "type": "address"
        },
        {
          "internalType": "uint256",
          "name": "amount",
          "type": "uint256"
        }
      ],
      "name": "transfer",
      "outputs": [
        {
          "internalType": "bool",
          "name": "",
          "type": "bool"
        }
      ],
      "stateMutability": "nonpayable",
      "type": "function"
    },
    {
      "inputs": [
        {
          "internalType": "address",
          "name": "to",
          "type": "address"
        },
        {
          "components": [
            {
              "internalType": "bytes",
              "name": "data",
              "type": "bytes"
            }
          ],
          "internalType": "struct inEuint32",
          "name": "encryptedAmount",
          "type": "tuple"
        }
      ],
      "name": "transferEncrypted",
      "outputs": [
        {
          "internalType": "euint32",
          "name": "",
          "type": "uint256"
        }
      ],
      "stateMutability": "nonpayable",
      "type": "function"
    },
    {
      "inputs": [
        {
          "internalType": "address",
          "name": "to",
          "type": "address"
        },
        {
          "internalType": "euint32",
          "name": "amount",
          "type": "uint256"
        }
      ],
      "name": "transferEncrypted",
      "outputs": [
        {
          "internalType": "euint32",
          "name": "",
          "type": "uint256"
        }
      ],
      "stateMutability": "nonpayable",
      "type": "function"
    },
    {
      "inputs": [
        {
          "internalType": "address",
          "name": "from",
          "type": "address"
        },
        {
          "internalType": "address",
          "name": "to",
          "type": "address"
        },
        {
          "internalType": "uint256",
          "name": "amount",
          "type": "uint256"
        }
      ],
      "name": "transferFrom",
      "outputs": [
        {
          "internalType": "bool",
          "name": "",
          "type": "bool"
        }
      ],
      "stateMutability": "nonpayable",
      "type": "function"
    },
    {
      "inputs": [
        {
          "internalType": "address",
          "name": "from",
          "type": "address"
        },
        {
          "internalType": "address",
          "name": "to",
          "type": "address"
        },
        {
          "components": [
            {
              "internalType": "bytes",
              "name": "data",
              "type": "bytes"
            }
          ],
          "internalType": "struct inEuint32",
          "name": "value",
          "type": "tuple"
        }
      ],
      "name": "transferFromEncrypted",
      "outputs": [
        {
          "internalType": "euint32",
          "name": "",
          "type": "uint256"
        }
      ],
      "stateMutability": "nonpayable",
      "type": "function"
    },
    {
      "inputs": [
        {
          "internalType": "address",
          "name": "from",
          "type": "address"
        },
        {
          "internalType": "address",
          "name": "to",
          "type": "address"
        },
        {
          "internalType": "euint32",
          "name": "value",
          "type": "uint256"
        }
      ],
      "name": "transferFromEncrypted",
      "outputs": [
        {
          "internalType": "euint32",
          "name": "",
          "type": "uint256"
        }
      ],
      "stateMutability": "nonpayable",
      "type": "function"
    },
    {
      "inputs": [
        {
          "internalType": "uint32",
          "name": "amount",
          "type": "uint32"
        }
      ],
      "name": "unwrap",
      "outputs": [],
      "stateMutability": "nonpayable",
      "type": "function"
    },
    {
      "inputs": [
        {
          "internalType": "uint32",
          "name": "amount",
          "type": "uint32"
        }
      ],
      "name": "wrap",
      "outputs": [],
      "stateMutability": "nonpayable",
      "type": "function"
    }
  ],
  "transactionHash": "0xedaf70b5cf54ed5fdf7aaeaa4b1def4d4542d87a845ea549334bf9d9dc83352f",
  "args": [
    {
      "data": {
        "0": 16,
        "1": 8,
        "2": 0,
        "3": 0,
        "4": 0,
        "5": 0,
        "6": 0,
        "7": 0,
        "8": 47,
        "9": 6,
        "10": 137,
        "11": 57,
        "12": 95,
        "13": 30,
        "14": 76,
        "15": 60,
        "16": 37,
        "17": 221,
        "18": 238,
        "19": 251,
        "20": 34,
        "21": 20,
        "22": 38,
        "23": 53,
        "24": 96,
        "25": 26,
        "26": 38,
        "27": 122,
        "28": 183,
        "29": 122,
        "30": 15,
        "31": 236,
        "32": 56,
        "33": 15,
        "34": 165,
        "35": 83,
        "36": 45,
        "37": 104,
        "38": 23,
        "39": 1,
        "40": 146,
        "41": 175,
        "42": 85,
        "43": 20,
        "44": 96,
        "45": 67,
        "46": 122,
        "47": 77,
        "48": 49,
        "49": 74,
        "50": 1,
        "51": 163,
        "52": 135,
        "53": 225,
        "54": 67,
        "55": 198,
        "56": 171,
        "57": 38,
        "58": 242,
        "59": 112,
        "60": 225,
        "61": 72,
        "62": 239,
        "63": 3,
        "64": 117,
        "65": 131,
        "66": 242,
        "67": 192,
        "68": 245,
        "69": 44,
        "70": 201,
        "71": 190,
        "72": 231,
        "73": 174,
        "74": 143,
        "75": 213,
        "76": 79,
        "77": 144,
        "78": 137,
        "79": 214,
        "80": 138,
        "81": 83,
        "82": 62,
        "83": 49,
        "84": 35,
        "85": 217,
        "86": 145,
        "87": 143,
        "88": 130,
        "89": 176,
        "90": 130,
        "91": 247,
        "92": 62,
        "93": 65,
        "94": 147,
        "95": 49,
        "96": 15,
        "97": 92,
        "98": 242,
        "99": 163,
        "100": 244,
        "101": 64,
        "102": 34,
        "103": 255,
        "104": 189,
        "105": 171,
        "106": 142,
        "107": 33,
        "108": 141,
        "109": 5,
        "110": 229,
        "111": 185,
        "112": 244,
        "113": 159,
        "114": 63,
        "115": 249,
        "116": 208,
        "117": 205,
        "118": 185,
        "119": 192,
        "120": 161,
        "121": 236,
        "122": 71,
        "123": 136,
        "124": 123,
        "125": 213,
        "126": 227,
        "127": 103,
        "128": 24,
        "129": 61,
        "130": 135,
        "131": 154,
        "132": 7,
        "133": 30,
        "134": 128,
        "135": 1,
        "136": 90,
        "137": 148,
        "138": 86,
        "139": 22,
        "140": 107,
        "141": 181,
        "142": 247,
        "143": 136,
        "144": 43,
        "145": 127,
        "146": 141,
        "147": 106,
        "148": 140,
        "149": 34,
        "150": 215,
        "151": 236,
        "152": 105,
        "153": 214,
        "154": 219,
        "155": 8,
        "156": 204,
        "157": 59,
        "158": 234,
        "159": 104,
        "160": 92,
        "161": 84,
        "162": 179,
        "163": 210,
        "164": 41,
        "165": 100,
        "166": 235,
        "167": 109,
        "168": 8,
        "169": 163,
        "170": 219,
        "171": 92,
        "172": 149,
        "173": 149,
        "174": 205,
        "175": 2,
        "176": 242,
        "177": 218,
        "178": 248,
        "179": 41,
        "180": 107,
        "181": 210,
        "182": 14,
        "183": 22,
        "184": 213,
        "185": 243,
        "186": 77,
        "187": 184,
        "188": 232,
        "189": 173,
        "190": 161,
        "191": 86,
        "192": 96,
        "193": 182,
        "194": 165,
        "195": 163,
        "196": 103,
        "197": 154,
        "198": 252,
        "199": 158,
        "200": 94,
        "201": 209,
        "202": 170,
        "203": 114,
        "204": 113,
        "205": 111,
        "206": 229,
        "207": 1,
        "208": 251,
        "209": 214,
        "210": 96,
        "211": 235,
        "212": 37,
        "213": 29,
        "214": 185,
        "215": 185,
        "216": 133,
        "217": 191,
        "218": 95,
        "219": 76,
        "220": 133,
        "221": 88,
        "222": 104,
        "223": 140,
        "224": 46,
        "225": 146,
        "226": 133,
        "227": 174,
        "228": 254,
        "229": 63,
        "230": 141,
        "231": 90,
        "232": 17,
        "233": 228,
        "234": 25,
        "235": 110,
        "236": 50,
        "237": 226,
        "238": 224,
        "239": 142,
        "240": 27,
        "241": 2,
        "242": 222,
        "243": 238,
        "244": 75,
        "245": 115,
        "246": 94,
        "247": 173,
        "248": 74,
        "249": 77,
        "250": 65,
        "251": 38,
        "252": 178,
        "253": 102,
        "254": 201,
        "255": 248,
        "256": 243,
        "257": 120,
        "258": 69,
        "259": 104,
        "260": 187,
        "261": 128,
        "262": 3,
        "263": 63,
        "264": 234,
        "265": 211,
        "266": 152,
        "267": 78,
        "268": 71,
        "269": 186,
        "270": 69,
        "271": 11,
        "272": 129,
        "273": 38,
        "274": 117,
        "275": 58,
        "276": 78,
        "277": 78,
        "278": 176,
        "279": 84,
        "280": 95,
        "281": 209,
        "282": 202,
        "283": 224,
        "284": 246,
        "285": 37,
        "286": 127,
        "287": 85,
        "288": 96,
        "289": 175,
        "290": 233,
        "291": 174,
        "292": 60,
        "293": 126,
        "294": 7,
        "295": 75,
        "296": 40,
        "297": 105,
        "298": 216,
        "299": 231,
        "300": 162,
        "301": 47,
        "302": 118,
        "303": 183,
        "304": 72,
        "305": 191,
        "306": 143,
        "307": 67,
        "308": 82,
        "309": 115,
        "310": 238,
        "311": 136,
        "312": 227,
        "313": 214,
        "314": 9,
        "315": 90,
        "316": 179,
        "317": 71,
        "318": 0,
        "319": 215,
        "320": 27,
        "321": 35,
        "322": 151,
        "323": 206,
        "324": 107,
        "325": 148,
        "326": 22,
        "327": 106,
        "328": 157,
        "329": 107,
        "330": 43,
        "331": 254,
        "332": 52,
        "333": 32,
        "334": 175,
        "335": 75,
        "336": 164,
        "337": 148,
        "338": 73,
        "339": 188,
        "340": 17,
        "341": 254,
        "342": 146,
        "343": 26,
        "344": 40,
        "345": 244,
        "346": 241,
        "347": 96,
        "348": 239,
        "349": 87,
        "350": 52,
        "351": 19,
        "352": 53,
        "353": 27,
        "354": 136,
        "355": 189,
        "356": 87,
        "357": 195,
        "358": 186,
        "359": 138,
        "360": 142,
        "361": 238,
        "362": 27,
        "363": 169,
        "364": 66,
        "365": 78,
        "366": 113,
        "367": 207,
        "368": 33,
        "369": 21,
        "370": 65,
        "371": 185,
        "372": 165,
        "373": 174,
        "374": 245,
        "375": 153,
        "376": 183,
        "377": 43,
        "378": 122,
        "379": 24,
        "380": 171,
        "381": 155,
        "382": 115,
        "383": 92,
        "384": 138,
        "385": 199,
        "386": 67,
        "387": 244,
        "388": 166,
        "389": 83,
        "390": 36,
        "391": 121,
        "392": 42,
        "393": 82,
        "394": 215,
        "395": 163,
        "396": 80,
        "397": 13,
        "398": 236,
        "399": 220,
        "400": 180,
        "401": 51,
        "402": 18,
        "403": 79,
        "404": 80,
        "405": 196,
        "406": 82,
        "407": 62,
        "408": 249,
        "409": 52,
        "410": 225,
        "411": 145,
        "412": 123,
        "413": 150,
        "414": 246,
        "415": 189,
        "416": 224,
        "417": 175,
        "418": 102,
        "419": 78,
        "420": 122,
        "421": 95,
        "422": 187,
        "423": 45,
        "424": 166,
        "425": 31,
        "426": 74,
        "427": 90,
        "428": 125,
        "429": 169,
        "430": 29,
        "431": 167,
        "432": 62,
        "433": 147,
        "434": 206,
        "435": 91,
        "436": 159,
        "437": 109,
        "438": 190,
        "439": 72,
        "440": 73,
        "441": 144,
        "442": 144,
        "443": 183,
        "444": 193,
        "445": 194,
        "446": 18,
        "447": 223,
        "448": 98,
        "449": 87,
        "450": 15,
        "451": 105,
        "452": 178,
        "453": 119,
        "454": 12,
        "455": 77,
        "456": 160,
        "457": 188,
        "458": 111,
        "459": 36,
        "460": 191,
        "461": 0,
        "462": 98,
        "463": 84,
        "464": 196,
        "465": 209,
        "466": 23,
        "467": 184,
        "468": 0,
        "469": 201,
        "470": 143,
        "471": 217,
        "472": 106,
        "473": 61,
        "474": 244,
        "475": 192,
        "476": 136,
        "477": 100,
        "478": 94,
        "479": 189,
        "480": 49,
        "481": 200,
        "482": 162,
        "483": 63,
        "484": 195,
        "485": 245,
        "486": 141,
        "487": 154,
        "488": 201,
        "489": 121,
        "490": 33,
        "491": 94,
        "492": 11,
        "493": 56,
        "494": 194,
        "495": 47,
        "496": 88,
        "497": 7,
        "498": 194,
        "499": 159,
        "500": 52,
        "501": 84,
        "502": 24,
        "503": 233,
        "504": 10,
        "505": 68,
        "506": 120,
        "507": 74,
        "508": 246,
        "509": 114,
        "510": 124,
        "511": 206,
        "512": 16,
        "513": 150,
        "514": 172,
        "515": 78,
        "516": 141,
        "517": 142,
        "518": 202,
        "519": 39,
        "520": 38,
        "521": 65,
        "522": 186,
        "523": 172,
        "524": 189,
        "525": 36,
        "526": 136,
        "527": 245,
        "528": 185,
        "529": 249,
        "530": 27,
        "531": 115,
        "532": 58,
        "533": 235,
        "534": 58,
        "535": 209,
        "536": 234,
        "537": 102,
        "538": 91,
        "539": 100,
        "540": 152,
        "541": 89,
        "542": 143,
        "543": 46,
        "544": 143,
        "545": 178,
        "546": 63,
        "547": 55,
        "548": 235,
        "549": 29,
        "550": 243,
        "551": 74,
        "552": 162,
        "553": 110,
        "554": 219,
        "555": 202,
        "556": 36,
        "557": 189,
        "558": 11,
        "559": 66,
        "560": 167,
        "561": 58,
        "562": 218,
        "563": 237,
        "564": 38,
        "565": 65,
        "566": 153,
        "567": 93,
        "568": 18,
        "569": 138,
        "570": 190,
        "571": 36,
        "572": 96,
        "573": 87,
        "574": 45,
        "575": 44,
        "576": 201,
        "577": 163,
        "578": 183,
        "579": 244,
        "580": 14,
        "581": 196,
        "582": 78,
        "583": 86,
        "584": 215,
        "585": 141,
        "586": 32,
        "587": 84,
        "588": 151,
        "589": 130,
        "590": 124,
        "591": 206,
        "592": 128,
        "593": 128,
        "594": 39,
        "595": 93,
        "596": 193,
        "597": 25,
        "598": 126,
        "599": 188,
        "600": 55,
        "601": 86,
        "602": 198,
        "603": 98,
        "604": 62,
        "605": 187,
        "606": 176,
        "607": 231,
        "608": 110,
        "609": 13,
        "610": 171,
        "611": 152,
        "612": 85,
        "613": 169,
        "614": 51,
        "615": 21,
        "616": 152,
        "617": 161,
        "618": 26,
        "619": 175,
        "620": 97,
        "621": 202,
        "622": 237,
        "623": 104,
        "624": 227,
        "625": 141,
        "626": 175,
        "627": 98,
        "628": 21,
        "629": 78,
        "630": 39,
        "631": 229,
        "632": 211,
        "633": 0,
        "634": 4,
        "635": 233,
        "636": 7,
        "637": 131,
        "638": 245,
        "639": 79,
        "640": 147,
        "641": 24,
        "642": 132,
        "643": 135,
        "644": 194,
        "645": 220,
        "646": 14,
        "647": 158,
        "648": 70,
        "649": 176,
        "650": 46,
        "651": 39,
        "652": 169,
        "653": 170,
        "654": 87,
        "655": 99,
        "656": 206,
        "657": 208,
        "658": 211,
        "659": 21,
        "660": 103,
        "661": 184,
        "662": 103,
        "663": 1,
        "664": 237,
        "665": 33,
        "666": 92,
        "667": 214,
        "668": 195,
        "669": 188,
        "670": 122,
        "671": 119,
        "672": 233,
        "673": 228,
        "674": 91,
        "675": 136,
        "676": 118,
        "677": 197,
        "678": 224,
        "679": 159,
        "680": 194,
        "681": 254,
        "682": 162,
        "683": 73,
        "684": 51,
        "685": 192,
        "686": 210,
        "687": 12,
        "688": 30,
        "689": 79,
        "690": 185,
        "691": 85,
        "692": 52,
        "693": 84,
        "694": 40,
        "695": 130,
        "696": 166,
        "697": 13,
        "698": 3,
        "699": 26,
        "700": 55,
        "701": 134,
        "702": 100,
        "703": 193,
        "704": 181,
        "705": 144,
        "706": 238,
        "707": 31,
        "708": 180,
        "709": 110,
        "710": 144,
        "711": 140,
        "712": 153,
        "713": 12,
        "714": 243,
        "715": 178,
        "716": 152,
        "717": 84,
        "718": 235,
        "719": 2,
        "720": 109,
        "721": 133,
        "722": 148,
        "723": 190,
        "724": 229,
        "725": 166,
        "726": 132,
        "727": 123,
        "728": 189,
        "729": 128,
        "730": 32,
        "731": 107,
        "732": 6,
        "733": 137,
        "734": 182,
        "735": 187,
        "736": 170,
        "737": 150,
        "738": 174,
        "739": 170,
        "740": 53,
        "741": 209,
        "742": 132,
        "743": 180,
        "744": 117,
        "745": 183,
        "746": 32,
        "747": 226,
        "748": 61,
        "749": 42,
        "750": 214,
        "751": 185,
        "752": 81,
        "753": 240,
        "754": 250,
        "755": 111,
        "756": 65,
        "757": 45,
        "758": 81,
        "759": 64,
        "760": 247,
        "761": 15,
        "762": 115,
        "763": 190,
        "764": 14,
        "765": 71,
        "766": 218,
        "767": 173,
        "768": 9,
        "769": 184,
        "770": 31,
        "771": 190,
        "772": 254,
        "773": 110,
        "774": 59,
        "775": 240,
        "776": 78,
        "777": 131,
        "778": 251,
        "779": 35,
        "780": 146,
        "781": 148,
        "782": 193,
        "783": 141,
        "784": 186,
        "785": 190,
        "786": 11,
        "787": 59,
        "788": 73,
        "789": 212,
        "790": 216,
        "791": 158,
        "792": 95,
        "793": 68,
        "794": 226,
        "795": 85,
        "796": 252,
        "797": 153,
        "798": 100,
        "799": 205,
        "800": 165,
        "801": 38,
        "802": 67,
        "803": 188,
        "804": 8,
        "805": 137,
        "806": 43,
        "807": 207,
        "808": 193,
        "809": 134,
        "810": 92,
        "811": 120,
        "812": 165,
        "813": 181,
        "814": 1,
        "815": 24,
        "816": 40,
        "817": 159,
        "818": 181,
        "819": 255,
        "820": 147,
        "821": 142,
        "822": 69,
        "823": 188,
        "824": 192,
        "825": 147,
        "826": 35,
        "827": 134,
        "828": 92,
        "829": 2,
        "830": 229,
        "831": 89,
        "832": 132,
        "833": 66,
        "834": 5,
        "835": 57,
        "836": 76,
        "837": 146,
        "838": 74,
        "839": 96,
        "840": 163,
        "841": 136,
        "842": 213,
        "843": 107,
        "844": 145,
        "845": 58,
        "846": 38,
        "847": 60,
        "848": 115,
        "849": 96,
        "850": 119,
        "851": 188,
        "852": 138,
        "853": 62,
        "854": 128,
        "855": 131,
        "856": 201,
        "857": 162,
        "858": 106,
        "859": 230,
        "860": 102,
        "861": 202,
        "862": 171,
        "863": 143,
        "864": 215,
        "865": 125,
        "866": 26,
        "867": 165,
        "868": 220,
        "869": 165,
        "870": 61,
        "871": 209,
        "872": 228,
        "873": 242,
        "874": 226,
        "875": 194,
        "876": 230,
        "877": 138,
        "878": 45,
        "879": 121,
        "880": 218,
        "881": 184,
        "882": 129,
        "883": 117,
        "884": 25,
        "885": 139,
        "886": 213,
        "887": 187,
        "888": 199,
        "889": 17,
        "890": 212,
        "891": 140,
        "892": 250,
        "893": 175,
        "894": 147,
        "895": 117,
        "896": 226,
        "897": 242,
        "898": 213,
        "899": 244,
        "900": 236,
        "901": 51,
        "902": 253,
        "903": 6,
        "904": 217,
        "905": 11,
        "906": 65,
        "907": 243,
        "908": 142,
        "909": 125,
        "910": 51,
        "911": 25,
        "912": 31,
        "913": 77,
        "914": 181,
        "915": 255,
        "916": 181,
        "917": 224,
        "918": 96,
        "919": 39,
        "920": 16,
        "921": 225,
        "922": 205,
        "923": 116,
        "924": 208,
        "925": 142,
        "926": 181,
        "927": 182,
        "928": 85,
        "929": 236,
        "930": 227,
        "931": 83,
        "932": 58,
        "933": 65,
        "934": 47,
        "935": 175,
        "936": 31,
        "937": 188,
        "938": 54,
        "939": 246,
        "940": 14,
        "941": 206,
        "942": 117,
        "943": 122,
        "944": 79,
        "945": 253,
        "946": 15,
        "947": 58,
        "948": 211,
        "949": 36,
        "950": 206,
        "951": 16,
        "952": 225,
        "953": 11,
        "954": 90,
        "955": 111,
        "956": 127,
        "957": 173,
        "958": 141,
        "959": 10,
        "960": 18,
        "961": 35,
        "962": 13,
        "963": 252,
        "964": 143,
        "965": 24,
        "966": 202,
        "967": 154,
        "968": 202,
        "969": 221,
        "970": 205,
        "971": 3,
        "972": 245,
        "973": 20,
        "974": 47,
        "975": 121,
        "976": 47,
        "977": 212,
        "978": 191,
        "979": 244,
        "980": 66,
        "981": 136,
        "982": 113,
        "983": 150,
        "984": 150,
        "985": 151,
        "986": 65,
        "987": 224,
        "988": 223,
        "989": 223,
        "990": 50,
        "991": 204,
        "992": 155,
        "993": 74,
        "994": 143,
        "995": 181,
        "996": 115,
        "997": 34,
        "998": 172,
        "999": 209,
        "1000": 204,
        "1001": 119,
        "1002": 90,
        "1003": 226,
        "1004": 212,
        "1005": 158,
        "1006": 202,
        "1007": 59,
        "1008": 147,
        "1009": 3,
        "1010": 12,
        "1011": 156,
        "1012": 65,
        "1013": 190,
        "1014": 131,
        "1015": 125,
        "1016": 86,
        "1017": 224,
        "1018": 154,
        "1019": 244,
        "1020": 179,
        "1021": 77,
        "1022": 162,
        "1023": 113,
        "1024": 151,
        "1025": 70,
        "1026": 100,
        "1027": 150,
        "1028": 124,
        "1029": 220,
        "1030": 158,
        "1031": 228,
        "1032": 234,
        "1033": 117,
        "1034": 206,
        "1035": 178,
        "1036": 241,
        "1037": 72,
        "1038": 207,
        "1039": 174,
        "1040": 213,
        "1041": 204,
        "1042": 157,
        "1043": 10,
        "1044": 134,
        "1045": 227,
        "1046": 176,
        "1047": 227,
        "1048": 49,
        "1049": 203,
        "1050": 162,
        "1051": 40,
        "1052": 120,
        "1053": 246,
        "1054": 58,
        "1055": 211,
        "1056": 11,
        "1057": 124,
        "1058": 34,
        "1059": 106,
        "1060": 108,
        "1061": 145,
        "1062": 200,
        "1063": 175,
        "1064": 47,
        "1065": 114,
        "1066": 100,
        "1067": 231,
        "1068": 180,
        "1069": 245,
        "1070": 43,
        "1071": 104,
        "1072": 89,
        "1073": 182,
        "1074": 43,
        "1075": 22,
        "1076": 244,
        "1077": 91,
        "1078": 84,
        "1079": 222,
        "1080": 118,
        "1081": 230,
        "1082": 251,
        "1083": 246,
        "1084": 13,
        "1085": 144,
        "1086": 137,
        "1087": 188,
        "1088": 83,
        "1089": 59,
        "1090": 170,
        "1091": 7,
        "1092": 52,
        "1093": 233,
        "1094": 169,
        "1095": 178,
        "1096": 251,
        "1097": 179,
        "1098": 209,
        "1099": 253,
        "1100": 204,
        "1101": 255,
        "1102": 51,
        "1103": 178,
        "1104": 181,
        "1105": 89,
        "1106": 33,
        "1107": 21,
        "1108": 231,
        "1109": 85,
        "1110": 89,
        "1111": 250,
        "1112": 24,
        "1113": 253,
        "1114": 125,
        "1115": 4,
        "1116": 209,
        "1117": 96,
        "1118": 248,
        "1119": 174,
        "1120": 190,
        "1121": 17,
        "1122": 169,
        "1123": 23,
        "1124": 141,
        "1125": 217,
        "1126": 218,
        "1127": 167,
        "1128": 27,
        "1129": 56,
        "1130": 69,
        "1131": 242,
        "1132": 245,
        "1133": 106,
        "1134": 41,
        "1135": 238,
        "1136": 38,
        "1137": 216,
        "1138": 117,
        "1139": 114,
        "1140": 144,
        "1141": 247,
        "1142": 41,
        "1143": 149,
        "1144": 177,
        "1145": 136,
        "1146": 234,
        "1147": 132,
        "1148": 204,
        "1149": 241,
        "1150": 122,
        "1151": 62,
        "1152": 178,
        "1153": 202,
        "1154": 118,
        "1155": 235,
        "1156": 216,
        "1157": 12,
        "1158": 152,
        "1159": 58,
        "1160": 26,
        "1161": 6,
        "1162": 171,
        "1163": 131,
        "1164": 38,
        "1165": 149,
        "1166": 200,
        "1167": 59,
        "1168": 205,
        "1169": 88,
        "1170": 191,
        "1171": 187,
        "1172": 35,
        "1173": 104,
        "1174": 22,
        "1175": 196,
        "1176": 9,
        "1177": 80,
        "1178": 207,
        "1179": 135,
        "1180": 42,
        "1181": 233,
        "1182": 67,
        "1183": 168,
        "1184": 87,
        "1185": 222,
        "1186": 166,
        "1187": 176,
        "1188": 54,
        "1189": 17,
        "1190": 167,
        "1191": 3,
        "1192": 1,
        "1193": 9,
        "1194": 75,
        "1195": 224,
        "1196": 118,
        "1197": 75,
        "1198": 41,
        "1199": 130,
        "1200": 101,
        "1201": 79,
        "1202": 126,
        "1203": 206,
        "1204": 86,
        "1205": 217,
        "1206": 32,
        "1207": 106,
        "1208": 74,
        "1209": 28,
        "1210": 134,
        "1211": 73,
        "1212": 219,
        "1213": 106,
        "1214": 236,
        "1215": 239,
        "1216": 175,
        "1217": 188,
        "1218": 3,
        "1219": 115,
        "1220": 3,
        "1221": 165,
        "1222": 21,
        "1223": 100,
        "1224": 24,
        "1225": 169,
        "1226": 150,
        "1227": 225,
        "1228": 38,
        "1229": 39,
        "1230": 8,
        "1231": 243,
        "1232": 91,
        "1233": 235,
        "1234": 21,
        "1235": 138,
        "1236": 76,
        "1237": 70,
        "1238": 91,
        "1239": 74,
        "1240": 149,
        "1241": 146,
        "1242": 58,
        "1243": 252,
        "1244": 52,
        "1245": 29,
        "1246": 107,
        "1247": 46,
        "1248": 78,
        "1249": 152,
        "1250": 205,
        "1251": 169,
        "1252": 170,
        "1253": 241,
        "1254": 73,
        "1255": 214,
        "1256": 138,
        "1257": 109,
        "1258": 221,
        "1259": 185,
        "1260": 141,
        "1261": 18,
        "1262": 103,
        "1263": 225,
        "1264": 35,
        "1265": 63,
        "1266": 4,
        "1267": 102,
        "1268": 157,
        "1269": 130,
        "1270": 232,
        "1271": 151,
        "1272": 77,
        "1273": 215,
        "1274": 201,
        "1275": 57,
        "1276": 131,
        "1277": 118,
        "1278": 246,
        "1279": 214,
        "1280": 165,
        "1281": 73,
        "1282": 116,
        "1283": 90,
        "1284": 35,
        "1285": 144,
        "1286": 109,
        "1287": 59,
        "1288": 48,
        "1289": 70,
        "1290": 91,
        "1291": 59,
        "1292": 24,
        "1293": 30,
        "1294": 44,
        "1295": 65,
        "1296": 120,
        "1297": 166,
        "1298": 136,
        "1299": 55,
        "1300": 52,
        "1301": 81,
        "1302": 253,
        "1303": 118,
        "1304": 232,
        "1305": 220,
        "1306": 217,
        "1307": 175,
        "1308": 255,
        "1309": 179,
        "1310": 156,
        "1311": 218,
        "1312": 163,
        "1313": 135,
        "1314": 180,
        "1315": 39,
        "1316": 62,
        "1317": 149,
        "1318": 46,
        "1319": 227,
        "1320": 217,
        "1321": 207,
        "1322": 226,
        "1323": 34,
        "1324": 91,
        "1325": 36,
        "1326": 187,
        "1327": 87,
        "1328": 10,
        "1329": 95,
        "1330": 58,
        "1331": 208,
        "1332": 88,
        "1333": 96,
        "1334": 183,
        "1335": 195,
        "1336": 130,
        "1337": 137,
        "1338": 73,
        "1339": 53,
        "1340": 3,
        "1341": 29,
        "1342": 135,
        "1343": 39,
        "1344": 88,
        "1345": 169,
        "1346": 147,
        "1347": 150,
        "1348": 115,
        "1349": 77,
        "1350": 146,
        "1351": 174,
        "1352": 238,
        "1353": 159,
        "1354": 98,
        "1355": 252,
        "1356": 33,
        "1357": 139,
        "1358": 24,
        "1359": 80,
        "1360": 193,
        "1361": 11,
        "1362": 83,
        "1363": 19,
        "1364": 37,
        "1365": 83,
        "1366": 175,
        "1367": 137,
        "1368": 193,
        "1369": 229,
        "1370": 142,
        "1371": 34,
        "1372": 41,
        "1373": 136,
        "1374": 108,
        "1375": 81,
        "1376": 115,
        "1377": 203,
        "1378": 249,
        "1379": 129,
        "1380": 188,
        "1381": 155,
        "1382": 207,
        "1383": 46,
        "1384": 128,
        "1385": 172,
        "1386": 43,
        "1387": 202,
        "1388": 47,
        "1389": 213,
        "1390": 188,
        "1391": 137,
        "1392": 59,
        "1393": 104,
        "1394": 158,
        "1395": 31,
        "1396": 6,
        "1397": 137,
        "1398": 204,
        "1399": 59,
        "1400": 247,
        "1401": 205,
        "1402": 206,
        "1403": 38,
        "1404": 129,
        "1405": 1,
        "1406": 139,
        "1407": 68,
        "1408": 35,
        "1409": 31,
        "1410": 226,
        "1411": 179,
        "1412": 157,
        "1413": 142,
        "1414": 114,
        "1415": 111,
        "1416": 227,
        "1417": 8,
        "1418": 211,
        "1419": 57,
        "1420": 167,
        "1421": 34,
        "1422": 240,
        "1423": 80,
        "1424": 0,
        "1425": 21,
        "1426": 228,
        "1427": 199,
        "1428": 202,
        "1429": 175,
        "1430": 83,
        "1431": 212,
        "1432": 198,
        "1433": 69,
        "1434": 141,
        "1435": 147,
        "1436": 90,
        "1437": 94,
        "1438": 46,
        "1439": 9,
        "1440": 13,
        "1441": 91,
        "1442": 183,
        "1443": 184,
        "1444": 142,
        "1445": 20,
        "1446": 101,
        "1447": 19,
        "1448": 166,
        "1449": 163,
        "1450": 161,
        "1451": 79,
        "1452": 145,
        "1453": 69,
        "1454": 46,
        "1455": 40,
        "1456": 184,
        "1457": 3,
        "1458": 169,
        "1459": 210,
        "1460": 109,
        "1461": 199,
        "1462": 108,
        "1463": 48,
        "1464": 43,
        "1465": 90,
        "1466": 163,
        "1467": 251,
        "1468": 195,
        "1469": 173,
        "1470": 238,
        "1471": 75,
        "1472": 106,
        "1473": 167,
        "1474": 69,
        "1475": 173,
        "1476": 92,
        "1477": 166,
        "1478": 155,
        "1479": 243,
        "1480": 219,
        "1481": 223,
        "1482": 240,
        "1483": 8,
        "1484": 242,
        "1485": 252,
        "1486": 241,
        "1487": 118,
        "1488": 108,
        "1489": 233,
        "1490": 21,
        "1491": 128,
        "1492": 217,
        "1493": 235,
        "1494": 156,
        "1495": 213,
        "1496": 252,
        "1497": 35,
        "1498": 65,
        "1499": 212,
        "1500": 111,
        "1501": 44,
        "1502": 32,
        "1503": 210,
        "1504": 82,
        "1505": 178,
        "1506": 113,
        "1507": 212,
        "1508": 168,
        "1509": 129,
        "1510": 167,
        "1511": 187,
        "1512": 179,
        "1513": 18,
        "1514": 184,
        "1515": 156,
        "1516": 6,
        "1517": 72,
        "1518": 155,
        "1519": 193,
        "1520": 197,
        "1521": 171,
        "1522": 210,
        "1523": 231,
        "1524": 80,
        "1525": 182,
        "1526": 143,
        "1527": 49,
        "1528": 93,
        "1529": 240,
        "1530": 171,
        "1531": 205,
        "1532": 214,
        "1533": 80,
        "1534": 24,
        "1535": 41,
        "1536": 148,
        "1537": 53,
        "1538": 25,
        "1539": 4,
        "1540": 218,
        "1541": 200,
        "1542": 167,
        "1543": 200,
        "1544": 6,
        "1545": 89,
        "1546": 144,
        "1547": 25,
        "1548": 30,
        "1549": 151,
        "1550": 154,
        "1551": 46,
        "1552": 131,
        "1553": 171,
        "1554": 6,
        "1555": 13,
        "1556": 137,
        "1557": 32,
        "1558": 65,
        "1559": 118,
        "1560": 21,
        "1561": 10,
        "1562": 169,
        "1563": 43,
        "1564": 92,
        "1565": 35,
        "1566": 26,
        "1567": 237,
        "1568": 43,
        "1569": 198,
        "1570": 74,
        "1571": 128,
        "1572": 183,
        "1573": 39,
        "1574": 246,
        "1575": 83,
        "1576": 2,
        "1577": 135,
        "1578": 240,
        "1579": 247,
        "1580": 227,
        "1581": 251,
        "1582": 164,
        "1583": 215,
        "1584": 163,
        "1585": 152,
        "1586": 24,
        "1587": 5,
        "1588": 232,
        "1589": 189,
        "1590": 49,
        "1591": 141,
        "1592": 58,
        "1593": 100,
        "1594": 126,
        "1595": 102,
        "1596": 138,
        "1597": 90,
        "1598": 87,
        "1599": 229,
        "1600": 201,
        "1601": 110,
        "1602": 177,
        "1603": 141,
        "1604": 66,
        "1605": 81,
        "1606": 232,
        "1607": 121,
        "1608": 226,
        "1609": 251,
        "1610": 176,
        "1611": 229,
        "1612": 42,
        "1613": 163,
        "1614": 116,
        "1615": 193,
        "1616": 63,
        "1617": 146,
        "1618": 168,
        "1619": 4,
        "1620": 146,
        "1621": 232,
        "1622": 58,
        "1623": 227,
        "1624": 9,
        "1625": 209,
        "1626": 226,
        "1627": 53,
        "1628": 120,
        "1629": 176,
        "1630": 14,
        "1631": 178,
        "1632": 78,
        "1633": 245,
        "1634": 32,
        "1635": 231,
        "1636": 175,
        "1637": 239,
        "1638": 170,
        "1639": 70,
        "1640": 177,
        "1641": 25,
        "1642": 199,
        "1643": 189,
        "1644": 41,
        "1645": 140,
        "1646": 27,
        "1647": 11,
        "1648": 94,
        "1649": 9,
        "1650": 52,
        "1651": 197,
        "1652": 75,
        "1653": 165,
        "1654": 150,
        "1655": 40,
        "1656": 152,
        "1657": 252,
        "1658": 214,
        "1659": 247,
        "1660": 39,
        "1661": 177,
        "1662": 46,
        "1663": 153,
        "1664": 203,
        "1665": 146,
        "1666": 178,
        "1667": 254,
        "1668": 119,
        "1669": 148,
        "1670": 94,
        "1671": 23,
        "1672": 240,
        "1673": 29,
        "1674": 40,
        "1675": 244,
        "1676": 121,
        "1677": 31,
        "1678": 89,
        "1679": 25,
        "1680": 221,
        "1681": 222,
        "1682": 121,
        "1683": 135,
        "1684": 19,
        "1685": 56,
        "1686": 245,
        "1687": 184,
        "1688": 149,
        "1689": 221,
        "1690": 252,
        "1691": 168,
        "1692": 207,
        "1693": 242,
        "1694": 85,
        "1695": 190,
        "1696": 14,
        "1697": 23,
        "1698": 144,
        "1699": 137,
        "1700": 216,
        "1701": 228,
        "1702": 143,
        "1703": 89,
        "1704": 173,
        "1705": 107,
        "1706": 178,
        "1707": 193,
        "1708": 208,
        "1709": 223,
        "1710": 96,
        "1711": 145,
        "1712": 36,
        "1713": 18,
        "1714": 105,
        "1715": 136,
        "1716": 138,
        "1717": 115,
        "1718": 27,
        "1719": 193,
        "1720": 29,
        "1721": 60,
        "1722": 36,
        "1723": 71,
        "1724": 159,
        "1725": 87,
        "1726": 33,
        "1727": 113,
        "1728": 232,
        "1729": 147,
        "1730": 50,
        "1731": 175,
        "1732": 190,
        "1733": 252,
        "1734": 163,
        "1735": 55,
        "1736": 99,
        "1737": 63,
        "1738": 157,
        "1739": 14,
        "1740": 49,
        "1741": 108,
        "1742": 80,
        "1743": 187,
        "1744": 125,
        "1745": 7,
        "1746": 103,
        "1747": 112,
        "1748": 181,
        "1749": 136,
        "1750": 222,
        "1751": 252,
        "1752": 173,
        "1753": 58,
        "1754": 144,
        "1755": 136,
        "1756": 215,
        "1757": 78,
        "1758": 95,
        "1759": 143,
        "1760": 11,
        "1761": 119,
        "1762": 45,
        "1763": 115,
        "1764": 171,
        "1765": 184,
        "1766": 99,
        "1767": 147,
        "1768": 225,
        "1769": 227,
        "1770": 167,
        "1771": 74,
        "1772": 43,
        "1773": 138,
        "1774": 20,
        "1775": 43,
        "1776": 227,
        "1777": 106,
        "1778": 239,
        "1779": 26,
        "1780": 229,
        "1781": 140,
        "1782": 95,
        "1783": 80,
        "1784": 203,
        "1785": 244,
        "1786": 12,
        "1787": 93,
        "1788": 251,
        "1789": 208,
        "1790": 81,
        "1791": 20,
        "1792": 115,
        "1793": 133,
        "1794": 42,
        "1795": 57,
        "1796": 55,
        "1797": 6,
        "1798": 128,
        "1799": 90,
        "1800": 95,
        "1801": 225,
        "1802": 224,
        "1803": 240,
        "1804": 83,
        "1805": 93,
        "1806": 1,
        "1807": 3,
        "1808": 18,
        "1809": 99,
        "1810": 49,
        "1811": 142,
        "1812": 96,
        "1813": 34,
        "1814": 86,
        "1815": 139,
        "1816": 73,
        "1817": 36,
        "1818": 111,
        "1819": 74,
        "1820": 170,
        "1821": 129,
        "1822": 195,
        "1823": 185,
        "1824": 187,
        "1825": 247,
        "1826": 38,
        "1827": 241,
        "1828": 189,
        "1829": 247,
        "1830": 211,
        "1831": 106,
        "1832": 130,
        "1833": 72,
        "1834": 80,
        "1835": 169,
        "1836": 190,
        "1837": 4,
        "1838": 35,
        "1839": 169,
        "1840": 230,
        "1841": 169,
        "1842": 180,
        "1843": 22,
        "1844": 27,
        "1845": 106,
        "1846": 89,
        "1847": 32,
        "1848": 23,
        "1849": 30,
        "1850": 123,
        "1851": 151,
        "1852": 18,
        "1853": 78,
        "1854": 156,
        "1855": 247,
        "1856": 93,
        "1857": 68,
        "1858": 131,
        "1859": 216,
        "1860": 244,
        "1861": 254,
        "1862": 190,
        "1863": 241,
        "1864": 114,
        "1865": 86,
        "1866": 146,
        "1867": 229,
        "1868": 144,
        "1869": 188,
        "1870": 57,
        "1871": 255,
        "1872": 181,
        "1873": 222,
        "1874": 73,
        "1875": 198,
        "1876": 132,
        "1877": 227,
        "1878": 195,
        "1879": 41,
        "1880": 62,
        "1881": 243,
        "1882": 16,
        "1883": 60,
        "1884": 219,
        "1885": 68,
        "1886": 14,
        "1887": 22,
        "1888": 163,
        "1889": 149,
        "1890": 32,
        "1891": 118,
        "1892": 181,
        "1893": 72,
        "1894": 61,
        "1895": 159,
        "1896": 61,
        "1897": 25,
        "1898": 85,
        "1899": 18,
        "1900": 141,
        "1901": 11,
        "1902": 29,
        "1903": 75,
        "1904": 87,
        "1905": 169,
        "1906": 4,
        "1907": 245,
        "1908": 28,
        "1909": 104,
        "1910": 49,
        "1911": 163,
        "1912": 87,
        "1913": 151,
        "1914": 52,
        "1915": 63,
        "1916": 23,
        "1917": 38,
        "1918": 132,
        "1919": 143,
        "1920": 176,
        "1921": 18,
        "1922": 206,
        "1923": 77,
        "1924": 27,
        "1925": 137,
        "1926": 196,
        "1927": 218,
        "1928": 100,
        "1929": 251,
        "1930": 71,
        "1931": 77,
        "1932": 41,
        "1933": 22,
        "1934": 87,
        "1935": 183,
        "1936": 59,
        "1937": 12,
        "1938": 1,
        "1939": 220,
        "1940": 109,
        "1941": 237,
        "1942": 55,
        "1943": 254,
        "1944": 214,
        "1945": 4,
        "1946": 218,
        "1947": 194,
        "1948": 253,
        "1949": 161,
        "1950": 131,
        "1951": 176,
        "1952": 88,
        "1953": 75,
        "1954": 42,
        "1955": 74,
        "1956": 155,
        "1957": 177,
        "1958": 208,
        "1959": 154,
        "1960": 34,
        "1961": 189,
        "1962": 224,
        "1963": 171,
        "1964": 137,
        "1965": 195,
        "1966": 46,
        "1967": 47,
        "1968": 197,
        "1969": 183,
        "1970": 61,
        "1971": 210,
        "1972": 174,
        "1973": 230,
        "1974": 222,
        "1975": 0,
        "1976": 21,
        "1977": 237,
        "1978": 194,
        "1979": 138,
        "1980": 195,
        "1981": 8,
        "1982": 33,
        "1983": 51,
        "1984": 161,
        "1985": 82,
        "1986": 39,
        "1987": 19,
        "1988": 170,
        "1989": 182,
        "1990": 64,
        "1991": 202,
        "1992": 105,
        "1993": 197,
        "1994": 156,
        "1995": 76,
        "1996": 61,
        "1997": 194,
        "1998": 131,
        "1999": 205,
        "2000": 81,
        "2001": 221,
        "2002": 176,
        "2003": 16,
        "2004": 7,
        "2005": 196,
        "2006": 42,
        "2007": 50,
        "2008": 164,
        "2009": 159,
        "2010": 212,
        "2011": 133,
        "2012": 32,
        "2013": 141,
        "2014": 163,
        "2015": 135,
        "2016": 117,
        "2017": 211,
        "2018": 123,
        "2019": 83,
        "2020": 193,
        "2021": 6,
        "2022": 77,
        "2023": 19,
        "2024": 68,
        "2025": 234,
        "2026": 139,
        "2027": 110,
        "2028": 211,
        "2029": 187,
        "2030": 155,
        "2031": 123,
        "2032": 215,
        "2033": 4,
        "2034": 5,
        "2035": 13,
        "2036": 96,
        "2037": 240,
        "2038": 70,
        "2039": 137,
        "2040": 236,
        "2041": 119,
        "2042": 133,
        "2043": 50,
        "2044": 84,
        "2045": 221,
        "2046": 95,
        "2047": 141,
        "2048": 68,
        "2049": 156,
        "2050": 76,
        "2051": 92,
        "2052": 90,
        "2053": 13,
        "2054": 14,
        "2055": 238,
        "2056": 188,
        "2057": 32,
        "2058": 123,
        "2059": 92,
        "2060": 12,
        "2061": 186,
        "2062": 23,
        "2063": 76,
        "2064": 192,
        "2065": 56,
        "2066": 150,
        "2067": 247,
        "2068": 120,
        "2069": 139,
        "2070": 193,
        "2071": 31,
        "2072": 215,
        "2073": 17,
        "2074": 100,
        "2075": 193,
        "2076": 129,
        "2077": 219,
        "2078": 6,
        "2079": 175,
        "2080": 63,
        "2081": 73,
        "2082": 43,
        "2083": 102,
        "2084": 13,
        "2085": 35,
        "2086": 186,
        "2087": 88,
        "2088": 56,
        "2089": 78,
        "2090": 21,
        "2091": 233,
        "2092": 184,
        "2093": 125,
        "2094": 45,
        "2095": 180,
        "2096": 158,
        "2097": 14,
        "2098": 69,
        "2099": 38,
        "2100": 156,
        "2101": 39,
        "2102": 54,
        "2103": 177,
        "2104": 113,
        "2105": 117,
        "2106": 245,
        "2107": 122,
        "2108": 184,
        "2109": 170,
        "2110": 197,
        "2111": 117,
        "2112": 189,
        "2113": 117,
        "2114": 127,
        "2115": 38,
        "2116": 33,
        "2117": 240,
        "2118": 102,
        "2119": 71,
        "2120": 72,
        "2121": 126,
        "2122": 165,
        "2123": 195,
        "2124": 34,
        "2125": 72,
        "2126": 55,
        "2127": 132,
        "2128": 46,
        "2129": 30,
        "2130": 113,
        "2131": 45,
        "2132": 250,
        "2133": 5,
        "2134": 104,
        "2135": 152,
        "2136": 96,
        "2137": 129,
        "2138": 29,
        "2139": 97,
        "2140": 113,
        "2141": 237,
        "2142": 181,
        "2143": 148,
        "2144": 50,
        "2145": 34,
        "2146": 157,
        "2147": 138,
        "2148": 248,
        "2149": 104,
        "2150": 190,
        "2151": 1,
        "2152": 95,
        "2153": 12,
        "2154": 133,
        "2155": 154,
        "2156": 133,
        "2157": 239,
        "2158": 187,
        "2159": 250,
        "2160": 136,
        "2161": 16,
        "2162": 193,
        "2163": 233,
        "2164": 125,
        "2165": 143,
        "2166": 204,
        "2167": 24,
        "2168": 23,
        "2169": 155,
        "2170": 50,
        "2171": 66,
        "2172": 164,
        "2173": 163,
        "2174": 0,
        "2175": 97,
        "2176": 27,
        "2177": 164,
        "2178": 236,
        "2179": 161,
        "2180": 69,
        "2181": 55,
        "2182": 183,
        "2183": 45,
        "2184": 54,
        "2185": 9,
        "2186": 152,
        "2187": 181,
        "2188": 234,
        "2189": 2,
        "2190": 109,
        "2191": 245,
        "2192": 73,
        "2193": 177,
        "2194": 245,
        "2195": 91,
        "2196": 114,
        "2197": 239,
        "2198": 237,
        "2199": 52,
        "2200": 217,
        "2201": 44,
        "2202": 246,
        "2203": 4,
        "2204": 44,
        "2205": 124,
        "2206": 65,
        "2207": 215,
        "2208": 47,
        "2209": 10,
        "2210": 179,
        "2211": 233,
        "2212": 236,
        "2213": 114,
        "2214": 54,
        "2215": 252,
        "2216": 59,
        "2217": 23,
        "2218": 3,
        "2219": 251,
        "2220": 140,
        "2221": 228,
        "2222": 112,
        "2223": 116,
        "2224": 59,
        "2225": 228,
        "2226": 213,
        "2227": 186,
        "2228": 0,
        "2229": 108,
        "2230": 208,
        "2231": 176,
        "2232": 198,
        "2233": 14,
        "2234": 204,
        "2235": 54,
        "2236": 173,
        "2237": 9,
        "2238": 172,
        "2239": 196,
        "2240": 135,
        "2241": 160,
        "2242": 161,
        "2243": 210,
        "2244": 149,
        "2245": 170,
        "2246": 110,
        "2247": 120,
        "2248": 98,
        "2249": 230,
        "2250": 135,
        "2251": 168,
        "2252": 153,
        "2253": 200,
        "2254": 142,
        "2255": 36,
        "2256": 15,
        "2257": 207,
        "2258": 246,
        "2259": 252,
        "2260": 132,
        "2261": 186,
        "2262": 153,
        "2263": 195,
        "2264": 11,
        "2265": 103,
        "2266": 50,
        "2267": 254,
        "2268": 225,
        "2269": 24,
        "2270": 176,
        "2271": 125,
        "2272": 213,
        "2273": 235,
        "2274": 149,
        "2275": 122,
        "2276": 124,
        "2277": 68,
        "2278": 29,
        "2279": 148,
        "2280": 165,
        "2281": 112,
        "2282": 187,
        "2283": 18,
        "2284": 82,
        "2285": 61,
        "2286": 220,
        "2287": 186,
        "2288": 72,
        "2289": 16,
        "2290": 28,
        "2291": 87,
        "2292": 43,
        "2293": 188,
        "2294": 238,
        "2295": 231,
        "2296": 212,
        "2297": 249,
        "2298": 40,
        "2299": 83,
        "2300": 131,
        "2301": 182,
        "2302": 149,
        "2303": 33,
        "2304": 64,
        "2305": 160,
        "2306": 247,
        "2307": 106,
        "2308": 63,
        "2309": 218,
        "2310": 83,
        "2311": 30,
        "2312": 11,
        "2313": 48,
        "2314": 40,
        "2315": 126,
        "2316": 130,
        "2317": 207,
        "2318": 229,
        "2319": 235,
        "2320": 151,
        "2321": 54,
        "2322": 140,
        "2323": 186,
        "2324": 248,
        "2325": 168,
        "2326": 158,
        "2327": 94,
        "2328": 229,
        "2329": 165,
        "2330": 123,
        "2331": 104,
        "2332": 73,
        "2333": 58,
        "2334": 240,
        "2335": 237,
        "2336": 18,
        "2337": 71,
        "2338": 40,
        "2339": 100,
        "2340": 209,
        "2341": 39,
        "2342": 231,
        "2343": 143,
        "2344": 53,
        "2345": 141,
        "2346": 246,
        "2347": 235,
        "2348": 227,
        "2349": 105,
        "2350": 113,
        "2351": 88,
        "2352": 123,
        "2353": 43,
        "2354": 143,
        "2355": 32,
        "2356": 195,
        "2357": 95,
        "2358": 51,
        "2359": 217,
        "2360": 67,
        "2361": 174,
        "2362": 225,
        "2363": 25,
        "2364": 75,
        "2365": 100,
        "2366": 117,
        "2367": 232,
        "2368": 92,
        "2369": 252,
        "2370": 34,
        "2371": 119,
        "2372": 238,
        "2373": 96,
        "2374": 75,
        "2375": 158,
        "2376": 221,
        "2377": 6,
        "2378": 211,
        "2379": 17,
        "2380": 246,
        "2381": 149,
        "2382": 11,
        "2383": 214,
        "2384": 177,
        "2385": 206,
        "2386": 151,
        "2387": 62,
        "2388": 249,
        "2389": 75,
        "2390": 163,
        "2391": 112,
        "2392": 150,
        "2393": 30,
        "2394": 217,
        "2395": 219,
        "2396": 73,
        "2397": 253,
        "2398": 74,
        "2399": 36,
        "2400": 146,
        "2401": 45,
        "2402": 31,
        "2403": 221,
        "2404": 76,
        "2405": 172,
        "2406": 219,
        "2407": 118,
        "2408": 78,
        "2409": 11,
        "2410": 49,
        "2411": 239,
        "2412": 244,
        "2413": 152,
        "2414": 193,
        "2415": 74,
        "2416": 214,
        "2417": 168,
        "2418": 230,
        "2419": 218,
        "2420": 89,
        "2421": 198,
        "2422": 215,
        "2423": 101,
        "2424": 60,
        "2425": 27,
        "2426": 51,
        "2427": 15,
        "2428": 245,
        "2429": 170,
        "2430": 251,
        "2431": 67,
        "2432": 182,
        "2433": 46,
        "2434": 81,
        "2435": 156,
        "2436": 3,
        "2437": 25,
        "2438": 107,
        "2439": 180,
        "2440": 153,
        "2441": 109,
        "2442": 140,
        "2443": 100,
        "2444": 218,
        "2445": 106,
        "2446": 143,
        "2447": 5,
        "2448": 102,
        "2449": 43,
        "2450": 96,
        "2451": 25,
        "2452": 142,
        "2453": 99,
        "2454": 123,
        "2455": 195,
        "2456": 148,
        "2457": 71,
        "2458": 44,
        "2459": 118,
        "2460": 240,
        "2461": 12,
        "2462": 237,
        "2463": 129,
        "2464": 26,
        "2465": 112,
        "2466": 8,
        "2467": 45,
        "2468": 84,
        "2469": 103,
        "2470": 100,
        "2471": 133,
        "2472": 116,
        "2473": 208,
        "2474": 70,
        "2475": 172,
        "2476": 217,
        "2477": 193,
        "2478": 222,
        "2479": 188,
        "2480": 93,
        "2481": 54,
        "2482": 20,
        "2483": 190,
        "2484": 201,
        "2485": 27,
        "2486": 181,
        "2487": 143,
        "2488": 242,
        "2489": 78,
        "2490": 12,
        "2491": 36,
        "2492": 87,
        "2493": 161,
        "2494": 181,
        "2495": 149,
        "2496": 80,
        "2497": 245,
        "2498": 218,
        "2499": 122,
        "2500": 241,
        "2501": 188,
        "2502": 205,
        "2503": 219,
        "2504": 121,
        "2505": 199,
        "2506": 151,
        "2507": 24,
        "2508": 166,
        "2509": 228,
        "2510": 2,
        "2511": 199,
        "2512": 68,
        "2513": 191,
        "2514": 170,
        "2515": 81,
        "2516": 70,
        "2517": 19,
        "2518": 112,
        "2519": 40,
        "2520": 132,
        "2521": 163,
        "2522": 111,
        "2523": 113,
        "2524": 64,
        "2525": 90,
        "2526": 168,
        "2527": 145,
        "2528": 19,
        "2529": 41,
        "2530": 34,
        "2531": 188,
        "2532": 25,
        "2533": 11,
        "2534": 252,
        "2535": 202,
        "2536": 48,
        "2537": 58,
        "2538": 157,
        "2539": 238,
        "2540": 167,
        "2541": 185,
        "2542": 112,
        "2543": 28,
        "2544": 16,
        "2545": 46,
        "2546": 10,
        "2547": 176,
        "2548": 2,
        "2549": 167,
        "2550": 48,
        "2551": 147,
        "2552": 156,
        "2553": 155,
        "2554": 20,
        "2555": 198,
        "2556": 56,
        "2557": 95,
        "2558": 155,
        "2559": 49,
        "2560": 158,
        "2561": 206,
        "2562": 92,
        "2563": 105,
        "2564": 104,
        "2565": 0,
        "2566": 217,
        "2567": 226,
        "2568": 220,
        "2569": 111,
        "2570": 213,
        "2571": 22,
        "2572": 133,
        "2573": 254,
        "2574": 174,
        "2575": 195,
        "2576": 164,
        "2577": 222,
        "2578": 138,
        "2579": 41,
        "2580": 2,
        "2581": 134,
        "2582": 51,
        "2583": 26,
        "2584": 167,
        "2585": 147,
        "2586": 32,
        "2587": 242,
        "2588": 183,
        "2589": 102,
        "2590": 111,
        "2591": 140,
        "2592": 52,
        "2593": 39,
        "2594": 217,
        "2595": 191,
        "2596": 154,
        "2597": 141,
        "2598": 226,
        "2599": 36,
        "2600": 161,
        "2601": 63,
        "2602": 101,
        "2603": 87,
        "2604": 158,
        "2605": 84,
        "2606": 175,
        "2607": 37,
        "2608": 55,
        "2609": 172,
        "2610": 246,
        "2611": 211,
        "2612": 49,
        "2613": 187,
        "2614": 51,
        "2615": 14,
        "2616": 37,
        "2617": 58,
        "2618": 21,
        "2619": 30,
        "2620": 89,
        "2621": 91,
        "2622": 71,
        "2623": 194,
        "2624": 232,
        "2625": 195,
        "2626": 37,
        "2627": 164,
        "2628": 201,
        "2629": 171,
        "2630": 6,
        "2631": 21,
        "2632": 89,
        "2633": 161,
        "2634": 18,
        "2635": 111,
        "2636": 92,
        "2637": 158,
        "2638": 40,
        "2639": 27,
        "2640": 191,
        "2641": 39,
        "2642": 240,
        "2643": 111,
        "2644": 196,
        "2645": 106,
        "2646": 198,
        "2647": 130,
        "2648": 34,
        "2649": 227,
        "2650": 214,
        "2651": 37,
        "2652": 222,
        "2653": 10,
        "2654": 67,
        "2655": 239,
        "2656": 86,
        "2657": 165,
        "2658": 203,
        "2659": 5,
        "2660": 32,
        "2661": 159,
        "2662": 251,
        "2663": 89,
        "2664": 137,
        "2665": 190,
        "2666": 25,
        "2667": 198,
        "2668": 169,
        "2669": 67,
        "2670": 135,
        "2671": 74,
        "2672": 10,
        "2673": 104,
        "2674": 174,
        "2675": 121,
        "2676": 34,
        "2677": 215,
        "2678": 217,
        "2679": 7,
        "2680": 17,
        "2681": 151,
        "2682": 120,
        "2683": 102,
        "2684": 132,
        "2685": 118,
        "2686": 43,
        "2687": 201,
        "2688": 35,
        "2689": 137,
        "2690": 164,
        "2691": 221,
        "2692": 248,
        "2693": 222,
        "2694": 28,
        "2695": 0,
        "2696": 43,
        "2697": 46,
        "2698": 220,
        "2699": 10,
        "2700": 45,
        "2701": 235,
        "2702": 163,
        "2703": 51,
        "2704": 61,
        "2705": 181,
        "2706": 218,
        "2707": 236,
        "2708": 155,
        "2709": 224,
        "2710": 254,
        "2711": 77,
        "2712": 184,
        "2713": 84,
        "2714": 206,
        "2715": 36,
        "2716": 49,
        "2717": 37,
        "2718": 192,
        "2719": 131,
        "2720": 149,
        "2721": 145,
        "2722": 218,
        "2723": 210,
        "2724": 58,
        "2725": 113,
        "2726": 1,
        "2727": 58,
        "2728": 159,
        "2729": 131,
        "2730": 42,
        "2731": 130,
        "2732": 238,
        "2733": 251,
        "2734": 0,
        "2735": 188,
        "2736": 180,
        "2737": 127,
        "2738": 107,
        "2739": 59,
        "2740": 219,
        "2741": 46,
        "2742": 181,
        "2743": 82,
        "2744": 197,
        "2745": 243,
        "2746": 196,
        "2747": 132,
        "2748": 209,
        "2749": 7,
        "2750": 238,
        "2751": 195,
        "2752": 208,
        "2753": 94,
        "2754": 11,
        "2755": 29,
        "2756": 83,
        "2757": 245,
        "2758": 238,
        "2759": 158,
        "2760": 193,
        "2761": 126,
        "2762": 184,
        "2763": 178,
        "2764": 12,
        "2765": 105,
        "2766": 81,
        "2767": 115,
        "2768": 4,
        "2769": 252,
        "2770": 24,
        "2771": 43,
        "2772": 29,
        "2773": 187,
        "2774": 5,
        "2775": 108,
        "2776": 86,
        "2777": 63,
        "2778": 28,
        "2779": 13,
        "2780": 194,
        "2781": 30,
        "2782": 157,
        "2783": 40,
        "2784": 226,
        "2785": 65,
        "2786": 199,
        "2787": 96,
        "2788": 244,
        "2789": 32,
        "2790": 20,
        "2791": 60,
        "2792": 112,
        "2793": 96,
        "2794": 124,
        "2795": 48,
        "2796": 136,
        "2797": 46,
        "2798": 248,
        "2799": 57,
        "2800": 74,
        "2801": 181,
        "2802": 197,
        "2803": 2,
        "2804": 94,
        "2805": 191,
        "2806": 125,
        "2807": 15,
        "2808": 63,
        "2809": 64,
        "2810": 124,
        "2811": 182,
        "2812": 27,
        "2813": 148,
        "2814": 132,
        "2815": 18,
        "2816": 170,
        "2817": 172,
        "2818": 48,
        "2819": 215,
        "2820": 150,
        "2821": 102,
        "2822": 209,
        "2823": 111,
        "2824": 219,
        "2825": 143,
        "2826": 169,
        "2827": 31,
        "2828": 19,
        "2829": 35,
        "2830": 246,
        "2831": 204,
        "2832": 1,
        "2833": 22,
        "2834": 57,
        "2835": 131,
        "2836": 63,
        "2837": 143,
        "2838": 221,
        "2839": 162,
        "2840": 49,
        "2841": 156,
        "2842": 179,
        "2843": 172,
        "2844": 93,
        "2845": 159,
        "2846": 190,
        "2847": 219,
        "2848": 140,
        "2849": 180,
        "2850": 44,
        "2851": 69,
        "2852": 144,
        "2853": 1,
        "2854": 83,
        "2855": 129,
        "2856": 201,
        "2857": 53,
        "2858": 7,
        "2859": 195,
        "2860": 168,
        "2861": 201,
        "2862": 245,
        "2863": 245,
        "2864": 124,
        "2865": 162,
        "2866": 119,
        "2867": 86,
        "2868": 115,
        "2869": 133,
        "2870": 52,
        "2871": 160,
        "2872": 94,
        "2873": 36,
        "2874": 193,
        "2875": 25,
        "2876": 155,
        "2877": 11,
        "2878": 69,
        "2879": 77,
        "2880": 123,
        "2881": 169,
        "2882": 133,
        "2883": 202,
        "2884": 154,
        "2885": 119,
        "2886": 222,
        "2887": 16,
        "2888": 29,
        "2889": 236,
        "2890": 168,
        "2891": 108,
        "2892": 149,
        "2893": 30,
        "2894": 193,
        "2895": 224,
        "2896": 106,
        "2897": 132,
        "2898": 34,
        "2899": 28,
        "2900": 19,
        "2901": 63,
        "2902": 61,
        "2903": 116,
        "2904": 12,
        "2905": 131,
        "2906": 114,
        "2907": 251,
        "2908": 166,
        "2909": 94,
        "2910": 231,
        "2911": 9,
        "2912": 143,
        "2913": 234,
        "2914": 219,
        "2915": 37,
        "2916": 208,
        "2917": 168,
        "2918": 243,
        "2919": 242,
        "2920": 209,
        "2921": 148,
        "2922": 47,
        "2923": 182,
        "2924": 14,
        "2925": 5,
        "2926": 54,
        "2927": 96,
        "2928": 117,
        "2929": 46,
        "2930": 0,
        "2931": 55,
        "2932": 165,
        "2933": 89,
        "2934": 64,
        "2935": 106,
        "2936": 11,
        "2937": 4,
        "2938": 158,
        "2939": 146,
        "2940": 152,
        "2941": 75,
        "2942": 0,
        "2943": 182,
        "2944": 157,
        "2945": 22,
        "2946": 17,
        "2947": 230,
        "2948": 228,
        "2949": 102,
        "2950": 160,
        "2951": 88,
        "2952": 194,
        "2953": 125,
        "2954": 118,
        "2955": 132,
        "2956": 89,
        "2957": 65,
        "2958": 29,
        "2959": 63,
        "2960": 115,
        "2961": 217,
        "2962": 64,
        "2963": 70,
        "2964": 29,
        "2965": 7,
        "2966": 48,
        "2967": 101,
        "2968": 124,
        "2969": 125,
        "2970": 199,
        "2971": 35,
        "2972": 214,
        "2973": 72,
        "2974": 172,
        "2975": 75,
        "2976": 163,
        "2977": 223,
        "2978": 23,
        "2979": 102,
        "2980": 20,
        "2981": 27,
        "2982": 218,
        "2983": 8,
        "2984": 135,
        "2985": 143,
        "2986": 44,
        "2987": 152,
        "2988": 146,
        "2989": 25,
        "2990": 195,
        "2991": 234,
        "2992": 173,
        "2993": 61,
        "2994": 122,
        "2995": 14,
        "2996": 236,
        "2997": 178,
        "2998": 76,
        "2999": 116,
        "3000": 24,
        "3001": 15,
        "3002": 38,
        "3003": 97,
        "3004": 218,
        "3005": 67,
        "3006": 179,
        "3007": 139,
        "3008": 163,
        "3009": 19,
        "3010": 247,
        "3011": 84,
        "3012": 40,
        "3013": 107,
        "3014": 224,
        "3015": 90,
        "3016": 103,
        "3017": 196,
        "3018": 213,
        "3019": 131,
        "3020": 126,
        "3021": 218,
        "3022": 173,
        "3023": 178,
        "3024": 52,
        "3025": 255,
        "3026": 120,
        "3027": 149,
        "3028": 254,
        "3029": 103,
        "3030": 109,
        "3031": 238,
        "3032": 103,
        "3033": 222,
        "3034": 171,
        "3035": 22,
        "3036": 7,
        "3037": 54,
        "3038": 248,
        "3039": 234,
        "3040": 119,
        "3041": 137,
        "3042": 70,
        "3043": 27,
        "3044": 46,
        "3045": 22,
        "3046": 220,
        "3047": 91,
        "3048": 22,
        "3049": 193,
        "3050": 219,
        "3051": 63,
        "3052": 93,
        "3053": 50,
        "3054": 128,
        "3055": 7,
        "3056": 108,
        "3057": 127,
        "3058": 76,
        "3059": 233,
        "3060": 19,
        "3061": 130,
        "3062": 241,
        "3063": 56,
        "3064": 143,
        "3065": 171,
        "3066": 160,
        "3067": 160,
        "3068": 219,
        "3069": 85,
        "3070": 6,
        "3071": 97,
        "3072": 195,
        "3073": 19,
        "3074": 157,
        "3075": 122,
        "3076": 98,
        "3077": 189,
        "3078": 34,
        "3079": 162,
        "3080": 105,
        "3081": 121,
        "3082": 120,
        "3083": 113,
        "3084": 207,
        "3085": 122,
        "3086": 131,
        "3087": 57,
        "3088": 238,
        "3089": 44,
        "3090": 58,
        "3091": 158,
        "3092": 208,
        "3093": 91,
        "3094": 85,
        "3095": 90,
        "3096": 247,
        "3097": 37,
        "3098": 59,
        "3099": 27,
        "3100": 199,
        "3101": 33,
        "3102": 83,
        "3103": 114,
        "3104": 70,
        "3105": 179,
        "3106": 164,
        "3107": 7,
        "3108": 18,
        "3109": 73,
        "3110": 186,
        "3111": 71,
        "3112": 194,
        "3113": 10,
        "3114": 174,
        "3115": 148,
        "3116": 58,
        "3117": 130,
        "3118": 23,
        "3119": 241,
        "3120": 68,
        "3121": 48,
        "3122": 119,
        "3123": 208,
        "3124": 223,
        "3125": 0,
        "3126": 96,
        "3127": 32,
        "3128": 63,
        "3129": 137,
        "3130": 39,
        "3131": 130,
        "3132": 214,
        "3133": 192,
        "3134": 250,
        "3135": 80,
        "3136": 28,
        "3137": 10,
        "3138": 235,
        "3139": 12,
        "3140": 255,
        "3141": 147,
        "3142": 121,
        "3143": 129,
        "3144": 117,
        "3145": 121,
        "3146": 222,
        "3147": 230,
        "3148": 234,
        "3149": 254,
        "3150": 166,
        "3151": 16,
        "3152": 89,
        "3153": 72,
        "3154": 111,
        "3155": 170,
        "3156": 65,
        "3157": 17,
        "3158": 116,
        "3159": 147,
        "3160": 57,
        "3161": 255,
        "3162": 209,
        "3163": 45,
        "3164": 57,
        "3165": 86,
        "3166": 140,
        "3167": 210,
        "3168": 218,
        "3169": 159,
        "3170": 206,
        "3171": 136,
        "3172": 67,
        "3173": 230,
        "3174": 165,
        "3175": 99,
        "3176": 231,
        "3177": 134,
        "3178": 15,
        "3179": 201,
        "3180": 146,
        "3181": 75,
        "3182": 87,
        "3183": 165,
        "3184": 235,
        "3185": 41,
        "3186": 77,
        "3187": 41,
        "3188": 246,
        "3189": 167,
        "3190": 246,
        "3191": 2,
        "3192": 14,
        "3193": 37,
        "3194": 225,
        "3195": 56,
        "3196": 90,
        "3197": 71,
        "3198": 131,
        "3199": 244,
        "3200": 77,
        "3201": 101,
        "3202": 19,
        "3203": 147,
        "3204": 103,
        "3205": 151,
        "3206": 54,
        "3207": 182,
        "3208": 211,
        "3209": 199,
        "3210": 55,
        "3211": 48,
        "3212": 62,
        "3213": 145,
        "3214": 165,
        "3215": 23,
        "3216": 184,
        "3217": 241,
        "3218": 70,
        "3219": 39,
        "3220": 223,
        "3221": 95,
        "3222": 83,
        "3223": 29,
        "3224": 134,
        "3225": 20,
        "3226": 177,
        "3227": 182,
        "3228": 145,
        "3229": 199,
        "3230": 254,
        "3231": 243,
        "3232": 8,
        "3233": 130,
        "3234": 185,
        "3235": 149,
        "3236": 30,
        "3237": 40,
        "3238": 44,
        "3239": 191,
        "3240": 218,
        "3241": 60,
        "3242": 225,
        "3243": 49,
        "3244": 103,
        "3245": 218,
        "3246": 142,
        "3247": 155,
        "3248": 119,
        "3249": 178,
        "3250": 225,
        "3251": 102,
        "3252": 110,
        "3253": 87,
        "3254": 57,
        "3255": 135,
        "3256": 115,
        "3257": 231,
        "3258": 36,
        "3259": 81,
        "3260": 144,
        "3261": 33,
        "3262": 43,
        "3263": 149,
        "3264": 254,
        "3265": 224,
        "3266": 198,
        "3267": 189,
        "3268": 100,
        "3269": 54,
        "3270": 129,
        "3271": 127,
        "3272": 197,
        "3273": 86,
        "3274": 202,
        "3275": 90,
        "3276": 124,
        "3277": 129,
        "3278": 66,
        "3279": 219,
        "3280": 231,
        "3281": 87,
        "3282": 14,
        "3283": 70,
        "3284": 42,
        "3285": 247,
        "3286": 208,
        "3287": 191,
        "3288": 80,
        "3289": 41,
        "3290": 93,
        "3291": 32,
        "3292": 152,
        "3293": 201,
        "3294": 52,
        "3295": 144,
        "3296": 90,
        "3297": 118,
        "3298": 241,
        "3299": 39,
        "3300": 222,
        "3301": 39,
        "3302": 255,
        "3303": 175,
        "3304": 136,
        "3305": 164,
        "3306": 208,
        "3307": 16,
        "3308": 76,
        "3309": 199,
        "3310": 210,
        "3311": 88,
        "3312": 246,
        "3313": 22,
        "3314": 116,
        "3315": 169,
        "3316": 212,
        "3317": 149,
        "3318": 77,
        "3319": 146,
        "3320": 0,
        "3321": 214,
        "3322": 56,
        "3323": 177,
        "3324": 234,
        "3325": 118,
        "3326": 252,
        "3327": 181,
        "3328": 169,
        "3329": 33,
        "3330": 137,
        "3331": 99,
        "3332": 101,
        "3333": 193,
        "3334": 7,
        "3335": 184,
        "3336": 217,
        "3337": 25,
        "3338": 191,
        "3339": 215,
        "3340": 184,
        "3341": 26,
        "3342": 39,
        "3343": 22,
        "3344": 216,
        "3345": 178,
        "3346": 77,
        "3347": 20,
        "3348": 87,
        "3349": 10,
        "3350": 136,
        "3351": 177,
        "3352": 253,
        "3353": 40,
        "3354": 174,
        "3355": 173,
        "3356": 216,
        "3357": 228,
        "3358": 184,
        "3359": 84,
        "3360": 112,
        "3361": 101,
        "3362": 213,
        "3363": 151,
        "3364": 114,
        "3365": 37,
        "3366": 226,
        "3367": 177,
        "3368": 251,
        "3369": 212,
        "3370": 232,
        "3371": 217,
        "3372": 5,
        "3373": 157,
        "3374": 12,
        "3375": 166,
        "3376": 54,
        "3377": 237,
        "3378": 130,
        "3379": 86,
        "3380": 135,
        "3381": 136,
        "3382": 166,
        "3383": 246,
        "3384": 199,
        "3385": 48,
        "3386": 45,
        "3387": 34,
        "3388": 243,
        "3389": 234,
        "3390": 24,
        "3391": 111,
        "3392": 210,
        "3393": 191,
        "3394": 209,
        "3395": 51,
        "3396": 205,
        "3397": 113,
        "3398": 140,
        "3399": 232,
        "3400": 13,
        "3401": 80,
        "3402": 86,
        "3403": 192,
        "3404": 198,
        "3405": 129,
        "3406": 54,
        "3407": 114,
        "3408": 68,
        "3409": 238,
        "3410": 145,
        "3411": 229,
        "3412": 136,
        "3413": 41,
        "3414": 236,
        "3415": 169,
        "3416": 230,
        "3417": 118,
        "3418": 237,
        "3419": 24,
        "3420": 20,
        "3421": 84,
        "3422": 166,
        "3423": 187,
        "3424": 0,
        "3425": 184,
        "3426": 187,
        "3427": 174,
        "3428": 18,
        "3429": 30,
        "3430": 63,
        "3431": 185,
        "3432": 212,
        "3433": 85,
        "3434": 122,
        "3435": 103,
        "3436": 32,
        "3437": 31,
        "3438": 173,
        "3439": 170,
        "3440": 185,
        "3441": 75,
        "3442": 26,
        "3443": 229,
        "3444": 76,
        "3445": 85,
        "3446": 8,
        "3447": 13,
        "3448": 91,
        "3449": 174,
        "3450": 175,
        "3451": 24,
        "3452": 200,
        "3453": 205,
        "3454": 99,
        "3455": 93,
        "3456": 158,
        "3457": 234,
        "3458": 228,
        "3459": 156,
        "3460": 144,
        "3461": 171,
        "3462": 10,
        "3463": 202,
        "3464": 34,
        "3465": 186,
        "3466": 238,
        "3467": 73,
        "3468": 197,
        "3469": 96,
        "3470": 208,
        "3471": 47,
        "3472": 40,
        "3473": 80,
        "3474": 4,
        "3475": 137,
        "3476": 12,
        "3477": 80,
        "3478": 251,
        "3479": 71,
        "3480": 105,
        "3481": 253,
        "3482": 191,
        "3483": 77,
        "3484": 180,
        "3485": 106,
        "3486": 94,
        "3487": 225,
        "3488": 76,
        "3489": 236,
        "3490": 91,
        "3491": 17,
        "3492": 80,
        "3493": 174,
        "3494": 83,
        "3495": 130,
        "3496": 110,
        "3497": 29,
        "3498": 91,
        "3499": 165,
        "3500": 203,
        "3501": 55,
        "3502": 139,
        "3503": 132,
        "3504": 22,
        "3505": 173,
        "3506": 131,
        "3507": 95,
        "3508": 127,
        "3509": 143,
        "3510": 75,
        "3511": 91,
        "3512": 78,
        "3513": 46,
        "3514": 177,
        "3515": 182,
        "3516": 241,
        "3517": 152,
        "3518": 214,
        "3519": 163,
        "3520": 22,
        "3521": 31,
        "3522": 24,
        "3523": 181,
        "3524": 250,
        "3525": 60,
        "3526": 50,
        "3527": 173,
        "3528": 107,
        "3529": 54,
        "3530": 199,
        "3531": 206,
        "3532": 189,
        "3533": 92,
        "3534": 154,
        "3535": 20,
        "3536": 74,
        "3537": 210,
        "3538": 254,
        "3539": 137,
        "3540": 226,
        "3541": 30,
        "3542": 244,
        "3543": 139,
        "3544": 222,
        "3545": 110,
        "3546": 142,
        "3547": 203,
        "3548": 11,
        "3549": 176,
        "3550": 86,
        "3551": 7,
        "3552": 240,
        "3553": 184,
        "3554": 131,
        "3555": 152,
        "3556": 106,
        "3557": 52,
        "3558": 50,
        "3559": 174,
        "3560": 25,
        "3561": 197,
        "3562": 161,
        "3563": 66,
        "3564": 154,
        "3565": 211,
        "3566": 83,
        "3567": 9,
        "3568": 15,
        "3569": 101,
        "3570": 147,
        "3571": 85,
        "3572": 242,
        "3573": 172,
        "3574": 223,
        "3575": 212,
        "3576": 240,
        "3577": 134,
        "3578": 82,
        "3579": 223,
        "3580": 18,
        "3581": 176,
        "3582": 74,
        "3583": 102,
        "3584": 55,
        "3585": 148,
        "3586": 243,
        "3587": 83,
        "3588": 129,
        "3589": 54,
        "3590": 209,
        "3591": 234,
        "3592": 32,
        "3593": 61,
        "3594": 237,
        "3595": 140,
        "3596": 163,
        "3597": 156,
        "3598": 253,
        "3599": 39,
        "3600": 14,
        "3601": 15,
        "3602": 58,
        "3603": 14,
        "3604": 129,
        "3605": 164,
        "3606": 137,
        "3607": 82,
        "3608": 216,
        "3609": 134,
        "3610": 38,
        "3611": 156,
        "3612": 33,
        "3613": 191,
        "3614": 41,
        "3615": 20,
        "3616": 25,
        "3617": 238,
        "3618": 27,
        "3619": 198,
        "3620": 24,
        "3621": 250,
        "3622": 44,
        "3623": 249,
        "3624": 166,
        "3625": 6,
        "3626": 52,
        "3627": 200,
        "3628": 233,
        "3629": 240,
        "3630": 15,
        "3631": 206,
        "3632": 103,
        "3633": 206,
        "3634": 107,
        "3635": 57,
        "3636": 90,
        "3637": 181,
        "3638": 12,
        "3639": 111,
        "3640": 143,
        "3641": 9,
        "3642": 68,
        "3643": 133,
        "3644": 145,
        "3645": 190,
        "3646": 191,
        "3647": 191,
        "3648": 164,
        "3649": 31,
        "3650": 218,
        "3651": 138,
        "3652": 91,
        "3653": 118,
        "3654": 77,
        "3655": 36,
        "3656": 211,
        "3657": 220,
        "3658": 75,
        "3659": 154,
        "3660": 22,
        "3661": 242,
        "3662": 212,
        "3663": 61,
        "3664": 240,
        "3665": 197,
        "3666": 145,
        "3667": 242,
        "3668": 86,
        "3669": 232,
        "3670": 145,
        "3671": 79,
        "3672": 153,
        "3673": 34,
        "3674": 146,
        "3675": 173,
        "3676": 160,
        "3677": 150,
        "3678": 80,
        "3679": 173,
        "3680": 46,
        "3681": 89,
        "3682": 46,
        "3683": 224,
        "3684": 180,
        "3685": 106,
        "3686": 62,
        "3687": 249,
        "3688": 234,
        "3689": 202,
        "3690": 38,
        "3691": 204,
        "3692": 62,
        "3693": 233,
        "3694": 2,
        "3695": 162,
        "3696": 252,
        "3697": 86,
        "3698": 41,
        "3699": 181,
        "3700": 69,
        "3701": 167,
        "3702": 38,
        "3703": 18,
        "3704": 247,
        "3705": 49,
        "3706": 66,
        "3707": 226,
        "3708": 143,
        "3709": 122,
        "3710": 151,
        "3711": 199,
        "3712": 187,
        "3713": 231,
        "3714": 66,
        "3715": 34,
        "3716": 220,
        "3717": 213,
        "3718": 195,
        "3719": 58,
        "3720": 111,
        "3721": 83,
        "3722": 75,
        "3723": 120,
        "3724": 11,
        "3725": 120,
        "3726": 162,
        "3727": 21,
        "3728": 72,
        "3729": 2,
        "3730": 100,
        "3731": 141,
        "3732": 250,
        "3733": 98,
        "3734": 156,
        "3735": 4,
        "3736": 45,
        "3737": 97,
        "3738": 103,
        "3739": 74,
        "3740": 244,
        "3741": 168,
        "3742": 86,
        "3743": 149,
        "3744": 100,
        "3745": 39,
        "3746": 93,
        "3747": 203,
        "3748": 93,
        "3749": 150,
        "3750": 105,
        "3751": 249,
        "3752": 90,
        "3753": 252,
        "3754": 57,
        "3755": 116,
        "3756": 90,
        "3757": 56,
        "3758": 217,
        "3759": 138,
        "3760": 21,
        "3761": 22,
        "3762": 8,
        "3763": 10,
        "3764": 215,
        "3765": 74,
        "3766": 22,
        "3767": 206,
        "3768": 144,
        "3769": 253,
        "3770": 231,
        "3771": 19,
        "3772": 132,
        "3773": 31,
        "3774": 0,
        "3775": 20,
        "3776": 170,
        "3777": 119,
        "3778": 55,
        "3779": 62,
        "3780": 148,
        "3781": 104,
        "3782": 84,
        "3783": 149,
        "3784": 0,
        "3785": 102,
        "3786": 125,
        "3787": 59,
        "3788": 59,
        "3789": 165,
        "3790": 51,
        "3791": 112,
        "3792": 52,
        "3793": 173,
        "3794": 240,
        "3795": 88,
        "3796": 104,
        "3797": 235,
        "3798": 161,
        "3799": 194,
        "3800": 238,
        "3801": 179,
        "3802": 210,
        "3803": 212,
        "3804": 238,
        "3805": 211,
        "3806": 37,
        "3807": 247,
        "3808": 132,
        "3809": 48,
        "3810": 109,
        "3811": 133,
        "3812": 76,
        "3813": 200,
        "3814": 163,
        "3815": 164,
        "3816": 15,
        "3817": 12,
        "3818": 115,
        "3819": 52,
        "3820": 110,
        "3821": 238,
        "3822": 248,
        "3823": 203,
        "3824": 98,
        "3825": 155,
        "3826": 139,
        "3827": 198,
        "3828": 232,
        "3829": 12,
        "3830": 56,
        "3831": 106,
        "3832": 217,
        "3833": 124,
        "3834": 2,
        "3835": 90,
        "3836": 59,
        "3837": 1,
        "3838": 45,
        "3839": 5,
        "3840": 201,
        "3841": 129,
        "3842": 252,
        "3843": 115,
        "3844": 80,
        "3845": 241,
        "3846": 138,
        "3847": 117,
        "3848": 174,
        "3849": 253,
        "3850": 63,
        "3851": 199,
        "3852": 41,
        "3853": 64,
        "3854": 204,
        "3855": 57,
        "3856": 159,
        "3857": 137,
        "3858": 89,
        "3859": 118,
        "3860": 150,
        "3861": 109,
        "3862": 52,
        "3863": 192,
        "3864": 99,
        "3865": 77,
        "3866": 223,
        "3867": 202,
        "3868": 174,
        "3869": 246,
        "3870": 131,
        "3871": 160,
        "3872": 249,
        "3873": 170,
        "3874": 134,
        "3875": 4,
        "3876": 41,
        "3877": 68,
        "3878": 69,
        "3879": 102,
        "3880": 250,
        "3881": 64,
        "3882": 150,
        "3883": 77,
        "3884": 139,
        "3885": 168,
        "3886": 224,
        "3887": 183,
        "3888": 150,
        "3889": 38,
        "3890": 166,
        "3891": 120,
        "3892": 32,
        "3893": 164,
        "3894": 43,
        "3895": 78,
        "3896": 61,
        "3897": 50,
        "3898": 217,
        "3899": 138,
        "3900": 234,
        "3901": 150,
        "3902": 8,
        "3903": 202,
        "3904": 13,
        "3905": 70,
        "3906": 176,
        "3907": 209,
        "3908": 45,
        "3909": 122,
        "3910": 156,
        "3911": 69,
        "3912": 31,
        "3913": 19,
        "3914": 202,
        "3915": 116,
        "3916": 88,
        "3917": 183,
        "3918": 31,
        "3919": 236,
        "3920": 123,
        "3921": 132,
        "3922": 120,
        "3923": 76,
        "3924": 83,
        "3925": 109,
        "3926": 31,
        "3927": 251,
        "3928": 163,
        "3929": 239,
        "3930": 61,
        "3931": 41,
        "3932": 108,
        "3933": 158,
        "3934": 149,
        "3935": 233,
        "3936": 99,
        "3937": 49,
        "3938": 173,
        "3939": 241,
        "3940": 107,
        "3941": 196,
        "3942": 128,
        "3943": 238,
        "3944": 36,
        "3945": 201,
        "3946": 195,
        "3947": 223,
        "3948": 118,
        "3949": 157,
        "3950": 49,
        "3951": 25,
        "3952": 126,
        "3953": 87,
        "3954": 131,
        "3955": 4,
        "3956": 108,
        "3957": 108,
        "3958": 232,
        "3959": 173,
        "3960": 147,
        "3961": 80,
        "3962": 53,
        "3963": 87,
        "3964": 114,
        "3965": 80,
        "3966": 140,
        "3967": 103,
        "3968": 79,
        "3969": 95,
        "3970": 231,
        "3971": 44,
        "3972": 18,
        "3973": 39,
        "3974": 211,
        "3975": 225,
        "3976": 184,
        "3977": 201,
        "3978": 85,
        "3979": 28,
        "3980": 226,
        "3981": 214,
        "3982": 159,
        "3983": 233,
        "3984": 180,
        "3985": 196,
        "3986": 189,
        "3987": 132,
        "3988": 43,
        "3989": 38,
        "3990": 213,
        "3991": 11,
        "3992": 231,
        "3993": 37,
        "3994": 14,
        "3995": 20,
        "3996": 191,
        "3997": 158,
        "3998": 203,
        "3999": 255,
        "4000": 159,
        "4001": 252,
        "4002": 160,
        "4003": 191,
        "4004": 70,
        "4005": 21,
        "4006": 173,
        "4007": 109,
        "4008": 224,
        "4009": 82,
        "4010": 68,
        "4011": 191,
        "4012": 3,
        "4013": 224,
        "4014": 197,
        "4015": 82,
        "4016": 84,
        "4017": 164,
        "4018": 63,
        "4019": 196,
        "4020": 252,
        "4021": 38,
        "4022": 58,
        "4023": 72,
        "4024": 128,
        "4025": 150,
        "4026": 87,
        "4027": 255,
        "4028": 98,
        "4029": 8,
        "4030": 149,
        "4031": 230,
        "4032": 119,
        "4033": 219,
        "4034": 129,
        "4035": 134,
        "4036": 155,
        "4037": 132,
        "4038": 33,
        "4039": 190,
        "4040": 158,
        "4041": 214,
        "4042": 5,
        "4043": 223,
        "4044": 34,
        "4045": 15,
        "4046": 238,
        "4047": 254,
        "4048": 14,
        "4049": 177,
        "4050": 207,
        "4051": 218,
        "4052": 252,
        "4053": 208,
        "4054": 89,
        "4055": 60,
        "4056": 105,
        "4057": 230,
        "4058": 190,
        "4059": 81,
        "4060": 212,
        "4061": 98,
        "4062": 7,
        "4063": 146,
        "4064": 170,
        "4065": 95,
        "4066": 227,
        "4067": 73,
        "4068": 227,
        "4069": 176,
        "4070": 215,
        "4071": 247,
        "4072": 75,
        "4073": 106,
        "4074": 161,
        "4075": 171,
        "4076": 24,
        "4077": 219,
        "4078": 191,
        "4079": 52,
        "4080": 31,
        "4081": 216,
        "4082": 223,
        "4083": 30,
        "4084": 129,
        "4085": 37,
        "4086": 33,
        "4087": 107,
        "4088": 235,
        "4089": 130,
        "4090": 229,
        "4091": 127,
        "4092": 31,
        "4093": 193,
        "4094": 158,
        "4095": 180,
        "4096": 89,
        "4097": 17,
        "4098": 101,
        "4099": 197,
        "4100": 166,
        "4101": 152,
        "4102": 178,
        "4103": 189,
        "4104": 95,
        "4105": 89,
        "4106": 112,
        "4107": 117,
        "4108": 84,
        "4109": 47,
        "4110": 195,
        "4111": 177,
        "4112": 95,
        "4113": 145,
        "4114": 153,
        "4115": 106,
        "4116": 130,
        "4117": 182,
        "4118": 196,
        "4119": 129,
        "4120": 120,
        "4121": 154,
        "4122": 42,
        "4123": 212,
        "4124": 81,
        "4125": 153,
        "4126": 11,
        "4127": 38,
        "4128": 27,
        "4129": 247,
        "4130": 30,
        "4131": 24,
        "4132": 101,
        "4133": 64,
        "4134": 234,
        "4135": 99,
        "4136": 3,
        "4137": 4,
        "4138": 135,
        "4139": 196,
        "4140": 241,
        "4141": 178,
        "4142": 36,
        "4143": 115,
        "4144": 34,
        "4145": 57,
        "4146": 121,
        "4147": 84,
        "4148": 8,
        "4149": 163,
        "4150": 210,
        "4151": 45,
        "4152": 209,
        "4153": 51,
        "4154": 243,
        "4155": 163,
        "4156": 185,
        "4157": 102,
        "4158": 103,
        "4159": 0,
        "4160": 221,
        "4161": 59,
        "4162": 146,
        "4163": 246,
        "4164": 139,
        "4165": 154,
        "4166": 172,
        "4167": 4,
        "4168": 129,
        "4169": 158,
        "4170": 222,
        "4171": 205,
        "4172": 101,
        "4173": 211,
        "4174": 253,
        "4175": 102,
        "4176": 102,
        "4177": 169,
        "4178": 248,
        "4179": 112,
        "4180": 237,
        "4181": 214,
        "4182": 45,
        "4183": 79,
        "4184": 15,
        "4185": 217,
        "4186": 132,
        "4187": 176,
        "4188": 165,
        "4189": 106,
        "4190": 171,
        "4191": 73,
        "4192": 59,
        "4193": 145,
        "4194": 151,
        "4195": 167,
        "4196": 62,
        "4197": 88,
        "4198": 45,
        "4199": 125,
        "4200": 226,
        "4201": 5,
        "4202": 57,
        "4203": 139,
        "4204": 94,
        "4205": 223,
        "4206": 26,
        "4207": 121,
        "4208": 150,
        "4209": 188,
        "4210": 93,
        "4211": 159,
        "4212": 194,
        "4213": 40,
        "4214": 206,
        "4215": 76,
        "4216": 176,
        "4217": 5,
        "4218": 124,
        "4219": 132,
        "4220": 218,
        "4221": 177,
        "4222": 77,
        "4223": 80,
        "4224": 35,
        "4225": 122,
        "4226": 215,
        "4227": 212,
        "4228": 193,
        "4229": 235,
        "4230": 79,
        "4231": 147,
        "4232": 8,
        "4233": 100,
        "4234": 190,
        "4235": 212,
        "4236": 234,
        "4237": 164,
        "4238": 199,
        "4239": 71,
        "4240": 11,
        "4241": 73,
        "4242": 136,
        "4243": 30,
        "4244": 156,
        "4245": 90,
        "4246": 106,
        "4247": 221,
        "4248": 151,
        "4249": 121,
        "4250": 12,
        "4251": 241,
        "4252": 185,
        "4253": 148,
        "4254": 195,
        "4255": 117,
        "4256": 91,
        "4257": 181,
        "4258": 228,
        "4259": 200,
        "4260": 33,
        "4261": 222,
        "4262": 6,
        "4263": 22,
        "4264": 132,
        "4265": 118,
        "4266": 190,
        "4267": 88,
        "4268": 226,
        "4269": 15,
        "4270": 18,
        "4271": 57,
        "4272": 173,
        "4273": 242,
        "4274": 155,
        "4275": 121,
        "4276": 78,
        "4277": 142,
        "4278": 104,
        "4279": 32,
        "4280": 203,
        "4281": 184,
        "4282": 119,
        "4283": 72,
        "4284": 102,
        "4285": 143,
        "4286": 167,
        "4287": 27,
        "4288": 221,
        "4289": 248,
        "4290": 121,
        "4291": 25,
        "4292": 130,
        "4293": 100,
        "4294": 120,
        "4295": 77,
        "4296": 218,
        "4297": 45,
        "4298": 179,
        "4299": 124,
        "4300": 161,
        "4301": 53,
        "4302": 1,
        "4303": 218,
        "4304": 245,
        "4305": 120,
        "4306": 219,
        "4307": 94,
        "4308": 122,
        "4309": 118,
        "4310": 106,
        "4311": 128,
        "4312": 115,
        "4313": 175,
        "4314": 155,
        "4315": 195,
        "4316": 37,
        "4317": 193,
        "4318": 108,
        "4319": 2,
        "4320": 24,
        "4321": 31,
        "4322": 141,
        "4323": 206,
        "4324": 211,
        "4325": 119,
        "4326": 209,
        "4327": 184,
        "4328": 205,
        "4329": 24,
        "4330": 4,
        "4331": 76,
        "4332": 136,
        "4333": 129,
        "4334": 90,
        "4335": 64,
        "4336": 122,
        "4337": 12,
        "4338": 251,
        "4339": 152,
        "4340": 116,
        "4341": 150,
        "4342": 59,
        "4343": 1,
        "4344": 38,
        "4345": 245,
        "4346": 6,
        "4347": 120,
        "4348": 205,
        "4349": 237,
        "4350": 229,
        "4351": 99,
        "4352": 91,
        "4353": 210,
        "4354": 254,
        "4355": 149,
        "4356": 102,
        "4357": 150,
        "4358": 37,
        "4359": 119,
        "4360": 202,
        "4361": 111,
        "4362": 225,
        "4363": 52,
        "4364": 113,
        "4365": 101,
        "4366": 117,
        "4367": 51,
        "4368": 141,
        "4369": 167,
        "4370": 250,
        "4371": 179,
        "4372": 68,
        "4373": 153,
        "4374": 183,
        "4375": 205,
        "4376": 195,
        "4377": 238,
        "4378": 232,
        "4379": 93,
        "4380": 149,
        "4381": 3,
        "4382": 252,
        "4383": 66,
        "4384": 100,
        "4385": 175,
        "4386": 236,
        "4387": 238,
        "4388": 56,
        "4389": 214,
        "4390": 245,
        "4391": 205,
        "4392": 21,
        "4393": 52,
        "4394": 46,
        "4395": 154,
        "4396": 220,
        "4397": 33,
        "4398": 79,
        "4399": 251,
        "4400": 246,
        "4401": 224,
        "4402": 201,
        "4403": 253,
        "4404": 145,
        "4405": 7,
        "4406": 56,
        "4407": 9,
        "4408": 80,
        "4409": 124,
        "4410": 189,
        "4411": 145,
        "4412": 48,
        "4413": 118,
        "4414": 223,
        "4415": 56,
        "4416": 154,
        "4417": 205,
        "4418": 89,
        "4419": 124,
        "4420": 167,
        "4421": 168,
        "4422": 41,
        "4423": 60,
        "4424": 78,
        "4425": 190,
        "4426": 90,
        "4427": 74,
        "4428": 200,
        "4429": 155,
        "4430": 176,
        "4431": 33,
        "4432": 119,
        "4433": 108,
        "4434": 61,
        "4435": 246,
        "4436": 38,
        "4437": 194,
        "4438": 68,
        "4439": 217,
        "4440": 83,
        "4441": 73,
        "4442": 243,
        "4443": 214,
        "4444": 176,
        "4445": 67,
        "4446": 44,
        "4447": 233,
        "4448": 24,
        "4449": 115,
        "4450": 95,
        "4451": 226,
        "4452": 7,
        "4453": 155,
        "4454": 113,
        "4455": 226,
        "4456": 71,
        "4457": 79,
        "4458": 234,
        "4459": 52,
        "4460": 116,
        "4461": 208,
        "4462": 219,
        "4463": 220,
        "4464": 58,
        "4465": 65,
        "4466": 146,
        "4467": 114,
        "4468": 78,
        "4469": 101,
        "4470": 218,
        "4471": 61,
        "4472": 144,
        "4473": 157,
        "4474": 106,
        "4475": 26,
        "4476": 152,
        "4477": 196,
        "4478": 29,
        "4479": 47,
        "4480": 128,
        "4481": 43,
        "4482": 125,
        "4483": 97,
        "4484": 248,
        "4485": 215,
        "4486": 155,
        "4487": 136,
        "4488": 154,
        "4489": 143,
        "4490": 31,
        "4491": 49,
        "4492": 173,
        "4493": 41,
        "4494": 212,
        "4495": 82,
        "4496": 132,
        "4497": 101,
        "4498": 254,
        "4499": 123,
        "4500": 96,
        "4501": 222,
        "4502": 96,
        "4503": 42,
        "4504": 213,
        "4505": 211,
        "4506": 89,
        "4507": 28,
        "4508": 244,
        "4509": 210,
        "4510": 172,
        "4511": 122,
        "4512": 214,
        "4513": 158,
        "4514": 130,
        "4515": 88,
        "4516": 202,
        "4517": 13,
        "4518": 183,
        "4519": 122,
        "4520": 186,
        "4521": 139,
        "4522": 22,
        "4523": 43,
        "4524": 231,
        "4525": 211,
        "4526": 95,
        "4527": 191,
        "4528": 182,
        "4529": 38,
        "4530": 213,
        "4531": 23,
        "4532": 106,
        "4533": 159,
        "4534": 229,
        "4535": 217,
        "4536": 62,
        "4537": 253,
        "4538": 93,
        "4539": 251,
        "4540": 29,
        "4541": 118,
        "4542": 44,
        "4543": 40,
        "4544": 251,
        "4545": 134,
        "4546": 232,
        "4547": 225,
        "4548": 38,
        "4549": 203,
        "4550": 222,
        "4551": 191,
        "4552": 208,
        "4553": 59,
        "4554": 46,
        "4555": 133,
        "4556": 214,
        "4557": 25,
        "4558": 35,
        "4559": 229,
        "4560": 168,
        "4561": 226,
        "4562": 74,
        "4563": 154,
        "4564": 98,
        "4565": 19,
        "4566": 136,
        "4567": 141,
        "4568": 239,
        "4569": 125,
        "4570": 59,
        "4571": 72,
        "4572": 42,
        "4573": 177,
        "4574": 151,
        "4575": 193,
        "4576": 165,
        "4577": 16,
        "4578": 187,
        "4579": 166,
        "4580": 194,
        "4581": 181,
        "4582": 238,
        "4583": 68,
        "4584": 168,
        "4585": 102,
        "4586": 196,
        "4587": 7,
        "4588": 188,
        "4589": 105,
        "4590": 255,
        "4591": 163,
        "4592": 76,
        "4593": 199,
        "4594": 115,
        "4595": 217,
        "4596": 253,
        "4597": 185,
        "4598": 152,
        "4599": 140,
        "4600": 244,
        "4601": 30,
        "4602": 73,
        "4603": 117,
        "4604": 142,
        "4605": 81,
        "4606": 235,
        "4607": 11,
        "4608": 53,
        "4609": 6,
        "4610": 208,
        "4611": 70,
        "4612": 166,
        "4613": 137,
        "4614": 129,
        "4615": 101,
        "4616": 199,
        "4617": 180,
        "4618": 53,
        "4619": 238,
        "4620": 212,
        "4621": 97,
        "4622": 51,
        "4623": 249,
        "4624": 80,
        "4625": 241,
        "4626": 199,
        "4627": 226,
        "4628": 121,
        "4629": 228,
        "4630": 12,
        "4631": 60,
        "4632": 35,
        "4633": 34,
        "4634": 17,
        "4635": 214,
        "4636": 226,
        "4637": 255,
        "4638": 201,
        "4639": 74,
        "4640": 14,
        "4641": 22,
        "4642": 20,
        "4643": 89,
        "4644": 233,
        "4645": 203,
        "4646": 5,
        "4647": 254,
        "4648": 93,
        "4649": 146,
        "4650": 194,
        "4651": 224,
        "4652": 158,
        "4653": 177,
        "4654": 46,
        "4655": 12,
        "4656": 251,
        "4657": 97,
        "4658": 39,
        "4659": 244,
        "4660": 147,
        "4661": 82,
        "4662": 110,
        "4663": 27,
        "4664": 212,
        "4665": 151,
        "4666": 112,
        "4667": 235,
        "4668": 3,
        "4669": 39,
        "4670": 128,
        "4671": 81,
        "4672": 142,
        "4673": 116,
        "4674": 192,
        "4675": 40,
        "4676": 129,
        "4677": 49,
        "4678": 80,
        "4679": 86,
        "4680": 162,
        "4681": 139,
        "4682": 127,
        "4683": 166,
        "4684": 97,
        "4685": 156,
        "4686": 56,
        "4687": 152,
        "4688": 251,
        "4689": 163,
        "4690": 47,
        "4691": 36,
        "4692": 204,
        "4693": 30,
        "4694": 246,
        "4695": 101,
        "4696": 20,
        "4697": 134,
        "4698": 85,
        "4699": 181,
        "4700": 29,
        "4701": 56,
        "4702": 206,
        "4703": 185,
        "4704": 193,
        "4705": 122,
        "4706": 229,
        "4707": 183,
        "4708": 184,
        "4709": 155,
        "4710": 130,
        "4711": 131,
        "4712": 172,
        "4713": 89,
        "4714": 32,
        "4715": 52,
        "4716": 131,
        "4717": 6,
        "4718": 194,
        "4719": 203,
        "4720": 243,
        "4721": 159,
        "4722": 16,
        "4723": 69,
        "4724": 101,
        "4725": 235,
        "4726": 225,
        "4727": 217,
        "4728": 89,
        "4729": 103,
        "4730": 2,
        "4731": 93,
        "4732": 89,
        "4733": 174,
        "4734": 144,
        "4735": 131,
        "4736": 92,
        "4737": 239,
        "4738": 157,
        "4739": 255,
        "4740": 191,
        "4741": 165,
        "4742": 97,
        "4743": 176,
        "4744": 105,
        "4745": 121,
        "4746": 230,
        "4747": 220,
        "4748": 6,
        "4749": 38,
        "4750": 251,
        "4751": 28,
        "4752": 187,
        "4753": 194,
        "4754": 73,
        "4755": 116,
        "4756": 146,
        "4757": 38,
        "4758": 137,
        "4759": 9,
        "4760": 81,
        "4761": 105,
        "4762": 222,
        "4763": 217,
        "4764": 40,
        "4765": 203,
        "4766": 209,
        "4767": 254,
        "4768": 242,
        "4769": 27,
        "4770": 250,
        "4771": 22,
        "4772": 243,
        "4773": 21,
        "4774": 76,
        "4775": 231,
        "4776": 247,
        "4777": 72,
        "4778": 170,
        "4779": 149,
        "4780": 71,
        "4781": 8,
        "4782": 238,
        "4783": 63,
        "4784": 124,
        "4785": 144,
        "4786": 176,
        "4787": 61,
        "4788": 143,
        "4789": 24,
        "4790": 200,
        "4791": 233,
        "4792": 235,
        "4793": 130,
        "4794": 51,
        "4795": 138,
        "4796": 212,
        "4797": 16,
        "4798": 220,
        "4799": 89,
        "4800": 77,
        "4801": 128,
        "4802": 129,
        "4803": 239,
        "4804": 41,
        "4805": 131,
        "4806": 55,
        "4807": 52,
        "4808": 208,
        "4809": 193,
        "4810": 184,
        "4811": 123,
        "4812": 197,
        "4813": 206,
        "4814": 150,
        "4815": 234,
        "4816": 167,
        "4817": 233,
        "4818": 86,
        "4819": 112,
        "4820": 216,
        "4821": 87,
        "4822": 98,
        "4823": 93,
        "4824": 122,
        "4825": 234,
        "4826": 229,
        "4827": 231,
        "4828": 161,
        "4829": 120,
        "4830": 97,
        "4831": 171,
        "4832": 219,
        "4833": 96,
        "4834": 109,
        "4835": 253,
        "4836": 99,
        "4837": 209,
        "4838": 1,
        "4839": 148,
        "4840": 38,
        "4841": 254,
        "4842": 203,
        "4843": 164,
        "4844": 219,
        "4845": 11,
        "4846": 247,
        "4847": 22,
        "4848": 197,
        "4849": 18,
        "4850": 251,
        "4851": 29,
        "4852": 82,
        "4853": 115,
        "4854": 119,
        "4855": 29,
        "4856": 73,
        "4857": 194,
        "4858": 23,
        "4859": 209,
        "4860": 8,
        "4861": 91,
        "4862": 123,
        "4863": 205,
        "4864": 19,
        "4865": 4,
        "4866": 220,
        "4867": 87,
        "4868": 100,
        "4869": 54,
        "4870": 75,
        "4871": 33,
        "4872": 226,
        "4873": 14,
        "4874": 10,
        "4875": 47,
        "4876": 73,
        "4877": 86,
        "4878": 254,
        "4879": 201,
        "4880": 70,
        "4881": 68,
        "4882": 95,
        "4883": 172,
        "4884": 203,
        "4885": 111,
        "4886": 165,
        "4887": 96,
        "4888": 21,
        "4889": 212,
        "4890": 46,
        "4891": 119,
        "4892": 23,
        "4893": 152,
        "4894": 54,
        "4895": 49,
        "4896": 246,
        "4897": 215,
        "4898": 185,
        "4899": 105,
        "4900": 247,
        "4901": 104,
        "4902": 204,
        "4903": 56,
        "4904": 40,
        "4905": 68,
        "4906": 3,
        "4907": 105,
        "4908": 1,
        "4909": 176,
        "4910": 20,
        "4911": 30,
        "4912": 18,
        "4913": 192,
        "4914": 212,
        "4915": 215,
        "4916": 50,
        "4917": 207,
        "4918": 176,
        "4919": 27,
        "4920": 138,
        "4921": 185,
        "4922": 139,
        "4923": 191,
        "4924": 132,
        "4925": 110,
        "4926": 42,
        "4927": 45,
        "4928": 111,
        "4929": 85,
        "4930": 27,
        "4931": 120,
        "4932": 37,
        "4933": 247,
        "4934": 171,
        "4935": 228,
        "4936": 51,
        "4937": 161,
        "4938": 57,
        "4939": 72,
        "4940": 121,
        "4941": 4,
        "4942": 226,
        "4943": 96,
        "4944": 47,
        "4945": 40,
        "4946": 115,
        "4947": 16,
        "4948": 167,
        "4949": 98,
        "4950": 173,
        "4951": 154,
        "4952": 217,
        "4953": 62,
        "4954": 71,
        "4955": 211,
        "4956": 9,
        "4957": 130,
        "4958": 84,
        "4959": 180,
        "4960": 75,
        "4961": 137,
        "4962": 247,
        "4963": 62,
        "4964": 101,
        "4965": 36,
        "4966": 149,
        "4967": 218,
        "4968": 242,
        "4969": 204,
        "4970": 222,
        "4971": 82,
        "4972": 163,
        "4973": 175,
        "4974": 120,
        "4975": 140,
        "4976": 197,
        "4977": 79,
        "4978": 3,
        "4979": 246,
        "4980": 60,
        "4981": 22,
        "4982": 44,
        "4983": 194,
        "4984": 193,
        "4985": 202,
        "4986": 161,
        "4987": 19,
        "4988": 145,
        "4989": 246,
        "4990": 121,
        "4991": 6,
        "4992": 15,
        "4993": 158,
        "4994": 110,
        "4995": 191,
        "4996": 182,
        "4997": 190,
        "4998": 179,
        "4999": 37,
        "5000": 175,
        "5001": 205,
        "5002": 175,
        "5003": 113,
        "5004": 247,
        "5005": 207,
        "5006": 104,
        "5007": 127,
        "5008": 136,
        "5009": 172,
        "5010": 0,
        "5011": 150,
        "5012": 144,
        "5013": 83,
        "5014": 74,
        "5015": 150,
        "5016": 94,
        "5017": 233,
        "5018": 140,
        "5019": 241,
        "5020": 148,
        "5021": 45,
        "5022": 225,
        "5023": 64,
        "5024": 112,
        "5025": 54,
        "5026": 42,
        "5027": 153,
        "5028": 215,
        "5029": 81,
        "5030": 142,
        "5031": 47,
        "5032": 144,
        "5033": 142,
        "5034": 139,
        "5035": 219,
        "5036": 245,
        "5037": 189,
        "5038": 242,
        "5039": 15,
        "5040": 205,
        "5041": 41,
        "5042": 111,
        "5043": 231,
        "5044": 105,
        "5045": 179,
        "5046": 206,
        "5047": 146,
        "5048": 228,
        "5049": 42,
        "5050": 171,
        "5051": 221,
        "5052": 51,
        "5053": 207,
        "5054": 170,
        "5055": 235,
        "5056": 190,
        "5057": 196,
        "5058": 253,
        "5059": 122,
        "5060": 221,
        "5061": 42,
        "5062": 61,
        "5063": 191,
        "5064": 200,
        "5065": 166,
        "5066": 22,
        "5067": 201,
        "5068": 173,
        "5069": 108,
        "5070": 119,
        "5071": 71,
        "5072": 126,
        "5073": 78,
        "5074": 210,
        "5075": 175,
        "5076": 18,
        "5077": 134,
        "5078": 246,
        "5079": 36,
        "5080": 126,
        "5081": 169,
        "5082": 189,
        "5083": 251,
        "5084": 122,
        "5085": 130,
        "5086": 18,
        "5087": 26,
        "5088": 122,
        "5089": 35,
        "5090": 2,
        "5091": 146,
        "5092": 220,
        "5093": 215,
        "5094": 77,
        "5095": 123,
        "5096": 131,
        "5097": 108,
        "5098": 135,
        "5099": 68,
        "5100": 176,
        "5101": 255,
        "5102": 100,
        "5103": 219,
        "5104": 177,
        "5105": 32,
        "5106": 91,
        "5107": 184,
        "5108": 148,
        "5109": 168,
        "5110": 127,
        "5111": 146,
        "5112": 12,
        "5113": 24,
        "5114": 182,
        "5115": 223,
        "5116": 69,
        "5117": 228,
        "5118": 161,
        "5119": 245,
        "5120": 233,
        "5121": 233,
        "5122": 49,
        "5123": 42,
        "5124": 246,
        "5125": 175,
        "5126": 180,
        "5127": 71,
        "5128": 14,
        "5129": 133,
        "5130": 173,
        "5131": 22,
        "5132": 203,
        "5133": 255,
        "5134": 26,
        "5135": 43,
        "5136": 230,
        "5137": 120,
        "5138": 70,
        "5139": 6,
        "5140": 201,
        "5141": 100,
        "5142": 30,
        "5143": 34,
        "5144": 220,
        "5145": 181,
        "5146": 66,
        "5147": 251,
        "5148": 117,
        "5149": 114,
        "5150": 9,
        "5151": 76,
        "5152": 32,
        "5153": 25,
        "5154": 211,
        "5155": 104,
        "5156": 197,
        "5157": 249,
        "5158": 240,
        "5159": 252,
        "5160": 205,
        "5161": 153,
        "5162": 232,
        "5163": 197,
        "5164": 176,
        "5165": 193,
        "5166": 165,
        "5167": 104,
        "5168": 87,
        "5169": 89,
        "5170": 126,
        "5171": 5,
        "5172": 124,
        "5173": 238,
        "5174": 42,
        "5175": 157,
        "5176": 103,
        "5177": 154,
        "5178": 224,
        "5179": 153,
        "5180": 50,
        "5181": 175,
        "5182": 239,
        "5183": 174,
        "5184": 94,
        "5185": 110,
        "5186": 182,
        "5187": 62,
        "5188": 56,
        "5189": 83,
        "5190": 72,
        "5191": 117,
        "5192": 203,
        "5193": 106,
        "5194": 236,
        "5195": 168,
        "5196": 99,
        "5197": 206,
        "5198": 107,
        "5199": 208,
        "5200": 14,
        "5201": 207,
        "5202": 65,
        "5203": 41,
        "5204": 112,
        "5205": 148,
        "5206": 168,
        "5207": 132,
        "5208": 222,
        "5209": 94,
        "5210": 236,
        "5211": 134,
        "5212": 160,
        "5213": 59,
        "5214": 196,
        "5215": 217,
        "5216": 68,
        "5217": 15,
        "5218": 153,
        "5219": 241,
        "5220": 234,
        "5221": 164,
        "5222": 170,
        "5223": 163,
        "5224": 93,
        "5225": 133,
        "5226": 34,
        "5227": 54,
        "5228": 210,
        "5229": 185,
        "5230": 193,
        "5231": 156,
        "5232": 207,
        "5233": 115,
        "5234": 233,
        "5235": 111,
        "5236": 73,
        "5237": 217,
        "5238": 184,
        "5239": 132,
        "5240": 117,
        "5241": 25,
        "5242": 7,
        "5243": 204,
        "5244": 23,
        "5245": 235,
        "5246": 74,
        "5247": 37,
        "5248": 198,
        "5249": 155,
        "5250": 35,
        "5251": 121,
        "5252": 75,
        "5253": 107,
        "5254": 176,
        "5255": 55,
        "5256": 248,
        "5257": 210,
        "5258": 97,
        "5259": 235,
        "5260": 172,
        "5261": 129,
        "5262": 7,
        "5263": 117,
        "5264": 159,
        "5265": 52,
        "5266": 48,
        "5267": 132,
        "5268": 13,
        "5269": 50,
        "5270": 229,
        "5271": 207,
        "5272": 9,
        "5273": 215,
        "5274": 236,
        "5275": 44,
        "5276": 168,
        "5277": 69,
        "5278": 77,
        "5279": 174,
        "5280": 15,
        "5281": 33,
        "5282": 205,
        "5283": 103,
        "5284": 213,
        "5285": 121,
        "5286": 179,
        "5287": 213,
        "5288": 194,
        "5289": 179,
        "5290": 66,
        "5291": 225,
        "5292": 124,
        "5293": 242,
        "5294": 227,
        "5295": 121,
        "5296": 191,
        "5297": 15,
        "5298": 57,
        "5299": 200,
        "5300": 216,
        "5301": 118,
        "5302": 190,
        "5303": 87,
        "5304": 168,
        "5305": 233,
        "5306": 136,
        "5307": 206,
        "5308": 100,
        "5309": 154,
        "5310": 143,
        "5311": 103,
        "5312": 130,
        "5313": 241,
        "5314": 221,
        "5315": 186,
        "5316": 30,
        "5317": 14,
        "5318": 68,
        "5319": 38,
        "5320": 164,
        "5321": 55,
        "5322": 183,
        "5323": 167,
        "5324": 70,
        "5325": 116,
        "5326": 76,
        "5327": 127,
        "5328": 99,
        "5329": 63,
        "5330": 253,
        "5331": 148,
        "5332": 38,
        "5333": 234,
        "5334": 255,
        "5335": 252,
        "5336": 241,
        "5337": 239,
        "5338": 109,
        "5339": 246,
        "5340": 103,
        "5341": 205,
        "5342": 143,
        "5343": 156,
        "5344": 249,
        "5345": 215,
        "5346": 197,
        "5347": 53,
        "5348": 59,
        "5349": 153,
        "5350": 218,
        "5351": 183,
        "5352": 216,
        "5353": 114,
        "5354": 171,
        "5355": 123,
        "5356": 190,
        "5357": 4,
        "5358": 76,
        "5359": 226,
        "5360": 185,
        "5361": 179,
        "5362": 103,
        "5363": 31,
        "5364": 178,
        "5365": 193,
        "5366": 100,
        "5367": 187,
        "5368": 220,
        "5369": 50,
        "5370": 112,
        "5371": 120,
        "5372": 94,
        "5373": 93,
        "5374": 147,
        "5375": 101,
        "5376": 165,
        "5377": 52,
        "5378": 52,
        "5379": 36,
        "5380": 219,
        "5381": 96,
        "5382": 158,
        "5383": 79,
        "5384": 94,
        "5385": 35,
        "5386": 79,
        "5387": 66,
        "5388": 63,
        "5389": 30,
        "5390": 180,
        "5391": 138,
        "5392": 190,
        "5393": 123,
        "5394": 138,
        "5395": 210,
        "5396": 181,
        "5397": 74,
        "5398": 227,
        "5399": 224,
        "5400": 214,
        "5401": 17,
        "5402": 32,
        "5403": 7,
        "5404": 122,
        "5405": 124,
        "5406": 243,
        "5407": 230,
        "5408": 53,
        "5409": 99,
        "5410": 48,
        "5411": 162,
        "5412": 37,
        "5413": 80,
        "5414": 101,
        "5415": 42,
        "5416": 229,
        "5417": 163,
        "5418": 203,
        "5419": 65,
        "5420": 160,
        "5421": 189,
        "5422": 224,
        "5423": 72,
        "5424": 211,
        "5425": 203,
        "5426": 48,
        "5427": 78,
        "5428": 18,
        "5429": 235,
        "5430": 167,
        "5431": 226,
        "5432": 42,
        "5433": 30,
        "5434": 131,
        "5435": 250,
        "5436": 170,
        "5437": 157,
        "5438": 111,
        "5439": 187,
        "5440": 253,
        "5441": 78,
        "5442": 120,
        "5443": 130,
        "5444": 197,
        "5445": 68,
        "5446": 246,
        "5447": 111,
        "5448": 70,
        "5449": 255,
        "5450": 37,
        "5451": 76,
        "5452": 148,
        "5453": 206,
        "5454": 28,
        "5455": 52,
        "5456": 239,
        "5457": 164,
        "5458": 0,
        "5459": 221,
        "5460": 151,
        "5461": 83,
        "5462": 228,
        "5463": 177,
        "5464": 103,
        "5465": 59,
        "5466": 147,
        "5467": 79,
        "5468": 52,
        "5469": 192,
        "5470": 54,
        "5471": 200,
        "5472": 197,
        "5473": 248,
        "5474": 80,
        "5475": 163,
        "5476": 233,
        "5477": 212,
        "5478": 243,
        "5479": 17,
        "5480": 223,
        "5481": 74,
        "5482": 125,
        "5483": 203,
        "5484": 26,
        "5485": 172,
        "5486": 43,
        "5487": 113,
        "5488": 72,
        "5489": 13,
        "5490": 53,
        "5491": 153,
        "5492": 151,
        "5493": 66,
        "5494": 78,
        "5495": 192,
        "5496": 122,
        "5497": 2,
        "5498": 103,
        "5499": 181,
        "5500": 131,
        "5501": 69,
        "5502": 73,
        "5503": 64,
        "5504": 63,
        "5505": 48,
        "5506": 45,
        "5507": 153,
        "5508": 199,
        "5509": 212,
        "5510": 139,
        "5511": 248,
        "5512": 85,
        "5513": 196,
        "5514": 200,
        "5515": 249,
        "5516": 132,
        "5517": 147,
        "5518": 226,
        "5519": 28,
        "5520": 145,
        "5521": 86,
        "5522": 190,
        "5523": 144,
        "5524": 116,
        "5525": 33,
        "5526": 2,
        "5527": 61,
        "5528": 188,
        "5529": 168,
        "5530": 241,
        "5531": 152,
        "5532": 148,
        "5533": 75,
        "5534": 68,
        "5535": 135,
        "5536": 241,
        "5537": 71,
        "5538": 2,
        "5539": 10,
        "5540": 58,
        "5541": 55,
        "5542": 145,
        "5543": 245,
        "5544": 135,
        "5545": 173,
        "5546": 8,
        "5547": 241,
        "5548": 178,
        "5549": 69,
        "5550": 78,
        "5551": 119,
        "5552": 239,
        "5553": 155,
        "5554": 197,
        "5555": 202,
        "5556": 253,
        "5557": 19,
        "5558": 183,
        "5559": 82,
        "5560": 35,
        "5561": 22,
        "5562": 94,
        "5563": 216,
        "5564": 115,
        "5565": 239,
        "5566": 21,
        "5567": 153,
        "5568": 76,
        "5569": 26,
        "5570": 57,
        "5571": 76,
        "5572": 145,
        "5573": 213,
        "5574": 88,
        "5575": 127,
        "5576": 24,
        "5577": 236,
        "5578": 153,
        "5579": 172,
        "5580": 179,
        "5581": 214,
        "5582": 56,
        "5583": 107,
        "5584": 82,
        "5585": 233,
        "5586": 143,
        "5587": 99,
        "5588": 153,
        "5589": 154,
        "5590": 141,
        "5591": 1,
        "5592": 124,
        "5593": 93,
        "5594": 16,
        "5595": 98,
        "5596": 150,
        "5597": 20,
        "5598": 16,
        "5599": 31,
        "5600": 143,
        "5601": 236,
        "5602": 46,
        "5603": 62,
        "5604": 155,
        "5605": 188,
        "5606": 191,
        "5607": 100,
        "5608": 82,
        "5609": 226,
        "5610": 100,
        "5611": 27,
        "5612": 48,
        "5613": 21,
        "5614": 174,
        "5615": 16,
        "5616": 182,
        "5617": 21,
        "5618": 145,
        "5619": 78,
        "5620": 255,
        "5621": 95,
        "5622": 205,
        "5623": 20,
        "5624": 157,
        "5625": 203,
        "5626": 51,
        "5627": 159,
        "5628": 214,
        "5629": 252,
        "5630": 223,
        "5631": 220,
        "5632": 219,
        "5633": 51,
        "5634": 111,
        "5635": 49,
        "5636": 245,
        "5637": 233,
        "5638": 52,
        "5639": 43,
        "5640": 117,
        "5641": 245,
        "5642": 111,
        "5643": 43,
        "5644": 212,
        "5645": 227,
        "5646": 40,
        "5647": 186,
        "5648": 109,
        "5649": 29,
        "5650": 198,
        "5651": 58,
        "5652": 13,
        "5653": 186,
        "5654": 41,
        "5655": 112,
        "5656": 195,
        "5657": 42,
        "5658": 129,
        "5659": 128,
        "5660": 241,
        "5661": 141,
        "5662": 164,
        "5663": 86,
        "5664": 147,
        "5665": 21,
        "5666": 138,
        "5667": 108,
        "5668": 231,
        "5669": 122,
        "5670": 180,
        "5671": 187,
        "5672": 4,
        "5673": 53,
        "5674": 24,
        "5675": 154,
        "5676": 60,
        "5677": 149,
        "5678": 102,
        "5679": 149,
        "5680": 38,
        "5681": 252,
        "5682": 10,
        "5683": 39,
        "5684": 66,
        "5685": 203,
        "5686": 27,
        "5687": 23,
        "5688": 223,
        "5689": 68,
        "5690": 209,
        "5691": 171,
        "5692": 122,
        "5693": 50,
        "5694": 61,
        "5695": 60,
        "5696": 126,
        "5697": 45,
        "5698": 168,
        "5699": 115,
        "5700": 28,
        "5701": 129,
        "5702": 20,
        "5703": 101,
        "5704": 58,
        "5705": 120,
        "5706": 179,
        "5707": 210,
        "5708": 234,
        "5709": 163,
        "5710": 103,
        "5711": 235,
        "5712": 30,
        "5713": 204,
        "5714": 29,
        "5715": 22,
        "5716": 106,
        "5717": 191,
        "5718": 92,
        "5719": 17,
        "5720": 157,
        "5721": 197,
        "5722": 6,
        "5723": 29,
        "5724": 170,
        "5725": 141,
        "5726": 27,
        "5727": 90,
        "5728": 81,
        "5729": 98,
        "5730": 53,
        "5731": 3,
        "5732": 178,
        "5733": 210,
        "5734": 162,
        "5735": 175,
        "5736": 114,
        "5737": 219,
        "5738": 236,
        "5739": 168,
        "5740": 255,
        "5741": 207,
        "5742": 44,
        "5743": 132,
        "5744": 241,
        "5745": 15,
        "5746": 151,
        "5747": 68,
        "5748": 254,
        "5749": 83,
        "5750": 81,
        "5751": 158,
        "5752": 157,
        "5753": 225,
        "5754": 71,
        "5755": 236,
        "5756": 147,
        "5757": 3,
        "5758": 79,
        "5759": 144,
        "5760": 202,
        "5761": 83,
        "5762": 157,
        "5763": 255,
        "5764": 74,
        "5765": 46,
        "5766": 37,
        "5767": 217,
        "5768": 69,
        "5769": 67,
        "5770": 182,
        "5771": 20,
        "5772": 11,
        "5773": 37,
        "5774": 81,
        "5775": 20,
        "5776": 118,
        "5777": 106,
        "5778": 186,
        "5779": 146,
        "5780": 161,
        "5781": 243,
        "5782": 197,
        "5783": 103,
        "5784": 29,
        "5785": 179,
        "5786": 76,
        "5787": 218,
        "5788": 48,
        "5789": 186,
        "5790": 72,
        "5791": 134,
        "5792": 226,
        "5793": 88,
        "5794": 189,
        "5795": 105,
        "5796": 63,
        "5797": 128,
        "5798": 25,
        "5799": 19,
        "5800": 255,
        "5801": 189,
        "5802": 249,
        "5803": 134,
        "5804": 162,
        "5805": 209,
        "5806": 53,
        "5807": 241,
        "5808": 230,
        "5809": 39,
        "5810": 159,
        "5811": 94,
        "5812": 134,
        "5813": 193,
        "5814": 141,
        "5815": 52,
        "5816": 113,
        "5817": 205,
        "5818": 18,
        "5819": 23,
        "5820": 21,
        "5821": 92,
        "5822": 0,
        "5823": 150,
        "5824": 117,
        "5825": 33,
        "5826": 26,
        "5827": 230,
        "5828": 63,
        "5829": 55,
        "5830": 91,
        "5831": 164,
        "5832": 226,
        "5833": 220,
        "5834": 29,
        "5835": 150,
        "5836": 187,
        "5837": 37,
        "5838": 175,
        "5839": 240,
        "5840": 34,
        "5841": 32,
        "5842": 148,
        "5843": 54,
        "5844": 134,
        "5845": 111,
        "5846": 74,
        "5847": 21,
        "5848": 74,
        "5849": 96,
        "5850": 245,
        "5851": 4,
        "5852": 135,
        "5853": 56,
        "5854": 180,
        "5855": 159,
        "5856": 19,
        "5857": 49,
        "5858": 145,
        "5859": 21,
        "5860": 59,
        "5861": 194,
        "5862": 139,
        "5863": 202,
        "5864": 137,
        "5865": 72,
        "5866": 95,
        "5867": 233,
        "5868": 111,
        "5869": 22,
        "5870": 161,
        "5871": 129,
        "5872": 247,
        "5873": 136,
        "5874": 74,
        "5875": 156,
        "5876": 156,
        "5877": 90,
        "5878": 221,
        "5879": 214,
        "5880": 50,
        "5881": 196,
        "5882": 145,
        "5883": 170,
        "5884": 220,
        "5885": 192,
        "5886": 32,
        "5887": 126,
        "5888": 30,
        "5889": 0,
        "5890": 157,
        "5891": 234,
        "5892": 10,
        "5893": 100,
        "5894": 178,
        "5895": 160,
        "5896": 68,
        "5897": 231,
        "5898": 244,
        "5899": 217,
        "5900": 74,
        "5901": 14,
        "5902": 122,
        "5903": 69,
        "5904": 8,
        "5905": 3,
        "5906": 39,
        "5907": 97,
        "5908": 110,
        "5909": 147,
        "5910": 79,
        "5911": 149,
        "5912": 198,
        "5913": 39,
        "5914": 147,
        "5915": 207,
        "5916": 113,
        "5917": 31,
        "5918": 68,
        "5919": 198,
        "5920": 178,
        "5921": 25,
        "5922": 171,
        "5923": 79,
        "5924": 11,
        "5925": 163,
        "5926": 61,
        "5927": 97,
        "5928": 29,
        "5929": 174,
        "5930": 79,
        "5931": 255,
        "5932": 104,
        "5933": 188,
        "5934": 224,
        "5935": 99,
        "5936": 191,
        "5937": 100,
        "5938": 168,
        "5939": 176,
        "5940": 191,
        "5941": 67,
        "5942": 180,
        "5943": 3,
        "5944": 199,
        "5945": 157,
        "5946": 63,
        "5947": 25,
        "5948": 2,
        "5949": 53,
        "5950": 210,
        "5951": 251,
        "5952": 12,
        "5953": 100,
        "5954": 3,
        "5955": 187,
        "5956": 211,
        "5957": 63,
        "5958": 124,
        "5959": 26,
        "5960": 152,
        "5961": 122,
        "5962": 101,
        "5963": 200,
        "5964": 7,
        "5965": 180,
        "5966": 205,
        "5967": 108,
        "5968": 200,
        "5969": 214,
        "5970": 206,
        "5971": 241,
        "5972": 202,
        "5973": 1,
        "5974": 162,
        "5975": 23,
        "5976": 232,
        "5977": 202,
        "5978": 253,
        "5979": 156,
        "5980": 205,
        "5981": 178,
        "5982": 95,
        "5983": 98,
        "5984": 239,
        "5985": 227,
        "5986": 61,
        "5987": 32,
        "5988": 157,
        "5989": 169,
        "5990": 248,
        "5991": 226,
        "5992": 55,
        "5993": 66,
        "5994": 126,
        "5995": 246,
        "5996": 160,
        "5997": 105,
        "5998": 230,
        "5999": 194,
        "6000": 204,
        "6001": 89,
        "6002": 121,
        "6003": 138,
        "6004": 168,
        "6005": 133,
        "6006": 38,
        "6007": 212,
        "6008": 101,
        "6009": 140,
        "6010": 12,
        "6011": 66,
        "6012": 156,
        "6013": 247,
        "6014": 77,
        "6015": 214,
        "6016": 67,
        "6017": 167,
        "6018": 247,
        "6019": 0,
        "6020": 240,
        "6021": 105,
        "6022": 181,
        "6023": 103,
        "6024": 213,
        "6025": 15,
        "6026": 255,
        "6027": 163,
        "6028": 11,
        "6029": 81,
        "6030": 190,
        "6031": 11,
        "6032": 250,
        "6033": 183,
        "6034": 2,
        "6035": 165,
        "6036": 23,
        "6037": 193,
        "6038": 196,
        "6039": 228,
        "6040": 66,
        "6041": 159,
        "6042": 241,
        "6043": 174,
        "6044": 45,
        "6045": 182,
        "6046": 218,
        "6047": 147,
        "6048": 111,
        "6049": 91,
        "6050": 60,
        "6051": 119,
        "6052": 24,
        "6053": 7,
        "6054": 159,
        "6055": 189,
        "6056": 233,
        "6057": 225,
        "6058": 197,
        "6059": 187,
        "6060": 74,
        "6061": 245,
        "6062": 109,
        "6063": 77,
        "6064": 193,
        "6065": 251,
        "6066": 110,
        "6067": 247,
        "6068": 76,
        "6069": 45,
        "6070": 104,
        "6071": 51,
        "6072": 101,
        "6073": 96,
        "6074": 57,
        "6075": 35,
        "6076": 6,
        "6077": 193,
        "6078": 193,
        "6079": 168,
        "6080": 237,
        "6081": 197,
        "6082": 11,
        "6083": 207,
        "6084": 248,
        "6085": 55,
        "6086": 83,
        "6087": 188,
        "6088": 144,
        "6089": 211,
        "6090": 231,
        "6091": 244,
        "6092": 9,
        "6093": 174,
        "6094": 67,
        "6095": 109,
        "6096": 157,
        "6097": 161,
        "6098": 206,
        "6099": 237,
        "6100": 132,
        "6101": 16,
        "6102": 124,
        "6103": 168,
        "6104": 176,
        "6105": 142,
        "6106": 20,
        "6107": 153,
        "6108": 40,
        "6109": 88,
        "6110": 80,
        "6111": 84,
        "6112": 122,
        "6113": 41,
        "6114": 178,
        "6115": 102,
        "6116": 139,
        "6117": 7,
        "6118": 207,
        "6119": 136,
        "6120": 129,
        "6121": 85,
        "6122": 134,
        "6123": 83,
        "6124": 31,
        "6125": 84,
        "6126": 95,
        "6127": 47,
        "6128": 82,
        "6129": 0,
        "6130": 82,
        "6131": 45,
        "6132": 33,
        "6133": 172,
        "6134": 98,
        "6135": 103,
        "6136": 178,
        "6137": 212,
        "6138": 165,
        "6139": 139,
        "6140": 100,
        "6141": 96,
        "6142": 34,
        "6143": 246,
        "6144": 250,
        "6145": 138,
        "6146": 208,
        "6147": 134,
        "6148": 123,
        "6149": 215,
        "6150": 48,
        "6151": 114,
        "6152": 226,
        "6153": 141,
        "6154": 206,
        "6155": 220,
        "6156": 68,
        "6157": 106,
        "6158": 20,
        "6159": 228,
        "6160": 53,
        "6161": 0,
        "6162": 86,
        "6163": 60,
        "6164": 218,
        "6165": 77,
        "6166": 139,
        "6167": 113,
        "6168": 234,
        "6169": 106,
        "6170": 54,
        "6171": 107,
        "6172": 220,
        "6173": 208,
        "6174": 147,
        "6175": 119,
        "6176": 104,
        "6177": 217,
        "6178": 41,
        "6179": 98,
        "6180": 99,
        "6181": 248,
        "6182": 254,
        "6183": 208,
        "6184": 147,
        "6185": 249,
        "6186": 102,
        "6187": 93,
        "6188": 168,
        "6189": 90,
        "6190": 27,
        "6191": 97,
        "6192": 99,
        "6193": 86,
        "6194": 191,
        "6195": 148,
        "6196": 238,
        "6197": 21,
        "6198": 101,
        "6199": 243,
        "6200": 118,
        "6201": 25,
        "6202": 115,
        "6203": 64,
        "6204": 124,
        "6205": 39,
        "6206": 229,
        "6207": 145,
        "6208": 254,
        "6209": 52,
        "6210": 0,
        "6211": 187,
        "6212": 249,
        "6213": 66,
        "6214": 159,
        "6215": 38,
        "6216": 102,
        "6217": 230,
        "6218": 200,
        "6219": 160,
        "6220": 125,
        "6221": 210,
        "6222": 205,
        "6223": 188,
        "6224": 38,
        "6225": 224,
        "6226": 113,
        "6227": 173,
        "6228": 103,
        "6229": 96,
        "6230": 39,
        "6231": 1,
        "6232": 150,
        "6233": 16,
        "6234": 175,
        "6235": 236,
        "6236": 251,
        "6237": 102,
        "6238": 87,
        "6239": 251,
        "6240": 239,
        "6241": 174,
        "6242": 28,
        "6243": 123,
        "6244": 80,
        "6245": 74,
        "6246": 189,
        "6247": 220,
        "6248": 232,
        "6249": 54,
        "6250": 170,
        "6251": 26,
        "6252": 134,
        "6253": 211,
        "6254": 69,
        "6255": 150,
        "6256": 125,
        "6257": 147,
        "6258": 20,
        "6259": 234,
        "6260": 244,
        "6261": 229,
        "6262": 123,
        "6263": 27,
        "6264": 176,
        "6265": 32,
        "6266": 202,
        "6267": 106,
        "6268": 70,
        "6269": 27,
        "6270": 30,
        "6271": 42,
        "6272": 143,
        "6273": 215,
        "6274": 206,
        "6275": 13,
        "6276": 139,
        "6277": 68,
        "6278": 237,
        "6279": 232,
        "6280": 122,
        "6281": 54,
        "6282": 120,
        "6283": 85,
        "6284": 58,
        "6285": 118,
        "6286": 22,
        "6287": 223,
        "6288": 174,
        "6289": 110,
        "6290": 5,
        "6291": 201,
        "6292": 214,
        "6293": 24,
        "6294": 237,
        "6295": 160,
        "6296": 105,
        "6297": 212,
        "6298": 110,
        "6299": 232,
        "6300": 43,
        "6301": 110,
        "6302": 216,
        "6303": 84,
        "6304": 193,
        "6305": 136,
        "6306": 226,
        "6307": 123,
        "6308": 40,
        "6309": 115,
        "6310": 222,
        "6311": 255,
        "6312": 236,
        "6313": 229,
        "6314": 250,
        "6315": 210,
        "6316": 218,
        "6317": 9,
        "6318": 5,
        "6319": 148,
        "6320": 202,
        "6321": 170,
        "6322": 116,
        "6323": 9,
        "6324": 244,
        "6325": 169,
        "6326": 249,
        "6327": 49,
        "6328": 252,
        "6329": 14,
        "6330": 28,
        "6331": 88,
        "6332": 251,
        "6333": 251,
        "6334": 71,
        "6335": 125,
        "6336": 2,
        "6337": 135,
        "6338": 42,
        "6339": 135,
        "6340": 9,
        "6341": 51,
        "6342": 82,
        "6343": 127,
        "6344": 66,
        "6345": 62,
        "6346": 236,
        "6347": 168,
        "6348": 252,
        "6349": 69,
        "6350": 246,
        "6351": 205,
        "6352": 228,
        "6353": 28,
        "6354": 193,
        "6355": 90,
        "6356": 33,
        "6357": 115,
        "6358": 91,
        "6359": 126,
        "6360": 238,
        "6361": 79,
        "6362": 35,
        "6363": 103,
        "6364": 145,
        "6365": 62,
        "6366": 204,
        "6367": 216,
        "6368": 230,
        "6369": 203,
        "6370": 212,
        "6371": 138,
        "6372": 146,
        "6373": 18,
        "6374": 221,
        "6375": 102,
        "6376": 55,
        "6377": 107,
        "6378": 110,
        "6379": 182,
        "6380": 75,
        "6381": 170,
        "6382": 214,
        "6383": 14,
        "6384": 210,
        "6385": 195,
        "6386": 20,
        "6387": 245,
        "6388": 208,
        "6389": 175,
        "6390": 117,
        "6391": 36,
        "6392": 200,
        "6393": 133,
        "6394": 4,
        "6395": 103,
        "6396": 68,
        "6397": 18,
        "6398": 188,
        "6399": 116,
        "6400": 252,
        "6401": 156,
        "6402": 111,
        "6403": 217,
        "6404": 63,
        "6405": 9,
        "6406": 35,
        "6407": 136,
        "6408": 142,
        "6409": 215,
        "6410": 30,
        "6411": 98,
        "6412": 243,
        "6413": 20,
        "6414": 127,
        "6415": 174,
        "6416": 206,
        "6417": 243,
        "6418": 254,
        "6419": 121,
        "6420": 141,
        "6421": 225,
        "6422": 156,
        "6423": 23,
        "6424": 224,
        "6425": 147,
        "6426": 146,
        "6427": 93,
        "6428": 113,
        "6429": 30,
        "6430": 138,
        "6431": 69,
        "6432": 216,
        "6433": 203,
        "6434": 161,
        "6435": 134,
        "6436": 234,
        "6437": 222,
        "6438": 155,
        "6439": 21,
        "6440": 15,
        "6441": 80,
        "6442": 80,
        "6443": 139,
        "6444": 232,
        "6445": 155,
        "6446": 212,
        "6447": 247,
        "6448": 207,
        "6449": 218,
        "6450": 196,
        "6451": 160,
        "6452": 153,
        "6453": 164,
        "6454": 6,
        "6455": 119,
        "6456": 245,
        "6457": 130,
        "6458": 232,
        "6459": 76,
        "6460": 57,
        "6461": 214,
        "6462": 230,
        "6463": 176,
        "6464": 135,
        "6465": 9,
        "6466": 56,
        "6467": 8,
        "6468": 70,
        "6469": 99,
        "6470": 113,
        "6471": 179,
        "6472": 211,
        "6473": 63,
        "6474": 218,
        "6475": 120,
        "6476": 173,
        "6477": 194,
        "6478": 208,
        "6479": 245,
        "6480": 86,
        "6481": 18,
        "6482": 45,
        "6483": 12,
        "6484": 8,
        "6485": 161,
        "6486": 133,
        "6487": 248,
        "6488": 37,
        "6489": 61,
        "6490": 38,
        "6491": 88,
        "6492": 210,
        "6493": 24,
        "6494": 92,
        "6495": 147,
        "6496": 72,
        "6497": 123,
        "6498": 187,
        "6499": 66,
        "6500": 154,
        "6501": 129,
        "6502": 101,
        "6503": 189,
        "6504": 157,
        "6505": 155,
        "6506": 4,
        "6507": 130,
        "6508": 76,
        "6509": 15,
        "6510": 48,
        "6511": 169,
        "6512": 176,
        "6513": 219,
        "6514": 116,
        "6515": 145,
        "6516": 74,
        "6517": 199,
        "6518": 30,
        "6519": 175,
        "6520": 135,
        "6521": 43,
        "6522": 238,
        "6523": 96,
        "6524": 136,
        "6525": 211,
        "6526": 203,
        "6527": 227,
        "6528": 130,
        "6529": 191,
        "6530": 1,
        "6531": 120,
        "6532": 198,
        "6533": 119,
        "6534": 16,
        "6535": 86,
        "6536": 190,
        "6537": 77,
        "6538": 147,
        "6539": 0,
        "6540": 204,
        "6541": 68,
        "6542": 112,
        "6543": 91,
        "6544": 68,
        "6545": 119,
        "6546": 15,
        "6547": 119,
        "6548": 22,
        "6549": 215,
        "6550": 135,
        "6551": 231,
        "6552": 89,
        "6553": 160,
        "6554": 135,
        "6555": 79,
        "6556": 208,
        "6557": 189,
        "6558": 46,
        "6559": 134,
        "6560": 105,
        "6561": 194,
        "6562": 242,
        "6563": 11,
        "6564": 50,
        "6565": 190,
        "6566": 202,
        "6567": 4,
        "6568": 139,
        "6569": 1,
        "6570": 31,
        "6571": 52,
        "6572": 18,
        "6573": 86,
        "6574": 62,
        "6575": 55,
        "6576": 189,
        "6577": 232,
        "6578": 21,
        "6579": 26,
        "6580": 180,
        "6581": 16,
        "6582": 62,
        "6583": 132,
        "6584": 45,
        "6585": 254,
        "6586": 212,
        "6587": 241,
        "6588": 88,
        "6589": 212,
        "6590": 81,
        "6591": 128,
        "6592": 242,
        "6593": 216,
        "6594": 39,
        "6595": 181,
        "6596": 235,
        "6597": 171,
        "6598": 184,
        "6599": 216,
        "6600": 53,
        "6601": 212,
        "6602": 149,
        "6603": 8,
        "6604": 88,
        "6605": 47,
        "6606": 95,
        "6607": 224,
        "6608": 83,
        "6609": 59,
        "6610": 132,
        "6611": 217,
        "6612": 50,
        "6613": 185,
        "6614": 143,
        "6615": 142,
        "6616": 209,
        "6617": 133,
        "6618": 170,
        "6619": 228,
        "6620": 141,
        "6621": 123,
        "6622": 158,
        "6623": 47,
        "6624": 93,
        "6625": 156,
        "6626": 132,
        "6627": 105,
        "6628": 140,
        "6629": 83,
        "6630": 133,
        "6631": 250,
        "6632": 148,
        "6633": 2,
        "6634": 17,
        "6635": 181,
        "6636": 133,
        "6637": 243,
        "6638": 248,
        "6639": 242,
        "6640": 0,
        "6641": 133,
        "6642": 115,
        "6643": 217,
        "6644": 138,
        "6645": 211,
        "6646": 67,
        "6647": 200,
        "6648": 167,
        "6649": 155,
        "6650": 35,
        "6651": 253,
        "6652": 138,
        "6653": 225,
        "6654": 5,
        "6655": 145,
        "6656": 215,
        "6657": 48,
        "6658": 217,
        "6659": 199,
        "6660": 200,
        "6661": 251,
        "6662": 163,
        "6663": 188,
        "6664": 232,
        "6665": 142,
        "6666": 31,
        "6667": 117,
        "6668": 138,
        "6669": 17,
        "6670": 33,
        "6671": 42,
        "6672": 219,
        "6673": 231,
        "6674": 205,
        "6675": 171,
        "6676": 166,
        "6677": 119,
        "6678": 234,
        "6679": 28,
        "6680": 136,
        "6681": 251,
        "6682": 216,
        "6683": 220,
        "6684": 18,
        "6685": 106,
        "6686": 149,
        "6687": 212,
        "6688": 222,
        "6689": 229,
        "6690": 70,
        "6691": 8,
        "6692": 133,
        "6693": 81,
        "6694": 244,
        "6695": 198,
        "6696": 238,
        "6697": 160,
        "6698": 111,
        "6699": 8,
        "6700": 137,
        "6701": 130,
        "6702": 104,
        "6703": 212,
        "6704": 22,
        "6705": 79,
        "6706": 160,
        "6707": 47,
        "6708": 188,
        "6709": 0,
        "6710": 106,
        "6711": 23,
        "6712": 207,
        "6713": 180,
        "6714": 147,
        "6715": 8,
        "6716": 44,
        "6717": 94,
        "6718": 74,
        "6719": 45,
        "6720": 246,
        "6721": 252,
        "6722": 251,
        "6723": 2,
        "6724": 157,
        "6725": 52,
        "6726": 102,
        "6727": 217,
        "6728": 212,
        "6729": 16,
        "6730": 78,
        "6731": 231,
        "6732": 17,
        "6733": 1,
        "6734": 149,
        "6735": 38,
        "6736": 28,
        "6737": 212,
        "6738": 199,
        "6739": 236,
        "6740": 107,
        "6741": 38,
        "6742": 217,
        "6743": 199,
        "6744": 111,
        "6745": 18,
        "6746": 22,
        "6747": 98,
        "6748": 128,
        "6749": 195,
        "6750": 79,
        "6751": 204,
        "6752": 187,
        "6753": 231,
        "6754": 150,
        "6755": 97,
        "6756": 83,
        "6757": 115,
        "6758": 62,
        "6759": 58,
        "6760": 252,
        "6761": 184,
        "6762": 187,
        "6763": 212,
        "6764": 35,
        "6765": 206,
        "6766": 43,
        "6767": 212,
        "6768": 90,
        "6769": 243,
        "6770": 193,
        "6771": 69,
        "6772": 217,
        "6773": 219,
        "6774": 215,
        "6775": 106,
        "6776": 130,
        "6777": 90,
        "6778": 185,
        "6779": 81,
        "6780": 95,
        "6781": 148,
        "6782": 9,
        "6783": 119,
        "6784": 0,
        "6785": 127,
        "6786": 255,
        "6787": 54,
        "6788": 36,
        "6789": 113,
        "6790": 110,
        "6791": 103,
        "6792": 161,
        "6793": 121,
        "6794": 71,
        "6795": 227,
        "6796": 138,
        "6797": 148,
        "6798": 156,
        "6799": 148,
        "6800": 245,
        "6801": 38,
        "6802": 152,
        "6803": 15,
        "6804": 21,
        "6805": 88,
        "6806": 188,
        "6807": 191,
        "6808": 242,
        "6809": 188,
        "6810": 20,
        "6811": 57,
        "6812": 168,
        "6813": 42,
        "6814": 93,
        "6815": 47,
        "6816": 11,
        "6817": 18,
        "6818": 201,
        "6819": 4,
        "6820": 230,
        "6821": 71,
        "6822": 250,
        "6823": 82,
        "6824": 134,
        "6825": 77,
        "6826": 16,
        "6827": 124,
        "6828": 187,
        "6829": 47,
        "6830": 175,
        "6831": 27,
        "6832": 239,
        "6833": 238,
        "6834": 151,
        "6835": 90,
        "6836": 54,
        "6837": 227,
        "6838": 157,
        "6839": 172,
        "6840": 205,
        "6841": 34,
        "6842": 52,
        "6843": 69,
        "6844": 45,
        "6845": 100,
        "6846": 37,
        "6847": 125,
        "6848": 193,
        "6849": 209,
        "6850": 192,
        "6851": 217,
        "6852": 113,
        "6853": 104,
        "6854": 171,
        "6855": 29,
        "6856": 44,
        "6857": 143,
        "6858": 114,
        "6859": 115,
        "6860": 220,
        "6861": 223,
        "6862": 86,
        "6863": 241,
        "6864": 240,
        "6865": 218,
        "6866": 57,
        "6867": 167,
        "6868": 2,
        "6869": 56,
        "6870": 198,
        "6871": 28,
        "6872": 206,
        "6873": 158,
        "6874": 29,
        "6875": 248,
        "6876": 253,
        "6877": 168,
        "6878": 227,
        "6879": 68,
        "6880": 137,
        "6881": 109,
        "6882": 172,
        "6883": 73,
        "6884": 104,
        "6885": 78,
        "6886": 228,
        "6887": 84,
        "6888": 133,
        "6889": 128,
        "6890": 75,
        "6891": 4,
        "6892": 247,
        "6893": 151,
        "6894": 242,
        "6895": 27,
        "6896": 162,
        "6897": 7,
        "6898": 65,
        "6899": 4,
        "6900": 123,
        "6901": 72,
        "6902": 67,
        "6903": 64,
        "6904": 117,
        "6905": 167,
        "6906": 144,
        "6907": 204,
        "6908": 211,
        "6909": 120,
        "6910": 194,
        "6911": 244,
        "6912": 152,
        "6913": 159,
        "6914": 109,
        "6915": 208,
        "6916": 106,
        "6917": 92,
        "6918": 1,
        "6919": 77,
        "6920": 209,
        "6921": 182,
        "6922": 131,
        "6923": 72,
        "6924": 36,
        "6925": 221,
        "6926": 167,
        "6927": 146,
        "6928": 147,
        "6929": 210,
        "6930": 70,
        "6931": 48,
        "6932": 150,
        "6933": 90,
        "6934": 50,
        "6935": 214,
        "6936": 245,
        "6937": 76,
        "6938": 198,
        "6939": 151,
        "6940": 139,
        "6941": 215,
        "6942": 225,
        "6943": 197,
        "6944": 170,
        "6945": 201,
        "6946": 171,
        "6947": 197,
        "6948": 71,
        "6949": 104,
        "6950": 42,
        "6951": 115,
        "6952": 168,
        "6953": 173,
        "6954": 36,
        "6955": 105,
        "6956": 182,
        "6957": 197,
        "6958": 62,
        "6959": 115,
        "6960": 11,
        "6961": 254,
        "6962": 96,
        "6963": 204,
        "6964": 194,
        "6965": 145,
        "6966": 209,
        "6967": 51,
        "6968": 98,
        "6969": 71,
        "6970": 198,
        "6971": 131,
        "6972": 191,
        "6973": 211,
        "6974": 35,
        "6975": 130,
        "6976": 149,
        "6977": 189,
        "6978": 194,
        "6979": 255,
        "6980": 87,
        "6981": 172,
        "6982": 28,
        "6983": 161,
        "6984": 117,
        "6985": 62,
        "6986": 170,
        "6987": 140,
        "6988": 5,
        "6989": 211,
        "6990": 216,
        "6991": 12,
        "6992": 36,
        "6993": 231,
        "6994": 42,
        "6995": 2,
        "6996": 222,
        "6997": 250,
        "6998": 248,
        "6999": 234,
        "7000": 145,
        "7001": 177,
        "7002": 200,
        "7003": 244,
        "7004": 89,
        "7005": 114,
        "7006": 213,
        "7007": 118,
        "7008": 171,
        "7009": 171,
        "7010": 199,
        "7011": 250,
        "7012": 99,
        "7013": 214,
        "7014": 176,
        "7015": 163,
        "7016": 25,
        "7017": 60,
        "7018": 6,
        "7019": 127,
        "7020": 253,
        "7021": 191,
        "7022": 228,
        "7023": 30,
        "7024": 162,
        "7025": 201,
        "7026": 81,
        "7027": 57,
        "7028": 142,
        "7029": 77,
        "7030": 107,
        "7031": 157,
        "7032": 33,
        "7033": 181,
        "7034": 63,
        "7035": 253,
        "7036": 242,
        "7037": 212,
        "7038": 37,
        "7039": 217,
        "7040": 72,
        "7041": 132,
        "7042": 204,
        "7043": 197,
        "7044": 103,
        "7045": 251,
        "7046": 103,
        "7047": 102,
        "7048": 129,
        "7049": 204,
        "7050": 90,
        "7051": 170,
        "7052": 82,
        "7053": 14,
        "7054": 52,
        "7055": 20,
        "7056": 55,
        "7057": 255,
        "7058": 42,
        "7059": 97,
        "7060": 124,
        "7061": 140,
        "7062": 223,
        "7063": 23,
        "7064": 215,
        "7065": 55,
        "7066": 233,
        "7067": 217,
        "7068": 105,
        "7069": 91,
        "7070": 178,
        "7071": 224,
        "7072": 2,
        "7073": 107,
        "7074": 39,
        "7075": 218,
        "7076": 115,
        "7077": 139,
        "7078": 254,
        "7079": 62,
        "7080": 110,
        "7081": 25,
        "7082": 145,
        "7083": 25,
        "7084": 68,
        "7085": 123,
        "7086": 30,
        "7087": 22,
        "7088": 225,
        "7089": 66,
        "7090": 22,
        "7091": 111,
        "7092": 155,
        "7093": 116,
        "7094": 31,
        "7095": 23,
        "7096": 51,
        "7097": 72,
        "7098": 174,
        "7099": 168,
        "7100": 191,
        "7101": 209,
        "7102": 227,
        "7103": 47,
        "7104": 173,
        "7105": 102,
        "7106": 207,
        "7107": 29,
        "7108": 142,
        "7109": 237,
        "7110": 128,
        "7111": 199,
        "7112": 176,
        "7113": 102,
        "7114": 114,
        "7115": 45,
        "7116": 207,
        "7117": 255,
        "7118": 157,
        "7119": 123,
        "7120": 78,
        "7121": 140,
        "7122": 87,
        "7123": 7,
        "7124": 180,
        "7125": 145,
        "7126": 62,
        "7127": 231,
        "7128": 114,
        "7129": 106,
        "7130": 233,
        "7131": 232,
        "7132": 242,
        "7133": 193,
        "7134": 39,
        "7135": 7,
        "7136": 64,
        "7137": 60,
        "7138": 252,
        "7139": 156,
        "7140": 111,
        "7141": 67,
        "7142": 136,
        "7143": 63,
        "7144": 24,
        "7145": 39,
        "7146": 123,
        "7147": 91,
        "7148": 131,
        "7149": 202,
        "7150": 146,
        "7151": 83,
        "7152": 216,
        "7153": 208,
        "7154": 141,
        "7155": 102,
        "7156": 134,
        "7157": 20,
        "7158": 142,
        "7159": 36,
        "7160": 231,
        "7161": 192,
        "7162": 32,
        "7163": 91,
        "7164": 92,
        "7165": 120,
        "7166": 11,
        "7167": 163,
        "7168": 168,
        "7169": 98,
        "7170": 131,
        "7171": 14,
        "7172": 58,
        "7173": 169,
        "7174": 92,
        "7175": 115,
        "7176": 229,
        "7177": 204,
        "7178": 40,
        "7179": 175,
        "7180": 224,
        "7181": 92,
        "7182": 128,
        "7183": 32,
        "7184": 131,
        "7185": 134,
        "7186": 69,
        "7187": 130,
        "7188": 235,
        "7189": 186,
        "7190": 4,
        "7191": 216,
        "7192": 196,
        "7193": 48,
        "7194": 143,
        "7195": 43,
        "7196": 253,
        "7197": 222,
        "7198": 22,
        "7199": 155,
        "7200": 120,
        "7201": 102,
        "7202": 218,
        "7203": 46,
        "7204": 99,
        "7205": 109,
        "7206": 108,
        "7207": 238,
        "7208": 248,
        "7209": 249,
        "7210": 214,
        "7211": 4,
        "7212": 134,
        "7213": 242,
        "7214": 203,
        "7215": 165,
        "7216": 55,
        "7217": 183,
        "7218": 226,
        "7219": 147,
        "7220": 233,
        "7221": 230,
        "7222": 73,
        "7223": 145,
        "7224": 95,
        "7225": 152,
        "7226": 249,
        "7227": 106,
        "7228": 40,
        "7229": 195,
        "7230": 125,
        "7231": 94,
        "7232": 225,
        "7233": 186,
        "7234": 250,
        "7235": 64,
        "7236": 60,
        "7237": 29,
        "7238": 2,
        "7239": 77,
        "7240": 97,
        "7241": 191,
        "7242": 167,
        "7243": 97,
        "7244": 52,
        "7245": 29,
        "7246": 38,
        "7247": 231,
        "7248": 28,
        "7249": 158,
        "7250": 76,
        "7251": 184,
        "7252": 180,
        "7253": 161,
        "7254": 179,
        "7255": 180,
        "7256": 16,
        "7257": 38,
        "7258": 183,
        "7259": 121,
        "7260": 37,
        "7261": 30,
        "7262": 74,
        "7263": 6,
        "7264": 5,
        "7265": 190,
        "7266": 174,
        "7267": 82,
        "7268": 48,
        "7269": 84,
        "7270": 250,
        "7271": 97,
        "7272": 214,
        "7273": 141,
        "7274": 164,
        "7275": 98,
        "7276": 128,
        "7277": 56,
        "7278": 132,
        "7279": 227,
        "7280": 141,
        "7281": 215,
        "7282": 222,
        "7283": 245,
        "7284": 192,
        "7285": 77,
        "7286": 217,
        "7287": 20,
        "7288": 12,
        "7289": 140,
        "7290": 52,
        "7291": 39,
        "7292": 206,
        "7293": 176,
        "7294": 112,
        "7295": 75,
        "7296": 0,
        "7297": 109,
        "7298": 150,
        "7299": 223,
        "7300": 237,
        "7301": 178,
        "7302": 11,
        "7303": 109,
        "7304": 64,
        "7305": 207,
        "7306": 217,
        "7307": 212,
        "7308": 59,
        "7309": 13,
        "7310": 175,
        "7311": 143,
        "7312": 96,
        "7313": 77,
        "7314": 149,
        "7315": 7,
        "7316": 232,
        "7317": 15,
        "7318": 57,
        "7319": 36,
        "7320": 6,
        "7321": 7,
        "7322": 219,
        "7323": 227,
        "7324": 234,
        "7325": 228,
        "7326": 139,
        "7327": 75,
        "7328": 168,
        "7329": 106,
        "7330": 211,
        "7331": 226,
        "7332": 33,
        "7333": 216,
        "7334": 41,
        "7335": 215,
        "7336": 102,
        "7337": 229,
        "7338": 134,
        "7339": 183,
        "7340": 220,
        "7341": 183,
        "7342": 146,
        "7343": 119,
        "7344": 202,
        "7345": 172,
        "7346": 51,
        "7347": 123,
        "7348": 64,
        "7349": 171,
        "7350": 88,
        "7351": 7,
        "7352": 240,
        "7353": 14,
        "7354": 20,
        "7355": 136,
        "7356": 93,
        "7357": 159,
        "7358": 168,
        "7359": 166,
        "7360": 56,
        "7361": 207,
        "7362": 251,
        "7363": 90,
        "7364": 147,
        "7365": 63,
        "7366": 182,
        "7367": 88,
        "7368": 4,
        "7369": 200,
        "7370": 138,
        "7371": 221,
        "7372": 49,
        "7373": 191,
        "7374": 14,
        "7375": 132,
        "7376": 26,
        "7377": 71,
        "7378": 200,
        "7379": 157,
        "7380": 63,
        "7381": 241,
        "7382": 49,
        "7383": 173,
        "7384": 180,
        "7385": 183,
        "7386": 249,
        "7387": 14,
        "7388": 136,
        "7389": 30,
        "7390": 206,
        "7391": 83,
        "7392": 224,
        "7393": 204,
        "7394": 243,
        "7395": 70,
        "7396": 127,
        "7397": 25,
        "7398": 139,
        "7399": 104,
        "7400": 111,
        "7401": 16,
        "7402": 165,
        "7403": 30,
        "7404": 239,
        "7405": 180,
        "7406": 191,
        "7407": 97,
        "7408": 173,
        "7409": 149,
        "7410": 28,
        "7411": 45,
        "7412": 183,
        "7413": 96,
        "7414": 0,
        "7415": 222,
        "7416": 96,
        "7417": 55,
        "7418": 100,
        "7419": 54,
        "7420": 84,
        "7421": 96,
        "7422": 245,
        "7423": 25,
        "7424": 140,
        "7425": 69,
        "7426": 213,
        "7427": 208,
        "7428": 211,
        "7429": 179,
        "7430": 226,
        "7431": 60,
        "7432": 186,
        "7433": 122,
        "7434": 167,
        "7435": 227,
        "7436": 219,
        "7437": 106,
        "7438": 222,
        "7439": 127,
        "7440": 80,
        "7441": 12,
        "7442": 7,
        "7443": 221,
        "7444": 55,
        "7445": 155,
        "7446": 175,
        "7447": 112,
        "7448": 18,
        "7449": 9,
        "7450": 216,
        "7451": 210,
        "7452": 203,
        "7453": 39,
        "7454": 96,
        "7455": 113,
        "7456": 242,
        "7457": 60,
        "7458": 126,
        "7459": 90,
        "7460": 79,
        "7461": 119,
        "7462": 107,
        "7463": 34,
        "7464": 88,
        "7465": 45,
        "7466": 57,
        "7467": 28,
        "7468": 215,
        "7469": 22,
        "7470": 108,
        "7471": 128,
        "7472": 9,
        "7473": 188,
        "7474": 216,
        "7475": 202,
        "7476": 191,
        "7477": 142,
        "7478": 6,
        "7479": 30,
        "7480": 2,
        "7481": 209,
        "7482": 3,
        "7483": 94,
        "7484": 29,
        "7485": 133,
        "7486": 198,
        "7487": 107,
        "7488": 116,
        "7489": 181,
        "7490": 245,
        "7491": 151,
        "7492": 129,
        "7493": 246,
        "7494": 20,
        "7495": 189,
        "7496": 98,
        "7497": 133,
        "7498": 83,
        "7499": 248,
        "7500": 3,
        "7501": 239,
        "7502": 253,
        "7503": 93,
        "7504": 115,
        "7505": 203,
        "7506": 159,
        "7507": 35,
        "7508": 127,
        "7509": 71,
        "7510": 215,
        "7511": 235,
        "7512": 221,
        "7513": 207,
        "7514": 149,
        "7515": 150,
        "7516": 173,
        "7517": 58,
        "7518": 139,
        "7519": 194,
        "7520": 228,
        "7521": 227,
        "7522": 167,
        "7523": 162,
        "7524": 38,
        "7525": 48,
        "7526": 44,
        "7527": 193,
        "7528": 159,
        "7529": 52,
        "7530": 184,
        "7531": 249,
        "7532": 13,
        "7533": 249,
        "7534": 73,
        "7535": 139,
        "7536": 237,
        "7537": 40,
        "7538": 186,
        "7539": 0,
        "7540": 43,
        "7541": 206,
        "7542": 177,
        "7543": 221,
        "7544": 22,
        "7545": 4,
        "7546": 27,
        "7547": 163,
        "7548": 145,
        "7549": 247,
        "7550": 199,
        "7551": 127,
        "7552": 87,
        "7553": 86,
        "7554": 232,
        "7555": 147,
        "7556": 208,
        "7557": 9,
        "7558": 206,
        "7559": 224,
        "7560": 112,
        "7561": 23,
        "7562": 138,
        "7563": 206,
        "7564": 198,
        "7565": 160,
        "7566": 132,
        "7567": 149,
        "7568": 109,
        "7569": 106,
        "7570": 139,
        "7571": 139,
        "7572": 56,
        "7573": 209,
        "7574": 120,
        "7575": 219,
        "7576": 16,
        "7577": 241,
        "7578": 157,
        "7579": 93,
        "7580": 192,
        "7581": 89,
        "7582": 221,
        "7583": 157,
        "7584": 57,
        "7585": 226,
        "7586": 237,
        "7587": 150,
        "7588": 70,
        "7589": 179,
        "7590": 211,
        "7591": 247,
        "7592": 197,
        "7593": 76,
        "7594": 182,
        "7595": 207,
        "7596": 110,
        "7597": 210,
        "7598": 212,
        "7599": 252,
        "7600": 220,
        "7601": 127,
        "7602": 200,
        "7603": 3,
        "7604": 32,
        "7605": 66,
        "7606": 41,
        "7607": 65,
        "7608": 146,
        "7609": 141,
        "7610": 51,
        "7611": 164,
        "7612": 7,
        "7613": 77,
        "7614": 76,
        "7615": 221,
        "7616": 88,
        "7617": 237,
        "7618": 0,
        "7619": 252,
        "7620": 105,
        "7621": 66,
        "7622": 98,
        "7623": 245,
        "7624": 209,
        "7625": 62,
        "7626": 90,
        "7627": 197,
        "7628": 236,
        "7629": 149,
        "7630": 216,
        "7631": 138,
        "7632": 64,
        "7633": 175,
        "7634": 249,
        "7635": 211,
        "7636": 102,
        "7637": 13,
        "7638": 111,
        "7639": 78,
        "7640": 239,
        "7641": 160,
        "7642": 49,
        "7643": 19,
        "7644": 150,
        "7645": 47,
        "7646": 204,
        "7647": 186,
        "7648": 32,
        "7649": 25,
        "7650": 35,
        "7651": 185,
        "7652": 241,
        "7653": 181,
        "7654": 205,
        "7655": 161,
        "7656": 88,
        "7657": 163,
        "7658": 128,
        "7659": 49,
        "7660": 39,
        "7661": 63,
        "7662": 240,
        "7663": 218,
        "7664": 160,
        "7665": 27,
        "7666": 19,
        "7667": 219,
        "7668": 8,
        "7669": 197,
        "7670": 76,
        "7671": 140,
        "7672": 149,
        "7673": 221,
        "7674": 170,
        "7675": 88,
        "7676": 42,
        "7677": 35,
        "7678": 79,
        "7679": 47,
        "7680": 237,
        "7681": 143,
        "7682": 61,
        "7683": 116,
        "7684": 190,
        "7685": 242,
        "7686": 130,
        "7687": 237,
        "7688": 203,
        "7689": 253,
        "7690": 209,
        "7691": 23,
        "7692": 255,
        "7693": 180,
        "7694": 106,
        "7695": 134,
        "7696": 240,
        "7697": 87,
        "7698": 197,
        "7699": 180,
        "7700": 52,
        "7701": 244,
        "7702": 238,
        "7703": 154,
        "7704": 32,
        "7705": 67,
        "7706": 43,
        "7707": 43,
        "7708": 42,
        "7709": 231,
        "7710": 235,
        "7711": 199,
        "7712": 240,
        "7713": 94,
        "7714": 244,
        "7715": 188,
        "7716": 28,
        "7717": 13,
        "7718": 237,
        "7719": 83,
        "7720": 14,
        "7721": 102,
        "7722": 41,
        "7723": 19,
        "7724": 88,
        "7725": 4,
        "7726": 154,
        "7727": 214,
        "7728": 245,
        "7729": 58,
        "7730": 223,
        "7731": 232,
        "7732": 158,
        "7733": 62,
        "7734": 27,
        "7735": 180,
        "7736": 183,
        "7737": 222,
        "7738": 35,
        "7739": 162,
        "7740": 248,
        "7741": 212,
        "7742": 30,
        "7743": 61,
        "7744": 112,
        "7745": 26,
        "7746": 41,
        "7747": 192,
        "7748": 99,
        "7749": 196,
        "7750": 133,
        "7751": 37,
        "7752": 177,
        "7753": 224,
        "7754": 76,
        "7755": 217,
        "7756": 160,
        "7757": 253,
        "7758": 48,
        "7759": 94,
        "7760": 92,
        "7761": 222,
        "7762": 174,
        "7763": 171,
        "7764": 68,
        "7765": 144,
        "7766": 128,
        "7767": 105,
        "7768": 154,
        "7769": 32,
        "7770": 126,
        "7771": 3,
        "7772": 182,
        "7773": 157,
        "7774": 204,
        "7775": 214,
        "7776": 133,
        "7777": 195,
        "7778": 195,
        "7779": 109,
        "7780": 110,
        "7781": 221,
        "7782": 4,
        "7783": 86,
        "7784": 34,
        "7785": 110,
        "7786": 6,
        "7787": 251,
        "7788": 238,
        "7789": 92,
        "7790": 70,
        "7791": 118,
        "7792": 94,
        "7793": 3,
        "7794": 31,
        "7795": 25,
        "7796": 197,
        "7797": 248,
        "7798": 56,
        "7799": 198,
        "7800": 117,
        "7801": 205,
        "7802": 63,
        "7803": 166,
        "7804": 101,
        "7805": 210,
        "7806": 226,
        "7807": 20,
        "7808": 54,
        "7809": 224,
        "7810": 239,
        "7811": 140,
        "7812": 141,
        "7813": 167,
        "7814": 49,
        "7815": 98,
        "7816": 42,
        "7817": 170,
        "7818": 246,
        "7819": 138,
        "7820": 113,
        "7821": 182,
        "7822": 117,
        "7823": 185,
        "7824": 223,
        "7825": 229,
        "7826": 187,
        "7827": 205,
        "7828": 85,
        "7829": 245,
        "7830": 79,
        "7831": 77,
        "7832": 9,
        "7833": 179,
        "7834": 25,
        "7835": 108,
        "7836": 133,
        "7837": 164,
        "7838": 168,
        "7839": 215,
        "7840": 137,
        "7841": 29,
        "7842": 141,
        "7843": 122,
        "7844": 182,
        "7845": 215,
        "7846": 39,
        "7847": 77,
        "7848": 57,
        "7849": 218,
        "7850": 112,
        "7851": 151,
        "7852": 252,
        "7853": 115,
        "7854": 248,
        "7855": 89,
        "7856": 177,
        "7857": 44,
        "7858": 218,
        "7859": 83,
        "7860": 119,
        "7861": 134,
        "7862": 33,
        "7863": 35,
        "7864": 253,
        "7865": 152,
        "7866": 39,
        "7867": 196,
        "7868": 181,
        "7869": 112,
        "7870": 225,
        "7871": 47,
        "7872": 84,
        "7873": 152,
        "7874": 186,
        "7875": 111,
        "7876": 218,
        "7877": 29,
        "7878": 218,
        "7879": 184,
        "7880": 160,
        "7881": 156,
        "7882": 102,
        "7883": 107,
        "7884": 79,
        "7885": 229,
        "7886": 95,
        "7887": 135,
        "7888": 251,
        "7889": 250,
        "7890": 240,
        "7891": 193,
        "7892": 183,
        "7893": 0,
        "7894": 15,
        "7895": 44,
        "7896": 189,
        "7897": 147,
        "7898": 25,
        "7899": 35,
        "7900": 239,
        "7901": 83,
        "7902": 94,
        "7903": 20,
        "7904": 206,
        "7905": 143,
        "7906": 239,
        "7907": 164,
        "7908": 178,
        "7909": 104,
        "7910": 204,
        "7911": 227,
        "7912": 160,
        "7913": 89,
        "7914": 57,
        "7915": 81,
        "7916": 236,
        "7917": 234,
        "7918": 94,
        "7919": 175,
        "7920": 210,
        "7921": 205,
        "7922": 246,
        "7923": 174,
        "7924": 249,
        "7925": 246,
        "7926": 111,
        "7927": 129,
        "7928": 44,
        "7929": 161,
        "7930": 113,
        "7931": 215,
        "7932": 169,
        "7933": 232,
        "7934": 156,
        "7935": 23,
        "7936": 54,
        "7937": 82,
        "7938": 43,
        "7939": 187,
        "7940": 77,
        "7941": 45,
        "7942": 114,
        "7943": 229,
        "7944": 131,
        "7945": 53,
        "7946": 79,
        "7947": 35,
        "7948": 205,
        "7949": 4,
        "7950": 188,
        "7951": 178,
        "7952": 56,
        "7953": 91,
        "7954": 16,
        "7955": 198,
        "7956": 112,
        "7957": 166,
        "7958": 193,
        "7959": 45,
        "7960": 131,
        "7961": 99,
        "7962": 127,
        "7963": 92,
        "7964": 102,
        "7965": 200,
        "7966": 150,
        "7967": 32,
        "7968": 130,
        "7969": 47,
        "7970": 225,
        "7971": 22,
        "7972": 164,
        "7973": 10,
        "7974": 157,
        "7975": 73,
        "7976": 248,
        "7977": 224,
        "7978": 85,
        "7979": 131,
        "7980": 118,
        "7981": 40,
        "7982": 216,
        "7983": 125,
        "7984": 97,
        "7985": 120,
        "7986": 200,
        "7987": 228,
        "7988": 237,
        "7989": 133,
        "7990": 214,
        "7991": 68,
        "7992": 154,
        "7993": 107,
        "7994": 232,
        "7995": 133,
        "7996": 102,
        "7997": 111,
        "7998": 54,
        "7999": 49,
        "8000": 208,
        "8001": 126,
        "8002": 224,
        "8003": 12,
        "8004": 100,
        "8005": 2,
        "8006": 94,
        "8007": 12,
        "8008": 230,
        "8009": 113,
        "8010": 108,
        "8011": 75,
        "8012": 23,
        "8013": 233,
        "8014": 23,
        "8015": 63,
        "8016": 43,
        "8017": 212,
        "8018": 8,
        "8019": 247,
        "8020": 141,
        "8021": 19,
        "8022": 113,
        "8023": 79,
        "8024": 20,
        "8025": 110,
        "8026": 164,
        "8027": 54,
        "8028": 210,
        "8029": 141,
        "8030": 130,
        "8031": 191,
        "8032": 4,
        "8033": 209,
        "8034": 197,
        "8035": 23,
        "8036": 178,
        "8037": 234,
        "8038": 95,
        "8039": 13,
        "8040": 198,
        "8041": 173,
        "8042": 46,
        "8043": 115,
        "8044": 105,
        "8045": 224,
        "8046": 251,
        "8047": 8,
        "8048": 124,
        "8049": 63,
        "8050": 110,
        "8051": 220,
        "8052": 239,
        "8053": 33,
        "8054": 59,
        "8055": 245,
        "8056": 231,
        "8057": 179,
        "8058": 160,
        "8059": 221,
        "8060": 166,
        "8061": 228,
        "8062": 133,
        "8063": 158,
        "8064": 117,
        "8065": 126,
        "8066": 217,
        "8067": 223,
        "8068": 48,
        "8069": 168,
        "8070": 241,
        "8071": 92,
        "8072": 193,
        "8073": 15,
        "8074": 211,
        "8075": 116,
        "8076": 5,
        "8077": 9,
        "8078": 136,
        "8079": 248,
        "8080": 235,
        "8081": 196,
        "8082": 239,
        "8083": 169,
        "8084": 89,
        "8085": 17,
        "8086": 209,
        "8087": 115,
        "8088": 10,
        "8089": 113,
        "8090": 166,
        "8091": 189,
        "8092": 197,
        "8093": 153,
        "8094": 44,
        "8095": 215,
        "8096": 73,
        "8097": 31,
        "8098": 140,
        "8099": 39,
        "8100": 190,
        "8101": 79,
        "8102": 30,
        "8103": 60,
        "8104": 163,
        "8105": 2,
        "8106": 251,
        "8107": 232,
        "8108": 63,
        "8109": 82,
        "8110": 63,
        "8111": 107,
        "8112": 161,
        "8113": 107,
        "8114": 144,
        "8115": 186,
        "8116": 14,
        "8117": 216,
        "8118": 206,
        "8119": 47,
        "8120": 162,
        "8121": 23,
        "8122": 105,
        "8123": 180,
        "8124": 114,
        "8125": 64,
        "8126": 22,
        "8127": 74,
        "8128": 65,
        "8129": 17,
        "8130": 204,
        "8131": 79,
        "8132": 26,
        "8133": 73,
        "8134": 246,
        "8135": 137,
        "8136": 250,
        "8137": 37,
        "8138": 176,
        "8139": 98,
        "8140": 37,
        "8141": 81,
        "8142": 211,
        "8143": 59,
        "8144": 160,
        "8145": 175,
        "8146": 197,
        "8147": 146,
        "8148": 252,
        "8149": 210,
        "8150": 113,
        "8151": 124,
        "8152": 42,
        "8153": 82,
        "8154": 62,
        "8155": 227,
        "8156": 126,
        "8157": 122,
        "8158": 151,
        "8159": 2,
        "8160": 190,
        "8161": 201,
        "8162": 104,
        "8163": 136,
        "8164": 57,
        "8165": 143,
        "8166": 252,
        "8167": 130,
        "8168": 192,
        "8169": 132,
        "8170": 37,
        "8171": 76,
        "8172": 164,
        "8173": 162,
        "8174": 151,
        "8175": 184,
        "8176": 115,
        "8177": 7,
        "8178": 133,
        "8179": 25,
        "8180": 132,
        "8181": 174,
        "8182": 137,
        "8183": 65,
        "8184": 98,
        "8185": 164,
        "8186": 76,
        "8187": 139,
        "8188": 133,
        "8189": 226,
        "8190": 204,
        "8191": 171,
        "8192": 41,
        "8193": 111,
        "8194": 66,
        "8195": 131,
        "8196": 77,
        "8197": 226,
        "8198": 140,
        "8199": 174,
        "8200": 250,
        "8201": 48,
        "8202": 94,
        "8203": 149,
        "8204": 24,
        "8205": 16,
        "8206": 80,
        "8207": 243,
        "8208": 97,
        "8209": 168,
        "8210": 206,
        "8211": 138,
        "8212": 187,
        "8213": 85,
        "8214": 221,
        "8215": 199,
        "8216": 52,
        "8217": 167,
        "8218": 233,
        "8219": 42,
        "8220": 245,
        "8221": 25,
        "8222": 16,
        "8223": 146,
        "8224": 14,
        "8225": 68,
        "8226": 45,
        "8227": 71,
        "8228": 165,
        "8229": 16,
        "8230": 70,
        "8231": 25,
        "8232": 14,
        "8233": 215,
        "8234": 163,
        "8235": 127,
        "8236": 198,
        "8237": 153,
        "8238": 139,
        "8239": 86,
        "8240": 32,
        "8241": 210,
        "8242": 235,
        "8243": 225,
        "8244": 106,
        "8245": 214,
        "8246": 13,
        "8247": 113,
        "8248": 226,
        "8249": 48,
        "8250": 26,
        "8251": 24,
        "8252": 112,
        "8253": 137,
        "8254": 236,
        "8255": 64,
        "8256": 174,
        "8257": 66,
        "8258": 77,
        "8259": 100,
        "8260": 219,
        "8261": 137,
        "8262": 190,
        "8263": 111,
        "8264": 209,
        "8265": 211,
        "8266": 116,
        "8267": 175,
        "8268": 145,
        "8269": 23,
        "8270": 21,
        "8271": 88,
        "8272": 181,
        "8273": 39,
        "8274": 102,
        "8275": 26,
        "8276": 115,
        "8277": 166,
        "8278": 94,
        "8279": 126,
        "8280": 92,
        "8281": 184,
        "8282": 0,
        "8283": 48,
        "8284": 55,
        "8285": 170,
        "8286": 148,
        "8287": 13,
        "8288": 4,
        "8289": 15,
        "8290": 38,
        "8291": 80,
        "8292": 188,
        "8293": 242,
        "8294": 24,
        "8295": 235,
        "8296": 114,
        "8297": 229,
        "8298": 95,
        "8299": 196,
        "8300": 133,
        "8301": 125,
        "8302": 172,
        "8303": 115,
        "8304": 105,
        "8305": 20,
        "8306": 8,
        "8307": 88,
        "8308": 81,
        "8309": 242,
        "8310": 182,
        "8311": 138,
        "8312": 119,
        "8313": 207,
        "8314": 185,
        "8315": 155,
        "8316": 23,
        "8317": 230,
        "8318": 9,
        "8319": 193,
        "8320": 210,
        "8321": 19,
        "8322": 171,
        "8323": 230,
        "8324": 89,
        "8325": 180,
        "8326": 33,
        "8327": 239,
        "8328": 255,
        "8329": 227,
        "8330": 149,
        "8331": 170,
        "8332": 35,
        "8333": 33,
        "8334": 199,
        "8335": 113,
        "8336": 109,
        "8337": 220,
        "8338": 163,
        "8339": 136,
        "8340": 72,
        "8341": 121,
        "8342": 181,
        "8343": 118,
        "8344": 251,
        "8345": 253,
        "8346": 217,
        "8347": 110,
        "8348": 162,
        "8349": 199,
        "8350": 138,
        "8351": 154,
        "8352": 113,
        "8353": 190,
        "8354": 96,
        "8355": 100,
        "8356": 205,
        "8357": 3,
        "8358": 185,
        "8359": 91,
        "8360": 220,
        "8361": 28,
        "8362": 38,
        "8363": 158,
        "8364": 179,
        "8365": 223,
        "8366": 200,
        "8367": 75,
        "8368": 30,
        "8369": 210,
        "8370": 164,
        "8371": 117,
        "8372": 12,
        "8373": 78,
        "8374": 13,
        "8375": 171,
        "8376": 222,
        "8377": 77,
        "8378": 64,
        "8379": 90,
        "8380": 247,
        "8381": 117,
        "8382": 78,
        "8383": 148,
        "8384": 115,
        "8385": 196,
        "8386": 78,
        "8387": 240,
        "8388": 119,
        "8389": 206,
        "8390": 92,
        "8391": 118,
        "8392": 195,
        "8393": 224,
        "8394": 43,
        "8395": 7,
        "8396": 152,
        "8397": 110,
        "8398": 34,
        "8399": 103,
        "8400": 250,
        "8401": 24,
        "8402": 38,
        "8403": 106,
        "8404": 65,
        "8405": 74,
        "8406": 192,
        "8407": 101,
        "8408": 243,
        "8409": 175,
        "8410": 168,
        "8411": 188,
        "8412": 57,
        "8413": 156,
        "8414": 213,
        "8415": 235,
        "8416": 213,
        "8417": 19,
        "8418": 65,
        "8419": 103,
        "8420": 127,
        "8421": 237,
        "8422": 237,
        "8423": 178,
        "8424": 47,
        "8425": 218,
        "8426": 250,
        "8427": 158,
        "8428": 212,
        "8429": 17,
        "8430": 111,
        "8431": 114,
        "8432": 98,
        "8433": 6,
        "8434": 133,
        "8435": 110,
        "8436": 212,
        "8437": 247,
        "8438": 88,
        "8439": 72,
        "8440": 37,
        "8441": 70,
        "8442": 43,
        "8443": 205,
        "8444": 156,
        "8445": 43,
        "8446": 247,
        "8447": 112,
        "8448": 164,
        "8449": 181,
        "8450": 48,
        "8451": 242,
        "8452": 75,
        "8453": 8,
        "8454": 186,
        "8455": 89,
        "8456": 125,
        "8457": 228,
        "8458": 90,
        "8459": 17,
        "8460": 229,
        "8461": 84,
        "8462": 137,
        "8463": 218,
        "8464": 25,
        "8465": 112,
        "8466": 92,
        "8467": 24,
        "8468": 80,
        "8469": 28,
        "8470": 86,
        "8471": 222,
        "8472": 11,
        "8473": 122,
        "8474": 185,
        "8475": 31,
        "8476": 150,
        "8477": 228,
        "8478": 87,
        "8479": 198,
        "8480": 33,
        "8481": 177,
        "8482": 218,
        "8483": 116,
        "8484": 242,
        "8485": 191,
        "8486": 28,
        "8487": 65,
        "8488": 180,
        "8489": 169,
        "8490": 142,
        "8491": 156,
        "8492": 122,
        "8493": 76,
        "8494": 77,
        "8495": 180,
        "8496": 36,
        "8497": 221,
        "8498": 109,
        "8499": 51,
        "8500": 224,
        "8501": 243,
        "8502": 148,
        "8503": 67,
        "8504": 122,
        "8505": 43,
        "8506": 216,
        "8507": 227,
        "8508": 207,
        "8509": 231,
        "8510": 222,
        "8511": 63,
        "8512": 246,
        "8513": 139,
        "8514": 106,
        "8515": 38,
        "8516": 240,
        "8517": 236,
        "8518": 134,
        "8519": 196,
        "8520": 200,
        "8521": 76,
        "8522": 166,
        "8523": 127,
        "8524": 2,
        "8525": 148,
        "8526": 249,
        "8527": 40,
        "8528": 46,
        "8529": 110,
        "8530": 127,
        "8531": 15,
        "8532": 188,
        "8533": 161,
        "8534": 71,
        "8535": 44,
        "8536": 171,
        "8537": 43,
        "8538": 217,
        "8539": 130,
        "8540": 154,
        "8541": 3,
        "8542": 30,
        "8543": 41,
        "8544": 4,
        "8545": 78,
        "8546": 28,
        "8547": 190,
        "8548": 183,
        "8549": 36,
        "8550": 56,
        "8551": 9,
        "8552": 187,
        "8553": 61,
        "8554": 254,
        "8555": 20,
        "8556": 202,
        "8557": 137,
        "8558": 69,
        "8559": 28,
        "8560": 222,
        "8561": 247,
        "8562": 219,
        "8563": 56,
        "8564": 118,
        "8565": 192,
        "8566": 184,
        "8567": 130,
        "8568": 83,
        "8569": 65,
        "8570": 197,
        "8571": 149,
        "8572": 190,
        "8573": 196,
        "8574": 225,
        "8575": 21,
        "8576": 26,
        "8577": 88,
        "8578": 171,
        "8579": 154,
        "8580": 201,
        "8581": 205,
        "8582": 134,
        "8583": 170,
        "8584": 218,
        "8585": 203,
        "8586": 150,
        "8587": 191,
        "8588": 222,
        "8589": 224,
        "8590": 246,
        "8591": 178,
        "8592": 195,
        "8593": 157,
        "8594": 38,
        "8595": 177,
        "8596": 5,
        "8597": 133,
        "8598": 166,
        "8599": 72,
        "8600": 100,
        "8601": 204,
        "8602": 237,
        "8603": 142,
        "8604": 222,
        "8605": 34,
        "8606": 140,
        "8607": 250,
        "8608": 227,
        "8609": 68,
        "8610": 159,
        "8611": 208,
        "8612": 98,
        "8613": 25,
        "8614": 90,
        "8615": 27,
        "8616": 117,
        "8617": 102,
        "8618": 25,
        "8619": 239,
        "8620": 121,
        "8621": 172,
        "8622": 180,
        "8623": 233,
        "8624": 80,
        "8625": 133,
        "8626": 6,
        "8627": 38,
        "8628": 63,
        "8629": 184,
        "8630": 52,
        "8631": 50,
        "8632": 225,
        "8633": 154,
        "8634": 68,
        "8635": 208,
        "8636": 212,
        "8637": 200,
        "8638": 70,
        "8639": 188,
        "8640": 201,
        "8641": 168,
        "8642": 244,
        "8643": 190,
        "8644": 131,
        "8645": 222,
        "8646": 70,
        "8647": 241,
        "8648": 69,
        "8649": 79,
        "8650": 210,
        "8651": 176,
        "8652": 176,
        "8653": 71,
        "8654": 242,
        "8655": 104,
        "8656": 159,
        "8657": 75,
        "8658": 68,
        "8659": 60,
        "8660": 48,
        "8661": 189,
        "8662": 69,
        "8663": 35,
        "8664": 73,
        "8665": 51,
        "8666": 208,
        "8667": 230,
        "8668": 148,
        "8669": 249,
        "8670": 44,
        "8671": 11,
        "8672": 84,
        "8673": 145,
        "8674": 66,
        "8675": 129,
        "8676": 113,
        "8677": 48,
        "8678": 214,
        "8679": 128,
        "8680": 20,
        "8681": 209,
        "8682": 152,
        "8683": 104,
        "8684": 68,
        "8685": 207,
        "8686": 147,
        "8687": 125,
        "8688": 75,
        "8689": 211,
        "8690": 40,
        "8691": 185,
        "8692": 248,
        "8693": 108,
        "8694": 196,
        "8695": 48,
        "8696": 192,
        "8697": 81,
        "8698": 142,
        "8699": 134,
        "8700": 12,
        "8701": 167,
        "8702": 252,
        "8703": 87,
        "8704": 125,
        "8705": 131,
        "8706": 84,
        "8707": 28,
        "8708": 39,
        "8709": 153,
        "8710": 199,
        "8711": 223,
        "8712": 206,
        "8713": 135,
        "8714": 2,
        "8715": 165,
        "8716": 189,
        "8717": 203,
        "8718": 181,
        "8719": 131,
        "8720": 83,
        "8721": 223,
        "8722": 134,
        "8723": 101,
        "8724": 247,
        "8725": 202,
        "8726": 3,
        "8727": 253,
        "8728": 68,
        "8729": 109,
        "8730": 242,
        "8731": 132,
        "8732": 38,
        "8733": 72,
        "8734": 252,
        "8735": 41,
        "8736": 154,
        "8737": 104,
        "8738": 121,
        "8739": 206,
        "8740": 79,
        "8741": 40,
        "8742": 19,
        "8743": 230,
        "8744": 250,
        "8745": 172,
        "8746": 142,
        "8747": 161,
        "8748": 7,
        "8749": 180,
        "8750": 126,
        "8751": 190,
        "8752": 157,
        "8753": 69,
        "8754": 166,
        "8755": 122,
        "8756": 230,
        "8757": 144,
        "8758": 118,
        "8759": 226,
        "8760": 58,
        "8761": 121,
        "8762": 143,
        "8763": 136,
        "8764": 162,
        "8765": 5,
        "8766": 54,
        "8767": 248,
        "8768": 178,
        "8769": 122,
        "8770": 32,
        "8771": 89,
        "8772": 7,
        "8773": 159,
        "8774": 160,
        "8775": 69,
        "8776": 168,
        "8777": 16,
        "8778": 110,
        "8779": 112,
        "8780": 27,
        "8781": 170,
        "8782": 237,
        "8783": 8,
        "8784": 97,
        "8785": 224,
        "8786": 16,
        "8787": 216,
        "8788": 31,
        "8789": 133,
        "8790": 42,
        "8791": 121,
        "8792": 16,
        "8793": 213,
        "8794": 224,
        "8795": 97,
        "8796": 226,
        "8797": 183,
        "8798": 176,
        "8799": 229,
        "8800": 1,
        "8801": 97,
        "8802": 96,
        "8803": 186,
        "8804": 20,
        "8805": 75,
        "8806": 0,
        "8807": 28,
        "8808": 126,
        "8809": 120,
        "8810": 93,
        "8811": 209,
        "8812": 32,
        "8813": 29,
        "8814": 183,
        "8815": 209,
        "8816": 155,
        "8817": 137,
        "8818": 178,
        "8819": 116,
        "8820": 37,
        "8821": 198,
        "8822": 192,
        "8823": 126,
        "8824": 27,
        "8825": 80,
        "8826": 27,
        "8827": 185,
        "8828": 188,
        "8829": 1,
        "8830": 106,
        "8831": 113,
        "8832": 83,
        "8833": 115,
        "8834": 241,
        "8835": 161,
        "8836": 68,
        "8837": 178,
        "8838": 232,
        "8839": 38,
        "8840": 137,
        "8841": 184,
        "8842": 126,
        "8843": 186,
        "8844": 164,
        "8845": 165,
        "8846": 48,
        "8847": 98,
        "8848": 8,
        "8849": 184,
        "8850": 44,
        "8851": 240,
        "8852": 142,
        "8853": 63,
        "8854": 206,
        "8855": 239,
        "8856": 212,
        "8857": 24,
        "8858": 64,
        "8859": 253,
        "8860": 67,
        "8861": 78,
        "8862": 142,
        "8863": 202,
        "8864": 125,
        "8865": 84,
        "8866": 72,
        "8867": 89,
        "8868": 162,
        "8869": 158,
        "8870": 118,
        "8871": 179,
        "8872": 90,
        "8873": 238,
        "8874": 219,
        "8875": 127,
        "8876": 26,
        "8877": 200,
        "8878": 52,
        "8879": 92,
        "8880": 232,
        "8881": 111,
        "8882": 126,
        "8883": 45,
        "8884": 121,
        "8885": 110,
        "8886": 2,
        "8887": 109,
        "8888": 221,
        "8889": 106,
        "8890": 166,
        "8891": 214,
        "8892": 188,
        "8893": 152,
        "8894": 222,
        "8895": 184,
        "8896": 219,
        "8897": 201,
        "8898": 188,
        "8899": 17,
        "8900": 1,
        "8901": 91,
        "8902": 219,
        "8903": 176,
        "8904": 21,
        "8905": 182,
        "8906": 117,
        "8907": 60,
        "8908": 172,
        "8909": 35,
        "8910": 231,
        "8911": 44,
        "8912": 144,
        "8913": 236,
        "8914": 134,
        "8915": 111,
        "8916": 148,
        "8917": 161,
        "8918": 133,
        "8919": 10,
        "8920": 217,
        "8921": 5,
        "8922": 5,
        "8923": 93,
        "8924": 125,
        "8925": 143,
        "8926": 122,
        "8927": 83,
        "8928": 149,
        "8929": 175,
        "8930": 55,
        "8931": 229,
        "8932": 134,
        "8933": 19,
        "8934": 172,
        "8935": 172,
        "8936": 64,
        "8937": 196,
        "8938": 254,
        "8939": 121,
        "8940": 252,
        "8941": 138,
        "8942": 186,
        "8943": 142,
        "8944": 75,
        "8945": 73,
        "8946": 224,
        "8947": 221,
        "8948": 56,
        "8949": 47,
        "8950": 116,
        "8951": 119,
        "8952": 253,
        "8953": 93,
        "8954": 142,
        "8955": 153,
        "8956": 35,
        "8957": 229,
        "8958": 214,
        "8959": 19,
        "8960": 151,
        "8961": 220,
        "8962": 172,
        "8963": 100,
        "8964": 176,
        "8965": 233,
        "8966": 41,
        "8967": 21,
        "8968": 34,
        "8969": 131,
        "8970": 105,
        "8971": 153,
        "8972": 100,
        "8973": 117,
        "8974": 99,
        "8975": 138,
        "8976": 227,
        "8977": 61,
        "8978": 118,
        "8979": 13,
        "8980": 182,
        "8981": 74,
        "8982": 44,
        "8983": 217,
        "8984": 128,
        "8985": 95,
        "8986": 25,
        "8987": 105,
        "8988": 67,
        "8989": 202,
        "8990": 176,
        "8991": 230,
        "8992": 219,
        "8993": 191,
        "8994": 143,
        "8995": 177,
        "8996": 9,
        "8997": 9,
        "8998": 50,
        "8999": 241,
        "9000": 121,
        "9001": 8,
        "9002": 129,
        "9003": 223,
        "9004": 199,
        "9005": 167,
        "9006": 99,
        "9007": 108,
        "9008": 87,
        "9009": 162,
        "9010": 117,
        "9011": 169,
        "9012": 127,
        "9013": 71,
        "9014": 157,
        "9015": 82,
        "9016": 73,
        "9017": 3,
        "9018": 201,
        "9019": 222,
        "9020": 100,
        "9021": 61,
        "9022": 102,
        "9023": 27,
        "9024": 177,
        "9025": 150,
        "9026": 158,
        "9027": 72,
        "9028": 27,
        "9029": 40,
        "9030": 251,
        "9031": 98,
        "9032": 96,
        "9033": 126,
        "9034": 22,
        "9035": 122,
        "9036": 245,
        "9037": 32,
        "9038": 252,
        "9039": 159,
        "9040": 136,
        "9041": 212,
        "9042": 47,
        "9043": 47,
        "9044": 142,
        "9045": 159,
        "9046": 77,
        "9047": 126,
        "9048": 97,
        "9049": 47,
        "9050": 173,
        "9051": 222,
        "9052": 19,
        "9053": 27,
        "9054": 235,
        "9055": 252,
        "9056": 25,
        "9057": 1,
        "9058": 81,
        "9059": 127,
        "9060": 147,
        "9061": 198,
        "9062": 219,
        "9063": 49,
        "9064": 125,
        "9065": 62,
        "9066": 199,
        "9067": 238,
        "9068": 83,
        "9069": 22,
        "9070": 26,
        "9071": 58,
        "9072": 156,
        "9073": 70,
        "9074": 220,
        "9075": 4,
        "9076": 63,
        "9077": 165,
        "9078": 187,
        "9079": 12,
        "9080": 128,
        "9081": 237,
        "9082": 83,
        "9083": 39,
        "9084": 222,
        "9085": 170,
        "9086": 251,
        "9087": 71,
        "9088": 94,
        "9089": 95,
        "9090": 47,
        "9091": 150,
        "9092": 218,
        "9093": 127,
        "9094": 49,
        "9095": 82,
        "9096": 31,
        "9097": 66,
        "9098": 129,
        "9099": 59,
        "9100": 244,
        "9101": 117,
        "9102": 105,
        "9103": 34,
        "9104": 231,
        "9105": 106,
        "9106": 197,
        "9107": 11,
        "9108": 238,
        "9109": 127,
        "9110": 195,
        "9111": 58,
        "9112": 61,
        "9113": 207,
        "9114": 234,
        "9115": 8,
        "9116": 93,
        "9117": 251,
        "9118": 140,
        "9119": 14,
        "9120": 13,
        "9121": 232,
        "9122": 180,
        "9123": 17,
        "9124": 231,
        "9125": 95,
        "9126": 209,
        "9127": 177,
        "9128": 200,
        "9129": 206,
        "9130": 97,
        "9131": 187,
        "9132": 69,
        "9133": 238,
        "9134": 251,
        "9135": 107,
        "9136": 17,
        "9137": 234,
        "9138": 122,
        "9139": 124,
        "9140": 199,
        "9141": 49,
        "9142": 62,
        "9143": 103,
        "9144": 36,
        "9145": 93,
        "9146": 213,
        "9147": 37,
        "9148": 90,
        "9149": 117,
        "9150": 183,
        "9151": 181,
        "9152": 72,
        "9153": 155,
        "9154": 73,
        "9155": 210,
        "9156": 81,
        "9157": 198,
        "9158": 234,
        "9159": 160,
        "9160": 70,
        "9161": 185,
        "9162": 106,
        "9163": 108,
        "9164": 229,
        "9165": 109,
        "9166": 68,
        "9167": 221,
        "9168": 202,
        "9169": 94,
        "9170": 113,
        "9171": 127,
        "9172": 63,
        "9173": 221,
        "9174": 255,
        "9175": 91,
        "9176": 125,
        "9177": 74,
        "9178": 69,
        "9179": 223,
        "9180": 78,
        "9181": 160,
        "9182": 139,
        "9183": 194,
        "9184": 235,
        "9185": 56,
        "9186": 26,
        "9187": 52,
        "9188": 158,
        "9189": 138,
        "9190": 132,
        "9191": 200,
        "9192": 169,
        "9193": 243,
        "9194": 169,
        "9195": 19,
        "9196": 68,
        "9197": 103,
        "9198": 43,
        "9199": 151,
        "9200": 220,
        "9201": 53,
        "9202": 93,
        "9203": 115,
        "9204": 225,
        "9205": 63,
        "9206": 164,
        "9207": 7,
        "9208": 40,
        "9209": 242,
        "9210": 116,
        "9211": 191,
        "9212": 52,
        "9213": 74,
        "9214": 230,
        "9215": 64,
        "9216": 231,
        "9217": 238,
        "9218": 152,
        "9219": 108,
        "9220": 200,
        "9221": 161,
        "9222": 94,
        "9223": 235,
        "9224": 236,
        "9225": 28,
        "9226": 198,
        "9227": 68,
        "9228": 153,
        "9229": 224,
        "9230": 71,
        "9231": 222,
        "9232": 61,
        "9233": 172,
        "9234": 94,
        "9235": 73,
        "9236": 73,
        "9237": 35,
        "9238": 8,
        "9239": 144,
        "9240": 45,
        "9241": 228,
        "9242": 148,
        "9243": 100,
        "9244": 242,
        "9245": 197,
        "9246": 152,
        "9247": 2,
        "9248": 227,
        "9249": 211,
        "9250": 0,
        "9251": 165,
        "9252": 224,
        "9253": 198,
        "9254": 18,
        "9255": 80,
        "9256": 127,
        "9257": 148,
        "9258": 88,
        "9259": 141,
        "9260": 237,
        "9261": 107,
        "9262": 59,
        "9263": 76,
        "9264": 4,
        "9265": 42,
        "9266": 158,
        "9267": 169,
        "9268": 36,
        "9269": 33,
        "9270": 200,
        "9271": 234,
        "9272": 210,
        "9273": 109,
        "9274": 139,
        "9275": 247,
        "9276": 4,
        "9277": 38,
        "9278": 22,
        "9279": 25,
        "9280": 176,
        "9281": 116,
        "9282": 21,
        "9283": 79,
        "9284": 221,
        "9285": 188,
        "9286": 250,
        "9287": 170,
        "9288": 122,
        "9289": 80,
        "9290": 232,
        "9291": 155,
        "9292": 158,
        "9293": 220,
        "9294": 201,
        "9295": 131,
        "9296": 8,
        "9297": 170,
        "9298": 20,
        "9299": 23,
        "9300": 190,
        "9301": 229,
        "9302": 111,
        "9303": 134,
        "9304": 187,
        "9305": 1,
        "9306": 6,
        "9307": 80,
        "9308": 120,
        "9309": 130,
        "9310": 109,
        "9311": 131,
        "9312": 166,
        "9313": 77,
        "9314": 214,
        "9315": 16,
        "9316": 159,
        "9317": 240,
        "9318": 25,
        "9319": 193,
        "9320": 144,
        "9321": 55,
        "9322": 57,
        "9323": 57,
        "9324": 137,
        "9325": 110,
        "9326": 252,
        "9327": 253,
        "9328": 86,
        "9329": 71,
        "9330": 205,
        "9331": 178,
        "9332": 100,
        "9333": 158,
        "9334": 43,
        "9335": 34,
        "9336": 29,
        "9337": 74,
        "9338": 52,
        "9339": 35,
        "9340": 5,
        "9341": 72,
        "9342": 196,
        "9343": 240,
        "9344": 250,
        "9345": 210,
        "9346": 26,
        "9347": 77,
        "9348": 237,
        "9349": 43,
        "9350": 40,
        "9351": 242,
        "9352": 14,
        "9353": 126,
        "9354": 192,
        "9355": 12,
        "9356": 196,
        "9357": 58,
        "9358": 26,
        "9359": 5,
        "9360": 12,
        "9361": 131,
        "9362": 115,
        "9363": 133,
        "9364": 195,
        "9365": 145,
        "9366": 24,
        "9367": 45,
        "9368": 87,
        "9369": 137,
        "9370": 117,
        "9371": 150,
        "9372": 141,
        "9373": 143,
        "9374": 79,
        "9375": 189,
        "9376": 247,
        "9377": 232,
        "9378": 57,
        "9379": 15,
        "9380": 210,
        "9381": 175,
        "9382": 198,
        "9383": 222,
        "9384": 250,
        "9385": 226,
        "9386": 166,
        "9387": 63,
        "9388": 144,
        "9389": 234,
        "9390": 231,
        "9391": 234,
        "9392": 4,
        "9393": 134,
        "9394": 20,
        "9395": 88,
        "9396": 176,
        "9397": 84,
        "9398": 186,
        "9399": 56,
        "9400": 95,
        "9401": 242,
        "9402": 60,
        "9403": 50,
        "9404": 199,
        "9405": 105,
        "9406": 17,
        "9407": 57,
        "9408": 133,
        "9409": 19,
        "9410": 67,
        "9411": 198,
        "9412": 196,
        "9413": 15,
        "9414": 61,
        "9415": 156,
        "9416": 188,
        "9417": 218,
        "9418": 216,
        "9419": 127,
        "9420": 56,
        "9421": 38,
        "9422": 177,
        "9423": 112,
        "9424": 0,
        "9425": 191,
        "9426": 162,
        "9427": 128,
        "9428": 117,
        "9429": 51,
        "9430": 165,
        "9431": 250,
        "9432": 179,
        "9433": 194,
        "9434": 156,
        "9435": 76,
        "9436": 85,
        "9437": 255,
        "9438": 192,
        "9439": 33,
        "9440": 226,
        "9441": 235,
        "9442": 206,
        "9443": 181,
        "9444": 128,
        "9445": 172,
        "9446": 230,
        "9447": 233,
        "9448": 101,
        "9449": 43,
        "9450": 115,
        "9451": 175,
        "9452": 210,
        "9453": 99,
        "9454": 148,
        "9455": 188,
        "9456": 91,
        "9457": 124,
        "9458": 171,
        "9459": 254,
        "9460": 13,
        "9461": 127,
        "9462": 117,
        "9463": 253,
        "9464": 220,
        "9465": 25,
        "9466": 225,
        "9467": 13,
        "9468": 215,
        "9469": 97,
        "9470": 35,
        "9471": 87,
        "9472": 63,
        "9473": 52,
        "9474": 219,
        "9475": 1,
        "9476": 123,
        "9477": 197,
        "9478": 239,
        "9479": 207,
        "9480": 34,
        "9481": 202,
        "9482": 9,
        "9483": 230,
        "9484": 75,
        "9485": 44,
        "9486": 245,
        "9487": 173,
        "9488": 92,
        "9489": 240,
        "9490": 107,
        "9491": 85,
        "9492": 170,
        "9493": 5,
        "9494": 229,
        "9495": 119,
        "9496": 105,
        "9497": 155,
        "9498": 142,
        "9499": 77,
        "9500": 118,
        "9501": 206,
        "9502": 161,
        "9503": 203,
        "9504": 35,
        "9505": 230,
        "9506": 231,
        "9507": 103,
        "9508": 198,
        "9509": 1,
        "9510": 84,
        "9511": 91,
        "9512": 236,
        "9513": 15,
        "9514": 222,
        "9515": 108,
        "9516": 131,
        "9517": 243,
        "9518": 15,
        "9519": 107,
        "9520": 183,
        "9521": 222,
        "9522": 179,
        "9523": 50,
        "9524": 48,
        "9525": 194,
        "9526": 244,
        "9527": 246,
        "9528": 160,
        "9529": 24,
        "9530": 59,
        "9531": 209,
        "9532": 102,
        "9533": 85,
        "9534": 127,
        "9535": 221,
        "9536": 104,
        "9537": 36,
        "9538": 105,
        "9539": 155,
        "9540": 44,
        "9541": 215,
        "9542": 54,
        "9543": 117,
        "9544": 112,
        "9545": 249,
        "9546": 58,
        "9547": 85,
        "9548": 33,
        "9549": 64,
        "9550": 37,
        "9551": 68,
        "9552": 198,
        "9553": 247,
        "9554": 105,
        "9555": 25,
        "9556": 249,
        "9557": 61,
        "9558": 69,
        "9559": 70,
        "9560": 238,
        "9561": 110,
        "9562": 13,
        "9563": 3,
        "9564": 113,
        "9565": 104,
        "9566": 105,
        "9567": 83,
        "9568": 201,
        "9569": 170,
        "9570": 46,
        "9571": 54,
        "9572": 71,
        "9573": 175,
        "9574": 251,
        "9575": 93,
        "9576": 90,
        "9577": 203,
        "9578": 118,
        "9579": 158,
        "9580": 195,
        "9581": 37,
        "9582": 103,
        "9583": 44,
        "9584": 24,
        "9585": 159,
        "9586": 184,
        "9587": 76,
        "9588": 39,
        "9589": 153,
        "9590": 72,
        "9591": 63,
        "9592": 150,
        "9593": 110,
        "9594": 116,
        "9595": 120,
        "9596": 40,
        "9597": 125,
        "9598": 163,
        "9599": 28,
        "9600": 86,
        "9601": 127,
        "9602": 27,
        "9603": 199,
        "9604": 79,
        "9605": 77,
        "9606": 202,
        "9607": 168,
        "9608": 111,
        "9609": 26,
        "9610": 166,
        "9611": 229,
        "9612": 138,
        "9613": 51,
        "9614": 102,
        "9615": 94,
        "9616": 164,
        "9617": 28,
        "9618": 15,
        "9619": 164,
        "9620": 56,
        "9621": 2,
        "9622": 65,
        "9623": 41,
        "9624": 170,
        "9625": 20,
        "9626": 244,
        "9627": 217,
        "9628": 47,
        "9629": 63,
        "9630": 138,
        "9631": 57,
        "9632": 169,
        "9633": 161,
        "9634": 66,
        "9635": 137,
        "9636": 83,
        "9637": 210,
        "9638": 214,
        "9639": 244,
        "9640": 185,
        "9641": 79,
        "9642": 119,
        "9643": 8,
        "9644": 39,
        "9645": 153,
        "9646": 217,
        "9647": 208,
        "9648": 241,
        "9649": 55,
        "9650": 35,
        "9651": 149,
        "9652": 154,
        "9653": 58,
        "9654": 66,
        "9655": 101,
        "9656": 211,
        "9657": 219,
        "9658": 242,
        "9659": 67,
        "9660": 78,
        "9661": 11,
        "9662": 167,
        "9663": 100,
        "9664": 124,
        "9665": 91,
        "9666": 92,
        "9667": 185,
        "9668": 1,
        "9669": 23,
        "9670": 171,
        "9671": 135,
        "9672": 84,
        "9673": 70,
        "9674": 205,
        "9675": 248,
        "9676": 146,
        "9677": 101,
        "9678": 93,
        "9679": 195,
        "9680": 157,
        "9681": 193,
        "9682": 101,
        "9683": 173,
        "9684": 118,
        "9685": 132,
        "9686": 105,
        "9687": 169,
        "9688": 146,
        "9689": 58,
        "9690": 219,
        "9691": 4,
        "9692": 53,
        "9693": 143,
        "9694": 65,
        "9695": 8,
        "9696": 165,
        "9697": 91,
        "9698": 53,
        "9699": 230,
        "9700": 229,
        "9701": 126,
        "9702": 244,
        "9703": 152,
        "9704": 130,
        "9705": 136,
        "9706": 150,
        "9707": 102,
        "9708": 47,
        "9709": 225,
        "9710": 114,
        "9711": 31,
        "9712": 158,
        "9713": 10,
        "9714": 189,
        "9715": 114,
        "9716": 197,
        "9717": 237,
        "9718": 80,
        "9719": 114,
        "9720": 183,
        "9721": 199,
        "9722": 112,
        "9723": 74,
        "9724": 193,
        "9725": 56,
        "9726": 180,
        "9727": 96,
        "9728": 209,
        "9729": 29,
        "9730": 68,
        "9731": 230,
        "9732": 74,
        "9733": 47,
        "9734": 251,
        "9735": 158,
        "9736": 109,
        "9737": 53,
        "9738": 234,
        "9739": 112,
        "9740": 222,
        "9741": 18,
        "9742": 243,
        "9743": 133,
        "9744": 133,
        "9745": 87,
        "9746": 2,
        "9747": 151,
        "9748": 76,
        "9749": 39,
        "9750": 215,
        "9751": 103,
        "9752": 201,
        "9753": 166,
        "9754": 255,
        "9755": 99,
        "9756": 77,
        "9757": 198,
        "9758": 62,
        "9759": 73,
        "9760": 131,
        "9761": 56,
        "9762": 178,
        "9763": 39,
        "9764": 105,
        "9765": 115,
        "9766": 144,
        "9767": 51,
        "9768": 70,
        "9769": 237,
        "9770": 32,
        "9771": 98,
        "9772": 120,
        "9773": 196,
        "9774": 123,
        "9775": 145,
        "9776": 111,
        "9777": 183,
        "9778": 94,
        "9779": 21,
        "9780": 115,
        "9781": 246,
        "9782": 173,
        "9783": 156,
        "9784": 235,
        "9785": 176,
        "9786": 194,
        "9787": 211,
        "9788": 99,
        "9789": 211,
        "9790": 52,
        "9791": 199,
        "9792": 95,
        "9793": 255,
        "9794": 234,
        "9795": 152,
        "9796": 138,
        "9797": 114,
        "9798": 220,
        "9799": 62,
        "9800": 249,
        "9801": 162,
        "9802": 128,
        "9803": 190,
        "9804": 19,
        "9805": 70,
        "9806": 102,
        "9807": 20,
        "9808": 152,
        "9809": 90,
        "9810": 57,
        "9811": 156,
        "9812": 9,
        "9813": 26,
        "9814": 239,
        "9815": 175,
        "9816": 101,
        "9817": 189,
        "9818": 114,
        "9819": 122,
        "9820": 109,
        "9821": 208,
        "9822": 35,
        "9823": 151,
        "9824": 46,
        "9825": 169,
        "9826": 221,
        "9827": 203,
        "9828": 192,
        "9829": 193,
        "9830": 7,
        "9831": 125,
        "9832": 241,
        "9833": 189,
        "9834": 220,
        "9835": 227,
        "9836": 98,
        "9837": 200,
        "9838": 187,
        "9839": 229,
        "9840": 145,
        "9841": 150,
        "9842": 162,
        "9843": 242,
        "9844": 240,
        "9845": 17,
        "9846": 98,
        "9847": 58,
        "9848": 254,
        "9849": 233,
        "9850": 227,
        "9851": 113,
        "9852": 7,
        "9853": 18,
        "9854": 194,
        "9855": 138,
        "9856": 163,
        "9857": 155,
        "9858": 236,
        "9859": 123,
        "9860": 152,
        "9861": 194,
        "9862": 182,
        "9863": 105,
        "9864": 50,
        "9865": 177,
        "9866": 96,
        "9867": 231,
        "9868": 158,
        "9869": 80,
        "9870": 89,
        "9871": 170,
        "9872": 86,
        "9873": 146,
        "9874": 29,
        "9875": 163,
        "9876": 33,
        "9877": 63,
        "9878": 58,
        "9879": 5,
        "9880": 43,
        "9881": 45,
        "9882": 49,
        "9883": 54,
        "9884": 142,
        "9885": 241,
        "9886": 134,
        "9887": 169,
        "9888": 78,
        "9889": 123,
        "9890": 181,
        "9891": 220,
        "9892": 112,
        "9893": 53,
        "9894": 112,
        "9895": 48,
        "9896": 113,
        "9897": 43,
        "9898": 224,
        "9899": 169,
        "9900": 165,
        "9901": 74,
        "9902": 47,
        "9903": 213,
        "9904": 11,
        "9905": 163,
        "9906": 199,
        "9907": 176,
        "9908": 170,
        "9909": 244,
        "9910": 70,
        "9911": 205,
        "9912": 110,
        "9913": 138,
        "9914": 82,
        "9915": 36,
        "9916": 182,
        "9917": 176,
        "9918": 5,
        "9919": 97,
        "9920": 49,
        "9921": 190,
        "9922": 25,
        "9923": 111,
        "9924": 49,
        "9925": 88,
        "9926": 90,
        "9927": 54,
        "9928": 108,
        "9929": 9,
        "9930": 171,
        "9931": 88,
        "9932": 214,
        "9933": 218,
        "9934": 219,
        "9935": 178,
        "9936": 151,
        "9937": 151,
        "9938": 218,
        "9939": 29,
        "9940": 70,
        "9941": 104,
        "9942": 192,
        "9943": 125,
        "9944": 234,
        "9945": 235,
        "9946": 0,
        "9947": 37,
        "9948": 241,
        "9949": 242,
        "9950": 91,
        "9951": 208,
        "9952": 147,
        "9953": 2,
        "9954": 15,
        "9955": 108,
        "9956": 92,
        "9957": 72,
        "9958": 148,
        "9959": 124,
        "9960": 74,
        "9961": 91,
        "9962": 13,
        "9963": 71,
        "9964": 37,
        "9965": 255,
        "9966": 115,
        "9967": 101,
        "9968": 50,
        "9969": 130,
        "9970": 200,
        "9971": 113,
        "9972": 89,
        "9973": 151,
        "9974": 245,
        "9975": 16,
        "9976": 134,
        "9977": 51,
        "9978": 112,
        "9979": 230,
        "9980": 185,
        "9981": 98,
        "9982": 55,
        "9983": 183,
        "9984": 208,
        "9985": 253,
        "9986": 3,
        "9987": 233,
        "9988": 158,
        "9989": 236,
        "9990": 197,
        "9991": 10,
        "9992": 58,
        "9993": 176,
        "9994": 176,
        "9995": 15,
        "9996": 207,
        "9997": 188,
        "9998": 22,
        "9999": 49,
        "10000": 207,
        "10001": 89,
        "10002": 36,
        "10003": 68,
        "10004": 7,
        "10005": 242,
        "10006": 136,
        "10007": 142,
        "10008": 97,
        "10009": 196,
        "10010": 11,
        "10011": 141,
        "10012": 204,
        "10013": 126,
        "10014": 112,
        "10015": 213,
        "10016": 78,
        "10017": 185,
        "10018": 254,
        "10019": 51,
        "10020": 212,
        "10021": 30,
        "10022": 190,
        "10023": 78,
        "10024": 207,
        "10025": 20,
        "10026": 16,
        "10027": 21,
        "10028": 219,
        "10029": 8,
        "10030": 200,
        "10031": 173,
        "10032": 228,
        "10033": 187,
        "10034": 211,
        "10035": 139,
        "10036": 26,
        "10037": 60,
        "10038": 44,
        "10039": 182,
        "10040": 73,
        "10041": 8,
        "10042": 191,
        "10043": 113,
        "10044": 226,
        "10045": 81,
        "10046": 110,
        "10047": 102,
        "10048": 48,
        "10049": 52,
        "10050": 191,
        "10051": 116,
        "10052": 197,
        "10053": 48,
        "10054": 85,
        "10055": 153,
        "10056": 233,
        "10057": 31,
        "10058": 238,
        "10059": 61,
        "10060": 135,
        "10061": 55,
        "10062": 103,
        "10063": 244,
        "10064": 198,
        "10065": 14,
        "10066": 12,
        "10067": 143,
        "10068": 71,
        "10069": 51,
        "10070": 161,
        "10071": 98,
        "10072": 6,
        "10073": 115,
        "10074": 31,
        "10075": 21,
        "10076": 171,
        "10077": 116,
        "10078": 167,
        "10079": 193,
        "10080": 127,
        "10081": 126,
        "10082": 220,
        "10083": 238,
        "10084": 138,
        "10085": 128,
        "10086": 59,
        "10087": 168,
        "10088": 140,
        "10089": 81,
        "10090": 106,
        "10091": 113,
        "10092": 39,
        "10093": 23,
        "10094": 200,
        "10095": 29,
        "10096": 226,
        "10097": 12,
        "10098": 189,
        "10099": 241,
        "10100": 120,
        "10101": 16,
        "10102": 181,
        "10103": 26,
        "10104": 83,
        "10105": 224,
        "10106": 225,
        "10107": 24,
        "10108": 76,
        "10109": 212,
        "10110": 208,
        "10111": 88,
        "10112": 76,
        "10113": 239,
        "10114": 235,
        "10115": 66,
        "10116": 169,
        "10117": 105,
        "10118": 134,
        "10119": 43,
        "10120": 208,
        "10121": 194,
        "10122": 36,
        "10123": 211,
        "10124": 184,
        "10125": 52,
        "10126": 82,
        "10127": 165,
        "10128": 123,
        "10129": 135,
        "10130": 184,
        "10131": 124,
        "10132": 240,
        "10133": 71,
        "10134": 225,
        "10135": 149,
        "10136": 132,
        "10137": 33,
        "10138": 97,
        "10139": 73,
        "10140": 46,
        "10141": 243,
        "10142": 104,
        "10143": 31,
        "10144": 238,
        "10145": 120,
        "10146": 162,
        "10147": 5,
        "10148": 185,
        "10149": 216,
        "10150": 220,
        "10151": 131,
        "10152": 10,
        "10153": 196,
        "10154": 212,
        "10155": 142,
        "10156": 193,
        "10157": 112,
        "10158": 48,
        "10159": 202,
        "10160": 103,
        "10161": 91,
        "10162": 225,
        "10163": 178,
        "10164": 194,
        "10165": 152,
        "10166": 47,
        "10167": 219,
        "10168": 1,
        "10169": 161,
        "10170": 243,
        "10171": 154,
        "10172": 222,
        "10173": 208,
        "10174": 154,
        "10175": 29,
        "10176": 140,
        "10177": 251,
        "10178": 49,
        "10179": 183,
        "10180": 141,
        "10181": 37,
        "10182": 198,
        "10183": 149,
        "10184": 167,
        "10185": 165,
        "10186": 172,
        "10187": 5,
        "10188": 23,
        "10189": 77,
        "10190": 227,
        "10191": 79,
        "10192": 57,
        "10193": 220,
        "10194": 185,
        "10195": 52,
        "10196": 127,
        "10197": 116,
        "10198": 32,
        "10199": 56,
        "10200": 7,
        "10201": 101,
        "10202": 234,
        "10203": 20,
        "10204": 13,
        "10205": 17,
        "10206": 181,
        "10207": 140,
        "10208": 144,
        "10209": 18,
        "10210": 253,
        "10211": 186,
        "10212": 28,
        "10213": 107,
        "10214": 102,
        "10215": 168,
        "10216": 50,
        "10217": 229,
        "10218": 22,
        "10219": 114,
        "10220": 252,
        "10221": 79,
        "10222": 249,
        "10223": 73,
        "10224": 116,
        "10225": 47,
        "10226": 251,
        "10227": 119,
        "10228": 231,
        "10229": 108,
        "10230": 69,
        "10231": 248,
        "10232": 131,
        "10233": 12,
        "10234": 67,
        "10235": 188,
        "10236": 154,
        "10237": 64,
        "10238": 177,
        "10239": 147,
        "10240": 242,
        "10241": 220,
        "10242": 246,
        "10243": 83,
        "10244": 196,
        "10245": 37,
        "10246": 32,
        "10247": 164,
        "10248": 55,
        "10249": 198,
        "10250": 109,
        "10251": 250,
        "10252": 218,
        "10253": 157,
        "10254": 144,
        "10255": 40,
        "10256": 90,
        "10257": 245,
        "10258": 44,
        "10259": 249,
        "10260": 18,
        "10261": 37,
        "10262": 165,
        "10263": 180,
        "10264": 115,
        "10265": 20,
        "10266": 49,
        "10267": 172,
        "10268": 176,
        "10269": 147,
        "10270": 33,
        "10271": 103,
        "10272": 35,
        "10273": 215,
        "10274": 26,
        "10275": 153,
        "10276": 109,
        "10277": 53,
        "10278": 159,
        "10279": 77,
        "10280": 45,
        "10281": 42,
        "10282": 163,
        "10283": 196,
        "10284": 246,
        "10285": 109,
        "10286": 93,
        "10287": 118,
        "10288": 177,
        "10289": 159,
        "10290": 244,
        "10291": 90,
        "10292": 80,
        "10293": 161,
        "10294": 228,
        "10295": 251,
        "10296": 11,
        "10297": 210,
        "10298": 107,
        "10299": 102,
        "10300": 212,
        "10301": 243,
        "10302": 33,
        "10303": 193,
        "10304": 190,
        "10305": 147,
        "10306": 101,
        "10307": 72,
        "10308": 113,
        "10309": 170,
        "10310": 215,
        "10311": 161,
        "10312": 71,
        "10313": 197,
        "10314": 46,
        "10315": 120,
        "10316": 108,
        "10317": 155,
        "10318": 6,
        "10319": 248,
        "10320": 188,
        "10321": 145,
        "10322": 156,
        "10323": 251,
        "10324": 135,
        "10325": 225,
        "10326": 212,
        "10327": 209,
        "10328": 16,
        "10329": 187,
        "10330": 120,
        "10331": 150,
        "10332": 127,
        "10333": 205,
        "10334": 65,
        "10335": 108,
        "10336": 120,
        "10337": 97,
        "10338": 44,
        "10339": 29,
        "10340": 245,
        "10341": 110,
        "10342": 62,
        "10343": 223,
        "10344": 95,
        "10345": 226,
        "10346": 156,
        "10347": 202,
        "10348": 202,
        "10349": 246,
        "10350": 5,
        "10351": 45,
        "10352": 105,
        "10353": 39,
        "10354": 46,
        "10355": 63,
        "10356": 220,
        "10357": 230,
        "10358": 88,
        "10359": 177,
        "10360": 214,
        "10361": 91,
        "10362": 91,
        "10363": 30,
        "10364": 101,
        "10365": 77,
        "10366": 98,
        "10367": 70,
        "10368": 145,
        "10369": 177,
        "10370": 121,
        "10371": 1,
        "10372": 248,
        "10373": 122,
        "10374": 124,
        "10375": 197,
        "10376": 59,
        "10377": 56,
        "10378": 43,
        "10379": 201,
        "10380": 233,
        "10381": 118,
        "10382": 221,
        "10383": 121,
        "10384": 111,
        "10385": 54,
        "10386": 74,
        "10387": 207,
        "10388": 222,
        "10389": 52,
        "10390": 194,
        "10391": 170,
        "10392": 76,
        "10393": 68,
        "10394": 38,
        "10395": 17,
        "10396": 204,
        "10397": 126,
        "10398": 125,
        "10399": 146,
        "10400": 97,
        "10401": 222,
        "10402": 11,
        "10403": 249,
        "10404": 211,
        "10405": 139,
        "10406": 82,
        "10407": 138,
        "10408": 38,
        "10409": 56,
        "10410": 130,
        "10411": 83,
        "10412": 121,
        "10413": 3,
        "10414": 129,
        "10415": 60,
        "10416": 204,
        "10417": 180,
        "10418": 57,
        "10419": 31,
        "10420": 105,
        "10421": 221,
        "10422": 141,
        "10423": 183,
        "10424": 149,
        "10425": 34,
        "10426": 201,
        "10427": 209,
        "10428": 73,
        "10429": 118,
        "10430": 43,
        "10431": 220,
        "10432": 90,
        "10433": 247,
        "10434": 114,
        "10435": 29,
        "10436": 172,
        "10437": 44,
        "10438": 218,
        "10439": 0,
        "10440": 74,
        "10441": 25,
        "10442": 45,
        "10443": 72,
        "10444": 200,
        "10445": 114,
        "10446": 104,
        "10447": 194,
        "10448": 178,
        "10449": 16,
        "10450": 33,
        "10451": 184,
        "10452": 219,
        "10453": 175,
        "10454": 87,
        "10455": 17,
        "10456": 135,
        "10457": 80,
        "10458": 189,
        "10459": 89,
        "10460": 125,
        "10461": 183,
        "10462": 203,
        "10463": 225,
        "10464": 71,
        "10465": 144,
        "10466": 91,
        "10467": 59,
        "10468": 101,
        "10469": 235,
        "10470": 209,
        "10471": 38,
        "10472": 150,
        "10473": 251,
        "10474": 224,
        "10475": 189,
        "10476": 32,
        "10477": 46,
        "10478": 156,
        "10479": 235,
        "10480": 22,
        "10481": 51,
        "10482": 213,
        "10483": 138,
        "10484": 159,
        "10485": 198,
        "10486": 145,
        "10487": 160,
        "10488": 186,
        "10489": 84,
        "10490": 102,
        "10491": 92,
        "10492": 56,
        "10493": 20,
        "10494": 207,
        "10495": 127,
        "10496": 239,
        "10497": 242,
        "10498": 40,
        "10499": 178,
        "10500": 248,
        "10501": 83,
        "10502": 116,
        "10503": 202,
        "10504": 76,
        "10505": 11,
        "10506": 79,
        "10507": 164,
        "10508": 255,
        "10509": 53,
        "10510": 150,
        "10511": 246,
        "10512": 148,
        "10513": 183,
        "10514": 138,
        "10515": 22,
        "10516": 188,
        "10517": 158,
        "10518": 116,
        "10519": 98,
        "10520": 146,
        "10521": 166,
        "10522": 48,
        "10523": 57,
        "10524": 211,
        "10525": 76,
        "10526": 238,
        "10527": 12,
        "10528": 45,
        "10529": 29,
        "10530": 156,
        "10531": 208,
        "10532": 133,
        "10533": 111,
        "10534": 135,
        "10535": 127,
        "10536": 89,
        "10537": 250,
        "10538": 193,
        "10539": 77,
        "10540": 119,
        "10541": 140,
        "10542": 167,
        "10543": 82,
        "10544": 207,
        "10545": 132,
        "10546": 11,
        "10547": 15,
        "10548": 101,
        "10549": 240,
        "10550": 26,
        "10551": 223,
        "10552": 141,
        "10553": 167,
        "10554": 111,
        "10555": 160,
        "10556": 189,
        "10557": 189,
        "10558": 46,
        "10559": 10,
        "10560": 5,
        "10561": 148,
        "10562": 191,
        "10563": 61,
        "10564": 39,
        "10565": 72,
        "10566": 250,
        "10567": 93,
        "10568": 32,
        "10569": 51,
        "10570": 97,
        "10571": 224,
        "10572": 111,
        "10573": 240,
        "10574": 146,
        "10575": 116,
        "10576": 90,
        "10577": 127,
        "10578": 53,
        "10579": 134,
        "10580": 128,
        "10581": 230,
        "10582": 105,
        "10583": 78,
        "10584": 100,
        "10585": 150,
        "10586": 239,
        "10587": 224,
        "10588": 62,
        "10589": 235,
        "10590": 119,
        "10591": 49,
        "10592": 123,
        "10593": 3,
        "10594": 201,
        "10595": 72,
        "10596": 193,
        "10597": 143,
        "10598": 225,
        "10599": 113,
        "10600": 97,
        "10601": 30,
        "10602": 232,
        "10603": 203,
        "10604": 255,
        "10605": 226,
        "10606": 175,
        "10607": 85,
        "10608": 59,
        "10609": 190,
        "10610": 53,
        "10611": 65,
        "10612": 166,
        "10613": 165,
        "10614": 38,
        "10615": 141,
        "10616": 31,
        "10617": 189,
        "10618": 156,
        "10619": 179,
        "10620": 214,
        "10621": 63,
        "10622": 123,
        "10623": 170,
        "10624": 208,
        "10625": 172,
        "10626": 166,
        "10627": 26,
        "10628": 124,
        "10629": 217,
        "10630": 202,
        "10631": 120,
        "10632": 91,
        "10633": 45,
        "10634": 21,
        "10635": 121,
        "10636": 92,
        "10637": 124,
        "10638": 50,
        "10639": 172,
        "10640": 122,
        "10641": 113,
        "10642": 100,
        "10643": 166,
        "10644": 76,
        "10645": 191,
        "10646": 116,
        "10647": 235,
        "10648": 37,
        "10649": 61,
        "10650": 194,
        "10651": 208,
        "10652": 89,
        "10653": 92,
        "10654": 63,
        "10655": 66,
        "10656": 49,
        "10657": 25,
        "10658": 249,
        "10659": 130,
        "10660": 242,
        "10661": 21,
        "10662": 154,
        "10663": 133,
        "10664": 38,
        "10665": 115,
        "10666": 230,
        "10667": 106,
        "10668": 232,
        "10669": 65,
        "10670": 163,
        "10671": 251,
        "10672": 26,
        "10673": 134,
        "10674": 43,
        "10675": 248,
        "10676": 28,
        "10677": 56,
        "10678": 100,
        "10679": 131,
        "10680": 75,
        "10681": 246,
        "10682": 53,
        "10683": 220,
        "10684": 119,
        "10685": 156,
        "10686": 83,
        "10687": 232,
        "10688": 204,
        "10689": 219,
        "10690": 103,
        "10691": 113,
        "10692": 181,
        "10693": 80,
        "10694": 85,
        "10695": 242,
        "10696": 10,
        "10697": 188,
        "10698": 199,
        "10699": 222,
        "10700": 13,
        "10701": 152,
        "10702": 84,
        "10703": 142,
        "10704": 239,
        "10705": 74,
        "10706": 60,
        "10707": 154,
        "10708": 8,
        "10709": 83,
        "10710": 96,
        "10711": 57,
        "10712": 24,
        "10713": 61,
        "10714": 179,
        "10715": 133,
        "10716": 87,
        "10717": 36,
        "10718": 49,
        "10719": 12,
        "10720": 220,
        "10721": 127,
        "10722": 89,
        "10723": 63,
        "10724": 201,
        "10725": 207,
        "10726": 91,
        "10727": 19,
        "10728": 89,
        "10729": 94,
        "10730": 81,
        "10731": 3,
        "10732": 183,
        "10733": 54,
        "10734": 211,
        "10735": 170,
        "10736": 149,
        "10737": 186,
        "10738": 38,
        "10739": 83,
        "10740": 97,
        "10741": 144,
        "10742": 192,
        "10743": 190,
        "10744": 194,
        "10745": 166,
        "10746": 52,
        "10747": 246,
        "10748": 194,
        "10749": 151,
        "10750": 108,
        "10751": 133,
        "10752": 141,
        "10753": 11,
        "10754": 253,
        "10755": 157,
        "10756": 1,
        "10757": 41,
        "10758": 106,
        "10759": 95,
        "10760": 240,
        "10761": 106,
        "10762": 64,
        "10763": 229,
        "10764": 4,
        "10765": 254,
        "10766": 98,
        "10767": 188,
        "10768": 203,
        "10769": 151,
        "10770": 30,
        "10771": 15,
        "10772": 57,
        "10773": 139,
        "10774": 155,
        "10775": 58,
        "10776": 141,
        "10777": 217,
        "10778": 147,
        "10779": 158,
        "10780": 254,
        "10781": 246,
        "10782": 78,
        "10783": 49,
        "10784": 255,
        "10785": 91,
        "10786": 176,
        "10787": 89,
        "10788": 126,
        "10789": 218,
        "10790": 71,
        "10791": 148,
        "10792": 169,
        "10793": 100,
        "10794": 210,
        "10795": 227,
        "10796": 140,
        "10797": 230,
        "10798": 123,
        "10799": 179,
        "10800": 74,
        "10801": 88,
        "10802": 222,
        "10803": 252,
        "10804": 35,
        "10805": 53,
        "10806": 231,
        "10807": 22,
        "10808": 224,
        "10809": 49,
        "10810": 220,
        "10811": 243,
        "10812": 79,
        "10813": 31,
        "10814": 5,
        "10815": 53,
        "10816": 195,
        "10817": 109,
        "10818": 78,
        "10819": 12,
        "10820": 37,
        "10821": 170,
        "10822": 132,
        "10823": 117,
        "10824": 112,
        "10825": 85,
        "10826": 98,
        "10827": 233,
        "10828": 104,
        "10829": 204,
        "10830": 89,
        "10831": 40,
        "10832": 204,
        "10833": 127,
        "10834": 136,
        "10835": 198,
        "10836": 43,
        "10837": 148,
        "10838": 116,
        "10839": 63,
        "10840": 158,
        "10841": 251,
        "10842": 90,
        "10843": 55,
        "10844": 191,
        "10845": 236,
        "10846": 193,
        "10847": 7,
        "10848": 50,
        "10849": 35,
        "10850": 221,
        "10851": 91,
        "10852": 46,
        "10853": 4,
        "10854": 202,
        "10855": 56,
        "10856": 209,
        "10857": 149,
        "10858": 122,
        "10859": 145,
        "10860": 161,
        "10861": 5,
        "10862": 22,
        "10863": 166,
        "10864": 125,
        "10865": 91,
        "10866": 132,
        "10867": 44,
        "10868": 115,
        "10869": 67,
        "10870": 136,
        "10871": 116,
        "10872": 47,
        "10873": 38,
        "10874": 91,
        "10875": 187,
        "10876": 68,
        "10877": 23,
        "10878": 230,
        "10879": 203,
        "10880": 130,
        "10881": 225,
        "10882": 216,
        "10883": 185,
        "10884": 78,
        "10885": 17,
        "10886": 223,
        "10887": 193,
        "10888": 60,
        "10889": 183,
        "10890": 188,
        "10891": 240,
        "10892": 245,
        "10893": 202,
        "10894": 4,
        "10895": 189,
        "10896": 143,
        "10897": 119,
        "10898": 195,
        "10899": 119,
        "10900": 1,
        "10901": 208,
        "10902": 125,
        "10903": 59,
        "10904": 217,
        "10905": 62,
        "10906": 158,
        "10907": 160,
        "10908": 77,
        "10909": 236,
        "10910": 209,
        "10911": 99,
        "10912": 65,
        "10913": 210,
        "10914": 13,
        "10915": 81,
        "10916": 246,
        "10917": 78,
        "10918": 229,
        "10919": 106,
        "10920": 58,
        "10921": 80,
        "10922": 185,
        "10923": 210,
        "10924": 48,
        "10925": 48,
        "10926": 171,
        "10927": 223,
        "10928": 27,
        "10929": 127,
        "10930": 116,
        "10931": 221,
        "10932": 170,
        "10933": 237,
        "10934": 246,
        "10935": 42,
        "10936": 192,
        "10937": 54,
        "10938": 81,
        "10939": 160,
        "10940": 72,
        "10941": 70,
        "10942": 185,
        "10943": 230,
        "10944": 255,
        "10945": 20,
        "10946": 55,
        "10947": 249,
        "10948": 185,
        "10949": 251,
        "10950": 47,
        "10951": 73,
        "10952": 181,
        "10953": 207,
        "10954": 64,
        "10955": 167,
        "10956": 211,
        "10957": 71,
        "10958": 141,
        "10959": 234,
        "10960": 35,
        "10961": 86,
        "10962": 87,
        "10963": 70,
        "10964": 172,
        "10965": 216,
        "10966": 47,
        "10967": 250,
        "10968": 94,
        "10969": 120,
        "10970": 14,
        "10971": 199,
        "10972": 231,
        "10973": 53,
        "10974": 251,
        "10975": 84,
        "10976": 62,
        "10977": 45,
        "10978": 162,
        "10979": 55,
        "10980": 112,
        "10981": 251,
        "10982": 140,
        "10983": 170,
        "10984": 72,
        "10985": 60,
        "10986": 65,
        "10987": 19,
        "10988": 241,
        "10989": 102,
        "10990": 54,
        "10991": 145,
        "10992": 91,
        "10993": 158,
        "10994": 54,
        "10995": 230,
        "10996": 255,
        "10997": 56,
        "10998": 154,
        "10999": 24,
        "11000": 250,
        "11001": 218,
        "11002": 175,
        "11003": 101,
        "11004": 127,
        "11005": 167,
        "11006": 55,
        "11007": 128,
        "11008": 145,
        "11009": 35,
        "11010": 74,
        "11011": 219,
        "11012": 70,
        "11013": 100,
        "11014": 153,
        "11015": 172,
        "11016": 37,
        "11017": 115,
        "11018": 156,
        "11019": 244,
        "11020": 240,
        "11021": 241,
        "11022": 106,
        "11023": 81,
        "11024": 162,
        "11025": 38,
        "11026": 101,
        "11027": 151,
        "11028": 120,
        "11029": 185,
        "11030": 111,
        "11031": 28,
        "11032": 14,
        "11033": 80,
        "11034": 182,
        "11035": 33,
        "11036": 248,
        "11037": 155,
        "11038": 189,
        "11039": 66,
        "11040": 30,
        "11041": 153,
        "11042": 119,
        "11043": 61,
        "11044": 53,
        "11045": 105,
        "11046": 55,
        "11047": 178,
        "11048": 0,
        "11049": 228,
        "11050": 199,
        "11051": 152,
        "11052": 115,
        "11053": 227,
        "11054": 227,
        "11055": 140,
        "11056": 173,
        "11057": 4,
        "11058": 93,
        "11059": 91,
        "11060": 21,
        "11061": 220,
        "11062": 43,
        "11063": 99,
        "11064": 19,
        "11065": 45,
        "11066": 59,
        "11067": 43,
        "11068": 4,
        "11069": 194,
        "11070": 192,
        "11071": 7,
        "11072": 56,
        "11073": 56,
        "11074": 13,
        "11075": 168,
        "11076": 81,
        "11077": 181,
        "11078": 243,
        "11079": 22,
        "11080": 55,
        "11081": 50,
        "11082": 37,
        "11083": 237,
        "11084": 26,
        "11085": 38,
        "11086": 150,
        "11087": 250,
        "11088": 200,
        "11089": 139,
        "11090": 129,
        "11091": 41,
        "11092": 71,
        "11093": 239,
        "11094": 185,
        "11095": 152,
        "11096": 79,
        "11097": 122,
        "11098": 205,
        "11099": 175,
        "11100": 42,
        "11101": 63,
        "11102": 81,
        "11103": 59,
        "11104": 33,
        "11105": 255,
        "11106": 190,
        "11107": 140,
        "11108": 14,
        "11109": 196,
        "11110": 47,
        "11111": 164,
        "11112": 230,
        "11113": 211,
        "11114": 70,
        "11115": 97,
        "11116": 53,
        "11117": 255,
        "11118": 253,
        "11119": 148,
        "11120": 217,
        "11121": 116,
        "11122": 120,
        "11123": 183,
        "11124": 1,
        "11125": 159,
        "11126": 217,
        "11127": 194,
        "11128": 208,
        "11129": 12,
        "11130": 203,
        "11131": 85,
        "11132": 114,
        "11133": 67,
        "11134": 113,
        "11135": 85,
        "11136": 1,
        "11137": 101,
        "11138": 57,
        "11139": 148,
        "11140": 129,
        "11141": 89,
        "11142": 1,
        "11143": 118,
        "11144": 255,
        "11145": 40,
        "11146": 23,
        "11147": 201,
        "11148": 59,
        "11149": 79,
        "11150": 52,
        "11151": 40,
        "11152": 136,
        "11153": 193,
        "11154": 227,
        "11155": 224,
        "11156": 10,
        "11157": 54,
        "11158": 250,
        "11159": 104,
        "11160": 3,
        "11161": 232,
        "11162": 210,
        "11163": 175,
        "11164": 23,
        "11165": 0,
        "11166": 165,
        "11167": 139,
        "11168": 10,
        "11169": 4,
        "11170": 151,
        "11171": 143,
        "11172": 150,
        "11173": 44,
        "11174": 162,
        "11175": 184,
        "11176": 131,
        "11177": 37,
        "11178": 90,
        "11179": 109,
        "11180": 201,
        "11181": 156,
        "11182": 213,
        "11183": 127,
        "11184": 129,
        "11185": 145,
        "11186": 224,
        "11187": 29,
        "11188": 66,
        "11189": 129,
        "11190": 250,
        "11191": 91,
        "11192": 127,
        "11193": 96,
        "11194": 62,
        "11195": 246,
        "11196": 237,
        "11197": 174,
        "11198": 131,
        "11199": 236,
        "11200": 131,
        "11201": 57,
        "11202": 24,
        "11203": 0,
        "11204": 53,
        "11205": 220,
        "11206": 238,
        "11207": 170,
        "11208": 30,
        "11209": 79,
        "11210": 92,
        "11211": 210,
        "11212": 68,
        "11213": 28,
        "11214": 234,
        "11215": 22,
        "11216": 228,
        "11217": 88,
        "11218": 105,
        "11219": 46,
        "11220": 60,
        "11221": 107,
        "11222": 217,
        "11223": 100,
        "11224": 203,
        "11225": 33,
        "11226": 183,
        "11227": 59,
        "11228": 27,
        "11229": 202,
        "11230": 29,
        "11231": 238,
        "11232": 95,
        "11233": 191,
        "11234": 130,
        "11235": 172,
        "11236": 102,
        "11237": 3,
        "11238": 18,
        "11239": 154,
        "11240": 242,
        "11241": 6,
        "11242": 248,
        "11243": 172,
        "11244": 19,
        "11245": 154,
        "11246": 8,
        "11247": 223,
        "11248": 175,
        "11249": 2,
        "11250": 179,
        "11251": 191,
        "11252": 234,
        "11253": 114,
        "11254": 41,
        "11255": 10,
        "11256": 183,
        "11257": 205,
        "11258": 254,
        "11259": 155,
        "11260": 184,
        "11261": 62,
        "11262": 246,
        "11263": 159,
        "11264": 39,
        "11265": 38,
        "11266": 117,
        "11267": 63,
        "11268": 230,
        "11269": 41,
        "11270": 6,
        "11271": 171,
        "11272": 123,
        "11273": 157,
        "11274": 221,
        "11275": 183,
        "11276": 252,
        "11277": 162,
        "11278": 206,
        "11279": 58,
        "11280": 50,
        "11281": 49,
        "11282": 221,
        "11283": 104,
        "11284": 175,
        "11285": 205,
        "11286": 37,
        "11287": 183,
        "11288": 255,
        "11289": 170,
        "11290": 123,
        "11291": 70,
        "11292": 104,
        "11293": 67,
        "11294": 142,
        "11295": 175,
        "11296": 161,
        "11297": 112,
        "11298": 148,
        "11299": 120,
        "11300": 249,
        "11301": 137,
        "11302": 182,
        "11303": 40,
        "11304": 226,
        "11305": 158,
        "11306": 177,
        "11307": 143,
        "11308": 203,
        "11309": 129,
        "11310": 73,
        "11311": 126,
        "11312": 179,
        "11313": 143,
        "11314": 228,
        "11315": 84,
        "11316": 232,
        "11317": 31,
        "11318": 221,
        "11319": 15,
        "11320": 68,
        "11321": 203,
        "11322": 190,
        "11323": 202,
        "11324": 93,
        "11325": 144,
        "11326": 251,
        "11327": 91,
        "11328": 84,
        "11329": 185,
        "11330": 56,
        "11331": 152,
        "11332": 127,
        "11333": 103,
        "11334": 228,
        "11335": 56,
        "11336": 233,
        "11337": 23,
        "11338": 0,
        "11339": 217,
        "11340": 102,
        "11341": 101,
        "11342": 73,
        "11343": 77,
        "11344": 32,
        "11345": 187,
        "11346": 85,
        "11347": 233,
        "11348": 75,
        "11349": 4,
        "11350": 234,
        "11351": 171,
        "11352": 107,
        "11353": 226,
        "11354": 56,
        "11355": 32,
        "11356": 215,
        "11357": 135,
        "11358": 80,
        "11359": 9,
        "11360": 241,
        "11361": 244,
        "11362": 237,
        "11363": 216,
        "11364": 3,
        "11365": 22,
        "11366": 180,
        "11367": 90,
        "11368": 182,
        "11369": 135,
        "11370": 31,
        "11371": 77,
        "11372": 35,
        "11373": 156,
        "11374": 237,
        "11375": 2,
        "11376": 128,
        "11377": 9,
        "11378": 89,
        "11379": 22,
        "11380": 54,
        "11381": 103,
        "11382": 214,
        "11383": 1,
        "11384": 131,
        "11385": 243,
        "11386": 247,
        "11387": 42,
        "11388": 112,
        "11389": 229,
        "11390": 204,
        "11391": 160,
        "11392": 163,
        "11393": 186,
        "11394": 46,
        "11395": 141,
        "11396": 124,
        "11397": 74,
        "11398": 232,
        "11399": 214,
        "11400": 72,
        "11401": 68,
        "11402": 17,
        "11403": 156,
        "11404": 193,
        "11405": 3,
        "11406": 250,
        "11407": 23,
        "11408": 212,
        "11409": 255,
        "11410": 69,
        "11411": 19,
        "11412": 209,
        "11413": 181,
        "11414": 99,
        "11415": 71,
        "11416": 169,
        "11417": 159,
        "11418": 196,
        "11419": 26,
        "11420": 222,
        "11421": 218,
        "11422": 163,
        "11423": 232,
        "11424": 126,
        "11425": 179,
        "11426": 250,
        "11427": 248,
        "11428": 182,
        "11429": 119,
        "11430": 181,
        "11431": 151,
        "11432": 137,
        "11433": 189,
        "11434": 148,
        "11435": 211,
        "11436": 203,
        "11437": 131,
        "11438": 8,
        "11439": 215,
        "11440": 81,
        "11441": 73,
        "11442": 49,
        "11443": 109,
        "11444": 70,
        "11445": 206,
        "11446": 241,
        "11447": 59,
        "11448": 248,
        "11449": 52,
        "11450": 173,
        "11451": 52,
        "11452": 154,
        "11453": 247,
        "11454": 173,
        "11455": 99,
        "11456": 201,
        "11457": 180,
        "11458": 246,
        "11459": 222,
        "11460": 212,
        "11461": 242,
        "11462": 73,
        "11463": 254,
        "11464": 41,
        "11465": 198,
        "11466": 161,
        "11467": 172,
        "11468": 167,
        "11469": 217,
        "11470": 48,
        "11471": 227,
        "11472": 14,
        "11473": 55,
        "11474": 27,
        "11475": 194,
        "11476": 226,
        "11477": 131,
        "11478": 205,
        "11479": 182,
        "11480": 254,
        "11481": 60,
        "11482": 101,
        "11483": 160,
        "11484": 66,
        "11485": 131,
        "11486": 211,
        "11487": 235,
        "11488": 222,
        "11489": 105,
        "11490": 81,
        "11491": 3,
        "11492": 172,
        "11493": 231,
        "11494": 71,
        "11495": 174,
        "11496": 231,
        "11497": 14,
        "11498": 124,
        "11499": 35,
        "11500": 217,
        "11501": 190,
        "11502": 61,
        "11503": 10,
        "11504": 84,
        "11505": 19,
        "11506": 144,
        "11507": 43,
        "11508": 63,
        "11509": 60,
        "11510": 6,
        "11511": 11,
        "11512": 216,
        "11513": 186,
        "11514": 162,
        "11515": 165,
        "11516": 108,
        "11517": 99,
        "11518": 246,
        "11519": 176,
        "11520": 62,
        "11521": 68,
        "11522": 169,
        "11523": 31,
        "11524": 154,
        "11525": 36,
        "11526": 179,
        "11527": 190,
        "11528": 111,
        "11529": 25,
        "11530": 10,
        "11531": 94,
        "11532": 136,
        "11533": 169,
        "11534": 2,
        "11535": 101,
        "11536": 44,
        "11537": 189,
        "11538": 34,
        "11539": 21,
        "11540": 232,
        "11541": 235,
        "11542": 110,
        "11543": 170,
        "11544": 152,
        "11545": 96,
        "11546": 185,
        "11547": 49,
        "11548": 246,
        "11549": 97,
        "11550": 156,
        "11551": 9,
        "11552": 131,
        "11553": 46,
        "11554": 143,
        "11555": 25,
        "11556": 70,
        "11557": 150,
        "11558": 145,
        "11559": 252,
        "11560": 79,
        "11561": 237,
        "11562": 110,
        "11563": 198,
        "11564": 129,
        "11565": 159,
        "11566": 52,
        "11567": 151,
        "11568": 171,
        "11569": 217,
        "11570": 249,
        "11571": 227,
        "11572": 144,
        "11573": 74,
        "11574": 200,
        "11575": 2,
        "11576": 117,
        "11577": 222,
        "11578": 40,
        "11579": 120,
        "11580": 16,
        "11581": 206,
        "11582": 97,
        "11583": 119,
        "11584": 150,
        "11585": 3,
        "11586": 163,
        "11587": 75,
        "11588": 34,
        "11589": 131,
        "11590": 211,
        "11591": 48,
        "11592": 171,
        "11593": 114,
        "11594": 217,
        "11595": 83,
        "11596": 70,
        "11597": 22,
        "11598": 113,
        "11599": 198,
        "11600": 33,
        "11601": 73,
        "11602": 136,
        "11603": 82,
        "11604": 77,
        "11605": 220,
        "11606": 120,
        "11607": 246,
        "11608": 1,
        "11609": 29,
        "11610": 118,
        "11611": 133,
        "11612": 8,
        "11613": 113,
        "11614": 112,
        "11615": 1,
        "11616": 25,
        "11617": 151,
        "11618": 74,
        "11619": 147,
        "11620": 76,
        "11621": 73,
        "11622": 172,
        "11623": 247,
        "11624": 66,
        "11625": 216,
        "11626": 201,
        "11627": 0,
        "11628": 210,
        "11629": 55,
        "11630": 61,
        "11631": 59,
        "11632": 132,
        "11633": 74,
        "11634": 243,
        "11635": 41,
        "11636": 102,
        "11637": 69,
        "11638": 243,
        "11639": 43,
        "11640": 5,
        "11641": 28,
        "11642": 192,
        "11643": 191,
        "11644": 182,
        "11645": 164,
        "11646": 92,
        "11647": 86,
        "11648": 121,
        "11649": 46,
        "11650": 148,
        "11651": 116,
        "11652": 90,
        "11653": 148,
        "11654": 252,
        "11655": 1,
        "11656": 175,
        "11657": 231,
        "11658": 160,
        "11659": 149,
        "11660": 181,
        "11661": 127,
        "11662": 91,
        "11663": 212,
        "11664": 54,
        "11665": 120,
        "11666": 182,
        "11667": 5,
        "11668": 165,
        "11669": 127,
        "11670": 71,
        "11671": 128,
        "11672": 181,
        "11673": 34,
        "11674": 20,
        "11675": 146,
        "11676": 189,
        "11677": 166,
        "11678": 79,
        "11679": 221,
        "11680": 150,
        "11681": 186,
        "11682": 140,
        "11683": 117,
        "11684": 125,
        "11685": 176,
        "11686": 105,
        "11687": 208,
        "11688": 206,
        "11689": 162,
        "11690": 4,
        "11691": 118,
        "11692": 48,
        "11693": 163,
        "11694": 46,
        "11695": 242,
        "11696": 58,
        "11697": 233,
        "11698": 153,
        "11699": 163,
        "11700": 195,
        "11701": 110,
        "11702": 132,
        "11703": 242,
        "11704": 186,
        "11705": 104,
        "11706": 139,
        "11707": 42,
        "11708": 200,
        "11709": 224,
        "11710": 146,
        "11711": 158,
        "11712": 100,
        "11713": 0,
        "11714": 232,
        "11715": 79,
        "11716": 11,
        "11717": 147,
        "11718": 238,
        "11719": 176,
        "11720": 146,
        "11721": 102,
        "11722": 10,
        "11723": 101,
        "11724": 203,
        "11725": 106,
        "11726": 64,
        "11727": 151,
        "11728": 158,
        "11729": 96,
        "11730": 98,
        "11731": 194,
        "11732": 66,
        "11733": 59,
        "11734": 69,
        "11735": 241,
        "11736": 163,
        "11737": 21,
        "11738": 45,
        "11739": 153,
        "11740": 251,
        "11741": 90,
        "11742": 143,
        "11743": 14,
        "11744": 111,
        "11745": 55,
        "11746": 48,
        "11747": 11,
        "11748": 186,
        "11749": 179,
        "11750": 230,
        "11751": 73,
        "11752": 243,
        "11753": 75,
        "11754": 103,
        "11755": 242,
        "11756": 247,
        "11757": 3,
        "11758": 73,
        "11759": 200,
        "11760": 15,
        "11761": 133,
        "11762": 60,
        "11763": 71,
        "11764": 177,
        "11765": 99,
        "11766": 33,
        "11767": 150,
        "11768": 239,
        "11769": 36,
        "11770": 18,
        "11771": 33,
        "11772": 167,
        "11773": 122,
        "11774": 34,
        "11775": 218,
        "11776": 183,
        "11777": 74,
        "11778": 221,
        "11779": 253,
        "11780": 130,
        "11781": 13,
        "11782": 3,
        "11783": 126,
        "11784": 48,
        "11785": 178,
        "11786": 214,
        "11787": 139,
        "11788": 104,
        "11789": 179,
        "11790": 177,
        "11791": 155,
        "11792": 155,
        "11793": 37,
        "11794": 141,
        "11795": 143,
        "11796": 152,
        "11797": 212,
        "11798": 4,
        "11799": 12,
        "11800": 97,
        "11801": 46,
        "11802": 170,
        "11803": 164,
        "11804": 247,
        "11805": 249,
        "11806": 55,
        "11807": 218,
        "11808": 130,
        "11809": 205,
        "11810": 174,
        "11811": 191,
        "11812": 244,
        "11813": 217,
        "11814": 221,
        "11815": 182,
        "11816": 98,
        "11817": 255,
        "11818": 207,
        "11819": 213,
        "11820": 220,
        "11821": 113,
        "11822": 175,
        "11823": 65,
        "11824": 19,
        "11825": 7,
        "11826": 247,
        "11827": 34,
        "11828": 211,
        "11829": 59,
        "11830": 246,
        "11831": 133,
        "11832": 200,
        "11833": 105,
        "11834": 74,
        "11835": 61,
        "11836": 249,
        "11837": 75,
        "11838": 83,
        "11839": 24,
        "11840": 62,
        "11841": 188,
        "11842": 130,
        "11843": 24,
        "11844": 151,
        "11845": 233,
        "11846": 250,
        "11847": 0,
        "11848": 114,
        "11849": 172,
        "11850": 153,
        "11851": 101,
        "11852": 75,
        "11853": 255,
        "11854": 255,
        "11855": 54,
        "11856": 94,
        "11857": 39,
        "11858": 37,
        "11859": 119,
        "11860": 44,
        "11861": 119,
        "11862": 125,
        "11863": 36,
        "11864": 108,
        "11865": 221,
        "11866": 245,
        "11867": 91,
        "11868": 122,
        "11869": 187,
        "11870": 246,
        "11871": 4,
        "11872": 113,
        "11873": 238,
        "11874": 243,
        "11875": 57,
        "11876": 215,
        "11877": 178,
        "11878": 220,
        "11879": 246,
        "11880": 40,
        "11881": 200,
        "11882": 247,
        "11883": 91,
        "11884": 51,
        "11885": 126,
        "11886": 159,
        "11887": 86,
        "11888": 47,
        "11889": 129,
        "11890": 95,
        "11891": 9,
        "11892": 157,
        "11893": 3,
        "11894": 134,
        "11895": 106,
        "11896": 94,
        "11897": 134,
        "11898": 235,
        "11899": 245,
        "11900": 82,
        "11901": 152,
        "11902": 187,
        "11903": 228,
        "11904": 115,
        "11905": 136,
        "11906": 67,
        "11907": 43,
        "11908": 153,
        "11909": 91,
        "11910": 193,
        "11911": 74,
        "11912": 144,
        "11913": 95,
        "11914": 250,
        "11915": 182,
        "11916": 56,
        "11917": 54,
        "11918": 234,
        "11919": 34,
        "11920": 184,
        "11921": 144,
        "11922": 240,
        "11923": 119,
        "11924": 134,
        "11925": 78,
        "11926": 114,
        "11927": 183,
        "11928": 94,
        "11929": 40,
        "11930": 101,
        "11931": 135,
        "11932": 229,
        "11933": 153,
        "11934": 30,
        "11935": 75,
        "11936": 20,
        "11937": 43,
        "11938": 152,
        "11939": 78,
        "11940": 129,
        "11941": 7,
        "11942": 195,
        "11943": 241,
        "11944": 139,
        "11945": 125,
        "11946": 110,
        "11947": 183,
        "11948": 145,
        "11949": 156,
        "11950": 102,
        "11951": 186,
        "11952": 11,
        "11953": 209,
        "11954": 121,
        "11955": 94,
        "11956": 3,
        "11957": 243,
        "11958": 108,
        "11959": 68,
        "11960": 91,
        "11961": 215,
        "11962": 99,
        "11963": 58,
        "11964": 17,
        "11965": 10,
        "11966": 80,
        "11967": 54,
        "11968": 223,
        "11969": 241,
        "11970": 242,
        "11971": 208,
        "11972": 83,
        "11973": 14,
        "11974": 155,
        "11975": 120,
        "11976": 142,
        "11977": 251,
        "11978": 197,
        "11979": 223,
        "11980": 182,
        "11981": 75,
        "11982": 95,
        "11983": 205,
        "11984": 166,
        "11985": 240,
        "11986": 50,
        "11987": 140,
        "11988": 54,
        "11989": 117,
        "11990": 33,
        "11991": 179,
        "11992": 149,
        "11993": 108,
        "11994": 211,
        "11995": 229,
        "11996": 34,
        "11997": 23,
        "11998": 138,
        "11999": 87,
        "12000": 10,
        "12001": 213,
        "12002": 42,
        "12003": 87,
        "12004": 42,
        "12005": 40,
        "12006": 128,
        "12007": 207,
        "12008": 40,
        "12009": 96,
        "12010": 184,
        "12011": 188,
        "12012": 235,
        "12013": 95,
        "12014": 230,
        "12015": 45,
        "12016": 41,
        "12017": 242,
        "12018": 230,
        "12019": 31,
        "12020": 15,
        "12021": 176,
        "12022": 204,
        "12023": 85,
        "12024": 169,
        "12025": 242,
        "12026": 168,
        "12027": 135,
        "12028": 63,
        "12029": 11,
        "12030": 145,
        "12031": 39,
        "12032": 172,
        "12033": 183,
        "12034": 64,
        "12035": 90,
        "12036": 79,
        "12037": 255,
        "12038": 55,
        "12039": 136,
        "12040": 178,
        "12041": 54,
        "12042": 161,
        "12043": 245,
        "12044": 253,
        "12045": 162,
        "12046": 169,
        "12047": 75,
        "12048": 188,
        "12049": 155,
        "12050": 118,
        "12051": 213,
        "12052": 44,
        "12053": 182,
        "12054": 128,
        "12055": 180,
        "12056": 155,
        "12057": 175,
        "12058": 142,
        "12059": 229,
        "12060": 14,
        "12061": 25,
        "12062": 30,
        "12063": 143,
        "12064": 109,
        "12065": 198,
        "12066": 72,
        "12067": 35,
        "12068": 131,
        "12069": 174,
        "12070": 160,
        "12071": 250,
        "12072": 47,
        "12073": 165,
        "12074": 40,
        "12075": 5,
        "12076": 194,
        "12077": 61,
        "12078": 231,
        "12079": 214,
        "12080": 248,
        "12081": 233,
        "12082": 141,
        "12083": 217,
        "12084": 12,
        "12085": 246,
        "12086": 74,
        "12087": 109,
        "12088": 27,
        "12089": 172,
        "12090": 92,
        "12091": 146,
        "12092": 4,
        "12093": 81,
        "12094": 253,
        "12095": 76,
        "12096": 218,
        "12097": 34,
        "12098": 97,
        "12099": 61,
        "12100": 190,
        "12101": 228,
        "12102": 71,
        "12103": 130,
        "12104": 120,
        "12105": 41,
        "12106": 10,
        "12107": 27,
        "12108": 245,
        "12109": 235,
        "12110": 53,
        "12111": 119,
        "12112": 173,
        "12113": 215,
        "12114": 170,
        "12115": 88,
        "12116": 142,
        "12117": 48,
        "12118": 51,
        "12119": 127,
        "12120": 30,
        "12121": 43,
        "12122": 69,
        "12123": 139,
        "12124": 81,
        "12125": 111,
        "12126": 166,
        "12127": 160,
        "12128": 201,
        "12129": 161,
        "12130": 183,
        "12131": 115,
        "12132": 23,
        "12133": 70,
        "12134": 144,
        "12135": 140,
        "12136": 152,
        "12137": 59,
        "12138": 246,
        "12139": 228,
        "12140": 206,
        "12141": 134,
        "12142": 107,
        "12143": 173,
        "12144": 57,
        "12145": 27,
        "12146": 90,
        "12147": 95,
        "12148": 119,
        "12149": 175,
        "12150": 5,
        "12151": 239,
        "12152": 157,
        "12153": 48,
        "12154": 15,
        "12155": 186,
        "12156": 227,
        "12157": 184,
        "12158": 154,
        "12159": 27,
        "12160": 69,
        "12161": 64,
        "12162": 35,
        "12163": 134,
        "12164": 161,
        "12165": 138,
        "12166": 203,
        "12167": 143,
        "12168": 138,
        "12169": 71,
        "12170": 34,
        "12171": 200,
        "12172": 158,
        "12173": 220,
        "12174": 92,
        "12175": 80,
        "12176": 251,
        "12177": 101,
        "12178": 72,
        "12179": 190,
        "12180": 130,
        "12181": 84,
        "12182": 72,
        "12183": 179,
        "12184": 126,
        "12185": 166,
        "12186": 234,
        "12187": 173,
        "12188": 185,
        "12189": 208,
        "12190": 243,
        "12191": 68,
        "12192": 112,
        "12193": 130,
        "12194": 155,
        "12195": 46,
        "12196": 124,
        "12197": 92,
        "12198": 98,
        "12199": 88,
        "12200": 222,
        "12201": 33,
        "12202": 94,
        "12203": 31,
        "12204": 141,
        "12205": 188,
        "12206": 186,
        "12207": 159,
        "12208": 146,
        "12209": 59,
        "12210": 151,
        "12211": 53,
        "12212": 2,
        "12213": 151,
        "12214": 32,
        "12215": 185,
        "12216": 43,
        "12217": 127,
        "12218": 96,
        "12219": 81,
        "12220": 218,
        "12221": 19,
        "12222": 71,
        "12223": 179,
        "12224": 82,
        "12225": 88,
        "12226": 76,
        "12227": 204,
        "12228": 238,
        "12229": 45,
        "12230": 46,
        "12231": 214,
        "12232": 61,
        "12233": 140,
        "12234": 60,
        "12235": 92,
        "12236": 86,
        "12237": 170,
        "12238": 222,
        "12239": 166,
        "12240": 81,
        "12241": 254,
        "12242": 97,
        "12243": 161,
        "12244": 69,
        "12245": 235,
        "12246": 46,
        "12247": 192,
        "12248": 117,
        "12249": 136,
        "12250": 163,
        "12251": 185,
        "12252": 41,
        "12253": 252,
        "12254": 35,
        "12255": 21,
        "12256": 171,
        "12257": 14,
        "12258": 155,
        "12259": 105,
        "12260": 85,
        "12261": 217,
        "12262": 18,
        "12263": 240,
        "12264": 33,
        "12265": 66,
        "12266": 112,
        "12267": 56,
        "12268": 188,
        "12269": 193,
        "12270": 160,
        "12271": 70,
        "12272": 25,
        "12273": 115,
        "12274": 64,
        "12275": 204,
        "12276": 40,
        "12277": 247,
        "12278": 27,
        "12279": 15,
        "12280": 229,
        "12281": 32,
        "12282": 43,
        "12283": 251,
        "12284": 77,
        "12285": 107,
        "12286": 121,
        "12287": 91,
        "12288": 171,
        "12289": 116,
        "12290": 21,
        "12291": 238,
        "12292": 25,
        "12293": 66,
        "12294": 121,
        "12295": 117,
        "12296": 92,
        "12297": 123,
        "12298": 62,
        "12299": 174,
        "12300": 37,
        "12301": 241,
        "12302": 139,
        "12303": 128,
        "12304": 28,
        "12305": 153,
        "12306": 97,
        "12307": 151,
        "12308": 250,
        "12309": 132,
        "12310": 40,
        "12311": 163,
        "12312": 89,
        "12313": 153,
        "12314": 205,
        "12315": 52,
        "12316": 73,
        "12317": 180,
        "12318": 68,
        "12319": 223,
        "12320": 210,
        "12321": 73,
        "12322": 231,
        "12323": 37,
        "12324": 221,
        "12325": 69,
        "12326": 241,
        "12327": 81,
        "12328": 10,
        "12329": 153,
        "12330": 5,
        "12331": 118,
        "12332": 181,
        "12333": 56,
        "12334": 198,
        "12335": 176,
        "12336": 246,
        "12337": 210,
        "12338": 1,
        "12339": 104,
        "12340": 88,
        "12341": 182,
        "12342": 114,
        "12343": 7,
        "12344": 112,
        "12345": 158,
        "12346": 76,
        "12347": 216,
        "12348": 110,
        "12349": 192,
        "12350": 9,
        "12351": 3,
        "12352": 186,
        "12353": 64,
        "12354": 190,
        "12355": 49,
        "12356": 217,
        "12357": 94,
        "12358": 157,
        "12359": 11,
        "12360": 29,
        "12361": 60,
        "12362": 142,
        "12363": 127,
        "12364": 208,
        "12365": 192,
        "12366": 31,
        "12367": 157,
        "12368": 60,
        "12369": 223,
        "12370": 221,
        "12371": 211,
        "12372": 151,
        "12373": 127,
        "12374": 122,
        "12375": 103,
        "12376": 80,
        "12377": 167,
        "12378": 134,
        "12379": 30,
        "12380": 184,
        "12381": 226,
        "12382": 187,
        "12383": 135,
        "12384": 199,
        "12385": 122,
        "12386": 142,
        "12387": 100,
        "12388": 144,
        "12389": 160,
        "12390": 19,
        "12391": 151,
        "12392": 140,
        "12393": 231,
        "12394": 110,
        "12395": 194,
        "12396": 93,
        "12397": 83,
        "12398": 230,
        "12399": 16,
        "12400": 180,
        "12401": 35,
        "12402": 227,
        "12403": 70,
        "12404": 8,
        "12405": 53,
        "12406": 19,
        "12407": 183,
        "12408": 122,
        "12409": 239,
        "12410": 1,
        "12411": 72,
        "12412": 181,
        "12413": 78,
        "12414": 69,
        "12415": 107,
        "12416": 226,
        "12417": 105,
        "12418": 50,
        "12419": 58,
        "12420": 77,
        "12421": 36,
        "12422": 120,
        "12423": 57,
        "12424": 251,
        "12425": 63,
        "12426": 60,
        "12427": 103,
        "12428": 243,
        "12429": 233,
        "12430": 130,
        "12431": 220,
        "12432": 18,
        "12433": 243,
        "12434": 27,
        "12435": 91,
        "12436": 145,
        "12437": 85,
        "12438": 81,
        "12439": 32,
        "12440": 106,
        "12441": 156,
        "12442": 119,
        "12443": 234,
        "12444": 3,
        "12445": 85,
        "12446": 111,
        "12447": 232,
        "12448": 147,
        "12449": 198,
        "12450": 117,
        "12451": 186,
        "12452": 28,
        "12453": 95,
        "12454": 65,
        "12455": 233,
        "12456": 233,
        "12457": 86,
        "12458": 164,
        "12459": 244,
        "12460": 175,
        "12461": 89,
        "12462": 248,
        "12463": 227,
        "12464": 138,
        "12465": 199,
        "12466": 76,
        "12467": 12,
        "12468": 87,
        "12469": 115,
        "12470": 229,
        "12471": 155,
        "12472": 227,
        "12473": 250,
        "12474": 81,
        "12475": 114,
        "12476": 7,
        "12477": 74,
        "12478": 139,
        "12479": 67,
        "12480": 202,
        "12481": 23,
        "12482": 254,
        "12483": 215,
        "12484": 69,
        "12485": 4,
        "12486": 17,
        "12487": 178,
        "12488": 86,
        "12489": 252,
        "12490": 89,
        "12491": 78,
        "12492": 199,
        "12493": 85,
        "12494": 10,
        "12495": 159,
        "12496": 71,
        "12497": 186,
        "12498": 204,
        "12499": 232,
        "12500": 222,
        "12501": 143,
        "12502": 122,
        "12503": 145,
        "12504": 68,
        "12505": 172,
        "12506": 222,
        "12507": 29,
        "12508": 242,
        "12509": 109,
        "12510": 65,
        "12511": 29,
        "12512": 26,
        "12513": 240,
        "12514": 146,
        "12515": 210,
        "12516": 51,
        "12517": 174,
        "12518": 10,
        "12519": 26,
        "12520": 234,
        "12521": 247,
        "12522": 161,
        "12523": 195,
        "12524": 22,
        "12525": 187,
        "12526": 248,
        "12527": 82,
        "12528": 133,
        "12529": 89,
        "12530": 130,
        "12531": 87,
        "12532": 228,
        "12533": 173,
        "12534": 249,
        "12535": 227,
        "12536": 109,
        "12537": 67,
        "12538": 83,
        "12539": 215,
        "12540": 239,
        "12541": 107,
        "12542": 193,
        "12543": 56,
        "12544": 102,
        "12545": 211,
        "12546": 241,
        "12547": 236,
        "12548": 41,
        "12549": 118,
        "12550": 108,
        "12551": 40,
        "12552": 156,
        "12553": 236,
        "12554": 19,
        "12555": 207,
        "12556": 50,
        "12557": 43,
        "12558": 205,
        "12559": 3,
        "12560": 249,
        "12561": 80,
        "12562": 195,
        "12563": 186,
        "12564": 115,
        "12565": 158,
        "12566": 180,
        "12567": 176,
        "12568": 245,
        "12569": 207,
        "12570": 165,
        "12571": 27,
        "12572": 242,
        "12573": 153,
        "12574": 222,
        "12575": 147,
        "12576": 206,
        "12577": 149,
        "12578": 84,
        "12579": 194,
        "12580": 225,
        "12581": 148,
        "12582": 198,
        "12583": 95,
        "12584": 250,
        "12585": 212,
        "12586": 162,
        "12587": 221,
        "12588": 125,
        "12589": 102,
        "12590": 205,
        "12591": 138,
        "12592": 145,
        "12593": 174,
        "12594": 110,
        "12595": 26,
        "12596": 181,
        "12597": 80,
        "12598": 25,
        "12599": 54,
        "12600": 84,
        "12601": 202,
        "12602": 152,
        "12603": 45,
        "12604": 47,
        "12605": 144,
        "12606": 75,
        "12607": 110,
        "12608": 209,
        "12609": 41,
        "12610": 172,
        "12611": 149,
        "12612": 216,
        "12613": 91,
        "12614": 242,
        "12615": 24,
        "12616": 125,
        "12617": 236,
        "12618": 33,
        "12619": 4,
        "12620": 10,
        "12621": 171,
        "12622": 235,
        "12623": 143,
        "12624": 100,
        "12625": 10,
        "12626": 179,
        "12627": 162,
        "12628": 143,
        "12629": 74,
        "12630": 119,
        "12631": 133,
        "12632": 41,
        "12633": 142,
        "12634": 3,
        "12635": 58,
        "12636": 123,
        "12637": 135,
        "12638": 146,
        "12639": 25,
        "12640": 142,
        "12641": 246,
        "12642": 44,
        "12643": 153,
        "12644": 41,
        "12645": 214,
        "12646": 92,
        "12647": 198,
        "12648": 205,
        "12649": 103,
        "12650": 70,
        "12651": 112,
        "12652": 104,
        "12653": 171,
        "12654": 66,
        "12655": 34,
        "12656": 134,
        "12657": 7,
        "12658": 41,
        "12659": 252,
        "12660": 212,
        "12661": 165,
        "12662": 61,
        "12663": 41,
        "12664": 248,
        "12665": 88,
        "12666": 237,
        "12667": 250,
        "12668": 11,
        "12669": 255,
        "12670": 36,
        "12671": 30,
        "12672": 2,
        "12673": 6,
        "12674": 79,
        "12675": 177,
        "12676": 239,
        "12677": 3,
        "12678": 61,
        "12679": 7,
        "12680": 38,
        "12681": 53,
        "12682": 226,
        "12683": 36,
        "12684": 201,
        "12685": 22,
        "12686": 35,
        "12687": 7,
        "12688": 33,
        "12689": 222,
        "12690": 248,
        "12691": 173,
        "12692": 152,
        "12693": 17,
        "12694": 132,
        "12695": 122,
        "12696": 150,
        "12697": 92,
        "12698": 16,
        "12699": 85,
        "12700": 238,
        "12701": 113,
        "12702": 56,
        "12703": 111,
        "12704": 241,
        "12705": 154,
        "12706": 168,
        "12707": 152,
        "12708": 177,
        "12709": 96,
        "12710": 81,
        "12711": 73,
        "12712": 61,
        "12713": 82,
        "12714": 11,
        "12715": 253,
        "12716": 251,
        "12717": 180,
        "12718": 73,
        "12719": 112,
        "12720": 74,
        "12721": 125,
        "12722": 227,
        "12723": 221,
        "12724": 119,
        "12725": 38,
        "12726": 219,
        "12727": 129,
        "12728": 62,
        "12729": 213,
        "12730": 49,
        "12731": 200,
        "12732": 229,
        "12733": 59,
        "12734": 237,
        "12735": 135,
        "12736": 90,
        "12737": 175,
        "12738": 61,
        "12739": 22,
        "12740": 138,
        "12741": 169,
        "12742": 215,
        "12743": 205,
        "12744": 254,
        "12745": 82,
        "12746": 145,
        "12747": 243,
        "12748": 16,
        "12749": 220,
        "12750": 46,
        "12751": 247,
        "12752": 154,
        "12753": 107,
        "12754": 214,
        "12755": 131,
        "12756": 93,
        "12757": 255,
        "12758": 92,
        "12759": 132,
        "12760": 52,
        "12761": 88,
        "12762": 16,
        "12763": 8,
        "12764": 107,
        "12765": 72,
        "12766": 194,
        "12767": 148,
        "12768": 223,
        "12769": 46,
        "12770": 104,
        "12771": 34,
        "12772": 99,
        "12773": 196,
        "12774": 143,
        "12775": 178,
        "12776": 154,
        "12777": 216,
        "12778": 122,
        "12779": 247,
        "12780": 50,
        "12781": 112,
        "12782": 1,
        "12783": 27,
        "12784": 181,
        "12785": 49,
        "12786": 63,
        "12787": 30,
        "12788": 223,
        "12789": 219,
        "12790": 86,
        "12791": 45,
        "12792": 153,
        "12793": 59,
        "12794": 189,
        "12795": 49,
        "12796": 131,
        "12797": 226,
        "12798": 15,
        "12799": 211,
        "12800": 147,
        "12801": 224,
        "12802": 102,
        "12803": 161,
        "12804": 171,
        "12805": 218,
        "12806": 14,
        "12807": 31,
        "12808": 153,
        "12809": 41,
        "12810": 76,
        "12811": 210,
        "12812": 28,
        "12813": 131,
        "12814": 167,
        "12815": 74,
        "12816": 17,
        "12817": 151,
        "12818": 198,
        "12819": 16,
        "12820": 34,
        "12821": 158,
        "12822": 90,
        "12823": 144,
        "12824": 105,
        "12825": 231,
        "12826": 247,
        "12827": 243,
        "12828": 68,
        "12829": 253,
        "12830": 155,
        "12831": 196,
        "12832": 142,
        "12833": 94,
        "12834": 118,
        "12835": 237,
        "12836": 72,
        "12837": 71,
        "12838": 212,
        "12839": 124,
        "12840": 18,
        "12841": 212,
        "12842": 79,
        "12843": 113,
        "12844": 224,
        "12845": 8,
        "12846": 158,
        "12847": 242,
        "12848": 69,
        "12849": 95,
        "12850": 244,
        "12851": 107,
        "12852": 215,
        "12853": 131,
        "12854": 0,
        "12855": 145,
        "12856": 23,
        "12857": 11,
        "12858": 44,
        "12859": 210,
        "12860": 99,
        "12861": 239,
        "12862": 191,
        "12863": 216,
        "12864": 76,
        "12865": 13,
        "12866": 137,
        "12867": 218,
        "12868": 180,
        "12869": 126,
        "12870": 248,
        "12871": 110,
        "12872": 125,
        "12873": 184,
        "12874": 120,
        "12875": 71,
        "12876": 183,
        "12877": 180,
        "12878": 177,
        "12879": 220,
        "12880": 157,
        "12881": 158,
        "12882": 167,
        "12883": 27,
        "12884": 86,
        "12885": 100,
        "12886": 190,
        "12887": 238,
        "12888": 133,
        "12889": 96,
        "12890": 154,
        "12891": 38,
        "12892": 192,
        "12893": 32,
        "12894": 79,
        "12895": 169,
        "12896": 27,
        "12897": 45,
        "12898": 207,
        "12899": 107,
        "12900": 166,
        "12901": 128,
        "12902": 185,
        "12903": 225,
        "12904": 39,
        "12905": 72,
        "12906": 2,
        "12907": 168,
        "12908": 16,
        "12909": 207,
        "12910": 82,
        "12911": 228,
        "12912": 229,
        "12913": 14,
        "12914": 22,
        "12915": 150,
        "12916": 99,
        "12917": 251,
        "12918": 212,
        "12919": 201,
        "12920": 133,
        "12921": 234,
        "12922": 100,
        "12923": 189,
        "12924": 175,
        "12925": 129,
        "12926": 52,
        "12927": 54,
        "12928": 8,
        "12929": 67,
        "12930": 58,
        "12931": 21,
        "12932": 144,
        "12933": 151,
        "12934": 250,
        "12935": 42,
        "12936": 152,
        "12937": 9,
        "12938": 27,
        "12939": 9,
        "12940": 124,
        "12941": 173,
        "12942": 7,
        "12943": 150,
        "12944": 151,
        "12945": 161,
        "12946": 76,
        "12947": 196,
        "12948": 80,
        "12949": 53,
        "12950": 143,
        "12951": 191,
        "12952": 216,
        "12953": 168,
        "12954": 42,
        "12955": 138,
        "12956": 68,
        "12957": 209,
        "12958": 122,
        "12959": 59,
        "12960": 228,
        "12961": 26,
        "12962": 137,
        "12963": 192,
        "12964": 139,
        "12965": 21,
        "12966": 21,
        "12967": 56,
        "12968": 252,
        "12969": 126,
        "12970": 134,
        "12971": 127,
        "12972": 254,
        "12973": 219,
        "12974": 241,
        "12975": 71,
        "12976": 159,
        "12977": 94,
        "12978": 196,
        "12979": 10,
        "12980": 178,
        "12981": 253,
        "12982": 79,
        "12983": 50,
        "12984": 152,
        "12985": 130,
        "12986": 156,
        "12987": 80,
        "12988": 87,
        "12989": 188,
        "12990": 176,
        "12991": 121,
        "12992": 102,
        "12993": 135,
        "12994": 87,
        "12995": 194,
        "12996": 1,
        "12997": 112,
        "12998": 230,
        "12999": 198,
        "13000": 179,
        "13001": 254,
        "13002": 99,
        "13003": 192,
        "13004": 45,
        "13005": 213,
        "13006": 84,
        "13007": 65,
        "13008": 5,
        "13009": 56,
        "13010": 58,
        "13011": 229,
        "13012": 54,
        "13013": 209,
        "13014": 25,
        "13015": 3,
        "13016": 82,
        "13017": 214,
        "13018": 13,
        "13019": 38,
        "13020": 118,
        "13021": 30,
        "13022": 122,
        "13023": 231,
        "13024": 139,
        "13025": 53,
        "13026": 101,
        "13027": 68,
        "13028": 104,
        "13029": 211,
        "13030": 250,
        "13031": 139,
        "13032": 48,
        "13033": 132,
        "13034": 112,
        "13035": 64,
        "13036": 191,
        "13037": 229,
        "13038": 98,
        "13039": 74,
        "13040": 41,
        "13041": 133,
        "13042": 184,
        "13043": 39,
        "13044": 35,
        "13045": 209,
        "13046": 191,
        "13047": 67,
        "13048": 107,
        "13049": 194,
        "13050": 233,
        "13051": 156,
        "13052": 218,
        "13053": 63,
        "13054": 107,
        "13055": 125,
        "13056": 206,
        "13057": 0,
        "13058": 151,
        "13059": 32,
        "13060": 43,
        "13061": 229,
        "13062": 78,
        "13063": 172,
        "13064": 251,
        "13065": 172,
        "13066": 153,
        "13067": 165,
        "13068": 254,
        "13069": 206,
        "13070": 72,
        "13071": 143,
        "13072": 252,
        "13073": 159,
        "13074": 109,
        "13075": 235,
        "13076": 101,
        "13077": 63,
        "13078": 102,
        "13079": 181,
        "13080": 48,
        "13081": 211,
        "13082": 0,
        "13083": 50,
        "13084": 107,
        "13085": 93,
        "13086": 235,
        "13087": 28,
        "13088": 251,
        "13089": 110,
        "13090": 41,
        "13091": 150,
        "13092": 153,
        "13093": 91,
        "13094": 128,
        "13095": 193,
        "13096": 84,
        "13097": 63,
        "13098": 49,
        "13099": 79,
        "13100": 118,
        "13101": 168,
        "13102": 5,
        "13103": 88,
        "13104": 39,
        "13105": 132,
        "13106": 28,
        "13107": 246,
        "13108": 191,
        "13109": 254,
        "13110": 240,
        "13111": 21,
        "13112": 205,
        "13113": 230,
        "13114": 107,
        "13115": 212,
        "13116": 157,
        "13117": 52,
        "13118": 4,
        "13119": 211,
        "13120": 40,
        "13121": 15,
        "13122": 113,
        "13123": 88,
        "13124": 178,
        "13125": 70,
        "13126": 179,
        "13127": 195,
        "13128": 47,
        "13129": 7,
        "13130": 90,
        "13131": 157,
        "13132": 91,
        "13133": 201,
        "13134": 238,
        "13135": 237,
        "13136": 66,
        "13137": 68,
        "13138": 115,
        "13139": 87,
        "13140": 189,
        "13141": 241,
        "13142": 246,
        "13143": 189,
        "13144": 71,
        "13145": 249,
        "13146": 210,
        "13147": 25,
        "13148": 91,
        "13149": 230,
        "13150": 5,
        "13151": 78,
        "13152": 93,
        "13153": 50,
        "13154": 254,
        "13155": 130,
        "13156": 244,
        "13157": 254,
        "13158": 46,
        "13159": 153,
        "13160": 254,
        "13161": 244,
        "13162": 84,
        "13163": 38,
        "13164": 20,
        "13165": 210,
        "13166": 130,
        "13167": 222,
        "13168": 63,
        "13169": 251,
        "13170": 160,
        "13171": 246,
        "13172": 195,
        "13173": 76,
        "13174": 180,
        "13175": 248,
        "13176": 192,
        "13177": 93,
        "13178": 232,
        "13179": 74,
        "13180": 184,
        "13181": 133,
        "13182": 170,
        "13183": 76,
        "13184": 248,
        "13185": 50,
        "13186": 9,
        "13187": 126,
        "13188": 69,
        "13189": 86,
        "13190": 93,
        "13191": 237,
        "13192": 131,
        "13193": 244,
        "13194": 205,
        "13195": 239,
        "13196": 109,
        "13197": 240,
        "13198": 134,
        "13199": 129,
        "13200": 181,
        "13201": 172,
        "13202": 55,
        "13203": 206,
        "13204": 74,
        "13205": 169,
        "13206": 212,
        "13207": 125,
        "13208": 178,
        "13209": 42,
        "13210": 255,
        "13211": 202,
        "13212": 213,
        "13213": 197,
        "13214": 150,
        "13215": 132,
        "13216": 109,
        "13217": 161,
        "13218": 124,
        "13219": 110,
        "13220": 108,
        "13221": 24,
        "13222": 172,
        "13223": 134,
        "13224": 5,
        "13225": 166,
        "13226": 220,
        "13227": 23,
        "13228": 134,
        "13229": 167,
        "13230": 128,
        "13231": 68,
        "13232": 87,
        "13233": 121,
        "13234": 47,
        "13235": 31,
        "13236": 75,
        "13237": 200,
        "13238": 59,
        "13239": 94,
        "13240": 202,
        "13241": 227,
        "13242": 240,
        "13243": 80,
        "13244": 47,
        "13245": 49,
        "13246": 184,
        "13247": 135,
        "13248": 3,
        "13249": 182,
        "13250": 181,
        "13251": 188,
        "13252": 31,
        "13253": 246,
        "13254": 61,
        "13255": 214,
        "13256": 189,
        "13257": 249,
        "13258": 193,
        "13259": 206,
        "13260": 146,
        "13261": 24,
        "13262": 38,
        "13263": 4,
        "13264": 195,
        "13265": 156,
        "13266": 110,
        "13267": 2,
        "13268": 100,
        "13269": 111,
        "13270": 187,
        "13271": 135,
        "13272": 204,
        "13273": 60,
        "13274": 21,
        "13275": 108,
        "13276": 165,
        "13277": 2,
        "13278": 78,
        "13279": 144,
        "13280": 122,
        "13281": 130,
        "13282": 223,
        "13283": 29,
        "13284": 201,
        "13285": 187,
        "13286": 134,
        "13287": 74,
        "13288": 101,
        "13289": 56,
        "13290": 229,
        "13291": 86,
        "13292": 89,
        "13293": 184,
        "13294": 102,
        "13295": 105,
        "13296": 207,
        "13297": 0,
        "13298": 111,
        "13299": 80,
        "13300": 121,
        "13301": 90,
        "13302": 6,
        "13303": 35,
        "13304": 172,
        "13305": 89,
        "13306": 56,
        "13307": 221,
        "13308": 61,
        "13309": 111,
        "13310": 238,
        "13311": 67,
        "13312": 70,
        "13313": 181,
        "13314": 91,
        "13315": 175,
        "13316": 121,
        "13317": 79,
        "13318": 100,
        "13319": 250,
        "13320": 228,
        "13321": 91,
        "13322": 132,
        "13323": 124,
        "13324": 124,
        "13325": 252,
        "13326": 131,
        "13327": 139,
        "13328": 124,
        "13329": 58,
        "13330": 19,
        "13331": 49,
        "13332": 33,
        "13333": 13,
        "13334": 246,
        "13335": 235,
        "13336": 32,
        "13337": 81,
        "13338": 42,
        "13339": 169,
        "13340": 232,
        "13341": 14,
        "13342": 123,
        "13343": 159,
        "13344": 17,
        "13345": 43,
        "13346": 110,
        "13347": 138,
        "13348": 84,
        "13349": 136,
        "13350": 78,
        "13351": 244,
        "13352": 131,
        "13353": 31,
        "13354": 100,
        "13355": 223,
        "13356": 190,
        "13357": 175,
        "13358": 7,
        "13359": 195,
        "13360": 37,
        "13361": 116,
        "13362": 81,
        "13363": 68,
        "13364": 70,
        "13365": 11,
        "13366": 191,
        "13367": 130,
        "13368": 172,
        "13369": 87,
        "13370": 217,
        "13371": 191,
        "13372": 205,
        "13373": 20,
        "13374": 13,
        "13375": 100,
        "13376": 239,
        "13377": 33,
        "13378": 145,
        "13379": 71,
        "13380": 55,
        "13381": 32,
        "13382": 194,
        "13383": 74,
        "13384": 73,
        "13385": 0,
        "13386": 254,
        "13387": 55,
        "13388": 113,
        "13389": 15,
        "13390": 234,
        "13391": 118,
        "13392": 84,
        "13393": 154,
        "13394": 162,
        "13395": 155,
        "13396": 44,
        "13397": 179,
        "13398": 234,
        "13399": 28,
        "13400": 42,
        "13401": 140,
        "13402": 198,
        "13403": 233,
        "13404": 72,
        "13405": 66,
        "13406": 194,
        "13407": 100,
        "13408": 33,
        "13409": 27,
        "13410": 56,
        "13411": 110,
        "13412": 25,
        "13413": 35,
        "13414": 88,
        "13415": 178,
        "13416": 116,
        "13417": 194,
        "13418": 224,
        "13419": 53,
        "13420": 245,
        "13421": 191,
        "13422": 114,
        "13423": 42,
        "13424": 91,
        "13425": 93,
        "13426": 253,
        "13427": 53,
        "13428": 115,
        "13429": 90,
        "13430": 69,
        "13431": 236,
        "13432": 85,
        "13433": 15,
        "13434": 112,
        "13435": 249,
        "13436": 182,
        "13437": 93,
        "13438": 3,
        "13439": 164,
        "13440": 208,
        "13441": 2,
        "13442": 219,
        "13443": 17,
        "13444": 243,
        "13445": 32,
        "13446": 95,
        "13447": 166,
        "13448": 56,
        "13449": 82,
        "13450": 16,
        "13451": 46,
        "13452": 174,
        "13453": 133,
        "13454": 9,
        "13455": 103,
        "13456": 24,
        "13457": 165,
        "13458": 141,
        "13459": 17,
        "13460": 185,
        "13461": 171,
        "13462": 14,
        "13463": 125,
        "13464": 63,
        "13465": 65,
        "13466": 47,
        "13467": 146,
        "13468": 75,
        "13469": 16,
        "13470": 184,
        "13471": 98,
        "13472": 152,
        "13473": 48,
        "13474": 2,
        "13475": 48,
        "13476": 187,
        "13477": 165,
        "13478": 48,
        "13479": 211,
        "13480": 153,
        "13481": 167,
        "13482": 111,
        "13483": 98,
        "13484": 96,
        "13485": 110,
        "13486": 38,
        "13487": 167,
        "13488": 99,
        "13489": 184,
        "13490": 254,
        "13491": 168,
        "13492": 224,
        "13493": 83,
        "13494": 47,
        "13495": 121,
        "13496": 236,
        "13497": 221,
        "13498": 239,
        "13499": 109,
        "13500": 25,
        "13501": 145,
        "13502": 30,
        "13503": 204,
        "13504": 204,
        "13505": 185,
        "13506": 161,
        "13507": 179,
        "13508": 29,
        "13509": 61,
        "13510": 108,
        "13511": 102,
        "13512": 124,
        "13513": 167,
        "13514": 112,
        "13515": 57,
        "13516": 224,
        "13517": 14,
        "13518": 254,
        "13519": 47,
        "13520": 244,
        "13521": 56,
        "13522": 26,
        "13523": 119,
        "13524": 215,
        "13525": 93,
        "13526": 210,
        "13527": 188,
        "13528": 40,
        "13529": 227,
        "13530": 242,
        "13531": 198,
        "13532": 172,
        "13533": 187,
        "13534": 57,
        "13535": 83,
        "13536": 53,
        "13537": 9,
        "13538": 7,
        "13539": 61,
        "13540": 17,
        "13541": 250,
        "13542": 125,
        "13543": 242,
        "13544": 252,
        "13545": 245,
        "13546": 124,
        "13547": 199,
        "13548": 41,
        "13549": 245,
        "13550": 26,
        "13551": 132,
        "13552": 44,
        "13553": 121,
        "13554": 57,
        "13555": 12,
        "13556": 71,
        "13557": 234,
        "13558": 221,
        "13559": 121,
        "13560": 92,
        "13561": 214,
        "13562": 43,
        "13563": 159,
        "13564": 43,
        "13565": 94,
        "13566": 181,
        "13567": 8,
        "13568": 115,
        "13569": 139,
        "13570": 98,
        "13571": 166,
        "13572": 51,
        "13573": 9,
        "13574": 136,
        "13575": 100,
        "13576": 154,
        "13577": 8,
        "13578": 6,
        "13579": 115,
        "13580": 89,
        "13581": 173,
        "13582": 208,
        "13583": 137,
        "13584": 58,
        "13585": 76,
        "13586": 179,
        "13587": 214,
        "13588": 75,
        "13589": 24,
        "13590": 189,
        "13591": 136,
        "13592": 177,
        "13593": 50,
        "13594": 193,
        "13595": 5,
        "13596": 129,
        "13597": 187,
        "13598": 8,
        "13599": 236,
        "13600": 182,
        "13601": 45,
        "13602": 83,
        "13603": 0,
        "13604": 58,
        "13605": 174,
        "13606": 234,
        "13607": 3,
        "13608": 54,
        "13609": 169,
        "13610": 18,
        "13611": 11,
        "13612": 97,
        "13613": 69,
        "13614": 70,
        "13615": 129,
        "13616": 25,
        "13617": 126,
        "13618": 175,
        "13619": 190,
        "13620": 9,
        "13621": 38,
        "13622": 20,
        "13623": 232,
        "13624": 128,
        "13625": 227,
        "13626": 85,
        "13627": 55,
        "13628": 240,
        "13629": 104,
        "13630": 193,
        "13631": 212,
        "13632": 8,
        "13633": 24,
        "13634": 216,
        "13635": 130,
        "13636": 218,
        "13637": 197,
        "13638": 161,
        "13639": 141,
        "13640": 247,
        "13641": 205,
        "13642": 37,
        "13643": 245,
        "13644": 221,
        "13645": 143,
        "13646": 216,
        "13647": 161,
        "13648": 191,
        "13649": 128,
        "13650": 153,
        "13651": 206,
        "13652": 94,
        "13653": 135,
        "13654": 26,
        "13655": 88,
        "13656": 191,
        "13657": 252,
        "13658": 122,
        "13659": 70,
        "13660": 37,
        "13661": 231,
        "13662": 250,
        "13663": 205,
        "13664": 33,
        "13665": 69,
        "13666": 173,
        "13667": 39,
        "13668": 163,
        "13669": 1,
        "13670": 150,
        "13671": 72,
        "13672": 113,
        "13673": 114,
        "13674": 122,
        "13675": 173,
        "13676": 1,
        "13677": 247,
        "13678": 240,
        "13679": 150,
        "13680": 98,
        "13681": 69,
        "13682": 69,
        "13683": 0,
        "13684": 78,
        "13685": 39,
        "13686": 4,
        "13687": 175,
        "13688": 169,
        "13689": 31,
        "13690": 238,
        "13691": 226,
        "13692": 43,
        "13693": 104,
        "13694": 47,
        "13695": 36,
        "13696": 27,
        "13697": 188,
        "13698": 131,
        "13699": 88,
        "13700": 106,
        "13701": 125,
        "13702": 31,
        "13703": 21,
        "13704": 113,
        "13705": 151,
        "13706": 37,
        "13707": 59,
        "13708": 233,
        "13709": 246,
        "13710": 42,
        "13711": 16,
        "13712": 224,
        "13713": 28,
        "13714": 79,
        "13715": 141,
        "13716": 197,
        "13717": 71,
        "13718": 206,
        "13719": 80,
        "13720": 33,
        "13721": 219,
        "13722": 93,
        "13723": 57,
        "13724": 13,
        "13725": 165,
        "13726": 165,
        "13727": 184,
        "13728": 55,
        "13729": 110,
        "13730": 171,
        "13731": 147,
        "13732": 15,
        "13733": 90,
        "13734": 237,
        "13735": 200,
        "13736": 208,
        "13737": 38,
        "13738": 49,
        "13739": 209,
        "13740": 67,
        "13741": 195,
        "13742": 49,
        "13743": 82,
        "13744": 146,
        "13745": 170,
        "13746": 150,
        "13747": 141,
        "13748": 33,
        "13749": 237,
        "13750": 246,
        "13751": 180,
        "13752": 62,
        "13753": 4,
        "13754": 0,
        "13755": 253,
        "13756": 179,
        "13757": 251,
        "13758": 86,
        "13759": 32,
        "13760": 42,
        "13761": 126,
        "13762": 223,
        "13763": 115,
        "13764": 157,
        "13765": 19,
        "13766": 226,
        "13767": 235,
        "13768": 110,
        "13769": 154,
        "13770": 60,
        "13771": 201,
        "13772": 189,
        "13773": 168,
        "13774": 255,
        "13775": 174,
        "13776": 113,
        "13777": 110,
        "13778": 7,
        "13779": 228,
        "13780": 125,
        "13781": 228,
        "13782": 124,
        "13783": 171,
        "13784": 203,
        "13785": 103,
        "13786": 49,
        "13787": 190,
        "13788": 78,
        "13789": 166,
        "13790": 80,
        "13791": 13,
        "13792": 178,
        "13793": 0,
        "13794": 76,
        "13795": 92,
        "13796": 7,
        "13797": 135,
        "13798": 242,
        "13799": 203,
        "13800": 128,
        "13801": 112,
        "13802": 36,
        "13803": 102,
        "13804": 225,
        "13805": 252,
        "13806": 220,
        "13807": 30,
        "13808": 113,
        "13809": 201,
        "13810": 45,
        "13811": 12,
        "13812": 102,
        "13813": 44,
        "13814": 2,
        "13815": 211,
        "13816": 180,
        "13817": 63,
        "13818": 67,
        "13819": 4,
        "13820": 136,
        "13821": 247,
        "13822": 42,
        "13823": 229,
        "13824": 28,
        "13825": 192,
        "13826": 171,
        "13827": 201,
        "13828": 60,
        "13829": 132,
        "13830": 80,
        "13831": 127,
        "13832": 252,
        "13833": 0,
        "13834": 227,
        "13835": 181,
        "13836": 98,
        "13837": 199,
        "13838": 19,
        "13839": 116,
        "13840": 48,
        "13841": 24,
        "13842": 62,
        "13843": 141,
        "13844": 100,
        "13845": 8,
        "13846": 213,
        "13847": 185,
        "13848": 118,
        "13849": 230,
        "13850": 186,
        "13851": 53,
        "13852": 116,
        "13853": 120,
        "13854": 24,
        "13855": 66,
        "13856": 54,
        "13857": 115,
        "13858": 40,
        "13859": 208,
        "13860": 98,
        "13861": 191,
        "13862": 17,
        "13863": 45,
        "13864": 2,
        "13865": 143,
        "13866": 92,
        "13867": 81,
        "13868": 203,
        "13869": 165,
        "13870": 93,
        "13871": 209,
        "13872": 155,
        "13873": 241,
        "13874": 87,
        "13875": 148,
        "13876": 32,
        "13877": 27,
        "13878": 163,
        "13879": 225,
        "13880": 224,
        "13881": 246,
        "13882": 131,
        "13883": 10,
        "13884": 185,
        "13885": 31,
        "13886": 65,
        "13887": 175,
        "13888": 165,
        "13889": 32,
        "13890": 29,
        "13891": 165,
        "13892": 190,
        "13893": 6,
        "13894": 248,
        "13895": 84,
        "13896": 178,
        "13897": 120,
        "13898": 107,
        "13899": 195,
        "13900": 114,
        "13901": 213,
        "13902": 70,
        "13903": 73,
        "13904": 133,
        "13905": 237,
        "13906": 6,
        "13907": 35,
        "13908": 65,
        "13909": 247,
        "13910": 97,
        "13911": 121,
        "13912": 94,
        "13913": 183,
        "13914": 39,
        "13915": 175,
        "13916": 223,
        "13917": 12,
        "13918": 194,
        "13919": 83,
        "13920": 184,
        "13921": 117,
        "13922": 162,
        "13923": 139,
        "13924": 254,
        "13925": 191,
        "13926": 183,
        "13927": 43,
        "13928": 113,
        "13929": 186,
        "13930": 222,
        "13931": 170,
        "13932": 118,
        "13933": 186,
        "13934": 50,
        "13935": 30,
        "13936": 195,
        "13937": 180,
        "13938": 5,
        "13939": 184,
        "13940": 47,
        "13941": 129,
        "13942": 88,
        "13943": 8,
        "13944": 43,
        "13945": 165,
        "13946": 215,
        "13947": 167,
        "13948": 112,
        "13949": 22,
        "13950": 236,
        "13951": 192,
        "13952": 196,
        "13953": 159,
        "13954": 55,
        "13955": 82,
        "13956": 123,
        "13957": 10,
        "13958": 157,
        "13959": 114,
        "13960": 152,
        "13961": 131,
        "13962": 24,
        "13963": 147,
        "13964": 133,
        "13965": 101,
        "13966": 26,
        "13967": 140,
        "13968": 245,
        "13969": 161,
        "13970": 119,
        "13971": 154,
        "13972": 165,
        "13973": 85,
        "13974": 67,
        "13975": 90,
        "13976": 22,
        "13977": 133,
        "13978": 180,
        "13979": 104,
        "13980": 152,
        "13981": 188,
        "13982": 179,
        "13983": 107,
        "13984": 68,
        "13985": 25,
        "13986": 47,
        "13987": 71,
        "13988": 134,
        "13989": 251,
        "13990": 110,
        "13991": 179,
        "13992": 76,
        "13993": 33,
        "13994": 250,
        "13995": 143,
        "13996": 216,
        "13997": 82,
        "13998": 199,
        "13999": 222,
        "14000": 197,
        "14001": 19,
        "14002": 168,
        "14003": 10,
        "14004": 213,
        "14005": 151,
        "14006": 5,
        "14007": 65,
        "14008": 212,
        "14009": 90,
        "14010": 105,
        "14011": 155,
        "14012": 93,
        "14013": 123,
        "14014": 219,
        "14015": 165,
        "14016": 9,
        "14017": 147,
        "14018": 247,
        "14019": 221,
        "14020": 194,
        "14021": 174,
        "14022": 89,
        "14023": 52,
        "14024": 217,
        "14025": 68,
        "14026": 230,
        "14027": 55,
        "14028": 11,
        "14029": 171,
        "14030": 121,
        "14031": 229,
        "14032": 21,
        "14033": 23,
        "14034": 220,
        "14035": 65,
        "14036": 107,
        "14037": 132,
        "14038": 117,
        "14039": 17,
        "14040": 59,
        "14041": 185,
        "14042": 37,
        "14043": 111,
        "14044": 200,
        "14045": 170,
        "14046": 194,
        "14047": 37,
        "14048": 247,
        "14049": 231,
        "14050": 109,
        "14051": 120,
        "14052": 236,
        "14053": 145,
        "14054": 170,
        "14055": 45,
        "14056": 43,
        "14057": 126,
        "14058": 152,
        "14059": 198,
        "14060": 225,
        "14061": 212,
        "14062": 164,
        "14063": 248,
        "14064": 193,
        "14065": 146,
        "14066": 132,
        "14067": 42,
        "14068": 44,
        "14069": 80,
        "14070": 204,
        "14071": 206,
        "14072": 86,
        "14073": 218,
        "14074": 220,
        "14075": 173,
        "14076": 40,
        "14077": 57,
        "14078": 191,
        "14079": 60,
        "14080": 81,
        "14081": 4,
        "14082": 232,
        "14083": 74,
        "14084": 34,
        "14085": 146,
        "14086": 70,
        "14087": 210,
        "14088": 143,
        "14089": 201,
        "14090": 227,
        "14091": 188,
        "14092": 61,
        "14093": 142,
        "14094": 26,
        "14095": 233,
        "14096": 113,
        "14097": 231,
        "14098": 188,
        "14099": 8,
        "14100": 163,
        "14101": 87,
        "14102": 176,
        "14103": 169,
        "14104": 90,
        "14105": 98,
        "14106": 54,
        "14107": 131,
        "14108": 249,
        "14109": 176,
        "14110": 158,
        "14111": 217,
        "14112": 51,
        "14113": 218,
        "14114": 2,
        "14115": 205,
        "14116": 66,
        "14117": 57,
        "14118": 249,
        "14119": 35,
        "14120": 50,
        "14121": 3,
        "14122": 150,
        "14123": 217,
        "14124": 71,
        "14125": 189,
        "14126": 155,
        "14127": 230,
        "14128": 46,
        "14129": 134,
        "14130": 2,
        "14131": 10,
        "14132": 28,
        "14133": 4,
        "14134": 108,
        "14135": 217,
        "14136": 225,
        "14137": 124,
        "14138": 10,
        "14139": 201,
        "14140": 15,
        "14141": 139,
        "14142": 249,
        "14143": 218,
        "14144": 89,
        "14145": 180,
        "14146": 100,
        "14147": 162,
        "14148": 187,
        "14149": 92,
        "14150": 247,
        "14151": 225,
        "14152": 234,
        "14153": 73,
        "14154": 236,
        "14155": 173,
        "14156": 56,
        "14157": 33,
        "14158": 246,
        "14159": 140,
        "14160": 191,
        "14161": 42,
        "14162": 165,
        "14163": 217,
        "14164": 22,
        "14165": 4,
        "14166": 57,
        "14167": 47,
        "14168": 9,
        "14169": 217,
        "14170": 131,
        "14171": 131,
        "14172": 138,
        "14173": 23,
        "14174": 130,
        "14175": 63,
        "14176": 93,
        "14177": 236,
        "14178": 32,
        "14179": 8,
        "14180": 12,
        "14181": 63,
        "14182": 214,
        "14183": 25,
        "14184": 4,
        "14185": 236,
        "14186": 234,
        "14187": 138,
        "14188": 27,
        "14189": 109,
        "14190": 139,
        "14191": 158,
        "14192": 181,
        "14193": 136,
        "14194": 14,
        "14195": 121,
        "14196": 150,
        "14197": 237,
        "14198": 228,
        "14199": 130,
        "14200": 227,
        "14201": 123,
        "14202": 100,
        "14203": 59,
        "14204": 134,
        "14205": 24,
        "14206": 163,
        "14207": 199,
        "14208": 217,
        "14209": 29,
        "14210": 34,
        "14211": 202,
        "14212": 252,
        "14213": 95,
        "14214": 117,
        "14215": 91,
        "14216": 173,
        "14217": 223,
        "14218": 84,
        "14219": 150,
        "14220": 23,
        "14221": 156,
        "14222": 250,
        "14223": 240,
        "14224": 150,
        "14225": 64,
        "14226": 107,
        "14227": 139,
        "14228": 12,
        "14229": 68,
        "14230": 178,
        "14231": 150,
        "14232": 27,
        "14233": 60,
        "14234": 169,
        "14235": 149,
        "14236": 109,
        "14237": 241,
        "14238": 98,
        "14239": 73,
        "14240": 161,
        "14241": 224,
        "14242": 173,
        "14243": 84,
        "14244": 109,
        "14245": 20,
        "14246": 93,
        "14247": 247,
        "14248": 86,
        "14249": 56,
        "14250": 124,
        "14251": 253,
        "14252": 240,
        "14253": 86,
        "14254": 132,
        "14255": 95,
        "14256": 80,
        "14257": 56,
        "14258": 138,
        "14259": 136,
        "14260": 19,
        "14261": 8,
        "14262": 128,
        "14263": 39,
        "14264": 115,
        "14265": 162,
        "14266": 81,
        "14267": 251,
        "14268": 131,
        "14269": 174,
        "14270": 183,
        "14271": 209,
        "14272": 240,
        "14273": 133,
        "14274": 73,
        "14275": 2,
        "14276": 122,
        "14277": 210,
        "14278": 9,
        "14279": 122,
        "14280": 174,
        "14281": 3,
        "14282": 228,
        "14283": 150,
        "14284": 117,
        "14285": 159,
        "14286": 101,
        "14287": 124,
        "14288": 242,
        "14289": 35,
        "14290": 104,
        "14291": 229,
        "14292": 50,
        "14293": 143,
        "14294": 57,
        "14295": 218,
        "14296": 227,
        "14297": 182,
        "14298": 155,
        "14299": 138,
        "14300": 134,
        "14301": 39,
        "14302": 209,
        "14303": 84,
        "14304": 76,
        "14305": 78,
        "14306": 238,
        "14307": 166,
        "14308": 71,
        "14309": 178,
        "14310": 108,
        "14311": 198,
        "14312": 48,
        "14313": 82,
        "14314": 162,
        "14315": 93,
        "14316": 146,
        "14317": 44,
        "14318": 247,
        "14319": 38,
        "14320": 136,
        "14321": 232,
        "14322": 200,
        "14323": 181,
        "14324": 78,
        "14325": 160,
        "14326": 96,
        "14327": 74,
        "14328": 205,
        "14329": 56,
        "14330": 250,
        "14331": 207,
        "14332": 24,
        "14333": 157,
        "14334": 205,
        "14335": 209,
        "14336": 13,
        "14337": 76,
        "14338": 180,
        "14339": 150,
        "14340": 115,
        "14341": 144,
        "14342": 32,
        "14343": 32,
        "14344": 115,
        "14345": 228,
        "14346": 151,
        "14347": 193,
        "14348": 11,
        "14349": 218,
        "14350": 204,
        "14351": 178,
        "14352": 246,
        "14353": 114,
        "14354": 233,
        "14355": 48,
        "14356": 251,
        "14357": 131,
        "14358": 122,
        "14359": 189,
        "14360": 88,
        "14361": 28,
        "14362": 80,
        "14363": 184,
        "14364": 70,
        "14365": 14,
        "14366": 13,
        "14367": 221,
        "14368": 135,
        "14369": 185,
        "14370": 23,
        "14371": 239,
        "14372": 81,
        "14373": 253,
        "14374": 71,
        "14375": 251,
        "14376": 185,
        "14377": 245,
        "14378": 127,
        "14379": 245,
        "14380": 168,
        "14381": 162,
        "14382": 128,
        "14383": 67,
        "14384": 174,
        "14385": 121,
        "14386": 248,
        "14387": 118,
        "14388": 9,
        "14389": 34,
        "14390": 205,
        "14391": 224,
        "14392": 48,
        "14393": 172,
        "14394": 236,
        "14395": 74,
        "14396": 138,
        "14397": 76,
        "14398": 129,
        "14399": 87,
        "14400": 29,
        "14401": 124,
        "14402": 112,
        "14403": 140,
        "14404": 190,
        "14405": 238,
        "14406": 144,
        "14407": 91,
        "14408": 25,
        "14409": 17,
        "14410": 166,
        "14411": 233,
        "14412": 205,
        "14413": 187,
        "14414": 207,
        "14415": 243,
        "14416": 79,
        "14417": 199,
        "14418": 242,
        "14419": 44,
        "14420": 232,
        "14421": 155,
        "14422": 162,
        "14423": 246,
        "14424": 30,
        "14425": 232,
        "14426": 63,
        "14427": 187,
        "14428": 5,
        "14429": 221,
        "14430": 39,
        "14431": 244,
        "14432": 197,
        "14433": 226,
        "14434": 38,
        "14435": 245,
        "14436": 234,
        "14437": 197,
        "14438": 123,
        "14439": 91,
        "14440": 96,
        "14441": 198,
        "14442": 95,
        "14443": 154,
        "14444": 77,
        "14445": 61,
        "14446": 122,
        "14447": 11,
        "14448": 94,
        "14449": 147,
        "14450": 119,
        "14451": 226,
        "14452": 187,
        "14453": 160,
        "14454": 175,
        "14455": 218,
        "14456": 108,
        "14457": 125,
        "14458": 170,
        "14459": 232,
        "14460": 149,
        "14461": 230,
        "14462": 120,
        "14463": 133,
        "14464": 217,
        "14465": 81,
        "14466": 227,
        "14467": 63,
        "14468": 123,
        "14469": 129,
        "14470": 102,
        "14471": 112,
        "14472": 181,
        "14473": 160,
        "14474": 124,
        "14475": 115,
        "14476": 108,
        "14477": 207,
        "14478": 86,
        "14479": 24,
        "14480": 10,
        "14481": 74,
        "14482": 163,
        "14483": 180,
        "14484": 101,
        "14485": 234,
        "14486": 14,
        "14487": 116,
        "14488": 156,
        "14489": 33,
        "14490": 122,
        "14491": 245,
        "14492": 143,
        "14493": 229,
        "14494": 166,
        "14495": 35,
        "14496": 69,
        "14497": 196,
        "14498": 177,
        "14499": 252,
        "14500": 104,
        "14501": 52,
        "14502": 161,
        "14503": 140,
        "14504": 10,
        "14505": 26,
        "14506": 114,
        "14507": 94,
        "14508": 155,
        "14509": 215,
        "14510": 84,
        "14511": 234,
        "14512": 59,
        "14513": 173,
        "14514": 241,
        "14515": 239,
        "14516": 37,
        "14517": 169,
        "14518": 80,
        "14519": 135,
        "14520": 147,
        "14521": 172,
        "14522": 231,
        "14523": 143,
        "14524": 108,
        "14525": 196,
        "14526": 92,
        "14527": 182,
        "14528": 24,
        "14529": 209,
        "14530": 110,
        "14531": 89,
        "14532": 233,
        "14533": 217,
        "14534": 133,
        "14535": 254,
        "14536": 216,
        "14537": 115,
        "14538": 247,
        "14539": 7,
        "14540": 184,
        "14541": 207,
        "14542": 247,
        "14543": 19,
        "14544": 226,
        "14545": 35,
        "14546": 31,
        "14547": 253,
        "14548": 235,
        "14549": 12,
        "14550": 178,
        "14551": 147,
        "14552": 132,
        "14553": 26,
        "14554": 86,
        "14555": 164,
        "14556": 198,
        "14557": 114,
        "14558": 123,
        "14559": 232,
        "14560": 109,
        "14561": 89,
        "14562": 217,
        "14563": 251,
        "14564": 115,
        "14565": 209,
        "14566": 111,
        "14567": 241,
        "14568": 131,
        "14569": 30,
        "14570": 226,
        "14571": 179,
        "14572": 187,
        "14573": 193,
        "14574": 224,
        "14575": 24,
        "14576": 121,
        "14577": 115,
        "14578": 157,
        "14579": 90,
        "14580": 22,
        "14581": 218,
        "14582": 246,
        "14583": 129,
        "14584": 56,
        "14585": 74,
        "14586": 11,
        "14587": 193,
        "14588": 118,
        "14589": 227,
        "14590": 72,
        "14591": 203,
        "14592": 1,
        "14593": 153,
        "14594": 151,
        "14595": 110,
        "14596": 255,
        "14597": 232,
        "14598": 88,
        "14599": 69,
        "14600": 174,
        "14601": 203,
        "14602": 121,
        "14603": 141,
        "14604": 74,
        "14605": 99,
        "14606": 156,
        "14607": 49,
        "14608": 28,
        "14609": 171,
        "14610": 68,
        "14611": 29,
        "14612": 116,
        "14613": 123,
        "14614": 121,
        "14615": 160,
        "14616": 235,
        "14617": 146,
        "14618": 169,
        "14619": 31,
        "14620": 158,
        "14621": 86,
        "14622": 34,
        "14623": 33,
        "14624": 248,
        "14625": 223,
        "14626": 7,
        "14627": 118,
        "14628": 230,
        "14629": 72,
        "14630": 45,
        "14631": 162,
        "14632": 67,
        "14633": 231,
        "14634": 89,
        "14635": 211,
        "14636": 224,
        "14637": 201,
        "14638": 150,
        "14639": 52,
        "14640": 59,
        "14641": 155,
        "14642": 164,
        "14643": 148,
        "14644": 22,
        "14645": 145,
        "14646": 41,
        "14647": 73,
        "14648": 43,
        "14649": 35,
        "14650": 206,
        "14651": 91,
        "14652": 173,
        "14653": 156,
        "14654": 88,
        "14655": 42,
        "14656": 125,
        "14657": 70,
        "14658": 129,
        "14659": 47,
        "14660": 20,
        "14661": 14,
        "14662": 168,
        "14663": 180,
        "14664": 247,
        "14665": 36,
        "14666": 193,
        "14667": 154,
        "14668": 91,
        "14669": 74,
        "14670": 172,
        "14671": 145,
        "14672": 241,
        "14673": 243,
        "14674": 111,
        "14675": 82,
        "14676": 200,
        "14677": 175,
        "14678": 97,
        "14679": 127,
        "14680": 56,
        "14681": 85,
        "14682": 60,
        "14683": 13,
        "14684": 124,
        "14685": 118,
        "14686": 119,
        "14687": 65,
        "14688": 34,
        "14689": 57,
        "14690": 41,
        "14691": 34,
        "14692": 85,
        "14693": 238,
        "14694": 7,
        "14695": 92,
        "14696": 84,
        "14697": 163,
        "14698": 84,
        "14699": 160,
        "14700": 107,
        "14701": 6,
        "14702": 44,
        "14703": 5,
        "14704": 204,
        "14705": 199,
        "14706": 153,
        "14707": 88,
        "14708": 44,
        "14709": 222,
        "14710": 95,
        "14711": 111,
        "14712": 195,
        "14713": 219,
        "14714": 174,
        "14715": 250,
        "14716": 106,
        "14717": 212,
        "14718": 246,
        "14719": 223,
        "14720": 159,
        "14721": 159,
        "14722": 241,
        "14723": 139,
        "14724": 0,
        "14725": 202,
        "14726": 141,
        "14727": 68,
        "14728": 121,
        "14729": 248,
        "14730": 177,
        "14731": 4,
        "14732": 149,
        "14733": 49,
        "14734": 197,
        "14735": 91,
        "14736": 63,
        "14737": 97,
        "14738": 213,
        "14739": 47,
        "14740": 217,
        "14741": 74,
        "14742": 94,
        "14743": 103,
        "14744": 91,
        "14745": 85,
        "14746": 144,
        "14747": 121,
        "14748": 151,
        "14749": 174,
        "14750": 23,
        "14751": 228,
        "14752": 55,
        "14753": 27,
        "14754": 29,
        "14755": 113,
        "14756": 18,
        "14757": 234,
        "14758": 249,
        "14759": 181,
        "14760": 228,
        "14761": 145,
        "14762": 101,
        "14763": 92,
        "14764": 204,
        "14765": 14,
        "14766": 107,
        "14767": 225,
        "14768": 245,
        "14769": 151,
        "14770": 153,
        "14771": 109,
        "14772": 199,
        "14773": 233,
        "14774": 75,
        "14775": 38,
        "14776": 94,
        "14777": 65,
        "14778": 4,
        "14779": 174,
        "14780": 236,
        "14781": 221,
        "14782": 101,
        "14783": 111,
        "14784": 232,
        "14785": 115,
        "14786": 179,
        "14787": 86,
        "14788": 68,
        "14789": 40,
        "14790": 250,
        "14791": 209,
        "14792": 143,
        "14793": 10,
        "14794": 208,
        "14795": 86,
        "14796": 113,
        "14797": 138,
        "14798": 120,
        "14799": 108,
        "14800": 107,
        "14801": 181,
        "14802": 73,
        "14803": 102,
        "14804": 52,
        "14805": 237,
        "14806": 83,
        "14807": 179,
        "14808": 7,
        "14809": 128,
        "14810": 28,
        "14811": 64,
        "14812": 105,
        "14813": 216,
        "14814": 62,
        "14815": 236,
        "14816": 199,
        "14817": 47,
        "14818": 68,
        "14819": 142,
        "14820": 1,
        "14821": 141,
        "14822": 42,
        "14823": 31,
        "14824": 238,
        "14825": 159,
        "14826": 190,
        "14827": 182,
        "14828": 47,
        "14829": 92,
        "14830": 116,
        "14831": 218,
        "14832": 192,
        "14833": 201,
        "14834": 243,
        "14835": 29,
        "14836": 130,
        "14837": 123,
        "14838": 7,
        "14839": 71,
        "14840": 192,
        "14841": 222,
        "14842": 16,
        "14843": 44,
        "14844": 143,
        "14845": 49,
        "14846": 144,
        "14847": 15,
        "14848": 96,
        "14849": 98,
        "14850": 28,
        "14851": 98,
        "14852": 69,
        "14853": 178,
        "14854": 252,
        "14855": 73,
        "14856": 43,
        "14857": 104,
        "14858": 205,
        "14859": 21,
        "14860": 2,
        "14861": 6,
        "14862": 100,
        "14863": 109,
        "14864": 226,
        "14865": 39,
        "14866": 210,
        "14867": 176,
        "14868": 200,
        "14869": 80,
        "14870": 192,
        "14871": 39,
        "14872": 40,
        "14873": 60,
        "14874": 218,
        "14875": 163,
        "14876": 0,
        "14877": 110,
        "14878": 178,
        "14879": 47,
        "14880": 225,
        "14881": 247,
        "14882": 217,
        "14883": 253,
        "14884": 0,
        "14885": 109,
        "14886": 132,
        "14887": 127,
        "14888": 21,
        "14889": 15,
        "14890": 83,
        "14891": 54,
        "14892": 106,
        "14893": 149,
        "14894": 73,
        "14895": 38,
        "14896": 153,
        "14897": 178,
        "14898": 87,
        "14899": 146,
        "14900": 52,
        "14901": 58,
        "14902": 49,
        "14903": 145,
        "14904": 81,
        "14905": 60,
        "14906": 79,
        "14907": 45,
        "14908": 236,
        "14909": 130,
        "14910": 249,
        "14911": 163,
        "14912": 219,
        "14913": 255,
        "14914": 109,
        "14915": 210,
        "14916": 141,
        "14917": 2,
        "14918": 208,
        "14919": 187,
        "14920": 149,
        "14921": 105,
        "14922": 17,
        "14923": 123,
        "14924": 196,
        "14925": 87,
        "14926": 220,
        "14927": 14,
        "14928": 184,
        "14929": 251,
        "14930": 108,
        "14931": 10,
        "14932": 15,
        "14933": 47,
        "14934": 3,
        "14935": 46,
        "14936": 252,
        "14937": 231,
        "14938": 49,
        "14939": 150,
        "14940": 32,
        "14941": 117,
        "14942": 89,
        "14943": 148,
        "14944": 252,
        "14945": 208,
        "14946": 185,
        "14947": 62,
        "14948": 43,
        "14949": 55,
        "14950": 65,
        "14951": 172,
        "14952": 129,
        "14953": 48,
        "14954": 89,
        "14955": 62,
        "14956": 18,
        "14957": 29,
        "14958": 40,
        "14959": 246,
        "14960": 169,
        "14961": 65,
        "14962": 120,
        "14963": 200,
        "14964": 221,
        "14965": 136,
        "14966": 36,
        "14967": 191,
        "14968": 67,
        "14969": 219,
        "14970": 64,
        "14971": 147,
        "14972": 125,
        "14973": 12,
        "14974": 89,
        "14975": 57,
        "14976": 25,
        "14977": 249,
        "14978": 56,
        "14979": 211,
        "14980": 252,
        "14981": 250,
        "14982": 91,
        "14983": 155,
        "14984": 32,
        "14985": 18,
        "14986": 24,
        "14987": 205,
        "14988": 20,
        "14989": 216,
        "14990": 17,
        "14991": 97,
        "14992": 48,
        "14993": 152,
        "14994": 71,
        "14995": 216,
        "14996": 149,
        "14997": 201,
        "14998": 92,
        "14999": 80,
        "15000": 238,
        "15001": 1,
        "15002": 146,
        "15003": 99,
        "15004": 88,
        "15005": 223,
        "15006": 63,
        "15007": 233,
        "15008": 172,
        "15009": 135,
        "15010": 139,
        "15011": 117,
        "15012": 95,
        "15013": 234,
        "15014": 195,
        "15015": 235,
        "15016": 147,
        "15017": 32,
        "15018": 101,
        "15019": 89,
        "15020": 95,
        "15021": 194,
        "15022": 104,
        "15023": 204,
        "15024": 181,
        "15025": 116,
        "15026": 105,
        "15027": 234,
        "15028": 53,
        "15029": 219,
        "15030": 186,
        "15031": 124,
        "15032": 83,
        "15033": 70,
        "15034": 12,
        "15035": 128,
        "15036": 162,
        "15037": 92,
        "15038": 23,
        "15039": 146,
        "15040": 122,
        "15041": 51,
        "15042": 60,
        "15043": 75,
        "15044": 59,
        "15045": 146,
        "15046": 23,
        "15047": 221,
        "15048": 233,
        "15049": 161,
        "15050": 19,
        "15051": 151,
        "15052": 43,
        "15053": 41,
        "15054": 182,
        "15055": 232,
        "15056": 81,
        "15057": 49,
        "15058": 15,
        "15059": 164,
        "15060": 236,
        "15061": 183,
        "15062": 204,
        "15063": 57,
        "15064": 242,
        "15065": 99,
        "15066": 52,
        "15067": 52,
        "15068": 217,
        "15069": 16,
        "15070": 236,
        "15071": 72,
        "15072": 123,
        "15073": 100,
        "15074": 38,
        "15075": 57,
        "15076": 130,
        "15077": 219,
        "15078": 43,
        "15079": 89,
        "15080": 165,
        "15081": 99,
        "15082": 102,
        "15083": 113,
        "15084": 54,
        "15085": 66,
        "15086": 131,
        "15087": 194,
        "15088": 101,
        "15089": 29,
        "15090": 248,
        "15091": 45,
        "15092": 25,
        "15093": 228,
        "15094": 240,
        "15095": 136,
        "15096": 49,
        "15097": 37,
        "15098": 218,
        "15099": 250,
        "15100": 243,
        "15101": 62,
        "15102": 113,
        "15103": 32,
        "15104": 91,
        "15105": 239,
        "15106": 211,
        "15107": 15,
        "15108": 39,
        "15109": 246,
        "15110": 148,
        "15111": 175,
        "15112": 226,
        "15113": 152,
        "15114": 236,
        "15115": 49,
        "15116": 212,
        "15117": 193,
        "15118": 171,
        "15119": 161,
        "15120": 194,
        "15121": 209,
        "15122": 71,
        "15123": 107,
        "15124": 44,
        "15125": 140,
        "15126": 204,
        "15127": 160,
        "15128": 91,
        "15129": 93,
        "15130": 78,
        "15131": 20,
        "15132": 213,
        "15133": 73,
        "15134": 213,
        "15135": 155,
        "15136": 234,
        "15137": 110,
        "15138": 146,
        "15139": 185,
        "15140": 98,
        "15141": 230,
        "15142": 152,
        "15143": 39,
        "15144": 22,
        "15145": 201,
        "15146": 87,
        "15147": 205,
        "15148": 219,
        "15149": 220,
        "15150": 225,
        "15151": 155,
        "15152": 125,
        "15153": 20,
        "15154": 84,
        "15155": 92,
        "15156": 82,
        "15157": 18,
        "15158": 25,
        "15159": 94,
        "15160": 190,
        "15161": 138,
        "15162": 146,
        "15163": 35,
        "15164": 8,
        "15165": 151,
        "15166": 52,
        "15167": 143,
        "15168": 245,
        "15169": 181,
        "15170": 30,
        "15171": 4,
        "15172": 156,
        "15173": 158,
        "15174": 71,
        "15175": 156,
        "15176": 146,
        "15177": 208,
        "15178": 2,
        "15179": 107,
        "15180": 189,
        "15181": 204,
        "15182": 241,
        "15183": 114,
        "15184": 13,
        "15185": 246,
        "15186": 192,
        "15187": 4,
        "15188": 87,
        "15189": 1,
        "15190": 200,
        "15191": 29,
        "15192": 18,
        "15193": 115,
        "15194": 40,
        "15195": 236,
        "15196": 76,
        "15197": 56,
        "15198": 161,
        "15199": 32,
        "15200": 39,
        "15201": 50,
        "15202": 19,
        "15203": 113,
        "15204": 58,
        "15205": 112,
        "15206": 172,
        "15207": 158,
        "15208": 210,
        "15209": 7,
        "15210": 182,
        "15211": 197,
        "15212": 219,
        "15213": 167,
        "15214": 133,
        "15215": 178,
        "15216": 29,
        "15217": 231,
        "15218": 163,
        "15219": 71,
        "15220": 145,
        "15221": 146,
        "15222": 237,
        "15223": 145,
        "15224": 34,
        "15225": 122,
        "15226": 82,
        "15227": 75,
        "15228": 146,
        "15229": 137,
        "15230": 157,
        "15231": 1,
        "15232": 229,
        "15233": 135,
        "15234": 2,
        "15235": 87,
        "15236": 52,
        "15237": 15,
        "15238": 33,
        "15239": 221,
        "15240": 232,
        "15241": 232,
        "15242": 181,
        "15243": 41,
        "15244": 173,
        "15245": 242,
        "15246": 175,
        "15247": 98,
        "15248": 234,
        "15249": 13,
        "15250": 2,
        "15251": 18,
        "15252": 193,
        "15253": 250,
        "15254": 218,
        "15255": 81,
        "15256": 31,
        "15257": 145,
        "15258": 190,
        "15259": 157,
        "15260": 228,
        "15261": 86,
        "15262": 82,
        "15263": 87,
        "15264": 176,
        "15265": 209,
        "15266": 33,
        "15267": 18,
        "15268": 76,
        "15269": 158,
        "15270": 46,
        "15271": 6,
        "15272": 44,
        "15273": 72,
        "15274": 75,
        "15275": 8,
        "15276": 5,
        "15277": 122,
        "15278": 3,
        "15279": 227,
        "15280": 37,
        "15281": 230,
        "15282": 98,
        "15283": 88,
        "15284": 229,
        "15285": 55,
        "15286": 154,
        "15287": 184,
        "15288": 167,
        "15289": 58,
        "15290": 234,
        "15291": 237,
        "15292": 117,
        "15293": 136,
        "15294": 31,
        "15295": 108,
        "15296": 102,
        "15297": 140,
        "15298": 37,
        "15299": 57,
        "15300": 113,
        "15301": 162,
        "15302": 156,
        "15303": 9,
        "15304": 129,
        "15305": 14,
        "15306": 81,
        "15307": 12,
        "15308": 84,
        "15309": 60,
        "15310": 125,
        "15311": 244,
        "15312": 155,
        "15313": 198,
        "15314": 252,
        "15315": 124,
        "15316": 203,
        "15317": 20,
        "15318": 81,
        "15319": 119,
        "15320": 165,
        "15321": 8,
        "15322": 233,
        "15323": 191,
        "15324": 175,
        "15325": 137,
        "15326": 42,
        "15327": 228,
        "15328": 117,
        "15329": 40,
        "15330": 115,
        "15331": 244,
        "15332": 231,
        "15333": 252,
        "15334": 167,
        "15335": 14,
        "15336": 248,
        "15337": 222,
        "15338": 142,
        "15339": 137,
        "15340": 0,
        "15341": 169,
        "15342": 194,
        "15343": 83,
        "15344": 181,
        "15345": 100,
        "15346": 221,
        "15347": 229,
        "15348": 175,
        "15349": 214,
        "15350": 151,
        "15351": 25,
        "15352": 30,
        "15353": 23,
        "15354": 100,
        "15355": 84,
        "15356": 109,
        "15357": 99,
        "15358": 40,
        "15359": 173,
        "15360": 140,
        "15361": 236,
        "15362": 157,
        "15363": 82,
        "15364": 51,
        "15365": 73,
        "15366": 253,
        "15367": 77,
        "15368": 139,
        "15369": 11,
        "15370": 54,
        "15371": 43,
        "15372": 65,
        "15373": 223,
        "15374": 209,
        "15375": 2,
        "15376": 226,
        "15377": 91,
        "15378": 49,
        "15379": 93,
        "15380": 162,
        "15381": 74,
        "15382": 143,
        "15383": 144,
        "15384": 122,
        "15385": 231,
        "15386": 248,
        "15387": 248,
        "15388": 15,
        "15389": 9,
        "15390": 246,
        "15391": 87,
        "15392": 165,
        "15393": 166,
        "15394": 108,
        "15395": 194,
        "15396": 84,
        "15397": 5,
        "15398": 199,
        "15399": 22,
        "15400": 121,
        "15401": 37,
        "15402": 46,
        "15403": 140,
        "15404": 22,
        "15405": 59,
        "15406": 207,
        "15407": 62,
        "15408": 7,
        "15409": 189,
        "15410": 12,
        "15411": 226,
        "15412": 87,
        "15413": 110,
        "15414": 80,
        "15415": 58,
        "15416": 130,
        "15417": 177,
        "15418": 225,
        "15419": 178,
        "15420": 35,
        "15421": 123,
        "15422": 231,
        "15423": 202,
        "15424": 137,
        "15425": 236,
        "15426": 66,
        "15427": 130,
        "15428": 208,
        "15429": 232,
        "15430": 45,
        "15431": 91,
        "15432": 19,
        "15433": 54,
        "15434": 112,
        "15435": 152,
        "15436": 3,
        "15437": 211,
        "15438": 87,
        "15439": 113,
        "15440": 128,
        "15441": 255,
        "15442": 175,
        "15443": 157,
        "15444": 211,
        "15445": 10,
        "15446": 129,
        "15447": 48,
        "15448": 202,
        "15449": 249,
        "15450": 128,
        "15451": 118,
        "15452": 255,
        "15453": 200,
        "15454": 85,
        "15455": 150,
        "15456": 136,
        "15457": 250,
        "15458": 24,
        "15459": 36,
        "15460": 18,
        "15461": 88,
        "15462": 13,
        "15463": 6,
        "15464": 161,
        "15465": 211,
        "15466": 80,
        "15467": 89,
        "15468": 76,
        "15469": 56,
        "15470": 82,
        "15471": 61,
        "15472": 89,
        "15473": 51,
        "15474": 98,
        "15475": 109,
        "15476": 128,
        "15477": 187,
        "15478": 209,
        "15479": 255,
        "15480": 34,
        "15481": 224,
        "15482": 213,
        "15483": 29,
        "15484": 90,
        "15485": 173,
        "15486": 140,
        "15487": 235,
        "15488": 230,
        "15489": 208,
        "15490": 126,
        "15491": 201,
        "15492": 93,
        "15493": 89,
        "15494": 161,
        "15495": 133,
        "15496": 86,
        "15497": 64,
        "15498": 45,
        "15499": 91,
        "15500": 76,
        "15501": 88,
        "15502": 90,
        "15503": 125,
        "15504": 113,
        "15505": 154,
        "15506": 56,
        "15507": 69,
        "15508": 173,
        "15509": 231,
        "15510": 8,
        "15511": 22,
        "15512": 220,
        "15513": 190,
        "15514": 191,
        "15515": 236,
        "15516": 218,
        "15517": 164,
        "15518": 194,
        "15519": 75,
        "15520": 202,
        "15521": 55,
        "15522": 247,
        "15523": 113,
        "15524": 89,
        "15525": 43,
        "15526": 23,
        "15527": 151,
        "15528": 108,
        "15529": 243,
        "15530": 16,
        "15531": 46,
        "15532": 223,
        "15533": 114,
        "15534": 239,
        "15535": 11,
        "15536": 143,
        "15537": 47,
        "15538": 224,
        "15539": 204,
        "15540": 48,
        "15541": 77,
        "15542": 35,
        "15543": 156,
        "15544": 35,
        "15545": 135,
        "15546": 251,
        "15547": 49,
        "15548": 141,
        "15549": 111,
        "15550": 182,
        "15551": 24,
        "15552": 106,
        "15553": 90,
        "15554": 44,
        "15555": 67,
        "15556": 69,
        "15557": 95,
        "15558": 166,
        "15559": 215,
        "15560": 248,
        "15561": 37,
        "15562": 153,
        "15563": 10,
        "15564": 223,
        "15565": 243,
        "15566": 182,
        "15567": 92,
        "15568": 3,
        "15569": 239,
        "15570": 182,
        "15571": 74,
        "15572": 51,
        "15573": 200,
        "15574": 57,
        "15575": 155,
        "15576": 179,
        "15577": 233,
        "15578": 114,
        "15579": 247,
        "15580": 74,
        "15581": 124,
        "15582": 192,
        "15583": 232,
        "15584": 56,
        "15585": 11,
        "15586": 24,
        "15587": 13,
        "15588": 65,
        "15589": 129,
        "15590": 201,
        "15591": 98,
        "15592": 166,
        "15593": 107,
        "15594": 197,
        "15595": 226,
        "15596": 103,
        "15597": 219,
        "15598": 111,
        "15599": 20,
        "15600": 216,
        "15601": 145,
        "15602": 93,
        "15603": 115,
        "15604": 116,
        "15605": 151,
        "15606": 118,
        "15607": 175,
        "15608": 159,
        "15609": 155,
        "15610": 113,
        "15611": 207,
        "15612": 248,
        "15613": 150,
        "15614": 103,
        "15615": 198,
        "15616": 223,
        "15617": 23,
        "15618": 112,
        "15619": 16,
        "15620": 3,
        "15621": 114,
        "15622": 177,
        "15623": 255,
        "15624": 163,
        "15625": 193,
        "15626": 85,
        "15627": 72,
        "15628": 168,
        "15629": 166,
        "15630": 133,
        "15631": 90,
        "15632": 198,
        "15633": 19,
        "15634": 220,
        "15635": 56,
        "15636": 32,
        "15637": 111,
        "15638": 64,
        "15639": 190,
        "15640": 184,
        "15641": 51,
        "15642": 229,
        "15643": 246,
        "15644": 145,
        "15645": 128,
        "15646": 123,
        "15647": 29,
        "15648": 91,
        "15649": 196,
        "15650": 54,
        "15651": 41,
        "15652": 73,
        "15653": 243,
        "15654": 154,
        "15655": 148,
        "15656": 27,
        "15657": 253,
        "15658": 128,
        "15659": 232,
        "15660": 92,
        "15661": 128,
        "15662": 215,
        "15663": 131,
        "15664": 244,
        "15665": 174,
        "15666": 226,
        "15667": 229,
        "15668": 48,
        "15669": 3,
        "15670": 22,
        "15671": 201,
        "15672": 160,
        "15673": 168,
        "15674": 53,
        "15675": 216,
        "15676": 94,
        "15677": 174,
        "15678": 44,
        "15679": 94,
        "15680": 189,
        "15681": 31,
        "15682": 122,
        "15683": 237,
        "15684": 2,
        "15685": 35,
        "15686": 93,
        "15687": 60,
        "15688": 28,
        "15689": 194,
        "15690": 84,
        "15691": 157,
        "15692": 136,
        "15693": 200,
        "15694": 187,
        "15695": 130,
        "15696": 218,
        "15697": 45,
        "15698": 62,
        "15699": 240,
        "15700": 0,
        "15701": 116,
        "15702": 43,
        "15703": 119,
        "15704": 228,
        "15705": 202,
        "15706": 167,
        "15707": 204,
        "15708": 228,
        "15709": 102,
        "15710": 156,
        "15711": 249,
        "15712": 88,
        "15713": 203,
        "15714": 117,
        "15715": 67,
        "15716": 222,
        "15717": 148,
        "15718": 156,
        "15719": 148,
        "15720": 60,
        "15721": 203,
        "15722": 105,
        "15723": 12,
        "15724": 166,
        "15725": 94,
        "15726": 252,
        "15727": 199,
        "15728": 167,
        "15729": 50,
        "15730": 182,
        "15731": 24,
        "15732": 120,
        "15733": 74,
        "15734": 112,
        "15735": 69,
        "15736": 166,
        "15737": 29,
        "15738": 236,
        "15739": 202,
        "15740": 59,
        "15741": 83,
        "15742": 245,
        "15743": 26,
        "15744": 148,
        "15745": 21,
        "15746": 213,
        "15747": 138,
        "15748": 119,
        "15749": 37,
        "15750": 22,
        "15751": 204,
        "15752": 250,
        "15753": 12,
        "15754": 151,
        "15755": 132,
        "15756": 104,
        "15757": 163,
        "15758": 242,
        "15759": 84,
        "15760": 104,
        "15761": 201,
        "15762": 179,
        "15763": 223,
        "15764": 189,
        "15765": 148,
        "15766": 2,
        "15767": 83,
        "15768": 215,
        "15769": 128,
        "15770": 159,
        "15771": 75,
        "15772": 148,
        "15773": 150,
        "15774": 77,
        "15775": 152,
        "15776": 34,
        "15777": 162,
        "15778": 73,
        "15779": 216,
        "15780": 76,
        "15781": 107,
        "15782": 72,
        "15783": 195,
        "15784": 56,
        "15785": 189,
        "15786": 29,
        "15787": 175,
        "15788": 210,
        "15789": 119,
        "15790": 72,
        "15791": 153,
        "15792": 253,
        "15793": 254,
        "15794": 30,
        "15795": 231,
        "15796": 205,
        "15797": 83,
        "15798": 255,
        "15799": 95,
        "15800": 83,
        "15801": 252,
        "15802": 44,
        "15803": 134,
        "15804": 178,
        "15805": 212,
        "15806": 162,
        "15807": 156,
        "15808": 169,
        "15809": 59,
        "15810": 55,
        "15811": 113,
        "15812": 172,
        "15813": 31,
        "15814": 191,
        "15815": 101,
        "15816": 148,
        "15817": 106,
        "15818": 39,
        "15819": 197,
        "15820": 187,
        "15821": 162,
        "15822": 12,
        "15823": 103,
        "15824": 134,
        "15825": 197,
        "15826": 113,
        "15827": 38,
        "15828": 100,
        "15829": 21,
        "15830": 151,
        "15831": 239,
        "15832": 6,
        "15833": 102,
        "15834": 145,
        "15835": 245,
        "15836": 121,
        "15837": 66,
        "15838": 95,
        "15839": 189,
        "15840": 214,
        "15841": 30,
        "15842": 119,
        "15843": 219,
        "15844": 205,
        "15845": 78,
        "15846": 190,
        "15847": 142,
        "15848": 159,
        "15849": 86,
        "15850": 47,
        "15851": 105,
        "15852": 211,
        "15853": 23,
        "15854": 181,
        "15855": 252,
        "15856": 150,
        "15857": 179,
        "15858": 83,
        "15859": 89,
        "15860": 149,
        "15861": 94,
        "15862": 151,
        "15863": 35,
        "15864": 112,
        "15865": 51,
        "15866": 175,
        "15867": 203,
        "15868": 20,
        "15869": 6,
        "15870": 48,
        "15871": 12,
        "15872": 174,
        "15873": 16,
        "15874": 146,
        "15875": 198,
        "15876": 55,
        "15877": 173,
        "15878": 217,
        "15879": 175,
        "15880": 56,
        "15881": 121,
        "15882": 209,
        "15883": 137,
        "15884": 66,
        "15885": 20,
        "15886": 36,
        "15887": 73,
        "15888": 40,
        "15889": 159,
        "15890": 116,
        "15891": 141,
        "15892": 36,
        "15893": 182,
        "15894": 97,
        "15895": 253,
        "15896": 192,
        "15897": 106,
        "15898": 176,
        "15899": 122,
        "15900": 246,
        "15901": 228,
        "15902": 39,
        "15903": 84,
        "15904": 90,
        "15905": 102,
        "15906": 96,
        "15907": 79,
        "15908": 240,
        "15909": 24,
        "15910": 148,
        "15911": 110,
        "15912": 203,
        "15913": 65,
        "15914": 112,
        "15915": 129,
        "15916": 58,
        "15917": 44,
        "15918": 23,
        "15919": 145,
        "15920": 112,
        "15921": 89,
        "15922": 121,
        "15923": 220,
        "15924": 189,
        "15925": 140,
        "15926": 157,
        "15927": 109,
        "15928": 138,
        "15929": 210,
        "15930": 24,
        "15931": 127,
        "15932": 29,
        "15933": 22,
        "15934": 82,
        "15935": 45,
        "15936": 78,
        "15937": 6,
        "15938": 14,
        "15939": 57,
        "15940": 103,
        "15941": 233,
        "15942": 8,
        "15943": 145,
        "15944": 149,
        "15945": 224,
        "15946": 133,
        "15947": 14,
        "15948": 42,
        "15949": 219,
        "15950": 66,
        "15951": 132,
        "15952": 85,
        "15953": 210,
        "15954": 240,
        "15955": 185,
        "15956": 254,
        "15957": 163,
        "15958": 43,
        "15959": 28,
        "15960": 8,
        "15961": 136,
        "15962": 98,
        "15963": 92,
        "15964": 72,
        "15965": 138,
        "15966": 230,
        "15967": 87,
        "15968": 59,
        "15969": 15,
        "15970": 93,
        "15971": 89,
        "15972": 166,
        "15973": 68,
        "15974": 228,
        "15975": 108,
        "15976": 81,
        "15977": 191,
        "15978": 221,
        "15979": 13,
        "15980": 218,
        "15981": 98,
        "15982": 145,
        "15983": 224,
        "15984": 128,
        "15985": 66,
        "15986": 86,
        "15987": 223,
        "15988": 119,
        "15989": 215,
        "15990": 76,
        "15991": 192,
        "15992": 203,
        "15993": 254,
        "15994": 205,
        "15995": 201,
        "15996": 193,
        "15997": 118,
        "15998": 206,
        "15999": 152,
        "16000": 41,
        "16001": 235,
        "16002": 167,
        "16003": 130,
        "16004": 13,
        "16005": 22,
        "16006": 236,
        "16007": 16,
        "16008": 9,
        "16009": 70,
        "16010": 15,
        "16011": 229,
        "16012": 212,
        "16013": 119,
        "16014": 129,
        "16015": 240,
        "16016": 168,
        "16017": 112,
        "16018": 182,
        "16019": 241,
        "16020": 44,
        "16021": 0,
        "16022": 132,
        "16023": 135,
        "16024": 197,
        "16025": 141,
        "16026": 156,
        "16027": 205,
        "16028": 124,
        "16029": 89,
        "16030": 39,
        "16031": 165,
        "16032": 153,
        "16033": 3,
        "16034": 241,
        "16035": 19,
        "16036": 78,
        "16037": 92,
        "16038": 90,
        "16039": 130,
        "16040": 75,
        "16041": 46,
        "16042": 154,
        "16043": 139,
        "16044": 250,
        "16045": 99,
        "16046": 8,
        "16047": 67,
        "16048": 250,
        "16049": 98,
        "16050": 177,
        "16051": 219,
        "16052": 229,
        "16053": 140,
        "16054": 153,
        "16055": 187,
        "16056": 27,
        "16057": 244,
        "16058": 11,
        "16059": 170,
        "16060": 141,
        "16061": 223,
        "16062": 80,
        "16063": 239,
        "16064": 82,
        "16065": 17,
        "16066": 166,
        "16067": 82,
        "16068": 254,
        "16069": 15,
        "16070": 147,
        "16071": 205,
        "16072": 62,
        "16073": 56,
        "16074": 107,
        "16075": 23,
        "16076": 7,
        "16077": 22,
        "16078": 225,
        "16079": 66,
        "16080": 45,
        "16081": 16,
        "16082": 168,
        "16083": 60,
        "16084": 106,
        "16085": 58,
        "16086": 19,
        "16087": 164,
        "16088": 51,
        "16089": 199,
        "16090": 149,
        "16091": 6,
        "16092": 254,
        "16093": 166,
        "16094": 78,
        "16095": 93,
        "16096": 182,
        "16097": 151,
        "16098": 80,
        "16099": 135,
        "16100": 131,
        "16101": 198,
        "16102": 73,
        "16103": 15,
        "16104": 162,
        "16105": 86,
        "16106": 91,
        "16107": 57,
        "16108": 108,
        "16109": 152,
        "16110": 210,
        "16111": 220,
        "16112": 22,
        "16113": 36,
        "16114": 33,
        "16115": 23,
        "16116": 101,
        "16117": 225,
        "16118": 74,
        "16119": 20,
        "16120": 141,
        "16121": 91,
        "16122": 247,
        "16123": 132,
        "16124": 25,
        "16125": 178,
        "16126": 173,
        "16127": 179,
        "16128": 9,
        "16129": 204,
        "16130": 190,
        "16131": 33,
        "16132": 231,
        "16133": 149,
        "16134": 126,
        "16135": 231,
        "16136": 105,
        "16137": 175,
        "16138": 232,
        "16139": 121,
        "16140": 142,
        "16141": 35,
        "16142": 130,
        "16143": 176,
        "16144": 147,
        "16145": 201,
        "16146": 219,
        "16147": 36,
        "16148": 216,
        "16149": 249,
        "16150": 181,
        "16151": 19,
        "16152": 216,
        "16153": 152,
        "16154": 45,
        "16155": 191,
        "16156": 147,
        "16157": 184,
        "16158": 147,
        "16159": 154,
        "16160": 70,
        "16161": 108,
        "16162": 96,
        "16163": 241,
        "16164": 135,
        "16165": 206,
        "16166": 152,
        "16167": 201,
        "16168": 220,
        "16169": 23,
        "16170": 40,
        "16171": 94,
        "16172": 185,
        "16173": 197,
        "16174": 0,
        "16175": 35,
        "16176": 144,
        "16177": 197,
        "16178": 142,
        "16179": 70,
        "16180": 106,
        "16181": 92,
        "16182": 206,
        "16183": 62,
        "16184": 213,
        "16185": 175,
        "16186": 68,
        "16187": 201,
        "16188": 221,
        "16189": 203,
        "16190": 35,
        "16191": 193,
        "16192": 128,
        "16193": 246,
        "16194": 213,
        "16195": 140,
        "16196": 102,
        "16197": 125,
        "16198": 77,
        "16199": 245,
        "16200": 122,
        "16201": 220,
        "16202": 41,
        "16203": 18,
        "16204": 228,
        "16205": 206,
        "16206": 93,
        "16207": 134,
        "16208": 219,
        "16209": 37,
        "16210": 174,
        "16211": 39,
        "16212": 54,
        "16213": 210,
        "16214": 198,
        "16215": 225,
        "16216": 177,
        "16217": 119,
        "16218": 116,
        "16219": 254,
        "16220": 218,
        "16221": 91,
        "16222": 13,
        "16223": 1,
        "16224": 76,
        "16225": 87,
        "16226": 102,
        "16227": 137,
        "16228": 175,
        "16229": 253,
        "16230": 139,
        "16231": 110,
        "16232": 88,
        "16233": 138,
        "16234": 220,
        "16235": 167,
        "16236": 128,
        "16237": 254,
        "16238": 146,
        "16239": 158,
        "16240": 151,
        "16241": 56,
        "16242": 114,
        "16243": 32,
        "16244": 18,
        "16245": 154,
        "16246": 164,
        "16247": 198,
        "16248": 3,
        "16249": 198,
        "16250": 221,
        "16251": 211,
        "16252": 131,
        "16253": 251,
        "16254": 57,
        "16255": 80,
        "16256": 150,
        "16257": 156,
        "16258": 145,
        "16259": 44,
        "16260": 130,
        "16261": 120,
        "16262": 215,
        "16263": 64,
        "16264": 171,
        "16265": 88,
        "16266": 91,
        "16267": 150,
        "16268": 144,
        "16269": 6,
        "16270": 246,
        "16271": 207,
        "16272": 178,
        "16273": 136,
        "16274": 74,
        "16275": 255,
        "16276": 189,
        "16277": 177,
        "16278": 156,
        "16279": 42,
        "16280": 3,
        "16281": 159,
        "16282": 19,
        "16283": 104,
        "16284": 70,
        "16285": 73,
        "16286": 20,
        "16287": 137,
        "16288": 246,
        "16289": 18,
        "16290": 83,
        "16291": 219,
        "16292": 155,
        "16293": 173,
        "16294": 162,
        "16295": 183,
        "16296": 86,
        "16297": 1,
        "16298": 54,
        "16299": 213,
        "16300": 64,
        "16301": 175,
        "16302": 38,
        "16303": 58,
        "16304": 213,
        "16305": 143,
        "16306": 223,
        "16307": 170,
        "16308": 69,
        "16309": 55,
        "16310": 254,
        "16311": 5,
        "16312": 247,
        "16313": 252,
        "16314": 141,
        "16315": 125,
        "16316": 167,
        "16317": 68,
        "16318": 60,
        "16319": 254,
        "16320": 233,
        "16321": 40,
        "16322": 152,
        "16323": 254,
        "16324": 243,
        "16325": 108,
        "16326": 236,
        "16327": 13,
        "16328": 253,
        "16329": 148,
        "16330": 169,
        "16331": 35,
        "16332": 172,
        "16333": 251,
        "16334": 33,
        "16335": 170,
        "16336": 89,
        "16337": 167,
        "16338": 176,
        "16339": 208,
        "16340": 38,
        "16341": 110,
        "16342": 4,
        "16343": 93,
        "16344": 124,
        "16345": 219,
        "16346": 5,
        "16347": 195,
        "16348": 73,
        "16349": 97,
        "16350": 242,
        "16351": 139,
        "16352": 5,
        "16353": 20,
        "16354": 248,
        "16355": 112,
        "16356": 28,
        "16357": 74,
        "16358": 72,
        "16359": 169,
        "16360": 63,
        "16361": 106,
        "16362": 73,
        "16363": 108,
        "16364": 76,
        "16365": 154,
        "16366": 54,
        "16367": 181,
        "16368": 83,
        "16369": 27,
        "16370": 121,
        "16371": 15,
        "16372": 233,
        "16373": 182,
        "16374": 16,
        "16375": 3,
        "16376": 114,
        "16377": 212,
        "16378": 176,
        "16379": 226,
        "16380": 102,
        "16381": 53,
        "16382": 122,
        "16383": 234,
        "16384": 167,
        "16385": 187,
        "16386": 114,
        "16387": 243,
        "16388": 177,
        "16389": 46,
        "16390": 91,
        "16391": 50,
        "16392": 191,
        "16393": 128,
        "16394": 35,
        "16395": 245,
        "16396": 60,
        "16397": 234,
        "16398": 242,
        "16399": 238,
        "16400": 169,
        "16401": 138,
        "16402": 191,
        "16403": 6,
        "16404": 245,
        "16405": 17,
        "16406": 73,
        "16407": 110,
        "16408": 63,
        "16409": 221,
        "16410": 250,
        "16411": 141,
        "16412": 12,
        "16413": 189,
        "16414": 195,
        "16415": 232,
        "16416": 48,
        "16417": 86,
        "16418": 57,
        "16419": 163,
        "16420": 73,
        "16421": 69,
        "16422": 51,
        "16423": 189,
        "16424": 158,
        "16425": 69,
        "16426": 161,
        "16427": 221,
        "16428": 82,
        "16429": 174,
        "16430": 91,
        "16431": 255,
        "16432": 207,
        "16433": 107,
        "16434": 222,
        "16435": 54,
        "16436": 145,
        "16437": 215,
        "16438": 127,
        "16439": 182,
        "16440": 198,
        "16441": 33,
        "16442": 46,
        "16443": 144,
        "16444": 148,
        "16445": 134,
        "16446": 104,
        "16447": 143,
        "16448": 169,
        "16449": 194,
        "16450": 120,
        "16451": 119,
        "16452": 207,
        "16453": 133,
        "16454": 43,
        "16455": 9,
        "16456": 74,
        "16457": 210,
        "16458": 70,
        "16459": 209,
        "16460": 217,
        "16461": 111,
        "16462": 213,
        "16463": 66,
        "16464": 237,
        "16465": 222,
        "16466": 82,
        "16467": 57,
        "16468": 95,
        "16469": 42,
        "16470": 113,
        "16471": 38,
        "16472": 239,
        "16473": 24,
        "16474": 247,
        "16475": 232,
        "16476": 15,
        "16477": 72,
        "16478": 17,
        "16479": 197,
        "16480": 243,
        "16481": 163,
        "16482": 89,
        "16483": 33,
        "16484": 193,
        "16485": 138,
        "16486": 111,
        "16487": 78,
        "16488": 100,
        "16489": 232,
        "16490": 184,
        "16491": 164,
        "16492": 231,
        "16493": 207,
        "16494": 37,
        "16495": 211,
        "16496": 100,
        "16497": 61,
        "16498": 85,
        "16499": 57,
        "16500": 70,
        "16501": 118,
        "16502": 135,
        "16503": 230,
        "16504": 70,
        "16505": 6,
        "16506": 142,
        "16507": 67,
        "16508": 218,
        "16509": 92,
        "16510": 6,
        "16511": 87,
        "16512": 220,
        "16513": 126,
        "16514": 30,
        "16515": 140,
        "16516": 78,
        "16517": 222,
        "16518": 66,
        "16519": 190,
        "16520": 1,
        "16521": 8,
        "16522": 0,
        "16523": 0,
        "16524": 0,
        "16525": 0,
        "16526": 0,
        "16527": 0,
        "16528": 16,
        "16529": 0,
        "16530": 0,
        "16531": 0,
        "16532": 0,
        "16533": 0,
        "16534": 0,
        "16535": 0,
        "16536": 0,
        "16537": 0,
        "16538": 0,
        "16539": 0,
        "16540": 0,
        "16541": 0,
        "16542": 0,
        "16543": 0,
        "16544": 0,
        "16545": 0,
        "16546": 0,
        "16547": 0,
        "16548": 0,
        "16549": 0,
        "16550": 0,
        "16551": 0,
        "16552": 64,
        "16553": 0,
        "16554": 0,
        "16555": 0,
        "16556": 0,
        "16557": 0,
        "16558": 0,
        "16559": 0,
        "16560": 3,
        "16561": 0,
        "16562": 0,
        "16563": 0,
        "16564": 0,
        "16565": 0,
        "16566": 0,
        "16567": 0,
        "16568": 4,
        "16569": 0,
        "16570": 0,
        "16571": 0,
        "16572": 0,
        "16573": 0,
        "16574": 0,
        "16575": 0,
        "16576": 4,
        "16577": 0,
        "16578": 0,
        "16579": 0,
        "16580": 0,
        "16581": 0,
        "16582": 0,
        "16583": 0,
        "16584": 0,
        "16585": 0,
        "16586": 0,
        "16587": 0,
        "16588": 1,
        "16589": 0,
        "16590": 0,
        "16591": 0,
        "16592": 0,
        "16593": 0,
        "16594": 0,
        "16595": 0,
        "16596": 16,
        "16597": 0,
        "16598": 0,
        "16599": 0,
        "16600": 0,
        "16601": 0,
        "16602": 0,
        "16603": 0
      }
    }
  ],
  "numDeployments": 1,
  "solcInputHash": "c0e889dcb69b76266f445d0fe3402b92",
  "bytecode": "0x6101606040526200001760006200026660201b60201c565b6002553480156200002757600080fd5b50604051620046173803806200461783398181016040528101906200004d919062000b83565b6040518060400160405280600881526020017f46616b65205553440000000000000000000000000000000000000000000000008152506040518060400160405280600481526020017f6655534400000000000000000000000000000000000000000000000000000000815250338383836040518060400160405280601181526020017f4668656e6978205065726d697373696f6e0000000000000000000000000000008152506040518060400160405280600381526020017f312e3000000000000000000000000000000000000000000000000000000000008152506200013f6000836200028260201b90919060201c565b61012081815250506200015d6001826200028260201b90919060201c565b6101408181525050818051906020012060e08181525050808051906020012061010081815250504660a081815250506200019c620002da60201b60201c565b608081815250503073ffffffffffffffffffffffffffffffffffffffff1660c08173ffffffffffffffffffffffffffffffffffffffff168152505050508160059081620001ea919062000e1f565b508060069081620001fc919062000e1f565b505050600062000212826200033760201b60201c565b9050620002486200023c8262000230617fff6200026660201b60201c565b6200035560201b60201c565b620003f860201b60201c565b6200025a8382620004cb60201b60201c565b50505050505062001260565b60006200027b8260026200057160201b60201c565b9050919050565b6000602083511015620002a857620002a0836200062860201b60201c565b9050620002d4565b82620002ba836200069560201b60201c565b6000019081620002cb919062000e1f565b5060ff60001b90505b92915050565b60007f8b73c3c69bb8fe3d512ecc4cf759cc79239f7b179b0ffacaa9a75d522b39400f60e0516101005146306040516020016200031c95949392919062000f77565b60405160208183030381529060405280519060200120905090565b60006200034e82600001516200069f60201b60201c565b9050919050565b60006200036883620006bb60201b60201c565b62000382576200037f60006200026660201b60201c565b92505b6200039382620006bb60201b60201c565b620003ad57620003aa60006200026660201b60201c565b91505b600083905060008390506000620003ea60028484608073ffffffffffffffffffffffffffffffffffffffff1663eb274b77620006c860201b60201c565b905080935050505092915050565b62000409816200077960201b60201c565b62000423576200042060006200078660201b60201c565b90505b600081905060006200043b82620007a260201b60201c565b9050608073ffffffffffffffffffffffffffffffffffffffff16637d23f1db600d836040518363ffffffff1660e01b81526004016200047c9291906200104f565b600060405180830381865afa1580156200049a573d6000803e3d6000fd5b505050506040513d6000823e3d601f19601f82011682018060405250810190620004c5919062001083565b50505050565b62000516600360008473ffffffffffffffffffffffffffffffffffffffff1673ffffffffffffffffffffffffffffffffffffffff168152602001908152602001600020548262000803565b600360008473ffffffffffffffffffffffffffffffffffffffff1673ffffffffffffffffffffffffffffffffffffffff16815260200190815260200160002081905550620005676002548262000803565b6002819055505050565b60006060608073ffffffffffffffffffffffffffffffffffffffff166319e1c5c4620005a386620007a260201b60201c565b856040518363ffffffff1660e01b8152600401620005c3929190620010d4565b600060405180830381865afa158015620005e1573d6000803e3d6000fd5b505050506040513d6000823e3d601f19601f820116820180604052508101906200060c919062001083565b90506200061f816200081f60201b60201c565b91505092915050565b600080829050601f815111156200067857826040517f305a27a90000000000000000000000000000000000000000000000000000000081526004016200066f91906200115a565b60405180910390fd5b8051816200068690620011a5565b60001c1760001b915050919050565b6000819050919050565b6000620006b48260026200082d60201b60201c565b9050919050565b6000808214159050919050565b60006060838388620006e089620007a260201b60201c565b620006f189620007a260201b60201c565b6040518463ffffffff1660e01b8152600401620007119392919062001215565b600060405180830381865afa1580156200072f573d6000803e3d6000fd5b505050506040513d6000823e3d601f19601f820116820180604052508101906200075a919062001083565b90506200076d81620008d460201b60201c565b91505095945050505050565b6000808214159050919050565b60006200079b82600d6200057160201b60201c565b9050919050565b6060602067ffffffffffffffff811115620007c257620007c1620009ae565b5b6040519080825280601f01601f191660200182016040528015620007f55781602001600182028036833780820191505090505b509050816020820152919050565b6000620008178383620008e260201b60201c565b905092915050565b600060208201519050919050565b60006060608073ffffffffffffffffffffffffffffffffffffffff16635fa55ca784866040518363ffffffff1660e01b81526004016200086f9291906200104f565b600060405180830381865afa1580156200088d573d6000803e3d6000fd5b505050506040513d6000823e3d601f19601f82011682018060405250810190620008b8919062001083565b9050620008cb816200081f60201b60201c565b91505092915050565b600060208201519050919050565b6000620008f583620006bb60201b60201c565b6200090f576200090c60006200026660201b60201c565b92505b6200092082620006bb60201b60201c565b6200093a576200093760006200026660201b60201c565b91505b6000839050600083905060006200097660028484608073ffffffffffffffffffffffffffffffffffffffff16622df619620006c860201b60201c565b905080935050505092915050565b6000604051905090565b600080fd5b600080fd5b600080fd5b6000601f19601f8301169050919050565b7f4e487b7100000000000000000000000000000000000000000000000000000000600052604160045260246000fd5b620009e8826200099d565b810181811067ffffffffffffffff8211171562000a0a5762000a09620009ae565b5b80604052505050565b600062000a1f62000984565b905062000a2d8282620009dd565b919050565b600080fd5b600080fd5b600080fd5b600067ffffffffffffffff82111562000a5f5762000a5e620009ae565b5b62000a6a826200099d565b9050602081019050919050565b60005b8381101562000a9757808201518184015260208101905062000a7a565b60008484015250505050565b600062000aba62000ab48462000a41565b62000a13565b90508281526020810184848401111562000ad95762000ad862000a3c565b5b62000ae684828562000a77565b509392505050565b600082601f83011262000b065762000b0562000a37565b5b815162000b1884826020860162000aa3565b91505092915050565b60006020828403121562000b3a5762000b3962000998565b5b62000b46602062000a13565b9050600082015167ffffffffffffffff81111562000b695762000b6862000a32565b5b62000b778482850162000aee565b60008301525092915050565b60006020828403121562000b9c5762000b9b6200098e565b5b600082015167ffffffffffffffff81111562000bbd5762000bbc62000993565b5b62000bcb8482850162000b21565b91505092915050565b600081519050919050565b7f4e487b7100000000000000000000000000000000000000000000000000000000600052602260045260246000fd5b6000600282049050600182168062000c2757607f821691505b60208210810362000c3d5762000c3c62000bdf565b5b50919050565b60008190508160005260206000209050919050565b60006020601f8301049050919050565b600082821b905092915050565b60006008830262000ca77fffffffffffffffffffffffffffffffffffffffffffffffffffffffffffffffff8262000c68565b62000cb3868362000c68565b95508019841693508086168417925050509392505050565b6000819050919050565b6000819050919050565b600062000d0062000cfa62000cf48462000ccb565b62000cd5565b62000ccb565b9050919050565b6000819050919050565b62000d1c8362000cdf565b62000d3462000d2b8262000d07565b84845462000c75565b825550505050565b600090565b62000d4b62000d3c565b62000d5881848462000d11565b505050565b5b8181101562000d805762000d7460008262000d41565b60018101905062000d5e565b5050565b601f82111562000dcf5762000d998162000c43565b62000da48462000c58565b8101602085101562000db4578190505b62000dcc62000dc38562000c58565b83018262000d5d565b50505b505050565b600082821c905092915050565b600062000df46000198460080262000dd4565b1980831691505092915050565b600062000e0f838362000de1565b9150826002028217905092915050565b62000e2a8262000bd4565b67ffffffffffffffff81111562000e465762000e45620009ae565b5b62000e52825462000c0e565b62000e5f82828562000d84565b600060209050601f83116001811462000e97576000841562000e82578287015190505b62000e8e858262000e01565b86555062000efe565b601f19841662000ea78662000c43565b60005b8281101562000ed15784890151825560018201915060208501945060208101905062000eaa565b8683101562000ef1578489015162000eed601f89168262000de1565b8355505b6001600288020188555050505b505050505050565b6000819050919050565b62000f1b8162000f06565b82525050565b62000f2c8162000ccb565b82525050565b600073ffffffffffffffffffffffffffffffffffffffff82169050919050565b600062000f5f8262000f32565b9050919050565b62000f718162000f52565b82525050565b600060a08201905062000f8e600083018862000f10565b62000f9d602083018762000f10565b62000fac604083018662000f10565b62000fbb606083018562000f21565b62000fca608083018462000f66565b9695505050505050565b600060ff82169050919050565b62000fec8162000fd4565b82525050565b600081519050919050565b600082825260208201905092915050565b60006200101b8262000ff2565b62001027818562000ffd565b93506200103981856020860162000a77565b62001044816200099d565b840191505092915050565b600060408201905062001066600083018562000fe1565b81810360208301526200107a81846200100e565b90509392505050565b6000602082840312156200109c576200109b6200098e565b5b600082015167ffffffffffffffff811115620010bd57620010bc62000993565b5b620010cb8482850162000aee565b91505092915050565b60006040820190508181036000830152620010f081856200100e565b905062001101602083018462000fe1565b9392505050565b600082825260208201905092915050565b6000620011268262000bd4565b62001132818562001108565b93506200114481856020860162000a77565b6200114f816200099d565b840191505092915050565b6000602082019050818103600083015262001176818462001119565b905092915050565b6000819050602082019050919050565b60006200119c825162000f06565b80915050919050565b6000620011b28262000ff2565b82620011be846200117e565b9050620011cb816200118e565b925060208210156200120e57620012097fffffffffffffffffffffffffffffffffffffffffffffffffffffffffffffffff8360200360080262000c68565b831692505b5050919050565b60006060820190506200122c600083018662000fe1565b81810360208301526200124081856200100e565b905081810360408301526200125681846200100e565b9050949350505050565b60805160a05160c05160e05161010051610120516101405161335c620012bb60003960006118f5015260006118ba0152600061217f0152600061215e015260006119ea01526000611a4001526000611a69015261335c6000f3fe608060405234801561001057600080fd5b50600436106101425760003560e01c80637ecebe00116100b8578063a9059cbb1161007c578063a9059cbb146103b9578063af575a00146103e9578063c4224c1914610419578063d505accf14610449578063d918156e14610465578063dd62ed3e1461049557610142565b80637ecebe00146102fb57806384b0196e1461032b5780638624a3491461034f57806395d89b411461037f5780639f284be71461039d57610142565b80633644e5151161010a5780633644e5151461020157806339c217f71461021f5780635356c4291461024f578063602772041461027f5780636e0505e1146102af57806370a08231146102cb57610142565b806306fdde0314610147578063095ea7b31461016557806318160ddd1461019557806323b872dd146101b3578063313ce567146101e3575b600080fd5b61014f6104c5565b60405161015c9190612433565b60405180910390f35b61017f600480360381019061017a91906124fd565b610557565b60405161018c9190612558565b60405180910390f35b61019d6105ab565b6040516101aa9190612582565b60405180910390f35b6101cd60048036038101906101c8919061259d565b6105bd565b6040516101da9190612558565b60405180910390f35b6101eb610692565b6040516101f8919061260c565b60405180910390f35b610209610697565b6040516102169190612640565b60405180910390f35b6102396004803603810190610234919061267f565b610729565b6040516102469190612716565b60405180910390f35b61026960048036038101906102649190612750565b61074e565b6040516102769190612433565b60405180910390f35b61029960048036038101906102949190612983565b6108bf565b6040516102a69190612433565b60405180910390f35b6102c960048036038101906102c49190612a1b565b6109ec565b005b6102e560048036038101906102e09190612a48565b610b01565b6040516102f29190612582565b60405180910390f35b61031560048036038101906103109190612a48565b610b1c565b6040516103229190612582565b60405180910390f35b610333610b37565b6040516103469796959493929190612b7d565b60405180910390f35b61036960048036038101906103649190612c01565b610be1565b6040516103769190612716565b60405180910390f35b610387610c08565b6040516103949190612433565b60405180910390f35b6103b760048036038101906103b29190612a1b565b610c9a565b005b6103d360048036038101906103ce91906124fd565b610da7565b6040516103e09190612558565b60405180910390f35b61040360048036038101906103fe9190612c9c565b610e39565b6040516104109190612716565b60405180910390f35b610433600480360381019061042e9190612cef565b61118f565b6040516104409190612716565b60405180910390f35b610463600480360381019061045e9190612d5b565b611359565b005b61047f600480360381019061047a919061267f565b6114fd565b60405161048c9190612558565b60405180910390f35b6104af60048036038101906104aa9190612dfd565b6115f5565b6040516104bc9190612582565b60405180910390f35b6060600580546104d490612e6c565b80601f016020809104026020016040519081016040528092919081815260200182805461050090612e6c565b801561054d5780601f106105225761010080835404028352916020019161054d565b820191906000526020600020905b81548152906001019060200180831161053057829003601f168201915b5050505050905090565b600082602052637f5e9f20600c5233600052816034600c205581600052602c5160601c337f8c5be1e5ebec7d5bd14f71427d1e84f3dd0314c0f7b2291e5b200ac8c7c3b92560206000a36001905092915050565b60006805345cdf77eb68f44c54905090565b60006105ca848484611615565b8360601b33602052637f5e9f208117600c526034600c20805460018101156106085780851115610602576313be252b6000526004601cfd5b84810382555b6387a211a28317600c526020600c2080548087111561062f5763f4d678b86000526004601cfd5b8681038255876000526020600c2087815401815587602052600c5160601c8660601c7fddf252ad1be2c89b69c2b068fc378daa952ba7f163c4a11628f55a4df523b3ef602080a350505050505061068784848461161a565b600190509392505050565b600090565b6000806106a261161f565b90506000801b81036106c0576106b66104c5565b8051906020012090505b6040517f8b73c3c69bb8fe3d512ecc4cf759cc79239f7b179b0ffacaa9a75d522b39400f81528160208201527fc89efdaa54c0f20c7adf612882df0950f5a951637e0307cdcb4c672f298b8bc6604082015246606082015230608082015260a081209250505090565b6000610746836107418461073c90612ef5565b611624565b61118f565b905092915050565b60608161075a90612f08565b60006107b17f6bdaeb2d29561f159c7ef98b16b27015fb2aeb87209c7ee656226d912f59927d8360000151604051602001610796929190612f1b565b6040516020818303038152906040528051906020012061163a565b905060006107c3828460200151611654565b90503373ffffffffffffffffffffffffffffffffffffffff168173ffffffffffffffffffffffffffffffffffffffff161461082a576040517f3093a27700000000000000000000000000000000000000000000000000000000815260040160405180910390fd5b6108b4600460003373ffffffffffffffffffffffffffffffffffffffff1673ffffffffffffffffffffffffffffffffffffffff16815260200190815260200160002060008873ffffffffffffffffffffffffffffffffffffffff1673ffffffffffffffffffffffffffffffffffffffff168152602001908152602001600020548660000135611680565b935050505092915050565b60608183600061091a7f6bdaeb2d29561f159c7ef98b16b27015fb2aeb87209c7ee656226d912f59927d84600001516040516020016108ff929190612f1b565b6040516020818303038152906040528051906020012061163a565b9050600061092c828560200151611654565b90508273ffffffffffffffffffffffffffffffffffffffff168173ffffffffffffffffffffffffffffffffffffffff1614610993576040517f51c65eae00000000000000000000000000000000000000000000000000000000815260040160405180910390fd5b6109e0600360008973ffffffffffffffffffffffffffffffffffffffff1673ffffffffffffffffffffffffffffffffffffffff168152602001908152602001600020548760000151611680565b94505050505092915050565b6000610a45610a008363ffffffff166116b6565b600360003373ffffffffffffffffffffffffffffffffffffffff1673ffffffffffffffffffffffffffffffffffffffff168152602001908152602001600020546116ca565b9050610a90600360003373ffffffffffffffffffffffffffffffffffffffff1673ffffffffffffffffffffffffffffffffffffffff1681526020019081526020016000205482611743565b600360003373ffffffffffffffffffffffffffffffffffffffff1673ffffffffffffffffffffffffffffffffffffffff16815260200190815260200160002081905550610adf60025482611743565b600281905550610afd33610af283611757565b63ffffffff1661181a565b5050565b60006387a211a2600c52816000526020600c20549050919050565b60006338377508600c52816000526020600c20549050919050565b600060608060008060006060610b4b6118b1565b610b536118ec565b46306000801b600067ffffffffffffffff811115610b7457610b736127b1565b5b604051908082528060200260200182016040528015610ba25781602001602082028036833780820191505090505b507f0f00000000000000000000000000000000000000000000000000000000000000959493929190965096509650965096509650965090919293949596565b6000610bff8484610bfa85610bf590612ef5565b611624565b610e39565b90509392505050565b606060068054610c1790612e6c565b80601f0160208091040260200160405190810160405280929190818152602001828054610c4390612e6c565b8015610c905780601f10610c6557610100808354040283529160200191610c90565b820191906000526020600020905b815481529060010190602001808311610c7357829003601f168201915b5050505050905090565b8063ffffffff16610caa33610b01565b1015610ce2576040517ffda7bbda00000000000000000000000000000000000000000000000000000000815260040160405180910390fd5b610cf2338263ffffffff16611927565b6000610d038263ffffffff166116b6565b9050610d4e600360003373ffffffffffffffffffffffffffffffffffffffff1673ffffffffffffffffffffffffffffffffffffffff16815260200190815260200160002054826119be565b600360003373ffffffffffffffffffffffffffffffffffffffff1673ffffffffffffffffffffffffffffffffffffffff16815260200190815260200160002081905550610d9d600254826119be565b6002819055505050565b6000610db4338484611615565b6387a211a2600c52336000526020600c20805480841115610ddd5763f4d678b86000526004601cfd5b8381038255846000526020600c2084815401815584602052600c5160601c337fddf252ad1be2c89b69c2b068fc378daa952ba7f163c4a11628f55a4df523b3ef602080a3505050610e2f33848461161a565b6001905092915050565b600080610f0a83610f05600360008973ffffffffffffffffffffffffffffffffffffffff1673ffffffffffffffffffffffffffffffffffffffff16815260200190815260200160002054600460008a73ffffffffffffffffffffffffffffffffffffffff1673ffffffffffffffffffffffffffffffffffffffff16815260200190815260200160002060003373ffffffffffffffffffffffffffffffffffffffff1673ffffffffffffffffffffffffffffffffffffffff168152602001908152602001600020546116ca565b6116ca565b9050610f92600460008773ffffffffffffffffffffffffffffffffffffffff1673ffffffffffffffffffffffffffffffffffffffff16815260200190815260200160002060003373ffffffffffffffffffffffffffffffffffffffff1673ffffffffffffffffffffffffffffffffffffffff1681526020019081526020016000205482611743565b600460008773ffffffffffffffffffffffffffffffffffffffff1673ffffffffffffffffffffffffffffffffffffffff16815260200190815260200160002060003373ffffffffffffffffffffffffffffffffffffffff1673ffffffffffffffffffffffffffffffffffffffff1681526020019081526020016000208190555061105b600360008773ffffffffffffffffffffffffffffffffffffffff1673ffffffffffffffffffffffffffffffffffffffff1681526020019081526020016000205482611743565b600360008773ffffffffffffffffffffffffffffffffffffffff1673ffffffffffffffffffffffffffffffffffffffff168152602001908152602001600020819055506110e7600360008673ffffffffffffffffffffffffffffffffffffffff1673ffffffffffffffffffffffffffffffffffffffff16815260200190815260200160002054826119be565b600360008673ffffffffffffffffffffffffffffffffffffffff1673ffffffffffffffffffffffffffffffffffffffff168152602001908152602001600020819055508373ffffffffffffffffffffffffffffffffffffffff168573ffffffffffffffffffffffffffffffffffffffff167f7612539b010127d1a2f810eeff1131de23a28ecfa8228f92a9606a879300fbb560405160405180910390a3809150509392505050565b6000806111db83600360003373ffffffffffffffffffffffffffffffffffffffff1673ffffffffffffffffffffffffffffffffffffffff168152602001908152602001600020546116ca565b9050611226600360003373ffffffffffffffffffffffffffffffffffffffff1673ffffffffffffffffffffffffffffffffffffffff1681526020019081526020016000205482611743565b600360003373ffffffffffffffffffffffffffffffffffffffff1673ffffffffffffffffffffffffffffffffffffffff168152602001908152602001600020819055506112b2600360008673ffffffffffffffffffffffffffffffffffffffff1673ffffffffffffffffffffffffffffffffffffffff16815260200190815260200160002054826119be565b600360008673ffffffffffffffffffffffffffffffffffffffff1673ffffffffffffffffffffffffffffffffffffffff168152602001908152602001600020819055508373ffffffffffffffffffffffffffffffffffffffff163373ffffffffffffffffffffffffffffffffffffffff167f7612539b010127d1a2f810eeff1131de23a28ecfa8228f92a9606a879300fbb560405160405180910390a38091505092915050565b600061136361161f565b90506000801b8103611381576113776104c5565b8051906020012090505b8442111561139757631a15a3cc6000526004601cfd5b6040518860601b60601c98508760601b60601c975065383775081901600e52886000526020600c2080547f8b73c3c69bb8fe3d512ecc4cf759cc79239f7b179b0ffacaa9a75d522b39400f83528360208401527fc89efdaa54c0f20c7adf612882df0950f5a951637e0307cdcb4c672f298b8bc6604084015246606084015230608084015260a08320602e527f6e71edae12b1b97f4d1f60370fef10105fa2faae0126114a169c64845d6126c983528a60208401528960408401528860608401528060808401528760a084015260c08320604e526042602c206000528660ff1660205285604052846060526020806080600060015afa8b3d51146114a35763ddafbaef6000526004601cfd5b80820183558a637f5e9f2060a01b17604052896034602c20558a8c7f8c5be1e5ebec7d5bd14f71427d1e84f3dd0314c0f7b2291e5b200ac8c7c3b925602060608801a3836040526000606052505050505050505050505050565b60006115118261150c90612ef5565b611624565b600460003373ffffffffffffffffffffffffffffffffffffffff1673ffffffffffffffffffffffffffffffffffffffff16815260200190815260200160002060008573ffffffffffffffffffffffffffffffffffffffff1673ffffffffffffffffffffffffffffffffffffffff168152602001908152602001600020819055508273ffffffffffffffffffffffffffffffffffffffff163373ffffffffffffffffffffffffffffffffffffffff167f46f92913a39019d68e630493d23e0cf39761bf253f7b3f8eae384b33e393ed4e60405160405180910390a36001905092915050565b600081602052637f5e9f20600c52826000526034600c2054905092915050565b505050565b505050565b600090565b600061163382600001516119d2565b9050919050565b600061164d6116476119e6565b83611a9d565b9050919050565b6000806000806116648686611ade565b9250925092506116748282611b3a565b82935050505092915050565b606061168b83611c9e565b61169c5761169960006116b6565b92505b60008390506116ad60028285611cab565b91505092915050565b60006116c3826002611d61565b9050919050565b60006116d583611c9e565b6116e6576116e360006116b6565b92505b6116ef82611c9e565b611700576116fd60006116b6565b91505b60008390506000839050600061173560028484608073ffffffffffffffffffffffffffffffffffffffff16635211c679611e03565b905080935050505092915050565b600061174f8383611e97565b905092915050565b600061176282611c9e565b6117735761177060006116b6565b91505b6000829050600061178382611f10565b90506000608073ffffffffffffffffffffffffffffffffffffffff166373cc01546002846040518363ffffffff1660e01b81526004016117c4929190612f99565b602060405180830381865afa1580156117e1573d6000803e3d6000fd5b505050506040513d601f19601f820116820180604052508101906118059190612fde565b905061181081611f6d565b9350505050919050565b61182660008383611615565b6805345cdf77eb68f44c548181018181101561184a5763e5cfe9576000526004601cfd5b806805345cdf77eb68f44c556387a211a2600c52836000526020600c2083815401815583602052600c5160601c60007fddf252ad1be2c89b69c2b068fc378daa952ba7f163c4a11628f55a4df523b3ef602080a35050506118ad6000838361161a565b5050565b60606118e760007f0000000000000000000000000000000000000000000000000000000000000000611f7790919063ffffffff16565b905090565b606061192260017f0000000000000000000000000000000000000000000000000000000000000000611f7790919063ffffffff16565b905090565b61193382600083611615565b6387a211a2600c52816000526020600c2080548083111561195c5763f4d678b86000526004601cfd5b8281038255826805345cdf77eb68f44c54036805345cdf77eb68f44c558260005260008460601b60601c7fddf252ad1be2c89b69c2b068fc378daa952ba7f163c4a11628f55a4df523b3ef60206000a350506119ba8260008361161a565b5050565b60006119ca8383612027565b905092915050565b60006119df82600261209f565b9050919050565b60007f000000000000000000000000000000000000000000000000000000000000000073ffffffffffffffffffffffffffffffffffffffff163073ffffffffffffffffffffffffffffffffffffffff16148015611a6257507f000000000000000000000000000000000000000000000000000000000000000046145b15611a8f577f00000000000000000000000000000000000000000000000000000000000000009050611a9a565b611a97612139565b90505b90565b60006040517f190100000000000000000000000000000000000000000000000000000000000081528360028201528260228201526042812091505092915050565b60008060006041845103611b235760008060006020870151925060408701519150606087015160001a9050611b15888285856121cf565b955095509550505050611b33565b60006002855160001b9250925092505b9250925092565b60006003811115611b4e57611b4d61300b565b5b826003811115611b6157611b6061300b565b5b0315611c9a5760016003811115611b7b57611b7a61300b565b5b826003811115611b8e57611b8d61300b565b5b03611bc5576040517ff645eedf00000000000000000000000000000000000000000000000000000000815260040160405180910390fd5b60026003811115611bd957611bd861300b565b5b826003811115611bec57611beb61300b565b5b03611c31578060001c6040517ffce698f7000000000000000000000000000000000000000000000000000000008152600401611c289190612582565b60405180910390fd5b600380811115611c4457611c4361300b565b5b826003811115611c5757611c5661300b565b5b03611c9957806040517fd78bce0c000000000000000000000000000000000000000000000000000000008152600401611c909190612640565b60405180910390fd5b5b5050565b6000808214159050919050565b6060608073ffffffffffffffffffffffffffffffffffffffff1663a1848ff385611cd486611f10565b85604051602001611ce5919061305b565b6040516020818303038152906040526040518463ffffffff1660e01b8152600401611d1293929190613076565b600060405180830381865afa158015611d2f573d6000803e3d6000fd5b505050506040513d6000823e3d601f19601f82011682018060405250810190611d58919061315c565b90509392505050565b60006060608073ffffffffffffffffffffffffffffffffffffffff166319e1c5c4611d8b86611f10565b856040518363ffffffff1660e01b8152600401611da99291906131a5565b600060405180830381865afa158015611dc6573d6000803e3d6000fd5b505050506040513d6000823e3d601f19601f82011682018060405250810190611def9190613245565b9050611dfa816122c3565b91505092915050565b60006060838388611e1389611f10565b611e1c89611f10565b6040518463ffffffff1660e01b8152600401611e3a93929190613076565b600060405180830381865afa158015611e57573d6000803e3d6000fd5b505050506040513d6000823e3d601f19601f82011682018060405250810190611e809190613245565b9050611e8b816122d1565b91505095945050505050565b6000611ea283611c9e565b611eb357611eb060006116b6565b92505b611ebc82611c9e565b611ecd57611eca60006116b6565b91505b600083905060008390506000611f0260028484608073ffffffffffffffffffffffffffffffffffffffff1663cc2cbeff611e03565b905080935050505092915050565b6060602067ffffffffffffffff811115611f2d57611f2c6127b1565b5b6040519080825280601f01601f191660200182016040528015611f5f5781602001600182028036833780820191505090505b509050816020820152919050565b6000819050919050565b606060ff60001b8314611f9457611f8d836122df565b9050612021565b818054611fa090612e6c565b80601f0160208091040260200160405190810160405280929190818152602001828054611fcc90612e6c565b80156120195780601f10611fee57610100808354040283529160200191612019565b820191906000526020600020905b815481529060010190602001808311611ffc57829003601f168201915b505050505090505b92915050565b600061203283611c9e565b6120435761204060006116b6565b92505b61204c82611c9e565b61205d5761205a60006116b6565b91505b60008390506000839050600061209160028484608073ffffffffffffffffffffffffffffffffffffffff16622df619611e03565b905080935050505092915050565b60006060608073ffffffffffffffffffffffffffffffffffffffff16635fa55ca784866040518363ffffffff1660e01b81526004016120df929190612f99565b600060405180830381865afa1580156120fc573d6000803e3d6000fd5b505050506040513d6000823e3d601f19601f820116820180604052508101906121259190613245565b9050612130816122c3565b91505092915050565b60007f8b73c3c69bb8fe3d512ecc4cf759cc79239f7b179b0ffacaa9a75d522b39400f7f00000000000000000000000000000000000000000000000000000000000000007f000000000000000000000000000000000000000000000000000000000000000046306040516020016121b495949392919061328e565b60405160208183030381529060405280519060200120905090565b60008060007f7fffffffffffffffffffffffffffffff5d576e7357a4501ddfe92f46681b20a08460001c111561220f5760006003859250925092506122b9565b60006001888888886040516000815260200160405260405161223494939291906132e1565b6020604051602081039080840390855afa158015612256573d6000803e3d6000fd5b505050602060405103519050600073ffffffffffffffffffffffffffffffffffffffff168173ffffffffffffffffffffffffffffffffffffffff16036122aa57600060016000801b935093509350506122b9565b8060008060001b935093509350505b9450945094915050565b600060208201519050919050565b600060208201519050919050565b606060006122ec83612353565b90506000602067ffffffffffffffff81111561230b5761230a6127b1565b5b6040519080825280601f01601f19166020018201604052801561233d5781602001600182028036833780820191505090505b5090508181528360208201528092505050919050565b60008060ff8360001c169050601f81111561239a576040517fb3512b0c00000000000000000000000000000000000000000000000000000000815260040160405180910390fd5b80915050919050565b600081519050919050565b600082825260208201905092915050565b60005b838110156123dd5780820151818401526020810190506123c2565b60008484015250505050565b6000601f19601f8301169050919050565b6000612405826123a3565b61240f81856123ae565b935061241f8185602086016123bf565b612428816123e9565b840191505092915050565b6000602082019050818103600083015261244d81846123fa565b905092915050565b6000604051905090565b600080fd5b600080fd5b600073ffffffffffffffffffffffffffffffffffffffff82169050919050565b600061249482612469565b9050919050565b6124a481612489565b81146124af57600080fd5b50565b6000813590506124c18161249b565b92915050565b6000819050919050565b6124da816124c7565b81146124e557600080fd5b50565b6000813590506124f7816124d1565b92915050565b600080604083850312156125145761251361245f565b5b6000612522858286016124b2565b9250506020612533858286016124e8565b9150509250929050565b60008115159050919050565b6125528161253d565b82525050565b600060208201905061256d6000830184612549565b92915050565b61257c816124c7565b82525050565b60006020820190506125976000830184612573565b92915050565b6000806000606084860312156125b6576125b561245f565b5b60006125c4868287016124b2565b93505060206125d5868287016124b2565b92505060406125e6868287016124e8565b9150509250925092565b600060ff82169050919050565b612606816125f0565b82525050565b600060208201905061262160008301846125fd565b92915050565b6000819050919050565b61263a81612627565b82525050565b60006020820190506126556000830184612631565b92915050565b600080fd5b6000602082840312156126765761267561265b565b5b81905092915050565b600080604083850312156126965761269561245f565b5b60006126a4858286016124b2565b925050602083013567ffffffffffffffff8111156126c5576126c4612464565b5b6126d185828601612660565b9150509250929050565b6000819050919050565b60006127006126fb6126f6846124c7565b6126db565b6124c7565b9050919050565b612710816126e5565b82525050565b600060208201905061272b6000830184612707565b92915050565b6000604082840312156127475761274661265b565b5b81905092915050565b600080604083850312156127675761276661245f565b5b6000612775858286016124b2565b925050602083013567ffffffffffffffff81111561279657612795612464565b5b6127a285828601612731565b9150509250929050565b600080fd5b7f4e487b7100000000000000000000000000000000000000000000000000000000600052604160045260246000fd5b6127e9826123e9565b810181811067ffffffffffffffff82111715612808576128076127b1565b5b80604052505050565b600061281b612455565b905061282782826127e0565b919050565b600080fd5b61283a81612627565b811461284557600080fd5b50565b60008135905061285781612831565b92915050565b600080fd5b600080fd5b600067ffffffffffffffff821115612882576128816127b1565b5b61288b826123e9565b9050602081019050919050565b82818337600083830152505050565b60006128ba6128b584612867565b612811565b9050828152602081018484840111156128d6576128d5612862565b5b6128e1848285612898565b509392505050565b600082601f8301126128fe576128fd61285d565b5b813561290e8482602086016128a7565b91505092915050565b60006040828403121561292d5761292c6127ac565b5b6129376040612811565b9050600061294784828501612848565b600083015250602082013567ffffffffffffffff81111561296b5761296a61282c565b5b612977848285016128e9565b60208301525092915050565b6000806040838503121561299a5761299961245f565b5b60006129a8858286016124b2565b925050602083013567ffffffffffffffff8111156129c9576129c8612464565b5b6129d585828601612917565b9150509250929050565b600063ffffffff82169050919050565b6129f8816129df565b8114612a0357600080fd5b50565b600081359050612a15816129ef565b92915050565b600060208284031215612a3157612a3061245f565b5b6000612a3f84828501612a06565b91505092915050565b600060208284031215612a5e57612a5d61245f565b5b6000612a6c848285016124b2565b91505092915050565b60007fff0000000000000000000000000000000000000000000000000000000000000082169050919050565b612aaa81612a75565b82525050565b612ab981612489565b82525050565b600081519050919050565b600082825260208201905092915050565b6000819050602082019050919050565b612af4816124c7565b82525050565b6000612b068383612aeb565b60208301905092915050565b6000602082019050919050565b6000612b2a82612abf565b612b348185612aca565b9350612b3f83612adb565b8060005b83811015612b70578151612b578882612afa565b9750612b6283612b12565b925050600181019050612b43565b5085935050505092915050565b600060e082019050612b92600083018a612aa1565b8181036020830152612ba481896123fa565b90508181036040830152612bb881886123fa565b9050612bc76060830187612573565b612bd46080830186612ab0565b612be160a0830185612631565b81810360c0830152612bf38184612b1f565b905098975050505050505050565b600080600060608486031215612c1a57612c1961245f565b5b6000612c28868287016124b2565b9350506020612c39868287016124b2565b925050604084013567ffffffffffffffff811115612c5a57612c59612464565b5b612c6686828701612660565b9150509250925092565b612c79816124c7565b8114612c8457600080fd5b50565b600081359050612c9681612c70565b92915050565b600080600060608486031215612cb557612cb461245f565b5b6000612cc3868287016124b2565b9350506020612cd4868287016124b2565b9250506040612ce586828701612c87565b9150509250925092565b60008060408385031215612d0657612d0561245f565b5b6000612d14858286016124b2565b9250506020612d2585828601612c87565b9150509250929050565b612d38816125f0565b8114612d4357600080fd5b50565b600081359050612d5581612d2f565b92915050565b600080600080600080600060e0888a031215612d7a57612d7961245f565b5b6000612d888a828b016124b2565b9750506020612d998a828b016124b2565b9650506040612daa8a828b016124e8565b9550506060612dbb8a828b016124e8565b9450506080612dcc8a828b01612d46565b93505060a0612ddd8a828b01612848565b92505060c0612dee8a828b01612848565b91505092959891949750929550565b60008060408385031215612e1457612e1361245f565b5b6000612e22858286016124b2565b9250506020612e33858286016124b2565b9150509250929050565b7f4e487b7100000000000000000000000000000000000000000000000000000000600052602260045260246000fd5b60006002820490506001821680612e8457607f821691505b602082108103612e9757612e96612e3d565b5b50919050565b600060208284031215612eb357612eb26127ac565b5b612ebd6020612811565b9050600082013567ffffffffffffffff811115612edd57612edc61282c565b5b612ee9848285016128e9565b60008301525092915050565b6000612f013683612e9d565b9050919050565b6000612f143683612917565b9050919050565b6000604082019050612f306000830185612631565b612f3d6020830184612631565b9392505050565b600081519050919050565b600082825260208201905092915050565b6000612f6b82612f44565b612f758185612f4f565b9350612f858185602086016123bf565b612f8e816123e9565b840191505092915050565b6000604082019050612fae60008301856125fd565b8181036020830152612fc08184612f60565b90509392505050565b600081519050612fd8816124d1565b92915050565b600060208284031215612ff457612ff361245f565b5b600061300284828501612fc9565b91505092915050565b7f4e487b7100000000000000000000000000000000000000000000000000000000600052602160045260246000fd5b6000819050919050565b61305561305082612627565b61303a565b82525050565b60006130678284613044565b60208201915081905092915050565b600060608201905061308b60008301866125fd565b818103602083015261309d8185612f60565b905081810360408301526130b18184612f60565b9050949350505050565b600067ffffffffffffffff8211156130d6576130d56127b1565b5b6130df826123e9565b9050602081019050919050565b60006130ff6130fa846130bb565b612811565b90508281526020810184848401111561311b5761311a612862565b5b6131268482856123bf565b509392505050565b600082601f8301126131435761314261285d565b5b81516131538482602086016130ec565b91505092915050565b6000602082840312156131725761317161245f565b5b600082015167ffffffffffffffff8111156131905761318f612464565b5b61319c8482850161312e565b91505092915050565b600060408201905081810360008301526131bf8185612f60565b90506131ce60208301846125fd565b9392505050565b60006131e86131e384612867565b612811565b90508281526020810184848401111561320457613203612862565b5b61320f8482856123bf565b509392505050565b600082601f83011261322c5761322b61285d565b5b815161323c8482602086016131d5565b91505092915050565b60006020828403121561325b5761325a61245f565b5b600082015167ffffffffffffffff81111561327957613278612464565b5b61328584828501613217565b91505092915050565b600060a0820190506132a36000830188612631565b6132b06020830187612631565b6132bd6040830186612631565b6132ca6060830185612573565b6132d76080830184612ab0565b9695505050505050565b60006080820190506132f66000830187612631565b61330360208301866125fd565b6133106040830185612631565b61331d6060830184612631565b9594505050505056fea264697066735822122058197cac2b77cb9bd316ff9903122d58cec9c086f803140087396e89c46f21c964736f6c63430008180033",
  "devdoc": {
    "errors": {
      "AllowanceOverflow()": [
        {
          "details": "The allowance has overflowed."
        }
      ],
      "AllowanceUnderflow()": [
        {
          "details": "The allowance has underflowed."
        }
      ],
      "ECDSAInvalidSignature()": [
        {
          "details": "The signature derives the `address(0)`."
        }
      ],
      "ECDSAInvalidSignatureLength(uint256)": [
        {
          "details": "The signature has an invalid length."
        }
      ],
      "ECDSAInvalidSignatureS(bytes32)": [
        {
          "details": "The signature has an S value that is in the upper half order."
        }
      ],
      "InsufficientAllowance()": [
        {
          "details": "Insufficient allowance."
        }
      ],
      "InsufficientBalance()": [
        {
          "details": "Insufficient balance."
        }
      ],
      "InvalidPermit()": [
        {
          "details": "The permit is invalid."
        }
      ],
      "PermitExpired()": [
        {
          "details": "The permit has expired."
        }
      ],
      "TotalSupplyOverflow()": [
        {
          "details": "The total supply has overflowed."
        }
      ]
    },
    "events": {
      "Approval(address,address,uint256)": {
        "details": "Emitted when `amount` tokens is approved by `owner` to be used by `spender`."
      },
      "ApprovalEncrypted(address,address)": {
        "details": "Emitted when the allowance of a `spender` for an `owner` is set by a call to {approveEncrypted}. `value` is the new allowance."
      },
      "EIP712DomainChanged()": {
        "details": "MAY be emitted to signal that the domain could have changed."
      },
      "Transfer(address,address,uint256)": {
        "details": "Emitted when `amount` tokens is transferred from `from` to `to`."
      },
      "TransferEncrypted(address,address)": {
        "details": "Emitted when `value` tokens are moved from one account (`from`) to another (`to`). Note that `value` may be zero."
      }
    },
    "kind": "dev",
    "methods": {
      "DOMAIN_SEPARATOR()": {
        "details": "Returns the EIP-712 domain separator for the EIP-2612 permit."
      },
      "allowance(address,address)": {
        "details": "Returns the amount of tokens that `spender` can spend on behalf of `owner`."
      },
      "allowanceEncrypted(address,(bytes32,bytes))": {
        "details": "Returns the remaining number of tokens that `spender` will be allowed to spend on behalf of `owner` through {transferFrom}. This is zero by default. This value changes when {approve} or {transferFrom} are called."
      },
      "approve(address,uint256)": {
        "details": "Sets `amount` as the allowance of `spender` over the caller's tokens. Emits a {Approval} event."
      },
      "approveEncrypted(address,(bytes))": {
        "details": "Sets a `value` amount of tokens as the allowance of `spender` over the caller's tokens. Returns a boolean value indicating whether the operation succeeded. IMPORTANT: Beware that changing an allowance with this method brings the risk that someone may use both the old and the new allowance by unfortunate transaction ordering. One possible solution to mitigate this race condition is to first reduce the spender's allowance to 0 and set the desired value afterwards: https://github.com/ethereum/EIPs/issues/20#issuecomment-263524729 Emits an {ApprovalEncrypted} event."
      },
      "balanceOf(address)": {
        "details": "Returns the amount of tokens owned by `owner`."
      },
      "balanceOfEncrypted(address,(bytes32,bytes))": {
        "details": "Returns the value of tokens owned by `account`, sealed and encrypted for the caller."
      },
      "decimals()": {
        "details": "Returns the decimals places of the token."
      },
      "eip712Domain()": {
        "details": "See {IERC-5267}."
      },
      "name()": {
        "details": "Returns the name of the token."
      },
      "nonces(address)": {
        "details": "Returns the current nonce for `owner`. This value is used to compute the signature for EIP-2612 permit."
      },
      "permit(address,address,uint256,uint256,uint8,bytes32,bytes32)": {
        "details": "Sets `value` as the allowance of `spender` over the tokens of `owner`, authorized by a signed approval by `owner`. Emits a {Approval} event."
      },
      "symbol()": {
        "details": "Returns the symbol of the token."
      },
      "totalSupply()": {
        "details": "Returns the amount of tokens in existence."
      },
      "transfer(address,uint256)": {
        "details": "Transfer `amount` tokens from the caller to `to`. Requirements: - `from` must at least have `amount`. Emits a {Transfer} event."
      },
      "transferFrom(address,address,uint256)": {
        "details": "Transfers `amount` tokens from `from` to `to`. Note: Does not update the allowance if it is the maximum uint256 value. Requirements: - `from` must at least have `amount`. - The caller must have at least `amount` of allowance to transfer the tokens of `from`. Emits a {Transfer} event."
      },
      "transferFromEncrypted(address,address,(bytes))": {
        "details": "Moves a `value` amount of tokens from `from` to `to` using the allowance mechanism. `value` is then deducted from the caller's allowance. Returns a boolean value indicating whether the operation succeeded. Emits a {TransferEncrypted} event."
      }
    },
    "version": 1
  },
  "userdoc": {
    "errors": {
      "SignerNotMessageSender()": [
        {
          "notice": "Emitted when the signer is not the message sender"
        }
      ],
      "SignerNotOwner()": [
        {
          "notice": "Emitted when the signer is not the specified owner"
        }
      ]
    },
    "kind": "user",
    "methods": {},
    "version": 1
  },
  "storageLayout": {
    "storage": [
      {
        "astId": 16568,
        "contract": "contracts/tokens/FakeUSD.sol:FakeUSD",
        "label": "_nameFallback",
        "offset": 0,
        "slot": "0",
        "type": "t_string_storage"
      },
      {
        "astId": 16570,
        "contract": "contracts/tokens/FakeUSD.sol:FakeUSD",
        "label": "_versionFallback",
        "offset": 0,
        "slot": "1",
        "type": "t_string_storage"
      },
      {
        "astId": 18126,
        "contract": "contracts/tokens/FakeUSD.sol:FakeUSD",
        "label": "_encTotalSupply",
        "offset": 0,
        "slot": "2",
        "type": "t_userDefinedValueType(euint32)12"
      },
      {
        "astId": 18131,
        "contract": "contracts/tokens/FakeUSD.sol:FakeUSD",
        "label": "_encBalanceOf",
        "offset": 0,
        "slot": "3",
        "type": "t_mapping(t_address,t_userDefinedValueType(euint32)12)"
      },
      {
        "astId": 18138,
        "contract": "contracts/tokens/FakeUSD.sol:FakeUSD",
        "label": "_encAllowance",
        "offset": 0,
        "slot": "4",
        "type": "t_mapping(t_address,t_mapping(t_address,t_userDefinedValueType(euint32)12))"
      },
      {
        "astId": 18140,
        "contract": "contracts/tokens/FakeUSD.sol:FakeUSD",
        "label": "_name",
        "offset": 0,
        "slot": "5",
        "type": "t_string_storage"
      },
      {
        "astId": 18142,
        "contract": "contracts/tokens/FakeUSD.sol:FakeUSD",
        "label": "_symbol",
        "offset": 0,
        "slot": "6",
        "type": "t_string_storage"
      }
    ],
    "types": {
      "t_address": {
        "encoding": "inplace",
        "label": "address",
        "numberOfBytes": "20"
      },
      "t_mapping(t_address,t_mapping(t_address,t_userDefinedValueType(euint32)12))": {
        "encoding": "mapping",
        "key": "t_address",
        "label": "mapping(address => mapping(address => euint32))",
        "numberOfBytes": "32",
        "value": "t_mapping(t_address,t_userDefinedValueType(euint32)12)"
      },
      "t_mapping(t_address,t_userDefinedValueType(euint32)12)": {
        "encoding": "mapping",
        "key": "t_address",
        "label": "mapping(address => euint32)",
        "numberOfBytes": "32",
        "value": "t_userDefinedValueType(euint32)12"
      },
      "t_string_storage": {
        "encoding": "bytes",
        "label": "string",
        "numberOfBytes": "32"
      },
      "t_userDefinedValueType(euint32)12": {
        "encoding": "inplace",
        "label": "euint32",
        "numberOfBytes": "32"
      }
    }
  }
}