{
  "address": "0x912511060d9526969C4Da9d245aDAF594AaC9ac8",
  "abi": [
    {
      "inputs": [
        {
          "components": [
            {
              "internalType": "bytes",
              "name": "data",
              "type": "bytes"
            }
          ],
          "internalType": "struct inEuint32",
          "name": "_initialSupply",
          "type": "tuple"
        }
      ],
      "stateMutability": "nonpayable",
      "type": "constructor"
    },
    {
      "inputs": [],
      "name": "AllowanceOverflow",
      "type": "error"
    },
    {
      "inputs": [],
      "name": "AllowanceUnderflow",
      "type": "error"
    },
    {
      "inputs": [],
      "name": "ECDSAInvalidSignature",
      "type": "error"
    },
    {
      "inputs": [
        {
          "internalType": "uint256",
          "name": "length",
          "type": "uint256"
        }
      ],
      "name": "ECDSAInvalidSignatureLength",
      "type": "error"
    },
    {
      "inputs": [
        {
          "internalType": "bytes32",
          "name": "s",
          "type": "bytes32"
        }
      ],
      "name": "ECDSAInvalidSignatureS",
      "type": "error"
    },
    {
      "inputs": [],
      "name": "ErrorInsufficientFunds",
      "type": "error"
    },
    {
      "inputs": [],
      "name": "InsufficientAllowance",
      "type": "error"
    },
    {
      "inputs": [],
      "name": "InsufficientBalance",
      "type": "error"
    },
    {
      "inputs": [],
      "name": "InvalidPermit",
      "type": "error"
    },
    {
      "inputs": [],
      "name": "InvalidShortString",
      "type": "error"
    },
    {
      "inputs": [],
      "name": "PermitExpired",
      "type": "error"
    },
    {
      "inputs": [],
      "name": "SignerNotMessageSender",
      "type": "error"
    },
    {
      "inputs": [],
      "name": "SignerNotOwner",
      "type": "error"
    },
    {
      "inputs": [
        {
          "internalType": "string",
          "name": "str",
          "type": "string"
        }
      ],
      "name": "StringTooLong",
      "type": "error"
    },
    {
      "inputs": [],
      "name": "TotalSupplyOverflow",
      "type": "error"
    },
    {
      "anonymous": false,
      "inputs": [
        {
          "indexed": true,
          "internalType": "address",
          "name": "owner",
          "type": "address"
        },
        {
          "indexed": true,
          "internalType": "address",
          "name": "spender",
          "type": "address"
        },
        {
          "indexed": false,
          "internalType": "uint256",
          "name": "amount",
          "type": "uint256"
        }
      ],
      "name": "Approval",
      "type": "event"
    },
    {
      "anonymous": false,
      "inputs": [
        {
          "indexed": true,
          "internalType": "address",
          "name": "owner",
          "type": "address"
        },
        {
          "indexed": true,
          "internalType": "address",
          "name": "spender",
          "type": "address"
        }
      ],
      "name": "ApprovalEncrypted",
      "type": "event"
    },
    {
      "anonymous": false,
      "inputs": [],
      "name": "EIP712DomainChanged",
      "type": "event"
    },
    {
      "anonymous": false,
      "inputs": [
        {
          "indexed": true,
          "internalType": "address",
          "name": "from",
          "type": "address"
        },
        {
          "indexed": true,
          "internalType": "address",
          "name": "to",
          "type": "address"
        },
        {
          "indexed": false,
          "internalType": "uint256",
          "name": "amount",
          "type": "uint256"
        }
      ],
      "name": "Transfer",
      "type": "event"
    },
    {
      "anonymous": false,
      "inputs": [
        {
          "indexed": true,
          "internalType": "address",
          "name": "from",
          "type": "address"
        },
        {
          "indexed": true,
          "internalType": "address",
          "name": "to",
          "type": "address"
        }
      ],
      "name": "TransferEncrypted",
      "type": "event"
    },
    {
      "inputs": [],
      "name": "DOMAIN_SEPARATOR",
      "outputs": [
        {
          "internalType": "bytes32",
          "name": "result",
          "type": "bytes32"
        }
      ],
      "stateMutability": "view",
      "type": "function"
    },
    {
      "inputs": [
        {
          "internalType": "address",
          "name": "owner",
          "type": "address"
        },
        {
          "internalType": "address",
          "name": "spender",
          "type": "address"
        }
      ],
      "name": "allowance",
      "outputs": [
        {
          "internalType": "uint256",
          "name": "result",
          "type": "uint256"
        }
      ],
      "stateMutability": "view",
      "type": "function"
    },
    {
      "inputs": [
        {
          "internalType": "address",
          "name": "spender",
          "type": "address"
        },
        {
          "components": [
            {
              "internalType": "bytes32",
              "name": "publicKey",
              "type": "bytes32"
            },
            {
              "internalType": "bytes",
              "name": "signature",
              "type": "bytes"
            }
          ],
          "internalType": "struct Permission",
          "name": "permission",
          "type": "tuple"
        }
      ],
      "name": "allowanceEncrypted",
      "outputs": [
        {
          "internalType": "string",
          "name": "",
          "type": "string"
        }
      ],
      "stateMutability": "view",
      "type": "function"
    },
    {
      "inputs": [
        {
          "internalType": "address",
          "name": "spender",
          "type": "address"
        },
        {
          "internalType": "uint256",
          "name": "amount",
          "type": "uint256"
        }
      ],
      "name": "approve",
      "outputs": [
        {
          "internalType": "bool",
          "name": "",
          "type": "bool"
        }
      ],
      "stateMutability": "nonpayable",
      "type": "function"
    },
    {
      "inputs": [
        {
          "internalType": "address",
          "name": "spender",
          "type": "address"
        },
        {
          "components": [
            {
              "internalType": "bytes",
              "name": "data",
              "type": "bytes"
            }
          ],
          "internalType": "struct inEuint32",
          "name": "value",
          "type": "tuple"
        }
      ],
      "name": "approveEncrypted",
      "outputs": [
        {
          "internalType": "bool",
          "name": "",
          "type": "bool"
        }
      ],
      "stateMutability": "nonpayable",
      "type": "function"
    },
    {
      "inputs": [
        {
          "internalType": "address",
          "name": "owner",
          "type": "address"
        }
      ],
      "name": "balanceOf",
      "outputs": [
        {
          "internalType": "uint256",
          "name": "result",
          "type": "uint256"
        }
      ],
      "stateMutability": "view",
      "type": "function"
    },
    {
      "inputs": [
        {
          "internalType": "address",
          "name": "account",
          "type": "address"
        },
        {
          "components": [
            {
              "internalType": "bytes32",
              "name": "publicKey",
              "type": "bytes32"
            },
            {
              "internalType": "bytes",
              "name": "signature",
              "type": "bytes"
            }
          ],
          "internalType": "struct Permission",
          "name": "auth",
          "type": "tuple"
        }
      ],
      "name": "balanceOfEncrypted",
      "outputs": [
        {
          "internalType": "string",
          "name": "",
          "type": "string"
        }
      ],
      "stateMutability": "view",
      "type": "function"
    },
    {
      "inputs": [],
      "name": "decimals",
      "outputs": [
        {
          "internalType": "uint8",
          "name": "",
          "type": "uint8"
        }
      ],
      "stateMutability": "pure",
      "type": "function"
    },
    {
      "inputs": [],
      "name": "eip712Domain",
      "outputs": [
        {
          "internalType": "bytes1",
          "name": "fields",
          "type": "bytes1"
        },
        {
          "internalType": "string",
          "name": "name",
          "type": "string"
        },
        {
          "internalType": "string",
          "name": "version",
          "type": "string"
        },
        {
          "internalType": "uint256",
          "name": "chainId",
          "type": "uint256"
        },
        {
          "internalType": "address",
          "name": "verifyingContract",
          "type": "address"
        },
        {
          "internalType": "bytes32",
          "name": "salt",
          "type": "bytes32"
        },
        {
          "internalType": "uint256[]",
          "name": "extensions",
          "type": "uint256[]"
        }
      ],
      "stateMutability": "view",
      "type": "function"
    },
    {
      "inputs": [],
      "name": "name",
      "outputs": [
        {
          "internalType": "string",
          "name": "",
          "type": "string"
        }
      ],
      "stateMutability": "view",
      "type": "function"
    },
    {
      "inputs": [
        {
          "internalType": "address",
          "name": "owner",
          "type": "address"
        }
      ],
      "name": "nonces",
      "outputs": [
        {
          "internalType": "uint256",
          "name": "result",
          "type": "uint256"
        }
      ],
      "stateMutability": "view",
      "type": "function"
    },
    {
      "inputs": [
        {
          "internalType": "address",
          "name": "owner",
          "type": "address"
        },
        {
          "internalType": "address",
          "name": "spender",
          "type": "address"
        },
        {
          "internalType": "uint256",
          "name": "value",
          "type": "uint256"
        },
        {
          "internalType": "uint256",
          "name": "deadline",
          "type": "uint256"
        },
        {
          "internalType": "uint8",
          "name": "v",
          "type": "uint8"
        },
        {
          "internalType": "bytes32",
          "name": "r",
          "type": "bytes32"
        },
        {
          "internalType": "bytes32",
          "name": "s",
          "type": "bytes32"
        }
      ],
      "name": "permit",
      "outputs": [],
      "stateMutability": "nonpayable",
      "type": "function"
    },
    {
      "inputs": [],
      "name": "symbol",
      "outputs": [
        {
          "internalType": "string",
          "name": "",
          "type": "string"
        }
      ],
      "stateMutability": "view",
      "type": "function"
    },
    {
      "inputs": [],
      "name": "totalSupply",
      "outputs": [
        {
          "internalType": "uint256",
          "name": "result",
          "type": "uint256"
        }
      ],
      "stateMutability": "view",
      "type": "function"
    },
    {
      "inputs": [
        {
          "internalType": "address",
          "name": "to",
          "type": "address"
        },
        {
          "internalType": "uint256",
          "name": "amount",
          "type": "uint256"
        }
      ],
      "name": "transfer",
      "outputs": [
        {
          "internalType": "bool",
          "name": "",
          "type": "bool"
        }
      ],
      "stateMutability": "nonpayable",
      "type": "function"
    },
    {
      "inputs": [
        {
          "internalType": "address",
          "name": "to",
          "type": "address"
        },
        {
          "components": [
            {
              "internalType": "bytes",
              "name": "data",
              "type": "bytes"
            }
          ],
          "internalType": "struct inEuint32",
          "name": "encryptedAmount",
          "type": "tuple"
        }
      ],
      "name": "transferEncrypted",
      "outputs": [
        {
          "internalType": "euint32",
          "name": "",
          "type": "uint256"
        }
      ],
      "stateMutability": "nonpayable",
      "type": "function"
    },
    {
      "inputs": [
        {
          "internalType": "address",
          "name": "to",
          "type": "address"
        },
        {
          "internalType": "euint32",
          "name": "amount",
          "type": "uint256"
        }
      ],
      "name": "transferEncrypted",
      "outputs": [
        {
          "internalType": "euint32",
          "name": "",
          "type": "uint256"
        }
      ],
      "stateMutability": "nonpayable",
      "type": "function"
    },
    {
      "inputs": [
        {
          "internalType": "address",
          "name": "from",
          "type": "address"
        },
        {
          "internalType": "address",
          "name": "to",
          "type": "address"
        },
        {
          "internalType": "uint256",
          "name": "amount",
          "type": "uint256"
        }
      ],
      "name": "transferFrom",
      "outputs": [
        {
          "internalType": "bool",
          "name": "",
          "type": "bool"
        }
      ],
      "stateMutability": "nonpayable",
      "type": "function"
    },
    {
      "inputs": [
        {
          "internalType": "address",
          "name": "from",
          "type": "address"
        },
        {
          "internalType": "address",
          "name": "to",
          "type": "address"
        },
        {
          "components": [
            {
              "internalType": "bytes",
              "name": "data",
              "type": "bytes"
            }
          ],
          "internalType": "struct inEuint32",
          "name": "value",
          "type": "tuple"
        }
      ],
      "name": "transferFromEncrypted",
      "outputs": [
        {
          "internalType": "euint32",
          "name": "",
          "type": "uint256"
        }
      ],
      "stateMutability": "nonpayable",
      "type": "function"
    },
    {
      "inputs": [
        {
          "internalType": "address",
          "name": "from",
          "type": "address"
        },
        {
          "internalType": "address",
          "name": "to",
          "type": "address"
        },
        {
          "internalType": "euint32",
          "name": "value",
          "type": "uint256"
        }
      ],
      "name": "transferFromEncrypted",
      "outputs": [
        {
          "internalType": "euint32",
          "name": "",
          "type": "uint256"
        }
      ],
      "stateMutability": "nonpayable",
      "type": "function"
    },
    {
      "inputs": [
        {
          "internalType": "uint32",
          "name": "amount",
          "type": "uint32"
        }
      ],
      "name": "unwrap",
      "outputs": [],
      "stateMutability": "nonpayable",
      "type": "function"
    },
    {
      "inputs": [
        {
          "internalType": "uint32",
          "name": "amount",
          "type": "uint32"
        }
      ],
      "name": "wrap",
      "outputs": [],
      "stateMutability": "nonpayable",
      "type": "function"
    }
  ],
  "transactionHash": "0xc33ee2d424b9363453d856e2ce9558334f9e43e529ddd4259152239f13b3642c",
  "args": [
    {
      "data": {
        "0": 16,
        "1": 8,
        "2": 0,
        "3": 0,
        "4": 0,
        "5": 0,
        "6": 0,
        "7": 0,
        "8": 203,
        "9": 80,
        "10": 2,
        "11": 10,
        "12": 103,
        "13": 102,
        "14": 22,
        "15": 55,
        "16": 212,
        "17": 0,
        "18": 137,
        "19": 243,
        "20": 63,
        "21": 98,
        "22": 84,
        "23": 245,
        "24": 226,
        "25": 36,
        "26": 126,
        "27": 159,
        "28": 101,
        "29": 223,
        "30": 163,
        "31": 182,
        "32": 174,
        "33": 228,
        "34": 176,
        "35": 243,
        "36": 194,
        "37": 88,
        "38": 106,
        "39": 210,
        "40": 88,
        "41": 16,
        "42": 176,
        "43": 9,
        "44": 195,
        "45": 88,
        "46": 136,
        "47": 226,
        "48": 62,
        "49": 144,
        "50": 64,
        "51": 9,
        "52": 245,
        "53": 220,
        "54": 232,
        "55": 180,
        "56": 17,
        "57": 120,
        "58": 13,
        "59": 4,
        "60": 213,
        "61": 243,
        "62": 192,
        "63": 117,
        "64": 105,
        "65": 91,
        "66": 26,
        "67": 225,
        "68": 123,
        "69": 65,
        "70": 140,
        "71": 92,
        "72": 80,
        "73": 215,
        "74": 136,
        "75": 161,
        "76": 81,
        "77": 252,
        "78": 237,
        "79": 123,
        "80": 45,
        "81": 174,
        "82": 205,
        "83": 77,
        "84": 16,
        "85": 179,
        "86": 234,
        "87": 254,
        "88": 247,
        "89": 100,
        "90": 172,
        "91": 25,
        "92": 106,
        "93": 230,
        "94": 84,
        "95": 237,
        "96": 199,
        "97": 51,
        "98": 206,
        "99": 131,
        "100": 253,
        "101": 50,
        "102": 80,
        "103": 225,
        "104": 105,
        "105": 217,
        "106": 239,
        "107": 75,
        "108": 151,
        "109": 162,
        "110": 33,
        "111": 140,
        "112": 168,
        "113": 22,
        "114": 80,
        "115": 115,
        "116": 104,
        "117": 155,
        "118": 58,
        "119": 94,
        "120": 80,
        "121": 254,
        "122": 163,
        "123": 190,
        "124": 108,
        "125": 44,
        "126": 152,
        "127": 102,
        "128": 64,
        "129": 241,
        "130": 175,
        "131": 170,
        "132": 91,
        "133": 82,
        "134": 84,
        "135": 73,
        "136": 245,
        "137": 104,
        "138": 109,
        "139": 165,
        "140": 246,
        "141": 198,
        "142": 202,
        "143": 47,
        "144": 173,
        "145": 115,
        "146": 84,
        "147": 76,
        "148": 90,
        "149": 86,
        "150": 132,
        "151": 181,
        "152": 8,
        "153": 114,
        "154": 144,
        "155": 227,
        "156": 169,
        "157": 122,
        "158": 76,
        "159": 61,
        "160": 203,
        "161": 9,
        "162": 83,
        "163": 235,
        "164": 215,
        "165": 192,
        "166": 174,
        "167": 232,
        "168": 187,
        "169": 183,
        "170": 137,
        "171": 56,
        "172": 84,
        "173": 137,
        "174": 190,
        "175": 120,
        "176": 97,
        "177": 213,
        "178": 91,
        "179": 27,
        "180": 203,
        "181": 117,
        "182": 236,
        "183": 206,
        "184": 140,
        "185": 79,
        "186": 87,
        "187": 135,
        "188": 39,
        "189": 74,
        "190": 158,
        "191": 154,
        "192": 61,
        "193": 27,
        "194": 70,
        "195": 124,
        "196": 68,
        "197": 175,
        "198": 147,
        "199": 228,
        "200": 186,
        "201": 172,
        "202": 230,
        "203": 228,
        "204": 146,
        "205": 74,
        "206": 40,
        "207": 13,
        "208": 178,
        "209": 118,
        "210": 255,
        "211": 171,
        "212": 16,
        "213": 171,
        "214": 66,
        "215": 217,
        "216": 182,
        "217": 164,
        "218": 209,
        "219": 226,
        "220": 249,
        "221": 173,
        "222": 79,
        "223": 71,
        "224": 27,
        "225": 209,
        "226": 48,
        "227": 197,
        "228": 12,
        "229": 155,
        "230": 38,
        "231": 60,
        "232": 42,
        "233": 213,
        "234": 124,
        "235": 127,
        "236": 28,
        "237": 26,
        "238": 48,
        "239": 138,
        "240": 46,
        "241": 116,
        "242": 251,
        "243": 231,
        "244": 241,
        "245": 149,
        "246": 94,
        "247": 81,
        "248": 135,
        "249": 28,
        "250": 38,
        "251": 137,
        "252": 201,
        "253": 249,
        "254": 139,
        "255": 114,
        "256": 4,
        "257": 205,
        "258": 108,
        "259": 160,
        "260": 101,
        "261": 231,
        "262": 70,
        "263": 199,
        "264": 14,
        "265": 69,
        "266": 80,
        "267": 155,
        "268": 14,
        "269": 109,
        "270": 88,
        "271": 194,
        "272": 110,
        "273": 38,
        "274": 239,
        "275": 83,
        "276": 1,
        "277": 42,
        "278": 226,
        "279": 125,
        "280": 186,
        "281": 188,
        "282": 233,
        "283": 4,
        "284": 254,
        "285": 188,
        "286": 136,
        "287": 128,
        "288": 72,
        "289": 170,
        "290": 203,
        "291": 143,
        "292": 76,
        "293": 200,
        "294": 62,
        "295": 197,
        "296": 189,
        "297": 230,
        "298": 196,
        "299": 237,
        "300": 182,
        "301": 16,
        "302": 221,
        "303": 92,
        "304": 111,
        "305": 225,
        "306": 186,
        "307": 138,
        "308": 189,
        "309": 181,
        "310": 221,
        "311": 4,
        "312": 71,
        "313": 203,
        "314": 33,
        "315": 81,
        "316": 177,
        "317": 229,
        "318": 171,
        "319": 154,
        "320": 189,
        "321": 47,
        "322": 75,
        "323": 247,
        "324": 217,
        "325": 216,
        "326": 103,
        "327": 212,
        "328": 64,
        "329": 112,
        "330": 48,
        "331": 133,
        "332": 179,
        "333": 86,
        "334": 115,
        "335": 68,
        "336": 229,
        "337": 29,
        "338": 184,
        "339": 152,
        "340": 147,
        "341": 183,
        "342": 175,
        "343": 64,
        "344": 203,
        "345": 222,
        "346": 190,
        "347": 171,
        "348": 230,
        "349": 101,
        "350": 136,
        "351": 69,
        "352": 127,
        "353": 224,
        "354": 164,
        "355": 190,
        "356": 2,
        "357": 191,
        "358": 104,
        "359": 119,
        "360": 238,
        "361": 112,
        "362": 212,
        "363": 157,
        "364": 240,
        "365": 32,
        "366": 25,
        "367": 242,
        "368": 128,
        "369": 146,
        "370": 149,
        "371": 100,
        "372": 87,
        "373": 181,
        "374": 184,
        "375": 30,
        "376": 93,
        "377": 90,
        "378": 28,
        "379": 126,
        "380": 134,
        "381": 112,
        "382": 211,
        "383": 124,
        "384": 30,
        "385": 6,
        "386": 79,
        "387": 153,
        "388": 201,
        "389": 206,
        "390": 66,
        "391": 39,
        "392": 81,
        "393": 187,
        "394": 158,
        "395": 173,
        "396": 13,
        "397": 128,
        "398": 61,
        "399": 29,
        "400": 160,
        "401": 247,
        "402": 146,
        "403": 66,
        "404": 220,
        "405": 59,
        "406": 57,
        "407": 10,
        "408": 241,
        "409": 195,
        "410": 73,
        "411": 92,
        "412": 61,
        "413": 157,
        "414": 9,
        "415": 20,
        "416": 252,
        "417": 188,
        "418": 176,
        "419": 239,
        "420": 36,
        "421": 200,
        "422": 255,
        "423": 187,
        "424": 134,
        "425": 148,
        "426": 174,
        "427": 243,
        "428": 118,
        "429": 80,
        "430": 78,
        "431": 245,
        "432": 134,
        "433": 172,
        "434": 176,
        "435": 230,
        "436": 6,
        "437": 200,
        "438": 6,
        "439": 245,
        "440": 181,
        "441": 7,
        "442": 30,
        "443": 232,
        "444": 84,
        "445": 148,
        "446": 245,
        "447": 61,
        "448": 198,
        "449": 19,
        "450": 113,
        "451": 109,
        "452": 187,
        "453": 102,
        "454": 124,
        "455": 39,
        "456": 155,
        "457": 197,
        "458": 184,
        "459": 162,
        "460": 229,
        "461": 135,
        "462": 68,
        "463": 174,
        "464": 109,
        "465": 110,
        "466": 8,
        "467": 4,
        "468": 43,
        "469": 164,
        "470": 228,
        "471": 15,
        "472": 54,
        "473": 47,
        "474": 233,
        "475": 11,
        "476": 90,
        "477": 73,
        "478": 28,
        "479": 207,
        "480": 144,
        "481": 206,
        "482": 75,
        "483": 145,
        "484": 176,
        "485": 49,
        "486": 173,
        "487": 232,
        "488": 19,
        "489": 30,
        "490": 89,
        "491": 112,
        "492": 22,
        "493": 71,
        "494": 89,
        "495": 92,
        "496": 215,
        "497": 86,
        "498": 209,
        "499": 222,
        "500": 118,
        "501": 87,
        "502": 76,
        "503": 249,
        "504": 220,
        "505": 63,
        "506": 194,
        "507": 98,
        "508": 46,
        "509": 88,
        "510": 174,
        "511": 64,
        "512": 81,
        "513": 169,
        "514": 251,
        "515": 12,
        "516": 13,
        "517": 209,
        "518": 146,
        "519": 33,
        "520": 245,
        "521": 76,
        "522": 121,
        "523": 134,
        "524": 87,
        "525": 12,
        "526": 229,
        "527": 196,
        "528": 8,
        "529": 250,
        "530": 42,
        "531": 236,
        "532": 81,
        "533": 22,
        "534": 168,
        "535": 87,
        "536": 157,
        "537": 82,
        "538": 246,
        "539": 18,
        "540": 195,
        "541": 55,
        "542": 185,
        "543": 11,
        "544": 166,
        "545": 236,
        "546": 59,
        "547": 7,
        "548": 152,
        "549": 204,
        "550": 37,
        "551": 234,
        "552": 152,
        "553": 129,
        "554": 224,
        "555": 132,
        "556": 87,
        "557": 241,
        "558": 161,
        "559": 251,
        "560": 164,
        "561": 115,
        "562": 205,
        "563": 14,
        "564": 131,
        "565": 171,
        "566": 104,
        "567": 5,
        "568": 225,
        "569": 136,
        "570": 17,
        "571": 6,
        "572": 63,
        "573": 63,
        "574": 208,
        "575": 114,
        "576": 39,
        "577": 65,
        "578": 218,
        "579": 145,
        "580": 203,
        "581": 18,
        "582": 114,
        "583": 133,
        "584": 208,
        "585": 240,
        "586": 33,
        "587": 183,
        "588": 46,
        "589": 247,
        "590": 118,
        "591": 129,
        "592": 170,
        "593": 149,
        "594": 245,
        "595": 45,
        "596": 39,
        "597": 144,
        "598": 181,
        "599": 181,
        "600": 188,
        "601": 190,
        "602": 25,
        "603": 67,
        "604": 132,
        "605": 9,
        "606": 109,
        "607": 203,
        "608": 22,
        "609": 132,
        "610": 230,
        "611": 207,
        "612": 180,
        "613": 106,
        "614": 233,
        "615": 142,
        "616": 219,
        "617": 125,
        "618": 136,
        "619": 138,
        "620": 236,
        "621": 56,
        "622": 205,
        "623": 56,
        "624": 112,
        "625": 103,
        "626": 107,
        "627": 208,
        "628": 142,
        "629": 62,
        "630": 11,
        "631": 210,
        "632": 89,
        "633": 207,
        "634": 9,
        "635": 255,
        "636": 28,
        "637": 123,
        "638": 112,
        "639": 92,
        "640": 168,
        "641": 59,
        "642": 226,
        "643": 49,
        "644": 253,
        "645": 97,
        "646": 45,
        "647": 99,
        "648": 202,
        "649": 149,
        "650": 14,
        "651": 46,
        "652": 192,
        "653": 7,
        "654": 155,
        "655": 35,
        "656": 26,
        "657": 167,
        "658": 181,
        "659": 183,
        "660": 111,
        "661": 100,
        "662": 29,
        "663": 36,
        "664": 10,
        "665": 138,
        "666": 27,
        "667": 197,
        "668": 158,
        "669": 95,
        "670": 82,
        "671": 8,
        "672": 43,
        "673": 54,
        "674": 35,
        "675": 70,
        "676": 103,
        "677": 85,
        "678": 152,
        "679": 130,
        "680": 47,
        "681": 217,
        "682": 62,
        "683": 212,
        "684": 179,
        "685": 252,
        "686": 191,
        "687": 174,
        "688": 73,
        "689": 220,
        "690": 177,
        "691": 240,
        "692": 226,
        "693": 109,
        "694": 89,
        "695": 29,
        "696": 248,
        "697": 217,
        "698": 116,
        "699": 33,
        "700": 98,
        "701": 251,
        "702": 21,
        "703": 242,
        "704": 186,
        "705": 208,
        "706": 5,
        "707": 193,
        "708": 96,
        "709": 30,
        "710": 250,
        "711": 33,
        "712": 176,
        "713": 187,
        "714": 10,
        "715": 207,
        "716": 136,
        "717": 177,
        "718": 162,
        "719": 105,
        "720": 61,
        "721": 8,
        "722": 60,
        "723": 37,
        "724": 142,
        "725": 144,
        "726": 221,
        "727": 222,
        "728": 13,
        "729": 43,
        "730": 9,
        "731": 249,
        "732": 145,
        "733": 250,
        "734": 156,
        "735": 247,
        "736": 147,
        "737": 244,
        "738": 241,
        "739": 113,
        "740": 15,
        "741": 251,
        "742": 42,
        "743": 128,
        "744": 156,
        "745": 169,
        "746": 90,
        "747": 62,
        "748": 145,
        "749": 106,
        "750": 187,
        "751": 54,
        "752": 88,
        "753": 16,
        "754": 36,
        "755": 130,
        "756": 10,
        "757": 105,
        "758": 248,
        "759": 83,
        "760": 235,
        "761": 58,
        "762": 181,
        "763": 235,
        "764": 189,
        "765": 127,
        "766": 153,
        "767": 15,
        "768": 35,
        "769": 193,
        "770": 84,
        "771": 130,
        "772": 203,
        "773": 111,
        "774": 9,
        "775": 194,
        "776": 244,
        "777": 33,
        "778": 81,
        "779": 252,
        "780": 130,
        "781": 63,
        "782": 164,
        "783": 232,
        "784": 245,
        "785": 195,
        "786": 81,
        "787": 164,
        "788": 62,
        "789": 156,
        "790": 86,
        "791": 145,
        "792": 182,
        "793": 162,
        "794": 73,
        "795": 247,
        "796": 134,
        "797": 120,
        "798": 99,
        "799": 229,
        "800": 55,
        "801": 101,
        "802": 48,
        "803": 154,
        "804": 95,
        "805": 162,
        "806": 52,
        "807": 79,
        "808": 213,
        "809": 166,
        "810": 253,
        "811": 64,
        "812": 201,
        "813": 242,
        "814": 145,
        "815": 125,
        "816": 30,
        "817": 161,
        "818": 22,
        "819": 212,
        "820": 245,
        "821": 41,
        "822": 59,
        "823": 151,
        "824": 83,
        "825": 229,
        "826": 166,
        "827": 128,
        "828": 94,
        "829": 123,
        "830": 255,
        "831": 139,
        "832": 218,
        "833": 6,
        "834": 183,
        "835": 210,
        "836": 6,
        "837": 121,
        "838": 214,
        "839": 69,
        "840": 251,
        "841": 48,
        "842": 85,
        "843": 8,
        "844": 134,
        "845": 51,
        "846": 24,
        "847": 90,
        "848": 217,
        "849": 79,
        "850": 250,
        "851": 148,
        "852": 220,
        "853": 196,
        "854": 95,
        "855": 103,
        "856": 35,
        "857": 98,
        "858": 83,
        "859": 126,
        "860": 151,
        "861": 249,
        "862": 91,
        "863": 214,
        "864": 104,
        "865": 17,
        "866": 60,
        "867": 52,
        "868": 137,
        "869": 22,
        "870": 58,
        "871": 102,
        "872": 251,
        "873": 142,
        "874": 34,
        "875": 243,
        "876": 30,
        "877": 212,
        "878": 47,
        "879": 230,
        "880": 87,
        "881": 227,
        "882": 137,
        "883": 181,
        "884": 66,
        "885": 140,
        "886": 147,
        "887": 171,
        "888": 7,
        "889": 164,
        "890": 166,
        "891": 221,
        "892": 92,
        "893": 197,
        "894": 68,
        "895": 147,
        "896": 16,
        "897": 37,
        "898": 124,
        "899": 126,
        "900": 59,
        "901": 198,
        "902": 24,
        "903": 145,
        "904": 11,
        "905": 206,
        "906": 236,
        "907": 220,
        "908": 176,
        "909": 18,
        "910": 44,
        "911": 83,
        "912": 7,
        "913": 79,
        "914": 194,
        "915": 26,
        "916": 159,
        "917": 153,
        "918": 4,
        "919": 212,
        "920": 81,
        "921": 188,
        "922": 3,
        "923": 204,
        "924": 251,
        "925": 27,
        "926": 181,
        "927": 164,
        "928": 115,
        "929": 247,
        "930": 190,
        "931": 125,
        "932": 37,
        "933": 4,
        "934": 21,
        "935": 37,
        "936": 59,
        "937": 70,
        "938": 119,
        "939": 253,
        "940": 107,
        "941": 206,
        "942": 23,
        "943": 96,
        "944": 41,
        "945": 152,
        "946": 183,
        "947": 69,
        "948": 146,
        "949": 247,
        "950": 32,
        "951": 110,
        "952": 187,
        "953": 65,
        "954": 67,
        "955": 99,
        "956": 63,
        "957": 249,
        "958": 126,
        "959": 128,
        "960": 238,
        "961": 2,
        "962": 178,
        "963": 147,
        "964": 76,
        "965": 104,
        "966": 191,
        "967": 75,
        "968": 219,
        "969": 118,
        "970": 91,
        "971": 219,
        "972": 92,
        "973": 138,
        "974": 167,
        "975": 247,
        "976": 101,
        "977": 10,
        "978": 251,
        "979": 3,
        "980": 242,
        "981": 83,
        "982": 247,
        "983": 191,
        "984": 85,
        "985": 109,
        "986": 205,
        "987": 131,
        "988": 58,
        "989": 123,
        "990": 236,
        "991": 28,
        "992": 213,
        "993": 120,
        "994": 11,
        "995": 45,
        "996": 190,
        "997": 5,
        "998": 127,
        "999": 189,
        "1000": 157,
        "1001": 138,
        "1002": 214,
        "1003": 112,
        "1004": 134,
        "1005": 182,
        "1006": 157,
        "1007": 167,
        "1008": 136,
        "1009": 142,
        "1010": 8,
        "1011": 16,
        "1012": 127,
        "1013": 201,
        "1014": 65,
        "1015": 180,
        "1016": 183,
        "1017": 210,
        "1018": 232,
        "1019": 75,
        "1020": 50,
        "1021": 247,
        "1022": 81,
        "1023": 170,
        "1024": 40,
        "1025": 231,
        "1026": 56,
        "1027": 103,
        "1028": 90,
        "1029": 188,
        "1030": 235,
        "1031": 70,
        "1032": 150,
        "1033": 10,
        "1034": 114,
        "1035": 22,
        "1036": 232,
        "1037": 114,
        "1038": 29,
        "1039": 44,
        "1040": 62,
        "1041": 200,
        "1042": 116,
        "1043": 222,
        "1044": 92,
        "1045": 104,
        "1046": 136,
        "1047": 108,
        "1048": 226,
        "1049": 185,
        "1050": 187,
        "1051": 239,
        "1052": 91,
        "1053": 178,
        "1054": 70,
        "1055": 87,
        "1056": 169,
        "1057": 127,
        "1058": 16,
        "1059": 29,
        "1060": 42,
        "1061": 197,
        "1062": 82,
        "1063": 4,
        "1064": 222,
        "1065": 91,
        "1066": 34,
        "1067": 250,
        "1068": 215,
        "1069": 151,
        "1070": 182,
        "1071": 85,
        "1072": 125,
        "1073": 78,
        "1074": 233,
        "1075": 105,
        "1076": 13,
        "1077": 230,
        "1078": 250,
        "1079": 106,
        "1080": 184,
        "1081": 103,
        "1082": 2,
        "1083": 84,
        "1084": 211,
        "1085": 84,
        "1086": 75,
        "1087": 111,
        "1088": 188,
        "1089": 4,
        "1090": 186,
        "1091": 11,
        "1092": 28,
        "1093": 237,
        "1094": 106,
        "1095": 166,
        "1096": 223,
        "1097": 198,
        "1098": 170,
        "1099": 41,
        "1100": 236,
        "1101": 116,
        "1102": 182,
        "1103": 39,
        "1104": 125,
        "1105": 32,
        "1106": 118,
        "1107": 247,
        "1108": 72,
        "1109": 38,
        "1110": 159,
        "1111": 0,
        "1112": 231,
        "1113": 108,
        "1114": 159,
        "1115": 188,
        "1116": 94,
        "1117": 76,
        "1118": 125,
        "1119": 133,
        "1120": 47,
        "1121": 181,
        "1122": 187,
        "1123": 202,
        "1124": 49,
        "1125": 171,
        "1126": 82,
        "1127": 209,
        "1128": 179,
        "1129": 157,
        "1130": 21,
        "1131": 93,
        "1132": 134,
        "1133": 237,
        "1134": 57,
        "1135": 178,
        "1136": 24,
        "1137": 187,
        "1138": 246,
        "1139": 21,
        "1140": 138,
        "1141": 148,
        "1142": 206,
        "1143": 181,
        "1144": 100,
        "1145": 29,
        "1146": 83,
        "1147": 238,
        "1148": 114,
        "1149": 38,
        "1150": 184,
        "1151": 249,
        "1152": 203,
        "1153": 163,
        "1154": 156,
        "1155": 115,
        "1156": 233,
        "1157": 13,
        "1158": 16,
        "1159": 154,
        "1160": 98,
        "1161": 212,
        "1162": 147,
        "1163": 220,
        "1164": 27,
        "1165": 44,
        "1166": 229,
        "1167": 118,
        "1168": 177,
        "1169": 115,
        "1170": 88,
        "1171": 221,
        "1172": 230,
        "1173": 170,
        "1174": 154,
        "1175": 102,
        "1176": 40,
        "1177": 132,
        "1178": 129,
        "1179": 238,
        "1180": 99,
        "1181": 23,
        "1182": 241,
        "1183": 105,
        "1184": 123,
        "1185": 149,
        "1186": 94,
        "1187": 167,
        "1188": 200,
        "1189": 103,
        "1190": 90,
        "1191": 184,
        "1192": 19,
        "1193": 127,
        "1194": 3,
        "1195": 61,
        "1196": 9,
        "1197": 70,
        "1198": 26,
        "1199": 169,
        "1200": 163,
        "1201": 27,
        "1202": 186,
        "1203": 31,
        "1204": 181,
        "1205": 197,
        "1206": 68,
        "1207": 203,
        "1208": 204,
        "1209": 63,
        "1210": 14,
        "1211": 143,
        "1212": 2,
        "1213": 197,
        "1214": 246,
        "1215": 194,
        "1216": 219,
        "1217": 173,
        "1218": 120,
        "1219": 41,
        "1220": 95,
        "1221": 123,
        "1222": 229,
        "1223": 214,
        "1224": 43,
        "1225": 89,
        "1226": 69,
        "1227": 161,
        "1228": 88,
        "1229": 234,
        "1230": 145,
        "1231": 183,
        "1232": 28,
        "1233": 89,
        "1234": 178,
        "1235": 35,
        "1236": 220,
        "1237": 7,
        "1238": 116,
        "1239": 199,
        "1240": 83,
        "1241": 162,
        "1242": 223,
        "1243": 29,
        "1244": 91,
        "1245": 150,
        "1246": 188,
        "1247": 42,
        "1248": 56,
        "1249": 34,
        "1250": 246,
        "1251": 6,
        "1252": 58,
        "1253": 202,
        "1254": 88,
        "1255": 9,
        "1256": 59,
        "1257": 152,
        "1258": 64,
        "1259": 10,
        "1260": 23,
        "1261": 150,
        "1262": 41,
        "1263": 93,
        "1264": 186,
        "1265": 197,
        "1266": 242,
        "1267": 25,
        "1268": 84,
        "1269": 128,
        "1270": 70,
        "1271": 138,
        "1272": 82,
        "1273": 72,
        "1274": 187,
        "1275": 5,
        "1276": 14,
        "1277": 160,
        "1278": 31,
        "1279": 249,
        "1280": 33,
        "1281": 170,
        "1282": 71,
        "1283": 83,
        "1284": 13,
        "1285": 85,
        "1286": 144,
        "1287": 178,
        "1288": 45,
        "1289": 102,
        "1290": 26,
        "1291": 254,
        "1292": 232,
        "1293": 155,
        "1294": 35,
        "1295": 157,
        "1296": 220,
        "1297": 241,
        "1298": 179,
        "1299": 65,
        "1300": 68,
        "1301": 19,
        "1302": 94,
        "1303": 184,
        "1304": 59,
        "1305": 37,
        "1306": 53,
        "1307": 215,
        "1308": 126,
        "1309": 222,
        "1310": 250,
        "1311": 213,
        "1312": 223,
        "1313": 236,
        "1314": 187,
        "1315": 106,
        "1316": 180,
        "1317": 90,
        "1318": 90,
        "1319": 248,
        "1320": 21,
        "1321": 137,
        "1322": 21,
        "1323": 227,
        "1324": 204,
        "1325": 160,
        "1326": 36,
        "1327": 213,
        "1328": 121,
        "1329": 150,
        "1330": 241,
        "1331": 239,
        "1332": 145,
        "1333": 169,
        "1334": 249,
        "1335": 157,
        "1336": 213,
        "1337": 151,
        "1338": 177,
        "1339": 254,
        "1340": 58,
        "1341": 134,
        "1342": 34,
        "1343": 220,
        "1344": 61,
        "1345": 141,
        "1346": 166,
        "1347": 86,
        "1348": 231,
        "1349": 171,
        "1350": 56,
        "1351": 116,
        "1352": 103,
        "1353": 220,
        "1354": 97,
        "1355": 94,
        "1356": 4,
        "1357": 116,
        "1358": 36,
        "1359": 216,
        "1360": 218,
        "1361": 236,
        "1362": 137,
        "1363": 120,
        "1364": 8,
        "1365": 98,
        "1366": 109,
        "1367": 194,
        "1368": 83,
        "1369": 52,
        "1370": 163,
        "1371": 181,
        "1372": 45,
        "1373": 51,
        "1374": 9,
        "1375": 74,
        "1376": 214,
        "1377": 141,
        "1378": 38,
        "1379": 132,
        "1380": 49,
        "1381": 254,
        "1382": 15,
        "1383": 63,
        "1384": 254,
        "1385": 168,
        "1386": 128,
        "1387": 88,
        "1388": 68,
        "1389": 181,
        "1390": 181,
        "1391": 232,
        "1392": 96,
        "1393": 85,
        "1394": 62,
        "1395": 151,
        "1396": 241,
        "1397": 115,
        "1398": 38,
        "1399": 168,
        "1400": 117,
        "1401": 223,
        "1402": 151,
        "1403": 24,
        "1404": 168,
        "1405": 248,
        "1406": 29,
        "1407": 137,
        "1408": 73,
        "1409": 202,
        "1410": 23,
        "1411": 22,
        "1412": 184,
        "1413": 102,
        "1414": 61,
        "1415": 189,
        "1416": 20,
        "1417": 173,
        "1418": 81,
        "1419": 96,
        "1420": 25,
        "1421": 98,
        "1422": 215,
        "1423": 130,
        "1424": 120,
        "1425": 56,
        "1426": 156,
        "1427": 220,
        "1428": 246,
        "1429": 90,
        "1430": 55,
        "1431": 144,
        "1432": 172,
        "1433": 43,
        "1434": 255,
        "1435": 93,
        "1436": 53,
        "1437": 8,
        "1438": 78,
        "1439": 55,
        "1440": 59,
        "1441": 39,
        "1442": 138,
        "1443": 82,
        "1444": 147,
        "1445": 189,
        "1446": 42,
        "1447": 172,
        "1448": 151,
        "1449": 224,
        "1450": 125,
        "1451": 118,
        "1452": 180,
        "1453": 75,
        "1454": 158,
        "1455": 179,
        "1456": 73,
        "1457": 4,
        "1458": 211,
        "1459": 48,
        "1460": 41,
        "1461": 6,
        "1462": 235,
        "1463": 45,
        "1464": 224,
        "1465": 78,
        "1466": 202,
        "1467": 174,
        "1468": 37,
        "1469": 204,
        "1470": 33,
        "1471": 135,
        "1472": 49,
        "1473": 239,
        "1474": 233,
        "1475": 210,
        "1476": 162,
        "1477": 174,
        "1478": 93,
        "1479": 26,
        "1480": 185,
        "1481": 128,
        "1482": 98,
        "1483": 151,
        "1484": 138,
        "1485": 138,
        "1486": 244,
        "1487": 50,
        "1488": 143,
        "1489": 231,
        "1490": 49,
        "1491": 94,
        "1492": 85,
        "1493": 214,
        "1494": 245,
        "1495": 40,
        "1496": 84,
        "1497": 215,
        "1498": 123,
        "1499": 186,
        "1500": 7,
        "1501": 248,
        "1502": 131,
        "1503": 135,
        "1504": 235,
        "1505": 33,
        "1506": 191,
        "1507": 255,
        "1508": 49,
        "1509": 73,
        "1510": 181,
        "1511": 85,
        "1512": 211,
        "1513": 241,
        "1514": 97,
        "1515": 54,
        "1516": 116,
        "1517": 148,
        "1518": 215,
        "1519": 122,
        "1520": 252,
        "1521": 73,
        "1522": 116,
        "1523": 32,
        "1524": 156,
        "1525": 6,
        "1526": 179,
        "1527": 150,
        "1528": 78,
        "1529": 206,
        "1530": 20,
        "1531": 243,
        "1532": 88,
        "1533": 46,
        "1534": 133,
        "1535": 66,
        "1536": 52,
        "1537": 157,
        "1538": 165,
        "1539": 71,
        "1540": 229,
        "1541": 53,
        "1542": 236,
        "1543": 92,
        "1544": 114,
        "1545": 201,
        "1546": 24,
        "1547": 240,
        "1548": 114,
        "1549": 200,
        "1550": 154,
        "1551": 214,
        "1552": 37,
        "1553": 39,
        "1554": 178,
        "1555": 66,
        "1556": 26,
        "1557": 139,
        "1558": 80,
        "1559": 169,
        "1560": 101,
        "1561": 116,
        "1562": 182,
        "1563": 238,
        "1564": 20,
        "1565": 53,
        "1566": 20,
        "1567": 116,
        "1568": 218,
        "1569": 36,
        "1570": 200,
        "1571": 123,
        "1572": 108,
        "1573": 220,
        "1574": 135,
        "1575": 204,
        "1576": 222,
        "1577": 41,
        "1578": 1,
        "1579": 45,
        "1580": 121,
        "1581": 50,
        "1582": 249,
        "1583": 252,
        "1584": 15,
        "1585": 249,
        "1586": 153,
        "1587": 192,
        "1588": 214,
        "1589": 215,
        "1590": 163,
        "1591": 250,
        "1592": 57,
        "1593": 109,
        "1594": 184,
        "1595": 194,
        "1596": 225,
        "1597": 97,
        "1598": 31,
        "1599": 7,
        "1600": 140,
        "1601": 104,
        "1602": 209,
        "1603": 132,
        "1604": 250,
        "1605": 130,
        "1606": 253,
        "1607": 108,
        "1608": 179,
        "1609": 169,
        "1610": 133,
        "1611": 120,
        "1612": 52,
        "1613": 108,
        "1614": 7,
        "1615": 241,
        "1616": 104,
        "1617": 161,
        "1618": 36,
        "1619": 28,
        "1620": 230,
        "1621": 86,
        "1622": 17,
        "1623": 171,
        "1624": 251,
        "1625": 110,
        "1626": 146,
        "1627": 253,
        "1628": 180,
        "1629": 131,
        "1630": 23,
        "1631": 63,
        "1632": 147,
        "1633": 97,
        "1634": 100,
        "1635": 80,
        "1636": 142,
        "1637": 143,
        "1638": 171,
        "1639": 82,
        "1640": 94,
        "1641": 24,
        "1642": 73,
        "1643": 41,
        "1644": 59,
        "1645": 132,
        "1646": 32,
        "1647": 119,
        "1648": 170,
        "1649": 16,
        "1650": 228,
        "1651": 231,
        "1652": 116,
        "1653": 201,
        "1654": 75,
        "1655": 172,
        "1656": 67,
        "1657": 160,
        "1658": 119,
        "1659": 184,
        "1660": 99,
        "1661": 211,
        "1662": 242,
        "1663": 172,
        "1664": 52,
        "1665": 218,
        "1666": 7,
        "1667": 84,
        "1668": 79,
        "1669": 163,
        "1670": 180,
        "1671": 165,
        "1672": 222,
        "1673": 137,
        "1674": 111,
        "1675": 68,
        "1676": 169,
        "1677": 166,
        "1678": 47,
        "1679": 14,
        "1680": 25,
        "1681": 96,
        "1682": 213,
        "1683": 41,
        "1684": 29,
        "1685": 227,
        "1686": 186,
        "1687": 219,
        "1688": 78,
        "1689": 12,
        "1690": 250,
        "1691": 68,
        "1692": 144,
        "1693": 180,
        "1694": 77,
        "1695": 40,
        "1696": 211,
        "1697": 43,
        "1698": 158,
        "1699": 43,
        "1700": 233,
        "1701": 234,
        "1702": 98,
        "1703": 207,
        "1704": 171,
        "1705": 206,
        "1706": 112,
        "1707": 161,
        "1708": 86,
        "1709": 242,
        "1710": 25,
        "1711": 116,
        "1712": 65,
        "1713": 222,
        "1714": 143,
        "1715": 90,
        "1716": 113,
        "1717": 44,
        "1718": 165,
        "1719": 127,
        "1720": 19,
        "1721": 100,
        "1722": 44,
        "1723": 14,
        "1724": 248,
        "1725": 151,
        "1726": 155,
        "1727": 226,
        "1728": 128,
        "1729": 102,
        "1730": 125,
        "1731": 116,
        "1732": 109,
        "1733": 111,
        "1734": 135,
        "1735": 124,
        "1736": 194,
        "1737": 58,
        "1738": 83,
        "1739": 14,
        "1740": 27,
        "1741": 73,
        "1742": 71,
        "1743": 175,
        "1744": 57,
        "1745": 154,
        "1746": 23,
        "1747": 60,
        "1748": 150,
        "1749": 224,
        "1750": 57,
        "1751": 111,
        "1752": 80,
        "1753": 76,
        "1754": 39,
        "1755": 210,
        "1756": 1,
        "1757": 46,
        "1758": 226,
        "1759": 78,
        "1760": 42,
        "1761": 91,
        "1762": 79,
        "1763": 211,
        "1764": 85,
        "1765": 240,
        "1766": 164,
        "1767": 202,
        "1768": 247,
        "1769": 185,
        "1770": 60,
        "1771": 234,
        "1772": 61,
        "1773": 136,
        "1774": 23,
        "1775": 34,
        "1776": 85,
        "1777": 88,
        "1778": 244,
        "1779": 217,
        "1780": 109,
        "1781": 212,
        "1782": 20,
        "1783": 191,
        "1784": 36,
        "1785": 152,
        "1786": 115,
        "1787": 127,
        "1788": 132,
        "1789": 103,
        "1790": 48,
        "1791": 12,
        "1792": 127,
        "1793": 133,
        "1794": 81,
        "1795": 186,
        "1796": 5,
        "1797": 74,
        "1798": 4,
        "1799": 220,
        "1800": 91,
        "1801": 67,
        "1802": 218,
        "1803": 180,
        "1804": 238,
        "1805": 63,
        "1806": 97,
        "1807": 164,
        "1808": 0,
        "1809": 14,
        "1810": 204,
        "1811": 12,
        "1812": 133,
        "1813": 73,
        "1814": 120,
        "1815": 102,
        "1816": 230,
        "1817": 56,
        "1818": 80,
        "1819": 57,
        "1820": 31,
        "1821": 171,
        "1822": 194,
        "1823": 92,
        "1824": 101,
        "1825": 62,
        "1826": 244,
        "1827": 80,
        "1828": 26,
        "1829": 95,
        "1830": 208,
        "1831": 128,
        "1832": 204,
        "1833": 25,
        "1834": 189,
        "1835": 223,
        "1836": 19,
        "1837": 94,
        "1838": 86,
        "1839": 236,
        "1840": 126,
        "1841": 54,
        "1842": 158,
        "1843": 71,
        "1844": 122,
        "1845": 242,
        "1846": 68,
        "1847": 30,
        "1848": 147,
        "1849": 84,
        "1850": 157,
        "1851": 135,
        "1852": 146,
        "1853": 193,
        "1854": 113,
        "1855": 176,
        "1856": 211,
        "1857": 144,
        "1858": 179,
        "1859": 67,
        "1860": 108,
        "1861": 130,
        "1862": 199,
        "1863": 15,
        "1864": 115,
        "1865": 199,
        "1866": 42,
        "1867": 214,
        "1868": 135,
        "1869": 181,
        "1870": 224,
        "1871": 118,
        "1872": 5,
        "1873": 150,
        "1874": 188,
        "1875": 228,
        "1876": 133,
        "1877": 174,
        "1878": 59,
        "1879": 233,
        "1880": 237,
        "1881": 246,
        "1882": 56,
        "1883": 76,
        "1884": 74,
        "1885": 71,
        "1886": 127,
        "1887": 242,
        "1888": 253,
        "1889": 17,
        "1890": 136,
        "1891": 96,
        "1892": 54,
        "1893": 115,
        "1894": 34,
        "1895": 221,
        "1896": 206,
        "1897": 68,
        "1898": 99,
        "1899": 203,
        "1900": 38,
        "1901": 40,
        "1902": 54,
        "1903": 80,
        "1904": 217,
        "1905": 40,
        "1906": 40,
        "1907": 104,
        "1908": 117,
        "1909": 173,
        "1910": 193,
        "1911": 150,
        "1912": 160,
        "1913": 84,
        "1914": 207,
        "1915": 200,
        "1916": 82,
        "1917": 68,
        "1918": 172,
        "1919": 215,
        "1920": 79,
        "1921": 234,
        "1922": 27,
        "1923": 175,
        "1924": 173,
        "1925": 90,
        "1926": 34,
        "1927": 218,
        "1928": 43,
        "1929": 133,
        "1930": 183,
        "1931": 138,
        "1932": 108,
        "1933": 188,
        "1934": 17,
        "1935": 33,
        "1936": 5,
        "1937": 191,
        "1938": 34,
        "1939": 80,
        "1940": 198,
        "1941": 162,
        "1942": 224,
        "1943": 218,
        "1944": 164,
        "1945": 147,
        "1946": 230,
        "1947": 127,
        "1948": 240,
        "1949": 254,
        "1950": 246,
        "1951": 41,
        "1952": 156,
        "1953": 24,
        "1954": 69,
        "1955": 11,
        "1956": 21,
        "1957": 36,
        "1958": 253,
        "1959": 44,
        "1960": 98,
        "1961": 134,
        "1962": 228,
        "1963": 163,
        "1964": 3,
        "1965": 98,
        "1966": 30,
        "1967": 135,
        "1968": 210,
        "1969": 31,
        "1970": 190,
        "1971": 205,
        "1972": 155,
        "1973": 190,
        "1974": 85,
        "1975": 186,
        "1976": 194,
        "1977": 155,
        "1978": 29,
        "1979": 77,
        "1980": 172,
        "1981": 148,
        "1982": 211,
        "1983": 96,
        "1984": 104,
        "1985": 22,
        "1986": 151,
        "1987": 186,
        "1988": 110,
        "1989": 20,
        "1990": 80,
        "1991": 53,
        "1992": 190,
        "1993": 74,
        "1994": 238,
        "1995": 58,
        "1996": 245,
        "1997": 195,
        "1998": 223,
        "1999": 119,
        "2000": 70,
        "2001": 150,
        "2002": 214,
        "2003": 227,
        "2004": 90,
        "2005": 217,
        "2006": 94,
        "2007": 10,
        "2008": 228,
        "2009": 41,
        "2010": 75,
        "2011": 178,
        "2012": 184,
        "2013": 66,
        "2014": 24,
        "2015": 165,
        "2016": 149,
        "2017": 209,
        "2018": 12,
        "2019": 24,
        "2020": 237,
        "2021": 37,
        "2022": 131,
        "2023": 221,
        "2024": 148,
        "2025": 52,
        "2026": 76,
        "2027": 45,
        "2028": 204,
        "2029": 171,
        "2030": 195,
        "2031": 19,
        "2032": 134,
        "2033": 138,
        "2034": 2,
        "2035": 157,
        "2036": 87,
        "2037": 54,
        "2038": 101,
        "2039": 20,
        "2040": 26,
        "2041": 130,
        "2042": 149,
        "2043": 227,
        "2044": 173,
        "2045": 170,
        "2046": 198,
        "2047": 204,
        "2048": 102,
        "2049": 156,
        "2050": 85,
        "2051": 78,
        "2052": 67,
        "2053": 120,
        "2054": 219,
        "2055": 59,
        "2056": 206,
        "2057": 2,
        "2058": 190,
        "2059": 249,
        "2060": 214,
        "2061": 244,
        "2062": 54,
        "2063": 47,
        "2064": 180,
        "2065": 253,
        "2066": 185,
        "2067": 232,
        "2068": 159,
        "2069": 165,
        "2070": 176,
        "2071": 240,
        "2072": 141,
        "2073": 74,
        "2074": 96,
        "2075": 4,
        "2076": 138,
        "2077": 85,
        "2078": 14,
        "2079": 74,
        "2080": 177,
        "2081": 231,
        "2082": 134,
        "2083": 7,
        "2084": 238,
        "2085": 255,
        "2086": 60,
        "2087": 209,
        "2088": 17,
        "2089": 29,
        "2090": 212,
        "2091": 57,
        "2092": 177,
        "2093": 243,
        "2094": 236,
        "2095": 186,
        "2096": 200,
        "2097": 245,
        "2098": 51,
        "2099": 206,
        "2100": 106,
        "2101": 231,
        "2102": 127,
        "2103": 115,
        "2104": 249,
        "2105": 36,
        "2106": 164,
        "2107": 154,
        "2108": 112,
        "2109": 112,
        "2110": 218,
        "2111": 128,
        "2112": 114,
        "2113": 46,
        "2114": 188,
        "2115": 215,
        "2116": 53,
        "2117": 250,
        "2118": 128,
        "2119": 244,
        "2120": 150,
        "2121": 143,
        "2122": 61,
        "2123": 5,
        "2124": 14,
        "2125": 180,
        "2126": 251,
        "2127": 243,
        "2128": 20,
        "2129": 248,
        "2130": 75,
        "2131": 3,
        "2132": 144,
        "2133": 186,
        "2134": 163,
        "2135": 67,
        "2136": 31,
        "2137": 56,
        "2138": 189,
        "2139": 143,
        "2140": 185,
        "2141": 236,
        "2142": 5,
        "2143": 108,
        "2144": 106,
        "2145": 121,
        "2146": 183,
        "2147": 216,
        "2148": 70,
        "2149": 174,
        "2150": 99,
        "2151": 91,
        "2152": 207,
        "2153": 80,
        "2154": 158,
        "2155": 224,
        "2156": 117,
        "2157": 90,
        "2158": 102,
        "2159": 188,
        "2160": 194,
        "2161": 127,
        "2162": 225,
        "2163": 43,
        "2164": 45,
        "2165": 179,
        "2166": 96,
        "2167": 159,
        "2168": 25,
        "2169": 47,
        "2170": 11,
        "2171": 167,
        "2172": 46,
        "2173": 107,
        "2174": 244,
        "2175": 180,
        "2176": 203,
        "2177": 81,
        "2178": 107,
        "2179": 110,
        "2180": 77,
        "2181": 191,
        "2182": 49,
        "2183": 158,
        "2184": 18,
        "2185": 35,
        "2186": 73,
        "2187": 58,
        "2188": 139,
        "2189": 221,
        "2190": 244,
        "2191": 138,
        "2192": 56,
        "2193": 89,
        "2194": 187,
        "2195": 17,
        "2196": 177,
        "2197": 249,
        "2198": 51,
        "2199": 244,
        "2200": 2,
        "2201": 223,
        "2202": 15,
        "2203": 213,
        "2204": 171,
        "2205": 222,
        "2206": 27,
        "2207": 42,
        "2208": 52,
        "2209": 85,
        "2210": 222,
        "2211": 59,
        "2212": 99,
        "2213": 114,
        "2214": 220,
        "2215": 163,
        "2216": 51,
        "2217": 71,
        "2218": 214,
        "2219": 78,
        "2220": 92,
        "2221": 136,
        "2222": 95,
        "2223": 38,
        "2224": 109,
        "2225": 45,
        "2226": 188,
        "2227": 192,
        "2228": 160,
        "2229": 229,
        "2230": 134,
        "2231": 122,
        "2232": 58,
        "2233": 242,
        "2234": 56,
        "2235": 82,
        "2236": 70,
        "2237": 204,
        "2238": 202,
        "2239": 90,
        "2240": 251,
        "2241": 17,
        "2242": 69,
        "2243": 183,
        "2244": 65,
        "2245": 195,
        "2246": 178,
        "2247": 148,
        "2248": 233,
        "2249": 234,
        "2250": 41,
        "2251": 43,
        "2252": 140,
        "2253": 54,
        "2254": 50,
        "2255": 196,
        "2256": 89,
        "2257": 228,
        "2258": 22,
        "2259": 168,
        "2260": 126,
        "2261": 156,
        "2262": 88,
        "2263": 153,
        "2264": 123,
        "2265": 87,
        "2266": 191,
        "2267": 51,
        "2268": 211,
        "2269": 56,
        "2270": 239,
        "2271": 83,
        "2272": 75,
        "2273": 150,
        "2274": 50,
        "2275": 106,
        "2276": 95,
        "2277": 50,
        "2278": 136,
        "2279": 99,
        "2280": 57,
        "2281": 246,
        "2282": 212,
        "2283": 164,
        "2284": 13,
        "2285": 168,
        "2286": 244,
        "2287": 44,
        "2288": 227,
        "2289": 174,
        "2290": 36,
        "2291": 191,
        "2292": 3,
        "2293": 162,
        "2294": 115,
        "2295": 235,
        "2296": 122,
        "2297": 203,
        "2298": 61,
        "2299": 50,
        "2300": 58,
        "2301": 66,
        "2302": 84,
        "2303": 233,
        "2304": 223,
        "2305": 65,
        "2306": 242,
        "2307": 127,
        "2308": 5,
        "2309": 209,
        "2310": 227,
        "2311": 29,
        "2312": 45,
        "2313": 132,
        "2314": 79,
        "2315": 66,
        "2316": 2,
        "2317": 20,
        "2318": 216,
        "2319": 57,
        "2320": 170,
        "2321": 37,
        "2322": 173,
        "2323": 251,
        "2324": 26,
        "2325": 211,
        "2326": 54,
        "2327": 17,
        "2328": 113,
        "2329": 0,
        "2330": 185,
        "2331": 153,
        "2332": 240,
        "2333": 121,
        "2334": 239,
        "2335": 251,
        "2336": 91,
        "2337": 6,
        "2338": 63,
        "2339": 219,
        "2340": 200,
        "2341": 249,
        "2342": 219,
        "2343": 166,
        "2344": 63,
        "2345": 158,
        "2346": 178,
        "2347": 60,
        "2348": 147,
        "2349": 19,
        "2350": 215,
        "2351": 235,
        "2352": 251,
        "2353": 56,
        "2354": 122,
        "2355": 58,
        "2356": 237,
        "2357": 164,
        "2358": 211,
        "2359": 11,
        "2360": 175,
        "2361": 30,
        "2362": 165,
        "2363": 225,
        "2364": 164,
        "2365": 82,
        "2366": 250,
        "2367": 59,
        "2368": 14,
        "2369": 227,
        "2370": 216,
        "2371": 32,
        "2372": 3,
        "2373": 196,
        "2374": 253,
        "2375": 236,
        "2376": 9,
        "2377": 107,
        "2378": 83,
        "2379": 88,
        "2380": 66,
        "2381": 170,
        "2382": 23,
        "2383": 255,
        "2384": 181,
        "2385": 161,
        "2386": 221,
        "2387": 105,
        "2388": 11,
        "2389": 19,
        "2390": 5,
        "2391": 11,
        "2392": 6,
        "2393": 142,
        "2394": 113,
        "2395": 139,
        "2396": 245,
        "2397": 162,
        "2398": 13,
        "2399": 237,
        "2400": 21,
        "2401": 169,
        "2402": 202,
        "2403": 137,
        "2404": 230,
        "2405": 184,
        "2406": 57,
        "2407": 118,
        "2408": 115,
        "2409": 227,
        "2410": 143,
        "2411": 135,
        "2412": 170,
        "2413": 223,
        "2414": 227,
        "2415": 193,
        "2416": 92,
        "2417": 238,
        "2418": 172,
        "2419": 19,
        "2420": 116,
        "2421": 233,
        "2422": 109,
        "2423": 182,
        "2424": 92,
        "2425": 239,
        "2426": 242,
        "2427": 115,
        "2428": 122,
        "2429": 14,
        "2430": 168,
        "2431": 23,
        "2432": 237,
        "2433": 124,
        "2434": 166,
        "2435": 116,
        "2436": 156,
        "2437": 78,
        "2438": 146,
        "2439": 2,
        "2440": 218,
        "2441": 10,
        "2442": 114,
        "2443": 215,
        "2444": 118,
        "2445": 125,
        "2446": 194,
        "2447": 57,
        "2448": 167,
        "2449": 67,
        "2450": 148,
        "2451": 44,
        "2452": 174,
        "2453": 235,
        "2454": 219,
        "2455": 3,
        "2456": 6,
        "2457": 168,
        "2458": 176,
        "2459": 54,
        "2460": 14,
        "2461": 237,
        "2462": 91,
        "2463": 238,
        "2464": 6,
        "2465": 166,
        "2466": 61,
        "2467": 214,
        "2468": 246,
        "2469": 220,
        "2470": 153,
        "2471": 251,
        "2472": 152,
        "2473": 19,
        "2474": 56,
        "2475": 3,
        "2476": 106,
        "2477": 63,
        "2478": 186,
        "2479": 148,
        "2480": 246,
        "2481": 220,
        "2482": 241,
        "2483": 89,
        "2484": 147,
        "2485": 35,
        "2486": 182,
        "2487": 25,
        "2488": 150,
        "2489": 209,
        "2490": 8,
        "2491": 240,
        "2492": 230,
        "2493": 245,
        "2494": 127,
        "2495": 49,
        "2496": 156,
        "2497": 28,
        "2498": 40,
        "2499": 100,
        "2500": 43,
        "2501": 181,
        "2502": 147,
        "2503": 27,
        "2504": 18,
        "2505": 254,
        "2506": 103,
        "2507": 255,
        "2508": 35,
        "2509": 72,
        "2510": 119,
        "2511": 200,
        "2512": 13,
        "2513": 65,
        "2514": 233,
        "2515": 150,
        "2516": 84,
        "2517": 208,
        "2518": 80,
        "2519": 37,
        "2520": 31,
        "2521": 47,
        "2522": 72,
        "2523": 152,
        "2524": 232,
        "2525": 188,
        "2526": 45,
        "2527": 237,
        "2528": 192,
        "2529": 145,
        "2530": 25,
        "2531": 82,
        "2532": 241,
        "2533": 128,
        "2534": 193,
        "2535": 102,
        "2536": 253,
        "2537": 245,
        "2538": 166,
        "2539": 80,
        "2540": 26,
        "2541": 57,
        "2542": 68,
        "2543": 35,
        "2544": 143,
        "2545": 136,
        "2546": 207,
        "2547": 201,
        "2548": 82,
        "2549": 200,
        "2550": 185,
        "2551": 99,
        "2552": 183,
        "2553": 206,
        "2554": 176,
        "2555": 172,
        "2556": 122,
        "2557": 42,
        "2558": 105,
        "2559": 175,
        "2560": 15,
        "2561": 174,
        "2562": 215,
        "2563": 204,
        "2564": 176,
        "2565": 245,
        "2566": 237,
        "2567": 243,
        "2568": 96,
        "2569": 115,
        "2570": 45,
        "2571": 247,
        "2572": 36,
        "2573": 45,
        "2574": 196,
        "2575": 153,
        "2576": 25,
        "2577": 65,
        "2578": 192,
        "2579": 42,
        "2580": 52,
        "2581": 219,
        "2582": 93,
        "2583": 195,
        "2584": 178,
        "2585": 118,
        "2586": 248,
        "2587": 109,
        "2588": 8,
        "2589": 49,
        "2590": 136,
        "2591": 101,
        "2592": 224,
        "2593": 236,
        "2594": 53,
        "2595": 177,
        "2596": 78,
        "2597": 42,
        "2598": 34,
        "2599": 42,
        "2600": 80,
        "2601": 47,
        "2602": 157,
        "2603": 249,
        "2604": 164,
        "2605": 191,
        "2606": 71,
        "2607": 109,
        "2608": 82,
        "2609": 111,
        "2610": 97,
        "2611": 12,
        "2612": 160,
        "2613": 120,
        "2614": 236,
        "2615": 178,
        "2616": 255,
        "2617": 35,
        "2618": 133,
        "2619": 225,
        "2620": 134,
        "2621": 170,
        "2622": 232,
        "2623": 2,
        "2624": 108,
        "2625": 70,
        "2626": 109,
        "2627": 151,
        "2628": 87,
        "2629": 100,
        "2630": 166,
        "2631": 25,
        "2632": 204,
        "2633": 51,
        "2634": 133,
        "2635": 48,
        "2636": 84,
        "2637": 229,
        "2638": 142,
        "2639": 98,
        "2640": 147,
        "2641": 47,
        "2642": 141,
        "2643": 136,
        "2644": 87,
        "2645": 217,
        "2646": 158,
        "2647": 156,
        "2648": 216,
        "2649": 176,
        "2650": 28,
        "2651": 165,
        "2652": 10,
        "2653": 147,
        "2654": 32,
        "2655": 105,
        "2656": 225,
        "2657": 235,
        "2658": 213,
        "2659": 58,
        "2660": 14,
        "2661": 195,
        "2662": 254,
        "2663": 227,
        "2664": 181,
        "2665": 17,
        "2666": 253,
        "2667": 46,
        "2668": 165,
        "2669": 190,
        "2670": 191,
        "2671": 159,
        "2672": 197,
        "2673": 227,
        "2674": 133,
        "2675": 70,
        "2676": 108,
        "2677": 103,
        "2678": 49,
        "2679": 125,
        "2680": 235,
        "2681": 227,
        "2682": 72,
        "2683": 50,
        "2684": 217,
        "2685": 75,
        "2686": 205,
        "2687": 218,
        "2688": 204,
        "2689": 114,
        "2690": 10,
        "2691": 87,
        "2692": 235,
        "2693": 9,
        "2694": 20,
        "2695": 132,
        "2696": 220,
        "2697": 39,
        "2698": 113,
        "2699": 134,
        "2700": 79,
        "2701": 73,
        "2702": 162,
        "2703": 57,
        "2704": 112,
        "2705": 100,
        "2706": 243,
        "2707": 56,
        "2708": 44,
        "2709": 244,
        "2710": 204,
        "2711": 165,
        "2712": 248,
        "2713": 236,
        "2714": 203,
        "2715": 136,
        "2716": 216,
        "2717": 34,
        "2718": 251,
        "2719": 239,
        "2720": 64,
        "2721": 212,
        "2722": 21,
        "2723": 237,
        "2724": 92,
        "2725": 158,
        "2726": 17,
        "2727": 135,
        "2728": 20,
        "2729": 215,
        "2730": 7,
        "2731": 148,
        "2732": 53,
        "2733": 119,
        "2734": 237,
        "2735": 214,
        "2736": 111,
        "2737": 131,
        "2738": 106,
        "2739": 208,
        "2740": 55,
        "2741": 81,
        "2742": 161,
        "2743": 246,
        "2744": 24,
        "2745": 215,
        "2746": 51,
        "2747": 76,
        "2748": 228,
        "2749": 37,
        "2750": 159,
        "2751": 195,
        "2752": 22,
        "2753": 185,
        "2754": 59,
        "2755": 23,
        "2756": 95,
        "2757": 161,
        "2758": 161,
        "2759": 254,
        "2760": 226,
        "2761": 193,
        "2762": 254,
        "2763": 81,
        "2764": 123,
        "2765": 57,
        "2766": 66,
        "2767": 99,
        "2768": 164,
        "2769": 216,
        "2770": 170,
        "2771": 83,
        "2772": 227,
        "2773": 90,
        "2774": 74,
        "2775": 36,
        "2776": 78,
        "2777": 240,
        "2778": 48,
        "2779": 125,
        "2780": 2,
        "2781": 5,
        "2782": 233,
        "2783": 186,
        "2784": 8,
        "2785": 95,
        "2786": 31,
        "2787": 9,
        "2788": 245,
        "2789": 225,
        "2790": 153,
        "2791": 121,
        "2792": 187,
        "2793": 164,
        "2794": 37,
        "2795": 213,
        "2796": 218,
        "2797": 182,
        "2798": 236,
        "2799": 171,
        "2800": 24,
        "2801": 96,
        "2802": 55,
        "2803": 249,
        "2804": 180,
        "2805": 83,
        "2806": 191,
        "2807": 163,
        "2808": 228,
        "2809": 71,
        "2810": 65,
        "2811": 35,
        "2812": 33,
        "2813": 164,
        "2814": 216,
        "2815": 86,
        "2816": 213,
        "2817": 200,
        "2818": 97,
        "2819": 155,
        "2820": 9,
        "2821": 161,
        "2822": 158,
        "2823": 43,
        "2824": 218,
        "2825": 172,
        "2826": 106,
        "2827": 169,
        "2828": 57,
        "2829": 230,
        "2830": 242,
        "2831": 144,
        "2832": 52,
        "2833": 141,
        "2834": 213,
        "2835": 190,
        "2836": 122,
        "2837": 54,
        "2838": 250,
        "2839": 195,
        "2840": 147,
        "2841": 148,
        "2842": 9,
        "2843": 80,
        "2844": 216,
        "2845": 148,
        "2846": 101,
        "2847": 240,
        "2848": 187,
        "2849": 17,
        "2850": 171,
        "2851": 68,
        "2852": 197,
        "2853": 129,
        "2854": 222,
        "2855": 174,
        "2856": 112,
        "2857": 197,
        "2858": 122,
        "2859": 145,
        "2860": 111,
        "2861": 207,
        "2862": 173,
        "2863": 118,
        "2864": 188,
        "2865": 106,
        "2866": 146,
        "2867": 4,
        "2868": 115,
        "2869": 223,
        "2870": 69,
        "2871": 43,
        "2872": 9,
        "2873": 249,
        "2874": 179,
        "2875": 224,
        "2876": 68,
        "2877": 28,
        "2878": 226,
        "2879": 152,
        "2880": 38,
        "2881": 174,
        "2882": 158,
        "2883": 20,
        "2884": 245,
        "2885": 55,
        "2886": 46,
        "2887": 140,
        "2888": 32,
        "2889": 37,
        "2890": 176,
        "2891": 233,
        "2892": 159,
        "2893": 98,
        "2894": 116,
        "2895": 59,
        "2896": 40,
        "2897": 124,
        "2898": 186,
        "2899": 133,
        "2900": 174,
        "2901": 34,
        "2902": 130,
        "2903": 174,
        "2904": 8,
        "2905": 143,
        "2906": 227,
        "2907": 128,
        "2908": 70,
        "2909": 226,
        "2910": 18,
        "2911": 6,
        "2912": 227,
        "2913": 26,
        "2914": 192,
        "2915": 19,
        "2916": 30,
        "2917": 223,
        "2918": 99,
        "2919": 124,
        "2920": 218,
        "2921": 90,
        "2922": 144,
        "2923": 57,
        "2924": 109,
        "2925": 10,
        "2926": 125,
        "2927": 180,
        "2928": 173,
        "2929": 131,
        "2930": 32,
        "2931": 28,
        "2932": 227,
        "2933": 42,
        "2934": 31,
        "2935": 142,
        "2936": 186,
        "2937": 92,
        "2938": 24,
        "2939": 173,
        "2940": 194,
        "2941": 225,
        "2942": 84,
        "2943": 185,
        "2944": 103,
        "2945": 59,
        "2946": 1,
        "2947": 202,
        "2948": 133,
        "2949": 229,
        "2950": 25,
        "2951": 26,
        "2952": 231,
        "2953": 241,
        "2954": 79,
        "2955": 15,
        "2956": 248,
        "2957": 51,
        "2958": 177,
        "2959": 119,
        "2960": 20,
        "2961": 128,
        "2962": 229,
        "2963": 115,
        "2964": 33,
        "2965": 107,
        "2966": 193,
        "2967": 127,
        "2968": 187,
        "2969": 68,
        "2970": 241,
        "2971": 27,
        "2972": 238,
        "2973": 15,
        "2974": 136,
        "2975": 223,
        "2976": 89,
        "2977": 160,
        "2978": 25,
        "2979": 118,
        "2980": 8,
        "2981": 5,
        "2982": 0,
        "2983": 241,
        "2984": 87,
        "2985": 66,
        "2986": 181,
        "2987": 188,
        "2988": 85,
        "2989": 241,
        "2990": 186,
        "2991": 114,
        "2992": 164,
        "2993": 199,
        "2994": 54,
        "2995": 214,
        "2996": 137,
        "2997": 249,
        "2998": 161,
        "2999": 108,
        "3000": 108,
        "3001": 150,
        "3002": 174,
        "3003": 215,
        "3004": 113,
        "3005": 49,
        "3006": 105,
        "3007": 131,
        "3008": 234,
        "3009": 95,
        "3010": 79,
        "3011": 160,
        "3012": 44,
        "3013": 254,
        "3014": 218,
        "3015": 70,
        "3016": 87,
        "3017": 43,
        "3018": 2,
        "3019": 102,
        "3020": 79,
        "3021": 223,
        "3022": 215,
        "3023": 101,
        "3024": 187,
        "3025": 59,
        "3026": 6,
        "3027": 190,
        "3028": 6,
        "3029": 47,
        "3030": 233,
        "3031": 146,
        "3032": 43,
        "3033": 20,
        "3034": 187,
        "3035": 30,
        "3036": 48,
        "3037": 53,
        "3038": 38,
        "3039": 244,
        "3040": 132,
        "3041": 46,
        "3042": 159,
        "3043": 81,
        "3044": 21,
        "3045": 148,
        "3046": 6,
        "3047": 24,
        "3048": 203,
        "3049": 199,
        "3050": 161,
        "3051": 58,
        "3052": 17,
        "3053": 232,
        "3054": 230,
        "3055": 100,
        "3056": 214,
        "3057": 212,
        "3058": 202,
        "3059": 0,
        "3060": 82,
        "3061": 22,
        "3062": 206,
        "3063": 29,
        "3064": 177,
        "3065": 39,
        "3066": 86,
        "3067": 60,
        "3068": 98,
        "3069": 247,
        "3070": 44,
        "3071": 171,
        "3072": 241,
        "3073": 252,
        "3074": 171,
        "3075": 90,
        "3076": 225,
        "3077": 122,
        "3078": 125,
        "3079": 14,
        "3080": 94,
        "3081": 69,
        "3082": 70,
        "3083": 197,
        "3084": 131,
        "3085": 18,
        "3086": 120,
        "3087": 50,
        "3088": 104,
        "3089": 136,
        "3090": 173,
        "3091": 30,
        "3092": 227,
        "3093": 237,
        "3094": 238,
        "3095": 206,
        "3096": 66,
        "3097": 253,
        "3098": 113,
        "3099": 174,
        "3100": 31,
        "3101": 212,
        "3102": 191,
        "3103": 114,
        "3104": 57,
        "3105": 47,
        "3106": 47,
        "3107": 6,
        "3108": 252,
        "3109": 182,
        "3110": 33,
        "3111": 126,
        "3112": 185,
        "3113": 233,
        "3114": 51,
        "3115": 104,
        "3116": 22,
        "3117": 93,
        "3118": 3,
        "3119": 39,
        "3120": 144,
        "3121": 5,
        "3122": 190,
        "3123": 200,
        "3124": 41,
        "3125": 181,
        "3126": 25,
        "3127": 35,
        "3128": 238,
        "3129": 229,
        "3130": 63,
        "3131": 52,
        "3132": 255,
        "3133": 30,
        "3134": 45,
        "3135": 149,
        "3136": 123,
        "3137": 214,
        "3138": 110,
        "3139": 21,
        "3140": 158,
        "3141": 242,
        "3142": 178,
        "3143": 81,
        "3144": 11,
        "3145": 228,
        "3146": 221,
        "3147": 244,
        "3148": 190,
        "3149": 108,
        "3150": 153,
        "3151": 209,
        "3152": 13,
        "3153": 8,
        "3154": 164,
        "3155": 198,
        "3156": 31,
        "3157": 27,
        "3158": 67,
        "3159": 248,
        "3160": 252,
        "3161": 6,
        "3162": 226,
        "3163": 207,
        "3164": 45,
        "3165": 194,
        "3166": 195,
        "3167": 134,
        "3168": 199,
        "3169": 156,
        "3170": 29,
        "3171": 58,
        "3172": 110,
        "3173": 88,
        "3174": 177,
        "3175": 143,
        "3176": 33,
        "3177": 41,
        "3178": 73,
        "3179": 105,
        "3180": 135,
        "3181": 122,
        "3182": 173,
        "3183": 205,
        "3184": 81,
        "3185": 152,
        "3186": 161,
        "3187": 59,
        "3188": 99,
        "3189": 29,
        "3190": 187,
        "3191": 142,
        "3192": 103,
        "3193": 138,
        "3194": 146,
        "3195": 153,
        "3196": 158,
        "3197": 80,
        "3198": 149,
        "3199": 36,
        "3200": 124,
        "3201": 185,
        "3202": 207,
        "3203": 216,
        "3204": 65,
        "3205": 35,
        "3206": 148,
        "3207": 49,
        "3208": 166,
        "3209": 76,
        "3210": 93,
        "3211": 191,
        "3212": 195,
        "3213": 165,
        "3214": 41,
        "3215": 197,
        "3216": 15,
        "3217": 27,
        "3218": 173,
        "3219": 137,
        "3220": 210,
        "3221": 140,
        "3222": 162,
        "3223": 126,
        "3224": 226,
        "3225": 245,
        "3226": 117,
        "3227": 92,
        "3228": 239,
        "3229": 76,
        "3230": 101,
        "3231": 150,
        "3232": 13,
        "3233": 134,
        "3234": 93,
        "3235": 113,
        "3236": 26,
        "3237": 93,
        "3238": 242,
        "3239": 147,
        "3240": 152,
        "3241": 71,
        "3242": 1,
        "3243": 204,
        "3244": 64,
        "3245": 93,
        "3246": 226,
        "3247": 24,
        "3248": 23,
        "3249": 197,
        "3250": 27,
        "3251": 7,
        "3252": 246,
        "3253": 253,
        "3254": 220,
        "3255": 218,
        "3256": 70,
        "3257": 201,
        "3258": 100,
        "3259": 38,
        "3260": 190,
        "3261": 33,
        "3262": 122,
        "3263": 66,
        "3264": 34,
        "3265": 169,
        "3266": 230,
        "3267": 240,
        "3268": 230,
        "3269": 76,
        "3270": 108,
        "3271": 191,
        "3272": 193,
        "3273": 198,
        "3274": 164,
        "3275": 74,
        "3276": 7,
        "3277": 188,
        "3278": 32,
        "3279": 18,
        "3280": 170,
        "3281": 139,
        "3282": 135,
        "3283": 145,
        "3284": 78,
        "3285": 111,
        "3286": 254,
        "3287": 23,
        "3288": 175,
        "3289": 142,
        "3290": 148,
        "3291": 254,
        "3292": 31,
        "3293": 119,
        "3294": 84,
        "3295": 51,
        "3296": 10,
        "3297": 1,
        "3298": 40,
        "3299": 166,
        "3300": 34,
        "3301": 114,
        "3302": 119,
        "3303": 123,
        "3304": 78,
        "3305": 139,
        "3306": 24,
        "3307": 192,
        "3308": 44,
        "3309": 146,
        "3310": 2,
        "3311": 218,
        "3312": 216,
        "3313": 224,
        "3314": 148,
        "3315": 2,
        "3316": 199,
        "3317": 237,
        "3318": 113,
        "3319": 20,
        "3320": 210,
        "3321": 55,
        "3322": 106,
        "3323": 195,
        "3324": 110,
        "3325": 202,
        "3326": 85,
        "3327": 224,
        "3328": 59,
        "3329": 134,
        "3330": 57,
        "3331": 62,
        "3332": 54,
        "3333": 78,
        "3334": 37,
        "3335": 244,
        "3336": 116,
        "3337": 223,
        "3338": 104,
        "3339": 160,
        "3340": 65,
        "3341": 227,
        "3342": 76,
        "3343": 15,
        "3344": 200,
        "3345": 234,
        "3346": 153,
        "3347": 195,
        "3348": 29,
        "3349": 6,
        "3350": 77,
        "3351": 222,
        "3352": 7,
        "3353": 187,
        "3354": 42,
        "3355": 77,
        "3356": 2,
        "3357": 202,
        "3358": 193,
        "3359": 219,
        "3360": 116,
        "3361": 222,
        "3362": 47,
        "3363": 32,
        "3364": 56,
        "3365": 121,
        "3366": 91,
        "3367": 239,
        "3368": 101,
        "3369": 145,
        "3370": 133,
        "3371": 79,
        "3372": 17,
        "3373": 83,
        "3374": 238,
        "3375": 1,
        "3376": 162,
        "3377": 171,
        "3378": 111,
        "3379": 88,
        "3380": 45,
        "3381": 137,
        "3382": 219,
        "3383": 222,
        "3384": 116,
        "3385": 20,
        "3386": 185,
        "3387": 68,
        "3388": 174,
        "3389": 208,
        "3390": 148,
        "3391": 8,
        "3392": 66,
        "3393": 117,
        "3394": 207,
        "3395": 249,
        "3396": 86,
        "3397": 189,
        "3398": 130,
        "3399": 197,
        "3400": 178,
        "3401": 35,
        "3402": 108,
        "3403": 113,
        "3404": 89,
        "3405": 18,
        "3406": 110,
        "3407": 77,
        "3408": 42,
        "3409": 241,
        "3410": 32,
        "3411": 152,
        "3412": 47,
        "3413": 5,
        "3414": 199,
        "3415": 37,
        "3416": 203,
        "3417": 132,
        "3418": 176,
        "3419": 110,
        "3420": 21,
        "3421": 33,
        "3422": 2,
        "3423": 13,
        "3424": 205,
        "3425": 229,
        "3426": 78,
        "3427": 157,
        "3428": 184,
        "3429": 111,
        "3430": 15,
        "3431": 235,
        "3432": 43,
        "3433": 50,
        "3434": 13,
        "3435": 136,
        "3436": 107,
        "3437": 160,
        "3438": 122,
        "3439": 252,
        "3440": 77,
        "3441": 31,
        "3442": 114,
        "3443": 126,
        "3444": 112,
        "3445": 26,
        "3446": 10,
        "3447": 70,
        "3448": 39,
        "3449": 75,
        "3450": 132,
        "3451": 235,
        "3452": 92,
        "3453": 182,
        "3454": 225,
        "3455": 3,
        "3456": 250,
        "3457": 144,
        "3458": 45,
        "3459": 38,
        "3460": 60,
        "3461": 236,
        "3462": 217,
        "3463": 33,
        "3464": 131,
        "3465": 106,
        "3466": 147,
        "3467": 187,
        "3468": 157,
        "3469": 231,
        "3470": 118,
        "3471": 16,
        "3472": 94,
        "3473": 84,
        "3474": 126,
        "3475": 83,
        "3476": 60,
        "3477": 70,
        "3478": 58,
        "3479": 145,
        "3480": 250,
        "3481": 145,
        "3482": 161,
        "3483": 253,
        "3484": 69,
        "3485": 162,
        "3486": 1,
        "3487": 16,
        "3488": 247,
        "3489": 113,
        "3490": 38,
        "3491": 130,
        "3492": 13,
        "3493": 29,
        "3494": 75,
        "3495": 83,
        "3496": 67,
        "3497": 109,
        "3498": 163,
        "3499": 203,
        "3500": 167,
        "3501": 152,
        "3502": 153,
        "3503": 201,
        "3504": 97,
        "3505": 142,
        "3506": 87,
        "3507": 117,
        "3508": 38,
        "3509": 226,
        "3510": 80,
        "3511": 156,
        "3512": 170,
        "3513": 113,
        "3514": 204,
        "3515": 228,
        "3516": 144,
        "3517": 180,
        "3518": 246,
        "3519": 255,
        "3520": 43,
        "3521": 176,
        "3522": 174,
        "3523": 157,
        "3524": 241,
        "3525": 90,
        "3526": 92,
        "3527": 66,
        "3528": 55,
        "3529": 94,
        "3530": 26,
        "3531": 93,
        "3532": 32,
        "3533": 14,
        "3534": 53,
        "3535": 215,
        "3536": 133,
        "3537": 41,
        "3538": 22,
        "3539": 179,
        "3540": 138,
        "3541": 97,
        "3542": 35,
        "3543": 185,
        "3544": 67,
        "3545": 43,
        "3546": 139,
        "3547": 37,
        "3548": 196,
        "3549": 39,
        "3550": 119,
        "3551": 27,
        "3552": 155,
        "3553": 150,
        "3554": 5,
        "3555": 41,
        "3556": 79,
        "3557": 11,
        "3558": 141,
        "3559": 219,
        "3560": 222,
        "3561": 189,
        "3562": 143,
        "3563": 138,
        "3564": 126,
        "3565": 123,
        "3566": 186,
        "3567": 227,
        "3568": 47,
        "3569": 246,
        "3570": 217,
        "3571": 38,
        "3572": 84,
        "3573": 205,
        "3574": 226,
        "3575": 62,
        "3576": 131,
        "3577": 178,
        "3578": 28,
        "3579": 148,
        "3580": 206,
        "3581": 131,
        "3582": 189,
        "3583": 181,
        "3584": 77,
        "3585": 35,
        "3586": 175,
        "3587": 127,
        "3588": 167,
        "3589": 18,
        "3590": 228,
        "3591": 197,
        "3592": 158,
        "3593": 191,
        "3594": 216,
        "3595": 171,
        "3596": 162,
        "3597": 127,
        "3598": 10,
        "3599": 98,
        "3600": 89,
        "3601": 52,
        "3602": 190,
        "3603": 210,
        "3604": 18,
        "3605": 83,
        "3606": 232,
        "3607": 12,
        "3608": 185,
        "3609": 41,
        "3610": 162,
        "3611": 23,
        "3612": 66,
        "3613": 135,
        "3614": 5,
        "3615": 167,
        "3616": 29,
        "3617": 197,
        "3618": 210,
        "3619": 214,
        "3620": 20,
        "3621": 28,
        "3622": 62,
        "3623": 139,
        "3624": 211,
        "3625": 96,
        "3626": 159,
        "3627": 152,
        "3628": 24,
        "3629": 24,
        "3630": 232,
        "3631": 87,
        "3632": 140,
        "3633": 6,
        "3634": 242,
        "3635": 184,
        "3636": 100,
        "3637": 180,
        "3638": 170,
        "3639": 209,
        "3640": 93,
        "3641": 182,
        "3642": 62,
        "3643": 149,
        "3644": 6,
        "3645": 4,
        "3646": 179,
        "3647": 232,
        "3648": 63,
        "3649": 105,
        "3650": 9,
        "3651": 20,
        "3652": 159,
        "3653": 168,
        "3654": 30,
        "3655": 19,
        "3656": 185,
        "3657": 254,
        "3658": 147,
        "3659": 66,
        "3660": 138,
        "3661": 77,
        "3662": 224,
        "3663": 225,
        "3664": 66,
        "3665": 2,
        "3666": 4,
        "3667": 113,
        "3668": 241,
        "3669": 243,
        "3670": 188,
        "3671": 49,
        "3672": 174,
        "3673": 134,
        "3674": 173,
        "3675": 26,
        "3676": 165,
        "3677": 75,
        "3678": 83,
        "3679": 2,
        "3680": 28,
        "3681": 52,
        "3682": 191,
        "3683": 28,
        "3684": 162,
        "3685": 25,
        "3686": 223,
        "3687": 198,
        "3688": 154,
        "3689": 179,
        "3690": 173,
        "3691": 119,
        "3692": 146,
        "3693": 1,
        "3694": 172,
        "3695": 246,
        "3696": 227,
        "3697": 86,
        "3698": 249,
        "3699": 168,
        "3700": 144,
        "3701": 47,
        "3702": 35,
        "3703": 88,
        "3704": 45,
        "3705": 15,
        "3706": 157,
        "3707": 106,
        "3708": 224,
        "3709": 105,
        "3710": 108,
        "3711": 22,
        "3712": 89,
        "3713": 233,
        "3714": 153,
        "3715": 252,
        "3716": 81,
        "3717": 102,
        "3718": 112,
        "3719": 56,
        "3720": 198,
        "3721": 8,
        "3722": 50,
        "3723": 183,
        "3724": 221,
        "3725": 16,
        "3726": 106,
        "3727": 242,
        "3728": 32,
        "3729": 189,
        "3730": 104,
        "3731": 208,
        "3732": 52,
        "3733": 202,
        "3734": 191,
        "3735": 16,
        "3736": 196,
        "3737": 212,
        "3738": 56,
        "3739": 80,
        "3740": 43,
        "3741": 6,
        "3742": 38,
        "3743": 160,
        "3744": 235,
        "3745": 208,
        "3746": 8,
        "3747": 246,
        "3748": 168,
        "3749": 233,
        "3750": 189,
        "3751": 105,
        "3752": 11,
        "3753": 40,
        "3754": 15,
        "3755": 65,
        "3756": 111,
        "3757": 16,
        "3758": 185,
        "3759": 154,
        "3760": 179,
        "3761": 230,
        "3762": 23,
        "3763": 226,
        "3764": 63,
        "3765": 60,
        "3766": 54,
        "3767": 71,
        "3768": 178,
        "3769": 90,
        "3770": 234,
        "3771": 111,
        "3772": 245,
        "3773": 86,
        "3774": 241,
        "3775": 128,
        "3776": 148,
        "3777": 128,
        "3778": 20,
        "3779": 191,
        "3780": 111,
        "3781": 231,
        "3782": 173,
        "3783": 232,
        "3784": 127,
        "3785": 110,
        "3786": 127,
        "3787": 8,
        "3788": 184,
        "3789": 33,
        "3790": 81,
        "3791": 180,
        "3792": 213,
        "3793": 179,
        "3794": 169,
        "3795": 245,
        "3796": 12,
        "3797": 28,
        "3798": 215,
        "3799": 211,
        "3800": 129,
        "3801": 175,
        "3802": 221,
        "3803": 67,
        "3804": 254,
        "3805": 47,
        "3806": 155,
        "3807": 10,
        "3808": 40,
        "3809": 140,
        "3810": 214,
        "3811": 181,
        "3812": 15,
        "3813": 168,
        "3814": 93,
        "3815": 147,
        "3816": 177,
        "3817": 114,
        "3818": 244,
        "3819": 176,
        "3820": 24,
        "3821": 81,
        "3822": 59,
        "3823": 52,
        "3824": 116,
        "3825": 153,
        "3826": 104,
        "3827": 94,
        "3828": 199,
        "3829": 113,
        "3830": 180,
        "3831": 30,
        "3832": 246,
        "3833": 24,
        "3834": 224,
        "3835": 12,
        "3836": 163,
        "3837": 221,
        "3838": 29,
        "3839": 99,
        "3840": 10,
        "3841": 163,
        "3842": 203,
        "3843": 35,
        "3844": 232,
        "3845": 230,
        "3846": 211,
        "3847": 56,
        "3848": 206,
        "3849": 237,
        "3850": 58,
        "3851": 148,
        "3852": 98,
        "3853": 4,
        "3854": 32,
        "3855": 142,
        "3856": 15,
        "3857": 155,
        "3858": 255,
        "3859": 71,
        "3860": 14,
        "3861": 15,
        "3862": 77,
        "3863": 71,
        "3864": 97,
        "3865": 183,
        "3866": 99,
        "3867": 93,
        "3868": 206,
        "3869": 113,
        "3870": 218,
        "3871": 42,
        "3872": 94,
        "3873": 203,
        "3874": 84,
        "3875": 71,
        "3876": 204,
        "3877": 100,
        "3878": 143,
        "3879": 30,
        "3880": 23,
        "3881": 221,
        "3882": 242,
        "3883": 177,
        "3884": 218,
        "3885": 132,
        "3886": 110,
        "3887": 192,
        "3888": 138,
        "3889": 192,
        "3890": 119,
        "3891": 2,
        "3892": 98,
        "3893": 146,
        "3894": 173,
        "3895": 53,
        "3896": 191,
        "3897": 112,
        "3898": 229,
        "3899": 173,
        "3900": 41,
        "3901": 119,
        "3902": 248,
        "3903": 134,
        "3904": 125,
        "3905": 130,
        "3906": 117,
        "3907": 14,
        "3908": 172,
        "3909": 249,
        "3910": 210,
        "3911": 199,
        "3912": 12,
        "3913": 28,
        "3914": 136,
        "3915": 42,
        "3916": 21,
        "3917": 98,
        "3918": 133,
        "3919": 245,
        "3920": 15,
        "3921": 125,
        "3922": 198,
        "3923": 44,
        "3924": 175,
        "3925": 105,
        "3926": 71,
        "3927": 30,
        "3928": 203,
        "3929": 56,
        "3930": 55,
        "3931": 142,
        "3932": 91,
        "3933": 2,
        "3934": 142,
        "3935": 161,
        "3936": 102,
        "3937": 214,
        "3938": 3,
        "3939": 100,
        "3940": 40,
        "3941": 224,
        "3942": 251,
        "3943": 238,
        "3944": 13,
        "3945": 61,
        "3946": 235,
        "3947": 124,
        "3948": 92,
        "3949": 181,
        "3950": 102,
        "3951": 20,
        "3952": 253,
        "3953": 3,
        "3954": 26,
        "3955": 78,
        "3956": 172,
        "3957": 185,
        "3958": 17,
        "3959": 182,
        "3960": 171,
        "3961": 10,
        "3962": 223,
        "3963": 48,
        "3964": 161,
        "3965": 105,
        "3966": 97,
        "3967": 195,
        "3968": 145,
        "3969": 79,
        "3970": 81,
        "3971": 83,
        "3972": 67,
        "3973": 52,
        "3974": 13,
        "3975": 232,
        "3976": 51,
        "3977": 108,
        "3978": 147,
        "3979": 69,
        "3980": 212,
        "3981": 166,
        "3982": 55,
        "3983": 145,
        "3984": 17,
        "3985": 28,
        "3986": 47,
        "3987": 180,
        "3988": 18,
        "3989": 255,
        "3990": 200,
        "3991": 31,
        "3992": 155,
        "3993": 14,
        "3994": 149,
        "3995": 163,
        "3996": 173,
        "3997": 85,
        "3998": 172,
        "3999": 78,
        "4000": 12,
        "4001": 107,
        "4002": 21,
        "4003": 162,
        "4004": 185,
        "4005": 112,
        "4006": 90,
        "4007": 231,
        "4008": 203,
        "4009": 190,
        "4010": 111,
        "4011": 107,
        "4012": 191,
        "4013": 97,
        "4014": 182,
        "4015": 231,
        "4016": 165,
        "4017": 131,
        "4018": 159,
        "4019": 167,
        "4020": 206,
        "4021": 85,
        "4022": 58,
        "4023": 207,
        "4024": 86,
        "4025": 141,
        "4026": 152,
        "4027": 164,
        "4028": 143,
        "4029": 44,
        "4030": 63,
        "4031": 57,
        "4032": 199,
        "4033": 75,
        "4034": 186,
        "4035": 238,
        "4036": 237,
        "4037": 184,
        "4038": 107,
        "4039": 29,
        "4040": 239,
        "4041": 173,
        "4042": 57,
        "4043": 143,
        "4044": 140,
        "4045": 9,
        "4046": 61,
        "4047": 232,
        "4048": 175,
        "4049": 120,
        "4050": 121,
        "4051": 98,
        "4052": 200,
        "4053": 141,
        "4054": 120,
        "4055": 202,
        "4056": 62,
        "4057": 164,
        "4058": 167,
        "4059": 119,
        "4060": 215,
        "4061": 28,
        "4062": 88,
        "4063": 61,
        "4064": 32,
        "4065": 115,
        "4066": 168,
        "4067": 106,
        "4068": 19,
        "4069": 127,
        "4070": 157,
        "4071": 40,
        "4072": 175,
        "4073": 171,
        "4074": 49,
        "4075": 92,
        "4076": 186,
        "4077": 216,
        "4078": 82,
        "4079": 20,
        "4080": 152,
        "4081": 203,
        "4082": 250,
        "4083": 151,
        "4084": 219,
        "4085": 99,
        "4086": 126,
        "4087": 250,
        "4088": 95,
        "4089": 236,
        "4090": 236,
        "4091": 221,
        "4092": 179,
        "4093": 255,
        "4094": 49,
        "4095": 117,
        "4096": 215,
        "4097": 99,
        "4098": 223,
        "4099": 41,
        "4100": 211,
        "4101": 24,
        "4102": 63,
        "4103": 4,
        "4104": 25,
        "4105": 209,
        "4106": 187,
        "4107": 187,
        "4108": 205,
        "4109": 244,
        "4110": 202,
        "4111": 88,
        "4112": 95,
        "4113": 65,
        "4114": 39,
        "4115": 193,
        "4116": 181,
        "4117": 228,
        "4118": 225,
        "4119": 16,
        "4120": 121,
        "4121": 20,
        "4122": 243,
        "4123": 60,
        "4124": 91,
        "4125": 17,
        "4126": 6,
        "4127": 92,
        "4128": 95,
        "4129": 81,
        "4130": 131,
        "4131": 248,
        "4132": 169,
        "4133": 98,
        "4134": 25,
        "4135": 173,
        "4136": 222,
        "4137": 23,
        "4138": 2,
        "4139": 198,
        "4140": 112,
        "4141": 15,
        "4142": 43,
        "4143": 58,
        "4144": 118,
        "4145": 129,
        "4146": 40,
        "4147": 1,
        "4148": 168,
        "4149": 159,
        "4150": 130,
        "4151": 158,
        "4152": 127,
        "4153": 75,
        "4154": 235,
        "4155": 180,
        "4156": 225,
        "4157": 188,
        "4158": 76,
        "4159": 206,
        "4160": 65,
        "4161": 204,
        "4162": 82,
        "4163": 81,
        "4164": 182,
        "4165": 238,
        "4166": 160,
        "4167": 129,
        "4168": 49,
        "4169": 149,
        "4170": 50,
        "4171": 199,
        "4172": 15,
        "4173": 105,
        "4174": 28,
        "4175": 117,
        "4176": 183,
        "4177": 11,
        "4178": 56,
        "4179": 146,
        "4180": 38,
        "4181": 226,
        "4182": 98,
        "4183": 112,
        "4184": 236,
        "4185": 79,
        "4186": 2,
        "4187": 172,
        "4188": 227,
        "4189": 217,
        "4190": 38,
        "4191": 171,
        "4192": 57,
        "4193": 156,
        "4194": 41,
        "4195": 100,
        "4196": 238,
        "4197": 20,
        "4198": 116,
        "4199": 42,
        "4200": 100,
        "4201": 40,
        "4202": 3,
        "4203": 193,
        "4204": 128,
        "4205": 42,
        "4206": 92,
        "4207": 89,
        "4208": 142,
        "4209": 242,
        "4210": 199,
        "4211": 26,
        "4212": 40,
        "4213": 90,
        "4214": 15,
        "4215": 130,
        "4216": 40,
        "4217": 19,
        "4218": 71,
        "4219": 218,
        "4220": 222,
        "4221": 203,
        "4222": 13,
        "4223": 247,
        "4224": 76,
        "4225": 143,
        "4226": 148,
        "4227": 240,
        "4228": 172,
        "4229": 114,
        "4230": 226,
        "4231": 145,
        "4232": 62,
        "4233": 5,
        "4234": 167,
        "4235": 99,
        "4236": 67,
        "4237": 149,
        "4238": 45,
        "4239": 82,
        "4240": 243,
        "4241": 41,
        "4242": 149,
        "4243": 107,
        "4244": 237,
        "4245": 251,
        "4246": 199,
        "4247": 131,
        "4248": 53,
        "4249": 76,
        "4250": 123,
        "4251": 115,
        "4252": 71,
        "4253": 200,
        "4254": 91,
        "4255": 190,
        "4256": 198,
        "4257": 202,
        "4258": 254,
        "4259": 35,
        "4260": 94,
        "4261": 37,
        "4262": 116,
        "4263": 122,
        "4264": 174,
        "4265": 134,
        "4266": 117,
        "4267": 45,
        "4268": 251,
        "4269": 194,
        "4270": 10,
        "4271": 227,
        "4272": 9,
        "4273": 166,
        "4274": 95,
        "4275": 30,
        "4276": 147,
        "4277": 115,
        "4278": 213,
        "4279": 18,
        "4280": 66,
        "4281": 152,
        "4282": 200,
        "4283": 249,
        "4284": 254,
        "4285": 205,
        "4286": 188,
        "4287": 163,
        "4288": 153,
        "4289": 31,
        "4290": 20,
        "4291": 183,
        "4292": 56,
        "4293": 190,
        "4294": 31,
        "4295": 67,
        "4296": 87,
        "4297": 172,
        "4298": 8,
        "4299": 203,
        "4300": 23,
        "4301": 187,
        "4302": 53,
        "4303": 213,
        "4304": 14,
        "4305": 19,
        "4306": 89,
        "4307": 200,
        "4308": 218,
        "4309": 174,
        "4310": 249,
        "4311": 87,
        "4312": 127,
        "4313": 117,
        "4314": 228,
        "4315": 3,
        "4316": 106,
        "4317": 27,
        "4318": 124,
        "4319": 139,
        "4320": 132,
        "4321": 66,
        "4322": 45,
        "4323": 69,
        "4324": 100,
        "4325": 242,
        "4326": 57,
        "4327": 171,
        "4328": 206,
        "4329": 255,
        "4330": 124,
        "4331": 19,
        "4332": 73,
        "4333": 60,
        "4334": 57,
        "4335": 237,
        "4336": 217,
        "4337": 231,
        "4338": 221,
        "4339": 143,
        "4340": 24,
        "4341": 201,
        "4342": 243,
        "4343": 80,
        "4344": 214,
        "4345": 35,
        "4346": 211,
        "4347": 169,
        "4348": 80,
        "4349": 97,
        "4350": 23,
        "4351": 71,
        "4352": 168,
        "4353": 21,
        "4354": 189,
        "4355": 105,
        "4356": 179,
        "4357": 166,
        "4358": 149,
        "4359": 244,
        "4360": 134,
        "4361": 1,
        "4362": 34,
        "4363": 94,
        "4364": 72,
        "4365": 248,
        "4366": 197,
        "4367": 188,
        "4368": 127,
        "4369": 97,
        "4370": 108,
        "4371": 205,
        "4372": 73,
        "4373": 2,
        "4374": 59,
        "4375": 2,
        "4376": 168,
        "4377": 195,
        "4378": 46,
        "4379": 159,
        "4380": 248,
        "4381": 22,
        "4382": 149,
        "4383": 52,
        "4384": 179,
        "4385": 31,
        "4386": 197,
        "4387": 97,
        "4388": 70,
        "4389": 61,
        "4390": 54,
        "4391": 41,
        "4392": 162,
        "4393": 236,
        "4394": 22,
        "4395": 155,
        "4396": 113,
        "4397": 78,
        "4398": 190,
        "4399": 248,
        "4400": 200,
        "4401": 149,
        "4402": 221,
        "4403": 103,
        "4404": 255,
        "4405": 241,
        "4406": 46,
        "4407": 153,
        "4408": 138,
        "4409": 95,
        "4410": 145,
        "4411": 31,
        "4412": 58,
        "4413": 87,
        "4414": 26,
        "4415": 10,
        "4416": 95,
        "4417": 32,
        "4418": 143,
        "4419": 253,
        "4420": 70,
        "4421": 164,
        "4422": 59,
        "4423": 74,
        "4424": 2,
        "4425": 177,
        "4426": 194,
        "4427": 223,
        "4428": 216,
        "4429": 28,
        "4430": 233,
        "4431": 94,
        "4432": 111,
        "4433": 155,
        "4434": 29,
        "4435": 217,
        "4436": 109,
        "4437": 227,
        "4438": 175,
        "4439": 65,
        "4440": 6,
        "4441": 245,
        "4442": 254,
        "4443": 18,
        "4444": 177,
        "4445": 85,
        "4446": 184,
        "4447": 32,
        "4448": 96,
        "4449": 100,
        "4450": 210,
        "4451": 159,
        "4452": 106,
        "4453": 186,
        "4454": 53,
        "4455": 58,
        "4456": 252,
        "4457": 221,
        "4458": 244,
        "4459": 140,
        "4460": 1,
        "4461": 74,
        "4462": 91,
        "4463": 150,
        "4464": 110,
        "4465": 207,
        "4466": 161,
        "4467": 146,
        "4468": 228,
        "4469": 132,
        "4470": 123,
        "4471": 197,
        "4472": 232,
        "4473": 218,
        "4474": 86,
        "4475": 61,
        "4476": 76,
        "4477": 45,
        "4478": 54,
        "4479": 36,
        "4480": 97,
        "4481": 139,
        "4482": 112,
        "4483": 224,
        "4484": 149,
        "4485": 70,
        "4486": 105,
        "4487": 69,
        "4488": 62,
        "4489": 253,
        "4490": 53,
        "4491": 80,
        "4492": 189,
        "4493": 152,
        "4494": 68,
        "4495": 207,
        "4496": 180,
        "4497": 21,
        "4498": 191,
        "4499": 20,
        "4500": 151,
        "4501": 243,
        "4502": 144,
        "4503": 224,
        "4504": 83,
        "4505": 175,
        "4506": 108,
        "4507": 240,
        "4508": 158,
        "4509": 229,
        "4510": 153,
        "4511": 11,
        "4512": 163,
        "4513": 87,
        "4514": 56,
        "4515": 0,
        "4516": 73,
        "4517": 50,
        "4518": 211,
        "4519": 65,
        "4520": 220,
        "4521": 100,
        "4522": 135,
        "4523": 82,
        "4524": 177,
        "4525": 195,
        "4526": 17,
        "4527": 206,
        "4528": 27,
        "4529": 252,
        "4530": 246,
        "4531": 87,
        "4532": 46,
        "4533": 244,
        "4534": 65,
        "4535": 78,
        "4536": 2,
        "4537": 221,
        "4538": 181,
        "4539": 237,
        "4540": 241,
        "4541": 80,
        "4542": 209,
        "4543": 11,
        "4544": 61,
        "4545": 104,
        "4546": 179,
        "4547": 43,
        "4548": 44,
        "4549": 32,
        "4550": 169,
        "4551": 185,
        "4552": 180,
        "4553": 36,
        "4554": 110,
        "4555": 75,
        "4556": 27,
        "4557": 217,
        "4558": 28,
        "4559": 169,
        "4560": 108,
        "4561": 138,
        "4562": 215,
        "4563": 127,
        "4564": 112,
        "4565": 62,
        "4566": 100,
        "4567": 220,
        "4568": 251,
        "4569": 221,
        "4570": 34,
        "4571": 135,
        "4572": 48,
        "4573": 5,
        "4574": 91,
        "4575": 64,
        "4576": 233,
        "4577": 136,
        "4578": 71,
        "4579": 157,
        "4580": 191,
        "4581": 122,
        "4582": 85,
        "4583": 147,
        "4584": 77,
        "4585": 104,
        "4586": 31,
        "4587": 231,
        "4588": 4,
        "4589": 253,
        "4590": 67,
        "4591": 12,
        "4592": 227,
        "4593": 63,
        "4594": 98,
        "4595": 184,
        "4596": 188,
        "4597": 224,
        "4598": 228,
        "4599": 135,
        "4600": 88,
        "4601": 165,
        "4602": 83,
        "4603": 20,
        "4604": 179,
        "4605": 73,
        "4606": 17,
        "4607": 156,
        "4608": 185,
        "4609": 228,
        "4610": 140,
        "4611": 139,
        "4612": 64,
        "4613": 214,
        "4614": 133,
        "4615": 93,
        "4616": 54,
        "4617": 12,
        "4618": 237,
        "4619": 236,
        "4620": 42,
        "4621": 69,
        "4622": 100,
        "4623": 140,
        "4624": 202,
        "4625": 116,
        "4626": 146,
        "4627": 219,
        "4628": 152,
        "4629": 215,
        "4630": 93,
        "4631": 11,
        "4632": 64,
        "4633": 174,
        "4634": 136,
        "4635": 81,
        "4636": 196,
        "4637": 152,
        "4638": 180,
        "4639": 199,
        "4640": 29,
        "4641": 25,
        "4642": 120,
        "4643": 188,
        "4644": 85,
        "4645": 204,
        "4646": 159,
        "4647": 50,
        "4648": 14,
        "4649": 230,
        "4650": 98,
        "4651": 135,
        "4652": 203,
        "4653": 100,
        "4654": 214,
        "4655": 168,
        "4656": 16,
        "4657": 197,
        "4658": 72,
        "4659": 105,
        "4660": 251,
        "4661": 159,
        "4662": 158,
        "4663": 244,
        "4664": 58,
        "4665": 202,
        "4666": 230,
        "4667": 115,
        "4668": 203,
        "4669": 73,
        "4670": 241,
        "4671": 40,
        "4672": 142,
        "4673": 148,
        "4674": 65,
        "4675": 13,
        "4676": 76,
        "4677": 113,
        "4678": 247,
        "4679": 136,
        "4680": 59,
        "4681": 20,
        "4682": 247,
        "4683": 199,
        "4684": 46,
        "4685": 82,
        "4686": 16,
        "4687": 167,
        "4688": 36,
        "4689": 81,
        "4690": 22,
        "4691": 208,
        "4692": 181,
        "4693": 123,
        "4694": 163,
        "4695": 151,
        "4696": 89,
        "4697": 60,
        "4698": 189,
        "4699": 219,
        "4700": 97,
        "4701": 206,
        "4702": 143,
        "4703": 177,
        "4704": 35,
        "4705": 131,
        "4706": 164,
        "4707": 63,
        "4708": 27,
        "4709": 132,
        "4710": 213,
        "4711": 30,
        "4712": 161,
        "4713": 86,
        "4714": 63,
        "4715": 219,
        "4716": 68,
        "4717": 96,
        "4718": 198,
        "4719": 176,
        "4720": 252,
        "4721": 55,
        "4722": 166,
        "4723": 181,
        "4724": 28,
        "4725": 1,
        "4726": 239,
        "4727": 187,
        "4728": 128,
        "4729": 53,
        "4730": 15,
        "4731": 114,
        "4732": 182,
        "4733": 177,
        "4734": 63,
        "4735": 198,
        "4736": 104,
        "4737": 36,
        "4738": 201,
        "4739": 168,
        "4740": 148,
        "4741": 23,
        "4742": 237,
        "4743": 143,
        "4744": 14,
        "4745": 52,
        "4746": 173,
        "4747": 167,
        "4748": 36,
        "4749": 184,
        "4750": 90,
        "4751": 158,
        "4752": 75,
        "4753": 174,
        "4754": 153,
        "4755": 209,
        "4756": 59,
        "4757": 173,
        "4758": 74,
        "4759": 102,
        "4760": 105,
        "4761": 55,
        "4762": 152,
        "4763": 51,
        "4764": 176,
        "4765": 39,
        "4766": 59,
        "4767": 203,
        "4768": 181,
        "4769": 210,
        "4770": 229,
        "4771": 95,
        "4772": 243,
        "4773": 244,
        "4774": 17,
        "4775": 239,
        "4776": 252,
        "4777": 48,
        "4778": 186,
        "4779": 156,
        "4780": 207,
        "4781": 210,
        "4782": 68,
        "4783": 193,
        "4784": 181,
        "4785": 239,
        "4786": 239,
        "4787": 40,
        "4788": 46,
        "4789": 137,
        "4790": 217,
        "4791": 146,
        "4792": 70,
        "4793": 128,
        "4794": 158,
        "4795": 46,
        "4796": 177,
        "4797": 148,
        "4798": 32,
        "4799": 36,
        "4800": 99,
        "4801": 149,
        "4802": 246,
        "4803": 185,
        "4804": 105,
        "4805": 181,
        "4806": 1,
        "4807": 182,
        "4808": 70,
        "4809": 26,
        "4810": 252,
        "4811": 82,
        "4812": 130,
        "4813": 81,
        "4814": 188,
        "4815": 117,
        "4816": 185,
        "4817": 107,
        "4818": 65,
        "4819": 31,
        "4820": 164,
        "4821": 149,
        "4822": 67,
        "4823": 137,
        "4824": 254,
        "4825": 67,
        "4826": 206,
        "4827": 238,
        "4828": 94,
        "4829": 150,
        "4830": 87,
        "4831": 229,
        "4832": 172,
        "4833": 127,
        "4834": 23,
        "4835": 219,
        "4836": 154,
        "4837": 22,
        "4838": 177,
        "4839": 16,
        "4840": 20,
        "4841": 33,
        "4842": 130,
        "4843": 239,
        "4844": 164,
        "4845": 9,
        "4846": 240,
        "4847": 187,
        "4848": 73,
        "4849": 183,
        "4850": 161,
        "4851": 70,
        "4852": 70,
        "4853": 231,
        "4854": 230,
        "4855": 6,
        "4856": 45,
        "4857": 252,
        "4858": 98,
        "4859": 132,
        "4860": 58,
        "4861": 60,
        "4862": 134,
        "4863": 67,
        "4864": 219,
        "4865": 25,
        "4866": 146,
        "4867": 66,
        "4868": 89,
        "4869": 29,
        "4870": 206,
        "4871": 81,
        "4872": 162,
        "4873": 44,
        "4874": 26,
        "4875": 209,
        "4876": 243,
        "4877": 65,
        "4878": 207,
        "4879": 74,
        "4880": 72,
        "4881": 201,
        "4882": 2,
        "4883": 86,
        "4884": 195,
        "4885": 90,
        "4886": 193,
        "4887": 47,
        "4888": 132,
        "4889": 196,
        "4890": 82,
        "4891": 15,
        "4892": 97,
        "4893": 75,
        "4894": 162,
        "4895": 0,
        "4896": 41,
        "4897": 75,
        "4898": 29,
        "4899": 199,
        "4900": 207,
        "4901": 234,
        "4902": 167,
        "4903": 214,
        "4904": 232,
        "4905": 177,
        "4906": 154,
        "4907": 41,
        "4908": 164,
        "4909": 23,
        "4910": 203,
        "4911": 183,
        "4912": 91,
        "4913": 242,
        "4914": 163,
        "4915": 210,
        "4916": 50,
        "4917": 129,
        "4918": 230,
        "4919": 25,
        "4920": 198,
        "4921": 228,
        "4922": 189,
        "4923": 174,
        "4924": 26,
        "4925": 179,
        "4926": 206,
        "4927": 60,
        "4928": 193,
        "4929": 241,
        "4930": 104,
        "4931": 71,
        "4932": 140,
        "4933": 59,
        "4934": 150,
        "4935": 95,
        "4936": 228,
        "4937": 252,
        "4938": 43,
        "4939": 46,
        "4940": 213,
        "4941": 128,
        "4942": 130,
        "4943": 181,
        "4944": 92,
        "4945": 140,
        "4946": 77,
        "4947": 249,
        "4948": 14,
        "4949": 14,
        "4950": 209,
        "4951": 61,
        "4952": 87,
        "4953": 202,
        "4954": 205,
        "4955": 88,
        "4956": 142,
        "4957": 226,
        "4958": 229,
        "4959": 134,
        "4960": 112,
        "4961": 219,
        "4962": 79,
        "4963": 131,
        "4964": 181,
        "4965": 137,
        "4966": 87,
        "4967": 246,
        "4968": 21,
        "4969": 193,
        "4970": 22,
        "4971": 181,
        "4972": 168,
        "4973": 188,
        "4974": 66,
        "4975": 104,
        "4976": 221,
        "4977": 113,
        "4978": 75,
        "4979": 98,
        "4980": 107,
        "4981": 91,
        "4982": 116,
        "4983": 56,
        "4984": 209,
        "4985": 235,
        "4986": 109,
        "4987": 145,
        "4988": 119,
        "4989": 50,
        "4990": 208,
        "4991": 71,
        "4992": 64,
        "4993": 44,
        "4994": 46,
        "4995": 145,
        "4996": 85,
        "4997": 4,
        "4998": 226,
        "4999": 237,
        "5000": 158,
        "5001": 141,
        "5002": 46,
        "5003": 151,
        "5004": 85,
        "5005": 27,
        "5006": 233,
        "5007": 49,
        "5008": 223,
        "5009": 183,
        "5010": 1,
        "5011": 248,
        "5012": 176,
        "5013": 2,
        "5014": 222,
        "5015": 106,
        "5016": 231,
        "5017": 110,
        "5018": 47,
        "5019": 49,
        "5020": 35,
        "5021": 204,
        "5022": 98,
        "5023": 46,
        "5024": 119,
        "5025": 224,
        "5026": 153,
        "5027": 102,
        "5028": 83,
        "5029": 183,
        "5030": 135,
        "5031": 98,
        "5032": 211,
        "5033": 22,
        "5034": 199,
        "5035": 100,
        "5036": 151,
        "5037": 206,
        "5038": 85,
        "5039": 192,
        "5040": 17,
        "5041": 205,
        "5042": 123,
        "5043": 115,
        "5044": 72,
        "5045": 70,
        "5046": 18,
        "5047": 150,
        "5048": 132,
        "5049": 216,
        "5050": 31,
        "5051": 141,
        "5052": 208,
        "5053": 153,
        "5054": 103,
        "5055": 111,
        "5056": 247,
        "5057": 91,
        "5058": 152,
        "5059": 142,
        "5060": 148,
        "5061": 108,
        "5062": 79,
        "5063": 139,
        "5064": 179,
        "5065": 43,
        "5066": 110,
        "5067": 118,
        "5068": 23,
        "5069": 99,
        "5070": 215,
        "5071": 183,
        "5072": 168,
        "5073": 221,
        "5074": 128,
        "5075": 223,
        "5076": 127,
        "5077": 241,
        "5078": 220,
        "5079": 125,
        "5080": 162,
        "5081": 105,
        "5082": 248,
        "5083": 57,
        "5084": 205,
        "5085": 248,
        "5086": 234,
        "5087": 100,
        "5088": 48,
        "5089": 191,
        "5090": 74,
        "5091": 31,
        "5092": 249,
        "5093": 229,
        "5094": 207,
        "5095": 180,
        "5096": 14,
        "5097": 125,
        "5098": 216,
        "5099": 131,
        "5100": 96,
        "5101": 225,
        "5102": 154,
        "5103": 117,
        "5104": 193,
        "5105": 37,
        "5106": 56,
        "5107": 241,
        "5108": 88,
        "5109": 137,
        "5110": 226,
        "5111": 141,
        "5112": 183,
        "5113": 142,
        "5114": 46,
        "5115": 206,
        "5116": 178,
        "5117": 175,
        "5118": 167,
        "5119": 254,
        "5120": 171,
        "5121": 52,
        "5122": 33,
        "5123": 77,
        "5124": 119,
        "5125": 22,
        "5126": 76,
        "5127": 130,
        "5128": 104,
        "5129": 229,
        "5130": 74,
        "5131": 199,
        "5132": 78,
        "5133": 12,
        "5134": 65,
        "5135": 240,
        "5136": 205,
        "5137": 107,
        "5138": 115,
        "5139": 159,
        "5140": 221,
        "5141": 103,
        "5142": 40,
        "5143": 241,
        "5144": 211,
        "5145": 246,
        "5146": 8,
        "5147": 38,
        "5148": 143,
        "5149": 106,
        "5150": 145,
        "5151": 99,
        "5152": 254,
        "5153": 127,
        "5154": 39,
        "5155": 84,
        "5156": 20,
        "5157": 155,
        "5158": 159,
        "5159": 81,
        "5160": 217,
        "5161": 56,
        "5162": 14,
        "5163": 112,
        "5164": 51,
        "5165": 139,
        "5166": 8,
        "5167": 70,
        "5168": 61,
        "5169": 161,
        "5170": 227,
        "5171": 99,
        "5172": 80,
        "5173": 198,
        "5174": 19,
        "5175": 80,
        "5176": 133,
        "5177": 150,
        "5178": 158,
        "5179": 246,
        "5180": 175,
        "5181": 51,
        "5182": 228,
        "5183": 165,
        "5184": 178,
        "5185": 92,
        "5186": 179,
        "5187": 43,
        "5188": 126,
        "5189": 4,
        "5190": 10,
        "5191": 146,
        "5192": 251,
        "5193": 253,
        "5194": 185,
        "5195": 155,
        "5196": 244,
        "5197": 179,
        "5198": 245,
        "5199": 142,
        "5200": 19,
        "5201": 61,
        "5202": 42,
        "5203": 255,
        "5204": 141,
        "5205": 123,
        "5206": 143,
        "5207": 62,
        "5208": 53,
        "5209": 139,
        "5210": 95,
        "5211": 52,
        "5212": 41,
        "5213": 132,
        "5214": 219,
        "5215": 73,
        "5216": 94,
        "5217": 222,
        "5218": 68,
        "5219": 106,
        "5220": 129,
        "5221": 166,
        "5222": 4,
        "5223": 144,
        "5224": 81,
        "5225": 154,
        "5226": 197,
        "5227": 128,
        "5228": 159,
        "5229": 9,
        "5230": 46,
        "5231": 107,
        "5232": 187,
        "5233": 163,
        "5234": 38,
        "5235": 140,
        "5236": 138,
        "5237": 175,
        "5238": 208,
        "5239": 168,
        "5240": 104,
        "5241": 191,
        "5242": 205,
        "5243": 206,
        "5244": 149,
        "5245": 240,
        "5246": 162,
        "5247": 49,
        "5248": 141,
        "5249": 186,
        "5250": 22,
        "5251": 105,
        "5252": 40,
        "5253": 131,
        "5254": 30,
        "5255": 109,
        "5256": 218,
        "5257": 86,
        "5258": 7,
        "5259": 139,
        "5260": 227,
        "5261": 177,
        "5262": 59,
        "5263": 184,
        "5264": 110,
        "5265": 59,
        "5266": 233,
        "5267": 234,
        "5268": 229,
        "5269": 162,
        "5270": 101,
        "5271": 63,
        "5272": 65,
        "5273": 207,
        "5274": 168,
        "5275": 25,
        "5276": 127,
        "5277": 129,
        "5278": 79,
        "5279": 233,
        "5280": 154,
        "5281": 117,
        "5282": 117,
        "5283": 159,
        "5284": 197,
        "5285": 164,
        "5286": 36,
        "5287": 209,
        "5288": 23,
        "5289": 147,
        "5290": 84,
        "5291": 105,
        "5292": 202,
        "5293": 196,
        "5294": 25,
        "5295": 197,
        "5296": 210,
        "5297": 33,
        "5298": 65,
        "5299": 53,
        "5300": 156,
        "5301": 80,
        "5302": 126,
        "5303": 1,
        "5304": 98,
        "5305": 178,
        "5306": 102,
        "5307": 53,
        "5308": 24,
        "5309": 99,
        "5310": 32,
        "5311": 172,
        "5312": 99,
        "5313": 38,
        "5314": 169,
        "5315": 177,
        "5316": 113,
        "5317": 92,
        "5318": 247,
        "5319": 123,
        "5320": 235,
        "5321": 147,
        "5322": 112,
        "5323": 218,
        "5324": 187,
        "5325": 61,
        "5326": 143,
        "5327": 94,
        "5328": 167,
        "5329": 78,
        "5330": 70,
        "5331": 7,
        "5332": 234,
        "5333": 142,
        "5334": 153,
        "5335": 128,
        "5336": 122,
        "5337": 61,
        "5338": 25,
        "5339": 15,
        "5340": 106,
        "5341": 97,
        "5342": 174,
        "5343": 216,
        "5344": 77,
        "5345": 164,
        "5346": 188,
        "5347": 189,
        "5348": 93,
        "5349": 113,
        "5350": 159,
        "5351": 157,
        "5352": 90,
        "5353": 117,
        "5354": 47,
        "5355": 86,
        "5356": 198,
        "5357": 38,
        "5358": 196,
        "5359": 34,
        "5360": 180,
        "5361": 74,
        "5362": 19,
        "5363": 220,
        "5364": 100,
        "5365": 87,
        "5366": 161,
        "5367": 242,
        "5368": 7,
        "5369": 194,
        "5370": 91,
        "5371": 6,
        "5372": 27,
        "5373": 145,
        "5374": 166,
        "5375": 85,
        "5376": 146,
        "5377": 203,
        "5378": 249,
        "5379": 111,
        "5380": 229,
        "5381": 15,
        "5382": 143,
        "5383": 212,
        "5384": 159,
        "5385": 67,
        "5386": 11,
        "5387": 158,
        "5388": 193,
        "5389": 196,
        "5390": 16,
        "5391": 212,
        "5392": 103,
        "5393": 162,
        "5394": 246,
        "5395": 162,
        "5396": 0,
        "5397": 242,
        "5398": 212,
        "5399": 38,
        "5400": 196,
        "5401": 121,
        "5402": 156,
        "5403": 46,
        "5404": 147,
        "5405": 11,
        "5406": 10,
        "5407": 214,
        "5408": 233,
        "5409": 51,
        "5410": 153,
        "5411": 22,
        "5412": 194,
        "5413": 140,
        "5414": 146,
        "5415": 151,
        "5416": 252,
        "5417": 11,
        "5418": 36,
        "5419": 15,
        "5420": 79,
        "5421": 66,
        "5422": 150,
        "5423": 129,
        "5424": 254,
        "5425": 74,
        "5426": 80,
        "5427": 17,
        "5428": 12,
        "5429": 8,
        "5430": 7,
        "5431": 240,
        "5432": 141,
        "5433": 83,
        "5434": 59,
        "5435": 245,
        "5436": 222,
        "5437": 35,
        "5438": 6,
        "5439": 179,
        "5440": 15,
        "5441": 35,
        "5442": 179,
        "5443": 60,
        "5444": 230,
        "5445": 66,
        "5446": 63,
        "5447": 218,
        "5448": 16,
        "5449": 168,
        "5450": 5,
        "5451": 236,
        "5452": 89,
        "5453": 187,
        "5454": 229,
        "5455": 64,
        "5456": 38,
        "5457": 245,
        "5458": 163,
        "5459": 191,
        "5460": 114,
        "5461": 122,
        "5462": 67,
        "5463": 117,
        "5464": 139,
        "5465": 42,
        "5466": 22,
        "5467": 250,
        "5468": 1,
        "5469": 87,
        "5470": 94,
        "5471": 42,
        "5472": 44,
        "5473": 135,
        "5474": 118,
        "5475": 101,
        "5476": 152,
        "5477": 68,
        "5478": 181,
        "5479": 58,
        "5480": 184,
        "5481": 240,
        "5482": 240,
        "5483": 27,
        "5484": 101,
        "5485": 238,
        "5486": 197,
        "5487": 213,
        "5488": 57,
        "5489": 96,
        "5490": 91,
        "5491": 247,
        "5492": 51,
        "5493": 77,
        "5494": 112,
        "5495": 77,
        "5496": 222,
        "5497": 194,
        "5498": 108,
        "5499": 6,
        "5500": 132,
        "5501": 247,
        "5502": 80,
        "5503": 129,
        "5504": 42,
        "5505": 80,
        "5506": 78,
        "5507": 127,
        "5508": 128,
        "5509": 17,
        "5510": 50,
        "5511": 137,
        "5512": 8,
        "5513": 68,
        "5514": 54,
        "5515": 193,
        "5516": 233,
        "5517": 220,
        "5518": 255,
        "5519": 48,
        "5520": 52,
        "5521": 18,
        "5522": 221,
        "5523": 36,
        "5524": 88,
        "5525": 52,
        "5526": 202,
        "5527": 130,
        "5528": 129,
        "5529": 144,
        "5530": 218,
        "5531": 245,
        "5532": 142,
        "5533": 161,
        "5534": 240,
        "5535": 144,
        "5536": 125,
        "5537": 191,
        "5538": 190,
        "5539": 202,
        "5540": 89,
        "5541": 122,
        "5542": 107,
        "5543": 55,
        "5544": 190,
        "5545": 241,
        "5546": 237,
        "5547": 24,
        "5548": 83,
        "5549": 10,
        "5550": 160,
        "5551": 180,
        "5552": 63,
        "5553": 178,
        "5554": 229,
        "5555": 67,
        "5556": 212,
        "5557": 213,
        "5558": 249,
        "5559": 124,
        "5560": 69,
        "5561": 72,
        "5562": 7,
        "5563": 139,
        "5564": 184,
        "5565": 209,
        "5566": 207,
        "5567": 177,
        "5568": 171,
        "5569": 214,
        "5570": 113,
        "5571": 8,
        "5572": 182,
        "5573": 166,
        "5574": 149,
        "5575": 177,
        "5576": 146,
        "5577": 153,
        "5578": 198,
        "5579": 223,
        "5580": 77,
        "5581": 230,
        "5582": 247,
        "5583": 72,
        "5584": 36,
        "5585": 97,
        "5586": 170,
        "5587": 181,
        "5588": 184,
        "5589": 208,
        "5590": 28,
        "5591": 113,
        "5592": 84,
        "5593": 103,
        "5594": 161,
        "5595": 169,
        "5596": 79,
        "5597": 195,
        "5598": 59,
        "5599": 216,
        "5600": 211,
        "5601": 87,
        "5602": 248,
        "5603": 92,
        "5604": 236,
        "5605": 99,
        "5606": 191,
        "5607": 206,
        "5608": 56,
        "5609": 121,
        "5610": 186,
        "5611": 159,
        "5612": 225,
        "5613": 64,
        "5614": 40,
        "5615": 214,
        "5616": 155,
        "5617": 245,
        "5618": 205,
        "5619": 34,
        "5620": 239,
        "5621": 95,
        "5622": 145,
        "5623": 225,
        "5624": 213,
        "5625": 28,
        "5626": 86,
        "5627": 22,
        "5628": 95,
        "5629": 161,
        "5630": 229,
        "5631": 189,
        "5632": 110,
        "5633": 61,
        "5634": 131,
        "5635": 90,
        "5636": 56,
        "5637": 148,
        "5638": 116,
        "5639": 141,
        "5640": 35,
        "5641": 21,
        "5642": 101,
        "5643": 133,
        "5644": 247,
        "5645": 86,
        "5646": 151,
        "5647": 44,
        "5648": 140,
        "5649": 171,
        "5650": 231,
        "5651": 52,
        "5652": 214,
        "5653": 160,
        "5654": 55,
        "5655": 112,
        "5656": 99,
        "5657": 79,
        "5658": 38,
        "5659": 93,
        "5660": 47,
        "5661": 89,
        "5662": 35,
        "5663": 172,
        "5664": 141,
        "5665": 57,
        "5666": 54,
        "5667": 171,
        "5668": 136,
        "5669": 108,
        "5670": 51,
        "5671": 114,
        "5672": 234,
        "5673": 150,
        "5674": 75,
        "5675": 181,
        "5676": 119,
        "5677": 17,
        "5678": 207,
        "5679": 121,
        "5680": 172,
        "5681": 23,
        "5682": 234,
        "5683": 39,
        "5684": 249,
        "5685": 52,
        "5686": 246,
        "5687": 40,
        "5688": 101,
        "5689": 215,
        "5690": 250,
        "5691": 34,
        "5692": 39,
        "5693": 240,
        "5694": 220,
        "5695": 187,
        "5696": 57,
        "5697": 157,
        "5698": 14,
        "5699": 50,
        "5700": 12,
        "5701": 134,
        "5702": 124,
        "5703": 145,
        "5704": 96,
        "5705": 145,
        "5706": 6,
        "5707": 187,
        "5708": 160,
        "5709": 5,
        "5710": 175,
        "5711": 98,
        "5712": 89,
        "5713": 37,
        "5714": 182,
        "5715": 216,
        "5716": 135,
        "5717": 148,
        "5718": 201,
        "5719": 204,
        "5720": 162,
        "5721": 168,
        "5722": 15,
        "5723": 117,
        "5724": 220,
        "5725": 196,
        "5726": 184,
        "5727": 11,
        "5728": 123,
        "5729": 57,
        "5730": 88,
        "5731": 171,
        "5732": 119,
        "5733": 37,
        "5734": 167,
        "5735": 175,
        "5736": 17,
        "5737": 97,
        "5738": 161,
        "5739": 192,
        "5740": 235,
        "5741": 205,
        "5742": 185,
        "5743": 151,
        "5744": 46,
        "5745": 11,
        "5746": 238,
        "5747": 129,
        "5748": 45,
        "5749": 234,
        "5750": 114,
        "5751": 202,
        "5752": 109,
        "5753": 131,
        "5754": 14,
        "5755": 186,
        "5756": 172,
        "5757": 229,
        "5758": 153,
        "5759": 66,
        "5760": 217,
        "5761": 125,
        "5762": 28,
        "5763": 157,
        "5764": 196,
        "5765": 42,
        "5766": 6,
        "5767": 81,
        "5768": 182,
        "5769": 147,
        "5770": 97,
        "5771": 69,
        "5772": 227,
        "5773": 40,
        "5774": 63,
        "5775": 224,
        "5776": 5,
        "5777": 124,
        "5778": 22,
        "5779": 112,
        "5780": 244,
        "5781": 84,
        "5782": 230,
        "5783": 126,
        "5784": 198,
        "5785": 176,
        "5786": 66,
        "5787": 31,
        "5788": 168,
        "5789": 49,
        "5790": 6,
        "5791": 89,
        "5792": 75,
        "5793": 230,
        "5794": 236,
        "5795": 199,
        "5796": 180,
        "5797": 38,
        "5798": 104,
        "5799": 125,
        "5800": 244,
        "5801": 62,
        "5802": 150,
        "5803": 165,
        "5804": 227,
        "5805": 24,
        "5806": 5,
        "5807": 55,
        "5808": 231,
        "5809": 134,
        "5810": 70,
        "5811": 167,
        "5812": 237,
        "5813": 87,
        "5814": 174,
        "5815": 131,
        "5816": 218,
        "5817": 49,
        "5818": 26,
        "5819": 2,
        "5820": 60,
        "5821": 205,
        "5822": 62,
        "5823": 84,
        "5824": 225,
        "5825": 220,
        "5826": 37,
        "5827": 47,
        "5828": 112,
        "5829": 47,
        "5830": 1,
        "5831": 8,
        "5832": 72,
        "5833": 247,
        "5834": 181,
        "5835": 103,
        "5836": 109,
        "5837": 167,
        "5838": 30,
        "5839": 70,
        "5840": 11,
        "5841": 138,
        "5842": 23,
        "5843": 251,
        "5844": 223,
        "5845": 155,
        "5846": 23,
        "5847": 131,
        "5848": 231,
        "5849": 216,
        "5850": 50,
        "5851": 132,
        "5852": 231,
        "5853": 142,
        "5854": 68,
        "5855": 190,
        "5856": 207,
        "5857": 246,
        "5858": 196,
        "5859": 200,
        "5860": 216,
        "5861": 51,
        "5862": 254,
        "5863": 75,
        "5864": 86,
        "5865": 113,
        "5866": 115,
        "5867": 246,
        "5868": 33,
        "5869": 57,
        "5870": 61,
        "5871": 162,
        "5872": 56,
        "5873": 186,
        "5874": 180,
        "5875": 196,
        "5876": 10,
        "5877": 199,
        "5878": 142,
        "5879": 65,
        "5880": 91,
        "5881": 34,
        "5882": 245,
        "5883": 41,
        "5884": 135,
        "5885": 0,
        "5886": 5,
        "5887": 253,
        "5888": 132,
        "5889": 36,
        "5890": 149,
        "5891": 139,
        "5892": 66,
        "5893": 199,
        "5894": 200,
        "5895": 83,
        "5896": 34,
        "5897": 133,
        "5898": 38,
        "5899": 236,
        "5900": 173,
        "5901": 100,
        "5902": 171,
        "5903": 99,
        "5904": 151,
        "5905": 0,
        "5906": 125,
        "5907": 183,
        "5908": 77,
        "5909": 36,
        "5910": 96,
        "5911": 0,
        "5912": 238,
        "5913": 119,
        "5914": 122,
        "5915": 205,
        "5916": 24,
        "5917": 184,
        "5918": 246,
        "5919": 63,
        "5920": 3,
        "5921": 165,
        "5922": 95,
        "5923": 26,
        "5924": 72,
        "5925": 188,
        "5926": 196,
        "5927": 29,
        "5928": 167,
        "5929": 216,
        "5930": 234,
        "5931": 51,
        "5932": 10,
        "5933": 61,
        "5934": 200,
        "5935": 144,
        "5936": 178,
        "5937": 205,
        "5938": 28,
        "5939": 63,
        "5940": 98,
        "5941": 42,
        "5942": 75,
        "5943": 42,
        "5944": 28,
        "5945": 38,
        "5946": 140,
        "5947": 44,
        "5948": 141,
        "5949": 77,
        "5950": 82,
        "5951": 140,
        "5952": 157,
        "5953": 81,
        "5954": 100,
        "5955": 208,
        "5956": 235,
        "5957": 11,
        "5958": 206,
        "5959": 209,
        "5960": 52,
        "5961": 245,
        "5962": 115,
        "5963": 37,
        "5964": 43,
        "5965": 159,
        "5966": 1,
        "5967": 145,
        "5968": 50,
        "5969": 172,
        "5970": 200,
        "5971": 164,
        "5972": 146,
        "5973": 130,
        "5974": 98,
        "5975": 124,
        "5976": 192,
        "5977": 144,
        "5978": 181,
        "5979": 16,
        "5980": 41,
        "5981": 143,
        "5982": 89,
        "5983": 64,
        "5984": 212,
        "5985": 89,
        "5986": 120,
        "5987": 22,
        "5988": 57,
        "5989": 57,
        "5990": 147,
        "5991": 80,
        "5992": 254,
        "5993": 150,
        "5994": 106,
        "5995": 56,
        "5996": 203,
        "5997": 208,
        "5998": 96,
        "5999": 182,
        "6000": 39,
        "6001": 210,
        "6002": 171,
        "6003": 33,
        "6004": 130,
        "6005": 59,
        "6006": 136,
        "6007": 194,
        "6008": 108,
        "6009": 60,
        "6010": 14,
        "6011": 231,
        "6012": 85,
        "6013": 55,
        "6014": 58,
        "6015": 221,
        "6016": 90,
        "6017": 242,
        "6018": 254,
        "6019": 130,
        "6020": 135,
        "6021": 186,
        "6022": 167,
        "6023": 23,
        "6024": 44,
        "6025": 90,
        "6026": 180,
        "6027": 150,
        "6028": 27,
        "6029": 90,
        "6030": 174,
        "6031": 164,
        "6032": 27,
        "6033": 52,
        "6034": 32,
        "6035": 55,
        "6036": 195,
        "6037": 88,
        "6038": 251,
        "6039": 57,
        "6040": 100,
        "6041": 120,
        "6042": 98,
        "6043": 51,
        "6044": 190,
        "6045": 94,
        "6046": 197,
        "6047": 139,
        "6048": 87,
        "6049": 214,
        "6050": 147,
        "6051": 254,
        "6052": 116,
        "6053": 80,
        "6054": 89,
        "6055": 92,
        "6056": 124,
        "6057": 96,
        "6058": 101,
        "6059": 150,
        "6060": 28,
        "6061": 42,
        "6062": 50,
        "6063": 185,
        "6064": 128,
        "6065": 142,
        "6066": 59,
        "6067": 221,
        "6068": 240,
        "6069": 128,
        "6070": 187,
        "6071": 44,
        "6072": 108,
        "6073": 228,
        "6074": 106,
        "6075": 40,
        "6076": 153,
        "6077": 135,
        "6078": 109,
        "6079": 196,
        "6080": 251,
        "6081": 165,
        "6082": 247,
        "6083": 253,
        "6084": 41,
        "6085": 208,
        "6086": 227,
        "6087": 232,
        "6088": 128,
        "6089": 231,
        "6090": 94,
        "6091": 171,
        "6092": 65,
        "6093": 175,
        "6094": 87,
        "6095": 249,
        "6096": 45,
        "6097": 82,
        "6098": 162,
        "6099": 25,
        "6100": 20,
        "6101": 102,
        "6102": 228,
        "6103": 107,
        "6104": 29,
        "6105": 117,
        "6106": 44,
        "6107": 46,
        "6108": 88,
        "6109": 211,
        "6110": 71,
        "6111": 203,
        "6112": 196,
        "6113": 210,
        "6114": 198,
        "6115": 151,
        "6116": 61,
        "6117": 155,
        "6118": 203,
        "6119": 219,
        "6120": 134,
        "6121": 202,
        "6122": 209,
        "6123": 69,
        "6124": 160,
        "6125": 14,
        "6126": 247,
        "6127": 237,
        "6128": 175,
        "6129": 233,
        "6130": 169,
        "6131": 241,
        "6132": 11,
        "6133": 65,
        "6134": 253,
        "6135": 76,
        "6136": 181,
        "6137": 167,
        "6138": 236,
        "6139": 248,
        "6140": 40,
        "6141": 65,
        "6142": 225,
        "6143": 30,
        "6144": 212,
        "6145": 225,
        "6146": 81,
        "6147": 139,
        "6148": 53,
        "6149": 239,
        "6150": 200,
        "6151": 151,
        "6152": 24,
        "6153": 88,
        "6154": 171,
        "6155": 126,
        "6156": 250,
        "6157": 245,
        "6158": 216,
        "6159": 17,
        "6160": 212,
        "6161": 157,
        "6162": 31,
        "6163": 140,
        "6164": 158,
        "6165": 69,
        "6166": 132,
        "6167": 39,
        "6168": 223,
        "6169": 62,
        "6170": 18,
        "6171": 81,
        "6172": 199,
        "6173": 156,
        "6174": 231,
        "6175": 57,
        "6176": 170,
        "6177": 65,
        "6178": 90,
        "6179": 55,
        "6180": 99,
        "6181": 145,
        "6182": 213,
        "6183": 83,
        "6184": 192,
        "6185": 187,
        "6186": 37,
        "6187": 193,
        "6188": 243,
        "6189": 168,
        "6190": 245,
        "6191": 4,
        "6192": 234,
        "6193": 47,
        "6194": 207,
        "6195": 91,
        "6196": 103,
        "6197": 166,
        "6198": 3,
        "6199": 164,
        "6200": 125,
        "6201": 105,
        "6202": 163,
        "6203": 15,
        "6204": 166,
        "6205": 14,
        "6206": 42,
        "6207": 141,
        "6208": 245,
        "6209": 40,
        "6210": 90,
        "6211": 15,
        "6212": 100,
        "6213": 99,
        "6214": 42,
        "6215": 246,
        "6216": 97,
        "6217": 145,
        "6218": 110,
        "6219": 136,
        "6220": 28,
        "6221": 201,
        "6222": 135,
        "6223": 141,
        "6224": 9,
        "6225": 154,
        "6226": 239,
        "6227": 158,
        "6228": 81,
        "6229": 107,
        "6230": 161,
        "6231": 110,
        "6232": 207,
        "6233": 177,
        "6234": 73,
        "6235": 137,
        "6236": 34,
        "6237": 191,
        "6238": 163,
        "6239": 78,
        "6240": 111,
        "6241": 105,
        "6242": 173,
        "6243": 246,
        "6244": 119,
        "6245": 214,
        "6246": 40,
        "6247": 155,
        "6248": 188,
        "6249": 84,
        "6250": 221,
        "6251": 208,
        "6252": 30,
        "6253": 110,
        "6254": 113,
        "6255": 201,
        "6256": 97,
        "6257": 2,
        "6258": 226,
        "6259": 157,
        "6260": 247,
        "6261": 140,
        "6262": 252,
        "6263": 225,
        "6264": 170,
        "6265": 90,
        "6266": 124,
        "6267": 217,
        "6268": 110,
        "6269": 68,
        "6270": 7,
        "6271": 44,
        "6272": 56,
        "6273": 105,
        "6274": 130,
        "6275": 205,
        "6276": 174,
        "6277": 174,
        "6278": 73,
        "6279": 202,
        "6280": 208,
        "6281": 181,
        "6282": 237,
        "6283": 172,
        "6284": 26,
        "6285": 192,
        "6286": 142,
        "6287": 190,
        "6288": 75,
        "6289": 42,
        "6290": 9,
        "6291": 161,
        "6292": 168,
        "6293": 223,
        "6294": 117,
        "6295": 62,
        "6296": 254,
        "6297": 22,
        "6298": 111,
        "6299": 1,
        "6300": 127,
        "6301": 159,
        "6302": 141,
        "6303": 136,
        "6304": 31,
        "6305": 119,
        "6306": 235,
        "6307": 233,
        "6308": 140,
        "6309": 43,
        "6310": 17,
        "6311": 22,
        "6312": 108,
        "6313": 92,
        "6314": 139,
        "6315": 72,
        "6316": 104,
        "6317": 101,
        "6318": 108,
        "6319": 175,
        "6320": 243,
        "6321": 64,
        "6322": 105,
        "6323": 62,
        "6324": 81,
        "6325": 137,
        "6326": 133,
        "6327": 127,
        "6328": 12,
        "6329": 74,
        "6330": 114,
        "6331": 14,
        "6332": 94,
        "6333": 198,
        "6334": 116,
        "6335": 49,
        "6336": 196,
        "6337": 67,
        "6338": 191,
        "6339": 142,
        "6340": 226,
        "6341": 215,
        "6342": 220,
        "6343": 235,
        "6344": 108,
        "6345": 67,
        "6346": 112,
        "6347": 228,
        "6348": 200,
        "6349": 15,
        "6350": 61,
        "6351": 85,
        "6352": 127,
        "6353": 152,
        "6354": 139,
        "6355": 70,
        "6356": 37,
        "6357": 239,
        "6358": 101,
        "6359": 7,
        "6360": 223,
        "6361": 191,
        "6362": 5,
        "6363": 20,
        "6364": 63,
        "6365": 49,
        "6366": 249,
        "6367": 87,
        "6368": 232,
        "6369": 92,
        "6370": 185,
        "6371": 93,
        "6372": 205,
        "6373": 30,
        "6374": 131,
        "6375": 224,
        "6376": 232,
        "6377": 165,
        "6378": 97,
        "6379": 159,
        "6380": 166,
        "6381": 237,
        "6382": 215,
        "6383": 66,
        "6384": 13,
        "6385": 61,
        "6386": 199,
        "6387": 247,
        "6388": 119,
        "6389": 75,
        "6390": 185,
        "6391": 183,
        "6392": 170,
        "6393": 223,
        "6394": 173,
        "6395": 194,
        "6396": 185,
        "6397": 147,
        "6398": 158,
        "6399": 179,
        "6400": 86,
        "6401": 37,
        "6402": 203,
        "6403": 174,
        "6404": 199,
        "6405": 167,
        "6406": 53,
        "6407": 41,
        "6408": 122,
        "6409": 55,
        "6410": 185,
        "6411": 131,
        "6412": 241,
        "6413": 241,
        "6414": 35,
        "6415": 81,
        "6416": 247,
        "6417": 130,
        "6418": 247,
        "6419": 102,
        "6420": 167,
        "6421": 8,
        "6422": 100,
        "6423": 250,
        "6424": 57,
        "6425": 91,
        "6426": 131,
        "6427": 244,
        "6428": 227,
        "6429": 115,
        "6430": 38,
        "6431": 160,
        "6432": 109,
        "6433": 238,
        "6434": 107,
        "6435": 140,
        "6436": 227,
        "6437": 13,
        "6438": 72,
        "6439": 223,
        "6440": 189,
        "6441": 121,
        "6442": 9,
        "6443": 246,
        "6444": 3,
        "6445": 147,
        "6446": 196,
        "6447": 113,
        "6448": 19,
        "6449": 156,
        "6450": 239,
        "6451": 141,
        "6452": 163,
        "6453": 113,
        "6454": 38,
        "6455": 103,
        "6456": 91,
        "6457": 59,
        "6458": 150,
        "6459": 198,
        "6460": 7,
        "6461": 85,
        "6462": 118,
        "6463": 204,
        "6464": 180,
        "6465": 170,
        "6466": 191,
        "6467": 160,
        "6468": 211,
        "6469": 248,
        "6470": 193,
        "6471": 42,
        "6472": 140,
        "6473": 61,
        "6474": 106,
        "6475": 65,
        "6476": 25,
        "6477": 67,
        "6478": 218,
        "6479": 112,
        "6480": 245,
        "6481": 203,
        "6482": 32,
        "6483": 32,
        "6484": 198,
        "6485": 59,
        "6486": 158,
        "6487": 158,
        "6488": 239,
        "6489": 68,
        "6490": 106,
        "6491": 234,
        "6492": 38,
        "6493": 44,
        "6494": 250,
        "6495": 111,
        "6496": 127,
        "6497": 1,
        "6498": 172,
        "6499": 193,
        "6500": 207,
        "6501": 149,
        "6502": 18,
        "6503": 134,
        "6504": 171,
        "6505": 207,
        "6506": 87,
        "6507": 129,
        "6508": 215,
        "6509": 230,
        "6510": 146,
        "6511": 241,
        "6512": 135,
        "6513": 160,
        "6514": 188,
        "6515": 28,
        "6516": 51,
        "6517": 44,
        "6518": 230,
        "6519": 43,
        "6520": 113,
        "6521": 177,
        "6522": 250,
        "6523": 177,
        "6524": 55,
        "6525": 245,
        "6526": 25,
        "6527": 5,
        "6528": 171,
        "6529": 229,
        "6530": 99,
        "6531": 168,
        "6532": 63,
        "6533": 77,
        "6534": 192,
        "6535": 246,
        "6536": 19,
        "6537": 208,
        "6538": 64,
        "6539": 84,
        "6540": 104,
        "6541": 30,
        "6542": 107,
        "6543": 143,
        "6544": 2,
        "6545": 7,
        "6546": 153,
        "6547": 21,
        "6548": 30,
        "6549": 113,
        "6550": 125,
        "6551": 193,
        "6552": 73,
        "6553": 168,
        "6554": 61,
        "6555": 77,
        "6556": 233,
        "6557": 4,
        "6558": 202,
        "6559": 54,
        "6560": 16,
        "6561": 238,
        "6562": 225,
        "6563": 8,
        "6564": 5,
        "6565": 20,
        "6566": 76,
        "6567": 158,
        "6568": 140,
        "6569": 38,
        "6570": 42,
        "6571": 64,
        "6572": 195,
        "6573": 144,
        "6574": 89,
        "6575": 96,
        "6576": 208,
        "6577": 112,
        "6578": 242,
        "6579": 114,
        "6580": 29,
        "6581": 122,
        "6582": 33,
        "6583": 63,
        "6584": 5,
        "6585": 228,
        "6586": 127,
        "6587": 77,
        "6588": 77,
        "6589": 203,
        "6590": 225,
        "6591": 116,
        "6592": 207,
        "6593": 170,
        "6594": 227,
        "6595": 241,
        "6596": 130,
        "6597": 234,
        "6598": 90,
        "6599": 209,
        "6600": 85,
        "6601": 99,
        "6602": 121,
        "6603": 143,
        "6604": 20,
        "6605": 94,
        "6606": 196,
        "6607": 182,
        "6608": 151,
        "6609": 32,
        "6610": 234,
        "6611": 179,
        "6612": 199,
        "6613": 62,
        "6614": 221,
        "6615": 62,
        "6616": 92,
        "6617": 233,
        "6618": 140,
        "6619": 66,
        "6620": 3,
        "6621": 66,
        "6622": 242,
        "6623": 161,
        "6624": 224,
        "6625": 104,
        "6626": 2,
        "6627": 165,
        "6628": 234,
        "6629": 213,
        "6630": 47,
        "6631": 227,
        "6632": 87,
        "6633": 74,
        "6634": 82,
        "6635": 158,
        "6636": 172,
        "6637": 155,
        "6638": 72,
        "6639": 204,
        "6640": 170,
        "6641": 19,
        "6642": 225,
        "6643": 108,
        "6644": 122,
        "6645": 36,
        "6646": 171,
        "6647": 210,
        "6648": 223,
        "6649": 156,
        "6650": 183,
        "6651": 94,
        "6652": 63,
        "6653": 133,
        "6654": 63,
        "6655": 82,
        "6656": 26,
        "6657": 162,
        "6658": 190,
        "6659": 249,
        "6660": 168,
        "6661": 244,
        "6662": 190,
        "6663": 207,
        "6664": 228,
        "6665": 127,
        "6666": 192,
        "6667": 162,
        "6668": 82,
        "6669": 174,
        "6670": 243,
        "6671": 206,
        "6672": 152,
        "6673": 201,
        "6674": 109,
        "6675": 17,
        "6676": 121,
        "6677": 164,
        "6678": 164,
        "6679": 192,
        "6680": 108,
        "6681": 220,
        "6682": 142,
        "6683": 212,
        "6684": 128,
        "6685": 64,
        "6686": 12,
        "6687": 156,
        "6688": 6,
        "6689": 32,
        "6690": 175,
        "6691": 141,
        "6692": 58,
        "6693": 90,
        "6694": 252,
        "6695": 120,
        "6696": 113,
        "6697": 103,
        "6698": 254,
        "6699": 192,
        "6700": 254,
        "6701": 219,
        "6702": 217,
        "6703": 14,
        "6704": 165,
        "6705": 86,
        "6706": 99,
        "6707": 178,
        "6708": 177,
        "6709": 156,
        "6710": 45,
        "6711": 91,
        "6712": 205,
        "6713": 47,
        "6714": 20,
        "6715": 118,
        "6716": 111,
        "6717": 239,
        "6718": 254,
        "6719": 224,
        "6720": 32,
        "6721": 196,
        "6722": 179,
        "6723": 120,
        "6724": 115,
        "6725": 103,
        "6726": 6,
        "6727": 144,
        "6728": 214,
        "6729": 195,
        "6730": 118,
        "6731": 38,
        "6732": 29,
        "6733": 186,
        "6734": 164,
        "6735": 54,
        "6736": 0,
        "6737": 123,
        "6738": 167,
        "6739": 233,
        "6740": 140,
        "6741": 80,
        "6742": 128,
        "6743": 239,
        "6744": 250,
        "6745": 189,
        "6746": 181,
        "6747": 75,
        "6748": 42,
        "6749": 149,
        "6750": 14,
        "6751": 15,
        "6752": 157,
        "6753": 27,
        "6754": 252,
        "6755": 134,
        "6756": 212,
        "6757": 204,
        "6758": 193,
        "6759": 99,
        "6760": 171,
        "6761": 239,
        "6762": 41,
        "6763": 94,
        "6764": 60,
        "6765": 203,
        "6766": 251,
        "6767": 73,
        "6768": 212,
        "6769": 226,
        "6770": 21,
        "6771": 149,
        "6772": 135,
        "6773": 162,
        "6774": 49,
        "6775": 217,
        "6776": 36,
        "6777": 181,
        "6778": 107,
        "6779": 254,
        "6780": 83,
        "6781": 5,
        "6782": 242,
        "6783": 32,
        "6784": 102,
        "6785": 81,
        "6786": 184,
        "6787": 99,
        "6788": 82,
        "6789": 183,
        "6790": 139,
        "6791": 156,
        "6792": 57,
        "6793": 124,
        "6794": 142,
        "6795": 186,
        "6796": 171,
        "6797": 199,
        "6798": 246,
        "6799": 249,
        "6800": 20,
        "6801": 44,
        "6802": 64,
        "6803": 159,
        "6804": 194,
        "6805": 162,
        "6806": 28,
        "6807": 88,
        "6808": 242,
        "6809": 5,
        "6810": 92,
        "6811": 1,
        "6812": 233,
        "6813": 193,
        "6814": 232,
        "6815": 151,
        "6816": 236,
        "6817": 53,
        "6818": 193,
        "6819": 52,
        "6820": 238,
        "6821": 222,
        "6822": 204,
        "6823": 103,
        "6824": 197,
        "6825": 157,
        "6826": 235,
        "6827": 37,
        "6828": 29,
        "6829": 161,
        "6830": 146,
        "6831": 247,
        "6832": 174,
        "6833": 171,
        "6834": 78,
        "6835": 64,
        "6836": 234,
        "6837": 131,
        "6838": 8,
        "6839": 139,
        "6840": 117,
        "6841": 38,
        "6842": 17,
        "6843": 20,
        "6844": 67,
        "6845": 14,
        "6846": 219,
        "6847": 176,
        "6848": 190,
        "6849": 120,
        "6850": 212,
        "6851": 133,
        "6852": 66,
        "6853": 220,
        "6854": 121,
        "6855": 124,
        "6856": 95,
        "6857": 99,
        "6858": 51,
        "6859": 138,
        "6860": 56,
        "6861": 132,
        "6862": 174,
        "6863": 131,
        "6864": 234,
        "6865": 59,
        "6866": 173,
        "6867": 196,
        "6868": 101,
        "6869": 161,
        "6870": 162,
        "6871": 134,
        "6872": 109,
        "6873": 13,
        "6874": 129,
        "6875": 30,
        "6876": 31,
        "6877": 115,
        "6878": 225,
        "6879": 242,
        "6880": 7,
        "6881": 135,
        "6882": 4,
        "6883": 32,
        "6884": 55,
        "6885": 69,
        "6886": 225,
        "6887": 77,
        "6888": 49,
        "6889": 232,
        "6890": 159,
        "6891": 70,
        "6892": 98,
        "6893": 177,
        "6894": 94,
        "6895": 58,
        "6896": 186,
        "6897": 115,
        "6898": 40,
        "6899": 214,
        "6900": 142,
        "6901": 12,
        "6902": 5,
        "6903": 7,
        "6904": 181,
        "6905": 224,
        "6906": 113,
        "6907": 20,
        "6908": 251,
        "6909": 98,
        "6910": 227,
        "6911": 36,
        "6912": 194,
        "6913": 162,
        "6914": 17,
        "6915": 147,
        "6916": 108,
        "6917": 153,
        "6918": 203,
        "6919": 53,
        "6920": 11,
        "6921": 66,
        "6922": 33,
        "6923": 135,
        "6924": 190,
        "6925": 151,
        "6926": 55,
        "6927": 51,
        "6928": 227,
        "6929": 177,
        "6930": 220,
        "6931": 13,
        "6932": 211,
        "6933": 125,
        "6934": 99,
        "6935": 54,
        "6936": 157,
        "6937": 165,
        "6938": 235,
        "6939": 127,
        "6940": 245,
        "6941": 145,
        "6942": 4,
        "6943": 221,
        "6944": 75,
        "6945": 209,
        "6946": 67,
        "6947": 123,
        "6948": 36,
        "6949": 42,
        "6950": 53,
        "6951": 209,
        "6952": 238,
        "6953": 244,
        "6954": 121,
        "6955": 218,
        "6956": 176,
        "6957": 66,
        "6958": 84,
        "6959": 178,
        "6960": 159,
        "6961": 221,
        "6962": 69,
        "6963": 129,
        "6964": 33,
        "6965": 55,
        "6966": 62,
        "6967": 238,
        "6968": 16,
        "6969": 254,
        "6970": 98,
        "6971": 238,
        "6972": 65,
        "6973": 26,
        "6974": 196,
        "6975": 131,
        "6976": 153,
        "6977": 166,
        "6978": 171,
        "6979": 178,
        "6980": 72,
        "6981": 191,
        "6982": 69,
        "6983": 23,
        "6984": 54,
        "6985": 254,
        "6986": 5,
        "6987": 61,
        "6988": 189,
        "6989": 86,
        "6990": 193,
        "6991": 14,
        "6992": 100,
        "6993": 173,
        "6994": 17,
        "6995": 16,
        "6996": 63,
        "6997": 126,
        "6998": 15,
        "6999": 90,
        "7000": 76,
        "7001": 33,
        "7002": 68,
        "7003": 225,
        "7004": 21,
        "7005": 118,
        "7006": 206,
        "7007": 61,
        "7008": 84,
        "7009": 129,
        "7010": 231,
        "7011": 121,
        "7012": 216,
        "7013": 88,
        "7014": 197,
        "7015": 168,
        "7016": 190,
        "7017": 208,
        "7018": 232,
        "7019": 29,
        "7020": 135,
        "7021": 91,
        "7022": 235,
        "7023": 149,
        "7024": 156,
        "7025": 1,
        "7026": 141,
        "7027": 150,
        "7028": 86,
        "7029": 72,
        "7030": 226,
        "7031": 195,
        "7032": 208,
        "7033": 74,
        "7034": 93,
        "7035": 154,
        "7036": 9,
        "7037": 41,
        "7038": 90,
        "7039": 72,
        "7040": 60,
        "7041": 185,
        "7042": 120,
        "7043": 194,
        "7044": 16,
        "7045": 195,
        "7046": 37,
        "7047": 2,
        "7048": 157,
        "7049": 224,
        "7050": 65,
        "7051": 153,
        "7052": 254,
        "7053": 134,
        "7054": 97,
        "7055": 155,
        "7056": 170,
        "7057": 57,
        "7058": 186,
        "7059": 97,
        "7060": 146,
        "7061": 214,
        "7062": 56,
        "7063": 23,
        "7064": 209,
        "7065": 159,
        "7066": 60,
        "7067": 214,
        "7068": 204,
        "7069": 198,
        "7070": 122,
        "7071": 171,
        "7072": 91,
        "7073": 90,
        "7074": 246,
        "7075": 16,
        "7076": 165,
        "7077": 139,
        "7078": 173,
        "7079": 112,
        "7080": 166,
        "7081": 100,
        "7082": 127,
        "7083": 19,
        "7084": 227,
        "7085": 79,
        "7086": 39,
        "7087": 43,
        "7088": 19,
        "7089": 106,
        "7090": 187,
        "7091": 114,
        "7092": 68,
        "7093": 73,
        "7094": 231,
        "7095": 50,
        "7096": 209,
        "7097": 180,
        "7098": 178,
        "7099": 84,
        "7100": 156,
        "7101": 94,
        "7102": 219,
        "7103": 141,
        "7104": 164,
        "7105": 20,
        "7106": 198,
        "7107": 24,
        "7108": 117,
        "7109": 233,
        "7110": 193,
        "7111": 166,
        "7112": 48,
        "7113": 75,
        "7114": 176,
        "7115": 24,
        "7116": 214,
        "7117": 114,
        "7118": 71,
        "7119": 235,
        "7120": 0,
        "7121": 138,
        "7122": 49,
        "7123": 108,
        "7124": 92,
        "7125": 165,
        "7126": 15,
        "7127": 93,
        "7128": 125,
        "7129": 59,
        "7130": 147,
        "7131": 26,
        "7132": 51,
        "7133": 7,
        "7134": 205,
        "7135": 50,
        "7136": 14,
        "7137": 220,
        "7138": 43,
        "7139": 254,
        "7140": 8,
        "7141": 16,
        "7142": 17,
        "7143": 184,
        "7144": 131,
        "7145": 111,
        "7146": 82,
        "7147": 251,
        "7148": 231,
        "7149": 39,
        "7150": 87,
        "7151": 127,
        "7152": 178,
        "7153": 116,
        "7154": 27,
        "7155": 38,
        "7156": 246,
        "7157": 198,
        "7158": 56,
        "7159": 249,
        "7160": 169,
        "7161": 92,
        "7162": 238,
        "7163": 153,
        "7164": 194,
        "7165": 139,
        "7166": 141,
        "7167": 227,
        "7168": 230,
        "7169": 136,
        "7170": 221,
        "7171": 147,
        "7172": 18,
        "7173": 117,
        "7174": 37,
        "7175": 196,
        "7176": 192,
        "7177": 153,
        "7178": 106,
        "7179": 148,
        "7180": 151,
        "7181": 42,
        "7182": 135,
        "7183": 85,
        "7184": 71,
        "7185": 182,
        "7186": 103,
        "7187": 93,
        "7188": 25,
        "7189": 1,
        "7190": 60,
        "7191": 101,
        "7192": 184,
        "7193": 72,
        "7194": 10,
        "7195": 146,
        "7196": 64,
        "7197": 241,
        "7198": 243,
        "7199": 107,
        "7200": 46,
        "7201": 108,
        "7202": 133,
        "7203": 224,
        "7204": 146,
        "7205": 168,
        "7206": 246,
        "7207": 155,
        "7208": 218,
        "7209": 237,
        "7210": 184,
        "7211": 113,
        "7212": 19,
        "7213": 53,
        "7214": 37,
        "7215": 217,
        "7216": 67,
        "7217": 164,
        "7218": 41,
        "7219": 253,
        "7220": 69,
        "7221": 93,
        "7222": 135,
        "7223": 248,
        "7224": 147,
        "7225": 198,
        "7226": 74,
        "7227": 247,
        "7228": 50,
        "7229": 125,
        "7230": 21,
        "7231": 24,
        "7232": 126,
        "7233": 94,
        "7234": 214,
        "7235": 96,
        "7236": 243,
        "7237": 129,
        "7238": 43,
        "7239": 93,
        "7240": 166,
        "7241": 170,
        "7242": 111,
        "7243": 65,
        "7244": 236,
        "7245": 134,
        "7246": 38,
        "7247": 177,
        "7248": 148,
        "7249": 64,
        "7250": 221,
        "7251": 235,
        "7252": 154,
        "7253": 95,
        "7254": 189,
        "7255": 223,
        "7256": 182,
        "7257": 10,
        "7258": 99,
        "7259": 20,
        "7260": 0,
        "7261": 107,
        "7262": 202,
        "7263": 12,
        "7264": 209,
        "7265": 164,
        "7266": 35,
        "7267": 3,
        "7268": 227,
        "7269": 35,
        "7270": 26,
        "7271": 171,
        "7272": 198,
        "7273": 215,
        "7274": 248,
        "7275": 156,
        "7276": 226,
        "7277": 155,
        "7278": 233,
        "7279": 171,
        "7280": 195,
        "7281": 203,
        "7282": 49,
        "7283": 53,
        "7284": 34,
        "7285": 103,
        "7286": 67,
        "7287": 79,
        "7288": 240,
        "7289": 125,
        "7290": 138,
        "7291": 83,
        "7292": 251,
        "7293": 102,
        "7294": 110,
        "7295": 162,
        "7296": 92,
        "7297": 31,
        "7298": 217,
        "7299": 152,
        "7300": 104,
        "7301": 184,
        "7302": 130,
        "7303": 161,
        "7304": 55,
        "7305": 37,
        "7306": 47,
        "7307": 195,
        "7308": 83,
        "7309": 15,
        "7310": 176,
        "7311": 80,
        "7312": 131,
        "7313": 202,
        "7314": 38,
        "7315": 85,
        "7316": 116,
        "7317": 220,
        "7318": 52,
        "7319": 99,
        "7320": 176,
        "7321": 49,
        "7322": 35,
        "7323": 100,
        "7324": 112,
        "7325": 24,
        "7326": 111,
        "7327": 101,
        "7328": 41,
        "7329": 28,
        "7330": 158,
        "7331": 225,
        "7332": 112,
        "7333": 175,
        "7334": 139,
        "7335": 67,
        "7336": 207,
        "7337": 48,
        "7338": 252,
        "7339": 58,
        "7340": 38,
        "7341": 102,
        "7342": 249,
        "7343": 173,
        "7344": 220,
        "7345": 90,
        "7346": 86,
        "7347": 216,
        "7348": 206,
        "7349": 138,
        "7350": 10,
        "7351": 175,
        "7352": 160,
        "7353": 91,
        "7354": 133,
        "7355": 128,
        "7356": 76,
        "7357": 26,
        "7358": 52,
        "7359": 63,
        "7360": 1,
        "7361": 98,
        "7362": 80,
        "7363": 95,
        "7364": 32,
        "7365": 126,
        "7366": 99,
        "7367": 236,
        "7368": 20,
        "7369": 220,
        "7370": 178,
        "7371": 70,
        "7372": 139,
        "7373": 66,
        "7374": 227,
        "7375": 103,
        "7376": 138,
        "7377": 89,
        "7378": 30,
        "7379": 70,
        "7380": 228,
        "7381": 86,
        "7382": 174,
        "7383": 11,
        "7384": 212,
        "7385": 73,
        "7386": 87,
        "7387": 242,
        "7388": 59,
        "7389": 178,
        "7390": 84,
        "7391": 63,
        "7392": 210,
        "7393": 67,
        "7394": 249,
        "7395": 97,
        "7396": 17,
        "7397": 175,
        "7398": 174,
        "7399": 114,
        "7400": 135,
        "7401": 226,
        "7402": 161,
        "7403": 107,
        "7404": 36,
        "7405": 228,
        "7406": 37,
        "7407": 37,
        "7408": 251,
        "7409": 160,
        "7410": 180,
        "7411": 206,
        "7412": 154,
        "7413": 218,
        "7414": 221,
        "7415": 1,
        "7416": 151,
        "7417": 44,
        "7418": 157,
        "7419": 83,
        "7420": 54,
        "7421": 164,
        "7422": 83,
        "7423": 150,
        "7424": 180,
        "7425": 238,
        "7426": 214,
        "7427": 248,
        "7428": 124,
        "7429": 224,
        "7430": 39,
        "7431": 198,
        "7432": 124,
        "7433": 166,
        "7434": 41,
        "7435": 215,
        "7436": 38,
        "7437": 207,
        "7438": 229,
        "7439": 245,
        "7440": 59,
        "7441": 123,
        "7442": 70,
        "7443": 241,
        "7444": 52,
        "7445": 184,
        "7446": 242,
        "7447": 106,
        "7448": 161,
        "7449": 15,
        "7450": 34,
        "7451": 27,
        "7452": 16,
        "7453": 126,
        "7454": 105,
        "7455": 219,
        "7456": 109,
        "7457": 13,
        "7458": 86,
        "7459": 36,
        "7460": 150,
        "7461": 195,
        "7462": 148,
        "7463": 21,
        "7464": 236,
        "7465": 192,
        "7466": 208,
        "7467": 187,
        "7468": 57,
        "7469": 126,
        "7470": 41,
        "7471": 71,
        "7472": 102,
        "7473": 165,
        "7474": 8,
        "7475": 131,
        "7476": 239,
        "7477": 242,
        "7478": 20,
        "7479": 196,
        "7480": 117,
        "7481": 188,
        "7482": 179,
        "7483": 74,
        "7484": 62,
        "7485": 149,
        "7486": 96,
        "7487": 50,
        "7488": 35,
        "7489": 189,
        "7490": 17,
        "7491": 185,
        "7492": 7,
        "7493": 84,
        "7494": 168,
        "7495": 81,
        "7496": 51,
        "7497": 52,
        "7498": 6,
        "7499": 182,
        "7500": 171,
        "7501": 190,
        "7502": 48,
        "7503": 99,
        "7504": 176,
        "7505": 17,
        "7506": 123,
        "7507": 143,
        "7508": 101,
        "7509": 49,
        "7510": 160,
        "7511": 97,
        "7512": 32,
        "7513": 69,
        "7514": 170,
        "7515": 39,
        "7516": 9,
        "7517": 17,
        "7518": 64,
        "7519": 57,
        "7520": 242,
        "7521": 205,
        "7522": 154,
        "7523": 175,
        "7524": 188,
        "7525": 229,
        "7526": 221,
        "7527": 13,
        "7528": 34,
        "7529": 47,
        "7530": 73,
        "7531": 52,
        "7532": 216,
        "7533": 8,
        "7534": 2,
        "7535": 147,
        "7536": 199,
        "7537": 197,
        "7538": 224,
        "7539": 76,
        "7540": 188,
        "7541": 134,
        "7542": 223,
        "7543": 156,
        "7544": 180,
        "7545": 236,
        "7546": 18,
        "7547": 63,
        "7548": 198,
        "7549": 33,
        "7550": 14,
        "7551": 151,
        "7552": 125,
        "7553": 114,
        "7554": 216,
        "7555": 31,
        "7556": 204,
        "7557": 90,
        "7558": 42,
        "7559": 185,
        "7560": 251,
        "7561": 13,
        "7562": 117,
        "7563": 176,
        "7564": 110,
        "7565": 170,
        "7566": 129,
        "7567": 247,
        "7568": 51,
        "7569": 202,
        "7570": 132,
        "7571": 57,
        "7572": 8,
        "7573": 127,
        "7574": 219,
        "7575": 67,
        "7576": 125,
        "7577": 161,
        "7578": 156,
        "7579": 117,
        "7580": 114,
        "7581": 246,
        "7582": 245,
        "7583": 122,
        "7584": 121,
        "7585": 54,
        "7586": 90,
        "7587": 199,
        "7588": 171,
        "7589": 98,
        "7590": 32,
        "7591": 159,
        "7592": 8,
        "7593": 178,
        "7594": 99,
        "7595": 154,
        "7596": 52,
        "7597": 104,
        "7598": 228,
        "7599": 168,
        "7600": 67,
        "7601": 187,
        "7602": 58,
        "7603": 171,
        "7604": 144,
        "7605": 122,
        "7606": 59,
        "7607": 67,
        "7608": 248,
        "7609": 86,
        "7610": 104,
        "7611": 24,
        "7612": 182,
        "7613": 142,
        "7614": 133,
        "7615": 241,
        "7616": 168,
        "7617": 160,
        "7618": 24,
        "7619": 118,
        "7620": 54,
        "7621": 70,
        "7622": 84,
        "7623": 60,
        "7624": 26,
        "7625": 187,
        "7626": 51,
        "7627": 26,
        "7628": 28,
        "7629": 121,
        "7630": 124,
        "7631": 15,
        "7632": 149,
        "7633": 153,
        "7634": 29,
        "7635": 233,
        "7636": 204,
        "7637": 205,
        "7638": 73,
        "7639": 48,
        "7640": 73,
        "7641": 97,
        "7642": 46,
        "7643": 216,
        "7644": 148,
        "7645": 139,
        "7646": 198,
        "7647": 30,
        "7648": 117,
        "7649": 221,
        "7650": 95,
        "7651": 194,
        "7652": 230,
        "7653": 164,
        "7654": 245,
        "7655": 186,
        "7656": 12,
        "7657": 165,
        "7658": 5,
        "7659": 183,
        "7660": 24,
        "7661": 144,
        "7662": 55,
        "7663": 214,
        "7664": 139,
        "7665": 54,
        "7666": 254,
        "7667": 123,
        "7668": 171,
        "7669": 172,
        "7670": 56,
        "7671": 23,
        "7672": 110,
        "7673": 205,
        "7674": 209,
        "7675": 83,
        "7676": 121,
        "7677": 27,
        "7678": 216,
        "7679": 101,
        "7680": 127,
        "7681": 152,
        "7682": 231,
        "7683": 126,
        "7684": 200,
        "7685": 88,
        "7686": 212,
        "7687": 250,
        "7688": 6,
        "7689": 118,
        "7690": 94,
        "7691": 134,
        "7692": 235,
        "7693": 75,
        "7694": 21,
        "7695": 158,
        "7696": 176,
        "7697": 40,
        "7698": 112,
        "7699": 212,
        "7700": 89,
        "7701": 171,
        "7702": 180,
        "7703": 60,
        "7704": 38,
        "7705": 66,
        "7706": 169,
        "7707": 130,
        "7708": 8,
        "7709": 175,
        "7710": 158,
        "7711": 237,
        "7712": 169,
        "7713": 19,
        "7714": 211,
        "7715": 109,
        "7716": 105,
        "7717": 174,
        "7718": 122,
        "7719": 220,
        "7720": 10,
        "7721": 23,
        "7722": 46,
        "7723": 156,
        "7724": 183,
        "7725": 47,
        "7726": 201,
        "7727": 55,
        "7728": 251,
        "7729": 122,
        "7730": 119,
        "7731": 60,
        "7732": 86,
        "7733": 19,
        "7734": 94,
        "7735": 164,
        "7736": 183,
        "7737": 54,
        "7738": 250,
        "7739": 29,
        "7740": 208,
        "7741": 173,
        "7742": 63,
        "7743": 211,
        "7744": 182,
        "7745": 46,
        "7746": 45,
        "7747": 229,
        "7748": 237,
        "7749": 119,
        "7750": 195,
        "7751": 83,
        "7752": 200,
        "7753": 86,
        "7754": 254,
        "7755": 40,
        "7756": 49,
        "7757": 8,
        "7758": 31,
        "7759": 59,
        "7760": 8,
        "7761": 95,
        "7762": 112,
        "7763": 181,
        "7764": 209,
        "7765": 237,
        "7766": 163,
        "7767": 154,
        "7768": 217,
        "7769": 253,
        "7770": 26,
        "7771": 188,
        "7772": 183,
        "7773": 26,
        "7774": 230,
        "7775": 233,
        "7776": 216,
        "7777": 160,
        "7778": 77,
        "7779": 189,
        "7780": 38,
        "7781": 65,
        "7782": 170,
        "7783": 104,
        "7784": 232,
        "7785": 119,
        "7786": 87,
        "7787": 122,
        "7788": 94,
        "7789": 221,
        "7790": 223,
        "7791": 203,
        "7792": 53,
        "7793": 182,
        "7794": 219,
        "7795": 168,
        "7796": 55,
        "7797": 159,
        "7798": 168,
        "7799": 174,
        "7800": 241,
        "7801": 101,
        "7802": 48,
        "7803": 1,
        "7804": 182,
        "7805": 106,
        "7806": 5,
        "7807": 35,
        "7808": 232,
        "7809": 64,
        "7810": 145,
        "7811": 67,
        "7812": 197,
        "7813": 94,
        "7814": 180,
        "7815": 28,
        "7816": 246,
        "7817": 160,
        "7818": 158,
        "7819": 163,
        "7820": 252,
        "7821": 45,
        "7822": 92,
        "7823": 18,
        "7824": 76,
        "7825": 241,
        "7826": 52,
        "7827": 162,
        "7828": 108,
        "7829": 150,
        "7830": 192,
        "7831": 59,
        "7832": 175,
        "7833": 201,
        "7834": 162,
        "7835": 2,
        "7836": 242,
        "7837": 243,
        "7838": 200,
        "7839": 236,
        "7840": 115,
        "7841": 92,
        "7842": 112,
        "7843": 219,
        "7844": 108,
        "7845": 91,
        "7846": 171,
        "7847": 17,
        "7848": 221,
        "7849": 123,
        "7850": 139,
        "7851": 96,
        "7852": 135,
        "7853": 138,
        "7854": 104,
        "7855": 68,
        "7856": 53,
        "7857": 137,
        "7858": 191,
        "7859": 122,
        "7860": 204,
        "7861": 37,
        "7862": 92,
        "7863": 112,
        "7864": 214,
        "7865": 149,
        "7866": 105,
        "7867": 182,
        "7868": 235,
        "7869": 221,
        "7870": 50,
        "7871": 183,
        "7872": 245,
        "7873": 177,
        "7874": 196,
        "7875": 127,
        "7876": 68,
        "7877": 222,
        "7878": 190,
        "7879": 219,
        "7880": 41,
        "7881": 249,
        "7882": 12,
        "7883": 200,
        "7884": 196,
        "7885": 15,
        "7886": 244,
        "7887": 206,
        "7888": 255,
        "7889": 238,
        "7890": 65,
        "7891": 77,
        "7892": 108,
        "7893": 41,
        "7894": 141,
        "7895": 230,
        "7896": 131,
        "7897": 218,
        "7898": 23,
        "7899": 242,
        "7900": 251,
        "7901": 149,
        "7902": 232,
        "7903": 163,
        "7904": 177,
        "7905": 60,
        "7906": 71,
        "7907": 102,
        "7908": 156,
        "7909": 166,
        "7910": 151,
        "7911": 75,
        "7912": 137,
        "7913": 131,
        "7914": 227,
        "7915": 12,
        "7916": 60,
        "7917": 52,
        "7918": 66,
        "7919": 103,
        "7920": 190,
        "7921": 1,
        "7922": 113,
        "7923": 155,
        "7924": 51,
        "7925": 236,
        "7926": 57,
        "7927": 233,
        "7928": 216,
        "7929": 240,
        "7930": 128,
        "7931": 165,
        "7932": 145,
        "7933": 186,
        "7934": 55,
        "7935": 8,
        "7936": 242,
        "7937": 156,
        "7938": 176,
        "7939": 247,
        "7940": 89,
        "7941": 61,
        "7942": 7,
        "7943": 175,
        "7944": 212,
        "7945": 233,
        "7946": 222,
        "7947": 221,
        "7948": 172,
        "7949": 189,
        "7950": 84,
        "7951": 237,
        "7952": 86,
        "7953": 208,
        "7954": 15,
        "7955": 202,
        "7956": 51,
        "7957": 47,
        "7958": 237,
        "7959": 211,
        "7960": 219,
        "7961": 60,
        "7962": 123,
        "7963": 181,
        "7964": 240,
        "7965": 173,
        "7966": 174,
        "7967": 136,
        "7968": 98,
        "7969": 207,
        "7970": 187,
        "7971": 131,
        "7972": 210,
        "7973": 144,
        "7974": 238,
        "7975": 176,
        "7976": 157,
        "7977": 164,
        "7978": 97,
        "7979": 115,
        "7980": 131,
        "7981": 79,
        "7982": 229,
        "7983": 201,
        "7984": 18,
        "7985": 39,
        "7986": 246,
        "7987": 118,
        "7988": 238,
        "7989": 46,
        "7990": 238,
        "7991": 101,
        "7992": 224,
        "7993": 178,
        "7994": 10,
        "7995": 86,
        "7996": 123,
        "7997": 128,
        "7998": 155,
        "7999": 230,
        "8000": 111,
        "8001": 9,
        "8002": 41,
        "8003": 122,
        "8004": 18,
        "8005": 152,
        "8006": 217,
        "8007": 51,
        "8008": 47,
        "8009": 247,
        "8010": 226,
        "8011": 244,
        "8012": 4,
        "8013": 57,
        "8014": 31,
        "8015": 229,
        "8016": 234,
        "8017": 86,
        "8018": 66,
        "8019": 115,
        "8020": 110,
        "8021": 3,
        "8022": 191,
        "8023": 228,
        "8024": 99,
        "8025": 205,
        "8026": 18,
        "8027": 157,
        "8028": 71,
        "8029": 64,
        "8030": 53,
        "8031": 159,
        "8032": 185,
        "8033": 89,
        "8034": 45,
        "8035": 255,
        "8036": 150,
        "8037": 100,
        "8038": 184,
        "8039": 180,
        "8040": 171,
        "8041": 87,
        "8042": 83,
        "8043": 81,
        "8044": 117,
        "8045": 16,
        "8046": 227,
        "8047": 145,
        "8048": 101,
        "8049": 216,
        "8050": 202,
        "8051": 143,
        "8052": 192,
        "8053": 16,
        "8054": 208,
        "8055": 171,
        "8056": 79,
        "8057": 54,
        "8058": 77,
        "8059": 1,
        "8060": 17,
        "8061": 167,
        "8062": 166,
        "8063": 119,
        "8064": 208,
        "8065": 116,
        "8066": 126,
        "8067": 252,
        "8068": 114,
        "8069": 30,
        "8070": 142,
        "8071": 109,
        "8072": 180,
        "8073": 90,
        "8074": 252,
        "8075": 5,
        "8076": 11,
        "8077": 252,
        "8078": 152,
        "8079": 149,
        "8080": 2,
        "8081": 114,
        "8082": 33,
        "8083": 81,
        "8084": 138,
        "8085": 101,
        "8086": 243,
        "8087": 49,
        "8088": 189,
        "8089": 68,
        "8090": 192,
        "8091": 9,
        "8092": 44,
        "8093": 35,
        "8094": 226,
        "8095": 25,
        "8096": 28,
        "8097": 126,
        "8098": 210,
        "8099": 193,
        "8100": 20,
        "8101": 14,
        "8102": 35,
        "8103": 251,
        "8104": 98,
        "8105": 2,
        "8106": 162,
        "8107": 64,
        "8108": 255,
        "8109": 107,
        "8110": 104,
        "8111": 70,
        "8112": 166,
        "8113": 94,
        "8114": 188,
        "8115": 73,
        "8116": 34,
        "8117": 62,
        "8118": 73,
        "8119": 39,
        "8120": 104,
        "8121": 203,
        "8122": 250,
        "8123": 92,
        "8124": 206,
        "8125": 48,
        "8126": 76,
        "8127": 213,
        "8128": 223,
        "8129": 13,
        "8130": 146,
        "8131": 2,
        "8132": 145,
        "8133": 176,
        "8134": 88,
        "8135": 46,
        "8136": 208,
        "8137": 67,
        "8138": 161,
        "8139": 188,
        "8140": 193,
        "8141": 180,
        "8142": 170,
        "8143": 235,
        "8144": 21,
        "8145": 129,
        "8146": 51,
        "8147": 250,
        "8148": 168,
        "8149": 253,
        "8150": 46,
        "8151": 172,
        "8152": 226,
        "8153": 84,
        "8154": 135,
        "8155": 188,
        "8156": 82,
        "8157": 32,
        "8158": 63,
        "8159": 34,
        "8160": 110,
        "8161": 49,
        "8162": 221,
        "8163": 253,
        "8164": 95,
        "8165": 152,
        "8166": 25,
        "8167": 238,
        "8168": 16,
        "8169": 117,
        "8170": 233,
        "8171": 14,
        "8172": 56,
        "8173": 177,
        "8174": 103,
        "8175": 238,
        "8176": 32,
        "8177": 81,
        "8178": 64,
        "8179": 201,
        "8180": 133,
        "8181": 74,
        "8182": 29,
        "8183": 207,
        "8184": 215,
        "8185": 170,
        "8186": 147,
        "8187": 159,
        "8188": 171,
        "8189": 105,
        "8190": 2,
        "8191": 17,
        "8192": 240,
        "8193": 223,
        "8194": 200,
        "8195": 249,
        "8196": 86,
        "8197": 80,
        "8198": 52,
        "8199": 21,
        "8200": 198,
        "8201": 64,
        "8202": 189,
        "8203": 122,
        "8204": 97,
        "8205": 244,
        "8206": 116,
        "8207": 37,
        "8208": 206,
        "8209": 91,
        "8210": 58,
        "8211": 79,
        "8212": 131,
        "8213": 214,
        "8214": 76,
        "8215": 56,
        "8216": 219,
        "8217": 78,
        "8218": 148,
        "8219": 60,
        "8220": 99,
        "8221": 46,
        "8222": 87,
        "8223": 113,
        "8224": 190,
        "8225": 3,
        "8226": 179,
        "8227": 140,
        "8228": 143,
        "8229": 156,
        "8230": 242,
        "8231": 19,
        "8232": 84,
        "8233": 4,
        "8234": 221,
        "8235": 177,
        "8236": 54,
        "8237": 154,
        "8238": 173,
        "8239": 96,
        "8240": 115,
        "8241": 62,
        "8242": 141,
        "8243": 114,
        "8244": 244,
        "8245": 85,
        "8246": 170,
        "8247": 159,
        "8248": 14,
        "8249": 53,
        "8250": 137,
        "8251": 205,
        "8252": 65,
        "8253": 167,
        "8254": 126,
        "8255": 195,
        "8256": 99,
        "8257": 38,
        "8258": 45,
        "8259": 106,
        "8260": 190,
        "8261": 115,
        "8262": 148,
        "8263": 0,
        "8264": 153,
        "8265": 175,
        "8266": 51,
        "8267": 46,
        "8268": 6,
        "8269": 63,
        "8270": 205,
        "8271": 138,
        "8272": 75,
        "8273": 147,
        "8274": 139,
        "8275": 12,
        "8276": 118,
        "8277": 115,
        "8278": 237,
        "8279": 41,
        "8280": 249,
        "8281": 177,
        "8282": 173,
        "8283": 244,
        "8284": 125,
        "8285": 137,
        "8286": 23,
        "8287": 233,
        "8288": 108,
        "8289": 191,
        "8290": 195,
        "8291": 32,
        "8292": 128,
        "8293": 115,
        "8294": 222,
        "8295": 106,
        "8296": 76,
        "8297": 135,
        "8298": 245,
        "8299": 134,
        "8300": 119,
        "8301": 117,
        "8302": 195,
        "8303": 21,
        "8304": 234,
        "8305": 219,
        "8306": 255,
        "8307": 0,
        "8308": 137,
        "8309": 254,
        "8310": 127,
        "8311": 61,
        "8312": 250,
        "8313": 208,
        "8314": 214,
        "8315": 51,
        "8316": 150,
        "8317": 58,
        "8318": 108,
        "8319": 69,
        "8320": 127,
        "8321": 0,
        "8322": 245,
        "8323": 145,
        "8324": 53,
        "8325": 106,
        "8326": 33,
        "8327": 126,
        "8328": 219,
        "8329": 124,
        "8330": 103,
        "8331": 141,
        "8332": 229,
        "8333": 63,
        "8334": 76,
        "8335": 59,
        "8336": 165,
        "8337": 247,
        "8338": 184,
        "8339": 168,
        "8340": 129,
        "8341": 225,
        "8342": 118,
        "8343": 10,
        "8344": 147,
        "8345": 139,
        "8346": 212,
        "8347": 90,
        "8348": 140,
        "8349": 16,
        "8350": 73,
        "8351": 116,
        "8352": 78,
        "8353": 8,
        "8354": 89,
        "8355": 194,
        "8356": 157,
        "8357": 187,
        "8358": 191,
        "8359": 186,
        "8360": 212,
        "8361": 210,
        "8362": 52,
        "8363": 29,
        "8364": 54,
        "8365": 199,
        "8366": 196,
        "8367": 189,
        "8368": 63,
        "8369": 115,
        "8370": 193,
        "8371": 139,
        "8372": 194,
        "8373": 82,
        "8374": 230,
        "8375": 211,
        "8376": 73,
        "8377": 151,
        "8378": 33,
        "8379": 101,
        "8380": 143,
        "8381": 38,
        "8382": 138,
        "8383": 121,
        "8384": 185,
        "8385": 222,
        "8386": 176,
        "8387": 188,
        "8388": 131,
        "8389": 90,
        "8390": 181,
        "8391": 119,
        "8392": 108,
        "8393": 58,
        "8394": 165,
        "8395": 88,
        "8396": 222,
        "8397": 245,
        "8398": 173,
        "8399": 92,
        "8400": 146,
        "8401": 233,
        "8402": 87,
        "8403": 48,
        "8404": 176,
        "8405": 99,
        "8406": 93,
        "8407": 143,
        "8408": 129,
        "8409": 226,
        "8410": 100,
        "8411": 172,
        "8412": 95,
        "8413": 145,
        "8414": 35,
        "8415": 166,
        "8416": 131,
        "8417": 168,
        "8418": 73,
        "8419": 20,
        "8420": 108,
        "8421": 217,
        "8422": 127,
        "8423": 141,
        "8424": 162,
        "8425": 112,
        "8426": 50,
        "8427": 9,
        "8428": 124,
        "8429": 62,
        "8430": 183,
        "8431": 25,
        "8432": 102,
        "8433": 9,
        "8434": 72,
        "8435": 24,
        "8436": 34,
        "8437": 189,
        "8438": 119,
        "8439": 221,
        "8440": 246,
        "8441": 251,
        "8442": 209,
        "8443": 155,
        "8444": 9,
        "8445": 214,
        "8446": 136,
        "8447": 89,
        "8448": 73,
        "8449": 136,
        "8450": 178,
        "8451": 167,
        "8452": 99,
        "8453": 104,
        "8454": 13,
        "8455": 218,
        "8456": 177,
        "8457": 203,
        "8458": 245,
        "8459": 164,
        "8460": 253,
        "8461": 112,
        "8462": 192,
        "8463": 198,
        "8464": 228,
        "8465": 87,
        "8466": 95,
        "8467": 230,
        "8468": 96,
        "8469": 74,
        "8470": 150,
        "8471": 68,
        "8472": 3,
        "8473": 29,
        "8474": 204,
        "8475": 195,
        "8476": 212,
        "8477": 49,
        "8478": 115,
        "8479": 226,
        "8480": 88,
        "8481": 138,
        "8482": 23,
        "8483": 103,
        "8484": 160,
        "8485": 65,
        "8486": 129,
        "8487": 141,
        "8488": 152,
        "8489": 55,
        "8490": 34,
        "8491": 109,
        "8492": 51,
        "8493": 228,
        "8494": 73,
        "8495": 231,
        "8496": 106,
        "8497": 249,
        "8498": 222,
        "8499": 245,
        "8500": 102,
        "8501": 132,
        "8502": 180,
        "8503": 228,
        "8504": 115,
        "8505": 124,
        "8506": 217,
        "8507": 223,
        "8508": 40,
        "8509": 41,
        "8510": 217,
        "8511": 61,
        "8512": 64,
        "8513": 97,
        "8514": 159,
        "8515": 224,
        "8516": 162,
        "8517": 255,
        "8518": 183,
        "8519": 231,
        "8520": 175,
        "8521": 215,
        "8522": 62,
        "8523": 12,
        "8524": 98,
        "8525": 85,
        "8526": 52,
        "8527": 254,
        "8528": 94,
        "8529": 129,
        "8530": 156,
        "8531": 145,
        "8532": 232,
        "8533": 47,
        "8534": 33,
        "8535": 128,
        "8536": 128,
        "8537": 105,
        "8538": 124,
        "8539": 136,
        "8540": 167,
        "8541": 115,
        "8542": 254,
        "8543": 76,
        "8544": 148,
        "8545": 7,
        "8546": 98,
        "8547": 240,
        "8548": 195,
        "8549": 71,
        "8550": 71,
        "8551": 103,
        "8552": 68,
        "8553": 157,
        "8554": 247,
        "8555": 194,
        "8556": 102,
        "8557": 9,
        "8558": 218,
        "8559": 164,
        "8560": 234,
        "8561": 16,
        "8562": 166,
        "8563": 155,
        "8564": 228,
        "8565": 143,
        "8566": 45,
        "8567": 123,
        "8568": 97,
        "8569": 71,
        "8570": 21,
        "8571": 111,
        "8572": 17,
        "8573": 213,
        "8574": 101,
        "8575": 163,
        "8576": 147,
        "8577": 134,
        "8578": 89,
        "8579": 105,
        "8580": 234,
        "8581": 31,
        "8582": 62,
        "8583": 72,
        "8584": 0,
        "8585": 114,
        "8586": 125,
        "8587": 247,
        "8588": 8,
        "8589": 125,
        "8590": 236,
        "8591": 186,
        "8592": 128,
        "8593": 230,
        "8594": 182,
        "8595": 134,
        "8596": 165,
        "8597": 161,
        "8598": 203,
        "8599": 136,
        "8600": 166,
        "8601": 165,
        "8602": 190,
        "8603": 65,
        "8604": 146,
        "8605": 164,
        "8606": 113,
        "8607": 194,
        "8608": 28,
        "8609": 117,
        "8610": 250,
        "8611": 109,
        "8612": 222,
        "8613": 93,
        "8614": 93,
        "8615": 81,
        "8616": 173,
        "8617": 41,
        "8618": 18,
        "8619": 251,
        "8620": 86,
        "8621": 17,
        "8622": 112,
        "8623": 130,
        "8624": 100,
        "8625": 44,
        "8626": 20,
        "8627": 158,
        "8628": 149,
        "8629": 151,
        "8630": 219,
        "8631": 12,
        "8632": 91,
        "8633": 125,
        "8634": 96,
        "8635": 159,
        "8636": 130,
        "8637": 67,
        "8638": 88,
        "8639": 37,
        "8640": 177,
        "8641": 23,
        "8642": 163,
        "8643": 209,
        "8644": 90,
        "8645": 26,
        "8646": 83,
        "8647": 247,
        "8648": 135,
        "8649": 59,
        "8650": 231,
        "8651": 215,
        "8652": 35,
        "8653": 237,
        "8654": 144,
        "8655": 108,
        "8656": 78,
        "8657": 57,
        "8658": 102,
        "8659": 108,
        "8660": 137,
        "8661": 139,
        "8662": 245,
        "8663": 89,
        "8664": 103,
        "8665": 61,
        "8666": 116,
        "8667": 218,
        "8668": 43,
        "8669": 45,
        "8670": 218,
        "8671": 93,
        "8672": 223,
        "8673": 29,
        "8674": 186,
        "8675": 248,
        "8676": 118,
        "8677": 71,
        "8678": 23,
        "8679": 162,
        "8680": 211,
        "8681": 9,
        "8682": 120,
        "8683": 66,
        "8684": 19,
        "8685": 62,
        "8686": 80,
        "8687": 91,
        "8688": 169,
        "8689": 127,
        "8690": 149,
        "8691": 214,
        "8692": 240,
        "8693": 59,
        "8694": 29,
        "8695": 23,
        "8696": 91,
        "8697": 130,
        "8698": 107,
        "8699": 34,
        "8700": 202,
        "8701": 167,
        "8702": 196,
        "8703": 239,
        "8704": 248,
        "8705": 224,
        "8706": 231,
        "8707": 248,
        "8708": 238,
        "8709": 185,
        "8710": 13,
        "8711": 104,
        "8712": 175,
        "8713": 222,
        "8714": 162,
        "8715": 233,
        "8716": 149,
        "8717": 78,
        "8718": 246,
        "8719": 64,
        "8720": 173,
        "8721": 51,
        "8722": 251,
        "8723": 166,
        "8724": 223,
        "8725": 222,
        "8726": 128,
        "8727": 65,
        "8728": 59,
        "8729": 122,
        "8730": 144,
        "8731": 178,
        "8732": 20,
        "8733": 91,
        "8734": 206,
        "8735": 87,
        "8736": 152,
        "8737": 224,
        "8738": 65,
        "8739": 5,
        "8740": 245,
        "8741": 136,
        "8742": 102,
        "8743": 225,
        "8744": 96,
        "8745": 126,
        "8746": 23,
        "8747": 204,
        "8748": 114,
        "8749": 182,
        "8750": 249,
        "8751": 31,
        "8752": 223,
        "8753": 60,
        "8754": 170,
        "8755": 203,
        "8756": 238,
        "8757": 254,
        "8758": 54,
        "8759": 226,
        "8760": 245,
        "8761": 146,
        "8762": 78,
        "8763": 52,
        "8764": 242,
        "8765": 214,
        "8766": 140,
        "8767": 44,
        "8768": 70,
        "8769": 95,
        "8770": 66,
        "8771": 246,
        "8772": 36,
        "8773": 44,
        "8774": 35,
        "8775": 45,
        "8776": 179,
        "8777": 185,
        "8778": 116,
        "8779": 50,
        "8780": 169,
        "8781": 217,
        "8782": 222,
        "8783": 222,
        "8784": 89,
        "8785": 191,
        "8786": 30,
        "8787": 123,
        "8788": 246,
        "8789": 252,
        "8790": 249,
        "8791": 117,
        "8792": 212,
        "8793": 36,
        "8794": 36,
        "8795": 91,
        "8796": 60,
        "8797": 211,
        "8798": 82,
        "8799": 79,
        "8800": 120,
        "8801": 183,
        "8802": 212,
        "8803": 103,
        "8804": 70,
        "8805": 21,
        "8806": 242,
        "8807": 31,
        "8808": 35,
        "8809": 25,
        "8810": 27,
        "8811": 160,
        "8812": 221,
        "8813": 90,
        "8814": 202,
        "8815": 150,
        "8816": 92,
        "8817": 0,
        "8818": 118,
        "8819": 94,
        "8820": 91,
        "8821": 75,
        "8822": 168,
        "8823": 199,
        "8824": 205,
        "8825": 158,
        "8826": 239,
        "8827": 8,
        "8828": 103,
        "8829": 73,
        "8830": 203,
        "8831": 6,
        "8832": 90,
        "8833": 230,
        "8834": 185,
        "8835": 39,
        "8836": 202,
        "8837": 120,
        "8838": 101,
        "8839": 82,
        "8840": 220,
        "8841": 253,
        "8842": 108,
        "8843": 23,
        "8844": 61,
        "8845": 207,
        "8846": 77,
        "8847": 42,
        "8848": 98,
        "8849": 166,
        "8850": 236,
        "8851": 223,
        "8852": 193,
        "8853": 68,
        "8854": 29,
        "8855": 23,
        "8856": 65,
        "8857": 121,
        "8858": 234,
        "8859": 109,
        "8860": 238,
        "8861": 54,
        "8862": 42,
        "8863": 33,
        "8864": 90,
        "8865": 4,
        "8866": 126,
        "8867": 228,
        "8868": 7,
        "8869": 81,
        "8870": 37,
        "8871": 56,
        "8872": 9,
        "8873": 108,
        "8874": 69,
        "8875": 50,
        "8876": 210,
        "8877": 162,
        "8878": 108,
        "8879": 134,
        "8880": 119,
        "8881": 146,
        "8882": 102,
        "8883": 231,
        "8884": 68,
        "8885": 84,
        "8886": 194,
        "8887": 174,
        "8888": 54,
        "8889": 198,
        "8890": 234,
        "8891": 0,
        "8892": 135,
        "8893": 126,
        "8894": 154,
        "8895": 27,
        "8896": 80,
        "8897": 223,
        "8898": 248,
        "8899": 5,
        "8900": 226,
        "8901": 242,
        "8902": 8,
        "8903": 162,
        "8904": 241,
        "8905": 132,
        "8906": 200,
        "8907": 1,
        "8908": 21,
        "8909": 254,
        "8910": 248,
        "8911": 6,
        "8912": 252,
        "8913": 250,
        "8914": 57,
        "8915": 225,
        "8916": 13,
        "8917": 145,
        "8918": 145,
        "8919": 168,
        "8920": 28,
        "8921": 129,
        "8922": 70,
        "8923": 193,
        "8924": 213,
        "8925": 250,
        "8926": 59,
        "8927": 139,
        "8928": 60,
        "8929": 67,
        "8930": 76,
        "8931": 192,
        "8932": 186,
        "8933": 231,
        "8934": 204,
        "8935": 220,
        "8936": 54,
        "8937": 189,
        "8938": 68,
        "8939": 222,
        "8940": 254,
        "8941": 67,
        "8942": 126,
        "8943": 216,
        "8944": 79,
        "8945": 244,
        "8946": 177,
        "8947": 62,
        "8948": 77,
        "8949": 163,
        "8950": 233,
        "8951": 151,
        "8952": 127,
        "8953": 13,
        "8954": 57,
        "8955": 24,
        "8956": 75,
        "8957": 97,
        "8958": 154,
        "8959": 150,
        "8960": 220,
        "8961": 183,
        "8962": 48,
        "8963": 117,
        "8964": 149,
        "8965": 243,
        "8966": 149,
        "8967": 4,
        "8968": 99,
        "8969": 8,
        "8970": 81,
        "8971": 30,
        "8972": 87,
        "8973": 152,
        "8974": 46,
        "8975": 63,
        "8976": 149,
        "8977": 124,
        "8978": 74,
        "8979": 131,
        "8980": 168,
        "8981": 161,
        "8982": 68,
        "8983": 171,
        "8984": 156,
        "8985": 254,
        "8986": 49,
        "8987": 163,
        "8988": 147,
        "8989": 164,
        "8990": 31,
        "8991": 207,
        "8992": 219,
        "8993": 128,
        "8994": 81,
        "8995": 4,
        "8996": 231,
        "8997": 44,
        "8998": 24,
        "8999": 231,
        "9000": 147,
        "9001": 215,
        "9002": 249,
        "9003": 37,
        "9004": 160,
        "9005": 0,
        "9006": 70,
        "9007": 147,
        "9008": 119,
        "9009": 162,
        "9010": 176,
        "9011": 3,
        "9012": 65,
        "9013": 87,
        "9014": 187,
        "9015": 197,
        "9016": 189,
        "9017": 234,
        "9018": 214,
        "9019": 96,
        "9020": 102,
        "9021": 141,
        "9022": 93,
        "9023": 106,
        "9024": 207,
        "9025": 149,
        "9026": 110,
        "9027": 117,
        "9028": 64,
        "9029": 143,
        "9030": 104,
        "9031": 83,
        "9032": 193,
        "9033": 108,
        "9034": 43,
        "9035": 118,
        "9036": 99,
        "9037": 32,
        "9038": 203,
        "9039": 81,
        "9040": 174,
        "9041": 249,
        "9042": 24,
        "9043": 21,
        "9044": 95,
        "9045": 21,
        "9046": 77,
        "9047": 131,
        "9048": 241,
        "9049": 38,
        "9050": 252,
        "9051": 102,
        "9052": 171,
        "9053": 54,
        "9054": 102,
        "9055": 99,
        "9056": 133,
        "9057": 82,
        "9058": 183,
        "9059": 20,
        "9060": 73,
        "9061": 187,
        "9062": 101,
        "9063": 88,
        "9064": 94,
        "9065": 91,
        "9066": 105,
        "9067": 58,
        "9068": 227,
        "9069": 111,
        "9070": 150,
        "9071": 65,
        "9072": 223,
        "9073": 142,
        "9074": 104,
        "9075": 213,
        "9076": 247,
        "9077": 35,
        "9078": 70,
        "9079": 176,
        "9080": 10,
        "9081": 101,
        "9082": 20,
        "9083": 177,
        "9084": 101,
        "9085": 239,
        "9086": 3,
        "9087": 123,
        "9088": 249,
        "9089": 220,
        "9090": 170,
        "9091": 153,
        "9092": 67,
        "9093": 177,
        "9094": 219,
        "9095": 121,
        "9096": 36,
        "9097": 130,
        "9098": 239,
        "9099": 33,
        "9100": 194,
        "9101": 32,
        "9102": 149,
        "9103": 245,
        "9104": 48,
        "9105": 160,
        "9106": 27,
        "9107": 194,
        "9108": 63,
        "9109": 16,
        "9110": 203,
        "9111": 87,
        "9112": 172,
        "9113": 203,
        "9114": 165,
        "9115": 28,
        "9116": 130,
        "9117": 99,
        "9118": 98,
        "9119": 26,
        "9120": 125,
        "9121": 184,
        "9122": 254,
        "9123": 25,
        "9124": 92,
        "9125": 118,
        "9126": 130,
        "9127": 251,
        "9128": 136,
        "9129": 248,
        "9130": 252,
        "9131": 132,
        "9132": 166,
        "9133": 88,
        "9134": 195,
        "9135": 248,
        "9136": 118,
        "9137": 67,
        "9138": 233,
        "9139": 64,
        "9140": 153,
        "9141": 210,
        "9142": 78,
        "9143": 51,
        "9144": 174,
        "9145": 27,
        "9146": 137,
        "9147": 130,
        "9148": 129,
        "9149": 156,
        "9150": 64,
        "9151": 156,
        "9152": 177,
        "9153": 194,
        "9154": 25,
        "9155": 35,
        "9156": 203,
        "9157": 189,
        "9158": 122,
        "9159": 201,
        "9160": 112,
        "9161": 19,
        "9162": 67,
        "9163": 202,
        "9164": 142,
        "9165": 144,
        "9166": 188,
        "9167": 218,
        "9168": 253,
        "9169": 67,
        "9170": 197,
        "9171": 221,
        "9172": 58,
        "9173": 219,
        "9174": 212,
        "9175": 70,
        "9176": 219,
        "9177": 176,
        "9178": 218,
        "9179": 235,
        "9180": 156,
        "9181": 95,
        "9182": 54,
        "9183": 3,
        "9184": 218,
        "9185": 103,
        "9186": 72,
        "9187": 45,
        "9188": 81,
        "9189": 106,
        "9190": 246,
        "9191": 133,
        "9192": 15,
        "9193": 183,
        "9194": 114,
        "9195": 115,
        "9196": 197,
        "9197": 38,
        "9198": 218,
        "9199": 229,
        "9200": 245,
        "9201": 38,
        "9202": 169,
        "9203": 199,
        "9204": 57,
        "9205": 200,
        "9206": 129,
        "9207": 208,
        "9208": 56,
        "9209": 162,
        "9210": 148,
        "9211": 93,
        "9212": 17,
        "9213": 147,
        "9214": 195,
        "9215": 194,
        "9216": 208,
        "9217": 233,
        "9218": 84,
        "9219": 99,
        "9220": 110,
        "9221": 58,
        "9222": 10,
        "9223": 16,
        "9224": 231,
        "9225": 68,
        "9226": 84,
        "9227": 81,
        "9228": 242,
        "9229": 29,
        "9230": 210,
        "9231": 196,
        "9232": 199,
        "9233": 146,
        "9234": 203,
        "9235": 12,
        "9236": 37,
        "9237": 15,
        "9238": 7,
        "9239": 53,
        "9240": 87,
        "9241": 149,
        "9242": 146,
        "9243": 110,
        "9244": 51,
        "9245": 150,
        "9246": 13,
        "9247": 249,
        "9248": 227,
        "9249": 166,
        "9250": 42,
        "9251": 101,
        "9252": 158,
        "9253": 232,
        "9254": 120,
        "9255": 128,
        "9256": 158,
        "9257": 238,
        "9258": 202,
        "9259": 191,
        "9260": 7,
        "9261": 166,
        "9262": 195,
        "9263": 188,
        "9264": 177,
        "9265": 167,
        "9266": 195,
        "9267": 167,
        "9268": 56,
        "9269": 217,
        "9270": 240,
        "9271": 196,
        "9272": 248,
        "9273": 27,
        "9274": 164,
        "9275": 58,
        "9276": 221,
        "9277": 176,
        "9278": 161,
        "9279": 94,
        "9280": 122,
        "9281": 163,
        "9282": 178,
        "9283": 213,
        "9284": 198,
        "9285": 208,
        "9286": 6,
        "9287": 198,
        "9288": 28,
        "9289": 30,
        "9290": 151,
        "9291": 116,
        "9292": 229,
        "9293": 227,
        "9294": 110,
        "9295": 183,
        "9296": 217,
        "9297": 117,
        "9298": 9,
        "9299": 85,
        "9300": 205,
        "9301": 70,
        "9302": 63,
        "9303": 140,
        "9304": 5,
        "9305": 168,
        "9306": 123,
        "9307": 33,
        "9308": 123,
        "9309": 64,
        "9310": 229,
        "9311": 169,
        "9312": 18,
        "9313": 58,
        "9314": 21,
        "9315": 234,
        "9316": 203,
        "9317": 215,
        "9318": 163,
        "9319": 49,
        "9320": 179,
        "9321": 175,
        "9322": 159,
        "9323": 84,
        "9324": 245,
        "9325": 197,
        "9326": 98,
        "9327": 38,
        "9328": 252,
        "9329": 10,
        "9330": 251,
        "9331": 110,
        "9332": 93,
        "9333": 190,
        "9334": 243,
        "9335": 64,
        "9336": 53,
        "9337": 195,
        "9338": 133,
        "9339": 22,
        "9340": 208,
        "9341": 222,
        "9342": 38,
        "9343": 143,
        "9344": 248,
        "9345": 42,
        "9346": 26,
        "9347": 217,
        "9348": 111,
        "9349": 253,
        "9350": 84,
        "9351": 181,
        "9352": 95,
        "9353": 34,
        "9354": 217,
        "9355": 2,
        "9356": 90,
        "9357": 109,
        "9358": 43,
        "9359": 165,
        "9360": 153,
        "9361": 169,
        "9362": 121,
        "9363": 187,
        "9364": 94,
        "9365": 214,
        "9366": 159,
        "9367": 98,
        "9368": 211,
        "9369": 196,
        "9370": 205,
        "9371": 152,
        "9372": 143,
        "9373": 131,
        "9374": 181,
        "9375": 85,
        "9376": 79,
        "9377": 129,
        "9378": 203,
        "9379": 223,
        "9380": 176,
        "9381": 6,
        "9382": 247,
        "9383": 227,
        "9384": 104,
        "9385": 152,
        "9386": 195,
        "9387": 61,
        "9388": 144,
        "9389": 65,
        "9390": 51,
        "9391": 166,
        "9392": 100,
        "9393": 183,
        "9394": 58,
        "9395": 254,
        "9396": 52,
        "9397": 174,
        "9398": 138,
        "9399": 93,
        "9400": 115,
        "9401": 12,
        "9402": 65,
        "9403": 26,
        "9404": 58,
        "9405": 134,
        "9406": 216,
        "9407": 155,
        "9408": 17,
        "9409": 139,
        "9410": 81,
        "9411": 151,
        "9412": 65,
        "9413": 54,
        "9414": 191,
        "9415": 42,
        "9416": 57,
        "9417": 46,
        "9418": 92,
        "9419": 136,
        "9420": 135,
        "9421": 56,
        "9422": 41,
        "9423": 124,
        "9424": 30,
        "9425": 73,
        "9426": 185,
        "9427": 175,
        "9428": 24,
        "9429": 196,
        "9430": 3,
        "9431": 43,
        "9432": 44,
        "9433": 143,
        "9434": 181,
        "9435": 0,
        "9436": 182,
        "9437": 106,
        "9438": 152,
        "9439": 59,
        "9440": 195,
        "9441": 144,
        "9442": 36,
        "9443": 179,
        "9444": 237,
        "9445": 115,
        "9446": 33,
        "9447": 118,
        "9448": 205,
        "9449": 77,
        "9450": 220,
        "9451": 46,
        "9452": 250,
        "9453": 190,
        "9454": 20,
        "9455": 63,
        "9456": 99,
        "9457": 117,
        "9458": 108,
        "9459": 42,
        "9460": 104,
        "9461": 64,
        "9462": 88,
        "9463": 88,
        "9464": 109,
        "9465": 239,
        "9466": 222,
        "9467": 30,
        "9468": 15,
        "9469": 249,
        "9470": 46,
        "9471": 204,
        "9472": 213,
        "9473": 44,
        "9474": 50,
        "9475": 199,
        "9476": 6,
        "9477": 194,
        "9478": 62,
        "9479": 52,
        "9480": 98,
        "9481": 206,
        "9482": 74,
        "9483": 180,
        "9484": 149,
        "9485": 148,
        "9486": 110,
        "9487": 10,
        "9488": 188,
        "9489": 39,
        "9490": 7,
        "9491": 169,
        "9492": 169,
        "9493": 188,
        "9494": 92,
        "9495": 25,
        "9496": 205,
        "9497": 108,
        "9498": 134,
        "9499": 2,
        "9500": 49,
        "9501": 36,
        "9502": 40,
        "9503": 57,
        "9504": 50,
        "9505": 202,
        "9506": 66,
        "9507": 163,
        "9508": 115,
        "9509": 26,
        "9510": 104,
        "9511": 213,
        "9512": 223,
        "9513": 146,
        "9514": 234,
        "9515": 221,
        "9516": 77,
        "9517": 122,
        "9518": 97,
        "9519": 52,
        "9520": 134,
        "9521": 10,
        "9522": 130,
        "9523": 98,
        "9524": 36,
        "9525": 50,
        "9526": 28,
        "9527": 176,
        "9528": 21,
        "9529": 243,
        "9530": 203,
        "9531": 8,
        "9532": 220,
        "9533": 85,
        "9534": 196,
        "9535": 146,
        "9536": 23,
        "9537": 214,
        "9538": 7,
        "9539": 203,
        "9540": 208,
        "9541": 42,
        "9542": 224,
        "9543": 164,
        "9544": 216,
        "9545": 216,
        "9546": 162,
        "9547": 169,
        "9548": 248,
        "9549": 113,
        "9550": 148,
        "9551": 138,
        "9552": 189,
        "9553": 59,
        "9554": 114,
        "9555": 28,
        "9556": 37,
        "9557": 216,
        "9558": 223,
        "9559": 15,
        "9560": 136,
        "9561": 19,
        "9562": 216,
        "9563": 175,
        "9564": 227,
        "9565": 91,
        "9566": 37,
        "9567": 247,
        "9568": 148,
        "9569": 226,
        "9570": 6,
        "9571": 244,
        "9572": 129,
        "9573": 240,
        "9574": 50,
        "9575": 182,
        "9576": 153,
        "9577": 219,
        "9578": 203,
        "9579": 174,
        "9580": 49,
        "9581": 167,
        "9582": 182,
        "9583": 131,
        "9584": 161,
        "9585": 191,
        "9586": 165,
        "9587": 127,
        "9588": 154,
        "9589": 72,
        "9590": 208,
        "9591": 209,
        "9592": 251,
        "9593": 47,
        "9594": 6,
        "9595": 52,
        "9596": 162,
        "9597": 15,
        "9598": 97,
        "9599": 235,
        "9600": 226,
        "9601": 54,
        "9602": 158,
        "9603": 161,
        "9604": 150,
        "9605": 120,
        "9606": 231,
        "9607": 39,
        "9608": 161,
        "9609": 199,
        "9610": 225,
        "9611": 148,
        "9612": 216,
        "9613": 174,
        "9614": 214,
        "9615": 61,
        "9616": 104,
        "9617": 200,
        "9618": 8,
        "9619": 160,
        "9620": 205,
        "9621": 202,
        "9622": 67,
        "9623": 104,
        "9624": 230,
        "9625": 131,
        "9626": 238,
        "9627": 211,
        "9628": 128,
        "9629": 91,
        "9630": 109,
        "9631": 48,
        "9632": 11,
        "9633": 206,
        "9634": 31,
        "9635": 203,
        "9636": 60,
        "9637": 34,
        "9638": 65,
        "9639": 173,
        "9640": 101,
        "9641": 16,
        "9642": 122,
        "9643": 46,
        "9644": 58,
        "9645": 139,
        "9646": 162,
        "9647": 173,
        "9648": 36,
        "9649": 176,
        "9650": 136,
        "9651": 126,
        "9652": 53,
        "9653": 231,
        "9654": 79,
        "9655": 238,
        "9656": 42,
        "9657": 142,
        "9658": 202,
        "9659": 238,
        "9660": 112,
        "9661": 76,
        "9662": 151,
        "9663": 179,
        "9664": 100,
        "9665": 139,
        "9666": 121,
        "9667": 164,
        "9668": 202,
        "9669": 62,
        "9670": 205,
        "9671": 45,
        "9672": 228,
        "9673": 220,
        "9674": 41,
        "9675": 25,
        "9676": 110,
        "9677": 212,
        "9678": 27,
        "9679": 107,
        "9680": 0,
        "9681": 220,
        "9682": 182,
        "9683": 151,
        "9684": 167,
        "9685": 41,
        "9686": 98,
        "9687": 30,
        "9688": 47,
        "9689": 97,
        "9690": 245,
        "9691": 200,
        "9692": 24,
        "9693": 93,
        "9694": 203,
        "9695": 0,
        "9696": 111,
        "9697": 11,
        "9698": 115,
        "9699": 82,
        "9700": 222,
        "9701": 65,
        "9702": 160,
        "9703": 210,
        "9704": 153,
        "9705": 103,
        "9706": 63,
        "9707": 93,
        "9708": 17,
        "9709": 71,
        "9710": 220,
        "9711": 59,
        "9712": 168,
        "9713": 29,
        "9714": 156,
        "9715": 228,
        "9716": 234,
        "9717": 31,
        "9718": 47,
        "9719": 48,
        "9720": 236,
        "9721": 76,
        "9722": 68,
        "9723": 224,
        "9724": 178,
        "9725": 39,
        "9726": 67,
        "9727": 129,
        "9728": 225,
        "9729": 7,
        "9730": 7,
        "9731": 176,
        "9732": 110,
        "9733": 149,
        "9734": 131,
        "9735": 154,
        "9736": 161,
        "9737": 64,
        "9738": 229,
        "9739": 15,
        "9740": 39,
        "9741": 246,
        "9742": 152,
        "9743": 140,
        "9744": 5,
        "9745": 43,
        "9746": 74,
        "9747": 153,
        "9748": 198,
        "9749": 153,
        "9750": 211,
        "9751": 230,
        "9752": 76,
        "9753": 7,
        "9754": 23,
        "9755": 243,
        "9756": 5,
        "9757": 143,
        "9758": 247,
        "9759": 14,
        "9760": 180,
        "9761": 238,
        "9762": 221,
        "9763": 51,
        "9764": 47,
        "9765": 101,
        "9766": 37,
        "9767": 130,
        "9768": 174,
        "9769": 158,
        "9770": 85,
        "9771": 55,
        "9772": 184,
        "9773": 165,
        "9774": 227,
        "9775": 222,
        "9776": 112,
        "9777": 170,
        "9778": 148,
        "9779": 147,
        "9780": 140,
        "9781": 242,
        "9782": 119,
        "9783": 160,
        "9784": 118,
        "9785": 218,
        "9786": 123,
        "9787": 11,
        "9788": 13,
        "9789": 122,
        "9790": 237,
        "9791": 65,
        "9792": 138,
        "9793": 57,
        "9794": 123,
        "9795": 146,
        "9796": 161,
        "9797": 202,
        "9798": 116,
        "9799": 97,
        "9800": 143,
        "9801": 121,
        "9802": 52,
        "9803": 98,
        "9804": 72,
        "9805": 4,
        "9806": 238,
        "9807": 89,
        "9808": 86,
        "9809": 140,
        "9810": 126,
        "9811": 81,
        "9812": 15,
        "9813": 132,
        "9814": 246,
        "9815": 0,
        "9816": 105,
        "9817": 242,
        "9818": 199,
        "9819": 131,
        "9820": 22,
        "9821": 162,
        "9822": 152,
        "9823": 223,
        "9824": 42,
        "9825": 54,
        "9826": 239,
        "9827": 134,
        "9828": 138,
        "9829": 69,
        "9830": 222,
        "9831": 8,
        "9832": 43,
        "9833": 44,
        "9834": 223,
        "9835": 55,
        "9836": 220,
        "9837": 108,
        "9838": 255,
        "9839": 175,
        "9840": 220,
        "9841": 141,
        "9842": 94,
        "9843": 182,
        "9844": 129,
        "9845": 209,
        "9846": 194,
        "9847": 18,
        "9848": 80,
        "9849": 178,
        "9850": 19,
        "9851": 128,
        "9852": 213,
        "9853": 255,
        "9854": 128,
        "9855": 242,
        "9856": 184,
        "9857": 161,
        "9858": 22,
        "9859": 43,
        "9860": 0,
        "9861": 101,
        "9862": 16,
        "9863": 48,
        "9864": 26,
        "9865": 45,
        "9866": 86,
        "9867": 68,
        "9868": 2,
        "9869": 123,
        "9870": 69,
        "9871": 69,
        "9872": 47,
        "9873": 36,
        "9874": 48,
        "9875": 228,
        "9876": 170,
        "9877": 25,
        "9878": 184,
        "9879": 55,
        "9880": 138,
        "9881": 93,
        "9882": 124,
        "9883": 21,
        "9884": 235,
        "9885": 173,
        "9886": 173,
        "9887": 168,
        "9888": 249,
        "9889": 176,
        "9890": 68,
        "9891": 107,
        "9892": 121,
        "9893": 76,
        "9894": 196,
        "9895": 58,
        "9896": 71,
        "9897": 180,
        "9898": 52,
        "9899": 235,
        "9900": 236,
        "9901": 165,
        "9902": 157,
        "9903": 187,
        "9904": 127,
        "9905": 134,
        "9906": 150,
        "9907": 93,
        "9908": 233,
        "9909": 119,
        "9910": 242,
        "9911": 204,
        "9912": 208,
        "9913": 119,
        "9914": 16,
        "9915": 90,
        "9916": 209,
        "9917": 135,
        "9918": 246,
        "9919": 49,
        "9920": 81,
        "9921": 209,
        "9922": 99,
        "9923": 189,
        "9924": 1,
        "9925": 21,
        "9926": 180,
        "9927": 210,
        "9928": 136,
        "9929": 86,
        "9930": 141,
        "9931": 49,
        "9932": 148,
        "9933": 45,
        "9934": 129,
        "9935": 7,
        "9936": 131,
        "9937": 180,
        "9938": 77,
        "9939": 6,
        "9940": 83,
        "9941": 183,
        "9942": 251,
        "9943": 222,
        "9944": 4,
        "9945": 240,
        "9946": 137,
        "9947": 196,
        "9948": 138,
        "9949": 4,
        "9950": 79,
        "9951": 27,
        "9952": 85,
        "9953": 35,
        "9954": 255,
        "9955": 175,
        "9956": 25,
        "9957": 212,
        "9958": 139,
        "9959": 43,
        "9960": 54,
        "9961": 64,
        "9962": 56,
        "9963": 232,
        "9964": 249,
        "9965": 59,
        "9966": 113,
        "9967": 191,
        "9968": 78,
        "9969": 28,
        "9970": 149,
        "9971": 227,
        "9972": 103,
        "9973": 145,
        "9974": 197,
        "9975": 237,
        "9976": 204,
        "9977": 220,
        "9978": 228,
        "9979": 230,
        "9980": 111,
        "9981": 201,
        "9982": 108,
        "9983": 171,
        "9984": 119,
        "9985": 212,
        "9986": 18,
        "9987": 208,
        "9988": 154,
        "9989": 106,
        "9990": 238,
        "9991": 161,
        "9992": 95,
        "9993": 12,
        "9994": 64,
        "9995": 207,
        "9996": 62,
        "9997": 235,
        "9998": 190,
        "9999": 191,
        "10000": 71,
        "10001": 239,
        "10002": 24,
        "10003": 92,
        "10004": 12,
        "10005": 155,
        "10006": 94,
        "10007": 61,
        "10008": 90,
        "10009": 172,
        "10010": 234,
        "10011": 49,
        "10012": 219,
        "10013": 3,
        "10014": 226,
        "10015": 124,
        "10016": 225,
        "10017": 19,
        "10018": 109,
        "10019": 128,
        "10020": 173,
        "10021": 12,
        "10022": 164,
        "10023": 212,
        "10024": 160,
        "10025": 72,
        "10026": 206,
        "10027": 11,
        "10028": 42,
        "10029": 73,
        "10030": 179,
        "10031": 157,
        "10032": 0,
        "10033": 241,
        "10034": 136,
        "10035": 188,
        "10036": 103,
        "10037": 93,
        "10038": 188,
        "10039": 9,
        "10040": 142,
        "10041": 18,
        "10042": 82,
        "10043": 204,
        "10044": 139,
        "10045": 85,
        "10046": 59,
        "10047": 162,
        "10048": 42,
        "10049": 23,
        "10050": 36,
        "10051": 14,
        "10052": 247,
        "10053": 145,
        "10054": 242,
        "10055": 131,
        "10056": 220,
        "10057": 193,
        "10058": 159,
        "10059": 197,
        "10060": 135,
        "10061": 37,
        "10062": 142,
        "10063": 208,
        "10064": 6,
        "10065": 62,
        "10066": 4,
        "10067": 203,
        "10068": 21,
        "10069": 103,
        "10070": 96,
        "10071": 245,
        "10072": 210,
        "10073": 88,
        "10074": 170,
        "10075": 213,
        "10076": 49,
        "10077": 205,
        "10078": 166,
        "10079": 81,
        "10080": 133,
        "10081": 115,
        "10082": 27,
        "10083": 249,
        "10084": 79,
        "10085": 216,
        "10086": 183,
        "10087": 102,
        "10088": 83,
        "10089": 247,
        "10090": 143,
        "10091": 89,
        "10092": 199,
        "10093": 197,
        "10094": 178,
        "10095": 172,
        "10096": 231,
        "10097": 24,
        "10098": 154,
        "10099": 73,
        "10100": 30,
        "10101": 139,
        "10102": 159,
        "10103": 121,
        "10104": 168,
        "10105": 229,
        "10106": 142,
        "10107": 235,
        "10108": 151,
        "10109": 78,
        "10110": 29,
        "10111": 164,
        "10112": 45,
        "10113": 117,
        "10114": 26,
        "10115": 105,
        "10116": 155,
        "10117": 220,
        "10118": 68,
        "10119": 112,
        "10120": 133,
        "10121": 9,
        "10122": 17,
        "10123": 223,
        "10124": 6,
        "10125": 152,
        "10126": 194,
        "10127": 35,
        "10128": 20,
        "10129": 2,
        "10130": 6,
        "10131": 127,
        "10132": 144,
        "10133": 48,
        "10134": 116,
        "10135": 110,
        "10136": 12,
        "10137": 222,
        "10138": 142,
        "10139": 223,
        "10140": 157,
        "10141": 234,
        "10142": 69,
        "10143": 10,
        "10144": 171,
        "10145": 159,
        "10146": 120,
        "10147": 187,
        "10148": 141,
        "10149": 164,
        "10150": 99,
        "10151": 124,
        "10152": 68,
        "10153": 109,
        "10154": 111,
        "10155": 152,
        "10156": 148,
        "10157": 136,
        "10158": 145,
        "10159": 58,
        "10160": 153,
        "10161": 43,
        "10162": 50,
        "10163": 111,
        "10164": 206,
        "10165": 125,
        "10166": 73,
        "10167": 255,
        "10168": 200,
        "10169": 139,
        "10170": 75,
        "10171": 17,
        "10172": 47,
        "10173": 106,
        "10174": 173,
        "10175": 151,
        "10176": 182,
        "10177": 240,
        "10178": 99,
        "10179": 158,
        "10180": 12,
        "10181": 110,
        "10182": 91,
        "10183": 8,
        "10184": 58,
        "10185": 216,
        "10186": 139,
        "10187": 234,
        "10188": 243,
        "10189": 121,
        "10190": 87,
        "10191": 200,
        "10192": 125,
        "10193": 103,
        "10194": 176,
        "10195": 139,
        "10196": 56,
        "10197": 136,
        "10198": 50,
        "10199": 129,
        "10200": 15,
        "10201": 224,
        "10202": 221,
        "10203": 1,
        "10204": 232,
        "10205": 146,
        "10206": 76,
        "10207": 175,
        "10208": 246,
        "10209": 78,
        "10210": 52,
        "10211": 68,
        "10212": 38,
        "10213": 113,
        "10214": 61,
        "10215": 109,
        "10216": 206,
        "10217": 22,
        "10218": 133,
        "10219": 132,
        "10220": 47,
        "10221": 111,
        "10222": 162,
        "10223": 6,
        "10224": 117,
        "10225": 121,
        "10226": 235,
        "10227": 159,
        "10228": 105,
        "10229": 63,
        "10230": 148,
        "10231": 37,
        "10232": 5,
        "10233": 183,
        "10234": 191,
        "10235": 64,
        "10236": 252,
        "10237": 195,
        "10238": 81,
        "10239": 159,
        "10240": 234,
        "10241": 111,
        "10242": 241,
        "10243": 53,
        "10244": 211,
        "10245": 13,
        "10246": 27,
        "10247": 234,
        "10248": 35,
        "10249": 93,
        "10250": 120,
        "10251": 6,
        "10252": 32,
        "10253": 248,
        "10254": 134,
        "10255": 170,
        "10256": 187,
        "10257": 34,
        "10258": 84,
        "10259": 196,
        "10260": 209,
        "10261": 144,
        "10262": 183,
        "10263": 44,
        "10264": 9,
        "10265": 108,
        "10266": 4,
        "10267": 231,
        "10268": 121,
        "10269": 78,
        "10270": 174,
        "10271": 151,
        "10272": 117,
        "10273": 146,
        "10274": 125,
        "10275": 75,
        "10276": 222,
        "10277": 74,
        "10278": 206,
        "10279": 199,
        "10280": 233,
        "10281": 242,
        "10282": 225,
        "10283": 220,
        "10284": 88,
        "10285": 136,
        "10286": 49,
        "10287": 73,
        "10288": 181,
        "10289": 34,
        "10290": 131,
        "10291": 83,
        "10292": 32,
        "10293": 251,
        "10294": 191,
        "10295": 215,
        "10296": 103,
        "10297": 241,
        "10298": 228,
        "10299": 87,
        "10300": 33,
        "10301": 100,
        "10302": 45,
        "10303": 250,
        "10304": 238,
        "10305": 143,
        "10306": 167,
        "10307": 157,
        "10308": 253,
        "10309": 28,
        "10310": 77,
        "10311": 87,
        "10312": 165,
        "10313": 94,
        "10314": 40,
        "10315": 182,
        "10316": 233,
        "10317": 125,
        "10318": 88,
        "10319": 8,
        "10320": 7,
        "10321": 105,
        "10322": 150,
        "10323": 3,
        "10324": 21,
        "10325": 145,
        "10326": 0,
        "10327": 71,
        "10328": 73,
        "10329": 171,
        "10330": 125,
        "10331": 216,
        "10332": 138,
        "10333": 57,
        "10334": 166,
        "10335": 154,
        "10336": 4,
        "10337": 80,
        "10338": 249,
        "10339": 116,
        "10340": 110,
        "10341": 250,
        "10342": 22,
        "10343": 154,
        "10344": 185,
        "10345": 131,
        "10346": 200,
        "10347": 141,
        "10348": 60,
        "10349": 102,
        "10350": 10,
        "10351": 244,
        "10352": 35,
        "10353": 75,
        "10354": 110,
        "10355": 83,
        "10356": 215,
        "10357": 183,
        "10358": 255,
        "10359": 95,
        "10360": 174,
        "10361": 158,
        "10362": 159,
        "10363": 251,
        "10364": 172,
        "10365": 250,
        "10366": 193,
        "10367": 252,
        "10368": 179,
        "10369": 222,
        "10370": 119,
        "10371": 211,
        "10372": 72,
        "10373": 146,
        "10374": 166,
        "10375": 32,
        "10376": 202,
        "10377": 82,
        "10378": 54,
        "10379": 227,
        "10380": 38,
        "10381": 164,
        "10382": 15,
        "10383": 138,
        "10384": 162,
        "10385": 162,
        "10386": 89,
        "10387": 130,
        "10388": 56,
        "10389": 21,
        "10390": 132,
        "10391": 208,
        "10392": 220,
        "10393": 241,
        "10394": 248,
        "10395": 0,
        "10396": 231,
        "10397": 32,
        "10398": 169,
        "10399": 195,
        "10400": 113,
        "10401": 191,
        "10402": 121,
        "10403": 171,
        "10404": 212,
        "10405": 92,
        "10406": 8,
        "10407": 10,
        "10408": 254,
        "10409": 190,
        "10410": 199,
        "10411": 99,
        "10412": 237,
        "10413": 62,
        "10414": 172,
        "10415": 221,
        "10416": 3,
        "10417": 81,
        "10418": 254,
        "10419": 120,
        "10420": 32,
        "10421": 5,
        "10422": 97,
        "10423": 118,
        "10424": 108,
        "10425": 26,
        "10426": 107,
        "10427": 113,
        "10428": 52,
        "10429": 242,
        "10430": 61,
        "10431": 12,
        "10432": 248,
        "10433": 42,
        "10434": 107,
        "10435": 110,
        "10436": 85,
        "10437": 29,
        "10438": 124,
        "10439": 147,
        "10440": 249,
        "10441": 172,
        "10442": 230,
        "10443": 142,
        "10444": 141,
        "10445": 194,
        "10446": 189,
        "10447": 68,
        "10448": 206,
        "10449": 163,
        "10450": 125,
        "10451": 89,
        "10452": 14,
        "10453": 98,
        "10454": 129,
        "10455": 182,
        "10456": 65,
        "10457": 131,
        "10458": 254,
        "10459": 52,
        "10460": 28,
        "10461": 119,
        "10462": 137,
        "10463": 14,
        "10464": 88,
        "10465": 63,
        "10466": 176,
        "10467": 42,
        "10468": 39,
        "10469": 85,
        "10470": 223,
        "10471": 51,
        "10472": 254,
        "10473": 67,
        "10474": 168,
        "10475": 1,
        "10476": 43,
        "10477": 186,
        "10478": 246,
        "10479": 161,
        "10480": 28,
        "10481": 239,
        "10482": 52,
        "10483": 73,
        "10484": 3,
        "10485": 52,
        "10486": 126,
        "10487": 220,
        "10488": 240,
        "10489": 36,
        "10490": 162,
        "10491": 18,
        "10492": 209,
        "10493": 101,
        "10494": 149,
        "10495": 180,
        "10496": 202,
        "10497": 139,
        "10498": 128,
        "10499": 128,
        "10500": 32,
        "10501": 72,
        "10502": 117,
        "10503": 206,
        "10504": 116,
        "10505": 137,
        "10506": 106,
        "10507": 246,
        "10508": 79,
        "10509": 202,
        "10510": 99,
        "10511": 41,
        "10512": 217,
        "10513": 47,
        "10514": 90,
        "10515": 174,
        "10516": 89,
        "10517": 37,
        "10518": 70,
        "10519": 61,
        "10520": 51,
        "10521": 241,
        "10522": 175,
        "10523": 93,
        "10524": 196,
        "10525": 239,
        "10526": 151,
        "10527": 165,
        "10528": 76,
        "10529": 102,
        "10530": 21,
        "10531": 239,
        "10532": 51,
        "10533": 117,
        "10534": 238,
        "10535": 156,
        "10536": 117,
        "10537": 173,
        "10538": 32,
        "10539": 30,
        "10540": 196,
        "10541": 4,
        "10542": 11,
        "10543": 118,
        "10544": 108,
        "10545": 75,
        "10546": 125,
        "10547": 161,
        "10548": 10,
        "10549": 7,
        "10550": 68,
        "10551": 198,
        "10552": 241,
        "10553": 184,
        "10554": 19,
        "10555": 93,
        "10556": 97,
        "10557": 63,
        "10558": 45,
        "10559": 53,
        "10560": 153,
        "10561": 194,
        "10562": 143,
        "10563": 40,
        "10564": 158,
        "10565": 88,
        "10566": 84,
        "10567": 159,
        "10568": 245,
        "10569": 35,
        "10570": 67,
        "10571": 36,
        "10572": 65,
        "10573": 33,
        "10574": 186,
        "10575": 127,
        "10576": 110,
        "10577": 187,
        "10578": 78,
        "10579": 148,
        "10580": 18,
        "10581": 221,
        "10582": 126,
        "10583": 213,
        "10584": 230,
        "10585": 116,
        "10586": 134,
        "10587": 108,
        "10588": 87,
        "10589": 197,
        "10590": 129,
        "10591": 29,
        "10592": 237,
        "10593": 36,
        "10594": 96,
        "10595": 104,
        "10596": 199,
        "10597": 5,
        "10598": 27,
        "10599": 36,
        "10600": 242,
        "10601": 70,
        "10602": 233,
        "10603": 161,
        "10604": 247,
        "10605": 248,
        "10606": 183,
        "10607": 208,
        "10608": 117,
        "10609": 205,
        "10610": 0,
        "10611": 204,
        "10612": 219,
        "10613": 13,
        "10614": 53,
        "10615": 118,
        "10616": 19,
        "10617": 199,
        "10618": 60,
        "10619": 223,
        "10620": 87,
        "10621": 161,
        "10622": 51,
        "10623": 229,
        "10624": 137,
        "10625": 172,
        "10626": 204,
        "10627": 201,
        "10628": 139,
        "10629": 141,
        "10630": 135,
        "10631": 255,
        "10632": 223,
        "10633": 144,
        "10634": 144,
        "10635": 163,
        "10636": 170,
        "10637": 136,
        "10638": 50,
        "10639": 233,
        "10640": 116,
        "10641": 135,
        "10642": 238,
        "10643": 95,
        "10644": 64,
        "10645": 8,
        "10646": 114,
        "10647": 15,
        "10648": 133,
        "10649": 94,
        "10650": 190,
        "10651": 24,
        "10652": 149,
        "10653": 11,
        "10654": 49,
        "10655": 211,
        "10656": 246,
        "10657": 196,
        "10658": 217,
        "10659": 191,
        "10660": 145,
        "10661": 99,
        "10662": 42,
        "10663": 15,
        "10664": 182,
        "10665": 248,
        "10666": 180,
        "10667": 182,
        "10668": 78,
        "10669": 231,
        "10670": 209,
        "10671": 204,
        "10672": 43,
        "10673": 76,
        "10674": 230,
        "10675": 127,
        "10676": 250,
        "10677": 52,
        "10678": 216,
        "10679": 242,
        "10680": 145,
        "10681": 209,
        "10682": 89,
        "10683": 76,
        "10684": 193,
        "10685": 178,
        "10686": 129,
        "10687": 252,
        "10688": 61,
        "10689": 4,
        "10690": 96,
        "10691": 69,
        "10692": 56,
        "10693": 208,
        "10694": 131,
        "10695": 11,
        "10696": 252,
        "10697": 247,
        "10698": 55,
        "10699": 20,
        "10700": 9,
        "10701": 21,
        "10702": 167,
        "10703": 86,
        "10704": 218,
        "10705": 9,
        "10706": 154,
        "10707": 29,
        "10708": 80,
        "10709": 152,
        "10710": 21,
        "10711": 216,
        "10712": 10,
        "10713": 241,
        "10714": 231,
        "10715": 231,
        "10716": 209,
        "10717": 30,
        "10718": 166,
        "10719": 88,
        "10720": 181,
        "10721": 96,
        "10722": 170,
        "10723": 12,
        "10724": 88,
        "10725": 206,
        "10726": 205,
        "10727": 28,
        "10728": 214,
        "10729": 26,
        "10730": 240,
        "10731": 14,
        "10732": 252,
        "10733": 6,
        "10734": 22,
        "10735": 178,
        "10736": 39,
        "10737": 238,
        "10738": 163,
        "10739": 25,
        "10740": 170,
        "10741": 82,
        "10742": 184,
        "10743": 175,
        "10744": 180,
        "10745": 74,
        "10746": 217,
        "10747": 54,
        "10748": 16,
        "10749": 178,
        "10750": 28,
        "10751": 109,
        "10752": 8,
        "10753": 241,
        "10754": 120,
        "10755": 215,
        "10756": 46,
        "10757": 243,
        "10758": 195,
        "10759": 96,
        "10760": 55,
        "10761": 207,
        "10762": 144,
        "10763": 54,
        "10764": 18,
        "10765": 26,
        "10766": 93,
        "10767": 245,
        "10768": 205,
        "10769": 93,
        "10770": 135,
        "10771": 233,
        "10772": 59,
        "10773": 52,
        "10774": 65,
        "10775": 40,
        "10776": 55,
        "10777": 79,
        "10778": 28,
        "10779": 228,
        "10780": 55,
        "10781": 164,
        "10782": 155,
        "10783": 129,
        "10784": 59,
        "10785": 227,
        "10786": 194,
        "10787": 66,
        "10788": 172,
        "10789": 86,
        "10790": 224,
        "10791": 91,
        "10792": 134,
        "10793": 205,
        "10794": 161,
        "10795": 234,
        "10796": 190,
        "10797": 44,
        "10798": 222,
        "10799": 24,
        "10800": 80,
        "10801": 156,
        "10802": 128,
        "10803": 162,
        "10804": 64,
        "10805": 207,
        "10806": 58,
        "10807": 218,
        "10808": 224,
        "10809": 119,
        "10810": 12,
        "10811": 130,
        "10812": 221,
        "10813": 198,
        "10814": 135,
        "10815": 37,
        "10816": 66,
        "10817": 118,
        "10818": 86,
        "10819": 92,
        "10820": 27,
        "10821": 126,
        "10822": 83,
        "10823": 70,
        "10824": 76,
        "10825": 125,
        "10826": 101,
        "10827": 32,
        "10828": 43,
        "10829": 53,
        "10830": 116,
        "10831": 88,
        "10832": 222,
        "10833": 223,
        "10834": 39,
        "10835": 243,
        "10836": 124,
        "10837": 134,
        "10838": 214,
        "10839": 85,
        "10840": 135,
        "10841": 108,
        "10842": 197,
        "10843": 46,
        "10844": 235,
        "10845": 251,
        "10846": 142,
        "10847": 28,
        "10848": 37,
        "10849": 17,
        "10850": 229,
        "10851": 2,
        "10852": 87,
        "10853": 192,
        "10854": 176,
        "10855": 41,
        "10856": 30,
        "10857": 47,
        "10858": 190,
        "10859": 202,
        "10860": 30,
        "10861": 151,
        "10862": 33,
        "10863": 132,
        "10864": 48,
        "10865": 248,
        "10866": 34,
        "10867": 163,
        "10868": 160,
        "10869": 147,
        "10870": 36,
        "10871": 38,
        "10872": 57,
        "10873": 98,
        "10874": 125,
        "10875": 33,
        "10876": 83,
        "10877": 102,
        "10878": 9,
        "10879": 68,
        "10880": 14,
        "10881": 111,
        "10882": 64,
        "10883": 96,
        "10884": 181,
        "10885": 155,
        "10886": 126,
        "10887": 12,
        "10888": 173,
        "10889": 45,
        "10890": 117,
        "10891": 34,
        "10892": 7,
        "10893": 50,
        "10894": 184,
        "10895": 25,
        "10896": 179,
        "10897": 44,
        "10898": 35,
        "10899": 38,
        "10900": 185,
        "10901": 105,
        "10902": 2,
        "10903": 212,
        "10904": 24,
        "10905": 196,
        "10906": 237,
        "10907": 237,
        "10908": 23,
        "10909": 228,
        "10910": 254,
        "10911": 93,
        "10912": 13,
        "10913": 153,
        "10914": 123,
        "10915": 198,
        "10916": 117,
        "10917": 63,
        "10918": 62,
        "10919": 240,
        "10920": 225,
        "10921": 230,
        "10922": 20,
        "10923": 185,
        "10924": 157,
        "10925": 62,
        "10926": 141,
        "10927": 234,
        "10928": 57,
        "10929": 45,
        "10930": 154,
        "10931": 152,
        "10932": 105,
        "10933": 200,
        "10934": 84,
        "10935": 7,
        "10936": 80,
        "10937": 194,
        "10938": 215,
        "10939": 77,
        "10940": 169,
        "10941": 30,
        "10942": 176,
        "10943": 115,
        "10944": 166,
        "10945": 26,
        "10946": 78,
        "10947": 92,
        "10948": 236,
        "10949": 52,
        "10950": 119,
        "10951": 140,
        "10952": 53,
        "10953": 107,
        "10954": 172,
        "10955": 168,
        "10956": 158,
        "10957": 170,
        "10958": 215,
        "10959": 38,
        "10960": 245,
        "10961": 212,
        "10962": 125,
        "10963": 164,
        "10964": 183,
        "10965": 70,
        "10966": 229,
        "10967": 142,
        "10968": 22,
        "10969": 26,
        "10970": 4,
        "10971": 75,
        "10972": 75,
        "10973": 231,
        "10974": 53,
        "10975": 253,
        "10976": 74,
        "10977": 84,
        "10978": 227,
        "10979": 84,
        "10980": 77,
        "10981": 162,
        "10982": 43,
        "10983": 119,
        "10984": 11,
        "10985": 141,
        "10986": 224,
        "10987": 16,
        "10988": 22,
        "10989": 243,
        "10990": 14,
        "10991": 126,
        "10992": 249,
        "10993": 254,
        "10994": 172,
        "10995": 133,
        "10996": 231,
        "10997": 238,
        "10998": 208,
        "10999": 223,
        "11000": 107,
        "11001": 202,
        "11002": 110,
        "11003": 109,
        "11004": 12,
        "11005": 220,
        "11006": 83,
        "11007": 248,
        "11008": 70,
        "11009": 119,
        "11010": 69,
        "11011": 48,
        "11012": 35,
        "11013": 247,
        "11014": 142,
        "11015": 239,
        "11016": 50,
        "11017": 23,
        "11018": 107,
        "11019": 191,
        "11020": 194,
        "11021": 250,
        "11022": 87,
        "11023": 65,
        "11024": 179,
        "11025": 180,
        "11026": 102,
        "11027": 19,
        "11028": 138,
        "11029": 73,
        "11030": 170,
        "11031": 227,
        "11032": 42,
        "11033": 123,
        "11034": 41,
        "11035": 52,
        "11036": 186,
        "11037": 7,
        "11038": 23,
        "11039": 224,
        "11040": 217,
        "11041": 56,
        "11042": 188,
        "11043": 21,
        "11044": 171,
        "11045": 116,
        "11046": 64,
        "11047": 1,
        "11048": 159,
        "11049": 173,
        "11050": 254,
        "11051": 143,
        "11052": 9,
        "11053": 42,
        "11054": 203,
        "11055": 165,
        "11056": 11,
        "11057": 74,
        "11058": 57,
        "11059": 183,
        "11060": 101,
        "11061": 154,
        "11062": 55,
        "11063": 100,
        "11064": 62,
        "11065": 75,
        "11066": 242,
        "11067": 217,
        "11068": 135,
        "11069": 201,
        "11070": 240,
        "11071": 140,
        "11072": 134,
        "11073": 211,
        "11074": 17,
        "11075": 247,
        "11076": 206,
        "11077": 87,
        "11078": 207,
        "11079": 1,
        "11080": 207,
        "11081": 102,
        "11082": 112,
        "11083": 26,
        "11084": 72,
        "11085": 21,
        "11086": 203,
        "11087": 207,
        "11088": 174,
        "11089": 208,
        "11090": 121,
        "11091": 38,
        "11092": 216,
        "11093": 228,
        "11094": 9,
        "11095": 60,
        "11096": 90,
        "11097": 97,
        "11098": 228,
        "11099": 197,
        "11100": 160,
        "11101": 189,
        "11102": 251,
        "11103": 238,
        "11104": 180,
        "11105": 133,
        "11106": 35,
        "11107": 170,
        "11108": 150,
        "11109": 14,
        "11110": 29,
        "11111": 137,
        "11112": 166,
        "11113": 4,
        "11114": 25,
        "11115": 142,
        "11116": 241,
        "11117": 14,
        "11118": 110,
        "11119": 185,
        "11120": 57,
        "11121": 99,
        "11122": 198,
        "11123": 161,
        "11124": 103,
        "11125": 14,
        "11126": 171,
        "11127": 55,
        "11128": 10,
        "11129": 71,
        "11130": 144,
        "11131": 18,
        "11132": 93,
        "11133": 53,
        "11134": 80,
        "11135": 255,
        "11136": 152,
        "11137": 244,
        "11138": 124,
        "11139": 27,
        "11140": 30,
        "11141": 215,
        "11142": 74,
        "11143": 15,
        "11144": 121,
        "11145": 81,
        "11146": 100,
        "11147": 165,
        "11148": 135,
        "11149": 254,
        "11150": 52,
        "11151": 122,
        "11152": 242,
        "11153": 158,
        "11154": 101,
        "11155": 57,
        "11156": 197,
        "11157": 227,
        "11158": 160,
        "11159": 22,
        "11160": 123,
        "11161": 146,
        "11162": 216,
        "11163": 174,
        "11164": 201,
        "11165": 228,
        "11166": 49,
        "11167": 27,
        "11168": 228,
        "11169": 19,
        "11170": 175,
        "11171": 65,
        "11172": 151,
        "11173": 204,
        "11174": 53,
        "11175": 93,
        "11176": 241,
        "11177": 100,
        "11178": 242,
        "11179": 0,
        "11180": 34,
        "11181": 56,
        "11182": 221,
        "11183": 185,
        "11184": 85,
        "11185": 160,
        "11186": 217,
        "11187": 43,
        "11188": 242,
        "11189": 188,
        "11190": 133,
        "11191": 95,
        "11192": 114,
        "11193": 90,
        "11194": 39,
        "11195": 70,
        "11196": 48,
        "11197": 6,
        "11198": 85,
        "11199": 230,
        "11200": 3,
        "11201": 26,
        "11202": 53,
        "11203": 220,
        "11204": 179,
        "11205": 49,
        "11206": 243,
        "11207": 127,
        "11208": 10,
        "11209": 16,
        "11210": 148,
        "11211": 230,
        "11212": 215,
        "11213": 185,
        "11214": 0,
        "11215": 220,
        "11216": 138,
        "11217": 122,
        "11218": 40,
        "11219": 232,
        "11220": 159,
        "11221": 13,
        "11222": 230,
        "11223": 227,
        "11224": 100,
        "11225": 198,
        "11226": 170,
        "11227": 232,
        "11228": 247,
        "11229": 198,
        "11230": 218,
        "11231": 227,
        "11232": 17,
        "11233": 171,
        "11234": 73,
        "11235": 1,
        "11236": 172,
        "11237": 73,
        "11238": 105,
        "11239": 67,
        "11240": 32,
        "11241": 76,
        "11242": 77,
        "11243": 245,
        "11244": 34,
        "11245": 182,
        "11246": 65,
        "11247": 129,
        "11248": 122,
        "11249": 124,
        "11250": 144,
        "11251": 224,
        "11252": 4,
        "11253": 164,
        "11254": 63,
        "11255": 160,
        "11256": 178,
        "11257": 198,
        "11258": 47,
        "11259": 109,
        "11260": 154,
        "11261": 58,
        "11262": 27,
        "11263": 46,
        "11264": 155,
        "11265": 67,
        "11266": 232,
        "11267": 165,
        "11268": 236,
        "11269": 145,
        "11270": 94,
        "11271": 88,
        "11272": 141,
        "11273": 8,
        "11274": 212,
        "11275": 28,
        "11276": 242,
        "11277": 160,
        "11278": 218,
        "11279": 170,
        "11280": 240,
        "11281": 153,
        "11282": 34,
        "11283": 144,
        "11284": 143,
        "11285": 90,
        "11286": 112,
        "11287": 242,
        "11288": 111,
        "11289": 181,
        "11290": 169,
        "11291": 60,
        "11292": 213,
        "11293": 92,
        "11294": 213,
        "11295": 18,
        "11296": 32,
        "11297": 29,
        "11298": 15,
        "11299": 247,
        "11300": 44,
        "11301": 160,
        "11302": 25,
        "11303": 62,
        "11304": 249,
        "11305": 144,
        "11306": 214,
        "11307": 242,
        "11308": 10,
        "11309": 13,
        "11310": 252,
        "11311": 210,
        "11312": 250,
        "11313": 1,
        "11314": 252,
        "11315": 128,
        "11316": 95,
        "11317": 65,
        "11318": 91,
        "11319": 208,
        "11320": 198,
        "11321": 224,
        "11322": 54,
        "11323": 158,
        "11324": 194,
        "11325": 158,
        "11326": 15,
        "11327": 64,
        "11328": 105,
        "11329": 8,
        "11330": 250,
        "11331": 84,
        "11332": 83,
        "11333": 219,
        "11334": 0,
        "11335": 243,
        "11336": 132,
        "11337": 121,
        "11338": 14,
        "11339": 10,
        "11340": 222,
        "11341": 135,
        "11342": 192,
        "11343": 112,
        "11344": 171,
        "11345": 169,
        "11346": 221,
        "11347": 24,
        "11348": 221,
        "11349": 243,
        "11350": 135,
        "11351": 51,
        "11352": 0,
        "11353": 17,
        "11354": 86,
        "11355": 2,
        "11356": 77,
        "11357": 171,
        "11358": 6,
        "11359": 69,
        "11360": 144,
        "11361": 163,
        "11362": 33,
        "11363": 240,
        "11364": 170,
        "11365": 209,
        "11366": 184,
        "11367": 194,
        "11368": 244,
        "11369": 220,
        "11370": 99,
        "11371": 207,
        "11372": 174,
        "11373": 77,
        "11374": 233,
        "11375": 55,
        "11376": 134,
        "11377": 29,
        "11378": 90,
        "11379": 140,
        "11380": 73,
        "11381": 26,
        "11382": 237,
        "11383": 107,
        "11384": 19,
        "11385": 73,
        "11386": 127,
        "11387": 9,
        "11388": 239,
        "11389": 8,
        "11390": 153,
        "11391": 209,
        "11392": 135,
        "11393": 37,
        "11394": 44,
        "11395": 142,
        "11396": 149,
        "11397": 58,
        "11398": 179,
        "11399": 47,
        "11400": 59,
        "11401": 145,
        "11402": 163,
        "11403": 182,
        "11404": 6,
        "11405": 173,
        "11406": 163,
        "11407": 239,
        "11408": 60,
        "11409": 255,
        "11410": 157,
        "11411": 133,
        "11412": 223,
        "11413": 251,
        "11414": 161,
        "11415": 78,
        "11416": 100,
        "11417": 223,
        "11418": 154,
        "11419": 64,
        "11420": 171,
        "11421": 105,
        "11422": 130,
        "11423": 63,
        "11424": 159,
        "11425": 210,
        "11426": 249,
        "11427": 80,
        "11428": 101,
        "11429": 24,
        "11430": 149,
        "11431": 85,
        "11432": 105,
        "11433": 241,
        "11434": 62,
        "11435": 150,
        "11436": 210,
        "11437": 235,
        "11438": 220,
        "11439": 154,
        "11440": 2,
        "11441": 152,
        "11442": 21,
        "11443": 11,
        "11444": 159,
        "11445": 19,
        "11446": 230,
        "11447": 217,
        "11448": 193,
        "11449": 148,
        "11450": 93,
        "11451": 251,
        "11452": 39,
        "11453": 223,
        "11454": 16,
        "11455": 178,
        "11456": 6,
        "11457": 126,
        "11458": 47,
        "11459": 210,
        "11460": 155,
        "11461": 117,
        "11462": 17,
        "11463": 96,
        "11464": 12,
        "11465": 143,
        "11466": 52,
        "11467": 145,
        "11468": 141,
        "11469": 133,
        "11470": 89,
        "11471": 123,
        "11472": 16,
        "11473": 182,
        "11474": 76,
        "11475": 32,
        "11476": 141,
        "11477": 205,
        "11478": 183,
        "11479": 112,
        "11480": 161,
        "11481": 214,
        "11482": 118,
        "11483": 233,
        "11484": 205,
        "11485": 95,
        "11486": 137,
        "11487": 7,
        "11488": 154,
        "11489": 179,
        "11490": 174,
        "11491": 156,
        "11492": 192,
        "11493": 64,
        "11494": 60,
        "11495": 241,
        "11496": 190,
        "11497": 26,
        "11498": 202,
        "11499": 47,
        "11500": 232,
        "11501": 79,
        "11502": 21,
        "11503": 218,
        "11504": 8,
        "11505": 10,
        "11506": 69,
        "11507": 222,
        "11508": 77,
        "11509": 155,
        "11510": 79,
        "11511": 173,
        "11512": 147,
        "11513": 158,
        "11514": 238,
        "11515": 148,
        "11516": 172,
        "11517": 229,
        "11518": 196,
        "11519": 105,
        "11520": 216,
        "11521": 164,
        "11522": 33,
        "11523": 250,
        "11524": 183,
        "11525": 211,
        "11526": 42,
        "11527": 9,
        "11528": 0,
        "11529": 83,
        "11530": 54,
        "11531": 116,
        "11532": 145,
        "11533": 108,
        "11534": 124,
        "11535": 11,
        "11536": 76,
        "11537": 233,
        "11538": 22,
        "11539": 131,
        "11540": 222,
        "11541": 124,
        "11542": 134,
        "11543": 231,
        "11544": 152,
        "11545": 191,
        "11546": 114,
        "11547": 187,
        "11548": 35,
        "11549": 49,
        "11550": 250,
        "11551": 89,
        "11552": 241,
        "11553": 205,
        "11554": 50,
        "11555": 144,
        "11556": 101,
        "11557": 182,
        "11558": 85,
        "11559": 209,
        "11560": 171,
        "11561": 55,
        "11562": 173,
        "11563": 77,
        "11564": 71,
        "11565": 55,
        "11566": 72,
        "11567": 31,
        "11568": 7,
        "11569": 135,
        "11570": 114,
        "11571": 163,
        "11572": 4,
        "11573": 108,
        "11574": 81,
        "11575": 153,
        "11576": 221,
        "11577": 14,
        "11578": 146,
        "11579": 222,
        "11580": 144,
        "11581": 136,
        "11582": 253,
        "11583": 235,
        "11584": 72,
        "11585": 60,
        "11586": 254,
        "11587": 217,
        "11588": 58,
        "11589": 166,
        "11590": 122,
        "11591": 171,
        "11592": 29,
        "11593": 204,
        "11594": 237,
        "11595": 110,
        "11596": 66,
        "11597": 121,
        "11598": 140,
        "11599": 199,
        "11600": 252,
        "11601": 106,
        "11602": 69,
        "11603": 97,
        "11604": 133,
        "11605": 12,
        "11606": 87,
        "11607": 254,
        "11608": 196,
        "11609": 250,
        "11610": 154,
        "11611": 87,
        "11612": 148,
        "11613": 208,
        "11614": 184,
        "11615": 42,
        "11616": 71,
        "11617": 200,
        "11618": 14,
        "11619": 172,
        "11620": 168,
        "11621": 103,
        "11622": 168,
        "11623": 22,
        "11624": 120,
        "11625": 203,
        "11626": 154,
        "11627": 170,
        "11628": 18,
        "11629": 160,
        "11630": 63,
        "11631": 244,
        "11632": 149,
        "11633": 220,
        "11634": 180,
        "11635": 32,
        "11636": 72,
        "11637": 175,
        "11638": 202,
        "11639": 13,
        "11640": 185,
        "11641": 229,
        "11642": 106,
        "11643": 169,
        "11644": 97,
        "11645": 247,
        "11646": 71,
        "11647": 91,
        "11648": 94,
        "11649": 230,
        "11650": 83,
        "11651": 89,
        "11652": 96,
        "11653": 9,
        "11654": 179,
        "11655": 50,
        "11656": 103,
        "11657": 226,
        "11658": 176,
        "11659": 135,
        "11660": 54,
        "11661": 168,
        "11662": 227,
        "11663": 231,
        "11664": 127,
        "11665": 43,
        "11666": 134,
        "11667": 52,
        "11668": 28,
        "11669": 120,
        "11670": 82,
        "11671": 244,
        "11672": 50,
        "11673": 72,
        "11674": 216,
        "11675": 219,
        "11676": 51,
        "11677": 221,
        "11678": 158,
        "11679": 123,
        "11680": 212,
        "11681": 63,
        "11682": 103,
        "11683": 71,
        "11684": 162,
        "11685": 239,
        "11686": 43,
        "11687": 215,
        "11688": 29,
        "11689": 85,
        "11690": 246,
        "11691": 229,
        "11692": 165,
        "11693": 17,
        "11694": 70,
        "11695": 179,
        "11696": 100,
        "11697": 33,
        "11698": 250,
        "11699": 154,
        "11700": 179,
        "11701": 225,
        "11702": 95,
        "11703": 73,
        "11704": 204,
        "11705": 104,
        "11706": 66,
        "11707": 28,
        "11708": 51,
        "11709": 144,
        "11710": 129,
        "11711": 103,
        "11712": 102,
        "11713": 168,
        "11714": 76,
        "11715": 190,
        "11716": 251,
        "11717": 171,
        "11718": 143,
        "11719": 85,
        "11720": 206,
        "11721": 159,
        "11722": 132,
        "11723": 49,
        "11724": 172,
        "11725": 37,
        "11726": 107,
        "11727": 202,
        "11728": 243,
        "11729": 107,
        "11730": 0,
        "11731": 39,
        "11732": 116,
        "11733": 18,
        "11734": 41,
        "11735": 114,
        "11736": 171,
        "11737": 232,
        "11738": 194,
        "11739": 107,
        "11740": 84,
        "11741": 115,
        "11742": 203,
        "11743": 145,
        "11744": 41,
        "11745": 233,
        "11746": 128,
        "11747": 206,
        "11748": 223,
        "11749": 84,
        "11750": 225,
        "11751": 239,
        "11752": 251,
        "11753": 88,
        "11754": 249,
        "11755": 110,
        "11756": 130,
        "11757": 120,
        "11758": 53,
        "11759": 132,
        "11760": 84,
        "11761": 174,
        "11762": 2,
        "11763": 65,
        "11764": 203,
        "11765": 95,
        "11766": 93,
        "11767": 18,
        "11768": 32,
        "11769": 206,
        "11770": 121,
        "11771": 184,
        "11772": 6,
        "11773": 82,
        "11774": 204,
        "11775": 83,
        "11776": 193,
        "11777": 198,
        "11778": 29,
        "11779": 71,
        "11780": 139,
        "11781": 36,
        "11782": 178,
        "11783": 164,
        "11784": 106,
        "11785": 15,
        "11786": 41,
        "11787": 208,
        "11788": 221,
        "11789": 37,
        "11790": 157,
        "11791": 2,
        "11792": 84,
        "11793": 47,
        "11794": 243,
        "11795": 154,
        "11796": 12,
        "11797": 65,
        "11798": 49,
        "11799": 145,
        "11800": 57,
        "11801": 174,
        "11802": 112,
        "11803": 196,
        "11804": 220,
        "11805": 142,
        "11806": 166,
        "11807": 71,
        "11808": 192,
        "11809": 32,
        "11810": 107,
        "11811": 236,
        "11812": 171,
        "11813": 214,
        "11814": 57,
        "11815": 152,
        "11816": 96,
        "11817": 46,
        "11818": 77,
        "11819": 205,
        "11820": 218,
        "11821": 215,
        "11822": 198,
        "11823": 219,
        "11824": 73,
        "11825": 184,
        "11826": 223,
        "11827": 245,
        "11828": 218,
        "11829": 18,
        "11830": 157,
        "11831": 232,
        "11832": 7,
        "11833": 167,
        "11834": 75,
        "11835": 164,
        "11836": 125,
        "11837": 121,
        "11838": 247,
        "11839": 197,
        "11840": 181,
        "11841": 10,
        "11842": 13,
        "11843": 12,
        "11844": 51,
        "11845": 195,
        "11846": 186,
        "11847": 88,
        "11848": 101,
        "11849": 205,
        "11850": 187,
        "11851": 119,
        "11852": 9,
        "11853": 121,
        "11854": 4,
        "11855": 37,
        "11856": 10,
        "11857": 175,
        "11858": 101,
        "11859": 145,
        "11860": 151,
        "11861": 220,
        "11862": 28,
        "11863": 0,
        "11864": 228,
        "11865": 66,
        "11866": 206,
        "11867": 182,
        "11868": 20,
        "11869": 228,
        "11870": 132,
        "11871": 119,
        "11872": 150,
        "11873": 82,
        "11874": 248,
        "11875": 51,
        "11876": 229,
        "11877": 246,
        "11878": 32,
        "11879": 168,
        "11880": 7,
        "11881": 72,
        "11882": 95,
        "11883": 97,
        "11884": 143,
        "11885": 37,
        "11886": 147,
        "11887": 144,
        "11888": 45,
        "11889": 193,
        "11890": 10,
        "11891": 31,
        "11892": 41,
        "11893": 24,
        "11894": 7,
        "11895": 168,
        "11896": 244,
        "11897": 56,
        "11898": 226,
        "11899": 15,
        "11900": 204,
        "11901": 85,
        "11902": 57,
        "11903": 79,
        "11904": 142,
        "11905": 202,
        "11906": 220,
        "11907": 46,
        "11908": 11,
        "11909": 73,
        "11910": 98,
        "11911": 87,
        "11912": 67,
        "11913": 153,
        "11914": 85,
        "11915": 108,
        "11916": 187,
        "11917": 214,
        "11918": 179,
        "11919": 195,
        "11920": 221,
        "11921": 249,
        "11922": 239,
        "11923": 15,
        "11924": 168,
        "11925": 222,
        "11926": 169,
        "11927": 32,
        "11928": 77,
        "11929": 119,
        "11930": 155,
        "11931": 120,
        "11932": 8,
        "11933": 238,
        "11934": 65,
        "11935": 230,
        "11936": 111,
        "11937": 109,
        "11938": 87,
        "11939": 121,
        "11940": 145,
        "11941": 73,
        "11942": 125,
        "11943": 157,
        "11944": 90,
        "11945": 222,
        "11946": 37,
        "11947": 217,
        "11948": 191,
        "11949": 200,
        "11950": 90,
        "11951": 36,
        "11952": 17,
        "11953": 116,
        "11954": 123,
        "11955": 64,
        "11956": 203,
        "11957": 147,
        "11958": 90,
        "11959": 54,
        "11960": 126,
        "11961": 161,
        "11962": 155,
        "11963": 98,
        "11964": 105,
        "11965": 65,
        "11966": 250,
        "11967": 237,
        "11968": 108,
        "11969": 170,
        "11970": 36,
        "11971": 109,
        "11972": 204,
        "11973": 229,
        "11974": 253,
        "11975": 8,
        "11976": 21,
        "11977": 205,
        "11978": 173,
        "11979": 101,
        "11980": 136,
        "11981": 172,
        "11982": 65,
        "11983": 232,
        "11984": 110,
        "11985": 165,
        "11986": 246,
        "11987": 60,
        "11988": 99,
        "11989": 177,
        "11990": 243,
        "11991": 83,
        "11992": 42,
        "11993": 145,
        "11994": 139,
        "11995": 49,
        "11996": 188,
        "11997": 214,
        "11998": 238,
        "11999": 192,
        "12000": 23,
        "12001": 43,
        "12002": 98,
        "12003": 115,
        "12004": 105,
        "12005": 225,
        "12006": 35,
        "12007": 99,
        "12008": 39,
        "12009": 84,
        "12010": 225,
        "12011": 251,
        "12012": 34,
        "12013": 21,
        "12014": 49,
        "12015": 225,
        "12016": 57,
        "12017": 69,
        "12018": 80,
        "12019": 166,
        "12020": 15,
        "12021": 134,
        "12022": 93,
        "12023": 38,
        "12024": 20,
        "12025": 134,
        "12026": 42,
        "12027": 104,
        "12028": 50,
        "12029": 113,
        "12030": 46,
        "12031": 110,
        "12032": 68,
        "12033": 232,
        "12034": 57,
        "12035": 24,
        "12036": 139,
        "12037": 6,
        "12038": 233,
        "12039": 138,
        "12040": 236,
        "12041": 58,
        "12042": 214,
        "12043": 127,
        "12044": 136,
        "12045": 200,
        "12046": 247,
        "12047": 10,
        "12048": 204,
        "12049": 74,
        "12050": 132,
        "12051": 5,
        "12052": 101,
        "12053": 145,
        "12054": 235,
        "12055": 73,
        "12056": 62,
        "12057": 98,
        "12058": 181,
        "12059": 221,
        "12060": 180,
        "12061": 143,
        "12062": 48,
        "12063": 230,
        "12064": 230,
        "12065": 247,
        "12066": 97,
        "12067": 51,
        "12068": 22,
        "12069": 118,
        "12070": 201,
        "12071": 203,
        "12072": 170,
        "12073": 246,
        "12074": 182,
        "12075": 177,
        "12076": 141,
        "12077": 222,
        "12078": 15,
        "12079": 132,
        "12080": 41,
        "12081": 227,
        "12082": 208,
        "12083": 138,
        "12084": 38,
        "12085": 99,
        "12086": 235,
        "12087": 199,
        "12088": 239,
        "12089": 164,
        "12090": 99,
        "12091": 67,
        "12092": 219,
        "12093": 230,
        "12094": 55,
        "12095": 148,
        "12096": 160,
        "12097": 236,
        "12098": 81,
        "12099": 83,
        "12100": 44,
        "12101": 146,
        "12102": 54,
        "12103": 11,
        "12104": 116,
        "12105": 212,
        "12106": 59,
        "12107": 148,
        "12108": 42,
        "12109": 129,
        "12110": 154,
        "12111": 191,
        "12112": 43,
        "12113": 77,
        "12114": 26,
        "12115": 153,
        "12116": 129,
        "12117": 245,
        "12118": 22,
        "12119": 60,
        "12120": 244,
        "12121": 123,
        "12122": 75,
        "12123": 142,
        "12124": 84,
        "12125": 1,
        "12126": 187,
        "12127": 140,
        "12128": 170,
        "12129": 246,
        "12130": 197,
        "12131": 62,
        "12132": 17,
        "12133": 109,
        "12134": 235,
        "12135": 109,
        "12136": 55,
        "12137": 192,
        "12138": 95,
        "12139": 56,
        "12140": 236,
        "12141": 65,
        "12142": 224,
        "12143": 245,
        "12144": 82,
        "12145": 68,
        "12146": 227,
        "12147": 186,
        "12148": 248,
        "12149": 235,
        "12150": 214,
        "12151": 51,
        "12152": 88,
        "12153": 87,
        "12154": 69,
        "12155": 160,
        "12156": 9,
        "12157": 80,
        "12158": 91,
        "12159": 91,
        "12160": 30,
        "12161": 188,
        "12162": 14,
        "12163": 57,
        "12164": 243,
        "12165": 206,
        "12166": 24,
        "12167": 206,
        "12168": 229,
        "12169": 32,
        "12170": 13,
        "12171": 75,
        "12172": 198,
        "12173": 18,
        "12174": 220,
        "12175": 159,
        "12176": 50,
        "12177": 151,
        "12178": 83,
        "12179": 62,
        "12180": 73,
        "12181": 28,
        "12182": 223,
        "12183": 144,
        "12184": 238,
        "12185": 15,
        "12186": 134,
        "12187": 64,
        "12188": 208,
        "12189": 71,
        "12190": 90,
        "12191": 112,
        "12192": 254,
        "12193": 159,
        "12194": 207,
        "12195": 172,
        "12196": 23,
        "12197": 130,
        "12198": 121,
        "12199": 155,
        "12200": 139,
        "12201": 251,
        "12202": 176,
        "12203": 118,
        "12204": 112,
        "12205": 59,
        "12206": 95,
        "12207": 106,
        "12208": 58,
        "12209": 50,
        "12210": 47,
        "12211": 13,
        "12212": 76,
        "12213": 217,
        "12214": 14,
        "12215": 48,
        "12216": 123,
        "12217": 143,
        "12218": 207,
        "12219": 157,
        "12220": 34,
        "12221": 126,
        "12222": 238,
        "12223": 120,
        "12224": 42,
        "12225": 141,
        "12226": 199,
        "12227": 18,
        "12228": 41,
        "12229": 238,
        "12230": 72,
        "12231": 231,
        "12232": 183,
        "12233": 72,
        "12234": 216,
        "12235": 166,
        "12236": 191,
        "12237": 0,
        "12238": 255,
        "12239": 127,
        "12240": 230,
        "12241": 162,
        "12242": 114,
        "12243": 218,
        "12244": 28,
        "12245": 201,
        "12246": 13,
        "12247": 251,
        "12248": 87,
        "12249": 14,
        "12250": 140,
        "12251": 130,
        "12252": 75,
        "12253": 81,
        "12254": 46,
        "12255": 167,
        "12256": 20,
        "12257": 233,
        "12258": 154,
        "12259": 175,
        "12260": 41,
        "12261": 47,
        "12262": 50,
        "12263": 14,
        "12264": 25,
        "12265": 217,
        "12266": 240,
        "12267": 113,
        "12268": 249,
        "12269": 251,
        "12270": 205,
        "12271": 86,
        "12272": 32,
        "12273": 109,
        "12274": 141,
        "12275": 25,
        "12276": 181,
        "12277": 129,
        "12278": 116,
        "12279": 176,
        "12280": 196,
        "12281": 173,
        "12282": 1,
        "12283": 0,
        "12284": 75,
        "12285": 142,
        "12286": 119,
        "12287": 137,
        "12288": 203,
        "12289": 58,
        "12290": 31,
        "12291": 55,
        "12292": 8,
        "12293": 144,
        "12294": 126,
        "12295": 73,
        "12296": 108,
        "12297": 120,
        "12298": 241,
        "12299": 247,
        "12300": 239,
        "12301": 222,
        "12302": 71,
        "12303": 103,
        "12304": 156,
        "12305": 238,
        "12306": 77,
        "12307": 151,
        "12308": 219,
        "12309": 235,
        "12310": 3,
        "12311": 229,
        "12312": 21,
        "12313": 166,
        "12314": 196,
        "12315": 253,
        "12316": 84,
        "12317": 229,
        "12318": 36,
        "12319": 104,
        "12320": 53,
        "12321": 56,
        "12322": 61,
        "12323": 52,
        "12324": 135,
        "12325": 169,
        "12326": 124,
        "12327": 107,
        "12328": 43,
        "12329": 220,
        "12330": 30,
        "12331": 234,
        "12332": 9,
        "12333": 69,
        "12334": 167,
        "12335": 222,
        "12336": 233,
        "12337": 153,
        "12338": 228,
        "12339": 208,
        "12340": 149,
        "12341": 209,
        "12342": 59,
        "12343": 111,
        "12344": 189,
        "12345": 13,
        "12346": 149,
        "12347": 64,
        "12348": 228,
        "12349": 79,
        "12350": 15,
        "12351": 217,
        "12352": 132,
        "12353": 244,
        "12354": 38,
        "12355": 54,
        "12356": 67,
        "12357": 57,
        "12358": 206,
        "12359": 170,
        "12360": 76,
        "12361": 60,
        "12362": 241,
        "12363": 202,
        "12364": 97,
        "12365": 20,
        "12366": 30,
        "12367": 59,
        "12368": 210,
        "12369": 252,
        "12370": 44,
        "12371": 36,
        "12372": 65,
        "12373": 192,
        "12374": 221,
        "12375": 187,
        "12376": 173,
        "12377": 203,
        "12378": 165,
        "12379": 105,
        "12380": 63,
        "12381": 22,
        "12382": 84,
        "12383": 215,
        "12384": 68,
        "12385": 192,
        "12386": 162,
        "12387": 162,
        "12388": 148,
        "12389": 178,
        "12390": 189,
        "12391": 93,
        "12392": 66,
        "12393": 137,
        "12394": 108,
        "12395": 166,
        "12396": 130,
        "12397": 157,
        "12398": 65,
        "12399": 106,
        "12400": 46,
        "12401": 134,
        "12402": 85,
        "12403": 80,
        "12404": 103,
        "12405": 106,
        "12406": 145,
        "12407": 115,
        "12408": 105,
        "12409": 59,
        "12410": 218,
        "12411": 239,
        "12412": 164,
        "12413": 10,
        "12414": 148,
        "12415": 141,
        "12416": 50,
        "12417": 82,
        "12418": 92,
        "12419": 68,
        "12420": 200,
        "12421": 93,
        "12422": 195,
        "12423": 200,
        "12424": 186,
        "12425": 212,
        "12426": 238,
        "12427": 254,
        "12428": 187,
        "12429": 193,
        "12430": 225,
        "12431": 9,
        "12432": 70,
        "12433": 122,
        "12434": 112,
        "12435": 243,
        "12436": 140,
        "12437": 223,
        "12438": 241,
        "12439": 82,
        "12440": 98,
        "12441": 198,
        "12442": 121,
        "12443": 156,
        "12444": 173,
        "12445": 157,
        "12446": 181,
        "12447": 175,
        "12448": 23,
        "12449": 151,
        "12450": 45,
        "12451": 221,
        "12452": 111,
        "12453": 93,
        "12454": 49,
        "12455": 180,
        "12456": 208,
        "12457": 0,
        "12458": 227,
        "12459": 173,
        "12460": 67,
        "12461": 231,
        "12462": 143,
        "12463": 233,
        "12464": 207,
        "12465": 75,
        "12466": 231,
        "12467": 153,
        "12468": 222,
        "12469": 242,
        "12470": 79,
        "12471": 242,
        "12472": 199,
        "12473": 222,
        "12474": 137,
        "12475": 86,
        "12476": 184,
        "12477": 146,
        "12478": 63,
        "12479": 55,
        "12480": 222,
        "12481": 250,
        "12482": 218,
        "12483": 85,
        "12484": 127,
        "12485": 49,
        "12486": 109,
        "12487": 136,
        "12488": 238,
        "12489": 71,
        "12490": 213,
        "12491": 168,
        "12492": 129,
        "12493": 128,
        "12494": 233,
        "12495": 149,
        "12496": 33,
        "12497": 132,
        "12498": 126,
        "12499": 10,
        "12500": 104,
        "12501": 130,
        "12502": 91,
        "12503": 205,
        "12504": 142,
        "12505": 83,
        "12506": 24,
        "12507": 168,
        "12508": 150,
        "12509": 76,
        "12510": 31,
        "12511": 55,
        "12512": 16,
        "12513": 30,
        "12514": 19,
        "12515": 117,
        "12516": 248,
        "12517": 140,
        "12518": 20,
        "12519": 187,
        "12520": 179,
        "12521": 114,
        "12522": 194,
        "12523": 115,
        "12524": 104,
        "12525": 224,
        "12526": 113,
        "12527": 9,
        "12528": 181,
        "12529": 105,
        "12530": 124,
        "12531": 154,
        "12532": 18,
        "12533": 30,
        "12534": 191,
        "12535": 197,
        "12536": 253,
        "12537": 211,
        "12538": 45,
        "12539": 212,
        "12540": 151,
        "12541": 81,
        "12542": 218,
        "12543": 57,
        "12544": 66,
        "12545": 103,
        "12546": 174,
        "12547": 94,
        "12548": 184,
        "12549": 30,
        "12550": 224,
        "12551": 228,
        "12552": 95,
        "12553": 13,
        "12554": 114,
        "12555": 63,
        "12556": 141,
        "12557": 42,
        "12558": 158,
        "12559": 220,
        "12560": 133,
        "12561": 122,
        "12562": 163,
        "12563": 129,
        "12564": 21,
        "12565": 27,
        "12566": 76,
        "12567": 128,
        "12568": 222,
        "12569": 83,
        "12570": 197,
        "12571": 147,
        "12572": 168,
        "12573": 14,
        "12574": 155,
        "12575": 84,
        "12576": 183,
        "12577": 128,
        "12578": 69,
        "12579": 154,
        "12580": 86,
        "12581": 155,
        "12582": 164,
        "12583": 105,
        "12584": 94,
        "12585": 85,
        "12586": 200,
        "12587": 32,
        "12588": 11,
        "12589": 106,
        "12590": 137,
        "12591": 184,
        "12592": 138,
        "12593": 159,
        "12594": 4,
        "12595": 116,
        "12596": 220,
        "12597": 212,
        "12598": 175,
        "12599": 30,
        "12600": 207,
        "12601": 229,
        "12602": 122,
        "12603": 164,
        "12604": 229,
        "12605": 13,
        "12606": 168,
        "12607": 138,
        "12608": 254,
        "12609": 163,
        "12610": 50,
        "12611": 222,
        "12612": 39,
        "12613": 187,
        "12614": 190,
        "12615": 72,
        "12616": 115,
        "12617": 234,
        "12618": 24,
        "12619": 51,
        "12620": 235,
        "12621": 172,
        "12622": 170,
        "12623": 228,
        "12624": 88,
        "12625": 136,
        "12626": 213,
        "12627": 37,
        "12628": 19,
        "12629": 15,
        "12630": 103,
        "12631": 37,
        "12632": 156,
        "12633": 202,
        "12634": 231,
        "12635": 52,
        "12636": 151,
        "12637": 246,
        "12638": 244,
        "12639": 243,
        "12640": 122,
        "12641": 110,
        "12642": 138,
        "12643": 45,
        "12644": 3,
        "12645": 72,
        "12646": 66,
        "12647": 118,
        "12648": 188,
        "12649": 176,
        "12650": 56,
        "12651": 53,
        "12652": 151,
        "12653": 108,
        "12654": 169,
        "12655": 192,
        "12656": 231,
        "12657": 154,
        "12658": 93,
        "12659": 239,
        "12660": 44,
        "12661": 30,
        "12662": 23,
        "12663": 161,
        "12664": 98,
        "12665": 90,
        "12666": 25,
        "12667": 181,
        "12668": 102,
        "12669": 183,
        "12670": 120,
        "12671": 83,
        "12672": 42,
        "12673": 195,
        "12674": 105,
        "12675": 230,
        "12676": 237,
        "12677": 114,
        "12678": 129,
        "12679": 157,
        "12680": 110,
        "12681": 13,
        "12682": 216,
        "12683": 227,
        "12684": 196,
        "12685": 52,
        "12686": 215,
        "12687": 219,
        "12688": 178,
        "12689": 199,
        "12690": 112,
        "12691": 24,
        "12692": 216,
        "12693": 9,
        "12694": 63,
        "12695": 242,
        "12696": 22,
        "12697": 55,
        "12698": 115,
        "12699": 0,
        "12700": 138,
        "12701": 6,
        "12702": 156,
        "12703": 181,
        "12704": 166,
        "12705": 156,
        "12706": 147,
        "12707": 148,
        "12708": 142,
        "12709": 43,
        "12710": 53,
        "12711": 51,
        "12712": 51,
        "12713": 62,
        "12714": 156,
        "12715": 167,
        "12716": 159,
        "12717": 121,
        "12718": 162,
        "12719": 241,
        "12720": 151,
        "12721": 99,
        "12722": 101,
        "12723": 196,
        "12724": 8,
        "12725": 60,
        "12726": 213,
        "12727": 125,
        "12728": 195,
        "12729": 30,
        "12730": 23,
        "12731": 43,
        "12732": 191,
        "12733": 83,
        "12734": 193,
        "12735": 189,
        "12736": 63,
        "12737": 253,
        "12738": 209,
        "12739": 238,
        "12740": 19,
        "12741": 84,
        "12742": 229,
        "12743": 12,
        "12744": 14,
        "12745": 36,
        "12746": 248,
        "12747": 175,
        "12748": 59,
        "12749": 35,
        "12750": 239,
        "12751": 46,
        "12752": 128,
        "12753": 198,
        "12754": 24,
        "12755": 205,
        "12756": 118,
        "12757": 59,
        "12758": 44,
        "12759": 43,
        "12760": 229,
        "12761": 50,
        "12762": 157,
        "12763": 176,
        "12764": 120,
        "12765": 94,
        "12766": 222,
        "12767": 187,
        "12768": 248,
        "12769": 222,
        "12770": 35,
        "12771": 109,
        "12772": 155,
        "12773": 195,
        "12774": 205,
        "12775": 56,
        "12776": 61,
        "12777": 4,
        "12778": 83,
        "12779": 70,
        "12780": 77,
        "12781": 9,
        "12782": 26,
        "12783": 103,
        "12784": 37,
        "12785": 79,
        "12786": 250,
        "12787": 56,
        "12788": 159,
        "12789": 114,
        "12790": 126,
        "12791": 145,
        "12792": 143,
        "12793": 15,
        "12794": 151,
        "12795": 224,
        "12796": 187,
        "12797": 96,
        "12798": 32,
        "12799": 23,
        "12800": 174,
        "12801": 123,
        "12802": 175,
        "12803": 27,
        "12804": 148,
        "12805": 68,
        "12806": 98,
        "12807": 35,
        "12808": 191,
        "12809": 232,
        "12810": 170,
        "12811": 22,
        "12812": 124,
        "12813": 78,
        "12814": 189,
        "12815": 99,
        "12816": 166,
        "12817": 165,
        "12818": 55,
        "12819": 226,
        "12820": 110,
        "12821": 211,
        "12822": 204,
        "12823": 219,
        "12824": 153,
        "12825": 86,
        "12826": 228,
        "12827": 5,
        "12828": 207,
        "12829": 104,
        "12830": 138,
        "12831": 118,
        "12832": 24,
        "12833": 79,
        "12834": 236,
        "12835": 223,
        "12836": 139,
        "12837": 54,
        "12838": 90,
        "12839": 240,
        "12840": 64,
        "12841": 215,
        "12842": 45,
        "12843": 72,
        "12844": 55,
        "12845": 107,
        "12846": 244,
        "12847": 138,
        "12848": 61,
        "12849": 88,
        "12850": 186,
        "12851": 79,
        "12852": 120,
        "12853": 123,
        "12854": 194,
        "12855": 159,
        "12856": 19,
        "12857": 61,
        "12858": 101,
        "12859": 252,
        "12860": 158,
        "12861": 1,
        "12862": 146,
        "12863": 90,
        "12864": 140,
        "12865": 1,
        "12866": 225,
        "12867": 47,
        "12868": 78,
        "12869": 143,
        "12870": 178,
        "12871": 57,
        "12872": 174,
        "12873": 96,
        "12874": 21,
        "12875": 124,
        "12876": 199,
        "12877": 125,
        "12878": 154,
        "12879": 69,
        "12880": 137,
        "12881": 235,
        "12882": 241,
        "12883": 242,
        "12884": 193,
        "12885": 211,
        "12886": 98,
        "12887": 62,
        "12888": 205,
        "12889": 231,
        "12890": 25,
        "12891": 24,
        "12892": 182,
        "12893": 131,
        "12894": 53,
        "12895": 31,
        "12896": 34,
        "12897": 190,
        "12898": 4,
        "12899": 205,
        "12900": 117,
        "12901": 22,
        "12902": 211,
        "12903": 92,
        "12904": 223,
        "12905": 205,
        "12906": 176,
        "12907": 174,
        "12908": 63,
        "12909": 72,
        "12910": 196,
        "12911": 232,
        "12912": 46,
        "12913": 193,
        "12914": 18,
        "12915": 198,
        "12916": 210,
        "12917": 13,
        "12918": 249,
        "12919": 22,
        "12920": 9,
        "12921": 13,
        "12922": 239,
        "12923": 17,
        "12924": 75,
        "12925": 149,
        "12926": 70,
        "12927": 178,
        "12928": 147,
        "12929": 226,
        "12930": 92,
        "12931": 93,
        "12932": 248,
        "12933": 140,
        "12934": 22,
        "12935": 251,
        "12936": 46,
        "12937": 12,
        "12938": 61,
        "12939": 134,
        "12940": 119,
        "12941": 53,
        "12942": 244,
        "12943": 149,
        "12944": 88,
        "12945": 190,
        "12946": 61,
        "12947": 127,
        "12948": 71,
        "12949": 255,
        "12950": 28,
        "12951": 67,
        "12952": 204,
        "12953": 140,
        "12954": 201,
        "12955": 176,
        "12956": 3,
        "12957": 152,
        "12958": 124,
        "12959": 120,
        "12960": 214,
        "12961": 22,
        "12962": 172,
        "12963": 34,
        "12964": 34,
        "12965": 61,
        "12966": 237,
        "12967": 191,
        "12968": 78,
        "12969": 217,
        "12970": 171,
        "12971": 214,
        "12972": 137,
        "12973": 118,
        "12974": 52,
        "12975": 180,
        "12976": 6,
        "12977": 113,
        "12978": 87,
        "12979": 12,
        "12980": 31,
        "12981": 80,
        "12982": 191,
        "12983": 214,
        "12984": 193,
        "12985": 84,
        "12986": 229,
        "12987": 28,
        "12988": 123,
        "12989": 61,
        "12990": 106,
        "12991": 178,
        "12992": 74,
        "12993": 52,
        "12994": 114,
        "12995": 22,
        "12996": 178,
        "12997": 109,
        "12998": 87,
        "12999": 88,
        "13000": 200,
        "13001": 195,
        "13002": 14,
        "13003": 61,
        "13004": 104,
        "13005": 155,
        "13006": 188,
        "13007": 223,
        "13008": 162,
        "13009": 183,
        "13010": 225,
        "13011": 74,
        "13012": 131,
        "13013": 151,
        "13014": 115,
        "13015": 207,
        "13016": 0,
        "13017": 13,
        "13018": 97,
        "13019": 156,
        "13020": 41,
        "13021": 60,
        "13022": 206,
        "13023": 243,
        "13024": 17,
        "13025": 8,
        "13026": 147,
        "13027": 133,
        "13028": 145,
        "13029": 212,
        "13030": 80,
        "13031": 127,
        "13032": 49,
        "13033": 5,
        "13034": 81,
        "13035": 237,
        "13036": 205,
        "13037": 176,
        "13038": 115,
        "13039": 154,
        "13040": 215,
        "13041": 11,
        "13042": 172,
        "13043": 179,
        "13044": 7,
        "13045": 151,
        "13046": 191,
        "13047": 201,
        "13048": 225,
        "13049": 108,
        "13050": 39,
        "13051": 214,
        "13052": 50,
        "13053": 33,
        "13054": 113,
        "13055": 45,
        "13056": 239,
        "13057": 86,
        "13058": 23,
        "13059": 160,
        "13060": 111,
        "13061": 34,
        "13062": 243,
        "13063": 102,
        "13064": 82,
        "13065": 73,
        "13066": 55,
        "13067": 138,
        "13068": 208,
        "13069": 26,
        "13070": 179,
        "13071": 246,
        "13072": 199,
        "13073": 19,
        "13074": 150,
        "13075": 94,
        "13076": 121,
        "13077": 164,
        "13078": 189,
        "13079": 49,
        "13080": 188,
        "13081": 71,
        "13082": 112,
        "13083": 188,
        "13084": 133,
        "13085": 200,
        "13086": 16,
        "13087": 247,
        "13088": 108,
        "13089": 85,
        "13090": 176,
        "13091": 246,
        "13092": 212,
        "13093": 233,
        "13094": 155,
        "13095": 252,
        "13096": 138,
        "13097": 240,
        "13098": 76,
        "13099": 226,
        "13100": 64,
        "13101": 209,
        "13102": 194,
        "13103": 117,
        "13104": 63,
        "13105": 251,
        "13106": 69,
        "13107": 130,
        "13108": 31,
        "13109": 82,
        "13110": 33,
        "13111": 217,
        "13112": 117,
        "13113": 232,
        "13114": 79,
        "13115": 66,
        "13116": 196,
        "13117": 107,
        "13118": 99,
        "13119": 170,
        "13120": 185,
        "13121": 246,
        "13122": 85,
        "13123": 0,
        "13124": 225,
        "13125": 204,
        "13126": 141,
        "13127": 242,
        "13128": 77,
        "13129": 207,
        "13130": 112,
        "13131": 245,
        "13132": 218,
        "13133": 152,
        "13134": 249,
        "13135": 145,
        "13136": 33,
        "13137": 186,
        "13138": 121,
        "13139": 50,
        "13140": 128,
        "13141": 74,
        "13142": 52,
        "13143": 216,
        "13144": 63,
        "13145": 115,
        "13146": 113,
        "13147": 163,
        "13148": 13,
        "13149": 34,
        "13150": 158,
        "13151": 239,
        "13152": 28,
        "13153": 106,
        "13154": 46,
        "13155": 28,
        "13156": 186,
        "13157": 182,
        "13158": 51,
        "13159": 173,
        "13160": 4,
        "13161": 160,
        "13162": 7,
        "13163": 166,
        "13164": 52,
        "13165": 243,
        "13166": 31,
        "13167": 165,
        "13168": 40,
        "13169": 219,
        "13170": 227,
        "13171": 153,
        "13172": 94,
        "13173": 152,
        "13174": 107,
        "13175": 5,
        "13176": 167,
        "13177": 128,
        "13178": 183,
        "13179": 103,
        "13180": 65,
        "13181": 120,
        "13182": 172,
        "13183": 174,
        "13184": 21,
        "13185": 140,
        "13186": 125,
        "13187": 40,
        "13188": 98,
        "13189": 25,
        "13190": 92,
        "13191": 59,
        "13192": 35,
        "13193": 64,
        "13194": 151,
        "13195": 223,
        "13196": 55,
        "13197": 187,
        "13198": 188,
        "13199": 71,
        "13200": 125,
        "13201": 247,
        "13202": 220,
        "13203": 226,
        "13204": 228,
        "13205": 15,
        "13206": 181,
        "13207": 219,
        "13208": 164,
        "13209": 88,
        "13210": 160,
        "13211": 33,
        "13212": 165,
        "13213": 70,
        "13214": 108,
        "13215": 102,
        "13216": 63,
        "13217": 214,
        "13218": 23,
        "13219": 181,
        "13220": 32,
        "13221": 165,
        "13222": 193,
        "13223": 231,
        "13224": 12,
        "13225": 141,
        "13226": 42,
        "13227": 105,
        "13228": 57,
        "13229": 147,
        "13230": 58,
        "13231": 5,
        "13232": 199,
        "13233": 234,
        "13234": 65,
        "13235": 122,
        "13236": 204,
        "13237": 32,
        "13238": 177,
        "13239": 162,
        "13240": 253,
        "13241": 137,
        "13242": 217,
        "13243": 179,
        "13244": 95,
        "13245": 204,
        "13246": 251,
        "13247": 78,
        "13248": 37,
        "13249": 86,
        "13250": 90,
        "13251": 57,
        "13252": 215,
        "13253": 58,
        "13254": 6,
        "13255": 111,
        "13256": 83,
        "13257": 128,
        "13258": 169,
        "13259": 30,
        "13260": 135,
        "13261": 158,
        "13262": 150,
        "13263": 189,
        "13264": 221,
        "13265": 6,
        "13266": 134,
        "13267": 208,
        "13268": 231,
        "13269": 78,
        "13270": 188,
        "13271": 236,
        "13272": 167,
        "13273": 237,
        "13274": 142,
        "13275": 242,
        "13276": 34,
        "13277": 144,
        "13278": 244,
        "13279": 117,
        "13280": 162,
        "13281": 35,
        "13282": 154,
        "13283": 120,
        "13284": 37,
        "13285": 159,
        "13286": 161,
        "13287": 60,
        "13288": 46,
        "13289": 58,
        "13290": 28,
        "13291": 244,
        "13292": 146,
        "13293": 187,
        "13294": 26,
        "13295": 240,
        "13296": 217,
        "13297": 115,
        "13298": 129,
        "13299": 175,
        "13300": 88,
        "13301": 31,
        "13302": 16,
        "13303": 0,
        "13304": 163,
        "13305": 19,
        "13306": 153,
        "13307": 240,
        "13308": 126,
        "13309": 221,
        "13310": 57,
        "13311": 103,
        "13312": 31,
        "13313": 231,
        "13314": 31,
        "13315": 13,
        "13316": 186,
        "13317": 185,
        "13318": 33,
        "13319": 98,
        "13320": 212,
        "13321": 170,
        "13322": 157,
        "13323": 152,
        "13324": 17,
        "13325": 223,
        "13326": 165,
        "13327": 145,
        "13328": 99,
        "13329": 124,
        "13330": 15,
        "13331": 34,
        "13332": 222,
        "13333": 67,
        "13334": 54,
        "13335": 94,
        "13336": 247,
        "13337": 52,
        "13338": 147,
        "13339": 50,
        "13340": 18,
        "13341": 112,
        "13342": 200,
        "13343": 157,
        "13344": 194,
        "13345": 156,
        "13346": 66,
        "13347": 154,
        "13348": 78,
        "13349": 23,
        "13350": 154,
        "13351": 108,
        "13352": 17,
        "13353": 80,
        "13354": 193,
        "13355": 29,
        "13356": 114,
        "13357": 62,
        "13358": 236,
        "13359": 207,
        "13360": 155,
        "13361": 195,
        "13362": 186,
        "13363": 43,
        "13364": 58,
        "13365": 221,
        "13366": 26,
        "13367": 18,
        "13368": 19,
        "13369": 222,
        "13370": 148,
        "13371": 116,
        "13372": 143,
        "13373": 164,
        "13374": 211,
        "13375": 61,
        "13376": 182,
        "13377": 181,
        "13378": 41,
        "13379": 250,
        "13380": 154,
        "13381": 208,
        "13382": 138,
        "13383": 28,
        "13384": 229,
        "13385": 99,
        "13386": 127,
        "13387": 3,
        "13388": 201,
        "13389": 112,
        "13390": 75,
        "13391": 79,
        "13392": 24,
        "13393": 161,
        "13394": 29,
        "13395": 68,
        "13396": 13,
        "13397": 72,
        "13398": 155,
        "13399": 196,
        "13400": 239,
        "13401": 226,
        "13402": 48,
        "13403": 128,
        "13404": 94,
        "13405": 106,
        "13406": 99,
        "13407": 154,
        "13408": 201,
        "13409": 228,
        "13410": 254,
        "13411": 65,
        "13412": 187,
        "13413": 88,
        "13414": 175,
        "13415": 121,
        "13416": 149,
        "13417": 164,
        "13418": 25,
        "13419": 170,
        "13420": 42,
        "13421": 112,
        "13422": 80,
        "13423": 14,
        "13424": 98,
        "13425": 217,
        "13426": 88,
        "13427": 157,
        "13428": 67,
        "13429": 139,
        "13430": 211,
        "13431": 255,
        "13432": 78,
        "13433": 96,
        "13434": 108,
        "13435": 129,
        "13436": 184,
        "13437": 190,
        "13438": 166,
        "13439": 32,
        "13440": 91,
        "13441": 139,
        "13442": 106,
        "13443": 216,
        "13444": 177,
        "13445": 156,
        "13446": 61,
        "13447": 121,
        "13448": 51,
        "13449": 202,
        "13450": 41,
        "13451": 60,
        "13452": 140,
        "13453": 176,
        "13454": 72,
        "13455": 178,
        "13456": 252,
        "13457": 230,
        "13458": 118,
        "13459": 224,
        "13460": 78,
        "13461": 83,
        "13462": 169,
        "13463": 12,
        "13464": 247,
        "13465": 161,
        "13466": 138,
        "13467": 123,
        "13468": 213,
        "13469": 114,
        "13470": 18,
        "13471": 102,
        "13472": 144,
        "13473": 236,
        "13474": 198,
        "13475": 196,
        "13476": 67,
        "13477": 234,
        "13478": 80,
        "13479": 204,
        "13480": 39,
        "13481": 237,
        "13482": 196,
        "13483": 235,
        "13484": 45,
        "13485": 90,
        "13486": 186,
        "13487": 162,
        "13488": 81,
        "13489": 67,
        "13490": 120,
        "13491": 240,
        "13492": 66,
        "13493": 216,
        "13494": 5,
        "13495": 99,
        "13496": 175,
        "13497": 245,
        "13498": 30,
        "13499": 228,
        "13500": 129,
        "13501": 13,
        "13502": 182,
        "13503": 50,
        "13504": 194,
        "13505": 149,
        "13506": 140,
        "13507": 111,
        "13508": 120,
        "13509": 113,
        "13510": 13,
        "13511": 161,
        "13512": 74,
        "13513": 87,
        "13514": 254,
        "13515": 159,
        "13516": 180,
        "13517": 245,
        "13518": 229,
        "13519": 144,
        "13520": 7,
        "13521": 236,
        "13522": 21,
        "13523": 10,
        "13524": 141,
        "13525": 214,
        "13526": 58,
        "13527": 168,
        "13528": 26,
        "13529": 69,
        "13530": 14,
        "13531": 29,
        "13532": 210,
        "13533": 98,
        "13534": 68,
        "13535": 103,
        "13536": 243,
        "13537": 253,
        "13538": 93,
        "13539": 221,
        "13540": 175,
        "13541": 146,
        "13542": 185,
        "13543": 102,
        "13544": 229,
        "13545": 6,
        "13546": 26,
        "13547": 231,
        "13548": 30,
        "13549": 39,
        "13550": 170,
        "13551": 97,
        "13552": 235,
        "13553": 182,
        "13554": 192,
        "13555": 74,
        "13556": 77,
        "13557": 163,
        "13558": 65,
        "13559": 17,
        "13560": 67,
        "13561": 123,
        "13562": 196,
        "13563": 70,
        "13564": 81,
        "13565": 243,
        "13566": 134,
        "13567": 118,
        "13568": 101,
        "13569": 105,
        "13570": 124,
        "13571": 98,
        "13572": 99,
        "13573": 226,
        "13574": 16,
        "13575": 221,
        "13576": 226,
        "13577": 110,
        "13578": 2,
        "13579": 235,
        "13580": 172,
        "13581": 170,
        "13582": 138,
        "13583": 162,
        "13584": 128,
        "13585": 137,
        "13586": 138,
        "13587": 231,
        "13588": 109,
        "13589": 225,
        "13590": 159,
        "13591": 91,
        "13592": 174,
        "13593": 26,
        "13594": 50,
        "13595": 12,
        "13596": 204,
        "13597": 249,
        "13598": 226,
        "13599": 133,
        "13600": 238,
        "13601": 91,
        "13602": 218,
        "13603": 90,
        "13604": 42,
        "13605": 238,
        "13606": 125,
        "13607": 82,
        "13608": 26,
        "13609": 33,
        "13610": 121,
        "13611": 71,
        "13612": 201,
        "13613": 187,
        "13614": 88,
        "13615": 72,
        "13616": 244,
        "13617": 123,
        "13618": 6,
        "13619": 18,
        "13620": 97,
        "13621": 6,
        "13622": 171,
        "13623": 238,
        "13624": 88,
        "13625": 189,
        "13626": 97,
        "13627": 34,
        "13628": 117,
        "13629": 14,
        "13630": 11,
        "13631": 126,
        "13632": 91,
        "13633": 123,
        "13634": 108,
        "13635": 140,
        "13636": 117,
        "13637": 165,
        "13638": 87,
        "13639": 122,
        "13640": 250,
        "13641": 9,
        "13642": 154,
        "13643": 96,
        "13644": 74,
        "13645": 174,
        "13646": 180,
        "13647": 220,
        "13648": 124,
        "13649": 13,
        "13650": 189,
        "13651": 241,
        "13652": 231,
        "13653": 204,
        "13654": 137,
        "13655": 96,
        "13656": 62,
        "13657": 115,
        "13658": 191,
        "13659": 65,
        "13660": 160,
        "13661": 230,
        "13662": 57,
        "13663": 67,
        "13664": 243,
        "13665": 226,
        "13666": 66,
        "13667": 120,
        "13668": 181,
        "13669": 1,
        "13670": 158,
        "13671": 77,
        "13672": 54,
        "13673": 156,
        "13674": 85,
        "13675": 111,
        "13676": 215,
        "13677": 64,
        "13678": 33,
        "13679": 242,
        "13680": 215,
        "13681": 127,
        "13682": 103,
        "13683": 251,
        "13684": 93,
        "13685": 163,
        "13686": 42,
        "13687": 131,
        "13688": 237,
        "13689": 245,
        "13690": 99,
        "13691": 254,
        "13692": 225,
        "13693": 43,
        "13694": 78,
        "13695": 211,
        "13696": 163,
        "13697": 1,
        "13698": 186,
        "13699": 255,
        "13700": 86,
        "13701": 242,
        "13702": 141,
        "13703": 111,
        "13704": 107,
        "13705": 2,
        "13706": 239,
        "13707": 152,
        "13708": 151,
        "13709": 121,
        "13710": 44,
        "13711": 28,
        "13712": 4,
        "13713": 243,
        "13714": 199,
        "13715": 64,
        "13716": 9,
        "13717": 144,
        "13718": 100,
        "13719": 62,
        "13720": 122,
        "13721": 186,
        "13722": 125,
        "13723": 159,
        "13724": 104,
        "13725": 247,
        "13726": 180,
        "13727": 28,
        "13728": 134,
        "13729": 223,
        "13730": 84,
        "13731": 75,
        "13732": 3,
        "13733": 208,
        "13734": 174,
        "13735": 218,
        "13736": 88,
        "13737": 14,
        "13738": 176,
        "13739": 94,
        "13740": 48,
        "13741": 255,
        "13742": 185,
        "13743": 112,
        "13744": 48,
        "13745": 106,
        "13746": 136,
        "13747": 153,
        "13748": 2,
        "13749": 165,
        "13750": 218,
        "13751": 252,
        "13752": 57,
        "13753": 142,
        "13754": 50,
        "13755": 165,
        "13756": 196,
        "13757": 72,
        "13758": 231,
        "13759": 206,
        "13760": 246,
        "13761": 18,
        "13762": 3,
        "13763": 94,
        "13764": 174,
        "13765": 106,
        "13766": 75,
        "13767": 75,
        "13768": 214,
        "13769": 46,
        "13770": 91,
        "13771": 32,
        "13772": 25,
        "13773": 46,
        "13774": 151,
        "13775": 78,
        "13776": 204,
        "13777": 33,
        "13778": 175,
        "13779": 49,
        "13780": 80,
        "13781": 131,
        "13782": 95,
        "13783": 32,
        "13784": 117,
        "13785": 198,
        "13786": 205,
        "13787": 156,
        "13788": 243,
        "13789": 46,
        "13790": 166,
        "13791": 190,
        "13792": 154,
        "13793": 215,
        "13794": 31,
        "13795": 17,
        "13796": 164,
        "13797": 100,
        "13798": 235,
        "13799": 52,
        "13800": 58,
        "13801": 80,
        "13802": 112,
        "13803": 106,
        "13804": 221,
        "13805": 68,
        "13806": 198,
        "13807": 243,
        "13808": 65,
        "13809": 24,
        "13810": 193,
        "13811": 208,
        "13812": 218,
        "13813": 135,
        "13814": 149,
        "13815": 176,
        "13816": 148,
        "13817": 221,
        "13818": 107,
        "13819": 136,
        "13820": 93,
        "13821": 244,
        "13822": 49,
        "13823": 240,
        "13824": 181,
        "13825": 209,
        "13826": 151,
        "13827": 184,
        "13828": 253,
        "13829": 99,
        "13830": 11,
        "13831": 240,
        "13832": 30,
        "13833": 133,
        "13834": 186,
        "13835": 138,
        "13836": 226,
        "13837": 218,
        "13838": 167,
        "13839": 141,
        "13840": 134,
        "13841": 156,
        "13842": 58,
        "13843": 85,
        "13844": 230,
        "13845": 245,
        "13846": 120,
        "13847": 248,
        "13848": 106,
        "13849": 182,
        "13850": 232,
        "13851": 228,
        "13852": 7,
        "13853": 132,
        "13854": 148,
        "13855": 51,
        "13856": 25,
        "13857": 13,
        "13858": 211,
        "13859": 235,
        "13860": 74,
        "13861": 154,
        "13862": 102,
        "13863": 114,
        "13864": 10,
        "13865": 69,
        "13866": 74,
        "13867": 77,
        "13868": 232,
        "13869": 41,
        "13870": 230,
        "13871": 43,
        "13872": 215,
        "13873": 59,
        "13874": 151,
        "13875": 140,
        "13876": 23,
        "13877": 156,
        "13878": 73,
        "13879": 172,
        "13880": 236,
        "13881": 43,
        "13882": 70,
        "13883": 234,
        "13884": 33,
        "13885": 35,
        "13886": 194,
        "13887": 18,
        "13888": 86,
        "13889": 189,
        "13890": 228,
        "13891": 72,
        "13892": 8,
        "13893": 1,
        "13894": 15,
        "13895": 175,
        "13896": 26,
        "13897": 178,
        "13898": 67,
        "13899": 223,
        "13900": 125,
        "13901": 22,
        "13902": 122,
        "13903": 26,
        "13904": 43,
        "13905": 75,
        "13906": 226,
        "13907": 154,
        "13908": 21,
        "13909": 167,
        "13910": 67,
        "13911": 73,
        "13912": 240,
        "13913": 133,
        "13914": 253,
        "13915": 216,
        "13916": 125,
        "13917": 84,
        "13918": 140,
        "13919": 114,
        "13920": 75,
        "13921": 173,
        "13922": 235,
        "13923": 169,
        "13924": 34,
        "13925": 226,
        "13926": 96,
        "13927": 78,
        "13928": 119,
        "13929": 208,
        "13930": 240,
        "13931": 245,
        "13932": 54,
        "13933": 19,
        "13934": 146,
        "13935": 93,
        "13936": 199,
        "13937": 184,
        "13938": 102,
        "13939": 133,
        "13940": 22,
        "13941": 59,
        "13942": 134,
        "13943": 145,
        "13944": 19,
        "13945": 210,
        "13946": 248,
        "13947": 193,
        "13948": 195,
        "13949": 62,
        "13950": 98,
        "13951": 146,
        "13952": 182,
        "13953": 1,
        "13954": 133,
        "13955": 31,
        "13956": 92,
        "13957": 148,
        "13958": 234,
        "13959": 188,
        "13960": 90,
        "13961": 139,
        "13962": 214,
        "13963": 217,
        "13964": 213,
        "13965": 186,
        "13966": 148,
        "13967": 206,
        "13968": 66,
        "13969": 58,
        "13970": 188,
        "13971": 81,
        "13972": 233,
        "13973": 97,
        "13974": 192,
        "13975": 70,
        "13976": 141,
        "13977": 60,
        "13978": 242,
        "13979": 125,
        "13980": 95,
        "13981": 234,
        "13982": 124,
        "13983": 79,
        "13984": 191,
        "13985": 210,
        "13986": 51,
        "13987": 116,
        "13988": 82,
        "13989": 56,
        "13990": 169,
        "13991": 244,
        "13992": 16,
        "13993": 57,
        "13994": 243,
        "13995": 135,
        "13996": 71,
        "13997": 247,
        "13998": 181,
        "13999": 227,
        "14000": 242,
        "14001": 147,
        "14002": 66,
        "14003": 166,
        "14004": 154,
        "14005": 115,
        "14006": 119,
        "14007": 90,
        "14008": 186,
        "14009": 255,
        "14010": 202,
        "14011": 184,
        "14012": 122,
        "14013": 145,
        "14014": 92,
        "14015": 104,
        "14016": 1,
        "14017": 235,
        "14018": 194,
        "14019": 233,
        "14020": 135,
        "14021": 184,
        "14022": 66,
        "14023": 4,
        "14024": 73,
        "14025": 64,
        "14026": 52,
        "14027": 14,
        "14028": 123,
        "14029": 216,
        "14030": 253,
        "14031": 154,
        "14032": 101,
        "14033": 189,
        "14034": 40,
        "14035": 40,
        "14036": 98,
        "14037": 235,
        "14038": 171,
        "14039": 121,
        "14040": 19,
        "14041": 178,
        "14042": 171,
        "14043": 142,
        "14044": 251,
        "14045": 184,
        "14046": 155,
        "14047": 104,
        "14048": 134,
        "14049": 113,
        "14050": 202,
        "14051": 117,
        "14052": 80,
        "14053": 35,
        "14054": 230,
        "14055": 19,
        "14056": 11,
        "14057": 248,
        "14058": 103,
        "14059": 147,
        "14060": 112,
        "14061": 59,
        "14062": 62,
        "14063": 209,
        "14064": 23,
        "14065": 154,
        "14066": 59,
        "14067": 206,
        "14068": 68,
        "14069": 211,
        "14070": 26,
        "14071": 246,
        "14072": 108,
        "14073": 48,
        "14074": 164,
        "14075": 79,
        "14076": 153,
        "14077": 15,
        "14078": 173,
        "14079": 169,
        "14080": 193,
        "14081": 244,
        "14082": 205,
        "14083": 126,
        "14084": 133,
        "14085": 181,
        "14086": 179,
        "14087": 134,
        "14088": 244,
        "14089": 24,
        "14090": 174,
        "14091": 92,
        "14092": 156,
        "14093": 127,
        "14094": 65,
        "14095": 235,
        "14096": 201,
        "14097": 24,
        "14098": 254,
        "14099": 171,
        "14100": 232,
        "14101": 228,
        "14102": 249,
        "14103": 49,
        "14104": 216,
        "14105": 11,
        "14106": 199,
        "14107": 140,
        "14108": 236,
        "14109": 96,
        "14110": 127,
        "14111": 225,
        "14112": 34,
        "14113": 218,
        "14114": 76,
        "14115": 9,
        "14116": 136,
        "14117": 42,
        "14118": 82,
        "14119": 11,
        "14120": 70,
        "14121": 146,
        "14122": 34,
        "14123": 223,
        "14124": 141,
        "14125": 9,
        "14126": 36,
        "14127": 248,
        "14128": 159,
        "14129": 246,
        "14130": 78,
        "14131": 235,
        "14132": 188,
        "14133": 238,
        "14134": 150,
        "14135": 66,
        "14136": 98,
        "14137": 62,
        "14138": 69,
        "14139": 155,
        "14140": 181,
        "14141": 136,
        "14142": 89,
        "14143": 0,
        "14144": 9,
        "14145": 229,
        "14146": 180,
        "14147": 0,
        "14148": 206,
        "14149": 111,
        "14150": 108,
        "14151": 133,
        "14152": 117,
        "14153": 42,
        "14154": 63,
        "14155": 143,
        "14156": 17,
        "14157": 178,
        "14158": 150,
        "14159": 126,
        "14160": 76,
        "14161": 202,
        "14162": 61,
        "14163": 58,
        "14164": 171,
        "14165": 219,
        "14166": 115,
        "14167": 155,
        "14168": 247,
        "14169": 186,
        "14170": 16,
        "14171": 34,
        "14172": 36,
        "14173": 65,
        "14174": 86,
        "14175": 212,
        "14176": 143,
        "14177": 208,
        "14178": 4,
        "14179": 252,
        "14180": 199,
        "14181": 145,
        "14182": 57,
        "14183": 12,
        "14184": 212,
        "14185": 46,
        "14186": 145,
        "14187": 126,
        "14188": 230,
        "14189": 29,
        "14190": 28,
        "14191": 96,
        "14192": 79,
        "14193": 208,
        "14194": 195,
        "14195": 217,
        "14196": 220,
        "14197": 43,
        "14198": 147,
        "14199": 70,
        "14200": 123,
        "14201": 37,
        "14202": 129,
        "14203": 207,
        "14204": 127,
        "14205": 209,
        "14206": 87,
        "14207": 89,
        "14208": 248,
        "14209": 150,
        "14210": 119,
        "14211": 63,
        "14212": 2,
        "14213": 48,
        "14214": 69,
        "14215": 21,
        "14216": 145,
        "14217": 93,
        "14218": 142,
        "14219": 71,
        "14220": 112,
        "14221": 81,
        "14222": 191,
        "14223": 238,
        "14224": 193,
        "14225": 100,
        "14226": 5,
        "14227": 52,
        "14228": 190,
        "14229": 51,
        "14230": 38,
        "14231": 176,
        "14232": 102,
        "14233": 240,
        "14234": 59,
        "14235": 103,
        "14236": 195,
        "14237": 136,
        "14238": 245,
        "14239": 152,
        "14240": 116,
        "14241": 22,
        "14242": 136,
        "14243": 169,
        "14244": 218,
        "14245": 39,
        "14246": 46,
        "14247": 35,
        "14248": 92,
        "14249": 149,
        "14250": 139,
        "14251": 241,
        "14252": 223,
        "14253": 12,
        "14254": 152,
        "14255": 235,
        "14256": 212,
        "14257": 150,
        "14258": 104,
        "14259": 131,
        "14260": 53,
        "14261": 80,
        "14262": 17,
        "14263": 126,
        "14264": 101,
        "14265": 73,
        "14266": 72,
        "14267": 76,
        "14268": 19,
        "14269": 82,
        "14270": 175,
        "14271": 93,
        "14272": 9,
        "14273": 25,
        "14274": 138,
        "14275": 200,
        "14276": 156,
        "14277": 67,
        "14278": 185,
        "14279": 57,
        "14280": 39,
        "14281": 203,
        "14282": 76,
        "14283": 249,
        "14284": 137,
        "14285": 45,
        "14286": 254,
        "14287": 252,
        "14288": 187,
        "14289": 202,
        "14290": 218,
        "14291": 41,
        "14292": 129,
        "14293": 113,
        "14294": 210,
        "14295": 130,
        "14296": 224,
        "14297": 196,
        "14298": 99,
        "14299": 232,
        "14300": 55,
        "14301": 47,
        "14302": 1,
        "14303": 75,
        "14304": 198,
        "14305": 108,
        "14306": 118,
        "14307": 136,
        "14308": 124,
        "14309": 142,
        "14310": 236,
        "14311": 42,
        "14312": 72,
        "14313": 181,
        "14314": 29,
        "14315": 187,
        "14316": 104,
        "14317": 171,
        "14318": 42,
        "14319": 199,
        "14320": 102,
        "14321": 169,
        "14322": 54,
        "14323": 105,
        "14324": 184,
        "14325": 86,
        "14326": 244,
        "14327": 178,
        "14328": 69,
        "14329": 139,
        "14330": 218,
        "14331": 231,
        "14332": 225,
        "14333": 108,
        "14334": 53,
        "14335": 181,
        "14336": 57,
        "14337": 189,
        "14338": 177,
        "14339": 34,
        "14340": 187,
        "14341": 4,
        "14342": 107,
        "14343": 122,
        "14344": 185,
        "14345": 14,
        "14346": 98,
        "14347": 77,
        "14348": 24,
        "14349": 122,
        "14350": 241,
        "14351": 238,
        "14352": 10,
        "14353": 214,
        "14354": 29,
        "14355": 234,
        "14356": 180,
        "14357": 194,
        "14358": 178,
        "14359": 221,
        "14360": 173,
        "14361": 90,
        "14362": 205,
        "14363": 240,
        "14364": 123,
        "14365": 79,
        "14366": 135,
        "14367": 153,
        "14368": 85,
        "14369": 63,
        "14370": 198,
        "14371": 206,
        "14372": 123,
        "14373": 101,
        "14374": 55,
        "14375": 3,
        "14376": 223,
        "14377": 136,
        "14378": 98,
        "14379": 241,
        "14380": 93,
        "14381": 44,
        "14382": 140,
        "14383": 84,
        "14384": 58,
        "14385": 223,
        "14386": 22,
        "14387": 91,
        "14388": 100,
        "14389": 183,
        "14390": 162,
        "14391": 161,
        "14392": 122,
        "14393": 243,
        "14394": 202,
        "14395": 90,
        "14396": 23,
        "14397": 227,
        "14398": 18,
        "14399": 157,
        "14400": 132,
        "14401": 123,
        "14402": 150,
        "14403": 30,
        "14404": 198,
        "14405": 143,
        "14406": 87,
        "14407": 63,
        "14408": 5,
        "14409": 31,
        "14410": 69,
        "14411": 241,
        "14412": 33,
        "14413": 147,
        "14414": 163,
        "14415": 86,
        "14416": 63,
        "14417": 239,
        "14418": 61,
        "14419": 189,
        "14420": 40,
        "14421": 69,
        "14422": 237,
        "14423": 82,
        "14424": 142,
        "14425": 58,
        "14426": 55,
        "14427": 161,
        "14428": 120,
        "14429": 243,
        "14430": 185,
        "14431": 205,
        "14432": 148,
        "14433": 192,
        "14434": 203,
        "14435": 86,
        "14436": 41,
        "14437": 77,
        "14438": 83,
        "14439": 248,
        "14440": 208,
        "14441": 254,
        "14442": 92,
        "14443": 214,
        "14444": 186,
        "14445": 86,
        "14446": 68,
        "14447": 106,
        "14448": 23,
        "14449": 8,
        "14450": 145,
        "14451": 192,
        "14452": 76,
        "14453": 138,
        "14454": 167,
        "14455": 137,
        "14456": 57,
        "14457": 147,
        "14458": 27,
        "14459": 9,
        "14460": 165,
        "14461": 124,
        "14462": 63,
        "14463": 163,
        "14464": 202,
        "14465": 161,
        "14466": 149,
        "14467": 111,
        "14468": 128,
        "14469": 68,
        "14470": 208,
        "14471": 193,
        "14472": 25,
        "14473": 16,
        "14474": 0,
        "14475": 5,
        "14476": 43,
        "14477": 135,
        "14478": 95,
        "14479": 205,
        "14480": 192,
        "14481": 142,
        "14482": 237,
        "14483": 228,
        "14484": 48,
        "14485": 144,
        "14486": 8,
        "14487": 17,
        "14488": 252,
        "14489": 219,
        "14490": 229,
        "14491": 229,
        "14492": 36,
        "14493": 140,
        "14494": 105,
        "14495": 229,
        "14496": 1,
        "14497": 163,
        "14498": 6,
        "14499": 252,
        "14500": 126,
        "14501": 80,
        "14502": 182,
        "14503": 209,
        "14504": 31,
        "14505": 223,
        "14506": 38,
        "14507": 22,
        "14508": 198,
        "14509": 170,
        "14510": 56,
        "14511": 9,
        "14512": 65,
        "14513": 118,
        "14514": 176,
        "14515": 181,
        "14516": 161,
        "14517": 32,
        "14518": 153,
        "14519": 137,
        "14520": 59,
        "14521": 54,
        "14522": 46,
        "14523": 30,
        "14524": 15,
        "14525": 208,
        "14526": 198,
        "14527": 24,
        "14528": 185,
        "14529": 63,
        "14530": 205,
        "14531": 8,
        "14532": 174,
        "14533": 191,
        "14534": 43,
        "14535": 55,
        "14536": 194,
        "14537": 201,
        "14538": 151,
        "14539": 160,
        "14540": 147,
        "14541": 4,
        "14542": 183,
        "14543": 70,
        "14544": 88,
        "14545": 168,
        "14546": 14,
        "14547": 154,
        "14548": 83,
        "14549": 163,
        "14550": 44,
        "14551": 80,
        "14552": 135,
        "14553": 229,
        "14554": 123,
        "14555": 49,
        "14556": 218,
        "14557": 130,
        "14558": 78,
        "14559": 152,
        "14560": 229,
        "14561": 77,
        "14562": 62,
        "14563": 165,
        "14564": 70,
        "14565": 41,
        "14566": 15,
        "14567": 110,
        "14568": 148,
        "14569": 104,
        "14570": 35,
        "14571": 99,
        "14572": 235,
        "14573": 13,
        "14574": 28,
        "14575": 4,
        "14576": 147,
        "14577": 176,
        "14578": 137,
        "14579": 190,
        "14580": 249,
        "14581": 70,
        "14582": 105,
        "14583": 58,
        "14584": 111,
        "14585": 157,
        "14586": 69,
        "14587": 169,
        "14588": 167,
        "14589": 51,
        "14590": 150,
        "14591": 49,
        "14592": 175,
        "14593": 117,
        "14594": 75,
        "14595": 245,
        "14596": 49,
        "14597": 157,
        "14598": 128,
        "14599": 251,
        "14600": 16,
        "14601": 103,
        "14602": 134,
        "14603": 253,
        "14604": 220,
        "14605": 135,
        "14606": 171,
        "14607": 232,
        "14608": 177,
        "14609": 195,
        "14610": 143,
        "14611": 19,
        "14612": 90,
        "14613": 147,
        "14614": 205,
        "14615": 152,
        "14616": 6,
        "14617": 145,
        "14618": 98,
        "14619": 126,
        "14620": 98,
        "14621": 206,
        "14622": 143,
        "14623": 119,
        "14624": 43,
        "14625": 242,
        "14626": 0,
        "14627": 14,
        "14628": 253,
        "14629": 187,
        "14630": 41,
        "14631": 113,
        "14632": 54,
        "14633": 46,
        "14634": 175,
        "14635": 237,
        "14636": 14,
        "14637": 37,
        "14638": 109,
        "14639": 18,
        "14640": 157,
        "14641": 161,
        "14642": 61,
        "14643": 56,
        "14644": 14,
        "14645": 26,
        "14646": 166,
        "14647": 86,
        "14648": 14,
        "14649": 213,
        "14650": 98,
        "14651": 153,
        "14652": 49,
        "14653": 143,
        "14654": 73,
        "14655": 149,
        "14656": 34,
        "14657": 64,
        "14658": 21,
        "14659": 58,
        "14660": 112,
        "14661": 137,
        "14662": 217,
        "14663": 54,
        "14664": 49,
        "14665": 101,
        "14666": 188,
        "14667": 102,
        "14668": 206,
        "14669": 215,
        "14670": 187,
        "14671": 97,
        "14672": 17,
        "14673": 110,
        "14674": 58,
        "14675": 54,
        "14676": 11,
        "14677": 133,
        "14678": 240,
        "14679": 13,
        "14680": 177,
        "14681": 242,
        "14682": 43,
        "14683": 228,
        "14684": 78,
        "14685": 27,
        "14686": 207,
        "14687": 75,
        "14688": 16,
        "14689": 32,
        "14690": 229,
        "14691": 84,
        "14692": 50,
        "14693": 27,
        "14694": 189,
        "14695": 151,
        "14696": 154,
        "14697": 40,
        "14698": 1,
        "14699": 164,
        "14700": 57,
        "14701": 236,
        "14702": 18,
        "14703": 163,
        "14704": 54,
        "14705": 133,
        "14706": 248,
        "14707": 209,
        "14708": 48,
        "14709": 243,
        "14710": 110,
        "14711": 85,
        "14712": 101,
        "14713": 237,
        "14714": 97,
        "14715": 39,
        "14716": 32,
        "14717": 81,
        "14718": 128,
        "14719": 121,
        "14720": 240,
        "14721": 231,
        "14722": 133,
        "14723": 43,
        "14724": 64,
        "14725": 248,
        "14726": 195,
        "14727": 240,
        "14728": 64,
        "14729": 145,
        "14730": 2,
        "14731": 56,
        "14732": 140,
        "14733": 120,
        "14734": 179,
        "14735": 206,
        "14736": 115,
        "14737": 44,
        "14738": 143,
        "14739": 222,
        "14740": 72,
        "14741": 241,
        "14742": 233,
        "14743": 162,
        "14744": 183,
        "14745": 120,
        "14746": 153,
        "14747": 46,
        "14748": 6,
        "14749": 220,
        "14750": 116,
        "14751": 221,
        "14752": 67,
        "14753": 198,
        "14754": 52,
        "14755": 254,
        "14756": 243,
        "14757": 87,
        "14758": 205,
        "14759": 184,
        "14760": 125,
        "14761": 141,
        "14762": 153,
        "14763": 23,
        "14764": 111,
        "14765": 83,
        "14766": 184,
        "14767": 83,
        "14768": 206,
        "14769": 41,
        "14770": 93,
        "14771": 169,
        "14772": 163,
        "14773": 16,
        "14774": 102,
        "14775": 150,
        "14776": 34,
        "14777": 84,
        "14778": 54,
        "14779": 174,
        "14780": 2,
        "14781": 96,
        "14782": 148,
        "14783": 228,
        "14784": 52,
        "14785": 158,
        "14786": 165,
        "14787": 23,
        "14788": 221,
        "14789": 214,
        "14790": 243,
        "14791": 124,
        "14792": 61,
        "14793": 133,
        "14794": 249,
        "14795": 169,
        "14796": 247,
        "14797": 136,
        "14798": 202,
        "14799": 55,
        "14800": 151,
        "14801": 217,
        "14802": 214,
        "14803": 58,
        "14804": 26,
        "14805": 72,
        "14806": 153,
        "14807": 171,
        "14808": 154,
        "14809": 137,
        "14810": 155,
        "14811": 165,
        "14812": 12,
        "14813": 165,
        "14814": 45,
        "14815": 213,
        "14816": 173,
        "14817": 18,
        "14818": 123,
        "14819": 57,
        "14820": 243,
        "14821": 253,
        "14822": 132,
        "14823": 147,
        "14824": 26,
        "14825": 12,
        "14826": 197,
        "14827": 13,
        "14828": 0,
        "14829": 7,
        "14830": 97,
        "14831": 157,
        "14832": 111,
        "14833": 177,
        "14834": 78,
        "14835": 176,
        "14836": 113,
        "14837": 74,
        "14838": 61,
        "14839": 116,
        "14840": 140,
        "14841": 75,
        "14842": 51,
        "14843": 204,
        "14844": 203,
        "14845": 14,
        "14846": 173,
        "14847": 137,
        "14848": 217,
        "14849": 163,
        "14850": 181,
        "14851": 168,
        "14852": 237,
        "14853": 107,
        "14854": 63,
        "14855": 129,
        "14856": 185,
        "14857": 225,
        "14858": 53,
        "14859": 36,
        "14860": 251,
        "14861": 37,
        "14862": 95,
        "14863": 95,
        "14864": 62,
        "14865": 10,
        "14866": 6,
        "14867": 152,
        "14868": 130,
        "14869": 114,
        "14870": 48,
        "14871": 204,
        "14872": 7,
        "14873": 174,
        "14874": 30,
        "14875": 164,
        "14876": 242,
        "14877": 87,
        "14878": 60,
        "14879": 35,
        "14880": 48,
        "14881": 22,
        "14882": 34,
        "14883": 24,
        "14884": 96,
        "14885": 103,
        "14886": 105,
        "14887": 211,
        "14888": 149,
        "14889": 78,
        "14890": 222,
        "14891": 231,
        "14892": 49,
        "14893": 231,
        "14894": 21,
        "14895": 73,
        "14896": 236,
        "14897": 87,
        "14898": 199,
        "14899": 118,
        "14900": 40,
        "14901": 197,
        "14902": 243,
        "14903": 246,
        "14904": 40,
        "14905": 137,
        "14906": 90,
        "14907": 233,
        "14908": 159,
        "14909": 231,
        "14910": 182,
        "14911": 142,
        "14912": 148,
        "14913": 54,
        "14914": 23,
        "14915": 140,
        "14916": 181,
        "14917": 146,
        "14918": 155,
        "14919": 165,
        "14920": 13,
        "14921": 124,
        "14922": 181,
        "14923": 225,
        "14924": 119,
        "14925": 206,
        "14926": 50,
        "14927": 101,
        "14928": 252,
        "14929": 89,
        "14930": 184,
        "14931": 214,
        "14932": 68,
        "14933": 83,
        "14934": 147,
        "14935": 66,
        "14936": 104,
        "14937": 129,
        "14938": 32,
        "14939": 238,
        "14940": 75,
        "14941": 91,
        "14942": 219,
        "14943": 230,
        "14944": 166,
        "14945": 60,
        "14946": 19,
        "14947": 40,
        "14948": 239,
        "14949": 121,
        "14950": 219,
        "14951": 179,
        "14952": 241,
        "14953": 154,
        "14954": 63,
        "14955": 246,
        "14956": 217,
        "14957": 65,
        "14958": 189,
        "14959": 181,
        "14960": 85,
        "14961": 4,
        "14962": 144,
        "14963": 212,
        "14964": 34,
        "14965": 16,
        "14966": 18,
        "14967": 252,
        "14968": 119,
        "14969": 178,
        "14970": 242,
        "14971": 78,
        "14972": 92,
        "14973": 206,
        "14974": 247,
        "14975": 250,
        "14976": 43,
        "14977": 179,
        "14978": 239,
        "14979": 246,
        "14980": 128,
        "14981": 254,
        "14982": 6,
        "14983": 130,
        "14984": 127,
        "14985": 157,
        "14986": 196,
        "14987": 214,
        "14988": 136,
        "14989": 51,
        "14990": 74,
        "14991": 37,
        "14992": 67,
        "14993": 50,
        "14994": 115,
        "14995": 251,
        "14996": 65,
        "14997": 46,
        "14998": 180,
        "14999": 30,
        "15000": 118,
        "15001": 9,
        "15002": 223,
        "15003": 140,
        "15004": 254,
        "15005": 65,
        "15006": 83,
        "15007": 53,
        "15008": 199,
        "15009": 95,
        "15010": 127,
        "15011": 167,
        "15012": 150,
        "15013": 192,
        "15014": 140,
        "15015": 222,
        "15016": 198,
        "15017": 46,
        "15018": 156,
        "15019": 152,
        "15020": 71,
        "15021": 59,
        "15022": 74,
        "15023": 247,
        "15024": 101,
        "15025": 245,
        "15026": 38,
        "15027": 17,
        "15028": 129,
        "15029": 44,
        "15030": 240,
        "15031": 69,
        "15032": 102,
        "15033": 35,
        "15034": 232,
        "15035": 121,
        "15036": 97,
        "15037": 25,
        "15038": 71,
        "15039": 10,
        "15040": 104,
        "15041": 239,
        "15042": 239,
        "15043": 125,
        "15044": 248,
        "15045": 18,
        "15046": 71,
        "15047": 150,
        "15048": 47,
        "15049": 24,
        "15050": 135,
        "15051": 171,
        "15052": 181,
        "15053": 144,
        "15054": 162,
        "15055": 241,
        "15056": 184,
        "15057": 193,
        "15058": 212,
        "15059": 59,
        "15060": 241,
        "15061": 243,
        "15062": 2,
        "15063": 100,
        "15064": 6,
        "15065": 218,
        "15066": 97,
        "15067": 48,
        "15068": 232,
        "15069": 216,
        "15070": 91,
        "15071": 107,
        "15072": 10,
        "15073": 250,
        "15074": 236,
        "15075": 251,
        "15076": 2,
        "15077": 67,
        "15078": 95,
        "15079": 36,
        "15080": 73,
        "15081": 233,
        "15082": 217,
        "15083": 73,
        "15084": 20,
        "15085": 144,
        "15086": 122,
        "15087": 34,
        "15088": 181,
        "15089": 193,
        "15090": 146,
        "15091": 230,
        "15092": 7,
        "15093": 14,
        "15094": 72,
        "15095": 27,
        "15096": 93,
        "15097": 220,
        "15098": 180,
        "15099": 178,
        "15100": 161,
        "15101": 183,
        "15102": 161,
        "15103": 75,
        "15104": 135,
        "15105": 201,
        "15106": 225,
        "15107": 110,
        "15108": 196,
        "15109": 208,
        "15110": 84,
        "15111": 89,
        "15112": 126,
        "15113": 207,
        "15114": 128,
        "15115": 203,
        "15116": 43,
        "15117": 205,
        "15118": 205,
        "15119": 222,
        "15120": 139,
        "15121": 59,
        "15122": 127,
        "15123": 207,
        "15124": 24,
        "15125": 72,
        "15126": 69,
        "15127": 86,
        "15128": 112,
        "15129": 144,
        "15130": 179,
        "15131": 6,
        "15132": 145,
        "15133": 255,
        "15134": 217,
        "15135": 170,
        "15136": 85,
        "15137": 7,
        "15138": 179,
        "15139": 193,
        "15140": 17,
        "15141": 58,
        "15142": 139,
        "15143": 177,
        "15144": 73,
        "15145": 205,
        "15146": 158,
        "15147": 30,
        "15148": 102,
        "15149": 101,
        "15150": 177,
        "15151": 8,
        "15152": 95,
        "15153": 197,
        "15154": 189,
        "15155": 92,
        "15156": 97,
        "15157": 77,
        "15158": 97,
        "15159": 147,
        "15160": 126,
        "15161": 52,
        "15162": 201,
        "15163": 205,
        "15164": 223,
        "15165": 201,
        "15166": 139,
        "15167": 104,
        "15168": 57,
        "15169": 194,
        "15170": 39,
        "15171": 134,
        "15172": 182,
        "15173": 253,
        "15174": 19,
        "15175": 182,
        "15176": 13,
        "15177": 230,
        "15178": 148,
        "15179": 11,
        "15180": 192,
        "15181": 17,
        "15182": 7,
        "15183": 177,
        "15184": 34,
        "15185": 198,
        "15186": 177,
        "15187": 225,
        "15188": 39,
        "15189": 148,
        "15190": 137,
        "15191": 111,
        "15192": 166,
        "15193": 32,
        "15194": 183,
        "15195": 172,
        "15196": 124,
        "15197": 61,
        "15198": 72,
        "15199": 58,
        "15200": 162,
        "15201": 49,
        "15202": 163,
        "15203": 87,
        "15204": 218,
        "15205": 216,
        "15206": 253,
        "15207": 27,
        "15208": 112,
        "15209": 91,
        "15210": 92,
        "15211": 100,
        "15212": 155,
        "15213": 184,
        "15214": 33,
        "15215": 92,
        "15216": 119,
        "15217": 237,
        "15218": 34,
        "15219": 40,
        "15220": 232,
        "15221": 114,
        "15222": 197,
        "15223": 149,
        "15224": 20,
        "15225": 242,
        "15226": 62,
        "15227": 61,
        "15228": 236,
        "15229": 146,
        "15230": 174,
        "15231": 222,
        "15232": 158,
        "15233": 50,
        "15234": 115,
        "15235": 62,
        "15236": 193,
        "15237": 197,
        "15238": 82,
        "15239": 125,
        "15240": 0,
        "15241": 210,
        "15242": 92,
        "15243": 98,
        "15244": 177,
        "15245": 128,
        "15246": 114,
        "15247": 91,
        "15248": 248,
        "15249": 218,
        "15250": 217,
        "15251": 10,
        "15252": 193,
        "15253": 114,
        "15254": 1,
        "15255": 10,
        "15256": 252,
        "15257": 87,
        "15258": 108,
        "15259": 150,
        "15260": 231,
        "15261": 8,
        "15262": 186,
        "15263": 49,
        "15264": 168,
        "15265": 214,
        "15266": 117,
        "15267": 255,
        "15268": 82,
        "15269": 238,
        "15270": 64,
        "15271": 249,
        "15272": 66,
        "15273": 243,
        "15274": 131,
        "15275": 143,
        "15276": 145,
        "15277": 202,
        "15278": 74,
        "15279": 5,
        "15280": 222,
        "15281": 2,
        "15282": 215,
        "15283": 159,
        "15284": 187,
        "15285": 228,
        "15286": 172,
        "15287": 21,
        "15288": 175,
        "15289": 188,
        "15290": 185,
        "15291": 52,
        "15292": 88,
        "15293": 48,
        "15294": 250,
        "15295": 242,
        "15296": 228,
        "15297": 172,
        "15298": 77,
        "15299": 162,
        "15300": 51,
        "15301": 61,
        "15302": 210,
        "15303": 215,
        "15304": 117,
        "15305": 19,
        "15306": 197,
        "15307": 223,
        "15308": 194,
        "15309": 25,
        "15310": 50,
        "15311": 183,
        "15312": 153,
        "15313": 24,
        "15314": 91,
        "15315": 17,
        "15316": 200,
        "15317": 69,
        "15318": 232,
        "15319": 92,
        "15320": 100,
        "15321": 239,
        "15322": 82,
        "15323": 66,
        "15324": 60,
        "15325": 153,
        "15326": 203,
        "15327": 18,
        "15328": 46,
        "15329": 91,
        "15330": 84,
        "15331": 48,
        "15332": 128,
        "15333": 237,
        "15334": 172,
        "15335": 23,
        "15336": 71,
        "15337": 76,
        "15338": 77,
        "15339": 32,
        "15340": 206,
        "15341": 74,
        "15342": 151,
        "15343": 16,
        "15344": 2,
        "15345": 183,
        "15346": 111,
        "15347": 74,
        "15348": 131,
        "15349": 135,
        "15350": 249,
        "15351": 197,
        "15352": 2,
        "15353": 78,
        "15354": 80,
        "15355": 195,
        "15356": 106,
        "15357": 225,
        "15358": 167,
        "15359": 223,
        "15360": 108,
        "15361": 42,
        "15362": 170,
        "15363": 208,
        "15364": 3,
        "15365": 43,
        "15366": 9,
        "15367": 232,
        "15368": 22,
        "15369": 149,
        "15370": 121,
        "15371": 118,
        "15372": 147,
        "15373": 64,
        "15374": 115,
        "15375": 224,
        "15376": 140,
        "15377": 241,
        "15378": 60,
        "15379": 218,
        "15380": 51,
        "15381": 138,
        "15382": 10,
        "15383": 204,
        "15384": 24,
        "15385": 51,
        "15386": 54,
        "15387": 48,
        "15388": 191,
        "15389": 222,
        "15390": 13,
        "15391": 138,
        "15392": 81,
        "15393": 174,
        "15394": 227,
        "15395": 219,
        "15396": 245,
        "15397": 246,
        "15398": 46,
        "15399": 245,
        "15400": 210,
        "15401": 20,
        "15402": 120,
        "15403": 11,
        "15404": 201,
        "15405": 127,
        "15406": 121,
        "15407": 215,
        "15408": 180,
        "15409": 2,
        "15410": 239,
        "15411": 32,
        "15412": 42,
        "15413": 55,
        "15414": 226,
        "15415": 156,
        "15416": 112,
        "15417": 121,
        "15418": 33,
        "15419": 128,
        "15420": 150,
        "15421": 200,
        "15422": 27,
        "15423": 22,
        "15424": 93,
        "15425": 4,
        "15426": 70,
        "15427": 218,
        "15428": 101,
        "15429": 28,
        "15430": 242,
        "15431": 149,
        "15432": 144,
        "15433": 82,
        "15434": 154,
        "15435": 78,
        "15436": 225,
        "15437": 119,
        "15438": 77,
        "15439": 163,
        "15440": 18,
        "15441": 195,
        "15442": 238,
        "15443": 77,
        "15444": 135,
        "15445": 119,
        "15446": 115,
        "15447": 29,
        "15448": 81,
        "15449": 46,
        "15450": 118,
        "15451": 60,
        "15452": 143,
        "15453": 145,
        "15454": 129,
        "15455": 94,
        "15456": 208,
        "15457": 124,
        "15458": 35,
        "15459": 54,
        "15460": 125,
        "15461": 30,
        "15462": 222,
        "15463": 65,
        "15464": 250,
        "15465": 164,
        "15466": 60,
        "15467": 18,
        "15468": 40,
        "15469": 169,
        "15470": 64,
        "15471": 168,
        "15472": 56,
        "15473": 50,
        "15474": 54,
        "15475": 75,
        "15476": 251,
        "15477": 124,
        "15478": 157,
        "15479": 136,
        "15480": 16,
        "15481": 108,
        "15482": 122,
        "15483": 98,
        "15484": 8,
        "15485": 73,
        "15486": 114,
        "15487": 141,
        "15488": 198,
        "15489": 16,
        "15490": 87,
        "15491": 81,
        "15492": 180,
        "15493": 14,
        "15494": 147,
        "15495": 168,
        "15496": 90,
        "15497": 195,
        "15498": 174,
        "15499": 191,
        "15500": 154,
        "15501": 241,
        "15502": 185,
        "15503": 230,
        "15504": 176,
        "15505": 148,
        "15506": 233,
        "15507": 204,
        "15508": 28,
        "15509": 119,
        "15510": 169,
        "15511": 16,
        "15512": 186,
        "15513": 245,
        "15514": 125,
        "15515": 75,
        "15516": 17,
        "15517": 158,
        "15518": 200,
        "15519": 100,
        "15520": 86,
        "15521": 1,
        "15522": 16,
        "15523": 114,
        "15524": 159,
        "15525": 1,
        "15526": 102,
        "15527": 210,
        "15528": 222,
        "15529": 117,
        "15530": 233,
        "15531": 64,
        "15532": 118,
        "15533": 235,
        "15534": 142,
        "15535": 174,
        "15536": 49,
        "15537": 221,
        "15538": 79,
        "15539": 159,
        "15540": 65,
        "15541": 191,
        "15542": 175,
        "15543": 91,
        "15544": 186,
        "15545": 234,
        "15546": 184,
        "15547": 198,
        "15548": 181,
        "15549": 141,
        "15550": 148,
        "15551": 77,
        "15552": 124,
        "15553": 32,
        "15554": 223,
        "15555": 89,
        "15556": 14,
        "15557": 252,
        "15558": 194,
        "15559": 172,
        "15560": 6,
        "15561": 77,
        "15562": 6,
        "15563": 35,
        "15564": 47,
        "15565": 188,
        "15566": 34,
        "15567": 60,
        "15568": 58,
        "15569": 171,
        "15570": 15,
        "15571": 214,
        "15572": 39,
        "15573": 72,
        "15574": 134,
        "15575": 115,
        "15576": 52,
        "15577": 33,
        "15578": 138,
        "15579": 121,
        "15580": 139,
        "15581": 0,
        "15582": 137,
        "15583": 253,
        "15584": 18,
        "15585": 251,
        "15586": 132,
        "15587": 109,
        "15588": 190,
        "15589": 85,
        "15590": 226,
        "15591": 188,
        "15592": 126,
        "15593": 233,
        "15594": 159,
        "15595": 209,
        "15596": 228,
        "15597": 137,
        "15598": 54,
        "15599": 54,
        "15600": 158,
        "15601": 104,
        "15602": 182,
        "15603": 66,
        "15604": 32,
        "15605": 99,
        "15606": 180,
        "15607": 77,
        "15608": 61,
        "15609": 121,
        "15610": 98,
        "15611": 227,
        "15612": 250,
        "15613": 122,
        "15614": 187,
        "15615": 178,
        "15616": 5,
        "15617": 26,
        "15618": 109,
        "15619": 106,
        "15620": 120,
        "15621": 42,
        "15622": 222,
        "15623": 13,
        "15624": 137,
        "15625": 204,
        "15626": 73,
        "15627": 158,
        "15628": 252,
        "15629": 185,
        "15630": 82,
        "15631": 61,
        "15632": 144,
        "15633": 112,
        "15634": 237,
        "15635": 50,
        "15636": 19,
        "15637": 173,
        "15638": 186,
        "15639": 75,
        "15640": 132,
        "15641": 133,
        "15642": 51,
        "15643": 96,
        "15644": 10,
        "15645": 117,
        "15646": 249,
        "15647": 39,
        "15648": 37,
        "15649": 175,
        "15650": 41,
        "15651": 50,
        "15652": 6,
        "15653": 70,
        "15654": 183,
        "15655": 186,
        "15656": 194,
        "15657": 79,
        "15658": 182,
        "15659": 220,
        "15660": 165,
        "15661": 56,
        "15662": 36,
        "15663": 194,
        "15664": 189,
        "15665": 153,
        "15666": 95,
        "15667": 18,
        "15668": 169,
        "15669": 247,
        "15670": 16,
        "15671": 38,
        "15672": 170,
        "15673": 122,
        "15674": 47,
        "15675": 125,
        "15676": 194,
        "15677": 255,
        "15678": 99,
        "15679": 55,
        "15680": 68,
        "15681": 111,
        "15682": 2,
        "15683": 116,
        "15684": 110,
        "15685": 116,
        "15686": 202,
        "15687": 237,
        "15688": 32,
        "15689": 137,
        "15690": 189,
        "15691": 166,
        "15692": 109,
        "15693": 47,
        "15694": 192,
        "15695": 227,
        "15696": 95,
        "15697": 161,
        "15698": 143,
        "15699": 230,
        "15700": 166,
        "15701": 45,
        "15702": 205,
        "15703": 132,
        "15704": 154,
        "15705": 106,
        "15706": 165,
        "15707": 15,
        "15708": 237,
        "15709": 45,
        "15710": 116,
        "15711": 129,
        "15712": 185,
        "15713": 83,
        "15714": 104,
        "15715": 100,
        "15716": 145,
        "15717": 134,
        "15718": 208,
        "15719": 242,
        "15720": 3,
        "15721": 0,
        "15722": 240,
        "15723": 138,
        "15724": 193,
        "15725": 158,
        "15726": 7,
        "15727": 93,
        "15728": 150,
        "15729": 174,
        "15730": 226,
        "15731": 170,
        "15732": 56,
        "15733": 149,
        "15734": 243,
        "15735": 183,
        "15736": 209,
        "15737": 59,
        "15738": 141,
        "15739": 49,
        "15740": 6,
        "15741": 123,
        "15742": 252,
        "15743": 116,
        "15744": 200,
        "15745": 211,
        "15746": 4,
        "15747": 16,
        "15748": 217,
        "15749": 89,
        "15750": 115,
        "15751": 169,
        "15752": 87,
        "15753": 206,
        "15754": 147,
        "15755": 131,
        "15756": 232,
        "15757": 196,
        "15758": 50,
        "15759": 171,
        "15760": 161,
        "15761": 131,
        "15762": 238,
        "15763": 59,
        "15764": 191,
        "15765": 13,
        "15766": 112,
        "15767": 142,
        "15768": 75,
        "15769": 196,
        "15770": 97,
        "15771": 45,
        "15772": 9,
        "15773": 140,
        "15774": 233,
        "15775": 114,
        "15776": 126,
        "15777": 19,
        "15778": 202,
        "15779": 11,
        "15780": 109,
        "15781": 182,
        "15782": 165,
        "15783": 221,
        "15784": 9,
        "15785": 183,
        "15786": 72,
        "15787": 251,
        "15788": 144,
        "15789": 118,
        "15790": 179,
        "15791": 181,
        "15792": 165,
        "15793": 167,
        "15794": 77,
        "15795": 166,
        "15796": 34,
        "15797": 114,
        "15798": 56,
        "15799": 84,
        "15800": 205,
        "15801": 62,
        "15802": 217,
        "15803": 226,
        "15804": 193,
        "15805": 141,
        "15806": 230,
        "15807": 107,
        "15808": 168,
        "15809": 48,
        "15810": 48,
        "15811": 128,
        "15812": 30,
        "15813": 159,
        "15814": 92,
        "15815": 63,
        "15816": 75,
        "15817": 229,
        "15818": 12,
        "15819": 200,
        "15820": 23,
        "15821": 103,
        "15822": 207,
        "15823": 21,
        "15824": 236,
        "15825": 127,
        "15826": 1,
        "15827": 22,
        "15828": 232,
        "15829": 3,
        "15830": 76,
        "15831": 208,
        "15832": 20,
        "15833": 91,
        "15834": 236,
        "15835": 129,
        "15836": 152,
        "15837": 79,
        "15838": 210,
        "15839": 2,
        "15840": 140,
        "15841": 195,
        "15842": 224,
        "15843": 90,
        "15844": 28,
        "15845": 85,
        "15846": 122,
        "15847": 43,
        "15848": 115,
        "15849": 131,
        "15850": 142,
        "15851": 17,
        "15852": 233,
        "15853": 212,
        "15854": 164,
        "15855": 7,
        "15856": 167,
        "15857": 192,
        "15858": 178,
        "15859": 62,
        "15860": 111,
        "15861": 125,
        "15862": 8,
        "15863": 109,
        "15864": 17,
        "15865": 81,
        "15866": 117,
        "15867": 143,
        "15868": 80,
        "15869": 170,
        "15870": 110,
        "15871": 165,
        "15872": 179,
        "15873": 139,
        "15874": 132,
        "15875": 151,
        "15876": 202,
        "15877": 201,
        "15878": 41,
        "15879": 175,
        "15880": 16,
        "15881": 109,
        "15882": 231,
        "15883": 94,
        "15884": 223,
        "15885": 227,
        "15886": 116,
        "15887": 0,
        "15888": 174,
        "15889": 140,
        "15890": 221,
        "15891": 214,
        "15892": 107,
        "15893": 4,
        "15894": 211,
        "15895": 205,
        "15896": 140,
        "15897": 190,
        "15898": 181,
        "15899": 5,
        "15900": 200,
        "15901": 40,
        "15902": 216,
        "15903": 134,
        "15904": 90,
        "15905": 145,
        "15906": 186,
        "15907": 69,
        "15908": 26,
        "15909": 62,
        "15910": 158,
        "15911": 216,
        "15912": 204,
        "15913": 82,
        "15914": 218,
        "15915": 224,
        "15916": 52,
        "15917": 55,
        "15918": 138,
        "15919": 169,
        "15920": 69,
        "15921": 205,
        "15922": 21,
        "15923": 94,
        "15924": 67,
        "15925": 115,
        "15926": 108,
        "15927": 202,
        "15928": 17,
        "15929": 77,
        "15930": 14,
        "15931": 138,
        "15932": 243,
        "15933": 28,
        "15934": 214,
        "15935": 130,
        "15936": 198,
        "15937": 192,
        "15938": 88,
        "15939": 247,
        "15940": 164,
        "15941": 209,
        "15942": 209,
        "15943": 37,
        "15944": 159,
        "15945": 236,
        "15946": 7,
        "15947": 15,
        "15948": 63,
        "15949": 224,
        "15950": 9,
        "15951": 141,
        "15952": 180,
        "15953": 140,
        "15954": 14,
        "15955": 25,
        "15956": 126,
        "15957": 132,
        "15958": 17,
        "15959": 45,
        "15960": 216,
        "15961": 23,
        "15962": 57,
        "15963": 78,
        "15964": 50,
        "15965": 205,
        "15966": 152,
        "15967": 198,
        "15968": 191,
        "15969": 190,
        "15970": 214,
        "15971": 119,
        "15972": 225,
        "15973": 103,
        "15974": 118,
        "15975": 63,
        "15976": 167,
        "15977": 248,
        "15978": 199,
        "15979": 96,
        "15980": 220,
        "15981": 115,
        "15982": 251,
        "15983": 48,
        "15984": 164,
        "15985": 228,
        "15986": 234,
        "15987": 189,
        "15988": 120,
        "15989": 96,
        "15990": 233,
        "15991": 68,
        "15992": 131,
        "15993": 41,
        "15994": 151,
        "15995": 201,
        "15996": 190,
        "15997": 19,
        "15998": 28,
        "15999": 78,
        "16000": 117,
        "16001": 138,
        "16002": 138,
        "16003": 22,
        "16004": 8,
        "16005": 98,
        "16006": 34,
        "16007": 215,
        "16008": 228,
        "16009": 151,
        "16010": 207,
        "16011": 195,
        "16012": 58,
        "16013": 34,
        "16014": 186,
        "16015": 65,
        "16016": 235,
        "16017": 220,
        "16018": 234,
        "16019": 215,
        "16020": 97,
        "16021": 8,
        "16022": 85,
        "16023": 169,
        "16024": 95,
        "16025": 184,
        "16026": 27,
        "16027": 161,
        "16028": 215,
        "16029": 216,
        "16030": 26,
        "16031": 116,
        "16032": 163,
        "16033": 244,
        "16034": 62,
        "16035": 48,
        "16036": 36,
        "16037": 138,
        "16038": 130,
        "16039": 184,
        "16040": 116,
        "16041": 61,
        "16042": 108,
        "16043": 223,
        "16044": 30,
        "16045": 6,
        "16046": 156,
        "16047": 153,
        "16048": 154,
        "16049": 151,
        "16050": 108,
        "16051": 69,
        "16052": 237,
        "16053": 167,
        "16054": 220,
        "16055": 65,
        "16056": 225,
        "16057": 19,
        "16058": 157,
        "16059": 134,
        "16060": 22,
        "16061": 156,
        "16062": 120,
        "16063": 227,
        "16064": 94,
        "16065": 177,
        "16066": 225,
        "16067": 108,
        "16068": 216,
        "16069": 184,
        "16070": 233,
        "16071": 23,
        "16072": 27,
        "16073": 23,
        "16074": 31,
        "16075": 248,
        "16076": 136,
        "16077": 190,
        "16078": 22,
        "16079": 124,
        "16080": 19,
        "16081": 167,
        "16082": 35,
        "16083": 148,
        "16084": 172,
        "16085": 165,
        "16086": 32,
        "16087": 215,
        "16088": 173,
        "16089": 185,
        "16090": 89,
        "16091": 6,
        "16092": 97,
        "16093": 205,
        "16094": 21,
        "16095": 223,
        "16096": 145,
        "16097": 196,
        "16098": 19,
        "16099": 235,
        "16100": 81,
        "16101": 203,
        "16102": 142,
        "16103": 210,
        "16104": 8,
        "16105": 231,
        "16106": 129,
        "16107": 114,
        "16108": 190,
        "16109": 126,
        "16110": 46,
        "16111": 4,
        "16112": 136,
        "16113": 34,
        "16114": 203,
        "16115": 189,
        "16116": 228,
        "16117": 131,
        "16118": 234,
        "16119": 52,
        "16120": 186,
        "16121": 140,
        "16122": 200,
        "16123": 68,
        "16124": 209,
        "16125": 225,
        "16126": 73,
        "16127": 176,
        "16128": 13,
        "16129": 205,
        "16130": 73,
        "16131": 39,
        "16132": 15,
        "16133": 141,
        "16134": 79,
        "16135": 49,
        "16136": 227,
        "16137": 114,
        "16138": 196,
        "16139": 103,
        "16140": 53,
        "16141": 229,
        "16142": 229,
        "16143": 168,
        "16144": 196,
        "16145": 130,
        "16146": 232,
        "16147": 218,
        "16148": 45,
        "16149": 164,
        "16150": 150,
        "16151": 34,
        "16152": 131,
        "16153": 153,
        "16154": 200,
        "16155": 128,
        "16156": 246,
        "16157": 116,
        "16158": 227,
        "16159": 120,
        "16160": 223,
        "16161": 26,
        "16162": 145,
        "16163": 82,
        "16164": 163,
        "16165": 58,
        "16166": 34,
        "16167": 91,
        "16168": 67,
        "16169": 97,
        "16170": 230,
        "16171": 139,
        "16172": 19,
        "16173": 187,
        "16174": 138,
        "16175": 192,
        "16176": 191,
        "16177": 189,
        "16178": 33,
        "16179": 229,
        "16180": 188,
        "16181": 16,
        "16182": 29,
        "16183": 226,
        "16184": 160,
        "16185": 203,
        "16186": 193,
        "16187": 73,
        "16188": 132,
        "16189": 190,
        "16190": 95,
        "16191": 213,
        "16192": 34,
        "16193": 1,
        "16194": 88,
        "16195": 160,
        "16196": 32,
        "16197": 110,
        "16198": 14,
        "16199": 243,
        "16200": 117,
        "16201": 137,
        "16202": 69,
        "16203": 180,
        "16204": 174,
        "16205": 241,
        "16206": 110,
        "16207": 249,
        "16208": 94,
        "16209": 191,
        "16210": 14,
        "16211": 179,
        "16212": 7,
        "16213": 143,
        "16214": 8,
        "16215": 225,
        "16216": 158,
        "16217": 171,
        "16218": 186,
        "16219": 133,
        "16220": 91,
        "16221": 91,
        "16222": 212,
        "16223": 199,
        "16224": 112,
        "16225": 220,
        "16226": 18,
        "16227": 199,
        "16228": 150,
        "16229": 160,
        "16230": 219,
        "16231": 9,
        "16232": 52,
        "16233": 12,
        "16234": 70,
        "16235": 10,
        "16236": 133,
        "16237": 148,
        "16238": 249,
        "16239": 249,
        "16240": 142,
        "16241": 60,
        "16242": 209,
        "16243": 105,
        "16244": 50,
        "16245": 213,
        "16246": 91,
        "16247": 186,
        "16248": 114,
        "16249": 205,
        "16250": 244,
        "16251": 249,
        "16252": 167,
        "16253": 102,
        "16254": 37,
        "16255": 188,
        "16256": 96,
        "16257": 141,
        "16258": 159,
        "16259": 91,
        "16260": 183,
        "16261": 104,
        "16262": 217,
        "16263": 234,
        "16264": 249,
        "16265": 22,
        "16266": 231,
        "16267": 1,
        "16268": 45,
        "16269": 217,
        "16270": 154,
        "16271": 132,
        "16272": 93,
        "16273": 226,
        "16274": 98,
        "16275": 38,
        "16276": 139,
        "16277": 66,
        "16278": 137,
        "16279": 166,
        "16280": 143,
        "16281": 214,
        "16282": 206,
        "16283": 248,
        "16284": 159,
        "16285": 87,
        "16286": 150,
        "16287": 40,
        "16288": 63,
        "16289": 9,
        "16290": 0,
        "16291": 96,
        "16292": 121,
        "16293": 1,
        "16294": 105,
        "16295": 185,
        "16296": 201,
        "16297": 143,
        "16298": 125,
        "16299": 86,
        "16300": 70,
        "16301": 215,
        "16302": 117,
        "16303": 25,
        "16304": 152,
        "16305": 249,
        "16306": 145,
        "16307": 157,
        "16308": 78,
        "16309": 130,
        "16310": 186,
        "16311": 124,
        "16312": 206,
        "16313": 142,
        "16314": 122,
        "16315": 208,
        "16316": 13,
        "16317": 132,
        "16318": 90,
        "16319": 153,
        "16320": 117,
        "16321": 151,
        "16322": 79,
        "16323": 209,
        "16324": 22,
        "16325": 165,
        "16326": 220,
        "16327": 32,
        "16328": 55,
        "16329": 173,
        "16330": 172,
        "16331": 26,
        "16332": 138,
        "16333": 231,
        "16334": 126,
        "16335": 36,
        "16336": 145,
        "16337": 131,
        "16338": 51,
        "16339": 50,
        "16340": 214,
        "16341": 147,
        "16342": 76,
        "16343": 159,
        "16344": 61,
        "16345": 18,
        "16346": 103,
        "16347": 64,
        "16348": 24,
        "16349": 54,
        "16350": 233,
        "16351": 226,
        "16352": 22,
        "16353": 159,
        "16354": 132,
        "16355": 86,
        "16356": 17,
        "16357": 163,
        "16358": 62,
        "16359": 39,
        "16360": 31,
        "16361": 74,
        "16362": 17,
        "16363": 127,
        "16364": 238,
        "16365": 100,
        "16366": 129,
        "16367": 198,
        "16368": 105,
        "16369": 35,
        "16370": 126,
        "16371": 60,
        "16372": 240,
        "16373": 236,
        "16374": 129,
        "16375": 21,
        "16376": 219,
        "16377": 28,
        "16378": 223,
        "16379": 115,
        "16380": 190,
        "16381": 127,
        "16382": 89,
        "16383": 40,
        "16384": 151,
        "16385": 186,
        "16386": 79,
        "16387": 152,
        "16388": 20,
        "16389": 96,
        "16390": 190,
        "16391": 15,
        "16392": 250,
        "16393": 103,
        "16394": 15,
        "16395": 233,
        "16396": 94,
        "16397": 94,
        "16398": 36,
        "16399": 45,
        "16400": 222,
        "16401": 201,
        "16402": 240,
        "16403": 126,
        "16404": 33,
        "16405": 113,
        "16406": 128,
        "16407": 63,
        "16408": 159,
        "16409": 41,
        "16410": 155,
        "16411": 202,
        "16412": 50,
        "16413": 111,
        "16414": 15,
        "16415": 129,
        "16416": 141,
        "16417": 60,
        "16418": 36,
        "16419": 178,
        "16420": 101,
        "16421": 255,
        "16422": 32,
        "16423": 144,
        "16424": 236,
        "16425": 12,
        "16426": 155,
        "16427": 11,
        "16428": 143,
        "16429": 103,
        "16430": 12,
        "16431": 14,
        "16432": 206,
        "16433": 252,
        "16434": 156,
        "16435": 9,
        "16436": 39,
        "16437": 179,
        "16438": 216,
        "16439": 234,
        "16440": 163,
        "16441": 215,
        "16442": 21,
        "16443": 14,
        "16444": 215,
        "16445": 250,
        "16446": 153,
        "16447": 172,
        "16448": 230,
        "16449": 162,
        "16450": 195,
        "16451": 159,
        "16452": 91,
        "16453": 57,
        "16454": 131,
        "16455": 118,
        "16456": 0,
        "16457": 12,
        "16458": 2,
        "16459": 32,
        "16460": 145,
        "16461": 31,
        "16462": 0,
        "16463": 110,
        "16464": 184,
        "16465": 108,
        "16466": 172,
        "16467": 62,
        "16468": 227,
        "16469": 35,
        "16470": 124,
        "16471": 147,
        "16472": 19,
        "16473": 58,
        "16474": 147,
        "16475": 159,
        "16476": 114,
        "16477": 196,
        "16478": 95,
        "16479": 173,
        "16480": 65,
        "16481": 240,
        "16482": 165,
        "16483": 148,
        "16484": 182,
        "16485": 37,
        "16486": 68,
        "16487": 183,
        "16488": 55,
        "16489": 118,
        "16490": 249,
        "16491": 120,
        "16492": 154,
        "16493": 231,
        "16494": 103,
        "16495": 74,
        "16496": 169,
        "16497": 140,
        "16498": 150,
        "16499": 48,
        "16500": 230,
        "16501": 251,
        "16502": 168,
        "16503": 223,
        "16504": 19,
        "16505": 217,
        "16506": 42,
        "16507": 138,
        "16508": 145,
        "16509": 17,
        "16510": 14,
        "16511": 194,
        "16512": 112,
        "16513": 231,
        "16514": 15,
        "16515": 215,
        "16516": 213,
        "16517": 103,
        "16518": 115,
        "16519": 46,
        "16520": 1,
        "16521": 8,
        "16522": 0,
        "16523": 0,
        "16524": 0,
        "16525": 0,
        "16526": 0,
        "16527": 0,
        "16528": 16,
        "16529": 0,
        "16530": 0,
        "16531": 0,
        "16532": 0,
        "16533": 0,
        "16534": 0,
        "16535": 0,
        "16536": 0,
        "16537": 0,
        "16538": 0,
        "16539": 0,
        "16540": 0,
        "16541": 0,
        "16542": 0,
        "16543": 0,
        "16544": 0,
        "16545": 0,
        "16546": 0,
        "16547": 0,
        "16548": 0,
        "16549": 0,
        "16550": 0,
        "16551": 0,
        "16552": 64,
        "16553": 0,
        "16554": 0,
        "16555": 0,
        "16556": 0,
        "16557": 0,
        "16558": 0,
        "16559": 0,
        "16560": 3,
        "16561": 0,
        "16562": 0,
        "16563": 0,
        "16564": 0,
        "16565": 0,
        "16566": 0,
        "16567": 0,
        "16568": 4,
        "16569": 0,
        "16570": 0,
        "16571": 0,
        "16572": 0,
        "16573": 0,
        "16574": 0,
        "16575": 0,
        "16576": 4,
        "16577": 0,
        "16578": 0,
        "16579": 0,
        "16580": 0,
        "16581": 0,
        "16582": 0,
        "16583": 0,
        "16584": 0,
        "16585": 0,
        "16586": 0,
        "16587": 0,
        "16588": 1,
        "16589": 0,
        "16590": 0,
        "16591": 0,
        "16592": 0,
        "16593": 0,
        "16594": 0,
        "16595": 0,
        "16596": 16,
        "16597": 0,
        "16598": 0,
        "16599": 0,
        "16600": 0,
        "16601": 0,
        "16602": 0,
        "16603": 0
      }
    }
  ],
  "numDeployments": 1,
  "solcInputHash": "c0e889dcb69b76266f445d0fe3402b92",
  "bytecode": "0x6101606040526200001760006200026660201b60201c565b6002553480156200002757600080fd5b50604051620046173803806200461783398181016040528101906200004d919062000b83565b6040518060400160405280600881526020017f46616b65205553440000000000000000000000000000000000000000000000008152506040518060400160405280600481526020017f6655534400000000000000000000000000000000000000000000000000000000815250338383836040518060400160405280601181526020017f4668656e6978205065726d697373696f6e0000000000000000000000000000008152506040518060400160405280600381526020017f312e3000000000000000000000000000000000000000000000000000000000008152506200013f6000836200028260201b90919060201c565b61012081815250506200015d6001826200028260201b90919060201c565b6101408181525050818051906020012060e08181525050808051906020012061010081815250504660a081815250506200019c620002da60201b60201c565b608081815250503073ffffffffffffffffffffffffffffffffffffffff1660c08173ffffffffffffffffffffffffffffffffffffffff168152505050508160059081620001ea919062000e1f565b508060069081620001fc919062000e1f565b505050600062000212826200033760201b60201c565b9050620002486200023c8262000230617fff6200026660201b60201c565b6200035560201b60201c565b620003f860201b60201c565b6200025a8382620004cb60201b60201c565b50505050505062001260565b60006200027b8260026200057160201b60201c565b9050919050565b6000602083511015620002a857620002a0836200062860201b60201c565b9050620002d4565b82620002ba836200069560201b60201c565b6000019081620002cb919062000e1f565b5060ff60001b90505b92915050565b60007f8b73c3c69bb8fe3d512ecc4cf759cc79239f7b179b0ffacaa9a75d522b39400f60e0516101005146306040516020016200031c95949392919062000f77565b60405160208183030381529060405280519060200120905090565b60006200034e82600001516200069f60201b60201c565b9050919050565b60006200036883620006bb60201b60201c565b62000382576200037f60006200026660201b60201c565b92505b6200039382620006bb60201b60201c565b620003ad57620003aa60006200026660201b60201c565b91505b600083905060008390506000620003ea60028484608073ffffffffffffffffffffffffffffffffffffffff1663eb274b77620006c860201b60201c565b905080935050505092915050565b62000409816200077960201b60201c565b62000423576200042060006200078660201b60201c565b90505b600081905060006200043b82620007a260201b60201c565b9050608073ffffffffffffffffffffffffffffffffffffffff16637d23f1db600d836040518363ffffffff1660e01b81526004016200047c9291906200104f565b600060405180830381865afa1580156200049a573d6000803e3d6000fd5b505050506040513d6000823e3d601f19601f82011682018060405250810190620004c5919062001083565b50505050565b62000516600360008473ffffffffffffffffffffffffffffffffffffffff1673ffffffffffffffffffffffffffffffffffffffff168152602001908152602001600020548262000803565b600360008473ffffffffffffffffffffffffffffffffffffffff1673ffffffffffffffffffffffffffffffffffffffff16815260200190815260200160002081905550620005676002548262000803565b6002819055505050565b60006060608073ffffffffffffffffffffffffffffffffffffffff166319e1c5c4620005a386620007a260201b60201c565b856040518363ffffffff1660e01b8152600401620005c3929190620010d4565b600060405180830381865afa158015620005e1573d6000803e3d6000fd5b505050506040513d6000823e3d601f19601f820116820180604052508101906200060c919062001083565b90506200061f816200081f60201b60201c565b91505092915050565b600080829050601f815111156200067857826040517f305a27a90000000000000000000000000000000000000000000000000000000081526004016200066f91906200115a565b60405180910390fd5b8051816200068690620011a5565b60001c1760001b915050919050565b6000819050919050565b6000620006b48260026200082d60201b60201c565b9050919050565b6000808214159050919050565b60006060838388620006e089620007a260201b60201c565b620006f189620007a260201b60201c565b6040518463ffffffff1660e01b8152600401620007119392919062001215565b600060405180830381865afa1580156200072f573d6000803e3d6000fd5b505050506040513d6000823e3d601f19601f820116820180604052508101906200075a919062001083565b90506200076d81620008d460201b60201c565b91505095945050505050565b6000808214159050919050565b60006200079b82600d6200057160201b60201c565b9050919050565b6060602067ffffffffffffffff811115620007c257620007c1620009ae565b5b6040519080825280601f01601f191660200182016040528015620007f55781602001600182028036833780820191505090505b509050816020820152919050565b6000620008178383620008e260201b60201c565b905092915050565b600060208201519050919050565b60006060608073ffffffffffffffffffffffffffffffffffffffff16635fa55ca784866040518363ffffffff1660e01b81526004016200086f9291906200104f565b600060405180830381865afa1580156200088d573d6000803e3d6000fd5b505050506040513d6000823e3d601f19601f82011682018060405250810190620008b8919062001083565b9050620008cb816200081f60201b60201c565b91505092915050565b600060208201519050919050565b6000620008f583620006bb60201b60201c565b6200090f576200090c60006200026660201b60201c565b92505b6200092082620006bb60201b60201c565b6200093a576200093760006200026660201b60201c565b91505b6000839050600083905060006200097660028484608073ffffffffffffffffffffffffffffffffffffffff16622df619620006c860201b60201c565b905080935050505092915050565b6000604051905090565b600080fd5b600080fd5b600080fd5b6000601f19601f8301169050919050565b7f4e487b7100000000000000000000000000000000000000000000000000000000600052604160045260246000fd5b620009e8826200099d565b810181811067ffffffffffffffff8211171562000a0a5762000a09620009ae565b5b80604052505050565b600062000a1f62000984565b905062000a2d8282620009dd565b919050565b600080fd5b600080fd5b600080fd5b600067ffffffffffffffff82111562000a5f5762000a5e620009ae565b5b62000a6a826200099d565b9050602081019050919050565b60005b8381101562000a9757808201518184015260208101905062000a7a565b60008484015250505050565b600062000aba62000ab48462000a41565b62000a13565b90508281526020810184848401111562000ad95762000ad862000a3c565b5b62000ae684828562000a77565b509392505050565b600082601f83011262000b065762000b0562000a37565b5b815162000b1884826020860162000aa3565b91505092915050565b60006020828403121562000b3a5762000b3962000998565b5b62000b46602062000a13565b9050600082015167ffffffffffffffff81111562000b695762000b6862000a32565b5b62000b778482850162000aee565b60008301525092915050565b60006020828403121562000b9c5762000b9b6200098e565b5b600082015167ffffffffffffffff81111562000bbd5762000bbc62000993565b5b62000bcb8482850162000b21565b91505092915050565b600081519050919050565b7f4e487b7100000000000000000000000000000000000000000000000000000000600052602260045260246000fd5b6000600282049050600182168062000c2757607f821691505b60208210810362000c3d5762000c3c62000bdf565b5b50919050565b60008190508160005260206000209050919050565b60006020601f8301049050919050565b600082821b905092915050565b60006008830262000ca77fffffffffffffffffffffffffffffffffffffffffffffffffffffffffffffffff8262000c68565b62000cb3868362000c68565b95508019841693508086168417925050509392505050565b6000819050919050565b6000819050919050565b600062000d0062000cfa62000cf48462000ccb565b62000cd5565b62000ccb565b9050919050565b6000819050919050565b62000d1c8362000cdf565b62000d3462000d2b8262000d07565b84845462000c75565b825550505050565b600090565b62000d4b62000d3c565b62000d5881848462000d11565b505050565b5b8181101562000d805762000d7460008262000d41565b60018101905062000d5e565b5050565b601f82111562000dcf5762000d998162000c43565b62000da48462000c58565b8101602085101562000db4578190505b62000dcc62000dc38562000c58565b83018262000d5d565b50505b505050565b600082821c905092915050565b600062000df46000198460080262000dd4565b1980831691505092915050565b600062000e0f838362000de1565b9150826002028217905092915050565b62000e2a8262000bd4565b67ffffffffffffffff81111562000e465762000e45620009ae565b5b62000e52825462000c0e565b62000e5f82828562000d84565b600060209050601f83116001811462000e97576000841562000e82578287015190505b62000e8e858262000e01565b86555062000efe565b601f19841662000ea78662000c43565b60005b8281101562000ed15784890151825560018201915060208501945060208101905062000eaa565b8683101562000ef1578489015162000eed601f89168262000de1565b8355505b6001600288020188555050505b505050505050565b6000819050919050565b62000f1b8162000f06565b82525050565b62000f2c8162000ccb565b82525050565b600073ffffffffffffffffffffffffffffffffffffffff82169050919050565b600062000f5f8262000f32565b9050919050565b62000f718162000f52565b82525050565b600060a08201905062000f8e600083018862000f10565b62000f9d602083018762000f10565b62000fac604083018662000f10565b62000fbb606083018562000f21565b62000fca608083018462000f66565b9695505050505050565b600060ff82169050919050565b62000fec8162000fd4565b82525050565b600081519050919050565b600082825260208201905092915050565b60006200101b8262000ff2565b62001027818562000ffd565b93506200103981856020860162000a77565b62001044816200099d565b840191505092915050565b600060408201905062001066600083018562000fe1565b81810360208301526200107a81846200100e565b90509392505050565b6000602082840312156200109c576200109b6200098e565b5b600082015167ffffffffffffffff811115620010bd57620010bc62000993565b5b620010cb8482850162000aee565b91505092915050565b60006040820190508181036000830152620010f081856200100e565b905062001101602083018462000fe1565b9392505050565b600082825260208201905092915050565b6000620011268262000bd4565b62001132818562001108565b93506200114481856020860162000a77565b6200114f816200099d565b840191505092915050565b6000602082019050818103600083015262001176818462001119565b905092915050565b6000819050602082019050919050565b60006200119c825162000f06565b80915050919050565b6000620011b28262000ff2565b82620011be846200117e565b9050620011cb816200118e565b925060208210156200120e57620012097fffffffffffffffffffffffffffffffffffffffffffffffffffffffffffffffff8360200360080262000c68565b831692505b5050919050565b60006060820190506200122c600083018662000fe1565b81810360208301526200124081856200100e565b905081810360408301526200125681846200100e565b9050949350505050565b60805160a05160c05160e05161010051610120516101405161335c620012bb60003960006118f5015260006118ba0152600061217f0152600061215e015260006119ea01526000611a4001526000611a69015261335c6000f3fe608060405234801561001057600080fd5b50600436106101425760003560e01c80637ecebe00116100b8578063a9059cbb1161007c578063a9059cbb146103b9578063af575a00146103e9578063c4224c1914610419578063d505accf14610449578063d918156e14610465578063dd62ed3e1461049557610142565b80637ecebe00146102fb57806384b0196e1461032b5780638624a3491461034f57806395d89b411461037f5780639f284be71461039d57610142565b80633644e5151161010a5780633644e5151461020157806339c217f71461021f5780635356c4291461024f578063602772041461027f5780636e0505e1146102af57806370a08231146102cb57610142565b806306fdde0314610147578063095ea7b31461016557806318160ddd1461019557806323b872dd146101b3578063313ce567146101e3575b600080fd5b61014f6104c5565b60405161015c9190612433565b60405180910390f35b61017f600480360381019061017a91906124fd565b610557565b60405161018c9190612558565b60405180910390f35b61019d6105ab565b6040516101aa9190612582565b60405180910390f35b6101cd60048036038101906101c8919061259d565b6105bd565b6040516101da9190612558565b60405180910390f35b6101eb610692565b6040516101f8919061260c565b60405180910390f35b610209610697565b6040516102169190612640565b60405180910390f35b6102396004803603810190610234919061267f565b610729565b6040516102469190612716565b60405180910390f35b61026960048036038101906102649190612750565b61074e565b6040516102769190612433565b60405180910390f35b61029960048036038101906102949190612983565b6108bf565b6040516102a69190612433565b60405180910390f35b6102c960048036038101906102c49190612a1b565b6109ec565b005b6102e560048036038101906102e09190612a48565b610b01565b6040516102f29190612582565b60405180910390f35b61031560048036038101906103109190612a48565b610b1c565b6040516103229190612582565b60405180910390f35b610333610b37565b6040516103469796959493929190612b7d565b60405180910390f35b61036960048036038101906103649190612c01565b610be1565b6040516103769190612716565b60405180910390f35b610387610c08565b6040516103949190612433565b60405180910390f35b6103b760048036038101906103b29190612a1b565b610c9a565b005b6103d360048036038101906103ce91906124fd565b610da7565b6040516103e09190612558565b60405180910390f35b61040360048036038101906103fe9190612c9c565b610e39565b6040516104109190612716565b60405180910390f35b610433600480360381019061042e9190612cef565b61118f565b6040516104409190612716565b60405180910390f35b610463600480360381019061045e9190612d5b565b611359565b005b61047f600480360381019061047a919061267f565b6114fd565b60405161048c9190612558565b60405180910390f35b6104af60048036038101906104aa9190612dfd565b6115f5565b6040516104bc9190612582565b60405180910390f35b6060600580546104d490612e6c565b80601f016020809104026020016040519081016040528092919081815260200182805461050090612e6c565b801561054d5780601f106105225761010080835404028352916020019161054d565b820191906000526020600020905b81548152906001019060200180831161053057829003601f168201915b5050505050905090565b600082602052637f5e9f20600c5233600052816034600c205581600052602c5160601c337f8c5be1e5ebec7d5bd14f71427d1e84f3dd0314c0f7b2291e5b200ac8c7c3b92560206000a36001905092915050565b60006805345cdf77eb68f44c54905090565b60006105ca848484611615565b8360601b33602052637f5e9f208117600c526034600c20805460018101156106085780851115610602576313be252b6000526004601cfd5b84810382555b6387a211a28317600c526020600c2080548087111561062f5763f4d678b86000526004601cfd5b8681038255876000526020600c2087815401815587602052600c5160601c8660601c7fddf252ad1be2c89b69c2b068fc378daa952ba7f163c4a11628f55a4df523b3ef602080a350505050505061068784848461161a565b600190509392505050565b600090565b6000806106a261161f565b90506000801b81036106c0576106b66104c5565b8051906020012090505b6040517f8b73c3c69bb8fe3d512ecc4cf759cc79239f7b179b0ffacaa9a75d522b39400f81528160208201527fc89efdaa54c0f20c7adf612882df0950f5a951637e0307cdcb4c672f298b8bc6604082015246606082015230608082015260a081209250505090565b6000610746836107418461073c90612ef5565b611624565b61118f565b905092915050565b60608161075a90612f08565b60006107b17f6bdaeb2d29561f159c7ef98b16b27015fb2aeb87209c7ee656226d912f59927d8360000151604051602001610796929190612f1b565b6040516020818303038152906040528051906020012061163a565b905060006107c3828460200151611654565b90503373ffffffffffffffffffffffffffffffffffffffff168173ffffffffffffffffffffffffffffffffffffffff161461082a576040517f3093a27700000000000000000000000000000000000000000000000000000000815260040160405180910390fd5b6108b4600460003373ffffffffffffffffffffffffffffffffffffffff1673ffffffffffffffffffffffffffffffffffffffff16815260200190815260200160002060008873ffffffffffffffffffffffffffffffffffffffff1673ffffffffffffffffffffffffffffffffffffffff168152602001908152602001600020548660000135611680565b935050505092915050565b60608183600061091a7f6bdaeb2d29561f159c7ef98b16b27015fb2aeb87209c7ee656226d912f59927d84600001516040516020016108ff929190612f1b565b6040516020818303038152906040528051906020012061163a565b9050600061092c828560200151611654565b90508273ffffffffffffffffffffffffffffffffffffffff168173ffffffffffffffffffffffffffffffffffffffff1614610993576040517f51c65eae00000000000000000000000000000000000000000000000000000000815260040160405180910390fd5b6109e0600360008973ffffffffffffffffffffffffffffffffffffffff1673ffffffffffffffffffffffffffffffffffffffff168152602001908152602001600020548760000151611680565b94505050505092915050565b6000610a45610a008363ffffffff166116b6565b600360003373ffffffffffffffffffffffffffffffffffffffff1673ffffffffffffffffffffffffffffffffffffffff168152602001908152602001600020546116ca565b9050610a90600360003373ffffffffffffffffffffffffffffffffffffffff1673ffffffffffffffffffffffffffffffffffffffff1681526020019081526020016000205482611743565b600360003373ffffffffffffffffffffffffffffffffffffffff1673ffffffffffffffffffffffffffffffffffffffff16815260200190815260200160002081905550610adf60025482611743565b600281905550610afd33610af283611757565b63ffffffff1661181a565b5050565b60006387a211a2600c52816000526020600c20549050919050565b60006338377508600c52816000526020600c20549050919050565b600060608060008060006060610b4b6118b1565b610b536118ec565b46306000801b600067ffffffffffffffff811115610b7457610b736127b1565b5b604051908082528060200260200182016040528015610ba25781602001602082028036833780820191505090505b507f0f00000000000000000000000000000000000000000000000000000000000000959493929190965096509650965096509650965090919293949596565b6000610bff8484610bfa85610bf590612ef5565b611624565b610e39565b90509392505050565b606060068054610c1790612e6c565b80601f0160208091040260200160405190810160405280929190818152602001828054610c4390612e6c565b8015610c905780601f10610c6557610100808354040283529160200191610c90565b820191906000526020600020905b815481529060010190602001808311610c7357829003601f168201915b5050505050905090565b8063ffffffff16610caa33610b01565b1015610ce2576040517ffda7bbda00000000000000000000000000000000000000000000000000000000815260040160405180910390fd5b610cf2338263ffffffff16611927565b6000610d038263ffffffff166116b6565b9050610d4e600360003373ffffffffffffffffffffffffffffffffffffffff1673ffffffffffffffffffffffffffffffffffffffff16815260200190815260200160002054826119be565b600360003373ffffffffffffffffffffffffffffffffffffffff1673ffffffffffffffffffffffffffffffffffffffff16815260200190815260200160002081905550610d9d600254826119be565b6002819055505050565b6000610db4338484611615565b6387a211a2600c52336000526020600c20805480841115610ddd5763f4d678b86000526004601cfd5b8381038255846000526020600c2084815401815584602052600c5160601c337fddf252ad1be2c89b69c2b068fc378daa952ba7f163c4a11628f55a4df523b3ef602080a3505050610e2f33848461161a565b6001905092915050565b600080610f0a83610f05600360008973ffffffffffffffffffffffffffffffffffffffff1673ffffffffffffffffffffffffffffffffffffffff16815260200190815260200160002054600460008a73ffffffffffffffffffffffffffffffffffffffff1673ffffffffffffffffffffffffffffffffffffffff16815260200190815260200160002060003373ffffffffffffffffffffffffffffffffffffffff1673ffffffffffffffffffffffffffffffffffffffff168152602001908152602001600020546116ca565b6116ca565b9050610f92600460008773ffffffffffffffffffffffffffffffffffffffff1673ffffffffffffffffffffffffffffffffffffffff16815260200190815260200160002060003373ffffffffffffffffffffffffffffffffffffffff1673ffffffffffffffffffffffffffffffffffffffff1681526020019081526020016000205482611743565b600460008773ffffffffffffffffffffffffffffffffffffffff1673ffffffffffffffffffffffffffffffffffffffff16815260200190815260200160002060003373ffffffffffffffffffffffffffffffffffffffff1673ffffffffffffffffffffffffffffffffffffffff1681526020019081526020016000208190555061105b600360008773ffffffffffffffffffffffffffffffffffffffff1673ffffffffffffffffffffffffffffffffffffffff1681526020019081526020016000205482611743565b600360008773ffffffffffffffffffffffffffffffffffffffff1673ffffffffffffffffffffffffffffffffffffffff168152602001908152602001600020819055506110e7600360008673ffffffffffffffffffffffffffffffffffffffff1673ffffffffffffffffffffffffffffffffffffffff16815260200190815260200160002054826119be565b600360008673ffffffffffffffffffffffffffffffffffffffff1673ffffffffffffffffffffffffffffffffffffffff168152602001908152602001600020819055508373ffffffffffffffffffffffffffffffffffffffff168573ffffffffffffffffffffffffffffffffffffffff167f7612539b010127d1a2f810eeff1131de23a28ecfa8228f92a9606a879300fbb560405160405180910390a3809150509392505050565b6000806111db83600360003373ffffffffffffffffffffffffffffffffffffffff1673ffffffffffffffffffffffffffffffffffffffff168152602001908152602001600020546116ca565b9050611226600360003373ffffffffffffffffffffffffffffffffffffffff1673ffffffffffffffffffffffffffffffffffffffff1681526020019081526020016000205482611743565b600360003373ffffffffffffffffffffffffffffffffffffffff1673ffffffffffffffffffffffffffffffffffffffff168152602001908152602001600020819055506112b2600360008673ffffffffffffffffffffffffffffffffffffffff1673ffffffffffffffffffffffffffffffffffffffff16815260200190815260200160002054826119be565b600360008673ffffffffffffffffffffffffffffffffffffffff1673ffffffffffffffffffffffffffffffffffffffff168152602001908152602001600020819055508373ffffffffffffffffffffffffffffffffffffffff163373ffffffffffffffffffffffffffffffffffffffff167f7612539b010127d1a2f810eeff1131de23a28ecfa8228f92a9606a879300fbb560405160405180910390a38091505092915050565b600061136361161f565b90506000801b8103611381576113776104c5565b8051906020012090505b8442111561139757631a15a3cc6000526004601cfd5b6040518860601b60601c98508760601b60601c975065383775081901600e52886000526020600c2080547f8b73c3c69bb8fe3d512ecc4cf759cc79239f7b179b0ffacaa9a75d522b39400f83528360208401527fc89efdaa54c0f20c7adf612882df0950f5a951637e0307cdcb4c672f298b8bc6604084015246606084015230608084015260a08320602e527f6e71edae12b1b97f4d1f60370fef10105fa2faae0126114a169c64845d6126c983528a60208401528960408401528860608401528060808401528760a084015260c08320604e526042602c206000528660ff1660205285604052846060526020806080600060015afa8b3d51146114a35763ddafbaef6000526004601cfd5b80820183558a637f5e9f2060a01b17604052896034602c20558a8c7f8c5be1e5ebec7d5bd14f71427d1e84f3dd0314c0f7b2291e5b200ac8c7c3b925602060608801a3836040526000606052505050505050505050505050565b60006115118261150c90612ef5565b611624565b600460003373ffffffffffffffffffffffffffffffffffffffff1673ffffffffffffffffffffffffffffffffffffffff16815260200190815260200160002060008573ffffffffffffffffffffffffffffffffffffffff1673ffffffffffffffffffffffffffffffffffffffff168152602001908152602001600020819055508273ffffffffffffffffffffffffffffffffffffffff163373ffffffffffffffffffffffffffffffffffffffff167f46f92913a39019d68e630493d23e0cf39761bf253f7b3f8eae384b33e393ed4e60405160405180910390a36001905092915050565b600081602052637f5e9f20600c52826000526034600c2054905092915050565b505050565b505050565b600090565b600061163382600001516119d2565b9050919050565b600061164d6116476119e6565b83611a9d565b9050919050565b6000806000806116648686611ade565b9250925092506116748282611b3a565b82935050505092915050565b606061168b83611c9e565b61169c5761169960006116b6565b92505b60008390506116ad60028285611cab565b91505092915050565b60006116c3826002611d61565b9050919050565b60006116d583611c9e565b6116e6576116e360006116b6565b92505b6116ef82611c9e565b611700576116fd60006116b6565b91505b60008390506000839050600061173560028484608073ffffffffffffffffffffffffffffffffffffffff16635211c679611e03565b905080935050505092915050565b600061174f8383611e97565b905092915050565b600061176282611c9e565b6117735761177060006116b6565b91505b6000829050600061178382611f10565b90506000608073ffffffffffffffffffffffffffffffffffffffff166373cc01546002846040518363ffffffff1660e01b81526004016117c4929190612f99565b602060405180830381865afa1580156117e1573d6000803e3d6000fd5b505050506040513d601f19601f820116820180604052508101906118059190612fde565b905061181081611f6d565b9350505050919050565b61182660008383611615565b6805345cdf77eb68f44c548181018181101561184a5763e5cfe9576000526004601cfd5b806805345cdf77eb68f44c556387a211a2600c52836000526020600c2083815401815583602052600c5160601c60007fddf252ad1be2c89b69c2b068fc378daa952ba7f163c4a11628f55a4df523b3ef602080a35050506118ad6000838361161a565b5050565b60606118e760007f0000000000000000000000000000000000000000000000000000000000000000611f7790919063ffffffff16565b905090565b606061192260017f0000000000000000000000000000000000000000000000000000000000000000611f7790919063ffffffff16565b905090565b61193382600083611615565b6387a211a2600c52816000526020600c2080548083111561195c5763f4d678b86000526004601cfd5b8281038255826805345cdf77eb68f44c54036805345cdf77eb68f44c558260005260008460601b60601c7fddf252ad1be2c89b69c2b068fc378daa952ba7f163c4a11628f55a4df523b3ef60206000a350506119ba8260008361161a565b5050565b60006119ca8383612027565b905092915050565b60006119df82600261209f565b9050919050565b60007f000000000000000000000000000000000000000000000000000000000000000073ffffffffffffffffffffffffffffffffffffffff163073ffffffffffffffffffffffffffffffffffffffff16148015611a6257507f000000000000000000000000000000000000000000000000000000000000000046145b15611a8f577f00000000000000000000000000000000000000000000000000000000000000009050611a9a565b611a97612139565b90505b90565b60006040517f190100000000000000000000000000000000000000000000000000000000000081528360028201528260228201526042812091505092915050565b60008060006041845103611b235760008060006020870151925060408701519150606087015160001a9050611b15888285856121cf565b955095509550505050611b33565b60006002855160001b9250925092505b9250925092565b60006003811115611b4e57611b4d61300b565b5b826003811115611b6157611b6061300b565b5b0315611c9a5760016003811115611b7b57611b7a61300b565b5b826003811115611b8e57611b8d61300b565b5b03611bc5576040517ff645eedf00000000000000000000000000000000000000000000000000000000815260040160405180910390fd5b60026003811115611bd957611bd861300b565b5b826003811115611bec57611beb61300b565b5b03611c31578060001c6040517ffce698f7000000000000000000000000000000000000000000000000000000008152600401611c289190612582565b60405180910390fd5b600380811115611c4457611c4361300b565b5b826003811115611c5757611c5661300b565b5b03611c9957806040517fd78bce0c000000000000000000000000000000000000000000000000000000008152600401611c909190612640565b60405180910390fd5b5b5050565b6000808214159050919050565b6060608073ffffffffffffffffffffffffffffffffffffffff1663a1848ff385611cd486611f10565b85604051602001611ce5919061305b565b6040516020818303038152906040526040518463ffffffff1660e01b8152600401611d1293929190613076565b600060405180830381865afa158015611d2f573d6000803e3d6000fd5b505050506040513d6000823e3d601f19601f82011682018060405250810190611d58919061315c565b90509392505050565b60006060608073ffffffffffffffffffffffffffffffffffffffff166319e1c5c4611d8b86611f10565b856040518363ffffffff1660e01b8152600401611da99291906131a5565b600060405180830381865afa158015611dc6573d6000803e3d6000fd5b505050506040513d6000823e3d601f19601f82011682018060405250810190611def9190613245565b9050611dfa816122c3565b91505092915050565b60006060838388611e1389611f10565b611e1c89611f10565b6040518463ffffffff1660e01b8152600401611e3a93929190613076565b600060405180830381865afa158015611e57573d6000803e3d6000fd5b505050506040513d6000823e3d601f19601f82011682018060405250810190611e809190613245565b9050611e8b816122d1565b91505095945050505050565b6000611ea283611c9e565b611eb357611eb060006116b6565b92505b611ebc82611c9e565b611ecd57611eca60006116b6565b91505b600083905060008390506000611f0260028484608073ffffffffffffffffffffffffffffffffffffffff1663cc2cbeff611e03565b905080935050505092915050565b6060602067ffffffffffffffff811115611f2d57611f2c6127b1565b5b6040519080825280601f01601f191660200182016040528015611f5f5781602001600182028036833780820191505090505b509050816020820152919050565b6000819050919050565b606060ff60001b8314611f9457611f8d836122df565b9050612021565b818054611fa090612e6c565b80601f0160208091040260200160405190810160405280929190818152602001828054611fcc90612e6c565b80156120195780601f10611fee57610100808354040283529160200191612019565b820191906000526020600020905b815481529060010190602001808311611ffc57829003601f168201915b505050505090505b92915050565b600061203283611c9e565b6120435761204060006116b6565b92505b61204c82611c9e565b61205d5761205a60006116b6565b91505b60008390506000839050600061209160028484608073ffffffffffffffffffffffffffffffffffffffff16622df619611e03565b905080935050505092915050565b60006060608073ffffffffffffffffffffffffffffffffffffffff16635fa55ca784866040518363ffffffff1660e01b81526004016120df929190612f99565b600060405180830381865afa1580156120fc573d6000803e3d6000fd5b505050506040513d6000823e3d601f19601f820116820180604052508101906121259190613245565b9050612130816122c3565b91505092915050565b60007f8b73c3c69bb8fe3d512ecc4cf759cc79239f7b179b0ffacaa9a75d522b39400f7f00000000000000000000000000000000000000000000000000000000000000007f000000000000000000000000000000000000000000000000000000000000000046306040516020016121b495949392919061328e565b60405160208183030381529060405280519060200120905090565b60008060007f7fffffffffffffffffffffffffffffff5d576e7357a4501ddfe92f46681b20a08460001c111561220f5760006003859250925092506122b9565b60006001888888886040516000815260200160405260405161223494939291906132e1565b6020604051602081039080840390855afa158015612256573d6000803e3d6000fd5b505050602060405103519050600073ffffffffffffffffffffffffffffffffffffffff168173ffffffffffffffffffffffffffffffffffffffff16036122aa57600060016000801b935093509350506122b9565b8060008060001b935093509350505b9450945094915050565b600060208201519050919050565b600060208201519050919050565b606060006122ec83612353565b90506000602067ffffffffffffffff81111561230b5761230a6127b1565b5b6040519080825280601f01601f19166020018201604052801561233d5781602001600182028036833780820191505090505b5090508181528360208201528092505050919050565b60008060ff8360001c169050601f81111561239a576040517fb3512b0c00000000000000000000000000000000000000000000000000000000815260040160405180910390fd5b80915050919050565b600081519050919050565b600082825260208201905092915050565b60005b838110156123dd5780820151818401526020810190506123c2565b60008484015250505050565b6000601f19601f8301169050919050565b6000612405826123a3565b61240f81856123ae565b935061241f8185602086016123bf565b612428816123e9565b840191505092915050565b6000602082019050818103600083015261244d81846123fa565b905092915050565b6000604051905090565b600080fd5b600080fd5b600073ffffffffffffffffffffffffffffffffffffffff82169050919050565b600061249482612469565b9050919050565b6124a481612489565b81146124af57600080fd5b50565b6000813590506124c18161249b565b92915050565b6000819050919050565b6124da816124c7565b81146124e557600080fd5b50565b6000813590506124f7816124d1565b92915050565b600080604083850312156125145761251361245f565b5b6000612522858286016124b2565b9250506020612533858286016124e8565b9150509250929050565b60008115159050919050565b6125528161253d565b82525050565b600060208201905061256d6000830184612549565b92915050565b61257c816124c7565b82525050565b60006020820190506125976000830184612573565b92915050565b6000806000606084860312156125b6576125b561245f565b5b60006125c4868287016124b2565b93505060206125d5868287016124b2565b92505060406125e6868287016124e8565b9150509250925092565b600060ff82169050919050565b612606816125f0565b82525050565b600060208201905061262160008301846125fd565b92915050565b6000819050919050565b61263a81612627565b82525050565b60006020820190506126556000830184612631565b92915050565b600080fd5b6000602082840312156126765761267561265b565b5b81905092915050565b600080604083850312156126965761269561245f565b5b60006126a4858286016124b2565b925050602083013567ffffffffffffffff8111156126c5576126c4612464565b5b6126d185828601612660565b9150509250929050565b6000819050919050565b60006127006126fb6126f6846124c7565b6126db565b6124c7565b9050919050565b612710816126e5565b82525050565b600060208201905061272b6000830184612707565b92915050565b6000604082840312156127475761274661265b565b5b81905092915050565b600080604083850312156127675761276661245f565b5b6000612775858286016124b2565b925050602083013567ffffffffffffffff81111561279657612795612464565b5b6127a285828601612731565b9150509250929050565b600080fd5b7f4e487b7100000000000000000000000000000000000000000000000000000000600052604160045260246000fd5b6127e9826123e9565b810181811067ffffffffffffffff82111715612808576128076127b1565b5b80604052505050565b600061281b612455565b905061282782826127e0565b919050565b600080fd5b61283a81612627565b811461284557600080fd5b50565b60008135905061285781612831565b92915050565b600080fd5b600080fd5b600067ffffffffffffffff821115612882576128816127b1565b5b61288b826123e9565b9050602081019050919050565b82818337600083830152505050565b60006128ba6128b584612867565b612811565b9050828152602081018484840111156128d6576128d5612862565b5b6128e1848285612898565b509392505050565b600082601f8301126128fe576128fd61285d565b5b813561290e8482602086016128a7565b91505092915050565b60006040828403121561292d5761292c6127ac565b5b6129376040612811565b9050600061294784828501612848565b600083015250602082013567ffffffffffffffff81111561296b5761296a61282c565b5b612977848285016128e9565b60208301525092915050565b6000806040838503121561299a5761299961245f565b5b60006129a8858286016124b2565b925050602083013567ffffffffffffffff8111156129c9576129c8612464565b5b6129d585828601612917565b9150509250929050565b600063ffffffff82169050919050565b6129f8816129df565b8114612a0357600080fd5b50565b600081359050612a15816129ef565b92915050565b600060208284031215612a3157612a3061245f565b5b6000612a3f84828501612a06565b91505092915050565b600060208284031215612a5e57612a5d61245f565b5b6000612a6c848285016124b2565b91505092915050565b60007fff0000000000000000000000000000000000000000000000000000000000000082169050919050565b612aaa81612a75565b82525050565b612ab981612489565b82525050565b600081519050919050565b600082825260208201905092915050565b6000819050602082019050919050565b612af4816124c7565b82525050565b6000612b068383612aeb565b60208301905092915050565b6000602082019050919050565b6000612b2a82612abf565b612b348185612aca565b9350612b3f83612adb565b8060005b83811015612b70578151612b578882612afa565b9750612b6283612b12565b925050600181019050612b43565b5085935050505092915050565b600060e082019050612b92600083018a612aa1565b8181036020830152612ba481896123fa565b90508181036040830152612bb881886123fa565b9050612bc76060830187612573565b612bd46080830186612ab0565b612be160a0830185612631565b81810360c0830152612bf38184612b1f565b905098975050505050505050565b600080600060608486031215612c1a57612c1961245f565b5b6000612c28868287016124b2565b9350506020612c39868287016124b2565b925050604084013567ffffffffffffffff811115612c5a57612c59612464565b5b612c6686828701612660565b9150509250925092565b612c79816124c7565b8114612c8457600080fd5b50565b600081359050612c9681612c70565b92915050565b600080600060608486031215612cb557612cb461245f565b5b6000612cc3868287016124b2565b9350506020612cd4868287016124b2565b9250506040612ce586828701612c87565b9150509250925092565b60008060408385031215612d0657612d0561245f565b5b6000612d14858286016124b2565b9250506020612d2585828601612c87565b9150509250929050565b612d38816125f0565b8114612d4357600080fd5b50565b600081359050612d5581612d2f565b92915050565b600080600080600080600060e0888a031215612d7a57612d7961245f565b5b6000612d888a828b016124b2565b9750506020612d998a828b016124b2565b9650506040612daa8a828b016124e8565b9550506060612dbb8a828b016124e8565b9450506080612dcc8a828b01612d46565b93505060a0612ddd8a828b01612848565b92505060c0612dee8a828b01612848565b91505092959891949750929550565b60008060408385031215612e1457612e1361245f565b5b6000612e22858286016124b2565b9250506020612e33858286016124b2565b9150509250929050565b7f4e487b7100000000000000000000000000000000000000000000000000000000600052602260045260246000fd5b60006002820490506001821680612e8457607f821691505b602082108103612e9757612e96612e3d565b5b50919050565b600060208284031215612eb357612eb26127ac565b5b612ebd6020612811565b9050600082013567ffffffffffffffff811115612edd57612edc61282c565b5b612ee9848285016128e9565b60008301525092915050565b6000612f013683612e9d565b9050919050565b6000612f143683612917565b9050919050565b6000604082019050612f306000830185612631565b612f3d6020830184612631565b9392505050565b600081519050919050565b600082825260208201905092915050565b6000612f6b82612f44565b612f758185612f4f565b9350612f858185602086016123bf565b612f8e816123e9565b840191505092915050565b6000604082019050612fae60008301856125fd565b8181036020830152612fc08184612f60565b90509392505050565b600081519050612fd8816124d1565b92915050565b600060208284031215612ff457612ff361245f565b5b600061300284828501612fc9565b91505092915050565b7f4e487b7100000000000000000000000000000000000000000000000000000000600052602160045260246000fd5b6000819050919050565b61305561305082612627565b61303a565b82525050565b60006130678284613044565b60208201915081905092915050565b600060608201905061308b60008301866125fd565b818103602083015261309d8185612f60565b905081810360408301526130b18184612f60565b9050949350505050565b600067ffffffffffffffff8211156130d6576130d56127b1565b5b6130df826123e9565b9050602081019050919050565b60006130ff6130fa846130bb565b612811565b90508281526020810184848401111561311b5761311a612862565b5b6131268482856123bf565b509392505050565b600082601f8301126131435761314261285d565b5b81516131538482602086016130ec565b91505092915050565b6000602082840312156131725761317161245f565b5b600082015167ffffffffffffffff8111156131905761318f612464565b5b61319c8482850161312e565b91505092915050565b600060408201905081810360008301526131bf8185612f60565b90506131ce60208301846125fd565b9392505050565b60006131e86131e384612867565b612811565b90508281526020810184848401111561320457613203612862565b5b61320f8482856123bf565b509392505050565b600082601f83011261322c5761322b61285d565b5b815161323c8482602086016131d5565b91505092915050565b60006020828403121561325b5761325a61245f565b5b600082015167ffffffffffffffff81111561327957613278612464565b5b61328584828501613217565b91505092915050565b600060a0820190506132a36000830188612631565b6132b06020830187612631565b6132bd6040830186612631565b6132ca6060830185612573565b6132d76080830184612ab0565b9695505050505050565b60006080820190506132f66000830187612631565b61330360208301866125fd565b6133106040830185612631565b61331d6060830184612631565b9594505050505056fea264697066735822122058197cac2b77cb9bd316ff9903122d58cec9c086f803140087396e89c46f21c964736f6c63430008180033",
  "devdoc": {
    "errors": {
      "AllowanceOverflow()": [
        {
          "details": "The allowance has overflowed."
        }
      ],
      "AllowanceUnderflow()": [
        {
          "details": "The allowance has underflowed."
        }
      ],
      "ECDSAInvalidSignature()": [
        {
          "details": "The signature derives the `address(0)`."
        }
      ],
      "ECDSAInvalidSignatureLength(uint256)": [
        {
          "details": "The signature has an invalid length."
        }
      ],
      "ECDSAInvalidSignatureS(bytes32)": [
        {
          "details": "The signature has an S value that is in the upper half order."
        }
      ],
      "InsufficientAllowance()": [
        {
          "details": "Insufficient allowance."
        }
      ],
      "InsufficientBalance()": [
        {
          "details": "Insufficient balance."
        }
      ],
      "InvalidPermit()": [
        {
          "details": "The permit is invalid."
        }
      ],
      "PermitExpired()": [
        {
          "details": "The permit has expired."
        }
      ],
      "TotalSupplyOverflow()": [
        {
          "details": "The total supply has overflowed."
        }
      ]
    },
    "events": {
      "Approval(address,address,uint256)": {
        "details": "Emitted when `amount` tokens is approved by `owner` to be used by `spender`."
      },
      "ApprovalEncrypted(address,address)": {
        "details": "Emitted when the allowance of a `spender` for an `owner` is set by a call to {approveEncrypted}. `value` is the new allowance."
      },
      "EIP712DomainChanged()": {
        "details": "MAY be emitted to signal that the domain could have changed."
      },
      "Transfer(address,address,uint256)": {
        "details": "Emitted when `amount` tokens is transferred from `from` to `to`."
      },
      "TransferEncrypted(address,address)": {
        "details": "Emitted when `value` tokens are moved from one account (`from`) to another (`to`). Note that `value` may be zero."
      }
    },
    "kind": "dev",
    "methods": {
      "DOMAIN_SEPARATOR()": {
        "details": "Returns the EIP-712 domain separator for the EIP-2612 permit."
      },
      "allowance(address,address)": {
        "details": "Returns the amount of tokens that `spender` can spend on behalf of `owner`."
      },
      "allowanceEncrypted(address,(bytes32,bytes))": {
        "details": "Returns the remaining number of tokens that `spender` will be allowed to spend on behalf of `owner` through {transferFrom}. This is zero by default. This value changes when {approve} or {transferFrom} are called."
      },
      "approve(address,uint256)": {
        "details": "Sets `amount` as the allowance of `spender` over the caller's tokens. Emits a {Approval} event."
      },
      "approveEncrypted(address,(bytes))": {
        "details": "Sets a `value` amount of tokens as the allowance of `spender` over the caller's tokens. Returns a boolean value indicating whether the operation succeeded. IMPORTANT: Beware that changing an allowance with this method brings the risk that someone may use both the old and the new allowance by unfortunate transaction ordering. One possible solution to mitigate this race condition is to first reduce the spender's allowance to 0 and set the desired value afterwards: https://github.com/ethereum/EIPs/issues/20#issuecomment-263524729 Emits an {ApprovalEncrypted} event."
      },
      "balanceOf(address)": {
        "details": "Returns the amount of tokens owned by `owner`."
      },
      "balanceOfEncrypted(address,(bytes32,bytes))": {
        "details": "Returns the value of tokens owned by `account`, sealed and encrypted for the caller."
      },
      "decimals()": {
        "details": "Returns the decimals places of the token."
      },
      "eip712Domain()": {
        "details": "See {IERC-5267}."
      },
      "name()": {
        "details": "Returns the name of the token."
      },
      "nonces(address)": {
        "details": "Returns the current nonce for `owner`. This value is used to compute the signature for EIP-2612 permit."
      },
      "permit(address,address,uint256,uint256,uint8,bytes32,bytes32)": {
        "details": "Sets `value` as the allowance of `spender` over the tokens of `owner`, authorized by a signed approval by `owner`. Emits a {Approval} event."
      },
      "symbol()": {
        "details": "Returns the symbol of the token."
      },
      "totalSupply()": {
        "details": "Returns the amount of tokens in existence."
      },
      "transfer(address,uint256)": {
        "details": "Transfer `amount` tokens from the caller to `to`. Requirements: - `from` must at least have `amount`. Emits a {Transfer} event."
      },
      "transferFrom(address,address,uint256)": {
        "details": "Transfers `amount` tokens from `from` to `to`. Note: Does not update the allowance if it is the maximum uint256 value. Requirements: - `from` must at least have `amount`. - The caller must have at least `amount` of allowance to transfer the tokens of `from`. Emits a {Transfer} event."
      },
      "transferFromEncrypted(address,address,(bytes))": {
        "details": "Moves a `value` amount of tokens from `from` to `to` using the allowance mechanism. `value` is then deducted from the caller's allowance. Returns a boolean value indicating whether the operation succeeded. Emits a {TransferEncrypted} event."
      }
    },
    "version": 1
  },
  "userdoc": {
    "errors": {
      "SignerNotMessageSender()": [
        {
          "notice": "Emitted when the signer is not the message sender"
        }
      ],
      "SignerNotOwner()": [
        {
          "notice": "Emitted when the signer is not the specified owner"
        }
      ]
    },
    "kind": "user",
    "methods": {},
    "version": 1
  },
  "storageLayout": {
    "storage": [
      {
        "astId": 16568,
        "contract": "contracts/tokens/FakeUSD.sol:FakeUSD",
        "label": "_nameFallback",
        "offset": 0,
        "slot": "0",
        "type": "t_string_storage"
      },
      {
        "astId": 16570,
        "contract": "contracts/tokens/FakeUSD.sol:FakeUSD",
        "label": "_versionFallback",
        "offset": 0,
        "slot": "1",
        "type": "t_string_storage"
      },
      {
        "astId": 18126,
        "contract": "contracts/tokens/FakeUSD.sol:FakeUSD",
        "label": "_encTotalSupply",
        "offset": 0,
        "slot": "2",
        "type": "t_userDefinedValueType(euint32)12"
      },
      {
        "astId": 18131,
        "contract": "contracts/tokens/FakeUSD.sol:FakeUSD",
        "label": "_encBalanceOf",
        "offset": 0,
        "slot": "3",
        "type": "t_mapping(t_address,t_userDefinedValueType(euint32)12)"
      },
      {
        "astId": 18138,
        "contract": "contracts/tokens/FakeUSD.sol:FakeUSD",
        "label": "_encAllowance",
        "offset": 0,
        "slot": "4",
        "type": "t_mapping(t_address,t_mapping(t_address,t_userDefinedValueType(euint32)12))"
      },
      {
        "astId": 18140,
        "contract": "contracts/tokens/FakeUSD.sol:FakeUSD",
        "label": "_name",
        "offset": 0,
        "slot": "5",
        "type": "t_string_storage"
      },
      {
        "astId": 18142,
        "contract": "contracts/tokens/FakeUSD.sol:FakeUSD",
        "label": "_symbol",
        "offset": 0,
        "slot": "6",
        "type": "t_string_storage"
      }
    ],
    "types": {
      "t_address": {
        "encoding": "inplace",
        "label": "address",
        "numberOfBytes": "20"
      },
      "t_mapping(t_address,t_mapping(t_address,t_userDefinedValueType(euint32)12))": {
        "encoding": "mapping",
        "key": "t_address",
        "label": "mapping(address => mapping(address => euint32))",
        "numberOfBytes": "32",
        "value": "t_mapping(t_address,t_userDefinedValueType(euint32)12)"
      },
      "t_mapping(t_address,t_userDefinedValueType(euint32)12)": {
        "encoding": "mapping",
        "key": "t_address",
        "label": "mapping(address => euint32)",
        "numberOfBytes": "32",
        "value": "t_userDefinedValueType(euint32)12"
      },
      "t_string_storage": {
        "encoding": "bytes",
        "label": "string",
        "numberOfBytes": "32"
      },
      "t_userDefinedValueType(euint32)12": {
        "encoding": "inplace",
        "label": "euint32",
        "numberOfBytes": "32"
      }
    }
  }
}