{
  "address": "0x2420DD8468359c1582C03173DFB83Bb76e18e5DC",
  "abi": [
    {
      "inputs": [
        {
          "components": [
            {
              "internalType": "bytes",
              "name": "data",
              "type": "bytes"
            }
          ],
          "internalType": "struct inEuint32",
          "name": "_initialSupply",
          "type": "tuple"
        }
      ],
      "stateMutability": "nonpayable",
      "type": "constructor"
    },
    {
      "inputs": [],
      "name": "AllowanceOverflow",
      "type": "error"
    },
    {
      "inputs": [],
      "name": "AllowanceUnderflow",
      "type": "error"
    },
    {
      "inputs": [],
      "name": "ECDSAInvalidSignature",
      "type": "error"
    },
    {
      "inputs": [
        {
          "internalType": "uint256",
          "name": "length",
          "type": "uint256"
        }
      ],
      "name": "ECDSAInvalidSignatureLength",
      "type": "error"
    },
    {
      "inputs": [
        {
          "internalType": "bytes32",
          "name": "s",
          "type": "bytes32"
        }
      ],
      "name": "ECDSAInvalidSignatureS",
      "type": "error"
    },
    {
      "inputs": [],
      "name": "ErrorInsufficientFunds",
      "type": "error"
    },
    {
      "inputs": [],
      "name": "InsufficientAllowance",
      "type": "error"
    },
    {
      "inputs": [],
      "name": "InsufficientBalance",
      "type": "error"
    },
    {
      "inputs": [],
      "name": "InvalidPermit",
      "type": "error"
    },
    {
      "inputs": [],
      "name": "InvalidShortString",
      "type": "error"
    },
    {
      "inputs": [],
      "name": "PermitExpired",
      "type": "error"
    },
    {
      "inputs": [],
      "name": "SignerNotMessageSender",
      "type": "error"
    },
    {
      "inputs": [],
      "name": "SignerNotOwner",
      "type": "error"
    },
    {
      "inputs": [
        {
          "internalType": "string",
          "name": "str",
          "type": "string"
        }
      ],
      "name": "StringTooLong",
      "type": "error"
    },
    {
      "inputs": [],
      "name": "TotalSupplyOverflow",
      "type": "error"
    },
    {
      "anonymous": false,
      "inputs": [
        {
          "indexed": true,
          "internalType": "address",
          "name": "owner",
          "type": "address"
        },
        {
          "indexed": true,
          "internalType": "address",
          "name": "spender",
          "type": "address"
        },
        {
          "indexed": false,
          "internalType": "uint256",
          "name": "amount",
          "type": "uint256"
        }
      ],
      "name": "Approval",
      "type": "event"
    },
    {
      "anonymous": false,
      "inputs": [
        {
          "indexed": true,
          "internalType": "address",
          "name": "owner",
          "type": "address"
        },
        {
          "indexed": true,
          "internalType": "address",
          "name": "spender",
          "type": "address"
        }
      ],
      "name": "ApprovalEncrypted",
      "type": "event"
    },
    {
      "anonymous": false,
      "inputs": [],
      "name": "EIP712DomainChanged",
      "type": "event"
    },
    {
      "anonymous": false,
      "inputs": [
        {
          "indexed": true,
          "internalType": "address",
          "name": "from",
          "type": "address"
        },
        {
          "indexed": true,
          "internalType": "address",
          "name": "to",
          "type": "address"
        },
        {
          "indexed": false,
          "internalType": "uint256",
          "name": "amount",
          "type": "uint256"
        }
      ],
      "name": "Transfer",
      "type": "event"
    },
    {
      "anonymous": false,
      "inputs": [
        {
          "indexed": true,
          "internalType": "address",
          "name": "from",
          "type": "address"
        },
        {
          "indexed": true,
          "internalType": "address",
          "name": "to",
          "type": "address"
        }
      ],
      "name": "TransferEncrypted",
      "type": "event"
    },
    {
      "inputs": [],
      "name": "DOMAIN_SEPARATOR",
      "outputs": [
        {
          "internalType": "bytes32",
          "name": "result",
          "type": "bytes32"
        }
      ],
      "stateMutability": "view",
      "type": "function"
    },
    {
      "inputs": [
        {
          "internalType": "address",
          "name": "owner",
          "type": "address"
        },
        {
          "internalType": "address",
          "name": "spender",
          "type": "address"
        }
      ],
      "name": "allowance",
      "outputs": [
        {
          "internalType": "uint256",
          "name": "result",
          "type": "uint256"
        }
      ],
      "stateMutability": "view",
      "type": "function"
    },
    {
      "inputs": [
        {
          "internalType": "address",
          "name": "spender",
          "type": "address"
        },
        {
          "components": [
            {
              "internalType": "bytes32",
              "name": "publicKey",
              "type": "bytes32"
            },
            {
              "internalType": "bytes",
              "name": "signature",
              "type": "bytes"
            }
          ],
          "internalType": "struct Permission",
          "name": "permission",
          "type": "tuple"
        }
      ],
      "name": "allowanceEncrypted",
      "outputs": [
        {
          "internalType": "string",
          "name": "",
          "type": "string"
        }
      ],
      "stateMutability": "view",
      "type": "function"
    },
    {
      "inputs": [
        {
          "internalType": "address",
          "name": "spender",
          "type": "address"
        },
        {
          "internalType": "uint256",
          "name": "amount",
          "type": "uint256"
        }
      ],
      "name": "approve",
      "outputs": [
        {
          "internalType": "bool",
          "name": "",
          "type": "bool"
        }
      ],
      "stateMutability": "nonpayable",
      "type": "function"
    },
    {
      "inputs": [
        {
          "internalType": "address",
          "name": "spender",
          "type": "address"
        },
        {
          "components": [
            {
              "internalType": "bytes",
              "name": "data",
              "type": "bytes"
            }
          ],
          "internalType": "struct inEuint32",
          "name": "value",
          "type": "tuple"
        }
      ],
      "name": "approveEncrypted",
      "outputs": [
        {
          "internalType": "bool",
          "name": "",
          "type": "bool"
        }
      ],
      "stateMutability": "nonpayable",
      "type": "function"
    },
    {
      "inputs": [
        {
          "internalType": "address",
          "name": "owner",
          "type": "address"
        }
      ],
      "name": "balanceOf",
      "outputs": [
        {
          "internalType": "uint256",
          "name": "result",
          "type": "uint256"
        }
      ],
      "stateMutability": "view",
      "type": "function"
    },
    {
      "inputs": [
        {
          "internalType": "address",
          "name": "account",
          "type": "address"
        },
        {
          "components": [
            {
              "internalType": "bytes32",
              "name": "publicKey",
              "type": "bytes32"
            },
            {
              "internalType": "bytes",
              "name": "signature",
              "type": "bytes"
            }
          ],
          "internalType": "struct Permission",
          "name": "auth",
          "type": "tuple"
        }
      ],
      "name": "balanceOfEncrypted",
      "outputs": [
        {
          "internalType": "string",
          "name": "",
          "type": "string"
        }
      ],
      "stateMutability": "view",
      "type": "function"
    },
    {
      "inputs": [],
      "name": "decimals",
      "outputs": [
        {
          "internalType": "uint8",
          "name": "",
          "type": "uint8"
        }
      ],
      "stateMutability": "pure",
      "type": "function"
    },
    {
      "inputs": [],
      "name": "eip712Domain",
      "outputs": [
        {
          "internalType": "bytes1",
          "name": "fields",
          "type": "bytes1"
        },
        {
          "internalType": "string",
          "name": "name",
          "type": "string"
        },
        {
          "internalType": "string",
          "name": "version",
          "type": "string"
        },
        {
          "internalType": "uint256",
          "name": "chainId",
          "type": "uint256"
        },
        {
          "internalType": "address",
          "name": "verifyingContract",
          "type": "address"
        },
        {
          "internalType": "bytes32",
          "name": "salt",
          "type": "bytes32"
        },
        {
          "internalType": "uint256[]",
          "name": "extensions",
          "type": "uint256[]"
        }
      ],
      "stateMutability": "view",
      "type": "function"
    },
    {
      "inputs": [],
      "name": "name",
      "outputs": [
        {
          "internalType": "string",
          "name": "",
          "type": "string"
        }
      ],
      "stateMutability": "view",
      "type": "function"
    },
    {
      "inputs": [
        {
          "internalType": "address",
          "name": "owner",
          "type": "address"
        }
      ],
      "name": "nonces",
      "outputs": [
        {
          "internalType": "uint256",
          "name": "result",
          "type": "uint256"
        }
      ],
      "stateMutability": "view",
      "type": "function"
    },
    {
      "inputs": [
        {
          "internalType": "address",
          "name": "owner",
          "type": "address"
        },
        {
          "internalType": "address",
          "name": "spender",
          "type": "address"
        },
        {
          "internalType": "uint256",
          "name": "value",
          "type": "uint256"
        },
        {
          "internalType": "uint256",
          "name": "deadline",
          "type": "uint256"
        },
        {
          "internalType": "uint8",
          "name": "v",
          "type": "uint8"
        },
        {
          "internalType": "bytes32",
          "name": "r",
          "type": "bytes32"
        },
        {
          "internalType": "bytes32",
          "name": "s",
          "type": "bytes32"
        }
      ],
      "name": "permit",
      "outputs": [],
      "stateMutability": "nonpayable",
      "type": "function"
    },
    {
      "inputs": [],
      "name": "symbol",
      "outputs": [
        {
          "internalType": "string",
          "name": "",
          "type": "string"
        }
      ],
      "stateMutability": "view",
      "type": "function"
    },
    {
      "inputs": [],
      "name": "totalSupply",
      "outputs": [
        {
          "internalType": "uint256",
          "name": "result",
          "type": "uint256"
        }
      ],
      "stateMutability": "view",
      "type": "function"
    },
    {
      "inputs": [
        {
          "internalType": "address",
          "name": "to",
          "type": "address"
        },
        {
          "internalType": "uint256",
          "name": "amount",
          "type": "uint256"
        }
      ],
      "name": "transfer",
      "outputs": [
        {
          "internalType": "bool",
          "name": "",
          "type": "bool"
        }
      ],
      "stateMutability": "nonpayable",
      "type": "function"
    },
    {
      "inputs": [
        {
          "internalType": "address",
          "name": "to",
          "type": "address"
        },
        {
          "components": [
            {
              "internalType": "bytes",
              "name": "data",
              "type": "bytes"
            }
          ],
          "internalType": "struct inEuint32",
          "name": "encryptedAmount",
          "type": "tuple"
        }
      ],
      "name": "transferEncrypted",
      "outputs": [
        {
          "internalType": "euint32",
          "name": "",
          "type": "uint256"
        }
      ],
      "stateMutability": "nonpayable",
      "type": "function"
    },
    {
      "inputs": [
        {
          "internalType": "address",
          "name": "to",
          "type": "address"
        },
        {
          "internalType": "euint32",
          "name": "amount",
          "type": "uint256"
        }
      ],
      "name": "transferEncrypted",
      "outputs": [
        {
          "internalType": "euint32",
          "name": "",
          "type": "uint256"
        }
      ],
      "stateMutability": "nonpayable",
      "type": "function"
    },
    {
      "inputs": [
        {
          "internalType": "address",
          "name": "from",
          "type": "address"
        },
        {
          "internalType": "address",
          "name": "to",
          "type": "address"
        },
        {
          "internalType": "uint256",
          "name": "amount",
          "type": "uint256"
        }
      ],
      "name": "transferFrom",
      "outputs": [
        {
          "internalType": "bool",
          "name": "",
          "type": "bool"
        }
      ],
      "stateMutability": "nonpayable",
      "type": "function"
    },
    {
      "inputs": [
        {
          "internalType": "address",
          "name": "from",
          "type": "address"
        },
        {
          "internalType": "address",
          "name": "to",
          "type": "address"
        },
        {
          "components": [
            {
              "internalType": "bytes",
              "name": "data",
              "type": "bytes"
            }
          ],
          "internalType": "struct inEuint32",
          "name": "value",
          "type": "tuple"
        }
      ],
      "name": "transferFromEncrypted",
      "outputs": [
        {
          "internalType": "euint32",
          "name": "",
          "type": "uint256"
        }
      ],
      "stateMutability": "nonpayable",
      "type": "function"
    },
    {
      "inputs": [
        {
          "internalType": "address",
          "name": "from",
          "type": "address"
        },
        {
          "internalType": "address",
          "name": "to",
          "type": "address"
        },
        {
          "internalType": "euint32",
          "name": "value",
          "type": "uint256"
        }
      ],
      "name": "transferFromEncrypted",
      "outputs": [
        {
          "internalType": "euint32",
          "name": "",
          "type": "uint256"
        }
      ],
      "stateMutability": "nonpayable",
      "type": "function"
    },
    {
      "inputs": [
        {
          "internalType": "uint32",
          "name": "amount",
          "type": "uint32"
        }
      ],
      "name": "unwrap",
      "outputs": [],
      "stateMutability": "nonpayable",
      "type": "function"
    },
    {
      "inputs": [
        {
          "internalType": "uint32",
          "name": "amount",
          "type": "uint32"
        }
      ],
      "name": "wrap",
      "outputs": [],
      "stateMutability": "nonpayable",
      "type": "function"
    }
  ],
  "transactionHash": "0xac70568596fd0cc8ce23f65d94a56a9b3f5e7f5cc391c4a4797663b13bc3a523",
  "args": [
    {
      "data": {
        "0": 16,
        "1": 8,
        "2": 0,
        "3": 0,
        "4": 0,
        "5": 0,
        "6": 0,
        "7": 0,
        "8": 223,
        "9": 123,
        "10": 101,
        "11": 13,
        "12": 150,
        "13": 156,
        "14": 135,
        "15": 67,
        "16": 223,
        "17": 197,
        "18": 220,
        "19": 146,
        "20": 169,
        "21": 46,
        "22": 16,
        "23": 226,
        "24": 1,
        "25": 179,
        "26": 48,
        "27": 207,
        "28": 172,
        "29": 87,
        "30": 133,
        "31": 102,
        "32": 102,
        "33": 87,
        "34": 160,
        "35": 242,
        "36": 99,
        "37": 196,
        "38": 4,
        "39": 169,
        "40": 155,
        "41": 222,
        "42": 190,
        "43": 197,
        "44": 24,
        "45": 189,
        "46": 90,
        "47": 31,
        "48": 62,
        "49": 55,
        "50": 248,
        "51": 106,
        "52": 203,
        "53": 73,
        "54": 62,
        "55": 249,
        "56": 209,
        "57": 244,
        "58": 98,
        "59": 166,
        "60": 243,
        "61": 95,
        "62": 174,
        "63": 111,
        "64": 80,
        "65": 59,
        "66": 63,
        "67": 150,
        "68": 228,
        "69": 213,
        "70": 214,
        "71": 161,
        "72": 110,
        "73": 224,
        "74": 37,
        "75": 205,
        "76": 112,
        "77": 126,
        "78": 131,
        "79": 34,
        "80": 2,
        "81": 199,
        "82": 193,
        "83": 13,
        "84": 236,
        "85": 201,
        "86": 13,
        "87": 130,
        "88": 85,
        "89": 238,
        "90": 106,
        "91": 29,
        "92": 79,
        "93": 158,
        "94": 200,
        "95": 128,
        "96": 205,
        "97": 47,
        "98": 143,
        "99": 255,
        "100": 247,
        "101": 91,
        "102": 248,
        "103": 142,
        "104": 212,
        "105": 157,
        "106": 113,
        "107": 46,
        "108": 171,
        "109": 213,
        "110": 27,
        "111": 170,
        "112": 186,
        "113": 102,
        "114": 135,
        "115": 200,
        "116": 143,
        "117": 46,
        "118": 228,
        "119": 221,
        "120": 234,
        "121": 228,
        "122": 108,
        "123": 175,
        "124": 189,
        "125": 254,
        "126": 139,
        "127": 222,
        "128": 87,
        "129": 6,
        "130": 226,
        "131": 249,
        "132": 185,
        "133": 24,
        "134": 125,
        "135": 191,
        "136": 216,
        "137": 108,
        "138": 46,
        "139": 116,
        "140": 207,
        "141": 38,
        "142": 106,
        "143": 175,
        "144": 219,
        "145": 51,
        "146": 148,
        "147": 179,
        "148": 230,
        "149": 212,
        "150": 117,
        "151": 97,
        "152": 105,
        "153": 197,
        "154": 236,
        "155": 82,
        "156": 46,
        "157": 122,
        "158": 198,
        "159": 251,
        "160": 34,
        "161": 239,
        "162": 161,
        "163": 66,
        "164": 170,
        "165": 172,
        "166": 101,
        "167": 52,
        "168": 77,
        "169": 220,
        "170": 8,
        "171": 214,
        "172": 241,
        "173": 120,
        "174": 130,
        "175": 93,
        "176": 156,
        "177": 210,
        "178": 94,
        "179": 93,
        "180": 136,
        "181": 18,
        "182": 60,
        "183": 167,
        "184": 126,
        "185": 186,
        "186": 126,
        "187": 198,
        "188": 221,
        "189": 231,
        "190": 87,
        "191": 165,
        "192": 253,
        "193": 57,
        "194": 231,
        "195": 9,
        "196": 138,
        "197": 138,
        "198": 69,
        "199": 223,
        "200": 249,
        "201": 1,
        "202": 254,
        "203": 50,
        "204": 179,
        "205": 184,
        "206": 210,
        "207": 219,
        "208": 159,
        "209": 29,
        "210": 189,
        "211": 33,
        "212": 147,
        "213": 8,
        "214": 124,
        "215": 8,
        "216": 236,
        "217": 24,
        "218": 206,
        "219": 36,
        "220": 204,
        "221": 121,
        "222": 179,
        "223": 219,
        "224": 213,
        "225": 90,
        "226": 3,
        "227": 75,
        "228": 141,
        "229": 64,
        "230": 158,
        "231": 30,
        "232": 0,
        "233": 250,
        "234": 97,
        "235": 186,
        "236": 39,
        "237": 160,
        "238": 63,
        "239": 128,
        "240": 54,
        "241": 198,
        "242": 194,
        "243": 243,
        "244": 104,
        "245": 189,
        "246": 128,
        "247": 183,
        "248": 114,
        "249": 128,
        "250": 244,
        "251": 23,
        "252": 227,
        "253": 184,
        "254": 187,
        "255": 187,
        "256": 43,
        "257": 198,
        "258": 27,
        "259": 139,
        "260": 58,
        "261": 30,
        "262": 210,
        "263": 224,
        "264": 247,
        "265": 200,
        "266": 11,
        "267": 76,
        "268": 253,
        "269": 145,
        "270": 85,
        "271": 115,
        "272": 229,
        "273": 205,
        "274": 113,
        "275": 64,
        "276": 44,
        "277": 169,
        "278": 111,
        "279": 203,
        "280": 223,
        "281": 142,
        "282": 90,
        "283": 69,
        "284": 132,
        "285": 111,
        "286": 63,
        "287": 172,
        "288": 24,
        "289": 12,
        "290": 158,
        "291": 29,
        "292": 11,
        "293": 83,
        "294": 238,
        "295": 54,
        "296": 170,
        "297": 180,
        "298": 198,
        "299": 102,
        "300": 72,
        "301": 174,
        "302": 121,
        "303": 73,
        "304": 193,
        "305": 208,
        "306": 126,
        "307": 219,
        "308": 167,
        "309": 115,
        "310": 125,
        "311": 204,
        "312": 135,
        "313": 138,
        "314": 115,
        "315": 88,
        "316": 32,
        "317": 20,
        "318": 85,
        "319": 21,
        "320": 237,
        "321": 214,
        "322": 217,
        "323": 31,
        "324": 247,
        "325": 19,
        "326": 196,
        "327": 216,
        "328": 204,
        "329": 159,
        "330": 48,
        "331": 255,
        "332": 43,
        "333": 226,
        "334": 233,
        "335": 54,
        "336": 146,
        "337": 197,
        "338": 158,
        "339": 27,
        "340": 61,
        "341": 63,
        "342": 184,
        "343": 174,
        "344": 32,
        "345": 156,
        "346": 36,
        "347": 143,
        "348": 6,
        "349": 83,
        "350": 130,
        "351": 12,
        "352": 225,
        "353": 59,
        "354": 86,
        "355": 184,
        "356": 123,
        "357": 214,
        "358": 228,
        "359": 155,
        "360": 104,
        "361": 156,
        "362": 96,
        "363": 198,
        "364": 203,
        "365": 141,
        "366": 177,
        "367": 217,
        "368": 236,
        "369": 84,
        "370": 220,
        "371": 131,
        "372": 246,
        "373": 51,
        "374": 28,
        "375": 89,
        "376": 200,
        "377": 152,
        "378": 159,
        "379": 68,
        "380": 139,
        "381": 1,
        "382": 69,
        "383": 22,
        "384": 80,
        "385": 33,
        "386": 56,
        "387": 239,
        "388": 111,
        "389": 131,
        "390": 26,
        "391": 30,
        "392": 192,
        "393": 43,
        "394": 6,
        "395": 30,
        "396": 101,
        "397": 154,
        "398": 18,
        "399": 21,
        "400": 247,
        "401": 183,
        "402": 72,
        "403": 14,
        "404": 195,
        "405": 49,
        "406": 240,
        "407": 159,
        "408": 183,
        "409": 194,
        "410": 215,
        "411": 196,
        "412": 216,
        "413": 71,
        "414": 32,
        "415": 167,
        "416": 75,
        "417": 237,
        "418": 66,
        "419": 26,
        "420": 251,
        "421": 250,
        "422": 77,
        "423": 194,
        "424": 106,
        "425": 104,
        "426": 114,
        "427": 13,
        "428": 211,
        "429": 138,
        "430": 188,
        "431": 46,
        "432": 58,
        "433": 88,
        "434": 80,
        "435": 185,
        "436": 182,
        "437": 105,
        "438": 49,
        "439": 63,
        "440": 226,
        "441": 103,
        "442": 122,
        "443": 137,
        "444": 93,
        "445": 224,
        "446": 34,
        "447": 209,
        "448": 203,
        "449": 136,
        "450": 87,
        "451": 10,
        "452": 64,
        "453": 150,
        "454": 179,
        "455": 201,
        "456": 114,
        "457": 119,
        "458": 12,
        "459": 99,
        "460": 13,
        "461": 122,
        "462": 61,
        "463": 93,
        "464": 120,
        "465": 227,
        "466": 245,
        "467": 116,
        "468": 133,
        "469": 229,
        "470": 176,
        "471": 70,
        "472": 209,
        "473": 50,
        "474": 48,
        "475": 158,
        "476": 155,
        "477": 133,
        "478": 199,
        "479": 35,
        "480": 134,
        "481": 131,
        "482": 144,
        "483": 39,
        "484": 90,
        "485": 60,
        "486": 107,
        "487": 123,
        "488": 122,
        "489": 29,
        "490": 40,
        "491": 233,
        "492": 220,
        "493": 76,
        "494": 132,
        "495": 89,
        "496": 161,
        "497": 99,
        "498": 168,
        "499": 46,
        "500": 148,
        "501": 22,
        "502": 238,
        "503": 145,
        "504": 69,
        "505": 178,
        "506": 243,
        "507": 126,
        "508": 108,
        "509": 63,
        "510": 26,
        "511": 61,
        "512": 19,
        "513": 154,
        "514": 239,
        "515": 30,
        "516": 12,
        "517": 22,
        "518": 155,
        "519": 23,
        "520": 250,
        "521": 253,
        "522": 139,
        "523": 140,
        "524": 25,
        "525": 217,
        "526": 93,
        "527": 154,
        "528": 57,
        "529": 217,
        "530": 101,
        "531": 236,
        "532": 181,
        "533": 2,
        "534": 53,
        "535": 247,
        "536": 84,
        "537": 111,
        "538": 132,
        "539": 161,
        "540": 173,
        "541": 45,
        "542": 9,
        "543": 43,
        "544": 49,
        "545": 210,
        "546": 44,
        "547": 254,
        "548": 39,
        "549": 199,
        "550": 212,
        "551": 131,
        "552": 85,
        "553": 63,
        "554": 243,
        "555": 30,
        "556": 7,
        "557": 173,
        "558": 73,
        "559": 174,
        "560": 11,
        "561": 244,
        "562": 214,
        "563": 104,
        "564": 97,
        "565": 221,
        "566": 105,
        "567": 143,
        "568": 30,
        "569": 64,
        "570": 78,
        "571": 206,
        "572": 35,
        "573": 30,
        "574": 163,
        "575": 210,
        "576": 150,
        "577": 136,
        "578": 62,
        "579": 26,
        "580": 183,
        "581": 32,
        "582": 205,
        "583": 9,
        "584": 1,
        "585": 159,
        "586": 216,
        "587": 205,
        "588": 178,
        "589": 232,
        "590": 193,
        "591": 36,
        "592": 123,
        "593": 113,
        "594": 114,
        "595": 173,
        "596": 12,
        "597": 229,
        "598": 128,
        "599": 106,
        "600": 31,
        "601": 31,
        "602": 198,
        "603": 135,
        "604": 179,
        "605": 72,
        "606": 166,
        "607": 216,
        "608": 200,
        "609": 212,
        "610": 221,
        "611": 148,
        "612": 149,
        "613": 50,
        "614": 36,
        "615": 96,
        "616": 30,
        "617": 152,
        "618": 45,
        "619": 56,
        "620": 102,
        "621": 63,
        "622": 36,
        "623": 13,
        "624": 203,
        "625": 196,
        "626": 231,
        "627": 118,
        "628": 11,
        "629": 61,
        "630": 229,
        "631": 111,
        "632": 25,
        "633": 185,
        "634": 94,
        "635": 49,
        "636": 72,
        "637": 166,
        "638": 120,
        "639": 142,
        "640": 101,
        "641": 195,
        "642": 217,
        "643": 251,
        "644": 18,
        "645": 148,
        "646": 5,
        "647": 237,
        "648": 141,
        "649": 217,
        "650": 99,
        "651": 143,
        "652": 60,
        "653": 217,
        "654": 111,
        "655": 74,
        "656": 169,
        "657": 67,
        "658": 180,
        "659": 241,
        "660": 16,
        "661": 168,
        "662": 114,
        "663": 132,
        "664": 164,
        "665": 201,
        "666": 90,
        "667": 134,
        "668": 229,
        "669": 228,
        "670": 14,
        "671": 253,
        "672": 196,
        "673": 74,
        "674": 249,
        "675": 99,
        "676": 45,
        "677": 42,
        "678": 40,
        "679": 222,
        "680": 172,
        "681": 143,
        "682": 62,
        "683": 248,
        "684": 78,
        "685": 192,
        "686": 175,
        "687": 212,
        "688": 143,
        "689": 178,
        "690": 199,
        "691": 125,
        "692": 209,
        "693": 235,
        "694": 136,
        "695": 234,
        "696": 46,
        "697": 88,
        "698": 110,
        "699": 214,
        "700": 231,
        "701": 77,
        "702": 119,
        "703": 89,
        "704": 125,
        "705": 74,
        "706": 83,
        "707": 57,
        "708": 189,
        "709": 153,
        "710": 23,
        "711": 163,
        "712": 6,
        "713": 36,
        "714": 46,
        "715": 10,
        "716": 213,
        "717": 245,
        "718": 156,
        "719": 207,
        "720": 76,
        "721": 4,
        "722": 112,
        "723": 160,
        "724": 227,
        "725": 24,
        "726": 33,
        "727": 222,
        "728": 143,
        "729": 87,
        "730": 113,
        "731": 178,
        "732": 142,
        "733": 120,
        "734": 131,
        "735": 208,
        "736": 78,
        "737": 217,
        "738": 72,
        "739": 2,
        "740": 245,
        "741": 36,
        "742": 27,
        "743": 224,
        "744": 11,
        "745": 3,
        "746": 227,
        "747": 7,
        "748": 43,
        "749": 102,
        "750": 21,
        "751": 193,
        "752": 35,
        "753": 180,
        "754": 91,
        "755": 207,
        "756": 168,
        "757": 81,
        "758": 231,
        "759": 229,
        "760": 132,
        "761": 95,
        "762": 232,
        "763": 19,
        "764": 50,
        "765": 155,
        "766": 138,
        "767": 62,
        "768": 35,
        "769": 176,
        "770": 146,
        "771": 25,
        "772": 172,
        "773": 220,
        "774": 52,
        "775": 172,
        "776": 46,
        "777": 165,
        "778": 250,
        "779": 180,
        "780": 159,
        "781": 186,
        "782": 58,
        "783": 251,
        "784": 63,
        "785": 94,
        "786": 77,
        "787": 158,
        "788": 198,
        "789": 123,
        "790": 5,
        "791": 35,
        "792": 25,
        "793": 102,
        "794": 32,
        "795": 30,
        "796": 219,
        "797": 91,
        "798": 232,
        "799": 128,
        "800": 209,
        "801": 254,
        "802": 121,
        "803": 229,
        "804": 15,
        "805": 15,
        "806": 154,
        "807": 136,
        "808": 200,
        "809": 98,
        "810": 122,
        "811": 14,
        "812": 242,
        "813": 205,
        "814": 29,
        "815": 28,
        "816": 12,
        "817": 235,
        "818": 29,
        "819": 15,
        "820": 156,
        "821": 138,
        "822": 186,
        "823": 99,
        "824": 201,
        "825": 61,
        "826": 113,
        "827": 6,
        "828": 94,
        "829": 35,
        "830": 122,
        "831": 254,
        "832": 113,
        "833": 241,
        "834": 103,
        "835": 55,
        "836": 154,
        "837": 213,
        "838": 219,
        "839": 191,
        "840": 189,
        "841": 189,
        "842": 25,
        "843": 250,
        "844": 34,
        "845": 167,
        "846": 1,
        "847": 28,
        "848": 21,
        "849": 170,
        "850": 83,
        "851": 182,
        "852": 223,
        "853": 37,
        "854": 87,
        "855": 50,
        "856": 114,
        "857": 50,
        "858": 76,
        "859": 83,
        "860": 48,
        "861": 71,
        "862": 31,
        "863": 217,
        "864": 191,
        "865": 194,
        "866": 173,
        "867": 48,
        "868": 201,
        "869": 72,
        "870": 43,
        "871": 164,
        "872": 58,
        "873": 234,
        "874": 182,
        "875": 40,
        "876": 246,
        "877": 201,
        "878": 99,
        "879": 21,
        "880": 29,
        "881": 199,
        "882": 130,
        "883": 213,
        "884": 153,
        "885": 103,
        "886": 48,
        "887": 211,
        "888": 141,
        "889": 86,
        "890": 241,
        "891": 31,
        "892": 204,
        "893": 173,
        "894": 151,
        "895": 199,
        "896": 230,
        "897": 148,
        "898": 8,
        "899": 9,
        "900": 105,
        "901": 146,
        "902": 209,
        "903": 247,
        "904": 239,
        "905": 205,
        "906": 70,
        "907": 212,
        "908": 82,
        "909": 213,
        "910": 223,
        "911": 38,
        "912": 203,
        "913": 64,
        "914": 218,
        "915": 70,
        "916": 81,
        "917": 249,
        "918": 96,
        "919": 92,
        "920": 7,
        "921": 59,
        "922": 249,
        "923": 238,
        "924": 38,
        "925": 66,
        "926": 56,
        "927": 216,
        "928": 196,
        "929": 43,
        "930": 177,
        "931": 47,
        "932": 238,
        "933": 199,
        "934": 2,
        "935": 98,
        "936": 146,
        "937": 33,
        "938": 78,
        "939": 42,
        "940": 30,
        "941": 202,
        "942": 164,
        "943": 83,
        "944": 148,
        "945": 250,
        "946": 186,
        "947": 154,
        "948": 135,
        "949": 74,
        "950": 129,
        "951": 172,
        "952": 133,
        "953": 237,
        "954": 242,
        "955": 196,
        "956": 248,
        "957": 135,
        "958": 216,
        "959": 202,
        "960": 17,
        "961": 183,
        "962": 237,
        "963": 12,
        "964": 74,
        "965": 93,
        "966": 100,
        "967": 208,
        "968": 216,
        "969": 226,
        "970": 0,
        "971": 109,
        "972": 49,
        "973": 35,
        "974": 210,
        "975": 51,
        "976": 87,
        "977": 125,
        "978": 18,
        "979": 255,
        "980": 0,
        "981": 241,
        "982": 126,
        "983": 166,
        "984": 141,
        "985": 142,
        "986": 134,
        "987": 235,
        "988": 174,
        "989": 106,
        "990": 253,
        "991": 132,
        "992": 250,
        "993": 154,
        "994": 44,
        "995": 27,
        "996": 246,
        "997": 74,
        "998": 129,
        "999": 99,
        "1000": 61,
        "1001": 164,
        "1002": 57,
        "1003": 177,
        "1004": 120,
        "1005": 42,
        "1006": 220,
        "1007": 182,
        "1008": 6,
        "1009": 129,
        "1010": 240,
        "1011": 36,
        "1012": 152,
        "1013": 138,
        "1014": 203,
        "1015": 10,
        "1016": 114,
        "1017": 125,
        "1018": 196,
        "1019": 36,
        "1020": 58,
        "1021": 83,
        "1022": 179,
        "1023": 171,
        "1024": 73,
        "1025": 55,
        "1026": 46,
        "1027": 167,
        "1028": 39,
        "1029": 201,
        "1030": 153,
        "1031": 120,
        "1032": 163,
        "1033": 102,
        "1034": 196,
        "1035": 26,
        "1036": 57,
        "1037": 93,
        "1038": 237,
        "1039": 136,
        "1040": 111,
        "1041": 131,
        "1042": 54,
        "1043": 236,
        "1044": 248,
        "1045": 177,
        "1046": 196,
        "1047": 123,
        "1048": 95,
        "1049": 223,
        "1050": 67,
        "1051": 131,
        "1052": 238,
        "1053": 81,
        "1054": 216,
        "1055": 76,
        "1056": 225,
        "1057": 242,
        "1058": 44,
        "1059": 147,
        "1060": 160,
        "1061": 120,
        "1062": 124,
        "1063": 110,
        "1064": 117,
        "1065": 25,
        "1066": 70,
        "1067": 171,
        "1068": 202,
        "1069": 46,
        "1070": 1,
        "1071": 69,
        "1072": 46,
        "1073": 250,
        "1074": 207,
        "1075": 138,
        "1076": 155,
        "1077": 235,
        "1078": 52,
        "1079": 142,
        "1080": 136,
        "1081": 13,
        "1082": 255,
        "1083": 175,
        "1084": 228,
        "1085": 205,
        "1086": 27,
        "1087": 61,
        "1088": 100,
        "1089": 47,
        "1090": 1,
        "1091": 219,
        "1092": 218,
        "1093": 64,
        "1094": 215,
        "1095": 160,
        "1096": 195,
        "1097": 137,
        "1098": 157,
        "1099": 169,
        "1100": 134,
        "1101": 58,
        "1102": 10,
        "1103": 206,
        "1104": 62,
        "1105": 215,
        "1106": 161,
        "1107": 24,
        "1108": 47,
        "1109": 38,
        "1110": 97,
        "1111": 101,
        "1112": 203,
        "1113": 151,
        "1114": 116,
        "1115": 94,
        "1116": 54,
        "1117": 164,
        "1118": 237,
        "1119": 202,
        "1120": 34,
        "1121": 121,
        "1122": 239,
        "1123": 127,
        "1124": 206,
        "1125": 208,
        "1126": 3,
        "1127": 201,
        "1128": 105,
        "1129": 226,
        "1130": 152,
        "1131": 249,
        "1132": 119,
        "1133": 200,
        "1134": 91,
        "1135": 173,
        "1136": 21,
        "1137": 20,
        "1138": 214,
        "1139": 234,
        "1140": 21,
        "1141": 227,
        "1142": 194,
        "1143": 110,
        "1144": 49,
        "1145": 211,
        "1146": 80,
        "1147": 193,
        "1148": 164,
        "1149": 23,
        "1150": 183,
        "1151": 25,
        "1152": 8,
        "1153": 77,
        "1154": 38,
        "1155": 5,
        "1156": 212,
        "1157": 222,
        "1158": 70,
        "1159": 105,
        "1160": 210,
        "1161": 176,
        "1162": 8,
        "1163": 153,
        "1164": 212,
        "1165": 107,
        "1166": 20,
        "1167": 56,
        "1168": 9,
        "1169": 94,
        "1170": 70,
        "1171": 81,
        "1172": 178,
        "1173": 39,
        "1174": 97,
        "1175": 107,
        "1176": 62,
        "1177": 178,
        "1178": 105,
        "1179": 171,
        "1180": 40,
        "1181": 73,
        "1182": 13,
        "1183": 131,
        "1184": 128,
        "1185": 42,
        "1186": 113,
        "1187": 51,
        "1188": 9,
        "1189": 1,
        "1190": 145,
        "1191": 146,
        "1192": 129,
        "1193": 252,
        "1194": 19,
        "1195": 196,
        "1196": 194,
        "1197": 108,
        "1198": 178,
        "1199": 153,
        "1200": 191,
        "1201": 46,
        "1202": 191,
        "1203": 14,
        "1204": 157,
        "1205": 55,
        "1206": 139,
        "1207": 134,
        "1208": 66,
        "1209": 250,
        "1210": 157,
        "1211": 175,
        "1212": 199,
        "1213": 124,
        "1214": 156,
        "1215": 201,
        "1216": 11,
        "1217": 166,
        "1218": 125,
        "1219": 107,
        "1220": 115,
        "1221": 231,
        "1222": 101,
        "1223": 67,
        "1224": 110,
        "1225": 119,
        "1226": 240,
        "1227": 31,
        "1228": 89,
        "1229": 101,
        "1230": 191,
        "1231": 1,
        "1232": 207,
        "1233": 144,
        "1234": 55,
        "1235": 45,
        "1236": 162,
        "1237": 65,
        "1238": 20,
        "1239": 241,
        "1240": 62,
        "1241": 135,
        "1242": 3,
        "1243": 134,
        "1244": 111,
        "1245": 94,
        "1246": 157,
        "1247": 145,
        "1248": 149,
        "1249": 26,
        "1250": 87,
        "1251": 80,
        "1252": 14,
        "1253": 153,
        "1254": 120,
        "1255": 222,
        "1256": 25,
        "1257": 205,
        "1258": 0,
        "1259": 169,
        "1260": 208,
        "1261": 149,
        "1262": 186,
        "1263": 120,
        "1264": 71,
        "1265": 190,
        "1266": 180,
        "1267": 189,
        "1268": 39,
        "1269": 253,
        "1270": 212,
        "1271": 240,
        "1272": 41,
        "1273": 229,
        "1274": 112,
        "1275": 178,
        "1276": 175,
        "1277": 125,
        "1278": 191,
        "1279": 46,
        "1280": 54,
        "1281": 224,
        "1282": 145,
        "1283": 50,
        "1284": 23,
        "1285": 233,
        "1286": 140,
        "1287": 154,
        "1288": 174,
        "1289": 193,
        "1290": 67,
        "1291": 196,
        "1292": 199,
        "1293": 13,
        "1294": 10,
        "1295": 120,
        "1296": 32,
        "1297": 76,
        "1298": 181,
        "1299": 214,
        "1300": 118,
        "1301": 83,
        "1302": 247,
        "1303": 245,
        "1304": 96,
        "1305": 201,
        "1306": 91,
        "1307": 193,
        "1308": 231,
        "1309": 157,
        "1310": 150,
        "1311": 182,
        "1312": 157,
        "1313": 40,
        "1314": 100,
        "1315": 39,
        "1316": 160,
        "1317": 86,
        "1318": 205,
        "1319": 157,
        "1320": 243,
        "1321": 97,
        "1322": 31,
        "1323": 218,
        "1324": 40,
        "1325": 8,
        "1326": 236,
        "1327": 223,
        "1328": 52,
        "1329": 126,
        "1330": 104,
        "1331": 41,
        "1332": 107,
        "1333": 202,
        "1334": 121,
        "1335": 145,
        "1336": 174,
        "1337": 56,
        "1338": 124,
        "1339": 226,
        "1340": 252,
        "1341": 223,
        "1342": 230,
        "1343": 179,
        "1344": 45,
        "1345": 242,
        "1346": 42,
        "1347": 206,
        "1348": 219,
        "1349": 102,
        "1350": 214,
        "1351": 148,
        "1352": 184,
        "1353": 61,
        "1354": 89,
        "1355": 59,
        "1356": 161,
        "1357": 65,
        "1358": 252,
        "1359": 191,
        "1360": 130,
        "1361": 52,
        "1362": 13,
        "1363": 34,
        "1364": 248,
        "1365": 237,
        "1366": 55,
        "1367": 8,
        "1368": 209,
        "1369": 235,
        "1370": 114,
        "1371": 63,
        "1372": 86,
        "1373": 111,
        "1374": 75,
        "1375": 15,
        "1376": 139,
        "1377": 236,
        "1378": 241,
        "1379": 157,
        "1380": 146,
        "1381": 241,
        "1382": 62,
        "1383": 33,
        "1384": 36,
        "1385": 9,
        "1386": 110,
        "1387": 197,
        "1388": 209,
        "1389": 187,
        "1390": 78,
        "1391": 100,
        "1392": 55,
        "1393": 72,
        "1394": 245,
        "1395": 43,
        "1396": 62,
        "1397": 27,
        "1398": 11,
        "1399": 125,
        "1400": 197,
        "1401": 1,
        "1402": 242,
        "1403": 191,
        "1404": 142,
        "1405": 96,
        "1406": 27,
        "1407": 57,
        "1408": 108,
        "1409": 73,
        "1410": 235,
        "1411": 13,
        "1412": 208,
        "1413": 168,
        "1414": 161,
        "1415": 117,
        "1416": 112,
        "1417": 63,
        "1418": 2,
        "1419": 173,
        "1420": 71,
        "1421": 205,
        "1422": 210,
        "1423": 223,
        "1424": 107,
        "1425": 205,
        "1426": 118,
        "1427": 163,
        "1428": 50,
        "1429": 123,
        "1430": 177,
        "1431": 129,
        "1432": 108,
        "1433": 220,
        "1434": 204,
        "1435": 180,
        "1436": 84,
        "1437": 132,
        "1438": 233,
        "1439": 187,
        "1440": 38,
        "1441": 111,
        "1442": 16,
        "1443": 195,
        "1444": 19,
        "1445": 130,
        "1446": 128,
        "1447": 187,
        "1448": 25,
        "1449": 237,
        "1450": 238,
        "1451": 67,
        "1452": 248,
        "1453": 156,
        "1454": 183,
        "1455": 30,
        "1456": 65,
        "1457": 85,
        "1458": 15,
        "1459": 241,
        "1460": 255,
        "1461": 184,
        "1462": 93,
        "1463": 38,
        "1464": 19,
        "1465": 46,
        "1466": 11,
        "1467": 105,
        "1468": 90,
        "1469": 67,
        "1470": 215,
        "1471": 116,
        "1472": 188,
        "1473": 73,
        "1474": 174,
        "1475": 156,
        "1476": 225,
        "1477": 67,
        "1478": 13,
        "1479": 43,
        "1480": 120,
        "1481": 0,
        "1482": 37,
        "1483": 31,
        "1484": 7,
        "1485": 118,
        "1486": 237,
        "1487": 177,
        "1488": 228,
        "1489": 37,
        "1490": 85,
        "1491": 7,
        "1492": 71,
        "1493": 196,
        "1494": 17,
        "1495": 124,
        "1496": 134,
        "1497": 169,
        "1498": 32,
        "1499": 91,
        "1500": 106,
        "1501": 54,
        "1502": 193,
        "1503": 183,
        "1504": 190,
        "1505": 98,
        "1506": 38,
        "1507": 184,
        "1508": 214,
        "1509": 192,
        "1510": 103,
        "1511": 27,
        "1512": 112,
        "1513": 51,
        "1514": 242,
        "1515": 129,
        "1516": 64,
        "1517": 15,
        "1518": 83,
        "1519": 46,
        "1520": 111,
        "1521": 234,
        "1522": 107,
        "1523": 199,
        "1524": 200,
        "1525": 166,
        "1526": 176,
        "1527": 221,
        "1528": 193,
        "1529": 23,
        "1530": 141,
        "1531": 131,
        "1532": 94,
        "1533": 200,
        "1534": 253,
        "1535": 180,
        "1536": 168,
        "1537": 236,
        "1538": 70,
        "1539": 111,
        "1540": 160,
        "1541": 105,
        "1542": 124,
        "1543": 118,
        "1544": 141,
        "1545": 70,
        "1546": 231,
        "1547": 161,
        "1548": 239,
        "1549": 44,
        "1550": 249,
        "1551": 192,
        "1552": 34,
        "1553": 195,
        "1554": 181,
        "1555": 204,
        "1556": 54,
        "1557": 143,
        "1558": 9,
        "1559": 160,
        "1560": 129,
        "1561": 33,
        "1562": 144,
        "1563": 68,
        "1564": 157,
        "1565": 2,
        "1566": 181,
        "1567": 50,
        "1568": 90,
        "1569": 23,
        "1570": 37,
        "1571": 218,
        "1572": 27,
        "1573": 113,
        "1574": 14,
        "1575": 20,
        "1576": 67,
        "1577": 212,
        "1578": 141,
        "1579": 99,
        "1580": 231,
        "1581": 216,
        "1582": 212,
        "1583": 57,
        "1584": 226,
        "1585": 70,
        "1586": 149,
        "1587": 80,
        "1588": 184,
        "1589": 232,
        "1590": 129,
        "1591": 63,
        "1592": 238,
        "1593": 46,
        "1594": 194,
        "1595": 68,
        "1596": 117,
        "1597": 59,
        "1598": 227,
        "1599": 14,
        "1600": 121,
        "1601": 15,
        "1602": 76,
        "1603": 74,
        "1604": 83,
        "1605": 86,
        "1606": 100,
        "1607": 133,
        "1608": 121,
        "1609": 155,
        "1610": 248,
        "1611": 168,
        "1612": 224,
        "1613": 225,
        "1614": 162,
        "1615": 80,
        "1616": 165,
        "1617": 55,
        "1618": 139,
        "1619": 249,
        "1620": 37,
        "1621": 142,
        "1622": 25,
        "1623": 105,
        "1624": 154,
        "1625": 45,
        "1626": 47,
        "1627": 60,
        "1628": 187,
        "1629": 53,
        "1630": 114,
        "1631": 131,
        "1632": 62,
        "1633": 236,
        "1634": 36,
        "1635": 158,
        "1636": 10,
        "1637": 91,
        "1638": 23,
        "1639": 101,
        "1640": 112,
        "1641": 21,
        "1642": 198,
        "1643": 134,
        "1644": 11,
        "1645": 76,
        "1646": 192,
        "1647": 249,
        "1648": 250,
        "1649": 1,
        "1650": 36,
        "1651": 14,
        "1652": 143,
        "1653": 188,
        "1654": 110,
        "1655": 87,
        "1656": 184,
        "1657": 84,
        "1658": 31,
        "1659": 113,
        "1660": 191,
        "1661": 70,
        "1662": 38,
        "1663": 134,
        "1664": 203,
        "1665": 16,
        "1666": 30,
        "1667": 240,
        "1668": 28,
        "1669": 29,
        "1670": 172,
        "1671": 238,
        "1672": 178,
        "1673": 165,
        "1674": 208,
        "1675": 160,
        "1676": 171,
        "1677": 99,
        "1678": 177,
        "1679": 9,
        "1680": 133,
        "1681": 219,
        "1682": 14,
        "1683": 132,
        "1684": 22,
        "1685": 96,
        "1686": 111,
        "1687": 55,
        "1688": 109,
        "1689": 229,
        "1690": 124,
        "1691": 165,
        "1692": 25,
        "1693": 83,
        "1694": 72,
        "1695": 103,
        "1696": 206,
        "1697": 43,
        "1698": 127,
        "1699": 45,
        "1700": 45,
        "1701": 105,
        "1702": 49,
        "1703": 17,
        "1704": 93,
        "1705": 165,
        "1706": 252,
        "1707": 189,
        "1708": 174,
        "1709": 141,
        "1710": 225,
        "1711": 51,
        "1712": 117,
        "1713": 6,
        "1714": 227,
        "1715": 130,
        "1716": 61,
        "1717": 21,
        "1718": 162,
        "1719": 227,
        "1720": 225,
        "1721": 254,
        "1722": 105,
        "1723": 195,
        "1724": 0,
        "1725": 104,
        "1726": 80,
        "1727": 197,
        "1728": 25,
        "1729": 211,
        "1730": 61,
        "1731": 43,
        "1732": 93,
        "1733": 102,
        "1734": 135,
        "1735": 148,
        "1736": 216,
        "1737": 250,
        "1738": 174,
        "1739": 250,
        "1740": 26,
        "1741": 10,
        "1742": 250,
        "1743": 119,
        "1744": 160,
        "1745": 50,
        "1746": 228,
        "1747": 86,
        "1748": 94,
        "1749": 99,
        "1750": 173,
        "1751": 231,
        "1752": 171,
        "1753": 55,
        "1754": 120,
        "1755": 180,
        "1756": 151,
        "1757": 173,
        "1758": 1,
        "1759": 194,
        "1760": 167,
        "1761": 197,
        "1762": 39,
        "1763": 8,
        "1764": 116,
        "1765": 240,
        "1766": 6,
        "1767": 11,
        "1768": 58,
        "1769": 177,
        "1770": 184,
        "1771": 12,
        "1772": 105,
        "1773": 63,
        "1774": 160,
        "1775": 49,
        "1776": 74,
        "1777": 112,
        "1778": 95,
        "1779": 167,
        "1780": 197,
        "1781": 50,
        "1782": 15,
        "1783": 68,
        "1784": 20,
        "1785": 7,
        "1786": 25,
        "1787": 15,
        "1788": 126,
        "1789": 192,
        "1790": 213,
        "1791": 250,
        "1792": 47,
        "1793": 107,
        "1794": 17,
        "1795": 3,
        "1796": 57,
        "1797": 96,
        "1798": 255,
        "1799": 245,
        "1800": 177,
        "1801": 137,
        "1802": 57,
        "1803": 14,
        "1804": 149,
        "1805": 77,
        "1806": 66,
        "1807": 212,
        "1808": 248,
        "1809": 97,
        "1810": 133,
        "1811": 104,
        "1812": 216,
        "1813": 197,
        "1814": 174,
        "1815": 175,
        "1816": 170,
        "1817": 134,
        "1818": 212,
        "1819": 109,
        "1820": 233,
        "1821": 34,
        "1822": 107,
        "1823": 127,
        "1824": 132,
        "1825": 155,
        "1826": 176,
        "1827": 144,
        "1828": 250,
        "1829": 181,
        "1830": 209,
        "1831": 8,
        "1832": 234,
        "1833": 105,
        "1834": 186,
        "1835": 251,
        "1836": 187,
        "1837": 90,
        "1838": 101,
        "1839": 9,
        "1840": 186,
        "1841": 232,
        "1842": 204,
        "1843": 154,
        "1844": 113,
        "1845": 2,
        "1846": 135,
        "1847": 130,
        "1848": 186,
        "1849": 71,
        "1850": 101,
        "1851": 12,
        "1852": 183,
        "1853": 56,
        "1854": 54,
        "1855": 220,
        "1856": 146,
        "1857": 63,
        "1858": 29,
        "1859": 141,
        "1860": 150,
        "1861": 109,
        "1862": 51,
        "1863": 228,
        "1864": 173,
        "1865": 82,
        "1866": 211,
        "1867": 156,
        "1868": 23,
        "1869": 202,
        "1870": 148,
        "1871": 227,
        "1872": 45,
        "1873": 86,
        "1874": 102,
        "1875": 121,
        "1876": 100,
        "1877": 222,
        "1878": 185,
        "1879": 243,
        "1880": 163,
        "1881": 241,
        "1882": 219,
        "1883": 118,
        "1884": 106,
        "1885": 196,
        "1886": 176,
        "1887": 236,
        "1888": 215,
        "1889": 239,
        "1890": 171,
        "1891": 201,
        "1892": 103,
        "1893": 39,
        "1894": 108,
        "1895": 141,
        "1896": 85,
        "1897": 59,
        "1898": 72,
        "1899": 159,
        "1900": 130,
        "1901": 198,
        "1902": 40,
        "1903": 114,
        "1904": 112,
        "1905": 177,
        "1906": 127,
        "1907": 186,
        "1908": 240,
        "1909": 209,
        "1910": 254,
        "1911": 65,
        "1912": 215,
        "1913": 232,
        "1914": 211,
        "1915": 139,
        "1916": 211,
        "1917": 235,
        "1918": 94,
        "1919": 89,
        "1920": 149,
        "1921": 74,
        "1922": 158,
        "1923": 205,
        "1924": 2,
        "1925": 52,
        "1926": 218,
        "1927": 74,
        "1928": 162,
        "1929": 100,
        "1930": 84,
        "1931": 157,
        "1932": 178,
        "1933": 152,
        "1934": 68,
        "1935": 72,
        "1936": 44,
        "1937": 15,
        "1938": 139,
        "1939": 68,
        "1940": 7,
        "1941": 118,
        "1942": 184,
        "1943": 77,
        "1944": 186,
        "1945": 162,
        "1946": 6,
        "1947": 56,
        "1948": 3,
        "1949": 216,
        "1950": 228,
        "1951": 136,
        "1952": 86,
        "1953": 26,
        "1954": 54,
        "1955": 182,
        "1956": 107,
        "1957": 201,
        "1958": 95,
        "1959": 49,
        "1960": 189,
        "1961": 49,
        "1962": 152,
        "1963": 8,
        "1964": 87,
        "1965": 248,
        "1966": 126,
        "1967": 60,
        "1968": 28,
        "1969": 247,
        "1970": 88,
        "1971": 223,
        "1972": 175,
        "1973": 86,
        "1974": 43,
        "1975": 234,
        "1976": 37,
        "1977": 148,
        "1978": 70,
        "1979": 107,
        "1980": 188,
        "1981": 63,
        "1982": 158,
        "1983": 18,
        "1984": 249,
        "1985": 85,
        "1986": 110,
        "1987": 191,
        "1988": 122,
        "1989": 135,
        "1990": 139,
        "1991": 134,
        "1992": 218,
        "1993": 98,
        "1994": 207,
        "1995": 213,
        "1996": 7,
        "1997": 203,
        "1998": 63,
        "1999": 105,
        "2000": 57,
        "2001": 162,
        "2002": 124,
        "2003": 119,
        "2004": 244,
        "2005": 5,
        "2006": 196,
        "2007": 127,
        "2008": 235,
        "2009": 35,
        "2010": 45,
        "2011": 29,
        "2012": 203,
        "2013": 187,
        "2014": 113,
        "2015": 121,
        "2016": 157,
        "2017": 207,
        "2018": 171,
        "2019": 151,
        "2020": 148,
        "2021": 66,
        "2022": 108,
        "2023": 189,
        "2024": 131,
        "2025": 72,
        "2026": 132,
        "2027": 196,
        "2028": 224,
        "2029": 200,
        "2030": 129,
        "2031": 212,
        "2032": 202,
        "2033": 175,
        "2034": 7,
        "2035": 145,
        "2036": 134,
        "2037": 22,
        "2038": 251,
        "2039": 39,
        "2040": 68,
        "2041": 24,
        "2042": 20,
        "2043": 88,
        "2044": 170,
        "2045": 58,
        "2046": 90,
        "2047": 7,
        "2048": 73,
        "2049": 87,
        "2050": 182,
        "2051": 76,
        "2052": 83,
        "2053": 64,
        "2054": 171,
        "2055": 232,
        "2056": 164,
        "2057": 18,
        "2058": 149,
        "2059": 163,
        "2060": 40,
        "2061": 150,
        "2062": 120,
        "2063": 5,
        "2064": 221,
        "2065": 29,
        "2066": 193,
        "2067": 140,
        "2068": 150,
        "2069": 61,
        "2070": 74,
        "2071": 29,
        "2072": 101,
        "2073": 170,
        "2074": 241,
        "2075": 107,
        "2076": 211,
        "2077": 121,
        "2078": 127,
        "2079": 149,
        "2080": 73,
        "2081": 159,
        "2082": 22,
        "2083": 220,
        "2084": 1,
        "2085": 124,
        "2086": 115,
        "2087": 78,
        "2088": 73,
        "2089": 21,
        "2090": 44,
        "2091": 162,
        "2092": 207,
        "2093": 77,
        "2094": 71,
        "2095": 24,
        "2096": 239,
        "2097": 171,
        "2098": 141,
        "2099": 220,
        "2100": 182,
        "2101": 180,
        "2102": 29,
        "2103": 4,
        "2104": 127,
        "2105": 110,
        "2106": 238,
        "2107": 235,
        "2108": 226,
        "2109": 82,
        "2110": 190,
        "2111": 231,
        "2112": 113,
        "2113": 209,
        "2114": 83,
        "2115": 255,
        "2116": 62,
        "2117": 223,
        "2118": 81,
        "2119": 237,
        "2120": 157,
        "2121": 206,
        "2122": 109,
        "2123": 131,
        "2124": 95,
        "2125": 97,
        "2126": 65,
        "2127": 156,
        "2128": 39,
        "2129": 125,
        "2130": 100,
        "2131": 126,
        "2132": 150,
        "2133": 103,
        "2134": 11,
        "2135": 200,
        "2136": 24,
        "2137": 66,
        "2138": 204,
        "2139": 252,
        "2140": 167,
        "2141": 201,
        "2142": 136,
        "2143": 221,
        "2144": 63,
        "2145": 53,
        "2146": 44,
        "2147": 5,
        "2148": 41,
        "2149": 85,
        "2150": 129,
        "2151": 119,
        "2152": 188,
        "2153": 232,
        "2154": 59,
        "2155": 73,
        "2156": 17,
        "2157": 143,
        "2158": 17,
        "2159": 45,
        "2160": 0,
        "2161": 223,
        "2162": 77,
        "2163": 198,
        "2164": 138,
        "2165": 118,
        "2166": 168,
        "2167": 102,
        "2168": 224,
        "2169": 197,
        "2170": 178,
        "2171": 239,
        "2172": 150,
        "2173": 208,
        "2174": 127,
        "2175": 38,
        "2176": 104,
        "2177": 14,
        "2178": 59,
        "2179": 73,
        "2180": 23,
        "2181": 161,
        "2182": 35,
        "2183": 211,
        "2184": 180,
        "2185": 116,
        "2186": 15,
        "2187": 121,
        "2188": 67,
        "2189": 53,
        "2190": 168,
        "2191": 166,
        "2192": 64,
        "2193": 158,
        "2194": 85,
        "2195": 71,
        "2196": 77,
        "2197": 42,
        "2198": 26,
        "2199": 252,
        "2200": 26,
        "2201": 12,
        "2202": 222,
        "2203": 122,
        "2204": 39,
        "2205": 184,
        "2206": 181,
        "2207": 154,
        "2208": 42,
        "2209": 73,
        "2210": 60,
        "2211": 167,
        "2212": 48,
        "2213": 48,
        "2214": 176,
        "2215": 29,
        "2216": 68,
        "2217": 29,
        "2218": 154,
        "2219": 239,
        "2220": 208,
        "2221": 52,
        "2222": 171,
        "2223": 35,
        "2224": 210,
        "2225": 100,
        "2226": 36,
        "2227": 41,
        "2228": 252,
        "2229": 3,
        "2230": 77,
        "2231": 6,
        "2232": 119,
        "2233": 211,
        "2234": 138,
        "2235": 93,
        "2236": 191,
        "2237": 61,
        "2238": 169,
        "2239": 13,
        "2240": 105,
        "2241": 189,
        "2242": 187,
        "2243": 54,
        "2244": 191,
        "2245": 28,
        "2246": 58,
        "2247": 63,
        "2248": 189,
        "2249": 2,
        "2250": 148,
        "2251": 255,
        "2252": 101,
        "2253": 86,
        "2254": 69,
        "2255": 105,
        "2256": 21,
        "2257": 234,
        "2258": 89,
        "2259": 30,
        "2260": 16,
        "2261": 201,
        "2262": 228,
        "2263": 126,
        "2264": 36,
        "2265": 227,
        "2266": 166,
        "2267": 91,
        "2268": 137,
        "2269": 107,
        "2270": 95,
        "2271": 222,
        "2272": 170,
        "2273": 76,
        "2274": 86,
        "2275": 121,
        "2276": 127,
        "2277": 196,
        "2278": 203,
        "2279": 227,
        "2280": 162,
        "2281": 247,
        "2282": 129,
        "2283": 138,
        "2284": 137,
        "2285": 49,
        "2286": 25,
        "2287": 111,
        "2288": 2,
        "2289": 127,
        "2290": 4,
        "2291": 154,
        "2292": 115,
        "2293": 13,
        "2294": 254,
        "2295": 219,
        "2296": 238,
        "2297": 231,
        "2298": 20,
        "2299": 110,
        "2300": 139,
        "2301": 10,
        "2302": 130,
        "2303": 197,
        "2304": 29,
        "2305": 192,
        "2306": 104,
        "2307": 146,
        "2308": 255,
        "2309": 191,
        "2310": 14,
        "2311": 199,
        "2312": 181,
        "2313": 216,
        "2314": 153,
        "2315": 173,
        "2316": 236,
        "2317": 77,
        "2318": 212,
        "2319": 43,
        "2320": 29,
        "2321": 122,
        "2322": 191,
        "2323": 56,
        "2324": 74,
        "2325": 30,
        "2326": 88,
        "2327": 195,
        "2328": 48,
        "2329": 202,
        "2330": 243,
        "2331": 51,
        "2332": 213,
        "2333": 123,
        "2334": 245,
        "2335": 13,
        "2336": 6,
        "2337": 85,
        "2338": 220,
        "2339": 232,
        "2340": 78,
        "2341": 79,
        "2342": 17,
        "2343": 107,
        "2344": 54,
        "2345": 77,
        "2346": 78,
        "2347": 79,
        "2348": 148,
        "2349": 228,
        "2350": 175,
        "2351": 98,
        "2352": 171,
        "2353": 224,
        "2354": 147,
        "2355": 112,
        "2356": 149,
        "2357": 198,
        "2358": 83,
        "2359": 137,
        "2360": 232,
        "2361": 50,
        "2362": 56,
        "2363": 101,
        "2364": 169,
        "2365": 167,
        "2366": 77,
        "2367": 128,
        "2368": 21,
        "2369": 88,
        "2370": 93,
        "2371": 90,
        "2372": 60,
        "2373": 7,
        "2374": 9,
        "2375": 2,
        "2376": 167,
        "2377": 210,
        "2378": 121,
        "2379": 16,
        "2380": 150,
        "2381": 236,
        "2382": 68,
        "2383": 46,
        "2384": 123,
        "2385": 211,
        "2386": 217,
        "2387": 118,
        "2388": 145,
        "2389": 90,
        "2390": 90,
        "2391": 111,
        "2392": 184,
        "2393": 190,
        "2394": 90,
        "2395": 228,
        "2396": 236,
        "2397": 250,
        "2398": 40,
        "2399": 91,
        "2400": 228,
        "2401": 251,
        "2402": 132,
        "2403": 201,
        "2404": 100,
        "2405": 73,
        "2406": 12,
        "2407": 189,
        "2408": 124,
        "2409": 92,
        "2410": 248,
        "2411": 13,
        "2412": 24,
        "2413": 46,
        "2414": 162,
        "2415": 107,
        "2416": 2,
        "2417": 253,
        "2418": 217,
        "2419": 87,
        "2420": 126,
        "2421": 119,
        "2422": 195,
        "2423": 60,
        "2424": 168,
        "2425": 1,
        "2426": 29,
        "2427": 129,
        "2428": 153,
        "2429": 95,
        "2430": 142,
        "2431": 233,
        "2432": 99,
        "2433": 81,
        "2434": 230,
        "2435": 7,
        "2436": 209,
        "2437": 40,
        "2438": 224,
        "2439": 184,
        "2440": 182,
        "2441": 209,
        "2442": 141,
        "2443": 12,
        "2444": 80,
        "2445": 252,
        "2446": 21,
        "2447": 230,
        "2448": 162,
        "2449": 90,
        "2450": 170,
        "2451": 85,
        "2452": 155,
        "2453": 48,
        "2454": 141,
        "2455": 106,
        "2456": 134,
        "2457": 225,
        "2458": 245,
        "2459": 250,
        "2460": 203,
        "2461": 164,
        "2462": 66,
        "2463": 207,
        "2464": 5,
        "2465": 237,
        "2466": 97,
        "2467": 183,
        "2468": 217,
        "2469": 215,
        "2470": 76,
        "2471": 142,
        "2472": 198,
        "2473": 46,
        "2474": 124,
        "2475": 153,
        "2476": 101,
        "2477": 132,
        "2478": 8,
        "2479": 221,
        "2480": 174,
        "2481": 202,
        "2482": 29,
        "2483": 238,
        "2484": 29,
        "2485": 167,
        "2486": 166,
        "2487": 73,
        "2488": 115,
        "2489": 210,
        "2490": 213,
        "2491": 60,
        "2492": 205,
        "2493": 24,
        "2494": 100,
        "2495": 130,
        "2496": 184,
        "2497": 62,
        "2498": 242,
        "2499": 194,
        "2500": 96,
        "2501": 222,
        "2502": 100,
        "2503": 183,
        "2504": 138,
        "2505": 84,
        "2506": 132,
        "2507": 170,
        "2508": 185,
        "2509": 196,
        "2510": 188,
        "2511": 235,
        "2512": 242,
        "2513": 26,
        "2514": 130,
        "2515": 6,
        "2516": 95,
        "2517": 100,
        "2518": 60,
        "2519": 80,
        "2520": 54,
        "2521": 239,
        "2522": 228,
        "2523": 33,
        "2524": 174,
        "2525": 123,
        "2526": 148,
        "2527": 124,
        "2528": 132,
        "2529": 187,
        "2530": 12,
        "2531": 159,
        "2532": 187,
        "2533": 197,
        "2534": 224,
        "2535": 196,
        "2536": 197,
        "2537": 115,
        "2538": 209,
        "2539": 90,
        "2540": 185,
        "2541": 72,
        "2542": 30,
        "2543": 79,
        "2544": 82,
        "2545": 225,
        "2546": 40,
        "2547": 88,
        "2548": 50,
        "2549": 199,
        "2550": 16,
        "2551": 185,
        "2552": 8,
        "2553": 36,
        "2554": 127,
        "2555": 90,
        "2556": 144,
        "2557": 92,
        "2558": 195,
        "2559": 131,
        "2560": 188,
        "2561": 79,
        "2562": 185,
        "2563": 13,
        "2564": 196,
        "2565": 159,
        "2566": 238,
        "2567": 118,
        "2568": 195,
        "2569": 48,
        "2570": 28,
        "2571": 198,
        "2572": 40,
        "2573": 11,
        "2574": 206,
        "2575": 85,
        "2576": 75,
        "2577": 148,
        "2578": 5,
        "2579": 19,
        "2580": 160,
        "2581": 128,
        "2582": 194,
        "2583": 171,
        "2584": 116,
        "2585": 81,
        "2586": 158,
        "2587": 165,
        "2588": 201,
        "2589": 28,
        "2590": 177,
        "2591": 181,
        "2592": 71,
        "2593": 105,
        "2594": 239,
        "2595": 125,
        "2596": 33,
        "2597": 184,
        "2598": 206,
        "2599": 31,
        "2600": 135,
        "2601": 175,
        "2602": 15,
        "2603": 208,
        "2604": 30,
        "2605": 193,
        "2606": 13,
        "2607": 69,
        "2608": 35,
        "2609": 225,
        "2610": 201,
        "2611": 58,
        "2612": 114,
        "2613": 248,
        "2614": 96,
        "2615": 3,
        "2616": 93,
        "2617": 53,
        "2618": 16,
        "2619": 28,
        "2620": 38,
        "2621": 219,
        "2622": 24,
        "2623": 231,
        "2624": 159,
        "2625": 205,
        "2626": 248,
        "2627": 9,
        "2628": 166,
        "2629": 196,
        "2630": 106,
        "2631": 9,
        "2632": 119,
        "2633": 53,
        "2634": 227,
        "2635": 139,
        "2636": 117,
        "2637": 9,
        "2638": 58,
        "2639": 22,
        "2640": 229,
        "2641": 90,
        "2642": 112,
        "2643": 152,
        "2644": 161,
        "2645": 11,
        "2646": 250,
        "2647": 202,
        "2648": 59,
        "2649": 228,
        "2650": 106,
        "2651": 163,
        "2652": 84,
        "2653": 26,
        "2654": 34,
        "2655": 70,
        "2656": 87,
        "2657": 78,
        "2658": 90,
        "2659": 21,
        "2660": 183,
        "2661": 243,
        "2662": 144,
        "2663": 66,
        "2664": 115,
        "2665": 181,
        "2666": 57,
        "2667": 10,
        "2668": 185,
        "2669": 190,
        "2670": 99,
        "2671": 190,
        "2672": 5,
        "2673": 31,
        "2674": 15,
        "2675": 138,
        "2676": 26,
        "2677": 44,
        "2678": 65,
        "2679": 81,
        "2680": 40,
        "2681": 159,
        "2682": 252,
        "2683": 86,
        "2684": 223,
        "2685": 62,
        "2686": 137,
        "2687": 50,
        "2688": 158,
        "2689": 240,
        "2690": 245,
        "2691": 96,
        "2692": 35,
        "2693": 16,
        "2694": 208,
        "2695": 41,
        "2696": 32,
        "2697": 47,
        "2698": 77,
        "2699": 144,
        "2700": 97,
        "2701": 14,
        "2702": 60,
        "2703": 238,
        "2704": 138,
        "2705": 81,
        "2706": 22,
        "2707": 253,
        "2708": 196,
        "2709": 80,
        "2710": 236,
        "2711": 193,
        "2712": 120,
        "2713": 149,
        "2714": 232,
        "2715": 166,
        "2716": 194,
        "2717": 179,
        "2718": 165,
        "2719": 182,
        "2720": 136,
        "2721": 95,
        "2722": 234,
        "2723": 116,
        "2724": 151,
        "2725": 29,
        "2726": 160,
        "2727": 55,
        "2728": 37,
        "2729": 109,
        "2730": 71,
        "2731": 196,
        "2732": 179,
        "2733": 93,
        "2734": 241,
        "2735": 64,
        "2736": 88,
        "2737": 185,
        "2738": 163,
        "2739": 65,
        "2740": 86,
        "2741": 5,
        "2742": 212,
        "2743": 90,
        "2744": 47,
        "2745": 239,
        "2746": 224,
        "2747": 64,
        "2748": 120,
        "2749": 186,
        "2750": 233,
        "2751": 233,
        "2752": 85,
        "2753": 132,
        "2754": 210,
        "2755": 38,
        "2756": 191,
        "2757": 10,
        "2758": 30,
        "2759": 144,
        "2760": 249,
        "2761": 45,
        "2762": 145,
        "2763": 108,
        "2764": 187,
        "2765": 123,
        "2766": 139,
        "2767": 118,
        "2768": 36,
        "2769": 241,
        "2770": 85,
        "2771": 196,
        "2772": 156,
        "2773": 139,
        "2774": 170,
        "2775": 160,
        "2776": 139,
        "2777": 114,
        "2778": 16,
        "2779": 1,
        "2780": 95,
        "2781": 155,
        "2782": 114,
        "2783": 27,
        "2784": 11,
        "2785": 196,
        "2786": 50,
        "2787": 86,
        "2788": 36,
        "2789": 218,
        "2790": 96,
        "2791": 200,
        "2792": 28,
        "2793": 221,
        "2794": 234,
        "2795": 146,
        "2796": 18,
        "2797": 76,
        "2798": 69,
        "2799": 241,
        "2800": 136,
        "2801": 144,
        "2802": 151,
        "2803": 88,
        "2804": 128,
        "2805": 241,
        "2806": 235,
        "2807": 136,
        "2808": 141,
        "2809": 83,
        "2810": 207,
        "2811": 192,
        "2812": 60,
        "2813": 205,
        "2814": 180,
        "2815": 1,
        "2816": 227,
        "2817": 172,
        "2818": 91,
        "2819": 42,
        "2820": 39,
        "2821": 163,
        "2822": 104,
        "2823": 200,
        "2824": 76,
        "2825": 208,
        "2826": 107,
        "2827": 230,
        "2828": 157,
        "2829": 45,
        "2830": 186,
        "2831": 253,
        "2832": 57,
        "2833": 38,
        "2834": 116,
        "2835": 241,
        "2836": 145,
        "2837": 69,
        "2838": 10,
        "2839": 93,
        "2840": 135,
        "2841": 91,
        "2842": 205,
        "2843": 222,
        "2844": 208,
        "2845": 252,
        "2846": 147,
        "2847": 100,
        "2848": 250,
        "2849": 207,
        "2850": 205,
        "2851": 40,
        "2852": 44,
        "2853": 216,
        "2854": 189,
        "2855": 34,
        "2856": 62,
        "2857": 49,
        "2858": 229,
        "2859": 18,
        "2860": 237,
        "2861": 142,
        "2862": 39,
        "2863": 71,
        "2864": 255,
        "2865": 208,
        "2866": 137,
        "2867": 104,
        "2868": 114,
        "2869": 155,
        "2870": 166,
        "2871": 45,
        "2872": 56,
        "2873": 65,
        "2874": 138,
        "2875": 212,
        "2876": 211,
        "2877": 200,
        "2878": 101,
        "2879": 105,
        "2880": 157,
        "2881": 24,
        "2882": 82,
        "2883": 243,
        "2884": 223,
        "2885": 248,
        "2886": 223,
        "2887": 92,
        "2888": 107,
        "2889": 179,
        "2890": 201,
        "2891": 109,
        "2892": 16,
        "2893": 207,
        "2894": 222,
        "2895": 199,
        "2896": 14,
        "2897": 148,
        "2898": 224,
        "2899": 225,
        "2900": 77,
        "2901": 49,
        "2902": 56,
        "2903": 201,
        "2904": 182,
        "2905": 82,
        "2906": 246,
        "2907": 113,
        "2908": 195,
        "2909": 143,
        "2910": 84,
        "2911": 243,
        "2912": 1,
        "2913": 193,
        "2914": 220,
        "2915": 217,
        "2916": 211,
        "2917": 231,
        "2918": 59,
        "2919": 127,
        "2920": 241,
        "2921": 111,
        "2922": 223,
        "2923": 72,
        "2924": 70,
        "2925": 223,
        "2926": 175,
        "2927": 154,
        "2928": 180,
        "2929": 137,
        "2930": 150,
        "2931": 97,
        "2932": 61,
        "2933": 208,
        "2934": 199,
        "2935": 126,
        "2936": 160,
        "2937": 128,
        "2938": 37,
        "2939": 105,
        "2940": 196,
        "2941": 114,
        "2942": 159,
        "2943": 11,
        "2944": 251,
        "2945": 32,
        "2946": 144,
        "2947": 237,
        "2948": 116,
        "2949": 230,
        "2950": 84,
        "2951": 33,
        "2952": 62,
        "2953": 133,
        "2954": 234,
        "2955": 4,
        "2956": 151,
        "2957": 52,
        "2958": 61,
        "2959": 96,
        "2960": 107,
        "2961": 192,
        "2962": 216,
        "2963": 236,
        "2964": 35,
        "2965": 23,
        "2966": 87,
        "2967": 98,
        "2968": 50,
        "2969": 46,
        "2970": 175,
        "2971": 28,
        "2972": 114,
        "2973": 117,
        "2974": 239,
        "2975": 0,
        "2976": 163,
        "2977": 146,
        "2978": 255,
        "2979": 75,
        "2980": 77,
        "2981": 135,
        "2982": 79,
        "2983": 66,
        "2984": 60,
        "2985": 143,
        "2986": 150,
        "2987": 161,
        "2988": 144,
        "2989": 178,
        "2990": 184,
        "2991": 86,
        "2992": 175,
        "2993": 77,
        "2994": 234,
        "2995": 91,
        "2996": 107,
        "2997": 234,
        "2998": 243,
        "2999": 104,
        "3000": 127,
        "3001": 114,
        "3002": 188,
        "3003": 228,
        "3004": 26,
        "3005": 69,
        "3006": 138,
        "3007": 18,
        "3008": 198,
        "3009": 182,
        "3010": 56,
        "3011": 35,
        "3012": 81,
        "3013": 181,
        "3014": 88,
        "3015": 212,
        "3016": 166,
        "3017": 245,
        "3018": 136,
        "3019": 180,
        "3020": 235,
        "3021": 81,
        "3022": 247,
        "3023": 254,
        "3024": 56,
        "3025": 48,
        "3026": 88,
        "3027": 137,
        "3028": 211,
        "3029": 128,
        "3030": 51,
        "3031": 25,
        "3032": 26,
        "3033": 204,
        "3034": 96,
        "3035": 143,
        "3036": 185,
        "3037": 68,
        "3038": 232,
        "3039": 34,
        "3040": 217,
        "3041": 183,
        "3042": 254,
        "3043": 19,
        "3044": 252,
        "3045": 3,
        "3046": 95,
        "3047": 37,
        "3048": 121,
        "3049": 1,
        "3050": 58,
        "3051": 241,
        "3052": 106,
        "3053": 198,
        "3054": 157,
        "3055": 157,
        "3056": 50,
        "3057": 234,
        "3058": 237,
        "3059": 253,
        "3060": 215,
        "3061": 51,
        "3062": 135,
        "3063": 115,
        "3064": 39,
        "3065": 92,
        "3066": 214,
        "3067": 79,
        "3068": 87,
        "3069": 254,
        "3070": 18,
        "3071": 150,
        "3072": 128,
        "3073": 119,
        "3074": 44,
        "3075": 231,
        "3076": 29,
        "3077": 248,
        "3078": 20,
        "3079": 186,
        "3080": 117,
        "3081": 77,
        "3082": 134,
        "3083": 28,
        "3084": 160,
        "3085": 84,
        "3086": 51,
        "3087": 99,
        "3088": 114,
        "3089": 20,
        "3090": 103,
        "3091": 171,
        "3092": 174,
        "3093": 62,
        "3094": 225,
        "3095": 55,
        "3096": 141,
        "3097": 196,
        "3098": 7,
        "3099": 225,
        "3100": 150,
        "3101": 27,
        "3102": 217,
        "3103": 1,
        "3104": 87,
        "3105": 170,
        "3106": 100,
        "3107": 2,
        "3108": 99,
        "3109": 171,
        "3110": 181,
        "3111": 79,
        "3112": 182,
        "3113": 61,
        "3114": 156,
        "3115": 188,
        "3116": 92,
        "3117": 93,
        "3118": 158,
        "3119": 143,
        "3120": 94,
        "3121": 165,
        "3122": 166,
        "3123": 147,
        "3124": 14,
        "3125": 83,
        "3126": 2,
        "3127": 56,
        "3128": 144,
        "3129": 78,
        "3130": 153,
        "3131": 218,
        "3132": 212,
        "3133": 249,
        "3134": 46,
        "3135": 62,
        "3136": 110,
        "3137": 206,
        "3138": 149,
        "3139": 48,
        "3140": 62,
        "3141": 179,
        "3142": 7,
        "3143": 38,
        "3144": 158,
        "3145": 108,
        "3146": 75,
        "3147": 192,
        "3148": 100,
        "3149": 184,
        "3150": 202,
        "3151": 63,
        "3152": 242,
        "3153": 238,
        "3154": 74,
        "3155": 196,
        "3156": 183,
        "3157": 106,
        "3158": 167,
        "3159": 89,
        "3160": 160,
        "3161": 244,
        "3162": 85,
        "3163": 211,
        "3164": 163,
        "3165": 220,
        "3166": 230,
        "3167": 132,
        "3168": 234,
        "3169": 159,
        "3170": 35,
        "3171": 23,
        "3172": 99,
        "3173": 29,
        "3174": 220,
        "3175": 51,
        "3176": 222,
        "3177": 195,
        "3178": 2,
        "3179": 151,
        "3180": 162,
        "3181": 161,
        "3182": 194,
        "3183": 253,
        "3184": 250,
        "3185": 139,
        "3186": 101,
        "3187": 164,
        "3188": 149,
        "3189": 92,
        "3190": 239,
        "3191": 212,
        "3192": 108,
        "3193": 150,
        "3194": 18,
        "3195": 21,
        "3196": 239,
        "3197": 174,
        "3198": 183,
        "3199": 191,
        "3200": 69,
        "3201": 88,
        "3202": 218,
        "3203": 11,
        "3204": 204,
        "3205": 132,
        "3206": 236,
        "3207": 102,
        "3208": 131,
        "3209": 90,
        "3210": 101,
        "3211": 165,
        "3212": 10,
        "3213": 75,
        "3214": 182,
        "3215": 136,
        "3216": 144,
        "3217": 142,
        "3218": 144,
        "3219": 110,
        "3220": 85,
        "3221": 248,
        "3222": 60,
        "3223": 197,
        "3224": 132,
        "3225": 186,
        "3226": 126,
        "3227": 77,
        "3228": 67,
        "3229": 182,
        "3230": 24,
        "3231": 185,
        "3232": 15,
        "3233": 124,
        "3234": 237,
        "3235": 99,
        "3236": 12,
        "3237": 209,
        "3238": 178,
        "3239": 103,
        "3240": 183,
        "3241": 102,
        "3242": 150,
        "3243": 100,
        "3244": 0,
        "3245": 132,
        "3246": 13,
        "3247": 83,
        "3248": 221,
        "3249": 132,
        "3250": 25,
        "3251": 110,
        "3252": 183,
        "3253": 170,
        "3254": 112,
        "3255": 154,
        "3256": 120,
        "3257": 175,
        "3258": 94,
        "3259": 210,
        "3260": 150,
        "3261": 58,
        "3262": 199,
        "3263": 175,
        "3264": 211,
        "3265": 183,
        "3266": 8,
        "3267": 183,
        "3268": 67,
        "3269": 150,
        "3270": 124,
        "3271": 167,
        "3272": 60,
        "3273": 124,
        "3274": 117,
        "3275": 34,
        "3276": 22,
        "3277": 156,
        "3278": 7,
        "3279": 188,
        "3280": 87,
        "3281": 18,
        "3282": 121,
        "3283": 169,
        "3284": 186,
        "3285": 69,
        "3286": 30,
        "3287": 79,
        "3288": 235,
        "3289": 196,
        "3290": 64,
        "3291": 251,
        "3292": 206,
        "3293": 64,
        "3294": 93,
        "3295": 237,
        "3296": 163,
        "3297": 197,
        "3298": 131,
        "3299": 201,
        "3300": 71,
        "3301": 192,
        "3302": 53,
        "3303": 10,
        "3304": 167,
        "3305": 23,
        "3306": 34,
        "3307": 212,
        "3308": 25,
        "3309": 163,
        "3310": 208,
        "3311": 113,
        "3312": 200,
        "3313": 1,
        "3314": 201,
        "3315": 71,
        "3316": 190,
        "3317": 238,
        "3318": 225,
        "3319": 174,
        "3320": 192,
        "3321": 4,
        "3322": 237,
        "3323": 247,
        "3324": 181,
        "3325": 144,
        "3326": 147,
        "3327": 195,
        "3328": 163,
        "3329": 255,
        "3330": 208,
        "3331": 49,
        "3332": 57,
        "3333": 141,
        "3334": 247,
        "3335": 191,
        "3336": 52,
        "3337": 242,
        "3338": 95,
        "3339": 194,
        "3340": 226,
        "3341": 69,
        "3342": 240,
        "3343": 146,
        "3344": 111,
        "3345": 190,
        "3346": 178,
        "3347": 80,
        "3348": 202,
        "3349": 246,
        "3350": 100,
        "3351": 19,
        "3352": 215,
        "3353": 114,
        "3354": 123,
        "3355": 219,
        "3356": 62,
        "3357": 222,
        "3358": 78,
        "3359": 81,
        "3360": 12,
        "3361": 251,
        "3362": 216,
        "3363": 19,
        "3364": 86,
        "3365": 232,
        "3366": 243,
        "3367": 70,
        "3368": 226,
        "3369": 86,
        "3370": 211,
        "3371": 24,
        "3372": 208,
        "3373": 202,
        "3374": 94,
        "3375": 121,
        "3376": 193,
        "3377": 152,
        "3378": 245,
        "3379": 20,
        "3380": 144,
        "3381": 224,
        "3382": 41,
        "3383": 168,
        "3384": 35,
        "3385": 224,
        "3386": 59,
        "3387": 237,
        "3388": 252,
        "3389": 17,
        "3390": 172,
        "3391": 230,
        "3392": 103,
        "3393": 105,
        "3394": 11,
        "3395": 114,
        "3396": 229,
        "3397": 111,
        "3398": 127,
        "3399": 135,
        "3400": 152,
        "3401": 141,
        "3402": 35,
        "3403": 9,
        "3404": 28,
        "3405": 18,
        "3406": 192,
        "3407": 49,
        "3408": 124,
        "3409": 6,
        "3410": 26,
        "3411": 99,
        "3412": 102,
        "3413": 69,
        "3414": 221,
        "3415": 97,
        "3416": 31,
        "3417": 124,
        "3418": 24,
        "3419": 36,
        "3420": 133,
        "3421": 165,
        "3422": 209,
        "3423": 185,
        "3424": 0,
        "3425": 88,
        "3426": 176,
        "3427": 22,
        "3428": 223,
        "3429": 253,
        "3430": 162,
        "3431": 94,
        "3432": 144,
        "3433": 85,
        "3434": 190,
        "3435": 199,
        "3436": 236,
        "3437": 254,
        "3438": 84,
        "3439": 135,
        "3440": 220,
        "3441": 5,
        "3442": 39,
        "3443": 212,
        "3444": 153,
        "3445": 81,
        "3446": 230,
        "3447": 222,
        "3448": 238,
        "3449": 81,
        "3450": 32,
        "3451": 36,
        "3452": 132,
        "3453": 9,
        "3454": 241,
        "3455": 226,
        "3456": 182,
        "3457": 48,
        "3458": 165,
        "3459": 158,
        "3460": 159,
        "3461": 123,
        "3462": 32,
        "3463": 24,
        "3464": 17,
        "3465": 65,
        "3466": 159,
        "3467": 244,
        "3468": 114,
        "3469": 39,
        "3470": 60,
        "3471": 210,
        "3472": 205,
        "3473": 17,
        "3474": 190,
        "3475": 118,
        "3476": 61,
        "3477": 17,
        "3478": 45,
        "3479": 212,
        "3480": 38,
        "3481": 175,
        "3482": 44,
        "3483": 134,
        "3484": 238,
        "3485": 85,
        "3486": 195,
        "3487": 15,
        "3488": 111,
        "3489": 25,
        "3490": 224,
        "3491": 76,
        "3492": 220,
        "3493": 34,
        "3494": 186,
        "3495": 11,
        "3496": 253,
        "3497": 121,
        "3498": 10,
        "3499": 30,
        "3500": 57,
        "3501": 214,
        "3502": 86,
        "3503": 74,
        "3504": 103,
        "3505": 36,
        "3506": 151,
        "3507": 135,
        "3508": 114,
        "3509": 226,
        "3510": 144,
        "3511": 102,
        "3512": 120,
        "3513": 255,
        "3514": 181,
        "3515": 115,
        "3516": 42,
        "3517": 115,
        "3518": 237,
        "3519": 1,
        "3520": 158,
        "3521": 184,
        "3522": 15,
        "3523": 23,
        "3524": 162,
        "3525": 89,
        "3526": 82,
        "3527": 59,
        "3528": 123,
        "3529": 59,
        "3530": 46,
        "3531": 73,
        "3532": 68,
        "3533": 45,
        "3534": 68,
        "3535": 125,
        "3536": 86,
        "3537": 107,
        "3538": 227,
        "3539": 182,
        "3540": 43,
        "3541": 222,
        "3542": 56,
        "3543": 214,
        "3544": 86,
        "3545": 103,
        "3546": 98,
        "3547": 72,
        "3548": 116,
        "3549": 193,
        "3550": 72,
        "3551": 38,
        "3552": 82,
        "3553": 117,
        "3554": 134,
        "3555": 19,
        "3556": 16,
        "3557": 93,
        "3558": 219,
        "3559": 204,
        "3560": 193,
        "3561": 197,
        "3562": 63,
        "3563": 224,
        "3564": 85,
        "3565": 254,
        "3566": 40,
        "3567": 179,
        "3568": 43,
        "3569": 173,
        "3570": 90,
        "3571": 100,
        "3572": 114,
        "3573": 67,
        "3574": 154,
        "3575": 111,
        "3576": 92,
        "3577": 130,
        "3578": 135,
        "3579": 73,
        "3580": 83,
        "3581": 150,
        "3582": 79,
        "3583": 234,
        "3584": 124,
        "3585": 94,
        "3586": 5,
        "3587": 23,
        "3588": 94,
        "3589": 112,
        "3590": 219,
        "3591": 175,
        "3592": 6,
        "3593": 226,
        "3594": 98,
        "3595": 216,
        "3596": 124,
        "3597": 151,
        "3598": 110,
        "3599": 43,
        "3600": 203,
        "3601": 153,
        "3602": 38,
        "3603": 206,
        "3604": 227,
        "3605": 105,
        "3606": 126,
        "3607": 215,
        "3608": 76,
        "3609": 218,
        "3610": 200,
        "3611": 106,
        "3612": 234,
        "3613": 68,
        "3614": 130,
        "3615": 103,
        "3616": 231,
        "3617": 183,
        "3618": 75,
        "3619": 129,
        "3620": 86,
        "3621": 0,
        "3622": 52,
        "3623": 45,
        "3624": 127,
        "3625": 242,
        "3626": 131,
        "3627": 125,
        "3628": 167,
        "3629": 148,
        "3630": 59,
        "3631": 133,
        "3632": 52,
        "3633": 14,
        "3634": 235,
        "3635": 165,
        "3636": 113,
        "3637": 249,
        "3638": 104,
        "3639": 227,
        "3640": 43,
        "3641": 162,
        "3642": 25,
        "3643": 0,
        "3644": 18,
        "3645": 125,
        "3646": 50,
        "3647": 112,
        "3648": 213,
        "3649": 158,
        "3650": 119,
        "3651": 23,
        "3652": 47,
        "3653": 39,
        "3654": 190,
        "3655": 249,
        "3656": 81,
        "3657": 201,
        "3658": 196,
        "3659": 229,
        "3660": 92,
        "3661": 88,
        "3662": 34,
        "3663": 212,
        "3664": 10,
        "3665": 230,
        "3666": 146,
        "3667": 176,
        "3668": 148,
        "3669": 25,
        "3670": 41,
        "3671": 253,
        "3672": 201,
        "3673": 27,
        "3674": 148,
        "3675": 178,
        "3676": 247,
        "3677": 205,
        "3678": 18,
        "3679": 210,
        "3680": 7,
        "3681": 223,
        "3682": 239,
        "3683": 205,
        "3684": 28,
        "3685": 105,
        "3686": 239,
        "3687": 100,
        "3688": 213,
        "3689": 203,
        "3690": 193,
        "3691": 166,
        "3692": 203,
        "3693": 186,
        "3694": 130,
        "3695": 247,
        "3696": 148,
        "3697": 8,
        "3698": 56,
        "3699": 130,
        "3700": 95,
        "3701": 63,
        "3702": 115,
        "3703": 5,
        "3704": 185,
        "3705": 27,
        "3706": 129,
        "3707": 103,
        "3708": 176,
        "3709": 98,
        "3710": 38,
        "3711": 115,
        "3712": 65,
        "3713": 85,
        "3714": 214,
        "3715": 231,
        "3716": 61,
        "3717": 176,
        "3718": 79,
        "3719": 53,
        "3720": 120,
        "3721": 191,
        "3722": 232,
        "3723": 70,
        "3724": 31,
        "3725": 215,
        "3726": 1,
        "3727": 220,
        "3728": 179,
        "3729": 197,
        "3730": 136,
        "3731": 177,
        "3732": 232,
        "3733": 139,
        "3734": 40,
        "3735": 184,
        "3736": 227,
        "3737": 140,
        "3738": 3,
        "3739": 153,
        "3740": 42,
        "3741": 133,
        "3742": 114,
        "3743": 231,
        "3744": 143,
        "3745": 136,
        "3746": 156,
        "3747": 47,
        "3748": 145,
        "3749": 109,
        "3750": 246,
        "3751": 198,
        "3752": 41,
        "3753": 65,
        "3754": 216,
        "3755": 252,
        "3756": 192,
        "3757": 224,
        "3758": 220,
        "3759": 183,
        "3760": 58,
        "3761": 24,
        "3762": 0,
        "3763": 189,
        "3764": 193,
        "3765": 105,
        "3766": 238,
        "3767": 190,
        "3768": 87,
        "3769": 83,
        "3770": 89,
        "3771": 192,
        "3772": 233,
        "3773": 54,
        "3774": 63,
        "3775": 99,
        "3776": 120,
        "3777": 93,
        "3778": 109,
        "3779": 182,
        "3780": 158,
        "3781": 113,
        "3782": 77,
        "3783": 22,
        "3784": 195,
        "3785": 106,
        "3786": 32,
        "3787": 106,
        "3788": 31,
        "3789": 65,
        "3790": 200,
        "3791": 205,
        "3792": 142,
        "3793": 76,
        "3794": 244,
        "3795": 162,
        "3796": 233,
        "3797": 19,
        "3798": 43,
        "3799": 116,
        "3800": 125,
        "3801": 167,
        "3802": 174,
        "3803": 181,
        "3804": 134,
        "3805": 3,
        "3806": 192,
        "3807": 177,
        "3808": 249,
        "3809": 28,
        "3810": 182,
        "3811": 66,
        "3812": 23,
        "3813": 98,
        "3814": 10,
        "3815": 231,
        "3816": 220,
        "3817": 201,
        "3818": 238,
        "3819": 12,
        "3820": 199,
        "3821": 16,
        "3822": 188,
        "3823": 88,
        "3824": 6,
        "3825": 216,
        "3826": 245,
        "3827": 142,
        "3828": 10,
        "3829": 181,
        "3830": 201,
        "3831": 177,
        "3832": 18,
        "3833": 38,
        "3834": 226,
        "3835": 48,
        "3836": 41,
        "3837": 238,
        "3838": 71,
        "3839": 59,
        "3840": 154,
        "3841": 242,
        "3842": 238,
        "3843": 85,
        "3844": 29,
        "3845": 71,
        "3846": 142,
        "3847": 7,
        "3848": 23,
        "3849": 80,
        "3850": 40,
        "3851": 28,
        "3852": 233,
        "3853": 21,
        "3854": 247,
        "3855": 41,
        "3856": 31,
        "3857": 98,
        "3858": 55,
        "3859": 65,
        "3860": 121,
        "3861": 150,
        "3862": 84,
        "3863": 137,
        "3864": 142,
        "3865": 186,
        "3866": 28,
        "3867": 23,
        "3868": 115,
        "3869": 136,
        "3870": 40,
        "3871": 87,
        "3872": 181,
        "3873": 187,
        "3874": 104,
        "3875": 192,
        "3876": 69,
        "3877": 133,
        "3878": 241,
        "3879": 96,
        "3880": 109,
        "3881": 236,
        "3882": 178,
        "3883": 124,
        "3884": 173,
        "3885": 192,
        "3886": 91,
        "3887": 62,
        "3888": 216,
        "3889": 23,
        "3890": 176,
        "3891": 237,
        "3892": 73,
        "3893": 115,
        "3894": 51,
        "3895": 166,
        "3896": 35,
        "3897": 234,
        "3898": 199,
        "3899": 215,
        "3900": 25,
        "3901": 177,
        "3902": 61,
        "3903": 119,
        "3904": 83,
        "3905": 223,
        "3906": 108,
        "3907": 187,
        "3908": 120,
        "3909": 180,
        "3910": 100,
        "3911": 86,
        "3912": 3,
        "3913": 38,
        "3914": 11,
        "3915": 26,
        "3916": 62,
        "3917": 35,
        "3918": 154,
        "3919": 29,
        "3920": 109,
        "3921": 114,
        "3922": 166,
        "3923": 242,
        "3924": 169,
        "3925": 207,
        "3926": 132,
        "3927": 73,
        "3928": 128,
        "3929": 137,
        "3930": 56,
        "3931": 157,
        "3932": 72,
        "3933": 98,
        "3934": 185,
        "3935": 62,
        "3936": 160,
        "3937": 249,
        "3938": 177,
        "3939": 223,
        "3940": 3,
        "3941": 117,
        "3942": 171,
        "3943": 39,
        "3944": 104,
        "3945": 194,
        "3946": 244,
        "3947": 69,
        "3948": 66,
        "3949": 127,
        "3950": 226,
        "3951": 25,
        "3952": 83,
        "3953": 45,
        "3954": 120,
        "3955": 39,
        "3956": 142,
        "3957": 218,
        "3958": 211,
        "3959": 22,
        "3960": 176,
        "3961": 145,
        "3962": 93,
        "3963": 25,
        "3964": 225,
        "3965": 0,
        "3966": 171,
        "3967": 185,
        "3968": 35,
        "3969": 128,
        "3970": 168,
        "3971": 51,
        "3972": 140,
        "3973": 99,
        "3974": 64,
        "3975": 102,
        "3976": 183,
        "3977": 56,
        "3978": 82,
        "3979": 23,
        "3980": 117,
        "3981": 37,
        "3982": 153,
        "3983": 184,
        "3984": 153,
        "3985": 70,
        "3986": 131,
        "3987": 244,
        "3988": 152,
        "3989": 37,
        "3990": 36,
        "3991": 212,
        "3992": 79,
        "3993": 201,
        "3994": 159,
        "3995": 188,
        "3996": 95,
        "3997": 63,
        "3998": 197,
        "3999": 42,
        "4000": 254,
        "4001": 34,
        "4002": 19,
        "4003": 111,
        "4004": 201,
        "4005": 133,
        "4006": 145,
        "4007": 112,
        "4008": 7,
        "4009": 249,
        "4010": 156,
        "4011": 52,
        "4012": 250,
        "4013": 48,
        "4014": 10,
        "4015": 98,
        "4016": 64,
        "4017": 25,
        "4018": 253,
        "4019": 91,
        "4020": 198,
        "4021": 195,
        "4022": 104,
        "4023": 101,
        "4024": 57,
        "4025": 246,
        "4026": 236,
        "4027": 110,
        "4028": 212,
        "4029": 6,
        "4030": 165,
        "4031": 114,
        "4032": 50,
        "4033": 215,
        "4034": 39,
        "4035": 110,
        "4036": 247,
        "4037": 178,
        "4038": 55,
        "4039": 231,
        "4040": 49,
        "4041": 43,
        "4042": 245,
        "4043": 123,
        "4044": 173,
        "4045": 238,
        "4046": 193,
        "4047": 92,
        "4048": 76,
        "4049": 107,
        "4050": 21,
        "4051": 237,
        "4052": 105,
        "4053": 62,
        "4054": 107,
        "4055": 214,
        "4056": 185,
        "4057": 193,
        "4058": 111,
        "4059": 39,
        "4060": 139,
        "4061": 28,
        "4062": 98,
        "4063": 252,
        "4064": 222,
        "4065": 230,
        "4066": 180,
        "4067": 155,
        "4068": 121,
        "4069": 87,
        "4070": 11,
        "4071": 132,
        "4072": 200,
        "4073": 93,
        "4074": 48,
        "4075": 170,
        "4076": 79,
        "4077": 9,
        "4078": 28,
        "4079": 116,
        "4080": 57,
        "4081": 137,
        "4082": 92,
        "4083": 74,
        "4084": 25,
        "4085": 52,
        "4086": 219,
        "4087": 3,
        "4088": 181,
        "4089": 71,
        "4090": 241,
        "4091": 104,
        "4092": 76,
        "4093": 178,
        "4094": 56,
        "4095": 226,
        "4096": 235,
        "4097": 130,
        "4098": 228,
        "4099": 43,
        "4100": 97,
        "4101": 217,
        "4102": 91,
        "4103": 198,
        "4104": 46,
        "4105": 236,
        "4106": 1,
        "4107": 71,
        "4108": 164,
        "4109": 171,
        "4110": 191,
        "4111": 195,
        "4112": 254,
        "4113": 232,
        "4114": 193,
        "4115": 28,
        "4116": 30,
        "4117": 198,
        "4118": 227,
        "4119": 109,
        "4120": 108,
        "4121": 17,
        "4122": 121,
        "4123": 85,
        "4124": 7,
        "4125": 127,
        "4126": 54,
        "4127": 43,
        "4128": 205,
        "4129": 230,
        "4130": 26,
        "4131": 56,
        "4132": 93,
        "4133": 80,
        "4134": 101,
        "4135": 253,
        "4136": 38,
        "4137": 164,
        "4138": 46,
        "4139": 30,
        "4140": 249,
        "4141": 91,
        "4142": 187,
        "4143": 45,
        "4144": 190,
        "4145": 229,
        "4146": 205,
        "4147": 54,
        "4148": 133,
        "4149": 140,
        "4150": 31,
        "4151": 56,
        "4152": 32,
        "4153": 98,
        "4154": 211,
        "4155": 146,
        "4156": 63,
        "4157": 219,
        "4158": 65,
        "4159": 218,
        "4160": 20,
        "4161": 226,
        "4162": 51,
        "4163": 39,
        "4164": 207,
        "4165": 94,
        "4166": 208,
        "4167": 232,
        "4168": 240,
        "4169": 61,
        "4170": 50,
        "4171": 150,
        "4172": 172,
        "4173": 189,
        "4174": 30,
        "4175": 212,
        "4176": 135,
        "4177": 76,
        "4178": 77,
        "4179": 227,
        "4180": 59,
        "4181": 136,
        "4182": 165,
        "4183": 235,
        "4184": 138,
        "4185": 0,
        "4186": 20,
        "4187": 15,
        "4188": 147,
        "4189": 225,
        "4190": 69,
        "4191": 146,
        "4192": 37,
        "4193": 149,
        "4194": 94,
        "4195": 117,
        "4196": 217,
        "4197": 26,
        "4198": 164,
        "4199": 46,
        "4200": 95,
        "4201": 194,
        "4202": 86,
        "4203": 166,
        "4204": 51,
        "4205": 96,
        "4206": 214,
        "4207": 188,
        "4208": 206,
        "4209": 242,
        "4210": 113,
        "4211": 42,
        "4212": 54,
        "4213": 42,
        "4214": 246,
        "4215": 228,
        "4216": 115,
        "4217": 71,
        "4218": 162,
        "4219": 185,
        "4220": 219,
        "4221": 83,
        "4222": 201,
        "4223": 186,
        "4224": 239,
        "4225": 255,
        "4226": 48,
        "4227": 106,
        "4228": 15,
        "4229": 62,
        "4230": 172,
        "4231": 1,
        "4232": 164,
        "4233": 144,
        "4234": 139,
        "4235": 251,
        "4236": 175,
        "4237": 123,
        "4238": 195,
        "4239": 223,
        "4240": 97,
        "4241": 187,
        "4242": 23,
        "4243": 236,
        "4244": 83,
        "4245": 115,
        "4246": 191,
        "4247": 213,
        "4248": 206,
        "4249": 231,
        "4250": 149,
        "4251": 215,
        "4252": 37,
        "4253": 69,
        "4254": 143,
        "4255": 95,
        "4256": 238,
        "4257": 5,
        "4258": 88,
        "4259": 47,
        "4260": 32,
        "4261": 112,
        "4262": 141,
        "4263": 39,
        "4264": 51,
        "4265": 143,
        "4266": 240,
        "4267": 252,
        "4268": 111,
        "4269": 217,
        "4270": 97,
        "4271": 52,
        "4272": 199,
        "4273": 127,
        "4274": 162,
        "4275": 204,
        "4276": 132,
        "4277": 185,
        "4278": 214,
        "4279": 67,
        "4280": 37,
        "4281": 38,
        "4282": 109,
        "4283": 239,
        "4284": 81,
        "4285": 212,
        "4286": 53,
        "4287": 124,
        "4288": 150,
        "4289": 87,
        "4290": 51,
        "4291": 75,
        "4292": 236,
        "4293": 254,
        "4294": 226,
        "4295": 1,
        "4296": 232,
        "4297": 87,
        "4298": 217,
        "4299": 28,
        "4300": 117,
        "4301": 27,
        "4302": 87,
        "4303": 230,
        "4304": 179,
        "4305": 100,
        "4306": 82,
        "4307": 35,
        "4308": 122,
        "4309": 33,
        "4310": 147,
        "4311": 14,
        "4312": 138,
        "4313": 64,
        "4314": 69,
        "4315": 90,
        "4316": 203,
        "4317": 211,
        "4318": 147,
        "4319": 155,
        "4320": 107,
        "4321": 4,
        "4322": 65,
        "4323": 39,
        "4324": 188,
        "4325": 23,
        "4326": 161,
        "4327": 55,
        "4328": 74,
        "4329": 15,
        "4330": 130,
        "4331": 157,
        "4332": 189,
        "4333": 193,
        "4334": 121,
        "4335": 158,
        "4336": 112,
        "4337": 225,
        "4338": 239,
        "4339": 217,
        "4340": 243,
        "4341": 52,
        "4342": 88,
        "4343": 52,
        "4344": 30,
        "4345": 74,
        "4346": 182,
        "4347": 17,
        "4348": 47,
        "4349": 107,
        "4350": 205,
        "4351": 120,
        "4352": 236,
        "4353": 118,
        "4354": 127,
        "4355": 109,
        "4356": 234,
        "4357": 214,
        "4358": 222,
        "4359": 51,
        "4360": 127,
        "4361": 52,
        "4362": 246,
        "4363": 24,
        "4364": 183,
        "4365": 215,
        "4366": 64,
        "4367": 9,
        "4368": 110,
        "4369": 226,
        "4370": 201,
        "4371": 98,
        "4372": 168,
        "4373": 21,
        "4374": 17,
        "4375": 107,
        "4376": 33,
        "4377": 73,
        "4378": 215,
        "4379": 251,
        "4380": 186,
        "4381": 142,
        "4382": 152,
        "4383": 74,
        "4384": 181,
        "4385": 172,
        "4386": 146,
        "4387": 153,
        "4388": 60,
        "4389": 93,
        "4390": 149,
        "4391": 222,
        "4392": 167,
        "4393": 80,
        "4394": 207,
        "4395": 112,
        "4396": 170,
        "4397": 93,
        "4398": 112,
        "4399": 217,
        "4400": 140,
        "4401": 122,
        "4402": 226,
        "4403": 14,
        "4404": 52,
        "4405": 25,
        "4406": 232,
        "4407": 79,
        "4408": 84,
        "4409": 112,
        "4410": 23,
        "4411": 27,
        "4412": 164,
        "4413": 156,
        "4414": 45,
        "4415": 239,
        "4416": 60,
        "4417": 72,
        "4418": 33,
        "4419": 102,
        "4420": 110,
        "4421": 191,
        "4422": 100,
        "4423": 126,
        "4424": 155,
        "4425": 96,
        "4426": 3,
        "4427": 77,
        "4428": 235,
        "4429": 95,
        "4430": 160,
        "4431": 242,
        "4432": 51,
        "4433": 138,
        "4434": 101,
        "4435": 42,
        "4436": 233,
        "4437": 162,
        "4438": 163,
        "4439": 58,
        "4440": 120,
        "4441": 33,
        "4442": 22,
        "4443": 223,
        "4444": 174,
        "4445": 192,
        "4446": 199,
        "4447": 89,
        "4448": 159,
        "4449": 5,
        "4450": 77,
        "4451": 23,
        "4452": 17,
        "4453": 148,
        "4454": 19,
        "4455": 129,
        "4456": 104,
        "4457": 164,
        "4458": 204,
        "4459": 211,
        "4460": 37,
        "4461": 115,
        "4462": 32,
        "4463": 171,
        "4464": 251,
        "4465": 146,
        "4466": 20,
        "4467": 88,
        "4468": 78,
        "4469": 118,
        "4470": 151,
        "4471": 183,
        "4472": 136,
        "4473": 72,
        "4474": 17,
        "4475": 68,
        "4476": 165,
        "4477": 33,
        "4478": 153,
        "4479": 32,
        "4480": 170,
        "4481": 67,
        "4482": 69,
        "4483": 212,
        "4484": 167,
        "4485": 199,
        "4486": 221,
        "4487": 23,
        "4488": 178,
        "4489": 89,
        "4490": 136,
        "4491": 170,
        "4492": 176,
        "4493": 3,
        "4494": 136,
        "4495": 49,
        "4496": 39,
        "4497": 22,
        "4498": 252,
        "4499": 187,
        "4500": 78,
        "4501": 76,
        "4502": 76,
        "4503": 61,
        "4504": 176,
        "4505": 154,
        "4506": 26,
        "4507": 154,
        "4508": 206,
        "4509": 32,
        "4510": 222,
        "4511": 214,
        "4512": 93,
        "4513": 199,
        "4514": 137,
        "4515": 126,
        "4516": 84,
        "4517": 108,
        "4518": 171,
        "4519": 180,
        "4520": 62,
        "4521": 222,
        "4522": 42,
        "4523": 254,
        "4524": 145,
        "4525": 117,
        "4526": 189,
        "4527": 101,
        "4528": 206,
        "4529": 27,
        "4530": 117,
        "4531": 164,
        "4532": 103,
        "4533": 231,
        "4534": 136,
        "4535": 80,
        "4536": 38,
        "4537": 82,
        "4538": 215,
        "4539": 222,
        "4540": 168,
        "4541": 253,
        "4542": 49,
        "4543": 227,
        "4544": 191,
        "4545": 131,
        "4546": 69,
        "4547": 178,
        "4548": 3,
        "4549": 21,
        "4550": 54,
        "4551": 99,
        "4552": 216,
        "4553": 16,
        "4554": 138,
        "4555": 32,
        "4556": 99,
        "4557": 220,
        "4558": 118,
        "4559": 239,
        "4560": 236,
        "4561": 61,
        "4562": 243,
        "4563": 141,
        "4564": 92,
        "4565": 143,
        "4566": 19,
        "4567": 77,
        "4568": 173,
        "4569": 192,
        "4570": 225,
        "4571": 69,
        "4572": 79,
        "4573": 173,
        "4574": 113,
        "4575": 80,
        "4576": 0,
        "4577": 85,
        "4578": 169,
        "4579": 91,
        "4580": 45,
        "4581": 87,
        "4582": 220,
        "4583": 120,
        "4584": 168,
        "4585": 174,
        "4586": 212,
        "4587": 123,
        "4588": 228,
        "4589": 94,
        "4590": 74,
        "4591": 231,
        "4592": 218,
        "4593": 251,
        "4594": 128,
        "4595": 112,
        "4596": 42,
        "4597": 145,
        "4598": 174,
        "4599": 233,
        "4600": 167,
        "4601": 81,
        "4602": 226,
        "4603": 92,
        "4604": 81,
        "4605": 254,
        "4606": 8,
        "4607": 98,
        "4608": 95,
        "4609": 79,
        "4610": 79,
        "4611": 82,
        "4612": 99,
        "4613": 213,
        "4614": 169,
        "4615": 69,
        "4616": 77,
        "4617": 66,
        "4618": 124,
        "4619": 9,
        "4620": 152,
        "4621": 176,
        "4622": 63,
        "4623": 170,
        "4624": 85,
        "4625": 67,
        "4626": 94,
        "4627": 106,
        "4628": 46,
        "4629": 75,
        "4630": 135,
        "4631": 73,
        "4632": 23,
        "4633": 81,
        "4634": 190,
        "4635": 42,
        "4636": 43,
        "4637": 171,
        "4638": 124,
        "4639": 14,
        "4640": 77,
        "4641": 93,
        "4642": 157,
        "4643": 155,
        "4644": 28,
        "4645": 225,
        "4646": 138,
        "4647": 153,
        "4648": 30,
        "4649": 42,
        "4650": 123,
        "4651": 225,
        "4652": 2,
        "4653": 228,
        "4654": 69,
        "4655": 135,
        "4656": 208,
        "4657": 223,
        "4658": 223,
        "4659": 30,
        "4660": 214,
        "4661": 168,
        "4662": 65,
        "4663": 89,
        "4664": 233,
        "4665": 29,
        "4666": 58,
        "4667": 218,
        "4668": 177,
        "4669": 80,
        "4670": 5,
        "4671": 217,
        "4672": 88,
        "4673": 54,
        "4674": 235,
        "4675": 165,
        "4676": 173,
        "4677": 232,
        "4678": 216,
        "4679": 12,
        "4680": 137,
        "4681": 77,
        "4682": 81,
        "4683": 20,
        "4684": 94,
        "4685": 158,
        "4686": 66,
        "4687": 179,
        "4688": 15,
        "4689": 251,
        "4690": 151,
        "4691": 201,
        "4692": 10,
        "4693": 199,
        "4694": 139,
        "4695": 155,
        "4696": 121,
        "4697": 214,
        "4698": 157,
        "4699": 234,
        "4700": 2,
        "4701": 179,
        "4702": 196,
        "4703": 58,
        "4704": 140,
        "4705": 146,
        "4706": 163,
        "4707": 184,
        "4708": 137,
        "4709": 191,
        "4710": 66,
        "4711": 105,
        "4712": 192,
        "4713": 224,
        "4714": 247,
        "4715": 100,
        "4716": 169,
        "4717": 72,
        "4718": 255,
        "4719": 251,
        "4720": 5,
        "4721": 31,
        "4722": 83,
        "4723": 202,
        "4724": 195,
        "4725": 250,
        "4726": 8,
        "4727": 255,
        "4728": 223,
        "4729": 126,
        "4730": 77,
        "4731": 229,
        "4732": 220,
        "4733": 115,
        "4734": 1,
        "4735": 253,
        "4736": 2,
        "4737": 153,
        "4738": 214,
        "4739": 115,
        "4740": 122,
        "4741": 16,
        "4742": 194,
        "4743": 147,
        "4744": 93,
        "4745": 134,
        "4746": 151,
        "4747": 156,
        "4748": 75,
        "4749": 94,
        "4750": 200,
        "4751": 196,
        "4752": 129,
        "4753": 168,
        "4754": 53,
        "4755": 182,
        "4756": 54,
        "4757": 165,
        "4758": 250,
        "4759": 153,
        "4760": 95,
        "4761": 45,
        "4762": 8,
        "4763": 208,
        "4764": 58,
        "4765": 200,
        "4766": 210,
        "4767": 75,
        "4768": 24,
        "4769": 51,
        "4770": 224,
        "4771": 52,
        "4772": 27,
        "4773": 251,
        "4774": 102,
        "4775": 43,
        "4776": 135,
        "4777": 218,
        "4778": 158,
        "4779": 92,
        "4780": 23,
        "4781": 141,
        "4782": 13,
        "4783": 151,
        "4784": 53,
        "4785": 201,
        "4786": 139,
        "4787": 87,
        "4788": 20,
        "4789": 139,
        "4790": 33,
        "4791": 228,
        "4792": 4,
        "4793": 153,
        "4794": 23,
        "4795": 38,
        "4796": 153,
        "4797": 169,
        "4798": 235,
        "4799": 38,
        "4800": 19,
        "4801": 118,
        "4802": 127,
        "4803": 248,
        "4804": 46,
        "4805": 58,
        "4806": 247,
        "4807": 48,
        "4808": 24,
        "4809": 52,
        "4810": 86,
        "4811": 86,
        "4812": 196,
        "4813": 84,
        "4814": 88,
        "4815": 196,
        "4816": 220,
        "4817": 64,
        "4818": 38,
        "4819": 168,
        "4820": 87,
        "4821": 35,
        "4822": 224,
        "4823": 156,
        "4824": 11,
        "4825": 131,
        "4826": 24,
        "4827": 232,
        "4828": 195,
        "4829": 203,
        "4830": 19,
        "4831": 34,
        "4832": 104,
        "4833": 156,
        "4834": 171,
        "4835": 158,
        "4836": 40,
        "4837": 92,
        "4838": 98,
        "4839": 173,
        "4840": 99,
        "4841": 66,
        "4842": 85,
        "4843": 191,
        "4844": 93,
        "4845": 7,
        "4846": 135,
        "4847": 118,
        "4848": 143,
        "4849": 248,
        "4850": 220,
        "4851": 47,
        "4852": 11,
        "4853": 145,
        "4854": 128,
        "4855": 135,
        "4856": 63,
        "4857": 170,
        "4858": 191,
        "4859": 96,
        "4860": 123,
        "4861": 167,
        "4862": 67,
        "4863": 243,
        "4864": 217,
        "4865": 222,
        "4866": 199,
        "4867": 49,
        "4868": 237,
        "4869": 19,
        "4870": 78,
        "4871": 23,
        "4872": 170,
        "4873": 161,
        "4874": 217,
        "4875": 25,
        "4876": 104,
        "4877": 130,
        "4878": 153,
        "4879": 112,
        "4880": 59,
        "4881": 181,
        "4882": 31,
        "4883": 51,
        "4884": 86,
        "4885": 115,
        "4886": 150,
        "4887": 225,
        "4888": 179,
        "4889": 141,
        "4890": 220,
        "4891": 160,
        "4892": 219,
        "4893": 237,
        "4894": 134,
        "4895": 42,
        "4896": 27,
        "4897": 104,
        "4898": 251,
        "4899": 3,
        "4900": 174,
        "4901": 10,
        "4902": 184,
        "4903": 20,
        "4904": 17,
        "4905": 31,
        "4906": 228,
        "4907": 9,
        "4908": 236,
        "4909": 48,
        "4910": 98,
        "4911": 202,
        "4912": 196,
        "4913": 134,
        "4914": 121,
        "4915": 118,
        "4916": 132,
        "4917": 6,
        "4918": 16,
        "4919": 68,
        "4920": 46,
        "4921": 150,
        "4922": 227,
        "4923": 180,
        "4924": 84,
        "4925": 144,
        "4926": 150,
        "4927": 125,
        "4928": 193,
        "4929": 54,
        "4930": 131,
        "4931": 155,
        "4932": 210,
        "4933": 232,
        "4934": 3,
        "4935": 216,
        "4936": 19,
        "4937": 207,
        "4938": 46,
        "4939": 99,
        "4940": 6,
        "4941": 59,
        "4942": 100,
        "4943": 140,
        "4944": 151,
        "4945": 61,
        "4946": 162,
        "4947": 29,
        "4948": 33,
        "4949": 155,
        "4950": 235,
        "4951": 204,
        "4952": 167,
        "4953": 83,
        "4954": 96,
        "4955": 14,
        "4956": 114,
        "4957": 213,
        "4958": 126,
        "4959": 43,
        "4960": 210,
        "4961": 2,
        "4962": 193,
        "4963": 235,
        "4964": 146,
        "4965": 187,
        "4966": 168,
        "4967": 29,
        "4968": 129,
        "4969": 213,
        "4970": 249,
        "4971": 61,
        "4972": 21,
        "4973": 149,
        "4974": 63,
        "4975": 18,
        "4976": 238,
        "4977": 117,
        "4978": 201,
        "4979": 117,
        "4980": 140,
        "4981": 1,
        "4982": 234,
        "4983": 124,
        "4984": 130,
        "4985": 116,
        "4986": 144,
        "4987": 205,
        "4988": 143,
        "4989": 233,
        "4990": 63,
        "4991": 99,
        "4992": 255,
        "4993": 64,
        "4994": 252,
        "4995": 120,
        "4996": 250,
        "4997": 241,
        "4998": 156,
        "4999": 83,
        "5000": 34,
        "5001": 124,
        "5002": 173,
        "5003": 247,
        "5004": 41,
        "5005": 102,
        "5006": 227,
        "5007": 209,
        "5008": 117,
        "5009": 173,
        "5010": 205,
        "5011": 242,
        "5012": 231,
        "5013": 47,
        "5014": 96,
        "5015": 48,
        "5016": 98,
        "5017": 38,
        "5018": 254,
        "5019": 190,
        "5020": 61,
        "5021": 96,
        "5022": 220,
        "5023": 12,
        "5024": 231,
        "5025": 217,
        "5026": 109,
        "5027": 151,
        "5028": 1,
        "5029": 165,
        "5030": 157,
        "5031": 155,
        "5032": 21,
        "5033": 65,
        "5034": 32,
        "5035": 117,
        "5036": 201,
        "5037": 86,
        "5038": 65,
        "5039": 101,
        "5040": 95,
        "5041": 8,
        "5042": 159,
        "5043": 84,
        "5044": 217,
        "5045": 65,
        "5046": 112,
        "5047": 36,
        "5048": 43,
        "5049": 220,
        "5050": 246,
        "5051": 174,
        "5052": 230,
        "5053": 209,
        "5054": 52,
        "5055": 26,
        "5056": 182,
        "5057": 73,
        "5058": 38,
        "5059": 66,
        "5060": 61,
        "5061": 83,
        "5062": 215,
        "5063": 251,
        "5064": 251,
        "5065": 81,
        "5066": 31,
        "5067": 179,
        "5068": 150,
        "5069": 148,
        "5070": 36,
        "5071": 57,
        "5072": 183,
        "5073": 97,
        "5074": 2,
        "5075": 40,
        "5076": 27,
        "5077": 124,
        "5078": 211,
        "5079": 178,
        "5080": 12,
        "5081": 75,
        "5082": 133,
        "5083": 254,
        "5084": 49,
        "5085": 155,
        "5086": 88,
        "5087": 0,
        "5088": 103,
        "5089": 35,
        "5090": 186,
        "5091": 76,
        "5092": 129,
        "5093": 52,
        "5094": 125,
        "5095": 190,
        "5096": 23,
        "5097": 93,
        "5098": 132,
        "5099": 205,
        "5100": 158,
        "5101": 202,
        "5102": 34,
        "5103": 142,
        "5104": 49,
        "5105": 84,
        "5106": 151,
        "5107": 33,
        "5108": 230,
        "5109": 88,
        "5110": 25,
        "5111": 43,
        "5112": 76,
        "5113": 82,
        "5114": 244,
        "5115": 102,
        "5116": 59,
        "5117": 78,
        "5118": 29,
        "5119": 171,
        "5120": 153,
        "5121": 42,
        "5122": 110,
        "5123": 122,
        "5124": 241,
        "5125": 16,
        "5126": 14,
        "5127": 84,
        "5128": 26,
        "5129": 18,
        "5130": 56,
        "5131": 175,
        "5132": 248,
        "5133": 142,
        "5134": 84,
        "5135": 222,
        "5136": 69,
        "5137": 31,
        "5138": 205,
        "5139": 216,
        "5140": 103,
        "5141": 62,
        "5142": 198,
        "5143": 34,
        "5144": 196,
        "5145": 182,
        "5146": 150,
        "5147": 134,
        "5148": 50,
        "5149": 94,
        "5150": 169,
        "5151": 222,
        "5152": 175,
        "5153": 67,
        "5154": 22,
        "5155": 238,
        "5156": 139,
        "5157": 14,
        "5158": 125,
        "5159": 79,
        "5160": 117,
        "5161": 249,
        "5162": 221,
        "5163": 30,
        "5164": 40,
        "5165": 255,
        "5166": 125,
        "5167": 107,
        "5168": 147,
        "5169": 98,
        "5170": 61,
        "5171": 237,
        "5172": 99,
        "5173": 89,
        "5174": 88,
        "5175": 61,
        "5176": 142,
        "5177": 21,
        "5178": 221,
        "5179": 19,
        "5180": 180,
        "5181": 43,
        "5182": 84,
        "5183": 208,
        "5184": 72,
        "5185": 162,
        "5186": 145,
        "5187": 114,
        "5188": 181,
        "5189": 78,
        "5190": 3,
        "5191": 147,
        "5192": 35,
        "5193": 60,
        "5194": 6,
        "5195": 149,
        "5196": 146,
        "5197": 53,
        "5198": 235,
        "5199": 227,
        "5200": 193,
        "5201": 64,
        "5202": 158,
        "5203": 57,
        "5204": 130,
        "5205": 161,
        "5206": 231,
        "5207": 21,
        "5208": 83,
        "5209": 99,
        "5210": 74,
        "5211": 171,
        "5212": 101,
        "5213": 109,
        "5214": 13,
        "5215": 196,
        "5216": 203,
        "5217": 122,
        "5218": 199,
        "5219": 222,
        "5220": 13,
        "5221": 183,
        "5222": 70,
        "5223": 179,
        "5224": 98,
        "5225": 139,
        "5226": 70,
        "5227": 69,
        "5228": 122,
        "5229": 210,
        "5230": 115,
        "5231": 177,
        "5232": 62,
        "5233": 161,
        "5234": 241,
        "5235": 77,
        "5236": 248,
        "5237": 15,
        "5238": 140,
        "5239": 227,
        "5240": 43,
        "5241": 48,
        "5242": 247,
        "5243": 73,
        "5244": 43,
        "5245": 172,
        "5246": 160,
        "5247": 145,
        "5248": 31,
        "5249": 155,
        "5250": 123,
        "5251": 121,
        "5252": 80,
        "5253": 191,
        "5254": 220,
        "5255": 171,
        "5256": 124,
        "5257": 102,
        "5258": 142,
        "5259": 147,
        "5260": 5,
        "5261": 114,
        "5262": 194,
        "5263": 191,
        "5264": 173,
        "5265": 127,
        "5266": 181,
        "5267": 111,
        "5268": 107,
        "5269": 80,
        "5270": 93,
        "5271": 248,
        "5272": 205,
        "5273": 15,
        "5274": 198,
        "5275": 252,
        "5276": 50,
        "5277": 115,
        "5278": 254,
        "5279": 208,
        "5280": 49,
        "5281": 140,
        "5282": 192,
        "5283": 36,
        "5284": 235,
        "5285": 171,
        "5286": 85,
        "5287": 130,
        "5288": 166,
        "5289": 176,
        "5290": 140,
        "5291": 199,
        "5292": 119,
        "5293": 79,
        "5294": 40,
        "5295": 246,
        "5296": 254,
        "5297": 254,
        "5298": 227,
        "5299": 235,
        "5300": 228,
        "5301": 65,
        "5302": 0,
        "5303": 17,
        "5304": 209,
        "5305": 113,
        "5306": 58,
        "5307": 191,
        "5308": 56,
        "5309": 246,
        "5310": 3,
        "5311": 97,
        "5312": 101,
        "5313": 58,
        "5314": 174,
        "5315": 27,
        "5316": 197,
        "5317": 53,
        "5318": 37,
        "5319": 151,
        "5320": 190,
        "5321": 182,
        "5322": 71,
        "5323": 69,
        "5324": 206,
        "5325": 209,
        "5326": 240,
        "5327": 223,
        "5328": 161,
        "5329": 163,
        "5330": 77,
        "5331": 42,
        "5332": 236,
        "5333": 25,
        "5334": 132,
        "5335": 203,
        "5336": 41,
        "5337": 154,
        "5338": 214,
        "5339": 2,
        "5340": 74,
        "5341": 189,
        "5342": 195,
        "5343": 202,
        "5344": 36,
        "5345": 193,
        "5346": 222,
        "5347": 99,
        "5348": 133,
        "5349": 51,
        "5350": 215,
        "5351": 55,
        "5352": 71,
        "5353": 145,
        "5354": 204,
        "5355": 70,
        "5356": 155,
        "5357": 191,
        "5358": 206,
        "5359": 99,
        "5360": 206,
        "5361": 130,
        "5362": 150,
        "5363": 72,
        "5364": 152,
        "5365": 162,
        "5366": 105,
        "5367": 153,
        "5368": 229,
        "5369": 62,
        "5370": 203,
        "5371": 20,
        "5372": 139,
        "5373": 75,
        "5374": 171,
        "5375": 198,
        "5376": 117,
        "5377": 93,
        "5378": 7,
        "5379": 124,
        "5380": 186,
        "5381": 69,
        "5382": 220,
        "5383": 83,
        "5384": 24,
        "5385": 63,
        "5386": 5,
        "5387": 211,
        "5388": 71,
        "5389": 213,
        "5390": 201,
        "5391": 179,
        "5392": 134,
        "5393": 29,
        "5394": 99,
        "5395": 210,
        "5396": 65,
        "5397": 168,
        "5398": 48,
        "5399": 241,
        "5400": 185,
        "5401": 39,
        "5402": 19,
        "5403": 205,
        "5404": 112,
        "5405": 81,
        "5406": 218,
        "5407": 64,
        "5408": 43,
        "5409": 122,
        "5410": 199,
        "5411": 65,
        "5412": 11,
        "5413": 246,
        "5414": 120,
        "5415": 158,
        "5416": 191,
        "5417": 23,
        "5418": 66,
        "5419": 36,
        "5420": 101,
        "5421": 44,
        "5422": 73,
        "5423": 23,
        "5424": 160,
        "5425": 249,
        "5426": 85,
        "5427": 156,
        "5428": 213,
        "5429": 73,
        "5430": 26,
        "5431": 0,
        "5432": 254,
        "5433": 99,
        "5434": 24,
        "5435": 38,
        "5436": 97,
        "5437": 153,
        "5438": 255,
        "5439": 166,
        "5440": 188,
        "5441": 19,
        "5442": 178,
        "5443": 52,
        "5444": 67,
        "5445": 135,
        "5446": 30,
        "5447": 245,
        "5448": 34,
        "5449": 72,
        "5450": 162,
        "5451": 93,
        "5452": 146,
        "5453": 145,
        "5454": 15,
        "5455": 163,
        "5456": 233,
        "5457": 70,
        "5458": 14,
        "5459": 246,
        "5460": 182,
        "5461": 18,
        "5462": 204,
        "5463": 92,
        "5464": 58,
        "5465": 231,
        "5466": 135,
        "5467": 255,
        "5468": 245,
        "5469": 249,
        "5470": 30,
        "5471": 222,
        "5472": 33,
        "5473": 225,
        "5474": 25,
        "5475": 70,
        "5476": 228,
        "5477": 187,
        "5478": 19,
        "5479": 235,
        "5480": 90,
        "5481": 213,
        "5482": 22,
        "5483": 187,
        "5484": 35,
        "5485": 120,
        "5486": 34,
        "5487": 219,
        "5488": 106,
        "5489": 108,
        "5490": 47,
        "5491": 239,
        "5492": 114,
        "5493": 193,
        "5494": 62,
        "5495": 84,
        "5496": 108,
        "5497": 25,
        "5498": 49,
        "5499": 238,
        "5500": 155,
        "5501": 140,
        "5502": 105,
        "5503": 46,
        "5504": 250,
        "5505": 236,
        "5506": 167,
        "5507": 140,
        "5508": 16,
        "5509": 244,
        "5510": 174,
        "5511": 237,
        "5512": 19,
        "5513": 84,
        "5514": 169,
        "5515": 25,
        "5516": 219,
        "5517": 132,
        "5518": 3,
        "5519": 200,
        "5520": 63,
        "5521": 59,
        "5522": 34,
        "5523": 58,
        "5524": 144,
        "5525": 239,
        "5526": 16,
        "5527": 117,
        "5528": 243,
        "5529": 118,
        "5530": 99,
        "5531": 153,
        "5532": 29,
        "5533": 125,
        "5534": 211,
        "5535": 247,
        "5536": 204,
        "5537": 220,
        "5538": 215,
        "5539": 114,
        "5540": 125,
        "5541": 252,
        "5542": 221,
        "5543": 86,
        "5544": 98,
        "5545": 121,
        "5546": 185,
        "5547": 206,
        "5548": 17,
        "5549": 44,
        "5550": 146,
        "5551": 194,
        "5552": 231,
        "5553": 21,
        "5554": 39,
        "5555": 160,
        "5556": 241,
        "5557": 229,
        "5558": 36,
        "5559": 109,
        "5560": 93,
        "5561": 102,
        "5562": 191,
        "5563": 190,
        "5564": 251,
        "5565": 155,
        "5566": 173,
        "5567": 23,
        "5568": 72,
        "5569": 164,
        "5570": 17,
        "5571": 228,
        "5572": 237,
        "5573": 95,
        "5574": 51,
        "5575": 244,
        "5576": 67,
        "5577": 113,
        "5578": 4,
        "5579": 62,
        "5580": 68,
        "5581": 44,
        "5582": 19,
        "5583": 83,
        "5584": 178,
        "5585": 72,
        "5586": 47,
        "5587": 88,
        "5588": 25,
        "5589": 40,
        "5590": 175,
        "5591": 113,
        "5592": 225,
        "5593": 196,
        "5594": 202,
        "5595": 153,
        "5596": 35,
        "5597": 96,
        "5598": 178,
        "5599": 164,
        "5600": 104,
        "5601": 241,
        "5602": 51,
        "5603": 235,
        "5604": 172,
        "5605": 244,
        "5606": 146,
        "5607": 64,
        "5608": 13,
        "5609": 37,
        "5610": 151,
        "5611": 15,
        "5612": 72,
        "5613": 151,
        "5614": 119,
        "5615": 30,
        "5616": 109,
        "5617": 217,
        "5618": 15,
        "5619": 82,
        "5620": 182,
        "5621": 69,
        "5622": 236,
        "5623": 14,
        "5624": 92,
        "5625": 6,
        "5626": 68,
        "5627": 45,
        "5628": 88,
        "5629": 204,
        "5630": 132,
        "5631": 60,
        "5632": 40,
        "5633": 27,
        "5634": 4,
        "5635": 86,
        "5636": 34,
        "5637": 2,
        "5638": 127,
        "5639": 198,
        "5640": 6,
        "5641": 174,
        "5642": 129,
        "5643": 153,
        "5644": 179,
        "5645": 212,
        "5646": 104,
        "5647": 149,
        "5648": 184,
        "5649": 59,
        "5650": 159,
        "5651": 27,
        "5652": 255,
        "5653": 175,
        "5654": 84,
        "5655": 53,
        "5656": 174,
        "5657": 56,
        "5658": 124,
        "5659": 245,
        "5660": 65,
        "5661": 93,
        "5662": 10,
        "5663": 224,
        "5664": 18,
        "5665": 92,
        "5666": 226,
        "5667": 42,
        "5668": 219,
        "5669": 253,
        "5670": 159,
        "5671": 236,
        "5672": 51,
        "5673": 19,
        "5674": 149,
        "5675": 80,
        "5676": 226,
        "5677": 221,
        "5678": 174,
        "5679": 119,
        "5680": 200,
        "5681": 127,
        "5682": 248,
        "5683": 125,
        "5684": 80,
        "5685": 12,
        "5686": 185,
        "5687": 95,
        "5688": 170,
        "5689": 37,
        "5690": 165,
        "5691": 65,
        "5692": 136,
        "5693": 155,
        "5694": 21,
        "5695": 227,
        "5696": 111,
        "5697": 213,
        "5698": 230,
        "5699": 112,
        "5700": 10,
        "5701": 127,
        "5702": 15,
        "5703": 220,
        "5704": 133,
        "5705": 158,
        "5706": 129,
        "5707": 217,
        "5708": 81,
        "5709": 53,
        "5710": 135,
        "5711": 231,
        "5712": 117,
        "5713": 124,
        "5714": 86,
        "5715": 194,
        "5716": 219,
        "5717": 181,
        "5718": 46,
        "5719": 99,
        "5720": 23,
        "5721": 105,
        "5722": 140,
        "5723": 162,
        "5724": 214,
        "5725": 155,
        "5726": 18,
        "5727": 12,
        "5728": 230,
        "5729": 87,
        "5730": 47,
        "5731": 98,
        "5732": 75,
        "5733": 215,
        "5734": 130,
        "5735": 55,
        "5736": 189,
        "5737": 89,
        "5738": 135,
        "5739": 59,
        "5740": 26,
        "5741": 120,
        "5742": 172,
        "5743": 30,
        "5744": 119,
        "5745": 154,
        "5746": 78,
        "5747": 232,
        "5748": 33,
        "5749": 52,
        "5750": 84,
        "5751": 49,
        "5752": 73,
        "5753": 99,
        "5754": 200,
        "5755": 43,
        "5756": 167,
        "5757": 217,
        "5758": 15,
        "5759": 214,
        "5760": 237,
        "5761": 201,
        "5762": 227,
        "5763": 221,
        "5764": 19,
        "5765": 80,
        "5766": 249,
        "5767": 81,
        "5768": 184,
        "5769": 103,
        "5770": 141,
        "5771": 43,
        "5772": 164,
        "5773": 51,
        "5774": 70,
        "5775": 184,
        "5776": 13,
        "5777": 91,
        "5778": 190,
        "5779": 193,
        "5780": 73,
        "5781": 178,
        "5782": 25,
        "5783": 71,
        "5784": 193,
        "5785": 176,
        "5786": 13,
        "5787": 184,
        "5788": 125,
        "5789": 137,
        "5790": 168,
        "5791": 170,
        "5792": 152,
        "5793": 107,
        "5794": 196,
        "5795": 5,
        "5796": 227,
        "5797": 143,
        "5798": 109,
        "5799": 231,
        "5800": 128,
        "5801": 12,
        "5802": 115,
        "5803": 117,
        "5804": 172,
        "5805": 208,
        "5806": 196,
        "5807": 15,
        "5808": 154,
        "5809": 245,
        "5810": 3,
        "5811": 49,
        "5812": 228,
        "5813": 61,
        "5814": 148,
        "5815": 66,
        "5816": 115,
        "5817": 118,
        "5818": 44,
        "5819": 244,
        "5820": 94,
        "5821": 182,
        "5822": 29,
        "5823": 157,
        "5824": 158,
        "5825": 191,
        "5826": 93,
        "5827": 120,
        "5828": 174,
        "5829": 20,
        "5830": 171,
        "5831": 119,
        "5832": 73,
        "5833": 218,
        "5834": 46,
        "5835": 119,
        "5836": 4,
        "5837": 37,
        "5838": 231,
        "5839": 17,
        "5840": 230,
        "5841": 142,
        "5842": 126,
        "5843": 53,
        "5844": 95,
        "5845": 41,
        "5846": 144,
        "5847": 33,
        "5848": 30,
        "5849": 91,
        "5850": 171,
        "5851": 14,
        "5852": 137,
        "5853": 150,
        "5854": 27,
        "5855": 35,
        "5856": 233,
        "5857": 134,
        "5858": 34,
        "5859": 101,
        "5860": 227,
        "5861": 17,
        "5862": 139,
        "5863": 145,
        "5864": 231,
        "5865": 29,
        "5866": 16,
        "5867": 194,
        "5868": 98,
        "5869": 175,
        "5870": 214,
        "5871": 229,
        "5872": 179,
        "5873": 45,
        "5874": 52,
        "5875": 156,
        "5876": 58,
        "5877": 190,
        "5878": 104,
        "5879": 95,
        "5880": 86,
        "5881": 213,
        "5882": 189,
        "5883": 46,
        "5884": 178,
        "5885": 251,
        "5886": 27,
        "5887": 63,
        "5888": 15,
        "5889": 81,
        "5890": 111,
        "5891": 102,
        "5892": 168,
        "5893": 170,
        "5894": 192,
        "5895": 188,
        "5896": 97,
        "5897": 127,
        "5898": 79,
        "5899": 13,
        "5900": 64,
        "5901": 145,
        "5902": 182,
        "5903": 94,
        "5904": 28,
        "5905": 132,
        "5906": 2,
        "5907": 86,
        "5908": 207,
        "5909": 109,
        "5910": 19,
        "5911": 197,
        "5912": 166,
        "5913": 70,
        "5914": 250,
        "5915": 139,
        "5916": 112,
        "5917": 163,
        "5918": 150,
        "5919": 115,
        "5920": 24,
        "5921": 175,
        "5922": 54,
        "5923": 49,
        "5924": 11,
        "5925": 12,
        "5926": 127,
        "5927": 35,
        "5928": 248,
        "5929": 132,
        "5930": 51,
        "5931": 30,
        "5932": 185,
        "5933": 168,
        "5934": 211,
        "5935": 241,
        "5936": 27,
        "5937": 18,
        "5938": 224,
        "5939": 139,
        "5940": 188,
        "5941": 167,
        "5942": 25,
        "5943": 179,
        "5944": 207,
        "5945": 232,
        "5946": 53,
        "5947": 152,
        "5948": 161,
        "5949": 146,
        "5950": 20,
        "5951": 138,
        "5952": 99,
        "5953": 215,
        "5954": 173,
        "5955": 125,
        "5956": 225,
        "5957": 249,
        "5958": 8,
        "5959": 216,
        "5960": 123,
        "5961": 128,
        "5962": 141,
        "5963": 147,
        "5964": 7,
        "5965": 119,
        "5966": 174,
        "5967": 243,
        "5968": 142,
        "5969": 88,
        "5970": 119,
        "5971": 124,
        "5972": 93,
        "5973": 133,
        "5974": 236,
        "5975": 76,
        "5976": 218,
        "5977": 44,
        "5978": 159,
        "5979": 120,
        "5980": 139,
        "5981": 198,
        "5982": 28,
        "5983": 205,
        "5984": 134,
        "5985": 135,
        "5986": 179,
        "5987": 205,
        "5988": 71,
        "5989": 217,
        "5990": 148,
        "5991": 142,
        "5992": 182,
        "5993": 186,
        "5994": 28,
        "5995": 207,
        "5996": 70,
        "5997": 36,
        "5998": 190,
        "5999": 79,
        "6000": 172,
        "6001": 107,
        "6002": 14,
        "6003": 32,
        "6004": 78,
        "6005": 5,
        "6006": 129,
        "6007": 163,
        "6008": 41,
        "6009": 154,
        "6010": 89,
        "6011": 55,
        "6012": 75,
        "6013": 26,
        "6014": 27,
        "6015": 124,
        "6016": 45,
        "6017": 146,
        "6018": 106,
        "6019": 25,
        "6020": 167,
        "6021": 20,
        "6022": 28,
        "6023": 91,
        "6024": 134,
        "6025": 156,
        "6026": 128,
        "6027": 236,
        "6028": 157,
        "6029": 89,
        "6030": 37,
        "6031": 43,
        "6032": 37,
        "6033": 85,
        "6034": 70,
        "6035": 225,
        "6036": 217,
        "6037": 110,
        "6038": 190,
        "6039": 155,
        "6040": 190,
        "6041": 149,
        "6042": 213,
        "6043": 87,
        "6044": 231,
        "6045": 56,
        "6046": 123,
        "6047": 57,
        "6048": 189,
        "6049": 198,
        "6050": 22,
        "6051": 131,
        "6052": 7,
        "6053": 220,
        "6054": 117,
        "6055": 83,
        "6056": 59,
        "6057": 95,
        "6058": 35,
        "6059": 193,
        "6060": 126,
        "6061": 79,
        "6062": 150,
        "6063": 50,
        "6064": 34,
        "6065": 232,
        "6066": 108,
        "6067": 12,
        "6068": 36,
        "6069": 80,
        "6070": 175,
        "6071": 58,
        "6072": 255,
        "6073": 113,
        "6074": 204,
        "6075": 158,
        "6076": 36,
        "6077": 104,
        "6078": 92,
        "6079": 242,
        "6080": 160,
        "6081": 82,
        "6082": 38,
        "6083": 156,
        "6084": 84,
        "6085": 15,
        "6086": 136,
        "6087": 174,
        "6088": 130,
        "6089": 65,
        "6090": 30,
        "6091": 21,
        "6092": 92,
        "6093": 205,
        "6094": 140,
        "6095": 8,
        "6096": 76,
        "6097": 146,
        "6098": 226,
        "6099": 114,
        "6100": 71,
        "6101": 50,
        "6102": 196,
        "6103": 181,
        "6104": 32,
        "6105": 50,
        "6106": 58,
        "6107": 147,
        "6108": 26,
        "6109": 243,
        "6110": 127,
        "6111": 222,
        "6112": 218,
        "6113": 94,
        "6114": 219,
        "6115": 230,
        "6116": 53,
        "6117": 189,
        "6118": 1,
        "6119": 113,
        "6120": 95,
        "6121": 104,
        "6122": 137,
        "6123": 193,
        "6124": 9,
        "6125": 254,
        "6126": 130,
        "6127": 20,
        "6128": 226,
        "6129": 223,
        "6130": 155,
        "6131": 5,
        "6132": 189,
        "6133": 174,
        "6134": 237,
        "6135": 55,
        "6136": 51,
        "6137": 187,
        "6138": 11,
        "6139": 236,
        "6140": 59,
        "6141": 234,
        "6142": 10,
        "6143": 190,
        "6144": 46,
        "6145": 110,
        "6146": 79,
        "6147": 212,
        "6148": 227,
        "6149": 49,
        "6150": 181,
        "6151": 249,
        "6152": 25,
        "6153": 151,
        "6154": 89,
        "6155": 8,
        "6156": 111,
        "6157": 222,
        "6158": 43,
        "6159": 125,
        "6160": 80,
        "6161": 161,
        "6162": 182,
        "6163": 18,
        "6164": 148,
        "6165": 206,
        "6166": 61,
        "6167": 179,
        "6168": 49,
        "6169": 125,
        "6170": 227,
        "6171": 222,
        "6172": 164,
        "6173": 26,
        "6174": 237,
        "6175": 24,
        "6176": 92,
        "6177": 41,
        "6178": 246,
        "6179": 40,
        "6180": 231,
        "6181": 209,
        "6182": 193,
        "6183": 160,
        "6184": 233,
        "6185": 85,
        "6186": 16,
        "6187": 3,
        "6188": 144,
        "6189": 140,
        "6190": 228,
        "6191": 37,
        "6192": 43,
        "6193": 217,
        "6194": 151,
        "6195": 179,
        "6196": 239,
        "6197": 27,
        "6198": 116,
        "6199": 223,
        "6200": 60,
        "6201": 91,
        "6202": 104,
        "6203": 52,
        "6204": 126,
        "6205": 210,
        "6206": 238,
        "6207": 164,
        "6208": 98,
        "6209": 103,
        "6210": 31,
        "6211": 196,
        "6212": 17,
        "6213": 67,
        "6214": 25,
        "6215": 248,
        "6216": 113,
        "6217": 189,
        "6218": 187,
        "6219": 254,
        "6220": 223,
        "6221": 200,
        "6222": 172,
        "6223": 70,
        "6224": 153,
        "6225": 72,
        "6226": 210,
        "6227": 114,
        "6228": 202,
        "6229": 174,
        "6230": 102,
        "6231": 205,
        "6232": 109,
        "6233": 22,
        "6234": 145,
        "6235": 187,
        "6236": 2,
        "6237": 218,
        "6238": 21,
        "6239": 42,
        "6240": 106,
        "6241": 12,
        "6242": 43,
        "6243": 249,
        "6244": 232,
        "6245": 125,
        "6246": 119,
        "6247": 207,
        "6248": 132,
        "6249": 117,
        "6250": 177,
        "6251": 0,
        "6252": 216,
        "6253": 80,
        "6254": 158,
        "6255": 95,
        "6256": 210,
        "6257": 102,
        "6258": 59,
        "6259": 166,
        "6260": 208,
        "6261": 62,
        "6262": 184,
        "6263": 115,
        "6264": 173,
        "6265": 96,
        "6266": 155,
        "6267": 172,
        "6268": 92,
        "6269": 123,
        "6270": 176,
        "6271": 9,
        "6272": 2,
        "6273": 114,
        "6274": 71,
        "6275": 217,
        "6276": 203,
        "6277": 144,
        "6278": 114,
        "6279": 204,
        "6280": 131,
        "6281": 218,
        "6282": 3,
        "6283": 185,
        "6284": 238,
        "6285": 199,
        "6286": 213,
        "6287": 118,
        "6288": 83,
        "6289": 105,
        "6290": 238,
        "6291": 137,
        "6292": 146,
        "6293": 110,
        "6294": 143,
        "6295": 99,
        "6296": 58,
        "6297": 1,
        "6298": 240,
        "6299": 201,
        "6300": 169,
        "6301": 11,
        "6302": 245,
        "6303": 3,
        "6304": 21,
        "6305": 27,
        "6306": 47,
        "6307": 247,
        "6308": 221,
        "6309": 18,
        "6310": 199,
        "6311": 163,
        "6312": 242,
        "6313": 97,
        "6314": 2,
        "6315": 74,
        "6316": 3,
        "6317": 128,
        "6318": 202,
        "6319": 45,
        "6320": 169,
        "6321": 237,
        "6322": 153,
        "6323": 235,
        "6324": 39,
        "6325": 114,
        "6326": 149,
        "6327": 129,
        "6328": 96,
        "6329": 225,
        "6330": 16,
        "6331": 215,
        "6332": 214,
        "6333": 98,
        "6334": 9,
        "6335": 128,
        "6336": 174,
        "6337": 215,
        "6338": 213,
        "6339": 50,
        "6340": 125,
        "6341": 59,
        "6342": 98,
        "6343": 153,
        "6344": 5,
        "6345": 205,
        "6346": 132,
        "6347": 74,
        "6348": 122,
        "6349": 251,
        "6350": 247,
        "6351": 94,
        "6352": 216,
        "6353": 120,
        "6354": 75,
        "6355": 253,
        "6356": 108,
        "6357": 116,
        "6358": 231,
        "6359": 183,
        "6360": 202,
        "6361": 26,
        "6362": 170,
        "6363": 155,
        "6364": 114,
        "6365": 61,
        "6366": 86,
        "6367": 201,
        "6368": 163,
        "6369": 61,
        "6370": 101,
        "6371": 138,
        "6372": 111,
        "6373": 123,
        "6374": 96,
        "6375": 109,
        "6376": 73,
        "6377": 181,
        "6378": 169,
        "6379": 146,
        "6380": 163,
        "6381": 150,
        "6382": 142,
        "6383": 239,
        "6384": 201,
        "6385": 176,
        "6386": 152,
        "6387": 248,
        "6388": 154,
        "6389": 30,
        "6390": 63,
        "6391": 250,
        "6392": 136,
        "6393": 226,
        "6394": 46,
        "6395": 27,
        "6396": 69,
        "6397": 140,
        "6398": 0,
        "6399": 64,
        "6400": 133,
        "6401": 236,
        "6402": 226,
        "6403": 46,
        "6404": 11,
        "6405": 42,
        "6406": 234,
        "6407": 252,
        "6408": 42,
        "6409": 165,
        "6410": 112,
        "6411": 53,
        "6412": 116,
        "6413": 65,
        "6414": 166,
        "6415": 208,
        "6416": 205,
        "6417": 171,
        "6418": 97,
        "6419": 135,
        "6420": 75,
        "6421": 90,
        "6422": 92,
        "6423": 212,
        "6424": 42,
        "6425": 214,
        "6426": 102,
        "6427": 254,
        "6428": 43,
        "6429": 71,
        "6430": 232,
        "6431": 21,
        "6432": 219,
        "6433": 19,
        "6434": 99,
        "6435": 110,
        "6436": 75,
        "6437": 240,
        "6438": 108,
        "6439": 229,
        "6440": 105,
        "6441": 252,
        "6442": 246,
        "6443": 70,
        "6444": 28,
        "6445": 107,
        "6446": 54,
        "6447": 201,
        "6448": 74,
        "6449": 13,
        "6450": 124,
        "6451": 139,
        "6452": 108,
        "6453": 40,
        "6454": 2,
        "6455": 61,
        "6456": 97,
        "6457": 200,
        "6458": 142,
        "6459": 24,
        "6460": 118,
        "6461": 182,
        "6462": 116,
        "6463": 172,
        "6464": 70,
        "6465": 117,
        "6466": 97,
        "6467": 92,
        "6468": 127,
        "6469": 171,
        "6470": 251,
        "6471": 146,
        "6472": 39,
        "6473": 12,
        "6474": 201,
        "6475": 255,
        "6476": 151,
        "6477": 204,
        "6478": 45,
        "6479": 252,
        "6480": 235,
        "6481": 135,
        "6482": 248,
        "6483": 119,
        "6484": 244,
        "6485": 5,
        "6486": 208,
        "6487": 72,
        "6488": 248,
        "6489": 207,
        "6490": 111,
        "6491": 232,
        "6492": 105,
        "6493": 34,
        "6494": 232,
        "6495": 87,
        "6496": 15,
        "6497": 97,
        "6498": 207,
        "6499": 18,
        "6500": 203,
        "6501": 61,
        "6502": 95,
        "6503": 237,
        "6504": 109,
        "6505": 142,
        "6506": 220,
        "6507": 98,
        "6508": 24,
        "6509": 10,
        "6510": 215,
        "6511": 87,
        "6512": 210,
        "6513": 201,
        "6514": 98,
        "6515": 99,
        "6516": 136,
        "6517": 114,
        "6518": 44,
        "6519": 222,
        "6520": 50,
        "6521": 132,
        "6522": 195,
        "6523": 172,
        "6524": 146,
        "6525": 5,
        "6526": 241,
        "6527": 9,
        "6528": 247,
        "6529": 224,
        "6530": 206,
        "6531": 76,
        "6532": 100,
        "6533": 164,
        "6534": 123,
        "6535": 78,
        "6536": 5,
        "6537": 4,
        "6538": 60,
        "6539": 221,
        "6540": 22,
        "6541": 211,
        "6542": 151,
        "6543": 42,
        "6544": 22,
        "6545": 88,
        "6546": 4,
        "6547": 147,
        "6548": 96,
        "6549": 169,
        "6550": 72,
        "6551": 221,
        "6552": 255,
        "6553": 149,
        "6554": 250,
        "6555": 86,
        "6556": 197,
        "6557": 33,
        "6558": 8,
        "6559": 160,
        "6560": 5,
        "6561": 197,
        "6562": 86,
        "6563": 70,
        "6564": 251,
        "6565": 26,
        "6566": 175,
        "6567": 152,
        "6568": 127,
        "6569": 251,
        "6570": 145,
        "6571": 180,
        "6572": 186,
        "6573": 59,
        "6574": 154,
        "6575": 5,
        "6576": 26,
        "6577": 150,
        "6578": 144,
        "6579": 70,
        "6580": 226,
        "6581": 195,
        "6582": 135,
        "6583": 180,
        "6584": 59,
        "6585": 3,
        "6586": 95,
        "6587": 217,
        "6588": 69,
        "6589": 105,
        "6590": 1,
        "6591": 242,
        "6592": 192,
        "6593": 40,
        "6594": 240,
        "6595": 225,
        "6596": 226,
        "6597": 51,
        "6598": 215,
        "6599": 229,
        "6600": 246,
        "6601": 162,
        "6602": 24,
        "6603": 254,
        "6604": 5,
        "6605": 140,
        "6606": 114,
        "6607": 36,
        "6608": 200,
        "6609": 221,
        "6610": 131,
        "6611": 77,
        "6612": 29,
        "6613": 197,
        "6614": 150,
        "6615": 169,
        "6616": 106,
        "6617": 113,
        "6618": 122,
        "6619": 87,
        "6620": 89,
        "6621": 237,
        "6622": 149,
        "6623": 39,
        "6624": 162,
        "6625": 110,
        "6626": 197,
        "6627": 147,
        "6628": 130,
        "6629": 158,
        "6630": 168,
        "6631": 71,
        "6632": 218,
        "6633": 227,
        "6634": 82,
        "6635": 187,
        "6636": 177,
        "6637": 61,
        "6638": 206,
        "6639": 102,
        "6640": 161,
        "6641": 209,
        "6642": 15,
        "6643": 56,
        "6644": 196,
        "6645": 69,
        "6646": 132,
        "6647": 36,
        "6648": 245,
        "6649": 180,
        "6650": 194,
        "6651": 213,
        "6652": 104,
        "6653": 30,
        "6654": 112,
        "6655": 92,
        "6656": 77,
        "6657": 240,
        "6658": 251,
        "6659": 26,
        "6660": 18,
        "6661": 174,
        "6662": 123,
        "6663": 252,
        "6664": 220,
        "6665": 157,
        "6666": 81,
        "6667": 37,
        "6668": 59,
        "6669": 148,
        "6670": 85,
        "6671": 136,
        "6672": 220,
        "6673": 192,
        "6674": 249,
        "6675": 82,
        "6676": 252,
        "6677": 183,
        "6678": 78,
        "6679": 80,
        "6680": 139,
        "6681": 51,
        "6682": 0,
        "6683": 106,
        "6684": 91,
        "6685": 254,
        "6686": 219,
        "6687": 253,
        "6688": 114,
        "6689": 128,
        "6690": 61,
        "6691": 109,
        "6692": 67,
        "6693": 39,
        "6694": 73,
        "6695": 32,
        "6696": 181,
        "6697": 55,
        "6698": 131,
        "6699": 119,
        "6700": 0,
        "6701": 96,
        "6702": 80,
        "6703": 202,
        "6704": 123,
        "6705": 212,
        "6706": 113,
        "6707": 114,
        "6708": 51,
        "6709": 130,
        "6710": 155,
        "6711": 228,
        "6712": 150,
        "6713": 217,
        "6714": 75,
        "6715": 135,
        "6716": 225,
        "6717": 141,
        "6718": 238,
        "6719": 236,
        "6720": 234,
        "6721": 14,
        "6722": 224,
        "6723": 184,
        "6724": 84,
        "6725": 40,
        "6726": 155,
        "6727": 245,
        "6728": 32,
        "6729": 61,
        "6730": 64,
        "6731": 64,
        "6732": 175,
        "6733": 226,
        "6734": 40,
        "6735": 136,
        "6736": 226,
        "6737": 100,
        "6738": 47,
        "6739": 225,
        "6740": 124,
        "6741": 247,
        "6742": 204,
        "6743": 230,
        "6744": 178,
        "6745": 250,
        "6746": 27,
        "6747": 45,
        "6748": 251,
        "6749": 43,
        "6750": 229,
        "6751": 112,
        "6752": 88,
        "6753": 10,
        "6754": 9,
        "6755": 64,
        "6756": 230,
        "6757": 198,
        "6758": 87,
        "6759": 146,
        "6760": 111,
        "6761": 178,
        "6762": 235,
        "6763": 116,
        "6764": 192,
        "6765": 96,
        "6766": 211,
        "6767": 239,
        "6768": 227,
        "6769": 208,
        "6770": 103,
        "6771": 210,
        "6772": 71,
        "6773": 189,
        "6774": 124,
        "6775": 6,
        "6776": 203,
        "6777": 252,
        "6778": 149,
        "6779": 131,
        "6780": 186,
        "6781": 109,
        "6782": 22,
        "6783": 104,
        "6784": 149,
        "6785": 126,
        "6786": 0,
        "6787": 242,
        "6788": 50,
        "6789": 129,
        "6790": 167,
        "6791": 151,
        "6792": 113,
        "6793": 7,
        "6794": 62,
        "6795": 152,
        "6796": 189,
        "6797": 31,
        "6798": 66,
        "6799": 80,
        "6800": 49,
        "6801": 245,
        "6802": 126,
        "6803": 155,
        "6804": 124,
        "6805": 196,
        "6806": 129,
        "6807": 198,
        "6808": 190,
        "6809": 32,
        "6810": 6,
        "6811": 158,
        "6812": 207,
        "6813": 229,
        "6814": 198,
        "6815": 182,
        "6816": 164,
        "6817": 194,
        "6818": 140,
        "6819": 175,
        "6820": 145,
        "6821": 105,
        "6822": 183,
        "6823": 234,
        "6824": 90,
        "6825": 230,
        "6826": 51,
        "6827": 36,
        "6828": 142,
        "6829": 151,
        "6830": 134,
        "6831": 46,
        "6832": 78,
        "6833": 201,
        "6834": 178,
        "6835": 240,
        "6836": 19,
        "6837": 232,
        "6838": 28,
        "6839": 3,
        "6840": 96,
        "6841": 144,
        "6842": 28,
        "6843": 62,
        "6844": 24,
        "6845": 58,
        "6846": 215,
        "6847": 175,
        "6848": 45,
        "6849": 243,
        "6850": 213,
        "6851": 161,
        "6852": 110,
        "6853": 170,
        "6854": 121,
        "6855": 231,
        "6856": 162,
        "6857": 192,
        "6858": 46,
        "6859": 156,
        "6860": 211,
        "6861": 196,
        "6862": 95,
        "6863": 52,
        "6864": 240,
        "6865": 224,
        "6866": 252,
        "6867": 143,
        "6868": 223,
        "6869": 175,
        "6870": 120,
        "6871": 47,
        "6872": 168,
        "6873": 90,
        "6874": 38,
        "6875": 143,
        "6876": 209,
        "6877": 132,
        "6878": 169,
        "6879": 27,
        "6880": 108,
        "6881": 79,
        "6882": 164,
        "6883": 107,
        "6884": 22,
        "6885": 209,
        "6886": 55,
        "6887": 243,
        "6888": 100,
        "6889": 26,
        "6890": 7,
        "6891": 177,
        "6892": 173,
        "6893": 38,
        "6894": 174,
        "6895": 144,
        "6896": 111,
        "6897": 98,
        "6898": 16,
        "6899": 191,
        "6900": 67,
        "6901": 139,
        "6902": 19,
        "6903": 199,
        "6904": 181,
        "6905": 207,
        "6906": 225,
        "6907": 86,
        "6908": 248,
        "6909": 148,
        "6910": 180,
        "6911": 193,
        "6912": 203,
        "6913": 232,
        "6914": 239,
        "6915": 161,
        "6916": 41,
        "6917": 33,
        "6918": 235,
        "6919": 17,
        "6920": 180,
        "6921": 240,
        "6922": 251,
        "6923": 213,
        "6924": 121,
        "6925": 67,
        "6926": 102,
        "6927": 224,
        "6928": 98,
        "6929": 143,
        "6930": 58,
        "6931": 130,
        "6932": 25,
        "6933": 81,
        "6934": 8,
        "6935": 244,
        "6936": 1,
        "6937": 234,
        "6938": 135,
        "6939": 206,
        "6940": 232,
        "6941": 83,
        "6942": 2,
        "6943": 194,
        "6944": 155,
        "6945": 42,
        "6946": 224,
        "6947": 251,
        "6948": 112,
        "6949": 138,
        "6950": 23,
        "6951": 224,
        "6952": 100,
        "6953": 144,
        "6954": 218,
        "6955": 2,
        "6956": 127,
        "6957": 168,
        "6958": 7,
        "6959": 177,
        "6960": 34,
        "6961": 207,
        "6962": 140,
        "6963": 192,
        "6964": 147,
        "6965": 107,
        "6966": 229,
        "6967": 37,
        "6968": 89,
        "6969": 74,
        "6970": 29,
        "6971": 119,
        "6972": 13,
        "6973": 205,
        "6974": 127,
        "6975": 243,
        "6976": 233,
        "6977": 201,
        "6978": 72,
        "6979": 38,
        "6980": 146,
        "6981": 70,
        "6982": 115,
        "6983": 47,
        "6984": 204,
        "6985": 132,
        "6986": 38,
        "6987": 239,
        "6988": 128,
        "6989": 164,
        "6990": 232,
        "6991": 183,
        "6992": 189,
        "6993": 123,
        "6994": 243,
        "6995": 187,
        "6996": 69,
        "6997": 245,
        "6998": 232,
        "6999": 221,
        "7000": 255,
        "7001": 63,
        "7002": 248,
        "7003": 157,
        "7004": 130,
        "7005": 63,
        "7006": 209,
        "7007": 101,
        "7008": 135,
        "7009": 227,
        "7010": 129,
        "7011": 242,
        "7012": 206,
        "7013": 155,
        "7014": 249,
        "7015": 145,
        "7016": 45,
        "7017": 216,
        "7018": 243,
        "7019": 93,
        "7020": 36,
        "7021": 202,
        "7022": 162,
        "7023": 31,
        "7024": 174,
        "7025": 1,
        "7026": 12,
        "7027": 166,
        "7028": 218,
        "7029": 164,
        "7030": 91,
        "7031": 120,
        "7032": 193,
        "7033": 188,
        "7034": 217,
        "7035": 113,
        "7036": 208,
        "7037": 211,
        "7038": 4,
        "7039": 243,
        "7040": 50,
        "7041": 211,
        "7042": 149,
        "7043": 79,
        "7044": 191,
        "7045": 194,
        "7046": 210,
        "7047": 124,
        "7048": 34,
        "7049": 146,
        "7050": 250,
        "7051": 213,
        "7052": 44,
        "7053": 154,
        "7054": 134,
        "7055": 172,
        "7056": 116,
        "7057": 204,
        "7058": 245,
        "7059": 149,
        "7060": 105,
        "7061": 73,
        "7062": 143,
        "7063": 11,
        "7064": 230,
        "7065": 133,
        "7066": 157,
        "7067": 166,
        "7068": 147,
        "7069": 218,
        "7070": 207,
        "7071": 132,
        "7072": 18,
        "7073": 191,
        "7074": 155,
        "7075": 232,
        "7076": 8,
        "7077": 42,
        "7078": 25,
        "7079": 31,
        "7080": 234,
        "7081": 134,
        "7082": 68,
        "7083": 103,
        "7084": 121,
        "7085": 152,
        "7086": 41,
        "7087": 119,
        "7088": 126,
        "7089": 62,
        "7090": 41,
        "7091": 159,
        "7092": 111,
        "7093": 217,
        "7094": 66,
        "7095": 251,
        "7096": 87,
        "7097": 121,
        "7098": 130,
        "7099": 116,
        "7100": 67,
        "7101": 124,
        "7102": 196,
        "7103": 217,
        "7104": 75,
        "7105": 184,
        "7106": 190,
        "7107": 80,
        "7108": 54,
        "7109": 128,
        "7110": 13,
        "7111": 228,
        "7112": 58,
        "7113": 219,
        "7114": 108,
        "7115": 202,
        "7116": 82,
        "7117": 100,
        "7118": 36,
        "7119": 142,
        "7120": 173,
        "7121": 110,
        "7122": 250,
        "7123": 255,
        "7124": 14,
        "7125": 228,
        "7126": 150,
        "7127": 39,
        "7128": 159,
        "7129": 88,
        "7130": 146,
        "7131": 103,
        "7132": 165,
        "7133": 221,
        "7134": 172,
        "7135": 155,
        "7136": 91,
        "7137": 192,
        "7138": 181,
        "7139": 255,
        "7140": 200,
        "7141": 241,
        "7142": 212,
        "7143": 126,
        "7144": 238,
        "7145": 64,
        "7146": 191,
        "7147": 10,
        "7148": 10,
        "7149": 58,
        "7150": 99,
        "7151": 235,
        "7152": 157,
        "7153": 183,
        "7154": 116,
        "7155": 204,
        "7156": 150,
        "7157": 154,
        "7158": 86,
        "7159": 211,
        "7160": 1,
        "7161": 10,
        "7162": 173,
        "7163": 239,
        "7164": 222,
        "7165": 104,
        "7166": 21,
        "7167": 235,
        "7168": 101,
        "7169": 176,
        "7170": 24,
        "7171": 69,
        "7172": 141,
        "7173": 47,
        "7174": 24,
        "7175": 129,
        "7176": 237,
        "7177": 52,
        "7178": 54,
        "7179": 119,
        "7180": 69,
        "7181": 203,
        "7182": 26,
        "7183": 228,
        "7184": 199,
        "7185": 103,
        "7186": 137,
        "7187": 130,
        "7188": 17,
        "7189": 22,
        "7190": 170,
        "7191": 13,
        "7192": 225,
        "7193": 241,
        "7194": 21,
        "7195": 175,
        "7196": 79,
        "7197": 192,
        "7198": 227,
        "7199": 3,
        "7200": 222,
        "7201": 115,
        "7202": 240,
        "7203": 63,
        "7204": 77,
        "7205": 65,
        "7206": 193,
        "7207": 50,
        "7208": 130,
        "7209": 156,
        "7210": 54,
        "7211": 142,
        "7212": 5,
        "7213": 100,
        "7214": 173,
        "7215": 161,
        "7216": 17,
        "7217": 176,
        "7218": 4,
        "7219": 181,
        "7220": 247,
        "7221": 215,
        "7222": 167,
        "7223": 6,
        "7224": 136,
        "7225": 7,
        "7226": 60,
        "7227": 151,
        "7228": 213,
        "7229": 167,
        "7230": 70,
        "7231": 123,
        "7232": 140,
        "7233": 115,
        "7234": 214,
        "7235": 170,
        "7236": 84,
        "7237": 77,
        "7238": 155,
        "7239": 118,
        "7240": 177,
        "7241": 151,
        "7242": 131,
        "7243": 28,
        "7244": 151,
        "7245": 34,
        "7246": 21,
        "7247": 24,
        "7248": 200,
        "7249": 126,
        "7250": 245,
        "7251": 140,
        "7252": 1,
        "7253": 248,
        "7254": 173,
        "7255": 86,
        "7256": 174,
        "7257": 218,
        "7258": 168,
        "7259": 66,
        "7260": 133,
        "7261": 221,
        "7262": 191,
        "7263": 57,
        "7264": 42,
        "7265": 102,
        "7266": 16,
        "7267": 210,
        "7268": 228,
        "7269": 213,
        "7270": 24,
        "7271": 248,
        "7272": 93,
        "7273": 86,
        "7274": 36,
        "7275": 118,
        "7276": 102,
        "7277": 178,
        "7278": 37,
        "7279": 30,
        "7280": 197,
        "7281": 125,
        "7282": 34,
        "7283": 106,
        "7284": 229,
        "7285": 50,
        "7286": 247,
        "7287": 110,
        "7288": 238,
        "7289": 18,
        "7290": 198,
        "7291": 154,
        "7292": 74,
        "7293": 44,
        "7294": 116,
        "7295": 125,
        "7296": 235,
        "7297": 169,
        "7298": 71,
        "7299": 57,
        "7300": 26,
        "7301": 54,
        "7302": 227,
        "7303": 188,
        "7304": 134,
        "7305": 5,
        "7306": 172,
        "7307": 208,
        "7308": 26,
        "7309": 28,
        "7310": 178,
        "7311": 69,
        "7312": 238,
        "7313": 69,
        "7314": 24,
        "7315": 161,
        "7316": 71,
        "7317": 191,
        "7318": 204,
        "7319": 167,
        "7320": 163,
        "7321": 91,
        "7322": 38,
        "7323": 99,
        "7324": 1,
        "7325": 172,
        "7326": 57,
        "7327": 14,
        "7328": 2,
        "7329": 84,
        "7330": 120,
        "7331": 67,
        "7332": 89,
        "7333": 27,
        "7334": 152,
        "7335": 1,
        "7336": 179,
        "7337": 103,
        "7338": 208,
        "7339": 225,
        "7340": 30,
        "7341": 252,
        "7342": 109,
        "7343": 96,
        "7344": 242,
        "7345": 21,
        "7346": 253,
        "7347": 9,
        "7348": 188,
        "7349": 168,
        "7350": 34,
        "7351": 104,
        "7352": 75,
        "7353": 122,
        "7354": 45,
        "7355": 210,
        "7356": 152,
        "7357": 82,
        "7358": 28,
        "7359": 51,
        "7360": 253,
        "7361": 130,
        "7362": 53,
        "7363": 115,
        "7364": 84,
        "7365": 35,
        "7366": 203,
        "7367": 112,
        "7368": 222,
        "7369": 217,
        "7370": 105,
        "7371": 95,
        "7372": 145,
        "7373": 252,
        "7374": 69,
        "7375": 151,
        "7376": 89,
        "7377": 221,
        "7378": 95,
        "7379": 69,
        "7380": 48,
        "7381": 54,
        "7382": 230,
        "7383": 12,
        "7384": 39,
        "7385": 159,
        "7386": 115,
        "7387": 125,
        "7388": 187,
        "7389": 119,
        "7390": 78,
        "7391": 121,
        "7392": 114,
        "7393": 201,
        "7394": 104,
        "7395": 2,
        "7396": 46,
        "7397": 111,
        "7398": 49,
        "7399": 29,
        "7400": 249,
        "7401": 17,
        "7402": 99,
        "7403": 149,
        "7404": 14,
        "7405": 97,
        "7406": 191,
        "7407": 4,
        "7408": 211,
        "7409": 112,
        "7410": 7,
        "7411": 84,
        "7412": 61,
        "7413": 90,
        "7414": 40,
        "7415": 222,
        "7416": 124,
        "7417": 253,
        "7418": 244,
        "7419": 97,
        "7420": 231,
        "7421": 205,
        "7422": 118,
        "7423": 111,
        "7424": 234,
        "7425": 175,
        "7426": 108,
        "7427": 233,
        "7428": 20,
        "7429": 105,
        "7430": 180,
        "7431": 107,
        "7432": 83,
        "7433": 25,
        "7434": 66,
        "7435": 255,
        "7436": 93,
        "7437": 247,
        "7438": 59,
        "7439": 239,
        "7440": 75,
        "7441": 213,
        "7442": 118,
        "7443": 240,
        "7444": 160,
        "7445": 139,
        "7446": 120,
        "7447": 62,
        "7448": 195,
        "7449": 12,
        "7450": 136,
        "7451": 107,
        "7452": 113,
        "7453": 46,
        "7454": 148,
        "7455": 244,
        "7456": 187,
        "7457": 80,
        "7458": 103,
        "7459": 230,
        "7460": 171,
        "7461": 242,
        "7462": 98,
        "7463": 208,
        "7464": 91,
        "7465": 89,
        "7466": 143,
        "7467": 106,
        "7468": 245,
        "7469": 169,
        "7470": 189,
        "7471": 241,
        "7472": 227,
        "7473": 225,
        "7474": 92,
        "7475": 104,
        "7476": 160,
        "7477": 190,
        "7478": 221,
        "7479": 205,
        "7480": 142,
        "7481": 16,
        "7482": 193,
        "7483": 226,
        "7484": 117,
        "7485": 134,
        "7486": 7,
        "7487": 171,
        "7488": 77,
        "7489": 72,
        "7490": 182,
        "7491": 250,
        "7492": 211,
        "7493": 98,
        "7494": 6,
        "7495": 131,
        "7496": 142,
        "7497": 206,
        "7498": 95,
        "7499": 241,
        "7500": 219,
        "7501": 184,
        "7502": 73,
        "7503": 247,
        "7504": 0,
        "7505": 129,
        "7506": 238,
        "7507": 37,
        "7508": 204,
        "7509": 160,
        "7510": 146,
        "7511": 60,
        "7512": 231,
        "7513": 100,
        "7514": 196,
        "7515": 126,
        "7516": 197,
        "7517": 184,
        "7518": 252,
        "7519": 56,
        "7520": 33,
        "7521": 183,
        "7522": 75,
        "7523": 52,
        "7524": 189,
        "7525": 234,
        "7526": 92,
        "7527": 224,
        "7528": 121,
        "7529": 87,
        "7530": 112,
        "7531": 167,
        "7532": 216,
        "7533": 250,
        "7534": 15,
        "7535": 127,
        "7536": 225,
        "7537": 204,
        "7538": 180,
        "7539": 91,
        "7540": 38,
        "7541": 194,
        "7542": 80,
        "7543": 221,
        "7544": 73,
        "7545": 43,
        "7546": 57,
        "7547": 5,
        "7548": 255,
        "7549": 44,
        "7550": 228,
        "7551": 27,
        "7552": 155,
        "7553": 237,
        "7554": 175,
        "7555": 93,
        "7556": 60,
        "7557": 120,
        "7558": 68,
        "7559": 99,
        "7560": 184,
        "7561": 87,
        "7562": 102,
        "7563": 135,
        "7564": 91,
        "7565": 38,
        "7566": 146,
        "7567": 64,
        "7568": 20,
        "7569": 72,
        "7570": 141,
        "7571": 206,
        "7572": 147,
        "7573": 140,
        "7574": 4,
        "7575": 86,
        "7576": 41,
        "7577": 69,
        "7578": 162,
        "7579": 105,
        "7580": 192,
        "7581": 187,
        "7582": 32,
        "7583": 3,
        "7584": 219,
        "7585": 14,
        "7586": 123,
        "7587": 46,
        "7588": 129,
        "7589": 189,
        "7590": 154,
        "7591": 32,
        "7592": 54,
        "7593": 209,
        "7594": 70,
        "7595": 100,
        "7596": 64,
        "7597": 116,
        "7598": 247,
        "7599": 255,
        "7600": 147,
        "7601": 193,
        "7602": 59,
        "7603": 168,
        "7604": 46,
        "7605": 151,
        "7606": 235,
        "7607": 124,
        "7608": 228,
        "7609": 230,
        "7610": 121,
        "7611": 3,
        "7612": 189,
        "7613": 82,
        "7614": 125,
        "7615": 144,
        "7616": 89,
        "7617": 250,
        "7618": 82,
        "7619": 218,
        "7620": 119,
        "7621": 87,
        "7622": 160,
        "7623": 141,
        "7624": 232,
        "7625": 37,
        "7626": 112,
        "7627": 79,
        "7628": 43,
        "7629": 75,
        "7630": 86,
        "7631": 242,
        "7632": 198,
        "7633": 65,
        "7634": 131,
        "7635": 185,
        "7636": 136,
        "7637": 28,
        "7638": 123,
        "7639": 96,
        "7640": 184,
        "7641": 167,
        "7642": 210,
        "7643": 83,
        "7644": 53,
        "7645": 214,
        "7646": 145,
        "7647": 118,
        "7648": 222,
        "7649": 119,
        "7650": 109,
        "7651": 38,
        "7652": 40,
        "7653": 68,
        "7654": 105,
        "7655": 25,
        "7656": 34,
        "7657": 224,
        "7658": 114,
        "7659": 71,
        "7660": 6,
        "7661": 147,
        "7662": 196,
        "7663": 7,
        "7664": 56,
        "7665": 7,
        "7666": 169,
        "7667": 104,
        "7668": 36,
        "7669": 88,
        "7670": 74,
        "7671": 86,
        "7672": 57,
        "7673": 178,
        "7674": 69,
        "7675": 37,
        "7676": 5,
        "7677": 178,
        "7678": 34,
        "7679": 86,
        "7680": 142,
        "7681": 69,
        "7682": 211,
        "7683": 156,
        "7684": 20,
        "7685": 36,
        "7686": 202,
        "7687": 123,
        "7688": 208,
        "7689": 220,
        "7690": 66,
        "7691": 161,
        "7692": 6,
        "7693": 39,
        "7694": 128,
        "7695": 172,
        "7696": 56,
        "7697": 222,
        "7698": 216,
        "7699": 12,
        "7700": 108,
        "7701": 192,
        "7702": 183,
        "7703": 243,
        "7704": 251,
        "7705": 136,
        "7706": 131,
        "7707": 105,
        "7708": 140,
        "7709": 244,
        "7710": 84,
        "7711": 112,
        "7712": 134,
        "7713": 57,
        "7714": 172,
        "7715": 246,
        "7716": 37,
        "7717": 133,
        "7718": 248,
        "7719": 57,
        "7720": 197,
        "7721": 53,
        "7722": 235,
        "7723": 213,
        "7724": 212,
        "7725": 151,
        "7726": 35,
        "7727": 6,
        "7728": 0,
        "7729": 178,
        "7730": 13,
        "7731": 154,
        "7732": 235,
        "7733": 30,
        "7734": 156,
        "7735": 139,
        "7736": 58,
        "7737": 40,
        "7738": 107,
        "7739": 181,
        "7740": 249,
        "7741": 7,
        "7742": 157,
        "7743": 247,
        "7744": 114,
        "7745": 29,
        "7746": 18,
        "7747": 0,
        "7748": 202,
        "7749": 140,
        "7750": 60,
        "7751": 224,
        "7752": 164,
        "7753": 59,
        "7754": 219,
        "7755": 179,
        "7756": 36,
        "7757": 207,
        "7758": 194,
        "7759": 211,
        "7760": 140,
        "7761": 158,
        "7762": 187,
        "7763": 149,
        "7764": 252,
        "7765": 122,
        "7766": 226,
        "7767": 1,
        "7768": 99,
        "7769": 2,
        "7770": 170,
        "7771": 230,
        "7772": 251,
        "7773": 117,
        "7774": 155,
        "7775": 32,
        "7776": 137,
        "7777": 84,
        "7778": 188,
        "7779": 179,
        "7780": 128,
        "7781": 79,
        "7782": 159,
        "7783": 153,
        "7784": 66,
        "7785": 103,
        "7786": 117,
        "7787": 199,
        "7788": 120,
        "7789": 85,
        "7790": 103,
        "7791": 8,
        "7792": 175,
        "7793": 190,
        "7794": 134,
        "7795": 173,
        "7796": 231,
        "7797": 217,
        "7798": 146,
        "7799": 21,
        "7800": 97,
        "7801": 185,
        "7802": 254,
        "7803": 211,
        "7804": 83,
        "7805": 195,
        "7806": 74,
        "7807": 91,
        "7808": 43,
        "7809": 55,
        "7810": 231,
        "7811": 250,
        "7812": 153,
        "7813": 93,
        "7814": 39,
        "7815": 128,
        "7816": 188,
        "7817": 171,
        "7818": 147,
        "7819": 153,
        "7820": 40,
        "7821": 190,
        "7822": 227,
        "7823": 120,
        "7824": 25,
        "7825": 171,
        "7826": 245,
        "7827": 53,
        "7828": 179,
        "7829": 160,
        "7830": 83,
        "7831": 52,
        "7832": 128,
        "7833": 50,
        "7834": 246,
        "7835": 33,
        "7836": 140,
        "7837": 31,
        "7838": 210,
        "7839": 222,
        "7840": 239,
        "7841": 60,
        "7842": 111,
        "7843": 216,
        "7844": 58,
        "7845": 54,
        "7846": 40,
        "7847": 94,
        "7848": 192,
        "7849": 98,
        "7850": 47,
        "7851": 51,
        "7852": 129,
        "7853": 22,
        "7854": 39,
        "7855": 246,
        "7856": 112,
        "7857": 52,
        "7858": 90,
        "7859": 42,
        "7860": 155,
        "7861": 83,
        "7862": 6,
        "7863": 165,
        "7864": 182,
        "7865": 130,
        "7866": 190,
        "7867": 244,
        "7868": 146,
        "7869": 80,
        "7870": 187,
        "7871": 90,
        "7872": 203,
        "7873": 164,
        "7874": 74,
        "7875": 143,
        "7876": 168,
        "7877": 177,
        "7878": 77,
        "7879": 137,
        "7880": 224,
        "7881": 247,
        "7882": 207,
        "7883": 220,
        "7884": 227,
        "7885": 45,
        "7886": 163,
        "7887": 53,
        "7888": 44,
        "7889": 1,
        "7890": 86,
        "7891": 31,
        "7892": 105,
        "7893": 31,
        "7894": 77,
        "7895": 13,
        "7896": 31,
        "7897": 215,
        "7898": 224,
        "7899": 161,
        "7900": 201,
        "7901": 130,
        "7902": 104,
        "7903": 76,
        "7904": 194,
        "7905": 18,
        "7906": 117,
        "7907": 179,
        "7908": 164,
        "7909": 157,
        "7910": 148,
        "7911": 185,
        "7912": 41,
        "7913": 43,
        "7914": 215,
        "7915": 53,
        "7916": 21,
        "7917": 239,
        "7918": 185,
        "7919": 87,
        "7920": 193,
        "7921": 174,
        "7922": 54,
        "7923": 99,
        "7924": 179,
        "7925": 114,
        "7926": 24,
        "7927": 194,
        "7928": 109,
        "7929": 247,
        "7930": 43,
        "7931": 209,
        "7932": 112,
        "7933": 3,
        "7934": 1,
        "7935": 73,
        "7936": 161,
        "7937": 26,
        "7938": 22,
        "7939": 98,
        "7940": 73,
        "7941": 245,
        "7942": 170,
        "7943": 255,
        "7944": 189,
        "7945": 42,
        "7946": 141,
        "7947": 99,
        "7948": 156,
        "7949": 39,
        "7950": 167,
        "7951": 5,
        "7952": 152,
        "7953": 137,
        "7954": 47,
        "7955": 152,
        "7956": 158,
        "7957": 210,
        "7958": 102,
        "7959": 26,
        "7960": 180,
        "7961": 43,
        "7962": 222,
        "7963": 34,
        "7964": 22,
        "7965": 104,
        "7966": 8,
        "7967": 160,
        "7968": 51,
        "7969": 135,
        "7970": 145,
        "7971": 138,
        "7972": 49,
        "7973": 116,
        "7974": 75,
        "7975": 248,
        "7976": 0,
        "7977": 228,
        "7978": 11,
        "7979": 163,
        "7980": 203,
        "7981": 69,
        "7982": 249,
        "7983": 215,
        "7984": 239,
        "7985": 42,
        "7986": 155,
        "7987": 16,
        "7988": 83,
        "7989": 144,
        "7990": 253,
        "7991": 105,
        "7992": 15,
        "7993": 194,
        "7994": 175,
        "7995": 247,
        "7996": 219,
        "7997": 166,
        "7998": 193,
        "7999": 53,
        "8000": 163,
        "8001": 222,
        "8002": 3,
        "8003": 65,
        "8004": 24,
        "8005": 97,
        "8006": 249,
        "8007": 25,
        "8008": 210,
        "8009": 178,
        "8010": 129,
        "8011": 210,
        "8012": 101,
        "8013": 76,
        "8014": 26,
        "8015": 24,
        "8016": 36,
        "8017": 23,
        "8018": 17,
        "8019": 136,
        "8020": 41,
        "8021": 218,
        "8022": 187,
        "8023": 126,
        "8024": 232,
        "8025": 251,
        "8026": 205,
        "8027": 31,
        "8028": 152,
        "8029": 124,
        "8030": 138,
        "8031": 219,
        "8032": 79,
        "8033": 62,
        "8034": 172,
        "8035": 243,
        "8036": 162,
        "8037": 63,
        "8038": 50,
        "8039": 2,
        "8040": 32,
        "8041": 166,
        "8042": 110,
        "8043": 220,
        "8044": 32,
        "8045": 186,
        "8046": 78,
        "8047": 143,
        "8048": 70,
        "8049": 232,
        "8050": 246,
        "8051": 227,
        "8052": 143,
        "8053": 57,
        "8054": 212,
        "8055": 228,
        "8056": 67,
        "8057": 216,
        "8058": 173,
        "8059": 236,
        "8060": 90,
        "8061": 51,
        "8062": 11,
        "8063": 29,
        "8064": 112,
        "8065": 105,
        "8066": 74,
        "8067": 170,
        "8068": 85,
        "8069": 120,
        "8070": 91,
        "8071": 141,
        "8072": 133,
        "8073": 70,
        "8074": 231,
        "8075": 91,
        "8076": 206,
        "8077": 100,
        "8078": 231,
        "8079": 92,
        "8080": 107,
        "8081": 35,
        "8082": 1,
        "8083": 134,
        "8084": 198,
        "8085": 205,
        "8086": 126,
        "8087": 6,
        "8088": 76,
        "8089": 108,
        "8090": 51,
        "8091": 136,
        "8092": 216,
        "8093": 36,
        "8094": 66,
        "8095": 253,
        "8096": 40,
        "8097": 0,
        "8098": 175,
        "8099": 10,
        "8100": 214,
        "8101": 162,
        "8102": 239,
        "8103": 147,
        "8104": 254,
        "8105": 130,
        "8106": 90,
        "8107": 126,
        "8108": 253,
        "8109": 154,
        "8110": 155,
        "8111": 130,
        "8112": 197,
        "8113": 193,
        "8114": 120,
        "8115": 40,
        "8116": 244,
        "8117": 139,
        "8118": 172,
        "8119": 31,
        "8120": 139,
        "8121": 231,
        "8122": 92,
        "8123": 174,
        "8124": 193,
        "8125": 192,
        "8126": 92,
        "8127": 11,
        "8128": 59,
        "8129": 63,
        "8130": 107,
        "8131": 175,
        "8132": 159,
        "8133": 119,
        "8134": 196,
        "8135": 89,
        "8136": 154,
        "8137": 163,
        "8138": 121,
        "8139": 243,
        "8140": 217,
        "8141": 161,
        "8142": 52,
        "8143": 182,
        "8144": 187,
        "8145": 129,
        "8146": 73,
        "8147": 156,
        "8148": 206,
        "8149": 130,
        "8150": 170,
        "8151": 240,
        "8152": 240,
        "8153": 9,
        "8154": 61,
        "8155": 193,
        "8156": 14,
        "8157": 162,
        "8158": 74,
        "8159": 96,
        "8160": 244,
        "8161": 100,
        "8162": 176,
        "8163": 93,
        "8164": 154,
        "8165": 239,
        "8166": 162,
        "8167": 224,
        "8168": 139,
        "8169": 170,
        "8170": 53,
        "8171": 56,
        "8172": 208,
        "8173": 145,
        "8174": 71,
        "8175": 226,
        "8176": 8,
        "8177": 164,
        "8178": 184,
        "8179": 113,
        "8180": 146,
        "8181": 206,
        "8182": 100,
        "8183": 242,
        "8184": 158,
        "8185": 78,
        "8186": 132,
        "8187": 206,
        "8188": 14,
        "8189": 252,
        "8190": 51,
        "8191": 175,
        "8192": 237,
        "8193": 211,
        "8194": 132,
        "8195": 254,
        "8196": 114,
        "8197": 22,
        "8198": 48,
        "8199": 84,
        "8200": 30,
        "8201": 236,
        "8202": 240,
        "8203": 124,
        "8204": 61,
        "8205": 35,
        "8206": 162,
        "8207": 235,
        "8208": 78,
        "8209": 17,
        "8210": 67,
        "8211": 28,
        "8212": 96,
        "8213": 44,
        "8214": 50,
        "8215": 215,
        "8216": 11,
        "8217": 239,
        "8218": 100,
        "8219": 117,
        "8220": 139,
        "8221": 212,
        "8222": 213,
        "8223": 111,
        "8224": 234,
        "8225": 36,
        "8226": 143,
        "8227": 48,
        "8228": 80,
        "8229": 131,
        "8230": 214,
        "8231": 241,
        "8232": 21,
        "8233": 223,
        "8234": 157,
        "8235": 121,
        "8236": 227,
        "8237": 35,
        "8238": 213,
        "8239": 245,
        "8240": 202,
        "8241": 66,
        "8242": 199,
        "8243": 32,
        "8244": 217,
        "8245": 61,
        "8246": 31,
        "8247": 129,
        "8248": 243,
        "8249": 46,
        "8250": 233,
        "8251": 88,
        "8252": 106,
        "8253": 226,
        "8254": 64,
        "8255": 134,
        "8256": 118,
        "8257": 233,
        "8258": 110,
        "8259": 35,
        "8260": 111,
        "8261": 42,
        "8262": 134,
        "8263": 227,
        "8264": 100,
        "8265": 26,
        "8266": 45,
        "8267": 144,
        "8268": 32,
        "8269": 62,
        "8270": 29,
        "8271": 85,
        "8272": 63,
        "8273": 165,
        "8274": 139,
        "8275": 15,
        "8276": 163,
        "8277": 172,
        "8278": 223,
        "8279": 23,
        "8280": 194,
        "8281": 116,
        "8282": 242,
        "8283": 97,
        "8284": 71,
        "8285": 204,
        "8286": 223,
        "8287": 57,
        "8288": 48,
        "8289": 93,
        "8290": 32,
        "8291": 156,
        "8292": 193,
        "8293": 216,
        "8294": 6,
        "8295": 101,
        "8296": 135,
        "8297": 230,
        "8298": 176,
        "8299": 252,
        "8300": 206,
        "8301": 98,
        "8302": 117,
        "8303": 174,
        "8304": 171,
        "8305": 224,
        "8306": 96,
        "8307": 67,
        "8308": 205,
        "8309": 84,
        "8310": 136,
        "8311": 158,
        "8312": 7,
        "8313": 20,
        "8314": 254,
        "8315": 220,
        "8316": 196,
        "8317": 203,
        "8318": 111,
        "8319": 248,
        "8320": 241,
        "8321": 48,
        "8322": 33,
        "8323": 75,
        "8324": 200,
        "8325": 63,
        "8326": 82,
        "8327": 33,
        "8328": 230,
        "8329": 168,
        "8330": 225,
        "8331": 121,
        "8332": 136,
        "8333": 239,
        "8334": 20,
        "8335": 49,
        "8336": 92,
        "8337": 124,
        "8338": 244,
        "8339": 134,
        "8340": 6,
        "8341": 46,
        "8342": 123,
        "8343": 236,
        "8344": 30,
        "8345": 180,
        "8346": 224,
        "8347": 43,
        "8348": 9,
        "8349": 237,
        "8350": 63,
        "8351": 106,
        "8352": 110,
        "8353": 125,
        "8354": 254,
        "8355": 100,
        "8356": 57,
        "8357": 227,
        "8358": 61,
        "8359": 211,
        "8360": 62,
        "8361": 43,
        "8362": 182,
        "8363": 78,
        "8364": 58,
        "8365": 14,
        "8366": 251,
        "8367": 99,
        "8368": 52,
        "8369": 35,
        "8370": 123,
        "8371": 114,
        "8372": 234,
        "8373": 18,
        "8374": 244,
        "8375": 182,
        "8376": 136,
        "8377": 19,
        "8378": 219,
        "8379": 153,
        "8380": 180,
        "8381": 52,
        "8382": 213,
        "8383": 228,
        "8384": 208,
        "8385": 142,
        "8386": 216,
        "8387": 64,
        "8388": 33,
        "8389": 118,
        "8390": 121,
        "8391": 204,
        "8392": 62,
        "8393": 133,
        "8394": 175,
        "8395": 139,
        "8396": 65,
        "8397": 222,
        "8398": 251,
        "8399": 239,
        "8400": 217,
        "8401": 143,
        "8402": 109,
        "8403": 188,
        "8404": 208,
        "8405": 80,
        "8406": 104,
        "8407": 172,
        "8408": 100,
        "8409": 144,
        "8410": 3,
        "8411": 15,
        "8412": 79,
        "8413": 231,
        "8414": 116,
        "8415": 171,
        "8416": 87,
        "8417": 31,
        "8418": 231,
        "8419": 239,
        "8420": 134,
        "8421": 24,
        "8422": 137,
        "8423": 51,
        "8424": 36,
        "8425": 154,
        "8426": 180,
        "8427": 190,
        "8428": 162,
        "8429": 233,
        "8430": 250,
        "8431": 104,
        "8432": 133,
        "8433": 46,
        "8434": 149,
        "8435": 122,
        "8436": 115,
        "8437": 182,
        "8438": 188,
        "8439": 208,
        "8440": 119,
        "8441": 162,
        "8442": 61,
        "8443": 93,
        "8444": 150,
        "8445": 211,
        "8446": 10,
        "8447": 21,
        "8448": 61,
        "8449": 143,
        "8450": 149,
        "8451": 0,
        "8452": 111,
        "8453": 138,
        "8454": 119,
        "8455": 155,
        "8456": 25,
        "8457": 49,
        "8458": 77,
        "8459": 39,
        "8460": 80,
        "8461": 169,
        "8462": 156,
        "8463": 172,
        "8464": 39,
        "8465": 216,
        "8466": 135,
        "8467": 133,
        "8468": 55,
        "8469": 222,
        "8470": 140,
        "8471": 10,
        "8472": 217,
        "8473": 115,
        "8474": 183,
        "8475": 51,
        "8476": 179,
        "8477": 23,
        "8478": 136,
        "8479": 174,
        "8480": 14,
        "8481": 35,
        "8482": 7,
        "8483": 103,
        "8484": 101,
        "8485": 197,
        "8486": 164,
        "8487": 117,
        "8488": 23,
        "8489": 59,
        "8490": 157,
        "8491": 222,
        "8492": 116,
        "8493": 26,
        "8494": 22,
        "8495": 92,
        "8496": 104,
        "8497": 212,
        "8498": 167,
        "8499": 207,
        "8500": 119,
        "8501": 48,
        "8502": 170,
        "8503": 78,
        "8504": 44,
        "8505": 104,
        "8506": 133,
        "8507": 170,
        "8508": 142,
        "8509": 61,
        "8510": 238,
        "8511": 224,
        "8512": 246,
        "8513": 198,
        "8514": 3,
        "8515": 25,
        "8516": 26,
        "8517": 120,
        "8518": 42,
        "8519": 121,
        "8520": 99,
        "8521": 245,
        "8522": 174,
        "8523": 230,
        "8524": 29,
        "8525": 5,
        "8526": 207,
        "8527": 13,
        "8528": 179,
        "8529": 128,
        "8530": 1,
        "8531": 100,
        "8532": 252,
        "8533": 247,
        "8534": 13,
        "8535": 63,
        "8536": 231,
        "8537": 246,
        "8538": 10,
        "8539": 104,
        "8540": 132,
        "8541": 9,
        "8542": 64,
        "8543": 36,
        "8544": 239,
        "8545": 230,
        "8546": 206,
        "8547": 144,
        "8548": 218,
        "8549": 176,
        "8550": 129,
        "8551": 235,
        "8552": 83,
        "8553": 231,
        "8554": 224,
        "8555": 106,
        "8556": 189,
        "8557": 203,
        "8558": 7,
        "8559": 214,
        "8560": 106,
        "8561": 162,
        "8562": 90,
        "8563": 236,
        "8564": 200,
        "8565": 117,
        "8566": 141,
        "8567": 122,
        "8568": 26,
        "8569": 23,
        "8570": 27,
        "8571": 247,
        "8572": 229,
        "8573": 211,
        "8574": 2,
        "8575": 41,
        "8576": 148,
        "8577": 8,
        "8578": 40,
        "8579": 124,
        "8580": 45,
        "8581": 92,
        "8582": 169,
        "8583": 167,
        "8584": 20,
        "8585": 127,
        "8586": 5,
        "8587": 166,
        "8588": 240,
        "8589": 206,
        "8590": 3,
        "8591": 166,
        "8592": 229,
        "8593": 7,
        "8594": 28,
        "8595": 32,
        "8596": 214,
        "8597": 200,
        "8598": 194,
        "8599": 166,
        "8600": 67,
        "8601": 4,
        "8602": 184,
        "8603": 202,
        "8604": 105,
        "8605": 48,
        "8606": 124,
        "8607": 220,
        "8608": 124,
        "8609": 160,
        "8610": 42,
        "8611": 112,
        "8612": 197,
        "8613": 202,
        "8614": 17,
        "8615": 138,
        "8616": 87,
        "8617": 230,
        "8618": 16,
        "8619": 78,
        "8620": 74,
        "8621": 130,
        "8622": 167,
        "8623": 81,
        "8624": 140,
        "8625": 223,
        "8626": 177,
        "8627": 148,
        "8628": 48,
        "8629": 17,
        "8630": 106,
        "8631": 35,
        "8632": 30,
        "8633": 31,
        "8634": 88,
        "8635": 223,
        "8636": 149,
        "8637": 227,
        "8638": 246,
        "8639": 149,
        "8640": 166,
        "8641": 234,
        "8642": 174,
        "8643": 229,
        "8644": 222,
        "8645": 151,
        "8646": 169,
        "8647": 134,
        "8648": 195,
        "8649": 125,
        "8650": 245,
        "8651": 49,
        "8652": 2,
        "8653": 38,
        "8654": 51,
        "8655": 52,
        "8656": 164,
        "8657": 233,
        "8658": 61,
        "8659": 216,
        "8660": 214,
        "8661": 167,
        "8662": 228,
        "8663": 126,
        "8664": 104,
        "8665": 101,
        "8666": 41,
        "8667": 158,
        "8668": 65,
        "8669": 153,
        "8670": 91,
        "8671": 92,
        "8672": 66,
        "8673": 98,
        "8674": 185,
        "8675": 61,
        "8676": 157,
        "8677": 193,
        "8678": 224,
        "8679": 199,
        "8680": 62,
        "8681": 253,
        "8682": 173,
        "8683": 231,
        "8684": 84,
        "8685": 52,
        "8686": 177,
        "8687": 27,
        "8688": 109,
        "8689": 6,
        "8690": 178,
        "8691": 128,
        "8692": 222,
        "8693": 174,
        "8694": 252,
        "8695": 43,
        "8696": 42,
        "8697": 214,
        "8698": 202,
        "8699": 228,
        "8700": 74,
        "8701": 201,
        "8702": 15,
        "8703": 232,
        "8704": 171,
        "8705": 177,
        "8706": 97,
        "8707": 238,
        "8708": 125,
        "8709": 58,
        "8710": 136,
        "8711": 46,
        "8712": 64,
        "8713": 33,
        "8714": 135,
        "8715": 199,
        "8716": 25,
        "8717": 110,
        "8718": 174,
        "8719": 150,
        "8720": 86,
        "8721": 55,
        "8722": 50,
        "8723": 209,
        "8724": 61,
        "8725": 56,
        "8726": 167,
        "8727": 193,
        "8728": 17,
        "8729": 5,
        "8730": 184,
        "8731": 113,
        "8732": 214,
        "8733": 233,
        "8734": 163,
        "8735": 214,
        "8736": 222,
        "8737": 130,
        "8738": 32,
        "8739": 0,
        "8740": 37,
        "8741": 206,
        "8742": 96,
        "8743": 42,
        "8744": 70,
        "8745": 42,
        "8746": 79,
        "8747": 92,
        "8748": 250,
        "8749": 151,
        "8750": 224,
        "8751": 139,
        "8752": 101,
        "8753": 98,
        "8754": 4,
        "8755": 157,
        "8756": 191,
        "8757": 1,
        "8758": 208,
        "8759": 159,
        "8760": 122,
        "8761": 146,
        "8762": 172,
        "8763": 234,
        "8764": 53,
        "8765": 73,
        "8766": 20,
        "8767": 148,
        "8768": 196,
        "8769": 32,
        "8770": 14,
        "8771": 25,
        "8772": 70,
        "8773": 242,
        "8774": 9,
        "8775": 22,
        "8776": 49,
        "8777": 219,
        "8778": 158,
        "8779": 124,
        "8780": 137,
        "8781": 177,
        "8782": 26,
        "8783": 183,
        "8784": 37,
        "8785": 210,
        "8786": 223,
        "8787": 228,
        "8788": 39,
        "8789": 157,
        "8790": 231,
        "8791": 224,
        "8792": 147,
        "8793": 246,
        "8794": 153,
        "8795": 0,
        "8796": 99,
        "8797": 235,
        "8798": 97,
        "8799": 60,
        "8800": 175,
        "8801": 215,
        "8802": 220,
        "8803": 29,
        "8804": 239,
        "8805": 42,
        "8806": 92,
        "8807": 248,
        "8808": 254,
        "8809": 126,
        "8810": 241,
        "8811": 248,
        "8812": 14,
        "8813": 251,
        "8814": 37,
        "8815": 193,
        "8816": 132,
        "8817": 85,
        "8818": 57,
        "8819": 165,
        "8820": 41,
        "8821": 56,
        "8822": 7,
        "8823": 86,
        "8824": 69,
        "8825": 224,
        "8826": 7,
        "8827": 19,
        "8828": 223,
        "8829": 213,
        "8830": 65,
        "8831": 27,
        "8832": 36,
        "8833": 70,
        "8834": 140,
        "8835": 109,
        "8836": 107,
        "8837": 91,
        "8838": 200,
        "8839": 19,
        "8840": 136,
        "8841": 20,
        "8842": 244,
        "8843": 36,
        "8844": 231,
        "8845": 99,
        "8846": 48,
        "8847": 255,
        "8848": 138,
        "8849": 174,
        "8850": 180,
        "8851": 13,
        "8852": 135,
        "8853": 15,
        "8854": 214,
        "8855": 41,
        "8856": 70,
        "8857": 179,
        "8858": 75,
        "8859": 66,
        "8860": 179,
        "8861": 114,
        "8862": 226,
        "8863": 233,
        "8864": 239,
        "8865": 189,
        "8866": 101,
        "8867": 254,
        "8868": 42,
        "8869": 180,
        "8870": 81,
        "8871": 101,
        "8872": 59,
        "8873": 127,
        "8874": 186,
        "8875": 83,
        "8876": 53,
        "8877": 222,
        "8878": 186,
        "8879": 215,
        "8880": 42,
        "8881": 19,
        "8882": 106,
        "8883": 160,
        "8884": 227,
        "8885": 180,
        "8886": 232,
        "8887": 80,
        "8888": 215,
        "8889": 237,
        "8890": 22,
        "8891": 23,
        "8892": 238,
        "8893": 227,
        "8894": 152,
        "8895": 152,
        "8896": 133,
        "8897": 250,
        "8898": 78,
        "8899": 50,
        "8900": 117,
        "8901": 126,
        "8902": 105,
        "8903": 88,
        "8904": 33,
        "8905": 221,
        "8906": 115,
        "8907": 27,
        "8908": 204,
        "8909": 9,
        "8910": 218,
        "8911": 84,
        "8912": 71,
        "8913": 167,
        "8914": 3,
        "8915": 88,
        "8916": 100,
        "8917": 154,
        "8918": 68,
        "8919": 231,
        "8920": 202,
        "8921": 152,
        "8922": 56,
        "8923": 166,
        "8924": 55,
        "8925": 227,
        "8926": 85,
        "8927": 246,
        "8928": 45,
        "8929": 208,
        "8930": 36,
        "8931": 88,
        "8932": 94,
        "8933": 148,
        "8934": 210,
        "8935": 29,
        "8936": 62,
        "8937": 57,
        "8938": 120,
        "8939": 103,
        "8940": 152,
        "8941": 171,
        "8942": 91,
        "8943": 67,
        "8944": 113,
        "8945": 244,
        "8946": 71,
        "8947": 10,
        "8948": 195,
        "8949": 176,
        "8950": 24,
        "8951": 193,
        "8952": 53,
        "8953": 221,
        "8954": 86,
        "8955": 53,
        "8956": 78,
        "8957": 93,
        "8958": 137,
        "8959": 62,
        "8960": 128,
        "8961": 249,
        "8962": 28,
        "8963": 27,
        "8964": 194,
        "8965": 220,
        "8966": 211,
        "8967": 33,
        "8968": 134,
        "8969": 243,
        "8970": 220,
        "8971": 179,
        "8972": 128,
        "8973": 71,
        "8974": 170,
        "8975": 143,
        "8976": 50,
        "8977": 247,
        "8978": 181,
        "8979": 213,
        "8980": 67,
        "8981": 96,
        "8982": 107,
        "8983": 13,
        "8984": 139,
        "8985": 183,
        "8986": 173,
        "8987": 197,
        "8988": 126,
        "8989": 34,
        "8990": 225,
        "8991": 206,
        "8992": 196,
        "8993": 77,
        "8994": 162,
        "8995": 189,
        "8996": 59,
        "8997": 23,
        "8998": 185,
        "8999": 21,
        "9000": 24,
        "9001": 120,
        "9002": 249,
        "9003": 68,
        "9004": 101,
        "9005": 87,
        "9006": 43,
        "9007": 211,
        "9008": 13,
        "9009": 152,
        "9010": 241,
        "9011": 148,
        "9012": 158,
        "9013": 13,
        "9014": 3,
        "9015": 242,
        "9016": 47,
        "9017": 245,
        "9018": 139,
        "9019": 211,
        "9020": 48,
        "9021": 46,
        "9022": 147,
        "9023": 208,
        "9024": 178,
        "9025": 247,
        "9026": 131,
        "9027": 110,
        "9028": 165,
        "9029": 72,
        "9030": 236,
        "9031": 94,
        "9032": 188,
        "9033": 134,
        "9034": 158,
        "9035": 29,
        "9036": 82,
        "9037": 244,
        "9038": 55,
        "9039": 255,
        "9040": 23,
        "9041": 221,
        "9042": 241,
        "9043": 168,
        "9044": 27,
        "9045": 203,
        "9046": 60,
        "9047": 215,
        "9048": 184,
        "9049": 150,
        "9050": 178,
        "9051": 101,
        "9052": 152,
        "9053": 18,
        "9054": 182,
        "9055": 19,
        "9056": 152,
        "9057": 156,
        "9058": 204,
        "9059": 249,
        "9060": 2,
        "9061": 230,
        "9062": 177,
        "9063": 58,
        "9064": 90,
        "9065": 74,
        "9066": 159,
        "9067": 182,
        "9068": 84,
        "9069": 49,
        "9070": 0,
        "9071": 134,
        "9072": 198,
        "9073": 49,
        "9074": 249,
        "9075": 75,
        "9076": 150,
        "9077": 235,
        "9078": 198,
        "9079": 130,
        "9080": 249,
        "9081": 21,
        "9082": 47,
        "9083": 239,
        "9084": 75,
        "9085": 50,
        "9086": 14,
        "9087": 102,
        "9088": 187,
        "9089": 191,
        "9090": 210,
        "9091": 187,
        "9092": 216,
        "9093": 63,
        "9094": 128,
        "9095": 182,
        "9096": 183,
        "9097": 118,
        "9098": 145,
        "9099": 121,
        "9100": 55,
        "9101": 91,
        "9102": 14,
        "9103": 242,
        "9104": 179,
        "9105": 31,
        "9106": 58,
        "9107": 226,
        "9108": 182,
        "9109": 251,
        "9110": 227,
        "9111": 17,
        "9112": 184,
        "9113": 130,
        "9114": 31,
        "9115": 182,
        "9116": 7,
        "9117": 96,
        "9118": 23,
        "9119": 48,
        "9120": 96,
        "9121": 245,
        "9122": 239,
        "9123": 24,
        "9124": 223,
        "9125": 101,
        "9126": 224,
        "9127": 88,
        "9128": 85,
        "9129": 161,
        "9130": 184,
        "9131": 176,
        "9132": 222,
        "9133": 199,
        "9134": 113,
        "9135": 165,
        "9136": 254,
        "9137": 200,
        "9138": 152,
        "9139": 178,
        "9140": 48,
        "9141": 201,
        "9142": 201,
        "9143": 172,
        "9144": 231,
        "9145": 26,
        "9146": 171,
        "9147": 176,
        "9148": 191,
        "9149": 90,
        "9150": 136,
        "9151": 136,
        "9152": 37,
        "9153": 50,
        "9154": 123,
        "9155": 107,
        "9156": 6,
        "9157": 71,
        "9158": 88,
        "9159": 9,
        "9160": 111,
        "9161": 21,
        "9162": 161,
        "9163": 29,
        "9164": 63,
        "9165": 213,
        "9166": 6,
        "9167": 177,
        "9168": 15,
        "9169": 94,
        "9170": 32,
        "9171": 184,
        "9172": 171,
        "9173": 42,
        "9174": 105,
        "9175": 176,
        "9176": 233,
        "9177": 104,
        "9178": 178,
        "9179": 209,
        "9180": 2,
        "9181": 253,
        "9182": 26,
        "9183": 221,
        "9184": 98,
        "9185": 130,
        "9186": 139,
        "9187": 133,
        "9188": 94,
        "9189": 240,
        "9190": 39,
        "9191": 112,
        "9192": 80,
        "9193": 200,
        "9194": 186,
        "9195": 153,
        "9196": 208,
        "9197": 201,
        "9198": 206,
        "9199": 65,
        "9200": 147,
        "9201": 237,
        "9202": 101,
        "9203": 34,
        "9204": 87,
        "9205": 229,
        "9206": 246,
        "9207": 187,
        "9208": 8,
        "9209": 51,
        "9210": 178,
        "9211": 79,
        "9212": 206,
        "9213": 152,
        "9214": 128,
        "9215": 111,
        "9216": 230,
        "9217": 50,
        "9218": 170,
        "9219": 25,
        "9220": 179,
        "9221": 254,
        "9222": 101,
        "9223": 189,
        "9224": 34,
        "9225": 24,
        "9226": 166,
        "9227": 115,
        "9228": 110,
        "9229": 32,
        "9230": 24,
        "9231": 5,
        "9232": 84,
        "9233": 94,
        "9234": 114,
        "9235": 17,
        "9236": 124,
        "9237": 55,
        "9238": 168,
        "9239": 222,
        "9240": 232,
        "9241": 193,
        "9242": 191,
        "9243": 93,
        "9244": 216,
        "9245": 255,
        "9246": 181,
        "9247": 78,
        "9248": 163,
        "9249": 169,
        "9250": 126,
        "9251": 30,
        "9252": 137,
        "9253": 254,
        "9254": 103,
        "9255": 106,
        "9256": 106,
        "9257": 0,
        "9258": 172,
        "9259": 203,
        "9260": 30,
        "9261": 185,
        "9262": 238,
        "9263": 234,
        "9264": 16,
        "9265": 237,
        "9266": 159,
        "9267": 180,
        "9268": 108,
        "9269": 197,
        "9270": 210,
        "9271": 6,
        "9272": 32,
        "9273": 88,
        "9274": 252,
        "9275": 93,
        "9276": 246,
        "9277": 210,
        "9278": 229,
        "9279": 154,
        "9280": 98,
        "9281": 140,
        "9282": 158,
        "9283": 39,
        "9284": 87,
        "9285": 87,
        "9286": 66,
        "9287": 194,
        "9288": 193,
        "9289": 128,
        "9290": 247,
        "9291": 148,
        "9292": 54,
        "9293": 243,
        "9294": 79,
        "9295": 73,
        "9296": 3,
        "9297": 96,
        "9298": 156,
        "9299": 184,
        "9300": 39,
        "9301": 83,
        "9302": 176,
        "9303": 108,
        "9304": 245,
        "9305": 41,
        "9306": 200,
        "9307": 252,
        "9308": 170,
        "9309": 134,
        "9310": 138,
        "9311": 63,
        "9312": 178,
        "9313": 93,
        "9314": 58,
        "9315": 110,
        "9316": 16,
        "9317": 184,
        "9318": 150,
        "9319": 70,
        "9320": 81,
        "9321": 203,
        "9322": 198,
        "9323": 14,
        "9324": 126,
        "9325": 60,
        "9326": 142,
        "9327": 39,
        "9328": 99,
        "9329": 233,
        "9330": 102,
        "9331": 95,
        "9332": 135,
        "9333": 104,
        "9334": 248,
        "9335": 177,
        "9336": 1,
        "9337": 194,
        "9338": 155,
        "9339": 54,
        "9340": 44,
        "9341": 178,
        "9342": 181,
        "9343": 253,
        "9344": 119,
        "9345": 173,
        "9346": 55,
        "9347": 223,
        "9348": 26,
        "9349": 45,
        "9350": 73,
        "9351": 65,
        "9352": 83,
        "9353": 226,
        "9354": 216,
        "9355": 192,
        "9356": 106,
        "9357": 119,
        "9358": 31,
        "9359": 200,
        "9360": 199,
        "9361": 43,
        "9362": 217,
        "9363": 76,
        "9364": 81,
        "9365": 100,
        "9366": 151,
        "9367": 170,
        "9368": 55,
        "9369": 76,
        "9370": 161,
        "9371": 216,
        "9372": 32,
        "9373": 56,
        "9374": 54,
        "9375": 23,
        "9376": 239,
        "9377": 23,
        "9378": 157,
        "9379": 97,
        "9380": 219,
        "9381": 76,
        "9382": 183,
        "9383": 153,
        "9384": 222,
        "9385": 50,
        "9386": 132,
        "9387": 26,
        "9388": 135,
        "9389": 225,
        "9390": 199,
        "9391": 94,
        "9392": 21,
        "9393": 140,
        "9394": 164,
        "9395": 64,
        "9396": 57,
        "9397": 26,
        "9398": 125,
        "9399": 255,
        "9400": 135,
        "9401": 177,
        "9402": 102,
        "9403": 40,
        "9404": 126,
        "9405": 138,
        "9406": 125,
        "9407": 5,
        "9408": 137,
        "9409": 75,
        "9410": 52,
        "9411": 0,
        "9412": 205,
        "9413": 45,
        "9414": 247,
        "9415": 235,
        "9416": 229,
        "9417": 169,
        "9418": 237,
        "9419": 150,
        "9420": 23,
        "9421": 34,
        "9422": 83,
        "9423": 227,
        "9424": 147,
        "9425": 152,
        "9426": 224,
        "9427": 254,
        "9428": 149,
        "9429": 137,
        "9430": 16,
        "9431": 104,
        "9432": 30,
        "9433": 11,
        "9434": 56,
        "9435": 56,
        "9436": 106,
        "9437": 65,
        "9438": 237,
        "9439": 53,
        "9440": 158,
        "9441": 121,
        "9442": 229,
        "9443": 185,
        "9444": 56,
        "9445": 49,
        "9446": 59,
        "9447": 91,
        "9448": 11,
        "9449": 123,
        "9450": 113,
        "9451": 108,
        "9452": 78,
        "9453": 184,
        "9454": 183,
        "9455": 197,
        "9456": 108,
        "9457": 213,
        "9458": 27,
        "9459": 19,
        "9460": 106,
        "9461": 16,
        "9462": 65,
        "9463": 46,
        "9464": 114,
        "9465": 217,
        "9466": 68,
        "9467": 105,
        "9468": 130,
        "9469": 22,
        "9470": 224,
        "9471": 59,
        "9472": 171,
        "9473": 168,
        "9474": 216,
        "9475": 230,
        "9476": 189,
        "9477": 116,
        "9478": 60,
        "9479": 154,
        "9480": 195,
        "9481": 70,
        "9482": 182,
        "9483": 34,
        "9484": 27,
        "9485": 153,
        "9486": 67,
        "9487": 241,
        "9488": 255,
        "9489": 132,
        "9490": 229,
        "9491": 164,
        "9492": 236,
        "9493": 165,
        "9494": 223,
        "9495": 224,
        "9496": 3,
        "9497": 178,
        "9498": 22,
        "9499": 182,
        "9500": 130,
        "9501": 127,
        "9502": 51,
        "9503": 30,
        "9504": 36,
        "9505": 164,
        "9506": 47,
        "9507": 4,
        "9508": 69,
        "9509": 83,
        "9510": 25,
        "9511": 63,
        "9512": 182,
        "9513": 1,
        "9514": 172,
        "9515": 121,
        "9516": 137,
        "9517": 218,
        "9518": 184,
        "9519": 117,
        "9520": 201,
        "9521": 71,
        "9522": 167,
        "9523": 31,
        "9524": 165,
        "9525": 224,
        "9526": 242,
        "9527": 71,
        "9528": 208,
        "9529": 5,
        "9530": 239,
        "9531": 160,
        "9532": 108,
        "9533": 93,
        "9534": 192,
        "9535": 7,
        "9536": 248,
        "9537": 46,
        "9538": 229,
        "9539": 99,
        "9540": 100,
        "9541": 93,
        "9542": 30,
        "9543": 229,
        "9544": 139,
        "9545": 117,
        "9546": 193,
        "9547": 128,
        "9548": 244,
        "9549": 158,
        "9550": 40,
        "9551": 252,
        "9552": 15,
        "9553": 125,
        "9554": 252,
        "9555": 59,
        "9556": 0,
        "9557": 106,
        "9558": 87,
        "9559": 190,
        "9560": 109,
        "9561": 94,
        "9562": 205,
        "9563": 237,
        "9564": 7,
        "9565": 206,
        "9566": 158,
        "9567": 165,
        "9568": 166,
        "9569": 187,
        "9570": 220,
        "9571": 3,
        "9572": 107,
        "9573": 93,
        "9574": 98,
        "9575": 134,
        "9576": 106,
        "9577": 177,
        "9578": 14,
        "9579": 182,
        "9580": 48,
        "9581": 1,
        "9582": 22,
        "9583": 108,
        "9584": 166,
        "9585": 125,
        "9586": 148,
        "9587": 230,
        "9588": 233,
        "9589": 196,
        "9590": 191,
        "9591": 76,
        "9592": 94,
        "9593": 163,
        "9594": 167,
        "9595": 52,
        "9596": 79,
        "9597": 252,
        "9598": 183,
        "9599": 218,
        "9600": 75,
        "9601": 121,
        "9602": 246,
        "9603": 92,
        "9604": 100,
        "9605": 78,
        "9606": 179,
        "9607": 200,
        "9608": 49,
        "9609": 33,
        "9610": 74,
        "9611": 82,
        "9612": 212,
        "9613": 24,
        "9614": 9,
        "9615": 129,
        "9616": 11,
        "9617": 212,
        "9618": 211,
        "9619": 239,
        "9620": 146,
        "9621": 200,
        "9622": 22,
        "9623": 94,
        "9624": 211,
        "9625": 174,
        "9626": 167,
        "9627": 124,
        "9628": 246,
        "9629": 149,
        "9630": 29,
        "9631": 73,
        "9632": 104,
        "9633": 130,
        "9634": 199,
        "9635": 237,
        "9636": 250,
        "9637": 0,
        "9638": 201,
        "9639": 38,
        "9640": 192,
        "9641": 250,
        "9642": 28,
        "9643": 140,
        "9644": 153,
        "9645": 145,
        "9646": 242,
        "9647": 251,
        "9648": 133,
        "9649": 255,
        "9650": 155,
        "9651": 44,
        "9652": 210,
        "9653": 61,
        "9654": 21,
        "9655": 59,
        "9656": 226,
        "9657": 253,
        "9658": 176,
        "9659": 239,
        "9660": 225,
        "9661": 142,
        "9662": 37,
        "9663": 137,
        "9664": 25,
        "9665": 147,
        "9666": 160,
        "9667": 76,
        "9668": 52,
        "9669": 188,
        "9670": 116,
        "9671": 198,
        "9672": 203,
        "9673": 144,
        "9674": 138,
        "9675": 168,
        "9676": 122,
        "9677": 105,
        "9678": 199,
        "9679": 221,
        "9680": 25,
        "9681": 247,
        "9682": 21,
        "9683": 140,
        "9684": 239,
        "9685": 135,
        "9686": 160,
        "9687": 91,
        "9688": 144,
        "9689": 117,
        "9690": 53,
        "9691": 161,
        "9692": 247,
        "9693": 179,
        "9694": 93,
        "9695": 6,
        "9696": 23,
        "9697": 222,
        "9698": 254,
        "9699": 181,
        "9700": 157,
        "9701": 184,
        "9702": 32,
        "9703": 213,
        "9704": 55,
        "9705": 51,
        "9706": 15,
        "9707": 160,
        "9708": 238,
        "9709": 204,
        "9710": 38,
        "9711": 33,
        "9712": 223,
        "9713": 85,
        "9714": 222,
        "9715": 96,
        "9716": 188,
        "9717": 42,
        "9718": 113,
        "9719": 255,
        "9720": 136,
        "9721": 130,
        "9722": 15,
        "9723": 179,
        "9724": 67,
        "9725": 248,
        "9726": 27,
        "9727": 181,
        "9728": 242,
        "9729": 125,
        "9730": 93,
        "9731": 204,
        "9732": 29,
        "9733": 104,
        "9734": 175,
        "9735": 48,
        "9736": 106,
        "9737": 216,
        "9738": 239,
        "9739": 81,
        "9740": 46,
        "9741": 34,
        "9742": 165,
        "9743": 238,
        "9744": 75,
        "9745": 151,
        "9746": 5,
        "9747": 47,
        "9748": 172,
        "9749": 240,
        "9750": 140,
        "9751": 252,
        "9752": 243,
        "9753": 44,
        "9754": 207,
        "9755": 158,
        "9756": 176,
        "9757": 177,
        "9758": 127,
        "9759": 59,
        "9760": 65,
        "9761": 33,
        "9762": 79,
        "9763": 138,
        "9764": 96,
        "9765": 254,
        "9766": 52,
        "9767": 227,
        "9768": 18,
        "9769": 142,
        "9770": 137,
        "9771": 237,
        "9772": 72,
        "9773": 113,
        "9774": 27,
        "9775": 111,
        "9776": 214,
        "9777": 29,
        "9778": 55,
        "9779": 119,
        "9780": 146,
        "9781": 173,
        "9782": 119,
        "9783": 226,
        "9784": 161,
        "9785": 141,
        "9786": 7,
        "9787": 241,
        "9788": 116,
        "9789": 2,
        "9790": 160,
        "9791": 238,
        "9792": 213,
        "9793": 83,
        "9794": 21,
        "9795": 250,
        "9796": 233,
        "9797": 210,
        "9798": 119,
        "9799": 26,
        "9800": 93,
        "9801": 70,
        "9802": 145,
        "9803": 219,
        "9804": 137,
        "9805": 249,
        "9806": 98,
        "9807": 250,
        "9808": 61,
        "9809": 173,
        "9810": 91,
        "9811": 106,
        "9812": 72,
        "9813": 174,
        "9814": 18,
        "9815": 104,
        "9816": 165,
        "9817": 166,
        "9818": 167,
        "9819": 143,
        "9820": 237,
        "9821": 49,
        "9822": 87,
        "9823": 255,
        "9824": 64,
        "9825": 181,
        "9826": 12,
        "9827": 63,
        "9828": 184,
        "9829": 141,
        "9830": 34,
        "9831": 180,
        "9832": 20,
        "9833": 53,
        "9834": 216,
        "9835": 175,
        "9836": 53,
        "9837": 86,
        "9838": 102,
        "9839": 162,
        "9840": 121,
        "9841": 10,
        "9842": 218,
        "9843": 244,
        "9844": 128,
        "9845": 178,
        "9846": 253,
        "9847": 63,
        "9848": 54,
        "9849": 157,
        "9850": 117,
        "9851": 118,
        "9852": 178,
        "9853": 180,
        "9854": 131,
        "9855": 13,
        "9856": 59,
        "9857": 136,
        "9858": 26,
        "9859": 199,
        "9860": 20,
        "9861": 129,
        "9862": 98,
        "9863": 27,
        "9864": 53,
        "9865": 113,
        "9866": 101,
        "9867": 59,
        "9868": 177,
        "9869": 110,
        "9870": 173,
        "9871": 56,
        "9872": 197,
        "9873": 36,
        "9874": 238,
        "9875": 133,
        "9876": 86,
        "9877": 85,
        "9878": 250,
        "9879": 204,
        "9880": 158,
        "9881": 228,
        "9882": 120,
        "9883": 17,
        "9884": 73,
        "9885": 135,
        "9886": 49,
        "9887": 139,
        "9888": 171,
        "9889": 57,
        "9890": 178,
        "9891": 247,
        "9892": 13,
        "9893": 110,
        "9894": 251,
        "9895": 129,
        "9896": 25,
        "9897": 42,
        "9898": 146,
        "9899": 208,
        "9900": 8,
        "9901": 172,
        "9902": 239,
        "9903": 183,
        "9904": 60,
        "9905": 148,
        "9906": 94,
        "9907": 231,
        "9908": 73,
        "9909": 38,
        "9910": 36,
        "9911": 230,
        "9912": 184,
        "9913": 26,
        "9914": 254,
        "9915": 105,
        "9916": 74,
        "9917": 19,
        "9918": 97,
        "9919": 195,
        "9920": 159,
        "9921": 154,
        "9922": 236,
        "9923": 69,
        "9924": 96,
        "9925": 202,
        "9926": 166,
        "9927": 70,
        "9928": 210,
        "9929": 126,
        "9930": 206,
        "9931": 104,
        "9932": 163,
        "9933": 223,
        "9934": 133,
        "9935": 223,
        "9936": 213,
        "9937": 78,
        "9938": 158,
        "9939": 225,
        "9940": 233,
        "9941": 2,
        "9942": 218,
        "9943": 171,
        "9944": 250,
        "9945": 216,
        "9946": 147,
        "9947": 156,
        "9948": 31,
        "9949": 210,
        "9950": 79,
        "9951": 159,
        "9952": 187,
        "9953": 144,
        "9954": 89,
        "9955": 68,
        "9956": 189,
        "9957": 230,
        "9958": 151,
        "9959": 4,
        "9960": 148,
        "9961": 178,
        "9962": 80,
        "9963": 4,
        "9964": 99,
        "9965": 92,
        "9966": 229,
        "9967": 246,
        "9968": 68,
        "9969": 151,
        "9970": 169,
        "9971": 25,
        "9972": 83,
        "9973": 236,
        "9974": 241,
        "9975": 144,
        "9976": 94,
        "9977": 5,
        "9978": 2,
        "9979": 49,
        "9980": 223,
        "9981": 187,
        "9982": 143,
        "9983": 179,
        "9984": 170,
        "9985": 169,
        "9986": 164,
        "9987": 196,
        "9988": 246,
        "9989": 33,
        "9990": 55,
        "9991": 145,
        "9992": 5,
        "9993": 122,
        "9994": 108,
        "9995": 220,
        "9996": 142,
        "9997": 217,
        "9998": 134,
        "9999": 10,
        "10000": 200,
        "10001": 137,
        "10002": 151,
        "10003": 93,
        "10004": 170,
        "10005": 230,
        "10006": 144,
        "10007": 13,
        "10008": 153,
        "10009": 202,
        "10010": 184,
        "10011": 127,
        "10012": 82,
        "10013": 146,
        "10014": 144,
        "10015": 119,
        "10016": 165,
        "10017": 107,
        "10018": 23,
        "10019": 205,
        "10020": 93,
        "10021": 71,
        "10022": 237,
        "10023": 180,
        "10024": 3,
        "10025": 81,
        "10026": 211,
        "10027": 251,
        "10028": 66,
        "10029": 239,
        "10030": 149,
        "10031": 147,
        "10032": 73,
        "10033": 94,
        "10034": 61,
        "10035": 133,
        "10036": 190,
        "10037": 51,
        "10038": 191,
        "10039": 44,
        "10040": 207,
        "10041": 62,
        "10042": 203,
        "10043": 251,
        "10044": 69,
        "10045": 142,
        "10046": 232,
        "10047": 158,
        "10048": 215,
        "10049": 154,
        "10050": 29,
        "10051": 255,
        "10052": 85,
        "10053": 251,
        "10054": 70,
        "10055": 137,
        "10056": 246,
        "10057": 106,
        "10058": 101,
        "10059": 213,
        "10060": 68,
        "10061": 243,
        "10062": 9,
        "10063": 41,
        "10064": 141,
        "10065": 227,
        "10066": 8,
        "10067": 62,
        "10068": 237,
        "10069": 198,
        "10070": 175,
        "10071": 176,
        "10072": 40,
        "10073": 87,
        "10074": 108,
        "10075": 230,
        "10076": 146,
        "10077": 118,
        "10078": 77,
        "10079": 245,
        "10080": 248,
        "10081": 222,
        "10082": 197,
        "10083": 75,
        "10084": 37,
        "10085": 232,
        "10086": 70,
        "10087": 180,
        "10088": 46,
        "10089": 76,
        "10090": 109,
        "10091": 242,
        "10092": 61,
        "10093": 124,
        "10094": 208,
        "10095": 50,
        "10096": 29,
        "10097": 217,
        "10098": 115,
        "10099": 154,
        "10100": 219,
        "10101": 85,
        "10102": 249,
        "10103": 232,
        "10104": 30,
        "10105": 91,
        "10106": 19,
        "10107": 67,
        "10108": 196,
        "10109": 87,
        "10110": 203,
        "10111": 132,
        "10112": 234,
        "10113": 4,
        "10114": 109,
        "10115": 51,
        "10116": 95,
        "10117": 149,
        "10118": 234,
        "10119": 37,
        "10120": 155,
        "10121": 99,
        "10122": 184,
        "10123": 211,
        "10124": 136,
        "10125": 141,
        "10126": 51,
        "10127": 179,
        "10128": 113,
        "10129": 48,
        "10130": 159,
        "10131": 195,
        "10132": 124,
        "10133": 33,
        "10134": 87,
        "10135": 62,
        "10136": 137,
        "10137": 100,
        "10138": 23,
        "10139": 250,
        "10140": 88,
        "10141": 228,
        "10142": 211,
        "10143": 154,
        "10144": 99,
        "10145": 181,
        "10146": 186,
        "10147": 143,
        "10148": 107,
        "10149": 84,
        "10150": 3,
        "10151": 11,
        "10152": 72,
        "10153": 161,
        "10154": 179,
        "10155": 7,
        "10156": 29,
        "10157": 171,
        "10158": 108,
        "10159": 84,
        "10160": 232,
        "10161": 223,
        "10162": 238,
        "10163": 63,
        "10164": 191,
        "10165": 179,
        "10166": 34,
        "10167": 102,
        "10168": 81,
        "10169": 106,
        "10170": 155,
        "10171": 42,
        "10172": 161,
        "10173": 35,
        "10174": 84,
        "10175": 46,
        "10176": 199,
        "10177": 170,
        "10178": 174,
        "10179": 118,
        "10180": 24,
        "10181": 17,
        "10182": 130,
        "10183": 66,
        "10184": 123,
        "10185": 245,
        "10186": 56,
        "10187": 128,
        "10188": 21,
        "10189": 51,
        "10190": 141,
        "10191": 87,
        "10192": 187,
        "10193": 16,
        "10194": 157,
        "10195": 88,
        "10196": 146,
        "10197": 211,
        "10198": 14,
        "10199": 68,
        "10200": 186,
        "10201": 63,
        "10202": 21,
        "10203": 130,
        "10204": 22,
        "10205": 201,
        "10206": 161,
        "10207": 236,
        "10208": 237,
        "10209": 169,
        "10210": 144,
        "10211": 140,
        "10212": 202,
        "10213": 241,
        "10214": 128,
        "10215": 19,
        "10216": 118,
        "10217": 3,
        "10218": 102,
        "10219": 144,
        "10220": 102,
        "10221": 31,
        "10222": 210,
        "10223": 193,
        "10224": 40,
        "10225": 85,
        "10226": 247,
        "10227": 226,
        "10228": 163,
        "10229": 189,
        "10230": 81,
        "10231": 10,
        "10232": 2,
        "10233": 5,
        "10234": 99,
        "10235": 89,
        "10236": 58,
        "10237": 22,
        "10238": 7,
        "10239": 99,
        "10240": 236,
        "10241": 188,
        "10242": 230,
        "10243": 206,
        "10244": 76,
        "10245": 94,
        "10246": 130,
        "10247": 170,
        "10248": 95,
        "10249": 10,
        "10250": 120,
        "10251": 74,
        "10252": 20,
        "10253": 76,
        "10254": 220,
        "10255": 121,
        "10256": 218,
        "10257": 115,
        "10258": 107,
        "10259": 204,
        "10260": 240,
        "10261": 213,
        "10262": 60,
        "10263": 26,
        "10264": 104,
        "10265": 125,
        "10266": 104,
        "10267": 96,
        "10268": 8,
        "10269": 162,
        "10270": 56,
        "10271": 23,
        "10272": 207,
        "10273": 113,
        "10274": 141,
        "10275": 208,
        "10276": 180,
        "10277": 28,
        "10278": 120,
        "10279": 234,
        "10280": 70,
        "10281": 210,
        "10282": 67,
        "10283": 32,
        "10284": 80,
        "10285": 59,
        "10286": 117,
        "10287": 48,
        "10288": 22,
        "10289": 164,
        "10290": 57,
        "10291": 170,
        "10292": 92,
        "10293": 242,
        "10294": 228,
        "10295": 49,
        "10296": 64,
        "10297": 152,
        "10298": 23,
        "10299": 162,
        "10300": 249,
        "10301": 76,
        "10302": 37,
        "10303": 6,
        "10304": 100,
        "10305": 131,
        "10306": 97,
        "10307": 112,
        "10308": 22,
        "10309": 234,
        "10310": 101,
        "10311": 201,
        "10312": 245,
        "10313": 171,
        "10314": 215,
        "10315": 81,
        "10316": 234,
        "10317": 19,
        "10318": 26,
        "10319": 196,
        "10320": 88,
        "10321": 23,
        "10322": 208,
        "10323": 249,
        "10324": 117,
        "10325": 244,
        "10326": 195,
        "10327": 240,
        "10328": 147,
        "10329": 197,
        "10330": 184,
        "10331": 145,
        "10332": 249,
        "10333": 52,
        "10334": 212,
        "10335": 237,
        "10336": 130,
        "10337": 250,
        "10338": 150,
        "10339": 143,
        "10340": 95,
        "10341": 107,
        "10342": 168,
        "10343": 28,
        "10344": 12,
        "10345": 159,
        "10346": 149,
        "10347": 193,
        "10348": 230,
        "10349": 5,
        "10350": 85,
        "10351": 186,
        "10352": 168,
        "10353": 171,
        "10354": 143,
        "10355": 45,
        "10356": 140,
        "10357": 193,
        "10358": 221,
        "10359": 131,
        "10360": 171,
        "10361": 170,
        "10362": 131,
        "10363": 56,
        "10364": 185,
        "10365": 200,
        "10366": 182,
        "10367": 56,
        "10368": 68,
        "10369": 137,
        "10370": 68,
        "10371": 84,
        "10372": 133,
        "10373": 89,
        "10374": 128,
        "10375": 116,
        "10376": 182,
        "10377": 76,
        "10378": 219,
        "10379": 138,
        "10380": 5,
        "10381": 104,
        "10382": 198,
        "10383": 174,
        "10384": 238,
        "10385": 194,
        "10386": 240,
        "10387": 26,
        "10388": 30,
        "10389": 173,
        "10390": 7,
        "10391": 52,
        "10392": 152,
        "10393": 196,
        "10394": 231,
        "10395": 140,
        "10396": 155,
        "10397": 34,
        "10398": 59,
        "10399": 130,
        "10400": 110,
        "10401": 203,
        "10402": 74,
        "10403": 27,
        "10404": 19,
        "10405": 177,
        "10406": 102,
        "10407": 15,
        "10408": 173,
        "10409": 103,
        "10410": 38,
        "10411": 223,
        "10412": 7,
        "10413": 180,
        "10414": 236,
        "10415": 233,
        "10416": 235,
        "10417": 65,
        "10418": 190,
        "10419": 17,
        "10420": 204,
        "10421": 9,
        "10422": 44,
        "10423": 188,
        "10424": 128,
        "10425": 126,
        "10426": 155,
        "10427": 98,
        "10428": 175,
        "10429": 211,
        "10430": 146,
        "10431": 172,
        "10432": 60,
        "10433": 62,
        "10434": 15,
        "10435": 130,
        "10436": 94,
        "10437": 188,
        "10438": 228,
        "10439": 155,
        "10440": 27,
        "10441": 54,
        "10442": 150,
        "10443": 104,
        "10444": 228,
        "10445": 204,
        "10446": 212,
        "10447": 141,
        "10448": 209,
        "10449": 246,
        "10450": 74,
        "10451": 115,
        "10452": 250,
        "10453": 241,
        "10454": 3,
        "10455": 36,
        "10456": 171,
        "10457": 43,
        "10458": 101,
        "10459": 220,
        "10460": 98,
        "10461": 50,
        "10462": 177,
        "10463": 253,
        "10464": 194,
        "10465": 135,
        "10466": 181,
        "10467": 171,
        "10468": 133,
        "10469": 235,
        "10470": 130,
        "10471": 127,
        "10472": 189,
        "10473": 76,
        "10474": 30,
        "10475": 21,
        "10476": 254,
        "10477": 171,
        "10478": 213,
        "10479": 96,
        "10480": 189,
        "10481": 193,
        "10482": 27,
        "10483": 7,
        "10484": 18,
        "10485": 184,
        "10486": 38,
        "10487": 129,
        "10488": 144,
        "10489": 205,
        "10490": 124,
        "10491": 92,
        "10492": 77,
        "10493": 18,
        "10494": 132,
        "10495": 28,
        "10496": 92,
        "10497": 135,
        "10498": 104,
        "10499": 166,
        "10500": 7,
        "10501": 223,
        "10502": 222,
        "10503": 111,
        "10504": 196,
        "10505": 44,
        "10506": 237,
        "10507": 169,
        "10508": 43,
        "10509": 191,
        "10510": 14,
        "10511": 180,
        "10512": 48,
        "10513": 201,
        "10514": 198,
        "10515": 132,
        "10516": 175,
        "10517": 244,
        "10518": 255,
        "10519": 52,
        "10520": 224,
        "10521": 69,
        "10522": 163,
        "10523": 178,
        "10524": 143,
        "10525": 147,
        "10526": 1,
        "10527": 124,
        "10528": 48,
        "10529": 31,
        "10530": 168,
        "10531": 8,
        "10532": 196,
        "10533": 189,
        "10534": 25,
        "10535": 72,
        "10536": 90,
        "10537": 191,
        "10538": 57,
        "10539": 153,
        "10540": 201,
        "10541": 213,
        "10542": 184,
        "10543": 44,
        "10544": 75,
        "10545": 220,
        "10546": 9,
        "10547": 169,
        "10548": 63,
        "10549": 178,
        "10550": 159,
        "10551": 218,
        "10552": 174,
        "10553": 117,
        "10554": 90,
        "10555": 144,
        "10556": 102,
        "10557": 25,
        "10558": 121,
        "10559": 23,
        "10560": 196,
        "10561": 118,
        "10562": 249,
        "10563": 101,
        "10564": 55,
        "10565": 0,
        "10566": 80,
        "10567": 229,
        "10568": 153,
        "10569": 151,
        "10570": 233,
        "10571": 111,
        "10572": 52,
        "10573": 236,
        "10574": 71,
        "10575": 180,
        "10576": 161,
        "10577": 126,
        "10578": 62,
        "10579": 186,
        "10580": 85,
        "10581": 30,
        "10582": 125,
        "10583": 79,
        "10584": 106,
        "10585": 69,
        "10586": 176,
        "10587": 235,
        "10588": 149,
        "10589": 178,
        "10590": 93,
        "10591": 78,
        "10592": 113,
        "10593": 160,
        "10594": 25,
        "10595": 51,
        "10596": 131,
        "10597": 120,
        "10598": 108,
        "10599": 63,
        "10600": 108,
        "10601": 120,
        "10602": 175,
        "10603": 197,
        "10604": 6,
        "10605": 139,
        "10606": 141,
        "10607": 160,
        "10608": 86,
        "10609": 161,
        "10610": 140,
        "10611": 235,
        "10612": 214,
        "10613": 172,
        "10614": 95,
        "10615": 136,
        "10616": 122,
        "10617": 29,
        "10618": 96,
        "10619": 124,
        "10620": 183,
        "10621": 17,
        "10622": 37,
        "10623": 91,
        "10624": 19,
        "10625": 215,
        "10626": 162,
        "10627": 144,
        "10628": 94,
        "10629": 192,
        "10630": 13,
        "10631": 42,
        "10632": 97,
        "10633": 161,
        "10634": 132,
        "10635": 122,
        "10636": 32,
        "10637": 227,
        "10638": 103,
        "10639": 176,
        "10640": 82,
        "10641": 245,
        "10642": 71,
        "10643": 237,
        "10644": 26,
        "10645": 67,
        "10646": 220,
        "10647": 222,
        "10648": 95,
        "10649": 61,
        "10650": 181,
        "10651": 174,
        "10652": 99,
        "10653": 13,
        "10654": 183,
        "10655": 201,
        "10656": 70,
        "10657": 98,
        "10658": 172,
        "10659": 135,
        "10660": 22,
        "10661": 163,
        "10662": 209,
        "10663": 149,
        "10664": 16,
        "10665": 147,
        "10666": 16,
        "10667": 194,
        "10668": 90,
        "10669": 254,
        "10670": 53,
        "10671": 9,
        "10672": 204,
        "10673": 77,
        "10674": 195,
        "10675": 42,
        "10676": 24,
        "10677": 179,
        "10678": 18,
        "10679": 152,
        "10680": 61,
        "10681": 18,
        "10682": 41,
        "10683": 7,
        "10684": 205,
        "10685": 87,
        "10686": 99,
        "10687": 10,
        "10688": 224,
        "10689": 208,
        "10690": 202,
        "10691": 11,
        "10692": 124,
        "10693": 108,
        "10694": 84,
        "10695": 94,
        "10696": 178,
        "10697": 0,
        "10698": 212,
        "10699": 181,
        "10700": 4,
        "10701": 198,
        "10702": 14,
        "10703": 61,
        "10704": 59,
        "10705": 31,
        "10706": 141,
        "10707": 155,
        "10708": 126,
        "10709": 149,
        "10710": 116,
        "10711": 4,
        "10712": 23,
        "10713": 52,
        "10714": 70,
        "10715": 64,
        "10716": 216,
        "10717": 10,
        "10718": 65,
        "10719": 96,
        "10720": 101,
        "10721": 83,
        "10722": 197,
        "10723": 59,
        "10724": 89,
        "10725": 229,
        "10726": 60,
        "10727": 186,
        "10728": 17,
        "10729": 255,
        "10730": 49,
        "10731": 110,
        "10732": 221,
        "10733": 47,
        "10734": 100,
        "10735": 62,
        "10736": 224,
        "10737": 38,
        "10738": 111,
        "10739": 89,
        "10740": 162,
        "10741": 237,
        "10742": 18,
        "10743": 100,
        "10744": 124,
        "10745": 42,
        "10746": 180,
        "10747": 110,
        "10748": 159,
        "10749": 139,
        "10750": 50,
        "10751": 77,
        "10752": 110,
        "10753": 149,
        "10754": 172,
        "10755": 136,
        "10756": 194,
        "10757": 142,
        "10758": 249,
        "10759": 247,
        "10760": 73,
        "10761": 215,
        "10762": 79,
        "10763": 10,
        "10764": 104,
        "10765": 157,
        "10766": 98,
        "10767": 27,
        "10768": 26,
        "10769": 128,
        "10770": 216,
        "10771": 219,
        "10772": 167,
        "10773": 235,
        "10774": 242,
        "10775": 45,
        "10776": 185,
        "10777": 127,
        "10778": 238,
        "10779": 207,
        "10780": 92,
        "10781": 105,
        "10782": 190,
        "10783": 120,
        "10784": 254,
        "10785": 130,
        "10786": 83,
        "10787": 22,
        "10788": 148,
        "10789": 213,
        "10790": 91,
        "10791": 249,
        "10792": 179,
        "10793": 211,
        "10794": 255,
        "10795": 30,
        "10796": 82,
        "10797": 142,
        "10798": 163,
        "10799": 253,
        "10800": 116,
        "10801": 139,
        "10802": 196,
        "10803": 85,
        "10804": 175,
        "10805": 26,
        "10806": 253,
        "10807": 228,
        "10808": 78,
        "10809": 208,
        "10810": 226,
        "10811": 97,
        "10812": 160,
        "10813": 136,
        "10814": 46,
        "10815": 244,
        "10816": 122,
        "10817": 89,
        "10818": 212,
        "10819": 213,
        "10820": 248,
        "10821": 66,
        "10822": 210,
        "10823": 237,
        "10824": 41,
        "10825": 177,
        "10826": 49,
        "10827": 70,
        "10828": 142,
        "10829": 91,
        "10830": 110,
        "10831": 187,
        "10832": 132,
        "10833": 116,
        "10834": 219,
        "10835": 176,
        "10836": 132,
        "10837": 253,
        "10838": 58,
        "10839": 208,
        "10840": 134,
        "10841": 88,
        "10842": 66,
        "10843": 144,
        "10844": 121,
        "10845": 101,
        "10846": 131,
        "10847": 73,
        "10848": 204,
        "10849": 237,
        "10850": 74,
        "10851": 13,
        "10852": 173,
        "10853": 28,
        "10854": 154,
        "10855": 73,
        "10856": 99,
        "10857": 32,
        "10858": 144,
        "10859": 200,
        "10860": 0,
        "10861": 62,
        "10862": 202,
        "10863": 250,
        "10864": 29,
        "10865": 253,
        "10866": 115,
        "10867": 200,
        "10868": 136,
        "10869": 5,
        "10870": 116,
        "10871": 41,
        "10872": 43,
        "10873": 71,
        "10874": 234,
        "10875": 12,
        "10876": 203,
        "10877": 227,
        "10878": 197,
        "10879": 216,
        "10880": 134,
        "10881": 190,
        "10882": 38,
        "10883": 218,
        "10884": 63,
        "10885": 242,
        "10886": 103,
        "10887": 15,
        "10888": 188,
        "10889": 154,
        "10890": 35,
        "10891": 134,
        "10892": 52,
        "10893": 121,
        "10894": 19,
        "10895": 21,
        "10896": 238,
        "10897": 222,
        "10898": 235,
        "10899": 252,
        "10900": 6,
        "10901": 182,
        "10902": 192,
        "10903": 245,
        "10904": 221,
        "10905": 56,
        "10906": 55,
        "10907": 152,
        "10908": 67,
        "10909": 117,
        "10910": 243,
        "10911": 177,
        "10912": 36,
        "10913": 210,
        "10914": 249,
        "10915": 72,
        "10916": 3,
        "10917": 239,
        "10918": 7,
        "10919": 170,
        "10920": 255,
        "10921": 242,
        "10922": 50,
        "10923": 232,
        "10924": 167,
        "10925": 6,
        "10926": 175,
        "10927": 10,
        "10928": 12,
        "10929": 214,
        "10930": 87,
        "10931": 49,
        "10932": 5,
        "10933": 187,
        "10934": 44,
        "10935": 139,
        "10936": 146,
        "10937": 44,
        "10938": 0,
        "10939": 100,
        "10940": 216,
        "10941": 179,
        "10942": 222,
        "10943": 83,
        "10944": 153,
        "10945": 221,
        "10946": 84,
        "10947": 17,
        "10948": 201,
        "10949": 193,
        "10950": 214,
        "10951": 255,
        "10952": 106,
        "10953": 37,
        "10954": 47,
        "10955": 117,
        "10956": 79,
        "10957": 83,
        "10958": 89,
        "10959": 138,
        "10960": 209,
        "10961": 0,
        "10962": 19,
        "10963": 84,
        "10964": 119,
        "10965": 188,
        "10966": 177,
        "10967": 228,
        "10968": 166,
        "10969": 211,
        "10970": 59,
        "10971": 150,
        "10972": 233,
        "10973": 170,
        "10974": 237,
        "10975": 21,
        "10976": 134,
        "10977": 220,
        "10978": 117,
        "10979": 198,
        "10980": 66,
        "10981": 107,
        "10982": 223,
        "10983": 155,
        "10984": 21,
        "10985": 164,
        "10986": 216,
        "10987": 94,
        "10988": 202,
        "10989": 242,
        "10990": 189,
        "10991": 104,
        "10992": 192,
        "10993": 35,
        "10994": 30,
        "10995": 107,
        "10996": 58,
        "10997": 46,
        "10998": 92,
        "10999": 146,
        "11000": 66,
        "11001": 115,
        "11002": 120,
        "11003": 57,
        "11004": 175,
        "11005": 23,
        "11006": 17,
        "11007": 74,
        "11008": 209,
        "11009": 112,
        "11010": 249,
        "11011": 226,
        "11012": 143,
        "11013": 164,
        "11014": 94,
        "11015": 12,
        "11016": 23,
        "11017": 237,
        "11018": 49,
        "11019": 85,
        "11020": 199,
        "11021": 11,
        "11022": 250,
        "11023": 81,
        "11024": 147,
        "11025": 163,
        "11026": 47,
        "11027": 189,
        "11028": 8,
        "11029": 6,
        "11030": 72,
        "11031": 182,
        "11032": 231,
        "11033": 80,
        "11034": 97,
        "11035": 134,
        "11036": 58,
        "11037": 158,
        "11038": 176,
        "11039": 207,
        "11040": 37,
        "11041": 128,
        "11042": 90,
        "11043": 140,
        "11044": 226,
        "11045": 53,
        "11046": 242,
        "11047": 160,
        "11048": 11,
        "11049": 179,
        "11050": 8,
        "11051": 163,
        "11052": 65,
        "11053": 10,
        "11054": 226,
        "11055": 143,
        "11056": 179,
        "11057": 98,
        "11058": 110,
        "11059": 142,
        "11060": 207,
        "11061": 136,
        "11062": 238,
        "11063": 240,
        "11064": 44,
        "11065": 205,
        "11066": 206,
        "11067": 96,
        "11068": 232,
        "11069": 25,
        "11070": 98,
        "11071": 10,
        "11072": 171,
        "11073": 109,
        "11074": 236,
        "11075": 102,
        "11076": 252,
        "11077": 223,
        "11078": 89,
        "11079": 130,
        "11080": 244,
        "11081": 163,
        "11082": 188,
        "11083": 210,
        "11084": 167,
        "11085": 126,
        "11086": 89,
        "11087": 69,
        "11088": 113,
        "11089": 15,
        "11090": 15,
        "11091": 29,
        "11092": 78,
        "11093": 41,
        "11094": 201,
        "11095": 124,
        "11096": 165,
        "11097": 129,
        "11098": 248,
        "11099": 187,
        "11100": 137,
        "11101": 251,
        "11102": 38,
        "11103": 21,
        "11104": 137,
        "11105": 203,
        "11106": 201,
        "11107": 54,
        "11108": 101,
        "11109": 50,
        "11110": 228,
        "11111": 27,
        "11112": 157,
        "11113": 172,
        "11114": 163,
        "11115": 82,
        "11116": 237,
        "11117": 93,
        "11118": 199,
        "11119": 116,
        "11120": 232,
        "11121": 37,
        "11122": 222,
        "11123": 37,
        "11124": 90,
        "11125": 12,
        "11126": 142,
        "11127": 19,
        "11128": 49,
        "11129": 126,
        "11130": 71,
        "11131": 89,
        "11132": 248,
        "11133": 53,
        "11134": 171,
        "11135": 52,
        "11136": 91,
        "11137": 189,
        "11138": 95,
        "11139": 218,
        "11140": 208,
        "11141": 43,
        "11142": 67,
        "11143": 101,
        "11144": 37,
        "11145": 224,
        "11146": 206,
        "11147": 82,
        "11148": 49,
        "11149": 179,
        "11150": 111,
        "11151": 23,
        "11152": 134,
        "11153": 147,
        "11154": 29,
        "11155": 255,
        "11156": 166,
        "11157": 121,
        "11158": 99,
        "11159": 139,
        "11160": 134,
        "11161": 3,
        "11162": 93,
        "11163": 25,
        "11164": 187,
        "11165": 162,
        "11166": 31,
        "11167": 206,
        "11168": 208,
        "11169": 228,
        "11170": 168,
        "11171": 149,
        "11172": 254,
        "11173": 243,
        "11174": 197,
        "11175": 235,
        "11176": 41,
        "11177": 180,
        "11178": 252,
        "11179": 245,
        "11180": 131,
        "11181": 255,
        "11182": 79,
        "11183": 42,
        "11184": 202,
        "11185": 6,
        "11186": 39,
        "11187": 119,
        "11188": 37,
        "11189": 63,
        "11190": 226,
        "11191": 58,
        "11192": 12,
        "11193": 237,
        "11194": 31,
        "11195": 129,
        "11196": 119,
        "11197": 173,
        "11198": 121,
        "11199": 13,
        "11200": 162,
        "11201": 228,
        "11202": 220,
        "11203": 170,
        "11204": 52,
        "11205": 94,
        "11206": 161,
        "11207": 242,
        "11208": 110,
        "11209": 244,
        "11210": 187,
        "11211": 73,
        "11212": 24,
        "11213": 38,
        "11214": 19,
        "11215": 109,
        "11216": 225,
        "11217": 196,
        "11218": 160,
        "11219": 231,
        "11220": 118,
        "11221": 61,
        "11222": 31,
        "11223": 121,
        "11224": 7,
        "11225": 242,
        "11226": 20,
        "11227": 109,
        "11228": 250,
        "11229": 69,
        "11230": 37,
        "11231": 37,
        "11232": 225,
        "11233": 246,
        "11234": 243,
        "11235": 228,
        "11236": 222,
        "11237": 220,
        "11238": 76,
        "11239": 30,
        "11240": 223,
        "11241": 91,
        "11242": 227,
        "11243": 227,
        "11244": 91,
        "11245": 202,
        "11246": 209,
        "11247": 230,
        "11248": 221,
        "11249": 23,
        "11250": 44,
        "11251": 185,
        "11252": 42,
        "11253": 75,
        "11254": 76,
        "11255": 30,
        "11256": 254,
        "11257": 109,
        "11258": 140,
        "11259": 193,
        "11260": 208,
        "11261": 102,
        "11262": 211,
        "11263": 73,
        "11264": 250,
        "11265": 119,
        "11266": 32,
        "11267": 149,
        "11268": 39,
        "11269": 213,
        "11270": 209,
        "11271": 51,
        "11272": 43,
        "11273": 180,
        "11274": 38,
        "11275": 10,
        "11276": 111,
        "11277": 165,
        "11278": 196,
        "11279": 114,
        "11280": 14,
        "11281": 131,
        "11282": 2,
        "11283": 156,
        "11284": 58,
        "11285": 106,
        "11286": 57,
        "11287": 174,
        "11288": 19,
        "11289": 60,
        "11290": 191,
        "11291": 180,
        "11292": 192,
        "11293": 73,
        "11294": 86,
        "11295": 133,
        "11296": 246,
        "11297": 63,
        "11298": 246,
        "11299": 187,
        "11300": 92,
        "11301": 103,
        "11302": 112,
        "11303": 131,
        "11304": 61,
        "11305": 166,
        "11306": 242,
        "11307": 122,
        "11308": 192,
        "11309": 96,
        "11310": 105,
        "11311": 7,
        "11312": 251,
        "11313": 106,
        "11314": 28,
        "11315": 170,
        "11316": 142,
        "11317": 98,
        "11318": 124,
        "11319": 236,
        "11320": 244,
        "11321": 139,
        "11322": 166,
        "11323": 125,
        "11324": 182,
        "11325": 71,
        "11326": 121,
        "11327": 81,
        "11328": 155,
        "11329": 108,
        "11330": 216,
        "11331": 100,
        "11332": 91,
        "11333": 51,
        "11334": 3,
        "11335": 93,
        "11336": 65,
        "11337": 87,
        "11338": 171,
        "11339": 34,
        "11340": 21,
        "11341": 134,
        "11342": 111,
        "11343": 154,
        "11344": 77,
        "11345": 203,
        "11346": 89,
        "11347": 195,
        "11348": 169,
        "11349": 106,
        "11350": 196,
        "11351": 186,
        "11352": 154,
        "11353": 28,
        "11354": 12,
        "11355": 89,
        "11356": 221,
        "11357": 4,
        "11358": 134,
        "11359": 157,
        "11360": 118,
        "11361": 207,
        "11362": 117,
        "11363": 107,
        "11364": 76,
        "11365": 125,
        "11366": 49,
        "11367": 146,
        "11368": 194,
        "11369": 82,
        "11370": 70,
        "11371": 161,
        "11372": 95,
        "11373": 127,
        "11374": 72,
        "11375": 25,
        "11376": 88,
        "11377": 56,
        "11378": 20,
        "11379": 202,
        "11380": 10,
        "11381": 19,
        "11382": 41,
        "11383": 189,
        "11384": 43,
        "11385": 231,
        "11386": 61,
        "11387": 16,
        "11388": 160,
        "11389": 218,
        "11390": 102,
        "11391": 65,
        "11392": 204,
        "11393": 60,
        "11394": 80,
        "11395": 146,
        "11396": 27,
        "11397": 55,
        "11398": 224,
        "11399": 178,
        "11400": 178,
        "11401": 145,
        "11402": 36,
        "11403": 107,
        "11404": 226,
        "11405": 38,
        "11406": 240,
        "11407": 66,
        "11408": 56,
        "11409": 166,
        "11410": 237,
        "11411": 116,
        "11412": 140,
        "11413": 196,
        "11414": 238,
        "11415": 194,
        "11416": 124,
        "11417": 245,
        "11418": 98,
        "11419": 250,
        "11420": 110,
        "11421": 81,
        "11422": 239,
        "11423": 29,
        "11424": 122,
        "11425": 72,
        "11426": 59,
        "11427": 191,
        "11428": 123,
        "11429": 18,
        "11430": 98,
        "11431": 240,
        "11432": 181,
        "11433": 69,
        "11434": 64,
        "11435": 161,
        "11436": 197,
        "11437": 73,
        "11438": 10,
        "11439": 249,
        "11440": 139,
        "11441": 193,
        "11442": 67,
        "11443": 187,
        "11444": 226,
        "11445": 82,
        "11446": 192,
        "11447": 140,
        "11448": 75,
        "11449": 182,
        "11450": 133,
        "11451": 213,
        "11452": 190,
        "11453": 95,
        "11454": 101,
        "11455": 234,
        "11456": 86,
        "11457": 192,
        "11458": 156,
        "11459": 221,
        "11460": 26,
        "11461": 137,
        "11462": 223,
        "11463": 186,
        "11464": 77,
        "11465": 203,
        "11466": 2,
        "11467": 40,
        "11468": 113,
        "11469": 170,
        "11470": 78,
        "11471": 225,
        "11472": 142,
        "11473": 67,
        "11474": 210,
        "11475": 101,
        "11476": 143,
        "11477": 25,
        "11478": 38,
        "11479": 157,
        "11480": 169,
        "11481": 171,
        "11482": 108,
        "11483": 200,
        "11484": 111,
        "11485": 246,
        "11486": 116,
        "11487": 118,
        "11488": 29,
        "11489": 15,
        "11490": 70,
        "11491": 185,
        "11492": 150,
        "11493": 151,
        "11494": 179,
        "11495": 21,
        "11496": 121,
        "11497": 110,
        "11498": 18,
        "11499": 159,
        "11500": 44,
        "11501": 45,
        "11502": 194,
        "11503": 0,
        "11504": 164,
        "11505": 60,
        "11506": 228,
        "11507": 162,
        "11508": 237,
        "11509": 177,
        "11510": 85,
        "11511": 114,
        "11512": 40,
        "11513": 228,
        "11514": 150,
        "11515": 62,
        "11516": 204,
        "11517": 159,
        "11518": 223,
        "11519": 253,
        "11520": 226,
        "11521": 125,
        "11522": 95,
        "11523": 94,
        "11524": 108,
        "11525": 92,
        "11526": 186,
        "11527": 157,
        "11528": 195,
        "11529": 26,
        "11530": 55,
        "11531": 73,
        "11532": 129,
        "11533": 244,
        "11534": 82,
        "11535": 86,
        "11536": 73,
        "11537": 225,
        "11538": 215,
        "11539": 208,
        "11540": 212,
        "11541": 178,
        "11542": 215,
        "11543": 207,
        "11544": 75,
        "11545": 253,
        "11546": 169,
        "11547": 218,
        "11548": 84,
        "11549": 200,
        "11550": 158,
        "11551": 155,
        "11552": 16,
        "11553": 37,
        "11554": 53,
        "11555": 66,
        "11556": 18,
        "11557": 109,
        "11558": 125,
        "11559": 118,
        "11560": 80,
        "11561": 109,
        "11562": 103,
        "11563": 13,
        "11564": 59,
        "11565": 180,
        "11566": 75,
        "11567": 42,
        "11568": 225,
        "11569": 38,
        "11570": 215,
        "11571": 3,
        "11572": 72,
        "11573": 89,
        "11574": 16,
        "11575": 154,
        "11576": 198,
        "11577": 141,
        "11578": 20,
        "11579": 65,
        "11580": 252,
        "11581": 102,
        "11582": 2,
        "11583": 210,
        "11584": 225,
        "11585": 157,
        "11586": 7,
        "11587": 228,
        "11588": 21,
        "11589": 2,
        "11590": 56,
        "11591": 110,
        "11592": 207,
        "11593": 134,
        "11594": 31,
        "11595": 106,
        "11596": 121,
        "11597": 250,
        "11598": 55,
        "11599": 195,
        "11600": 119,
        "11601": 30,
        "11602": 39,
        "11603": 112,
        "11604": 148,
        "11605": 235,
        "11606": 235,
        "11607": 59,
        "11608": 5,
        "11609": 54,
        "11610": 240,
        "11611": 30,
        "11612": 91,
        "11613": 254,
        "11614": 33,
        "11615": 178,
        "11616": 145,
        "11617": 251,
        "11618": 15,
        "11619": 159,
        "11620": 210,
        "11621": 209,
        "11622": 146,
        "11623": 166,
        "11624": 227,
        "11625": 6,
        "11626": 142,
        "11627": 58,
        "11628": 160,
        "11629": 201,
        "11630": 156,
        "11631": 176,
        "11632": 198,
        "11633": 231,
        "11634": 84,
        "11635": 182,
        "11636": 62,
        "11637": 157,
        "11638": 210,
        "11639": 152,
        "11640": 81,
        "11641": 55,
        "11642": 108,
        "11643": 196,
        "11644": 187,
        "11645": 80,
        "11646": 74,
        "11647": 92,
        "11648": 32,
        "11649": 7,
        "11650": 65,
        "11651": 60,
        "11652": 196,
        "11653": 190,
        "11654": 123,
        "11655": 48,
        "11656": 113,
        "11657": 52,
        "11658": 194,
        "11659": 218,
        "11660": 25,
        "11661": 66,
        "11662": 144,
        "11663": 180,
        "11664": 224,
        "11665": 110,
        "11666": 6,
        "11667": 51,
        "11668": 218,
        "11669": 140,
        "11670": 179,
        "11671": 0,
        "11672": 207,
        "11673": 135,
        "11674": 139,
        "11675": 201,
        "11676": 230,
        "11677": 244,
        "11678": 165,
        "11679": 142,
        "11680": 111,
        "11681": 100,
        "11682": 234,
        "11683": 131,
        "11684": 57,
        "11685": 148,
        "11686": 101,
        "11687": 245,
        "11688": 61,
        "11689": 30,
        "11690": 163,
        "11691": 37,
        "11692": 90,
        "11693": 59,
        "11694": 197,
        "11695": 164,
        "11696": 162,
        "11697": 175,
        "11698": 196,
        "11699": 77,
        "11700": 67,
        "11701": 245,
        "11702": 148,
        "11703": 229,
        "11704": 220,
        "11705": 46,
        "11706": 85,
        "11707": 147,
        "11708": 88,
        "11709": 183,
        "11710": 185,
        "11711": 82,
        "11712": 129,
        "11713": 14,
        "11714": 195,
        "11715": 186,
        "11716": 44,
        "11717": 211,
        "11718": 87,
        "11719": 190,
        "11720": 154,
        "11721": 0,
        "11722": 88,
        "11723": 191,
        "11724": 209,
        "11725": 91,
        "11726": 241,
        "11727": 236,
        "11728": 215,
        "11729": 224,
        "11730": 117,
        "11731": 180,
        "11732": 130,
        "11733": 48,
        "11734": 182,
        "11735": 166,
        "11736": 136,
        "11737": 4,
        "11738": 118,
        "11739": 44,
        "11740": 250,
        "11741": 7,
        "11742": 189,
        "11743": 253,
        "11744": 128,
        "11745": 252,
        "11746": 33,
        "11747": 224,
        "11748": 89,
        "11749": 124,
        "11750": 0,
        "11751": 163,
        "11752": 88,
        "11753": 135,
        "11754": 92,
        "11755": 9,
        "11756": 159,
        "11757": 166,
        "11758": 50,
        "11759": 78,
        "11760": 68,
        "11761": 222,
        "11762": 70,
        "11763": 90,
        "11764": 81,
        "11765": 249,
        "11766": 112,
        "11767": 64,
        "11768": 9,
        "11769": 221,
        "11770": 167,
        "11771": 82,
        "11772": 125,
        "11773": 113,
        "11774": 228,
        "11775": 115,
        "11776": 54,
        "11777": 141,
        "11778": 63,
        "11779": 54,
        "11780": 115,
        "11781": 146,
        "11782": 196,
        "11783": 39,
        "11784": 197,
        "11785": 8,
        "11786": 49,
        "11787": 208,
        "11788": 113,
        "11789": 116,
        "11790": 154,
        "11791": 113,
        "11792": 111,
        "11793": 235,
        "11794": 189,
        "11795": 86,
        "11796": 100,
        "11797": 172,
        "11798": 23,
        "11799": 121,
        "11800": 1,
        "11801": 197,
        "11802": 187,
        "11803": 231,
        "11804": 23,
        "11805": 115,
        "11806": 54,
        "11807": 137,
        "11808": 17,
        "11809": 38,
        "11810": 234,
        "11811": 118,
        "11812": 57,
        "11813": 18,
        "11814": 232,
        "11815": 214,
        "11816": 243,
        "11817": 105,
        "11818": 186,
        "11819": 171,
        "11820": 44,
        "11821": 204,
        "11822": 141,
        "11823": 219,
        "11824": 121,
        "11825": 149,
        "11826": 220,
        "11827": 180,
        "11828": 193,
        "11829": 70,
        "11830": 8,
        "11831": 159,
        "11832": 8,
        "11833": 205,
        "11834": 177,
        "11835": 143,
        "11836": 107,
        "11837": 114,
        "11838": 63,
        "11839": 208,
        "11840": 61,
        "11841": 167,
        "11842": 210,
        "11843": 213,
        "11844": 191,
        "11845": 127,
        "11846": 217,
        "11847": 154,
        "11848": 132,
        "11849": 190,
        "11850": 73,
        "11851": 136,
        "11852": 17,
        "11853": 202,
        "11854": 26,
        "11855": 162,
        "11856": 241,
        "11857": 250,
        "11858": 139,
        "11859": 50,
        "11860": 125,
        "11861": 74,
        "11862": 114,
        "11863": 228,
        "11864": 11,
        "11865": 240,
        "11866": 208,
        "11867": 230,
        "11868": 155,
        "11869": 213,
        "11870": 69,
        "11871": 74,
        "11872": 29,
        "11873": 140,
        "11874": 227,
        "11875": 192,
        "11876": 124,
        "11877": 110,
        "11878": 200,
        "11879": 134,
        "11880": 251,
        "11881": 183,
        "11882": 46,
        "11883": 24,
        "11884": 92,
        "11885": 161,
        "11886": 117,
        "11887": 226,
        "11888": 6,
        "11889": 29,
        "11890": 54,
        "11891": 222,
        "11892": 45,
        "11893": 156,
        "11894": 95,
        "11895": 5,
        "11896": 149,
        "11897": 222,
        "11898": 247,
        "11899": 113,
        "11900": 190,
        "11901": 97,
        "11902": 210,
        "11903": 66,
        "11904": 44,
        "11905": 202,
        "11906": 57,
        "11907": 185,
        "11908": 210,
        "11909": 21,
        "11910": 146,
        "11911": 139,
        "11912": 183,
        "11913": 189,
        "11914": 205,
        "11915": 83,
        "11916": 249,
        "11917": 254,
        "11918": 67,
        "11919": 73,
        "11920": 177,
        "11921": 121,
        "11922": 132,
        "11923": 133,
        "11924": 121,
        "11925": 208,
        "11926": 161,
        "11927": 155,
        "11928": 7,
        "11929": 226,
        "11930": 194,
        "11931": 73,
        "11932": 147,
        "11933": 118,
        "11934": 33,
        "11935": 196,
        "11936": 238,
        "11937": 60,
        "11938": 64,
        "11939": 57,
        "11940": 34,
        "11941": 5,
        "11942": 29,
        "11943": 152,
        "11944": 100,
        "11945": 118,
        "11946": 77,
        "11947": 182,
        "11948": 33,
        "11949": 85,
        "11950": 241,
        "11951": 101,
        "11952": 169,
        "11953": 5,
        "11954": 15,
        "11955": 187,
        "11956": 109,
        "11957": 86,
        "11958": 58,
        "11959": 244,
        "11960": 142,
        "11961": 211,
        "11962": 255,
        "11963": 178,
        "11964": 6,
        "11965": 113,
        "11966": 134,
        "11967": 127,
        "11968": 169,
        "11969": 200,
        "11970": 216,
        "11971": 22,
        "11972": 86,
        "11973": 169,
        "11974": 228,
        "11975": 145,
        "11976": 141,
        "11977": 77,
        "11978": 143,
        "11979": 239,
        "11980": 191,
        "11981": 132,
        "11982": 53,
        "11983": 120,
        "11984": 75,
        "11985": 165,
        "11986": 2,
        "11987": 152,
        "11988": 67,
        "11989": 150,
        "11990": 82,
        "11991": 150,
        "11992": 129,
        "11993": 51,
        "11994": 144,
        "11995": 49,
        "11996": 48,
        "11997": 215,
        "11998": 169,
        "11999": 94,
        "12000": 15,
        "12001": 67,
        "12002": 33,
        "12003": 174,
        "12004": 198,
        "12005": 57,
        "12006": 149,
        "12007": 63,
        "12008": 159,
        "12009": 166,
        "12010": 2,
        "12011": 81,
        "12012": 24,
        "12013": 183,
        "12014": 126,
        "12015": 240,
        "12016": 9,
        "12017": 86,
        "12018": 32,
        "12019": 95,
        "12020": 105,
        "12021": 247,
        "12022": 115,
        "12023": 39,
        "12024": 122,
        "12025": 5,
        "12026": 163,
        "12027": 105,
        "12028": 73,
        "12029": 184,
        "12030": 168,
        "12031": 169,
        "12032": 197,
        "12033": 84,
        "12034": 80,
        "12035": 186,
        "12036": 229,
        "12037": 105,
        "12038": 90,
        "12039": 113,
        "12040": 238,
        "12041": 181,
        "12042": 101,
        "12043": 108,
        "12044": 226,
        "12045": 244,
        "12046": 6,
        "12047": 244,
        "12048": 106,
        "12049": 120,
        "12050": 107,
        "12051": 194,
        "12052": 229,
        "12053": 37,
        "12054": 200,
        "12055": 1,
        "12056": 14,
        "12057": 61,
        "12058": 98,
        "12059": 9,
        "12060": 161,
        "12061": 161,
        "12062": 33,
        "12063": 163,
        "12064": 63,
        "12065": 235,
        "12066": 64,
        "12067": 40,
        "12068": 27,
        "12069": 87,
        "12070": 167,
        "12071": 175,
        "12072": 161,
        "12073": 207,
        "12074": 119,
        "12075": 3,
        "12076": 249,
        "12077": 22,
        "12078": 112,
        "12079": 249,
        "12080": 147,
        "12081": 127,
        "12082": 98,
        "12083": 231,
        "12084": 73,
        "12085": 189,
        "12086": 88,
        "12087": 254,
        "12088": 104,
        "12089": 155,
        "12090": 93,
        "12091": 136,
        "12092": 247,
        "12093": 173,
        "12094": 106,
        "12095": 230,
        "12096": 226,
        "12097": 185,
        "12098": 165,
        "12099": 139,
        "12100": 216,
        "12101": 51,
        "12102": 141,
        "12103": 151,
        "12104": 55,
        "12105": 41,
        "12106": 89,
        "12107": 70,
        "12108": 142,
        "12109": 140,
        "12110": 94,
        "12111": 25,
        "12112": 145,
        "12113": 235,
        "12114": 5,
        "12115": 149,
        "12116": 119,
        "12117": 116,
        "12118": 104,
        "12119": 232,
        "12120": 160,
        "12121": 111,
        "12122": 12,
        "12123": 193,
        "12124": 14,
        "12125": 134,
        "12126": 213,
        "12127": 84,
        "12128": 185,
        "12129": 82,
        "12130": 174,
        "12131": 175,
        "12132": 84,
        "12133": 224,
        "12134": 164,
        "12135": 152,
        "12136": 235,
        "12137": 151,
        "12138": 230,
        "12139": 11,
        "12140": 189,
        "12141": 97,
        "12142": 81,
        "12143": 225,
        "12144": 16,
        "12145": 212,
        "12146": 218,
        "12147": 249,
        "12148": 163,
        "12149": 162,
        "12150": 133,
        "12151": 48,
        "12152": 35,
        "12153": 184,
        "12154": 156,
        "12155": 215,
        "12156": 231,
        "12157": 8,
        "12158": 255,
        "12159": 228,
        "12160": 12,
        "12161": 195,
        "12162": 111,
        "12163": 7,
        "12164": 41,
        "12165": 52,
        "12166": 130,
        "12167": 210,
        "12168": 156,
        "12169": 226,
        "12170": 229,
        "12171": 127,
        "12172": 49,
        "12173": 190,
        "12174": 120,
        "12175": 253,
        "12176": 80,
        "12177": 74,
        "12178": 36,
        "12179": 250,
        "12180": 67,
        "12181": 197,
        "12182": 220,
        "12183": 143,
        "12184": 55,
        "12185": 186,
        "12186": 62,
        "12187": 101,
        "12188": 100,
        "12189": 142,
        "12190": 140,
        "12191": 164,
        "12192": 104,
        "12193": 157,
        "12194": 104,
        "12195": 210,
        "12196": 142,
        "12197": 68,
        "12198": 67,
        "12199": 222,
        "12200": 253,
        "12201": 128,
        "12202": 173,
        "12203": 114,
        "12204": 124,
        "12205": 181,
        "12206": 212,
        "12207": 186,
        "12208": 227,
        "12209": 253,
        "12210": 222,
        "12211": 107,
        "12212": 216,
        "12213": 66,
        "12214": 159,
        "12215": 36,
        "12216": 30,
        "12217": 116,
        "12218": 15,
        "12219": 183,
        "12220": 131,
        "12221": 246,
        "12222": 125,
        "12223": 45,
        "12224": 68,
        "12225": 25,
        "12226": 237,
        "12227": 169,
        "12228": 243,
        "12229": 117,
        "12230": 4,
        "12231": 252,
        "12232": 81,
        "12233": 240,
        "12234": 69,
        "12235": 224,
        "12236": 22,
        "12237": 39,
        "12238": 143,
        "12239": 102,
        "12240": 75,
        "12241": 231,
        "12242": 237,
        "12243": 217,
        "12244": 92,
        "12245": 116,
        "12246": 206,
        "12247": 245,
        "12248": 143,
        "12249": 110,
        "12250": 38,
        "12251": 110,
        "12252": 194,
        "12253": 93,
        "12254": 160,
        "12255": 188,
        "12256": 162,
        "12257": 23,
        "12258": 88,
        "12259": 117,
        "12260": 177,
        "12261": 61,
        "12262": 183,
        "12263": 208,
        "12264": 125,
        "12265": 212,
        "12266": 43,
        "12267": 14,
        "12268": 224,
        "12269": 20,
        "12270": 229,
        "12271": 170,
        "12272": 235,
        "12273": 8,
        "12274": 135,
        "12275": 118,
        "12276": 66,
        "12277": 20,
        "12278": 22,
        "12279": 129,
        "12280": 229,
        "12281": 229,
        "12282": 184,
        "12283": 121,
        "12284": 43,
        "12285": 207,
        "12286": 84,
        "12287": 128,
        "12288": 33,
        "12289": 241,
        "12290": 192,
        "12291": 174,
        "12292": 130,
        "12293": 225,
        "12294": 205,
        "12295": 42,
        "12296": 89,
        "12297": 7,
        "12298": 104,
        "12299": 151,
        "12300": 185,
        "12301": 170,
        "12302": 110,
        "12303": 197,
        "12304": 6,
        "12305": 87,
        "12306": 201,
        "12307": 211,
        "12308": 117,
        "12309": 90,
        "12310": 160,
        "12311": 166,
        "12312": 6,
        "12313": 79,
        "12314": 216,
        "12315": 42,
        "12316": 226,
        "12317": 124,
        "12318": 240,
        "12319": 238,
        "12320": 102,
        "12321": 82,
        "12322": 249,
        "12323": 68,
        "12324": 188,
        "12325": 92,
        "12326": 175,
        "12327": 200,
        "12328": 80,
        "12329": 235,
        "12330": 136,
        "12331": 132,
        "12332": 154,
        "12333": 27,
        "12334": 188,
        "12335": 106,
        "12336": 114,
        "12337": 59,
        "12338": 82,
        "12339": 30,
        "12340": 236,
        "12341": 62,
        "12342": 158,
        "12343": 170,
        "12344": 7,
        "12345": 52,
        "12346": 158,
        "12347": 69,
        "12348": 55,
        "12349": 151,
        "12350": 62,
        "12351": 116,
        "12352": 116,
        "12353": 253,
        "12354": 201,
        "12355": 14,
        "12356": 245,
        "12357": 10,
        "12358": 9,
        "12359": 39,
        "12360": 8,
        "12361": 126,
        "12362": 83,
        "12363": 153,
        "12364": 161,
        "12365": 243,
        "12366": 95,
        "12367": 235,
        "12368": 21,
        "12369": 102,
        "12370": 68,
        "12371": 5,
        "12372": 206,
        "12373": 63,
        "12374": 189,
        "12375": 74,
        "12376": 146,
        "12377": 184,
        "12378": 202,
        "12379": 219,
        "12380": 27,
        "12381": 240,
        "12382": 6,
        "12383": 126,
        "12384": 105,
        "12385": 75,
        "12386": 9,
        "12387": 41,
        "12388": 21,
        "12389": 234,
        "12390": 133,
        "12391": 178,
        "12392": 132,
        "12393": 84,
        "12394": 47,
        "12395": 167,
        "12396": 154,
        "12397": 252,
        "12398": 227,
        "12399": 170,
        "12400": 122,
        "12401": 51,
        "12402": 157,
        "12403": 6,
        "12404": 4,
        "12405": 243,
        "12406": 39,
        "12407": 157,
        "12408": 59,
        "12409": 52,
        "12410": 161,
        "12411": 118,
        "12412": 155,
        "12413": 184,
        "12414": 54,
        "12415": 11,
        "12416": 118,
        "12417": 100,
        "12418": 14,
        "12419": 230,
        "12420": 4,
        "12421": 99,
        "12422": 197,
        "12423": 132,
        "12424": 28,
        "12425": 63,
        "12426": 0,
        "12427": 28,
        "12428": 63,
        "12429": 51,
        "12430": 14,
        "12431": 31,
        "12432": 208,
        "12433": 115,
        "12434": 139,
        "12435": 43,
        "12436": 38,
        "12437": 237,
        "12438": 62,
        "12439": 195,
        "12440": 180,
        "12441": 124,
        "12442": 55,
        "12443": 23,
        "12444": 176,
        "12445": 139,
        "12446": 30,
        "12447": 225,
        "12448": 226,
        "12449": 185,
        "12450": 15,
        "12451": 224,
        "12452": 200,
        "12453": 58,
        "12454": 138,
        "12455": 156,
        "12456": 224,
        "12457": 56,
        "12458": 84,
        "12459": 162,
        "12460": 122,
        "12461": 233,
        "12462": 98,
        "12463": 11,
        "12464": 144,
        "12465": 64,
        "12466": 77,
        "12467": 232,
        "12468": 172,
        "12469": 34,
        "12470": 34,
        "12471": 85,
        "12472": 153,
        "12473": 246,
        "12474": 162,
        "12475": 161,
        "12476": 214,
        "12477": 37,
        "12478": 203,
        "12479": 176,
        "12480": 192,
        "12481": 199,
        "12482": 241,
        "12483": 7,
        "12484": 61,
        "12485": 200,
        "12486": 253,
        "12487": 4,
        "12488": 2,
        "12489": 114,
        "12490": 79,
        "12491": 110,
        "12492": 80,
        "12493": 160,
        "12494": 240,
        "12495": 119,
        "12496": 102,
        "12497": 95,
        "12498": 152,
        "12499": 134,
        "12500": 177,
        "12501": 79,
        "12502": 3,
        "12503": 143,
        "12504": 37,
        "12505": 11,
        "12506": 60,
        "12507": 47,
        "12508": 111,
        "12509": 27,
        "12510": 112,
        "12511": 148,
        "12512": 212,
        "12513": 119,
        "12514": 123,
        "12515": 138,
        "12516": 102,
        "12517": 227,
        "12518": 122,
        "12519": 235,
        "12520": 210,
        "12521": 227,
        "12522": 79,
        "12523": 59,
        "12524": 205,
        "12525": 123,
        "12526": 136,
        "12527": 178,
        "12528": 110,
        "12529": 10,
        "12530": 240,
        "12531": 12,
        "12532": 219,
        "12533": 63,
        "12534": 142,
        "12535": 195,
        "12536": 155,
        "12537": 175,
        "12538": 141,
        "12539": 49,
        "12540": 65,
        "12541": 176,
        "12542": 49,
        "12543": 214,
        "12544": 156,
        "12545": 147,
        "12546": 209,
        "12547": 222,
        "12548": 17,
        "12549": 227,
        "12550": 241,
        "12551": 12,
        "12552": 59,
        "12553": 37,
        "12554": 197,
        "12555": 93,
        "12556": 159,
        "12557": 35,
        "12558": 232,
        "12559": 99,
        "12560": 78,
        "12561": 91,
        "12562": 6,
        "12563": 167,
        "12564": 61,
        "12565": 44,
        "12566": 188,
        "12567": 102,
        "12568": 30,
        "12569": 186,
        "12570": 155,
        "12571": 226,
        "12572": 72,
        "12573": 35,
        "12574": 170,
        "12575": 110,
        "12576": 170,
        "12577": 82,
        "12578": 155,
        "12579": 122,
        "12580": 157,
        "12581": 214,
        "12582": 248,
        "12583": 20,
        "12584": 63,
        "12585": 115,
        "12586": 237,
        "12587": 205,
        "12588": 50,
        "12589": 102,
        "12590": 172,
        "12591": 100,
        "12592": 11,
        "12593": 223,
        "12594": 52,
        "12595": 28,
        "12596": 162,
        "12597": 199,
        "12598": 113,
        "12599": 91,
        "12600": 210,
        "12601": 249,
        "12602": 16,
        "12603": 227,
        "12604": 69,
        "12605": 12,
        "12606": 228,
        "12607": 37,
        "12608": 4,
        "12609": 15,
        "12610": 141,
        "12611": 115,
        "12612": 24,
        "12613": 97,
        "12614": 1,
        "12615": 7,
        "12616": 141,
        "12617": 105,
        "12618": 210,
        "12619": 192,
        "12620": 245,
        "12621": 6,
        "12622": 108,
        "12623": 168,
        "12624": 5,
        "12625": 222,
        "12626": 238,
        "12627": 251,
        "12628": 63,
        "12629": 32,
        "12630": 144,
        "12631": 118,
        "12632": 92,
        "12633": 222,
        "12634": 248,
        "12635": 171,
        "12636": 120,
        "12637": 200,
        "12638": 154,
        "12639": 81,
        "12640": 208,
        "12641": 44,
        "12642": 198,
        "12643": 137,
        "12644": 45,
        "12645": 26,
        "12646": 169,
        "12647": 74,
        "12648": 189,
        "12649": 24,
        "12650": 81,
        "12651": 198,
        "12652": 160,
        "12653": 133,
        "12654": 161,
        "12655": 140,
        "12656": 236,
        "12657": 160,
        "12658": 163,
        "12659": 200,
        "12660": 105,
        "12661": 38,
        "12662": 14,
        "12663": 226,
        "12664": 163,
        "12665": 102,
        "12666": 9,
        "12667": 63,
        "12668": 34,
        "12669": 70,
        "12670": 163,
        "12671": 142,
        "12672": 211,
        "12673": 1,
        "12674": 58,
        "12675": 164,
        "12676": 168,
        "12677": 81,
        "12678": 213,
        "12679": 58,
        "12680": 236,
        "12681": 195,
        "12682": 179,
        "12683": 172,
        "12684": 246,
        "12685": 188,
        "12686": 100,
        "12687": 87,
        "12688": 0,
        "12689": 98,
        "12690": 187,
        "12691": 160,
        "12692": 36,
        "12693": 223,
        "12694": 116,
        "12695": 183,
        "12696": 18,
        "12697": 222,
        "12698": 166,
        "12699": 69,
        "12700": 71,
        "12701": 20,
        "12702": 98,
        "12703": 52,
        "12704": 201,
        "12705": 96,
        "12706": 204,
        "12707": 235,
        "12708": 9,
        "12709": 112,
        "12710": 169,
        "12711": 52,
        "12712": 78,
        "12713": 190,
        "12714": 157,
        "12715": 141,
        "12716": 53,
        "12717": 163,
        "12718": 241,
        "12719": 166,
        "12720": 14,
        "12721": 95,
        "12722": 18,
        "12723": 157,
        "12724": 224,
        "12725": 232,
        "12726": 157,
        "12727": 220,
        "12728": 117,
        "12729": 24,
        "12730": 70,
        "12731": 15,
        "12732": 214,
        "12733": 169,
        "12734": 114,
        "12735": 197,
        "12736": 112,
        "12737": 111,
        "12738": 97,
        "12739": 133,
        "12740": 75,
        "12741": 215,
        "12742": 42,
        "12743": 136,
        "12744": 46,
        "12745": 206,
        "12746": 233,
        "12747": 2,
        "12748": 36,
        "12749": 199,
        "12750": 132,
        "12751": 224,
        "12752": 95,
        "12753": 86,
        "12754": 206,
        "12755": 225,
        "12756": 21,
        "12757": 233,
        "12758": 45,
        "12759": 227,
        "12760": 3,
        "12761": 254,
        "12762": 21,
        "12763": 145,
        "12764": 181,
        "12765": 146,
        "12766": 183,
        "12767": 172,
        "12768": 12,
        "12769": 231,
        "12770": 231,
        "12771": 126,
        "12772": 141,
        "12773": 59,
        "12774": 13,
        "12775": 167,
        "12776": 60,
        "12777": 80,
        "12778": 182,
        "12779": 101,
        "12780": 202,
        "12781": 172,
        "12782": 233,
        "12783": 155,
        "12784": 126,
        "12785": 202,
        "12786": 147,
        "12787": 227,
        "12788": 116,
        "12789": 252,
        "12790": 165,
        "12791": 201,
        "12792": 187,
        "12793": 185,
        "12794": 98,
        "12795": 235,
        "12796": 5,
        "12797": 12,
        "12798": 127,
        "12799": 171,
        "12800": 158,
        "12801": 70,
        "12802": 125,
        "12803": 255,
        "12804": 241,
        "12805": 147,
        "12806": 26,
        "12807": 79,
        "12808": 190,
        "12809": 158,
        "12810": 47,
        "12811": 36,
        "12812": 28,
        "12813": 180,
        "12814": 22,
        "12815": 221,
        "12816": 112,
        "12817": 153,
        "12818": 153,
        "12819": 251,
        "12820": 50,
        "12821": 166,
        "12822": 203,
        "12823": 88,
        "12824": 11,
        "12825": 3,
        "12826": 3,
        "12827": 90,
        "12828": 72,
        "12829": 14,
        "12830": 239,
        "12831": 219,
        "12832": 19,
        "12833": 35,
        "12834": 251,
        "12835": 189,
        "12836": 190,
        "12837": 187,
        "12838": 237,
        "12839": 146,
        "12840": 72,
        "12841": 209,
        "12842": 170,
        "12843": 250,
        "12844": 11,
        "12845": 174,
        "12846": 209,
        "12847": 181,
        "12848": 25,
        "12849": 186,
        "12850": 148,
        "12851": 241,
        "12852": 168,
        "12853": 124,
        "12854": 133,
        "12855": 32,
        "12856": 166,
        "12857": 0,
        "12858": 167,
        "12859": 181,
        "12860": 181,
        "12861": 50,
        "12862": 141,
        "12863": 230,
        "12864": 150,
        "12865": 5,
        "12866": 74,
        "12867": 131,
        "12868": 6,
        "12869": 109,
        "12870": 244,
        "12871": 90,
        "12872": 125,
        "12873": 222,
        "12874": 81,
        "12875": 5,
        "12876": 171,
        "12877": 55,
        "12878": 164,
        "12879": 43,
        "12880": 99,
        "12881": 65,
        "12882": 215,
        "12883": 40,
        "12884": 6,
        "12885": 170,
        "12886": 70,
        "12887": 177,
        "12888": 54,
        "12889": 253,
        "12890": 105,
        "12891": 243,
        "12892": 121,
        "12893": 238,
        "12894": 142,
        "12895": 192,
        "12896": 76,
        "12897": 236,
        "12898": 131,
        "12899": 97,
        "12900": 127,
        "12901": 25,
        "12902": 70,
        "12903": 225,
        "12904": 103,
        "12905": 241,
        "12906": 232,
        "12907": 228,
        "12908": 148,
        "12909": 200,
        "12910": 79,
        "12911": 71,
        "12912": 58,
        "12913": 103,
        "12914": 136,
        "12915": 220,
        "12916": 189,
        "12917": 220,
        "12918": 230,
        "12919": 48,
        "12920": 6,
        "12921": 120,
        "12922": 213,
        "12923": 198,
        "12924": 130,
        "12925": 55,
        "12926": 99,
        "12927": 235,
        "12928": 128,
        "12929": 236,
        "12930": 186,
        "12931": 98,
        "12932": 76,
        "12933": 9,
        "12934": 171,
        "12935": 208,
        "12936": 103,
        "12937": 233,
        "12938": 121,
        "12939": 196,
        "12940": 95,
        "12941": 197,
        "12942": 194,
        "12943": 181,
        "12944": 105,
        "12945": 193,
        "12946": 107,
        "12947": 238,
        "12948": 182,
        "12949": 86,
        "12950": 106,
        "12951": 231,
        "12952": 77,
        "12953": 47,
        "12954": 9,
        "12955": 201,
        "12956": 142,
        "12957": 252,
        "12958": 73,
        "12959": 89,
        "12960": 51,
        "12961": 49,
        "12962": 147,
        "12963": 236,
        "12964": 138,
        "12965": 80,
        "12966": 210,
        "12967": 139,
        "12968": 96,
        "12969": 248,
        "12970": 30,
        "12971": 149,
        "12972": 60,
        "12973": 48,
        "12974": 244,
        "12975": 171,
        "12976": 199,
        "12977": 143,
        "12978": 146,
        "12979": 249,
        "12980": 218,
        "12981": 69,
        "12982": 186,
        "12983": 44,
        "12984": 102,
        "12985": 109,
        "12986": 14,
        "12987": 254,
        "12988": 27,
        "12989": 9,
        "12990": 176,
        "12991": 101,
        "12992": 117,
        "12993": 213,
        "12994": 212,
        "12995": 125,
        "12996": 58,
        "12997": 141,
        "12998": 142,
        "12999": 60,
        "13000": 29,
        "13001": 194,
        "13002": 215,
        "13003": 123,
        "13004": 109,
        "13005": 33,
        "13006": 83,
        "13007": 110,
        "13008": 92,
        "13009": 108,
        "13010": 144,
        "13011": 166,
        "13012": 224,
        "13013": 42,
        "13014": 147,
        "13015": 252,
        "13016": 9,
        "13017": 81,
        "13018": 150,
        "13019": 166,
        "13020": 138,
        "13021": 248,
        "13022": 254,
        "13023": 141,
        "13024": 41,
        "13025": 176,
        "13026": 126,
        "13027": 18,
        "13028": 65,
        "13029": 192,
        "13030": 187,
        "13031": 25,
        "13032": 13,
        "13033": 87,
        "13034": 56,
        "13035": 156,
        "13036": 65,
        "13037": 31,
        "13038": 182,
        "13039": 95,
        "13040": 112,
        "13041": 29,
        "13042": 212,
        "13043": 33,
        "13044": 144,
        "13045": 130,
        "13046": 210,
        "13047": 199,
        "13048": 41,
        "13049": 80,
        "13050": 155,
        "13051": 14,
        "13052": 25,
        "13053": 207,
        "13054": 245,
        "13055": 196,
        "13056": 249,
        "13057": 146,
        "13058": 88,
        "13059": 221,
        "13060": 246,
        "13061": 161,
        "13062": 143,
        "13063": 97,
        "13064": 189,
        "13065": 17,
        "13066": 90,
        "13067": 221,
        "13068": 113,
        "13069": 10,
        "13070": 72,
        "13071": 137,
        "13072": 151,
        "13073": 245,
        "13074": 129,
        "13075": 115,
        "13076": 210,
        "13077": 173,
        "13078": 118,
        "13079": 30,
        "13080": 134,
        "13081": 88,
        "13082": 182,
        "13083": 34,
        "13084": 160,
        "13085": 199,
        "13086": 214,
        "13087": 110,
        "13088": 187,
        "13089": 120,
        "13090": 23,
        "13091": 188,
        "13092": 74,
        "13093": 138,
        "13094": 74,
        "13095": 183,
        "13096": 248,
        "13097": 244,
        "13098": 159,
        "13099": 244,
        "13100": 137,
        "13101": 215,
        "13102": 159,
        "13103": 86,
        "13104": 188,
        "13105": 235,
        "13106": 16,
        "13107": 126,
        "13108": 35,
        "13109": 80,
        "13110": 137,
        "13111": 171,
        "13112": 36,
        "13113": 254,
        "13114": 1,
        "13115": 218,
        "13116": 31,
        "13117": 204,
        "13118": 13,
        "13119": 97,
        "13120": 173,
        "13121": 154,
        "13122": 205,
        "13123": 106,
        "13124": 151,
        "13125": 74,
        "13126": 168,
        "13127": 213,
        "13128": 63,
        "13129": 186,
        "13130": 72,
        "13131": 157,
        "13132": 57,
        "13133": 168,
        "13134": 216,
        "13135": 175,
        "13136": 170,
        "13137": 149,
        "13138": 12,
        "13139": 226,
        "13140": 174,
        "13141": 161,
        "13142": 142,
        "13143": 67,
        "13144": 207,
        "13145": 133,
        "13146": 167,
        "13147": 28,
        "13148": 134,
        "13149": 42,
        "13150": 51,
        "13151": 20,
        "13152": 15,
        "13153": 125,
        "13154": 84,
        "13155": 211,
        "13156": 246,
        "13157": 86,
        "13158": 244,
        "13159": 28,
        "13160": 55,
        "13161": 27,
        "13162": 66,
        "13163": 157,
        "13164": 34,
        "13165": 46,
        "13166": 98,
        "13167": 47,
        "13168": 99,
        "13169": 111,
        "13170": 66,
        "13171": 126,
        "13172": 184,
        "13173": 178,
        "13174": 85,
        "13175": 140,
        "13176": 6,
        "13177": 246,
        "13178": 144,
        "13179": 192,
        "13180": 143,
        "13181": 107,
        "13182": 229,
        "13183": 52,
        "13184": 19,
        "13185": 159,
        "13186": 42,
        "13187": 77,
        "13188": 113,
        "13189": 238,
        "13190": 219,
        "13191": 1,
        "13192": 131,
        "13193": 185,
        "13194": 140,
        "13195": 71,
        "13196": 127,
        "13197": 158,
        "13198": 109,
        "13199": 163,
        "13200": 88,
        "13201": 79,
        "13202": 95,
        "13203": 26,
        "13204": 126,
        "13205": 131,
        "13206": 229,
        "13207": 229,
        "13208": 48,
        "13209": 207,
        "13210": 255,
        "13211": 126,
        "13212": 79,
        "13213": 75,
        "13214": 227,
        "13215": 223,
        "13216": 205,
        "13217": 65,
        "13218": 242,
        "13219": 202,
        "13220": 237,
        "13221": 89,
        "13222": 218,
        "13223": 232,
        "13224": 47,
        "13225": 69,
        "13226": 248,
        "13227": 135,
        "13228": 30,
        "13229": 76,
        "13230": 160,
        "13231": 165,
        "13232": 254,
        "13233": 102,
        "13234": 27,
        "13235": 120,
        "13236": 167,
        "13237": 63,
        "13238": 209,
        "13239": 167,
        "13240": 56,
        "13241": 251,
        "13242": 187,
        "13243": 186,
        "13244": 177,
        "13245": 144,
        "13246": 77,
        "13247": 66,
        "13248": 10,
        "13249": 95,
        "13250": 89,
        "13251": 126,
        "13252": 187,
        "13253": 122,
        "13254": 13,
        "13255": 131,
        "13256": 153,
        "13257": 247,
        "13258": 4,
        "13259": 208,
        "13260": 220,
        "13261": 80,
        "13262": 56,
        "13263": 11,
        "13264": 41,
        "13265": 114,
        "13266": 199,
        "13267": 217,
        "13268": 123,
        "13269": 228,
        "13270": 253,
        "13271": 109,
        "13272": 215,
        "13273": 221,
        "13274": 75,
        "13275": 122,
        "13276": 210,
        "13277": 155,
        "13278": 53,
        "13279": 162,
        "13280": 67,
        "13281": 215,
        "13282": 45,
        "13283": 223,
        "13284": 21,
        "13285": 156,
        "13286": 240,
        "13287": 63,
        "13288": 119,
        "13289": 107,
        "13290": 180,
        "13291": 239,
        "13292": 46,
        "13293": 91,
        "13294": 247,
        "13295": 180,
        "13296": 142,
        "13297": 230,
        "13298": 120,
        "13299": 129,
        "13300": 7,
        "13301": 202,
        "13302": 64,
        "13303": 167,
        "13304": 18,
        "13305": 218,
        "13306": 115,
        "13307": 217,
        "13308": 162,
        "13309": 164,
        "13310": 215,
        "13311": 69,
        "13312": 72,
        "13313": 252,
        "13314": 119,
        "13315": 72,
        "13316": 141,
        "13317": 33,
        "13318": 177,
        "13319": 81,
        "13320": 143,
        "13321": 94,
        "13322": 57,
        "13323": 231,
        "13324": 162,
        "13325": 151,
        "13326": 117,
        "13327": 21,
        "13328": 203,
        "13329": 242,
        "13330": 255,
        "13331": 27,
        "13332": 174,
        "13333": 192,
        "13334": 253,
        "13335": 4,
        "13336": 254,
        "13337": 220,
        "13338": 62,
        "13339": 159,
        "13340": 99,
        "13341": 142,
        "13342": 14,
        "13343": 150,
        "13344": 37,
        "13345": 139,
        "13346": 166,
        "13347": 129,
        "13348": 131,
        "13349": 192,
        "13350": 29,
        "13351": 93,
        "13352": 151,
        "13353": 116,
        "13354": 72,
        "13355": 169,
        "13356": 119,
        "13357": 128,
        "13358": 212,
        "13359": 218,
        "13360": 220,
        "13361": 165,
        "13362": 59,
        "13363": 27,
        "13364": 104,
        "13365": 153,
        "13366": 140,
        "13367": 163,
        "13368": 249,
        "13369": 231,
        "13370": 247,
        "13371": 75,
        "13372": 152,
        "13373": 178,
        "13374": 68,
        "13375": 115,
        "13376": 152,
        "13377": 66,
        "13378": 25,
        "13379": 198,
        "13380": 92,
        "13381": 61,
        "13382": 213,
        "13383": 172,
        "13384": 253,
        "13385": 77,
        "13386": 36,
        "13387": 192,
        "13388": 207,
        "13389": 55,
        "13390": 205,
        "13391": 122,
        "13392": 92,
        "13393": 124,
        "13394": 32,
        "13395": 240,
        "13396": 104,
        "13397": 42,
        "13398": 236,
        "13399": 216,
        "13400": 121,
        "13401": 236,
        "13402": 168,
        "13403": 50,
        "13404": 152,
        "13405": 201,
        "13406": 183,
        "13407": 227,
        "13408": 95,
        "13409": 121,
        "13410": 136,
        "13411": 52,
        "13412": 155,
        "13413": 158,
        "13414": 199,
        "13415": 153,
        "13416": 82,
        "13417": 246,
        "13418": 40,
        "13419": 197,
        "13420": 127,
        "13421": 28,
        "13422": 126,
        "13423": 112,
        "13424": 50,
        "13425": 110,
        "13426": 223,
        "13427": 142,
        "13428": 33,
        "13429": 41,
        "13430": 128,
        "13431": 94,
        "13432": 20,
        "13433": 231,
        "13434": 20,
        "13435": 86,
        "13436": 67,
        "13437": 60,
        "13438": 83,
        "13439": 146,
        "13440": 230,
        "13441": 27,
        "13442": 50,
        "13443": 37,
        "13444": 210,
        "13445": 103,
        "13446": 208,
        "13447": 226,
        "13448": 171,
        "13449": 124,
        "13450": 99,
        "13451": 189,
        "13452": 36,
        "13453": 53,
        "13454": 156,
        "13455": 196,
        "13456": 149,
        "13457": 32,
        "13458": 8,
        "13459": 3,
        "13460": 5,
        "13461": 180,
        "13462": 225,
        "13463": 143,
        "13464": 174,
        "13465": 22,
        "13466": 157,
        "13467": 130,
        "13468": 165,
        "13469": 6,
        "13470": 182,
        "13471": 110,
        "13472": 204,
        "13473": 151,
        "13474": 233,
        "13475": 183,
        "13476": 65,
        "13477": 62,
        "13478": 115,
        "13479": 112,
        "13480": 181,
        "13481": 19,
        "13482": 52,
        "13483": 1,
        "13484": 23,
        "13485": 122,
        "13486": 90,
        "13487": 104,
        "13488": 200,
        "13489": 102,
        "13490": 130,
        "13491": 4,
        "13492": 164,
        "13493": 111,
        "13494": 113,
        "13495": 248,
        "13496": 197,
        "13497": 89,
        "13498": 139,
        "13499": 229,
        "13500": 32,
        "13501": 120,
        "13502": 58,
        "13503": 247,
        "13504": 173,
        "13505": 59,
        "13506": 113,
        "13507": 236,
        "13508": 11,
        "13509": 150,
        "13510": 191,
        "13511": 167,
        "13512": 227,
        "13513": 204,
        "13514": 180,
        "13515": 199,
        "13516": 153,
        "13517": 60,
        "13518": 171,
        "13519": 56,
        "13520": 14,
        "13521": 241,
        "13522": 229,
        "13523": 119,
        "13524": 63,
        "13525": 182,
        "13526": 74,
        "13527": 170,
        "13528": 98,
        "13529": 40,
        "13530": 93,
        "13531": 15,
        "13532": 195,
        "13533": 232,
        "13534": 245,
        "13535": 81,
        "13536": 45,
        "13537": 150,
        "13538": 1,
        "13539": 91,
        "13540": 227,
        "13541": 41,
        "13542": 151,
        "13543": 39,
        "13544": 245,
        "13545": 251,
        "13546": 141,
        "13547": 226,
        "13548": 22,
        "13549": 40,
        "13550": 146,
        "13551": 130,
        "13552": 82,
        "13553": 140,
        "13554": 108,
        "13555": 102,
        "13556": 221,
        "13557": 156,
        "13558": 119,
        "13559": 38,
        "13560": 250,
        "13561": 56,
        "13562": 25,
        "13563": 29,
        "13564": 30,
        "13565": 74,
        "13566": 163,
        "13567": 55,
        "13568": 112,
        "13569": 57,
        "13570": 79,
        "13571": 82,
        "13572": 91,
        "13573": 157,
        "13574": 252,
        "13575": 179,
        "13576": 80,
        "13577": 189,
        "13578": 21,
        "13579": 53,
        "13580": 121,
        "13581": 52,
        "13582": 239,
        "13583": 247,
        "13584": 185,
        "13585": 168,
        "13586": 148,
        "13587": 187,
        "13588": 84,
        "13589": 140,
        "13590": 2,
        "13591": 206,
        "13592": 10,
        "13593": 2,
        "13594": 14,
        "13595": 211,
        "13596": 31,
        "13597": 17,
        "13598": 94,
        "13599": 16,
        "13600": 213,
        "13601": 178,
        "13602": 94,
        "13603": 112,
        "13604": 215,
        "13605": 219,
        "13606": 131,
        "13607": 29,
        "13608": 47,
        "13609": 155,
        "13610": 127,
        "13611": 109,
        "13612": 160,
        "13613": 238,
        "13614": 207,
        "13615": 50,
        "13616": 213,
        "13617": 228,
        "13618": 88,
        "13619": 112,
        "13620": 19,
        "13621": 76,
        "13622": 227,
        "13623": 185,
        "13624": 234,
        "13625": 109,
        "13626": 139,
        "13627": 192,
        "13628": 149,
        "13629": 37,
        "13630": 204,
        "13631": 44,
        "13632": 228,
        "13633": 214,
        "13634": 108,
        "13635": 120,
        "13636": 142,
        "13637": 183,
        "13638": 122,
        "13639": 29,
        "13640": 150,
        "13641": 20,
        "13642": 239,
        "13643": 101,
        "13644": 47,
        "13645": 251,
        "13646": 233,
        "13647": 137,
        "13648": 115,
        "13649": 173,
        "13650": 231,
        "13651": 192,
        "13652": 149,
        "13653": 54,
        "13654": 118,
        "13655": 212,
        "13656": 108,
        "13657": 1,
        "13658": 39,
        "13659": 183,
        "13660": 74,
        "13661": 155,
        "13662": 176,
        "13663": 192,
        "13664": 234,
        "13665": 70,
        "13666": 138,
        "13667": 39,
        "13668": 54,
        "13669": 88,
        "13670": 183,
        "13671": 207,
        "13672": 172,
        "13673": 207,
        "13674": 43,
        "13675": 32,
        "13676": 177,
        "13677": 230,
        "13678": 254,
        "13679": 221,
        "13680": 108,
        "13681": 35,
        "13682": 186,
        "13683": 28,
        "13684": 80,
        "13685": 238,
        "13686": 231,
        "13687": 141,
        "13688": 16,
        "13689": 136,
        "13690": 87,
        "13691": 36,
        "13692": 214,
        "13693": 112,
        "13694": 50,
        "13695": 221,
        "13696": 194,
        "13697": 241,
        "13698": 219,
        "13699": 142,
        "13700": 222,
        "13701": 101,
        "13702": 93,
        "13703": 205,
        "13704": 241,
        "13705": 10,
        "13706": 179,
        "13707": 181,
        "13708": 189,
        "13709": 187,
        "13710": 20,
        "13711": 98,
        "13712": 0,
        "13713": 218,
        "13714": 14,
        "13715": 209,
        "13716": 46,
        "13717": 188,
        "13718": 83,
        "13719": 82,
        "13720": 114,
        "13721": 146,
        "13722": 246,
        "13723": 31,
        "13724": 193,
        "13725": 147,
        "13726": 139,
        "13727": 242,
        "13728": 207,
        "13729": 181,
        "13730": 99,
        "13731": 112,
        "13732": 227,
        "13733": 241,
        "13734": 84,
        "13735": 227,
        "13736": 227,
        "13737": 30,
        "13738": 84,
        "13739": 64,
        "13740": 209,
        "13741": 11,
        "13742": 158,
        "13743": 175,
        "13744": 195,
        "13745": 218,
        "13746": 231,
        "13747": 82,
        "13748": 153,
        "13749": 110,
        "13750": 10,
        "13751": 42,
        "13752": 106,
        "13753": 53,
        "13754": 98,
        "13755": 45,
        "13756": 46,
        "13757": 222,
        "13758": 104,
        "13759": 40,
        "13760": 246,
        "13761": 117,
        "13762": 143,
        "13763": 74,
        "13764": 92,
        "13765": 39,
        "13766": 68,
        "13767": 67,
        "13768": 57,
        "13769": 70,
        "13770": 13,
        "13771": 255,
        "13772": 214,
        "13773": 250,
        "13774": 29,
        "13775": 132,
        "13776": 216,
        "13777": 145,
        "13778": 207,
        "13779": 68,
        "13780": 10,
        "13781": 225,
        "13782": 10,
        "13783": 103,
        "13784": 229,
        "13785": 150,
        "13786": 65,
        "13787": 161,
        "13788": 14,
        "13789": 17,
        "13790": 98,
        "13791": 169,
        "13792": 58,
        "13793": 159,
        "13794": 174,
        "13795": 29,
        "13796": 185,
        "13797": 86,
        "13798": 125,
        "13799": 18,
        "13800": 100,
        "13801": 28,
        "13802": 55,
        "13803": 34,
        "13804": 142,
        "13805": 93,
        "13806": 180,
        "13807": 135,
        "13808": 86,
        "13809": 236,
        "13810": 108,
        "13811": 121,
        "13812": 226,
        "13813": 26,
        "13814": 232,
        "13815": 240,
        "13816": 117,
        "13817": 8,
        "13818": 161,
        "13819": 164,
        "13820": 109,
        "13821": 86,
        "13822": 41,
        "13823": 200,
        "13824": 61,
        "13825": 243,
        "13826": 130,
        "13827": 54,
        "13828": 27,
        "13829": 98,
        "13830": 133,
        "13831": 193,
        "13832": 90,
        "13833": 212,
        "13834": 24,
        "13835": 188,
        "13836": 47,
        "13837": 218,
        "13838": 62,
        "13839": 158,
        "13840": 104,
        "13841": 110,
        "13842": 187,
        "13843": 22,
        "13844": 106,
        "13845": 166,
        "13846": 215,
        "13847": 143,
        "13848": 35,
        "13849": 67,
        "13850": 137,
        "13851": 33,
        "13852": 26,
        "13853": 77,
        "13854": 225,
        "13855": 130,
        "13856": 41,
        "13857": 218,
        "13858": 61,
        "13859": 38,
        "13860": 16,
        "13861": 9,
        "13862": 166,
        "13863": 10,
        "13864": 78,
        "13865": 48,
        "13866": 140,
        "13867": 17,
        "13868": 161,
        "13869": 21,
        "13870": 51,
        "13871": 108,
        "13872": 107,
        "13873": 181,
        "13874": 219,
        "13875": 9,
        "13876": 95,
        "13877": 18,
        "13878": 168,
        "13879": 91,
        "13880": 130,
        "13881": 147,
        "13882": 55,
        "13883": 175,
        "13884": 104,
        "13885": 201,
        "13886": 78,
        "13887": 75,
        "13888": 198,
        "13889": 127,
        "13890": 148,
        "13891": 195,
        "13892": 164,
        "13893": 156,
        "13894": 138,
        "13895": 187,
        "13896": 148,
        "13897": 48,
        "13898": 248,
        "13899": 86,
        "13900": 132,
        "13901": 19,
        "13902": 255,
        "13903": 87,
        "13904": 140,
        "13905": 227,
        "13906": 79,
        "13907": 160,
        "13908": 34,
        "13909": 50,
        "13910": 75,
        "13911": 187,
        "13912": 37,
        "13913": 95,
        "13914": 108,
        "13915": 0,
        "13916": 197,
        "13917": 125,
        "13918": 212,
        "13919": 117,
        "13920": 255,
        "13921": 165,
        "13922": 240,
        "13923": 48,
        "13924": 185,
        "13925": 201,
        "13926": 40,
        "13927": 112,
        "13928": 133,
        "13929": 3,
        "13930": 64,
        "13931": 12,
        "13932": 68,
        "13933": 111,
        "13934": 154,
        "13935": 189,
        "13936": 187,
        "13937": 105,
        "13938": 218,
        "13939": 6,
        "13940": 95,
        "13941": 177,
        "13942": 161,
        "13943": 189,
        "13944": 210,
        "13945": 181,
        "13946": 21,
        "13947": 17,
        "13948": 97,
        "13949": 43,
        "13950": 59,
        "13951": 44,
        "13952": 131,
        "13953": 235,
        "13954": 182,
        "13955": 112,
        "13956": 244,
        "13957": 114,
        "13958": 253,
        "13959": 27,
        "13960": 145,
        "13961": 125,
        "13962": 7,
        "13963": 166,
        "13964": 239,
        "13965": 186,
        "13966": 63,
        "13967": 221,
        "13968": 38,
        "13969": 142,
        "13970": 163,
        "13971": 215,
        "13972": 10,
        "13973": 214,
        "13974": 238,
        "13975": 39,
        "13976": 227,
        "13977": 58,
        "13978": 65,
        "13979": 220,
        "13980": 244,
        "13981": 78,
        "13982": 204,
        "13983": 243,
        "13984": 169,
        "13985": 172,
        "13986": 82,
        "13987": 176,
        "13988": 103,
        "13989": 36,
        "13990": 145,
        "13991": 173,
        "13992": 27,
        "13993": 73,
        "13994": 243,
        "13995": 7,
        "13996": 67,
        "13997": 57,
        "13998": 0,
        "13999": 151,
        "14000": 222,
        "14001": 69,
        "14002": 237,
        "14003": 233,
        "14004": 244,
        "14005": 111,
        "14006": 53,
        "14007": 211,
        "14008": 142,
        "14009": 104,
        "14010": 203,
        "14011": 138,
        "14012": 41,
        "14013": 253,
        "14014": 136,
        "14015": 133,
        "14016": 247,
        "14017": 15,
        "14018": 255,
        "14019": 54,
        "14020": 27,
        "14021": 237,
        "14022": 218,
        "14023": 110,
        "14024": 180,
        "14025": 14,
        "14026": 99,
        "14027": 56,
        "14028": 207,
        "14029": 173,
        "14030": 214,
        "14031": 152,
        "14032": 79,
        "14033": 210,
        "14034": 128,
        "14035": 246,
        "14036": 172,
        "14037": 155,
        "14038": 17,
        "14039": 141,
        "14040": 27,
        "14041": 43,
        "14042": 174,
        "14043": 19,
        "14044": 31,
        "14045": 40,
        "14046": 189,
        "14047": 74,
        "14048": 5,
        "14049": 16,
        "14050": 54,
        "14051": 34,
        "14052": 195,
        "14053": 209,
        "14054": 121,
        "14055": 252,
        "14056": 103,
        "14057": 195,
        "14058": 20,
        "14059": 214,
        "14060": 49,
        "14061": 231,
        "14062": 10,
        "14063": 140,
        "14064": 146,
        "14065": 59,
        "14066": 162,
        "14067": 62,
        "14068": 179,
        "14069": 229,
        "14070": 118,
        "14071": 253,
        "14072": 23,
        "14073": 58,
        "14074": 15,
        "14075": 197,
        "14076": 109,
        "14077": 235,
        "14078": 186,
        "14079": 119,
        "14080": 180,
        "14081": 134,
        "14082": 97,
        "14083": 167,
        "14084": 194,
        "14085": 241,
        "14086": 220,
        "14087": 122,
        "14088": 2,
        "14089": 206,
        "14090": 245,
        "14091": 55,
        "14092": 204,
        "14093": 135,
        "14094": 164,
        "14095": 234,
        "14096": 80,
        "14097": 31,
        "14098": 200,
        "14099": 174,
        "14100": 182,
        "14101": 11,
        "14102": 140,
        "14103": 9,
        "14104": 64,
        "14105": 29,
        "14106": 169,
        "14107": 40,
        "14108": 78,
        "14109": 53,
        "14110": 40,
        "14111": 14,
        "14112": 98,
        "14113": 136,
        "14114": 180,
        "14115": 86,
        "14116": 180,
        "14117": 68,
        "14118": 209,
        "14119": 51,
        "14120": 246,
        "14121": 41,
        "14122": 131,
        "14123": 65,
        "14124": 49,
        "14125": 192,
        "14126": 115,
        "14127": 68,
        "14128": 33,
        "14129": 110,
        "14130": 1,
        "14131": 145,
        "14132": 134,
        "14133": 223,
        "14134": 58,
        "14135": 64,
        "14136": 134,
        "14137": 178,
        "14138": 90,
        "14139": 246,
        "14140": 175,
        "14141": 103,
        "14142": 198,
        "14143": 224,
        "14144": 206,
        "14145": 104,
        "14146": 247,
        "14147": 232,
        "14148": 106,
        "14149": 62,
        "14150": 71,
        "14151": 102,
        "14152": 89,
        "14153": 135,
        "14154": 140,
        "14155": 109,
        "14156": 255,
        "14157": 137,
        "14158": 183,
        "14159": 50,
        "14160": 111,
        "14161": 252,
        "14162": 49,
        "14163": 70,
        "14164": 102,
        "14165": 121,
        "14166": 75,
        "14167": 16,
        "14168": 249,
        "14169": 40,
        "14170": 250,
        "14171": 194,
        "14172": 9,
        "14173": 134,
        "14174": 46,
        "14175": 223,
        "14176": 164,
        "14177": 250,
        "14178": 81,
        "14179": 38,
        "14180": 9,
        "14181": 9,
        "14182": 73,
        "14183": 97,
        "14184": 243,
        "14185": 29,
        "14186": 165,
        "14187": 154,
        "14188": 0,
        "14189": 152,
        "14190": 137,
        "14191": 249,
        "14192": 185,
        "14193": 130,
        "14194": 0,
        "14195": 203,
        "14196": 124,
        "14197": 1,
        "14198": 98,
        "14199": 198,
        "14200": 32,
        "14201": 72,
        "14202": 239,
        "14203": 154,
        "14204": 244,
        "14205": 6,
        "14206": 86,
        "14207": 139,
        "14208": 152,
        "14209": 195,
        "14210": 76,
        "14211": 243,
        "14212": 113,
        "14213": 137,
        "14214": 242,
        "14215": 143,
        "14216": 20,
        "14217": 96,
        "14218": 36,
        "14219": 178,
        "14220": 255,
        "14221": 217,
        "14222": 130,
        "14223": 172,
        "14224": 131,
        "14225": 138,
        "14226": 215,
        "14227": 138,
        "14228": 104,
        "14229": 105,
        "14230": 186,
        "14231": 98,
        "14232": 49,
        "14233": 17,
        "14234": 209,
        "14235": 231,
        "14236": 177,
        "14237": 134,
        "14238": 4,
        "14239": 181,
        "14240": 92,
        "14241": 11,
        "14242": 86,
        "14243": 50,
        "14244": 60,
        "14245": 223,
        "14246": 3,
        "14247": 206,
        "14248": 93,
        "14249": 168,
        "14250": 121,
        "14251": 162,
        "14252": 24,
        "14253": 151,
        "14254": 243,
        "14255": 171,
        "14256": 95,
        "14257": 2,
        "14258": 35,
        "14259": 19,
        "14260": 79,
        "14261": 233,
        "14262": 166,
        "14263": 134,
        "14264": 20,
        "14265": 199,
        "14266": 115,
        "14267": 43,
        "14268": 215,
        "14269": 175,
        "14270": 202,
        "14271": 210,
        "14272": 197,
        "14273": 232,
        "14274": 89,
        "14275": 198,
        "14276": 181,
        "14277": 194,
        "14278": 20,
        "14279": 72,
        "14280": 241,
        "14281": 104,
        "14282": 41,
        "14283": 184,
        "14284": 52,
        "14285": 177,
        "14286": 59,
        "14287": 64,
        "14288": 199,
        "14289": 1,
        "14290": 97,
        "14291": 108,
        "14292": 102,
        "14293": 21,
        "14294": 214,
        "14295": 82,
        "14296": 80,
        "14297": 31,
        "14298": 6,
        "14299": 9,
        "14300": 233,
        "14301": 32,
        "14302": 152,
        "14303": 146,
        "14304": 98,
        "14305": 82,
        "14306": 110,
        "14307": 183,
        "14308": 14,
        "14309": 244,
        "14310": 63,
        "14311": 2,
        "14312": 26,
        "14313": 211,
        "14314": 86,
        "14315": 103,
        "14316": 246,
        "14317": 166,
        "14318": 41,
        "14319": 250,
        "14320": 245,
        "14321": 1,
        "14322": 248,
        "14323": 140,
        "14324": 180,
        "14325": 85,
        "14326": 167,
        "14327": 251,
        "14328": 120,
        "14329": 84,
        "14330": 240,
        "14331": 19,
        "14332": 86,
        "14333": 57,
        "14334": 62,
        "14335": 93,
        "14336": 4,
        "14337": 183,
        "14338": 106,
        "14339": 71,
        "14340": 169,
        "14341": 4,
        "14342": 25,
        "14343": 140,
        "14344": 200,
        "14345": 117,
        "14346": 236,
        "14347": 229,
        "14348": 80,
        "14349": 162,
        "14350": 65,
        "14351": 240,
        "14352": 105,
        "14353": 18,
        "14354": 132,
        "14355": 27,
        "14356": 115,
        "14357": 4,
        "14358": 1,
        "14359": 187,
        "14360": 47,
        "14361": 183,
        "14362": 192,
        "14363": 208,
        "14364": 92,
        "14365": 129,
        "14366": 124,
        "14367": 110,
        "14368": 18,
        "14369": 193,
        "14370": 125,
        "14371": 114,
        "14372": 170,
        "14373": 220,
        "14374": 129,
        "14375": 93,
        "14376": 213,
        "14377": 249,
        "14378": 102,
        "14379": 232,
        "14380": 2,
        "14381": 74,
        "14382": 116,
        "14383": 112,
        "14384": 29,
        "14385": 140,
        "14386": 16,
        "14387": 194,
        "14388": 109,
        "14389": 164,
        "14390": 115,
        "14391": 250,
        "14392": 249,
        "14393": 143,
        "14394": 223,
        "14395": 241,
        "14396": 86,
        "14397": 221,
        "14398": 30,
        "14399": 221,
        "14400": 145,
        "14401": 160,
        "14402": 81,
        "14403": 16,
        "14404": 64,
        "14405": 134,
        "14406": 23,
        "14407": 42,
        "14408": 223,
        "14409": 68,
        "14410": 88,
        "14411": 80,
        "14412": 155,
        "14413": 182,
        "14414": 41,
        "14415": 138,
        "14416": 131,
        "14417": 202,
        "14418": 207,
        "14419": 34,
        "14420": 232,
        "14421": 65,
        "14422": 47,
        "14423": 221,
        "14424": 221,
        "14425": 88,
        "14426": 31,
        "14427": 13,
        "14428": 250,
        "14429": 17,
        "14430": 242,
        "14431": 9,
        "14432": 7,
        "14433": 60,
        "14434": 244,
        "14435": 43,
        "14436": 74,
        "14437": 50,
        "14438": 173,
        "14439": 143,
        "14440": 206,
        "14441": 8,
        "14442": 211,
        "14443": 2,
        "14444": 108,
        "14445": 161,
        "14446": 48,
        "14447": 54,
        "14448": 12,
        "14449": 131,
        "14450": 14,
        "14451": 174,
        "14452": 151,
        "14453": 78,
        "14454": 149,
        "14455": 192,
        "14456": 174,
        "14457": 158,
        "14458": 205,
        "14459": 127,
        "14460": 41,
        "14461": 206,
        "14462": 125,
        "14463": 86,
        "14464": 133,
        "14465": 181,
        "14466": 31,
        "14467": 105,
        "14468": 36,
        "14469": 134,
        "14470": 249,
        "14471": 220,
        "14472": 33,
        "14473": 173,
        "14474": 93,
        "14475": 191,
        "14476": 235,
        "14477": 141,
        "14478": 200,
        "14479": 145,
        "14480": 17,
        "14481": 69,
        "14482": 177,
        "14483": 93,
        "14484": 115,
        "14485": 137,
        "14486": 128,
        "14487": 86,
        "14488": 20,
        "14489": 3,
        "14490": 199,
        "14491": 221,
        "14492": 218,
        "14493": 32,
        "14494": 217,
        "14495": 166,
        "14496": 1,
        "14497": 61,
        "14498": 188,
        "14499": 73,
        "14500": 29,
        "14501": 97,
        "14502": 27,
        "14503": 26,
        "14504": 176,
        "14505": 243,
        "14506": 89,
        "14507": 70,
        "14508": 204,
        "14509": 83,
        "14510": 132,
        "14511": 34,
        "14512": 65,
        "14513": 229,
        "14514": 49,
        "14515": 71,
        "14516": 140,
        "14517": 45,
        "14518": 214,
        "14519": 41,
        "14520": 68,
        "14521": 134,
        "14522": 187,
        "14523": 28,
        "14524": 6,
        "14525": 243,
        "14526": 74,
        "14527": 174,
        "14528": 162,
        "14529": 89,
        "14530": 77,
        "14531": 116,
        "14532": 17,
        "14533": 134,
        "14534": 193,
        "14535": 55,
        "14536": 10,
        "14537": 38,
        "14538": 209,
        "14539": 41,
        "14540": 152,
        "14541": 191,
        "14542": 210,
        "14543": 88,
        "14544": 246,
        "14545": 30,
        "14546": 69,
        "14547": 0,
        "14548": 108,
        "14549": 94,
        "14550": 37,
        "14551": 13,
        "14552": 183,
        "14553": 60,
        "14554": 68,
        "14555": 162,
        "14556": 116,
        "14557": 120,
        "14558": 86,
        "14559": 140,
        "14560": 67,
        "14561": 238,
        "14562": 224,
        "14563": 124,
        "14564": 251,
        "14565": 186,
        "14566": 52,
        "14567": 253,
        "14568": 26,
        "14569": 113,
        "14570": 204,
        "14571": 100,
        "14572": 175,
        "14573": 2,
        "14574": 212,
        "14575": 27,
        "14576": 170,
        "14577": 232,
        "14578": 16,
        "14579": 125,
        "14580": 69,
        "14581": 77,
        "14582": 167,
        "14583": 103,
        "14584": 118,
        "14585": 1,
        "14586": 66,
        "14587": 197,
        "14588": 145,
        "14589": 19,
        "14590": 182,
        "14591": 3,
        "14592": 164,
        "14593": 203,
        "14594": 86,
        "14595": 165,
        "14596": 159,
        "14597": 9,
        "14598": 10,
        "14599": 207,
        "14600": 100,
        "14601": 231,
        "14602": 54,
        "14603": 154,
        "14604": 38,
        "14605": 31,
        "14606": 27,
        "14607": 25,
        "14608": 68,
        "14609": 57,
        "14610": 130,
        "14611": 31,
        "14612": 46,
        "14613": 133,
        "14614": 248,
        "14615": 48,
        "14616": 64,
        "14617": 215,
        "14618": 20,
        "14619": 49,
        "14620": 72,
        "14621": 165,
        "14622": 240,
        "14623": 151,
        "14624": 230,
        "14625": 238,
        "14626": 200,
        "14627": 8,
        "14628": 249,
        "14629": 76,
        "14630": 86,
        "14631": 3,
        "14632": 145,
        "14633": 208,
        "14634": 33,
        "14635": 56,
        "14636": 251,
        "14637": 158,
        "14638": 147,
        "14639": 248,
        "14640": 248,
        "14641": 142,
        "14642": 196,
        "14643": 75,
        "14644": 39,
        "14645": 206,
        "14646": 205,
        "14647": 204,
        "14648": 119,
        "14649": 212,
        "14650": 225,
        "14651": 71,
        "14652": 153,
        "14653": 215,
        "14654": 40,
        "14655": 241,
        "14656": 189,
        "14657": 141,
        "14658": 108,
        "14659": 186,
        "14660": 234,
        "14661": 38,
        "14662": 227,
        "14663": 173,
        "14664": 187,
        "14665": 49,
        "14666": 63,
        "14667": 164,
        "14668": 144,
        "14669": 205,
        "14670": 31,
        "14671": 221,
        "14672": 111,
        "14673": 111,
        "14674": 179,
        "14675": 24,
        "14676": 228,
        "14677": 50,
        "14678": 204,
        "14679": 52,
        "14680": 117,
        "14681": 25,
        "14682": 177,
        "14683": 252,
        "14684": 119,
        "14685": 37,
        "14686": 211,
        "14687": 65,
        "14688": 226,
        "14689": 54,
        "14690": 39,
        "14691": 56,
        "14692": 148,
        "14693": 238,
        "14694": 92,
        "14695": 25,
        "14696": 181,
        "14697": 148,
        "14698": 130,
        "14699": 206,
        "14700": 214,
        "14701": 55,
        "14702": 41,
        "14703": 117,
        "14704": 250,
        "14705": 213,
        "14706": 159,
        "14707": 229,
        "14708": 151,
        "14709": 203,
        "14710": 187,
        "14711": 144,
        "14712": 253,
        "14713": 135,
        "14714": 124,
        "14715": 209,
        "14716": 28,
        "14717": 94,
        "14718": 248,
        "14719": 65,
        "14720": 192,
        "14721": 70,
        "14722": 130,
        "14723": 87,
        "14724": 18,
        "14725": 127,
        "14726": 104,
        "14727": 103,
        "14728": 11,
        "14729": 164,
        "14730": 180,
        "14731": 177,
        "14732": 44,
        "14733": 195,
        "14734": 3,
        "14735": 109,
        "14736": 199,
        "14737": 252,
        "14738": 74,
        "14739": 38,
        "14740": 204,
        "14741": 231,
        "14742": 19,
        "14743": 102,
        "14744": 156,
        "14745": 56,
        "14746": 76,
        "14747": 18,
        "14748": 132,
        "14749": 238,
        "14750": 184,
        "14751": 201,
        "14752": 14,
        "14753": 141,
        "14754": 72,
        "14755": 110,
        "14756": 238,
        "14757": 201,
        "14758": 67,
        "14759": 241,
        "14760": 204,
        "14761": 206,
        "14762": 182,
        "14763": 243,
        "14764": 76,
        "14765": 2,
        "14766": 46,
        "14767": 117,
        "14768": 240,
        "14769": 42,
        "14770": 210,
        "14771": 158,
        "14772": 176,
        "14773": 57,
        "14774": 153,
        "14775": 138,
        "14776": 180,
        "14777": 20,
        "14778": 111,
        "14779": 50,
        "14780": 120,
        "14781": 176,
        "14782": 22,
        "14783": 126,
        "14784": 183,
        "14785": 107,
        "14786": 250,
        "14787": 30,
        "14788": 49,
        "14789": 99,
        "14790": 13,
        "14791": 50,
        "14792": 183,
        "14793": 2,
        "14794": 186,
        "14795": 216,
        "14796": 72,
        "14797": 248,
        "14798": 141,
        "14799": 239,
        "14800": 65,
        "14801": 16,
        "14802": 241,
        "14803": 92,
        "14804": 236,
        "14805": 235,
        "14806": 51,
        "14807": 224,
        "14808": 67,
        "14809": 113,
        "14810": 88,
        "14811": 69,
        "14812": 183,
        "14813": 182,
        "14814": 60,
        "14815": 165,
        "14816": 135,
        "14817": 157,
        "14818": 112,
        "14819": 208,
        "14820": 54,
        "14821": 107,
        "14822": 27,
        "14823": 102,
        "14824": 176,
        "14825": 211,
        "14826": 50,
        "14827": 15,
        "14828": 171,
        "14829": 98,
        "14830": 240,
        "14831": 1,
        "14832": 95,
        "14833": 205,
        "14834": 150,
        "14835": 126,
        "14836": 253,
        "14837": 64,
        "14838": 33,
        "14839": 15,
        "14840": 38,
        "14841": 51,
        "14842": 126,
        "14843": 43,
        "14844": 24,
        "14845": 192,
        "14846": 27,
        "14847": 167,
        "14848": 221,
        "14849": 142,
        "14850": 24,
        "14851": 138,
        "14852": 160,
        "14853": 27,
        "14854": 187,
        "14855": 138,
        "14856": 26,
        "14857": 249,
        "14858": 203,
        "14859": 29,
        "14860": 186,
        "14861": 39,
        "14862": 173,
        "14863": 161,
        "14864": 219,
        "14865": 59,
        "14866": 142,
        "14867": 81,
        "14868": 52,
        "14869": 185,
        "14870": 189,
        "14871": 212,
        "14872": 216,
        "14873": 5,
        "14874": 66,
        "14875": 158,
        "14876": 224,
        "14877": 1,
        "14878": 121,
        "14879": 241,
        "14880": 186,
        "14881": 253,
        "14882": 157,
        "14883": 196,
        "14884": 20,
        "14885": 167,
        "14886": 67,
        "14887": 34,
        "14888": 154,
        "14889": 15,
        "14890": 110,
        "14891": 97,
        "14892": 145,
        "14893": 150,
        "14894": 93,
        "14895": 173,
        "14896": 208,
        "14897": 188,
        "14898": 103,
        "14899": 163,
        "14900": 98,
        "14901": 120,
        "14902": 101,
        "14903": 229,
        "14904": 149,
        "14905": 217,
        "14906": 88,
        "14907": 210,
        "14908": 80,
        "14909": 193,
        "14910": 211,
        "14911": 79,
        "14912": 168,
        "14913": 6,
        "14914": 61,
        "14915": 219,
        "14916": 217,
        "14917": 22,
        "14918": 9,
        "14919": 186,
        "14920": 82,
        "14921": 68,
        "14922": 169,
        "14923": 141,
        "14924": 92,
        "14925": 247,
        "14926": 99,
        "14927": 99,
        "14928": 4,
        "14929": 126,
        "14930": 37,
        "14931": 190,
        "14932": 95,
        "14933": 237,
        "14934": 35,
        "14935": 78,
        "14936": 239,
        "14937": 197,
        "14938": 191,
        "14939": 181,
        "14940": 52,
        "14941": 235,
        "14942": 135,
        "14943": 238,
        "14944": 48,
        "14945": 199,
        "14946": 71,
        "14947": 3,
        "14948": 229,
        "14949": 237,
        "14950": 143,
        "14951": 239,
        "14952": 173,
        "14953": 33,
        "14954": 25,
        "14955": 138,
        "14956": 222,
        "14957": 159,
        "14958": 248,
        "14959": 31,
        "14960": 96,
        "14961": 124,
        "14962": 158,
        "14963": 232,
        "14964": 173,
        "14965": 147,
        "14966": 143,
        "14967": 36,
        "14968": 202,
        "14969": 113,
        "14970": 64,
        "14971": 69,
        "14972": 184,
        "14973": 198,
        "14974": 112,
        "14975": 23,
        "14976": 249,
        "14977": 168,
        "14978": 156,
        "14979": 2,
        "14980": 251,
        "14981": 110,
        "14982": 160,
        "14983": 98,
        "14984": 166,
        "14985": 97,
        "14986": 121,
        "14987": 225,
        "14988": 60,
        "14989": 220,
        "14990": 124,
        "14991": 49,
        "14992": 217,
        "14993": 152,
        "14994": 23,
        "14995": 199,
        "14996": 130,
        "14997": 244,
        "14998": 2,
        "14999": 52,
        "15000": 224,
        "15001": 134,
        "15002": 239,
        "15003": 48,
        "15004": 66,
        "15005": 161,
        "15006": 249,
        "15007": 129,
        "15008": 168,
        "15009": 171,
        "15010": 173,
        "15011": 188,
        "15012": 77,
        "15013": 192,
        "15014": 38,
        "15015": 219,
        "15016": 58,
        "15017": 20,
        "15018": 151,
        "15019": 5,
        "15020": 241,
        "15021": 189,
        "15022": 122,
        "15023": 81,
        "15024": 169,
        "15025": 214,
        "15026": 192,
        "15027": 62,
        "15028": 11,
        "15029": 163,
        "15030": 93,
        "15031": 207,
        "15032": 87,
        "15033": 48,
        "15034": 157,
        "15035": 10,
        "15036": 159,
        "15037": 49,
        "15038": 73,
        "15039": 43,
        "15040": 4,
        "15041": 144,
        "15042": 160,
        "15043": 232,
        "15044": 237,
        "15045": 78,
        "15046": 227,
        "15047": 4,
        "15048": 246,
        "15049": 115,
        "15050": 85,
        "15051": 179,
        "15052": 84,
        "15053": 236,
        "15054": 187,
        "15055": 230,
        "15056": 186,
        "15057": 229,
        "15058": 149,
        "15059": 245,
        "15060": 58,
        "15061": 235,
        "15062": 70,
        "15063": 229,
        "15064": 16,
        "15065": 223,
        "15066": 33,
        "15067": 106,
        "15068": 175,
        "15069": 88,
        "15070": 35,
        "15071": 199,
        "15072": 36,
        "15073": 188,
        "15074": 171,
        "15075": 207,
        "15076": 29,
        "15077": 248,
        "15078": 13,
        "15079": 204,
        "15080": 95,
        "15081": 229,
        "15082": 148,
        "15083": 15,
        "15084": 53,
        "15085": 17,
        "15086": 209,
        "15087": 63,
        "15088": 150,
        "15089": 48,
        "15090": 159,
        "15091": 135,
        "15092": 4,
        "15093": 28,
        "15094": 194,
        "15095": 81,
        "15096": 220,
        "15097": 167,
        "15098": 149,
        "15099": 55,
        "15100": 183,
        "15101": 181,
        "15102": 151,
        "15103": 137,
        "15104": 242,
        "15105": 210,
        "15106": 234,
        "15107": 76,
        "15108": 211,
        "15109": 57,
        "15110": 49,
        "15111": 248,
        "15112": 138,
        "15113": 233,
        "15114": 45,
        "15115": 236,
        "15116": 195,
        "15117": 12,
        "15118": 247,
        "15119": 11,
        "15120": 85,
        "15121": 94,
        "15122": 173,
        "15123": 246,
        "15124": 151,
        "15125": 1,
        "15126": 190,
        "15127": 27,
        "15128": 166,
        "15129": 74,
        "15130": 116,
        "15131": 126,
        "15132": 128,
        "15133": 132,
        "15134": 186,
        "15135": 169,
        "15136": 8,
        "15137": 173,
        "15138": 162,
        "15139": 58,
        "15140": 246,
        "15141": 104,
        "15142": 76,
        "15143": 172,
        "15144": 48,
        "15145": 86,
        "15146": 22,
        "15147": 15,
        "15148": 224,
        "15149": 192,
        "15150": 130,
        "15151": 23,
        "15152": 86,
        "15153": 87,
        "15154": 155,
        "15155": 145,
        "15156": 108,
        "15157": 66,
        "15158": 158,
        "15159": 165,
        "15160": 140,
        "15161": 171,
        "15162": 179,
        "15163": 132,
        "15164": 4,
        "15165": 200,
        "15166": 178,
        "15167": 71,
        "15168": 89,
        "15169": 89,
        "15170": 204,
        "15171": 209,
        "15172": 93,
        "15173": 255,
        "15174": 239,
        "15175": 230,
        "15176": 40,
        "15177": 164,
        "15178": 79,
        "15179": 74,
        "15180": 136,
        "15181": 239,
        "15182": 56,
        "15183": 186,
        "15184": 174,
        "15185": 206,
        "15186": 204,
        "15187": 116,
        "15188": 34,
        "15189": 226,
        "15190": 70,
        "15191": 25,
        "15192": 136,
        "15193": 164,
        "15194": 179,
        "15195": 76,
        "15196": 77,
        "15197": 223,
        "15198": 53,
        "15199": 197,
        "15200": 27,
        "15201": 172,
        "15202": 234,
        "15203": 233,
        "15204": 156,
        "15205": 40,
        "15206": 142,
        "15207": 74,
        "15208": 79,
        "15209": 165,
        "15210": 248,
        "15211": 249,
        "15212": 151,
        "15213": 243,
        "15214": 218,
        "15215": 114,
        "15216": 222,
        "15217": 14,
        "15218": 8,
        "15219": 45,
        "15220": 137,
        "15221": 139,
        "15222": 2,
        "15223": 97,
        "15224": 1,
        "15225": 114,
        "15226": 200,
        "15227": 81,
        "15228": 9,
        "15229": 31,
        "15230": 45,
        "15231": 175,
        "15232": 126,
        "15233": 182,
        "15234": 22,
        "15235": 90,
        "15236": 171,
        "15237": 148,
        "15238": 155,
        "15239": 26,
        "15240": 85,
        "15241": 242,
        "15242": 159,
        "15243": 176,
        "15244": 18,
        "15245": 36,
        "15246": 232,
        "15247": 143,
        "15248": 111,
        "15249": 123,
        "15250": 12,
        "15251": 130,
        "15252": 114,
        "15253": 179,
        "15254": 183,
        "15255": 224,
        "15256": 225,
        "15257": 155,
        "15258": 120,
        "15259": 75,
        "15260": 121,
        "15261": 20,
        "15262": 107,
        "15263": 166,
        "15264": 173,
        "15265": 131,
        "15266": 130,
        "15267": 146,
        "15268": 129,
        "15269": 83,
        "15270": 83,
        "15271": 51,
        "15272": 214,
        "15273": 124,
        "15274": 221,
        "15275": 52,
        "15276": 111,
        "15277": 5,
        "15278": 88,
        "15279": 77,
        "15280": 185,
        "15281": 148,
        "15282": 8,
        "15283": 11,
        "15284": 222,
        "15285": 77,
        "15286": 219,
        "15287": 191,
        "15288": 253,
        "15289": 148,
        "15290": 175,
        "15291": 38,
        "15292": 250,
        "15293": 101,
        "15294": 176,
        "15295": 80,
        "15296": 65,
        "15297": 80,
        "15298": 20,
        "15299": 18,
        "15300": 130,
        "15301": 231,
        "15302": 74,
        "15303": 204,
        "15304": 225,
        "15305": 14,
        "15306": 136,
        "15307": 109,
        "15308": 91,
        "15309": 129,
        "15310": 200,
        "15311": 17,
        "15312": 162,
        "15313": 50,
        "15314": 46,
        "15315": 248,
        "15316": 72,
        "15317": 230,
        "15318": 124,
        "15319": 250,
        "15320": 98,
        "15321": 246,
        "15322": 12,
        "15323": 134,
        "15324": 81,
        "15325": 102,
        "15326": 202,
        "15327": 64,
        "15328": 227,
        "15329": 151,
        "15330": 67,
        "15331": 249,
        "15332": 106,
        "15333": 20,
        "15334": 230,
        "15335": 72,
        "15336": 91,
        "15337": 0,
        "15338": 76,
        "15339": 109,
        "15340": 106,
        "15341": 39,
        "15342": 8,
        "15343": 55,
        "15344": 131,
        "15345": 29,
        "15346": 222,
        "15347": 120,
        "15348": 171,
        "15349": 114,
        "15350": 162,
        "15351": 15,
        "15352": 207,
        "15353": 114,
        "15354": 19,
        "15355": 34,
        "15356": 79,
        "15357": 196,
        "15358": 173,
        "15359": 193,
        "15360": 117,
        "15361": 9,
        "15362": 50,
        "15363": 131,
        "15364": 239,
        "15365": 221,
        "15366": 68,
        "15367": 158,
        "15368": 33,
        "15369": 33,
        "15370": 176,
        "15371": 64,
        "15372": 62,
        "15373": 229,
        "15374": 239,
        "15375": 182,
        "15376": 78,
        "15377": 14,
        "15378": 239,
        "15379": 73,
        "15380": 19,
        "15381": 244,
        "15382": 202,
        "15383": 58,
        "15384": 88,
        "15385": 163,
        "15386": 59,
        "15387": 27,
        "15388": 241,
        "15389": 207,
        "15390": 206,
        "15391": 42,
        "15392": 143,
        "15393": 38,
        "15394": 183,
        "15395": 100,
        "15396": 234,
        "15397": 96,
        "15398": 166,
        "15399": 150,
        "15400": 211,
        "15401": 224,
        "15402": 131,
        "15403": 117,
        "15404": 38,
        "15405": 221,
        "15406": 101,
        "15407": 89,
        "15408": 102,
        "15409": 56,
        "15410": 230,
        "15411": 217,
        "15412": 71,
        "15413": 155,
        "15414": 96,
        "15415": 7,
        "15416": 123,
        "15417": 221,
        "15418": 165,
        "15419": 38,
        "15420": 198,
        "15421": 41,
        "15422": 152,
        "15423": 72,
        "15424": 99,
        "15425": 112,
        "15426": 81,
        "15427": 129,
        "15428": 15,
        "15429": 13,
        "15430": 79,
        "15431": 227,
        "15432": 82,
        "15433": 95,
        "15434": 204,
        "15435": 32,
        "15436": 175,
        "15437": 195,
        "15438": 219,
        "15439": 4,
        "15440": 193,
        "15441": 97,
        "15442": 37,
        "15443": 119,
        "15444": 229,
        "15445": 100,
        "15446": 40,
        "15447": 38,
        "15448": 71,
        "15449": 152,
        "15450": 99,
        "15451": 48,
        "15452": 226,
        "15453": 54,
        "15454": 248,
        "15455": 129,
        "15456": 172,
        "15457": 2,
        "15458": 79,
        "15459": 196,
        "15460": 209,
        "15461": 175,
        "15462": 237,
        "15463": 54,
        "15464": 118,
        "15465": 127,
        "15466": 250,
        "15467": 26,
        "15468": 24,
        "15469": 47,
        "15470": 185,
        "15471": 128,
        "15472": 63,
        "15473": 185,
        "15474": 230,
        "15475": 95,
        "15476": 234,
        "15477": 104,
        "15478": 97,
        "15479": 96,
        "15480": 113,
        "15481": 227,
        "15482": 193,
        "15483": 187,
        "15484": 114,
        "15485": 131,
        "15486": 217,
        "15487": 86,
        "15488": 239,
        "15489": 246,
        "15490": 67,
        "15491": 12,
        "15492": 200,
        "15493": 156,
        "15494": 23,
        "15495": 192,
        "15496": 211,
        "15497": 239,
        "15498": 126,
        "15499": 209,
        "15500": 20,
        "15501": 11,
        "15502": 244,
        "15503": 13,
        "15504": 98,
        "15505": 16,
        "15506": 121,
        "15507": 184,
        "15508": 94,
        "15509": 241,
        "15510": 126,
        "15511": 222,
        "15512": 61,
        "15513": 36,
        "15514": 29,
        "15515": 20,
        "15516": 2,
        "15517": 199,
        "15518": 80,
        "15519": 93,
        "15520": 157,
        "15521": 194,
        "15522": 231,
        "15523": 97,
        "15524": 102,
        "15525": 1,
        "15526": 70,
        "15527": 152,
        "15528": 251,
        "15529": 173,
        "15530": 69,
        "15531": 28,
        "15532": 64,
        "15533": 15,
        "15534": 89,
        "15535": 154,
        "15536": 217,
        "15537": 68,
        "15538": 42,
        "15539": 214,
        "15540": 247,
        "15541": 222,
        "15542": 237,
        "15543": 166,
        "15544": 35,
        "15545": 209,
        "15546": 11,
        "15547": 223,
        "15548": 169,
        "15549": 97,
        "15550": 141,
        "15551": 117,
        "15552": 170,
        "15553": 47,
        "15554": 97,
        "15555": 160,
        "15556": 30,
        "15557": 246,
        "15558": 149,
        "15559": 76,
        "15560": 97,
        "15561": 241,
        "15562": 159,
        "15563": 1,
        "15564": 216,
        "15565": 11,
        "15566": 152,
        "15567": 188,
        "15568": 121,
        "15569": 244,
        "15570": 88,
        "15571": 200,
        "15572": 35,
        "15573": 128,
        "15574": 58,
        "15575": 87,
        "15576": 97,
        "15577": 39,
        "15578": 11,
        "15579": 141,
        "15580": 69,
        "15581": 230,
        "15582": 153,
        "15583": 16,
        "15584": 29,
        "15585": 163,
        "15586": 202,
        "15587": 101,
        "15588": 200,
        "15589": 86,
        "15590": 95,
        "15591": 208,
        "15592": 207,
        "15593": 139,
        "15594": 85,
        "15595": 184,
        "15596": 17,
        "15597": 188,
        "15598": 178,
        "15599": 101,
        "15600": 226,
        "15601": 59,
        "15602": 210,
        "15603": 149,
        "15604": 104,
        "15605": 137,
        "15606": 180,
        "15607": 126,
        "15608": 102,
        "15609": 104,
        "15610": 211,
        "15611": 13,
        "15612": 239,
        "15613": 37,
        "15614": 82,
        "15615": 38,
        "15616": 147,
        "15617": 85,
        "15618": 225,
        "15619": 120,
        "15620": 93,
        "15621": 25,
        "15622": 164,
        "15623": 54,
        "15624": 139,
        "15625": 44,
        "15626": 244,
        "15627": 209,
        "15628": 33,
        "15629": 19,
        "15630": 88,
        "15631": 127,
        "15632": 165,
        "15633": 134,
        "15634": 252,
        "15635": 189,
        "15636": 59,
        "15637": 154,
        "15638": 134,
        "15639": 7,
        "15640": 233,
        "15641": 141,
        "15642": 191,
        "15643": 211,
        "15644": 90,
        "15645": 241,
        "15646": 124,
        "15647": 212,
        "15648": 177,
        "15649": 18,
        "15650": 236,
        "15651": 127,
        "15652": 191,
        "15653": 21,
        "15654": 11,
        "15655": 245,
        "15656": 21,
        "15657": 95,
        "15658": 23,
        "15659": 71,
        "15660": 50,
        "15661": 97,
        "15662": 150,
        "15663": 242,
        "15664": 213,
        "15665": 17,
        "15666": 147,
        "15667": 157,
        "15668": 242,
        "15669": 175,
        "15670": 104,
        "15671": 203,
        "15672": 202,
        "15673": 245,
        "15674": 77,
        "15675": 115,
        "15676": 12,
        "15677": 62,
        "15678": 52,
        "15679": 113,
        "15680": 48,
        "15681": 127,
        "15682": 223,
        "15683": 121,
        "15684": 154,
        "15685": 91,
        "15686": 7,
        "15687": 87,
        "15688": 167,
        "15689": 200,
        "15690": 122,
        "15691": 247,
        "15692": 12,
        "15693": 243,
        "15694": 135,
        "15695": 104,
        "15696": 68,
        "15697": 20,
        "15698": 27,
        "15699": 255,
        "15700": 33,
        "15701": 198,
        "15702": 100,
        "15703": 186,
        "15704": 57,
        "15705": 248,
        "15706": 245,
        "15707": 221,
        "15708": 150,
        "15709": 117,
        "15710": 200,
        "15711": 144,
        "15712": 180,
        "15713": 123,
        "15714": 8,
        "15715": 49,
        "15716": 174,
        "15717": 84,
        "15718": 117,
        "15719": 217,
        "15720": 94,
        "15721": 9,
        "15722": 55,
        "15723": 12,
        "15724": 128,
        "15725": 111,
        "15726": 174,
        "15727": 179,
        "15728": 15,
        "15729": 176,
        "15730": 78,
        "15731": 55,
        "15732": 52,
        "15733": 192,
        "15734": 226,
        "15735": 227,
        "15736": 243,
        "15737": 177,
        "15738": 134,
        "15739": 225,
        "15740": 195,
        "15741": 125,
        "15742": 135,
        "15743": 17,
        "15744": 122,
        "15745": 168,
        "15746": 184,
        "15747": 250,
        "15748": 241,
        "15749": 11,
        "15750": 78,
        "15751": 9,
        "15752": 39,
        "15753": 196,
        "15754": 170,
        "15755": 233,
        "15756": 170,
        "15757": 161,
        "15758": 212,
        "15759": 56,
        "15760": 239,
        "15761": 248,
        "15762": 168,
        "15763": 106,
        "15764": 85,
        "15765": 210,
        "15766": 33,
        "15767": 188,
        "15768": 21,
        "15769": 111,
        "15770": 51,
        "15771": 245,
        "15772": 127,
        "15773": 187,
        "15774": 243,
        "15775": 96,
        "15776": 114,
        "15777": 141,
        "15778": 177,
        "15779": 123,
        "15780": 47,
        "15781": 182,
        "15782": 193,
        "15783": 195,
        "15784": 250,
        "15785": 128,
        "15786": 236,
        "15787": 92,
        "15788": 249,
        "15789": 129,
        "15790": 172,
        "15791": 65,
        "15792": 219,
        "15793": 62,
        "15794": 72,
        "15795": 13,
        "15796": 67,
        "15797": 2,
        "15798": 146,
        "15799": 249,
        "15800": 246,
        "15801": 173,
        "15802": 19,
        "15803": 166,
        "15804": 181,
        "15805": 232,
        "15806": 134,
        "15807": 125,
        "15808": 130,
        "15809": 10,
        "15810": 91,
        "15811": 252,
        "15812": 44,
        "15813": 163,
        "15814": 168,
        "15815": 235,
        "15816": 139,
        "15817": 158,
        "15818": 142,
        "15819": 88,
        "15820": 192,
        "15821": 233,
        "15822": 132,
        "15823": 54,
        "15824": 152,
        "15825": 171,
        "15826": 230,
        "15827": 64,
        "15828": 30,
        "15829": 172,
        "15830": 214,
        "15831": 185,
        "15832": 121,
        "15833": 159,
        "15834": 163,
        "15835": 64,
        "15836": 88,
        "15837": 8,
        "15838": 240,
        "15839": 117,
        "15840": 87,
        "15841": 182,
        "15842": 77,
        "15843": 108,
        "15844": 93,
        "15845": 197,
        "15846": 185,
        "15847": 92,
        "15848": 153,
        "15849": 180,
        "15850": 245,
        "15851": 41,
        "15852": 157,
        "15853": 126,
        "15854": 86,
        "15855": 46,
        "15856": 151,
        "15857": 16,
        "15858": 167,
        "15859": 116,
        "15860": 253,
        "15861": 110,
        "15862": 177,
        "15863": 99,
        "15864": 184,
        "15865": 98,
        "15866": 39,
        "15867": 87,
        "15868": 254,
        "15869": 127,
        "15870": 121,
        "15871": 249,
        "15872": 37,
        "15873": 102,
        "15874": 121,
        "15875": 135,
        "15876": 26,
        "15877": 141,
        "15878": 176,
        "15879": 107,
        "15880": 193,
        "15881": 144,
        "15882": 223,
        "15883": 238,
        "15884": 111,
        "15885": 246,
        "15886": 139,
        "15887": 149,
        "15888": 94,
        "15889": 181,
        "15890": 134,
        "15891": 109,
        "15892": 4,
        "15893": 194,
        "15894": 35,
        "15895": 202,
        "15896": 232,
        "15897": 153,
        "15898": 184,
        "15899": 212,
        "15900": 160,
        "15901": 86,
        "15902": 254,
        "15903": 167,
        "15904": 120,
        "15905": 59,
        "15906": 169,
        "15907": 39,
        "15908": 248,
        "15909": 201,
        "15910": 43,
        "15911": 158,
        "15912": 181,
        "15913": 79,
        "15914": 134,
        "15915": 143,
        "15916": 142,
        "15917": 211,
        "15918": 13,
        "15919": 188,
        "15920": 64,
        "15921": 117,
        "15922": 250,
        "15923": 156,
        "15924": 93,
        "15925": 33,
        "15926": 218,
        "15927": 75,
        "15928": 238,
        "15929": 135,
        "15930": 88,
        "15931": 56,
        "15932": 96,
        "15933": 44,
        "15934": 242,
        "15935": 209,
        "15936": 0,
        "15937": 12,
        "15938": 58,
        "15939": 85,
        "15940": 113,
        "15941": 228,
        "15942": 100,
        "15943": 50,
        "15944": 51,
        "15945": 155,
        "15946": 216,
        "15947": 231,
        "15948": 78,
        "15949": 226,
        "15950": 245,
        "15951": 63,
        "15952": 105,
        "15953": 233,
        "15954": 39,
        "15955": 202,
        "15956": 18,
        "15957": 123,
        "15958": 151,
        "15959": 72,
        "15960": 42,
        "15961": 23,
        "15962": 224,
        "15963": 47,
        "15964": 15,
        "15965": 58,
        "15966": 166,
        "15967": 196,
        "15968": 222,
        "15969": 247,
        "15970": 228,
        "15971": 224,
        "15972": 203,
        "15973": 68,
        "15974": 18,
        "15975": 34,
        "15976": 176,
        "15977": 196,
        "15978": 149,
        "15979": 211,
        "15980": 149,
        "15981": 255,
        "15982": 136,
        "15983": 165,
        "15984": 203,
        "15985": 234,
        "15986": 187,
        "15987": 241,
        "15988": 130,
        "15989": 254,
        "15990": 13,
        "15991": 213,
        "15992": 210,
        "15993": 137,
        "15994": 189,
        "15995": 2,
        "15996": 99,
        "15997": 43,
        "15998": 148,
        "15999": 88,
        "16000": 191,
        "16001": 158,
        "16002": 242,
        "16003": 38,
        "16004": 115,
        "16005": 75,
        "16006": 57,
        "16007": 253,
        "16008": 44,
        "16009": 119,
        "16010": 17,
        "16011": 147,
        "16012": 3,
        "16013": 239,
        "16014": 81,
        "16015": 29,
        "16016": 114,
        "16017": 246,
        "16018": 230,
        "16019": 57,
        "16020": 174,
        "16021": 104,
        "16022": 156,
        "16023": 110,
        "16024": 152,
        "16025": 196,
        "16026": 36,
        "16027": 212,
        "16028": 95,
        "16029": 3,
        "16030": 75,
        "16031": 75,
        "16032": 239,
        "16033": 129,
        "16034": 41,
        "16035": 225,
        "16036": 15,
        "16037": 254,
        "16038": 102,
        "16039": 91,
        "16040": 17,
        "16041": 44,
        "16042": 58,
        "16043": 217,
        "16044": 242,
        "16045": 204,
        "16046": 148,
        "16047": 238,
        "16048": 154,
        "16049": 212,
        "16050": 72,
        "16051": 197,
        "16052": 130,
        "16053": 111,
        "16054": 24,
        "16055": 243,
        "16056": 33,
        "16057": 140,
        "16058": 74,
        "16059": 143,
        "16060": 85,
        "16061": 103,
        "16062": 46,
        "16063": 146,
        "16064": 66,
        "16065": 155,
        "16066": 199,
        "16067": 23,
        "16068": 63,
        "16069": 53,
        "16070": 125,
        "16071": 199,
        "16072": 88,
        "16073": 169,
        "16074": 180,
        "16075": 128,
        "16076": 36,
        "16077": 123,
        "16078": 88,
        "16079": 106,
        "16080": 9,
        "16081": 31,
        "16082": 114,
        "16083": 164,
        "16084": 86,
        "16085": 111,
        "16086": 40,
        "16087": 223,
        "16088": 139,
        "16089": 253,
        "16090": 162,
        "16091": 106,
        "16092": 195,
        "16093": 106,
        "16094": 200,
        "16095": 233,
        "16096": 237,
        "16097": 20,
        "16098": 236,
        "16099": 66,
        "16100": 67,
        "16101": 114,
        "16102": 66,
        "16103": 207,
        "16104": 50,
        "16105": 194,
        "16106": 85,
        "16107": 231,
        "16108": 252,
        "16109": 213,
        "16110": 12,
        "16111": 4,
        "16112": 67,
        "16113": 49,
        "16114": 80,
        "16115": 206,
        "16116": 52,
        "16117": 82,
        "16118": 205,
        "16119": 246,
        "16120": 97,
        "16121": 181,
        "16122": 150,
        "16123": 126,
        "16124": 56,
        "16125": 246,
        "16126": 47,
        "16127": 82,
        "16128": 61,
        "16129": 246,
        "16130": 233,
        "16131": 16,
        "16132": 52,
        "16133": 55,
        "16134": 197,
        "16135": 74,
        "16136": 171,
        "16137": 191,
        "16138": 126,
        "16139": 6,
        "16140": 121,
        "16141": 38,
        "16142": 127,
        "16143": 47,
        "16144": 244,
        "16145": 83,
        "16146": 132,
        "16147": 179,
        "16148": 127,
        "16149": 198,
        "16150": 127,
        "16151": 68,
        "16152": 7,
        "16153": 217,
        "16154": 185,
        "16155": 230,
        "16156": 32,
        "16157": 177,
        "16158": 221,
        "16159": 133,
        "16160": 49,
        "16161": 225,
        "16162": 103,
        "16163": 252,
        "16164": 137,
        "16165": 27,
        "16166": 41,
        "16167": 9,
        "16168": 23,
        "16169": 28,
        "16170": 75,
        "16171": 139,
        "16172": 8,
        "16173": 80,
        "16174": 118,
        "16175": 247,
        "16176": 113,
        "16177": 78,
        "16178": 170,
        "16179": 75,
        "16180": 106,
        "16181": 225,
        "16182": 59,
        "16183": 57,
        "16184": 164,
        "16185": 25,
        "16186": 100,
        "16187": 17,
        "16188": 171,
        "16189": 233,
        "16190": 212,
        "16191": 85,
        "16192": 108,
        "16193": 153,
        "16194": 42,
        "16195": 16,
        "16196": 223,
        "16197": 138,
        "16198": 210,
        "16199": 68,
        "16200": 81,
        "16201": 118,
        "16202": 19,
        "16203": 194,
        "16204": 162,
        "16205": 31,
        "16206": 79,
        "16207": 69,
        "16208": 202,
        "16209": 191,
        "16210": 147,
        "16211": 34,
        "16212": 153,
        "16213": 92,
        "16214": 238,
        "16215": 105,
        "16216": 71,
        "16217": 204,
        "16218": 156,
        "16219": 210,
        "16220": 233,
        "16221": 4,
        "16222": 89,
        "16223": 52,
        "16224": 15,
        "16225": 94,
        "16226": 56,
        "16227": 174,
        "16228": 38,
        "16229": 45,
        "16230": 73,
        "16231": 55,
        "16232": 162,
        "16233": 134,
        "16234": 241,
        "16235": 67,
        "16236": 11,
        "16237": 85,
        "16238": 127,
        "16239": 7,
        "16240": 232,
        "16241": 165,
        "16242": 252,
        "16243": 203,
        "16244": 108,
        "16245": 135,
        "16246": 229,
        "16247": 190,
        "16248": 4,
        "16249": 172,
        "16250": 90,
        "16251": 177,
        "16252": 74,
        "16253": 52,
        "16254": 169,
        "16255": 104,
        "16256": 71,
        "16257": 84,
        "16258": 202,
        "16259": 111,
        "16260": 3,
        "16261": 100,
        "16262": 197,
        "16263": 14,
        "16264": 145,
        "16265": 253,
        "16266": 162,
        "16267": 209,
        "16268": 254,
        "16269": 111,
        "16270": 203,
        "16271": 241,
        "16272": 223,
        "16273": 61,
        "16274": 20,
        "16275": 250,
        "16276": 79,
        "16277": 147,
        "16278": 133,
        "16279": 185,
        "16280": 38,
        "16281": 246,
        "16282": 249,
        "16283": 98,
        "16284": 134,
        "16285": 82,
        "16286": 178,
        "16287": 159,
        "16288": 147,
        "16289": 222,
        "16290": 46,
        "16291": 236,
        "16292": 54,
        "16293": 78,
        "16294": 144,
        "16295": 196,
        "16296": 218,
        "16297": 253,
        "16298": 220,
        "16299": 236,
        "16300": 46,
        "16301": 212,
        "16302": 246,
        "16303": 108,
        "16304": 197,
        "16305": 138,
        "16306": 235,
        "16307": 51,
        "16308": 115,
        "16309": 143,
        "16310": 185,
        "16311": 11,
        "16312": 79,
        "16313": 120,
        "16314": 10,
        "16315": 208,
        "16316": 211,
        "16317": 170,
        "16318": 246,
        "16319": 78,
        "16320": 138,
        "16321": 238,
        "16322": 218,
        "16323": 59,
        "16324": 15,
        "16325": 161,
        "16326": 99,
        "16327": 80,
        "16328": 224,
        "16329": 239,
        "16330": 39,
        "16331": 237,
        "16332": 218,
        "16333": 127,
        "16334": 29,
        "16335": 24,
        "16336": 59,
        "16337": 38,
        "16338": 136,
        "16339": 159,
        "16340": 47,
        "16341": 131,
        "16342": 201,
        "16343": 118,
        "16344": 92,
        "16345": 254,
        "16346": 11,
        "16347": 229,
        "16348": 58,
        "16349": 164,
        "16350": 197,
        "16351": 78,
        "16352": 52,
        "16353": 66,
        "16354": 72,
        "16355": 49,
        "16356": 48,
        "16357": 215,
        "16358": 218,
        "16359": 101,
        "16360": 96,
        "16361": 41,
        "16362": 89,
        "16363": 79,
        "16364": 151,
        "16365": 234,
        "16366": 26,
        "16367": 60,
        "16368": 10,
        "16369": 99,
        "16370": 22,
        "16371": 87,
        "16372": 93,
        "16373": 18,
        "16374": 9,
        "16375": 253,
        "16376": 217,
        "16377": 24,
        "16378": 140,
        "16379": 86,
        "16380": 89,
        "16381": 242,
        "16382": 203,
        "16383": 86,
        "16384": 187,
        "16385": 8,
        "16386": 13,
        "16387": 46,
        "16388": 252,
        "16389": 228,
        "16390": 69,
        "16391": 199,
        "16392": 182,
        "16393": 118,
        "16394": 118,
        "16395": 251,
        "16396": 32,
        "16397": 118,
        "16398": 225,
        "16399": 238,
        "16400": 163,
        "16401": 4,
        "16402": 182,
        "16403": 105,
        "16404": 92,
        "16405": 145,
        "16406": 43,
        "16407": 88,
        "16408": 76,
        "16409": 30,
        "16410": 158,
        "16411": 132,
        "16412": 196,
        "16413": 174,
        "16414": 192,
        "16415": 90,
        "16416": 28,
        "16417": 7,
        "16418": 2,
        "16419": 54,
        "16420": 66,
        "16421": 3,
        "16422": 143,
        "16423": 127,
        "16424": 57,
        "16425": 2,
        "16426": 147,
        "16427": 147,
        "16428": 130,
        "16429": 49,
        "16430": 69,
        "16431": 79,
        "16432": 165,
        "16433": 163,
        "16434": 203,
        "16435": 86,
        "16436": 91,
        "16437": 234,
        "16438": 155,
        "16439": 11,
        "16440": 72,
        "16441": 201,
        "16442": 86,
        "16443": 38,
        "16444": 132,
        "16445": 137,
        "16446": 22,
        "16447": 95,
        "16448": 3,
        "16449": 74,
        "16450": 156,
        "16451": 63,
        "16452": 66,
        "16453": 230,
        "16454": 94,
        "16455": 102,
        "16456": 78,
        "16457": 230,
        "16458": 47,
        "16459": 21,
        "16460": 17,
        "16461": 51,
        "16462": 35,
        "16463": 154,
        "16464": 8,
        "16465": 153,
        "16466": 58,
        "16467": 239,
        "16468": 214,
        "16469": 140,
        "16470": 209,
        "16471": 218,
        "16472": 144,
        "16473": 209,
        "16474": 193,
        "16475": 192,
        "16476": 39,
        "16477": 0,
        "16478": 14,
        "16479": 211,
        "16480": 29,
        "16481": 90,
        "16482": 46,
        "16483": 86,
        "16484": 222,
        "16485": 200,
        "16486": 169,
        "16487": 137,
        "16488": 154,
        "16489": 52,
        "16490": 33,
        "16491": 121,
        "16492": 76,
        "16493": 122,
        "16494": 182,
        "16495": 132,
        "16496": 165,
        "16497": 188,
        "16498": 168,
        "16499": 42,
        "16500": 136,
        "16501": 23,
        "16502": 122,
        "16503": 132,
        "16504": 74,
        "16505": 10,
        "16506": 170,
        "16507": 177,
        "16508": 240,
        "16509": 86,
        "16510": 130,
        "16511": 84,
        "16512": 96,
        "16513": 107,
        "16514": 110,
        "16515": 180,
        "16516": 1,
        "16517": 33,
        "16518": 13,
        "16519": 150,
        "16520": 1,
        "16521": 8,
        "16522": 0,
        "16523": 0,
        "16524": 0,
        "16525": 0,
        "16526": 0,
        "16527": 0,
        "16528": 16,
        "16529": 0,
        "16530": 0,
        "16531": 0,
        "16532": 0,
        "16533": 0,
        "16534": 0,
        "16535": 0,
        "16536": 0,
        "16537": 0,
        "16538": 0,
        "16539": 0,
        "16540": 0,
        "16541": 0,
        "16542": 0,
        "16543": 0,
        "16544": 0,
        "16545": 0,
        "16546": 0,
        "16547": 0,
        "16548": 0,
        "16549": 0,
        "16550": 0,
        "16551": 0,
        "16552": 64,
        "16553": 0,
        "16554": 0,
        "16555": 0,
        "16556": 0,
        "16557": 0,
        "16558": 0,
        "16559": 0,
        "16560": 3,
        "16561": 0,
        "16562": 0,
        "16563": 0,
        "16564": 0,
        "16565": 0,
        "16566": 0,
        "16567": 0,
        "16568": 4,
        "16569": 0,
        "16570": 0,
        "16571": 0,
        "16572": 0,
        "16573": 0,
        "16574": 0,
        "16575": 0,
        "16576": 4,
        "16577": 0,
        "16578": 0,
        "16579": 0,
        "16580": 0,
        "16581": 0,
        "16582": 0,
        "16583": 0,
        "16584": 0,
        "16585": 0,
        "16586": 0,
        "16587": 0,
        "16588": 1,
        "16589": 0,
        "16590": 0,
        "16591": 0,
        "16592": 0,
        "16593": 0,
        "16594": 0,
        "16595": 0,
        "16596": 16,
        "16597": 0,
        "16598": 0,
        "16599": 0,
        "16600": 0,
        "16601": 0,
        "16602": 0,
        "16603": 0
      }
    }
  ],
  "numDeployments": 1,
  "solcInputHash": "c0e889dcb69b76266f445d0fe3402b92",
  "bytecode": "0x6101606040526200001760006200026660201b60201c565b6002553480156200002757600080fd5b50604051620046173803806200461783398181016040528101906200004d919062000b83565b6040518060400160405280600881526020017f46616b65205553440000000000000000000000000000000000000000000000008152506040518060400160405280600481526020017f6655534400000000000000000000000000000000000000000000000000000000815250338383836040518060400160405280601181526020017f4668656e6978205065726d697373696f6e0000000000000000000000000000008152506040518060400160405280600381526020017f312e3000000000000000000000000000000000000000000000000000000000008152506200013f6000836200028260201b90919060201c565b61012081815250506200015d6001826200028260201b90919060201c565b6101408181525050818051906020012060e08181525050808051906020012061010081815250504660a081815250506200019c620002da60201b60201c565b608081815250503073ffffffffffffffffffffffffffffffffffffffff1660c08173ffffffffffffffffffffffffffffffffffffffff168152505050508160059081620001ea919062000e1f565b508060069081620001fc919062000e1f565b505050600062000212826200033760201b60201c565b9050620002486200023c8262000230617fff6200026660201b60201c565b6200035560201b60201c565b620003f860201b60201c565b6200025a8382620004cb60201b60201c565b50505050505062001260565b60006200027b8260026200057160201b60201c565b9050919050565b6000602083511015620002a857620002a0836200062860201b60201c565b9050620002d4565b82620002ba836200069560201b60201c565b6000019081620002cb919062000e1f565b5060ff60001b90505b92915050565b60007f8b73c3c69bb8fe3d512ecc4cf759cc79239f7b179b0ffacaa9a75d522b39400f60e0516101005146306040516020016200031c95949392919062000f77565b60405160208183030381529060405280519060200120905090565b60006200034e82600001516200069f60201b60201c565b9050919050565b60006200036883620006bb60201b60201c565b62000382576200037f60006200026660201b60201c565b92505b6200039382620006bb60201b60201c565b620003ad57620003aa60006200026660201b60201c565b91505b600083905060008390506000620003ea60028484608073ffffffffffffffffffffffffffffffffffffffff1663eb274b77620006c860201b60201c565b905080935050505092915050565b62000409816200077960201b60201c565b62000423576200042060006200078660201b60201c565b90505b600081905060006200043b82620007a260201b60201c565b9050608073ffffffffffffffffffffffffffffffffffffffff16637d23f1db600d836040518363ffffffff1660e01b81526004016200047c9291906200104f565b600060405180830381865afa1580156200049a573d6000803e3d6000fd5b505050506040513d6000823e3d601f19601f82011682018060405250810190620004c5919062001083565b50505050565b62000516600360008473ffffffffffffffffffffffffffffffffffffffff1673ffffffffffffffffffffffffffffffffffffffff168152602001908152602001600020548262000803565b600360008473ffffffffffffffffffffffffffffffffffffffff1673ffffffffffffffffffffffffffffffffffffffff16815260200190815260200160002081905550620005676002548262000803565b6002819055505050565b60006060608073ffffffffffffffffffffffffffffffffffffffff166319e1c5c4620005a386620007a260201b60201c565b856040518363ffffffff1660e01b8152600401620005c3929190620010d4565b600060405180830381865afa158015620005e1573d6000803e3d6000fd5b505050506040513d6000823e3d601f19601f820116820180604052508101906200060c919062001083565b90506200061f816200081f60201b60201c565b91505092915050565b600080829050601f815111156200067857826040517f305a27a90000000000000000000000000000000000000000000000000000000081526004016200066f91906200115a565b60405180910390fd5b8051816200068690620011a5565b60001c1760001b915050919050565b6000819050919050565b6000620006b48260026200082d60201b60201c565b9050919050565b6000808214159050919050565b60006060838388620006e089620007a260201b60201c565b620006f189620007a260201b60201c565b6040518463ffffffff1660e01b8152600401620007119392919062001215565b600060405180830381865afa1580156200072f573d6000803e3d6000fd5b505050506040513d6000823e3d601f19601f820116820180604052508101906200075a919062001083565b90506200076d81620008d460201b60201c565b91505095945050505050565b6000808214159050919050565b60006200079b82600d6200057160201b60201c565b9050919050565b6060602067ffffffffffffffff811115620007c257620007c1620009ae565b5b6040519080825280601f01601f191660200182016040528015620007f55781602001600182028036833780820191505090505b509050816020820152919050565b6000620008178383620008e260201b60201c565b905092915050565b600060208201519050919050565b60006060608073ffffffffffffffffffffffffffffffffffffffff16635fa55ca784866040518363ffffffff1660e01b81526004016200086f9291906200104f565b600060405180830381865afa1580156200088d573d6000803e3d6000fd5b505050506040513d6000823e3d601f19601f82011682018060405250810190620008b8919062001083565b9050620008cb816200081f60201b60201c565b91505092915050565b600060208201519050919050565b6000620008f583620006bb60201b60201c565b6200090f576200090c60006200026660201b60201c565b92505b6200092082620006bb60201b60201c565b6200093a576200093760006200026660201b60201c565b91505b6000839050600083905060006200097660028484608073ffffffffffffffffffffffffffffffffffffffff16622df619620006c860201b60201c565b905080935050505092915050565b6000604051905090565b600080fd5b600080fd5b600080fd5b6000601f19601f8301169050919050565b7f4e487b7100000000000000000000000000000000000000000000000000000000600052604160045260246000fd5b620009e8826200099d565b810181811067ffffffffffffffff8211171562000a0a5762000a09620009ae565b5b80604052505050565b600062000a1f62000984565b905062000a2d8282620009dd565b919050565b600080fd5b600080fd5b600080fd5b600067ffffffffffffffff82111562000a5f5762000a5e620009ae565b5b62000a6a826200099d565b9050602081019050919050565b60005b8381101562000a9757808201518184015260208101905062000a7a565b60008484015250505050565b600062000aba62000ab48462000a41565b62000a13565b90508281526020810184848401111562000ad95762000ad862000a3c565b5b62000ae684828562000a77565b509392505050565b600082601f83011262000b065762000b0562000a37565b5b815162000b1884826020860162000aa3565b91505092915050565b60006020828403121562000b3a5762000b3962000998565b5b62000b46602062000a13565b9050600082015167ffffffffffffffff81111562000b695762000b6862000a32565b5b62000b778482850162000aee565b60008301525092915050565b60006020828403121562000b9c5762000b9b6200098e565b5b600082015167ffffffffffffffff81111562000bbd5762000bbc62000993565b5b62000bcb8482850162000b21565b91505092915050565b600081519050919050565b7f4e487b7100000000000000000000000000000000000000000000000000000000600052602260045260246000fd5b6000600282049050600182168062000c2757607f821691505b60208210810362000c3d5762000c3c62000bdf565b5b50919050565b60008190508160005260206000209050919050565b60006020601f8301049050919050565b600082821b905092915050565b60006008830262000ca77fffffffffffffffffffffffffffffffffffffffffffffffffffffffffffffffff8262000c68565b62000cb3868362000c68565b95508019841693508086168417925050509392505050565b6000819050919050565b6000819050919050565b600062000d0062000cfa62000cf48462000ccb565b62000cd5565b62000ccb565b9050919050565b6000819050919050565b62000d1c8362000cdf565b62000d3462000d2b8262000d07565b84845462000c75565b825550505050565b600090565b62000d4b62000d3c565b62000d5881848462000d11565b505050565b5b8181101562000d805762000d7460008262000d41565b60018101905062000d5e565b5050565b601f82111562000dcf5762000d998162000c43565b62000da48462000c58565b8101602085101562000db4578190505b62000dcc62000dc38562000c58565b83018262000d5d565b50505b505050565b600082821c905092915050565b600062000df46000198460080262000dd4565b1980831691505092915050565b600062000e0f838362000de1565b9150826002028217905092915050565b62000e2a8262000bd4565b67ffffffffffffffff81111562000e465762000e45620009ae565b5b62000e52825462000c0e565b62000e5f82828562000d84565b600060209050601f83116001811462000e97576000841562000e82578287015190505b62000e8e858262000e01565b86555062000efe565b601f19841662000ea78662000c43565b60005b8281101562000ed15784890151825560018201915060208501945060208101905062000eaa565b8683101562000ef1578489015162000eed601f89168262000de1565b8355505b6001600288020188555050505b505050505050565b6000819050919050565b62000f1b8162000f06565b82525050565b62000f2c8162000ccb565b82525050565b600073ffffffffffffffffffffffffffffffffffffffff82169050919050565b600062000f5f8262000f32565b9050919050565b62000f718162000f52565b82525050565b600060a08201905062000f8e600083018862000f10565b62000f9d602083018762000f10565b62000fac604083018662000f10565b62000fbb606083018562000f21565b62000fca608083018462000f66565b9695505050505050565b600060ff82169050919050565b62000fec8162000fd4565b82525050565b600081519050919050565b600082825260208201905092915050565b60006200101b8262000ff2565b62001027818562000ffd565b93506200103981856020860162000a77565b62001044816200099d565b840191505092915050565b600060408201905062001066600083018562000fe1565b81810360208301526200107a81846200100e565b90509392505050565b6000602082840312156200109c576200109b6200098e565b5b600082015167ffffffffffffffff811115620010bd57620010bc62000993565b5b620010cb8482850162000aee565b91505092915050565b60006040820190508181036000830152620010f081856200100e565b905062001101602083018462000fe1565b9392505050565b600082825260208201905092915050565b6000620011268262000bd4565b62001132818562001108565b93506200114481856020860162000a77565b6200114f816200099d565b840191505092915050565b6000602082019050818103600083015262001176818462001119565b905092915050565b6000819050602082019050919050565b60006200119c825162000f06565b80915050919050565b6000620011b28262000ff2565b82620011be846200117e565b9050620011cb816200118e565b925060208210156200120e57620012097fffffffffffffffffffffffffffffffffffffffffffffffffffffffffffffffff8360200360080262000c68565b831692505b5050919050565b60006060820190506200122c600083018662000fe1565b81810360208301526200124081856200100e565b905081810360408301526200125681846200100e565b9050949350505050565b60805160a05160c05160e05161010051610120516101405161335c620012bb60003960006118f5015260006118ba0152600061217f0152600061215e015260006119ea01526000611a4001526000611a69015261335c6000f3fe608060405234801561001057600080fd5b50600436106101425760003560e01c80637ecebe00116100b8578063a9059cbb1161007c578063a9059cbb146103b9578063af575a00146103e9578063c4224c1914610419578063d505accf14610449578063d918156e14610465578063dd62ed3e1461049557610142565b80637ecebe00146102fb57806384b0196e1461032b5780638624a3491461034f57806395d89b411461037f5780639f284be71461039d57610142565b80633644e5151161010a5780633644e5151461020157806339c217f71461021f5780635356c4291461024f578063602772041461027f5780636e0505e1146102af57806370a08231146102cb57610142565b806306fdde0314610147578063095ea7b31461016557806318160ddd1461019557806323b872dd146101b3578063313ce567146101e3575b600080fd5b61014f6104c5565b60405161015c9190612433565b60405180910390f35b61017f600480360381019061017a91906124fd565b610557565b60405161018c9190612558565b60405180910390f35b61019d6105ab565b6040516101aa9190612582565b60405180910390f35b6101cd60048036038101906101c8919061259d565b6105bd565b6040516101da9190612558565b60405180910390f35b6101eb610692565b6040516101f8919061260c565b60405180910390f35b610209610697565b6040516102169190612640565b60405180910390f35b6102396004803603810190610234919061267f565b610729565b6040516102469190612716565b60405180910390f35b61026960048036038101906102649190612750565b61074e565b6040516102769190612433565b60405180910390f35b61029960048036038101906102949190612983565b6108bf565b6040516102a69190612433565b60405180910390f35b6102c960048036038101906102c49190612a1b565b6109ec565b005b6102e560048036038101906102e09190612a48565b610b01565b6040516102f29190612582565b60405180910390f35b61031560048036038101906103109190612a48565b610b1c565b6040516103229190612582565b60405180910390f35b610333610b37565b6040516103469796959493929190612b7d565b60405180910390f35b61036960048036038101906103649190612c01565b610be1565b6040516103769190612716565b60405180910390f35b610387610c08565b6040516103949190612433565b60405180910390f35b6103b760048036038101906103b29190612a1b565b610c9a565b005b6103d360048036038101906103ce91906124fd565b610da7565b6040516103e09190612558565b60405180910390f35b61040360048036038101906103fe9190612c9c565b610e39565b6040516104109190612716565b60405180910390f35b610433600480360381019061042e9190612cef565b61118f565b6040516104409190612716565b60405180910390f35b610463600480360381019061045e9190612d5b565b611359565b005b61047f600480360381019061047a919061267f565b6114fd565b60405161048c9190612558565b60405180910390f35b6104af60048036038101906104aa9190612dfd565b6115f5565b6040516104bc9190612582565b60405180910390f35b6060600580546104d490612e6c565b80601f016020809104026020016040519081016040528092919081815260200182805461050090612e6c565b801561054d5780601f106105225761010080835404028352916020019161054d565b820191906000526020600020905b81548152906001019060200180831161053057829003601f168201915b5050505050905090565b600082602052637f5e9f20600c5233600052816034600c205581600052602c5160601c337f8c5be1e5ebec7d5bd14f71427d1e84f3dd0314c0f7b2291e5b200ac8c7c3b92560206000a36001905092915050565b60006805345cdf77eb68f44c54905090565b60006105ca848484611615565b8360601b33602052637f5e9f208117600c526034600c20805460018101156106085780851115610602576313be252b6000526004601cfd5b84810382555b6387a211a28317600c526020600c2080548087111561062f5763f4d678b86000526004601cfd5b8681038255876000526020600c2087815401815587602052600c5160601c8660601c7fddf252ad1be2c89b69c2b068fc378daa952ba7f163c4a11628f55a4df523b3ef602080a350505050505061068784848461161a565b600190509392505050565b600090565b6000806106a261161f565b90506000801b81036106c0576106b66104c5565b8051906020012090505b6040517f8b73c3c69bb8fe3d512ecc4cf759cc79239f7b179b0ffacaa9a75d522b39400f81528160208201527fc89efdaa54c0f20c7adf612882df0950f5a951637e0307cdcb4c672f298b8bc6604082015246606082015230608082015260a081209250505090565b6000610746836107418461073c90612ef5565b611624565b61118f565b905092915050565b60608161075a90612f08565b60006107b17f6bdaeb2d29561f159c7ef98b16b27015fb2aeb87209c7ee656226d912f59927d8360000151604051602001610796929190612f1b565b6040516020818303038152906040528051906020012061163a565b905060006107c3828460200151611654565b90503373ffffffffffffffffffffffffffffffffffffffff168173ffffffffffffffffffffffffffffffffffffffff161461082a576040517f3093a27700000000000000000000000000000000000000000000000000000000815260040160405180910390fd5b6108b4600460003373ffffffffffffffffffffffffffffffffffffffff1673ffffffffffffffffffffffffffffffffffffffff16815260200190815260200160002060008873ffffffffffffffffffffffffffffffffffffffff1673ffffffffffffffffffffffffffffffffffffffff168152602001908152602001600020548660000135611680565b935050505092915050565b60608183600061091a7f6bdaeb2d29561f159c7ef98b16b27015fb2aeb87209c7ee656226d912f59927d84600001516040516020016108ff929190612f1b565b6040516020818303038152906040528051906020012061163a565b9050600061092c828560200151611654565b90508273ffffffffffffffffffffffffffffffffffffffff168173ffffffffffffffffffffffffffffffffffffffff1614610993576040517f51c65eae00000000000000000000000000000000000000000000000000000000815260040160405180910390fd5b6109e0600360008973ffffffffffffffffffffffffffffffffffffffff1673ffffffffffffffffffffffffffffffffffffffff168152602001908152602001600020548760000151611680565b94505050505092915050565b6000610a45610a008363ffffffff166116b6565b600360003373ffffffffffffffffffffffffffffffffffffffff1673ffffffffffffffffffffffffffffffffffffffff168152602001908152602001600020546116ca565b9050610a90600360003373ffffffffffffffffffffffffffffffffffffffff1673ffffffffffffffffffffffffffffffffffffffff1681526020019081526020016000205482611743565b600360003373ffffffffffffffffffffffffffffffffffffffff1673ffffffffffffffffffffffffffffffffffffffff16815260200190815260200160002081905550610adf60025482611743565b600281905550610afd33610af283611757565b63ffffffff1661181a565b5050565b60006387a211a2600c52816000526020600c20549050919050565b60006338377508600c52816000526020600c20549050919050565b600060608060008060006060610b4b6118b1565b610b536118ec565b46306000801b600067ffffffffffffffff811115610b7457610b736127b1565b5b604051908082528060200260200182016040528015610ba25781602001602082028036833780820191505090505b507f0f00000000000000000000000000000000000000000000000000000000000000959493929190965096509650965096509650965090919293949596565b6000610bff8484610bfa85610bf590612ef5565b611624565b610e39565b90509392505050565b606060068054610c1790612e6c565b80601f0160208091040260200160405190810160405280929190818152602001828054610c4390612e6c565b8015610c905780601f10610c6557610100808354040283529160200191610c90565b820191906000526020600020905b815481529060010190602001808311610c7357829003601f168201915b5050505050905090565b8063ffffffff16610caa33610b01565b1015610ce2576040517ffda7bbda00000000000000000000000000000000000000000000000000000000815260040160405180910390fd5b610cf2338263ffffffff16611927565b6000610d038263ffffffff166116b6565b9050610d4e600360003373ffffffffffffffffffffffffffffffffffffffff1673ffffffffffffffffffffffffffffffffffffffff16815260200190815260200160002054826119be565b600360003373ffffffffffffffffffffffffffffffffffffffff1673ffffffffffffffffffffffffffffffffffffffff16815260200190815260200160002081905550610d9d600254826119be565b6002819055505050565b6000610db4338484611615565b6387a211a2600c52336000526020600c20805480841115610ddd5763f4d678b86000526004601cfd5b8381038255846000526020600c2084815401815584602052600c5160601c337fddf252ad1be2c89b69c2b068fc378daa952ba7f163c4a11628f55a4df523b3ef602080a3505050610e2f33848461161a565b6001905092915050565b600080610f0a83610f05600360008973ffffffffffffffffffffffffffffffffffffffff1673ffffffffffffffffffffffffffffffffffffffff16815260200190815260200160002054600460008a73ffffffffffffffffffffffffffffffffffffffff1673ffffffffffffffffffffffffffffffffffffffff16815260200190815260200160002060003373ffffffffffffffffffffffffffffffffffffffff1673ffffffffffffffffffffffffffffffffffffffff168152602001908152602001600020546116ca565b6116ca565b9050610f92600460008773ffffffffffffffffffffffffffffffffffffffff1673ffffffffffffffffffffffffffffffffffffffff16815260200190815260200160002060003373ffffffffffffffffffffffffffffffffffffffff1673ffffffffffffffffffffffffffffffffffffffff1681526020019081526020016000205482611743565b600460008773ffffffffffffffffffffffffffffffffffffffff1673ffffffffffffffffffffffffffffffffffffffff16815260200190815260200160002060003373ffffffffffffffffffffffffffffffffffffffff1673ffffffffffffffffffffffffffffffffffffffff1681526020019081526020016000208190555061105b600360008773ffffffffffffffffffffffffffffffffffffffff1673ffffffffffffffffffffffffffffffffffffffff1681526020019081526020016000205482611743565b600360008773ffffffffffffffffffffffffffffffffffffffff1673ffffffffffffffffffffffffffffffffffffffff168152602001908152602001600020819055506110e7600360008673ffffffffffffffffffffffffffffffffffffffff1673ffffffffffffffffffffffffffffffffffffffff16815260200190815260200160002054826119be565b600360008673ffffffffffffffffffffffffffffffffffffffff1673ffffffffffffffffffffffffffffffffffffffff168152602001908152602001600020819055508373ffffffffffffffffffffffffffffffffffffffff168573ffffffffffffffffffffffffffffffffffffffff167f7612539b010127d1a2f810eeff1131de23a28ecfa8228f92a9606a879300fbb560405160405180910390a3809150509392505050565b6000806111db83600360003373ffffffffffffffffffffffffffffffffffffffff1673ffffffffffffffffffffffffffffffffffffffff168152602001908152602001600020546116ca565b9050611226600360003373ffffffffffffffffffffffffffffffffffffffff1673ffffffffffffffffffffffffffffffffffffffff1681526020019081526020016000205482611743565b600360003373ffffffffffffffffffffffffffffffffffffffff1673ffffffffffffffffffffffffffffffffffffffff168152602001908152602001600020819055506112b2600360008673ffffffffffffffffffffffffffffffffffffffff1673ffffffffffffffffffffffffffffffffffffffff16815260200190815260200160002054826119be565b600360008673ffffffffffffffffffffffffffffffffffffffff1673ffffffffffffffffffffffffffffffffffffffff168152602001908152602001600020819055508373ffffffffffffffffffffffffffffffffffffffff163373ffffffffffffffffffffffffffffffffffffffff167f7612539b010127d1a2f810eeff1131de23a28ecfa8228f92a9606a879300fbb560405160405180910390a38091505092915050565b600061136361161f565b90506000801b8103611381576113776104c5565b8051906020012090505b8442111561139757631a15a3cc6000526004601cfd5b6040518860601b60601c98508760601b60601c975065383775081901600e52886000526020600c2080547f8b73c3c69bb8fe3d512ecc4cf759cc79239f7b179b0ffacaa9a75d522b39400f83528360208401527fc89efdaa54c0f20c7adf612882df0950f5a951637e0307cdcb4c672f298b8bc6604084015246606084015230608084015260a08320602e527f6e71edae12b1b97f4d1f60370fef10105fa2faae0126114a169c64845d6126c983528a60208401528960408401528860608401528060808401528760a084015260c08320604e526042602c206000528660ff1660205285604052846060526020806080600060015afa8b3d51146114a35763ddafbaef6000526004601cfd5b80820183558a637f5e9f2060a01b17604052896034602c20558a8c7f8c5be1e5ebec7d5bd14f71427d1e84f3dd0314c0f7b2291e5b200ac8c7c3b925602060608801a3836040526000606052505050505050505050505050565b60006115118261150c90612ef5565b611624565b600460003373ffffffffffffffffffffffffffffffffffffffff1673ffffffffffffffffffffffffffffffffffffffff16815260200190815260200160002060008573ffffffffffffffffffffffffffffffffffffffff1673ffffffffffffffffffffffffffffffffffffffff168152602001908152602001600020819055508273ffffffffffffffffffffffffffffffffffffffff163373ffffffffffffffffffffffffffffffffffffffff167f46f92913a39019d68e630493d23e0cf39761bf253f7b3f8eae384b33e393ed4e60405160405180910390a36001905092915050565b600081602052637f5e9f20600c52826000526034600c2054905092915050565b505050565b505050565b600090565b600061163382600001516119d2565b9050919050565b600061164d6116476119e6565b83611a9d565b9050919050565b6000806000806116648686611ade565b9250925092506116748282611b3a565b82935050505092915050565b606061168b83611c9e565b61169c5761169960006116b6565b92505b60008390506116ad60028285611cab565b91505092915050565b60006116c3826002611d61565b9050919050565b60006116d583611c9e565b6116e6576116e360006116b6565b92505b6116ef82611c9e565b611700576116fd60006116b6565b91505b60008390506000839050600061173560028484608073ffffffffffffffffffffffffffffffffffffffff16635211c679611e03565b905080935050505092915050565b600061174f8383611e97565b905092915050565b600061176282611c9e565b6117735761177060006116b6565b91505b6000829050600061178382611f10565b90506000608073ffffffffffffffffffffffffffffffffffffffff166373cc01546002846040518363ffffffff1660e01b81526004016117c4929190612f99565b602060405180830381865afa1580156117e1573d6000803e3d6000fd5b505050506040513d601f19601f820116820180604052508101906118059190612fde565b905061181081611f6d565b9350505050919050565b61182660008383611615565b6805345cdf77eb68f44c548181018181101561184a5763e5cfe9576000526004601cfd5b806805345cdf77eb68f44c556387a211a2600c52836000526020600c2083815401815583602052600c5160601c60007fddf252ad1be2c89b69c2b068fc378daa952ba7f163c4a11628f55a4df523b3ef602080a35050506118ad6000838361161a565b5050565b60606118e760007f0000000000000000000000000000000000000000000000000000000000000000611f7790919063ffffffff16565b905090565b606061192260017f0000000000000000000000000000000000000000000000000000000000000000611f7790919063ffffffff16565b905090565b61193382600083611615565b6387a211a2600c52816000526020600c2080548083111561195c5763f4d678b86000526004601cfd5b8281038255826805345cdf77eb68f44c54036805345cdf77eb68f44c558260005260008460601b60601c7fddf252ad1be2c89b69c2b068fc378daa952ba7f163c4a11628f55a4df523b3ef60206000a350506119ba8260008361161a565b5050565b60006119ca8383612027565b905092915050565b60006119df82600261209f565b9050919050565b60007f000000000000000000000000000000000000000000000000000000000000000073ffffffffffffffffffffffffffffffffffffffff163073ffffffffffffffffffffffffffffffffffffffff16148015611a6257507f000000000000000000000000000000000000000000000000000000000000000046145b15611a8f577f00000000000000000000000000000000000000000000000000000000000000009050611a9a565b611a97612139565b90505b90565b60006040517f190100000000000000000000000000000000000000000000000000000000000081528360028201528260228201526042812091505092915050565b60008060006041845103611b235760008060006020870151925060408701519150606087015160001a9050611b15888285856121cf565b955095509550505050611b33565b60006002855160001b9250925092505b9250925092565b60006003811115611b4e57611b4d61300b565b5b826003811115611b6157611b6061300b565b5b0315611c9a5760016003811115611b7b57611b7a61300b565b5b826003811115611b8e57611b8d61300b565b5b03611bc5576040517ff645eedf00000000000000000000000000000000000000000000000000000000815260040160405180910390fd5b60026003811115611bd957611bd861300b565b5b826003811115611bec57611beb61300b565b5b03611c31578060001c6040517ffce698f7000000000000000000000000000000000000000000000000000000008152600401611c289190612582565b60405180910390fd5b600380811115611c4457611c4361300b565b5b826003811115611c5757611c5661300b565b5b03611c9957806040517fd78bce0c000000000000000000000000000000000000000000000000000000008152600401611c909190612640565b60405180910390fd5b5b5050565b6000808214159050919050565b6060608073ffffffffffffffffffffffffffffffffffffffff1663a1848ff385611cd486611f10565b85604051602001611ce5919061305b565b6040516020818303038152906040526040518463ffffffff1660e01b8152600401611d1293929190613076565b600060405180830381865afa158015611d2f573d6000803e3d6000fd5b505050506040513d6000823e3d601f19601f82011682018060405250810190611d58919061315c565b90509392505050565b60006060608073ffffffffffffffffffffffffffffffffffffffff166319e1c5c4611d8b86611f10565b856040518363ffffffff1660e01b8152600401611da99291906131a5565b600060405180830381865afa158015611dc6573d6000803e3d6000fd5b505050506040513d6000823e3d601f19601f82011682018060405250810190611def9190613245565b9050611dfa816122c3565b91505092915050565b60006060838388611e1389611f10565b611e1c89611f10565b6040518463ffffffff1660e01b8152600401611e3a93929190613076565b600060405180830381865afa158015611e57573d6000803e3d6000fd5b505050506040513d6000823e3d601f19601f82011682018060405250810190611e809190613245565b9050611e8b816122d1565b91505095945050505050565b6000611ea283611c9e565b611eb357611eb060006116b6565b92505b611ebc82611c9e565b611ecd57611eca60006116b6565b91505b600083905060008390506000611f0260028484608073ffffffffffffffffffffffffffffffffffffffff1663cc2cbeff611e03565b905080935050505092915050565b6060602067ffffffffffffffff811115611f2d57611f2c6127b1565b5b6040519080825280601f01601f191660200182016040528015611f5f5781602001600182028036833780820191505090505b509050816020820152919050565b6000819050919050565b606060ff60001b8314611f9457611f8d836122df565b9050612021565b818054611fa090612e6c565b80601f0160208091040260200160405190810160405280929190818152602001828054611fcc90612e6c565b80156120195780601f10611fee57610100808354040283529160200191612019565b820191906000526020600020905b815481529060010190602001808311611ffc57829003601f168201915b505050505090505b92915050565b600061203283611c9e565b6120435761204060006116b6565b92505b61204c82611c9e565b61205d5761205a60006116b6565b91505b60008390506000839050600061209160028484608073ffffffffffffffffffffffffffffffffffffffff16622df619611e03565b905080935050505092915050565b60006060608073ffffffffffffffffffffffffffffffffffffffff16635fa55ca784866040518363ffffffff1660e01b81526004016120df929190612f99565b600060405180830381865afa1580156120fc573d6000803e3d6000fd5b505050506040513d6000823e3d601f19601f820116820180604052508101906121259190613245565b9050612130816122c3565b91505092915050565b60007f8b73c3c69bb8fe3d512ecc4cf759cc79239f7b179b0ffacaa9a75d522b39400f7f00000000000000000000000000000000000000000000000000000000000000007f000000000000000000000000000000000000000000000000000000000000000046306040516020016121b495949392919061328e565b60405160208183030381529060405280519060200120905090565b60008060007f7fffffffffffffffffffffffffffffff5d576e7357a4501ddfe92f46681b20a08460001c111561220f5760006003859250925092506122b9565b60006001888888886040516000815260200160405260405161223494939291906132e1565b6020604051602081039080840390855afa158015612256573d6000803e3d6000fd5b505050602060405103519050600073ffffffffffffffffffffffffffffffffffffffff168173ffffffffffffffffffffffffffffffffffffffff16036122aa57600060016000801b935093509350506122b9565b8060008060001b935093509350505b9450945094915050565b600060208201519050919050565b600060208201519050919050565b606060006122ec83612353565b90506000602067ffffffffffffffff81111561230b5761230a6127b1565b5b6040519080825280601f01601f19166020018201604052801561233d5781602001600182028036833780820191505090505b5090508181528360208201528092505050919050565b60008060ff8360001c169050601f81111561239a576040517fb3512b0c00000000000000000000000000000000000000000000000000000000815260040160405180910390fd5b80915050919050565b600081519050919050565b600082825260208201905092915050565b60005b838110156123dd5780820151818401526020810190506123c2565b60008484015250505050565b6000601f19601f8301169050919050565b6000612405826123a3565b61240f81856123ae565b935061241f8185602086016123bf565b612428816123e9565b840191505092915050565b6000602082019050818103600083015261244d81846123fa565b905092915050565b6000604051905090565b600080fd5b600080fd5b600073ffffffffffffffffffffffffffffffffffffffff82169050919050565b600061249482612469565b9050919050565b6124a481612489565b81146124af57600080fd5b50565b6000813590506124c18161249b565b92915050565b6000819050919050565b6124da816124c7565b81146124e557600080fd5b50565b6000813590506124f7816124d1565b92915050565b600080604083850312156125145761251361245f565b5b6000612522858286016124b2565b9250506020612533858286016124e8565b9150509250929050565b60008115159050919050565b6125528161253d565b82525050565b600060208201905061256d6000830184612549565b92915050565b61257c816124c7565b82525050565b60006020820190506125976000830184612573565b92915050565b6000806000606084860312156125b6576125b561245f565b5b60006125c4868287016124b2565b93505060206125d5868287016124b2565b92505060406125e6868287016124e8565b9150509250925092565b600060ff82169050919050565b612606816125f0565b82525050565b600060208201905061262160008301846125fd565b92915050565b6000819050919050565b61263a81612627565b82525050565b60006020820190506126556000830184612631565b92915050565b600080fd5b6000602082840312156126765761267561265b565b5b81905092915050565b600080604083850312156126965761269561245f565b5b60006126a4858286016124b2565b925050602083013567ffffffffffffffff8111156126c5576126c4612464565b5b6126d185828601612660565b9150509250929050565b6000819050919050565b60006127006126fb6126f6846124c7565b6126db565b6124c7565b9050919050565b612710816126e5565b82525050565b600060208201905061272b6000830184612707565b92915050565b6000604082840312156127475761274661265b565b5b81905092915050565b600080604083850312156127675761276661245f565b5b6000612775858286016124b2565b925050602083013567ffffffffffffffff81111561279657612795612464565b5b6127a285828601612731565b9150509250929050565b600080fd5b7f4e487b7100000000000000000000000000000000000000000000000000000000600052604160045260246000fd5b6127e9826123e9565b810181811067ffffffffffffffff82111715612808576128076127b1565b5b80604052505050565b600061281b612455565b905061282782826127e0565b919050565b600080fd5b61283a81612627565b811461284557600080fd5b50565b60008135905061285781612831565b92915050565b600080fd5b600080fd5b600067ffffffffffffffff821115612882576128816127b1565b5b61288b826123e9565b9050602081019050919050565b82818337600083830152505050565b60006128ba6128b584612867565b612811565b9050828152602081018484840111156128d6576128d5612862565b5b6128e1848285612898565b509392505050565b600082601f8301126128fe576128fd61285d565b5b813561290e8482602086016128a7565b91505092915050565b60006040828403121561292d5761292c6127ac565b5b6129376040612811565b9050600061294784828501612848565b600083015250602082013567ffffffffffffffff81111561296b5761296a61282c565b5b612977848285016128e9565b60208301525092915050565b6000806040838503121561299a5761299961245f565b5b60006129a8858286016124b2565b925050602083013567ffffffffffffffff8111156129c9576129c8612464565b5b6129d585828601612917565b9150509250929050565b600063ffffffff82169050919050565b6129f8816129df565b8114612a0357600080fd5b50565b600081359050612a15816129ef565b92915050565b600060208284031215612a3157612a3061245f565b5b6000612a3f84828501612a06565b91505092915050565b600060208284031215612a5e57612a5d61245f565b5b6000612a6c848285016124b2565b91505092915050565b60007fff0000000000000000000000000000000000000000000000000000000000000082169050919050565b612aaa81612a75565b82525050565b612ab981612489565b82525050565b600081519050919050565b600082825260208201905092915050565b6000819050602082019050919050565b612af4816124c7565b82525050565b6000612b068383612aeb565b60208301905092915050565b6000602082019050919050565b6000612b2a82612abf565b612b348185612aca565b9350612b3f83612adb565b8060005b83811015612b70578151612b578882612afa565b9750612b6283612b12565b925050600181019050612b43565b5085935050505092915050565b600060e082019050612b92600083018a612aa1565b8181036020830152612ba481896123fa565b90508181036040830152612bb881886123fa565b9050612bc76060830187612573565b612bd46080830186612ab0565b612be160a0830185612631565b81810360c0830152612bf38184612b1f565b905098975050505050505050565b600080600060608486031215612c1a57612c1961245f565b5b6000612c28868287016124b2565b9350506020612c39868287016124b2565b925050604084013567ffffffffffffffff811115612c5a57612c59612464565b5b612c6686828701612660565b9150509250925092565b612c79816124c7565b8114612c8457600080fd5b50565b600081359050612c9681612c70565b92915050565b600080600060608486031215612cb557612cb461245f565b5b6000612cc3868287016124b2565b9350506020612cd4868287016124b2565b9250506040612ce586828701612c87565b9150509250925092565b60008060408385031215612d0657612d0561245f565b5b6000612d14858286016124b2565b9250506020612d2585828601612c87565b9150509250929050565b612d38816125f0565b8114612d4357600080fd5b50565b600081359050612d5581612d2f565b92915050565b600080600080600080600060e0888a031215612d7a57612d7961245f565b5b6000612d888a828b016124b2565b9750506020612d998a828b016124b2565b9650506040612daa8a828b016124e8565b9550506060612dbb8a828b016124e8565b9450506080612dcc8a828b01612d46565b93505060a0612ddd8a828b01612848565b92505060c0612dee8a828b01612848565b91505092959891949750929550565b60008060408385031215612e1457612e1361245f565b5b6000612e22858286016124b2565b9250506020612e33858286016124b2565b9150509250929050565b7f4e487b7100000000000000000000000000000000000000000000000000000000600052602260045260246000fd5b60006002820490506001821680612e8457607f821691505b602082108103612e9757612e96612e3d565b5b50919050565b600060208284031215612eb357612eb26127ac565b5b612ebd6020612811565b9050600082013567ffffffffffffffff811115612edd57612edc61282c565b5b612ee9848285016128e9565b60008301525092915050565b6000612f013683612e9d565b9050919050565b6000612f143683612917565b9050919050565b6000604082019050612f306000830185612631565b612f3d6020830184612631565b9392505050565b600081519050919050565b600082825260208201905092915050565b6000612f6b82612f44565b612f758185612f4f565b9350612f858185602086016123bf565b612f8e816123e9565b840191505092915050565b6000604082019050612fae60008301856125fd565b8181036020830152612fc08184612f60565b90509392505050565b600081519050612fd8816124d1565b92915050565b600060208284031215612ff457612ff361245f565b5b600061300284828501612fc9565b91505092915050565b7f4e487b7100000000000000000000000000000000000000000000000000000000600052602160045260246000fd5b6000819050919050565b61305561305082612627565b61303a565b82525050565b60006130678284613044565b60208201915081905092915050565b600060608201905061308b60008301866125fd565b818103602083015261309d8185612f60565b905081810360408301526130b18184612f60565b9050949350505050565b600067ffffffffffffffff8211156130d6576130d56127b1565b5b6130df826123e9565b9050602081019050919050565b60006130ff6130fa846130bb565b612811565b90508281526020810184848401111561311b5761311a612862565b5b6131268482856123bf565b509392505050565b600082601f8301126131435761314261285d565b5b81516131538482602086016130ec565b91505092915050565b6000602082840312156131725761317161245f565b5b600082015167ffffffffffffffff8111156131905761318f612464565b5b61319c8482850161312e565b91505092915050565b600060408201905081810360008301526131bf8185612f60565b90506131ce60208301846125fd565b9392505050565b60006131e86131e384612867565b612811565b90508281526020810184848401111561320457613203612862565b5b61320f8482856123bf565b509392505050565b600082601f83011261322c5761322b61285d565b5b815161323c8482602086016131d5565b91505092915050565b60006020828403121561325b5761325a61245f565b5b600082015167ffffffffffffffff81111561327957613278612464565b5b61328584828501613217565b91505092915050565b600060a0820190506132a36000830188612631565b6132b06020830187612631565b6132bd6040830186612631565b6132ca6060830185612573565b6132d76080830184612ab0565b9695505050505050565b60006080820190506132f66000830187612631565b61330360208301866125fd565b6133106040830185612631565b61331d6060830184612631565b9594505050505056fea264697066735822122058197cac2b77cb9bd316ff9903122d58cec9c086f803140087396e89c46f21c964736f6c63430008180033",
  "devdoc": {
    "errors": {
      "AllowanceOverflow()": [
        {
          "details": "The allowance has overflowed."
        }
      ],
      "AllowanceUnderflow()": [
        {
          "details": "The allowance has underflowed."
        }
      ],
      "ECDSAInvalidSignature()": [
        {
          "details": "The signature derives the `address(0)`."
        }
      ],
      "ECDSAInvalidSignatureLength(uint256)": [
        {
          "details": "The signature has an invalid length."
        }
      ],
      "ECDSAInvalidSignatureS(bytes32)": [
        {
          "details": "The signature has an S value that is in the upper half order."
        }
      ],
      "InsufficientAllowance()": [
        {
          "details": "Insufficient allowance."
        }
      ],
      "InsufficientBalance()": [
        {
          "details": "Insufficient balance."
        }
      ],
      "InvalidPermit()": [
        {
          "details": "The permit is invalid."
        }
      ],
      "PermitExpired()": [
        {
          "details": "The permit has expired."
        }
      ],
      "TotalSupplyOverflow()": [
        {
          "details": "The total supply has overflowed."
        }
      ]
    },
    "events": {
      "Approval(address,address,uint256)": {
        "details": "Emitted when `amount` tokens is approved by `owner` to be used by `spender`."
      },
      "ApprovalEncrypted(address,address)": {
        "details": "Emitted when the allowance of a `spender` for an `owner` is set by a call to {approveEncrypted}. `value` is the new allowance."
      },
      "EIP712DomainChanged()": {
        "details": "MAY be emitted to signal that the domain could have changed."
      },
      "Transfer(address,address,uint256)": {
        "details": "Emitted when `amount` tokens is transferred from `from` to `to`."
      },
      "TransferEncrypted(address,address)": {
        "details": "Emitted when `value` tokens are moved from one account (`from`) to another (`to`). Note that `value` may be zero."
      }
    },
    "kind": "dev",
    "methods": {
      "DOMAIN_SEPARATOR()": {
        "details": "Returns the EIP-712 domain separator for the EIP-2612 permit."
      },
      "allowance(address,address)": {
        "details": "Returns the amount of tokens that `spender` can spend on behalf of `owner`."
      },
      "allowanceEncrypted(address,(bytes32,bytes))": {
        "details": "Returns the remaining number of tokens that `spender` will be allowed to spend on behalf of `owner` through {transferFrom}. This is zero by default. This value changes when {approve} or {transferFrom} are called."
      },
      "approve(address,uint256)": {
        "details": "Sets `amount` as the allowance of `spender` over the caller's tokens. Emits a {Approval} event."
      },
      "approveEncrypted(address,(bytes))": {
        "details": "Sets a `value` amount of tokens as the allowance of `spender` over the caller's tokens. Returns a boolean value indicating whether the operation succeeded. IMPORTANT: Beware that changing an allowance with this method brings the risk that someone may use both the old and the new allowance by unfortunate transaction ordering. One possible solution to mitigate this race condition is to first reduce the spender's allowance to 0 and set the desired value afterwards: https://github.com/ethereum/EIPs/issues/20#issuecomment-263524729 Emits an {ApprovalEncrypted} event."
      },
      "balanceOf(address)": {
        "details": "Returns the amount of tokens owned by `owner`."
      },
      "balanceOfEncrypted(address,(bytes32,bytes))": {
        "details": "Returns the value of tokens owned by `account`, sealed and encrypted for the caller."
      },
      "decimals()": {
        "details": "Returns the decimals places of the token."
      },
      "eip712Domain()": {
        "details": "See {IERC-5267}."
      },
      "name()": {
        "details": "Returns the name of the token."
      },
      "nonces(address)": {
        "details": "Returns the current nonce for `owner`. This value is used to compute the signature for EIP-2612 permit."
      },
      "permit(address,address,uint256,uint256,uint8,bytes32,bytes32)": {
        "details": "Sets `value` as the allowance of `spender` over the tokens of `owner`, authorized by a signed approval by `owner`. Emits a {Approval} event."
      },
      "symbol()": {
        "details": "Returns the symbol of the token."
      },
      "totalSupply()": {
        "details": "Returns the amount of tokens in existence."
      },
      "transfer(address,uint256)": {
        "details": "Transfer `amount` tokens from the caller to `to`. Requirements: - `from` must at least have `amount`. Emits a {Transfer} event."
      },
      "transferFrom(address,address,uint256)": {
        "details": "Transfers `amount` tokens from `from` to `to`. Note: Does not update the allowance if it is the maximum uint256 value. Requirements: - `from` must at least have `amount`. - The caller must have at least `amount` of allowance to transfer the tokens of `from`. Emits a {Transfer} event."
      },
      "transferFromEncrypted(address,address,(bytes))": {
        "details": "Moves a `value` amount of tokens from `from` to `to` using the allowance mechanism. `value` is then deducted from the caller's allowance. Returns a boolean value indicating whether the operation succeeded. Emits a {TransferEncrypted} event."
      }
    },
    "version": 1
  },
  "userdoc": {
    "errors": {
      "SignerNotMessageSender()": [
        {
          "notice": "Emitted when the signer is not the message sender"
        }
      ],
      "SignerNotOwner()": [
        {
          "notice": "Emitted when the signer is not the specified owner"
        }
      ]
    },
    "kind": "user",
    "methods": {},
    "version": 1
  },
  "storageLayout": {
    "storage": [
      {
        "astId": 16568,
        "contract": "contracts/tokens/FakeUSD.sol:FakeUSD",
        "label": "_nameFallback",
        "offset": 0,
        "slot": "0",
        "type": "t_string_storage"
      },
      {
        "astId": 16570,
        "contract": "contracts/tokens/FakeUSD.sol:FakeUSD",
        "label": "_versionFallback",
        "offset": 0,
        "slot": "1",
        "type": "t_string_storage"
      },
      {
        "astId": 18126,
        "contract": "contracts/tokens/FakeUSD.sol:FakeUSD",
        "label": "_encTotalSupply",
        "offset": 0,
        "slot": "2",
        "type": "t_userDefinedValueType(euint32)12"
      },
      {
        "astId": 18131,
        "contract": "contracts/tokens/FakeUSD.sol:FakeUSD",
        "label": "_encBalanceOf",
        "offset": 0,
        "slot": "3",
        "type": "t_mapping(t_address,t_userDefinedValueType(euint32)12)"
      },
      {
        "astId": 18138,
        "contract": "contracts/tokens/FakeUSD.sol:FakeUSD",
        "label": "_encAllowance",
        "offset": 0,
        "slot": "4",
        "type": "t_mapping(t_address,t_mapping(t_address,t_userDefinedValueType(euint32)12))"
      },
      {
        "astId": 18140,
        "contract": "contracts/tokens/FakeUSD.sol:FakeUSD",
        "label": "_name",
        "offset": 0,
        "slot": "5",
        "type": "t_string_storage"
      },
      {
        "astId": 18142,
        "contract": "contracts/tokens/FakeUSD.sol:FakeUSD",
        "label": "_symbol",
        "offset": 0,
        "slot": "6",
        "type": "t_string_storage"
      }
    ],
    "types": {
      "t_address": {
        "encoding": "inplace",
        "label": "address",
        "numberOfBytes": "20"
      },
      "t_mapping(t_address,t_mapping(t_address,t_userDefinedValueType(euint32)12))": {
        "encoding": "mapping",
        "key": "t_address",
        "label": "mapping(address => mapping(address => euint32))",
        "numberOfBytes": "32",
        "value": "t_mapping(t_address,t_userDefinedValueType(euint32)12)"
      },
      "t_mapping(t_address,t_userDefinedValueType(euint32)12)": {
        "encoding": "mapping",
        "key": "t_address",
        "label": "mapping(address => euint32)",
        "numberOfBytes": "32",
        "value": "t_userDefinedValueType(euint32)12"
      },
      "t_string_storage": {
        "encoding": "bytes",
        "label": "string",
        "numberOfBytes": "32"
      },
      "t_userDefinedValueType(euint32)12": {
        "encoding": "inplace",
        "label": "euint32",
        "numberOfBytes": "32"
      }
    }
  }
}