{
  "address": "0xa8b2CB794280A20875A8C8013c3b5396f25b10D7",
  "abi": [
    {
      "inputs": [
        {
          "components": [
            {
              "internalType": "bytes",
              "name": "data",
              "type": "bytes"
            }
          ],
          "internalType": "struct inEuint32",
          "name": "_initialSupply",
          "type": "tuple"
        }
      ],
      "stateMutability": "nonpayable",
      "type": "constructor"
    },
    {
      "inputs": [],
      "name": "AllowanceOverflow",
      "type": "error"
    },
    {
      "inputs": [],
      "name": "AllowanceUnderflow",
      "type": "error"
    },
    {
      "inputs": [],
      "name": "ECDSAInvalidSignature",
      "type": "error"
    },
    {
      "inputs": [
        {
          "internalType": "uint256",
          "name": "length",
          "type": "uint256"
        }
      ],
      "name": "ECDSAInvalidSignatureLength",
      "type": "error"
    },
    {
      "inputs": [
        {
          "internalType": "bytes32",
          "name": "s",
          "type": "bytes32"
        }
      ],
      "name": "ECDSAInvalidSignatureS",
      "type": "error"
    },
    {
      "inputs": [],
      "name": "ErrorInsufficientFunds",
      "type": "error"
    },
    {
      "inputs": [],
      "name": "InsufficientAllowance",
      "type": "error"
    },
    {
      "inputs": [],
      "name": "InsufficientBalance",
      "type": "error"
    },
    {
      "inputs": [],
      "name": "InvalidPermit",
      "type": "error"
    },
    {
      "inputs": [],
      "name": "InvalidShortString",
      "type": "error"
    },
    {
      "inputs": [],
      "name": "PermitExpired",
      "type": "error"
    },
    {
      "inputs": [],
      "name": "SignerNotMessageSender",
      "type": "error"
    },
    {
      "inputs": [],
      "name": "SignerNotOwner",
      "type": "error"
    },
    {
      "inputs": [
        {
          "internalType": "string",
          "name": "str",
          "type": "string"
        }
      ],
      "name": "StringTooLong",
      "type": "error"
    },
    {
      "inputs": [],
      "name": "TotalSupplyOverflow",
      "type": "error"
    },
    {
      "anonymous": false,
      "inputs": [
        {
          "indexed": true,
          "internalType": "address",
          "name": "owner",
          "type": "address"
        },
        {
          "indexed": true,
          "internalType": "address",
          "name": "spender",
          "type": "address"
        },
        {
          "indexed": false,
          "internalType": "uint256",
          "name": "amount",
          "type": "uint256"
        }
      ],
      "name": "Approval",
      "type": "event"
    },
    {
      "anonymous": false,
      "inputs": [
        {
          "indexed": true,
          "internalType": "address",
          "name": "owner",
          "type": "address"
        },
        {
          "indexed": true,
          "internalType": "address",
          "name": "spender",
          "type": "address"
        }
      ],
      "name": "ApprovalEncrypted",
      "type": "event"
    },
    {
      "anonymous": false,
      "inputs": [],
      "name": "EIP712DomainChanged",
      "type": "event"
    },
    {
      "anonymous": false,
      "inputs": [
        {
          "indexed": true,
          "internalType": "address",
          "name": "from",
          "type": "address"
        },
        {
          "indexed": true,
          "internalType": "address",
          "name": "to",
          "type": "address"
        },
        {
          "indexed": false,
          "internalType": "uint256",
          "name": "amount",
          "type": "uint256"
        }
      ],
      "name": "Transfer",
      "type": "event"
    },
    {
      "anonymous": false,
      "inputs": [
        {
          "indexed": true,
          "internalType": "address",
          "name": "from",
          "type": "address"
        },
        {
          "indexed": true,
          "internalType": "address",
          "name": "to",
          "type": "address"
        }
      ],
      "name": "TransferEncrypted",
      "type": "event"
    },
    {
      "inputs": [],
      "name": "DOMAIN_SEPARATOR",
      "outputs": [
        {
          "internalType": "bytes32",
          "name": "result",
          "type": "bytes32"
        }
      ],
      "stateMutability": "view",
      "type": "function"
    },
    {
      "inputs": [
        {
          "internalType": "address",
          "name": "owner",
          "type": "address"
        },
        {
          "internalType": "address",
          "name": "spender",
          "type": "address"
        }
      ],
      "name": "allowance",
      "outputs": [
        {
          "internalType": "uint256",
          "name": "result",
          "type": "uint256"
        }
      ],
      "stateMutability": "view",
      "type": "function"
    },
    {
      "inputs": [
        {
          "internalType": "address",
          "name": "spender",
          "type": "address"
        },
        {
          "components": [
            {
              "internalType": "bytes32",
              "name": "publicKey",
              "type": "bytes32"
            },
            {
              "internalType": "bytes",
              "name": "signature",
              "type": "bytes"
            }
          ],
          "internalType": "struct Permission",
          "name": "permission",
          "type": "tuple"
        }
      ],
      "name": "allowanceEncrypted",
      "outputs": [
        {
          "internalType": "string",
          "name": "",
          "type": "string"
        }
      ],
      "stateMutability": "view",
      "type": "function"
    },
    {
      "inputs": [
        {
          "internalType": "address",
          "name": "spender",
          "type": "address"
        },
        {
          "internalType": "uint256",
          "name": "amount",
          "type": "uint256"
        }
      ],
      "name": "approve",
      "outputs": [
        {
          "internalType": "bool",
          "name": "",
          "type": "bool"
        }
      ],
      "stateMutability": "nonpayable",
      "type": "function"
    },
    {
      "inputs": [
        {
          "internalType": "address",
          "name": "spender",
          "type": "address"
        },
        {
          "components": [
            {
              "internalType": "bytes",
              "name": "data",
              "type": "bytes"
            }
          ],
          "internalType": "struct inEuint32",
          "name": "value",
          "type": "tuple"
        }
      ],
      "name": "approveEncrypted",
      "outputs": [
        {
          "internalType": "bool",
          "name": "",
          "type": "bool"
        }
      ],
      "stateMutability": "nonpayable",
      "type": "function"
    },
    {
      "inputs": [
        {
          "internalType": "address",
          "name": "owner",
          "type": "address"
        }
      ],
      "name": "balanceOf",
      "outputs": [
        {
          "internalType": "uint256",
          "name": "result",
          "type": "uint256"
        }
      ],
      "stateMutability": "view",
      "type": "function"
    },
    {
      "inputs": [
        {
          "internalType": "address",
          "name": "account",
          "type": "address"
        },
        {
          "components": [
            {
              "internalType": "bytes32",
              "name": "publicKey",
              "type": "bytes32"
            },
            {
              "internalType": "bytes",
              "name": "signature",
              "type": "bytes"
            }
          ],
          "internalType": "struct Permission",
          "name": "auth",
          "type": "tuple"
        }
      ],
      "name": "balanceOfEncrypted",
      "outputs": [
        {
          "internalType": "string",
          "name": "",
          "type": "string"
        }
      ],
      "stateMutability": "view",
      "type": "function"
    },
    {
      "inputs": [],
      "name": "decimals",
      "outputs": [
        {
          "internalType": "uint8",
          "name": "",
          "type": "uint8"
        }
      ],
      "stateMutability": "pure",
      "type": "function"
    },
    {
      "inputs": [],
      "name": "eip712Domain",
      "outputs": [
        {
          "internalType": "bytes1",
          "name": "fields",
          "type": "bytes1"
        },
        {
          "internalType": "string",
          "name": "name",
          "type": "string"
        },
        {
          "internalType": "string",
          "name": "version",
          "type": "string"
        },
        {
          "internalType": "uint256",
          "name": "chainId",
          "type": "uint256"
        },
        {
          "internalType": "address",
          "name": "verifyingContract",
          "type": "address"
        },
        {
          "internalType": "bytes32",
          "name": "salt",
          "type": "bytes32"
        },
        {
          "internalType": "uint256[]",
          "name": "extensions",
          "type": "uint256[]"
        }
      ],
      "stateMutability": "view",
      "type": "function"
    },
    {
      "inputs": [],
      "name": "name",
      "outputs": [
        {
          "internalType": "string",
          "name": "",
          "type": "string"
        }
      ],
      "stateMutability": "view",
      "type": "function"
    },
    {
      "inputs": [
        {
          "internalType": "address",
          "name": "owner",
          "type": "address"
        }
      ],
      "name": "nonces",
      "outputs": [
        {
          "internalType": "uint256",
          "name": "result",
          "type": "uint256"
        }
      ],
      "stateMutability": "view",
      "type": "function"
    },
    {
      "inputs": [
        {
          "internalType": "address",
          "name": "owner",
          "type": "address"
        },
        {
          "internalType": "address",
          "name": "spender",
          "type": "address"
        },
        {
          "internalType": "uint256",
          "name": "value",
          "type": "uint256"
        },
        {
          "internalType": "uint256",
          "name": "deadline",
          "type": "uint256"
        },
        {
          "internalType": "uint8",
          "name": "v",
          "type": "uint8"
        },
        {
          "internalType": "bytes32",
          "name": "r",
          "type": "bytes32"
        },
        {
          "internalType": "bytes32",
          "name": "s",
          "type": "bytes32"
        }
      ],
      "name": "permit",
      "outputs": [],
      "stateMutability": "nonpayable",
      "type": "function"
    },
    {
      "inputs": [],
      "name": "symbol",
      "outputs": [
        {
          "internalType": "string",
          "name": "",
          "type": "string"
        }
      ],
      "stateMutability": "view",
      "type": "function"
    },
    {
      "inputs": [],
      "name": "totalSupply",
      "outputs": [
        {
          "internalType": "uint256",
          "name": "result",
          "type": "uint256"
        }
      ],
      "stateMutability": "view",
      "type": "function"
    },
    {
      "inputs": [
        {
          "internalType": "address",
          "name": "to",
          "type": "address"
        },
        {
          "internalType": "uint256",
          "name": "amount",
          "type": "uint256"
        }
      ],
      "name": "transfer",
      "outputs": [
        {
          "internalType": "bool",
          "name": "",
          "type": "bool"
        }
      ],
      "stateMutability": "nonpayable",
      "type": "function"
    },
    {
      "inputs": [
        {
          "internalType": "address",
          "name": "to",
          "type": "address"
        },
        {
          "components": [
            {
              "internalType": "bytes",
              "name": "data",
              "type": "bytes"
            }
          ],
          "internalType": "struct inEuint32",
          "name": "encryptedAmount",
          "type": "tuple"
        }
      ],
      "name": "transferEncrypted",
      "outputs": [
        {
          "internalType": "euint32",
          "name": "",
          "type": "uint256"
        }
      ],
      "stateMutability": "nonpayable",
      "type": "function"
    },
    {
      "inputs": [
        {
          "internalType": "address",
          "name": "to",
          "type": "address"
        },
        {
          "internalType": "euint32",
          "name": "amount",
          "type": "uint256"
        }
      ],
      "name": "transferEncrypted",
      "outputs": [
        {
          "internalType": "euint32",
          "name": "",
          "type": "uint256"
        }
      ],
      "stateMutability": "nonpayable",
      "type": "function"
    },
    {
      "inputs": [
        {
          "internalType": "address",
          "name": "from",
          "type": "address"
        },
        {
          "internalType": "address",
          "name": "to",
          "type": "address"
        },
        {
          "internalType": "uint256",
          "name": "amount",
          "type": "uint256"
        }
      ],
      "name": "transferFrom",
      "outputs": [
        {
          "internalType": "bool",
          "name": "",
          "type": "bool"
        }
      ],
      "stateMutability": "nonpayable",
      "type": "function"
    },
    {
      "inputs": [
        {
          "internalType": "address",
          "name": "from",
          "type": "address"
        },
        {
          "internalType": "address",
          "name": "to",
          "type": "address"
        },
        {
          "components": [
            {
              "internalType": "bytes",
              "name": "data",
              "type": "bytes"
            }
          ],
          "internalType": "struct inEuint32",
          "name": "value",
          "type": "tuple"
        }
      ],
      "name": "transferFromEncrypted",
      "outputs": [
        {
          "internalType": "euint32",
          "name": "",
          "type": "uint256"
        }
      ],
      "stateMutability": "nonpayable",
      "type": "function"
    },
    {
      "inputs": [
        {
          "internalType": "address",
          "name": "from",
          "type": "address"
        },
        {
          "internalType": "address",
          "name": "to",
          "type": "address"
        },
        {
          "internalType": "euint32",
          "name": "value",
          "type": "uint256"
        }
      ],
      "name": "transferFromEncrypted",
      "outputs": [
        {
          "internalType": "euint32",
          "name": "",
          "type": "uint256"
        }
      ],
      "stateMutability": "nonpayable",
      "type": "function"
    },
    {
      "inputs": [
        {
          "internalType": "uint32",
          "name": "amount",
          "type": "uint32"
        }
      ],
      "name": "unwrap",
      "outputs": [],
      "stateMutability": "nonpayable",
      "type": "function"
    },
    {
      "inputs": [
        {
          "internalType": "uint32",
          "name": "amount",
          "type": "uint32"
        }
      ],
      "name": "wrap",
      "outputs": [],
      "stateMutability": "nonpayable",
      "type": "function"
    }
  ],
  "transactionHash": "0xa6ab98b5c18188962bb5e6f3ee4cb6f2fef7a99682e4a1be844eb326720968ff",
  "args": [
    {
      "data": {
        "0": 16,
        "1": 8,
        "2": 0,
        "3": 0,
        "4": 0,
        "5": 0,
        "6": 0,
        "7": 0,
        "8": 48,
        "9": 251,
        "10": 62,
        "11": 100,
        "12": 169,
        "13": 226,
        "14": 185,
        "15": 189,
        "16": 48,
        "17": 21,
        "18": 173,
        "19": 85,
        "20": 48,
        "21": 51,
        "22": 176,
        "23": 0,
        "24": 203,
        "25": 160,
        "26": 18,
        "27": 111,
        "28": 88,
        "29": 43,
        "30": 94,
        "31": 208,
        "32": 77,
        "33": 22,
        "34": 228,
        "35": 109,
        "36": 123,
        "37": 246,
        "38": 117,
        "39": 216,
        "40": 78,
        "41": 85,
        "42": 180,
        "43": 143,
        "44": 105,
        "45": 90,
        "46": 184,
        "47": 168,
        "48": 47,
        "49": 242,
        "50": 59,
        "51": 96,
        "52": 12,
        "53": 26,
        "54": 123,
        "55": 84,
        "56": 66,
        "57": 166,
        "58": 70,
        "59": 22,
        "60": 160,
        "61": 251,
        "62": 222,
        "63": 127,
        "64": 15,
        "65": 126,
        "66": 169,
        "67": 162,
        "68": 179,
        "69": 68,
        "70": 64,
        "71": 91,
        "72": 67,
        "73": 137,
        "74": 51,
        "75": 235,
        "76": 250,
        "77": 94,
        "78": 72,
        "79": 198,
        "80": 73,
        "81": 31,
        "82": 233,
        "83": 103,
        "84": 133,
        "85": 99,
        "86": 21,
        "87": 132,
        "88": 244,
        "89": 148,
        "90": 88,
        "91": 42,
        "92": 22,
        "93": 105,
        "94": 4,
        "95": 231,
        "96": 139,
        "97": 117,
        "98": 50,
        "99": 239,
        "100": 123,
        "101": 217,
        "102": 203,
        "103": 138,
        "104": 15,
        "105": 22,
        "106": 0,
        "107": 244,
        "108": 155,
        "109": 167,
        "110": 208,
        "111": 205,
        "112": 85,
        "113": 43,
        "114": 230,
        "115": 110,
        "116": 145,
        "117": 42,
        "118": 0,
        "119": 44,
        "120": 112,
        "121": 235,
        "122": 93,
        "123": 128,
        "124": 75,
        "125": 33,
        "126": 123,
        "127": 32,
        "128": 129,
        "129": 35,
        "130": 189,
        "131": 126,
        "132": 19,
        "133": 134,
        "134": 158,
        "135": 245,
        "136": 158,
        "137": 59,
        "138": 250,
        "139": 8,
        "140": 208,
        "141": 107,
        "142": 251,
        "143": 24,
        "144": 44,
        "145": 124,
        "146": 235,
        "147": 170,
        "148": 41,
        "149": 240,
        "150": 122,
        "151": 126,
        "152": 109,
        "153": 254,
        "154": 164,
        "155": 147,
        "156": 232,
        "157": 9,
        "158": 102,
        "159": 249,
        "160": 40,
        "161": 45,
        "162": 39,
        "163": 0,
        "164": 37,
        "165": 179,
        "166": 253,
        "167": 48,
        "168": 160,
        "169": 88,
        "170": 216,
        "171": 57,
        "172": 247,
        "173": 27,
        "174": 150,
        "175": 58,
        "176": 211,
        "177": 149,
        "178": 105,
        "179": 239,
        "180": 13,
        "181": 0,
        "182": 6,
        "183": 1,
        "184": 117,
        "185": 14,
        "186": 29,
        "187": 180,
        "188": 29,
        "189": 14,
        "190": 210,
        "191": 111,
        "192": 191,
        "193": 77,
        "194": 187,
        "195": 20,
        "196": 87,
        "197": 92,
        "198": 72,
        "199": 107,
        "200": 254,
        "201": 14,
        "202": 122,
        "203": 108,
        "204": 255,
        "205": 109,
        "206": 37,
        "207": 47,
        "208": 53,
        "209": 46,
        "210": 178,
        "211": 136,
        "212": 78,
        "213": 199,
        "214": 161,
        "215": 111,
        "216": 56,
        "217": 160,
        "218": 40,
        "219": 88,
        "220": 126,
        "221": 16,
        "222": 68,
        "223": 12,
        "224": 156,
        "225": 165,
        "226": 12,
        "227": 1,
        "228": 86,
        "229": 231,
        "230": 116,
        "231": 68,
        "232": 29,
        "233": 186,
        "234": 190,
        "235": 16,
        "236": 78,
        "237": 171,
        "238": 173,
        "239": 70,
        "240": 172,
        "241": 196,
        "242": 178,
        "243": 225,
        "244": 111,
        "245": 180,
        "246": 10,
        "247": 5,
        "248": 85,
        "249": 210,
        "250": 161,
        "251": 16,
        "252": 165,
        "253": 0,
        "254": 125,
        "255": 4,
        "256": 175,
        "257": 212,
        "258": 60,
        "259": 36,
        "260": 136,
        "261": 40,
        "262": 126,
        "263": 61,
        "264": 76,
        "265": 171,
        "266": 153,
        "267": 58,
        "268": 192,
        "269": 63,
        "270": 99,
        "271": 85,
        "272": 212,
        "273": 173,
        "274": 210,
        "275": 149,
        "276": 108,
        "277": 148,
        "278": 102,
        "279": 31,
        "280": 238,
        "281": 106,
        "282": 146,
        "283": 246,
        "284": 3,
        "285": 132,
        "286": 233,
        "287": 27,
        "288": 204,
        "289": 241,
        "290": 182,
        "291": 101,
        "292": 184,
        "293": 124,
        "294": 12,
        "295": 146,
        "296": 36,
        "297": 171,
        "298": 118,
        "299": 6,
        "300": 48,
        "301": 192,
        "302": 0,
        "303": 121,
        "304": 53,
        "305": 220,
        "306": 105,
        "307": 77,
        "308": 235,
        "309": 227,
        "310": 143,
        "311": 228,
        "312": 198,
        "313": 196,
        "314": 184,
        "315": 4,
        "316": 117,
        "317": 177,
        "318": 74,
        "319": 3,
        "320": 139,
        "321": 96,
        "322": 72,
        "323": 206,
        "324": 21,
        "325": 230,
        "326": 172,
        "327": 173,
        "328": 211,
        "329": 199,
        "330": 30,
        "331": 59,
        "332": 91,
        "333": 41,
        "334": 254,
        "335": 142,
        "336": 68,
        "337": 19,
        "338": 146,
        "339": 83,
        "340": 46,
        "341": 26,
        "342": 175,
        "343": 117,
        "344": 12,
        "345": 214,
        "346": 229,
        "347": 150,
        "348": 241,
        "349": 71,
        "350": 80,
        "351": 69,
        "352": 145,
        "353": 240,
        "354": 28,
        "355": 21,
        "356": 116,
        "357": 33,
        "358": 184,
        "359": 11,
        "360": 102,
        "361": 221,
        "362": 153,
        "363": 97,
        "364": 2,
        "365": 104,
        "366": 246,
        "367": 192,
        "368": 5,
        "369": 33,
        "370": 15,
        "371": 200,
        "372": 143,
        "373": 172,
        "374": 102,
        "375": 69,
        "376": 11,
        "377": 238,
        "378": 102,
        "379": 45,
        "380": 95,
        "381": 42,
        "382": 18,
        "383": 127,
        "384": 184,
        "385": 215,
        "386": 82,
        "387": 157,
        "388": 199,
        "389": 86,
        "390": 113,
        "391": 49,
        "392": 189,
        "393": 195,
        "394": 139,
        "395": 183,
        "396": 54,
        "397": 35,
        "398": 127,
        "399": 64,
        "400": 200,
        "401": 54,
        "402": 125,
        "403": 93,
        "404": 10,
        "405": 102,
        "406": 248,
        "407": 251,
        "408": 40,
        "409": 146,
        "410": 15,
        "411": 24,
        "412": 25,
        "413": 107,
        "414": 198,
        "415": 100,
        "416": 118,
        "417": 200,
        "418": 228,
        "419": 46,
        "420": 174,
        "421": 124,
        "422": 9,
        "423": 0,
        "424": 18,
        "425": 56,
        "426": 71,
        "427": 152,
        "428": 172,
        "429": 211,
        "430": 212,
        "431": 229,
        "432": 245,
        "433": 216,
        "434": 143,
        "435": 238,
        "436": 222,
        "437": 85,
        "438": 125,
        "439": 25,
        "440": 77,
        "441": 148,
        "442": 249,
        "443": 53,
        "444": 46,
        "445": 141,
        "446": 210,
        "447": 40,
        "448": 54,
        "449": 62,
        "450": 69,
        "451": 181,
        "452": 141,
        "453": 196,
        "454": 49,
        "455": 203,
        "456": 141,
        "457": 81,
        "458": 130,
        "459": 142,
        "460": 77,
        "461": 190,
        "462": 82,
        "463": 1,
        "464": 215,
        "465": 178,
        "466": 102,
        "467": 126,
        "468": 176,
        "469": 212,
        "470": 228,
        "471": 147,
        "472": 110,
        "473": 79,
        "474": 23,
        "475": 232,
        "476": 143,
        "477": 172,
        "478": 1,
        "479": 248,
        "480": 124,
        "481": 48,
        "482": 235,
        "483": 101,
        "484": 118,
        "485": 26,
        "486": 211,
        "487": 167,
        "488": 157,
        "489": 154,
        "490": 127,
        "491": 40,
        "492": 57,
        "493": 141,
        "494": 62,
        "495": 80,
        "496": 149,
        "497": 186,
        "498": 83,
        "499": 240,
        "500": 50,
        "501": 165,
        "502": 48,
        "503": 72,
        "504": 198,
        "505": 84,
        "506": 230,
        "507": 50,
        "508": 103,
        "509": 98,
        "510": 162,
        "511": 75,
        "512": 61,
        "513": 164,
        "514": 168,
        "515": 68,
        "516": 191,
        "517": 64,
        "518": 152,
        "519": 212,
        "520": 8,
        "521": 224,
        "522": 105,
        "523": 137,
        "524": 208,
        "525": 141,
        "526": 35,
        "527": 29,
        "528": 196,
        "529": 136,
        "530": 216,
        "531": 141,
        "532": 220,
        "533": 49,
        "534": 56,
        "535": 228,
        "536": 239,
        "537": 122,
        "538": 124,
        "539": 183,
        "540": 35,
        "541": 72,
        "542": 111,
        "543": 145,
        "544": 30,
        "545": 246,
        "546": 195,
        "547": 4,
        "548": 126,
        "549": 243,
        "550": 82,
        "551": 171,
        "552": 133,
        "553": 195,
        "554": 245,
        "555": 32,
        "556": 157,
        "557": 102,
        "558": 101,
        "559": 78,
        "560": 169,
        "561": 230,
        "562": 204,
        "563": 55,
        "564": 246,
        "565": 214,
        "566": 253,
        "567": 220,
        "568": 27,
        "569": 46,
        "570": 130,
        "571": 94,
        "572": 110,
        "573": 238,
        "574": 236,
        "575": 139,
        "576": 14,
        "577": 160,
        "578": 128,
        "579": 143,
        "580": 242,
        "581": 141,
        "582": 126,
        "583": 224,
        "584": 140,
        "585": 55,
        "586": 128,
        "587": 180,
        "588": 126,
        "589": 171,
        "590": 164,
        "591": 134,
        "592": 18,
        "593": 104,
        "594": 48,
        "595": 25,
        "596": 43,
        "597": 246,
        "598": 152,
        "599": 13,
        "600": 33,
        "601": 120,
        "602": 141,
        "603": 56,
        "604": 68,
        "605": 136,
        "606": 171,
        "607": 38,
        "608": 140,
        "609": 237,
        "610": 208,
        "611": 5,
        "612": 116,
        "613": 19,
        "614": 120,
        "615": 148,
        "616": 146,
        "617": 173,
        "618": 124,
        "619": 238,
        "620": 111,
        "621": 191,
        "622": 165,
        "623": 89,
        "624": 182,
        "625": 216,
        "626": 136,
        "627": 77,
        "628": 250,
        "629": 4,
        "630": 88,
        "631": 242,
        "632": 244,
        "633": 153,
        "634": 157,
        "635": 146,
        "636": 121,
        "637": 95,
        "638": 242,
        "639": 138,
        "640": 175,
        "641": 8,
        "642": 243,
        "643": 113,
        "644": 116,
        "645": 16,
        "646": 4,
        "647": 66,
        "648": 165,
        "649": 64,
        "650": 25,
        "651": 21,
        "652": 228,
        "653": 125,
        "654": 149,
        "655": 80,
        "656": 232,
        "657": 226,
        "658": 82,
        "659": 101,
        "660": 53,
        "661": 105,
        "662": 194,
        "663": 236,
        "664": 140,
        "665": 62,
        "666": 101,
        "667": 65,
        "668": 165,
        "669": 45,
        "670": 29,
        "671": 106,
        "672": 241,
        "673": 57,
        "674": 33,
        "675": 140,
        "676": 136,
        "677": 227,
        "678": 142,
        "679": 47,
        "680": 234,
        "681": 243,
        "682": 24,
        "683": 177,
        "684": 9,
        "685": 234,
        "686": 141,
        "687": 63,
        "688": 231,
        "689": 43,
        "690": 50,
        "691": 5,
        "692": 173,
        "693": 35,
        "694": 171,
        "695": 251,
        "696": 178,
        "697": 181,
        "698": 254,
        "699": 24,
        "700": 246,
        "701": 3,
        "702": 22,
        "703": 157,
        "704": 194,
        "705": 196,
        "706": 213,
        "707": 23,
        "708": 254,
        "709": 107,
        "710": 156,
        "711": 60,
        "712": 153,
        "713": 229,
        "714": 38,
        "715": 207,
        "716": 156,
        "717": 199,
        "718": 68,
        "719": 117,
        "720": 155,
        "721": 147,
        "722": 13,
        "723": 78,
        "724": 209,
        "725": 22,
        "726": 141,
        "727": 56,
        "728": 163,
        "729": 182,
        "730": 201,
        "731": 207,
        "732": 216,
        "733": 97,
        "734": 232,
        "735": 52,
        "736": 93,
        "737": 209,
        "738": 99,
        "739": 93,
        "740": 85,
        "741": 25,
        "742": 33,
        "743": 51,
        "744": 214,
        "745": 189,
        "746": 55,
        "747": 246,
        "748": 155,
        "749": 172,
        "750": 121,
        "751": 175,
        "752": 228,
        "753": 185,
        "754": 183,
        "755": 156,
        "756": 90,
        "757": 209,
        "758": 241,
        "759": 45,
        "760": 35,
        "761": 144,
        "762": 29,
        "763": 123,
        "764": 29,
        "765": 149,
        "766": 6,
        "767": 49,
        "768": 229,
        "769": 79,
        "770": 74,
        "771": 25,
        "772": 235,
        "773": 87,
        "774": 238,
        "775": 137,
        "776": 115,
        "777": 216,
        "778": 141,
        "779": 2,
        "780": 36,
        "781": 128,
        "782": 121,
        "783": 171,
        "784": 160,
        "785": 129,
        "786": 56,
        "787": 91,
        "788": 221,
        "789": 166,
        "790": 106,
        "791": 234,
        "792": 121,
        "793": 72,
        "794": 254,
        "795": 96,
        "796": 168,
        "797": 163,
        "798": 76,
        "799": 70,
        "800": 117,
        "801": 216,
        "802": 80,
        "803": 110,
        "804": 19,
        "805": 238,
        "806": 149,
        "807": 73,
        "808": 229,
        "809": 51,
        "810": 111,
        "811": 34,
        "812": 123,
        "813": 42,
        "814": 147,
        "815": 159,
        "816": 145,
        "817": 102,
        "818": 116,
        "819": 188,
        "820": 43,
        "821": 204,
        "822": 161,
        "823": 173,
        "824": 164,
        "825": 50,
        "826": 100,
        "827": 29,
        "828": 99,
        "829": 60,
        "830": 115,
        "831": 55,
        "832": 89,
        "833": 235,
        "834": 42,
        "835": 99,
        "836": 240,
        "837": 63,
        "838": 38,
        "839": 168,
        "840": 146,
        "841": 67,
        "842": 50,
        "843": 174,
        "844": 8,
        "845": 237,
        "846": 240,
        "847": 100,
        "848": 131,
        "849": 3,
        "850": 246,
        "851": 95,
        "852": 254,
        "853": 146,
        "854": 82,
        "855": 112,
        "856": 59,
        "857": 214,
        "858": 183,
        "859": 92,
        "860": 67,
        "861": 139,
        "862": 23,
        "863": 226,
        "864": 151,
        "865": 122,
        "866": 153,
        "867": 132,
        "868": 191,
        "869": 198,
        "870": 204,
        "871": 194,
        "872": 201,
        "873": 175,
        "874": 162,
        "875": 144,
        "876": 154,
        "877": 44,
        "878": 214,
        "879": 144,
        "880": 82,
        "881": 163,
        "882": 205,
        "883": 87,
        "884": 118,
        "885": 79,
        "886": 94,
        "887": 180,
        "888": 245,
        "889": 102,
        "890": 150,
        "891": 177,
        "892": 156,
        "893": 123,
        "894": 159,
        "895": 36,
        "896": 105,
        "897": 156,
        "898": 14,
        "899": 167,
        "900": 220,
        "901": 230,
        "902": 138,
        "903": 182,
        "904": 148,
        "905": 145,
        "906": 83,
        "907": 156,
        "908": 140,
        "909": 134,
        "910": 71,
        "911": 135,
        "912": 123,
        "913": 92,
        "914": 37,
        "915": 168,
        "916": 6,
        "917": 109,
        "918": 212,
        "919": 177,
        "920": 139,
        "921": 151,
        "922": 46,
        "923": 87,
        "924": 202,
        "925": 30,
        "926": 156,
        "927": 246,
        "928": 131,
        "929": 235,
        "930": 113,
        "931": 25,
        "932": 244,
        "933": 227,
        "934": 118,
        "935": 224,
        "936": 22,
        "937": 103,
        "938": 8,
        "939": 183,
        "940": 203,
        "941": 154,
        "942": 214,
        "943": 150,
        "944": 27,
        "945": 244,
        "946": 13,
        "947": 182,
        "948": 149,
        "949": 81,
        "950": 172,
        "951": 68,
        "952": 186,
        "953": 200,
        "954": 160,
        "955": 202,
        "956": 191,
        "957": 75,
        "958": 90,
        "959": 33,
        "960": 220,
        "961": 42,
        "962": 72,
        "963": 191,
        "964": 79,
        "965": 132,
        "966": 140,
        "967": 82,
        "968": 32,
        "969": 220,
        "970": 31,
        "971": 165,
        "972": 193,
        "973": 35,
        "974": 196,
        "975": 176,
        "976": 1,
        "977": 54,
        "978": 126,
        "979": 119,
        "980": 243,
        "981": 253,
        "982": 95,
        "983": 155,
        "984": 3,
        "985": 54,
        "986": 237,
        "987": 92,
        "988": 97,
        "989": 248,
        "990": 150,
        "991": 47,
        "992": 201,
        "993": 4,
        "994": 213,
        "995": 56,
        "996": 53,
        "997": 241,
        "998": 62,
        "999": 83,
        "1000": 147,
        "1001": 125,
        "1002": 140,
        "1003": 213,
        "1004": 90,
        "1005": 118,
        "1006": 214,
        "1007": 227,
        "1008": 240,
        "1009": 64,
        "1010": 119,
        "1011": 22,
        "1012": 187,
        "1013": 60,
        "1014": 143,
        "1015": 212,
        "1016": 223,
        "1017": 8,
        "1018": 129,
        "1019": 112,
        "1020": 76,
        "1021": 123,
        "1022": 181,
        "1023": 199,
        "1024": 244,
        "1025": 231,
        "1026": 1,
        "1027": 6,
        "1028": 91,
        "1029": 212,
        "1030": 86,
        "1031": 244,
        "1032": 107,
        "1033": 31,
        "1034": 180,
        "1035": 93,
        "1036": 104,
        "1037": 199,
        "1038": 254,
        "1039": 157,
        "1040": 184,
        "1041": 56,
        "1042": 9,
        "1043": 154,
        "1044": 29,
        "1045": 132,
        "1046": 179,
        "1047": 72,
        "1048": 139,
        "1049": 226,
        "1050": 232,
        "1051": 2,
        "1052": 118,
        "1053": 40,
        "1054": 167,
        "1055": 72,
        "1056": 36,
        "1057": 16,
        "1058": 150,
        "1059": 98,
        "1060": 202,
        "1061": 139,
        "1062": 255,
        "1063": 198,
        "1064": 244,
        "1065": 153,
        "1066": 53,
        "1067": 59,
        "1068": 142,
        "1069": 83,
        "1070": 82,
        "1071": 207,
        "1072": 34,
        "1073": 69,
        "1074": 130,
        "1075": 47,
        "1076": 38,
        "1077": 124,
        "1078": 43,
        "1079": 167,
        "1080": 176,
        "1081": 190,
        "1082": 67,
        "1083": 35,
        "1084": 76,
        "1085": 35,
        "1086": 138,
        "1087": 43,
        "1088": 182,
        "1089": 178,
        "1090": 231,
        "1091": 42,
        "1092": 86,
        "1093": 65,
        "1094": 167,
        "1095": 9,
        "1096": 224,
        "1097": 26,
        "1098": 50,
        "1099": 199,
        "1100": 213,
        "1101": 13,
        "1102": 220,
        "1103": 105,
        "1104": 199,
        "1105": 218,
        "1106": 215,
        "1107": 90,
        "1108": 147,
        "1109": 97,
        "1110": 137,
        "1111": 243,
        "1112": 169,
        "1113": 225,
        "1114": 32,
        "1115": 98,
        "1116": 175,
        "1117": 104,
        "1118": 185,
        "1119": 92,
        "1120": 29,
        "1121": 197,
        "1122": 9,
        "1123": 148,
        "1124": 195,
        "1125": 2,
        "1126": 91,
        "1127": 144,
        "1128": 12,
        "1129": 161,
        "1130": 238,
        "1131": 242,
        "1132": 185,
        "1133": 195,
        "1134": 199,
        "1135": 5,
        "1136": 224,
        "1137": 7,
        "1138": 72,
        "1139": 169,
        "1140": 218,
        "1141": 221,
        "1142": 86,
        "1143": 127,
        "1144": 85,
        "1145": 0,
        "1146": 113,
        "1147": 37,
        "1148": 23,
        "1149": 71,
        "1150": 208,
        "1151": 133,
        "1152": 167,
        "1153": 4,
        "1154": 114,
        "1155": 25,
        "1156": 211,
        "1157": 185,
        "1158": 243,
        "1159": 48,
        "1160": 36,
        "1161": 154,
        "1162": 193,
        "1163": 157,
        "1164": 48,
        "1165": 74,
        "1166": 2,
        "1167": 213,
        "1168": 133,
        "1169": 101,
        "1170": 132,
        "1171": 243,
        "1172": 134,
        "1173": 178,
        "1174": 151,
        "1175": 36,
        "1176": 44,
        "1177": 209,
        "1178": 209,
        "1179": 49,
        "1180": 143,
        "1181": 232,
        "1182": 40,
        "1183": 141,
        "1184": 191,
        "1185": 62,
        "1186": 65,
        "1187": 54,
        "1188": 179,
        "1189": 161,
        "1190": 41,
        "1191": 82,
        "1192": 61,
        "1193": 166,
        "1194": 140,
        "1195": 103,
        "1196": 212,
        "1197": 69,
        "1198": 232,
        "1199": 76,
        "1200": 177,
        "1201": 240,
        "1202": 157,
        "1203": 28,
        "1204": 89,
        "1205": 121,
        "1206": 215,
        "1207": 66,
        "1208": 88,
        "1209": 45,
        "1210": 192,
        "1211": 9,
        "1212": 140,
        "1213": 109,
        "1214": 112,
        "1215": 236,
        "1216": 35,
        "1217": 222,
        "1218": 43,
        "1219": 48,
        "1220": 127,
        "1221": 45,
        "1222": 10,
        "1223": 202,
        "1224": 168,
        "1225": 75,
        "1226": 7,
        "1227": 142,
        "1228": 9,
        "1229": 72,
        "1230": 51,
        "1231": 104,
        "1232": 147,
        "1233": 194,
        "1234": 224,
        "1235": 248,
        "1236": 149,
        "1237": 249,
        "1238": 164,
        "1239": 242,
        "1240": 20,
        "1241": 199,
        "1242": 183,
        "1243": 29,
        "1244": 179,
        "1245": 60,
        "1246": 42,
        "1247": 128,
        "1248": 82,
        "1249": 224,
        "1250": 20,
        "1251": 90,
        "1252": 105,
        "1253": 79,
        "1254": 230,
        "1255": 142,
        "1256": 21,
        "1257": 160,
        "1258": 110,
        "1259": 193,
        "1260": 64,
        "1261": 99,
        "1262": 25,
        "1263": 127,
        "1264": 79,
        "1265": 118,
        "1266": 162,
        "1267": 81,
        "1268": 134,
        "1269": 213,
        "1270": 207,
        "1271": 12,
        "1272": 114,
        "1273": 29,
        "1274": 246,
        "1275": 105,
        "1276": 167,
        "1277": 215,
        "1278": 128,
        "1279": 158,
        "1280": 216,
        "1281": 25,
        "1282": 85,
        "1283": 6,
        "1284": 71,
        "1285": 115,
        "1286": 15,
        "1287": 247,
        "1288": 2,
        "1289": 64,
        "1290": 125,
        "1291": 24,
        "1292": 77,
        "1293": 19,
        "1294": 225,
        "1295": 153,
        "1296": 73,
        "1297": 178,
        "1298": 80,
        "1299": 203,
        "1300": 169,
        "1301": 6,
        "1302": 78,
        "1303": 39,
        "1304": 16,
        "1305": 66,
        "1306": 133,
        "1307": 62,
        "1308": 186,
        "1309": 14,
        "1310": 121,
        "1311": 53,
        "1312": 33,
        "1313": 56,
        "1314": 206,
        "1315": 23,
        "1316": 221,
        "1317": 139,
        "1318": 2,
        "1319": 138,
        "1320": 16,
        "1321": 213,
        "1322": 165,
        "1323": 237,
        "1324": 241,
        "1325": 42,
        "1326": 216,
        "1327": 132,
        "1328": 9,
        "1329": 70,
        "1330": 228,
        "1331": 238,
        "1332": 146,
        "1333": 79,
        "1334": 218,
        "1335": 11,
        "1336": 151,
        "1337": 10,
        "1338": 62,
        "1339": 95,
        "1340": 208,
        "1341": 236,
        "1342": 87,
        "1343": 227,
        "1344": 227,
        "1345": 14,
        "1346": 216,
        "1347": 51,
        "1348": 243,
        "1349": 144,
        "1350": 40,
        "1351": 153,
        "1352": 208,
        "1353": 87,
        "1354": 98,
        "1355": 253,
        "1356": 75,
        "1357": 247,
        "1358": 113,
        "1359": 247,
        "1360": 58,
        "1361": 211,
        "1362": 20,
        "1363": 66,
        "1364": 118,
        "1365": 114,
        "1366": 125,
        "1367": 41,
        "1368": 101,
        "1369": 48,
        "1370": 114,
        "1371": 35,
        "1372": 103,
        "1373": 24,
        "1374": 107,
        "1375": 129,
        "1376": 3,
        "1377": 105,
        "1378": 80,
        "1379": 104,
        "1380": 24,
        "1381": 222,
        "1382": 154,
        "1383": 133,
        "1384": 175,
        "1385": 168,
        "1386": 216,
        "1387": 80,
        "1388": 251,
        "1389": 35,
        "1390": 138,
        "1391": 243,
        "1392": 64,
        "1393": 42,
        "1394": 233,
        "1395": 56,
        "1396": 85,
        "1397": 171,
        "1398": 208,
        "1399": 112,
        "1400": 159,
        "1401": 218,
        "1402": 245,
        "1403": 63,
        "1404": 147,
        "1405": 66,
        "1406": 198,
        "1407": 242,
        "1408": 152,
        "1409": 32,
        "1410": 46,
        "1411": 5,
        "1412": 15,
        "1413": 241,
        "1414": 245,
        "1415": 88,
        "1416": 192,
        "1417": 253,
        "1418": 178,
        "1419": 13,
        "1420": 173,
        "1421": 37,
        "1422": 50,
        "1423": 251,
        "1424": 12,
        "1425": 251,
        "1426": 160,
        "1427": 111,
        "1428": 53,
        "1429": 71,
        "1430": 144,
        "1431": 60,
        "1432": 134,
        "1433": 149,
        "1434": 149,
        "1435": 235,
        "1436": 58,
        "1437": 255,
        "1438": 148,
        "1439": 229,
        "1440": 208,
        "1441": 95,
        "1442": 20,
        "1443": 12,
        "1444": 21,
        "1445": 36,
        "1446": 255,
        "1447": 146,
        "1448": 33,
        "1449": 130,
        "1450": 115,
        "1451": 31,
        "1452": 107,
        "1453": 133,
        "1454": 84,
        "1455": 76,
        "1456": 60,
        "1457": 74,
        "1458": 180,
        "1459": 53,
        "1460": 142,
        "1461": 36,
        "1462": 86,
        "1463": 6,
        "1464": 236,
        "1465": 194,
        "1466": 2,
        "1467": 147,
        "1468": 151,
        "1469": 236,
        "1470": 123,
        "1471": 134,
        "1472": 212,
        "1473": 3,
        "1474": 19,
        "1475": 154,
        "1476": 246,
        "1477": 216,
        "1478": 172,
        "1479": 155,
        "1480": 159,
        "1481": 169,
        "1482": 186,
        "1483": 31,
        "1484": 221,
        "1485": 222,
        "1486": 215,
        "1487": 210,
        "1488": 92,
        "1489": 126,
        "1490": 38,
        "1491": 145,
        "1492": 236,
        "1493": 245,
        "1494": 125,
        "1495": 240,
        "1496": 21,
        "1497": 160,
        "1498": 76,
        "1499": 41,
        "1500": 159,
        "1501": 56,
        "1502": 29,
        "1503": 19,
        "1504": 101,
        "1505": 155,
        "1506": 105,
        "1507": 232,
        "1508": 179,
        "1509": 145,
        "1510": 103,
        "1511": 130,
        "1512": 90,
        "1513": 10,
        "1514": 53,
        "1515": 182,
        "1516": 74,
        "1517": 37,
        "1518": 95,
        "1519": 137,
        "1520": 204,
        "1521": 37,
        "1522": 236,
        "1523": 5,
        "1524": 66,
        "1525": 67,
        "1526": 234,
        "1527": 21,
        "1528": 32,
        "1529": 149,
        "1530": 41,
        "1531": 144,
        "1532": 93,
        "1533": 126,
        "1534": 198,
        "1535": 178,
        "1536": 111,
        "1537": 110,
        "1538": 41,
        "1539": 65,
        "1540": 88,
        "1541": 139,
        "1542": 189,
        "1543": 66,
        "1544": 249,
        "1545": 47,
        "1546": 121,
        "1547": 177,
        "1548": 216,
        "1549": 48,
        "1550": 130,
        "1551": 106,
        "1552": 146,
        "1553": 214,
        "1554": 207,
        "1555": 233,
        "1556": 19,
        "1557": 27,
        "1558": 177,
        "1559": 51,
        "1560": 210,
        "1561": 199,
        "1562": 106,
        "1563": 121,
        "1564": 25,
        "1565": 58,
        "1566": 3,
        "1567": 224,
        "1568": 3,
        "1569": 158,
        "1570": 108,
        "1571": 29,
        "1572": 140,
        "1573": 208,
        "1574": 86,
        "1575": 36,
        "1576": 248,
        "1577": 144,
        "1578": 53,
        "1579": 18,
        "1580": 177,
        "1581": 197,
        "1582": 236,
        "1583": 171,
        "1584": 111,
        "1585": 18,
        "1586": 111,
        "1587": 83,
        "1588": 71,
        "1589": 239,
        "1590": 18,
        "1591": 105,
        "1592": 116,
        "1593": 125,
        "1594": 69,
        "1595": 17,
        "1596": 119,
        "1597": 124,
        "1598": 255,
        "1599": 232,
        "1600": 51,
        "1601": 56,
        "1602": 39,
        "1603": 249,
        "1604": 80,
        "1605": 183,
        "1606": 207,
        "1607": 97,
        "1608": 193,
        "1609": 71,
        "1610": 150,
        "1611": 149,
        "1612": 124,
        "1613": 93,
        "1614": 173,
        "1615": 146,
        "1616": 151,
        "1617": 190,
        "1618": 44,
        "1619": 195,
        "1620": 202,
        "1621": 12,
        "1622": 98,
        "1623": 121,
        "1624": 208,
        "1625": 221,
        "1626": 221,
        "1627": 135,
        "1628": 127,
        "1629": 229,
        "1630": 14,
        "1631": 89,
        "1632": 199,
        "1633": 79,
        "1634": 29,
        "1635": 142,
        "1636": 50,
        "1637": 105,
        "1638": 40,
        "1639": 17,
        "1640": 153,
        "1641": 135,
        "1642": 182,
        "1643": 253,
        "1644": 81,
        "1645": 88,
        "1646": 168,
        "1647": 181,
        "1648": 117,
        "1649": 86,
        "1650": 107,
        "1651": 137,
        "1652": 72,
        "1653": 96,
        "1654": 118,
        "1655": 63,
        "1656": 129,
        "1657": 164,
        "1658": 186,
        "1659": 42,
        "1660": 15,
        "1661": 38,
        "1662": 232,
        "1663": 52,
        "1664": 178,
        "1665": 164,
        "1666": 204,
        "1667": 136,
        "1668": 51,
        "1669": 90,
        "1670": 137,
        "1671": 139,
        "1672": 27,
        "1673": 175,
        "1674": 113,
        "1675": 22,
        "1676": 214,
        "1677": 36,
        "1678": 169,
        "1679": 121,
        "1680": 134,
        "1681": 77,
        "1682": 208,
        "1683": 124,
        "1684": 176,
        "1685": 178,
        "1686": 208,
        "1687": 169,
        "1688": 247,
        "1689": 74,
        "1690": 130,
        "1691": 255,
        "1692": 79,
        "1693": 33,
        "1694": 129,
        "1695": 95,
        "1696": 241,
        "1697": 161,
        "1698": 40,
        "1699": 182,
        "1700": 166,
        "1701": 31,
        "1702": 176,
        "1703": 85,
        "1704": 212,
        "1705": 15,
        "1706": 133,
        "1707": 43,
        "1708": 60,
        "1709": 212,
        "1710": 186,
        "1711": 121,
        "1712": 145,
        "1713": 58,
        "1714": 0,
        "1715": 101,
        "1716": 9,
        "1717": 95,
        "1718": 238,
        "1719": 18,
        "1720": 51,
        "1721": 39,
        "1722": 145,
        "1723": 196,
        "1724": 31,
        "1725": 76,
        "1726": 121,
        "1727": 58,
        "1728": 81,
        "1729": 117,
        "1730": 82,
        "1731": 231,
        "1732": 71,
        "1733": 231,
        "1734": 158,
        "1735": 162,
        "1736": 17,
        "1737": 226,
        "1738": 88,
        "1739": 34,
        "1740": 120,
        "1741": 123,
        "1742": 96,
        "1743": 183,
        "1744": 183,
        "1745": 128,
        "1746": 90,
        "1747": 116,
        "1748": 122,
        "1749": 146,
        "1750": 124,
        "1751": 197,
        "1752": 221,
        "1753": 10,
        "1754": 17,
        "1755": 66,
        "1756": 217,
        "1757": 40,
        "1758": 231,
        "1759": 158,
        "1760": 174,
        "1761": 156,
        "1762": 247,
        "1763": 215,
        "1764": 151,
        "1765": 186,
        "1766": 145,
        "1767": 9,
        "1768": 124,
        "1769": 235,
        "1770": 126,
        "1771": 1,
        "1772": 48,
        "1773": 191,
        "1774": 128,
        "1775": 68,
        "1776": 103,
        "1777": 106,
        "1778": 37,
        "1779": 191,
        "1780": 233,
        "1781": 131,
        "1782": 32,
        "1783": 21,
        "1784": 25,
        "1785": 40,
        "1786": 108,
        "1787": 232,
        "1788": 120,
        "1789": 60,
        "1790": 175,
        "1791": 212,
        "1792": 242,
        "1793": 233,
        "1794": 239,
        "1795": 160,
        "1796": 39,
        "1797": 233,
        "1798": 252,
        "1799": 118,
        "1800": 18,
        "1801": 28,
        "1802": 49,
        "1803": 55,
        "1804": 13,
        "1805": 93,
        "1806": 244,
        "1807": 99,
        "1808": 167,
        "1809": 51,
        "1810": 149,
        "1811": 102,
        "1812": 89,
        "1813": 84,
        "1814": 63,
        "1815": 82,
        "1816": 68,
        "1817": 13,
        "1818": 179,
        "1819": 65,
        "1820": 198,
        "1821": 139,
        "1822": 161,
        "1823": 117,
        "1824": 200,
        "1825": 51,
        "1826": 73,
        "1827": 2,
        "1828": 35,
        "1829": 86,
        "1830": 174,
        "1831": 88,
        "1832": 216,
        "1833": 47,
        "1834": 139,
        "1835": 73,
        "1836": 21,
        "1837": 23,
        "1838": 226,
        "1839": 204,
        "1840": 157,
        "1841": 88,
        "1842": 27,
        "1843": 61,
        "1844": 55,
        "1845": 43,
        "1846": 110,
        "1847": 184,
        "1848": 45,
        "1849": 27,
        "1850": 94,
        "1851": 238,
        "1852": 62,
        "1853": 28,
        "1854": 82,
        "1855": 42,
        "1856": 126,
        "1857": 3,
        "1858": 111,
        "1859": 252,
        "1860": 45,
        "1861": 159,
        "1862": 24,
        "1863": 197,
        "1864": 113,
        "1865": 43,
        "1866": 217,
        "1867": 165,
        "1868": 191,
        "1869": 223,
        "1870": 106,
        "1871": 134,
        "1872": 76,
        "1873": 12,
        "1874": 71,
        "1875": 7,
        "1876": 205,
        "1877": 249,
        "1878": 230,
        "1879": 179,
        "1880": 249,
        "1881": 162,
        "1882": 230,
        "1883": 70,
        "1884": 147,
        "1885": 126,
        "1886": 31,
        "1887": 201,
        "1888": 119,
        "1889": 34,
        "1890": 101,
        "1891": 110,
        "1892": 247,
        "1893": 148,
        "1894": 83,
        "1895": 151,
        "1896": 145,
        "1897": 61,
        "1898": 90,
        "1899": 23,
        "1900": 26,
        "1901": 215,
        "1902": 227,
        "1903": 52,
        "1904": 169,
        "1905": 106,
        "1906": 88,
        "1907": 178,
        "1908": 215,
        "1909": 10,
        "1910": 193,
        "1911": 211,
        "1912": 130,
        "1913": 25,
        "1914": 5,
        "1915": 181,
        "1916": 244,
        "1917": 177,
        "1918": 157,
        "1919": 55,
        "1920": 27,
        "1921": 85,
        "1922": 142,
        "1923": 101,
        "1924": 58,
        "1925": 71,
        "1926": 0,
        "1927": 57,
        "1928": 32,
        "1929": 91,
        "1930": 98,
        "1931": 43,
        "1932": 162,
        "1933": 64,
        "1934": 72,
        "1935": 37,
        "1936": 246,
        "1937": 60,
        "1938": 242,
        "1939": 226,
        "1940": 125,
        "1941": 57,
        "1942": 22,
        "1943": 158,
        "1944": 242,
        "1945": 37,
        "1946": 179,
        "1947": 13,
        "1948": 117,
        "1949": 60,
        "1950": 238,
        "1951": 236,
        "1952": 202,
        "1953": 70,
        "1954": 180,
        "1955": 171,
        "1956": 207,
        "1957": 197,
        "1958": 43,
        "1959": 70,
        "1960": 215,
        "1961": 12,
        "1962": 141,
        "1963": 190,
        "1964": 68,
        "1965": 126,
        "1966": 58,
        "1967": 202,
        "1968": 179,
        "1969": 210,
        "1970": 103,
        "1971": 70,
        "1972": 180,
        "1973": 6,
        "1974": 99,
        "1975": 211,
        "1976": 174,
        "1977": 4,
        "1978": 135,
        "1979": 215,
        "1980": 0,
        "1981": 6,
        "1982": 223,
        "1983": 69,
        "1984": 135,
        "1985": 106,
        "1986": 51,
        "1987": 143,
        "1988": 95,
        "1989": 242,
        "1990": 95,
        "1991": 207,
        "1992": 134,
        "1993": 246,
        "1994": 227,
        "1995": 33,
        "1996": 175,
        "1997": 51,
        "1998": 44,
        "1999": 34,
        "2000": 71,
        "2001": 229,
        "2002": 19,
        "2003": 82,
        "2004": 79,
        "2005": 47,
        "2006": 105,
        "2007": 88,
        "2008": 5,
        "2009": 117,
        "2010": 11,
        "2011": 229,
        "2012": 43,
        "2013": 65,
        "2014": 165,
        "2015": 64,
        "2016": 247,
        "2017": 200,
        "2018": 109,
        "2019": 111,
        "2020": 234,
        "2021": 157,
        "2022": 213,
        "2023": 44,
        "2024": 40,
        "2025": 146,
        "2026": 157,
        "2027": 23,
        "2028": 188,
        "2029": 160,
        "2030": 138,
        "2031": 76,
        "2032": 165,
        "2033": 141,
        "2034": 199,
        "2035": 124,
        "2036": 213,
        "2037": 239,
        "2038": 67,
        "2039": 204,
        "2040": 87,
        "2041": 180,
        "2042": 216,
        "2043": 154,
        "2044": 4,
        "2045": 156,
        "2046": 38,
        "2047": 98,
        "2048": 66,
        "2049": 82,
        "2050": 155,
        "2051": 220,
        "2052": 166,
        "2053": 151,
        "2054": 1,
        "2055": 3,
        "2056": 250,
        "2057": 229,
        "2058": 233,
        "2059": 250,
        "2060": 193,
        "2061": 2,
        "2062": 62,
        "2063": 54,
        "2064": 23,
        "2065": 53,
        "2066": 213,
        "2067": 25,
        "2068": 166,
        "2069": 233,
        "2070": 81,
        "2071": 198,
        "2072": 198,
        "2073": 103,
        "2074": 140,
        "2075": 148,
        "2076": 145,
        "2077": 222,
        "2078": 50,
        "2079": 163,
        "2080": 110,
        "2081": 218,
        "2082": 241,
        "2083": 237,
        "2084": 220,
        "2085": 183,
        "2086": 99,
        "2087": 97,
        "2088": 30,
        "2089": 19,
        "2090": 233,
        "2091": 211,
        "2092": 41,
        "2093": 14,
        "2094": 165,
        "2095": 173,
        "2096": 62,
        "2097": 84,
        "2098": 111,
        "2099": 18,
        "2100": 34,
        "2101": 156,
        "2102": 54,
        "2103": 129,
        "2104": 122,
        "2105": 132,
        "2106": 170,
        "2107": 65,
        "2108": 14,
        "2109": 105,
        "2110": 218,
        "2111": 11,
        "2112": 231,
        "2113": 12,
        "2114": 194,
        "2115": 130,
        "2116": 166,
        "2117": 20,
        "2118": 161,
        "2119": 6,
        "2120": 89,
        "2121": 183,
        "2122": 232,
        "2123": 103,
        "2124": 213,
        "2125": 187,
        "2126": 47,
        "2127": 48,
        "2128": 146,
        "2129": 133,
        "2130": 183,
        "2131": 222,
        "2132": 202,
        "2133": 231,
        "2134": 95,
        "2135": 215,
        "2136": 184,
        "2137": 125,
        "2138": 24,
        "2139": 32,
        "2140": 165,
        "2141": 233,
        "2142": 45,
        "2143": 5,
        "2144": 238,
        "2145": 138,
        "2146": 201,
        "2147": 179,
        "2148": 255,
        "2149": 182,
        "2150": 134,
        "2151": 10,
        "2152": 54,
        "2153": 169,
        "2154": 62,
        "2155": 173,
        "2156": 153,
        "2157": 194,
        "2158": 209,
        "2159": 63,
        "2160": 168,
        "2161": 124,
        "2162": 134,
        "2163": 2,
        "2164": 59,
        "2165": 133,
        "2166": 50,
        "2167": 4,
        "2168": 162,
        "2169": 175,
        "2170": 204,
        "2171": 244,
        "2172": 66,
        "2173": 175,
        "2174": 29,
        "2175": 74,
        "2176": 236,
        "2177": 48,
        "2178": 252,
        "2179": 42,
        "2180": 223,
        "2181": 181,
        "2182": 84,
        "2183": 58,
        "2184": 34,
        "2185": 48,
        "2186": 84,
        "2187": 139,
        "2188": 119,
        "2189": 190,
        "2190": 113,
        "2191": 218,
        "2192": 81,
        "2193": 206,
        "2194": 69,
        "2195": 69,
        "2196": 211,
        "2197": 52,
        "2198": 132,
        "2199": 167,
        "2200": 195,
        "2201": 71,
        "2202": 11,
        "2203": 24,
        "2204": 172,
        "2205": 219,
        "2206": 37,
        "2207": 108,
        "2208": 162,
        "2209": 178,
        "2210": 59,
        "2211": 238,
        "2212": 246,
        "2213": 198,
        "2214": 41,
        "2215": 198,
        "2216": 198,
        "2217": 117,
        "2218": 142,
        "2219": 208,
        "2220": 154,
        "2221": 59,
        "2222": 8,
        "2223": 248,
        "2224": 51,
        "2225": 233,
        "2226": 151,
        "2227": 252,
        "2228": 176,
        "2229": 208,
        "2230": 164,
        "2231": 69,
        "2232": 142,
        "2233": 80,
        "2234": 78,
        "2235": 49,
        "2236": 123,
        "2237": 62,
        "2238": 24,
        "2239": 240,
        "2240": 136,
        "2241": 19,
        "2242": 137,
        "2243": 237,
        "2244": 179,
        "2245": 251,
        "2246": 30,
        "2247": 8,
        "2248": 55,
        "2249": 115,
        "2250": 248,
        "2251": 225,
        "2252": 106,
        "2253": 211,
        "2254": 44,
        "2255": 77,
        "2256": 223,
        "2257": 196,
        "2258": 125,
        "2259": 235,
        "2260": 94,
        "2261": 202,
        "2262": 104,
        "2263": 220,
        "2264": 145,
        "2265": 36,
        "2266": 179,
        "2267": 93,
        "2268": 232,
        "2269": 67,
        "2270": 185,
        "2271": 41,
        "2272": 233,
        "2273": 183,
        "2274": 193,
        "2275": 160,
        "2276": 219,
        "2277": 147,
        "2278": 19,
        "2279": 208,
        "2280": 34,
        "2281": 244,
        "2282": 130,
        "2283": 0,
        "2284": 220,
        "2285": 3,
        "2286": 252,
        "2287": 187,
        "2288": 100,
        "2289": 196,
        "2290": 196,
        "2291": 78,
        "2292": 254,
        "2293": 138,
        "2294": 27,
        "2295": 5,
        "2296": 207,
        "2297": 36,
        "2298": 90,
        "2299": 170,
        "2300": 40,
        "2301": 194,
        "2302": 107,
        "2303": 166,
        "2304": 177,
        "2305": 219,
        "2306": 177,
        "2307": 12,
        "2308": 139,
        "2309": 245,
        "2310": 53,
        "2311": 212,
        "2312": 45,
        "2313": 196,
        "2314": 133,
        "2315": 105,
        "2316": 152,
        "2317": 200,
        "2318": 180,
        "2319": 81,
        "2320": 82,
        "2321": 107,
        "2322": 94,
        "2323": 32,
        "2324": 155,
        "2325": 234,
        "2326": 18,
        "2327": 6,
        "2328": 201,
        "2329": 47,
        "2330": 86,
        "2331": 84,
        "2332": 1,
        "2333": 245,
        "2334": 24,
        "2335": 36,
        "2336": 30,
        "2337": 4,
        "2338": 251,
        "2339": 59,
        "2340": 67,
        "2341": 99,
        "2342": 39,
        "2343": 80,
        "2344": 196,
        "2345": 165,
        "2346": 153,
        "2347": 73,
        "2348": 205,
        "2349": 54,
        "2350": 9,
        "2351": 165,
        "2352": 100,
        "2353": 141,
        "2354": 210,
        "2355": 160,
        "2356": 112,
        "2357": 167,
        "2358": 115,
        "2359": 225,
        "2360": 51,
        "2361": 251,
        "2362": 123,
        "2363": 62,
        "2364": 226,
        "2365": 145,
        "2366": 234,
        "2367": 13,
        "2368": 160,
        "2369": 3,
        "2370": 181,
        "2371": 122,
        "2372": 196,
        "2373": 23,
        "2374": 188,
        "2375": 236,
        "2376": 164,
        "2377": 137,
        "2378": 155,
        "2379": 150,
        "2380": 229,
        "2381": 238,
        "2382": 89,
        "2383": 21,
        "2384": 132,
        "2385": 19,
        "2386": 152,
        "2387": 80,
        "2388": 54,
        "2389": 221,
        "2390": 125,
        "2391": 67,
        "2392": 81,
        "2393": 154,
        "2394": 236,
        "2395": 187,
        "2396": 133,
        "2397": 73,
        "2398": 186,
        "2399": 213,
        "2400": 1,
        "2401": 34,
        "2402": 172,
        "2403": 174,
        "2404": 58,
        "2405": 125,
        "2406": 14,
        "2407": 124,
        "2408": 141,
        "2409": 89,
        "2410": 67,
        "2411": 111,
        "2412": 146,
        "2413": 8,
        "2414": 125,
        "2415": 216,
        "2416": 212,
        "2417": 181,
        "2418": 190,
        "2419": 44,
        "2420": 217,
        "2421": 68,
        "2422": 107,
        "2423": 72,
        "2424": 137,
        "2425": 16,
        "2426": 158,
        "2427": 243,
        "2428": 23,
        "2429": 130,
        "2430": 196,
        "2431": 188,
        "2432": 136,
        "2433": 78,
        "2434": 43,
        "2435": 145,
        "2436": 218,
        "2437": 83,
        "2438": 221,
        "2439": 115,
        "2440": 131,
        "2441": 133,
        "2442": 84,
        "2443": 97,
        "2444": 217,
        "2445": 238,
        "2446": 120,
        "2447": 192,
        "2448": 42,
        "2449": 222,
        "2450": 165,
        "2451": 77,
        "2452": 221,
        "2453": 49,
        "2454": 38,
        "2455": 106,
        "2456": 128,
        "2457": 189,
        "2458": 211,
        "2459": 231,
        "2460": 53,
        "2461": 229,
        "2462": 168,
        "2463": 181,
        "2464": 128,
        "2465": 123,
        "2466": 168,
        "2467": 218,
        "2468": 91,
        "2469": 74,
        "2470": 13,
        "2471": 13,
        "2472": 191,
        "2473": 232,
        "2474": 220,
        "2475": 82,
        "2476": 213,
        "2477": 196,
        "2478": 102,
        "2479": 0,
        "2480": 16,
        "2481": 84,
        "2482": 252,
        "2483": 191,
        "2484": 231,
        "2485": 193,
        "2486": 230,
        "2487": 126,
        "2488": 97,
        "2489": 92,
        "2490": 139,
        "2491": 121,
        "2492": 198,
        "2493": 247,
        "2494": 202,
        "2495": 104,
        "2496": 29,
        "2497": 138,
        "2498": 79,
        "2499": 172,
        "2500": 67,
        "2501": 158,
        "2502": 57,
        "2503": 89,
        "2504": 153,
        "2505": 30,
        "2506": 135,
        "2507": 227,
        "2508": 239,
        "2509": 132,
        "2510": 169,
        "2511": 202,
        "2512": 110,
        "2513": 213,
        "2514": 128,
        "2515": 58,
        "2516": 58,
        "2517": 3,
        "2518": 18,
        "2519": 125,
        "2520": 107,
        "2521": 129,
        "2522": 210,
        "2523": 176,
        "2524": 134,
        "2525": 156,
        "2526": 78,
        "2527": 201,
        "2528": 61,
        "2529": 253,
        "2530": 207,
        "2531": 30,
        "2532": 120,
        "2533": 139,
        "2534": 59,
        "2535": 33,
        "2536": 182,
        "2537": 255,
        "2538": 244,
        "2539": 250,
        "2540": 80,
        "2541": 221,
        "2542": 74,
        "2543": 84,
        "2544": 154,
        "2545": 146,
        "2546": 221,
        "2547": 50,
        "2548": 62,
        "2549": 169,
        "2550": 163,
        "2551": 163,
        "2552": 193,
        "2553": 99,
        "2554": 112,
        "2555": 32,
        "2556": 34,
        "2557": 117,
        "2558": 247,
        "2559": 33,
        "2560": 190,
        "2561": 218,
        "2562": 197,
        "2563": 22,
        "2564": 209,
        "2565": 145,
        "2566": 235,
        "2567": 187,
        "2568": 95,
        "2569": 132,
        "2570": 211,
        "2571": 44,
        "2572": 238,
        "2573": 234,
        "2574": 213,
        "2575": 245,
        "2576": 76,
        "2577": 234,
        "2578": 248,
        "2579": 110,
        "2580": 203,
        "2581": 140,
        "2582": 92,
        "2583": 104,
        "2584": 76,
        "2585": 101,
        "2586": 163,
        "2587": 51,
        "2588": 88,
        "2589": 62,
        "2590": 229,
        "2591": 137,
        "2592": 161,
        "2593": 207,
        "2594": 175,
        "2595": 23,
        "2596": 136,
        "2597": 4,
        "2598": 224,
        "2599": 25,
        "2600": 37,
        "2601": 168,
        "2602": 142,
        "2603": 63,
        "2604": 23,
        "2605": 144,
        "2606": 148,
        "2607": 110,
        "2608": 252,
        "2609": 110,
        "2610": 212,
        "2611": 146,
        "2612": 32,
        "2613": 233,
        "2614": 235,
        "2615": 105,
        "2616": 37,
        "2617": 92,
        "2618": 36,
        "2619": 213,
        "2620": 48,
        "2621": 75,
        "2622": 179,
        "2623": 22,
        "2624": 137,
        "2625": 35,
        "2626": 97,
        "2627": 221,
        "2628": 57,
        "2629": 171,
        "2630": 105,
        "2631": 85,
        "2632": 2,
        "2633": 159,
        "2634": 216,
        "2635": 215,
        "2636": 45,
        "2637": 147,
        "2638": 211,
        "2639": 111,
        "2640": 65,
        "2641": 1,
        "2642": 206,
        "2643": 86,
        "2644": 76,
        "2645": 112,
        "2646": 137,
        "2647": 223,
        "2648": 5,
        "2649": 159,
        "2650": 92,
        "2651": 200,
        "2652": 216,
        "2653": 45,
        "2654": 60,
        "2655": 34,
        "2656": 25,
        "2657": 104,
        "2658": 180,
        "2659": 155,
        "2660": 64,
        "2661": 77,
        "2662": 17,
        "2663": 23,
        "2664": 8,
        "2665": 100,
        "2666": 28,
        "2667": 34,
        "2668": 113,
        "2669": 46,
        "2670": 148,
        "2671": 193,
        "2672": 126,
        "2673": 76,
        "2674": 61,
        "2675": 14,
        "2676": 90,
        "2677": 206,
        "2678": 22,
        "2679": 209,
        "2680": 167,
        "2681": 214,
        "2682": 69,
        "2683": 222,
        "2684": 179,
        "2685": 162,
        "2686": 230,
        "2687": 175,
        "2688": 104,
        "2689": 202,
        "2690": 8,
        "2691": 163,
        "2692": 189,
        "2693": 171,
        "2694": 101,
        "2695": 172,
        "2696": 224,
        "2697": 113,
        "2698": 0,
        "2699": 194,
        "2700": 143,
        "2701": 199,
        "2702": 11,
        "2703": 229,
        "2704": 219,
        "2705": 101,
        "2706": 85,
        "2707": 80,
        "2708": 239,
        "2709": 21,
        "2710": 94,
        "2711": 8,
        "2712": 128,
        "2713": 219,
        "2714": 78,
        "2715": 82,
        "2716": 13,
        "2717": 99,
        "2718": 187,
        "2719": 85,
        "2720": 54,
        "2721": 151,
        "2722": 23,
        "2723": 47,
        "2724": 169,
        "2725": 3,
        "2726": 69,
        "2727": 73,
        "2728": 123,
        "2729": 243,
        "2730": 82,
        "2731": 159,
        "2732": 199,
        "2733": 112,
        "2734": 172,
        "2735": 188,
        "2736": 134,
        "2737": 176,
        "2738": 18,
        "2739": 186,
        "2740": 154,
        "2741": 143,
        "2742": 231,
        "2743": 67,
        "2744": 69,
        "2745": 207,
        "2746": 37,
        "2747": 115,
        "2748": 15,
        "2749": 159,
        "2750": 113,
        "2751": 70,
        "2752": 171,
        "2753": 105,
        "2754": 24,
        "2755": 67,
        "2756": 222,
        "2757": 180,
        "2758": 46,
        "2759": 90,
        "2760": 215,
        "2761": 98,
        "2762": 1,
        "2763": 130,
        "2764": 252,
        "2765": 127,
        "2766": 249,
        "2767": 247,
        "2768": 236,
        "2769": 80,
        "2770": 32,
        "2771": 240,
        "2772": 6,
        "2773": 60,
        "2774": 216,
        "2775": 131,
        "2776": 7,
        "2777": 234,
        "2778": 169,
        "2779": 135,
        "2780": 171,
        "2781": 149,
        "2782": 215,
        "2783": 163,
        "2784": 137,
        "2785": 93,
        "2786": 143,
        "2787": 49,
        "2788": 200,
        "2789": 84,
        "2790": 123,
        "2791": 95,
        "2792": 187,
        "2793": 29,
        "2794": 40,
        "2795": 79,
        "2796": 67,
        "2797": 112,
        "2798": 131,
        "2799": 45,
        "2800": 46,
        "2801": 205,
        "2802": 202,
        "2803": 128,
        "2804": 251,
        "2805": 58,
        "2806": 121,
        "2807": 142,
        "2808": 33,
        "2809": 134,
        "2810": 110,
        "2811": 64,
        "2812": 95,
        "2813": 52,
        "2814": 181,
        "2815": 250,
        "2816": 95,
        "2817": 161,
        "2818": 234,
        "2819": 102,
        "2820": 228,
        "2821": 112,
        "2822": 132,
        "2823": 152,
        "2824": 209,
        "2825": 110,
        "2826": 113,
        "2827": 16,
        "2828": 159,
        "2829": 137,
        "2830": 202,
        "2831": 51,
        "2832": 5,
        "2833": 136,
        "2834": 56,
        "2835": 175,
        "2836": 184,
        "2837": 57,
        "2838": 148,
        "2839": 77,
        "2840": 195,
        "2841": 239,
        "2842": 201,
        "2843": 17,
        "2844": 78,
        "2845": 91,
        "2846": 41,
        "2847": 198,
        "2848": 234,
        "2849": 9,
        "2850": 171,
        "2851": 254,
        "2852": 19,
        "2853": 205,
        "2854": 89,
        "2855": 228,
        "2856": 64,
        "2857": 28,
        "2858": 126,
        "2859": 66,
        "2860": 26,
        "2861": 11,
        "2862": 230,
        "2863": 184,
        "2864": 220,
        "2865": 132,
        "2866": 244,
        "2867": 226,
        "2868": 162,
        "2869": 82,
        "2870": 253,
        "2871": 101,
        "2872": 121,
        "2873": 120,
        "2874": 30,
        "2875": 193,
        "2876": 212,
        "2877": 70,
        "2878": 30,
        "2879": 2,
        "2880": 233,
        "2881": 66,
        "2882": 208,
        "2883": 163,
        "2884": 158,
        "2885": 86,
        "2886": 202,
        "2887": 127,
        "2888": 16,
        "2889": 73,
        "2890": 239,
        "2891": 134,
        "2892": 250,
        "2893": 66,
        "2894": 36,
        "2895": 55,
        "2896": 71,
        "2897": 110,
        "2898": 16,
        "2899": 152,
        "2900": 198,
        "2901": 118,
        "2902": 155,
        "2903": 7,
        "2904": 137,
        "2905": 186,
        "2906": 45,
        "2907": 146,
        "2908": 83,
        "2909": 27,
        "2910": 7,
        "2911": 87,
        "2912": 96,
        "2913": 138,
        "2914": 197,
        "2915": 63,
        "2916": 105,
        "2917": 93,
        "2918": 87,
        "2919": 161,
        "2920": 34,
        "2921": 79,
        "2922": 59,
        "2923": 226,
        "2924": 247,
        "2925": 28,
        "2926": 87,
        "2927": 208,
        "2928": 78,
        "2929": 196,
        "2930": 128,
        "2931": 61,
        "2932": 229,
        "2933": 138,
        "2934": 22,
        "2935": 221,
        "2936": 159,
        "2937": 132,
        "2938": 94,
        "2939": 175,
        "2940": 240,
        "2941": 117,
        "2942": 167,
        "2943": 97,
        "2944": 224,
        "2945": 238,
        "2946": 121,
        "2947": 133,
        "2948": 175,
        "2949": 147,
        "2950": 186,
        "2951": 107,
        "2952": 83,
        "2953": 148,
        "2954": 68,
        "2955": 197,
        "2956": 56,
        "2957": 223,
        "2958": 16,
        "2959": 199,
        "2960": 83,
        "2961": 198,
        "2962": 236,
        "2963": 64,
        "2964": 181,
        "2965": 183,
        "2966": 69,
        "2967": 142,
        "2968": 50,
        "2969": 92,
        "2970": 226,
        "2971": 149,
        "2972": 115,
        "2973": 255,
        "2974": 101,
        "2975": 113,
        "2976": 10,
        "2977": 8,
        "2978": 75,
        "2979": 31,
        "2980": 144,
        "2981": 88,
        "2982": 213,
        "2983": 157,
        "2984": 172,
        "2985": 125,
        "2986": 202,
        "2987": 135,
        "2988": 51,
        "2989": 224,
        "2990": 159,
        "2991": 243,
        "2992": 154,
        "2993": 244,
        "2994": 16,
        "2995": 170,
        "2996": 168,
        "2997": 43,
        "2998": 81,
        "2999": 21,
        "3000": 141,
        "3001": 196,
        "3002": 59,
        "3003": 223,
        "3004": 122,
        "3005": 159,
        "3006": 148,
        "3007": 233,
        "3008": 140,
        "3009": 8,
        "3010": 167,
        "3011": 68,
        "3012": 61,
        "3013": 213,
        "3014": 43,
        "3015": 96,
        "3016": 15,
        "3017": 59,
        "3018": 253,
        "3019": 199,
        "3020": 118,
        "3021": 17,
        "3022": 40,
        "3023": 212,
        "3024": 55,
        "3025": 18,
        "3026": 57,
        "3027": 100,
        "3028": 211,
        "3029": 218,
        "3030": 211,
        "3031": 155,
        "3032": 102,
        "3033": 52,
        "3034": 119,
        "3035": 240,
        "3036": 8,
        "3037": 141,
        "3038": 85,
        "3039": 205,
        "3040": 115,
        "3041": 145,
        "3042": 89,
        "3043": 127,
        "3044": 27,
        "3045": 79,
        "3046": 89,
        "3047": 48,
        "3048": 153,
        "3049": 19,
        "3050": 117,
        "3051": 151,
        "3052": 240,
        "3053": 154,
        "3054": 225,
        "3055": 121,
        "3056": 208,
        "3057": 171,
        "3058": 150,
        "3059": 142,
        "3060": 68,
        "3061": 163,
        "3062": 138,
        "3063": 220,
        "3064": 42,
        "3065": 158,
        "3066": 59,
        "3067": 123,
        "3068": 200,
        "3069": 29,
        "3070": 233,
        "3071": 125,
        "3072": 171,
        "3073": 174,
        "3074": 9,
        "3075": 96,
        "3076": 57,
        "3077": 211,
        "3078": 153,
        "3079": 154,
        "3080": 220,
        "3081": 4,
        "3082": 226,
        "3083": 133,
        "3084": 75,
        "3085": 40,
        "3086": 121,
        "3087": 189,
        "3088": 214,
        "3089": 219,
        "3090": 20,
        "3091": 137,
        "3092": 134,
        "3093": 196,
        "3094": 39,
        "3095": 133,
        "3096": 2,
        "3097": 53,
        "3098": 172,
        "3099": 200,
        "3100": 181,
        "3101": 108,
        "3102": 125,
        "3103": 69,
        "3104": 179,
        "3105": 40,
        "3106": 88,
        "3107": 33,
        "3108": 159,
        "3109": 80,
        "3110": 196,
        "3111": 169,
        "3112": 91,
        "3113": 145,
        "3114": 204,
        "3115": 138,
        "3116": 188,
        "3117": 163,
        "3118": 105,
        "3119": 75,
        "3120": 126,
        "3121": 38,
        "3122": 5,
        "3123": 41,
        "3124": 185,
        "3125": 235,
        "3126": 64,
        "3127": 122,
        "3128": 209,
        "3129": 65,
        "3130": 217,
        "3131": 184,
        "3132": 255,
        "3133": 9,
        "3134": 38,
        "3135": 200,
        "3136": 229,
        "3137": 88,
        "3138": 171,
        "3139": 0,
        "3140": 133,
        "3141": 202,
        "3142": 84,
        "3143": 220,
        "3144": 29,
        "3145": 108,
        "3146": 77,
        "3147": 104,
        "3148": 245,
        "3149": 87,
        "3150": 121,
        "3151": 44,
        "3152": 127,
        "3153": 55,
        "3154": 126,
        "3155": 10,
        "3156": 148,
        "3157": 172,
        "3158": 58,
        "3159": 27,
        "3160": 25,
        "3161": 96,
        "3162": 45,
        "3163": 223,
        "3164": 112,
        "3165": 136,
        "3166": 86,
        "3167": 13,
        "3168": 109,
        "3169": 243,
        "3170": 221,
        "3171": 58,
        "3172": 204,
        "3173": 182,
        "3174": 222,
        "3175": 189,
        "3176": 240,
        "3177": 118,
        "3178": 154,
        "3179": 243,
        "3180": 227,
        "3181": 58,
        "3182": 94,
        "3183": 50,
        "3184": 66,
        "3185": 10,
        "3186": 227,
        "3187": 189,
        "3188": 37,
        "3189": 177,
        "3190": 64,
        "3191": 235,
        "3192": 101,
        "3193": 185,
        "3194": 94,
        "3195": 78,
        "3196": 73,
        "3197": 77,
        "3198": 138,
        "3199": 12,
        "3200": 212,
        "3201": 175,
        "3202": 227,
        "3203": 18,
        "3204": 218,
        "3205": 198,
        "3206": 134,
        "3207": 155,
        "3208": 224,
        "3209": 188,
        "3210": 215,
        "3211": 200,
        "3212": 215,
        "3213": 105,
        "3214": 39,
        "3215": 54,
        "3216": 13,
        "3217": 16,
        "3218": 7,
        "3219": 191,
        "3220": 221,
        "3221": 58,
        "3222": 36,
        "3223": 238,
        "3224": 125,
        "3225": 171,
        "3226": 156,
        "3227": 107,
        "3228": 228,
        "3229": 53,
        "3230": 22,
        "3231": 56,
        "3232": 126,
        "3233": 49,
        "3234": 45,
        "3235": 213,
        "3236": 169,
        "3237": 216,
        "3238": 8,
        "3239": 213,
        "3240": 226,
        "3241": 246,
        "3242": 110,
        "3243": 89,
        "3244": 68,
        "3245": 210,
        "3246": 123,
        "3247": 219,
        "3248": 4,
        "3249": 179,
        "3250": 125,
        "3251": 210,
        "3252": 194,
        "3253": 42,
        "3254": 40,
        "3255": 196,
        "3256": 143,
        "3257": 2,
        "3258": 113,
        "3259": 177,
        "3260": 24,
        "3261": 8,
        "3262": 199,
        "3263": 115,
        "3264": 210,
        "3265": 94,
        "3266": 23,
        "3267": 229,
        "3268": 168,
        "3269": 12,
        "3270": 175,
        "3271": 0,
        "3272": 201,
        "3273": 52,
        "3274": 60,
        "3275": 100,
        "3276": 89,
        "3277": 122,
        "3278": 126,
        "3279": 87,
        "3280": 123,
        "3281": 7,
        "3282": 220,
        "3283": 201,
        "3284": 48,
        "3285": 186,
        "3286": 22,
        "3287": 2,
        "3288": 158,
        "3289": 218,
        "3290": 206,
        "3291": 159,
        "3292": 33,
        "3293": 129,
        "3294": 164,
        "3295": 254,
        "3296": 51,
        "3297": 232,
        "3298": 177,
        "3299": 147,
        "3300": 40,
        "3301": 237,
        "3302": 128,
        "3303": 118,
        "3304": 86,
        "3305": 214,
        "3306": 63,
        "3307": 178,
        "3308": 205,
        "3309": 44,
        "3310": 66,
        "3311": 33,
        "3312": 245,
        "3313": 17,
        "3314": 172,
        "3315": 215,
        "3316": 97,
        "3317": 142,
        "3318": 32,
        "3319": 2,
        "3320": 89,
        "3321": 127,
        "3322": 209,
        "3323": 49,
        "3324": 196,
        "3325": 87,
        "3326": 57,
        "3327": 23,
        "3328": 220,
        "3329": 79,
        "3330": 64,
        "3331": 201,
        "3332": 230,
        "3333": 131,
        "3334": 121,
        "3335": 24,
        "3336": 203,
        "3337": 25,
        "3338": 223,
        "3339": 10,
        "3340": 53,
        "3341": 197,
        "3342": 68,
        "3343": 177,
        "3344": 52,
        "3345": 61,
        "3346": 194,
        "3347": 61,
        "3348": 85,
        "3349": 243,
        "3350": 51,
        "3351": 211,
        "3352": 23,
        "3353": 184,
        "3354": 244,
        "3355": 147,
        "3356": 60,
        "3357": 19,
        "3358": 109,
        "3359": 243,
        "3360": 166,
        "3361": 106,
        "3362": 233,
        "3363": 55,
        "3364": 60,
        "3365": 232,
        "3366": 84,
        "3367": 155,
        "3368": 226,
        "3369": 184,
        "3370": 224,
        "3371": 206,
        "3372": 198,
        "3373": 217,
        "3374": 156,
        "3375": 200,
        "3376": 88,
        "3377": 178,
        "3378": 145,
        "3379": 127,
        "3380": 50,
        "3381": 127,
        "3382": 171,
        "3383": 193,
        "3384": 80,
        "3385": 249,
        "3386": 233,
        "3387": 221,
        "3388": 226,
        "3389": 248,
        "3390": 53,
        "3391": 105,
        "3392": 5,
        "3393": 184,
        "3394": 102,
        "3395": 78,
        "3396": 159,
        "3397": 87,
        "3398": 181,
        "3399": 123,
        "3400": 252,
        "3401": 169,
        "3402": 34,
        "3403": 195,
        "3404": 115,
        "3405": 59,
        "3406": 160,
        "3407": 215,
        "3408": 206,
        "3409": 125,
        "3410": 118,
        "3411": 143,
        "3412": 42,
        "3413": 138,
        "3414": 74,
        "3415": 139,
        "3416": 129,
        "3417": 182,
        "3418": 123,
        "3419": 55,
        "3420": 188,
        "3421": 75,
        "3422": 121,
        "3423": 61,
        "3424": 117,
        "3425": 103,
        "3426": 210,
        "3427": 50,
        "3428": 136,
        "3429": 96,
        "3430": 112,
        "3431": 145,
        "3432": 38,
        "3433": 44,
        "3434": 153,
        "3435": 43,
        "3436": 169,
        "3437": 127,
        "3438": 209,
        "3439": 62,
        "3440": 141,
        "3441": 189,
        "3442": 224,
        "3443": 2,
        "3444": 220,
        "3445": 209,
        "3446": 134,
        "3447": 222,
        "3448": 212,
        "3449": 40,
        "3450": 199,
        "3451": 172,
        "3452": 168,
        "3453": 219,
        "3454": 61,
        "3455": 236,
        "3456": 175,
        "3457": 232,
        "3458": 46,
        "3459": 206,
        "3460": 67,
        "3461": 204,
        "3462": 95,
        "3463": 221,
        "3464": 236,
        "3465": 4,
        "3466": 79,
        "3467": 112,
        "3468": 93,
        "3469": 76,
        "3470": 105,
        "3471": 246,
        "3472": 159,
        "3473": 124,
        "3474": 0,
        "3475": 236,
        "3476": 14,
        "3477": 153,
        "3478": 5,
        "3479": 0,
        "3480": 62,
        "3481": 147,
        "3482": 226,
        "3483": 181,
        "3484": 31,
        "3485": 65,
        "3486": 81,
        "3487": 15,
        "3488": 41,
        "3489": 161,
        "3490": 38,
        "3491": 227,
        "3492": 80,
        "3493": 93,
        "3494": 132,
        "3495": 222,
        "3496": 223,
        "3497": 39,
        "3498": 139,
        "3499": 107,
        "3500": 125,
        "3501": 1,
        "3502": 193,
        "3503": 101,
        "3504": 35,
        "3505": 92,
        "3506": 161,
        "3507": 49,
        "3508": 66,
        "3509": 150,
        "3510": 248,
        "3511": 14,
        "3512": 216,
        "3513": 148,
        "3514": 245,
        "3515": 129,
        "3516": 40,
        "3517": 164,
        "3518": 30,
        "3519": 15,
        "3520": 10,
        "3521": 50,
        "3522": 42,
        "3523": 64,
        "3524": 116,
        "3525": 210,
        "3526": 91,
        "3527": 78,
        "3528": 25,
        "3529": 207,
        "3530": 123,
        "3531": 129,
        "3532": 123,
        "3533": 134,
        "3534": 119,
        "3535": 51,
        "3536": 236,
        "3537": 68,
        "3538": 19,
        "3539": 19,
        "3540": 17,
        "3541": 127,
        "3542": 61,
        "3543": 3,
        "3544": 200,
        "3545": 166,
        "3546": 196,
        "3547": 64,
        "3548": 65,
        "3549": 115,
        "3550": 206,
        "3551": 196,
        "3552": 62,
        "3553": 43,
        "3554": 164,
        "3555": 202,
        "3556": 189,
        "3557": 4,
        "3558": 205,
        "3559": 106,
        "3560": 142,
        "3561": 26,
        "3562": 192,
        "3563": 182,
        "3564": 162,
        "3565": 192,
        "3566": 158,
        "3567": 9,
        "3568": 126,
        "3569": 7,
        "3570": 6,
        "3571": 35,
        "3572": 147,
        "3573": 137,
        "3574": 68,
        "3575": 171,
        "3576": 53,
        "3577": 134,
        "3578": 128,
        "3579": 55,
        "3580": 136,
        "3581": 190,
        "3582": 110,
        "3583": 229,
        "3584": 52,
        "3585": 68,
        "3586": 108,
        "3587": 155,
        "3588": 8,
        "3589": 219,
        "3590": 114,
        "3591": 54,
        "3592": 102,
        "3593": 156,
        "3594": 187,
        "3595": 35,
        "3596": 224,
        "3597": 150,
        "3598": 113,
        "3599": 27,
        "3600": 27,
        "3601": 196,
        "3602": 43,
        "3603": 216,
        "3604": 72,
        "3605": 164,
        "3606": 114,
        "3607": 139,
        "3608": 40,
        "3609": 184,
        "3610": 58,
        "3611": 150,
        "3612": 179,
        "3613": 222,
        "3614": 98,
        "3615": 15,
        "3616": 127,
        "3617": 122,
        "3618": 202,
        "3619": 73,
        "3620": 178,
        "3621": 242,
        "3622": 228,
        "3623": 76,
        "3624": 229,
        "3625": 100,
        "3626": 126,
        "3627": 72,
        "3628": 92,
        "3629": 24,
        "3630": 141,
        "3631": 79,
        "3632": 117,
        "3633": 59,
        "3634": 13,
        "3635": 166,
        "3636": 215,
        "3637": 134,
        "3638": 142,
        "3639": 139,
        "3640": 61,
        "3641": 236,
        "3642": 213,
        "3643": 20,
        "3644": 254,
        "3645": 98,
        "3646": 173,
        "3647": 179,
        "3648": 230,
        "3649": 130,
        "3650": 146,
        "3651": 75,
        "3652": 176,
        "3653": 91,
        "3654": 108,
        "3655": 179,
        "3656": 235,
        "3657": 229,
        "3658": 207,
        "3659": 225,
        "3660": 150,
        "3661": 159,
        "3662": 147,
        "3663": 120,
        "3664": 191,
        "3665": 44,
        "3666": 158,
        "3667": 187,
        "3668": 206,
        "3669": 156,
        "3670": 156,
        "3671": 88,
        "3672": 220,
        "3673": 208,
        "3674": 64,
        "3675": 236,
        "3676": 39,
        "3677": 139,
        "3678": 36,
        "3679": 235,
        "3680": 33,
        "3681": 95,
        "3682": 128,
        "3683": 224,
        "3684": 219,
        "3685": 54,
        "3686": 195,
        "3687": 106,
        "3688": 156,
        "3689": 58,
        "3690": 218,
        "3691": 7,
        "3692": 22,
        "3693": 110,
        "3694": 225,
        "3695": 251,
        "3696": 58,
        "3697": 35,
        "3698": 128,
        "3699": 77,
        "3700": 69,
        "3701": 145,
        "3702": 24,
        "3703": 20,
        "3704": 223,
        "3705": 90,
        "3706": 23,
        "3707": 248,
        "3708": 45,
        "3709": 122,
        "3710": 219,
        "3711": 141,
        "3712": 249,
        "3713": 220,
        "3714": 69,
        "3715": 168,
        "3716": 5,
        "3717": 196,
        "3718": 187,
        "3719": 133,
        "3720": 139,
        "3721": 72,
        "3722": 209,
        "3723": 26,
        "3724": 224,
        "3725": 114,
        "3726": 180,
        "3727": 42,
        "3728": 118,
        "3729": 157,
        "3730": 111,
        "3731": 55,
        "3732": 150,
        "3733": 243,
        "3734": 189,
        "3735": 246,
        "3736": 119,
        "3737": 71,
        "3738": 5,
        "3739": 212,
        "3740": 207,
        "3741": 148,
        "3742": 19,
        "3743": 142,
        "3744": 93,
        "3745": 172,
        "3746": 43,
        "3747": 35,
        "3748": 46,
        "3749": 160,
        "3750": 35,
        "3751": 170,
        "3752": 17,
        "3753": 211,
        "3754": 161,
        "3755": 174,
        "3756": 50,
        "3757": 125,
        "3758": 71,
        "3759": 138,
        "3760": 55,
        "3761": 158,
        "3762": 90,
        "3763": 27,
        "3764": 179,
        "3765": 230,
        "3766": 139,
        "3767": 240,
        "3768": 18,
        "3769": 250,
        "3770": 234,
        "3771": 42,
        "3772": 135,
        "3773": 138,
        "3774": 17,
        "3775": 107,
        "3776": 178,
        "3777": 234,
        "3778": 111,
        "3779": 135,
        "3780": 160,
        "3781": 135,
        "3782": 22,
        "3783": 114,
        "3784": 34,
        "3785": 96,
        "3786": 233,
        "3787": 108,
        "3788": 99,
        "3789": 12,
        "3790": 252,
        "3791": 56,
        "3792": 148,
        "3793": 26,
        "3794": 42,
        "3795": 246,
        "3796": 106,
        "3797": 210,
        "3798": 190,
        "3799": 17,
        "3800": 57,
        "3801": 56,
        "3802": 250,
        "3803": 17,
        "3804": 198,
        "3805": 208,
        "3806": 201,
        "3807": 231,
        "3808": 45,
        "3809": 94,
        "3810": 219,
        "3811": 68,
        "3812": 253,
        "3813": 46,
        "3814": 188,
        "3815": 89,
        "3816": 138,
        "3817": 148,
        "3818": 98,
        "3819": 223,
        "3820": 140,
        "3821": 49,
        "3822": 84,
        "3823": 38,
        "3824": 41,
        "3825": 23,
        "3826": 216,
        "3827": 168,
        "3828": 206,
        "3829": 68,
        "3830": 213,
        "3831": 9,
        "3832": 31,
        "3833": 98,
        "3834": 191,
        "3835": 160,
        "3836": 19,
        "3837": 150,
        "3838": 55,
        "3839": 130,
        "3840": 121,
        "3841": 153,
        "3842": 5,
        "3843": 67,
        "3844": 209,
        "3845": 201,
        "3846": 182,
        "3847": 51,
        "3848": 105,
        "3849": 73,
        "3850": 176,
        "3851": 84,
        "3852": 112,
        "3853": 28,
        "3854": 11,
        "3855": 14,
        "3856": 249,
        "3857": 227,
        "3858": 115,
        "3859": 121,
        "3860": 214,
        "3861": 158,
        "3862": 206,
        "3863": 221,
        "3864": 48,
        "3865": 32,
        "3866": 247,
        "3867": 115,
        "3868": 16,
        "3869": 59,
        "3870": 171,
        "3871": 139,
        "3872": 124,
        "3873": 102,
        "3874": 185,
        "3875": 148,
        "3876": 184,
        "3877": 174,
        "3878": 48,
        "3879": 68,
        "3880": 204,
        "3881": 214,
        "3882": 221,
        "3883": 122,
        "3884": 154,
        "3885": 137,
        "3886": 40,
        "3887": 253,
        "3888": 6,
        "3889": 75,
        "3890": 111,
        "3891": 216,
        "3892": 120,
        "3893": 250,
        "3894": 23,
        "3895": 102,
        "3896": 136,
        "3897": 120,
        "3898": 91,
        "3899": 133,
        "3900": 74,
        "3901": 157,
        "3902": 162,
        "3903": 218,
        "3904": 111,
        "3905": 242,
        "3906": 15,
        "3907": 53,
        "3908": 78,
        "3909": 143,
        "3910": 163,
        "3911": 134,
        "3912": 144,
        "3913": 22,
        "3914": 180,
        "3915": 246,
        "3916": 65,
        "3917": 190,
        "3918": 138,
        "3919": 143,
        "3920": 129,
        "3921": 253,
        "3922": 9,
        "3923": 11,
        "3924": 10,
        "3925": 165,
        "3926": 197,
        "3927": 10,
        "3928": 126,
        "3929": 23,
        "3930": 64,
        "3931": 234,
        "3932": 94,
        "3933": 118,
        "3934": 244,
        "3935": 226,
        "3936": 236,
        "3937": 170,
        "3938": 65,
        "3939": 21,
        "3940": 14,
        "3941": 87,
        "3942": 214,
        "3943": 41,
        "3944": 114,
        "3945": 168,
        "3946": 151,
        "3947": 203,
        "3948": 105,
        "3949": 201,
        "3950": 186,
        "3951": 244,
        "3952": 209,
        "3953": 94,
        "3954": 252,
        "3955": 104,
        "3956": 6,
        "3957": 178,
        "3958": 67,
        "3959": 164,
        "3960": 12,
        "3961": 49,
        "3962": 84,
        "3963": 226,
        "3964": 155,
        "3965": 124,
        "3966": 223,
        "3967": 223,
        "3968": 3,
        "3969": 109,
        "3970": 166,
        "3971": 254,
        "3972": 53,
        "3973": 104,
        "3974": 50,
        "3975": 107,
        "3976": 219,
        "3977": 77,
        "3978": 188,
        "3979": 22,
        "3980": 44,
        "3981": 213,
        "3982": 195,
        "3983": 227,
        "3984": 51,
        "3985": 236,
        "3986": 189,
        "3987": 230,
        "3988": 153,
        "3989": 70,
        "3990": 57,
        "3991": 24,
        "3992": 74,
        "3993": 52,
        "3994": 178,
        "3995": 239,
        "3996": 205,
        "3997": 187,
        "3998": 231,
        "3999": 87,
        "4000": 195,
        "4001": 161,
        "4002": 35,
        "4003": 205,
        "4004": 162,
        "4005": 29,
        "4006": 218,
        "4007": 236,
        "4008": 157,
        "4009": 87,
        "4010": 226,
        "4011": 234,
        "4012": 115,
        "4013": 222,
        "4014": 52,
        "4015": 71,
        "4016": 212,
        "4017": 2,
        "4018": 65,
        "4019": 234,
        "4020": 105,
        "4021": 198,
        "4022": 193,
        "4023": 0,
        "4024": 31,
        "4025": 23,
        "4026": 236,
        "4027": 255,
        "4028": 127,
        "4029": 40,
        "4030": 122,
        "4031": 60,
        "4032": 206,
        "4033": 203,
        "4034": 252,
        "4035": 235,
        "4036": 235,
        "4037": 50,
        "4038": 7,
        "4039": 87,
        "4040": 224,
        "4041": 132,
        "4042": 161,
        "4043": 80,
        "4044": 197,
        "4045": 43,
        "4046": 159,
        "4047": 117,
        "4048": 198,
        "4049": 110,
        "4050": 56,
        "4051": 32,
        "4052": 180,
        "4053": 219,
        "4054": 188,
        "4055": 51,
        "4056": 52,
        "4057": 187,
        "4058": 8,
        "4059": 244,
        "4060": 43,
        "4061": 93,
        "4062": 95,
        "4063": 254,
        "4064": 84,
        "4065": 228,
        "4066": 147,
        "4067": 128,
        "4068": 199,
        "4069": 93,
        "4070": 149,
        "4071": 73,
        "4072": 214,
        "4073": 171,
        "4074": 157,
        "4075": 195,
        "4076": 15,
        "4077": 15,
        "4078": 58,
        "4079": 174,
        "4080": 185,
        "4081": 12,
        "4082": 143,
        "4083": 250,
        "4084": 21,
        "4085": 159,
        "4086": 154,
        "4087": 183,
        "4088": 141,
        "4089": 152,
        "4090": 182,
        "4091": 250,
        "4092": 199,
        "4093": 95,
        "4094": 205,
        "4095": 182,
        "4096": 196,
        "4097": 212,
        "4098": 16,
        "4099": 39,
        "4100": 141,
        "4101": 250,
        "4102": 149,
        "4103": 166,
        "4104": 152,
        "4105": 189,
        "4106": 104,
        "4107": 116,
        "4108": 131,
        "4109": 88,
        "4110": 243,
        "4111": 76,
        "4112": 117,
        "4113": 144,
        "4114": 81,
        "4115": 16,
        "4116": 73,
        "4117": 106,
        "4118": 176,
        "4119": 197,
        "4120": 175,
        "4121": 22,
        "4122": 80,
        "4123": 198,
        "4124": 155,
        "4125": 108,
        "4126": 249,
        "4127": 111,
        "4128": 182,
        "4129": 206,
        "4130": 244,
        "4131": 93,
        "4132": 211,
        "4133": 56,
        "4134": 77,
        "4135": 205,
        "4136": 100,
        "4137": 102,
        "4138": 50,
        "4139": 249,
        "4140": 250,
        "4141": 209,
        "4142": 115,
        "4143": 204,
        "4144": 51,
        "4145": 59,
        "4146": 108,
        "4147": 133,
        "4148": 25,
        "4149": 53,
        "4150": 159,
        "4151": 235,
        "4152": 48,
        "4153": 56,
        "4154": 148,
        "4155": 172,
        "4156": 28,
        "4157": 222,
        "4158": 182,
        "4159": 44,
        "4160": 67,
        "4161": 122,
        "4162": 79,
        "4163": 56,
        "4164": 132,
        "4165": 17,
        "4166": 96,
        "4167": 147,
        "4168": 51,
        "4169": 201,
        "4170": 21,
        "4171": 77,
        "4172": 142,
        "4173": 111,
        "4174": 205,
        "4175": 138,
        "4176": 48,
        "4177": 115,
        "4178": 218,
        "4179": 183,
        "4180": 101,
        "4181": 165,
        "4182": 3,
        "4183": 138,
        "4184": 134,
        "4185": 35,
        "4186": 246,
        "4187": 196,
        "4188": 86,
        "4189": 247,
        "4190": 101,
        "4191": 43,
        "4192": 128,
        "4193": 98,
        "4194": 168,
        "4195": 20,
        "4196": 25,
        "4197": 57,
        "4198": 83,
        "4199": 55,
        "4200": 199,
        "4201": 186,
        "4202": 186,
        "4203": 13,
        "4204": 82,
        "4205": 213,
        "4206": 246,
        "4207": 132,
        "4208": 201,
        "4209": 64,
        "4210": 13,
        "4211": 134,
        "4212": 140,
        "4213": 79,
        "4214": 112,
        "4215": 60,
        "4216": 1,
        "4217": 228,
        "4218": 24,
        "4219": 97,
        "4220": 78,
        "4221": 159,
        "4222": 129,
        "4223": 55,
        "4224": 9,
        "4225": 255,
        "4226": 198,
        "4227": 147,
        "4228": 29,
        "4229": 90,
        "4230": 53,
        "4231": 177,
        "4232": 63,
        "4233": 57,
        "4234": 209,
        "4235": 235,
        "4236": 184,
        "4237": 212,
        "4238": 181,
        "4239": 234,
        "4240": 146,
        "4241": 226,
        "4242": 175,
        "4243": 63,
        "4244": 67,
        "4245": 53,
        "4246": 32,
        "4247": 143,
        "4248": 144,
        "4249": 203,
        "4250": 153,
        "4251": 147,
        "4252": 180,
        "4253": 189,
        "4254": 65,
        "4255": 105,
        "4256": 111,
        "4257": 167,
        "4258": 157,
        "4259": 200,
        "4260": 212,
        "4261": 91,
        "4262": 38,
        "4263": 162,
        "4264": 23,
        "4265": 205,
        "4266": 209,
        "4267": 58,
        "4268": 59,
        "4269": 247,
        "4270": 67,
        "4271": 3,
        "4272": 151,
        "4273": 103,
        "4274": 206,
        "4275": 75,
        "4276": 93,
        "4277": 104,
        "4278": 180,
        "4279": 200,
        "4280": 172,
        "4281": 19,
        "4282": 79,
        "4283": 240,
        "4284": 190,
        "4285": 0,
        "4286": 212,
        "4287": 113,
        "4288": 85,
        "4289": 235,
        "4290": 129,
        "4291": 170,
        "4292": 5,
        "4293": 157,
        "4294": 34,
        "4295": 112,
        "4296": 144,
        "4297": 148,
        "4298": 240,
        "4299": 87,
        "4300": 100,
        "4301": 8,
        "4302": 177,
        "4303": 225,
        "4304": 13,
        "4305": 218,
        "4306": 51,
        "4307": 133,
        "4308": 136,
        "4309": 35,
        "4310": 209,
        "4311": 72,
        "4312": 249,
        "4313": 53,
        "4314": 225,
        "4315": 167,
        "4316": 93,
        "4317": 83,
        "4318": 18,
        "4319": 122,
        "4320": 208,
        "4321": 126,
        "4322": 241,
        "4323": 229,
        "4324": 76,
        "4325": 76,
        "4326": 169,
        "4327": 48,
        "4328": 106,
        "4329": 121,
        "4330": 41,
        "4331": 150,
        "4332": 86,
        "4333": 82,
        "4334": 16,
        "4335": 52,
        "4336": 31,
        "4337": 16,
        "4338": 10,
        "4339": 81,
        "4340": 40,
        "4341": 53,
        "4342": 253,
        "4343": 150,
        "4344": 132,
        "4345": 165,
        "4346": 225,
        "4347": 118,
        "4348": 101,
        "4349": 196,
        "4350": 219,
        "4351": 59,
        "4352": 25,
        "4353": 168,
        "4354": 12,
        "4355": 172,
        "4356": 228,
        "4357": 94,
        "4358": 51,
        "4359": 171,
        "4360": 91,
        "4361": 96,
        "4362": 76,
        "4363": 96,
        "4364": 119,
        "4365": 1,
        "4366": 245,
        "4367": 226,
        "4368": 93,
        "4369": 195,
        "4370": 119,
        "4371": 246,
        "4372": 116,
        "4373": 13,
        "4374": 137,
        "4375": 222,
        "4376": 23,
        "4377": 229,
        "4378": 218,
        "4379": 14,
        "4380": 244,
        "4381": 26,
        "4382": 79,
        "4383": 10,
        "4384": 15,
        "4385": 160,
        "4386": 22,
        "4387": 56,
        "4388": 42,
        "4389": 203,
        "4390": 194,
        "4391": 60,
        "4392": 208,
        "4393": 184,
        "4394": 173,
        "4395": 59,
        "4396": 163,
        "4397": 237,
        "4398": 89,
        "4399": 229,
        "4400": 208,
        "4401": 5,
        "4402": 150,
        "4403": 114,
        "4404": 103,
        "4405": 63,
        "4406": 169,
        "4407": 132,
        "4408": 247,
        "4409": 121,
        "4410": 58,
        "4411": 185,
        "4412": 115,
        "4413": 19,
        "4414": 214,
        "4415": 120,
        "4416": 39,
        "4417": 153,
        "4418": 188,
        "4419": 26,
        "4420": 252,
        "4421": 145,
        "4422": 202,
        "4423": 169,
        "4424": 116,
        "4425": 112,
        "4426": 244,
        "4427": 206,
        "4428": 230,
        "4429": 48,
        "4430": 182,
        "4431": 58,
        "4432": 187,
        "4433": 20,
        "4434": 67,
        "4435": 206,
        "4436": 96,
        "4437": 55,
        "4438": 24,
        "4439": 165,
        "4440": 192,
        "4441": 156,
        "4442": 188,
        "4443": 113,
        "4444": 250,
        "4445": 86,
        "4446": 1,
        "4447": 73,
        "4448": 101,
        "4449": 195,
        "4450": 110,
        "4451": 79,
        "4452": 192,
        "4453": 41,
        "4454": 165,
        "4455": 165,
        "4456": 212,
        "4457": 117,
        "4458": 99,
        "4459": 20,
        "4460": 124,
        "4461": 162,
        "4462": 246,
        "4463": 99,
        "4464": 220,
        "4465": 112,
        "4466": 68,
        "4467": 29,
        "4468": 201,
        "4469": 157,
        "4470": 72,
        "4471": 162,
        "4472": 246,
        "4473": 248,
        "4474": 175,
        "4475": 219,
        "4476": 117,
        "4477": 120,
        "4478": 15,
        "4479": 102,
        "4480": 140,
        "4481": 24,
        "4482": 55,
        "4483": 208,
        "4484": 160,
        "4485": 56,
        "4486": 83,
        "4487": 91,
        "4488": 219,
        "4489": 14,
        "4490": 168,
        "4491": 234,
        "4492": 40,
        "4493": 93,
        "4494": 160,
        "4495": 158,
        "4496": 248,
        "4497": 166,
        "4498": 13,
        "4499": 131,
        "4500": 217,
        "4501": 54,
        "4502": 175,
        "4503": 36,
        "4504": 172,
        "4505": 23,
        "4506": 114,
        "4507": 40,
        "4508": 117,
        "4509": 194,
        "4510": 177,
        "4511": 35,
        "4512": 112,
        "4513": 2,
        "4514": 0,
        "4515": 89,
        "4516": 34,
        "4517": 12,
        "4518": 255,
        "4519": 90,
        "4520": 246,
        "4521": 72,
        "4522": 106,
        "4523": 123,
        "4524": 227,
        "4525": 193,
        "4526": 129,
        "4527": 217,
        "4528": 143,
        "4529": 43,
        "4530": 38,
        "4531": 133,
        "4532": 188,
        "4533": 158,
        "4534": 43,
        "4535": 108,
        "4536": 222,
        "4537": 95,
        "4538": 65,
        "4539": 26,
        "4540": 59,
        "4541": 139,
        "4542": 39,
        "4543": 241,
        "4544": 186,
        "4545": 120,
        "4546": 31,
        "4547": 168,
        "4548": 169,
        "4549": 231,
        "4550": 213,
        "4551": 253,
        "4552": 191,
        "4553": 194,
        "4554": 70,
        "4555": 175,
        "4556": 130,
        "4557": 63,
        "4558": 14,
        "4559": 245,
        "4560": 148,
        "4561": 200,
        "4562": 44,
        "4563": 209,
        "4564": 130,
        "4565": 172,
        "4566": 213,
        "4567": 26,
        "4568": 148,
        "4569": 166,
        "4570": 181,
        "4571": 251,
        "4572": 164,
        "4573": 91,
        "4574": 212,
        "4575": 31,
        "4576": 22,
        "4577": 26,
        "4578": 177,
        "4579": 144,
        "4580": 75,
        "4581": 68,
        "4582": 130,
        "4583": 84,
        "4584": 85,
        "4585": 180,
        "4586": 91,
        "4587": 251,
        "4588": 3,
        "4589": 135,
        "4590": 210,
        "4591": 190,
        "4592": 220,
        "4593": 50,
        "4594": 4,
        "4595": 188,
        "4596": 217,
        "4597": 82,
        "4598": 40,
        "4599": 111,
        "4600": 155,
        "4601": 177,
        "4602": 40,
        "4603": 89,
        "4604": 148,
        "4605": 243,
        "4606": 42,
        "4607": 111,
        "4608": 24,
        "4609": 197,
        "4610": 159,
        "4611": 190,
        "4612": 30,
        "4613": 200,
        "4614": 146,
        "4615": 136,
        "4616": 198,
        "4617": 222,
        "4618": 9,
        "4619": 244,
        "4620": 139,
        "4621": 169,
        "4622": 111,
        "4623": 186,
        "4624": 228,
        "4625": 108,
        "4626": 183,
        "4627": 235,
        "4628": 244,
        "4629": 48,
        "4630": 39,
        "4631": 78,
        "4632": 6,
        "4633": 33,
        "4634": 92,
        "4635": 220,
        "4636": 209,
        "4637": 216,
        "4638": 160,
        "4639": 173,
        "4640": 5,
        "4641": 214,
        "4642": 86,
        "4643": 199,
        "4644": 38,
        "4645": 193,
        "4646": 147,
        "4647": 189,
        "4648": 133,
        "4649": 0,
        "4650": 25,
        "4651": 214,
        "4652": 141,
        "4653": 200,
        "4654": 218,
        "4655": 19,
        "4656": 54,
        "4657": 209,
        "4658": 238,
        "4659": 251,
        "4660": 132,
        "4661": 192,
        "4662": 83,
        "4663": 10,
        "4664": 13,
        "4665": 195,
        "4666": 88,
        "4667": 33,
        "4668": 218,
        "4669": 143,
        "4670": 7,
        "4671": 176,
        "4672": 108,
        "4673": 218,
        "4674": 170,
        "4675": 97,
        "4676": 21,
        "4677": 222,
        "4678": 101,
        "4679": 80,
        "4680": 241,
        "4681": 188,
        "4682": 20,
        "4683": 6,
        "4684": 55,
        "4685": 225,
        "4686": 29,
        "4687": 39,
        "4688": 141,
        "4689": 247,
        "4690": 176,
        "4691": 255,
        "4692": 213,
        "4693": 176,
        "4694": 245,
        "4695": 188,
        "4696": 222,
        "4697": 7,
        "4698": 147,
        "4699": 174,
        "4700": 152,
        "4701": 119,
        "4702": 46,
        "4703": 8,
        "4704": 3,
        "4705": 33,
        "4706": 235,
        "4707": 135,
        "4708": 106,
        "4709": 14,
        "4710": 97,
        "4711": 227,
        "4712": 20,
        "4713": 69,
        "4714": 86,
        "4715": 157,
        "4716": 72,
        "4717": 213,
        "4718": 170,
        "4719": 135,
        "4720": 41,
        "4721": 158,
        "4722": 222,
        "4723": 105,
        "4724": 82,
        "4725": 241,
        "4726": 141,
        "4727": 102,
        "4728": 245,
        "4729": 110,
        "4730": 93,
        "4731": 7,
        "4732": 196,
        "4733": 12,
        "4734": 227,
        "4735": 88,
        "4736": 8,
        "4737": 170,
        "4738": 128,
        "4739": 58,
        "4740": 218,
        "4741": 149,
        "4742": 170,
        "4743": 124,
        "4744": 158,
        "4745": 2,
        "4746": 48,
        "4747": 255,
        "4748": 60,
        "4749": 18,
        "4750": 244,
        "4751": 194,
        "4752": 215,
        "4753": 24,
        "4754": 77,
        "4755": 214,
        "4756": 43,
        "4757": 125,
        "4758": 93,
        "4759": 156,
        "4760": 98,
        "4761": 63,
        "4762": 186,
        "4763": 249,
        "4764": 196,
        "4765": 194,
        "4766": 207,
        "4767": 135,
        "4768": 187,
        "4769": 122,
        "4770": 203,
        "4771": 179,
        "4772": 84,
        "4773": 164,
        "4774": 230,
        "4775": 21,
        "4776": 1,
        "4777": 109,
        "4778": 253,
        "4779": 103,
        "4780": 107,
        "4781": 13,
        "4782": 82,
        "4783": 203,
        "4784": 49,
        "4785": 90,
        "4786": 102,
        "4787": 222,
        "4788": 139,
        "4789": 11,
        "4790": 92,
        "4791": 109,
        "4792": 82,
        "4793": 122,
        "4794": 194,
        "4795": 241,
        "4796": 169,
        "4797": 1,
        "4798": 243,
        "4799": 164,
        "4800": 131,
        "4801": 188,
        "4802": 96,
        "4803": 74,
        "4804": 204,
        "4805": 128,
        "4806": 249,
        "4807": 176,
        "4808": 122,
        "4809": 118,
        "4810": 73,
        "4811": 96,
        "4812": 100,
        "4813": 15,
        "4814": 30,
        "4815": 90,
        "4816": 7,
        "4817": 99,
        "4818": 105,
        "4819": 227,
        "4820": 195,
        "4821": 83,
        "4822": 95,
        "4823": 55,
        "4824": 161,
        "4825": 208,
        "4826": 17,
        "4827": 155,
        "4828": 242,
        "4829": 46,
        "4830": 117,
        "4831": 65,
        "4832": 136,
        "4833": 154,
        "4834": 111,
        "4835": 108,
        "4836": 190,
        "4837": 188,
        "4838": 109,
        "4839": 89,
        "4840": 44,
        "4841": 192,
        "4842": 104,
        "4843": 195,
        "4844": 101,
        "4845": 30,
        "4846": 6,
        "4847": 71,
        "4848": 16,
        "4849": 209,
        "4850": 255,
        "4851": 196,
        "4852": 119,
        "4853": 249,
        "4854": 3,
        "4855": 16,
        "4856": 229,
        "4857": 210,
        "4858": 252,
        "4859": 13,
        "4860": 84,
        "4861": 201,
        "4862": 1,
        "4863": 157,
        "4864": 219,
        "4865": 90,
        "4866": 75,
        "4867": 37,
        "4868": 39,
        "4869": 133,
        "4870": 160,
        "4871": 247,
        "4872": 21,
        "4873": 79,
        "4874": 157,
        "4875": 247,
        "4876": 178,
        "4877": 72,
        "4878": 60,
        "4879": 22,
        "4880": 50,
        "4881": 63,
        "4882": 50,
        "4883": 67,
        "4884": 22,
        "4885": 97,
        "4886": 106,
        "4887": 138,
        "4888": 113,
        "4889": 28,
        "4890": 230,
        "4891": 160,
        "4892": 180,
        "4893": 52,
        "4894": 203,
        "4895": 53,
        "4896": 100,
        "4897": 57,
        "4898": 92,
        "4899": 93,
        "4900": 19,
        "4901": 243,
        "4902": 126,
        "4903": 69,
        "4904": 244,
        "4905": 253,
        "4906": 104,
        "4907": 160,
        "4908": 195,
        "4909": 92,
        "4910": 178,
        "4911": 101,
        "4912": 217,
        "4913": 69,
        "4914": 156,
        "4915": 206,
        "4916": 73,
        "4917": 164,
        "4918": 53,
        "4919": 233,
        "4920": 75,
        "4921": 219,
        "4922": 44,
        "4923": 96,
        "4924": 40,
        "4925": 217,
        "4926": 121,
        "4927": 150,
        "4928": 28,
        "4929": 148,
        "4930": 69,
        "4931": 65,
        "4932": 228,
        "4933": 31,
        "4934": 156,
        "4935": 10,
        "4936": 57,
        "4937": 209,
        "4938": 32,
        "4939": 58,
        "4940": 40,
        "4941": 95,
        "4942": 46,
        "4943": 44,
        "4944": 210,
        "4945": 120,
        "4946": 138,
        "4947": 197,
        "4948": 78,
        "4949": 84,
        "4950": 31,
        "4951": 183,
        "4952": 249,
        "4953": 212,
        "4954": 81,
        "4955": 23,
        "4956": 236,
        "4957": 79,
        "4958": 13,
        "4959": 171,
        "4960": 198,
        "4961": 227,
        "4962": 104,
        "4963": 174,
        "4964": 240,
        "4965": 201,
        "4966": 101,
        "4967": 20,
        "4968": 87,
        "4969": 90,
        "4970": 43,
        "4971": 123,
        "4972": 251,
        "4973": 154,
        "4974": 134,
        "4975": 146,
        "4976": 172,
        "4977": 123,
        "4978": 0,
        "4979": 161,
        "4980": 37,
        "4981": 141,
        "4982": 243,
        "4983": 122,
        "4984": 95,
        "4985": 76,
        "4986": 52,
        "4987": 251,
        "4988": 222,
        "4989": 138,
        "4990": 245,
        "4991": 1,
        "4992": 17,
        "4993": 146,
        "4994": 4,
        "4995": 74,
        "4996": 242,
        "4997": 7,
        "4998": 254,
        "4999": 101,
        "5000": 86,
        "5001": 122,
        "5002": 5,
        "5003": 84,
        "5004": 25,
        "5005": 238,
        "5006": 33,
        "5007": 28,
        "5008": 103,
        "5009": 11,
        "5010": 183,
        "5011": 47,
        "5012": 115,
        "5013": 120,
        "5014": 180,
        "5015": 185,
        "5016": 123,
        "5017": 30,
        "5018": 216,
        "5019": 28,
        "5020": 220,
        "5021": 180,
        "5022": 93,
        "5023": 139,
        "5024": 209,
        "5025": 255,
        "5026": 185,
        "5027": 29,
        "5028": 57,
        "5029": 255,
        "5030": 189,
        "5031": 128,
        "5032": 12,
        "5033": 36,
        "5034": 137,
        "5035": 229,
        "5036": 15,
        "5037": 49,
        "5038": 156,
        "5039": 22,
        "5040": 78,
        "5041": 190,
        "5042": 138,
        "5043": 44,
        "5044": 69,
        "5045": 30,
        "5046": 198,
        "5047": 108,
        "5048": 49,
        "5049": 123,
        "5050": 11,
        "5051": 146,
        "5052": 29,
        "5053": 172,
        "5054": 9,
        "5055": 19,
        "5056": 242,
        "5057": 105,
        "5058": 250,
        "5059": 210,
        "5060": 58,
        "5061": 127,
        "5062": 120,
        "5063": 229,
        "5064": 32,
        "5065": 15,
        "5066": 164,
        "5067": 44,
        "5068": 60,
        "5069": 76,
        "5070": 60,
        "5071": 3,
        "5072": 122,
        "5073": 82,
        "5074": 177,
        "5075": 135,
        "5076": 244,
        "5077": 183,
        "5078": 129,
        "5079": 250,
        "5080": 205,
        "5081": 172,
        "5082": 248,
        "5083": 74,
        "5084": 187,
        "5085": 72,
        "5086": 6,
        "5087": 176,
        "5088": 147,
        "5089": 101,
        "5090": 11,
        "5091": 119,
        "5092": 92,
        "5093": 110,
        "5094": 7,
        "5095": 68,
        "5096": 103,
        "5097": 77,
        "5098": 48,
        "5099": 78,
        "5100": 188,
        "5101": 58,
        "5102": 228,
        "5103": 115,
        "5104": 225,
        "5105": 203,
        "5106": 93,
        "5107": 250,
        "5108": 134,
        "5109": 195,
        "5110": 141,
        "5111": 173,
        "5112": 182,
        "5113": 181,
        "5114": 112,
        "5115": 137,
        "5116": 229,
        "5117": 178,
        "5118": 119,
        "5119": 179,
        "5120": 107,
        "5121": 73,
        "5122": 15,
        "5123": 3,
        "5124": 109,
        "5125": 214,
        "5126": 200,
        "5127": 234,
        "5128": 56,
        "5129": 34,
        "5130": 153,
        "5131": 193,
        "5132": 0,
        "5133": 38,
        "5134": 241,
        "5135": 67,
        "5136": 34,
        "5137": 95,
        "5138": 84,
        "5139": 194,
        "5140": 222,
        "5141": 95,
        "5142": 15,
        "5143": 203,
        "5144": 237,
        "5145": 221,
        "5146": 14,
        "5147": 68,
        "5148": 186,
        "5149": 77,
        "5150": 141,
        "5151": 108,
        "5152": 234,
        "5153": 200,
        "5154": 1,
        "5155": 84,
        "5156": 25,
        "5157": 230,
        "5158": 165,
        "5159": 88,
        "5160": 145,
        "5161": 137,
        "5162": 29,
        "5163": 49,
        "5164": 50,
        "5165": 161,
        "5166": 88,
        "5167": 52,
        "5168": 56,
        "5169": 153,
        "5170": 175,
        "5171": 52,
        "5172": 25,
        "5173": 211,
        "5174": 29,
        "5175": 49,
        "5176": 188,
        "5177": 45,
        "5178": 204,
        "5179": 127,
        "5180": 101,
        "5181": 38,
        "5182": 87,
        "5183": 211,
        "5184": 13,
        "5185": 214,
        "5186": 38,
        "5187": 18,
        "5188": 160,
        "5189": 93,
        "5190": 52,
        "5191": 128,
        "5192": 250,
        "5193": 192,
        "5194": 41,
        "5195": 185,
        "5196": 248,
        "5197": 231,
        "5198": 188,
        "5199": 231,
        "5200": 174,
        "5201": 239,
        "5202": 153,
        "5203": 232,
        "5204": 85,
        "5205": 180,
        "5206": 184,
        "5207": 249,
        "5208": 88,
        "5209": 8,
        "5210": 111,
        "5211": 205,
        "5212": 121,
        "5213": 128,
        "5214": 37,
        "5215": 35,
        "5216": 107,
        "5217": 50,
        "5218": 245,
        "5219": 1,
        "5220": 77,
        "5221": 27,
        "5222": 32,
        "5223": 38,
        "5224": 253,
        "5225": 94,
        "5226": 107,
        "5227": 190,
        "5228": 33,
        "5229": 28,
        "5230": 80,
        "5231": 228,
        "5232": 140,
        "5233": 232,
        "5234": 1,
        "5235": 184,
        "5236": 135,
        "5237": 171,
        "5238": 38,
        "5239": 33,
        "5240": 250,
        "5241": 213,
        "5242": 2,
        "5243": 210,
        "5244": 198,
        "5245": 144,
        "5246": 51,
        "5247": 79,
        "5248": 148,
        "5249": 173,
        "5250": 166,
        "5251": 144,
        "5252": 236,
        "5253": 36,
        "5254": 225,
        "5255": 87,
        "5256": 46,
        "5257": 217,
        "5258": 73,
        "5259": 147,
        "5260": 109,
        "5261": 211,
        "5262": 39,
        "5263": 61,
        "5264": 70,
        "5265": 21,
        "5266": 124,
        "5267": 67,
        "5268": 148,
        "5269": 77,
        "5270": 38,
        "5271": 178,
        "5272": 178,
        "5273": 25,
        "5274": 232,
        "5275": 233,
        "5276": 136,
        "5277": 71,
        "5278": 202,
        "5279": 222,
        "5280": 4,
        "5281": 183,
        "5282": 50,
        "5283": 48,
        "5284": 17,
        "5285": 179,
        "5286": 151,
        "5287": 166,
        "5288": 82,
        "5289": 212,
        "5290": 56,
        "5291": 80,
        "5292": 58,
        "5293": 27,
        "5294": 84,
        "5295": 195,
        "5296": 112,
        "5297": 153,
        "5298": 245,
        "5299": 97,
        "5300": 162,
        "5301": 185,
        "5302": 34,
        "5303": 155,
        "5304": 172,
        "5305": 193,
        "5306": 1,
        "5307": 168,
        "5308": 185,
        "5309": 70,
        "5310": 10,
        "5311": 133,
        "5312": 24,
        "5313": 52,
        "5314": 27,
        "5315": 251,
        "5316": 139,
        "5317": 171,
        "5318": 245,
        "5319": 106,
        "5320": 91,
        "5321": 95,
        "5322": 225,
        "5323": 94,
        "5324": 129,
        "5325": 55,
        "5326": 178,
        "5327": 57,
        "5328": 17,
        "5329": 213,
        "5330": 100,
        "5331": 183,
        "5332": 89,
        "5333": 59,
        "5334": 110,
        "5335": 248,
        "5336": 79,
        "5337": 181,
        "5338": 244,
        "5339": 76,
        "5340": 210,
        "5341": 178,
        "5342": 55,
        "5343": 120,
        "5344": 128,
        "5345": 31,
        "5346": 172,
        "5347": 130,
        "5348": 46,
        "5349": 211,
        "5350": 133,
        "5351": 107,
        "5352": 109,
        "5353": 131,
        "5354": 234,
        "5355": 152,
        "5356": 77,
        "5357": 167,
        "5358": 143,
        "5359": 153,
        "5360": 189,
        "5361": 70,
        "5362": 180,
        "5363": 150,
        "5364": 189,
        "5365": 13,
        "5366": 138,
        "5367": 68,
        "5368": 152,
        "5369": 27,
        "5370": 72,
        "5371": 138,
        "5372": 178,
        "5373": 172,
        "5374": 12,
        "5375": 135,
        "5376": 214,
        "5377": 40,
        "5378": 207,
        "5379": 93,
        "5380": 131,
        "5381": 158,
        "5382": 0,
        "5383": 161,
        "5384": 58,
        "5385": 239,
        "5386": 78,
        "5387": 74,
        "5388": 85,
        "5389": 198,
        "5390": 19,
        "5391": 64,
        "5392": 202,
        "5393": 28,
        "5394": 4,
        "5395": 240,
        "5396": 15,
        "5397": 47,
        "5398": 181,
        "5399": 116,
        "5400": 212,
        "5401": 18,
        "5402": 170,
        "5403": 113,
        "5404": 120,
        "5405": 77,
        "5406": 193,
        "5407": 111,
        "5408": 40,
        "5409": 32,
        "5410": 17,
        "5411": 134,
        "5412": 138,
        "5413": 159,
        "5414": 98,
        "5415": 83,
        "5416": 226,
        "5417": 122,
        "5418": 145,
        "5419": 58,
        "5420": 67,
        "5421": 69,
        "5422": 168,
        "5423": 225,
        "5424": 216,
        "5425": 129,
        "5426": 128,
        "5427": 39,
        "5428": 78,
        "5429": 20,
        "5430": 143,
        "5431": 113,
        "5432": 87,
        "5433": 230,
        "5434": 221,
        "5435": 152,
        "5436": 61,
        "5437": 86,
        "5438": 20,
        "5439": 175,
        "5440": 180,
        "5441": 99,
        "5442": 167,
        "5443": 9,
        "5444": 91,
        "5445": 232,
        "5446": 229,
        "5447": 224,
        "5448": 240,
        "5449": 229,
        "5450": 76,
        "5451": 216,
        "5452": 228,
        "5453": 231,
        "5454": 125,
        "5455": 175,
        "5456": 98,
        "5457": 120,
        "5458": 185,
        "5459": 1,
        "5460": 69,
        "5461": 214,
        "5462": 115,
        "5463": 239,
        "5464": 9,
        "5465": 237,
        "5466": 179,
        "5467": 115,
        "5468": 91,
        "5469": 89,
        "5470": 199,
        "5471": 127,
        "5472": 209,
        "5473": 244,
        "5474": 176,
        "5475": 233,
        "5476": 100,
        "5477": 200,
        "5478": 144,
        "5479": 70,
        "5480": 224,
        "5481": 183,
        "5482": 217,
        "5483": 62,
        "5484": 188,
        "5485": 132,
        "5486": 145,
        "5487": 57,
        "5488": 138,
        "5489": 24,
        "5490": 86,
        "5491": 139,
        "5492": 8,
        "5493": 25,
        "5494": 240,
        "5495": 235,
        "5496": 183,
        "5497": 154,
        "5498": 172,
        "5499": 84,
        "5500": 167,
        "5501": 255,
        "5502": 181,
        "5503": 232,
        "5504": 30,
        "5505": 236,
        "5506": 54,
        "5507": 148,
        "5508": 114,
        "5509": 71,
        "5510": 64,
        "5511": 70,
        "5512": 48,
        "5513": 41,
        "5514": 69,
        "5515": 116,
        "5516": 61,
        "5517": 139,
        "5518": 32,
        "5519": 206,
        "5520": 52,
        "5521": 199,
        "5522": 172,
        "5523": 180,
        "5524": 200,
        "5525": 44,
        "5526": 146,
        "5527": 82,
        "5528": 108,
        "5529": 163,
        "5530": 36,
        "5531": 179,
        "5532": 34,
        "5533": 205,
        "5534": 41,
        "5535": 5,
        "5536": 46,
        "5537": 13,
        "5538": 67,
        "5539": 173,
        "5540": 252,
        "5541": 90,
        "5542": 51,
        "5543": 148,
        "5544": 63,
        "5545": 127,
        "5546": 25,
        "5547": 177,
        "5548": 137,
        "5549": 211,
        "5550": 132,
        "5551": 123,
        "5552": 56,
        "5553": 73,
        "5554": 212,
        "5555": 100,
        "5556": 189,
        "5557": 64,
        "5558": 13,
        "5559": 13,
        "5560": 129,
        "5561": 245,
        "5562": 110,
        "5563": 114,
        "5564": 92,
        "5565": 16,
        "5566": 199,
        "5567": 118,
        "5568": 175,
        "5569": 79,
        "5570": 5,
        "5571": 81,
        "5572": 128,
        "5573": 156,
        "5574": 41,
        "5575": 30,
        "5576": 17,
        "5577": 182,
        "5578": 34,
        "5579": 60,
        "5580": 235,
        "5581": 224,
        "5582": 117,
        "5583": 214,
        "5584": 104,
        "5585": 21,
        "5586": 40,
        "5587": 207,
        "5588": 244,
        "5589": 140,
        "5590": 14,
        "5591": 17,
        "5592": 190,
        "5593": 170,
        "5594": 51,
        "5595": 149,
        "5596": 123,
        "5597": 15,
        "5598": 20,
        "5599": 245,
        "5600": 116,
        "5601": 177,
        "5602": 196,
        "5603": 135,
        "5604": 26,
        "5605": 222,
        "5606": 131,
        "5607": 185,
        "5608": 253,
        "5609": 105,
        "5610": 137,
        "5611": 105,
        "5612": 148,
        "5613": 218,
        "5614": 8,
        "5615": 201,
        "5616": 237,
        "5617": 24,
        "5618": 117,
        "5619": 192,
        "5620": 93,
        "5621": 128,
        "5622": 27,
        "5623": 98,
        "5624": 178,
        "5625": 240,
        "5626": 99,
        "5627": 143,
        "5628": 3,
        "5629": 34,
        "5630": 96,
        "5631": 63,
        "5632": 123,
        "5633": 26,
        "5634": 155,
        "5635": 179,
        "5636": 18,
        "5637": 93,
        "5638": 29,
        "5639": 220,
        "5640": 24,
        "5641": 173,
        "5642": 233,
        "5643": 75,
        "5644": 154,
        "5645": 241,
        "5646": 109,
        "5647": 129,
        "5648": 92,
        "5649": 198,
        "5650": 216,
        "5651": 203,
        "5652": 116,
        "5653": 138,
        "5654": 237,
        "5655": 241,
        "5656": 35,
        "5657": 38,
        "5658": 223,
        "5659": 249,
        "5660": 94,
        "5661": 31,
        "5662": 169,
        "5663": 234,
        "5664": 107,
        "5665": 69,
        "5666": 104,
        "5667": 49,
        "5668": 18,
        "5669": 186,
        "5670": 48,
        "5671": 11,
        "5672": 157,
        "5673": 84,
        "5674": 152,
        "5675": 65,
        "5676": 131,
        "5677": 56,
        "5678": 83,
        "5679": 159,
        "5680": 214,
        "5681": 184,
        "5682": 145,
        "5683": 135,
        "5684": 249,
        "5685": 200,
        "5686": 191,
        "5687": 98,
        "5688": 87,
        "5689": 200,
        "5690": 170,
        "5691": 96,
        "5692": 56,
        "5693": 235,
        "5694": 118,
        "5695": 147,
        "5696": 24,
        "5697": 13,
        "5698": 96,
        "5699": 244,
        "5700": 49,
        "5701": 163,
        "5702": 38,
        "5703": 57,
        "5704": 26,
        "5705": 72,
        "5706": 1,
        "5707": 102,
        "5708": 189,
        "5709": 44,
        "5710": 99,
        "5711": 61,
        "5712": 101,
        "5713": 216,
        "5714": 6,
        "5715": 251,
        "5716": 87,
        "5717": 205,
        "5718": 202,
        "5719": 85,
        "5720": 99,
        "5721": 50,
        "5722": 189,
        "5723": 3,
        "5724": 114,
        "5725": 45,
        "5726": 162,
        "5727": 113,
        "5728": 216,
        "5729": 167,
        "5730": 97,
        "5731": 213,
        "5732": 218,
        "5733": 174,
        "5734": 131,
        "5735": 156,
        "5736": 241,
        "5737": 221,
        "5738": 142,
        "5739": 201,
        "5740": 135,
        "5741": 126,
        "5742": 143,
        "5743": 132,
        "5744": 39,
        "5745": 236,
        "5746": 232,
        "5747": 4,
        "5748": 210,
        "5749": 240,
        "5750": 198,
        "5751": 196,
        "5752": 220,
        "5753": 218,
        "5754": 234,
        "5755": 221,
        "5756": 221,
        "5757": 158,
        "5758": 244,
        "5759": 232,
        "5760": 243,
        "5761": 164,
        "5762": 115,
        "5763": 44,
        "5764": 249,
        "5765": 28,
        "5766": 170,
        "5767": 60,
        "5768": 202,
        "5769": 216,
        "5770": 171,
        "5771": 46,
        "5772": 11,
        "5773": 112,
        "5774": 95,
        "5775": 148,
        "5776": 184,
        "5777": 243,
        "5778": 19,
        "5779": 103,
        "5780": 96,
        "5781": 182,
        "5782": 220,
        "5783": 21,
        "5784": 252,
        "5785": 216,
        "5786": 202,
        "5787": 56,
        "5788": 210,
        "5789": 4,
        "5790": 122,
        "5791": 94,
        "5792": 139,
        "5793": 123,
        "5794": 125,
        "5795": 238,
        "5796": 20,
        "5797": 224,
        "5798": 240,
        "5799": 251,
        "5800": 231,
        "5801": 213,
        "5802": 204,
        "5803": 207,
        "5804": 32,
        "5805": 244,
        "5806": 212,
        "5807": 149,
        "5808": 90,
        "5809": 66,
        "5810": 132,
        "5811": 61,
        "5812": 205,
        "5813": 101,
        "5814": 201,
        "5815": 27,
        "5816": 96,
        "5817": 193,
        "5818": 107,
        "5819": 118,
        "5820": 212,
        "5821": 84,
        "5822": 158,
        "5823": 209,
        "5824": 107,
        "5825": 233,
        "5826": 135,
        "5827": 212,
        "5828": 136,
        "5829": 98,
        "5830": 141,
        "5831": 147,
        "5832": 74,
        "5833": 202,
        "5834": 182,
        "5835": 30,
        "5836": 65,
        "5837": 162,
        "5838": 201,
        "5839": 188,
        "5840": 43,
        "5841": 152,
        "5842": 79,
        "5843": 90,
        "5844": 253,
        "5845": 176,
        "5846": 245,
        "5847": 162,
        "5848": 255,
        "5849": 39,
        "5850": 129,
        "5851": 238,
        "5852": 27,
        "5853": 164,
        "5854": 221,
        "5855": 102,
        "5856": 109,
        "5857": 213,
        "5858": 174,
        "5859": 41,
        "5860": 19,
        "5861": 58,
        "5862": 187,
        "5863": 29,
        "5864": 46,
        "5865": 52,
        "5866": 194,
        "5867": 52,
        "5868": 201,
        "5869": 249,
        "5870": 9,
        "5871": 186,
        "5872": 100,
        "5873": 178,
        "5874": 150,
        "5875": 54,
        "5876": 253,
        "5877": 47,
        "5878": 150,
        "5879": 110,
        "5880": 68,
        "5881": 255,
        "5882": 216,
        "5883": 241,
        "5884": 12,
        "5885": 115,
        "5886": 208,
        "5887": 2,
        "5888": 125,
        "5889": 214,
        "5890": 64,
        "5891": 106,
        "5892": 0,
        "5893": 61,
        "5894": 68,
        "5895": 86,
        "5896": 90,
        "5897": 239,
        "5898": 4,
        "5899": 120,
        "5900": 156,
        "5901": 59,
        "5902": 204,
        "5903": 98,
        "5904": 71,
        "5905": 26,
        "5906": 246,
        "5907": 160,
        "5908": 59,
        "5909": 241,
        "5910": 102,
        "5911": 36,
        "5912": 122,
        "5913": 16,
        "5914": 113,
        "5915": 39,
        "5916": 110,
        "5917": 214,
        "5918": 9,
        "5919": 206,
        "5920": 215,
        "5921": 115,
        "5922": 169,
        "5923": 18,
        "5924": 155,
        "5925": 44,
        "5926": 154,
        "5927": 105,
        "5928": 42,
        "5929": 160,
        "5930": 191,
        "5931": 81,
        "5932": 183,
        "5933": 9,
        "5934": 168,
        "5935": 130,
        "5936": 198,
        "5937": 42,
        "5938": 208,
        "5939": 5,
        "5940": 10,
        "5941": 62,
        "5942": 246,
        "5943": 136,
        "5944": 98,
        "5945": 188,
        "5946": 0,
        "5947": 165,
        "5948": 35,
        "5949": 125,
        "5950": 144,
        "5951": 106,
        "5952": 177,
        "5953": 127,
        "5954": 119,
        "5955": 125,
        "5956": 170,
        "5957": 137,
        "5958": 29,
        "5959": 71,
        "5960": 196,
        "5961": 6,
        "5962": 93,
        "5963": 208,
        "5964": 82,
        "5965": 219,
        "5966": 134,
        "5967": 13,
        "5968": 4,
        "5969": 243,
        "5970": 3,
        "5971": 250,
        "5972": 101,
        "5973": 205,
        "5974": 42,
        "5975": 58,
        "5976": 188,
        "5977": 216,
        "5978": 90,
        "5979": 183,
        "5980": 184,
        "5981": 147,
        "5982": 39,
        "5983": 194,
        "5984": 109,
        "5985": 160,
        "5986": 205,
        "5987": 57,
        "5988": 142,
        "5989": 132,
        "5990": 43,
        "5991": 26,
        "5992": 205,
        "5993": 228,
        "5994": 80,
        "5995": 37,
        "5996": 88,
        "5997": 5,
        "5998": 33,
        "5999": 116,
        "6000": 167,
        "6001": 248,
        "6002": 157,
        "6003": 224,
        "6004": 65,
        "6005": 69,
        "6006": 111,
        "6007": 76,
        "6008": 188,
        "6009": 153,
        "6010": 162,
        "6011": 162,
        "6012": 190,
        "6013": 219,
        "6014": 136,
        "6015": 177,
        "6016": 59,
        "6017": 126,
        "6018": 238,
        "6019": 255,
        "6020": 170,
        "6021": 36,
        "6022": 67,
        "6023": 37,
        "6024": 66,
        "6025": 215,
        "6026": 96,
        "6027": 38,
        "6028": 39,
        "6029": 188,
        "6030": 91,
        "6031": 233,
        "6032": 253,
        "6033": 162,
        "6034": 55,
        "6035": 5,
        "6036": 136,
        "6037": 246,
        "6038": 169,
        "6039": 217,
        "6040": 196,
        "6041": 172,
        "6042": 217,
        "6043": 236,
        "6044": 210,
        "6045": 175,
        "6046": 205,
        "6047": 41,
        "6048": 183,
        "6049": 50,
        "6050": 76,
        "6051": 116,
        "6052": 226,
        "6053": 77,
        "6054": 184,
        "6055": 233,
        "6056": 126,
        "6057": 95,
        "6058": 112,
        "6059": 134,
        "6060": 242,
        "6061": 9,
        "6062": 200,
        "6063": 247,
        "6064": 235,
        "6065": 138,
        "6066": 134,
        "6067": 139,
        "6068": 61,
        "6069": 11,
        "6070": 74,
        "6071": 65,
        "6072": 179,
        "6073": 247,
        "6074": 145,
        "6075": 63,
        "6076": 106,
        "6077": 68,
        "6078": 70,
        "6079": 197,
        "6080": 9,
        "6081": 40,
        "6082": 104,
        "6083": 12,
        "6084": 208,
        "6085": 14,
        "6086": 126,
        "6087": 94,
        "6088": 160,
        "6089": 239,
        "6090": 218,
        "6091": 96,
        "6092": 167,
        "6093": 3,
        "6094": 178,
        "6095": 145,
        "6096": 100,
        "6097": 191,
        "6098": 151,
        "6099": 229,
        "6100": 137,
        "6101": 185,
        "6102": 241,
        "6103": 218,
        "6104": 246,
        "6105": 37,
        "6106": 165,
        "6107": 30,
        "6108": 230,
        "6109": 81,
        "6110": 195,
        "6111": 85,
        "6112": 200,
        "6113": 224,
        "6114": 58,
        "6115": 69,
        "6116": 30,
        "6117": 252,
        "6118": 175,
        "6119": 68,
        "6120": 238,
        "6121": 157,
        "6122": 43,
        "6123": 195,
        "6124": 149,
        "6125": 110,
        "6126": 143,
        "6127": 206,
        "6128": 143,
        "6129": 103,
        "6130": 95,
        "6131": 121,
        "6132": 44,
        "6133": 201,
        "6134": 26,
        "6135": 0,
        "6136": 182,
        "6137": 189,
        "6138": 40,
        "6139": 95,
        "6140": 135,
        "6141": 48,
        "6142": 250,
        "6143": 150,
        "6144": 173,
        "6145": 174,
        "6146": 201,
        "6147": 235,
        "6148": 10,
        "6149": 37,
        "6150": 112,
        "6151": 238,
        "6152": 96,
        "6153": 136,
        "6154": 211,
        "6155": 103,
        "6156": 138,
        "6157": 162,
        "6158": 109,
        "6159": 144,
        "6160": 213,
        "6161": 36,
        "6162": 159,
        "6163": 205,
        "6164": 23,
        "6165": 33,
        "6166": 45,
        "6167": 65,
        "6168": 225,
        "6169": 106,
        "6170": 254,
        "6171": 101,
        "6172": 215,
        "6173": 228,
        "6174": 228,
        "6175": 124,
        "6176": 67,
        "6177": 157,
        "6178": 98,
        "6179": 202,
        "6180": 213,
        "6181": 87,
        "6182": 34,
        "6183": 33,
        "6184": 9,
        "6185": 7,
        "6186": 239,
        "6187": 129,
        "6188": 99,
        "6189": 135,
        "6190": 14,
        "6191": 1,
        "6192": 9,
        "6193": 191,
        "6194": 42,
        "6195": 152,
        "6196": 74,
        "6197": 103,
        "6198": 248,
        "6199": 238,
        "6200": 214,
        "6201": 254,
        "6202": 246,
        "6203": 47,
        "6204": 38,
        "6205": 56,
        "6206": 61,
        "6207": 154,
        "6208": 60,
        "6209": 252,
        "6210": 64,
        "6211": 141,
        "6212": 39,
        "6213": 30,
        "6214": 241,
        "6215": 95,
        "6216": 95,
        "6217": 43,
        "6218": 139,
        "6219": 209,
        "6220": 88,
        "6221": 222,
        "6222": 68,
        "6223": 177,
        "6224": 166,
        "6225": 34,
        "6226": 158,
        "6227": 56,
        "6228": 70,
        "6229": 111,
        "6230": 15,
        "6231": 39,
        "6232": 153,
        "6233": 106,
        "6234": 110,
        "6235": 62,
        "6236": 139,
        "6237": 121,
        "6238": 228,
        "6239": 67,
        "6240": 179,
        "6241": 78,
        "6242": 100,
        "6243": 158,
        "6244": 48,
        "6245": 179,
        "6246": 23,
        "6247": 237,
        "6248": 116,
        "6249": 6,
        "6250": 219,
        "6251": 72,
        "6252": 45,
        "6253": 113,
        "6254": 29,
        "6255": 128,
        "6256": 129,
        "6257": 25,
        "6258": 44,
        "6259": 143,
        "6260": 122,
        "6261": 81,
        "6262": 201,
        "6263": 178,
        "6264": 13,
        "6265": 222,
        "6266": 37,
        "6267": 145,
        "6268": 178,
        "6269": 23,
        "6270": 254,
        "6271": 104,
        "6272": 205,
        "6273": 38,
        "6274": 51,
        "6275": 88,
        "6276": 216,
        "6277": 89,
        "6278": 157,
        "6279": 159,
        "6280": 229,
        "6281": 100,
        "6282": 145,
        "6283": 45,
        "6284": 80,
        "6285": 210,
        "6286": 15,
        "6287": 111,
        "6288": 200,
        "6289": 168,
        "6290": 92,
        "6291": 206,
        "6292": 79,
        "6293": 178,
        "6294": 143,
        "6295": 136,
        "6296": 197,
        "6297": 148,
        "6298": 172,
        "6299": 198,
        "6300": 164,
        "6301": 202,
        "6302": 167,
        "6303": 236,
        "6304": 210,
        "6305": 114,
        "6306": 207,
        "6307": 90,
        "6308": 181,
        "6309": 27,
        "6310": 134,
        "6311": 47,
        "6312": 198,
        "6313": 174,
        "6314": 33,
        "6315": 155,
        "6316": 68,
        "6317": 6,
        "6318": 72,
        "6319": 191,
        "6320": 107,
        "6321": 83,
        "6322": 144,
        "6323": 211,
        "6324": 96,
        "6325": 9,
        "6326": 63,
        "6327": 190,
        "6328": 252,
        "6329": 99,
        "6330": 202,
        "6331": 40,
        "6332": 48,
        "6333": 103,
        "6334": 133,
        "6335": 67,
        "6336": 239,
        "6337": 229,
        "6338": 18,
        "6339": 222,
        "6340": 233,
        "6341": 95,
        "6342": 235,
        "6343": 6,
        "6344": 250,
        "6345": 206,
        "6346": 195,
        "6347": 37,
        "6348": 105,
        "6349": 39,
        "6350": 81,
        "6351": 62,
        "6352": 55,
        "6353": 98,
        "6354": 90,
        "6355": 224,
        "6356": 201,
        "6357": 99,
        "6358": 118,
        "6359": 22,
        "6360": 147,
        "6361": 185,
        "6362": 45,
        "6363": 98,
        "6364": 248,
        "6365": 24,
        "6366": 107,
        "6367": 126,
        "6368": 200,
        "6369": 105,
        "6370": 96,
        "6371": 114,
        "6372": 72,
        "6373": 39,
        "6374": 189,
        "6375": 189,
        "6376": 191,
        "6377": 175,
        "6378": 201,
        "6379": 217,
        "6380": 209,
        "6381": 92,
        "6382": 242,
        "6383": 12,
        "6384": 17,
        "6385": 247,
        "6386": 41,
        "6387": 229,
        "6388": 187,
        "6389": 20,
        "6390": 71,
        "6391": 76,
        "6392": 94,
        "6393": 147,
        "6394": 140,
        "6395": 97,
        "6396": 227,
        "6397": 80,
        "6398": 17,
        "6399": 251,
        "6400": 43,
        "6401": 83,
        "6402": 189,
        "6403": 5,
        "6404": 118,
        "6405": 148,
        "6406": 171,
        "6407": 79,
        "6408": 250,
        "6409": 21,
        "6410": 70,
        "6411": 172,
        "6412": 193,
        "6413": 241,
        "6414": 89,
        "6415": 96,
        "6416": 144,
        "6417": 131,
        "6418": 71,
        "6419": 92,
        "6420": 137,
        "6421": 156,
        "6422": 149,
        "6423": 165,
        "6424": 26,
        "6425": 61,
        "6426": 22,
        "6427": 129,
        "6428": 111,
        "6429": 83,
        "6430": 126,
        "6431": 224,
        "6432": 178,
        "6433": 227,
        "6434": 193,
        "6435": 194,
        "6436": 151,
        "6437": 218,
        "6438": 25,
        "6439": 99,
        "6440": 132,
        "6441": 125,
        "6442": 65,
        "6443": 93,
        "6444": 146,
        "6445": 65,
        "6446": 103,
        "6447": 209,
        "6448": 213,
        "6449": 238,
        "6450": 139,
        "6451": 251,
        "6452": 127,
        "6453": 103,
        "6454": 105,
        "6455": 229,
        "6456": 73,
        "6457": 94,
        "6458": 92,
        "6459": 64,
        "6460": 157,
        "6461": 117,
        "6462": 232,
        "6463": 86,
        "6464": 74,
        "6465": 241,
        "6466": 159,
        "6467": 94,
        "6468": 176,
        "6469": 207,
        "6470": 150,
        "6471": 77,
        "6472": 91,
        "6473": 170,
        "6474": 76,
        "6475": 157,
        "6476": 105,
        "6477": 169,
        "6478": 101,
        "6479": 53,
        "6480": 28,
        "6481": 64,
        "6482": 112,
        "6483": 147,
        "6484": 123,
        "6485": 241,
        "6486": 188,
        "6487": 220,
        "6488": 164,
        "6489": 191,
        "6490": 183,
        "6491": 245,
        "6492": 81,
        "6493": 206,
        "6494": 25,
        "6495": 234,
        "6496": 210,
        "6497": 163,
        "6498": 82,
        "6499": 118,
        "6500": 3,
        "6501": 218,
        "6502": 126,
        "6503": 35,
        "6504": 138,
        "6505": 215,
        "6506": 174,
        "6507": 52,
        "6508": 53,
        "6509": 5,
        "6510": 17,
        "6511": 220,
        "6512": 186,
        "6513": 227,
        "6514": 246,
        "6515": 96,
        "6516": 6,
        "6517": 55,
        "6518": 58,
        "6519": 49,
        "6520": 116,
        "6521": 146,
        "6522": 19,
        "6523": 229,
        "6524": 14,
        "6525": 51,
        "6526": 48,
        "6527": 189,
        "6528": 11,
        "6529": 28,
        "6530": 78,
        "6531": 100,
        "6532": 116,
        "6533": 38,
        "6534": 99,
        "6535": 52,
        "6536": 193,
        "6537": 242,
        "6538": 246,
        "6539": 155,
        "6540": 22,
        "6541": 188,
        "6542": 243,
        "6543": 219,
        "6544": 141,
        "6545": 201,
        "6546": 133,
        "6547": 142,
        "6548": 212,
        "6549": 90,
        "6550": 10,
        "6551": 249,
        "6552": 70,
        "6553": 164,
        "6554": 70,
        "6555": 254,
        "6556": 186,
        "6557": 127,
        "6558": 84,
        "6559": 74,
        "6560": 39,
        "6561": 50,
        "6562": 130,
        "6563": 145,
        "6564": 91,
        "6565": 152,
        "6566": 13,
        "6567": 245,
        "6568": 182,
        "6569": 193,
        "6570": 19,
        "6571": 176,
        "6572": 183,
        "6573": 234,
        "6574": 158,
        "6575": 151,
        "6576": 159,
        "6577": 90,
        "6578": 204,
        "6579": 134,
        "6580": 151,
        "6581": 197,
        "6582": 98,
        "6583": 227,
        "6584": 163,
        "6585": 91,
        "6586": 210,
        "6587": 39,
        "6588": 34,
        "6589": 142,
        "6590": 187,
        "6591": 80,
        "6592": 212,
        "6593": 161,
        "6594": 190,
        "6595": 182,
        "6596": 58,
        "6597": 206,
        "6598": 133,
        "6599": 86,
        "6600": 193,
        "6601": 229,
        "6602": 25,
        "6603": 175,
        "6604": 63,
        "6605": 117,
        "6606": 162,
        "6607": 7,
        "6608": 181,
        "6609": 3,
        "6610": 42,
        "6611": 58,
        "6612": 16,
        "6613": 9,
        "6614": 28,
        "6615": 26,
        "6616": 29,
        "6617": 144,
        "6618": 193,
        "6619": 93,
        "6620": 193,
        "6621": 72,
        "6622": 240,
        "6623": 230,
        "6624": 22,
        "6625": 61,
        "6626": 222,
        "6627": 152,
        "6628": 87,
        "6629": 16,
        "6630": 173,
        "6631": 240,
        "6632": 44,
        "6633": 9,
        "6634": 12,
        "6635": 239,
        "6636": 57,
        "6637": 239,
        "6638": 176,
        "6639": 20,
        "6640": 186,
        "6641": 84,
        "6642": 129,
        "6643": 208,
        "6644": 23,
        "6645": 53,
        "6646": 243,
        "6647": 139,
        "6648": 58,
        "6649": 246,
        "6650": 9,
        "6651": 52,
        "6652": 66,
        "6653": 43,
        "6654": 52,
        "6655": 221,
        "6656": 213,
        "6657": 14,
        "6658": 226,
        "6659": 176,
        "6660": 12,
        "6661": 185,
        "6662": 198,
        "6663": 54,
        "6664": 143,
        "6665": 101,
        "6666": 248,
        "6667": 222,
        "6668": 163,
        "6669": 97,
        "6670": 177,
        "6671": 240,
        "6672": 192,
        "6673": 183,
        "6674": 248,
        "6675": 212,
        "6676": 171,
        "6677": 170,
        "6678": 198,
        "6679": 231,
        "6680": 255,
        "6681": 237,
        "6682": 140,
        "6683": 153,
        "6684": 246,
        "6685": 226,
        "6686": 240,
        "6687": 229,
        "6688": 155,
        "6689": 24,
        "6690": 43,
        "6691": 253,
        "6692": 71,
        "6693": 190,
        "6694": 130,
        "6695": 44,
        "6696": 194,
        "6697": 187,
        "6698": 75,
        "6699": 76,
        "6700": 252,
        "6701": 25,
        "6702": 71,
        "6703": 220,
        "6704": 236,
        "6705": 85,
        "6706": 2,
        "6707": 162,
        "6708": 9,
        "6709": 159,
        "6710": 12,
        "6711": 49,
        "6712": 12,
        "6713": 73,
        "6714": 85,
        "6715": 144,
        "6716": 235,
        "6717": 248,
        "6718": 218,
        "6719": 150,
        "6720": 200,
        "6721": 213,
        "6722": 80,
        "6723": 100,
        "6724": 194,
        "6725": 88,
        "6726": 42,
        "6727": 64,
        "6728": 174,
        "6729": 149,
        "6730": 94,
        "6731": 1,
        "6732": 54,
        "6733": 246,
        "6734": 249,
        "6735": 12,
        "6736": 15,
        "6737": 239,
        "6738": 52,
        "6739": 137,
        "6740": 103,
        "6741": 153,
        "6742": 100,
        "6743": 83,
        "6744": 224,
        "6745": 171,
        "6746": 130,
        "6747": 39,
        "6748": 114,
        "6749": 148,
        "6750": 249,
        "6751": 147,
        "6752": 140,
        "6753": 116,
        "6754": 82,
        "6755": 162,
        "6756": 92,
        "6757": 120,
        "6758": 62,
        "6759": 117,
        "6760": 57,
        "6761": 247,
        "6762": 152,
        "6763": 252,
        "6764": 39,
        "6765": 211,
        "6766": 91,
        "6767": 105,
        "6768": 240,
        "6769": 167,
        "6770": 41,
        "6771": 197,
        "6772": 246,
        "6773": 112,
        "6774": 42,
        "6775": 134,
        "6776": 40,
        "6777": 185,
        "6778": 81,
        "6779": 175,
        "6780": 157,
        "6781": 153,
        "6782": 117,
        "6783": 6,
        "6784": 147,
        "6785": 69,
        "6786": 81,
        "6787": 243,
        "6788": 122,
        "6789": 41,
        "6790": 201,
        "6791": 175,
        "6792": 235,
        "6793": 61,
        "6794": 136,
        "6795": 100,
        "6796": 209,
        "6797": 192,
        "6798": 35,
        "6799": 23,
        "6800": 15,
        "6801": 34,
        "6802": 179,
        "6803": 236,
        "6804": 246,
        "6805": 57,
        "6806": 70,
        "6807": 245,
        "6808": 222,
        "6809": 111,
        "6810": 132,
        "6811": 22,
        "6812": 27,
        "6813": 219,
        "6814": 140,
        "6815": 125,
        "6816": 234,
        "6817": 191,
        "6818": 252,
        "6819": 54,
        "6820": 68,
        "6821": 4,
        "6822": 110,
        "6823": 243,
        "6824": 170,
        "6825": 10,
        "6826": 199,
        "6827": 46,
        "6828": 215,
        "6829": 43,
        "6830": 238,
        "6831": 55,
        "6832": 230,
        "6833": 128,
        "6834": 239,
        "6835": 124,
        "6836": 255,
        "6837": 5,
        "6838": 57,
        "6839": 158,
        "6840": 172,
        "6841": 187,
        "6842": 195,
        "6843": 156,
        "6844": 205,
        "6845": 51,
        "6846": 128,
        "6847": 247,
        "6848": 5,
        "6849": 58,
        "6850": 146,
        "6851": 181,
        "6852": 246,
        "6853": 74,
        "6854": 212,
        "6855": 236,
        "6856": 85,
        "6857": 240,
        "6858": 29,
        "6859": 204,
        "6860": 29,
        "6861": 157,
        "6862": 111,
        "6863": 76,
        "6864": 139,
        "6865": 151,
        "6866": 123,
        "6867": 94,
        "6868": 31,
        "6869": 152,
        "6870": 149,
        "6871": 142,
        "6872": 25,
        "6873": 98,
        "6874": 121,
        "6875": 128,
        "6876": 150,
        "6877": 207,
        "6878": 103,
        "6879": 232,
        "6880": 173,
        "6881": 79,
        "6882": 216,
        "6883": 98,
        "6884": 110,
        "6885": 181,
        "6886": 87,
        "6887": 125,
        "6888": 156,
        "6889": 232,
        "6890": 79,
        "6891": 110,
        "6892": 130,
        "6893": 160,
        "6894": 110,
        "6895": 95,
        "6896": 222,
        "6897": 21,
        "6898": 16,
        "6899": 25,
        "6900": 40,
        "6901": 43,
        "6902": 239,
        "6903": 10,
        "6904": 117,
        "6905": 134,
        "6906": 93,
        "6907": 196,
        "6908": 133,
        "6909": 117,
        "6910": 227,
        "6911": 223,
        "6912": 242,
        "6913": 172,
        "6914": 209,
        "6915": 108,
        "6916": 235,
        "6917": 66,
        "6918": 218,
        "6919": 122,
        "6920": 69,
        "6921": 118,
        "6922": 43,
        "6923": 14,
        "6924": 99,
        "6925": 93,
        "6926": 68,
        "6927": 176,
        "6928": 219,
        "6929": 87,
        "6930": 62,
        "6931": 111,
        "6932": 19,
        "6933": 216,
        "6934": 201,
        "6935": 104,
        "6936": 137,
        "6937": 226,
        "6938": 121,
        "6939": 215,
        "6940": 127,
        "6941": 13,
        "6942": 176,
        "6943": 16,
        "6944": 135,
        "6945": 94,
        "6946": 61,
        "6947": 238,
        "6948": 246,
        "6949": 189,
        "6950": 54,
        "6951": 96,
        "6952": 193,
        "6953": 19,
        "6954": 21,
        "6955": 169,
        "6956": 117,
        "6957": 86,
        "6958": 254,
        "6959": 204,
        "6960": 185,
        "6961": 49,
        "6962": 62,
        "6963": 105,
        "6964": 99,
        "6965": 136,
        "6966": 36,
        "6967": 60,
        "6968": 77,
        "6969": 248,
        "6970": 147,
        "6971": 225,
        "6972": 244,
        "6973": 87,
        "6974": 179,
        "6975": 231,
        "6976": 170,
        "6977": 103,
        "6978": 232,
        "6979": 102,
        "6980": 81,
        "6981": 186,
        "6982": 120,
        "6983": 5,
        "6984": 147,
        "6985": 178,
        "6986": 125,
        "6987": 156,
        "6988": 251,
        "6989": 104,
        "6990": 150,
        "6991": 246,
        "6992": 40,
        "6993": 250,
        "6994": 31,
        "6995": 92,
        "6996": 168,
        "6997": 249,
        "6998": 55,
        "6999": 118,
        "7000": 183,
        "7001": 1,
        "7002": 120,
        "7003": 130,
        "7004": 50,
        "7005": 78,
        "7006": 104,
        "7007": 88,
        "7008": 171,
        "7009": 150,
        "7010": 126,
        "7011": 30,
        "7012": 228,
        "7013": 230,
        "7014": 238,
        "7015": 41,
        "7016": 127,
        "7017": 155,
        "7018": 185,
        "7019": 243,
        "7020": 222,
        "7021": 253,
        "7022": 207,
        "7023": 6,
        "7024": 1,
        "7025": 65,
        "7026": 184,
        "7027": 89,
        "7028": 138,
        "7029": 111,
        "7030": 195,
        "7031": 245,
        "7032": 1,
        "7033": 17,
        "7034": 6,
        "7035": 8,
        "7036": 0,
        "7037": 108,
        "7038": 12,
        "7039": 163,
        "7040": 144,
        "7041": 107,
        "7042": 130,
        "7043": 238,
        "7044": 70,
        "7045": 69,
        "7046": 89,
        "7047": 118,
        "7048": 27,
        "7049": 249,
        "7050": 186,
        "7051": 25,
        "7052": 173,
        "7053": 61,
        "7054": 73,
        "7055": 194,
        "7056": 150,
        "7057": 0,
        "7058": 254,
        "7059": 254,
        "7060": 202,
        "7061": 254,
        "7062": 1,
        "7063": 163,
        "7064": 100,
        "7065": 206,
        "7066": 235,
        "7067": 73,
        "7068": 47,
        "7069": 38,
        "7070": 126,
        "7071": 179,
        "7072": 67,
        "7073": 37,
        "7074": 117,
        "7075": 91,
        "7076": 118,
        "7077": 93,
        "7078": 160,
        "7079": 126,
        "7080": 71,
        "7081": 226,
        "7082": 131,
        "7083": 251,
        "7084": 251,
        "7085": 25,
        "7086": 142,
        "7087": 67,
        "7088": 14,
        "7089": 203,
        "7090": 165,
        "7091": 232,
        "7092": 64,
        "7093": 83,
        "7094": 84,
        "7095": 63,
        "7096": 162,
        "7097": 202,
        "7098": 187,
        "7099": 66,
        "7100": 115,
        "7101": 111,
        "7102": 74,
        "7103": 176,
        "7104": 141,
        "7105": 114,
        "7106": 79,
        "7107": 73,
        "7108": 252,
        "7109": 192,
        "7110": 71,
        "7111": 189,
        "7112": 9,
        "7113": 36,
        "7114": 250,
        "7115": 218,
        "7116": 122,
        "7117": 44,
        "7118": 128,
        "7119": 101,
        "7120": 202,
        "7121": 79,
        "7122": 36,
        "7123": 9,
        "7124": 217,
        "7125": 218,
        "7126": 232,
        "7127": 188,
        "7128": 121,
        "7129": 198,
        "7130": 161,
        "7131": 151,
        "7132": 10,
        "7133": 68,
        "7134": 51,
        "7135": 108,
        "7136": 199,
        "7137": 207,
        "7138": 83,
        "7139": 253,
        "7140": 152,
        "7141": 44,
        "7142": 206,
        "7143": 181,
        "7144": 216,
        "7145": 182,
        "7146": 138,
        "7147": 231,
        "7148": 126,
        "7149": 141,
        "7150": 203,
        "7151": 169,
        "7152": 33,
        "7153": 19,
        "7154": 9,
        "7155": 250,
        "7156": 21,
        "7157": 97,
        "7158": 151,
        "7159": 12,
        "7160": 129,
        "7161": 211,
        "7162": 36,
        "7163": 200,
        "7164": 234,
        "7165": 127,
        "7166": 51,
        "7167": 49,
        "7168": 174,
        "7169": 11,
        "7170": 150,
        "7171": 222,
        "7172": 245,
        "7173": 4,
        "7174": 110,
        "7175": 17,
        "7176": 0,
        "7177": 175,
        "7178": 212,
        "7179": 219,
        "7180": 108,
        "7181": 168,
        "7182": 214,
        "7183": 183,
        "7184": 52,
        "7185": 138,
        "7186": 20,
        "7187": 161,
        "7188": 101,
        "7189": 119,
        "7190": 162,
        "7191": 143,
        "7192": 30,
        "7193": 139,
        "7194": 71,
        "7195": 152,
        "7196": 32,
        "7197": 242,
        "7198": 199,
        "7199": 63,
        "7200": 21,
        "7201": 242,
        "7202": 90,
        "7203": 193,
        "7204": 106,
        "7205": 70,
        "7206": 139,
        "7207": 165,
        "7208": 100,
        "7209": 209,
        "7210": 86,
        "7211": 241,
        "7212": 40,
        "7213": 47,
        "7214": 195,
        "7215": 226,
        "7216": 167,
        "7217": 86,
        "7218": 120,
        "7219": 80,
        "7220": 147,
        "7221": 22,
        "7222": 98,
        "7223": 37,
        "7224": 66,
        "7225": 148,
        "7226": 198,
        "7227": 92,
        "7228": 182,
        "7229": 61,
        "7230": 13,
        "7231": 43,
        "7232": 229,
        "7233": 253,
        "7234": 84,
        "7235": 238,
        "7236": 212,
        "7237": 75,
        "7238": 252,
        "7239": 102,
        "7240": 203,
        "7241": 147,
        "7242": 6,
        "7243": 123,
        "7244": 53,
        "7245": 187,
        "7246": 30,
        "7247": 102,
        "7248": 116,
        "7249": 238,
        "7250": 104,
        "7251": 135,
        "7252": 100,
        "7253": 108,
        "7254": 203,
        "7255": 114,
        "7256": 148,
        "7257": 94,
        "7258": 4,
        "7259": 209,
        "7260": 96,
        "7261": 75,
        "7262": 138,
        "7263": 134,
        "7264": 142,
        "7265": 18,
        "7266": 251,
        "7267": 164,
        "7268": 85,
        "7269": 4,
        "7270": 140,
        "7271": 227,
        "7272": 66,
        "7273": 253,
        "7274": 71,
        "7275": 15,
        "7276": 158,
        "7277": 30,
        "7278": 77,
        "7279": 92,
        "7280": 213,
        "7281": 105,
        "7282": 182,
        "7283": 116,
        "7284": 6,
        "7285": 102,
        "7286": 220,
        "7287": 139,
        "7288": 251,
        "7289": 166,
        "7290": 244,
        "7291": 247,
        "7292": 27,
        "7293": 148,
        "7294": 99,
        "7295": 71,
        "7296": 251,
        "7297": 218,
        "7298": 241,
        "7299": 23,
        "7300": 130,
        "7301": 227,
        "7302": 161,
        "7303": 115,
        "7304": 40,
        "7305": 118,
        "7306": 117,
        "7307": 57,
        "7308": 178,
        "7309": 58,
        "7310": 10,
        "7311": 62,
        "7312": 121,
        "7313": 145,
        "7314": 246,
        "7315": 116,
        "7316": 162,
        "7317": 168,
        "7318": 102,
        "7319": 146,
        "7320": 147,
        "7321": 24,
        "7322": 120,
        "7323": 135,
        "7324": 244,
        "7325": 33,
        "7326": 192,
        "7327": 231,
        "7328": 161,
        "7329": 207,
        "7330": 118,
        "7331": 40,
        "7332": 226,
        "7333": 74,
        "7334": 253,
        "7335": 107,
        "7336": 42,
        "7337": 165,
        "7338": 232,
        "7339": 59,
        "7340": 104,
        "7341": 153,
        "7342": 220,
        "7343": 54,
        "7344": 16,
        "7345": 218,
        "7346": 81,
        "7347": 225,
        "7348": 86,
        "7349": 157,
        "7350": 224,
        "7351": 184,
        "7352": 127,
        "7353": 22,
        "7354": 101,
        "7355": 20,
        "7356": 86,
        "7357": 190,
        "7358": 46,
        "7359": 243,
        "7360": 249,
        "7361": 204,
        "7362": 8,
        "7363": 252,
        "7364": 55,
        "7365": 226,
        "7366": 210,
        "7367": 247,
        "7368": 236,
        "7369": 16,
        "7370": 59,
        "7371": 109,
        "7372": 179,
        "7373": 75,
        "7374": 176,
        "7375": 74,
        "7376": 150,
        "7377": 215,
        "7378": 27,
        "7379": 107,
        "7380": 94,
        "7381": 219,
        "7382": 198,
        "7383": 182,
        "7384": 141,
        "7385": 121,
        "7386": 196,
        "7387": 31,
        "7388": 181,
        "7389": 70,
        "7390": 166,
        "7391": 13,
        "7392": 115,
        "7393": 105,
        "7394": 237,
        "7395": 0,
        "7396": 182,
        "7397": 40,
        "7398": 248,
        "7399": 32,
        "7400": 110,
        "7401": 121,
        "7402": 130,
        "7403": 91,
        "7404": 55,
        "7405": 179,
        "7406": 129,
        "7407": 4,
        "7408": 19,
        "7409": 177,
        "7410": 191,
        "7411": 27,
        "7412": 86,
        "7413": 37,
        "7414": 138,
        "7415": 189,
        "7416": 25,
        "7417": 58,
        "7418": 39,
        "7419": 39,
        "7420": 227,
        "7421": 236,
        "7422": 187,
        "7423": 152,
        "7424": 27,
        "7425": 103,
        "7426": 194,
        "7427": 140,
        "7428": 236,
        "7429": 68,
        "7430": 22,
        "7431": 130,
        "7432": 228,
        "7433": 135,
        "7434": 110,
        "7435": 149,
        "7436": 49,
        "7437": 187,
        "7438": 238,
        "7439": 232,
        "7440": 142,
        "7441": 210,
        "7442": 137,
        "7443": 79,
        "7444": 94,
        "7445": 145,
        "7446": 244,
        "7447": 44,
        "7448": 159,
        "7449": 154,
        "7450": 198,
        "7451": 225,
        "7452": 169,
        "7453": 243,
        "7454": 62,
        "7455": 31,
        "7456": 215,
        "7457": 119,
        "7458": 169,
        "7459": 35,
        "7460": 98,
        "7461": 61,
        "7462": 227,
        "7463": 192,
        "7464": 142,
        "7465": 163,
        "7466": 116,
        "7467": 76,
        "7468": 92,
        "7469": 241,
        "7470": 178,
        "7471": 138,
        "7472": 143,
        "7473": 60,
        "7474": 72,
        "7475": 140,
        "7476": 154,
        "7477": 251,
        "7478": 185,
        "7479": 162,
        "7480": 190,
        "7481": 179,
        "7482": 122,
        "7483": 178,
        "7484": 234,
        "7485": 207,
        "7486": 101,
        "7487": 115,
        "7488": 67,
        "7489": 140,
        "7490": 179,
        "7491": 204,
        "7492": 250,
        "7493": 97,
        "7494": 136,
        "7495": 83,
        "7496": 23,
        "7497": 192,
        "7498": 163,
        "7499": 11,
        "7500": 243,
        "7501": 131,
        "7502": 166,
        "7503": 187,
        "7504": 85,
        "7505": 194,
        "7506": 81,
        "7507": 220,
        "7508": 127,
        "7509": 122,
        "7510": 36,
        "7511": 118,
        "7512": 105,
        "7513": 247,
        "7514": 211,
        "7515": 54,
        "7516": 141,
        "7517": 54,
        "7518": 202,
        "7519": 30,
        "7520": 72,
        "7521": 236,
        "7522": 95,
        "7523": 88,
        "7524": 201,
        "7525": 4,
        "7526": 206,
        "7527": 235,
        "7528": 23,
        "7529": 137,
        "7530": 44,
        "7531": 90,
        "7532": 179,
        "7533": 233,
        "7534": 80,
        "7535": 240,
        "7536": 103,
        "7537": 251,
        "7538": 93,
        "7539": 211,
        "7540": 213,
        "7541": 147,
        "7542": 114,
        "7543": 56,
        "7544": 236,
        "7545": 99,
        "7546": 111,
        "7547": 91,
        "7548": 139,
        "7549": 43,
        "7550": 129,
        "7551": 236,
        "7552": 160,
        "7553": 113,
        "7554": 104,
        "7555": 99,
        "7556": 8,
        "7557": 136,
        "7558": 194,
        "7559": 92,
        "7560": 181,
        "7561": 152,
        "7562": 43,
        "7563": 6,
        "7564": 172,
        "7565": 148,
        "7566": 108,
        "7567": 176,
        "7568": 186,
        "7569": 35,
        "7570": 49,
        "7571": 235,
        "7572": 211,
        "7573": 92,
        "7574": 27,
        "7575": 156,
        "7576": 76,
        "7577": 89,
        "7578": 62,
        "7579": 23,
        "7580": 167,
        "7581": 123,
        "7582": 8,
        "7583": 145,
        "7584": 157,
        "7585": 186,
        "7586": 42,
        "7587": 180,
        "7588": 69,
        "7589": 46,
        "7590": 169,
        "7591": 64,
        "7592": 126,
        "7593": 185,
        "7594": 170,
        "7595": 44,
        "7596": 252,
        "7597": 137,
        "7598": 92,
        "7599": 214,
        "7600": 136,
        "7601": 108,
        "7602": 177,
        "7603": 175,
        "7604": 236,
        "7605": 186,
        "7606": 242,
        "7607": 62,
        "7608": 130,
        "7609": 251,
        "7610": 177,
        "7611": 137,
        "7612": 162,
        "7613": 54,
        "7614": 54,
        "7615": 8,
        "7616": 76,
        "7617": 240,
        "7618": 133,
        "7619": 255,
        "7620": 59,
        "7621": 32,
        "7622": 215,
        "7623": 32,
        "7624": 217,
        "7625": 196,
        "7626": 147,
        "7627": 152,
        "7628": 30,
        "7629": 164,
        "7630": 230,
        "7631": 229,
        "7632": 106,
        "7633": 78,
        "7634": 205,
        "7635": 75,
        "7636": 20,
        "7637": 102,
        "7638": 55,
        "7639": 91,
        "7640": 98,
        "7641": 80,
        "7642": 216,
        "7643": 245,
        "7644": 168,
        "7645": 201,
        "7646": 204,
        "7647": 252,
        "7648": 23,
        "7649": 160,
        "7650": 208,
        "7651": 162,
        "7652": 241,
        "7653": 168,
        "7654": 188,
        "7655": 233,
        "7656": 77,
        "7657": 99,
        "7658": 22,
        "7659": 68,
        "7660": 42,
        "7661": 91,
        "7662": 51,
        "7663": 246,
        "7664": 196,
        "7665": 239,
        "7666": 105,
        "7667": 200,
        "7668": 152,
        "7669": 235,
        "7670": 174,
        "7671": 250,
        "7672": 169,
        "7673": 166,
        "7674": 115,
        "7675": 194,
        "7676": 237,
        "7677": 194,
        "7678": 34,
        "7679": 51,
        "7680": 74,
        "7681": 106,
        "7682": 115,
        "7683": 51,
        "7684": 240,
        "7685": 146,
        "7686": 177,
        "7687": 167,
        "7688": 65,
        "7689": 17,
        "7690": 15,
        "7691": 73,
        "7692": 75,
        "7693": 76,
        "7694": 240,
        "7695": 17,
        "7696": 71,
        "7697": 206,
        "7698": 91,
        "7699": 158,
        "7700": 208,
        "7701": 145,
        "7702": 54,
        "7703": 58,
        "7704": 172,
        "7705": 53,
        "7706": 206,
        "7707": 49,
        "7708": 49,
        "7709": 205,
        "7710": 91,
        "7711": 83,
        "7712": 51,
        "7713": 224,
        "7714": 151,
        "7715": 133,
        "7716": 144,
        "7717": 245,
        "7718": 82,
        "7719": 23,
        "7720": 135,
        "7721": 201,
        "7722": 244,
        "7723": 105,
        "7724": 240,
        "7725": 124,
        "7726": 3,
        "7727": 35,
        "7728": 124,
        "7729": 4,
        "7730": 108,
        "7731": 234,
        "7732": 228,
        "7733": 22,
        "7734": 228,
        "7735": 208,
        "7736": 165,
        "7737": 128,
        "7738": 168,
        "7739": 103,
        "7740": 141,
        "7741": 154,
        "7742": 203,
        "7743": 209,
        "7744": 95,
        "7745": 97,
        "7746": 148,
        "7747": 66,
        "7748": 113,
        "7749": 135,
        "7750": 177,
        "7751": 117,
        "7752": 212,
        "7753": 14,
        "7754": 26,
        "7755": 133,
        "7756": 184,
        "7757": 232,
        "7758": 185,
        "7759": 226,
        "7760": 177,
        "7761": 72,
        "7762": 82,
        "7763": 224,
        "7764": 20,
        "7765": 90,
        "7766": 36,
        "7767": 116,
        "7768": 163,
        "7769": 162,
        "7770": 233,
        "7771": 223,
        "7772": 16,
        "7773": 43,
        "7774": 64,
        "7775": 121,
        "7776": 73,
        "7777": 140,
        "7778": 92,
        "7779": 173,
        "7780": 43,
        "7781": 32,
        "7782": 105,
        "7783": 157,
        "7784": 227,
        "7785": 139,
        "7786": 8,
        "7787": 152,
        "7788": 72,
        "7789": 246,
        "7790": 239,
        "7791": 102,
        "7792": 82,
        "7793": 210,
        "7794": 23,
        "7795": 172,
        "7796": 135,
        "7797": 247,
        "7798": 92,
        "7799": 126,
        "7800": 84,
        "7801": 229,
        "7802": 45,
        "7803": 212,
        "7804": 156,
        "7805": 52,
        "7806": 61,
        "7807": 172,
        "7808": 92,
        "7809": 108,
        "7810": 149,
        "7811": 189,
        "7812": 223,
        "7813": 167,
        "7814": 114,
        "7815": 17,
        "7816": 249,
        "7817": 10,
        "7818": 81,
        "7819": 192,
        "7820": 117,
        "7821": 148,
        "7822": 114,
        "7823": 240,
        "7824": 42,
        "7825": 166,
        "7826": 112,
        "7827": 195,
        "7828": 97,
        "7829": 141,
        "7830": 7,
        "7831": 34,
        "7832": 4,
        "7833": 249,
        "7834": 215,
        "7835": 11,
        "7836": 162,
        "7837": 102,
        "7838": 169,
        "7839": 91,
        "7840": 155,
        "7841": 56,
        "7842": 117,
        "7843": 192,
        "7844": 162,
        "7845": 187,
        "7846": 166,
        "7847": 199,
        "7848": 252,
        "7849": 59,
        "7850": 80,
        "7851": 205,
        "7852": 25,
        "7853": 211,
        "7854": 67,
        "7855": 29,
        "7856": 75,
        "7857": 253,
        "7858": 230,
        "7859": 209,
        "7860": 138,
        "7861": 203,
        "7862": 248,
        "7863": 62,
        "7864": 141,
        "7865": 141,
        "7866": 253,
        "7867": 93,
        "7868": 81,
        "7869": 130,
        "7870": 137,
        "7871": 124,
        "7872": 203,
        "7873": 139,
        "7874": 168,
        "7875": 103,
        "7876": 111,
        "7877": 229,
        "7878": 129,
        "7879": 208,
        "7880": 232,
        "7881": 57,
        "7882": 152,
        "7883": 127,
        "7884": 232,
        "7885": 104,
        "7886": 101,
        "7887": 232,
        "7888": 17,
        "7889": 70,
        "7890": 176,
        "7891": 218,
        "7892": 43,
        "7893": 11,
        "7894": 25,
        "7895": 0,
        "7896": 30,
        "7897": 85,
        "7898": 8,
        "7899": 13,
        "7900": 144,
        "7901": 236,
        "7902": 137,
        "7903": 125,
        "7904": 168,
        "7905": 98,
        "7906": 21,
        "7907": 227,
        "7908": 99,
        "7909": 193,
        "7910": 120,
        "7911": 187,
        "7912": 103,
        "7913": 13,
        "7914": 237,
        "7915": 25,
        "7916": 128,
        "7917": 27,
        "7918": 112,
        "7919": 62,
        "7920": 5,
        "7921": 197,
        "7922": 162,
        "7923": 90,
        "7924": 150,
        "7925": 17,
        "7926": 131,
        "7927": 212,
        "7928": 76,
        "7929": 197,
        "7930": 92,
        "7931": 101,
        "7932": 153,
        "7933": 164,
        "7934": 138,
        "7935": 39,
        "7936": 22,
        "7937": 11,
        "7938": 100,
        "7939": 132,
        "7940": 170,
        "7941": 61,
        "7942": 168,
        "7943": 229,
        "7944": 142,
        "7945": 18,
        "7946": 144,
        "7947": 208,
        "7948": 251,
        "7949": 211,
        "7950": 203,
        "7951": 0,
        "7952": 131,
        "7953": 223,
        "7954": 142,
        "7955": 71,
        "7956": 246,
        "7957": 25,
        "7958": 125,
        "7959": 224,
        "7960": 65,
        "7961": 108,
        "7962": 242,
        "7963": 38,
        "7964": 12,
        "7965": 127,
        "7966": 39,
        "7967": 249,
        "7968": 223,
        "7969": 179,
        "7970": 244,
        "7971": 180,
        "7972": 203,
        "7973": 213,
        "7974": 86,
        "7975": 89,
        "7976": 126,
        "7977": 46,
        "7978": 186,
        "7979": 82,
        "7980": 184,
        "7981": 189,
        "7982": 46,
        "7983": 230,
        "7984": 92,
        "7985": 32,
        "7986": 176,
        "7987": 137,
        "7988": 239,
        "7989": 36,
        "7990": 134,
        "7991": 54,
        "7992": 248,
        "7993": 191,
        "7994": 86,
        "7995": 203,
        "7996": 131,
        "7997": 93,
        "7998": 197,
        "7999": 194,
        "8000": 180,
        "8001": 133,
        "8002": 82,
        "8003": 185,
        "8004": 44,
        "8005": 172,
        "8006": 53,
        "8007": 122,
        "8008": 125,
        "8009": 97,
        "8010": 176,
        "8011": 42,
        "8012": 102,
        "8013": 250,
        "8014": 67,
        "8015": 26,
        "8016": 235,
        "8017": 121,
        "8018": 205,
        "8019": 112,
        "8020": 206,
        "8021": 0,
        "8022": 58,
        "8023": 12,
        "8024": 74,
        "8025": 196,
        "8026": 30,
        "8027": 224,
        "8028": 17,
        "8029": 208,
        "8030": 172,
        "8031": 206,
        "8032": 70,
        "8033": 202,
        "8034": 117,
        "8035": 147,
        "8036": 233,
        "8037": 210,
        "8038": 111,
        "8039": 209,
        "8040": 223,
        "8041": 99,
        "8042": 163,
        "8043": 244,
        "8044": 19,
        "8045": 23,
        "8046": 59,
        "8047": 40,
        "8048": 0,
        "8049": 128,
        "8050": 39,
        "8051": 15,
        "8052": 58,
        "8053": 161,
        "8054": 69,
        "8055": 26,
        "8056": 24,
        "8057": 192,
        "8058": 162,
        "8059": 18,
        "8060": 170,
        "8061": 27,
        "8062": 147,
        "8063": 160,
        "8064": 31,
        "8065": 163,
        "8066": 108,
        "8067": 92,
        "8068": 11,
        "8069": 18,
        "8070": 157,
        "8071": 226,
        "8072": 217,
        "8073": 249,
        "8074": 204,
        "8075": 240,
        "8076": 152,
        "8077": 198,
        "8078": 41,
        "8079": 227,
        "8080": 94,
        "8081": 186,
        "8082": 115,
        "8083": 159,
        "8084": 218,
        "8085": 38,
        "8086": 79,
        "8087": 94,
        "8088": 6,
        "8089": 229,
        "8090": 58,
        "8091": 104,
        "8092": 175,
        "8093": 29,
        "8094": 10,
        "8095": 148,
        "8096": 14,
        "8097": 16,
        "8098": 67,
        "8099": 0,
        "8100": 202,
        "8101": 14,
        "8102": 250,
        "8103": 36,
        "8104": 72,
        "8105": 226,
        "8106": 205,
        "8107": 45,
        "8108": 5,
        "8109": 153,
        "8110": 241,
        "8111": 193,
        "8112": 149,
        "8113": 77,
        "8114": 199,
        "8115": 192,
        "8116": 43,
        "8117": 247,
        "8118": 104,
        "8119": 162,
        "8120": 223,
        "8121": 240,
        "8122": 121,
        "8123": 141,
        "8124": 217,
        "8125": 138,
        "8126": 42,
        "8127": 114,
        "8128": 75,
        "8129": 94,
        "8130": 125,
        "8131": 116,
        "8132": 25,
        "8133": 167,
        "8134": 78,
        "8135": 108,
        "8136": 32,
        "8137": 100,
        "8138": 4,
        "8139": 3,
        "8140": 225,
        "8141": 18,
        "8142": 95,
        "8143": 57,
        "8144": 112,
        "8145": 42,
        "8146": 198,
        "8147": 248,
        "8148": 14,
        "8149": 175,
        "8150": 160,
        "8151": 218,
        "8152": 159,
        "8153": 21,
        "8154": 194,
        "8155": 142,
        "8156": 20,
        "8157": 236,
        "8158": 39,
        "8159": 109,
        "8160": 91,
        "8161": 65,
        "8162": 192,
        "8163": 51,
        "8164": 87,
        "8165": 237,
        "8166": 205,
        "8167": 203,
        "8168": 174,
        "8169": 41,
        "8170": 235,
        "8171": 156,
        "8172": 52,
        "8173": 61,
        "8174": 210,
        "8175": 138,
        "8176": 30,
        "8177": 234,
        "8178": 163,
        "8179": 60,
        "8180": 204,
        "8181": 23,
        "8182": 13,
        "8183": 95,
        "8184": 46,
        "8185": 161,
        "8186": 95,
        "8187": 23,
        "8188": 199,
        "8189": 142,
        "8190": 59,
        "8191": 129,
        "8192": 123,
        "8193": 79,
        "8194": 219,
        "8195": 254,
        "8196": 47,
        "8197": 199,
        "8198": 97,
        "8199": 253,
        "8200": 246,
        "8201": 156,
        "8202": 245,
        "8203": 87,
        "8204": 60,
        "8205": 165,
        "8206": 213,
        "8207": 41,
        "8208": 158,
        "8209": 218,
        "8210": 239,
        "8211": 241,
        "8212": 14,
        "8213": 140,
        "8214": 249,
        "8215": 243,
        "8216": 162,
        "8217": 27,
        "8218": 31,
        "8219": 247,
        "8220": 207,
        "8221": 246,
        "8222": 215,
        "8223": 134,
        "8224": 29,
        "8225": 44,
        "8226": 252,
        "8227": 194,
        "8228": 105,
        "8229": 96,
        "8230": 37,
        "8231": 117,
        "8232": 228,
        "8233": 19,
        "8234": 179,
        "8235": 232,
        "8236": 57,
        "8237": 2,
        "8238": 64,
        "8239": 76,
        "8240": 172,
        "8241": 44,
        "8242": 129,
        "8243": 229,
        "8244": 106,
        "8245": 68,
        "8246": 140,
        "8247": 119,
        "8248": 234,
        "8249": 155,
        "8250": 4,
        "8251": 7,
        "8252": 238,
        "8253": 240,
        "8254": 119,
        "8255": 149,
        "8256": 216,
        "8257": 42,
        "8258": 176,
        "8259": 39,
        "8260": 217,
        "8261": 188,
        "8262": 254,
        "8263": 148,
        "8264": 39,
        "8265": 54,
        "8266": 144,
        "8267": 102,
        "8268": 28,
        "8269": 54,
        "8270": 85,
        "8271": 238,
        "8272": 51,
        "8273": 169,
        "8274": 187,
        "8275": 128,
        "8276": 93,
        "8277": 202,
        "8278": 251,
        "8279": 162,
        "8280": 104,
        "8281": 135,
        "8282": 168,
        "8283": 141,
        "8284": 183,
        "8285": 230,
        "8286": 130,
        "8287": 85,
        "8288": 144,
        "8289": 59,
        "8290": 21,
        "8291": 13,
        "8292": 254,
        "8293": 15,
        "8294": 41,
        "8295": 207,
        "8296": 199,
        "8297": 64,
        "8298": 137,
        "8299": 127,
        "8300": 4,
        "8301": 222,
        "8302": 169,
        "8303": 197,
        "8304": 223,
        "8305": 4,
        "8306": 112,
        "8307": 137,
        "8308": 131,
        "8309": 234,
        "8310": 208,
        "8311": 153,
        "8312": 71,
        "8313": 109,
        "8314": 153,
        "8315": 29,
        "8316": 29,
        "8317": 21,
        "8318": 83,
        "8319": 203,
        "8320": 199,
        "8321": 252,
        "8322": 109,
        "8323": 210,
        "8324": 173,
        "8325": 4,
        "8326": 204,
        "8327": 87,
        "8328": 156,
        "8329": 223,
        "8330": 56,
        "8331": 40,
        "8332": 53,
        "8333": 228,
        "8334": 28,
        "8335": 205,
        "8336": 18,
        "8337": 45,
        "8338": 48,
        "8339": 49,
        "8340": 156,
        "8341": 176,
        "8342": 20,
        "8343": 116,
        "8344": 143,
        "8345": 144,
        "8346": 233,
        "8347": 170,
        "8348": 222,
        "8349": 158,
        "8350": 97,
        "8351": 92,
        "8352": 109,
        "8353": 154,
        "8354": 12,
        "8355": 231,
        "8356": 209,
        "8357": 233,
        "8358": 116,
        "8359": 142,
        "8360": 170,
        "8361": 0,
        "8362": 198,
        "8363": 27,
        "8364": 2,
        "8365": 38,
        "8366": 9,
        "8367": 24,
        "8368": 101,
        "8369": 233,
        "8370": 86,
        "8371": 238,
        "8372": 108,
        "8373": 103,
        "8374": 18,
        "8375": 56,
        "8376": 22,
        "8377": 63,
        "8378": 99,
        "8379": 173,
        "8380": 202,
        "8381": 99,
        "8382": 230,
        "8383": 185,
        "8384": 114,
        "8385": 147,
        "8386": 152,
        "8387": 247,
        "8388": 190,
        "8389": 251,
        "8390": 233,
        "8391": 1,
        "8392": 178,
        "8393": 102,
        "8394": 179,
        "8395": 190,
        "8396": 40,
        "8397": 202,
        "8398": 56,
        "8399": 154,
        "8400": 110,
        "8401": 182,
        "8402": 135,
        "8403": 221,
        "8404": 149,
        "8405": 215,
        "8406": 31,
        "8407": 124,
        "8408": 185,
        "8409": 27,
        "8410": 96,
        "8411": 78,
        "8412": 164,
        "8413": 30,
        "8414": 196,
        "8415": 60,
        "8416": 60,
        "8417": 194,
        "8418": 218,
        "8419": 177,
        "8420": 129,
        "8421": 188,
        "8422": 2,
        "8423": 25,
        "8424": 191,
        "8425": 116,
        "8426": 230,
        "8427": 15,
        "8428": 89,
        "8429": 84,
        "8430": 121,
        "8431": 0,
        "8432": 186,
        "8433": 177,
        "8434": 183,
        "8435": 228,
        "8436": 161,
        "8437": 248,
        "8438": 210,
        "8439": 218,
        "8440": 144,
        "8441": 131,
        "8442": 9,
        "8443": 129,
        "8444": 159,
        "8445": 162,
        "8446": 83,
        "8447": 179,
        "8448": 223,
        "8449": 3,
        "8450": 143,
        "8451": 153,
        "8452": 9,
        "8453": 165,
        "8454": 232,
        "8455": 14,
        "8456": 89,
        "8457": 116,
        "8458": 189,
        "8459": 244,
        "8460": 76,
        "8461": 176,
        "8462": 88,
        "8463": 53,
        "8464": 120,
        "8465": 112,
        "8466": 42,
        "8467": 11,
        "8468": 167,
        "8469": 60,
        "8470": 83,
        "8471": 135,
        "8472": 69,
        "8473": 208,
        "8474": 198,
        "8475": 74,
        "8476": 61,
        "8477": 74,
        "8478": 240,
        "8479": 10,
        "8480": 164,
        "8481": 121,
        "8482": 70,
        "8483": 140,
        "8484": 236,
        "8485": 218,
        "8486": 181,
        "8487": 60,
        "8488": 102,
        "8489": 74,
        "8490": 192,
        "8491": 75,
        "8492": 189,
        "8493": 92,
        "8494": 231,
        "8495": 190,
        "8496": 194,
        "8497": 143,
        "8498": 52,
        "8499": 26,
        "8500": 171,
        "8501": 143,
        "8502": 78,
        "8503": 124,
        "8504": 37,
        "8505": 116,
        "8506": 136,
        "8507": 42,
        "8508": 67,
        "8509": 139,
        "8510": 161,
        "8511": 162,
        "8512": 33,
        "8513": 138,
        "8514": 142,
        "8515": 80,
        "8516": 19,
        "8517": 231,
        "8518": 9,
        "8519": 96,
        "8520": 40,
        "8521": 213,
        "8522": 158,
        "8523": 127,
        "8524": 87,
        "8525": 24,
        "8526": 202,
        "8527": 62,
        "8528": 103,
        "8529": 3,
        "8530": 214,
        "8531": 112,
        "8532": 213,
        "8533": 103,
        "8534": 64,
        "8535": 10,
        "8536": 20,
        "8537": 138,
        "8538": 210,
        "8539": 217,
        "8540": 54,
        "8541": 135,
        "8542": 190,
        "8543": 209,
        "8544": 92,
        "8545": 42,
        "8546": 200,
        "8547": 221,
        "8548": 215,
        "8549": 78,
        "8550": 102,
        "8551": 159,
        "8552": 116,
        "8553": 127,
        "8554": 197,
        "8555": 135,
        "8556": 200,
        "8557": 48,
        "8558": 21,
        "8559": 99,
        "8560": 215,
        "8561": 48,
        "8562": 149,
        "8563": 214,
        "8564": 46,
        "8565": 11,
        "8566": 239,
        "8567": 124,
        "8568": 56,
        "8569": 71,
        "8570": 205,
        "8571": 31,
        "8572": 61,
        "8573": 93,
        "8574": 40,
        "8575": 201,
        "8576": 216,
        "8577": 153,
        "8578": 185,
        "8579": 232,
        "8580": 248,
        "8581": 1,
        "8582": 97,
        "8583": 138,
        "8584": 128,
        "8585": 197,
        "8586": 242,
        "8587": 82,
        "8588": 68,
        "8589": 182,
        "8590": 42,
        "8591": 4,
        "8592": 24,
        "8593": 21,
        "8594": 50,
        "8595": 131,
        "8596": 236,
        "8597": 161,
        "8598": 216,
        "8599": 10,
        "8600": 28,
        "8601": 9,
        "8602": 164,
        "8603": 177,
        "8604": 241,
        "8605": 179,
        "8606": 122,
        "8607": 192,
        "8608": 212,
        "8609": 184,
        "8610": 190,
        "8611": 255,
        "8612": 100,
        "8613": 139,
        "8614": 190,
        "8615": 107,
        "8616": 244,
        "8617": 39,
        "8618": 121,
        "8619": 53,
        "8620": 49,
        "8621": 206,
        "8622": 25,
        "8623": 233,
        "8624": 254,
        "8625": 88,
        "8626": 62,
        "8627": 251,
        "8628": 18,
        "8629": 78,
        "8630": 50,
        "8631": 93,
        "8632": 255,
        "8633": 243,
        "8634": 207,
        "8635": 239,
        "8636": 9,
        "8637": 194,
        "8638": 159,
        "8639": 163,
        "8640": 143,
        "8641": 48,
        "8642": 241,
        "8643": 247,
        "8644": 155,
        "8645": 192,
        "8646": 230,
        "8647": 140,
        "8648": 102,
        "8649": 78,
        "8650": 245,
        "8651": 144,
        "8652": 140,
        "8653": 227,
        "8654": 166,
        "8655": 89,
        "8656": 202,
        "8657": 181,
        "8658": 238,
        "8659": 84,
        "8660": 26,
        "8661": 255,
        "8662": 229,
        "8663": 57,
        "8664": 23,
        "8665": 97,
        "8666": 0,
        "8667": 96,
        "8668": 11,
        "8669": 181,
        "8670": 119,
        "8671": 51,
        "8672": 75,
        "8673": 98,
        "8674": 81,
        "8675": 41,
        "8676": 234,
        "8677": 53,
        "8678": 178,
        "8679": 171,
        "8680": 128,
        "8681": 189,
        "8682": 170,
        "8683": 28,
        "8684": 93,
        "8685": 169,
        "8686": 56,
        "8687": 216,
        "8688": 166,
        "8689": 90,
        "8690": 116,
        "8691": 190,
        "8692": 182,
        "8693": 52,
        "8694": 99,
        "8695": 116,
        "8696": 133,
        "8697": 197,
        "8698": 214,
        "8699": 215,
        "8700": 112,
        "8701": 29,
        "8702": 208,
        "8703": 43,
        "8704": 246,
        "8705": 252,
        "8706": 71,
        "8707": 186,
        "8708": 176,
        "8709": 245,
        "8710": 23,
        "8711": 12,
        "8712": 14,
        "8713": 125,
        "8714": 255,
        "8715": 211,
        "8716": 156,
        "8717": 252,
        "8718": 68,
        "8719": 37,
        "8720": 224,
        "8721": 213,
        "8722": 31,
        "8723": 245,
        "8724": 157,
        "8725": 217,
        "8726": 162,
        "8727": 215,
        "8728": 142,
        "8729": 42,
        "8730": 195,
        "8731": 196,
        "8732": 37,
        "8733": 84,
        "8734": 233,
        "8735": 17,
        "8736": 209,
        "8737": 69,
        "8738": 121,
        "8739": 38,
        "8740": 103,
        "8741": 29,
        "8742": 20,
        "8743": 106,
        "8744": 96,
        "8745": 28,
        "8746": 123,
        "8747": 204,
        "8748": 81,
        "8749": 218,
        "8750": 75,
        "8751": 90,
        "8752": 159,
        "8753": 226,
        "8754": 70,
        "8755": 96,
        "8756": 167,
        "8757": 64,
        "8758": 43,
        "8759": 217,
        "8760": 222,
        "8761": 72,
        "8762": 1,
        "8763": 224,
        "8764": 117,
        "8765": 224,
        "8766": 52,
        "8767": 221,
        "8768": 18,
        "8769": 37,
        "8770": 162,
        "8771": 119,
        "8772": 220,
        "8773": 29,
        "8774": 99,
        "8775": 108,
        "8776": 53,
        "8777": 75,
        "8778": 223,
        "8779": 159,
        "8780": 186,
        "8781": 255,
        "8782": 244,
        "8783": 114,
        "8784": 187,
        "8785": 21,
        "8786": 47,
        "8787": 206,
        "8788": 156,
        "8789": 20,
        "8790": 186,
        "8791": 25,
        "8792": 108,
        "8793": 96,
        "8794": 176,
        "8795": 147,
        "8796": 45,
        "8797": 93,
        "8798": 59,
        "8799": 202,
        "8800": 220,
        "8801": 103,
        "8802": 160,
        "8803": 65,
        "8804": 154,
        "8805": 139,
        "8806": 225,
        "8807": 178,
        "8808": 29,
        "8809": 157,
        "8810": 166,
        "8811": 228,
        "8812": 167,
        "8813": 10,
        "8814": 175,
        "8815": 58,
        "8816": 243,
        "8817": 68,
        "8818": 232,
        "8819": 130,
        "8820": 194,
        "8821": 7,
        "8822": 159,
        "8823": 1,
        "8824": 58,
        "8825": 130,
        "8826": 54,
        "8827": 178,
        "8828": 72,
        "8829": 130,
        "8830": 160,
        "8831": 213,
        "8832": 85,
        "8833": 111,
        "8834": 12,
        "8835": 151,
        "8836": 164,
        "8837": 4,
        "8838": 209,
        "8839": 120,
        "8840": 29,
        "8841": 49,
        "8842": 211,
        "8843": 9,
        "8844": 3,
        "8845": 142,
        "8846": 31,
        "8847": 46,
        "8848": 50,
        "8849": 25,
        "8850": 125,
        "8851": 81,
        "8852": 251,
        "8853": 27,
        "8854": 103,
        "8855": 131,
        "8856": 235,
        "8857": 158,
        "8858": 13,
        "8859": 10,
        "8860": 236,
        "8861": 122,
        "8862": 156,
        "8863": 55,
        "8864": 218,
        "8865": 66,
        "8866": 110,
        "8867": 28,
        "8868": 37,
        "8869": 178,
        "8870": 175,
        "8871": 216,
        "8872": 72,
        "8873": 27,
        "8874": 132,
        "8875": 122,
        "8876": 155,
        "8877": 145,
        "8878": 3,
        "8879": 249,
        "8880": 142,
        "8881": 93,
        "8882": 41,
        "8883": 108,
        "8884": 207,
        "8885": 200,
        "8886": 45,
        "8887": 181,
        "8888": 118,
        "8889": 64,
        "8890": 119,
        "8891": 106,
        "8892": 144,
        "8893": 209,
        "8894": 231,
        "8895": 208,
        "8896": 195,
        "8897": 116,
        "8898": 35,
        "8899": 230,
        "8900": 183,
        "8901": 244,
        "8902": 92,
        "8903": 172,
        "8904": 238,
        "8905": 159,
        "8906": 105,
        "8907": 77,
        "8908": 164,
        "8909": 3,
        "8910": 62,
        "8911": 141,
        "8912": 199,
        "8913": 68,
        "8914": 150,
        "8915": 139,
        "8916": 114,
        "8917": 97,
        "8918": 99,
        "8919": 48,
        "8920": 50,
        "8921": 177,
        "8922": 69,
        "8923": 226,
        "8924": 219,
        "8925": 190,
        "8926": 169,
        "8927": 94,
        "8928": 14,
        "8929": 123,
        "8930": 186,
        "8931": 69,
        "8932": 107,
        "8933": 56,
        "8934": 81,
        "8935": 110,
        "8936": 227,
        "8937": 40,
        "8938": 190,
        "8939": 173,
        "8940": 95,
        "8941": 228,
        "8942": 76,
        "8943": 84,
        "8944": 101,
        "8945": 133,
        "8946": 136,
        "8947": 111,
        "8948": 6,
        "8949": 143,
        "8950": 165,
        "8951": 181,
        "8952": 108,
        "8953": 139,
        "8954": 145,
        "8955": 45,
        "8956": 40,
        "8957": 213,
        "8958": 185,
        "8959": 105,
        "8960": 205,
        "8961": 36,
        "8962": 162,
        "8963": 44,
        "8964": 146,
        "8965": 161,
        "8966": 109,
        "8967": 150,
        "8968": 139,
        "8969": 250,
        "8970": 137,
        "8971": 60,
        "8972": 152,
        "8973": 60,
        "8974": 180,
        "8975": 27,
        "8976": 217,
        "8977": 37,
        "8978": 18,
        "8979": 224,
        "8980": 137,
        "8981": 45,
        "8982": 42,
        "8983": 94,
        "8984": 212,
        "8985": 22,
        "8986": 237,
        "8987": 161,
        "8988": 255,
        "8989": 209,
        "8990": 98,
        "8991": 124,
        "8992": 3,
        "8993": 153,
        "8994": 67,
        "8995": 218,
        "8996": 115,
        "8997": 74,
        "8998": 137,
        "8999": 51,
        "9000": 36,
        "9001": 132,
        "9002": 173,
        "9003": 72,
        "9004": 25,
        "9005": 190,
        "9006": 60,
        "9007": 98,
        "9008": 172,
        "9009": 236,
        "9010": 244,
        "9011": 118,
        "9012": 103,
        "9013": 62,
        "9014": 151,
        "9015": 123,
        "9016": 197,
        "9017": 107,
        "9018": 245,
        "9019": 17,
        "9020": 77,
        "9021": 34,
        "9022": 132,
        "9023": 139,
        "9024": 219,
        "9025": 148,
        "9026": 22,
        "9027": 47,
        "9028": 47,
        "9029": 207,
        "9030": 219,
        "9031": 122,
        "9032": 60,
        "9033": 206,
        "9034": 236,
        "9035": 41,
        "9036": 26,
        "9037": 245,
        "9038": 247,
        "9039": 193,
        "9040": 105,
        "9041": 147,
        "9042": 42,
        "9043": 116,
        "9044": 51,
        "9045": 238,
        "9046": 61,
        "9047": 221,
        "9048": 82,
        "9049": 66,
        "9050": 16,
        "9051": 166,
        "9052": 135,
        "9053": 240,
        "9054": 172,
        "9055": 79,
        "9056": 224,
        "9057": 148,
        "9058": 83,
        "9059": 41,
        "9060": 45,
        "9061": 160,
        "9062": 123,
        "9063": 241,
        "9064": 159,
        "9065": 37,
        "9066": 78,
        "9067": 79,
        "9068": 107,
        "9069": 235,
        "9070": 89,
        "9071": 210,
        "9072": 97,
        "9073": 74,
        "9074": 74,
        "9075": 132,
        "9076": 127,
        "9077": 229,
        "9078": 22,
        "9079": 90,
        "9080": 235,
        "9081": 204,
        "9082": 215,
        "9083": 163,
        "9084": 10,
        "9085": 61,
        "9086": 148,
        "9087": 112,
        "9088": 145,
        "9089": 1,
        "9090": 201,
        "9091": 80,
        "9092": 138,
        "9093": 113,
        "9094": 176,
        "9095": 105,
        "9096": 222,
        "9097": 45,
        "9098": 174,
        "9099": 23,
        "9100": 178,
        "9101": 204,
        "9102": 36,
        "9103": 68,
        "9104": 108,
        "9105": 37,
        "9106": 9,
        "9107": 182,
        "9108": 191,
        "9109": 82,
        "9110": 166,
        "9111": 88,
        "9112": 220,
        "9113": 19,
        "9114": 85,
        "9115": 180,
        "9116": 182,
        "9117": 129,
        "9118": 67,
        "9119": 127,
        "9120": 223,
        "9121": 214,
        "9122": 45,
        "9123": 96,
        "9124": 197,
        "9125": 226,
        "9126": 5,
        "9127": 57,
        "9128": 137,
        "9129": 244,
        "9130": 139,
        "9131": 69,
        "9132": 213,
        "9133": 9,
        "9134": 91,
        "9135": 165,
        "9136": 72,
        "9137": 154,
        "9138": 203,
        "9139": 17,
        "9140": 163,
        "9141": 27,
        "9142": 180,
        "9143": 55,
        "9144": 72,
        "9145": 102,
        "9146": 118,
        "9147": 7,
        "9148": 192,
        "9149": 40,
        "9150": 56,
        "9151": 47,
        "9152": 164,
        "9153": 151,
        "9154": 97,
        "9155": 71,
        "9156": 253,
        "9157": 67,
        "9158": 94,
        "9159": 50,
        "9160": 191,
        "9161": 34,
        "9162": 75,
        "9163": 132,
        "9164": 28,
        "9165": 73,
        "9166": 24,
        "9167": 208,
        "9168": 9,
        "9169": 175,
        "9170": 61,
        "9171": 22,
        "9172": 172,
        "9173": 100,
        "9174": 110,
        "9175": 62,
        "9176": 221,
        "9177": 187,
        "9178": 124,
        "9179": 220,
        "9180": 100,
        "9181": 141,
        "9182": 152,
        "9183": 254,
        "9184": 210,
        "9185": 105,
        "9186": 92,
        "9187": 180,
        "9188": 150,
        "9189": 61,
        "9190": 72,
        "9191": 129,
        "9192": 236,
        "9193": 135,
        "9194": 1,
        "9195": 62,
        "9196": 165,
        "9197": 38,
        "9198": 158,
        "9199": 128,
        "9200": 179,
        "9201": 207,
        "9202": 246,
        "9203": 54,
        "9204": 85,
        "9205": 181,
        "9206": 69,
        "9207": 11,
        "9208": 2,
        "9209": 87,
        "9210": 145,
        "9211": 251,
        "9212": 129,
        "9213": 226,
        "9214": 125,
        "9215": 64,
        "9216": 219,
        "9217": 71,
        "9218": 211,
        "9219": 77,
        "9220": 204,
        "9221": 241,
        "9222": 170,
        "9223": 179,
        "9224": 148,
        "9225": 63,
        "9226": 8,
        "9227": 42,
        "9228": 247,
        "9229": 86,
        "9230": 242,
        "9231": 254,
        "9232": 79,
        "9233": 176,
        "9234": 117,
        "9235": 185,
        "9236": 26,
        "9237": 206,
        "9238": 246,
        "9239": 115,
        "9240": 49,
        "9241": 18,
        "9242": 196,
        "9243": 16,
        "9244": 207,
        "9245": 167,
        "9246": 198,
        "9247": 122,
        "9248": 164,
        "9249": 30,
        "9250": 243,
        "9251": 81,
        "9252": 125,
        "9253": 78,
        "9254": 243,
        "9255": 80,
        "9256": 140,
        "9257": 156,
        "9258": 79,
        "9259": 177,
        "9260": 185,
        "9261": 122,
        "9262": 94,
        "9263": 95,
        "9264": 204,
        "9265": 251,
        "9266": 35,
        "9267": 11,
        "9268": 219,
        "9269": 82,
        "9270": 183,
        "9271": 85,
        "9272": 195,
        "9273": 98,
        "9274": 44,
        "9275": 241,
        "9276": 232,
        "9277": 10,
        "9278": 107,
        "9279": 29,
        "9280": 165,
        "9281": 167,
        "9282": 188,
        "9283": 185,
        "9284": 138,
        "9285": 189,
        "9286": 13,
        "9287": 41,
        "9288": 21,
        "9289": 60,
        "9290": 163,
        "9291": 177,
        "9292": 48,
        "9293": 188,
        "9294": 218,
        "9295": 56,
        "9296": 25,
        "9297": 18,
        "9298": 9,
        "9299": 224,
        "9300": 146,
        "9301": 163,
        "9302": 202,
        "9303": 215,
        "9304": 79,
        "9305": 146,
        "9306": 64,
        "9307": 176,
        "9308": 155,
        "9309": 155,
        "9310": 56,
        "9311": 137,
        "9312": 120,
        "9313": 23,
        "9314": 81,
        "9315": 93,
        "9316": 67,
        "9317": 235,
        "9318": 89,
        "9319": 179,
        "9320": 65,
        "9321": 57,
        "9322": 184,
        "9323": 70,
        "9324": 149,
        "9325": 45,
        "9326": 125,
        "9327": 224,
        "9328": 216,
        "9329": 131,
        "9330": 138,
        "9331": 146,
        "9332": 147,
        "9333": 198,
        "9334": 199,
        "9335": 80,
        "9336": 16,
        "9337": 87,
        "9338": 26,
        "9339": 183,
        "9340": 199,
        "9341": 118,
        "9342": 152,
        "9343": 194,
        "9344": 172,
        "9345": 135,
        "9346": 97,
        "9347": 69,
        "9348": 189,
        "9349": 211,
        "9350": 213,
        "9351": 90,
        "9352": 44,
        "9353": 21,
        "9354": 167,
        "9355": 64,
        "9356": 220,
        "9357": 138,
        "9358": 34,
        "9359": 27,
        "9360": 28,
        "9361": 236,
        "9362": 226,
        "9363": 86,
        "9364": 244,
        "9365": 112,
        "9366": 28,
        "9367": 10,
        "9368": 195,
        "9369": 14,
        "9370": 230,
        "9371": 89,
        "9372": 6,
        "9373": 230,
        "9374": 231,
        "9375": 216,
        "9376": 176,
        "9377": 229,
        "9378": 31,
        "9379": 78,
        "9380": 112,
        "9381": 198,
        "9382": 97,
        "9383": 4,
        "9384": 234,
        "9385": 225,
        "9386": 200,
        "9387": 87,
        "9388": 136,
        "9389": 226,
        "9390": 154,
        "9391": 176,
        "9392": 28,
        "9393": 26,
        "9394": 101,
        "9395": 120,
        "9396": 142,
        "9397": 108,
        "9398": 106,
        "9399": 204,
        "9400": 189,
        "9401": 231,
        "9402": 237,
        "9403": 213,
        "9404": 244,
        "9405": 60,
        "9406": 177,
        "9407": 252,
        "9408": 84,
        "9409": 102,
        "9410": 160,
        "9411": 61,
        "9412": 2,
        "9413": 240,
        "9414": 161,
        "9415": 192,
        "9416": 241,
        "9417": 233,
        "9418": 220,
        "9419": 25,
        "9420": 175,
        "9421": 27,
        "9422": 144,
        "9423": 115,
        "9424": 213,
        "9425": 51,
        "9426": 149,
        "9427": 223,
        "9428": 147,
        "9429": 191,
        "9430": 222,
        "9431": 177,
        "9432": 230,
        "9433": 37,
        "9434": 107,
        "9435": 193,
        "9436": 225,
        "9437": 218,
        "9438": 253,
        "9439": 87,
        "9440": 47,
        "9441": 54,
        "9442": 175,
        "9443": 104,
        "9444": 93,
        "9445": 218,
        "9446": 77,
        "9447": 233,
        "9448": 232,
        "9449": 53,
        "9450": 22,
        "9451": 19,
        "9452": 89,
        "9453": 76,
        "9454": 113,
        "9455": 208,
        "9456": 202,
        "9457": 143,
        "9458": 61,
        "9459": 238,
        "9460": 16,
        "9461": 149,
        "9462": 41,
        "9463": 155,
        "9464": 186,
        "9465": 133,
        "9466": 108,
        "9467": 0,
        "9468": 163,
        "9469": 132,
        "9470": 100,
        "9471": 0,
        "9472": 25,
        "9473": 202,
        "9474": 116,
        "9475": 113,
        "9476": 124,
        "9477": 128,
        "9478": 213,
        "9479": 8,
        "9480": 118,
        "9481": 80,
        "9482": 207,
        "9483": 31,
        "9484": 122,
        "9485": 217,
        "9486": 42,
        "9487": 55,
        "9488": 47,
        "9489": 42,
        "9490": 183,
        "9491": 51,
        "9492": 156,
        "9493": 158,
        "9494": 78,
        "9495": 172,
        "9496": 68,
        "9497": 202,
        "9498": 158,
        "9499": 34,
        "9500": 3,
        "9501": 234,
        "9502": 2,
        "9503": 201,
        "9504": 111,
        "9505": 230,
        "9506": 98,
        "9507": 250,
        "9508": 200,
        "9509": 2,
        "9510": 99,
        "9511": 140,
        "9512": 187,
        "9513": 42,
        "9514": 22,
        "9515": 51,
        "9516": 212,
        "9517": 235,
        "9518": 100,
        "9519": 219,
        "9520": 180,
        "9521": 64,
        "9522": 82,
        "9523": 85,
        "9524": 189,
        "9525": 220,
        "9526": 166,
        "9527": 22,
        "9528": 154,
        "9529": 109,
        "9530": 47,
        "9531": 219,
        "9532": 77,
        "9533": 53,
        "9534": 205,
        "9535": 116,
        "9536": 194,
        "9537": 198,
        "9538": 186,
        "9539": 76,
        "9540": 54,
        "9541": 97,
        "9542": 243,
        "9543": 141,
        "9544": 86,
        "9545": 104,
        "9546": 1,
        "9547": 127,
        "9548": 219,
        "9549": 112,
        "9550": 3,
        "9551": 168,
        "9552": 206,
        "9553": 79,
        "9554": 168,
        "9555": 67,
        "9556": 143,
        "9557": 71,
        "9558": 121,
        "9559": 117,
        "9560": 21,
        "9561": 193,
        "9562": 186,
        "9563": 180,
        "9564": 156,
        "9565": 106,
        "9566": 135,
        "9567": 20,
        "9568": 128,
        "9569": 186,
        "9570": 168,
        "9571": 124,
        "9572": 117,
        "9573": 214,
        "9574": 113,
        "9575": 106,
        "9576": 252,
        "9577": 16,
        "9578": 95,
        "9579": 127,
        "9580": 214,
        "9581": 45,
        "9582": 23,
        "9583": 205,
        "9584": 56,
        "9585": 223,
        "9586": 105,
        "9587": 151,
        "9588": 52,
        "9589": 73,
        "9590": 35,
        "9591": 82,
        "9592": 30,
        "9593": 213,
        "9594": 149,
        "9595": 151,
        "9596": 203,
        "9597": 175,
        "9598": 128,
        "9599": 208,
        "9600": 146,
        "9601": 220,
        "9602": 132,
        "9603": 140,
        "9604": 232,
        "9605": 68,
        "9606": 123,
        "9607": 140,
        "9608": 110,
        "9609": 43,
        "9610": 187,
        "9611": 94,
        "9612": 34,
        "9613": 79,
        "9614": 210,
        "9615": 35,
        "9616": 36,
        "9617": 124,
        "9618": 143,
        "9619": 89,
        "9620": 68,
        "9621": 107,
        "9622": 227,
        "9623": 237,
        "9624": 252,
        "9625": 40,
        "9626": 73,
        "9627": 56,
        "9628": 1,
        "9629": 106,
        "9630": 180,
        "9631": 67,
        "9632": 186,
        "9633": 244,
        "9634": 104,
        "9635": 107,
        "9636": 229,
        "9637": 20,
        "9638": 206,
        "9639": 3,
        "9640": 68,
        "9641": 86,
        "9642": 62,
        "9643": 42,
        "9644": 108,
        "9645": 37,
        "9646": 118,
        "9647": 84,
        "9648": 75,
        "9649": 105,
        "9650": 162,
        "9651": 25,
        "9652": 95,
        "9653": 1,
        "9654": 176,
        "9655": 202,
        "9656": 227,
        "9657": 8,
        "9658": 124,
        "9659": 137,
        "9660": 212,
        "9661": 249,
        "9662": 14,
        "9663": 26,
        "9664": 57,
        "9665": 84,
        "9666": 230,
        "9667": 1,
        "9668": 219,
        "9669": 200,
        "9670": 25,
        "9671": 139,
        "9672": 224,
        "9673": 114,
        "9674": 13,
        "9675": 120,
        "9676": 64,
        "9677": 56,
        "9678": 123,
        "9679": 110,
        "9680": 141,
        "9681": 189,
        "9682": 236,
        "9683": 47,
        "9684": 233,
        "9685": 177,
        "9686": 82,
        "9687": 126,
        "9688": 146,
        "9689": 88,
        "9690": 138,
        "9691": 53,
        "9692": 123,
        "9693": 196,
        "9694": 240,
        "9695": 114,
        "9696": 39,
        "9697": 79,
        "9698": 238,
        "9699": 62,
        "9700": 57,
        "9701": 179,
        "9702": 179,
        "9703": 236,
        "9704": 188,
        "9705": 163,
        "9706": 39,
        "9707": 40,
        "9708": 47,
        "9709": 235,
        "9710": 100,
        "9711": 20,
        "9712": 200,
        "9713": 6,
        "9714": 106,
        "9715": 154,
        "9716": 219,
        "9717": 132,
        "9718": 3,
        "9719": 187,
        "9720": 125,
        "9721": 84,
        "9722": 247,
        "9723": 131,
        "9724": 255,
        "9725": 112,
        "9726": 13,
        "9727": 5,
        "9728": 107,
        "9729": 224,
        "9730": 57,
        "9731": 61,
        "9732": 190,
        "9733": 103,
        "9734": 241,
        "9735": 148,
        "9736": 140,
        "9737": 205,
        "9738": 14,
        "9739": 22,
        "9740": 45,
        "9741": 31,
        "9742": 105,
        "9743": 227,
        "9744": 216,
        "9745": 8,
        "9746": 68,
        "9747": 110,
        "9748": 181,
        "9749": 188,
        "9750": 231,
        "9751": 190,
        "9752": 47,
        "9753": 250,
        "9754": 10,
        "9755": 202,
        "9756": 179,
        "9757": 183,
        "9758": 223,
        "9759": 86,
        "9760": 73,
        "9761": 108,
        "9762": 29,
        "9763": 101,
        "9764": 36,
        "9765": 108,
        "9766": 247,
        "9767": 208,
        "9768": 216,
        "9769": 172,
        "9770": 127,
        "9771": 72,
        "9772": 85,
        "9773": 112,
        "9774": 186,
        "9775": 180,
        "9776": 53,
        "9777": 13,
        "9778": 13,
        "9779": 207,
        "9780": 99,
        "9781": 70,
        "9782": 158,
        "9783": 238,
        "9784": 255,
        "9785": 186,
        "9786": 154,
        "9787": 215,
        "9788": 24,
        "9789": 174,
        "9790": 48,
        "9791": 27,
        "9792": 248,
        "9793": 97,
        "9794": 41,
        "9795": 101,
        "9796": 148,
        "9797": 80,
        "9798": 44,
        "9799": 49,
        "9800": 201,
        "9801": 226,
        "9802": 164,
        "9803": 79,
        "9804": 252,
        "9805": 202,
        "9806": 48,
        "9807": 153,
        "9808": 234,
        "9809": 121,
        "9810": 56,
        "9811": 179,
        "9812": 253,
        "9813": 64,
        "9814": 16,
        "9815": 99,
        "9816": 97,
        "9817": 50,
        "9818": 177,
        "9819": 213,
        "9820": 62,
        "9821": 8,
        "9822": 4,
        "9823": 106,
        "9824": 169,
        "9825": 187,
        "9826": 172,
        "9827": 40,
        "9828": 151,
        "9829": 186,
        "9830": 220,
        "9831": 219,
        "9832": 152,
        "9833": 22,
        "9834": 127,
        "9835": 54,
        "9836": 96,
        "9837": 101,
        "9838": 52,
        "9839": 226,
        "9840": 249,
        "9841": 101,
        "9842": 44,
        "9843": 48,
        "9844": 48,
        "9845": 248,
        "9846": 117,
        "9847": 53,
        "9848": 203,
        "9849": 26,
        "9850": 103,
        "9851": 209,
        "9852": 205,
        "9853": 90,
        "9854": 119,
        "9855": 106,
        "9856": 162,
        "9857": 193,
        "9858": 135,
        "9859": 97,
        "9860": 17,
        "9861": 170,
        "9862": 89,
        "9863": 76,
        "9864": 122,
        "9865": 111,
        "9866": 89,
        "9867": 55,
        "9868": 104,
        "9869": 96,
        "9870": 74,
        "9871": 51,
        "9872": 16,
        "9873": 52,
        "9874": 127,
        "9875": 109,
        "9876": 226,
        "9877": 80,
        "9878": 253,
        "9879": 144,
        "9880": 171,
        "9881": 170,
        "9882": 218,
        "9883": 83,
        "9884": 172,
        "9885": 210,
        "9886": 121,
        "9887": 231,
        "9888": 77,
        "9889": 126,
        "9890": 58,
        "9891": 245,
        "9892": 76,
        "9893": 46,
        "9894": 111,
        "9895": 148,
        "9896": 244,
        "9897": 228,
        "9898": 61,
        "9899": 166,
        "9900": 249,
        "9901": 25,
        "9902": 22,
        "9903": 98,
        "9904": 26,
        "9905": 29,
        "9906": 102,
        "9907": 191,
        "9908": 173,
        "9909": 93,
        "9910": 169,
        "9911": 88,
        "9912": 63,
        "9913": 227,
        "9914": 186,
        "9915": 78,
        "9916": 79,
        "9917": 70,
        "9918": 155,
        "9919": 2,
        "9920": 185,
        "9921": 98,
        "9922": 91,
        "9923": 190,
        "9924": 4,
        "9925": 85,
        "9926": 147,
        "9927": 200,
        "9928": 104,
        "9929": 126,
        "9930": 143,
        "9931": 158,
        "9932": 141,
        "9933": 43,
        "9934": 182,
        "9935": 66,
        "9936": 105,
        "9937": 166,
        "9938": 46,
        "9939": 116,
        "9940": 8,
        "9941": 35,
        "9942": 220,
        "9943": 51,
        "9944": 223,
        "9945": 117,
        "9946": 129,
        "9947": 56,
        "9948": 89,
        "9949": 176,
        "9950": 58,
        "9951": 15,
        "9952": 255,
        "9953": 189,
        "9954": 46,
        "9955": 165,
        "9956": 241,
        "9957": 200,
        "9958": 89,
        "9959": 24,
        "9960": 69,
        "9961": 190,
        "9962": 94,
        "9963": 105,
        "9964": 198,
        "9965": 216,
        "9966": 210,
        "9967": 50,
        "9968": 176,
        "9969": 36,
        "9970": 99,
        "9971": 160,
        "9972": 1,
        "9973": 203,
        "9974": 9,
        "9975": 161,
        "9976": 231,
        "9977": 151,
        "9978": 177,
        "9979": 121,
        "9980": 222,
        "9981": 232,
        "9982": 192,
        "9983": 56,
        "9984": 255,
        "9985": 207,
        "9986": 63,
        "9987": 224,
        "9988": 68,
        "9989": 215,
        "9990": 103,
        "9991": 227,
        "9992": 55,
        "9993": 68,
        "9994": 63,
        "9995": 114,
        "9996": 143,
        "9997": 226,
        "9998": 3,
        "9999": 97,
        "10000": 27,
        "10001": 216,
        "10002": 219,
        "10003": 230,
        "10004": 157,
        "10005": 211,
        "10006": 127,
        "10007": 220,
        "10008": 182,
        "10009": 152,
        "10010": 19,
        "10011": 25,
        "10012": 83,
        "10013": 240,
        "10014": 12,
        "10015": 148,
        "10016": 246,
        "10017": 129,
        "10018": 32,
        "10019": 59,
        "10020": 51,
        "10021": 214,
        "10022": 5,
        "10023": 91,
        "10024": 249,
        "10025": 95,
        "10026": 87,
        "10027": 161,
        "10028": 180,
        "10029": 19,
        "10030": 238,
        "10031": 197,
        "10032": 120,
        "10033": 57,
        "10034": 86,
        "10035": 213,
        "10036": 62,
        "10037": 202,
        "10038": 69,
        "10039": 209,
        "10040": 220,
        "10041": 131,
        "10042": 92,
        "10043": 247,
        "10044": 125,
        "10045": 217,
        "10046": 205,
        "10047": 90,
        "10048": 120,
        "10049": 216,
        "10050": 89,
        "10051": 108,
        "10052": 66,
        "10053": 13,
        "10054": 118,
        "10055": 200,
        "10056": 248,
        "10057": 103,
        "10058": 8,
        "10059": 45,
        "10060": 9,
        "10061": 145,
        "10062": 239,
        "10063": 181,
        "10064": 178,
        "10065": 160,
        "10066": 152,
        "10067": 93,
        "10068": 63,
        "10069": 66,
        "10070": 141,
        "10071": 238,
        "10072": 29,
        "10073": 41,
        "10074": 13,
        "10075": 157,
        "10076": 193,
        "10077": 190,
        "10078": 173,
        "10079": 147,
        "10080": 212,
        "10081": 174,
        "10082": 107,
        "10083": 247,
        "10084": 2,
        "10085": 248,
        "10086": 186,
        "10087": 171,
        "10088": 106,
        "10089": 206,
        "10090": 16,
        "10091": 8,
        "10092": 215,
        "10093": 180,
        "10094": 228,
        "10095": 86,
        "10096": 188,
        "10097": 243,
        "10098": 113,
        "10099": 175,
        "10100": 147,
        "10101": 75,
        "10102": 33,
        "10103": 80,
        "10104": 149,
        "10105": 86,
        "10106": 215,
        "10107": 167,
        "10108": 175,
        "10109": 23,
        "10110": 222,
        "10111": 220,
        "10112": 215,
        "10113": 75,
        "10114": 141,
        "10115": 6,
        "10116": 139,
        "10117": 244,
        "10118": 110,
        "10119": 38,
        "10120": 31,
        "10121": 208,
        "10122": 58,
        "10123": 94,
        "10124": 91,
        "10125": 160,
        "10126": 101,
        "10127": 185,
        "10128": 1,
        "10129": 59,
        "10130": 37,
        "10131": 164,
        "10132": 56,
        "10133": 131,
        "10134": 9,
        "10135": 14,
        "10136": 233,
        "10137": 236,
        "10138": 10,
        "10139": 152,
        "10140": 171,
        "10141": 9,
        "10142": 140,
        "10143": 44,
        "10144": 15,
        "10145": 226,
        "10146": 36,
        "10147": 127,
        "10148": 137,
        "10149": 67,
        "10150": 56,
        "10151": 193,
        "10152": 255,
        "10153": 124,
        "10154": 80,
        "10155": 243,
        "10156": 2,
        "10157": 91,
        "10158": 42,
        "10159": 115,
        "10160": 54,
        "10161": 226,
        "10162": 154,
        "10163": 194,
        "10164": 207,
        "10165": 64,
        "10166": 25,
        "10167": 236,
        "10168": 156,
        "10169": 96,
        "10170": 54,
        "10171": 49,
        "10172": 38,
        "10173": 122,
        "10174": 76,
        "10175": 182,
        "10176": 154,
        "10177": 216,
        "10178": 174,
        "10179": 166,
        "10180": 235,
        "10181": 197,
        "10182": 249,
        "10183": 139,
        "10184": 44,
        "10185": 115,
        "10186": 144,
        "10187": 104,
        "10188": 9,
        "10189": 68,
        "10190": 35,
        "10191": 177,
        "10192": 137,
        "10193": 87,
        "10194": 155,
        "10195": 200,
        "10196": 255,
        "10197": 177,
        "10198": 106,
        "10199": 190,
        "10200": 77,
        "10201": 211,
        "10202": 151,
        "10203": 218,
        "10204": 243,
        "10205": 172,
        "10206": 122,
        "10207": 172,
        "10208": 49,
        "10209": 202,
        "10210": 72,
        "10211": 23,
        "10212": 193,
        "10213": 230,
        "10214": 7,
        "10215": 165,
        "10216": 63,
        "10217": 26,
        "10218": 215,
        "10219": 64,
        "10220": 255,
        "10221": 182,
        "10222": 236,
        "10223": 139,
        "10224": 214,
        "10225": 247,
        "10226": 14,
        "10227": 5,
        "10228": 193,
        "10229": 100,
        "10230": 41,
        "10231": 172,
        "10232": 247,
        "10233": 149,
        "10234": 94,
        "10235": 201,
        "10236": 46,
        "10237": 29,
        "10238": 182,
        "10239": 2,
        "10240": 68,
        "10241": 35,
        "10242": 255,
        "10243": 25,
        "10244": 16,
        "10245": 239,
        "10246": 207,
        "10247": 83,
        "10248": 85,
        "10249": 103,
        "10250": 8,
        "10251": 229,
        "10252": 75,
        "10253": 185,
        "10254": 180,
        "10255": 244,
        "10256": 7,
        "10257": 207,
        "10258": 5,
        "10259": 93,
        "10260": 97,
        "10261": 161,
        "10262": 18,
        "10263": 138,
        "10264": 229,
        "10265": 56,
        "10266": 114,
        "10267": 183,
        "10268": 99,
        "10269": 149,
        "10270": 110,
        "10271": 79,
        "10272": 135,
        "10273": 216,
        "10274": 32,
        "10275": 211,
        "10276": 202,
        "10277": 195,
        "10278": 224,
        "10279": 219,
        "10280": 143,
        "10281": 28,
        "10282": 90,
        "10283": 139,
        "10284": 182,
        "10285": 152,
        "10286": 137,
        "10287": 244,
        "10288": 58,
        "10289": 179,
        "10290": 120,
        "10291": 139,
        "10292": 186,
        "10293": 123,
        "10294": 220,
        "10295": 163,
        "10296": 8,
        "10297": 71,
        "10298": 99,
        "10299": 19,
        "10300": 218,
        "10301": 178,
        "10302": 34,
        "10303": 241,
        "10304": 65,
        "10305": 111,
        "10306": 68,
        "10307": 161,
        "10308": 203,
        "10309": 85,
        "10310": 184,
        "10311": 91,
        "10312": 46,
        "10313": 13,
        "10314": 194,
        "10315": 103,
        "10316": 217,
        "10317": 175,
        "10318": 214,
        "10319": 64,
        "10320": 192,
        "10321": 151,
        "10322": 32,
        "10323": 93,
        "10324": 233,
        "10325": 252,
        "10326": 207,
        "10327": 36,
        "10328": 141,
        "10329": 15,
        "10330": 173,
        "10331": 66,
        "10332": 143,
        "10333": 156,
        "10334": 228,
        "10335": 246,
        "10336": 157,
        "10337": 216,
        "10338": 139,
        "10339": 243,
        "10340": 54,
        "10341": 11,
        "10342": 50,
        "10343": 90,
        "10344": 182,
        "10345": 151,
        "10346": 46,
        "10347": 54,
        "10348": 145,
        "10349": 12,
        "10350": 80,
        "10351": 30,
        "10352": 108,
        "10353": 97,
        "10354": 189,
        "10355": 17,
        "10356": 146,
        "10357": 179,
        "10358": 158,
        "10359": 232,
        "10360": 65,
        "10361": 253,
        "10362": 70,
        "10363": 251,
        "10364": 187,
        "10365": 183,
        "10366": 249,
        "10367": 76,
        "10368": 191,
        "10369": 92,
        "10370": 197,
        "10371": 43,
        "10372": 205,
        "10373": 245,
        "10374": 184,
        "10375": 53,
        "10376": 155,
        "10377": 197,
        "10378": 175,
        "10379": 89,
        "10380": 197,
        "10381": 78,
        "10382": 165,
        "10383": 216,
        "10384": 60,
        "10385": 58,
        "10386": 151,
        "10387": 122,
        "10388": 252,
        "10389": 234,
        "10390": 115,
        "10391": 133,
        "10392": 192,
        "10393": 235,
        "10394": 129,
        "10395": 190,
        "10396": 48,
        "10397": 163,
        "10398": 178,
        "10399": 120,
        "10400": 130,
        "10401": 4,
        "10402": 39,
        "10403": 137,
        "10404": 54,
        "10405": 232,
        "10406": 101,
        "10407": 195,
        "10408": 162,
        "10409": 123,
        "10410": 52,
        "10411": 76,
        "10412": 95,
        "10413": 166,
        "10414": 31,
        "10415": 131,
        "10416": 199,
        "10417": 67,
        "10418": 100,
        "10419": 199,
        "10420": 233,
        "10421": 139,
        "10422": 114,
        "10423": 94,
        "10424": 43,
        "10425": 118,
        "10426": 205,
        "10427": 168,
        "10428": 10,
        "10429": 54,
        "10430": 46,
        "10431": 100,
        "10432": 155,
        "10433": 159,
        "10434": 23,
        "10435": 185,
        "10436": 47,
        "10437": 199,
        "10438": 236,
        "10439": 13,
        "10440": 152,
        "10441": 206,
        "10442": 170,
        "10443": 206,
        "10444": 22,
        "10445": 114,
        "10446": 153,
        "10447": 164,
        "10448": 156,
        "10449": 212,
        "10450": 239,
        "10451": 20,
        "10452": 112,
        "10453": 48,
        "10454": 247,
        "10455": 149,
        "10456": 246,
        "10457": 81,
        "10458": 28,
        "10459": 28,
        "10460": 223,
        "10461": 169,
        "10462": 10,
        "10463": 90,
        "10464": 187,
        "10465": 21,
        "10466": 223,
        "10467": 69,
        "10468": 163,
        "10469": 177,
        "10470": 237,
        "10471": 0,
        "10472": 142,
        "10473": 201,
        "10474": 100,
        "10475": 231,
        "10476": 160,
        "10477": 192,
        "10478": 67,
        "10479": 0,
        "10480": 39,
        "10481": 180,
        "10482": 23,
        "10483": 166,
        "10484": 53,
        "10485": 38,
        "10486": 127,
        "10487": 83,
        "10488": 81,
        "10489": 96,
        "10490": 61,
        "10491": 214,
        "10492": 112,
        "10493": 142,
        "10494": 219,
        "10495": 213,
        "10496": 152,
        "10497": 122,
        "10498": 127,
        "10499": 240,
        "10500": 39,
        "10501": 158,
        "10502": 111,
        "10503": 164,
        "10504": 249,
        "10505": 137,
        "10506": 237,
        "10507": 210,
        "10508": 216,
        "10509": 52,
        "10510": 163,
        "10511": 59,
        "10512": 155,
        "10513": 210,
        "10514": 10,
        "10515": 74,
        "10516": 31,
        "10517": 130,
        "10518": 156,
        "10519": 208,
        "10520": 215,
        "10521": 79,
        "10522": 240,
        "10523": 252,
        "10524": 0,
        "10525": 174,
        "10526": 171,
        "10527": 197,
        "10528": 98,
        "10529": 230,
        "10530": 149,
        "10531": 35,
        "10532": 101,
        "10533": 149,
        "10534": 86,
        "10535": 116,
        "10536": 107,
        "10537": 70,
        "10538": 205,
        "10539": 93,
        "10540": 254,
        "10541": 179,
        "10542": 167,
        "10543": 202,
        "10544": 44,
        "10545": 23,
        "10546": 103,
        "10547": 23,
        "10548": 216,
        "10549": 153,
        "10550": 46,
        "10551": 104,
        "10552": 45,
        "10553": 255,
        "10554": 197,
        "10555": 123,
        "10556": 183,
        "10557": 16,
        "10558": 134,
        "10559": 234,
        "10560": 113,
        "10561": 89,
        "10562": 77,
        "10563": 120,
        "10564": 2,
        "10565": 236,
        "10566": 204,
        "10567": 66,
        "10568": 100,
        "10569": 235,
        "10570": 243,
        "10571": 150,
        "10572": 15,
        "10573": 173,
        "10574": 15,
        "10575": 58,
        "10576": 64,
        "10577": 32,
        "10578": 189,
        "10579": 31,
        "10580": 246,
        "10581": 130,
        "10582": 250,
        "10583": 144,
        "10584": 240,
        "10585": 11,
        "10586": 60,
        "10587": 32,
        "10588": 69,
        "10589": 223,
        "10590": 74,
        "10591": 166,
        "10592": 220,
        "10593": 57,
        "10594": 207,
        "10595": 200,
        "10596": 197,
        "10597": 254,
        "10598": 206,
        "10599": 21,
        "10600": 10,
        "10601": 31,
        "10602": 39,
        "10603": 7,
        "10604": 229,
        "10605": 167,
        "10606": 100,
        "10607": 58,
        "10608": 250,
        "10609": 156,
        "10610": 248,
        "10611": 106,
        "10612": 115,
        "10613": 49,
        "10614": 157,
        "10615": 110,
        "10616": 43,
        "10617": 141,
        "10618": 168,
        "10619": 90,
        "10620": 185,
        "10621": 51,
        "10622": 77,
        "10623": 29,
        "10624": 118,
        "10625": 31,
        "10626": 229,
        "10627": 141,
        "10628": 39,
        "10629": 138,
        "10630": 11,
        "10631": 100,
        "10632": 125,
        "10633": 160,
        "10634": 36,
        "10635": 217,
        "10636": 146,
        "10637": 170,
        "10638": 105,
        "10639": 114,
        "10640": 145,
        "10641": 27,
        "10642": 96,
        "10643": 139,
        "10644": 26,
        "10645": 103,
        "10646": 246,
        "10647": 12,
        "10648": 238,
        "10649": 158,
        "10650": 194,
        "10651": 169,
        "10652": 139,
        "10653": 179,
        "10654": 124,
        "10655": 129,
        "10656": 27,
        "10657": 210,
        "10658": 146,
        "10659": 96,
        "10660": 205,
        "10661": 70,
        "10662": 36,
        "10663": 252,
        "10664": 143,
        "10665": 6,
        "10666": 43,
        "10667": 225,
        "10668": 38,
        "10669": 164,
        "10670": 88,
        "10671": 96,
        "10672": 80,
        "10673": 150,
        "10674": 232,
        "10675": 108,
        "10676": 116,
        "10677": 147,
        "10678": 112,
        "10679": 107,
        "10680": 235,
        "10681": 46,
        "10682": 23,
        "10683": 54,
        "10684": 43,
        "10685": 89,
        "10686": 181,
        "10687": 24,
        "10688": 200,
        "10689": 190,
        "10690": 72,
        "10691": 116,
        "10692": 117,
        "10693": 179,
        "10694": 121,
        "10695": 130,
        "10696": 237,
        "10697": 238,
        "10698": 26,
        "10699": 102,
        "10700": 252,
        "10701": 69,
        "10702": 67,
        "10703": 111,
        "10704": 108,
        "10705": 158,
        "10706": 16,
        "10707": 44,
        "10708": 252,
        "10709": 201,
        "10710": 234,
        "10711": 223,
        "10712": 12,
        "10713": 145,
        "10714": 104,
        "10715": 116,
        "10716": 141,
        "10717": 25,
        "10718": 102,
        "10719": 254,
        "10720": 156,
        "10721": 34,
        "10722": 187,
        "10723": 217,
        "10724": 74,
        "10725": 174,
        "10726": 241,
        "10727": 54,
        "10728": 204,
        "10729": 180,
        "10730": 213,
        "10731": 111,
        "10732": 89,
        "10733": 242,
        "10734": 7,
        "10735": 23,
        "10736": 120,
        "10737": 26,
        "10738": 218,
        "10739": 10,
        "10740": 95,
        "10741": 226,
        "10742": 36,
        "10743": 74,
        "10744": 135,
        "10745": 175,
        "10746": 153,
        "10747": 213,
        "10748": 137,
        "10749": 255,
        "10750": 152,
        "10751": 219,
        "10752": 43,
        "10753": 188,
        "10754": 220,
        "10755": 213,
        "10756": 102,
        "10757": 230,
        "10758": 13,
        "10759": 217,
        "10760": 75,
        "10761": 250,
        "10762": 23,
        "10763": 175,
        "10764": 212,
        "10765": 206,
        "10766": 236,
        "10767": 149,
        "10768": 50,
        "10769": 26,
        "10770": 207,
        "10771": 59,
        "10772": 99,
        "10773": 173,
        "10774": 75,
        "10775": 240,
        "10776": 73,
        "10777": 55,
        "10778": 137,
        "10779": 76,
        "10780": 192,
        "10781": 104,
        "10782": 188,
        "10783": 45,
        "10784": 214,
        "10785": 168,
        "10786": 194,
        "10787": 78,
        "10788": 160,
        "10789": 46,
        "10790": 63,
        "10791": 146,
        "10792": 82,
        "10793": 122,
        "10794": 130,
        "10795": 120,
        "10796": 169,
        "10797": 149,
        "10798": 157,
        "10799": 207,
        "10800": 62,
        "10801": 85,
        "10802": 29,
        "10803": 169,
        "10804": 245,
        "10805": 4,
        "10806": 173,
        "10807": 134,
        "10808": 178,
        "10809": 55,
        "10810": 221,
        "10811": 222,
        "10812": 76,
        "10813": 96,
        "10814": 185,
        "10815": 174,
        "10816": 116,
        "10817": 109,
        "10818": 244,
        "10819": 143,
        "10820": 22,
        "10821": 195,
        "10822": 172,
        "10823": 181,
        "10824": 77,
        "10825": 254,
        "10826": 89,
        "10827": 222,
        "10828": 90,
        "10829": 233,
        "10830": 107,
        "10831": 235,
        "10832": 197,
        "10833": 171,
        "10834": 43,
        "10835": 200,
        "10836": 4,
        "10837": 152,
        "10838": 109,
        "10839": 159,
        "10840": 104,
        "10841": 155,
        "10842": 191,
        "10843": 232,
        "10844": 131,
        "10845": 159,
        "10846": 116,
        "10847": 123,
        "10848": 146,
        "10849": 90,
        "10850": 195,
        "10851": 43,
        "10852": 216,
        "10853": 4,
        "10854": 255,
        "10855": 96,
        "10856": 169,
        "10857": 235,
        "10858": 159,
        "10859": 58,
        "10860": 111,
        "10861": 102,
        "10862": 218,
        "10863": 150,
        "10864": 109,
        "10865": 160,
        "10866": 170,
        "10867": 185,
        "10868": 142,
        "10869": 223,
        "10870": 166,
        "10871": 43,
        "10872": 245,
        "10873": 6,
        "10874": 91,
        "10875": 39,
        "10876": 133,
        "10877": 43,
        "10878": 52,
        "10879": 100,
        "10880": 219,
        "10881": 113,
        "10882": 202,
        "10883": 27,
        "10884": 233,
        "10885": 38,
        "10886": 192,
        "10887": 35,
        "10888": 175,
        "10889": 57,
        "10890": 38,
        "10891": 2,
        "10892": 114,
        "10893": 19,
        "10894": 255,
        "10895": 33,
        "10896": 37,
        "10897": 162,
        "10898": 128,
        "10899": 12,
        "10900": 95,
        "10901": 142,
        "10902": 62,
        "10903": 163,
        "10904": 246,
        "10905": 174,
        "10906": 234,
        "10907": 222,
        "10908": 216,
        "10909": 73,
        "10910": 67,
        "10911": 242,
        "10912": 139,
        "10913": 131,
        "10914": 91,
        "10915": 123,
        "10916": 222,
        "10917": 56,
        "10918": 133,
        "10919": 196,
        "10920": 215,
        "10921": 18,
        "10922": 201,
        "10923": 74,
        "10924": 79,
        "10925": 109,
        "10926": 141,
        "10927": 51,
        "10928": 130,
        "10929": 121,
        "10930": 209,
        "10931": 86,
        "10932": 124,
        "10933": 225,
        "10934": 73,
        "10935": 27,
        "10936": 33,
        "10937": 70,
        "10938": 24,
        "10939": 81,
        "10940": 17,
        "10941": 156,
        "10942": 255,
        "10943": 222,
        "10944": 74,
        "10945": 199,
        "10946": 60,
        "10947": 114,
        "10948": 2,
        "10949": 178,
        "10950": 81,
        "10951": 223,
        "10952": 183,
        "10953": 1,
        "10954": 57,
        "10955": 139,
        "10956": 209,
        "10957": 247,
        "10958": 75,
        "10959": 152,
        "10960": 50,
        "10961": 175,
        "10962": 40,
        "10963": 125,
        "10964": 254,
        "10965": 74,
        "10966": 172,
        "10967": 42,
        "10968": 211,
        "10969": 189,
        "10970": 178,
        "10971": 156,
        "10972": 62,
        "10973": 98,
        "10974": 100,
        "10975": 102,
        "10976": 167,
        "10977": 251,
        "10978": 49,
        "10979": 232,
        "10980": 178,
        "10981": 89,
        "10982": 112,
        "10983": 156,
        "10984": 219,
        "10985": 29,
        "10986": 77,
        "10987": 125,
        "10988": 145,
        "10989": 152,
        "10990": 139,
        "10991": 227,
        "10992": 146,
        "10993": 195,
        "10994": 122,
        "10995": 253,
        "10996": 254,
        "10997": 181,
        "10998": 121,
        "10999": 5,
        "11000": 224,
        "11001": 131,
        "11002": 214,
        "11003": 159,
        "11004": 205,
        "11005": 29,
        "11006": 136,
        "11007": 236,
        "11008": 185,
        "11009": 72,
        "11010": 188,
        "11011": 64,
        "11012": 18,
        "11013": 19,
        "11014": 57,
        "11015": 238,
        "11016": 57,
        "11017": 31,
        "11018": 131,
        "11019": 145,
        "11020": 166,
        "11021": 29,
        "11022": 70,
        "11023": 198,
        "11024": 69,
        "11025": 180,
        "11026": 33,
        "11027": 176,
        "11028": 151,
        "11029": 92,
        "11030": 161,
        "11031": 94,
        "11032": 150,
        "11033": 120,
        "11034": 7,
        "11035": 0,
        "11036": 149,
        "11037": 247,
        "11038": 174,
        "11039": 1,
        "11040": 191,
        "11041": 218,
        "11042": 252,
        "11043": 253,
        "11044": 122,
        "11045": 216,
        "11046": 190,
        "11047": 161,
        "11048": 20,
        "11049": 39,
        "11050": 198,
        "11051": 79,
        "11052": 8,
        "11053": 176,
        "11054": 103,
        "11055": 146,
        "11056": 142,
        "11057": 44,
        "11058": 181,
        "11059": 196,
        "11060": 200,
        "11061": 11,
        "11062": 22,
        "11063": 110,
        "11064": 212,
        "11065": 125,
        "11066": 74,
        "11067": 190,
        "11068": 207,
        "11069": 27,
        "11070": 32,
        "11071": 93,
        "11072": 178,
        "11073": 147,
        "11074": 80,
        "11075": 8,
        "11076": 68,
        "11077": 248,
        "11078": 111,
        "11079": 237,
        "11080": 81,
        "11081": 2,
        "11082": 247,
        "11083": 146,
        "11084": 108,
        "11085": 173,
        "11086": 150,
        "11087": 102,
        "11088": 212,
        "11089": 64,
        "11090": 136,
        "11091": 52,
        "11092": 57,
        "11093": 200,
        "11094": 70,
        "11095": 190,
        "11096": 107,
        "11097": 92,
        "11098": 79,
        "11099": 247,
        "11100": 161,
        "11101": 155,
        "11102": 141,
        "11103": 8,
        "11104": 39,
        "11105": 107,
        "11106": 91,
        "11107": 157,
        "11108": 39,
        "11109": 227,
        "11110": 10,
        "11111": 64,
        "11112": 220,
        "11113": 234,
        "11114": 7,
        "11115": 126,
        "11116": 209,
        "11117": 112,
        "11118": 73,
        "11119": 27,
        "11120": 149,
        "11121": 217,
        "11122": 52,
        "11123": 140,
        "11124": 252,
        "11125": 17,
        "11126": 252,
        "11127": 162,
        "11128": 107,
        "11129": 236,
        "11130": 244,
        "11131": 231,
        "11132": 170,
        "11133": 33,
        "11134": 255,
        "11135": 96,
        "11136": 95,
        "11137": 98,
        "11138": 212,
        "11139": 53,
        "11140": 241,
        "11141": 168,
        "11142": 204,
        "11143": 9,
        "11144": 120,
        "11145": 232,
        "11146": 98,
        "11147": 162,
        "11148": 26,
        "11149": 153,
        "11150": 253,
        "11151": 228,
        "11152": 30,
        "11153": 109,
        "11154": 50,
        "11155": 185,
        "11156": 109,
        "11157": 159,
        "11158": 96,
        "11159": 121,
        "11160": 56,
        "11161": 89,
        "11162": 91,
        "11163": 42,
        "11164": 173,
        "11165": 158,
        "11166": 55,
        "11167": 7,
        "11168": 73,
        "11169": 5,
        "11170": 247,
        "11171": 159,
        "11172": 95,
        "11173": 128,
        "11174": 107,
        "11175": 60,
        "11176": 16,
        "11177": 61,
        "11178": 153,
        "11179": 236,
        "11180": 237,
        "11181": 158,
        "11182": 237,
        "11183": 24,
        "11184": 98,
        "11185": 221,
        "11186": 174,
        "11187": 244,
        "11188": 28,
        "11189": 130,
        "11190": 116,
        "11191": 102,
        "11192": 37,
        "11193": 49,
        "11194": 231,
        "11195": 176,
        "11196": 83,
        "11197": 205,
        "11198": 166,
        "11199": 216,
        "11200": 140,
        "11201": 210,
        "11202": 90,
        "11203": 234,
        "11204": 208,
        "11205": 111,
        "11206": 176,
        "11207": 190,
        "11208": 156,
        "11209": 108,
        "11210": 120,
        "11211": 236,
        "11212": 152,
        "11213": 132,
        "11214": 40,
        "11215": 141,
        "11216": 81,
        "11217": 154,
        "11218": 74,
        "11219": 89,
        "11220": 241,
        "11221": 223,
        "11222": 189,
        "11223": 181,
        "11224": 160,
        "11225": 76,
        "11226": 219,
        "11227": 11,
        "11228": 120,
        "11229": 34,
        "11230": 118,
        "11231": 205,
        "11232": 160,
        "11233": 27,
        "11234": 180,
        "11235": 43,
        "11236": 232,
        "11237": 153,
        "11238": 110,
        "11239": 53,
        "11240": 130,
        "11241": 5,
        "11242": 36,
        "11243": 130,
        "11244": 219,
        "11245": 87,
        "11246": 69,
        "11247": 225,
        "11248": 25,
        "11249": 184,
        "11250": 235,
        "11251": 27,
        "11252": 91,
        "11253": 122,
        "11254": 71,
        "11255": 36,
        "11256": 156,
        "11257": 5,
        "11258": 14,
        "11259": 202,
        "11260": 200,
        "11261": 38,
        "11262": 228,
        "11263": 81,
        "11264": 116,
        "11265": 32,
        "11266": 215,
        "11267": 135,
        "11268": 12,
        "11269": 234,
        "11270": 65,
        "11271": 140,
        "11272": 173,
        "11273": 26,
        "11274": 119,
        "11275": 199,
        "11276": 113,
        "11277": 157,
        "11278": 228,
        "11279": 82,
        "11280": 217,
        "11281": 133,
        "11282": 152,
        "11283": 121,
        "11284": 146,
        "11285": 147,
        "11286": 36,
        "11287": 133,
        "11288": 136,
        "11289": 112,
        "11290": 252,
        "11291": 243,
        "11292": 44,
        "11293": 190,
        "11294": 121,
        "11295": 205,
        "11296": 197,
        "11297": 214,
        "11298": 162,
        "11299": 175,
        "11300": 234,
        "11301": 229,
        "11302": 142,
        "11303": 23,
        "11304": 112,
        "11305": 54,
        "11306": 61,
        "11307": 228,
        "11308": 71,
        "11309": 23,
        "11310": 198,
        "11311": 215,
        "11312": 160,
        "11313": 216,
        "11314": 13,
        "11315": 245,
        "11316": 95,
        "11317": 227,
        "11318": 111,
        "11319": 81,
        "11320": 148,
        "11321": 240,
        "11322": 247,
        "11323": 248,
        "11324": 206,
        "11325": 49,
        "11326": 144,
        "11327": 148,
        "11328": 106,
        "11329": 234,
        "11330": 137,
        "11331": 244,
        "11332": 106,
        "11333": 115,
        "11334": 244,
        "11335": 78,
        "11336": 222,
        "11337": 154,
        "11338": 205,
        "11339": 48,
        "11340": 76,
        "11341": 125,
        "11342": 166,
        "11343": 225,
        "11344": 122,
        "11345": 122,
        "11346": 28,
        "11347": 236,
        "11348": 55,
        "11349": 134,
        "11350": 224,
        "11351": 47,
        "11352": 206,
        "11353": 144,
        "11354": 203,
        "11355": 96,
        "11356": 170,
        "11357": 133,
        "11358": 60,
        "11359": 160,
        "11360": 90,
        "11361": 167,
        "11362": 195,
        "11363": 59,
        "11364": 253,
        "11365": 149,
        "11366": 137,
        "11367": 83,
        "11368": 212,
        "11369": 148,
        "11370": 47,
        "11371": 97,
        "11372": 154,
        "11373": 66,
        "11374": 119,
        "11375": 23,
        "11376": 143,
        "11377": 54,
        "11378": 109,
        "11379": 21,
        "11380": 94,
        "11381": 144,
        "11382": 231,
        "11383": 251,
        "11384": 123,
        "11385": 146,
        "11386": 8,
        "11387": 17,
        "11388": 11,
        "11389": 56,
        "11390": 152,
        "11391": 97,
        "11392": 121,
        "11393": 122,
        "11394": 61,
        "11395": 9,
        "11396": 115,
        "11397": 66,
        "11398": 45,
        "11399": 85,
        "11400": 73,
        "11401": 30,
        "11402": 76,
        "11403": 165,
        "11404": 189,
        "11405": 114,
        "11406": 73,
        "11407": 133,
        "11408": 159,
        "11409": 205,
        "11410": 157,
        "11411": 237,
        "11412": 160,
        "11413": 134,
        "11414": 175,
        "11415": 39,
        "11416": 89,
        "11417": 235,
        "11418": 241,
        "11419": 11,
        "11420": 244,
        "11421": 166,
        "11422": 132,
        "11423": 54,
        "11424": 162,
        "11425": 212,
        "11426": 91,
        "11427": 52,
        "11428": 35,
        "11429": 208,
        "11430": 135,
        "11431": 99,
        "11432": 171,
        "11433": 7,
        "11434": 235,
        "11435": 87,
        "11436": 178,
        "11437": 109,
        "11438": 203,
        "11439": 213,
        "11440": 102,
        "11441": 197,
        "11442": 130,
        "11443": 215,
        "11444": 17,
        "11445": 57,
        "11446": 46,
        "11447": 132,
        "11448": 96,
        "11449": 46,
        "11450": 154,
        "11451": 54,
        "11452": 78,
        "11453": 196,
        "11454": 164,
        "11455": 24,
        "11456": 55,
        "11457": 9,
        "11458": 207,
        "11459": 104,
        "11460": 131,
        "11461": 153,
        "11462": 248,
        "11463": 31,
        "11464": 76,
        "11465": 142,
        "11466": 247,
        "11467": 80,
        "11468": 43,
        "11469": 168,
        "11470": 218,
        "11471": 217,
        "11472": 98,
        "11473": 207,
        "11474": 140,
        "11475": 195,
        "11476": 178,
        "11477": 37,
        "11478": 15,
        "11479": 237,
        "11480": 146,
        "11481": 164,
        "11482": 153,
        "11483": 22,
        "11484": 5,
        "11485": 11,
        "11486": 239,
        "11487": 10,
        "11488": 137,
        "11489": 191,
        "11490": 243,
        "11491": 24,
        "11492": 39,
        "11493": 142,
        "11494": 72,
        "11495": 186,
        "11496": 202,
        "11497": 1,
        "11498": 158,
        "11499": 128,
        "11500": 226,
        "11501": 138,
        "11502": 142,
        "11503": 10,
        "11504": 92,
        "11505": 33,
        "11506": 222,
        "11507": 201,
        "11508": 210,
        "11509": 229,
        "11510": 113,
        "11511": 174,
        "11512": 248,
        "11513": 104,
        "11514": 141,
        "11515": 24,
        "11516": 133,
        "11517": 53,
        "11518": 232,
        "11519": 145,
        "11520": 101,
        "11521": 127,
        "11522": 120,
        "11523": 5,
        "11524": 91,
        "11525": 66,
        "11526": 10,
        "11527": 121,
        "11528": 188,
        "11529": 120,
        "11530": 209,
        "11531": 53,
        "11532": 84,
        "11533": 164,
        "11534": 196,
        "11535": 93,
        "11536": 11,
        "11537": 60,
        "11538": 237,
        "11539": 24,
        "11540": 26,
        "11541": 29,
        "11542": 230,
        "11543": 176,
        "11544": 162,
        "11545": 99,
        "11546": 88,
        "11547": 188,
        "11548": 71,
        "11549": 135,
        "11550": 204,
        "11551": 241,
        "11552": 183,
        "11553": 107,
        "11554": 248,
        "11555": 223,
        "11556": 175,
        "11557": 170,
        "11558": 2,
        "11559": 226,
        "11560": 204,
        "11561": 27,
        "11562": 55,
        "11563": 144,
        "11564": 37,
        "11565": 204,
        "11566": 190,
        "11567": 103,
        "11568": 1,
        "11569": 149,
        "11570": 92,
        "11571": 233,
        "11572": 30,
        "11573": 57,
        "11574": 86,
        "11575": 101,
        "11576": 143,
        "11577": 102,
        "11578": 255,
        "11579": 244,
        "11580": 194,
        "11581": 56,
        "11582": 58,
        "11583": 152,
        "11584": 181,
        "11585": 35,
        "11586": 71,
        "11587": 139,
        "11588": 177,
        "11589": 152,
        "11590": 173,
        "11591": 214,
        "11592": 35,
        "11593": 164,
        "11594": 68,
        "11595": 255,
        "11596": 183,
        "11597": 0,
        "11598": 3,
        "11599": 147,
        "11600": 222,
        "11601": 130,
        "11602": 42,
        "11603": 229,
        "11604": 135,
        "11605": 126,
        "11606": 192,
        "11607": 239,
        "11608": 176,
        "11609": 121,
        "11610": 25,
        "11611": 202,
        "11612": 74,
        "11613": 17,
        "11614": 72,
        "11615": 55,
        "11616": 17,
        "11617": 174,
        "11618": 2,
        "11619": 19,
        "11620": 205,
        "11621": 154,
        "11622": 210,
        "11623": 94,
        "11624": 237,
        "11625": 152,
        "11626": 31,
        "11627": 29,
        "11628": 131,
        "11629": 210,
        "11630": 55,
        "11631": 130,
        "11632": 225,
        "11633": 159,
        "11634": 242,
        "11635": 163,
        "11636": 58,
        "11637": 47,
        "11638": 34,
        "11639": 201,
        "11640": 223,
        "11641": 91,
        "11642": 90,
        "11643": 33,
        "11644": 193,
        "11645": 131,
        "11646": 246,
        "11647": 31,
        "11648": 9,
        "11649": 213,
        "11650": 213,
        "11651": 208,
        "11652": 110,
        "11653": 179,
        "11654": 19,
        "11655": 97,
        "11656": 226,
        "11657": 157,
        "11658": 134,
        "11659": 169,
        "11660": 71,
        "11661": 197,
        "11662": 179,
        "11663": 18,
        "11664": 193,
        "11665": 13,
        "11666": 237,
        "11667": 103,
        "11668": 234,
        "11669": 44,
        "11670": 132,
        "11671": 125,
        "11672": 33,
        "11673": 204,
        "11674": 115,
        "11675": 141,
        "11676": 89,
        "11677": 138,
        "11678": 223,
        "11679": 52,
        "11680": 185,
        "11681": 60,
        "11682": 40,
        "11683": 148,
        "11684": 180,
        "11685": 11,
        "11686": 122,
        "11687": 167,
        "11688": 4,
        "11689": 192,
        "11690": 102,
        "11691": 42,
        "11692": 68,
        "11693": 125,
        "11694": 83,
        "11695": 116,
        "11696": 152,
        "11697": 104,
        "11698": 136,
        "11699": 222,
        "11700": 77,
        "11701": 207,
        "11702": 178,
        "11703": 68,
        "11704": 65,
        "11705": 9,
        "11706": 21,
        "11707": 62,
        "11708": 203,
        "11709": 244,
        "11710": 164,
        "11711": 58,
        "11712": 230,
        "11713": 135,
        "11714": 26,
        "11715": 152,
        "11716": 54,
        "11717": 63,
        "11718": 51,
        "11719": 45,
        "11720": 196,
        "11721": 250,
        "11722": 150,
        "11723": 202,
        "11724": 96,
        "11725": 238,
        "11726": 202,
        "11727": 114,
        "11728": 215,
        "11729": 67,
        "11730": 90,
        "11731": 116,
        "11732": 181,
        "11733": 160,
        "11734": 198,
        "11735": 48,
        "11736": 45,
        "11737": 236,
        "11738": 36,
        "11739": 142,
        "11740": 24,
        "11741": 114,
        "11742": 73,
        "11743": 40,
        "11744": 47,
        "11745": 19,
        "11746": 72,
        "11747": 175,
        "11748": 150,
        "11749": 218,
        "11750": 215,
        "11751": 149,
        "11752": 0,
        "11753": 156,
        "11754": 44,
        "11755": 66,
        "11756": 140,
        "11757": 129,
        "11758": 208,
        "11759": 203,
        "11760": 55,
        "11761": 211,
        "11762": 95,
        "11763": 17,
        "11764": 74,
        "11765": 246,
        "11766": 226,
        "11767": 77,
        "11768": 119,
        "11769": 74,
        "11770": 54,
        "11771": 177,
        "11772": 139,
        "11773": 138,
        "11774": 154,
        "11775": 161,
        "11776": 185,
        "11777": 218,
        "11778": 237,
        "11779": 216,
        "11780": 233,
        "11781": 37,
        "11782": 228,
        "11783": 204,
        "11784": 211,
        "11785": 196,
        "11786": 195,
        "11787": 36,
        "11788": 233,
        "11789": 173,
        "11790": 249,
        "11791": 210,
        "11792": 85,
        "11793": 231,
        "11794": 101,
        "11795": 17,
        "11796": 173,
        "11797": 254,
        "11798": 155,
        "11799": 18,
        "11800": 168,
        "11801": 84,
        "11802": 20,
        "11803": 118,
        "11804": 173,
        "11805": 93,
        "11806": 212,
        "11807": 120,
        "11808": 169,
        "11809": 48,
        "11810": 24,
        "11811": 197,
        "11812": 122,
        "11813": 53,
        "11814": 254,
        "11815": 210,
        "11816": 89,
        "11817": 111,
        "11818": 23,
        "11819": 209,
        "11820": 44,
        "11821": 109,
        "11822": 231,
        "11823": 5,
        "11824": 1,
        "11825": 234,
        "11826": 133,
        "11827": 79,
        "11828": 122,
        "11829": 52,
        "11830": 128,
        "11831": 92,
        "11832": 47,
        "11833": 5,
        "11834": 112,
        "11835": 235,
        "11836": 141,
        "11837": 102,
        "11838": 127,
        "11839": 9,
        "11840": 194,
        "11841": 99,
        "11842": 204,
        "11843": 26,
        "11844": 250,
        "11845": 107,
        "11846": 211,
        "11847": 239,
        "11848": 165,
        "11849": 112,
        "11850": 27,
        "11851": 212,
        "11852": 233,
        "11853": 150,
        "11854": 135,
        "11855": 178,
        "11856": 221,
        "11857": 179,
        "11858": 55,
        "11859": 163,
        "11860": 42,
        "11861": 255,
        "11862": 192,
        "11863": 97,
        "11864": 17,
        "11865": 20,
        "11866": 214,
        "11867": 200,
        "11868": 231,
        "11869": 24,
        "11870": 70,
        "11871": 103,
        "11872": 212,
        "11873": 177,
        "11874": 233,
        "11875": 25,
        "11876": 31,
        "11877": 250,
        "11878": 135,
        "11879": 229,
        "11880": 81,
        "11881": 129,
        "11882": 179,
        "11883": 253,
        "11884": 115,
        "11885": 226,
        "11886": 232,
        "11887": 31,
        "11888": 144,
        "11889": 45,
        "11890": 190,
        "11891": 197,
        "11892": 11,
        "11893": 78,
        "11894": 13,
        "11895": 165,
        "11896": 28,
        "11897": 18,
        "11898": 225,
        "11899": 243,
        "11900": 43,
        "11901": 26,
        "11902": 236,
        "11903": 245,
        "11904": 241,
        "11905": 140,
        "11906": 182,
        "11907": 195,
        "11908": 158,
        "11909": 89,
        "11910": 132,
        "11911": 179,
        "11912": 64,
        "11913": 150,
        "11914": 225,
        "11915": 150,
        "11916": 10,
        "11917": 192,
        "11918": 45,
        "11919": 95,
        "11920": 105,
        "11921": 157,
        "11922": 120,
        "11923": 25,
        "11924": 243,
        "11925": 35,
        "11926": 58,
        "11927": 91,
        "11928": 199,
        "11929": 230,
        "11930": 37,
        "11931": 228,
        "11932": 146,
        "11933": 90,
        "11934": 87,
        "11935": 155,
        "11936": 81,
        "11937": 129,
        "11938": 189,
        "11939": 12,
        "11940": 238,
        "11941": 159,
        "11942": 80,
        "11943": 230,
        "11944": 122,
        "11945": 193,
        "11946": 108,
        "11947": 223,
        "11948": 134,
        "11949": 49,
        "11950": 165,
        "11951": 200,
        "11952": 150,
        "11953": 96,
        "11954": 167,
        "11955": 76,
        "11956": 58,
        "11957": 83,
        "11958": 222,
        "11959": 216,
        "11960": 8,
        "11961": 113,
        "11962": 56,
        "11963": 0,
        "11964": 80,
        "11965": 115,
        "11966": 248,
        "11967": 59,
        "11968": 90,
        "11969": 136,
        "11970": 38,
        "11971": 15,
        "11972": 219,
        "11973": 107,
        "11974": 150,
        "11975": 94,
        "11976": 72,
        "11977": 100,
        "11978": 72,
        "11979": 249,
        "11980": 73,
        "11981": 50,
        "11982": 214,
        "11983": 98,
        "11984": 76,
        "11985": 239,
        "11986": 147,
        "11987": 150,
        "11988": 82,
        "11989": 162,
        "11990": 99,
        "11991": 174,
        "11992": 124,
        "11993": 30,
        "11994": 130,
        "11995": 11,
        "11996": 96,
        "11997": 120,
        "11998": 230,
        "11999": 186,
        "12000": 111,
        "12001": 61,
        "12002": 78,
        "12003": 8,
        "12004": 244,
        "12005": 155,
        "12006": 171,
        "12007": 180,
        "12008": 54,
        "12009": 172,
        "12010": 199,
        "12011": 253,
        "12012": 96,
        "12013": 74,
        "12014": 222,
        "12015": 225,
        "12016": 79,
        "12017": 157,
        "12018": 199,
        "12019": 18,
        "12020": 67,
        "12021": 230,
        "12022": 46,
        "12023": 18,
        "12024": 35,
        "12025": 24,
        "12026": 119,
        "12027": 110,
        "12028": 252,
        "12029": 117,
        "12030": 77,
        "12031": 61,
        "12032": 222,
        "12033": 177,
        "12034": 237,
        "12035": 104,
        "12036": 224,
        "12037": 26,
        "12038": 53,
        "12039": 244,
        "12040": 174,
        "12041": 122,
        "12042": 1,
        "12043": 242,
        "12044": 207,
        "12045": 182,
        "12046": 161,
        "12047": 43,
        "12048": 12,
        "12049": 132,
        "12050": 148,
        "12051": 239,
        "12052": 49,
        "12053": 236,
        "12054": 39,
        "12055": 115,
        "12056": 127,
        "12057": 252,
        "12058": 105,
        "12059": 7,
        "12060": 218,
        "12061": 104,
        "12062": 123,
        "12063": 133,
        "12064": 141,
        "12065": 180,
        "12066": 112,
        "12067": 62,
        "12068": 230,
        "12069": 245,
        "12070": 16,
        "12071": 208,
        "12072": 95,
        "12073": 224,
        "12074": 118,
        "12075": 87,
        "12076": 213,
        "12077": 29,
        "12078": 10,
        "12079": 165,
        "12080": 65,
        "12081": 126,
        "12082": 181,
        "12083": 47,
        "12084": 172,
        "12085": 177,
        "12086": 234,
        "12087": 153,
        "12088": 47,
        "12089": 49,
        "12090": 13,
        "12091": 111,
        "12092": 139,
        "12093": 252,
        "12094": 171,
        "12095": 254,
        "12096": 95,
        "12097": 141,
        "12098": 176,
        "12099": 221,
        "12100": 17,
        "12101": 139,
        "12102": 97,
        "12103": 174,
        "12104": 61,
        "12105": 189,
        "12106": 170,
        "12107": 217,
        "12108": 81,
        "12109": 58,
        "12110": 81,
        "12111": 208,
        "12112": 209,
        "12113": 167,
        "12114": 208,
        "12115": 81,
        "12116": 9,
        "12117": 245,
        "12118": 171,
        "12119": 55,
        "12120": 200,
        "12121": 155,
        "12122": 65,
        "12123": 45,
        "12124": 90,
        "12125": 129,
        "12126": 13,
        "12127": 28,
        "12128": 191,
        "12129": 167,
        "12130": 245,
        "12131": 114,
        "12132": 11,
        "12133": 12,
        "12134": 238,
        "12135": 143,
        "12136": 211,
        "12137": 95,
        "12138": 94,
        "12139": 99,
        "12140": 208,
        "12141": 218,
        "12142": 2,
        "12143": 180,
        "12144": 14,
        "12145": 219,
        "12146": 190,
        "12147": 200,
        "12148": 151,
        "12149": 8,
        "12150": 168,
        "12151": 17,
        "12152": 70,
        "12153": 162,
        "12154": 102,
        "12155": 243,
        "12156": 19,
        "12157": 159,
        "12158": 232,
        "12159": 11,
        "12160": 59,
        "12161": 154,
        "12162": 124,
        "12163": 211,
        "12164": 66,
        "12165": 92,
        "12166": 252,
        "12167": 12,
        "12168": 247,
        "12169": 23,
        "12170": 126,
        "12171": 250,
        "12172": 193,
        "12173": 113,
        "12174": 72,
        "12175": 79,
        "12176": 69,
        "12177": 247,
        "12178": 198,
        "12179": 243,
        "12180": 203,
        "12181": 168,
        "12182": 61,
        "12183": 179,
        "12184": 125,
        "12185": 186,
        "12186": 89,
        "12187": 58,
        "12188": 209,
        "12189": 99,
        "12190": 194,
        "12191": 171,
        "12192": 59,
        "12193": 165,
        "12194": 91,
        "12195": 4,
        "12196": 210,
        "12197": 198,
        "12198": 97,
        "12199": 248,
        "12200": 190,
        "12201": 171,
        "12202": 91,
        "12203": 54,
        "12204": 3,
        "12205": 105,
        "12206": 213,
        "12207": 241,
        "12208": 99,
        "12209": 229,
        "12210": 239,
        "12211": 55,
        "12212": 71,
        "12213": 222,
        "12214": 189,
        "12215": 140,
        "12216": 107,
        "12217": 41,
        "12218": 170,
        "12219": 190,
        "12220": 81,
        "12221": 46,
        "12222": 44,
        "12223": 30,
        "12224": 79,
        "12225": 196,
        "12226": 224,
        "12227": 55,
        "12228": 205,
        "12229": 33,
        "12230": 48,
        "12231": 136,
        "12232": 245,
        "12233": 40,
        "12234": 148,
        "12235": 113,
        "12236": 116,
        "12237": 150,
        "12238": 148,
        "12239": 4,
        "12240": 5,
        "12241": 84,
        "12242": 174,
        "12243": 28,
        "12244": 40,
        "12245": 24,
        "12246": 128,
        "12247": 51,
        "12248": 180,
        "12249": 155,
        "12250": 172,
        "12251": 33,
        "12252": 154,
        "12253": 226,
        "12254": 243,
        "12255": 7,
        "12256": 107,
        "12257": 183,
        "12258": 28,
        "12259": 229,
        "12260": 125,
        "12261": 213,
        "12262": 9,
        "12263": 12,
        "12264": 187,
        "12265": 253,
        "12266": 85,
        "12267": 199,
        "12268": 24,
        "12269": 59,
        "12270": 43,
        "12271": 44,
        "12272": 112,
        "12273": 2,
        "12274": 178,
        "12275": 209,
        "12276": 45,
        "12277": 139,
        "12278": 170,
        "12279": 89,
        "12280": 205,
        "12281": 14,
        "12282": 49,
        "12283": 88,
        "12284": 93,
        "12285": 213,
        "12286": 109,
        "12287": 81,
        "12288": 23,
        "12289": 25,
        "12290": 46,
        "12291": 167,
        "12292": 118,
        "12293": 7,
        "12294": 148,
        "12295": 19,
        "12296": 90,
        "12297": 187,
        "12298": 231,
        "12299": 74,
        "12300": 222,
        "12301": 110,
        "12302": 234,
        "12303": 49,
        "12304": 106,
        "12305": 208,
        "12306": 51,
        "12307": 34,
        "12308": 215,
        "12309": 34,
        "12310": 219,
        "12311": 46,
        "12312": 40,
        "12313": 97,
        "12314": 102,
        "12315": 80,
        "12316": 101,
        "12317": 202,
        "12318": 31,
        "12319": 19,
        "12320": 74,
        "12321": 124,
        "12322": 245,
        "12323": 150,
        "12324": 249,
        "12325": 252,
        "12326": 45,
        "12327": 226,
        "12328": 136,
        "12329": 174,
        "12330": 166,
        "12331": 75,
        "12332": 48,
        "12333": 75,
        "12334": 118,
        "12335": 39,
        "12336": 85,
        "12337": 51,
        "12338": 177,
        "12339": 189,
        "12340": 228,
        "12341": 225,
        "12342": 151,
        "12343": 49,
        "12344": 85,
        "12345": 155,
        "12346": 98,
        "12347": 111,
        "12348": 126,
        "12349": 40,
        "12350": 241,
        "12351": 142,
        "12352": 88,
        "12353": 116,
        "12354": 201,
        "12355": 229,
        "12356": 1,
        "12357": 59,
        "12358": 34,
        "12359": 56,
        "12360": 134,
        "12361": 82,
        "12362": 107,
        "12363": 228,
        "12364": 34,
        "12365": 154,
        "12366": 6,
        "12367": 82,
        "12368": 123,
        "12369": 0,
        "12370": 176,
        "12371": 240,
        "12372": 48,
        "12373": 212,
        "12374": 178,
        "12375": 247,
        "12376": 188,
        "12377": 244,
        "12378": 166,
        "12379": 50,
        "12380": 146,
        "12381": 80,
        "12382": 214,
        "12383": 159,
        "12384": 155,
        "12385": 38,
        "12386": 54,
        "12387": 121,
        "12388": 182,
        "12389": 52,
        "12390": 80,
        "12391": 67,
        "12392": 143,
        "12393": 175,
        "12394": 242,
        "12395": 212,
        "12396": 106,
        "12397": 169,
        "12398": 93,
        "12399": 155,
        "12400": 72,
        "12401": 100,
        "12402": 121,
        "12403": 158,
        "12404": 211,
        "12405": 147,
        "12406": 21,
        "12407": 228,
        "12408": 54,
        "12409": 224,
        "12410": 109,
        "12411": 174,
        "12412": 191,
        "12413": 8,
        "12414": 77,
        "12415": 98,
        "12416": 194,
        "12417": 12,
        "12418": 95,
        "12419": 70,
        "12420": 239,
        "12421": 137,
        "12422": 228,
        "12423": 94,
        "12424": 251,
        "12425": 176,
        "12426": 224,
        "12427": 94,
        "12428": 205,
        "12429": 213,
        "12430": 222,
        "12431": 214,
        "12432": 43,
        "12433": 203,
        "12434": 102,
        "12435": 185,
        "12436": 151,
        "12437": 178,
        "12438": 152,
        "12439": 97,
        "12440": 197,
        "12441": 108,
        "12442": 3,
        "12443": 173,
        "12444": 124,
        "12445": 42,
        "12446": 178,
        "12447": 29,
        "12448": 123,
        "12449": 228,
        "12450": 221,
        "12451": 155,
        "12452": 10,
        "12453": 231,
        "12454": 32,
        "12455": 88,
        "12456": 199,
        "12457": 211,
        "12458": 141,
        "12459": 17,
        "12460": 43,
        "12461": 176,
        "12462": 125,
        "12463": 87,
        "12464": 183,
        "12465": 185,
        "12466": 169,
        "12467": 134,
        "12468": 146,
        "12469": 59,
        "12470": 231,
        "12471": 203,
        "12472": 16,
        "12473": 10,
        "12474": 134,
        "12475": 152,
        "12476": 116,
        "12477": 160,
        "12478": 201,
        "12479": 111,
        "12480": 54,
        "12481": 243,
        "12482": 252,
        "12483": 112,
        "12484": 183,
        "12485": 244,
        "12486": 150,
        "12487": 46,
        "12488": 134,
        "12489": 176,
        "12490": 99,
        "12491": 114,
        "12492": 208,
        "12493": 88,
        "12494": 177,
        "12495": 196,
        "12496": 9,
        "12497": 78,
        "12498": 32,
        "12499": 45,
        "12500": 118,
        "12501": 123,
        "12502": 30,
        "12503": 51,
        "12504": 30,
        "12505": 33,
        "12506": 54,
        "12507": 24,
        "12508": 228,
        "12509": 215,
        "12510": 237,
        "12511": 56,
        "12512": 103,
        "12513": 61,
        "12514": 255,
        "12515": 26,
        "12516": 105,
        "12517": 137,
        "12518": 191,
        "12519": 253,
        "12520": 230,
        "12521": 227,
        "12522": 67,
        "12523": 119,
        "12524": 18,
        "12525": 135,
        "12526": 51,
        "12527": 116,
        "12528": 31,
        "12529": 166,
        "12530": 6,
        "12531": 193,
        "12532": 232,
        "12533": 234,
        "12534": 214,
        "12535": 136,
        "12536": 251,
        "12537": 145,
        "12538": 123,
        "12539": 33,
        "12540": 85,
        "12541": 62,
        "12542": 220,
        "12543": 112,
        "12544": 51,
        "12545": 235,
        "12546": 251,
        "12547": 97,
        "12548": 34,
        "12549": 109,
        "12550": 27,
        "12551": 96,
        "12552": 171,
        "12553": 192,
        "12554": 170,
        "12555": 93,
        "12556": 166,
        "12557": 139,
        "12558": 43,
        "12559": 246,
        "12560": 22,
        "12561": 7,
        "12562": 192,
        "12563": 203,
        "12564": 96,
        "12565": 146,
        "12566": 64,
        "12567": 8,
        "12568": 198,
        "12569": 15,
        "12570": 10,
        "12571": 119,
        "12572": 51,
        "12573": 85,
        "12574": 4,
        "12575": 225,
        "12576": 68,
        "12577": 187,
        "12578": 79,
        "12579": 48,
        "12580": 64,
        "12581": 46,
        "12582": 231,
        "12583": 81,
        "12584": 233,
        "12585": 213,
        "12586": 147,
        "12587": 145,
        "12588": 81,
        "12589": 130,
        "12590": 136,
        "12591": 51,
        "12592": 95,
        "12593": 148,
        "12594": 238,
        "12595": 45,
        "12596": 206,
        "12597": 175,
        "12598": 89,
        "12599": 177,
        "12600": 174,
        "12601": 163,
        "12602": 189,
        "12603": 51,
        "12604": 211,
        "12605": 148,
        "12606": 204,
        "12607": 229,
        "12608": 123,
        "12609": 44,
        "12610": 251,
        "12611": 137,
        "12612": 99,
        "12613": 221,
        "12614": 141,
        "12615": 226,
        "12616": 179,
        "12617": 161,
        "12618": 79,
        "12619": 148,
        "12620": 159,
        "12621": 33,
        "12622": 250,
        "12623": 130,
        "12624": 191,
        "12625": 243,
        "12626": 194,
        "12627": 199,
        "12628": 120,
        "12629": 202,
        "12630": 238,
        "12631": 241,
        "12632": 185,
        "12633": 32,
        "12634": 222,
        "12635": 195,
        "12636": 175,
        "12637": 31,
        "12638": 174,
        "12639": 87,
        "12640": 31,
        "12641": 58,
        "12642": 214,
        "12643": 242,
        "12644": 29,
        "12645": 234,
        "12646": 58,
        "12647": 180,
        "12648": 36,
        "12649": 137,
        "12650": 127,
        "12651": 99,
        "12652": 81,
        "12653": 237,
        "12654": 195,
        "12655": 146,
        "12656": 168,
        "12657": 128,
        "12658": 229,
        "12659": 105,
        "12660": 38,
        "12661": 182,
        "12662": 157,
        "12663": 77,
        "12664": 140,
        "12665": 219,
        "12666": 186,
        "12667": 11,
        "12668": 23,
        "12669": 71,
        "12670": 65,
        "12671": 48,
        "12672": 105,
        "12673": 41,
        "12674": 143,
        "12675": 27,
        "12676": 67,
        "12677": 101,
        "12678": 190,
        "12679": 2,
        "12680": 197,
        "12681": 43,
        "12682": 120,
        "12683": 221,
        "12684": 192,
        "12685": 1,
        "12686": 21,
        "12687": 228,
        "12688": 9,
        "12689": 209,
        "12690": 219,
        "12691": 128,
        "12692": 212,
        "12693": 251,
        "12694": 57,
        "12695": 244,
        "12696": 192,
        "12697": 250,
        "12698": 222,
        "12699": 175,
        "12700": 73,
        "12701": 28,
        "12702": 157,
        "12703": 215,
        "12704": 175,
        "12705": 68,
        "12706": 84,
        "12707": 14,
        "12708": 140,
        "12709": 78,
        "12710": 174,
        "12711": 159,
        "12712": 4,
        "12713": 195,
        "12714": 225,
        "12715": 220,
        "12716": 224,
        "12717": 152,
        "12718": 8,
        "12719": 39,
        "12720": 250,
        "12721": 159,
        "12722": 91,
        "12723": 123,
        "12724": 244,
        "12725": 49,
        "12726": 89,
        "12727": 215,
        "12728": 175,
        "12729": 140,
        "12730": 210,
        "12731": 226,
        "12732": 171,
        "12733": 177,
        "12734": 46,
        "12735": 23,
        "12736": 236,
        "12737": 95,
        "12738": 205,
        "12739": 178,
        "12740": 105,
        "12741": 107,
        "12742": 250,
        "12743": 214,
        "12744": 174,
        "12745": 124,
        "12746": 26,
        "12747": 94,
        "12748": 142,
        "12749": 41,
        "12750": 132,
        "12751": 54,
        "12752": 110,
        "12753": 83,
        "12754": 202,
        "12755": 76,
        "12756": 208,
        "12757": 238,
        "12758": 183,
        "12759": 186,
        "12760": 86,
        "12761": 148,
        "12762": 224,
        "12763": 79,
        "12764": 190,
        "12765": 28,
        "12766": 147,
        "12767": 12,
        "12768": 67,
        "12769": 103,
        "12770": 234,
        "12771": 245,
        "12772": 215,
        "12773": 216,
        "12774": 54,
        "12775": 10,
        "12776": 215,
        "12777": 230,
        "12778": 121,
        "12779": 156,
        "12780": 67,
        "12781": 207,
        "12782": 153,
        "12783": 217,
        "12784": 211,
        "12785": 62,
        "12786": 247,
        "12787": 81,
        "12788": 226,
        "12789": 80,
        "12790": 221,
        "12791": 58,
        "12792": 151,
        "12793": 132,
        "12794": 16,
        "12795": 212,
        "12796": 52,
        "12797": 33,
        "12798": 10,
        "12799": 87,
        "12800": 57,
        "12801": 158,
        "12802": 15,
        "12803": 17,
        "12804": 177,
        "12805": 200,
        "12806": 197,
        "12807": 238,
        "12808": 63,
        "12809": 72,
        "12810": 63,
        "12811": 79,
        "12812": 167,
        "12813": 173,
        "12814": 199,
        "12815": 90,
        "12816": 76,
        "12817": 208,
        "12818": 59,
        "12819": 204,
        "12820": 64,
        "12821": 219,
        "12822": 33,
        "12823": 118,
        "12824": 156,
        "12825": 13,
        "12826": 1,
        "12827": 117,
        "12828": 87,
        "12829": 165,
        "12830": 218,
        "12831": 191,
        "12832": 253,
        "12833": 13,
        "12834": 28,
        "12835": 253,
        "12836": 94,
        "12837": 214,
        "12838": 85,
        "12839": 115,
        "12840": 23,
        "12841": 23,
        "12842": 232,
        "12843": 225,
        "12844": 248,
        "12845": 156,
        "12846": 117,
        "12847": 55,
        "12848": 59,
        "12849": 159,
        "12850": 137,
        "12851": 82,
        "12852": 118,
        "12853": 102,
        "12854": 128,
        "12855": 140,
        "12856": 1,
        "12857": 13,
        "12858": 245,
        "12859": 190,
        "12860": 39,
        "12861": 165,
        "12862": 172,
        "12863": 67,
        "12864": 217,
        "12865": 233,
        "12866": 200,
        "12867": 148,
        "12868": 79,
        "12869": 226,
        "12870": 84,
        "12871": 170,
        "12872": 243,
        "12873": 97,
        "12874": 50,
        "12875": 55,
        "12876": 240,
        "12877": 225,
        "12878": 158,
        "12879": 27,
        "12880": 200,
        "12881": 197,
        "12882": 211,
        "12883": 132,
        "12884": 78,
        "12885": 194,
        "12886": 90,
        "12887": 152,
        "12888": 43,
        "12889": 236,
        "12890": 147,
        "12891": 208,
        "12892": 187,
        "12893": 81,
        "12894": 167,
        "12895": 125,
        "12896": 174,
        "12897": 105,
        "12898": 237,
        "12899": 186,
        "12900": 112,
        "12901": 32,
        "12902": 139,
        "12903": 98,
        "12904": 100,
        "12905": 35,
        "12906": 247,
        "12907": 73,
        "12908": 153,
        "12909": 189,
        "12910": 109,
        "12911": 249,
        "12912": 46,
        "12913": 42,
        "12914": 154,
        "12915": 132,
        "12916": 110,
        "12917": 63,
        "12918": 91,
        "12919": 156,
        "12920": 173,
        "12921": 217,
        "12922": 247,
        "12923": 43,
        "12924": 72,
        "12925": 156,
        "12926": 68,
        "12927": 154,
        "12928": 2,
        "12929": 18,
        "12930": 246,
        "12931": 5,
        "12932": 131,
        "12933": 144,
        "12934": 224,
        "12935": 11,
        "12936": 196,
        "12937": 233,
        "12938": 9,
        "12939": 152,
        "12940": 181,
        "12941": 20,
        "12942": 21,
        "12943": 230,
        "12944": 55,
        "12945": 134,
        "12946": 149,
        "12947": 49,
        "12948": 68,
        "12949": 253,
        "12950": 177,
        "12951": 186,
        "12952": 100,
        "12953": 127,
        "12954": 11,
        "12955": 153,
        "12956": 55,
        "12957": 76,
        "12958": 209,
        "12959": 132,
        "12960": 148,
        "12961": 133,
        "12962": 229,
        "12963": 251,
        "12964": 109,
        "12965": 9,
        "12966": 163,
        "12967": 223,
        "12968": 55,
        "12969": 76,
        "12970": 121,
        "12971": 252,
        "12972": 104,
        "12973": 41,
        "12974": 210,
        "12975": 143,
        "12976": 5,
        "12977": 162,
        "12978": 74,
        "12979": 99,
        "12980": 37,
        "12981": 28,
        "12982": 236,
        "12983": 154,
        "12984": 53,
        "12985": 117,
        "12986": 44,
        "12987": 43,
        "12988": 230,
        "12989": 102,
        "12990": 137,
        "12991": 162,
        "12992": 11,
        "12993": 163,
        "12994": 166,
        "12995": 81,
        "12996": 192,
        "12997": 212,
        "12998": 165,
        "12999": 101,
        "13000": 14,
        "13001": 180,
        "13002": 66,
        "13003": 91,
        "13004": 169,
        "13005": 12,
        "13006": 56,
        "13007": 136,
        "13008": 84,
        "13009": 173,
        "13010": 144,
        "13011": 167,
        "13012": 122,
        "13013": 155,
        "13014": 203,
        "13015": 17,
        "13016": 52,
        "13017": 111,
        "13018": 75,
        "13019": 251,
        "13020": 6,
        "13021": 177,
        "13022": 142,
        "13023": 69,
        "13024": 203,
        "13025": 129,
        "13026": 33,
        "13027": 25,
        "13028": 93,
        "13029": 212,
        "13030": 121,
        "13031": 145,
        "13032": 122,
        "13033": 176,
        "13034": 118,
        "13035": 93,
        "13036": 173,
        "13037": 216,
        "13038": 54,
        "13039": 181,
        "13040": 62,
        "13041": 236,
        "13042": 153,
        "13043": 17,
        "13044": 223,
        "13045": 3,
        "13046": 135,
        "13047": 211,
        "13048": 72,
        "13049": 252,
        "13050": 186,
        "13051": 201,
        "13052": 144,
        "13053": 63,
        "13054": 103,
        "13055": 71,
        "13056": 14,
        "13057": 67,
        "13058": 120,
        "13059": 228,
        "13060": 126,
        "13061": 61,
        "13062": 160,
        "13063": 152,
        "13064": 181,
        "13065": 148,
        "13066": 175,
        "13067": 107,
        "13068": 101,
        "13069": 131,
        "13070": 9,
        "13071": 161,
        "13072": 182,
        "13073": 224,
        "13074": 99,
        "13075": 211,
        "13076": 192,
        "13077": 102,
        "13078": 124,
        "13079": 211,
        "13080": 52,
        "13081": 82,
        "13082": 129,
        "13083": 167,
        "13084": 183,
        "13085": 62,
        "13086": 13,
        "13087": 197,
        "13088": 100,
        "13089": 18,
        "13090": 120,
        "13091": 162,
        "13092": 21,
        "13093": 120,
        "13094": 7,
        "13095": 180,
        "13096": 255,
        "13097": 146,
        "13098": 204,
        "13099": 82,
        "13100": 127,
        "13101": 99,
        "13102": 76,
        "13103": 204,
        "13104": 155,
        "13105": 196,
        "13106": 139,
        "13107": 174,
        "13108": 103,
        "13109": 236,
        "13110": 77,
        "13111": 125,
        "13112": 88,
        "13113": 84,
        "13114": 69,
        "13115": 75,
        "13116": 82,
        "13117": 241,
        "13118": 204,
        "13119": 3,
        "13120": 20,
        "13121": 171,
        "13122": 188,
        "13123": 66,
        "13124": 9,
        "13125": 122,
        "13126": 22,
        "13127": 168,
        "13128": 249,
        "13129": 161,
        "13130": 126,
        "13131": 194,
        "13132": 168,
        "13133": 201,
        "13134": 214,
        "13135": 175,
        "13136": 246,
        "13137": 51,
        "13138": 40,
        "13139": 44,
        "13140": 163,
        "13141": 167,
        "13142": 121,
        "13143": 73,
        "13144": 207,
        "13145": 107,
        "13146": 254,
        "13147": 251,
        "13148": 251,
        "13149": 211,
        "13150": 34,
        "13151": 166,
        "13152": 245,
        "13153": 231,
        "13154": 169,
        "13155": 119,
        "13156": 179,
        "13157": 70,
        "13158": 205,
        "13159": 133,
        "13160": 96,
        "13161": 249,
        "13162": 220,
        "13163": 66,
        "13164": 32,
        "13165": 211,
        "13166": 229,
        "13167": 180,
        "13168": 50,
        "13169": 28,
        "13170": 130,
        "13171": 40,
        "13172": 254,
        "13173": 166,
        "13174": 217,
        "13175": 156,
        "13176": 47,
        "13177": 96,
        "13178": 150,
        "13179": 169,
        "13180": 66,
        "13181": 5,
        "13182": 13,
        "13183": 24,
        "13184": 9,
        "13185": 172,
        "13186": 231,
        "13187": 104,
        "13188": 163,
        "13189": 240,
        "13190": 77,
        "13191": 3,
        "13192": 52,
        "13193": 137,
        "13194": 117,
        "13195": 16,
        "13196": 15,
        "13197": 46,
        "13198": 186,
        "13199": 165,
        "13200": 184,
        "13201": 82,
        "13202": 28,
        "13203": 92,
        "13204": 117,
        "13205": 81,
        "13206": 246,
        "13207": 79,
        "13208": 47,
        "13209": 28,
        "13210": 46,
        "13211": 17,
        "13212": 47,
        "13213": 41,
        "13214": 99,
        "13215": 99,
        "13216": 94,
        "13217": 107,
        "13218": 17,
        "13219": 120,
        "13220": 238,
        "13221": 112,
        "13222": 108,
        "13223": 214,
        "13224": 157,
        "13225": 145,
        "13226": 53,
        "13227": 28,
        "13228": 37,
        "13229": 9,
        "13230": 182,
        "13231": 7,
        "13232": 162,
        "13233": 102,
        "13234": 43,
        "13235": 58,
        "13236": 73,
        "13237": 104,
        "13238": 195,
        "13239": 76,
        "13240": 62,
        "13241": 199,
        "13242": 4,
        "13243": 191,
        "13244": 231,
        "13245": 125,
        "13246": 226,
        "13247": 96,
        "13248": 144,
        "13249": 231,
        "13250": 137,
        "13251": 155,
        "13252": 206,
        "13253": 199,
        "13254": 226,
        "13255": 241,
        "13256": 96,
        "13257": 61,
        "13258": 138,
        "13259": 141,
        "13260": 14,
        "13261": 9,
        "13262": 222,
        "13263": 39,
        "13264": 200,
        "13265": 6,
        "13266": 75,
        "13267": 172,
        "13268": 162,
        "13269": 235,
        "13270": 239,
        "13271": 165,
        "13272": 13,
        "13273": 32,
        "13274": 130,
        "13275": 195,
        "13276": 79,
        "13277": 242,
        "13278": 252,
        "13279": 150,
        "13280": 200,
        "13281": 148,
        "13282": 154,
        "13283": 121,
        "13284": 207,
        "13285": 139,
        "13286": 90,
        "13287": 240,
        "13288": 227,
        "13289": 96,
        "13290": 3,
        "13291": 238,
        "13292": 78,
        "13293": 186,
        "13294": 223,
        "13295": 229,
        "13296": 135,
        "13297": 233,
        "13298": 89,
        "13299": 242,
        "13300": 82,
        "13301": 27,
        "13302": 88,
        "13303": 158,
        "13304": 180,
        "13305": 229,
        "13306": 174,
        "13307": 16,
        "13308": 11,
        "13309": 90,
        "13310": 68,
        "13311": 92,
        "13312": 9,
        "13313": 202,
        "13314": 112,
        "13315": 207,
        "13316": 254,
        "13317": 156,
        "13318": 104,
        "13319": 214,
        "13320": 77,
        "13321": 210,
        "13322": 149,
        "13323": 38,
        "13324": 205,
        "13325": 174,
        "13326": 162,
        "13327": 44,
        "13328": 26,
        "13329": 183,
        "13330": 97,
        "13331": 59,
        "13332": 69,
        "13333": 166,
        "13334": 87,
        "13335": 79,
        "13336": 228,
        "13337": 12,
        "13338": 148,
        "13339": 157,
        "13340": 73,
        "13341": 9,
        "13342": 62,
        "13343": 33,
        "13344": 233,
        "13345": 198,
        "13346": 47,
        "13347": 30,
        "13348": 128,
        "13349": 97,
        "13350": 41,
        "13351": 30,
        "13352": 146,
        "13353": 176,
        "13354": 59,
        "13355": 21,
        "13356": 225,
        "13357": 153,
        "13358": 193,
        "13359": 79,
        "13360": 108,
        "13361": 234,
        "13362": 53,
        "13363": 11,
        "13364": 127,
        "13365": 50,
        "13366": 238,
        "13367": 77,
        "13368": 216,
        "13369": 132,
        "13370": 123,
        "13371": 101,
        "13372": 182,
        "13373": 177,
        "13374": 214,
        "13375": 78,
        "13376": 99,
        "13377": 146,
        "13378": 227,
        "13379": 25,
        "13380": 224,
        "13381": 154,
        "13382": 149,
        "13383": 159,
        "13384": 64,
        "13385": 199,
        "13386": 1,
        "13387": 67,
        "13388": 117,
        "13389": 24,
        "13390": 140,
        "13391": 155,
        "13392": 181,
        "13393": 162,
        "13394": 91,
        "13395": 132,
        "13396": 166,
        "13397": 247,
        "13398": 212,
        "13399": 60,
        "13400": 45,
        "13401": 180,
        "13402": 228,
        "13403": 34,
        "13404": 223,
        "13405": 249,
        "13406": 185,
        "13407": 102,
        "13408": 105,
        "13409": 249,
        "13410": 169,
        "13411": 10,
        "13412": 201,
        "13413": 94,
        "13414": 91,
        "13415": 225,
        "13416": 212,
        "13417": 238,
        "13418": 234,
        "13419": 123,
        "13420": 161,
        "13421": 212,
        "13422": 1,
        "13423": 16,
        "13424": 252,
        "13425": 200,
        "13426": 251,
        "13427": 43,
        "13428": 16,
        "13429": 253,
        "13430": 232,
        "13431": 96,
        "13432": 99,
        "13433": 237,
        "13434": 150,
        "13435": 163,
        "13436": 71,
        "13437": 122,
        "13438": 94,
        "13439": 235,
        "13440": 91,
        "13441": 233,
        "13442": 12,
        "13443": 169,
        "13444": 139,
        "13445": 156,
        "13446": 4,
        "13447": 4,
        "13448": 231,
        "13449": 254,
        "13450": 9,
        "13451": 192,
        "13452": 111,
        "13453": 22,
        "13454": 119,
        "13455": 60,
        "13456": 13,
        "13457": 38,
        "13458": 101,
        "13459": 66,
        "13460": 187,
        "13461": 1,
        "13462": 62,
        "13463": 89,
        "13464": 220,
        "13465": 45,
        "13466": 224,
        "13467": 69,
        "13468": 111,
        "13469": 31,
        "13470": 92,
        "13471": 37,
        "13472": 104,
        "13473": 99,
        "13474": 140,
        "13475": 157,
        "13476": 121,
        "13477": 148,
        "13478": 71,
        "13479": 203,
        "13480": 69,
        "13481": 19,
        "13482": 1,
        "13483": 144,
        "13484": 145,
        "13485": 157,
        "13486": 210,
        "13487": 6,
        "13488": 194,
        "13489": 46,
        "13490": 136,
        "13491": 224,
        "13492": 26,
        "13493": 97,
        "13494": 75,
        "13495": 146,
        "13496": 227,
        "13497": 18,
        "13498": 223,
        "13499": 110,
        "13500": 118,
        "13501": 192,
        "13502": 49,
        "13503": 42,
        "13504": 153,
        "13505": 96,
        "13506": 236,
        "13507": 223,
        "13508": 117,
        "13509": 107,
        "13510": 147,
        "13511": 206,
        "13512": 64,
        "13513": 220,
        "13514": 94,
        "13515": 185,
        "13516": 31,
        "13517": 103,
        "13518": 242,
        "13519": 107,
        "13520": 158,
        "13521": 183,
        "13522": 254,
        "13523": 166,
        "13524": 58,
        "13525": 140,
        "13526": 113,
        "13527": 115,
        "13528": 254,
        "13529": 241,
        "13530": 204,
        "13531": 40,
        "13532": 187,
        "13533": 224,
        "13534": 157,
        "13535": 19,
        "13536": 12,
        "13537": 142,
        "13538": 109,
        "13539": 91,
        "13540": 151,
        "13541": 248,
        "13542": 119,
        "13543": 147,
        "13544": 37,
        "13545": 245,
        "13546": 101,
        "13547": 150,
        "13548": 46,
        "13549": 167,
        "13550": 140,
        "13551": 136,
        "13552": 195,
        "13553": 98,
        "13554": 252,
        "13555": 43,
        "13556": 67,
        "13557": 48,
        "13558": 20,
        "13559": 227,
        "13560": 74,
        "13561": 178,
        "13562": 154,
        "13563": 167,
        "13564": 212,
        "13565": 188,
        "13566": 76,
        "13567": 225,
        "13568": 224,
        "13569": 125,
        "13570": 93,
        "13571": 182,
        "13572": 204,
        "13573": 101,
        "13574": 43,
        "13575": 85,
        "13576": 144,
        "13577": 161,
        "13578": 119,
        "13579": 209,
        "13580": 15,
        "13581": 150,
        "13582": 223,
        "13583": 141,
        "13584": 140,
        "13585": 50,
        "13586": 226,
        "13587": 27,
        "13588": 52,
        "13589": 130,
        "13590": 104,
        "13591": 102,
        "13592": 83,
        "13593": 47,
        "13594": 240,
        "13595": 119,
        "13596": 99,
        "13597": 155,
        "13598": 171,
        "13599": 187,
        "13600": 59,
        "13601": 92,
        "13602": 99,
        "13603": 207,
        "13604": 133,
        "13605": 174,
        "13606": 197,
        "13607": 250,
        "13608": 105,
        "13609": 12,
        "13610": 248,
        "13611": 89,
        "13612": 79,
        "13613": 133,
        "13614": 226,
        "13615": 132,
        "13616": 182,
        "13617": 200,
        "13618": 8,
        "13619": 147,
        "13620": 16,
        "13621": 84,
        "13622": 3,
        "13623": 64,
        "13624": 181,
        "13625": 198,
        "13626": 214,
        "13627": 173,
        "13628": 125,
        "13629": 193,
        "13630": 166,
        "13631": 156,
        "13632": 187,
        "13633": 143,
        "13634": 65,
        "13635": 239,
        "13636": 109,
        "13637": 171,
        "13638": 116,
        "13639": 131,
        "13640": 68,
        "13641": 111,
        "13642": 1,
        "13643": 192,
        "13644": 52,
        "13645": 205,
        "13646": 10,
        "13647": 247,
        "13648": 27,
        "13649": 209,
        "13650": 174,
        "13651": 44,
        "13652": 59,
        "13653": 92,
        "13654": 129,
        "13655": 107,
        "13656": 180,
        "13657": 136,
        "13658": 95,
        "13659": 202,
        "13660": 255,
        "13661": 20,
        "13662": 140,
        "13663": 110,
        "13664": 127,
        "13665": 248,
        "13666": 0,
        "13667": 105,
        "13668": 41,
        "13669": 96,
        "13670": 152,
        "13671": 219,
        "13672": 110,
        "13673": 11,
        "13674": 68,
        "13675": 10,
        "13676": 99,
        "13677": 180,
        "13678": 245,
        "13679": 27,
        "13680": 114,
        "13681": 140,
        "13682": 169,
        "13683": 202,
        "13684": 153,
        "13685": 9,
        "13686": 169,
        "13687": 108,
        "13688": 189,
        "13689": 4,
        "13690": 199,
        "13691": 23,
        "13692": 150,
        "13693": 120,
        "13694": 98,
        "13695": 162,
        "13696": 185,
        "13697": 192,
        "13698": 209,
        "13699": 209,
        "13700": 130,
        "13701": 198,
        "13702": 8,
        "13703": 220,
        "13704": 145,
        "13705": 176,
        "13706": 247,
        "13707": 119,
        "13708": 161,
        "13709": 234,
        "13710": 109,
        "13711": 122,
        "13712": 50,
        "13713": 151,
        "13714": 37,
        "13715": 47,
        "13716": 35,
        "13717": 106,
        "13718": 84,
        "13719": 168,
        "13720": 152,
        "13721": 26,
        "13722": 212,
        "13723": 200,
        "13724": 106,
        "13725": 119,
        "13726": 90,
        "13727": 50,
        "13728": 71,
        "13729": 153,
        "13730": 247,
        "13731": 185,
        "13732": 140,
        "13733": 81,
        "13734": 229,
        "13735": 68,
        "13736": 215,
        "13737": 93,
        "13738": 254,
        "13739": 113,
        "13740": 45,
        "13741": 26,
        "13742": 41,
        "13743": 154,
        "13744": 157,
        "13745": 149,
        "13746": 107,
        "13747": 192,
        "13748": 50,
        "13749": 210,
        "13750": 184,
        "13751": 25,
        "13752": 146,
        "13753": 117,
        "13754": 18,
        "13755": 231,
        "13756": 210,
        "13757": 219,
        "13758": 52,
        "13759": 2,
        "13760": 39,
        "13761": 72,
        "13762": 147,
        "13763": 190,
        "13764": 173,
        "13765": 238,
        "13766": 153,
        "13767": 218,
        "13768": 96,
        "13769": 103,
        "13770": 113,
        "13771": 239,
        "13772": 88,
        "13773": 231,
        "13774": 168,
        "13775": 199,
        "13776": 151,
        "13777": 133,
        "13778": 195,
        "13779": 201,
        "13780": 234,
        "13781": 243,
        "13782": 213,
        "13783": 80,
        "13784": 112,
        "13785": 92,
        "13786": 56,
        "13787": 162,
        "13788": 158,
        "13789": 221,
        "13790": 148,
        "13791": 188,
        "13792": 137,
        "13793": 172,
        "13794": 226,
        "13795": 77,
        "13796": 87,
        "13797": 30,
        "13798": 238,
        "13799": 112,
        "13800": 132,
        "13801": 119,
        "13802": 95,
        "13803": 224,
        "13804": 158,
        "13805": 106,
        "13806": 177,
        "13807": 132,
        "13808": 148,
        "13809": 189,
        "13810": 226,
        "13811": 80,
        "13812": 192,
        "13813": 115,
        "13814": 186,
        "13815": 103,
        "13816": 243,
        "13817": 65,
        "13818": 118,
        "13819": 166,
        "13820": 71,
        "13821": 148,
        "13822": 199,
        "13823": 6,
        "13824": 87,
        "13825": 18,
        "13826": 94,
        "13827": 159,
        "13828": 252,
        "13829": 103,
        "13830": 185,
        "13831": 173,
        "13832": 40,
        "13833": 125,
        "13834": 96,
        "13835": 16,
        "13836": 219,
        "13837": 90,
        "13838": 178,
        "13839": 17,
        "13840": 59,
        "13841": 147,
        "13842": 148,
        "13843": 25,
        "13844": 190,
        "13845": 85,
        "13846": 236,
        "13847": 56,
        "13848": 116,
        "13849": 103,
        "13850": 213,
        "13851": 130,
        "13852": 63,
        "13853": 24,
        "13854": 250,
        "13855": 199,
        "13856": 145,
        "13857": 205,
        "13858": 188,
        "13859": 252,
        "13860": 123,
        "13861": 175,
        "13862": 222,
        "13863": 204,
        "13864": 46,
        "13865": 96,
        "13866": 238,
        "13867": 161,
        "13868": 205,
        "13869": 44,
        "13870": 253,
        "13871": 11,
        "13872": 233,
        "13873": 193,
        "13874": 118,
        "13875": 241,
        "13876": 112,
        "13877": 183,
        "13878": 123,
        "13879": 58,
        "13880": 126,
        "13881": 196,
        "13882": 252,
        "13883": 69,
        "13884": 108,
        "13885": 105,
        "13886": 29,
        "13887": 60,
        "13888": 23,
        "13889": 99,
        "13890": 152,
        "13891": 62,
        "13892": 18,
        "13893": 23,
        "13894": 34,
        "13895": 54,
        "13896": 31,
        "13897": 95,
        "13898": 149,
        "13899": 246,
        "13900": 126,
        "13901": 199,
        "13902": 183,
        "13903": 187,
        "13904": 218,
        "13905": 193,
        "13906": 153,
        "13907": 45,
        "13908": 133,
        "13909": 110,
        "13910": 188,
        "13911": 218,
        "13912": 24,
        "13913": 113,
        "13914": 203,
        "13915": 198,
        "13916": 19,
        "13917": 96,
        "13918": 224,
        "13919": 16,
        "13920": 35,
        "13921": 240,
        "13922": 168,
        "13923": 56,
        "13924": 177,
        "13925": 180,
        "13926": 107,
        "13927": 12,
        "13928": 227,
        "13929": 149,
        "13930": 218,
        "13931": 199,
        "13932": 209,
        "13933": 37,
        "13934": 50,
        "13935": 231,
        "13936": 28,
        "13937": 252,
        "13938": 135,
        "13939": 200,
        "13940": 92,
        "13941": 15,
        "13942": 101,
        "13943": 15,
        "13944": 208,
        "13945": 14,
        "13946": 197,
        "13947": 91,
        "13948": 214,
        "13949": 212,
        "13950": 192,
        "13951": 133,
        "13952": 213,
        "13953": 141,
        "13954": 187,
        "13955": 86,
        "13956": 81,
        "13957": 56,
        "13958": 216,
        "13959": 157,
        "13960": 227,
        "13961": 247,
        "13962": 236,
        "13963": 247,
        "13964": 42,
        "13965": 109,
        "13966": 43,
        "13967": 92,
        "13968": 149,
        "13969": 205,
        "13970": 231,
        "13971": 107,
        "13972": 199,
        "13973": 27,
        "13974": 164,
        "13975": 164,
        "13976": 57,
        "13977": 20,
        "13978": 19,
        "13979": 80,
        "13980": 27,
        "13981": 73,
        "13982": 124,
        "13983": 136,
        "13984": 225,
        "13985": 19,
        "13986": 172,
        "13987": 77,
        "13988": 147,
        "13989": 180,
        "13990": 253,
        "13991": 102,
        "13992": 173,
        "13993": 115,
        "13994": 229,
        "13995": 17,
        "13996": 130,
        "13997": 182,
        "13998": 157,
        "13999": 232,
        "14000": 113,
        "14001": 168,
        "14002": 108,
        "14003": 166,
        "14004": 72,
        "14005": 112,
        "14006": 213,
        "14007": 138,
        "14008": 2,
        "14009": 117,
        "14010": 124,
        "14011": 103,
        "14012": 217,
        "14013": 97,
        "14014": 167,
        "14015": 165,
        "14016": 250,
        "14017": 187,
        "14018": 235,
        "14019": 230,
        "14020": 234,
        "14021": 242,
        "14022": 114,
        "14023": 146,
        "14024": 250,
        "14025": 53,
        "14026": 1,
        "14027": 129,
        "14028": 117,
        "14029": 74,
        "14030": 167,
        "14031": 189,
        "14032": 146,
        "14033": 71,
        "14034": 94,
        "14035": 115,
        "14036": 73,
        "14037": 110,
        "14038": 253,
        "14039": 169,
        "14040": 41,
        "14041": 95,
        "14042": 49,
        "14043": 90,
        "14044": 191,
        "14045": 144,
        "14046": 154,
        "14047": 200,
        "14048": 251,
        "14049": 66,
        "14050": 4,
        "14051": 247,
        "14052": 169,
        "14053": 32,
        "14054": 161,
        "14055": 31,
        "14056": 113,
        "14057": 52,
        "14058": 57,
        "14059": 147,
        "14060": 197,
        "14061": 53,
        "14062": 253,
        "14063": 211,
        "14064": 204,
        "14065": 215,
        "14066": 232,
        "14067": 106,
        "14068": 195,
        "14069": 40,
        "14070": 111,
        "14071": 240,
        "14072": 237,
        "14073": 231,
        "14074": 238,
        "14075": 237,
        "14076": 16,
        "14077": 202,
        "14078": 253,
        "14079": 239,
        "14080": 181,
        "14081": 175,
        "14082": 24,
        "14083": 40,
        "14084": 219,
        "14085": 191,
        "14086": 22,
        "14087": 150,
        "14088": 33,
        "14089": 242,
        "14090": 191,
        "14091": 6,
        "14092": 21,
        "14093": 146,
        "14094": 224,
        "14095": 198,
        "14096": 114,
        "14097": 8,
        "14098": 198,
        "14099": 56,
        "14100": 171,
        "14101": 191,
        "14102": 28,
        "14103": 215,
        "14104": 243,
        "14105": 94,
        "14106": 117,
        "14107": 97,
        "14108": 46,
        "14109": 53,
        "14110": 142,
        "14111": 170,
        "14112": 24,
        "14113": 215,
        "14114": 181,
        "14115": 160,
        "14116": 164,
        "14117": 135,
        "14118": 244,
        "14119": 183,
        "14120": 146,
        "14121": 253,
        "14122": 102,
        "14123": 6,
        "14124": 102,
        "14125": 224,
        "14126": 4,
        "14127": 112,
        "14128": 239,
        "14129": 148,
        "14130": 125,
        "14131": 22,
        "14132": 142,
        "14133": 193,
        "14134": 255,
        "14135": 201,
        "14136": 27,
        "14137": 198,
        "14138": 66,
        "14139": 96,
        "14140": 133,
        "14141": 55,
        "14142": 12,
        "14143": 78,
        "14144": 35,
        "14145": 155,
        "14146": 10,
        "14147": 161,
        "14148": 125,
        "14149": 206,
        "14150": 216,
        "14151": 244,
        "14152": 151,
        "14153": 151,
        "14154": 60,
        "14155": 136,
        "14156": 46,
        "14157": 226,
        "14158": 91,
        "14159": 148,
        "14160": 30,
        "14161": 202,
        "14162": 150,
        "14163": 210,
        "14164": 16,
        "14165": 176,
        "14166": 29,
        "14167": 158,
        "14168": 247,
        "14169": 201,
        "14170": 249,
        "14171": 146,
        "14172": 143,
        "14173": 223,
        "14174": 99,
        "14175": 182,
        "14176": 254,
        "14177": 131,
        "14178": 220,
        "14179": 220,
        "14180": 45,
        "14181": 210,
        "14182": 175,
        "14183": 254,
        "14184": 198,
        "14185": 177,
        "14186": 159,
        "14187": 158,
        "14188": 171,
        "14189": 207,
        "14190": 124,
        "14191": 33,
        "14192": 4,
        "14193": 198,
        "14194": 133,
        "14195": 237,
        "14196": 231,
        "14197": 185,
        "14198": 131,
        "14199": 22,
        "14200": 164,
        "14201": 187,
        "14202": 20,
        "14203": 122,
        "14204": 235,
        "14205": 226,
        "14206": 121,
        "14207": 76,
        "14208": 63,
        "14209": 200,
        "14210": 247,
        "14211": 130,
        "14212": 176,
        "14213": 139,
        "14214": 102,
        "14215": 7,
        "14216": 139,
        "14217": 88,
        "14218": 83,
        "14219": 33,
        "14220": 26,
        "14221": 72,
        "14222": 118,
        "14223": 24,
        "14224": 106,
        "14225": 53,
        "14226": 28,
        "14227": 223,
        "14228": 243,
        "14229": 202,
        "14230": 154,
        "14231": 211,
        "14232": 201,
        "14233": 188,
        "14234": 186,
        "14235": 203,
        "14236": 182,
        "14237": 95,
        "14238": 144,
        "14239": 240,
        "14240": 204,
        "14241": 142,
        "14242": 232,
        "14243": 16,
        "14244": 39,
        "14245": 237,
        "14246": 174,
        "14247": 163,
        "14248": 113,
        "14249": 28,
        "14250": 120,
        "14251": 255,
        "14252": 146,
        "14253": 11,
        "14254": 42,
        "14255": 213,
        "14256": 150,
        "14257": 136,
        "14258": 5,
        "14259": 53,
        "14260": 65,
        "14261": 79,
        "14262": 244,
        "14263": 204,
        "14264": 170,
        "14265": 161,
        "14266": 177,
        "14267": 63,
        "14268": 194,
        "14269": 60,
        "14270": 27,
        "14271": 148,
        "14272": 22,
        "14273": 225,
        "14274": 62,
        "14275": 185,
        "14276": 15,
        "14277": 145,
        "14278": 44,
        "14279": 51,
        "14280": 231,
        "14281": 141,
        "14282": 81,
        "14283": 23,
        "14284": 219,
        "14285": 181,
        "14286": 91,
        "14287": 48,
        "14288": 33,
        "14289": 67,
        "14290": 241,
        "14291": 23,
        "14292": 156,
        "14293": 198,
        "14294": 228,
        "14295": 213,
        "14296": 1,
        "14297": 250,
        "14298": 97,
        "14299": 132,
        "14300": 250,
        "14301": 240,
        "14302": 106,
        "14303": 95,
        "14304": 197,
        "14305": 209,
        "14306": 176,
        "14307": 165,
        "14308": 7,
        "14309": 27,
        "14310": 39,
        "14311": 182,
        "14312": 102,
        "14313": 227,
        "14314": 66,
        "14315": 67,
        "14316": 43,
        "14317": 112,
        "14318": 196,
        "14319": 249,
        "14320": 11,
        "14321": 69,
        "14322": 11,
        "14323": 217,
        "14324": 64,
        "14325": 38,
        "14326": 93,
        "14327": 54,
        "14328": 116,
        "14329": 76,
        "14330": 236,
        "14331": 213,
        "14332": 148,
        "14333": 232,
        "14334": 178,
        "14335": 53,
        "14336": 131,
        "14337": 85,
        "14338": 244,
        "14339": 76,
        "14340": 149,
        "14341": 195,
        "14342": 212,
        "14343": 72,
        "14344": 85,
        "14345": 14,
        "14346": 67,
        "14347": 107,
        "14348": 214,
        "14349": 159,
        "14350": 183,
        "14351": 191,
        "14352": 106,
        "14353": 184,
        "14354": 45,
        "14355": 170,
        "14356": 55,
        "14357": 248,
        "14358": 170,
        "14359": 205,
        "14360": 61,
        "14361": 214,
        "14362": 91,
        "14363": 193,
        "14364": 146,
        "14365": 230,
        "14366": 15,
        "14367": 40,
        "14368": 195,
        "14369": 220,
        "14370": 160,
        "14371": 52,
        "14372": 35,
        "14373": 82,
        "14374": 228,
        "14375": 179,
        "14376": 188,
        "14377": 58,
        "14378": 130,
        "14379": 206,
        "14380": 115,
        "14381": 45,
        "14382": 150,
        "14383": 228,
        "14384": 105,
        "14385": 120,
        "14386": 15,
        "14387": 49,
        "14388": 168,
        "14389": 130,
        "14390": 153,
        "14391": 146,
        "14392": 209,
        "14393": 200,
        "14394": 91,
        "14395": 98,
        "14396": 132,
        "14397": 31,
        "14398": 0,
        "14399": 179,
        "14400": 190,
        "14401": 161,
        "14402": 26,
        "14403": 133,
        "14404": 29,
        "14405": 173,
        "14406": 0,
        "14407": 228,
        "14408": 50,
        "14409": 145,
        "14410": 55,
        "14411": 64,
        "14412": 221,
        "14413": 19,
        "14414": 4,
        "14415": 250,
        "14416": 17,
        "14417": 85,
        "14418": 222,
        "14419": 184,
        "14420": 211,
        "14421": 91,
        "14422": 157,
        "14423": 13,
        "14424": 211,
        "14425": 249,
        "14426": 229,
        "14427": 206,
        "14428": 48,
        "14429": 218,
        "14430": 225,
        "14431": 191,
        "14432": 189,
        "14433": 38,
        "14434": 40,
        "14435": 188,
        "14436": 216,
        "14437": 185,
        "14438": 217,
        "14439": 149,
        "14440": 202,
        "14441": 187,
        "14442": 206,
        "14443": 222,
        "14444": 77,
        "14445": 84,
        "14446": 91,
        "14447": 52,
        "14448": 173,
        "14449": 226,
        "14450": 33,
        "14451": 231,
        "14452": 26,
        "14453": 99,
        "14454": 242,
        "14455": 187,
        "14456": 168,
        "14457": 78,
        "14458": 120,
        "14459": 115,
        "14460": 7,
        "14461": 230,
        "14462": 212,
        "14463": 82,
        "14464": 238,
        "14465": 167,
        "14466": 86,
        "14467": 141,
        "14468": 213,
        "14469": 161,
        "14470": 191,
        "14471": 190,
        "14472": 231,
        "14473": 226,
        "14474": 137,
        "14475": 133,
        "14476": 149,
        "14477": 171,
        "14478": 170,
        "14479": 127,
        "14480": 242,
        "14481": 160,
        "14482": 133,
        "14483": 161,
        "14484": 22,
        "14485": 56,
        "14486": 12,
        "14487": 196,
        "14488": 103,
        "14489": 31,
        "14490": 96,
        "14491": 11,
        "14492": 58,
        "14493": 228,
        "14494": 252,
        "14495": 165,
        "14496": 175,
        "14497": 65,
        "14498": 8,
        "14499": 80,
        "14500": 205,
        "14501": 31,
        "14502": 207,
        "14503": 239,
        "14504": 231,
        "14505": 127,
        "14506": 15,
        "14507": 74,
        "14508": 146,
        "14509": 63,
        "14510": 155,
        "14511": 18,
        "14512": 194,
        "14513": 54,
        "14514": 214,
        "14515": 120,
        "14516": 34,
        "14517": 34,
        "14518": 249,
        "14519": 102,
        "14520": 10,
        "14521": 139,
        "14522": 28,
        "14523": 131,
        "14524": 175,
        "14525": 240,
        "14526": 162,
        "14527": 5,
        "14528": 208,
        "14529": 88,
        "14530": 116,
        "14531": 103,
        "14532": 202,
        "14533": 186,
        "14534": 132,
        "14535": 55,
        "14536": 228,
        "14537": 144,
        "14538": 220,
        "14539": 193,
        "14540": 237,
        "14541": 248,
        "14542": 93,
        "14543": 118,
        "14544": 118,
        "14545": 42,
        "14546": 61,
        "14547": 52,
        "14548": 35,
        "14549": 119,
        "14550": 18,
        "14551": 218,
        "14552": 193,
        "14553": 132,
        "14554": 41,
        "14555": 178,
        "14556": 29,
        "14557": 86,
        "14558": 61,
        "14559": 120,
        "14560": 241,
        "14561": 230,
        "14562": 209,
        "14563": 34,
        "14564": 54,
        "14565": 223,
        "14566": 246,
        "14567": 224,
        "14568": 171,
        "14569": 218,
        "14570": 197,
        "14571": 33,
        "14572": 20,
        "14573": 58,
        "14574": 113,
        "14575": 4,
        "14576": 250,
        "14577": 95,
        "14578": 248,
        "14579": 12,
        "14580": 105,
        "14581": 106,
        "14582": 107,
        "14583": 78,
        "14584": 115,
        "14585": 163,
        "14586": 50,
        "14587": 101,
        "14588": 152,
        "14589": 54,
        "14590": 2,
        "14591": 153,
        "14592": 151,
        "14593": 243,
        "14594": 120,
        "14595": 55,
        "14596": 29,
        "14597": 101,
        "14598": 231,
        "14599": 138,
        "14600": 11,
        "14601": 99,
        "14602": 128,
        "14603": 239,
        "14604": 11,
        "14605": 142,
        "14606": 30,
        "14607": 76,
        "14608": 219,
        "14609": 216,
        "14610": 109,
        "14611": 235,
        "14612": 220,
        "14613": 249,
        "14614": 191,
        "14615": 193,
        "14616": 90,
        "14617": 112,
        "14618": 77,
        "14619": 12,
        "14620": 211,
        "14621": 18,
        "14622": 75,
        "14623": 11,
        "14624": 150,
        "14625": 149,
        "14626": 88,
        "14627": 82,
        "14628": 88,
        "14629": 113,
        "14630": 116,
        "14631": 137,
        "14632": 37,
        "14633": 33,
        "14634": 241,
        "14635": 247,
        "14636": 98,
        "14637": 130,
        "14638": 195,
        "14639": 195,
        "14640": 178,
        "14641": 94,
        "14642": 51,
        "14643": 232,
        "14644": 94,
        "14645": 131,
        "14646": 101,
        "14647": 20,
        "14648": 135,
        "14649": 69,
        "14650": 91,
        "14651": 177,
        "14652": 102,
        "14653": 46,
        "14654": 46,
        "14655": 153,
        "14656": 193,
        "14657": 82,
        "14658": 1,
        "14659": 243,
        "14660": 163,
        "14661": 243,
        "14662": 152,
        "14663": 160,
        "14664": 55,
        "14665": 211,
        "14666": 189,
        "14667": 52,
        "14668": 86,
        "14669": 169,
        "14670": 49,
        "14671": 177,
        "14672": 178,
        "14673": 7,
        "14674": 186,
        "14675": 119,
        "14676": 233,
        "14677": 39,
        "14678": 221,
        "14679": 160,
        "14680": 229,
        "14681": 216,
        "14682": 157,
        "14683": 235,
        "14684": 86,
        "14685": 8,
        "14686": 146,
        "14687": 47,
        "14688": 46,
        "14689": 226,
        "14690": 113,
        "14691": 196,
        "14692": 72,
        "14693": 246,
        "14694": 187,
        "14695": 104,
        "14696": 161,
        "14697": 62,
        "14698": 246,
        "14699": 230,
        "14700": 148,
        "14701": 8,
        "14702": 194,
        "14703": 4,
        "14704": 85,
        "14705": 182,
        "14706": 251,
        "14707": 129,
        "14708": 209,
        "14709": 33,
        "14710": 251,
        "14711": 132,
        "14712": 73,
        "14713": 131,
        "14714": 197,
        "14715": 38,
        "14716": 53,
        "14717": 128,
        "14718": 196,
        "14719": 193,
        "14720": 190,
        "14721": 197,
        "14722": 232,
        "14723": 142,
        "14724": 237,
        "14725": 230,
        "14726": 155,
        "14727": 92,
        "14728": 81,
        "14729": 196,
        "14730": 70,
        "14731": 8,
        "14732": 200,
        "14733": 152,
        "14734": 75,
        "14735": 151,
        "14736": 105,
        "14737": 237,
        "14738": 156,
        "14739": 160,
        "14740": 114,
        "14741": 22,
        "14742": 212,
        "14743": 89,
        "14744": 224,
        "14745": 174,
        "14746": 227,
        "14747": 100,
        "14748": 61,
        "14749": 201,
        "14750": 37,
        "14751": 227,
        "14752": 135,
        "14753": 7,
        "14754": 198,
        "14755": 141,
        "14756": 238,
        "14757": 134,
        "14758": 14,
        "14759": 84,
        "14760": 105,
        "14761": 74,
        "14762": 98,
        "14763": 153,
        "14764": 175,
        "14765": 36,
        "14766": 53,
        "14767": 37,
        "14768": 118,
        "14769": 198,
        "14770": 81,
        "14771": 40,
        "14772": 196,
        "14773": 164,
        "14774": 131,
        "14775": 220,
        "14776": 134,
        "14777": 177,
        "14778": 20,
        "14779": 221,
        "14780": 223,
        "14781": 72,
        "14782": 160,
        "14783": 161,
        "14784": 210,
        "14785": 127,
        "14786": 67,
        "14787": 54,
        "14788": 59,
        "14789": 107,
        "14790": 41,
        "14791": 2,
        "14792": 110,
        "14793": 160,
        "14794": 93,
        "14795": 19,
        "14796": 51,
        "14797": 7,
        "14798": 194,
        "14799": 122,
        "14800": 166,
        "14801": 18,
        "14802": 29,
        "14803": 92,
        "14804": 215,
        "14805": 66,
        "14806": 76,
        "14807": 110,
        "14808": 104,
        "14809": 68,
        "14810": 86,
        "14811": 197,
        "14812": 133,
        "14813": 65,
        "14814": 153,
        "14815": 34,
        "14816": 246,
        "14817": 67,
        "14818": 209,
        "14819": 126,
        "14820": 76,
        "14821": 133,
        "14822": 21,
        "14823": 130,
        "14824": 143,
        "14825": 39,
        "14826": 9,
        "14827": 250,
        "14828": 204,
        "14829": 148,
        "14830": 224,
        "14831": 241,
        "14832": 115,
        "14833": 165,
        "14834": 38,
        "14835": 242,
        "14836": 110,
        "14837": 200,
        "14838": 15,
        "14839": 35,
        "14840": 12,
        "14841": 198,
        "14842": 148,
        "14843": 240,
        "14844": 129,
        "14845": 89,
        "14846": 87,
        "14847": 107,
        "14848": 56,
        "14849": 213,
        "14850": 166,
        "14851": 238,
        "14852": 204,
        "14853": 142,
        "14854": 19,
        "14855": 72,
        "14856": 58,
        "14857": 70,
        "14858": 129,
        "14859": 14,
        "14860": 48,
        "14861": 241,
        "14862": 225,
        "14863": 45,
        "14864": 67,
        "14865": 89,
        "14866": 128,
        "14867": 160,
        "14868": 223,
        "14869": 240,
        "14870": 186,
        "14871": 137,
        "14872": 175,
        "14873": 102,
        "14874": 235,
        "14875": 14,
        "14876": 161,
        "14877": 174,
        "14878": 25,
        "14879": 117,
        "14880": 147,
        "14881": 174,
        "14882": 252,
        "14883": 71,
        "14884": 237,
        "14885": 240,
        "14886": 202,
        "14887": 76,
        "14888": 232,
        "14889": 240,
        "14890": 6,
        "14891": 243,
        "14892": 246,
        "14893": 16,
        "14894": 221,
        "14895": 187,
        "14896": 22,
        "14897": 67,
        "14898": 166,
        "14899": 108,
        "14900": 11,
        "14901": 165,
        "14902": 175,
        "14903": 25,
        "14904": 10,
        "14905": 60,
        "14906": 174,
        "14907": 225,
        "14908": 146,
        "14909": 149,
        "14910": 79,
        "14911": 8,
        "14912": 219,
        "14913": 79,
        "14914": 117,
        "14915": 110,
        "14916": 28,
        "14917": 95,
        "14918": 201,
        "14919": 219,
        "14920": 243,
        "14921": 152,
        "14922": 193,
        "14923": 220,
        "14924": 188,
        "14925": 62,
        "14926": 38,
        "14927": 150,
        "14928": 233,
        "14929": 38,
        "14930": 39,
        "14931": 29,
        "14932": 120,
        "14933": 68,
        "14934": 94,
        "14935": 235,
        "14936": 57,
        "14937": 131,
        "14938": 30,
        "14939": 227,
        "14940": 207,
        "14941": 183,
        "14942": 16,
        "14943": 240,
        "14944": 126,
        "14945": 38,
        "14946": 142,
        "14947": 154,
        "14948": 206,
        "14949": 159,
        "14950": 123,
        "14951": 85,
        "14952": 85,
        "14953": 220,
        "14954": 78,
        "14955": 79,
        "14956": 247,
        "14957": 124,
        "14958": 3,
        "14959": 38,
        "14960": 159,
        "14961": 92,
        "14962": 121,
        "14963": 90,
        "14964": 255,
        "14965": 20,
        "14966": 81,
        "14967": 204,
        "14968": 116,
        "14969": 126,
        "14970": 36,
        "14971": 125,
        "14972": 157,
        "14973": 154,
        "14974": 254,
        "14975": 201,
        "14976": 16,
        "14977": 36,
        "14978": 124,
        "14979": 191,
        "14980": 241,
        "14981": 185,
        "14982": 36,
        "14983": 165,
        "14984": 193,
        "14985": 21,
        "14986": 155,
        "14987": 164,
        "14988": 30,
        "14989": 108,
        "14990": 52,
        "14991": 87,
        "14992": 99,
        "14993": 98,
        "14994": 56,
        "14995": 96,
        "14996": 101,
        "14997": 170,
        "14998": 176,
        "14999": 213,
        "15000": 156,
        "15001": 50,
        "15002": 47,
        "15003": 190,
        "15004": 101,
        "15005": 97,
        "15006": 196,
        "15007": 59,
        "15008": 85,
        "15009": 221,
        "15010": 119,
        "15011": 172,
        "15012": 228,
        "15013": 87,
        "15014": 156,
        "15015": 12,
        "15016": 54,
        "15017": 140,
        "15018": 80,
        "15019": 39,
        "15020": 87,
        "15021": 251,
        "15022": 145,
        "15023": 136,
        "15024": 16,
        "15025": 72,
        "15026": 16,
        "15027": 230,
        "15028": 88,
        "15029": 161,
        "15030": 206,
        "15031": 83,
        "15032": 10,
        "15033": 41,
        "15034": 174,
        "15035": 178,
        "15036": 13,
        "15037": 25,
        "15038": 212,
        "15039": 81,
        "15040": 98,
        "15041": 251,
        "15042": 156,
        "15043": 209,
        "15044": 241,
        "15045": 114,
        "15046": 104,
        "15047": 33,
        "15048": 14,
        "15049": 25,
        "15050": 223,
        "15051": 24,
        "15052": 19,
        "15053": 110,
        "15054": 63,
        "15055": 19,
        "15056": 212,
        "15057": 138,
        "15058": 184,
        "15059": 80,
        "15060": 214,
        "15061": 73,
        "15062": 199,
        "15063": 212,
        "15064": 227,
        "15065": 33,
        "15066": 207,
        "15067": 61,
        "15068": 251,
        "15069": 98,
        "15070": 255,
        "15071": 143,
        "15072": 196,
        "15073": 11,
        "15074": 70,
        "15075": 45,
        "15076": 77,
        "15077": 13,
        "15078": 93,
        "15079": 133,
        "15080": 239,
        "15081": 211,
        "15082": 123,
        "15083": 148,
        "15084": 198,
        "15085": 138,
        "15086": 70,
        "15087": 96,
        "15088": 119,
        "15089": 114,
        "15090": 113,
        "15091": 161,
        "15092": 129,
        "15093": 189,
        "15094": 226,
        "15095": 254,
        "15096": 162,
        "15097": 34,
        "15098": 171,
        "15099": 114,
        "15100": 104,
        "15101": 212,
        "15102": 69,
        "15103": 190,
        "15104": 218,
        "15105": 221,
        "15106": 116,
        "15107": 244,
        "15108": 117,
        "15109": 28,
        "15110": 24,
        "15111": 131,
        "15112": 233,
        "15113": 10,
        "15114": 95,
        "15115": 136,
        "15116": 23,
        "15117": 107,
        "15118": 71,
        "15119": 162,
        "15120": 119,
        "15121": 142,
        "15122": 164,
        "15123": 22,
        "15124": 220,
        "15125": 236,
        "15126": 50,
        "15127": 161,
        "15128": 69,
        "15129": 0,
        "15130": 72,
        "15131": 4,
        "15132": 64,
        "15133": 224,
        "15134": 167,
        "15135": 82,
        "15136": 132,
        "15137": 59,
        "15138": 197,
        "15139": 19,
        "15140": 203,
        "15141": 62,
        "15142": 95,
        "15143": 121,
        "15144": 252,
        "15145": 90,
        "15146": 252,
        "15147": 251,
        "15148": 166,
        "15149": 49,
        "15150": 51,
        "15151": 243,
        "15152": 218,
        "15153": 103,
        "15154": 52,
        "15155": 220,
        "15156": 9,
        "15157": 75,
        "15158": 239,
        "15159": 93,
        "15160": 217,
        "15161": 53,
        "15162": 151,
        "15163": 247,
        "15164": 21,
        "15165": 81,
        "15166": 32,
        "15167": 79,
        "15168": 57,
        "15169": 34,
        "15170": 87,
        "15171": 62,
        "15172": 42,
        "15173": 170,
        "15174": 17,
        "15175": 49,
        "15176": 162,
        "15177": 146,
        "15178": 206,
        "15179": 189,
        "15180": 20,
        "15181": 164,
        "15182": 232,
        "15183": 165,
        "15184": 214,
        "15185": 83,
        "15186": 32,
        "15187": 78,
        "15188": 182,
        "15189": 3,
        "15190": 27,
        "15191": 231,
        "15192": 152,
        "15193": 93,
        "15194": 38,
        "15195": 152,
        "15196": 80,
        "15197": 85,
        "15198": 96,
        "15199": 21,
        "15200": 72,
        "15201": 170,
        "15202": 196,
        "15203": 30,
        "15204": 179,
        "15205": 255,
        "15206": 180,
        "15207": 217,
        "15208": 116,
        "15209": 214,
        "15210": 212,
        "15211": 150,
        "15212": 211,
        "15213": 195,
        "15214": 184,
        "15215": 95,
        "15216": 141,
        "15217": 90,
        "15218": 21,
        "15219": 70,
        "15220": 148,
        "15221": 214,
        "15222": 230,
        "15223": 57,
        "15224": 237,
        "15225": 83,
        "15226": 193,
        "15227": 209,
        "15228": 97,
        "15229": 151,
        "15230": 2,
        "15231": 241,
        "15232": 196,
        "15233": 244,
        "15234": 115,
        "15235": 71,
        "15236": 194,
        "15237": 64,
        "15238": 191,
        "15239": 155,
        "15240": 14,
        "15241": 115,
        "15242": 115,
        "15243": 202,
        "15244": 108,
        "15245": 246,
        "15246": 252,
        "15247": 55,
        "15248": 61,
        "15249": 138,
        "15250": 184,
        "15251": 41,
        "15252": 123,
        "15253": 35,
        "15254": 223,
        "15255": 178,
        "15256": 222,
        "15257": 181,
        "15258": 140,
        "15259": 227,
        "15260": 33,
        "15261": 80,
        "15262": 100,
        "15263": 237,
        "15264": 32,
        "15265": 80,
        "15266": 22,
        "15267": 40,
        "15268": 22,
        "15269": 186,
        "15270": 241,
        "15271": 245,
        "15272": 77,
        "15273": 199,
        "15274": 154,
        "15275": 178,
        "15276": 224,
        "15277": 225,
        "15278": 201,
        "15279": 202,
        "15280": 217,
        "15281": 15,
        "15282": 225,
        "15283": 28,
        "15284": 88,
        "15285": 43,
        "15286": 30,
        "15287": 2,
        "15288": 183,
        "15289": 250,
        "15290": 132,
        "15291": 58,
        "15292": 124,
        "15293": 188,
        "15294": 168,
        "15295": 241,
        "15296": 147,
        "15297": 82,
        "15298": 156,
        "15299": 123,
        "15300": 105,
        "15301": 37,
        "15302": 210,
        "15303": 231,
        "15304": 138,
        "15305": 220,
        "15306": 180,
        "15307": 204,
        "15308": 255,
        "15309": 120,
        "15310": 15,
        "15311": 158,
        "15312": 190,
        "15313": 6,
        "15314": 65,
        "15315": 204,
        "15316": 240,
        "15317": 69,
        "15318": 44,
        "15319": 26,
        "15320": 208,
        "15321": 222,
        "15322": 107,
        "15323": 168,
        "15324": 232,
        "15325": 151,
        "15326": 110,
        "15327": 19,
        "15328": 121,
        "15329": 132,
        "15330": 177,
        "15331": 215,
        "15332": 132,
        "15333": 72,
        "15334": 243,
        "15335": 75,
        "15336": 11,
        "15337": 71,
        "15338": 22,
        "15339": 121,
        "15340": 8,
        "15341": 73,
        "15342": 217,
        "15343": 2,
        "15344": 244,
        "15345": 8,
        "15346": 55,
        "15347": 98,
        "15348": 66,
        "15349": 78,
        "15350": 210,
        "15351": 217,
        "15352": 159,
        "15353": 43,
        "15354": 233,
        "15355": 147,
        "15356": 1,
        "15357": 69,
        "15358": 186,
        "15359": 228,
        "15360": 37,
        "15361": 194,
        "15362": 121,
        "15363": 149,
        "15364": 0,
        "15365": 190,
        "15366": 247,
        "15367": 245,
        "15368": 149,
        "15369": 87,
        "15370": 138,
        "15371": 196,
        "15372": 9,
        "15373": 238,
        "15374": 102,
        "15375": 36,
        "15376": 20,
        "15377": 39,
        "15378": 126,
        "15379": 1,
        "15380": 43,
        "15381": 247,
        "15382": 244,
        "15383": 111,
        "15384": 14,
        "15385": 93,
        "15386": 57,
        "15387": 31,
        "15388": 30,
        "15389": 239,
        "15390": 206,
        "15391": 177,
        "15392": 164,
        "15393": 53,
        "15394": 19,
        "15395": 67,
        "15396": 200,
        "15397": 88,
        "15398": 172,
        "15399": 3,
        "15400": 178,
        "15401": 228,
        "15402": 160,
        "15403": 143,
        "15404": 57,
        "15405": 48,
        "15406": 60,
        "15407": 37,
        "15408": 71,
        "15409": 150,
        "15410": 49,
        "15411": 49,
        "15412": 109,
        "15413": 168,
        "15414": 141,
        "15415": 27,
        "15416": 246,
        "15417": 83,
        "15418": 68,
        "15419": 136,
        "15420": 216,
        "15421": 180,
        "15422": 208,
        "15423": 93,
        "15424": 213,
        "15425": 40,
        "15426": 76,
        "15427": 253,
        "15428": 54,
        "15429": 221,
        "15430": 160,
        "15431": 175,
        "15432": 191,
        "15433": 210,
        "15434": 175,
        "15435": 200,
        "15436": 107,
        "15437": 117,
        "15438": 9,
        "15439": 16,
        "15440": 88,
        "15441": 96,
        "15442": 151,
        "15443": 195,
        "15444": 24,
        "15445": 249,
        "15446": 225,
        "15447": 249,
        "15448": 62,
        "15449": 207,
        "15450": 0,
        "15451": 235,
        "15452": 57,
        "15453": 213,
        "15454": 217,
        "15455": 207,
        "15456": 175,
        "15457": 16,
        "15458": 242,
        "15459": 45,
        "15460": 45,
        "15461": 199,
        "15462": 138,
        "15463": 191,
        "15464": 243,
        "15465": 23,
        "15466": 79,
        "15467": 127,
        "15468": 82,
        "15469": 20,
        "15470": 44,
        "15471": 60,
        "15472": 183,
        "15473": 159,
        "15474": 84,
        "15475": 120,
        "15476": 150,
        "15477": 196,
        "15478": 102,
        "15479": 23,
        "15480": 48,
        "15481": 40,
        "15482": 112,
        "15483": 148,
        "15484": 83,
        "15485": 75,
        "15486": 162,
        "15487": 148,
        "15488": 51,
        "15489": 206,
        "15490": 32,
        "15491": 240,
        "15492": 117,
        "15493": 43,
        "15494": 194,
        "15495": 236,
        "15496": 114,
        "15497": 3,
        "15498": 105,
        "15499": 255,
        "15500": 116,
        "15501": 91,
        "15502": 170,
        "15503": 153,
        "15504": 62,
        "15505": 36,
        "15506": 215,
        "15507": 183,
        "15508": 213,
        "15509": 103,
        "15510": 41,
        "15511": 170,
        "15512": 91,
        "15513": 114,
        "15514": 88,
        "15515": 9,
        "15516": 167,
        "15517": 114,
        "15518": 191,
        "15519": 206,
        "15520": 174,
        "15521": 246,
        "15522": 145,
        "15523": 235,
        "15524": 158,
        "15525": 19,
        "15526": 35,
        "15527": 176,
        "15528": 88,
        "15529": 164,
        "15530": 134,
        "15531": 99,
        "15532": 155,
        "15533": 234,
        "15534": 81,
        "15535": 193,
        "15536": 209,
        "15537": 205,
        "15538": 151,
        "15539": 60,
        "15540": 54,
        "15541": 83,
        "15542": 203,
        "15543": 99,
        "15544": 179,
        "15545": 29,
        "15546": 79,
        "15547": 28,
        "15548": 234,
        "15549": 32,
        "15550": 191,
        "15551": 158,
        "15552": 14,
        "15553": 145,
        "15554": 118,
        "15555": 197,
        "15556": 231,
        "15557": 216,
        "15558": 146,
        "15559": 152,
        "15560": 149,
        "15561": 51,
        "15562": 8,
        "15563": 247,
        "15564": 24,
        "15565": 123,
        "15566": 180,
        "15567": 113,
        "15568": 101,
        "15569": 5,
        "15570": 171,
        "15571": 188,
        "15572": 24,
        "15573": 15,
        "15574": 92,
        "15575": 237,
        "15576": 181,
        "15577": 25,
        "15578": 193,
        "15579": 187,
        "15580": 182,
        "15581": 50,
        "15582": 192,
        "15583": 235,
        "15584": 154,
        "15585": 218,
        "15586": 185,
        "15587": 210,
        "15588": 82,
        "15589": 121,
        "15590": 89,
        "15591": 109,
        "15592": 170,
        "15593": 113,
        "15594": 139,
        "15595": 216,
        "15596": 235,
        "15597": 11,
        "15598": 63,
        "15599": 164,
        "15600": 136,
        "15601": 221,
        "15602": 79,
        "15603": 211,
        "15604": 109,
        "15605": 24,
        "15606": 56,
        "15607": 219,
        "15608": 150,
        "15609": 233,
        "15610": 231,
        "15611": 8,
        "15612": 108,
        "15613": 93,
        "15614": 90,
        "15615": 113,
        "15616": 194,
        "15617": 57,
        "15618": 137,
        "15619": 26,
        "15620": 114,
        "15621": 4,
        "15622": 135,
        "15623": 40,
        "15624": 245,
        "15625": 228,
        "15626": 36,
        "15627": 100,
        "15628": 68,
        "15629": 47,
        "15630": 71,
        "15631": 53,
        "15632": 250,
        "15633": 96,
        "15634": 48,
        "15635": 45,
        "15636": 42,
        "15637": 175,
        "15638": 158,
        "15639": 117,
        "15640": 54,
        "15641": 74,
        "15642": 38,
        "15643": 29,
        "15644": 203,
        "15645": 23,
        "15646": 206,
        "15647": 2,
        "15648": 233,
        "15649": 41,
        "15650": 204,
        "15651": 231,
        "15652": 153,
        "15653": 206,
        "15654": 210,
        "15655": 225,
        "15656": 254,
        "15657": 214,
        "15658": 175,
        "15659": 61,
        "15660": 103,
        "15661": 226,
        "15662": 20,
        "15663": 217,
        "15664": 5,
        "15665": 155,
        "15666": 133,
        "15667": 253,
        "15668": 163,
        "15669": 166,
        "15670": 156,
        "15671": 229,
        "15672": 236,
        "15673": 64,
        "15674": 21,
        "15675": 14,
        "15676": 71,
        "15677": 39,
        "15678": 32,
        "15679": 4,
        "15680": 83,
        "15681": 221,
        "15682": 9,
        "15683": 103,
        "15684": 134,
        "15685": 199,
        "15686": 53,
        "15687": 136,
        "15688": 143,
        "15689": 211,
        "15690": 239,
        "15691": 145,
        "15692": 174,
        "15693": 17,
        "15694": 114,
        "15695": 97,
        "15696": 124,
        "15697": 48,
        "15698": 110,
        "15699": 163,
        "15700": 136,
        "15701": 148,
        "15702": 219,
        "15703": 217,
        "15704": 153,
        "15705": 135,
        "15706": 95,
        "15707": 90,
        "15708": 226,
        "15709": 216,
        "15710": 147,
        "15711": 35,
        "15712": 194,
        "15713": 40,
        "15714": 188,
        "15715": 254,
        "15716": 204,
        "15717": 205,
        "15718": 255,
        "15719": 116,
        "15720": 35,
        "15721": 73,
        "15722": 234,
        "15723": 73,
        "15724": 220,
        "15725": 149,
        "15726": 175,
        "15727": 15,
        "15728": 43,
        "15729": 252,
        "15730": 231,
        "15731": 233,
        "15732": 144,
        "15733": 129,
        "15734": 106,
        "15735": 24,
        "15736": 119,
        "15737": 199,
        "15738": 110,
        "15739": 177,
        "15740": 171,
        "15741": 200,
        "15742": 188,
        "15743": 3,
        "15744": 172,
        "15745": 143,
        "15746": 235,
        "15747": 227,
        "15748": 137,
        "15749": 156,
        "15750": 209,
        "15751": 120,
        "15752": 109,
        "15753": 0,
        "15754": 56,
        "15755": 236,
        "15756": 168,
        "15757": 135,
        "15758": 42,
        "15759": 107,
        "15760": 78,
        "15761": 180,
        "15762": 93,
        "15763": 153,
        "15764": 128,
        "15765": 167,
        "15766": 8,
        "15767": 102,
        "15768": 67,
        "15769": 28,
        "15770": 91,
        "15771": 193,
        "15772": 14,
        "15773": 14,
        "15774": 215,
        "15775": 131,
        "15776": 60,
        "15777": 92,
        "15778": 251,
        "15779": 174,
        "15780": 126,
        "15781": 31,
        "15782": 85,
        "15783": 8,
        "15784": 141,
        "15785": 240,
        "15786": 138,
        "15787": 87,
        "15788": 80,
        "15789": 104,
        "15790": 64,
        "15791": 176,
        "15792": 53,
        "15793": 210,
        "15794": 214,
        "15795": 148,
        "15796": 81,
        "15797": 134,
        "15798": 164,
        "15799": 47,
        "15800": 131,
        "15801": 40,
        "15802": 165,
        "15803": 230,
        "15804": 230,
        "15805": 90,
        "15806": 58,
        "15807": 183,
        "15808": 16,
        "15809": 219,
        "15810": 248,
        "15811": 40,
        "15812": 20,
        "15813": 81,
        "15814": 40,
        "15815": 35,
        "15816": 205,
        "15817": 181,
        "15818": 131,
        "15819": 145,
        "15820": 49,
        "15821": 210,
        "15822": 73,
        "15823": 162,
        "15824": 115,
        "15825": 74,
        "15826": 33,
        "15827": 28,
        "15828": 149,
        "15829": 167,
        "15830": 12,
        "15831": 39,
        "15832": 180,
        "15833": 102,
        "15834": 24,
        "15835": 186,
        "15836": 111,
        "15837": 116,
        "15838": 229,
        "15839": 138,
        "15840": 3,
        "15841": 231,
        "15842": 23,
        "15843": 253,
        "15844": 239,
        "15845": 71,
        "15846": 250,
        "15847": 29,
        "15848": 206,
        "15849": 43,
        "15850": 229,
        "15851": 27,
        "15852": 154,
        "15853": 36,
        "15854": 106,
        "15855": 240,
        "15856": 198,
        "15857": 36,
        "15858": 70,
        "15859": 228,
        "15860": 138,
        "15861": 185,
        "15862": 51,
        "15863": 118,
        "15864": 43,
        "15865": 129,
        "15866": 222,
        "15867": 172,
        "15868": 89,
        "15869": 12,
        "15870": 20,
        "15871": 192,
        "15872": 29,
        "15873": 118,
        "15874": 203,
        "15875": 72,
        "15876": 179,
        "15877": 115,
        "15878": 138,
        "15879": 155,
        "15880": 147,
        "15881": 8,
        "15882": 237,
        "15883": 10,
        "15884": 44,
        "15885": 39,
        "15886": 188,
        "15887": 183,
        "15888": 170,
        "15889": 84,
        "15890": 38,
        "15891": 186,
        "15892": 235,
        "15893": 11,
        "15894": 109,
        "15895": 117,
        "15896": 220,
        "15897": 165,
        "15898": 208,
        "15899": 130,
        "15900": 154,
        "15901": 193,
        "15902": 94,
        "15903": 70,
        "15904": 69,
        "15905": 26,
        "15906": 219,
        "15907": 67,
        "15908": 132,
        "15909": 125,
        "15910": 243,
        "15911": 150,
        "15912": 235,
        "15913": 199,
        "15914": 241,
        "15915": 208,
        "15916": 61,
        "15917": 108,
        "15918": 139,
        "15919": 145,
        "15920": 91,
        "15921": 9,
        "15922": 171,
        "15923": 112,
        "15924": 1,
        "15925": 49,
        "15926": 232,
        "15927": 231,
        "15928": 165,
        "15929": 239,
        "15930": 83,
        "15931": 121,
        "15932": 240,
        "15933": 145,
        "15934": 124,
        "15935": 173,
        "15936": 190,
        "15937": 33,
        "15938": 37,
        "15939": 143,
        "15940": 54,
        "15941": 61,
        "15942": 211,
        "15943": 82,
        "15944": 105,
        "15945": 146,
        "15946": 50,
        "15947": 207,
        "15948": 202,
        "15949": 42,
        "15950": 251,
        "15951": 73,
        "15952": 179,
        "15953": 113,
        "15954": 219,
        "15955": 91,
        "15956": 119,
        "15957": 99,
        "15958": 120,
        "15959": 56,
        "15960": 201,
        "15961": 180,
        "15962": 156,
        "15963": 213,
        "15964": 33,
        "15965": 13,
        "15966": 44,
        "15967": 64,
        "15968": 98,
        "15969": 11,
        "15970": 233,
        "15971": 64,
        "15972": 114,
        "15973": 128,
        "15974": 162,
        "15975": 106,
        "15976": 163,
        "15977": 192,
        "15978": 96,
        "15979": 236,
        "15980": 0,
        "15981": 188,
        "15982": 110,
        "15983": 226,
        "15984": 62,
        "15985": 235,
        "15986": 31,
        "15987": 63,
        "15988": 220,
        "15989": 100,
        "15990": 19,
        "15991": 24,
        "15992": 36,
        "15993": 196,
        "15994": 116,
        "15995": 185,
        "15996": 34,
        "15997": 48,
        "15998": 241,
        "15999": 49,
        "16000": 127,
        "16001": 252,
        "16002": 199,
        "16003": 208,
        "16004": 109,
        "16005": 21,
        "16006": 18,
        "16007": 11,
        "16008": 77,
        "16009": 100,
        "16010": 97,
        "16011": 183,
        "16012": 163,
        "16013": 183,
        "16014": 137,
        "16015": 229,
        "16016": 190,
        "16017": 102,
        "16018": 31,
        "16019": 220,
        "16020": 156,
        "16021": 22,
        "16022": 127,
        "16023": 198,
        "16024": 204,
        "16025": 206,
        "16026": 160,
        "16027": 196,
        "16028": 128,
        "16029": 98,
        "16030": 161,
        "16031": 235,
        "16032": 90,
        "16033": 157,
        "16034": 156,
        "16035": 24,
        "16036": 202,
        "16037": 144,
        "16038": 159,
        "16039": 94,
        "16040": 42,
        "16041": 99,
        "16042": 163,
        "16043": 124,
        "16044": 233,
        "16045": 17,
        "16046": 175,
        "16047": 241,
        "16048": 25,
        "16049": 140,
        "16050": 128,
        "16051": 221,
        "16052": 205,
        "16053": 210,
        "16054": 121,
        "16055": 149,
        "16056": 24,
        "16057": 158,
        "16058": 189,
        "16059": 40,
        "16060": 252,
        "16061": 39,
        "16062": 129,
        "16063": 196,
        "16064": 110,
        "16065": 52,
        "16066": 25,
        "16067": 93,
        "16068": 220,
        "16069": 110,
        "16070": 244,
        "16071": 198,
        "16072": 30,
        "16073": 35,
        "16074": 143,
        "16075": 120,
        "16076": 179,
        "16077": 55,
        "16078": 204,
        "16079": 238,
        "16080": 160,
        "16081": 133,
        "16082": 43,
        "16083": 158,
        "16084": 183,
        "16085": 105,
        "16086": 47,
        "16087": 45,
        "16088": 122,
        "16089": 225,
        "16090": 166,
        "16091": 86,
        "16092": 108,
        "16093": 185,
        "16094": 14,
        "16095": 59,
        "16096": 84,
        "16097": 15,
        "16098": 129,
        "16099": 9,
        "16100": 176,
        "16101": 199,
        "16102": 168,
        "16103": 141,
        "16104": 134,
        "16105": 103,
        "16106": 188,
        "16107": 119,
        "16108": 222,
        "16109": 93,
        "16110": 209,
        "16111": 213,
        "16112": 15,
        "16113": 228,
        "16114": 210,
        "16115": 121,
        "16116": 32,
        "16117": 58,
        "16118": 254,
        "16119": 105,
        "16120": 147,
        "16121": 55,
        "16122": 27,
        "16123": 100,
        "16124": 97,
        "16125": 40,
        "16126": 246,
        "16127": 185,
        "16128": 84,
        "16129": 115,
        "16130": 34,
        "16131": 229,
        "16132": 233,
        "16133": 94,
        "16134": 176,
        "16135": 220,
        "16136": 49,
        "16137": 54,
        "16138": 75,
        "16139": 250,
        "16140": 210,
        "16141": 4,
        "16142": 129,
        "16143": 133,
        "16144": 153,
        "16145": 93,
        "16146": 199,
        "16147": 184,
        "16148": 20,
        "16149": 134,
        "16150": 178,
        "16151": 223,
        "16152": 19,
        "16153": 164,
        "16154": 250,
        "16155": 242,
        "16156": 251,
        "16157": 94,
        "16158": 29,
        "16159": 234,
        "16160": 208,
        "16161": 67,
        "16162": 162,
        "16163": 214,
        "16164": 249,
        "16165": 202,
        "16166": 31,
        "16167": 179,
        "16168": 144,
        "16169": 21,
        "16170": 198,
        "16171": 64,
        "16172": 37,
        "16173": 49,
        "16174": 98,
        "16175": 62,
        "16176": 240,
        "16177": 63,
        "16178": 205,
        "16179": 2,
        "16180": 222,
        "16181": 224,
        "16182": 221,
        "16183": 146,
        "16184": 214,
        "16185": 168,
        "16186": 15,
        "16187": 114,
        "16188": 146,
        "16189": 12,
        "16190": 250,
        "16191": 30,
        "16192": 145,
        "16193": 55,
        "16194": 82,
        "16195": 125,
        "16196": 68,
        "16197": 252,
        "16198": 67,
        "16199": 8,
        "16200": 98,
        "16201": 17,
        "16202": 137,
        "16203": 186,
        "16204": 136,
        "16205": 231,
        "16206": 40,
        "16207": 149,
        "16208": 64,
        "16209": 21,
        "16210": 80,
        "16211": 117,
        "16212": 95,
        "16213": 235,
        "16214": 248,
        "16215": 73,
        "16216": 39,
        "16217": 190,
        "16218": 24,
        "16219": 112,
        "16220": 98,
        "16221": 55,
        "16222": 63,
        "16223": 214,
        "16224": 205,
        "16225": 209,
        "16226": 238,
        "16227": 33,
        "16228": 96,
        "16229": 215,
        "16230": 244,
        "16231": 242,
        "16232": 7,
        "16233": 175,
        "16234": 29,
        "16235": 129,
        "16236": 105,
        "16237": 182,
        "16238": 64,
        "16239": 90,
        "16240": 87,
        "16241": 250,
        "16242": 51,
        "16243": 56,
        "16244": 22,
        "16245": 172,
        "16246": 110,
        "16247": 210,
        "16248": 3,
        "16249": 141,
        "16250": 147,
        "16251": 172,
        "16252": 114,
        "16253": 49,
        "16254": 59,
        "16255": 155,
        "16256": 9,
        "16257": 192,
        "16258": 56,
        "16259": 203,
        "16260": 193,
        "16261": 138,
        "16262": 182,
        "16263": 97,
        "16264": 171,
        "16265": 159,
        "16266": 74,
        "16267": 147,
        "16268": 220,
        "16269": 176,
        "16270": 130,
        "16271": 134,
        "16272": 217,
        "16273": 27,
        "16274": 155,
        "16275": 125,
        "16276": 204,
        "16277": 174,
        "16278": 20,
        "16279": 188,
        "16280": 176,
        "16281": 66,
        "16282": 205,
        "16283": 148,
        "16284": 245,
        "16285": 90,
        "16286": 124,
        "16287": 178,
        "16288": 248,
        "16289": 27,
        "16290": 81,
        "16291": 179,
        "16292": 104,
        "16293": 18,
        "16294": 33,
        "16295": 115,
        "16296": 213,
        "16297": 240,
        "16298": 20,
        "16299": 37,
        "16300": 78,
        "16301": 48,
        "16302": 26,
        "16303": 85,
        "16304": 99,
        "16305": 222,
        "16306": 81,
        "16307": 161,
        "16308": 30,
        "16309": 248,
        "16310": 190,
        "16311": 157,
        "16312": 255,
        "16313": 212,
        "16314": 245,
        "16315": 180,
        "16316": 32,
        "16317": 210,
        "16318": 55,
        "16319": 104,
        "16320": 4,
        "16321": 232,
        "16322": 244,
        "16323": 63,
        "16324": 101,
        "16325": 234,
        "16326": 207,
        "16327": 36,
        "16328": 131,
        "16329": 56,
        "16330": 62,
        "16331": 225,
        "16332": 93,
        "16333": 241,
        "16334": 118,
        "16335": 242,
        "16336": 199,
        "16337": 157,
        "16338": 70,
        "16339": 203,
        "16340": 191,
        "16341": 175,
        "16342": 210,
        "16343": 48,
        "16344": 138,
        "16345": 33,
        "16346": 57,
        "16347": 27,
        "16348": 33,
        "16349": 68,
        "16350": 250,
        "16351": 189,
        "16352": 109,
        "16353": 197,
        "16354": 79,
        "16355": 249,
        "16356": 188,
        "16357": 149,
        "16358": 199,
        "16359": 199,
        "16360": 86,
        "16361": 111,
        "16362": 117,
        "16363": 90,
        "16364": 50,
        "16365": 205,
        "16366": 112,
        "16367": 12,
        "16368": 34,
        "16369": 193,
        "16370": 205,
        "16371": 242,
        "16372": 49,
        "16373": 212,
        "16374": 136,
        "16375": 170,
        "16376": 23,
        "16377": 124,
        "16378": 49,
        "16379": 142,
        "16380": 136,
        "16381": 147,
        "16382": 118,
        "16383": 38,
        "16384": 234,
        "16385": 126,
        "16386": 238,
        "16387": 179,
        "16388": 156,
        "16389": 190,
        "16390": 180,
        "16391": 87,
        "16392": 107,
        "16393": 166,
        "16394": 171,
        "16395": 230,
        "16396": 231,
        "16397": 36,
        "16398": 37,
        "16399": 216,
        "16400": 171,
        "16401": 151,
        "16402": 205,
        "16403": 127,
        "16404": 80,
        "16405": 78,
        "16406": 2,
        "16407": 40,
        "16408": 126,
        "16409": 124,
        "16410": 115,
        "16411": 38,
        "16412": 170,
        "16413": 90,
        "16414": 37,
        "16415": 6,
        "16416": 65,
        "16417": 161,
        "16418": 246,
        "16419": 236,
        "16420": 243,
        "16421": 2,
        "16422": 163,
        "16423": 117,
        "16424": 209,
        "16425": 248,
        "16426": 253,
        "16427": 248,
        "16428": 223,
        "16429": 4,
        "16430": 180,
        "16431": 104,
        "16432": 255,
        "16433": 152,
        "16434": 133,
        "16435": 86,
        "16436": 59,
        "16437": 22,
        "16438": 95,
        "16439": 73,
        "16440": 119,
        "16441": 183,
        "16442": 197,
        "16443": 41,
        "16444": 109,
        "16445": 40,
        "16446": 47,
        "16447": 97,
        "16448": 205,
        "16449": 50,
        "16450": 37,
        "16451": 197,
        "16452": 10,
        "16453": 38,
        "16454": 120,
        "16455": 90,
        "16456": 95,
        "16457": 72,
        "16458": 137,
        "16459": 85,
        "16460": 14,
        "16461": 79,
        "16462": 166,
        "16463": 100,
        "16464": 233,
        "16465": 33,
        "16466": 243,
        "16467": 80,
        "16468": 17,
        "16469": 177,
        "16470": 213,
        "16471": 198,
        "16472": 47,
        "16473": 131,
        "16474": 198,
        "16475": 65,
        "16476": 22,
        "16477": 160,
        "16478": 96,
        "16479": 44,
        "16480": 134,
        "16481": 112,
        "16482": 152,
        "16483": 139,
        "16484": 221,
        "16485": 24,
        "16486": 14,
        "16487": 105,
        "16488": 146,
        "16489": 247,
        "16490": 208,
        "16491": 58,
        "16492": 66,
        "16493": 6,
        "16494": 8,
        "16495": 104,
        "16496": 124,
        "16497": 81,
        "16498": 36,
        "16499": 82,
        "16500": 20,
        "16501": 242,
        "16502": 52,
        "16503": 9,
        "16504": 126,
        "16505": 143,
        "16506": 21,
        "16507": 53,
        "16508": 203,
        "16509": 179,
        "16510": 183,
        "16511": 254,
        "16512": 89,
        "16513": 183,
        "16514": 148,
        "16515": 185,
        "16516": 137,
        "16517": 127,
        "16518": 130,
        "16519": 110,
        "16520": 1,
        "16521": 8,
        "16522": 0,
        "16523": 0,
        "16524": 0,
        "16525": 0,
        "16526": 0,
        "16527": 0,
        "16528": 16,
        "16529": 0,
        "16530": 0,
        "16531": 0,
        "16532": 0,
        "16533": 0,
        "16534": 0,
        "16535": 0,
        "16536": 0,
        "16537": 0,
        "16538": 0,
        "16539": 0,
        "16540": 0,
        "16541": 0,
        "16542": 0,
        "16543": 0,
        "16544": 0,
        "16545": 0,
        "16546": 0,
        "16547": 0,
        "16548": 0,
        "16549": 0,
        "16550": 0,
        "16551": 0,
        "16552": 64,
        "16553": 0,
        "16554": 0,
        "16555": 0,
        "16556": 0,
        "16557": 0,
        "16558": 0,
        "16559": 0,
        "16560": 3,
        "16561": 0,
        "16562": 0,
        "16563": 0,
        "16564": 0,
        "16565": 0,
        "16566": 0,
        "16567": 0,
        "16568": 4,
        "16569": 0,
        "16570": 0,
        "16571": 0,
        "16572": 0,
        "16573": 0,
        "16574": 0,
        "16575": 0,
        "16576": 4,
        "16577": 0,
        "16578": 0,
        "16579": 0,
        "16580": 0,
        "16581": 0,
        "16582": 0,
        "16583": 0,
        "16584": 0,
        "16585": 0,
        "16586": 0,
        "16587": 0,
        "16588": 1,
        "16589": 0,
        "16590": 0,
        "16591": 0,
        "16592": 0,
        "16593": 0,
        "16594": 0,
        "16595": 0,
        "16596": 16,
        "16597": 0,
        "16598": 0,
        "16599": 0,
        "16600": 0,
        "16601": 0,
        "16602": 0,
        "16603": 0
      }
    }
  ],
  "numDeployments": 1,
  "solcInputHash": "c0e889dcb69b76266f445d0fe3402b92",
  "bytecode": "0x6101606040526200001760006200026660201b60201c565b6002553480156200002757600080fd5b50604051620046173803806200461783398181016040528101906200004d919062000b83565b6040518060400160405280600881526020017f46616b652046475a0000000000000000000000000000000000000000000000008152506040518060400160405280600481526020017f6646475a00000000000000000000000000000000000000000000000000000000815250338383836040518060400160405280601181526020017f4668656e6978205065726d697373696f6e0000000000000000000000000000008152506040518060400160405280600381526020017f312e3000000000000000000000000000000000000000000000000000000000008152506200013f6000836200028260201b90919060201c565b61012081815250506200015d6001826200028260201b90919060201c565b6101408181525050818051906020012060e08181525050808051906020012061010081815250504660a081815250506200019c620002da60201b60201c565b608081815250503073ffffffffffffffffffffffffffffffffffffffff1660c08173ffffffffffffffffffffffffffffffffffffffff168152505050508160059081620001ea919062000e1f565b508060069081620001fc919062000e1f565b505050600062000212826200033760201b60201c565b9050620002486200023c8262000230617fff6200026660201b60201c565b6200035560201b60201c565b620003f860201b60201c565b6200025a8382620004cb60201b60201c565b50505050505062001260565b60006200027b8260026200057160201b60201c565b9050919050565b6000602083511015620002a857620002a0836200062860201b60201c565b9050620002d4565b82620002ba836200069560201b60201c565b6000019081620002cb919062000e1f565b5060ff60001b90505b92915050565b60007f8b73c3c69bb8fe3d512ecc4cf759cc79239f7b179b0ffacaa9a75d522b39400f60e0516101005146306040516020016200031c95949392919062000f77565b60405160208183030381529060405280519060200120905090565b60006200034e82600001516200069f60201b60201c565b9050919050565b60006200036883620006bb60201b60201c565b62000382576200037f60006200026660201b60201c565b92505b6200039382620006bb60201b60201c565b620003ad57620003aa60006200026660201b60201c565b91505b600083905060008390506000620003ea60028484608073ffffffffffffffffffffffffffffffffffffffff1663eb274b77620006c860201b60201c565b905080935050505092915050565b62000409816200077960201b60201c565b62000423576200042060006200078660201b60201c565b90505b600081905060006200043b82620007a260201b60201c565b9050608073ffffffffffffffffffffffffffffffffffffffff16637d23f1db600d836040518363ffffffff1660e01b81526004016200047c9291906200104f565b600060405180830381865afa1580156200049a573d6000803e3d6000fd5b505050506040513d6000823e3d601f19601f82011682018060405250810190620004c5919062001083565b50505050565b62000516600360008473ffffffffffffffffffffffffffffffffffffffff1673ffffffffffffffffffffffffffffffffffffffff168152602001908152602001600020548262000803565b600360008473ffffffffffffffffffffffffffffffffffffffff1673ffffffffffffffffffffffffffffffffffffffff16815260200190815260200160002081905550620005676002548262000803565b6002819055505050565b60006060608073ffffffffffffffffffffffffffffffffffffffff166319e1c5c4620005a386620007a260201b60201c565b856040518363ffffffff1660e01b8152600401620005c3929190620010d4565b600060405180830381865afa158015620005e1573d6000803e3d6000fd5b505050506040513d6000823e3d601f19601f820116820180604052508101906200060c919062001083565b90506200061f816200081f60201b60201c565b91505092915050565b600080829050601f815111156200067857826040517f305a27a90000000000000000000000000000000000000000000000000000000081526004016200066f91906200115a565b60405180910390fd5b8051816200068690620011a5565b60001c1760001b915050919050565b6000819050919050565b6000620006b48260026200082d60201b60201c565b9050919050565b6000808214159050919050565b60006060838388620006e089620007a260201b60201c565b620006f189620007a260201b60201c565b6040518463ffffffff1660e01b8152600401620007119392919062001215565b600060405180830381865afa1580156200072f573d6000803e3d6000fd5b505050506040513d6000823e3d601f19601f820116820180604052508101906200075a919062001083565b90506200076d81620008d460201b60201c565b91505095945050505050565b6000808214159050919050565b60006200079b82600d6200057160201b60201c565b9050919050565b6060602067ffffffffffffffff811115620007c257620007c1620009ae565b5b6040519080825280601f01601f191660200182016040528015620007f55781602001600182028036833780820191505090505b509050816020820152919050565b6000620008178383620008e260201b60201c565b905092915050565b600060208201519050919050565b60006060608073ffffffffffffffffffffffffffffffffffffffff16635fa55ca784866040518363ffffffff1660e01b81526004016200086f9291906200104f565b600060405180830381865afa1580156200088d573d6000803e3d6000fd5b505050506040513d6000823e3d601f19601f82011682018060405250810190620008b8919062001083565b9050620008cb816200081f60201b60201c565b91505092915050565b600060208201519050919050565b6000620008f583620006bb60201b60201c565b6200090f576200090c60006200026660201b60201c565b92505b6200092082620006bb60201b60201c565b6200093a576200093760006200026660201b60201c565b91505b6000839050600083905060006200097660028484608073ffffffffffffffffffffffffffffffffffffffff16622df619620006c860201b60201c565b905080935050505092915050565b6000604051905090565b600080fd5b600080fd5b600080fd5b6000601f19601f8301169050919050565b7f4e487b7100000000000000000000000000000000000000000000000000000000600052604160045260246000fd5b620009e8826200099d565b810181811067ffffffffffffffff8211171562000a0a5762000a09620009ae565b5b80604052505050565b600062000a1f62000984565b905062000a2d8282620009dd565b919050565b600080fd5b600080fd5b600080fd5b600067ffffffffffffffff82111562000a5f5762000a5e620009ae565b5b62000a6a826200099d565b9050602081019050919050565b60005b8381101562000a9757808201518184015260208101905062000a7a565b60008484015250505050565b600062000aba62000ab48462000a41565b62000a13565b90508281526020810184848401111562000ad95762000ad862000a3c565b5b62000ae684828562000a77565b509392505050565b600082601f83011262000b065762000b0562000a37565b5b815162000b1884826020860162000aa3565b91505092915050565b60006020828403121562000b3a5762000b3962000998565b5b62000b46602062000a13565b9050600082015167ffffffffffffffff81111562000b695762000b6862000a32565b5b62000b778482850162000aee565b60008301525092915050565b60006020828403121562000b9c5762000b9b6200098e565b5b600082015167ffffffffffffffff81111562000bbd5762000bbc62000993565b5b62000bcb8482850162000b21565b91505092915050565b600081519050919050565b7f4e487b7100000000000000000000000000000000000000000000000000000000600052602260045260246000fd5b6000600282049050600182168062000c2757607f821691505b60208210810362000c3d5762000c3c62000bdf565b5b50919050565b60008190508160005260206000209050919050565b60006020601f8301049050919050565b600082821b905092915050565b60006008830262000ca77fffffffffffffffffffffffffffffffffffffffffffffffffffffffffffffffff8262000c68565b62000cb3868362000c68565b95508019841693508086168417925050509392505050565b6000819050919050565b6000819050919050565b600062000d0062000cfa62000cf48462000ccb565b62000cd5565b62000ccb565b9050919050565b6000819050919050565b62000d1c8362000cdf565b62000d3462000d2b8262000d07565b84845462000c75565b825550505050565b600090565b62000d4b62000d3c565b62000d5881848462000d11565b505050565b5b8181101562000d805762000d7460008262000d41565b60018101905062000d5e565b5050565b601f82111562000dcf5762000d998162000c43565b62000da48462000c58565b8101602085101562000db4578190505b62000dcc62000dc38562000c58565b83018262000d5d565b50505b505050565b600082821c905092915050565b600062000df46000198460080262000dd4565b1980831691505092915050565b600062000e0f838362000de1565b9150826002028217905092915050565b62000e2a8262000bd4565b67ffffffffffffffff81111562000e465762000e45620009ae565b5b62000e52825462000c0e565b62000e5f82828562000d84565b600060209050601f83116001811462000e97576000841562000e82578287015190505b62000e8e858262000e01565b86555062000efe565b601f19841662000ea78662000c43565b60005b8281101562000ed15784890151825560018201915060208501945060208101905062000eaa565b8683101562000ef1578489015162000eed601f89168262000de1565b8355505b6001600288020188555050505b505050505050565b6000819050919050565b62000f1b8162000f06565b82525050565b62000f2c8162000ccb565b82525050565b600073ffffffffffffffffffffffffffffffffffffffff82169050919050565b600062000f5f8262000f32565b9050919050565b62000f718162000f52565b82525050565b600060a08201905062000f8e600083018862000f10565b62000f9d602083018762000f10565b62000fac604083018662000f10565b62000fbb606083018562000f21565b62000fca608083018462000f66565b9695505050505050565b600060ff82169050919050565b62000fec8162000fd4565b82525050565b600081519050919050565b600082825260208201905092915050565b60006200101b8262000ff2565b62001027818562000ffd565b93506200103981856020860162000a77565b62001044816200099d565b840191505092915050565b600060408201905062001066600083018562000fe1565b81810360208301526200107a81846200100e565b90509392505050565b6000602082840312156200109c576200109b6200098e565b5b600082015167ffffffffffffffff811115620010bd57620010bc62000993565b5b620010cb8482850162000aee565b91505092915050565b60006040820190508181036000830152620010f081856200100e565b905062001101602083018462000fe1565b9392505050565b600082825260208201905092915050565b6000620011268262000bd4565b62001132818562001108565b93506200114481856020860162000a77565b6200114f816200099d565b840191505092915050565b6000602082019050818103600083015262001176818462001119565b905092915050565b6000819050602082019050919050565b60006200119c825162000f06565b80915050919050565b6000620011b28262000ff2565b82620011be846200117e565b9050620011cb816200118e565b925060208210156200120e57620012097fffffffffffffffffffffffffffffffffffffffffffffffffffffffffffffffff8360200360080262000c68565b831692505b5050919050565b60006060820190506200122c600083018662000fe1565b81810360208301526200124081856200100e565b905081810360408301526200125681846200100e565b9050949350505050565b60805160a05160c05160e05161010051610120516101405161335c620012bb60003960006118f5015260006118ba0152600061217f0152600061215e015260006119ea01526000611a4001526000611a69015261335c6000f3fe608060405234801561001057600080fd5b50600436106101425760003560e01c80637ecebe00116100b8578063a9059cbb1161007c578063a9059cbb146103b9578063af575a00146103e9578063c4224c1914610419578063d505accf14610449578063d918156e14610465578063dd62ed3e1461049557610142565b80637ecebe00146102fb57806384b0196e1461032b5780638624a3491461034f57806395d89b411461037f5780639f284be71461039d57610142565b80633644e5151161010a5780633644e5151461020157806339c217f71461021f5780635356c4291461024f578063602772041461027f5780636e0505e1146102af57806370a08231146102cb57610142565b806306fdde0314610147578063095ea7b31461016557806318160ddd1461019557806323b872dd146101b3578063313ce567146101e3575b600080fd5b61014f6104c5565b60405161015c9190612433565b60405180910390f35b61017f600480360381019061017a91906124fd565b610557565b60405161018c9190612558565b60405180910390f35b61019d6105ab565b6040516101aa9190612582565b60405180910390f35b6101cd60048036038101906101c8919061259d565b6105bd565b6040516101da9190612558565b60405180910390f35b6101eb610692565b6040516101f8919061260c565b60405180910390f35b610209610697565b6040516102169190612640565b60405180910390f35b6102396004803603810190610234919061267f565b610729565b6040516102469190612716565b60405180910390f35b61026960048036038101906102649190612750565b61074e565b6040516102769190612433565b60405180910390f35b61029960048036038101906102949190612983565b6108bf565b6040516102a69190612433565b60405180910390f35b6102c960048036038101906102c49190612a1b565b6109ec565b005b6102e560048036038101906102e09190612a48565b610b01565b6040516102f29190612582565b60405180910390f35b61031560048036038101906103109190612a48565b610b1c565b6040516103229190612582565b60405180910390f35b610333610b37565b6040516103469796959493929190612b7d565b60405180910390f35b61036960048036038101906103649190612c01565b610be1565b6040516103769190612716565b60405180910390f35b610387610c08565b6040516103949190612433565b60405180910390f35b6103b760048036038101906103b29190612a1b565b610c9a565b005b6103d360048036038101906103ce91906124fd565b610da7565b6040516103e09190612558565b60405180910390f35b61040360048036038101906103fe9190612c9c565b610e39565b6040516104109190612716565b60405180910390f35b610433600480360381019061042e9190612cef565b61118f565b6040516104409190612716565b60405180910390f35b610463600480360381019061045e9190612d5b565b611359565b005b61047f600480360381019061047a919061267f565b6114fd565b60405161048c9190612558565b60405180910390f35b6104af60048036038101906104aa9190612dfd565b6115f5565b6040516104bc9190612582565b60405180910390f35b6060600580546104d490612e6c565b80601f016020809104026020016040519081016040528092919081815260200182805461050090612e6c565b801561054d5780601f106105225761010080835404028352916020019161054d565b820191906000526020600020905b81548152906001019060200180831161053057829003601f168201915b5050505050905090565b600082602052637f5e9f20600c5233600052816034600c205581600052602c5160601c337f8c5be1e5ebec7d5bd14f71427d1e84f3dd0314c0f7b2291e5b200ac8c7c3b92560206000a36001905092915050565b60006805345cdf77eb68f44c54905090565b60006105ca848484611615565b8360601b33602052637f5e9f208117600c526034600c20805460018101156106085780851115610602576313be252b6000526004601cfd5b84810382555b6387a211a28317600c526020600c2080548087111561062f5763f4d678b86000526004601cfd5b8681038255876000526020600c2087815401815587602052600c5160601c8660601c7fddf252ad1be2c89b69c2b068fc378daa952ba7f163c4a11628f55a4df523b3ef602080a350505050505061068784848461161a565b600190509392505050565b600090565b6000806106a261161f565b90506000801b81036106c0576106b66104c5565b8051906020012090505b6040517f8b73c3c69bb8fe3d512ecc4cf759cc79239f7b179b0ffacaa9a75d522b39400f81528160208201527fc89efdaa54c0f20c7adf612882df0950f5a951637e0307cdcb4c672f298b8bc6604082015246606082015230608082015260a081209250505090565b6000610746836107418461073c90612ef5565b611624565b61118f565b905092915050565b60608161075a90612f08565b60006107b17f6bdaeb2d29561f159c7ef98b16b27015fb2aeb87209c7ee656226d912f59927d8360000151604051602001610796929190612f1b565b6040516020818303038152906040528051906020012061163a565b905060006107c3828460200151611654565b90503373ffffffffffffffffffffffffffffffffffffffff168173ffffffffffffffffffffffffffffffffffffffff161461082a576040517f3093a27700000000000000000000000000000000000000000000000000000000815260040160405180910390fd5b6108b4600460003373ffffffffffffffffffffffffffffffffffffffff1673ffffffffffffffffffffffffffffffffffffffff16815260200190815260200160002060008873ffffffffffffffffffffffffffffffffffffffff1673ffffffffffffffffffffffffffffffffffffffff168152602001908152602001600020548660000135611680565b935050505092915050565b60608183600061091a7f6bdaeb2d29561f159c7ef98b16b27015fb2aeb87209c7ee656226d912f59927d84600001516040516020016108ff929190612f1b565b6040516020818303038152906040528051906020012061163a565b9050600061092c828560200151611654565b90508273ffffffffffffffffffffffffffffffffffffffff168173ffffffffffffffffffffffffffffffffffffffff1614610993576040517f51c65eae00000000000000000000000000000000000000000000000000000000815260040160405180910390fd5b6109e0600360008973ffffffffffffffffffffffffffffffffffffffff1673ffffffffffffffffffffffffffffffffffffffff168152602001908152602001600020548760000151611680565b94505050505092915050565b6000610a45610a008363ffffffff166116b6565b600360003373ffffffffffffffffffffffffffffffffffffffff1673ffffffffffffffffffffffffffffffffffffffff168152602001908152602001600020546116ca565b9050610a90600360003373ffffffffffffffffffffffffffffffffffffffff1673ffffffffffffffffffffffffffffffffffffffff1681526020019081526020016000205482611743565b600360003373ffffffffffffffffffffffffffffffffffffffff1673ffffffffffffffffffffffffffffffffffffffff16815260200190815260200160002081905550610adf60025482611743565b600281905550610afd33610af283611757565b63ffffffff1661181a565b5050565b60006387a211a2600c52816000526020600c20549050919050565b60006338377508600c52816000526020600c20549050919050565b600060608060008060006060610b4b6118b1565b610b536118ec565b46306000801b600067ffffffffffffffff811115610b7457610b736127b1565b5b604051908082528060200260200182016040528015610ba25781602001602082028036833780820191505090505b507f0f00000000000000000000000000000000000000000000000000000000000000959493929190965096509650965096509650965090919293949596565b6000610bff8484610bfa85610bf590612ef5565b611624565b610e39565b90509392505050565b606060068054610c1790612e6c565b80601f0160208091040260200160405190810160405280929190818152602001828054610c4390612e6c565b8015610c905780601f10610c6557610100808354040283529160200191610c90565b820191906000526020600020905b815481529060010190602001808311610c7357829003601f168201915b5050505050905090565b8063ffffffff16610caa33610b01565b1015610ce2576040517ffda7bbda00000000000000000000000000000000000000000000000000000000815260040160405180910390fd5b610cf2338263ffffffff16611927565b6000610d038263ffffffff166116b6565b9050610d4e600360003373ffffffffffffffffffffffffffffffffffffffff1673ffffffffffffffffffffffffffffffffffffffff16815260200190815260200160002054826119be565b600360003373ffffffffffffffffffffffffffffffffffffffff1673ffffffffffffffffffffffffffffffffffffffff16815260200190815260200160002081905550610d9d600254826119be565b6002819055505050565b6000610db4338484611615565b6387a211a2600c52336000526020600c20805480841115610ddd5763f4d678b86000526004601cfd5b8381038255846000526020600c2084815401815584602052600c5160601c337fddf252ad1be2c89b69c2b068fc378daa952ba7f163c4a11628f55a4df523b3ef602080a3505050610e2f33848461161a565b6001905092915050565b600080610f0a83610f05600360008973ffffffffffffffffffffffffffffffffffffffff1673ffffffffffffffffffffffffffffffffffffffff16815260200190815260200160002054600460008a73ffffffffffffffffffffffffffffffffffffffff1673ffffffffffffffffffffffffffffffffffffffff16815260200190815260200160002060003373ffffffffffffffffffffffffffffffffffffffff1673ffffffffffffffffffffffffffffffffffffffff168152602001908152602001600020546116ca565b6116ca565b9050610f92600460008773ffffffffffffffffffffffffffffffffffffffff1673ffffffffffffffffffffffffffffffffffffffff16815260200190815260200160002060003373ffffffffffffffffffffffffffffffffffffffff1673ffffffffffffffffffffffffffffffffffffffff1681526020019081526020016000205482611743565b600460008773ffffffffffffffffffffffffffffffffffffffff1673ffffffffffffffffffffffffffffffffffffffff16815260200190815260200160002060003373ffffffffffffffffffffffffffffffffffffffff1673ffffffffffffffffffffffffffffffffffffffff1681526020019081526020016000208190555061105b600360008773ffffffffffffffffffffffffffffffffffffffff1673ffffffffffffffffffffffffffffffffffffffff1681526020019081526020016000205482611743565b600360008773ffffffffffffffffffffffffffffffffffffffff1673ffffffffffffffffffffffffffffffffffffffff168152602001908152602001600020819055506110e7600360008673ffffffffffffffffffffffffffffffffffffffff1673ffffffffffffffffffffffffffffffffffffffff16815260200190815260200160002054826119be565b600360008673ffffffffffffffffffffffffffffffffffffffff1673ffffffffffffffffffffffffffffffffffffffff168152602001908152602001600020819055508373ffffffffffffffffffffffffffffffffffffffff168573ffffffffffffffffffffffffffffffffffffffff167f7612539b010127d1a2f810eeff1131de23a28ecfa8228f92a9606a879300fbb560405160405180910390a3809150509392505050565b6000806111db83600360003373ffffffffffffffffffffffffffffffffffffffff1673ffffffffffffffffffffffffffffffffffffffff168152602001908152602001600020546116ca565b9050611226600360003373ffffffffffffffffffffffffffffffffffffffff1673ffffffffffffffffffffffffffffffffffffffff1681526020019081526020016000205482611743565b600360003373ffffffffffffffffffffffffffffffffffffffff1673ffffffffffffffffffffffffffffffffffffffff168152602001908152602001600020819055506112b2600360008673ffffffffffffffffffffffffffffffffffffffff1673ffffffffffffffffffffffffffffffffffffffff16815260200190815260200160002054826119be565b600360008673ffffffffffffffffffffffffffffffffffffffff1673ffffffffffffffffffffffffffffffffffffffff168152602001908152602001600020819055508373ffffffffffffffffffffffffffffffffffffffff163373ffffffffffffffffffffffffffffffffffffffff167f7612539b010127d1a2f810eeff1131de23a28ecfa8228f92a9606a879300fbb560405160405180910390a38091505092915050565b600061136361161f565b90506000801b8103611381576113776104c5565b8051906020012090505b8442111561139757631a15a3cc6000526004601cfd5b6040518860601b60601c98508760601b60601c975065383775081901600e52886000526020600c2080547f8b73c3c69bb8fe3d512ecc4cf759cc79239f7b179b0ffacaa9a75d522b39400f83528360208401527fc89efdaa54c0f20c7adf612882df0950f5a951637e0307cdcb4c672f298b8bc6604084015246606084015230608084015260a08320602e527f6e71edae12b1b97f4d1f60370fef10105fa2faae0126114a169c64845d6126c983528a60208401528960408401528860608401528060808401528760a084015260c08320604e526042602c206000528660ff1660205285604052846060526020806080600060015afa8b3d51146114a35763ddafbaef6000526004601cfd5b80820183558a637f5e9f2060a01b17604052896034602c20558a8c7f8c5be1e5ebec7d5bd14f71427d1e84f3dd0314c0f7b2291e5b200ac8c7c3b925602060608801a3836040526000606052505050505050505050505050565b60006115118261150c90612ef5565b611624565b600460003373ffffffffffffffffffffffffffffffffffffffff1673ffffffffffffffffffffffffffffffffffffffff16815260200190815260200160002060008573ffffffffffffffffffffffffffffffffffffffff1673ffffffffffffffffffffffffffffffffffffffff168152602001908152602001600020819055508273ffffffffffffffffffffffffffffffffffffffff163373ffffffffffffffffffffffffffffffffffffffff167f46f92913a39019d68e630493d23e0cf39761bf253f7b3f8eae384b33e393ed4e60405160405180910390a36001905092915050565b600081602052637f5e9f20600c52826000526034600c2054905092915050565b505050565b505050565b600090565b600061163382600001516119d2565b9050919050565b600061164d6116476119e6565b83611a9d565b9050919050565b6000806000806116648686611ade565b9250925092506116748282611b3a565b82935050505092915050565b606061168b83611c9e565b61169c5761169960006116b6565b92505b60008390506116ad60028285611cab565b91505092915050565b60006116c3826002611d61565b9050919050565b60006116d583611c9e565b6116e6576116e360006116b6565b92505b6116ef82611c9e565b611700576116fd60006116b6565b91505b60008390506000839050600061173560028484608073ffffffffffffffffffffffffffffffffffffffff16635211c679611e03565b905080935050505092915050565b600061174f8383611e97565b905092915050565b600061176282611c9e565b6117735761177060006116b6565b91505b6000829050600061178382611f10565b90506000608073ffffffffffffffffffffffffffffffffffffffff166373cc01546002846040518363ffffffff1660e01b81526004016117c4929190612f99565b602060405180830381865afa1580156117e1573d6000803e3d6000fd5b505050506040513d601f19601f820116820180604052508101906118059190612fde565b905061181081611f6d565b9350505050919050565b61182660008383611615565b6805345cdf77eb68f44c548181018181101561184a5763e5cfe9576000526004601cfd5b806805345cdf77eb68f44c556387a211a2600c52836000526020600c2083815401815583602052600c5160601c60007fddf252ad1be2c89b69c2b068fc378daa952ba7f163c4a11628f55a4df523b3ef602080a35050506118ad6000838361161a565b5050565b60606118e760007f0000000000000000000000000000000000000000000000000000000000000000611f7790919063ffffffff16565b905090565b606061192260017f0000000000000000000000000000000000000000000000000000000000000000611f7790919063ffffffff16565b905090565b61193382600083611615565b6387a211a2600c52816000526020600c2080548083111561195c5763f4d678b86000526004601cfd5b8281038255826805345cdf77eb68f44c54036805345cdf77eb68f44c558260005260008460601b60601c7fddf252ad1be2c89b69c2b068fc378daa952ba7f163c4a11628f55a4df523b3ef60206000a350506119ba8260008361161a565b5050565b60006119ca8383612027565b905092915050565b60006119df82600261209f565b9050919050565b60007f000000000000000000000000000000000000000000000000000000000000000073ffffffffffffffffffffffffffffffffffffffff163073ffffffffffffffffffffffffffffffffffffffff16148015611a6257507f000000000000000000000000000000000000000000000000000000000000000046145b15611a8f577f00000000000000000000000000000000000000000000000000000000000000009050611a9a565b611a97612139565b90505b90565b60006040517f190100000000000000000000000000000000000000000000000000000000000081528360028201528260228201526042812091505092915050565b60008060006041845103611b235760008060006020870151925060408701519150606087015160001a9050611b15888285856121cf565b955095509550505050611b33565b60006002855160001b9250925092505b9250925092565b60006003811115611b4e57611b4d61300b565b5b826003811115611b6157611b6061300b565b5b0315611c9a5760016003811115611b7b57611b7a61300b565b5b826003811115611b8e57611b8d61300b565b5b03611bc5576040517ff645eedf00000000000000000000000000000000000000000000000000000000815260040160405180910390fd5b60026003811115611bd957611bd861300b565b5b826003811115611bec57611beb61300b565b5b03611c31578060001c6040517ffce698f7000000000000000000000000000000000000000000000000000000008152600401611c289190612582565b60405180910390fd5b600380811115611c4457611c4361300b565b5b826003811115611c5757611c5661300b565b5b03611c9957806040517fd78bce0c000000000000000000000000000000000000000000000000000000008152600401611c909190612640565b60405180910390fd5b5b5050565b6000808214159050919050565b6060608073ffffffffffffffffffffffffffffffffffffffff1663a1848ff385611cd486611f10565b85604051602001611ce5919061305b565b6040516020818303038152906040526040518463ffffffff1660e01b8152600401611d1293929190613076565b600060405180830381865afa158015611d2f573d6000803e3d6000fd5b505050506040513d6000823e3d601f19601f82011682018060405250810190611d58919061315c565b90509392505050565b60006060608073ffffffffffffffffffffffffffffffffffffffff166319e1c5c4611d8b86611f10565b856040518363ffffffff1660e01b8152600401611da99291906131a5565b600060405180830381865afa158015611dc6573d6000803e3d6000fd5b505050506040513d6000823e3d601f19601f82011682018060405250810190611def9190613245565b9050611dfa816122c3565b91505092915050565b60006060838388611e1389611f10565b611e1c89611f10565b6040518463ffffffff1660e01b8152600401611e3a93929190613076565b600060405180830381865afa158015611e57573d6000803e3d6000fd5b505050506040513d6000823e3d601f19601f82011682018060405250810190611e809190613245565b9050611e8b816122d1565b91505095945050505050565b6000611ea283611c9e565b611eb357611eb060006116b6565b92505b611ebc82611c9e565b611ecd57611eca60006116b6565b91505b600083905060008390506000611f0260028484608073ffffffffffffffffffffffffffffffffffffffff1663cc2cbeff611e03565b905080935050505092915050565b6060602067ffffffffffffffff811115611f2d57611f2c6127b1565b5b6040519080825280601f01601f191660200182016040528015611f5f5781602001600182028036833780820191505090505b509050816020820152919050565b6000819050919050565b606060ff60001b8314611f9457611f8d836122df565b9050612021565b818054611fa090612e6c565b80601f0160208091040260200160405190810160405280929190818152602001828054611fcc90612e6c565b80156120195780601f10611fee57610100808354040283529160200191612019565b820191906000526020600020905b815481529060010190602001808311611ffc57829003601f168201915b505050505090505b92915050565b600061203283611c9e565b6120435761204060006116b6565b92505b61204c82611c9e565b61205d5761205a60006116b6565b91505b60008390506000839050600061209160028484608073ffffffffffffffffffffffffffffffffffffffff16622df619611e03565b905080935050505092915050565b60006060608073ffffffffffffffffffffffffffffffffffffffff16635fa55ca784866040518363ffffffff1660e01b81526004016120df929190612f99565b600060405180830381865afa1580156120fc573d6000803e3d6000fd5b505050506040513d6000823e3d601f19601f820116820180604052508101906121259190613245565b9050612130816122c3565b91505092915050565b60007f8b73c3c69bb8fe3d512ecc4cf759cc79239f7b179b0ffacaa9a75d522b39400f7f00000000000000000000000000000000000000000000000000000000000000007f000000000000000000000000000000000000000000000000000000000000000046306040516020016121b495949392919061328e565b60405160208183030381529060405280519060200120905090565b60008060007f7fffffffffffffffffffffffffffffff5d576e7357a4501ddfe92f46681b20a08460001c111561220f5760006003859250925092506122b9565b60006001888888886040516000815260200160405260405161223494939291906132e1565b6020604051602081039080840390855afa158015612256573d6000803e3d6000fd5b505050602060405103519050600073ffffffffffffffffffffffffffffffffffffffff168173ffffffffffffffffffffffffffffffffffffffff16036122aa57600060016000801b935093509350506122b9565b8060008060001b935093509350505b9450945094915050565b600060208201519050919050565b600060208201519050919050565b606060006122ec83612353565b90506000602067ffffffffffffffff81111561230b5761230a6127b1565b5b6040519080825280601f01601f19166020018201604052801561233d5781602001600182028036833780820191505090505b5090508181528360208201528092505050919050565b60008060ff8360001c169050601f81111561239a576040517fb3512b0c00000000000000000000000000000000000000000000000000000000815260040160405180910390fd5b80915050919050565b600081519050919050565b600082825260208201905092915050565b60005b838110156123dd5780820151818401526020810190506123c2565b60008484015250505050565b6000601f19601f8301169050919050565b6000612405826123a3565b61240f81856123ae565b935061241f8185602086016123bf565b612428816123e9565b840191505092915050565b6000602082019050818103600083015261244d81846123fa565b905092915050565b6000604051905090565b600080fd5b600080fd5b600073ffffffffffffffffffffffffffffffffffffffff82169050919050565b600061249482612469565b9050919050565b6124a481612489565b81146124af57600080fd5b50565b6000813590506124c18161249b565b92915050565b6000819050919050565b6124da816124c7565b81146124e557600080fd5b50565b6000813590506124f7816124d1565b92915050565b600080604083850312156125145761251361245f565b5b6000612522858286016124b2565b9250506020612533858286016124e8565b9150509250929050565b60008115159050919050565b6125528161253d565b82525050565b600060208201905061256d6000830184612549565b92915050565b61257c816124c7565b82525050565b60006020820190506125976000830184612573565b92915050565b6000806000606084860312156125b6576125b561245f565b5b60006125c4868287016124b2565b93505060206125d5868287016124b2565b92505060406125e6868287016124e8565b9150509250925092565b600060ff82169050919050565b612606816125f0565b82525050565b600060208201905061262160008301846125fd565b92915050565b6000819050919050565b61263a81612627565b82525050565b60006020820190506126556000830184612631565b92915050565b600080fd5b6000602082840312156126765761267561265b565b5b81905092915050565b600080604083850312156126965761269561245f565b5b60006126a4858286016124b2565b925050602083013567ffffffffffffffff8111156126c5576126c4612464565b5b6126d185828601612660565b9150509250929050565b6000819050919050565b60006127006126fb6126f6846124c7565b6126db565b6124c7565b9050919050565b612710816126e5565b82525050565b600060208201905061272b6000830184612707565b92915050565b6000604082840312156127475761274661265b565b5b81905092915050565b600080604083850312156127675761276661245f565b5b6000612775858286016124b2565b925050602083013567ffffffffffffffff81111561279657612795612464565b5b6127a285828601612731565b9150509250929050565b600080fd5b7f4e487b7100000000000000000000000000000000000000000000000000000000600052604160045260246000fd5b6127e9826123e9565b810181811067ffffffffffffffff82111715612808576128076127b1565b5b80604052505050565b600061281b612455565b905061282782826127e0565b919050565b600080fd5b61283a81612627565b811461284557600080fd5b50565b60008135905061285781612831565b92915050565b600080fd5b600080fd5b600067ffffffffffffffff821115612882576128816127b1565b5b61288b826123e9565b9050602081019050919050565b82818337600083830152505050565b60006128ba6128b584612867565b612811565b9050828152602081018484840111156128d6576128d5612862565b5b6128e1848285612898565b509392505050565b600082601f8301126128fe576128fd61285d565b5b813561290e8482602086016128a7565b91505092915050565b60006040828403121561292d5761292c6127ac565b5b6129376040612811565b9050600061294784828501612848565b600083015250602082013567ffffffffffffffff81111561296b5761296a61282c565b5b612977848285016128e9565b60208301525092915050565b6000806040838503121561299a5761299961245f565b5b60006129a8858286016124b2565b925050602083013567ffffffffffffffff8111156129c9576129c8612464565b5b6129d585828601612917565b9150509250929050565b600063ffffffff82169050919050565b6129f8816129df565b8114612a0357600080fd5b50565b600081359050612a15816129ef565b92915050565b600060208284031215612a3157612a3061245f565b5b6000612a3f84828501612a06565b91505092915050565b600060208284031215612a5e57612a5d61245f565b5b6000612a6c848285016124b2565b91505092915050565b60007fff0000000000000000000000000000000000000000000000000000000000000082169050919050565b612aaa81612a75565b82525050565b612ab981612489565b82525050565b600081519050919050565b600082825260208201905092915050565b6000819050602082019050919050565b612af4816124c7565b82525050565b6000612b068383612aeb565b60208301905092915050565b6000602082019050919050565b6000612b2a82612abf565b612b348185612aca565b9350612b3f83612adb565b8060005b83811015612b70578151612b578882612afa565b9750612b6283612b12565b925050600181019050612b43565b5085935050505092915050565b600060e082019050612b92600083018a612aa1565b8181036020830152612ba481896123fa565b90508181036040830152612bb881886123fa565b9050612bc76060830187612573565b612bd46080830186612ab0565b612be160a0830185612631565b81810360c0830152612bf38184612b1f565b905098975050505050505050565b600080600060608486031215612c1a57612c1961245f565b5b6000612c28868287016124b2565b9350506020612c39868287016124b2565b925050604084013567ffffffffffffffff811115612c5a57612c59612464565b5b612c6686828701612660565b9150509250925092565b612c79816124c7565b8114612c8457600080fd5b50565b600081359050612c9681612c70565b92915050565b600080600060608486031215612cb557612cb461245f565b5b6000612cc3868287016124b2565b9350506020612cd4868287016124b2565b9250506040612ce586828701612c87565b9150509250925092565b60008060408385031215612d0657612d0561245f565b5b6000612d14858286016124b2565b9250506020612d2585828601612c87565b9150509250929050565b612d38816125f0565b8114612d4357600080fd5b50565b600081359050612d5581612d2f565b92915050565b600080600080600080600060e0888a031215612d7a57612d7961245f565b5b6000612d888a828b016124b2565b9750506020612d998a828b016124b2565b9650506040612daa8a828b016124e8565b9550506060612dbb8a828b016124e8565b9450506080612dcc8a828b01612d46565b93505060a0612ddd8a828b01612848565b92505060c0612dee8a828b01612848565b91505092959891949750929550565b60008060408385031215612e1457612e1361245f565b5b6000612e22858286016124b2565b9250506020612e33858286016124b2565b9150509250929050565b7f4e487b7100000000000000000000000000000000000000000000000000000000600052602260045260246000fd5b60006002820490506001821680612e8457607f821691505b602082108103612e9757612e96612e3d565b5b50919050565b600060208284031215612eb357612eb26127ac565b5b612ebd6020612811565b9050600082013567ffffffffffffffff811115612edd57612edc61282c565b5b612ee9848285016128e9565b60008301525092915050565b6000612f013683612e9d565b9050919050565b6000612f143683612917565b9050919050565b6000604082019050612f306000830185612631565b612f3d6020830184612631565b9392505050565b600081519050919050565b600082825260208201905092915050565b6000612f6b82612f44565b612f758185612f4f565b9350612f858185602086016123bf565b612f8e816123e9565b840191505092915050565b6000604082019050612fae60008301856125fd565b8181036020830152612fc08184612f60565b90509392505050565b600081519050612fd8816124d1565b92915050565b600060208284031215612ff457612ff361245f565b5b600061300284828501612fc9565b91505092915050565b7f4e487b7100000000000000000000000000000000000000000000000000000000600052602160045260246000fd5b6000819050919050565b61305561305082612627565b61303a565b82525050565b60006130678284613044565b60208201915081905092915050565b600060608201905061308b60008301866125fd565b818103602083015261309d8185612f60565b905081810360408301526130b18184612f60565b9050949350505050565b600067ffffffffffffffff8211156130d6576130d56127b1565b5b6130df826123e9565b9050602081019050919050565b60006130ff6130fa846130bb565b612811565b90508281526020810184848401111561311b5761311a612862565b5b6131268482856123bf565b509392505050565b600082601f8301126131435761314261285d565b5b81516131538482602086016130ec565b91505092915050565b6000602082840312156131725761317161245f565b5b600082015167ffffffffffffffff8111156131905761318f612464565b5b61319c8482850161312e565b91505092915050565b600060408201905081810360008301526131bf8185612f60565b90506131ce60208301846125fd565b9392505050565b60006131e86131e384612867565b612811565b90508281526020810184848401111561320457613203612862565b5b61320f8482856123bf565b509392505050565b600082601f83011261322c5761322b61285d565b5b815161323c8482602086016131d5565b91505092915050565b60006020828403121561325b5761325a61245f565b5b600082015167ffffffffffffffff81111561327957613278612464565b5b61328584828501613217565b91505092915050565b600060a0820190506132a36000830188612631565b6132b06020830187612631565b6132bd6040830186612631565b6132ca6060830185612573565b6132d76080830184612ab0565b9695505050505050565b60006080820190506132f66000830187612631565b61330360208301866125fd565b6133106040830185612631565b61331d6060830184612631565b9594505050505056fea264697066735822122054e0a0f4efb5c65f190b631d1807022c518b43b07919c197c9a86ff1e683e47c64736f6c63430008180033",
  "devdoc": {
    "errors": {
      "AllowanceOverflow()": [
        {
          "details": "The allowance has overflowed."
        }
      ],
      "AllowanceUnderflow()": [
        {
          "details": "The allowance has underflowed."
        }
      ],
      "ECDSAInvalidSignature()": [
        {
          "details": "The signature derives the `address(0)`."
        }
      ],
      "ECDSAInvalidSignatureLength(uint256)": [
        {
          "details": "The signature has an invalid length."
        }
      ],
      "ECDSAInvalidSignatureS(bytes32)": [
        {
          "details": "The signature has an S value that is in the upper half order."
        }
      ],
      "InsufficientAllowance()": [
        {
          "details": "Insufficient allowance."
        }
      ],
      "InsufficientBalance()": [
        {
          "details": "Insufficient balance."
        }
      ],
      "InvalidPermit()": [
        {
          "details": "The permit is invalid."
        }
      ],
      "PermitExpired()": [
        {
          "details": "The permit has expired."
        }
      ],
      "TotalSupplyOverflow()": [
        {
          "details": "The total supply has overflowed."
        }
      ]
    },
    "events": {
      "Approval(address,address,uint256)": {
        "details": "Emitted when `amount` tokens is approved by `owner` to be used by `spender`."
      },
      "ApprovalEncrypted(address,address)": {
        "details": "Emitted when the allowance of a `spender` for an `owner` is set by a call to {approveEncrypted}. `value` is the new allowance."
      },
      "EIP712DomainChanged()": {
        "details": "MAY be emitted to signal that the domain could have changed."
      },
      "Transfer(address,address,uint256)": {
        "details": "Emitted when `amount` tokens is transferred from `from` to `to`."
      },
      "TransferEncrypted(address,address)": {
        "details": "Emitted when `value` tokens are moved from one account (`from`) to another (`to`). Note that `value` may be zero."
      }
    },
    "kind": "dev",
    "methods": {
      "DOMAIN_SEPARATOR()": {
        "details": "Returns the EIP-712 domain separator for the EIP-2612 permit."
      },
      "allowance(address,address)": {
        "details": "Returns the amount of tokens that `spender` can spend on behalf of `owner`."
      },
      "allowanceEncrypted(address,(bytes32,bytes))": {
        "details": "Returns the remaining number of tokens that `spender` will be allowed to spend on behalf of `owner` through {transferFrom}. This is zero by default. This value changes when {approve} or {transferFrom} are called."
      },
      "approve(address,uint256)": {
        "details": "Sets `amount` as the allowance of `spender` over the caller's tokens. Emits a {Approval} event."
      },
      "approveEncrypted(address,(bytes))": {
        "details": "Sets a `value` amount of tokens as the allowance of `spender` over the caller's tokens. Returns a boolean value indicating whether the operation succeeded. IMPORTANT: Beware that changing an allowance with this method brings the risk that someone may use both the old and the new allowance by unfortunate transaction ordering. One possible solution to mitigate this race condition is to first reduce the spender's allowance to 0 and set the desired value afterwards: https://github.com/ethereum/EIPs/issues/20#issuecomment-263524729 Emits an {ApprovalEncrypted} event."
      },
      "balanceOf(address)": {
        "details": "Returns the amount of tokens owned by `owner`."
      },
      "balanceOfEncrypted(address,(bytes32,bytes))": {
        "details": "Returns the value of tokens owned by `account`, sealed and encrypted for the caller."
      },
      "decimals()": {
        "details": "Returns the decimals places of the token."
      },
      "eip712Domain()": {
        "details": "See {IERC-5267}."
      },
      "name()": {
        "details": "Returns the name of the token."
      },
      "nonces(address)": {
        "details": "Returns the current nonce for `owner`. This value is used to compute the signature for EIP-2612 permit."
      },
      "permit(address,address,uint256,uint256,uint8,bytes32,bytes32)": {
        "details": "Sets `value` as the allowance of `spender` over the tokens of `owner`, authorized by a signed approval by `owner`. Emits a {Approval} event."
      },
      "symbol()": {
        "details": "Returns the symbol of the token."
      },
      "totalSupply()": {
        "details": "Returns the amount of tokens in existence."
      },
      "transfer(address,uint256)": {
        "details": "Transfer `amount` tokens from the caller to `to`. Requirements: - `from` must at least have `amount`. Emits a {Transfer} event."
      },
      "transferFrom(address,address,uint256)": {
        "details": "Transfers `amount` tokens from `from` to `to`. Note: Does not update the allowance if it is the maximum uint256 value. Requirements: - `from` must at least have `amount`. - The caller must have at least `amount` of allowance to transfer the tokens of `from`. Emits a {Transfer} event."
      },
      "transferFromEncrypted(address,address,(bytes))": {
        "details": "Moves a `value` amount of tokens from `from` to `to` using the allowance mechanism. `value` is then deducted from the caller's allowance. Returns a boolean value indicating whether the operation succeeded. Emits a {TransferEncrypted} event."
      }
    },
    "version": 1
  },
  "userdoc": {
    "errors": {
      "SignerNotMessageSender()": [
        {
          "notice": "Emitted when the signer is not the message sender"
        }
      ],
      "SignerNotOwner()": [
        {
          "notice": "Emitted when the signer is not the specified owner"
        }
      ]
    },
    "kind": "user",
    "methods": {},
    "version": 1
  },
  "storageLayout": {
    "storage": [
      {
        "astId": 16568,
        "contract": "contracts/tokens/FakeFGZ.sol:FakeFGZ",
        "label": "_nameFallback",
        "offset": 0,
        "slot": "0",
        "type": "t_string_storage"
      },
      {
        "astId": 16570,
        "contract": "contracts/tokens/FakeFGZ.sol:FakeFGZ",
        "label": "_versionFallback",
        "offset": 0,
        "slot": "1",
        "type": "t_string_storage"
      },
      {
        "astId": 18126,
        "contract": "contracts/tokens/FakeFGZ.sol:FakeFGZ",
        "label": "_encTotalSupply",
        "offset": 0,
        "slot": "2",
        "type": "t_userDefinedValueType(euint32)12"
      },
      {
        "astId": 18131,
        "contract": "contracts/tokens/FakeFGZ.sol:FakeFGZ",
        "label": "_encBalanceOf",
        "offset": 0,
        "slot": "3",
        "type": "t_mapping(t_address,t_userDefinedValueType(euint32)12)"
      },
      {
        "astId": 18138,
        "contract": "contracts/tokens/FakeFGZ.sol:FakeFGZ",
        "label": "_encAllowance",
        "offset": 0,
        "slot": "4",
        "type": "t_mapping(t_address,t_mapping(t_address,t_userDefinedValueType(euint32)12))"
      },
      {
        "astId": 18140,
        "contract": "contracts/tokens/FakeFGZ.sol:FakeFGZ",
        "label": "_name",
        "offset": 0,
        "slot": "5",
        "type": "t_string_storage"
      },
      {
        "astId": 18142,
        "contract": "contracts/tokens/FakeFGZ.sol:FakeFGZ",
        "label": "_symbol",
        "offset": 0,
        "slot": "6",
        "type": "t_string_storage"
      }
    ],
    "types": {
      "t_address": {
        "encoding": "inplace",
        "label": "address",
        "numberOfBytes": "20"
      },
      "t_mapping(t_address,t_mapping(t_address,t_userDefinedValueType(euint32)12))": {
        "encoding": "mapping",
        "key": "t_address",
        "label": "mapping(address => mapping(address => euint32))",
        "numberOfBytes": "32",
        "value": "t_mapping(t_address,t_userDefinedValueType(euint32)12)"
      },
      "t_mapping(t_address,t_userDefinedValueType(euint32)12)": {
        "encoding": "mapping",
        "key": "t_address",
        "label": "mapping(address => euint32)",
        "numberOfBytes": "32",
        "value": "t_userDefinedValueType(euint32)12"
      },
      "t_string_storage": {
        "encoding": "bytes",
        "label": "string",
        "numberOfBytes": "32"
      },
      "t_userDefinedValueType(euint32)12": {
        "encoding": "inplace",
        "label": "euint32",
        "numberOfBytes": "32"
      }
    }
  }
}