{
  "address": "0x5bAF430247E5B3bDF1A6c405E471Bd41C4948abe",
  "abi": [
    {
      "inputs": [
        {
          "components": [
            {
              "internalType": "bytes",
              "name": "data",
              "type": "bytes"
            }
          ],
          "internalType": "struct inEuint32",
          "name": "_initialSupply",
          "type": "tuple"
        }
      ],
      "stateMutability": "nonpayable",
      "type": "constructor"
    },
    {
      "inputs": [],
      "name": "AllowanceOverflow",
      "type": "error"
    },
    {
      "inputs": [],
      "name": "AllowanceUnderflow",
      "type": "error"
    },
    {
      "inputs": [],
      "name": "ECDSAInvalidSignature",
      "type": "error"
    },
    {
      "inputs": [
        {
          "internalType": "uint256",
          "name": "length",
          "type": "uint256"
        }
      ],
      "name": "ECDSAInvalidSignatureLength",
      "type": "error"
    },
    {
      "inputs": [
        {
          "internalType": "bytes32",
          "name": "s",
          "type": "bytes32"
        }
      ],
      "name": "ECDSAInvalidSignatureS",
      "type": "error"
    },
    {
      "inputs": [],
      "name": "ErrorInsufficientFunds",
      "type": "error"
    },
    {
      "inputs": [],
      "name": "InsufficientAllowance",
      "type": "error"
    },
    {
      "inputs": [],
      "name": "InsufficientBalance",
      "type": "error"
    },
    {
      "inputs": [],
      "name": "InvalidPermit",
      "type": "error"
    },
    {
      "inputs": [],
      "name": "InvalidShortString",
      "type": "error"
    },
    {
      "inputs": [],
      "name": "PermitExpired",
      "type": "error"
    },
    {
      "inputs": [],
      "name": "SignerNotMessageSender",
      "type": "error"
    },
    {
      "inputs": [],
      "name": "SignerNotOwner",
      "type": "error"
    },
    {
      "inputs": [
        {
          "internalType": "string",
          "name": "str",
          "type": "string"
        }
      ],
      "name": "StringTooLong",
      "type": "error"
    },
    {
      "inputs": [],
      "name": "TotalSupplyOverflow",
      "type": "error"
    },
    {
      "anonymous": false,
      "inputs": [
        {
          "indexed": true,
          "internalType": "address",
          "name": "owner",
          "type": "address"
        },
        {
          "indexed": true,
          "internalType": "address",
          "name": "spender",
          "type": "address"
        },
        {
          "indexed": false,
          "internalType": "uint256",
          "name": "amount",
          "type": "uint256"
        }
      ],
      "name": "Approval",
      "type": "event"
    },
    {
      "anonymous": false,
      "inputs": [
        {
          "indexed": true,
          "internalType": "address",
          "name": "owner",
          "type": "address"
        },
        {
          "indexed": true,
          "internalType": "address",
          "name": "spender",
          "type": "address"
        }
      ],
      "name": "ApprovalEncrypted",
      "type": "event"
    },
    {
      "anonymous": false,
      "inputs": [],
      "name": "EIP712DomainChanged",
      "type": "event"
    },
    {
      "anonymous": false,
      "inputs": [
        {
          "indexed": true,
          "internalType": "address",
          "name": "from",
          "type": "address"
        },
        {
          "indexed": true,
          "internalType": "address",
          "name": "to",
          "type": "address"
        },
        {
          "indexed": false,
          "internalType": "uint256",
          "name": "amount",
          "type": "uint256"
        }
      ],
      "name": "Transfer",
      "type": "event"
    },
    {
      "anonymous": false,
      "inputs": [
        {
          "indexed": true,
          "internalType": "address",
          "name": "from",
          "type": "address"
        },
        {
          "indexed": true,
          "internalType": "address",
          "name": "to",
          "type": "address"
        }
      ],
      "name": "TransferEncrypted",
      "type": "event"
    },
    {
      "inputs": [],
      "name": "DOMAIN_SEPARATOR",
      "outputs": [
        {
          "internalType": "bytes32",
          "name": "result",
          "type": "bytes32"
        }
      ],
      "stateMutability": "view",
      "type": "function"
    },
    {
      "inputs": [
        {
          "internalType": "address",
          "name": "owner",
          "type": "address"
        },
        {
          "internalType": "address",
          "name": "spender",
          "type": "address"
        }
      ],
      "name": "allowance",
      "outputs": [
        {
          "internalType": "uint256",
          "name": "result",
          "type": "uint256"
        }
      ],
      "stateMutability": "view",
      "type": "function"
    },
    {
      "inputs": [
        {
          "internalType": "address",
          "name": "spender",
          "type": "address"
        },
        {
          "components": [
            {
              "internalType": "bytes32",
              "name": "publicKey",
              "type": "bytes32"
            },
            {
              "internalType": "bytes",
              "name": "signature",
              "type": "bytes"
            }
          ],
          "internalType": "struct Permission",
          "name": "permission",
          "type": "tuple"
        }
      ],
      "name": "allowanceEncrypted",
      "outputs": [
        {
          "internalType": "string",
          "name": "",
          "type": "string"
        }
      ],
      "stateMutability": "view",
      "type": "function"
    },
    {
      "inputs": [
        {
          "internalType": "address",
          "name": "spender",
          "type": "address"
        },
        {
          "internalType": "uint256",
          "name": "amount",
          "type": "uint256"
        }
      ],
      "name": "approve",
      "outputs": [
        {
          "internalType": "bool",
          "name": "",
          "type": "bool"
        }
      ],
      "stateMutability": "nonpayable",
      "type": "function"
    },
    {
      "inputs": [
        {
          "internalType": "address",
          "name": "spender",
          "type": "address"
        },
        {
          "components": [
            {
              "internalType": "bytes",
              "name": "data",
              "type": "bytes"
            }
          ],
          "internalType": "struct inEuint32",
          "name": "value",
          "type": "tuple"
        }
      ],
      "name": "approveEncrypted",
      "outputs": [
        {
          "internalType": "bool",
          "name": "",
          "type": "bool"
        }
      ],
      "stateMutability": "nonpayable",
      "type": "function"
    },
    {
      "inputs": [
        {
          "internalType": "address",
          "name": "owner",
          "type": "address"
        }
      ],
      "name": "balanceOf",
      "outputs": [
        {
          "internalType": "uint256",
          "name": "result",
          "type": "uint256"
        }
      ],
      "stateMutability": "view",
      "type": "function"
    },
    {
      "inputs": [
        {
          "internalType": "address",
          "name": "account",
          "type": "address"
        },
        {
          "components": [
            {
              "internalType": "bytes32",
              "name": "publicKey",
              "type": "bytes32"
            },
            {
              "internalType": "bytes",
              "name": "signature",
              "type": "bytes"
            }
          ],
          "internalType": "struct Permission",
          "name": "auth",
          "type": "tuple"
        }
      ],
      "name": "balanceOfEncrypted",
      "outputs": [
        {
          "internalType": "string",
          "name": "",
          "type": "string"
        }
      ],
      "stateMutability": "view",
      "type": "function"
    },
    {
      "inputs": [],
      "name": "decimals",
      "outputs": [
        {
          "internalType": "uint8",
          "name": "",
          "type": "uint8"
        }
      ],
      "stateMutability": "pure",
      "type": "function"
    },
    {
      "inputs": [],
      "name": "eip712Domain",
      "outputs": [
        {
          "internalType": "bytes1",
          "name": "fields",
          "type": "bytes1"
        },
        {
          "internalType": "string",
          "name": "name",
          "type": "string"
        },
        {
          "internalType": "string",
          "name": "version",
          "type": "string"
        },
        {
          "internalType": "uint256",
          "name": "chainId",
          "type": "uint256"
        },
        {
          "internalType": "address",
          "name": "verifyingContract",
          "type": "address"
        },
        {
          "internalType": "bytes32",
          "name": "salt",
          "type": "bytes32"
        },
        {
          "internalType": "uint256[]",
          "name": "extensions",
          "type": "uint256[]"
        }
      ],
      "stateMutability": "view",
      "type": "function"
    },
    {
      "inputs": [],
      "name": "name",
      "outputs": [
        {
          "internalType": "string",
          "name": "",
          "type": "string"
        }
      ],
      "stateMutability": "view",
      "type": "function"
    },
    {
      "inputs": [
        {
          "internalType": "address",
          "name": "owner",
          "type": "address"
        }
      ],
      "name": "nonces",
      "outputs": [
        {
          "internalType": "uint256",
          "name": "result",
          "type": "uint256"
        }
      ],
      "stateMutability": "view",
      "type": "function"
    },
    {
      "inputs": [
        {
          "internalType": "address",
          "name": "owner",
          "type": "address"
        },
        {
          "internalType": "address",
          "name": "spender",
          "type": "address"
        },
        {
          "internalType": "uint256",
          "name": "value",
          "type": "uint256"
        },
        {
          "internalType": "uint256",
          "name": "deadline",
          "type": "uint256"
        },
        {
          "internalType": "uint8",
          "name": "v",
          "type": "uint8"
        },
        {
          "internalType": "bytes32",
          "name": "r",
          "type": "bytes32"
        },
        {
          "internalType": "bytes32",
          "name": "s",
          "type": "bytes32"
        }
      ],
      "name": "permit",
      "outputs": [],
      "stateMutability": "nonpayable",
      "type": "function"
    },
    {
      "inputs": [],
      "name": "symbol",
      "outputs": [
        {
          "internalType": "string",
          "name": "",
          "type": "string"
        }
      ],
      "stateMutability": "view",
      "type": "function"
    },
    {
      "inputs": [],
      "name": "totalSupply",
      "outputs": [
        {
          "internalType": "uint256",
          "name": "result",
          "type": "uint256"
        }
      ],
      "stateMutability": "view",
      "type": "function"
    },
    {
      "inputs": [
        {
          "internalType": "address",
          "name": "to",
          "type": "address"
        },
        {
          "internalType": "uint256",
          "name": "amount",
          "type": "uint256"
        }
      ],
      "name": "transfer",
      "outputs": [
        {
          "internalType": "bool",
          "name": "",
          "type": "bool"
        }
      ],
      "stateMutability": "nonpayable",
      "type": "function"
    },
    {
      "inputs": [
        {
          "internalType": "address",
          "name": "to",
          "type": "address"
        },
        {
          "components": [
            {
              "internalType": "bytes",
              "name": "data",
              "type": "bytes"
            }
          ],
          "internalType": "struct inEuint32",
          "name": "encryptedAmount",
          "type": "tuple"
        }
      ],
      "name": "transferEncrypted",
      "outputs": [
        {
          "internalType": "euint32",
          "name": "",
          "type": "uint256"
        }
      ],
      "stateMutability": "nonpayable",
      "type": "function"
    },
    {
      "inputs": [
        {
          "internalType": "address",
          "name": "to",
          "type": "address"
        },
        {
          "internalType": "euint32",
          "name": "amount",
          "type": "uint256"
        }
      ],
      "name": "transferEncrypted",
      "outputs": [
        {
          "internalType": "euint32",
          "name": "",
          "type": "uint256"
        }
      ],
      "stateMutability": "nonpayable",
      "type": "function"
    },
    {
      "inputs": [
        {
          "internalType": "address",
          "name": "from",
          "type": "address"
        },
        {
          "internalType": "address",
          "name": "to",
          "type": "address"
        },
        {
          "internalType": "uint256",
          "name": "amount",
          "type": "uint256"
        }
      ],
      "name": "transferFrom",
      "outputs": [
        {
          "internalType": "bool",
          "name": "",
          "type": "bool"
        }
      ],
      "stateMutability": "nonpayable",
      "type": "function"
    },
    {
      "inputs": [
        {
          "internalType": "address",
          "name": "from",
          "type": "address"
        },
        {
          "internalType": "address",
          "name": "to",
          "type": "address"
        },
        {
          "components": [
            {
              "internalType": "bytes",
              "name": "data",
              "type": "bytes"
            }
          ],
          "internalType": "struct inEuint32",
          "name": "value",
          "type": "tuple"
        }
      ],
      "name": "transferFromEncrypted",
      "outputs": [
        {
          "internalType": "euint32",
          "name": "",
          "type": "uint256"
        }
      ],
      "stateMutability": "nonpayable",
      "type": "function"
    },
    {
      "inputs": [
        {
          "internalType": "address",
          "name": "from",
          "type": "address"
        },
        {
          "internalType": "address",
          "name": "to",
          "type": "address"
        },
        {
          "internalType": "euint32",
          "name": "value",
          "type": "uint256"
        }
      ],
      "name": "transferFromEncrypted",
      "outputs": [
        {
          "internalType": "euint32",
          "name": "",
          "type": "uint256"
        }
      ],
      "stateMutability": "nonpayable",
      "type": "function"
    },
    {
      "inputs": [
        {
          "internalType": "uint32",
          "name": "amount",
          "type": "uint32"
        }
      ],
      "name": "unwrap",
      "outputs": [],
      "stateMutability": "nonpayable",
      "type": "function"
    },
    {
      "inputs": [
        {
          "internalType": "uint32",
          "name": "amount",
          "type": "uint32"
        }
      ],
      "name": "wrap",
      "outputs": [],
      "stateMutability": "nonpayable",
      "type": "function"
    }
  ],
  "transactionHash": "0x8df7987d499d7da8ff57bc75106e4d57ae64d28bdb78a92e9cb7cb9c8f6efd28",
  "args": [
    {
      "data": {
        "0": 16,
        "1": 8,
        "2": 0,
        "3": 0,
        "4": 0,
        "5": 0,
        "6": 0,
        "7": 0,
        "8": 134,
        "9": 181,
        "10": 196,
        "11": 143,
        "12": 70,
        "13": 10,
        "14": 184,
        "15": 148,
        "16": 88,
        "17": 119,
        "18": 35,
        "19": 172,
        "20": 167,
        "21": 130,
        "22": 81,
        "23": 129,
        "24": 179,
        "25": 94,
        "26": 152,
        "27": 174,
        "28": 223,
        "29": 111,
        "30": 149,
        "31": 169,
        "32": 91,
        "33": 154,
        "34": 128,
        "35": 240,
        "36": 18,
        "37": 236,
        "38": 39,
        "39": 176,
        "40": 201,
        "41": 166,
        "42": 93,
        "43": 159,
        "44": 78,
        "45": 28,
        "46": 233,
        "47": 85,
        "48": 217,
        "49": 216,
        "50": 94,
        "51": 114,
        "52": 5,
        "53": 65,
        "54": 254,
        "55": 35,
        "56": 61,
        "57": 247,
        "58": 252,
        "59": 50,
        "60": 144,
        "61": 189,
        "62": 114,
        "63": 4,
        "64": 89,
        "65": 142,
        "66": 189,
        "67": 44,
        "68": 99,
        "69": 190,
        "70": 153,
        "71": 251,
        "72": 135,
        "73": 98,
        "74": 242,
        "75": 172,
        "76": 206,
        "77": 7,
        "78": 250,
        "79": 207,
        "80": 50,
        "81": 191,
        "82": 9,
        "83": 186,
        "84": 121,
        "85": 89,
        "86": 119,
        "87": 195,
        "88": 4,
        "89": 130,
        "90": 140,
        "91": 202,
        "92": 251,
        "93": 170,
        "94": 160,
        "95": 52,
        "96": 127,
        "97": 215,
        "98": 92,
        "99": 117,
        "100": 176,
        "101": 163,
        "102": 43,
        "103": 119,
        "104": 85,
        "105": 101,
        "106": 36,
        "107": 192,
        "108": 138,
        "109": 51,
        "110": 151,
        "111": 54,
        "112": 140,
        "113": 31,
        "114": 118,
        "115": 20,
        "116": 209,
        "117": 189,
        "118": 45,
        "119": 65,
        "120": 58,
        "121": 118,
        "122": 222,
        "123": 123,
        "124": 113,
        "125": 180,
        "126": 44,
        "127": 171,
        "128": 3,
        "129": 74,
        "130": 23,
        "131": 206,
        "132": 206,
        "133": 199,
        "134": 189,
        "135": 248,
        "136": 59,
        "137": 143,
        "138": 46,
        "139": 76,
        "140": 45,
        "141": 79,
        "142": 3,
        "143": 221,
        "144": 113,
        "145": 92,
        "146": 72,
        "147": 243,
        "148": 36,
        "149": 57,
        "150": 41,
        "151": 195,
        "152": 168,
        "153": 35,
        "154": 93,
        "155": 138,
        "156": 75,
        "157": 176,
        "158": 242,
        "159": 244,
        "160": 127,
        "161": 105,
        "162": 97,
        "163": 107,
        "164": 60,
        "165": 239,
        "166": 136,
        "167": 147,
        "168": 231,
        "169": 24,
        "170": 198,
        "171": 167,
        "172": 86,
        "173": 184,
        "174": 37,
        "175": 151,
        "176": 21,
        "177": 82,
        "178": 70,
        "179": 239,
        "180": 147,
        "181": 26,
        "182": 112,
        "183": 4,
        "184": 59,
        "185": 122,
        "186": 252,
        "187": 193,
        "188": 65,
        "189": 183,
        "190": 175,
        "191": 89,
        "192": 147,
        "193": 72,
        "194": 203,
        "195": 255,
        "196": 122,
        "197": 46,
        "198": 79,
        "199": 76,
        "200": 110,
        "201": 153,
        "202": 246,
        "203": 17,
        "204": 124,
        "205": 6,
        "206": 65,
        "207": 201,
        "208": 205,
        "209": 205,
        "210": 170,
        "211": 3,
        "212": 183,
        "213": 136,
        "214": 65,
        "215": 43,
        "216": 11,
        "217": 204,
        "218": 254,
        "219": 38,
        "220": 249,
        "221": 203,
        "222": 92,
        "223": 225,
        "224": 82,
        "225": 196,
        "226": 141,
        "227": 90,
        "228": 172,
        "229": 247,
        "230": 252,
        "231": 72,
        "232": 210,
        "233": 172,
        "234": 70,
        "235": 23,
        "236": 49,
        "237": 25,
        "238": 228,
        "239": 105,
        "240": 195,
        "241": 74,
        "242": 114,
        "243": 13,
        "244": 198,
        "245": 204,
        "246": 204,
        "247": 84,
        "248": 106,
        "249": 129,
        "250": 221,
        "251": 50,
        "252": 20,
        "253": 159,
        "254": 95,
        "255": 161,
        "256": 184,
        "257": 215,
        "258": 37,
        "259": 167,
        "260": 216,
        "261": 189,
        "262": 12,
        "263": 178,
        "264": 84,
        "265": 119,
        "266": 245,
        "267": 23,
        "268": 127,
        "269": 20,
        "270": 140,
        "271": 11,
        "272": 152,
        "273": 19,
        "274": 234,
        "275": 163,
        "276": 139,
        "277": 150,
        "278": 191,
        "279": 206,
        "280": 23,
        "281": 149,
        "282": 37,
        "283": 28,
        "284": 74,
        "285": 46,
        "286": 242,
        "287": 83,
        "288": 183,
        "289": 167,
        "290": 210,
        "291": 187,
        "292": 251,
        "293": 62,
        "294": 133,
        "295": 95,
        "296": 14,
        "297": 20,
        "298": 98,
        "299": 224,
        "300": 39,
        "301": 25,
        "302": 63,
        "303": 229,
        "304": 84,
        "305": 180,
        "306": 41,
        "307": 167,
        "308": 114,
        "309": 178,
        "310": 108,
        "311": 65,
        "312": 10,
        "313": 254,
        "314": 131,
        "315": 7,
        "316": 228,
        "317": 78,
        "318": 243,
        "319": 52,
        "320": 176,
        "321": 125,
        "322": 167,
        "323": 208,
        "324": 50,
        "325": 168,
        "326": 7,
        "327": 171,
        "328": 147,
        "329": 219,
        "330": 43,
        "331": 92,
        "332": 115,
        "333": 74,
        "334": 227,
        "335": 75,
        "336": 254,
        "337": 223,
        "338": 119,
        "339": 150,
        "340": 25,
        "341": 30,
        "342": 233,
        "343": 139,
        "344": 241,
        "345": 255,
        "346": 218,
        "347": 193,
        "348": 254,
        "349": 134,
        "350": 233,
        "351": 186,
        "352": 232,
        "353": 91,
        "354": 63,
        "355": 133,
        "356": 201,
        "357": 117,
        "358": 201,
        "359": 200,
        "360": 178,
        "361": 89,
        "362": 6,
        "363": 91,
        "364": 218,
        "365": 141,
        "366": 41,
        "367": 93,
        "368": 103,
        "369": 146,
        "370": 126,
        "371": 180,
        "372": 234,
        "373": 248,
        "374": 122,
        "375": 219,
        "376": 122,
        "377": 146,
        "378": 177,
        "379": 120,
        "380": 178,
        "381": 44,
        "382": 156,
        "383": 79,
        "384": 132,
        "385": 150,
        "386": 213,
        "387": 14,
        "388": 201,
        "389": 55,
        "390": 167,
        "391": 217,
        "392": 32,
        "393": 243,
        "394": 219,
        "395": 207,
        "396": 69,
        "397": 182,
        "398": 133,
        "399": 110,
        "400": 39,
        "401": 86,
        "402": 170,
        "403": 84,
        "404": 255,
        "405": 139,
        "406": 68,
        "407": 41,
        "408": 126,
        "409": 180,
        "410": 48,
        "411": 72,
        "412": 220,
        "413": 23,
        "414": 168,
        "415": 115,
        "416": 104,
        "417": 74,
        "418": 211,
        "419": 218,
        "420": 130,
        "421": 253,
        "422": 211,
        "423": 70,
        "424": 249,
        "425": 10,
        "426": 220,
        "427": 64,
        "428": 125,
        "429": 28,
        "430": 199,
        "431": 153,
        "432": 201,
        "433": 224,
        "434": 217,
        "435": 219,
        "436": 250,
        "437": 72,
        "438": 69,
        "439": 176,
        "440": 105,
        "441": 30,
        "442": 180,
        "443": 12,
        "444": 180,
        "445": 185,
        "446": 31,
        "447": 139,
        "448": 100,
        "449": 53,
        "450": 47,
        "451": 58,
        "452": 224,
        "453": 24,
        "454": 37,
        "455": 11,
        "456": 219,
        "457": 160,
        "458": 102,
        "459": 139,
        "460": 155,
        "461": 78,
        "462": 112,
        "463": 63,
        "464": 215,
        "465": 100,
        "466": 189,
        "467": 169,
        "468": 117,
        "469": 246,
        "470": 196,
        "471": 127,
        "472": 87,
        "473": 84,
        "474": 103,
        "475": 19,
        "476": 200,
        "477": 151,
        "478": 253,
        "479": 130,
        "480": 7,
        "481": 86,
        "482": 248,
        "483": 81,
        "484": 250,
        "485": 168,
        "486": 42,
        "487": 37,
        "488": 87,
        "489": 38,
        "490": 91,
        "491": 16,
        "492": 237,
        "493": 72,
        "494": 217,
        "495": 113,
        "496": 166,
        "497": 72,
        "498": 92,
        "499": 144,
        "500": 54,
        "501": 52,
        "502": 185,
        "503": 22,
        "504": 66,
        "505": 20,
        "506": 220,
        "507": 164,
        "508": 60,
        "509": 131,
        "510": 19,
        "511": 163,
        "512": 191,
        "513": 175,
        "514": 80,
        "515": 150,
        "516": 175,
        "517": 95,
        "518": 156,
        "519": 193,
        "520": 195,
        "521": 45,
        "522": 11,
        "523": 147,
        "524": 97,
        "525": 155,
        "526": 16,
        "527": 116,
        "528": 149,
        "529": 36,
        "530": 169,
        "531": 245,
        "532": 249,
        "533": 49,
        "534": 72,
        "535": 35,
        "536": 251,
        "537": 175,
        "538": 96,
        "539": 129,
        "540": 161,
        "541": 250,
        "542": 17,
        "543": 122,
        "544": 0,
        "545": 213,
        "546": 186,
        "547": 220,
        "548": 11,
        "549": 79,
        "550": 182,
        "551": 237,
        "552": 166,
        "553": 157,
        "554": 18,
        "555": 213,
        "556": 1,
        "557": 237,
        "558": 187,
        "559": 142,
        "560": 235,
        "561": 214,
        "562": 110,
        "563": 24,
        "564": 29,
        "565": 121,
        "566": 245,
        "567": 137,
        "568": 168,
        "569": 234,
        "570": 198,
        "571": 161,
        "572": 129,
        "573": 253,
        "574": 111,
        "575": 123,
        "576": 106,
        "577": 163,
        "578": 32,
        "579": 110,
        "580": 123,
        "581": 36,
        "582": 101,
        "583": 97,
        "584": 15,
        "585": 127,
        "586": 9,
        "587": 180,
        "588": 27,
        "589": 183,
        "590": 104,
        "591": 127,
        "592": 39,
        "593": 146,
        "594": 58,
        "595": 179,
        "596": 50,
        "597": 71,
        "598": 118,
        "599": 124,
        "600": 120,
        "601": 63,
        "602": 49,
        "603": 167,
        "604": 161,
        "605": 172,
        "606": 9,
        "607": 30,
        "608": 105,
        "609": 145,
        "610": 181,
        "611": 90,
        "612": 188,
        "613": 211,
        "614": 237,
        "615": 157,
        "616": 170,
        "617": 128,
        "618": 68,
        "619": 243,
        "620": 186,
        "621": 78,
        "622": 64,
        "623": 45,
        "624": 89,
        "625": 189,
        "626": 66,
        "627": 17,
        "628": 26,
        "629": 185,
        "630": 66,
        "631": 244,
        "632": 74,
        "633": 207,
        "634": 180,
        "635": 42,
        "636": 244,
        "637": 179,
        "638": 16,
        "639": 5,
        "640": 137,
        "641": 134,
        "642": 199,
        "643": 205,
        "644": 193,
        "645": 205,
        "646": 141,
        "647": 167,
        "648": 246,
        "649": 185,
        "650": 91,
        "651": 165,
        "652": 1,
        "653": 94,
        "654": 112,
        "655": 181,
        "656": 50,
        "657": 177,
        "658": 163,
        "659": 24,
        "660": 251,
        "661": 178,
        "662": 125,
        "663": 73,
        "664": 49,
        "665": 4,
        "666": 232,
        "667": 234,
        "668": 85,
        "669": 187,
        "670": 197,
        "671": 243,
        "672": 61,
        "673": 143,
        "674": 152,
        "675": 65,
        "676": 57,
        "677": 27,
        "678": 73,
        "679": 169,
        "680": 39,
        "681": 5,
        "682": 53,
        "683": 1,
        "684": 237,
        "685": 208,
        "686": 177,
        "687": 56,
        "688": 24,
        "689": 28,
        "690": 152,
        "691": 170,
        "692": 241,
        "693": 122,
        "694": 217,
        "695": 101,
        "696": 178,
        "697": 209,
        "698": 196,
        "699": 31,
        "700": 154,
        "701": 21,
        "702": 137,
        "703": 58,
        "704": 106,
        "705": 5,
        "706": 24,
        "707": 159,
        "708": 92,
        "709": 57,
        "710": 188,
        "711": 33,
        "712": 19,
        "713": 10,
        "714": 60,
        "715": 94,
        "716": 7,
        "717": 113,
        "718": 178,
        "719": 168,
        "720": 189,
        "721": 174,
        "722": 241,
        "723": 8,
        "724": 0,
        "725": 40,
        "726": 8,
        "727": 76,
        "728": 79,
        "729": 241,
        "730": 63,
        "731": 217,
        "732": 185,
        "733": 229,
        "734": 70,
        "735": 211,
        "736": 156,
        "737": 106,
        "738": 196,
        "739": 131,
        "740": 174,
        "741": 143,
        "742": 205,
        "743": 38,
        "744": 166,
        "745": 141,
        "746": 194,
        "747": 155,
        "748": 123,
        "749": 98,
        "750": 159,
        "751": 181,
        "752": 185,
        "753": 80,
        "754": 238,
        "755": 142,
        "756": 189,
        "757": 70,
        "758": 171,
        "759": 128,
        "760": 49,
        "761": 186,
        "762": 185,
        "763": 244,
        "764": 121,
        "765": 15,
        "766": 110,
        "767": 218,
        "768": 100,
        "769": 121,
        "770": 129,
        "771": 52,
        "772": 18,
        "773": 121,
        "774": 223,
        "775": 16,
        "776": 220,
        "777": 32,
        "778": 20,
        "779": 135,
        "780": 34,
        "781": 211,
        "782": 30,
        "783": 217,
        "784": 22,
        "785": 183,
        "786": 189,
        "787": 136,
        "788": 198,
        "789": 181,
        "790": 234,
        "791": 125,
        "792": 119,
        "793": 24,
        "794": 199,
        "795": 60,
        "796": 192,
        "797": 39,
        "798": 146,
        "799": 197,
        "800": 91,
        "801": 13,
        "802": 40,
        "803": 230,
        "804": 207,
        "805": 144,
        "806": 240,
        "807": 180,
        "808": 12,
        "809": 65,
        "810": 126,
        "811": 186,
        "812": 207,
        "813": 218,
        "814": 156,
        "815": 29,
        "816": 18,
        "817": 121,
        "818": 170,
        "819": 169,
        "820": 35,
        "821": 183,
        "822": 215,
        "823": 176,
        "824": 134,
        "825": 0,
        "826": 249,
        "827": 247,
        "828": 130,
        "829": 56,
        "830": 249,
        "831": 107,
        "832": 212,
        "833": 159,
        "834": 72,
        "835": 7,
        "836": 120,
        "837": 158,
        "838": 153,
        "839": 169,
        "840": 193,
        "841": 252,
        "842": 152,
        "843": 25,
        "844": 18,
        "845": 0,
        "846": 0,
        "847": 154,
        "848": 170,
        "849": 26,
        "850": 147,
        "851": 10,
        "852": 252,
        "853": 82,
        "854": 208,
        "855": 246,
        "856": 77,
        "857": 141,
        "858": 14,
        "859": 200,
        "860": 193,
        "861": 193,
        "862": 148,
        "863": 15,
        "864": 150,
        "865": 72,
        "866": 93,
        "867": 231,
        "868": 227,
        "869": 151,
        "870": 106,
        "871": 9,
        "872": 202,
        "873": 196,
        "874": 174,
        "875": 58,
        "876": 173,
        "877": 51,
        "878": 13,
        "879": 140,
        "880": 170,
        "881": 240,
        "882": 52,
        "883": 219,
        "884": 160,
        "885": 251,
        "886": 94,
        "887": 201,
        "888": 122,
        "889": 26,
        "890": 97,
        "891": 150,
        "892": 123,
        "893": 43,
        "894": 227,
        "895": 85,
        "896": 68,
        "897": 232,
        "898": 165,
        "899": 60,
        "900": 69,
        "901": 62,
        "902": 255,
        "903": 89,
        "904": 40,
        "905": 17,
        "906": 65,
        "907": 150,
        "908": 155,
        "909": 180,
        "910": 172,
        "911": 224,
        "912": 116,
        "913": 226,
        "914": 171,
        "915": 159,
        "916": 63,
        "917": 13,
        "918": 60,
        "919": 48,
        "920": 46,
        "921": 189,
        "922": 204,
        "923": 204,
        "924": 15,
        "925": 28,
        "926": 13,
        "927": 142,
        "928": 50,
        "929": 126,
        "930": 213,
        "931": 181,
        "932": 175,
        "933": 80,
        "934": 152,
        "935": 110,
        "936": 91,
        "937": 112,
        "938": 41,
        "939": 174,
        "940": 60,
        "941": 185,
        "942": 21,
        "943": 154,
        "944": 155,
        "945": 132,
        "946": 61,
        "947": 239,
        "948": 132,
        "949": 170,
        "950": 51,
        "951": 98,
        "952": 53,
        "953": 87,
        "954": 63,
        "955": 222,
        "956": 149,
        "957": 128,
        "958": 60,
        "959": 54,
        "960": 146,
        "961": 203,
        "962": 169,
        "963": 70,
        "964": 206,
        "965": 170,
        "966": 70,
        "967": 126,
        "968": 76,
        "969": 238,
        "970": 94,
        "971": 68,
        "972": 19,
        "973": 85,
        "974": 158,
        "975": 3,
        "976": 191,
        "977": 253,
        "978": 211,
        "979": 58,
        "980": 76,
        "981": 4,
        "982": 48,
        "983": 195,
        "984": 220,
        "985": 111,
        "986": 164,
        "987": 8,
        "988": 135,
        "989": 4,
        "990": 168,
        "991": 107,
        "992": 106,
        "993": 156,
        "994": 216,
        "995": 121,
        "996": 236,
        "997": 2,
        "998": 63,
        "999": 180,
        "1000": 139,
        "1001": 149,
        "1002": 158,
        "1003": 206,
        "1004": 243,
        "1005": 94,
        "1006": 38,
        "1007": 135,
        "1008": 59,
        "1009": 242,
        "1010": 209,
        "1011": 129,
        "1012": 143,
        "1013": 204,
        "1014": 72,
        "1015": 213,
        "1016": 140,
        "1017": 72,
        "1018": 72,
        "1019": 114,
        "1020": 24,
        "1021": 255,
        "1022": 82,
        "1023": 188,
        "1024": 50,
        "1025": 143,
        "1026": 205,
        "1027": 167,
        "1028": 159,
        "1029": 227,
        "1030": 50,
        "1031": 214,
        "1032": 189,
        "1033": 206,
        "1034": 69,
        "1035": 172,
        "1036": 76,
        "1037": 160,
        "1038": 67,
        "1039": 245,
        "1040": 142,
        "1041": 10,
        "1042": 134,
        "1043": 138,
        "1044": 179,
        "1045": 82,
        "1046": 32,
        "1047": 67,
        "1048": 104,
        "1049": 59,
        "1050": 49,
        "1051": 65,
        "1052": 190,
        "1053": 191,
        "1054": 25,
        "1055": 186,
        "1056": 58,
        "1057": 9,
        "1058": 21,
        "1059": 174,
        "1060": 198,
        "1061": 81,
        "1062": 89,
        "1063": 241,
        "1064": 202,
        "1065": 7,
        "1066": 75,
        "1067": 183,
        "1068": 86,
        "1069": 207,
        "1070": 28,
        "1071": 76,
        "1072": 208,
        "1073": 13,
        "1074": 250,
        "1075": 251,
        "1076": 35,
        "1077": 44,
        "1078": 14,
        "1079": 9,
        "1080": 48,
        "1081": 205,
        "1082": 71,
        "1083": 70,
        "1084": 145,
        "1085": 114,
        "1086": 31,
        "1087": 59,
        "1088": 106,
        "1089": 93,
        "1090": 221,
        "1091": 229,
        "1092": 12,
        "1093": 173,
        "1094": 67,
        "1095": 250,
        "1096": 27,
        "1097": 63,
        "1098": 41,
        "1099": 159,
        "1100": 76,
        "1101": 25,
        "1102": 145,
        "1103": 89,
        "1104": 173,
        "1105": 87,
        "1106": 2,
        "1107": 251,
        "1108": 159,
        "1109": 16,
        "1110": 181,
        "1111": 217,
        "1112": 118,
        "1113": 51,
        "1114": 56,
        "1115": 62,
        "1116": 173,
        "1117": 62,
        "1118": 182,
        "1119": 240,
        "1120": 168,
        "1121": 6,
        "1122": 227,
        "1123": 149,
        "1124": 33,
        "1125": 189,
        "1126": 178,
        "1127": 46,
        "1128": 222,
        "1129": 224,
        "1130": 38,
        "1131": 98,
        "1132": 2,
        "1133": 183,
        "1134": 113,
        "1135": 111,
        "1136": 49,
        "1137": 145,
        "1138": 72,
        "1139": 219,
        "1140": 236,
        "1141": 162,
        "1142": 25,
        "1143": 65,
        "1144": 116,
        "1145": 66,
        "1146": 106,
        "1147": 189,
        "1148": 99,
        "1149": 215,
        "1150": 110,
        "1151": 26,
        "1152": 119,
        "1153": 63,
        "1154": 208,
        "1155": 140,
        "1156": 10,
        "1157": 140,
        "1158": 236,
        "1159": 34,
        "1160": 96,
        "1161": 76,
        "1162": 140,
        "1163": 62,
        "1164": 192,
        "1165": 34,
        "1166": 141,
        "1167": 193,
        "1168": 32,
        "1169": 252,
        "1170": 74,
        "1171": 21,
        "1172": 43,
        "1173": 66,
        "1174": 241,
        "1175": 6,
        "1176": 163,
        "1177": 62,
        "1178": 79,
        "1179": 219,
        "1180": 228,
        "1181": 132,
        "1182": 244,
        "1183": 126,
        "1184": 63,
        "1185": 96,
        "1186": 100,
        "1187": 243,
        "1188": 24,
        "1189": 253,
        "1190": 144,
        "1191": 198,
        "1192": 21,
        "1193": 238,
        "1194": 142,
        "1195": 124,
        "1196": 3,
        "1197": 7,
        "1198": 27,
        "1199": 164,
        "1200": 166,
        "1201": 38,
        "1202": 56,
        "1203": 197,
        "1204": 8,
        "1205": 77,
        "1206": 106,
        "1207": 217,
        "1208": 74,
        "1209": 159,
        "1210": 200,
        "1211": 73,
        "1212": 255,
        "1213": 184,
        "1214": 79,
        "1215": 59,
        "1216": 255,
        "1217": 75,
        "1218": 51,
        "1219": 112,
        "1220": 93,
        "1221": 9,
        "1222": 222,
        "1223": 66,
        "1224": 196,
        "1225": 250,
        "1226": 29,
        "1227": 46,
        "1228": 118,
        "1229": 5,
        "1230": 60,
        "1231": 46,
        "1232": 214,
        "1233": 243,
        "1234": 231,
        "1235": 171,
        "1236": 245,
        "1237": 175,
        "1238": 73,
        "1239": 104,
        "1240": 55,
        "1241": 205,
        "1242": 23,
        "1243": 78,
        "1244": 203,
        "1245": 99,
        "1246": 194,
        "1247": 153,
        "1248": 136,
        "1249": 110,
        "1250": 3,
        "1251": 105,
        "1252": 205,
        "1253": 186,
        "1254": 92,
        "1255": 189,
        "1256": 216,
        "1257": 96,
        "1258": 29,
        "1259": 239,
        "1260": 136,
        "1261": 156,
        "1262": 46,
        "1263": 78,
        "1264": 151,
        "1265": 15,
        "1266": 106,
        "1267": 145,
        "1268": 132,
        "1269": 25,
        "1270": 153,
        "1271": 48,
        "1272": 156,
        "1273": 248,
        "1274": 204,
        "1275": 23,
        "1276": 113,
        "1277": 232,
        "1278": 102,
        "1279": 223,
        "1280": 227,
        "1281": 48,
        "1282": 158,
        "1283": 203,
        "1284": 183,
        "1285": 5,
        "1286": 66,
        "1287": 72,
        "1288": 223,
        "1289": 124,
        "1290": 248,
        "1291": 125,
        "1292": 117,
        "1293": 185,
        "1294": 95,
        "1295": 79,
        "1296": 140,
        "1297": 67,
        "1298": 198,
        "1299": 73,
        "1300": 119,
        "1301": 49,
        "1302": 54,
        "1303": 142,
        "1304": 172,
        "1305": 198,
        "1306": 92,
        "1307": 137,
        "1308": 118,
        "1309": 128,
        "1310": 111,
        "1311": 97,
        "1312": 235,
        "1313": 163,
        "1314": 21,
        "1315": 136,
        "1316": 22,
        "1317": 178,
        "1318": 78,
        "1319": 235,
        "1320": 133,
        "1321": 240,
        "1322": 176,
        "1323": 25,
        "1324": 136,
        "1325": 216,
        "1326": 111,
        "1327": 31,
        "1328": 255,
        "1329": 143,
        "1330": 166,
        "1331": 197,
        "1332": 183,
        "1333": 101,
        "1334": 85,
        "1335": 113,
        "1336": 124,
        "1337": 178,
        "1338": 185,
        "1339": 173,
        "1340": 104,
        "1341": 198,
        "1342": 243,
        "1343": 208,
        "1344": 187,
        "1345": 22,
        "1346": 125,
        "1347": 96,
        "1348": 98,
        "1349": 213,
        "1350": 153,
        "1351": 244,
        "1352": 246,
        "1353": 116,
        "1354": 120,
        "1355": 67,
        "1356": 209,
        "1357": 99,
        "1358": 13,
        "1359": 208,
        "1360": 115,
        "1361": 62,
        "1362": 115,
        "1363": 123,
        "1364": 166,
        "1365": 201,
        "1366": 45,
        "1367": 110,
        "1368": 173,
        "1369": 72,
        "1370": 147,
        "1371": 93,
        "1372": 82,
        "1373": 177,
        "1374": 47,
        "1375": 35,
        "1376": 197,
        "1377": 48,
        "1378": 173,
        "1379": 51,
        "1380": 151,
        "1381": 12,
        "1382": 247,
        "1383": 40,
        "1384": 129,
        "1385": 102,
        "1386": 174,
        "1387": 131,
        "1388": 50,
        "1389": 103,
        "1390": 245,
        "1391": 35,
        "1392": 255,
        "1393": 163,
        "1394": 191,
        "1395": 84,
        "1396": 217,
        "1397": 94,
        "1398": 69,
        "1399": 103,
        "1400": 73,
        "1401": 10,
        "1402": 48,
        "1403": 226,
        "1404": 170,
        "1405": 229,
        "1406": 227,
        "1407": 169,
        "1408": 37,
        "1409": 184,
        "1410": 226,
        "1411": 108,
        "1412": 22,
        "1413": 144,
        "1414": 19,
        "1415": 127,
        "1416": 7,
        "1417": 130,
        "1418": 217,
        "1419": 52,
        "1420": 160,
        "1421": 147,
        "1422": 4,
        "1423": 209,
        "1424": 49,
        "1425": 89,
        "1426": 101,
        "1427": 198,
        "1428": 207,
        "1429": 163,
        "1430": 60,
        "1431": 196,
        "1432": 225,
        "1433": 45,
        "1434": 71,
        "1435": 52,
        "1436": 25,
        "1437": 172,
        "1438": 203,
        "1439": 52,
        "1440": 6,
        "1441": 236,
        "1442": 52,
        "1443": 52,
        "1444": 66,
        "1445": 89,
        "1446": 47,
        "1447": 205,
        "1448": 52,
        "1449": 143,
        "1450": 190,
        "1451": 122,
        "1452": 155,
        "1453": 137,
        "1454": 136,
        "1455": 28,
        "1456": 167,
        "1457": 4,
        "1458": 118,
        "1459": 201,
        "1460": 182,
        "1461": 130,
        "1462": 183,
        "1463": 237,
        "1464": 130,
        "1465": 204,
        "1466": 116,
        "1467": 3,
        "1468": 170,
        "1469": 94,
        "1470": 131,
        "1471": 90,
        "1472": 197,
        "1473": 230,
        "1474": 8,
        "1475": 157,
        "1476": 115,
        "1477": 55,
        "1478": 97,
        "1479": 4,
        "1480": 240,
        "1481": 166,
        "1482": 32,
        "1483": 161,
        "1484": 22,
        "1485": 44,
        "1486": 78,
        "1487": 224,
        "1488": 187,
        "1489": 70,
        "1490": 56,
        "1491": 161,
        "1492": 83,
        "1493": 224,
        "1494": 7,
        "1495": 59,
        "1496": 211,
        "1497": 89,
        "1498": 19,
        "1499": 211,
        "1500": 193,
        "1501": 2,
        "1502": 213,
        "1503": 91,
        "1504": 162,
        "1505": 2,
        "1506": 150,
        "1507": 198,
        "1508": 163,
        "1509": 75,
        "1510": 150,
        "1511": 222,
        "1512": 159,
        "1513": 85,
        "1514": 66,
        "1515": 255,
        "1516": 34,
        "1517": 187,
        "1518": 165,
        "1519": 170,
        "1520": 23,
        "1521": 101,
        "1522": 131,
        "1523": 243,
        "1524": 106,
        "1525": 231,
        "1526": 223,
        "1527": 158,
        "1528": 250,
        "1529": 75,
        "1530": 56,
        "1531": 58,
        "1532": 67,
        "1533": 227,
        "1534": 9,
        "1535": 91,
        "1536": 23,
        "1537": 167,
        "1538": 217,
        "1539": 27,
        "1540": 57,
        "1541": 161,
        "1542": 34,
        "1543": 86,
        "1544": 63,
        "1545": 245,
        "1546": 248,
        "1547": 119,
        "1548": 145,
        "1549": 247,
        "1550": 37,
        "1551": 175,
        "1552": 93,
        "1553": 35,
        "1554": 231,
        "1555": 16,
        "1556": 145,
        "1557": 175,
        "1558": 11,
        "1559": 141,
        "1560": 78,
        "1561": 240,
        "1562": 156,
        "1563": 129,
        "1564": 111,
        "1565": 4,
        "1566": 6,
        "1567": 168,
        "1568": 188,
        "1569": 205,
        "1570": 109,
        "1571": 215,
        "1572": 186,
        "1573": 1,
        "1574": 66,
        "1575": 63,
        "1576": 164,
        "1577": 171,
        "1578": 11,
        "1579": 107,
        "1580": 133,
        "1581": 44,
        "1582": 116,
        "1583": 150,
        "1584": 74,
        "1585": 163,
        "1586": 238,
        "1587": 206,
        "1588": 106,
        "1589": 236,
        "1590": 38,
        "1591": 34,
        "1592": 10,
        "1593": 133,
        "1594": 102,
        "1595": 66,
        "1596": 38,
        "1597": 108,
        "1598": 0,
        "1599": 137,
        "1600": 251,
        "1601": 1,
        "1602": 79,
        "1603": 16,
        "1604": 142,
        "1605": 122,
        "1606": 229,
        "1607": 111,
        "1608": 136,
        "1609": 2,
        "1610": 194,
        "1611": 176,
        "1612": 140,
        "1613": 118,
        "1614": 14,
        "1615": 206,
        "1616": 193,
        "1617": 200,
        "1618": 199,
        "1619": 196,
        "1620": 140,
        "1621": 144,
        "1622": 44,
        "1623": 157,
        "1624": 162,
        "1625": 185,
        "1626": 108,
        "1627": 67,
        "1628": 58,
        "1629": 110,
        "1630": 139,
        "1631": 238,
        "1632": 57,
        "1633": 1,
        "1634": 94,
        "1635": 119,
        "1636": 18,
        "1637": 40,
        "1638": 22,
        "1639": 205,
        "1640": 146,
        "1641": 88,
        "1642": 250,
        "1643": 226,
        "1644": 212,
        "1645": 129,
        "1646": 55,
        "1647": 104,
        "1648": 125,
        "1649": 204,
        "1650": 107,
        "1651": 21,
        "1652": 5,
        "1653": 164,
        "1654": 237,
        "1655": 147,
        "1656": 119,
        "1657": 65,
        "1658": 247,
        "1659": 110,
        "1660": 166,
        "1661": 237,
        "1662": 55,
        "1663": 25,
        "1664": 147,
        "1665": 120,
        "1666": 2,
        "1667": 203,
        "1668": 226,
        "1669": 114,
        "1670": 62,
        "1671": 253,
        "1672": 245,
        "1673": 49,
        "1674": 170,
        "1675": 94,
        "1676": 108,
        "1677": 57,
        "1678": 80,
        "1679": 38,
        "1680": 109,
        "1681": 206,
        "1682": 172,
        "1683": 89,
        "1684": 216,
        "1685": 199,
        "1686": 96,
        "1687": 206,
        "1688": 204,
        "1689": 44,
        "1690": 175,
        "1691": 53,
        "1692": 253,
        "1693": 230,
        "1694": 80,
        "1695": 234,
        "1696": 103,
        "1697": 161,
        "1698": 224,
        "1699": 76,
        "1700": 247,
        "1701": 190,
        "1702": 1,
        "1703": 25,
        "1704": 64,
        "1705": 250,
        "1706": 15,
        "1707": 49,
        "1708": 78,
        "1709": 81,
        "1710": 237,
        "1711": 237,
        "1712": 144,
        "1713": 135,
        "1714": 174,
        "1715": 25,
        "1716": 0,
        "1717": 181,
        "1718": 183,
        "1719": 91,
        "1720": 119,
        "1721": 214,
        "1722": 191,
        "1723": 194,
        "1724": 42,
        "1725": 234,
        "1726": 232,
        "1727": 32,
        "1728": 178,
        "1729": 85,
        "1730": 202,
        "1731": 234,
        "1732": 142,
        "1733": 215,
        "1734": 136,
        "1735": 24,
        "1736": 123,
        "1737": 212,
        "1738": 160,
        "1739": 157,
        "1740": 226,
        "1741": 142,
        "1742": 251,
        "1743": 139,
        "1744": 247,
        "1745": 122,
        "1746": 0,
        "1747": 166,
        "1748": 175,
        "1749": 183,
        "1750": 98,
        "1751": 65,
        "1752": 151,
        "1753": 140,
        "1754": 161,
        "1755": 247,
        "1756": 78,
        "1757": 124,
        "1758": 135,
        "1759": 133,
        "1760": 128,
        "1761": 29,
        "1762": 243,
        "1763": 137,
        "1764": 137,
        "1765": 231,
        "1766": 160,
        "1767": 213,
        "1768": 237,
        "1769": 34,
        "1770": 252,
        "1771": 104,
        "1772": 190,
        "1773": 59,
        "1774": 158,
        "1775": 183,
        "1776": 5,
        "1777": 203,
        "1778": 153,
        "1779": 214,
        "1780": 174,
        "1781": 206,
        "1782": 242,
        "1783": 89,
        "1784": 226,
        "1785": 8,
        "1786": 220,
        "1787": 237,
        "1788": 36,
        "1789": 127,
        "1790": 89,
        "1791": 50,
        "1792": 1,
        "1793": 210,
        "1794": 224,
        "1795": 12,
        "1796": 187,
        "1797": 25,
        "1798": 47,
        "1799": 112,
        "1800": 62,
        "1801": 184,
        "1802": 67,
        "1803": 4,
        "1804": 64,
        "1805": 177,
        "1806": 12,
        "1807": 125,
        "1808": 126,
        "1809": 245,
        "1810": 175,
        "1811": 70,
        "1812": 62,
        "1813": 153,
        "1814": 198,
        "1815": 230,
        "1816": 170,
        "1817": 171,
        "1818": 241,
        "1819": 67,
        "1820": 212,
        "1821": 79,
        "1822": 66,
        "1823": 192,
        "1824": 191,
        "1825": 183,
        "1826": 77,
        "1827": 79,
        "1828": 77,
        "1829": 66,
        "1830": 247,
        "1831": 144,
        "1832": 50,
        "1833": 214,
        "1834": 0,
        "1835": 65,
        "1836": 216,
        "1837": 115,
        "1838": 100,
        "1839": 112,
        "1840": 182,
        "1841": 70,
        "1842": 88,
        "1843": 148,
        "1844": 196,
        "1845": 121,
        "1846": 38,
        "1847": 119,
        "1848": 107,
        "1849": 50,
        "1850": 18,
        "1851": 162,
        "1852": 152,
        "1853": 206,
        "1854": 158,
        "1855": 103,
        "1856": 56,
        "1857": 134,
        "1858": 55,
        "1859": 87,
        "1860": 5,
        "1861": 64,
        "1862": 54,
        "1863": 14,
        "1864": 45,
        "1865": 131,
        "1866": 204,
        "1867": 196,
        "1868": 201,
        "1869": 19,
        "1870": 213,
        "1871": 84,
        "1872": 45,
        "1873": 107,
        "1874": 185,
        "1875": 189,
        "1876": 97,
        "1877": 5,
        "1878": 194,
        "1879": 96,
        "1880": 50,
        "1881": 239,
        "1882": 144,
        "1883": 185,
        "1884": 242,
        "1885": 64,
        "1886": 228,
        "1887": 17,
        "1888": 107,
        "1889": 122,
        "1890": 186,
        "1891": 182,
        "1892": 239,
        "1893": 181,
        "1894": 56,
        "1895": 107,
        "1896": 115,
        "1897": 67,
        "1898": 148,
        "1899": 120,
        "1900": 217,
        "1901": 47,
        "1902": 102,
        "1903": 14,
        "1904": 46,
        "1905": 38,
        "1906": 242,
        "1907": 80,
        "1908": 94,
        "1909": 125,
        "1910": 169,
        "1911": 203,
        "1912": 68,
        "1913": 41,
        "1914": 89,
        "1915": 103,
        "1916": 134,
        "1917": 153,
        "1918": 142,
        "1919": 39,
        "1920": 218,
        "1921": 46,
        "1922": 228,
        "1923": 218,
        "1924": 201,
        "1925": 253,
        "1926": 170,
        "1927": 86,
        "1928": 243,
        "1929": 157,
        "1930": 82,
        "1931": 161,
        "1932": 166,
        "1933": 80,
        "1934": 181,
        "1935": 94,
        "1936": 228,
        "1937": 164,
        "1938": 248,
        "1939": 218,
        "1940": 201,
        "1941": 62,
        "1942": 177,
        "1943": 183,
        "1944": 251,
        "1945": 98,
        "1946": 211,
        "1947": 177,
        "1948": 37,
        "1949": 49,
        "1950": 192,
        "1951": 58,
        "1952": 41,
        "1953": 170,
        "1954": 163,
        "1955": 228,
        "1956": 187,
        "1957": 201,
        "1958": 101,
        "1959": 151,
        "1960": 81,
        "1961": 214,
        "1962": 102,
        "1963": 175,
        "1964": 125,
        "1965": 232,
        "1966": 112,
        "1967": 165,
        "1968": 128,
        "1969": 49,
        "1970": 37,
        "1971": 155,
        "1972": 238,
        "1973": 14,
        "1974": 243,
        "1975": 30,
        "1976": 177,
        "1977": 19,
        "1978": 102,
        "1979": 62,
        "1980": 255,
        "1981": 192,
        "1982": 131,
        "1983": 216,
        "1984": 114,
        "1985": 254,
        "1986": 99,
        "1987": 94,
        "1988": 247,
        "1989": 101,
        "1990": 103,
        "1991": 183,
        "1992": 133,
        "1993": 113,
        "1994": 64,
        "1995": 177,
        "1996": 116,
        "1997": 56,
        "1998": 219,
        "1999": 45,
        "2000": 184,
        "2001": 188,
        "2002": 144,
        "2003": 117,
        "2004": 2,
        "2005": 38,
        "2006": 97,
        "2007": 8,
        "2008": 64,
        "2009": 234,
        "2010": 184,
        "2011": 118,
        "2012": 151,
        "2013": 45,
        "2014": 207,
        "2015": 214,
        "2016": 203,
        "2017": 13,
        "2018": 243,
        "2019": 44,
        "2020": 148,
        "2021": 102,
        "2022": 151,
        "2023": 242,
        "2024": 114,
        "2025": 46,
        "2026": 36,
        "2027": 240,
        "2028": 73,
        "2029": 189,
        "2030": 81,
        "2031": 11,
        "2032": 103,
        "2033": 195,
        "2034": 121,
        "2035": 125,
        "2036": 202,
        "2037": 166,
        "2038": 177,
        "2039": 232,
        "2040": 54,
        "2041": 155,
        "2042": 142,
        "2043": 85,
        "2044": 159,
        "2045": 253,
        "2046": 162,
        "2047": 16,
        "2048": 139,
        "2049": 70,
        "2050": 203,
        "2051": 233,
        "2052": 252,
        "2053": 60,
        "2054": 151,
        "2055": 127,
        "2056": 246,
        "2057": 51,
        "2058": 204,
        "2059": 69,
        "2060": 255,
        "2061": 250,
        "2062": 56,
        "2063": 238,
        "2064": 91,
        "2065": 225,
        "2066": 242,
        "2067": 43,
        "2068": 215,
        "2069": 9,
        "2070": 101,
        "2071": 184,
        "2072": 107,
        "2073": 252,
        "2074": 108,
        "2075": 70,
        "2076": 250,
        "2077": 90,
        "2078": 55,
        "2079": 38,
        "2080": 224,
        "2081": 113,
        "2082": 122,
        "2083": 17,
        "2084": 96,
        "2085": 29,
        "2086": 141,
        "2087": 207,
        "2088": 230,
        "2089": 29,
        "2090": 235,
        "2091": 14,
        "2092": 230,
        "2093": 138,
        "2094": 44,
        "2095": 146,
        "2096": 48,
        "2097": 239,
        "2098": 199,
        "2099": 199,
        "2100": 79,
        "2101": 67,
        "2102": 0,
        "2103": 138,
        "2104": 50,
        "2105": 214,
        "2106": 204,
        "2107": 38,
        "2108": 99,
        "2109": 186,
        "2110": 84,
        "2111": 210,
        "2112": 65,
        "2113": 86,
        "2114": 135,
        "2115": 37,
        "2116": 205,
        "2117": 118,
        "2118": 84,
        "2119": 59,
        "2120": 26,
        "2121": 100,
        "2122": 138,
        "2123": 47,
        "2124": 155,
        "2125": 16,
        "2126": 8,
        "2127": 106,
        "2128": 121,
        "2129": 218,
        "2130": 65,
        "2131": 5,
        "2132": 19,
        "2133": 82,
        "2134": 156,
        "2135": 55,
        "2136": 184,
        "2137": 165,
        "2138": 185,
        "2139": 91,
        "2140": 143,
        "2141": 169,
        "2142": 205,
        "2143": 77,
        "2144": 231,
        "2145": 163,
        "2146": 198,
        "2147": 168,
        "2148": 40,
        "2149": 51,
        "2150": 38,
        "2151": 208,
        "2152": 188,
        "2153": 106,
        "2154": 121,
        "2155": 198,
        "2156": 144,
        "2157": 186,
        "2158": 86,
        "2159": 140,
        "2160": 50,
        "2161": 172,
        "2162": 42,
        "2163": 101,
        "2164": 137,
        "2165": 139,
        "2166": 109,
        "2167": 183,
        "2168": 132,
        "2169": 212,
        "2170": 54,
        "2171": 199,
        "2172": 244,
        "2173": 130,
        "2174": 174,
        "2175": 163,
        "2176": 103,
        "2177": 49,
        "2178": 44,
        "2179": 156,
        "2180": 55,
        "2181": 123,
        "2182": 3,
        "2183": 121,
        "2184": 50,
        "2185": 71,
        "2186": 46,
        "2187": 188,
        "2188": 26,
        "2189": 161,
        "2190": 3,
        "2191": 161,
        "2192": 65,
        "2193": 37,
        "2194": 246,
        "2195": 245,
        "2196": 7,
        "2197": 140,
        "2198": 235,
        "2199": 204,
        "2200": 106,
        "2201": 93,
        "2202": 73,
        "2203": 172,
        "2204": 118,
        "2205": 108,
        "2206": 145,
        "2207": 133,
        "2208": 19,
        "2209": 158,
        "2210": 96,
        "2211": 199,
        "2212": 254,
        "2213": 173,
        "2214": 97,
        "2215": 193,
        "2216": 78,
        "2217": 164,
        "2218": 64,
        "2219": 135,
        "2220": 208,
        "2221": 238,
        "2222": 138,
        "2223": 154,
        "2224": 52,
        "2225": 160,
        "2226": 137,
        "2227": 73,
        "2228": 212,
        "2229": 74,
        "2230": 88,
        "2231": 147,
        "2232": 52,
        "2233": 132,
        "2234": 11,
        "2235": 163,
        "2236": 178,
        "2237": 165,
        "2238": 246,
        "2239": 219,
        "2240": 4,
        "2241": 210,
        "2242": 227,
        "2243": 123,
        "2244": 56,
        "2245": 69,
        "2246": 71,
        "2247": 10,
        "2248": 53,
        "2249": 238,
        "2250": 64,
        "2251": 15,
        "2252": 4,
        "2253": 139,
        "2254": 157,
        "2255": 216,
        "2256": 86,
        "2257": 230,
        "2258": 248,
        "2259": 62,
        "2260": 17,
        "2261": 201,
        "2262": 202,
        "2263": 52,
        "2264": 17,
        "2265": 111,
        "2266": 222,
        "2267": 199,
        "2268": 66,
        "2269": 155,
        "2270": 36,
        "2271": 21,
        "2272": 98,
        "2273": 45,
        "2274": 60,
        "2275": 144,
        "2276": 134,
        "2277": 207,
        "2278": 163,
        "2279": 47,
        "2280": 61,
        "2281": 205,
        "2282": 8,
        "2283": 133,
        "2284": 168,
        "2285": 224,
        "2286": 72,
        "2287": 10,
        "2288": 15,
        "2289": 54,
        "2290": 165,
        "2291": 131,
        "2292": 197,
        "2293": 176,
        "2294": 33,
        "2295": 133,
        "2296": 114,
        "2297": 33,
        "2298": 82,
        "2299": 53,
        "2300": 74,
        "2301": 93,
        "2302": 209,
        "2303": 43,
        "2304": 175,
        "2305": 157,
        "2306": 117,
        "2307": 72,
        "2308": 189,
        "2309": 90,
        "2310": 145,
        "2311": 208,
        "2312": 204,
        "2313": 6,
        "2314": 126,
        "2315": 45,
        "2316": 233,
        "2317": 6,
        "2318": 251,
        "2319": 8,
        "2320": 20,
        "2321": 131,
        "2322": 59,
        "2323": 161,
        "2324": 135,
        "2325": 217,
        "2326": 196,
        "2327": 39,
        "2328": 153,
        "2329": 136,
        "2330": 252,
        "2331": 184,
        "2332": 230,
        "2333": 76,
        "2334": 9,
        "2335": 187,
        "2336": 146,
        "2337": 5,
        "2338": 73,
        "2339": 82,
        "2340": 202,
        "2341": 156,
        "2342": 182,
        "2343": 110,
        "2344": 49,
        "2345": 135,
        "2346": 243,
        "2347": 48,
        "2348": 107,
        "2349": 64,
        "2350": 69,
        "2351": 131,
        "2352": 188,
        "2353": 162,
        "2354": 5,
        "2355": 132,
        "2356": 181,
        "2357": 252,
        "2358": 250,
        "2359": 66,
        "2360": 213,
        "2361": 115,
        "2362": 97,
        "2363": 238,
        "2364": 216,
        "2365": 88,
        "2366": 142,
        "2367": 39,
        "2368": 210,
        "2369": 174,
        "2370": 24,
        "2371": 148,
        "2372": 118,
        "2373": 132,
        "2374": 172,
        "2375": 90,
        "2376": 232,
        "2377": 179,
        "2378": 52,
        "2379": 61,
        "2380": 247,
        "2381": 59,
        "2382": 238,
        "2383": 224,
        "2384": 90,
        "2385": 43,
        "2386": 215,
        "2387": 28,
        "2388": 128,
        "2389": 95,
        "2390": 1,
        "2391": 102,
        "2392": 87,
        "2393": 191,
        "2394": 203,
        "2395": 194,
        "2396": 235,
        "2397": 136,
        "2398": 153,
        "2399": 200,
        "2400": 65,
        "2401": 70,
        "2402": 131,
        "2403": 47,
        "2404": 41,
        "2405": 12,
        "2406": 250,
        "2407": 163,
        "2408": 135,
        "2409": 176,
        "2410": 67,
        "2411": 187,
        "2412": 246,
        "2413": 71,
        "2414": 220,
        "2415": 229,
        "2416": 124,
        "2417": 167,
        "2418": 31,
        "2419": 254,
        "2420": 149,
        "2421": 164,
        "2422": 29,
        "2423": 249,
        "2424": 164,
        "2425": 191,
        "2426": 47,
        "2427": 228,
        "2428": 86,
        "2429": 31,
        "2430": 96,
        "2431": 69,
        "2432": 132,
        "2433": 227,
        "2434": 154,
        "2435": 157,
        "2436": 122,
        "2437": 57,
        "2438": 218,
        "2439": 200,
        "2440": 239,
        "2441": 98,
        "2442": 43,
        "2443": 119,
        "2444": 191,
        "2445": 23,
        "2446": 105,
        "2447": 29,
        "2448": 80,
        "2449": 255,
        "2450": 67,
        "2451": 35,
        "2452": 104,
        "2453": 177,
        "2454": 89,
        "2455": 55,
        "2456": 101,
        "2457": 177,
        "2458": 239,
        "2459": 114,
        "2460": 87,
        "2461": 64,
        "2462": 209,
        "2463": 119,
        "2464": 228,
        "2465": 121,
        "2466": 246,
        "2467": 107,
        "2468": 244,
        "2469": 115,
        "2470": 79,
        "2471": 189,
        "2472": 173,
        "2473": 115,
        "2474": 225,
        "2475": 214,
        "2476": 234,
        "2477": 62,
        "2478": 162,
        "2479": 28,
        "2480": 70,
        "2481": 251,
        "2482": 201,
        "2483": 225,
        "2484": 191,
        "2485": 145,
        "2486": 107,
        "2487": 102,
        "2488": 132,
        "2489": 68,
        "2490": 51,
        "2491": 232,
        "2492": 96,
        "2493": 55,
        "2494": 200,
        "2495": 67,
        "2496": 19,
        "2497": 197,
        "2498": 170,
        "2499": 249,
        "2500": 42,
        "2501": 141,
        "2502": 35,
        "2503": 228,
        "2504": 218,
        "2505": 89,
        "2506": 22,
        "2507": 36,
        "2508": 173,
        "2509": 238,
        "2510": 103,
        "2511": 147,
        "2512": 129,
        "2513": 166,
        "2514": 147,
        "2515": 54,
        "2516": 26,
        "2517": 33,
        "2518": 248,
        "2519": 214,
        "2520": 66,
        "2521": 146,
        "2522": 191,
        "2523": 67,
        "2524": 229,
        "2525": 91,
        "2526": 6,
        "2527": 134,
        "2528": 199,
        "2529": 161,
        "2530": 9,
        "2531": 12,
        "2532": 226,
        "2533": 77,
        "2534": 177,
        "2535": 200,
        "2536": 144,
        "2537": 113,
        "2538": 76,
        "2539": 82,
        "2540": 17,
        "2541": 232,
        "2542": 7,
        "2543": 227,
        "2544": 129,
        "2545": 110,
        "2546": 148,
        "2547": 131,
        "2548": 63,
        "2549": 254,
        "2550": 209,
        "2551": 226,
        "2552": 95,
        "2553": 72,
        "2554": 228,
        "2555": 130,
        "2556": 177,
        "2557": 235,
        "2558": 141,
        "2559": 175,
        "2560": 125,
        "2561": 53,
        "2562": 240,
        "2563": 193,
        "2564": 163,
        "2565": 0,
        "2566": 169,
        "2567": 156,
        "2568": 230,
        "2569": 103,
        "2570": 8,
        "2571": 224,
        "2572": 121,
        "2573": 159,
        "2574": 207,
        "2575": 79,
        "2576": 55,
        "2577": 213,
        "2578": 218,
        "2579": 155,
        "2580": 200,
        "2581": 136,
        "2582": 196,
        "2583": 152,
        "2584": 142,
        "2585": 225,
        "2586": 11,
        "2587": 237,
        "2588": 194,
        "2589": 230,
        "2590": 59,
        "2591": 164,
        "2592": 142,
        "2593": 162,
        "2594": 99,
        "2595": 76,
        "2596": 110,
        "2597": 4,
        "2598": 186,
        "2599": 122,
        "2600": 40,
        "2601": 224,
        "2602": 156,
        "2603": 103,
        "2604": 19,
        "2605": 12,
        "2606": 189,
        "2607": 214,
        "2608": 167,
        "2609": 182,
        "2610": 177,
        "2611": 94,
        "2612": 235,
        "2613": 233,
        "2614": 138,
        "2615": 163,
        "2616": 176,
        "2617": 7,
        "2618": 103,
        "2619": 144,
        "2620": 116,
        "2621": 154,
        "2622": 15,
        "2623": 170,
        "2624": 183,
        "2625": 18,
        "2626": 166,
        "2627": 187,
        "2628": 17,
        "2629": 145,
        "2630": 133,
        "2631": 149,
        "2632": 49,
        "2633": 97,
        "2634": 108,
        "2635": 139,
        "2636": 33,
        "2637": 169,
        "2638": 160,
        "2639": 91,
        "2640": 37,
        "2641": 212,
        "2642": 238,
        "2643": 179,
        "2644": 200,
        "2645": 151,
        "2646": 226,
        "2647": 103,
        "2648": 96,
        "2649": 253,
        "2650": 36,
        "2651": 99,
        "2652": 47,
        "2653": 208,
        "2654": 25,
        "2655": 48,
        "2656": 123,
        "2657": 94,
        "2658": 65,
        "2659": 80,
        "2660": 9,
        "2661": 90,
        "2662": 14,
        "2663": 238,
        "2664": 167,
        "2665": 68,
        "2666": 14,
        "2667": 198,
        "2668": 161,
        "2669": 34,
        "2670": 57,
        "2671": 82,
        "2672": 96,
        "2673": 36,
        "2674": 209,
        "2675": 21,
        "2676": 64,
        "2677": 167,
        "2678": 179,
        "2679": 90,
        "2680": 24,
        "2681": 170,
        "2682": 93,
        "2683": 172,
        "2684": 54,
        "2685": 50,
        "2686": 105,
        "2687": 227,
        "2688": 87,
        "2689": 56,
        "2690": 214,
        "2691": 79,
        "2692": 42,
        "2693": 22,
        "2694": 118,
        "2695": 167,
        "2696": 193,
        "2697": 214,
        "2698": 194,
        "2699": 158,
        "2700": 172,
        "2701": 178,
        "2702": 153,
        "2703": 81,
        "2704": 48,
        "2705": 150,
        "2706": 3,
        "2707": 132,
        "2708": 31,
        "2709": 217,
        "2710": 91,
        "2711": 48,
        "2712": 82,
        "2713": 5,
        "2714": 74,
        "2715": 41,
        "2716": 29,
        "2717": 102,
        "2718": 175,
        "2719": 176,
        "2720": 33,
        "2721": 93,
        "2722": 75,
        "2723": 34,
        "2724": 43,
        "2725": 179,
        "2726": 214,
        "2727": 122,
        "2728": 21,
        "2729": 7,
        "2730": 179,
        "2731": 58,
        "2732": 139,
        "2733": 228,
        "2734": 151,
        "2735": 39,
        "2736": 102,
        "2737": 41,
        "2738": 194,
        "2739": 34,
        "2740": 49,
        "2741": 146,
        "2742": 18,
        "2743": 172,
        "2744": 226,
        "2745": 33,
        "2746": 125,
        "2747": 236,
        "2748": 216,
        "2749": 72,
        "2750": 235,
        "2751": 85,
        "2752": 211,
        "2753": 111,
        "2754": 78,
        "2755": 30,
        "2756": 69,
        "2757": 93,
        "2758": 189,
        "2759": 182,
        "2760": 47,
        "2761": 137,
        "2762": 169,
        "2763": 192,
        "2764": 81,
        "2765": 192,
        "2766": 156,
        "2767": 221,
        "2768": 125,
        "2769": 216,
        "2770": 178,
        "2771": 64,
        "2772": 164,
        "2773": 250,
        "2774": 105,
        "2775": 247,
        "2776": 85,
        "2777": 59,
        "2778": 133,
        "2779": 52,
        "2780": 11,
        "2781": 113,
        "2782": 231,
        "2783": 24,
        "2784": 244,
        "2785": 166,
        "2786": 219,
        "2787": 123,
        "2788": 224,
        "2789": 36,
        "2790": 101,
        "2791": 0,
        "2792": 72,
        "2793": 84,
        "2794": 231,
        "2795": 240,
        "2796": 135,
        "2797": 240,
        "2798": 199,
        "2799": 229,
        "2800": 160,
        "2801": 221,
        "2802": 113,
        "2803": 239,
        "2804": 19,
        "2805": 126,
        "2806": 39,
        "2807": 230,
        "2808": 104,
        "2809": 174,
        "2810": 79,
        "2811": 234,
        "2812": 170,
        "2813": 12,
        "2814": 210,
        "2815": 133,
        "2816": 133,
        "2817": 40,
        "2818": 45,
        "2819": 8,
        "2820": 228,
        "2821": 127,
        "2822": 25,
        "2823": 182,
        "2824": 55,
        "2825": 55,
        "2826": 202,
        "2827": 64,
        "2828": 227,
        "2829": 115,
        "2830": 235,
        "2831": 17,
        "2832": 104,
        "2833": 90,
        "2834": 1,
        "2835": 6,
        "2836": 227,
        "2837": 45,
        "2838": 100,
        "2839": 81,
        "2840": 59,
        "2841": 248,
        "2842": 223,
        "2843": 221,
        "2844": 219,
        "2845": 149,
        "2846": 98,
        "2847": 17,
        "2848": 124,
        "2849": 194,
        "2850": 244,
        "2851": 189,
        "2852": 181,
        "2853": 22,
        "2854": 199,
        "2855": 130,
        "2856": 131,
        "2857": 25,
        "2858": 251,
        "2859": 113,
        "2860": 200,
        "2861": 239,
        "2862": 148,
        "2863": 148,
        "2864": 5,
        "2865": 133,
        "2866": 26,
        "2867": 15,
        "2868": 64,
        "2869": 220,
        "2870": 124,
        "2871": 42,
        "2872": 168,
        "2873": 182,
        "2874": 253,
        "2875": 75,
        "2876": 202,
        "2877": 160,
        "2878": 142,
        "2879": 99,
        "2880": 43,
        "2881": 90,
        "2882": 134,
        "2883": 235,
        "2884": 95,
        "2885": 46,
        "2886": 57,
        "2887": 30,
        "2888": 159,
        "2889": 80,
        "2890": 140,
        "2891": 59,
        "2892": 168,
        "2893": 134,
        "2894": 161,
        "2895": 214,
        "2896": 127,
        "2897": 14,
        "2898": 168,
        "2899": 71,
        "2900": 220,
        "2901": 96,
        "2902": 10,
        "2903": 138,
        "2904": 139,
        "2905": 32,
        "2906": 82,
        "2907": 220,
        "2908": 217,
        "2909": 0,
        "2910": 47,
        "2911": 1,
        "2912": 53,
        "2913": 130,
        "2914": 121,
        "2915": 101,
        "2916": 172,
        "2917": 128,
        "2918": 208,
        "2919": 154,
        "2920": 70,
        "2921": 37,
        "2922": 176,
        "2923": 88,
        "2924": 131,
        "2925": 220,
        "2926": 191,
        "2927": 6,
        "2928": 103,
        "2929": 85,
        "2930": 24,
        "2931": 153,
        "2932": 128,
        "2933": 221,
        "2934": 244,
        "2935": 143,
        "2936": 163,
        "2937": 133,
        "2938": 161,
        "2939": 160,
        "2940": 243,
        "2941": 60,
        "2942": 233,
        "2943": 99,
        "2944": 136,
        "2945": 168,
        "2946": 180,
        "2947": 26,
        "2948": 223,
        "2949": 171,
        "2950": 123,
        "2951": 209,
        "2952": 94,
        "2953": 85,
        "2954": 32,
        "2955": 252,
        "2956": 227,
        "2957": 147,
        "2958": 145,
        "2959": 225,
        "2960": 128,
        "2961": 61,
        "2962": 144,
        "2963": 71,
        "2964": 195,
        "2965": 142,
        "2966": 27,
        "2967": 72,
        "2968": 69,
        "2969": 61,
        "2970": 191,
        "2971": 147,
        "2972": 64,
        "2973": 200,
        "2974": 99,
        "2975": 213,
        "2976": 177,
        "2977": 239,
        "2978": 198,
        "2979": 223,
        "2980": 203,
        "2981": 203,
        "2982": 2,
        "2983": 77,
        "2984": 107,
        "2985": 52,
        "2986": 73,
        "2987": 45,
        "2988": 45,
        "2989": 109,
        "2990": 51,
        "2991": 98,
        "2992": 118,
        "2993": 26,
        "2994": 199,
        "2995": 132,
        "2996": 218,
        "2997": 61,
        "2998": 238,
        "2999": 196,
        "3000": 67,
        "3001": 32,
        "3002": 72,
        "3003": 201,
        "3004": 111,
        "3005": 47,
        "3006": 109,
        "3007": 220,
        "3008": 206,
        "3009": 221,
        "3010": 111,
        "3011": 61,
        "3012": 251,
        "3013": 135,
        "3014": 72,
        "3015": 216,
        "3016": 80,
        "3017": 58,
        "3018": 213,
        "3019": 238,
        "3020": 239,
        "3021": 164,
        "3022": 38,
        "3023": 20,
        "3024": 9,
        "3025": 184,
        "3026": 172,
        "3027": 41,
        "3028": 162,
        "3029": 39,
        "3030": 176,
        "3031": 110,
        "3032": 41,
        "3033": 192,
        "3034": 20,
        "3035": 13,
        "3036": 247,
        "3037": 208,
        "3038": 146,
        "3039": 140,
        "3040": 138,
        "3041": 210,
        "3042": 131,
        "3043": 142,
        "3044": 3,
        "3045": 197,
        "3046": 172,
        "3047": 212,
        "3048": 93,
        "3049": 55,
        "3050": 94,
        "3051": 80,
        "3052": 1,
        "3053": 226,
        "3054": 31,
        "3055": 187,
        "3056": 104,
        "3057": 4,
        "3058": 249,
        "3059": 69,
        "3060": 190,
        "3061": 56,
        "3062": 142,
        "3063": 138,
        "3064": 150,
        "3065": 117,
        "3066": 189,
        "3067": 239,
        "3068": 43,
        "3069": 237,
        "3070": 160,
        "3071": 2,
        "3072": 67,
        "3073": 229,
        "3074": 195,
        "3075": 219,
        "3076": 177,
        "3077": 60,
        "3078": 23,
        "3079": 162,
        "3080": 171,
        "3081": 251,
        "3082": 173,
        "3083": 131,
        "3084": 135,
        "3085": 11,
        "3086": 159,
        "3087": 23,
        "3088": 35,
        "3089": 102,
        "3090": 0,
        "3091": 31,
        "3092": 18,
        "3093": 122,
        "3094": 40,
        "3095": 51,
        "3096": 80,
        "3097": 166,
        "3098": 132,
        "3099": 103,
        "3100": 225,
        "3101": 195,
        "3102": 201,
        "3103": 117,
        "3104": 55,
        "3105": 54,
        "3106": 226,
        "3107": 74,
        "3108": 136,
        "3109": 169,
        "3110": 198,
        "3111": 174,
        "3112": 24,
        "3113": 132,
        "3114": 16,
        "3115": 19,
        "3116": 198,
        "3117": 20,
        "3118": 44,
        "3119": 191,
        "3120": 163,
        "3121": 221,
        "3122": 190,
        "3123": 251,
        "3124": 179,
        "3125": 117,
        "3126": 166,
        "3127": 161,
        "3128": 159,
        "3129": 234,
        "3130": 43,
        "3131": 190,
        "3132": 148,
        "3133": 169,
        "3134": 149,
        "3135": 116,
        "3136": 0,
        "3137": 230,
        "3138": 27,
        "3139": 157,
        "3140": 67,
        "3141": 229,
        "3142": 233,
        "3143": 209,
        "3144": 8,
        "3145": 233,
        "3146": 78,
        "3147": 153,
        "3148": 213,
        "3149": 126,
        "3150": 199,
        "3151": 38,
        "3152": 11,
        "3153": 79,
        "3154": 81,
        "3155": 72,
        "3156": 2,
        "3157": 117,
        "3158": 213,
        "3159": 164,
        "3160": 59,
        "3161": 42,
        "3162": 62,
        "3163": 20,
        "3164": 246,
        "3165": 26,
        "3166": 53,
        "3167": 64,
        "3168": 27,
        "3169": 19,
        "3170": 114,
        "3171": 176,
        "3172": 115,
        "3173": 248,
        "3174": 159,
        "3175": 37,
        "3176": 252,
        "3177": 10,
        "3178": 33,
        "3179": 134,
        "3180": 83,
        "3181": 214,
        "3182": 152,
        "3183": 47,
        "3184": 90,
        "3185": 117,
        "3186": 51,
        "3187": 183,
        "3188": 245,
        "3189": 218,
        "3190": 64,
        "3191": 242,
        "3192": 86,
        "3193": 93,
        "3194": 9,
        "3195": 201,
        "3196": 76,
        "3197": 202,
        "3198": 25,
        "3199": 185,
        "3200": 130,
        "3201": 245,
        "3202": 142,
        "3203": 57,
        "3204": 142,
        "3205": 79,
        "3206": 23,
        "3207": 46,
        "3208": 184,
        "3209": 244,
        "3210": 213,
        "3211": 80,
        "3212": 202,
        "3213": 119,
        "3214": 34,
        "3215": 45,
        "3216": 24,
        "3217": 160,
        "3218": 55,
        "3219": 116,
        "3220": 183,
        "3221": 248,
        "3222": 4,
        "3223": 59,
        "3224": 9,
        "3225": 11,
        "3226": 232,
        "3227": 177,
        "3228": 72,
        "3229": 162,
        "3230": 148,
        "3231": 155,
        "3232": 234,
        "3233": 33,
        "3234": 128,
        "3235": 247,
        "3236": 116,
        "3237": 103,
        "3238": 149,
        "3239": 132,
        "3240": 91,
        "3241": 224,
        "3242": 40,
        "3243": 66,
        "3244": 135,
        "3245": 34,
        "3246": 234,
        "3247": 41,
        "3248": 142,
        "3249": 63,
        "3250": 226,
        "3251": 164,
        "3252": 96,
        "3253": 117,
        "3254": 119,
        "3255": 243,
        "3256": 121,
        "3257": 224,
        "3258": 2,
        "3259": 8,
        "3260": 172,
        "3261": 131,
        "3262": 178,
        "3263": 28,
        "3264": 155,
        "3265": 114,
        "3266": 143,
        "3267": 84,
        "3268": 112,
        "3269": 131,
        "3270": 139,
        "3271": 193,
        "3272": 244,
        "3273": 42,
        "3274": 100,
        "3275": 163,
        "3276": 26,
        "3277": 230,
        "3278": 100,
        "3279": 205,
        "3280": 133,
        "3281": 150,
        "3282": 237,
        "3283": 218,
        "3284": 235,
        "3285": 9,
        "3286": 111,
        "3287": 221,
        "3288": 125,
        "3289": 249,
        "3290": 59,
        "3291": 185,
        "3292": 131,
        "3293": 101,
        "3294": 166,
        "3295": 205,
        "3296": 36,
        "3297": 199,
        "3298": 74,
        "3299": 187,
        "3300": 73,
        "3301": 142,
        "3302": 134,
        "3303": 64,
        "3304": 144,
        "3305": 12,
        "3306": 101,
        "3307": 26,
        "3308": 238,
        "3309": 93,
        "3310": 217,
        "3311": 136,
        "3312": 233,
        "3313": 103,
        "3314": 40,
        "3315": 172,
        "3316": 69,
        "3317": 238,
        "3318": 122,
        "3319": 148,
        "3320": 252,
        "3321": 86,
        "3322": 255,
        "3323": 88,
        "3324": 155,
        "3325": 9,
        "3326": 184,
        "3327": 110,
        "3328": 70,
        "3329": 132,
        "3330": 37,
        "3331": 30,
        "3332": 95,
        "3333": 250,
        "3334": 157,
        "3335": 79,
        "3336": 169,
        "3337": 93,
        "3338": 11,
        "3339": 128,
        "3340": 157,
        "3341": 142,
        "3342": 123,
        "3343": 200,
        "3344": 45,
        "3345": 186,
        "3346": 227,
        "3347": 18,
        "3348": 163,
        "3349": 51,
        "3350": 72,
        "3351": 126,
        "3352": 122,
        "3353": 115,
        "3354": 65,
        "3355": 163,
        "3356": 3,
        "3357": 63,
        "3358": 199,
        "3359": 115,
        "3360": 199,
        "3361": 18,
        "3362": 12,
        "3363": 34,
        "3364": 65,
        "3365": 210,
        "3366": 230,
        "3367": 41,
        "3368": 215,
        "3369": 62,
        "3370": 31,
        "3371": 172,
        "3372": 81,
        "3373": 18,
        "3374": 42,
        "3375": 24,
        "3376": 185,
        "3377": 232,
        "3378": 159,
        "3379": 74,
        "3380": 2,
        "3381": 178,
        "3382": 74,
        "3383": 171,
        "3384": 35,
        "3385": 158,
        "3386": 36,
        "3387": 159,
        "3388": 55,
        "3389": 185,
        "3390": 216,
        "3391": 192,
        "3392": 183,
        "3393": 48,
        "3394": 188,
        "3395": 186,
        "3396": 145,
        "3397": 74,
        "3398": 121,
        "3399": 196,
        "3400": 205,
        "3401": 44,
        "3402": 208,
        "3403": 66,
        "3404": 171,
        "3405": 110,
        "3406": 49,
        "3407": 159,
        "3408": 113,
        "3409": 86,
        "3410": 173,
        "3411": 126,
        "3412": 47,
        "3413": 185,
        "3414": 8,
        "3415": 91,
        "3416": 45,
        "3417": 89,
        "3418": 222,
        "3419": 71,
        "3420": 243,
        "3421": 240,
        "3422": 30,
        "3423": 72,
        "3424": 53,
        "3425": 235,
        "3426": 122,
        "3427": 175,
        "3428": 194,
        "3429": 2,
        "3430": 215,
        "3431": 112,
        "3432": 202,
        "3433": 217,
        "3434": 132,
        "3435": 38,
        "3436": 149,
        "3437": 211,
        "3438": 254,
        "3439": 121,
        "3440": 82,
        "3441": 236,
        "3442": 123,
        "3443": 109,
        "3444": 211,
        "3445": 99,
        "3446": 244,
        "3447": 50,
        "3448": 76,
        "3449": 239,
        "3450": 121,
        "3451": 3,
        "3452": 237,
        "3453": 211,
        "3454": 150,
        "3455": 241,
        "3456": 42,
        "3457": 72,
        "3458": 122,
        "3459": 190,
        "3460": 230,
        "3461": 133,
        "3462": 124,
        "3463": 134,
        "3464": 245,
        "3465": 121,
        "3466": 243,
        "3467": 49,
        "3468": 185,
        "3469": 245,
        "3470": 89,
        "3471": 168,
        "3472": 112,
        "3473": 168,
        "3474": 204,
        "3475": 111,
        "3476": 106,
        "3477": 155,
        "3478": 142,
        "3479": 9,
        "3480": 253,
        "3481": 48,
        "3482": 100,
        "3483": 69,
        "3484": 34,
        "3485": 88,
        "3486": 202,
        "3487": 67,
        "3488": 132,
        "3489": 56,
        "3490": 195,
        "3491": 155,
        "3492": 110,
        "3493": 30,
        "3494": 220,
        "3495": 251,
        "3496": 136,
        "3497": 132,
        "3498": 245,
        "3499": 232,
        "3500": 184,
        "3501": 155,
        "3502": 175,
        "3503": 28,
        "3504": 154,
        "3505": 190,
        "3506": 49,
        "3507": 201,
        "3508": 117,
        "3509": 57,
        "3510": 243,
        "3511": 193,
        "3512": 178,
        "3513": 127,
        "3514": 27,
        "3515": 134,
        "3516": 43,
        "3517": 119,
        "3518": 154,
        "3519": 78,
        "3520": 214,
        "3521": 38,
        "3522": 217,
        "3523": 211,
        "3524": 154,
        "3525": 105,
        "3526": 144,
        "3527": 168,
        "3528": 111,
        "3529": 33,
        "3530": 202,
        "3531": 203,
        "3532": 30,
        "3533": 106,
        "3534": 40,
        "3535": 111,
        "3536": 71,
        "3537": 222,
        "3538": 72,
        "3539": 8,
        "3540": 192,
        "3541": 200,
        "3542": 246,
        "3543": 11,
        "3544": 160,
        "3545": 253,
        "3546": 121,
        "3547": 17,
        "3548": 135,
        "3549": 112,
        "3550": 4,
        "3551": 88,
        "3552": 83,
        "3553": 31,
        "3554": 236,
        "3555": 18,
        "3556": 233,
        "3557": 209,
        "3558": 236,
        "3559": 25,
        "3560": 87,
        "3561": 197,
        "3562": 90,
        "3563": 50,
        "3564": 46,
        "3565": 34,
        "3566": 199,
        "3567": 109,
        "3568": 157,
        "3569": 80,
        "3570": 64,
        "3571": 33,
        "3572": 153,
        "3573": 192,
        "3574": 95,
        "3575": 54,
        "3576": 128,
        "3577": 165,
        "3578": 144,
        "3579": 253,
        "3580": 48,
        "3581": 3,
        "3582": 81,
        "3583": 62,
        "3584": 152,
        "3585": 100,
        "3586": 214,
        "3587": 102,
        "3588": 73,
        "3589": 78,
        "3590": 28,
        "3591": 247,
        "3592": 4,
        "3593": 152,
        "3594": 174,
        "3595": 199,
        "3596": 71,
        "3597": 86,
        "3598": 103,
        "3599": 80,
        "3600": 194,
        "3601": 239,
        "3602": 34,
        "3603": 106,
        "3604": 224,
        "3605": 229,
        "3606": 111,
        "3607": 109,
        "3608": 190,
        "3609": 182,
        "3610": 101,
        "3611": 51,
        "3612": 7,
        "3613": 244,
        "3614": 149,
        "3615": 163,
        "3616": 25,
        "3617": 181,
        "3618": 220,
        "3619": 26,
        "3620": 99,
        "3621": 202,
        "3622": 13,
        "3623": 54,
        "3624": 85,
        "3625": 229,
        "3626": 81,
        "3627": 207,
        "3628": 6,
        "3629": 109,
        "3630": 117,
        "3631": 43,
        "3632": 225,
        "3633": 254,
        "3634": 237,
        "3635": 238,
        "3636": 112,
        "3637": 106,
        "3638": 150,
        "3639": 235,
        "3640": 172,
        "3641": 152,
        "3642": 253,
        "3643": 34,
        "3644": 99,
        "3645": 14,
        "3646": 118,
        "3647": 218,
        "3648": 158,
        "3649": 255,
        "3650": 210,
        "3651": 197,
        "3652": 16,
        "3653": 38,
        "3654": 27,
        "3655": 113,
        "3656": 125,
        "3657": 90,
        "3658": 63,
        "3659": 158,
        "3660": 158,
        "3661": 198,
        "3662": 20,
        "3663": 11,
        "3664": 71,
        "3665": 222,
        "3666": 172,
        "3667": 138,
        "3668": 190,
        "3669": 236,
        "3670": 189,
        "3671": 140,
        "3672": 243,
        "3673": 218,
        "3674": 6,
        "3675": 64,
        "3676": 222,
        "3677": 70,
        "3678": 164,
        "3679": 24,
        "3680": 216,
        "3681": 6,
        "3682": 166,
        "3683": 216,
        "3684": 54,
        "3685": 247,
        "3686": 100,
        "3687": 60,
        "3688": 22,
        "3689": 172,
        "3690": 0,
        "3691": 237,
        "3692": 207,
        "3693": 146,
        "3694": 96,
        "3695": 172,
        "3696": 201,
        "3697": 212,
        "3698": 153,
        "3699": 206,
        "3700": 90,
        "3701": 177,
        "3702": 101,
        "3703": 23,
        "3704": 27,
        "3705": 223,
        "3706": 66,
        "3707": 230,
        "3708": 49,
        "3709": 23,
        "3710": 164,
        "3711": 200,
        "3712": 55,
        "3713": 181,
        "3714": 21,
        "3715": 38,
        "3716": 30,
        "3717": 184,
        "3718": 70,
        "3719": 41,
        "3720": 94,
        "3721": 203,
        "3722": 57,
        "3723": 132,
        "3724": 62,
        "3725": 183,
        "3726": 224,
        "3727": 172,
        "3728": 140,
        "3729": 88,
        "3730": 242,
        "3731": 227,
        "3732": 171,
        "3733": 196,
        "3734": 22,
        "3735": 64,
        "3736": 179,
        "3737": 45,
        "3738": 222,
        "3739": 228,
        "3740": 172,
        "3741": 97,
        "3742": 102,
        "3743": 193,
        "3744": 237,
        "3745": 191,
        "3746": 109,
        "3747": 40,
        "3748": 119,
        "3749": 120,
        "3750": 1,
        "3751": 112,
        "3752": 75,
        "3753": 182,
        "3754": 243,
        "3755": 7,
        "3756": 199,
        "3757": 89,
        "3758": 164,
        "3759": 99,
        "3760": 33,
        "3761": 234,
        "3762": 5,
        "3763": 206,
        "3764": 43,
        "3765": 245,
        "3766": 250,
        "3767": 128,
        "3768": 38,
        "3769": 33,
        "3770": 167,
        "3771": 228,
        "3772": 142,
        "3773": 29,
        "3774": 204,
        "3775": 165,
        "3776": 133,
        "3777": 174,
        "3778": 204,
        "3779": 49,
        "3780": 57,
        "3781": 148,
        "3782": 83,
        "3783": 231,
        "3784": 186,
        "3785": 136,
        "3786": 208,
        "3787": 205,
        "3788": 108,
        "3789": 161,
        "3790": 43,
        "3791": 171,
        "3792": 102,
        "3793": 36,
        "3794": 86,
        "3795": 29,
        "3796": 189,
        "3797": 140,
        "3798": 27,
        "3799": 41,
        "3800": 102,
        "3801": 108,
        "3802": 190,
        "3803": 245,
        "3804": 48,
        "3805": 226,
        "3806": 87,
        "3807": 83,
        "3808": 59,
        "3809": 208,
        "3810": 30,
        "3811": 28,
        "3812": 209,
        "3813": 241,
        "3814": 163,
        "3815": 220,
        "3816": 42,
        "3817": 71,
        "3818": 219,
        "3819": 192,
        "3820": 128,
        "3821": 170,
        "3822": 182,
        "3823": 79,
        "3824": 184,
        "3825": 47,
        "3826": 202,
        "3827": 86,
        "3828": 64,
        "3829": 189,
        "3830": 168,
        "3831": 63,
        "3832": 21,
        "3833": 46,
        "3834": 247,
        "3835": 249,
        "3836": 190,
        "3837": 124,
        "3838": 112,
        "3839": 92,
        "3840": 69,
        "3841": 96,
        "3842": 92,
        "3843": 166,
        "3844": 55,
        "3845": 177,
        "3846": 128,
        "3847": 108,
        "3848": 36,
        "3849": 127,
        "3850": 59,
        "3851": 93,
        "3852": 200,
        "3853": 99,
        "3854": 202,
        "3855": 132,
        "3856": 181,
        "3857": 131,
        "3858": 136,
        "3859": 218,
        "3860": 46,
        "3861": 179,
        "3862": 120,
        "3863": 79,
        "3864": 168,
        "3865": 47,
        "3866": 162,
        "3867": 22,
        "3868": 130,
        "3869": 164,
        "3870": 104,
        "3871": 117,
        "3872": 89,
        "3873": 126,
        "3874": 162,
        "3875": 204,
        "3876": 78,
        "3877": 50,
        "3878": 36,
        "3879": 9,
        "3880": 231,
        "3881": 168,
        "3882": 51,
        "3883": 38,
        "3884": 252,
        "3885": 106,
        "3886": 48,
        "3887": 136,
        "3888": 131,
        "3889": 17,
        "3890": 198,
        "3891": 63,
        "3892": 150,
        "3893": 190,
        "3894": 127,
        "3895": 111,
        "3896": 209,
        "3897": 116,
        "3898": 38,
        "3899": 138,
        "3900": 102,
        "3901": 63,
        "3902": 151,
        "3903": 89,
        "3904": 156,
        "3905": 6,
        "3906": 36,
        "3907": 0,
        "3908": 203,
        "3909": 253,
        "3910": 27,
        "3911": 80,
        "3912": 45,
        "3913": 149,
        "3914": 170,
        "3915": 196,
        "3916": 115,
        "3917": 16,
        "3918": 175,
        "3919": 53,
        "3920": 205,
        "3921": 245,
        "3922": 114,
        "3923": 113,
        "3924": 87,
        "3925": 120,
        "3926": 84,
        "3927": 100,
        "3928": 104,
        "3929": 225,
        "3930": 191,
        "3931": 87,
        "3932": 96,
        "3933": 134,
        "3934": 201,
        "3935": 220,
        "3936": 218,
        "3937": 119,
        "3938": 216,
        "3939": 72,
        "3940": 222,
        "3941": 186,
        "3942": 182,
        "3943": 239,
        "3944": 182,
        "3945": 119,
        "3946": 101,
        "3947": 230,
        "3948": 186,
        "3949": 240,
        "3950": 195,
        "3951": 230,
        "3952": 2,
        "3953": 40,
        "3954": 47,
        "3955": 152,
        "3956": 86,
        "3957": 51,
        "3958": 200,
        "3959": 192,
        "3960": 212,
        "3961": 67,
        "3962": 122,
        "3963": 210,
        "3964": 83,
        "3965": 140,
        "3966": 175,
        "3967": 175,
        "3968": 115,
        "3969": 81,
        "3970": 254,
        "3971": 199,
        "3972": 22,
        "3973": 181,
        "3974": 178,
        "3975": 253,
        "3976": 149,
        "3977": 85,
        "3978": 53,
        "3979": 17,
        "3980": 221,
        "3981": 202,
        "3982": 87,
        "3983": 38,
        "3984": 59,
        "3985": 248,
        "3986": 110,
        "3987": 25,
        "3988": 224,
        "3989": 130,
        "3990": 30,
        "3991": 82,
        "3992": 169,
        "3993": 79,
        "3994": 149,
        "3995": 216,
        "3996": 151,
        "3997": 150,
        "3998": 118,
        "3999": 71,
        "4000": 151,
        "4001": 93,
        "4002": 129,
        "4003": 219,
        "4004": 119,
        "4005": 48,
        "4006": 165,
        "4007": 9,
        "4008": 103,
        "4009": 97,
        "4010": 56,
        "4011": 48,
        "4012": 204,
        "4013": 161,
        "4014": 193,
        "4015": 101,
        "4016": 98,
        "4017": 211,
        "4018": 29,
        "4019": 96,
        "4020": 96,
        "4021": 86,
        "4022": 177,
        "4023": 3,
        "4024": 2,
        "4025": 4,
        "4026": 167,
        "4027": 89,
        "4028": 101,
        "4029": 172,
        "4030": 218,
        "4031": 185,
        "4032": 14,
        "4033": 183,
        "4034": 179,
        "4035": 188,
        "4036": 199,
        "4037": 29,
        "4038": 22,
        "4039": 179,
        "4040": 40,
        "4041": 233,
        "4042": 77,
        "4043": 105,
        "4044": 140,
        "4045": 49,
        "4046": 218,
        "4047": 82,
        "4048": 100,
        "4049": 70,
        "4050": 136,
        "4051": 91,
        "4052": 75,
        "4053": 154,
        "4054": 236,
        "4055": 4,
        "4056": 83,
        "4057": 227,
        "4058": 41,
        "4059": 201,
        "4060": 110,
        "4061": 12,
        "4062": 127,
        "4063": 184,
        "4064": 218,
        "4065": 93,
        "4066": 232,
        "4067": 138,
        "4068": 161,
        "4069": 6,
        "4070": 28,
        "4071": 157,
        "4072": 147,
        "4073": 132,
        "4074": 85,
        "4075": 179,
        "4076": 155,
        "4077": 39,
        "4078": 119,
        "4079": 232,
        "4080": 61,
        "4081": 237,
        "4082": 248,
        "4083": 143,
        "4084": 138,
        "4085": 60,
        "4086": 131,
        "4087": 45,
        "4088": 35,
        "4089": 246,
        "4090": 37,
        "4091": 84,
        "4092": 62,
        "4093": 223,
        "4094": 216,
        "4095": 41,
        "4096": 111,
        "4097": 173,
        "4098": 136,
        "4099": 151,
        "4100": 74,
        "4101": 155,
        "4102": 44,
        "4103": 59,
        "4104": 133,
        "4105": 50,
        "4106": 16,
        "4107": 64,
        "4108": 204,
        "4109": 3,
        "4110": 252,
        "4111": 200,
        "4112": 141,
        "4113": 2,
        "4114": 36,
        "4115": 243,
        "4116": 31,
        "4117": 49,
        "4118": 56,
        "4119": 11,
        "4120": 179,
        "4121": 211,
        "4122": 26,
        "4123": 194,
        "4124": 132,
        "4125": 89,
        "4126": 253,
        "4127": 229,
        "4128": 52,
        "4129": 94,
        "4130": 55,
        "4131": 206,
        "4132": 133,
        "4133": 253,
        "4134": 151,
        "4135": 54,
        "4136": 35,
        "4137": 110,
        "4138": 73,
        "4139": 98,
        "4140": 6,
        "4141": 8,
        "4142": 39,
        "4143": 9,
        "4144": 15,
        "4145": 179,
        "4146": 242,
        "4147": 176,
        "4148": 196,
        "4149": 105,
        "4150": 39,
        "4151": 235,
        "4152": 8,
        "4153": 4,
        "4154": 214,
        "4155": 223,
        "4156": 219,
        "4157": 173,
        "4158": 107,
        "4159": 87,
        "4160": 190,
        "4161": 28,
        "4162": 159,
        "4163": 70,
        "4164": 48,
        "4165": 218,
        "4166": 239,
        "4167": 85,
        "4168": 232,
        "4169": 160,
        "4170": 65,
        "4171": 103,
        "4172": 216,
        "4173": 255,
        "4174": 116,
        "4175": 69,
        "4176": 102,
        "4177": 64,
        "4178": 86,
        "4179": 108,
        "4180": 211,
        "4181": 220,
        "4182": 3,
        "4183": 210,
        "4184": 17,
        "4185": 9,
        "4186": 21,
        "4187": 143,
        "4188": 120,
        "4189": 154,
        "4190": 235,
        "4191": 22,
        "4192": 16,
        "4193": 134,
        "4194": 216,
        "4195": 78,
        "4196": 160,
        "4197": 202,
        "4198": 17,
        "4199": 160,
        "4200": 91,
        "4201": 29,
        "4202": 96,
        "4203": 14,
        "4204": 158,
        "4205": 110,
        "4206": 123,
        "4207": 222,
        "4208": 53,
        "4209": 102,
        "4210": 72,
        "4211": 148,
        "4212": 159,
        "4213": 78,
        "4214": 117,
        "4215": 0,
        "4216": 192,
        "4217": 62,
        "4218": 83,
        "4219": 120,
        "4220": 53,
        "4221": 100,
        "4222": 199,
        "4223": 129,
        "4224": 82,
        "4225": 156,
        "4226": 252,
        "4227": 81,
        "4228": 158,
        "4229": 200,
        "4230": 106,
        "4231": 231,
        "4232": 70,
        "4233": 2,
        "4234": 30,
        "4235": 144,
        "4236": 71,
        "4237": 6,
        "4238": 120,
        "4239": 27,
        "4240": 173,
        "4241": 146,
        "4242": 195,
        "4243": 22,
        "4244": 215,
        "4245": 162,
        "4246": 137,
        "4247": 234,
        "4248": 228,
        "4249": 197,
        "4250": 57,
        "4251": 45,
        "4252": 234,
        "4253": 126,
        "4254": 160,
        "4255": 152,
        "4256": 118,
        "4257": 180,
        "4258": 192,
        "4259": 147,
        "4260": 26,
        "4261": 205,
        "4262": 198,
        "4263": 205,
        "4264": 104,
        "4265": 96,
        "4266": 225,
        "4267": 219,
        "4268": 236,
        "4269": 108,
        "4270": 64,
        "4271": 226,
        "4272": 49,
        "4273": 164,
        "4274": 143,
        "4275": 214,
        "4276": 107,
        "4277": 152,
        "4278": 2,
        "4279": 52,
        "4280": 212,
        "4281": 94,
        "4282": 242,
        "4283": 247,
        "4284": 12,
        "4285": 232,
        "4286": 29,
        "4287": 145,
        "4288": 169,
        "4289": 124,
        "4290": 39,
        "4291": 245,
        "4292": 135,
        "4293": 162,
        "4294": 79,
        "4295": 92,
        "4296": 237,
        "4297": 161,
        "4298": 116,
        "4299": 51,
        "4300": 129,
        "4301": 168,
        "4302": 42,
        "4303": 230,
        "4304": 13,
        "4305": 117,
        "4306": 154,
        "4307": 124,
        "4308": 8,
        "4309": 163,
        "4310": 39,
        "4311": 86,
        "4312": 15,
        "4313": 159,
        "4314": 163,
        "4315": 246,
        "4316": 85,
        "4317": 243,
        "4318": 240,
        "4319": 249,
        "4320": 135,
        "4321": 210,
        "4322": 185,
        "4323": 170,
        "4324": 16,
        "4325": 38,
        "4326": 118,
        "4327": 195,
        "4328": 16,
        "4329": 42,
        "4330": 72,
        "4331": 117,
        "4332": 50,
        "4333": 240,
        "4334": 233,
        "4335": 42,
        "4336": 207,
        "4337": 239,
        "4338": 74,
        "4339": 173,
        "4340": 30,
        "4341": 200,
        "4342": 231,
        "4343": 243,
        "4344": 3,
        "4345": 210,
        "4346": 34,
        "4347": 134,
        "4348": 133,
        "4349": 23,
        "4350": 147,
        "4351": 40,
        "4352": 213,
        "4353": 48,
        "4354": 148,
        "4355": 79,
        "4356": 165,
        "4357": 29,
        "4358": 69,
        "4359": 246,
        "4360": 193,
        "4361": 181,
        "4362": 114,
        "4363": 113,
        "4364": 164,
        "4365": 92,
        "4366": 204,
        "4367": 68,
        "4368": 33,
        "4369": 198,
        "4370": 55,
        "4371": 48,
        "4372": 117,
        "4373": 79,
        "4374": 103,
        "4375": 112,
        "4376": 178,
        "4377": 45,
        "4378": 141,
        "4379": 124,
        "4380": 150,
        "4381": 79,
        "4382": 161,
        "4383": 209,
        "4384": 238,
        "4385": 127,
        "4386": 214,
        "4387": 179,
        "4388": 32,
        "4389": 239,
        "4390": 103,
        "4391": 221,
        "4392": 86,
        "4393": 38,
        "4394": 202,
        "4395": 155,
        "4396": 202,
        "4397": 82,
        "4398": 157,
        "4399": 82,
        "4400": 178,
        "4401": 78,
        "4402": 8,
        "4403": 107,
        "4404": 36,
        "4405": 9,
        "4406": 165,
        "4407": 82,
        "4408": 106,
        "4409": 236,
        "4410": 16,
        "4411": 216,
        "4412": 55,
        "4413": 247,
        "4414": 201,
        "4415": 73,
        "4416": 163,
        "4417": 223,
        "4418": 156,
        "4419": 130,
        "4420": 0,
        "4421": 206,
        "4422": 58,
        "4423": 193,
        "4424": 2,
        "4425": 44,
        "4426": 158,
        "4427": 54,
        "4428": 72,
        "4429": 152,
        "4430": 253,
        "4431": 156,
        "4432": 23,
        "4433": 183,
        "4434": 43,
        "4435": 74,
        "4436": 1,
        "4437": 71,
        "4438": 16,
        "4439": 68,
        "4440": 205,
        "4441": 207,
        "4442": 33,
        "4443": 221,
        "4444": 72,
        "4445": 109,
        "4446": 150,
        "4447": 7,
        "4448": 243,
        "4449": 159,
        "4450": 115,
        "4451": 33,
        "4452": 174,
        "4453": 106,
        "4454": 10,
        "4455": 79,
        "4456": 20,
        "4457": 0,
        "4458": 110,
        "4459": 193,
        "4460": 177,
        "4461": 26,
        "4462": 22,
        "4463": 127,
        "4464": 211,
        "4465": 104,
        "4466": 223,
        "4467": 192,
        "4468": 142,
        "4469": 150,
        "4470": 71,
        "4471": 223,
        "4472": 151,
        "4473": 171,
        "4474": 93,
        "4475": 227,
        "4476": 39,
        "4477": 141,
        "4478": 125,
        "4479": 32,
        "4480": 253,
        "4481": 126,
        "4482": 60,
        "4483": 230,
        "4484": 151,
        "4485": 108,
        "4486": 89,
        "4487": 191,
        "4488": 43,
        "4489": 112,
        "4490": 155,
        "4491": 192,
        "4492": 158,
        "4493": 24,
        "4494": 156,
        "4495": 90,
        "4496": 27,
        "4497": 152,
        "4498": 54,
        "4499": 76,
        "4500": 147,
        "4501": 102,
        "4502": 241,
        "4503": 56,
        "4504": 10,
        "4505": 144,
        "4506": 107,
        "4507": 112,
        "4508": 200,
        "4509": 223,
        "4510": 143,
        "4511": 106,
        "4512": 90,
        "4513": 120,
        "4514": 169,
        "4515": 118,
        "4516": 31,
        "4517": 139,
        "4518": 13,
        "4519": 184,
        "4520": 4,
        "4521": 1,
        "4522": 110,
        "4523": 161,
        "4524": 201,
        "4525": 105,
        "4526": 238,
        "4527": 155,
        "4528": 112,
        "4529": 15,
        "4530": 49,
        "4531": 73,
        "4532": 81,
        "4533": 253,
        "4534": 91,
        "4535": 96,
        "4536": 17,
        "4537": 155,
        "4538": 218,
        "4539": 141,
        "4540": 23,
        "4541": 54,
        "4542": 10,
        "4543": 151,
        "4544": 45,
        "4545": 106,
        "4546": 146,
        "4547": 2,
        "4548": 80,
        "4549": 193,
        "4550": 234,
        "4551": 210,
        "4552": 55,
        "4553": 67,
        "4554": 136,
        "4555": 28,
        "4556": 178,
        "4557": 94,
        "4558": 215,
        "4559": 163,
        "4560": 144,
        "4561": 171,
        "4562": 83,
        "4563": 81,
        "4564": 253,
        "4565": 75,
        "4566": 26,
        "4567": 30,
        "4568": 201,
        "4569": 3,
        "4570": 48,
        "4571": 252,
        "4572": 83,
        "4573": 24,
        "4574": 212,
        "4575": 249,
        "4576": 158,
        "4577": 125,
        "4578": 37,
        "4579": 140,
        "4580": 116,
        "4581": 191,
        "4582": 253,
        "4583": 88,
        "4584": 215,
        "4585": 169,
        "4586": 209,
        "4587": 68,
        "4588": 24,
        "4589": 186,
        "4590": 118,
        "4591": 44,
        "4592": 244,
        "4593": 217,
        "4594": 137,
        "4595": 80,
        "4596": 200,
        "4597": 54,
        "4598": 65,
        "4599": 225,
        "4600": 85,
        "4601": 102,
        "4602": 140,
        "4603": 24,
        "4604": 12,
        "4605": 228,
        "4606": 163,
        "4607": 219,
        "4608": 109,
        "4609": 152,
        "4610": 83,
        "4611": 152,
        "4612": 68,
        "4613": 77,
        "4614": 214,
        "4615": 22,
        "4616": 195,
        "4617": 220,
        "4618": 27,
        "4619": 49,
        "4620": 242,
        "4621": 6,
        "4622": 62,
        "4623": 237,
        "4624": 196,
        "4625": 245,
        "4626": 221,
        "4627": 83,
        "4628": 170,
        "4629": 168,
        "4630": 71,
        "4631": 199,
        "4632": 63,
        "4633": 218,
        "4634": 197,
        "4635": 81,
        "4636": 168,
        "4637": 93,
        "4638": 63,
        "4639": 101,
        "4640": 148,
        "4641": 64,
        "4642": 225,
        "4643": 50,
        "4644": 251,
        "4645": 223,
        "4646": 187,
        "4647": 77,
        "4648": 242,
        "4649": 72,
        "4650": 75,
        "4651": 12,
        "4652": 225,
        "4653": 9,
        "4654": 244,
        "4655": 176,
        "4656": 27,
        "4657": 86,
        "4658": 168,
        "4659": 86,
        "4660": 38,
        "4661": 221,
        "4662": 87,
        "4663": 238,
        "4664": 248,
        "4665": 87,
        "4666": 184,
        "4667": 205,
        "4668": 249,
        "4669": 120,
        "4670": 182,
        "4671": 54,
        "4672": 46,
        "4673": 47,
        "4674": 140,
        "4675": 185,
        "4676": 125,
        "4677": 160,
        "4678": 80,
        "4679": 95,
        "4680": 67,
        "4681": 202,
        "4682": 44,
        "4683": 173,
        "4684": 190,
        "4685": 114,
        "4686": 10,
        "4687": 129,
        "4688": 82,
        "4689": 23,
        "4690": 135,
        "4691": 137,
        "4692": 217,
        "4693": 62,
        "4694": 57,
        "4695": 130,
        "4696": 245,
        "4697": 132,
        "4698": 204,
        "4699": 60,
        "4700": 17,
        "4701": 195,
        "4702": 6,
        "4703": 214,
        "4704": 72,
        "4705": 166,
        "4706": 211,
        "4707": 159,
        "4708": 255,
        "4709": 20,
        "4710": 155,
        "4711": 209,
        "4712": 51,
        "4713": 135,
        "4714": 158,
        "4715": 37,
        "4716": 106,
        "4717": 73,
        "4718": 164,
        "4719": 222,
        "4720": 38,
        "4721": 83,
        "4722": 37,
        "4723": 252,
        "4724": 144,
        "4725": 148,
        "4726": 205,
        "4727": 84,
        "4728": 246,
        "4729": 14,
        "4730": 211,
        "4731": 133,
        "4732": 100,
        "4733": 31,
        "4734": 244,
        "4735": 201,
        "4736": 233,
        "4737": 205,
        "4738": 31,
        "4739": 150,
        "4740": 194,
        "4741": 206,
        "4742": 209,
        "4743": 123,
        "4744": 205,
        "4745": 15,
        "4746": 202,
        "4747": 51,
        "4748": 232,
        "4749": 197,
        "4750": 134,
        "4751": 148,
        "4752": 135,
        "4753": 131,
        "4754": 246,
        "4755": 101,
        "4756": 180,
        "4757": 255,
        "4758": 72,
        "4759": 202,
        "4760": 155,
        "4761": 198,
        "4762": 186,
        "4763": 46,
        "4764": 84,
        "4765": 162,
        "4766": 212,
        "4767": 167,
        "4768": 146,
        "4769": 96,
        "4770": 77,
        "4771": 183,
        "4772": 182,
        "4773": 151,
        "4774": 157,
        "4775": 166,
        "4776": 245,
        "4777": 155,
        "4778": 80,
        "4779": 130,
        "4780": 85,
        "4781": 77,
        "4782": 183,
        "4783": 207,
        "4784": 11,
        "4785": 130,
        "4786": 10,
        "4787": 123,
        "4788": 38,
        "4789": 87,
        "4790": 85,
        "4791": 123,
        "4792": 227,
        "4793": 90,
        "4794": 180,
        "4795": 191,
        "4796": 102,
        "4797": 36,
        "4798": 79,
        "4799": 1,
        "4800": 157,
        "4801": 135,
        "4802": 124,
        "4803": 12,
        "4804": 138,
        "4805": 84,
        "4806": 41,
        "4807": 134,
        "4808": 225,
        "4809": 60,
        "4810": 84,
        "4811": 27,
        "4812": 180,
        "4813": 208,
        "4814": 187,
        "4815": 225,
        "4816": 112,
        "4817": 130,
        "4818": 30,
        "4819": 173,
        "4820": 218,
        "4821": 138,
        "4822": 10,
        "4823": 41,
        "4824": 219,
        "4825": 87,
        "4826": 251,
        "4827": 127,
        "4828": 101,
        "4829": 176,
        "4830": 179,
        "4831": 86,
        "4832": 162,
        "4833": 172,
        "4834": 208,
        "4835": 138,
        "4836": 28,
        "4837": 34,
        "4838": 141,
        "4839": 177,
        "4840": 107,
        "4841": 80,
        "4842": 156,
        "4843": 38,
        "4844": 219,
        "4845": 119,
        "4846": 82,
        "4847": 243,
        "4848": 245,
        "4849": 188,
        "4850": 218,
        "4851": 29,
        "4852": 115,
        "4853": 62,
        "4854": 75,
        "4855": 96,
        "4856": 40,
        "4857": 158,
        "4858": 94,
        "4859": 2,
        "4860": 12,
        "4861": 166,
        "4862": 244,
        "4863": 144,
        "4864": 179,
        "4865": 10,
        "4866": 130,
        "4867": 32,
        "4868": 33,
        "4869": 233,
        "4870": 68,
        "4871": 230,
        "4872": 3,
        "4873": 65,
        "4874": 43,
        "4875": 8,
        "4876": 173,
        "4877": 215,
        "4878": 135,
        "4879": 81,
        "4880": 134,
        "4881": 143,
        "4882": 100,
        "4883": 149,
        "4884": 223,
        "4885": 192,
        "4886": 167,
        "4887": 164,
        "4888": 120,
        "4889": 229,
        "4890": 54,
        "4891": 214,
        "4892": 132,
        "4893": 242,
        "4894": 102,
        "4895": 174,
        "4896": 61,
        "4897": 148,
        "4898": 27,
        "4899": 130,
        "4900": 214,
        "4901": 199,
        "4902": 211,
        "4903": 207,
        "4904": 17,
        "4905": 28,
        "4906": 245,
        "4907": 118,
        "4908": 183,
        "4909": 160,
        "4910": 243,
        "4911": 50,
        "4912": 155,
        "4913": 211,
        "4914": 147,
        "4915": 233,
        "4916": 64,
        "4917": 87,
        "4918": 193,
        "4919": 175,
        "4920": 186,
        "4921": 117,
        "4922": 133,
        "4923": 139,
        "4924": 164,
        "4925": 208,
        "4926": 124,
        "4927": 125,
        "4928": 251,
        "4929": 21,
        "4930": 25,
        "4931": 37,
        "4932": 243,
        "4933": 146,
        "4934": 141,
        "4935": 69,
        "4936": 34,
        "4937": 58,
        "4938": 39,
        "4939": 193,
        "4940": 43,
        "4941": 56,
        "4942": 114,
        "4943": 24,
        "4944": 191,
        "4945": 194,
        "4946": 141,
        "4947": 193,
        "4948": 211,
        "4949": 161,
        "4950": 33,
        "4951": 76,
        "4952": 247,
        "4953": 114,
        "4954": 141,
        "4955": 174,
        "4956": 191,
        "4957": 102,
        "4958": 85,
        "4959": 194,
        "4960": 169,
        "4961": 25,
        "4962": 119,
        "4963": 160,
        "4964": 207,
        "4965": 40,
        "4966": 171,
        "4967": 107,
        "4968": 214,
        "4969": 10,
        "4970": 218,
        "4971": 149,
        "4972": 27,
        "4973": 72,
        "4974": 81,
        "4975": 173,
        "4976": 220,
        "4977": 111,
        "4978": 20,
        "4979": 11,
        "4980": 24,
        "4981": 211,
        "4982": 78,
        "4983": 158,
        "4984": 53,
        "4985": 118,
        "4986": 147,
        "4987": 11,
        "4988": 107,
        "4989": 21,
        "4990": 206,
        "4991": 108,
        "4992": 37,
        "4993": 167,
        "4994": 181,
        "4995": 148,
        "4996": 108,
        "4997": 207,
        "4998": 201,
        "4999": 41,
        "5000": 255,
        "5001": 135,
        "5002": 132,
        "5003": 197,
        "5004": 174,
        "5005": 113,
        "5006": 226,
        "5007": 230,
        "5008": 218,
        "5009": 82,
        "5010": 54,
        "5011": 170,
        "5012": 156,
        "5013": 21,
        "5014": 214,
        "5015": 91,
        "5016": 153,
        "5017": 75,
        "5018": 28,
        "5019": 150,
        "5020": 229,
        "5021": 77,
        "5022": 24,
        "5023": 72,
        "5024": 106,
        "5025": 106,
        "5026": 59,
        "5027": 48,
        "5028": 186,
        "5029": 2,
        "5030": 168,
        "5031": 81,
        "5032": 216,
        "5033": 0,
        "5034": 102,
        "5035": 72,
        "5036": 94,
        "5037": 99,
        "5038": 94,
        "5039": 160,
        "5040": 109,
        "5041": 19,
        "5042": 82,
        "5043": 163,
        "5044": 239,
        "5045": 123,
        "5046": 20,
        "5047": 134,
        "5048": 225,
        "5049": 76,
        "5050": 95,
        "5051": 3,
        "5052": 30,
        "5053": 86,
        "5054": 8,
        "5055": 92,
        "5056": 132,
        "5057": 119,
        "5058": 205,
        "5059": 102,
        "5060": 229,
        "5061": 32,
        "5062": 138,
        "5063": 196,
        "5064": 150,
        "5065": 24,
        "5066": 174,
        "5067": 128,
        "5068": 138,
        "5069": 135,
        "5070": 41,
        "5071": 29,
        "5072": 61,
        "5073": 199,
        "5074": 99,
        "5075": 20,
        "5076": 68,
        "5077": 124,
        "5078": 13,
        "5079": 113,
        "5080": 240,
        "5081": 11,
        "5082": 84,
        "5083": 214,
        "5084": 42,
        "5085": 193,
        "5086": 149,
        "5087": 160,
        "5088": 38,
        "5089": 87,
        "5090": 87,
        "5091": 206,
        "5092": 253,
        "5093": 1,
        "5094": 109,
        "5095": 219,
        "5096": 70,
        "5097": 99,
        "5098": 34,
        "5099": 59,
        "5100": 130,
        "5101": 209,
        "5102": 1,
        "5103": 214,
        "5104": 190,
        "5105": 138,
        "5106": 248,
        "5107": 226,
        "5108": 139,
        "5109": 254,
        "5110": 120,
        "5111": 116,
        "5112": 164,
        "5113": 133,
        "5114": 44,
        "5115": 17,
        "5116": 149,
        "5117": 253,
        "5118": 239,
        "5119": 167,
        "5120": 17,
        "5121": 148,
        "5122": 232,
        "5123": 62,
        "5124": 139,
        "5125": 247,
        "5126": 2,
        "5127": 239,
        "5128": 21,
        "5129": 207,
        "5130": 203,
        "5131": 157,
        "5132": 59,
        "5133": 88,
        "5134": 86,
        "5135": 179,
        "5136": 149,
        "5137": 220,
        "5138": 132,
        "5139": 208,
        "5140": 58,
        "5141": 255,
        "5142": 186,
        "5143": 219,
        "5144": 225,
        "5145": 79,
        "5146": 237,
        "5147": 182,
        "5148": 210,
        "5149": 192,
        "5150": 121,
        "5151": 24,
        "5152": 179,
        "5153": 152,
        "5154": 66,
        "5155": 182,
        "5156": 45,
        "5157": 22,
        "5158": 51,
        "5159": 97,
        "5160": 17,
        "5161": 75,
        "5162": 71,
        "5163": 61,
        "5164": 56,
        "5165": 126,
        "5166": 171,
        "5167": 53,
        "5168": 173,
        "5169": 112,
        "5170": 42,
        "5171": 226,
        "5172": 94,
        "5173": 244,
        "5174": 183,
        "5175": 108,
        "5176": 243,
        "5177": 39,
        "5178": 9,
        "5179": 166,
        "5180": 133,
        "5181": 221,
        "5182": 96,
        "5183": 214,
        "5184": 49,
        "5185": 103,
        "5186": 177,
        "5187": 5,
        "5188": 215,
        "5189": 228,
        "5190": 46,
        "5191": 25,
        "5192": 225,
        "5193": 114,
        "5194": 218,
        "5195": 255,
        "5196": 204,
        "5197": 123,
        "5198": 171,
        "5199": 187,
        "5200": 134,
        "5201": 126,
        "5202": 22,
        "5203": 227,
        "5204": 30,
        "5205": 44,
        "5206": 65,
        "5207": 53,
        "5208": 12,
        "5209": 189,
        "5210": 231,
        "5211": 96,
        "5212": 106,
        "5213": 200,
        "5214": 174,
        "5215": 108,
        "5216": 151,
        "5217": 207,
        "5218": 89,
        "5219": 220,
        "5220": 15,
        "5221": 227,
        "5222": 186,
        "5223": 169,
        "5224": 75,
        "5225": 154,
        "5226": 154,
        "5227": 210,
        "5228": 39,
        "5229": 250,
        "5230": 40,
        "5231": 215,
        "5232": 97,
        "5233": 221,
        "5234": 149,
        "5235": 122,
        "5236": 66,
        "5237": 19,
        "5238": 15,
        "5239": 38,
        "5240": 190,
        "5241": 51,
        "5242": 93,
        "5243": 39,
        "5244": 208,
        "5245": 94,
        "5246": 233,
        "5247": 67,
        "5248": 221,
        "5249": 43,
        "5250": 127,
        "5251": 86,
        "5252": 62,
        "5253": 46,
        "5254": 64,
        "5255": 15,
        "5256": 164,
        "5257": 218,
        "5258": 32,
        "5259": 153,
        "5260": 170,
        "5261": 110,
        "5262": 192,
        "5263": 62,
        "5264": 3,
        "5265": 249,
        "5266": 250,
        "5267": 41,
        "5268": 76,
        "5269": 190,
        "5270": 200,
        "5271": 134,
        "5272": 60,
        "5273": 11,
        "5274": 108,
        "5275": 118,
        "5276": 169,
        "5277": 222,
        "5278": 4,
        "5279": 22,
        "5280": 67,
        "5281": 240,
        "5282": 209,
        "5283": 95,
        "5284": 137,
        "5285": 78,
        "5286": 1,
        "5287": 8,
        "5288": 235,
        "5289": 131,
        "5290": 168,
        "5291": 53,
        "5292": 210,
        "5293": 95,
        "5294": 52,
        "5295": 176,
        "5296": 205,
        "5297": 139,
        "5298": 195,
        "5299": 206,
        "5300": 135,
        "5301": 216,
        "5302": 178,
        "5303": 222,
        "5304": 56,
        "5305": 132,
        "5306": 148,
        "5307": 187,
        "5308": 25,
        "5309": 238,
        "5310": 149,
        "5311": 221,
        "5312": 162,
        "5313": 154,
        "5314": 224,
        "5315": 134,
        "5316": 110,
        "5317": 235,
        "5318": 171,
        "5319": 130,
        "5320": 120,
        "5321": 4,
        "5322": 188,
        "5323": 175,
        "5324": 64,
        "5325": 9,
        "5326": 26,
        "5327": 187,
        "5328": 206,
        "5329": 52,
        "5330": 180,
        "5331": 107,
        "5332": 76,
        "5333": 34,
        "5334": 84,
        "5335": 23,
        "5336": 102,
        "5337": 221,
        "5338": 55,
        "5339": 81,
        "5340": 129,
        "5341": 176,
        "5342": 127,
        "5343": 103,
        "5344": 200,
        "5345": 10,
        "5346": 244,
        "5347": 170,
        "5348": 195,
        "5349": 101,
        "5350": 14,
        "5351": 69,
        "5352": 189,
        "5353": 214,
        "5354": 94,
        "5355": 241,
        "5356": 185,
        "5357": 232,
        "5358": 29,
        "5359": 251,
        "5360": 88,
        "5361": 37,
        "5362": 211,
        "5363": 139,
        "5364": 91,
        "5365": 213,
        "5366": 237,
        "5367": 197,
        "5368": 50,
        "5369": 233,
        "5370": 66,
        "5371": 140,
        "5372": 143,
        "5373": 5,
        "5374": 41,
        "5375": 44,
        "5376": 221,
        "5377": 183,
        "5378": 68,
        "5379": 250,
        "5380": 28,
        "5381": 156,
        "5382": 223,
        "5383": 205,
        "5384": 32,
        "5385": 72,
        "5386": 143,
        "5387": 242,
        "5388": 47,
        "5389": 0,
        "5390": 99,
        "5391": 229,
        "5392": 126,
        "5393": 249,
        "5394": 56,
        "5395": 178,
        "5396": 60,
        "5397": 181,
        "5398": 246,
        "5399": 191,
        "5400": 236,
        "5401": 168,
        "5402": 110,
        "5403": 219,
        "5404": 59,
        "5405": 172,
        "5406": 70,
        "5407": 251,
        "5408": 217,
        "5409": 51,
        "5410": 60,
        "5411": 236,
        "5412": 219,
        "5413": 14,
        "5414": 242,
        "5415": 51,
        "5416": 66,
        "5417": 49,
        "5418": 33,
        "5419": 128,
        "5420": 95,
        "5421": 84,
        "5422": 112,
        "5423": 76,
        "5424": 10,
        "5425": 233,
        "5426": 216,
        "5427": 174,
        "5428": 4,
        "5429": 184,
        "5430": 20,
        "5431": 63,
        "5432": 42,
        "5433": 155,
        "5434": 0,
        "5435": 253,
        "5436": 240,
        "5437": 221,
        "5438": 123,
        "5439": 238,
        "5440": 33,
        "5441": 194,
        "5442": 45,
        "5443": 247,
        "5444": 111,
        "5445": 189,
        "5446": 60,
        "5447": 158,
        "5448": 229,
        "5449": 240,
        "5450": 94,
        "5451": 78,
        "5452": 155,
        "5453": 54,
        "5454": 174,
        "5455": 234,
        "5456": 25,
        "5457": 226,
        "5458": 31,
        "5459": 130,
        "5460": 180,
        "5461": 57,
        "5462": 47,
        "5463": 167,
        "5464": 173,
        "5465": 164,
        "5466": 220,
        "5467": 105,
        "5468": 110,
        "5469": 80,
        "5470": 165,
        "5471": 114,
        "5472": 219,
        "5473": 47,
        "5474": 194,
        "5475": 96,
        "5476": 70,
        "5477": 152,
        "5478": 168,
        "5479": 40,
        "5480": 188,
        "5481": 165,
        "5482": 216,
        "5483": 221,
        "5484": 20,
        "5485": 34,
        "5486": 225,
        "5487": 22,
        "5488": 164,
        "5489": 84,
        "5490": 223,
        "5491": 225,
        "5492": 54,
        "5493": 248,
        "5494": 122,
        "5495": 82,
        "5496": 70,
        "5497": 147,
        "5498": 40,
        "5499": 55,
        "5500": 145,
        "5501": 13,
        "5502": 235,
        "5503": 109,
        "5504": 154,
        "5505": 69,
        "5506": 189,
        "5507": 179,
        "5508": 135,
        "5509": 58,
        "5510": 212,
        "5511": 9,
        "5512": 154,
        "5513": 183,
        "5514": 71,
        "5515": 160,
        "5516": 220,
        "5517": 161,
        "5518": 90,
        "5519": 228,
        "5520": 26,
        "5521": 109,
        "5522": 16,
        "5523": 200,
        "5524": 177,
        "5525": 134,
        "5526": 171,
        "5527": 181,
        "5528": 202,
        "5529": 249,
        "5530": 219,
        "5531": 0,
        "5532": 122,
        "5533": 214,
        "5534": 150,
        "5535": 207,
        "5536": 119,
        "5537": 214,
        "5538": 152,
        "5539": 16,
        "5540": 173,
        "5541": 244,
        "5542": 212,
        "5543": 172,
        "5544": 130,
        "5545": 158,
        "5546": 18,
        "5547": 72,
        "5548": 78,
        "5549": 80,
        "5550": 6,
        "5551": 255,
        "5552": 120,
        "5553": 252,
        "5554": 119,
        "5555": 253,
        "5556": 140,
        "5557": 141,
        "5558": 208,
        "5559": 87,
        "5560": 121,
        "5561": 24,
        "5562": 172,
        "5563": 173,
        "5564": 174,
        "5565": 156,
        "5566": 150,
        "5567": 64,
        "5568": 92,
        "5569": 178,
        "5570": 10,
        "5571": 235,
        "5572": 122,
        "5573": 199,
        "5574": 122,
        "5575": 40,
        "5576": 30,
        "5577": 110,
        "5578": 6,
        "5579": 38,
        "5580": 132,
        "5581": 167,
        "5582": 58,
        "5583": 170,
        "5584": 154,
        "5585": 120,
        "5586": 59,
        "5587": 149,
        "5588": 223,
        "5589": 26,
        "5590": 193,
        "5591": 6,
        "5592": 222,
        "5593": 174,
        "5594": 142,
        "5595": 228,
        "5596": 174,
        "5597": 36,
        "5598": 129,
        "5599": 230,
        "5600": 74,
        "5601": 112,
        "5602": 158,
        "5603": 192,
        "5604": 0,
        "5605": 20,
        "5606": 188,
        "5607": 227,
        "5608": 14,
        "5609": 141,
        "5610": 170,
        "5611": 170,
        "5612": 10,
        "5613": 238,
        "5614": 16,
        "5615": 212,
        "5616": 21,
        "5617": 133,
        "5618": 198,
        "5619": 204,
        "5620": 223,
        "5621": 253,
        "5622": 37,
        "5623": 13,
        "5624": 72,
        "5625": 116,
        "5626": 74,
        "5627": 48,
        "5628": 176,
        "5629": 243,
        "5630": 240,
        "5631": 248,
        "5632": 253,
        "5633": 176,
        "5634": 61,
        "5635": 124,
        "5636": 76,
        "5637": 200,
        "5638": 133,
        "5639": 57,
        "5640": 118,
        "5641": 140,
        "5642": 195,
        "5643": 142,
        "5644": 36,
        "5645": 118,
        "5646": 131,
        "5647": 183,
        "5648": 215,
        "5649": 0,
        "5650": 187,
        "5651": 250,
        "5652": 178,
        "5653": 40,
        "5654": 181,
        "5655": 251,
        "5656": 45,
        "5657": 61,
        "5658": 28,
        "5659": 44,
        "5660": 125,
        "5661": 208,
        "5662": 99,
        "5663": 104,
        "5664": 89,
        "5665": 17,
        "5666": 167,
        "5667": 29,
        "5668": 218,
        "5669": 119,
        "5670": 109,
        "5671": 195,
        "5672": 71,
        "5673": 72,
        "5674": 232,
        "5675": 88,
        "5676": 165,
        "5677": 186,
        "5678": 36,
        "5679": 12,
        "5680": 115,
        "5681": 132,
        "5682": 20,
        "5683": 187,
        "5684": 23,
        "5685": 245,
        "5686": 34,
        "5687": 66,
        "5688": 122,
        "5689": 144,
        "5690": 230,
        "5691": 123,
        "5692": 219,
        "5693": 217,
        "5694": 80,
        "5695": 104,
        "5696": 34,
        "5697": 10,
        "5698": 236,
        "5699": 39,
        "5700": 24,
        "5701": 184,
        "5702": 76,
        "5703": 51,
        "5704": 198,
        "5705": 186,
        "5706": 55,
        "5707": 189,
        "5708": 147,
        "5709": 16,
        "5710": 86,
        "5711": 234,
        "5712": 239,
        "5713": 234,
        "5714": 99,
        "5715": 176,
        "5716": 37,
        "5717": 47,
        "5718": 11,
        "5719": 45,
        "5720": 104,
        "5721": 48,
        "5722": 37,
        "5723": 34,
        "5724": 122,
        "5725": 223,
        "5726": 16,
        "5727": 236,
        "5728": 242,
        "5729": 145,
        "5730": 225,
        "5731": 222,
        "5732": 66,
        "5733": 121,
        "5734": 169,
        "5735": 161,
        "5736": 199,
        "5737": 154,
        "5738": 206,
        "5739": 250,
        "5740": 98,
        "5741": 205,
        "5742": 231,
        "5743": 235,
        "5744": 177,
        "5745": 116,
        "5746": 162,
        "5747": 127,
        "5748": 116,
        "5749": 129,
        "5750": 145,
        "5751": 195,
        "5752": 3,
        "5753": 193,
        "5754": 148,
        "5755": 19,
        "5756": 83,
        "5757": 114,
        "5758": 185,
        "5759": 52,
        "5760": 202,
        "5761": 73,
        "5762": 91,
        "5763": 228,
        "5764": 5,
        "5765": 187,
        "5766": 6,
        "5767": 140,
        "5768": 172,
        "5769": 108,
        "5770": 33,
        "5771": 142,
        "5772": 96,
        "5773": 12,
        "5774": 79,
        "5775": 152,
        "5776": 148,
        "5777": 56,
        "5778": 133,
        "5779": 87,
        "5780": 39,
        "5781": 135,
        "5782": 32,
        "5783": 76,
        "5784": 249,
        "5785": 183,
        "5786": 183,
        "5787": 148,
        "5788": 93,
        "5789": 134,
        "5790": 172,
        "5791": 4,
        "5792": 161,
        "5793": 248,
        "5794": 22,
        "5795": 77,
        "5796": 86,
        "5797": 229,
        "5798": 29,
        "5799": 50,
        "5800": 57,
        "5801": 226,
        "5802": 185,
        "5803": 175,
        "5804": 0,
        "5805": 174,
        "5806": 54,
        "5807": 252,
        "5808": 251,
        "5809": 39,
        "5810": 14,
        "5811": 7,
        "5812": 38,
        "5813": 72,
        "5814": 229,
        "5815": 64,
        "5816": 132,
        "5817": 219,
        "5818": 125,
        "5819": 108,
        "5820": 201,
        "5821": 140,
        "5822": 1,
        "5823": 245,
        "5824": 104,
        "5825": 97,
        "5826": 19,
        "5827": 234,
        "5828": 28,
        "5829": 234,
        "5830": 251,
        "5831": 128,
        "5832": 121,
        "5833": 44,
        "5834": 178,
        "5835": 111,
        "5836": 21,
        "5837": 183,
        "5838": 124,
        "5839": 246,
        "5840": 176,
        "5841": 206,
        "5842": 10,
        "5843": 213,
        "5844": 49,
        "5845": 76,
        "5846": 178,
        "5847": 82,
        "5848": 52,
        "5849": 100,
        "5850": 62,
        "5851": 120,
        "5852": 148,
        "5853": 212,
        "5854": 99,
        "5855": 41,
        "5856": 242,
        "5857": 89,
        "5858": 5,
        "5859": 147,
        "5860": 99,
        "5861": 57,
        "5862": 68,
        "5863": 81,
        "5864": 0,
        "5865": 130,
        "5866": 10,
        "5867": 185,
        "5868": 122,
        "5869": 137,
        "5870": 170,
        "5871": 180,
        "5872": 64,
        "5873": 39,
        "5874": 196,
        "5875": 83,
        "5876": 31,
        "5877": 6,
        "5878": 40,
        "5879": 125,
        "5880": 159,
        "5881": 185,
        "5882": 116,
        "5883": 179,
        "5884": 156,
        "5885": 4,
        "5886": 180,
        "5887": 161,
        "5888": 48,
        "5889": 34,
        "5890": 187,
        "5891": 209,
        "5892": 251,
        "5893": 155,
        "5894": 247,
        "5895": 169,
        "5896": 111,
        "5897": 127,
        "5898": 137,
        "5899": 38,
        "5900": 116,
        "5901": 19,
        "5902": 43,
        "5903": 112,
        "5904": 6,
        "5905": 161,
        "5906": 148,
        "5907": 25,
        "5908": 12,
        "5909": 211,
        "5910": 122,
        "5911": 144,
        "5912": 43,
        "5913": 211,
        "5914": 64,
        "5915": 93,
        "5916": 158,
        "5917": 68,
        "5918": 194,
        "5919": 10,
        "5920": 201,
        "5921": 118,
        "5922": 114,
        "5923": 172,
        "5924": 16,
        "5925": 19,
        "5926": 239,
        "5927": 203,
        "5928": 173,
        "5929": 123,
        "5930": 189,
        "5931": 91,
        "5932": 168,
        "5933": 160,
        "5934": 224,
        "5935": 188,
        "5936": 112,
        "5937": 180,
        "5938": 6,
        "5939": 43,
        "5940": 80,
        "5941": 156,
        "5942": 136,
        "5943": 210,
        "5944": 78,
        "5945": 47,
        "5946": 209,
        "5947": 245,
        "5948": 159,
        "5949": 203,
        "5950": 72,
        "5951": 139,
        "5952": 218,
        "5953": 50,
        "5954": 236,
        "5955": 185,
        "5956": 193,
        "5957": 37,
        "5958": 240,
        "5959": 222,
        "5960": 139,
        "5961": 196,
        "5962": 164,
        "5963": 126,
        "5964": 225,
        "5965": 36,
        "5966": 104,
        "5967": 222,
        "5968": 166,
        "5969": 152,
        "5970": 146,
        "5971": 185,
        "5972": 98,
        "5973": 160,
        "5974": 115,
        "5975": 67,
        "5976": 158,
        "5977": 41,
        "5978": 239,
        "5979": 110,
        "5980": 213,
        "5981": 200,
        "5982": 13,
        "5983": 169,
        "5984": 173,
        "5985": 115,
        "5986": 251,
        "5987": 1,
        "5988": 182,
        "5989": 105,
        "5990": 9,
        "5991": 200,
        "5992": 74,
        "5993": 230,
        "5994": 124,
        "5995": 133,
        "5996": 123,
        "5997": 86,
        "5998": 61,
        "5999": 71,
        "6000": 32,
        "6001": 49,
        "6002": 133,
        "6003": 84,
        "6004": 69,
        "6005": 222,
        "6006": 157,
        "6007": 126,
        "6008": 176,
        "6009": 123,
        "6010": 12,
        "6011": 40,
        "6012": 57,
        "6013": 100,
        "6014": 58,
        "6015": 160,
        "6016": 206,
        "6017": 8,
        "6018": 154,
        "6019": 192,
        "6020": 99,
        "6021": 22,
        "6022": 237,
        "6023": 200,
        "6024": 255,
        "6025": 152,
        "6026": 21,
        "6027": 70,
        "6028": 210,
        "6029": 166,
        "6030": 90,
        "6031": 139,
        "6032": 76,
        "6033": 163,
        "6034": 108,
        "6035": 27,
        "6036": 54,
        "6037": 40,
        "6038": 6,
        "6039": 194,
        "6040": 83,
        "6041": 125,
        "6042": 250,
        "6043": 145,
        "6044": 186,
        "6045": 61,
        "6046": 27,
        "6047": 73,
        "6048": 232,
        "6049": 85,
        "6050": 45,
        "6051": 83,
        "6052": 222,
        "6053": 24,
        "6054": 241,
        "6055": 248,
        "6056": 84,
        "6057": 105,
        "6058": 78,
        "6059": 33,
        "6060": 165,
        "6061": 147,
        "6062": 159,
        "6063": 99,
        "6064": 242,
        "6065": 116,
        "6066": 61,
        "6067": 86,
        "6068": 124,
        "6069": 126,
        "6070": 6,
        "6071": 188,
        "6072": 136,
        "6073": 9,
        "6074": 180,
        "6075": 89,
        "6076": 209,
        "6077": 255,
        "6078": 221,
        "6079": 209,
        "6080": 96,
        "6081": 208,
        "6082": 55,
        "6083": 242,
        "6084": 46,
        "6085": 71,
        "6086": 148,
        "6087": 22,
        "6088": 154,
        "6089": 87,
        "6090": 150,
        "6091": 226,
        "6092": 155,
        "6093": 111,
        "6094": 3,
        "6095": 186,
        "6096": 182,
        "6097": 17,
        "6098": 144,
        "6099": 233,
        "6100": 89,
        "6101": 33,
        "6102": 244,
        "6103": 234,
        "6104": 239,
        "6105": 27,
        "6106": 208,
        "6107": 188,
        "6108": 53,
        "6109": 217,
        "6110": 166,
        "6111": 83,
        "6112": 163,
        "6113": 144,
        "6114": 178,
        "6115": 253,
        "6116": 161,
        "6117": 47,
        "6118": 199,
        "6119": 246,
        "6120": 6,
        "6121": 170,
        "6122": 34,
        "6123": 96,
        "6124": 2,
        "6125": 145,
        "6126": 59,
        "6127": 125,
        "6128": 37,
        "6129": 73,
        "6130": 255,
        "6131": 211,
        "6132": 214,
        "6133": 3,
        "6134": 83,
        "6135": 181,
        "6136": 109,
        "6137": 191,
        "6138": 167,
        "6139": 163,
        "6140": 209,
        "6141": 133,
        "6142": 57,
        "6143": 95,
        "6144": 73,
        "6145": 184,
        "6146": 98,
        "6147": 253,
        "6148": 210,
        "6149": 64,
        "6150": 56,
        "6151": 30,
        "6152": 6,
        "6153": 221,
        "6154": 0,
        "6155": 175,
        "6156": 180,
        "6157": 204,
        "6158": 168,
        "6159": 17,
        "6160": 230,
        "6161": 40,
        "6162": 227,
        "6163": 215,
        "6164": 187,
        "6165": 240,
        "6166": 185,
        "6167": 35,
        "6168": 212,
        "6169": 77,
        "6170": 248,
        "6171": 199,
        "6172": 178,
        "6173": 104,
        "6174": 130,
        "6175": 179,
        "6176": 122,
        "6177": 186,
        "6178": 176,
        "6179": 28,
        "6180": 231,
        "6181": 206,
        "6182": 120,
        "6183": 71,
        "6184": 103,
        "6185": 136,
        "6186": 93,
        "6187": 144,
        "6188": 63,
        "6189": 242,
        "6190": 170,
        "6191": 132,
        "6192": 252,
        "6193": 137,
        "6194": 217,
        "6195": 136,
        "6196": 20,
        "6197": 219,
        "6198": 1,
        "6199": 233,
        "6200": 84,
        "6201": 154,
        "6202": 208,
        "6203": 67,
        "6204": 39,
        "6205": 20,
        "6206": 82,
        "6207": 145,
        "6208": 231,
        "6209": 129,
        "6210": 130,
        "6211": 122,
        "6212": 183,
        "6213": 161,
        "6214": 122,
        "6215": 137,
        "6216": 244,
        "6217": 0,
        "6218": 136,
        "6219": 105,
        "6220": 7,
        "6221": 22,
        "6222": 93,
        "6223": 45,
        "6224": 155,
        "6225": 168,
        "6226": 201,
        "6227": 10,
        "6228": 107,
        "6229": 192,
        "6230": 165,
        "6231": 50,
        "6232": 120,
        "6233": 45,
        "6234": 201,
        "6235": 239,
        "6236": 28,
        "6237": 119,
        "6238": 86,
        "6239": 128,
        "6240": 26,
        "6241": 81,
        "6242": 233,
        "6243": 100,
        "6244": 3,
        "6245": 233,
        "6246": 80,
        "6247": 232,
        "6248": 237,
        "6249": 30,
        "6250": 164,
        "6251": 211,
        "6252": 182,
        "6253": 208,
        "6254": 57,
        "6255": 255,
        "6256": 119,
        "6257": 208,
        "6258": 25,
        "6259": 193,
        "6260": 123,
        "6261": 75,
        "6262": 139,
        "6263": 209,
        "6264": 157,
        "6265": 140,
        "6266": 152,
        "6267": 122,
        "6268": 75,
        "6269": 80,
        "6270": 41,
        "6271": 105,
        "6272": 224,
        "6273": 45,
        "6274": 154,
        "6275": 189,
        "6276": 41,
        "6277": 100,
        "6278": 214,
        "6279": 171,
        "6280": 247,
        "6281": 9,
        "6282": 4,
        "6283": 244,
        "6284": 150,
        "6285": 85,
        "6286": 177,
        "6287": 8,
        "6288": 182,
        "6289": 182,
        "6290": 37,
        "6291": 33,
        "6292": 5,
        "6293": 214,
        "6294": 150,
        "6295": 161,
        "6296": 105,
        "6297": 115,
        "6298": 93,
        "6299": 213,
        "6300": 36,
        "6301": 212,
        "6302": 26,
        "6303": 175,
        "6304": 90,
        "6305": 189,
        "6306": 124,
        "6307": 162,
        "6308": 219,
        "6309": 81,
        "6310": 230,
        "6311": 208,
        "6312": 229,
        "6313": 101,
        "6314": 158,
        "6315": 168,
        "6316": 161,
        "6317": 141,
        "6318": 235,
        "6319": 83,
        "6320": 11,
        "6321": 183,
        "6322": 94,
        "6323": 131,
        "6324": 51,
        "6325": 225,
        "6326": 250,
        "6327": 57,
        "6328": 98,
        "6329": 70,
        "6330": 132,
        "6331": 89,
        "6332": 234,
        "6333": 118,
        "6334": 163,
        "6335": 133,
        "6336": 159,
        "6337": 242,
        "6338": 13,
        "6339": 213,
        "6340": 125,
        "6341": 75,
        "6342": 210,
        "6343": 162,
        "6344": 212,
        "6345": 191,
        "6346": 173,
        "6347": 217,
        "6348": 112,
        "6349": 211,
        "6350": 199,
        "6351": 188,
        "6352": 124,
        "6353": 34,
        "6354": 7,
        "6355": 166,
        "6356": 248,
        "6357": 202,
        "6358": 139,
        "6359": 2,
        "6360": 121,
        "6361": 50,
        "6362": 32,
        "6363": 203,
        "6364": 135,
        "6365": 101,
        "6366": 209,
        "6367": 24,
        "6368": 167,
        "6369": 72,
        "6370": 246,
        "6371": 8,
        "6372": 233,
        "6373": 216,
        "6374": 205,
        "6375": 54,
        "6376": 115,
        "6377": 169,
        "6378": 89,
        "6379": 154,
        "6380": 253,
        "6381": 111,
        "6382": 243,
        "6383": 58,
        "6384": 152,
        "6385": 218,
        "6386": 234,
        "6387": 84,
        "6388": 249,
        "6389": 22,
        "6390": 222,
        "6391": 32,
        "6392": 50,
        "6393": 113,
        "6394": 97,
        "6395": 104,
        "6396": 168,
        "6397": 96,
        "6398": 110,
        "6399": 125,
        "6400": 207,
        "6401": 231,
        "6402": 66,
        "6403": 138,
        "6404": 178,
        "6405": 234,
        "6406": 122,
        "6407": 138,
        "6408": 132,
        "6409": 46,
        "6410": 222,
        "6411": 66,
        "6412": 165,
        "6413": 183,
        "6414": 226,
        "6415": 195,
        "6416": 208,
        "6417": 143,
        "6418": 200,
        "6419": 78,
        "6420": 228,
        "6421": 211,
        "6422": 46,
        "6423": 169,
        "6424": 16,
        "6425": 166,
        "6426": 104,
        "6427": 115,
        "6428": 1,
        "6429": 225,
        "6430": 114,
        "6431": 142,
        "6432": 83,
        "6433": 7,
        "6434": 170,
        "6435": 32,
        "6436": 199,
        "6437": 91,
        "6438": 84,
        "6439": 61,
        "6440": 122,
        "6441": 167,
        "6442": 174,
        "6443": 215,
        "6444": 0,
        "6445": 99,
        "6446": 69,
        "6447": 65,
        "6448": 242,
        "6449": 232,
        "6450": 26,
        "6451": 107,
        "6452": 1,
        "6453": 186,
        "6454": 80,
        "6455": 195,
        "6456": 88,
        "6457": 37,
        "6458": 175,
        "6459": 77,
        "6460": 133,
        "6461": 138,
        "6462": 8,
        "6463": 219,
        "6464": 209,
        "6465": 13,
        "6466": 154,
        "6467": 209,
        "6468": 171,
        "6469": 114,
        "6470": 101,
        "6471": 171,
        "6472": 130,
        "6473": 246,
        "6474": 8,
        "6475": 2,
        "6476": 98,
        "6477": 250,
        "6478": 127,
        "6479": 196,
        "6480": 39,
        "6481": 176,
        "6482": 177,
        "6483": 73,
        "6484": 221,
        "6485": 190,
        "6486": 253,
        "6487": 3,
        "6488": 67,
        "6489": 21,
        "6490": 37,
        "6491": 105,
        "6492": 36,
        "6493": 221,
        "6494": 201,
        "6495": 61,
        "6496": 212,
        "6497": 238,
        "6498": 213,
        "6499": 10,
        "6500": 95,
        "6501": 97,
        "6502": 69,
        "6503": 125,
        "6504": 191,
        "6505": 28,
        "6506": 202,
        "6507": 216,
        "6508": 121,
        "6509": 72,
        "6510": 77,
        "6511": 255,
        "6512": 239,
        "6513": 177,
        "6514": 243,
        "6515": 198,
        "6516": 138,
        "6517": 90,
        "6518": 64,
        "6519": 254,
        "6520": 68,
        "6521": 193,
        "6522": 56,
        "6523": 161,
        "6524": 88,
        "6525": 145,
        "6526": 156,
        "6527": 155,
        "6528": 244,
        "6529": 81,
        "6530": 237,
        "6531": 175,
        "6532": 165,
        "6533": 173,
        "6534": 142,
        "6535": 147,
        "6536": 58,
        "6537": 170,
        "6538": 198,
        "6539": 110,
        "6540": 51,
        "6541": 193,
        "6542": 147,
        "6543": 251,
        "6544": 141,
        "6545": 28,
        "6546": 86,
        "6547": 97,
        "6548": 15,
        "6549": 187,
        "6550": 41,
        "6551": 216,
        "6552": 237,
        "6553": 34,
        "6554": 218,
        "6555": 233,
        "6556": 152,
        "6557": 87,
        "6558": 122,
        "6559": 47,
        "6560": 58,
        "6561": 154,
        "6562": 47,
        "6563": 175,
        "6564": 148,
        "6565": 136,
        "6566": 225,
        "6567": 54,
        "6568": 152,
        "6569": 61,
        "6570": 19,
        "6571": 169,
        "6572": 198,
        "6573": 246,
        "6574": 103,
        "6575": 247,
        "6576": 216,
        "6577": 122,
        "6578": 103,
        "6579": 193,
        "6580": 178,
        "6581": 227,
        "6582": 15,
        "6583": 59,
        "6584": 192,
        "6585": 73,
        "6586": 73,
        "6587": 176,
        "6588": 17,
        "6589": 247,
        "6590": 253,
        "6591": 131,
        "6592": 246,
        "6593": 28,
        "6594": 58,
        "6595": 93,
        "6596": 44,
        "6597": 192,
        "6598": 108,
        "6599": 174,
        "6600": 113,
        "6601": 54,
        "6602": 82,
        "6603": 199,
        "6604": 210,
        "6605": 41,
        "6606": 15,
        "6607": 193,
        "6608": 219,
        "6609": 198,
        "6610": 180,
        "6611": 62,
        "6612": 41,
        "6613": 211,
        "6614": 69,
        "6615": 115,
        "6616": 247,
        "6617": 102,
        "6618": 209,
        "6619": 48,
        "6620": 22,
        "6621": 95,
        "6622": 190,
        "6623": 206,
        "6624": 250,
        "6625": 226,
        "6626": 67,
        "6627": 221,
        "6628": 136,
        "6629": 84,
        "6630": 80,
        "6631": 30,
        "6632": 155,
        "6633": 97,
        "6634": 152,
        "6635": 237,
        "6636": 82,
        "6637": 69,
        "6638": 109,
        "6639": 76,
        "6640": 237,
        "6641": 54,
        "6642": 166,
        "6643": 161,
        "6644": 196,
        "6645": 249,
        "6646": 195,
        "6647": 108,
        "6648": 165,
        "6649": 36,
        "6650": 104,
        "6651": 146,
        "6652": 117,
        "6653": 14,
        "6654": 143,
        "6655": 40,
        "6656": 118,
        "6657": 196,
        "6658": 210,
        "6659": 118,
        "6660": 191,
        "6661": 74,
        "6662": 179,
        "6663": 38,
        "6664": 55,
        "6665": 69,
        "6666": 155,
        "6667": 41,
        "6668": 20,
        "6669": 147,
        "6670": 5,
        "6671": 206,
        "6672": 141,
        "6673": 203,
        "6674": 167,
        "6675": 83,
        "6676": 45,
        "6677": 207,
        "6678": 209,
        "6679": 248,
        "6680": 88,
        "6681": 65,
        "6682": 208,
        "6683": 190,
        "6684": 163,
        "6685": 111,
        "6686": 4,
        "6687": 234,
        "6688": 182,
        "6689": 137,
        "6690": 192,
        "6691": 180,
        "6692": 50,
        "6693": 114,
        "6694": 183,
        "6695": 159,
        "6696": 225,
        "6697": 249,
        "6698": 0,
        "6699": 240,
        "6700": 175,
        "6701": 244,
        "6702": 150,
        "6703": 210,
        "6704": 33,
        "6705": 142,
        "6706": 66,
        "6707": 114,
        "6708": 30,
        "6709": 232,
        "6710": 196,
        "6711": 239,
        "6712": 114,
        "6713": 4,
        "6714": 192,
        "6715": 114,
        "6716": 118,
        "6717": 36,
        "6718": 64,
        "6719": 255,
        "6720": 64,
        "6721": 111,
        "6722": 95,
        "6723": 223,
        "6724": 78,
        "6725": 120,
        "6726": 172,
        "6727": 188,
        "6728": 131,
        "6729": 127,
        "6730": 164,
        "6731": 251,
        "6732": 91,
        "6733": 12,
        "6734": 234,
        "6735": 239,
        "6736": 147,
        "6737": 101,
        "6738": 175,
        "6739": 231,
        "6740": 63,
        "6741": 90,
        "6742": 61,
        "6743": 67,
        "6744": 68,
        "6745": 232,
        "6746": 177,
        "6747": 82,
        "6748": 36,
        "6749": 106,
        "6750": 2,
        "6751": 129,
        "6752": 179,
        "6753": 224,
        "6754": 216,
        "6755": 139,
        "6756": 242,
        "6757": 95,
        "6758": 223,
        "6759": 60,
        "6760": 100,
        "6761": 38,
        "6762": 5,
        "6763": 178,
        "6764": 38,
        "6765": 161,
        "6766": 66,
        "6767": 200,
        "6768": 228,
        "6769": 131,
        "6770": 236,
        "6771": 188,
        "6772": 144,
        "6773": 99,
        "6774": 113,
        "6775": 38,
        "6776": 123,
        "6777": 61,
        "6778": 160,
        "6779": 157,
        "6780": 190,
        "6781": 128,
        "6782": 179,
        "6783": 140,
        "6784": 228,
        "6785": 226,
        "6786": 230,
        "6787": 28,
        "6788": 104,
        "6789": 29,
        "6790": 65,
        "6791": 213,
        "6792": 208,
        "6793": 195,
        "6794": 140,
        "6795": 86,
        "6796": 211,
        "6797": 175,
        "6798": 55,
        "6799": 41,
        "6800": 82,
        "6801": 155,
        "6802": 6,
        "6803": 211,
        "6804": 155,
        "6805": 90,
        "6806": 36,
        "6807": 166,
        "6808": 169,
        "6809": 88,
        "6810": 227,
        "6811": 149,
        "6812": 56,
        "6813": 161,
        "6814": 94,
        "6815": 104,
        "6816": 10,
        "6817": 98,
        "6818": 24,
        "6819": 244,
        "6820": 210,
        "6821": 195,
        "6822": 169,
        "6823": 241,
        "6824": 183,
        "6825": 136,
        "6826": 118,
        "6827": 244,
        "6828": 20,
        "6829": 101,
        "6830": 26,
        "6831": 14,
        "6832": 110,
        "6833": 102,
        "6834": 48,
        "6835": 15,
        "6836": 163,
        "6837": 168,
        "6838": 38,
        "6839": 133,
        "6840": 88,
        "6841": 138,
        "6842": 146,
        "6843": 180,
        "6844": 126,
        "6845": 144,
        "6846": 17,
        "6847": 236,
        "6848": 15,
        "6849": 143,
        "6850": 127,
        "6851": 229,
        "6852": 65,
        "6853": 135,
        "6854": 208,
        "6855": 23,
        "6856": 67,
        "6857": 11,
        "6858": 10,
        "6859": 116,
        "6860": 5,
        "6861": 127,
        "6862": 29,
        "6863": 46,
        "6864": 155,
        "6865": 10,
        "6866": 56,
        "6867": 8,
        "6868": 84,
        "6869": 187,
        "6870": 155,
        "6871": 145,
        "6872": 78,
        "6873": 184,
        "6874": 95,
        "6875": 28,
        "6876": 82,
        "6877": 73,
        "6878": 46,
        "6879": 202,
        "6880": 180,
        "6881": 73,
        "6882": 253,
        "6883": 89,
        "6884": 255,
        "6885": 255,
        "6886": 88,
        "6887": 175,
        "6888": 242,
        "6889": 113,
        "6890": 115,
        "6891": 247,
        "6892": 3,
        "6893": 161,
        "6894": 90,
        "6895": 8,
        "6896": 210,
        "6897": 12,
        "6898": 213,
        "6899": 192,
        "6900": 48,
        "6901": 176,
        "6902": 36,
        "6903": 136,
        "6904": 79,
        "6905": 185,
        "6906": 214,
        "6907": 121,
        "6908": 198,
        "6909": 193,
        "6910": 117,
        "6911": 111,
        "6912": 45,
        "6913": 94,
        "6914": 181,
        "6915": 12,
        "6916": 113,
        "6917": 85,
        "6918": 201,
        "6919": 193,
        "6920": 150,
        "6921": 46,
        "6922": 175,
        "6923": 35,
        "6924": 244,
        "6925": 216,
        "6926": 156,
        "6927": 207,
        "6928": 192,
        "6929": 34,
        "6930": 223,
        "6931": 221,
        "6932": 155,
        "6933": 106,
        "6934": 132,
        "6935": 234,
        "6936": 61,
        "6937": 26,
        "6938": 230,
        "6939": 116,
        "6940": 3,
        "6941": 182,
        "6942": 47,
        "6943": 179,
        "6944": 1,
        "6945": 218,
        "6946": 166,
        "6947": 231,
        "6948": 58,
        "6949": 139,
        "6950": 211,
        "6951": 212,
        "6952": 117,
        "6953": 160,
        "6954": 161,
        "6955": 78,
        "6956": 32,
        "6957": 155,
        "6958": 44,
        "6959": 136,
        "6960": 152,
        "6961": 50,
        "6962": 228,
        "6963": 51,
        "6964": 164,
        "6965": 51,
        "6966": 68,
        "6967": 147,
        "6968": 204,
        "6969": 237,
        "6970": 143,
        "6971": 117,
        "6972": 94,
        "6973": 157,
        "6974": 95,
        "6975": 82,
        "6976": 166,
        "6977": 194,
        "6978": 128,
        "6979": 88,
        "6980": 222,
        "6981": 97,
        "6982": 75,
        "6983": 144,
        "6984": 52,
        "6985": 168,
        "6986": 30,
        "6987": 177,
        "6988": 144,
        "6989": 250,
        "6990": 139,
        "6991": 198,
        "6992": 131,
        "6993": 25,
        "6994": 119,
        "6995": 175,
        "6996": 128,
        "6997": 216,
        "6998": 215,
        "6999": 6,
        "7000": 1,
        "7001": 110,
        "7002": 89,
        "7003": 183,
        "7004": 72,
        "7005": 120,
        "7006": 181,
        "7007": 61,
        "7008": 7,
        "7009": 157,
        "7010": 217,
        "7011": 167,
        "7012": 206,
        "7013": 70,
        "7014": 250,
        "7015": 143,
        "7016": 83,
        "7017": 146,
        "7018": 16,
        "7019": 237,
        "7020": 127,
        "7021": 145,
        "7022": 152,
        "7023": 17,
        "7024": 229,
        "7025": 143,
        "7026": 154,
        "7027": 30,
        "7028": 216,
        "7029": 176,
        "7030": 86,
        "7031": 149,
        "7032": 175,
        "7033": 30,
        "7034": 107,
        "7035": 139,
        "7036": 177,
        "7037": 124,
        "7038": 162,
        "7039": 20,
        "7040": 99,
        "7041": 135,
        "7042": 244,
        "7043": 55,
        "7044": 179,
        "7045": 202,
        "7046": 29,
        "7047": 124,
        "7048": 38,
        "7049": 246,
        "7050": 250,
        "7051": 19,
        "7052": 229,
        "7053": 58,
        "7054": 34,
        "7055": 178,
        "7056": 203,
        "7057": 161,
        "7058": 71,
        "7059": 132,
        "7060": 30,
        "7061": 63,
        "7062": 107,
        "7063": 0,
        "7064": 73,
        "7065": 188,
        "7066": 80,
        "7067": 151,
        "7068": 233,
        "7069": 151,
        "7070": 206,
        "7071": 108,
        "7072": 23,
        "7073": 119,
        "7074": 222,
        "7075": 147,
        "7076": 25,
        "7077": 110,
        "7078": 28,
        "7079": 129,
        "7080": 188,
        "7081": 244,
        "7082": 54,
        "7083": 153,
        "7084": 233,
        "7085": 254,
        "7086": 224,
        "7087": 11,
        "7088": 142,
        "7089": 253,
        "7090": 196,
        "7091": 201,
        "7092": 189,
        "7093": 244,
        "7094": 193,
        "7095": 130,
        "7096": 219,
        "7097": 22,
        "7098": 214,
        "7099": 162,
        "7100": 225,
        "7101": 46,
        "7102": 203,
        "7103": 72,
        "7104": 84,
        "7105": 180,
        "7106": 162,
        "7107": 73,
        "7108": 48,
        "7109": 43,
        "7110": 122,
        "7111": 225,
        "7112": 125,
        "7113": 194,
        "7114": 205,
        "7115": 66,
        "7116": 188,
        "7117": 31,
        "7118": 220,
        "7119": 196,
        "7120": 57,
        "7121": 82,
        "7122": 61,
        "7123": 139,
        "7124": 48,
        "7125": 30,
        "7126": 247,
        "7127": 234,
        "7128": 122,
        "7129": 201,
        "7130": 39,
        "7131": 227,
        "7132": 178,
        "7133": 62,
        "7134": 91,
        "7135": 15,
        "7136": 35,
        "7137": 68,
        "7138": 39,
        "7139": 33,
        "7140": 45,
        "7141": 206,
        "7142": 3,
        "7143": 23,
        "7144": 103,
        "7145": 71,
        "7146": 32,
        "7147": 244,
        "7148": 46,
        "7149": 10,
        "7150": 57,
        "7151": 92,
        "7152": 229,
        "7153": 150,
        "7154": 33,
        "7155": 171,
        "7156": 124,
        "7157": 64,
        "7158": 103,
        "7159": 121,
        "7160": 220,
        "7161": 143,
        "7162": 209,
        "7163": 235,
        "7164": 184,
        "7165": 86,
        "7166": 237,
        "7167": 175,
        "7168": 9,
        "7169": 73,
        "7170": 164,
        "7171": 45,
        "7172": 212,
        "7173": 241,
        "7174": 24,
        "7175": 157,
        "7176": 12,
        "7177": 112,
        "7178": 83,
        "7179": 142,
        "7180": 64,
        "7181": 43,
        "7182": 10,
        "7183": 16,
        "7184": 81,
        "7185": 242,
        "7186": 126,
        "7187": 164,
        "7188": 95,
        "7189": 211,
        "7190": 125,
        "7191": 138,
        "7192": 17,
        "7193": 73,
        "7194": 147,
        "7195": 15,
        "7196": 154,
        "7197": 61,
        "7198": 43,
        "7199": 90,
        "7200": 19,
        "7201": 162,
        "7202": 242,
        "7203": 157,
        "7204": 85,
        "7205": 142,
        "7206": 156,
        "7207": 54,
        "7208": 132,
        "7209": 186,
        "7210": 97,
        "7211": 80,
        "7212": 7,
        "7213": 227,
        "7214": 136,
        "7215": 183,
        "7216": 175,
        "7217": 5,
        "7218": 136,
        "7219": 155,
        "7220": 214,
        "7221": 70,
        "7222": 85,
        "7223": 126,
        "7224": 21,
        "7225": 145,
        "7226": 2,
        "7227": 43,
        "7228": 178,
        "7229": 113,
        "7230": 87,
        "7231": 15,
        "7232": 108,
        "7233": 103,
        "7234": 150,
        "7235": 177,
        "7236": 95,
        "7237": 54,
        "7238": 208,
        "7239": 144,
        "7240": 114,
        "7241": 237,
        "7242": 185,
        "7243": 157,
        "7244": 203,
        "7245": 101,
        "7246": 146,
        "7247": 5,
        "7248": 190,
        "7249": 137,
        "7250": 228,
        "7251": 50,
        "7252": 172,
        "7253": 11,
        "7254": 73,
        "7255": 253,
        "7256": 218,
        "7257": 172,
        "7258": 163,
        "7259": 153,
        "7260": 57,
        "7261": 166,
        "7262": 207,
        "7263": 208,
        "7264": 19,
        "7265": 106,
        "7266": 60,
        "7267": 123,
        "7268": 22,
        "7269": 196,
        "7270": 251,
        "7271": 30,
        "7272": 243,
        "7273": 164,
        "7274": 128,
        "7275": 118,
        "7276": 235,
        "7277": 37,
        "7278": 18,
        "7279": 203,
        "7280": 23,
        "7281": 52,
        "7282": 33,
        "7283": 221,
        "7284": 132,
        "7285": 135,
        "7286": 21,
        "7287": 162,
        "7288": 186,
        "7289": 46,
        "7290": 188,
        "7291": 120,
        "7292": 48,
        "7293": 171,
        "7294": 35,
        "7295": 58,
        "7296": 195,
        "7297": 56,
        "7298": 153,
        "7299": 73,
        "7300": 83,
        "7301": 157,
        "7302": 167,
        "7303": 139,
        "7304": 30,
        "7305": 38,
        "7306": 225,
        "7307": 113,
        "7308": 217,
        "7309": 180,
        "7310": 28,
        "7311": 44,
        "7312": 117,
        "7313": 49,
        "7314": 34,
        "7315": 105,
        "7316": 65,
        "7317": 128,
        "7318": 140,
        "7319": 210,
        "7320": 53,
        "7321": 170,
        "7322": 42,
        "7323": 221,
        "7324": 56,
        "7325": 101,
        "7326": 102,
        "7327": 104,
        "7328": 2,
        "7329": 52,
        "7330": 211,
        "7331": 52,
        "7332": 112,
        "7333": 212,
        "7334": 0,
        "7335": 255,
        "7336": 126,
        "7337": 89,
        "7338": 144,
        "7339": 111,
        "7340": 123,
        "7341": 123,
        "7342": 190,
        "7343": 31,
        "7344": 70,
        "7345": 51,
        "7346": 220,
        "7347": 239,
        "7348": 229,
        "7349": 80,
        "7350": 11,
        "7351": 223,
        "7352": 209,
        "7353": 147,
        "7354": 119,
        "7355": 186,
        "7356": 81,
        "7357": 138,
        "7358": 223,
        "7359": 107,
        "7360": 205,
        "7361": 35,
        "7362": 112,
        "7363": 132,
        "7364": 10,
        "7365": 125,
        "7366": 161,
        "7367": 230,
        "7368": 12,
        "7369": 215,
        "7370": 47,
        "7371": 83,
        "7372": 203,
        "7373": 61,
        "7374": 23,
        "7375": 33,
        "7376": 21,
        "7377": 148,
        "7378": 60,
        "7379": 215,
        "7380": 249,
        "7381": 152,
        "7382": 101,
        "7383": 91,
        "7384": 33,
        "7385": 122,
        "7386": 36,
        "7387": 153,
        "7388": 154,
        "7389": 140,
        "7390": 93,
        "7391": 103,
        "7392": 207,
        "7393": 224,
        "7394": 137,
        "7395": 7,
        "7396": 2,
        "7397": 159,
        "7398": 232,
        "7399": 191,
        "7400": 70,
        "7401": 183,
        "7402": 44,
        "7403": 56,
        "7404": 172,
        "7405": 43,
        "7406": 80,
        "7407": 224,
        "7408": 88,
        "7409": 139,
        "7410": 44,
        "7411": 39,
        "7412": 16,
        "7413": 221,
        "7414": 152,
        "7415": 183,
        "7416": 195,
        "7417": 105,
        "7418": 24,
        "7419": 93,
        "7420": 108,
        "7421": 197,
        "7422": 234,
        "7423": 81,
        "7424": 193,
        "7425": 249,
        "7426": 159,
        "7427": 26,
        "7428": 253,
        "7429": 175,
        "7430": 133,
        "7431": 83,
        "7432": 242,
        "7433": 136,
        "7434": 28,
        "7435": 231,
        "7436": 152,
        "7437": 249,
        "7438": 209,
        "7439": 157,
        "7440": 139,
        "7441": 65,
        "7442": 200,
        "7443": 70,
        "7444": 217,
        "7445": 43,
        "7446": 230,
        "7447": 92,
        "7448": 77,
        "7449": 50,
        "7450": 190,
        "7451": 93,
        "7452": 43,
        "7453": 186,
        "7454": 217,
        "7455": 177,
        "7456": 187,
        "7457": 217,
        "7458": 167,
        "7459": 138,
        "7460": 2,
        "7461": 10,
        "7462": 13,
        "7463": 212,
        "7464": 155,
        "7465": 188,
        "7466": 23,
        "7467": 34,
        "7468": 182,
        "7469": 130,
        "7470": 160,
        "7471": 109,
        "7472": 110,
        "7473": 193,
        "7474": 73,
        "7475": 101,
        "7476": 46,
        "7477": 10,
        "7478": 136,
        "7479": 116,
        "7480": 147,
        "7481": 183,
        "7482": 8,
        "7483": 158,
        "7484": 124,
        "7485": 179,
        "7486": 198,
        "7487": 65,
        "7488": 109,
        "7489": 153,
        "7490": 58,
        "7491": 120,
        "7492": 51,
        "7493": 206,
        "7494": 239,
        "7495": 26,
        "7496": 105,
        "7497": 255,
        "7498": 178,
        "7499": 199,
        "7500": 122,
        "7501": 129,
        "7502": 30,
        "7503": 4,
        "7504": 113,
        "7505": 60,
        "7506": 30,
        "7507": 85,
        "7508": 29,
        "7509": 238,
        "7510": 52,
        "7511": 87,
        "7512": 151,
        "7513": 246,
        "7514": 234,
        "7515": 94,
        "7516": 174,
        "7517": 232,
        "7518": 127,
        "7519": 122,
        "7520": 220,
        "7521": 221,
        "7522": 74,
        "7523": 113,
        "7524": 160,
        "7525": 251,
        "7526": 5,
        "7527": 17,
        "7528": 242,
        "7529": 91,
        "7530": 19,
        "7531": 133,
        "7532": 124,
        "7533": 10,
        "7534": 93,
        "7535": 172,
        "7536": 172,
        "7537": 67,
        "7538": 9,
        "7539": 169,
        "7540": 60,
        "7541": 182,
        "7542": 171,
        "7543": 96,
        "7544": 197,
        "7545": 125,
        "7546": 227,
        "7547": 31,
        "7548": 240,
        "7549": 76,
        "7550": 132,
        "7551": 253,
        "7552": 132,
        "7553": 87,
        "7554": 74,
        "7555": 54,
        "7556": 147,
        "7557": 99,
        "7558": 125,
        "7559": 163,
        "7560": 115,
        "7561": 233,
        "7562": 219,
        "7563": 190,
        "7564": 101,
        "7565": 177,
        "7566": 60,
        "7567": 201,
        "7568": 87,
        "7569": 176,
        "7570": 160,
        "7571": 34,
        "7572": 160,
        "7573": 168,
        "7574": 172,
        "7575": 167,
        "7576": 19,
        "7577": 191,
        "7578": 116,
        "7579": 73,
        "7580": 66,
        "7581": 18,
        "7582": 229,
        "7583": 159,
        "7584": 144,
        "7585": 178,
        "7586": 24,
        "7587": 170,
        "7588": 119,
        "7589": 156,
        "7590": 46,
        "7591": 109,
        "7592": 12,
        "7593": 182,
        "7594": 240,
        "7595": 91,
        "7596": 197,
        "7597": 188,
        "7598": 127,
        "7599": 8,
        "7600": 237,
        "7601": 229,
        "7602": 83,
        "7603": 229,
        "7604": 204,
        "7605": 37,
        "7606": 6,
        "7607": 220,
        "7608": 69,
        "7609": 80,
        "7610": 89,
        "7611": 11,
        "7612": 248,
        "7613": 173,
        "7614": 193,
        "7615": 227,
        "7616": 185,
        "7617": 14,
        "7618": 89,
        "7619": 70,
        "7620": 44,
        "7621": 190,
        "7622": 11,
        "7623": 25,
        "7624": 89,
        "7625": 159,
        "7626": 190,
        "7627": 243,
        "7628": 31,
        "7629": 70,
        "7630": 238,
        "7631": 210,
        "7632": 76,
        "7633": 94,
        "7634": 171,
        "7635": 172,
        "7636": 138,
        "7637": 97,
        "7638": 233,
        "7639": 225,
        "7640": 127,
        "7641": 85,
        "7642": 135,
        "7643": 254,
        "7644": 225,
        "7645": 163,
        "7646": 176,
        "7647": 76,
        "7648": 72,
        "7649": 176,
        "7650": 78,
        "7651": 82,
        "7652": 95,
        "7653": 77,
        "7654": 75,
        "7655": 33,
        "7656": 79,
        "7657": 221,
        "7658": 87,
        "7659": 4,
        "7660": 151,
        "7661": 165,
        "7662": 126,
        "7663": 7,
        "7664": 163,
        "7665": 194,
        "7666": 127,
        "7667": 203,
        "7668": 23,
        "7669": 53,
        "7670": 180,
        "7671": 210,
        "7672": 204,
        "7673": 188,
        "7674": 94,
        "7675": 52,
        "7676": 206,
        "7677": 11,
        "7678": 82,
        "7679": 6,
        "7680": 193,
        "7681": 173,
        "7682": 78,
        "7683": 95,
        "7684": 222,
        "7685": 0,
        "7686": 206,
        "7687": 15,
        "7688": 14,
        "7689": 196,
        "7690": 207,
        "7691": 159,
        "7692": 161,
        "7693": 140,
        "7694": 3,
        "7695": 26,
        "7696": 83,
        "7697": 129,
        "7698": 80,
        "7699": 185,
        "7700": 148,
        "7701": 142,
        "7702": 235,
        "7703": 115,
        "7704": 5,
        "7705": 192,
        "7706": 174,
        "7707": 144,
        "7708": 179,
        "7709": 230,
        "7710": 68,
        "7711": 155,
        "7712": 79,
        "7713": 0,
        "7714": 130,
        "7715": 209,
        "7716": 218,
        "7717": 213,
        "7718": 117,
        "7719": 217,
        "7720": 226,
        "7721": 17,
        "7722": 211,
        "7723": 192,
        "7724": 53,
        "7725": 146,
        "7726": 207,
        "7727": 219,
        "7728": 69,
        "7729": 230,
        "7730": 149,
        "7731": 88,
        "7732": 129,
        "7733": 174,
        "7734": 183,
        "7735": 57,
        "7736": 205,
        "7737": 137,
        "7738": 81,
        "7739": 137,
        "7740": 43,
        "7741": 86,
        "7742": 42,
        "7743": 86,
        "7744": 172,
        "7745": 72,
        "7746": 192,
        "7747": 239,
        "7748": 160,
        "7749": 93,
        "7750": 10,
        "7751": 93,
        "7752": 59,
        "7753": 113,
        "7754": 174,
        "7755": 71,
        "7756": 75,
        "7757": 7,
        "7758": 173,
        "7759": 241,
        "7760": 197,
        "7761": 123,
        "7762": 163,
        "7763": 213,
        "7764": 2,
        "7765": 45,
        "7766": 46,
        "7767": 121,
        "7768": 70,
        "7769": 73,
        "7770": 188,
        "7771": 217,
        "7772": 13,
        "7773": 178,
        "7774": 101,
        "7775": 134,
        "7776": 221,
        "7777": 91,
        "7778": 123,
        "7779": 136,
        "7780": 200,
        "7781": 242,
        "7782": 16,
        "7783": 186,
        "7784": 221,
        "7785": 155,
        "7786": 116,
        "7787": 170,
        "7788": 80,
        "7789": 76,
        "7790": 154,
        "7791": 121,
        "7792": 40,
        "7793": 126,
        "7794": 39,
        "7795": 20,
        "7796": 182,
        "7797": 32,
        "7798": 203,
        "7799": 165,
        "7800": 229,
        "7801": 83,
        "7802": 240,
        "7803": 154,
        "7804": 240,
        "7805": 89,
        "7806": 149,
        "7807": 231,
        "7808": 55,
        "7809": 49,
        "7810": 187,
        "7811": 94,
        "7812": 85,
        "7813": 134,
        "7814": 233,
        "7815": 0,
        "7816": 95,
        "7817": 95,
        "7818": 255,
        "7819": 60,
        "7820": 57,
        "7821": 202,
        "7822": 178,
        "7823": 196,
        "7824": 46,
        "7825": 127,
        "7826": 44,
        "7827": 29,
        "7828": 99,
        "7829": 168,
        "7830": 146,
        "7831": 205,
        "7832": 238,
        "7833": 236,
        "7834": 132,
        "7835": 153,
        "7836": 157,
        "7837": 254,
        "7838": 36,
        "7839": 152,
        "7840": 30,
        "7841": 163,
        "7842": 189,
        "7843": 146,
        "7844": 195,
        "7845": 253,
        "7846": 203,
        "7847": 141,
        "7848": 111,
        "7849": 138,
        "7850": 161,
        "7851": 244,
        "7852": 178,
        "7853": 70,
        "7854": 90,
        "7855": 103,
        "7856": 28,
        "7857": 86,
        "7858": 211,
        "7859": 39,
        "7860": 254,
        "7861": 51,
        "7862": 219,
        "7863": 33,
        "7864": 210,
        "7865": 28,
        "7866": 85,
        "7867": 87,
        "7868": 209,
        "7869": 114,
        "7870": 27,
        "7871": 109,
        "7872": 70,
        "7873": 106,
        "7874": 192,
        "7875": 251,
        "7876": 226,
        "7877": 69,
        "7878": 189,
        "7879": 186,
        "7880": 183,
        "7881": 58,
        "7882": 37,
        "7883": 52,
        "7884": 175,
        "7885": 199,
        "7886": 199,
        "7887": 245,
        "7888": 63,
        "7889": 226,
        "7890": 55,
        "7891": 224,
        "7892": 202,
        "7893": 183,
        "7894": 204,
        "7895": 243,
        "7896": 160,
        "7897": 126,
        "7898": 112,
        "7899": 158,
        "7900": 244,
        "7901": 22,
        "7902": 163,
        "7903": 4,
        "7904": 69,
        "7905": 176,
        "7906": 63,
        "7907": 95,
        "7908": 80,
        "7909": 135,
        "7910": 213,
        "7911": 10,
        "7912": 224,
        "7913": 142,
        "7914": 227,
        "7915": 154,
        "7916": 195,
        "7917": 219,
        "7918": 128,
        "7919": 55,
        "7920": 155,
        "7921": 17,
        "7922": 37,
        "7923": 81,
        "7924": 157,
        "7925": 196,
        "7926": 231,
        "7927": 236,
        "7928": 202,
        "7929": 97,
        "7930": 74,
        "7931": 84,
        "7932": 242,
        "7933": 150,
        "7934": 85,
        "7935": 178,
        "7936": 78,
        "7937": 41,
        "7938": 223,
        "7939": 39,
        "7940": 187,
        "7941": 76,
        "7942": 30,
        "7943": 128,
        "7944": 111,
        "7945": 236,
        "7946": 103,
        "7947": 27,
        "7948": 174,
        "7949": 218,
        "7950": 67,
        "7951": 94,
        "7952": 74,
        "7953": 38,
        "7954": 158,
        "7955": 139,
        "7956": 51,
        "7957": 120,
        "7958": 56,
        "7959": 239,
        "7960": 10,
        "7961": 27,
        "7962": 234,
        "7963": 89,
        "7964": 38,
        "7965": 221,
        "7966": 44,
        "7967": 230,
        "7968": 97,
        "7969": 167,
        "7970": 52,
        "7971": 188,
        "7972": 234,
        "7973": 4,
        "7974": 42,
        "7975": 230,
        "7976": 0,
        "7977": 215,
        "7978": 31,
        "7979": 226,
        "7980": 0,
        "7981": 246,
        "7982": 66,
        "7983": 202,
        "7984": 139,
        "7985": 168,
        "7986": 86,
        "7987": 181,
        "7988": 14,
        "7989": 85,
        "7990": 72,
        "7991": 142,
        "7992": 66,
        "7993": 61,
        "7994": 53,
        "7995": 231,
        "7996": 174,
        "7997": 101,
        "7998": 222,
        "7999": 227,
        "8000": 68,
        "8001": 62,
        "8002": 182,
        "8003": 30,
        "8004": 4,
        "8005": 209,
        "8006": 41,
        "8007": 118,
        "8008": 70,
        "8009": 166,
        "8010": 246,
        "8011": 175,
        "8012": 192,
        "8013": 119,
        "8014": 62,
        "8015": 40,
        "8016": 51,
        "8017": 59,
        "8018": 72,
        "8019": 180,
        "8020": 98,
        "8021": 118,
        "8022": 223,
        "8023": 160,
        "8024": 201,
        "8025": 253,
        "8026": 215,
        "8027": 9,
        "8028": 127,
        "8029": 59,
        "8030": 87,
        "8031": 54,
        "8032": 252,
        "8033": 12,
        "8034": 108,
        "8035": 100,
        "8036": 116,
        "8037": 173,
        "8038": 200,
        "8039": 187,
        "8040": 230,
        "8041": 65,
        "8042": 165,
        "8043": 157,
        "8044": 173,
        "8045": 237,
        "8046": 115,
        "8047": 108,
        "8048": 53,
        "8049": 73,
        "8050": 249,
        "8051": 15,
        "8052": 45,
        "8053": 172,
        "8054": 101,
        "8055": 39,
        "8056": 110,
        "8057": 81,
        "8058": 18,
        "8059": 111,
        "8060": 149,
        "8061": 111,
        "8062": 185,
        "8063": 191,
        "8064": 104,
        "8065": 66,
        "8066": 92,
        "8067": 12,
        "8068": 108,
        "8069": 179,
        "8070": 37,
        "8071": 116,
        "8072": 18,
        "8073": 226,
        "8074": 64,
        "8075": 64,
        "8076": 170,
        "8077": 95,
        "8078": 112,
        "8079": 9,
        "8080": 190,
        "8081": 229,
        "8082": 70,
        "8083": 9,
        "8084": 159,
        "8085": 202,
        "8086": 178,
        "8087": 127,
        "8088": 51,
        "8089": 241,
        "8090": 57,
        "8091": 242,
        "8092": 36,
        "8093": 18,
        "8094": 114,
        "8095": 90,
        "8096": 49,
        "8097": 73,
        "8098": 122,
        "8099": 183,
        "8100": 145,
        "8101": 250,
        "8102": 97,
        "8103": 211,
        "8104": 174,
        "8105": 221,
        "8106": 109,
        "8107": 98,
        "8108": 224,
        "8109": 172,
        "8110": 239,
        "8111": 104,
        "8112": 145,
        "8113": 203,
        "8114": 100,
        "8115": 217,
        "8116": 204,
        "8117": 192,
        "8118": 161,
        "8119": 168,
        "8120": 76,
        "8121": 128,
        "8122": 121,
        "8123": 171,
        "8124": 103,
        "8125": 82,
        "8126": 237,
        "8127": 107,
        "8128": 29,
        "8129": 227,
        "8130": 204,
        "8131": 174,
        "8132": 208,
        "8133": 228,
        "8134": 229,
        "8135": 130,
        "8136": 135,
        "8137": 102,
        "8138": 139,
        "8139": 252,
        "8140": 99,
        "8141": 84,
        "8142": 26,
        "8143": 86,
        "8144": 108,
        "8145": 191,
        "8146": 227,
        "8147": 149,
        "8148": 172,
        "8149": 213,
        "8150": 86,
        "8151": 86,
        "8152": 218,
        "8153": 194,
        "8154": 207,
        "8155": 66,
        "8156": 99,
        "8157": 57,
        "8158": 197,
        "8159": 193,
        "8160": 240,
        "8161": 57,
        "8162": 39,
        "8163": 123,
        "8164": 231,
        "8165": 246,
        "8166": 180,
        "8167": 226,
        "8168": 180,
        "8169": 182,
        "8170": 125,
        "8171": 71,
        "8172": 149,
        "8173": 172,
        "8174": 35,
        "8175": 249,
        "8176": 69,
        "8177": 218,
        "8178": 5,
        "8179": 21,
        "8180": 248,
        "8181": 195,
        "8182": 223,
        "8183": 147,
        "8184": 159,
        "8185": 73,
        "8186": 63,
        "8187": 146,
        "8188": 189,
        "8189": 87,
        "8190": 11,
        "8191": 243,
        "8192": 142,
        "8193": 14,
        "8194": 159,
        "8195": 232,
        "8196": 209,
        "8197": 139,
        "8198": 146,
        "8199": 39,
        "8200": 34,
        "8201": 220,
        "8202": 247,
        "8203": 198,
        "8204": 192,
        "8205": 8,
        "8206": 105,
        "8207": 167,
        "8208": 68,
        "8209": 85,
        "8210": 26,
        "8211": 125,
        "8212": 206,
        "8213": 37,
        "8214": 208,
        "8215": 232,
        "8216": 19,
        "8217": 89,
        "8218": 178,
        "8219": 114,
        "8220": 125,
        "8221": 209,
        "8222": 75,
        "8223": 247,
        "8224": 119,
        "8225": 24,
        "8226": 156,
        "8227": 35,
        "8228": 169,
        "8229": 117,
        "8230": 245,
        "8231": 181,
        "8232": 191,
        "8233": 37,
        "8234": 60,
        "8235": 9,
        "8236": 132,
        "8237": 229,
        "8238": 125,
        "8239": 56,
        "8240": 198,
        "8241": 206,
        "8242": 143,
        "8243": 188,
        "8244": 222,
        "8245": 99,
        "8246": 33,
        "8247": 249,
        "8248": 185,
        "8249": 60,
        "8250": 217,
        "8251": 203,
        "8252": 74,
        "8253": 44,
        "8254": 59,
        "8255": 174,
        "8256": 99,
        "8257": 185,
        "8258": 171,
        "8259": 130,
        "8260": 190,
        "8261": 72,
        "8262": 222,
        "8263": 114,
        "8264": 232,
        "8265": 13,
        "8266": 223,
        "8267": 142,
        "8268": 1,
        "8269": 157,
        "8270": 90,
        "8271": 217,
        "8272": 158,
        "8273": 175,
        "8274": 3,
        "8275": 215,
        "8276": 118,
        "8277": 60,
        "8278": 42,
        "8279": 29,
        "8280": 25,
        "8281": 127,
        "8282": 53,
        "8283": 32,
        "8284": 157,
        "8285": 186,
        "8286": 162,
        "8287": 155,
        "8288": 238,
        "8289": 0,
        "8290": 241,
        "8291": 54,
        "8292": 184,
        "8293": 96,
        "8294": 82,
        "8295": 52,
        "8296": 30,
        "8297": 40,
        "8298": 3,
        "8299": 160,
        "8300": 128,
        "8301": 242,
        "8302": 42,
        "8303": 246,
        "8304": 194,
        "8305": 4,
        "8306": 181,
        "8307": 76,
        "8308": 8,
        "8309": 107,
        "8310": 131,
        "8311": 103,
        "8312": 93,
        "8313": 46,
        "8314": 89,
        "8315": 3,
        "8316": 3,
        "8317": 128,
        "8318": 16,
        "8319": 47,
        "8320": 206,
        "8321": 157,
        "8322": 120,
        "8323": 197,
        "8324": 138,
        "8325": 164,
        "8326": 235,
        "8327": 54,
        "8328": 204,
        "8329": 148,
        "8330": 47,
        "8331": 66,
        "8332": 188,
        "8333": 175,
        "8334": 118,
        "8335": 138,
        "8336": 140,
        "8337": 125,
        "8338": 249,
        "8339": 26,
        "8340": 153,
        "8341": 50,
        "8342": 185,
        "8343": 148,
        "8344": 165,
        "8345": 203,
        "8346": 32,
        "8347": 96,
        "8348": 97,
        "8349": 37,
        "8350": 110,
        "8351": 135,
        "8352": 21,
        "8353": 246,
        "8354": 26,
        "8355": 41,
        "8356": 120,
        "8357": 11,
        "8358": 55,
        "8359": 244,
        "8360": 240,
        "8361": 223,
        "8362": 136,
        "8363": 39,
        "8364": 180,
        "8365": 249,
        "8366": 43,
        "8367": 164,
        "8368": 234,
        "8369": 253,
        "8370": 194,
        "8371": 219,
        "8372": 156,
        "8373": 224,
        "8374": 158,
        "8375": 195,
        "8376": 183,
        "8377": 133,
        "8378": 219,
        "8379": 172,
        "8380": 240,
        "8381": 53,
        "8382": 171,
        "8383": 67,
        "8384": 111,
        "8385": 217,
        "8386": 242,
        "8387": 113,
        "8388": 64,
        "8389": 44,
        "8390": 125,
        "8391": 244,
        "8392": 169,
        "8393": 237,
        "8394": 138,
        "8395": 131,
        "8396": 236,
        "8397": 215,
        "8398": 231,
        "8399": 173,
        "8400": 58,
        "8401": 145,
        "8402": 22,
        "8403": 254,
        "8404": 232,
        "8405": 202,
        "8406": 230,
        "8407": 54,
        "8408": 52,
        "8409": 86,
        "8410": 17,
        "8411": 216,
        "8412": 128,
        "8413": 218,
        "8414": 131,
        "8415": 119,
        "8416": 8,
        "8417": 239,
        "8418": 10,
        "8419": 20,
        "8420": 99,
        "8421": 158,
        "8422": 239,
        "8423": 106,
        "8424": 190,
        "8425": 130,
        "8426": 250,
        "8427": 154,
        "8428": 32,
        "8429": 188,
        "8430": 248,
        "8431": 164,
        "8432": 180,
        "8433": 137,
        "8434": 68,
        "8435": 62,
        "8436": 205,
        "8437": 140,
        "8438": 235,
        "8439": 46,
        "8440": 83,
        "8441": 127,
        "8442": 5,
        "8443": 75,
        "8444": 209,
        "8445": 65,
        "8446": 205,
        "8447": 157,
        "8448": 95,
        "8449": 147,
        "8450": 73,
        "8451": 75,
        "8452": 13,
        "8453": 45,
        "8454": 96,
        "8455": 26,
        "8456": 157,
        "8457": 41,
        "8458": 161,
        "8459": 148,
        "8460": 30,
        "8461": 171,
        "8462": 128,
        "8463": 225,
        "8464": 193,
        "8465": 77,
        "8466": 57,
        "8467": 218,
        "8468": 182,
        "8469": 20,
        "8470": 165,
        "8471": 143,
        "8472": 193,
        "8473": 71,
        "8474": 174,
        "8475": 159,
        "8476": 34,
        "8477": 101,
        "8478": 108,
        "8479": 118,
        "8480": 206,
        "8481": 114,
        "8482": 204,
        "8483": 229,
        "8484": 205,
        "8485": 217,
        "8486": 137,
        "8487": 77,
        "8488": 105,
        "8489": 20,
        "8490": 240,
        "8491": 146,
        "8492": 29,
        "8493": 195,
        "8494": 140,
        "8495": 56,
        "8496": 51,
        "8497": 22,
        "8498": 90,
        "8499": 53,
        "8500": 172,
        "8501": 165,
        "8502": 156,
        "8503": 26,
        "8504": 68,
        "8505": 206,
        "8506": 149,
        "8507": 173,
        "8508": 119,
        "8509": 120,
        "8510": 10,
        "8511": 154,
        "8512": 73,
        "8513": 118,
        "8514": 40,
        "8515": 238,
        "8516": 214,
        "8517": 96,
        "8518": 99,
        "8519": 225,
        "8520": 58,
        "8521": 207,
        "8522": 108,
        "8523": 236,
        "8524": 226,
        "8525": 63,
        "8526": 92,
        "8527": 36,
        "8528": 175,
        "8529": 25,
        "8530": 39,
        "8531": 244,
        "8532": 182,
        "8533": 254,
        "8534": 203,
        "8535": 31,
        "8536": 126,
        "8537": 58,
        "8538": 35,
        "8539": 219,
        "8540": 219,
        "8541": 249,
        "8542": 127,
        "8543": 46,
        "8544": 15,
        "8545": 28,
        "8546": 209,
        "8547": 102,
        "8548": 112,
        "8549": 57,
        "8550": 130,
        "8551": 58,
        "8552": 86,
        "8553": 157,
        "8554": 35,
        "8555": 60,
        "8556": 198,
        "8557": 200,
        "8558": 102,
        "8559": 15,
        "8560": 30,
        "8561": 15,
        "8562": 246,
        "8563": 19,
        "8564": 42,
        "8565": 20,
        "8566": 97,
        "8567": 253,
        "8568": 134,
        "8569": 189,
        "8570": 214,
        "8571": 231,
        "8572": 178,
        "8573": 63,
        "8574": 217,
        "8575": 13,
        "8576": 198,
        "8577": 148,
        "8578": 69,
        "8579": 226,
        "8580": 122,
        "8581": 211,
        "8582": 177,
        "8583": 190,
        "8584": 162,
        "8585": 12,
        "8586": 24,
        "8587": 9,
        "8588": 198,
        "8589": 77,
        "8590": 239,
        "8591": 75,
        "8592": 168,
        "8593": 15,
        "8594": 93,
        "8595": 148,
        "8596": 208,
        "8597": 100,
        "8598": 169,
        "8599": 88,
        "8600": 219,
        "8601": 26,
        "8602": 229,
        "8603": 255,
        "8604": 53,
        "8605": 105,
        "8606": 29,
        "8607": 217,
        "8608": 255,
        "8609": 82,
        "8610": 219,
        "8611": 132,
        "8612": 255,
        "8613": 141,
        "8614": 148,
        "8615": 170,
        "8616": 191,
        "8617": 190,
        "8618": 7,
        "8619": 164,
        "8620": 60,
        "8621": 168,
        "8622": 206,
        "8623": 245,
        "8624": 7,
        "8625": 212,
        "8626": 26,
        "8627": 152,
        "8628": 12,
        "8629": 110,
        "8630": 13,
        "8631": 71,
        "8632": 180,
        "8633": 158,
        "8634": 168,
        "8635": 130,
        "8636": 139,
        "8637": 237,
        "8638": 220,
        "8639": 62,
        "8640": 199,
        "8641": 165,
        "8642": 121,
        "8643": 36,
        "8644": 167,
        "8645": 127,
        "8646": 93,
        "8647": 108,
        "8648": 70,
        "8649": 8,
        "8650": 214,
        "8651": 101,
        "8652": 222,
        "8653": 191,
        "8654": 182,
        "8655": 52,
        "8656": 178,
        "8657": 221,
        "8658": 232,
        "8659": 161,
        "8660": 125,
        "8661": 84,
        "8662": 6,
        "8663": 200,
        "8664": 104,
        "8665": 19,
        "8666": 7,
        "8667": 214,
        "8668": 175,
        "8669": 253,
        "8670": 79,
        "8671": 188,
        "8672": 9,
        "8673": 160,
        "8674": 109,
        "8675": 64,
        "8676": 168,
        "8677": 55,
        "8678": 193,
        "8679": 73,
        "8680": 122,
        "8681": 159,
        "8682": 32,
        "8683": 235,
        "8684": 62,
        "8685": 113,
        "8686": 124,
        "8687": 45,
        "8688": 241,
        "8689": 216,
        "8690": 8,
        "8691": 71,
        "8692": 225,
        "8693": 195,
        "8694": 34,
        "8695": 56,
        "8696": 150,
        "8697": 191,
        "8698": 122,
        "8699": 112,
        "8700": 48,
        "8701": 216,
        "8702": 224,
        "8703": 110,
        "8704": 191,
        "8705": 212,
        "8706": 11,
        "8707": 222,
        "8708": 137,
        "8709": 131,
        "8710": 57,
        "8711": 121,
        "8712": 184,
        "8713": 254,
        "8714": 29,
        "8715": 48,
        "8716": 201,
        "8717": 20,
        "8718": 223,
        "8719": 201,
        "8720": 21,
        "8721": 94,
        "8722": 18,
        "8723": 218,
        "8724": 111,
        "8725": 66,
        "8726": 68,
        "8727": 53,
        "8728": 22,
        "8729": 5,
        "8730": 47,
        "8731": 69,
        "8732": 133,
        "8733": 176,
        "8734": 143,
        "8735": 94,
        "8736": 191,
        "8737": 196,
        "8738": 128,
        "8739": 226,
        "8740": 145,
        "8741": 25,
        "8742": 197,
        "8743": 252,
        "8744": 122,
        "8745": 208,
        "8746": 126,
        "8747": 193,
        "8748": 151,
        "8749": 164,
        "8750": 199,
        "8751": 5,
        "8752": 250,
        "8753": 162,
        "8754": 222,
        "8755": 62,
        "8756": 247,
        "8757": 49,
        "8758": 16,
        "8759": 13,
        "8760": 62,
        "8761": 106,
        "8762": 108,
        "8763": 158,
        "8764": 24,
        "8765": 208,
        "8766": 200,
        "8767": 108,
        "8768": 32,
        "8769": 82,
        "8770": 233,
        "8771": 235,
        "8772": 33,
        "8773": 159,
        "8774": 194,
        "8775": 96,
        "8776": 249,
        "8777": 105,
        "8778": 170,
        "8779": 255,
        "8780": 151,
        "8781": 17,
        "8782": 107,
        "8783": 77,
        "8784": 162,
        "8785": 151,
        "8786": 127,
        "8787": 220,
        "8788": 167,
        "8789": 161,
        "8790": 94,
        "8791": 84,
        "8792": 41,
        "8793": 161,
        "8794": 76,
        "8795": 109,
        "8796": 37,
        "8797": 177,
        "8798": 34,
        "8799": 11,
        "8800": 0,
        "8801": 91,
        "8802": 50,
        "8803": 130,
        "8804": 226,
        "8805": 2,
        "8806": 13,
        "8807": 208,
        "8808": 30,
        "8809": 249,
        "8810": 57,
        "8811": 166,
        "8812": 14,
        "8813": 220,
        "8814": 30,
        "8815": 66,
        "8816": 170,
        "8817": 7,
        "8818": 76,
        "8819": 49,
        "8820": 183,
        "8821": 115,
        "8822": 184,
        "8823": 93,
        "8824": 227,
        "8825": 106,
        "8826": 124,
        "8827": 143,
        "8828": 169,
        "8829": 240,
        "8830": 125,
        "8831": 110,
        "8832": 29,
        "8833": 73,
        "8834": 63,
        "8835": 229,
        "8836": 10,
        "8837": 87,
        "8838": 190,
        "8839": 152,
        "8840": 248,
        "8841": 158,
        "8842": 97,
        "8843": 73,
        "8844": 14,
        "8845": 174,
        "8846": 202,
        "8847": 109,
        "8848": 199,
        "8849": 254,
        "8850": 108,
        "8851": 87,
        "8852": 255,
        "8853": 133,
        "8854": 242,
        "8855": 199,
        "8856": 37,
        "8857": 48,
        "8858": 155,
        "8859": 69,
        "8860": 9,
        "8861": 86,
        "8862": 22,
        "8863": 9,
        "8864": 255,
        "8865": 136,
        "8866": 35,
        "8867": 230,
        "8868": 133,
        "8869": 117,
        "8870": 84,
        "8871": 168,
        "8872": 220,
        "8873": 129,
        "8874": 160,
        "8875": 152,
        "8876": 115,
        "8877": 249,
        "8878": 246,
        "8879": 113,
        "8880": 66,
        "8881": 186,
        "8882": 178,
        "8883": 213,
        "8884": 26,
        "8885": 206,
        "8886": 237,
        "8887": 254,
        "8888": 10,
        "8889": 125,
        "8890": 101,
        "8891": 90,
        "8892": 55,
        "8893": 7,
        "8894": 88,
        "8895": 223,
        "8896": 221,
        "8897": 158,
        "8898": 188,
        "8899": 43,
        "8900": 97,
        "8901": 200,
        "8902": 116,
        "8903": 110,
        "8904": 198,
        "8905": 45,
        "8906": 21,
        "8907": 180,
        "8908": 223,
        "8909": 229,
        "8910": 16,
        "8911": 119,
        "8912": 214,
        "8913": 15,
        "8914": 218,
        "8915": 56,
        "8916": 230,
        "8917": 34,
        "8918": 136,
        "8919": 75,
        "8920": 35,
        "8921": 26,
        "8922": 232,
        "8923": 161,
        "8924": 197,
        "8925": 74,
        "8926": 181,
        "8927": 137,
        "8928": 108,
        "8929": 89,
        "8930": 230,
        "8931": 13,
        "8932": 9,
        "8933": 119,
        "8934": 201,
        "8935": 171,
        "8936": 137,
        "8937": 236,
        "8938": 28,
        "8939": 241,
        "8940": 183,
        "8941": 66,
        "8942": 38,
        "8943": 240,
        "8944": 116,
        "8945": 226,
        "8946": 65,
        "8947": 32,
        "8948": 45,
        "8949": 123,
        "8950": 193,
        "8951": 198,
        "8952": 225,
        "8953": 25,
        "8954": 166,
        "8955": 54,
        "8956": 37,
        "8957": 3,
        "8958": 62,
        "8959": 119,
        "8960": 159,
        "8961": 48,
        "8962": 30,
        "8963": 87,
        "8964": 145,
        "8965": 28,
        "8966": 48,
        "8967": 0,
        "8968": 117,
        "8969": 83,
        "8970": 0,
        "8971": 0,
        "8972": 88,
        "8973": 107,
        "8974": 142,
        "8975": 27,
        "8976": 173,
        "8977": 203,
        "8978": 137,
        "8979": 209,
        "8980": 122,
        "8981": 215,
        "8982": 157,
        "8983": 185,
        "8984": 86,
        "8985": 146,
        "8986": 186,
        "8987": 58,
        "8988": 67,
        "8989": 123,
        "8990": 39,
        "8991": 241,
        "8992": 201,
        "8993": 70,
        "8994": 95,
        "8995": 46,
        "8996": 122,
        "8997": 113,
        "8998": 4,
        "8999": 97,
        "9000": 0,
        "9001": 41,
        "9002": 58,
        "9003": 159,
        "9004": 189,
        "9005": 8,
        "9006": 11,
        "9007": 153,
        "9008": 198,
        "9009": 70,
        "9010": 111,
        "9011": 57,
        "9012": 2,
        "9013": 183,
        "9014": 132,
        "9015": 169,
        "9016": 69,
        "9017": 241,
        "9018": 247,
        "9019": 51,
        "9020": 105,
        "9021": 65,
        "9022": 63,
        "9023": 28,
        "9024": 150,
        "9025": 59,
        "9026": 22,
        "9027": 234,
        "9028": 11,
        "9029": 240,
        "9030": 182,
        "9031": 69,
        "9032": 4,
        "9033": 158,
        "9034": 74,
        "9035": 40,
        "9036": 153,
        "9037": 235,
        "9038": 37,
        "9039": 24,
        "9040": 244,
        "9041": 232,
        "9042": 153,
        "9043": 111,
        "9044": 130,
        "9045": 145,
        "9046": 16,
        "9047": 198,
        "9048": 176,
        "9049": 169,
        "9050": 248,
        "9051": 9,
        "9052": 73,
        "9053": 123,
        "9054": 126,
        "9055": 163,
        "9056": 71,
        "9057": 93,
        "9058": 234,
        "9059": 246,
        "9060": 51,
        "9061": 52,
        "9062": 170,
        "9063": 245,
        "9064": 182,
        "9065": 226,
        "9066": 118,
        "9067": 114,
        "9068": 96,
        "9069": 171,
        "9070": 69,
        "9071": 129,
        "9072": 200,
        "9073": 21,
        "9074": 169,
        "9075": 57,
        "9076": 250,
        "9077": 132,
        "9078": 173,
        "9079": 227,
        "9080": 159,
        "9081": 93,
        "9082": 56,
        "9083": 44,
        "9084": 17,
        "9085": 96,
        "9086": 231,
        "9087": 151,
        "9088": 144,
        "9089": 159,
        "9090": 255,
        "9091": 148,
        "9092": 195,
        "9093": 43,
        "9094": 233,
        "9095": 213,
        "9096": 58,
        "9097": 98,
        "9098": 29,
        "9099": 71,
        "9100": 107,
        "9101": 222,
        "9102": 200,
        "9103": 226,
        "9104": 238,
        "9105": 178,
        "9106": 28,
        "9107": 189,
        "9108": 231,
        "9109": 227,
        "9110": 140,
        "9111": 204,
        "9112": 19,
        "9113": 31,
        "9114": 233,
        "9115": 251,
        "9116": 75,
        "9117": 246,
        "9118": 176,
        "9119": 151,
        "9120": 164,
        "9121": 212,
        "9122": 149,
        "9123": 241,
        "9124": 226,
        "9125": 6,
        "9126": 198,
        "9127": 251,
        "9128": 231,
        "9129": 90,
        "9130": 249,
        "9131": 32,
        "9132": 45,
        "9133": 251,
        "9134": 224,
        "9135": 67,
        "9136": 169,
        "9137": 56,
        "9138": 255,
        "9139": 2,
        "9140": 201,
        "9141": 224,
        "9142": 246,
        "9143": 140,
        "9144": 79,
        "9145": 141,
        "9146": 41,
        "9147": 220,
        "9148": 245,
        "9149": 159,
        "9150": 250,
        "9151": 60,
        "9152": 1,
        "9153": 180,
        "9154": 185,
        "9155": 60,
        "9156": 233,
        "9157": 135,
        "9158": 143,
        "9159": 195,
        "9160": 20,
        "9161": 61,
        "9162": 55,
        "9163": 21,
        "9164": 182,
        "9165": 4,
        "9166": 199,
        "9167": 12,
        "9168": 4,
        "9169": 2,
        "9170": 168,
        "9171": 150,
        "9172": 128,
        "9173": 254,
        "9174": 252,
        "9175": 73,
        "9176": 85,
        "9177": 248,
        "9178": 177,
        "9179": 176,
        "9180": 35,
        "9181": 142,
        "9182": 227,
        "9183": 114,
        "9184": 132,
        "9185": 254,
        "9186": 234,
        "9187": 221,
        "9188": 219,
        "9189": 85,
        "9190": 84,
        "9191": 229,
        "9192": 17,
        "9193": 17,
        "9194": 134,
        "9195": 157,
        "9196": 47,
        "9197": 190,
        "9198": 35,
        "9199": 24,
        "9200": 86,
        "9201": 213,
        "9202": 57,
        "9203": 29,
        "9204": 180,
        "9205": 128,
        "9206": 100,
        "9207": 173,
        "9208": 215,
        "9209": 49,
        "9210": 238,
        "9211": 100,
        "9212": 105,
        "9213": 43,
        "9214": 95,
        "9215": 154,
        "9216": 15,
        "9217": 157,
        "9218": 3,
        "9219": 115,
        "9220": 179,
        "9221": 167,
        "9222": 22,
        "9223": 75,
        "9224": 121,
        "9225": 215,
        "9226": 97,
        "9227": 161,
        "9228": 116,
        "9229": 155,
        "9230": 92,
        "9231": 80,
        "9232": 3,
        "9233": 166,
        "9234": 125,
        "9235": 72,
        "9236": 223,
        "9237": 19,
        "9238": 111,
        "9239": 110,
        "9240": 214,
        "9241": 80,
        "9242": 192,
        "9243": 99,
        "9244": 228,
        "9245": 127,
        "9246": 94,
        "9247": 184,
        "9248": 255,
        "9249": 122,
        "9250": 6,
        "9251": 114,
        "9252": 246,
        "9253": 155,
        "9254": 127,
        "9255": 235,
        "9256": 139,
        "9257": 165,
        "9258": 198,
        "9259": 42,
        "9260": 114,
        "9261": 177,
        "9262": 202,
        "9263": 48,
        "9264": 142,
        "9265": 35,
        "9266": 113,
        "9267": 164,
        "9268": 222,
        "9269": 245,
        "9270": 42,
        "9271": 73,
        "9272": 26,
        "9273": 153,
        "9274": 19,
        "9275": 107,
        "9276": 132,
        "9277": 40,
        "9278": 130,
        "9279": 15,
        "9280": 36,
        "9281": 104,
        "9282": 85,
        "9283": 98,
        "9284": 18,
        "9285": 7,
        "9286": 116,
        "9287": 200,
        "9288": 238,
        "9289": 213,
        "9290": 203,
        "9291": 215,
        "9292": 104,
        "9293": 99,
        "9294": 135,
        "9295": 194,
        "9296": 208,
        "9297": 97,
        "9298": 60,
        "9299": 193,
        "9300": 30,
        "9301": 17,
        "9302": 143,
        "9303": 48,
        "9304": 192,
        "9305": 68,
        "9306": 6,
        "9307": 122,
        "9308": 1,
        "9309": 221,
        "9310": 3,
        "9311": 142,
        "9312": 89,
        "9313": 149,
        "9314": 187,
        "9315": 216,
        "9316": 0,
        "9317": 82,
        "9318": 48,
        "9319": 162,
        "9320": 90,
        "9321": 108,
        "9322": 237,
        "9323": 162,
        "9324": 37,
        "9325": 43,
        "9326": 210,
        "9327": 22,
        "9328": 247,
        "9329": 191,
        "9330": 11,
        "9331": 212,
        "9332": 207,
        "9333": 46,
        "9334": 63,
        "9335": 208,
        "9336": 116,
        "9337": 70,
        "9338": 231,
        "9339": 24,
        "9340": 148,
        "9341": 163,
        "9342": 160,
        "9343": 11,
        "9344": 196,
        "9345": 236,
        "9346": 26,
        "9347": 175,
        "9348": 169,
        "9349": 124,
        "9350": 63,
        "9351": 119,
        "9352": 135,
        "9353": 178,
        "9354": 214,
        "9355": 50,
        "9356": 24,
        "9357": 139,
        "9358": 149,
        "9359": 30,
        "9360": 22,
        "9361": 222,
        "9362": 247,
        "9363": 33,
        "9364": 132,
        "9365": 183,
        "9366": 24,
        "9367": 252,
        "9368": 172,
        "9369": 219,
        "9370": 32,
        "9371": 31,
        "9372": 20,
        "9373": 136,
        "9374": 8,
        "9375": 109,
        "9376": 164,
        "9377": 152,
        "9378": 89,
        "9379": 166,
        "9380": 196,
        "9381": 23,
        "9382": 0,
        "9383": 184,
        "9384": 224,
        "9385": 149,
        "9386": 35,
        "9387": 26,
        "9388": 122,
        "9389": 229,
        "9390": 45,
        "9391": 210,
        "9392": 85,
        "9393": 38,
        "9394": 232,
        "9395": 29,
        "9396": 80,
        "9397": 159,
        "9398": 85,
        "9399": 84,
        "9400": 145,
        "9401": 89,
        "9402": 159,
        "9403": 100,
        "9404": 55,
        "9405": 106,
        "9406": 168,
        "9407": 224,
        "9408": 248,
        "9409": 233,
        "9410": 116,
        "9411": 117,
        "9412": 14,
        "9413": 2,
        "9414": 8,
        "9415": 143,
        "9416": 14,
        "9417": 229,
        "9418": 135,
        "9419": 228,
        "9420": 165,
        "9421": 83,
        "9422": 67,
        "9423": 156,
        "9424": 72,
        "9425": 126,
        "9426": 146,
        "9427": 227,
        "9428": 143,
        "9429": 53,
        "9430": 9,
        "9431": 153,
        "9432": 92,
        "9433": 172,
        "9434": 43,
        "9435": 249,
        "9436": 198,
        "9437": 122,
        "9438": 197,
        "9439": 133,
        "9440": 62,
        "9441": 109,
        "9442": 85,
        "9443": 167,
        "9444": 77,
        "9445": 81,
        "9446": 130,
        "9447": 143,
        "9448": 24,
        "9449": 146,
        "9450": 166,
        "9451": 160,
        "9452": 134,
        "9453": 200,
        "9454": 173,
        "9455": 190,
        "9456": 8,
        "9457": 173,
        "9458": 120,
        "9459": 199,
        "9460": 36,
        "9461": 68,
        "9462": 28,
        "9463": 103,
        "9464": 191,
        "9465": 86,
        "9466": 232,
        "9467": 227,
        "9468": 72,
        "9469": 144,
        "9470": 92,
        "9471": 46,
        "9472": 228,
        "9473": 204,
        "9474": 169,
        "9475": 157,
        "9476": 101,
        "9477": 180,
        "9478": 58,
        "9479": 79,
        "9480": 130,
        "9481": 34,
        "9482": 15,
        "9483": 50,
        "9484": 26,
        "9485": 129,
        "9486": 146,
        "9487": 52,
        "9488": 21,
        "9489": 213,
        "9490": 154,
        "9491": 222,
        "9492": 177,
        "9493": 152,
        "9494": 194,
        "9495": 200,
        "9496": 189,
        "9497": 184,
        "9498": 234,
        "9499": 22,
        "9500": 81,
        "9501": 141,
        "9502": 199,
        "9503": 148,
        "9504": 22,
        "9505": 193,
        "9506": 109,
        "9507": 158,
        "9508": 156,
        "9509": 184,
        "9510": 19,
        "9511": 173,
        "9512": 43,
        "9513": 119,
        "9514": 24,
        "9515": 12,
        "9516": 16,
        "9517": 222,
        "9518": 188,
        "9519": 242,
        "9520": 231,
        "9521": 63,
        "9522": 233,
        "9523": 224,
        "9524": 174,
        "9525": 140,
        "9526": 160,
        "9527": 70,
        "9528": 0,
        "9529": 189,
        "9530": 216,
        "9531": 185,
        "9532": 225,
        "9533": 181,
        "9534": 153,
        "9535": 36,
        "9536": 165,
        "9537": 122,
        "9538": 187,
        "9539": 129,
        "9540": 124,
        "9541": 175,
        "9542": 136,
        "9543": 162,
        "9544": 94,
        "9545": 17,
        "9546": 126,
        "9547": 110,
        "9548": 75,
        "9549": 82,
        "9550": 211,
        "9551": 220,
        "9552": 90,
        "9553": 113,
        "9554": 70,
        "9555": 112,
        "9556": 176,
        "9557": 11,
        "9558": 212,
        "9559": 220,
        "9560": 177,
        "9561": 166,
        "9562": 26,
        "9563": 178,
        "9564": 206,
        "9565": 123,
        "9566": 136,
        "9567": 79,
        "9568": 0,
        "9569": 227,
        "9570": 0,
        "9571": 129,
        "9572": 38,
        "9573": 170,
        "9574": 147,
        "9575": 105,
        "9576": 48,
        "9577": 125,
        "9578": 146,
        "9579": 253,
        "9580": 40,
        "9581": 242,
        "9582": 104,
        "9583": 6,
        "9584": 248,
        "9585": 138,
        "9586": 169,
        "9587": 111,
        "9588": 183,
        "9589": 22,
        "9590": 219,
        "9591": 132,
        "9592": 91,
        "9593": 123,
        "9594": 210,
        "9595": 210,
        "9596": 235,
        "9597": 241,
        "9598": 80,
        "9599": 23,
        "9600": 162,
        "9601": 116,
        "9602": 11,
        "9603": 174,
        "9604": 249,
        "9605": 97,
        "9606": 72,
        "9607": 97,
        "9608": 134,
        "9609": 103,
        "9610": 84,
        "9611": 89,
        "9612": 24,
        "9613": 55,
        "9614": 250,
        "9615": 117,
        "9616": 251,
        "9617": 107,
        "9618": 137,
        "9619": 240,
        "9620": 18,
        "9621": 45,
        "9622": 11,
        "9623": 248,
        "9624": 137,
        "9625": 119,
        "9626": 63,
        "9627": 190,
        "9628": 116,
        "9629": 182,
        "9630": 81,
        "9631": 148,
        "9632": 18,
        "9633": 227,
        "9634": 17,
        "9635": 239,
        "9636": 116,
        "9637": 182,
        "9638": 224,
        "9639": 122,
        "9640": 15,
        "9641": 79,
        "9642": 244,
        "9643": 137,
        "9644": 230,
        "9645": 100,
        "9646": 142,
        "9647": 223,
        "9648": 219,
        "9649": 113,
        "9650": 250,
        "9651": 0,
        "9652": 215,
        "9653": 147,
        "9654": 168,
        "9655": 97,
        "9656": 3,
        "9657": 22,
        "9658": 216,
        "9659": 65,
        "9660": 12,
        "9661": 117,
        "9662": 116,
        "9663": 43,
        "9664": 74,
        "9665": 252,
        "9666": 215,
        "9667": 226,
        "9668": 106,
        "9669": 247,
        "9670": 203,
        "9671": 110,
        "9672": 55,
        "9673": 162,
        "9674": 255,
        "9675": 1,
        "9676": 95,
        "9677": 90,
        "9678": 33,
        "9679": 26,
        "9680": 103,
        "9681": 96,
        "9682": 51,
        "9683": 187,
        "9684": 184,
        "9685": 42,
        "9686": 2,
        "9687": 254,
        "9688": 195,
        "9689": 115,
        "9690": 242,
        "9691": 165,
        "9692": 123,
        "9693": 85,
        "9694": 53,
        "9695": 200,
        "9696": 159,
        "9697": 141,
        "9698": 28,
        "9699": 228,
        "9700": 148,
        "9701": 98,
        "9702": 234,
        "9703": 76,
        "9704": 122,
        "9705": 147,
        "9706": 16,
        "9707": 82,
        "9708": 202,
        "9709": 120,
        "9710": 97,
        "9711": 43,
        "9712": 175,
        "9713": 97,
        "9714": 195,
        "9715": 241,
        "9716": 218,
        "9717": 64,
        "9718": 102,
        "9719": 40,
        "9720": 211,
        "9721": 251,
        "9722": 251,
        "9723": 46,
        "9724": 113,
        "9725": 93,
        "9726": 39,
        "9727": 193,
        "9728": 111,
        "9729": 21,
        "9730": 94,
        "9731": 221,
        "9732": 39,
        "9733": 4,
        "9734": 110,
        "9735": 68,
        "9736": 240,
        "9737": 70,
        "9738": 35,
        "9739": 113,
        "9740": 167,
        "9741": 181,
        "9742": 214,
        "9743": 29,
        "9744": 141,
        "9745": 159,
        "9746": 30,
        "9747": 61,
        "9748": 9,
        "9749": 209,
        "9750": 164,
        "9751": 250,
        "9752": 64,
        "9753": 134,
        "9754": 201,
        "9755": 22,
        "9756": 236,
        "9757": 185,
        "9758": 107,
        "9759": 140,
        "9760": 118,
        "9761": 186,
        "9762": 89,
        "9763": 127,
        "9764": 59,
        "9765": 145,
        "9766": 78,
        "9767": 237,
        "9768": 104,
        "9769": 37,
        "9770": 11,
        "9771": 5,
        "9772": 79,
        "9773": 22,
        "9774": 110,
        "9775": 133,
        "9776": 247,
        "9777": 182,
        "9778": 169,
        "9779": 193,
        "9780": 23,
        "9781": 222,
        "9782": 201,
        "9783": 116,
        "9784": 58,
        "9785": 150,
        "9786": 154,
        "9787": 146,
        "9788": 137,
        "9789": 132,
        "9790": 179,
        "9791": 6,
        "9792": 120,
        "9793": 124,
        "9794": 197,
        "9795": 117,
        "9796": 164,
        "9797": 16,
        "9798": 197,
        "9799": 82,
        "9800": 31,
        "9801": 72,
        "9802": 108,
        "9803": 121,
        "9804": 129,
        "9805": 109,
        "9806": 87,
        "9807": 39,
        "9808": 77,
        "9809": 197,
        "9810": 16,
        "9811": 124,
        "9812": 173,
        "9813": 81,
        "9814": 176,
        "9815": 169,
        "9816": 236,
        "9817": 82,
        "9818": 189,
        "9819": 155,
        "9820": 196,
        "9821": 195,
        "9822": 69,
        "9823": 216,
        "9824": 121,
        "9825": 144,
        "9826": 158,
        "9827": 43,
        "9828": 200,
        "9829": 142,
        "9830": 140,
        "9831": 162,
        "9832": 57,
        "9833": 125,
        "9834": 247,
        "9835": 133,
        "9836": 103,
        "9837": 61,
        "9838": 251,
        "9839": 36,
        "9840": 3,
        "9841": 82,
        "9842": 227,
        "9843": 250,
        "9844": 154,
        "9845": 206,
        "9846": 227,
        "9847": 155,
        "9848": 106,
        "9849": 2,
        "9850": 187,
        "9851": 132,
        "9852": 211,
        "9853": 128,
        "9854": 85,
        "9855": 244,
        "9856": 1,
        "9857": 132,
        "9858": 233,
        "9859": 58,
        "9860": 86,
        "9861": 211,
        "9862": 56,
        "9863": 29,
        "9864": 196,
        "9865": 181,
        "9866": 192,
        "9867": 3,
        "9868": 228,
        "9869": 126,
        "9870": 132,
        "9871": 61,
        "9872": 4,
        "9873": 27,
        "9874": 98,
        "9875": 202,
        "9876": 128,
        "9877": 209,
        "9878": 106,
        "9879": 187,
        "9880": 199,
        "9881": 34,
        "9882": 91,
        "9883": 112,
        "9884": 153,
        "9885": 182,
        "9886": 84,
        "9887": 164,
        "9888": 118,
        "9889": 186,
        "9890": 132,
        "9891": 25,
        "9892": 64,
        "9893": 205,
        "9894": 173,
        "9895": 177,
        "9896": 169,
        "9897": 174,
        "9898": 233,
        "9899": 143,
        "9900": 174,
        "9901": 171,
        "9902": 14,
        "9903": 40,
        "9904": 196,
        "9905": 169,
        "9906": 32,
        "9907": 32,
        "9908": 71,
        "9909": 68,
        "9910": 155,
        "9911": 232,
        "9912": 50,
        "9913": 38,
        "9914": 21,
        "9915": 126,
        "9916": 53,
        "9917": 220,
        "9918": 210,
        "9919": 238,
        "9920": 132,
        "9921": 156,
        "9922": 98,
        "9923": 146,
        "9924": 157,
        "9925": 72,
        "9926": 82,
        "9927": 225,
        "9928": 101,
        "9929": 112,
        "9930": 253,
        "9931": 177,
        "9932": 199,
        "9933": 183,
        "9934": 36,
        "9935": 172,
        "9936": 83,
        "9937": 225,
        "9938": 99,
        "9939": 157,
        "9940": 110,
        "9941": 254,
        "9942": 160,
        "9943": 239,
        "9944": 24,
        "9945": 34,
        "9946": 83,
        "9947": 7,
        "9948": 35,
        "9949": 107,
        "9950": 70,
        "9951": 39,
        "9952": 186,
        "9953": 102,
        "9954": 214,
        "9955": 171,
        "9956": 254,
        "9957": 250,
        "9958": 231,
        "9959": 124,
        "9960": 153,
        "9961": 108,
        "9962": 68,
        "9963": 230,
        "9964": 129,
        "9965": 213,
        "9966": 33,
        "9967": 57,
        "9968": 20,
        "9969": 161,
        "9970": 68,
        "9971": 118,
        "9972": 234,
        "9973": 71,
        "9974": 190,
        "9975": 198,
        "9976": 205,
        "9977": 73,
        "9978": 135,
        "9979": 174,
        "9980": 209,
        "9981": 125,
        "9982": 71,
        "9983": 217,
        "9984": 25,
        "9985": 55,
        "9986": 66,
        "9987": 31,
        "9988": 195,
        "9989": 159,
        "9990": 16,
        "9991": 176,
        "9992": 251,
        "9993": 75,
        "9994": 247,
        "9995": 188,
        "9996": 24,
        "9997": 217,
        "9998": 226,
        "9999": 168,
        "10000": 246,
        "10001": 23,
        "10002": 95,
        "10003": 207,
        "10004": 92,
        "10005": 31,
        "10006": 72,
        "10007": 98,
        "10008": 43,
        "10009": 65,
        "10010": 208,
        "10011": 164,
        "10012": 57,
        "10013": 65,
        "10014": 94,
        "10015": 128,
        "10016": 107,
        "10017": 184,
        "10018": 224,
        "10019": 10,
        "10020": 245,
        "10021": 216,
        "10022": 154,
        "10023": 78,
        "10024": 77,
        "10025": 103,
        "10026": 44,
        "10027": 136,
        "10028": 242,
        "10029": 97,
        "10030": 203,
        "10031": 17,
        "10032": 112,
        "10033": 112,
        "10034": 149,
        "10035": 219,
        "10036": 25,
        "10037": 34,
        "10038": 155,
        "10039": 219,
        "10040": 7,
        "10041": 245,
        "10042": 92,
        "10043": 51,
        "10044": 24,
        "10045": 165,
        "10046": 65,
        "10047": 130,
        "10048": 90,
        "10049": 232,
        "10050": 8,
        "10051": 219,
        "10052": 99,
        "10053": 94,
        "10054": 175,
        "10055": 153,
        "10056": 241,
        "10057": 167,
        "10058": 240,
        "10059": 1,
        "10060": 125,
        "10061": 86,
        "10062": 190,
        "10063": 6,
        "10064": 245,
        "10065": 66,
        "10066": 114,
        "10067": 226,
        "10068": 167,
        "10069": 71,
        "10070": 58,
        "10071": 34,
        "10072": 255,
        "10073": 50,
        "10074": 74,
        "10075": 100,
        "10076": 122,
        "10077": 228,
        "10078": 28,
        "10079": 251,
        "10080": 89,
        "10081": 9,
        "10082": 201,
        "10083": 104,
        "10084": 25,
        "10085": 119,
        "10086": 171,
        "10087": 24,
        "10088": 75,
        "10089": 233,
        "10090": 123,
        "10091": 188,
        "10092": 93,
        "10093": 208,
        "10094": 230,
        "10095": 55,
        "10096": 125,
        "10097": 149,
        "10098": 248,
        "10099": 126,
        "10100": 254,
        "10101": 149,
        "10102": 56,
        "10103": 166,
        "10104": 105,
        "10105": 234,
        "10106": 49,
        "10107": 226,
        "10108": 27,
        "10109": 30,
        "10110": 241,
        "10111": 172,
        "10112": 32,
        "10113": 245,
        "10114": 120,
        "10115": 56,
        "10116": 212,
        "10117": 101,
        "10118": 167,
        "10119": 204,
        "10120": 57,
        "10121": 98,
        "10122": 53,
        "10123": 242,
        "10124": 230,
        "10125": 79,
        "10126": 200,
        "10127": 221,
        "10128": 192,
        "10129": 161,
        "10130": 181,
        "10131": 248,
        "10132": 225,
        "10133": 251,
        "10134": 253,
        "10135": 145,
        "10136": 236,
        "10137": 253,
        "10138": 189,
        "10139": 195,
        "10140": 76,
        "10141": 198,
        "10142": 224,
        "10143": 193,
        "10144": 31,
        "10145": 231,
        "10146": 94,
        "10147": 78,
        "10148": 255,
        "10149": 52,
        "10150": 245,
        "10151": 147,
        "10152": 249,
        "10153": 30,
        "10154": 69,
        "10155": 175,
        "10156": 213,
        "10157": 173,
        "10158": 244,
        "10159": 115,
        "10160": 93,
        "10161": 3,
        "10162": 64,
        "10163": 8,
        "10164": 69,
        "10165": 165,
        "10166": 34,
        "10167": 134,
        "10168": 213,
        "10169": 201,
        "10170": 244,
        "10171": 101,
        "10172": 235,
        "10173": 17,
        "10174": 32,
        "10175": 59,
        "10176": 217,
        "10177": 84,
        "10178": 178,
        "10179": 93,
        "10180": 253,
        "10181": 107,
        "10182": 147,
        "10183": 237,
        "10184": 33,
        "10185": 101,
        "10186": 175,
        "10187": 2,
        "10188": 214,
        "10189": 155,
        "10190": 48,
        "10191": 121,
        "10192": 14,
        "10193": 97,
        "10194": 57,
        "10195": 228,
        "10196": 33,
        "10197": 219,
        "10198": 159,
        "10199": 208,
        "10200": 188,
        "10201": 253,
        "10202": 10,
        "10203": 33,
        "10204": 251,
        "10205": 5,
        "10206": 79,
        "10207": 109,
        "10208": 110,
        "10209": 200,
        "10210": 239,
        "10211": 91,
        "10212": 8,
        "10213": 250,
        "10214": 147,
        "10215": 6,
        "10216": 164,
        "10217": 178,
        "10218": 133,
        "10219": 127,
        "10220": 188,
        "10221": 217,
        "10222": 36,
        "10223": 170,
        "10224": 226,
        "10225": 90,
        "10226": 84,
        "10227": 76,
        "10228": 11,
        "10229": 246,
        "10230": 58,
        "10231": 187,
        "10232": 118,
        "10233": 109,
        "10234": 114,
        "10235": 210,
        "10236": 124,
        "10237": 57,
        "10238": 21,
        "10239": 197,
        "10240": 92,
        "10241": 120,
        "10242": 220,
        "10243": 86,
        "10244": 66,
        "10245": 201,
        "10246": 138,
        "10247": 73,
        "10248": 0,
        "10249": 106,
        "10250": 166,
        "10251": 120,
        "10252": 43,
        "10253": 234,
        "10254": 102,
        "10255": 31,
        "10256": 108,
        "10257": 6,
        "10258": 50,
        "10259": 106,
        "10260": 101,
        "10261": 164,
        "10262": 241,
        "10263": 53,
        "10264": 138,
        "10265": 149,
        "10266": 167,
        "10267": 163,
        "10268": 166,
        "10269": 252,
        "10270": 158,
        "10271": 136,
        "10272": 19,
        "10273": 218,
        "10274": 144,
        "10275": 231,
        "10276": 67,
        "10277": 90,
        "10278": 241,
        "10279": 17,
        "10280": 252,
        "10281": 129,
        "10282": 75,
        "10283": 43,
        "10284": 51,
        "10285": 48,
        "10286": 158,
        "10287": 89,
        "10288": 56,
        "10289": 18,
        "10290": 88,
        "10291": 43,
        "10292": 165,
        "10293": 80,
        "10294": 34,
        "10295": 96,
        "10296": 55,
        "10297": 247,
        "10298": 126,
        "10299": 177,
        "10300": 106,
        "10301": 193,
        "10302": 181,
        "10303": 207,
        "10304": 21,
        "10305": 34,
        "10306": 142,
        "10307": 84,
        "10308": 96,
        "10309": 229,
        "10310": 177,
        "10311": 168,
        "10312": 82,
        "10313": 44,
        "10314": 28,
        "10315": 233,
        "10316": 201,
        "10317": 118,
        "10318": 129,
        "10319": 118,
        "10320": 136,
        "10321": 53,
        "10322": 16,
        "10323": 54,
        "10324": 218,
        "10325": 32,
        "10326": 101,
        "10327": 136,
        "10328": 128,
        "10329": 117,
        "10330": 21,
        "10331": 212,
        "10332": 158,
        "10333": 210,
        "10334": 17,
        "10335": 217,
        "10336": 180,
        "10337": 101,
        "10338": 200,
        "10339": 75,
        "10340": 216,
        "10341": 153,
        "10342": 213,
        "10343": 227,
        "10344": 40,
        "10345": 210,
        "10346": 237,
        "10347": 223,
        "10348": 99,
        "10349": 227,
        "10350": 13,
        "10351": 195,
        "10352": 6,
        "10353": 82,
        "10354": 90,
        "10355": 150,
        "10356": 158,
        "10357": 165,
        "10358": 187,
        "10359": 104,
        "10360": 242,
        "10361": 164,
        "10362": 94,
        "10363": 29,
        "10364": 4,
        "10365": 14,
        "10366": 237,
        "10367": 116,
        "10368": 251,
        "10369": 174,
        "10370": 56,
        "10371": 14,
        "10372": 202,
        "10373": 63,
        "10374": 78,
        "10375": 127,
        "10376": 34,
        "10377": 206,
        "10378": 162,
        "10379": 167,
        "10380": 226,
        "10381": 255,
        "10382": 139,
        "10383": 52,
        "10384": 54,
        "10385": 24,
        "10386": 79,
        "10387": 139,
        "10388": 113,
        "10389": 30,
        "10390": 26,
        "10391": 230,
        "10392": 14,
        "10393": 228,
        "10394": 48,
        "10395": 153,
        "10396": 130,
        "10397": 159,
        "10398": 90,
        "10399": 94,
        "10400": 65,
        "10401": 201,
        "10402": 205,
        "10403": 239,
        "10404": 211,
        "10405": 74,
        "10406": 248,
        "10407": 233,
        "10408": 39,
        "10409": 161,
        "10410": 92,
        "10411": 126,
        "10412": 205,
        "10413": 17,
        "10414": 97,
        "10415": 149,
        "10416": 218,
        "10417": 233,
        "10418": 47,
        "10419": 182,
        "10420": 31,
        "10421": 103,
        "10422": 176,
        "10423": 168,
        "10424": 51,
        "10425": 160,
        "10426": 68,
        "10427": 127,
        "10428": 134,
        "10429": 40,
        "10430": 46,
        "10431": 170,
        "10432": 56,
        "10433": 72,
        "10434": 219,
        "10435": 55,
        "10436": 157,
        "10437": 81,
        "10438": 54,
        "10439": 136,
        "10440": 224,
        "10441": 29,
        "10442": 61,
        "10443": 69,
        "10444": 41,
        "10445": 189,
        "10446": 115,
        "10447": 207,
        "10448": 227,
        "10449": 231,
        "10450": 230,
        "10451": 187,
        "10452": 130,
        "10453": 142,
        "10454": 185,
        "10455": 111,
        "10456": 110,
        "10457": 148,
        "10458": 128,
        "10459": 122,
        "10460": 185,
        "10461": 221,
        "10462": 164,
        "10463": 117,
        "10464": 29,
        "10465": 223,
        "10466": 73,
        "10467": 167,
        "10468": 31,
        "10469": 95,
        "10470": 33,
        "10471": 86,
        "10472": 134,
        "10473": 11,
        "10474": 12,
        "10475": 175,
        "10476": 142,
        "10477": 5,
        "10478": 15,
        "10479": 120,
        "10480": 43,
        "10481": 249,
        "10482": 195,
        "10483": 199,
        "10484": 14,
        "10485": 99,
        "10486": 75,
        "10487": 211,
        "10488": 64,
        "10489": 22,
        "10490": 8,
        "10491": 9,
        "10492": 117,
        "10493": 225,
        "10494": 18,
        "10495": 190,
        "10496": 149,
        "10497": 184,
        "10498": 227,
        "10499": 159,
        "10500": 30,
        "10501": 16,
        "10502": 156,
        "10503": 58,
        "10504": 65,
        "10505": 158,
        "10506": 57,
        "10507": 58,
        "10508": 253,
        "10509": 136,
        "10510": 244,
        "10511": 190,
        "10512": 16,
        "10513": 122,
        "10514": 201,
        "10515": 118,
        "10516": 101,
        "10517": 208,
        "10518": 243,
        "10519": 140,
        "10520": 151,
        "10521": 103,
        "10522": 158,
        "10523": 204,
        "10524": 185,
        "10525": 225,
        "10526": 135,
        "10527": 75,
        "10528": 185,
        "10529": 162,
        "10530": 50,
        "10531": 163,
        "10532": 78,
        "10533": 226,
        "10534": 34,
        "10535": 29,
        "10536": 108,
        "10537": 192,
        "10538": 14,
        "10539": 151,
        "10540": 65,
        "10541": 7,
        "10542": 84,
        "10543": 96,
        "10544": 28,
        "10545": 17,
        "10546": 226,
        "10547": 225,
        "10548": 119,
        "10549": 249,
        "10550": 146,
        "10551": 90,
        "10552": 157,
        "10553": 142,
        "10554": 66,
        "10555": 244,
        "10556": 251,
        "10557": 92,
        "10558": 149,
        "10559": 26,
        "10560": 164,
        "10561": 122,
        "10562": 150,
        "10563": 159,
        "10564": 134,
        "10565": 252,
        "10566": 230,
        "10567": 168,
        "10568": 96,
        "10569": 202,
        "10570": 120,
        "10571": 130,
        "10572": 63,
        "10573": 109,
        "10574": 148,
        "10575": 97,
        "10576": 222,
        "10577": 85,
        "10578": 104,
        "10579": 77,
        "10580": 63,
        "10581": 176,
        "10582": 195,
        "10583": 162,
        "10584": 167,
        "10585": 253,
        "10586": 104,
        "10587": 22,
        "10588": 203,
        "10589": 123,
        "10590": 220,
        "10591": 148,
        "10592": 187,
        "10593": 213,
        "10594": 205,
        "10595": 100,
        "10596": 120,
        "10597": 46,
        "10598": 73,
        "10599": 53,
        "10600": 120,
        "10601": 11,
        "10602": 101,
        "10603": 95,
        "10604": 150,
        "10605": 32,
        "10606": 253,
        "10607": 45,
        "10608": 124,
        "10609": 140,
        "10610": 100,
        "10611": 58,
        "10612": 112,
        "10613": 1,
        "10614": 197,
        "10615": 223,
        "10616": 100,
        "10617": 224,
        "10618": 116,
        "10619": 117,
        "10620": 77,
        "10621": 122,
        "10622": 153,
        "10623": 211,
        "10624": 150,
        "10625": 11,
        "10626": 116,
        "10627": 133,
        "10628": 217,
        "10629": 222,
        "10630": 96,
        "10631": 222,
        "10632": 132,
        "10633": 213,
        "10634": 27,
        "10635": 150,
        "10636": 0,
        "10637": 24,
        "10638": 197,
        "10639": 14,
        "10640": 54,
        "10641": 100,
        "10642": 206,
        "10643": 66,
        "10644": 47,
        "10645": 162,
        "10646": 17,
        "10647": 191,
        "10648": 86,
        "10649": 185,
        "10650": 205,
        "10651": 177,
        "10652": 73,
        "10653": 184,
        "10654": 211,
        "10655": 5,
        "10656": 184,
        "10657": 156,
        "10658": 114,
        "10659": 150,
        "10660": 99,
        "10661": 244,
        "10662": 74,
        "10663": 154,
        "10664": 7,
        "10665": 206,
        "10666": 133,
        "10667": 213,
        "10668": 198,
        "10669": 29,
        "10670": 90,
        "10671": 218,
        "10672": 96,
        "10673": 132,
        "10674": 113,
        "10675": 85,
        "10676": 19,
        "10677": 26,
        "10678": 212,
        "10679": 186,
        "10680": 88,
        "10681": 199,
        "10682": 83,
        "10683": 187,
        "10684": 88,
        "10685": 83,
        "10686": 81,
        "10687": 123,
        "10688": 61,
        "10689": 173,
        "10690": 251,
        "10691": 81,
        "10692": 40,
        "10693": 188,
        "10694": 223,
        "10695": 86,
        "10696": 178,
        "10697": 141,
        "10698": 3,
        "10699": 24,
        "10700": 176,
        "10701": 76,
        "10702": 199,
        "10703": 86,
        "10704": 131,
        "10705": 104,
        "10706": 187,
        "10707": 165,
        "10708": 140,
        "10709": 4,
        "10710": 252,
        "10711": 68,
        "10712": 61,
        "10713": 240,
        "10714": 100,
        "10715": 141,
        "10716": 58,
        "10717": 55,
        "10718": 42,
        "10719": 72,
        "10720": 152,
        "10721": 163,
        "10722": 217,
        "10723": 222,
        "10724": 101,
        "10725": 87,
        "10726": 103,
        "10727": 219,
        "10728": 118,
        "10729": 248,
        "10730": 51,
        "10731": 237,
        "10732": 245,
        "10733": 114,
        "10734": 137,
        "10735": 47,
        "10736": 7,
        "10737": 63,
        "10738": 255,
        "10739": 151,
        "10740": 189,
        "10741": 129,
        "10742": 49,
        "10743": 177,
        "10744": 129,
        "10745": 102,
        "10746": 17,
        "10747": 220,
        "10748": 38,
        "10749": 142,
        "10750": 116,
        "10751": 54,
        "10752": 165,
        "10753": 40,
        "10754": 194,
        "10755": 186,
        "10756": 92,
        "10757": 96,
        "10758": 251,
        "10759": 25,
        "10760": 2,
        "10761": 197,
        "10762": 227,
        "10763": 232,
        "10764": 29,
        "10765": 29,
        "10766": 69,
        "10767": 187,
        "10768": 108,
        "10769": 164,
        "10770": 54,
        "10771": 223,
        "10772": 14,
        "10773": 115,
        "10774": 113,
        "10775": 160,
        "10776": 35,
        "10777": 82,
        "10778": 101,
        "10779": 255,
        "10780": 26,
        "10781": 37,
        "10782": 221,
        "10783": 65,
        "10784": 74,
        "10785": 168,
        "10786": 185,
        "10787": 217,
        "10788": 224,
        "10789": 21,
        "10790": 84,
        "10791": 64,
        "10792": 211,
        "10793": 3,
        "10794": 202,
        "10795": 165,
        "10796": 80,
        "10797": 201,
        "10798": 89,
        "10799": 235,
        "10800": 31,
        "10801": 118,
        "10802": 194,
        "10803": 203,
        "10804": 118,
        "10805": 199,
        "10806": 191,
        "10807": 172,
        "10808": 62,
        "10809": 66,
        "10810": 26,
        "10811": 64,
        "10812": 123,
        "10813": 98,
        "10814": 37,
        "10815": 46,
        "10816": 176,
        "10817": 22,
        "10818": 177,
        "10819": 203,
        "10820": 115,
        "10821": 205,
        "10822": 38,
        "10823": 13,
        "10824": 51,
        "10825": 19,
        "10826": 139,
        "10827": 137,
        "10828": 15,
        "10829": 230,
        "10830": 145,
        "10831": 191,
        "10832": 194,
        "10833": 98,
        "10834": 83,
        "10835": 1,
        "10836": 233,
        "10837": 102,
        "10838": 57,
        "10839": 58,
        "10840": 61,
        "10841": 209,
        "10842": 197,
        "10843": 190,
        "10844": 146,
        "10845": 175,
        "10846": 183,
        "10847": 64,
        "10848": 128,
        "10849": 177,
        "10850": 216,
        "10851": 136,
        "10852": 178,
        "10853": 88,
        "10854": 140,
        "10855": 188,
        "10856": 72,
        "10857": 114,
        "10858": 74,
        "10859": 238,
        "10860": 40,
        "10861": 220,
        "10862": 5,
        "10863": 195,
        "10864": 189,
        "10865": 226,
        "10866": 180,
        "10867": 239,
        "10868": 253,
        "10869": 168,
        "10870": 125,
        "10871": 168,
        "10872": 173,
        "10873": 14,
        "10874": 138,
        "10875": 6,
        "10876": 52,
        "10877": 177,
        "10878": 110,
        "10879": 153,
        "10880": 95,
        "10881": 172,
        "10882": 142,
        "10883": 172,
        "10884": 42,
        "10885": 5,
        "10886": 125,
        "10887": 134,
        "10888": 205,
        "10889": 203,
        "10890": 61,
        "10891": 81,
        "10892": 186,
        "10893": 64,
        "10894": 134,
        "10895": 128,
        "10896": 103,
        "10897": 120,
        "10898": 9,
        "10899": 216,
        "10900": 251,
        "10901": 33,
        "10902": 218,
        "10903": 16,
        "10904": 26,
        "10905": 112,
        "10906": 221,
        "10907": 47,
        "10908": 250,
        "10909": 235,
        "10910": 128,
        "10911": 9,
        "10912": 149,
        "10913": 106,
        "10914": 12,
        "10915": 86,
        "10916": 182,
        "10917": 60,
        "10918": 23,
        "10919": 196,
        "10920": 84,
        "10921": 8,
        "10922": 67,
        "10923": 39,
        "10924": 200,
        "10925": 172,
        "10926": 117,
        "10927": 80,
        "10928": 121,
        "10929": 175,
        "10930": 164,
        "10931": 171,
        "10932": 14,
        "10933": 30,
        "10934": 92,
        "10935": 135,
        "10936": 160,
        "10937": 31,
        "10938": 204,
        "10939": 248,
        "10940": 123,
        "10941": 23,
        "10942": 39,
        "10943": 119,
        "10944": 52,
        "10945": 77,
        "10946": 11,
        "10947": 31,
        "10948": 147,
        "10949": 22,
        "10950": 252,
        "10951": 185,
        "10952": 218,
        "10953": 73,
        "10954": 201,
        "10955": 191,
        "10956": 49,
        "10957": 164,
        "10958": 102,
        "10959": 251,
        "10960": 166,
        "10961": 211,
        "10962": 161,
        "10963": 46,
        "10964": 34,
        "10965": 239,
        "10966": 225,
        "10967": 7,
        "10968": 162,
        "10969": 14,
        "10970": 131,
        "10971": 186,
        "10972": 84,
        "10973": 34,
        "10974": 131,
        "10975": 127,
        "10976": 26,
        "10977": 50,
        "10978": 231,
        "10979": 0,
        "10980": 140,
        "10981": 143,
        "10982": 205,
        "10983": 230,
        "10984": 151,
        "10985": 57,
        "10986": 213,
        "10987": 243,
        "10988": 174,
        "10989": 4,
        "10990": 132,
        "10991": 207,
        "10992": 90,
        "10993": 239,
        "10994": 152,
        "10995": 45,
        "10996": 50,
        "10997": 81,
        "10998": 69,
        "10999": 242,
        "11000": 72,
        "11001": 137,
        "11002": 27,
        "11003": 197,
        "11004": 210,
        "11005": 232,
        "11006": 136,
        "11007": 55,
        "11008": 118,
        "11009": 208,
        "11010": 190,
        "11011": 193,
        "11012": 224,
        "11013": 218,
        "11014": 119,
        "11015": 101,
        "11016": 121,
        "11017": 98,
        "11018": 111,
        "11019": 179,
        "11020": 109,
        "11021": 15,
        "11022": 131,
        "11023": 25,
        "11024": 43,
        "11025": 25,
        "11026": 169,
        "11027": 140,
        "11028": 181,
        "11029": 248,
        "11030": 51,
        "11031": 72,
        "11032": 44,
        "11033": 44,
        "11034": 32,
        "11035": 175,
        "11036": 225,
        "11037": 19,
        "11038": 128,
        "11039": 23,
        "11040": 196,
        "11041": 67,
        "11042": 238,
        "11043": 157,
        "11044": 232,
        "11045": 239,
        "11046": 52,
        "11047": 239,
        "11048": 161,
        "11049": 1,
        "11050": 237,
        "11051": 94,
        "11052": 245,
        "11053": 136,
        "11054": 200,
        "11055": 234,
        "11056": 44,
        "11057": 222,
        "11058": 174,
        "11059": 182,
        "11060": 115,
        "11061": 7,
        "11062": 81,
        "11063": 106,
        "11064": 241,
        "11065": 210,
        "11066": 231,
        "11067": 170,
        "11068": 180,
        "11069": 161,
        "11070": 98,
        "11071": 220,
        "11072": 210,
        "11073": 199,
        "11074": 151,
        "11075": 189,
        "11076": 245,
        "11077": 197,
        "11078": 175,
        "11079": 53,
        "11080": 12,
        "11081": 197,
        "11082": 239,
        "11083": 57,
        "11084": 184,
        "11085": 139,
        "11086": 88,
        "11087": 93,
        "11088": 245,
        "11089": 197,
        "11090": 32,
        "11091": 76,
        "11092": 26,
        "11093": 4,
        "11094": 232,
        "11095": 94,
        "11096": 198,
        "11097": 10,
        "11098": 179,
        "11099": 69,
        "11100": 110,
        "11101": 255,
        "11102": 137,
        "11103": 94,
        "11104": 246,
        "11105": 244,
        "11106": 105,
        "11107": 70,
        "11108": 44,
        "11109": 108,
        "11110": 124,
        "11111": 107,
        "11112": 198,
        "11113": 247,
        "11114": 211,
        "11115": 163,
        "11116": 196,
        "11117": 47,
        "11118": 245,
        "11119": 192,
        "11120": 96,
        "11121": 59,
        "11122": 210,
        "11123": 65,
        "11124": 235,
        "11125": 135,
        "11126": 92,
        "11127": 25,
        "11128": 234,
        "11129": 231,
        "11130": 125,
        "11131": 9,
        "11132": 207,
        "11133": 46,
        "11134": 18,
        "11135": 164,
        "11136": 254,
        "11137": 71,
        "11138": 141,
        "11139": 50,
        "11140": 100,
        "11141": 204,
        "11142": 187,
        "11143": 235,
        "11144": 211,
        "11145": 114,
        "11146": 25,
        "11147": 205,
        "11148": 124,
        "11149": 4,
        "11150": 237,
        "11151": 188,
        "11152": 127,
        "11153": 178,
        "11154": 162,
        "11155": 36,
        "11156": 179,
        "11157": 120,
        "11158": 172,
        "11159": 207,
        "11160": 161,
        "11161": 157,
        "11162": 229,
        "11163": 45,
        "11164": 111,
        "11165": 5,
        "11166": 73,
        "11167": 41,
        "11168": 181,
        "11169": 161,
        "11170": 24,
        "11171": 254,
        "11172": 219,
        "11173": 20,
        "11174": 232,
        "11175": 105,
        "11176": 176,
        "11177": 81,
        "11178": 83,
        "11179": 39,
        "11180": 172,
        "11181": 172,
        "11182": 120,
        "11183": 139,
        "11184": 216,
        "11185": 144,
        "11186": 200,
        "11187": 179,
        "11188": 48,
        "11189": 80,
        "11190": 255,
        "11191": 181,
        "11192": 19,
        "11193": 215,
        "11194": 91,
        "11195": 60,
        "11196": 106,
        "11197": 249,
        "11198": 31,
        "11199": 218,
        "11200": 232,
        "11201": 59,
        "11202": 243,
        "11203": 186,
        "11204": 22,
        "11205": 52,
        "11206": 153,
        "11207": 248,
        "11208": 104,
        "11209": 41,
        "11210": 221,
        "11211": 79,
        "11212": 119,
        "11213": 149,
        "11214": 123,
        "11215": 114,
        "11216": 24,
        "11217": 185,
        "11218": 159,
        "11219": 38,
        "11220": 229,
        "11221": 188,
        "11222": 225,
        "11223": 14,
        "11224": 96,
        "11225": 87,
        "11226": 251,
        "11227": 88,
        "11228": 157,
        "11229": 104,
        "11230": 32,
        "11231": 160,
        "11232": 232,
        "11233": 201,
        "11234": 121,
        "11235": 176,
        "11236": 172,
        "11237": 6,
        "11238": 67,
        "11239": 148,
        "11240": 157,
        "11241": 245,
        "11242": 6,
        "11243": 198,
        "11244": 149,
        "11245": 84,
        "11246": 86,
        "11247": 122,
        "11248": 111,
        "11249": 127,
        "11250": 192,
        "11251": 135,
        "11252": 248,
        "11253": 53,
        "11254": 61,
        "11255": 55,
        "11256": 142,
        "11257": 102,
        "11258": 46,
        "11259": 122,
        "11260": 10,
        "11261": 56,
        "11262": 76,
        "11263": 181,
        "11264": 20,
        "11265": 17,
        "11266": 78,
        "11267": 209,
        "11268": 238,
        "11269": 126,
        "11270": 175,
        "11271": 237,
        "11272": 225,
        "11273": 5,
        "11274": 121,
        "11275": 150,
        "11276": 245,
        "11277": 162,
        "11278": 20,
        "11279": 110,
        "11280": 60,
        "11281": 165,
        "11282": 247,
        "11283": 232,
        "11284": 166,
        "11285": 83,
        "11286": 227,
        "11287": 84,
        "11288": 95,
        "11289": 26,
        "11290": 133,
        "11291": 253,
        "11292": 150,
        "11293": 252,
        "11294": 243,
        "11295": 122,
        "11296": 132,
        "11297": 11,
        "11298": 59,
        "11299": 223,
        "11300": 74,
        "11301": 233,
        "11302": 150,
        "11303": 41,
        "11304": 175,
        "11305": 92,
        "11306": 67,
        "11307": 39,
        "11308": 52,
        "11309": 87,
        "11310": 145,
        "11311": 93,
        "11312": 191,
        "11313": 234,
        "11314": 17,
        "11315": 211,
        "11316": 125,
        "11317": 65,
        "11318": 29,
        "11319": 0,
        "11320": 156,
        "11321": 233,
        "11322": 170,
        "11323": 192,
        "11324": 55,
        "11325": 55,
        "11326": 40,
        "11327": 36,
        "11328": 132,
        "11329": 110,
        "11330": 115,
        "11331": 144,
        "11332": 19,
        "11333": 120,
        "11334": 91,
        "11335": 188,
        "11336": 214,
        "11337": 46,
        "11338": 109,
        "11339": 3,
        "11340": 215,
        "11341": 186,
        "11342": 67,
        "11343": 32,
        "11344": 137,
        "11345": 206,
        "11346": 79,
        "11347": 241,
        "11348": 37,
        "11349": 244,
        "11350": 141,
        "11351": 182,
        "11352": 168,
        "11353": 210,
        "11354": 209,
        "11355": 29,
        "11356": 87,
        "11357": 190,
        "11358": 152,
        "11359": 237,
        "11360": 164,
        "11361": 50,
        "11362": 219,
        "11363": 236,
        "11364": 34,
        "11365": 37,
        "11366": 149,
        "11367": 222,
        "11368": 142,
        "11369": 182,
        "11370": 85,
        "11371": 100,
        "11372": 57,
        "11373": 137,
        "11374": 229,
        "11375": 62,
        "11376": 117,
        "11377": 173,
        "11378": 199,
        "11379": 33,
        "11380": 203,
        "11381": 183,
        "11382": 186,
        "11383": 196,
        "11384": 173,
        "11385": 119,
        "11386": 66,
        "11387": 153,
        "11388": 223,
        "11389": 10,
        "11390": 92,
        "11391": 81,
        "11392": 102,
        "11393": 214,
        "11394": 45,
        "11395": 182,
        "11396": 182,
        "11397": 28,
        "11398": 89,
        "11399": 195,
        "11400": 127,
        "11401": 187,
        "11402": 191,
        "11403": 228,
        "11404": 178,
        "11405": 69,
        "11406": 221,
        "11407": 68,
        "11408": 187,
        "11409": 122,
        "11410": 169,
        "11411": 23,
        "11412": 160,
        "11413": 231,
        "11414": 137,
        "11415": 111,
        "11416": 3,
        "11417": 55,
        "11418": 238,
        "11419": 106,
        "11420": 31,
        "11421": 44,
        "11422": 143,
        "11423": 68,
        "11424": 192,
        "11425": 155,
        "11426": 54,
        "11427": 70,
        "11428": 214,
        "11429": 150,
        "11430": 217,
        "11431": 38,
        "11432": 252,
        "11433": 216,
        "11434": 119,
        "11435": 64,
        "11436": 59,
        "11437": 10,
        "11438": 198,
        "11439": 182,
        "11440": 0,
        "11441": 243,
        "11442": 103,
        "11443": 202,
        "11444": 208,
        "11445": 32,
        "11446": 34,
        "11447": 13,
        "11448": 159,
        "11449": 132,
        "11450": 68,
        "11451": 123,
        "11452": 103,
        "11453": 43,
        "11454": 109,
        "11455": 66,
        "11456": 47,
        "11457": 130,
        "11458": 213,
        "11459": 171,
        "11460": 36,
        "11461": 181,
        "11462": 11,
        "11463": 28,
        "11464": 126,
        "11465": 86,
        "11466": 61,
        "11467": 52,
        "11468": 220,
        "11469": 144,
        "11470": 133,
        "11471": 11,
        "11472": 117,
        "11473": 17,
        "11474": 161,
        "11475": 23,
        "11476": 43,
        "11477": 251,
        "11478": 191,
        "11479": 144,
        "11480": 237,
        "11481": 237,
        "11482": 42,
        "11483": 68,
        "11484": 58,
        "11485": 233,
        "11486": 167,
        "11487": 53,
        "11488": 233,
        "11489": 86,
        "11490": 157,
        "11491": 162,
        "11492": 32,
        "11493": 152,
        "11494": 97,
        "11495": 133,
        "11496": 231,
        "11497": 116,
        "11498": 167,
        "11499": 244,
        "11500": 18,
        "11501": 31,
        "11502": 132,
        "11503": 203,
        "11504": 61,
        "11505": 100,
        "11506": 94,
        "11507": 234,
        "11508": 190,
        "11509": 82,
        "11510": 220,
        "11511": 122,
        "11512": 210,
        "11513": 49,
        "11514": 222,
        "11515": 197,
        "11516": 208,
        "11517": 229,
        "11518": 96,
        "11519": 54,
        "11520": 38,
        "11521": 82,
        "11522": 53,
        "11523": 101,
        "11524": 13,
        "11525": 120,
        "11526": 24,
        "11527": 30,
        "11528": 243,
        "11529": 133,
        "11530": 149,
        "11531": 4,
        "11532": 241,
        "11533": 116,
        "11534": 197,
        "11535": 130,
        "11536": 172,
        "11537": 5,
        "11538": 64,
        "11539": 64,
        "11540": 143,
        "11541": 250,
        "11542": 86,
        "11543": 74,
        "11544": 146,
        "11545": 77,
        "11546": 253,
        "11547": 24,
        "11548": 197,
        "11549": 64,
        "11550": 238,
        "11551": 109,
        "11552": 34,
        "11553": 135,
        "11554": 90,
        "11555": 73,
        "11556": 149,
        "11557": 45,
        "11558": 253,
        "11559": 66,
        "11560": 32,
        "11561": 37,
        "11562": 49,
        "11563": 179,
        "11564": 49,
        "11565": 126,
        "11566": 67,
        "11567": 245,
        "11568": 213,
        "11569": 152,
        "11570": 56,
        "11571": 245,
        "11572": 76,
        "11573": 151,
        "11574": 246,
        "11575": 249,
        "11576": 168,
        "11577": 42,
        "11578": 196,
        "11579": 251,
        "11580": 39,
        "11581": 194,
        "11582": 186,
        "11583": 127,
        "11584": 188,
        "11585": 116,
        "11586": 178,
        "11587": 78,
        "11588": 90,
        "11589": 220,
        "11590": 187,
        "11591": 215,
        "11592": 238,
        "11593": 132,
        "11594": 93,
        "11595": 199,
        "11596": 6,
        "11597": 192,
        "11598": 76,
        "11599": 151,
        "11600": 147,
        "11601": 154,
        "11602": 168,
        "11603": 84,
        "11604": 185,
        "11605": 51,
        "11606": 193,
        "11607": 135,
        "11608": 143,
        "11609": 211,
        "11610": 40,
        "11611": 113,
        "11612": 153,
        "11613": 84,
        "11614": 10,
        "11615": 91,
        "11616": 209,
        "11617": 34,
        "11618": 100,
        "11619": 230,
        "11620": 224,
        "11621": 131,
        "11622": 81,
        "11623": 187,
        "11624": 222,
        "11625": 118,
        "11626": 149,
        "11627": 247,
        "11628": 186,
        "11629": 125,
        "11630": 146,
        "11631": 73,
        "11632": 67,
        "11633": 196,
        "11634": 109,
        "11635": 163,
        "11636": 236,
        "11637": 120,
        "11638": 139,
        "11639": 122,
        "11640": 154,
        "11641": 123,
        "11642": 92,
        "11643": 4,
        "11644": 50,
        "11645": 222,
        "11646": 189,
        "11647": 237,
        "11648": 58,
        "11649": 41,
        "11650": 216,
        "11651": 14,
        "11652": 235,
        "11653": 82,
        "11654": 103,
        "11655": 152,
        "11656": 180,
        "11657": 186,
        "11658": 174,
        "11659": 84,
        "11660": 29,
        "11661": 174,
        "11662": 206,
        "11663": 248,
        "11664": 120,
        "11665": 206,
        "11666": 78,
        "11667": 91,
        "11668": 216,
        "11669": 58,
        "11670": 29,
        "11671": 205,
        "11672": 97,
        "11673": 135,
        "11674": 18,
        "11675": 42,
        "11676": 152,
        "11677": 35,
        "11678": 213,
        "11679": 95,
        "11680": 105,
        "11681": 153,
        "11682": 155,
        "11683": 245,
        "11684": 112,
        "11685": 206,
        "11686": 58,
        "11687": 229,
        "11688": 20,
        "11689": 160,
        "11690": 74,
        "11691": 94,
        "11692": 221,
        "11693": 2,
        "11694": 13,
        "11695": 242,
        "11696": 147,
        "11697": 218,
        "11698": 138,
        "11699": 97,
        "11700": 222,
        "11701": 206,
        "11702": 105,
        "11703": 173,
        "11704": 4,
        "11705": 141,
        "11706": 155,
        "11707": 209,
        "11708": 134,
        "11709": 144,
        "11710": 159,
        "11711": 177,
        "11712": 132,
        "11713": 22,
        "11714": 59,
        "11715": 221,
        "11716": 166,
        "11717": 201,
        "11718": 105,
        "11719": 60,
        "11720": 149,
        "11721": 40,
        "11722": 21,
        "11723": 56,
        "11724": 60,
        "11725": 71,
        "11726": 5,
        "11727": 124,
        "11728": 173,
        "11729": 179,
        "11730": 101,
        "11731": 40,
        "11732": 244,
        "11733": 49,
        "11734": 79,
        "11735": 177,
        "11736": 6,
        "11737": 161,
        "11738": 198,
        "11739": 251,
        "11740": 118,
        "11741": 10,
        "11742": 45,
        "11743": 155,
        "11744": 241,
        "11745": 73,
        "11746": 196,
        "11747": 73,
        "11748": 83,
        "11749": 178,
        "11750": 37,
        "11751": 217,
        "11752": 12,
        "11753": 66,
        "11754": 226,
        "11755": 67,
        "11756": 69,
        "11757": 170,
        "11758": 105,
        "11759": 175,
        "11760": 37,
        "11761": 220,
        "11762": 87,
        "11763": 210,
        "11764": 244,
        "11765": 161,
        "11766": 22,
        "11767": 164,
        "11768": 7,
        "11769": 149,
        "11770": 131,
        "11771": 19,
        "11772": 88,
        "11773": 213,
        "11774": 145,
        "11775": 118,
        "11776": 168,
        "11777": 237,
        "11778": 219,
        "11779": 164,
        "11780": 37,
        "11781": 18,
        "11782": 224,
        "11783": 180,
        "11784": 212,
        "11785": 176,
        "11786": 33,
        "11787": 114,
        "11788": 203,
        "11789": 127,
        "11790": 118,
        "11791": 167,
        "11792": 185,
        "11793": 160,
        "11794": 242,
        "11795": 225,
        "11796": 41,
        "11797": 255,
        "11798": 71,
        "11799": 57,
        "11800": 186,
        "11801": 113,
        "11802": 181,
        "11803": 64,
        "11804": 135,
        "11805": 177,
        "11806": 110,
        "11807": 109,
        "11808": 224,
        "11809": 31,
        "11810": 172,
        "11811": 30,
        "11812": 76,
        "11813": 72,
        "11814": 55,
        "11815": 37,
        "11816": 60,
        "11817": 76,
        "11818": 13,
        "11819": 237,
        "11820": 178,
        "11821": 93,
        "11822": 78,
        "11823": 108,
        "11824": 112,
        "11825": 81,
        "11826": 24,
        "11827": 177,
        "11828": 78,
        "11829": 170,
        "11830": 219,
        "11831": 147,
        "11832": 102,
        "11833": 244,
        "11834": 195,
        "11835": 152,
        "11836": 123,
        "11837": 83,
        "11838": 103,
        "11839": 97,
        "11840": 179,
        "11841": 96,
        "11842": 162,
        "11843": 23,
        "11844": 13,
        "11845": 122,
        "11846": 55,
        "11847": 88,
        "11848": 58,
        "11849": 195,
        "11850": 66,
        "11851": 146,
        "11852": 240,
        "11853": 193,
        "11854": 227,
        "11855": 105,
        "11856": 46,
        "11857": 80,
        "11858": 30,
        "11859": 119,
        "11860": 207,
        "11861": 145,
        "11862": 247,
        "11863": 226,
        "11864": 8,
        "11865": 89,
        "11866": 139,
        "11867": 183,
        "11868": 134,
        "11869": 2,
        "11870": 36,
        "11871": 96,
        "11872": 157,
        "11873": 141,
        "11874": 213,
        "11875": 59,
        "11876": 66,
        "11877": 88,
        "11878": 243,
        "11879": 140,
        "11880": 44,
        "11881": 202,
        "11882": 26,
        "11883": 61,
        "11884": 133,
        "11885": 98,
        "11886": 38,
        "11887": 239,
        "11888": 147,
        "11889": 210,
        "11890": 229,
        "11891": 18,
        "11892": 128,
        "11893": 219,
        "11894": 243,
        "11895": 147,
        "11896": 208,
        "11897": 192,
        "11898": 202,
        "11899": 13,
        "11900": 43,
        "11901": 167,
        "11902": 177,
        "11903": 210,
        "11904": 248,
        "11905": 143,
        "11906": 36,
        "11907": 84,
        "11908": 41,
        "11909": 121,
        "11910": 105,
        "11911": 221,
        "11912": 186,
        "11913": 101,
        "11914": 43,
        "11915": 164,
        "11916": 235,
        "11917": 237,
        "11918": 191,
        "11919": 164,
        "11920": 96,
        "11921": 211,
        "11922": 21,
        "11923": 158,
        "11924": 23,
        "11925": 92,
        "11926": 43,
        "11927": 237,
        "11928": 169,
        "11929": 117,
        "11930": 202,
        "11931": 231,
        "11932": 151,
        "11933": 243,
        "11934": 236,
        "11935": 237,
        "11936": 9,
        "11937": 57,
        "11938": 223,
        "11939": 233,
        "11940": 72,
        "11941": 57,
        "11942": 93,
        "11943": 153,
        "11944": 36,
        "11945": 168,
        "11946": 243,
        "11947": 160,
        "11948": 85,
        "11949": 255,
        "11950": 47,
        "11951": 162,
        "11952": 240,
        "11953": 161,
        "11954": 222,
        "11955": 206,
        "11956": 191,
        "11957": 193,
        "11958": 166,
        "11959": 89,
        "11960": 249,
        "11961": 218,
        "11962": 238,
        "11963": 44,
        "11964": 189,
        "11965": 205,
        "11966": 167,
        "11967": 93,
        "11968": 213,
        "11969": 91,
        "11970": 142,
        "11971": 249,
        "11972": 173,
        "11973": 5,
        "11974": 163,
        "11975": 143,
        "11976": 21,
        "11977": 217,
        "11978": 8,
        "11979": 44,
        "11980": 243,
        "11981": 205,
        "11982": 7,
        "11983": 175,
        "11984": 157,
        "11985": 112,
        "11986": 146,
        "11987": 43,
        "11988": 34,
        "11989": 124,
        "11990": 27,
        "11991": 60,
        "11992": 5,
        "11993": 104,
        "11994": 208,
        "11995": 71,
        "11996": 225,
        "11997": 74,
        "11998": 152,
        "11999": 6,
        "12000": 152,
        "12001": 101,
        "12002": 235,
        "12003": 101,
        "12004": 149,
        "12005": 108,
        "12006": 171,
        "12007": 184,
        "12008": 199,
        "12009": 186,
        "12010": 55,
        "12011": 228,
        "12012": 20,
        "12013": 127,
        "12014": 214,
        "12015": 150,
        "12016": 22,
        "12017": 147,
        "12018": 131,
        "12019": 92,
        "12020": 162,
        "12021": 152,
        "12022": 14,
        "12023": 70,
        "12024": 254,
        "12025": 251,
        "12026": 238,
        "12027": 10,
        "12028": 235,
        "12029": 166,
        "12030": 178,
        "12031": 191,
        "12032": 89,
        "12033": 125,
        "12034": 46,
        "12035": 244,
        "12036": 227,
        "12037": 188,
        "12038": 192,
        "12039": 250,
        "12040": 208,
        "12041": 243,
        "12042": 84,
        "12043": 158,
        "12044": 245,
        "12045": 154,
        "12046": 249,
        "12047": 220,
        "12048": 92,
        "12049": 110,
        "12050": 126,
        "12051": 198,
        "12052": 112,
        "12053": 49,
        "12054": 191,
        "12055": 142,
        "12056": 145,
        "12057": 196,
        "12058": 189,
        "12059": 182,
        "12060": 66,
        "12061": 157,
        "12062": 173,
        "12063": 219,
        "12064": 219,
        "12065": 88,
        "12066": 190,
        "12067": 80,
        "12068": 243,
        "12069": 218,
        "12070": 54,
        "12071": 233,
        "12072": 197,
        "12073": 244,
        "12074": 38,
        "12075": 208,
        "12076": 64,
        "12077": 197,
        "12078": 142,
        "12079": 128,
        "12080": 189,
        "12081": 162,
        "12082": 111,
        "12083": 127,
        "12084": 233,
        "12085": 42,
        "12086": 255,
        "12087": 137,
        "12088": 122,
        "12089": 165,
        "12090": 106,
        "12091": 243,
        "12092": 61,
        "12093": 185,
        "12094": 194,
        "12095": 53,
        "12096": 183,
        "12097": 147,
        "12098": 82,
        "12099": 117,
        "12100": 79,
        "12101": 110,
        "12102": 197,
        "12103": 224,
        "12104": 25,
        "12105": 54,
        "12106": 238,
        "12107": 0,
        "12108": 32,
        "12109": 85,
        "12110": 249,
        "12111": 24,
        "12112": 31,
        "12113": 83,
        "12114": 123,
        "12115": 203,
        "12116": 114,
        "12117": 70,
        "12118": 237,
        "12119": 192,
        "12120": 39,
        "12121": 35,
        "12122": 157,
        "12123": 1,
        "12124": 226,
        "12125": 2,
        "12126": 128,
        "12127": 0,
        "12128": 87,
        "12129": 133,
        "12130": 132,
        "12131": 252,
        "12132": 60,
        "12133": 58,
        "12134": 41,
        "12135": 253,
        "12136": 100,
        "12137": 76,
        "12138": 94,
        "12139": 203,
        "12140": 83,
        "12141": 97,
        "12142": 11,
        "12143": 191,
        "12144": 141,
        "12145": 10,
        "12146": 247,
        "12147": 253,
        "12148": 27,
        "12149": 227,
        "12150": 89,
        "12151": 73,
        "12152": 92,
        "12153": 112,
        "12154": 191,
        "12155": 248,
        "12156": 50,
        "12157": 218,
        "12158": 93,
        "12159": 131,
        "12160": 20,
        "12161": 157,
        "12162": 102,
        "12163": 246,
        "12164": 138,
        "12165": 230,
        "12166": 67,
        "12167": 160,
        "12168": 89,
        "12169": 101,
        "12170": 191,
        "12171": 98,
        "12172": 137,
        "12173": 156,
        "12174": 150,
        "12175": 195,
        "12176": 108,
        "12177": 170,
        "12178": 124,
        "12179": 21,
        "12180": 36,
        "12181": 217,
        "12182": 232,
        "12183": 233,
        "12184": 85,
        "12185": 30,
        "12186": 148,
        "12187": 15,
        "12188": 242,
        "12189": 229,
        "12190": 157,
        "12191": 232,
        "12192": 198,
        "12193": 160,
        "12194": 219,
        "12195": 161,
        "12196": 101,
        "12197": 223,
        "12198": 149,
        "12199": 44,
        "12200": 198,
        "12201": 125,
        "12202": 252,
        "12203": 40,
        "12204": 26,
        "12205": 241,
        "12206": 128,
        "12207": 116,
        "12208": 23,
        "12209": 74,
        "12210": 213,
        "12211": 238,
        "12212": 144,
        "12213": 224,
        "12214": 119,
        "12215": 174,
        "12216": 108,
        "12217": 209,
        "12218": 11,
        "12219": 20,
        "12220": 244,
        "12221": 40,
        "12222": 32,
        "12223": 187,
        "12224": 117,
        "12225": 179,
        "12226": 208,
        "12227": 92,
        "12228": 250,
        "12229": 89,
        "12230": 79,
        "12231": 223,
        "12232": 254,
        "12233": 149,
        "12234": 240,
        "12235": 75,
        "12236": 55,
        "12237": 156,
        "12238": 167,
        "12239": 250,
        "12240": 246,
        "12241": 129,
        "12242": 80,
        "12243": 179,
        "12244": 21,
        "12245": 239,
        "12246": 141,
        "12247": 139,
        "12248": 84,
        "12249": 40,
        "12250": 68,
        "12251": 114,
        "12252": 186,
        "12253": 145,
        "12254": 187,
        "12255": 41,
        "12256": 215,
        "12257": 228,
        "12258": 215,
        "12259": 177,
        "12260": 113,
        "12261": 9,
        "12262": 31,
        "12263": 189,
        "12264": 94,
        "12265": 177,
        "12266": 9,
        "12267": 166,
        "12268": 197,
        "12269": 92,
        "12270": 103,
        "12271": 210,
        "12272": 203,
        "12273": 97,
        "12274": 35,
        "12275": 136,
        "12276": 22,
        "12277": 136,
        "12278": 233,
        "12279": 34,
        "12280": 95,
        "12281": 141,
        "12282": 167,
        "12283": 192,
        "12284": 12,
        "12285": 97,
        "12286": 211,
        "12287": 143,
        "12288": 108,
        "12289": 167,
        "12290": 180,
        "12291": 20,
        "12292": 212,
        "12293": 90,
        "12294": 127,
        "12295": 160,
        "12296": 25,
        "12297": 245,
        "12298": 150,
        "12299": 219,
        "12300": 237,
        "12301": 141,
        "12302": 124,
        "12303": 162,
        "12304": 194,
        "12305": 244,
        "12306": 155,
        "12307": 28,
        "12308": 104,
        "12309": 77,
        "12310": 173,
        "12311": 185,
        "12312": 196,
        "12313": 179,
        "12314": 102,
        "12315": 228,
        "12316": 53,
        "12317": 70,
        "12318": 35,
        "12319": 59,
        "12320": 229,
        "12321": 219,
        "12322": 37,
        "12323": 202,
        "12324": 154,
        "12325": 99,
        "12326": 186,
        "12327": 170,
        "12328": 107,
        "12329": 3,
        "12330": 29,
        "12331": 60,
        "12332": 101,
        "12333": 3,
        "12334": 203,
        "12335": 143,
        "12336": 216,
        "12337": 96,
        "12338": 133,
        "12339": 191,
        "12340": 246,
        "12341": 239,
        "12342": 106,
        "12343": 88,
        "12344": 62,
        "12345": 104,
        "12346": 32,
        "12347": 236,
        "12348": 105,
        "12349": 238,
        "12350": 195,
        "12351": 170,
        "12352": 112,
        "12353": 92,
        "12354": 133,
        "12355": 86,
        "12356": 216,
        "12357": 125,
        "12358": 246,
        "12359": 232,
        "12360": 101,
        "12361": 165,
        "12362": 126,
        "12363": 104,
        "12364": 179,
        "12365": 179,
        "12366": 110,
        "12367": 192,
        "12368": 188,
        "12369": 42,
        "12370": 234,
        "12371": 90,
        "12372": 249,
        "12373": 226,
        "12374": 180,
        "12375": 212,
        "12376": 217,
        "12377": 199,
        "12378": 219,
        "12379": 201,
        "12380": 139,
        "12381": 199,
        "12382": 10,
        "12383": 29,
        "12384": 30,
        "12385": 156,
        "12386": 14,
        "12387": 199,
        "12388": 26,
        "12389": 93,
        "12390": 63,
        "12391": 28,
        "12392": 181,
        "12393": 252,
        "12394": 74,
        "12395": 184,
        "12396": 43,
        "12397": 118,
        "12398": 166,
        "12399": 174,
        "12400": 164,
        "12401": 165,
        "12402": 2,
        "12403": 124,
        "12404": 142,
        "12405": 63,
        "12406": 153,
        "12407": 109,
        "12408": 207,
        "12409": 195,
        "12410": 69,
        "12411": 19,
        "12412": 113,
        "12413": 17,
        "12414": 183,
        "12415": 68,
        "12416": 24,
        "12417": 204,
        "12418": 133,
        "12419": 32,
        "12420": 115,
        "12421": 70,
        "12422": 151,
        "12423": 98,
        "12424": 255,
        "12425": 19,
        "12426": 227,
        "12427": 132,
        "12428": 84,
        "12429": 4,
        "12430": 104,
        "12431": 129,
        "12432": 237,
        "12433": 158,
        "12434": 126,
        "12435": 198,
        "12436": 44,
        "12437": 49,
        "12438": 234,
        "12439": 239,
        "12440": 135,
        "12441": 20,
        "12442": 222,
        "12443": 40,
        "12444": 46,
        "12445": 41,
        "12446": 76,
        "12447": 107,
        "12448": 45,
        "12449": 158,
        "12450": 249,
        "12451": 6,
        "12452": 159,
        "12453": 220,
        "12454": 61,
        "12455": 93,
        "12456": 181,
        "12457": 59,
        "12458": 115,
        "12459": 67,
        "12460": 34,
        "12461": 178,
        "12462": 240,
        "12463": 76,
        "12464": 104,
        "12465": 223,
        "12466": 145,
        "12467": 226,
        "12468": 247,
        "12469": 177,
        "12470": 101,
        "12471": 88,
        "12472": 254,
        "12473": 59,
        "12474": 62,
        "12475": 101,
        "12476": 35,
        "12477": 146,
        "12478": 11,
        "12479": 63,
        "12480": 67,
        "12481": 185,
        "12482": 227,
        "12483": 244,
        "12484": 187,
        "12485": 145,
        "12486": 229,
        "12487": 211,
        "12488": 76,
        "12489": 228,
        "12490": 83,
        "12491": 246,
        "12492": 205,
        "12493": 150,
        "12494": 215,
        "12495": 98,
        "12496": 40,
        "12497": 206,
        "12498": 6,
        "12499": 72,
        "12500": 66,
        "12501": 233,
        "12502": 77,
        "12503": 50,
        "12504": 122,
        "12505": 24,
        "12506": 102,
        "12507": 155,
        "12508": 152,
        "12509": 160,
        "12510": 103,
        "12511": 116,
        "12512": 123,
        "12513": 208,
        "12514": 199,
        "12515": 223,
        "12516": 97,
        "12517": 7,
        "12518": 93,
        "12519": 89,
        "12520": 78,
        "12521": 222,
        "12522": 86,
        "12523": 125,
        "12524": 13,
        "12525": 122,
        "12526": 241,
        "12527": 198,
        "12528": 60,
        "12529": 107,
        "12530": 139,
        "12531": 188,
        "12532": 113,
        "12533": 177,
        "12534": 177,
        "12535": 158,
        "12536": 204,
        "12537": 142,
        "12538": 59,
        "12539": 219,
        "12540": 64,
        "12541": 202,
        "12542": 21,
        "12543": 34,
        "12544": 215,
        "12545": 112,
        "12546": 107,
        "12547": 21,
        "12548": 204,
        "12549": 133,
        "12550": 93,
        "12551": 10,
        "12552": 188,
        "12553": 105,
        "12554": 16,
        "12555": 222,
        "12556": 6,
        "12557": 210,
        "12558": 195,
        "12559": 143,
        "12560": 132,
        "12561": 139,
        "12562": 149,
        "12563": 150,
        "12564": 211,
        "12565": 72,
        "12566": 28,
        "12567": 164,
        "12568": 51,
        "12569": 165,
        "12570": 249,
        "12571": 46,
        "12572": 100,
        "12573": 221,
        "12574": 76,
        "12575": 120,
        "12576": 253,
        "12577": 29,
        "12578": 11,
        "12579": 153,
        "12580": 180,
        "12581": 129,
        "12582": 38,
        "12583": 214,
        "12584": 142,
        "12585": 118,
        "12586": 80,
        "12587": 46,
        "12588": 219,
        "12589": 195,
        "12590": 205,
        "12591": 0,
        "12592": 108,
        "12593": 188,
        "12594": 104,
        "12595": 77,
        "12596": 58,
        "12597": 33,
        "12598": 167,
        "12599": 96,
        "12600": 138,
        "12601": 128,
        "12602": 122,
        "12603": 231,
        "12604": 64,
        "12605": 151,
        "12606": 214,
        "12607": 28,
        "12608": 41,
        "12609": 158,
        "12610": 95,
        "12611": 94,
        "12612": 214,
        "12613": 75,
        "12614": 78,
        "12615": 209,
        "12616": 237,
        "12617": 2,
        "12618": 62,
        "12619": 25,
        "12620": 143,
        "12621": 35,
        "12622": 243,
        "12623": 139,
        "12624": 131,
        "12625": 161,
        "12626": 86,
        "12627": 246,
        "12628": 167,
        "12629": 197,
        "12630": 173,
        "12631": 227,
        "12632": 217,
        "12633": 25,
        "12634": 131,
        "12635": 224,
        "12636": 9,
        "12637": 77,
        "12638": 167,
        "12639": 38,
        "12640": 230,
        "12641": 147,
        "12642": 45,
        "12643": 206,
        "12644": 242,
        "12645": 189,
        "12646": 47,
        "12647": 254,
        "12648": 35,
        "12649": 33,
        "12650": 189,
        "12651": 27,
        "12652": 8,
        "12653": 64,
        "12654": 253,
        "12655": 86,
        "12656": 210,
        "12657": 119,
        "12658": 245,
        "12659": 137,
        "12660": 195,
        "12661": 155,
        "12662": 141,
        "12663": 74,
        "12664": 226,
        "12665": 245,
        "12666": 86,
        "12667": 213,
        "12668": 78,
        "12669": 81,
        "12670": 54,
        "12671": 16,
        "12672": 245,
        "12673": 5,
        "12674": 103,
        "12675": 3,
        "12676": 214,
        "12677": 146,
        "12678": 174,
        "12679": 220,
        "12680": 122,
        "12681": 26,
        "12682": 114,
        "12683": 128,
        "12684": 212,
        "12685": 86,
        "12686": 104,
        "12687": 130,
        "12688": 84,
        "12689": 11,
        "12690": 70,
        "12691": 118,
        "12692": 25,
        "12693": 198,
        "12694": 8,
        "12695": 110,
        "12696": 0,
        "12697": 94,
        "12698": 115,
        "12699": 60,
        "12700": 126,
        "12701": 144,
        "12702": 119,
        "12703": 248,
        "12704": 76,
        "12705": 217,
        "12706": 190,
        "12707": 66,
        "12708": 153,
        "12709": 189,
        "12710": 155,
        "12711": 138,
        "12712": 255,
        "12713": 159,
        "12714": 166,
        "12715": 193,
        "12716": 254,
        "12717": 165,
        "12718": 41,
        "12719": 140,
        "12720": 194,
        "12721": 212,
        "12722": 52,
        "12723": 155,
        "12724": 243,
        "12725": 9,
        "12726": 130,
        "12727": 108,
        "12728": 126,
        "12729": 77,
        "12730": 133,
        "12731": 252,
        "12732": 179,
        "12733": 204,
        "12734": 210,
        "12735": 10,
        "12736": 36,
        "12737": 30,
        "12738": 242,
        "12739": 41,
        "12740": 88,
        "12741": 194,
        "12742": 13,
        "12743": 102,
        "12744": 17,
        "12745": 144,
        "12746": 45,
        "12747": 90,
        "12748": 203,
        "12749": 143,
        "12750": 0,
        "12751": 228,
        "12752": 147,
        "12753": 228,
        "12754": 20,
        "12755": 20,
        "12756": 125,
        "12757": 11,
        "12758": 24,
        "12759": 36,
        "12760": 191,
        "12761": 72,
        "12762": 7,
        "12763": 250,
        "12764": 93,
        "12765": 232,
        "12766": 221,
        "12767": 243,
        "12768": 65,
        "12769": 120,
        "12770": 171,
        "12771": 195,
        "12772": 184,
        "12773": 79,
        "12774": 155,
        "12775": 188,
        "12776": 156,
        "12777": 198,
        "12778": 21,
        "12779": 188,
        "12780": 100,
        "12781": 36,
        "12782": 30,
        "12783": 226,
        "12784": 41,
        "12785": 68,
        "12786": 245,
        "12787": 216,
        "12788": 208,
        "12789": 25,
        "12790": 124,
        "12791": 76,
        "12792": 34,
        "12793": 16,
        "12794": 93,
        "12795": 95,
        "12796": 245,
        "12797": 123,
        "12798": 142,
        "12799": 240,
        "12800": 86,
        "12801": 116,
        "12802": 183,
        "12803": 113,
        "12804": 233,
        "12805": 20,
        "12806": 211,
        "12807": 103,
        "12808": 239,
        "12809": 64,
        "12810": 9,
        "12811": 83,
        "12812": 92,
        "12813": 86,
        "12814": 140,
        "12815": 85,
        "12816": 31,
        "12817": 245,
        "12818": 56,
        "12819": 122,
        "12820": 170,
        "12821": 198,
        "12822": 180,
        "12823": 203,
        "12824": 157,
        "12825": 47,
        "12826": 190,
        "12827": 217,
        "12828": 207,
        "12829": 99,
        "12830": 33,
        "12831": 225,
        "12832": 88,
        "12833": 161,
        "12834": 187,
        "12835": 37,
        "12836": 245,
        "12837": 176,
        "12838": 85,
        "12839": 233,
        "12840": 248,
        "12841": 128,
        "12842": 243,
        "12843": 233,
        "12844": 87,
        "12845": 203,
        "12846": 115,
        "12847": 83,
        "12848": 216,
        "12849": 107,
        "12850": 154,
        "12851": 36,
        "12852": 222,
        "12853": 62,
        "12854": 11,
        "12855": 56,
        "12856": 72,
        "12857": 201,
        "12858": 89,
        "12859": 123,
        "12860": 98,
        "12861": 0,
        "12862": 73,
        "12863": 82,
        "12864": 71,
        "12865": 225,
        "12866": 44,
        "12867": 176,
        "12868": 22,
        "12869": 159,
        "12870": 211,
        "12871": 13,
        "12872": 205,
        "12873": 94,
        "12874": 37,
        "12875": 11,
        "12876": 165,
        "12877": 59,
        "12878": 50,
        "12879": 162,
        "12880": 222,
        "12881": 111,
        "12882": 123,
        "12883": 90,
        "12884": 69,
        "12885": 219,
        "12886": 41,
        "12887": 73,
        "12888": 89,
        "12889": 212,
        "12890": 128,
        "12891": 245,
        "12892": 76,
        "12893": 82,
        "12894": 28,
        "12895": 236,
        "12896": 53,
        "12897": 202,
        "12898": 253,
        "12899": 246,
        "12900": 188,
        "12901": 22,
        "12902": 151,
        "12903": 130,
        "12904": 137,
        "12905": 71,
        "12906": 71,
        "12907": 73,
        "12908": 89,
        "12909": 151,
        "12910": 109,
        "12911": 87,
        "12912": 141,
        "12913": 230,
        "12914": 50,
        "12915": 31,
        "12916": 177,
        "12917": 132,
        "12918": 4,
        "12919": 214,
        "12920": 237,
        "12921": 7,
        "12922": 72,
        "12923": 118,
        "12924": 77,
        "12925": 96,
        "12926": 68,
        "12927": 241,
        "12928": 86,
        "12929": 245,
        "12930": 2,
        "12931": 7,
        "12932": 67,
        "12933": 207,
        "12934": 202,
        "12935": 42,
        "12936": 134,
        "12937": 12,
        "12938": 34,
        "12939": 27,
        "12940": 134,
        "12941": 39,
        "12942": 118,
        "12943": 213,
        "12944": 195,
        "12945": 134,
        "12946": 230,
        "12947": 31,
        "12948": 200,
        "12949": 249,
        "12950": 205,
        "12951": 128,
        "12952": 169,
        "12953": 166,
        "12954": 156,
        "12955": 120,
        "12956": 246,
        "12957": 60,
        "12958": 163,
        "12959": 83,
        "12960": 8,
        "12961": 76,
        "12962": 52,
        "12963": 248,
        "12964": 71,
        "12965": 214,
        "12966": 207,
        "12967": 198,
        "12968": 153,
        "12969": 9,
        "12970": 189,
        "12971": 239,
        "12972": 93,
        "12973": 139,
        "12974": 221,
        "12975": 217,
        "12976": 210,
        "12977": 106,
        "12978": 135,
        "12979": 73,
        "12980": 65,
        "12981": 73,
        "12982": 16,
        "12983": 2,
        "12984": 134,
        "12985": 146,
        "12986": 99,
        "12987": 203,
        "12988": 210,
        "12989": 87,
        "12990": 110,
        "12991": 208,
        "12992": 194,
        "12993": 6,
        "12994": 143,
        "12995": 171,
        "12996": 226,
        "12997": 205,
        "12998": 41,
        "12999": 107,
        "13000": 223,
        "13001": 30,
        "13002": 86,
        "13003": 241,
        "13004": 119,
        "13005": 127,
        "13006": 148,
        "13007": 148,
        "13008": 54,
        "13009": 208,
        "13010": 183,
        "13011": 22,
        "13012": 251,
        "13013": 155,
        "13014": 22,
        "13015": 31,
        "13016": 125,
        "13017": 43,
        "13018": 5,
        "13019": 231,
        "13020": 235,
        "13021": 125,
        "13022": 85,
        "13023": 184,
        "13024": 94,
        "13025": 156,
        "13026": 26,
        "13027": 109,
        "13028": 23,
        "13029": 42,
        "13030": 255,
        "13031": 108,
        "13032": 84,
        "13033": 125,
        "13034": 60,
        "13035": 16,
        "13036": 132,
        "13037": 199,
        "13038": 235,
        "13039": 1,
        "13040": 30,
        "13041": 104,
        "13042": 65,
        "13043": 32,
        "13044": 28,
        "13045": 229,
        "13046": 40,
        "13047": 24,
        "13048": 89,
        "13049": 140,
        "13050": 24,
        "13051": 173,
        "13052": 238,
        "13053": 124,
        "13054": 197,
        "13055": 111,
        "13056": 165,
        "13057": 83,
        "13058": 21,
        "13059": 150,
        "13060": 78,
        "13061": 36,
        "13062": 117,
        "13063": 126,
        "13064": 254,
        "13065": 196,
        "13066": 252,
        "13067": 219,
        "13068": 112,
        "13069": 25,
        "13070": 36,
        "13071": 2,
        "13072": 47,
        "13073": 57,
        "13074": 240,
        "13075": 34,
        "13076": 173,
        "13077": 8,
        "13078": 219,
        "13079": 200,
        "13080": 36,
        "13081": 56,
        "13082": 159,
        "13083": 1,
        "13084": 123,
        "13085": 48,
        "13086": 2,
        "13087": 227,
        "13088": 90,
        "13089": 20,
        "13090": 54,
        "13091": 79,
        "13092": 196,
        "13093": 181,
        "13094": 70,
        "13095": 242,
        "13096": 144,
        "13097": 196,
        "13098": 161,
        "13099": 2,
        "13100": 74,
        "13101": 33,
        "13102": 76,
        "13103": 86,
        "13104": 11,
        "13105": 16,
        "13106": 127,
        "13107": 124,
        "13108": 51,
        "13109": 249,
        "13110": 162,
        "13111": 151,
        "13112": 88,
        "13113": 181,
        "13114": 70,
        "13115": 45,
        "13116": 120,
        "13117": 166,
        "13118": 40,
        "13119": 10,
        "13120": 182,
        "13121": 2,
        "13122": 61,
        "13123": 202,
        "13124": 195,
        "13125": 239,
        "13126": 83,
        "13127": 78,
        "13128": 226,
        "13129": 136,
        "13130": 147,
        "13131": 249,
        "13132": 48,
        "13133": 30,
        "13134": 143,
        "13135": 144,
        "13136": 214,
        "13137": 113,
        "13138": 253,
        "13139": 83,
        "13140": 179,
        "13141": 154,
        "13142": 17,
        "13143": 54,
        "13144": 66,
        "13145": 14,
        "13146": 58,
        "13147": 240,
        "13148": 20,
        "13149": 233,
        "13150": 111,
        "13151": 235,
        "13152": 201,
        "13153": 121,
        "13154": 177,
        "13155": 170,
        "13156": 129,
        "13157": 95,
        "13158": 157,
        "13159": 17,
        "13160": 150,
        "13161": 7,
        "13162": 42,
        "13163": 35,
        "13164": 9,
        "13165": 215,
        "13166": 118,
        "13167": 44,
        "13168": 98,
        "13169": 79,
        "13170": 144,
        "13171": 239,
        "13172": 2,
        "13173": 227,
        "13174": 9,
        "13175": 4,
        "13176": 222,
        "13177": 150,
        "13178": 4,
        "13179": 165,
        "13180": 84,
        "13181": 157,
        "13182": 43,
        "13183": 188,
        "13184": 186,
        "13185": 40,
        "13186": 229,
        "13187": 233,
        "13188": 36,
        "13189": 168,
        "13190": 48,
        "13191": 64,
        "13192": 224,
        "13193": 141,
        "13194": 53,
        "13195": 238,
        "13196": 41,
        "13197": 10,
        "13198": 101,
        "13199": 52,
        "13200": 243,
        "13201": 10,
        "13202": 111,
        "13203": 177,
        "13204": 140,
        "13205": 221,
        "13206": 50,
        "13207": 150,
        "13208": 230,
        "13209": 205,
        "13210": 252,
        "13211": 108,
        "13212": 69,
        "13213": 194,
        "13214": 11,
        "13215": 131,
        "13216": 222,
        "13217": 189,
        "13218": 25,
        "13219": 242,
        "13220": 182,
        "13221": 144,
        "13222": 153,
        "13223": 208,
        "13224": 4,
        "13225": 152,
        "13226": 174,
        "13227": 181,
        "13228": 81,
        "13229": 63,
        "13230": 75,
        "13231": 17,
        "13232": 38,
        "13233": 96,
        "13234": 75,
        "13235": 71,
        "13236": 176,
        "13237": 217,
        "13238": 239,
        "13239": 97,
        "13240": 75,
        "13241": 201,
        "13242": 215,
        "13243": 3,
        "13244": 78,
        "13245": 76,
        "13246": 110,
        "13247": 129,
        "13248": 42,
        "13249": 234,
        "13250": 0,
        "13251": 239,
        "13252": 57,
        "13253": 39,
        "13254": 150,
        "13255": 125,
        "13256": 226,
        "13257": 61,
        "13258": 18,
        "13259": 88,
        "13260": 171,
        "13261": 242,
        "13262": 83,
        "13263": 162,
        "13264": 62,
        "13265": 172,
        "13266": 191,
        "13267": 91,
        "13268": 164,
        "13269": 221,
        "13270": 125,
        "13271": 58,
        "13272": 52,
        "13273": 82,
        "13274": 65,
        "13275": 71,
        "13276": 43,
        "13277": 102,
        "13278": 37,
        "13279": 216,
        "13280": 41,
        "13281": 230,
        "13282": 226,
        "13283": 59,
        "13284": 104,
        "13285": 125,
        "13286": 87,
        "13287": 237,
        "13288": 54,
        "13289": 6,
        "13290": 102,
        "13291": 203,
        "13292": 144,
        "13293": 198,
        "13294": 202,
        "13295": 38,
        "13296": 191,
        "13297": 124,
        "13298": 82,
        "13299": 170,
        "13300": 113,
        "13301": 107,
        "13302": 171,
        "13303": 51,
        "13304": 122,
        "13305": 195,
        "13306": 53,
        "13307": 78,
        "13308": 55,
        "13309": 65,
        "13310": 226,
        "13311": 71,
        "13312": 43,
        "13313": 205,
        "13314": 235,
        "13315": 194,
        "13316": 66,
        "13317": 122,
        "13318": 194,
        "13319": 48,
        "13320": 222,
        "13321": 2,
        "13322": 219,
        "13323": 147,
        "13324": 57,
        "13325": 157,
        "13326": 165,
        "13327": 83,
        "13328": 150,
        "13329": 83,
        "13330": 70,
        "13331": 23,
        "13332": 250,
        "13333": 92,
        "13334": 90,
        "13335": 87,
        "13336": 125,
        "13337": 15,
        "13338": 91,
        "13339": 62,
        "13340": 58,
        "13341": 246,
        "13342": 8,
        "13343": 11,
        "13344": 60,
        "13345": 102,
        "13346": 212,
        "13347": 49,
        "13348": 229,
        "13349": 35,
        "13350": 137,
        "13351": 236,
        "13352": 3,
        "13353": 84,
        "13354": 91,
        "13355": 122,
        "13356": 177,
        "13357": 164,
        "13358": 104,
        "13359": 29,
        "13360": 110,
        "13361": 137,
        "13362": 148,
        "13363": 64,
        "13364": 24,
        "13365": 247,
        "13366": 141,
        "13367": 215,
        "13368": 232,
        "13369": 132,
        "13370": 116,
        "13371": 220,
        "13372": 228,
        "13373": 172,
        "13374": 197,
        "13375": 196,
        "13376": 101,
        "13377": 155,
        "13378": 235,
        "13379": 71,
        "13380": 176,
        "13381": 201,
        "13382": 255,
        "13383": 18,
        "13384": 244,
        "13385": 189,
        "13386": 201,
        "13387": 201,
        "13388": 245,
        "13389": 115,
        "13390": 242,
        "13391": 30,
        "13392": 211,
        "13393": 173,
        "13394": 135,
        "13395": 147,
        "13396": 82,
        "13397": 221,
        "13398": 73,
        "13399": 97,
        "13400": 160,
        "13401": 114,
        "13402": 250,
        "13403": 215,
        "13404": 83,
        "13405": 59,
        "13406": 73,
        "13407": 67,
        "13408": 175,
        "13409": 157,
        "13410": 174,
        "13411": 218,
        "13412": 166,
        "13413": 66,
        "13414": 0,
        "13415": 119,
        "13416": 70,
        "13417": 136,
        "13418": 122,
        "13419": 115,
        "13420": 69,
        "13421": 188,
        "13422": 247,
        "13423": 220,
        "13424": 221,
        "13425": 107,
        "13426": 51,
        "13427": 49,
        "13428": 100,
        "13429": 241,
        "13430": 110,
        "13431": 19,
        "13432": 177,
        "13433": 163,
        "13434": 49,
        "13435": 98,
        "13436": 83,
        "13437": 81,
        "13438": 5,
        "13439": 71,
        "13440": 129,
        "13441": 37,
        "13442": 94,
        "13443": 124,
        "13444": 88,
        "13445": 45,
        "13446": 152,
        "13447": 191,
        "13448": 247,
        "13449": 189,
        "13450": 33,
        "13451": 49,
        "13452": 19,
        "13453": 226,
        "13454": 39,
        "13455": 159,
        "13456": 204,
        "13457": 224,
        "13458": 72,
        "13459": 136,
        "13460": 133,
        "13461": 81,
        "13462": 204,
        "13463": 20,
        "13464": 226,
        "13465": 157,
        "13466": 50,
        "13467": 123,
        "13468": 217,
        "13469": 243,
        "13470": 47,
        "13471": 20,
        "13472": 209,
        "13473": 128,
        "13474": 12,
        "13475": 209,
        "13476": 252,
        "13477": 87,
        "13478": 171,
        "13479": 22,
        "13480": 212,
        "13481": 246,
        "13482": 133,
        "13483": 120,
        "13484": 86,
        "13485": 156,
        "13486": 245,
        "13487": 145,
        "13488": 152,
        "13489": 66,
        "13490": 252,
        "13491": 103,
        "13492": 170,
        "13493": 250,
        "13494": 251,
        "13495": 25,
        "13496": 93,
        "13497": 37,
        "13498": 52,
        "13499": 24,
        "13500": 53,
        "13501": 193,
        "13502": 177,
        "13503": 31,
        "13504": 67,
        "13505": 198,
        "13506": 138,
        "13507": 105,
        "13508": 200,
        "13509": 24,
        "13510": 200,
        "13511": 63,
        "13512": 222,
        "13513": 101,
        "13514": 16,
        "13515": 206,
        "13516": 27,
        "13517": 188,
        "13518": 140,
        "13519": 129,
        "13520": 230,
        "13521": 46,
        "13522": 97,
        "13523": 39,
        "13524": 34,
        "13525": 133,
        "13526": 52,
        "13527": 113,
        "13528": 9,
        "13529": 207,
        "13530": 136,
        "13531": 106,
        "13532": 15,
        "13533": 209,
        "13534": 89,
        "13535": 52,
        "13536": 37,
        "13537": 160,
        "13538": 220,
        "13539": 52,
        "13540": 180,
        "13541": 248,
        "13542": 240,
        "13543": 228,
        "13544": 32,
        "13545": 62,
        "13546": 145,
        "13547": 194,
        "13548": 190,
        "13549": 80,
        "13550": 91,
        "13551": 9,
        "13552": 154,
        "13553": 83,
        "13554": 97,
        "13555": 250,
        "13556": 244,
        "13557": 150,
        "13558": 132,
        "13559": 220,
        "13560": 244,
        "13561": 65,
        "13562": 169,
        "13563": 64,
        "13564": 169,
        "13565": 182,
        "13566": 87,
        "13567": 11,
        "13568": 48,
        "13569": 142,
        "13570": 53,
        "13571": 15,
        "13572": 90,
        "13573": 128,
        "13574": 89,
        "13575": 27,
        "13576": 10,
        "13577": 90,
        "13578": 195,
        "13579": 167,
        "13580": 216,
        "13581": 102,
        "13582": 246,
        "13583": 81,
        "13584": 93,
        "13585": 155,
        "13586": 104,
        "13587": 212,
        "13588": 246,
        "13589": 203,
        "13590": 81,
        "13591": 81,
        "13592": 189,
        "13593": 65,
        "13594": 200,
        "13595": 167,
        "13596": 234,
        "13597": 36,
        "13598": 219,
        "13599": 44,
        "13600": 149,
        "13601": 72,
        "13602": 156,
        "13603": 252,
        "13604": 172,
        "13605": 2,
        "13606": 115,
        "13607": 231,
        "13608": 115,
        "13609": 200,
        "13610": 11,
        "13611": 75,
        "13612": 192,
        "13613": 168,
        "13614": 77,
        "13615": 181,
        "13616": 242,
        "13617": 142,
        "13618": 86,
        "13619": 215,
        "13620": 247,
        "13621": 248,
        "13622": 247,
        "13623": 157,
        "13624": 252,
        "13625": 161,
        "13626": 244,
        "13627": 185,
        "13628": 148,
        "13629": 228,
        "13630": 60,
        "13631": 129,
        "13632": 179,
        "13633": 205,
        "13634": 200,
        "13635": 250,
        "13636": 226,
        "13637": 126,
        "13638": 38,
        "13639": 203,
        "13640": 233,
        "13641": 122,
        "13642": 84,
        "13643": 75,
        "13644": 95,
        "13645": 155,
        "13646": 182,
        "13647": 122,
        "13648": 212,
        "13649": 190,
        "13650": 59,
        "13651": 78,
        "13652": 245,
        "13653": 48,
        "13654": 107,
        "13655": 110,
        "13656": 252,
        "13657": 137,
        "13658": 48,
        "13659": 158,
        "13660": 121,
        "13661": 105,
        "13662": 79,
        "13663": 215,
        "13664": 40,
        "13665": 113,
        "13666": 14,
        "13667": 105,
        "13668": 108,
        "13669": 208,
        "13670": 140,
        "13671": 189,
        "13672": 231,
        "13673": 4,
        "13674": 102,
        "13675": 169,
        "13676": 30,
        "13677": 103,
        "13678": 249,
        "13679": 45,
        "13680": 244,
        "13681": 73,
        "13682": 210,
        "13683": 160,
        "13684": 179,
        "13685": 14,
        "13686": 222,
        "13687": 169,
        "13688": 51,
        "13689": 70,
        "13690": 231,
        "13691": 166,
        "13692": 190,
        "13693": 198,
        "13694": 72,
        "13695": 37,
        "13696": 195,
        "13697": 67,
        "13698": 205,
        "13699": 85,
        "13700": 71,
        "13701": 187,
        "13702": 8,
        "13703": 112,
        "13704": 23,
        "13705": 104,
        "13706": 7,
        "13707": 83,
        "13708": 99,
        "13709": 1,
        "13710": 208,
        "13711": 169,
        "13712": 206,
        "13713": 19,
        "13714": 17,
        "13715": 37,
        "13716": 57,
        "13717": 212,
        "13718": 10,
        "13719": 163,
        "13720": 122,
        "13721": 135,
        "13722": 77,
        "13723": 18,
        "13724": 223,
        "13725": 138,
        "13726": 77,
        "13727": 54,
        "13728": 202,
        "13729": 1,
        "13730": 27,
        "13731": 189,
        "13732": 227,
        "13733": 235,
        "13734": 137,
        "13735": 209,
        "13736": 192,
        "13737": 29,
        "13738": 231,
        "13739": 214,
        "13740": 227,
        "13741": 148,
        "13742": 12,
        "13743": 37,
        "13744": 84,
        "13745": 230,
        "13746": 13,
        "13747": 162,
        "13748": 149,
        "13749": 188,
        "13750": 6,
        "13751": 199,
        "13752": 169,
        "13753": 252,
        "13754": 251,
        "13755": 16,
        "13756": 4,
        "13757": 148,
        "13758": 106,
        "13759": 42,
        "13760": 103,
        "13761": 137,
        "13762": 90,
        "13763": 187,
        "13764": 239,
        "13765": 92,
        "13766": 47,
        "13767": 29,
        "13768": 122,
        "13769": 140,
        "13770": 213,
        "13771": 83,
        "13772": 158,
        "13773": 194,
        "13774": 189,
        "13775": 48,
        "13776": 46,
        "13777": 104,
        "13778": 181,
        "13779": 206,
        "13780": 175,
        "13781": 21,
        "13782": 133,
        "13783": 160,
        "13784": 231,
        "13785": 116,
        "13786": 139,
        "13787": 166,
        "13788": 216,
        "13789": 215,
        "13790": 119,
        "13791": 139,
        "13792": 79,
        "13793": 244,
        "13794": 0,
        "13795": 160,
        "13796": 137,
        "13797": 18,
        "13798": 219,
        "13799": 12,
        "13800": 58,
        "13801": 82,
        "13802": 160,
        "13803": 72,
        "13804": 232,
        "13805": 211,
        "13806": 240,
        "13807": 111,
        "13808": 93,
        "13809": 216,
        "13810": 243,
        "13811": 153,
        "13812": 43,
        "13813": 246,
        "13814": 177,
        "13815": 20,
        "13816": 139,
        "13817": 48,
        "13818": 98,
        "13819": 1,
        "13820": 94,
        "13821": 27,
        "13822": 191,
        "13823": 103,
        "13824": 65,
        "13825": 158,
        "13826": 113,
        "13827": 226,
        "13828": 19,
        "13829": 225,
        "13830": 193,
        "13831": 198,
        "13832": 240,
        "13833": 103,
        "13834": 7,
        "13835": 193,
        "13836": 46,
        "13837": 112,
        "13838": 69,
        "13839": 39,
        "13840": 34,
        "13841": 194,
        "13842": 205,
        "13843": 29,
        "13844": 110,
        "13845": 141,
        "13846": 58,
        "13847": 205,
        "13848": 210,
        "13849": 6,
        "13850": 39,
        "13851": 97,
        "13852": 254,
        "13853": 10,
        "13854": 12,
        "13855": 236,
        "13856": 169,
        "13857": 178,
        "13858": 51,
        "13859": 0,
        "13860": 195,
        "13861": 23,
        "13862": 90,
        "13863": 112,
        "13864": 47,
        "13865": 252,
        "13866": 133,
        "13867": 22,
        "13868": 114,
        "13869": 104,
        "13870": 112,
        "13871": 199,
        "13872": 111,
        "13873": 115,
        "13874": 118,
        "13875": 165,
        "13876": 162,
        "13877": 119,
        "13878": 45,
        "13879": 205,
        "13880": 223,
        "13881": 130,
        "13882": 205,
        "13883": 126,
        "13884": 104,
        "13885": 180,
        "13886": 162,
        "13887": 57,
        "13888": 245,
        "13889": 57,
        "13890": 21,
        "13891": 195,
        "13892": 161,
        "13893": 184,
        "13894": 31,
        "13895": 232,
        "13896": 85,
        "13897": 226,
        "13898": 199,
        "13899": 171,
        "13900": 43,
        "13901": 252,
        "13902": 147,
        "13903": 70,
        "13904": 158,
        "13905": 155,
        "13906": 249,
        "13907": 80,
        "13908": 85,
        "13909": 224,
        "13910": 181,
        "13911": 87,
        "13912": 163,
        "13913": 92,
        "13914": 78,
        "13915": 33,
        "13916": 66,
        "13917": 135,
        "13918": 12,
        "13919": 231,
        "13920": 98,
        "13921": 98,
        "13922": 7,
        "13923": 107,
        "13924": 167,
        "13925": 74,
        "13926": 85,
        "13927": 60,
        "13928": 22,
        "13929": 167,
        "13930": 182,
        "13931": 71,
        "13932": 41,
        "13933": 173,
        "13934": 33,
        "13935": 222,
        "13936": 164,
        "13937": 101,
        "13938": 231,
        "13939": 244,
        "13940": 229,
        "13941": 80,
        "13942": 56,
        "13943": 4,
        "13944": 159,
        "13945": 149,
        "13946": 162,
        "13947": 101,
        "13948": 68,
        "13949": 69,
        "13950": 160,
        "13951": 128,
        "13952": 216,
        "13953": 204,
        "13954": 213,
        "13955": 90,
        "13956": 144,
        "13957": 167,
        "13958": 115,
        "13959": 139,
        "13960": 230,
        "13961": 0,
        "13962": 252,
        "13963": 23,
        "13964": 95,
        "13965": 149,
        "13966": 56,
        "13967": 250,
        "13968": 240,
        "13969": 54,
        "13970": 105,
        "13971": 247,
        "13972": 228,
        "13973": 155,
        "13974": 107,
        "13975": 1,
        "13976": 228,
        "13977": 226,
        "13978": 137,
        "13979": 107,
        "13980": 97,
        "13981": 83,
        "13982": 44,
        "13983": 52,
        "13984": 99,
        "13985": 88,
        "13986": 195,
        "13987": 26,
        "13988": 227,
        "13989": 81,
        "13990": 8,
        "13991": 148,
        "13992": 170,
        "13993": 85,
        "13994": 86,
        "13995": 25,
        "13996": 96,
        "13997": 194,
        "13998": 146,
        "13999": 153,
        "14000": 58,
        "14001": 43,
        "14002": 36,
        "14003": 185,
        "14004": 220,
        "14005": 43,
        "14006": 222,
        "14007": 159,
        "14008": 78,
        "14009": 192,
        "14010": 78,
        "14011": 223,
        "14012": 30,
        "14013": 149,
        "14014": 106,
        "14015": 10,
        "14016": 183,
        "14017": 141,
        "14018": 15,
        "14019": 208,
        "14020": 16,
        "14021": 182,
        "14022": 188,
        "14023": 101,
        "14024": 77,
        "14025": 218,
        "14026": 39,
        "14027": 154,
        "14028": 215,
        "14029": 58,
        "14030": 224,
        "14031": 6,
        "14032": 225,
        "14033": 1,
        "14034": 96,
        "14035": 250,
        "14036": 198,
        "14037": 227,
        "14038": 113,
        "14039": 239,
        "14040": 141,
        "14041": 254,
        "14042": 12,
        "14043": 184,
        "14044": 89,
        "14045": 68,
        "14046": 48,
        "14047": 83,
        "14048": 60,
        "14049": 236,
        "14050": 177,
        "14051": 192,
        "14052": 19,
        "14053": 160,
        "14054": 80,
        "14055": 207,
        "14056": 138,
        "14057": 0,
        "14058": 23,
        "14059": 193,
        "14060": 175,
        "14061": 42,
        "14062": 203,
        "14063": 243,
        "14064": 49,
        "14065": 252,
        "14066": 1,
        "14067": 10,
        "14068": 218,
        "14069": 178,
        "14070": 182,
        "14071": 48,
        "14072": 251,
        "14073": 81,
        "14074": 234,
        "14075": 160,
        "14076": 213,
        "14077": 143,
        "14078": 171,
        "14079": 230,
        "14080": 47,
        "14081": 67,
        "14082": 242,
        "14083": 84,
        "14084": 68,
        "14085": 176,
        "14086": 111,
        "14087": 21,
        "14088": 156,
        "14089": 1,
        "14090": 131,
        "14091": 27,
        "14092": 33,
        "14093": 47,
        "14094": 27,
        "14095": 40,
        "14096": 146,
        "14097": 222,
        "14098": 34,
        "14099": 39,
        "14100": 142,
        "14101": 29,
        "14102": 5,
        "14103": 172,
        "14104": 76,
        "14105": 126,
        "14106": 137,
        "14107": 26,
        "14108": 243,
        "14109": 247,
        "14110": 178,
        "14111": 102,
        "14112": 181,
        "14113": 17,
        "14114": 22,
        "14115": 135,
        "14116": 30,
        "14117": 28,
        "14118": 193,
        "14119": 7,
        "14120": 189,
        "14121": 76,
        "14122": 72,
        "14123": 127,
        "14124": 193,
        "14125": 14,
        "14126": 214,
        "14127": 81,
        "14128": 119,
        "14129": 166,
        "14130": 193,
        "14131": 211,
        "14132": 191,
        "14133": 154,
        "14134": 27,
        "14135": 235,
        "14136": 133,
        "14137": 75,
        "14138": 33,
        "14139": 197,
        "14140": 204,
        "14141": 250,
        "14142": 112,
        "14143": 178,
        "14144": 120,
        "14145": 235,
        "14146": 163,
        "14147": 195,
        "14148": 74,
        "14149": 215,
        "14150": 255,
        "14151": 254,
        "14152": 115,
        "14153": 165,
        "14154": 92,
        "14155": 7,
        "14156": 17,
        "14157": 210,
        "14158": 212,
        "14159": 178,
        "14160": 58,
        "14161": 69,
        "14162": 74,
        "14163": 151,
        "14164": 74,
        "14165": 25,
        "14166": 123,
        "14167": 117,
        "14168": 82,
        "14169": 128,
        "14170": 164,
        "14171": 212,
        "14172": 114,
        "14173": 44,
        "14174": 239,
        "14175": 111,
        "14176": 226,
        "14177": 13,
        "14178": 165,
        "14179": 189,
        "14180": 33,
        "14181": 50,
        "14182": 51,
        "14183": 243,
        "14184": 190,
        "14185": 126,
        "14186": 72,
        "14187": 91,
        "14188": 54,
        "14189": 49,
        "14190": 97,
        "14191": 44,
        "14192": 243,
        "14193": 195,
        "14194": 48,
        "14195": 193,
        "14196": 23,
        "14197": 132,
        "14198": 76,
        "14199": 186,
        "14200": 241,
        "14201": 200,
        "14202": 127,
        "14203": 172,
        "14204": 83,
        "14205": 56,
        "14206": 96,
        "14207": 243,
        "14208": 161,
        "14209": 88,
        "14210": 38,
        "14211": 12,
        "14212": 0,
        "14213": 219,
        "14214": 155,
        "14215": 113,
        "14216": 248,
        "14217": 3,
        "14218": 159,
        "14219": 201,
        "14220": 48,
        "14221": 10,
        "14222": 49,
        "14223": 15,
        "14224": 176,
        "14225": 53,
        "14226": 1,
        "14227": 212,
        "14228": 230,
        "14229": 150,
        "14230": 37,
        "14231": 200,
        "14232": 42,
        "14233": 60,
        "14234": 56,
        "14235": 50,
        "14236": 86,
        "14237": 84,
        "14238": 12,
        "14239": 113,
        "14240": 209,
        "14241": 130,
        "14242": 20,
        "14243": 201,
        "14244": 6,
        "14245": 98,
        "14246": 35,
        "14247": 54,
        "14248": 77,
        "14249": 71,
        "14250": 173,
        "14251": 136,
        "14252": 115,
        "14253": 250,
        "14254": 149,
        "14255": 71,
        "14256": 186,
        "14257": 220,
        "14258": 250,
        "14259": 191,
        "14260": 149,
        "14261": 8,
        "14262": 194,
        "14263": 66,
        "14264": 0,
        "14265": 23,
        "14266": 210,
        "14267": 140,
        "14268": 248,
        "14269": 176,
        "14270": 87,
        "14271": 145,
        "14272": 19,
        "14273": 128,
        "14274": 117,
        "14275": 85,
        "14276": 123,
        "14277": 233,
        "14278": 184,
        "14279": 45,
        "14280": 5,
        "14281": 180,
        "14282": 176,
        "14283": 101,
        "14284": 234,
        "14285": 217,
        "14286": 134,
        "14287": 87,
        "14288": 191,
        "14289": 8,
        "14290": 23,
        "14291": 175,
        "14292": 149,
        "14293": 188,
        "14294": 197,
        "14295": 66,
        "14296": 25,
        "14297": 203,
        "14298": 251,
        "14299": 197,
        "14300": 182,
        "14301": 234,
        "14302": 50,
        "14303": 245,
        "14304": 12,
        "14305": 11,
        "14306": 43,
        "14307": 222,
        "14308": 190,
        "14309": 19,
        "14310": 122,
        "14311": 98,
        "14312": 21,
        "14313": 14,
        "14314": 79,
        "14315": 121,
        "14316": 192,
        "14317": 228,
        "14318": 80,
        "14319": 38,
        "14320": 174,
        "14321": 34,
        "14322": 29,
        "14323": 170,
        "14324": 50,
        "14325": 106,
        "14326": 171,
        "14327": 66,
        "14328": 87,
        "14329": 90,
        "14330": 227,
        "14331": 208,
        "14332": 234,
        "14333": 222,
        "14334": 98,
        "14335": 94,
        "14336": 128,
        "14337": 142,
        "14338": 104,
        "14339": 248,
        "14340": 84,
        "14341": 229,
        "14342": 147,
        "14343": 146,
        "14344": 119,
        "14345": 40,
        "14346": 162,
        "14347": 12,
        "14348": 133,
        "14349": 85,
        "14350": 110,
        "14351": 170,
        "14352": 55,
        "14353": 105,
        "14354": 99,
        "14355": 176,
        "14356": 78,
        "14357": 80,
        "14358": 43,
        "14359": 107,
        "14360": 55,
        "14361": 52,
        "14362": 140,
        "14363": 14,
        "14364": 122,
        "14365": 128,
        "14366": 158,
        "14367": 203,
        "14368": 128,
        "14369": 108,
        "14370": 103,
        "14371": 228,
        "14372": 211,
        "14373": 11,
        "14374": 81,
        "14375": 10,
        "14376": 129,
        "14377": 93,
        "14378": 80,
        "14379": 211,
        "14380": 184,
        "14381": 142,
        "14382": 246,
        "14383": 56,
        "14384": 202,
        "14385": 66,
        "14386": 93,
        "14387": 179,
        "14388": 58,
        "14389": 134,
        "14390": 141,
        "14391": 201,
        "14392": 255,
        "14393": 15,
        "14394": 90,
        "14395": 34,
        "14396": 17,
        "14397": 231,
        "14398": 200,
        "14399": 6,
        "14400": 210,
        "14401": 172,
        "14402": 188,
        "14403": 231,
        "14404": 96,
        "14405": 48,
        "14406": 234,
        "14407": 29,
        "14408": 183,
        "14409": 145,
        "14410": 56,
        "14411": 21,
        "14412": 20,
        "14413": 104,
        "14414": 75,
        "14415": 61,
        "14416": 77,
        "14417": 124,
        "14418": 197,
        "14419": 116,
        "14420": 189,
        "14421": 220,
        "14422": 73,
        "14423": 94,
        "14424": 139,
        "14425": 3,
        "14426": 26,
        "14427": 91,
        "14428": 52,
        "14429": 4,
        "14430": 91,
        "14431": 167,
        "14432": 79,
        "14433": 182,
        "14434": 166,
        "14435": 240,
        "14436": 196,
        "14437": 231,
        "14438": 109,
        "14439": 136,
        "14440": 235,
        "14441": 25,
        "14442": 83,
        "14443": 208,
        "14444": 0,
        "14445": 66,
        "14446": 22,
        "14447": 102,
        "14448": 89,
        "14449": 85,
        "14450": 63,
        "14451": 221,
        "14452": 59,
        "14453": 146,
        "14454": 177,
        "14455": 183,
        "14456": 138,
        "14457": 182,
        "14458": 19,
        "14459": 204,
        "14460": 217,
        "14461": 108,
        "14462": 94,
        "14463": 55,
        "14464": 18,
        "14465": 80,
        "14466": 146,
        "14467": 54,
        "14468": 89,
        "14469": 71,
        "14470": 158,
        "14471": 106,
        "14472": 31,
        "14473": 102,
        "14474": 205,
        "14475": 60,
        "14476": 231,
        "14477": 113,
        "14478": 151,
        "14479": 253,
        "14480": 84,
        "14481": 51,
        "14482": 14,
        "14483": 122,
        "14484": 142,
        "14485": 3,
        "14486": 142,
        "14487": 181,
        "14488": 132,
        "14489": 231,
        "14490": 112,
        "14491": 147,
        "14492": 115,
        "14493": 63,
        "14494": 109,
        "14495": 126,
        "14496": 161,
        "14497": 138,
        "14498": 81,
        "14499": 128,
        "14500": 48,
        "14501": 24,
        "14502": 102,
        "14503": 15,
        "14504": 107,
        "14505": 133,
        "14506": 151,
        "14507": 168,
        "14508": 54,
        "14509": 131,
        "14510": 218,
        "14511": 7,
        "14512": 98,
        "14513": 208,
        "14514": 203,
        "14515": 68,
        "14516": 22,
        "14517": 134,
        "14518": 193,
        "14519": 246,
        "14520": 81,
        "14521": 123,
        "14522": 88,
        "14523": 230,
        "14524": 115,
        "14525": 204,
        "14526": 88,
        "14527": 70,
        "14528": 240,
        "14529": 160,
        "14530": 157,
        "14531": 227,
        "14532": 234,
        "14533": 192,
        "14534": 174,
        "14535": 175,
        "14536": 48,
        "14537": 80,
        "14538": 34,
        "14539": 103,
        "14540": 69,
        "14541": 87,
        "14542": 172,
        "14543": 69,
        "14544": 65,
        "14545": 241,
        "14546": 56,
        "14547": 117,
        "14548": 228,
        "14549": 195,
        "14550": 15,
        "14551": 77,
        "14552": 204,
        "14553": 195,
        "14554": 50,
        "14555": 212,
        "14556": 76,
        "14557": 116,
        "14558": 144,
        "14559": 22,
        "14560": 33,
        "14561": 21,
        "14562": 80,
        "14563": 187,
        "14564": 239,
        "14565": 158,
        "14566": 46,
        "14567": 177,
        "14568": 235,
        "14569": 92,
        "14570": 157,
        "14571": 90,
        "14572": 241,
        "14573": 135,
        "14574": 158,
        "14575": 15,
        "14576": 218,
        "14577": 25,
        "14578": 76,
        "14579": 36,
        "14580": 136,
        "14581": 177,
        "14582": 72,
        "14583": 138,
        "14584": 84,
        "14585": 94,
        "14586": 33,
        "14587": 66,
        "14588": 235,
        "14589": 198,
        "14590": 94,
        "14591": 29,
        "14592": 246,
        "14593": 72,
        "14594": 112,
        "14595": 146,
        "14596": 139,
        "14597": 145,
        "14598": 91,
        "14599": 117,
        "14600": 233,
        "14601": 129,
        "14602": 87,
        "14603": 254,
        "14604": 207,
        "14605": 84,
        "14606": 255,
        "14607": 171,
        "14608": 0,
        "14609": 122,
        "14610": 159,
        "14611": 56,
        "14612": 134,
        "14613": 148,
        "14614": 86,
        "14615": 13,
        "14616": 46,
        "14617": 16,
        "14618": 218,
        "14619": 36,
        "14620": 110,
        "14621": 135,
        "14622": 252,
        "14623": 253,
        "14624": 45,
        "14625": 111,
        "14626": 31,
        "14627": 95,
        "14628": 95,
        "14629": 164,
        "14630": 240,
        "14631": 240,
        "14632": 41,
        "14633": 75,
        "14634": 176,
        "14635": 246,
        "14636": 224,
        "14637": 151,
        "14638": 3,
        "14639": 53,
        "14640": 250,
        "14641": 141,
        "14642": 92,
        "14643": 124,
        "14644": 188,
        "14645": 157,
        "14646": 210,
        "14647": 122,
        "14648": 157,
        "14649": 215,
        "14650": 250,
        "14651": 113,
        "14652": 35,
        "14653": 241,
        "14654": 64,
        "14655": 239,
        "14656": 13,
        "14657": 222,
        "14658": 0,
        "14659": 77,
        "14660": 196,
        "14661": 166,
        "14662": 56,
        "14663": 163,
        "14664": 181,
        "14665": 55,
        "14666": 55,
        "14667": 79,
        "14668": 228,
        "14669": 111,
        "14670": 199,
        "14671": 189,
        "14672": 112,
        "14673": 113,
        "14674": 230,
        "14675": 114,
        "14676": 208,
        "14677": 119,
        "14678": 150,
        "14679": 230,
        "14680": 233,
        "14681": 251,
        "14682": 20,
        "14683": 239,
        "14684": 115,
        "14685": 116,
        "14686": 90,
        "14687": 101,
        "14688": 81,
        "14689": 0,
        "14690": 241,
        "14691": 140,
        "14692": 2,
        "14693": 225,
        "14694": 246,
        "14695": 112,
        "14696": 99,
        "14697": 175,
        "14698": 233,
        "14699": 46,
        "14700": 35,
        "14701": 6,
        "14702": 120,
        "14703": 236,
        "14704": 48,
        "14705": 121,
        "14706": 222,
        "14707": 90,
        "14708": 136,
        "14709": 101,
        "14710": 199,
        "14711": 133,
        "14712": 172,
        "14713": 116,
        "14714": 164,
        "14715": 128,
        "14716": 205,
        "14717": 208,
        "14718": 207,
        "14719": 87,
        "14720": 176,
        "14721": 26,
        "14722": 73,
        "14723": 95,
        "14724": 99,
        "14725": 193,
        "14726": 60,
        "14727": 253,
        "14728": 77,
        "14729": 126,
        "14730": 192,
        "14731": 15,
        "14732": 24,
        "14733": 195,
        "14734": 247,
        "14735": 27,
        "14736": 32,
        "14737": 33,
        "14738": 216,
        "14739": 239,
        "14740": 174,
        "14741": 237,
        "14742": 192,
        "14743": 221,
        "14744": 50,
        "14745": 29,
        "14746": 130,
        "14747": 217,
        "14748": 219,
        "14749": 187,
        "14750": 177,
        "14751": 227,
        "14752": 205,
        "14753": 162,
        "14754": 239,
        "14755": 52,
        "14756": 197,
        "14757": 198,
        "14758": 56,
        "14759": 125,
        "14760": 58,
        "14761": 35,
        "14762": 26,
        "14763": 39,
        "14764": 151,
        "14765": 176,
        "14766": 0,
        "14767": 40,
        "14768": 23,
        "14769": 40,
        "14770": 161,
        "14771": 50,
        "14772": 73,
        "14773": 107,
        "14774": 165,
        "14775": 56,
        "14776": 84,
        "14777": 206,
        "14778": 0,
        "14779": 224,
        "14780": 214,
        "14781": 155,
        "14782": 250,
        "14783": 163,
        "14784": 130,
        "14785": 252,
        "14786": 217,
        "14787": 49,
        "14788": 119,
        "14789": 9,
        "14790": 220,
        "14791": 46,
        "14792": 41,
        "14793": 79,
        "14794": 252,
        "14795": 255,
        "14796": 142,
        "14797": 6,
        "14798": 136,
        "14799": 209,
        "14800": 53,
        "14801": 11,
        "14802": 125,
        "14803": 42,
        "14804": 142,
        "14805": 68,
        "14806": 190,
        "14807": 54,
        "14808": 97,
        "14809": 241,
        "14810": 39,
        "14811": 63,
        "14812": 9,
        "14813": 190,
        "14814": 112,
        "14815": 7,
        "14816": 169,
        "14817": 158,
        "14818": 12,
        "14819": 222,
        "14820": 70,
        "14821": 150,
        "14822": 69,
        "14823": 150,
        "14824": 161,
        "14825": 121,
        "14826": 164,
        "14827": 111,
        "14828": 67,
        "14829": 95,
        "14830": 37,
        "14831": 158,
        "14832": 76,
        "14833": 7,
        "14834": 103,
        "14835": 249,
        "14836": 202,
        "14837": 186,
        "14838": 19,
        "14839": 148,
        "14840": 94,
        "14841": 231,
        "14842": 33,
        "14843": 31,
        "14844": 247,
        "14845": 77,
        "14846": 115,
        "14847": 83,
        "14848": 179,
        "14849": 59,
        "14850": 64,
        "14851": 144,
        "14852": 143,
        "14853": 0,
        "14854": 33,
        "14855": 74,
        "14856": 233,
        "14857": 233,
        "14858": 176,
        "14859": 91,
        "14860": 76,
        "14861": 152,
        "14862": 216,
        "14863": 250,
        "14864": 177,
        "14865": 159,
        "14866": 176,
        "14867": 169,
        "14868": 144,
        "14869": 69,
        "14870": 250,
        "14871": 46,
        "14872": 212,
        "14873": 162,
        "14874": 108,
        "14875": 66,
        "14876": 172,
        "14877": 33,
        "14878": 75,
        "14879": 221,
        "14880": 163,
        "14881": 95,
        "14882": 239,
        "14883": 56,
        "14884": 249,
        "14885": 97,
        "14886": 231,
        "14887": 189,
        "14888": 131,
        "14889": 195,
        "14890": 110,
        "14891": 198,
        "14892": 126,
        "14893": 61,
        "14894": 232,
        "14895": 224,
        "14896": 70,
        "14897": 35,
        "14898": 14,
        "14899": 92,
        "14900": 192,
        "14901": 241,
        "14902": 65,
        "14903": 188,
        "14904": 138,
        "14905": 29,
        "14906": 181,
        "14907": 67,
        "14908": 91,
        "14909": 46,
        "14910": 2,
        "14911": 235,
        "14912": 137,
        "14913": 136,
        "14914": 203,
        "14915": 215,
        "14916": 244,
        "14917": 79,
        "14918": 252,
        "14919": 140,
        "14920": 233,
        "14921": 138,
        "14922": 42,
        "14923": 148,
        "14924": 236,
        "14925": 136,
        "14926": 244,
        "14927": 189,
        "14928": 4,
        "14929": 188,
        "14930": 145,
        "14931": 253,
        "14932": 111,
        "14933": 160,
        "14934": 7,
        "14935": 92,
        "14936": 62,
        "14937": 53,
        "14938": 102,
        "14939": 185,
        "14940": 93,
        "14941": 202,
        "14942": 42,
        "14943": 14,
        "14944": 125,
        "14945": 54,
        "14946": 88,
        "14947": 153,
        "14948": 51,
        "14949": 48,
        "14950": 228,
        "14951": 192,
        "14952": 166,
        "14953": 51,
        "14954": 77,
        "14955": 85,
        "14956": 69,
        "14957": 185,
        "14958": 227,
        "14959": 7,
        "14960": 162,
        "14961": 180,
        "14962": 24,
        "14963": 47,
        "14964": 172,
        "14965": 208,
        "14966": 168,
        "14967": 200,
        "14968": 159,
        "14969": 239,
        "14970": 21,
        "14971": 215,
        "14972": 220,
        "14973": 225,
        "14974": 198,
        "14975": 209,
        "14976": 116,
        "14977": 158,
        "14978": 31,
        "14979": 109,
        "14980": 170,
        "14981": 132,
        "14982": 158,
        "14983": 17,
        "14984": 164,
        "14985": 28,
        "14986": 77,
        "14987": 206,
        "14988": 50,
        "14989": 159,
        "14990": 114,
        "14991": 107,
        "14992": 202,
        "14993": 215,
        "14994": 85,
        "14995": 136,
        "14996": 158,
        "14997": 227,
        "14998": 164,
        "14999": 1,
        "15000": 86,
        "15001": 221,
        "15002": 240,
        "15003": 161,
        "15004": 49,
        "15005": 106,
        "15006": 191,
        "15007": 86,
        "15008": 157,
        "15009": 141,
        "15010": 197,
        "15011": 121,
        "15012": 175,
        "15013": 8,
        "15014": 81,
        "15015": 206,
        "15016": 171,
        "15017": 0,
        "15018": 10,
        "15019": 246,
        "15020": 64,
        "15021": 118,
        "15022": 171,
        "15023": 198,
        "15024": 189,
        "15025": 1,
        "15026": 185,
        "15027": 57,
        "15028": 28,
        "15029": 223,
        "15030": 236,
        "15031": 207,
        "15032": 61,
        "15033": 133,
        "15034": 114,
        "15035": 82,
        "15036": 5,
        "15037": 89,
        "15038": 50,
        "15039": 134,
        "15040": 9,
        "15041": 39,
        "15042": 237,
        "15043": 216,
        "15044": 116,
        "15045": 190,
        "15046": 245,
        "15047": 171,
        "15048": 60,
        "15049": 221,
        "15050": 125,
        "15051": 228,
        "15052": 58,
        "15053": 30,
        "15054": 98,
        "15055": 219,
        "15056": 238,
        "15057": 198,
        "15058": 251,
        "15059": 25,
        "15060": 166,
        "15061": 201,
        "15062": 234,
        "15063": 199,
        "15064": 110,
        "15065": 49,
        "15066": 194,
        "15067": 219,
        "15068": 49,
        "15069": 187,
        "15070": 71,
        "15071": 215,
        "15072": 220,
        "15073": 112,
        "15074": 99,
        "15075": 71,
        "15076": 251,
        "15077": 249,
        "15078": 78,
        "15079": 143,
        "15080": 208,
        "15081": 251,
        "15082": 249,
        "15083": 250,
        "15084": 13,
        "15085": 114,
        "15086": 21,
        "15087": 76,
        "15088": 32,
        "15089": 89,
        "15090": 248,
        "15091": 44,
        "15092": 29,
        "15093": 133,
        "15094": 78,
        "15095": 84,
        "15096": 70,
        "15097": 97,
        "15098": 211,
        "15099": 159,
        "15100": 114,
        "15101": 61,
        "15102": 225,
        "15103": 210,
        "15104": 6,
        "15105": 66,
        "15106": 14,
        "15107": 132,
        "15108": 61,
        "15109": 248,
        "15110": 161,
        "15111": 117,
        "15112": 119,
        "15113": 139,
        "15114": 72,
        "15115": 150,
        "15116": 149,
        "15117": 185,
        "15118": 122,
        "15119": 112,
        "15120": 192,
        "15121": 246,
        "15122": 243,
        "15123": 144,
        "15124": 12,
        "15125": 53,
        "15126": 248,
        "15127": 89,
        "15128": 57,
        "15129": 45,
        "15130": 96,
        "15131": 173,
        "15132": 21,
        "15133": 46,
        "15134": 194,
        "15135": 167,
        "15136": 129,
        "15137": 247,
        "15138": 250,
        "15139": 234,
        "15140": 107,
        "15141": 132,
        "15142": 161,
        "15143": 215,
        "15144": 1,
        "15145": 185,
        "15146": 171,
        "15147": 51,
        "15148": 244,
        "15149": 26,
        "15150": 1,
        "15151": 183,
        "15152": 118,
        "15153": 89,
        "15154": 21,
        "15155": 139,
        "15156": 72,
        "15157": 250,
        "15158": 166,
        "15159": 117,
        "15160": 118,
        "15161": 59,
        "15162": 218,
        "15163": 194,
        "15164": 7,
        "15165": 212,
        "15166": 191,
        "15167": 171,
        "15168": 241,
        "15169": 196,
        "15170": 41,
        "15171": 224,
        "15172": 245,
        "15173": 175,
        "15174": 198,
        "15175": 118,
        "15176": 167,
        "15177": 129,
        "15178": 23,
        "15179": 105,
        "15180": 185,
        "15181": 151,
        "15182": 105,
        "15183": 95,
        "15184": 136,
        "15185": 61,
        "15186": 44,
        "15187": 45,
        "15188": 100,
        "15189": 69,
        "15190": 10,
        "15191": 76,
        "15192": 189,
        "15193": 15,
        "15194": 111,
        "15195": 193,
        "15196": 19,
        "15197": 248,
        "15198": 62,
        "15199": 53,
        "15200": 106,
        "15201": 131,
        "15202": 22,
        "15203": 7,
        "15204": 18,
        "15205": 75,
        "15206": 85,
        "15207": 224,
        "15208": 158,
        "15209": 222,
        "15210": 83,
        "15211": 144,
        "15212": 3,
        "15213": 229,
        "15214": 180,
        "15215": 75,
        "15216": 214,
        "15217": 72,
        "15218": 194,
        "15219": 29,
        "15220": 25,
        "15221": 236,
        "15222": 90,
        "15223": 247,
        "15224": 192,
        "15225": 219,
        "15226": 192,
        "15227": 221,
        "15228": 50,
        "15229": 138,
        "15230": 244,
        "15231": 64,
        "15232": 124,
        "15233": 217,
        "15234": 179,
        "15235": 165,
        "15236": 155,
        "15237": 147,
        "15238": 139,
        "15239": 70,
        "15240": 115,
        "15241": 20,
        "15242": 16,
        "15243": 51,
        "15244": 38,
        "15245": 172,
        "15246": 90,
        "15247": 208,
        "15248": 76,
        "15249": 126,
        "15250": 203,
        "15251": 78,
        "15252": 136,
        "15253": 100,
        "15254": 22,
        "15255": 99,
        "15256": 108,
        "15257": 207,
        "15258": 89,
        "15259": 182,
        "15260": 191,
        "15261": 170,
        "15262": 102,
        "15263": 201,
        "15264": 206,
        "15265": 115,
        "15266": 14,
        "15267": 188,
        "15268": 193,
        "15269": 22,
        "15270": 215,
        "15271": 146,
        "15272": 21,
        "15273": 171,
        "15274": 199,
        "15275": 155,
        "15276": 26,
        "15277": 28,
        "15278": 251,
        "15279": 184,
        "15280": 43,
        "15281": 96,
        "15282": 58,
        "15283": 59,
        "15284": 220,
        "15285": 83,
        "15286": 43,
        "15287": 111,
        "15288": 253,
        "15289": 143,
        "15290": 84,
        "15291": 44,
        "15292": 157,
        "15293": 96,
        "15294": 63,
        "15295": 254,
        "15296": 223,
        "15297": 24,
        "15298": 28,
        "15299": 34,
        "15300": 110,
        "15301": 69,
        "15302": 37,
        "15303": 223,
        "15304": 119,
        "15305": 187,
        "15306": 165,
        "15307": 205,
        "15308": 131,
        "15309": 205,
        "15310": 36,
        "15311": 56,
        "15312": 83,
        "15313": 175,
        "15314": 45,
        "15315": 88,
        "15316": 241,
        "15317": 30,
        "15318": 5,
        "15319": 27,
        "15320": 221,
        "15321": 109,
        "15322": 202,
        "15323": 161,
        "15324": 105,
        "15325": 240,
        "15326": 105,
        "15327": 178,
        "15328": 218,
        "15329": 197,
        "15330": 210,
        "15331": 141,
        "15332": 217,
        "15333": 167,
        "15334": 181,
        "15335": 4,
        "15336": 60,
        "15337": 137,
        "15338": 123,
        "15339": 199,
        "15340": 189,
        "15341": 143,
        "15342": 227,
        "15343": 172,
        "15344": 146,
        "15345": 17,
        "15346": 167,
        "15347": 250,
        "15348": 246,
        "15349": 37,
        "15350": 115,
        "15351": 169,
        "15352": 61,
        "15353": 19,
        "15354": 130,
        "15355": 72,
        "15356": 48,
        "15357": 38,
        "15358": 121,
        "15359": 217,
        "15360": 43,
        "15361": 46,
        "15362": 24,
        "15363": 170,
        "15364": 219,
        "15365": 51,
        "15366": 110,
        "15367": 3,
        "15368": 133,
        "15369": 12,
        "15370": 91,
        "15371": 156,
        "15372": 218,
        "15373": 34,
        "15374": 163,
        "15375": 215,
        "15376": 11,
        "15377": 203,
        "15378": 201,
        "15379": 209,
        "15380": 177,
        "15381": 184,
        "15382": 116,
        "15383": 159,
        "15384": 193,
        "15385": 140,
        "15386": 58,
        "15387": 33,
        "15388": 222,
        "15389": 107,
        "15390": 5,
        "15391": 227,
        "15392": 19,
        "15393": 236,
        "15394": 239,
        "15395": 242,
        "15396": 100,
        "15397": 241,
        "15398": 51,
        "15399": 28,
        "15400": 139,
        "15401": 253,
        "15402": 23,
        "15403": 159,
        "15404": 240,
        "15405": 161,
        "15406": 67,
        "15407": 186,
        "15408": 239,
        "15409": 129,
        "15410": 221,
        "15411": 72,
        "15412": 131,
        "15413": 132,
        "15414": 110,
        "15415": 239,
        "15416": 222,
        "15417": 75,
        "15418": 42,
        "15419": 126,
        "15420": 250,
        "15421": 92,
        "15422": 147,
        "15423": 59,
        "15424": 19,
        "15425": 196,
        "15426": 133,
        "15427": 72,
        "15428": 117,
        "15429": 0,
        "15430": 15,
        "15431": 244,
        "15432": 70,
        "15433": 108,
        "15434": 85,
        "15435": 119,
        "15436": 194,
        "15437": 81,
        "15438": 160,
        "15439": 136,
        "15440": 174,
        "15441": 48,
        "15442": 62,
        "15443": 113,
        "15444": 118,
        "15445": 64,
        "15446": 69,
        "15447": 17,
        "15448": 25,
        "15449": 234,
        "15450": 175,
        "15451": 85,
        "15452": 83,
        "15453": 6,
        "15454": 59,
        "15455": 206,
        "15456": 208,
        "15457": 54,
        "15458": 181,
        "15459": 174,
        "15460": 83,
        "15461": 88,
        "15462": 49,
        "15463": 180,
        "15464": 183,
        "15465": 168,
        "15466": 98,
        "15467": 101,
        "15468": 96,
        "15469": 14,
        "15470": 118,
        "15471": 213,
        "15472": 203,
        "15473": 248,
        "15474": 166,
        "15475": 199,
        "15476": 114,
        "15477": 124,
        "15478": 179,
        "15479": 194,
        "15480": 103,
        "15481": 34,
        "15482": 243,
        "15483": 94,
        "15484": 109,
        "15485": 240,
        "15486": 79,
        "15487": 207,
        "15488": 197,
        "15489": 25,
        "15490": 138,
        "15491": 179,
        "15492": 18,
        "15493": 162,
        "15494": 156,
        "15495": 226,
        "15496": 234,
        "15497": 99,
        "15498": 210,
        "15499": 62,
        "15500": 2,
        "15501": 43,
        "15502": 112,
        "15503": 196,
        "15504": 142,
        "15505": 228,
        "15506": 233,
        "15507": 9,
        "15508": 79,
        "15509": 180,
        "15510": 50,
        "15511": 161,
        "15512": 88,
        "15513": 235,
        "15514": 238,
        "15515": 111,
        "15516": 89,
        "15517": 175,
        "15518": 183,
        "15519": 101,
        "15520": 44,
        "15521": 90,
        "15522": 211,
        "15523": 148,
        "15524": 204,
        "15525": 179,
        "15526": 244,
        "15527": 14,
        "15528": 19,
        "15529": 57,
        "15530": 244,
        "15531": 44,
        "15532": 153,
        "15533": 140,
        "15534": 88,
        "15535": 121,
        "15536": 22,
        "15537": 117,
        "15538": 171,
        "15539": 215,
        "15540": 161,
        "15541": 202,
        "15542": 229,
        "15543": 133,
        "15544": 214,
        "15545": 119,
        "15546": 61,
        "15547": 236,
        "15548": 60,
        "15549": 183,
        "15550": 59,
        "15551": 68,
        "15552": 147,
        "15553": 124,
        "15554": 182,
        "15555": 199,
        "15556": 70,
        "15557": 64,
        "15558": 255,
        "15559": 98,
        "15560": 138,
        "15561": 22,
        "15562": 228,
        "15563": 10,
        "15564": 65,
        "15565": 158,
        "15566": 164,
        "15567": 10,
        "15568": 11,
        "15569": 224,
        "15570": 91,
        "15571": 187,
        "15572": 144,
        "15573": 241,
        "15574": 62,
        "15575": 161,
        "15576": 206,
        "15577": 178,
        "15578": 46,
        "15579": 90,
        "15580": 180,
        "15581": 87,
        "15582": 21,
        "15583": 224,
        "15584": 142,
        "15585": 113,
        "15586": 28,
        "15587": 232,
        "15588": 105,
        "15589": 169,
        "15590": 141,
        "15591": 77,
        "15592": 100,
        "15593": 80,
        "15594": 201,
        "15595": 36,
        "15596": 251,
        "15597": 241,
        "15598": 106,
        "15599": 232,
        "15600": 226,
        "15601": 103,
        "15602": 214,
        "15603": 208,
        "15604": 64,
        "15605": 53,
        "15606": 38,
        "15607": 92,
        "15608": 36,
        "15609": 114,
        "15610": 215,
        "15611": 125,
        "15612": 85,
        "15613": 241,
        "15614": 186,
        "15615": 231,
        "15616": 92,
        "15617": 3,
        "15618": 94,
        "15619": 244,
        "15620": 209,
        "15621": 18,
        "15622": 104,
        "15623": 108,
        "15624": 48,
        "15625": 154,
        "15626": 74,
        "15627": 231,
        "15628": 194,
        "15629": 68,
        "15630": 69,
        "15631": 234,
        "15632": 33,
        "15633": 248,
        "15634": 49,
        "15635": 158,
        "15636": 147,
        "15637": 156,
        "15638": 183,
        "15639": 218,
        "15640": 40,
        "15641": 230,
        "15642": 176,
        "15643": 12,
        "15644": 70,
        "15645": 96,
        "15646": 151,
        "15647": 142,
        "15648": 227,
        "15649": 77,
        "15650": 248,
        "15651": 109,
        "15652": 30,
        "15653": 218,
        "15654": 87,
        "15655": 180,
        "15656": 123,
        "15657": 216,
        "15658": 183,
        "15659": 151,
        "15660": 17,
        "15661": 175,
        "15662": 28,
        "15663": 77,
        "15664": 251,
        "15665": 222,
        "15666": 159,
        "15667": 244,
        "15668": 204,
        "15669": 36,
        "15670": 224,
        "15671": 197,
        "15672": 213,
        "15673": 252,
        "15674": 47,
        "15675": 49,
        "15676": 213,
        "15677": 152,
        "15678": 173,
        "15679": 113,
        "15680": 143,
        "15681": 17,
        "15682": 63,
        "15683": 187,
        "15684": 8,
        "15685": 253,
        "15686": 191,
        "15687": 169,
        "15688": 244,
        "15689": 129,
        "15690": 147,
        "15691": 48,
        "15692": 111,
        "15693": 52,
        "15694": 90,
        "15695": 118,
        "15696": 146,
        "15697": 234,
        "15698": 254,
        "15699": 72,
        "15700": 192,
        "15701": 96,
        "15702": 149,
        "15703": 244,
        "15704": 4,
        "15705": 154,
        "15706": 48,
        "15707": 232,
        "15708": 113,
        "15709": 205,
        "15710": 171,
        "15711": 43,
        "15712": 252,
        "15713": 16,
        "15714": 70,
        "15715": 142,
        "15716": 93,
        "15717": 145,
        "15718": 137,
        "15719": 55,
        "15720": 113,
        "15721": 107,
        "15722": 103,
        "15723": 71,
        "15724": 86,
        "15725": 81,
        "15726": 22,
        "15727": 254,
        "15728": 223,
        "15729": 177,
        "15730": 159,
        "15731": 238,
        "15732": 199,
        "15733": 224,
        "15734": 176,
        "15735": 120,
        "15736": 9,
        "15737": 74,
        "15738": 103,
        "15739": 229,
        "15740": 154,
        "15741": 58,
        "15742": 178,
        "15743": 86,
        "15744": 97,
        "15745": 154,
        "15746": 217,
        "15747": 10,
        "15748": 73,
        "15749": 90,
        "15750": 31,
        "15751": 63,
        "15752": 74,
        "15753": 209,
        "15754": 198,
        "15755": 14,
        "15756": 58,
        "15757": 31,
        "15758": 208,
        "15759": 206,
        "15760": 178,
        "15761": 152,
        "15762": 27,
        "15763": 63,
        "15764": 35,
        "15765": 104,
        "15766": 216,
        "15767": 218,
        "15768": 64,
        "15769": 14,
        "15770": 104,
        "15771": 79,
        "15772": 130,
        "15773": 236,
        "15774": 161,
        "15775": 70,
        "15776": 65,
        "15777": 110,
        "15778": 199,
        "15779": 154,
        "15780": 21,
        "15781": 172,
        "15782": 28,
        "15783": 121,
        "15784": 30,
        "15785": 93,
        "15786": 221,
        "15787": 185,
        "15788": 222,
        "15789": 247,
        "15790": 103,
        "15791": 164,
        "15792": 104,
        "15793": 154,
        "15794": 52,
        "15795": 51,
        "15796": 238,
        "15797": 250,
        "15798": 251,
        "15799": 57,
        "15800": 141,
        "15801": 49,
        "15802": 102,
        "15803": 137,
        "15804": 141,
        "15805": 247,
        "15806": 108,
        "15807": 255,
        "15808": 121,
        "15809": 16,
        "15810": 234,
        "15811": 137,
        "15812": 3,
        "15813": 196,
        "15814": 120,
        "15815": 87,
        "15816": 78,
        "15817": 115,
        "15818": 122,
        "15819": 226,
        "15820": 62,
        "15821": 249,
        "15822": 153,
        "15823": 247,
        "15824": 136,
        "15825": 119,
        "15826": 24,
        "15827": 204,
        "15828": 238,
        "15829": 188,
        "15830": 185,
        "15831": 60,
        "15832": 169,
        "15833": 2,
        "15834": 193,
        "15835": 157,
        "15836": 133,
        "15837": 233,
        "15838": 139,
        "15839": 80,
        "15840": 79,
        "15841": 105,
        "15842": 43,
        "15843": 21,
        "15844": 19,
        "15845": 234,
        "15846": 59,
        "15847": 50,
        "15848": 156,
        "15849": 200,
        "15850": 241,
        "15851": 131,
        "15852": 39,
        "15853": 72,
        "15854": 73,
        "15855": 190,
        "15856": 166,
        "15857": 249,
        "15858": 92,
        "15859": 3,
        "15860": 140,
        "15861": 187,
        "15862": 50,
        "15863": 121,
        "15864": 110,
        "15865": 190,
        "15866": 69,
        "15867": 212,
        "15868": 132,
        "15869": 25,
        "15870": 36,
        "15871": 153,
        "15872": 33,
        "15873": 132,
        "15874": 41,
        "15875": 206,
        "15876": 14,
        "15877": 94,
        "15878": 200,
        "15879": 172,
        "15880": 80,
        "15881": 210,
        "15882": 186,
        "15883": 119,
        "15884": 196,
        "15885": 216,
        "15886": 200,
        "15887": 190,
        "15888": 185,
        "15889": 128,
        "15890": 133,
        "15891": 15,
        "15892": 140,
        "15893": 17,
        "15894": 56,
        "15895": 26,
        "15896": 140,
        "15897": 158,
        "15898": 242,
        "15899": 35,
        "15900": 117,
        "15901": 108,
        "15902": 213,
        "15903": 122,
        "15904": 69,
        "15905": 164,
        "15906": 18,
        "15907": 71,
        "15908": 206,
        "15909": 61,
        "15910": 135,
        "15911": 191,
        "15912": 8,
        "15913": 27,
        "15914": 132,
        "15915": 29,
        "15916": 4,
        "15917": 244,
        "15918": 250,
        "15919": 240,
        "15920": 15,
        "15921": 91,
        "15922": 194,
        "15923": 90,
        "15924": 170,
        "15925": 7,
        "15926": 78,
        "15927": 141,
        "15928": 67,
        "15929": 143,
        "15930": 229,
        "15931": 216,
        "15932": 245,
        "15933": 252,
        "15934": 156,
        "15935": 162,
        "15936": 141,
        "15937": 172,
        "15938": 156,
        "15939": 86,
        "15940": 154,
        "15941": 27,
        "15942": 167,
        "15943": 20,
        "15944": 229,
        "15945": 68,
        "15946": 192,
        "15947": 116,
        "15948": 30,
        "15949": 159,
        "15950": 31,
        "15951": 45,
        "15952": 221,
        "15953": 12,
        "15954": 88,
        "15955": 245,
        "15956": 154,
        "15957": 85,
        "15958": 93,
        "15959": 195,
        "15960": 19,
        "15961": 167,
        "15962": 208,
        "15963": 77,
        "15964": 215,
        "15965": 174,
        "15966": 189,
        "15967": 67,
        "15968": 5,
        "15969": 231,
        "15970": 138,
        "15971": 152,
        "15972": 119,
        "15973": 81,
        "15974": 144,
        "15975": 71,
        "15976": 228,
        "15977": 222,
        "15978": 105,
        "15979": 24,
        "15980": 31,
        "15981": 88,
        "15982": 191,
        "15983": 228,
        "15984": 15,
        "15985": 238,
        "15986": 21,
        "15987": 221,
        "15988": 64,
        "15989": 203,
        "15990": 184,
        "15991": 12,
        "15992": 37,
        "15993": 75,
        "15994": 89,
        "15995": 44,
        "15996": 119,
        "15997": 148,
        "15998": 216,
        "15999": 96,
        "16000": 96,
        "16001": 14,
        "16002": 6,
        "16003": 52,
        "16004": 74,
        "16005": 7,
        "16006": 215,
        "16007": 107,
        "16008": 33,
        "16009": 219,
        "16010": 138,
        "16011": 81,
        "16012": 139,
        "16013": 41,
        "16014": 191,
        "16015": 222,
        "16016": 137,
        "16017": 39,
        "16018": 62,
        "16019": 149,
        "16020": 35,
        "16021": 41,
        "16022": 121,
        "16023": 84,
        "16024": 12,
        "16025": 164,
        "16026": 65,
        "16027": 28,
        "16028": 133,
        "16029": 217,
        "16030": 195,
        "16031": 46,
        "16032": 189,
        "16033": 153,
        "16034": 95,
        "16035": 253,
        "16036": 68,
        "16037": 61,
        "16038": 103,
        "16039": 225,
        "16040": 101,
        "16041": 105,
        "16042": 196,
        "16043": 82,
        "16044": 32,
        "16045": 145,
        "16046": 253,
        "16047": 191,
        "16048": 118,
        "16049": 225,
        "16050": 80,
        "16051": 129,
        "16052": 60,
        "16053": 238,
        "16054": 254,
        "16055": 55,
        "16056": 183,
        "16057": 150,
        "16058": 22,
        "16059": 190,
        "16060": 20,
        "16061": 171,
        "16062": 62,
        "16063": 251,
        "16064": 249,
        "16065": 123,
        "16066": 191,
        "16067": 73,
        "16068": 217,
        "16069": 8,
        "16070": 26,
        "16071": 243,
        "16072": 153,
        "16073": 142,
        "16074": 200,
        "16075": 108,
        "16076": 81,
        "16077": 37,
        "16078": 238,
        "16079": 157,
        "16080": 47,
        "16081": 161,
        "16082": 220,
        "16083": 88,
        "16084": 10,
        "16085": 158,
        "16086": 191,
        "16087": 146,
        "16088": 194,
        "16089": 181,
        "16090": 179,
        "16091": 65,
        "16092": 105,
        "16093": 1,
        "16094": 65,
        "16095": 18,
        "16096": 21,
        "16097": 172,
        "16098": 238,
        "16099": 228,
        "16100": 115,
        "16101": 162,
        "16102": 18,
        "16103": 213,
        "16104": 204,
        "16105": 30,
        "16106": 129,
        "16107": 126,
        "16108": 121,
        "16109": 76,
        "16110": 196,
        "16111": 109,
        "16112": 112,
        "16113": 131,
        "16114": 156,
        "16115": 153,
        "16116": 132,
        "16117": 64,
        "16118": 180,
        "16119": 213,
        "16120": 239,
        "16121": 98,
        "16122": 46,
        "16123": 73,
        "16124": 96,
        "16125": 251,
        "16126": 142,
        "16127": 2,
        "16128": 178,
        "16129": 33,
        "16130": 20,
        "16131": 60,
        "16132": 160,
        "16133": 238,
        "16134": 240,
        "16135": 88,
        "16136": 131,
        "16137": 8,
        "16138": 237,
        "16139": 170,
        "16140": 108,
        "16141": 86,
        "16142": 170,
        "16143": 40,
        "16144": 199,
        "16145": 120,
        "16146": 13,
        "16147": 178,
        "16148": 186,
        "16149": 81,
        "16150": 218,
        "16151": 142,
        "16152": 250,
        "16153": 249,
        "16154": 255,
        "16155": 46,
        "16156": 219,
        "16157": 141,
        "16158": 242,
        "16159": 72,
        "16160": 139,
        "16161": 224,
        "16162": 2,
        "16163": 96,
        "16164": 129,
        "16165": 48,
        "16166": 43,
        "16167": 3,
        "16168": 152,
        "16169": 121,
        "16170": 204,
        "16171": 120,
        "16172": 174,
        "16173": 223,
        "16174": 200,
        "16175": 209,
        "16176": 218,
        "16177": 11,
        "16178": 251,
        "16179": 60,
        "16180": 42,
        "16181": 42,
        "16182": 72,
        "16183": 179,
        "16184": 128,
        "16185": 167,
        "16186": 122,
        "16187": 14,
        "16188": 202,
        "16189": 16,
        "16190": 109,
        "16191": 223,
        "16192": 253,
        "16193": 228,
        "16194": 185,
        "16195": 2,
        "16196": 40,
        "16197": 194,
        "16198": 32,
        "16199": 155,
        "16200": 99,
        "16201": 93,
        "16202": 8,
        "16203": 43,
        "16204": 206,
        "16205": 32,
        "16206": 161,
        "16207": 83,
        "16208": 195,
        "16209": 15,
        "16210": 23,
        "16211": 59,
        "16212": 16,
        "16213": 225,
        "16214": 151,
        "16215": 5,
        "16216": 151,
        "16217": 139,
        "16218": 160,
        "16219": 206,
        "16220": 62,
        "16221": 121,
        "16222": 185,
        "16223": 228,
        "16224": 147,
        "16225": 226,
        "16226": 205,
        "16227": 123,
        "16228": 73,
        "16229": 184,
        "16230": 112,
        "16231": 182,
        "16232": 125,
        "16233": 89,
        "16234": 160,
        "16235": 5,
        "16236": 211,
        "16237": 131,
        "16238": 148,
        "16239": 63,
        "16240": 216,
        "16241": 203,
        "16242": 117,
        "16243": 158,
        "16244": 206,
        "16245": 102,
        "16246": 26,
        "16247": 130,
        "16248": 245,
        "16249": 60,
        "16250": 71,
        "16251": 88,
        "16252": 122,
        "16253": 70,
        "16254": 13,
        "16255": 180,
        "16256": 3,
        "16257": 154,
        "16258": 79,
        "16259": 118,
        "16260": 119,
        "16261": 182,
        "16262": 92,
        "16263": 139,
        "16264": 36,
        "16265": 246,
        "16266": 172,
        "16267": 130,
        "16268": 87,
        "16269": 142,
        "16270": 209,
        "16271": 175,
        "16272": 161,
        "16273": 75,
        "16274": 60,
        "16275": 48,
        "16276": 71,
        "16277": 129,
        "16278": 129,
        "16279": 187,
        "16280": 39,
        "16281": 190,
        "16282": 188,
        "16283": 161,
        "16284": 190,
        "16285": 123,
        "16286": 222,
        "16287": 112,
        "16288": 83,
        "16289": 75,
        "16290": 92,
        "16291": 169,
        "16292": 195,
        "16293": 40,
        "16294": 5,
        "16295": 186,
        "16296": 175,
        "16297": 52,
        "16298": 229,
        "16299": 199,
        "16300": 120,
        "16301": 247,
        "16302": 171,
        "16303": 219,
        "16304": 33,
        "16305": 157,
        "16306": 110,
        "16307": 126,
        "16308": 38,
        "16309": 65,
        "16310": 108,
        "16311": 96,
        "16312": 24,
        "16313": 96,
        "16314": 219,
        "16315": 110,
        "16316": 220,
        "16317": 108,
        "16318": 110,
        "16319": 119,
        "16320": 85,
        "16321": 59,
        "16322": 247,
        "16323": 149,
        "16324": 49,
        "16325": 172,
        "16326": 129,
        "16327": 237,
        "16328": 25,
        "16329": 190,
        "16330": 25,
        "16331": 155,
        "16332": 85,
        "16333": 15,
        "16334": 64,
        "16335": 235,
        "16336": 166,
        "16337": 24,
        "16338": 15,
        "16339": 214,
        "16340": 162,
        "16341": 189,
        "16342": 148,
        "16343": 239,
        "16344": 223,
        "16345": 222,
        "16346": 54,
        "16347": 202,
        "16348": 68,
        "16349": 69,
        "16350": 195,
        "16351": 56,
        "16352": 55,
        "16353": 60,
        "16354": 216,
        "16355": 146,
        "16356": 114,
        "16357": 102,
        "16358": 103,
        "16359": 10,
        "16360": 96,
        "16361": 149,
        "16362": 174,
        "16363": 116,
        "16364": 138,
        "16365": 81,
        "16366": 104,
        "16367": 243,
        "16368": 58,
        "16369": 209,
        "16370": 250,
        "16371": 1,
        "16372": 172,
        "16373": 235,
        "16374": 250,
        "16375": 66,
        "16376": 190,
        "16377": 74,
        "16378": 200,
        "16379": 94,
        "16380": 201,
        "16381": 11,
        "16382": 165,
        "16383": 241,
        "16384": 78,
        "16385": 134,
        "16386": 3,
        "16387": 158,
        "16388": 177,
        "16389": 229,
        "16390": 50,
        "16391": 218,
        "16392": 107,
        "16393": 75,
        "16394": 9,
        "16395": 13,
        "16396": 116,
        "16397": 91,
        "16398": 50,
        "16399": 220,
        "16400": 131,
        "16401": 67,
        "16402": 229,
        "16403": 204,
        "16404": 27,
        "16405": 18,
        "16406": 52,
        "16407": 76,
        "16408": 74,
        "16409": 70,
        "16410": 181,
        "16411": 35,
        "16412": 218,
        "16413": 238,
        "16414": 57,
        "16415": 95,
        "16416": 174,
        "16417": 193,
        "16418": 42,
        "16419": 148,
        "16420": 183,
        "16421": 249,
        "16422": 247,
        "16423": 53,
        "16424": 228,
        "16425": 124,
        "16426": 232,
        "16427": 54,
        "16428": 230,
        "16429": 102,
        "16430": 241,
        "16431": 16,
        "16432": 142,
        "16433": 35,
        "16434": 110,
        "16435": 38,
        "16436": 163,
        "16437": 102,
        "16438": 100,
        "16439": 68,
        "16440": 247,
        "16441": 152,
        "16442": 98,
        "16443": 158,
        "16444": 63,
        "16445": 159,
        "16446": 77,
        "16447": 249,
        "16448": 19,
        "16449": 199,
        "16450": 69,
        "16451": 194,
        "16452": 53,
        "16453": 68,
        "16454": 204,
        "16455": 148,
        "16456": 88,
        "16457": 249,
        "16458": 73,
        "16459": 104,
        "16460": 45,
        "16461": 253,
        "16462": 39,
        "16463": 234,
        "16464": 54,
        "16465": 197,
        "16466": 70,
        "16467": 101,
        "16468": 43,
        "16469": 177,
        "16470": 113,
        "16471": 242,
        "16472": 70,
        "16473": 147,
        "16474": 0,
        "16475": 227,
        "16476": 73,
        "16477": 90,
        "16478": 46,
        "16479": 146,
        "16480": 188,
        "16481": 25,
        "16482": 34,
        "16483": 143,
        "16484": 251,
        "16485": 151,
        "16486": 183,
        "16487": 58,
        "16488": 215,
        "16489": 152,
        "16490": 60,
        "16491": 149,
        "16492": 114,
        "16493": 62,
        "16494": 251,
        "16495": 70,
        "16496": 135,
        "16497": 98,
        "16498": 51,
        "16499": 62,
        "16500": 75,
        "16501": 91,
        "16502": 237,
        "16503": 119,
        "16504": 96,
        "16505": 110,
        "16506": 175,
        "16507": 31,
        "16508": 225,
        "16509": 104,
        "16510": 85,
        "16511": 239,
        "16512": 207,
        "16513": 32,
        "16514": 14,
        "16515": 80,
        "16516": 86,
        "16517": 7,
        "16518": 49,
        "16519": 163,
        "16520": 1,
        "16521": 8,
        "16522": 0,
        "16523": 0,
        "16524": 0,
        "16525": 0,
        "16526": 0,
        "16527": 0,
        "16528": 16,
        "16529": 0,
        "16530": 0,
        "16531": 0,
        "16532": 0,
        "16533": 0,
        "16534": 0,
        "16535": 0,
        "16536": 0,
        "16537": 0,
        "16538": 0,
        "16539": 0,
        "16540": 0,
        "16541": 0,
        "16542": 0,
        "16543": 0,
        "16544": 0,
        "16545": 0,
        "16546": 0,
        "16547": 0,
        "16548": 0,
        "16549": 0,
        "16550": 0,
        "16551": 0,
        "16552": 64,
        "16553": 0,
        "16554": 0,
        "16555": 0,
        "16556": 0,
        "16557": 0,
        "16558": 0,
        "16559": 0,
        "16560": 3,
        "16561": 0,
        "16562": 0,
        "16563": 0,
        "16564": 0,
        "16565": 0,
        "16566": 0,
        "16567": 0,
        "16568": 4,
        "16569": 0,
        "16570": 0,
        "16571": 0,
        "16572": 0,
        "16573": 0,
        "16574": 0,
        "16575": 0,
        "16576": 4,
        "16577": 0,
        "16578": 0,
        "16579": 0,
        "16580": 0,
        "16581": 0,
        "16582": 0,
        "16583": 0,
        "16584": 0,
        "16585": 0,
        "16586": 0,
        "16587": 0,
        "16588": 1,
        "16589": 0,
        "16590": 0,
        "16591": 0,
        "16592": 0,
        "16593": 0,
        "16594": 0,
        "16595": 0,
        "16596": 16,
        "16597": 0,
        "16598": 0,
        "16599": 0,
        "16600": 0,
        "16601": 0,
        "16602": 0,
        "16603": 0
      }
    }
  ],
  "numDeployments": 3,
  "solcInputHash": "c0e889dcb69b76266f445d0fe3402b92",
  "bytecode": "0x6101606040526200001760006200026660201b60201c565b6002553480156200002757600080fd5b50604051620046173803806200461783398181016040528101906200004d919062000b83565b6040518060400160405280600881526020017f46616b65205553440000000000000000000000000000000000000000000000008152506040518060400160405280600481526020017f6655534400000000000000000000000000000000000000000000000000000000815250338383836040518060400160405280601181526020017f4668656e6978205065726d697373696f6e0000000000000000000000000000008152506040518060400160405280600381526020017f312e3000000000000000000000000000000000000000000000000000000000008152506200013f6000836200028260201b90919060201c565b61012081815250506200015d6001826200028260201b90919060201c565b6101408181525050818051906020012060e08181525050808051906020012061010081815250504660a081815250506200019c620002da60201b60201c565b608081815250503073ffffffffffffffffffffffffffffffffffffffff1660c08173ffffffffffffffffffffffffffffffffffffffff168152505050508160059081620001ea919062000e1f565b508060069081620001fc919062000e1f565b505050600062000212826200033760201b60201c565b9050620002486200023c8262000230617fff6200026660201b60201c565b6200035560201b60201c565b620003f860201b60201c565b6200025a8382620004cb60201b60201c565b50505050505062001260565b60006200027b8260026200057160201b60201c565b9050919050565b6000602083511015620002a857620002a0836200062860201b60201c565b9050620002d4565b82620002ba836200069560201b60201c565b6000019081620002cb919062000e1f565b5060ff60001b90505b92915050565b60007f8b73c3c69bb8fe3d512ecc4cf759cc79239f7b179b0ffacaa9a75d522b39400f60e0516101005146306040516020016200031c95949392919062000f77565b60405160208183030381529060405280519060200120905090565b60006200034e82600001516200069f60201b60201c565b9050919050565b60006200036883620006bb60201b60201c565b62000382576200037f60006200026660201b60201c565b92505b6200039382620006bb60201b60201c565b620003ad57620003aa60006200026660201b60201c565b91505b600083905060008390506000620003ea60028484608073ffffffffffffffffffffffffffffffffffffffff1663eb274b77620006c860201b60201c565b905080935050505092915050565b62000409816200077960201b60201c565b62000423576200042060006200078660201b60201c565b90505b600081905060006200043b82620007a260201b60201c565b9050608073ffffffffffffffffffffffffffffffffffffffff16637d23f1db600d836040518363ffffffff1660e01b81526004016200047c9291906200104f565b600060405180830381865afa1580156200049a573d6000803e3d6000fd5b505050506040513d6000823e3d601f19601f82011682018060405250810190620004c5919062001083565b50505050565b62000516600360008473ffffffffffffffffffffffffffffffffffffffff1673ffffffffffffffffffffffffffffffffffffffff168152602001908152602001600020548262000803565b600360008473ffffffffffffffffffffffffffffffffffffffff1673ffffffffffffffffffffffffffffffffffffffff16815260200190815260200160002081905550620005676002548262000803565b6002819055505050565b60006060608073ffffffffffffffffffffffffffffffffffffffff166319e1c5c4620005a386620007a260201b60201c565b856040518363ffffffff1660e01b8152600401620005c3929190620010d4565b600060405180830381865afa158015620005e1573d6000803e3d6000fd5b505050506040513d6000823e3d601f19601f820116820180604052508101906200060c919062001083565b90506200061f816200081f60201b60201c565b91505092915050565b600080829050601f815111156200067857826040517f305a27a90000000000000000000000000000000000000000000000000000000081526004016200066f91906200115a565b60405180910390fd5b8051816200068690620011a5565b60001c1760001b915050919050565b6000819050919050565b6000620006b48260026200082d60201b60201c565b9050919050565b6000808214159050919050565b60006060838388620006e089620007a260201b60201c565b620006f189620007a260201b60201c565b6040518463ffffffff1660e01b8152600401620007119392919062001215565b600060405180830381865afa1580156200072f573d6000803e3d6000fd5b505050506040513d6000823e3d601f19601f820116820180604052508101906200075a919062001083565b90506200076d81620008d460201b60201c565b91505095945050505050565b6000808214159050919050565b60006200079b82600d6200057160201b60201c565b9050919050565b6060602067ffffffffffffffff811115620007c257620007c1620009ae565b5b6040519080825280601f01601f191660200182016040528015620007f55781602001600182028036833780820191505090505b509050816020820152919050565b6000620008178383620008e260201b60201c565b905092915050565b600060208201519050919050565b60006060608073ffffffffffffffffffffffffffffffffffffffff16635fa55ca784866040518363ffffffff1660e01b81526004016200086f9291906200104f565b600060405180830381865afa1580156200088d573d6000803e3d6000fd5b505050506040513d6000823e3d601f19601f82011682018060405250810190620008b8919062001083565b9050620008cb816200081f60201b60201c565b91505092915050565b600060208201519050919050565b6000620008f583620006bb60201b60201c565b6200090f576200090c60006200026660201b60201c565b92505b6200092082620006bb60201b60201c565b6200093a576200093760006200026660201b60201c565b91505b6000839050600083905060006200097660028484608073ffffffffffffffffffffffffffffffffffffffff16622df619620006c860201b60201c565b905080935050505092915050565b6000604051905090565b600080fd5b600080fd5b600080fd5b6000601f19601f8301169050919050565b7f4e487b7100000000000000000000000000000000000000000000000000000000600052604160045260246000fd5b620009e8826200099d565b810181811067ffffffffffffffff8211171562000a0a5762000a09620009ae565b5b80604052505050565b600062000a1f62000984565b905062000a2d8282620009dd565b919050565b600080fd5b600080fd5b600080fd5b600067ffffffffffffffff82111562000a5f5762000a5e620009ae565b5b62000a6a826200099d565b9050602081019050919050565b60005b8381101562000a9757808201518184015260208101905062000a7a565b60008484015250505050565b600062000aba62000ab48462000a41565b62000a13565b90508281526020810184848401111562000ad95762000ad862000a3c565b5b62000ae684828562000a77565b509392505050565b600082601f83011262000b065762000b0562000a37565b5b815162000b1884826020860162000aa3565b91505092915050565b60006020828403121562000b3a5762000b3962000998565b5b62000b46602062000a13565b9050600082015167ffffffffffffffff81111562000b695762000b6862000a32565b5b62000b778482850162000aee565b60008301525092915050565b60006020828403121562000b9c5762000b9b6200098e565b5b600082015167ffffffffffffffff81111562000bbd5762000bbc62000993565b5b62000bcb8482850162000b21565b91505092915050565b600081519050919050565b7f4e487b7100000000000000000000000000000000000000000000000000000000600052602260045260246000fd5b6000600282049050600182168062000c2757607f821691505b60208210810362000c3d5762000c3c62000bdf565b5b50919050565b60008190508160005260206000209050919050565b60006020601f8301049050919050565b600082821b905092915050565b60006008830262000ca77fffffffffffffffffffffffffffffffffffffffffffffffffffffffffffffffff8262000c68565b62000cb3868362000c68565b95508019841693508086168417925050509392505050565b6000819050919050565b6000819050919050565b600062000d0062000cfa62000cf48462000ccb565b62000cd5565b62000ccb565b9050919050565b6000819050919050565b62000d1c8362000cdf565b62000d3462000d2b8262000d07565b84845462000c75565b825550505050565b600090565b62000d4b62000d3c565b62000d5881848462000d11565b505050565b5b8181101562000d805762000d7460008262000d41565b60018101905062000d5e565b5050565b601f82111562000dcf5762000d998162000c43565b62000da48462000c58565b8101602085101562000db4578190505b62000dcc62000dc38562000c58565b83018262000d5d565b50505b505050565b600082821c905092915050565b600062000df46000198460080262000dd4565b1980831691505092915050565b600062000e0f838362000de1565b9150826002028217905092915050565b62000e2a8262000bd4565b67ffffffffffffffff81111562000e465762000e45620009ae565b5b62000e52825462000c0e565b62000e5f82828562000d84565b600060209050601f83116001811462000e97576000841562000e82578287015190505b62000e8e858262000e01565b86555062000efe565b601f19841662000ea78662000c43565b60005b8281101562000ed15784890151825560018201915060208501945060208101905062000eaa565b8683101562000ef1578489015162000eed601f89168262000de1565b8355505b6001600288020188555050505b505050505050565b6000819050919050565b62000f1b8162000f06565b82525050565b62000f2c8162000ccb565b82525050565b600073ffffffffffffffffffffffffffffffffffffffff82169050919050565b600062000f5f8262000f32565b9050919050565b62000f718162000f52565b82525050565b600060a08201905062000f8e600083018862000f10565b62000f9d602083018762000f10565b62000fac604083018662000f10565b62000fbb606083018562000f21565b62000fca608083018462000f66565b9695505050505050565b600060ff82169050919050565b62000fec8162000fd4565b82525050565b600081519050919050565b600082825260208201905092915050565b60006200101b8262000ff2565b62001027818562000ffd565b93506200103981856020860162000a77565b62001044816200099d565b840191505092915050565b600060408201905062001066600083018562000fe1565b81810360208301526200107a81846200100e565b90509392505050565b6000602082840312156200109c576200109b6200098e565b5b600082015167ffffffffffffffff811115620010bd57620010bc62000993565b5b620010cb8482850162000aee565b91505092915050565b60006040820190508181036000830152620010f081856200100e565b905062001101602083018462000fe1565b9392505050565b600082825260208201905092915050565b6000620011268262000bd4565b62001132818562001108565b93506200114481856020860162000a77565b6200114f816200099d565b840191505092915050565b6000602082019050818103600083015262001176818462001119565b905092915050565b6000819050602082019050919050565b60006200119c825162000f06565b80915050919050565b6000620011b28262000ff2565b82620011be846200117e565b9050620011cb816200118e565b925060208210156200120e57620012097fffffffffffffffffffffffffffffffffffffffffffffffffffffffffffffffff8360200360080262000c68565b831692505b5050919050565b60006060820190506200122c600083018662000fe1565b81810360208301526200124081856200100e565b905081810360408301526200125681846200100e565b9050949350505050565b60805160a05160c05160e05161010051610120516101405161335c620012bb60003960006118f5015260006118ba0152600061217f0152600061215e015260006119ea01526000611a4001526000611a69015261335c6000f3fe608060405234801561001057600080fd5b50600436106101425760003560e01c80637ecebe00116100b8578063a9059cbb1161007c578063a9059cbb146103b9578063af575a00146103e9578063c4224c1914610419578063d505accf14610449578063d918156e14610465578063dd62ed3e1461049557610142565b80637ecebe00146102fb57806384b0196e1461032b5780638624a3491461034f57806395d89b411461037f5780639f284be71461039d57610142565b80633644e5151161010a5780633644e5151461020157806339c217f71461021f5780635356c4291461024f578063602772041461027f5780636e0505e1146102af57806370a08231146102cb57610142565b806306fdde0314610147578063095ea7b31461016557806318160ddd1461019557806323b872dd146101b3578063313ce567146101e3575b600080fd5b61014f6104c5565b60405161015c9190612433565b60405180910390f35b61017f600480360381019061017a91906124fd565b610557565b60405161018c9190612558565b60405180910390f35b61019d6105ab565b6040516101aa9190612582565b60405180910390f35b6101cd60048036038101906101c8919061259d565b6105bd565b6040516101da9190612558565b60405180910390f35b6101eb610692565b6040516101f8919061260c565b60405180910390f35b610209610697565b6040516102169190612640565b60405180910390f35b6102396004803603810190610234919061267f565b610729565b6040516102469190612716565b60405180910390f35b61026960048036038101906102649190612750565b61074e565b6040516102769190612433565b60405180910390f35b61029960048036038101906102949190612983565b6108bf565b6040516102a69190612433565b60405180910390f35b6102c960048036038101906102c49190612a1b565b6109ec565b005b6102e560048036038101906102e09190612a48565b610b01565b6040516102f29190612582565b60405180910390f35b61031560048036038101906103109190612a48565b610b1c565b6040516103229190612582565b60405180910390f35b610333610b37565b6040516103469796959493929190612b7d565b60405180910390f35b61036960048036038101906103649190612c01565b610be1565b6040516103769190612716565b60405180910390f35b610387610c08565b6040516103949190612433565b60405180910390f35b6103b760048036038101906103b29190612a1b565b610c9a565b005b6103d360048036038101906103ce91906124fd565b610da7565b6040516103e09190612558565b60405180910390f35b61040360048036038101906103fe9190612c9c565b610e39565b6040516104109190612716565b60405180910390f35b610433600480360381019061042e9190612cef565b61118f565b6040516104409190612716565b60405180910390f35b610463600480360381019061045e9190612d5b565b611359565b005b61047f600480360381019061047a919061267f565b6114fd565b60405161048c9190612558565b60405180910390f35b6104af60048036038101906104aa9190612dfd565b6115f5565b6040516104bc9190612582565b60405180910390f35b6060600580546104d490612e6c565b80601f016020809104026020016040519081016040528092919081815260200182805461050090612e6c565b801561054d5780601f106105225761010080835404028352916020019161054d565b820191906000526020600020905b81548152906001019060200180831161053057829003601f168201915b5050505050905090565b600082602052637f5e9f20600c5233600052816034600c205581600052602c5160601c337f8c5be1e5ebec7d5bd14f71427d1e84f3dd0314c0f7b2291e5b200ac8c7c3b92560206000a36001905092915050565b60006805345cdf77eb68f44c54905090565b60006105ca848484611615565b8360601b33602052637f5e9f208117600c526034600c20805460018101156106085780851115610602576313be252b6000526004601cfd5b84810382555b6387a211a28317600c526020600c2080548087111561062f5763f4d678b86000526004601cfd5b8681038255876000526020600c2087815401815587602052600c5160601c8660601c7fddf252ad1be2c89b69c2b068fc378daa952ba7f163c4a11628f55a4df523b3ef602080a350505050505061068784848461161a565b600190509392505050565b600090565b6000806106a261161f565b90506000801b81036106c0576106b66104c5565b8051906020012090505b6040517f8b73c3c69bb8fe3d512ecc4cf759cc79239f7b179b0ffacaa9a75d522b39400f81528160208201527fc89efdaa54c0f20c7adf612882df0950f5a951637e0307cdcb4c672f298b8bc6604082015246606082015230608082015260a081209250505090565b6000610746836107418461073c90612ef5565b611624565b61118f565b905092915050565b60608161075a90612f08565b60006107b17f6bdaeb2d29561f159c7ef98b16b27015fb2aeb87209c7ee656226d912f59927d8360000151604051602001610796929190612f1b565b6040516020818303038152906040528051906020012061163a565b905060006107c3828460200151611654565b90503373ffffffffffffffffffffffffffffffffffffffff168173ffffffffffffffffffffffffffffffffffffffff161461082a576040517f3093a27700000000000000000000000000000000000000000000000000000000815260040160405180910390fd5b6108b4600460003373ffffffffffffffffffffffffffffffffffffffff1673ffffffffffffffffffffffffffffffffffffffff16815260200190815260200160002060008873ffffffffffffffffffffffffffffffffffffffff1673ffffffffffffffffffffffffffffffffffffffff168152602001908152602001600020548660000135611680565b935050505092915050565b60608183600061091a7f6bdaeb2d29561f159c7ef98b16b27015fb2aeb87209c7ee656226d912f59927d84600001516040516020016108ff929190612f1b565b6040516020818303038152906040528051906020012061163a565b9050600061092c828560200151611654565b90508273ffffffffffffffffffffffffffffffffffffffff168173ffffffffffffffffffffffffffffffffffffffff1614610993576040517f51c65eae00000000000000000000000000000000000000000000000000000000815260040160405180910390fd5b6109e0600360008973ffffffffffffffffffffffffffffffffffffffff1673ffffffffffffffffffffffffffffffffffffffff168152602001908152602001600020548760000151611680565b94505050505092915050565b6000610a45610a008363ffffffff166116b6565b600360003373ffffffffffffffffffffffffffffffffffffffff1673ffffffffffffffffffffffffffffffffffffffff168152602001908152602001600020546116ca565b9050610a90600360003373ffffffffffffffffffffffffffffffffffffffff1673ffffffffffffffffffffffffffffffffffffffff1681526020019081526020016000205482611743565b600360003373ffffffffffffffffffffffffffffffffffffffff1673ffffffffffffffffffffffffffffffffffffffff16815260200190815260200160002081905550610adf60025482611743565b600281905550610afd33610af283611757565b63ffffffff1661181a565b5050565b60006387a211a2600c52816000526020600c20549050919050565b60006338377508600c52816000526020600c20549050919050565b600060608060008060006060610b4b6118b1565b610b536118ec565b46306000801b600067ffffffffffffffff811115610b7457610b736127b1565b5b604051908082528060200260200182016040528015610ba25781602001602082028036833780820191505090505b507f0f00000000000000000000000000000000000000000000000000000000000000959493929190965096509650965096509650965090919293949596565b6000610bff8484610bfa85610bf590612ef5565b611624565b610e39565b90509392505050565b606060068054610c1790612e6c565b80601f0160208091040260200160405190810160405280929190818152602001828054610c4390612e6c565b8015610c905780601f10610c6557610100808354040283529160200191610c90565b820191906000526020600020905b815481529060010190602001808311610c7357829003601f168201915b5050505050905090565b8063ffffffff16610caa33610b01565b1015610ce2576040517ffda7bbda00000000000000000000000000000000000000000000000000000000815260040160405180910390fd5b610cf2338263ffffffff16611927565b6000610d038263ffffffff166116b6565b9050610d4e600360003373ffffffffffffffffffffffffffffffffffffffff1673ffffffffffffffffffffffffffffffffffffffff16815260200190815260200160002054826119be565b600360003373ffffffffffffffffffffffffffffffffffffffff1673ffffffffffffffffffffffffffffffffffffffff16815260200190815260200160002081905550610d9d600254826119be565b6002819055505050565b6000610db4338484611615565b6387a211a2600c52336000526020600c20805480841115610ddd5763f4d678b86000526004601cfd5b8381038255846000526020600c2084815401815584602052600c5160601c337fddf252ad1be2c89b69c2b068fc378daa952ba7f163c4a11628f55a4df523b3ef602080a3505050610e2f33848461161a565b6001905092915050565b600080610f0a83610f05600360008973ffffffffffffffffffffffffffffffffffffffff1673ffffffffffffffffffffffffffffffffffffffff16815260200190815260200160002054600460008a73ffffffffffffffffffffffffffffffffffffffff1673ffffffffffffffffffffffffffffffffffffffff16815260200190815260200160002060003373ffffffffffffffffffffffffffffffffffffffff1673ffffffffffffffffffffffffffffffffffffffff168152602001908152602001600020546116ca565b6116ca565b9050610f92600460008773ffffffffffffffffffffffffffffffffffffffff1673ffffffffffffffffffffffffffffffffffffffff16815260200190815260200160002060003373ffffffffffffffffffffffffffffffffffffffff1673ffffffffffffffffffffffffffffffffffffffff1681526020019081526020016000205482611743565b600460008773ffffffffffffffffffffffffffffffffffffffff1673ffffffffffffffffffffffffffffffffffffffff16815260200190815260200160002060003373ffffffffffffffffffffffffffffffffffffffff1673ffffffffffffffffffffffffffffffffffffffff1681526020019081526020016000208190555061105b600360008773ffffffffffffffffffffffffffffffffffffffff1673ffffffffffffffffffffffffffffffffffffffff1681526020019081526020016000205482611743565b600360008773ffffffffffffffffffffffffffffffffffffffff1673ffffffffffffffffffffffffffffffffffffffff168152602001908152602001600020819055506110e7600360008673ffffffffffffffffffffffffffffffffffffffff1673ffffffffffffffffffffffffffffffffffffffff16815260200190815260200160002054826119be565b600360008673ffffffffffffffffffffffffffffffffffffffff1673ffffffffffffffffffffffffffffffffffffffff168152602001908152602001600020819055508373ffffffffffffffffffffffffffffffffffffffff168573ffffffffffffffffffffffffffffffffffffffff167f7612539b010127d1a2f810eeff1131de23a28ecfa8228f92a9606a879300fbb560405160405180910390a3809150509392505050565b6000806111db83600360003373ffffffffffffffffffffffffffffffffffffffff1673ffffffffffffffffffffffffffffffffffffffff168152602001908152602001600020546116ca565b9050611226600360003373ffffffffffffffffffffffffffffffffffffffff1673ffffffffffffffffffffffffffffffffffffffff1681526020019081526020016000205482611743565b600360003373ffffffffffffffffffffffffffffffffffffffff1673ffffffffffffffffffffffffffffffffffffffff168152602001908152602001600020819055506112b2600360008673ffffffffffffffffffffffffffffffffffffffff1673ffffffffffffffffffffffffffffffffffffffff16815260200190815260200160002054826119be565b600360008673ffffffffffffffffffffffffffffffffffffffff1673ffffffffffffffffffffffffffffffffffffffff168152602001908152602001600020819055508373ffffffffffffffffffffffffffffffffffffffff163373ffffffffffffffffffffffffffffffffffffffff167f7612539b010127d1a2f810eeff1131de23a28ecfa8228f92a9606a879300fbb560405160405180910390a38091505092915050565b600061136361161f565b90506000801b8103611381576113776104c5565b8051906020012090505b8442111561139757631a15a3cc6000526004601cfd5b6040518860601b60601c98508760601b60601c975065383775081901600e52886000526020600c2080547f8b73c3c69bb8fe3d512ecc4cf759cc79239f7b179b0ffacaa9a75d522b39400f83528360208401527fc89efdaa54c0f20c7adf612882df0950f5a951637e0307cdcb4c672f298b8bc6604084015246606084015230608084015260a08320602e527f6e71edae12b1b97f4d1f60370fef10105fa2faae0126114a169c64845d6126c983528a60208401528960408401528860608401528060808401528760a084015260c08320604e526042602c206000528660ff1660205285604052846060526020806080600060015afa8b3d51146114a35763ddafbaef6000526004601cfd5b80820183558a637f5e9f2060a01b17604052896034602c20558a8c7f8c5be1e5ebec7d5bd14f71427d1e84f3dd0314c0f7b2291e5b200ac8c7c3b925602060608801a3836040526000606052505050505050505050505050565b60006115118261150c90612ef5565b611624565b600460003373ffffffffffffffffffffffffffffffffffffffff1673ffffffffffffffffffffffffffffffffffffffff16815260200190815260200160002060008573ffffffffffffffffffffffffffffffffffffffff1673ffffffffffffffffffffffffffffffffffffffff168152602001908152602001600020819055508273ffffffffffffffffffffffffffffffffffffffff163373ffffffffffffffffffffffffffffffffffffffff167f46f92913a39019d68e630493d23e0cf39761bf253f7b3f8eae384b33e393ed4e60405160405180910390a36001905092915050565b600081602052637f5e9f20600c52826000526034600c2054905092915050565b505050565b505050565b600090565b600061163382600001516119d2565b9050919050565b600061164d6116476119e6565b83611a9d565b9050919050565b6000806000806116648686611ade565b9250925092506116748282611b3a565b82935050505092915050565b606061168b83611c9e565b61169c5761169960006116b6565b92505b60008390506116ad60028285611cab565b91505092915050565b60006116c3826002611d61565b9050919050565b60006116d583611c9e565b6116e6576116e360006116b6565b92505b6116ef82611c9e565b611700576116fd60006116b6565b91505b60008390506000839050600061173560028484608073ffffffffffffffffffffffffffffffffffffffff16635211c679611e03565b905080935050505092915050565b600061174f8383611e97565b905092915050565b600061176282611c9e565b6117735761177060006116b6565b91505b6000829050600061178382611f10565b90506000608073ffffffffffffffffffffffffffffffffffffffff166373cc01546002846040518363ffffffff1660e01b81526004016117c4929190612f99565b602060405180830381865afa1580156117e1573d6000803e3d6000fd5b505050506040513d601f19601f820116820180604052508101906118059190612fde565b905061181081611f6d565b9350505050919050565b61182660008383611615565b6805345cdf77eb68f44c548181018181101561184a5763e5cfe9576000526004601cfd5b806805345cdf77eb68f44c556387a211a2600c52836000526020600c2083815401815583602052600c5160601c60007fddf252ad1be2c89b69c2b068fc378daa952ba7f163c4a11628f55a4df523b3ef602080a35050506118ad6000838361161a565b5050565b60606118e760007f0000000000000000000000000000000000000000000000000000000000000000611f7790919063ffffffff16565b905090565b606061192260017f0000000000000000000000000000000000000000000000000000000000000000611f7790919063ffffffff16565b905090565b61193382600083611615565b6387a211a2600c52816000526020600c2080548083111561195c5763f4d678b86000526004601cfd5b8281038255826805345cdf77eb68f44c54036805345cdf77eb68f44c558260005260008460601b60601c7fddf252ad1be2c89b69c2b068fc378daa952ba7f163c4a11628f55a4df523b3ef60206000a350506119ba8260008361161a565b5050565b60006119ca8383612027565b905092915050565b60006119df82600261209f565b9050919050565b60007f000000000000000000000000000000000000000000000000000000000000000073ffffffffffffffffffffffffffffffffffffffff163073ffffffffffffffffffffffffffffffffffffffff16148015611a6257507f000000000000000000000000000000000000000000000000000000000000000046145b15611a8f577f00000000000000000000000000000000000000000000000000000000000000009050611a9a565b611a97612139565b90505b90565b60006040517f190100000000000000000000000000000000000000000000000000000000000081528360028201528260228201526042812091505092915050565b60008060006041845103611b235760008060006020870151925060408701519150606087015160001a9050611b15888285856121cf565b955095509550505050611b33565b60006002855160001b9250925092505b9250925092565b60006003811115611b4e57611b4d61300b565b5b826003811115611b6157611b6061300b565b5b0315611c9a5760016003811115611b7b57611b7a61300b565b5b826003811115611b8e57611b8d61300b565b5b03611bc5576040517ff645eedf00000000000000000000000000000000000000000000000000000000815260040160405180910390fd5b60026003811115611bd957611bd861300b565b5b826003811115611bec57611beb61300b565b5b03611c31578060001c6040517ffce698f7000000000000000000000000000000000000000000000000000000008152600401611c289190612582565b60405180910390fd5b600380811115611c4457611c4361300b565b5b826003811115611c5757611c5661300b565b5b03611c9957806040517fd78bce0c000000000000000000000000000000000000000000000000000000008152600401611c909190612640565b60405180910390fd5b5b5050565b6000808214159050919050565b6060608073ffffffffffffffffffffffffffffffffffffffff1663a1848ff385611cd486611f10565b85604051602001611ce5919061305b565b6040516020818303038152906040526040518463ffffffff1660e01b8152600401611d1293929190613076565b600060405180830381865afa158015611d2f573d6000803e3d6000fd5b505050506040513d6000823e3d601f19601f82011682018060405250810190611d58919061315c565b90509392505050565b60006060608073ffffffffffffffffffffffffffffffffffffffff166319e1c5c4611d8b86611f10565b856040518363ffffffff1660e01b8152600401611da99291906131a5565b600060405180830381865afa158015611dc6573d6000803e3d6000fd5b505050506040513d6000823e3d601f19601f82011682018060405250810190611def9190613245565b9050611dfa816122c3565b91505092915050565b60006060838388611e1389611f10565b611e1c89611f10565b6040518463ffffffff1660e01b8152600401611e3a93929190613076565b600060405180830381865afa158015611e57573d6000803e3d6000fd5b505050506040513d6000823e3d601f19601f82011682018060405250810190611e809190613245565b9050611e8b816122d1565b91505095945050505050565b6000611ea283611c9e565b611eb357611eb060006116b6565b92505b611ebc82611c9e565b611ecd57611eca60006116b6565b91505b600083905060008390506000611f0260028484608073ffffffffffffffffffffffffffffffffffffffff1663cc2cbeff611e03565b905080935050505092915050565b6060602067ffffffffffffffff811115611f2d57611f2c6127b1565b5b6040519080825280601f01601f191660200182016040528015611f5f5781602001600182028036833780820191505090505b509050816020820152919050565b6000819050919050565b606060ff60001b8314611f9457611f8d836122df565b9050612021565b818054611fa090612e6c565b80601f0160208091040260200160405190810160405280929190818152602001828054611fcc90612e6c565b80156120195780601f10611fee57610100808354040283529160200191612019565b820191906000526020600020905b815481529060010190602001808311611ffc57829003601f168201915b505050505090505b92915050565b600061203283611c9e565b6120435761204060006116b6565b92505b61204c82611c9e565b61205d5761205a60006116b6565b91505b60008390506000839050600061209160028484608073ffffffffffffffffffffffffffffffffffffffff16622df619611e03565b905080935050505092915050565b60006060608073ffffffffffffffffffffffffffffffffffffffff16635fa55ca784866040518363ffffffff1660e01b81526004016120df929190612f99565b600060405180830381865afa1580156120fc573d6000803e3d6000fd5b505050506040513d6000823e3d601f19601f820116820180604052508101906121259190613245565b9050612130816122c3565b91505092915050565b60007f8b73c3c69bb8fe3d512ecc4cf759cc79239f7b179b0ffacaa9a75d522b39400f7f00000000000000000000000000000000000000000000000000000000000000007f000000000000000000000000000000000000000000000000000000000000000046306040516020016121b495949392919061328e565b60405160208183030381529060405280519060200120905090565b60008060007f7fffffffffffffffffffffffffffffff5d576e7357a4501ddfe92f46681b20a08460001c111561220f5760006003859250925092506122b9565b60006001888888886040516000815260200160405260405161223494939291906132e1565b6020604051602081039080840390855afa158015612256573d6000803e3d6000fd5b505050602060405103519050600073ffffffffffffffffffffffffffffffffffffffff168173ffffffffffffffffffffffffffffffffffffffff16036122aa57600060016000801b935093509350506122b9565b8060008060001b935093509350505b9450945094915050565b600060208201519050919050565b600060208201519050919050565b606060006122ec83612353565b90506000602067ffffffffffffffff81111561230b5761230a6127b1565b5b6040519080825280601f01601f19166020018201604052801561233d5781602001600182028036833780820191505090505b5090508181528360208201528092505050919050565b60008060ff8360001c169050601f81111561239a576040517fb3512b0c00000000000000000000000000000000000000000000000000000000815260040160405180910390fd5b80915050919050565b600081519050919050565b600082825260208201905092915050565b60005b838110156123dd5780820151818401526020810190506123c2565b60008484015250505050565b6000601f19601f8301169050919050565b6000612405826123a3565b61240f81856123ae565b935061241f8185602086016123bf565b612428816123e9565b840191505092915050565b6000602082019050818103600083015261244d81846123fa565b905092915050565b6000604051905090565b600080fd5b600080fd5b600073ffffffffffffffffffffffffffffffffffffffff82169050919050565b600061249482612469565b9050919050565b6124a481612489565b81146124af57600080fd5b50565b6000813590506124c18161249b565b92915050565b6000819050919050565b6124da816124c7565b81146124e557600080fd5b50565b6000813590506124f7816124d1565b92915050565b600080604083850312156125145761251361245f565b5b6000612522858286016124b2565b9250506020612533858286016124e8565b9150509250929050565b60008115159050919050565b6125528161253d565b82525050565b600060208201905061256d6000830184612549565b92915050565b61257c816124c7565b82525050565b60006020820190506125976000830184612573565b92915050565b6000806000606084860312156125b6576125b561245f565b5b60006125c4868287016124b2565b93505060206125d5868287016124b2565b92505060406125e6868287016124e8565b9150509250925092565b600060ff82169050919050565b612606816125f0565b82525050565b600060208201905061262160008301846125fd565b92915050565b6000819050919050565b61263a81612627565b82525050565b60006020820190506126556000830184612631565b92915050565b600080fd5b6000602082840312156126765761267561265b565b5b81905092915050565b600080604083850312156126965761269561245f565b5b60006126a4858286016124b2565b925050602083013567ffffffffffffffff8111156126c5576126c4612464565b5b6126d185828601612660565b9150509250929050565b6000819050919050565b60006127006126fb6126f6846124c7565b6126db565b6124c7565b9050919050565b612710816126e5565b82525050565b600060208201905061272b6000830184612707565b92915050565b6000604082840312156127475761274661265b565b5b81905092915050565b600080604083850312156127675761276661245f565b5b6000612775858286016124b2565b925050602083013567ffffffffffffffff81111561279657612795612464565b5b6127a285828601612731565b9150509250929050565b600080fd5b7f4e487b7100000000000000000000000000000000000000000000000000000000600052604160045260246000fd5b6127e9826123e9565b810181811067ffffffffffffffff82111715612808576128076127b1565b5b80604052505050565b600061281b612455565b905061282782826127e0565b919050565b600080fd5b61283a81612627565b811461284557600080fd5b50565b60008135905061285781612831565b92915050565b600080fd5b600080fd5b600067ffffffffffffffff821115612882576128816127b1565b5b61288b826123e9565b9050602081019050919050565b82818337600083830152505050565b60006128ba6128b584612867565b612811565b9050828152602081018484840111156128d6576128d5612862565b5b6128e1848285612898565b509392505050565b600082601f8301126128fe576128fd61285d565b5b813561290e8482602086016128a7565b91505092915050565b60006040828403121561292d5761292c6127ac565b5b6129376040612811565b9050600061294784828501612848565b600083015250602082013567ffffffffffffffff81111561296b5761296a61282c565b5b612977848285016128e9565b60208301525092915050565b6000806040838503121561299a5761299961245f565b5b60006129a8858286016124b2565b925050602083013567ffffffffffffffff8111156129c9576129c8612464565b5b6129d585828601612917565b9150509250929050565b600063ffffffff82169050919050565b6129f8816129df565b8114612a0357600080fd5b50565b600081359050612a15816129ef565b92915050565b600060208284031215612a3157612a3061245f565b5b6000612a3f84828501612a06565b91505092915050565b600060208284031215612a5e57612a5d61245f565b5b6000612a6c848285016124b2565b91505092915050565b60007fff0000000000000000000000000000000000000000000000000000000000000082169050919050565b612aaa81612a75565b82525050565b612ab981612489565b82525050565b600081519050919050565b600082825260208201905092915050565b6000819050602082019050919050565b612af4816124c7565b82525050565b6000612b068383612aeb565b60208301905092915050565b6000602082019050919050565b6000612b2a82612abf565b612b348185612aca565b9350612b3f83612adb565b8060005b83811015612b70578151612b578882612afa565b9750612b6283612b12565b925050600181019050612b43565b5085935050505092915050565b600060e082019050612b92600083018a612aa1565b8181036020830152612ba481896123fa565b90508181036040830152612bb881886123fa565b9050612bc76060830187612573565b612bd46080830186612ab0565b612be160a0830185612631565b81810360c0830152612bf38184612b1f565b905098975050505050505050565b600080600060608486031215612c1a57612c1961245f565b5b6000612c28868287016124b2565b9350506020612c39868287016124b2565b925050604084013567ffffffffffffffff811115612c5a57612c59612464565b5b612c6686828701612660565b9150509250925092565b612c79816124c7565b8114612c8457600080fd5b50565b600081359050612c9681612c70565b92915050565b600080600060608486031215612cb557612cb461245f565b5b6000612cc3868287016124b2565b9350506020612cd4868287016124b2565b9250506040612ce586828701612c87565b9150509250925092565b60008060408385031215612d0657612d0561245f565b5b6000612d14858286016124b2565b9250506020612d2585828601612c87565b9150509250929050565b612d38816125f0565b8114612d4357600080fd5b50565b600081359050612d5581612d2f565b92915050565b600080600080600080600060e0888a031215612d7a57612d7961245f565b5b6000612d888a828b016124b2565b9750506020612d998a828b016124b2565b9650506040612daa8a828b016124e8565b9550506060612dbb8a828b016124e8565b9450506080612dcc8a828b01612d46565b93505060a0612ddd8a828b01612848565b92505060c0612dee8a828b01612848565b91505092959891949750929550565b60008060408385031215612e1457612e1361245f565b5b6000612e22858286016124b2565b9250506020612e33858286016124b2565b9150509250929050565b7f4e487b7100000000000000000000000000000000000000000000000000000000600052602260045260246000fd5b60006002820490506001821680612e8457607f821691505b602082108103612e9757612e96612e3d565b5b50919050565b600060208284031215612eb357612eb26127ac565b5b612ebd6020612811565b9050600082013567ffffffffffffffff811115612edd57612edc61282c565b5b612ee9848285016128e9565b60008301525092915050565b6000612f013683612e9d565b9050919050565b6000612f143683612917565b9050919050565b6000604082019050612f306000830185612631565b612f3d6020830184612631565b9392505050565b600081519050919050565b600082825260208201905092915050565b6000612f6b82612f44565b612f758185612f4f565b9350612f858185602086016123bf565b612f8e816123e9565b840191505092915050565b6000604082019050612fae60008301856125fd565b8181036020830152612fc08184612f60565b90509392505050565b600081519050612fd8816124d1565b92915050565b600060208284031215612ff457612ff361245f565b5b600061300284828501612fc9565b91505092915050565b7f4e487b7100000000000000000000000000000000000000000000000000000000600052602160045260246000fd5b6000819050919050565b61305561305082612627565b61303a565b82525050565b60006130678284613044565b60208201915081905092915050565b600060608201905061308b60008301866125fd565b818103602083015261309d8185612f60565b905081810360408301526130b18184612f60565b9050949350505050565b600067ffffffffffffffff8211156130d6576130d56127b1565b5b6130df826123e9565b9050602081019050919050565b60006130ff6130fa846130bb565b612811565b90508281526020810184848401111561311b5761311a612862565b5b6131268482856123bf565b509392505050565b600082601f8301126131435761314261285d565b5b81516131538482602086016130ec565b91505092915050565b6000602082840312156131725761317161245f565b5b600082015167ffffffffffffffff8111156131905761318f612464565b5b61319c8482850161312e565b91505092915050565b600060408201905081810360008301526131bf8185612f60565b90506131ce60208301846125fd565b9392505050565b60006131e86131e384612867565b612811565b90508281526020810184848401111561320457613203612862565b5b61320f8482856123bf565b509392505050565b600082601f83011261322c5761322b61285d565b5b815161323c8482602086016131d5565b91505092915050565b60006020828403121561325b5761325a61245f565b5b600082015167ffffffffffffffff81111561327957613278612464565b5b61328584828501613217565b91505092915050565b600060a0820190506132a36000830188612631565b6132b06020830187612631565b6132bd6040830186612631565b6132ca6060830185612573565b6132d76080830184612ab0565b9695505050505050565b60006080820190506132f66000830187612631565b61330360208301866125fd565b6133106040830185612631565b61331d6060830184612631565b9594505050505056fea264697066735822122058197cac2b77cb9bd316ff9903122d58cec9c086f803140087396e89c46f21c964736f6c63430008180033",
  "devdoc": {
    "errors": {
      "AllowanceOverflow()": [
        {
          "details": "The allowance has overflowed."
        }
      ],
      "AllowanceUnderflow()": [
        {
          "details": "The allowance has underflowed."
        }
      ],
      "ECDSAInvalidSignature()": [
        {
          "details": "The signature derives the `address(0)`."
        }
      ],
      "ECDSAInvalidSignatureLength(uint256)": [
        {
          "details": "The signature has an invalid length."
        }
      ],
      "ECDSAInvalidSignatureS(bytes32)": [
        {
          "details": "The signature has an S value that is in the upper half order."
        }
      ],
      "InsufficientAllowance()": [
        {
          "details": "Insufficient allowance."
        }
      ],
      "InsufficientBalance()": [
        {
          "details": "Insufficient balance."
        }
      ],
      "InvalidPermit()": [
        {
          "details": "The permit is invalid."
        }
      ],
      "PermitExpired()": [
        {
          "details": "The permit has expired."
        }
      ],
      "TotalSupplyOverflow()": [
        {
          "details": "The total supply has overflowed."
        }
      ]
    },
    "events": {
      "Approval(address,address,uint256)": {
        "details": "Emitted when `amount` tokens is approved by `owner` to be used by `spender`."
      },
      "ApprovalEncrypted(address,address)": {
        "details": "Emitted when the allowance of a `spender` for an `owner` is set by a call to {approveEncrypted}. `value` is the new allowance."
      },
      "EIP712DomainChanged()": {
        "details": "MAY be emitted to signal that the domain could have changed."
      },
      "Transfer(address,address,uint256)": {
        "details": "Emitted when `amount` tokens is transferred from `from` to `to`."
      },
      "TransferEncrypted(address,address)": {
        "details": "Emitted when `value` tokens are moved from one account (`from`) to another (`to`). Note that `value` may be zero."
      }
    },
    "kind": "dev",
    "methods": {
      "DOMAIN_SEPARATOR()": {
        "details": "Returns the EIP-712 domain separator for the EIP-2612 permit."
      },
      "allowance(address,address)": {
        "details": "Returns the amount of tokens that `spender` can spend on behalf of `owner`."
      },
      "allowanceEncrypted(address,(bytes32,bytes))": {
        "details": "Returns the remaining number of tokens that `spender` will be allowed to spend on behalf of `owner` through {transferFrom}. This is zero by default. This value changes when {approve} or {transferFrom} are called."
      },
      "approve(address,uint256)": {
        "details": "Sets `amount` as the allowance of `spender` over the caller's tokens. Emits a {Approval} event."
      },
      "approveEncrypted(address,(bytes))": {
        "details": "Sets a `value` amount of tokens as the allowance of `spender` over the caller's tokens. Returns a boolean value indicating whether the operation succeeded. IMPORTANT: Beware that changing an allowance with this method brings the risk that someone may use both the old and the new allowance by unfortunate transaction ordering. One possible solution to mitigate this race condition is to first reduce the spender's allowance to 0 and set the desired value afterwards: https://github.com/ethereum/EIPs/issues/20#issuecomment-263524729 Emits an {ApprovalEncrypted} event."
      },
      "balanceOf(address)": {
        "details": "Returns the amount of tokens owned by `owner`."
      },
      "balanceOfEncrypted(address,(bytes32,bytes))": {
        "details": "Returns the value of tokens owned by `account`, sealed and encrypted for the caller."
      },
      "decimals()": {
        "details": "Returns the decimals places of the token."
      },
      "eip712Domain()": {
        "details": "See {IERC-5267}."
      },
      "name()": {
        "details": "Returns the name of the token."
      },
      "nonces(address)": {
        "details": "Returns the current nonce for `owner`. This value is used to compute the signature for EIP-2612 permit."
      },
      "permit(address,address,uint256,uint256,uint8,bytes32,bytes32)": {
        "details": "Sets `value` as the allowance of `spender` over the tokens of `owner`, authorized by a signed approval by `owner`. Emits a {Approval} event."
      },
      "symbol()": {
        "details": "Returns the symbol of the token."
      },
      "totalSupply()": {
        "details": "Returns the amount of tokens in existence."
      },
      "transfer(address,uint256)": {
        "details": "Transfer `amount` tokens from the caller to `to`. Requirements: - `from` must at least have `amount`. Emits a {Transfer} event."
      },
      "transferFrom(address,address,uint256)": {
        "details": "Transfers `amount` tokens from `from` to `to`. Note: Does not update the allowance if it is the maximum uint256 value. Requirements: - `from` must at least have `amount`. - The caller must have at least `amount` of allowance to transfer the tokens of `from`. Emits a {Transfer} event."
      },
      "transferFromEncrypted(address,address,(bytes))": {
        "details": "Moves a `value` amount of tokens from `from` to `to` using the allowance mechanism. `value` is then deducted from the caller's allowance. Returns a boolean value indicating whether the operation succeeded. Emits a {TransferEncrypted} event."
      }
    },
    "version": 1
  },
  "userdoc": {
    "errors": {
      "SignerNotMessageSender()": [
        {
          "notice": "Emitted when the signer is not the message sender"
        }
      ],
      "SignerNotOwner()": [
        {
          "notice": "Emitted when the signer is not the specified owner"
        }
      ]
    },
    "kind": "user",
    "methods": {},
    "version": 1
  },
  "storageLayout": {
    "storage": [
      {
        "astId": 16568,
        "contract": "contracts/tokens/FakeUSD.sol:FakeUSD",
        "label": "_nameFallback",
        "offset": 0,
        "slot": "0",
        "type": "t_string_storage"
      },
      {
        "astId": 16570,
        "contract": "contracts/tokens/FakeUSD.sol:FakeUSD",
        "label": "_versionFallback",
        "offset": 0,
        "slot": "1",
        "type": "t_string_storage"
      },
      {
        "astId": 18126,
        "contract": "contracts/tokens/FakeUSD.sol:FakeUSD",
        "label": "_encTotalSupply",
        "offset": 0,
        "slot": "2",
        "type": "t_userDefinedValueType(euint32)12"
      },
      {
        "astId": 18131,
        "contract": "contracts/tokens/FakeUSD.sol:FakeUSD",
        "label": "_encBalanceOf",
        "offset": 0,
        "slot": "3",
        "type": "t_mapping(t_address,t_userDefinedValueType(euint32)12)"
      },
      {
        "astId": 18138,
        "contract": "contracts/tokens/FakeUSD.sol:FakeUSD",
        "label": "_encAllowance",
        "offset": 0,
        "slot": "4",
        "type": "t_mapping(t_address,t_mapping(t_address,t_userDefinedValueType(euint32)12))"
      },
      {
        "astId": 18140,
        "contract": "contracts/tokens/FakeUSD.sol:FakeUSD",
        "label": "_name",
        "offset": 0,
        "slot": "5",
        "type": "t_string_storage"
      },
      {
        "astId": 18142,
        "contract": "contracts/tokens/FakeUSD.sol:FakeUSD",
        "label": "_symbol",
        "offset": 0,
        "slot": "6",
        "type": "t_string_storage"
      }
    ],
    "types": {
      "t_address": {
        "encoding": "inplace",
        "label": "address",
        "numberOfBytes": "20"
      },
      "t_mapping(t_address,t_mapping(t_address,t_userDefinedValueType(euint32)12))": {
        "encoding": "mapping",
        "key": "t_address",
        "label": "mapping(address => mapping(address => euint32))",
        "numberOfBytes": "32",
        "value": "t_mapping(t_address,t_userDefinedValueType(euint32)12)"
      },
      "t_mapping(t_address,t_userDefinedValueType(euint32)12)": {
        "encoding": "mapping",
        "key": "t_address",
        "label": "mapping(address => euint32)",
        "numberOfBytes": "32",
        "value": "t_userDefinedValueType(euint32)12"
      },
      "t_string_storage": {
        "encoding": "bytes",
        "label": "string",
        "numberOfBytes": "32"
      },
      "t_userDefinedValueType(euint32)12": {
        "encoding": "inplace",
        "label": "euint32",
        "numberOfBytes": "32"
      }
    }
  }
}