{
  "address": "0xcB015e41d9C77Ca8744E297Bdedd8b07D3F02fdf",
  "abi": [
    {
      "inputs": [
        {
          "components": [
            {
              "internalType": "bytes",
              "name": "data",
              "type": "bytes"
            }
          ],
          "internalType": "struct inEuint32",
          "name": "_initialSupply",
          "type": "tuple"
        }
      ],
      "stateMutability": "nonpayable",
      "type": "constructor"
    },
    {
      "inputs": [],
      "name": "AllowanceOverflow",
      "type": "error"
    },
    {
      "inputs": [],
      "name": "AllowanceUnderflow",
      "type": "error"
    },
    {
      "inputs": [],
      "name": "ECDSAInvalidSignature",
      "type": "error"
    },
    {
      "inputs": [
        {
          "internalType": "uint256",
          "name": "length",
          "type": "uint256"
        }
      ],
      "name": "ECDSAInvalidSignatureLength",
      "type": "error"
    },
    {
      "inputs": [
        {
          "internalType": "bytes32",
          "name": "s",
          "type": "bytes32"
        }
      ],
      "name": "ECDSAInvalidSignatureS",
      "type": "error"
    },
    {
      "inputs": [],
      "name": "ErrorInsufficientFunds",
      "type": "error"
    },
    {
      "inputs": [],
      "name": "InsufficientAllowance",
      "type": "error"
    },
    {
      "inputs": [],
      "name": "InsufficientBalance",
      "type": "error"
    },
    {
      "inputs": [],
      "name": "InvalidPermit",
      "type": "error"
    },
    {
      "inputs": [],
      "name": "InvalidShortString",
      "type": "error"
    },
    {
      "inputs": [],
      "name": "PermitExpired",
      "type": "error"
    },
    {
      "inputs": [],
      "name": "SignerNotMessageSender",
      "type": "error"
    },
    {
      "inputs": [],
      "name": "SignerNotOwner",
      "type": "error"
    },
    {
      "inputs": [
        {
          "internalType": "string",
          "name": "str",
          "type": "string"
        }
      ],
      "name": "StringTooLong",
      "type": "error"
    },
    {
      "inputs": [],
      "name": "TotalSupplyOverflow",
      "type": "error"
    },
    {
      "anonymous": false,
      "inputs": [
        {
          "indexed": true,
          "internalType": "address",
          "name": "owner",
          "type": "address"
        },
        {
          "indexed": true,
          "internalType": "address",
          "name": "spender",
          "type": "address"
        },
        {
          "indexed": false,
          "internalType": "uint256",
          "name": "amount",
          "type": "uint256"
        }
      ],
      "name": "Approval",
      "type": "event"
    },
    {
      "anonymous": false,
      "inputs": [
        {
          "indexed": true,
          "internalType": "address",
          "name": "owner",
          "type": "address"
        },
        {
          "indexed": true,
          "internalType": "address",
          "name": "spender",
          "type": "address"
        }
      ],
      "name": "ApprovalEncrypted",
      "type": "event"
    },
    {
      "anonymous": false,
      "inputs": [],
      "name": "EIP712DomainChanged",
      "type": "event"
    },
    {
      "anonymous": false,
      "inputs": [
        {
          "indexed": true,
          "internalType": "address",
          "name": "from",
          "type": "address"
        },
        {
          "indexed": true,
          "internalType": "address",
          "name": "to",
          "type": "address"
        },
        {
          "indexed": false,
          "internalType": "uint256",
          "name": "amount",
          "type": "uint256"
        }
      ],
      "name": "Transfer",
      "type": "event"
    },
    {
      "anonymous": false,
      "inputs": [
        {
          "indexed": true,
          "internalType": "address",
          "name": "from",
          "type": "address"
        },
        {
          "indexed": true,
          "internalType": "address",
          "name": "to",
          "type": "address"
        }
      ],
      "name": "TransferEncrypted",
      "type": "event"
    },
    {
      "inputs": [],
      "name": "DOMAIN_SEPARATOR",
      "outputs": [
        {
          "internalType": "bytes32",
          "name": "result",
          "type": "bytes32"
        }
      ],
      "stateMutability": "view",
      "type": "function"
    },
    {
      "inputs": [
        {
          "internalType": "address",
          "name": "owner",
          "type": "address"
        },
        {
          "internalType": "address",
          "name": "spender",
          "type": "address"
        }
      ],
      "name": "allowance",
      "outputs": [
        {
          "internalType": "uint256",
          "name": "result",
          "type": "uint256"
        }
      ],
      "stateMutability": "view",
      "type": "function"
    },
    {
      "inputs": [
        {
          "internalType": "address",
          "name": "spender",
          "type": "address"
        },
        {
          "components": [
            {
              "internalType": "bytes32",
              "name": "publicKey",
              "type": "bytes32"
            },
            {
              "internalType": "bytes",
              "name": "signature",
              "type": "bytes"
            }
          ],
          "internalType": "struct Permission",
          "name": "permission",
          "type": "tuple"
        }
      ],
      "name": "allowanceEncrypted",
      "outputs": [
        {
          "internalType": "string",
          "name": "",
          "type": "string"
        }
      ],
      "stateMutability": "view",
      "type": "function"
    },
    {
      "inputs": [
        {
          "internalType": "address",
          "name": "spender",
          "type": "address"
        },
        {
          "internalType": "uint256",
          "name": "amount",
          "type": "uint256"
        }
      ],
      "name": "approve",
      "outputs": [
        {
          "internalType": "bool",
          "name": "",
          "type": "bool"
        }
      ],
      "stateMutability": "nonpayable",
      "type": "function"
    },
    {
      "inputs": [
        {
          "internalType": "address",
          "name": "spender",
          "type": "address"
        },
        {
          "components": [
            {
              "internalType": "bytes",
              "name": "data",
              "type": "bytes"
            }
          ],
          "internalType": "struct inEuint32",
          "name": "value",
          "type": "tuple"
        }
      ],
      "name": "approveEncrypted",
      "outputs": [
        {
          "internalType": "bool",
          "name": "",
          "type": "bool"
        }
      ],
      "stateMutability": "nonpayable",
      "type": "function"
    },
    {
      "inputs": [
        {
          "internalType": "address",
          "name": "owner",
          "type": "address"
        }
      ],
      "name": "balanceOf",
      "outputs": [
        {
          "internalType": "uint256",
          "name": "result",
          "type": "uint256"
        }
      ],
      "stateMutability": "view",
      "type": "function"
    },
    {
      "inputs": [
        {
          "internalType": "address",
          "name": "account",
          "type": "address"
        },
        {
          "components": [
            {
              "internalType": "bytes32",
              "name": "publicKey",
              "type": "bytes32"
            },
            {
              "internalType": "bytes",
              "name": "signature",
              "type": "bytes"
            }
          ],
          "internalType": "struct Permission",
          "name": "auth",
          "type": "tuple"
        }
      ],
      "name": "balanceOfEncrypted",
      "outputs": [
        {
          "internalType": "string",
          "name": "",
          "type": "string"
        }
      ],
      "stateMutability": "view",
      "type": "function"
    },
    {
      "inputs": [],
      "name": "decimals",
      "outputs": [
        {
          "internalType": "uint8",
          "name": "",
          "type": "uint8"
        }
      ],
      "stateMutability": "pure",
      "type": "function"
    },
    {
      "inputs": [],
      "name": "eip712Domain",
      "outputs": [
        {
          "internalType": "bytes1",
          "name": "fields",
          "type": "bytes1"
        },
        {
          "internalType": "string",
          "name": "name",
          "type": "string"
        },
        {
          "internalType": "string",
          "name": "version",
          "type": "string"
        },
        {
          "internalType": "uint256",
          "name": "chainId",
          "type": "uint256"
        },
        {
          "internalType": "address",
          "name": "verifyingContract",
          "type": "address"
        },
        {
          "internalType": "bytes32",
          "name": "salt",
          "type": "bytes32"
        },
        {
          "internalType": "uint256[]",
          "name": "extensions",
          "type": "uint256[]"
        }
      ],
      "stateMutability": "view",
      "type": "function"
    },
    {
      "inputs": [],
      "name": "name",
      "outputs": [
        {
          "internalType": "string",
          "name": "",
          "type": "string"
        }
      ],
      "stateMutability": "view",
      "type": "function"
    },
    {
      "inputs": [
        {
          "internalType": "address",
          "name": "owner",
          "type": "address"
        }
      ],
      "name": "nonces",
      "outputs": [
        {
          "internalType": "uint256",
          "name": "result",
          "type": "uint256"
        }
      ],
      "stateMutability": "view",
      "type": "function"
    },
    {
      "inputs": [
        {
          "internalType": "address",
          "name": "owner",
          "type": "address"
        },
        {
          "internalType": "address",
          "name": "spender",
          "type": "address"
        },
        {
          "internalType": "uint256",
          "name": "value",
          "type": "uint256"
        },
        {
          "internalType": "uint256",
          "name": "deadline",
          "type": "uint256"
        },
        {
          "internalType": "uint8",
          "name": "v",
          "type": "uint8"
        },
        {
          "internalType": "bytes32",
          "name": "r",
          "type": "bytes32"
        },
        {
          "internalType": "bytes32",
          "name": "s",
          "type": "bytes32"
        }
      ],
      "name": "permit",
      "outputs": [],
      "stateMutability": "nonpayable",
      "type": "function"
    },
    {
      "inputs": [],
      "name": "symbol",
      "outputs": [
        {
          "internalType": "string",
          "name": "",
          "type": "string"
        }
      ],
      "stateMutability": "view",
      "type": "function"
    },
    {
      "inputs": [],
      "name": "totalSupply",
      "outputs": [
        {
          "internalType": "uint256",
          "name": "result",
          "type": "uint256"
        }
      ],
      "stateMutability": "view",
      "type": "function"
    },
    {
      "inputs": [
        {
          "internalType": "address",
          "name": "to",
          "type": "address"
        },
        {
          "internalType": "uint256",
          "name": "amount",
          "type": "uint256"
        }
      ],
      "name": "transfer",
      "outputs": [
        {
          "internalType": "bool",
          "name": "",
          "type": "bool"
        }
      ],
      "stateMutability": "nonpayable",
      "type": "function"
    },
    {
      "inputs": [
        {
          "internalType": "address",
          "name": "to",
          "type": "address"
        },
        {
          "components": [
            {
              "internalType": "bytes",
              "name": "data",
              "type": "bytes"
            }
          ],
          "internalType": "struct inEuint32",
          "name": "encryptedAmount",
          "type": "tuple"
        }
      ],
      "name": "transferEncrypted",
      "outputs": [
        {
          "internalType": "euint32",
          "name": "",
          "type": "uint256"
        }
      ],
      "stateMutability": "nonpayable",
      "type": "function"
    },
    {
      "inputs": [
        {
          "internalType": "address",
          "name": "to",
          "type": "address"
        },
        {
          "internalType": "euint32",
          "name": "amount",
          "type": "uint256"
        }
      ],
      "name": "transferEncrypted",
      "outputs": [
        {
          "internalType": "euint32",
          "name": "",
          "type": "uint256"
        }
      ],
      "stateMutability": "nonpayable",
      "type": "function"
    },
    {
      "inputs": [
        {
          "internalType": "address",
          "name": "from",
          "type": "address"
        },
        {
          "internalType": "address",
          "name": "to",
          "type": "address"
        },
        {
          "internalType": "uint256",
          "name": "amount",
          "type": "uint256"
        }
      ],
      "name": "transferFrom",
      "outputs": [
        {
          "internalType": "bool",
          "name": "",
          "type": "bool"
        }
      ],
      "stateMutability": "nonpayable",
      "type": "function"
    },
    {
      "inputs": [
        {
          "internalType": "address",
          "name": "from",
          "type": "address"
        },
        {
          "internalType": "address",
          "name": "to",
          "type": "address"
        },
        {
          "components": [
            {
              "internalType": "bytes",
              "name": "data",
              "type": "bytes"
            }
          ],
          "internalType": "struct inEuint32",
          "name": "value",
          "type": "tuple"
        }
      ],
      "name": "transferFromEncrypted",
      "outputs": [
        {
          "internalType": "euint32",
          "name": "",
          "type": "uint256"
        }
      ],
      "stateMutability": "nonpayable",
      "type": "function"
    },
    {
      "inputs": [
        {
          "internalType": "address",
          "name": "from",
          "type": "address"
        },
        {
          "internalType": "address",
          "name": "to",
          "type": "address"
        },
        {
          "internalType": "euint32",
          "name": "value",
          "type": "uint256"
        }
      ],
      "name": "transferFromEncrypted",
      "outputs": [
        {
          "internalType": "euint32",
          "name": "",
          "type": "uint256"
        }
      ],
      "stateMutability": "nonpayable",
      "type": "function"
    },
    {
      "inputs": [
        {
          "internalType": "uint32",
          "name": "amount",
          "type": "uint32"
        }
      ],
      "name": "unwrap",
      "outputs": [],
      "stateMutability": "nonpayable",
      "type": "function"
    },
    {
      "inputs": [
        {
          "internalType": "uint32",
          "name": "amount",
          "type": "uint32"
        }
      ],
      "name": "wrap",
      "outputs": [],
      "stateMutability": "nonpayable",
      "type": "function"
    }
  ],
  "transactionHash": "0x45e02a25b838ad201ac8a1bf71b9c1f54ea49e3a35747fb6d6c3e0852d5eb525",
  "args": [
    {
      "data": {
        "0": 16,
        "1": 8,
        "2": 0,
        "3": 0,
        "4": 0,
        "5": 0,
        "6": 0,
        "7": 0,
        "8": 39,
        "9": 190,
        "10": 25,
        "11": 149,
        "12": 109,
        "13": 156,
        "14": 131,
        "15": 107,
        "16": 142,
        "17": 159,
        "18": 54,
        "19": 227,
        "20": 214,
        "21": 133,
        "22": 7,
        "23": 118,
        "24": 120,
        "25": 111,
        "26": 130,
        "27": 254,
        "28": 222,
        "29": 80,
        "30": 209,
        "31": 164,
        "32": 118,
        "33": 83,
        "34": 201,
        "35": 208,
        "36": 160,
        "37": 37,
        "38": 40,
        "39": 28,
        "40": 129,
        "41": 125,
        "42": 108,
        "43": 162,
        "44": 42,
        "45": 163,
        "46": 76,
        "47": 42,
        "48": 88,
        "49": 138,
        "50": 141,
        "51": 81,
        "52": 110,
        "53": 22,
        "54": 16,
        "55": 78,
        "56": 148,
        "57": 78,
        "58": 132,
        "59": 132,
        "60": 83,
        "61": 71,
        "62": 23,
        "63": 35,
        "64": 99,
        "65": 106,
        "66": 185,
        "67": 114,
        "68": 58,
        "69": 139,
        "70": 74,
        "71": 189,
        "72": 110,
        "73": 154,
        "74": 21,
        "75": 76,
        "76": 13,
        "77": 134,
        "78": 46,
        "79": 152,
        "80": 55,
        "81": 117,
        "82": 141,
        "83": 220,
        "84": 125,
        "85": 176,
        "86": 70,
        "87": 239,
        "88": 242,
        "89": 78,
        "90": 6,
        "91": 93,
        "92": 254,
        "93": 116,
        "94": 77,
        "95": 195,
        "96": 240,
        "97": 158,
        "98": 139,
        "99": 244,
        "100": 193,
        "101": 198,
        "102": 86,
        "103": 189,
        "104": 215,
        "105": 183,
        "106": 161,
        "107": 163,
        "108": 228,
        "109": 129,
        "110": 211,
        "111": 120,
        "112": 138,
        "113": 229,
        "114": 148,
        "115": 81,
        "116": 132,
        "117": 32,
        "118": 99,
        "119": 157,
        "120": 99,
        "121": 208,
        "122": 90,
        "123": 251,
        "124": 77,
        "125": 23,
        "126": 39,
        "127": 182,
        "128": 11,
        "129": 166,
        "130": 71,
        "131": 126,
        "132": 39,
        "133": 210,
        "134": 207,
        "135": 107,
        "136": 135,
        "137": 214,
        "138": 123,
        "139": 165,
        "140": 157,
        "141": 185,
        "142": 10,
        "143": 207,
        "144": 206,
        "145": 201,
        "146": 219,
        "147": 175,
        "148": 223,
        "149": 45,
        "150": 221,
        "151": 99,
        "152": 101,
        "153": 122,
        "154": 170,
        "155": 251,
        "156": 156,
        "157": 230,
        "158": 184,
        "159": 212,
        "160": 62,
        "161": 99,
        "162": 182,
        "163": 152,
        "164": 211,
        "165": 36,
        "166": 161,
        "167": 97,
        "168": 195,
        "169": 149,
        "170": 31,
        "171": 118,
        "172": 35,
        "173": 181,
        "174": 180,
        "175": 138,
        "176": 96,
        "177": 28,
        "178": 32,
        "179": 41,
        "180": 248,
        "181": 144,
        "182": 179,
        "183": 184,
        "184": 239,
        "185": 154,
        "186": 46,
        "187": 114,
        "188": 18,
        "189": 177,
        "190": 227,
        "191": 227,
        "192": 196,
        "193": 76,
        "194": 199,
        "195": 141,
        "196": 57,
        "197": 58,
        "198": 103,
        "199": 72,
        "200": 190,
        "201": 142,
        "202": 86,
        "203": 46,
        "204": 60,
        "205": 6,
        "206": 27,
        "207": 107,
        "208": 11,
        "209": 202,
        "210": 189,
        "211": 135,
        "212": 211,
        "213": 136,
        "214": 73,
        "215": 116,
        "216": 87,
        "217": 231,
        "218": 15,
        "219": 146,
        "220": 13,
        "221": 126,
        "222": 70,
        "223": 212,
        "224": 32,
        "225": 232,
        "226": 216,
        "227": 86,
        "228": 3,
        "229": 84,
        "230": 54,
        "231": 157,
        "232": 255,
        "233": 209,
        "234": 129,
        "235": 159,
        "236": 209,
        "237": 15,
        "238": 189,
        "239": 37,
        "240": 78,
        "241": 48,
        "242": 44,
        "243": 118,
        "244": 9,
        "245": 155,
        "246": 195,
        "247": 220,
        "248": 159,
        "249": 94,
        "250": 64,
        "251": 220,
        "252": 25,
        "253": 148,
        "254": 4,
        "255": 195,
        "256": 77,
        "257": 34,
        "258": 175,
        "259": 175,
        "260": 226,
        "261": 144,
        "262": 123,
        "263": 77,
        "264": 150,
        "265": 17,
        "266": 224,
        "267": 244,
        "268": 84,
        "269": 35,
        "270": 244,
        "271": 236,
        "272": 88,
        "273": 49,
        "274": 11,
        "275": 63,
        "276": 93,
        "277": 89,
        "278": 94,
        "279": 63,
        "280": 100,
        "281": 236,
        "282": 168,
        "283": 34,
        "284": 91,
        "285": 229,
        "286": 132,
        "287": 120,
        "288": 224,
        "289": 19,
        "290": 21,
        "291": 81,
        "292": 96,
        "293": 168,
        "294": 246,
        "295": 150,
        "296": 125,
        "297": 253,
        "298": 52,
        "299": 44,
        "300": 95,
        "301": 211,
        "302": 237,
        "303": 97,
        "304": 166,
        "305": 130,
        "306": 135,
        "307": 227,
        "308": 130,
        "309": 104,
        "310": 55,
        "311": 138,
        "312": 7,
        "313": 229,
        "314": 195,
        "315": 27,
        "316": 205,
        "317": 207,
        "318": 184,
        "319": 36,
        "320": 78,
        "321": 202,
        "322": 139,
        "323": 193,
        "324": 71,
        "325": 51,
        "326": 107,
        "327": 15,
        "328": 22,
        "329": 55,
        "330": 159,
        "331": 228,
        "332": 117,
        "333": 153,
        "334": 167,
        "335": 133,
        "336": 29,
        "337": 239,
        "338": 233,
        "339": 101,
        "340": 146,
        "341": 173,
        "342": 109,
        "343": 205,
        "344": 76,
        "345": 114,
        "346": 49,
        "347": 183,
        "348": 110,
        "349": 38,
        "350": 149,
        "351": 173,
        "352": 135,
        "353": 128,
        "354": 19,
        "355": 99,
        "356": 88,
        "357": 55,
        "358": 190,
        "359": 103,
        "360": 32,
        "361": 34,
        "362": 96,
        "363": 251,
        "364": 172,
        "365": 158,
        "366": 65,
        "367": 199,
        "368": 191,
        "369": 236,
        "370": 249,
        "371": 135,
        "372": 186,
        "373": 206,
        "374": 18,
        "375": 58,
        "376": 25,
        "377": 70,
        "378": 64,
        "379": 28,
        "380": 34,
        "381": 72,
        "382": 195,
        "383": 125,
        "384": 130,
        "385": 135,
        "386": 135,
        "387": 54,
        "388": 29,
        "389": 119,
        "390": 113,
        "391": 210,
        "392": 166,
        "393": 168,
        "394": 101,
        "395": 37,
        "396": 188,
        "397": 108,
        "398": 2,
        "399": 28,
        "400": 141,
        "401": 155,
        "402": 197,
        "403": 81,
        "404": 154,
        "405": 118,
        "406": 246,
        "407": 210,
        "408": 12,
        "409": 75,
        "410": 221,
        "411": 46,
        "412": 50,
        "413": 213,
        "414": 252,
        "415": 109,
        "416": 219,
        "417": 85,
        "418": 78,
        "419": 183,
        "420": 137,
        "421": 248,
        "422": 55,
        "423": 246,
        "424": 52,
        "425": 207,
        "426": 195,
        "427": 105,
        "428": 46,
        "429": 152,
        "430": 199,
        "431": 9,
        "432": 181,
        "433": 191,
        "434": 115,
        "435": 71,
        "436": 210,
        "437": 162,
        "438": 253,
        "439": 175,
        "440": 98,
        "441": 66,
        "442": 196,
        "443": 178,
        "444": 67,
        "445": 61,
        "446": 118,
        "447": 44,
        "448": 78,
        "449": 140,
        "450": 4,
        "451": 6,
        "452": 69,
        "453": 143,
        "454": 165,
        "455": 215,
        "456": 110,
        "457": 202,
        "458": 134,
        "459": 199,
        "460": 214,
        "461": 132,
        "462": 246,
        "463": 242,
        "464": 161,
        "465": 178,
        "466": 22,
        "467": 151,
        "468": 26,
        "469": 197,
        "470": 26,
        "471": 184,
        "472": 57,
        "473": 175,
        "474": 192,
        "475": 123,
        "476": 95,
        "477": 168,
        "478": 166,
        "479": 17,
        "480": 176,
        "481": 44,
        "482": 141,
        "483": 4,
        "484": 175,
        "485": 126,
        "486": 125,
        "487": 13,
        "488": 120,
        "489": 216,
        "490": 167,
        "491": 52,
        "492": 97,
        "493": 149,
        "494": 16,
        "495": 219,
        "496": 95,
        "497": 7,
        "498": 50,
        "499": 237,
        "500": 68,
        "501": 120,
        "502": 5,
        "503": 28,
        "504": 26,
        "505": 191,
        "506": 16,
        "507": 184,
        "508": 254,
        "509": 116,
        "510": 36,
        "511": 244,
        "512": 212,
        "513": 124,
        "514": 198,
        "515": 215,
        "516": 218,
        "517": 98,
        "518": 45,
        "519": 154,
        "520": 168,
        "521": 208,
        "522": 119,
        "523": 5,
        "524": 133,
        "525": 44,
        "526": 235,
        "527": 233,
        "528": 186,
        "529": 73,
        "530": 160,
        "531": 61,
        "532": 125,
        "533": 148,
        "534": 43,
        "535": 152,
        "536": 91,
        "537": 94,
        "538": 160,
        "539": 31,
        "540": 178,
        "541": 129,
        "542": 130,
        "543": 217,
        "544": 112,
        "545": 16,
        "546": 148,
        "547": 122,
        "548": 83,
        "549": 84,
        "550": 184,
        "551": 19,
        "552": 55,
        "553": 81,
        "554": 12,
        "555": 247,
        "556": 121,
        "557": 79,
        "558": 111,
        "559": 153,
        "560": 244,
        "561": 119,
        "562": 179,
        "563": 25,
        "564": 116,
        "565": 107,
        "566": 40,
        "567": 222,
        "568": 60,
        "569": 65,
        "570": 40,
        "571": 249,
        "572": 7,
        "573": 35,
        "574": 252,
        "575": 71,
        "576": 246,
        "577": 182,
        "578": 44,
        "579": 211,
        "580": 69,
        "581": 127,
        "582": 219,
        "583": 54,
        "584": 60,
        "585": 19,
        "586": 212,
        "587": 224,
        "588": 247,
        "589": 243,
        "590": 23,
        "591": 125,
        "592": 119,
        "593": 173,
        "594": 21,
        "595": 211,
        "596": 209,
        "597": 141,
        "598": 72,
        "599": 119,
        "600": 27,
        "601": 38,
        "602": 247,
        "603": 2,
        "604": 168,
        "605": 17,
        "606": 176,
        "607": 238,
        "608": 187,
        "609": 135,
        "610": 94,
        "611": 163,
        "612": 33,
        "613": 125,
        "614": 250,
        "615": 22,
        "616": 23,
        "617": 192,
        "618": 119,
        "619": 39,
        "620": 154,
        "621": 86,
        "622": 200,
        "623": 239,
        "624": 154,
        "625": 36,
        "626": 20,
        "627": 196,
        "628": 123,
        "629": 126,
        "630": 215,
        "631": 114,
        "632": 51,
        "633": 27,
        "634": 111,
        "635": 97,
        "636": 142,
        "637": 49,
        "638": 224,
        "639": 171,
        "640": 0,
        "641": 137,
        "642": 213,
        "643": 213,
        "644": 110,
        "645": 59,
        "646": 250,
        "647": 49,
        "648": 148,
        "649": 194,
        "650": 207,
        "651": 226,
        "652": 87,
        "653": 216,
        "654": 132,
        "655": 205,
        "656": 74,
        "657": 132,
        "658": 205,
        "659": 101,
        "660": 226,
        "661": 177,
        "662": 122,
        "663": 17,
        "664": 235,
        "665": 88,
        "666": 45,
        "667": 20,
        "668": 164,
        "669": 248,
        "670": 197,
        "671": 94,
        "672": 128,
        "673": 36,
        "674": 79,
        "675": 177,
        "676": 76,
        "677": 151,
        "678": 111,
        "679": 105,
        "680": 86,
        "681": 98,
        "682": 188,
        "683": 235,
        "684": 73,
        "685": 183,
        "686": 44,
        "687": 82,
        "688": 104,
        "689": 129,
        "690": 35,
        "691": 175,
        "692": 24,
        "693": 20,
        "694": 81,
        "695": 94,
        "696": 128,
        "697": 213,
        "698": 89,
        "699": 77,
        "700": 169,
        "701": 176,
        "702": 189,
        "703": 175,
        "704": 120,
        "705": 177,
        "706": 52,
        "707": 227,
        "708": 115,
        "709": 130,
        "710": 236,
        "711": 45,
        "712": 236,
        "713": 63,
        "714": 124,
        "715": 26,
        "716": 121,
        "717": 128,
        "718": 157,
        "719": 139,
        "720": 28,
        "721": 174,
        "722": 222,
        "723": 46,
        "724": 96,
        "725": 57,
        "726": 158,
        "727": 137,
        "728": 200,
        "729": 245,
        "730": 168,
        "731": 103,
        "732": 115,
        "733": 39,
        "734": 46,
        "735": 83,
        "736": 76,
        "737": 189,
        "738": 48,
        "739": 84,
        "740": 168,
        "741": 73,
        "742": 6,
        "743": 8,
        "744": 189,
        "745": 73,
        "746": 171,
        "747": 151,
        "748": 46,
        "749": 40,
        "750": 231,
        "751": 141,
        "752": 71,
        "753": 224,
        "754": 5,
        "755": 132,
        "756": 156,
        "757": 18,
        "758": 195,
        "759": 242,
        "760": 223,
        "761": 1,
        "762": 93,
        "763": 83,
        "764": 223,
        "765": 226,
        "766": 104,
        "767": 116,
        "768": 167,
        "769": 181,
        "770": 203,
        "771": 199,
        "772": 71,
        "773": 205,
        "774": 52,
        "775": 77,
        "776": 251,
        "777": 216,
        "778": 182,
        "779": 75,
        "780": 157,
        "781": 204,
        "782": 61,
        "783": 161,
        "784": 195,
        "785": 240,
        "786": 191,
        "787": 155,
        "788": 99,
        "789": 232,
        "790": 163,
        "791": 132,
        "792": 34,
        "793": 107,
        "794": 13,
        "795": 72,
        "796": 18,
        "797": 21,
        "798": 61,
        "799": 253,
        "800": 178,
        "801": 16,
        "802": 153,
        "803": 123,
        "804": 239,
        "805": 105,
        "806": 188,
        "807": 121,
        "808": 169,
        "809": 220,
        "810": 22,
        "811": 85,
        "812": 169,
        "813": 15,
        "814": 102,
        "815": 120,
        "816": 29,
        "817": 88,
        "818": 116,
        "819": 250,
        "820": 146,
        "821": 236,
        "822": 191,
        "823": 159,
        "824": 223,
        "825": 253,
        "826": 247,
        "827": 121,
        "828": 52,
        "829": 196,
        "830": 137,
        "831": 193,
        "832": 163,
        "833": 177,
        "834": 97,
        "835": 56,
        "836": 184,
        "837": 189,
        "838": 22,
        "839": 9,
        "840": 91,
        "841": 189,
        "842": 200,
        "843": 235,
        "844": 147,
        "845": 31,
        "846": 106,
        "847": 208,
        "848": 207,
        "849": 210,
        "850": 89,
        "851": 216,
        "852": 169,
        "853": 100,
        "854": 152,
        "855": 209,
        "856": 216,
        "857": 167,
        "858": 12,
        "859": 102,
        "860": 114,
        "861": 34,
        "862": 9,
        "863": 243,
        "864": 234,
        "865": 229,
        "866": 248,
        "867": 37,
        "868": 151,
        "869": 236,
        "870": 1,
        "871": 80,
        "872": 17,
        "873": 10,
        "874": 41,
        "875": 90,
        "876": 238,
        "877": 55,
        "878": 32,
        "879": 232,
        "880": 122,
        "881": 39,
        "882": 40,
        "883": 54,
        "884": 88,
        "885": 187,
        "886": 154,
        "887": 182,
        "888": 245,
        "889": 88,
        "890": 242,
        "891": 119,
        "892": 109,
        "893": 221,
        "894": 14,
        "895": 142,
        "896": 200,
        "897": 148,
        "898": 124,
        "899": 165,
        "900": 230,
        "901": 103,
        "902": 115,
        "903": 130,
        "904": 166,
        "905": 110,
        "906": 94,
        "907": 127,
        "908": 77,
        "909": 173,
        "910": 120,
        "911": 132,
        "912": 17,
        "913": 68,
        "914": 60,
        "915": 163,
        "916": 186,
        "917": 13,
        "918": 34,
        "919": 215,
        "920": 129,
        "921": 254,
        "922": 105,
        "923": 18,
        "924": 86,
        "925": 149,
        "926": 131,
        "927": 23,
        "928": 229,
        "929": 43,
        "930": 125,
        "931": 202,
        "932": 100,
        "933": 149,
        "934": 160,
        "935": 255,
        "936": 102,
        "937": 151,
        "938": 122,
        "939": 105,
        "940": 49,
        "941": 47,
        "942": 72,
        "943": 75,
        "944": 115,
        "945": 30,
        "946": 120,
        "947": 190,
        "948": 14,
        "949": 29,
        "950": 137,
        "951": 21,
        "952": 104,
        "953": 133,
        "954": 29,
        "955": 229,
        "956": 44,
        "957": 111,
        "958": 241,
        "959": 113,
        "960": 146,
        "961": 243,
        "962": 42,
        "963": 150,
        "964": 2,
        "965": 64,
        "966": 68,
        "967": 108,
        "968": 36,
        "969": 128,
        "970": 29,
        "971": 112,
        "972": 7,
        "973": 113,
        "974": 180,
        "975": 213,
        "976": 65,
        "977": 160,
        "978": 32,
        "979": 176,
        "980": 194,
        "981": 34,
        "982": 184,
        "983": 80,
        "984": 194,
        "985": 120,
        "986": 178,
        "987": 5,
        "988": 167,
        "989": 103,
        "990": 38,
        "991": 113,
        "992": 196,
        "993": 162,
        "994": 226,
        "995": 60,
        "996": 59,
        "997": 196,
        "998": 161,
        "999": 158,
        "1000": 50,
        "1001": 231,
        "1002": 247,
        "1003": 153,
        "1004": 232,
        "1005": 229,
        "1006": 15,
        "1007": 9,
        "1008": 168,
        "1009": 38,
        "1010": 81,
        "1011": 34,
        "1012": 211,
        "1013": 149,
        "1014": 19,
        "1015": 225,
        "1016": 5,
        "1017": 155,
        "1018": 85,
        "1019": 178,
        "1020": 159,
        "1021": 2,
        "1022": 102,
        "1023": 147,
        "1024": 23,
        "1025": 56,
        "1026": 247,
        "1027": 103,
        "1028": 65,
        "1029": 218,
        "1030": 1,
        "1031": 222,
        "1032": 71,
        "1033": 147,
        "1034": 49,
        "1035": 81,
        "1036": 168,
        "1037": 116,
        "1038": 86,
        "1039": 35,
        "1040": 237,
        "1041": 79,
        "1042": 158,
        "1043": 243,
        "1044": 237,
        "1045": 228,
        "1046": 250,
        "1047": 240,
        "1048": 110,
        "1049": 97,
        "1050": 33,
        "1051": 153,
        "1052": 116,
        "1053": 160,
        "1054": 196,
        "1055": 96,
        "1056": 87,
        "1057": 5,
        "1058": 96,
        "1059": 157,
        "1060": 123,
        "1061": 159,
        "1062": 29,
        "1063": 188,
        "1064": 138,
        "1065": 26,
        "1066": 15,
        "1067": 96,
        "1068": 60,
        "1069": 56,
        "1070": 115,
        "1071": 155,
        "1072": 210,
        "1073": 89,
        "1074": 129,
        "1075": 237,
        "1076": 255,
        "1077": 203,
        "1078": 17,
        "1079": 14,
        "1080": 190,
        "1081": 102,
        "1082": 196,
        "1083": 60,
        "1084": 6,
        "1085": 95,
        "1086": 142,
        "1087": 89,
        "1088": 72,
        "1089": 240,
        "1090": 40,
        "1091": 32,
        "1092": 216,
        "1093": 80,
        "1094": 83,
        "1095": 150,
        "1096": 160,
        "1097": 156,
        "1098": 32,
        "1099": 205,
        "1100": 131,
        "1101": 223,
        "1102": 218,
        "1103": 220,
        "1104": 190,
        "1105": 62,
        "1106": 224,
        "1107": 43,
        "1108": 127,
        "1109": 59,
        "1110": 93,
        "1111": 240,
        "1112": 55,
        "1113": 12,
        "1114": 71,
        "1115": 60,
        "1116": 213,
        "1117": 145,
        "1118": 220,
        "1119": 53,
        "1120": 68,
        "1121": 113,
        "1122": 99,
        "1123": 153,
        "1124": 85,
        "1125": 33,
        "1126": 201,
        "1127": 104,
        "1128": 77,
        "1129": 86,
        "1130": 204,
        "1131": 60,
        "1132": 81,
        "1133": 157,
        "1134": 99,
        "1135": 144,
        "1136": 148,
        "1137": 236,
        "1138": 234,
        "1139": 51,
        "1140": 62,
        "1141": 136,
        "1142": 106,
        "1143": 65,
        "1144": 185,
        "1145": 238,
        "1146": 170,
        "1147": 155,
        "1148": 134,
        "1149": 236,
        "1150": 137,
        "1151": 120,
        "1152": 254,
        "1153": 227,
        "1154": 17,
        "1155": 51,
        "1156": 63,
        "1157": 232,
        "1158": 38,
        "1159": 64,
        "1160": 128,
        "1161": 247,
        "1162": 194,
        "1163": 174,
        "1164": 254,
        "1165": 203,
        "1166": 63,
        "1167": 166,
        "1168": 61,
        "1169": 67,
        "1170": 96,
        "1171": 120,
        "1172": 101,
        "1173": 96,
        "1174": 102,
        "1175": 9,
        "1176": 21,
        "1177": 184,
        "1178": 123,
        "1179": 190,
        "1180": 138,
        "1181": 206,
        "1182": 98,
        "1183": 241,
        "1184": 182,
        "1185": 34,
        "1186": 255,
        "1187": 21,
        "1188": 69,
        "1189": 22,
        "1190": 40,
        "1191": 125,
        "1192": 233,
        "1193": 74,
        "1194": 126,
        "1195": 123,
        "1196": 231,
        "1197": 117,
        "1198": 100,
        "1199": 180,
        "1200": 16,
        "1201": 228,
        "1202": 86,
        "1203": 82,
        "1204": 63,
        "1205": 170,
        "1206": 151,
        "1207": 211,
        "1208": 185,
        "1209": 209,
        "1210": 67,
        "1211": 70,
        "1212": 25,
        "1213": 7,
        "1214": 242,
        "1215": 63,
        "1216": 19,
        "1217": 200,
        "1218": 4,
        "1219": 17,
        "1220": 178,
        "1221": 153,
        "1222": 40,
        "1223": 211,
        "1224": 109,
        "1225": 143,
        "1226": 13,
        "1227": 138,
        "1228": 147,
        "1229": 173,
        "1230": 129,
        "1231": 81,
        "1232": 251,
        "1233": 10,
        "1234": 114,
        "1235": 82,
        "1236": 79,
        "1237": 11,
        "1238": 252,
        "1239": 109,
        "1240": 140,
        "1241": 7,
        "1242": 7,
        "1243": 105,
        "1244": 84,
        "1245": 24,
        "1246": 129,
        "1247": 73,
        "1248": 135,
        "1249": 121,
        "1250": 178,
        "1251": 141,
        "1252": 90,
        "1253": 10,
        "1254": 243,
        "1255": 148,
        "1256": 27,
        "1257": 236,
        "1258": 195,
        "1259": 15,
        "1260": 25,
        "1261": 132,
        "1262": 245,
        "1263": 139,
        "1264": 97,
        "1265": 224,
        "1266": 169,
        "1267": 146,
        "1268": 56,
        "1269": 80,
        "1270": 198,
        "1271": 49,
        "1272": 57,
        "1273": 212,
        "1274": 93,
        "1275": 114,
        "1276": 31,
        "1277": 215,
        "1278": 98,
        "1279": 160,
        "1280": 241,
        "1281": 71,
        "1282": 51,
        "1283": 63,
        "1284": 168,
        "1285": 196,
        "1286": 135,
        "1287": 108,
        "1288": 135,
        "1289": 24,
        "1290": 170,
        "1291": 96,
        "1292": 49,
        "1293": 200,
        "1294": 170,
        "1295": 226,
        "1296": 53,
        "1297": 209,
        "1298": 97,
        "1299": 240,
        "1300": 99,
        "1301": 49,
        "1302": 248,
        "1303": 59,
        "1304": 233,
        "1305": 103,
        "1306": 73,
        "1307": 92,
        "1308": 192,
        "1309": 177,
        "1310": 116,
        "1311": 18,
        "1312": 218,
        "1313": 62,
        "1314": 237,
        "1315": 186,
        "1316": 209,
        "1317": 78,
        "1318": 126,
        "1319": 201,
        "1320": 18,
        "1321": 225,
        "1322": 152,
        "1323": 254,
        "1324": 116,
        "1325": 183,
        "1326": 41,
        "1327": 229,
        "1328": 17,
        "1329": 151,
        "1330": 138,
        "1331": 251,
        "1332": 143,
        "1333": 58,
        "1334": 113,
        "1335": 73,
        "1336": 118,
        "1337": 22,
        "1338": 131,
        "1339": 143,
        "1340": 184,
        "1341": 147,
        "1342": 39,
        "1343": 181,
        "1344": 158,
        "1345": 179,
        "1346": 31,
        "1347": 133,
        "1348": 28,
        "1349": 226,
        "1350": 131,
        "1351": 24,
        "1352": 21,
        "1353": 30,
        "1354": 53,
        "1355": 72,
        "1356": 130,
        "1357": 39,
        "1358": 179,
        "1359": 102,
        "1360": 112,
        "1361": 232,
        "1362": 129,
        "1363": 244,
        "1364": 223,
        "1365": 182,
        "1366": 151,
        "1367": 47,
        "1368": 60,
        "1369": 57,
        "1370": 95,
        "1371": 218,
        "1372": 31,
        "1373": 117,
        "1374": 229,
        "1375": 27,
        "1376": 62,
        "1377": 152,
        "1378": 193,
        "1379": 245,
        "1380": 161,
        "1381": 131,
        "1382": 194,
        "1383": 18,
        "1384": 24,
        "1385": 83,
        "1386": 225,
        "1387": 81,
        "1388": 135,
        "1389": 186,
        "1390": 87,
        "1391": 117,
        "1392": 46,
        "1393": 52,
        "1394": 161,
        "1395": 231,
        "1396": 220,
        "1397": 31,
        "1398": 62,
        "1399": 179,
        "1400": 157,
        "1401": 156,
        "1402": 154,
        "1403": 177,
        "1404": 233,
        "1405": 147,
        "1406": 52,
        "1407": 206,
        "1408": 33,
        "1409": 67,
        "1410": 29,
        "1411": 70,
        "1412": 201,
        "1413": 175,
        "1414": 1,
        "1415": 87,
        "1416": 228,
        "1417": 157,
        "1418": 172,
        "1419": 13,
        "1420": 38,
        "1421": 230,
        "1422": 29,
        "1423": 177,
        "1424": 180,
        "1425": 224,
        "1426": 47,
        "1427": 174,
        "1428": 60,
        "1429": 182,
        "1430": 243,
        "1431": 211,
        "1432": 195,
        "1433": 10,
        "1434": 78,
        "1435": 13,
        "1436": 15,
        "1437": 136,
        "1438": 153,
        "1439": 215,
        "1440": 148,
        "1441": 14,
        "1442": 231,
        "1443": 205,
        "1444": 193,
        "1445": 58,
        "1446": 243,
        "1447": 50,
        "1448": 68,
        "1449": 204,
        "1450": 130,
        "1451": 67,
        "1452": 14,
        "1453": 106,
        "1454": 59,
        "1455": 97,
        "1456": 39,
        "1457": 98,
        "1458": 67,
        "1459": 81,
        "1460": 49,
        "1461": 144,
        "1462": 154,
        "1463": 108,
        "1464": 182,
        "1465": 172,
        "1466": 99,
        "1467": 189,
        "1468": 162,
        "1469": 44,
        "1470": 89,
        "1471": 90,
        "1472": 4,
        "1473": 112,
        "1474": 101,
        "1475": 135,
        "1476": 28,
        "1477": 13,
        "1478": 204,
        "1479": 135,
        "1480": 236,
        "1481": 44,
        "1482": 33,
        "1483": 87,
        "1484": 116,
        "1485": 7,
        "1486": 197,
        "1487": 205,
        "1488": 193,
        "1489": 118,
        "1490": 178,
        "1491": 107,
        "1492": 1,
        "1493": 10,
        "1494": 196,
        "1495": 230,
        "1496": 145,
        "1497": 36,
        "1498": 185,
        "1499": 12,
        "1500": 193,
        "1501": 208,
        "1502": 127,
        "1503": 79,
        "1504": 177,
        "1505": 65,
        "1506": 65,
        "1507": 100,
        "1508": 20,
        "1509": 215,
        "1510": 199,
        "1511": 93,
        "1512": 134,
        "1513": 128,
        "1514": 80,
        "1515": 50,
        "1516": 94,
        "1517": 33,
        "1518": 19,
        "1519": 81,
        "1520": 15,
        "1521": 236,
        "1522": 90,
        "1523": 213,
        "1524": 238,
        "1525": 41,
        "1526": 232,
        "1527": 0,
        "1528": 3,
        "1529": 120,
        "1530": 183,
        "1531": 104,
        "1532": 151,
        "1533": 122,
        "1534": 76,
        "1535": 75,
        "1536": 201,
        "1537": 172,
        "1538": 159,
        "1539": 4,
        "1540": 50,
        "1541": 107,
        "1542": 35,
        "1543": 147,
        "1544": 244,
        "1545": 213,
        "1546": 3,
        "1547": 23,
        "1548": 236,
        "1549": 81,
        "1550": 65,
        "1551": 254,
        "1552": 117,
        "1553": 106,
        "1554": 46,
        "1555": 70,
        "1556": 163,
        "1557": 130,
        "1558": 10,
        "1559": 142,
        "1560": 213,
        "1561": 85,
        "1562": 70,
        "1563": 188,
        "1564": 65,
        "1565": 255,
        "1566": 193,
        "1567": 76,
        "1568": 238,
        "1569": 206,
        "1570": 143,
        "1571": 18,
        "1572": 130,
        "1573": 144,
        "1574": 144,
        "1575": 51,
        "1576": 72,
        "1577": 18,
        "1578": 28,
        "1579": 219,
        "1580": 141,
        "1581": 2,
        "1582": 155,
        "1583": 44,
        "1584": 192,
        "1585": 198,
        "1586": 128,
        "1587": 249,
        "1588": 122,
        "1589": 149,
        "1590": 173,
        "1591": 224,
        "1592": 96,
        "1593": 1,
        "1594": 139,
        "1595": 101,
        "1596": 134,
        "1597": 254,
        "1598": 7,
        "1599": 10,
        "1600": 209,
        "1601": 200,
        "1602": 202,
        "1603": 8,
        "1604": 110,
        "1605": 194,
        "1606": 16,
        "1607": 198,
        "1608": 219,
        "1609": 33,
        "1610": 60,
        "1611": 165,
        "1612": 41,
        "1613": 38,
        "1614": 148,
        "1615": 216,
        "1616": 145,
        "1617": 83,
        "1618": 212,
        "1619": 135,
        "1620": 94,
        "1621": 158,
        "1622": 226,
        "1623": 189,
        "1624": 24,
        "1625": 223,
        "1626": 77,
        "1627": 206,
        "1628": 9,
        "1629": 132,
        "1630": 235,
        "1631": 1,
        "1632": 188,
        "1633": 83,
        "1634": 22,
        "1635": 129,
        "1636": 60,
        "1637": 202,
        "1638": 52,
        "1639": 208,
        "1640": 37,
        "1641": 215,
        "1642": 217,
        "1643": 166,
        "1644": 192,
        "1645": 227,
        "1646": 123,
        "1647": 27,
        "1648": 75,
        "1649": 57,
        "1650": 225,
        "1651": 129,
        "1652": 101,
        "1653": 240,
        "1654": 22,
        "1655": 219,
        "1656": 219,
        "1657": 159,
        "1658": 147,
        "1659": 231,
        "1660": 137,
        "1661": 182,
        "1662": 203,
        "1663": 252,
        "1664": 25,
        "1665": 16,
        "1666": 254,
        "1667": 178,
        "1668": 131,
        "1669": 228,
        "1670": 251,
        "1671": 80,
        "1672": 177,
        "1673": 248,
        "1674": 39,
        "1675": 228,
        "1676": 100,
        "1677": 97,
        "1678": 223,
        "1679": 97,
        "1680": 226,
        "1681": 6,
        "1682": 30,
        "1683": 32,
        "1684": 159,
        "1685": 221,
        "1686": 231,
        "1687": 251,
        "1688": 241,
        "1689": 181,
        "1690": 144,
        "1691": 94,
        "1692": 179,
        "1693": 142,
        "1694": 195,
        "1695": 116,
        "1696": 84,
        "1697": 7,
        "1698": 245,
        "1699": 5,
        "1700": 150,
        "1701": 44,
        "1702": 17,
        "1703": 158,
        "1704": 143,
        "1705": 72,
        "1706": 198,
        "1707": 22,
        "1708": 111,
        "1709": 4,
        "1710": 55,
        "1711": 158,
        "1712": 228,
        "1713": 181,
        "1714": 74,
        "1715": 233,
        "1716": 174,
        "1717": 36,
        "1718": 81,
        "1719": 227,
        "1720": 217,
        "1721": 243,
        "1722": 238,
        "1723": 134,
        "1724": 208,
        "1725": 173,
        "1726": 144,
        "1727": 130,
        "1728": 208,
        "1729": 39,
        "1730": 15,
        "1731": 159,
        "1732": 69,
        "1733": 129,
        "1734": 180,
        "1735": 27,
        "1736": 85,
        "1737": 199,
        "1738": 227,
        "1739": 217,
        "1740": 24,
        "1741": 214,
        "1742": 218,
        "1743": 87,
        "1744": 228,
        "1745": 115,
        "1746": 229,
        "1747": 4,
        "1748": 11,
        "1749": 233,
        "1750": 114,
        "1751": 211,
        "1752": 44,
        "1753": 200,
        "1754": 232,
        "1755": 124,
        "1756": 28,
        "1757": 143,
        "1758": 106,
        "1759": 215,
        "1760": 29,
        "1761": 32,
        "1762": 241,
        "1763": 206,
        "1764": 90,
        "1765": 218,
        "1766": 202,
        "1767": 245,
        "1768": 139,
        "1769": 58,
        "1770": 115,
        "1771": 41,
        "1772": 85,
        "1773": 229,
        "1774": 30,
        "1775": 194,
        "1776": 112,
        "1777": 151,
        "1778": 69,
        "1779": 21,
        "1780": 183,
        "1781": 100,
        "1782": 229,
        "1783": 67,
        "1784": 238,
        "1785": 177,
        "1786": 100,
        "1787": 73,
        "1788": 183,
        "1789": 120,
        "1790": 211,
        "1791": 173,
        "1792": 52,
        "1793": 64,
        "1794": 129,
        "1795": 115,
        "1796": 45,
        "1797": 79,
        "1798": 206,
        "1799": 204,
        "1800": 136,
        "1801": 147,
        "1802": 151,
        "1803": 128,
        "1804": 1,
        "1805": 145,
        "1806": 141,
        "1807": 119,
        "1808": 232,
        "1809": 28,
        "1810": 0,
        "1811": 239,
        "1812": 44,
        "1813": 145,
        "1814": 186,
        "1815": 111,
        "1816": 228,
        "1817": 152,
        "1818": 118,
        "1819": 164,
        "1820": 82,
        "1821": 255,
        "1822": 199,
        "1823": 59,
        "1824": 192,
        "1825": 191,
        "1826": 74,
        "1827": 20,
        "1828": 219,
        "1829": 78,
        "1830": 111,
        "1831": 135,
        "1832": 143,
        "1833": 29,
        "1834": 86,
        "1835": 148,
        "1836": 159,
        "1837": 98,
        "1838": 164,
        "1839": 244,
        "1840": 177,
        "1841": 200,
        "1842": 63,
        "1843": 166,
        "1844": 29,
        "1845": 134,
        "1846": 96,
        "1847": 36,
        "1848": 131,
        "1849": 97,
        "1850": 165,
        "1851": 110,
        "1852": 191,
        "1853": 217,
        "1854": 243,
        "1855": 15,
        "1856": 72,
        "1857": 175,
        "1858": 118,
        "1859": 169,
        "1860": 225,
        "1861": 149,
        "1862": 148,
        "1863": 189,
        "1864": 42,
        "1865": 100,
        "1866": 63,
        "1867": 221,
        "1868": 44,
        "1869": 243,
        "1870": 202,
        "1871": 42,
        "1872": 178,
        "1873": 151,
        "1874": 216,
        "1875": 1,
        "1876": 233,
        "1877": 207,
        "1878": 87,
        "1879": 113,
        "1880": 133,
        "1881": 168,
        "1882": 82,
        "1883": 208,
        "1884": 19,
        "1885": 41,
        "1886": 222,
        "1887": 46,
        "1888": 79,
        "1889": 143,
        "1890": 13,
        "1891": 143,
        "1892": 144,
        "1893": 68,
        "1894": 180,
        "1895": 159,
        "1896": 102,
        "1897": 229,
        "1898": 112,
        "1899": 251,
        "1900": 107,
        "1901": 67,
        "1902": 82,
        "1903": 35,
        "1904": 99,
        "1905": 11,
        "1906": 34,
        "1907": 249,
        "1908": 221,
        "1909": 183,
        "1910": 147,
        "1911": 155,
        "1912": 196,
        "1913": 208,
        "1914": 109,
        "1915": 82,
        "1916": 220,
        "1917": 216,
        "1918": 31,
        "1919": 101,
        "1920": 167,
        "1921": 169,
        "1922": 51,
        "1923": 205,
        "1924": 251,
        "1925": 127,
        "1926": 97,
        "1927": 194,
        "1928": 225,
        "1929": 93,
        "1930": 185,
        "1931": 94,
        "1932": 39,
        "1933": 57,
        "1934": 232,
        "1935": 167,
        "1936": 176,
        "1937": 200,
        "1938": 150,
        "1939": 53,
        "1940": 10,
        "1941": 240,
        "1942": 74,
        "1943": 188,
        "1944": 45,
        "1945": 127,
        "1946": 3,
        "1947": 234,
        "1948": 41,
        "1949": 141,
        "1950": 214,
        "1951": 16,
        "1952": 192,
        "1953": 73,
        "1954": 173,
        "1955": 100,
        "1956": 146,
        "1957": 222,
        "1958": 102,
        "1959": 23,
        "1960": 35,
        "1961": 141,
        "1962": 165,
        "1963": 178,
        "1964": 31,
        "1965": 216,
        "1966": 219,
        "1967": 205,
        "1968": 217,
        "1969": 32,
        "1970": 4,
        "1971": 7,
        "1972": 104,
        "1973": 33,
        "1974": 205,
        "1975": 5,
        "1976": 69,
        "1977": 77,
        "1978": 63,
        "1979": 214,
        "1980": 159,
        "1981": 2,
        "1982": 174,
        "1983": 4,
        "1984": 130,
        "1985": 232,
        "1986": 42,
        "1987": 159,
        "1988": 102,
        "1989": 104,
        "1990": 77,
        "1991": 235,
        "1992": 168,
        "1993": 74,
        "1994": 109,
        "1995": 123,
        "1996": 0,
        "1997": 231,
        "1998": 252,
        "1999": 243,
        "2000": 155,
        "2001": 145,
        "2002": 239,
        "2003": 104,
        "2004": 203,
        "2005": 118,
        "2006": 59,
        "2007": 207,
        "2008": 108,
        "2009": 29,
        "2010": 174,
        "2011": 131,
        "2012": 22,
        "2013": 38,
        "2014": 123,
        "2015": 114,
        "2016": 27,
        "2017": 95,
        "2018": 57,
        "2019": 41,
        "2020": 149,
        "2021": 225,
        "2022": 82,
        "2023": 205,
        "2024": 140,
        "2025": 1,
        "2026": 134,
        "2027": 135,
        "2028": 213,
        "2029": 146,
        "2030": 110,
        "2031": 146,
        "2032": 129,
        "2033": 209,
        "2034": 12,
        "2035": 220,
        "2036": 140,
        "2037": 34,
        "2038": 77,
        "2039": 195,
        "2040": 63,
        "2041": 180,
        "2042": 83,
        "2043": 108,
        "2044": 120,
        "2045": 232,
        "2046": 88,
        "2047": 111,
        "2048": 172,
        "2049": 158,
        "2050": 69,
        "2051": 73,
        "2052": 178,
        "2053": 117,
        "2054": 9,
        "2055": 56,
        "2056": 59,
        "2057": 15,
        "2058": 64,
        "2059": 236,
        "2060": 203,
        "2061": 137,
        "2062": 37,
        "2063": 16,
        "2064": 41,
        "2065": 229,
        "2066": 129,
        "2067": 94,
        "2068": 68,
        "2069": 149,
        "2070": 87,
        "2071": 11,
        "2072": 124,
        "2073": 15,
        "2074": 69,
        "2075": 161,
        "2076": 124,
        "2077": 254,
        "2078": 157,
        "2079": 252,
        "2080": 160,
        "2081": 34,
        "2082": 41,
        "2083": 166,
        "2084": 62,
        "2085": 26,
        "2086": 210,
        "2087": 213,
        "2088": 41,
        "2089": 72,
        "2090": 123,
        "2091": 34,
        "2092": 166,
        "2093": 153,
        "2094": 191,
        "2095": 232,
        "2096": 134,
        "2097": 41,
        "2098": 202,
        "2099": 39,
        "2100": 48,
        "2101": 16,
        "2102": 145,
        "2103": 185,
        "2104": 253,
        "2105": 168,
        "2106": 194,
        "2107": 22,
        "2108": 174,
        "2109": 239,
        "2110": 204,
        "2111": 117,
        "2112": 73,
        "2113": 204,
        "2114": 6,
        "2115": 234,
        "2116": 141,
        "2117": 10,
        "2118": 210,
        "2119": 250,
        "2120": 186,
        "2121": 27,
        "2122": 140,
        "2123": 4,
        "2124": 180,
        "2125": 12,
        "2126": 29,
        "2127": 108,
        "2128": 24,
        "2129": 74,
        "2130": 83,
        "2131": 197,
        "2132": 55,
        "2133": 194,
        "2134": 53,
        "2135": 78,
        "2136": 174,
        "2137": 38,
        "2138": 152,
        "2139": 106,
        "2140": 163,
        "2141": 62,
        "2142": 232,
        "2143": 245,
        "2144": 192,
        "2145": 110,
        "2146": 108,
        "2147": 78,
        "2148": 113,
        "2149": 1,
        "2150": 228,
        "2151": 110,
        "2152": 4,
        "2153": 151,
        "2154": 95,
        "2155": 114,
        "2156": 73,
        "2157": 250,
        "2158": 41,
        "2159": 134,
        "2160": 174,
        "2161": 188,
        "2162": 80,
        "2163": 114,
        "2164": 254,
        "2165": 213,
        "2166": 83,
        "2167": 78,
        "2168": 168,
        "2169": 87,
        "2170": 50,
        "2171": 87,
        "2172": 10,
        "2173": 97,
        "2174": 75,
        "2175": 69,
        "2176": 131,
        "2177": 252,
        "2178": 237,
        "2179": 92,
        "2180": 185,
        "2181": 253,
        "2182": 158,
        "2183": 65,
        "2184": 160,
        "2185": 20,
        "2186": 0,
        "2187": 106,
        "2188": 93,
        "2189": 236,
        "2190": 112,
        "2191": 127,
        "2192": 253,
        "2193": 232,
        "2194": 246,
        "2195": 10,
        "2196": 19,
        "2197": 5,
        "2198": 82,
        "2199": 123,
        "2200": 238,
        "2201": 3,
        "2202": 173,
        "2203": 177,
        "2204": 229,
        "2205": 132,
        "2206": 122,
        "2207": 49,
        "2208": 240,
        "2209": 189,
        "2210": 170,
        "2211": 35,
        "2212": 27,
        "2213": 185,
        "2214": 103,
        "2215": 66,
        "2216": 224,
        "2217": 187,
        "2218": 86,
        "2219": 123,
        "2220": 235,
        "2221": 69,
        "2222": 142,
        "2223": 229,
        "2224": 5,
        "2225": 9,
        "2226": 198,
        "2227": 42,
        "2228": 143,
        "2229": 95,
        "2230": 57,
        "2231": 102,
        "2232": 140,
        "2233": 68,
        "2234": 239,
        "2235": 63,
        "2236": 190,
        "2237": 133,
        "2238": 224,
        "2239": 251,
        "2240": 208,
        "2241": 243,
        "2242": 231,
        "2243": 211,
        "2244": 237,
        "2245": 29,
        "2246": 60,
        "2247": 233,
        "2248": 65,
        "2249": 174,
        "2250": 30,
        "2251": 17,
        "2252": 11,
        "2253": 1,
        "2254": 228,
        "2255": 145,
        "2256": 226,
        "2257": 113,
        "2258": 182,
        "2259": 190,
        "2260": 78,
        "2261": 155,
        "2262": 132,
        "2263": 205,
        "2264": 175,
        "2265": 26,
        "2266": 109,
        "2267": 183,
        "2268": 30,
        "2269": 77,
        "2270": 234,
        "2271": 189,
        "2272": 118,
        "2273": 98,
        "2274": 224,
        "2275": 223,
        "2276": 186,
        "2277": 25,
        "2278": 79,
        "2279": 0,
        "2280": 104,
        "2281": 38,
        "2282": 196,
        "2283": 189,
        "2284": 169,
        "2285": 244,
        "2286": 152,
        "2287": 13,
        "2288": 59,
        "2289": 156,
        "2290": 150,
        "2291": 212,
        "2292": 67,
        "2293": 254,
        "2294": 42,
        "2295": 197,
        "2296": 191,
        "2297": 156,
        "2298": 4,
        "2299": 250,
        "2300": 213,
        "2301": 43,
        "2302": 6,
        "2303": 57,
        "2304": 70,
        "2305": 15,
        "2306": 24,
        "2307": 28,
        "2308": 74,
        "2309": 68,
        "2310": 3,
        "2311": 255,
        "2312": 255,
        "2313": 103,
        "2314": 30,
        "2315": 98,
        "2316": 12,
        "2317": 206,
        "2318": 164,
        "2319": 214,
        "2320": 26,
        "2321": 15,
        "2322": 221,
        "2323": 229,
        "2324": 114,
        "2325": 42,
        "2326": 36,
        "2327": 209,
        "2328": 142,
        "2329": 124,
        "2330": 23,
        "2331": 198,
        "2332": 22,
        "2333": 44,
        "2334": 12,
        "2335": 165,
        "2336": 237,
        "2337": 164,
        "2338": 207,
        "2339": 109,
        "2340": 147,
        "2341": 66,
        "2342": 193,
        "2343": 189,
        "2344": 22,
        "2345": 68,
        "2346": 206,
        "2347": 130,
        "2348": 74,
        "2349": 150,
        "2350": 17,
        "2351": 39,
        "2352": 171,
        "2353": 23,
        "2354": 150,
        "2355": 139,
        "2356": 193,
        "2357": 154,
        "2358": 130,
        "2359": 68,
        "2360": 254,
        "2361": 159,
        "2362": 10,
        "2363": 38,
        "2364": 165,
        "2365": 239,
        "2366": 36,
        "2367": 51,
        "2368": 178,
        "2369": 110,
        "2370": 186,
        "2371": 155,
        "2372": 80,
        "2373": 20,
        "2374": 93,
        "2375": 84,
        "2376": 115,
        "2377": 89,
        "2378": 38,
        "2379": 24,
        "2380": 39,
        "2381": 66,
        "2382": 9,
        "2383": 215,
        "2384": 53,
        "2385": 8,
        "2386": 181,
        "2387": 81,
        "2388": 60,
        "2389": 66,
        "2390": 11,
        "2391": 137,
        "2392": 113,
        "2393": 11,
        "2394": 14,
        "2395": 220,
        "2396": 23,
        "2397": 210,
        "2398": 5,
        "2399": 4,
        "2400": 16,
        "2401": 20,
        "2402": 55,
        "2403": 220,
        "2404": 104,
        "2405": 234,
        "2406": 146,
        "2407": 216,
        "2408": 127,
        "2409": 77,
        "2410": 238,
        "2411": 111,
        "2412": 220,
        "2413": 222,
        "2414": 250,
        "2415": 122,
        "2416": 75,
        "2417": 249,
        "2418": 37,
        "2419": 46,
        "2420": 135,
        "2421": 121,
        "2422": 70,
        "2423": 180,
        "2424": 152,
        "2425": 80,
        "2426": 161,
        "2427": 136,
        "2428": 164,
        "2429": 45,
        "2430": 248,
        "2431": 112,
        "2432": 216,
        "2433": 220,
        "2434": 235,
        "2435": 160,
        "2436": 6,
        "2437": 250,
        "2438": 81,
        "2439": 196,
        "2440": 52,
        "2441": 30,
        "2442": 118,
        "2443": 101,
        "2444": 163,
        "2445": 91,
        "2446": 243,
        "2447": 123,
        "2448": 30,
        "2449": 244,
        "2450": 62,
        "2451": 226,
        "2452": 93,
        "2453": 18,
        "2454": 204,
        "2455": 13,
        "2456": 45,
        "2457": 225,
        "2458": 142,
        "2459": 6,
        "2460": 92,
        "2461": 207,
        "2462": 70,
        "2463": 195,
        "2464": 233,
        "2465": 52,
        "2466": 6,
        "2467": 60,
        "2468": 253,
        "2469": 38,
        "2470": 249,
        "2471": 59,
        "2472": 120,
        "2473": 118,
        "2474": 213,
        "2475": 83,
        "2476": 225,
        "2477": 68,
        "2478": 240,
        "2479": 230,
        "2480": 190,
        "2481": 245,
        "2482": 18,
        "2483": 246,
        "2484": 145,
        "2485": 126,
        "2486": 238,
        "2487": 26,
        "2488": 120,
        "2489": 59,
        "2490": 243,
        "2491": 157,
        "2492": 13,
        "2493": 212,
        "2494": 196,
        "2495": 20,
        "2496": 103,
        "2497": 123,
        "2498": 27,
        "2499": 198,
        "2500": 89,
        "2501": 95,
        "2502": 46,
        "2503": 156,
        "2504": 147,
        "2505": 67,
        "2506": 53,
        "2507": 146,
        "2508": 182,
        "2509": 73,
        "2510": 49,
        "2511": 215,
        "2512": 111,
        "2513": 105,
        "2514": 163,
        "2515": 138,
        "2516": 84,
        "2517": 77,
        "2518": 134,
        "2519": 151,
        "2520": 128,
        "2521": 23,
        "2522": 208,
        "2523": 59,
        "2524": 55,
        "2525": 62,
        "2526": 13,
        "2527": 127,
        "2528": 215,
        "2529": 149,
        "2530": 180,
        "2531": 49,
        "2532": 29,
        "2533": 188,
        "2534": 175,
        "2535": 162,
        "2536": 167,
        "2537": 149,
        "2538": 242,
        "2539": 106,
        "2540": 124,
        "2541": 190,
        "2542": 72,
        "2543": 13,
        "2544": 122,
        "2545": 185,
        "2546": 227,
        "2547": 191,
        "2548": 109,
        "2549": 115,
        "2550": 119,
        "2551": 184,
        "2552": 104,
        "2553": 52,
        "2554": 172,
        "2555": 204,
        "2556": 8,
        "2557": 130,
        "2558": 76,
        "2559": 9,
        "2560": 178,
        "2561": 19,
        "2562": 148,
        "2563": 189,
        "2564": 207,
        "2565": 22,
        "2566": 208,
        "2567": 131,
        "2568": 53,
        "2569": 92,
        "2570": 74,
        "2571": 248,
        "2572": 230,
        "2573": 90,
        "2574": 22,
        "2575": 105,
        "2576": 197,
        "2577": 1,
        "2578": 201,
        "2579": 246,
        "2580": 170,
        "2581": 134,
        "2582": 248,
        "2583": 13,
        "2584": 134,
        "2585": 100,
        "2586": 247,
        "2587": 122,
        "2588": 38,
        "2589": 184,
        "2590": 36,
        "2591": 232,
        "2592": 80,
        "2593": 204,
        "2594": 87,
        "2595": 38,
        "2596": 40,
        "2597": 81,
        "2598": 97,
        "2599": 30,
        "2600": 48,
        "2601": 189,
        "2602": 176,
        "2603": 217,
        "2604": 122,
        "2605": 172,
        "2606": 92,
        "2607": 161,
        "2608": 210,
        "2609": 107,
        "2610": 177,
        "2611": 162,
        "2612": 105,
        "2613": 239,
        "2614": 183,
        "2615": 218,
        "2616": 99,
        "2617": 48,
        "2618": 228,
        "2619": 249,
        "2620": 232,
        "2621": 81,
        "2622": 140,
        "2623": 152,
        "2624": 50,
        "2625": 97,
        "2626": 36,
        "2627": 34,
        "2628": 8,
        "2629": 98,
        "2630": 208,
        "2631": 126,
        "2632": 84,
        "2633": 240,
        "2634": 126,
        "2635": 119,
        "2636": 119,
        "2637": 32,
        "2638": 41,
        "2639": 95,
        "2640": 151,
        "2641": 55,
        "2642": 27,
        "2643": 181,
        "2644": 91,
        "2645": 112,
        "2646": 111,
        "2647": 182,
        "2648": 100,
        "2649": 97,
        "2650": 116,
        "2651": 236,
        "2652": 122,
        "2653": 78,
        "2654": 56,
        "2655": 61,
        "2656": 210,
        "2657": 199,
        "2658": 8,
        "2659": 92,
        "2660": 196,
        "2661": 147,
        "2662": 164,
        "2663": 249,
        "2664": 8,
        "2665": 195,
        "2666": 128,
        "2667": 214,
        "2668": 204,
        "2669": 65,
        "2670": 157,
        "2671": 157,
        "2672": 142,
        "2673": 198,
        "2674": 10,
        "2675": 50,
        "2676": 89,
        "2677": 192,
        "2678": 198,
        "2679": 135,
        "2680": 47,
        "2681": 16,
        "2682": 243,
        "2683": 50,
        "2684": 85,
        "2685": 70,
        "2686": 199,
        "2687": 53,
        "2688": 186,
        "2689": 44,
        "2690": 255,
        "2691": 119,
        "2692": 31,
        "2693": 237,
        "2694": 29,
        "2695": 22,
        "2696": 17,
        "2697": 162,
        "2698": 96,
        "2699": 14,
        "2700": 160,
        "2701": 23,
        "2702": 140,
        "2703": 212,
        "2704": 7,
        "2705": 247,
        "2706": 70,
        "2707": 150,
        "2708": 197,
        "2709": 104,
        "2710": 204,
        "2711": 231,
        "2712": 193,
        "2713": 136,
        "2714": 71,
        "2715": 126,
        "2716": 22,
        "2717": 25,
        "2718": 215,
        "2719": 114,
        "2720": 197,
        "2721": 72,
        "2722": 62,
        "2723": 102,
        "2724": 47,
        "2725": 113,
        "2726": 92,
        "2727": 243,
        "2728": 232,
        "2729": 166,
        "2730": 52,
        "2731": 54,
        "2732": 79,
        "2733": 80,
        "2734": 13,
        "2735": 253,
        "2736": 197,
        "2737": 101,
        "2738": 203,
        "2739": 219,
        "2740": 239,
        "2741": 86,
        "2742": 249,
        "2743": 52,
        "2744": 126,
        "2745": 230,
        "2746": 23,
        "2747": 111,
        "2748": 101,
        "2749": 101,
        "2750": 242,
        "2751": 20,
        "2752": 185,
        "2753": 166,
        "2754": 122,
        "2755": 192,
        "2756": 183,
        "2757": 46,
        "2758": 189,
        "2759": 160,
        "2760": 68,
        "2761": 109,
        "2762": 10,
        "2763": 234,
        "2764": 244,
        "2765": 177,
        "2766": 219,
        "2767": 154,
        "2768": 75,
        "2769": 117,
        "2770": 198,
        "2771": 161,
        "2772": 205,
        "2773": 40,
        "2774": 170,
        "2775": 251,
        "2776": 159,
        "2777": 241,
        "2778": 201,
        "2779": 184,
        "2780": 195,
        "2781": 138,
        "2782": 81,
        "2783": 55,
        "2784": 202,
        "2785": 169,
        "2786": 239,
        "2787": 125,
        "2788": 153,
        "2789": 217,
        "2790": 68,
        "2791": 219,
        "2792": 20,
        "2793": 217,
        "2794": 225,
        "2795": 57,
        "2796": 132,
        "2797": 7,
        "2798": 92,
        "2799": 253,
        "2800": 108,
        "2801": 254,
        "2802": 187,
        "2803": 69,
        "2804": 5,
        "2805": 41,
        "2806": 175,
        "2807": 75,
        "2808": 64,
        "2809": 255,
        "2810": 233,
        "2811": 82,
        "2812": 25,
        "2813": 180,
        "2814": 210,
        "2815": 201,
        "2816": 122,
        "2817": 147,
        "2818": 50,
        "2819": 193,
        "2820": 211,
        "2821": 116,
        "2822": 33,
        "2823": 1,
        "2824": 33,
        "2825": 17,
        "2826": 76,
        "2827": 183,
        "2828": 88,
        "2829": 34,
        "2830": 130,
        "2831": 139,
        "2832": 247,
        "2833": 63,
        "2834": 135,
        "2835": 59,
        "2836": 53,
        "2837": 88,
        "2838": 194,
        "2839": 217,
        "2840": 150,
        "2841": 220,
        "2842": 50,
        "2843": 214,
        "2844": 135,
        "2845": 83,
        "2846": 101,
        "2847": 1,
        "2848": 154,
        "2849": 186,
        "2850": 100,
        "2851": 7,
        "2852": 247,
        "2853": 127,
        "2854": 172,
        "2855": 106,
        "2856": 152,
        "2857": 198,
        "2858": 78,
        "2859": 137,
        "2860": 25,
        "2861": 168,
        "2862": 156,
        "2863": 69,
        "2864": 132,
        "2865": 226,
        "2866": 59,
        "2867": 115,
        "2868": 169,
        "2869": 83,
        "2870": 2,
        "2871": 194,
        "2872": 165,
        "2873": 80,
        "2874": 20,
        "2875": 61,
        "2876": 9,
        "2877": 171,
        "2878": 152,
        "2879": 253,
        "2880": 99,
        "2881": 241,
        "2882": 219,
        "2883": 248,
        "2884": 42,
        "2885": 9,
        "2886": 187,
        "2887": 178,
        "2888": 248,
        "2889": 189,
        "2890": 177,
        "2891": 151,
        "2892": 148,
        "2893": 44,
        "2894": 189,
        "2895": 40,
        "2896": 233,
        "2897": 130,
        "2898": 219,
        "2899": 42,
        "2900": 195,
        "2901": 21,
        "2902": 237,
        "2903": 127,
        "2904": 120,
        "2905": 110,
        "2906": 120,
        "2907": 140,
        "2908": 88,
        "2909": 195,
        "2910": 108,
        "2911": 59,
        "2912": 94,
        "2913": 250,
        "2914": 189,
        "2915": 153,
        "2916": 152,
        "2917": 195,
        "2918": 149,
        "2919": 21,
        "2920": 67,
        "2921": 53,
        "2922": 133,
        "2923": 170,
        "2924": 75,
        "2925": 205,
        "2926": 88,
        "2927": 255,
        "2928": 184,
        "2929": 98,
        "2930": 197,
        "2931": 153,
        "2932": 29,
        "2933": 173,
        "2934": 145,
        "2935": 234,
        "2936": 252,
        "2937": 227,
        "2938": 124,
        "2939": 129,
        "2940": 47,
        "2941": 242,
        "2942": 154,
        "2943": 16,
        "2944": 135,
        "2945": 30,
        "2946": 104,
        "2947": 6,
        "2948": 199,
        "2949": 224,
        "2950": 239,
        "2951": 245,
        "2952": 70,
        "2953": 180,
        "2954": 191,
        "2955": 105,
        "2956": 41,
        "2957": 74,
        "2958": 108,
        "2959": 77,
        "2960": 35,
        "2961": 179,
        "2962": 203,
        "2963": 255,
        "2964": 132,
        "2965": 19,
        "2966": 229,
        "2967": 117,
        "2968": 30,
        "2969": 32,
        "2970": 16,
        "2971": 217,
        "2972": 74,
        "2973": 108,
        "2974": 26,
        "2975": 172,
        "2976": 74,
        "2977": 234,
        "2978": 23,
        "2979": 229,
        "2980": 93,
        "2981": 199,
        "2982": 242,
        "2983": 49,
        "2984": 218,
        "2985": 119,
        "2986": 95,
        "2987": 242,
        "2988": 78,
        "2989": 134,
        "2990": 196,
        "2991": 115,
        "2992": 55,
        "2993": 91,
        "2994": 104,
        "2995": 93,
        "2996": 196,
        "2997": 194,
        "2998": 213,
        "2999": 28,
        "3000": 47,
        "3001": 245,
        "3002": 75,
        "3003": 81,
        "3004": 207,
        "3005": 34,
        "3006": 28,
        "3007": 250,
        "3008": 110,
        "3009": 21,
        "3010": 11,
        "3011": 170,
        "3012": 39,
        "3013": 56,
        "3014": 42,
        "3015": 49,
        "3016": 206,
        "3017": 7,
        "3018": 144,
        "3019": 199,
        "3020": 173,
        "3021": 86,
        "3022": 70,
        "3023": 13,
        "3024": 86,
        "3025": 112,
        "3026": 163,
        "3027": 122,
        "3028": 143,
        "3029": 72,
        "3030": 30,
        "3031": 222,
        "3032": 152,
        "3033": 208,
        "3034": 144,
        "3035": 13,
        "3036": 214,
        "3037": 176,
        "3038": 129,
        "3039": 109,
        "3040": 114,
        "3041": 187,
        "3042": 227,
        "3043": 151,
        "3044": 70,
        "3045": 236,
        "3046": 78,
        "3047": 122,
        "3048": 32,
        "3049": 66,
        "3050": 30,
        "3051": 197,
        "3052": 221,
        "3053": 145,
        "3054": 109,
        "3055": 251,
        "3056": 11,
        "3057": 26,
        "3058": 3,
        "3059": 137,
        "3060": 164,
        "3061": 183,
        "3062": 33,
        "3063": 74,
        "3064": 187,
        "3065": 132,
        "3066": 57,
        "3067": 149,
        "3068": 91,
        "3069": 180,
        "3070": 117,
        "3071": 240,
        "3072": 46,
        "3073": 135,
        "3074": 150,
        "3075": 55,
        "3076": 70,
        "3077": 12,
        "3078": 19,
        "3079": 246,
        "3080": 184,
        "3081": 196,
        "3082": 125,
        "3083": 77,
        "3084": 119,
        "3085": 13,
        "3086": 105,
        "3087": 230,
        "3088": 233,
        "3089": 76,
        "3090": 22,
        "3091": 184,
        "3092": 179,
        "3093": 58,
        "3094": 41,
        "3095": 96,
        "3096": 61,
        "3097": 32,
        "3098": 48,
        "3099": 110,
        "3100": 243,
        "3101": 140,
        "3102": 130,
        "3103": 250,
        "3104": 254,
        "3105": 1,
        "3106": 171,
        "3107": 175,
        "3108": 83,
        "3109": 40,
        "3110": 111,
        "3111": 108,
        "3112": 40,
        "3113": 4,
        "3114": 234,
        "3115": 26,
        "3116": 182,
        "3117": 243,
        "3118": 167,
        "3119": 39,
        "3120": 202,
        "3121": 82,
        "3122": 157,
        "3123": 7,
        "3124": 54,
        "3125": 44,
        "3126": 253,
        "3127": 72,
        "3128": 102,
        "3129": 238,
        "3130": 15,
        "3131": 63,
        "3132": 9,
        "3133": 67,
        "3134": 248,
        "3135": 80,
        "3136": 182,
        "3137": 230,
        "3138": 83,
        "3139": 246,
        "3140": 111,
        "3141": 146,
        "3142": 49,
        "3143": 52,
        "3144": 185,
        "3145": 32,
        "3146": 253,
        "3147": 166,
        "3148": 60,
        "3149": 102,
        "3150": 212,
        "3151": 114,
        "3152": 243,
        "3153": 31,
        "3154": 98,
        "3155": 206,
        "3156": 101,
        "3157": 254,
        "3158": 196,
        "3159": 118,
        "3160": 169,
        "3161": 244,
        "3162": 94,
        "3163": 225,
        "3164": 250,
        "3165": 32,
        "3166": 166,
        "3167": 177,
        "3168": 171,
        "3169": 217,
        "3170": 83,
        "3171": 95,
        "3172": 34,
        "3173": 135,
        "3174": 109,
        "3175": 255,
        "3176": 214,
        "3177": 244,
        "3178": 124,
        "3179": 181,
        "3180": 14,
        "3181": 79,
        "3182": 111,
        "3183": 190,
        "3184": 222,
        "3185": 101,
        "3186": 52,
        "3187": 118,
        "3188": 88,
        "3189": 248,
        "3190": 123,
        "3191": 241,
        "3192": 218,
        "3193": 44,
        "3194": 43,
        "3195": 196,
        "3196": 156,
        "3197": 184,
        "3198": 6,
        "3199": 135,
        "3200": 140,
        "3201": 249,
        "3202": 211,
        "3203": 128,
        "3204": 61,
        "3205": 56,
        "3206": 185,
        "3207": 249,
        "3208": 70,
        "3209": 106,
        "3210": 100,
        "3211": 179,
        "3212": 82,
        "3213": 66,
        "3214": 122,
        "3215": 229,
        "3216": 168,
        "3217": 7,
        "3218": 209,
        "3219": 11,
        "3220": 152,
        "3221": 180,
        "3222": 163,
        "3223": 223,
        "3224": 95,
        "3225": 122,
        "3226": 2,
        "3227": 97,
        "3228": 162,
        "3229": 104,
        "3230": 41,
        "3231": 98,
        "3232": 243,
        "3233": 24,
        "3234": 153,
        "3235": 124,
        "3236": 16,
        "3237": 6,
        "3238": 91,
        "3239": 208,
        "3240": 228,
        "3241": 106,
        "3242": 233,
        "3243": 242,
        "3244": 9,
        "3245": 35,
        "3246": 155,
        "3247": 132,
        "3248": 7,
        "3249": 184,
        "3250": 75,
        "3251": 131,
        "3252": 226,
        "3253": 105,
        "3254": 60,
        "3255": 120,
        "3256": 246,
        "3257": 167,
        "3258": 122,
        "3259": 46,
        "3260": 120,
        "3261": 175,
        "3262": 233,
        "3263": 144,
        "3264": 28,
        "3265": 36,
        "3266": 171,
        "3267": 30,
        "3268": 156,
        "3269": 59,
        "3270": 126,
        "3271": 139,
        "3272": 202,
        "3273": 152,
        "3274": 38,
        "3275": 152,
        "3276": 43,
        "3277": 95,
        "3278": 115,
        "3279": 114,
        "3280": 185,
        "3281": 211,
        "3282": 91,
        "3283": 136,
        "3284": 237,
        "3285": 34,
        "3286": 131,
        "3287": 174,
        "3288": 85,
        "3289": 57,
        "3290": 76,
        "3291": 227,
        "3292": 86,
        "3293": 1,
        "3294": 155,
        "3295": 93,
        "3296": 195,
        "3297": 70,
        "3298": 110,
        "3299": 230,
        "3300": 125,
        "3301": 182,
        "3302": 53,
        "3303": 210,
        "3304": 249,
        "3305": 247,
        "3306": 94,
        "3307": 191,
        "3308": 121,
        "3309": 45,
        "3310": 115,
        "3311": 221,
        "3312": 81,
        "3313": 252,
        "3314": 252,
        "3315": 146,
        "3316": 87,
        "3317": 14,
        "3318": 212,
        "3319": 150,
        "3320": 28,
        "3321": 80,
        "3322": 193,
        "3323": 23,
        "3324": 128,
        "3325": 65,
        "3326": 189,
        "3327": 87,
        "3328": 19,
        "3329": 136,
        "3330": 32,
        "3331": 253,
        "3332": 86,
        "3333": 43,
        "3334": 120,
        "3335": 155,
        "3336": 64,
        "3337": 94,
        "3338": 69,
        "3339": 84,
        "3340": 55,
        "3341": 55,
        "3342": 76,
        "3343": 7,
        "3344": 30,
        "3345": 155,
        "3346": 151,
        "3347": 208,
        "3348": 72,
        "3349": 149,
        "3350": 1,
        "3351": 176,
        "3352": 200,
        "3353": 117,
        "3354": 26,
        "3355": 246,
        "3356": 183,
        "3357": 12,
        "3358": 246,
        "3359": 37,
        "3360": 105,
        "3361": 185,
        "3362": 73,
        "3363": 3,
        "3364": 103,
        "3365": 177,
        "3366": 135,
        "3367": 95,
        "3368": 1,
        "3369": 243,
        "3370": 144,
        "3371": 206,
        "3372": 243,
        "3373": 253,
        "3374": 75,
        "3375": 124,
        "3376": 145,
        "3377": 40,
        "3378": 127,
        "3379": 228,
        "3380": 91,
        "3381": 60,
        "3382": 252,
        "3383": 108,
        "3384": 222,
        "3385": 240,
        "3386": 26,
        "3387": 24,
        "3388": 90,
        "3389": 213,
        "3390": 105,
        "3391": 64,
        "3392": 230,
        "3393": 109,
        "3394": 81,
        "3395": 66,
        "3396": 208,
        "3397": 153,
        "3398": 228,
        "3399": 58,
        "3400": 121,
        "3401": 29,
        "3402": 136,
        "3403": 65,
        "3404": 79,
        "3405": 17,
        "3406": 135,
        "3407": 50,
        "3408": 204,
        "3409": 241,
        "3410": 109,
        "3411": 161,
        "3412": 50,
        "3413": 106,
        "3414": 184,
        "3415": 97,
        "3416": 247,
        "3417": 90,
        "3418": 55,
        "3419": 188,
        "3420": 38,
        "3421": 20,
        "3422": 8,
        "3423": 93,
        "3424": 147,
        "3425": 52,
        "3426": 224,
        "3427": 151,
        "3428": 232,
        "3429": 31,
        "3430": 7,
        "3431": 42,
        "3432": 255,
        "3433": 202,
        "3434": 132,
        "3435": 102,
        "3436": 159,
        "3437": 82,
        "3438": 144,
        "3439": 91,
        "3440": 40,
        "3441": 247,
        "3442": 208,
        "3443": 141,
        "3444": 80,
        "3445": 174,
        "3446": 37,
        "3447": 180,
        "3448": 240,
        "3449": 36,
        "3450": 232,
        "3451": 62,
        "3452": 35,
        "3453": 162,
        "3454": 92,
        "3455": 50,
        "3456": 177,
        "3457": 101,
        "3458": 123,
        "3459": 114,
        "3460": 24,
        "3461": 74,
        "3462": 112,
        "3463": 235,
        "3464": 70,
        "3465": 238,
        "3466": 5,
        "3467": 117,
        "3468": 59,
        "3469": 180,
        "3470": 136,
        "3471": 88,
        "3472": 69,
        "3473": 28,
        "3474": 230,
        "3475": 143,
        "3476": 237,
        "3477": 204,
        "3478": 80,
        "3479": 113,
        "3480": 158,
        "3481": 46,
        "3482": 38,
        "3483": 210,
        "3484": 80,
        "3485": 171,
        "3486": 26,
        "3487": 108,
        "3488": 237,
        "3489": 192,
        "3490": 20,
        "3491": 144,
        "3492": 221,
        "3493": 195,
        "3494": 90,
        "3495": 34,
        "3496": 73,
        "3497": 151,
        "3498": 45,
        "3499": 5,
        "3500": 135,
        "3501": 33,
        "3502": 22,
        "3503": 250,
        "3504": 239,
        "3505": 7,
        "3506": 102,
        "3507": 132,
        "3508": 255,
        "3509": 248,
        "3510": 109,
        "3511": 65,
        "3512": 46,
        "3513": 63,
        "3514": 17,
        "3515": 29,
        "3516": 168,
        "3517": 250,
        "3518": 78,
        "3519": 145,
        "3520": 96,
        "3521": 171,
        "3522": 131,
        "3523": 64,
        "3524": 112,
        "3525": 220,
        "3526": 184,
        "3527": 189,
        "3528": 178,
        "3529": 214,
        "3530": 75,
        "3531": 118,
        "3532": 239,
        "3533": 46,
        "3534": 11,
        "3535": 223,
        "3536": 143,
        "3537": 196,
        "3538": 239,
        "3539": 214,
        "3540": 28,
        "3541": 63,
        "3542": 196,
        "3543": 77,
        "3544": 96,
        "3545": 135,
        "3546": 177,
        "3547": 135,
        "3548": 155,
        "3549": 253,
        "3550": 234,
        "3551": 223,
        "3552": 96,
        "3553": 162,
        "3554": 209,
        "3555": 55,
        "3556": 44,
        "3557": 214,
        "3558": 157,
        "3559": 24,
        "3560": 231,
        "3561": 93,
        "3562": 221,
        "3563": 175,
        "3564": 231,
        "3565": 159,
        "3566": 55,
        "3567": 132,
        "3568": 12,
        "3569": 93,
        "3570": 19,
        "3571": 161,
        "3572": 146,
        "3573": 102,
        "3574": 95,
        "3575": 188,
        "3576": 60,
        "3577": 200,
        "3578": 133,
        "3579": 248,
        "3580": 87,
        "3581": 78,
        "3582": 122,
        "3583": 254,
        "3584": 238,
        "3585": 214,
        "3586": 84,
        "3587": 139,
        "3588": 223,
        "3589": 28,
        "3590": 202,
        "3591": 163,
        "3592": 10,
        "3593": 49,
        "3594": 32,
        "3595": 201,
        "3596": 161,
        "3597": 14,
        "3598": 13,
        "3599": 95,
        "3600": 110,
        "3601": 113,
        "3602": 190,
        "3603": 5,
        "3604": 36,
        "3605": 146,
        "3606": 144,
        "3607": 104,
        "3608": 34,
        "3609": 7,
        "3610": 154,
        "3611": 230,
        "3612": 215,
        "3613": 80,
        "3614": 73,
        "3615": 35,
        "3616": 94,
        "3617": 220,
        "3618": 147,
        "3619": 104,
        "3620": 194,
        "3621": 224,
        "3622": 74,
        "3623": 194,
        "3624": 61,
        "3625": 220,
        "3626": 127,
        "3627": 99,
        "3628": 80,
        "3629": 231,
        "3630": 200,
        "3631": 210,
        "3632": 245,
        "3633": 249,
        "3634": 28,
        "3635": 176,
        "3636": 5,
        "3637": 203,
        "3638": 82,
        "3639": 165,
        "3640": 101,
        "3641": 237,
        "3642": 95,
        "3643": 131,
        "3644": 235,
        "3645": 120,
        "3646": 245,
        "3647": 96,
        "3648": 189,
        "3649": 96,
        "3650": 42,
        "3651": 0,
        "3652": 163,
        "3653": 250,
        "3654": 98,
        "3655": 199,
        "3656": 224,
        "3657": 139,
        "3658": 11,
        "3659": 225,
        "3660": 250,
        "3661": 209,
        "3662": 252,
        "3663": 10,
        "3664": 173,
        "3665": 23,
        "3666": 176,
        "3667": 224,
        "3668": 184,
        "3669": 115,
        "3670": 143,
        "3671": 109,
        "3672": 140,
        "3673": 249,
        "3674": 130,
        "3675": 215,
        "3676": 247,
        "3677": 32,
        "3678": 43,
        "3679": 39,
        "3680": 62,
        "3681": 31,
        "3682": 232,
        "3683": 171,
        "3684": 251,
        "3685": 60,
        "3686": 196,
        "3687": 47,
        "3688": 198,
        "3689": 4,
        "3690": 23,
        "3691": 176,
        "3692": 168,
        "3693": 29,
        "3694": 135,
        "3695": 41,
        "3696": 94,
        "3697": 83,
        "3698": 156,
        "3699": 51,
        "3700": 250,
        "3701": 70,
        "3702": 63,
        "3703": 8,
        "3704": 61,
        "3705": 53,
        "3706": 76,
        "3707": 234,
        "3708": 60,
        "3709": 108,
        "3710": 91,
        "3711": 92,
        "3712": 159,
        "3713": 184,
        "3714": 131,
        "3715": 93,
        "3716": 189,
        "3717": 227,
        "3718": 242,
        "3719": 185,
        "3720": 40,
        "3721": 218,
        "3722": 87,
        "3723": 136,
        "3724": 240,
        "3725": 164,
        "3726": 215,
        "3727": 20,
        "3728": 133,
        "3729": 7,
        "3730": 225,
        "3731": 249,
        "3732": 2,
        "3733": 164,
        "3734": 218,
        "3735": 82,
        "3736": 252,
        "3737": 120,
        "3738": 106,
        "3739": 9,
        "3740": 171,
        "3741": 175,
        "3742": 8,
        "3743": 212,
        "3744": 84,
        "3745": 121,
        "3746": 213,
        "3747": 35,
        "3748": 83,
        "3749": 74,
        "3750": 232,
        "3751": 142,
        "3752": 73,
        "3753": 164,
        "3754": 236,
        "3755": 87,
        "3756": 62,
        "3757": 55,
        "3758": 132,
        "3759": 33,
        "3760": 119,
        "3761": 34,
        "3762": 192,
        "3763": 108,
        "3764": 248,
        "3765": 210,
        "3766": 223,
        "3767": 164,
        "3768": 13,
        "3769": 90,
        "3770": 185,
        "3771": 162,
        "3772": 91,
        "3773": 81,
        "3774": 41,
        "3775": 188,
        "3776": 169,
        "3777": 239,
        "3778": 211,
        "3779": 121,
        "3780": 99,
        "3781": 54,
        "3782": 142,
        "3783": 65,
        "3784": 207,
        "3785": 19,
        "3786": 213,
        "3787": 115,
        "3788": 183,
        "3789": 55,
        "3790": 185,
        "3791": 62,
        "3792": 245,
        "3793": 46,
        "3794": 255,
        "3795": 85,
        "3796": 92,
        "3797": 194,
        "3798": 164,
        "3799": 173,
        "3800": 158,
        "3801": 74,
        "3802": 103,
        "3803": 236,
        "3804": 171,
        "3805": 162,
        "3806": 30,
        "3807": 208,
        "3808": 248,
        "3809": 216,
        "3810": 41,
        "3811": 71,
        "3812": 240,
        "3813": 26,
        "3814": 118,
        "3815": 193,
        "3816": 216,
        "3817": 233,
        "3818": 204,
        "3819": 35,
        "3820": 198,
        "3821": 69,
        "3822": 148,
        "3823": 108,
        "3824": 55,
        "3825": 46,
        "3826": 211,
        "3827": 114,
        "3828": 215,
        "3829": 167,
        "3830": 237,
        "3831": 230,
        "3832": 218,
        "3833": 84,
        "3834": 229,
        "3835": 179,
        "3836": 29,
        "3837": 143,
        "3838": 37,
        "3839": 224,
        "3840": 69,
        "3841": 230,
        "3842": 167,
        "3843": 225,
        "3844": 43,
        "3845": 36,
        "3846": 11,
        "3847": 238,
        "3848": 245,
        "3849": 213,
        "3850": 125,
        "3851": 60,
        "3852": 160,
        "3853": 97,
        "3854": 139,
        "3855": 216,
        "3856": 244,
        "3857": 231,
        "3858": 217,
        "3859": 94,
        "3860": 242,
        "3861": 99,
        "3862": 50,
        "3863": 192,
        "3864": 251,
        "3865": 19,
        "3866": 44,
        "3867": 203,
        "3868": 239,
        "3869": 142,
        "3870": 171,
        "3871": 251,
        "3872": 83,
        "3873": 239,
        "3874": 247,
        "3875": 19,
        "3876": 246,
        "3877": 151,
        "3878": 65,
        "3879": 140,
        "3880": 220,
        "3881": 131,
        "3882": 130,
        "3883": 37,
        "3884": 244,
        "3885": 132,
        "3886": 143,
        "3887": 43,
        "3888": 151,
        "3889": 66,
        "3890": 180,
        "3891": 100,
        "3892": 30,
        "3893": 144,
        "3894": 128,
        "3895": 100,
        "3896": 32,
        "3897": 255,
        "3898": 151,
        "3899": 193,
        "3900": 139,
        "3901": 33,
        "3902": 137,
        "3903": 184,
        "3904": 220,
        "3905": 100,
        "3906": 108,
        "3907": 204,
        "3908": 75,
        "3909": 105,
        "3910": 20,
        "3911": 206,
        "3912": 140,
        "3913": 20,
        "3914": 204,
        "3915": 92,
        "3916": 38,
        "3917": 60,
        "3918": 207,
        "3919": 212,
        "3920": 43,
        "3921": 214,
        "3922": 182,
        "3923": 212,
        "3924": 164,
        "3925": 128,
        "3926": 147,
        "3927": 198,
        "3928": 117,
        "3929": 235,
        "3930": 216,
        "3931": 223,
        "3932": 120,
        "3933": 135,
        "3934": 211,
        "3935": 237,
        "3936": 37,
        "3937": 88,
        "3938": 63,
        "3939": 212,
        "3940": 235,
        "3941": 187,
        "3942": 217,
        "3943": 227,
        "3944": 20,
        "3945": 22,
        "3946": 214,
        "3947": 228,
        "3948": 13,
        "3949": 138,
        "3950": 70,
        "3951": 178,
        "3952": 115,
        "3953": 234,
        "3954": 104,
        "3955": 155,
        "3956": 236,
        "3957": 17,
        "3958": 174,
        "3959": 236,
        "3960": 165,
        "3961": 15,
        "3962": 184,
        "3963": 238,
        "3964": 255,
        "3965": 57,
        "3966": 84,
        "3967": 78,
        "3968": 118,
        "3969": 142,
        "3970": 145,
        "3971": 113,
        "3972": 225,
        "3973": 188,
        "3974": 169,
        "3975": 14,
        "3976": 220,
        "3977": 238,
        "3978": 39,
        "3979": 229,
        "3980": 128,
        "3981": 110,
        "3982": 178,
        "3983": 48,
        "3984": 253,
        "3985": 23,
        "3986": 61,
        "3987": 232,
        "3988": 231,
        "3989": 137,
        "3990": 165,
        "3991": 125,
        "3992": 250,
        "3993": 8,
        "3994": 243,
        "3995": 145,
        "3996": 145,
        "3997": 189,
        "3998": 249,
        "3999": 121,
        "4000": 152,
        "4001": 163,
        "4002": 70,
        "4003": 126,
        "4004": 243,
        "4005": 109,
        "4006": 67,
        "4007": 151,
        "4008": 30,
        "4009": 225,
        "4010": 165,
        "4011": 232,
        "4012": 186,
        "4013": 18,
        "4014": 162,
        "4015": 37,
        "4016": 88,
        "4017": 231,
        "4018": 249,
        "4019": 111,
        "4020": 198,
        "4021": 120,
        "4022": 127,
        "4023": 185,
        "4024": 154,
        "4025": 176,
        "4026": 234,
        "4027": 103,
        "4028": 241,
        "4029": 21,
        "4030": 38,
        "4031": 114,
        "4032": 203,
        "4033": 235,
        "4034": 118,
        "4035": 0,
        "4036": 215,
        "4037": 108,
        "4038": 159,
        "4039": 61,
        "4040": 106,
        "4041": 120,
        "4042": 99,
        "4043": 0,
        "4044": 94,
        "4045": 156,
        "4046": 38,
        "4047": 234,
        "4048": 187,
        "4049": 36,
        "4050": 102,
        "4051": 148,
        "4052": 252,
        "4053": 72,
        "4054": 113,
        "4055": 34,
        "4056": 169,
        "4057": 134,
        "4058": 249,
        "4059": 230,
        "4060": 61,
        "4061": 123,
        "4062": 46,
        "4063": 107,
        "4064": 254,
        "4065": 22,
        "4066": 157,
        "4067": 160,
        "4068": 176,
        "4069": 41,
        "4070": 182,
        "4071": 220,
        "4072": 70,
        "4073": 76,
        "4074": 118,
        "4075": 137,
        "4076": 128,
        "4077": 195,
        "4078": 91,
        "4079": 160,
        "4080": 208,
        "4081": 161,
        "4082": 126,
        "4083": 219,
        "4084": 26,
        "4085": 0,
        "4086": 5,
        "4087": 17,
        "4088": 254,
        "4089": 154,
        "4090": 65,
        "4091": 197,
        "4092": 77,
        "4093": 54,
        "4094": 65,
        "4095": 211,
        "4096": 36,
        "4097": 103,
        "4098": 64,
        "4099": 212,
        "4100": 32,
        "4101": 153,
        "4102": 165,
        "4103": 122,
        "4104": 214,
        "4105": 252,
        "4106": 7,
        "4107": 37,
        "4108": 166,
        "4109": 206,
        "4110": 45,
        "4111": 236,
        "4112": 217,
        "4113": 195,
        "4114": 203,
        "4115": 85,
        "4116": 105,
        "4117": 209,
        "4118": 47,
        "4119": 8,
        "4120": 7,
        "4121": 168,
        "4122": 149,
        "4123": 7,
        "4124": 193,
        "4125": 7,
        "4126": 75,
        "4127": 62,
        "4128": 240,
        "4129": 49,
        "4130": 239,
        "4131": 33,
        "4132": 89,
        "4133": 234,
        "4134": 190,
        "4135": 95,
        "4136": 160,
        "4137": 41,
        "4138": 16,
        "4139": 123,
        "4140": 252,
        "4141": 211,
        "4142": 81,
        "4143": 169,
        "4144": 3,
        "4145": 181,
        "4146": 117,
        "4147": 40,
        "4148": 215,
        "4149": 191,
        "4150": 159,
        "4151": 229,
        "4152": 67,
        "4153": 78,
        "4154": 96,
        "4155": 147,
        "4156": 198,
        "4157": 139,
        "4158": 110,
        "4159": 175,
        "4160": 223,
        "4161": 12,
        "4162": 1,
        "4163": 218,
        "4164": 193,
        "4165": 11,
        "4166": 225,
        "4167": 2,
        "4168": 124,
        "4169": 158,
        "4170": 114,
        "4171": 78,
        "4172": 7,
        "4173": 203,
        "4174": 214,
        "4175": 48,
        "4176": 203,
        "4177": 54,
        "4178": 198,
        "4179": 67,
        "4180": 109,
        "4181": 152,
        "4182": 54,
        "4183": 221,
        "4184": 50,
        "4185": 173,
        "4186": 85,
        "4187": 209,
        "4188": 76,
        "4189": 127,
        "4190": 151,
        "4191": 108,
        "4192": 116,
        "4193": 153,
        "4194": 223,
        "4195": 51,
        "4196": 202,
        "4197": 137,
        "4198": 30,
        "4199": 84,
        "4200": 52,
        "4201": 251,
        "4202": 79,
        "4203": 11,
        "4204": 201,
        "4205": 141,
        "4206": 84,
        "4207": 90,
        "4208": 54,
        "4209": 56,
        "4210": 204,
        "4211": 139,
        "4212": 185,
        "4213": 139,
        "4214": 174,
        "4215": 91,
        "4216": 169,
        "4217": 157,
        "4218": 47,
        "4219": 65,
        "4220": 205,
        "4221": 79,
        "4222": 9,
        "4223": 61,
        "4224": 10,
        "4225": 134,
        "4226": 216,
        "4227": 64,
        "4228": 255,
        "4229": 15,
        "4230": 126,
        "4231": 115,
        "4232": 26,
        "4233": 159,
        "4234": 120,
        "4235": 31,
        "4236": 10,
        "4237": 97,
        "4238": 22,
        "4239": 112,
        "4240": 253,
        "4241": 55,
        "4242": 131,
        "4243": 241,
        "4244": 88,
        "4245": 45,
        "4246": 9,
        "4247": 133,
        "4248": 101,
        "4249": 65,
        "4250": 172,
        "4251": 162,
        "4252": 145,
        "4253": 61,
        "4254": 129,
        "4255": 212,
        "4256": 201,
        "4257": 169,
        "4258": 136,
        "4259": 3,
        "4260": 76,
        "4261": 71,
        "4262": 172,
        "4263": 30,
        "4264": 83,
        "4265": 66,
        "4266": 185,
        "4267": 203,
        "4268": 255,
        "4269": 218,
        "4270": 220,
        "4271": 10,
        "4272": 156,
        "4273": 164,
        "4274": 185,
        "4275": 76,
        "4276": 49,
        "4277": 7,
        "4278": 122,
        "4279": 194,
        "4280": 120,
        "4281": 130,
        "4282": 187,
        "4283": 99,
        "4284": 76,
        "4285": 136,
        "4286": 40,
        "4287": 69,
        "4288": 216,
        "4289": 75,
        "4290": 31,
        "4291": 197,
        "4292": 127,
        "4293": 220,
        "4294": 160,
        "4295": 88,
        "4296": 42,
        "4297": 93,
        "4298": 252,
        "4299": 103,
        "4300": 24,
        "4301": 115,
        "4302": 167,
        "4303": 180,
        "4304": 0,
        "4305": 226,
        "4306": 206,
        "4307": 108,
        "4308": 35,
        "4309": 98,
        "4310": 4,
        "4311": 178,
        "4312": 118,
        "4313": 140,
        "4314": 171,
        "4315": 101,
        "4316": 223,
        "4317": 139,
        "4318": 114,
        "4319": 110,
        "4320": 251,
        "4321": 142,
        "4322": 63,
        "4323": 219,
        "4324": 62,
        "4325": 46,
        "4326": 148,
        "4327": 87,
        "4328": 255,
        "4329": 215,
        "4330": 219,
        "4331": 241,
        "4332": 79,
        "4333": 202,
        "4334": 89,
        "4335": 203,
        "4336": 109,
        "4337": 15,
        "4338": 95,
        "4339": 100,
        "4340": 2,
        "4341": 139,
        "4342": 11,
        "4343": 236,
        "4344": 20,
        "4345": 30,
        "4346": 71,
        "4347": 166,
        "4348": 163,
        "4349": 44,
        "4350": 67,
        "4351": 207,
        "4352": 184,
        "4353": 154,
        "4354": 189,
        "4355": 143,
        "4356": 121,
        "4357": 0,
        "4358": 194,
        "4359": 105,
        "4360": 41,
        "4361": 166,
        "4362": 106,
        "4363": 14,
        "4364": 110,
        "4365": 198,
        "4366": 185,
        "4367": 78,
        "4368": 51,
        "4369": 37,
        "4370": 8,
        "4371": 64,
        "4372": 199,
        "4373": 145,
        "4374": 135,
        "4375": 64,
        "4376": 9,
        "4377": 120,
        "4378": 163,
        "4379": 211,
        "4380": 197,
        "4381": 193,
        "4382": 62,
        "4383": 249,
        "4384": 101,
        "4385": 89,
        "4386": 229,
        "4387": 57,
        "4388": 30,
        "4389": 122,
        "4390": 18,
        "4391": 172,
        "4392": 207,
        "4393": 137,
        "4394": 43,
        "4395": 231,
        "4396": 235,
        "4397": 187,
        "4398": 239,
        "4399": 136,
        "4400": 233,
        "4401": 172,
        "4402": 89,
        "4403": 19,
        "4404": 16,
        "4405": 28,
        "4406": 113,
        "4407": 9,
        "4408": 56,
        "4409": 4,
        "4410": 65,
        "4411": 20,
        "4412": 162,
        "4413": 52,
        "4414": 132,
        "4415": 128,
        "4416": 240,
        "4417": 122,
        "4418": 245,
        "4419": 70,
        "4420": 202,
        "4421": 65,
        "4422": 108,
        "4423": 250,
        "4424": 211,
        "4425": 104,
        "4426": 44,
        "4427": 134,
        "4428": 66,
        "4429": 153,
        "4430": 72,
        "4431": 249,
        "4432": 26,
        "4433": 136,
        "4434": 215,
        "4435": 230,
        "4436": 109,
        "4437": 72,
        "4438": 72,
        "4439": 95,
        "4440": 153,
        "4441": 135,
        "4442": 4,
        "4443": 9,
        "4444": 216,
        "4445": 139,
        "4446": 64,
        "4447": 135,
        "4448": 15,
        "4449": 173,
        "4450": 3,
        "4451": 46,
        "4452": 73,
        "4453": 3,
        "4454": 229,
        "4455": 188,
        "4456": 49,
        "4457": 199,
        "4458": 130,
        "4459": 6,
        "4460": 14,
        "4461": 220,
        "4462": 37,
        "4463": 177,
        "4464": 101,
        "4465": 174,
        "4466": 85,
        "4467": 180,
        "4468": 164,
        "4469": 225,
        "4470": 45,
        "4471": 32,
        "4472": 81,
        "4473": 6,
        "4474": 255,
        "4475": 117,
        "4476": 99,
        "4477": 239,
        "4478": 191,
        "4479": 64,
        "4480": 191,
        "4481": 20,
        "4482": 12,
        "4483": 244,
        "4484": 145,
        "4485": 99,
        "4486": 146,
        "4487": 178,
        "4488": 155,
        "4489": 173,
        "4490": 14,
        "4491": 190,
        "4492": 159,
        "4493": 159,
        "4494": 48,
        "4495": 67,
        "4496": 122,
        "4497": 150,
        "4498": 156,
        "4499": 75,
        "4500": 103,
        "4501": 103,
        "4502": 31,
        "4503": 160,
        "4504": 249,
        "4505": 43,
        "4506": 22,
        "4507": 249,
        "4508": 193,
        "4509": 114,
        "4510": 222,
        "4511": 252,
        "4512": 6,
        "4513": 197,
        "4514": 127,
        "4515": 110,
        "4516": 216,
        "4517": 14,
        "4518": 51,
        "4519": 20,
        "4520": 117,
        "4521": 249,
        "4522": 171,
        "4523": 115,
        "4524": 47,
        "4525": 173,
        "4526": 212,
        "4527": 205,
        "4528": 68,
        "4529": 178,
        "4530": 155,
        "4531": 60,
        "4532": 69,
        "4533": 253,
        "4534": 152,
        "4535": 58,
        "4536": 27,
        "4537": 206,
        "4538": 8,
        "4539": 117,
        "4540": 172,
        "4541": 86,
        "4542": 116,
        "4543": 176,
        "4544": 65,
        "4545": 135,
        "4546": 195,
        "4547": 202,
        "4548": 89,
        "4549": 24,
        "4550": 7,
        "4551": 55,
        "4552": 150,
        "4553": 165,
        "4554": 114,
        "4555": 168,
        "4556": 237,
        "4557": 162,
        "4558": 227,
        "4559": 82,
        "4560": 116,
        "4561": 147,
        "4562": 213,
        "4563": 13,
        "4564": 167,
        "4565": 144,
        "4566": 190,
        "4567": 214,
        "4568": 4,
        "4569": 99,
        "4570": 82,
        "4571": 31,
        "4572": 135,
        "4573": 2,
        "4574": 161,
        "4575": 167,
        "4576": 181,
        "4577": 52,
        "4578": 237,
        "4579": 234,
        "4580": 149,
        "4581": 25,
        "4582": 69,
        "4583": 63,
        "4584": 77,
        "4585": 217,
        "4586": 223,
        "4587": 201,
        "4588": 25,
        "4589": 22,
        "4590": 226,
        "4591": 23,
        "4592": 236,
        "4593": 242,
        "4594": 2,
        "4595": 149,
        "4596": 190,
        "4597": 177,
        "4598": 156,
        "4599": 144,
        "4600": 80,
        "4601": 7,
        "4602": 28,
        "4603": 85,
        "4604": 6,
        "4605": 210,
        "4606": 103,
        "4607": 83,
        "4608": 244,
        "4609": 190,
        "4610": 124,
        "4611": 86,
        "4612": 208,
        "4613": 164,
        "4614": 125,
        "4615": 178,
        "4616": 24,
        "4617": 139,
        "4618": 161,
        "4619": 15,
        "4620": 242,
        "4621": 173,
        "4622": 116,
        "4623": 77,
        "4624": 5,
        "4625": 195,
        "4626": 96,
        "4627": 91,
        "4628": 127,
        "4629": 15,
        "4630": 55,
        "4631": 209,
        "4632": 214,
        "4633": 170,
        "4634": 110,
        "4635": 199,
        "4636": 67,
        "4637": 163,
        "4638": 80,
        "4639": 234,
        "4640": 196,
        "4641": 253,
        "4642": 152,
        "4643": 9,
        "4644": 114,
        "4645": 35,
        "4646": 179,
        "4647": 77,
        "4648": 113,
        "4649": 215,
        "4650": 140,
        "4651": 194,
        "4652": 245,
        "4653": 79,
        "4654": 112,
        "4655": 225,
        "4656": 130,
        "4657": 17,
        "4658": 180,
        "4659": 41,
        "4660": 74,
        "4661": 75,
        "4662": 205,
        "4663": 208,
        "4664": 88,
        "4665": 89,
        "4666": 35,
        "4667": 5,
        "4668": 148,
        "4669": 171,
        "4670": 174,
        "4671": 205,
        "4672": 90,
        "4673": 125,
        "4674": 49,
        "4675": 14,
        "4676": 150,
        "4677": 9,
        "4678": 112,
        "4679": 54,
        "4680": 135,
        "4681": 240,
        "4682": 169,
        "4683": 167,
        "4684": 14,
        "4685": 62,
        "4686": 55,
        "4687": 231,
        "4688": 97,
        "4689": 82,
        "4690": 6,
        "4691": 125,
        "4692": 10,
        "4693": 76,
        "4694": 62,
        "4695": 244,
        "4696": 22,
        "4697": 231,
        "4698": 220,
        "4699": 143,
        "4700": 112,
        "4701": 107,
        "4702": 203,
        "4703": 136,
        "4704": 92,
        "4705": 199,
        "4706": 127,
        "4707": 158,
        "4708": 88,
        "4709": 86,
        "4710": 170,
        "4711": 235,
        "4712": 156,
        "4713": 230,
        "4714": 174,
        "4715": 238,
        "4716": 59,
        "4717": 48,
        "4718": 148,
        "4719": 111,
        "4720": 209,
        "4721": 230,
        "4722": 221,
        "4723": 21,
        "4724": 77,
        "4725": 185,
        "4726": 98,
        "4727": 189,
        "4728": 12,
        "4729": 99,
        "4730": 222,
        "4731": 90,
        "4732": 139,
        "4733": 129,
        "4734": 180,
        "4735": 163,
        "4736": 228,
        "4737": 123,
        "4738": 81,
        "4739": 29,
        "4740": 23,
        "4741": 206,
        "4742": 127,
        "4743": 203,
        "4744": 144,
        "4745": 143,
        "4746": 18,
        "4747": 180,
        "4748": 80,
        "4749": 105,
        "4750": 246,
        "4751": 14,
        "4752": 43,
        "4753": 59,
        "4754": 40,
        "4755": 183,
        "4756": 96,
        "4757": 158,
        "4758": 119,
        "4759": 41,
        "4760": 218,
        "4761": 206,
        "4762": 63,
        "4763": 240,
        "4764": 209,
        "4765": 132,
        "4766": 110,
        "4767": 221,
        "4768": 188,
        "4769": 244,
        "4770": 49,
        "4771": 223,
        "4772": 53,
        "4773": 77,
        "4774": 190,
        "4775": 116,
        "4776": 224,
        "4777": 63,
        "4778": 240,
        "4779": 229,
        "4780": 82,
        "4781": 77,
        "4782": 74,
        "4783": 244,
        "4784": 34,
        "4785": 121,
        "4786": 142,
        "4787": 105,
        "4788": 171,
        "4789": 121,
        "4790": 122,
        "4791": 164,
        "4792": 121,
        "4793": 225,
        "4794": 206,
        "4795": 189,
        "4796": 54,
        "4797": 148,
        "4798": 228,
        "4799": 225,
        "4800": 80,
        "4801": 196,
        "4802": 0,
        "4803": 138,
        "4804": 96,
        "4805": 200,
        "4806": 52,
        "4807": 211,
        "4808": 83,
        "4809": 239,
        "4810": 10,
        "4811": 253,
        "4812": 202,
        "4813": 245,
        "4814": 153,
        "4815": 44,
        "4816": 188,
        "4817": 199,
        "4818": 31,
        "4819": 19,
        "4820": 201,
        "4821": 0,
        "4822": 141,
        "4823": 131,
        "4824": 148,
        "4825": 80,
        "4826": 152,
        "4827": 189,
        "4828": 50,
        "4829": 238,
        "4830": 55,
        "4831": 87,
        "4832": 117,
        "4833": 140,
        "4834": 130,
        "4835": 121,
        "4836": 7,
        "4837": 79,
        "4838": 74,
        "4839": 111,
        "4840": 45,
        "4841": 237,
        "4842": 131,
        "4843": 89,
        "4844": 191,
        "4845": 3,
        "4846": 34,
        "4847": 38,
        "4848": 232,
        "4849": 226,
        "4850": 106,
        "4851": 50,
        "4852": 246,
        "4853": 165,
        "4854": 29,
        "4855": 237,
        "4856": 4,
        "4857": 156,
        "4858": 193,
        "4859": 146,
        "4860": 168,
        "4861": 238,
        "4862": 130,
        "4863": 22,
        "4864": 226,
        "4865": 250,
        "4866": 63,
        "4867": 148,
        "4868": 187,
        "4869": 20,
        "4870": 93,
        "4871": 49,
        "4872": 73,
        "4873": 116,
        "4874": 250,
        "4875": 57,
        "4876": 163,
        "4877": 254,
        "4878": 42,
        "4879": 20,
        "4880": 36,
        "4881": 249,
        "4882": 90,
        "4883": 197,
        "4884": 35,
        "4885": 7,
        "4886": 30,
        "4887": 239,
        "4888": 244,
        "4889": 6,
        "4890": 99,
        "4891": 1,
        "4892": 112,
        "4893": 243,
        "4894": 219,
        "4895": 49,
        "4896": 166,
        "4897": 34,
        "4898": 162,
        "4899": 115,
        "4900": 145,
        "4901": 249,
        "4902": 49,
        "4903": 42,
        "4904": 0,
        "4905": 234,
        "4906": 146,
        "4907": 146,
        "4908": 211,
        "4909": 188,
        "4910": 147,
        "4911": 172,
        "4912": 25,
        "4913": 14,
        "4914": 140,
        "4915": 118,
        "4916": 228,
        "4917": 143,
        "4918": 47,
        "4919": 82,
        "4920": 119,
        "4921": 108,
        "4922": 242,
        "4923": 87,
        "4924": 243,
        "4925": 111,
        "4926": 188,
        "4927": 52,
        "4928": 152,
        "4929": 241,
        "4930": 153,
        "4931": 141,
        "4932": 89,
        "4933": 209,
        "4934": 49,
        "4935": 215,
        "4936": 59,
        "4937": 121,
        "4938": 159,
        "4939": 151,
        "4940": 45,
        "4941": 81,
        "4942": 174,
        "4943": 119,
        "4944": 54,
        "4945": 49,
        "4946": 36,
        "4947": 94,
        "4948": 66,
        "4949": 174,
        "4950": 226,
        "4951": 154,
        "4952": 168,
        "4953": 132,
        "4954": 13,
        "4955": 215,
        "4956": 218,
        "4957": 9,
        "4958": 68,
        "4959": 224,
        "4960": 196,
        "4961": 204,
        "4962": 10,
        "4963": 79,
        "4964": 102,
        "4965": 207,
        "4966": 142,
        "4967": 36,
        "4968": 70,
        "4969": 203,
        "4970": 110,
        "4971": 12,
        "4972": 162,
        "4973": 204,
        "4974": 60,
        "4975": 241,
        "4976": 217,
        "4977": 244,
        "4978": 41,
        "4979": 220,
        "4980": 166,
        "4981": 152,
        "4982": 141,
        "4983": 180,
        "4984": 80,
        "4985": 142,
        "4986": 100,
        "4987": 207,
        "4988": 231,
        "4989": 11,
        "4990": 105,
        "4991": 152,
        "4992": 220,
        "4993": 116,
        "4994": 128,
        "4995": 13,
        "4996": 68,
        "4997": 34,
        "4998": 124,
        "4999": 130,
        "5000": 68,
        "5001": 70,
        "5002": 11,
        "5003": 54,
        "5004": 167,
        "5005": 53,
        "5006": 12,
        "5007": 64,
        "5008": 65,
        "5009": 11,
        "5010": 231,
        "5011": 72,
        "5012": 144,
        "5013": 199,
        "5014": 241,
        "5015": 236,
        "5016": 244,
        "5017": 166,
        "5018": 115,
        "5019": 181,
        "5020": 200,
        "5021": 162,
        "5022": 194,
        "5023": 190,
        "5024": 206,
        "5025": 190,
        "5026": 167,
        "5027": 33,
        "5028": 42,
        "5029": 56,
        "5030": 137,
        "5031": 246,
        "5032": 56,
        "5033": 32,
        "5034": 217,
        "5035": 55,
        "5036": 176,
        "5037": 214,
        "5038": 27,
        "5039": 9,
        "5040": 155,
        "5041": 175,
        "5042": 7,
        "5043": 94,
        "5044": 169,
        "5045": 129,
        "5046": 231,
        "5047": 1,
        "5048": 70,
        "5049": 99,
        "5050": 47,
        "5051": 172,
        "5052": 24,
        "5053": 133,
        "5054": 143,
        "5055": 154,
        "5056": 167,
        "5057": 254,
        "5058": 51,
        "5059": 171,
        "5060": 104,
        "5061": 175,
        "5062": 76,
        "5063": 16,
        "5064": 215,
        "5065": 39,
        "5066": 88,
        "5067": 45,
        "5068": 251,
        "5069": 119,
        "5070": 193,
        "5071": 50,
        "5072": 58,
        "5073": 88,
        "5074": 30,
        "5075": 10,
        "5076": 30,
        "5077": 61,
        "5078": 100,
        "5079": 80,
        "5080": 191,
        "5081": 139,
        "5082": 64,
        "5083": 212,
        "5084": 158,
        "5085": 82,
        "5086": 240,
        "5087": 99,
        "5088": 6,
        "5089": 192,
        "5090": 98,
        "5091": 41,
        "5092": 159,
        "5093": 145,
        "5094": 77,
        "5095": 141,
        "5096": 20,
        "5097": 211,
        "5098": 237,
        "5099": 176,
        "5100": 76,
        "5101": 67,
        "5102": 80,
        "5103": 102,
        "5104": 106,
        "5105": 204,
        "5106": 108,
        "5107": 163,
        "5108": 5,
        "5109": 195,
        "5110": 224,
        "5111": 58,
        "5112": 69,
        "5113": 10,
        "5114": 99,
        "5115": 225,
        "5116": 66,
        "5117": 165,
        "5118": 233,
        "5119": 3,
        "5120": 208,
        "5121": 79,
        "5122": 75,
        "5123": 249,
        "5124": 237,
        "5125": 5,
        "5126": 30,
        "5127": 57,
        "5128": 241,
        "5129": 24,
        "5130": 112,
        "5131": 80,
        "5132": 234,
        "5133": 212,
        "5134": 102,
        "5135": 46,
        "5136": 47,
        "5137": 245,
        "5138": 25,
        "5139": 207,
        "5140": 121,
        "5141": 45,
        "5142": 3,
        "5143": 162,
        "5144": 67,
        "5145": 246,
        "5146": 255,
        "5147": 173,
        "5148": 102,
        "5149": 15,
        "5150": 103,
        "5151": 46,
        "5152": 255,
        "5153": 74,
        "5154": 115,
        "5155": 115,
        "5156": 18,
        "5157": 116,
        "5158": 232,
        "5159": 24,
        "5160": 255,
        "5161": 137,
        "5162": 1,
        "5163": 214,
        "5164": 74,
        "5165": 149,
        "5166": 191,
        "5167": 6,
        "5168": 203,
        "5169": 61,
        "5170": 250,
        "5171": 105,
        "5172": 237,
        "5173": 39,
        "5174": 202,
        "5175": 119,
        "5176": 94,
        "5177": 1,
        "5178": 215,
        "5179": 229,
        "5180": 133,
        "5181": 119,
        "5182": 20,
        "5183": 144,
        "5184": 203,
        "5185": 92,
        "5186": 193,
        "5187": 235,
        "5188": 6,
        "5189": 70,
        "5190": 195,
        "5191": 131,
        "5192": 50,
        "5193": 40,
        "5194": 238,
        "5195": 252,
        "5196": 28,
        "5197": 218,
        "5198": 60,
        "5199": 72,
        "5200": 160,
        "5201": 41,
        "5202": 116,
        "5203": 37,
        "5204": 145,
        "5205": 91,
        "5206": 23,
        "5207": 63,
        "5208": 222,
        "5209": 74,
        "5210": 220,
        "5211": 189,
        "5212": 27,
        "5213": 73,
        "5214": 243,
        "5215": 133,
        "5216": 234,
        "5217": 191,
        "5218": 132,
        "5219": 191,
        "5220": 35,
        "5221": 91,
        "5222": 115,
        "5223": 103,
        "5224": 146,
        "5225": 71,
        "5226": 23,
        "5227": 161,
        "5228": 176,
        "5229": 17,
        "5230": 215,
        "5231": 140,
        "5232": 96,
        "5233": 184,
        "5234": 23,
        "5235": 68,
        "5236": 184,
        "5237": 226,
        "5238": 154,
        "5239": 72,
        "5240": 211,
        "5241": 203,
        "5242": 72,
        "5243": 51,
        "5244": 193,
        "5245": 38,
        "5246": 149,
        "5247": 202,
        "5248": 248,
        "5249": 84,
        "5250": 47,
        "5251": 54,
        "5252": 30,
        "5253": 253,
        "5254": 98,
        "5255": 183,
        "5256": 44,
        "5257": 228,
        "5258": 237,
        "5259": 45,
        "5260": 238,
        "5261": 107,
        "5262": 203,
        "5263": 236,
        "5264": 238,
        "5265": 114,
        "5266": 84,
        "5267": 82,
        "5268": 125,
        "5269": 228,
        "5270": 179,
        "5271": 161,
        "5272": 159,
        "5273": 215,
        "5274": 238,
        "5275": 31,
        "5276": 205,
        "5277": 244,
        "5278": 154,
        "5279": 240,
        "5280": 124,
        "5281": 69,
        "5282": 108,
        "5283": 207,
        "5284": 194,
        "5285": 127,
        "5286": 254,
        "5287": 253,
        "5288": 177,
        "5289": 137,
        "5290": 139,
        "5291": 30,
        "5292": 137,
        "5293": 163,
        "5294": 238,
        "5295": 35,
        "5296": 99,
        "5297": 167,
        "5298": 72,
        "5299": 225,
        "5300": 110,
        "5301": 227,
        "5302": 106,
        "5303": 79,
        "5304": 166,
        "5305": 165,
        "5306": 190,
        "5307": 142,
        "5308": 98,
        "5309": 160,
        "5310": 96,
        "5311": 60,
        "5312": 36,
        "5313": 86,
        "5314": 147,
        "5315": 60,
        "5316": 7,
        "5317": 177,
        "5318": 2,
        "5319": 44,
        "5320": 204,
        "5321": 47,
        "5322": 227,
        "5323": 193,
        "5324": 79,
        "5325": 36,
        "5326": 76,
        "5327": 164,
        "5328": 44,
        "5329": 109,
        "5330": 154,
        "5331": 35,
        "5332": 59,
        "5333": 105,
        "5334": 94,
        "5335": 236,
        "5336": 124,
        "5337": 241,
        "5338": 143,
        "5339": 19,
        "5340": 238,
        "5341": 209,
        "5342": 140,
        "5343": 153,
        "5344": 76,
        "5345": 210,
        "5346": 150,
        "5347": 86,
        "5348": 18,
        "5349": 106,
        "5350": 195,
        "5351": 173,
        "5352": 149,
        "5353": 152,
        "5354": 48,
        "5355": 83,
        "5356": 180,
        "5357": 134,
        "5358": 99,
        "5359": 42,
        "5360": 70,
        "5361": 98,
        "5362": 253,
        "5363": 247,
        "5364": 131,
        "5365": 42,
        "5366": 94,
        "5367": 7,
        "5368": 214,
        "5369": 51,
        "5370": 182,
        "5371": 210,
        "5372": 187,
        "5373": 145,
        "5374": 145,
        "5375": 171,
        "5376": 10,
        "5377": 68,
        "5378": 89,
        "5379": 126,
        "5380": 83,
        "5381": 84,
        "5382": 28,
        "5383": 110,
        "5384": 235,
        "5385": 180,
        "5386": 167,
        "5387": 80,
        "5388": 154,
        "5389": 210,
        "5390": 177,
        "5391": 104,
        "5392": 67,
        "5393": 162,
        "5394": 140,
        "5395": 194,
        "5396": 117,
        "5397": 132,
        "5398": 91,
        "5399": 251,
        "5400": 166,
        "5401": 230,
        "5402": 33,
        "5403": 212,
        "5404": 86,
        "5405": 148,
        "5406": 0,
        "5407": 125,
        "5408": 154,
        "5409": 201,
        "5410": 89,
        "5411": 160,
        "5412": 172,
        "5413": 88,
        "5414": 130,
        "5415": 230,
        "5416": 87,
        "5417": 41,
        "5418": 10,
        "5419": 43,
        "5420": 116,
        "5421": 26,
        "5422": 76,
        "5423": 243,
        "5424": 149,
        "5425": 148,
        "5426": 9,
        "5427": 230,
        "5428": 196,
        "5429": 53,
        "5430": 140,
        "5431": 127,
        "5432": 164,
        "5433": 8,
        "5434": 176,
        "5435": 117,
        "5436": 252,
        "5437": 234,
        "5438": 16,
        "5439": 70,
        "5440": 198,
        "5441": 101,
        "5442": 101,
        "5443": 208,
        "5444": 165,
        "5445": 43,
        "5446": 148,
        "5447": 49,
        "5448": 73,
        "5449": 171,
        "5450": 229,
        "5451": 50,
        "5452": 103,
        "5453": 145,
        "5454": 169,
        "5455": 22,
        "5456": 234,
        "5457": 191,
        "5458": 191,
        "5459": 52,
        "5460": 25,
        "5461": 61,
        "5462": 108,
        "5463": 96,
        "5464": 122,
        "5465": 73,
        "5466": 137,
        "5467": 255,
        "5468": 115,
        "5469": 93,
        "5470": 110,
        "5471": 8,
        "5472": 139,
        "5473": 171,
        "5474": 17,
        "5475": 209,
        "5476": 120,
        "5477": 110,
        "5478": 245,
        "5479": 26,
        "5480": 226,
        "5481": 152,
        "5482": 153,
        "5483": 68,
        "5484": 172,
        "5485": 55,
        "5486": 172,
        "5487": 223,
        "5488": 241,
        "5489": 242,
        "5490": 164,
        "5491": 18,
        "5492": 219,
        "5493": 151,
        "5494": 72,
        "5495": 211,
        "5496": 53,
        "5497": 122,
        "5498": 42,
        "5499": 227,
        "5500": 22,
        "5501": 187,
        "5502": 12,
        "5503": 98,
        "5504": 3,
        "5505": 92,
        "5506": 132,
        "5507": 164,
        "5508": 51,
        "5509": 141,
        "5510": 208,
        "5511": 184,
        "5512": 202,
        "5513": 195,
        "5514": 54,
        "5515": 238,
        "5516": 76,
        "5517": 198,
        "5518": 234,
        "5519": 91,
        "5520": 178,
        "5521": 86,
        "5522": 47,
        "5523": 223,
        "5524": 94,
        "5525": 5,
        "5526": 21,
        "5527": 222,
        "5528": 150,
        "5529": 12,
        "5530": 42,
        "5531": 50,
        "5532": 0,
        "5533": 189,
        "5534": 251,
        "5535": 213,
        "5536": 180,
        "5537": 25,
        "5538": 199,
        "5539": 216,
        "5540": 80,
        "5541": 151,
        "5542": 79,
        "5543": 119,
        "5544": 88,
        "5545": 250,
        "5546": 205,
        "5547": 129,
        "5548": 210,
        "5549": 246,
        "5550": 150,
        "5551": 211,
        "5552": 142,
        "5553": 207,
        "5554": 250,
        "5555": 101,
        "5556": 143,
        "5557": 64,
        "5558": 83,
        "5559": 212,
        "5560": 154,
        "5561": 68,
        "5562": 160,
        "5563": 116,
        "5564": 12,
        "5565": 220,
        "5566": 129,
        "5567": 99,
        "5568": 34,
        "5569": 2,
        "5570": 181,
        "5571": 24,
        "5572": 238,
        "5573": 85,
        "5574": 201,
        "5575": 64,
        "5576": 50,
        "5577": 104,
        "5578": 181,
        "5579": 56,
        "5580": 15,
        "5581": 218,
        "5582": 179,
        "5583": 234,
        "5584": 68,
        "5585": 169,
        "5586": 175,
        "5587": 126,
        "5588": 93,
        "5589": 108,
        "5590": 80,
        "5591": 109,
        "5592": 224,
        "5593": 180,
        "5594": 175,
        "5595": 35,
        "5596": 38,
        "5597": 74,
        "5598": 66,
        "5599": 138,
        "5600": 80,
        "5601": 137,
        "5602": 88,
        "5603": 220,
        "5604": 109,
        "5605": 236,
        "5606": 148,
        "5607": 104,
        "5608": 148,
        "5609": 68,
        "5610": 36,
        "5611": 205,
        "5612": 159,
        "5613": 219,
        "5614": 230,
        "5615": 192,
        "5616": 24,
        "5617": 74,
        "5618": 74,
        "5619": 247,
        "5620": 175,
        "5621": 99,
        "5622": 104,
        "5623": 40,
        "5624": 44,
        "5625": 98,
        "5626": 238,
        "5627": 79,
        "5628": 19,
        "5629": 112,
        "5630": 243,
        "5631": 47,
        "5632": 29,
        "5633": 137,
        "5634": 36,
        "5635": 115,
        "5636": 133,
        "5637": 48,
        "5638": 210,
        "5639": 73,
        "5640": 181,
        "5641": 49,
        "5642": 215,
        "5643": 63,
        "5644": 7,
        "5645": 236,
        "5646": 156,
        "5647": 206,
        "5648": 93,
        "5649": 97,
        "5650": 236,
        "5651": 114,
        "5652": 23,
        "5653": 187,
        "5654": 133,
        "5655": 118,
        "5656": 195,
        "5657": 146,
        "5658": 45,
        "5659": 221,
        "5660": 236,
        "5661": 140,
        "5662": 202,
        "5663": 5,
        "5664": 43,
        "5665": 37,
        "5666": 44,
        "5667": 89,
        "5668": 127,
        "5669": 240,
        "5670": 0,
        "5671": 18,
        "5672": 31,
        "5673": 219,
        "5674": 157,
        "5675": 50,
        "5676": 7,
        "5677": 40,
        "5678": 119,
        "5679": 10,
        "5680": 193,
        "5681": 195,
        "5682": 107,
        "5683": 237,
        "5684": 134,
        "5685": 235,
        "5686": 181,
        "5687": 188,
        "5688": 94,
        "5689": 181,
        "5690": 124,
        "5691": 154,
        "5692": 127,
        "5693": 11,
        "5694": 16,
        "5695": 85,
        "5696": 171,
        "5697": 153,
        "5698": 134,
        "5699": 217,
        "5700": 167,
        "5701": 19,
        "5702": 125,
        "5703": 88,
        "5704": 138,
        "5705": 182,
        "5706": 185,
        "5707": 207,
        "5708": 156,
        "5709": 187,
        "5710": 173,
        "5711": 110,
        "5712": 70,
        "5713": 119,
        "5714": 33,
        "5715": 197,
        "5716": 15,
        "5717": 44,
        "5718": 207,
        "5719": 146,
        "5720": 6,
        "5721": 96,
        "5722": 23,
        "5723": 119,
        "5724": 94,
        "5725": 170,
        "5726": 37,
        "5727": 28,
        "5728": 35,
        "5729": 63,
        "5730": 130,
        "5731": 174,
        "5732": 189,
        "5733": 165,
        "5734": 178,
        "5735": 166,
        "5736": 198,
        "5737": 77,
        "5738": 200,
        "5739": 149,
        "5740": 73,
        "5741": 121,
        "5742": 228,
        "5743": 166,
        "5744": 26,
        "5745": 104,
        "5746": 37,
        "5747": 21,
        "5748": 167,
        "5749": 253,
        "5750": 59,
        "5751": 48,
        "5752": 217,
        "5753": 9,
        "5754": 254,
        "5755": 48,
        "5756": 148,
        "5757": 142,
        "5758": 80,
        "5759": 159,
        "5760": 244,
        "5761": 19,
        "5762": 251,
        "5763": 1,
        "5764": 35,
        "5765": 245,
        "5766": 193,
        "5767": 34,
        "5768": 175,
        "5769": 113,
        "5770": 131,
        "5771": 73,
        "5772": 85,
        "5773": 51,
        "5774": 234,
        "5775": 12,
        "5776": 16,
        "5777": 158,
        "5778": 223,
        "5779": 153,
        "5780": 163,
        "5781": 220,
        "5782": 238,
        "5783": 70,
        "5784": 157,
        "5785": 89,
        "5786": 182,
        "5787": 235,
        "5788": 181,
        "5789": 28,
        "5790": 155,
        "5791": 93,
        "5792": 208,
        "5793": 183,
        "5794": 7,
        "5795": 173,
        "5796": 249,
        "5797": 156,
        "5798": 205,
        "5799": 129,
        "5800": 214,
        "5801": 101,
        "5802": 246,
        "5803": 129,
        "5804": 47,
        "5805": 18,
        "5806": 47,
        "5807": 225,
        "5808": 164,
        "5809": 219,
        "5810": 223,
        "5811": 143,
        "5812": 69,
        "5813": 0,
        "5814": 202,
        "5815": 21,
        "5816": 133,
        "5817": 66,
        "5818": 7,
        "5819": 233,
        "5820": 104,
        "5821": 216,
        "5822": 197,
        "5823": 120,
        "5824": 84,
        "5825": 218,
        "5826": 144,
        "5827": 104,
        "5828": 1,
        "5829": 157,
        "5830": 33,
        "5831": 92,
        "5832": 99,
        "5833": 83,
        "5834": 121,
        "5835": 141,
        "5836": 92,
        "5837": 203,
        "5838": 139,
        "5839": 137,
        "5840": 104,
        "5841": 105,
        "5842": 185,
        "5843": 55,
        "5844": 93,
        "5845": 63,
        "5846": 85,
        "5847": 114,
        "5848": 239,
        "5849": 87,
        "5850": 80,
        "5851": 102,
        "5852": 8,
        "5853": 61,
        "5854": 150,
        "5855": 206,
        "5856": 210,
        "5857": 227,
        "5858": 95,
        "5859": 110,
        "5860": 139,
        "5861": 41,
        "5862": 130,
        "5863": 178,
        "5864": 229,
        "5865": 129,
        "5866": 218,
        "5867": 96,
        "5868": 167,
        "5869": 202,
        "5870": 159,
        "5871": 92,
        "5872": 89,
        "5873": 128,
        "5874": 156,
        "5875": 16,
        "5876": 223,
        "5877": 0,
        "5878": 23,
        "5879": 75,
        "5880": 81,
        "5881": 35,
        "5882": 183,
        "5883": 50,
        "5884": 51,
        "5885": 208,
        "5886": 8,
        "5887": 181,
        "5888": 81,
        "5889": 167,
        "5890": 55,
        "5891": 29,
        "5892": 128,
        "5893": 127,
        "5894": 236,
        "5895": 159,
        "5896": 248,
        "5897": 81,
        "5898": 133,
        "5899": 202,
        "5900": 192,
        "5901": 54,
        "5902": 88,
        "5903": 181,
        "5904": 194,
        "5905": 115,
        "5906": 9,
        "5907": 77,
        "5908": 233,
        "5909": 84,
        "5910": 184,
        "5911": 129,
        "5912": 243,
        "5913": 100,
        "5914": 230,
        "5915": 152,
        "5916": 115,
        "5917": 99,
        "5918": 229,
        "5919": 169,
        "5920": 15,
        "5921": 215,
        "5922": 37,
        "5923": 152,
        "5924": 131,
        "5925": 105,
        "5926": 137,
        "5927": 15,
        "5928": 4,
        "5929": 36,
        "5930": 124,
        "5931": 183,
        "5932": 53,
        "5933": 220,
        "5934": 194,
        "5935": 151,
        "5936": 16,
        "5937": 219,
        "5938": 108,
        "5939": 105,
        "5940": 128,
        "5941": 86,
        "5942": 11,
        "5943": 108,
        "5944": 63,
        "5945": 182,
        "5946": 80,
        "5947": 223,
        "5948": 199,
        "5949": 193,
        "5950": 215,
        "5951": 19,
        "5952": 137,
        "5953": 83,
        "5954": 156,
        "5955": 214,
        "5956": 168,
        "5957": 225,
        "5958": 229,
        "5959": 208,
        "5960": 195,
        "5961": 101,
        "5962": 108,
        "5963": 101,
        "5964": 228,
        "5965": 227,
        "5966": 93,
        "5967": 100,
        "5968": 123,
        "5969": 128,
        "5970": 9,
        "5971": 245,
        "5972": 243,
        "5973": 253,
        "5974": 32,
        "5975": 145,
        "5976": 247,
        "5977": 128,
        "5978": 205,
        "5979": 155,
        "5980": 23,
        "5981": 186,
        "5982": 243,
        "5983": 142,
        "5984": 175,
        "5985": 145,
        "5986": 68,
        "5987": 44,
        "5988": 201,
        "5989": 168,
        "5990": 74,
        "5991": 138,
        "5992": 104,
        "5993": 207,
        "5994": 228,
        "5995": 228,
        "5996": 209,
        "5997": 117,
        "5998": 58,
        "5999": 242,
        "6000": 37,
        "6001": 59,
        "6002": 35,
        "6003": 141,
        "6004": 205,
        "6005": 32,
        "6006": 12,
        "6007": 235,
        "6008": 221,
        "6009": 49,
        "6010": 92,
        "6011": 121,
        "6012": 108,
        "6013": 15,
        "6014": 162,
        "6015": 242,
        "6016": 130,
        "6017": 200,
        "6018": 203,
        "6019": 171,
        "6020": 175,
        "6021": 222,
        "6022": 172,
        "6023": 9,
        "6024": 190,
        "6025": 46,
        "6026": 206,
        "6027": 74,
        "6028": 7,
        "6029": 23,
        "6030": 100,
        "6031": 0,
        "6032": 195,
        "6033": 179,
        "6034": 59,
        "6035": 3,
        "6036": 216,
        "6037": 136,
        "6038": 226,
        "6039": 0,
        "6040": 59,
        "6041": 69,
        "6042": 123,
        "6043": 20,
        "6044": 236,
        "6045": 41,
        "6046": 175,
        "6047": 187,
        "6048": 177,
        "6049": 21,
        "6050": 155,
        "6051": 14,
        "6052": 93,
        "6053": 135,
        "6054": 94,
        "6055": 240,
        "6056": 188,
        "6057": 111,
        "6058": 231,
        "6059": 199,
        "6060": 10,
        "6061": 35,
        "6062": 152,
        "6063": 225,
        "6064": 99,
        "6065": 83,
        "6066": 215,
        "6067": 74,
        "6068": 224,
        "6069": 38,
        "6070": 89,
        "6071": 48,
        "6072": 222,
        "6073": 74,
        "6074": 11,
        "6075": 239,
        "6076": 175,
        "6077": 201,
        "6078": 152,
        "6079": 162,
        "6080": 187,
        "6081": 203,
        "6082": 219,
        "6083": 190,
        "6084": 193,
        "6085": 165,
        "6086": 227,
        "6087": 209,
        "6088": 86,
        "6089": 60,
        "6090": 252,
        "6091": 41,
        "6092": 76,
        "6093": 176,
        "6094": 11,
        "6095": 231,
        "6096": 64,
        "6097": 218,
        "6098": 41,
        "6099": 246,
        "6100": 65,
        "6101": 226,
        "6102": 72,
        "6103": 79,
        "6104": 20,
        "6105": 108,
        "6106": 48,
        "6107": 159,
        "6108": 133,
        "6109": 54,
        "6110": 22,
        "6111": 255,
        "6112": 226,
        "6113": 21,
        "6114": 240,
        "6115": 21,
        "6116": 28,
        "6117": 235,
        "6118": 91,
        "6119": 253,
        "6120": 79,
        "6121": 16,
        "6122": 73,
        "6123": 100,
        "6124": 6,
        "6125": 203,
        "6126": 118,
        "6127": 112,
        "6128": 73,
        "6129": 146,
        "6130": 41,
        "6131": 10,
        "6132": 74,
        "6133": 93,
        "6134": 58,
        "6135": 94,
        "6136": 102,
        "6137": 92,
        "6138": 228,
        "6139": 116,
        "6140": 162,
        "6141": 126,
        "6142": 12,
        "6143": 187,
        "6144": 96,
        "6145": 213,
        "6146": 149,
        "6147": 75,
        "6148": 75,
        "6149": 232,
        "6150": 63,
        "6151": 222,
        "6152": 86,
        "6153": 79,
        "6154": 140,
        "6155": 222,
        "6156": 8,
        "6157": 106,
        "6158": 66,
        "6159": 45,
        "6160": 137,
        "6161": 216,
        "6162": 115,
        "6163": 236,
        "6164": 179,
        "6165": 200,
        "6166": 78,
        "6167": 93,
        "6168": 113,
        "6169": 44,
        "6170": 6,
        "6171": 205,
        "6172": 152,
        "6173": 52,
        "6174": 235,
        "6175": 67,
        "6176": 170,
        "6177": 206,
        "6178": 26,
        "6179": 97,
        "6180": 249,
        "6181": 100,
        "6182": 127,
        "6183": 195,
        "6184": 233,
        "6185": 111,
        "6186": 255,
        "6187": 164,
        "6188": 222,
        "6189": 222,
        "6190": 215,
        "6191": 133,
        "6192": 222,
        "6193": 166,
        "6194": 174,
        "6195": 235,
        "6196": 106,
        "6197": 101,
        "6198": 98,
        "6199": 98,
        "6200": 129,
        "6201": 20,
        "6202": 38,
        "6203": 240,
        "6204": 222,
        "6205": 38,
        "6206": 222,
        "6207": 62,
        "6208": 208,
        "6209": 1,
        "6210": 36,
        "6211": 162,
        "6212": 131,
        "6213": 206,
        "6214": 78,
        "6215": 240,
        "6216": 12,
        "6217": 135,
        "6218": 157,
        "6219": 179,
        "6220": 196,
        "6221": 148,
        "6222": 62,
        "6223": 128,
        "6224": 136,
        "6225": 37,
        "6226": 142,
        "6227": 47,
        "6228": 70,
        "6229": 186,
        "6230": 108,
        "6231": 21,
        "6232": 25,
        "6233": 219,
        "6234": 103,
        "6235": 183,
        "6236": 230,
        "6237": 167,
        "6238": 111,
        "6239": 33,
        "6240": 183,
        "6241": 131,
        "6242": 59,
        "6243": 14,
        "6244": 158,
        "6245": 218,
        "6246": 149,
        "6247": 26,
        "6248": 172,
        "6249": 140,
        "6250": 11,
        "6251": 201,
        "6252": 42,
        "6253": 1,
        "6254": 217,
        "6255": 139,
        "6256": 138,
        "6257": 80,
        "6258": 190,
        "6259": 16,
        "6260": 42,
        "6261": 100,
        "6262": 158,
        "6263": 96,
        "6264": 26,
        "6265": 227,
        "6266": 109,
        "6267": 172,
        "6268": 153,
        "6269": 51,
        "6270": 36,
        "6271": 90,
        "6272": 147,
        "6273": 10,
        "6274": 76,
        "6275": 248,
        "6276": 249,
        "6277": 108,
        "6278": 202,
        "6279": 45,
        "6280": 48,
        "6281": 114,
        "6282": 225,
        "6283": 234,
        "6284": 220,
        "6285": 249,
        "6286": 252,
        "6287": 132,
        "6288": 60,
        "6289": 10,
        "6290": 148,
        "6291": 249,
        "6292": 246,
        "6293": 174,
        "6294": 60,
        "6295": 78,
        "6296": 162,
        "6297": 157,
        "6298": 45,
        "6299": 62,
        "6300": 196,
        "6301": 109,
        "6302": 102,
        "6303": 112,
        "6304": 139,
        "6305": 164,
        "6306": 230,
        "6307": 196,
        "6308": 194,
        "6309": 31,
        "6310": 169,
        "6311": 42,
        "6312": 123,
        "6313": 227,
        "6314": 33,
        "6315": 224,
        "6316": 125,
        "6317": 49,
        "6318": 121,
        "6319": 117,
        "6320": 111,
        "6321": 71,
        "6322": 129,
        "6323": 21,
        "6324": 202,
        "6325": 66,
        "6326": 145,
        "6327": 221,
        "6328": 84,
        "6329": 195,
        "6330": 101,
        "6331": 91,
        "6332": 49,
        "6333": 166,
        "6334": 19,
        "6335": 172,
        "6336": 173,
        "6337": 129,
        "6338": 5,
        "6339": 114,
        "6340": 210,
        "6341": 66,
        "6342": 236,
        "6343": 120,
        "6344": 40,
        "6345": 119,
        "6346": 135,
        "6347": 131,
        "6348": 142,
        "6349": 197,
        "6350": 90,
        "6351": 246,
        "6352": 23,
        "6353": 156,
        "6354": 27,
        "6355": 154,
        "6356": 88,
        "6357": 254,
        "6358": 12,
        "6359": 120,
        "6360": 211,
        "6361": 229,
        "6362": 120,
        "6363": 37,
        "6364": 41,
        "6365": 199,
        "6366": 186,
        "6367": 203,
        "6368": 30,
        "6369": 87,
        "6370": 2,
        "6371": 20,
        "6372": 54,
        "6373": 109,
        "6374": 44,
        "6375": 157,
        "6376": 76,
        "6377": 139,
        "6378": 176,
        "6379": 65,
        "6380": 126,
        "6381": 207,
        "6382": 255,
        "6383": 225,
        "6384": 87,
        "6385": 118,
        "6386": 27,
        "6387": 46,
        "6388": 83,
        "6389": 171,
        "6390": 145,
        "6391": 231,
        "6392": 231,
        "6393": 118,
        "6394": 90,
        "6395": 180,
        "6396": 220,
        "6397": 168,
        "6398": 224,
        "6399": 77,
        "6400": 147,
        "6401": 80,
        "6402": 85,
        "6403": 177,
        "6404": 83,
        "6405": 88,
        "6406": 158,
        "6407": 221,
        "6408": 212,
        "6409": 226,
        "6410": 156,
        "6411": 33,
        "6412": 95,
        "6413": 13,
        "6414": 122,
        "6415": 89,
        "6416": 3,
        "6417": 37,
        "6418": 249,
        "6419": 212,
        "6420": 1,
        "6421": 20,
        "6422": 240,
        "6423": 59,
        "6424": 23,
        "6425": 235,
        "6426": 244,
        "6427": 58,
        "6428": 18,
        "6429": 190,
        "6430": 169,
        "6431": 214,
        "6432": 211,
        "6433": 17,
        "6434": 212,
        "6435": 205,
        "6436": 67,
        "6437": 251,
        "6438": 196,
        "6439": 203,
        "6440": 37,
        "6441": 130,
        "6442": 181,
        "6443": 69,
        "6444": 86,
        "6445": 105,
        "6446": 101,
        "6447": 237,
        "6448": 141,
        "6449": 152,
        "6450": 223,
        "6451": 79,
        "6452": 79,
        "6453": 108,
        "6454": 3,
        "6455": 85,
        "6456": 15,
        "6457": 59,
        "6458": 158,
        "6459": 15,
        "6460": 79,
        "6461": 201,
        "6462": 146,
        "6463": 75,
        "6464": 81,
        "6465": 14,
        "6466": 31,
        "6467": 27,
        "6468": 248,
        "6469": 80,
        "6470": 113,
        "6471": 94,
        "6472": 139,
        "6473": 39,
        "6474": 151,
        "6475": 3,
        "6476": 8,
        "6477": 84,
        "6478": 35,
        "6479": 194,
        "6480": 108,
        "6481": 138,
        "6482": 173,
        "6483": 189,
        "6484": 178,
        "6485": 161,
        "6486": 134,
        "6487": 255,
        "6488": 101,
        "6489": 204,
        "6490": 182,
        "6491": 38,
        "6492": 216,
        "6493": 167,
        "6494": 127,
        "6495": 233,
        "6496": 195,
        "6497": 88,
        "6498": 201,
        "6499": 243,
        "6500": 110,
        "6501": 206,
        "6502": 248,
        "6503": 70,
        "6504": 59,
        "6505": 218,
        "6506": 2,
        "6507": 190,
        "6508": 157,
        "6509": 143,
        "6510": 211,
        "6511": 241,
        "6512": 134,
        "6513": 6,
        "6514": 88,
        "6515": 165,
        "6516": 237,
        "6517": 62,
        "6518": 252,
        "6519": 110,
        "6520": 55,
        "6521": 233,
        "6522": 175,
        "6523": 70,
        "6524": 77,
        "6525": 4,
        "6526": 154,
        "6527": 92,
        "6528": 118,
        "6529": 89,
        "6530": 75,
        "6531": 24,
        "6532": 154,
        "6533": 241,
        "6534": 89,
        "6535": 139,
        "6536": 130,
        "6537": 22,
        "6538": 24,
        "6539": 52,
        "6540": 65,
        "6541": 80,
        "6542": 131,
        "6543": 248,
        "6544": 47,
        "6545": 182,
        "6546": 111,
        "6547": 219,
        "6548": 124,
        "6549": 236,
        "6550": 124,
        "6551": 18,
        "6552": 107,
        "6553": 128,
        "6554": 74,
        "6555": 128,
        "6556": 145,
        "6557": 209,
        "6558": 90,
        "6559": 141,
        "6560": 15,
        "6561": 203,
        "6562": 159,
        "6563": 223,
        "6564": 104,
        "6565": 28,
        "6566": 103,
        "6567": 135,
        "6568": 245,
        "6569": 239,
        "6570": 70,
        "6571": 38,
        "6572": 131,
        "6573": 204,
        "6574": 63,
        "6575": 6,
        "6576": 112,
        "6577": 73,
        "6578": 106,
        "6579": 20,
        "6580": 104,
        "6581": 208,
        "6582": 9,
        "6583": 129,
        "6584": 171,
        "6585": 234,
        "6586": 112,
        "6587": 181,
        "6588": 21,
        "6589": 243,
        "6590": 227,
        "6591": 38,
        "6592": 242,
        "6593": 38,
        "6594": 180,
        "6595": 154,
        "6596": 50,
        "6597": 67,
        "6598": 155,
        "6599": 92,
        "6600": 203,
        "6601": 223,
        "6602": 240,
        "6603": 37,
        "6604": 199,
        "6605": 193,
        "6606": 251,
        "6607": 12,
        "6608": 175,
        "6609": 133,
        "6610": 116,
        "6611": 243,
        "6612": 113,
        "6613": 180,
        "6614": 117,
        "6615": 207,
        "6616": 123,
        "6617": 182,
        "6618": 52,
        "6619": 161,
        "6620": 12,
        "6621": 33,
        "6622": 186,
        "6623": 45,
        "6624": 115,
        "6625": 38,
        "6626": 193,
        "6627": 166,
        "6628": 131,
        "6629": 9,
        "6630": 168,
        "6631": 138,
        "6632": 197,
        "6633": 13,
        "6634": 179,
        "6635": 156,
        "6636": 100,
        "6637": 118,
        "6638": 99,
        "6639": 151,
        "6640": 164,
        "6641": 115,
        "6642": 140,
        "6643": 213,
        "6644": 150,
        "6645": 23,
        "6646": 36,
        "6647": 168,
        "6648": 60,
        "6649": 45,
        "6650": 217,
        "6651": 93,
        "6652": 181,
        "6653": 75,
        "6654": 133,
        "6655": 44,
        "6656": 19,
        "6657": 75,
        "6658": 28,
        "6659": 60,
        "6660": 31,
        "6661": 222,
        "6662": 133,
        "6663": 189,
        "6664": 111,
        "6665": 85,
        "6666": 33,
        "6667": 205,
        "6668": 147,
        "6669": 114,
        "6670": 241,
        "6671": 241,
        "6672": 25,
        "6673": 163,
        "6674": 52,
        "6675": 71,
        "6676": 122,
        "6677": 226,
        "6678": 50,
        "6679": 57,
        "6680": 154,
        "6681": 70,
        "6682": 146,
        "6683": 24,
        "6684": 62,
        "6685": 203,
        "6686": 91,
        "6687": 110,
        "6688": 144,
        "6689": 206,
        "6690": 159,
        "6691": 253,
        "6692": 55,
        "6693": 26,
        "6694": 42,
        "6695": 216,
        "6696": 172,
        "6697": 193,
        "6698": 202,
        "6699": 100,
        "6700": 76,
        "6701": 221,
        "6702": 203,
        "6703": 203,
        "6704": 178,
        "6705": 67,
        "6706": 105,
        "6707": 72,
        "6708": 108,
        "6709": 219,
        "6710": 191,
        "6711": 52,
        "6712": 192,
        "6713": 87,
        "6714": 72,
        "6715": 138,
        "6716": 26,
        "6717": 226,
        "6718": 156,
        "6719": 178,
        "6720": 83,
        "6721": 183,
        "6722": 192,
        "6723": 51,
        "6724": 169,
        "6725": 28,
        "6726": 57,
        "6727": 163,
        "6728": 249,
        "6729": 166,
        "6730": 25,
        "6731": 121,
        "6732": 238,
        "6733": 3,
        "6734": 91,
        "6735": 45,
        "6736": 216,
        "6737": 81,
        "6738": 214,
        "6739": 117,
        "6740": 158,
        "6741": 110,
        "6742": 127,
        "6743": 237,
        "6744": 222,
        "6745": 177,
        "6746": 226,
        "6747": 175,
        "6748": 195,
        "6749": 142,
        "6750": 179,
        "6751": 31,
        "6752": 117,
        "6753": 249,
        "6754": 229,
        "6755": 150,
        "6756": 40,
        "6757": 165,
        "6758": 175,
        "6759": 63,
        "6760": 183,
        "6761": 187,
        "6762": 47,
        "6763": 99,
        "6764": 118,
        "6765": 216,
        "6766": 191,
        "6767": 236,
        "6768": 150,
        "6769": 94,
        "6770": 70,
        "6771": 6,
        "6772": 0,
        "6773": 178,
        "6774": 54,
        "6775": 22,
        "6776": 45,
        "6777": 98,
        "6778": 35,
        "6779": 58,
        "6780": 128,
        "6781": 193,
        "6782": 105,
        "6783": 103,
        "6784": 155,
        "6785": 127,
        "6786": 82,
        "6787": 145,
        "6788": 72,
        "6789": 227,
        "6790": 218,
        "6791": 205,
        "6792": 73,
        "6793": 166,
        "6794": 159,
        "6795": 138,
        "6796": 3,
        "6797": 44,
        "6798": 29,
        "6799": 46,
        "6800": 201,
        "6801": 72,
        "6802": 116,
        "6803": 136,
        "6804": 149,
        "6805": 49,
        "6806": 98,
        "6807": 51,
        "6808": 65,
        "6809": 218,
        "6810": 197,
        "6811": 84,
        "6812": 68,
        "6813": 53,
        "6814": 83,
        "6815": 74,
        "6816": 42,
        "6817": 74,
        "6818": 148,
        "6819": 156,
        "6820": 5,
        "6821": 236,
        "6822": 71,
        "6823": 206,
        "6824": 27,
        "6825": 78,
        "6826": 174,
        "6827": 177,
        "6828": 27,
        "6829": 240,
        "6830": 242,
        "6831": 153,
        "6832": 109,
        "6833": 4,
        "6834": 210,
        "6835": 113,
        "6836": 9,
        "6837": 89,
        "6838": 214,
        "6839": 72,
        "6840": 64,
        "6841": 6,
        "6842": 142,
        "6843": 140,
        "6844": 54,
        "6845": 40,
        "6846": 247,
        "6847": 101,
        "6848": 217,
        "6849": 36,
        "6850": 154,
        "6851": 185,
        "6852": 25,
        "6853": 119,
        "6854": 118,
        "6855": 102,
        "6856": 128,
        "6857": 220,
        "6858": 212,
        "6859": 26,
        "6860": 181,
        "6861": 35,
        "6862": 172,
        "6863": 191,
        "6864": 38,
        "6865": 95,
        "6866": 71,
        "6867": 139,
        "6868": 140,
        "6869": 95,
        "6870": 199,
        "6871": 25,
        "6872": 40,
        "6873": 141,
        "6874": 30,
        "6875": 14,
        "6876": 157,
        "6877": 213,
        "6878": 232,
        "6879": 184,
        "6880": 212,
        "6881": 227,
        "6882": 142,
        "6883": 216,
        "6884": 197,
        "6885": 77,
        "6886": 203,
        "6887": 91,
        "6888": 224,
        "6889": 124,
        "6890": 207,
        "6891": 138,
        "6892": 45,
        "6893": 103,
        "6894": 185,
        "6895": 175,
        "6896": 207,
        "6897": 208,
        "6898": 12,
        "6899": 14,
        "6900": 63,
        "6901": 103,
        "6902": 196,
        "6903": 229,
        "6904": 188,
        "6905": 209,
        "6906": 81,
        "6907": 110,
        "6908": 168,
        "6909": 170,
        "6910": 166,
        "6911": 38,
        "6912": 114,
        "6913": 32,
        "6914": 233,
        "6915": 252,
        "6916": 56,
        "6917": 146,
        "6918": 35,
        "6919": 251,
        "6920": 7,
        "6921": 117,
        "6922": 183,
        "6923": 84,
        "6924": 99,
        "6925": 132,
        "6926": 107,
        "6927": 198,
        "6928": 104,
        "6929": 85,
        "6930": 53,
        "6931": 5,
        "6932": 160,
        "6933": 68,
        "6934": 2,
        "6935": 23,
        "6936": 30,
        "6937": 33,
        "6938": 162,
        "6939": 78,
        "6940": 83,
        "6941": 100,
        "6942": 218,
        "6943": 144,
        "6944": 135,
        "6945": 74,
        "6946": 99,
        "6947": 58,
        "6948": 222,
        "6949": 121,
        "6950": 198,
        "6951": 150,
        "6952": 192,
        "6953": 244,
        "6954": 148,
        "6955": 151,
        "6956": 88,
        "6957": 194,
        "6958": 210,
        "6959": 212,
        "6960": 115,
        "6961": 235,
        "6962": 100,
        "6963": 217,
        "6964": 186,
        "6965": 229,
        "6966": 234,
        "6967": 121,
        "6968": 143,
        "6969": 203,
        "6970": 191,
        "6971": 116,
        "6972": 49,
        "6973": 86,
        "6974": 68,
        "6975": 221,
        "6976": 152,
        "6977": 96,
        "6978": 36,
        "6979": 33,
        "6980": 108,
        "6981": 162,
        "6982": 47,
        "6983": 57,
        "6984": 6,
        "6985": 67,
        "6986": 236,
        "6987": 90,
        "6988": 172,
        "6989": 237,
        "6990": 16,
        "6991": 173,
        "6992": 253,
        "6993": 122,
        "6994": 82,
        "6995": 170,
        "6996": 145,
        "6997": 230,
        "6998": 127,
        "6999": 205,
        "7000": 196,
        "7001": 192,
        "7002": 135,
        "7003": 100,
        "7004": 71,
        "7005": 22,
        "7006": 225,
        "7007": 63,
        "7008": 104,
        "7009": 105,
        "7010": 80,
        "7011": 196,
        "7012": 124,
        "7013": 160,
        "7014": 108,
        "7015": 210,
        "7016": 225,
        "7017": 194,
        "7018": 29,
        "7019": 250,
        "7020": 44,
        "7021": 182,
        "7022": 77,
        "7023": 179,
        "7024": 161,
        "7025": 185,
        "7026": 24,
        "7027": 103,
        "7028": 251,
        "7029": 167,
        "7030": 138,
        "7031": 249,
        "7032": 56,
        "7033": 162,
        "7034": 199,
        "7035": 93,
        "7036": 4,
        "7037": 210,
        "7038": 47,
        "7039": 146,
        "7040": 241,
        "7041": 90,
        "7042": 228,
        "7043": 223,
        "7044": 95,
        "7045": 56,
        "7046": 113,
        "7047": 152,
        "7048": 16,
        "7049": 71,
        "7050": 130,
        "7051": 10,
        "7052": 68,
        "7053": 204,
        "7054": 244,
        "7055": 211,
        "7056": 173,
        "7057": 217,
        "7058": 197,
        "7059": 171,
        "7060": 227,
        "7061": 132,
        "7062": 253,
        "7063": 171,
        "7064": 57,
        "7065": 248,
        "7066": 124,
        "7067": 222,
        "7068": 150,
        "7069": 222,
        "7070": 212,
        "7071": 183,
        "7072": 105,
        "7073": 93,
        "7074": 88,
        "7075": 207,
        "7076": 27,
        "7077": 61,
        "7078": 172,
        "7079": 229,
        "7080": 181,
        "7081": 14,
        "7082": 147,
        "7083": 166,
        "7084": 147,
        "7085": 180,
        "7086": 137,
        "7087": 30,
        "7088": 129,
        "7089": 253,
        "7090": 154,
        "7091": 42,
        "7092": 137,
        "7093": 153,
        "7094": 64,
        "7095": 248,
        "7096": 8,
        "7097": 2,
        "7098": 7,
        "7099": 106,
        "7100": 169,
        "7101": 180,
        "7102": 81,
        "7103": 70,
        "7104": 53,
        "7105": 203,
        "7106": 230,
        "7107": 92,
        "7108": 166,
        "7109": 143,
        "7110": 41,
        "7111": 198,
        "7112": 156,
        "7113": 182,
        "7114": 173,
        "7115": 15,
        "7116": 12,
        "7117": 71,
        "7118": 145,
        "7119": 74,
        "7120": 68,
        "7121": 118,
        "7122": 98,
        "7123": 215,
        "7124": 43,
        "7125": 193,
        "7126": 74,
        "7127": 53,
        "7128": 77,
        "7129": 9,
        "7130": 162,
        "7131": 124,
        "7132": 96,
        "7133": 250,
        "7134": 115,
        "7135": 68,
        "7136": 6,
        "7137": 200,
        "7138": 175,
        "7139": 56,
        "7140": 23,
        "7141": 144,
        "7142": 115,
        "7143": 145,
        "7144": 158,
        "7145": 235,
        "7146": 93,
        "7147": 122,
        "7148": 60,
        "7149": 23,
        "7150": 136,
        "7151": 47,
        "7152": 254,
        "7153": 247,
        "7154": 230,
        "7155": 188,
        "7156": 10,
        "7157": 137,
        "7158": 211,
        "7159": 178,
        "7160": 153,
        "7161": 118,
        "7162": 115,
        "7163": 245,
        "7164": 144,
        "7165": 122,
        "7166": 112,
        "7167": 73,
        "7168": 221,
        "7169": 55,
        "7170": 205,
        "7171": 185,
        "7172": 242,
        "7173": 131,
        "7174": 3,
        "7175": 94,
        "7176": 144,
        "7177": 214,
        "7178": 138,
        "7179": 120,
        "7180": 200,
        "7181": 4,
        "7182": 194,
        "7183": 52,
        "7184": 151,
        "7185": 106,
        "7186": 248,
        "7187": 0,
        "7188": 127,
        "7189": 130,
        "7190": 8,
        "7191": 112,
        "7192": 244,
        "7193": 81,
        "7194": 131,
        "7195": 35,
        "7196": 240,
        "7197": 253,
        "7198": 113,
        "7199": 148,
        "7200": 232,
        "7201": 10,
        "7202": 137,
        "7203": 41,
        "7204": 119,
        "7205": 142,
        "7206": 114,
        "7207": 93,
        "7208": 71,
        "7209": 172,
        "7210": 53,
        "7211": 33,
        "7212": 250,
        "7213": 68,
        "7214": 247,
        "7215": 170,
        "7216": 64,
        "7217": 6,
        "7218": 65,
        "7219": 247,
        "7220": 177,
        "7221": 254,
        "7222": 106,
        "7223": 95,
        "7224": 155,
        "7225": 164,
        "7226": 241,
        "7227": 72,
        "7228": 223,
        "7229": 161,
        "7230": 231,
        "7231": 228,
        "7232": 152,
        "7233": 206,
        "7234": 167,
        "7235": 73,
        "7236": 30,
        "7237": 238,
        "7238": 123,
        "7239": 229,
        "7240": 70,
        "7241": 89,
        "7242": 19,
        "7243": 169,
        "7244": 150,
        "7245": 57,
        "7246": 148,
        "7247": 92,
        "7248": 164,
        "7249": 61,
        "7250": 52,
        "7251": 121,
        "7252": 196,
        "7253": 118,
        "7254": 227,
        "7255": 238,
        "7256": 192,
        "7257": 37,
        "7258": 174,
        "7259": 20,
        "7260": 120,
        "7261": 234,
        "7262": 14,
        "7263": 18,
        "7264": 45,
        "7265": 92,
        "7266": 48,
        "7267": 133,
        "7268": 98,
        "7269": 86,
        "7270": 24,
        "7271": 35,
        "7272": 13,
        "7273": 182,
        "7274": 195,
        "7275": 11,
        "7276": 56,
        "7277": 164,
        "7278": 116,
        "7279": 108,
        "7280": 76,
        "7281": 226,
        "7282": 236,
        "7283": 75,
        "7284": 36,
        "7285": 215,
        "7286": 193,
        "7287": 53,
        "7288": 52,
        "7289": 204,
        "7290": 126,
        "7291": 241,
        "7292": 160,
        "7293": 65,
        "7294": 28,
        "7295": 153,
        "7296": 118,
        "7297": 149,
        "7298": 39,
        "7299": 223,
        "7300": 40,
        "7301": 207,
        "7302": 145,
        "7303": 69,
        "7304": 34,
        "7305": 18,
        "7306": 75,
        "7307": 136,
        "7308": 160,
        "7309": 73,
        "7310": 62,
        "7311": 64,
        "7312": 3,
        "7313": 230,
        "7314": 162,
        "7315": 231,
        "7316": 233,
        "7317": 243,
        "7318": 100,
        "7319": 21,
        "7320": 172,
        "7321": 81,
        "7322": 171,
        "7323": 84,
        "7324": 252,
        "7325": 21,
        "7326": 172,
        "7327": 45,
        "7328": 83,
        "7329": 111,
        "7330": 246,
        "7331": 105,
        "7332": 10,
        "7333": 5,
        "7334": 127,
        "7335": 37,
        "7336": 170,
        "7337": 141,
        "7338": 229,
        "7339": 176,
        "7340": 78,
        "7341": 57,
        "7342": 173,
        "7343": 180,
        "7344": 182,
        "7345": 74,
        "7346": 85,
        "7347": 207,
        "7348": 95,
        "7349": 129,
        "7350": 102,
        "7351": 93,
        "7352": 205,
        "7353": 3,
        "7354": 168,
        "7355": 79,
        "7356": 191,
        "7357": 167,
        "7358": 148,
        "7359": 24,
        "7360": 15,
        "7361": 136,
        "7362": 184,
        "7363": 98,
        "7364": 242,
        "7365": 168,
        "7366": 254,
        "7367": 30,
        "7368": 22,
        "7369": 87,
        "7370": 160,
        "7371": 228,
        "7372": 169,
        "7373": 252,
        "7374": 133,
        "7375": 94,
        "7376": 193,
        "7377": 93,
        "7378": 61,
        "7379": 132,
        "7380": 22,
        "7381": 33,
        "7382": 212,
        "7383": 229,
        "7384": 52,
        "7385": 53,
        "7386": 219,
        "7387": 28,
        "7388": 107,
        "7389": 239,
        "7390": 181,
        "7391": 176,
        "7392": 183,
        "7393": 155,
        "7394": 181,
        "7395": 71,
        "7396": 35,
        "7397": 237,
        "7398": 95,
        "7399": 251,
        "7400": 107,
        "7401": 130,
        "7402": 110,
        "7403": 153,
        "7404": 7,
        "7405": 235,
        "7406": 72,
        "7407": 175,
        "7408": 149,
        "7409": 232,
        "7410": 220,
        "7411": 196,
        "7412": 118,
        "7413": 226,
        "7414": 213,
        "7415": 166,
        "7416": 201,
        "7417": 172,
        "7418": 223,
        "7419": 1,
        "7420": 170,
        "7421": 201,
        "7422": 6,
        "7423": 230,
        "7424": 134,
        "7425": 132,
        "7426": 110,
        "7427": 112,
        "7428": 32,
        "7429": 131,
        "7430": 250,
        "7431": 100,
        "7432": 153,
        "7433": 150,
        "7434": 206,
        "7435": 228,
        "7436": 96,
        "7437": 46,
        "7438": 144,
        "7439": 131,
        "7440": 61,
        "7441": 136,
        "7442": 118,
        "7443": 53,
        "7444": 228,
        "7445": 214,
        "7446": 170,
        "7447": 79,
        "7448": 226,
        "7449": 115,
        "7450": 173,
        "7451": 167,
        "7452": 31,
        "7453": 108,
        "7454": 197,
        "7455": 59,
        "7456": 125,
        "7457": 153,
        "7458": 155,
        "7459": 249,
        "7460": 226,
        "7461": 59,
        "7462": 158,
        "7463": 3,
        "7464": 36,
        "7465": 17,
        "7466": 27,
        "7467": 118,
        "7468": 121,
        "7469": 169,
        "7470": 66,
        "7471": 77,
        "7472": 20,
        "7473": 217,
        "7474": 13,
        "7475": 87,
        "7476": 97,
        "7477": 120,
        "7478": 94,
        "7479": 218,
        "7480": 38,
        "7481": 145,
        "7482": 151,
        "7483": 43,
        "7484": 174,
        "7485": 226,
        "7486": 252,
        "7487": 103,
        "7488": 145,
        "7489": 144,
        "7490": 228,
        "7491": 93,
        "7492": 1,
        "7493": 44,
        "7494": 151,
        "7495": 36,
        "7496": 169,
        "7497": 178,
        "7498": 13,
        "7499": 56,
        "7500": 77,
        "7501": 157,
        "7502": 204,
        "7503": 23,
        "7504": 251,
        "7505": 143,
        "7506": 12,
        "7507": 36,
        "7508": 45,
        "7509": 209,
        "7510": 71,
        "7511": 19,
        "7512": 172,
        "7513": 67,
        "7514": 204,
        "7515": 126,
        "7516": 132,
        "7517": 125,
        "7518": 15,
        "7519": 115,
        "7520": 58,
        "7521": 226,
        "7522": 0,
        "7523": 162,
        "7524": 221,
        "7525": 194,
        "7526": 131,
        "7527": 3,
        "7528": 239,
        "7529": 211,
        "7530": 204,
        "7531": 131,
        "7532": 26,
        "7533": 42,
        "7534": 181,
        "7535": 238,
        "7536": 75,
        "7537": 37,
        "7538": 3,
        "7539": 111,
        "7540": 216,
        "7541": 0,
        "7542": 248,
        "7543": 178,
        "7544": 168,
        "7545": 210,
        "7546": 197,
        "7547": 0,
        "7548": 48,
        "7549": 250,
        "7550": 248,
        "7551": 59,
        "7552": 73,
        "7553": 91,
        "7554": 195,
        "7555": 217,
        "7556": 35,
        "7557": 59,
        "7558": 126,
        "7559": 101,
        "7560": 124,
        "7561": 246,
        "7562": 180,
        "7563": 12,
        "7564": 44,
        "7565": 53,
        "7566": 69,
        "7567": 150,
        "7568": 173,
        "7569": 240,
        "7570": 244,
        "7571": 143,
        "7572": 0,
        "7573": 187,
        "7574": 220,
        "7575": 156,
        "7576": 128,
        "7577": 242,
        "7578": 51,
        "7579": 83,
        "7580": 207,
        "7581": 72,
        "7582": 118,
        "7583": 137,
        "7584": 128,
        "7585": 76,
        "7586": 119,
        "7587": 19,
        "7588": 39,
        "7589": 172,
        "7590": 72,
        "7591": 138,
        "7592": 25,
        "7593": 244,
        "7594": 189,
        "7595": 57,
        "7596": 126,
        "7597": 229,
        "7598": 197,
        "7599": 217,
        "7600": 71,
        "7601": 153,
        "7602": 4,
        "7603": 0,
        "7604": 74,
        "7605": 175,
        "7606": 164,
        "7607": 206,
        "7608": 240,
        "7609": 143,
        "7610": 112,
        "7611": 199,
        "7612": 49,
        "7613": 80,
        "7614": 244,
        "7615": 131,
        "7616": 16,
        "7617": 91,
        "7618": 70,
        "7619": 218,
        "7620": 40,
        "7621": 243,
        "7622": 150,
        "7623": 133,
        "7624": 222,
        "7625": 107,
        "7626": 226,
        "7627": 159,
        "7628": 69,
        "7629": 223,
        "7630": 249,
        "7631": 179,
        "7632": 211,
        "7633": 20,
        "7634": 56,
        "7635": 107,
        "7636": 225,
        "7637": 241,
        "7638": 78,
        "7639": 201,
        "7640": 38,
        "7641": 25,
        "7642": 131,
        "7643": 103,
        "7644": 220,
        "7645": 58,
        "7646": 67,
        "7647": 56,
        "7648": 197,
        "7649": 115,
        "7650": 94,
        "7651": 150,
        "7652": 105,
        "7653": 124,
        "7654": 62,
        "7655": 246,
        "7656": 5,
        "7657": 43,
        "7658": 56,
        "7659": 233,
        "7660": 61,
        "7661": 162,
        "7662": 19,
        "7663": 151,
        "7664": 71,
        "7665": 51,
        "7666": 221,
        "7667": 123,
        "7668": 161,
        "7669": 39,
        "7670": 151,
        "7671": 180,
        "7672": 196,
        "7673": 186,
        "7674": 58,
        "7675": 141,
        "7676": 45,
        "7677": 162,
        "7678": 236,
        "7679": 68,
        "7680": 34,
        "7681": 79,
        "7682": 110,
        "7683": 219,
        "7684": 138,
        "7685": 191,
        "7686": 10,
        "7687": 186,
        "7688": 108,
        "7689": 128,
        "7690": 194,
        "7691": 68,
        "7692": 152,
        "7693": 41,
        "7694": 198,
        "7695": 174,
        "7696": 148,
        "7697": 207,
        "7698": 30,
        "7699": 248,
        "7700": 58,
        "7701": 200,
        "7702": 185,
        "7703": 29,
        "7704": 94,
        "7705": 166,
        "7706": 204,
        "7707": 218,
        "7708": 24,
        "7709": 93,
        "7710": 68,
        "7711": 232,
        "7712": 19,
        "7713": 155,
        "7714": 133,
        "7715": 81,
        "7716": 143,
        "7717": 68,
        "7718": 100,
        "7719": 236,
        "7720": 179,
        "7721": 26,
        "7722": 42,
        "7723": 123,
        "7724": 191,
        "7725": 239,
        "7726": 119,
        "7727": 178,
        "7728": 183,
        "7729": 254,
        "7730": 209,
        "7731": 123,
        "7732": 224,
        "7733": 10,
        "7734": 28,
        "7735": 154,
        "7736": 28,
        "7737": 197,
        "7738": 194,
        "7739": 241,
        "7740": 89,
        "7741": 253,
        "7742": 6,
        "7743": 94,
        "7744": 156,
        "7745": 12,
        "7746": 253,
        "7747": 213,
        "7748": 147,
        "7749": 205,
        "7750": 119,
        "7751": 238,
        "7752": 114,
        "7753": 9,
        "7754": 229,
        "7755": 17,
        "7756": 227,
        "7757": 105,
        "7758": 250,
        "7759": 36,
        "7760": 84,
        "7761": 174,
        "7762": 47,
        "7763": 138,
        "7764": 221,
        "7765": 222,
        "7766": 200,
        "7767": 166,
        "7768": 194,
        "7769": 36,
        "7770": 222,
        "7771": 14,
        "7772": 167,
        "7773": 231,
        "7774": 188,
        "7775": 214,
        "7776": 245,
        "7777": 121,
        "7778": 43,
        "7779": 172,
        "7780": 234,
        "7781": 123,
        "7782": 32,
        "7783": 1,
        "7784": 237,
        "7785": 133,
        "7786": 188,
        "7787": 243,
        "7788": 187,
        "7789": 175,
        "7790": 160,
        "7791": 202,
        "7792": 143,
        "7793": 133,
        "7794": 45,
        "7795": 233,
        "7796": 110,
        "7797": 236,
        "7798": 107,
        "7799": 133,
        "7800": 91,
        "7801": 51,
        "7802": 203,
        "7803": 233,
        "7804": 134,
        "7805": 247,
        "7806": 175,
        "7807": 253,
        "7808": 201,
        "7809": 198,
        "7810": 95,
        "7811": 126,
        "7812": 239,
        "7813": 121,
        "7814": 129,
        "7815": 177,
        "7816": 21,
        "7817": 219,
        "7818": 202,
        "7819": 244,
        "7820": 245,
        "7821": 211,
        "7822": 38,
        "7823": 66,
        "7824": 112,
        "7825": 234,
        "7826": 183,
        "7827": 144,
        "7828": 2,
        "7829": 161,
        "7830": 194,
        "7831": 241,
        "7832": 114,
        "7833": 96,
        "7834": 91,
        "7835": 6,
        "7836": 36,
        "7837": 254,
        "7838": 198,
        "7839": 27,
        "7840": 34,
        "7841": 162,
        "7842": 170,
        "7843": 252,
        "7844": 229,
        "7845": 193,
        "7846": 50,
        "7847": 136,
        "7848": 100,
        "7849": 153,
        "7850": 96,
        "7851": 13,
        "7852": 174,
        "7853": 200,
        "7854": 91,
        "7855": 91,
        "7856": 44,
        "7857": 217,
        "7858": 219,
        "7859": 156,
        "7860": 54,
        "7861": 67,
        "7862": 111,
        "7863": 241,
        "7864": 160,
        "7865": 157,
        "7866": 124,
        "7867": 206,
        "7868": 214,
        "7869": 112,
        "7870": 242,
        "7871": 42,
        "7872": 237,
        "7873": 78,
        "7874": 255,
        "7875": 38,
        "7876": 69,
        "7877": 86,
        "7878": 204,
        "7879": 229,
        "7880": 100,
        "7881": 87,
        "7882": 232,
        "7883": 97,
        "7884": 68,
        "7885": 78,
        "7886": 200,
        "7887": 61,
        "7888": 214,
        "7889": 204,
        "7890": 154,
        "7891": 220,
        "7892": 122,
        "7893": 26,
        "7894": 27,
        "7895": 66,
        "7896": 143,
        "7897": 36,
        "7898": 97,
        "7899": 84,
        "7900": 57,
        "7901": 63,
        "7902": 39,
        "7903": 45,
        "7904": 239,
        "7905": 161,
        "7906": 230,
        "7907": 226,
        "7908": 120,
        "7909": 72,
        "7910": 39,
        "7911": 71,
        "7912": 8,
        "7913": 240,
        "7914": 229,
        "7915": 17,
        "7916": 227,
        "7917": 217,
        "7918": 215,
        "7919": 15,
        "7920": 131,
        "7921": 111,
        "7922": 247,
        "7923": 10,
        "7924": 143,
        "7925": 143,
        "7926": 199,
        "7927": 115,
        "7928": 122,
        "7929": 112,
        "7930": 254,
        "7931": 112,
        "7932": 51,
        "7933": 18,
        "7934": 253,
        "7935": 229,
        "7936": 83,
        "7937": 24,
        "7938": 145,
        "7939": 196,
        "7940": 123,
        "7941": 231,
        "7942": 61,
        "7943": 171,
        "7944": 232,
        "7945": 67,
        "7946": 83,
        "7947": 120,
        "7948": 76,
        "7949": 40,
        "7950": 142,
        "7951": 188,
        "7952": 143,
        "7953": 38,
        "7954": 181,
        "7955": 175,
        "7956": 10,
        "7957": 14,
        "7958": 206,
        "7959": 42,
        "7960": 42,
        "7961": 163,
        "7962": 1,
        "7963": 51,
        "7964": 42,
        "7965": 151,
        "7966": 50,
        "7967": 179,
        "7968": 91,
        "7969": 239,
        "7970": 80,
        "7971": 30,
        "7972": 209,
        "7973": 160,
        "7974": 133,
        "7975": 235,
        "7976": 224,
        "7977": 100,
        "7978": 237,
        "7979": 243,
        "7980": 1,
        "7981": 80,
        "7982": 184,
        "7983": 179,
        "7984": 233,
        "7985": 26,
        "7986": 180,
        "7987": 94,
        "7988": 57,
        "7989": 85,
        "7990": 165,
        "7991": 92,
        "7992": 119,
        "7993": 236,
        "7994": 118,
        "7995": 22,
        "7996": 122,
        "7997": 253,
        "7998": 113,
        "7999": 229,
        "8000": 168,
        "8001": 3,
        "8002": 142,
        "8003": 141,
        "8004": 112,
        "8005": 53,
        "8006": 73,
        "8007": 93,
        "8008": 198,
        "8009": 170,
        "8010": 189,
        "8011": 22,
        "8012": 69,
        "8013": 146,
        "8014": 190,
        "8015": 239,
        "8016": 92,
        "8017": 77,
        "8018": 209,
        "8019": 192,
        "8020": 218,
        "8021": 40,
        "8022": 241,
        "8023": 89,
        "8024": 0,
        "8025": 77,
        "8026": 193,
        "8027": 119,
        "8028": 130,
        "8029": 34,
        "8030": 247,
        "8031": 233,
        "8032": 48,
        "8033": 153,
        "8034": 226,
        "8035": 165,
        "8036": 34,
        "8037": 236,
        "8038": 193,
        "8039": 87,
        "8040": 59,
        "8041": 190,
        "8042": 48,
        "8043": 155,
        "8044": 24,
        "8045": 32,
        "8046": 103,
        "8047": 131,
        "8048": 138,
        "8049": 142,
        "8050": 159,
        "8051": 179,
        "8052": 2,
        "8053": 184,
        "8054": 244,
        "8055": 95,
        "8056": 228,
        "8057": 101,
        "8058": 212,
        "8059": 200,
        "8060": 61,
        "8061": 190,
        "8062": 149,
        "8063": 237,
        "8064": 63,
        "8065": 88,
        "8066": 0,
        "8067": 84,
        "8068": 60,
        "8069": 122,
        "8070": 194,
        "8071": 107,
        "8072": 54,
        "8073": 163,
        "8074": 141,
        "8075": 141,
        "8076": 222,
        "8077": 41,
        "8078": 204,
        "8079": 217,
        "8080": 20,
        "8081": 100,
        "8082": 245,
        "8083": 21,
        "8084": 202,
        "8085": 96,
        "8086": 103,
        "8087": 128,
        "8088": 92,
        "8089": 73,
        "8090": 143,
        "8091": 184,
        "8092": 61,
        "8093": 140,
        "8094": 179,
        "8095": 136,
        "8096": 184,
        "8097": 184,
        "8098": 56,
        "8099": 222,
        "8100": 108,
        "8101": 140,
        "8102": 161,
        "8103": 235,
        "8104": 134,
        "8105": 103,
        "8106": 235,
        "8107": 109,
        "8108": 43,
        "8109": 75,
        "8110": 234,
        "8111": 112,
        "8112": 26,
        "8113": 108,
        "8114": 20,
        "8115": 179,
        "8116": 159,
        "8117": 252,
        "8118": 251,
        "8119": 124,
        "8120": 119,
        "8121": 47,
        "8122": 6,
        "8123": 252,
        "8124": 210,
        "8125": 236,
        "8126": 154,
        "8127": 133,
        "8128": 213,
        "8129": 194,
        "8130": 18,
        "8131": 101,
        "8132": 125,
        "8133": 43,
        "8134": 1,
        "8135": 185,
        "8136": 64,
        "8137": 110,
        "8138": 21,
        "8139": 90,
        "8140": 35,
        "8141": 80,
        "8142": 187,
        "8143": 233,
        "8144": 211,
        "8145": 111,
        "8146": 196,
        "8147": 99,
        "8148": 228,
        "8149": 229,
        "8150": 222,
        "8151": 252,
        "8152": 119,
        "8153": 78,
        "8154": 47,
        "8155": 52,
        "8156": 217,
        "8157": 137,
        "8158": 244,
        "8159": 77,
        "8160": 103,
        "8161": 110,
        "8162": 55,
        "8163": 64,
        "8164": 249,
        "8165": 118,
        "8166": 68,
        "8167": 73,
        "8168": 255,
        "8169": 62,
        "8170": 109,
        "8171": 156,
        "8172": 140,
        "8173": 219,
        "8174": 140,
        "8175": 54,
        "8176": 217,
        "8177": 189,
        "8178": 41,
        "8179": 214,
        "8180": 211,
        "8181": 110,
        "8182": 184,
        "8183": 84,
        "8184": 87,
        "8185": 67,
        "8186": 120,
        "8187": 248,
        "8188": 143,
        "8189": 122,
        "8190": 85,
        "8191": 97,
        "8192": 147,
        "8193": 98,
        "8194": 195,
        "8195": 147,
        "8196": 62,
        "8197": 202,
        "8198": 98,
        "8199": 37,
        "8200": 53,
        "8201": 32,
        "8202": 145,
        "8203": 214,
        "8204": 165,
        "8205": 137,
        "8206": 66,
        "8207": 61,
        "8208": 182,
        "8209": 223,
        "8210": 150,
        "8211": 61,
        "8212": 38,
        "8213": 220,
        "8214": 128,
        "8215": 207,
        "8216": 101,
        "8217": 26,
        "8218": 177,
        "8219": 53,
        "8220": 193,
        "8221": 10,
        "8222": 66,
        "8223": 161,
        "8224": 108,
        "8225": 139,
        "8226": 77,
        "8227": 209,
        "8228": 9,
        "8229": 179,
        "8230": 109,
        "8231": 117,
        "8232": 191,
        "8233": 181,
        "8234": 23,
        "8235": 168,
        "8236": 55,
        "8237": 226,
        "8238": 196,
        "8239": 217,
        "8240": 77,
        "8241": 186,
        "8242": 69,
        "8243": 241,
        "8244": 149,
        "8245": 205,
        "8246": 190,
        "8247": 100,
        "8248": 66,
        "8249": 204,
        "8250": 244,
        "8251": 8,
        "8252": 74,
        "8253": 143,
        "8254": 252,
        "8255": 61,
        "8256": 153,
        "8257": 233,
        "8258": 71,
        "8259": 139,
        "8260": 142,
        "8261": 71,
        "8262": 86,
        "8263": 168,
        "8264": 121,
        "8265": 89,
        "8266": 145,
        "8267": 79,
        "8268": 246,
        "8269": 211,
        "8270": 60,
        "8271": 45,
        "8272": 64,
        "8273": 21,
        "8274": 71,
        "8275": 90,
        "8276": 120,
        "8277": 180,
        "8278": 0,
        "8279": 203,
        "8280": 244,
        "8281": 151,
        "8282": 107,
        "8283": 183,
        "8284": 193,
        "8285": 24,
        "8286": 153,
        "8287": 141,
        "8288": 132,
        "8289": 98,
        "8290": 185,
        "8291": 1,
        "8292": 255,
        "8293": 128,
        "8294": 247,
        "8295": 13,
        "8296": 252,
        "8297": 134,
        "8298": 16,
        "8299": 175,
        "8300": 6,
        "8301": 213,
        "8302": 186,
        "8303": 85,
        "8304": 76,
        "8305": 147,
        "8306": 157,
        "8307": 16,
        "8308": 62,
        "8309": 213,
        "8310": 122,
        "8311": 14,
        "8312": 23,
        "8313": 83,
        "8314": 113,
        "8315": 51,
        "8316": 189,
        "8317": 110,
        "8318": 128,
        "8319": 48,
        "8320": 127,
        "8321": 220,
        "8322": 125,
        "8323": 157,
        "8324": 4,
        "8325": 121,
        "8326": 88,
        "8327": 93,
        "8328": 193,
        "8329": 26,
        "8330": 137,
        "8331": 215,
        "8332": 57,
        "8333": 211,
        "8334": 102,
        "8335": 84,
        "8336": 236,
        "8337": 108,
        "8338": 238,
        "8339": 107,
        "8340": 171,
        "8341": 74,
        "8342": 80,
        "8343": 16,
        "8344": 234,
        "8345": 245,
        "8346": 61,
        "8347": 224,
        "8348": 45,
        "8349": 143,
        "8350": 39,
        "8351": 206,
        "8352": 229,
        "8353": 227,
        "8354": 21,
        "8355": 130,
        "8356": 103,
        "8357": 181,
        "8358": 0,
        "8359": 168,
        "8360": 62,
        "8361": 3,
        "8362": 147,
        "8363": 191,
        "8364": 70,
        "8365": 16,
        "8366": 187,
        "8367": 243,
        "8368": 67,
        "8369": 160,
        "8370": 240,
        "8371": 76,
        "8372": 204,
        "8373": 163,
        "8374": 155,
        "8375": 9,
        "8376": 82,
        "8377": 16,
        "8378": 26,
        "8379": 222,
        "8380": 147,
        "8381": 163,
        "8382": 113,
        "8383": 213,
        "8384": 244,
        "8385": 169,
        "8386": 177,
        "8387": 198,
        "8388": 48,
        "8389": 18,
        "8390": 174,
        "8391": 180,
        "8392": 22,
        "8393": 96,
        "8394": 26,
        "8395": 129,
        "8396": 117,
        "8397": 171,
        "8398": 12,
        "8399": 102,
        "8400": 72,
        "8401": 81,
        "8402": 10,
        "8403": 177,
        "8404": 51,
        "8405": 171,
        "8406": 140,
        "8407": 173,
        "8408": 72,
        "8409": 218,
        "8410": 206,
        "8411": 225,
        "8412": 41,
        "8413": 84,
        "8414": 229,
        "8415": 210,
        "8416": 9,
        "8417": 212,
        "8418": 194,
        "8419": 187,
        "8420": 246,
        "8421": 68,
        "8422": 234,
        "8423": 54,
        "8424": 202,
        "8425": 25,
        "8426": 176,
        "8427": 211,
        "8428": 98,
        "8429": 125,
        "8430": 43,
        "8431": 151,
        "8432": 141,
        "8433": 164,
        "8434": 60,
        "8435": 155,
        "8436": 176,
        "8437": 237,
        "8438": 252,
        "8439": 223,
        "8440": 222,
        "8441": 10,
        "8442": 9,
        "8443": 218,
        "8444": 11,
        "8445": 73,
        "8446": 222,
        "8447": 132,
        "8448": 48,
        "8449": 38,
        "8450": 141,
        "8451": 13,
        "8452": 42,
        "8453": 48,
        "8454": 185,
        "8455": 245,
        "8456": 160,
        "8457": 45,
        "8458": 185,
        "8459": 76,
        "8460": 122,
        "8461": 29,
        "8462": 40,
        "8463": 216,
        "8464": 133,
        "8465": 142,
        "8466": 152,
        "8467": 211,
        "8468": 156,
        "8469": 179,
        "8470": 216,
        "8471": 93,
        "8472": 177,
        "8473": 197,
        "8474": 251,
        "8475": 132,
        "8476": 189,
        "8477": 124,
        "8478": 131,
        "8479": 160,
        "8480": 55,
        "8481": 69,
        "8482": 2,
        "8483": 27,
        "8484": 226,
        "8485": 119,
        "8486": 138,
        "8487": 117,
        "8488": 180,
        "8489": 123,
        "8490": 196,
        "8491": 145,
        "8492": 254,
        "8493": 36,
        "8494": 202,
        "8495": 180,
        "8496": 254,
        "8497": 174,
        "8498": 70,
        "8499": 70,
        "8500": 212,
        "8501": 96,
        "8502": 66,
        "8503": 76,
        "8504": 250,
        "8505": 35,
        "8506": 60,
        "8507": 53,
        "8508": 208,
        "8509": 67,
        "8510": 124,
        "8511": 68,
        "8512": 91,
        "8513": 241,
        "8514": 25,
        "8515": 83,
        "8516": 250,
        "8517": 154,
        "8518": 202,
        "8519": 123,
        "8520": 125,
        "8521": 153,
        "8522": 129,
        "8523": 163,
        "8524": 111,
        "8525": 28,
        "8526": 206,
        "8527": 21,
        "8528": 155,
        "8529": 197,
        "8530": 147,
        "8531": 177,
        "8532": 188,
        "8533": 129,
        "8534": 154,
        "8535": 66,
        "8536": 145,
        "8537": 159,
        "8538": 85,
        "8539": 138,
        "8540": 35,
        "8541": 152,
        "8542": 30,
        "8543": 248,
        "8544": 181,
        "8545": 175,
        "8546": 240,
        "8547": 6,
        "8548": 95,
        "8549": 166,
        "8550": 58,
        "8551": 72,
        "8552": 217,
        "8553": 233,
        "8554": 253,
        "8555": 188,
        "8556": 167,
        "8557": 22,
        "8558": 93,
        "8559": 164,
        "8560": 17,
        "8561": 97,
        "8562": 8,
        "8563": 57,
        "8564": 92,
        "8565": 223,
        "8566": 70,
        "8567": 132,
        "8568": 69,
        "8569": 47,
        "8570": 194,
        "8571": 210,
        "8572": 207,
        "8573": 153,
        "8574": 210,
        "8575": 117,
        "8576": 61,
        "8577": 179,
        "8578": 20,
        "8579": 220,
        "8580": 18,
        "8581": 65,
        "8582": 169,
        "8583": 155,
        "8584": 25,
        "8585": 241,
        "8586": 181,
        "8587": 176,
        "8588": 11,
        "8589": 142,
        "8590": 77,
        "8591": 7,
        "8592": 166,
        "8593": 82,
        "8594": 236,
        "8595": 200,
        "8596": 165,
        "8597": 179,
        "8598": 14,
        "8599": 177,
        "8600": 233,
        "8601": 166,
        "8602": 5,
        "8603": 229,
        "8604": 49,
        "8605": 208,
        "8606": 103,
        "8607": 40,
        "8608": 108,
        "8609": 147,
        "8610": 30,
        "8611": 152,
        "8612": 130,
        "8613": 159,
        "8614": 180,
        "8615": 224,
        "8616": 110,
        "8617": 175,
        "8618": 205,
        "8619": 202,
        "8620": 15,
        "8621": 109,
        "8622": 218,
        "8623": 221,
        "8624": 32,
        "8625": 0,
        "8626": 153,
        "8627": 94,
        "8628": 37,
        "8629": 184,
        "8630": 72,
        "8631": 131,
        "8632": 56,
        "8633": 167,
        "8634": 65,
        "8635": 113,
        "8636": 185,
        "8637": 140,
        "8638": 86,
        "8639": 139,
        "8640": 136,
        "8641": 11,
        "8642": 76,
        "8643": 44,
        "8644": 241,
        "8645": 252,
        "8646": 200,
        "8647": 4,
        "8648": 90,
        "8649": 31,
        "8650": 150,
        "8651": 118,
        "8652": 120,
        "8653": 142,
        "8654": 45,
        "8655": 121,
        "8656": 112,
        "8657": 176,
        "8658": 167,
        "8659": 171,
        "8660": 98,
        "8661": 34,
        "8662": 118,
        "8663": 142,
        "8664": 218,
        "8665": 125,
        "8666": 102,
        "8667": 238,
        "8668": 100,
        "8669": 194,
        "8670": 79,
        "8671": 249,
        "8672": 206,
        "8673": 121,
        "8674": 78,
        "8675": 73,
        "8676": 82,
        "8677": 181,
        "8678": 112,
        "8679": 113,
        "8680": 189,
        "8681": 24,
        "8682": 149,
        "8683": 176,
        "8684": 203,
        "8685": 185,
        "8686": 146,
        "8687": 23,
        "8688": 113,
        "8689": 229,
        "8690": 65,
        "8691": 71,
        "8692": 49,
        "8693": 16,
        "8694": 243,
        "8695": 4,
        "8696": 215,
        "8697": 112,
        "8698": 36,
        "8699": 35,
        "8700": 130,
        "8701": 144,
        "8702": 59,
        "8703": 101,
        "8704": 5,
        "8705": 250,
        "8706": 208,
        "8707": 78,
        "8708": 125,
        "8709": 44,
        "8710": 64,
        "8711": 197,
        "8712": 67,
        "8713": 117,
        "8714": 213,
        "8715": 203,
        "8716": 214,
        "8717": 70,
        "8718": 254,
        "8719": 167,
        "8720": 212,
        "8721": 67,
        "8722": 49,
        "8723": 162,
        "8724": 8,
        "8725": 56,
        "8726": 136,
        "8727": 45,
        "8728": 163,
        "8729": 62,
        "8730": 29,
        "8731": 211,
        "8732": 245,
        "8733": 200,
        "8734": 190,
        "8735": 175,
        "8736": 64,
        "8737": 243,
        "8738": 181,
        "8739": 177,
        "8740": 188,
        "8741": 4,
        "8742": 238,
        "8743": 193,
        "8744": 114,
        "8745": 247,
        "8746": 227,
        "8747": 44,
        "8748": 247,
        "8749": 70,
        "8750": 24,
        "8751": 85,
        "8752": 74,
        "8753": 129,
        "8754": 35,
        "8755": 188,
        "8756": 251,
        "8757": 74,
        "8758": 86,
        "8759": 124,
        "8760": 225,
        "8761": 142,
        "8762": 87,
        "8763": 141,
        "8764": 6,
        "8765": 212,
        "8766": 39,
        "8767": 194,
        "8768": 79,
        "8769": 61,
        "8770": 51,
        "8771": 10,
        "8772": 212,
        "8773": 128,
        "8774": 217,
        "8775": 189,
        "8776": 30,
        "8777": 42,
        "8778": 247,
        "8779": 32,
        "8780": 155,
        "8781": 223,
        "8782": 124,
        "8783": 41,
        "8784": 67,
        "8785": 176,
        "8786": 157,
        "8787": 56,
        "8788": 81,
        "8789": 49,
        "8790": 151,
        "8791": 153,
        "8792": 49,
        "8793": 46,
        "8794": 41,
        "8795": 192,
        "8796": 100,
        "8797": 137,
        "8798": 48,
        "8799": 187,
        "8800": 255,
        "8801": 157,
        "8802": 65,
        "8803": 35,
        "8804": 4,
        "8805": 112,
        "8806": 157,
        "8807": 251,
        "8808": 32,
        "8809": 242,
        "8810": 233,
        "8811": 22,
        "8812": 53,
        "8813": 79,
        "8814": 243,
        "8815": 67,
        "8816": 240,
        "8817": 101,
        "8818": 103,
        "8819": 205,
        "8820": 59,
        "8821": 45,
        "8822": 82,
        "8823": 187,
        "8824": 186,
        "8825": 116,
        "8826": 211,
        "8827": 210,
        "8828": 236,
        "8829": 197,
        "8830": 142,
        "8831": 127,
        "8832": 105,
        "8833": 177,
        "8834": 80,
        "8835": 79,
        "8836": 135,
        "8837": 115,
        "8838": 144,
        "8839": 67,
        "8840": 128,
        "8841": 136,
        "8842": 67,
        "8843": 9,
        "8844": 14,
        "8845": 178,
        "8846": 181,
        "8847": 55,
        "8848": 38,
        "8849": 205,
        "8850": 113,
        "8851": 152,
        "8852": 0,
        "8853": 233,
        "8854": 231,
        "8855": 76,
        "8856": 230,
        "8857": 232,
        "8858": 72,
        "8859": 200,
        "8860": 244,
        "8861": 91,
        "8862": 32,
        "8863": 24,
        "8864": 73,
        "8865": 167,
        "8866": 159,
        "8867": 30,
        "8868": 169,
        "8869": 81,
        "8870": 160,
        "8871": 110,
        "8872": 148,
        "8873": 255,
        "8874": 107,
        "8875": 39,
        "8876": 200,
        "8877": 237,
        "8878": 124,
        "8879": 92,
        "8880": 57,
        "8881": 205,
        "8882": 21,
        "8883": 62,
        "8884": 152,
        "8885": 131,
        "8886": 20,
        "8887": 168,
        "8888": 2,
        "8889": 63,
        "8890": 189,
        "8891": 87,
        "8892": 79,
        "8893": 190,
        "8894": 169,
        "8895": 61,
        "8896": 3,
        "8897": 251,
        "8898": 92,
        "8899": 40,
        "8900": 79,
        "8901": 120,
        "8902": 48,
        "8903": 227,
        "8904": 60,
        "8905": 97,
        "8906": 123,
        "8907": 0,
        "8908": 76,
        "8909": 223,
        "8910": 81,
        "8911": 78,
        "8912": 155,
        "8913": 12,
        "8914": 82,
        "8915": 47,
        "8916": 89,
        "8917": 119,
        "8918": 32,
        "8919": 106,
        "8920": 5,
        "8921": 4,
        "8922": 254,
        "8923": 199,
        "8924": 68,
        "8925": 20,
        "8926": 144,
        "8927": 102,
        "8928": 190,
        "8929": 175,
        "8930": 210,
        "8931": 149,
        "8932": 222,
        "8933": 165,
        "8934": 230,
        "8935": 80,
        "8936": 25,
        "8937": 220,
        "8938": 10,
        "8939": 184,
        "8940": 22,
        "8941": 38,
        "8942": 166,
        "8943": 10,
        "8944": 119,
        "8945": 83,
        "8946": 154,
        "8947": 147,
        "8948": 188,
        "8949": 178,
        "8950": 190,
        "8951": 187,
        "8952": 109,
        "8953": 175,
        "8954": 243,
        "8955": 58,
        "8956": 137,
        "8957": 232,
        "8958": 37,
        "8959": 180,
        "8960": 92,
        "8961": 110,
        "8962": 148,
        "8963": 143,
        "8964": 158,
        "8965": 101,
        "8966": 169,
        "8967": 251,
        "8968": 168,
        "8969": 74,
        "8970": 171,
        "8971": 14,
        "8972": 181,
        "8973": 153,
        "8974": 164,
        "8975": 108,
        "8976": 87,
        "8977": 162,
        "8978": 226,
        "8979": 220,
        "8980": 10,
        "8981": 38,
        "8982": 143,
        "8983": 229,
        "8984": 17,
        "8985": 49,
        "8986": 155,
        "8987": 42,
        "8988": 249,
        "8989": 244,
        "8990": 176,
        "8991": 65,
        "8992": 16,
        "8993": 112,
        "8994": 61,
        "8995": 203,
        "8996": 123,
        "8997": 16,
        "8998": 213,
        "8999": 245,
        "9000": 82,
        "9001": 230,
        "9002": 48,
        "9003": 94,
        "9004": 14,
        "9005": 178,
        "9006": 141,
        "9007": 246,
        "9008": 245,
        "9009": 126,
        "9010": 138,
        "9011": 182,
        "9012": 135,
        "9013": 237,
        "9014": 91,
        "9015": 204,
        "9016": 216,
        "9017": 247,
        "9018": 27,
        "9019": 72,
        "9020": 29,
        "9021": 55,
        "9022": 185,
        "9023": 67,
        "9024": 96,
        "9025": 12,
        "9026": 42,
        "9027": 228,
        "9028": 200,
        "9029": 63,
        "9030": 50,
        "9031": 186,
        "9032": 121,
        "9033": 0,
        "9034": 154,
        "9035": 109,
        "9036": 176,
        "9037": 58,
        "9038": 77,
        "9039": 202,
        "9040": 3,
        "9041": 166,
        "9042": 106,
        "9043": 90,
        "9044": 20,
        "9045": 130,
        "9046": 110,
        "9047": 105,
        "9048": 172,
        "9049": 88,
        "9050": 36,
        "9051": 92,
        "9052": 111,
        "9053": 253,
        "9054": 192,
        "9055": 92,
        "9056": 131,
        "9057": 183,
        "9058": 135,
        "9059": 41,
        "9060": 217,
        "9061": 120,
        "9062": 8,
        "9063": 160,
        "9064": 217,
        "9065": 247,
        "9066": 14,
        "9067": 117,
        "9068": 25,
        "9069": 157,
        "9070": 53,
        "9071": 115,
        "9072": 198,
        "9073": 175,
        "9074": 55,
        "9075": 192,
        "9076": 233,
        "9077": 122,
        "9078": 126,
        "9079": 108,
        "9080": 159,
        "9081": 114,
        "9082": 93,
        "9083": 58,
        "9084": 6,
        "9085": 29,
        "9086": 108,
        "9087": 180,
        "9088": 25,
        "9089": 154,
        "9090": 2,
        "9091": 200,
        "9092": 156,
        "9093": 253,
        "9094": 74,
        "9095": 124,
        "9096": 81,
        "9097": 200,
        "9098": 124,
        "9099": 83,
        "9100": 162,
        "9101": 103,
        "9102": 198,
        "9103": 207,
        "9104": 19,
        "9105": 148,
        "9106": 45,
        "9107": 110,
        "9108": 219,
        "9109": 58,
        "9110": 218,
        "9111": 141,
        "9112": 81,
        "9113": 106,
        "9114": 12,
        "9115": 215,
        "9116": 18,
        "9117": 88,
        "9118": 84,
        "9119": 67,
        "9120": 201,
        "9121": 177,
        "9122": 143,
        "9123": 146,
        "9124": 183,
        "9125": 92,
        "9126": 176,
        "9127": 118,
        "9128": 126,
        "9129": 1,
        "9130": 197,
        "9131": 229,
        "9132": 86,
        "9133": 8,
        "9134": 210,
        "9135": 17,
        "9136": 108,
        "9137": 174,
        "9138": 27,
        "9139": 31,
        "9140": 4,
        "9141": 68,
        "9142": 221,
        "9143": 1,
        "9144": 43,
        "9145": 42,
        "9146": 180,
        "9147": 96,
        "9148": 175,
        "9149": 187,
        "9150": 109,
        "9151": 26,
        "9152": 126,
        "9153": 151,
        "9154": 8,
        "9155": 14,
        "9156": 27,
        "9157": 12,
        "9158": 117,
        "9159": 232,
        "9160": 224,
        "9161": 234,
        "9162": 203,
        "9163": 14,
        "9164": 31,
        "9165": 151,
        "9166": 204,
        "9167": 8,
        "9168": 84,
        "9169": 68,
        "9170": 101,
        "9171": 174,
        "9172": 224,
        "9173": 202,
        "9174": 193,
        "9175": 83,
        "9176": 149,
        "9177": 41,
        "9178": 9,
        "9179": 29,
        "9180": 156,
        "9181": 202,
        "9182": 220,
        "9183": 5,
        "9184": 134,
        "9185": 20,
        "9186": 242,
        "9187": 21,
        "9188": 44,
        "9189": 229,
        "9190": 36,
        "9191": 155,
        "9192": 17,
        "9193": 7,
        "9194": 186,
        "9195": 161,
        "9196": 163,
        "9197": 128,
        "9198": 171,
        "9199": 104,
        "9200": 74,
        "9201": 159,
        "9202": 133,
        "9203": 34,
        "9204": 237,
        "9205": 64,
        "9206": 234,
        "9207": 122,
        "9208": 170,
        "9209": 190,
        "9210": 114,
        "9211": 16,
        "9212": 190,
        "9213": 226,
        "9214": 64,
        "9215": 211,
        "9216": 12,
        "9217": 178,
        "9218": 28,
        "9219": 192,
        "9220": 3,
        "9221": 165,
        "9222": 55,
        "9223": 31,
        "9224": 162,
        "9225": 145,
        "9226": 170,
        "9227": 28,
        "9228": 17,
        "9229": 5,
        "9230": 186,
        "9231": 252,
        "9232": 182,
        "9233": 205,
        "9234": 137,
        "9235": 47,
        "9236": 129,
        "9237": 253,
        "9238": 170,
        "9239": 242,
        "9240": 42,
        "9241": 238,
        "9242": 67,
        "9243": 210,
        "9244": 171,
        "9245": 77,
        "9246": 73,
        "9247": 3,
        "9248": 120,
        "9249": 51,
        "9250": 175,
        "9251": 59,
        "9252": 15,
        "9253": 182,
        "9254": 206,
        "9255": 108,
        "9256": 19,
        "9257": 99,
        "9258": 186,
        "9259": 127,
        "9260": 108,
        "9261": 184,
        "9262": 37,
        "9263": 112,
        "9264": 255,
        "9265": 96,
        "9266": 59,
        "9267": 134,
        "9268": 135,
        "9269": 197,
        "9270": 150,
        "9271": 204,
        "9272": 246,
        "9273": 214,
        "9274": 67,
        "9275": 59,
        "9276": 243,
        "9277": 186,
        "9278": 112,
        "9279": 151,
        "9280": 91,
        "9281": 174,
        "9282": 152,
        "9283": 150,
        "9284": 249,
        "9285": 208,
        "9286": 186,
        "9287": 56,
        "9288": 125,
        "9289": 236,
        "9290": 54,
        "9291": 98,
        "9292": 192,
        "9293": 152,
        "9294": 101,
        "9295": 134,
        "9296": 29,
        "9297": 98,
        "9298": 151,
        "9299": 116,
        "9300": 117,
        "9301": 148,
        "9302": 217,
        "9303": 112,
        "9304": 32,
        "9305": 116,
        "9306": 178,
        "9307": 5,
        "9308": 172,
        "9309": 136,
        "9310": 152,
        "9311": 239,
        "9312": 196,
        "9313": 51,
        "9314": 112,
        "9315": 77,
        "9316": 4,
        "9317": 218,
        "9318": 236,
        "9319": 185,
        "9320": 90,
        "9321": 217,
        "9322": 75,
        "9323": 157,
        "9324": 206,
        "9325": 68,
        "9326": 243,
        "9327": 112,
        "9328": 91,
        "9329": 9,
        "9330": 127,
        "9331": 47,
        "9332": 123,
        "9333": 167,
        "9334": 112,
        "9335": 74,
        "9336": 215,
        "9337": 91,
        "9338": 161,
        "9339": 7,
        "9340": 150,
        "9341": 109,
        "9342": 180,
        "9343": 111,
        "9344": 234,
        "9345": 138,
        "9346": 24,
        "9347": 30,
        "9348": 144,
        "9349": 88,
        "9350": 167,
        "9351": 113,
        "9352": 243,
        "9353": 159,
        "9354": 8,
        "9355": 53,
        "9356": 210,
        "9357": 216,
        "9358": 84,
        "9359": 5,
        "9360": 148,
        "9361": 222,
        "9362": 182,
        "9363": 172,
        "9364": 52,
        "9365": 77,
        "9366": 9,
        "9367": 182,
        "9368": 70,
        "9369": 184,
        "9370": 0,
        "9371": 182,
        "9372": 37,
        "9373": 35,
        "9374": 4,
        "9375": 171,
        "9376": 240,
        "9377": 178,
        "9378": 200,
        "9379": 131,
        "9380": 26,
        "9381": 169,
        "9382": 199,
        "9383": 210,
        "9384": 153,
        "9385": 6,
        "9386": 54,
        "9387": 115,
        "9388": 39,
        "9389": 229,
        "9390": 128,
        "9391": 153,
        "9392": 145,
        "9393": 78,
        "9394": 230,
        "9395": 67,
        "9396": 117,
        "9397": 255,
        "9398": 15,
        "9399": 255,
        "9400": 158,
        "9401": 96,
        "9402": 253,
        "9403": 79,
        "9404": 37,
        "9405": 171,
        "9406": 11,
        "9407": 52,
        "9408": 5,
        "9409": 9,
        "9410": 38,
        "9411": 29,
        "9412": 73,
        "9413": 126,
        "9414": 244,
        "9415": 77,
        "9416": 196,
        "9417": 190,
        "9418": 254,
        "9419": 241,
        "9420": 216,
        "9421": 107,
        "9422": 43,
        "9423": 164,
        "9424": 51,
        "9425": 19,
        "9426": 198,
        "9427": 212,
        "9428": 160,
        "9429": 40,
        "9430": 100,
        "9431": 175,
        "9432": 154,
        "9433": 115,
        "9434": 40,
        "9435": 42,
        "9436": 137,
        "9437": 96,
        "9438": 7,
        "9439": 212,
        "9440": 3,
        "9441": 240,
        "9442": 172,
        "9443": 146,
        "9444": 110,
        "9445": 146,
        "9446": 123,
        "9447": 53,
        "9448": 104,
        "9449": 212,
        "9450": 9,
        "9451": 140,
        "9452": 195,
        "9453": 56,
        "9454": 13,
        "9455": 214,
        "9456": 33,
        "9457": 70,
        "9458": 158,
        "9459": 126,
        "9460": 190,
        "9461": 237,
        "9462": 252,
        "9463": 185,
        "9464": 162,
        "9465": 125,
        "9466": 24,
        "9467": 50,
        "9468": 230,
        "9469": 176,
        "9470": 6,
        "9471": 125,
        "9472": 154,
        "9473": 112,
        "9474": 36,
        "9475": 142,
        "9476": 201,
        "9477": 89,
        "9478": 108,
        "9479": 255,
        "9480": 189,
        "9481": 247,
        "9482": 212,
        "9483": 33,
        "9484": 137,
        "9485": 43,
        "9486": 0,
        "9487": 142,
        "9488": 150,
        "9489": 142,
        "9490": 203,
        "9491": 221,
        "9492": 87,
        "9493": 44,
        "9494": 80,
        "9495": 45,
        "9496": 78,
        "9497": 58,
        "9498": 32,
        "9499": 121,
        "9500": 89,
        "9501": 25,
        "9502": 165,
        "9503": 47,
        "9504": 231,
        "9505": 245,
        "9506": 157,
        "9507": 219,
        "9508": 1,
        "9509": 44,
        "9510": 19,
        "9511": 173,
        "9512": 207,
        "9513": 192,
        "9514": 220,
        "9515": 92,
        "9516": 122,
        "9517": 121,
        "9518": 135,
        "9519": 187,
        "9520": 231,
        "9521": 174,
        "9522": 37,
        "9523": 224,
        "9524": 197,
        "9525": 26,
        "9526": 6,
        "9527": 221,
        "9528": 61,
        "9529": 131,
        "9530": 84,
        "9531": 162,
        "9532": 145,
        "9533": 204,
        "9534": 39,
        "9535": 182,
        "9536": 137,
        "9537": 34,
        "9538": 129,
        "9539": 77,
        "9540": 62,
        "9541": 166,
        "9542": 91,
        "9543": 188,
        "9544": 98,
        "9545": 181,
        "9546": 168,
        "9547": 54,
        "9548": 229,
        "9549": 26,
        "9550": 19,
        "9551": 49,
        "9552": 165,
        "9553": 90,
        "9554": 214,
        "9555": 242,
        "9556": 168,
        "9557": 170,
        "9558": 133,
        "9559": 135,
        "9560": 153,
        "9561": 119,
        "9562": 79,
        "9563": 73,
        "9564": 216,
        "9565": 213,
        "9566": 57,
        "9567": 215,
        "9568": 188,
        "9569": 14,
        "9570": 10,
        "9571": 187,
        "9572": 102,
        "9573": 251,
        "9574": 248,
        "9575": 253,
        "9576": 61,
        "9577": 237,
        "9578": 249,
        "9579": 173,
        "9580": 87,
        "9581": 77,
        "9582": 214,
        "9583": 115,
        "9584": 63,
        "9585": 241,
        "9586": 84,
        "9587": 160,
        "9588": 198,
        "9589": 217,
        "9590": 62,
        "9591": 253,
        "9592": 17,
        "9593": 244,
        "9594": 80,
        "9595": 151,
        "9596": 14,
        "9597": 93,
        "9598": 161,
        "9599": 136,
        "9600": 243,
        "9601": 52,
        "9602": 117,
        "9603": 76,
        "9604": 82,
        "9605": 10,
        "9606": 90,
        "9607": 80,
        "9608": 111,
        "9609": 114,
        "9610": 48,
        "9611": 19,
        "9612": 224,
        "9613": 112,
        "9614": 201,
        "9615": 77,
        "9616": 70,
        "9617": 54,
        "9618": 153,
        "9619": 96,
        "9620": 151,
        "9621": 82,
        "9622": 23,
        "9623": 244,
        "9624": 109,
        "9625": 90,
        "9626": 146,
        "9627": 112,
        "9628": 146,
        "9629": 51,
        "9630": 253,
        "9631": 171,
        "9632": 24,
        "9633": 104,
        "9634": 85,
        "9635": 195,
        "9636": 94,
        "9637": 172,
        "9638": 151,
        "9639": 188,
        "9640": 38,
        "9641": 110,
        "9642": 232,
        "9643": 95,
        "9644": 228,
        "9645": 253,
        "9646": 29,
        "9647": 205,
        "9648": 21,
        "9649": 56,
        "9650": 249,
        "9651": 140,
        "9652": 90,
        "9653": 198,
        "9654": 96,
        "9655": 11,
        "9656": 163,
        "9657": 200,
        "9658": 39,
        "9659": 140,
        "9660": 40,
        "9661": 207,
        "9662": 124,
        "9663": 156,
        "9664": 63,
        "9665": 152,
        "9666": 80,
        "9667": 237,
        "9668": 7,
        "9669": 16,
        "9670": 14,
        "9671": 174,
        "9672": 157,
        "9673": 174,
        "9674": 63,
        "9675": 149,
        "9676": 241,
        "9677": 253,
        "9678": 104,
        "9679": 182,
        "9680": 10,
        "9681": 52,
        "9682": 42,
        "9683": 198,
        "9684": 158,
        "9685": 124,
        "9686": 226,
        "9687": 126,
        "9688": 185,
        "9689": 248,
        "9690": 203,
        "9691": 29,
        "9692": 97,
        "9693": 240,
        "9694": 41,
        "9695": 200,
        "9696": 253,
        "9697": 21,
        "9698": 203,
        "9699": 3,
        "9700": 170,
        "9701": 77,
        "9702": 123,
        "9703": 131,
        "9704": 208,
        "9705": 215,
        "9706": 241,
        "9707": 54,
        "9708": 19,
        "9709": 185,
        "9710": 146,
        "9711": 181,
        "9712": 122,
        "9713": 243,
        "9714": 13,
        "9715": 72,
        "9716": 150,
        "9717": 7,
        "9718": 163,
        "9719": 92,
        "9720": 94,
        "9721": 21,
        "9722": 78,
        "9723": 63,
        "9724": 238,
        "9725": 13,
        "9726": 177,
        "9727": 179,
        "9728": 159,
        "9729": 7,
        "9730": 122,
        "9731": 216,
        "9732": 222,
        "9733": 228,
        "9734": 83,
        "9735": 137,
        "9736": 154,
        "9737": 64,
        "9738": 114,
        "9739": 111,
        "9740": 19,
        "9741": 117,
        "9742": 3,
        "9743": 75,
        "9744": 218,
        "9745": 8,
        "9746": 102,
        "9747": 78,
        "9748": 55,
        "9749": 221,
        "9750": 68,
        "9751": 102,
        "9752": 69,
        "9753": 209,
        "9754": 117,
        "9755": 193,
        "9756": 43,
        "9757": 126,
        "9758": 30,
        "9759": 123,
        "9760": 153,
        "9761": 239,
        "9762": 198,
        "9763": 105,
        "9764": 186,
        "9765": 247,
        "9766": 201,
        "9767": 181,
        "9768": 220,
        "9769": 77,
        "9770": 175,
        "9771": 61,
        "9772": 92,
        "9773": 80,
        "9774": 201,
        "9775": 117,
        "9776": 86,
        "9777": 235,
        "9778": 252,
        "9779": 162,
        "9780": 194,
        "9781": 109,
        "9782": 215,
        "9783": 94,
        "9784": 195,
        "9785": 0,
        "9786": 105,
        "9787": 45,
        "9788": 52,
        "9789": 1,
        "9790": 171,
        "9791": 15,
        "9792": 85,
        "9793": 254,
        "9794": 92,
        "9795": 129,
        "9796": 181,
        "9797": 222,
        "9798": 216,
        "9799": 170,
        "9800": 36,
        "9801": 43,
        "9802": 114,
        "9803": 203,
        "9804": 248,
        "9805": 209,
        "9806": 107,
        "9807": 71,
        "9808": 149,
        "9809": 102,
        "9810": 49,
        "9811": 3,
        "9812": 195,
        "9813": 220,
        "9814": 99,
        "9815": 139,
        "9816": 180,
        "9817": 123,
        "9818": 103,
        "9819": 146,
        "9820": 179,
        "9821": 95,
        "9822": 69,
        "9823": 24,
        "9824": 149,
        "9825": 186,
        "9826": 148,
        "9827": 187,
        "9828": 50,
        "9829": 96,
        "9830": 154,
        "9831": 119,
        "9832": 109,
        "9833": 16,
        "9834": 129,
        "9835": 194,
        "9836": 237,
        "9837": 248,
        "9838": 73,
        "9839": 101,
        "9840": 54,
        "9841": 152,
        "9842": 177,
        "9843": 60,
        "9844": 222,
        "9845": 145,
        "9846": 161,
        "9847": 84,
        "9848": 163,
        "9849": 92,
        "9850": 11,
        "9851": 243,
        "9852": 80,
        "9853": 113,
        "9854": 169,
        "9855": 130,
        "9856": 197,
        "9857": 212,
        "9858": 189,
        "9859": 113,
        "9860": 130,
        "9861": 242,
        "9862": 254,
        "9863": 102,
        "9864": 49,
        "9865": 21,
        "9866": 40,
        "9867": 201,
        "9868": 107,
        "9869": 101,
        "9870": 69,
        "9871": 28,
        "9872": 162,
        "9873": 20,
        "9874": 98,
        "9875": 239,
        "9876": 122,
        "9877": 58,
        "9878": 35,
        "9879": 154,
        "9880": 240,
        "9881": 99,
        "9882": 142,
        "9883": 62,
        "9884": 226,
        "9885": 6,
        "9886": 7,
        "9887": 176,
        "9888": 173,
        "9889": 159,
        "9890": 4,
        "9891": 220,
        "9892": 185,
        "9893": 250,
        "9894": 80,
        "9895": 174,
        "9896": 35,
        "9897": 205,
        "9898": 241,
        "9899": 206,
        "9900": 209,
        "9901": 140,
        "9902": 114,
        "9903": 87,
        "9904": 11,
        "9905": 200,
        "9906": 203,
        "9907": 113,
        "9908": 242,
        "9909": 81,
        "9910": 236,
        "9911": 62,
        "9912": 63,
        "9913": 89,
        "9914": 79,
        "9915": 56,
        "9916": 182,
        "9917": 52,
        "9918": 127,
        "9919": 173,
        "9920": 68,
        "9921": 112,
        "9922": 139,
        "9923": 19,
        "9924": 224,
        "9925": 90,
        "9926": 61,
        "9927": 67,
        "9928": 55,
        "9929": 105,
        "9930": 150,
        "9931": 246,
        "9932": 24,
        "9933": 41,
        "9934": 244,
        "9935": 226,
        "9936": 153,
        "9937": 119,
        "9938": 43,
        "9939": 250,
        "9940": 170,
        "9941": 72,
        "9942": 176,
        "9943": 3,
        "9944": 71,
        "9945": 10,
        "9946": 86,
        "9947": 58,
        "9948": 93,
        "9949": 205,
        "9950": 116,
        "9951": 157,
        "9952": 219,
        "9953": 75,
        "9954": 84,
        "9955": 252,
        "9956": 107,
        "9957": 85,
        "9958": 204,
        "9959": 205,
        "9960": 142,
        "9961": 189,
        "9962": 206,
        "9963": 85,
        "9964": 10,
        "9965": 20,
        "9966": 28,
        "9967": 220,
        "9968": 7,
        "9969": 222,
        "9970": 133,
        "9971": 40,
        "9972": 118,
        "9973": 58,
        "9974": 165,
        "9975": 53,
        "9976": 156,
        "9977": 219,
        "9978": 3,
        "9979": 129,
        "9980": 108,
        "9981": 160,
        "9982": 21,
        "9983": 127,
        "9984": 119,
        "9985": 48,
        "9986": 196,
        "9987": 222,
        "9988": 69,
        "9989": 5,
        "9990": 56,
        "9991": 63,
        "9992": 107,
        "9993": 66,
        "9994": 53,
        "9995": 32,
        "9996": 216,
        "9997": 109,
        "9998": 188,
        "9999": 21,
        "10000": 36,
        "10001": 163,
        "10002": 34,
        "10003": 199,
        "10004": 175,
        "10005": 235,
        "10006": 89,
        "10007": 18,
        "10008": 240,
        "10009": 111,
        "10010": 241,
        "10011": 133,
        "10012": 206,
        "10013": 141,
        "10014": 110,
        "10015": 53,
        "10016": 8,
        "10017": 8,
        "10018": 96,
        "10019": 202,
        "10020": 252,
        "10021": 243,
        "10022": 222,
        "10023": 71,
        "10024": 23,
        "10025": 144,
        "10026": 105,
        "10027": 80,
        "10028": 182,
        "10029": 146,
        "10030": 65,
        "10031": 13,
        "10032": 101,
        "10033": 240,
        "10034": 70,
        "10035": 75,
        "10036": 125,
        "10037": 244,
        "10038": 19,
        "10039": 51,
        "10040": 42,
        "10041": 218,
        "10042": 132,
        "10043": 196,
        "10044": 19,
        "10045": 111,
        "10046": 219,
        "10047": 4,
        "10048": 219,
        "10049": 156,
        "10050": 69,
        "10051": 195,
        "10052": 193,
        "10053": 30,
        "10054": 4,
        "10055": 121,
        "10056": 11,
        "10057": 153,
        "10058": 4,
        "10059": 215,
        "10060": 235,
        "10061": 201,
        "10062": 164,
        "10063": 111,
        "10064": 233,
        "10065": 140,
        "10066": 7,
        "10067": 213,
        "10068": 182,
        "10069": 100,
        "10070": 175,
        "10071": 122,
        "10072": 146,
        "10073": 208,
        "10074": 220,
        "10075": 137,
        "10076": 135,
        "10077": 120,
        "10078": 77,
        "10079": 212,
        "10080": 213,
        "10081": 150,
        "10082": 207,
        "10083": 94,
        "10084": 161,
        "10085": 136,
        "10086": 83,
        "10087": 216,
        "10088": 34,
        "10089": 59,
        "10090": 119,
        "10091": 37,
        "10092": 154,
        "10093": 19,
        "10094": 41,
        "10095": 175,
        "10096": 166,
        "10097": 172,
        "10098": 98,
        "10099": 54,
        "10100": 81,
        "10101": 224,
        "10102": 5,
        "10103": 34,
        "10104": 10,
        "10105": 145,
        "10106": 59,
        "10107": 57,
        "10108": 249,
        "10109": 239,
        "10110": 98,
        "10111": 17,
        "10112": 49,
        "10113": 145,
        "10114": 218,
        "10115": 109,
        "10116": 207,
        "10117": 55,
        "10118": 89,
        "10119": 106,
        "10120": 181,
        "10121": 142,
        "10122": 5,
        "10123": 109,
        "10124": 174,
        "10125": 52,
        "10126": 211,
        "10127": 116,
        "10128": 241,
        "10129": 176,
        "10130": 54,
        "10131": 141,
        "10132": 215,
        "10133": 184,
        "10134": 82,
        "10135": 232,
        "10136": 126,
        "10137": 163,
        "10138": 19,
        "10139": 46,
        "10140": 145,
        "10141": 233,
        "10142": 106,
        "10143": 251,
        "10144": 9,
        "10145": 200,
        "10146": 6,
        "10147": 181,
        "10148": 175,
        "10149": 249,
        "10150": 188,
        "10151": 112,
        "10152": 233,
        "10153": 239,
        "10154": 194,
        "10155": 149,
        "10156": 165,
        "10157": 199,
        "10158": 190,
        "10159": 109,
        "10160": 47,
        "10161": 45,
        "10162": 116,
        "10163": 96,
        "10164": 95,
        "10165": 191,
        "10166": 192,
        "10167": 215,
        "10168": 91,
        "10169": 186,
        "10170": 217,
        "10171": 191,
        "10172": 193,
        "10173": 114,
        "10174": 239,
        "10175": 119,
        "10176": 22,
        "10177": 82,
        "10178": 123,
        "10179": 225,
        "10180": 235,
        "10181": 9,
        "10182": 194,
        "10183": 23,
        "10184": 18,
        "10185": 230,
        "10186": 170,
        "10187": 154,
        "10188": 245,
        "10189": 32,
        "10190": 104,
        "10191": 100,
        "10192": 115,
        "10193": 201,
        "10194": 142,
        "10195": 45,
        "10196": 182,
        "10197": 175,
        "10198": 83,
        "10199": 10,
        "10200": 38,
        "10201": 139,
        "10202": 68,
        "10203": 57,
        "10204": 94,
        "10205": 28,
        "10206": 49,
        "10207": 233,
        "10208": 108,
        "10209": 115,
        "10210": 50,
        "10211": 230,
        "10212": 42,
        "10213": 117,
        "10214": 201,
        "10215": 136,
        "10216": 244,
        "10217": 158,
        "10218": 198,
        "10219": 104,
        "10220": 126,
        "10221": 162,
        "10222": 224,
        "10223": 164,
        "10224": 26,
        "10225": 255,
        "10226": 206,
        "10227": 220,
        "10228": 161,
        "10229": 14,
        "10230": 171,
        "10231": 12,
        "10232": 209,
        "10233": 24,
        "10234": 185,
        "10235": 211,
        "10236": 129,
        "10237": 138,
        "10238": 188,
        "10239": 148,
        "10240": 71,
        "10241": 50,
        "10242": 203,
        "10243": 99,
        "10244": 74,
        "10245": 203,
        "10246": 231,
        "10247": 193,
        "10248": 55,
        "10249": 43,
        "10250": 50,
        "10251": 22,
        "10252": 200,
        "10253": 22,
        "10254": 172,
        "10255": 134,
        "10256": 12,
        "10257": 164,
        "10258": 76,
        "10259": 158,
        "10260": 43,
        "10261": 29,
        "10262": 102,
        "10263": 42,
        "10264": 253,
        "10265": 143,
        "10266": 136,
        "10267": 214,
        "10268": 0,
        "10269": 235,
        "10270": 180,
        "10271": 132,
        "10272": 105,
        "10273": 217,
        "10274": 47,
        "10275": 146,
        "10276": 35,
        "10277": 102,
        "10278": 47,
        "10279": 162,
        "10280": 179,
        "10281": 127,
        "10282": 54,
        "10283": 23,
        "10284": 120,
        "10285": 215,
        "10286": 172,
        "10287": 204,
        "10288": 179,
        "10289": 116,
        "10290": 179,
        "10291": 40,
        "10292": 163,
        "10293": 154,
        "10294": 147,
        "10295": 67,
        "10296": 21,
        "10297": 210,
        "10298": 187,
        "10299": 103,
        "10300": 184,
        "10301": 254,
        "10302": 90,
        "10303": 135,
        "10304": 219,
        "10305": 2,
        "10306": 253,
        "10307": 149,
        "10308": 179,
        "10309": 49,
        "10310": 107,
        "10311": 74,
        "10312": 30,
        "10313": 25,
        "10314": 236,
        "10315": 125,
        "10316": 22,
        "10317": 233,
        "10318": 42,
        "10319": 252,
        "10320": 108,
        "10321": 143,
        "10322": 207,
        "10323": 212,
        "10324": 67,
        "10325": 112,
        "10326": 186,
        "10327": 123,
        "10328": 103,
        "10329": 62,
        "10330": 187,
        "10331": 108,
        "10332": 234,
        "10333": 92,
        "10334": 37,
        "10335": 225,
        "10336": 168,
        "10337": 1,
        "10338": 220,
        "10339": 219,
        "10340": 131,
        "10341": 242,
        "10342": 50,
        "10343": 129,
        "10344": 200,
        "10345": 66,
        "10346": 111,
        "10347": 87,
        "10348": 221,
        "10349": 25,
        "10350": 112,
        "10351": 163,
        "10352": 213,
        "10353": 181,
        "10354": 213,
        "10355": 101,
        "10356": 93,
        "10357": 128,
        "10358": 27,
        "10359": 233,
        "10360": 239,
        "10361": 87,
        "10362": 193,
        "10363": 74,
        "10364": 230,
        "10365": 12,
        "10366": 159,
        "10367": 194,
        "10368": 204,
        "10369": 21,
        "10370": 70,
        "10371": 8,
        "10372": 196,
        "10373": 30,
        "10374": 127,
        "10375": 11,
        "10376": 141,
        "10377": 25,
        "10378": 38,
        "10379": 139,
        "10380": 117,
        "10381": 95,
        "10382": 154,
        "10383": 100,
        "10384": 136,
        "10385": 177,
        "10386": 236,
        "10387": 181,
        "10388": 53,
        "10389": 241,
        "10390": 78,
        "10391": 102,
        "10392": 174,
        "10393": 223,
        "10394": 2,
        "10395": 155,
        "10396": 23,
        "10397": 243,
        "10398": 113,
        "10399": 182,
        "10400": 106,
        "10401": 106,
        "10402": 144,
        "10403": 30,
        "10404": 95,
        "10405": 29,
        "10406": 50,
        "10407": 195,
        "10408": 179,
        "10409": 107,
        "10410": 177,
        "10411": 197,
        "10412": 203,
        "10413": 119,
        "10414": 20,
        "10415": 229,
        "10416": 86,
        "10417": 177,
        "10418": 148,
        "10419": 218,
        "10420": 197,
        "10421": 182,
        "10422": 185,
        "10423": 140,
        "10424": 160,
        "10425": 44,
        "10426": 65,
        "10427": 121,
        "10428": 55,
        "10429": 152,
        "10430": 137,
        "10431": 130,
        "10432": 146,
        "10433": 119,
        "10434": 106,
        "10435": 14,
        "10436": 231,
        "10437": 189,
        "10438": 78,
        "10439": 192,
        "10440": 158,
        "10441": 225,
        "10442": 113,
        "10443": 57,
        "10444": 39,
        "10445": 246,
        "10446": 43,
        "10447": 54,
        "10448": 211,
        "10449": 136,
        "10450": 158,
        "10451": 62,
        "10452": 1,
        "10453": 82,
        "10454": 222,
        "10455": 5,
        "10456": 106,
        "10457": 168,
        "10458": 177,
        "10459": 89,
        "10460": 49,
        "10461": 45,
        "10462": 132,
        "10463": 235,
        "10464": 106,
        "10465": 34,
        "10466": 25,
        "10467": 142,
        "10468": 81,
        "10469": 47,
        "10470": 89,
        "10471": 211,
        "10472": 85,
        "10473": 101,
        "10474": 192,
        "10475": 131,
        "10476": 113,
        "10477": 118,
        "10478": 129,
        "10479": 118,
        "10480": 156,
        "10481": 214,
        "10482": 25,
        "10483": 144,
        "10484": 103,
        "10485": 143,
        "10486": 241,
        "10487": 101,
        "10488": 218,
        "10489": 181,
        "10490": 223,
        "10491": 243,
        "10492": 168,
        "10493": 194,
        "10494": 247,
        "10495": 171,
        "10496": 70,
        "10497": 193,
        "10498": 40,
        "10499": 91,
        "10500": 102,
        "10501": 193,
        "10502": 54,
        "10503": 232,
        "10504": 96,
        "10505": 247,
        "10506": 216,
        "10507": 8,
        "10508": 209,
        "10509": 42,
        "10510": 85,
        "10511": 28,
        "10512": 22,
        "10513": 171,
        "10514": 66,
        "10515": 61,
        "10516": 220,
        "10517": 13,
        "10518": 9,
        "10519": 238,
        "10520": 90,
        "10521": 220,
        "10522": 211,
        "10523": 106,
        "10524": 200,
        "10525": 67,
        "10526": 95,
        "10527": 170,
        "10528": 49,
        "10529": 76,
        "10530": 55,
        "10531": 93,
        "10532": 177,
        "10533": 79,
        "10534": 170,
        "10535": 144,
        "10536": 60,
        "10537": 231,
        "10538": 154,
        "10539": 201,
        "10540": 169,
        "10541": 251,
        "10542": 210,
        "10543": 219,
        "10544": 223,
        "10545": 6,
        "10546": 26,
        "10547": 195,
        "10548": 125,
        "10549": 26,
        "10550": 184,
        "10551": 180,
        "10552": 215,
        "10553": 109,
        "10554": 9,
        "10555": 37,
        "10556": 165,
        "10557": 12,
        "10558": 192,
        "10559": 49,
        "10560": 236,
        "10561": 185,
        "10562": 185,
        "10563": 171,
        "10564": 120,
        "10565": 0,
        "10566": 69,
        "10567": 16,
        "10568": 162,
        "10569": 243,
        "10570": 107,
        "10571": 18,
        "10572": 239,
        "10573": 208,
        "10574": 225,
        "10575": 168,
        "10576": 147,
        "10577": 182,
        "10578": 37,
        "10579": 65,
        "10580": 190,
        "10581": 26,
        "10582": 123,
        "10583": 174,
        "10584": 97,
        "10585": 119,
        "10586": 116,
        "10587": 244,
        "10588": 238,
        "10589": 217,
        "10590": 250,
        "10591": 101,
        "10592": 88,
        "10593": 239,
        "10594": 209,
        "10595": 164,
        "10596": 179,
        "10597": 241,
        "10598": 217,
        "10599": 174,
        "10600": 14,
        "10601": 51,
        "10602": 208,
        "10603": 45,
        "10604": 118,
        "10605": 145,
        "10606": 161,
        "10607": 166,
        "10608": 165,
        "10609": 142,
        "10610": 7,
        "10611": 124,
        "10612": 109,
        "10613": 220,
        "10614": 59,
        "10615": 199,
        "10616": 62,
        "10617": 178,
        "10618": 58,
        "10619": 34,
        "10620": 82,
        "10621": 200,
        "10622": 10,
        "10623": 61,
        "10624": 204,
        "10625": 78,
        "10626": 107,
        "10627": 121,
        "10628": 124,
        "10629": 87,
        "10630": 234,
        "10631": 108,
        "10632": 213,
        "10633": 97,
        "10634": 156,
        "10635": 109,
        "10636": 192,
        "10637": 222,
        "10638": 245,
        "10639": 141,
        "10640": 110,
        "10641": 160,
        "10642": 59,
        "10643": 223,
        "10644": 9,
        "10645": 1,
        "10646": 146,
        "10647": 209,
        "10648": 94,
        "10649": 86,
        "10650": 245,
        "10651": 90,
        "10652": 35,
        "10653": 253,
        "10654": 140,
        "10655": 86,
        "10656": 46,
        "10657": 247,
        "10658": 65,
        "10659": 196,
        "10660": 118,
        "10661": 86,
        "10662": 60,
        "10663": 5,
        "10664": 139,
        "10665": 248,
        "10666": 88,
        "10667": 175,
        "10668": 251,
        "10669": 62,
        "10670": 62,
        "10671": 75,
        "10672": 174,
        "10673": 222,
        "10674": 100,
        "10675": 178,
        "10676": 115,
        "10677": 63,
        "10678": 88,
        "10679": 102,
        "10680": 44,
        "10681": 209,
        "10682": 86,
        "10683": 191,
        "10684": 91,
        "10685": 55,
        "10686": 91,
        "10687": 153,
        "10688": 55,
        "10689": 162,
        "10690": 60,
        "10691": 236,
        "10692": 154,
        "10693": 100,
        "10694": 123,
        "10695": 72,
        "10696": 65,
        "10697": 45,
        "10698": 174,
        "10699": 15,
        "10700": 117,
        "10701": 233,
        "10702": 169,
        "10703": 183,
        "10704": 253,
        "10705": 147,
        "10706": 91,
        "10707": 70,
        "10708": 104,
        "10709": 92,
        "10710": 249,
        "10711": 109,
        "10712": 246,
        "10713": 206,
        "10714": 229,
        "10715": 49,
        "10716": 218,
        "10717": 85,
        "10718": 71,
        "10719": 1,
        "10720": 5,
        "10721": 114,
        "10722": 14,
        "10723": 56,
        "10724": 17,
        "10725": 234,
        "10726": 83,
        "10727": 2,
        "10728": 2,
        "10729": 200,
        "10730": 156,
        "10731": 161,
        "10732": 12,
        "10733": 72,
        "10734": 110,
        "10735": 83,
        "10736": 58,
        "10737": 156,
        "10738": 136,
        "10739": 234,
        "10740": 136,
        "10741": 88,
        "10742": 37,
        "10743": 242,
        "10744": 67,
        "10745": 130,
        "10746": 179,
        "10747": 77,
        "10748": 30,
        "10749": 239,
        "10750": 207,
        "10751": 42,
        "10752": 49,
        "10753": 183,
        "10754": 124,
        "10755": 121,
        "10756": 81,
        "10757": 222,
        "10758": 123,
        "10759": 195,
        "10760": 105,
        "10761": 83,
        "10762": 85,
        "10763": 19,
        "10764": 250,
        "10765": 91,
        "10766": 192,
        "10767": 67,
        "10768": 60,
        "10769": 122,
        "10770": 85,
        "10771": 11,
        "10772": 216,
        "10773": 203,
        "10774": 83,
        "10775": 217,
        "10776": 184,
        "10777": 205,
        "10778": 59,
        "10779": 159,
        "10780": 58,
        "10781": 155,
        "10782": 192,
        "10783": 212,
        "10784": 87,
        "10785": 113,
        "10786": 150,
        "10787": 6,
        "10788": 134,
        "10789": 227,
        "10790": 209,
        "10791": 126,
        "10792": 128,
        "10793": 50,
        "10794": 147,
        "10795": 188,
        "10796": 25,
        "10797": 88,
        "10798": 126,
        "10799": 139,
        "10800": 255,
        "10801": 250,
        "10802": 31,
        "10803": 70,
        "10804": 214,
        "10805": 82,
        "10806": 23,
        "10807": 238,
        "10808": 246,
        "10809": 141,
        "10810": 161,
        "10811": 139,
        "10812": 216,
        "10813": 163,
        "10814": 243,
        "10815": 149,
        "10816": 45,
        "10817": 162,
        "10818": 215,
        "10819": 49,
        "10820": 162,
        "10821": 134,
        "10822": 32,
        "10823": 171,
        "10824": 67,
        "10825": 22,
        "10826": 196,
        "10827": 109,
        "10828": 236,
        "10829": 133,
        "10830": 61,
        "10831": 183,
        "10832": 30,
        "10833": 67,
        "10834": 87,
        "10835": 35,
        "10836": 7,
        "10837": 99,
        "10838": 96,
        "10839": 159,
        "10840": 157,
        "10841": 90,
        "10842": 219,
        "10843": 171,
        "10844": 182,
        "10845": 204,
        "10846": 207,
        "10847": 192,
        "10848": 192,
        "10849": 187,
        "10850": 128,
        "10851": 9,
        "10852": 201,
        "10853": 107,
        "10854": 156,
        "10855": 122,
        "10856": 195,
        "10857": 126,
        "10858": 175,
        "10859": 89,
        "10860": 90,
        "10861": 191,
        "10862": 110,
        "10863": 206,
        "10864": 115,
        "10865": 216,
        "10866": 73,
        "10867": 202,
        "10868": 43,
        "10869": 239,
        "10870": 174,
        "10871": 96,
        "10872": 47,
        "10873": 234,
        "10874": 168,
        "10875": 120,
        "10876": 123,
        "10877": 144,
        "10878": 8,
        "10879": 1,
        "10880": 100,
        "10881": 187,
        "10882": 247,
        "10883": 191,
        "10884": 103,
        "10885": 31,
        "10886": 41,
        "10887": 255,
        "10888": 30,
        "10889": 86,
        "10890": 110,
        "10891": 75,
        "10892": 177,
        "10893": 109,
        "10894": 71,
        "10895": 130,
        "10896": 162,
        "10897": 211,
        "10898": 76,
        "10899": 117,
        "10900": 13,
        "10901": 53,
        "10902": 248,
        "10903": 212,
        "10904": 147,
        "10905": 192,
        "10906": 132,
        "10907": 131,
        "10908": 201,
        "10909": 153,
        "10910": 70,
        "10911": 103,
        "10912": 44,
        "10913": 41,
        "10914": 164,
        "10915": 2,
        "10916": 21,
        "10917": 112,
        "10918": 207,
        "10919": 236,
        "10920": 13,
        "10921": 174,
        "10922": 77,
        "10923": 201,
        "10924": 47,
        "10925": 164,
        "10926": 173,
        "10927": 220,
        "10928": 66,
        "10929": 85,
        "10930": 95,
        "10931": 79,
        "10932": 122,
        "10933": 69,
        "10934": 249,
        "10935": 179,
        "10936": 146,
        "10937": 218,
        "10938": 234,
        "10939": 143,
        "10940": 84,
        "10941": 3,
        "10942": 10,
        "10943": 70,
        "10944": 141,
        "10945": 241,
        "10946": 19,
        "10947": 170,
        "10948": 138,
        "10949": 157,
        "10950": 241,
        "10951": 166,
        "10952": 45,
        "10953": 73,
        "10954": 41,
        "10955": 179,
        "10956": 157,
        "10957": 69,
        "10958": 64,
        "10959": 194,
        "10960": 20,
        "10961": 241,
        "10962": 45,
        "10963": 17,
        "10964": 127,
        "10965": 113,
        "10966": 17,
        "10967": 234,
        "10968": 49,
        "10969": 214,
        "10970": 96,
        "10971": 47,
        "10972": 226,
        "10973": 120,
        "10974": 239,
        "10975": 2,
        "10976": 169,
        "10977": 208,
        "10978": 172,
        "10979": 221,
        "10980": 140,
        "10981": 56,
        "10982": 160,
        "10983": 226,
        "10984": 156,
        "10985": 116,
        "10986": 196,
        "10987": 106,
        "10988": 205,
        "10989": 83,
        "10990": 74,
        "10991": 221,
        "10992": 190,
        "10993": 9,
        "10994": 164,
        "10995": 168,
        "10996": 56,
        "10997": 47,
        "10998": 197,
        "10999": 187,
        "11000": 239,
        "11001": 156,
        "11002": 101,
        "11003": 13,
        "11004": 94,
        "11005": 180,
        "11006": 4,
        "11007": 70,
        "11008": 220,
        "11009": 38,
        "11010": 205,
        "11011": 104,
        "11012": 219,
        "11013": 72,
        "11014": 170,
        "11015": 145,
        "11016": 223,
        "11017": 42,
        "11018": 5,
        "11019": 80,
        "11020": 211,
        "11021": 212,
        "11022": 216,
        "11023": 41,
        "11024": 195,
        "11025": 3,
        "11026": 244,
        "11027": 129,
        "11028": 88,
        "11029": 181,
        "11030": 159,
        "11031": 65,
        "11032": 75,
        "11033": 147,
        "11034": 65,
        "11035": 192,
        "11036": 4,
        "11037": 68,
        "11038": 218,
        "11039": 117,
        "11040": 231,
        "11041": 144,
        "11042": 142,
        "11043": 60,
        "11044": 160,
        "11045": 17,
        "11046": 9,
        "11047": 36,
        "11048": 163,
        "11049": 173,
        "11050": 38,
        "11051": 106,
        "11052": 56,
        "11053": 24,
        "11054": 151,
        "11055": 25,
        "11056": 101,
        "11057": 5,
        "11058": 72,
        "11059": 88,
        "11060": 109,
        "11061": 90,
        "11062": 135,
        "11063": 180,
        "11064": 160,
        "11065": 128,
        "11066": 169,
        "11067": 214,
        "11068": 10,
        "11069": 234,
        "11070": 26,
        "11071": 193,
        "11072": 78,
        "11073": 25,
        "11074": 153,
        "11075": 197,
        "11076": 114,
        "11077": 20,
        "11078": 114,
        "11079": 15,
        "11080": 86,
        "11081": 140,
        "11082": 107,
        "11083": 122,
        "11084": 70,
        "11085": 229,
        "11086": 179,
        "11087": 195,
        "11088": 59,
        "11089": 139,
        "11090": 108,
        "11091": 84,
        "11092": 61,
        "11093": 20,
        "11094": 161,
        "11095": 95,
        "11096": 28,
        "11097": 7,
        "11098": 112,
        "11099": 255,
        "11100": 198,
        "11101": 244,
        "11102": 48,
        "11103": 100,
        "11104": 21,
        "11105": 144,
        "11106": 66,
        "11107": 81,
        "11108": 2,
        "11109": 44,
        "11110": 121,
        "11111": 137,
        "11112": 10,
        "11113": 168,
        "11114": 194,
        "11115": 242,
        "11116": 177,
        "11117": 242,
        "11118": 99,
        "11119": 80,
        "11120": 152,
        "11121": 202,
        "11122": 235,
        "11123": 127,
        "11124": 212,
        "11125": 89,
        "11126": 8,
        "11127": 31,
        "11128": 17,
        "11129": 136,
        "11130": 25,
        "11131": 248,
        "11132": 67,
        "11133": 222,
        "11134": 203,
        "11135": 156,
        "11136": 32,
        "11137": 85,
        "11138": 241,
        "11139": 211,
        "11140": 124,
        "11141": 36,
        "11142": 54,
        "11143": 126,
        "11144": 6,
        "11145": 49,
        "11146": 218,
        "11147": 95,
        "11148": 65,
        "11149": 56,
        "11150": 163,
        "11151": 229,
        "11152": 32,
        "11153": 239,
        "11154": 228,
        "11155": 35,
        "11156": 106,
        "11157": 19,
        "11158": 143,
        "11159": 152,
        "11160": 160,
        "11161": 54,
        "11162": 65,
        "11163": 202,
        "11164": 103,
        "11165": 54,
        "11166": 220,
        "11167": 21,
        "11168": 227,
        "11169": 139,
        "11170": 42,
        "11171": 28,
        "11172": 123,
        "11173": 66,
        "11174": 45,
        "11175": 5,
        "11176": 88,
        "11177": 219,
        "11178": 194,
        "11179": 103,
        "11180": 167,
        "11181": 210,
        "11182": 248,
        "11183": 143,
        "11184": 212,
        "11185": 191,
        "11186": 55,
        "11187": 247,
        "11188": 222,
        "11189": 6,
        "11190": 205,
        "11191": 168,
        "11192": 206,
        "11193": 44,
        "11194": 182,
        "11195": 217,
        "11196": 60,
        "11197": 42,
        "11198": 134,
        "11199": 127,
        "11200": 180,
        "11201": 31,
        "11202": 104,
        "11203": 83,
        "11204": 146,
        "11205": 3,
        "11206": 132,
        "11207": 25,
        "11208": 11,
        "11209": 251,
        "11210": 197,
        "11211": 85,
        "11212": 201,
        "11213": 194,
        "11214": 236,
        "11215": 112,
        "11216": 229,
        "11217": 171,
        "11218": 122,
        "11219": 163,
        "11220": 67,
        "11221": 253,
        "11222": 99,
        "11223": 152,
        "11224": 95,
        "11225": 253,
        "11226": 230,
        "11227": 244,
        "11228": 131,
        "11229": 18,
        "11230": 73,
        "11231": 98,
        "11232": 163,
        "11233": 47,
        "11234": 82,
        "11235": 222,
        "11236": 57,
        "11237": 191,
        "11238": 28,
        "11239": 240,
        "11240": 237,
        "11241": 63,
        "11242": 236,
        "11243": 4,
        "11244": 52,
        "11245": 213,
        "11246": 35,
        "11247": 113,
        "11248": 71,
        "11249": 23,
        "11250": 157,
        "11251": 222,
        "11252": 172,
        "11253": 210,
        "11254": 37,
        "11255": 141,
        "11256": 23,
        "11257": 132,
        "11258": 119,
        "11259": 115,
        "11260": 121,
        "11261": 59,
        "11262": 117,
        "11263": 174,
        "11264": 25,
        "11265": 52,
        "11266": 107,
        "11267": 138,
        "11268": 60,
        "11269": 189,
        "11270": 101,
        "11271": 208,
        "11272": 229,
        "11273": 47,
        "11274": 202,
        "11275": 53,
        "11276": 131,
        "11277": 97,
        "11278": 114,
        "11279": 242,
        "11280": 4,
        "11281": 231,
        "11282": 90,
        "11283": 55,
        "11284": 227,
        "11285": 235,
        "11286": 39,
        "11287": 232,
        "11288": 148,
        "11289": 140,
        "11290": 126,
        "11291": 199,
        "11292": 57,
        "11293": 234,
        "11294": 221,
        "11295": 10,
        "11296": 244,
        "11297": 214,
        "11298": 130,
        "11299": 216,
        "11300": 33,
        "11301": 225,
        "11302": 227,
        "11303": 76,
        "11304": 96,
        "11305": 128,
        "11306": 182,
        "11307": 131,
        "11308": 248,
        "11309": 39,
        "11310": 48,
        "11311": 231,
        "11312": 5,
        "11313": 96,
        "11314": 204,
        "11315": 146,
        "11316": 240,
        "11317": 166,
        "11318": 171,
        "11319": 123,
        "11320": 241,
        "11321": 199,
        "11322": 37,
        "11323": 81,
        "11324": 18,
        "11325": 0,
        "11326": 38,
        "11327": 26,
        "11328": 142,
        "11329": 234,
        "11330": 232,
        "11331": 162,
        "11332": 252,
        "11333": 19,
        "11334": 175,
        "11335": 108,
        "11336": 14,
        "11337": 65,
        "11338": 89,
        "11339": 182,
        "11340": 197,
        "11341": 209,
        "11342": 21,
        "11343": 196,
        "11344": 130,
        "11345": 214,
        "11346": 140,
        "11347": 183,
        "11348": 239,
        "11349": 165,
        "11350": 20,
        "11351": 233,
        "11352": 29,
        "11353": 121,
        "11354": 96,
        "11355": 105,
        "11356": 73,
        "11357": 0,
        "11358": 111,
        "11359": 184,
        "11360": 155,
        "11361": 106,
        "11362": 173,
        "11363": 92,
        "11364": 55,
        "11365": 213,
        "11366": 69,
        "11367": 168,
        "11368": 176,
        "11369": 27,
        "11370": 64,
        "11371": 69,
        "11372": 203,
        "11373": 189,
        "11374": 41,
        "11375": 210,
        "11376": 114,
        "11377": 46,
        "11378": 66,
        "11379": 116,
        "11380": 1,
        "11381": 35,
        "11382": 195,
        "11383": 189,
        "11384": 176,
        "11385": 233,
        "11386": 204,
        "11387": 91,
        "11388": 69,
        "11389": 144,
        "11390": 34,
        "11391": 182,
        "11392": 46,
        "11393": 168,
        "11394": 50,
        "11395": 254,
        "11396": 117,
        "11397": 66,
        "11398": 227,
        "11399": 2,
        "11400": 56,
        "11401": 78,
        "11402": 111,
        "11403": 182,
        "11404": 84,
        "11405": 191,
        "11406": 4,
        "11407": 86,
        "11408": 188,
        "11409": 112,
        "11410": 160,
        "11411": 167,
        "11412": 84,
        "11413": 101,
        "11414": 69,
        "11415": 186,
        "11416": 120,
        "11417": 146,
        "11418": 87,
        "11419": 12,
        "11420": 252,
        "11421": 157,
        "11422": 77,
        "11423": 51,
        "11424": 214,
        "11425": 140,
        "11426": 174,
        "11427": 234,
        "11428": 46,
        "11429": 29,
        "11430": 65,
        "11431": 223,
        "11432": 53,
        "11433": 171,
        "11434": 203,
        "11435": 145,
        "11436": 102,
        "11437": 103,
        "11438": 48,
        "11439": 102,
        "11440": 198,
        "11441": 133,
        "11442": 237,
        "11443": 50,
        "11444": 104,
        "11445": 152,
        "11446": 27,
        "11447": 200,
        "11448": 134,
        "11449": 91,
        "11450": 152,
        "11451": 9,
        "11452": 88,
        "11453": 108,
        "11454": 18,
        "11455": 115,
        "11456": 152,
        "11457": 84,
        "11458": 56,
        "11459": 129,
        "11460": 200,
        "11461": 214,
        "11462": 127,
        "11463": 244,
        "11464": 64,
        "11465": 233,
        "11466": 25,
        "11467": 122,
        "11468": 22,
        "11469": 238,
        "11470": 151,
        "11471": 51,
        "11472": 240,
        "11473": 152,
        "11474": 12,
        "11475": 93,
        "11476": 86,
        "11477": 198,
        "11478": 64,
        "11479": 192,
        "11480": 153,
        "11481": 247,
        "11482": 250,
        "11483": 200,
        "11484": 169,
        "11485": 71,
        "11486": 10,
        "11487": 168,
        "11488": 243,
        "11489": 55,
        "11490": 43,
        "11491": 238,
        "11492": 96,
        "11493": 35,
        "11494": 65,
        "11495": 129,
        "11496": 36,
        "11497": 77,
        "11498": 51,
        "11499": 10,
        "11500": 245,
        "11501": 86,
        "11502": 149,
        "11503": 125,
        "11504": 231,
        "11505": 33,
        "11506": 95,
        "11507": 157,
        "11508": 42,
        "11509": 31,
        "11510": 3,
        "11511": 220,
        "11512": 84,
        "11513": 158,
        "11514": 217,
        "11515": 55,
        "11516": 200,
        "11517": 83,
        "11518": 200,
        "11519": 228,
        "11520": 128,
        "11521": 73,
        "11522": 127,
        "11523": 128,
        "11524": 31,
        "11525": 21,
        "11526": 14,
        "11527": 224,
        "11528": 251,
        "11529": 220,
        "11530": 5,
        "11531": 32,
        "11532": 203,
        "11533": 188,
        "11534": 60,
        "11535": 62,
        "11536": 56,
        "11537": 250,
        "11538": 138,
        "11539": 17,
        "11540": 158,
        "11541": 79,
        "11542": 116,
        "11543": 52,
        "11544": 147,
        "11545": 194,
        "11546": 221,
        "11547": 251,
        "11548": 209,
        "11549": 218,
        "11550": 199,
        "11551": 61,
        "11552": 123,
        "11553": 48,
        "11554": 82,
        "11555": 168,
        "11556": 241,
        "11557": 30,
        "11558": 245,
        "11559": 63,
        "11560": 207,
        "11561": 118,
        "11562": 231,
        "11563": 76,
        "11564": 102,
        "11565": 166,
        "11566": 247,
        "11567": 137,
        "11568": 190,
        "11569": 186,
        "11570": 231,
        "11571": 195,
        "11572": 8,
        "11573": 60,
        "11574": 196,
        "11575": 245,
        "11576": 181,
        "11577": 244,
        "11578": 246,
        "11579": 119,
        "11580": 203,
        "11581": 209,
        "11582": 237,
        "11583": 102,
        "11584": 169,
        "11585": 238,
        "11586": 68,
        "11587": 172,
        "11588": 155,
        "11589": 83,
        "11590": 231,
        "11591": 235,
        "11592": 148,
        "11593": 67,
        "11594": 210,
        "11595": 40,
        "11596": 26,
        "11597": 56,
        "11598": 186,
        "11599": 212,
        "11600": 60,
        "11601": 104,
        "11602": 201,
        "11603": 199,
        "11604": 197,
        "11605": 11,
        "11606": 66,
        "11607": 119,
        "11608": 154,
        "11609": 32,
        "11610": 21,
        "11611": 98,
        "11612": 128,
        "11613": 189,
        "11614": 55,
        "11615": 191,
        "11616": 63,
        "11617": 147,
        "11618": 196,
        "11619": 51,
        "11620": 16,
        "11621": 66,
        "11622": 20,
        "11623": 29,
        "11624": 131,
        "11625": 110,
        "11626": 22,
        "11627": 24,
        "11628": 120,
        "11629": 188,
        "11630": 197,
        "11631": 37,
        "11632": 41,
        "11633": 22,
        "11634": 190,
        "11635": 4,
        "11636": 218,
        "11637": 239,
        "11638": 241,
        "11639": 140,
        "11640": 247,
        "11641": 98,
        "11642": 13,
        "11643": 84,
        "11644": 114,
        "11645": 155,
        "11646": 195,
        "11647": 18,
        "11648": 211,
        "11649": 253,
        "11650": 77,
        "11651": 40,
        "11652": 121,
        "11653": 165,
        "11654": 107,
        "11655": 119,
        "11656": 146,
        "11657": 221,
        "11658": 156,
        "11659": 162,
        "11660": 217,
        "11661": 74,
        "11662": 214,
        "11663": 204,
        "11664": 132,
        "11665": 142,
        "11666": 230,
        "11667": 171,
        "11668": 239,
        "11669": 163,
        "11670": 203,
        "11671": 24,
        "11672": 194,
        "11673": 76,
        "11674": 171,
        "11675": 221,
        "11676": 137,
        "11677": 58,
        "11678": 247,
        "11679": 64,
        "11680": 159,
        "11681": 244,
        "11682": 17,
        "11683": 61,
        "11684": 138,
        "11685": 114,
        "11686": 252,
        "11687": 173,
        "11688": 72,
        "11689": 201,
        "11690": 186,
        "11691": 68,
        "11692": 210,
        "11693": 34,
        "11694": 1,
        "11695": 186,
        "11696": 115,
        "11697": 46,
        "11698": 252,
        "11699": 239,
        "11700": 214,
        "11701": 27,
        "11702": 129,
        "11703": 132,
        "11704": 140,
        "11705": 84,
        "11706": 188,
        "11707": 41,
        "11708": 249,
        "11709": 107,
        "11710": 6,
        "11711": 58,
        "11712": 40,
        "11713": 145,
        "11714": 43,
        "11715": 127,
        "11716": 93,
        "11717": 194,
        "11718": 90,
        "11719": 216,
        "11720": 131,
        "11721": 177,
        "11722": 220,
        "11723": 194,
        "11724": 76,
        "11725": 245,
        "11726": 55,
        "11727": 82,
        "11728": 69,
        "11729": 202,
        "11730": 185,
        "11731": 238,
        "11732": 228,
        "11733": 219,
        "11734": 24,
        "11735": 32,
        "11736": 48,
        "11737": 57,
        "11738": 38,
        "11739": 110,
        "11740": 50,
        "11741": 55,
        "11742": 178,
        "11743": 163,
        "11744": 212,
        "11745": 119,
        "11746": 235,
        "11747": 25,
        "11748": 195,
        "11749": 93,
        "11750": 210,
        "11751": 165,
        "11752": 59,
        "11753": 177,
        "11754": 227,
        "11755": 10,
        "11756": 28,
        "11757": 181,
        "11758": 12,
        "11759": 45,
        "11760": 228,
        "11761": 231,
        "11762": 192,
        "11763": 2,
        "11764": 1,
        "11765": 134,
        "11766": 244,
        "11767": 82,
        "11768": 145,
        "11769": 62,
        "11770": 97,
        "11771": 166,
        "11772": 46,
        "11773": 24,
        "11774": 177,
        "11775": 219,
        "11776": 193,
        "11777": 181,
        "11778": 246,
        "11779": 245,
        "11780": 62,
        "11781": 60,
        "11782": 120,
        "11783": 172,
        "11784": 3,
        "11785": 157,
        "11786": 43,
        "11787": 191,
        "11788": 163,
        "11789": 50,
        "11790": 172,
        "11791": 112,
        "11792": 138,
        "11793": 89,
        "11794": 49,
        "11795": 98,
        "11796": 178,
        "11797": 156,
        "11798": 215,
        "11799": 98,
        "11800": 154,
        "11801": 198,
        "11802": 224,
        "11803": 95,
        "11804": 110,
        "11805": 57,
        "11806": 161,
        "11807": 187,
        "11808": 223,
        "11809": 133,
        "11810": 229,
        "11811": 140,
        "11812": 150,
        "11813": 71,
        "11814": 234,
        "11815": 224,
        "11816": 118,
        "11817": 12,
        "11818": 46,
        "11819": 54,
        "11820": 48,
        "11821": 47,
        "11822": 137,
        "11823": 238,
        "11824": 45,
        "11825": 106,
        "11826": 115,
        "11827": 52,
        "11828": 31,
        "11829": 177,
        "11830": 214,
        "11831": 42,
        "11832": 143,
        "11833": 167,
        "11834": 206,
        "11835": 86,
        "11836": 229,
        "11837": 210,
        "11838": 19,
        "11839": 66,
        "11840": 120,
        "11841": 14,
        "11842": 95,
        "11843": 190,
        "11844": 74,
        "11845": 193,
        "11846": 32,
        "11847": 11,
        "11848": 194,
        "11849": 139,
        "11850": 213,
        "11851": 38,
        "11852": 124,
        "11853": 63,
        "11854": 183,
        "11855": 108,
        "11856": 235,
        "11857": 42,
        "11858": 195,
        "11859": 30,
        "11860": 186,
        "11861": 236,
        "11862": 42,
        "11863": 163,
        "11864": 84,
        "11865": 17,
        "11866": 29,
        "11867": 202,
        "11868": 108,
        "11869": 78,
        "11870": 79,
        "11871": 13,
        "11872": 34,
        "11873": 210,
        "11874": 16,
        "11875": 217,
        "11876": 58,
        "11877": 170,
        "11878": 22,
        "11879": 99,
        "11880": 3,
        "11881": 112,
        "11882": 221,
        "11883": 248,
        "11884": 123,
        "11885": 67,
        "11886": 88,
        "11887": 74,
        "11888": 118,
        "11889": 53,
        "11890": 107,
        "11891": 107,
        "11892": 50,
        "11893": 244,
        "11894": 37,
        "11895": 206,
        "11896": 43,
        "11897": 242,
        "11898": 91,
        "11899": 193,
        "11900": 163,
        "11901": 202,
        "11902": 239,
        "11903": 158,
        "11904": 152,
        "11905": 243,
        "11906": 152,
        "11907": 23,
        "11908": 101,
        "11909": 101,
        "11910": 158,
        "11911": 193,
        "11912": 140,
        "11913": 176,
        "11914": 174,
        "11915": 102,
        "11916": 9,
        "11917": 4,
        "11918": 231,
        "11919": 193,
        "11920": 62,
        "11921": 191,
        "11922": 40,
        "11923": 177,
        "11924": 139,
        "11925": 111,
        "11926": 44,
        "11927": 216,
        "11928": 166,
        "11929": 36,
        "11930": 92,
        "11931": 135,
        "11932": 199,
        "11933": 80,
        "11934": 28,
        "11935": 196,
        "11936": 46,
        "11937": 10,
        "11938": 52,
        "11939": 140,
        "11940": 120,
        "11941": 82,
        "11942": 199,
        "11943": 74,
        "11944": 43,
        "11945": 20,
        "11946": 162,
        "11947": 76,
        "11948": 27,
        "11949": 130,
        "11950": 53,
        "11951": 111,
        "11952": 197,
        "11953": 89,
        "11954": 81,
        "11955": 219,
        "11956": 55,
        "11957": 115,
        "11958": 200,
        "11959": 222,
        "11960": 105,
        "11961": 200,
        "11962": 241,
        "11963": 199,
        "11964": 175,
        "11965": 166,
        "11966": 48,
        "11967": 26,
        "11968": 68,
        "11969": 68,
        "11970": 101,
        "11971": 34,
        "11972": 61,
        "11973": 10,
        "11974": 122,
        "11975": 100,
        "11976": 25,
        "11977": 249,
        "11978": 114,
        "11979": 120,
        "11980": 16,
        "11981": 168,
        "11982": 119,
        "11983": 137,
        "11984": 118,
        "11985": 28,
        "11986": 32,
        "11987": 128,
        "11988": 72,
        "11989": 78,
        "11990": 199,
        "11991": 59,
        "11992": 18,
        "11993": 65,
        "11994": 208,
        "11995": 42,
        "11996": 2,
        "11997": 80,
        "11998": 213,
        "11999": 105,
        "12000": 119,
        "12001": 169,
        "12002": 0,
        "12003": 10,
        "12004": 224,
        "12005": 91,
        "12006": 171,
        "12007": 255,
        "12008": 45,
        "12009": 74,
        "12010": 113,
        "12011": 219,
        "12012": 123,
        "12013": 40,
        "12014": 239,
        "12015": 132,
        "12016": 10,
        "12017": 112,
        "12018": 100,
        "12019": 118,
        "12020": 242,
        "12021": 132,
        "12022": 77,
        "12023": 59,
        "12024": 176,
        "12025": 65,
        "12026": 23,
        "12027": 89,
        "12028": 173,
        "12029": 121,
        "12030": 245,
        "12031": 161,
        "12032": 253,
        "12033": 243,
        "12034": 169,
        "12035": 144,
        "12036": 68,
        "12037": 154,
        "12038": 132,
        "12039": 64,
        "12040": 77,
        "12041": 243,
        "12042": 170,
        "12043": 80,
        "12044": 163,
        "12045": 97,
        "12046": 141,
        "12047": 23,
        "12048": 46,
        "12049": 169,
        "12050": 111,
        "12051": 106,
        "12052": 107,
        "12053": 32,
        "12054": 120,
        "12055": 244,
        "12056": 130,
        "12057": 63,
        "12058": 118,
        "12059": 188,
        "12060": 100,
        "12061": 234,
        "12062": 212,
        "12063": 196,
        "12064": 183,
        "12065": 42,
        "12066": 17,
        "12067": 135,
        "12068": 66,
        "12069": 228,
        "12070": 97,
        "12071": 33,
        "12072": 159,
        "12073": 53,
        "12074": 179,
        "12075": 160,
        "12076": 229,
        "12077": 231,
        "12078": 47,
        "12079": 68,
        "12080": 30,
        "12081": 7,
        "12082": 47,
        "12083": 220,
        "12084": 29,
        "12085": 153,
        "12086": 92,
        "12087": 108,
        "12088": 4,
        "12089": 133,
        "12090": 167,
        "12091": 180,
        "12092": 65,
        "12093": 84,
        "12094": 89,
        "12095": 39,
        "12096": 152,
        "12097": 9,
        "12098": 104,
        "12099": 82,
        "12100": 205,
        "12101": 70,
        "12102": 222,
        "12103": 41,
        "12104": 255,
        "12105": 50,
        "12106": 201,
        "12107": 2,
        "12108": 5,
        "12109": 160,
        "12110": 64,
        "12111": 137,
        "12112": 57,
        "12113": 22,
        "12114": 123,
        "12115": 51,
        "12116": 156,
        "12117": 215,
        "12118": 51,
        "12119": 106,
        "12120": 39,
        "12121": 58,
        "12122": 230,
        "12123": 49,
        "12124": 226,
        "12125": 15,
        "12126": 121,
        "12127": 47,
        "12128": 125,
        "12129": 234,
        "12130": 106,
        "12131": 156,
        "12132": 122,
        "12133": 239,
        "12134": 63,
        "12135": 182,
        "12136": 242,
        "12137": 83,
        "12138": 90,
        "12139": 65,
        "12140": 73,
        "12141": 48,
        "12142": 201,
        "12143": 94,
        "12144": 150,
        "12145": 165,
        "12146": 163,
        "12147": 165,
        "12148": 35,
        "12149": 94,
        "12150": 164,
        "12151": 167,
        "12152": 110,
        "12153": 66,
        "12154": 203,
        "12155": 101,
        "12156": 124,
        "12157": 35,
        "12158": 250,
        "12159": 99,
        "12160": 240,
        "12161": 115,
        "12162": 66,
        "12163": 199,
        "12164": 80,
        "12165": 138,
        "12166": 163,
        "12167": 45,
        "12168": 233,
        "12169": 253,
        "12170": 146,
        "12171": 91,
        "12172": 118,
        "12173": 237,
        "12174": 197,
        "12175": 57,
        "12176": 0,
        "12177": 87,
        "12178": 241,
        "12179": 184,
        "12180": 47,
        "12181": 79,
        "12182": 156,
        "12183": 161,
        "12184": 133,
        "12185": 125,
        "12186": 60,
        "12187": 208,
        "12188": 194,
        "12189": 12,
        "12190": 234,
        "12191": 247,
        "12192": 10,
        "12193": 124,
        "12194": 209,
        "12195": 209,
        "12196": 202,
        "12197": 188,
        "12198": 26,
        "12199": 225,
        "12200": 85,
        "12201": 34,
        "12202": 112,
        "12203": 245,
        "12204": 98,
        "12205": 53,
        "12206": 121,
        "12207": 122,
        "12208": 207,
        "12209": 146,
        "12210": 175,
        "12211": 162,
        "12212": 224,
        "12213": 240,
        "12214": 120,
        "12215": 163,
        "12216": 205,
        "12217": 48,
        "12218": 184,
        "12219": 185,
        "12220": 101,
        "12221": 51,
        "12222": 180,
        "12223": 93,
        "12224": 108,
        "12225": 172,
        "12226": 178,
        "12227": 252,
        "12228": 135,
        "12229": 51,
        "12230": 40,
        "12231": 121,
        "12232": 27,
        "12233": 31,
        "12234": 236,
        "12235": 67,
        "12236": 2,
        "12237": 219,
        "12238": 232,
        "12239": 176,
        "12240": 145,
        "12241": 88,
        "12242": 229,
        "12243": 109,
        "12244": 121,
        "12245": 198,
        "12246": 110,
        "12247": 245,
        "12248": 90,
        "12249": 64,
        "12250": 196,
        "12251": 210,
        "12252": 61,
        "12253": 168,
        "12254": 180,
        "12255": 155,
        "12256": 95,
        "12257": 33,
        "12258": 7,
        "12259": 108,
        "12260": 137,
        "12261": 95,
        "12262": 226,
        "12263": 211,
        "12264": 239,
        "12265": 195,
        "12266": 73,
        "12267": 88,
        "12268": 237,
        "12269": 226,
        "12270": 170,
        "12271": 240,
        "12272": 185,
        "12273": 200,
        "12274": 118,
        "12275": 106,
        "12276": 101,
        "12277": 169,
        "12278": 222,
        "12279": 90,
        "12280": 88,
        "12281": 149,
        "12282": 60,
        "12283": 17,
        "12284": 132,
        "12285": 191,
        "12286": 15,
        "12287": 236,
        "12288": 249,
        "12289": 244,
        "12290": 34,
        "12291": 204,
        "12292": 177,
        "12293": 80,
        "12294": 236,
        "12295": 218,
        "12296": 191,
        "12297": 148,
        "12298": 93,
        "12299": 244,
        "12300": 226,
        "12301": 211,
        "12302": 183,
        "12303": 48,
        "12304": 201,
        "12305": 3,
        "12306": 242,
        "12307": 6,
        "12308": 5,
        "12309": 102,
        "12310": 25,
        "12311": 78,
        "12312": 138,
        "12313": 199,
        "12314": 85,
        "12315": 56,
        "12316": 83,
        "12317": 172,
        "12318": 104,
        "12319": 104,
        "12320": 204,
        "12321": 222,
        "12322": 116,
        "12323": 40,
        "12324": 159,
        "12325": 60,
        "12326": 189,
        "12327": 82,
        "12328": 74,
        "12329": 138,
        "12330": 81,
        "12331": 70,
        "12332": 208,
        "12333": 92,
        "12334": 103,
        "12335": 216,
        "12336": 209,
        "12337": 132,
        "12338": 241,
        "12339": 110,
        "12340": 170,
        "12341": 62,
        "12342": 185,
        "12343": 215,
        "12344": 97,
        "12345": 35,
        "12346": 130,
        "12347": 37,
        "12348": 113,
        "12349": 152,
        "12350": 174,
        "12351": 209,
        "12352": 67,
        "12353": 191,
        "12354": 100,
        "12355": 212,
        "12356": 241,
        "12357": 156,
        "12358": 148,
        "12359": 24,
        "12360": 177,
        "12361": 39,
        "12362": 36,
        "12363": 88,
        "12364": 179,
        "12365": 127,
        "12366": 189,
        "12367": 18,
        "12368": 144,
        "12369": 27,
        "12370": 200,
        "12371": 142,
        "12372": 153,
        "12373": 127,
        "12374": 120,
        "12375": 177,
        "12376": 138,
        "12377": 46,
        "12378": 150,
        "12379": 31,
        "12380": 91,
        "12381": 229,
        "12382": 72,
        "12383": 172,
        "12384": 209,
        "12385": 36,
        "12386": 204,
        "12387": 250,
        "12388": 78,
        "12389": 112,
        "12390": 249,
        "12391": 2,
        "12392": 38,
        "12393": 47,
        "12394": 253,
        "12395": 85,
        "12396": 203,
        "12397": 165,
        "12398": 112,
        "12399": 85,
        "12400": 12,
        "12401": 116,
        "12402": 225,
        "12403": 179,
        "12404": 123,
        "12405": 240,
        "12406": 207,
        "12407": 85,
        "12408": 128,
        "12409": 99,
        "12410": 175,
        "12411": 231,
        "12412": 84,
        "12413": 236,
        "12414": 67,
        "12415": 149,
        "12416": 190,
        "12417": 214,
        "12418": 220,
        "12419": 147,
        "12420": 66,
        "12421": 196,
        "12422": 250,
        "12423": 206,
        "12424": 194,
        "12425": 26,
        "12426": 203,
        "12427": 42,
        "12428": 131,
        "12429": 192,
        "12430": 176,
        "12431": 104,
        "12432": 206,
        "12433": 74,
        "12434": 58,
        "12435": 209,
        "12436": 128,
        "12437": 249,
        "12438": 86,
        "12439": 172,
        "12440": 215,
        "12441": 113,
        "12442": 146,
        "12443": 68,
        "12444": 129,
        "12445": 223,
        "12446": 131,
        "12447": 139,
        "12448": 5,
        "12449": 65,
        "12450": 26,
        "12451": 115,
        "12452": 173,
        "12453": 181,
        "12454": 63,
        "12455": 217,
        "12456": 177,
        "12457": 159,
        "12458": 252,
        "12459": 211,
        "12460": 71,
        "12461": 100,
        "12462": 145,
        "12463": 140,
        "12464": 98,
        "12465": 127,
        "12466": 125,
        "12467": 34,
        "12468": 18,
        "12469": 110,
        "12470": 224,
        "12471": 122,
        "12472": 26,
        "12473": 185,
        "12474": 110,
        "12475": 225,
        "12476": 174,
        "12477": 69,
        "12478": 117,
        "12479": 140,
        "12480": 138,
        "12481": 37,
        "12482": 129,
        "12483": 10,
        "12484": 66,
        "12485": 192,
        "12486": 14,
        "12487": 203,
        "12488": 204,
        "12489": 9,
        "12490": 178,
        "12491": 239,
        "12492": 2,
        "12493": 33,
        "12494": 111,
        "12495": 227,
        "12496": 44,
        "12497": 195,
        "12498": 35,
        "12499": 193,
        "12500": 64,
        "12501": 70,
        "12502": 68,
        "12503": 244,
        "12504": 121,
        "12505": 189,
        "12506": 66,
        "12507": 165,
        "12508": 188,
        "12509": 141,
        "12510": 227,
        "12511": 188,
        "12512": 191,
        "12513": 253,
        "12514": 36,
        "12515": 81,
        "12516": 96,
        "12517": 62,
        "12518": 165,
        "12519": 7,
        "12520": 143,
        "12521": 27,
        "12522": 175,
        "12523": 78,
        "12524": 216,
        "12525": 208,
        "12526": 130,
        "12527": 19,
        "12528": 205,
        "12529": 98,
        "12530": 148,
        "12531": 204,
        "12532": 118,
        "12533": 179,
        "12534": 23,
        "12535": 217,
        "12536": 8,
        "12537": 249,
        "12538": 184,
        "12539": 157,
        "12540": 127,
        "12541": 117,
        "12542": 125,
        "12543": 199,
        "12544": 109,
        "12545": 28,
        "12546": 227,
        "12547": 54,
        "12548": 140,
        "12549": 89,
        "12550": 157,
        "12551": 228,
        "12552": 99,
        "12553": 15,
        "12554": 44,
        "12555": 2,
        "12556": 207,
        "12557": 76,
        "12558": 11,
        "12559": 244,
        "12560": 158,
        "12561": 37,
        "12562": 98,
        "12563": 134,
        "12564": 121,
        "12565": 46,
        "12566": 127,
        "12567": 99,
        "12568": 10,
        "12569": 131,
        "12570": 147,
        "12571": 96,
        "12572": 78,
        "12573": 248,
        "12574": 74,
        "12575": 117,
        "12576": 75,
        "12577": 2,
        "12578": 153,
        "12579": 21,
        "12580": 222,
        "12581": 93,
        "12582": 89,
        "12583": 229,
        "12584": 133,
        "12585": 253,
        "12586": 191,
        "12587": 238,
        "12588": 189,
        "12589": 151,
        "12590": 161,
        "12591": 22,
        "12592": 170,
        "12593": 15,
        "12594": 95,
        "12595": 193,
        "12596": 101,
        "12597": 91,
        "12598": 182,
        "12599": 104,
        "12600": 38,
        "12601": 100,
        "12602": 106,
        "12603": 201,
        "12604": 48,
        "12605": 22,
        "12606": 44,
        "12607": 4,
        "12608": 2,
        "12609": 124,
        "12610": 151,
        "12611": 15,
        "12612": 18,
        "12613": 80,
        "12614": 138,
        "12615": 31,
        "12616": 13,
        "12617": 190,
        "12618": 108,
        "12619": 173,
        "12620": 82,
        "12621": 41,
        "12622": 25,
        "12623": 63,
        "12624": 220,
        "12625": 160,
        "12626": 169,
        "12627": 252,
        "12628": 196,
        "12629": 135,
        "12630": 47,
        "12631": 12,
        "12632": 101,
        "12633": 193,
        "12634": 9,
        "12635": 174,
        "12636": 239,
        "12637": 190,
        "12638": 166,
        "12639": 138,
        "12640": 126,
        "12641": 94,
        "12642": 254,
        "12643": 205,
        "12644": 211,
        "12645": 72,
        "12646": 17,
        "12647": 205,
        "12648": 179,
        "12649": 55,
        "12650": 207,
        "12651": 96,
        "12652": 253,
        "12653": 246,
        "12654": 110,
        "12655": 3,
        "12656": 233,
        "12657": 178,
        "12658": 150,
        "12659": 70,
        "12660": 72,
        "12661": 253,
        "12662": 227,
        "12663": 177,
        "12664": 174,
        "12665": 121,
        "12666": 193,
        "12667": 235,
        "12668": 65,
        "12669": 220,
        "12670": 82,
        "12671": 170,
        "12672": 105,
        "12673": 156,
        "12674": 88,
        "12675": 252,
        "12676": 41,
        "12677": 250,
        "12678": 220,
        "12679": 86,
        "12680": 41,
        "12681": 68,
        "12682": 125,
        "12683": 99,
        "12684": 63,
        "12685": 161,
        "12686": 241,
        "12687": 111,
        "12688": 165,
        "12689": 51,
        "12690": 72,
        "12691": 53,
        "12692": 98,
        "12693": 212,
        "12694": 3,
        "12695": 13,
        "12696": 101,
        "12697": 43,
        "12698": 50,
        "12699": 210,
        "12700": 233,
        "12701": 235,
        "12702": 250,
        "12703": 130,
        "12704": 181,
        "12705": 55,
        "12706": 175,
        "12707": 190,
        "12708": 42,
        "12709": 239,
        "12710": 20,
        "12711": 248,
        "12712": 18,
        "12713": 65,
        "12714": 255,
        "12715": 143,
        "12716": 132,
        "12717": 150,
        "12718": 170,
        "12719": 221,
        "12720": 134,
        "12721": 227,
        "12722": 191,
        "12723": 114,
        "12724": 231,
        "12725": 195,
        "12726": 254,
        "12727": 72,
        "12728": 137,
        "12729": 251,
        "12730": 231,
        "12731": 145,
        "12732": 244,
        "12733": 111,
        "12734": 162,
        "12735": 170,
        "12736": 155,
        "12737": 219,
        "12738": 7,
        "12739": 110,
        "12740": 108,
        "12741": 164,
        "12742": 72,
        "12743": 33,
        "12744": 93,
        "12745": 87,
        "12746": 184,
        "12747": 190,
        "12748": 57,
        "12749": 80,
        "12750": 147,
        "12751": 20,
        "12752": 12,
        "12753": 131,
        "12754": 227,
        "12755": 189,
        "12756": 196,
        "12757": 154,
        "12758": 74,
        "12759": 213,
        "12760": 255,
        "12761": 219,
        "12762": 84,
        "12763": 147,
        "12764": 45,
        "12765": 134,
        "12766": 250,
        "12767": 93,
        "12768": 11,
        "12769": 94,
        "12770": 228,
        "12771": 93,
        "12772": 217,
        "12773": 69,
        "12774": 210,
        "12775": 165,
        "12776": 159,
        "12777": 190,
        "12778": 111,
        "12779": 137,
        "12780": 15,
        "12781": 229,
        "12782": 57,
        "12783": 10,
        "12784": 65,
        "12785": 202,
        "12786": 29,
        "12787": 62,
        "12788": 178,
        "12789": 83,
        "12790": 242,
        "12791": 179,
        "12792": 101,
        "12793": 225,
        "12794": 149,
        "12795": 98,
        "12796": 209,
        "12797": 125,
        "12798": 60,
        "12799": 143,
        "12800": 46,
        "12801": 30,
        "12802": 77,
        "12803": 48,
        "12804": 84,
        "12805": 254,
        "12806": 56,
        "12807": 57,
        "12808": 77,
        "12809": 144,
        "12810": 138,
        "12811": 83,
        "12812": 18,
        "12813": 122,
        "12814": 83,
        "12815": 227,
        "12816": 253,
        "12817": 230,
        "12818": 222,
        "12819": 105,
        "12820": 182,
        "12821": 224,
        "12822": 207,
        "12823": 15,
        "12824": 101,
        "12825": 93,
        "12826": 162,
        "12827": 241,
        "12828": 211,
        "12829": 219,
        "12830": 218,
        "12831": 216,
        "12832": 165,
        "12833": 139,
        "12834": 153,
        "12835": 62,
        "12836": 140,
        "12837": 125,
        "12838": 197,
        "12839": 188,
        "12840": 166,
        "12841": 230,
        "12842": 126,
        "12843": 20,
        "12844": 70,
        "12845": 15,
        "12846": 8,
        "12847": 0,
        "12848": 10,
        "12849": 130,
        "12850": 104,
        "12851": 222,
        "12852": 209,
        "12853": 174,
        "12854": 71,
        "12855": 237,
        "12856": 206,
        "12857": 18,
        "12858": 139,
        "12859": 85,
        "12860": 99,
        "12861": 106,
        "12862": 227,
        "12863": 187,
        "12864": 99,
        "12865": 104,
        "12866": 23,
        "12867": 100,
        "12868": 234,
        "12869": 86,
        "12870": 7,
        "12871": 152,
        "12872": 102,
        "12873": 240,
        "12874": 190,
        "12875": 249,
        "12876": 100,
        "12877": 44,
        "12878": 138,
        "12879": 144,
        "12880": 85,
        "12881": 111,
        "12882": 119,
        "12883": 94,
        "12884": 50,
        "12885": 65,
        "12886": 157,
        "12887": 93,
        "12888": 144,
        "12889": 94,
        "12890": 232,
        "12891": 15,
        "12892": 224,
        "12893": 167,
        "12894": 50,
        "12895": 48,
        "12896": 24,
        "12897": 64,
        "12898": 52,
        "12899": 224,
        "12900": 79,
        "12901": 241,
        "12902": 228,
        "12903": 2,
        "12904": 103,
        "12905": 253,
        "12906": 64,
        "12907": 145,
        "12908": 28,
        "12909": 68,
        "12910": 144,
        "12911": 239,
        "12912": 108,
        "12913": 227,
        "12914": 72,
        "12915": 222,
        "12916": 3,
        "12917": 225,
        "12918": 250,
        "12919": 241,
        "12920": 191,
        "12921": 176,
        "12922": 7,
        "12923": 51,
        "12924": 20,
        "12925": 255,
        "12926": 24,
        "12927": 230,
        "12928": 27,
        "12929": 28,
        "12930": 150,
        "12931": 17,
        "12932": 237,
        "12933": 30,
        "12934": 193,
        "12935": 156,
        "12936": 6,
        "12937": 238,
        "12938": 241,
        "12939": 233,
        "12940": 40,
        "12941": 142,
        "12942": 2,
        "12943": 44,
        "12944": 190,
        "12945": 5,
        "12946": 176,
        "12947": 131,
        "12948": 83,
        "12949": 107,
        "12950": 169,
        "12951": 254,
        "12952": 223,
        "12953": 232,
        "12954": 192,
        "12955": 54,
        "12956": 98,
        "12957": 95,
        "12958": 156,
        "12959": 141,
        "12960": 71,
        "12961": 124,
        "12962": 121,
        "12963": 89,
        "12964": 142,
        "12965": 65,
        "12966": 247,
        "12967": 47,
        "12968": 113,
        "12969": 17,
        "12970": 243,
        "12971": 233,
        "12972": 4,
        "12973": 186,
        "12974": 161,
        "12975": 236,
        "12976": 89,
        "12977": 86,
        "12978": 22,
        "12979": 65,
        "12980": 176,
        "12981": 162,
        "12982": 95,
        "12983": 172,
        "12984": 233,
        "12985": 203,
        "12986": 86,
        "12987": 161,
        "12988": 38,
        "12989": 142,
        "12990": 139,
        "12991": 169,
        "12992": 174,
        "12993": 123,
        "12994": 176,
        "12995": 197,
        "12996": 184,
        "12997": 53,
        "12998": 58,
        "12999": 124,
        "13000": 103,
        "13001": 195,
        "13002": 44,
        "13003": 205,
        "13004": 2,
        "13005": 235,
        "13006": 179,
        "13007": 201,
        "13008": 128,
        "13009": 150,
        "13010": 1,
        "13011": 6,
        "13012": 168,
        "13013": 141,
        "13014": 156,
        "13015": 220,
        "13016": 226,
        "13017": 47,
        "13018": 107,
        "13019": 24,
        "13020": 231,
        "13021": 140,
        "13022": 10,
        "13023": 4,
        "13024": 131,
        "13025": 136,
        "13026": 254,
        "13027": 109,
        "13028": 97,
        "13029": 48,
        "13030": 143,
        "13031": 146,
        "13032": 1,
        "13033": 81,
        "13034": 28,
        "13035": 117,
        "13036": 3,
        "13037": 42,
        "13038": 217,
        "13039": 31,
        "13040": 91,
        "13041": 215,
        "13042": 20,
        "13043": 77,
        "13044": 57,
        "13045": 32,
        "13046": 7,
        "13047": 161,
        "13048": 146,
        "13049": 66,
        "13050": 85,
        "13051": 159,
        "13052": 37,
        "13053": 239,
        "13054": 165,
        "13055": 67,
        "13056": 244,
        "13057": 67,
        "13058": 232,
        "13059": 228,
        "13060": 225,
        "13061": 223,
        "13062": 125,
        "13063": 112,
        "13064": 138,
        "13065": 21,
        "13066": 246,
        "13067": 239,
        "13068": 240,
        "13069": 17,
        "13070": 183,
        "13071": 209,
        "13072": 171,
        "13073": 141,
        "13074": 53,
        "13075": 246,
        "13076": 221,
        "13077": 133,
        "13078": 108,
        "13079": 234,
        "13080": 17,
        "13081": 135,
        "13082": 134,
        "13083": 211,
        "13084": 165,
        "13085": 209,
        "13086": 215,
        "13087": 221,
        "13088": 43,
        "13089": 43,
        "13090": 138,
        "13091": 211,
        "13092": 89,
        "13093": 193,
        "13094": 52,
        "13095": 79,
        "13096": 149,
        "13097": 173,
        "13098": 170,
        "13099": 80,
        "13100": 179,
        "13101": 157,
        "13102": 192,
        "13103": 42,
        "13104": 237,
        "13105": 101,
        "13106": 223,
        "13107": 84,
        "13108": 81,
        "13109": 229,
        "13110": 51,
        "13111": 87,
        "13112": 173,
        "13113": 32,
        "13114": 204,
        "13115": 250,
        "13116": 105,
        "13117": 94,
        "13118": 254,
        "13119": 165,
        "13120": 110,
        "13121": 52,
        "13122": 71,
        "13123": 206,
        "13124": 243,
        "13125": 22,
        "13126": 131,
        "13127": 225,
        "13128": 78,
        "13129": 10,
        "13130": 29,
        "13131": 19,
        "13132": 166,
        "13133": 72,
        "13134": 136,
        "13135": 42,
        "13136": 65,
        "13137": 221,
        "13138": 175,
        "13139": 149,
        "13140": 71,
        "13141": 204,
        "13142": 91,
        "13143": 243,
        "13144": 32,
        "13145": 92,
        "13146": 220,
        "13147": 201,
        "13148": 183,
        "13149": 41,
        "13150": 169,
        "13151": 1,
        "13152": 191,
        "13153": 30,
        "13154": 216,
        "13155": 108,
        "13156": 220,
        "13157": 7,
        "13158": 153,
        "13159": 219,
        "13160": 47,
        "13161": 0,
        "13162": 243,
        "13163": 69,
        "13164": 246,
        "13165": 58,
        "13166": 2,
        "13167": 95,
        "13168": 252,
        "13169": 180,
        "13170": 191,
        "13171": 252,
        "13172": 50,
        "13173": 212,
        "13174": 246,
        "13175": 158,
        "13176": 138,
        "13177": 62,
        "13178": 41,
        "13179": 190,
        "13180": 70,
        "13181": 85,
        "13182": 26,
        "13183": 189,
        "13184": 17,
        "13185": 230,
        "13186": 84,
        "13187": 214,
        "13188": 215,
        "13189": 96,
        "13190": 114,
        "13191": 225,
        "13192": 96,
        "13193": 67,
        "13194": 195,
        "13195": 97,
        "13196": 138,
        "13197": 187,
        "13198": 143,
        "13199": 29,
        "13200": 173,
        "13201": 78,
        "13202": 166,
        "13203": 12,
        "13204": 38,
        "13205": 22,
        "13206": 133,
        "13207": 246,
        "13208": 206,
        "13209": 27,
        "13210": 14,
        "13211": 40,
        "13212": 178,
        "13213": 239,
        "13214": 234,
        "13215": 15,
        "13216": 141,
        "13217": 60,
        "13218": 82,
        "13219": 2,
        "13220": 176,
        "13221": 125,
        "13222": 8,
        "13223": 69,
        "13224": 151,
        "13225": 57,
        "13226": 59,
        "13227": 201,
        "13228": 148,
        "13229": 180,
        "13230": 187,
        "13231": 153,
        "13232": 156,
        "13233": 226,
        "13234": 228,
        "13235": 65,
        "13236": 249,
        "13237": 119,
        "13238": 64,
        "13239": 53,
        "13240": 180,
        "13241": 54,
        "13242": 73,
        "13243": 7,
        "13244": 164,
        "13245": 216,
        "13246": 126,
        "13247": 2,
        "13248": 23,
        "13249": 13,
        "13250": 134,
        "13251": 244,
        "13252": 117,
        "13253": 80,
        "13254": 142,
        "13255": 176,
        "13256": 50,
        "13257": 82,
        "13258": 94,
        "13259": 147,
        "13260": 213,
        "13261": 246,
        "13262": 17,
        "13263": 157,
        "13264": 218,
        "13265": 20,
        "13266": 41,
        "13267": 66,
        "13268": 191,
        "13269": 189,
        "13270": 97,
        "13271": 99,
        "13272": 95,
        "13273": 221,
        "13274": 33,
        "13275": 181,
        "13276": 134,
        "13277": 114,
        "13278": 165,
        "13279": 50,
        "13280": 107,
        "13281": 186,
        "13282": 217,
        "13283": 95,
        "13284": 7,
        "13285": 243,
        "13286": 27,
        "13287": 163,
        "13288": 199,
        "13289": 226,
        "13290": 238,
        "13291": 141,
        "13292": 222,
        "13293": 76,
        "13294": 0,
        "13295": 26,
        "13296": 148,
        "13297": 8,
        "13298": 234,
        "13299": 40,
        "13300": 176,
        "13301": 163,
        "13302": 229,
        "13303": 179,
        "13304": 130,
        "13305": 79,
        "13306": 28,
        "13307": 171,
        "13308": 247,
        "13309": 70,
        "13310": 196,
        "13311": 53,
        "13312": 211,
        "13313": 122,
        "13314": 183,
        "13315": 87,
        "13316": 53,
        "13317": 254,
        "13318": 83,
        "13319": 57,
        "13320": 91,
        "13321": 214,
        "13322": 76,
        "13323": 214,
        "13324": 83,
        "13325": 182,
        "13326": 159,
        "13327": 109,
        "13328": 101,
        "13329": 195,
        "13330": 230,
        "13331": 46,
        "13332": 223,
        "13333": 130,
        "13334": 163,
        "13335": 174,
        "13336": 186,
        "13337": 26,
        "13338": 156,
        "13339": 50,
        "13340": 219,
        "13341": 38,
        "13342": 20,
        "13343": 214,
        "13344": 122,
        "13345": 56,
        "13346": 27,
        "13347": 50,
        "13348": 127,
        "13349": 88,
        "13350": 211,
        "13351": 167,
        "13352": 2,
        "13353": 151,
        "13354": 126,
        "13355": 160,
        "13356": 138,
        "13357": 221,
        "13358": 238,
        "13359": 126,
        "13360": 156,
        "13361": 15,
        "13362": 113,
        "13363": 224,
        "13364": 6,
        "13365": 157,
        "13366": 234,
        "13367": 240,
        "13368": 187,
        "13369": 178,
        "13370": 239,
        "13371": 156,
        "13372": 163,
        "13373": 72,
        "13374": 221,
        "13375": 66,
        "13376": 229,
        "13377": 249,
        "13378": 65,
        "13379": 47,
        "13380": 78,
        "13381": 163,
        "13382": 113,
        "13383": 197,
        "13384": 47,
        "13385": 122,
        "13386": 104,
        "13387": 78,
        "13388": 235,
        "13389": 148,
        "13390": 61,
        "13391": 1,
        "13392": 92,
        "13393": 184,
        "13394": 58,
        "13395": 38,
        "13396": 212,
        "13397": 248,
        "13398": 217,
        "13399": 33,
        "13400": 250,
        "13401": 182,
        "13402": 248,
        "13403": 220,
        "13404": 13,
        "13405": 77,
        "13406": 36,
        "13407": 62,
        "13408": 205,
        "13409": 103,
        "13410": 250,
        "13411": 49,
        "13412": 111,
        "13413": 28,
        "13414": 188,
        "13415": 222,
        "13416": 194,
        "13417": 193,
        "13418": 25,
        "13419": 12,
        "13420": 226,
        "13421": 8,
        "13422": 52,
        "13423": 105,
        "13424": 51,
        "13425": 120,
        "13426": 5,
        "13427": 226,
        "13428": 32,
        "13429": 117,
        "13430": 188,
        "13431": 168,
        "13432": 152,
        "13433": 60,
        "13434": 182,
        "13435": 10,
        "13436": 89,
        "13437": 16,
        "13438": 165,
        "13439": 229,
        "13440": 119,
        "13441": 148,
        "13442": 37,
        "13443": 170,
        "13444": 194,
        "13445": 13,
        "13446": 67,
        "13447": 229,
        "13448": 236,
        "13449": 59,
        "13450": 198,
        "13451": 220,
        "13452": 4,
        "13453": 35,
        "13454": 215,
        "13455": 92,
        "13456": 37,
        "13457": 139,
        "13458": 73,
        "13459": 147,
        "13460": 45,
        "13461": 179,
        "13462": 249,
        "13463": 112,
        "13464": 241,
        "13465": 10,
        "13466": 145,
        "13467": 187,
        "13468": 178,
        "13469": 98,
        "13470": 115,
        "13471": 228,
        "13472": 122,
        "13473": 114,
        "13474": 251,
        "13475": 8,
        "13476": 141,
        "13477": 110,
        "13478": 138,
        "13479": 63,
        "13480": 37,
        "13481": 206,
        "13482": 195,
        "13483": 6,
        "13484": 116,
        "13485": 189,
        "13486": 166,
        "13487": 3,
        "13488": 185,
        "13489": 164,
        "13490": 94,
        "13491": 25,
        "13492": 14,
        "13493": 22,
        "13494": 98,
        "13495": 164,
        "13496": 210,
        "13497": 179,
        "13498": 159,
        "13499": 21,
        "13500": 145,
        "13501": 61,
        "13502": 162,
        "13503": 20,
        "13504": 148,
        "13505": 126,
        "13506": 36,
        "13507": 187,
        "13508": 172,
        "13509": 152,
        "13510": 93,
        "13511": 70,
        "13512": 46,
        "13513": 30,
        "13514": 149,
        "13515": 236,
        "13516": 217,
        "13517": 119,
        "13518": 237,
        "13519": 169,
        "13520": 214,
        "13521": 43,
        "13522": 52,
        "13523": 154,
        "13524": 80,
        "13525": 42,
        "13526": 229,
        "13527": 55,
        "13528": 142,
        "13529": 15,
        "13530": 113,
        "13531": 204,
        "13532": 142,
        "13533": 116,
        "13534": 249,
        "13535": 99,
        "13536": 131,
        "13537": 185,
        "13538": 44,
        "13539": 95,
        "13540": 152,
        "13541": 174,
        "13542": 235,
        "13543": 42,
        "13544": 173,
        "13545": 141,
        "13546": 13,
        "13547": 118,
        "13548": 224,
        "13549": 208,
        "13550": 3,
        "13551": 148,
        "13552": 195,
        "13553": 116,
        "13554": 230,
        "13555": 245,
        "13556": 38,
        "13557": 25,
        "13558": 187,
        "13559": 37,
        "13560": 231,
        "13561": 98,
        "13562": 34,
        "13563": 93,
        "13564": 26,
        "13565": 140,
        "13566": 188,
        "13567": 207,
        "13568": 75,
        "13569": 37,
        "13570": 125,
        "13571": 107,
        "13572": 120,
        "13573": 112,
        "13574": 36,
        "13575": 134,
        "13576": 210,
        "13577": 212,
        "13578": 53,
        "13579": 178,
        "13580": 239,
        "13581": 215,
        "13582": 111,
        "13583": 111,
        "13584": 251,
        "13585": 82,
        "13586": 199,
        "13587": 76,
        "13588": 111,
        "13589": 174,
        "13590": 236,
        "13591": 150,
        "13592": 103,
        "13593": 208,
        "13594": 16,
        "13595": 50,
        "13596": 26,
        "13597": 118,
        "13598": 42,
        "13599": 252,
        "13600": 169,
        "13601": 80,
        "13602": 146,
        "13603": 238,
        "13604": 233,
        "13605": 21,
        "13606": 91,
        "13607": 239,
        "13608": 215,
        "13609": 1,
        "13610": 4,
        "13611": 163,
        "13612": 125,
        "13613": 118,
        "13614": 156,
        "13615": 228,
        "13616": 85,
        "13617": 49,
        "13618": 64,
        "13619": 52,
        "13620": 16,
        "13621": 126,
        "13622": 215,
        "13623": 201,
        "13624": 31,
        "13625": 63,
        "13626": 83,
        "13627": 203,
        "13628": 47,
        "13629": 17,
        "13630": 31,
        "13631": 59,
        "13632": 128,
        "13633": 235,
        "13634": 86,
        "13635": 34,
        "13636": 240,
        "13637": 50,
        "13638": 67,
        "13639": 120,
        "13640": 34,
        "13641": 216,
        "13642": 112,
        "13643": 85,
        "13644": 217,
        "13645": 61,
        "13646": 43,
        "13647": 220,
        "13648": 162,
        "13649": 106,
        "13650": 139,
        "13651": 130,
        "13652": 61,
        "13653": 23,
        "13654": 19,
        "13655": 134,
        "13656": 192,
        "13657": 14,
        "13658": 157,
        "13659": 115,
        "13660": 61,
        "13661": 213,
        "13662": 206,
        "13663": 205,
        "13664": 85,
        "13665": 216,
        "13666": 218,
        "13667": 96,
        "13668": 165,
        "13669": 212,
        "13670": 78,
        "13671": 215,
        "13672": 109,
        "13673": 94,
        "13674": 151,
        "13675": 33,
        "13676": 107,
        "13677": 99,
        "13678": 156,
        "13679": 151,
        "13680": 173,
        "13681": 182,
        "13682": 56,
        "13683": 20,
        "13684": 30,
        "13685": 113,
        "13686": 10,
        "13687": 140,
        "13688": 50,
        "13689": 116,
        "13690": 30,
        "13691": 238,
        "13692": 46,
        "13693": 240,
        "13694": 149,
        "13695": 210,
        "13696": 87,
        "13697": 62,
        "13698": 74,
        "13699": 137,
        "13700": 176,
        "13701": 151,
        "13702": 45,
        "13703": 255,
        "13704": 79,
        "13705": 149,
        "13706": 152,
        "13707": 55,
        "13708": 214,
        "13709": 209,
        "13710": 72,
        "13711": 49,
        "13712": 216,
        "13713": 119,
        "13714": 162,
        "13715": 130,
        "13716": 171,
        "13717": 85,
        "13718": 138,
        "13719": 6,
        "13720": 189,
        "13721": 102,
        "13722": 13,
        "13723": 129,
        "13724": 165,
        "13725": 155,
        "13726": 251,
        "13727": 188,
        "13728": 237,
        "13729": 31,
        "13730": 49,
        "13731": 27,
        "13732": 45,
        "13733": 176,
        "13734": 155,
        "13735": 86,
        "13736": 148,
        "13737": 104,
        "13738": 39,
        "13739": 76,
        "13740": 27,
        "13741": 240,
        "13742": 32,
        "13743": 189,
        "13744": 198,
        "13745": 114,
        "13746": 232,
        "13747": 149,
        "13748": 203,
        "13749": 93,
        "13750": 214,
        "13751": 229,
        "13752": 33,
        "13753": 44,
        "13754": 17,
        "13755": 18,
        "13756": 173,
        "13757": 172,
        "13758": 74,
        "13759": 93,
        "13760": 114,
        "13761": 0,
        "13762": 106,
        "13763": 39,
        "13764": 69,
        "13765": 173,
        "13766": 255,
        "13767": 110,
        "13768": 110,
        "13769": 71,
        "13770": 247,
        "13771": 65,
        "13772": 67,
        "13773": 228,
        "13774": 238,
        "13775": 231,
        "13776": 147,
        "13777": 126,
        "13778": 15,
        "13779": 142,
        "13780": 244,
        "13781": 63,
        "13782": 127,
        "13783": 252,
        "13784": 151,
        "13785": 31,
        "13786": 64,
        "13787": 114,
        "13788": 125,
        "13789": 133,
        "13790": 28,
        "13791": 230,
        "13792": 149,
        "13793": 184,
        "13794": 223,
        "13795": 107,
        "13796": 106,
        "13797": 57,
        "13798": 152,
        "13799": 100,
        "13800": 190,
        "13801": 160,
        "13802": 184,
        "13803": 116,
        "13804": 42,
        "13805": 135,
        "13806": 62,
        "13807": 69,
        "13808": 33,
        "13809": 22,
        "13810": 123,
        "13811": 156,
        "13812": 72,
        "13813": 139,
        "13814": 242,
        "13815": 137,
        "13816": 156,
        "13817": 136,
        "13818": 155,
        "13819": 187,
        "13820": 216,
        "13821": 255,
        "13822": 153,
        "13823": 75,
        "13824": 175,
        "13825": 177,
        "13826": 253,
        "13827": 53,
        "13828": 32,
        "13829": 248,
        "13830": 116,
        "13831": 190,
        "13832": 3,
        "13833": 207,
        "13834": 234,
        "13835": 89,
        "13836": 37,
        "13837": 97,
        "13838": 217,
        "13839": 252,
        "13840": 104,
        "13841": 64,
        "13842": 241,
        "13843": 65,
        "13844": 122,
        "13845": 111,
        "13846": 247,
        "13847": 62,
        "13848": 110,
        "13849": 48,
        "13850": 255,
        "13851": 237,
        "13852": 51,
        "13853": 107,
        "13854": 241,
        "13855": 219,
        "13856": 56,
        "13857": 186,
        "13858": 196,
        "13859": 237,
        "13860": 90,
        "13861": 204,
        "13862": 25,
        "13863": 250,
        "13864": 47,
        "13865": 47,
        "13866": 177,
        "13867": 195,
        "13868": 172,
        "13869": 185,
        "13870": 235,
        "13871": 211,
        "13872": 170,
        "13873": 83,
        "13874": 29,
        "13875": 109,
        "13876": 112,
        "13877": 198,
        "13878": 254,
        "13879": 157,
        "13880": 73,
        "13881": 114,
        "13882": 157,
        "13883": 109,
        "13884": 97,
        "13885": 128,
        "13886": 165,
        "13887": 84,
        "13888": 123,
        "13889": 193,
        "13890": 118,
        "13891": 151,
        "13892": 55,
        "13893": 84,
        "13894": 37,
        "13895": 123,
        "13896": 207,
        "13897": 222,
        "13898": 99,
        "13899": 209,
        "13900": 27,
        "13901": 220,
        "13902": 116,
        "13903": 117,
        "13904": 253,
        "13905": 149,
        "13906": 128,
        "13907": 138,
        "13908": 192,
        "13909": 58,
        "13910": 83,
        "13911": 235,
        "13912": 147,
        "13913": 239,
        "13914": 39,
        "13915": 227,
        "13916": 246,
        "13917": 213,
        "13918": 244,
        "13919": 124,
        "13920": 225,
        "13921": 52,
        "13922": 104,
        "13923": 176,
        "13924": 23,
        "13925": 246,
        "13926": 153,
        "13927": 190,
        "13928": 170,
        "13929": 227,
        "13930": 87,
        "13931": 86,
        "13932": 107,
        "13933": 105,
        "13934": 192,
        "13935": 38,
        "13936": 137,
        "13937": 156,
        "13938": 42,
        "13939": 125,
        "13940": 51,
        "13941": 159,
        "13942": 13,
        "13943": 127,
        "13944": 211,
        "13945": 37,
        "13946": 123,
        "13947": 122,
        "13948": 247,
        "13949": 163,
        "13950": 71,
        "13951": 10,
        "13952": 246,
        "13953": 15,
        "13954": 235,
        "13955": 2,
        "13956": 206,
        "13957": 2,
        "13958": 97,
        "13959": 5,
        "13960": 11,
        "13961": 222,
        "13962": 60,
        "13963": 34,
        "13964": 187,
        "13965": 86,
        "13966": 110,
        "13967": 51,
        "13968": 252,
        "13969": 233,
        "13970": 13,
        "13971": 211,
        "13972": 41,
        "13973": 188,
        "13974": 93,
        "13975": 119,
        "13976": 124,
        "13977": 63,
        "13978": 198,
        "13979": 211,
        "13980": 118,
        "13981": 154,
        "13982": 148,
        "13983": 33,
        "13984": 160,
        "13985": 162,
        "13986": 121,
        "13987": 121,
        "13988": 196,
        "13989": 143,
        "13990": 49,
        "13991": 24,
        "13992": 235,
        "13993": 61,
        "13994": 7,
        "13995": 186,
        "13996": 65,
        "13997": 7,
        "13998": 148,
        "13999": 147,
        "14000": 43,
        "14001": 160,
        "14002": 213,
        "14003": 13,
        "14004": 69,
        "14005": 52,
        "14006": 160,
        "14007": 225,
        "14008": 218,
        "14009": 156,
        "14010": 109,
        "14011": 173,
        "14012": 128,
        "14013": 0,
        "14014": 80,
        "14015": 177,
        "14016": 82,
        "14017": 6,
        "14018": 136,
        "14019": 151,
        "14020": 206,
        "14021": 210,
        "14022": 42,
        "14023": 217,
        "14024": 221,
        "14025": 69,
        "14026": 152,
        "14027": 191,
        "14028": 231,
        "14029": 62,
        "14030": 206,
        "14031": 149,
        "14032": 219,
        "14033": 239,
        "14034": 22,
        "14035": 153,
        "14036": 149,
        "14037": 16,
        "14038": 179,
        "14039": 113,
        "14040": 195,
        "14041": 140,
        "14042": 129,
        "14043": 121,
        "14044": 53,
        "14045": 237,
        "14046": 139,
        "14047": 174,
        "14048": 239,
        "14049": 113,
        "14050": 110,
        "14051": 60,
        "14052": 240,
        "14053": 57,
        "14054": 112,
        "14055": 20,
        "14056": 144,
        "14057": 112,
        "14058": 5,
        "14059": 207,
        "14060": 58,
        "14061": 112,
        "14062": 28,
        "14063": 138,
        "14064": 220,
        "14065": 113,
        "14066": 81,
        "14067": 218,
        "14068": 123,
        "14069": 33,
        "14070": 231,
        "14071": 146,
        "14072": 185,
        "14073": 80,
        "14074": 199,
        "14075": 176,
        "14076": 210,
        "14077": 237,
        "14078": 244,
        "14079": 164,
        "14080": 55,
        "14081": 58,
        "14082": 22,
        "14083": 229,
        "14084": 244,
        "14085": 26,
        "14086": 104,
        "14087": 25,
        "14088": 237,
        "14089": 51,
        "14090": 139,
        "14091": 45,
        "14092": 226,
        "14093": 148,
        "14094": 252,
        "14095": 96,
        "14096": 161,
        "14097": 50,
        "14098": 245,
        "14099": 41,
        "14100": 204,
        "14101": 191,
        "14102": 41,
        "14103": 156,
        "14104": 113,
        "14105": 237,
        "14106": 188,
        "14107": 251,
        "14108": 43,
        "14109": 240,
        "14110": 117,
        "14111": 140,
        "14112": 97,
        "14113": 224,
        "14114": 171,
        "14115": 173,
        "14116": 67,
        "14117": 90,
        "14118": 107,
        "14119": 72,
        "14120": 106,
        "14121": 74,
        "14122": 117,
        "14123": 185,
        "14124": 154,
        "14125": 103,
        "14126": 55,
        "14127": 67,
        "14128": 192,
        "14129": 155,
        "14130": 46,
        "14131": 133,
        "14132": 207,
        "14133": 33,
        "14134": 2,
        "14135": 160,
        "14136": 111,
        "14137": 245,
        "14138": 157,
        "14139": 88,
        "14140": 132,
        "14141": 98,
        "14142": 1,
        "14143": 118,
        "14144": 142,
        "14145": 220,
        "14146": 105,
        "14147": 186,
        "14148": 126,
        "14149": 20,
        "14150": 58,
        "14151": 0,
        "14152": 202,
        "14153": 128,
        "14154": 129,
        "14155": 244,
        "14156": 149,
        "14157": 39,
        "14158": 79,
        "14159": 95,
        "14160": 167,
        "14161": 176,
        "14162": 61,
        "14163": 63,
        "14164": 178,
        "14165": 84,
        "14166": 190,
        "14167": 177,
        "14168": 160,
        "14169": 47,
        "14170": 162,
        "14171": 253,
        "14172": 91,
        "14173": 203,
        "14174": 6,
        "14175": 106,
        "14176": 47,
        "14177": 195,
        "14178": 231,
        "14179": 37,
        "14180": 71,
        "14181": 128,
        "14182": 28,
        "14183": 27,
        "14184": 191,
        "14185": 216,
        "14186": 136,
        "14187": 162,
        "14188": 130,
        "14189": 249,
        "14190": 171,
        "14191": 157,
        "14192": 128,
        "14193": 86,
        "14194": 1,
        "14195": 161,
        "14196": 75,
        "14197": 138,
        "14198": 108,
        "14199": 21,
        "14200": 105,
        "14201": 65,
        "14202": 49,
        "14203": 90,
        "14204": 129,
        "14205": 28,
        "14206": 92,
        "14207": 243,
        "14208": 78,
        "14209": 212,
        "14210": 199,
        "14211": 200,
        "14212": 167,
        "14213": 46,
        "14214": 205,
        "14215": 193,
        "14216": 151,
        "14217": 115,
        "14218": 243,
        "14219": 108,
        "14220": 163,
        "14221": 4,
        "14222": 204,
        "14223": 225,
        "14224": 203,
        "14225": 35,
        "14226": 136,
        "14227": 44,
        "14228": 13,
        "14229": 126,
        "14230": 162,
        "14231": 253,
        "14232": 68,
        "14233": 155,
        "14234": 157,
        "14235": 145,
        "14236": 177,
        "14237": 90,
        "14238": 61,
        "14239": 11,
        "14240": 23,
        "14241": 252,
        "14242": 213,
        "14243": 83,
        "14244": 2,
        "14245": 148,
        "14246": 12,
        "14247": 82,
        "14248": 48,
        "14249": 86,
        "14250": 106,
        "14251": 9,
        "14252": 168,
        "14253": 74,
        "14254": 15,
        "14255": 74,
        "14256": 140,
        "14257": 63,
        "14258": 252,
        "14259": 97,
        "14260": 139,
        "14261": 217,
        "14262": 49,
        "14263": 233,
        "14264": 11,
        "14265": 246,
        "14266": 40,
        "14267": 80,
        "14268": 161,
        "14269": 49,
        "14270": 213,
        "14271": 82,
        "14272": 195,
        "14273": 63,
        "14274": 176,
        "14275": 228,
        "14276": 67,
        "14277": 61,
        "14278": 172,
        "14279": 209,
        "14280": 254,
        "14281": 85,
        "14282": 253,
        "14283": 101,
        "14284": 67,
        "14285": 211,
        "14286": 172,
        "14287": 76,
        "14288": 196,
        "14289": 149,
        "14290": 8,
        "14291": 254,
        "14292": 63,
        "14293": 26,
        "14294": 97,
        "14295": 137,
        "14296": 213,
        "14297": 160,
        "14298": 49,
        "14299": 255,
        "14300": 203,
        "14301": 100,
        "14302": 202,
        "14303": 63,
        "14304": 228,
        "14305": 219,
        "14306": 129,
        "14307": 39,
        "14308": 11,
        "14309": 43,
        "14310": 23,
        "14311": 164,
        "14312": 108,
        "14313": 25,
        "14314": 237,
        "14315": 100,
        "14316": 106,
        "14317": 119,
        "14318": 188,
        "14319": 208,
        "14320": 163,
        "14321": 147,
        "14322": 149,
        "14323": 206,
        "14324": 83,
        "14325": 20,
        "14326": 104,
        "14327": 127,
        "14328": 116,
        "14329": 171,
        "14330": 220,
        "14331": 217,
        "14332": 38,
        "14333": 63,
        "14334": 62,
        "14335": 65,
        "14336": 110,
        "14337": 85,
        "14338": 18,
        "14339": 35,
        "14340": 41,
        "14341": 145,
        "14342": 127,
        "14343": 81,
        "14344": 49,
        "14345": 8,
        "14346": 161,
        "14347": 125,
        "14348": 43,
        "14349": 68,
        "14350": 127,
        "14351": 161,
        "14352": 60,
        "14353": 186,
        "14354": 159,
        "14355": 244,
        "14356": 175,
        "14357": 45,
        "14358": 252,
        "14359": 87,
        "14360": 188,
        "14361": 41,
        "14362": 1,
        "14363": 195,
        "14364": 68,
        "14365": 235,
        "14366": 50,
        "14367": 102,
        "14368": 123,
        "14369": 247,
        "14370": 147,
        "14371": 60,
        "14372": 181,
        "14373": 245,
        "14374": 169,
        "14375": 224,
        "14376": 209,
        "14377": 83,
        "14378": 107,
        "14379": 126,
        "14380": 142,
        "14381": 171,
        "14382": 145,
        "14383": 13,
        "14384": 4,
        "14385": 144,
        "14386": 35,
        "14387": 220,
        "14388": 64,
        "14389": 158,
        "14390": 51,
        "14391": 140,
        "14392": 247,
        "14393": 215,
        "14394": 151,
        "14395": 99,
        "14396": 99,
        "14397": 190,
        "14398": 50,
        "14399": 13,
        "14400": 123,
        "14401": 72,
        "14402": 2,
        "14403": 33,
        "14404": 7,
        "14405": 85,
        "14406": 247,
        "14407": 2,
        "14408": 171,
        "14409": 229,
        "14410": 140,
        "14411": 215,
        "14412": 166,
        "14413": 125,
        "14414": 125,
        "14415": 179,
        "14416": 108,
        "14417": 4,
        "14418": 101,
        "14419": 173,
        "14420": 142,
        "14421": 99,
        "14422": 71,
        "14423": 217,
        "14424": 219,
        "14425": 141,
        "14426": 162,
        "14427": 21,
        "14428": 47,
        "14429": 173,
        "14430": 64,
        "14431": 220,
        "14432": 53,
        "14433": 229,
        "14434": 210,
        "14435": 172,
        "14436": 81,
        "14437": 226,
        "14438": 139,
        "14439": 196,
        "14440": 214,
        "14441": 131,
        "14442": 143,
        "14443": 171,
        "14444": 241,
        "14445": 95,
        "14446": 113,
        "14447": 212,
        "14448": 111,
        "14449": 15,
        "14450": 166,
        "14451": 48,
        "14452": 223,
        "14453": 49,
        "14454": 90,
        "14455": 92,
        "14456": 231,
        "14457": 189,
        "14458": 44,
        "14459": 133,
        "14460": 138,
        "14461": 78,
        "14462": 36,
        "14463": 197,
        "14464": 230,
        "14465": 71,
        "14466": 157,
        "14467": 43,
        "14468": 242,
        "14469": 77,
        "14470": 42,
        "14471": 84,
        "14472": 176,
        "14473": 150,
        "14474": 102,
        "14475": 55,
        "14476": 117,
        "14477": 123,
        "14478": 163,
        "14479": 106,
        "14480": 43,
        "14481": 46,
        "14482": 43,
        "14483": 82,
        "14484": 6,
        "14485": 211,
        "14486": 25,
        "14487": 79,
        "14488": 140,
        "14489": 29,
        "14490": 54,
        "14491": 16,
        "14492": 24,
        "14493": 70,
        "14494": 203,
        "14495": 231,
        "14496": 115,
        "14497": 127,
        "14498": 129,
        "14499": 192,
        "14500": 27,
        "14501": 70,
        "14502": 49,
        "14503": 87,
        "14504": 7,
        "14505": 163,
        "14506": 39,
        "14507": 36,
        "14508": 114,
        "14509": 162,
        "14510": 51,
        "14511": 74,
        "14512": 22,
        "14513": 238,
        "14514": 132,
        "14515": 198,
        "14516": 19,
        "14517": 105,
        "14518": 237,
        "14519": 252,
        "14520": 54,
        "14521": 217,
        "14522": 250,
        "14523": 124,
        "14524": 180,
        "14525": 72,
        "14526": 90,
        "14527": 124,
        "14528": 28,
        "14529": 173,
        "14530": 122,
        "14531": 4,
        "14532": 150,
        "14533": 170,
        "14534": 170,
        "14535": 8,
        "14536": 165,
        "14537": 184,
        "14538": 224,
        "14539": 9,
        "14540": 74,
        "14541": 88,
        "14542": 165,
        "14543": 34,
        "14544": 30,
        "14545": 27,
        "14546": 1,
        "14547": 21,
        "14548": 214,
        "14549": 32,
        "14550": 17,
        "14551": 193,
        "14552": 14,
        "14553": 180,
        "14554": 141,
        "14555": 89,
        "14556": 30,
        "14557": 244,
        "14558": 92,
        "14559": 187,
        "14560": 114,
        "14561": 132,
        "14562": 172,
        "14563": 252,
        "14564": 115,
        "14565": 202,
        "14566": 190,
        "14567": 65,
        "14568": 78,
        "14569": 30,
        "14570": 129,
        "14571": 41,
        "14572": 130,
        "14573": 137,
        "14574": 208,
        "14575": 173,
        "14576": 31,
        "14577": 254,
        "14578": 127,
        "14579": 55,
        "14580": 126,
        "14581": 203,
        "14582": 82,
        "14583": 117,
        "14584": 167,
        "14585": 249,
        "14586": 206,
        "14587": 2,
        "14588": 157,
        "14589": 107,
        "14590": 16,
        "14591": 123,
        "14592": 93,
        "14593": 145,
        "14594": 63,
        "14595": 57,
        "14596": 112,
        "14597": 83,
        "14598": 201,
        "14599": 221,
        "14600": 141,
        "14601": 230,
        "14602": 240,
        "14603": 16,
        "14604": 236,
        "14605": 191,
        "14606": 176,
        "14607": 123,
        "14608": 159,
        "14609": 139,
        "14610": 190,
        "14611": 108,
        "14612": 117,
        "14613": 33,
        "14614": 105,
        "14615": 159,
        "14616": 235,
        "14617": 78,
        "14618": 108,
        "14619": 20,
        "14620": 139,
        "14621": 75,
        "14622": 71,
        "14623": 95,
        "14624": 20,
        "14625": 141,
        "14626": 126,
        "14627": 54,
        "14628": 206,
        "14629": 39,
        "14630": 106,
        "14631": 46,
        "14632": 220,
        "14633": 45,
        "14634": 109,
        "14635": 95,
        "14636": 176,
        "14637": 129,
        "14638": 179,
        "14639": 143,
        "14640": 186,
        "14641": 166,
        "14642": 253,
        "14643": 79,
        "14644": 126,
        "14645": 89,
        "14646": 44,
        "14647": 248,
        "14648": 67,
        "14649": 48,
        "14650": 156,
        "14651": 174,
        "14652": 201,
        "14653": 46,
        "14654": 27,
        "14655": 54,
        "14656": 127,
        "14657": 193,
        "14658": 47,
        "14659": 150,
        "14660": 6,
        "14661": 207,
        "14662": 8,
        "14663": 124,
        "14664": 147,
        "14665": 0,
        "14666": 151,
        "14667": 191,
        "14668": 159,
        "14669": 94,
        "14670": 23,
        "14671": 106,
        "14672": 145,
        "14673": 169,
        "14674": 89,
        "14675": 193,
        "14676": 169,
        "14677": 139,
        "14678": 249,
        "14679": 96,
        "14680": 11,
        "14681": 202,
        "14682": 7,
        "14683": 40,
        "14684": 128,
        "14685": 129,
        "14686": 172,
        "14687": 72,
        "14688": 91,
        "14689": 254,
        "14690": 242,
        "14691": 245,
        "14692": 202,
        "14693": 16,
        "14694": 76,
        "14695": 46,
        "14696": 68,
        "14697": 81,
        "14698": 60,
        "14699": 225,
        "14700": 94,
        "14701": 84,
        "14702": 7,
        "14703": 254,
        "14704": 67,
        "14705": 255,
        "14706": 195,
        "14707": 125,
        "14708": 52,
        "14709": 93,
        "14710": 152,
        "14711": 117,
        "14712": 126,
        "14713": 174,
        "14714": 191,
        "14715": 218,
        "14716": 142,
        "14717": 4,
        "14718": 218,
        "14719": 175,
        "14720": 118,
        "14721": 172,
        "14722": 194,
        "14723": 45,
        "14724": 184,
        "14725": 109,
        "14726": 6,
        "14727": 135,
        "14728": 115,
        "14729": 38,
        "14730": 168,
        "14731": 215,
        "14732": 11,
        "14733": 230,
        "14734": 244,
        "14735": 37,
        "14736": 36,
        "14737": 233,
        "14738": 15,
        "14739": 47,
        "14740": 131,
        "14741": 5,
        "14742": 177,
        "14743": 3,
        "14744": 228,
        "14745": 242,
        "14746": 111,
        "14747": 157,
        "14748": 53,
        "14749": 223,
        "14750": 246,
        "14751": 228,
        "14752": 101,
        "14753": 107,
        "14754": 107,
        "14755": 50,
        "14756": 226,
        "14757": 22,
        "14758": 212,
        "14759": 12,
        "14760": 31,
        "14761": 244,
        "14762": 30,
        "14763": 54,
        "14764": 90,
        "14765": 231,
        "14766": 164,
        "14767": 49,
        "14768": 1,
        "14769": 80,
        "14770": 45,
        "14771": 247,
        "14772": 86,
        "14773": 205,
        "14774": 111,
        "14775": 228,
        "14776": 161,
        "14777": 42,
        "14778": 76,
        "14779": 222,
        "14780": 35,
        "14781": 210,
        "14782": 40,
        "14783": 235,
        "14784": 235,
        "14785": 207,
        "14786": 198,
        "14787": 192,
        "14788": 229,
        "14789": 116,
        "14790": 119,
        "14791": 175,
        "14792": 49,
        "14793": 176,
        "14794": 141,
        "14795": 252,
        "14796": 54,
        "14797": 124,
        "14798": 140,
        "14799": 51,
        "14800": 63,
        "14801": 142,
        "14802": 158,
        "14803": 231,
        "14804": 30,
        "14805": 83,
        "14806": 238,
        "14807": 146,
        "14808": 211,
        "14809": 38,
        "14810": 10,
        "14811": 93,
        "14812": 147,
        "14813": 208,
        "14814": 35,
        "14815": 162,
        "14816": 101,
        "14817": 3,
        "14818": 250,
        "14819": 131,
        "14820": 246,
        "14821": 149,
        "14822": 31,
        "14823": 148,
        "14824": 94,
        "14825": 102,
        "14826": 207,
        "14827": 66,
        "14828": 212,
        "14829": 64,
        "14830": 59,
        "14831": 234,
        "14832": 61,
        "14833": 99,
        "14834": 243,
        "14835": 131,
        "14836": 232,
        "14837": 118,
        "14838": 123,
        "14839": 124,
        "14840": 94,
        "14841": 231,
        "14842": 74,
        "14843": 0,
        "14844": 77,
        "14845": 63,
        "14846": 145,
        "14847": 106,
        "14848": 199,
        "14849": 9,
        "14850": 95,
        "14851": 75,
        "14852": 100,
        "14853": 148,
        "14854": 158,
        "14855": 65,
        "14856": 72,
        "14857": 170,
        "14858": 40,
        "14859": 238,
        "14860": 73,
        "14861": 201,
        "14862": 62,
        "14863": 103,
        "14864": 229,
        "14865": 169,
        "14866": 73,
        "14867": 111,
        "14868": 240,
        "14869": 114,
        "14870": 95,
        "14871": 187,
        "14872": 62,
        "14873": 166,
        "14874": 48,
        "14875": 6,
        "14876": 227,
        "14877": 48,
        "14878": 182,
        "14879": 197,
        "14880": 173,
        "14881": 59,
        "14882": 27,
        "14883": 233,
        "14884": 203,
        "14885": 101,
        "14886": 116,
        "14887": 222,
        "14888": 216,
        "14889": 93,
        "14890": 128,
        "14891": 160,
        "14892": 61,
        "14893": 144,
        "14894": 179,
        "14895": 43,
        "14896": 50,
        "14897": 160,
        "14898": 106,
        "14899": 192,
        "14900": 244,
        "14901": 123,
        "14902": 41,
        "14903": 223,
        "14904": 136,
        "14905": 161,
        "14906": 82,
        "14907": 91,
        "14908": 25,
        "14909": 51,
        "14910": 174,
        "14911": 141,
        "14912": 90,
        "14913": 222,
        "14914": 84,
        "14915": 201,
        "14916": 55,
        "14917": 213,
        "14918": 100,
        "14919": 206,
        "14920": 13,
        "14921": 145,
        "14922": 194,
        "14923": 12,
        "14924": 68,
        "14925": 35,
        "14926": 176,
        "14927": 59,
        "14928": 222,
        "14929": 225,
        "14930": 250,
        "14931": 26,
        "14932": 33,
        "14933": 194,
        "14934": 235,
        "14935": 5,
        "14936": 46,
        "14937": 221,
        "14938": 201,
        "14939": 7,
        "14940": 56,
        "14941": 246,
        "14942": 148,
        "14943": 157,
        "14944": 223,
        "14945": 138,
        "14946": 241,
        "14947": 178,
        "14948": 44,
        "14949": 135,
        "14950": 252,
        "14951": 149,
        "14952": 135,
        "14953": 30,
        "14954": 119,
        "14955": 140,
        "14956": 235,
        "14957": 89,
        "14958": 100,
        "14959": 117,
        "14960": 109,
        "14961": 250,
        "14962": 247,
        "14963": 252,
        "14964": 143,
        "14965": 32,
        "14966": 122,
        "14967": 28,
        "14968": 91,
        "14969": 158,
        "14970": 139,
        "14971": 38,
        "14972": 189,
        "14973": 18,
        "14974": 149,
        "14975": 89,
        "14976": 255,
        "14977": 177,
        "14978": 33,
        "14979": 150,
        "14980": 63,
        "14981": 189,
        "14982": 127,
        "14983": 70,
        "14984": 251,
        "14985": 77,
        "14986": 64,
        "14987": 32,
        "14988": 111,
        "14989": 119,
        "14990": 99,
        "14991": 185,
        "14992": 195,
        "14993": 89,
        "14994": 9,
        "14995": 22,
        "14996": 52,
        "14997": 109,
        "14998": 74,
        "14999": 209,
        "15000": 98,
        "15001": 201,
        "15002": 2,
        "15003": 191,
        "15004": 114,
        "15005": 62,
        "15006": 251,
        "15007": 182,
        "15008": 77,
        "15009": 162,
        "15010": 81,
        "15011": 135,
        "15012": 131,
        "15013": 142,
        "15014": 121,
        "15015": 198,
        "15016": 23,
        "15017": 31,
        "15018": 170,
        "15019": 37,
        "15020": 126,
        "15021": 106,
        "15022": 41,
        "15023": 86,
        "15024": 86,
        "15025": 143,
        "15026": 173,
        "15027": 240,
        "15028": 47,
        "15029": 160,
        "15030": 45,
        "15031": 65,
        "15032": 161,
        "15033": 96,
        "15034": 57,
        "15035": 25,
        "15036": 52,
        "15037": 153,
        "15038": 126,
        "15039": 87,
        "15040": 105,
        "15041": 125,
        "15042": 7,
        "15043": 243,
        "15044": 249,
        "15045": 149,
        "15046": 206,
        "15047": 171,
        "15048": 97,
        "15049": 21,
        "15050": 132,
        "15051": 17,
        "15052": 109,
        "15053": 26,
        "15054": 210,
        "15055": 188,
        "15056": 152,
        "15057": 58,
        "15058": 91,
        "15059": 243,
        "15060": 54,
        "15061": 7,
        "15062": 101,
        "15063": 74,
        "15064": 126,
        "15065": 142,
        "15066": 246,
        "15067": 229,
        "15068": 198,
        "15069": 149,
        "15070": 187,
        "15071": 232,
        "15072": 49,
        "15073": 175,
        "15074": 79,
        "15075": 169,
        "15076": 88,
        "15077": 132,
        "15078": 140,
        "15079": 65,
        "15080": 227,
        "15081": 24,
        "15082": 105,
        "15083": 192,
        "15084": 119,
        "15085": 221,
        "15086": 237,
        "15087": 89,
        "15088": 99,
        "15089": 179,
        "15090": 121,
        "15091": 220,
        "15092": 137,
        "15093": 124,
        "15094": 175,
        "15095": 141,
        "15096": 17,
        "15097": 214,
        "15098": 39,
        "15099": 175,
        "15100": 222,
        "15101": 230,
        "15102": 131,
        "15103": 1,
        "15104": 102,
        "15105": 25,
        "15106": 97,
        "15107": 49,
        "15108": 134,
        "15109": 174,
        "15110": 237,
        "15111": 221,
        "15112": 197,
        "15113": 209,
        "15114": 29,
        "15115": 20,
        "15116": 187,
        "15117": 13,
        "15118": 174,
        "15119": 78,
        "15120": 113,
        "15121": 115,
        "15122": 229,
        "15123": 91,
        "15124": 78,
        "15125": 89,
        "15126": 170,
        "15127": 78,
        "15128": 11,
        "15129": 24,
        "15130": 246,
        "15131": 223,
        "15132": 211,
        "15133": 73,
        "15134": 243,
        "15135": 129,
        "15136": 210,
        "15137": 69,
        "15138": 97,
        "15139": 34,
        "15140": 105,
        "15141": 35,
        "15142": 63,
        "15143": 209,
        "15144": 28,
        "15145": 38,
        "15146": 247,
        "15147": 220,
        "15148": 166,
        "15149": 83,
        "15150": 102,
        "15151": 5,
        "15152": 89,
        "15153": 67,
        "15154": 108,
        "15155": 178,
        "15156": 135,
        "15157": 9,
        "15158": 87,
        "15159": 240,
        "15160": 243,
        "15161": 73,
        "15162": 153,
        "15163": 57,
        "15164": 151,
        "15165": 177,
        "15166": 237,
        "15167": 233,
        "15168": 23,
        "15169": 36,
        "15170": 46,
        "15171": 69,
        "15172": 227,
        "15173": 255,
        "15174": 171,
        "15175": 15,
        "15176": 183,
        "15177": 64,
        "15178": 119,
        "15179": 65,
        "15180": 50,
        "15181": 61,
        "15182": 148,
        "15183": 11,
        "15184": 212,
        "15185": 191,
        "15186": 197,
        "15187": 156,
        "15188": 103,
        "15189": 132,
        "15190": 118,
        "15191": 113,
        "15192": 56,
        "15193": 74,
        "15194": 200,
        "15195": 221,
        "15196": 117,
        "15197": 115,
        "15198": 60,
        "15199": 34,
        "15200": 231,
        "15201": 218,
        "15202": 251,
        "15203": 75,
        "15204": 62,
        "15205": 223,
        "15206": 213,
        "15207": 153,
        "15208": 227,
        "15209": 156,
        "15210": 226,
        "15211": 141,
        "15212": 117,
        "15213": 209,
        "15214": 242,
        "15215": 176,
        "15216": 138,
        "15217": 74,
        "15218": 109,
        "15219": 17,
        "15220": 81,
        "15221": 126,
        "15222": 72,
        "15223": 164,
        "15224": 69,
        "15225": 179,
        "15226": 5,
        "15227": 51,
        "15228": 228,
        "15229": 5,
        "15230": 117,
        "15231": 240,
        "15232": 219,
        "15233": 202,
        "15234": 51,
        "15235": 164,
        "15236": 43,
        "15237": 147,
        "15238": 138,
        "15239": 139,
        "15240": 73,
        "15241": 136,
        "15242": 47,
        "15243": 220,
        "15244": 119,
        "15245": 95,
        "15246": 233,
        "15247": 135,
        "15248": 146,
        "15249": 144,
        "15250": 173,
        "15251": 217,
        "15252": 167,
        "15253": 153,
        "15254": 169,
        "15255": 168,
        "15256": 123,
        "15257": 33,
        "15258": 142,
        "15259": 254,
        "15260": 192,
        "15261": 128,
        "15262": 221,
        "15263": 246,
        "15264": 182,
        "15265": 59,
        "15266": 112,
        "15267": 133,
        "15268": 116,
        "15269": 203,
        "15270": 110,
        "15271": 114,
        "15272": 182,
        "15273": 88,
        "15274": 149,
        "15275": 188,
        "15276": 115,
        "15277": 149,
        "15278": 38,
        "15279": 255,
        "15280": 253,
        "15281": 69,
        "15282": 154,
        "15283": 74,
        "15284": 121,
        "15285": 252,
        "15286": 133,
        "15287": 102,
        "15288": 183,
        "15289": 23,
        "15290": 236,
        "15291": 234,
        "15292": 148,
        "15293": 199,
        "15294": 136,
        "15295": 208,
        "15296": 23,
        "15297": 90,
        "15298": 175,
        "15299": 56,
        "15300": 9,
        "15301": 103,
        "15302": 115,
        "15303": 149,
        "15304": 167,
        "15305": 232,
        "15306": 77,
        "15307": 199,
        "15308": 231,
        "15309": 177,
        "15310": 75,
        "15311": 39,
        "15312": 229,
        "15313": 139,
        "15314": 179,
        "15315": 215,
        "15316": 248,
        "15317": 201,
        "15318": 198,
        "15319": 130,
        "15320": 76,
        "15321": 228,
        "15322": 14,
        "15323": 58,
        "15324": 140,
        "15325": 132,
        "15326": 245,
        "15327": 130,
        "15328": 231,
        "15329": 105,
        "15330": 121,
        "15331": 169,
        "15332": 60,
        "15333": 172,
        "15334": 174,
        "15335": 81,
        "15336": 195,
        "15337": 113,
        "15338": 2,
        "15339": 85,
        "15340": 121,
        "15341": 120,
        "15342": 38,
        "15343": 150,
        "15344": 252,
        "15345": 41,
        "15346": 83,
        "15347": 64,
        "15348": 189,
        "15349": 5,
        "15350": 113,
        "15351": 50,
        "15352": 160,
        "15353": 93,
        "15354": 107,
        "15355": 145,
        "15356": 31,
        "15357": 85,
        "15358": 153,
        "15359": 181,
        "15360": 0,
        "15361": 249,
        "15362": 218,
        "15363": 0,
        "15364": 170,
        "15365": 123,
        "15366": 24,
        "15367": 207,
        "15368": 114,
        "15369": 165,
        "15370": 96,
        "15371": 18,
        "15372": 124,
        "15373": 85,
        "15374": 60,
        "15375": 236,
        "15376": 176,
        "15377": 123,
        "15378": 242,
        "15379": 164,
        "15380": 147,
        "15381": 74,
        "15382": 209,
        "15383": 90,
        "15384": 57,
        "15385": 156,
        "15386": 233,
        "15387": 174,
        "15388": 171,
        "15389": 88,
        "15390": 192,
        "15391": 101,
        "15392": 0,
        "15393": 167,
        "15394": 84,
        "15395": 2,
        "15396": 3,
        "15397": 96,
        "15398": 107,
        "15399": 112,
        "15400": 132,
        "15401": 4,
        "15402": 34,
        "15403": 189,
        "15404": 54,
        "15405": 117,
        "15406": 15,
        "15407": 248,
        "15408": 36,
        "15409": 134,
        "15410": 248,
        "15411": 107,
        "15412": 99,
        "15413": 237,
        "15414": 48,
        "15415": 213,
        "15416": 236,
        "15417": 227,
        "15418": 57,
        "15419": 71,
        "15420": 65,
        "15421": 30,
        "15422": 44,
        "15423": 133,
        "15424": 76,
        "15425": 205,
        "15426": 223,
        "15427": 16,
        "15428": 125,
        "15429": 30,
        "15430": 181,
        "15431": 131,
        "15432": 125,
        "15433": 248,
        "15434": 194,
        "15435": 216,
        "15436": 96,
        "15437": 75,
        "15438": 82,
        "15439": 153,
        "15440": 16,
        "15441": 111,
        "15442": 116,
        "15443": 62,
        "15444": 33,
        "15445": 32,
        "15446": 203,
        "15447": 129,
        "15448": 136,
        "15449": 152,
        "15450": 239,
        "15451": 249,
        "15452": 225,
        "15453": 141,
        "15454": 160,
        "15455": 140,
        "15456": 201,
        "15457": 48,
        "15458": 195,
        "15459": 74,
        "15460": 247,
        "15461": 57,
        "15462": 56,
        "15463": 84,
        "15464": 240,
        "15465": 96,
        "15466": 54,
        "15467": 65,
        "15468": 255,
        "15469": 235,
        "15470": 143,
        "15471": 15,
        "15472": 9,
        "15473": 58,
        "15474": 207,
        "15475": 152,
        "15476": 32,
        "15477": 135,
        "15478": 107,
        "15479": 100,
        "15480": 94,
        "15481": 97,
        "15482": 248,
        "15483": 14,
        "15484": 182,
        "15485": 12,
        "15486": 166,
        "15487": 237,
        "15488": 133,
        "15489": 93,
        "15490": 28,
        "15491": 50,
        "15492": 102,
        "15493": 9,
        "15494": 128,
        "15495": 227,
        "15496": 9,
        "15497": 31,
        "15498": 52,
        "15499": 146,
        "15500": 145,
        "15501": 228,
        "15502": 185,
        "15503": 70,
        "15504": 171,
        "15505": 43,
        "15506": 54,
        "15507": 203,
        "15508": 52,
        "15509": 155,
        "15510": 198,
        "15511": 162,
        "15512": 240,
        "15513": 81,
        "15514": 73,
        "15515": 73,
        "15516": 115,
        "15517": 173,
        "15518": 74,
        "15519": 11,
        "15520": 108,
        "15521": 74,
        "15522": 167,
        "15523": 212,
        "15524": 125,
        "15525": 168,
        "15526": 33,
        "15527": 250,
        "15528": 19,
        "15529": 56,
        "15530": 119,
        "15531": 126,
        "15532": 64,
        "15533": 192,
        "15534": 78,
        "15535": 238,
        "15536": 215,
        "15537": 248,
        "15538": 138,
        "15539": 211,
        "15540": 214,
        "15541": 11,
        "15542": 223,
        "15543": 226,
        "15544": 255,
        "15545": 124,
        "15546": 21,
        "15547": 204,
        "15548": 96,
        "15549": 119,
        "15550": 106,
        "15551": 85,
        "15552": 69,
        "15553": 192,
        "15554": 64,
        "15555": 21,
        "15556": 28,
        "15557": 46,
        "15558": 126,
        "15559": 54,
        "15560": 112,
        "15561": 143,
        "15562": 132,
        "15563": 195,
        "15564": 92,
        "15565": 10,
        "15566": 9,
        "15567": 153,
        "15568": 188,
        "15569": 8,
        "15570": 110,
        "15571": 94,
        "15572": 45,
        "15573": 4,
        "15574": 154,
        "15575": 152,
        "15576": 245,
        "15577": 202,
        "15578": 1,
        "15579": 28,
        "15580": 101,
        "15581": 139,
        "15582": 62,
        "15583": 96,
        "15584": 92,
        "15585": 178,
        "15586": 103,
        "15587": 227,
        "15588": 192,
        "15589": 219,
        "15590": 210,
        "15591": 53,
        "15592": 61,
        "15593": 171,
        "15594": 237,
        "15595": 79,
        "15596": 18,
        "15597": 123,
        "15598": 120,
        "15599": 24,
        "15600": 22,
        "15601": 121,
        "15602": 174,
        "15603": 176,
        "15604": 82,
        "15605": 175,
        "15606": 168,
        "15607": 60,
        "15608": 141,
        "15609": 209,
        "15610": 72,
        "15611": 109,
        "15612": 85,
        "15613": 255,
        "15614": 167,
        "15615": 215,
        "15616": 144,
        "15617": 56,
        "15618": 56,
        "15619": 222,
        "15620": 106,
        "15621": 193,
        "15622": 120,
        "15623": 99,
        "15624": 253,
        "15625": 132,
        "15626": 11,
        "15627": 239,
        "15628": 23,
        "15629": 103,
        "15630": 113,
        "15631": 189,
        "15632": 16,
        "15633": 139,
        "15634": 255,
        "15635": 18,
        "15636": 210,
        "15637": 203,
        "15638": 27,
        "15639": 244,
        "15640": 14,
        "15641": 7,
        "15642": 20,
        "15643": 38,
        "15644": 42,
        "15645": 219,
        "15646": 54,
        "15647": 61,
        "15648": 245,
        "15649": 225,
        "15650": 179,
        "15651": 81,
        "15652": 72,
        "15653": 215,
        "15654": 207,
        "15655": 43,
        "15656": 148,
        "15657": 204,
        "15658": 45,
        "15659": 211,
        "15660": 54,
        "15661": 180,
        "15662": 139,
        "15663": 137,
        "15664": 32,
        "15665": 247,
        "15666": 158,
        "15667": 134,
        "15668": 179,
        "15669": 116,
        "15670": 49,
        "15671": 46,
        "15672": 159,
        "15673": 209,
        "15674": 220,
        "15675": 208,
        "15676": 232,
        "15677": 65,
        "15678": 5,
        "15679": 12,
        "15680": 43,
        "15681": 26,
        "15682": 209,
        "15683": 69,
        "15684": 76,
        "15685": 166,
        "15686": 75,
        "15687": 45,
        "15688": 207,
        "15689": 211,
        "15690": 253,
        "15691": 111,
        "15692": 48,
        "15693": 79,
        "15694": 56,
        "15695": 204,
        "15696": 247,
        "15697": 212,
        "15698": 161,
        "15699": 46,
        "15700": 21,
        "15701": 14,
        "15702": 63,
        "15703": 123,
        "15704": 100,
        "15705": 7,
        "15706": 125,
        "15707": 69,
        "15708": 33,
        "15709": 183,
        "15710": 22,
        "15711": 74,
        "15712": 186,
        "15713": 35,
        "15714": 23,
        "15715": 248,
        "15716": 141,
        "15717": 37,
        "15718": 15,
        "15719": 70,
        "15720": 141,
        "15721": 82,
        "15722": 166,
        "15723": 184,
        "15724": 128,
        "15725": 52,
        "15726": 14,
        "15727": 52,
        "15728": 209,
        "15729": 30,
        "15730": 228,
        "15731": 233,
        "15732": 45,
        "15733": 230,
        "15734": 104,
        "15735": 25,
        "15736": 211,
        "15737": 77,
        "15738": 111,
        "15739": 255,
        "15740": 206,
        "15741": 12,
        "15742": 232,
        "15743": 105,
        "15744": 40,
        "15745": 34,
        "15746": 131,
        "15747": 61,
        "15748": 218,
        "15749": 236,
        "15750": 31,
        "15751": 73,
        "15752": 175,
        "15753": 250,
        "15754": 102,
        "15755": 33,
        "15756": 175,
        "15757": 166,
        "15758": 91,
        "15759": 231,
        "15760": 89,
        "15761": 33,
        "15762": 41,
        "15763": 11,
        "15764": 121,
        "15765": 149,
        "15766": 182,
        "15767": 51,
        "15768": 201,
        "15769": 105,
        "15770": 194,
        "15771": 126,
        "15772": 112,
        "15773": 30,
        "15774": 141,
        "15775": 111,
        "15776": 127,
        "15777": 187,
        "15778": 59,
        "15779": 159,
        "15780": 160,
        "15781": 89,
        "15782": 236,
        "15783": 19,
        "15784": 49,
        "15785": 94,
        "15786": 130,
        "15787": 147,
        "15788": 111,
        "15789": 210,
        "15790": 174,
        "15791": 49,
        "15792": 157,
        "15793": 139,
        "15794": 24,
        "15795": 12,
        "15796": 161,
        "15797": 3,
        "15798": 245,
        "15799": 48,
        "15800": 109,
        "15801": 109,
        "15802": 154,
        "15803": 10,
        "15804": 96,
        "15805": 9,
        "15806": 172,
        "15807": 65,
        "15808": 101,
        "15809": 74,
        "15810": 92,
        "15811": 107,
        "15812": 35,
        "15813": 58,
        "15814": 208,
        "15815": 240,
        "15816": 92,
        "15817": 136,
        "15818": 136,
        "15819": 211,
        "15820": 202,
        "15821": 195,
        "15822": 70,
        "15823": 231,
        "15824": 254,
        "15825": 21,
        "15826": 234,
        "15827": 23,
        "15828": 9,
        "15829": 197,
        "15830": 21,
        "15831": 242,
        "15832": 27,
        "15833": 126,
        "15834": 248,
        "15835": 142,
        "15836": 170,
        "15837": 234,
        "15838": 130,
        "15839": 191,
        "15840": 206,
        "15841": 39,
        "15842": 233,
        "15843": 116,
        "15844": 210,
        "15845": 79,
        "15846": 93,
        "15847": 38,
        "15848": 133,
        "15849": 71,
        "15850": 132,
        "15851": 53,
        "15852": 8,
        "15853": 29,
        "15854": 212,
        "15855": 87,
        "15856": 56,
        "15857": 75,
        "15858": 237,
        "15859": 154,
        "15860": 185,
        "15861": 234,
        "15862": 133,
        "15863": 218,
        "15864": 184,
        "15865": 212,
        "15866": 229,
        "15867": 6,
        "15868": 233,
        "15869": 210,
        "15870": 34,
        "15871": 0,
        "15872": 244,
        "15873": 65,
        "15874": 37,
        "15875": 30,
        "15876": 202,
        "15877": 61,
        "15878": 54,
        "15879": 250,
        "15880": 201,
        "15881": 193,
        "15882": 226,
        "15883": 182,
        "15884": 240,
        "15885": 26,
        "15886": 173,
        "15887": 237,
        "15888": 166,
        "15889": 210,
        "15890": 152,
        "15891": 26,
        "15892": 80,
        "15893": 48,
        "15894": 247,
        "15895": 11,
        "15896": 186,
        "15897": 81,
        "15898": 166,
        "15899": 200,
        "15900": 253,
        "15901": 194,
        "15902": 139,
        "15903": 206,
        "15904": 231,
        "15905": 77,
        "15906": 222,
        "15907": 208,
        "15908": 62,
        "15909": 204,
        "15910": 45,
        "15911": 186,
        "15912": 118,
        "15913": 239,
        "15914": 23,
        "15915": 74,
        "15916": 250,
        "15917": 198,
        "15918": 140,
        "15919": 137,
        "15920": 175,
        "15921": 182,
        "15922": 54,
        "15923": 95,
        "15924": 155,
        "15925": 121,
        "15926": 254,
        "15927": 19,
        "15928": 250,
        "15929": 230,
        "15930": 231,
        "15931": 100,
        "15932": 106,
        "15933": 38,
        "15934": 179,
        "15935": 123,
        "15936": 77,
        "15937": 12,
        "15938": 53,
        "15939": 233,
        "15940": 7,
        "15941": 79,
        "15942": 124,
        "15943": 44,
        "15944": 40,
        "15945": 186,
        "15946": 100,
        "15947": 61,
        "15948": 120,
        "15949": 54,
        "15950": 198,
        "15951": 137,
        "15952": 193,
        "15953": 220,
        "15954": 190,
        "15955": 184,
        "15956": 251,
        "15957": 229,
        "15958": 171,
        "15959": 188,
        "15960": 248,
        "15961": 177,
        "15962": 169,
        "15963": 52,
        "15964": 156,
        "15965": 33,
        "15966": 14,
        "15967": 129,
        "15968": 131,
        "15969": 45,
        "15970": 87,
        "15971": 80,
        "15972": 187,
        "15973": 110,
        "15974": 6,
        "15975": 198,
        "15976": 213,
        "15977": 177,
        "15978": 209,
        "15979": 37,
        "15980": 194,
        "15981": 106,
        "15982": 122,
        "15983": 93,
        "15984": 165,
        "15985": 221,
        "15986": 15,
        "15987": 201,
        "15988": 61,
        "15989": 92,
        "15990": 116,
        "15991": 247,
        "15992": 59,
        "15993": 67,
        "15994": 141,
        "15995": 123,
        "15996": 219,
        "15997": 240,
        "15998": 5,
        "15999": 117,
        "16000": 133,
        "16001": 1,
        "16002": 18,
        "16003": 187,
        "16004": 78,
        "16005": 24,
        "16006": 226,
        "16007": 204,
        "16008": 75,
        "16009": 163,
        "16010": 200,
        "16011": 225,
        "16012": 242,
        "16013": 181,
        "16014": 22,
        "16015": 43,
        "16016": 164,
        "16017": 253,
        "16018": 117,
        "16019": 147,
        "16020": 13,
        "16021": 242,
        "16022": 70,
        "16023": 152,
        "16024": 146,
        "16025": 72,
        "16026": 131,
        "16027": 202,
        "16028": 204,
        "16029": 41,
        "16030": 106,
        "16031": 78,
        "16032": 250,
        "16033": 180,
        "16034": 172,
        "16035": 255,
        "16036": 41,
        "16037": 254,
        "16038": 122,
        "16039": 173,
        "16040": 69,
        "16041": 134,
        "16042": 27,
        "16043": 188,
        "16044": 153,
        "16045": 18,
        "16046": 96,
        "16047": 218,
        "16048": 133,
        "16049": 146,
        "16050": 175,
        "16051": 90,
        "16052": 40,
        "16053": 196,
        "16054": 143,
        "16055": 133,
        "16056": 20,
        "16057": 177,
        "16058": 198,
        "16059": 67,
        "16060": 243,
        "16061": 190,
        "16062": 40,
        "16063": 4,
        "16064": 183,
        "16065": 227,
        "16066": 249,
        "16067": 246,
        "16068": 178,
        "16069": 102,
        "16070": 63,
        "16071": 7,
        "16072": 145,
        "16073": 13,
        "16074": 97,
        "16075": 43,
        "16076": 190,
        "16077": 171,
        "16078": 179,
        "16079": 100,
        "16080": 141,
        "16081": 205,
        "16082": 29,
        "16083": 80,
        "16084": 139,
        "16085": 124,
        "16086": 21,
        "16087": 234,
        "16088": 176,
        "16089": 134,
        "16090": 112,
        "16091": 251,
        "16092": 137,
        "16093": 157,
        "16094": 85,
        "16095": 89,
        "16096": 83,
        "16097": 40,
        "16098": 155,
        "16099": 11,
        "16100": 179,
        "16101": 123,
        "16102": 140,
        "16103": 45,
        "16104": 138,
        "16105": 33,
        "16106": 27,
        "16107": 99,
        "16108": 211,
        "16109": 51,
        "16110": 221,
        "16111": 88,
        "16112": 84,
        "16113": 173,
        "16114": 188,
        "16115": 145,
        "16116": 132,
        "16117": 38,
        "16118": 31,
        "16119": 185,
        "16120": 60,
        "16121": 141,
        "16122": 224,
        "16123": 92,
        "16124": 167,
        "16125": 99,
        "16126": 114,
        "16127": 141,
        "16128": 176,
        "16129": 166,
        "16130": 198,
        "16131": 5,
        "16132": 24,
        "16133": 54,
        "16134": 77,
        "16135": 32,
        "16136": 138,
        "16137": 200,
        "16138": 115,
        "16139": 157,
        "16140": 62,
        "16141": 202,
        "16142": 57,
        "16143": 3,
        "16144": 72,
        "16145": 29,
        "16146": 61,
        "16147": 10,
        "16148": 118,
        "16149": 112,
        "16150": 175,
        "16151": 153,
        "16152": 49,
        "16153": 54,
        "16154": 181,
        "16155": 194,
        "16156": 139,
        "16157": 26,
        "16158": 182,
        "16159": 214,
        "16160": 195,
        "16161": 20,
        "16162": 173,
        "16163": 167,
        "16164": 122,
        "16165": 252,
        "16166": 188,
        "16167": 78,
        "16168": 152,
        "16169": 96,
        "16170": 237,
        "16171": 9,
        "16172": 229,
        "16173": 142,
        "16174": 227,
        "16175": 89,
        "16176": 214,
        "16177": 85,
        "16178": 12,
        "16179": 206,
        "16180": 101,
        "16181": 252,
        "16182": 73,
        "16183": 196,
        "16184": 245,
        "16185": 205,
        "16186": 246,
        "16187": 194,
        "16188": 23,
        "16189": 196,
        "16190": 218,
        "16191": 44,
        "16192": 9,
        "16193": 36,
        "16194": 152,
        "16195": 8,
        "16196": 95,
        "16197": 61,
        "16198": 71,
        "16199": 172,
        "16200": 33,
        "16201": 15,
        "16202": 40,
        "16203": 138,
        "16204": 164,
        "16205": 104,
        "16206": 221,
        "16207": 207,
        "16208": 192,
        "16209": 229,
        "16210": 3,
        "16211": 94,
        "16212": 195,
        "16213": 184,
        "16214": 3,
        "16215": 199,
        "16216": 54,
        "16217": 218,
        "16218": 56,
        "16219": 69,
        "16220": 187,
        "16221": 63,
        "16222": 120,
        "16223": 136,
        "16224": 109,
        "16225": 207,
        "16226": 118,
        "16227": 7,
        "16228": 105,
        "16229": 209,
        "16230": 242,
        "16231": 102,
        "16232": 146,
        "16233": 212,
        "16234": 7,
        "16235": 117,
        "16236": 26,
        "16237": 237,
        "16238": 134,
        "16239": 142,
        "16240": 114,
        "16241": 108,
        "16242": 70,
        "16243": 197,
        "16244": 82,
        "16245": 75,
        "16246": 69,
        "16247": 108,
        "16248": 204,
        "16249": 101,
        "16250": 14,
        "16251": 18,
        "16252": 197,
        "16253": 253,
        "16254": 46,
        "16255": 126,
        "16256": 49,
        "16257": 243,
        "16258": 107,
        "16259": 103,
        "16260": 159,
        "16261": 192,
        "16262": 25,
        "16263": 44,
        "16264": 86,
        "16265": 191,
        "16266": 123,
        "16267": 58,
        "16268": 241,
        "16269": 47,
        "16270": 61,
        "16271": 89,
        "16272": 85,
        "16273": 72,
        "16274": 246,
        "16275": 221,
        "16276": 219,
        "16277": 221,
        "16278": 212,
        "16279": 74,
        "16280": 162,
        "16281": 135,
        "16282": 40,
        "16283": 236,
        "16284": 209,
        "16285": 165,
        "16286": 169,
        "16287": 176,
        "16288": 223,
        "16289": 122,
        "16290": 29,
        "16291": 45,
        "16292": 12,
        "16293": 26,
        "16294": 195,
        "16295": 190,
        "16296": 13,
        "16297": 251,
        "16298": 103,
        "16299": 59,
        "16300": 212,
        "16301": 138,
        "16302": 83,
        "16303": 210,
        "16304": 213,
        "16305": 29,
        "16306": 21,
        "16307": 53,
        "16308": 65,
        "16309": 228,
        "16310": 75,
        "16311": 210,
        "16312": 31,
        "16313": 159,
        "16314": 245,
        "16315": 123,
        "16316": 70,
        "16317": 6,
        "16318": 229,
        "16319": 198,
        "16320": 144,
        "16321": 114,
        "16322": 239,
        "16323": 73,
        "16324": 190,
        "16325": 52,
        "16326": 81,
        "16327": 118,
        "16328": 102,
        "16329": 244,
        "16330": 63,
        "16331": 238,
        "16332": 192,
        "16333": 151,
        "16334": 130,
        "16335": 104,
        "16336": 101,
        "16337": 146,
        "16338": 81,
        "16339": 83,
        "16340": 157,
        "16341": 99,
        "16342": 116,
        "16343": 123,
        "16344": 69,
        "16345": 198,
        "16346": 12,
        "16347": 42,
        "16348": 57,
        "16349": 151,
        "16350": 131,
        "16351": 172,
        "16352": 170,
        "16353": 58,
        "16354": 206,
        "16355": 146,
        "16356": 74,
        "16357": 113,
        "16358": 121,
        "16359": 150,
        "16360": 54,
        "16361": 161,
        "16362": 0,
        "16363": 52,
        "16364": 66,
        "16365": 66,
        "16366": 25,
        "16367": 118,
        "16368": 122,
        "16369": 148,
        "16370": 161,
        "16371": 122,
        "16372": 52,
        "16373": 116,
        "16374": 65,
        "16375": 92,
        "16376": 208,
        "16377": 95,
        "16378": 114,
        "16379": 136,
        "16380": 19,
        "16381": 157,
        "16382": 18,
        "16383": 70,
        "16384": 10,
        "16385": 141,
        "16386": 94,
        "16387": 55,
        "16388": 57,
        "16389": 132,
        "16390": 204,
        "16391": 44,
        "16392": 13,
        "16393": 121,
        "16394": 203,
        "16395": 244,
        "16396": 247,
        "16397": 207,
        "16398": 180,
        "16399": 63,
        "16400": 98,
        "16401": 205,
        "16402": 155,
        "16403": 194,
        "16404": 240,
        "16405": 226,
        "16406": 157,
        "16407": 196,
        "16408": 66,
        "16409": 243,
        "16410": 121,
        "16411": 28,
        "16412": 238,
        "16413": 235,
        "16414": 2,
        "16415": 103,
        "16416": 39,
        "16417": 242,
        "16418": 175,
        "16419": 8,
        "16420": 172,
        "16421": 33,
        "16422": 187,
        "16423": 62,
        "16424": 57,
        "16425": 254,
        "16426": 200,
        "16427": 59,
        "16428": 37,
        "16429": 108,
        "16430": 221,
        "16431": 134,
        "16432": 7,
        "16433": 173,
        "16434": 1,
        "16435": 41,
        "16436": 66,
        "16437": 114,
        "16438": 176,
        "16439": 64,
        "16440": 201,
        "16441": 114,
        "16442": 94,
        "16443": 216,
        "16444": 97,
        "16445": 157,
        "16446": 84,
        "16447": 17,
        "16448": 132,
        "16449": 212,
        "16450": 21,
        "16451": 253,
        "16452": 140,
        "16453": 84,
        "16454": 78,
        "16455": 127,
        "16456": 139,
        "16457": 151,
        "16458": 122,
        "16459": 139,
        "16460": 223,
        "16461": 193,
        "16462": 169,
        "16463": 37,
        "16464": 251,
        "16465": 164,
        "16466": 69,
        "16467": 80,
        "16468": 229,
        "16469": 204,
        "16470": 219,
        "16471": 149,
        "16472": 172,
        "16473": 197,
        "16474": 209,
        "16475": 101,
        "16476": 225,
        "16477": 32,
        "16478": 250,
        "16479": 32,
        "16480": 90,
        "16481": 2,
        "16482": 74,
        "16483": 4,
        "16484": 110,
        "16485": 239,
        "16486": 171,
        "16487": 0,
        "16488": 129,
        "16489": 78,
        "16490": 82,
        "16491": 245,
        "16492": 199,
        "16493": 40,
        "16494": 39,
        "16495": 99,
        "16496": 149,
        "16497": 68,
        "16498": 206,
        "16499": 107,
        "16500": 76,
        "16501": 46,
        "16502": 34,
        "16503": 87,
        "16504": 173,
        "16505": 166,
        "16506": 117,
        "16507": 148,
        "16508": 121,
        "16509": 125,
        "16510": 212,
        "16511": 163,
        "16512": 114,
        "16513": 79,
        "16514": 29,
        "16515": 87,
        "16516": 59,
        "16517": 252,
        "16518": 218,
        "16519": 16,
        "16520": 1,
        "16521": 8,
        "16522": 0,
        "16523": 0,
        "16524": 0,
        "16525": 0,
        "16526": 0,
        "16527": 0,
        "16528": 16,
        "16529": 0,
        "16530": 0,
        "16531": 0,
        "16532": 0,
        "16533": 0,
        "16534": 0,
        "16535": 0,
        "16536": 0,
        "16537": 0,
        "16538": 0,
        "16539": 0,
        "16540": 0,
        "16541": 0,
        "16542": 0,
        "16543": 0,
        "16544": 0,
        "16545": 0,
        "16546": 0,
        "16547": 0,
        "16548": 0,
        "16549": 0,
        "16550": 0,
        "16551": 0,
        "16552": 64,
        "16553": 0,
        "16554": 0,
        "16555": 0,
        "16556": 0,
        "16557": 0,
        "16558": 0,
        "16559": 0,
        "16560": 3,
        "16561": 0,
        "16562": 0,
        "16563": 0,
        "16564": 0,
        "16565": 0,
        "16566": 0,
        "16567": 0,
        "16568": 4,
        "16569": 0,
        "16570": 0,
        "16571": 0,
        "16572": 0,
        "16573": 0,
        "16574": 0,
        "16575": 0,
        "16576": 4,
        "16577": 0,
        "16578": 0,
        "16579": 0,
        "16580": 0,
        "16581": 0,
        "16582": 0,
        "16583": 0,
        "16584": 0,
        "16585": 0,
        "16586": 0,
        "16587": 0,
        "16588": 1,
        "16589": 0,
        "16590": 0,
        "16591": 0,
        "16592": 0,
        "16593": 0,
        "16594": 0,
        "16595": 0,
        "16596": 16,
        "16597": 0,
        "16598": 0,
        "16599": 0,
        "16600": 0,
        "16601": 0,
        "16602": 0,
        "16603": 0
      }
    }
  ],
  "numDeployments": 1,
  "solcInputHash": "c0e889dcb69b76266f445d0fe3402b92",
  "bytecode": "0x6101606040526200001760006200026660201b60201c565b6002553480156200002757600080fd5b50604051620046173803806200461783398181016040528101906200004d919062000b83565b6040518060400160405280600881526020017f46616b652046475a0000000000000000000000000000000000000000000000008152506040518060400160405280600481526020017f6646475a00000000000000000000000000000000000000000000000000000000815250338383836040518060400160405280601181526020017f4668656e6978205065726d697373696f6e0000000000000000000000000000008152506040518060400160405280600381526020017f312e3000000000000000000000000000000000000000000000000000000000008152506200013f6000836200028260201b90919060201c565b61012081815250506200015d6001826200028260201b90919060201c565b6101408181525050818051906020012060e08181525050808051906020012061010081815250504660a081815250506200019c620002da60201b60201c565b608081815250503073ffffffffffffffffffffffffffffffffffffffff1660c08173ffffffffffffffffffffffffffffffffffffffff168152505050508160059081620001ea919062000e1f565b508060069081620001fc919062000e1f565b505050600062000212826200033760201b60201c565b9050620002486200023c8262000230617fff6200026660201b60201c565b6200035560201b60201c565b620003f860201b60201c565b6200025a8382620004cb60201b60201c565b50505050505062001260565b60006200027b8260026200057160201b60201c565b9050919050565b6000602083511015620002a857620002a0836200062860201b60201c565b9050620002d4565b82620002ba836200069560201b60201c565b6000019081620002cb919062000e1f565b5060ff60001b90505b92915050565b60007f8b73c3c69bb8fe3d512ecc4cf759cc79239f7b179b0ffacaa9a75d522b39400f60e0516101005146306040516020016200031c95949392919062000f77565b60405160208183030381529060405280519060200120905090565b60006200034e82600001516200069f60201b60201c565b9050919050565b60006200036883620006bb60201b60201c565b62000382576200037f60006200026660201b60201c565b92505b6200039382620006bb60201b60201c565b620003ad57620003aa60006200026660201b60201c565b91505b600083905060008390506000620003ea60028484608073ffffffffffffffffffffffffffffffffffffffff1663eb274b77620006c860201b60201c565b905080935050505092915050565b62000409816200077960201b60201c565b62000423576200042060006200078660201b60201c565b90505b600081905060006200043b82620007a260201b60201c565b9050608073ffffffffffffffffffffffffffffffffffffffff16637d23f1db600d836040518363ffffffff1660e01b81526004016200047c9291906200104f565b600060405180830381865afa1580156200049a573d6000803e3d6000fd5b505050506040513d6000823e3d601f19601f82011682018060405250810190620004c5919062001083565b50505050565b62000516600360008473ffffffffffffffffffffffffffffffffffffffff1673ffffffffffffffffffffffffffffffffffffffff168152602001908152602001600020548262000803565b600360008473ffffffffffffffffffffffffffffffffffffffff1673ffffffffffffffffffffffffffffffffffffffff16815260200190815260200160002081905550620005676002548262000803565b6002819055505050565b60006060608073ffffffffffffffffffffffffffffffffffffffff166319e1c5c4620005a386620007a260201b60201c565b856040518363ffffffff1660e01b8152600401620005c3929190620010d4565b600060405180830381865afa158015620005e1573d6000803e3d6000fd5b505050506040513d6000823e3d601f19601f820116820180604052508101906200060c919062001083565b90506200061f816200081f60201b60201c565b91505092915050565b600080829050601f815111156200067857826040517f305a27a90000000000000000000000000000000000000000000000000000000081526004016200066f91906200115a565b60405180910390fd5b8051816200068690620011a5565b60001c1760001b915050919050565b6000819050919050565b6000620006b48260026200082d60201b60201c565b9050919050565b6000808214159050919050565b60006060838388620006e089620007a260201b60201c565b620006f189620007a260201b60201c565b6040518463ffffffff1660e01b8152600401620007119392919062001215565b600060405180830381865afa1580156200072f573d6000803e3d6000fd5b505050506040513d6000823e3d601f19601f820116820180604052508101906200075a919062001083565b90506200076d81620008d460201b60201c565b91505095945050505050565b6000808214159050919050565b60006200079b82600d6200057160201b60201c565b9050919050565b6060602067ffffffffffffffff811115620007c257620007c1620009ae565b5b6040519080825280601f01601f191660200182016040528015620007f55781602001600182028036833780820191505090505b509050816020820152919050565b6000620008178383620008e260201b60201c565b905092915050565b600060208201519050919050565b60006060608073ffffffffffffffffffffffffffffffffffffffff16635fa55ca784866040518363ffffffff1660e01b81526004016200086f9291906200104f565b600060405180830381865afa1580156200088d573d6000803e3d6000fd5b505050506040513d6000823e3d601f19601f82011682018060405250810190620008b8919062001083565b9050620008cb816200081f60201b60201c565b91505092915050565b600060208201519050919050565b6000620008f583620006bb60201b60201c565b6200090f576200090c60006200026660201b60201c565b92505b6200092082620006bb60201b60201c565b6200093a576200093760006200026660201b60201c565b91505b6000839050600083905060006200097660028484608073ffffffffffffffffffffffffffffffffffffffff16622df619620006c860201b60201c565b905080935050505092915050565b6000604051905090565b600080fd5b600080fd5b600080fd5b6000601f19601f8301169050919050565b7f4e487b7100000000000000000000000000000000000000000000000000000000600052604160045260246000fd5b620009e8826200099d565b810181811067ffffffffffffffff8211171562000a0a5762000a09620009ae565b5b80604052505050565b600062000a1f62000984565b905062000a2d8282620009dd565b919050565b600080fd5b600080fd5b600080fd5b600067ffffffffffffffff82111562000a5f5762000a5e620009ae565b5b62000a6a826200099d565b9050602081019050919050565b60005b8381101562000a9757808201518184015260208101905062000a7a565b60008484015250505050565b600062000aba62000ab48462000a41565b62000a13565b90508281526020810184848401111562000ad95762000ad862000a3c565b5b62000ae684828562000a77565b509392505050565b600082601f83011262000b065762000b0562000a37565b5b815162000b1884826020860162000aa3565b91505092915050565b60006020828403121562000b3a5762000b3962000998565b5b62000b46602062000a13565b9050600082015167ffffffffffffffff81111562000b695762000b6862000a32565b5b62000b778482850162000aee565b60008301525092915050565b60006020828403121562000b9c5762000b9b6200098e565b5b600082015167ffffffffffffffff81111562000bbd5762000bbc62000993565b5b62000bcb8482850162000b21565b91505092915050565b600081519050919050565b7f4e487b7100000000000000000000000000000000000000000000000000000000600052602260045260246000fd5b6000600282049050600182168062000c2757607f821691505b60208210810362000c3d5762000c3c62000bdf565b5b50919050565b60008190508160005260206000209050919050565b60006020601f8301049050919050565b600082821b905092915050565b60006008830262000ca77fffffffffffffffffffffffffffffffffffffffffffffffffffffffffffffffff8262000c68565b62000cb3868362000c68565b95508019841693508086168417925050509392505050565b6000819050919050565b6000819050919050565b600062000d0062000cfa62000cf48462000ccb565b62000cd5565b62000ccb565b9050919050565b6000819050919050565b62000d1c8362000cdf565b62000d3462000d2b8262000d07565b84845462000c75565b825550505050565b600090565b62000d4b62000d3c565b62000d5881848462000d11565b505050565b5b8181101562000d805762000d7460008262000d41565b60018101905062000d5e565b5050565b601f82111562000dcf5762000d998162000c43565b62000da48462000c58565b8101602085101562000db4578190505b62000dcc62000dc38562000c58565b83018262000d5d565b50505b505050565b600082821c905092915050565b600062000df46000198460080262000dd4565b1980831691505092915050565b600062000e0f838362000de1565b9150826002028217905092915050565b62000e2a8262000bd4565b67ffffffffffffffff81111562000e465762000e45620009ae565b5b62000e52825462000c0e565b62000e5f82828562000d84565b600060209050601f83116001811462000e97576000841562000e82578287015190505b62000e8e858262000e01565b86555062000efe565b601f19841662000ea78662000c43565b60005b8281101562000ed15784890151825560018201915060208501945060208101905062000eaa565b8683101562000ef1578489015162000eed601f89168262000de1565b8355505b6001600288020188555050505b505050505050565b6000819050919050565b62000f1b8162000f06565b82525050565b62000f2c8162000ccb565b82525050565b600073ffffffffffffffffffffffffffffffffffffffff82169050919050565b600062000f5f8262000f32565b9050919050565b62000f718162000f52565b82525050565b600060a08201905062000f8e600083018862000f10565b62000f9d602083018762000f10565b62000fac604083018662000f10565b62000fbb606083018562000f21565b62000fca608083018462000f66565b9695505050505050565b600060ff82169050919050565b62000fec8162000fd4565b82525050565b600081519050919050565b600082825260208201905092915050565b60006200101b8262000ff2565b62001027818562000ffd565b93506200103981856020860162000a77565b62001044816200099d565b840191505092915050565b600060408201905062001066600083018562000fe1565b81810360208301526200107a81846200100e565b90509392505050565b6000602082840312156200109c576200109b6200098e565b5b600082015167ffffffffffffffff811115620010bd57620010bc62000993565b5b620010cb8482850162000aee565b91505092915050565b60006040820190508181036000830152620010f081856200100e565b905062001101602083018462000fe1565b9392505050565b600082825260208201905092915050565b6000620011268262000bd4565b62001132818562001108565b93506200114481856020860162000a77565b6200114f816200099d565b840191505092915050565b6000602082019050818103600083015262001176818462001119565b905092915050565b6000819050602082019050919050565b60006200119c825162000f06565b80915050919050565b6000620011b28262000ff2565b82620011be846200117e565b9050620011cb816200118e565b925060208210156200120e57620012097fffffffffffffffffffffffffffffffffffffffffffffffffffffffffffffffff8360200360080262000c68565b831692505b5050919050565b60006060820190506200122c600083018662000fe1565b81810360208301526200124081856200100e565b905081810360408301526200125681846200100e565b9050949350505050565b60805160a05160c05160e05161010051610120516101405161335c620012bb60003960006118f5015260006118ba0152600061217f0152600061215e015260006119ea01526000611a4001526000611a69015261335c6000f3fe608060405234801561001057600080fd5b50600436106101425760003560e01c80637ecebe00116100b8578063a9059cbb1161007c578063a9059cbb146103b9578063af575a00146103e9578063c4224c1914610419578063d505accf14610449578063d918156e14610465578063dd62ed3e1461049557610142565b80637ecebe00146102fb57806384b0196e1461032b5780638624a3491461034f57806395d89b411461037f5780639f284be71461039d57610142565b80633644e5151161010a5780633644e5151461020157806339c217f71461021f5780635356c4291461024f578063602772041461027f5780636e0505e1146102af57806370a08231146102cb57610142565b806306fdde0314610147578063095ea7b31461016557806318160ddd1461019557806323b872dd146101b3578063313ce567146101e3575b600080fd5b61014f6104c5565b60405161015c9190612433565b60405180910390f35b61017f600480360381019061017a91906124fd565b610557565b60405161018c9190612558565b60405180910390f35b61019d6105ab565b6040516101aa9190612582565b60405180910390f35b6101cd60048036038101906101c8919061259d565b6105bd565b6040516101da9190612558565b60405180910390f35b6101eb610692565b6040516101f8919061260c565b60405180910390f35b610209610697565b6040516102169190612640565b60405180910390f35b6102396004803603810190610234919061267f565b610729565b6040516102469190612716565b60405180910390f35b61026960048036038101906102649190612750565b61074e565b6040516102769190612433565b60405180910390f35b61029960048036038101906102949190612983565b6108bf565b6040516102a69190612433565b60405180910390f35b6102c960048036038101906102c49190612a1b565b6109ec565b005b6102e560048036038101906102e09190612a48565b610b01565b6040516102f29190612582565b60405180910390f35b61031560048036038101906103109190612a48565b610b1c565b6040516103229190612582565b60405180910390f35b610333610b37565b6040516103469796959493929190612b7d565b60405180910390f35b61036960048036038101906103649190612c01565b610be1565b6040516103769190612716565b60405180910390f35b610387610c08565b6040516103949190612433565b60405180910390f35b6103b760048036038101906103b29190612a1b565b610c9a565b005b6103d360048036038101906103ce91906124fd565b610da7565b6040516103e09190612558565b60405180910390f35b61040360048036038101906103fe9190612c9c565b610e39565b6040516104109190612716565b60405180910390f35b610433600480360381019061042e9190612cef565b61118f565b6040516104409190612716565b60405180910390f35b610463600480360381019061045e9190612d5b565b611359565b005b61047f600480360381019061047a919061267f565b6114fd565b60405161048c9190612558565b60405180910390f35b6104af60048036038101906104aa9190612dfd565b6115f5565b6040516104bc9190612582565b60405180910390f35b6060600580546104d490612e6c565b80601f016020809104026020016040519081016040528092919081815260200182805461050090612e6c565b801561054d5780601f106105225761010080835404028352916020019161054d565b820191906000526020600020905b81548152906001019060200180831161053057829003601f168201915b5050505050905090565b600082602052637f5e9f20600c5233600052816034600c205581600052602c5160601c337f8c5be1e5ebec7d5bd14f71427d1e84f3dd0314c0f7b2291e5b200ac8c7c3b92560206000a36001905092915050565b60006805345cdf77eb68f44c54905090565b60006105ca848484611615565b8360601b33602052637f5e9f208117600c526034600c20805460018101156106085780851115610602576313be252b6000526004601cfd5b84810382555b6387a211a28317600c526020600c2080548087111561062f5763f4d678b86000526004601cfd5b8681038255876000526020600c2087815401815587602052600c5160601c8660601c7fddf252ad1be2c89b69c2b068fc378daa952ba7f163c4a11628f55a4df523b3ef602080a350505050505061068784848461161a565b600190509392505050565b600090565b6000806106a261161f565b90506000801b81036106c0576106b66104c5565b8051906020012090505b6040517f8b73c3c69bb8fe3d512ecc4cf759cc79239f7b179b0ffacaa9a75d522b39400f81528160208201527fc89efdaa54c0f20c7adf612882df0950f5a951637e0307cdcb4c672f298b8bc6604082015246606082015230608082015260a081209250505090565b6000610746836107418461073c90612ef5565b611624565b61118f565b905092915050565b60608161075a90612f08565b60006107b17f6bdaeb2d29561f159c7ef98b16b27015fb2aeb87209c7ee656226d912f59927d8360000151604051602001610796929190612f1b565b6040516020818303038152906040528051906020012061163a565b905060006107c3828460200151611654565b90503373ffffffffffffffffffffffffffffffffffffffff168173ffffffffffffffffffffffffffffffffffffffff161461082a576040517f3093a27700000000000000000000000000000000000000000000000000000000815260040160405180910390fd5b6108b4600460003373ffffffffffffffffffffffffffffffffffffffff1673ffffffffffffffffffffffffffffffffffffffff16815260200190815260200160002060008873ffffffffffffffffffffffffffffffffffffffff1673ffffffffffffffffffffffffffffffffffffffff168152602001908152602001600020548660000135611680565b935050505092915050565b60608183600061091a7f6bdaeb2d29561f159c7ef98b16b27015fb2aeb87209c7ee656226d912f59927d84600001516040516020016108ff929190612f1b565b6040516020818303038152906040528051906020012061163a565b9050600061092c828560200151611654565b90508273ffffffffffffffffffffffffffffffffffffffff168173ffffffffffffffffffffffffffffffffffffffff1614610993576040517f51c65eae00000000000000000000000000000000000000000000000000000000815260040160405180910390fd5b6109e0600360008973ffffffffffffffffffffffffffffffffffffffff1673ffffffffffffffffffffffffffffffffffffffff168152602001908152602001600020548760000151611680565b94505050505092915050565b6000610a45610a008363ffffffff166116b6565b600360003373ffffffffffffffffffffffffffffffffffffffff1673ffffffffffffffffffffffffffffffffffffffff168152602001908152602001600020546116ca565b9050610a90600360003373ffffffffffffffffffffffffffffffffffffffff1673ffffffffffffffffffffffffffffffffffffffff1681526020019081526020016000205482611743565b600360003373ffffffffffffffffffffffffffffffffffffffff1673ffffffffffffffffffffffffffffffffffffffff16815260200190815260200160002081905550610adf60025482611743565b600281905550610afd33610af283611757565b63ffffffff1661181a565b5050565b60006387a211a2600c52816000526020600c20549050919050565b60006338377508600c52816000526020600c20549050919050565b600060608060008060006060610b4b6118b1565b610b536118ec565b46306000801b600067ffffffffffffffff811115610b7457610b736127b1565b5b604051908082528060200260200182016040528015610ba25781602001602082028036833780820191505090505b507f0f00000000000000000000000000000000000000000000000000000000000000959493929190965096509650965096509650965090919293949596565b6000610bff8484610bfa85610bf590612ef5565b611624565b610e39565b90509392505050565b606060068054610c1790612e6c565b80601f0160208091040260200160405190810160405280929190818152602001828054610c4390612e6c565b8015610c905780601f10610c6557610100808354040283529160200191610c90565b820191906000526020600020905b815481529060010190602001808311610c7357829003601f168201915b5050505050905090565b8063ffffffff16610caa33610b01565b1015610ce2576040517ffda7bbda00000000000000000000000000000000000000000000000000000000815260040160405180910390fd5b610cf2338263ffffffff16611927565b6000610d038263ffffffff166116b6565b9050610d4e600360003373ffffffffffffffffffffffffffffffffffffffff1673ffffffffffffffffffffffffffffffffffffffff16815260200190815260200160002054826119be565b600360003373ffffffffffffffffffffffffffffffffffffffff1673ffffffffffffffffffffffffffffffffffffffff16815260200190815260200160002081905550610d9d600254826119be565b6002819055505050565b6000610db4338484611615565b6387a211a2600c52336000526020600c20805480841115610ddd5763f4d678b86000526004601cfd5b8381038255846000526020600c2084815401815584602052600c5160601c337fddf252ad1be2c89b69c2b068fc378daa952ba7f163c4a11628f55a4df523b3ef602080a3505050610e2f33848461161a565b6001905092915050565b600080610f0a83610f05600360008973ffffffffffffffffffffffffffffffffffffffff1673ffffffffffffffffffffffffffffffffffffffff16815260200190815260200160002054600460008a73ffffffffffffffffffffffffffffffffffffffff1673ffffffffffffffffffffffffffffffffffffffff16815260200190815260200160002060003373ffffffffffffffffffffffffffffffffffffffff1673ffffffffffffffffffffffffffffffffffffffff168152602001908152602001600020546116ca565b6116ca565b9050610f92600460008773ffffffffffffffffffffffffffffffffffffffff1673ffffffffffffffffffffffffffffffffffffffff16815260200190815260200160002060003373ffffffffffffffffffffffffffffffffffffffff1673ffffffffffffffffffffffffffffffffffffffff1681526020019081526020016000205482611743565b600460008773ffffffffffffffffffffffffffffffffffffffff1673ffffffffffffffffffffffffffffffffffffffff16815260200190815260200160002060003373ffffffffffffffffffffffffffffffffffffffff1673ffffffffffffffffffffffffffffffffffffffff1681526020019081526020016000208190555061105b600360008773ffffffffffffffffffffffffffffffffffffffff1673ffffffffffffffffffffffffffffffffffffffff1681526020019081526020016000205482611743565b600360008773ffffffffffffffffffffffffffffffffffffffff1673ffffffffffffffffffffffffffffffffffffffff168152602001908152602001600020819055506110e7600360008673ffffffffffffffffffffffffffffffffffffffff1673ffffffffffffffffffffffffffffffffffffffff16815260200190815260200160002054826119be565b600360008673ffffffffffffffffffffffffffffffffffffffff1673ffffffffffffffffffffffffffffffffffffffff168152602001908152602001600020819055508373ffffffffffffffffffffffffffffffffffffffff168573ffffffffffffffffffffffffffffffffffffffff167f7612539b010127d1a2f810eeff1131de23a28ecfa8228f92a9606a879300fbb560405160405180910390a3809150509392505050565b6000806111db83600360003373ffffffffffffffffffffffffffffffffffffffff1673ffffffffffffffffffffffffffffffffffffffff168152602001908152602001600020546116ca565b9050611226600360003373ffffffffffffffffffffffffffffffffffffffff1673ffffffffffffffffffffffffffffffffffffffff1681526020019081526020016000205482611743565b600360003373ffffffffffffffffffffffffffffffffffffffff1673ffffffffffffffffffffffffffffffffffffffff168152602001908152602001600020819055506112b2600360008673ffffffffffffffffffffffffffffffffffffffff1673ffffffffffffffffffffffffffffffffffffffff16815260200190815260200160002054826119be565b600360008673ffffffffffffffffffffffffffffffffffffffff1673ffffffffffffffffffffffffffffffffffffffff168152602001908152602001600020819055508373ffffffffffffffffffffffffffffffffffffffff163373ffffffffffffffffffffffffffffffffffffffff167f7612539b010127d1a2f810eeff1131de23a28ecfa8228f92a9606a879300fbb560405160405180910390a38091505092915050565b600061136361161f565b90506000801b8103611381576113776104c5565b8051906020012090505b8442111561139757631a15a3cc6000526004601cfd5b6040518860601b60601c98508760601b60601c975065383775081901600e52886000526020600c2080547f8b73c3c69bb8fe3d512ecc4cf759cc79239f7b179b0ffacaa9a75d522b39400f83528360208401527fc89efdaa54c0f20c7adf612882df0950f5a951637e0307cdcb4c672f298b8bc6604084015246606084015230608084015260a08320602e527f6e71edae12b1b97f4d1f60370fef10105fa2faae0126114a169c64845d6126c983528a60208401528960408401528860608401528060808401528760a084015260c08320604e526042602c206000528660ff1660205285604052846060526020806080600060015afa8b3d51146114a35763ddafbaef6000526004601cfd5b80820183558a637f5e9f2060a01b17604052896034602c20558a8c7f8c5be1e5ebec7d5bd14f71427d1e84f3dd0314c0f7b2291e5b200ac8c7c3b925602060608801a3836040526000606052505050505050505050505050565b60006115118261150c90612ef5565b611624565b600460003373ffffffffffffffffffffffffffffffffffffffff1673ffffffffffffffffffffffffffffffffffffffff16815260200190815260200160002060008573ffffffffffffffffffffffffffffffffffffffff1673ffffffffffffffffffffffffffffffffffffffff168152602001908152602001600020819055508273ffffffffffffffffffffffffffffffffffffffff163373ffffffffffffffffffffffffffffffffffffffff167f46f92913a39019d68e630493d23e0cf39761bf253f7b3f8eae384b33e393ed4e60405160405180910390a36001905092915050565b600081602052637f5e9f20600c52826000526034600c2054905092915050565b505050565b505050565b600090565b600061163382600001516119d2565b9050919050565b600061164d6116476119e6565b83611a9d565b9050919050565b6000806000806116648686611ade565b9250925092506116748282611b3a565b82935050505092915050565b606061168b83611c9e565b61169c5761169960006116b6565b92505b60008390506116ad60028285611cab565b91505092915050565b60006116c3826002611d61565b9050919050565b60006116d583611c9e565b6116e6576116e360006116b6565b92505b6116ef82611c9e565b611700576116fd60006116b6565b91505b60008390506000839050600061173560028484608073ffffffffffffffffffffffffffffffffffffffff16635211c679611e03565b905080935050505092915050565b600061174f8383611e97565b905092915050565b600061176282611c9e565b6117735761177060006116b6565b91505b6000829050600061178382611f10565b90506000608073ffffffffffffffffffffffffffffffffffffffff166373cc01546002846040518363ffffffff1660e01b81526004016117c4929190612f99565b602060405180830381865afa1580156117e1573d6000803e3d6000fd5b505050506040513d601f19601f820116820180604052508101906118059190612fde565b905061181081611f6d565b9350505050919050565b61182660008383611615565b6805345cdf77eb68f44c548181018181101561184a5763e5cfe9576000526004601cfd5b806805345cdf77eb68f44c556387a211a2600c52836000526020600c2083815401815583602052600c5160601c60007fddf252ad1be2c89b69c2b068fc378daa952ba7f163c4a11628f55a4df523b3ef602080a35050506118ad6000838361161a565b5050565b60606118e760007f0000000000000000000000000000000000000000000000000000000000000000611f7790919063ffffffff16565b905090565b606061192260017f0000000000000000000000000000000000000000000000000000000000000000611f7790919063ffffffff16565b905090565b61193382600083611615565b6387a211a2600c52816000526020600c2080548083111561195c5763f4d678b86000526004601cfd5b8281038255826805345cdf77eb68f44c54036805345cdf77eb68f44c558260005260008460601b60601c7fddf252ad1be2c89b69c2b068fc378daa952ba7f163c4a11628f55a4df523b3ef60206000a350506119ba8260008361161a565b5050565b60006119ca8383612027565b905092915050565b60006119df82600261209f565b9050919050565b60007f000000000000000000000000000000000000000000000000000000000000000073ffffffffffffffffffffffffffffffffffffffff163073ffffffffffffffffffffffffffffffffffffffff16148015611a6257507f000000000000000000000000000000000000000000000000000000000000000046145b15611a8f577f00000000000000000000000000000000000000000000000000000000000000009050611a9a565b611a97612139565b90505b90565b60006040517f190100000000000000000000000000000000000000000000000000000000000081528360028201528260228201526042812091505092915050565b60008060006041845103611b235760008060006020870151925060408701519150606087015160001a9050611b15888285856121cf565b955095509550505050611b33565b60006002855160001b9250925092505b9250925092565b60006003811115611b4e57611b4d61300b565b5b826003811115611b6157611b6061300b565b5b0315611c9a5760016003811115611b7b57611b7a61300b565b5b826003811115611b8e57611b8d61300b565b5b03611bc5576040517ff645eedf00000000000000000000000000000000000000000000000000000000815260040160405180910390fd5b60026003811115611bd957611bd861300b565b5b826003811115611bec57611beb61300b565b5b03611c31578060001c6040517ffce698f7000000000000000000000000000000000000000000000000000000008152600401611c289190612582565b60405180910390fd5b600380811115611c4457611c4361300b565b5b826003811115611c5757611c5661300b565b5b03611c9957806040517fd78bce0c000000000000000000000000000000000000000000000000000000008152600401611c909190612640565b60405180910390fd5b5b5050565b6000808214159050919050565b6060608073ffffffffffffffffffffffffffffffffffffffff1663a1848ff385611cd486611f10565b85604051602001611ce5919061305b565b6040516020818303038152906040526040518463ffffffff1660e01b8152600401611d1293929190613076565b600060405180830381865afa158015611d2f573d6000803e3d6000fd5b505050506040513d6000823e3d601f19601f82011682018060405250810190611d58919061315c565b90509392505050565b60006060608073ffffffffffffffffffffffffffffffffffffffff166319e1c5c4611d8b86611f10565b856040518363ffffffff1660e01b8152600401611da99291906131a5565b600060405180830381865afa158015611dc6573d6000803e3d6000fd5b505050506040513d6000823e3d601f19601f82011682018060405250810190611def9190613245565b9050611dfa816122c3565b91505092915050565b60006060838388611e1389611f10565b611e1c89611f10565b6040518463ffffffff1660e01b8152600401611e3a93929190613076565b600060405180830381865afa158015611e57573d6000803e3d6000fd5b505050506040513d6000823e3d601f19601f82011682018060405250810190611e809190613245565b9050611e8b816122d1565b91505095945050505050565b6000611ea283611c9e565b611eb357611eb060006116b6565b92505b611ebc82611c9e565b611ecd57611eca60006116b6565b91505b600083905060008390506000611f0260028484608073ffffffffffffffffffffffffffffffffffffffff1663cc2cbeff611e03565b905080935050505092915050565b6060602067ffffffffffffffff811115611f2d57611f2c6127b1565b5b6040519080825280601f01601f191660200182016040528015611f5f5781602001600182028036833780820191505090505b509050816020820152919050565b6000819050919050565b606060ff60001b8314611f9457611f8d836122df565b9050612021565b818054611fa090612e6c565b80601f0160208091040260200160405190810160405280929190818152602001828054611fcc90612e6c565b80156120195780601f10611fee57610100808354040283529160200191612019565b820191906000526020600020905b815481529060010190602001808311611ffc57829003601f168201915b505050505090505b92915050565b600061203283611c9e565b6120435761204060006116b6565b92505b61204c82611c9e565b61205d5761205a60006116b6565b91505b60008390506000839050600061209160028484608073ffffffffffffffffffffffffffffffffffffffff16622df619611e03565b905080935050505092915050565b60006060608073ffffffffffffffffffffffffffffffffffffffff16635fa55ca784866040518363ffffffff1660e01b81526004016120df929190612f99565b600060405180830381865afa1580156120fc573d6000803e3d6000fd5b505050506040513d6000823e3d601f19601f820116820180604052508101906121259190613245565b9050612130816122c3565b91505092915050565b60007f8b73c3c69bb8fe3d512ecc4cf759cc79239f7b179b0ffacaa9a75d522b39400f7f00000000000000000000000000000000000000000000000000000000000000007f000000000000000000000000000000000000000000000000000000000000000046306040516020016121b495949392919061328e565b60405160208183030381529060405280519060200120905090565b60008060007f7fffffffffffffffffffffffffffffff5d576e7357a4501ddfe92f46681b20a08460001c111561220f5760006003859250925092506122b9565b60006001888888886040516000815260200160405260405161223494939291906132e1565b6020604051602081039080840390855afa158015612256573d6000803e3d6000fd5b505050602060405103519050600073ffffffffffffffffffffffffffffffffffffffff168173ffffffffffffffffffffffffffffffffffffffff16036122aa57600060016000801b935093509350506122b9565b8060008060001b935093509350505b9450945094915050565b600060208201519050919050565b600060208201519050919050565b606060006122ec83612353565b90506000602067ffffffffffffffff81111561230b5761230a6127b1565b5b6040519080825280601f01601f19166020018201604052801561233d5781602001600182028036833780820191505090505b5090508181528360208201528092505050919050565b60008060ff8360001c169050601f81111561239a576040517fb3512b0c00000000000000000000000000000000000000000000000000000000815260040160405180910390fd5b80915050919050565b600081519050919050565b600082825260208201905092915050565b60005b838110156123dd5780820151818401526020810190506123c2565b60008484015250505050565b6000601f19601f8301169050919050565b6000612405826123a3565b61240f81856123ae565b935061241f8185602086016123bf565b612428816123e9565b840191505092915050565b6000602082019050818103600083015261244d81846123fa565b905092915050565b6000604051905090565b600080fd5b600080fd5b600073ffffffffffffffffffffffffffffffffffffffff82169050919050565b600061249482612469565b9050919050565b6124a481612489565b81146124af57600080fd5b50565b6000813590506124c18161249b565b92915050565b6000819050919050565b6124da816124c7565b81146124e557600080fd5b50565b6000813590506124f7816124d1565b92915050565b600080604083850312156125145761251361245f565b5b6000612522858286016124b2565b9250506020612533858286016124e8565b9150509250929050565b60008115159050919050565b6125528161253d565b82525050565b600060208201905061256d6000830184612549565b92915050565b61257c816124c7565b82525050565b60006020820190506125976000830184612573565b92915050565b6000806000606084860312156125b6576125b561245f565b5b60006125c4868287016124b2565b93505060206125d5868287016124b2565b92505060406125e6868287016124e8565b9150509250925092565b600060ff82169050919050565b612606816125f0565b82525050565b600060208201905061262160008301846125fd565b92915050565b6000819050919050565b61263a81612627565b82525050565b60006020820190506126556000830184612631565b92915050565b600080fd5b6000602082840312156126765761267561265b565b5b81905092915050565b600080604083850312156126965761269561245f565b5b60006126a4858286016124b2565b925050602083013567ffffffffffffffff8111156126c5576126c4612464565b5b6126d185828601612660565b9150509250929050565b6000819050919050565b60006127006126fb6126f6846124c7565b6126db565b6124c7565b9050919050565b612710816126e5565b82525050565b600060208201905061272b6000830184612707565b92915050565b6000604082840312156127475761274661265b565b5b81905092915050565b600080604083850312156127675761276661245f565b5b6000612775858286016124b2565b925050602083013567ffffffffffffffff81111561279657612795612464565b5b6127a285828601612731565b9150509250929050565b600080fd5b7f4e487b7100000000000000000000000000000000000000000000000000000000600052604160045260246000fd5b6127e9826123e9565b810181811067ffffffffffffffff82111715612808576128076127b1565b5b80604052505050565b600061281b612455565b905061282782826127e0565b919050565b600080fd5b61283a81612627565b811461284557600080fd5b50565b60008135905061285781612831565b92915050565b600080fd5b600080fd5b600067ffffffffffffffff821115612882576128816127b1565b5b61288b826123e9565b9050602081019050919050565b82818337600083830152505050565b60006128ba6128b584612867565b612811565b9050828152602081018484840111156128d6576128d5612862565b5b6128e1848285612898565b509392505050565b600082601f8301126128fe576128fd61285d565b5b813561290e8482602086016128a7565b91505092915050565b60006040828403121561292d5761292c6127ac565b5b6129376040612811565b9050600061294784828501612848565b600083015250602082013567ffffffffffffffff81111561296b5761296a61282c565b5b612977848285016128e9565b60208301525092915050565b6000806040838503121561299a5761299961245f565b5b60006129a8858286016124b2565b925050602083013567ffffffffffffffff8111156129c9576129c8612464565b5b6129d585828601612917565b9150509250929050565b600063ffffffff82169050919050565b6129f8816129df565b8114612a0357600080fd5b50565b600081359050612a15816129ef565b92915050565b600060208284031215612a3157612a3061245f565b5b6000612a3f84828501612a06565b91505092915050565b600060208284031215612a5e57612a5d61245f565b5b6000612a6c848285016124b2565b91505092915050565b60007fff0000000000000000000000000000000000000000000000000000000000000082169050919050565b612aaa81612a75565b82525050565b612ab981612489565b82525050565b600081519050919050565b600082825260208201905092915050565b6000819050602082019050919050565b612af4816124c7565b82525050565b6000612b068383612aeb565b60208301905092915050565b6000602082019050919050565b6000612b2a82612abf565b612b348185612aca565b9350612b3f83612adb565b8060005b83811015612b70578151612b578882612afa565b9750612b6283612b12565b925050600181019050612b43565b5085935050505092915050565b600060e082019050612b92600083018a612aa1565b8181036020830152612ba481896123fa565b90508181036040830152612bb881886123fa565b9050612bc76060830187612573565b612bd46080830186612ab0565b612be160a0830185612631565b81810360c0830152612bf38184612b1f565b905098975050505050505050565b600080600060608486031215612c1a57612c1961245f565b5b6000612c28868287016124b2565b9350506020612c39868287016124b2565b925050604084013567ffffffffffffffff811115612c5a57612c59612464565b5b612c6686828701612660565b9150509250925092565b612c79816124c7565b8114612c8457600080fd5b50565b600081359050612c9681612c70565b92915050565b600080600060608486031215612cb557612cb461245f565b5b6000612cc3868287016124b2565b9350506020612cd4868287016124b2565b9250506040612ce586828701612c87565b9150509250925092565b60008060408385031215612d0657612d0561245f565b5b6000612d14858286016124b2565b9250506020612d2585828601612c87565b9150509250929050565b612d38816125f0565b8114612d4357600080fd5b50565b600081359050612d5581612d2f565b92915050565b600080600080600080600060e0888a031215612d7a57612d7961245f565b5b6000612d888a828b016124b2565b9750506020612d998a828b016124b2565b9650506040612daa8a828b016124e8565b9550506060612dbb8a828b016124e8565b9450506080612dcc8a828b01612d46565b93505060a0612ddd8a828b01612848565b92505060c0612dee8a828b01612848565b91505092959891949750929550565b60008060408385031215612e1457612e1361245f565b5b6000612e22858286016124b2565b9250506020612e33858286016124b2565b9150509250929050565b7f4e487b7100000000000000000000000000000000000000000000000000000000600052602260045260246000fd5b60006002820490506001821680612e8457607f821691505b602082108103612e9757612e96612e3d565b5b50919050565b600060208284031215612eb357612eb26127ac565b5b612ebd6020612811565b9050600082013567ffffffffffffffff811115612edd57612edc61282c565b5b612ee9848285016128e9565b60008301525092915050565b6000612f013683612e9d565b9050919050565b6000612f143683612917565b9050919050565b6000604082019050612f306000830185612631565b612f3d6020830184612631565b9392505050565b600081519050919050565b600082825260208201905092915050565b6000612f6b82612f44565b612f758185612f4f565b9350612f858185602086016123bf565b612f8e816123e9565b840191505092915050565b6000604082019050612fae60008301856125fd565b8181036020830152612fc08184612f60565b90509392505050565b600081519050612fd8816124d1565b92915050565b600060208284031215612ff457612ff361245f565b5b600061300284828501612fc9565b91505092915050565b7f4e487b7100000000000000000000000000000000000000000000000000000000600052602160045260246000fd5b6000819050919050565b61305561305082612627565b61303a565b82525050565b60006130678284613044565b60208201915081905092915050565b600060608201905061308b60008301866125fd565b818103602083015261309d8185612f60565b905081810360408301526130b18184612f60565b9050949350505050565b600067ffffffffffffffff8211156130d6576130d56127b1565b5b6130df826123e9565b9050602081019050919050565b60006130ff6130fa846130bb565b612811565b90508281526020810184848401111561311b5761311a612862565b5b6131268482856123bf565b509392505050565b600082601f8301126131435761314261285d565b5b81516131538482602086016130ec565b91505092915050565b6000602082840312156131725761317161245f565b5b600082015167ffffffffffffffff8111156131905761318f612464565b5b61319c8482850161312e565b91505092915050565b600060408201905081810360008301526131bf8185612f60565b90506131ce60208301846125fd565b9392505050565b60006131e86131e384612867565b612811565b90508281526020810184848401111561320457613203612862565b5b61320f8482856123bf565b509392505050565b600082601f83011261322c5761322b61285d565b5b815161323c8482602086016131d5565b91505092915050565b60006020828403121561325b5761325a61245f565b5b600082015167ffffffffffffffff81111561327957613278612464565b5b61328584828501613217565b91505092915050565b600060a0820190506132a36000830188612631565b6132b06020830187612631565b6132bd6040830186612631565b6132ca6060830185612573565b6132d76080830184612ab0565b9695505050505050565b60006080820190506132f66000830187612631565b61330360208301866125fd565b6133106040830185612631565b61331d6060830184612631565b9594505050505056fea264697066735822122054e0a0f4efb5c65f190b631d1807022c518b43b07919c197c9a86ff1e683e47c64736f6c63430008180033",
  "devdoc": {
    "errors": {
      "AllowanceOverflow()": [
        {
          "details": "The allowance has overflowed."
        }
      ],
      "AllowanceUnderflow()": [
        {
          "details": "The allowance has underflowed."
        }
      ],
      "ECDSAInvalidSignature()": [
        {
          "details": "The signature derives the `address(0)`."
        }
      ],
      "ECDSAInvalidSignatureLength(uint256)": [
        {
          "details": "The signature has an invalid length."
        }
      ],
      "ECDSAInvalidSignatureS(bytes32)": [
        {
          "details": "The signature has an S value that is in the upper half order."
        }
      ],
      "InsufficientAllowance()": [
        {
          "details": "Insufficient allowance."
        }
      ],
      "InsufficientBalance()": [
        {
          "details": "Insufficient balance."
        }
      ],
      "InvalidPermit()": [
        {
          "details": "The permit is invalid."
        }
      ],
      "PermitExpired()": [
        {
          "details": "The permit has expired."
        }
      ],
      "TotalSupplyOverflow()": [
        {
          "details": "The total supply has overflowed."
        }
      ]
    },
    "events": {
      "Approval(address,address,uint256)": {
        "details": "Emitted when `amount` tokens is approved by `owner` to be used by `spender`."
      },
      "ApprovalEncrypted(address,address)": {
        "details": "Emitted when the allowance of a `spender` for an `owner` is set by a call to {approveEncrypted}. `value` is the new allowance."
      },
      "EIP712DomainChanged()": {
        "details": "MAY be emitted to signal that the domain could have changed."
      },
      "Transfer(address,address,uint256)": {
        "details": "Emitted when `amount` tokens is transferred from `from` to `to`."
      },
      "TransferEncrypted(address,address)": {
        "details": "Emitted when `value` tokens are moved from one account (`from`) to another (`to`). Note that `value` may be zero."
      }
    },
    "kind": "dev",
    "methods": {
      "DOMAIN_SEPARATOR()": {
        "details": "Returns the EIP-712 domain separator for the EIP-2612 permit."
      },
      "allowance(address,address)": {
        "details": "Returns the amount of tokens that `spender` can spend on behalf of `owner`."
      },
      "allowanceEncrypted(address,(bytes32,bytes))": {
        "details": "Returns the remaining number of tokens that `spender` will be allowed to spend on behalf of `owner` through {transferFrom}. This is zero by default. This value changes when {approve} or {transferFrom} are called."
      },
      "approve(address,uint256)": {
        "details": "Sets `amount` as the allowance of `spender` over the caller's tokens. Emits a {Approval} event."
      },
      "approveEncrypted(address,(bytes))": {
        "details": "Sets a `value` amount of tokens as the allowance of `spender` over the caller's tokens. Returns a boolean value indicating whether the operation succeeded. IMPORTANT: Beware that changing an allowance with this method brings the risk that someone may use both the old and the new allowance by unfortunate transaction ordering. One possible solution to mitigate this race condition is to first reduce the spender's allowance to 0 and set the desired value afterwards: https://github.com/ethereum/EIPs/issues/20#issuecomment-263524729 Emits an {ApprovalEncrypted} event."
      },
      "balanceOf(address)": {
        "details": "Returns the amount of tokens owned by `owner`."
      },
      "balanceOfEncrypted(address,(bytes32,bytes))": {
        "details": "Returns the value of tokens owned by `account`, sealed and encrypted for the caller."
      },
      "decimals()": {
        "details": "Returns the decimals places of the token."
      },
      "eip712Domain()": {
        "details": "See {IERC-5267}."
      },
      "name()": {
        "details": "Returns the name of the token."
      },
      "nonces(address)": {
        "details": "Returns the current nonce for `owner`. This value is used to compute the signature for EIP-2612 permit."
      },
      "permit(address,address,uint256,uint256,uint8,bytes32,bytes32)": {
        "details": "Sets `value` as the allowance of `spender` over the tokens of `owner`, authorized by a signed approval by `owner`. Emits a {Approval} event."
      },
      "symbol()": {
        "details": "Returns the symbol of the token."
      },
      "totalSupply()": {
        "details": "Returns the amount of tokens in existence."
      },
      "transfer(address,uint256)": {
        "details": "Transfer `amount` tokens from the caller to `to`. Requirements: - `from` must at least have `amount`. Emits a {Transfer} event."
      },
      "transferFrom(address,address,uint256)": {
        "details": "Transfers `amount` tokens from `from` to `to`. Note: Does not update the allowance if it is the maximum uint256 value. Requirements: - `from` must at least have `amount`. - The caller must have at least `amount` of allowance to transfer the tokens of `from`. Emits a {Transfer} event."
      },
      "transferFromEncrypted(address,address,(bytes))": {
        "details": "Moves a `value` amount of tokens from `from` to `to` using the allowance mechanism. `value` is then deducted from the caller's allowance. Returns a boolean value indicating whether the operation succeeded. Emits a {TransferEncrypted} event."
      }
    },
    "version": 1
  },
  "userdoc": {
    "errors": {
      "SignerNotMessageSender()": [
        {
          "notice": "Emitted when the signer is not the message sender"
        }
      ],
      "SignerNotOwner()": [
        {
          "notice": "Emitted when the signer is not the specified owner"
        }
      ]
    },
    "kind": "user",
    "methods": {},
    "version": 1
  },
  "storageLayout": {
    "storage": [
      {
        "astId": 16568,
        "contract": "contracts/tokens/FakeFGZ.sol:FakeFGZ",
        "label": "_nameFallback",
        "offset": 0,
        "slot": "0",
        "type": "t_string_storage"
      },
      {
        "astId": 16570,
        "contract": "contracts/tokens/FakeFGZ.sol:FakeFGZ",
        "label": "_versionFallback",
        "offset": 0,
        "slot": "1",
        "type": "t_string_storage"
      },
      {
        "astId": 18126,
        "contract": "contracts/tokens/FakeFGZ.sol:FakeFGZ",
        "label": "_encTotalSupply",
        "offset": 0,
        "slot": "2",
        "type": "t_userDefinedValueType(euint32)12"
      },
      {
        "astId": 18131,
        "contract": "contracts/tokens/FakeFGZ.sol:FakeFGZ",
        "label": "_encBalanceOf",
        "offset": 0,
        "slot": "3",
        "type": "t_mapping(t_address,t_userDefinedValueType(euint32)12)"
      },
      {
        "astId": 18138,
        "contract": "contracts/tokens/FakeFGZ.sol:FakeFGZ",
        "label": "_encAllowance",
        "offset": 0,
        "slot": "4",
        "type": "t_mapping(t_address,t_mapping(t_address,t_userDefinedValueType(euint32)12))"
      },
      {
        "astId": 18140,
        "contract": "contracts/tokens/FakeFGZ.sol:FakeFGZ",
        "label": "_name",
        "offset": 0,
        "slot": "5",
        "type": "t_string_storage"
      },
      {
        "astId": 18142,
        "contract": "contracts/tokens/FakeFGZ.sol:FakeFGZ",
        "label": "_symbol",
        "offset": 0,
        "slot": "6",
        "type": "t_string_storage"
      }
    ],
    "types": {
      "t_address": {
        "encoding": "inplace",
        "label": "address",
        "numberOfBytes": "20"
      },
      "t_mapping(t_address,t_mapping(t_address,t_userDefinedValueType(euint32)12))": {
        "encoding": "mapping",
        "key": "t_address",
        "label": "mapping(address => mapping(address => euint32))",
        "numberOfBytes": "32",
        "value": "t_mapping(t_address,t_userDefinedValueType(euint32)12)"
      },
      "t_mapping(t_address,t_userDefinedValueType(euint32)12)": {
        "encoding": "mapping",
        "key": "t_address",
        "label": "mapping(address => euint32)",
        "numberOfBytes": "32",
        "value": "t_userDefinedValueType(euint32)12"
      },
      "t_string_storage": {
        "encoding": "bytes",
        "label": "string",
        "numberOfBytes": "32"
      },
      "t_userDefinedValueType(euint32)12": {
        "encoding": "inplace",
        "label": "euint32",
        "numberOfBytes": "32"
      }
    }
  }
}