{
  "address": "0x0D2Df88b52cAa4F0c9F2b7794C16941541E0E4C4",
  "abi": [
    {
      "inputs": [
        {
          "components": [
            {
              "internalType": "bytes",
              "name": "data",
              "type": "bytes"
            }
          ],
          "internalType": "struct inEuint32",
          "name": "_initialSupply",
          "type": "tuple"
        }
      ],
      "stateMutability": "nonpayable",
      "type": "constructor"
    },
    {
      "inputs": [],
      "name": "AllowanceOverflow",
      "type": "error"
    },
    {
      "inputs": [],
      "name": "AllowanceUnderflow",
      "type": "error"
    },
    {
      "inputs": [],
      "name": "ECDSAInvalidSignature",
      "type": "error"
    },
    {
      "inputs": [
        {
          "internalType": "uint256",
          "name": "length",
          "type": "uint256"
        }
      ],
      "name": "ECDSAInvalidSignatureLength",
      "type": "error"
    },
    {
      "inputs": [
        {
          "internalType": "bytes32",
          "name": "s",
          "type": "bytes32"
        }
      ],
      "name": "ECDSAInvalidSignatureS",
      "type": "error"
    },
    {
      "inputs": [],
      "name": "ErrorInsufficientFunds",
      "type": "error"
    },
    {
      "inputs": [],
      "name": "InsufficientAllowance",
      "type": "error"
    },
    {
      "inputs": [],
      "name": "InsufficientBalance",
      "type": "error"
    },
    {
      "inputs": [],
      "name": "InvalidPermit",
      "type": "error"
    },
    {
      "inputs": [],
      "name": "InvalidShortString",
      "type": "error"
    },
    {
      "inputs": [],
      "name": "PermitExpired",
      "type": "error"
    },
    {
      "inputs": [],
      "name": "SignerNotMessageSender",
      "type": "error"
    },
    {
      "inputs": [],
      "name": "SignerNotOwner",
      "type": "error"
    },
    {
      "inputs": [
        {
          "internalType": "string",
          "name": "str",
          "type": "string"
        }
      ],
      "name": "StringTooLong",
      "type": "error"
    },
    {
      "inputs": [],
      "name": "TotalSupplyOverflow",
      "type": "error"
    },
    {
      "anonymous": false,
      "inputs": [
        {
          "indexed": true,
          "internalType": "address",
          "name": "owner",
          "type": "address"
        },
        {
          "indexed": true,
          "internalType": "address",
          "name": "spender",
          "type": "address"
        },
        {
          "indexed": false,
          "internalType": "uint256",
          "name": "amount",
          "type": "uint256"
        }
      ],
      "name": "Approval",
      "type": "event"
    },
    {
      "anonymous": false,
      "inputs": [
        {
          "indexed": true,
          "internalType": "address",
          "name": "owner",
          "type": "address"
        },
        {
          "indexed": true,
          "internalType": "address",
          "name": "spender",
          "type": "address"
        }
      ],
      "name": "ApprovalEncrypted",
      "type": "event"
    },
    {
      "anonymous": false,
      "inputs": [],
      "name": "EIP712DomainChanged",
      "type": "event"
    },
    {
      "anonymous": false,
      "inputs": [
        {
          "indexed": true,
          "internalType": "address",
          "name": "from",
          "type": "address"
        },
        {
          "indexed": true,
          "internalType": "address",
          "name": "to",
          "type": "address"
        },
        {
          "indexed": false,
          "internalType": "uint256",
          "name": "amount",
          "type": "uint256"
        }
      ],
      "name": "Transfer",
      "type": "event"
    },
    {
      "anonymous": false,
      "inputs": [
        {
          "indexed": true,
          "internalType": "address",
          "name": "from",
          "type": "address"
        },
        {
          "indexed": true,
          "internalType": "address",
          "name": "to",
          "type": "address"
        }
      ],
      "name": "TransferEncrypted",
      "type": "event"
    },
    {
      "inputs": [],
      "name": "DOMAIN_SEPARATOR",
      "outputs": [
        {
          "internalType": "bytes32",
          "name": "result",
          "type": "bytes32"
        }
      ],
      "stateMutability": "view",
      "type": "function"
    },
    {
      "inputs": [
        {
          "internalType": "address",
          "name": "owner",
          "type": "address"
        },
        {
          "internalType": "address",
          "name": "spender",
          "type": "address"
        }
      ],
      "name": "allowance",
      "outputs": [
        {
          "internalType": "uint256",
          "name": "result",
          "type": "uint256"
        }
      ],
      "stateMutability": "view",
      "type": "function"
    },
    {
      "inputs": [
        {
          "internalType": "address",
          "name": "spender",
          "type": "address"
        },
        {
          "components": [
            {
              "internalType": "bytes32",
              "name": "publicKey",
              "type": "bytes32"
            },
            {
              "internalType": "bytes",
              "name": "signature",
              "type": "bytes"
            }
          ],
          "internalType": "struct Permission",
          "name": "permission",
          "type": "tuple"
        }
      ],
      "name": "allowanceEncrypted",
      "outputs": [
        {
          "internalType": "string",
          "name": "",
          "type": "string"
        }
      ],
      "stateMutability": "view",
      "type": "function"
    },
    {
      "inputs": [
        {
          "internalType": "address",
          "name": "spender",
          "type": "address"
        },
        {
          "internalType": "uint256",
          "name": "amount",
          "type": "uint256"
        }
      ],
      "name": "approve",
      "outputs": [
        {
          "internalType": "bool",
          "name": "",
          "type": "bool"
        }
      ],
      "stateMutability": "nonpayable",
      "type": "function"
    },
    {
      "inputs": [
        {
          "internalType": "address",
          "name": "spender",
          "type": "address"
        },
        {
          "components": [
            {
              "internalType": "bytes",
              "name": "data",
              "type": "bytes"
            }
          ],
          "internalType": "struct inEuint32",
          "name": "value",
          "type": "tuple"
        }
      ],
      "name": "approveEncrypted",
      "outputs": [
        {
          "internalType": "bool",
          "name": "",
          "type": "bool"
        }
      ],
      "stateMutability": "nonpayable",
      "type": "function"
    },
    {
      "inputs": [
        {
          "internalType": "address",
          "name": "owner",
          "type": "address"
        }
      ],
      "name": "balanceOf",
      "outputs": [
        {
          "internalType": "uint256",
          "name": "result",
          "type": "uint256"
        }
      ],
      "stateMutability": "view",
      "type": "function"
    },
    {
      "inputs": [
        {
          "internalType": "address",
          "name": "account",
          "type": "address"
        },
        {
          "components": [
            {
              "internalType": "bytes32",
              "name": "publicKey",
              "type": "bytes32"
            },
            {
              "internalType": "bytes",
              "name": "signature",
              "type": "bytes"
            }
          ],
          "internalType": "struct Permission",
          "name": "auth",
          "type": "tuple"
        }
      ],
      "name": "balanceOfEncrypted",
      "outputs": [
        {
          "internalType": "string",
          "name": "",
          "type": "string"
        }
      ],
      "stateMutability": "view",
      "type": "function"
    },
    {
      "inputs": [],
      "name": "decimals",
      "outputs": [
        {
          "internalType": "uint8",
          "name": "",
          "type": "uint8"
        }
      ],
      "stateMutability": "pure",
      "type": "function"
    },
    {
      "inputs": [],
      "name": "eip712Domain",
      "outputs": [
        {
          "internalType": "bytes1",
          "name": "fields",
          "type": "bytes1"
        },
        {
          "internalType": "string",
          "name": "name",
          "type": "string"
        },
        {
          "internalType": "string",
          "name": "version",
          "type": "string"
        },
        {
          "internalType": "uint256",
          "name": "chainId",
          "type": "uint256"
        },
        {
          "internalType": "address",
          "name": "verifyingContract",
          "type": "address"
        },
        {
          "internalType": "bytes32",
          "name": "salt",
          "type": "bytes32"
        },
        {
          "internalType": "uint256[]",
          "name": "extensions",
          "type": "uint256[]"
        }
      ],
      "stateMutability": "view",
      "type": "function"
    },
    {
      "inputs": [],
      "name": "name",
      "outputs": [
        {
          "internalType": "string",
          "name": "",
          "type": "string"
        }
      ],
      "stateMutability": "view",
      "type": "function"
    },
    {
      "inputs": [
        {
          "internalType": "address",
          "name": "owner",
          "type": "address"
        }
      ],
      "name": "nonces",
      "outputs": [
        {
          "internalType": "uint256",
          "name": "result",
          "type": "uint256"
        }
      ],
      "stateMutability": "view",
      "type": "function"
    },
    {
      "inputs": [
        {
          "internalType": "address",
          "name": "owner",
          "type": "address"
        },
        {
          "internalType": "address",
          "name": "spender",
          "type": "address"
        },
        {
          "internalType": "uint256",
          "name": "value",
          "type": "uint256"
        },
        {
          "internalType": "uint256",
          "name": "deadline",
          "type": "uint256"
        },
        {
          "internalType": "uint8",
          "name": "v",
          "type": "uint8"
        },
        {
          "internalType": "bytes32",
          "name": "r",
          "type": "bytes32"
        },
        {
          "internalType": "bytes32",
          "name": "s",
          "type": "bytes32"
        }
      ],
      "name": "permit",
      "outputs": [],
      "stateMutability": "nonpayable",
      "type": "function"
    },
    {
      "inputs": [],
      "name": "symbol",
      "outputs": [
        {
          "internalType": "string",
          "name": "",
          "type": "string"
        }
      ],
      "stateMutability": "view",
      "type": "function"
    },
    {
      "inputs": [],
      "name": "totalSupply",
      "outputs": [
        {
          "internalType": "uint256",
          "name": "result",
          "type": "uint256"
        }
      ],
      "stateMutability": "view",
      "type": "function"
    },
    {
      "inputs": [
        {
          "internalType": "address",
          "name": "to",
          "type": "address"
        },
        {
          "internalType": "uint256",
          "name": "amount",
          "type": "uint256"
        }
      ],
      "name": "transfer",
      "outputs": [
        {
          "internalType": "bool",
          "name": "",
          "type": "bool"
        }
      ],
      "stateMutability": "nonpayable",
      "type": "function"
    },
    {
      "inputs": [
        {
          "internalType": "address",
          "name": "to",
          "type": "address"
        },
        {
          "components": [
            {
              "internalType": "bytes",
              "name": "data",
              "type": "bytes"
            }
          ],
          "internalType": "struct inEuint32",
          "name": "encryptedAmount",
          "type": "tuple"
        }
      ],
      "name": "transferEncrypted",
      "outputs": [
        {
          "internalType": "euint32",
          "name": "",
          "type": "uint256"
        }
      ],
      "stateMutability": "nonpayable",
      "type": "function"
    },
    {
      "inputs": [
        {
          "internalType": "address",
          "name": "to",
          "type": "address"
        },
        {
          "internalType": "euint32",
          "name": "amount",
          "type": "uint256"
        }
      ],
      "name": "transferEncrypted",
      "outputs": [
        {
          "internalType": "euint32",
          "name": "",
          "type": "uint256"
        }
      ],
      "stateMutability": "nonpayable",
      "type": "function"
    },
    {
      "inputs": [
        {
          "internalType": "address",
          "name": "from",
          "type": "address"
        },
        {
          "internalType": "address",
          "name": "to",
          "type": "address"
        },
        {
          "internalType": "uint256",
          "name": "amount",
          "type": "uint256"
        }
      ],
      "name": "transferFrom",
      "outputs": [
        {
          "internalType": "bool",
          "name": "",
          "type": "bool"
        }
      ],
      "stateMutability": "nonpayable",
      "type": "function"
    },
    {
      "inputs": [
        {
          "internalType": "address",
          "name": "from",
          "type": "address"
        },
        {
          "internalType": "address",
          "name": "to",
          "type": "address"
        },
        {
          "components": [
            {
              "internalType": "bytes",
              "name": "data",
              "type": "bytes"
            }
          ],
          "internalType": "struct inEuint32",
          "name": "value",
          "type": "tuple"
        }
      ],
      "name": "transferFromEncrypted",
      "outputs": [
        {
          "internalType": "euint32",
          "name": "",
          "type": "uint256"
        }
      ],
      "stateMutability": "nonpayable",
      "type": "function"
    },
    {
      "inputs": [
        {
          "internalType": "address",
          "name": "from",
          "type": "address"
        },
        {
          "internalType": "address",
          "name": "to",
          "type": "address"
        },
        {
          "internalType": "euint32",
          "name": "value",
          "type": "uint256"
        }
      ],
      "name": "transferFromEncrypted",
      "outputs": [
        {
          "internalType": "euint32",
          "name": "",
          "type": "uint256"
        }
      ],
      "stateMutability": "nonpayable",
      "type": "function"
    },
    {
      "inputs": [
        {
          "internalType": "uint32",
          "name": "amount",
          "type": "uint32"
        }
      ],
      "name": "unwrap",
      "outputs": [],
      "stateMutability": "nonpayable",
      "type": "function"
    },
    {
      "inputs": [
        {
          "internalType": "uint32",
          "name": "amount",
          "type": "uint32"
        }
      ],
      "name": "wrap",
      "outputs": [],
      "stateMutability": "nonpayable",
      "type": "function"
    }
  ],
  "transactionHash": "0x373f5c4ad43be9f426359c32a2df79d21a19a207078934c6183f5d979f606dba",
  "args": [
    {
      "data": {
        "0": 16,
        "1": 8,
        "2": 0,
        "3": 0,
        "4": 0,
        "5": 0,
        "6": 0,
        "7": 0,
        "8": 98,
        "9": 153,
        "10": 248,
        "11": 195,
        "12": 46,
        "13": 160,
        "14": 73,
        "15": 118,
        "16": 88,
        "17": 227,
        "18": 98,
        "19": 163,
        "20": 58,
        "21": 171,
        "22": 192,
        "23": 214,
        "24": 210,
        "25": 87,
        "26": 177,
        "27": 206,
        "28": 250,
        "29": 114,
        "30": 43,
        "31": 64,
        "32": 145,
        "33": 251,
        "34": 136,
        "35": 218,
        "36": 246,
        "37": 27,
        "38": 119,
        "39": 119,
        "40": 197,
        "41": 70,
        "42": 42,
        "43": 154,
        "44": 6,
        "45": 201,
        "46": 153,
        "47": 130,
        "48": 36,
        "49": 145,
        "50": 168,
        "51": 63,
        "52": 162,
        "53": 123,
        "54": 6,
        "55": 46,
        "56": 186,
        "57": 140,
        "58": 16,
        "59": 137,
        "60": 131,
        "61": 19,
        "62": 23,
        "63": 153,
        "64": 9,
        "65": 25,
        "66": 205,
        "67": 246,
        "68": 232,
        "69": 99,
        "70": 2,
        "71": 112,
        "72": 221,
        "73": 91,
        "74": 212,
        "75": 63,
        "76": 111,
        "77": 83,
        "78": 77,
        "79": 187,
        "80": 159,
        "81": 102,
        "82": 28,
        "83": 84,
        "84": 38,
        "85": 215,
        "86": 2,
        "87": 128,
        "88": 187,
        "89": 240,
        "90": 186,
        "91": 170,
        "92": 59,
        "93": 56,
        "94": 95,
        "95": 210,
        "96": 213,
        "97": 141,
        "98": 134,
        "99": 250,
        "100": 75,
        "101": 186,
        "102": 112,
        "103": 161,
        "104": 115,
        "105": 139,
        "106": 241,
        "107": 195,
        "108": 164,
        "109": 33,
        "110": 4,
        "111": 200,
        "112": 17,
        "113": 190,
        "114": 207,
        "115": 135,
        "116": 9,
        "117": 213,
        "118": 32,
        "119": 236,
        "120": 254,
        "121": 90,
        "122": 55,
        "123": 88,
        "124": 184,
        "125": 195,
        "126": 44,
        "127": 249,
        "128": 31,
        "129": 81,
        "130": 25,
        "131": 134,
        "132": 93,
        "133": 30,
        "134": 133,
        "135": 63,
        "136": 21,
        "137": 136,
        "138": 6,
        "139": 215,
        "140": 87,
        "141": 201,
        "142": 9,
        "143": 247,
        "144": 119,
        "145": 118,
        "146": 117,
        "147": 128,
        "148": 200,
        "149": 193,
        "150": 61,
        "151": 150,
        "152": 129,
        "153": 61,
        "154": 165,
        "155": 108,
        "156": 143,
        "157": 139,
        "158": 129,
        "159": 161,
        "160": 88,
        "161": 130,
        "162": 135,
        "163": 46,
        "164": 31,
        "165": 30,
        "166": 71,
        "167": 130,
        "168": 212,
        "169": 3,
        "170": 11,
        "171": 0,
        "172": 71,
        "173": 161,
        "174": 41,
        "175": 21,
        "176": 222,
        "177": 176,
        "178": 219,
        "179": 32,
        "180": 21,
        "181": 35,
        "182": 102,
        "183": 158,
        "184": 185,
        "185": 20,
        "186": 217,
        "187": 246,
        "188": 232,
        "189": 145,
        "190": 160,
        "191": 241,
        "192": 48,
        "193": 153,
        "194": 83,
        "195": 219,
        "196": 23,
        "197": 9,
        "198": 223,
        "199": 10,
        "200": 54,
        "201": 89,
        "202": 152,
        "203": 118,
        "204": 82,
        "205": 147,
        "206": 41,
        "207": 105,
        "208": 115,
        "209": 159,
        "210": 76,
        "211": 75,
        "212": 185,
        "213": 50,
        "214": 240,
        "215": 54,
        "216": 204,
        "217": 86,
        "218": 84,
        "219": 31,
        "220": 86,
        "221": 247,
        "222": 6,
        "223": 148,
        "224": 129,
        "225": 33,
        "226": 181,
        "227": 203,
        "228": 182,
        "229": 69,
        "230": 208,
        "231": 139,
        "232": 65,
        "233": 162,
        "234": 186,
        "235": 217,
        "236": 234,
        "237": 132,
        "238": 47,
        "239": 118,
        "240": 235,
        "241": 143,
        "242": 20,
        "243": 71,
        "244": 82,
        "245": 241,
        "246": 9,
        "247": 9,
        "248": 241,
        "249": 230,
        "250": 45,
        "251": 146,
        "252": 106,
        "253": 205,
        "254": 116,
        "255": 177,
        "256": 238,
        "257": 178,
        "258": 212,
        "259": 71,
        "260": 130,
        "261": 41,
        "262": 21,
        "263": 87,
        "264": 33,
        "265": 3,
        "266": 249,
        "267": 175,
        "268": 189,
        "269": 188,
        "270": 12,
        "271": 123,
        "272": 49,
        "273": 34,
        "274": 203,
        "275": 186,
        "276": 56,
        "277": 235,
        "278": 160,
        "279": 48,
        "280": 193,
        "281": 74,
        "282": 0,
        "283": 50,
        "284": 61,
        "285": 66,
        "286": 38,
        "287": 10,
        "288": 197,
        "289": 72,
        "290": 25,
        "291": 13,
        "292": 39,
        "293": 211,
        "294": 188,
        "295": 177,
        "296": 118,
        "297": 92,
        "298": 156,
        "299": 93,
        "300": 241,
        "301": 142,
        "302": 71,
        "303": 77,
        "304": 127,
        "305": 202,
        "306": 182,
        "307": 98,
        "308": 64,
        "309": 249,
        "310": 174,
        "311": 183,
        "312": 47,
        "313": 11,
        "314": 13,
        "315": 70,
        "316": 198,
        "317": 206,
        "318": 155,
        "319": 222,
        "320": 252,
        "321": 241,
        "322": 7,
        "323": 145,
        "324": 158,
        "325": 230,
        "326": 76,
        "327": 212,
        "328": 68,
        "329": 247,
        "330": 235,
        "331": 135,
        "332": 113,
        "333": 118,
        "334": 65,
        "335": 123,
        "336": 12,
        "337": 247,
        "338": 222,
        "339": 71,
        "340": 189,
        "341": 122,
        "342": 18,
        "343": 101,
        "344": 170,
        "345": 11,
        "346": 166,
        "347": 5,
        "348": 97,
        "349": 28,
        "350": 63,
        "351": 33,
        "352": 32,
        "353": 152,
        "354": 90,
        "355": 12,
        "356": 233,
        "357": 106,
        "358": 43,
        "359": 88,
        "360": 78,
        "361": 145,
        "362": 138,
        "363": 223,
        "364": 238,
        "365": 169,
        "366": 103,
        "367": 211,
        "368": 193,
        "369": 86,
        "370": 230,
        "371": 229,
        "372": 204,
        "373": 203,
        "374": 187,
        "375": 128,
        "376": 17,
        "377": 34,
        "378": 229,
        "379": 21,
        "380": 22,
        "381": 213,
        "382": 45,
        "383": 13,
        "384": 235,
        "385": 204,
        "386": 12,
        "387": 191,
        "388": 80,
        "389": 4,
        "390": 97,
        "391": 181,
        "392": 94,
        "393": 1,
        "394": 142,
        "395": 42,
        "396": 231,
        "397": 163,
        "398": 56,
        "399": 187,
        "400": 70,
        "401": 253,
        "402": 6,
        "403": 74,
        "404": 122,
        "405": 10,
        "406": 14,
        "407": 165,
        "408": 255,
        "409": 96,
        "410": 98,
        "411": 246,
        "412": 201,
        "413": 234,
        "414": 216,
        "415": 48,
        "416": 185,
        "417": 1,
        "418": 130,
        "419": 115,
        "420": 54,
        "421": 17,
        "422": 70,
        "423": 101,
        "424": 142,
        "425": 130,
        "426": 89,
        "427": 119,
        "428": 223,
        "429": 184,
        "430": 60,
        "431": 219,
        "432": 135,
        "433": 75,
        "434": 19,
        "435": 8,
        "436": 253,
        "437": 184,
        "438": 198,
        "439": 24,
        "440": 100,
        "441": 14,
        "442": 155,
        "443": 2,
        "444": 147,
        "445": 156,
        "446": 154,
        "447": 82,
        "448": 234,
        "449": 160,
        "450": 59,
        "451": 155,
        "452": 193,
        "453": 118,
        "454": 110,
        "455": 223,
        "456": 55,
        "457": 88,
        "458": 62,
        "459": 3,
        "460": 166,
        "461": 190,
        "462": 183,
        "463": 36,
        "464": 218,
        "465": 98,
        "466": 251,
        "467": 26,
        "468": 180,
        "469": 18,
        "470": 49,
        "471": 255,
        "472": 131,
        "473": 110,
        "474": 144,
        "475": 199,
        "476": 49,
        "477": 20,
        "478": 164,
        "479": 95,
        "480": 102,
        "481": 45,
        "482": 4,
        "483": 161,
        "484": 192,
        "485": 241,
        "486": 101,
        "487": 27,
        "488": 159,
        "489": 199,
        "490": 30,
        "491": 195,
        "492": 247,
        "493": 125,
        "494": 128,
        "495": 103,
        "496": 51,
        "497": 146,
        "498": 27,
        "499": 162,
        "500": 2,
        "501": 206,
        "502": 122,
        "503": 81,
        "504": 10,
        "505": 122,
        "506": 145,
        "507": 94,
        "508": 250,
        "509": 24,
        "510": 157,
        "511": 53,
        "512": 69,
        "513": 142,
        "514": 129,
        "515": 215,
        "516": 201,
        "517": 180,
        "518": 130,
        "519": 147,
        "520": 41,
        "521": 30,
        "522": 251,
        "523": 36,
        "524": 254,
        "525": 174,
        "526": 126,
        "527": 120,
        "528": 9,
        "529": 156,
        "530": 15,
        "531": 223,
        "532": 13,
        "533": 49,
        "534": 196,
        "535": 166,
        "536": 227,
        "537": 166,
        "538": 16,
        "539": 36,
        "540": 212,
        "541": 230,
        "542": 101,
        "543": 93,
        "544": 179,
        "545": 37,
        "546": 123,
        "547": 45,
        "548": 77,
        "549": 255,
        "550": 226,
        "551": 141,
        "552": 118,
        "553": 64,
        "554": 149,
        "555": 158,
        "556": 189,
        "557": 27,
        "558": 185,
        "559": 192,
        "560": 77,
        "561": 43,
        "562": 59,
        "563": 212,
        "564": 78,
        "565": 84,
        "566": 133,
        "567": 0,
        "568": 180,
        "569": 132,
        "570": 122,
        "571": 161,
        "572": 113,
        "573": 128,
        "574": 107,
        "575": 68,
        "576": 201,
        "577": 238,
        "578": 177,
        "579": 131,
        "580": 78,
        "581": 101,
        "582": 87,
        "583": 153,
        "584": 36,
        "585": 162,
        "586": 62,
        "587": 14,
        "588": 123,
        "589": 40,
        "590": 212,
        "591": 10,
        "592": 19,
        "593": 29,
        "594": 160,
        "595": 29,
        "596": 41,
        "597": 30,
        "598": 56,
        "599": 12,
        "600": 174,
        "601": 143,
        "602": 153,
        "603": 52,
        "604": 251,
        "605": 208,
        "606": 82,
        "607": 200,
        "608": 71,
        "609": 119,
        "610": 50,
        "611": 104,
        "612": 223,
        "613": 157,
        "614": 198,
        "615": 77,
        "616": 40,
        "617": 237,
        "618": 163,
        "619": 107,
        "620": 148,
        "621": 85,
        "622": 110,
        "623": 33,
        "624": 90,
        "625": 17,
        "626": 93,
        "627": 46,
        "628": 19,
        "629": 250,
        "630": 104,
        "631": 254,
        "632": 217,
        "633": 170,
        "634": 191,
        "635": 43,
        "636": 99,
        "637": 128,
        "638": 100,
        "639": 5,
        "640": 41,
        "641": 148,
        "642": 93,
        "643": 17,
        "644": 216,
        "645": 141,
        "646": 8,
        "647": 186,
        "648": 204,
        "649": 182,
        "650": 223,
        "651": 186,
        "652": 42,
        "653": 186,
        "654": 129,
        "655": 4,
        "656": 86,
        "657": 124,
        "658": 142,
        "659": 188,
        "660": 156,
        "661": 180,
        "662": 185,
        "663": 23,
        "664": 73,
        "665": 249,
        "666": 143,
        "667": 169,
        "668": 156,
        "669": 157,
        "670": 88,
        "671": 143,
        "672": 128,
        "673": 51,
        "674": 221,
        "675": 219,
        "676": 216,
        "677": 178,
        "678": 191,
        "679": 122,
        "680": 47,
        "681": 178,
        "682": 126,
        "683": 69,
        "684": 92,
        "685": 36,
        "686": 106,
        "687": 194,
        "688": 91,
        "689": 243,
        "690": 248,
        "691": 102,
        "692": 50,
        "693": 126,
        "694": 33,
        "695": 149,
        "696": 136,
        "697": 9,
        "698": 167,
        "699": 54,
        "700": 94,
        "701": 62,
        "702": 73,
        "703": 60,
        "704": 220,
        "705": 248,
        "706": 189,
        "707": 170,
        "708": 140,
        "709": 202,
        "710": 205,
        "711": 144,
        "712": 95,
        "713": 121,
        "714": 16,
        "715": 69,
        "716": 136,
        "717": 84,
        "718": 106,
        "719": 230,
        "720": 76,
        "721": 44,
        "722": 199,
        "723": 162,
        "724": 15,
        "725": 89,
        "726": 25,
        "727": 183,
        "728": 228,
        "729": 85,
        "730": 90,
        "731": 240,
        "732": 237,
        "733": 73,
        "734": 149,
        "735": 97,
        "736": 88,
        "737": 2,
        "738": 111,
        "739": 121,
        "740": 138,
        "741": 164,
        "742": 14,
        "743": 191,
        "744": 204,
        "745": 19,
        "746": 191,
        "747": 144,
        "748": 212,
        "749": 175,
        "750": 169,
        "751": 182,
        "752": 204,
        "753": 226,
        "754": 142,
        "755": 117,
        "756": 158,
        "757": 159,
        "758": 161,
        "759": 25,
        "760": 139,
        "761": 166,
        "762": 224,
        "763": 47,
        "764": 83,
        "765": 252,
        "766": 71,
        "767": 166,
        "768": 175,
        "769": 149,
        "770": 92,
        "771": 169,
        "772": 111,
        "773": 97,
        "774": 154,
        "775": 105,
        "776": 133,
        "777": 95,
        "778": 205,
        "779": 92,
        "780": 92,
        "781": 103,
        "782": 185,
        "783": 126,
        "784": 182,
        "785": 87,
        "786": 187,
        "787": 6,
        "788": 54,
        "789": 149,
        "790": 195,
        "791": 179,
        "792": 84,
        "793": 40,
        "794": 10,
        "795": 159,
        "796": 104,
        "797": 115,
        "798": 189,
        "799": 56,
        "800": 162,
        "801": 9,
        "802": 23,
        "803": 222,
        "804": 217,
        "805": 212,
        "806": 15,
        "807": 58,
        "808": 235,
        "809": 149,
        "810": 26,
        "811": 22,
        "812": 148,
        "813": 87,
        "814": 198,
        "815": 47,
        "816": 22,
        "817": 173,
        "818": 125,
        "819": 91,
        "820": 145,
        "821": 100,
        "822": 89,
        "823": 14,
        "824": 200,
        "825": 241,
        "826": 19,
        "827": 215,
        "828": 186,
        "829": 248,
        "830": 40,
        "831": 25,
        "832": 34,
        "833": 30,
        "834": 183,
        "835": 179,
        "836": 148,
        "837": 140,
        "838": 67,
        "839": 216,
        "840": 113,
        "841": 80,
        "842": 57,
        "843": 110,
        "844": 152,
        "845": 243,
        "846": 236,
        "847": 95,
        "848": 40,
        "849": 117,
        "850": 158,
        "851": 205,
        "852": 219,
        "853": 124,
        "854": 162,
        "855": 103,
        "856": 86,
        "857": 82,
        "858": 68,
        "859": 103,
        "860": 200,
        "861": 197,
        "862": 33,
        "863": 200,
        "864": 214,
        "865": 77,
        "866": 190,
        "867": 218,
        "868": 143,
        "869": 228,
        "870": 156,
        "871": 176,
        "872": 61,
        "873": 161,
        "874": 104,
        "875": 7,
        "876": 203,
        "877": 39,
        "878": 92,
        "879": 164,
        "880": 107,
        "881": 85,
        "882": 167,
        "883": 122,
        "884": 207,
        "885": 64,
        "886": 54,
        "887": 30,
        "888": 213,
        "889": 15,
        "890": 58,
        "891": 58,
        "892": 9,
        "893": 223,
        "894": 210,
        "895": 100,
        "896": 107,
        "897": 240,
        "898": 3,
        "899": 100,
        "900": 71,
        "901": 5,
        "902": 10,
        "903": 204,
        "904": 224,
        "905": 241,
        "906": 99,
        "907": 64,
        "908": 74,
        "909": 161,
        "910": 183,
        "911": 181,
        "912": 130,
        "913": 141,
        "914": 164,
        "915": 195,
        "916": 201,
        "917": 142,
        "918": 145,
        "919": 112,
        "920": 174,
        "921": 64,
        "922": 175,
        "923": 247,
        "924": 71,
        "925": 152,
        "926": 76,
        "927": 170,
        "928": 43,
        "929": 64,
        "930": 235,
        "931": 251,
        "932": 237,
        "933": 212,
        "934": 90,
        "935": 119,
        "936": 14,
        "937": 98,
        "938": 22,
        "939": 116,
        "940": 244,
        "941": 204,
        "942": 104,
        "943": 146,
        "944": 174,
        "945": 68,
        "946": 85,
        "947": 84,
        "948": 40,
        "949": 94,
        "950": 248,
        "951": 214,
        "952": 22,
        "953": 18,
        "954": 215,
        "955": 107,
        "956": 4,
        "957": 254,
        "958": 13,
        "959": 37,
        "960": 68,
        "961": 158,
        "962": 199,
        "963": 110,
        "964": 128,
        "965": 73,
        "966": 57,
        "967": 85,
        "968": 107,
        "969": 1,
        "970": 158,
        "971": 205,
        "972": 164,
        "973": 138,
        "974": 106,
        "975": 17,
        "976": 28,
        "977": 106,
        "978": 203,
        "979": 140,
        "980": 131,
        "981": 148,
        "982": 18,
        "983": 227,
        "984": 216,
        "985": 32,
        "986": 170,
        "987": 170,
        "988": 219,
        "989": 131,
        "990": 70,
        "991": 169,
        "992": 12,
        "993": 200,
        "994": 123,
        "995": 196,
        "996": 53,
        "997": 180,
        "998": 72,
        "999": 95,
        "1000": 70,
        "1001": 102,
        "1002": 182,
        "1003": 254,
        "1004": 43,
        "1005": 72,
        "1006": 51,
        "1007": 141,
        "1008": 200,
        "1009": 86,
        "1010": 232,
        "1011": 73,
        "1012": 239,
        "1013": 124,
        "1014": 201,
        "1015": 171,
        "1016": 105,
        "1017": 51,
        "1018": 78,
        "1019": 136,
        "1020": 156,
        "1021": 234,
        "1022": 217,
        "1023": 68,
        "1024": 115,
        "1025": 44,
        "1026": 141,
        "1027": 32,
        "1028": 80,
        "1029": 250,
        "1030": 65,
        "1031": 124,
        "1032": 122,
        "1033": 102,
        "1034": 148,
        "1035": 60,
        "1036": 188,
        "1037": 43,
        "1038": 106,
        "1039": 188,
        "1040": 13,
        "1041": 41,
        "1042": 233,
        "1043": 206,
        "1044": 2,
        "1045": 2,
        "1046": 112,
        "1047": 200,
        "1048": 208,
        "1049": 102,
        "1050": 103,
        "1051": 113,
        "1052": 249,
        "1053": 18,
        "1054": 147,
        "1055": 134,
        "1056": 123,
        "1057": 248,
        "1058": 40,
        "1059": 61,
        "1060": 245,
        "1061": 121,
        "1062": 254,
        "1063": 97,
        "1064": 18,
        "1065": 23,
        "1066": 247,
        "1067": 213,
        "1068": 181,
        "1069": 157,
        "1070": 56,
        "1071": 76,
        "1072": 244,
        "1073": 25,
        "1074": 40,
        "1075": 251,
        "1076": 197,
        "1077": 132,
        "1078": 160,
        "1079": 201,
        "1080": 219,
        "1081": 59,
        "1082": 2,
        "1083": 146,
        "1084": 187,
        "1085": 92,
        "1086": 139,
        "1087": 15,
        "1088": 246,
        "1089": 123,
        "1090": 9,
        "1091": 158,
        "1092": 20,
        "1093": 124,
        "1094": 101,
        "1095": 150,
        "1096": 4,
        "1097": 121,
        "1098": 255,
        "1099": 196,
        "1100": 154,
        "1101": 107,
        "1102": 137,
        "1103": 39,
        "1104": 246,
        "1105": 236,
        "1106": 164,
        "1107": 69,
        "1108": 250,
        "1109": 166,
        "1110": 68,
        "1111": 210,
        "1112": 175,
        "1113": 233,
        "1114": 19,
        "1115": 21,
        "1116": 183,
        "1117": 206,
        "1118": 234,
        "1119": 9,
        "1120": 94,
        "1121": 176,
        "1122": 121,
        "1123": 168,
        "1124": 134,
        "1125": 201,
        "1126": 167,
        "1127": 85,
        "1128": 81,
        "1129": 91,
        "1130": 123,
        "1131": 143,
        "1132": 189,
        "1133": 239,
        "1134": 8,
        "1135": 92,
        "1136": 102,
        "1137": 185,
        "1138": 138,
        "1139": 199,
        "1140": 152,
        "1141": 204,
        "1142": 159,
        "1143": 225,
        "1144": 84,
        "1145": 144,
        "1146": 229,
        "1147": 252,
        "1148": 48,
        "1149": 199,
        "1150": 170,
        "1151": 241,
        "1152": 2,
        "1153": 27,
        "1154": 173,
        "1155": 148,
        "1156": 99,
        "1157": 198,
        "1158": 127,
        "1159": 233,
        "1160": 138,
        "1161": 72,
        "1162": 18,
        "1163": 248,
        "1164": 132,
        "1165": 145,
        "1166": 118,
        "1167": 31,
        "1168": 68,
        "1169": 59,
        "1170": 54,
        "1171": 139,
        "1172": 28,
        "1173": 171,
        "1174": 236,
        "1175": 11,
        "1176": 118,
        "1177": 206,
        "1178": 203,
        "1179": 198,
        "1180": 236,
        "1181": 122,
        "1182": 117,
        "1183": 212,
        "1184": 18,
        "1185": 79,
        "1186": 235,
        "1187": 135,
        "1188": 78,
        "1189": 224,
        "1190": 73,
        "1191": 71,
        "1192": 251,
        "1193": 236,
        "1194": 178,
        "1195": 223,
        "1196": 25,
        "1197": 35,
        "1198": 74,
        "1199": 102,
        "1200": 116,
        "1201": 70,
        "1202": 131,
        "1203": 70,
        "1204": 175,
        "1205": 115,
        "1206": 147,
        "1207": 77,
        "1208": 12,
        "1209": 77,
        "1210": 28,
        "1211": 176,
        "1212": 238,
        "1213": 160,
        "1214": 69,
        "1215": 158,
        "1216": 214,
        "1217": 216,
        "1218": 171,
        "1219": 168,
        "1220": 149,
        "1221": 14,
        "1222": 116,
        "1223": 171,
        "1224": 25,
        "1225": 56,
        "1226": 19,
        "1227": 61,
        "1228": 71,
        "1229": 95,
        "1230": 42,
        "1231": 182,
        "1232": 229,
        "1233": 151,
        "1234": 148,
        "1235": 95,
        "1236": 197,
        "1237": 251,
        "1238": 14,
        "1239": 153,
        "1240": 180,
        "1241": 220,
        "1242": 240,
        "1243": 183,
        "1244": 45,
        "1245": 236,
        "1246": 18,
        "1247": 178,
        "1248": 210,
        "1249": 27,
        "1250": 152,
        "1251": 180,
        "1252": 56,
        "1253": 110,
        "1254": 193,
        "1255": 52,
        "1256": 184,
        "1257": 17,
        "1258": 254,
        "1259": 30,
        "1260": 209,
        "1261": 2,
        "1262": 154,
        "1263": 109,
        "1264": 79,
        "1265": 84,
        "1266": 7,
        "1267": 34,
        "1268": 82,
        "1269": 226,
        "1270": 97,
        "1271": 158,
        "1272": 129,
        "1273": 246,
        "1274": 129,
        "1275": 218,
        "1276": 239,
        "1277": 218,
        "1278": 95,
        "1279": 170,
        "1280": 243,
        "1281": 21,
        "1282": 59,
        "1283": 170,
        "1284": 180,
        "1285": 172,
        "1286": 110,
        "1287": 234,
        "1288": 119,
        "1289": 222,
        "1290": 225,
        "1291": 200,
        "1292": 34,
        "1293": 69,
        "1294": 15,
        "1295": 34,
        "1296": 154,
        "1297": 136,
        "1298": 122,
        "1299": 246,
        "1300": 252,
        "1301": 61,
        "1302": 44,
        "1303": 183,
        "1304": 107,
        "1305": 139,
        "1306": 166,
        "1307": 72,
        "1308": 43,
        "1309": 240,
        "1310": 189,
        "1311": 82,
        "1312": 194,
        "1313": 74,
        "1314": 52,
        "1315": 245,
        "1316": 227,
        "1317": 227,
        "1318": 193,
        "1319": 90,
        "1320": 196,
        "1321": 14,
        "1322": 47,
        "1323": 250,
        "1324": 15,
        "1325": 202,
        "1326": 24,
        "1327": 171,
        "1328": 96,
        "1329": 69,
        "1330": 61,
        "1331": 58,
        "1332": 33,
        "1333": 39,
        "1334": 22,
        "1335": 189,
        "1336": 98,
        "1337": 34,
        "1338": 206,
        "1339": 28,
        "1340": 4,
        "1341": 72,
        "1342": 237,
        "1343": 137,
        "1344": 51,
        "1345": 46,
        "1346": 33,
        "1347": 251,
        "1348": 171,
        "1349": 175,
        "1350": 160,
        "1351": 23,
        "1352": 188,
        "1353": 172,
        "1354": 47,
        "1355": 23,
        "1356": 98,
        "1357": 184,
        "1358": 255,
        "1359": 225,
        "1360": 189,
        "1361": 125,
        "1362": 223,
        "1363": 162,
        "1364": 107,
        "1365": 24,
        "1366": 8,
        "1367": 230,
        "1368": 168,
        "1369": 173,
        "1370": 68,
        "1371": 37,
        "1372": 133,
        "1373": 101,
        "1374": 149,
        "1375": 182,
        "1376": 5,
        "1377": 214,
        "1378": 117,
        "1379": 69,
        "1380": 183,
        "1381": 117,
        "1382": 217,
        "1383": 92,
        "1384": 248,
        "1385": 178,
        "1386": 119,
        "1387": 66,
        "1388": 161,
        "1389": 172,
        "1390": 109,
        "1391": 39,
        "1392": 37,
        "1393": 123,
        "1394": 24,
        "1395": 199,
        "1396": 184,
        "1397": 30,
        "1398": 139,
        "1399": 88,
        "1400": 225,
        "1401": 1,
        "1402": 179,
        "1403": 179,
        "1404": 219,
        "1405": 61,
        "1406": 105,
        "1407": 220,
        "1408": 222,
        "1409": 233,
        "1410": 82,
        "1411": 21,
        "1412": 212,
        "1413": 122,
        "1414": 216,
        "1415": 195,
        "1416": 207,
        "1417": 34,
        "1418": 156,
        "1419": 182,
        "1420": 77,
        "1421": 16,
        "1422": 21,
        "1423": 63,
        "1424": 108,
        "1425": 181,
        "1426": 250,
        "1427": 130,
        "1428": 51,
        "1429": 118,
        "1430": 238,
        "1431": 88,
        "1432": 187,
        "1433": 193,
        "1434": 81,
        "1435": 180,
        "1436": 101,
        "1437": 48,
        "1438": 150,
        "1439": 208,
        "1440": 26,
        "1441": 168,
        "1442": 53,
        "1443": 34,
        "1444": 168,
        "1445": 170,
        "1446": 194,
        "1447": 100,
        "1448": 56,
        "1449": 40,
        "1450": 20,
        "1451": 239,
        "1452": 210,
        "1453": 85,
        "1454": 62,
        "1455": 138,
        "1456": 110,
        "1457": 110,
        "1458": 45,
        "1459": 16,
        "1460": 249,
        "1461": 93,
        "1462": 196,
        "1463": 254,
        "1464": 68,
        "1465": 236,
        "1466": 255,
        "1467": 90,
        "1468": 236,
        "1469": 148,
        "1470": 169,
        "1471": 65,
        "1472": 237,
        "1473": 185,
        "1474": 119,
        "1475": 120,
        "1476": 101,
        "1477": 118,
        "1478": 29,
        "1479": 109,
        "1480": 8,
        "1481": 220,
        "1482": 219,
        "1483": 192,
        "1484": 202,
        "1485": 137,
        "1486": 198,
        "1487": 38,
        "1488": 168,
        "1489": 98,
        "1490": 69,
        "1491": 219,
        "1492": 252,
        "1493": 215,
        "1494": 99,
        "1495": 80,
        "1496": 209,
        "1497": 51,
        "1498": 130,
        "1499": 244,
        "1500": 9,
        "1501": 194,
        "1502": 150,
        "1503": 255,
        "1504": 36,
        "1505": 201,
        "1506": 154,
        "1507": 188,
        "1508": 28,
        "1509": 17,
        "1510": 179,
        "1511": 127,
        "1512": 193,
        "1513": 225,
        "1514": 53,
        "1515": 14,
        "1516": 190,
        "1517": 188,
        "1518": 201,
        "1519": 107,
        "1520": 123,
        "1521": 170,
        "1522": 160,
        "1523": 81,
        "1524": 239,
        "1525": 187,
        "1526": 212,
        "1527": 115,
        "1528": 106,
        "1529": 7,
        "1530": 169,
        "1531": 86,
        "1532": 82,
        "1533": 185,
        "1534": 119,
        "1535": 69,
        "1536": 247,
        "1537": 201,
        "1538": 183,
        "1539": 36,
        "1540": 109,
        "1541": 208,
        "1542": 206,
        "1543": 58,
        "1544": 181,
        "1545": 51,
        "1546": 52,
        "1547": 152,
        "1548": 84,
        "1549": 66,
        "1550": 210,
        "1551": 132,
        "1552": 52,
        "1553": 12,
        "1554": 162,
        "1555": 134,
        "1556": 251,
        "1557": 145,
        "1558": 97,
        "1559": 97,
        "1560": 180,
        "1561": 190,
        "1562": 251,
        "1563": 228,
        "1564": 154,
        "1565": 199,
        "1566": 100,
        "1567": 227,
        "1568": 16,
        "1569": 186,
        "1570": 113,
        "1571": 226,
        "1572": 95,
        "1573": 210,
        "1574": 9,
        "1575": 175,
        "1576": 124,
        "1577": 73,
        "1578": 193,
        "1579": 126,
        "1580": 76,
        "1581": 230,
        "1582": 219,
        "1583": 236,
        "1584": 36,
        "1585": 111,
        "1586": 80,
        "1587": 111,
        "1588": 97,
        "1589": 53,
        "1590": 20,
        "1591": 78,
        "1592": 139,
        "1593": 136,
        "1594": 41,
        "1595": 24,
        "1596": 215,
        "1597": 244,
        "1598": 194,
        "1599": 12,
        "1600": 159,
        "1601": 121,
        "1602": 232,
        "1603": 194,
        "1604": 111,
        "1605": 208,
        "1606": 66,
        "1607": 194,
        "1608": 132,
        "1609": 199,
        "1610": 201,
        "1611": 26,
        "1612": 70,
        "1613": 57,
        "1614": 208,
        "1615": 196,
        "1616": 205,
        "1617": 24,
        "1618": 62,
        "1619": 221,
        "1620": 227,
        "1621": 172,
        "1622": 130,
        "1623": 96,
        "1624": 246,
        "1625": 38,
        "1626": 235,
        "1627": 84,
        "1628": 101,
        "1629": 247,
        "1630": 112,
        "1631": 63,
        "1632": 185,
        "1633": 233,
        "1634": 64,
        "1635": 150,
        "1636": 155,
        "1637": 221,
        "1638": 141,
        "1639": 46,
        "1640": 93,
        "1641": 177,
        "1642": 144,
        "1643": 20,
        "1644": 65,
        "1645": 11,
        "1646": 92,
        "1647": 97,
        "1648": 219,
        "1649": 231,
        "1650": 41,
        "1651": 182,
        "1652": 215,
        "1653": 74,
        "1654": 193,
        "1655": 30,
        "1656": 58,
        "1657": 251,
        "1658": 92,
        "1659": 55,
        "1660": 167,
        "1661": 47,
        "1662": 93,
        "1663": 151,
        "1664": 164,
        "1665": 241,
        "1666": 62,
        "1667": 35,
        "1668": 253,
        "1669": 48,
        "1670": 237,
        "1671": 165,
        "1672": 25,
        "1673": 0,
        "1674": 153,
        "1675": 67,
        "1676": 8,
        "1677": 93,
        "1678": 155,
        "1679": 83,
        "1680": 70,
        "1681": 222,
        "1682": 62,
        "1683": 29,
        "1684": 64,
        "1685": 229,
        "1686": 157,
        "1687": 5,
        "1688": 71,
        "1689": 176,
        "1690": 39,
        "1691": 226,
        "1692": 5,
        "1693": 233,
        "1694": 68,
        "1695": 47,
        "1696": 116,
        "1697": 48,
        "1698": 63,
        "1699": 183,
        "1700": 177,
        "1701": 184,
        "1702": 25,
        "1703": 228,
        "1704": 130,
        "1705": 121,
        "1706": 125,
        "1707": 218,
        "1708": 100,
        "1709": 210,
        "1710": 216,
        "1711": 154,
        "1712": 135,
        "1713": 101,
        "1714": 196,
        "1715": 81,
        "1716": 218,
        "1717": 170,
        "1718": 1,
        "1719": 177,
        "1720": 22,
        "1721": 72,
        "1722": 215,
        "1723": 250,
        "1724": 255,
        "1725": 27,
        "1726": 136,
        "1727": 51,
        "1728": 129,
        "1729": 54,
        "1730": 104,
        "1731": 78,
        "1732": 230,
        "1733": 37,
        "1734": 163,
        "1735": 78,
        "1736": 18,
        "1737": 240,
        "1738": 160,
        "1739": 235,
        "1740": 214,
        "1741": 70,
        "1742": 147,
        "1743": 56,
        "1744": 126,
        "1745": 107,
        "1746": 41,
        "1747": 208,
        "1748": 106,
        "1749": 113,
        "1750": 12,
        "1751": 138,
        "1752": 115,
        "1753": 254,
        "1754": 165,
        "1755": 134,
        "1756": 37,
        "1757": 101,
        "1758": 240,
        "1759": 64,
        "1760": 86,
        "1761": 89,
        "1762": 92,
        "1763": 178,
        "1764": 90,
        "1765": 230,
        "1766": 132,
        "1767": 222,
        "1768": 235,
        "1769": 100,
        "1770": 197,
        "1771": 202,
        "1772": 206,
        "1773": 174,
        "1774": 192,
        "1775": 125,
        "1776": 112,
        "1777": 220,
        "1778": 211,
        "1779": 207,
        "1780": 95,
        "1781": 108,
        "1782": 21,
        "1783": 254,
        "1784": 222,
        "1785": 37,
        "1786": 16,
        "1787": 217,
        "1788": 144,
        "1789": 137,
        "1790": 113,
        "1791": 33,
        "1792": 59,
        "1793": 92,
        "1794": 102,
        "1795": 101,
        "1796": 249,
        "1797": 232,
        "1798": 180,
        "1799": 46,
        "1800": 8,
        "1801": 53,
        "1802": 26,
        "1803": 148,
        "1804": 240,
        "1805": 199,
        "1806": 222,
        "1807": 168,
        "1808": 123,
        "1809": 122,
        "1810": 144,
        "1811": 165,
        "1812": 132,
        "1813": 161,
        "1814": 89,
        "1815": 215,
        "1816": 33,
        "1817": 58,
        "1818": 173,
        "1819": 144,
        "1820": 136,
        "1821": 19,
        "1822": 193,
        "1823": 55,
        "1824": 148,
        "1825": 82,
        "1826": 172,
        "1827": 167,
        "1828": 73,
        "1829": 35,
        "1830": 174,
        "1831": 8,
        "1832": 182,
        "1833": 200,
        "1834": 110,
        "1835": 163,
        "1836": 88,
        "1837": 202,
        "1838": 203,
        "1839": 123,
        "1840": 42,
        "1841": 185,
        "1842": 139,
        "1843": 6,
        "1844": 65,
        "1845": 52,
        "1846": 220,
        "1847": 199,
        "1848": 224,
        "1849": 183,
        "1850": 96,
        "1851": 224,
        "1852": 178,
        "1853": 4,
        "1854": 221,
        "1855": 205,
        "1856": 236,
        "1857": 203,
        "1858": 79,
        "1859": 81,
        "1860": 107,
        "1861": 27,
        "1862": 7,
        "1863": 239,
        "1864": 83,
        "1865": 140,
        "1866": 83,
        "1867": 71,
        "1868": 191,
        "1869": 61,
        "1870": 128,
        "1871": 188,
        "1872": 201,
        "1873": 156,
        "1874": 62,
        "1875": 47,
        "1876": 185,
        "1877": 172,
        "1878": 191,
        "1879": 217,
        "1880": 19,
        "1881": 162,
        "1882": 176,
        "1883": 12,
        "1884": 17,
        "1885": 95,
        "1886": 155,
        "1887": 232,
        "1888": 155,
        "1889": 218,
        "1890": 15,
        "1891": 245,
        "1892": 7,
        "1893": 34,
        "1894": 84,
        "1895": 136,
        "1896": 247,
        "1897": 142,
        "1898": 24,
        "1899": 45,
        "1900": 140,
        "1901": 227,
        "1902": 90,
        "1903": 199,
        "1904": 252,
        "1905": 61,
        "1906": 108,
        "1907": 152,
        "1908": 159,
        "1909": 113,
        "1910": 162,
        "1911": 101,
        "1912": 93,
        "1913": 226,
        "1914": 243,
        "1915": 255,
        "1916": 65,
        "1917": 119,
        "1918": 253,
        "1919": 166,
        "1920": 181,
        "1921": 224,
        "1922": 40,
        "1923": 32,
        "1924": 168,
        "1925": 109,
        "1926": 205,
        "1927": 126,
        "1928": 188,
        "1929": 240,
        "1930": 116,
        "1931": 151,
        "1932": 12,
        "1933": 120,
        "1934": 217,
        "1935": 3,
        "1936": 210,
        "1937": 185,
        "1938": 195,
        "1939": 243,
        "1940": 36,
        "1941": 170,
        "1942": 230,
        "1943": 143,
        "1944": 60,
        "1945": 25,
        "1946": 241,
        "1947": 125,
        "1948": 244,
        "1949": 50,
        "1950": 116,
        "1951": 112,
        "1952": 230,
        "1953": 162,
        "1954": 239,
        "1955": 32,
        "1956": 177,
        "1957": 185,
        "1958": 171,
        "1959": 96,
        "1960": 16,
        "1961": 118,
        "1962": 237,
        "1963": 7,
        "1964": 13,
        "1965": 74,
        "1966": 59,
        "1967": 176,
        "1968": 138,
        "1969": 37,
        "1970": 237,
        "1971": 240,
        "1972": 13,
        "1973": 140,
        "1974": 154,
        "1975": 49,
        "1976": 28,
        "1977": 184,
        "1978": 185,
        "1979": 29,
        "1980": 97,
        "1981": 54,
        "1982": 217,
        "1983": 4,
        "1984": 239,
        "1985": 111,
        "1986": 5,
        "1987": 147,
        "1988": 149,
        "1989": 15,
        "1990": 8,
        "1991": 126,
        "1992": 230,
        "1993": 61,
        "1994": 165,
        "1995": 101,
        "1996": 51,
        "1997": 104,
        "1998": 186,
        "1999": 73,
        "2000": 252,
        "2001": 247,
        "2002": 204,
        "2003": 85,
        "2004": 108,
        "2005": 227,
        "2006": 112,
        "2007": 201,
        "2008": 90,
        "2009": 76,
        "2010": 232,
        "2011": 223,
        "2012": 212,
        "2013": 203,
        "2014": 106,
        "2015": 30,
        "2016": 172,
        "2017": 221,
        "2018": 35,
        "2019": 183,
        "2020": 48,
        "2021": 211,
        "2022": 168,
        "2023": 56,
        "2024": 245,
        "2025": 17,
        "2026": 175,
        "2027": 178,
        "2028": 181,
        "2029": 237,
        "2030": 76,
        "2031": 19,
        "2032": 160,
        "2033": 95,
        "2034": 143,
        "2035": 153,
        "2036": 19,
        "2037": 255,
        "2038": 20,
        "2039": 52,
        "2040": 191,
        "2041": 71,
        "2042": 92,
        "2043": 21,
        "2044": 41,
        "2045": 227,
        "2046": 182,
        "2047": 81,
        "2048": 102,
        "2049": 81,
        "2050": 89,
        "2051": 26,
        "2052": 94,
        "2053": 199,
        "2054": 248,
        "2055": 158,
        "2056": 101,
        "2057": 175,
        "2058": 237,
        "2059": 216,
        "2060": 123,
        "2061": 144,
        "2062": 181,
        "2063": 6,
        "2064": 39,
        "2065": 164,
        "2066": 146,
        "2067": 120,
        "2068": 67,
        "2069": 90,
        "2070": 194,
        "2071": 205,
        "2072": 26,
        "2073": 104,
        "2074": 38,
        "2075": 184,
        "2076": 61,
        "2077": 176,
        "2078": 227,
        "2079": 24,
        "2080": 104,
        "2081": 3,
        "2082": 163,
        "2083": 84,
        "2084": 251,
        "2085": 242,
        "2086": 73,
        "2087": 101,
        "2088": 51,
        "2089": 9,
        "2090": 22,
        "2091": 203,
        "2092": 55,
        "2093": 144,
        "2094": 57,
        "2095": 29,
        "2096": 234,
        "2097": 189,
        "2098": 57,
        "2099": 111,
        "2100": 223,
        "2101": 175,
        "2102": 94,
        "2103": 219,
        "2104": 237,
        "2105": 100,
        "2106": 43,
        "2107": 33,
        "2108": 108,
        "2109": 69,
        "2110": 56,
        "2111": 179,
        "2112": 85,
        "2113": 39,
        "2114": 8,
        "2115": 229,
        "2116": 139,
        "2117": 110,
        "2118": 123,
        "2119": 188,
        "2120": 108,
        "2121": 118,
        "2122": 184,
        "2123": 89,
        "2124": 201,
        "2125": 28,
        "2126": 136,
        "2127": 203,
        "2128": 233,
        "2129": 232,
        "2130": 190,
        "2131": 251,
        "2132": 130,
        "2133": 172,
        "2134": 16,
        "2135": 36,
        "2136": 246,
        "2137": 61,
        "2138": 25,
        "2139": 91,
        "2140": 248,
        "2141": 238,
        "2142": 22,
        "2143": 122,
        "2144": 214,
        "2145": 21,
        "2146": 244,
        "2147": 100,
        "2148": 211,
        "2149": 41,
        "2150": 201,
        "2151": 113,
        "2152": 128,
        "2153": 86,
        "2154": 42,
        "2155": 104,
        "2156": 37,
        "2157": 20,
        "2158": 49,
        "2159": 133,
        "2160": 192,
        "2161": 115,
        "2162": 45,
        "2163": 112,
        "2164": 243,
        "2165": 223,
        "2166": 90,
        "2167": 243,
        "2168": 161,
        "2169": 29,
        "2170": 73,
        "2171": 146,
        "2172": 54,
        "2173": 178,
        "2174": 200,
        "2175": 216,
        "2176": 104,
        "2177": 109,
        "2178": 132,
        "2179": 102,
        "2180": 20,
        "2181": 110,
        "2182": 61,
        "2183": 53,
        "2184": 181,
        "2185": 167,
        "2186": 185,
        "2187": 123,
        "2188": 61,
        "2189": 239,
        "2190": 114,
        "2191": 180,
        "2192": 249,
        "2193": 167,
        "2194": 70,
        "2195": 207,
        "2196": 163,
        "2197": 49,
        "2198": 128,
        "2199": 221,
        "2200": 172,
        "2201": 87,
        "2202": 179,
        "2203": 201,
        "2204": 171,
        "2205": 225,
        "2206": 246,
        "2207": 53,
        "2208": 82,
        "2209": 118,
        "2210": 179,
        "2211": 121,
        "2212": 197,
        "2213": 97,
        "2214": 224,
        "2215": 134,
        "2216": 164,
        "2217": 237,
        "2218": 37,
        "2219": 121,
        "2220": 0,
        "2221": 103,
        "2222": 169,
        "2223": 81,
        "2224": 67,
        "2225": 107,
        "2226": 56,
        "2227": 39,
        "2228": 9,
        "2229": 226,
        "2230": 152,
        "2231": 191,
        "2232": 93,
        "2233": 3,
        "2234": 13,
        "2235": 115,
        "2236": 97,
        "2237": 49,
        "2238": 18,
        "2239": 161,
        "2240": 127,
        "2241": 187,
        "2242": 153,
        "2243": 51,
        "2244": 224,
        "2245": 117,
        "2246": 49,
        "2247": 173,
        "2248": 186,
        "2249": 157,
        "2250": 82,
        "2251": 170,
        "2252": 96,
        "2253": 160,
        "2254": 141,
        "2255": 98,
        "2256": 233,
        "2257": 133,
        "2258": 127,
        "2259": 234,
        "2260": 118,
        "2261": 195,
        "2262": 51,
        "2263": 38,
        "2264": 98,
        "2265": 38,
        "2266": 114,
        "2267": 12,
        "2268": 186,
        "2269": 150,
        "2270": 73,
        "2271": 130,
        "2272": 50,
        "2273": 217,
        "2274": 214,
        "2275": 43,
        "2276": 29,
        "2277": 207,
        "2278": 29,
        "2279": 193,
        "2280": 130,
        "2281": 213,
        "2282": 180,
        "2283": 139,
        "2284": 222,
        "2285": 246,
        "2286": 26,
        "2287": 163,
        "2288": 171,
        "2289": 181,
        "2290": 49,
        "2291": 197,
        "2292": 246,
        "2293": 238,
        "2294": 225,
        "2295": 67,
        "2296": 110,
        "2297": 127,
        "2298": 178,
        "2299": 81,
        "2300": 16,
        "2301": 44,
        "2302": 223,
        "2303": 136,
        "2304": 133,
        "2305": 113,
        "2306": 187,
        "2307": 211,
        "2308": 249,
        "2309": 107,
        "2310": 210,
        "2311": 32,
        "2312": 209,
        "2313": 30,
        "2314": 17,
        "2315": 211,
        "2316": 4,
        "2317": 151,
        "2318": 215,
        "2319": 170,
        "2320": 151,
        "2321": 118,
        "2322": 1,
        "2323": 26,
        "2324": 219,
        "2325": 13,
        "2326": 189,
        "2327": 198,
        "2328": 31,
        "2329": 172,
        "2330": 223,
        "2331": 238,
        "2332": 123,
        "2333": 35,
        "2334": 178,
        "2335": 99,
        "2336": 218,
        "2337": 108,
        "2338": 199,
        "2339": 87,
        "2340": 34,
        "2341": 167,
        "2342": 118,
        "2343": 236,
        "2344": 202,
        "2345": 47,
        "2346": 53,
        "2347": 131,
        "2348": 221,
        "2349": 229,
        "2350": 51,
        "2351": 82,
        "2352": 16,
        "2353": 142,
        "2354": 1,
        "2355": 52,
        "2356": 111,
        "2357": 127,
        "2358": 180,
        "2359": 252,
        "2360": 196,
        "2361": 131,
        "2362": 226,
        "2363": 8,
        "2364": 234,
        "2365": 46,
        "2366": 12,
        "2367": 253,
        "2368": 172,
        "2369": 76,
        "2370": 159,
        "2371": 244,
        "2372": 190,
        "2373": 40,
        "2374": 241,
        "2375": 86,
        "2376": 168,
        "2377": 244,
        "2378": 43,
        "2379": 75,
        "2380": 67,
        "2381": 131,
        "2382": 28,
        "2383": 155,
        "2384": 33,
        "2385": 214,
        "2386": 179,
        "2387": 27,
        "2388": 35,
        "2389": 56,
        "2390": 103,
        "2391": 166,
        "2392": 71,
        "2393": 182,
        "2394": 232,
        "2395": 188,
        "2396": 47,
        "2397": 211,
        "2398": 191,
        "2399": 127,
        "2400": 37,
        "2401": 163,
        "2402": 41,
        "2403": 96,
        "2404": 175,
        "2405": 3,
        "2406": 176,
        "2407": 2,
        "2408": 11,
        "2409": 11,
        "2410": 153,
        "2411": 222,
        "2412": 52,
        "2413": 172,
        "2414": 30,
        "2415": 13,
        "2416": 115,
        "2417": 236,
        "2418": 42,
        "2419": 208,
        "2420": 146,
        "2421": 173,
        "2422": 54,
        "2423": 72,
        "2424": 144,
        "2425": 64,
        "2426": 43,
        "2427": 107,
        "2428": 26,
        "2429": 240,
        "2430": 119,
        "2431": 20,
        "2432": 146,
        "2433": 208,
        "2434": 53,
        "2435": 54,
        "2436": 213,
        "2437": 60,
        "2438": 134,
        "2439": 229,
        "2440": 52,
        "2441": 150,
        "2442": 66,
        "2443": 32,
        "2444": 102,
        "2445": 239,
        "2446": 137,
        "2447": 200,
        "2448": 167,
        "2449": 52,
        "2450": 174,
        "2451": 253,
        "2452": 63,
        "2453": 120,
        "2454": 69,
        "2455": 77,
        "2456": 145,
        "2457": 98,
        "2458": 202,
        "2459": 87,
        "2460": 235,
        "2461": 15,
        "2462": 59,
        "2463": 148,
        "2464": 116,
        "2465": 99,
        "2466": 85,
        "2467": 38,
        "2468": 171,
        "2469": 254,
        "2470": 220,
        "2471": 78,
        "2472": 211,
        "2473": 91,
        "2474": 57,
        "2475": 139,
        "2476": 11,
        "2477": 103,
        "2478": 31,
        "2479": 162,
        "2480": 207,
        "2481": 164,
        "2482": 228,
        "2483": 129,
        "2484": 255,
        "2485": 206,
        "2486": 159,
        "2487": 36,
        "2488": 124,
        "2489": 210,
        "2490": 93,
        "2491": 29,
        "2492": 242,
        "2493": 50,
        "2494": 195,
        "2495": 95,
        "2496": 164,
        "2497": 143,
        "2498": 160,
        "2499": 90,
        "2500": 173,
        "2501": 31,
        "2502": 177,
        "2503": 234,
        "2504": 76,
        "2505": 216,
        "2506": 187,
        "2507": 240,
        "2508": 198,
        "2509": 137,
        "2510": 194,
        "2511": 164,
        "2512": 241,
        "2513": 244,
        "2514": 253,
        "2515": 133,
        "2516": 32,
        "2517": 0,
        "2518": 187,
        "2519": 85,
        "2520": 121,
        "2521": 34,
        "2522": 225,
        "2523": 124,
        "2524": 250,
        "2525": 146,
        "2526": 93,
        "2527": 40,
        "2528": 49,
        "2529": 97,
        "2530": 157,
        "2531": 105,
        "2532": 146,
        "2533": 129,
        "2534": 53,
        "2535": 225,
        "2536": 109,
        "2537": 7,
        "2538": 26,
        "2539": 93,
        "2540": 33,
        "2541": 119,
        "2542": 239,
        "2543": 13,
        "2544": 246,
        "2545": 47,
        "2546": 135,
        "2547": 48,
        "2548": 57,
        "2549": 244,
        "2550": 99,
        "2551": 109,
        "2552": 235,
        "2553": 251,
        "2554": 213,
        "2555": 203,
        "2556": 170,
        "2557": 168,
        "2558": 117,
        "2559": 120,
        "2560": 218,
        "2561": 20,
        "2562": 138,
        "2563": 185,
        "2564": 134,
        "2565": 139,
        "2566": 227,
        "2567": 94,
        "2568": 128,
        "2569": 139,
        "2570": 123,
        "2571": 183,
        "2572": 204,
        "2573": 168,
        "2574": 237,
        "2575": 181,
        "2576": 121,
        "2577": 56,
        "2578": 147,
        "2579": 237,
        "2580": 13,
        "2581": 20,
        "2582": 114,
        "2583": 137,
        "2584": 87,
        "2585": 20,
        "2586": 82,
        "2587": 150,
        "2588": 53,
        "2589": 241,
        "2590": 18,
        "2591": 56,
        "2592": 244,
        "2593": 110,
        "2594": 6,
        "2595": 127,
        "2596": 11,
        "2597": 233,
        "2598": 145,
        "2599": 204,
        "2600": 254,
        "2601": 202,
        "2602": 146,
        "2603": 192,
        "2604": 138,
        "2605": 251,
        "2606": 253,
        "2607": 178,
        "2608": 208,
        "2609": 45,
        "2610": 68,
        "2611": 243,
        "2612": 236,
        "2613": 128,
        "2614": 82,
        "2615": 72,
        "2616": 137,
        "2617": 142,
        "2618": 216,
        "2619": 58,
        "2620": 60,
        "2621": 89,
        "2622": 220,
        "2623": 2,
        "2624": 192,
        "2625": 20,
        "2626": 192,
        "2627": 37,
        "2628": 100,
        "2629": 242,
        "2630": 157,
        "2631": 248,
        "2632": 210,
        "2633": 77,
        "2634": 177,
        "2635": 40,
        "2636": 252,
        "2637": 71,
        "2638": 168,
        "2639": 81,
        "2640": 85,
        "2641": 218,
        "2642": 74,
        "2643": 104,
        "2644": 228,
        "2645": 91,
        "2646": 197,
        "2647": 6,
        "2648": 244,
        "2649": 148,
        "2650": 28,
        "2651": 73,
        "2652": 8,
        "2653": 53,
        "2654": 35,
        "2655": 225,
        "2656": 1,
        "2657": 96,
        "2658": 44,
        "2659": 207,
        "2660": 31,
        "2661": 164,
        "2662": 192,
        "2663": 111,
        "2664": 48,
        "2665": 199,
        "2666": 175,
        "2667": 178,
        "2668": 229,
        "2669": 183,
        "2670": 239,
        "2671": 5,
        "2672": 192,
        "2673": 32,
        "2674": 13,
        "2675": 188,
        "2676": 228,
        "2677": 58,
        "2678": 91,
        "2679": 186,
        "2680": 103,
        "2681": 135,
        "2682": 233,
        "2683": 178,
        "2684": 246,
        "2685": 164,
        "2686": 149,
        "2687": 183,
        "2688": 214,
        "2689": 164,
        "2690": 74,
        "2691": 1,
        "2692": 121,
        "2693": 104,
        "2694": 206,
        "2695": 43,
        "2696": 145,
        "2697": 194,
        "2698": 33,
        "2699": 234,
        "2700": 196,
        "2701": 132,
        "2702": 32,
        "2703": 18,
        "2704": 29,
        "2705": 22,
        "2706": 181,
        "2707": 167,
        "2708": 7,
        "2709": 22,
        "2710": 120,
        "2711": 66,
        "2712": 255,
        "2713": 102,
        "2714": 162,
        "2715": 219,
        "2716": 189,
        "2717": 188,
        "2718": 58,
        "2719": 68,
        "2720": 43,
        "2721": 23,
        "2722": 123,
        "2723": 7,
        "2724": 230,
        "2725": 190,
        "2726": 83,
        "2727": 159,
        "2728": 251,
        "2729": 9,
        "2730": 99,
        "2731": 34,
        "2732": 63,
        "2733": 155,
        "2734": 143,
        "2735": 68,
        "2736": 33,
        "2737": 140,
        "2738": 166,
        "2739": 24,
        "2740": 47,
        "2741": 81,
        "2742": 158,
        "2743": 153,
        "2744": 234,
        "2745": 193,
        "2746": 215,
        "2747": 189,
        "2748": 191,
        "2749": 37,
        "2750": 196,
        "2751": 2,
        "2752": 34,
        "2753": 31,
        "2754": 114,
        "2755": 136,
        "2756": 85,
        "2757": 107,
        "2758": 178,
        "2759": 31,
        "2760": 117,
        "2761": 211,
        "2762": 80,
        "2763": 27,
        "2764": 79,
        "2765": 94,
        "2766": 217,
        "2767": 77,
        "2768": 218,
        "2769": 234,
        "2770": 242,
        "2771": 225,
        "2772": 166,
        "2773": 107,
        "2774": 108,
        "2775": 13,
        "2776": 133,
        "2777": 145,
        "2778": 36,
        "2779": 152,
        "2780": 38,
        "2781": 11,
        "2782": 134,
        "2783": 167,
        "2784": 32,
        "2785": 4,
        "2786": 199,
        "2787": 168,
        "2788": 187,
        "2789": 203,
        "2790": 174,
        "2791": 104,
        "2792": 195,
        "2793": 218,
        "2794": 74,
        "2795": 26,
        "2796": 100,
        "2797": 62,
        "2798": 241,
        "2799": 237,
        "2800": 131,
        "2801": 165,
        "2802": 120,
        "2803": 63,
        "2804": 203,
        "2805": 113,
        "2806": 43,
        "2807": 26,
        "2808": 18,
        "2809": 199,
        "2810": 107,
        "2811": 152,
        "2812": 63,
        "2813": 3,
        "2814": 223,
        "2815": 239,
        "2816": 106,
        "2817": 110,
        "2818": 57,
        "2819": 201,
        "2820": 50,
        "2821": 172,
        "2822": 3,
        "2823": 171,
        "2824": 58,
        "2825": 168,
        "2826": 127,
        "2827": 150,
        "2828": 176,
        "2829": 128,
        "2830": 242,
        "2831": 139,
        "2832": 174,
        "2833": 95,
        "2834": 202,
        "2835": 49,
        "2836": 53,
        "2837": 248,
        "2838": 60,
        "2839": 159,
        "2840": 226,
        "2841": 60,
        "2842": 253,
        "2843": 15,
        "2844": 162,
        "2845": 154,
        "2846": 29,
        "2847": 20,
        "2848": 197,
        "2849": 109,
        "2850": 26,
        "2851": 64,
        "2852": 248,
        "2853": 110,
        "2854": 240,
        "2855": 72,
        "2856": 173,
        "2857": 253,
        "2858": 45,
        "2859": 239,
        "2860": 75,
        "2861": 58,
        "2862": 146,
        "2863": 172,
        "2864": 10,
        "2865": 100,
        "2866": 131,
        "2867": 166,
        "2868": 158,
        "2869": 162,
        "2870": 10,
        "2871": 15,
        "2872": 30,
        "2873": 154,
        "2874": 178,
        "2875": 201,
        "2876": 199,
        "2877": 97,
        "2878": 223,
        "2879": 47,
        "2880": 39,
        "2881": 75,
        "2882": 57,
        "2883": 139,
        "2884": 51,
        "2885": 151,
        "2886": 206,
        "2887": 155,
        "2888": 222,
        "2889": 56,
        "2890": 171,
        "2891": 199,
        "2892": 127,
        "2893": 142,
        "2894": 166,
        "2895": 139,
        "2896": 184,
        "2897": 18,
        "2898": 243,
        "2899": 205,
        "2900": 113,
        "2901": 228,
        "2902": 43,
        "2903": 27,
        "2904": 160,
        "2905": 149,
        "2906": 249,
        "2907": 129,
        "2908": 188,
        "2909": 98,
        "2910": 50,
        "2911": 177,
        "2912": 55,
        "2913": 210,
        "2914": 171,
        "2915": 252,
        "2916": 253,
        "2917": 71,
        "2918": 74,
        "2919": 34,
        "2920": 32,
        "2921": 248,
        "2922": 164,
        "2923": 77,
        "2924": 66,
        "2925": 109,
        "2926": 242,
        "2927": 59,
        "2928": 177,
        "2929": 171,
        "2930": 56,
        "2931": 142,
        "2932": 228,
        "2933": 162,
        "2934": 17,
        "2935": 44,
        "2936": 134,
        "2937": 90,
        "2938": 105,
        "2939": 64,
        "2940": 50,
        "2941": 202,
        "2942": 135,
        "2943": 233,
        "2944": 182,
        "2945": 36,
        "2946": 102,
        "2947": 58,
        "2948": 21,
        "2949": 238,
        "2950": 72,
        "2951": 233,
        "2952": 65,
        "2953": 200,
        "2954": 7,
        "2955": 90,
        "2956": 112,
        "2957": 67,
        "2958": 242,
        "2959": 87,
        "2960": 33,
        "2961": 123,
        "2962": 112,
        "2963": 6,
        "2964": 234,
        "2965": 45,
        "2966": 254,
        "2967": 44,
        "2968": 146,
        "2969": 83,
        "2970": 151,
        "2971": 22,
        "2972": 125,
        "2973": 38,
        "2974": 91,
        "2975": 237,
        "2976": 233,
        "2977": 241,
        "2978": 71,
        "2979": 16,
        "2980": 126,
        "2981": 67,
        "2982": 248,
        "2983": 42,
        "2984": 156,
        "2985": 64,
        "2986": 11,
        "2987": 197,
        "2988": 143,
        "2989": 122,
        "2990": 59,
        "2991": 128,
        "2992": 51,
        "2993": 81,
        "2994": 64,
        "2995": 44,
        "2996": 67,
        "2997": 40,
        "2998": 206,
        "2999": 176,
        "3000": 122,
        "3001": 117,
        "3002": 75,
        "3003": 62,
        "3004": 121,
        "3005": 192,
        "3006": 12,
        "3007": 29,
        "3008": 53,
        "3009": 156,
        "3010": 164,
        "3011": 83,
        "3012": 184,
        "3013": 178,
        "3014": 108,
        "3015": 237,
        "3016": 247,
        "3017": 73,
        "3018": 52,
        "3019": 105,
        "3020": 210,
        "3021": 77,
        "3022": 181,
        "3023": 171,
        "3024": 20,
        "3025": 62,
        "3026": 108,
        "3027": 207,
        "3028": 193,
        "3029": 75,
        "3030": 193,
        "3031": 166,
        "3032": 235,
        "3033": 148,
        "3034": 253,
        "3035": 194,
        "3036": 122,
        "3037": 124,
        "3038": 158,
        "3039": 49,
        "3040": 169,
        "3041": 127,
        "3042": 22,
        "3043": 179,
        "3044": 87,
        "3045": 28,
        "3046": 180,
        "3047": 39,
        "3048": 167,
        "3049": 63,
        "3050": 57,
        "3051": 164,
        "3052": 14,
        "3053": 17,
        "3054": 225,
        "3055": 208,
        "3056": 113,
        "3057": 104,
        "3058": 143,
        "3059": 169,
        "3060": 230,
        "3061": 234,
        "3062": 241,
        "3063": 242,
        "3064": 87,
        "3065": 14,
        "3066": 61,
        "3067": 30,
        "3068": 186,
        "3069": 49,
        "3070": 63,
        "3071": 163,
        "3072": 86,
        "3073": 190,
        "3074": 190,
        "3075": 216,
        "3076": 112,
        "3077": 128,
        "3078": 255,
        "3079": 216,
        "3080": 191,
        "3081": 190,
        "3082": 253,
        "3083": 125,
        "3084": 33,
        "3085": 118,
        "3086": 91,
        "3087": 169,
        "3088": 41,
        "3089": 226,
        "3090": 127,
        "3091": 154,
        "3092": 49,
        "3093": 205,
        "3094": 245,
        "3095": 29,
        "3096": 199,
        "3097": 73,
        "3098": 105,
        "3099": 161,
        "3100": 97,
        "3101": 41,
        "3102": 31,
        "3103": 100,
        "3104": 149,
        "3105": 28,
        "3106": 130,
        "3107": 107,
        "3108": 101,
        "3109": 171,
        "3110": 104,
        "3111": 111,
        "3112": 228,
        "3113": 55,
        "3114": 254,
        "3115": 242,
        "3116": 131,
        "3117": 224,
        "3118": 120,
        "3119": 160,
        "3120": 255,
        "3121": 29,
        "3122": 61,
        "3123": 13,
        "3124": 68,
        "3125": 173,
        "3126": 167,
        "3127": 202,
        "3128": 15,
        "3129": 179,
        "3130": 75,
        "3131": 242,
        "3132": 55,
        "3133": 78,
        "3134": 161,
        "3135": 233,
        "3136": 77,
        "3137": 74,
        "3138": 117,
        "3139": 200,
        "3140": 233,
        "3141": 24,
        "3142": 75,
        "3143": 167,
        "3144": 167,
        "3145": 65,
        "3146": 0,
        "3147": 225,
        "3148": 11,
        "3149": 241,
        "3150": 18,
        "3151": 118,
        "3152": 36,
        "3153": 134,
        "3154": 117,
        "3155": 37,
        "3156": 51,
        "3157": 112,
        "3158": 69,
        "3159": 123,
        "3160": 183,
        "3161": 58,
        "3162": 38,
        "3163": 227,
        "3164": 31,
        "3165": 12,
        "3166": 108,
        "3167": 4,
        "3168": 128,
        "3169": 84,
        "3170": 125,
        "3171": 19,
        "3172": 106,
        "3173": 101,
        "3174": 40,
        "3175": 165,
        "3176": 50,
        "3177": 30,
        "3178": 29,
        "3179": 230,
        "3180": 120,
        "3181": 106,
        "3182": 50,
        "3183": 150,
        "3184": 104,
        "3185": 81,
        "3186": 88,
        "3187": 17,
        "3188": 174,
        "3189": 251,
        "3190": 249,
        "3191": 109,
        "3192": 57,
        "3193": 84,
        "3194": 18,
        "3195": 188,
        "3196": 30,
        "3197": 150,
        "3198": 4,
        "3199": 151,
        "3200": 185,
        "3201": 232,
        "3202": 52,
        "3203": 30,
        "3204": 215,
        "3205": 72,
        "3206": 213,
        "3207": 114,
        "3208": 246,
        "3209": 155,
        "3210": 54,
        "3211": 194,
        "3212": 8,
        "3213": 12,
        "3214": 32,
        "3215": 3,
        "3216": 107,
        "3217": 49,
        "3218": 212,
        "3219": 56,
        "3220": 89,
        "3221": 195,
        "3222": 63,
        "3223": 223,
        "3224": 112,
        "3225": 0,
        "3226": 78,
        "3227": 102,
        "3228": 60,
        "3229": 211,
        "3230": 154,
        "3231": 205,
        "3232": 217,
        "3233": 90,
        "3234": 5,
        "3235": 76,
        "3236": 86,
        "3237": 44,
        "3238": 61,
        "3239": 17,
        "3240": 146,
        "3241": 184,
        "3242": 204,
        "3243": 129,
        "3244": 11,
        "3245": 0,
        "3246": 56,
        "3247": 80,
        "3248": 234,
        "3249": 71,
        "3250": 175,
        "3251": 6,
        "3252": 144,
        "3253": 175,
        "3254": 204,
        "3255": 87,
        "3256": 209,
        "3257": 26,
        "3258": 51,
        "3259": 2,
        "3260": 231,
        "3261": 238,
        "3262": 41,
        "3263": 243,
        "3264": 207,
        "3265": 210,
        "3266": 248,
        "3267": 234,
        "3268": 167,
        "3269": 206,
        "3270": 101,
        "3271": 122,
        "3272": 138,
        "3273": 237,
        "3274": 167,
        "3275": 179,
        "3276": 100,
        "3277": 136,
        "3278": 34,
        "3279": 161,
        "3280": 189,
        "3281": 116,
        "3282": 221,
        "3283": 193,
        "3284": 250,
        "3285": 43,
        "3286": 75,
        "3287": 224,
        "3288": 174,
        "3289": 93,
        "3290": 226,
        "3291": 191,
        "3292": 87,
        "3293": 109,
        "3294": 35,
        "3295": 129,
        "3296": 146,
        "3297": 14,
        "3298": 230,
        "3299": 69,
        "3300": 95,
        "3301": 11,
        "3302": 252,
        "3303": 73,
        "3304": 47,
        "3305": 192,
        "3306": 195,
        "3307": 89,
        "3308": 92,
        "3309": 196,
        "3310": 156,
        "3311": 109,
        "3312": 191,
        "3313": 217,
        "3314": 173,
        "3315": 104,
        "3316": 108,
        "3317": 97,
        "3318": 253,
        "3319": 67,
        "3320": 22,
        "3321": 207,
        "3322": 120,
        "3323": 145,
        "3324": 52,
        "3325": 252,
        "3326": 189,
        "3327": 251,
        "3328": 174,
        "3329": 156,
        "3330": 172,
        "3331": 226,
        "3332": 92,
        "3333": 104,
        "3334": 44,
        "3335": 228,
        "3336": 37,
        "3337": 146,
        "3338": 190,
        "3339": 121,
        "3340": 5,
        "3341": 178,
        "3342": 135,
        "3343": 16,
        "3344": 220,
        "3345": 40,
        "3346": 236,
        "3347": 2,
        "3348": 154,
        "3349": 99,
        "3350": 57,
        "3351": 130,
        "3352": 89,
        "3353": 167,
        "3354": 219,
        "3355": 139,
        "3356": 79,
        "3357": 191,
        "3358": 232,
        "3359": 176,
        "3360": 193,
        "3361": 194,
        "3362": 27,
        "3363": 27,
        "3364": 35,
        "3365": 97,
        "3366": 246,
        "3367": 224,
        "3368": 111,
        "3369": 169,
        "3370": 12,
        "3371": 81,
        "3372": 55,
        "3373": 87,
        "3374": 242,
        "3375": 185,
        "3376": 240,
        "3377": 45,
        "3378": 87,
        "3379": 223,
        "3380": 19,
        "3381": 19,
        "3382": 246,
        "3383": 40,
        "3384": 61,
        "3385": 217,
        "3386": 139,
        "3387": 11,
        "3388": 249,
        "3389": 118,
        "3390": 234,
        "3391": 45,
        "3392": 189,
        "3393": 227,
        "3394": 133,
        "3395": 145,
        "3396": 245,
        "3397": 174,
        "3398": 24,
        "3399": 146,
        "3400": 105,
        "3401": 219,
        "3402": 69,
        "3403": 165,
        "3404": 255,
        "3405": 111,
        "3406": 186,
        "3407": 232,
        "3408": 158,
        "3409": 27,
        "3410": 36,
        "3411": 118,
        "3412": 42,
        "3413": 106,
        "3414": 127,
        "3415": 60,
        "3416": 48,
        "3417": 143,
        "3418": 51,
        "3419": 82,
        "3420": 145,
        "3421": 85,
        "3422": 141,
        "3423": 217,
        "3424": 82,
        "3425": 42,
        "3426": 85,
        "3427": 50,
        "3428": 202,
        "3429": 231,
        "3430": 132,
        "3431": 205,
        "3432": 207,
        "3433": 96,
        "3434": 78,
        "3435": 255,
        "3436": 96,
        "3437": 207,
        "3438": 166,
        "3439": 212,
        "3440": 237,
        "3441": 114,
        "3442": 239,
        "3443": 141,
        "3444": 154,
        "3445": 107,
        "3446": 87,
        "3447": 45,
        "3448": 62,
        "3449": 199,
        "3450": 83,
        "3451": 95,
        "3452": 187,
        "3453": 41,
        "3454": 188,
        "3455": 133,
        "3456": 139,
        "3457": 59,
        "3458": 60,
        "3459": 226,
        "3460": 143,
        "3461": 240,
        "3462": 165,
        "3463": 255,
        "3464": 202,
        "3465": 13,
        "3466": 170,
        "3467": 107,
        "3468": 68,
        "3469": 178,
        "3470": 150,
        "3471": 218,
        "3472": 99,
        "3473": 252,
        "3474": 18,
        "3475": 124,
        "3476": 144,
        "3477": 216,
        "3478": 167,
        "3479": 181,
        "3480": 146,
        "3481": 182,
        "3482": 117,
        "3483": 1,
        "3484": 184,
        "3485": 139,
        "3486": 189,
        "3487": 86,
        "3488": 119,
        "3489": 244,
        "3490": 18,
        "3491": 96,
        "3492": 226,
        "3493": 63,
        "3494": 18,
        "3495": 208,
        "3496": 108,
        "3497": 38,
        "3498": 244,
        "3499": 172,
        "3500": 74,
        "3501": 208,
        "3502": 27,
        "3503": 4,
        "3504": 98,
        "3505": 17,
        "3506": 45,
        "3507": 141,
        "3508": 254,
        "3509": 104,
        "3510": 217,
        "3511": 95,
        "3512": 92,
        "3513": 142,
        "3514": 159,
        "3515": 179,
        "3516": 168,
        "3517": 196,
        "3518": 77,
        "3519": 236,
        "3520": 238,
        "3521": 199,
        "3522": 154,
        "3523": 37,
        "3524": 131,
        "3525": 90,
        "3526": 86,
        "3527": 10,
        "3528": 154,
        "3529": 115,
        "3530": 36,
        "3531": 25,
        "3532": 73,
        "3533": 80,
        "3534": 212,
        "3535": 172,
        "3536": 85,
        "3537": 113,
        "3538": 147,
        "3539": 204,
        "3540": 18,
        "3541": 194,
        "3542": 177,
        "3543": 92,
        "3544": 65,
        "3545": 202,
        "3546": 246,
        "3547": 92,
        "3548": 103,
        "3549": 3,
        "3550": 67,
        "3551": 187,
        "3552": 211,
        "3553": 7,
        "3554": 235,
        "3555": 120,
        "3556": 25,
        "3557": 14,
        "3558": 55,
        "3559": 180,
        "3560": 193,
        "3561": 68,
        "3562": 202,
        "3563": 110,
        "3564": 211,
        "3565": 14,
        "3566": 244,
        "3567": 98,
        "3568": 164,
        "3569": 218,
        "3570": 243,
        "3571": 56,
        "3572": 247,
        "3573": 107,
        "3574": 111,
        "3575": 130,
        "3576": 235,
        "3577": 80,
        "3578": 223,
        "3579": 52,
        "3580": 10,
        "3581": 25,
        "3582": 237,
        "3583": 123,
        "3584": 74,
        "3585": 229,
        "3586": 184,
        "3587": 164,
        "3588": 233,
        "3589": 246,
        "3590": 70,
        "3591": 216,
        "3592": 91,
        "3593": 212,
        "3594": 111,
        "3595": 238,
        "3596": 117,
        "3597": 178,
        "3598": 111,
        "3599": 209,
        "3600": 48,
        "3601": 111,
        "3602": 164,
        "3603": 170,
        "3604": 157,
        "3605": 59,
        "3606": 149,
        "3607": 102,
        "3608": 21,
        "3609": 196,
        "3610": 154,
        "3611": 95,
        "3612": 15,
        "3613": 214,
        "3614": 153,
        "3615": 27,
        "3616": 3,
        "3617": 127,
        "3618": 27,
        "3619": 111,
        "3620": 148,
        "3621": 184,
        "3622": 34,
        "3623": 254,
        "3624": 128,
        "3625": 68,
        "3626": 216,
        "3627": 133,
        "3628": 70,
        "3629": 194,
        "3630": 79,
        "3631": 71,
        "3632": 62,
        "3633": 5,
        "3634": 242,
        "3635": 120,
        "3636": 183,
        "3637": 93,
        "3638": 115,
        "3639": 217,
        "3640": 186,
        "3641": 94,
        "3642": 46,
        "3643": 92,
        "3644": 196,
        "3645": 234,
        "3646": 11,
        "3647": 168,
        "3648": 221,
        "3649": 182,
        "3650": 25,
        "3651": 32,
        "3652": 161,
        "3653": 32,
        "3654": 131,
        "3655": 86,
        "3656": 65,
        "3657": 33,
        "3658": 151,
        "3659": 201,
        "3660": 41,
        "3661": 145,
        "3662": 221,
        "3663": 208,
        "3664": 18,
        "3665": 172,
        "3666": 222,
        "3667": 181,
        "3668": 123,
        "3669": 242,
        "3670": 233,
        "3671": 184,
        "3672": 239,
        "3673": 171,
        "3674": 84,
        "3675": 73,
        "3676": 70,
        "3677": 8,
        "3678": 121,
        "3679": 225,
        "3680": 222,
        "3681": 209,
        "3682": 29,
        "3683": 147,
        "3684": 144,
        "3685": 29,
        "3686": 85,
        "3687": 130,
        "3688": 65,
        "3689": 53,
        "3690": 178,
        "3691": 204,
        "3692": 14,
        "3693": 101,
        "3694": 133,
        "3695": 182,
        "3696": 183,
        "3697": 79,
        "3698": 217,
        "3699": 41,
        "3700": 130,
        "3701": 224,
        "3702": 7,
        "3703": 19,
        "3704": 7,
        "3705": 97,
        "3706": 185,
        "3707": 225,
        "3708": 154,
        "3709": 17,
        "3710": 4,
        "3711": 59,
        "3712": 133,
        "3713": 52,
        "3714": 177,
        "3715": 82,
        "3716": 60,
        "3717": 118,
        "3718": 224,
        "3719": 162,
        "3720": 239,
        "3721": 243,
        "3722": 132,
        "3723": 102,
        "3724": 162,
        "3725": 210,
        "3726": 71,
        "3727": 31,
        "3728": 246,
        "3729": 193,
        "3730": 142,
        "3731": 86,
        "3732": 70,
        "3733": 111,
        "3734": 8,
        "3735": 253,
        "3736": 48,
        "3737": 116,
        "3738": 0,
        "3739": 53,
        "3740": 238,
        "3741": 142,
        "3742": 127,
        "3743": 222,
        "3744": 116,
        "3745": 182,
        "3746": 52,
        "3747": 0,
        "3748": 102,
        "3749": 249,
        "3750": 160,
        "3751": 40,
        "3752": 119,
        "3753": 41,
        "3754": 112,
        "3755": 19,
        "3756": 131,
        "3757": 201,
        "3758": 107,
        "3759": 148,
        "3760": 66,
        "3761": 188,
        "3762": 11,
        "3763": 176,
        "3764": 171,
        "3765": 72,
        "3766": 30,
        "3767": 71,
        "3768": 183,
        "3769": 62,
        "3770": 17,
        "3771": 147,
        "3772": 176,
        "3773": 187,
        "3774": 11,
        "3775": 13,
        "3776": 25,
        "3777": 172,
        "3778": 68,
        "3779": 237,
        "3780": 77,
        "3781": 81,
        "3782": 194,
        "3783": 133,
        "3784": 198,
        "3785": 89,
        "3786": 24,
        "3787": 105,
        "3788": 139,
        "3789": 126,
        "3790": 182,
        "3791": 171,
        "3792": 14,
        "3793": 89,
        "3794": 168,
        "3795": 235,
        "3796": 143,
        "3797": 41,
        "3798": 245,
        "3799": 96,
        "3800": 26,
        "3801": 75,
        "3802": 86,
        "3803": 81,
        "3804": 152,
        "3805": 84,
        "3806": 106,
        "3807": 158,
        "3808": 82,
        "3809": 162,
        "3810": 58,
        "3811": 11,
        "3812": 40,
        "3813": 68,
        "3814": 98,
        "3815": 80,
        "3816": 2,
        "3817": 20,
        "3818": 254,
        "3819": 41,
        "3820": 52,
        "3821": 72,
        "3822": 59,
        "3823": 79,
        "3824": 172,
        "3825": 226,
        "3826": 245,
        "3827": 20,
        "3828": 221,
        "3829": 156,
        "3830": 166,
        "3831": 157,
        "3832": 150,
        "3833": 144,
        "3834": 192,
        "3835": 175,
        "3836": 118,
        "3837": 220,
        "3838": 204,
        "3839": 97,
        "3840": 139,
        "3841": 16,
        "3842": 117,
        "3843": 149,
        "3844": 97,
        "3845": 4,
        "3846": 31,
        "3847": 100,
        "3848": 199,
        "3849": 3,
        "3850": 87,
        "3851": 155,
        "3852": 30,
        "3853": 207,
        "3854": 154,
        "3855": 113,
        "3856": 136,
        "3857": 152,
        "3858": 146,
        "3859": 191,
        "3860": 11,
        "3861": 192,
        "3862": 120,
        "3863": 67,
        "3864": 119,
        "3865": 247,
        "3866": 49,
        "3867": 211,
        "3868": 47,
        "3869": 121,
        "3870": 28,
        "3871": 107,
        "3872": 120,
        "3873": 110,
        "3874": 76,
        "3875": 202,
        "3876": 19,
        "3877": 99,
        "3878": 38,
        "3879": 188,
        "3880": 154,
        "3881": 22,
        "3882": 168,
        "3883": 65,
        "3884": 79,
        "3885": 175,
        "3886": 132,
        "3887": 239,
        "3888": 158,
        "3889": 16,
        "3890": 72,
        "3891": 226,
        "3892": 199,
        "3893": 226,
        "3894": 17,
        "3895": 59,
        "3896": 175,
        "3897": 204,
        "3898": 108,
        "3899": 28,
        "3900": 66,
        "3901": 198,
        "3902": 144,
        "3903": 74,
        "3904": 105,
        "3905": 5,
        "3906": 191,
        "3907": 232,
        "3908": 108,
        "3909": 80,
        "3910": 210,
        "3911": 161,
        "3912": 201,
        "3913": 151,
        "3914": 49,
        "3915": 89,
        "3916": 213,
        "3917": 218,
        "3918": 220,
        "3919": 150,
        "3920": 217,
        "3921": 249,
        "3922": 157,
        "3923": 102,
        "3924": 183,
        "3925": 196,
        "3926": 255,
        "3927": 25,
        "3928": 44,
        "3929": 80,
        "3930": 106,
        "3931": 3,
        "3932": 36,
        "3933": 161,
        "3934": 17,
        "3935": 255,
        "3936": 162,
        "3937": 179,
        "3938": 190,
        "3939": 25,
        "3940": 28,
        "3941": 104,
        "3942": 167,
        "3943": 184,
        "3944": 239,
        "3945": 45,
        "3946": 210,
        "3947": 81,
        "3948": 209,
        "3949": 69,
        "3950": 87,
        "3951": 55,
        "3952": 243,
        "3953": 185,
        "3954": 22,
        "3955": 57,
        "3956": 76,
        "3957": 61,
        "3958": 13,
        "3959": 14,
        "3960": 21,
        "3961": 131,
        "3962": 247,
        "3963": 50,
        "3964": 246,
        "3965": 130,
        "3966": 75,
        "3967": 145,
        "3968": 10,
        "3969": 248,
        "3970": 120,
        "3971": 25,
        "3972": 105,
        "3973": 48,
        "3974": 135,
        "3975": 64,
        "3976": 204,
        "3977": 175,
        "3978": 12,
        "3979": 184,
        "3980": 106,
        "3981": 232,
        "3982": 206,
        "3983": 38,
        "3984": 78,
        "3985": 163,
        "3986": 161,
        "3987": 222,
        "3988": 8,
        "3989": 65,
        "3990": 178,
        "3991": 91,
        "3992": 2,
        "3993": 26,
        "3994": 127,
        "3995": 6,
        "3996": 53,
        "3997": 162,
        "3998": 25,
        "3999": 178,
        "4000": 119,
        "4001": 11,
        "4002": 220,
        "4003": 137,
        "4004": 237,
        "4005": 134,
        "4006": 56,
        "4007": 195,
        "4008": 182,
        "4009": 149,
        "4010": 27,
        "4011": 238,
        "4012": 102,
        "4013": 173,
        "4014": 202,
        "4015": 128,
        "4016": 63,
        "4017": 75,
        "4018": 13,
        "4019": 53,
        "4020": 20,
        "4021": 130,
        "4022": 35,
        "4023": 53,
        "4024": 154,
        "4025": 59,
        "4026": 221,
        "4027": 51,
        "4028": 165,
        "4029": 189,
        "4030": 62,
        "4031": 28,
        "4032": 88,
        "4033": 218,
        "4034": 57,
        "4035": 77,
        "4036": 177,
        "4037": 44,
        "4038": 243,
        "4039": 132,
        "4040": 146,
        "4041": 32,
        "4042": 61,
        "4043": 103,
        "4044": 165,
        "4045": 95,
        "4046": 24,
        "4047": 203,
        "4048": 72,
        "4049": 178,
        "4050": 106,
        "4051": 29,
        "4052": 105,
        "4053": 141,
        "4054": 136,
        "4055": 145,
        "4056": 110,
        "4057": 148,
        "4058": 101,
        "4059": 0,
        "4060": 189,
        "4061": 67,
        "4062": 146,
        "4063": 7,
        "4064": 245,
        "4065": 106,
        "4066": 139,
        "4067": 170,
        "4068": 195,
        "4069": 96,
        "4070": 96,
        "4071": 181,
        "4072": 200,
        "4073": 6,
        "4074": 88,
        "4075": 31,
        "4076": 172,
        "4077": 142,
        "4078": 53,
        "4079": 3,
        "4080": 45,
        "4081": 138,
        "4082": 91,
        "4083": 94,
        "4084": 179,
        "4085": 54,
        "4086": 55,
        "4087": 107,
        "4088": 246,
        "4089": 244,
        "4090": 77,
        "4091": 243,
        "4092": 97,
        "4093": 25,
        "4094": 103,
        "4095": 26,
        "4096": 200,
        "4097": 152,
        "4098": 209,
        "4099": 90,
        "4100": 150,
        "4101": 231,
        "4102": 83,
        "4103": 177,
        "4104": 136,
        "4105": 160,
        "4106": 161,
        "4107": 151,
        "4108": 91,
        "4109": 26,
        "4110": 232,
        "4111": 239,
        "4112": 161,
        "4113": 231,
        "4114": 210,
        "4115": 21,
        "4116": 43,
        "4117": 243,
        "4118": 114,
        "4119": 139,
        "4120": 26,
        "4121": 163,
        "4122": 0,
        "4123": 36,
        "4124": 7,
        "4125": 108,
        "4126": 189,
        "4127": 112,
        "4128": 156,
        "4129": 214,
        "4130": 9,
        "4131": 56,
        "4132": 160,
        "4133": 161,
        "4134": 239,
        "4135": 5,
        "4136": 209,
        "4137": 3,
        "4138": 235,
        "4139": 91,
        "4140": 10,
        "4141": 154,
        "4142": 142,
        "4143": 83,
        "4144": 173,
        "4145": 78,
        "4146": 254,
        "4147": 94,
        "4148": 180,
        "4149": 10,
        "4150": 220,
        "4151": 236,
        "4152": 199,
        "4153": 225,
        "4154": 206,
        "4155": 34,
        "4156": 150,
        "4157": 28,
        "4158": 184,
        "4159": 83,
        "4160": 195,
        "4161": 198,
        "4162": 57,
        "4163": 95,
        "4164": 212,
        "4165": 144,
        "4166": 138,
        "4167": 224,
        "4168": 75,
        "4169": 136,
        "4170": 131,
        "4171": 86,
        "4172": 165,
        "4173": 153,
        "4174": 81,
        "4175": 145,
        "4176": 65,
        "4177": 40,
        "4178": 140,
        "4179": 52,
        "4180": 165,
        "4181": 169,
        "4182": 179,
        "4183": 164,
        "4184": 3,
        "4185": 170,
        "4186": 121,
        "4187": 24,
        "4188": 87,
        "4189": 236,
        "4190": 190,
        "4191": 144,
        "4192": 136,
        "4193": 73,
        "4194": 251,
        "4195": 141,
        "4196": 252,
        "4197": 253,
        "4198": 128,
        "4199": 89,
        "4200": 170,
        "4201": 96,
        "4202": 147,
        "4203": 202,
        "4204": 166,
        "4205": 87,
        "4206": 97,
        "4207": 225,
        "4208": 202,
        "4209": 21,
        "4210": 99,
        "4211": 69,
        "4212": 22,
        "4213": 150,
        "4214": 85,
        "4215": 44,
        "4216": 214,
        "4217": 60,
        "4218": 101,
        "4219": 63,
        "4220": 178,
        "4221": 18,
        "4222": 13,
        "4223": 65,
        "4224": 61,
        "4225": 171,
        "4226": 217,
        "4227": 152,
        "4228": 7,
        "4229": 36,
        "4230": 68,
        "4231": 70,
        "4232": 150,
        "4233": 119,
        "4234": 56,
        "4235": 210,
        "4236": 49,
        "4237": 118,
        "4238": 21,
        "4239": 162,
        "4240": 212,
        "4241": 112,
        "4242": 246,
        "4243": 31,
        "4244": 138,
        "4245": 158,
        "4246": 250,
        "4247": 221,
        "4248": 121,
        "4249": 10,
        "4250": 118,
        "4251": 29,
        "4252": 167,
        "4253": 62,
        "4254": 133,
        "4255": 198,
        "4256": 165,
        "4257": 73,
        "4258": 73,
        "4259": 211,
        "4260": 18,
        "4261": 97,
        "4262": 224,
        "4263": 128,
        "4264": 196,
        "4265": 165,
        "4266": 106,
        "4267": 235,
        "4268": 221,
        "4269": 176,
        "4270": 108,
        "4271": 166,
        "4272": 207,
        "4273": 91,
        "4274": 16,
        "4275": 1,
        "4276": 61,
        "4277": 59,
        "4278": 94,
        "4279": 184,
        "4280": 60,
        "4281": 198,
        "4282": 93,
        "4283": 188,
        "4284": 65,
        "4285": 77,
        "4286": 237,
        "4287": 117,
        "4288": 212,
        "4289": 201,
        "4290": 51,
        "4291": 251,
        "4292": 107,
        "4293": 46,
        "4294": 41,
        "4295": 209,
        "4296": 18,
        "4297": 110,
        "4298": 157,
        "4299": 204,
        "4300": 173,
        "4301": 216,
        "4302": 214,
        "4303": 84,
        "4304": 161,
        "4305": 19,
        "4306": 41,
        "4307": 57,
        "4308": 119,
        "4309": 164,
        "4310": 223,
        "4311": 96,
        "4312": 30,
        "4313": 188,
        "4314": 217,
        "4315": 145,
        "4316": 119,
        "4317": 184,
        "4318": 58,
        "4319": 22,
        "4320": 116,
        "4321": 90,
        "4322": 178,
        "4323": 69,
        "4324": 227,
        "4325": 164,
        "4326": 81,
        "4327": 212,
        "4328": 4,
        "4329": 88,
        "4330": 179,
        "4331": 249,
        "4332": 191,
        "4333": 171,
        "4334": 19,
        "4335": 187,
        "4336": 45,
        "4337": 118,
        "4338": 169,
        "4339": 187,
        "4340": 184,
        "4341": 43,
        "4342": 108,
        "4343": 206,
        "4344": 148,
        "4345": 157,
        "4346": 94,
        "4347": 227,
        "4348": 55,
        "4349": 178,
        "4350": 84,
        "4351": 173,
        "4352": 219,
        "4353": 88,
        "4354": 41,
        "4355": 184,
        "4356": 109,
        "4357": 253,
        "4358": 166,
        "4359": 218,
        "4360": 196,
        "4361": 21,
        "4362": 125,
        "4363": 242,
        "4364": 46,
        "4365": 148,
        "4366": 203,
        "4367": 235,
        "4368": 150,
        "4369": 31,
        "4370": 43,
        "4371": 199,
        "4372": 54,
        "4373": 69,
        "4374": 223,
        "4375": 186,
        "4376": 130,
        "4377": 144,
        "4378": 149,
        "4379": 176,
        "4380": 247,
        "4381": 203,
        "4382": 159,
        "4383": 237,
        "4384": 0,
        "4385": 70,
        "4386": 99,
        "4387": 90,
        "4388": 152,
        "4389": 187,
        "4390": 250,
        "4391": 237,
        "4392": 31,
        "4393": 46,
        "4394": 158,
        "4395": 181,
        "4396": 242,
        "4397": 22,
        "4398": 61,
        "4399": 107,
        "4400": 60,
        "4401": 20,
        "4402": 231,
        "4403": 254,
        "4404": 98,
        "4405": 18,
        "4406": 109,
        "4407": 70,
        "4408": 183,
        "4409": 217,
        "4410": 173,
        "4411": 147,
        "4412": 242,
        "4413": 93,
        "4414": 139,
        "4415": 218,
        "4416": 193,
        "4417": 170,
        "4418": 73,
        "4419": 63,
        "4420": 11,
        "4421": 62,
        "4422": 16,
        "4423": 108,
        "4424": 226,
        "4425": 167,
        "4426": 103,
        "4427": 175,
        "4428": 46,
        "4429": 111,
        "4430": 244,
        "4431": 202,
        "4432": 69,
        "4433": 241,
        "4434": 2,
        "4435": 162,
        "4436": 240,
        "4437": 138,
        "4438": 179,
        "4439": 134,
        "4440": 116,
        "4441": 246,
        "4442": 230,
        "4443": 197,
        "4444": 231,
        "4445": 94,
        "4446": 149,
        "4447": 152,
        "4448": 244,
        "4449": 51,
        "4450": 32,
        "4451": 225,
        "4452": 213,
        "4453": 137,
        "4454": 209,
        "4455": 3,
        "4456": 211,
        "4457": 116,
        "4458": 150,
        "4459": 233,
        "4460": 32,
        "4461": 19,
        "4462": 57,
        "4463": 97,
        "4464": 74,
        "4465": 208,
        "4466": 10,
        "4467": 50,
        "4468": 143,
        "4469": 108,
        "4470": 156,
        "4471": 227,
        "4472": 217,
        "4473": 83,
        "4474": 47,
        "4475": 105,
        "4476": 186,
        "4477": 177,
        "4478": 15,
        "4479": 40,
        "4480": 19,
        "4481": 250,
        "4482": 101,
        "4483": 156,
        "4484": 53,
        "4485": 97,
        "4486": 60,
        "4487": 255,
        "4488": 95,
        "4489": 86,
        "4490": 116,
        "4491": 31,
        "4492": 250,
        "4493": 213,
        "4494": 191,
        "4495": 161,
        "4496": 150,
        "4497": 11,
        "4498": 249,
        "4499": 140,
        "4500": 32,
        "4501": 84,
        "4502": 195,
        "4503": 36,
        "4504": 23,
        "4505": 198,
        "4506": 47,
        "4507": 149,
        "4508": 112,
        "4509": 147,
        "4510": 199,
        "4511": 153,
        "4512": 1,
        "4513": 207,
        "4514": 171,
        "4515": 107,
        "4516": 94,
        "4517": 125,
        "4518": 108,
        "4519": 76,
        "4520": 230,
        "4521": 101,
        "4522": 28,
        "4523": 77,
        "4524": 170,
        "4525": 41,
        "4526": 195,
        "4527": 161,
        "4528": 112,
        "4529": 184,
        "4530": 129,
        "4531": 246,
        "4532": 218,
        "4533": 113,
        "4534": 163,
        "4535": 164,
        "4536": 167,
        "4537": 212,
        "4538": 162,
        "4539": 86,
        "4540": 26,
        "4541": 64,
        "4542": 198,
        "4543": 157,
        "4544": 73,
        "4545": 142,
        "4546": 28,
        "4547": 75,
        "4548": 243,
        "4549": 84,
        "4550": 239,
        "4551": 174,
        "4552": 93,
        "4553": 91,
        "4554": 163,
        "4555": 137,
        "4556": 250,
        "4557": 247,
        "4558": 211,
        "4559": 200,
        "4560": 174,
        "4561": 4,
        "4562": 33,
        "4563": 133,
        "4564": 166,
        "4565": 251,
        "4566": 0,
        "4567": 202,
        "4568": 142,
        "4569": 161,
        "4570": 162,
        "4571": 248,
        "4572": 61,
        "4573": 53,
        "4574": 199,
        "4575": 89,
        "4576": 63,
        "4577": 46,
        "4578": 204,
        "4579": 238,
        "4580": 10,
        "4581": 133,
        "4582": 94,
        "4583": 125,
        "4584": 203,
        "4585": 150,
        "4586": 35,
        "4587": 14,
        "4588": 118,
        "4589": 226,
        "4590": 32,
        "4591": 195,
        "4592": 98,
        "4593": 170,
        "4594": 199,
        "4595": 95,
        "4596": 83,
        "4597": 27,
        "4598": 66,
        "4599": 184,
        "4600": 58,
        "4601": 37,
        "4602": 175,
        "4603": 137,
        "4604": 241,
        "4605": 153,
        "4606": 176,
        "4607": 30,
        "4608": 193,
        "4609": 134,
        "4610": 114,
        "4611": 149,
        "4612": 249,
        "4613": 236,
        "4614": 34,
        "4615": 252,
        "4616": 96,
        "4617": 97,
        "4618": 55,
        "4619": 173,
        "4620": 3,
        "4621": 27,
        "4622": 99,
        "4623": 87,
        "4624": 147,
        "4625": 147,
        "4626": 36,
        "4627": 188,
        "4628": 238,
        "4629": 170,
        "4630": 113,
        "4631": 51,
        "4632": 2,
        "4633": 41,
        "4634": 54,
        "4635": 115,
        "4636": 227,
        "4637": 154,
        "4638": 12,
        "4639": 62,
        "4640": 72,
        "4641": 151,
        "4642": 103,
        "4643": 104,
        "4644": 53,
        "4645": 213,
        "4646": 53,
        "4647": 85,
        "4648": 179,
        "4649": 150,
        "4650": 72,
        "4651": 237,
        "4652": 179,
        "4653": 4,
        "4654": 104,
        "4655": 219,
        "4656": 55,
        "4657": 14,
        "4658": 233,
        "4659": 189,
        "4660": 91,
        "4661": 141,
        "4662": 203,
        "4663": 3,
        "4664": 211,
        "4665": 107,
        "4666": 177,
        "4667": 66,
        "4668": 168,
        "4669": 95,
        "4670": 177,
        "4671": 0,
        "4672": 1,
        "4673": 139,
        "4674": 5,
        "4675": 51,
        "4676": 33,
        "4677": 214,
        "4678": 249,
        "4679": 4,
        "4680": 178,
        "4681": 114,
        "4682": 44,
        "4683": 156,
        "4684": 100,
        "4685": 54,
        "4686": 139,
        "4687": 32,
        "4688": 128,
        "4689": 142,
        "4690": 130,
        "4691": 104,
        "4692": 90,
        "4693": 129,
        "4694": 237,
        "4695": 199,
        "4696": 129,
        "4697": 170,
        "4698": 252,
        "4699": 189,
        "4700": 90,
        "4701": 153,
        "4702": 152,
        "4703": 171,
        "4704": 68,
        "4705": 101,
        "4706": 235,
        "4707": 55,
        "4708": 62,
        "4709": 248,
        "4710": 236,
        "4711": 234,
        "4712": 220,
        "4713": 9,
        "4714": 182,
        "4715": 44,
        "4716": 112,
        "4717": 177,
        "4718": 153,
        "4719": 120,
        "4720": 1,
        "4721": 161,
        "4722": 65,
        "4723": 205,
        "4724": 228,
        "4725": 60,
        "4726": 144,
        "4727": 5,
        "4728": 198,
        "4729": 2,
        "4730": 202,
        "4731": 137,
        "4732": 237,
        "4733": 240,
        "4734": 145,
        "4735": 247,
        "4736": 246,
        "4737": 233,
        "4738": 120,
        "4739": 136,
        "4740": 153,
        "4741": 109,
        "4742": 8,
        "4743": 43,
        "4744": 171,
        "4745": 184,
        "4746": 20,
        "4747": 89,
        "4748": 32,
        "4749": 85,
        "4750": 83,
        "4751": 151,
        "4752": 97,
        "4753": 26,
        "4754": 131,
        "4755": 96,
        "4756": 36,
        "4757": 45,
        "4758": 207,
        "4759": 255,
        "4760": 46,
        "4761": 219,
        "4762": 117,
        "4763": 249,
        "4764": 48,
        "4765": 186,
        "4766": 158,
        "4767": 248,
        "4768": 207,
        "4769": 15,
        "4770": 61,
        "4771": 1,
        "4772": 81,
        "4773": 21,
        "4774": 125,
        "4775": 213,
        "4776": 143,
        "4777": 155,
        "4778": 48,
        "4779": 129,
        "4780": 76,
        "4781": 129,
        "4782": 88,
        "4783": 128,
        "4784": 4,
        "4785": 88,
        "4786": 75,
        "4787": 57,
        "4788": 134,
        "4789": 167,
        "4790": 228,
        "4791": 134,
        "4792": 220,
        "4793": 69,
        "4794": 49,
        "4795": 157,
        "4796": 248,
        "4797": 220,
        "4798": 203,
        "4799": 37,
        "4800": 119,
        "4801": 28,
        "4802": 116,
        "4803": 57,
        "4804": 120,
        "4805": 240,
        "4806": 205,
        "4807": 70,
        "4808": 71,
        "4809": 7,
        "4810": 10,
        "4811": 110,
        "4812": 167,
        "4813": 146,
        "4814": 105,
        "4815": 234,
        "4816": 233,
        "4817": 211,
        "4818": 131,
        "4819": 66,
        "4820": 220,
        "4821": 74,
        "4822": 130,
        "4823": 233,
        "4824": 105,
        "4825": 56,
        "4826": 219,
        "4827": 162,
        "4828": 12,
        "4829": 37,
        "4830": 182,
        "4831": 151,
        "4832": 178,
        "4833": 40,
        "4834": 84,
        "4835": 61,
        "4836": 237,
        "4837": 31,
        "4838": 209,
        "4839": 210,
        "4840": 170,
        "4841": 232,
        "4842": 227,
        "4843": 220,
        "4844": 3,
        "4845": 123,
        "4846": 146,
        "4847": 152,
        "4848": 22,
        "4849": 152,
        "4850": 236,
        "4851": 178,
        "4852": 172,
        "4853": 148,
        "4854": 176,
        "4855": 174,
        "4856": 147,
        "4857": 29,
        "4858": 7,
        "4859": 9,
        "4860": 165,
        "4861": 10,
        "4862": 58,
        "4863": 152,
        "4864": 11,
        "4865": 110,
        "4866": 8,
        "4867": 3,
        "4868": 105,
        "4869": 133,
        "4870": 179,
        "4871": 107,
        "4872": 222,
        "4873": 77,
        "4874": 195,
        "4875": 228,
        "4876": 161,
        "4877": 83,
        "4878": 79,
        "4879": 9,
        "4880": 70,
        "4881": 254,
        "4882": 241,
        "4883": 215,
        "4884": 90,
        "4885": 43,
        "4886": 12,
        "4887": 142,
        "4888": 117,
        "4889": 108,
        "4890": 170,
        "4891": 174,
        "4892": 38,
        "4893": 242,
        "4894": 9,
        "4895": 218,
        "4896": 103,
        "4897": 7,
        "4898": 231,
        "4899": 207,
        "4900": 171,
        "4901": 208,
        "4902": 123,
        "4903": 127,
        "4904": 99,
        "4905": 25,
        "4906": 71,
        "4907": 134,
        "4908": 36,
        "4909": 138,
        "4910": 72,
        "4911": 235,
        "4912": 138,
        "4913": 48,
        "4914": 215,
        "4915": 33,
        "4916": 78,
        "4917": 146,
        "4918": 39,
        "4919": 143,
        "4920": 18,
        "4921": 226,
        "4922": 42,
        "4923": 168,
        "4924": 79,
        "4925": 215,
        "4926": 189,
        "4927": 73,
        "4928": 56,
        "4929": 119,
        "4930": 78,
        "4931": 1,
        "4932": 199,
        "4933": 206,
        "4934": 93,
        "4935": 27,
        "4936": 190,
        "4937": 146,
        "4938": 212,
        "4939": 100,
        "4940": 28,
        "4941": 217,
        "4942": 144,
        "4943": 234,
        "4944": 199,
        "4945": 213,
        "4946": 227,
        "4947": 106,
        "4948": 175,
        "4949": 67,
        "4950": 114,
        "4951": 69,
        "4952": 7,
        "4953": 26,
        "4954": 35,
        "4955": 238,
        "4956": 205,
        "4957": 36,
        "4958": 19,
        "4959": 51,
        "4960": 9,
        "4961": 20,
        "4962": 159,
        "4963": 229,
        "4964": 180,
        "4965": 121,
        "4966": 77,
        "4967": 241,
        "4968": 89,
        "4969": 172,
        "4970": 219,
        "4971": 241,
        "4972": 150,
        "4973": 12,
        "4974": 93,
        "4975": 183,
        "4976": 92,
        "4977": 175,
        "4978": 208,
        "4979": 80,
        "4980": 12,
        "4981": 137,
        "4982": 232,
        "4983": 93,
        "4984": 17,
        "4985": 229,
        "4986": 183,
        "4987": 159,
        "4988": 206,
        "4989": 208,
        "4990": 125,
        "4991": 185,
        "4992": 150,
        "4993": 30,
        "4994": 74,
        "4995": 63,
        "4996": 214,
        "4997": 64,
        "4998": 233,
        "4999": 189,
        "5000": 122,
        "5001": 128,
        "5002": 234,
        "5003": 95,
        "5004": 81,
        "5005": 161,
        "5006": 215,
        "5007": 108,
        "5008": 86,
        "5009": 254,
        "5010": 244,
        "5011": 218,
        "5012": 105,
        "5013": 204,
        "5014": 241,
        "5015": 56,
        "5016": 175,
        "5017": 116,
        "5018": 133,
        "5019": 205,
        "5020": 32,
        "5021": 254,
        "5022": 4,
        "5023": 202,
        "5024": 114,
        "5025": 240,
        "5026": 153,
        "5027": 25,
        "5028": 74,
        "5029": 207,
        "5030": 124,
        "5031": 199,
        "5032": 169,
        "5033": 234,
        "5034": 33,
        "5035": 111,
        "5036": 51,
        "5037": 63,
        "5038": 114,
        "5039": 33,
        "5040": 87,
        "5041": 86,
        "5042": 52,
        "5043": 150,
        "5044": 49,
        "5045": 17,
        "5046": 191,
        "5047": 250,
        "5048": 16,
        "5049": 39,
        "5050": 206,
        "5051": 73,
        "5052": 119,
        "5053": 94,
        "5054": 102,
        "5055": 174,
        "5056": 158,
        "5057": 186,
        "5058": 12,
        "5059": 67,
        "5060": 93,
        "5061": 251,
        "5062": 170,
        "5063": 219,
        "5064": 196,
        "5065": 123,
        "5066": 186,
        "5067": 236,
        "5068": 176,
        "5069": 238,
        "5070": 42,
        "5071": 101,
        "5072": 80,
        "5073": 75,
        "5074": 247,
        "5075": 192,
        "5076": 220,
        "5077": 115,
        "5078": 119,
        "5079": 185,
        "5080": 150,
        "5081": 81,
        "5082": 195,
        "5083": 31,
        "5084": 135,
        "5085": 190,
        "5086": 193,
        "5087": 132,
        "5088": 0,
        "5089": 83,
        "5090": 148,
        "5091": 19,
        "5092": 28,
        "5093": 92,
        "5094": 163,
        "5095": 4,
        "5096": 212,
        "5097": 164,
        "5098": 46,
        "5099": 216,
        "5100": 217,
        "5101": 163,
        "5102": 231,
        "5103": 126,
        "5104": 155,
        "5105": 95,
        "5106": 52,
        "5107": 50,
        "5108": 79,
        "5109": 111,
        "5110": 206,
        "5111": 211,
        "5112": 195,
        "5113": 215,
        "5114": 67,
        "5115": 36,
        "5116": 53,
        "5117": 192,
        "5118": 69,
        "5119": 157,
        "5120": 104,
        "5121": 223,
        "5122": 251,
        "5123": 65,
        "5124": 206,
        "5125": 251,
        "5126": 111,
        "5127": 241,
        "5128": 206,
        "5129": 215,
        "5130": 71,
        "5131": 235,
        "5132": 150,
        "5133": 187,
        "5134": 83,
        "5135": 66,
        "5136": 145,
        "5137": 46,
        "5138": 180,
        "5139": 143,
        "5140": 123,
        "5141": 189,
        "5142": 80,
        "5143": 140,
        "5144": 140,
        "5145": 199,
        "5146": 78,
        "5147": 191,
        "5148": 231,
        "5149": 18,
        "5150": 216,
        "5151": 3,
        "5152": 193,
        "5153": 156,
        "5154": 251,
        "5155": 61,
        "5156": 22,
        "5157": 218,
        "5158": 122,
        "5159": 63,
        "5160": 55,
        "5161": 144,
        "5162": 190,
        "5163": 94,
        "5164": 145,
        "5165": 111,
        "5166": 141,
        "5167": 112,
        "5168": 95,
        "5169": 143,
        "5170": 33,
        "5171": 142,
        "5172": 126,
        "5173": 255,
        "5174": 220,
        "5175": 205,
        "5176": 5,
        "5177": 26,
        "5178": 249,
        "5179": 211,
        "5180": 16,
        "5181": 55,
        "5182": 26,
        "5183": 192,
        "5184": 119,
        "5185": 123,
        "5186": 125,
        "5187": 5,
        "5188": 21,
        "5189": 92,
        "5190": 189,
        "5191": 241,
        "5192": 48,
        "5193": 146,
        "5194": 86,
        "5195": 42,
        "5196": 56,
        "5197": 207,
        "5198": 128,
        "5199": 166,
        "5200": 248,
        "5201": 211,
        "5202": 232,
        "5203": 65,
        "5204": 0,
        "5205": 12,
        "5206": 65,
        "5207": 67,
        "5208": 47,
        "5209": 67,
        "5210": 230,
        "5211": 63,
        "5212": 93,
        "5213": 4,
        "5214": 196,
        "5215": 154,
        "5216": 215,
        "5217": 13,
        "5218": 216,
        "5219": 20,
        "5220": 222,
        "5221": 10,
        "5222": 41,
        "5223": 190,
        "5224": 151,
        "5225": 63,
        "5226": 165,
        "5227": 35,
        "5228": 73,
        "5229": 226,
        "5230": 10,
        "5231": 49,
        "5232": 172,
        "5233": 42,
        "5234": 194,
        "5235": 117,
        "5236": 0,
        "5237": 175,
        "5238": 66,
        "5239": 105,
        "5240": 202,
        "5241": 183,
        "5242": 206,
        "5243": 212,
        "5244": 94,
        "5245": 211,
        "5246": 73,
        "5247": 241,
        "5248": 187,
        "5249": 18,
        "5250": 76,
        "5251": 112,
        "5252": 21,
        "5253": 147,
        "5254": 51,
        "5255": 234,
        "5256": 35,
        "5257": 253,
        "5258": 147,
        "5259": 182,
        "5260": 192,
        "5261": 163,
        "5262": 157,
        "5263": 112,
        "5264": 143,
        "5265": 206,
        "5266": 36,
        "5267": 197,
        "5268": 95,
        "5269": 157,
        "5270": 109,
        "5271": 155,
        "5272": 246,
        "5273": 96,
        "5274": 113,
        "5275": 229,
        "5276": 126,
        "5277": 103,
        "5278": 29,
        "5279": 17,
        "5280": 45,
        "5281": 93,
        "5282": 130,
        "5283": 225,
        "5284": 159,
        "5285": 68,
        "5286": 171,
        "5287": 188,
        "5288": 228,
        "5289": 85,
        "5290": 80,
        "5291": 243,
        "5292": 4,
        "5293": 53,
        "5294": 85,
        "5295": 233,
        "5296": 168,
        "5297": 59,
        "5298": 52,
        "5299": 248,
        "5300": 187,
        "5301": 21,
        "5302": 198,
        "5303": 8,
        "5304": 228,
        "5305": 213,
        "5306": 171,
        "5307": 122,
        "5308": 58,
        "5309": 147,
        "5310": 189,
        "5311": 255,
        "5312": 85,
        "5313": 181,
        "5314": 218,
        "5315": 148,
        "5316": 152,
        "5317": 73,
        "5318": 46,
        "5319": 147,
        "5320": 33,
        "5321": 217,
        "5322": 163,
        "5323": 218,
        "5324": 30,
        "5325": 4,
        "5326": 219,
        "5327": 197,
        "5328": 145,
        "5329": 170,
        "5330": 204,
        "5331": 226,
        "5332": 86,
        "5333": 104,
        "5334": 6,
        "5335": 103,
        "5336": 119,
        "5337": 218,
        "5338": 165,
        "5339": 72,
        "5340": 92,
        "5341": 254,
        "5342": 240,
        "5343": 132,
        "5344": 122,
        "5345": 114,
        "5346": 68,
        "5347": 138,
        "5348": 64,
        "5349": 5,
        "5350": 36,
        "5351": 132,
        "5352": 125,
        "5353": 138,
        "5354": 217,
        "5355": 6,
        "5356": 166,
        "5357": 117,
        "5358": 176,
        "5359": 148,
        "5360": 180,
        "5361": 255,
        "5362": 228,
        "5363": 179,
        "5364": 219,
        "5365": 20,
        "5366": 186,
        "5367": 86,
        "5368": 88,
        "5369": 198,
        "5370": 13,
        "5371": 182,
        "5372": 252,
        "5373": 250,
        "5374": 190,
        "5375": 150,
        "5376": 130,
        "5377": 225,
        "5378": 160,
        "5379": 238,
        "5380": 50,
        "5381": 71,
        "5382": 77,
        "5383": 112,
        "5384": 250,
        "5385": 239,
        "5386": 135,
        "5387": 186,
        "5388": 252,
        "5389": 47,
        "5390": 99,
        "5391": 190,
        "5392": 14,
        "5393": 129,
        "5394": 64,
        "5395": 169,
        "5396": 241,
        "5397": 115,
        "5398": 180,
        "5399": 59,
        "5400": 157,
        "5401": 198,
        "5402": 9,
        "5403": 115,
        "5404": 217,
        "5405": 41,
        "5406": 16,
        "5407": 103,
        "5408": 226,
        "5409": 74,
        "5410": 46,
        "5411": 255,
        "5412": 183,
        "5413": 182,
        "5414": 73,
        "5415": 96,
        "5416": 58,
        "5417": 68,
        "5418": 45,
        "5419": 243,
        "5420": 35,
        "5421": 16,
        "5422": 188,
        "5423": 149,
        "5424": 230,
        "5425": 135,
        "5426": 62,
        "5427": 50,
        "5428": 153,
        "5429": 147,
        "5430": 205,
        "5431": 214,
        "5432": 19,
        "5433": 114,
        "5434": 214,
        "5435": 96,
        "5436": 39,
        "5437": 228,
        "5438": 245,
        "5439": 128,
        "5440": 98,
        "5441": 83,
        "5442": 66,
        "5443": 209,
        "5444": 236,
        "5445": 200,
        "5446": 244,
        "5447": 235,
        "5448": 208,
        "5449": 99,
        "5450": 192,
        "5451": 70,
        "5452": 15,
        "5453": 205,
        "5454": 0,
        "5455": 103,
        "5456": 137,
        "5457": 165,
        "5458": 158,
        "5459": 30,
        "5460": 203,
        "5461": 79,
        "5462": 18,
        "5463": 102,
        "5464": 88,
        "5465": 255,
        "5466": 176,
        "5467": 162,
        "5468": 17,
        "5469": 88,
        "5470": 20,
        "5471": 198,
        "5472": 76,
        "5473": 78,
        "5474": 7,
        "5475": 97,
        "5476": 69,
        "5477": 123,
        "5478": 33,
        "5479": 165,
        "5480": 83,
        "5481": 30,
        "5482": 64,
        "5483": 248,
        "5484": 11,
        "5485": 14,
        "5486": 187,
        "5487": 73,
        "5488": 200,
        "5489": 210,
        "5490": 17,
        "5491": 238,
        "5492": 161,
        "5493": 162,
        "5494": 5,
        "5495": 0,
        "5496": 176,
        "5497": 67,
        "5498": 29,
        "5499": 1,
        "5500": 92,
        "5501": 74,
        "5502": 231,
        "5503": 104,
        "5504": 163,
        "5505": 239,
        "5506": 218,
        "5507": 72,
        "5508": 205,
        "5509": 192,
        "5510": 37,
        "5511": 126,
        "5512": 151,
        "5513": 153,
        "5514": 47,
        "5515": 31,
        "5516": 111,
        "5517": 34,
        "5518": 134,
        "5519": 248,
        "5520": 42,
        "5521": 35,
        "5522": 255,
        "5523": 204,
        "5524": 187,
        "5525": 192,
        "5526": 51,
        "5527": 26,
        "5528": 182,
        "5529": 98,
        "5530": 179,
        "5531": 57,
        "5532": 96,
        "5533": 105,
        "5534": 79,
        "5535": 201,
        "5536": 28,
        "5537": 41,
        "5538": 39,
        "5539": 199,
        "5540": 139,
        "5541": 180,
        "5542": 191,
        "5543": 87,
        "5544": 70,
        "5545": 190,
        "5546": 39,
        "5547": 73,
        "5548": 159,
        "5549": 28,
        "5550": 219,
        "5551": 222,
        "5552": 91,
        "5553": 233,
        "5554": 143,
        "5555": 209,
        "5556": 224,
        "5557": 163,
        "5558": 15,
        "5559": 51,
        "5560": 171,
        "5561": 148,
        "5562": 54,
        "5563": 69,
        "5564": 34,
        "5565": 168,
        "5566": 244,
        "5567": 37,
        "5568": 221,
        "5569": 191,
        "5570": 187,
        "5571": 234,
        "5572": 10,
        "5573": 242,
        "5574": 98,
        "5575": 125,
        "5576": 249,
        "5577": 203,
        "5578": 252,
        "5579": 99,
        "5580": 69,
        "5581": 107,
        "5582": 255,
        "5583": 23,
        "5584": 160,
        "5585": 237,
        "5586": 121,
        "5587": 92,
        "5588": 60,
        "5589": 158,
        "5590": 16,
        "5591": 68,
        "5592": 111,
        "5593": 240,
        "5594": 62,
        "5595": 132,
        "5596": 45,
        "5597": 176,
        "5598": 230,
        "5599": 142,
        "5600": 4,
        "5601": 221,
        "5602": 2,
        "5603": 53,
        "5604": 229,
        "5605": 200,
        "5606": 206,
        "5607": 207,
        "5608": 20,
        "5609": 214,
        "5610": 92,
        "5611": 153,
        "5612": 143,
        "5613": 188,
        "5614": 63,
        "5615": 118,
        "5616": 161,
        "5617": 168,
        "5618": 28,
        "5619": 78,
        "5620": 156,
        "5621": 23,
        "5622": 74,
        "5623": 186,
        "5624": 113,
        "5625": 84,
        "5626": 39,
        "5627": 17,
        "5628": 83,
        "5629": 31,
        "5630": 118,
        "5631": 149,
        "5632": 93,
        "5633": 95,
        "5634": 111,
        "5635": 184,
        "5636": 54,
        "5637": 209,
        "5638": 234,
        "5639": 109,
        "5640": 6,
        "5641": 168,
        "5642": 57,
        "5643": 184,
        "5644": 121,
        "5645": 144,
        "5646": 233,
        "5647": 53,
        "5648": 231,
        "5649": 4,
        "5650": 217,
        "5651": 188,
        "5652": 125,
        "5653": 109,
        "5654": 9,
        "5655": 119,
        "5656": 23,
        "5657": 247,
        "5658": 39,
        "5659": 90,
        "5660": 64,
        "5661": 102,
        "5662": 186,
        "5663": 181,
        "5664": 13,
        "5665": 100,
        "5666": 237,
        "5667": 10,
        "5668": 135,
        "5669": 248,
        "5670": 254,
        "5671": 153,
        "5672": 186,
        "5673": 138,
        "5674": 230,
        "5675": 195,
        "5676": 46,
        "5677": 168,
        "5678": 42,
        "5679": 41,
        "5680": 30,
        "5681": 151,
        "5682": 227,
        "5683": 85,
        "5684": 235,
        "5685": 138,
        "5686": 227,
        "5687": 109,
        "5688": 216,
        "5689": 13,
        "5690": 115,
        "5691": 55,
        "5692": 5,
        "5693": 82,
        "5694": 245,
        "5695": 125,
        "5696": 205,
        "5697": 211,
        "5698": 79,
        "5699": 130,
        "5700": 28,
        "5701": 233,
        "5702": 181,
        "5703": 148,
        "5704": 48,
        "5705": 169,
        "5706": 156,
        "5707": 251,
        "5708": 15,
        "5709": 81,
        "5710": 214,
        "5711": 79,
        "5712": 201,
        "5713": 218,
        "5714": 81,
        "5715": 12,
        "5716": 38,
        "5717": 137,
        "5718": 112,
        "5719": 124,
        "5720": 140,
        "5721": 217,
        "5722": 250,
        "5723": 110,
        "5724": 151,
        "5725": 146,
        "5726": 176,
        "5727": 165,
        "5728": 203,
        "5729": 48,
        "5730": 68,
        "5731": 167,
        "5732": 37,
        "5733": 224,
        "5734": 106,
        "5735": 150,
        "5736": 12,
        "5737": 143,
        "5738": 29,
        "5739": 35,
        "5740": 206,
        "5741": 10,
        "5742": 226,
        "5743": 114,
        "5744": 201,
        "5745": 84,
        "5746": 65,
        "5747": 4,
        "5748": 55,
        "5749": 119,
        "5750": 93,
        "5751": 195,
        "5752": 197,
        "5753": 40,
        "5754": 134,
        "5755": 14,
        "5756": 93,
        "5757": 169,
        "5758": 183,
        "5759": 30,
        "5760": 134,
        "5761": 18,
        "5762": 148,
        "5763": 85,
        "5764": 104,
        "5765": 170,
        "5766": 83,
        "5767": 35,
        "5768": 227,
        "5769": 174,
        "5770": 167,
        "5771": 205,
        "5772": 49,
        "5773": 234,
        "5774": 46,
        "5775": 184,
        "5776": 134,
        "5777": 193,
        "5778": 212,
        "5779": 238,
        "5780": 15,
        "5781": 65,
        "5782": 245,
        "5783": 248,
        "5784": 250,
        "5785": 175,
        "5786": 218,
        "5787": 28,
        "5788": 218,
        "5789": 107,
        "5790": 134,
        "5791": 181,
        "5792": 217,
        "5793": 242,
        "5794": 118,
        "5795": 148,
        "5796": 189,
        "5797": 71,
        "5798": 218,
        "5799": 146,
        "5800": 84,
        "5801": 236,
        "5802": 87,
        "5803": 53,
        "5804": 192,
        "5805": 76,
        "5806": 218,
        "5807": 66,
        "5808": 205,
        "5809": 81,
        "5810": 176,
        "5811": 85,
        "5812": 166,
        "5813": 63,
        "5814": 164,
        "5815": 128,
        "5816": 130,
        "5817": 178,
        "5818": 191,
        "5819": 178,
        "5820": 216,
        "5821": 4,
        "5822": 251,
        "5823": 228,
        "5824": 60,
        "5825": 39,
        "5826": 100,
        "5827": 50,
        "5828": 101,
        "5829": 178,
        "5830": 26,
        "5831": 33,
        "5832": 80,
        "5833": 80,
        "5834": 241,
        "5835": 200,
        "5836": 28,
        "5837": 208,
        "5838": 182,
        "5839": 130,
        "5840": 255,
        "5841": 20,
        "5842": 91,
        "5843": 140,
        "5844": 204,
        "5845": 30,
        "5846": 132,
        "5847": 76,
        "5848": 47,
        "5849": 138,
        "5850": 160,
        "5851": 131,
        "5852": 37,
        "5853": 222,
        "5854": 30,
        "5855": 83,
        "5856": 29,
        "5857": 117,
        "5858": 48,
        "5859": 84,
        "5860": 194,
        "5861": 237,
        "5862": 235,
        "5863": 92,
        "5864": 68,
        "5865": 254,
        "5866": 26,
        "5867": 49,
        "5868": 58,
        "5869": 224,
        "5870": 100,
        "5871": 189,
        "5872": 136,
        "5873": 14,
        "5874": 250,
        "5875": 106,
        "5876": 229,
        "5877": 193,
        "5878": 173,
        "5879": 185,
        "5880": 91,
        "5881": 108,
        "5882": 163,
        "5883": 223,
        "5884": 97,
        "5885": 83,
        "5886": 232,
        "5887": 15,
        "5888": 55,
        "5889": 84,
        "5890": 221,
        "5891": 145,
        "5892": 95,
        "5893": 115,
        "5894": 103,
        "5895": 208,
        "5896": 60,
        "5897": 49,
        "5898": 175,
        "5899": 133,
        "5900": 182,
        "5901": 89,
        "5902": 0,
        "5903": 130,
        "5904": 60,
        "5905": 163,
        "5906": 191,
        "5907": 71,
        "5908": 168,
        "5909": 23,
        "5910": 46,
        "5911": 79,
        "5912": 163,
        "5913": 181,
        "5914": 94,
        "5915": 157,
        "5916": 227,
        "5917": 254,
        "5918": 72,
        "5919": 157,
        "5920": 25,
        "5921": 245,
        "5922": 210,
        "5923": 48,
        "5924": 32,
        "5925": 4,
        "5926": 203,
        "5927": 134,
        "5928": 47,
        "5929": 250,
        "5930": 88,
        "5931": 134,
        "5932": 218,
        "5933": 222,
        "5934": 153,
        "5935": 43,
        "5936": 195,
        "5937": 185,
        "5938": 38,
        "5939": 13,
        "5940": 208,
        "5941": 135,
        "5942": 171,
        "5943": 168,
        "5944": 169,
        "5945": 102,
        "5946": 128,
        "5947": 124,
        "5948": 221,
        "5949": 240,
        "5950": 7,
        "5951": 136,
        "5952": 195,
        "5953": 164,
        "5954": 146,
        "5955": 149,
        "5956": 119,
        "5957": 24,
        "5958": 108,
        "5959": 189,
        "5960": 185,
        "5961": 180,
        "5962": 48,
        "5963": 106,
        "5964": 223,
        "5965": 103,
        "5966": 217,
        "5967": 23,
        "5968": 21,
        "5969": 223,
        "5970": 192,
        "5971": 70,
        "5972": 247,
        "5973": 171,
        "5974": 134,
        "5975": 202,
        "5976": 50,
        "5977": 221,
        "5978": 216,
        "5979": 72,
        "5980": 156,
        "5981": 113,
        "5982": 67,
        "5983": 97,
        "5984": 22,
        "5985": 40,
        "5986": 6,
        "5987": 87,
        "5988": 50,
        "5989": 167,
        "5990": 240,
        "5991": 10,
        "5992": 29,
        "5993": 240,
        "5994": 223,
        "5995": 32,
        "5996": 207,
        "5997": 215,
        "5998": 184,
        "5999": 188,
        "6000": 221,
        "6001": 41,
        "6002": 44,
        "6003": 135,
        "6004": 164,
        "6005": 117,
        "6006": 236,
        "6007": 150,
        "6008": 69,
        "6009": 236,
        "6010": 34,
        "6011": 37,
        "6012": 145,
        "6013": 128,
        "6014": 91,
        "6015": 197,
        "6016": 44,
        "6017": 94,
        "6018": 122,
        "6019": 38,
        "6020": 243,
        "6021": 206,
        "6022": 195,
        "6023": 178,
        "6024": 251,
        "6025": 85,
        "6026": 83,
        "6027": 241,
        "6028": 254,
        "6029": 221,
        "6030": 27,
        "6031": 211,
        "6032": 155,
        "6033": 187,
        "6034": 51,
        "6035": 159,
        "6036": 39,
        "6037": 141,
        "6038": 33,
        "6039": 235,
        "6040": 186,
        "6041": 5,
        "6042": 186,
        "6043": 189,
        "6044": 64,
        "6045": 11,
        "6046": 4,
        "6047": 24,
        "6048": 171,
        "6049": 230,
        "6050": 12,
        "6051": 213,
        "6052": 25,
        "6053": 158,
        "6054": 27,
        "6055": 199,
        "6056": 96,
        "6057": 119,
        "6058": 238,
        "6059": 203,
        "6060": 209,
        "6061": 229,
        "6062": 168,
        "6063": 249,
        "6064": 211,
        "6065": 213,
        "6066": 10,
        "6067": 120,
        "6068": 170,
        "6069": 69,
        "6070": 194,
        "6071": 63,
        "6072": 164,
        "6073": 250,
        "6074": 195,
        "6075": 190,
        "6076": 75,
        "6077": 241,
        "6078": 182,
        "6079": 136,
        "6080": 135,
        "6081": 69,
        "6082": 194,
        "6083": 39,
        "6084": 114,
        "6085": 7,
        "6086": 145,
        "6087": 131,
        "6088": 53,
        "6089": 49,
        "6090": 220,
        "6091": 246,
        "6092": 94,
        "6093": 173,
        "6094": 250,
        "6095": 220,
        "6096": 35,
        "6097": 186,
        "6098": 247,
        "6099": 238,
        "6100": 205,
        "6101": 99,
        "6102": 30,
        "6103": 182,
        "6104": 219,
        "6105": 240,
        "6106": 135,
        "6107": 101,
        "6108": 1,
        "6109": 243,
        "6110": 114,
        "6111": 100,
        "6112": 150,
        "6113": 91,
        "6114": 249,
        "6115": 235,
        "6116": 66,
        "6117": 230,
        "6118": 160,
        "6119": 143,
        "6120": 73,
        "6121": 241,
        "6122": 98,
        "6123": 128,
        "6124": 196,
        "6125": 191,
        "6126": 85,
        "6127": 74,
        "6128": 147,
        "6129": 214,
        "6130": 164,
        "6131": 24,
        "6132": 143,
        "6133": 227,
        "6134": 65,
        "6135": 179,
        "6136": 71,
        "6137": 9,
        "6138": 243,
        "6139": 185,
        "6140": 107,
        "6141": 205,
        "6142": 141,
        "6143": 96,
        "6144": 216,
        "6145": 152,
        "6146": 184,
        "6147": 223,
        "6148": 88,
        "6149": 181,
        "6150": 236,
        "6151": 50,
        "6152": 253,
        "6153": 227,
        "6154": 138,
        "6155": 124,
        "6156": 117,
        "6157": 186,
        "6158": 164,
        "6159": 107,
        "6160": 26,
        "6161": 223,
        "6162": 224,
        "6163": 27,
        "6164": 231,
        "6165": 173,
        "6166": 62,
        "6167": 244,
        "6168": 183,
        "6169": 143,
        "6170": 9,
        "6171": 248,
        "6172": 177,
        "6173": 180,
        "6174": 112,
        "6175": 88,
        "6176": 182,
        "6177": 153,
        "6178": 21,
        "6179": 75,
        "6180": 92,
        "6181": 221,
        "6182": 246,
        "6183": 197,
        "6184": 31,
        "6185": 123,
        "6186": 19,
        "6187": 209,
        "6188": 18,
        "6189": 153,
        "6190": 227,
        "6191": 5,
        "6192": 183,
        "6193": 71,
        "6194": 13,
        "6195": 172,
        "6196": 161,
        "6197": 149,
        "6198": 129,
        "6199": 94,
        "6200": 137,
        "6201": 112,
        "6202": 134,
        "6203": 149,
        "6204": 19,
        "6205": 150,
        "6206": 235,
        "6207": 196,
        "6208": 124,
        "6209": 6,
        "6210": 238,
        "6211": 240,
        "6212": 124,
        "6213": 66,
        "6214": 161,
        "6215": 18,
        "6216": 53,
        "6217": 162,
        "6218": 207,
        "6219": 219,
        "6220": 233,
        "6221": 158,
        "6222": 73,
        "6223": 9,
        "6224": 3,
        "6225": 4,
        "6226": 113,
        "6227": 179,
        "6228": 226,
        "6229": 61,
        "6230": 126,
        "6231": 199,
        "6232": 177,
        "6233": 92,
        "6234": 212,
        "6235": 129,
        "6236": 160,
        "6237": 101,
        "6238": 155,
        "6239": 184,
        "6240": 206,
        "6241": 185,
        "6242": 52,
        "6243": 78,
        "6244": 152,
        "6245": 2,
        "6246": 209,
        "6247": 173,
        "6248": 165,
        "6249": 7,
        "6250": 186,
        "6251": 169,
        "6252": 69,
        "6253": 124,
        "6254": 24,
        "6255": 20,
        "6256": 155,
        "6257": 126,
        "6258": 71,
        "6259": 121,
        "6260": 123,
        "6261": 26,
        "6262": 177,
        "6263": 198,
        "6264": 129,
        "6265": 28,
        "6266": 173,
        "6267": 152,
        "6268": 230,
        "6269": 108,
        "6270": 208,
        "6271": 16,
        "6272": 14,
        "6273": 49,
        "6274": 68,
        "6275": 21,
        "6276": 116,
        "6277": 190,
        "6278": 158,
        "6279": 86,
        "6280": 253,
        "6281": 173,
        "6282": 30,
        "6283": 246,
        "6284": 168,
        "6285": 205,
        "6286": 180,
        "6287": 113,
        "6288": 218,
        "6289": 127,
        "6290": 167,
        "6291": 219,
        "6292": 213,
        "6293": 20,
        "6294": 156,
        "6295": 178,
        "6296": 110,
        "6297": 127,
        "6298": 105,
        "6299": 49,
        "6300": 184,
        "6301": 216,
        "6302": 105,
        "6303": 149,
        "6304": 83,
        "6305": 122,
        "6306": 167,
        "6307": 86,
        "6308": 133,
        "6309": 97,
        "6310": 107,
        "6311": 218,
        "6312": 197,
        "6313": 202,
        "6314": 132,
        "6315": 26,
        "6316": 72,
        "6317": 193,
        "6318": 11,
        "6319": 204,
        "6320": 125,
        "6321": 111,
        "6322": 234,
        "6323": 73,
        "6324": 154,
        "6325": 82,
        "6326": 148,
        "6327": 136,
        "6328": 230,
        "6329": 11,
        "6330": 240,
        "6331": 47,
        "6332": 245,
        "6333": 47,
        "6334": 126,
        "6335": 116,
        "6336": 33,
        "6337": 137,
        "6338": 54,
        "6339": 123,
        "6340": 16,
        "6341": 216,
        "6342": 65,
        "6343": 250,
        "6344": 162,
        "6345": 69,
        "6346": 81,
        "6347": 59,
        "6348": 129,
        "6349": 252,
        "6350": 45,
        "6351": 134,
        "6352": 168,
        "6353": 173,
        "6354": 252,
        "6355": 31,
        "6356": 215,
        "6357": 13,
        "6358": 55,
        "6359": 106,
        "6360": 165,
        "6361": 211,
        "6362": 35,
        "6363": 248,
        "6364": 135,
        "6365": 200,
        "6366": 187,
        "6367": 246,
        "6368": 129,
        "6369": 213,
        "6370": 239,
        "6371": 40,
        "6372": 172,
        "6373": 215,
        "6374": 102,
        "6375": 223,
        "6376": 90,
        "6377": 241,
        "6378": 228,
        "6379": 244,
        "6380": 222,
        "6381": 244,
        "6382": 51,
        "6383": 84,
        "6384": 13,
        "6385": 250,
        "6386": 217,
        "6387": 228,
        "6388": 132,
        "6389": 92,
        "6390": 25,
        "6391": 179,
        "6392": 230,
        "6393": 200,
        "6394": 249,
        "6395": 184,
        "6396": 210,
        "6397": 138,
        "6398": 170,
        "6399": 71,
        "6400": 126,
        "6401": 72,
        "6402": 106,
        "6403": 165,
        "6404": 216,
        "6405": 88,
        "6406": 192,
        "6407": 76,
        "6408": 106,
        "6409": 219,
        "6410": 105,
        "6411": 143,
        "6412": 76,
        "6413": 53,
        "6414": 23,
        "6415": 212,
        "6416": 229,
        "6417": 136,
        "6418": 249,
        "6419": 188,
        "6420": 231,
        "6421": 193,
        "6422": 158,
        "6423": 96,
        "6424": 200,
        "6425": 253,
        "6426": 113,
        "6427": 48,
        "6428": 135,
        "6429": 193,
        "6430": 193,
        "6431": 250,
        "6432": 195,
        "6433": 0,
        "6434": 1,
        "6435": 45,
        "6436": 58,
        "6437": 220,
        "6438": 245,
        "6439": 222,
        "6440": 97,
        "6441": 60,
        "6442": 4,
        "6443": 200,
        "6444": 15,
        "6445": 23,
        "6446": 207,
        "6447": 252,
        "6448": 251,
        "6449": 197,
        "6450": 92,
        "6451": 18,
        "6452": 106,
        "6453": 178,
        "6454": 80,
        "6455": 39,
        "6456": 96,
        "6457": 203,
        "6458": 85,
        "6459": 224,
        "6460": 168,
        "6461": 202,
        "6462": 211,
        "6463": 136,
        "6464": 12,
        "6465": 78,
        "6466": 212,
        "6467": 11,
        "6468": 219,
        "6469": 206,
        "6470": 168,
        "6471": 221,
        "6472": 141,
        "6473": 221,
        "6474": 32,
        "6475": 254,
        "6476": 66,
        "6477": 5,
        "6478": 147,
        "6479": 180,
        "6480": 119,
        "6481": 59,
        "6482": 143,
        "6483": 174,
        "6484": 112,
        "6485": 2,
        "6486": 92,
        "6487": 214,
        "6488": 37,
        "6489": 46,
        "6490": 111,
        "6491": 247,
        "6492": 30,
        "6493": 21,
        "6494": 18,
        "6495": 100,
        "6496": 106,
        "6497": 147,
        "6498": 252,
        "6499": 70,
        "6500": 246,
        "6501": 7,
        "6502": 234,
        "6503": 56,
        "6504": 144,
        "6505": 162,
        "6506": 45,
        "6507": 60,
        "6508": 80,
        "6509": 24,
        "6510": 14,
        "6511": 172,
        "6512": 244,
        "6513": 56,
        "6514": 149,
        "6515": 214,
        "6516": 230,
        "6517": 50,
        "6518": 239,
        "6519": 224,
        "6520": 202,
        "6521": 52,
        "6522": 22,
        "6523": 4,
        "6524": 124,
        "6525": 86,
        "6526": 102,
        "6527": 184,
        "6528": 178,
        "6529": 127,
        "6530": 140,
        "6531": 102,
        "6532": 128,
        "6533": 155,
        "6534": 254,
        "6535": 56,
        "6536": 175,
        "6537": 35,
        "6538": 81,
        "6539": 201,
        "6540": 9,
        "6541": 84,
        "6542": 196,
        "6543": 135,
        "6544": 239,
        "6545": 127,
        "6546": 37,
        "6547": 60,
        "6548": 56,
        "6549": 227,
        "6550": 133,
        "6551": 191,
        "6552": 218,
        "6553": 127,
        "6554": 9,
        "6555": 122,
        "6556": 152,
        "6557": 62,
        "6558": 97,
        "6559": 36,
        "6560": 106,
        "6561": 56,
        "6562": 138,
        "6563": 160,
        "6564": 175,
        "6565": 91,
        "6566": 125,
        "6567": 172,
        "6568": 252,
        "6569": 158,
        "6570": 134,
        "6571": 173,
        "6572": 188,
        "6573": 57,
        "6574": 254,
        "6575": 34,
        "6576": 233,
        "6577": 69,
        "6578": 250,
        "6579": 20,
        "6580": 153,
        "6581": 19,
        "6582": 131,
        "6583": 61,
        "6584": 236,
        "6585": 202,
        "6586": 60,
        "6587": 124,
        "6588": 176,
        "6589": 3,
        "6590": 176,
        "6591": 88,
        "6592": 60,
        "6593": 0,
        "6594": 232,
        "6595": 119,
        "6596": 2,
        "6597": 192,
        "6598": 132,
        "6599": 194,
        "6600": 220,
        "6601": 52,
        "6602": 5,
        "6603": 3,
        "6604": 86,
        "6605": 229,
        "6606": 170,
        "6607": 7,
        "6608": 135,
        "6609": 0,
        "6610": 53,
        "6611": 196,
        "6612": 148,
        "6613": 246,
        "6614": 207,
        "6615": 116,
        "6616": 152,
        "6617": 134,
        "6618": 18,
        "6619": 24,
        "6620": 46,
        "6621": 67,
        "6622": 107,
        "6623": 148,
        "6624": 98,
        "6625": 58,
        "6626": 124,
        "6627": 229,
        "6628": 236,
        "6629": 177,
        "6630": 149,
        "6631": 132,
        "6632": 31,
        "6633": 176,
        "6634": 77,
        "6635": 165,
        "6636": 19,
        "6637": 213,
        "6638": 182,
        "6639": 90,
        "6640": 249,
        "6641": 81,
        "6642": 110,
        "6643": 167,
        "6644": 21,
        "6645": 193,
        "6646": 164,
        "6647": 222,
        "6648": 42,
        "6649": 249,
        "6650": 119,
        "6651": 33,
        "6652": 45,
        "6653": 65,
        "6654": 167,
        "6655": 79,
        "6656": 205,
        "6657": 180,
        "6658": 64,
        "6659": 166,
        "6660": 178,
        "6661": 43,
        "6662": 121,
        "6663": 67,
        "6664": 161,
        "6665": 160,
        "6666": 204,
        "6667": 101,
        "6668": 72,
        "6669": 27,
        "6670": 88,
        "6671": 90,
        "6672": 144,
        "6673": 45,
        "6674": 36,
        "6675": 245,
        "6676": 55,
        "6677": 71,
        "6678": 104,
        "6679": 250,
        "6680": 118,
        "6681": 139,
        "6682": 122,
        "6683": 52,
        "6684": 68,
        "6685": 153,
        "6686": 90,
        "6687": 148,
        "6688": 158,
        "6689": 241,
        "6690": 167,
        "6691": 219,
        "6692": 82,
        "6693": 59,
        "6694": 236,
        "6695": 16,
        "6696": 154,
        "6697": 138,
        "6698": 95,
        "6699": 110,
        "6700": 91,
        "6701": 66,
        "6702": 61,
        "6703": 53,
        "6704": 39,
        "6705": 221,
        "6706": 31,
        "6707": 159,
        "6708": 103,
        "6709": 174,
        "6710": 38,
        "6711": 126,
        "6712": 245,
        "6713": 157,
        "6714": 177,
        "6715": 35,
        "6716": 4,
        "6717": 20,
        "6718": 114,
        "6719": 91,
        "6720": 32,
        "6721": 230,
        "6722": 21,
        "6723": 126,
        "6724": 128,
        "6725": 224,
        "6726": 60,
        "6727": 98,
        "6728": 118,
        "6729": 246,
        "6730": 231,
        "6731": 0,
        "6732": 215,
        "6733": 51,
        "6734": 54,
        "6735": 212,
        "6736": 113,
        "6737": 66,
        "6738": 103,
        "6739": 211,
        "6740": 248,
        "6741": 150,
        "6742": 225,
        "6743": 106,
        "6744": 13,
        "6745": 167,
        "6746": 111,
        "6747": 185,
        "6748": 99,
        "6749": 226,
        "6750": 38,
        "6751": 125,
        "6752": 187,
        "6753": 112,
        "6754": 94,
        "6755": 28,
        "6756": 135,
        "6757": 86,
        "6758": 130,
        "6759": 184,
        "6760": 136,
        "6761": 100,
        "6762": 166,
        "6763": 164,
        "6764": 205,
        "6765": 131,
        "6766": 11,
        "6767": 249,
        "6768": 23,
        "6769": 112,
        "6770": 107,
        "6771": 218,
        "6772": 86,
        "6773": 139,
        "6774": 33,
        "6775": 148,
        "6776": 2,
        "6777": 230,
        "6778": 98,
        "6779": 197,
        "6780": 224,
        "6781": 104,
        "6782": 109,
        "6783": 169,
        "6784": 185,
        "6785": 229,
        "6786": 126,
        "6787": 39,
        "6788": 107,
        "6789": 173,
        "6790": 38,
        "6791": 112,
        "6792": 125,
        "6793": 250,
        "6794": 201,
        "6795": 49,
        "6796": 230,
        "6797": 95,
        "6798": 242,
        "6799": 41,
        "6800": 148,
        "6801": 70,
        "6802": 88,
        "6803": 202,
        "6804": 110,
        "6805": 20,
        "6806": 253,
        "6807": 252,
        "6808": 225,
        "6809": 147,
        "6810": 237,
        "6811": 125,
        "6812": 106,
        "6813": 218,
        "6814": 136,
        "6815": 130,
        "6816": 85,
        "6817": 226,
        "6818": 136,
        "6819": 55,
        "6820": 27,
        "6821": 26,
        "6822": 174,
        "6823": 82,
        "6824": 161,
        "6825": 32,
        "6826": 184,
        "6827": 213,
        "6828": 1,
        "6829": 1,
        "6830": 63,
        "6831": 151,
        "6832": 230,
        "6833": 177,
        "6834": 143,
        "6835": 204,
        "6836": 95,
        "6837": 196,
        "6838": 19,
        "6839": 192,
        "6840": 103,
        "6841": 52,
        "6842": 214,
        "6843": 218,
        "6844": 96,
        "6845": 226,
        "6846": 155,
        "6847": 31,
        "6848": 194,
        "6849": 40,
        "6850": 54,
        "6851": 46,
        "6852": 213,
        "6853": 8,
        "6854": 111,
        "6855": 161,
        "6856": 214,
        "6857": 237,
        "6858": 173,
        "6859": 182,
        "6860": 90,
        "6861": 42,
        "6862": 9,
        "6863": 92,
        "6864": 254,
        "6865": 11,
        "6866": 126,
        "6867": 157,
        "6868": 211,
        "6869": 198,
        "6870": 179,
        "6871": 149,
        "6872": 123,
        "6873": 247,
        "6874": 51,
        "6875": 95,
        "6876": 208,
        "6877": 171,
        "6878": 55,
        "6879": 107,
        "6880": 183,
        "6881": 250,
        "6882": 178,
        "6883": 178,
        "6884": 190,
        "6885": 139,
        "6886": 159,
        "6887": 103,
        "6888": 5,
        "6889": 92,
        "6890": 25,
        "6891": 36,
        "6892": 162,
        "6893": 75,
        "6894": 66,
        "6895": 205,
        "6896": 137,
        "6897": 211,
        "6898": 183,
        "6899": 60,
        "6900": 118,
        "6901": 112,
        "6902": 253,
        "6903": 159,
        "6904": 159,
        "6905": 40,
        "6906": 248,
        "6907": 14,
        "6908": 15,
        "6909": 179,
        "6910": 200,
        "6911": 5,
        "6912": 103,
        "6913": 166,
        "6914": 63,
        "6915": 192,
        "6916": 98,
        "6917": 197,
        "6918": 185,
        "6919": 215,
        "6920": 220,
        "6921": 51,
        "6922": 168,
        "6923": 229,
        "6924": 185,
        "6925": 173,
        "6926": 207,
        "6927": 9,
        "6928": 199,
        "6929": 206,
        "6930": 74,
        "6931": 14,
        "6932": 128,
        "6933": 146,
        "6934": 7,
        "6935": 3,
        "6936": 130,
        "6937": 227,
        "6938": 166,
        "6939": 59,
        "6940": 125,
        "6941": 63,
        "6942": 137,
        "6943": 226,
        "6944": 243,
        "6945": 151,
        "6946": 196,
        "6947": 101,
        "6948": 56,
        "6949": 134,
        "6950": 184,
        "6951": 146,
        "6952": 24,
        "6953": 237,
        "6954": 37,
        "6955": 161,
        "6956": 220,
        "6957": 154,
        "6958": 225,
        "6959": 122,
        "6960": 213,
        "6961": 196,
        "6962": 235,
        "6963": 177,
        "6964": 145,
        "6965": 167,
        "6966": 233,
        "6967": 96,
        "6968": 156,
        "6969": 236,
        "6970": 98,
        "6971": 8,
        "6972": 24,
        "6973": 234,
        "6974": 167,
        "6975": 254,
        "6976": 209,
        "6977": 104,
        "6978": 78,
        "6979": 146,
        "6980": 8,
        "6981": 160,
        "6982": 36,
        "6983": 242,
        "6984": 246,
        "6985": 95,
        "6986": 9,
        "6987": 123,
        "6988": 16,
        "6989": 33,
        "6990": 220,
        "6991": 244,
        "6992": 67,
        "6993": 76,
        "6994": 187,
        "6995": 197,
        "6996": 247,
        "6997": 206,
        "6998": 5,
        "6999": 208,
        "7000": 109,
        "7001": 175,
        "7002": 168,
        "7003": 236,
        "7004": 63,
        "7005": 55,
        "7006": 94,
        "7007": 84,
        "7008": 98,
        "7009": 160,
        "7010": 8,
        "7011": 244,
        "7012": 231,
        "7013": 88,
        "7014": 142,
        "7015": 103,
        "7016": 164,
        "7017": 36,
        "7018": 177,
        "7019": 112,
        "7020": 172,
        "7021": 127,
        "7022": 23,
        "7023": 176,
        "7024": 40,
        "7025": 65,
        "7026": 105,
        "7027": 130,
        "7028": 171,
        "7029": 143,
        "7030": 70,
        "7031": 103,
        "7032": 168,
        "7033": 222,
        "7034": 45,
        "7035": 88,
        "7036": 106,
        "7037": 228,
        "7038": 38,
        "7039": 9,
        "7040": 56,
        "7041": 249,
        "7042": 64,
        "7043": 64,
        "7044": 195,
        "7045": 78,
        "7046": 12,
        "7047": 165,
        "7048": 17,
        "7049": 182,
        "7050": 165,
        "7051": 107,
        "7052": 41,
        "7053": 47,
        "7054": 92,
        "7055": 182,
        "7056": 156,
        "7057": 247,
        "7058": 166,
        "7059": 73,
        "7060": 182,
        "7061": 149,
        "7062": 237,
        "7063": 29,
        "7064": 47,
        "7065": 21,
        "7066": 32,
        "7067": 8,
        "7068": 60,
        "7069": 86,
        "7070": 109,
        "7071": 60,
        "7072": 83,
        "7073": 247,
        "7074": 223,
        "7075": 190,
        "7076": 8,
        "7077": 174,
        "7078": 212,
        "7079": 211,
        "7080": 1,
        "7081": 32,
        "7082": 200,
        "7083": 136,
        "7084": 196,
        "7085": 193,
        "7086": 177,
        "7087": 198,
        "7088": 9,
        "7089": 165,
        "7090": 199,
        "7091": 225,
        "7092": 227,
        "7093": 48,
        "7094": 237,
        "7095": 65,
        "7096": 155,
        "7097": 119,
        "7098": 90,
        "7099": 246,
        "7100": 172,
        "7101": 241,
        "7102": 177,
        "7103": 107,
        "7104": 242,
        "7105": 117,
        "7106": 214,
        "7107": 10,
        "7108": 228,
        "7109": 54,
        "7110": 227,
        "7111": 61,
        "7112": 112,
        "7113": 54,
        "7114": 20,
        "7115": 87,
        "7116": 213,
        "7117": 213,
        "7118": 169,
        "7119": 242,
        "7120": 5,
        "7121": 82,
        "7122": 14,
        "7123": 147,
        "7124": 170,
        "7125": 197,
        "7126": 85,
        "7127": 34,
        "7128": 31,
        "7129": 180,
        "7130": 138,
        "7131": 160,
        "7132": 89,
        "7133": 18,
        "7134": 20,
        "7135": 70,
        "7136": 37,
        "7137": 238,
        "7138": 221,
        "7139": 231,
        "7140": 153,
        "7141": 150,
        "7142": 12,
        "7143": 90,
        "7144": 247,
        "7145": 23,
        "7146": 167,
        "7147": 120,
        "7148": 164,
        "7149": 32,
        "7150": 16,
        "7151": 204,
        "7152": 199,
        "7153": 4,
        "7154": 82,
        "7155": 119,
        "7156": 23,
        "7157": 127,
        "7158": 117,
        "7159": 250,
        "7160": 82,
        "7161": 106,
        "7162": 222,
        "7163": 5,
        "7164": 171,
        "7165": 100,
        "7166": 35,
        "7167": 29,
        "7168": 189,
        "7169": 40,
        "7170": 34,
        "7171": 190,
        "7172": 187,
        "7173": 157,
        "7174": 54,
        "7175": 67,
        "7176": 3,
        "7177": 189,
        "7178": 7,
        "7179": 115,
        "7180": 2,
        "7181": 217,
        "7182": 223,
        "7183": 74,
        "7184": 130,
        "7185": 226,
        "7186": 19,
        "7187": 43,
        "7188": 77,
        "7189": 206,
        "7190": 237,
        "7191": 151,
        "7192": 44,
        "7193": 50,
        "7194": 92,
        "7195": 178,
        "7196": 5,
        "7197": 90,
        "7198": 178,
        "7199": 219,
        "7200": 191,
        "7201": 241,
        "7202": 136,
        "7203": 56,
        "7204": 10,
        "7205": 23,
        "7206": 95,
        "7207": 137,
        "7208": 28,
        "7209": 5,
        "7210": 73,
        "7211": 188,
        "7212": 139,
        "7213": 226,
        "7214": 108,
        "7215": 3,
        "7216": 187,
        "7217": 19,
        "7218": 137,
        "7219": 84,
        "7220": 212,
        "7221": 39,
        "7222": 160,
        "7223": 38,
        "7224": 252,
        "7225": 118,
        "7226": 168,
        "7227": 17,
        "7228": 225,
        "7229": 85,
        "7230": 60,
        "7231": 239,
        "7232": 130,
        "7233": 204,
        "7234": 72,
        "7235": 6,
        "7236": 36,
        "7237": 8,
        "7238": 70,
        "7239": 9,
        "7240": 53,
        "7241": 72,
        "7242": 90,
        "7243": 67,
        "7244": 132,
        "7245": 152,
        "7246": 7,
        "7247": 183,
        "7248": 47,
        "7249": 145,
        "7250": 196,
        "7251": 152,
        "7252": 161,
        "7253": 59,
        "7254": 249,
        "7255": 189,
        "7256": 95,
        "7257": 144,
        "7258": 200,
        "7259": 154,
        "7260": 67,
        "7261": 186,
        "7262": 244,
        "7263": 234,
        "7264": 78,
        "7265": 131,
        "7266": 76,
        "7267": 125,
        "7268": 218,
        "7269": 199,
        "7270": 62,
        "7271": 219,
        "7272": 66,
        "7273": 155,
        "7274": 11,
        "7275": 127,
        "7276": 138,
        "7277": 200,
        "7278": 105,
        "7279": 43,
        "7280": 177,
        "7281": 140,
        "7282": 176,
        "7283": 177,
        "7284": 135,
        "7285": 161,
        "7286": 203,
        "7287": 204,
        "7288": 56,
        "7289": 138,
        "7290": 170,
        "7291": 64,
        "7292": 46,
        "7293": 215,
        "7294": 171,
        "7295": 30,
        "7296": 31,
        "7297": 138,
        "7298": 35,
        "7299": 180,
        "7300": 147,
        "7301": 72,
        "7302": 224,
        "7303": 22,
        "7304": 183,
        "7305": 203,
        "7306": 114,
        "7307": 90,
        "7308": 237,
        "7309": 241,
        "7310": 40,
        "7311": 124,
        "7312": 157,
        "7313": 77,
        "7314": 151,
        "7315": 43,
        "7316": 146,
        "7317": 180,
        "7318": 127,
        "7319": 125,
        "7320": 49,
        "7321": 83,
        "7322": 0,
        "7323": 87,
        "7324": 100,
        "7325": 163,
        "7326": 148,
        "7327": 87,
        "7328": 103,
        "7329": 149,
        "7330": 80,
        "7331": 129,
        "7332": 20,
        "7333": 238,
        "7334": 249,
        "7335": 149,
        "7336": 216,
        "7337": 33,
        "7338": 248,
        "7339": 13,
        "7340": 24,
        "7341": 60,
        "7342": 67,
        "7343": 201,
        "7344": 157,
        "7345": 45,
        "7346": 141,
        "7347": 197,
        "7348": 138,
        "7349": 52,
        "7350": 14,
        "7351": 15,
        "7352": 201,
        "7353": 212,
        "7354": 94,
        "7355": 193,
        "7356": 241,
        "7357": 105,
        "7358": 21,
        "7359": 99,
        "7360": 58,
        "7361": 121,
        "7362": 143,
        "7363": 118,
        "7364": 207,
        "7365": 91,
        "7366": 189,
        "7367": 52,
        "7368": 22,
        "7369": 30,
        "7370": 106,
        "7371": 6,
        "7372": 22,
        "7373": 165,
        "7374": 165,
        "7375": 96,
        "7376": 85,
        "7377": 2,
        "7378": 62,
        "7379": 29,
        "7380": 35,
        "7381": 210,
        "7382": 121,
        "7383": 243,
        "7384": 58,
        "7385": 76,
        "7386": 153,
        "7387": 168,
        "7388": 19,
        "7389": 199,
        "7390": 105,
        "7391": 231,
        "7392": 104,
        "7393": 41,
        "7394": 2,
        "7395": 240,
        "7396": 174,
        "7397": 213,
        "7398": 122,
        "7399": 232,
        "7400": 54,
        "7401": 79,
        "7402": 70,
        "7403": 22,
        "7404": 4,
        "7405": 22,
        "7406": 210,
        "7407": 64,
        "7408": 198,
        "7409": 211,
        "7410": 228,
        "7411": 138,
        "7412": 5,
        "7413": 219,
        "7414": 125,
        "7415": 4,
        "7416": 154,
        "7417": 203,
        "7418": 243,
        "7419": 64,
        "7420": 123,
        "7421": 84,
        "7422": 244,
        "7423": 35,
        "7424": 109,
        "7425": 129,
        "7426": 36,
        "7427": 41,
        "7428": 231,
        "7429": 251,
        "7430": 224,
        "7431": 166,
        "7432": 54,
        "7433": 180,
        "7434": 148,
        "7435": 198,
        "7436": 220,
        "7437": 12,
        "7438": 76,
        "7439": 90,
        "7440": 56,
        "7441": 200,
        "7442": 157,
        "7443": 107,
        "7444": 51,
        "7445": 103,
        "7446": 56,
        "7447": 230,
        "7448": 177,
        "7449": 89,
        "7450": 117,
        "7451": 19,
        "7452": 158,
        "7453": 3,
        "7454": 201,
        "7455": 33,
        "7456": 39,
        "7457": 250,
        "7458": 149,
        "7459": 109,
        "7460": 151,
        "7461": 148,
        "7462": 221,
        "7463": 40,
        "7464": 228,
        "7465": 131,
        "7466": 64,
        "7467": 113,
        "7468": 190,
        "7469": 173,
        "7470": 92,
        "7471": 126,
        "7472": 228,
        "7473": 17,
        "7474": 112,
        "7475": 97,
        "7476": 99,
        "7477": 214,
        "7478": 26,
        "7479": 113,
        "7480": 235,
        "7481": 134,
        "7482": 137,
        "7483": 106,
        "7484": 161,
        "7485": 175,
        "7486": 216,
        "7487": 0,
        "7488": 34,
        "7489": 238,
        "7490": 28,
        "7491": 0,
        "7492": 88,
        "7493": 157,
        "7494": 27,
        "7495": 251,
        "7496": 197,
        "7497": 165,
        "7498": 170,
        "7499": 66,
        "7500": 207,
        "7501": 196,
        "7502": 69,
        "7503": 42,
        "7504": 234,
        "7505": 35,
        "7506": 55,
        "7507": 194,
        "7508": 123,
        "7509": 202,
        "7510": 48,
        "7511": 160,
        "7512": 54,
        "7513": 82,
        "7514": 45,
        "7515": 14,
        "7516": 126,
        "7517": 10,
        "7518": 223,
        "7519": 52,
        "7520": 177,
        "7521": 149,
        "7522": 70,
        "7523": 21,
        "7524": 92,
        "7525": 102,
        "7526": 58,
        "7527": 35,
        "7528": 76,
        "7529": 156,
        "7530": 179,
        "7531": 9,
        "7532": 89,
        "7533": 37,
        "7534": 70,
        "7535": 213,
        "7536": 105,
        "7537": 48,
        "7538": 191,
        "7539": 43,
        "7540": 221,
        "7541": 70,
        "7542": 54,
        "7543": 113,
        "7544": 222,
        "7545": 31,
        "7546": 113,
        "7547": 159,
        "7548": 252,
        "7549": 2,
        "7550": 209,
        "7551": 144,
        "7552": 33,
        "7553": 139,
        "7554": 218,
        "7555": 28,
        "7556": 38,
        "7557": 42,
        "7558": 26,
        "7559": 134,
        "7560": 245,
        "7561": 217,
        "7562": 169,
        "7563": 245,
        "7564": 221,
        "7565": 49,
        "7566": 212,
        "7567": 218,
        "7568": 13,
        "7569": 152,
        "7570": 132,
        "7571": 117,
        "7572": 58,
        "7573": 196,
        "7574": 49,
        "7575": 168,
        "7576": 182,
        "7577": 226,
        "7578": 70,
        "7579": 42,
        "7580": 90,
        "7581": 79,
        "7582": 121,
        "7583": 85,
        "7584": 165,
        "7585": 38,
        "7586": 58,
        "7587": 128,
        "7588": 198,
        "7589": 114,
        "7590": 158,
        "7591": 211,
        "7592": 2,
        "7593": 186,
        "7594": 34,
        "7595": 196,
        "7596": 2,
        "7597": 202,
        "7598": 41,
        "7599": 164,
        "7600": 124,
        "7601": 32,
        "7602": 215,
        "7603": 13,
        "7604": 80,
        "7605": 30,
        "7606": 201,
        "7607": 135,
        "7608": 15,
        "7609": 48,
        "7610": 242,
        "7611": 153,
        "7612": 229,
        "7613": 215,
        "7614": 134,
        "7615": 251,
        "7616": 45,
        "7617": 117,
        "7618": 187,
        "7619": 82,
        "7620": 144,
        "7621": 124,
        "7622": 138,
        "7623": 175,
        "7624": 42,
        "7625": 164,
        "7626": 81,
        "7627": 0,
        "7628": 97,
        "7629": 164,
        "7630": 60,
        "7631": 110,
        "7632": 87,
        "7633": 233,
        "7634": 81,
        "7635": 255,
        "7636": 8,
        "7637": 174,
        "7638": 231,
        "7639": 118,
        "7640": 117,
        "7641": 193,
        "7642": 96,
        "7643": 185,
        "7644": 145,
        "7645": 254,
        "7646": 248,
        "7647": 67,
        "7648": 175,
        "7649": 153,
        "7650": 232,
        "7651": 78,
        "7652": 84,
        "7653": 146,
        "7654": 84,
        "7655": 197,
        "7656": 124,
        "7657": 244,
        "7658": 24,
        "7659": 135,
        "7660": 201,
        "7661": 81,
        "7662": 121,
        "7663": 221,
        "7664": 88,
        "7665": 225,
        "7666": 18,
        "7667": 102,
        "7668": 235,
        "7669": 38,
        "7670": 94,
        "7671": 120,
        "7672": 15,
        "7673": 93,
        "7674": 39,
        "7675": 81,
        "7676": 104,
        "7677": 35,
        "7678": 225,
        "7679": 144,
        "7680": 68,
        "7681": 225,
        "7682": 223,
        "7683": 92,
        "7684": 75,
        "7685": 248,
        "7686": 5,
        "7687": 204,
        "7688": 194,
        "7689": 238,
        "7690": 15,
        "7691": 127,
        "7692": 161,
        "7693": 146,
        "7694": 153,
        "7695": 172,
        "7696": 255,
        "7697": 202,
        "7698": 130,
        "7699": 107,
        "7700": 39,
        "7701": 90,
        "7702": 108,
        "7703": 89,
        "7704": 212,
        "7705": 50,
        "7706": 151,
        "7707": 51,
        "7708": 191,
        "7709": 24,
        "7710": 108,
        "7711": 4,
        "7712": 209,
        "7713": 1,
        "7714": 244,
        "7715": 156,
        "7716": 66,
        "7717": 168,
        "7718": 184,
        "7719": 163,
        "7720": 9,
        "7721": 12,
        "7722": 140,
        "7723": 137,
        "7724": 189,
        "7725": 181,
        "7726": 159,
        "7727": 90,
        "7728": 18,
        "7729": 19,
        "7730": 244,
        "7731": 131,
        "7732": 247,
        "7733": 202,
        "7734": 204,
        "7735": 201,
        "7736": 255,
        "7737": 103,
        "7738": 140,
        "7739": 52,
        "7740": 121,
        "7741": 213,
        "7742": 232,
        "7743": 36,
        "7744": 240,
        "7745": 192,
        "7746": 95,
        "7747": 242,
        "7748": 237,
        "7749": 2,
        "7750": 9,
        "7751": 71,
        "7752": 31,
        "7753": 89,
        "7754": 135,
        "7755": 49,
        "7756": 198,
        "7757": 220,
        "7758": 231,
        "7759": 227,
        "7760": 218,
        "7761": 64,
        "7762": 59,
        "7763": 19,
        "7764": 67,
        "7765": 161,
        "7766": 235,
        "7767": 163,
        "7768": 48,
        "7769": 115,
        "7770": 116,
        "7771": 19,
        "7772": 243,
        "7773": 248,
        "7774": 216,
        "7775": 107,
        "7776": 192,
        "7777": 238,
        "7778": 128,
        "7779": 154,
        "7780": 46,
        "7781": 200,
        "7782": 228,
        "7783": 236,
        "7784": 232,
        "7785": 94,
        "7786": 192,
        "7787": 201,
        "7788": 113,
        "7789": 238,
        "7790": 38,
        "7791": 226,
        "7792": 211,
        "7793": 112,
        "7794": 183,
        "7795": 243,
        "7796": 102,
        "7797": 228,
        "7798": 25,
        "7799": 85,
        "7800": 192,
        "7801": 8,
        "7802": 160,
        "7803": 117,
        "7804": 237,
        "7805": 92,
        "7806": 236,
        "7807": 205,
        "7808": 107,
        "7809": 130,
        "7810": 49,
        "7811": 222,
        "7812": 226,
        "7813": 126,
        "7814": 37,
        "7815": 231,
        "7816": 90,
        "7817": 32,
        "7818": 178,
        "7819": 224,
        "7820": 58,
        "7821": 20,
        "7822": 137,
        "7823": 130,
        "7824": 36,
        "7825": 205,
        "7826": 111,
        "7827": 203,
        "7828": 83,
        "7829": 113,
        "7830": 68,
        "7831": 160,
        "7832": 253,
        "7833": 112,
        "7834": 239,
        "7835": 184,
        "7836": 183,
        "7837": 57,
        "7838": 167,
        "7839": 58,
        "7840": 144,
        "7841": 73,
        "7842": 81,
        "7843": 90,
        "7844": 236,
        "7845": 146,
        "7846": 202,
        "7847": 13,
        "7848": 174,
        "7849": 255,
        "7850": 57,
        "7851": 169,
        "7852": 252,
        "7853": 241,
        "7854": 146,
        "7855": 154,
        "7856": 209,
        "7857": 231,
        "7858": 207,
        "7859": 25,
        "7860": 103,
        "7861": 131,
        "7862": 138,
        "7863": 168,
        "7864": 55,
        "7865": 213,
        "7866": 76,
        "7867": 5,
        "7868": 113,
        "7869": 244,
        "7870": 14,
        "7871": 24,
        "7872": 35,
        "7873": 92,
        "7874": 246,
        "7875": 250,
        "7876": 88,
        "7877": 120,
        "7878": 59,
        "7879": 195,
        "7880": 217,
        "7881": 73,
        "7882": 62,
        "7883": 236,
        "7884": 72,
        "7885": 117,
        "7886": 51,
        "7887": 221,
        "7888": 117,
        "7889": 7,
        "7890": 72,
        "7891": 141,
        "7892": 133,
        "7893": 223,
        "7894": 49,
        "7895": 162,
        "7896": 132,
        "7897": 92,
        "7898": 31,
        "7899": 50,
        "7900": 154,
        "7901": 230,
        "7902": 187,
        "7903": 111,
        "7904": 7,
        "7905": 222,
        "7906": 249,
        "7907": 110,
        "7908": 83,
        "7909": 183,
        "7910": 250,
        "7911": 160,
        "7912": 190,
        "7913": 218,
        "7914": 201,
        "7915": 188,
        "7916": 120,
        "7917": 5,
        "7918": 123,
        "7919": 196,
        "7920": 123,
        "7921": 38,
        "7922": 165,
        "7923": 173,
        "7924": 66,
        "7925": 124,
        "7926": 216,
        "7927": 43,
        "7928": 31,
        "7929": 75,
        "7930": 218,
        "7931": 229,
        "7932": 101,
        "7933": 205,
        "7934": 225,
        "7935": 53,
        "7936": 86,
        "7937": 90,
        "7938": 204,
        "7939": 22,
        "7940": 5,
        "7941": 165,
        "7942": 253,
        "7943": 77,
        "7944": 139,
        "7945": 0,
        "7946": 235,
        "7947": 104,
        "7948": 16,
        "7949": 5,
        "7950": 105,
        "7951": 49,
        "7952": 15,
        "7953": 201,
        "7954": 32,
        "7955": 110,
        "7956": 221,
        "7957": 211,
        "7958": 85,
        "7959": 192,
        "7960": 117,
        "7961": 115,
        "7962": 254,
        "7963": 205,
        "7964": 51,
        "7965": 90,
        "7966": 146,
        "7967": 154,
        "7968": 81,
        "7969": 76,
        "7970": 169,
        "7971": 90,
        "7972": 84,
        "7973": 113,
        "7974": 65,
        "7975": 178,
        "7976": 82,
        "7977": 156,
        "7978": 68,
        "7979": 21,
        "7980": 14,
        "7981": 61,
        "7982": 245,
        "7983": 177,
        "7984": 57,
        "7985": 226,
        "7986": 148,
        "7987": 33,
        "7988": 53,
        "7989": 222,
        "7990": 162,
        "7991": 139,
        "7992": 81,
        "7993": 112,
        "7994": 41,
        "7995": 91,
        "7996": 253,
        "7997": 8,
        "7998": 3,
        "7999": 108,
        "8000": 35,
        "8001": 202,
        "8002": 171,
        "8003": 220,
        "8004": 174,
        "8005": 157,
        "8006": 129,
        "8007": 61,
        "8008": 132,
        "8009": 35,
        "8010": 234,
        "8011": 154,
        "8012": 48,
        "8013": 109,
        "8014": 20,
        "8015": 144,
        "8016": 178,
        "8017": 88,
        "8018": 76,
        "8019": 76,
        "8020": 81,
        "8021": 63,
        "8022": 228,
        "8023": 128,
        "8024": 193,
        "8025": 111,
        "8026": 147,
        "8027": 200,
        "8028": 148,
        "8029": 117,
        "8030": 183,
        "8031": 204,
        "8032": 143,
        "8033": 169,
        "8034": 216,
        "8035": 191,
        "8036": 254,
        "8037": 22,
        "8038": 24,
        "8039": 189,
        "8040": 191,
        "8041": 30,
        "8042": 78,
        "8043": 37,
        "8044": 17,
        "8045": 105,
        "8046": 142,
        "8047": 45,
        "8048": 252,
        "8049": 143,
        "8050": 2,
        "8051": 68,
        "8052": 0,
        "8053": 12,
        "8054": 246,
        "8055": 50,
        "8056": 12,
        "8057": 238,
        "8058": 19,
        "8059": 18,
        "8060": 224,
        "8061": 246,
        "8062": 196,
        "8063": 90,
        "8064": 240,
        "8065": 205,
        "8066": 176,
        "8067": 71,
        "8068": 143,
        "8069": 170,
        "8070": 72,
        "8071": 182,
        "8072": 78,
        "8073": 89,
        "8074": 69,
        "8075": 224,
        "8076": 46,
        "8077": 96,
        "8078": 120,
        "8079": 36,
        "8080": 187,
        "8081": 12,
        "8082": 134,
        "8083": 220,
        "8084": 152,
        "8085": 221,
        "8086": 208,
        "8087": 208,
        "8088": 240,
        "8089": 86,
        "8090": 252,
        "8091": 50,
        "8092": 69,
        "8093": 125,
        "8094": 63,
        "8095": 108,
        "8096": 168,
        "8097": 169,
        "8098": 166,
        "8099": 98,
        "8100": 182,
        "8101": 69,
        "8102": 109,
        "8103": 145,
        "8104": 60,
        "8105": 245,
        "8106": 170,
        "8107": 81,
        "8108": 217,
        "8109": 0,
        "8110": 159,
        "8111": 5,
        "8112": 127,
        "8113": 147,
        "8114": 110,
        "8115": 49,
        "8116": 89,
        "8117": 51,
        "8118": 139,
        "8119": 100,
        "8120": 136,
        "8121": 99,
        "8122": 18,
        "8123": 190,
        "8124": 39,
        "8125": 188,
        "8126": 71,
        "8127": 74,
        "8128": 136,
        "8129": 19,
        "8130": 205,
        "8131": 251,
        "8132": 73,
        "8133": 230,
        "8134": 189,
        "8135": 110,
        "8136": 242,
        "8137": 167,
        "8138": 153,
        "8139": 217,
        "8140": 71,
        "8141": 148,
        "8142": 55,
        "8143": 109,
        "8144": 52,
        "8145": 153,
        "8146": 31,
        "8147": 26,
        "8148": 186,
        "8149": 63,
        "8150": 247,
        "8151": 36,
        "8152": 91,
        "8153": 66,
        "8154": 231,
        "8155": 184,
        "8156": 241,
        "8157": 80,
        "8158": 246,
        "8159": 216,
        "8160": 74,
        "8161": 226,
        "8162": 182,
        "8163": 44,
        "8164": 12,
        "8165": 249,
        "8166": 236,
        "8167": 84,
        "8168": 18,
        "8169": 200,
        "8170": 170,
        "8171": 215,
        "8172": 68,
        "8173": 108,
        "8174": 160,
        "8175": 66,
        "8176": 130,
        "8177": 46,
        "8178": 23,
        "8179": 158,
        "8180": 111,
        "8181": 212,
        "8182": 77,
        "8183": 235,
        "8184": 109,
        "8185": 17,
        "8186": 175,
        "8187": 222,
        "8188": 25,
        "8189": 160,
        "8190": 171,
        "8191": 31,
        "8192": 149,
        "8193": 156,
        "8194": 206,
        "8195": 118,
        "8196": 32,
        "8197": 218,
        "8198": 211,
        "8199": 130,
        "8200": 113,
        "8201": 19,
        "8202": 97,
        "8203": 191,
        "8204": 123,
        "8205": 41,
        "8206": 237,
        "8207": 83,
        "8208": 253,
        "8209": 90,
        "8210": 54,
        "8211": 251,
        "8212": 97,
        "8213": 91,
        "8214": 173,
        "8215": 133,
        "8216": 156,
        "8217": 167,
        "8218": 245,
        "8219": 255,
        "8220": 85,
        "8221": 116,
        "8222": 214,
        "8223": 203,
        "8224": 30,
        "8225": 145,
        "8226": 8,
        "8227": 118,
        "8228": 177,
        "8229": 209,
        "8230": 63,
        "8231": 77,
        "8232": 133,
        "8233": 122,
        "8234": 219,
        "8235": 135,
        "8236": 151,
        "8237": 171,
        "8238": 218,
        "8239": 216,
        "8240": 85,
        "8241": 101,
        "8242": 31,
        "8243": 92,
        "8244": 59,
        "8245": 112,
        "8246": 158,
        "8247": 71,
        "8248": 183,
        "8249": 132,
        "8250": 210,
        "8251": 31,
        "8252": 34,
        "8253": 29,
        "8254": 206,
        "8255": 140,
        "8256": 190,
        "8257": 170,
        "8258": 234,
        "8259": 34,
        "8260": 98,
        "8261": 65,
        "8262": 140,
        "8263": 6,
        "8264": 197,
        "8265": 206,
        "8266": 241,
        "8267": 198,
        "8268": 235,
        "8269": 3,
        "8270": 1,
        "8271": 33,
        "8272": 95,
        "8273": 110,
        "8274": 73,
        "8275": 215,
        "8276": 124,
        "8277": 162,
        "8278": 229,
        "8279": 194,
        "8280": 195,
        "8281": 22,
        "8282": 30,
        "8283": 183,
        "8284": 194,
        "8285": 200,
        "8286": 14,
        "8287": 145,
        "8288": 130,
        "8289": 229,
        "8290": 27,
        "8291": 4,
        "8292": 171,
        "8293": 155,
        "8294": 81,
        "8295": 93,
        "8296": 34,
        "8297": 84,
        "8298": 14,
        "8299": 104,
        "8300": 156,
        "8301": 50,
        "8302": 123,
        "8303": 146,
        "8304": 118,
        "8305": 88,
        "8306": 207,
        "8307": 32,
        "8308": 165,
        "8309": 108,
        "8310": 214,
        "8311": 173,
        "8312": 5,
        "8313": 204,
        "8314": 57,
        "8315": 38,
        "8316": 215,
        "8317": 203,
        "8318": 21,
        "8319": 251,
        "8320": 55,
        "8321": 86,
        "8322": 109,
        "8323": 43,
        "8324": 149,
        "8325": 27,
        "8326": 150,
        "8327": 156,
        "8328": 188,
        "8329": 201,
        "8330": 66,
        "8331": 56,
        "8332": 105,
        "8333": 27,
        "8334": 107,
        "8335": 247,
        "8336": 167,
        "8337": 54,
        "8338": 151,
        "8339": 61,
        "8340": 246,
        "8341": 237,
        "8342": 224,
        "8343": 101,
        "8344": 244,
        "8345": 201,
        "8346": 187,
        "8347": 80,
        "8348": 204,
        "8349": 138,
        "8350": 20,
        "8351": 152,
        "8352": 236,
        "8353": 127,
        "8354": 80,
        "8355": 240,
        "8356": 77,
        "8357": 226,
        "8358": 149,
        "8359": 136,
        "8360": 147,
        "8361": 32,
        "8362": 105,
        "8363": 103,
        "8364": 232,
        "8365": 185,
        "8366": 67,
        "8367": 27,
        "8368": 52,
        "8369": 230,
        "8370": 193,
        "8371": 217,
        "8372": 229,
        "8373": 209,
        "8374": 98,
        "8375": 136,
        "8376": 19,
        "8377": 178,
        "8378": 83,
        "8379": 103,
        "8380": 157,
        "8381": 199,
        "8382": 227,
        "8383": 203,
        "8384": 197,
        "8385": 64,
        "8386": 30,
        "8387": 116,
        "8388": 71,
        "8389": 238,
        "8390": 204,
        "8391": 106,
        "8392": 31,
        "8393": 160,
        "8394": 171,
        "8395": 143,
        "8396": 7,
        "8397": 223,
        "8398": 128,
        "8399": 246,
        "8400": 217,
        "8401": 175,
        "8402": 96,
        "8403": 80,
        "8404": 68,
        "8405": 2,
        "8406": 90,
        "8407": 118,
        "8408": 120,
        "8409": 72,
        "8410": 140,
        "8411": 38,
        "8412": 12,
        "8413": 125,
        "8414": 167,
        "8415": 78,
        "8416": 110,
        "8417": 39,
        "8418": 239,
        "8419": 223,
        "8420": 248,
        "8421": 103,
        "8422": 118,
        "8423": 89,
        "8424": 134,
        "8425": 144,
        "8426": 141,
        "8427": 188,
        "8428": 217,
        "8429": 189,
        "8430": 147,
        "8431": 124,
        "8432": 173,
        "8433": 1,
        "8434": 150,
        "8435": 50,
        "8436": 114,
        "8437": 126,
        "8438": 42,
        "8439": 89,
        "8440": 217,
        "8441": 248,
        "8442": 170,
        "8443": 110,
        "8444": 56,
        "8445": 153,
        "8446": 252,
        "8447": 120,
        "8448": 160,
        "8449": 183,
        "8450": 127,
        "8451": 4,
        "8452": 235,
        "8453": 128,
        "8454": 228,
        "8455": 145,
        "8456": 18,
        "8457": 108,
        "8458": 142,
        "8459": 251,
        "8460": 205,
        "8461": 216,
        "8462": 143,
        "8463": 166,
        "8464": 6,
        "8465": 141,
        "8466": 21,
        "8467": 144,
        "8468": 78,
        "8469": 206,
        "8470": 178,
        "8471": 60,
        "8472": 97,
        "8473": 127,
        "8474": 194,
        "8475": 19,
        "8476": 101,
        "8477": 87,
        "8478": 128,
        "8479": 101,
        "8480": 240,
        "8481": 3,
        "8482": 142,
        "8483": 93,
        "8484": 153,
        "8485": 116,
        "8486": 221,
        "8487": 206,
        "8488": 225,
        "8489": 63,
        "8490": 145,
        "8491": 233,
        "8492": 31,
        "8493": 51,
        "8494": 254,
        "8495": 21,
        "8496": 84,
        "8497": 1,
        "8498": 70,
        "8499": 147,
        "8500": 161,
        "8501": 73,
        "8502": 233,
        "8503": 203,
        "8504": 74,
        "8505": 139,
        "8506": 181,
        "8507": 86,
        "8508": 123,
        "8509": 251,
        "8510": 184,
        "8511": 116,
        "8512": 71,
        "8513": 191,
        "8514": 189,
        "8515": 33,
        "8516": 228,
        "8517": 219,
        "8518": 20,
        "8519": 83,
        "8520": 122,
        "8521": 197,
        "8522": 248,
        "8523": 86,
        "8524": 162,
        "8525": 124,
        "8526": 207,
        "8527": 214,
        "8528": 146,
        "8529": 41,
        "8530": 255,
        "8531": 190,
        "8532": 5,
        "8533": 118,
        "8534": 186,
        "8535": 209,
        "8536": 34,
        "8537": 54,
        "8538": 33,
        "8539": 92,
        "8540": 75,
        "8541": 52,
        "8542": 175,
        "8543": 174,
        "8544": 191,
        "8545": 199,
        "8546": 139,
        "8547": 70,
        "8548": 96,
        "8549": 111,
        "8550": 178,
        "8551": 154,
        "8552": 104,
        "8553": 3,
        "8554": 198,
        "8555": 12,
        "8556": 156,
        "8557": 225,
        "8558": 22,
        "8559": 154,
        "8560": 21,
        "8561": 65,
        "8562": 114,
        "8563": 106,
        "8564": 63,
        "8565": 73,
        "8566": 47,
        "8567": 223,
        "8568": 167,
        "8569": 101,
        "8570": 128,
        "8571": 58,
        "8572": 169,
        "8573": 204,
        "8574": 93,
        "8575": 19,
        "8576": 21,
        "8577": 238,
        "8578": 2,
        "8579": 6,
        "8580": 233,
        "8581": 14,
        "8582": 83,
        "8583": 148,
        "8584": 7,
        "8585": 56,
        "8586": 69,
        "8587": 34,
        "8588": 138,
        "8589": 170,
        "8590": 184,
        "8591": 14,
        "8592": 173,
        "8593": 248,
        "8594": 227,
        "8595": 48,
        "8596": 226,
        "8597": 104,
        "8598": 142,
        "8599": 1,
        "8600": 163,
        "8601": 87,
        "8602": 20,
        "8603": 42,
        "8604": 27,
        "8605": 142,
        "8606": 81,
        "8607": 227,
        "8608": 61,
        "8609": 96,
        "8610": 233,
        "8611": 45,
        "8612": 199,
        "8613": 4,
        "8614": 69,
        "8615": 0,
        "8616": 127,
        "8617": 133,
        "8618": 36,
        "8619": 100,
        "8620": 194,
        "8621": 82,
        "8622": 125,
        "8623": 231,
        "8624": 191,
        "8625": 218,
        "8626": 61,
        "8627": 201,
        "8628": 153,
        "8629": 2,
        "8630": 82,
        "8631": 37,
        "8632": 108,
        "8633": 82,
        "8634": 235,
        "8635": 156,
        "8636": 103,
        "8637": 93,
        "8638": 23,
        "8639": 140,
        "8640": 197,
        "8641": 246,
        "8642": 187,
        "8643": 44,
        "8644": 163,
        "8645": 179,
        "8646": 165,
        "8647": 44,
        "8648": 114,
        "8649": 45,
        "8650": 124,
        "8651": 209,
        "8652": 219,
        "8653": 28,
        "8654": 106,
        "8655": 166,
        "8656": 241,
        "8657": 41,
        "8658": 130,
        "8659": 202,
        "8660": 246,
        "8661": 222,
        "8662": 140,
        "8663": 179,
        "8664": 52,
        "8665": 79,
        "8666": 212,
        "8667": 7,
        "8668": 47,
        "8669": 0,
        "8670": 54,
        "8671": 210,
        "8672": 183,
        "8673": 164,
        "8674": 182,
        "8675": 79,
        "8676": 30,
        "8677": 79,
        "8678": 107,
        "8679": 93,
        "8680": 109,
        "8681": 174,
        "8682": 100,
        "8683": 246,
        "8684": 137,
        "8685": 189,
        "8686": 6,
        "8687": 45,
        "8688": 39,
        "8689": 216,
        "8690": 20,
        "8691": 59,
        "8692": 63,
        "8693": 118,
        "8694": 176,
        "8695": 210,
        "8696": 46,
        "8697": 177,
        "8698": 80,
        "8699": 100,
        "8700": 221,
        "8701": 189,
        "8702": 229,
        "8703": 18,
        "8704": 178,
        "8705": 110,
        "8706": 66,
        "8707": 203,
        "8708": 211,
        "8709": 77,
        "8710": 29,
        "8711": 69,
        "8712": 126,
        "8713": 19,
        "8714": 90,
        "8715": 13,
        "8716": 46,
        "8717": 251,
        "8718": 106,
        "8719": 189,
        "8720": 110,
        "8721": 111,
        "8722": 150,
        "8723": 72,
        "8724": 94,
        "8725": 183,
        "8726": 122,
        "8727": 251,
        "8728": 196,
        "8729": 146,
        "8730": 111,
        "8731": 89,
        "8732": 57,
        "8733": 251,
        "8734": 115,
        "8735": 198,
        "8736": 222,
        "8737": 85,
        "8738": 137,
        "8739": 177,
        "8740": 203,
        "8741": 248,
        "8742": 57,
        "8743": 64,
        "8744": 150,
        "8745": 209,
        "8746": 120,
        "8747": 136,
        "8748": 90,
        "8749": 186,
        "8750": 3,
        "8751": 122,
        "8752": 52,
        "8753": 247,
        "8754": 45,
        "8755": 225,
        "8756": 103,
        "8757": 195,
        "8758": 13,
        "8759": 74,
        "8760": 216,
        "8761": 240,
        "8762": 120,
        "8763": 193,
        "8764": 86,
        "8765": 165,
        "8766": 79,
        "8767": 119,
        "8768": 233,
        "8769": 102,
        "8770": 108,
        "8771": 30,
        "8772": 175,
        "8773": 147,
        "8774": 33,
        "8775": 204,
        "8776": 186,
        "8777": 210,
        "8778": 94,
        "8779": 190,
        "8780": 127,
        "8781": 178,
        "8782": 196,
        "8783": 176,
        "8784": 190,
        "8785": 230,
        "8786": 138,
        "8787": 47,
        "8788": 31,
        "8789": 248,
        "8790": 233,
        "8791": 204,
        "8792": 106,
        "8793": 205,
        "8794": 137,
        "8795": 136,
        "8796": 37,
        "8797": 89,
        "8798": 155,
        "8799": 181,
        "8800": 81,
        "8801": 135,
        "8802": 150,
        "8803": 70,
        "8804": 119,
        "8805": 155,
        "8806": 50,
        "8807": 79,
        "8808": 30,
        "8809": 155,
        "8810": 118,
        "8811": 64,
        "8812": 69,
        "8813": 131,
        "8814": 1,
        "8815": 2,
        "8816": 218,
        "8817": 245,
        "8818": 122,
        "8819": 48,
        "8820": 65,
        "8821": 222,
        "8822": 14,
        "8823": 94,
        "8824": 105,
        "8825": 105,
        "8826": 179,
        "8827": 211,
        "8828": 241,
        "8829": 101,
        "8830": 94,
        "8831": 253,
        "8832": 170,
        "8833": 175,
        "8834": 159,
        "8835": 33,
        "8836": 223,
        "8837": 140,
        "8838": 173,
        "8839": 98,
        "8840": 232,
        "8841": 73,
        "8842": 99,
        "8843": 19,
        "8844": 235,
        "8845": 4,
        "8846": 161,
        "8847": 119,
        "8848": 177,
        "8849": 141,
        "8850": 7,
        "8851": 76,
        "8852": 81,
        "8853": 95,
        "8854": 241,
        "8855": 162,
        "8856": 114,
        "8857": 118,
        "8858": 160,
        "8859": 140,
        "8860": 191,
        "8861": 70,
        "8862": 136,
        "8863": 188,
        "8864": 218,
        "8865": 25,
        "8866": 216,
        "8867": 118,
        "8868": 76,
        "8869": 241,
        "8870": 46,
        "8871": 198,
        "8872": 60,
        "8873": 229,
        "8874": 107,
        "8875": 251,
        "8876": 116,
        "8877": 145,
        "8878": 243,
        "8879": 148,
        "8880": 174,
        "8881": 235,
        "8882": 75,
        "8883": 82,
        "8884": 61,
        "8885": 122,
        "8886": 200,
        "8887": 253,
        "8888": 188,
        "8889": 67,
        "8890": 110,
        "8891": 188,
        "8892": 26,
        "8893": 239,
        "8894": 19,
        "8895": 83,
        "8896": 202,
        "8897": 222,
        "8898": 251,
        "8899": 56,
        "8900": 208,
        "8901": 81,
        "8902": 43,
        "8903": 118,
        "8904": 233,
        "8905": 39,
        "8906": 66,
        "8907": 253,
        "8908": 25,
        "8909": 219,
        "8910": 201,
        "8911": 207,
        "8912": 100,
        "8913": 4,
        "8914": 104,
        "8915": 40,
        "8916": 98,
        "8917": 223,
        "8918": 253,
        "8919": 183,
        "8920": 44,
        "8921": 228,
        "8922": 161,
        "8923": 11,
        "8924": 223,
        "8925": 96,
        "8926": 61,
        "8927": 130,
        "8928": 74,
        "8929": 155,
        "8930": 128,
        "8931": 71,
        "8932": 114,
        "8933": 209,
        "8934": 103,
        "8935": 60,
        "8936": 126,
        "8937": 202,
        "8938": 105,
        "8939": 255,
        "8940": 78,
        "8941": 234,
        "8942": 149,
        "8943": 199,
        "8944": 166,
        "8945": 182,
        "8946": 124,
        "8947": 165,
        "8948": 180,
        "8949": 228,
        "8950": 143,
        "8951": 212,
        "8952": 232,
        "8953": 61,
        "8954": 138,
        "8955": 28,
        "8956": 243,
        "8957": 245,
        "8958": 21,
        "8959": 100,
        "8960": 191,
        "8961": 246,
        "8962": 221,
        "8963": 65,
        "8964": 199,
        "8965": 218,
        "8966": 145,
        "8967": 143,
        "8968": 236,
        "8969": 80,
        "8970": 180,
        "8971": 217,
        "8972": 10,
        "8973": 207,
        "8974": 162,
        "8975": 40,
        "8976": 193,
        "8977": 209,
        "8978": 212,
        "8979": 107,
        "8980": 202,
        "8981": 235,
        "8982": 241,
        "8983": 166,
        "8984": 163,
        "8985": 140,
        "8986": 238,
        "8987": 115,
        "8988": 53,
        "8989": 140,
        "8990": 14,
        "8991": 254,
        "8992": 180,
        "8993": 189,
        "8994": 113,
        "8995": 155,
        "8996": 16,
        "8997": 211,
        "8998": 24,
        "8999": 149,
        "9000": 241,
        "9001": 40,
        "9002": 141,
        "9003": 244,
        "9004": 140,
        "9005": 247,
        "9006": 24,
        "9007": 248,
        "9008": 241,
        "9009": 21,
        "9010": 38,
        "9011": 135,
        "9012": 91,
        "9013": 181,
        "9014": 133,
        "9015": 38,
        "9016": 75,
        "9017": 149,
        "9018": 13,
        "9019": 97,
        "9020": 23,
        "9021": 103,
        "9022": 3,
        "9023": 201,
        "9024": 131,
        "9025": 192,
        "9026": 149,
        "9027": 2,
        "9028": 145,
        "9029": 247,
        "9030": 170,
        "9031": 239,
        "9032": 46,
        "9033": 247,
        "9034": 152,
        "9035": 170,
        "9036": 94,
        "9037": 234,
        "9038": 147,
        "9039": 29,
        "9040": 230,
        "9041": 245,
        "9042": 116,
        "9043": 201,
        "9044": 40,
        "9045": 111,
        "9046": 198,
        "9047": 175,
        "9048": 22,
        "9049": 174,
        "9050": 22,
        "9051": 210,
        "9052": 68,
        "9053": 123,
        "9054": 131,
        "9055": 96,
        "9056": 229,
        "9057": 97,
        "9058": 232,
        "9059": 212,
        "9060": 65,
        "9061": 170,
        "9062": 228,
        "9063": 219,
        "9064": 34,
        "9065": 64,
        "9066": 250,
        "9067": 150,
        "9068": 203,
        "9069": 126,
        "9070": 236,
        "9071": 208,
        "9072": 162,
        "9073": 229,
        "9074": 223,
        "9075": 107,
        "9076": 251,
        "9077": 248,
        "9078": 149,
        "9079": 31,
        "9080": 255,
        "9081": 255,
        "9082": 83,
        "9083": 115,
        "9084": 224,
        "9085": 255,
        "9086": 62,
        "9087": 110,
        "9088": 42,
        "9089": 220,
        "9090": 123,
        "9091": 30,
        "9092": 65,
        "9093": 23,
        "9094": 123,
        "9095": 176,
        "9096": 60,
        "9097": 214,
        "9098": 231,
        "9099": 146,
        "9100": 184,
        "9101": 197,
        "9102": 77,
        "9103": 139,
        "9104": 235,
        "9105": 39,
        "9106": 14,
        "9107": 200,
        "9108": 10,
        "9109": 239,
        "9110": 162,
        "9111": 91,
        "9112": 218,
        "9113": 112,
        "9114": 109,
        "9115": 236,
        "9116": 25,
        "9117": 90,
        "9118": 42,
        "9119": 57,
        "9120": 175,
        "9121": 192,
        "9122": 72,
        "9123": 187,
        "9124": 177,
        "9125": 174,
        "9126": 117,
        "9127": 148,
        "9128": 14,
        "9129": 73,
        "9130": 202,
        "9131": 235,
        "9132": 158,
        "9133": 34,
        "9134": 217,
        "9135": 60,
        "9136": 190,
        "9137": 27,
        "9138": 100,
        "9139": 129,
        "9140": 178,
        "9141": 245,
        "9142": 14,
        "9143": 83,
        "9144": 195,
        "9145": 196,
        "9146": 57,
        "9147": 60,
        "9148": 185,
        "9149": 141,
        "9150": 211,
        "9151": 170,
        "9152": 226,
        "9153": 56,
        "9154": 220,
        "9155": 2,
        "9156": 65,
        "9157": 36,
        "9158": 177,
        "9159": 52,
        "9160": 120,
        "9161": 201,
        "9162": 171,
        "9163": 96,
        "9164": 45,
        "9165": 153,
        "9166": 186,
        "9167": 76,
        "9168": 162,
        "9169": 110,
        "9170": 152,
        "9171": 164,
        "9172": 8,
        "9173": 175,
        "9174": 74,
        "9175": 141,
        "9176": 100,
        "9177": 77,
        "9178": 143,
        "9179": 234,
        "9180": 70,
        "9181": 67,
        "9182": 221,
        "9183": 194,
        "9184": 114,
        "9185": 91,
        "9186": 77,
        "9187": 146,
        "9188": 175,
        "9189": 243,
        "9190": 200,
        "9191": 213,
        "9192": 227,
        "9193": 210,
        "9194": 157,
        "9195": 181,
        "9196": 219,
        "9197": 107,
        "9198": 151,
        "9199": 75,
        "9200": 233,
        "9201": 192,
        "9202": 239,
        "9203": 243,
        "9204": 133,
        "9205": 161,
        "9206": 217,
        "9207": 45,
        "9208": 208,
        "9209": 225,
        "9210": 197,
        "9211": 72,
        "9212": 88,
        "9213": 6,
        "9214": 223,
        "9215": 29,
        "9216": 155,
        "9217": 163,
        "9218": 19,
        "9219": 204,
        "9220": 247,
        "9221": 114,
        "9222": 98,
        "9223": 193,
        "9224": 58,
        "9225": 143,
        "9226": 131,
        "9227": 144,
        "9228": 47,
        "9229": 237,
        "9230": 237,
        "9231": 21,
        "9232": 225,
        "9233": 27,
        "9234": 61,
        "9235": 100,
        "9236": 101,
        "9237": 54,
        "9238": 226,
        "9239": 44,
        "9240": 129,
        "9241": 139,
        "9242": 101,
        "9243": 232,
        "9244": 251,
        "9245": 121,
        "9246": 178,
        "9247": 158,
        "9248": 171,
        "9249": 110,
        "9250": 251,
        "9251": 250,
        "9252": 55,
        "9253": 0,
        "9254": 208,
        "9255": 19,
        "9256": 31,
        "9257": 6,
        "9258": 134,
        "9259": 156,
        "9260": 199,
        "9261": 234,
        "9262": 251,
        "9263": 237,
        "9264": 23,
        "9265": 18,
        "9266": 59,
        "9267": 140,
        "9268": 222,
        "9269": 136,
        "9270": 19,
        "9271": 53,
        "9272": 60,
        "9273": 102,
        "9274": 93,
        "9275": 89,
        "9276": 169,
        "9277": 35,
        "9278": 14,
        "9279": 101,
        "9280": 66,
        "9281": 149,
        "9282": 26,
        "9283": 82,
        "9284": 182,
        "9285": 90,
        "9286": 42,
        "9287": 115,
        "9288": 248,
        "9289": 58,
        "9290": 171,
        "9291": 37,
        "9292": 18,
        "9293": 199,
        "9294": 6,
        "9295": 65,
        "9296": 178,
        "9297": 24,
        "9298": 203,
        "9299": 206,
        "9300": 111,
        "9301": 77,
        "9302": 88,
        "9303": 80,
        "9304": 81,
        "9305": 86,
        "9306": 210,
        "9307": 114,
        "9308": 199,
        "9309": 97,
        "9310": 231,
        "9311": 121,
        "9312": 120,
        "9313": 206,
        "9314": 21,
        "9315": 52,
        "9316": 52,
        "9317": 163,
        "9318": 4,
        "9319": 116,
        "9320": 192,
        "9321": 178,
        "9322": 218,
        "9323": 124,
        "9324": 221,
        "9325": 38,
        "9326": 121,
        "9327": 33,
        "9328": 235,
        "9329": 92,
        "9330": 119,
        "9331": 125,
        "9332": 161,
        "9333": 157,
        "9334": 178,
        "9335": 73,
        "9336": 108,
        "9337": 196,
        "9338": 113,
        "9339": 239,
        "9340": 12,
        "9341": 6,
        "9342": 82,
        "9343": 78,
        "9344": 164,
        "9345": 242,
        "9346": 39,
        "9347": 206,
        "9348": 175,
        "9349": 117,
        "9350": 240,
        "9351": 19,
        "9352": 136,
        "9353": 45,
        "9354": 141,
        "9355": 215,
        "9356": 173,
        "9357": 95,
        "9358": 188,
        "9359": 31,
        "9360": 28,
        "9361": 166,
        "9362": 30,
        "9363": 158,
        "9364": 26,
        "9365": 223,
        "9366": 189,
        "9367": 101,
        "9368": 9,
        "9369": 248,
        "9370": 2,
        "9371": 120,
        "9372": 87,
        "9373": 219,
        "9374": 22,
        "9375": 95,
        "9376": 213,
        "9377": 73,
        "9378": 77,
        "9379": 25,
        "9380": 27,
        "9381": 178,
        "9382": 51,
        "9383": 26,
        "9384": 122,
        "9385": 54,
        "9386": 32,
        "9387": 75,
        "9388": 91,
        "9389": 44,
        "9390": 167,
        "9391": 207,
        "9392": 229,
        "9393": 115,
        "9394": 203,
        "9395": 159,
        "9396": 99,
        "9397": 61,
        "9398": 38,
        "9399": 6,
        "9400": 72,
        "9401": 28,
        "9402": 52,
        "9403": 239,
        "9404": 117,
        "9405": 174,
        "9406": 47,
        "9407": 176,
        "9408": 211,
        "9409": 122,
        "9410": 153,
        "9411": 93,
        "9412": 201,
        "9413": 20,
        "9414": 120,
        "9415": 28,
        "9416": 152,
        "9417": 237,
        "9418": 11,
        "9419": 68,
        "9420": 79,
        "9421": 87,
        "9422": 92,
        "9423": 55,
        "9424": 92,
        "9425": 50,
        "9426": 56,
        "9427": 249,
        "9428": 145,
        "9429": 116,
        "9430": 175,
        "9431": 53,
        "9432": 79,
        "9433": 171,
        "9434": 104,
        "9435": 147,
        "9436": 254,
        "9437": 63,
        "9438": 229,
        "9439": 83,
        "9440": 255,
        "9441": 218,
        "9442": 67,
        "9443": 9,
        "9444": 121,
        "9445": 154,
        "9446": 92,
        "9447": 50,
        "9448": 205,
        "9449": 166,
        "9450": 242,
        "9451": 8,
        "9452": 50,
        "9453": 124,
        "9454": 101,
        "9455": 186,
        "9456": 97,
        "9457": 64,
        "9458": 155,
        "9459": 153,
        "9460": 42,
        "9461": 133,
        "9462": 80,
        "9463": 93,
        "9464": 143,
        "9465": 51,
        "9466": 71,
        "9467": 213,
        "9468": 238,
        "9469": 166,
        "9470": 89,
        "9471": 199,
        "9472": 147,
        "9473": 140,
        "9474": 134,
        "9475": 172,
        "9476": 17,
        "9477": 28,
        "9478": 56,
        "9479": 87,
        "9480": 248,
        "9481": 136,
        "9482": 108,
        "9483": 232,
        "9484": 252,
        "9485": 189,
        "9486": 48,
        "9487": 102,
        "9488": 193,
        "9489": 144,
        "9490": 198,
        "9491": 209,
        "9492": 92,
        "9493": 183,
        "9494": 203,
        "9495": 207,
        "9496": 134,
        "9497": 91,
        "9498": 189,
        "9499": 144,
        "9500": 227,
        "9501": 104,
        "9502": 255,
        "9503": 149,
        "9504": 178,
        "9505": 26,
        "9506": 91,
        "9507": 167,
        "9508": 128,
        "9509": 86,
        "9510": 221,
        "9511": 153,
        "9512": 51,
        "9513": 152,
        "9514": 131,
        "9515": 112,
        "9516": 69,
        "9517": 52,
        "9518": 141,
        "9519": 79,
        "9520": 26,
        "9521": 197,
        "9522": 27,
        "9523": 42,
        "9524": 138,
        "9525": 126,
        "9526": 179,
        "9527": 99,
        "9528": 144,
        "9529": 30,
        "9530": 2,
        "9531": 210,
        "9532": 98,
        "9533": 127,
        "9534": 3,
        "9535": 196,
        "9536": 198,
        "9537": 236,
        "9538": 176,
        "9539": 83,
        "9540": 131,
        "9541": 148,
        "9542": 227,
        "9543": 224,
        "9544": 223,
        "9545": 207,
        "9546": 167,
        "9547": 66,
        "9548": 198,
        "9549": 31,
        "9550": 222,
        "9551": 215,
        "9552": 79,
        "9553": 52,
        "9554": 9,
        "9555": 184,
        "9556": 193,
        "9557": 96,
        "9558": 242,
        "9559": 110,
        "9560": 115,
        "9561": 28,
        "9562": 67,
        "9563": 193,
        "9564": 136,
        "9565": 234,
        "9566": 193,
        "9567": 116,
        "9568": 16,
        "9569": 138,
        "9570": 72,
        "9571": 255,
        "9572": 210,
        "9573": 13,
        "9574": 232,
        "9575": 132,
        "9576": 242,
        "9577": 151,
        "9578": 65,
        "9579": 24,
        "9580": 198,
        "9581": 158,
        "9582": 144,
        "9583": 66,
        "9584": 105,
        "9585": 87,
        "9586": 22,
        "9587": 160,
        "9588": 110,
        "9589": 77,
        "9590": 54,
        "9591": 35,
        "9592": 201,
        "9593": 134,
        "9594": 154,
        "9595": 186,
        "9596": 22,
        "9597": 62,
        "9598": 21,
        "9599": 177,
        "9600": 50,
        "9601": 14,
        "9602": 130,
        "9603": 70,
        "9604": 42,
        "9605": 132,
        "9606": 193,
        "9607": 245,
        "9608": 240,
        "9609": 185,
        "9610": 145,
        "9611": 50,
        "9612": 168,
        "9613": 166,
        "9614": 135,
        "9615": 226,
        "9616": 59,
        "9617": 235,
        "9618": 192,
        "9619": 57,
        "9620": 209,
        "9621": 94,
        "9622": 219,
        "9623": 69,
        "9624": 237,
        "9625": 2,
        "9626": 89,
        "9627": 98,
        "9628": 74,
        "9629": 46,
        "9630": 193,
        "9631": 149,
        "9632": 124,
        "9633": 255,
        "9634": 234,
        "9635": 5,
        "9636": 106,
        "9637": 179,
        "9638": 28,
        "9639": 150,
        "9640": 233,
        "9641": 215,
        "9642": 42,
        "9643": 43,
        "9644": 226,
        "9645": 255,
        "9646": 158,
        "9647": 0,
        "9648": 70,
        "9649": 155,
        "9650": 229,
        "9651": 169,
        "9652": 232,
        "9653": 8,
        "9654": 239,
        "9655": 177,
        "9656": 136,
        "9657": 140,
        "9658": 9,
        "9659": 162,
        "9660": 87,
        "9661": 183,
        "9662": 245,
        "9663": 99,
        "9664": 88,
        "9665": 245,
        "9666": 9,
        "9667": 186,
        "9668": 49,
        "9669": 163,
        "9670": 224,
        "9671": 139,
        "9672": 122,
        "9673": 62,
        "9674": 125,
        "9675": 30,
        "9676": 43,
        "9677": 31,
        "9678": 39,
        "9679": 146,
        "9680": 246,
        "9681": 208,
        "9682": 113,
        "9683": 17,
        "9684": 105,
        "9685": 116,
        "9686": 190,
        "9687": 149,
        "9688": 69,
        "9689": 168,
        "9690": 56,
        "9691": 217,
        "9692": 95,
        "9693": 67,
        "9694": 4,
        "9695": 116,
        "9696": 235,
        "9697": 99,
        "9698": 24,
        "9699": 190,
        "9700": 213,
        "9701": 200,
        "9702": 237,
        "9703": 98,
        "9704": 200,
        "9705": 122,
        "9706": 13,
        "9707": 140,
        "9708": 2,
        "9709": 168,
        "9710": 161,
        "9711": 171,
        "9712": 139,
        "9713": 153,
        "9714": 122,
        "9715": 150,
        "9716": 216,
        "9717": 72,
        "9718": 160,
        "9719": 188,
        "9720": 185,
        "9721": 97,
        "9722": 196,
        "9723": 90,
        "9724": 229,
        "9725": 49,
        "9726": 103,
        "9727": 50,
        "9728": 114,
        "9729": 128,
        "9730": 19,
        "9731": 35,
        "9732": 20,
        "9733": 126,
        "9734": 81,
        "9735": 233,
        "9736": 209,
        "9737": 213,
        "9738": 83,
        "9739": 47,
        "9740": 253,
        "9741": 246,
        "9742": 121,
        "9743": 55,
        "9744": 124,
        "9745": 232,
        "9746": 167,
        "9747": 192,
        "9748": 83,
        "9749": 76,
        "9750": 20,
        "9751": 1,
        "9752": 13,
        "9753": 84,
        "9754": 33,
        "9755": 137,
        "9756": 173,
        "9757": 55,
        "9758": 129,
        "9759": 7,
        "9760": 208,
        "9761": 205,
        "9762": 128,
        "9763": 207,
        "9764": 29,
        "9765": 222,
        "9766": 65,
        "9767": 189,
        "9768": 28,
        "9769": 246,
        "9770": 73,
        "9771": 216,
        "9772": 197,
        "9773": 185,
        "9774": 50,
        "9775": 164,
        "9776": 219,
        "9777": 135,
        "9778": 219,
        "9779": 137,
        "9780": 244,
        "9781": 128,
        "9782": 25,
        "9783": 10,
        "9784": 49,
        "9785": 207,
        "9786": 213,
        "9787": 166,
        "9788": 150,
        "9789": 247,
        "9790": 69,
        "9791": 133,
        "9792": 179,
        "9793": 143,
        "9794": 214,
        "9795": 75,
        "9796": 128,
        "9797": 68,
        "9798": 4,
        "9799": 28,
        "9800": 57,
        "9801": 67,
        "9802": 32,
        "9803": 95,
        "9804": 187,
        "9805": 249,
        "9806": 135,
        "9807": 82,
        "9808": 150,
        "9809": 50,
        "9810": 57,
        "9811": 74,
        "9812": 78,
        "9813": 250,
        "9814": 187,
        "9815": 248,
        "9816": 77,
        "9817": 249,
        "9818": 159,
        "9819": 5,
        "9820": 68,
        "9821": 213,
        "9822": 180,
        "9823": 51,
        "9824": 68,
        "9825": 197,
        "9826": 157,
        "9827": 143,
        "9828": 43,
        "9829": 111,
        "9830": 4,
        "9831": 0,
        "9832": 178,
        "9833": 213,
        "9834": 67,
        "9835": 89,
        "9836": 74,
        "9837": 79,
        "9838": 92,
        "9839": 51,
        "9840": 144,
        "9841": 128,
        "9842": 5,
        "9843": 126,
        "9844": 51,
        "9845": 223,
        "9846": 35,
        "9847": 7,
        "9848": 127,
        "9849": 102,
        "9850": 252,
        "9851": 37,
        "9852": 123,
        "9853": 201,
        "9854": 163,
        "9855": 118,
        "9856": 175,
        "9857": 242,
        "9858": 76,
        "9859": 100,
        "9860": 79,
        "9861": 49,
        "9862": 38,
        "9863": 194,
        "9864": 228,
        "9865": 78,
        "9866": 197,
        "9867": 13,
        "9868": 75,
        "9869": 224,
        "9870": 138,
        "9871": 219,
        "9872": 213,
        "9873": 224,
        "9874": 16,
        "9875": 76,
        "9876": 31,
        "9877": 127,
        "9878": 161,
        "9879": 114,
        "9880": 92,
        "9881": 105,
        "9882": 180,
        "9883": 233,
        "9884": 212,
        "9885": 254,
        "9886": 122,
        "9887": 244,
        "9888": 143,
        "9889": 106,
        "9890": 99,
        "9891": 191,
        "9892": 28,
        "9893": 199,
        "9894": 179,
        "9895": 101,
        "9896": 0,
        "9897": 14,
        "9898": 157,
        "9899": 254,
        "9900": 244,
        "9901": 120,
        "9902": 226,
        "9903": 211,
        "9904": 163,
        "9905": 26,
        "9906": 196,
        "9907": 87,
        "9908": 72,
        "9909": 1,
        "9910": 125,
        "9911": 57,
        "9912": 173,
        "9913": 241,
        "9914": 108,
        "9915": 144,
        "9916": 221,
        "9917": 191,
        "9918": 89,
        "9919": 148,
        "9920": 252,
        "9921": 112,
        "9922": 170,
        "9923": 25,
        "9924": 213,
        "9925": 150,
        "9926": 236,
        "9927": 118,
        "9928": 46,
        "9929": 207,
        "9930": 196,
        "9931": 60,
        "9932": 134,
        "9933": 171,
        "9934": 103,
        "9935": 63,
        "9936": 63,
        "9937": 249,
        "9938": 122,
        "9939": 112,
        "9940": 153,
        "9941": 107,
        "9942": 222,
        "9943": 214,
        "9944": 120,
        "9945": 133,
        "9946": 149,
        "9947": 62,
        "9948": 123,
        "9949": 203,
        "9950": 166,
        "9951": 205,
        "9952": 158,
        "9953": 243,
        "9954": 175,
        "9955": 237,
        "9956": 220,
        "9957": 237,
        "9958": 192,
        "9959": 190,
        "9960": 81,
        "9961": 114,
        "9962": 243,
        "9963": 156,
        "9964": 232,
        "9965": 41,
        "9966": 224,
        "9967": 231,
        "9968": 155,
        "9969": 115,
        "9970": 207,
        "9971": 91,
        "9972": 39,
        "9973": 150,
        "9974": 70,
        "9975": 44,
        "9976": 185,
        "9977": 249,
        "9978": 9,
        "9979": 106,
        "9980": 39,
        "9981": 139,
        "9982": 11,
        "9983": 130,
        "9984": 118,
        "9985": 33,
        "9986": 33,
        "9987": 249,
        "9988": 208,
        "9989": 240,
        "9990": 117,
        "9991": 4,
        "9992": 169,
        "9993": 102,
        "9994": 102,
        "9995": 160,
        "9996": 177,
        "9997": 7,
        "9998": 82,
        "9999": 185,
        "10000": 229,
        "10001": 88,
        "10002": 236,
        "10003": 1,
        "10004": 70,
        "10005": 155,
        "10006": 157,
        "10007": 18,
        "10008": 54,
        "10009": 34,
        "10010": 142,
        "10011": 36,
        "10012": 2,
        "10013": 226,
        "10014": 209,
        "10015": 68,
        "10016": 229,
        "10017": 10,
        "10018": 240,
        "10019": 229,
        "10020": 139,
        "10021": 89,
        "10022": 211,
        "10023": 91,
        "10024": 50,
        "10025": 35,
        "10026": 252,
        "10027": 106,
        "10028": 85,
        "10029": 201,
        "10030": 214,
        "10031": 38,
        "10032": 134,
        "10033": 142,
        "10034": 119,
        "10035": 242,
        "10036": 209,
        "10037": 35,
        "10038": 195,
        "10039": 205,
        "10040": 245,
        "10041": 202,
        "10042": 178,
        "10043": 225,
        "10044": 215,
        "10045": 71,
        "10046": 127,
        "10047": 8,
        "10048": 91,
        "10049": 92,
        "10050": 45,
        "10051": 255,
        "10052": 206,
        "10053": 16,
        "10054": 202,
        "10055": 204,
        "10056": 214,
        "10057": 133,
        "10058": 82,
        "10059": 211,
        "10060": 64,
        "10061": 81,
        "10062": 101,
        "10063": 245,
        "10064": 91,
        "10065": 14,
        "10066": 229,
        "10067": 192,
        "10068": 82,
        "10069": 115,
        "10070": 213,
        "10071": 244,
        "10072": 170,
        "10073": 197,
        "10074": 255,
        "10075": 143,
        "10076": 110,
        "10077": 114,
        "10078": 64,
        "10079": 247,
        "10080": 74,
        "10081": 178,
        "10082": 161,
        "10083": 63,
        "10084": 91,
        "10085": 154,
        "10086": 14,
        "10087": 194,
        "10088": 29,
        "10089": 213,
        "10090": 255,
        "10091": 155,
        "10092": 177,
        "10093": 70,
        "10094": 105,
        "10095": 36,
        "10096": 9,
        "10097": 148,
        "10098": 208,
        "10099": 21,
        "10100": 44,
        "10101": 119,
        "10102": 222,
        "10103": 43,
        "10104": 186,
        "10105": 82,
        "10106": 58,
        "10107": 167,
        "10108": 149,
        "10109": 24,
        "10110": 84,
        "10111": 157,
        "10112": 155,
        "10113": 72,
        "10114": 147,
        "10115": 226,
        "10116": 190,
        "10117": 196,
        "10118": 160,
        "10119": 211,
        "10120": 66,
        "10121": 57,
        "10122": 22,
        "10123": 178,
        "10124": 108,
        "10125": 215,
        "10126": 113,
        "10127": 0,
        "10128": 183,
        "10129": 118,
        "10130": 253,
        "10131": 249,
        "10132": 196,
        "10133": 218,
        "10134": 215,
        "10135": 233,
        "10136": 32,
        "10137": 42,
        "10138": 194,
        "10139": 181,
        "10140": 182,
        "10141": 152,
        "10142": 182,
        "10143": 114,
        "10144": 216,
        "10145": 35,
        "10146": 42,
        "10147": 107,
        "10148": 149,
        "10149": 77,
        "10150": 169,
        "10151": 47,
        "10152": 177,
        "10153": 235,
        "10154": 160,
        "10155": 187,
        "10156": 14,
        "10157": 140,
        "10158": 32,
        "10159": 74,
        "10160": 78,
        "10161": 33,
        "10162": 254,
        "10163": 129,
        "10164": 54,
        "10165": 254,
        "10166": 172,
        "10167": 63,
        "10168": 5,
        "10169": 8,
        "10170": 199,
        "10171": 158,
        "10172": 202,
        "10173": 17,
        "10174": 179,
        "10175": 62,
        "10176": 25,
        "10177": 149,
        "10178": 76,
        "10179": 176,
        "10180": 101,
        "10181": 170,
        "10182": 126,
        "10183": 191,
        "10184": 160,
        "10185": 81,
        "10186": 14,
        "10187": 238,
        "10188": 29,
        "10189": 63,
        "10190": 209,
        "10191": 125,
        "10192": 98,
        "10193": 241,
        "10194": 194,
        "10195": 101,
        "10196": 226,
        "10197": 224,
        "10198": 139,
        "10199": 171,
        "10200": 41,
        "10201": 175,
        "10202": 19,
        "10203": 173,
        "10204": 136,
        "10205": 39,
        "10206": 68,
        "10207": 88,
        "10208": 133,
        "10209": 236,
        "10210": 111,
        "10211": 78,
        "10212": 187,
        "10213": 224,
        "10214": 59,
        "10215": 238,
        "10216": 62,
        "10217": 31,
        "10218": 255,
        "10219": 5,
        "10220": 151,
        "10221": 71,
        "10222": 83,
        "10223": 30,
        "10224": 192,
        "10225": 229,
        "10226": 135,
        "10227": 73,
        "10228": 232,
        "10229": 123,
        "10230": 95,
        "10231": 91,
        "10232": 201,
        "10233": 171,
        "10234": 163,
        "10235": 244,
        "10236": 26,
        "10237": 106,
        "10238": 147,
        "10239": 255,
        "10240": 163,
        "10241": 2,
        "10242": 226,
        "10243": 23,
        "10244": 223,
        "10245": 64,
        "10246": 90,
        "10247": 186,
        "10248": 118,
        "10249": 198,
        "10250": 70,
        "10251": 61,
        "10252": 186,
        "10253": 23,
        "10254": 165,
        "10255": 169,
        "10256": 136,
        "10257": 148,
        "10258": 171,
        "10259": 134,
        "10260": 133,
        "10261": 114,
        "10262": 190,
        "10263": 145,
        "10264": 252,
        "10265": 121,
        "10266": 236,
        "10267": 179,
        "10268": 49,
        "10269": 251,
        "10270": 119,
        "10271": 49,
        "10272": 129,
        "10273": 4,
        "10274": 36,
        "10275": 65,
        "10276": 197,
        "10277": 183,
        "10278": 129,
        "10279": 115,
        "10280": 15,
        "10281": 212,
        "10282": 127,
        "10283": 193,
        "10284": 74,
        "10285": 20,
        "10286": 82,
        "10287": 100,
        "10288": 154,
        "10289": 169,
        "10290": 11,
        "10291": 77,
        "10292": 173,
        "10293": 96,
        "10294": 225,
        "10295": 122,
        "10296": 186,
        "10297": 208,
        "10298": 157,
        "10299": 136,
        "10300": 71,
        "10301": 7,
        "10302": 13,
        "10303": 85,
        "10304": 193,
        "10305": 171,
        "10306": 208,
        "10307": 13,
        "10308": 149,
        "10309": 84,
        "10310": 127,
        "10311": 19,
        "10312": 190,
        "10313": 92,
        "10314": 48,
        "10315": 210,
        "10316": 154,
        "10317": 151,
        "10318": 70,
        "10319": 0,
        "10320": 136,
        "10321": 102,
        "10322": 74,
        "10323": 130,
        "10324": 139,
        "10325": 96,
        "10326": 38,
        "10327": 166,
        "10328": 102,
        "10329": 124,
        "10330": 195,
        "10331": 31,
        "10332": 6,
        "10333": 178,
        "10334": 10,
        "10335": 209,
        "10336": 18,
        "10337": 66,
        "10338": 85,
        "10339": 106,
        "10340": 34,
        "10341": 153,
        "10342": 126,
        "10343": 30,
        "10344": 162,
        "10345": 11,
        "10346": 243,
        "10347": 195,
        "10348": 83,
        "10349": 220,
        "10350": 101,
        "10351": 122,
        "10352": 16,
        "10353": 65,
        "10354": 158,
        "10355": 43,
        "10356": 25,
        "10357": 106,
        "10358": 110,
        "10359": 225,
        "10360": 25,
        "10361": 122,
        "10362": 186,
        "10363": 0,
        "10364": 24,
        "10365": 66,
        "10366": 211,
        "10367": 16,
        "10368": 65,
        "10369": 240,
        "10370": 26,
        "10371": 195,
        "10372": 1,
        "10373": 100,
        "10374": 67,
        "10375": 219,
        "10376": 9,
        "10377": 71,
        "10378": 127,
        "10379": 186,
        "10380": 60,
        "10381": 230,
        "10382": 200,
        "10383": 99,
        "10384": 114,
        "10385": 187,
        "10386": 85,
        "10387": 80,
        "10388": 52,
        "10389": 116,
        "10390": 252,
        "10391": 55,
        "10392": 36,
        "10393": 129,
        "10394": 79,
        "10395": 105,
        "10396": 210,
        "10397": 137,
        "10398": 65,
        "10399": 197,
        "10400": 249,
        "10401": 110,
        "10402": 138,
        "10403": 199,
        "10404": 103,
        "10405": 217,
        "10406": 56,
        "10407": 93,
        "10408": 83,
        "10409": 103,
        "10410": 94,
        "10411": 97,
        "10412": 115,
        "10413": 243,
        "10414": 211,
        "10415": 83,
        "10416": 108,
        "10417": 127,
        "10418": 244,
        "10419": 19,
        "10420": 181,
        "10421": 136,
        "10422": 97,
        "10423": 104,
        "10424": 193,
        "10425": 209,
        "10426": 34,
        "10427": 220,
        "10428": 241,
        "10429": 163,
        "10430": 112,
        "10431": 22,
        "10432": 181,
        "10433": 32,
        "10434": 119,
        "10435": 199,
        "10436": 73,
        "10437": 103,
        "10438": 74,
        "10439": 90,
        "10440": 213,
        "10441": 219,
        "10442": 252,
        "10443": 83,
        "10444": 135,
        "10445": 17,
        "10446": 204,
        "10447": 13,
        "10448": 212,
        "10449": 236,
        "10450": 128,
        "10451": 67,
        "10452": 225,
        "10453": 114,
        "10454": 223,
        "10455": 158,
        "10456": 21,
        "10457": 153,
        "10458": 59,
        "10459": 241,
        "10460": 226,
        "10461": 8,
        "10462": 160,
        "10463": 231,
        "10464": 105,
        "10465": 4,
        "10466": 251,
        "10467": 51,
        "10468": 104,
        "10469": 27,
        "10470": 236,
        "10471": 186,
        "10472": 194,
        "10473": 214,
        "10474": 96,
        "10475": 42,
        "10476": 22,
        "10477": 51,
        "10478": 252,
        "10479": 156,
        "10480": 69,
        "10481": 74,
        "10482": 41,
        "10483": 236,
        "10484": 162,
        "10485": 111,
        "10486": 205,
        "10487": 57,
        "10488": 80,
        "10489": 170,
        "10490": 216,
        "10491": 110,
        "10492": 252,
        "10493": 44,
        "10494": 81,
        "10495": 7,
        "10496": 209,
        "10497": 87,
        "10498": 255,
        "10499": 228,
        "10500": 173,
        "10501": 18,
        "10502": 88,
        "10503": 75,
        "10504": 62,
        "10505": 117,
        "10506": 72,
        "10507": 51,
        "10508": 108,
        "10509": 223,
        "10510": 191,
        "10511": 47,
        "10512": 168,
        "10513": 220,
        "10514": 24,
        "10515": 184,
        "10516": 134,
        "10517": 140,
        "10518": 59,
        "10519": 127,
        "10520": 152,
        "10521": 191,
        "10522": 55,
        "10523": 244,
        "10524": 120,
        "10525": 130,
        "10526": 223,
        "10527": 53,
        "10528": 89,
        "10529": 170,
        "10530": 0,
        "10531": 110,
        "10532": 125,
        "10533": 67,
        "10534": 156,
        "10535": 41,
        "10536": 233,
        "10537": 252,
        "10538": 125,
        "10539": 166,
        "10540": 204,
        "10541": 72,
        "10542": 243,
        "10543": 138,
        "10544": 239,
        "10545": 118,
        "10546": 220,
        "10547": 126,
        "10548": 201,
        "10549": 97,
        "10550": 193,
        "10551": 239,
        "10552": 174,
        "10553": 154,
        "10554": 163,
        "10555": 197,
        "10556": 148,
        "10557": 42,
        "10558": 184,
        "10559": 86,
        "10560": 133,
        "10561": 165,
        "10562": 206,
        "10563": 216,
        "10564": 174,
        "10565": 166,
        "10566": 158,
        "10567": 135,
        "10568": 174,
        "10569": 187,
        "10570": 114,
        "10571": 86,
        "10572": 188,
        "10573": 181,
        "10574": 244,
        "10575": 240,
        "10576": 213,
        "10577": 249,
        "10578": 33,
        "10579": 6,
        "10580": 101,
        "10581": 41,
        "10582": 50,
        "10583": 190,
        "10584": 200,
        "10585": 226,
        "10586": 8,
        "10587": 98,
        "10588": 19,
        "10589": 169,
        "10590": 122,
        "10591": 234,
        "10592": 92,
        "10593": 234,
        "10594": 4,
        "10595": 123,
        "10596": 138,
        "10597": 243,
        "10598": 236,
        "10599": 110,
        "10600": 63,
        "10601": 250,
        "10602": 247,
        "10603": 228,
        "10604": 6,
        "10605": 199,
        "10606": 138,
        "10607": 43,
        "10608": 59,
        "10609": 47,
        "10610": 116,
        "10611": 155,
        "10612": 117,
        "10613": 250,
        "10614": 113,
        "10615": 203,
        "10616": 89,
        "10617": 203,
        "10618": 175,
        "10619": 14,
        "10620": 12,
        "10621": 29,
        "10622": 153,
        "10623": 188,
        "10624": 2,
        "10625": 22,
        "10626": 4,
        "10627": 86,
        "10628": 144,
        "10629": 248,
        "10630": 85,
        "10631": 99,
        "10632": 76,
        "10633": 40,
        "10634": 144,
        "10635": 196,
        "10636": 102,
        "10637": 92,
        "10638": 107,
        "10639": 213,
        "10640": 20,
        "10641": 21,
        "10642": 25,
        "10643": 33,
        "10644": 170,
        "10645": 27,
        "10646": 5,
        "10647": 18,
        "10648": 191,
        "10649": 29,
        "10650": 18,
        "10651": 19,
        "10652": 22,
        "10653": 233,
        "10654": 87,
        "10655": 133,
        "10656": 65,
        "10657": 83,
        "10658": 147,
        "10659": 254,
        "10660": 139,
        "10661": 38,
        "10662": 1,
        "10663": 218,
        "10664": 74,
        "10665": 65,
        "10666": 41,
        "10667": 75,
        "10668": 130,
        "10669": 78,
        "10670": 228,
        "10671": 87,
        "10672": 107,
        "10673": 8,
        "10674": 38,
        "10675": 202,
        "10676": 253,
        "10677": 177,
        "10678": 166,
        "10679": 36,
        "10680": 220,
        "10681": 97,
        "10682": 49,
        "10683": 89,
        "10684": 37,
        "10685": 211,
        "10686": 204,
        "10687": 223,
        "10688": 153,
        "10689": 104,
        "10690": 224,
        "10691": 110,
        "10692": 213,
        "10693": 136,
        "10694": 134,
        "10695": 244,
        "10696": 82,
        "10697": 3,
        "10698": 120,
        "10699": 231,
        "10700": 129,
        "10701": 27,
        "10702": 91,
        "10703": 100,
        "10704": 94,
        "10705": 98,
        "10706": 188,
        "10707": 151,
        "10708": 210,
        "10709": 141,
        "10710": 187,
        "10711": 156,
        "10712": 13,
        "10713": 32,
        "10714": 200,
        "10715": 136,
        "10716": 147,
        "10717": 162,
        "10718": 255,
        "10719": 121,
        "10720": 254,
        "10721": 46,
        "10722": 206,
        "10723": 215,
        "10724": 193,
        "10725": 164,
        "10726": 70,
        "10727": 77,
        "10728": 128,
        "10729": 252,
        "10730": 18,
        "10731": 102,
        "10732": 18,
        "10733": 246,
        "10734": 174,
        "10735": 63,
        "10736": 169,
        "10737": 217,
        "10738": 113,
        "10739": 150,
        "10740": 109,
        "10741": 218,
        "10742": 82,
        "10743": 106,
        "10744": 145,
        "10745": 177,
        "10746": 23,
        "10747": 24,
        "10748": 5,
        "10749": 171,
        "10750": 163,
        "10751": 189,
        "10752": 180,
        "10753": 236,
        "10754": 111,
        "10755": 151,
        "10756": 136,
        "10757": 5,
        "10758": 194,
        "10759": 206,
        "10760": 29,
        "10761": 87,
        "10762": 221,
        "10763": 144,
        "10764": 55,
        "10765": 28,
        "10766": 116,
        "10767": 78,
        "10768": 162,
        "10769": 52,
        "10770": 101,
        "10771": 58,
        "10772": 239,
        "10773": 83,
        "10774": 57,
        "10775": 157,
        "10776": 136,
        "10777": 78,
        "10778": 82,
        "10779": 141,
        "10780": 243,
        "10781": 196,
        "10782": 15,
        "10783": 205,
        "10784": 58,
        "10785": 33,
        "10786": 78,
        "10787": 194,
        "10788": 71,
        "10789": 27,
        "10790": 94,
        "10791": 77,
        "10792": 221,
        "10793": 229,
        "10794": 211,
        "10795": 247,
        "10796": 38,
        "10797": 208,
        "10798": 24,
        "10799": 46,
        "10800": 180,
        "10801": 109,
        "10802": 196,
        "10803": 190,
        "10804": 191,
        "10805": 200,
        "10806": 98,
        "10807": 136,
        "10808": 11,
        "10809": 95,
        "10810": 197,
        "10811": 6,
        "10812": 204,
        "10813": 103,
        "10814": 117,
        "10815": 235,
        "10816": 77,
        "10817": 118,
        "10818": 240,
        "10819": 14,
        "10820": 135,
        "10821": 164,
        "10822": 228,
        "10823": 187,
        "10824": 192,
        "10825": 232,
        "10826": 223,
        "10827": 246,
        "10828": 120,
        "10829": 59,
        "10830": 247,
        "10831": 150,
        "10832": 251,
        "10833": 222,
        "10834": 104,
        "10835": 243,
        "10836": 237,
        "10837": 237,
        "10838": 191,
        "10839": 71,
        "10840": 103,
        "10841": 166,
        "10842": 236,
        "10843": 142,
        "10844": 220,
        "10845": 161,
        "10846": 198,
        "10847": 69,
        "10848": 245,
        "10849": 45,
        "10850": 23,
        "10851": 193,
        "10852": 136,
        "10853": 254,
        "10854": 135,
        "10855": 106,
        "10856": 156,
        "10857": 104,
        "10858": 17,
        "10859": 223,
        "10860": 253,
        "10861": 129,
        "10862": 149,
        "10863": 58,
        "10864": 102,
        "10865": 243,
        "10866": 207,
        "10867": 133,
        "10868": 3,
        "10869": 135,
        "10870": 80,
        "10871": 0,
        "10872": 232,
        "10873": 11,
        "10874": 1,
        "10875": 157,
        "10876": 48,
        "10877": 119,
        "10878": 31,
        "10879": 213,
        "10880": 211,
        "10881": 26,
        "10882": 125,
        "10883": 48,
        "10884": 229,
        "10885": 99,
        "10886": 133,
        "10887": 239,
        "10888": 90,
        "10889": 98,
        "10890": 132,
        "10891": 13,
        "10892": 219,
        "10893": 82,
        "10894": 230,
        "10895": 166,
        "10896": 213,
        "10897": 121,
        "10898": 144,
        "10899": 230,
        "10900": 116,
        "10901": 116,
        "10902": 225,
        "10903": 243,
        "10904": 53,
        "10905": 236,
        "10906": 63,
        "10907": 164,
        "10908": 87,
        "10909": 231,
        "10910": 192,
        "10911": 193,
        "10912": 62,
        "10913": 201,
        "10914": 94,
        "10915": 138,
        "10916": 232,
        "10917": 21,
        "10918": 182,
        "10919": 155,
        "10920": 48,
        "10921": 46,
        "10922": 166,
        "10923": 219,
        "10924": 54,
        "10925": 17,
        "10926": 106,
        "10927": 3,
        "10928": 143,
        "10929": 65,
        "10930": 43,
        "10931": 126,
        "10932": 53,
        "10933": 115,
        "10934": 201,
        "10935": 0,
        "10936": 222,
        "10937": 225,
        "10938": 107,
        "10939": 93,
        "10940": 160,
        "10941": 133,
        "10942": 189,
        "10943": 107,
        "10944": 41,
        "10945": 84,
        "10946": 105,
        "10947": 121,
        "10948": 39,
        "10949": 174,
        "10950": 121,
        "10951": 83,
        "10952": 71,
        "10953": 215,
        "10954": 90,
        "10955": 224,
        "10956": 96,
        "10957": 32,
        "10958": 131,
        "10959": 49,
        "10960": 167,
        "10961": 255,
        "10962": 210,
        "10963": 72,
        "10964": 63,
        "10965": 136,
        "10966": 239,
        "10967": 233,
        "10968": 32,
        "10969": 19,
        "10970": 81,
        "10971": 171,
        "10972": 89,
        "10973": 116,
        "10974": 207,
        "10975": 39,
        "10976": 109,
        "10977": 57,
        "10978": 82,
        "10979": 55,
        "10980": 173,
        "10981": 31,
        "10982": 247,
        "10983": 94,
        "10984": 133,
        "10985": 142,
        "10986": 34,
        "10987": 155,
        "10988": 17,
        "10989": 206,
        "10990": 107,
        "10991": 119,
        "10992": 186,
        "10993": 253,
        "10994": 42,
        "10995": 51,
        "10996": 109,
        "10997": 183,
        "10998": 25,
        "10999": 192,
        "11000": 153,
        "11001": 55,
        "11002": 155,
        "11003": 243,
        "11004": 208,
        "11005": 250,
        "11006": 204,
        "11007": 157,
        "11008": 106,
        "11009": 215,
        "11010": 249,
        "11011": 47,
        "11012": 148,
        "11013": 157,
        "11014": 65,
        "11015": 5,
        "11016": 149,
        "11017": 178,
        "11018": 111,
        "11019": 193,
        "11020": 202,
        "11021": 161,
        "11022": 66,
        "11023": 7,
        "11024": 142,
        "11025": 177,
        "11026": 22,
        "11027": 126,
        "11028": 95,
        "11029": 105,
        "11030": 79,
        "11031": 39,
        "11032": 128,
        "11033": 47,
        "11034": 39,
        "11035": 212,
        "11036": 12,
        "11037": 87,
        "11038": 127,
        "11039": 230,
        "11040": 231,
        "11041": 113,
        "11042": 239,
        "11043": 147,
        "11044": 178,
        "11045": 14,
        "11046": 251,
        "11047": 50,
        "11048": 16,
        "11049": 38,
        "11050": 11,
        "11051": 185,
        "11052": 236,
        "11053": 64,
        "11054": 12,
        "11055": 123,
        "11056": 196,
        "11057": 126,
        "11058": 227,
        "11059": 132,
        "11060": 150,
        "11061": 216,
        "11062": 33,
        "11063": 29,
        "11064": 104,
        "11065": 49,
        "11066": 239,
        "11067": 185,
        "11068": 164,
        "11069": 167,
        "11070": 6,
        "11071": 34,
        "11072": 65,
        "11073": 150,
        "11074": 20,
        "11075": 181,
        "11076": 211,
        "11077": 26,
        "11078": 146,
        "11079": 195,
        "11080": 113,
        "11081": 52,
        "11082": 193,
        "11083": 112,
        "11084": 105,
        "11085": 98,
        "11086": 194,
        "11087": 253,
        "11088": 216,
        "11089": 219,
        "11090": 146,
        "11091": 35,
        "11092": 39,
        "11093": 190,
        "11094": 115,
        "11095": 148,
        "11096": 52,
        "11097": 13,
        "11098": 23,
        "11099": 34,
        "11100": 107,
        "11101": 83,
        "11102": 227,
        "11103": 69,
        "11104": 17,
        "11105": 79,
        "11106": 29,
        "11107": 147,
        "11108": 225,
        "11109": 52,
        "11110": 192,
        "11111": 34,
        "11112": 136,
        "11113": 144,
        "11114": 32,
        "11115": 154,
        "11116": 44,
        "11117": 148,
        "11118": 113,
        "11119": 65,
        "11120": 42,
        "11121": 132,
        "11122": 171,
        "11123": 1,
        "11124": 39,
        "11125": 141,
        "11126": 9,
        "11127": 204,
        "11128": 54,
        "11129": 249,
        "11130": 99,
        "11131": 138,
        "11132": 39,
        "11133": 10,
        "11134": 151,
        "11135": 11,
        "11136": 5,
        "11137": 193,
        "11138": 235,
        "11139": 218,
        "11140": 16,
        "11141": 64,
        "11142": 31,
        "11143": 27,
        "11144": 188,
        "11145": 13,
        "11146": 227,
        "11147": 137,
        "11148": 211,
        "11149": 66,
        "11150": 120,
        "11151": 50,
        "11152": 101,
        "11153": 221,
        "11154": 177,
        "11155": 47,
        "11156": 121,
        "11157": 13,
        "11158": 251,
        "11159": 178,
        "11160": 162,
        "11161": 124,
        "11162": 81,
        "11163": 199,
        "11164": 40,
        "11165": 219,
        "11166": 218,
        "11167": 107,
        "11168": 108,
        "11169": 116,
        "11170": 225,
        "11171": 10,
        "11172": 207,
        "11173": 151,
        "11174": 133,
        "11175": 103,
        "11176": 118,
        "11177": 209,
        "11178": 179,
        "11179": 106,
        "11180": 208,
        "11181": 66,
        "11182": 174,
        "11183": 29,
        "11184": 122,
        "11185": 162,
        "11186": 179,
        "11187": 172,
        "11188": 81,
        "11189": 172,
        "11190": 245,
        "11191": 165,
        "11192": 70,
        "11193": 234,
        "11194": 227,
        "11195": 172,
        "11196": 146,
        "11197": 8,
        "11198": 80,
        "11199": 214,
        "11200": 134,
        "11201": 92,
        "11202": 245,
        "11203": 95,
        "11204": 132,
        "11205": 119,
        "11206": 19,
        "11207": 244,
        "11208": 20,
        "11209": 170,
        "11210": 39,
        "11211": 233,
        "11212": 255,
        "11213": 101,
        "11214": 186,
        "11215": 185,
        "11216": 242,
        "11217": 251,
        "11218": 95,
        "11219": 86,
        "11220": 31,
        "11221": 157,
        "11222": 62,
        "11223": 77,
        "11224": 121,
        "11225": 4,
        "11226": 191,
        "11227": 144,
        "11228": 168,
        "11229": 119,
        "11230": 38,
        "11231": 19,
        "11232": 127,
        "11233": 149,
        "11234": 48,
        "11235": 233,
        "11236": 123,
        "11237": 78,
        "11238": 169,
        "11239": 194,
        "11240": 86,
        "11241": 120,
        "11242": 208,
        "11243": 111,
        "11244": 160,
        "11245": 120,
        "11246": 16,
        "11247": 9,
        "11248": 157,
        "11249": 48,
        "11250": 93,
        "11251": 230,
        "11252": 167,
        "11253": 34,
        "11254": 191,
        "11255": 211,
        "11256": 203,
        "11257": 188,
        "11258": 18,
        "11259": 64,
        "11260": 169,
        "11261": 126,
        "11262": 88,
        "11263": 61,
        "11264": 22,
        "11265": 35,
        "11266": 148,
        "11267": 3,
        "11268": 44,
        "11269": 64,
        "11270": 189,
        "11271": 183,
        "11272": 102,
        "11273": 24,
        "11274": 1,
        "11275": 118,
        "11276": 191,
        "11277": 158,
        "11278": 222,
        "11279": 249,
        "11280": 181,
        "11281": 19,
        "11282": 31,
        "11283": 102,
        "11284": 14,
        "11285": 31,
        "11286": 123,
        "11287": 211,
        "11288": 12,
        "11289": 4,
        "11290": 91,
        "11291": 55,
        "11292": 188,
        "11293": 113,
        "11294": 95,
        "11295": 229,
        "11296": 179,
        "11297": 201,
        "11298": 67,
        "11299": 43,
        "11300": 231,
        "11301": 71,
        "11302": 203,
        "11303": 6,
        "11304": 244,
        "11305": 9,
        "11306": 53,
        "11307": 90,
        "11308": 68,
        "11309": 241,
        "11310": 202,
        "11311": 147,
        "11312": 143,
        "11313": 55,
        "11314": 126,
        "11315": 123,
        "11316": 192,
        "11317": 7,
        "11318": 14,
        "11319": 187,
        "11320": 59,
        "11321": 46,
        "11322": 46,
        "11323": 45,
        "11324": 13,
        "11325": 121,
        "11326": 220,
        "11327": 95,
        "11328": 190,
        "11329": 210,
        "11330": 226,
        "11331": 61,
        "11332": 32,
        "11333": 210,
        "11334": 232,
        "11335": 101,
        "11336": 179,
        "11337": 38,
        "11338": 44,
        "11339": 244,
        "11340": 40,
        "11341": 252,
        "11342": 158,
        "11343": 175,
        "11344": 16,
        "11345": 110,
        "11346": 60,
        "11347": 184,
        "11348": 155,
        "11349": 144,
        "11350": 204,
        "11351": 184,
        "11352": 196,
        "11353": 29,
        "11354": 111,
        "11355": 124,
        "11356": 118,
        "11357": 108,
        "11358": 45,
        "11359": 195,
        "11360": 156,
        "11361": 62,
        "11362": 17,
        "11363": 110,
        "11364": 216,
        "11365": 39,
        "11366": 15,
        "11367": 250,
        "11368": 255,
        "11369": 202,
        "11370": 21,
        "11371": 4,
        "11372": 241,
        "11373": 58,
        "11374": 41,
        "11375": 45,
        "11376": 165,
        "11377": 0,
        "11378": 247,
        "11379": 71,
        "11380": 2,
        "11381": 195,
        "11382": 47,
        "11383": 249,
        "11384": 78,
        "11385": 0,
        "11386": 64,
        "11387": 46,
        "11388": 25,
        "11389": 216,
        "11390": 12,
        "11391": 252,
        "11392": 182,
        "11393": 207,
        "11394": 85,
        "11395": 156,
        "11396": 128,
        "11397": 237,
        "11398": 20,
        "11399": 88,
        "11400": 84,
        "11401": 12,
        "11402": 251,
        "11403": 58,
        "11404": 221,
        "11405": 254,
        "11406": 78,
        "11407": 66,
        "11408": 188,
        "11409": 119,
        "11410": 51,
        "11411": 81,
        "11412": 204,
        "11413": 190,
        "11414": 104,
        "11415": 23,
        "11416": 243,
        "11417": 102,
        "11418": 109,
        "11419": 59,
        "11420": 146,
        "11421": 214,
        "11422": 169,
        "11423": 28,
        "11424": 125,
        "11425": 164,
        "11426": 207,
        "11427": 100,
        "11428": 15,
        "11429": 5,
        "11430": 225,
        "11431": 21,
        "11432": 158,
        "11433": 144,
        "11434": 190,
        "11435": 60,
        "11436": 197,
        "11437": 200,
        "11438": 50,
        "11439": 138,
        "11440": 192,
        "11441": 106,
        "11442": 112,
        "11443": 85,
        "11444": 0,
        "11445": 20,
        "11446": 72,
        "11447": 104,
        "11448": 207,
        "11449": 0,
        "11450": 205,
        "11451": 31,
        "11452": 137,
        "11453": 238,
        "11454": 158,
        "11455": 208,
        "11456": 90,
        "11457": 57,
        "11458": 32,
        "11459": 133,
        "11460": 131,
        "11461": 178,
        "11462": 229,
        "11463": 1,
        "11464": 247,
        "11465": 112,
        "11466": 115,
        "11467": 212,
        "11468": 194,
        "11469": 91,
        "11470": 65,
        "11471": 201,
        "11472": 36,
        "11473": 51,
        "11474": 48,
        "11475": 112,
        "11476": 233,
        "11477": 68,
        "11478": 115,
        "11479": 252,
        "11480": 110,
        "11481": 173,
        "11482": 179,
        "11483": 161,
        "11484": 88,
        "11485": 210,
        "11486": 140,
        "11487": 103,
        "11488": 9,
        "11489": 96,
        "11490": 189,
        "11491": 80,
        "11492": 184,
        "11493": 253,
        "11494": 88,
        "11495": 35,
        "11496": 60,
        "11497": 101,
        "11498": 157,
        "11499": 20,
        "11500": 65,
        "11501": 72,
        "11502": 77,
        "11503": 165,
        "11504": 183,
        "11505": 63,
        "11506": 117,
        "11507": 117,
        "11508": 204,
        "11509": 240,
        "11510": 122,
        "11511": 0,
        "11512": 174,
        "11513": 9,
        "11514": 255,
        "11515": 76,
        "11516": 193,
        "11517": 52,
        "11518": 200,
        "11519": 213,
        "11520": 112,
        "11521": 198,
        "11522": 36,
        "11523": 145,
        "11524": 252,
        "11525": 245,
        "11526": 5,
        "11527": 7,
        "11528": 221,
        "11529": 216,
        "11530": 148,
        "11531": 211,
        "11532": 13,
        "11533": 186,
        "11534": 109,
        "11535": 253,
        "11536": 63,
        "11537": 130,
        "11538": 179,
        "11539": 131,
        "11540": 111,
        "11541": 43,
        "11542": 183,
        "11543": 25,
        "11544": 233,
        "11545": 229,
        "11546": 92,
        "11547": 38,
        "11548": 90,
        "11549": 242,
        "11550": 80,
        "11551": 171,
        "11552": 104,
        "11553": 208,
        "11554": 194,
        "11555": 133,
        "11556": 191,
        "11557": 87,
        "11558": 143,
        "11559": 159,
        "11560": 40,
        "11561": 13,
        "11562": 67,
        "11563": 192,
        "11564": 90,
        "11565": 177,
        "11566": 138,
        "11567": 94,
        "11568": 194,
        "11569": 235,
        "11570": 32,
        "11571": 170,
        "11572": 168,
        "11573": 124,
        "11574": 167,
        "11575": 214,
        "11576": 53,
        "11577": 139,
        "11578": 98,
        "11579": 145,
        "11580": 223,
        "11581": 177,
        "11582": 64,
        "11583": 226,
        "11584": 50,
        "11585": 37,
        "11586": 207,
        "11587": 19,
        "11588": 33,
        "11589": 221,
        "11590": 3,
        "11591": 16,
        "11592": 78,
        "11593": 121,
        "11594": 182,
        "11595": 174,
        "11596": 25,
        "11597": 101,
        "11598": 114,
        "11599": 99,
        "11600": 238,
        "11601": 146,
        "11602": 152,
        "11603": 36,
        "11604": 196,
        "11605": 120,
        "11606": 100,
        "11607": 19,
        "11608": 48,
        "11609": 173,
        "11610": 90,
        "11611": 5,
        "11612": 106,
        "11613": 233,
        "11614": 59,
        "11615": 24,
        "11616": 114,
        "11617": 8,
        "11618": 110,
        "11619": 123,
        "11620": 234,
        "11621": 29,
        "11622": 198,
        "11623": 16,
        "11624": 39,
        "11625": 151,
        "11626": 5,
        "11627": 122,
        "11628": 223,
        "11629": 242,
        "11630": 28,
        "11631": 114,
        "11632": 8,
        "11633": 21,
        "11634": 243,
        "11635": 191,
        "11636": 138,
        "11637": 117,
        "11638": 49,
        "11639": 90,
        "11640": 112,
        "11641": 99,
        "11642": 123,
        "11643": 53,
        "11644": 64,
        "11645": 199,
        "11646": 111,
        "11647": 25,
        "11648": 234,
        "11649": 113,
        "11650": 19,
        "11651": 154,
        "11652": 145,
        "11653": 215,
        "11654": 240,
        "11655": 150,
        "11656": 101,
        "11657": 69,
        "11658": 99,
        "11659": 155,
        "11660": 149,
        "11661": 6,
        "11662": 192,
        "11663": 250,
        "11664": 219,
        "11665": 234,
        "11666": 48,
        "11667": 54,
        "11668": 194,
        "11669": 134,
        "11670": 206,
        "11671": 199,
        "11672": 190,
        "11673": 212,
        "11674": 213,
        "11675": 145,
        "11676": 30,
        "11677": 173,
        "11678": 17,
        "11679": 130,
        "11680": 45,
        "11681": 68,
        "11682": 55,
        "11683": 159,
        "11684": 192,
        "11685": 23,
        "11686": 150,
        "11687": 65,
        "11688": 102,
        "11689": 174,
        "11690": 0,
        "11691": 109,
        "11692": 158,
        "11693": 159,
        "11694": 76,
        "11695": 160,
        "11696": 70,
        "11697": 199,
        "11698": 245,
        "11699": 201,
        "11700": 140,
        "11701": 120,
        "11702": 37,
        "11703": 35,
        "11704": 134,
        "11705": 101,
        "11706": 87,
        "11707": 225,
        "11708": 65,
        "11709": 40,
        "11710": 230,
        "11711": 135,
        "11712": 150,
        "11713": 130,
        "11714": 136,
        "11715": 58,
        "11716": 179,
        "11717": 165,
        "11718": 135,
        "11719": 128,
        "11720": 144,
        "11721": 227,
        "11722": 2,
        "11723": 179,
        "11724": 152,
        "11725": 33,
        "11726": 184,
        "11727": 176,
        "11728": 165,
        "11729": 233,
        "11730": 82,
        "11731": 123,
        "11732": 197,
        "11733": 218,
        "11734": 220,
        "11735": 116,
        "11736": 112,
        "11737": 195,
        "11738": 173,
        "11739": 86,
        "11740": 85,
        "11741": 210,
        "11742": 228,
        "11743": 109,
        "11744": 167,
        "11745": 69,
        "11746": 235,
        "11747": 179,
        "11748": 254,
        "11749": 126,
        "11750": 188,
        "11751": 212,
        "11752": 174,
        "11753": 124,
        "11754": 86,
        "11755": 95,
        "11756": 50,
        "11757": 84,
        "11758": 72,
        "11759": 206,
        "11760": 52,
        "11761": 39,
        "11762": 219,
        "11763": 113,
        "11764": 17,
        "11765": 90,
        "11766": 208,
        "11767": 239,
        "11768": 220,
        "11769": 119,
        "11770": 60,
        "11771": 189,
        "11772": 245,
        "11773": 127,
        "11774": 97,
        "11775": 134,
        "11776": 193,
        "11777": 144,
        "11778": 78,
        "11779": 169,
        "11780": 56,
        "11781": 131,
        "11782": 65,
        "11783": 39,
        "11784": 218,
        "11785": 233,
        "11786": 194,
        "11787": 174,
        "11788": 198,
        "11789": 135,
        "11790": 70,
        "11791": 98,
        "11792": 184,
        "11793": 237,
        "11794": 48,
        "11795": 166,
        "11796": 9,
        "11797": 218,
        "11798": 133,
        "11799": 52,
        "11800": 61,
        "11801": 69,
        "11802": 152,
        "11803": 219,
        "11804": 65,
        "11805": 168,
        "11806": 106,
        "11807": 246,
        "11808": 123,
        "11809": 250,
        "11810": 62,
        "11811": 242,
        "11812": 233,
        "11813": 123,
        "11814": 186,
        "11815": 53,
        "11816": 29,
        "11817": 170,
        "11818": 201,
        "11819": 29,
        "11820": 52,
        "11821": 206,
        "11822": 87,
        "11823": 144,
        "11824": 119,
        "11825": 176,
        "11826": 32,
        "11827": 181,
        "11828": 12,
        "11829": 203,
        "11830": 103,
        "11831": 154,
        "11832": 81,
        "11833": 152,
        "11834": 29,
        "11835": 173,
        "11836": 168,
        "11837": 225,
        "11838": 95,
        "11839": 156,
        "11840": 236,
        "11841": 87,
        "11842": 215,
        "11843": 215,
        "11844": 176,
        "11845": 151,
        "11846": 71,
        "11847": 15,
        "11848": 24,
        "11849": 193,
        "11850": 162,
        "11851": 148,
        "11852": 111,
        "11853": 75,
        "11854": 239,
        "11855": 62,
        "11856": 92,
        "11857": 226,
        "11858": 193,
        "11859": 138,
        "11860": 208,
        "11861": 80,
        "11862": 0,
        "11863": 102,
        "11864": 89,
        "11865": 43,
        "11866": 143,
        "11867": 221,
        "11868": 29,
        "11869": 68,
        "11870": 117,
        "11871": 37,
        "11872": 152,
        "11873": 232,
        "11874": 161,
        "11875": 86,
        "11876": 111,
        "11877": 43,
        "11878": 172,
        "11879": 75,
        "11880": 23,
        "11881": 126,
        "11882": 113,
        "11883": 191,
        "11884": 168,
        "11885": 231,
        "11886": 59,
        "11887": 102,
        "11888": 95,
        "11889": 85,
        "11890": 220,
        "11891": 193,
        "11892": 226,
        "11893": 152,
        "11894": 171,
        "11895": 193,
        "11896": 216,
        "11897": 43,
        "11898": 137,
        "11899": 75,
        "11900": 212,
        "11901": 255,
        "11902": 212,
        "11903": 79,
        "11904": 8,
        "11905": 165,
        "11906": 175,
        "11907": 209,
        "11908": 213,
        "11909": 82,
        "11910": 220,
        "11911": 194,
        "11912": 214,
        "11913": 37,
        "11914": 206,
        "11915": 16,
        "11916": 101,
        "11917": 52,
        "11918": 137,
        "11919": 160,
        "11920": 191,
        "11921": 71,
        "11922": 180,
        "11923": 147,
        "11924": 194,
        "11925": 25,
        "11926": 68,
        "11927": 50,
        "11928": 163,
        "11929": 0,
        "11930": 123,
        "11931": 145,
        "11932": 230,
        "11933": 88,
        "11934": 180,
        "11935": 64,
        "11936": 131,
        "11937": 167,
        "11938": 136,
        "11939": 126,
        "11940": 12,
        "11941": 178,
        "11942": 61,
        "11943": 146,
        "11944": 186,
        "11945": 230,
        "11946": 152,
        "11947": 239,
        "11948": 189,
        "11949": 165,
        "11950": 220,
        "11951": 236,
        "11952": 38,
        "11953": 179,
        "11954": 28,
        "11955": 10,
        "11956": 177,
        "11957": 130,
        "11958": 200,
        "11959": 52,
        "11960": 153,
        "11961": 51,
        "11962": 194,
        "11963": 201,
        "11964": 242,
        "11965": 101,
        "11966": 116,
        "11967": 165,
        "11968": 135,
        "11969": 114,
        "11970": 196,
        "11971": 206,
        "11972": 87,
        "11973": 209,
        "11974": 197,
        "11975": 89,
        "11976": 9,
        "11977": 151,
        "11978": 96,
        "11979": 83,
        "11980": 101,
        "11981": 90,
        "11982": 66,
        "11983": 118,
        "11984": 34,
        "11985": 11,
        "11986": 225,
        "11987": 251,
        "11988": 29,
        "11989": 96,
        "11990": 162,
        "11991": 162,
        "11992": 229,
        "11993": 199,
        "11994": 83,
        "11995": 4,
        "11996": 203,
        "11997": 0,
        "11998": 42,
        "11999": 134,
        "12000": 32,
        "12001": 8,
        "12002": 222,
        "12003": 199,
        "12004": 80,
        "12005": 167,
        "12006": 165,
        "12007": 248,
        "12008": 249,
        "12009": 229,
        "12010": 79,
        "12011": 232,
        "12012": 79,
        "12013": 131,
        "12014": 66,
        "12015": 39,
        "12016": 77,
        "12017": 49,
        "12018": 212,
        "12019": 202,
        "12020": 7,
        "12021": 147,
        "12022": 158,
        "12023": 208,
        "12024": 121,
        "12025": 195,
        "12026": 83,
        "12027": 116,
        "12028": 231,
        "12029": 102,
        "12030": 64,
        "12031": 238,
        "12032": 98,
        "12033": 165,
        "12034": 240,
        "12035": 176,
        "12036": 59,
        "12037": 3,
        "12038": 5,
        "12039": 123,
        "12040": 36,
        "12041": 73,
        "12042": 37,
        "12043": 179,
        "12044": 75,
        "12045": 62,
        "12046": 66,
        "12047": 130,
        "12048": 8,
        "12049": 133,
        "12050": 76,
        "12051": 10,
        "12052": 175,
        "12053": 98,
        "12054": 38,
        "12055": 217,
        "12056": 125,
        "12057": 93,
        "12058": 5,
        "12059": 150,
        "12060": 6,
        "12061": 10,
        "12062": 147,
        "12063": 37,
        "12064": 11,
        "12065": 15,
        "12066": 173,
        "12067": 189,
        "12068": 186,
        "12069": 22,
        "12070": 33,
        "12071": 81,
        "12072": 144,
        "12073": 60,
        "12074": 132,
        "12075": 30,
        "12076": 133,
        "12077": 187,
        "12078": 102,
        "12079": 236,
        "12080": 218,
        "12081": 145,
        "12082": 167,
        "12083": 30,
        "12084": 48,
        "12085": 171,
        "12086": 222,
        "12087": 115,
        "12088": 254,
        "12089": 5,
        "12090": 88,
        "12091": 154,
        "12092": 92,
        "12093": 135,
        "12094": 13,
        "12095": 49,
        "12096": 93,
        "12097": 223,
        "12098": 62,
        "12099": 117,
        "12100": 247,
        "12101": 226,
        "12102": 36,
        "12103": 81,
        "12104": 73,
        "12105": 233,
        "12106": 232,
        "12107": 211,
        "12108": 147,
        "12109": 134,
        "12110": 79,
        "12111": 55,
        "12112": 83,
        "12113": 223,
        "12114": 95,
        "12115": 214,
        "12116": 130,
        "12117": 244,
        "12118": 130,
        "12119": 44,
        "12120": 214,
        "12121": 18,
        "12122": 173,
        "12123": 13,
        "12124": 206,
        "12125": 120,
        "12126": 213,
        "12127": 133,
        "12128": 172,
        "12129": 34,
        "12130": 198,
        "12131": 71,
        "12132": 62,
        "12133": 53,
        "12134": 16,
        "12135": 144,
        "12136": 121,
        "12137": 165,
        "12138": 184,
        "12139": 54,
        "12140": 184,
        "12141": 135,
        "12142": 110,
        "12143": 101,
        "12144": 219,
        "12145": 182,
        "12146": 92,
        "12147": 216,
        "12148": 67,
        "12149": 94,
        "12150": 251,
        "12151": 163,
        "12152": 253,
        "12153": 183,
        "12154": 143,
        "12155": 135,
        "12156": 90,
        "12157": 229,
        "12158": 179,
        "12159": 130,
        "12160": 44,
        "12161": 13,
        "12162": 218,
        "12163": 203,
        "12164": 227,
        "12165": 135,
        "12166": 170,
        "12167": 80,
        "12168": 10,
        "12169": 150,
        "12170": 213,
        "12171": 186,
        "12172": 62,
        "12173": 4,
        "12174": 119,
        "12175": 217,
        "12176": 35,
        "12177": 244,
        "12178": 249,
        "12179": 14,
        "12180": 56,
        "12181": 141,
        "12182": 66,
        "12183": 178,
        "12184": 9,
        "12185": 229,
        "12186": 74,
        "12187": 174,
        "12188": 68,
        "12189": 221,
        "12190": 60,
        "12191": 57,
        "12192": 59,
        "12193": 237,
        "12194": 123,
        "12195": 147,
        "12196": 206,
        "12197": 200,
        "12198": 205,
        "12199": 221,
        "12200": 254,
        "12201": 123,
        "12202": 104,
        "12203": 48,
        "12204": 218,
        "12205": 41,
        "12206": 166,
        "12207": 120,
        "12208": 201,
        "12209": 18,
        "12210": 154,
        "12211": 2,
        "12212": 241,
        "12213": 126,
        "12214": 224,
        "12215": 91,
        "12216": 143,
        "12217": 143,
        "12218": 151,
        "12219": 85,
        "12220": 1,
        "12221": 76,
        "12222": 12,
        "12223": 122,
        "12224": 204,
        "12225": 119,
        "12226": 87,
        "12227": 205,
        "12228": 125,
        "12229": 122,
        "12230": 249,
        "12231": 49,
        "12232": 43,
        "12233": 102,
        "12234": 124,
        "12235": 182,
        "12236": 129,
        "12237": 190,
        "12238": 199,
        "12239": 199,
        "12240": 130,
        "12241": 12,
        "12242": 23,
        "12243": 201,
        "12244": 52,
        "12245": 168,
        "12246": 25,
        "12247": 37,
        "12248": 218,
        "12249": 107,
        "12250": 230,
        "12251": 148,
        "12252": 42,
        "12253": 234,
        "12254": 172,
        "12255": 113,
        "12256": 69,
        "12257": 57,
        "12258": 54,
        "12259": 56,
        "12260": 201,
        "12261": 225,
        "12262": 144,
        "12263": 78,
        "12264": 149,
        "12265": 117,
        "12266": 220,
        "12267": 112,
        "12268": 130,
        "12269": 188,
        "12270": 145,
        "12271": 81,
        "12272": 101,
        "12273": 81,
        "12274": 79,
        "12275": 148,
        "12276": 68,
        "12277": 52,
        "12278": 173,
        "12279": 199,
        "12280": 236,
        "12281": 21,
        "12282": 137,
        "12283": 107,
        "12284": 129,
        "12285": 211,
        "12286": 110,
        "12287": 164,
        "12288": 139,
        "12289": 104,
        "12290": 126,
        "12291": 220,
        "12292": 81,
        "12293": 208,
        "12294": 127,
        "12295": 87,
        "12296": 68,
        "12297": 212,
        "12298": 142,
        "12299": 115,
        "12300": 199,
        "12301": 93,
        "12302": 162,
        "12303": 75,
        "12304": 190,
        "12305": 198,
        "12306": 194,
        "12307": 189,
        "12308": 42,
        "12309": 94,
        "12310": 98,
        "12311": 50,
        "12312": 17,
        "12313": 189,
        "12314": 108,
        "12315": 65,
        "12316": 98,
        "12317": 35,
        "12318": 1,
        "12319": 130,
        "12320": 29,
        "12321": 186,
        "12322": 93,
        "12323": 70,
        "12324": 47,
        "12325": 213,
        "12326": 127,
        "12327": 208,
        "12328": 23,
        "12329": 2,
        "12330": 212,
        "12331": 128,
        "12332": 214,
        "12333": 27,
        "12334": 43,
        "12335": 54,
        "12336": 159,
        "12337": 46,
        "12338": 102,
        "12339": 31,
        "12340": 201,
        "12341": 232,
        "12342": 238,
        "12343": 152,
        "12344": 20,
        "12345": 175,
        "12346": 220,
        "12347": 169,
        "12348": 224,
        "12349": 243,
        "12350": 122,
        "12351": 5,
        "12352": 200,
        "12353": 99,
        "12354": 7,
        "12355": 76,
        "12356": 188,
        "12357": 94,
        "12358": 44,
        "12359": 41,
        "12360": 42,
        "12361": 61,
        "12362": 96,
        "12363": 158,
        "12364": 117,
        "12365": 125,
        "12366": 222,
        "12367": 134,
        "12368": 96,
        "12369": 3,
        "12370": 10,
        "12371": 21,
        "12372": 102,
        "12373": 224,
        "12374": 62,
        "12375": 135,
        "12376": 99,
        "12377": 113,
        "12378": 45,
        "12379": 95,
        "12380": 183,
        "12381": 176,
        "12382": 244,
        "12383": 230,
        "12384": 48,
        "12385": 28,
        "12386": 79,
        "12387": 232,
        "12388": 20,
        "12389": 134,
        "12390": 248,
        "12391": 122,
        "12392": 46,
        "12393": 144,
        "12394": 231,
        "12395": 98,
        "12396": 174,
        "12397": 166,
        "12398": 29,
        "12399": 126,
        "12400": 27,
        "12401": 248,
        "12402": 221,
        "12403": 157,
        "12404": 139,
        "12405": 80,
        "12406": 30,
        "12407": 93,
        "12408": 132,
        "12409": 181,
        "12410": 190,
        "12411": 118,
        "12412": 253,
        "12413": 10,
        "12414": 255,
        "12415": 162,
        "12416": 239,
        "12417": 111,
        "12418": 87,
        "12419": 85,
        "12420": 203,
        "12421": 92,
        "12422": 181,
        "12423": 38,
        "12424": 212,
        "12425": 181,
        "12426": 190,
        "12427": 7,
        "12428": 198,
        "12429": 71,
        "12430": 225,
        "12431": 87,
        "12432": 80,
        "12433": 208,
        "12434": 23,
        "12435": 74,
        "12436": 115,
        "12437": 111,
        "12438": 2,
        "12439": 216,
        "12440": 37,
        "12441": 159,
        "12442": 111,
        "12443": 232,
        "12444": 153,
        "12445": 138,
        "12446": 66,
        "12447": 73,
        "12448": 241,
        "12449": 136,
        "12450": 155,
        "12451": 5,
        "12452": 151,
        "12453": 63,
        "12454": 4,
        "12455": 199,
        "12456": 107,
        "12457": 66,
        "12458": 68,
        "12459": 116,
        "12460": 125,
        "12461": 240,
        "12462": 28,
        "12463": 56,
        "12464": 161,
        "12465": 252,
        "12466": 115,
        "12467": 57,
        "12468": 8,
        "12469": 242,
        "12470": 221,
        "12471": 226,
        "12472": 69,
        "12473": 213,
        "12474": 57,
        "12475": 236,
        "12476": 103,
        "12477": 39,
        "12478": 164,
        "12479": 177,
        "12480": 68,
        "12481": 46,
        "12482": 1,
        "12483": 181,
        "12484": 118,
        "12485": 172,
        "12486": 92,
        "12487": 36,
        "12488": 88,
        "12489": 226,
        "12490": 188,
        "12491": 171,
        "12492": 21,
        "12493": 33,
        "12494": 245,
        "12495": 74,
        "12496": 132,
        "12497": 7,
        "12498": 137,
        "12499": 182,
        "12500": 183,
        "12501": 190,
        "12502": 27,
        "12503": 142,
        "12504": 0,
        "12505": 233,
        "12506": 234,
        "12507": 234,
        "12508": 53,
        "12509": 108,
        "12510": 137,
        "12511": 87,
        "12512": 32,
        "12513": 171,
        "12514": 133,
        "12515": 12,
        "12516": 131,
        "12517": 253,
        "12518": 5,
        "12519": 118,
        "12520": 143,
        "12521": 66,
        "12522": 34,
        "12523": 97,
        "12524": 233,
        "12525": 165,
        "12526": 67,
        "12527": 247,
        "12528": 53,
        "12529": 192,
        "12530": 213,
        "12531": 71,
        "12532": 98,
        "12533": 191,
        "12534": 88,
        "12535": 255,
        "12536": 185,
        "12537": 240,
        "12538": 26,
        "12539": 3,
        "12540": 194,
        "12541": 195,
        "12542": 205,
        "12543": 168,
        "12544": 154,
        "12545": 233,
        "12546": 161,
        "12547": 18,
        "12548": 202,
        "12549": 160,
        "12550": 207,
        "12551": 16,
        "12552": 48,
        "12553": 62,
        "12554": 69,
        "12555": 91,
        "12556": 90,
        "12557": 3,
        "12558": 41,
        "12559": 7,
        "12560": 86,
        "12561": 148,
        "12562": 58,
        "12563": 176,
        "12564": 233,
        "12565": 64,
        "12566": 97,
        "12567": 51,
        "12568": 228,
        "12569": 160,
        "12570": 101,
        "12571": 132,
        "12572": 231,
        "12573": 184,
        "12574": 234,
        "12575": 93,
        "12576": 159,
        "12577": 18,
        "12578": 139,
        "12579": 240,
        "12580": 183,
        "12581": 120,
        "12582": 239,
        "12583": 73,
        "12584": 255,
        "12585": 226,
        "12586": 226,
        "12587": 74,
        "12588": 106,
        "12589": 248,
        "12590": 171,
        "12591": 167,
        "12592": 57,
        "12593": 214,
        "12594": 137,
        "12595": 231,
        "12596": 53,
        "12597": 21,
        "12598": 143,
        "12599": 41,
        "12600": 197,
        "12601": 224,
        "12602": 117,
        "12603": 180,
        "12604": 143,
        "12605": 191,
        "12606": 4,
        "12607": 183,
        "12608": 112,
        "12609": 20,
        "12610": 118,
        "12611": 9,
        "12612": 241,
        "12613": 203,
        "12614": 233,
        "12615": 71,
        "12616": 215,
        "12617": 42,
        "12618": 152,
        "12619": 168,
        "12620": 70,
        "12621": 61,
        "12622": 17,
        "12623": 207,
        "12624": 0,
        "12625": 111,
        "12626": 131,
        "12627": 205,
        "12628": 209,
        "12629": 247,
        "12630": 120,
        "12631": 246,
        "12632": 0,
        "12633": 98,
        "12634": 37,
        "12635": 5,
        "12636": 192,
        "12637": 84,
        "12638": 239,
        "12639": 182,
        "12640": 102,
        "12641": 162,
        "12642": 119,
        "12643": 34,
        "12644": 106,
        "12645": 72,
        "12646": 152,
        "12647": 152,
        "12648": 242,
        "12649": 128,
        "12650": 161,
        "12651": 215,
        "12652": 44,
        "12653": 1,
        "12654": 17,
        "12655": 126,
        "12656": 17,
        "12657": 9,
        "12658": 224,
        "12659": 244,
        "12660": 250,
        "12661": 49,
        "12662": 116,
        "12663": 151,
        "12664": 1,
        "12665": 94,
        "12666": 99,
        "12667": 172,
        "12668": 127,
        "12669": 91,
        "12670": 164,
        "12671": 234,
        "12672": 69,
        "12673": 226,
        "12674": 230,
        "12675": 207,
        "12676": 180,
        "12677": 108,
        "12678": 219,
        "12679": 138,
        "12680": 34,
        "12681": 91,
        "12682": 123,
        "12683": 247,
        "12684": 11,
        "12685": 201,
        "12686": 48,
        "12687": 111,
        "12688": 10,
        "12689": 70,
        "12690": 195,
        "12691": 3,
        "12692": 238,
        "12693": 195,
        "12694": 66,
        "12695": 111,
        "12696": 111,
        "12697": 141,
        "12698": 138,
        "12699": 50,
        "12700": 13,
        "12701": 147,
        "12702": 112,
        "12703": 157,
        "12704": 89,
        "12705": 36,
        "12706": 212,
        "12707": 29,
        "12708": 128,
        "12709": 1,
        "12710": 129,
        "12711": 167,
        "12712": 48,
        "12713": 184,
        "12714": 1,
        "12715": 62,
        "12716": 254,
        "12717": 174,
        "12718": 9,
        "12719": 78,
        "12720": 146,
        "12721": 250,
        "12722": 43,
        "12723": 233,
        "12724": 229,
        "12725": 111,
        "12726": 182,
        "12727": 201,
        "12728": 39,
        "12729": 71,
        "12730": 72,
        "12731": 3,
        "12732": 16,
        "12733": 226,
        "12734": 176,
        "12735": 247,
        "12736": 23,
        "12737": 171,
        "12738": 42,
        "12739": 210,
        "12740": 204,
        "12741": 229,
        "12742": 253,
        "12743": 159,
        "12744": 214,
        "12745": 136,
        "12746": 12,
        "12747": 229,
        "12748": 5,
        "12749": 212,
        "12750": 64,
        "12751": 125,
        "12752": 22,
        "12753": 2,
        "12754": 227,
        "12755": 169,
        "12756": 219,
        "12757": 84,
        "12758": 224,
        "12759": 208,
        "12760": 234,
        "12761": 163,
        "12762": 94,
        "12763": 32,
        "12764": 208,
        "12765": 137,
        "12766": 58,
        "12767": 149,
        "12768": 46,
        "12769": 64,
        "12770": 66,
        "12771": 29,
        "12772": 252,
        "12773": 211,
        "12774": 63,
        "12775": 111,
        "12776": 176,
        "12777": 134,
        "12778": 135,
        "12779": 20,
        "12780": 93,
        "12781": 37,
        "12782": 92,
        "12783": 160,
        "12784": 118,
        "12785": 13,
        "12786": 77,
        "12787": 244,
        "12788": 47,
        "12789": 137,
        "12790": 85,
        "12791": 216,
        "12792": 237,
        "12793": 78,
        "12794": 30,
        "12795": 28,
        "12796": 214,
        "12797": 77,
        "12798": 236,
        "12799": 93,
        "12800": 26,
        "12801": 151,
        "12802": 197,
        "12803": 14,
        "12804": 91,
        "12805": 146,
        "12806": 71,
        "12807": 46,
        "12808": 202,
        "12809": 22,
        "12810": 20,
        "12811": 217,
        "12812": 233,
        "12813": 103,
        "12814": 217,
        "12815": 22,
        "12816": 199,
        "12817": 25,
        "12818": 88,
        "12819": 235,
        "12820": 163,
        "12821": 84,
        "12822": 107,
        "12823": 69,
        "12824": 208,
        "12825": 120,
        "12826": 158,
        "12827": 87,
        "12828": 230,
        "12829": 178,
        "12830": 44,
        "12831": 191,
        "12832": 255,
        "12833": 252,
        "12834": 190,
        "12835": 74,
        "12836": 64,
        "12837": 116,
        "12838": 140,
        "12839": 42,
        "12840": 242,
        "12841": 30,
        "12842": 242,
        "12843": 44,
        "12844": 225,
        "12845": 173,
        "12846": 204,
        "12847": 243,
        "12848": 4,
        "12849": 74,
        "12850": 227,
        "12851": 92,
        "12852": 106,
        "12853": 188,
        "12854": 65,
        "12855": 113,
        "12856": 182,
        "12857": 204,
        "12858": 196,
        "12859": 218,
        "12860": 200,
        "12861": 64,
        "12862": 237,
        "12863": 88,
        "12864": 82,
        "12865": 216,
        "12866": 43,
        "12867": 126,
        "12868": 5,
        "12869": 183,
        "12870": 129,
        "12871": 122,
        "12872": 21,
        "12873": 66,
        "12874": 87,
        "12875": 147,
        "12876": 167,
        "12877": 81,
        "12878": 77,
        "12879": 208,
        "12880": 209,
        "12881": 78,
        "12882": 181,
        "12883": 178,
        "12884": 15,
        "12885": 179,
        "12886": 61,
        "12887": 84,
        "12888": 251,
        "12889": 229,
        "12890": 65,
        "12891": 58,
        "12892": 128,
        "12893": 20,
        "12894": 195,
        "12895": 162,
        "12896": 208,
        "12897": 26,
        "12898": 27,
        "12899": 16,
        "12900": 142,
        "12901": 164,
        "12902": 231,
        "12903": 53,
        "12904": 17,
        "12905": 201,
        "12906": 184,
        "12907": 110,
        "12908": 69,
        "12909": 156,
        "12910": 211,
        "12911": 232,
        "12912": 16,
        "12913": 111,
        "12914": 96,
        "12915": 255,
        "12916": 71,
        "12917": 251,
        "12918": 66,
        "12919": 215,
        "12920": 245,
        "12921": 216,
        "12922": 176,
        "12923": 217,
        "12924": 222,
        "12925": 29,
        "12926": 42,
        "12927": 62,
        "12928": 37,
        "12929": 20,
        "12930": 71,
        "12931": 77,
        "12932": 224,
        "12933": 31,
        "12934": 194,
        "12935": 181,
        "12936": 224,
        "12937": 182,
        "12938": 55,
        "12939": 68,
        "12940": 62,
        "12941": 17,
        "12942": 45,
        "12943": 171,
        "12944": 28,
        "12945": 247,
        "12946": 135,
        "12947": 212,
        "12948": 211,
        "12949": 33,
        "12950": 101,
        "12951": 27,
        "12952": 164,
        "12953": 122,
        "12954": 147,
        "12955": 149,
        "12956": 80,
        "12957": 182,
        "12958": 141,
        "12959": 140,
        "12960": 128,
        "12961": 98,
        "12962": 105,
        "12963": 255,
        "12964": 175,
        "12965": 58,
        "12966": 97,
        "12967": 135,
        "12968": 80,
        "12969": 127,
        "12970": 232,
        "12971": 31,
        "12972": 68,
        "12973": 126,
        "12974": 86,
        "12975": 34,
        "12976": 226,
        "12977": 98,
        "12978": 10,
        "12979": 196,
        "12980": 221,
        "12981": 225,
        "12982": 131,
        "12983": 136,
        "12984": 158,
        "12985": 124,
        "12986": 109,
        "12987": 136,
        "12988": 158,
        "12989": 67,
        "12990": 25,
        "12991": 35,
        "12992": 26,
        "12993": 101,
        "12994": 254,
        "12995": 143,
        "12996": 49,
        "12997": 185,
        "12998": 9,
        "12999": 49,
        "13000": 161,
        "13001": 42,
        "13002": 203,
        "13003": 74,
        "13004": 2,
        "13005": 93,
        "13006": 88,
        "13007": 106,
        "13008": 101,
        "13009": 75,
        "13010": 29,
        "13011": 14,
        "13012": 77,
        "13013": 44,
        "13014": 73,
        "13015": 215,
        "13016": 232,
        "13017": 170,
        "13018": 255,
        "13019": 49,
        "13020": 7,
        "13021": 105,
        "13022": 25,
        "13023": 211,
        "13024": 147,
        "13025": 1,
        "13026": 107,
        "13027": 48,
        "13028": 16,
        "13029": 252,
        "13030": 238,
        "13031": 206,
        "13032": 200,
        "13033": 92,
        "13034": 112,
        "13035": 41,
        "13036": 130,
        "13037": 175,
        "13038": 189,
        "13039": 73,
        "13040": 11,
        "13041": 175,
        "13042": 242,
        "13043": 207,
        "13044": 105,
        "13045": 3,
        "13046": 84,
        "13047": 152,
        "13048": 17,
        "13049": 175,
        "13050": 217,
        "13051": 151,
        "13052": 20,
        "13053": 104,
        "13054": 35,
        "13055": 253,
        "13056": 185,
        "13057": 161,
        "13058": 152,
        "13059": 95,
        "13060": 236,
        "13061": 140,
        "13062": 97,
        "13063": 70,
        "13064": 23,
        "13065": 229,
        "13066": 216,
        "13067": 115,
        "13068": 88,
        "13069": 132,
        "13070": 126,
        "13071": 140,
        "13072": 224,
        "13073": 226,
        "13074": 228,
        "13075": 200,
        "13076": 202,
        "13077": 237,
        "13078": 55,
        "13079": 40,
        "13080": 159,
        "13081": 74,
        "13082": 16,
        "13083": 10,
        "13084": 249,
        "13085": 44,
        "13086": 211,
        "13087": 47,
        "13088": 110,
        "13089": 252,
        "13090": 16,
        "13091": 212,
        "13092": 111,
        "13093": 253,
        "13094": 11,
        "13095": 16,
        "13096": 236,
        "13097": 163,
        "13098": 139,
        "13099": 73,
        "13100": 181,
        "13101": 0,
        "13102": 127,
        "13103": 106,
        "13104": 148,
        "13105": 211,
        "13106": 22,
        "13107": 209,
        "13108": 20,
        "13109": 23,
        "13110": 228,
        "13111": 103,
        "13112": 153,
        "13113": 152,
        "13114": 75,
        "13115": 183,
        "13116": 190,
        "13117": 126,
        "13118": 85,
        "13119": 233,
        "13120": 38,
        "13121": 122,
        "13122": 198,
        "13123": 146,
        "13124": 235,
        "13125": 91,
        "13126": 44,
        "13127": 216,
        "13128": 204,
        "13129": 148,
        "13130": 246,
        "13131": 249,
        "13132": 225,
        "13133": 182,
        "13134": 100,
        "13135": 222,
        "13136": 56,
        "13137": 239,
        "13138": 178,
        "13139": 64,
        "13140": 122,
        "13141": 105,
        "13142": 123,
        "13143": 24,
        "13144": 175,
        "13145": 18,
        "13146": 205,
        "13147": 62,
        "13148": 13,
        "13149": 80,
        "13150": 182,
        "13151": 125,
        "13152": 94,
        "13153": 123,
        "13154": 112,
        "13155": 14,
        "13156": 221,
        "13157": 44,
        "13158": 216,
        "13159": 169,
        "13160": 26,
        "13161": 3,
        "13162": 20,
        "13163": 79,
        "13164": 189,
        "13165": 30,
        "13166": 196,
        "13167": 142,
        "13168": 187,
        "13169": 213,
        "13170": 252,
        "13171": 223,
        "13172": 211,
        "13173": 5,
        "13174": 77,
        "13175": 184,
        "13176": 72,
        "13177": 209,
        "13178": 168,
        "13179": 143,
        "13180": 52,
        "13181": 200,
        "13182": 52,
        "13183": 45,
        "13184": 61,
        "13185": 162,
        "13186": 58,
        "13187": 197,
        "13188": 4,
        "13189": 7,
        "13190": 215,
        "13191": 1,
        "13192": 226,
        "13193": 212,
        "13194": 234,
        "13195": 156,
        "13196": 173,
        "13197": 185,
        "13198": 7,
        "13199": 82,
        "13200": 171,
        "13201": 151,
        "13202": 126,
        "13203": 24,
        "13204": 221,
        "13205": 12,
        "13206": 96,
        "13207": 103,
        "13208": 158,
        "13209": 1,
        "13210": 70,
        "13211": 155,
        "13212": 218,
        "13213": 127,
        "13214": 31,
        "13215": 80,
        "13216": 41,
        "13217": 167,
        "13218": 57,
        "13219": 224,
        "13220": 137,
        "13221": 12,
        "13222": 95,
        "13223": 46,
        "13224": 50,
        "13225": 144,
        "13226": 73,
        "13227": 0,
        "13228": 151,
        "13229": 152,
        "13230": 169,
        "13231": 128,
        "13232": 65,
        "13233": 163,
        "13234": 191,
        "13235": 194,
        "13236": 143,
        "13237": 112,
        "13238": 146,
        "13239": 78,
        "13240": 188,
        "13241": 170,
        "13242": 254,
        "13243": 176,
        "13244": 189,
        "13245": 141,
        "13246": 82,
        "13247": 174,
        "13248": 131,
        "13249": 73,
        "13250": 239,
        "13251": 213,
        "13252": 185,
        "13253": 29,
        "13254": 243,
        "13255": 91,
        "13256": 249,
        "13257": 215,
        "13258": 90,
        "13259": 3,
        "13260": 233,
        "13261": 62,
        "13262": 13,
        "13263": 30,
        "13264": 32,
        "13265": 209,
        "13266": 179,
        "13267": 230,
        "13268": 239,
        "13269": 79,
        "13270": 60,
        "13271": 135,
        "13272": 13,
        "13273": 156,
        "13274": 5,
        "13275": 73,
        "13276": 83,
        "13277": 99,
        "13278": 134,
        "13279": 125,
        "13280": 59,
        "13281": 87,
        "13282": 227,
        "13283": 16,
        "13284": 236,
        "13285": 70,
        "13286": 153,
        "13287": 0,
        "13288": 96,
        "13289": 249,
        "13290": 75,
        "13291": 33,
        "13292": 147,
        "13293": 69,
        "13294": 33,
        "13295": 116,
        "13296": 81,
        "13297": 204,
        "13298": 70,
        "13299": 212,
        "13300": 65,
        "13301": 247,
        "13302": 97,
        "13303": 254,
        "13304": 211,
        "13305": 65,
        "13306": 209,
        "13307": 245,
        "13308": 18,
        "13309": 155,
        "13310": 195,
        "13311": 138,
        "13312": 112,
        "13313": 40,
        "13314": 187,
        "13315": 247,
        "13316": 92,
        "13317": 140,
        "13318": 181,
        "13319": 189,
        "13320": 105,
        "13321": 5,
        "13322": 109,
        "13323": 13,
        "13324": 111,
        "13325": 91,
        "13326": 168,
        "13327": 226,
        "13328": 33,
        "13329": 141,
        "13330": 66,
        "13331": 137,
        "13332": 205,
        "13333": 43,
        "13334": 58,
        "13335": 116,
        "13336": 170,
        "13337": 187,
        "13338": 51,
        "13339": 88,
        "13340": 45,
        "13341": 8,
        "13342": 40,
        "13343": 160,
        "13344": 158,
        "13345": 11,
        "13346": 217,
        "13347": 33,
        "13348": 117,
        "13349": 33,
        "13350": 168,
        "13351": 124,
        "13352": 42,
        "13353": 115,
        "13354": 245,
        "13355": 115,
        "13356": 195,
        "13357": 107,
        "13358": 13,
        "13359": 69,
        "13360": 31,
        "13361": 68,
        "13362": 17,
        "13363": 58,
        "13364": 28,
        "13365": 131,
        "13366": 29,
        "13367": 101,
        "13368": 220,
        "13369": 244,
        "13370": 87,
        "13371": 66,
        "13372": 112,
        "13373": 58,
        "13374": 52,
        "13375": 138,
        "13376": 13,
        "13377": 22,
        "13378": 20,
        "13379": 89,
        "13380": 58,
        "13381": 78,
        "13382": 184,
        "13383": 248,
        "13384": 172,
        "13385": 13,
        "13386": 179,
        "13387": 74,
        "13388": 121,
        "13389": 228,
        "13390": 105,
        "13391": 179,
        "13392": 165,
        "13393": 27,
        "13394": 174,
        "13395": 202,
        "13396": 228,
        "13397": 109,
        "13398": 187,
        "13399": 3,
        "13400": 134,
        "13401": 217,
        "13402": 158,
        "13403": 10,
        "13404": 62,
        "13405": 181,
        "13406": 69,
        "13407": 15,
        "13408": 195,
        "13409": 144,
        "13410": 182,
        "13411": 188,
        "13412": 245,
        "13413": 136,
        "13414": 230,
        "13415": 160,
        "13416": 80,
        "13417": 150,
        "13418": 46,
        "13419": 116,
        "13420": 124,
        "13421": 171,
        "13422": 190,
        "13423": 220,
        "13424": 56,
        "13425": 193,
        "13426": 8,
        "13427": 210,
        "13428": 224,
        "13429": 52,
        "13430": 100,
        "13431": 115,
        "13432": 252,
        "13433": 106,
        "13434": 68,
        "13435": 9,
        "13436": 181,
        "13437": 90,
        "13438": 90,
        "13439": 188,
        "13440": 18,
        "13441": 96,
        "13442": 154,
        "13443": 119,
        "13444": 11,
        "13445": 6,
        "13446": 90,
        "13447": 81,
        "13448": 152,
        "13449": 70,
        "13450": 67,
        "13451": 73,
        "13452": 168,
        "13453": 74,
        "13454": 197,
        "13455": 183,
        "13456": 208,
        "13457": 120,
        "13458": 133,
        "13459": 132,
        "13460": 210,
        "13461": 2,
        "13462": 192,
        "13463": 114,
        "13464": 246,
        "13465": 170,
        "13466": 215,
        "13467": 62,
        "13468": 144,
        "13469": 63,
        "13470": 48,
        "13471": 214,
        "13472": 139,
        "13473": 223,
        "13474": 225,
        "13475": 106,
        "13476": 86,
        "13477": 114,
        "13478": 36,
        "13479": 51,
        "13480": 78,
        "13481": 57,
        "13482": 44,
        "13483": 232,
        "13484": 103,
        "13485": 218,
        "13486": 170,
        "13487": 201,
        "13488": 61,
        "13489": 98,
        "13490": 163,
        "13491": 222,
        "13492": 211,
        "13493": 237,
        "13494": 214,
        "13495": 203,
        "13496": 75,
        "13497": 254,
        "13498": 173,
        "13499": 46,
        "13500": 111,
        "13501": 182,
        "13502": 109,
        "13503": 153,
        "13504": 108,
        "13505": 79,
        "13506": 27,
        "13507": 186,
        "13508": 103,
        "13509": 90,
        "13510": 70,
        "13511": 168,
        "13512": 230,
        "13513": 74,
        "13514": 169,
        "13515": 215,
        "13516": 29,
        "13517": 111,
        "13518": 109,
        "13519": 209,
        "13520": 191,
        "13521": 105,
        "13522": 122,
        "13523": 235,
        "13524": 82,
        "13525": 249,
        "13526": 193,
        "13527": 153,
        "13528": 203,
        "13529": 220,
        "13530": 248,
        "13531": 246,
        "13532": 176,
        "13533": 83,
        "13534": 86,
        "13535": 240,
        "13536": 99,
        "13537": 200,
        "13538": 152,
        "13539": 239,
        "13540": 184,
        "13541": 6,
        "13542": 76,
        "13543": 126,
        "13544": 9,
        "13545": 113,
        "13546": 133,
        "13547": 137,
        "13548": 238,
        "13549": 131,
        "13550": 99,
        "13551": 57,
        "13552": 147,
        "13553": 13,
        "13554": 150,
        "13555": 193,
        "13556": 194,
        "13557": 74,
        "13558": 222,
        "13559": 241,
        "13560": 236,
        "13561": 137,
        "13562": 101,
        "13563": 245,
        "13564": 41,
        "13565": 240,
        "13566": 156,
        "13567": 63,
        "13568": 54,
        "13569": 12,
        "13570": 246,
        "13571": 139,
        "13572": 65,
        "13573": 138,
        "13574": 21,
        "13575": 197,
        "13576": 135,
        "13577": 146,
        "13578": 33,
        "13579": 170,
        "13580": 56,
        "13581": 192,
        "13582": 16,
        "13583": 41,
        "13584": 14,
        "13585": 247,
        "13586": 130,
        "13587": 246,
        "13588": 122,
        "13589": 17,
        "13590": 216,
        "13591": 83,
        "13592": 203,
        "13593": 161,
        "13594": 208,
        "13595": 68,
        "13596": 1,
        "13597": 240,
        "13598": 131,
        "13599": 215,
        "13600": 119,
        "13601": 246,
        "13602": 213,
        "13603": 2,
        "13604": 159,
        "13605": 173,
        "13606": 201,
        "13607": 64,
        "13608": 95,
        "13609": 86,
        "13610": 177,
        "13611": 220,
        "13612": 229,
        "13613": 195,
        "13614": 254,
        "13615": 225,
        "13616": 236,
        "13617": 7,
        "13618": 86,
        "13619": 8,
        "13620": 26,
        "13621": 119,
        "13622": 231,
        "13623": 19,
        "13624": 29,
        "13625": 77,
        "13626": 51,
        "13627": 73,
        "13628": 198,
        "13629": 54,
        "13630": 149,
        "13631": 18,
        "13632": 196,
        "13633": 206,
        "13634": 243,
        "13635": 31,
        "13636": 220,
        "13637": 25,
        "13638": 180,
        "13639": 244,
        "13640": 46,
        "13641": 201,
        "13642": 94,
        "13643": 41,
        "13644": 72,
        "13645": 62,
        "13646": 177,
        "13647": 253,
        "13648": 241,
        "13649": 207,
        "13650": 150,
        "13651": 75,
        "13652": 79,
        "13653": 144,
        "13654": 52,
        "13655": 238,
        "13656": 77,
        "13657": 79,
        "13658": 248,
        "13659": 244,
        "13660": 173,
        "13661": 182,
        "13662": 27,
        "13663": 46,
        "13664": 77,
        "13665": 95,
        "13666": 240,
        "13667": 93,
        "13668": 111,
        "13669": 128,
        "13670": 62,
        "13671": 102,
        "13672": 114,
        "13673": 119,
        "13674": 74,
        "13675": 110,
        "13676": 10,
        "13677": 35,
        "13678": 118,
        "13679": 231,
        "13680": 142,
        "13681": 78,
        "13682": 135,
        "13683": 150,
        "13684": 166,
        "13685": 216,
        "13686": 162,
        "13687": 131,
        "13688": 8,
        "13689": 226,
        "13690": 223,
        "13691": 13,
        "13692": 72,
        "13693": 67,
        "13694": 46,
        "13695": 59,
        "13696": 132,
        "13697": 219,
        "13698": 253,
        "13699": 5,
        "13700": 15,
        "13701": 202,
        "13702": 149,
        "13703": 185,
        "13704": 185,
        "13705": 11,
        "13706": 214,
        "13707": 236,
        "13708": 12,
        "13709": 26,
        "13710": 171,
        "13711": 117,
        "13712": 0,
        "13713": 130,
        "13714": 55,
        "13715": 255,
        "13716": 166,
        "13717": 243,
        "13718": 111,
        "13719": 38,
        "13720": 60,
        "13721": 107,
        "13722": 178,
        "13723": 20,
        "13724": 183,
        "13725": 34,
        "13726": 42,
        "13727": 56,
        "13728": 221,
        "13729": 164,
        "13730": 155,
        "13731": 113,
        "13732": 223,
        "13733": 51,
        "13734": 34,
        "13735": 41,
        "13736": 102,
        "13737": 217,
        "13738": 187,
        "13739": 186,
        "13740": 212,
        "13741": 75,
        "13742": 237,
        "13743": 2,
        "13744": 228,
        "13745": 172,
        "13746": 73,
        "13747": 11,
        "13748": 182,
        "13749": 31,
        "13750": 181,
        "13751": 137,
        "13752": 78,
        "13753": 215,
        "13754": 105,
        "13755": 241,
        "13756": 193,
        "13757": 245,
        "13758": 124,
        "13759": 99,
        "13760": 94,
        "13761": 212,
        "13762": 65,
        "13763": 124,
        "13764": 135,
        "13765": 27,
        "13766": 251,
        "13767": 242,
        "13768": 153,
        "13769": 48,
        "13770": 138,
        "13771": 62,
        "13772": 239,
        "13773": 62,
        "13774": 25,
        "13775": 155,
        "13776": 196,
        "13777": 14,
        "13778": 96,
        "13779": 33,
        "13780": 73,
        "13781": 115,
        "13782": 141,
        "13783": 180,
        "13784": 248,
        "13785": 22,
        "13786": 251,
        "13787": 17,
        "13788": 216,
        "13789": 28,
        "13790": 72,
        "13791": 43,
        "13792": 2,
        "13793": 79,
        "13794": 201,
        "13795": 13,
        "13796": 73,
        "13797": 216,
        "13798": 115,
        "13799": 252,
        "13800": 66,
        "13801": 208,
        "13802": 16,
        "13803": 210,
        "13804": 27,
        "13805": 67,
        "13806": 201,
        "13807": 88,
        "13808": 199,
        "13809": 68,
        "13810": 149,
        "13811": 140,
        "13812": 227,
        "13813": 31,
        "13814": 173,
        "13815": 252,
        "13816": 235,
        "13817": 20,
        "13818": 189,
        "13819": 166,
        "13820": 48,
        "13821": 194,
        "13822": 201,
        "13823": 38,
        "13824": 168,
        "13825": 5,
        "13826": 38,
        "13827": 83,
        "13828": 233,
        "13829": 0,
        "13830": 211,
        "13831": 112,
        "13832": 206,
        "13833": 105,
        "13834": 85,
        "13835": 1,
        "13836": 2,
        "13837": 185,
        "13838": 145,
        "13839": 104,
        "13840": 134,
        "13841": 190,
        "13842": 50,
        "13843": 64,
        "13844": 112,
        "13845": 91,
        "13846": 5,
        "13847": 146,
        "13848": 211,
        "13849": 7,
        "13850": 35,
        "13851": 186,
        "13852": 14,
        "13853": 127,
        "13854": 110,
        "13855": 170,
        "13856": 145,
        "13857": 212,
        "13858": 23,
        "13859": 15,
        "13860": 115,
        "13861": 247,
        "13862": 33,
        "13863": 113,
        "13864": 217,
        "13865": 245,
        "13866": 106,
        "13867": 109,
        "13868": 137,
        "13869": 128,
        "13870": 82,
        "13871": 174,
        "13872": 71,
        "13873": 209,
        "13874": 222,
        "13875": 112,
        "13876": 117,
        "13877": 249,
        "13878": 153,
        "13879": 186,
        "13880": 145,
        "13881": 116,
        "13882": 228,
        "13883": 208,
        "13884": 252,
        "13885": 14,
        "13886": 204,
        "13887": 240,
        "13888": 8,
        "13889": 50,
        "13890": 219,
        "13891": 218,
        "13892": 125,
        "13893": 123,
        "13894": 171,
        "13895": 36,
        "13896": 82,
        "13897": 234,
        "13898": 70,
        "13899": 53,
        "13900": 166,
        "13901": 241,
        "13902": 91,
        "13903": 220,
        "13904": 80,
        "13905": 146,
        "13906": 138,
        "13907": 41,
        "13908": 17,
        "13909": 100,
        "13910": 249,
        "13911": 119,
        "13912": 98,
        "13913": 69,
        "13914": 192,
        "13915": 131,
        "13916": 44,
        "13917": 223,
        "13918": 180,
        "13919": 167,
        "13920": 14,
        "13921": 192,
        "13922": 30,
        "13923": 65,
        "13924": 109,
        "13925": 226,
        "13926": 251,
        "13927": 55,
        "13928": 110,
        "13929": 204,
        "13930": 10,
        "13931": 77,
        "13932": 20,
        "13933": 154,
        "13934": 224,
        "13935": 203,
        "13936": 132,
        "13937": 94,
        "13938": 180,
        "13939": 90,
        "13940": 172,
        "13941": 117,
        "13942": 47,
        "13943": 255,
        "13944": 145,
        "13945": 170,
        "13946": 15,
        "13947": 210,
        "13948": 234,
        "13949": 59,
        "13950": 58,
        "13951": 52,
        "13952": 89,
        "13953": 214,
        "13954": 244,
        "13955": 145,
        "13956": 100,
        "13957": 142,
        "13958": 246,
        "13959": 7,
        "13960": 142,
        "13961": 39,
        "13962": 167,
        "13963": 182,
        "13964": 241,
        "13965": 139,
        "13966": 201,
        "13967": 236,
        "13968": 42,
        "13969": 69,
        "13970": 18,
        "13971": 226,
        "13972": 179,
        "13973": 113,
        "13974": 120,
        "13975": 162,
        "13976": 99,
        "13977": 110,
        "13978": 47,
        "13979": 121,
        "13980": 79,
        "13981": 234,
        "13982": 85,
        "13983": 130,
        "13984": 71,
        "13985": 59,
        "13986": 88,
        "13987": 173,
        "13988": 162,
        "13989": 130,
        "13990": 244,
        "13991": 110,
        "13992": 2,
        "13993": 13,
        "13994": 199,
        "13995": 168,
        "13996": 182,
        "13997": 215,
        "13998": 224,
        "13999": 106,
        "14000": 235,
        "14001": 19,
        "14002": 37,
        "14003": 235,
        "14004": 77,
        "14005": 14,
        "14006": 24,
        "14007": 73,
        "14008": 186,
        "14009": 28,
        "14010": 254,
        "14011": 215,
        "14012": 124,
        "14013": 3,
        "14014": 100,
        "14015": 11,
        "14016": 18,
        "14017": 74,
        "14018": 162,
        "14019": 128,
        "14020": 151,
        "14021": 115,
        "14022": 15,
        "14023": 16,
        "14024": 157,
        "14025": 62,
        "14026": 23,
        "14027": 172,
        "14028": 243,
        "14029": 235,
        "14030": 52,
        "14031": 73,
        "14032": 42,
        "14033": 178,
        "14034": 201,
        "14035": 222,
        "14036": 68,
        "14037": 152,
        "14038": 249,
        "14039": 244,
        "14040": 20,
        "14041": 117,
        "14042": 160,
        "14043": 14,
        "14044": 131,
        "14045": 1,
        "14046": 166,
        "14047": 72,
        "14048": 232,
        "14049": 247,
        "14050": 156,
        "14051": 168,
        "14052": 157,
        "14053": 174,
        "14054": 154,
        "14055": 239,
        "14056": 102,
        "14057": 138,
        "14058": 221,
        "14059": 72,
        "14060": 45,
        "14061": 246,
        "14062": 48,
        "14063": 2,
        "14064": 211,
        "14065": 190,
        "14066": 143,
        "14067": 26,
        "14068": 25,
        "14069": 254,
        "14070": 1,
        "14071": 129,
        "14072": 36,
        "14073": 89,
        "14074": 253,
        "14075": 48,
        "14076": 193,
        "14077": 221,
        "14078": 136,
        "14079": 149,
        "14080": 235,
        "14081": 107,
        "14082": 87,
        "14083": 226,
        "14084": 21,
        "14085": 24,
        "14086": 138,
        "14087": 219,
        "14088": 246,
        "14089": 190,
        "14090": 144,
        "14091": 229,
        "14092": 203,
        "14093": 205,
        "14094": 123,
        "14095": 94,
        "14096": 138,
        "14097": 233,
        "14098": 148,
        "14099": 113,
        "14100": 211,
        "14101": 37,
        "14102": 16,
        "14103": 49,
        "14104": 173,
        "14105": 119,
        "14106": 51,
        "14107": 211,
        "14108": 218,
        "14109": 146,
        "14110": 102,
        "14111": 69,
        "14112": 170,
        "14113": 118,
        "14114": 78,
        "14115": 77,
        "14116": 226,
        "14117": 238,
        "14118": 12,
        "14119": 177,
        "14120": 145,
        "14121": 179,
        "14122": 227,
        "14123": 187,
        "14124": 32,
        "14125": 240,
        "14126": 123,
        "14127": 92,
        "14128": 153,
        "14129": 199,
        "14130": 33,
        "14131": 165,
        "14132": 72,
        "14133": 255,
        "14134": 206,
        "14135": 102,
        "14136": 90,
        "14137": 35,
        "14138": 86,
        "14139": 193,
        "14140": 119,
        "14141": 111,
        "14142": 181,
        "14143": 16,
        "14144": 197,
        "14145": 236,
        "14146": 67,
        "14147": 12,
        "14148": 105,
        "14149": 14,
        "14150": 161,
        "14151": 204,
        "14152": 220,
        "14153": 218,
        "14154": 105,
        "14155": 48,
        "14156": 185,
        "14157": 153,
        "14158": 6,
        "14159": 146,
        "14160": 175,
        "14161": 27,
        "14162": 222,
        "14163": 65,
        "14164": 106,
        "14165": 129,
        "14166": 156,
        "14167": 36,
        "14168": 30,
        "14169": 39,
        "14170": 203,
        "14171": 110,
        "14172": 108,
        "14173": 181,
        "14174": 48,
        "14175": 146,
        "14176": 237,
        "14177": 163,
        "14178": 47,
        "14179": 188,
        "14180": 54,
        "14181": 110,
        "14182": 166,
        "14183": 212,
        "14184": 81,
        "14185": 140,
        "14186": 46,
        "14187": 17,
        "14188": 255,
        "14189": 1,
        "14190": 36,
        "14191": 118,
        "14192": 102,
        "14193": 146,
        "14194": 10,
        "14195": 14,
        "14196": 24,
        "14197": 104,
        "14198": 14,
        "14199": 27,
        "14200": 254,
        "14201": 156,
        "14202": 125,
        "14203": 111,
        "14204": 123,
        "14205": 234,
        "14206": 212,
        "14207": 173,
        "14208": 7,
        "14209": 58,
        "14210": 1,
        "14211": 196,
        "14212": 206,
        "14213": 111,
        "14214": 138,
        "14215": 27,
        "14216": 0,
        "14217": 94,
        "14218": 114,
        "14219": 179,
        "14220": 76,
        "14221": 2,
        "14222": 174,
        "14223": 85,
        "14224": 163,
        "14225": 50,
        "14226": 27,
        "14227": 131,
        "14228": 218,
        "14229": 149,
        "14230": 108,
        "14231": 121,
        "14232": 104,
        "14233": 157,
        "14234": 224,
        "14235": 14,
        "14236": 0,
        "14237": 121,
        "14238": 77,
        "14239": 69,
        "14240": 11,
        "14241": 243,
        "14242": 70,
        "14243": 169,
        "14244": 115,
        "14245": 62,
        "14246": 1,
        "14247": 84,
        "14248": 44,
        "14249": 73,
        "14250": 11,
        "14251": 245,
        "14252": 232,
        "14253": 164,
        "14254": 160,
        "14255": 129,
        "14256": 89,
        "14257": 86,
        "14258": 79,
        "14259": 54,
        "14260": 176,
        "14261": 115,
        "14262": 241,
        "14263": 80,
        "14264": 27,
        "14265": 28,
        "14266": 125,
        "14267": 152,
        "14268": 59,
        "14269": 243,
        "14270": 49,
        "14271": 231,
        "14272": 191,
        "14273": 214,
        "14274": 129,
        "14275": 16,
        "14276": 187,
        "14277": 2,
        "14278": 176,
        "14279": 149,
        "14280": 120,
        "14281": 34,
        "14282": 191,
        "14283": 225,
        "14284": 177,
        "14285": 227,
        "14286": 163,
        "14287": 209,
        "14288": 203,
        "14289": 112,
        "14290": 105,
        "14291": 139,
        "14292": 129,
        "14293": 38,
        "14294": 254,
        "14295": 86,
        "14296": 250,
        "14297": 109,
        "14298": 100,
        "14299": 176,
        "14300": 173,
        "14301": 175,
        "14302": 132,
        "14303": 150,
        "14304": 193,
        "14305": 20,
        "14306": 96,
        "14307": 224,
        "14308": 40,
        "14309": 37,
        "14310": 19,
        "14311": 181,
        "14312": 238,
        "14313": 30,
        "14314": 178,
        "14315": 132,
        "14316": 39,
        "14317": 236,
        "14318": 15,
        "14319": 145,
        "14320": 244,
        "14321": 212,
        "14322": 13,
        "14323": 233,
        "14324": 10,
        "14325": 221,
        "14326": 8,
        "14327": 197,
        "14328": 77,
        "14329": 13,
        "14330": 25,
        "14331": 198,
        "14332": 64,
        "14333": 164,
        "14334": 186,
        "14335": 110,
        "14336": 92,
        "14337": 63,
        "14338": 201,
        "14339": 73,
        "14340": 221,
        "14341": 16,
        "14342": 11,
        "14343": 143,
        "14344": 3,
        "14345": 255,
        "14346": 205,
        "14347": 157,
        "14348": 107,
        "14349": 24,
        "14350": 7,
        "14351": 142,
        "14352": 185,
        "14353": 64,
        "14354": 169,
        "14355": 202,
        "14356": 154,
        "14357": 48,
        "14358": 255,
        "14359": 141,
        "14360": 134,
        "14361": 213,
        "14362": 164,
        "14363": 54,
        "14364": 167,
        "14365": 151,
        "14366": 54,
        "14367": 112,
        "14368": 78,
        "14369": 61,
        "14370": 62,
        "14371": 241,
        "14372": 254,
        "14373": 118,
        "14374": 250,
        "14375": 177,
        "14376": 10,
        "14377": 44,
        "14378": 14,
        "14379": 250,
        "14380": 42,
        "14381": 183,
        "14382": 160,
        "14383": 45,
        "14384": 171,
        "14385": 131,
        "14386": 236,
        "14387": 162,
        "14388": 121,
        "14389": 11,
        "14390": 118,
        "14391": 77,
        "14392": 53,
        "14393": 137,
        "14394": 87,
        "14395": 114,
        "14396": 226,
        "14397": 138,
        "14398": 15,
        "14399": 93,
        "14400": 159,
        "14401": 137,
        "14402": 56,
        "14403": 37,
        "14404": 131,
        "14405": 59,
        "14406": 83,
        "14407": 8,
        "14408": 209,
        "14409": 9,
        "14410": 124,
        "14411": 117,
        "14412": 125,
        "14413": 93,
        "14414": 132,
        "14415": 213,
        "14416": 28,
        "14417": 116,
        "14418": 218,
        "14419": 170,
        "14420": 250,
        "14421": 219,
        "14422": 111,
        "14423": 165,
        "14424": 9,
        "14425": 228,
        "14426": 81,
        "14427": 151,
        "14428": 155,
        "14429": 15,
        "14430": 121,
        "14431": 137,
        "14432": 88,
        "14433": 163,
        "14434": 231,
        "14435": 89,
        "14436": 82,
        "14437": 30,
        "14438": 149,
        "14439": 35,
        "14440": 48,
        "14441": 214,
        "14442": 197,
        "14443": 57,
        "14444": 158,
        "14445": 109,
        "14446": 115,
        "14447": 173,
        "14448": 102,
        "14449": 63,
        "14450": 228,
        "14451": 222,
        "14452": 195,
        "14453": 184,
        "14454": 212,
        "14455": 76,
        "14456": 19,
        "14457": 100,
        "14458": 138,
        "14459": 18,
        "14460": 222,
        "14461": 249,
        "14462": 165,
        "14463": 73,
        "14464": 184,
        "14465": 38,
        "14466": 160,
        "14467": 77,
        "14468": 222,
        "14469": 197,
        "14470": 45,
        "14471": 94,
        "14472": 237,
        "14473": 140,
        "14474": 2,
        "14475": 21,
        "14476": 187,
        "14477": 174,
        "14478": 35,
        "14479": 186,
        "14480": 163,
        "14481": 19,
        "14482": 84,
        "14483": 183,
        "14484": 17,
        "14485": 52,
        "14486": 93,
        "14487": 11,
        "14488": 123,
        "14489": 124,
        "14490": 22,
        "14491": 128,
        "14492": 231,
        "14493": 151,
        "14494": 237,
        "14495": 231,
        "14496": 121,
        "14497": 87,
        "14498": 200,
        "14499": 112,
        "14500": 26,
        "14501": 211,
        "14502": 161,
        "14503": 99,
        "14504": 85,
        "14505": 48,
        "14506": 105,
        "14507": 147,
        "14508": 254,
        "14509": 162,
        "14510": 115,
        "14511": 230,
        "14512": 229,
        "14513": 33,
        "14514": 220,
        "14515": 117,
        "14516": 205,
        "14517": 41,
        "14518": 243,
        "14519": 101,
        "14520": 118,
        "14521": 131,
        "14522": 111,
        "14523": 129,
        "14524": 92,
        "14525": 68,
        "14526": 214,
        "14527": 181,
        "14528": 114,
        "14529": 1,
        "14530": 153,
        "14531": 225,
        "14532": 25,
        "14533": 108,
        "14534": 201,
        "14535": 74,
        "14536": 48,
        "14537": 196,
        "14538": 76,
        "14539": 83,
        "14540": 52,
        "14541": 102,
        "14542": 95,
        "14543": 236,
        "14544": 235,
        "14545": 204,
        "14546": 56,
        "14547": 177,
        "14548": 189,
        "14549": 183,
        "14550": 160,
        "14551": 226,
        "14552": 81,
        "14553": 208,
        "14554": 240,
        "14555": 180,
        "14556": 208,
        "14557": 176,
        "14558": 2,
        "14559": 6,
        "14560": 178,
        "14561": 107,
        "14562": 74,
        "14563": 91,
        "14564": 8,
        "14565": 92,
        "14566": 120,
        "14567": 41,
        "14568": 28,
        "14569": 53,
        "14570": 33,
        "14571": 170,
        "14572": 5,
        "14573": 34,
        "14574": 84,
        "14575": 128,
        "14576": 212,
        "14577": 193,
        "14578": 204,
        "14579": 112,
        "14580": 243,
        "14581": 8,
        "14582": 218,
        "14583": 101,
        "14584": 114,
        "14585": 99,
        "14586": 129,
        "14587": 101,
        "14588": 69,
        "14589": 7,
        "14590": 121,
        "14591": 31,
        "14592": 221,
        "14593": 120,
        "14594": 73,
        "14595": 227,
        "14596": 131,
        "14597": 135,
        "14598": 179,
        "14599": 58,
        "14600": 143,
        "14601": 48,
        "14602": 109,
        "14603": 31,
        "14604": 162,
        "14605": 140,
        "14606": 36,
        "14607": 231,
        "14608": 249,
        "14609": 13,
        "14610": 65,
        "14611": 103,
        "14612": 48,
        "14613": 245,
        "14614": 123,
        "14615": 234,
        "14616": 83,
        "14617": 174,
        "14618": 7,
        "14619": 249,
        "14620": 201,
        "14621": 94,
        "14622": 4,
        "14623": 205,
        "14624": 203,
        "14625": 0,
        "14626": 80,
        "14627": 120,
        "14628": 188,
        "14629": 213,
        "14630": 109,
        "14631": 164,
        "14632": 202,
        "14633": 53,
        "14634": 96,
        "14635": 134,
        "14636": 44,
        "14637": 50,
        "14638": 110,
        "14639": 248,
        "14640": 230,
        "14641": 71,
        "14642": 39,
        "14643": 69,
        "14644": 173,
        "14645": 71,
        "14646": 155,
        "14647": 235,
        "14648": 194,
        "14649": 107,
        "14650": 55,
        "14651": 139,
        "14652": 73,
        "14653": 64,
        "14654": 8,
        "14655": 72,
        "14656": 20,
        "14657": 81,
        "14658": 192,
        "14659": 114,
        "14660": 63,
        "14661": 40,
        "14662": 244,
        "14663": 13,
        "14664": 219,
        "14665": 143,
        "14666": 209,
        "14667": 166,
        "14668": 192,
        "14669": 106,
        "14670": 151,
        "14671": 245,
        "14672": 147,
        "14673": 153,
        "14674": 149,
        "14675": 62,
        "14676": 40,
        "14677": 151,
        "14678": 88,
        "14679": 110,
        "14680": 60,
        "14681": 31,
        "14682": 9,
        "14683": 87,
        "14684": 184,
        "14685": 79,
        "14686": 29,
        "14687": 172,
        "14688": 138,
        "14689": 159,
        "14690": 239,
        "14691": 159,
        "14692": 184,
        "14693": 120,
        "14694": 112,
        "14695": 233,
        "14696": 31,
        "14697": 198,
        "14698": 68,
        "14699": 229,
        "14700": 160,
        "14701": 154,
        "14702": 97,
        "14703": 86,
        "14704": 117,
        "14705": 62,
        "14706": 177,
        "14707": 172,
        "14708": 51,
        "14709": 47,
        "14710": 221,
        "14711": 182,
        "14712": 15,
        "14713": 82,
        "14714": 9,
        "14715": 47,
        "14716": 70,
        "14717": 22,
        "14718": 80,
        "14719": 38,
        "14720": 87,
        "14721": 3,
        "14722": 89,
        "14723": 30,
        "14724": 244,
        "14725": 252,
        "14726": 252,
        "14727": 199,
        "14728": 56,
        "14729": 49,
        "14730": 163,
        "14731": 78,
        "14732": 40,
        "14733": 39,
        "14734": 167,
        "14735": 247,
        "14736": 17,
        "14737": 42,
        "14738": 52,
        "14739": 8,
        "14740": 173,
        "14741": 175,
        "14742": 163,
        "14743": 123,
        "14744": 95,
        "14745": 0,
        "14746": 31,
        "14747": 173,
        "14748": 98,
        "14749": 17,
        "14750": 191,
        "14751": 200,
        "14752": 193,
        "14753": 252,
        "14754": 132,
        "14755": 160,
        "14756": 2,
        "14757": 108,
        "14758": 218,
        "14759": 64,
        "14760": 159,
        "14761": 198,
        "14762": 155,
        "14763": 47,
        "14764": 24,
        "14765": 112,
        "14766": 247,
        "14767": 33,
        "14768": 254,
        "14769": 89,
        "14770": 236,
        "14771": 244,
        "14772": 20,
        "14773": 124,
        "14774": 38,
        "14775": 166,
        "14776": 23,
        "14777": 76,
        "14778": 4,
        "14779": 149,
        "14780": 209,
        "14781": 16,
        "14782": 108,
        "14783": 0,
        "14784": 192,
        "14785": 34,
        "14786": 182,
        "14787": 153,
        "14788": 4,
        "14789": 221,
        "14790": 19,
        "14791": 253,
        "14792": 44,
        "14793": 36,
        "14794": 151,
        "14795": 177,
        "14796": 239,
        "14797": 50,
        "14798": 70,
        "14799": 188,
        "14800": 157,
        "14801": 69,
        "14802": 249,
        "14803": 246,
        "14804": 11,
        "14805": 158,
        "14806": 163,
        "14807": 147,
        "14808": 220,
        "14809": 23,
        "14810": 37,
        "14811": 212,
        "14812": 30,
        "14813": 175,
        "14814": 224,
        "14815": 210,
        "14816": 84,
        "14817": 122,
        "14818": 232,
        "14819": 120,
        "14820": 108,
        "14821": 219,
        "14822": 132,
        "14823": 81,
        "14824": 56,
        "14825": 72,
        "14826": 133,
        "14827": 151,
        "14828": 69,
        "14829": 61,
        "14830": 13,
        "14831": 153,
        "14832": 51,
        "14833": 114,
        "14834": 154,
        "14835": 108,
        "14836": 217,
        "14837": 203,
        "14838": 130,
        "14839": 66,
        "14840": 89,
        "14841": 144,
        "14842": 0,
        "14843": 53,
        "14844": 34,
        "14845": 107,
        "14846": 19,
        "14847": 37,
        "14848": 129,
        "14849": 214,
        "14850": 244,
        "14851": 137,
        "14852": 96,
        "14853": 128,
        "14854": 31,
        "14855": 148,
        "14856": 245,
        "14857": 253,
        "14858": 170,
        "14859": 138,
        "14860": 151,
        "14861": 152,
        "14862": 25,
        "14863": 41,
        "14864": 109,
        "14865": 183,
        "14866": 56,
        "14867": 41,
        "14868": 76,
        "14869": 43,
        "14870": 62,
        "14871": 16,
        "14872": 17,
        "14873": 167,
        "14874": 243,
        "14875": 63,
        "14876": 85,
        "14877": 142,
        "14878": 163,
        "14879": 237,
        "14880": 19,
        "14881": 255,
        "14882": 223,
        "14883": 70,
        "14884": 69,
        "14885": 246,
        "14886": 170,
        "14887": 177,
        "14888": 159,
        "14889": 249,
        "14890": 188,
        "14891": 250,
        "14892": 48,
        "14893": 131,
        "14894": 145,
        "14895": 215,
        "14896": 215,
        "14897": 169,
        "14898": 135,
        "14899": 203,
        "14900": 171,
        "14901": 79,
        "14902": 127,
        "14903": 249,
        "14904": 206,
        "14905": 53,
        "14906": 38,
        "14907": 117,
        "14908": 94,
        "14909": 255,
        "14910": 194,
        "14911": 160,
        "14912": 45,
        "14913": 188,
        "14914": 250,
        "14915": 45,
        "14916": 5,
        "14917": 183,
        "14918": 11,
        "14919": 42,
        "14920": 49,
        "14921": 133,
        "14922": 21,
        "14923": 195,
        "14924": 99,
        "14925": 222,
        "14926": 212,
        "14927": 115,
        "14928": 40,
        "14929": 192,
        "14930": 185,
        "14931": 153,
        "14932": 129,
        "14933": 110,
        "14934": 175,
        "14935": 206,
        "14936": 200,
        "14937": 194,
        "14938": 5,
        "14939": 216,
        "14940": 21,
        "14941": 218,
        "14942": 7,
        "14943": 235,
        "14944": 67,
        "14945": 209,
        "14946": 33,
        "14947": 37,
        "14948": 151,
        "14949": 87,
        "14950": 72,
        "14951": 82,
        "14952": 75,
        "14953": 207,
        "14954": 210,
        "14955": 20,
        "14956": 252,
        "14957": 16,
        "14958": 205,
        "14959": 144,
        "14960": 115,
        "14961": 173,
        "14962": 94,
        "14963": 62,
        "14964": 10,
        "14965": 58,
        "14966": 39,
        "14967": 11,
        "14968": 135,
        "14969": 25,
        "14970": 107,
        "14971": 123,
        "14972": 43,
        "14973": 135,
        "14974": 167,
        "14975": 21,
        "14976": 39,
        "14977": 197,
        "14978": 10,
        "14979": 123,
        "14980": 98,
        "14981": 174,
        "14982": 130,
        "14983": 184,
        "14984": 164,
        "14985": 222,
        "14986": 39,
        "14987": 42,
        "14988": 172,
        "14989": 128,
        "14990": 78,
        "14991": 86,
        "14992": 170,
        "14993": 214,
        "14994": 92,
        "14995": 28,
        "14996": 251,
        "14997": 226,
        "14998": 216,
        "14999": 59,
        "15000": 131,
        "15001": 37,
        "15002": 172,
        "15003": 170,
        "15004": 216,
        "15005": 81,
        "15006": 249,
        "15007": 22,
        "15008": 76,
        "15009": 92,
        "15010": 33,
        "15011": 182,
        "15012": 238,
        "15013": 54,
        "15014": 32,
        "15015": 55,
        "15016": 162,
        "15017": 173,
        "15018": 194,
        "15019": 230,
        "15020": 163,
        "15021": 8,
        "15022": 157,
        "15023": 82,
        "15024": 193,
        "15025": 37,
        "15026": 51,
        "15027": 93,
        "15028": 95,
        "15029": 39,
        "15030": 119,
        "15031": 216,
        "15032": 105,
        "15033": 225,
        "15034": 135,
        "15035": 99,
        "15036": 167,
        "15037": 170,
        "15038": 17,
        "15039": 73,
        "15040": 253,
        "15041": 3,
        "15042": 212,
        "15043": 98,
        "15044": 37,
        "15045": 111,
        "15046": 150,
        "15047": 138,
        "15048": 44,
        "15049": 10,
        "15050": 17,
        "15051": 136,
        "15052": 204,
        "15053": 6,
        "15054": 129,
        "15055": 233,
        "15056": 76,
        "15057": 55,
        "15058": 241,
        "15059": 1,
        "15060": 214,
        "15061": 61,
        "15062": 227,
        "15063": 210,
        "15064": 94,
        "15065": 31,
        "15066": 95,
        "15067": 253,
        "15068": 23,
        "15069": 181,
        "15070": 158,
        "15071": 237,
        "15072": 128,
        "15073": 62,
        "15074": 114,
        "15075": 206,
        "15076": 155,
        "15077": 94,
        "15078": 57,
        "15079": 141,
        "15080": 151,
        "15081": 215,
        "15082": 128,
        "15083": 166,
        "15084": 167,
        "15085": 100,
        "15086": 224,
        "15087": 134,
        "15088": 251,
        "15089": 9,
        "15090": 70,
        "15091": 75,
        "15092": 235,
        "15093": 100,
        "15094": 20,
        "15095": 242,
        "15096": 196,
        "15097": 250,
        "15098": 168,
        "15099": 92,
        "15100": 31,
        "15101": 134,
        "15102": 69,
        "15103": 162,
        "15104": 30,
        "15105": 144,
        "15106": 158,
        "15107": 194,
        "15108": 126,
        "15109": 89,
        "15110": 215,
        "15111": 251,
        "15112": 227,
        "15113": 67,
        "15114": 84,
        "15115": 47,
        "15116": 173,
        "15117": 23,
        "15118": 3,
        "15119": 57,
        "15120": 229,
        "15121": 244,
        "15122": 58,
        "15123": 182,
        "15124": 115,
        "15125": 251,
        "15126": 249,
        "15127": 24,
        "15128": 44,
        "15129": 247,
        "15130": 132,
        "15131": 22,
        "15132": 89,
        "15133": 187,
        "15134": 228,
        "15135": 79,
        "15136": 162,
        "15137": 186,
        "15138": 13,
        "15139": 155,
        "15140": 55,
        "15141": 255,
        "15142": 248,
        "15143": 57,
        "15144": 124,
        "15145": 155,
        "15146": 38,
        "15147": 152,
        "15148": 220,
        "15149": 222,
        "15150": 202,
        "15151": 99,
        "15152": 93,
        "15153": 204,
        "15154": 166,
        "15155": 158,
        "15156": 44,
        "15157": 71,
        "15158": 198,
        "15159": 224,
        "15160": 63,
        "15161": 61,
        "15162": 147,
        "15163": 72,
        "15164": 108,
        "15165": 219,
        "15166": 51,
        "15167": 162,
        "15168": 139,
        "15169": 100,
        "15170": 44,
        "15171": 247,
        "15172": 178,
        "15173": 4,
        "15174": 119,
        "15175": 107,
        "15176": 234,
        "15177": 99,
        "15178": 211,
        "15179": 78,
        "15180": 37,
        "15181": 171,
        "15182": 189,
        "15183": 83,
        "15184": 225,
        "15185": 61,
        "15186": 130,
        "15187": 224,
        "15188": 158,
        "15189": 184,
        "15190": 180,
        "15191": 110,
        "15192": 198,
        "15193": 89,
        "15194": 104,
        "15195": 209,
        "15196": 216,
        "15197": 159,
        "15198": 107,
        "15199": 0,
        "15200": 225,
        "15201": 28,
        "15202": 155,
        "15203": 153,
        "15204": 181,
        "15205": 222,
        "15206": 182,
        "15207": 138,
        "15208": 232,
        "15209": 3,
        "15210": 40,
        "15211": 212,
        "15212": 13,
        "15213": 128,
        "15214": 131,
        "15215": 244,
        "15216": 245,
        "15217": 19,
        "15218": 85,
        "15219": 229,
        "15220": 183,
        "15221": 86,
        "15222": 48,
        "15223": 155,
        "15224": 127,
        "15225": 191,
        "15226": 126,
        "15227": 206,
        "15228": 205,
        "15229": 28,
        "15230": 142,
        "15231": 51,
        "15232": 21,
        "15233": 181,
        "15234": 149,
        "15235": 185,
        "15236": 40,
        "15237": 84,
        "15238": 99,
        "15239": 76,
        "15240": 17,
        "15241": 116,
        "15242": 118,
        "15243": 231,
        "15244": 199,
        "15245": 114,
        "15246": 113,
        "15247": 198,
        "15248": 5,
        "15249": 129,
        "15250": 75,
        "15251": 101,
        "15252": 99,
        "15253": 71,
        "15254": 185,
        "15255": 8,
        "15256": 89,
        "15257": 190,
        "15258": 195,
        "15259": 54,
        "15260": 93,
        "15261": 152,
        "15262": 25,
        "15263": 3,
        "15264": 223,
        "15265": 0,
        "15266": 74,
        "15267": 216,
        "15268": 192,
        "15269": 189,
        "15270": 150,
        "15271": 3,
        "15272": 236,
        "15273": 212,
        "15274": 85,
        "15275": 104,
        "15276": 27,
        "15277": 14,
        "15278": 48,
        "15279": 214,
        "15280": 167,
        "15281": 110,
        "15282": 45,
        "15283": 180,
        "15284": 192,
        "15285": 211,
        "15286": 245,
        "15287": 4,
        "15288": 132,
        "15289": 151,
        "15290": 227,
        "15291": 180,
        "15292": 144,
        "15293": 169,
        "15294": 206,
        "15295": 133,
        "15296": 169,
        "15297": 32,
        "15298": 75,
        "15299": 42,
        "15300": 4,
        "15301": 189,
        "15302": 97,
        "15303": 14,
        "15304": 44,
        "15305": 43,
        "15306": 72,
        "15307": 184,
        "15308": 138,
        "15309": 77,
        "15310": 117,
        "15311": 117,
        "15312": 155,
        "15313": 100,
        "15314": 215,
        "15315": 52,
        "15316": 169,
        "15317": 142,
        "15318": 120,
        "15319": 35,
        "15320": 159,
        "15321": 228,
        "15322": 139,
        "15323": 117,
        "15324": 79,
        "15325": 6,
        "15326": 167,
        "15327": 57,
        "15328": 10,
        "15329": 2,
        "15330": 5,
        "15331": 48,
        "15332": 242,
        "15333": 100,
        "15334": 134,
        "15335": 43,
        "15336": 174,
        "15337": 210,
        "15338": 154,
        "15339": 160,
        "15340": 71,
        "15341": 125,
        "15342": 207,
        "15343": 230,
        "15344": 132,
        "15345": 210,
        "15346": 35,
        "15347": 220,
        "15348": 103,
        "15349": 73,
        "15350": 94,
        "15351": 164,
        "15352": 213,
        "15353": 149,
        "15354": 101,
        "15355": 224,
        "15356": 91,
        "15357": 178,
        "15358": 62,
        "15359": 23,
        "15360": 180,
        "15361": 40,
        "15362": 238,
        "15363": 137,
        "15364": 251,
        "15365": 43,
        "15366": 84,
        "15367": 222,
        "15368": 243,
        "15369": 68,
        "15370": 169,
        "15371": 254,
        "15372": 189,
        "15373": 58,
        "15374": 63,
        "15375": 95,
        "15376": 238,
        "15377": 255,
        "15378": 32,
        "15379": 68,
        "15380": 172,
        "15381": 45,
        "15382": 72,
        "15383": 163,
        "15384": 46,
        "15385": 125,
        "15386": 78,
        "15387": 107,
        "15388": 74,
        "15389": 18,
        "15390": 186,
        "15391": 200,
        "15392": 81,
        "15393": 81,
        "15394": 134,
        "15395": 204,
        "15396": 144,
        "15397": 150,
        "15398": 203,
        "15399": 156,
        "15400": 78,
        "15401": 30,
        "15402": 115,
        "15403": 87,
        "15404": 250,
        "15405": 21,
        "15406": 119,
        "15407": 203,
        "15408": 52,
        "15409": 242,
        "15410": 168,
        "15411": 121,
        "15412": 124,
        "15413": 165,
        "15414": 138,
        "15415": 136,
        "15416": 142,
        "15417": 213,
        "15418": 198,
        "15419": 184,
        "15420": 238,
        "15421": 63,
        "15422": 46,
        "15423": 91,
        "15424": 70,
        "15425": 200,
        "15426": 48,
        "15427": 121,
        "15428": 18,
        "15429": 253,
        "15430": 35,
        "15431": 31,
        "15432": 170,
        "15433": 52,
        "15434": 2,
        "15435": 251,
        "15436": 153,
        "15437": 144,
        "15438": 232,
        "15439": 57,
        "15440": 138,
        "15441": 140,
        "15442": 207,
        "15443": 18,
        "15444": 23,
        "15445": 100,
        "15446": 83,
        "15447": 254,
        "15448": 0,
        "15449": 38,
        "15450": 73,
        "15451": 250,
        "15452": 254,
        "15453": 33,
        "15454": 50,
        "15455": 182,
        "15456": 76,
        "15457": 251,
        "15458": 217,
        "15459": 165,
        "15460": 50,
        "15461": 238,
        "15462": 216,
        "15463": 135,
        "15464": 233,
        "15465": 36,
        "15466": 149,
        "15467": 142,
        "15468": 14,
        "15469": 227,
        "15470": 52,
        "15471": 76,
        "15472": 5,
        "15473": 46,
        "15474": 110,
        "15475": 217,
        "15476": 3,
        "15477": 86,
        "15478": 78,
        "15479": 237,
        "15480": 66,
        "15481": 101,
        "15482": 196,
        "15483": 74,
        "15484": 29,
        "15485": 92,
        "15486": 39,
        "15487": 53,
        "15488": 200,
        "15489": 108,
        "15490": 232,
        "15491": 215,
        "15492": 167,
        "15493": 204,
        "15494": 128,
        "15495": 136,
        "15496": 122,
        "15497": 243,
        "15498": 182,
        "15499": 164,
        "15500": 138,
        "15501": 46,
        "15502": 219,
        "15503": 6,
        "15504": 12,
        "15505": 177,
        "15506": 186,
        "15507": 221,
        "15508": 138,
        "15509": 191,
        "15510": 59,
        "15511": 30,
        "15512": 207,
        "15513": 185,
        "15514": 231,
        "15515": 32,
        "15516": 66,
        "15517": 39,
        "15518": 249,
        "15519": 233,
        "15520": 68,
        "15521": 240,
        "15522": 143,
        "15523": 166,
        "15524": 81,
        "15525": 92,
        "15526": 19,
        "15527": 68,
        "15528": 118,
        "15529": 15,
        "15530": 149,
        "15531": 243,
        "15532": 105,
        "15533": 252,
        "15534": 197,
        "15535": 233,
        "15536": 157,
        "15537": 143,
        "15538": 144,
        "15539": 85,
        "15540": 153,
        "15541": 77,
        "15542": 133,
        "15543": 90,
        "15544": 22,
        "15545": 74,
        "15546": 223,
        "15547": 124,
        "15548": 151,
        "15549": 152,
        "15550": 77,
        "15551": 154,
        "15552": 208,
        "15553": 3,
        "15554": 120,
        "15555": 179,
        "15556": 54,
        "15557": 20,
        "15558": 31,
        "15559": 188,
        "15560": 51,
        "15561": 6,
        "15562": 90,
        "15563": 72,
        "15564": 136,
        "15565": 213,
        "15566": 188,
        "15567": 228,
        "15568": 9,
        "15569": 64,
        "15570": 130,
        "15571": 43,
        "15572": 18,
        "15573": 0,
        "15574": 7,
        "15575": 45,
        "15576": 90,
        "15577": 196,
        "15578": 99,
        "15579": 142,
        "15580": 34,
        "15581": 3,
        "15582": 141,
        "15583": 27,
        "15584": 131,
        "15585": 34,
        "15586": 49,
        "15587": 138,
        "15588": 27,
        "15589": 71,
        "15590": 182,
        "15591": 44,
        "15592": 240,
        "15593": 104,
        "15594": 205,
        "15595": 139,
        "15596": 161,
        "15597": 174,
        "15598": 157,
        "15599": 10,
        "15600": 214,
        "15601": 201,
        "15602": 50,
        "15603": 41,
        "15604": 46,
        "15605": 104,
        "15606": 242,
        "15607": 157,
        "15608": 218,
        "15609": 32,
        "15610": 99,
        "15611": 85,
        "15612": 248,
        "15613": 83,
        "15614": 109,
        "15615": 70,
        "15616": 52,
        "15617": 230,
        "15618": 199,
        "15619": 119,
        "15620": 81,
        "15621": 54,
        "15622": 99,
        "15623": 55,
        "15624": 244,
        "15625": 234,
        "15626": 98,
        "15627": 93,
        "15628": 240,
        "15629": 198,
        "15630": 51,
        "15631": 112,
        "15632": 37,
        "15633": 88,
        "15634": 166,
        "15635": 16,
        "15636": 254,
        "15637": 255,
        "15638": 95,
        "15639": 124,
        "15640": 115,
        "15641": 53,
        "15642": 202,
        "15643": 161,
        "15644": 128,
        "15645": 123,
        "15646": 85,
        "15647": 37,
        "15648": 106,
        "15649": 180,
        "15650": 91,
        "15651": 78,
        "15652": 253,
        "15653": 76,
        "15654": 16,
        "15655": 24,
        "15656": 230,
        "15657": 80,
        "15658": 100,
        "15659": 225,
        "15660": 161,
        "15661": 36,
        "15662": 27,
        "15663": 187,
        "15664": 96,
        "15665": 193,
        "15666": 36,
        "15667": 244,
        "15668": 238,
        "15669": 177,
        "15670": 167,
        "15671": 203,
        "15672": 62,
        "15673": 232,
        "15674": 52,
        "15675": 27,
        "15676": 253,
        "15677": 149,
        "15678": 51,
        "15679": 48,
        "15680": 73,
        "15681": 74,
        "15682": 126,
        "15683": 124,
        "15684": 180,
        "15685": 16,
        "15686": 242,
        "15687": 254,
        "15688": 108,
        "15689": 49,
        "15690": 214,
        "15691": 139,
        "15692": 35,
        "15693": 34,
        "15694": 144,
        "15695": 171,
        "15696": 141,
        "15697": 186,
        "15698": 0,
        "15699": 156,
        "15700": 219,
        "15701": 47,
        "15702": 82,
        "15703": 183,
        "15704": 55,
        "15705": 136,
        "15706": 125,
        "15707": 58,
        "15708": 39,
        "15709": 158,
        "15710": 12,
        "15711": 205,
        "15712": 210,
        "15713": 159,
        "15714": 128,
        "15715": 243,
        "15716": 8,
        "15717": 215,
        "15718": 124,
        "15719": 25,
        "15720": 250,
        "15721": 166,
        "15722": 3,
        "15723": 123,
        "15724": 182,
        "15725": 255,
        "15726": 43,
        "15727": 164,
        "15728": 206,
        "15729": 141,
        "15730": 133,
        "15731": 121,
        "15732": 160,
        "15733": 148,
        "15734": 94,
        "15735": 173,
        "15736": 195,
        "15737": 187,
        "15738": 68,
        "15739": 199,
        "15740": 204,
        "15741": 138,
        "15742": 207,
        "15743": 177,
        "15744": 134,
        "15745": 67,
        "15746": 185,
        "15747": 223,
        "15748": 249,
        "15749": 25,
        "15750": 148,
        "15751": 38,
        "15752": 11,
        "15753": 44,
        "15754": 181,
        "15755": 97,
        "15756": 172,
        "15757": 50,
        "15758": 106,
        "15759": 118,
        "15760": 218,
        "15761": 46,
        "15762": 91,
        "15763": 239,
        "15764": 123,
        "15765": 75,
        "15766": 224,
        "15767": 251,
        "15768": 218,
        "15769": 180,
        "15770": 181,
        "15771": 173,
        "15772": 179,
        "15773": 251,
        "15774": 161,
        "15775": 61,
        "15776": 35,
        "15777": 1,
        "15778": 214,
        "15779": 219,
        "15780": 236,
        "15781": 228,
        "15782": 209,
        "15783": 227,
        "15784": 58,
        "15785": 199,
        "15786": 237,
        "15787": 217,
        "15788": 184,
        "15789": 79,
        "15790": 241,
        "15791": 148,
        "15792": 240,
        "15793": 208,
        "15794": 76,
        "15795": 250,
        "15796": 19,
        "15797": 247,
        "15798": 155,
        "15799": 224,
        "15800": 63,
        "15801": 17,
        "15802": 42,
        "15803": 76,
        "15804": 100,
        "15805": 145,
        "15806": 207,
        "15807": 213,
        "15808": 122,
        "15809": 171,
        "15810": 111,
        "15811": 71,
        "15812": 206,
        "15813": 89,
        "15814": 123,
        "15815": 175,
        "15816": 215,
        "15817": 158,
        "15818": 173,
        "15819": 93,
        "15820": 112,
        "15821": 36,
        "15822": 211,
        "15823": 74,
        "15824": 79,
        "15825": 109,
        "15826": 149,
        "15827": 200,
        "15828": 204,
        "15829": 76,
        "15830": 13,
        "15831": 137,
        "15832": 141,
        "15833": 219,
        "15834": 67,
        "15835": 195,
        "15836": 79,
        "15837": 98,
        "15838": 203,
        "15839": 29,
        "15840": 184,
        "15841": 172,
        "15842": 131,
        "15843": 123,
        "15844": 255,
        "15845": 18,
        "15846": 219,
        "15847": 123,
        "15848": 121,
        "15849": 46,
        "15850": 68,
        "15851": 193,
        "15852": 122,
        "15853": 48,
        "15854": 210,
        "15855": 171,
        "15856": 154,
        "15857": 15,
        "15858": 58,
        "15859": 212,
        "15860": 190,
        "15861": 167,
        "15862": 244,
        "15863": 12,
        "15864": 150,
        "15865": 187,
        "15866": 156,
        "15867": 238,
        "15868": 5,
        "15869": 12,
        "15870": 242,
        "15871": 55,
        "15872": 42,
        "15873": 152,
        "15874": 59,
        "15875": 93,
        "15876": 138,
        "15877": 60,
        "15878": 56,
        "15879": 127,
        "15880": 91,
        "15881": 251,
        "15882": 241,
        "15883": 124,
        "15884": 84,
        "15885": 8,
        "15886": 49,
        "15887": 87,
        "15888": 88,
        "15889": 227,
        "15890": 210,
        "15891": 90,
        "15892": 44,
        "15893": 198,
        "15894": 13,
        "15895": 247,
        "15896": 11,
        "15897": 67,
        "15898": 19,
        "15899": 6,
        "15900": 38,
        "15901": 128,
        "15902": 31,
        "15903": 17,
        "15904": 239,
        "15905": 69,
        "15906": 4,
        "15907": 68,
        "15908": 0,
        "15909": 224,
        "15910": 201,
        "15911": 208,
        "15912": 173,
        "15913": 152,
        "15914": 132,
        "15915": 27,
        "15916": 133,
        "15917": 251,
        "15918": 109,
        "15919": 27,
        "15920": 152,
        "15921": 200,
        "15922": 35,
        "15923": 243,
        "15924": 124,
        "15925": 249,
        "15926": 71,
        "15927": 159,
        "15928": 179,
        "15929": 125,
        "15930": 134,
        "15931": 186,
        "15932": 173,
        "15933": 174,
        "15934": 83,
        "15935": 173,
        "15936": 148,
        "15937": 220,
        "15938": 193,
        "15939": 174,
        "15940": 65,
        "15941": 109,
        "15942": 43,
        "15943": 233,
        "15944": 111,
        "15945": 131,
        "15946": 148,
        "15947": 98,
        "15948": 70,
        "15949": 222,
        "15950": 150,
        "15951": 14,
        "15952": 104,
        "15953": 93,
        "15954": 47,
        "15955": 221,
        "15956": 78,
        "15957": 193,
        "15958": 71,
        "15959": 5,
        "15960": 147,
        "15961": 71,
        "15962": 207,
        "15963": 248,
        "15964": 244,
        "15965": 119,
        "15966": 61,
        "15967": 169,
        "15968": 119,
        "15969": 220,
        "15970": 144,
        "15971": 199,
        "15972": 36,
        "15973": 41,
        "15974": 172,
        "15975": 213,
        "15976": 206,
        "15977": 61,
        "15978": 82,
        "15979": 64,
        "15980": 211,
        "15981": 193,
        "15982": 226,
        "15983": 86,
        "15984": 54,
        "15985": 47,
        "15986": 124,
        "15987": 117,
        "15988": 131,
        "15989": 136,
        "15990": 172,
        "15991": 178,
        "15992": 212,
        "15993": 228,
        "15994": 216,
        "15995": 226,
        "15996": 8,
        "15997": 233,
        "15998": 169,
        "15999": 166,
        "16000": 197,
        "16001": 100,
        "16002": 151,
        "16003": 243,
        "16004": 12,
        "16005": 116,
        "16006": 118,
        "16007": 72,
        "16008": 137,
        "16009": 20,
        "16010": 139,
        "16011": 185,
        "16012": 14,
        "16013": 143,
        "16014": 152,
        "16015": 219,
        "16016": 20,
        "16017": 77,
        "16018": 65,
        "16019": 217,
        "16020": 81,
        "16021": 171,
        "16022": 20,
        "16023": 139,
        "16024": 68,
        "16025": 31,
        "16026": 34,
        "16027": 47,
        "16028": 184,
        "16029": 39,
        "16030": 222,
        "16031": 93,
        "16032": 70,
        "16033": 232,
        "16034": 10,
        "16035": 254,
        "16036": 126,
        "16037": 246,
        "16038": 41,
        "16039": 140,
        "16040": 178,
        "16041": 45,
        "16042": 67,
        "16043": 200,
        "16044": 204,
        "16045": 45,
        "16046": 248,
        "16047": 39,
        "16048": 225,
        "16049": 101,
        "16050": 129,
        "16051": 150,
        "16052": 81,
        "16053": 58,
        "16054": 101,
        "16055": 148,
        "16056": 82,
        "16057": 155,
        "16058": 88,
        "16059": 223,
        "16060": 230,
        "16061": 180,
        "16062": 112,
        "16063": 247,
        "16064": 25,
        "16065": 112,
        "16066": 86,
        "16067": 241,
        "16068": 104,
        "16069": 8,
        "16070": 94,
        "16071": 203,
        "16072": 207,
        "16073": 93,
        "16074": 12,
        "16075": 230,
        "16076": 199,
        "16077": 139,
        "16078": 249,
        "16079": 107,
        "16080": 162,
        "16081": 176,
        "16082": 7,
        "16083": 210,
        "16084": 32,
        "16085": 97,
        "16086": 163,
        "16087": 111,
        "16088": 48,
        "16089": 169,
        "16090": 189,
        "16091": 108,
        "16092": 212,
        "16093": 186,
        "16094": 178,
        "16095": 98,
        "16096": 255,
        "16097": 138,
        "16098": 98,
        "16099": 248,
        "16100": 151,
        "16101": 211,
        "16102": 160,
        "16103": 8,
        "16104": 14,
        "16105": 5,
        "16106": 150,
        "16107": 7,
        "16108": 155,
        "16109": 253,
        "16110": 220,
        "16111": 76,
        "16112": 204,
        "16113": 121,
        "16114": 101,
        "16115": 249,
        "16116": 140,
        "16117": 46,
        "16118": 165,
        "16119": 176,
        "16120": 105,
        "16121": 194,
        "16122": 56,
        "16123": 161,
        "16124": 148,
        "16125": 230,
        "16126": 96,
        "16127": 80,
        "16128": 141,
        "16129": 58,
        "16130": 29,
        "16131": 46,
        "16132": 125,
        "16133": 189,
        "16134": 96,
        "16135": 141,
        "16136": 12,
        "16137": 213,
        "16138": 8,
        "16139": 35,
        "16140": 124,
        "16141": 68,
        "16142": 217,
        "16143": 202,
        "16144": 47,
        "16145": 187,
        "16146": 69,
        "16147": 159,
        "16148": 92,
        "16149": 11,
        "16150": 65,
        "16151": 28,
        "16152": 25,
        "16153": 10,
        "16154": 216,
        "16155": 15,
        "16156": 110,
        "16157": 180,
        "16158": 13,
        "16159": 66,
        "16160": 139,
        "16161": 39,
        "16162": 36,
        "16163": 249,
        "16164": 37,
        "16165": 195,
        "16166": 150,
        "16167": 43,
        "16168": 25,
        "16169": 78,
        "16170": 19,
        "16171": 200,
        "16172": 188,
        "16173": 63,
        "16174": 200,
        "16175": 204,
        "16176": 173,
        "16177": 250,
        "16178": 50,
        "16179": 13,
        "16180": 115,
        "16181": 140,
        "16182": 225,
        "16183": 120,
        "16184": 136,
        "16185": 17,
        "16186": 57,
        "16187": 36,
        "16188": 243,
        "16189": 2,
        "16190": 224,
        "16191": 49,
        "16192": 138,
        "16193": 209,
        "16194": 201,
        "16195": 244,
        "16196": 61,
        "16197": 219,
        "16198": 54,
        "16199": 164,
        "16200": 12,
        "16201": 103,
        "16202": 11,
        "16203": 68,
        "16204": 23,
        "16205": 78,
        "16206": 31,
        "16207": 193,
        "16208": 11,
        "16209": 186,
        "16210": 197,
        "16211": 249,
        "16212": 76,
        "16213": 22,
        "16214": 179,
        "16215": 160,
        "16216": 70,
        "16217": 41,
        "16218": 162,
        "16219": 140,
        "16220": 127,
        "16221": 16,
        "16222": 144,
        "16223": 169,
        "16224": 203,
        "16225": 143,
        "16226": 30,
        "16227": 94,
        "16228": 233,
        "16229": 134,
        "16230": 20,
        "16231": 77,
        "16232": 40,
        "16233": 44,
        "16234": 221,
        "16235": 237,
        "16236": 149,
        "16237": 156,
        "16238": 215,
        "16239": 149,
        "16240": 26,
        "16241": 248,
        "16242": 53,
        "16243": 148,
        "16244": 150,
        "16245": 159,
        "16246": 9,
        "16247": 153,
        "16248": 224,
        "16249": 66,
        "16250": 246,
        "16251": 46,
        "16252": 65,
        "16253": 230,
        "16254": 34,
        "16255": 18,
        "16256": 238,
        "16257": 180,
        "16258": 10,
        "16259": 164,
        "16260": 233,
        "16261": 194,
        "16262": 2,
        "16263": 85,
        "16264": 165,
        "16265": 113,
        "16266": 114,
        "16267": 93,
        "16268": 19,
        "16269": 101,
        "16270": 36,
        "16271": 113,
        "16272": 119,
        "16273": 75,
        "16274": 216,
        "16275": 73,
        "16276": 219,
        "16277": 199,
        "16278": 240,
        "16279": 1,
        "16280": 199,
        "16281": 107,
        "16282": 243,
        "16283": 149,
        "16284": 156,
        "16285": 24,
        "16286": 178,
        "16287": 69,
        "16288": 36,
        "16289": 69,
        "16290": 177,
        "16291": 30,
        "16292": 175,
        "16293": 32,
        "16294": 2,
        "16295": 60,
        "16296": 103,
        "16297": 185,
        "16298": 196,
        "16299": 250,
        "16300": 10,
        "16301": 254,
        "16302": 231,
        "16303": 99,
        "16304": 144,
        "16305": 182,
        "16306": 29,
        "16307": 180,
        "16308": 149,
        "16309": 165,
        "16310": 176,
        "16311": 186,
        "16312": 190,
        "16313": 178,
        "16314": 141,
        "16315": 222,
        "16316": 130,
        "16317": 204,
        "16318": 96,
        "16319": 33,
        "16320": 128,
        "16321": 47,
        "16322": 227,
        "16323": 191,
        "16324": 132,
        "16325": 169,
        "16326": 33,
        "16327": 188,
        "16328": 230,
        "16329": 145,
        "16330": 99,
        "16331": 84,
        "16332": 148,
        "16333": 221,
        "16334": 63,
        "16335": 123,
        "16336": 40,
        "16337": 182,
        "16338": 205,
        "16339": 74,
        "16340": 221,
        "16341": 223,
        "16342": 126,
        "16343": 35,
        "16344": 58,
        "16345": 170,
        "16346": 45,
        "16347": 248,
        "16348": 94,
        "16349": 113,
        "16350": 88,
        "16351": 42,
        "16352": 146,
        "16353": 92,
        "16354": 163,
        "16355": 227,
        "16356": 188,
        "16357": 110,
        "16358": 86,
        "16359": 8,
        "16360": 74,
        "16361": 14,
        "16362": 188,
        "16363": 212,
        "16364": 152,
        "16365": 131,
        "16366": 235,
        "16367": 232,
        "16368": 229,
        "16369": 4,
        "16370": 134,
        "16371": 255,
        "16372": 177,
        "16373": 231,
        "16374": 94,
        "16375": 58,
        "16376": 178,
        "16377": 151,
        "16378": 243,
        "16379": 202,
        "16380": 180,
        "16381": 34,
        "16382": 66,
        "16383": 194,
        "16384": 117,
        "16385": 131,
        "16386": 255,
        "16387": 164,
        "16388": 242,
        "16389": 173,
        "16390": 187,
        "16391": 173,
        "16392": 138,
        "16393": 24,
        "16394": 162,
        "16395": 238,
        "16396": 55,
        "16397": 102,
        "16398": 228,
        "16399": 67,
        "16400": 23,
        "16401": 108,
        "16402": 101,
        "16403": 150,
        "16404": 92,
        "16405": 19,
        "16406": 200,
        "16407": 159,
        "16408": 237,
        "16409": 79,
        "16410": 130,
        "16411": 188,
        "16412": 89,
        "16413": 14,
        "16414": 253,
        "16415": 26,
        "16416": 228,
        "16417": 0,
        "16418": 142,
        "16419": 73,
        "16420": 125,
        "16421": 119,
        "16422": 44,
        "16423": 217,
        "16424": 98,
        "16425": 6,
        "16426": 200,
        "16427": 247,
        "16428": 223,
        "16429": 252,
        "16430": 108,
        "16431": 217,
        "16432": 214,
        "16433": 229,
        "16434": 56,
        "16435": 175,
        "16436": 218,
        "16437": 133,
        "16438": 141,
        "16439": 137,
        "16440": 121,
        "16441": 158,
        "16442": 211,
        "16443": 206,
        "16444": 113,
        "16445": 221,
        "16446": 199,
        "16447": 229,
        "16448": 31,
        "16449": 231,
        "16450": 203,
        "16451": 245,
        "16452": 74,
        "16453": 190,
        "16454": 112,
        "16455": 168,
        "16456": 133,
        "16457": 182,
        "16458": 145,
        "16459": 46,
        "16460": 42,
        "16461": 183,
        "16462": 214,
        "16463": 36,
        "16464": 219,
        "16465": 232,
        "16466": 247,
        "16467": 167,
        "16468": 26,
        "16469": 138,
        "16470": 223,
        "16471": 12,
        "16472": 58,
        "16473": 132,
        "16474": 249,
        "16475": 49,
        "16476": 90,
        "16477": 0,
        "16478": 102,
        "16479": 130,
        "16480": 205,
        "16481": 170,
        "16482": 172,
        "16483": 78,
        "16484": 3,
        "16485": 140,
        "16486": 69,
        "16487": 49,
        "16488": 85,
        "16489": 11,
        "16490": 197,
        "16491": 194,
        "16492": 69,
        "16493": 77,
        "16494": 122,
        "16495": 167,
        "16496": 213,
        "16497": 198,
        "16498": 207,
        "16499": 18,
        "16500": 2,
        "16501": 66,
        "16502": 28,
        "16503": 27,
        "16504": 62,
        "16505": 144,
        "16506": 62,
        "16507": 111,
        "16508": 188,
        "16509": 172,
        "16510": 22,
        "16511": 109,
        "16512": 247,
        "16513": 222,
        "16514": 219,
        "16515": 187,
        "16516": 129,
        "16517": 237,
        "16518": 36,
        "16519": 131,
        "16520": 1,
        "16521": 8,
        "16522": 0,
        "16523": 0,
        "16524": 0,
        "16525": 0,
        "16526": 0,
        "16527": 0,
        "16528": 16,
        "16529": 0,
        "16530": 0,
        "16531": 0,
        "16532": 0,
        "16533": 0,
        "16534": 0,
        "16535": 0,
        "16536": 0,
        "16537": 0,
        "16538": 0,
        "16539": 0,
        "16540": 0,
        "16541": 0,
        "16542": 0,
        "16543": 0,
        "16544": 0,
        "16545": 0,
        "16546": 0,
        "16547": 0,
        "16548": 0,
        "16549": 0,
        "16550": 0,
        "16551": 0,
        "16552": 64,
        "16553": 0,
        "16554": 0,
        "16555": 0,
        "16556": 0,
        "16557": 0,
        "16558": 0,
        "16559": 0,
        "16560": 3,
        "16561": 0,
        "16562": 0,
        "16563": 0,
        "16564": 0,
        "16565": 0,
        "16566": 0,
        "16567": 0,
        "16568": 4,
        "16569": 0,
        "16570": 0,
        "16571": 0,
        "16572": 0,
        "16573": 0,
        "16574": 0,
        "16575": 0,
        "16576": 4,
        "16577": 0,
        "16578": 0,
        "16579": 0,
        "16580": 0,
        "16581": 0,
        "16582": 0,
        "16583": 0,
        "16584": 0,
        "16585": 0,
        "16586": 0,
        "16587": 0,
        "16588": 1,
        "16589": 0,
        "16590": 0,
        "16591": 0,
        "16592": 0,
        "16593": 0,
        "16594": 0,
        "16595": 0,
        "16596": 16,
        "16597": 0,
        "16598": 0,
        "16599": 0,
        "16600": 0,
        "16601": 0,
        "16602": 0,
        "16603": 0
      }
    }
  ],
  "numDeployments": 1,
  "solcInputHash": "c0e889dcb69b76266f445d0fe3402b92",
  "bytecode": "0x6101606040526200001760006200026660201b60201c565b6002553480156200002757600080fd5b50604051620046173803806200461783398181016040528101906200004d919062000b83565b6040518060400160405280600881526020017f46616b652046475a0000000000000000000000000000000000000000000000008152506040518060400160405280600481526020017f6646475a00000000000000000000000000000000000000000000000000000000815250338383836040518060400160405280601181526020017f4668656e6978205065726d697373696f6e0000000000000000000000000000008152506040518060400160405280600381526020017f312e3000000000000000000000000000000000000000000000000000000000008152506200013f6000836200028260201b90919060201c565b61012081815250506200015d6001826200028260201b90919060201c565b6101408181525050818051906020012060e08181525050808051906020012061010081815250504660a081815250506200019c620002da60201b60201c565b608081815250503073ffffffffffffffffffffffffffffffffffffffff1660c08173ffffffffffffffffffffffffffffffffffffffff168152505050508160059081620001ea919062000e1f565b508060069081620001fc919062000e1f565b505050600062000212826200033760201b60201c565b9050620002486200023c8262000230617fff6200026660201b60201c565b6200035560201b60201c565b620003f860201b60201c565b6200025a8382620004cb60201b60201c565b50505050505062001260565b60006200027b8260026200057160201b60201c565b9050919050565b6000602083511015620002a857620002a0836200062860201b60201c565b9050620002d4565b82620002ba836200069560201b60201c565b6000019081620002cb919062000e1f565b5060ff60001b90505b92915050565b60007f8b73c3c69bb8fe3d512ecc4cf759cc79239f7b179b0ffacaa9a75d522b39400f60e0516101005146306040516020016200031c95949392919062000f77565b60405160208183030381529060405280519060200120905090565b60006200034e82600001516200069f60201b60201c565b9050919050565b60006200036883620006bb60201b60201c565b62000382576200037f60006200026660201b60201c565b92505b6200039382620006bb60201b60201c565b620003ad57620003aa60006200026660201b60201c565b91505b600083905060008390506000620003ea60028484608073ffffffffffffffffffffffffffffffffffffffff1663eb274b77620006c860201b60201c565b905080935050505092915050565b62000409816200077960201b60201c565b62000423576200042060006200078660201b60201c565b90505b600081905060006200043b82620007a260201b60201c565b9050608073ffffffffffffffffffffffffffffffffffffffff16637d23f1db600d836040518363ffffffff1660e01b81526004016200047c9291906200104f565b600060405180830381865afa1580156200049a573d6000803e3d6000fd5b505050506040513d6000823e3d601f19601f82011682018060405250810190620004c5919062001083565b50505050565b62000516600360008473ffffffffffffffffffffffffffffffffffffffff1673ffffffffffffffffffffffffffffffffffffffff168152602001908152602001600020548262000803565b600360008473ffffffffffffffffffffffffffffffffffffffff1673ffffffffffffffffffffffffffffffffffffffff16815260200190815260200160002081905550620005676002548262000803565b6002819055505050565b60006060608073ffffffffffffffffffffffffffffffffffffffff166319e1c5c4620005a386620007a260201b60201c565b856040518363ffffffff1660e01b8152600401620005c3929190620010d4565b600060405180830381865afa158015620005e1573d6000803e3d6000fd5b505050506040513d6000823e3d601f19601f820116820180604052508101906200060c919062001083565b90506200061f816200081f60201b60201c565b91505092915050565b600080829050601f815111156200067857826040517f305a27a90000000000000000000000000000000000000000000000000000000081526004016200066f91906200115a565b60405180910390fd5b8051816200068690620011a5565b60001c1760001b915050919050565b6000819050919050565b6000620006b48260026200082d60201b60201c565b9050919050565b6000808214159050919050565b60006060838388620006e089620007a260201b60201c565b620006f189620007a260201b60201c565b6040518463ffffffff1660e01b8152600401620007119392919062001215565b600060405180830381865afa1580156200072f573d6000803e3d6000fd5b505050506040513d6000823e3d601f19601f820116820180604052508101906200075a919062001083565b90506200076d81620008d460201b60201c565b91505095945050505050565b6000808214159050919050565b60006200079b82600d6200057160201b60201c565b9050919050565b6060602067ffffffffffffffff811115620007c257620007c1620009ae565b5b6040519080825280601f01601f191660200182016040528015620007f55781602001600182028036833780820191505090505b509050816020820152919050565b6000620008178383620008e260201b60201c565b905092915050565b600060208201519050919050565b60006060608073ffffffffffffffffffffffffffffffffffffffff16635fa55ca784866040518363ffffffff1660e01b81526004016200086f9291906200104f565b600060405180830381865afa1580156200088d573d6000803e3d6000fd5b505050506040513d6000823e3d601f19601f82011682018060405250810190620008b8919062001083565b9050620008cb816200081f60201b60201c565b91505092915050565b600060208201519050919050565b6000620008f583620006bb60201b60201c565b6200090f576200090c60006200026660201b60201c565b92505b6200092082620006bb60201b60201c565b6200093a576200093760006200026660201b60201c565b91505b6000839050600083905060006200097660028484608073ffffffffffffffffffffffffffffffffffffffff16622df619620006c860201b60201c565b905080935050505092915050565b6000604051905090565b600080fd5b600080fd5b600080fd5b6000601f19601f8301169050919050565b7f4e487b7100000000000000000000000000000000000000000000000000000000600052604160045260246000fd5b620009e8826200099d565b810181811067ffffffffffffffff8211171562000a0a5762000a09620009ae565b5b80604052505050565b600062000a1f62000984565b905062000a2d8282620009dd565b919050565b600080fd5b600080fd5b600080fd5b600067ffffffffffffffff82111562000a5f5762000a5e620009ae565b5b62000a6a826200099d565b9050602081019050919050565b60005b8381101562000a9757808201518184015260208101905062000a7a565b60008484015250505050565b600062000aba62000ab48462000a41565b62000a13565b90508281526020810184848401111562000ad95762000ad862000a3c565b5b62000ae684828562000a77565b509392505050565b600082601f83011262000b065762000b0562000a37565b5b815162000b1884826020860162000aa3565b91505092915050565b60006020828403121562000b3a5762000b3962000998565b5b62000b46602062000a13565b9050600082015167ffffffffffffffff81111562000b695762000b6862000a32565b5b62000b778482850162000aee565b60008301525092915050565b60006020828403121562000b9c5762000b9b6200098e565b5b600082015167ffffffffffffffff81111562000bbd5762000bbc62000993565b5b62000bcb8482850162000b21565b91505092915050565b600081519050919050565b7f4e487b7100000000000000000000000000000000000000000000000000000000600052602260045260246000fd5b6000600282049050600182168062000c2757607f821691505b60208210810362000c3d5762000c3c62000bdf565b5b50919050565b60008190508160005260206000209050919050565b60006020601f8301049050919050565b600082821b905092915050565b60006008830262000ca77fffffffffffffffffffffffffffffffffffffffffffffffffffffffffffffffff8262000c68565b62000cb3868362000c68565b95508019841693508086168417925050509392505050565b6000819050919050565b6000819050919050565b600062000d0062000cfa62000cf48462000ccb565b62000cd5565b62000ccb565b9050919050565b6000819050919050565b62000d1c8362000cdf565b62000d3462000d2b8262000d07565b84845462000c75565b825550505050565b600090565b62000d4b62000d3c565b62000d5881848462000d11565b505050565b5b8181101562000d805762000d7460008262000d41565b60018101905062000d5e565b5050565b601f82111562000dcf5762000d998162000c43565b62000da48462000c58565b8101602085101562000db4578190505b62000dcc62000dc38562000c58565b83018262000d5d565b50505b505050565b600082821c905092915050565b600062000df46000198460080262000dd4565b1980831691505092915050565b600062000e0f838362000de1565b9150826002028217905092915050565b62000e2a8262000bd4565b67ffffffffffffffff81111562000e465762000e45620009ae565b5b62000e52825462000c0e565b62000e5f82828562000d84565b600060209050601f83116001811462000e97576000841562000e82578287015190505b62000e8e858262000e01565b86555062000efe565b601f19841662000ea78662000c43565b60005b8281101562000ed15784890151825560018201915060208501945060208101905062000eaa565b8683101562000ef1578489015162000eed601f89168262000de1565b8355505b6001600288020188555050505b505050505050565b6000819050919050565b62000f1b8162000f06565b82525050565b62000f2c8162000ccb565b82525050565b600073ffffffffffffffffffffffffffffffffffffffff82169050919050565b600062000f5f8262000f32565b9050919050565b62000f718162000f52565b82525050565b600060a08201905062000f8e600083018862000f10565b62000f9d602083018762000f10565b62000fac604083018662000f10565b62000fbb606083018562000f21565b62000fca608083018462000f66565b9695505050505050565b600060ff82169050919050565b62000fec8162000fd4565b82525050565b600081519050919050565b600082825260208201905092915050565b60006200101b8262000ff2565b62001027818562000ffd565b93506200103981856020860162000a77565b62001044816200099d565b840191505092915050565b600060408201905062001066600083018562000fe1565b81810360208301526200107a81846200100e565b90509392505050565b6000602082840312156200109c576200109b6200098e565b5b600082015167ffffffffffffffff811115620010bd57620010bc62000993565b5b620010cb8482850162000aee565b91505092915050565b60006040820190508181036000830152620010f081856200100e565b905062001101602083018462000fe1565b9392505050565b600082825260208201905092915050565b6000620011268262000bd4565b62001132818562001108565b93506200114481856020860162000a77565b6200114f816200099d565b840191505092915050565b6000602082019050818103600083015262001176818462001119565b905092915050565b6000819050602082019050919050565b60006200119c825162000f06565b80915050919050565b6000620011b28262000ff2565b82620011be846200117e565b9050620011cb816200118e565b925060208210156200120e57620012097fffffffffffffffffffffffffffffffffffffffffffffffffffffffffffffffff8360200360080262000c68565b831692505b5050919050565b60006060820190506200122c600083018662000fe1565b81810360208301526200124081856200100e565b905081810360408301526200125681846200100e565b9050949350505050565b60805160a05160c05160e05161010051610120516101405161335c620012bb60003960006118f5015260006118ba0152600061217f0152600061215e015260006119ea01526000611a4001526000611a69015261335c6000f3fe608060405234801561001057600080fd5b50600436106101425760003560e01c80637ecebe00116100b8578063a9059cbb1161007c578063a9059cbb146103b9578063af575a00146103e9578063c4224c1914610419578063d505accf14610449578063d918156e14610465578063dd62ed3e1461049557610142565b80637ecebe00146102fb57806384b0196e1461032b5780638624a3491461034f57806395d89b411461037f5780639f284be71461039d57610142565b80633644e5151161010a5780633644e5151461020157806339c217f71461021f5780635356c4291461024f578063602772041461027f5780636e0505e1146102af57806370a08231146102cb57610142565b806306fdde0314610147578063095ea7b31461016557806318160ddd1461019557806323b872dd146101b3578063313ce567146101e3575b600080fd5b61014f6104c5565b60405161015c9190612433565b60405180910390f35b61017f600480360381019061017a91906124fd565b610557565b60405161018c9190612558565b60405180910390f35b61019d6105ab565b6040516101aa9190612582565b60405180910390f35b6101cd60048036038101906101c8919061259d565b6105bd565b6040516101da9190612558565b60405180910390f35b6101eb610692565b6040516101f8919061260c565b60405180910390f35b610209610697565b6040516102169190612640565b60405180910390f35b6102396004803603810190610234919061267f565b610729565b6040516102469190612716565b60405180910390f35b61026960048036038101906102649190612750565b61074e565b6040516102769190612433565b60405180910390f35b61029960048036038101906102949190612983565b6108bf565b6040516102a69190612433565b60405180910390f35b6102c960048036038101906102c49190612a1b565b6109ec565b005b6102e560048036038101906102e09190612a48565b610b01565b6040516102f29190612582565b60405180910390f35b61031560048036038101906103109190612a48565b610b1c565b6040516103229190612582565b60405180910390f35b610333610b37565b6040516103469796959493929190612b7d565b60405180910390f35b61036960048036038101906103649190612c01565b610be1565b6040516103769190612716565b60405180910390f35b610387610c08565b6040516103949190612433565b60405180910390f35b6103b760048036038101906103b29190612a1b565b610c9a565b005b6103d360048036038101906103ce91906124fd565b610da7565b6040516103e09190612558565b60405180910390f35b61040360048036038101906103fe9190612c9c565b610e39565b6040516104109190612716565b60405180910390f35b610433600480360381019061042e9190612cef565b61118f565b6040516104409190612716565b60405180910390f35b610463600480360381019061045e9190612d5b565b611359565b005b61047f600480360381019061047a919061267f565b6114fd565b60405161048c9190612558565b60405180910390f35b6104af60048036038101906104aa9190612dfd565b6115f5565b6040516104bc9190612582565b60405180910390f35b6060600580546104d490612e6c565b80601f016020809104026020016040519081016040528092919081815260200182805461050090612e6c565b801561054d5780601f106105225761010080835404028352916020019161054d565b820191906000526020600020905b81548152906001019060200180831161053057829003601f168201915b5050505050905090565b600082602052637f5e9f20600c5233600052816034600c205581600052602c5160601c337f8c5be1e5ebec7d5bd14f71427d1e84f3dd0314c0f7b2291e5b200ac8c7c3b92560206000a36001905092915050565b60006805345cdf77eb68f44c54905090565b60006105ca848484611615565b8360601b33602052637f5e9f208117600c526034600c20805460018101156106085780851115610602576313be252b6000526004601cfd5b84810382555b6387a211a28317600c526020600c2080548087111561062f5763f4d678b86000526004601cfd5b8681038255876000526020600c2087815401815587602052600c5160601c8660601c7fddf252ad1be2c89b69c2b068fc378daa952ba7f163c4a11628f55a4df523b3ef602080a350505050505061068784848461161a565b600190509392505050565b600090565b6000806106a261161f565b90506000801b81036106c0576106b66104c5565b8051906020012090505b6040517f8b73c3c69bb8fe3d512ecc4cf759cc79239f7b179b0ffacaa9a75d522b39400f81528160208201527fc89efdaa54c0f20c7adf612882df0950f5a951637e0307cdcb4c672f298b8bc6604082015246606082015230608082015260a081209250505090565b6000610746836107418461073c90612ef5565b611624565b61118f565b905092915050565b60608161075a90612f08565b60006107b17f6bdaeb2d29561f159c7ef98b16b27015fb2aeb87209c7ee656226d912f59927d8360000151604051602001610796929190612f1b565b6040516020818303038152906040528051906020012061163a565b905060006107c3828460200151611654565b90503373ffffffffffffffffffffffffffffffffffffffff168173ffffffffffffffffffffffffffffffffffffffff161461082a576040517f3093a27700000000000000000000000000000000000000000000000000000000815260040160405180910390fd5b6108b4600460003373ffffffffffffffffffffffffffffffffffffffff1673ffffffffffffffffffffffffffffffffffffffff16815260200190815260200160002060008873ffffffffffffffffffffffffffffffffffffffff1673ffffffffffffffffffffffffffffffffffffffff168152602001908152602001600020548660000135611680565b935050505092915050565b60608183600061091a7f6bdaeb2d29561f159c7ef98b16b27015fb2aeb87209c7ee656226d912f59927d84600001516040516020016108ff929190612f1b565b6040516020818303038152906040528051906020012061163a565b9050600061092c828560200151611654565b90508273ffffffffffffffffffffffffffffffffffffffff168173ffffffffffffffffffffffffffffffffffffffff1614610993576040517f51c65eae00000000000000000000000000000000000000000000000000000000815260040160405180910390fd5b6109e0600360008973ffffffffffffffffffffffffffffffffffffffff1673ffffffffffffffffffffffffffffffffffffffff168152602001908152602001600020548760000151611680565b94505050505092915050565b6000610a45610a008363ffffffff166116b6565b600360003373ffffffffffffffffffffffffffffffffffffffff1673ffffffffffffffffffffffffffffffffffffffff168152602001908152602001600020546116ca565b9050610a90600360003373ffffffffffffffffffffffffffffffffffffffff1673ffffffffffffffffffffffffffffffffffffffff1681526020019081526020016000205482611743565b600360003373ffffffffffffffffffffffffffffffffffffffff1673ffffffffffffffffffffffffffffffffffffffff16815260200190815260200160002081905550610adf60025482611743565b600281905550610afd33610af283611757565b63ffffffff1661181a565b5050565b60006387a211a2600c52816000526020600c20549050919050565b60006338377508600c52816000526020600c20549050919050565b600060608060008060006060610b4b6118b1565b610b536118ec565b46306000801b600067ffffffffffffffff811115610b7457610b736127b1565b5b604051908082528060200260200182016040528015610ba25781602001602082028036833780820191505090505b507f0f00000000000000000000000000000000000000000000000000000000000000959493929190965096509650965096509650965090919293949596565b6000610bff8484610bfa85610bf590612ef5565b611624565b610e39565b90509392505050565b606060068054610c1790612e6c565b80601f0160208091040260200160405190810160405280929190818152602001828054610c4390612e6c565b8015610c905780601f10610c6557610100808354040283529160200191610c90565b820191906000526020600020905b815481529060010190602001808311610c7357829003601f168201915b5050505050905090565b8063ffffffff16610caa33610b01565b1015610ce2576040517ffda7bbda00000000000000000000000000000000000000000000000000000000815260040160405180910390fd5b610cf2338263ffffffff16611927565b6000610d038263ffffffff166116b6565b9050610d4e600360003373ffffffffffffffffffffffffffffffffffffffff1673ffffffffffffffffffffffffffffffffffffffff16815260200190815260200160002054826119be565b600360003373ffffffffffffffffffffffffffffffffffffffff1673ffffffffffffffffffffffffffffffffffffffff16815260200190815260200160002081905550610d9d600254826119be565b6002819055505050565b6000610db4338484611615565b6387a211a2600c52336000526020600c20805480841115610ddd5763f4d678b86000526004601cfd5b8381038255846000526020600c2084815401815584602052600c5160601c337fddf252ad1be2c89b69c2b068fc378daa952ba7f163c4a11628f55a4df523b3ef602080a3505050610e2f33848461161a565b6001905092915050565b600080610f0a83610f05600360008973ffffffffffffffffffffffffffffffffffffffff1673ffffffffffffffffffffffffffffffffffffffff16815260200190815260200160002054600460008a73ffffffffffffffffffffffffffffffffffffffff1673ffffffffffffffffffffffffffffffffffffffff16815260200190815260200160002060003373ffffffffffffffffffffffffffffffffffffffff1673ffffffffffffffffffffffffffffffffffffffff168152602001908152602001600020546116ca565b6116ca565b9050610f92600460008773ffffffffffffffffffffffffffffffffffffffff1673ffffffffffffffffffffffffffffffffffffffff16815260200190815260200160002060003373ffffffffffffffffffffffffffffffffffffffff1673ffffffffffffffffffffffffffffffffffffffff1681526020019081526020016000205482611743565b600460008773ffffffffffffffffffffffffffffffffffffffff1673ffffffffffffffffffffffffffffffffffffffff16815260200190815260200160002060003373ffffffffffffffffffffffffffffffffffffffff1673ffffffffffffffffffffffffffffffffffffffff1681526020019081526020016000208190555061105b600360008773ffffffffffffffffffffffffffffffffffffffff1673ffffffffffffffffffffffffffffffffffffffff1681526020019081526020016000205482611743565b600360008773ffffffffffffffffffffffffffffffffffffffff1673ffffffffffffffffffffffffffffffffffffffff168152602001908152602001600020819055506110e7600360008673ffffffffffffffffffffffffffffffffffffffff1673ffffffffffffffffffffffffffffffffffffffff16815260200190815260200160002054826119be565b600360008673ffffffffffffffffffffffffffffffffffffffff1673ffffffffffffffffffffffffffffffffffffffff168152602001908152602001600020819055508373ffffffffffffffffffffffffffffffffffffffff168573ffffffffffffffffffffffffffffffffffffffff167f7612539b010127d1a2f810eeff1131de23a28ecfa8228f92a9606a879300fbb560405160405180910390a3809150509392505050565b6000806111db83600360003373ffffffffffffffffffffffffffffffffffffffff1673ffffffffffffffffffffffffffffffffffffffff168152602001908152602001600020546116ca565b9050611226600360003373ffffffffffffffffffffffffffffffffffffffff1673ffffffffffffffffffffffffffffffffffffffff1681526020019081526020016000205482611743565b600360003373ffffffffffffffffffffffffffffffffffffffff1673ffffffffffffffffffffffffffffffffffffffff168152602001908152602001600020819055506112b2600360008673ffffffffffffffffffffffffffffffffffffffff1673ffffffffffffffffffffffffffffffffffffffff16815260200190815260200160002054826119be565b600360008673ffffffffffffffffffffffffffffffffffffffff1673ffffffffffffffffffffffffffffffffffffffff168152602001908152602001600020819055508373ffffffffffffffffffffffffffffffffffffffff163373ffffffffffffffffffffffffffffffffffffffff167f7612539b010127d1a2f810eeff1131de23a28ecfa8228f92a9606a879300fbb560405160405180910390a38091505092915050565b600061136361161f565b90506000801b8103611381576113776104c5565b8051906020012090505b8442111561139757631a15a3cc6000526004601cfd5b6040518860601b60601c98508760601b60601c975065383775081901600e52886000526020600c2080547f8b73c3c69bb8fe3d512ecc4cf759cc79239f7b179b0ffacaa9a75d522b39400f83528360208401527fc89efdaa54c0f20c7adf612882df0950f5a951637e0307cdcb4c672f298b8bc6604084015246606084015230608084015260a08320602e527f6e71edae12b1b97f4d1f60370fef10105fa2faae0126114a169c64845d6126c983528a60208401528960408401528860608401528060808401528760a084015260c08320604e526042602c206000528660ff1660205285604052846060526020806080600060015afa8b3d51146114a35763ddafbaef6000526004601cfd5b80820183558a637f5e9f2060a01b17604052896034602c20558a8c7f8c5be1e5ebec7d5bd14f71427d1e84f3dd0314c0f7b2291e5b200ac8c7c3b925602060608801a3836040526000606052505050505050505050505050565b60006115118261150c90612ef5565b611624565b600460003373ffffffffffffffffffffffffffffffffffffffff1673ffffffffffffffffffffffffffffffffffffffff16815260200190815260200160002060008573ffffffffffffffffffffffffffffffffffffffff1673ffffffffffffffffffffffffffffffffffffffff168152602001908152602001600020819055508273ffffffffffffffffffffffffffffffffffffffff163373ffffffffffffffffffffffffffffffffffffffff167f46f92913a39019d68e630493d23e0cf39761bf253f7b3f8eae384b33e393ed4e60405160405180910390a36001905092915050565b600081602052637f5e9f20600c52826000526034600c2054905092915050565b505050565b505050565b600090565b600061163382600001516119d2565b9050919050565b600061164d6116476119e6565b83611a9d565b9050919050565b6000806000806116648686611ade565b9250925092506116748282611b3a565b82935050505092915050565b606061168b83611c9e565b61169c5761169960006116b6565b92505b60008390506116ad60028285611cab565b91505092915050565b60006116c3826002611d61565b9050919050565b60006116d583611c9e565b6116e6576116e360006116b6565b92505b6116ef82611c9e565b611700576116fd60006116b6565b91505b60008390506000839050600061173560028484608073ffffffffffffffffffffffffffffffffffffffff16635211c679611e03565b905080935050505092915050565b600061174f8383611e97565b905092915050565b600061176282611c9e565b6117735761177060006116b6565b91505b6000829050600061178382611f10565b90506000608073ffffffffffffffffffffffffffffffffffffffff166373cc01546002846040518363ffffffff1660e01b81526004016117c4929190612f99565b602060405180830381865afa1580156117e1573d6000803e3d6000fd5b505050506040513d601f19601f820116820180604052508101906118059190612fde565b905061181081611f6d565b9350505050919050565b61182660008383611615565b6805345cdf77eb68f44c548181018181101561184a5763e5cfe9576000526004601cfd5b806805345cdf77eb68f44c556387a211a2600c52836000526020600c2083815401815583602052600c5160601c60007fddf252ad1be2c89b69c2b068fc378daa952ba7f163c4a11628f55a4df523b3ef602080a35050506118ad6000838361161a565b5050565b60606118e760007f0000000000000000000000000000000000000000000000000000000000000000611f7790919063ffffffff16565b905090565b606061192260017f0000000000000000000000000000000000000000000000000000000000000000611f7790919063ffffffff16565b905090565b61193382600083611615565b6387a211a2600c52816000526020600c2080548083111561195c5763f4d678b86000526004601cfd5b8281038255826805345cdf77eb68f44c54036805345cdf77eb68f44c558260005260008460601b60601c7fddf252ad1be2c89b69c2b068fc378daa952ba7f163c4a11628f55a4df523b3ef60206000a350506119ba8260008361161a565b5050565b60006119ca8383612027565b905092915050565b60006119df82600261209f565b9050919050565b60007f000000000000000000000000000000000000000000000000000000000000000073ffffffffffffffffffffffffffffffffffffffff163073ffffffffffffffffffffffffffffffffffffffff16148015611a6257507f000000000000000000000000000000000000000000000000000000000000000046145b15611a8f577f00000000000000000000000000000000000000000000000000000000000000009050611a9a565b611a97612139565b90505b90565b60006040517f190100000000000000000000000000000000000000000000000000000000000081528360028201528260228201526042812091505092915050565b60008060006041845103611b235760008060006020870151925060408701519150606087015160001a9050611b15888285856121cf565b955095509550505050611b33565b60006002855160001b9250925092505b9250925092565b60006003811115611b4e57611b4d61300b565b5b826003811115611b6157611b6061300b565b5b0315611c9a5760016003811115611b7b57611b7a61300b565b5b826003811115611b8e57611b8d61300b565b5b03611bc5576040517ff645eedf00000000000000000000000000000000000000000000000000000000815260040160405180910390fd5b60026003811115611bd957611bd861300b565b5b826003811115611bec57611beb61300b565b5b03611c31578060001c6040517ffce698f7000000000000000000000000000000000000000000000000000000008152600401611c289190612582565b60405180910390fd5b600380811115611c4457611c4361300b565b5b826003811115611c5757611c5661300b565b5b03611c9957806040517fd78bce0c000000000000000000000000000000000000000000000000000000008152600401611c909190612640565b60405180910390fd5b5b5050565b6000808214159050919050565b6060608073ffffffffffffffffffffffffffffffffffffffff1663a1848ff385611cd486611f10565b85604051602001611ce5919061305b565b6040516020818303038152906040526040518463ffffffff1660e01b8152600401611d1293929190613076565b600060405180830381865afa158015611d2f573d6000803e3d6000fd5b505050506040513d6000823e3d601f19601f82011682018060405250810190611d58919061315c565b90509392505050565b60006060608073ffffffffffffffffffffffffffffffffffffffff166319e1c5c4611d8b86611f10565b856040518363ffffffff1660e01b8152600401611da99291906131a5565b600060405180830381865afa158015611dc6573d6000803e3d6000fd5b505050506040513d6000823e3d601f19601f82011682018060405250810190611def9190613245565b9050611dfa816122c3565b91505092915050565b60006060838388611e1389611f10565b611e1c89611f10565b6040518463ffffffff1660e01b8152600401611e3a93929190613076565b600060405180830381865afa158015611e57573d6000803e3d6000fd5b505050506040513d6000823e3d601f19601f82011682018060405250810190611e809190613245565b9050611e8b816122d1565b91505095945050505050565b6000611ea283611c9e565b611eb357611eb060006116b6565b92505b611ebc82611c9e565b611ecd57611eca60006116b6565b91505b600083905060008390506000611f0260028484608073ffffffffffffffffffffffffffffffffffffffff1663cc2cbeff611e03565b905080935050505092915050565b6060602067ffffffffffffffff811115611f2d57611f2c6127b1565b5b6040519080825280601f01601f191660200182016040528015611f5f5781602001600182028036833780820191505090505b509050816020820152919050565b6000819050919050565b606060ff60001b8314611f9457611f8d836122df565b9050612021565b818054611fa090612e6c565b80601f0160208091040260200160405190810160405280929190818152602001828054611fcc90612e6c565b80156120195780601f10611fee57610100808354040283529160200191612019565b820191906000526020600020905b815481529060010190602001808311611ffc57829003601f168201915b505050505090505b92915050565b600061203283611c9e565b6120435761204060006116b6565b92505b61204c82611c9e565b61205d5761205a60006116b6565b91505b60008390506000839050600061209160028484608073ffffffffffffffffffffffffffffffffffffffff16622df619611e03565b905080935050505092915050565b60006060608073ffffffffffffffffffffffffffffffffffffffff16635fa55ca784866040518363ffffffff1660e01b81526004016120df929190612f99565b600060405180830381865afa1580156120fc573d6000803e3d6000fd5b505050506040513d6000823e3d601f19601f820116820180604052508101906121259190613245565b9050612130816122c3565b91505092915050565b60007f8b73c3c69bb8fe3d512ecc4cf759cc79239f7b179b0ffacaa9a75d522b39400f7f00000000000000000000000000000000000000000000000000000000000000007f000000000000000000000000000000000000000000000000000000000000000046306040516020016121b495949392919061328e565b60405160208183030381529060405280519060200120905090565b60008060007f7fffffffffffffffffffffffffffffff5d576e7357a4501ddfe92f46681b20a08460001c111561220f5760006003859250925092506122b9565b60006001888888886040516000815260200160405260405161223494939291906132e1565b6020604051602081039080840390855afa158015612256573d6000803e3d6000fd5b505050602060405103519050600073ffffffffffffffffffffffffffffffffffffffff168173ffffffffffffffffffffffffffffffffffffffff16036122aa57600060016000801b935093509350506122b9565b8060008060001b935093509350505b9450945094915050565b600060208201519050919050565b600060208201519050919050565b606060006122ec83612353565b90506000602067ffffffffffffffff81111561230b5761230a6127b1565b5b6040519080825280601f01601f19166020018201604052801561233d5781602001600182028036833780820191505090505b5090508181528360208201528092505050919050565b60008060ff8360001c169050601f81111561239a576040517fb3512b0c00000000000000000000000000000000000000000000000000000000815260040160405180910390fd5b80915050919050565b600081519050919050565b600082825260208201905092915050565b60005b838110156123dd5780820151818401526020810190506123c2565b60008484015250505050565b6000601f19601f8301169050919050565b6000612405826123a3565b61240f81856123ae565b935061241f8185602086016123bf565b612428816123e9565b840191505092915050565b6000602082019050818103600083015261244d81846123fa565b905092915050565b6000604051905090565b600080fd5b600080fd5b600073ffffffffffffffffffffffffffffffffffffffff82169050919050565b600061249482612469565b9050919050565b6124a481612489565b81146124af57600080fd5b50565b6000813590506124c18161249b565b92915050565b6000819050919050565b6124da816124c7565b81146124e557600080fd5b50565b6000813590506124f7816124d1565b92915050565b600080604083850312156125145761251361245f565b5b6000612522858286016124b2565b9250506020612533858286016124e8565b9150509250929050565b60008115159050919050565b6125528161253d565b82525050565b600060208201905061256d6000830184612549565b92915050565b61257c816124c7565b82525050565b60006020820190506125976000830184612573565b92915050565b6000806000606084860312156125b6576125b561245f565b5b60006125c4868287016124b2565b93505060206125d5868287016124b2565b92505060406125e6868287016124e8565b9150509250925092565b600060ff82169050919050565b612606816125f0565b82525050565b600060208201905061262160008301846125fd565b92915050565b6000819050919050565b61263a81612627565b82525050565b60006020820190506126556000830184612631565b92915050565b600080fd5b6000602082840312156126765761267561265b565b5b81905092915050565b600080604083850312156126965761269561245f565b5b60006126a4858286016124b2565b925050602083013567ffffffffffffffff8111156126c5576126c4612464565b5b6126d185828601612660565b9150509250929050565b6000819050919050565b60006127006126fb6126f6846124c7565b6126db565b6124c7565b9050919050565b612710816126e5565b82525050565b600060208201905061272b6000830184612707565b92915050565b6000604082840312156127475761274661265b565b5b81905092915050565b600080604083850312156127675761276661245f565b5b6000612775858286016124b2565b925050602083013567ffffffffffffffff81111561279657612795612464565b5b6127a285828601612731565b9150509250929050565b600080fd5b7f4e487b7100000000000000000000000000000000000000000000000000000000600052604160045260246000fd5b6127e9826123e9565b810181811067ffffffffffffffff82111715612808576128076127b1565b5b80604052505050565b600061281b612455565b905061282782826127e0565b919050565b600080fd5b61283a81612627565b811461284557600080fd5b50565b60008135905061285781612831565b92915050565b600080fd5b600080fd5b600067ffffffffffffffff821115612882576128816127b1565b5b61288b826123e9565b9050602081019050919050565b82818337600083830152505050565b60006128ba6128b584612867565b612811565b9050828152602081018484840111156128d6576128d5612862565b5b6128e1848285612898565b509392505050565b600082601f8301126128fe576128fd61285d565b5b813561290e8482602086016128a7565b91505092915050565b60006040828403121561292d5761292c6127ac565b5b6129376040612811565b9050600061294784828501612848565b600083015250602082013567ffffffffffffffff81111561296b5761296a61282c565b5b612977848285016128e9565b60208301525092915050565b6000806040838503121561299a5761299961245f565b5b60006129a8858286016124b2565b925050602083013567ffffffffffffffff8111156129c9576129c8612464565b5b6129d585828601612917565b9150509250929050565b600063ffffffff82169050919050565b6129f8816129df565b8114612a0357600080fd5b50565b600081359050612a15816129ef565b92915050565b600060208284031215612a3157612a3061245f565b5b6000612a3f84828501612a06565b91505092915050565b600060208284031215612a5e57612a5d61245f565b5b6000612a6c848285016124b2565b91505092915050565b60007fff0000000000000000000000000000000000000000000000000000000000000082169050919050565b612aaa81612a75565b82525050565b612ab981612489565b82525050565b600081519050919050565b600082825260208201905092915050565b6000819050602082019050919050565b612af4816124c7565b82525050565b6000612b068383612aeb565b60208301905092915050565b6000602082019050919050565b6000612b2a82612abf565b612b348185612aca565b9350612b3f83612adb565b8060005b83811015612b70578151612b578882612afa565b9750612b6283612b12565b925050600181019050612b43565b5085935050505092915050565b600060e082019050612b92600083018a612aa1565b8181036020830152612ba481896123fa565b90508181036040830152612bb881886123fa565b9050612bc76060830187612573565b612bd46080830186612ab0565b612be160a0830185612631565b81810360c0830152612bf38184612b1f565b905098975050505050505050565b600080600060608486031215612c1a57612c1961245f565b5b6000612c28868287016124b2565b9350506020612c39868287016124b2565b925050604084013567ffffffffffffffff811115612c5a57612c59612464565b5b612c6686828701612660565b9150509250925092565b612c79816124c7565b8114612c8457600080fd5b50565b600081359050612c9681612c70565b92915050565b600080600060608486031215612cb557612cb461245f565b5b6000612cc3868287016124b2565b9350506020612cd4868287016124b2565b9250506040612ce586828701612c87565b9150509250925092565b60008060408385031215612d0657612d0561245f565b5b6000612d14858286016124b2565b9250506020612d2585828601612c87565b9150509250929050565b612d38816125f0565b8114612d4357600080fd5b50565b600081359050612d5581612d2f565b92915050565b600080600080600080600060e0888a031215612d7a57612d7961245f565b5b6000612d888a828b016124b2565b9750506020612d998a828b016124b2565b9650506040612daa8a828b016124e8565b9550506060612dbb8a828b016124e8565b9450506080612dcc8a828b01612d46565b93505060a0612ddd8a828b01612848565b92505060c0612dee8a828b01612848565b91505092959891949750929550565b60008060408385031215612e1457612e1361245f565b5b6000612e22858286016124b2565b9250506020612e33858286016124b2565b9150509250929050565b7f4e487b7100000000000000000000000000000000000000000000000000000000600052602260045260246000fd5b60006002820490506001821680612e8457607f821691505b602082108103612e9757612e96612e3d565b5b50919050565b600060208284031215612eb357612eb26127ac565b5b612ebd6020612811565b9050600082013567ffffffffffffffff811115612edd57612edc61282c565b5b612ee9848285016128e9565b60008301525092915050565b6000612f013683612e9d565b9050919050565b6000612f143683612917565b9050919050565b6000604082019050612f306000830185612631565b612f3d6020830184612631565b9392505050565b600081519050919050565b600082825260208201905092915050565b6000612f6b82612f44565b612f758185612f4f565b9350612f858185602086016123bf565b612f8e816123e9565b840191505092915050565b6000604082019050612fae60008301856125fd565b8181036020830152612fc08184612f60565b90509392505050565b600081519050612fd8816124d1565b92915050565b600060208284031215612ff457612ff361245f565b5b600061300284828501612fc9565b91505092915050565b7f4e487b7100000000000000000000000000000000000000000000000000000000600052602160045260246000fd5b6000819050919050565b61305561305082612627565b61303a565b82525050565b60006130678284613044565b60208201915081905092915050565b600060608201905061308b60008301866125fd565b818103602083015261309d8185612f60565b905081810360408301526130b18184612f60565b9050949350505050565b600067ffffffffffffffff8211156130d6576130d56127b1565b5b6130df826123e9565b9050602081019050919050565b60006130ff6130fa846130bb565b612811565b90508281526020810184848401111561311b5761311a612862565b5b6131268482856123bf565b509392505050565b600082601f8301126131435761314261285d565b5b81516131538482602086016130ec565b91505092915050565b6000602082840312156131725761317161245f565b5b600082015167ffffffffffffffff8111156131905761318f612464565b5b61319c8482850161312e565b91505092915050565b600060408201905081810360008301526131bf8185612f60565b90506131ce60208301846125fd565b9392505050565b60006131e86131e384612867565b612811565b90508281526020810184848401111561320457613203612862565b5b61320f8482856123bf565b509392505050565b600082601f83011261322c5761322b61285d565b5b815161323c8482602086016131d5565b91505092915050565b60006020828403121561325b5761325a61245f565b5b600082015167ffffffffffffffff81111561327957613278612464565b5b61328584828501613217565b91505092915050565b600060a0820190506132a36000830188612631565b6132b06020830187612631565b6132bd6040830186612631565b6132ca6060830185612573565b6132d76080830184612ab0565b9695505050505050565b60006080820190506132f66000830187612631565b61330360208301866125fd565b6133106040830185612631565b61331d6060830184612631565b9594505050505056fea264697066735822122054e0a0f4efb5c65f190b631d1807022c518b43b07919c197c9a86ff1e683e47c64736f6c63430008180033",
  "devdoc": {
    "errors": {
      "AllowanceOverflow()": [
        {
          "details": "The allowance has overflowed."
        }
      ],
      "AllowanceUnderflow()": [
        {
          "details": "The allowance has underflowed."
        }
      ],
      "ECDSAInvalidSignature()": [
        {
          "details": "The signature derives the `address(0)`."
        }
      ],
      "ECDSAInvalidSignatureLength(uint256)": [
        {
          "details": "The signature has an invalid length."
        }
      ],
      "ECDSAInvalidSignatureS(bytes32)": [
        {
          "details": "The signature has an S value that is in the upper half order."
        }
      ],
      "InsufficientAllowance()": [
        {
          "details": "Insufficient allowance."
        }
      ],
      "InsufficientBalance()": [
        {
          "details": "Insufficient balance."
        }
      ],
      "InvalidPermit()": [
        {
          "details": "The permit is invalid."
        }
      ],
      "PermitExpired()": [
        {
          "details": "The permit has expired."
        }
      ],
      "TotalSupplyOverflow()": [
        {
          "details": "The total supply has overflowed."
        }
      ]
    },
    "events": {
      "Approval(address,address,uint256)": {
        "details": "Emitted when `amount` tokens is approved by `owner` to be used by `spender`."
      },
      "ApprovalEncrypted(address,address)": {
        "details": "Emitted when the allowance of a `spender` for an `owner` is set by a call to {approveEncrypted}. `value` is the new allowance."
      },
      "EIP712DomainChanged()": {
        "details": "MAY be emitted to signal that the domain could have changed."
      },
      "Transfer(address,address,uint256)": {
        "details": "Emitted when `amount` tokens is transferred from `from` to `to`."
      },
      "TransferEncrypted(address,address)": {
        "details": "Emitted when `value` tokens are moved from one account (`from`) to another (`to`). Note that `value` may be zero."
      }
    },
    "kind": "dev",
    "methods": {
      "DOMAIN_SEPARATOR()": {
        "details": "Returns the EIP-712 domain separator for the EIP-2612 permit."
      },
      "allowance(address,address)": {
        "details": "Returns the amount of tokens that `spender` can spend on behalf of `owner`."
      },
      "allowanceEncrypted(address,(bytes32,bytes))": {
        "details": "Returns the remaining number of tokens that `spender` will be allowed to spend on behalf of `owner` through {transferFrom}. This is zero by default. This value changes when {approve} or {transferFrom} are called."
      },
      "approve(address,uint256)": {
        "details": "Sets `amount` as the allowance of `spender` over the caller's tokens. Emits a {Approval} event."
      },
      "approveEncrypted(address,(bytes))": {
        "details": "Sets a `value` amount of tokens as the allowance of `spender` over the caller's tokens. Returns a boolean value indicating whether the operation succeeded. IMPORTANT: Beware that changing an allowance with this method brings the risk that someone may use both the old and the new allowance by unfortunate transaction ordering. One possible solution to mitigate this race condition is to first reduce the spender's allowance to 0 and set the desired value afterwards: https://github.com/ethereum/EIPs/issues/20#issuecomment-263524729 Emits an {ApprovalEncrypted} event."
      },
      "balanceOf(address)": {
        "details": "Returns the amount of tokens owned by `owner`."
      },
      "balanceOfEncrypted(address,(bytes32,bytes))": {
        "details": "Returns the value of tokens owned by `account`, sealed and encrypted for the caller."
      },
      "decimals()": {
        "details": "Returns the decimals places of the token."
      },
      "eip712Domain()": {
        "details": "See {IERC-5267}."
      },
      "name()": {
        "details": "Returns the name of the token."
      },
      "nonces(address)": {
        "details": "Returns the current nonce for `owner`. This value is used to compute the signature for EIP-2612 permit."
      },
      "permit(address,address,uint256,uint256,uint8,bytes32,bytes32)": {
        "details": "Sets `value` as the allowance of `spender` over the tokens of `owner`, authorized by a signed approval by `owner`. Emits a {Approval} event."
      },
      "symbol()": {
        "details": "Returns the symbol of the token."
      },
      "totalSupply()": {
        "details": "Returns the amount of tokens in existence."
      },
      "transfer(address,uint256)": {
        "details": "Transfer `amount` tokens from the caller to `to`. Requirements: - `from` must at least have `amount`. Emits a {Transfer} event."
      },
      "transferFrom(address,address,uint256)": {
        "details": "Transfers `amount` tokens from `from` to `to`. Note: Does not update the allowance if it is the maximum uint256 value. Requirements: - `from` must at least have `amount`. - The caller must have at least `amount` of allowance to transfer the tokens of `from`. Emits a {Transfer} event."
      },
      "transferFromEncrypted(address,address,(bytes))": {
        "details": "Moves a `value` amount of tokens from `from` to `to` using the allowance mechanism. `value` is then deducted from the caller's allowance. Returns a boolean value indicating whether the operation succeeded. Emits a {TransferEncrypted} event."
      }
    },
    "version": 1
  },
  "userdoc": {
    "errors": {
      "SignerNotMessageSender()": [
        {
          "notice": "Emitted when the signer is not the message sender"
        }
      ],
      "SignerNotOwner()": [
        {
          "notice": "Emitted when the signer is not the specified owner"
        }
      ]
    },
    "kind": "user",
    "methods": {},
    "version": 1
  },
  "storageLayout": {
    "storage": [
      {
        "astId": 16568,
        "contract": "contracts/tokens/FakeFGZ.sol:FakeFGZ",
        "label": "_nameFallback",
        "offset": 0,
        "slot": "0",
        "type": "t_string_storage"
      },
      {
        "astId": 16570,
        "contract": "contracts/tokens/FakeFGZ.sol:FakeFGZ",
        "label": "_versionFallback",
        "offset": 0,
        "slot": "1",
        "type": "t_string_storage"
      },
      {
        "astId": 18126,
        "contract": "contracts/tokens/FakeFGZ.sol:FakeFGZ",
        "label": "_encTotalSupply",
        "offset": 0,
        "slot": "2",
        "type": "t_userDefinedValueType(euint32)12"
      },
      {
        "astId": 18131,
        "contract": "contracts/tokens/FakeFGZ.sol:FakeFGZ",
        "label": "_encBalanceOf",
        "offset": 0,
        "slot": "3",
        "type": "t_mapping(t_address,t_userDefinedValueType(euint32)12)"
      },
      {
        "astId": 18138,
        "contract": "contracts/tokens/FakeFGZ.sol:FakeFGZ",
        "label": "_encAllowance",
        "offset": 0,
        "slot": "4",
        "type": "t_mapping(t_address,t_mapping(t_address,t_userDefinedValueType(euint32)12))"
      },
      {
        "astId": 18140,
        "contract": "contracts/tokens/FakeFGZ.sol:FakeFGZ",
        "label": "_name",
        "offset": 0,
        "slot": "5",
        "type": "t_string_storage"
      },
      {
        "astId": 18142,
        "contract": "contracts/tokens/FakeFGZ.sol:FakeFGZ",
        "label": "_symbol",
        "offset": 0,
        "slot": "6",
        "type": "t_string_storage"
      }
    ],
    "types": {
      "t_address": {
        "encoding": "inplace",
        "label": "address",
        "numberOfBytes": "20"
      },
      "t_mapping(t_address,t_mapping(t_address,t_userDefinedValueType(euint32)12))": {
        "encoding": "mapping",
        "key": "t_address",
        "label": "mapping(address => mapping(address => euint32))",
        "numberOfBytes": "32",
        "value": "t_mapping(t_address,t_userDefinedValueType(euint32)12)"
      },
      "t_mapping(t_address,t_userDefinedValueType(euint32)12)": {
        "encoding": "mapping",
        "key": "t_address",
        "label": "mapping(address => euint32)",
        "numberOfBytes": "32",
        "value": "t_userDefinedValueType(euint32)12"
      },
      "t_string_storage": {
        "encoding": "bytes",
        "label": "string",
        "numberOfBytes": "32"
      },
      "t_userDefinedValueType(euint32)12": {
        "encoding": "inplace",
        "label": "euint32",
        "numberOfBytes": "32"
      }
    }
  }
}