{
  "address": "0x86b055B3E41e9d50409443b11218Ce00769F8544",
  "abi": [
    {
      "inputs": [
        {
          "components": [
            {
              "internalType": "bytes",
              "name": "data",
              "type": "bytes"
            }
          ],
          "internalType": "struct inEuint32",
          "name": "_initialSupply",
          "type": "tuple"
        }
      ],
      "stateMutability": "nonpayable",
      "type": "constructor"
    },
    {
      "inputs": [],
      "name": "AllowanceOverflow",
      "type": "error"
    },
    {
      "inputs": [],
      "name": "AllowanceUnderflow",
      "type": "error"
    },
    {
      "inputs": [],
      "name": "ECDSAInvalidSignature",
      "type": "error"
    },
    {
      "inputs": [
        {
          "internalType": "uint256",
          "name": "length",
          "type": "uint256"
        }
      ],
      "name": "ECDSAInvalidSignatureLength",
      "type": "error"
    },
    {
      "inputs": [
        {
          "internalType": "bytes32",
          "name": "s",
          "type": "bytes32"
        }
      ],
      "name": "ECDSAInvalidSignatureS",
      "type": "error"
    },
    {
      "inputs": [],
      "name": "ErrorInsufficientFunds",
      "type": "error"
    },
    {
      "inputs": [],
      "name": "InsufficientAllowance",
      "type": "error"
    },
    {
      "inputs": [],
      "name": "InsufficientBalance",
      "type": "error"
    },
    {
      "inputs": [],
      "name": "InvalidPermit",
      "type": "error"
    },
    {
      "inputs": [],
      "name": "InvalidShortString",
      "type": "error"
    },
    {
      "inputs": [],
      "name": "PermitExpired",
      "type": "error"
    },
    {
      "inputs": [],
      "name": "SignerNotMessageSender",
      "type": "error"
    },
    {
      "inputs": [],
      "name": "SignerNotOwner",
      "type": "error"
    },
    {
      "inputs": [
        {
          "internalType": "string",
          "name": "str",
          "type": "string"
        }
      ],
      "name": "StringTooLong",
      "type": "error"
    },
    {
      "inputs": [],
      "name": "TotalSupplyOverflow",
      "type": "error"
    },
    {
      "anonymous": false,
      "inputs": [
        {
          "indexed": true,
          "internalType": "address",
          "name": "owner",
          "type": "address"
        },
        {
          "indexed": true,
          "internalType": "address",
          "name": "spender",
          "type": "address"
        },
        {
          "indexed": false,
          "internalType": "uint256",
          "name": "amount",
          "type": "uint256"
        }
      ],
      "name": "Approval",
      "type": "event"
    },
    {
      "anonymous": false,
      "inputs": [
        {
          "indexed": true,
          "internalType": "address",
          "name": "owner",
          "type": "address"
        },
        {
          "indexed": true,
          "internalType": "address",
          "name": "spender",
          "type": "address"
        }
      ],
      "name": "ApprovalEncrypted",
      "type": "event"
    },
    {
      "anonymous": false,
      "inputs": [],
      "name": "EIP712DomainChanged",
      "type": "event"
    },
    {
      "anonymous": false,
      "inputs": [
        {
          "indexed": true,
          "internalType": "address",
          "name": "from",
          "type": "address"
        },
        {
          "indexed": true,
          "internalType": "address",
          "name": "to",
          "type": "address"
        },
        {
          "indexed": false,
          "internalType": "uint256",
          "name": "amount",
          "type": "uint256"
        }
      ],
      "name": "Transfer",
      "type": "event"
    },
    {
      "anonymous": false,
      "inputs": [
        {
          "indexed": true,
          "internalType": "address",
          "name": "from",
          "type": "address"
        },
        {
          "indexed": true,
          "internalType": "address",
          "name": "to",
          "type": "address"
        }
      ],
      "name": "TransferEncrypted",
      "type": "event"
    },
    {
      "inputs": [],
      "name": "DOMAIN_SEPARATOR",
      "outputs": [
        {
          "internalType": "bytes32",
          "name": "result",
          "type": "bytes32"
        }
      ],
      "stateMutability": "view",
      "type": "function"
    },
    {
      "inputs": [
        {
          "internalType": "address",
          "name": "owner",
          "type": "address"
        },
        {
          "internalType": "address",
          "name": "spender",
          "type": "address"
        }
      ],
      "name": "allowance",
      "outputs": [
        {
          "internalType": "uint256",
          "name": "result",
          "type": "uint256"
        }
      ],
      "stateMutability": "view",
      "type": "function"
    },
    {
      "inputs": [
        {
          "internalType": "address",
          "name": "spender",
          "type": "address"
        },
        {
          "components": [
            {
              "internalType": "bytes32",
              "name": "publicKey",
              "type": "bytes32"
            },
            {
              "internalType": "bytes",
              "name": "signature",
              "type": "bytes"
            }
          ],
          "internalType": "struct Permission",
          "name": "permission",
          "type": "tuple"
        }
      ],
      "name": "allowanceEncrypted",
      "outputs": [
        {
          "internalType": "string",
          "name": "",
          "type": "string"
        }
      ],
      "stateMutability": "view",
      "type": "function"
    },
    {
      "inputs": [
        {
          "internalType": "address",
          "name": "spender",
          "type": "address"
        },
        {
          "internalType": "uint256",
          "name": "amount",
          "type": "uint256"
        }
      ],
      "name": "approve",
      "outputs": [
        {
          "internalType": "bool",
          "name": "",
          "type": "bool"
        }
      ],
      "stateMutability": "nonpayable",
      "type": "function"
    },
    {
      "inputs": [
        {
          "internalType": "address",
          "name": "spender",
          "type": "address"
        },
        {
          "components": [
            {
              "internalType": "bytes",
              "name": "data",
              "type": "bytes"
            }
          ],
          "internalType": "struct inEuint32",
          "name": "value",
          "type": "tuple"
        }
      ],
      "name": "approveEncrypted",
      "outputs": [
        {
          "internalType": "bool",
          "name": "",
          "type": "bool"
        }
      ],
      "stateMutability": "nonpayable",
      "type": "function"
    },
    {
      "inputs": [
        {
          "internalType": "address",
          "name": "owner",
          "type": "address"
        }
      ],
      "name": "balanceOf",
      "outputs": [
        {
          "internalType": "uint256",
          "name": "result",
          "type": "uint256"
        }
      ],
      "stateMutability": "view",
      "type": "function"
    },
    {
      "inputs": [
        {
          "internalType": "address",
          "name": "account",
          "type": "address"
        },
        {
          "components": [
            {
              "internalType": "bytes32",
              "name": "publicKey",
              "type": "bytes32"
            },
            {
              "internalType": "bytes",
              "name": "signature",
              "type": "bytes"
            }
          ],
          "internalType": "struct Permission",
          "name": "auth",
          "type": "tuple"
        }
      ],
      "name": "balanceOfEncrypted",
      "outputs": [
        {
          "internalType": "string",
          "name": "",
          "type": "string"
        }
      ],
      "stateMutability": "view",
      "type": "function"
    },
    {
      "inputs": [],
      "name": "decimals",
      "outputs": [
        {
          "internalType": "uint8",
          "name": "",
          "type": "uint8"
        }
      ],
      "stateMutability": "pure",
      "type": "function"
    },
    {
      "inputs": [],
      "name": "eip712Domain",
      "outputs": [
        {
          "internalType": "bytes1",
          "name": "fields",
          "type": "bytes1"
        },
        {
          "internalType": "string",
          "name": "name",
          "type": "string"
        },
        {
          "internalType": "string",
          "name": "version",
          "type": "string"
        },
        {
          "internalType": "uint256",
          "name": "chainId",
          "type": "uint256"
        },
        {
          "internalType": "address",
          "name": "verifyingContract",
          "type": "address"
        },
        {
          "internalType": "bytes32",
          "name": "salt",
          "type": "bytes32"
        },
        {
          "internalType": "uint256[]",
          "name": "extensions",
          "type": "uint256[]"
        }
      ],
      "stateMutability": "view",
      "type": "function"
    },
    {
      "inputs": [],
      "name": "name",
      "outputs": [
        {
          "internalType": "string",
          "name": "",
          "type": "string"
        }
      ],
      "stateMutability": "view",
      "type": "function"
    },
    {
      "inputs": [
        {
          "internalType": "address",
          "name": "owner",
          "type": "address"
        }
      ],
      "name": "nonces",
      "outputs": [
        {
          "internalType": "uint256",
          "name": "result",
          "type": "uint256"
        }
      ],
      "stateMutability": "view",
      "type": "function"
    },
    {
      "inputs": [
        {
          "internalType": "address",
          "name": "owner",
          "type": "address"
        },
        {
          "internalType": "address",
          "name": "spender",
          "type": "address"
        },
        {
          "internalType": "uint256",
          "name": "value",
          "type": "uint256"
        },
        {
          "internalType": "uint256",
          "name": "deadline",
          "type": "uint256"
        },
        {
          "internalType": "uint8",
          "name": "v",
          "type": "uint8"
        },
        {
          "internalType": "bytes32",
          "name": "r",
          "type": "bytes32"
        },
        {
          "internalType": "bytes32",
          "name": "s",
          "type": "bytes32"
        }
      ],
      "name": "permit",
      "outputs": [],
      "stateMutability": "nonpayable",
      "type": "function"
    },
    {
      "inputs": [],
      "name": "symbol",
      "outputs": [
        {
          "internalType": "string",
          "name": "",
          "type": "string"
        }
      ],
      "stateMutability": "view",
      "type": "function"
    },
    {
      "inputs": [],
      "name": "totalSupply",
      "outputs": [
        {
          "internalType": "uint256",
          "name": "result",
          "type": "uint256"
        }
      ],
      "stateMutability": "view",
      "type": "function"
    },
    {
      "inputs": [
        {
          "internalType": "address",
          "name": "to",
          "type": "address"
        },
        {
          "internalType": "uint256",
          "name": "amount",
          "type": "uint256"
        }
      ],
      "name": "transfer",
      "outputs": [
        {
          "internalType": "bool",
          "name": "",
          "type": "bool"
        }
      ],
      "stateMutability": "nonpayable",
      "type": "function"
    },
    {
      "inputs": [
        {
          "internalType": "address",
          "name": "to",
          "type": "address"
        },
        {
          "components": [
            {
              "internalType": "bytes",
              "name": "data",
              "type": "bytes"
            }
          ],
          "internalType": "struct inEuint32",
          "name": "encryptedAmount",
          "type": "tuple"
        }
      ],
      "name": "transferEncrypted",
      "outputs": [
        {
          "internalType": "euint32",
          "name": "",
          "type": "uint256"
        }
      ],
      "stateMutability": "nonpayable",
      "type": "function"
    },
    {
      "inputs": [
        {
          "internalType": "address",
          "name": "to",
          "type": "address"
        },
        {
          "internalType": "euint32",
          "name": "amount",
          "type": "uint256"
        }
      ],
      "name": "transferEncrypted",
      "outputs": [
        {
          "internalType": "euint32",
          "name": "",
          "type": "uint256"
        }
      ],
      "stateMutability": "nonpayable",
      "type": "function"
    },
    {
      "inputs": [
        {
          "internalType": "address",
          "name": "from",
          "type": "address"
        },
        {
          "internalType": "address",
          "name": "to",
          "type": "address"
        },
        {
          "internalType": "uint256",
          "name": "amount",
          "type": "uint256"
        }
      ],
      "name": "transferFrom",
      "outputs": [
        {
          "internalType": "bool",
          "name": "",
          "type": "bool"
        }
      ],
      "stateMutability": "nonpayable",
      "type": "function"
    },
    {
      "inputs": [
        {
          "internalType": "address",
          "name": "from",
          "type": "address"
        },
        {
          "internalType": "address",
          "name": "to",
          "type": "address"
        },
        {
          "components": [
            {
              "internalType": "bytes",
              "name": "data",
              "type": "bytes"
            }
          ],
          "internalType": "struct inEuint32",
          "name": "value",
          "type": "tuple"
        }
      ],
      "name": "transferFromEncrypted",
      "outputs": [
        {
          "internalType": "euint32",
          "name": "",
          "type": "uint256"
        }
      ],
      "stateMutability": "nonpayable",
      "type": "function"
    },
    {
      "inputs": [
        {
          "internalType": "address",
          "name": "from",
          "type": "address"
        },
        {
          "internalType": "address",
          "name": "to",
          "type": "address"
        },
        {
          "internalType": "euint32",
          "name": "value",
          "type": "uint256"
        }
      ],
      "name": "transferFromEncrypted",
      "outputs": [
        {
          "internalType": "euint32",
          "name": "",
          "type": "uint256"
        }
      ],
      "stateMutability": "nonpayable",
      "type": "function"
    },
    {
      "inputs": [
        {
          "internalType": "uint32",
          "name": "amount",
          "type": "uint32"
        }
      ],
      "name": "unwrap",
      "outputs": [],
      "stateMutability": "nonpayable",
      "type": "function"
    },
    {
      "inputs": [
        {
          "internalType": "uint32",
          "name": "amount",
          "type": "uint32"
        }
      ],
      "name": "wrap",
      "outputs": [],
      "stateMutability": "nonpayable",
      "type": "function"
    }
  ],
  "transactionHash": "0x631aa623b7da5653186eeb03966c1752b8274aa488ab0b903b0380e0bf0c97fc",
  "args": [
    {
      "data": {
        "0": 16,
        "1": 8,
        "2": 0,
        "3": 0,
        "4": 0,
        "5": 0,
        "6": 0,
        "7": 0,
        "8": 23,
        "9": 99,
        "10": 241,
        "11": 40,
        "12": 201,
        "13": 152,
        "14": 92,
        "15": 10,
        "16": 253,
        "17": 21,
        "18": 220,
        "19": 131,
        "20": 25,
        "21": 29,
        "22": 54,
        "23": 75,
        "24": 41,
        "25": 58,
        "26": 191,
        "27": 216,
        "28": 130,
        "29": 24,
        "30": 175,
        "31": 132,
        "32": 29,
        "33": 254,
        "34": 183,
        "35": 102,
        "36": 8,
        "37": 240,
        "38": 37,
        "39": 133,
        "40": 194,
        "41": 46,
        "42": 227,
        "43": 130,
        "44": 176,
        "45": 28,
        "46": 163,
        "47": 110,
        "48": 88,
        "49": 208,
        "50": 161,
        "51": 167,
        "52": 203,
        "53": 67,
        "54": 115,
        "55": 121,
        "56": 17,
        "57": 183,
        "58": 226,
        "59": 119,
        "60": 187,
        "61": 180,
        "62": 158,
        "63": 133,
        "64": 128,
        "65": 168,
        "66": 45,
        "67": 159,
        "68": 202,
        "69": 112,
        "70": 106,
        "71": 104,
        "72": 69,
        "73": 123,
        "74": 51,
        "75": 218,
        "76": 120,
        "77": 234,
        "78": 35,
        "79": 113,
        "80": 76,
        "81": 63,
        "82": 179,
        "83": 178,
        "84": 201,
        "85": 140,
        "86": 211,
        "87": 142,
        "88": 188,
        "89": 126,
        "90": 28,
        "91": 224,
        "92": 179,
        "93": 157,
        "94": 114,
        "95": 111,
        "96": 202,
        "97": 101,
        "98": 225,
        "99": 113,
        "100": 198,
        "101": 14,
        "102": 139,
        "103": 250,
        "104": 45,
        "105": 176,
        "106": 153,
        "107": 175,
        "108": 106,
        "109": 23,
        "110": 187,
        "111": 232,
        "112": 202,
        "113": 228,
        "114": 242,
        "115": 74,
        "116": 109,
        "117": 57,
        "118": 64,
        "119": 132,
        "120": 114,
        "121": 233,
        "122": 69,
        "123": 68,
        "124": 204,
        "125": 75,
        "126": 91,
        "127": 173,
        "128": 190,
        "129": 162,
        "130": 174,
        "131": 54,
        "132": 177,
        "133": 201,
        "134": 153,
        "135": 49,
        "136": 7,
        "137": 220,
        "138": 235,
        "139": 120,
        "140": 72,
        "141": 60,
        "142": 111,
        "143": 133,
        "144": 112,
        "145": 114,
        "146": 142,
        "147": 127,
        "148": 181,
        "149": 115,
        "150": 58,
        "151": 76,
        "152": 249,
        "153": 3,
        "154": 66,
        "155": 145,
        "156": 49,
        "157": 63,
        "158": 233,
        "159": 211,
        "160": 93,
        "161": 54,
        "162": 172,
        "163": 33,
        "164": 194,
        "165": 209,
        "166": 154,
        "167": 109,
        "168": 123,
        "169": 92,
        "170": 234,
        "171": 64,
        "172": 233,
        "173": 173,
        "174": 198,
        "175": 100,
        "176": 107,
        "177": 207,
        "178": 28,
        "179": 255,
        "180": 166,
        "181": 80,
        "182": 226,
        "183": 156,
        "184": 58,
        "185": 59,
        "186": 194,
        "187": 208,
        "188": 171,
        "189": 83,
        "190": 36,
        "191": 213,
        "192": 144,
        "193": 238,
        "194": 230,
        "195": 24,
        "196": 57,
        "197": 238,
        "198": 134,
        "199": 243,
        "200": 58,
        "201": 174,
        "202": 95,
        "203": 102,
        "204": 192,
        "205": 25,
        "206": 60,
        "207": 226,
        "208": 42,
        "209": 192,
        "210": 135,
        "211": 217,
        "212": 93,
        "213": 224,
        "214": 70,
        "215": 222,
        "216": 47,
        "217": 254,
        "218": 82,
        "219": 196,
        "220": 120,
        "221": 94,
        "222": 138,
        "223": 225,
        "224": 83,
        "225": 47,
        "226": 224,
        "227": 172,
        "228": 185,
        "229": 127,
        "230": 69,
        "231": 244,
        "232": 143,
        "233": 186,
        "234": 47,
        "235": 183,
        "236": 24,
        "237": 249,
        "238": 216,
        "239": 124,
        "240": 210,
        "241": 128,
        "242": 125,
        "243": 12,
        "244": 90,
        "245": 183,
        "246": 153,
        "247": 156,
        "248": 135,
        "249": 248,
        "250": 45,
        "251": 85,
        "252": 192,
        "253": 166,
        "254": 92,
        "255": 103,
        "256": 15,
        "257": 66,
        "258": 83,
        "259": 219,
        "260": 56,
        "261": 184,
        "262": 26,
        "263": 9,
        "264": 23,
        "265": 64,
        "266": 57,
        "267": 222,
        "268": 120,
        "269": 77,
        "270": 16,
        "271": 107,
        "272": 9,
        "273": 126,
        "274": 39,
        "275": 32,
        "276": 143,
        "277": 209,
        "278": 122,
        "279": 102,
        "280": 250,
        "281": 54,
        "282": 92,
        "283": 218,
        "284": 39,
        "285": 174,
        "286": 69,
        "287": 143,
        "288": 101,
        "289": 115,
        "290": 66,
        "291": 181,
        "292": 44,
        "293": 194,
        "294": 238,
        "295": 225,
        "296": 61,
        "297": 85,
        "298": 33,
        "299": 85,
        "300": 202,
        "301": 165,
        "302": 24,
        "303": 119,
        "304": 157,
        "305": 24,
        "306": 61,
        "307": 89,
        "308": 78,
        "309": 18,
        "310": 65,
        "311": 67,
        "312": 131,
        "313": 14,
        "314": 68,
        "315": 3,
        "316": 242,
        "317": 189,
        "318": 193,
        "319": 250,
        "320": 108,
        "321": 225,
        "322": 254,
        "323": 160,
        "324": 139,
        "325": 89,
        "326": 70,
        "327": 206,
        "328": 102,
        "329": 218,
        "330": 180,
        "331": 151,
        "332": 100,
        "333": 172,
        "334": 187,
        "335": 21,
        "336": 230,
        "337": 159,
        "338": 112,
        "339": 240,
        "340": 194,
        "341": 11,
        "342": 33,
        "343": 8,
        "344": 1,
        "345": 222,
        "346": 169,
        "347": 90,
        "348": 42,
        "349": 37,
        "350": 13,
        "351": 247,
        "352": 105,
        "353": 49,
        "354": 226,
        "355": 2,
        "356": 111,
        "357": 36,
        "358": 128,
        "359": 60,
        "360": 73,
        "361": 200,
        "362": 5,
        "363": 132,
        "364": 44,
        "365": 45,
        "366": 165,
        "367": 157,
        "368": 204,
        "369": 73,
        "370": 48,
        "371": 150,
        "372": 88,
        "373": 253,
        "374": 142,
        "375": 240,
        "376": 247,
        "377": 217,
        "378": 146,
        "379": 15,
        "380": 136,
        "381": 202,
        "382": 108,
        "383": 57,
        "384": 27,
        "385": 2,
        "386": 39,
        "387": 23,
        "388": 161,
        "389": 253,
        "390": 166,
        "391": 191,
        "392": 154,
        "393": 58,
        "394": 55,
        "395": 138,
        "396": 18,
        "397": 92,
        "398": 63,
        "399": 122,
        "400": 74,
        "401": 35,
        "402": 60,
        "403": 11,
        "404": 212,
        "405": 10,
        "406": 13,
        "407": 156,
        "408": 121,
        "409": 96,
        "410": 229,
        "411": 53,
        "412": 182,
        "413": 248,
        "414": 104,
        "415": 151,
        "416": 40,
        "417": 53,
        "418": 249,
        "419": 91,
        "420": 144,
        "421": 178,
        "422": 143,
        "423": 159,
        "424": 185,
        "425": 17,
        "426": 237,
        "427": 175,
        "428": 42,
        "429": 137,
        "430": 219,
        "431": 49,
        "432": 170,
        "433": 98,
        "434": 218,
        "435": 0,
        "436": 243,
        "437": 145,
        "438": 197,
        "439": 119,
        "440": 224,
        "441": 155,
        "442": 60,
        "443": 241,
        "444": 217,
        "445": 86,
        "446": 230,
        "447": 26,
        "448": 36,
        "449": 161,
        "450": 184,
        "451": 228,
        "452": 86,
        "453": 37,
        "454": 3,
        "455": 81,
        "456": 99,
        "457": 220,
        "458": 198,
        "459": 106,
        "460": 187,
        "461": 20,
        "462": 126,
        "463": 96,
        "464": 50,
        "465": 245,
        "466": 30,
        "467": 167,
        "468": 226,
        "469": 122,
        "470": 204,
        "471": 205,
        "472": 189,
        "473": 165,
        "474": 54,
        "475": 28,
        "476": 190,
        "477": 191,
        "478": 17,
        "479": 167,
        "480": 98,
        "481": 121,
        "482": 52,
        "483": 68,
        "484": 96,
        "485": 83,
        "486": 44,
        "487": 180,
        "488": 102,
        "489": 250,
        "490": 138,
        "491": 56,
        "492": 242,
        "493": 183,
        "494": 239,
        "495": 183,
        "496": 155,
        "497": 75,
        "498": 205,
        "499": 184,
        "500": 207,
        "501": 192,
        "502": 8,
        "503": 152,
        "504": 218,
        "505": 18,
        "506": 109,
        "507": 143,
        "508": 142,
        "509": 173,
        "510": 69,
        "511": 134,
        "512": 7,
        "513": 47,
        "514": 196,
        "515": 117,
        "516": 228,
        "517": 31,
        "518": 171,
        "519": 21,
        "520": 12,
        "521": 57,
        "522": 253,
        "523": 211,
        "524": 65,
        "525": 38,
        "526": 34,
        "527": 170,
        "528": 39,
        "529": 80,
        "530": 1,
        "531": 250,
        "532": 87,
        "533": 65,
        "534": 14,
        "535": 235,
        "536": 229,
        "537": 208,
        "538": 197,
        "539": 142,
        "540": 157,
        "541": 68,
        "542": 12,
        "543": 108,
        "544": 139,
        "545": 19,
        "546": 49,
        "547": 159,
        "548": 119,
        "549": 215,
        "550": 57,
        "551": 44,
        "552": 143,
        "553": 18,
        "554": 189,
        "555": 120,
        "556": 185,
        "557": 154,
        "558": 99,
        "559": 180,
        "560": 15,
        "561": 208,
        "562": 85,
        "563": 176,
        "564": 105,
        "565": 118,
        "566": 179,
        "567": 147,
        "568": 245,
        "569": 129,
        "570": 76,
        "571": 93,
        "572": 26,
        "573": 26,
        "574": 96,
        "575": 21,
        "576": 135,
        "577": 226,
        "578": 79,
        "579": 26,
        "580": 39,
        "581": 105,
        "582": 226,
        "583": 209,
        "584": 5,
        "585": 161,
        "586": 17,
        "587": 214,
        "588": 177,
        "589": 137,
        "590": 74,
        "591": 45,
        "592": 108,
        "593": 60,
        "594": 191,
        "595": 125,
        "596": 190,
        "597": 112,
        "598": 191,
        "599": 186,
        "600": 205,
        "601": 221,
        "602": 99,
        "603": 220,
        "604": 2,
        "605": 247,
        "606": 53,
        "607": 100,
        "608": 205,
        "609": 206,
        "610": 220,
        "611": 246,
        "612": 64,
        "613": 246,
        "614": 214,
        "615": 103,
        "616": 192,
        "617": 174,
        "618": 2,
        "619": 214,
        "620": 64,
        "621": 94,
        "622": 11,
        "623": 117,
        "624": 61,
        "625": 9,
        "626": 99,
        "627": 212,
        "628": 144,
        "629": 179,
        "630": 132,
        "631": 122,
        "632": 238,
        "633": 170,
        "634": 195,
        "635": 239,
        "636": 88,
        "637": 244,
        "638": 5,
        "639": 206,
        "640": 236,
        "641": 205,
        "642": 59,
        "643": 39,
        "644": 119,
        "645": 161,
        "646": 243,
        "647": 153,
        "648": 86,
        "649": 127,
        "650": 69,
        "651": 151,
        "652": 86,
        "653": 71,
        "654": 137,
        "655": 76,
        "656": 141,
        "657": 216,
        "658": 70,
        "659": 199,
        "660": 143,
        "661": 140,
        "662": 59,
        "663": 111,
        "664": 154,
        "665": 59,
        "666": 181,
        "667": 107,
        "668": 203,
        "669": 194,
        "670": 52,
        "671": 226,
        "672": 153,
        "673": 175,
        "674": 60,
        "675": 248,
        "676": 195,
        "677": 223,
        "678": 180,
        "679": 196,
        "680": 29,
        "681": 167,
        "682": 75,
        "683": 100,
        "684": 178,
        "685": 47,
        "686": 170,
        "687": 228,
        "688": 196,
        "689": 2,
        "690": 61,
        "691": 178,
        "692": 198,
        "693": 158,
        "694": 125,
        "695": 224,
        "696": 26,
        "697": 141,
        "698": 59,
        "699": 95,
        "700": 17,
        "701": 128,
        "702": 230,
        "703": 92,
        "704": 112,
        "705": 228,
        "706": 64,
        "707": 13,
        "708": 107,
        "709": 1,
        "710": 144,
        "711": 192,
        "712": 224,
        "713": 43,
        "714": 213,
        "715": 182,
        "716": 29,
        "717": 215,
        "718": 38,
        "719": 148,
        "720": 122,
        "721": 83,
        "722": 110,
        "723": 130,
        "724": 190,
        "725": 62,
        "726": 130,
        "727": 79,
        "728": 201,
        "729": 100,
        "730": 153,
        "731": 113,
        "732": 108,
        "733": 8,
        "734": 241,
        "735": 62,
        "736": 164,
        "737": 6,
        "738": 254,
        "739": 10,
        "740": 202,
        "741": 97,
        "742": 115,
        "743": 30,
        "744": 84,
        "745": 148,
        "746": 255,
        "747": 77,
        "748": 251,
        "749": 150,
        "750": 110,
        "751": 180,
        "752": 32,
        "753": 191,
        "754": 150,
        "755": 120,
        "756": 228,
        "757": 21,
        "758": 39,
        "759": 41,
        "760": 8,
        "761": 103,
        "762": 11,
        "763": 96,
        "764": 47,
        "765": 225,
        "766": 139,
        "767": 28,
        "768": 233,
        "769": 194,
        "770": 5,
        "771": 159,
        "772": 181,
        "773": 124,
        "774": 172,
        "775": 74,
        "776": 164,
        "777": 103,
        "778": 164,
        "779": 139,
        "780": 210,
        "781": 94,
        "782": 251,
        "783": 113,
        "784": 255,
        "785": 112,
        "786": 42,
        "787": 183,
        "788": 186,
        "789": 149,
        "790": 152,
        "791": 163,
        "792": 34,
        "793": 82,
        "794": 143,
        "795": 20,
        "796": 128,
        "797": 37,
        "798": 143,
        "799": 203,
        "800": 8,
        "801": 5,
        "802": 244,
        "803": 248,
        "804": 249,
        "805": 171,
        "806": 212,
        "807": 254,
        "808": 198,
        "809": 160,
        "810": 76,
        "811": 213,
        "812": 25,
        "813": 13,
        "814": 241,
        "815": 201,
        "816": 199,
        "817": 8,
        "818": 189,
        "819": 199,
        "820": 112,
        "821": 94,
        "822": 220,
        "823": 51,
        "824": 121,
        "825": 204,
        "826": 84,
        "827": 234,
        "828": 53,
        "829": 222,
        "830": 108,
        "831": 123,
        "832": 207,
        "833": 26,
        "834": 86,
        "835": 6,
        "836": 142,
        "837": 240,
        "838": 17,
        "839": 1,
        "840": 88,
        "841": 175,
        "842": 201,
        "843": 156,
        "844": 231,
        "845": 251,
        "846": 120,
        "847": 3,
        "848": 252,
        "849": 19,
        "850": 187,
        "851": 137,
        "852": 215,
        "853": 77,
        "854": 241,
        "855": 166,
        "856": 226,
        "857": 168,
        "858": 187,
        "859": 60,
        "860": 99,
        "861": 88,
        "862": 232,
        "863": 198,
        "864": 233,
        "865": 81,
        "866": 203,
        "867": 139,
        "868": 53,
        "869": 58,
        "870": 198,
        "871": 60,
        "872": 33,
        "873": 85,
        "874": 2,
        "875": 19,
        "876": 112,
        "877": 154,
        "878": 58,
        "879": 164,
        "880": 153,
        "881": 47,
        "882": 94,
        "883": 101,
        "884": 24,
        "885": 159,
        "886": 196,
        "887": 92,
        "888": 225,
        "889": 48,
        "890": 52,
        "891": 117,
        "892": 194,
        "893": 71,
        "894": 60,
        "895": 210,
        "896": 89,
        "897": 148,
        "898": 227,
        "899": 32,
        "900": 131,
        "901": 30,
        "902": 246,
        "903": 131,
        "904": 67,
        "905": 196,
        "906": 77,
        "907": 171,
        "908": 183,
        "909": 62,
        "910": 8,
        "911": 42,
        "912": 6,
        "913": 173,
        "914": 202,
        "915": 13,
        "916": 169,
        "917": 7,
        "918": 3,
        "919": 177,
        "920": 190,
        "921": 51,
        "922": 38,
        "923": 182,
        "924": 72,
        "925": 21,
        "926": 251,
        "927": 24,
        "928": 101,
        "929": 0,
        "930": 15,
        "931": 136,
        "932": 222,
        "933": 187,
        "934": 49,
        "935": 60,
        "936": 89,
        "937": 143,
        "938": 143,
        "939": 115,
        "940": 70,
        "941": 178,
        "942": 211,
        "943": 198,
        "944": 83,
        "945": 0,
        "946": 193,
        "947": 81,
        "948": 161,
        "949": 83,
        "950": 113,
        "951": 197,
        "952": 167,
        "953": 22,
        "954": 19,
        "955": 83,
        "956": 101,
        "957": 210,
        "958": 106,
        "959": 111,
        "960": 41,
        "961": 154,
        "962": 205,
        "963": 149,
        "964": 191,
        "965": 211,
        "966": 137,
        "967": 239,
        "968": 42,
        "969": 55,
        "970": 241,
        "971": 118,
        "972": 44,
        "973": 243,
        "974": 163,
        "975": 195,
        "976": 104,
        "977": 74,
        "978": 154,
        "979": 59,
        "980": 252,
        "981": 197,
        "982": 7,
        "983": 203,
        "984": 62,
        "985": 122,
        "986": 78,
        "987": 81,
        "988": 59,
        "989": 1,
        "990": 219,
        "991": 77,
        "992": 86,
        "993": 13,
        "994": 161,
        "995": 194,
        "996": 193,
        "997": 217,
        "998": 74,
        "999": 76,
        "1000": 43,
        "1001": 80,
        "1002": 156,
        "1003": 156,
        "1004": 139,
        "1005": 240,
        "1006": 56,
        "1007": 205,
        "1008": 102,
        "1009": 154,
        "1010": 179,
        "1011": 32,
        "1012": 43,
        "1013": 208,
        "1014": 126,
        "1015": 248,
        "1016": 74,
        "1017": 245,
        "1018": 253,
        "1019": 167,
        "1020": 85,
        "1021": 30,
        "1022": 169,
        "1023": 45,
        "1024": 15,
        "1025": 223,
        "1026": 148,
        "1027": 15,
        "1028": 168,
        "1029": 167,
        "1030": 59,
        "1031": 84,
        "1032": 201,
        "1033": 217,
        "1034": 116,
        "1035": 59,
        "1036": 145,
        "1037": 106,
        "1038": 1,
        "1039": 119,
        "1040": 239,
        "1041": 125,
        "1042": 74,
        "1043": 153,
        "1044": 234,
        "1045": 160,
        "1046": 233,
        "1047": 162,
        "1048": 104,
        "1049": 58,
        "1050": 11,
        "1051": 36,
        "1052": 180,
        "1053": 10,
        "1054": 30,
        "1055": 111,
        "1056": 43,
        "1057": 96,
        "1058": 133,
        "1059": 13,
        "1060": 80,
        "1061": 48,
        "1062": 225,
        "1063": 209,
        "1064": 175,
        "1065": 7,
        "1066": 64,
        "1067": 84,
        "1068": 170,
        "1069": 106,
        "1070": 152,
        "1071": 54,
        "1072": 170,
        "1073": 23,
        "1074": 179,
        "1075": 201,
        "1076": 245,
        "1077": 212,
        "1078": 142,
        "1079": 184,
        "1080": 255,
        "1081": 177,
        "1082": 70,
        "1083": 74,
        "1084": 176,
        "1085": 7,
        "1086": 144,
        "1087": 113,
        "1088": 131,
        "1089": 6,
        "1090": 204,
        "1091": 153,
        "1092": 30,
        "1093": 240,
        "1094": 146,
        "1095": 147,
        "1096": 157,
        "1097": 129,
        "1098": 12,
        "1099": 226,
        "1100": 69,
        "1101": 255,
        "1102": 78,
        "1103": 68,
        "1104": 112,
        "1105": 144,
        "1106": 131,
        "1107": 75,
        "1108": 179,
        "1109": 123,
        "1110": 60,
        "1111": 138,
        "1112": 132,
        "1113": 62,
        "1114": 164,
        "1115": 43,
        "1116": 168,
        "1117": 91,
        "1118": 23,
        "1119": 141,
        "1120": 88,
        "1121": 193,
        "1122": 123,
        "1123": 91,
        "1124": 123,
        "1125": 221,
        "1126": 84,
        "1127": 2,
        "1128": 23,
        "1129": 2,
        "1130": 83,
        "1131": 213,
        "1132": 230,
        "1133": 231,
        "1134": 242,
        "1135": 90,
        "1136": 222,
        "1137": 87,
        "1138": 133,
        "1139": 242,
        "1140": 104,
        "1141": 238,
        "1142": 220,
        "1143": 100,
        "1144": 221,
        "1145": 217,
        "1146": 53,
        "1147": 69,
        "1148": 54,
        "1149": 176,
        "1150": 120,
        "1151": 194,
        "1152": 90,
        "1153": 172,
        "1154": 88,
        "1155": 177,
        "1156": 142,
        "1157": 144,
        "1158": 143,
        "1159": 207,
        "1160": 213,
        "1161": 219,
        "1162": 170,
        "1163": 173,
        "1164": 52,
        "1165": 38,
        "1166": 80,
        "1167": 144,
        "1168": 195,
        "1169": 88,
        "1170": 148,
        "1171": 56,
        "1172": 62,
        "1173": 198,
        "1174": 101,
        "1175": 143,
        "1176": 37,
        "1177": 6,
        "1178": 212,
        "1179": 117,
        "1180": 59,
        "1181": 220,
        "1182": 89,
        "1183": 84,
        "1184": 69,
        "1185": 30,
        "1186": 183,
        "1187": 77,
        "1188": 106,
        "1189": 101,
        "1190": 125,
        "1191": 227,
        "1192": 119,
        "1193": 0,
        "1194": 62,
        "1195": 132,
        "1196": 177,
        "1197": 225,
        "1198": 244,
        "1199": 209,
        "1200": 220,
        "1201": 65,
        "1202": 153,
        "1203": 170,
        "1204": 35,
        "1205": 53,
        "1206": 229,
        "1207": 157,
        "1208": 129,
        "1209": 200,
        "1210": 215,
        "1211": 35,
        "1212": 109,
        "1213": 21,
        "1214": 139,
        "1215": 8,
        "1216": 185,
        "1217": 86,
        "1218": 110,
        "1219": 136,
        "1220": 105,
        "1221": 213,
        "1222": 196,
        "1223": 93,
        "1224": 118,
        "1225": 8,
        "1226": 224,
        "1227": 77,
        "1228": 194,
        "1229": 192,
        "1230": 107,
        "1231": 0,
        "1232": 33,
        "1233": 253,
        "1234": 19,
        "1235": 243,
        "1236": 6,
        "1237": 118,
        "1238": 40,
        "1239": 223,
        "1240": 229,
        "1241": 158,
        "1242": 140,
        "1243": 243,
        "1244": 98,
        "1245": 140,
        "1246": 92,
        "1247": 251,
        "1248": 210,
        "1249": 153,
        "1250": 204,
        "1251": 225,
        "1252": 182,
        "1253": 107,
        "1254": 212,
        "1255": 169,
        "1256": 19,
        "1257": 23,
        "1258": 48,
        "1259": 229,
        "1260": 79,
        "1261": 199,
        "1262": 8,
        "1263": 109,
        "1264": 164,
        "1265": 134,
        "1266": 17,
        "1267": 194,
        "1268": 115,
        "1269": 173,
        "1270": 185,
        "1271": 236,
        "1272": 8,
        "1273": 214,
        "1274": 28,
        "1275": 104,
        "1276": 129,
        "1277": 118,
        "1278": 42,
        "1279": 141,
        "1280": 3,
        "1281": 54,
        "1282": 7,
        "1283": 56,
        "1284": 180,
        "1285": 210,
        "1286": 130,
        "1287": 203,
        "1288": 143,
        "1289": 135,
        "1290": 160,
        "1291": 123,
        "1292": 134,
        "1293": 20,
        "1294": 199,
        "1295": 0,
        "1296": 157,
        "1297": 48,
        "1298": 160,
        "1299": 232,
        "1300": 244,
        "1301": 84,
        "1302": 187,
        "1303": 196,
        "1304": 101,
        "1305": 238,
        "1306": 89,
        "1307": 73,
        "1308": 158,
        "1309": 192,
        "1310": 247,
        "1311": 233,
        "1312": 5,
        "1313": 210,
        "1314": 166,
        "1315": 250,
        "1316": 25,
        "1317": 73,
        "1318": 240,
        "1319": 180,
        "1320": 105,
        "1321": 253,
        "1322": 65,
        "1323": 163,
        "1324": 165,
        "1325": 250,
        "1326": 3,
        "1327": 197,
        "1328": 85,
        "1329": 191,
        "1330": 229,
        "1331": 29,
        "1332": 212,
        "1333": 137,
        "1334": 33,
        "1335": 118,
        "1336": 0,
        "1337": 189,
        "1338": 165,
        "1339": 13,
        "1340": 104,
        "1341": 239,
        "1342": 185,
        "1343": 97,
        "1344": 164,
        "1345": 183,
        "1346": 151,
        "1347": 212,
        "1348": 138,
        "1349": 238,
        "1350": 88,
        "1351": 89,
        "1352": 25,
        "1353": 237,
        "1354": 215,
        "1355": 25,
        "1356": 9,
        "1357": 12,
        "1358": 10,
        "1359": 18,
        "1360": 101,
        "1361": 136,
        "1362": 23,
        "1363": 229,
        "1364": 241,
        "1365": 234,
        "1366": 84,
        "1367": 242,
        "1368": 14,
        "1369": 199,
        "1370": 8,
        "1371": 149,
        "1372": 24,
        "1373": 161,
        "1374": 60,
        "1375": 40,
        "1376": 168,
        "1377": 251,
        "1378": 192,
        "1379": 29,
        "1380": 228,
        "1381": 85,
        "1382": 163,
        "1383": 248,
        "1384": 60,
        "1385": 120,
        "1386": 177,
        "1387": 15,
        "1388": 168,
        "1389": 255,
        "1390": 234,
        "1391": 179,
        "1392": 155,
        "1393": 214,
        "1394": 155,
        "1395": 153,
        "1396": 202,
        "1397": 189,
        "1398": 168,
        "1399": 162,
        "1400": 156,
        "1401": 218,
        "1402": 198,
        "1403": 184,
        "1404": 251,
        "1405": 164,
        "1406": 238,
        "1407": 61,
        "1408": 18,
        "1409": 21,
        "1410": 102,
        "1411": 7,
        "1412": 13,
        "1413": 3,
        "1414": 221,
        "1415": 126,
        "1416": 134,
        "1417": 198,
        "1418": 136,
        "1419": 191,
        "1420": 9,
        "1421": 202,
        "1422": 141,
        "1423": 244,
        "1424": 204,
        "1425": 113,
        "1426": 88,
        "1427": 133,
        "1428": 40,
        "1429": 179,
        "1430": 95,
        "1431": 238,
        "1432": 174,
        "1433": 105,
        "1434": 138,
        "1435": 7,
        "1436": 71,
        "1437": 68,
        "1438": 12,
        "1439": 180,
        "1440": 83,
        "1441": 253,
        "1442": 47,
        "1443": 216,
        "1444": 254,
        "1445": 155,
        "1446": 114,
        "1447": 173,
        "1448": 144,
        "1449": 78,
        "1450": 252,
        "1451": 100,
        "1452": 125,
        "1453": 8,
        "1454": 20,
        "1455": 66,
        "1456": 237,
        "1457": 1,
        "1458": 110,
        "1459": 51,
        "1460": 166,
        "1461": 93,
        "1462": 248,
        "1463": 37,
        "1464": 200,
        "1465": 27,
        "1466": 66,
        "1467": 36,
        "1468": 231,
        "1469": 76,
        "1470": 35,
        "1471": 96,
        "1472": 26,
        "1473": 186,
        "1474": 123,
        "1475": 207,
        "1476": 76,
        "1477": 82,
        "1478": 102,
        "1479": 198,
        "1480": 191,
        "1481": 14,
        "1482": 176,
        "1483": 194,
        "1484": 75,
        "1485": 4,
        "1486": 255,
        "1487": 219,
        "1488": 108,
        "1489": 210,
        "1490": 81,
        "1491": 158,
        "1492": 57,
        "1493": 66,
        "1494": 86,
        "1495": 175,
        "1496": 129,
        "1497": 36,
        "1498": 118,
        "1499": 65,
        "1500": 50,
        "1501": 189,
        "1502": 174,
        "1503": 137,
        "1504": 117,
        "1505": 147,
        "1506": 54,
        "1507": 124,
        "1508": 23,
        "1509": 173,
        "1510": 67,
        "1511": 232,
        "1512": 245,
        "1513": 81,
        "1514": 49,
        "1515": 248,
        "1516": 42,
        "1517": 149,
        "1518": 157,
        "1519": 144,
        "1520": 52,
        "1521": 26,
        "1522": 99,
        "1523": 186,
        "1524": 79,
        "1525": 42,
        "1526": 251,
        "1527": 109,
        "1528": 28,
        "1529": 30,
        "1530": 52,
        "1531": 99,
        "1532": 127,
        "1533": 165,
        "1534": 65,
        "1535": 160,
        "1536": 82,
        "1537": 229,
        "1538": 12,
        "1539": 38,
        "1540": 141,
        "1541": 98,
        "1542": 115,
        "1543": 230,
        "1544": 90,
        "1545": 186,
        "1546": 2,
        "1547": 42,
        "1548": 166,
        "1549": 136,
        "1550": 112,
        "1551": 108,
        "1552": 162,
        "1553": 113,
        "1554": 35,
        "1555": 113,
        "1556": 238,
        "1557": 103,
        "1558": 47,
        "1559": 120,
        "1560": 130,
        "1561": 125,
        "1562": 82,
        "1563": 184,
        "1564": 125,
        "1565": 10,
        "1566": 183,
        "1567": 39,
        "1568": 62,
        "1569": 88,
        "1570": 30,
        "1571": 32,
        "1572": 186,
        "1573": 78,
        "1574": 77,
        "1575": 78,
        "1576": 68,
        "1577": 98,
        "1578": 33,
        "1579": 180,
        "1580": 190,
        "1581": 192,
        "1582": 183,
        "1583": 51,
        "1584": 199,
        "1585": 45,
        "1586": 98,
        "1587": 199,
        "1588": 11,
        "1589": 43,
        "1590": 5,
        "1591": 78,
        "1592": 39,
        "1593": 229,
        "1594": 21,
        "1595": 18,
        "1596": 172,
        "1597": 248,
        "1598": 194,
        "1599": 141,
        "1600": 75,
        "1601": 7,
        "1602": 49,
        "1603": 54,
        "1604": 212,
        "1605": 97,
        "1606": 86,
        "1607": 53,
        "1608": 2,
        "1609": 191,
        "1610": 201,
        "1611": 168,
        "1612": 131,
        "1613": 40,
        "1614": 83,
        "1615": 187,
        "1616": 108,
        "1617": 177,
        "1618": 247,
        "1619": 7,
        "1620": 102,
        "1621": 252,
        "1622": 80,
        "1623": 14,
        "1624": 172,
        "1625": 138,
        "1626": 248,
        "1627": 52,
        "1628": 217,
        "1629": 26,
        "1630": 101,
        "1631": 230,
        "1632": 77,
        "1633": 26,
        "1634": 160,
        "1635": 52,
        "1636": 91,
        "1637": 58,
        "1638": 2,
        "1639": 95,
        "1640": 213,
        "1641": 178,
        "1642": 186,
        "1643": 40,
        "1644": 204,
        "1645": 91,
        "1646": 135,
        "1647": 171,
        "1648": 171,
        "1649": 154,
        "1650": 206,
        "1651": 194,
        "1652": 147,
        "1653": 99,
        "1654": 5,
        "1655": 20,
        "1656": 116,
        "1657": 87,
        "1658": 200,
        "1659": 156,
        "1660": 66,
        "1661": 200,
        "1662": 117,
        "1663": 0,
        "1664": 245,
        "1665": 114,
        "1666": 142,
        "1667": 62,
        "1668": 202,
        "1669": 12,
        "1670": 144,
        "1671": 142,
        "1672": 140,
        "1673": 167,
        "1674": 160,
        "1675": 42,
        "1676": 6,
        "1677": 93,
        "1678": 215,
        "1679": 245,
        "1680": 173,
        "1681": 12,
        "1682": 83,
        "1683": 147,
        "1684": 145,
        "1685": 108,
        "1686": 184,
        "1687": 139,
        "1688": 168,
        "1689": 253,
        "1690": 121,
        "1691": 89,
        "1692": 2,
        "1693": 143,
        "1694": 45,
        "1695": 119,
        "1696": 105,
        "1697": 16,
        "1698": 253,
        "1699": 135,
        "1700": 237,
        "1701": 23,
        "1702": 48,
        "1703": 6,
        "1704": 93,
        "1705": 5,
        "1706": 177,
        "1707": 173,
        "1708": 3,
        "1709": 136,
        "1710": 101,
        "1711": 170,
        "1712": 232,
        "1713": 106,
        "1714": 59,
        "1715": 5,
        "1716": 96,
        "1717": 228,
        "1718": 175,
        "1719": 243,
        "1720": 233,
        "1721": 184,
        "1722": 167,
        "1723": 226,
        "1724": 139,
        "1725": 109,
        "1726": 126,
        "1727": 232,
        "1728": 133,
        "1729": 152,
        "1730": 243,
        "1731": 177,
        "1732": 255,
        "1733": 180,
        "1734": 200,
        "1735": 138,
        "1736": 48,
        "1737": 179,
        "1738": 58,
        "1739": 167,
        "1740": 206,
        "1741": 173,
        "1742": 154,
        "1743": 112,
        "1744": 193,
        "1745": 216,
        "1746": 21,
        "1747": 197,
        "1748": 90,
        "1749": 59,
        "1750": 165,
        "1751": 96,
        "1752": 183,
        "1753": 176,
        "1754": 112,
        "1755": 183,
        "1756": 70,
        "1757": 8,
        "1758": 234,
        "1759": 127,
        "1760": 250,
        "1761": 142,
        "1762": 40,
        "1763": 105,
        "1764": 69,
        "1765": 222,
        "1766": 104,
        "1767": 167,
        "1768": 75,
        "1769": 37,
        "1770": 141,
        "1771": 250,
        "1772": 242,
        "1773": 67,
        "1774": 255,
        "1775": 155,
        "1776": 216,
        "1777": 228,
        "1778": 158,
        "1779": 152,
        "1780": 253,
        "1781": 29,
        "1782": 31,
        "1783": 80,
        "1784": 177,
        "1785": 132,
        "1786": 148,
        "1787": 102,
        "1788": 200,
        "1789": 130,
        "1790": 247,
        "1791": 155,
        "1792": 94,
        "1793": 117,
        "1794": 39,
        "1795": 113,
        "1796": 167,
        "1797": 240,
        "1798": 166,
        "1799": 113,
        "1800": 237,
        "1801": 164,
        "1802": 26,
        "1803": 180,
        "1804": 46,
        "1805": 187,
        "1806": 171,
        "1807": 196,
        "1808": 72,
        "1809": 249,
        "1810": 154,
        "1811": 205,
        "1812": 81,
        "1813": 36,
        "1814": 235,
        "1815": 129,
        "1816": 65,
        "1817": 179,
        "1818": 247,
        "1819": 92,
        "1820": 165,
        "1821": 81,
        "1822": 18,
        "1823": 37,
        "1824": 61,
        "1825": 200,
        "1826": 236,
        "1827": 59,
        "1828": 42,
        "1829": 69,
        "1830": 250,
        "1831": 52,
        "1832": 229,
        "1833": 177,
        "1834": 5,
        "1835": 226,
        "1836": 181,
        "1837": 101,
        "1838": 237,
        "1839": 11,
        "1840": 205,
        "1841": 163,
        "1842": 136,
        "1843": 165,
        "1844": 22,
        "1845": 25,
        "1846": 243,
        "1847": 134,
        "1848": 154,
        "1849": 121,
        "1850": 149,
        "1851": 23,
        "1852": 209,
        "1853": 212,
        "1854": 210,
        "1855": 170,
        "1856": 226,
        "1857": 148,
        "1858": 137,
        "1859": 119,
        "1860": 164,
        "1861": 68,
        "1862": 143,
        "1863": 233,
        "1864": 41,
        "1865": 2,
        "1866": 76,
        "1867": 166,
        "1868": 193,
        "1869": 84,
        "1870": 30,
        "1871": 248,
        "1872": 44,
        "1873": 182,
        "1874": 33,
        "1875": 125,
        "1876": 134,
        "1877": 196,
        "1878": 167,
        "1879": 98,
        "1880": 230,
        "1881": 205,
        "1882": 234,
        "1883": 107,
        "1884": 128,
        "1885": 66,
        "1886": 15,
        "1887": 95,
        "1888": 92,
        "1889": 2,
        "1890": 233,
        "1891": 167,
        "1892": 170,
        "1893": 241,
        "1894": 220,
        "1895": 26,
        "1896": 254,
        "1897": 53,
        "1898": 121,
        "1899": 8,
        "1900": 205,
        "1901": 81,
        "1902": 235,
        "1903": 137,
        "1904": 210,
        "1905": 107,
        "1906": 42,
        "1907": 78,
        "1908": 33,
        "1909": 114,
        "1910": 169,
        "1911": 249,
        "1912": 54,
        "1913": 113,
        "1914": 139,
        "1915": 88,
        "1916": 149,
        "1917": 52,
        "1918": 18,
        "1919": 114,
        "1920": 155,
        "1921": 29,
        "1922": 156,
        "1923": 201,
        "1924": 36,
        "1925": 61,
        "1926": 94,
        "1927": 207,
        "1928": 217,
        "1929": 186,
        "1930": 182,
        "1931": 170,
        "1932": 97,
        "1933": 56,
        "1934": 110,
        "1935": 215,
        "1936": 101,
        "1937": 66,
        "1938": 137,
        "1939": 249,
        "1940": 203,
        "1941": 202,
        "1942": 110,
        "1943": 81,
        "1944": 185,
        "1945": 184,
        "1946": 10,
        "1947": 233,
        "1948": 117,
        "1949": 178,
        "1950": 169,
        "1951": 72,
        "1952": 210,
        "1953": 55,
        "1954": 37,
        "1955": 22,
        "1956": 208,
        "1957": 181,
        "1958": 128,
        "1959": 225,
        "1960": 229,
        "1961": 238,
        "1962": 7,
        "1963": 135,
        "1964": 93,
        "1965": 66,
        "1966": 79,
        "1967": 152,
        "1968": 230,
        "1969": 117,
        "1970": 163,
        "1971": 180,
        "1972": 142,
        "1973": 231,
        "1974": 172,
        "1975": 120,
        "1976": 108,
        "1977": 168,
        "1978": 130,
        "1979": 222,
        "1980": 208,
        "1981": 229,
        "1982": 94,
        "1983": 95,
        "1984": 55,
        "1985": 18,
        "1986": 217,
        "1987": 136,
        "1988": 186,
        "1989": 140,
        "1990": 101,
        "1991": 63,
        "1992": 241,
        "1993": 218,
        "1994": 201,
        "1995": 208,
        "1996": 78,
        "1997": 250,
        "1998": 165,
        "1999": 181,
        "2000": 234,
        "2001": 158,
        "2002": 56,
        "2003": 74,
        "2004": 139,
        "2005": 11,
        "2006": 45,
        "2007": 15,
        "2008": 175,
        "2009": 78,
        "2010": 170,
        "2011": 62,
        "2012": 68,
        "2013": 221,
        "2014": 181,
        "2015": 140,
        "2016": 215,
        "2017": 135,
        "2018": 165,
        "2019": 188,
        "2020": 250,
        "2021": 126,
        "2022": 32,
        "2023": 212,
        "2024": 58,
        "2025": 52,
        "2026": 243,
        "2027": 170,
        "2028": 147,
        "2029": 206,
        "2030": 113,
        "2031": 73,
        "2032": 150,
        "2033": 142,
        "2034": 214,
        "2035": 32,
        "2036": 177,
        "2037": 156,
        "2038": 53,
        "2039": 100,
        "2040": 144,
        "2041": 134,
        "2042": 141,
        "2043": 67,
        "2044": 230,
        "2045": 35,
        "2046": 172,
        "2047": 12,
        "2048": 217,
        "2049": 123,
        "2050": 232,
        "2051": 128,
        "2052": 218,
        "2053": 77,
        "2054": 135,
        "2055": 249,
        "2056": 99,
        "2057": 95,
        "2058": 0,
        "2059": 9,
        "2060": 73,
        "2061": 221,
        "2062": 144,
        "2063": 84,
        "2064": 9,
        "2065": 190,
        "2066": 189,
        "2067": 52,
        "2068": 81,
        "2069": 193,
        "2070": 97,
        "2071": 227,
        "2072": 35,
        "2073": 225,
        "2074": 202,
        "2075": 218,
        "2076": 143,
        "2077": 115,
        "2078": 5,
        "2079": 5,
        "2080": 31,
        "2081": 62,
        "2082": 46,
        "2083": 90,
        "2084": 206,
        "2085": 181,
        "2086": 136,
        "2087": 65,
        "2088": 99,
        "2089": 68,
        "2090": 48,
        "2091": 250,
        "2092": 232,
        "2093": 226,
        "2094": 27,
        "2095": 15,
        "2096": 49,
        "2097": 243,
        "2098": 43,
        "2099": 189,
        "2100": 21,
        "2101": 177,
        "2102": 243,
        "2103": 2,
        "2104": 0,
        "2105": 23,
        "2106": 234,
        "2107": 141,
        "2108": 175,
        "2109": 229,
        "2110": 107,
        "2111": 185,
        "2112": 34,
        "2113": 28,
        "2114": 171,
        "2115": 89,
        "2116": 44,
        "2117": 19,
        "2118": 85,
        "2119": 119,
        "2120": 203,
        "2121": 51,
        "2122": 7,
        "2123": 206,
        "2124": 108,
        "2125": 12,
        "2126": 142,
        "2127": 251,
        "2128": 126,
        "2129": 66,
        "2130": 242,
        "2131": 215,
        "2132": 188,
        "2133": 11,
        "2134": 101,
        "2135": 225,
        "2136": 143,
        "2137": 23,
        "2138": 229,
        "2139": 156,
        "2140": 25,
        "2141": 208,
        "2142": 246,
        "2143": 239,
        "2144": 166,
        "2145": 225,
        "2146": 43,
        "2147": 99,
        "2148": 198,
        "2149": 58,
        "2150": 28,
        "2151": 29,
        "2152": 10,
        "2153": 134,
        "2154": 32,
        "2155": 189,
        "2156": 136,
        "2157": 224,
        "2158": 45,
        "2159": 59,
        "2160": 123,
        "2161": 69,
        "2162": 246,
        "2163": 42,
        "2164": 123,
        "2165": 213,
        "2166": 168,
        "2167": 31,
        "2168": 102,
        "2169": 187,
        "2170": 120,
        "2171": 249,
        "2172": 55,
        "2173": 32,
        "2174": 180,
        "2175": 96,
        "2176": 249,
        "2177": 137,
        "2178": 119,
        "2179": 224,
        "2180": 44,
        "2181": 239,
        "2182": 99,
        "2183": 180,
        "2184": 183,
        "2185": 33,
        "2186": 160,
        "2187": 148,
        "2188": 11,
        "2189": 20,
        "2190": 64,
        "2191": 65,
        "2192": 113,
        "2193": 172,
        "2194": 104,
        "2195": 39,
        "2196": 8,
        "2197": 253,
        "2198": 37,
        "2199": 81,
        "2200": 125,
        "2201": 7,
        "2202": 32,
        "2203": 207,
        "2204": 243,
        "2205": 123,
        "2206": 146,
        "2207": 93,
        "2208": 57,
        "2209": 77,
        "2210": 236,
        "2211": 217,
        "2212": 140,
        "2213": 40,
        "2214": 149,
        "2215": 84,
        "2216": 38,
        "2217": 11,
        "2218": 19,
        "2219": 205,
        "2220": 173,
        "2221": 247,
        "2222": 123,
        "2223": 19,
        "2224": 130,
        "2225": 25,
        "2226": 114,
        "2227": 206,
        "2228": 95,
        "2229": 178,
        "2230": 132,
        "2231": 231,
        "2232": 250,
        "2233": 70,
        "2234": 170,
        "2235": 177,
        "2236": 29,
        "2237": 73,
        "2238": 206,
        "2239": 85,
        "2240": 35,
        "2241": 220,
        "2242": 3,
        "2243": 16,
        "2244": 16,
        "2245": 25,
        "2246": 199,
        "2247": 154,
        "2248": 180,
        "2249": 133,
        "2250": 183,
        "2251": 91,
        "2252": 128,
        "2253": 250,
        "2254": 27,
        "2255": 255,
        "2256": 64,
        "2257": 158,
        "2258": 11,
        "2259": 120,
        "2260": 154,
        "2261": 108,
        "2262": 66,
        "2263": 111,
        "2264": 153,
        "2265": 76,
        "2266": 197,
        "2267": 152,
        "2268": 185,
        "2269": 200,
        "2270": 106,
        "2271": 144,
        "2272": 164,
        "2273": 232,
        "2274": 7,
        "2275": 85,
        "2276": 3,
        "2277": 137,
        "2278": 214,
        "2279": 254,
        "2280": 98,
        "2281": 252,
        "2282": 16,
        "2283": 186,
        "2284": 163,
        "2285": 105,
        "2286": 184,
        "2287": 34,
        "2288": 69,
        "2289": 174,
        "2290": 101,
        "2291": 139,
        "2292": 91,
        "2293": 81,
        "2294": 215,
        "2295": 229,
        "2296": 27,
        "2297": 246,
        "2298": 102,
        "2299": 138,
        "2300": 14,
        "2301": 139,
        "2302": 94,
        "2303": 99,
        "2304": 61,
        "2305": 60,
        "2306": 158,
        "2307": 205,
        "2308": 197,
        "2309": 59,
        "2310": 176,
        "2311": 167,
        "2312": 252,
        "2313": 104,
        "2314": 253,
        "2315": 224,
        "2316": 196,
        "2317": 134,
        "2318": 157,
        "2319": 157,
        "2320": 73,
        "2321": 207,
        "2322": 111,
        "2323": 98,
        "2324": 132,
        "2325": 87,
        "2326": 112,
        "2327": 239,
        "2328": 65,
        "2329": 44,
        "2330": 181,
        "2331": 126,
        "2332": 213,
        "2333": 60,
        "2334": 21,
        "2335": 55,
        "2336": 202,
        "2337": 154,
        "2338": 144,
        "2339": 64,
        "2340": 112,
        "2341": 146,
        "2342": 217,
        "2343": 139,
        "2344": 163,
        "2345": 44,
        "2346": 212,
        "2347": 224,
        "2348": 188,
        "2349": 170,
        "2350": 137,
        "2351": 172,
        "2352": 57,
        "2353": 67,
        "2354": 83,
        "2355": 20,
        "2356": 126,
        "2357": 43,
        "2358": 212,
        "2359": 153,
        "2360": 46,
        "2361": 244,
        "2362": 132,
        "2363": 4,
        "2364": 183,
        "2365": 48,
        "2366": 252,
        "2367": 189,
        "2368": 33,
        "2369": 225,
        "2370": 184,
        "2371": 55,
        "2372": 219,
        "2373": 193,
        "2374": 218,
        "2375": 68,
        "2376": 153,
        "2377": 151,
        "2378": 159,
        "2379": 38,
        "2380": 110,
        "2381": 97,
        "2382": 42,
        "2383": 10,
        "2384": 96,
        "2385": 177,
        "2386": 120,
        "2387": 64,
        "2388": 243,
        "2389": 85,
        "2390": 69,
        "2391": 60,
        "2392": 29,
        "2393": 137,
        "2394": 220,
        "2395": 233,
        "2396": 103,
        "2397": 192,
        "2398": 96,
        "2399": 82,
        "2400": 51,
        "2401": 137,
        "2402": 89,
        "2403": 157,
        "2404": 125,
        "2405": 222,
        "2406": 215,
        "2407": 173,
        "2408": 248,
        "2409": 98,
        "2410": 224,
        "2411": 154,
        "2412": 252,
        "2413": 233,
        "2414": 188,
        "2415": 62,
        "2416": 231,
        "2417": 119,
        "2418": 153,
        "2419": 198,
        "2420": 139,
        "2421": 209,
        "2422": 149,
        "2423": 181,
        "2424": 45,
        "2425": 197,
        "2426": 47,
        "2427": 171,
        "2428": 34,
        "2429": 255,
        "2430": 114,
        "2431": 206,
        "2432": 92,
        "2433": 103,
        "2434": 251,
        "2435": 61,
        "2436": 70,
        "2437": 14,
        "2438": 192,
        "2439": 15,
        "2440": 131,
        "2441": 253,
        "2442": 136,
        "2443": 175,
        "2444": 185,
        "2445": 51,
        "2446": 183,
        "2447": 134,
        "2448": 248,
        "2449": 208,
        "2450": 169,
        "2451": 226,
        "2452": 24,
        "2453": 73,
        "2454": 117,
        "2455": 112,
        "2456": 113,
        "2457": 177,
        "2458": 15,
        "2459": 124,
        "2460": 22,
        "2461": 76,
        "2462": 13,
        "2463": 139,
        "2464": 233,
        "2465": 165,
        "2466": 129,
        "2467": 222,
        "2468": 35,
        "2469": 58,
        "2470": 196,
        "2471": 48,
        "2472": 161,
        "2473": 210,
        "2474": 70,
        "2475": 130,
        "2476": 221,
        "2477": 214,
        "2478": 49,
        "2479": 181,
        "2480": 57,
        "2481": 175,
        "2482": 10,
        "2483": 160,
        "2484": 63,
        "2485": 4,
        "2486": 5,
        "2487": 154,
        "2488": 169,
        "2489": 98,
        "2490": 65,
        "2491": 59,
        "2492": 253,
        "2493": 113,
        "2494": 205,
        "2495": 206,
        "2496": 75,
        "2497": 10,
        "2498": 49,
        "2499": 45,
        "2500": 2,
        "2501": 251,
        "2502": 142,
        "2503": 139,
        "2504": 17,
        "2505": 32,
        "2506": 36,
        "2507": 79,
        "2508": 46,
        "2509": 128,
        "2510": 105,
        "2511": 127,
        "2512": 150,
        "2513": 110,
        "2514": 135,
        "2515": 212,
        "2516": 79,
        "2517": 147,
        "2518": 159,
        "2519": 196,
        "2520": 192,
        "2521": 244,
        "2522": 21,
        "2523": 51,
        "2524": 231,
        "2525": 164,
        "2526": 199,
        "2527": 8,
        "2528": 64,
        "2529": 139,
        "2530": 175,
        "2531": 177,
        "2532": 62,
        "2533": 89,
        "2534": 52,
        "2535": 69,
        "2536": 135,
        "2537": 18,
        "2538": 124,
        "2539": 88,
        "2540": 148,
        "2541": 113,
        "2542": 134,
        "2543": 71,
        "2544": 180,
        "2545": 35,
        "2546": 43,
        "2547": 187,
        "2548": 184,
        "2549": 141,
        "2550": 22,
        "2551": 47,
        "2552": 3,
        "2553": 223,
        "2554": 189,
        "2555": 244,
        "2556": 127,
        "2557": 212,
        "2558": 168,
        "2559": 193,
        "2560": 12,
        "2561": 12,
        "2562": 249,
        "2563": 183,
        "2564": 134,
        "2565": 186,
        "2566": 159,
        "2567": 43,
        "2568": 211,
        "2569": 97,
        "2570": 49,
        "2571": 148,
        "2572": 80,
        "2573": 63,
        "2574": 68,
        "2575": 238,
        "2576": 164,
        "2577": 26,
        "2578": 230,
        "2579": 189,
        "2580": 130,
        "2581": 242,
        "2582": 177,
        "2583": 130,
        "2584": 99,
        "2585": 89,
        "2586": 31,
        "2587": 231,
        "2588": 153,
        "2589": 247,
        "2590": 91,
        "2591": 203,
        "2592": 114,
        "2593": 251,
        "2594": 208,
        "2595": 41,
        "2596": 7,
        "2597": 240,
        "2598": 78,
        "2599": 87,
        "2600": 29,
        "2601": 116,
        "2602": 135,
        "2603": 74,
        "2604": 28,
        "2605": 125,
        "2606": 97,
        "2607": 112,
        "2608": 141,
        "2609": 25,
        "2610": 230,
        "2611": 140,
        "2612": 164,
        "2613": 150,
        "2614": 175,
        "2615": 116,
        "2616": 77,
        "2617": 183,
        "2618": 24,
        "2619": 100,
        "2620": 136,
        "2621": 147,
        "2622": 107,
        "2623": 187,
        "2624": 209,
        "2625": 15,
        "2626": 39,
        "2627": 183,
        "2628": 161,
        "2629": 204,
        "2630": 119,
        "2631": 23,
        "2632": 48,
        "2633": 8,
        "2634": 109,
        "2635": 92,
        "2636": 134,
        "2637": 227,
        "2638": 233,
        "2639": 114,
        "2640": 131,
        "2641": 22,
        "2642": 112,
        "2643": 23,
        "2644": 68,
        "2645": 19,
        "2646": 154,
        "2647": 239,
        "2648": 252,
        "2649": 97,
        "2650": 226,
        "2651": 240,
        "2652": 230,
        "2653": 70,
        "2654": 73,
        "2655": 100,
        "2656": 227,
        "2657": 40,
        "2658": 143,
        "2659": 209,
        "2660": 187,
        "2661": 88,
        "2662": 219,
        "2663": 188,
        "2664": 222,
        "2665": 170,
        "2666": 4,
        "2667": 224,
        "2668": 213,
        "2669": 20,
        "2670": 164,
        "2671": 219,
        "2672": 9,
        "2673": 123,
        "2674": 140,
        "2675": 18,
        "2676": 79,
        "2677": 81,
        "2678": 202,
        "2679": 219,
        "2680": 79,
        "2681": 253,
        "2682": 90,
        "2683": 196,
        "2684": 160,
        "2685": 230,
        "2686": 206,
        "2687": 148,
        "2688": 212,
        "2689": 59,
        "2690": 46,
        "2691": 189,
        "2692": 91,
        "2693": 212,
        "2694": 60,
        "2695": 94,
        "2696": 244,
        "2697": 210,
        "2698": 251,
        "2699": 8,
        "2700": 186,
        "2701": 135,
        "2702": 202,
        "2703": 217,
        "2704": 8,
        "2705": 72,
        "2706": 187,
        "2707": 130,
        "2708": 63,
        "2709": 210,
        "2710": 100,
        "2711": 214,
        "2712": 90,
        "2713": 180,
        "2714": 81,
        "2715": 153,
        "2716": 254,
        "2717": 126,
        "2718": 83,
        "2719": 162,
        "2720": 167,
        "2721": 64,
        "2722": 47,
        "2723": 32,
        "2724": 59,
        "2725": 78,
        "2726": 144,
        "2727": 127,
        "2728": 199,
        "2729": 245,
        "2730": 39,
        "2731": 149,
        "2732": 7,
        "2733": 186,
        "2734": 78,
        "2735": 239,
        "2736": 85,
        "2737": 62,
        "2738": 162,
        "2739": 29,
        "2740": 49,
        "2741": 68,
        "2742": 148,
        "2743": 37,
        "2744": 202,
        "2745": 120,
        "2746": 97,
        "2747": 204,
        "2748": 143,
        "2749": 141,
        "2750": 29,
        "2751": 19,
        "2752": 53,
        "2753": 51,
        "2754": 2,
        "2755": 78,
        "2756": 108,
        "2757": 169,
        "2758": 181,
        "2759": 231,
        "2760": 234,
        "2761": 251,
        "2762": 214,
        "2763": 232,
        "2764": 152,
        "2765": 10,
        "2766": 138,
        "2767": 188,
        "2768": 62,
        "2769": 222,
        "2770": 232,
        "2771": 204,
        "2772": 0,
        "2773": 192,
        "2774": 152,
        "2775": 188,
        "2776": 224,
        "2777": 130,
        "2778": 63,
        "2779": 195,
        "2780": 188,
        "2781": 101,
        "2782": 76,
        "2783": 48,
        "2784": 77,
        "2785": 128,
        "2786": 45,
        "2787": 69,
        "2788": 245,
        "2789": 192,
        "2790": 34,
        "2791": 170,
        "2792": 190,
        "2793": 143,
        "2794": 165,
        "2795": 146,
        "2796": 214,
        "2797": 176,
        "2798": 7,
        "2799": 189,
        "2800": 163,
        "2801": 210,
        "2802": 247,
        "2803": 217,
        "2804": 124,
        "2805": 46,
        "2806": 30,
        "2807": 27,
        "2808": 42,
        "2809": 201,
        "2810": 100,
        "2811": 112,
        "2812": 62,
        "2813": 138,
        "2814": 194,
        "2815": 51,
        "2816": 184,
        "2817": 220,
        "2818": 136,
        "2819": 85,
        "2820": 240,
        "2821": 41,
        "2822": 162,
        "2823": 238,
        "2824": 243,
        "2825": 88,
        "2826": 57,
        "2827": 48,
        "2828": 33,
        "2829": 21,
        "2830": 230,
        "2831": 204,
        "2832": 86,
        "2833": 91,
        "2834": 159,
        "2835": 128,
        "2836": 114,
        "2837": 52,
        "2838": 187,
        "2839": 140,
        "2840": 21,
        "2841": 4,
        "2842": 172,
        "2843": 47,
        "2844": 193,
        "2845": 116,
        "2846": 80,
        "2847": 238,
        "2848": 81,
        "2849": 245,
        "2850": 47,
        "2851": 112,
        "2852": 211,
        "2853": 98,
        "2854": 114,
        "2855": 88,
        "2856": 36,
        "2857": 100,
        "2858": 39,
        "2859": 103,
        "2860": 33,
        "2861": 205,
        "2862": 30,
        "2863": 91,
        "2864": 198,
        "2865": 49,
        "2866": 145,
        "2867": 177,
        "2868": 63,
        "2869": 73,
        "2870": 44,
        "2871": 136,
        "2872": 36,
        "2873": 93,
        "2874": 136,
        "2875": 66,
        "2876": 42,
        "2877": 155,
        "2878": 246,
        "2879": 80,
        "2880": 31,
        "2881": 167,
        "2882": 182,
        "2883": 199,
        "2884": 61,
        "2885": 238,
        "2886": 90,
        "2887": 4,
        "2888": 54,
        "2889": 178,
        "2890": 169,
        "2891": 125,
        "2892": 60,
        "2893": 215,
        "2894": 177,
        "2895": 175,
        "2896": 60,
        "2897": 101,
        "2898": 187,
        "2899": 235,
        "2900": 20,
        "2901": 23,
        "2902": 180,
        "2903": 247,
        "2904": 157,
        "2905": 191,
        "2906": 41,
        "2907": 29,
        "2908": 158,
        "2909": 186,
        "2910": 237,
        "2911": 68,
        "2912": 143,
        "2913": 20,
        "2914": 17,
        "2915": 18,
        "2916": 242,
        "2917": 176,
        "2918": 228,
        "2919": 64,
        "2920": 231,
        "2921": 202,
        "2922": 61,
        "2923": 198,
        "2924": 71,
        "2925": 95,
        "2926": 79,
        "2927": 225,
        "2928": 1,
        "2929": 172,
        "2930": 24,
        "2931": 2,
        "2932": 236,
        "2933": 44,
        "2934": 120,
        "2935": 137,
        "2936": 7,
        "2937": 43,
        "2938": 151,
        "2939": 59,
        "2940": 27,
        "2941": 241,
        "2942": 241,
        "2943": 248,
        "2944": 222,
        "2945": 76,
        "2946": 237,
        "2947": 180,
        "2948": 65,
        "2949": 147,
        "2950": 89,
        "2951": 138,
        "2952": 252,
        "2953": 43,
        "2954": 87,
        "2955": 26,
        "2956": 244,
        "2957": 138,
        "2958": 189,
        "2959": 59,
        "2960": 183,
        "2961": 149,
        "2962": 105,
        "2963": 155,
        "2964": 213,
        "2965": 215,
        "2966": 160,
        "2967": 53,
        "2968": 133,
        "2969": 112,
        "2970": 184,
        "2971": 75,
        "2972": 49,
        "2973": 32,
        "2974": 228,
        "2975": 129,
        "2976": 27,
        "2977": 47,
        "2978": 48,
        "2979": 107,
        "2980": 159,
        "2981": 114,
        "2982": 29,
        "2983": 241,
        "2984": 6,
        "2985": 194,
        "2986": 103,
        "2987": 41,
        "2988": 99,
        "2989": 4,
        "2990": 217,
        "2991": 189,
        "2992": 86,
        "2993": 207,
        "2994": 160,
        "2995": 15,
        "2996": 192,
        "2997": 173,
        "2998": 163,
        "2999": 107,
        "3000": 76,
        "3001": 158,
        "3002": 121,
        "3003": 58,
        "3004": 228,
        "3005": 136,
        "3006": 61,
        "3007": 125,
        "3008": 70,
        "3009": 244,
        "3010": 142,
        "3011": 77,
        "3012": 153,
        "3013": 55,
        "3014": 214,
        "3015": 160,
        "3016": 174,
        "3017": 143,
        "3018": 187,
        "3019": 24,
        "3020": 160,
        "3021": 49,
        "3022": 255,
        "3023": 145,
        "3024": 63,
        "3025": 52,
        "3026": 235,
        "3027": 19,
        "3028": 44,
        "3029": 253,
        "3030": 42,
        "3031": 58,
        "3032": 51,
        "3033": 223,
        "3034": 107,
        "3035": 218,
        "3036": 233,
        "3037": 128,
        "3038": 83,
        "3039": 196,
        "3040": 113,
        "3041": 252,
        "3042": 182,
        "3043": 227,
        "3044": 159,
        "3045": 135,
        "3046": 220,
        "3047": 71,
        "3048": 78,
        "3049": 231,
        "3050": 162,
        "3051": 6,
        "3052": 201,
        "3053": 175,
        "3054": 158,
        "3055": 143,
        "3056": 77,
        "3057": 93,
        "3058": 245,
        "3059": 183,
        "3060": 69,
        "3061": 117,
        "3062": 174,
        "3063": 147,
        "3064": 63,
        "3065": 113,
        "3066": 94,
        "3067": 205,
        "3068": 92,
        "3069": 108,
        "3070": 207,
        "3071": 6,
        "3072": 124,
        "3073": 54,
        "3074": 109,
        "3075": 170,
        "3076": 9,
        "3077": 109,
        "3078": 216,
        "3079": 54,
        "3080": 150,
        "3081": 5,
        "3082": 34,
        "3083": 11,
        "3084": 135,
        "3085": 105,
        "3086": 154,
        "3087": 85,
        "3088": 169,
        "3089": 115,
        "3090": 21,
        "3091": 19,
        "3092": 42,
        "3093": 105,
        "3094": 194,
        "3095": 254,
        "3096": 208,
        "3097": 82,
        "3098": 224,
        "3099": 72,
        "3100": 8,
        "3101": 223,
        "3102": 38,
        "3103": 97,
        "3104": 221,
        "3105": 217,
        "3106": 45,
        "3107": 61,
        "3108": 52,
        "3109": 202,
        "3110": 107,
        "3111": 137,
        "3112": 34,
        "3113": 171,
        "3114": 106,
        "3115": 143,
        "3116": 23,
        "3117": 212,
        "3118": 182,
        "3119": 205,
        "3120": 138,
        "3121": 41,
        "3122": 229,
        "3123": 99,
        "3124": 185,
        "3125": 116,
        "3126": 32,
        "3127": 120,
        "3128": 99,
        "3129": 41,
        "3130": 159,
        "3131": 45,
        "3132": 249,
        "3133": 62,
        "3134": 34,
        "3135": 25,
        "3136": 187,
        "3137": 194,
        "3138": 180,
        "3139": 38,
        "3140": 162,
        "3141": 177,
        "3142": 231,
        "3143": 195,
        "3144": 95,
        "3145": 134,
        "3146": 110,
        "3147": 3,
        "3148": 16,
        "3149": 222,
        "3150": 149,
        "3151": 63,
        "3152": 70,
        "3153": 29,
        "3154": 136,
        "3155": 135,
        "3156": 211,
        "3157": 110,
        "3158": 80,
        "3159": 16,
        "3160": 139,
        "3161": 84,
        "3162": 5,
        "3163": 105,
        "3164": 74,
        "3165": 235,
        "3166": 89,
        "3167": 15,
        "3168": 75,
        "3169": 34,
        "3170": 159,
        "3171": 251,
        "3172": 202,
        "3173": 112,
        "3174": 63,
        "3175": 80,
        "3176": 220,
        "3177": 65,
        "3178": 37,
        "3179": 194,
        "3180": 86,
        "3181": 50,
        "3182": 83,
        "3183": 36,
        "3184": 250,
        "3185": 83,
        "3186": 184,
        "3187": 217,
        "3188": 249,
        "3189": 3,
        "3190": 216,
        "3191": 140,
        "3192": 83,
        "3193": 127,
        "3194": 239,
        "3195": 186,
        "3196": 71,
        "3197": 249,
        "3198": 245,
        "3199": 49,
        "3200": 172,
        "3201": 190,
        "3202": 81,
        "3203": 110,
        "3204": 53,
        "3205": 39,
        "3206": 182,
        "3207": 121,
        "3208": 33,
        "3209": 86,
        "3210": 53,
        "3211": 220,
        "3212": 10,
        "3213": 251,
        "3214": 180,
        "3215": 159,
        "3216": 134,
        "3217": 254,
        "3218": 101,
        "3219": 204,
        "3220": 123,
        "3221": 163,
        "3222": 93,
        "3223": 15,
        "3224": 50,
        "3225": 32,
        "3226": 217,
        "3227": 11,
        "3228": 26,
        "3229": 105,
        "3230": 68,
        "3231": 78,
        "3232": 5,
        "3233": 28,
        "3234": 43,
        "3235": 233,
        "3236": 32,
        "3237": 237,
        "3238": 215,
        "3239": 83,
        "3240": 92,
        "3241": 189,
        "3242": 156,
        "3243": 47,
        "3244": 122,
        "3245": 134,
        "3246": 66,
        "3247": 239,
        "3248": 152,
        "3249": 192,
        "3250": 188,
        "3251": 103,
        "3252": 139,
        "3253": 181,
        "3254": 233,
        "3255": 189,
        "3256": 17,
        "3257": 125,
        "3258": 124,
        "3259": 102,
        "3260": 192,
        "3261": 57,
        "3262": 17,
        "3263": 82,
        "3264": 210,
        "3265": 33,
        "3266": 215,
        "3267": 57,
        "3268": 72,
        "3269": 188,
        "3270": 172,
        "3271": 249,
        "3272": 95,
        "3273": 102,
        "3274": 90,
        "3275": 115,
        "3276": 43,
        "3277": 176,
        "3278": 205,
        "3279": 241,
        "3280": 219,
        "3281": 232,
        "3282": 125,
        "3283": 225,
        "3284": 255,
        "3285": 65,
        "3286": 147,
        "3287": 58,
        "3288": 72,
        "3289": 94,
        "3290": 87,
        "3291": 31,
        "3292": 109,
        "3293": 50,
        "3294": 167,
        "3295": 26,
        "3296": 232,
        "3297": 168,
        "3298": 239,
        "3299": 206,
        "3300": 165,
        "3301": 248,
        "3302": 22,
        "3303": 230,
        "3304": 126,
        "3305": 102,
        "3306": 5,
        "3307": 157,
        "3308": 250,
        "3309": 63,
        "3310": 18,
        "3311": 206,
        "3312": 105,
        "3313": 38,
        "3314": 148,
        "3315": 207,
        "3316": 144,
        "3317": 162,
        "3318": 244,
        "3319": 184,
        "3320": 208,
        "3321": 163,
        "3322": 123,
        "3323": 201,
        "3324": 32,
        "3325": 2,
        "3326": 105,
        "3327": 52,
        "3328": 124,
        "3329": 19,
        "3330": 68,
        "3331": 243,
        "3332": 46,
        "3333": 122,
        "3334": 18,
        "3335": 15,
        "3336": 168,
        "3337": 89,
        "3338": 181,
        "3339": 62,
        "3340": 107,
        "3341": 240,
        "3342": 151,
        "3343": 230,
        "3344": 18,
        "3345": 39,
        "3346": 240,
        "3347": 15,
        "3348": 37,
        "3349": 3,
        "3350": 66,
        "3351": 20,
        "3352": 119,
        "3353": 230,
        "3354": 32,
        "3355": 1,
        "3356": 152,
        "3357": 138,
        "3358": 4,
        "3359": 39,
        "3360": 228,
        "3361": 118,
        "3362": 231,
        "3363": 247,
        "3364": 47,
        "3365": 109,
        "3366": 46,
        "3367": 146,
        "3368": 213,
        "3369": 186,
        "3370": 153,
        "3371": 7,
        "3372": 63,
        "3373": 75,
        "3374": 135,
        "3375": 143,
        "3376": 151,
        "3377": 199,
        "3378": 245,
        "3379": 132,
        "3380": 135,
        "3381": 69,
        "3382": 245,
        "3383": 13,
        "3384": 199,
        "3385": 185,
        "3386": 117,
        "3387": 246,
        "3388": 223,
        "3389": 14,
        "3390": 17,
        "3391": 152,
        "3392": 199,
        "3393": 128,
        "3394": 196,
        "3395": 111,
        "3396": 221,
        "3397": 255,
        "3398": 39,
        "3399": 184,
        "3400": 119,
        "3401": 173,
        "3402": 181,
        "3403": 238,
        "3404": 236,
        "3405": 184,
        "3406": 237,
        "3407": 133,
        "3408": 107,
        "3409": 242,
        "3410": 84,
        "3411": 232,
        "3412": 44,
        "3413": 58,
        "3414": 91,
        "3415": 135,
        "3416": 63,
        "3417": 196,
        "3418": 127,
        "3419": 117,
        "3420": 89,
        "3421": 172,
        "3422": 46,
        "3423": 130,
        "3424": 230,
        "3425": 147,
        "3426": 255,
        "3427": 171,
        "3428": 170,
        "3429": 76,
        "3430": 92,
        "3431": 176,
        "3432": 254,
        "3433": 48,
        "3434": 182,
        "3435": 74,
        "3436": 158,
        "3437": 152,
        "3438": 247,
        "3439": 13,
        "3440": 99,
        "3441": 64,
        "3442": 14,
        "3443": 11,
        "3444": 202,
        "3445": 47,
        "3446": 16,
        "3447": 125,
        "3448": 254,
        "3449": 212,
        "3450": 199,
        "3451": 245,
        "3452": 132,
        "3453": 109,
        "3454": 77,
        "3455": 243,
        "3456": 171,
        "3457": 130,
        "3458": 88,
        "3459": 127,
        "3460": 208,
        "3461": 71,
        "3462": 19,
        "3463": 109,
        "3464": 255,
        "3465": 52,
        "3466": 155,
        "3467": 11,
        "3468": 232,
        "3469": 122,
        "3470": 228,
        "3471": 52,
        "3472": 20,
        "3473": 73,
        "3474": 6,
        "3475": 16,
        "3476": 138,
        "3477": 157,
        "3478": 205,
        "3479": 178,
        "3480": 241,
        "3481": 125,
        "3482": 90,
        "3483": 19,
        "3484": 51,
        "3485": 27,
        "3486": 139,
        "3487": 109,
        "3488": 144,
        "3489": 167,
        "3490": 228,
        "3491": 223,
        "3492": 128,
        "3493": 58,
        "3494": 208,
        "3495": 123,
        "3496": 47,
        "3497": 101,
        "3498": 132,
        "3499": 22,
        "3500": 201,
        "3501": 33,
        "3502": 53,
        "3503": 178,
        "3504": 87,
        "3505": 213,
        "3506": 108,
        "3507": 224,
        "3508": 226,
        "3509": 85,
        "3510": 198,
        "3511": 58,
        "3512": 224,
        "3513": 102,
        "3514": 59,
        "3515": 68,
        "3516": 177,
        "3517": 147,
        "3518": 159,
        "3519": 217,
        "3520": 14,
        "3521": 75,
        "3522": 67,
        "3523": 197,
        "3524": 200,
        "3525": 156,
        "3526": 138,
        "3527": 203,
        "3528": 121,
        "3529": 107,
        "3530": 217,
        "3531": 103,
        "3532": 133,
        "3533": 179,
        "3534": 77,
        "3535": 66,
        "3536": 144,
        "3537": 50,
        "3538": 223,
        "3539": 202,
        "3540": 0,
        "3541": 145,
        "3542": 51,
        "3543": 10,
        "3544": 215,
        "3545": 173,
        "3546": 112,
        "3547": 0,
        "3548": 101,
        "3549": 137,
        "3550": 242,
        "3551": 91,
        "3552": 76,
        "3553": 72,
        "3554": 251,
        "3555": 191,
        "3556": 195,
        "3557": 89,
        "3558": 44,
        "3559": 108,
        "3560": 42,
        "3561": 244,
        "3562": 182,
        "3563": 98,
        "3564": 92,
        "3565": 231,
        "3566": 94,
        "3567": 98,
        "3568": 15,
        "3569": 201,
        "3570": 205,
        "3571": 27,
        "3572": 74,
        "3573": 12,
        "3574": 210,
        "3575": 255,
        "3576": 224,
        "3577": 182,
        "3578": 181,
        "3579": 25,
        "3580": 100,
        "3581": 12,
        "3582": 177,
        "3583": 255,
        "3584": 205,
        "3585": 229,
        "3586": 3,
        "3587": 38,
        "3588": 249,
        "3589": 186,
        "3590": 159,
        "3591": 20,
        "3592": 205,
        "3593": 62,
        "3594": 120,
        "3595": 141,
        "3596": 250,
        "3597": 179,
        "3598": 205,
        "3599": 9,
        "3600": 204,
        "3601": 119,
        "3602": 195,
        "3603": 56,
        "3604": 36,
        "3605": 52,
        "3606": 19,
        "3607": 208,
        "3608": 180,
        "3609": 147,
        "3610": 128,
        "3611": 82,
        "3612": 230,
        "3613": 45,
        "3614": 41,
        "3615": 218,
        "3616": 65,
        "3617": 16,
        "3618": 84,
        "3619": 82,
        "3620": 206,
        "3621": 103,
        "3622": 164,
        "3623": 40,
        "3624": 198,
        "3625": 119,
        "3626": 166,
        "3627": 206,
        "3628": 30,
        "3629": 88,
        "3630": 217,
        "3631": 24,
        "3632": 245,
        "3633": 76,
        "3634": 176,
        "3635": 16,
        "3636": 146,
        "3637": 129,
        "3638": 151,
        "3639": 84,
        "3640": 89,
        "3641": 245,
        "3642": 101,
        "3643": 72,
        "3644": 193,
        "3645": 11,
        "3646": 179,
        "3647": 77,
        "3648": 159,
        "3649": 241,
        "3650": 174,
        "3651": 243,
        "3652": 192,
        "3653": 78,
        "3654": 108,
        "3655": 238,
        "3656": 236,
        "3657": 144,
        "3658": 119,
        "3659": 41,
        "3660": 1,
        "3661": 94,
        "3662": 140,
        "3663": 237,
        "3664": 53,
        "3665": 168,
        "3666": 15,
        "3667": 127,
        "3668": 168,
        "3669": 89,
        "3670": 21,
        "3671": 222,
        "3672": 120,
        "3673": 199,
        "3674": 248,
        "3675": 173,
        "3676": 171,
        "3677": 101,
        "3678": 41,
        "3679": 59,
        "3680": 142,
        "3681": 253,
        "3682": 88,
        "3683": 128,
        "3684": 250,
        "3685": 244,
        "3686": 146,
        "3687": 172,
        "3688": 122,
        "3689": 70,
        "3690": 251,
        "3691": 146,
        "3692": 180,
        "3693": 181,
        "3694": 57,
        "3695": 149,
        "3696": 172,
        "3697": 201,
        "3698": 210,
        "3699": 129,
        "3700": 88,
        "3701": 129,
        "3702": 78,
        "3703": 120,
        "3704": 180,
        "3705": 8,
        "3706": 129,
        "3707": 154,
        "3708": 251,
        "3709": 45,
        "3710": 234,
        "3711": 61,
        "3712": 187,
        "3713": 61,
        "3714": 245,
        "3715": 234,
        "3716": 20,
        "3717": 80,
        "3718": 171,
        "3719": 75,
        "3720": 230,
        "3721": 48,
        "3722": 229,
        "3723": 97,
        "3724": 211,
        "3725": 59,
        "3726": 126,
        "3727": 231,
        "3728": 106,
        "3729": 227,
        "3730": 160,
        "3731": 226,
        "3732": 34,
        "3733": 16,
        "3734": 108,
        "3735": 218,
        "3736": 69,
        "3737": 25,
        "3738": 195,
        "3739": 103,
        "3740": 157,
        "3741": 104,
        "3742": 86,
        "3743": 56,
        "3744": 73,
        "3745": 119,
        "3746": 217,
        "3747": 218,
        "3748": 182,
        "3749": 139,
        "3750": 124,
        "3751": 59,
        "3752": 228,
        "3753": 211,
        "3754": 100,
        "3755": 39,
        "3756": 164,
        "3757": 85,
        "3758": 131,
        "3759": 9,
        "3760": 12,
        "3761": 193,
        "3762": 210,
        "3763": 5,
        "3764": 44,
        "3765": 179,
        "3766": 128,
        "3767": 252,
        "3768": 249,
        "3769": 139,
        "3770": 145,
        "3771": 64,
        "3772": 183,
        "3773": 189,
        "3774": 38,
        "3775": 136,
        "3776": 198,
        "3777": 117,
        "3778": 95,
        "3779": 10,
        "3780": 213,
        "3781": 121,
        "3782": 159,
        "3783": 223,
        "3784": 158,
        "3785": 1,
        "3786": 3,
        "3787": 125,
        "3788": 45,
        "3789": 24,
        "3790": 122,
        "3791": 145,
        "3792": 247,
        "3793": 176,
        "3794": 125,
        "3795": 60,
        "3796": 51,
        "3797": 233,
        "3798": 121,
        "3799": 198,
        "3800": 61,
        "3801": 245,
        "3802": 133,
        "3803": 227,
        "3804": 243,
        "3805": 229,
        "3806": 200,
        "3807": 1,
        "3808": 189,
        "3809": 60,
        "3810": 184,
        "3811": 21,
        "3812": 11,
        "3813": 209,
        "3814": 43,
        "3815": 127,
        "3816": 13,
        "3817": 217,
        "3818": 228,
        "3819": 239,
        "3820": 31,
        "3821": 103,
        "3822": 213,
        "3823": 74,
        "3824": 32,
        "3825": 94,
        "3826": 9,
        "3827": 226,
        "3828": 19,
        "3829": 83,
        "3830": 207,
        "3831": 93,
        "3832": 99,
        "3833": 124,
        "3834": 103,
        "3835": 106,
        "3836": 126,
        "3837": 202,
        "3838": 204,
        "3839": 207,
        "3840": 230,
        "3841": 55,
        "3842": 75,
        "3843": 69,
        "3844": 192,
        "3845": 133,
        "3846": 163,
        "3847": 111,
        "3848": 18,
        "3849": 87,
        "3850": 19,
        "3851": 136,
        "3852": 113,
        "3853": 150,
        "3854": 55,
        "3855": 201,
        "3856": 130,
        "3857": 240,
        "3858": 86,
        "3859": 242,
        "3860": 126,
        "3861": 5,
        "3862": 28,
        "3863": 40,
        "3864": 72,
        "3865": 53,
        "3866": 96,
        "3867": 150,
        "3868": 188,
        "3869": 75,
        "3870": 196,
        "3871": 102,
        "3872": 244,
        "3873": 164,
        "3874": 39,
        "3875": 164,
        "3876": 184,
        "3877": 232,
        "3878": 126,
        "3879": 87,
        "3880": 41,
        "3881": 15,
        "3882": 7,
        "3883": 237,
        "3884": 8,
        "3885": 109,
        "3886": 254,
        "3887": 43,
        "3888": 60,
        "3889": 2,
        "3890": 215,
        "3891": 50,
        "3892": 247,
        "3893": 171,
        "3894": 186,
        "3895": 144,
        "3896": 19,
        "3897": 128,
        "3898": 62,
        "3899": 160,
        "3900": 170,
        "3901": 46,
        "3902": 60,
        "3903": 145,
        "3904": 246,
        "3905": 53,
        "3906": 153,
        "3907": 132,
        "3908": 75,
        "3909": 26,
        "3910": 199,
        "3911": 13,
        "3912": 238,
        "3913": 225,
        "3914": 70,
        "3915": 36,
        "3916": 14,
        "3917": 212,
        "3918": 3,
        "3919": 60,
        "3920": 153,
        "3921": 78,
        "3922": 4,
        "3923": 83,
        "3924": 89,
        "3925": 127,
        "3926": 54,
        "3927": 116,
        "3928": 42,
        "3929": 188,
        "3930": 31,
        "3931": 97,
        "3932": 88,
        "3933": 248,
        "3934": 212,
        "3935": 46,
        "3936": 165,
        "3937": 185,
        "3938": 40,
        "3939": 50,
        "3940": 97,
        "3941": 234,
        "3942": 90,
        "3943": 18,
        "3944": 206,
        "3945": 135,
        "3946": 191,
        "3947": 3,
        "3948": 135,
        "3949": 102,
        "3950": 192,
        "3951": 89,
        "3952": 134,
        "3953": 234,
        "3954": 68,
        "3955": 213,
        "3956": 79,
        "3957": 95,
        "3958": 192,
        "3959": 101,
        "3960": 220,
        "3961": 70,
        "3962": 136,
        "3963": 172,
        "3964": 160,
        "3965": 90,
        "3966": 213,
        "3967": 95,
        "3968": 10,
        "3969": 218,
        "3970": 84,
        "3971": 252,
        "3972": 240,
        "3973": 232,
        "3974": 117,
        "3975": 130,
        "3976": 92,
        "3977": 75,
        "3978": 202,
        "3979": 219,
        "3980": 57,
        "3981": 152,
        "3982": 249,
        "3983": 68,
        "3984": 238,
        "3985": 214,
        "3986": 240,
        "3987": 218,
        "3988": 169,
        "3989": 18,
        "3990": 252,
        "3991": 156,
        "3992": 22,
        "3993": 91,
        "3994": 167,
        "3995": 205,
        "3996": 213,
        "3997": 249,
        "3998": 16,
        "3999": 106,
        "4000": 172,
        "4001": 60,
        "4002": 205,
        "4003": 93,
        "4004": 76,
        "4005": 150,
        "4006": 51,
        "4007": 59,
        "4008": 201,
        "4009": 79,
        "4010": 237,
        "4011": 222,
        "4012": 7,
        "4013": 235,
        "4014": 125,
        "4015": 141,
        "4016": 31,
        "4017": 168,
        "4018": 23,
        "4019": 253,
        "4020": 212,
        "4021": 133,
        "4022": 57,
        "4023": 22,
        "4024": 226,
        "4025": 247,
        "4026": 147,
        "4027": 222,
        "4028": 43,
        "4029": 131,
        "4030": 81,
        "4031": 163,
        "4032": 76,
        "4033": 164,
        "4034": 29,
        "4035": 231,
        "4036": 136,
        "4037": 114,
        "4038": 245,
        "4039": 45,
        "4040": 166,
        "4041": 7,
        "4042": 9,
        "4043": 139,
        "4044": 135,
        "4045": 192,
        "4046": 129,
        "4047": 99,
        "4048": 240,
        "4049": 62,
        "4050": 125,
        "4051": 102,
        "4052": 74,
        "4053": 144,
        "4054": 42,
        "4055": 5,
        "4056": 152,
        "4057": 14,
        "4058": 153,
        "4059": 189,
        "4060": 95,
        "4061": 164,
        "4062": 34,
        "4063": 105,
        "4064": 223,
        "4065": 102,
        "4066": 61,
        "4067": 128,
        "4068": 197,
        "4069": 118,
        "4070": 78,
        "4071": 229,
        "4072": 168,
        "4073": 118,
        "4074": 253,
        "4075": 12,
        "4076": 160,
        "4077": 208,
        "4078": 120,
        "4079": 179,
        "4080": 132,
        "4081": 177,
        "4082": 40,
        "4083": 110,
        "4084": 149,
        "4085": 63,
        "4086": 148,
        "4087": 210,
        "4088": 166,
        "4089": 68,
        "4090": 248,
        "4091": 25,
        "4092": 97,
        "4093": 5,
        "4094": 92,
        "4095": 199,
        "4096": 239,
        "4097": 41,
        "4098": 207,
        "4099": 178,
        "4100": 40,
        "4101": 195,
        "4102": 166,
        "4103": 147,
        "4104": 254,
        "4105": 248,
        "4106": 169,
        "4107": 130,
        "4108": 238,
        "4109": 133,
        "4110": 10,
        "4111": 194,
        "4112": 239,
        "4113": 38,
        "4114": 244,
        "4115": 222,
        "4116": 141,
        "4117": 29,
        "4118": 236,
        "4119": 73,
        "4120": 33,
        "4121": 105,
        "4122": 179,
        "4123": 215,
        "4124": 55,
        "4125": 181,
        "4126": 109,
        "4127": 222,
        "4128": 189,
        "4129": 115,
        "4130": 150,
        "4131": 163,
        "4132": 107,
        "4133": 144,
        "4134": 135,
        "4135": 247,
        "4136": 240,
        "4137": 228,
        "4138": 41,
        "4139": 96,
        "4140": 53,
        "4141": 174,
        "4142": 148,
        "4143": 114,
        "4144": 84,
        "4145": 126,
        "4146": 29,
        "4147": 125,
        "4148": 64,
        "4149": 96,
        "4150": 169,
        "4151": 206,
        "4152": 240,
        "4153": 181,
        "4154": 213,
        "4155": 153,
        "4156": 213,
        "4157": 163,
        "4158": 175,
        "4159": 111,
        "4160": 251,
        "4161": 156,
        "4162": 181,
        "4163": 174,
        "4164": 16,
        "4165": 214,
        "4166": 59,
        "4167": 102,
        "4168": 229,
        "4169": 174,
        "4170": 97,
        "4171": 164,
        "4172": 252,
        "4173": 224,
        "4174": 49,
        "4175": 102,
        "4176": 213,
        "4177": 247,
        "4178": 45,
        "4179": 91,
        "4180": 244,
        "4181": 49,
        "4182": 164,
        "4183": 6,
        "4184": 28,
        "4185": 32,
        "4186": 148,
        "4187": 48,
        "4188": 239,
        "4189": 200,
        "4190": 97,
        "4191": 201,
        "4192": 30,
        "4193": 87,
        "4194": 55,
        "4195": 238,
        "4196": 237,
        "4197": 2,
        "4198": 231,
        "4199": 154,
        "4200": 8,
        "4201": 58,
        "4202": 214,
        "4203": 35,
        "4204": 5,
        "4205": 235,
        "4206": 88,
        "4207": 242,
        "4208": 164,
        "4209": 46,
        "4210": 22,
        "4211": 233,
        "4212": 42,
        "4213": 152,
        "4214": 150,
        "4215": 26,
        "4216": 205,
        "4217": 66,
        "4218": 189,
        "4219": 219,
        "4220": 49,
        "4221": 91,
        "4222": 205,
        "4223": 185,
        "4224": 27,
        "4225": 213,
        "4226": 213,
        "4227": 163,
        "4228": 120,
        "4229": 106,
        "4230": 142,
        "4231": 112,
        "4232": 152,
        "4233": 190,
        "4234": 240,
        "4235": 223,
        "4236": 211,
        "4237": 71,
        "4238": 154,
        "4239": 194,
        "4240": 152,
        "4241": 167,
        "4242": 3,
        "4243": 215,
        "4244": 138,
        "4245": 203,
        "4246": 139,
        "4247": 217,
        "4248": 143,
        "4249": 252,
        "4250": 251,
        "4251": 154,
        "4252": 23,
        "4253": 172,
        "4254": 76,
        "4255": 219,
        "4256": 200,
        "4257": 227,
        "4258": 43,
        "4259": 41,
        "4260": 144,
        "4261": 13,
        "4262": 184,
        "4263": 143,
        "4264": 213,
        "4265": 10,
        "4266": 50,
        "4267": 49,
        "4268": 3,
        "4269": 178,
        "4270": 229,
        "4271": 187,
        "4272": 48,
        "4273": 111,
        "4274": 25,
        "4275": 98,
        "4276": 126,
        "4277": 247,
        "4278": 235,
        "4279": 0,
        "4280": 127,
        "4281": 210,
        "4282": 74,
        "4283": 154,
        "4284": 188,
        "4285": 101,
        "4286": 43,
        "4287": 229,
        "4288": 68,
        "4289": 8,
        "4290": 35,
        "4291": 234,
        "4292": 137,
        "4293": 227,
        "4294": 162,
        "4295": 123,
        "4296": 9,
        "4297": 157,
        "4298": 101,
        "4299": 145,
        "4300": 115,
        "4301": 159,
        "4302": 47,
        "4303": 117,
        "4304": 223,
        "4305": 152,
        "4306": 85,
        "4307": 154,
        "4308": 211,
        "4309": 184,
        "4310": 177,
        "4311": 138,
        "4312": 156,
        "4313": 188,
        "4314": 185,
        "4315": 169,
        "4316": 55,
        "4317": 154,
        "4318": 5,
        "4319": 235,
        "4320": 32,
        "4321": 62,
        "4322": 229,
        "4323": 136,
        "4324": 236,
        "4325": 223,
        "4326": 13,
        "4327": 206,
        "4328": 84,
        "4329": 51,
        "4330": 75,
        "4331": 171,
        "4332": 102,
        "4333": 29,
        "4334": 3,
        "4335": 208,
        "4336": 121,
        "4337": 180,
        "4338": 134,
        "4339": 229,
        "4340": 209,
        "4341": 168,
        "4342": 108,
        "4343": 199,
        "4344": 26,
        "4345": 47,
        "4346": 136,
        "4347": 173,
        "4348": 231,
        "4349": 135,
        "4350": 110,
        "4351": 163,
        "4352": 29,
        "4353": 112,
        "4354": 53,
        "4355": 54,
        "4356": 65,
        "4357": 29,
        "4358": 247,
        "4359": 225,
        "4360": 225,
        "4361": 51,
        "4362": 224,
        "4363": 216,
        "4364": 149,
        "4365": 42,
        "4366": 79,
        "4367": 48,
        "4368": 156,
        "4369": 74,
        "4370": 189,
        "4371": 120,
        "4372": 68,
        "4373": 96,
        "4374": 60,
        "4375": 87,
        "4376": 240,
        "4377": 217,
        "4378": 100,
        "4379": 103,
        "4380": 62,
        "4381": 92,
        "4382": 101,
        "4383": 3,
        "4384": 156,
        "4385": 110,
        "4386": 108,
        "4387": 1,
        "4388": 72,
        "4389": 94,
        "4390": 224,
        "4391": 152,
        "4392": 58,
        "4393": 242,
        "4394": 209,
        "4395": 53,
        "4396": 141,
        "4397": 181,
        "4398": 243,
        "4399": 216,
        "4400": 165,
        "4401": 255,
        "4402": 147,
        "4403": 194,
        "4404": 75,
        "4405": 111,
        "4406": 110,
        "4407": 160,
        "4408": 160,
        "4409": 199,
        "4410": 235,
        "4411": 252,
        "4412": 228,
        "4413": 199,
        "4414": 158,
        "4415": 75,
        "4416": 48,
        "4417": 92,
        "4418": 38,
        "4419": 91,
        "4420": 104,
        "4421": 77,
        "4422": 150,
        "4423": 196,
        "4424": 189,
        "4425": 161,
        "4426": 65,
        "4427": 108,
        "4428": 231,
        "4429": 156,
        "4430": 13,
        "4431": 10,
        "4432": 72,
        "4433": 0,
        "4434": 80,
        "4435": 6,
        "4436": 249,
        "4437": 32,
        "4438": 44,
        "4439": 87,
        "4440": 104,
        "4441": 60,
        "4442": 92,
        "4443": 151,
        "4444": 154,
        "4445": 73,
        "4446": 234,
        "4447": 71,
        "4448": 122,
        "4449": 100,
        "4450": 46,
        "4451": 21,
        "4452": 8,
        "4453": 4,
        "4454": 8,
        "4455": 141,
        "4456": 102,
        "4457": 91,
        "4458": 150,
        "4459": 78,
        "4460": 62,
        "4461": 126,
        "4462": 143,
        "4463": 100,
        "4464": 82,
        "4465": 187,
        "4466": 205,
        "4467": 189,
        "4468": 102,
        "4469": 19,
        "4470": 251,
        "4471": 50,
        "4472": 79,
        "4473": 174,
        "4474": 12,
        "4475": 205,
        "4476": 93,
        "4477": 7,
        "4478": 108,
        "4479": 112,
        "4480": 68,
        "4481": 163,
        "4482": 179,
        "4483": 145,
        "4484": 34,
        "4485": 227,
        "4486": 171,
        "4487": 168,
        "4488": 162,
        "4489": 116,
        "4490": 64,
        "4491": 96,
        "4492": 219,
        "4493": 92,
        "4494": 53,
        "4495": 188,
        "4496": 188,
        "4497": 205,
        "4498": 91,
        "4499": 53,
        "4500": 14,
        "4501": 94,
        "4502": 201,
        "4503": 246,
        "4504": 66,
        "4505": 2,
        "4506": 114,
        "4507": 48,
        "4508": 68,
        "4509": 23,
        "4510": 157,
        "4511": 101,
        "4512": 182,
        "4513": 167,
        "4514": 33,
        "4515": 137,
        "4516": 97,
        "4517": 203,
        "4518": 27,
        "4519": 6,
        "4520": 37,
        "4521": 178,
        "4522": 196,
        "4523": 200,
        "4524": 222,
        "4525": 144,
        "4526": 64,
        "4527": 216,
        "4528": 216,
        "4529": 215,
        "4530": 163,
        "4531": 227,
        "4532": 234,
        "4533": 244,
        "4534": 208,
        "4535": 243,
        "4536": 220,
        "4537": 44,
        "4538": 99,
        "4539": 49,
        "4540": 119,
        "4541": 234,
        "4542": 192,
        "4543": 27,
        "4544": 56,
        "4545": 134,
        "4546": 235,
        "4547": 186,
        "4548": 66,
        "4549": 142,
        "4550": 47,
        "4551": 179,
        "4552": 47,
        "4553": 5,
        "4554": 2,
        "4555": 140,
        "4556": 37,
        "4557": 119,
        "4558": 15,
        "4559": 92,
        "4560": 142,
        "4561": 201,
        "4562": 18,
        "4563": 69,
        "4564": 88,
        "4565": 221,
        "4566": 6,
        "4567": 191,
        "4568": 50,
        "4569": 125,
        "4570": 47,
        "4571": 151,
        "4572": 175,
        "4573": 200,
        "4574": 192,
        "4575": 1,
        "4576": 220,
        "4577": 158,
        "4578": 51,
        "4579": 83,
        "4580": 82,
        "4581": 243,
        "4582": 29,
        "4583": 28,
        "4584": 15,
        "4585": 157,
        "4586": 135,
        "4587": 105,
        "4588": 30,
        "4589": 246,
        "4590": 26,
        "4591": 215,
        "4592": 254,
        "4593": 237,
        "4594": 27,
        "4595": 44,
        "4596": 95,
        "4597": 244,
        "4598": 135,
        "4599": 228,
        "4600": 21,
        "4601": 114,
        "4602": 16,
        "4603": 223,
        "4604": 162,
        "4605": 57,
        "4606": 31,
        "4607": 22,
        "4608": 76,
        "4609": 201,
        "4610": 161,
        "4611": 246,
        "4612": 216,
        "4613": 70,
        "4614": 141,
        "4615": 17,
        "4616": 56,
        "4617": 141,
        "4618": 159,
        "4619": 158,
        "4620": 6,
        "4621": 205,
        "4622": 183,
        "4623": 169,
        "4624": 19,
        "4625": 236,
        "4626": 89,
        "4627": 165,
        "4628": 179,
        "4629": 64,
        "4630": 101,
        "4631": 33,
        "4632": 176,
        "4633": 205,
        "4634": 136,
        "4635": 92,
        "4636": 148,
        "4637": 1,
        "4638": 67,
        "4639": 157,
        "4640": 239,
        "4641": 142,
        "4642": 227,
        "4643": 195,
        "4644": 158,
        "4645": 14,
        "4646": 100,
        "4647": 212,
        "4648": 158,
        "4649": 54,
        "4650": 4,
        "4651": 119,
        "4652": 138,
        "4653": 89,
        "4654": 40,
        "4655": 53,
        "4656": 251,
        "4657": 252,
        "4658": 10,
        "4659": 195,
        "4660": 158,
        "4661": 31,
        "4662": 63,
        "4663": 168,
        "4664": 115,
        "4665": 142,
        "4666": 50,
        "4667": 5,
        "4668": 55,
        "4669": 202,
        "4670": 247,
        "4671": 81,
        "4672": 193,
        "4673": 79,
        "4674": 211,
        "4675": 98,
        "4676": 35,
        "4677": 140,
        "4678": 237,
        "4679": 75,
        "4680": 21,
        "4681": 25,
        "4682": 181,
        "4683": 197,
        "4684": 222,
        "4685": 48,
        "4686": 204,
        "4687": 250,
        "4688": 73,
        "4689": 90,
        "4690": 216,
        "4691": 126,
        "4692": 49,
        "4693": 39,
        "4694": 155,
        "4695": 231,
        "4696": 69,
        "4697": 19,
        "4698": 27,
        "4699": 231,
        "4700": 113,
        "4701": 47,
        "4702": 80,
        "4703": 187,
        "4704": 186,
        "4705": 245,
        "4706": 189,
        "4707": 115,
        "4708": 192,
        "4709": 153,
        "4710": 117,
        "4711": 94,
        "4712": 250,
        "4713": 141,
        "4714": 111,
        "4715": 134,
        "4716": 77,
        "4717": 242,
        "4718": 149,
        "4719": 157,
        "4720": 250,
        "4721": 228,
        "4722": 47,
        "4723": 90,
        "4724": 47,
        "4725": 184,
        "4726": 172,
        "4727": 241,
        "4728": 108,
        "4729": 86,
        "4730": 102,
        "4731": 190,
        "4732": 159,
        "4733": 89,
        "4734": 215,
        "4735": 102,
        "4736": 210,
        "4737": 126,
        "4738": 88,
        "4739": 169,
        "4740": 234,
        "4741": 191,
        "4742": 151,
        "4743": 219,
        "4744": 125,
        "4745": 37,
        "4746": 244,
        "4747": 58,
        "4748": 47,
        "4749": 85,
        "4750": 20,
        "4751": 27,
        "4752": 16,
        "4753": 163,
        "4754": 32,
        "4755": 20,
        "4756": 213,
        "4757": 67,
        "4758": 37,
        "4759": 57,
        "4760": 222,
        "4761": 36,
        "4762": 31,
        "4763": 176,
        "4764": 28,
        "4765": 163,
        "4766": 254,
        "4767": 233,
        "4768": 225,
        "4769": 34,
        "4770": 185,
        "4771": 149,
        "4772": 154,
        "4773": 163,
        "4774": 202,
        "4775": 124,
        "4776": 162,
        "4777": 205,
        "4778": 228,
        "4779": 167,
        "4780": 76,
        "4781": 207,
        "4782": 201,
        "4783": 242,
        "4784": 98,
        "4785": 137,
        "4786": 43,
        "4787": 155,
        "4788": 111,
        "4789": 162,
        "4790": 71,
        "4791": 233,
        "4792": 145,
        "4793": 212,
        "4794": 235,
        "4795": 191,
        "4796": 43,
        "4797": 249,
        "4798": 122,
        "4799": 69,
        "4800": 127,
        "4801": 160,
        "4802": 255,
        "4803": 131,
        "4804": 31,
        "4805": 75,
        "4806": 139,
        "4807": 145,
        "4808": 193,
        "4809": 34,
        "4810": 143,
        "4811": 84,
        "4812": 218,
        "4813": 92,
        "4814": 41,
        "4815": 141,
        "4816": 122,
        "4817": 15,
        "4818": 46,
        "4819": 16,
        "4820": 197,
        "4821": 121,
        "4822": 242,
        "4823": 149,
        "4824": 207,
        "4825": 133,
        "4826": 234,
        "4827": 82,
        "4828": 173,
        "4829": 50,
        "4830": 152,
        "4831": 52,
        "4832": 23,
        "4833": 158,
        "4834": 201,
        "4835": 171,
        "4836": 192,
        "4837": 94,
        "4838": 178,
        "4839": 178,
        "4840": 28,
        "4841": 3,
        "4842": 22,
        "4843": 239,
        "4844": 96,
        "4845": 11,
        "4846": 118,
        "4847": 154,
        "4848": 12,
        "4849": 213,
        "4850": 146,
        "4851": 133,
        "4852": 173,
        "4853": 3,
        "4854": 54,
        "4855": 139,
        "4856": 157,
        "4857": 188,
        "4858": 236,
        "4859": 1,
        "4860": 30,
        "4861": 227,
        "4862": 111,
        "4863": 215,
        "4864": 15,
        "4865": 43,
        "4866": 223,
        "4867": 155,
        "4868": 230,
        "4869": 206,
        "4870": 161,
        "4871": 210,
        "4872": 102,
        "4873": 239,
        "4874": 236,
        "4875": 140,
        "4876": 184,
        "4877": 159,
        "4878": 153,
        "4879": 216,
        "4880": 146,
        "4881": 183,
        "4882": 133,
        "4883": 173,
        "4884": 131,
        "4885": 9,
        "4886": 98,
        "4887": 240,
        "4888": 33,
        "4889": 29,
        "4890": 38,
        "4891": 105,
        "4892": 150,
        "4893": 166,
        "4894": 12,
        "4895": 93,
        "4896": 207,
        "4897": 109,
        "4898": 194,
        "4899": 98,
        "4900": 140,
        "4901": 188,
        "4902": 169,
        "4903": 23,
        "4904": 130,
        "4905": 129,
        "4906": 206,
        "4907": 103,
        "4908": 3,
        "4909": 11,
        "4910": 36,
        "4911": 252,
        "4912": 153,
        "4913": 103,
        "4914": 28,
        "4915": 112,
        "4916": 204,
        "4917": 198,
        "4918": 57,
        "4919": 42,
        "4920": 22,
        "4921": 190,
        "4922": 145,
        "4923": 165,
        "4924": 39,
        "4925": 22,
        "4926": 228,
        "4927": 5,
        "4928": 129,
        "4929": 112,
        "4930": 243,
        "4931": 35,
        "4932": 245,
        "4933": 68,
        "4934": 52,
        "4935": 35,
        "4936": 228,
        "4937": 116,
        "4938": 228,
        "4939": 69,
        "4940": 95,
        "4941": 110,
        "4942": 155,
        "4943": 127,
        "4944": 72,
        "4945": 196,
        "4946": 61,
        "4947": 135,
        "4948": 239,
        "4949": 171,
        "4950": 250,
        "4951": 248,
        "4952": 46,
        "4953": 236,
        "4954": 126,
        "4955": 87,
        "4956": 35,
        "4957": 215,
        "4958": 89,
        "4959": 43,
        "4960": 30,
        "4961": 139,
        "4962": 190,
        "4963": 243,
        "4964": 90,
        "4965": 6,
        "4966": 170,
        "4967": 192,
        "4968": 232,
        "4969": 221,
        "4970": 131,
        "4971": 59,
        "4972": 72,
        "4973": 190,
        "4974": 240,
        "4975": 198,
        "4976": 19,
        "4977": 88,
        "4978": 88,
        "4979": 0,
        "4980": 22,
        "4981": 145,
        "4982": 221,
        "4983": 171,
        "4984": 7,
        "4985": 165,
        "4986": 179,
        "4987": 246,
        "4988": 238,
        "4989": 7,
        "4990": 250,
        "4991": 76,
        "4992": 52,
        "4993": 116,
        "4994": 36,
        "4995": 171,
        "4996": 245,
        "4997": 8,
        "4998": 82,
        "4999": 67,
        "5000": 11,
        "5001": 168,
        "5002": 83,
        "5003": 66,
        "5004": 185,
        "5005": 224,
        "5006": 242,
        "5007": 137,
        "5008": 224,
        "5009": 83,
        "5010": 233,
        "5011": 51,
        "5012": 70,
        "5013": 71,
        "5014": 214,
        "5015": 214,
        "5016": 202,
        "5017": 31,
        "5018": 27,
        "5019": 197,
        "5020": 16,
        "5021": 118,
        "5022": 167,
        "5023": 28,
        "5024": 7,
        "5025": 49,
        "5026": 211,
        "5027": 147,
        "5028": 18,
        "5029": 211,
        "5030": 178,
        "5031": 99,
        "5032": 36,
        "5033": 65,
        "5034": 56,
        "5035": 59,
        "5036": 96,
        "5037": 247,
        "5038": 149,
        "5039": 20,
        "5040": 103,
        "5041": 29,
        "5042": 39,
        "5043": 40,
        "5044": 255,
        "5045": 207,
        "5046": 228,
        "5047": 129,
        "5048": 91,
        "5049": 137,
        "5050": 213,
        "5051": 85,
        "5052": 115,
        "5053": 23,
        "5054": 1,
        "5055": 252,
        "5056": 136,
        "5057": 117,
        "5058": 53,
        "5059": 60,
        "5060": 255,
        "5061": 163,
        "5062": 63,
        "5063": 165,
        "5064": 210,
        "5065": 173,
        "5066": 69,
        "5067": 45,
        "5068": 156,
        "5069": 167,
        "5070": 244,
        "5071": 24,
        "5072": 204,
        "5073": 170,
        "5074": 250,
        "5075": 49,
        "5076": 231,
        "5077": 231,
        "5078": 222,
        "5079": 51,
        "5080": 94,
        "5081": 230,
        "5082": 4,
        "5083": 83,
        "5084": 225,
        "5085": 35,
        "5086": 196,
        "5087": 171,
        "5088": 175,
        "5089": 153,
        "5090": 27,
        "5091": 219,
        "5092": 193,
        "5093": 95,
        "5094": 147,
        "5095": 6,
        "5096": 192,
        "5097": 213,
        "5098": 80,
        "5099": 92,
        "5100": 218,
        "5101": 136,
        "5102": 210,
        "5103": 101,
        "5104": 80,
        "5105": 71,
        "5106": 231,
        "5107": 34,
        "5108": 139,
        "5109": 12,
        "5110": 229,
        "5111": 60,
        "5112": 119,
        "5113": 113,
        "5114": 122,
        "5115": 215,
        "5116": 221,
        "5117": 42,
        "5118": 28,
        "5119": 148,
        "5120": 116,
        "5121": 160,
        "5122": 6,
        "5123": 143,
        "5124": 189,
        "5125": 20,
        "5126": 180,
        "5127": 123,
        "5128": 240,
        "5129": 107,
        "5130": 155,
        "5131": 25,
        "5132": 207,
        "5133": 229,
        "5134": 208,
        "5135": 207,
        "5136": 38,
        "5137": 163,
        "5138": 88,
        "5139": 163,
        "5140": 182,
        "5141": 35,
        "5142": 57,
        "5143": 193,
        "5144": 166,
        "5145": 39,
        "5146": 76,
        "5147": 59,
        "5148": 251,
        "5149": 128,
        "5150": 132,
        "5151": 65,
        "5152": 70,
        "5153": 34,
        "5154": 103,
        "5155": 93,
        "5156": 77,
        "5157": 104,
        "5158": 163,
        "5159": 22,
        "5160": 103,
        "5161": 58,
        "5162": 208,
        "5163": 49,
        "5164": 70,
        "5165": 71,
        "5166": 81,
        "5167": 231,
        "5168": 251,
        "5169": 94,
        "5170": 50,
        "5171": 39,
        "5172": 99,
        "5173": 179,
        "5174": 0,
        "5175": 141,
        "5176": 148,
        "5177": 131,
        "5178": 109,
        "5179": 4,
        "5180": 130,
        "5181": 8,
        "5182": 62,
        "5183": 51,
        "5184": 42,
        "5185": 26,
        "5186": 160,
        "5187": 177,
        "5188": 187,
        "5189": 218,
        "5190": 225,
        "5191": 37,
        "5192": 75,
        "5193": 144,
        "5194": 104,
        "5195": 13,
        "5196": 194,
        "5197": 230,
        "5198": 44,
        "5199": 131,
        "5200": 255,
        "5201": 57,
        "5202": 180,
        "5203": 240,
        "5204": 238,
        "5205": 72,
        "5206": 109,
        "5207": 59,
        "5208": 102,
        "5209": 76,
        "5210": 62,
        "5211": 241,
        "5212": 186,
        "5213": 116,
        "5214": 138,
        "5215": 232,
        "5216": 136,
        "5217": 96,
        "5218": 54,
        "5219": 221,
        "5220": 85,
        "5221": 228,
        "5222": 107,
        "5223": 109,
        "5224": 217,
        "5225": 173,
        "5226": 145,
        "5227": 46,
        "5228": 252,
        "5229": 241,
        "5230": 94,
        "5231": 247,
        "5232": 149,
        "5233": 206,
        "5234": 55,
        "5235": 120,
        "5236": 43,
        "5237": 195,
        "5238": 192,
        "5239": 122,
        "5240": 230,
        "5241": 44,
        "5242": 48,
        "5243": 37,
        "5244": 110,
        "5245": 49,
        "5246": 60,
        "5247": 190,
        "5248": 148,
        "5249": 87,
        "5250": 147,
        "5251": 141,
        "5252": 32,
        "5253": 108,
        "5254": 234,
        "5255": 174,
        "5256": 45,
        "5257": 198,
        "5258": 60,
        "5259": 5,
        "5260": 231,
        "5261": 83,
        "5262": 133,
        "5263": 184,
        "5264": 185,
        "5265": 86,
        "5266": 67,
        "5267": 242,
        "5268": 23,
        "5269": 133,
        "5270": 174,
        "5271": 145,
        "5272": 151,
        "5273": 227,
        "5274": 106,
        "5275": 196,
        "5276": 169,
        "5277": 36,
        "5278": 6,
        "5279": 101,
        "5280": 10,
        "5281": 216,
        "5282": 46,
        "5283": 148,
        "5284": 188,
        "5285": 214,
        "5286": 244,
        "5287": 12,
        "5288": 121,
        "5289": 13,
        "5290": 236,
        "5291": 42,
        "5292": 173,
        "5293": 220,
        "5294": 140,
        "5295": 69,
        "5296": 130,
        "5297": 167,
        "5298": 117,
        "5299": 229,
        "5300": 51,
        "5301": 54,
        "5302": 7,
        "5303": 38,
        "5304": 232,
        "5305": 135,
        "5306": 42,
        "5307": 114,
        "5308": 6,
        "5309": 217,
        "5310": 41,
        "5311": 88,
        "5312": 49,
        "5313": 34,
        "5314": 32,
        "5315": 20,
        "5316": 118,
        "5317": 255,
        "5318": 30,
        "5319": 239,
        "5320": 70,
        "5321": 118,
        "5322": 117,
        "5323": 27,
        "5324": 140,
        "5325": 57,
        "5326": 203,
        "5327": 1,
        "5328": 48,
        "5329": 68,
        "5330": 140,
        "5331": 115,
        "5332": 42,
        "5333": 220,
        "5334": 177,
        "5335": 45,
        "5336": 171,
        "5337": 15,
        "5338": 29,
        "5339": 182,
        "5340": 208,
        "5341": 167,
        "5342": 140,
        "5343": 30,
        "5344": 99,
        "5345": 175,
        "5346": 163,
        "5347": 176,
        "5348": 122,
        "5349": 25,
        "5350": 237,
        "5351": 148,
        "5352": 8,
        "5353": 191,
        "5354": 16,
        "5355": 124,
        "5356": 125,
        "5357": 59,
        "5358": 47,
        "5359": 225,
        "5360": 183,
        "5361": 130,
        "5362": 20,
        "5363": 234,
        "5364": 208,
        "5365": 120,
        "5366": 227,
        "5367": 13,
        "5368": 187,
        "5369": 222,
        "5370": 42,
        "5371": 88,
        "5372": 33,
        "5373": 26,
        "5374": 33,
        "5375": 126,
        "5376": 8,
        "5377": 177,
        "5378": 59,
        "5379": 141,
        "5380": 118,
        "5381": 234,
        "5382": 211,
        "5383": 220,
        "5384": 209,
        "5385": 75,
        "5386": 239,
        "5387": 92,
        "5388": 9,
        "5389": 241,
        "5390": 41,
        "5391": 46,
        "5392": 206,
        "5393": 109,
        "5394": 244,
        "5395": 193,
        "5396": 149,
        "5397": 136,
        "5398": 183,
        "5399": 74,
        "5400": 126,
        "5401": 131,
        "5402": 44,
        "5403": 13,
        "5404": 209,
        "5405": 174,
        "5406": 161,
        "5407": 28,
        "5408": 100,
        "5409": 130,
        "5410": 213,
        "5411": 123,
        "5412": 234,
        "5413": 195,
        "5414": 251,
        "5415": 67,
        "5416": 111,
        "5417": 100,
        "5418": 151,
        "5419": 114,
        "5420": 185,
        "5421": 82,
        "5422": 183,
        "5423": 67,
        "5424": 153,
        "5425": 126,
        "5426": 238,
        "5427": 89,
        "5428": 122,
        "5429": 178,
        "5430": 239,
        "5431": 17,
        "5432": 157,
        "5433": 117,
        "5434": 184,
        "5435": 145,
        "5436": 60,
        "5437": 206,
        "5438": 102,
        "5439": 20,
        "5440": 92,
        "5441": 35,
        "5442": 144,
        "5443": 232,
        "5444": 21,
        "5445": 160,
        "5446": 153,
        "5447": 190,
        "5448": 55,
        "5449": 54,
        "5450": 182,
        "5451": 240,
        "5452": 196,
        "5453": 217,
        "5454": 118,
        "5455": 40,
        "5456": 57,
        "5457": 131,
        "5458": 153,
        "5459": 177,
        "5460": 155,
        "5461": 109,
        "5462": 149,
        "5463": 183,
        "5464": 163,
        "5465": 99,
        "5466": 111,
        "5467": 33,
        "5468": 159,
        "5469": 174,
        "5470": 229,
        "5471": 50,
        "5472": 179,
        "5473": 179,
        "5474": 129,
        "5475": 37,
        "5476": 236,
        "5477": 135,
        "5478": 95,
        "5479": 196,
        "5480": 143,
        "5481": 222,
        "5482": 254,
        "5483": 184,
        "5484": 253,
        "5485": 56,
        "5486": 54,
        "5487": 116,
        "5488": 82,
        "5489": 237,
        "5490": 183,
        "5491": 209,
        "5492": 34,
        "5493": 92,
        "5494": 228,
        "5495": 119,
        "5496": 217,
        "5497": 171,
        "5498": 177,
        "5499": 211,
        "5500": 141,
        "5501": 136,
        "5502": 32,
        "5503": 148,
        "5504": 217,
        "5505": 251,
        "5506": 91,
        "5507": 26,
        "5508": 24,
        "5509": 232,
        "5510": 188,
        "5511": 52,
        "5512": 226,
        "5513": 51,
        "5514": 165,
        "5515": 246,
        "5516": 65,
        "5517": 94,
        "5518": 248,
        "5519": 24,
        "5520": 48,
        "5521": 136,
        "5522": 30,
        "5523": 66,
        "5524": 244,
        "5525": 204,
        "5526": 7,
        "5527": 147,
        "5528": 78,
        "5529": 190,
        "5530": 143,
        "5531": 86,
        "5532": 81,
        "5533": 162,
        "5534": 247,
        "5535": 228,
        "5536": 135,
        "5537": 48,
        "5538": 124,
        "5539": 216,
        "5540": 223,
        "5541": 195,
        "5542": 74,
        "5543": 136,
        "5544": 73,
        "5545": 59,
        "5546": 153,
        "5547": 245,
        "5548": 17,
        "5549": 27,
        "5550": 181,
        "5551": 197,
        "5552": 65,
        "5553": 159,
        "5554": 235,
        "5555": 43,
        "5556": 112,
        "5557": 23,
        "5558": 196,
        "5559": 150,
        "5560": 36,
        "5561": 185,
        "5562": 75,
        "5563": 79,
        "5564": 120,
        "5565": 35,
        "5566": 104,
        "5567": 41,
        "5568": 155,
        "5569": 87,
        "5570": 35,
        "5571": 172,
        "5572": 108,
        "5573": 57,
        "5574": 158,
        "5575": 199,
        "5576": 231,
        "5577": 38,
        "5578": 91,
        "5579": 41,
        "5580": 94,
        "5581": 242,
        "5582": 197,
        "5583": 152,
        "5584": 182,
        "5585": 44,
        "5586": 2,
        "5587": 165,
        "5588": 32,
        "5589": 44,
        "5590": 19,
        "5591": 122,
        "5592": 196,
        "5593": 76,
        "5594": 218,
        "5595": 39,
        "5596": 159,
        "5597": 191,
        "5598": 139,
        "5599": 66,
        "5600": 93,
        "5601": 56,
        "5602": 13,
        "5603": 170,
        "5604": 120,
        "5605": 29,
        "5606": 19,
        "5607": 17,
        "5608": 41,
        "5609": 225,
        "5610": 179,
        "5611": 4,
        "5612": 176,
        "5613": 34,
        "5614": 170,
        "5615": 132,
        "5616": 163,
        "5617": 86,
        "5618": 236,
        "5619": 74,
        "5620": 33,
        "5621": 128,
        "5622": 3,
        "5623": 67,
        "5624": 154,
        "5625": 130,
        "5626": 236,
        "5627": 251,
        "5628": 248,
        "5629": 29,
        "5630": 32,
        "5631": 59,
        "5632": 181,
        "5633": 26,
        "5634": 245,
        "5635": 180,
        "5636": 128,
        "5637": 212,
        "5638": 47,
        "5639": 69,
        "5640": 120,
        "5641": 162,
        "5642": 239,
        "5643": 90,
        "5644": 137,
        "5645": 34,
        "5646": 253,
        "5647": 6,
        "5648": 194,
        "5649": 59,
        "5650": 220,
        "5651": 78,
        "5652": 38,
        "5653": 151,
        "5654": 191,
        "5655": 239,
        "5656": 152,
        "5657": 228,
        "5658": 83,
        "5659": 200,
        "5660": 6,
        "5661": 24,
        "5662": 250,
        "5663": 232,
        "5664": 29,
        "5665": 150,
        "5666": 143,
        "5667": 50,
        "5668": 71,
        "5669": 66,
        "5670": 159,
        "5671": 77,
        "5672": 242,
        "5673": 181,
        "5674": 126,
        "5675": 124,
        "5676": 149,
        "5677": 184,
        "5678": 2,
        "5679": 68,
        "5680": 128,
        "5681": 130,
        "5682": 221,
        "5683": 59,
        "5684": 6,
        "5685": 255,
        "5686": 250,
        "5687": 47,
        "5688": 199,
        "5689": 133,
        "5690": 48,
        "5691": 144,
        "5692": 235,
        "5693": 193,
        "5694": 159,
        "5695": 177,
        "5696": 165,
        "5697": 48,
        "5698": 202,
        "5699": 61,
        "5700": 24,
        "5701": 211,
        "5702": 178,
        "5703": 123,
        "5704": 130,
        "5705": 169,
        "5706": 229,
        "5707": 160,
        "5708": 214,
        "5709": 38,
        "5710": 24,
        "5711": 156,
        "5712": 98,
        "5713": 209,
        "5714": 54,
        "5715": 41,
        "5716": 36,
        "5717": 149,
        "5718": 58,
        "5719": 248,
        "5720": 128,
        "5721": 5,
        "5722": 226,
        "5723": 231,
        "5724": 191,
        "5725": 247,
        "5726": 44,
        "5727": 51,
        "5728": 18,
        "5729": 19,
        "5730": 132,
        "5731": 151,
        "5732": 154,
        "5733": 162,
        "5734": 123,
        "5735": 85,
        "5736": 72,
        "5737": 189,
        "5738": 219,
        "5739": 221,
        "5740": 80,
        "5741": 88,
        "5742": 61,
        "5743": 65,
        "5744": 148,
        "5745": 55,
        "5746": 112,
        "5747": 107,
        "5748": 155,
        "5749": 228,
        "5750": 180,
        "5751": 223,
        "5752": 223,
        "5753": 204,
        "5754": 65,
        "5755": 249,
        "5756": 243,
        "5757": 159,
        "5758": 78,
        "5759": 136,
        "5760": 189,
        "5761": 149,
        "5762": 196,
        "5763": 141,
        "5764": 221,
        "5765": 208,
        "5766": 111,
        "5767": 33,
        "5768": 9,
        "5769": 91,
        "5770": 138,
        "5771": 97,
        "5772": 218,
        "5773": 142,
        "5774": 14,
        "5775": 28,
        "5776": 96,
        "5777": 206,
        "5778": 148,
        "5779": 42,
        "5780": 128,
        "5781": 237,
        "5782": 211,
        "5783": 179,
        "5784": 195,
        "5785": 85,
        "5786": 187,
        "5787": 162,
        "5788": 39,
        "5789": 135,
        "5790": 112,
        "5791": 96,
        "5792": 48,
        "5793": 108,
        "5794": 77,
        "5795": 152,
        "5796": 106,
        "5797": 49,
        "5798": 87,
        "5799": 192,
        "5800": 238,
        "5801": 126,
        "5802": 217,
        "5803": 47,
        "5804": 226,
        "5805": 216,
        "5806": 21,
        "5807": 224,
        "5808": 199,
        "5809": 15,
        "5810": 241,
        "5811": 131,
        "5812": 215,
        "5813": 206,
        "5814": 213,
        "5815": 28,
        "5816": 18,
        "5817": 54,
        "5818": 53,
        "5819": 177,
        "5820": 103,
        "5821": 161,
        "5822": 192,
        "5823": 254,
        "5824": 251,
        "5825": 173,
        "5826": 45,
        "5827": 149,
        "5828": 40,
        "5829": 138,
        "5830": 46,
        "5831": 123,
        "5832": 5,
        "5833": 142,
        "5834": 64,
        "5835": 42,
        "5836": 195,
        "5837": 150,
        "5838": 86,
        "5839": 117,
        "5840": 182,
        "5841": 37,
        "5842": 208,
        "5843": 64,
        "5844": 52,
        "5845": 103,
        "5846": 128,
        "5847": 141,
        "5848": 224,
        "5849": 85,
        "5850": 63,
        "5851": 40,
        "5852": 38,
        "5853": 119,
        "5854": 62,
        "5855": 63,
        "5856": 138,
        "5857": 249,
        "5858": 115,
        "5859": 227,
        "5860": 91,
        "5861": 142,
        "5862": 97,
        "5863": 219,
        "5864": 95,
        "5865": 254,
        "5866": 62,
        "5867": 189,
        "5868": 53,
        "5869": 86,
        "5870": 130,
        "5871": 151,
        "5872": 80,
        "5873": 251,
        "5874": 121,
        "5875": 37,
        "5876": 193,
        "5877": 207,
        "5878": 198,
        "5879": 89,
        "5880": 224,
        "5881": 174,
        "5882": 39,
        "5883": 139,
        "5884": 44,
        "5885": 150,
        "5886": 177,
        "5887": 200,
        "5888": 47,
        "5889": 15,
        "5890": 102,
        "5891": 116,
        "5892": 64,
        "5893": 205,
        "5894": 193,
        "5895": 88,
        "5896": 109,
        "5897": 37,
        "5898": 230,
        "5899": 46,
        "5900": 36,
        "5901": 69,
        "5902": 8,
        "5903": 206,
        "5904": 2,
        "5905": 192,
        "5906": 33,
        "5907": 168,
        "5908": 100,
        "5909": 85,
        "5910": 118,
        "5911": 244,
        "5912": 33,
        "5913": 34,
        "5914": 232,
        "5915": 242,
        "5916": 12,
        "5917": 11,
        "5918": 35,
        "5919": 195,
        "5920": 99,
        "5921": 248,
        "5922": 134,
        "5923": 151,
        "5924": 141,
        "5925": 70,
        "5926": 114,
        "5927": 58,
        "5928": 92,
        "5929": 112,
        "5930": 226,
        "5931": 48,
        "5932": 116,
        "5933": 85,
        "5934": 156,
        "5935": 209,
        "5936": 73,
        "5937": 153,
        "5938": 32,
        "5939": 153,
        "5940": 53,
        "5941": 61,
        "5942": 239,
        "5943": 109,
        "5944": 58,
        "5945": 188,
        "5946": 93,
        "5947": 37,
        "5948": 152,
        "5949": 202,
        "5950": 246,
        "5951": 60,
        "5952": 227,
        "5953": 116,
        "5954": 118,
        "5955": 96,
        "5956": 202,
        "5957": 39,
        "5958": 23,
        "5959": 226,
        "5960": 106,
        "5961": 95,
        "5962": 30,
        "5963": 77,
        "5964": 25,
        "5965": 241,
        "5966": 127,
        "5967": 250,
        "5968": 229,
        "5969": 10,
        "5970": 2,
        "5971": 236,
        "5972": 20,
        "5973": 199,
        "5974": 39,
        "5975": 133,
        "5976": 47,
        "5977": 126,
        "5978": 83,
        "5979": 15,
        "5980": 128,
        "5981": 145,
        "5982": 193,
        "5983": 106,
        "5984": 241,
        "5985": 82,
        "5986": 252,
        "5987": 127,
        "5988": 97,
        "5989": 58,
        "5990": 254,
        "5991": 16,
        "5992": 53,
        "5993": 152,
        "5994": 156,
        "5995": 91,
        "5996": 193,
        "5997": 228,
        "5998": 198,
        "5999": 14,
        "6000": 34,
        "6001": 175,
        "6002": 177,
        "6003": 2,
        "6004": 223,
        "6005": 32,
        "6006": 21,
        "6007": 108,
        "6008": 27,
        "6009": 80,
        "6010": 63,
        "6011": 244,
        "6012": 94,
        "6013": 238,
        "6014": 240,
        "6015": 84,
        "6016": 11,
        "6017": 241,
        "6018": 242,
        "6019": 60,
        "6020": 221,
        "6021": 65,
        "6022": 183,
        "6023": 122,
        "6024": 114,
        "6025": 74,
        "6026": 163,
        "6027": 5,
        "6028": 83,
        "6029": 188,
        "6030": 41,
        "6031": 163,
        "6032": 95,
        "6033": 85,
        "6034": 145,
        "6035": 61,
        "6036": 130,
        "6037": 68,
        "6038": 15,
        "6039": 158,
        "6040": 26,
        "6041": 213,
        "6042": 6,
        "6043": 204,
        "6044": 69,
        "6045": 101,
        "6046": 101,
        "6047": 110,
        "6048": 111,
        "6049": 1,
        "6050": 16,
        "6051": 57,
        "6052": 179,
        "6053": 193,
        "6054": 240,
        "6055": 255,
        "6056": 4,
        "6057": 155,
        "6058": 218,
        "6059": 193,
        "6060": 215,
        "6061": 83,
        "6062": 9,
        "6063": 103,
        "6064": 28,
        "6065": 162,
        "6066": 85,
        "6067": 235,
        "6068": 243,
        "6069": 219,
        "6070": 48,
        "6071": 154,
        "6072": 236,
        "6073": 244,
        "6074": 63,
        "6075": 229,
        "6076": 5,
        "6077": 114,
        "6078": 174,
        "6079": 160,
        "6080": 186,
        "6081": 179,
        "6082": 139,
        "6083": 173,
        "6084": 153,
        "6085": 119,
        "6086": 141,
        "6087": 23,
        "6088": 180,
        "6089": 255,
        "6090": 180,
        "6091": 182,
        "6092": 188,
        "6093": 179,
        "6094": 110,
        "6095": 61,
        "6096": 245,
        "6097": 192,
        "6098": 125,
        "6099": 77,
        "6100": 42,
        "6101": 26,
        "6102": 9,
        "6103": 237,
        "6104": 93,
        "6105": 134,
        "6106": 191,
        "6107": 238,
        "6108": 106,
        "6109": 173,
        "6110": 227,
        "6111": 252,
        "6112": 164,
        "6113": 103,
        "6114": 179,
        "6115": 221,
        "6116": 48,
        "6117": 177,
        "6118": 138,
        "6119": 137,
        "6120": 191,
        "6121": 226,
        "6122": 185,
        "6123": 103,
        "6124": 146,
        "6125": 254,
        "6126": 207,
        "6127": 89,
        "6128": 113,
        "6129": 242,
        "6130": 56,
        "6131": 73,
        "6132": 141,
        "6133": 135,
        "6134": 155,
        "6135": 70,
        "6136": 132,
        "6137": 118,
        "6138": 92,
        "6139": 229,
        "6140": 154,
        "6141": 114,
        "6142": 178,
        "6143": 18,
        "6144": 64,
        "6145": 116,
        "6146": 151,
        "6147": 21,
        "6148": 216,
        "6149": 13,
        "6150": 57,
        "6151": 155,
        "6152": 242,
        "6153": 186,
        "6154": 143,
        "6155": 73,
        "6156": 84,
        "6157": 102,
        "6158": 88,
        "6159": 159,
        "6160": 10,
        "6161": 0,
        "6162": 16,
        "6163": 175,
        "6164": 130,
        "6165": 188,
        "6166": 235,
        "6167": 186,
        "6168": 8,
        "6169": 72,
        "6170": 197,
        "6171": 140,
        "6172": 201,
        "6173": 115,
        "6174": 7,
        "6175": 98,
        "6176": 15,
        "6177": 65,
        "6178": 225,
        "6179": 87,
        "6180": 192,
        "6181": 132,
        "6182": 185,
        "6183": 73,
        "6184": 64,
        "6185": 135,
        "6186": 82,
        "6187": 168,
        "6188": 169,
        "6189": 205,
        "6190": 25,
        "6191": 239,
        "6192": 109,
        "6193": 163,
        "6194": 106,
        "6195": 145,
        "6196": 103,
        "6197": 169,
        "6198": 33,
        "6199": 12,
        "6200": 218,
        "6201": 62,
        "6202": 62,
        "6203": 82,
        "6204": 33,
        "6205": 121,
        "6206": 28,
        "6207": 49,
        "6208": 72,
        "6209": 105,
        "6210": 190,
        "6211": 74,
        "6212": 60,
        "6213": 27,
        "6214": 183,
        "6215": 140,
        "6216": 101,
        "6217": 154,
        "6218": 54,
        "6219": 166,
        "6220": 153,
        "6221": 20,
        "6222": 56,
        "6223": 40,
        "6224": 110,
        "6225": 199,
        "6226": 42,
        "6227": 232,
        "6228": 153,
        "6229": 189,
        "6230": 132,
        "6231": 26,
        "6232": 103,
        "6233": 234,
        "6234": 64,
        "6235": 162,
        "6236": 123,
        "6237": 10,
        "6238": 114,
        "6239": 27,
        "6240": 254,
        "6241": 53,
        "6242": 245,
        "6243": 58,
        "6244": 0,
        "6245": 156,
        "6246": 53,
        "6247": 254,
        "6248": 134,
        "6249": 67,
        "6250": 47,
        "6251": 1,
        "6252": 51,
        "6253": 49,
        "6254": 30,
        "6255": 184,
        "6256": 251,
        "6257": 28,
        "6258": 116,
        "6259": 200,
        "6260": 140,
        "6261": 251,
        "6262": 2,
        "6263": 162,
        "6264": 198,
        "6265": 35,
        "6266": 77,
        "6267": 255,
        "6268": 21,
        "6269": 241,
        "6270": 222,
        "6271": 47,
        "6272": 124,
        "6273": 56,
        "6274": 132,
        "6275": 245,
        "6276": 42,
        "6277": 148,
        "6278": 11,
        "6279": 82,
        "6280": 185,
        "6281": 195,
        "6282": 37,
        "6283": 44,
        "6284": 244,
        "6285": 142,
        "6286": 84,
        "6287": 9,
        "6288": 250,
        "6289": 129,
        "6290": 224,
        "6291": 16,
        "6292": 233,
        "6293": 3,
        "6294": 62,
        "6295": 169,
        "6296": 158,
        "6297": 214,
        "6298": 14,
        "6299": 33,
        "6300": 71,
        "6301": 254,
        "6302": 171,
        "6303": 53,
        "6304": 111,
        "6305": 206,
        "6306": 21,
        "6307": 157,
        "6308": 101,
        "6309": 237,
        "6310": 218,
        "6311": 53,
        "6312": 67,
        "6313": 119,
        "6314": 106,
        "6315": 53,
        "6316": 8,
        "6317": 70,
        "6318": 233,
        "6319": 243,
        "6320": 253,
        "6321": 230,
        "6322": 229,
        "6323": 21,
        "6324": 80,
        "6325": 219,
        "6326": 7,
        "6327": 145,
        "6328": 21,
        "6329": 9,
        "6330": 138,
        "6331": 154,
        "6332": 6,
        "6333": 110,
        "6334": 32,
        "6335": 23,
        "6336": 190,
        "6337": 176,
        "6338": 229,
        "6339": 126,
        "6340": 190,
        "6341": 6,
        "6342": 165,
        "6343": 3,
        "6344": 94,
        "6345": 138,
        "6346": 204,
        "6347": 102,
        "6348": 233,
        "6349": 170,
        "6350": 54,
        "6351": 177,
        "6352": 104,
        "6353": 145,
        "6354": 95,
        "6355": 171,
        "6356": 80,
        "6357": 220,
        "6358": 250,
        "6359": 217,
        "6360": 68,
        "6361": 254,
        "6362": 8,
        "6363": 114,
        "6364": 118,
        "6365": 80,
        "6366": 46,
        "6367": 118,
        "6368": 93,
        "6369": 186,
        "6370": 171,
        "6371": 115,
        "6372": 183,
        "6373": 53,
        "6374": 172,
        "6375": 171,
        "6376": 15,
        "6377": 232,
        "6378": 212,
        "6379": 139,
        "6380": 54,
        "6381": 138,
        "6382": 64,
        "6383": 198,
        "6384": 52,
        "6385": 58,
        "6386": 32,
        "6387": 76,
        "6388": 34,
        "6389": 141,
        "6390": 55,
        "6391": 133,
        "6392": 66,
        "6393": 58,
        "6394": 110,
        "6395": 238,
        "6396": 64,
        "6397": 225,
        "6398": 151,
        "6399": 124,
        "6400": 60,
        "6401": 249,
        "6402": 123,
        "6403": 52,
        "6404": 117,
        "6405": 179,
        "6406": 89,
        "6407": 39,
        "6408": 104,
        "6409": 109,
        "6410": 18,
        "6411": 211,
        "6412": 93,
        "6413": 107,
        "6414": 131,
        "6415": 213,
        "6416": 23,
        "6417": 217,
        "6418": 32,
        "6419": 239,
        "6420": 206,
        "6421": 120,
        "6422": 44,
        "6423": 129,
        "6424": 12,
        "6425": 141,
        "6426": 13,
        "6427": 239,
        "6428": 184,
        "6429": 136,
        "6430": 80,
        "6431": 45,
        "6432": 63,
        "6433": 142,
        "6434": 106,
        "6435": 202,
        "6436": 42,
        "6437": 148,
        "6438": 74,
        "6439": 45,
        "6440": 124,
        "6441": 152,
        "6442": 177,
        "6443": 100,
        "6444": 148,
        "6445": 66,
        "6446": 5,
        "6447": 127,
        "6448": 133,
        "6449": 141,
        "6450": 220,
        "6451": 68,
        "6452": 155,
        "6453": 99,
        "6454": 252,
        "6455": 112,
        "6456": 47,
        "6457": 125,
        "6458": 4,
        "6459": 47,
        "6460": 235,
        "6461": 205,
        "6462": 200,
        "6463": 119,
        "6464": 34,
        "6465": 235,
        "6466": 103,
        "6467": 139,
        "6468": 166,
        "6469": 212,
        "6470": 220,
        "6471": 215,
        "6472": 128,
        "6473": 190,
        "6474": 228,
        "6475": 54,
        "6476": 199,
        "6477": 60,
        "6478": 225,
        "6479": 154,
        "6480": 227,
        "6481": 138,
        "6482": 124,
        "6483": 106,
        "6484": 59,
        "6485": 58,
        "6486": 22,
        "6487": 48,
        "6488": 198,
        "6489": 6,
        "6490": 132,
        "6491": 133,
        "6492": 173,
        "6493": 42,
        "6494": 88,
        "6495": 6,
        "6496": 57,
        "6497": 56,
        "6498": 165,
        "6499": 55,
        "6500": 90,
        "6501": 82,
        "6502": 97,
        "6503": 191,
        "6504": 55,
        "6505": 11,
        "6506": 60,
        "6507": 244,
        "6508": 236,
        "6509": 168,
        "6510": 49,
        "6511": 84,
        "6512": 92,
        "6513": 192,
        "6514": 176,
        "6515": 92,
        "6516": 157,
        "6517": 55,
        "6518": 110,
        "6519": 56,
        "6520": 162,
        "6521": 34,
        "6522": 179,
        "6523": 105,
        "6524": 219,
        "6525": 229,
        "6526": 92,
        "6527": 242,
        "6528": 191,
        "6529": 2,
        "6530": 61,
        "6531": 91,
        "6532": 204,
        "6533": 135,
        "6534": 81,
        "6535": 165,
        "6536": 191,
        "6537": 193,
        "6538": 246,
        "6539": 182,
        "6540": 171,
        "6541": 98,
        "6542": 145,
        "6543": 56,
        "6544": 85,
        "6545": 89,
        "6546": 235,
        "6547": 121,
        "6548": 220,
        "6549": 117,
        "6550": 247,
        "6551": 183,
        "6552": 110,
        "6553": 0,
        "6554": 103,
        "6555": 85,
        "6556": 137,
        "6557": 119,
        "6558": 167,
        "6559": 143,
        "6560": 62,
        "6561": 140,
        "6562": 176,
        "6563": 32,
        "6564": 147,
        "6565": 30,
        "6566": 71,
        "6567": 135,
        "6568": 90,
        "6569": 167,
        "6570": 9,
        "6571": 22,
        "6572": 244,
        "6573": 69,
        "6574": 41,
        "6575": 103,
        "6576": 234,
        "6577": 25,
        "6578": 48,
        "6579": 234,
        "6580": 161,
        "6581": 68,
        "6582": 221,
        "6583": 203,
        "6584": 229,
        "6585": 211,
        "6586": 34,
        "6587": 248,
        "6588": 31,
        "6589": 118,
        "6590": 79,
        "6591": 220,
        "6592": 219,
        "6593": 178,
        "6594": 189,
        "6595": 131,
        "6596": 9,
        "6597": 194,
        "6598": 181,
        "6599": 17,
        "6600": 179,
        "6601": 139,
        "6602": 77,
        "6603": 180,
        "6604": 42,
        "6605": 221,
        "6606": 137,
        "6607": 47,
        "6608": 53,
        "6609": 196,
        "6610": 74,
        "6611": 15,
        "6612": 162,
        "6613": 152,
        "6614": 171,
        "6615": 169,
        "6616": 108,
        "6617": 172,
        "6618": 5,
        "6619": 53,
        "6620": 43,
        "6621": 15,
        "6622": 15,
        "6623": 47,
        "6624": 78,
        "6625": 71,
        "6626": 172,
        "6627": 31,
        "6628": 96,
        "6629": 148,
        "6630": 221,
        "6631": 16,
        "6632": 199,
        "6633": 13,
        "6634": 27,
        "6635": 193,
        "6636": 110,
        "6637": 151,
        "6638": 147,
        "6639": 99,
        "6640": 222,
        "6641": 209,
        "6642": 238,
        "6643": 56,
        "6644": 118,
        "6645": 158,
        "6646": 63,
        "6647": 131,
        "6648": 11,
        "6649": 240,
        "6650": 61,
        "6651": 139,
        "6652": 67,
        "6653": 1,
        "6654": 26,
        "6655": 192,
        "6656": 22,
        "6657": 94,
        "6658": 162,
        "6659": 112,
        "6660": 185,
        "6661": 192,
        "6662": 83,
        "6663": 135,
        "6664": 7,
        "6665": 72,
        "6666": 12,
        "6667": 230,
        "6668": 141,
        "6669": 119,
        "6670": 143,
        "6671": 200,
        "6672": 129,
        "6673": 170,
        "6674": 89,
        "6675": 98,
        "6676": 167,
        "6677": 154,
        "6678": 200,
        "6679": 101,
        "6680": 223,
        "6681": 40,
        "6682": 241,
        "6683": 208,
        "6684": 240,
        "6685": 196,
        "6686": 221,
        "6687": 184,
        "6688": 136,
        "6689": 43,
        "6690": 229,
        "6691": 11,
        "6692": 234,
        "6693": 36,
        "6694": 214,
        "6695": 37,
        "6696": 96,
        "6697": 190,
        "6698": 231,
        "6699": 228,
        "6700": 233,
        "6701": 89,
        "6702": 209,
        "6703": 122,
        "6704": 215,
        "6705": 100,
        "6706": 97,
        "6707": 83,
        "6708": 180,
        "6709": 117,
        "6710": 135,
        "6711": 148,
        "6712": 97,
        "6713": 140,
        "6714": 31,
        "6715": 253,
        "6716": 81,
        "6717": 189,
        "6718": 50,
        "6719": 24,
        "6720": 211,
        "6721": 21,
        "6722": 63,
        "6723": 243,
        "6724": 35,
        "6725": 122,
        "6726": 206,
        "6727": 94,
        "6728": 2,
        "6729": 146,
        "6730": 73,
        "6731": 229,
        "6732": 210,
        "6733": 167,
        "6734": 79,
        "6735": 195,
        "6736": 89,
        "6737": 12,
        "6738": 225,
        "6739": 207,
        "6740": 52,
        "6741": 250,
        "6742": 57,
        "6743": 232,
        "6744": 146,
        "6745": 100,
        "6746": 229,
        "6747": 226,
        "6748": 107,
        "6749": 100,
        "6750": 25,
        "6751": 174,
        "6752": 182,
        "6753": 40,
        "6754": 43,
        "6755": 215,
        "6756": 241,
        "6757": 255,
        "6758": 150,
        "6759": 54,
        "6760": 66,
        "6761": 237,
        "6762": 194,
        "6763": 16,
        "6764": 200,
        "6765": 164,
        "6766": 52,
        "6767": 11,
        "6768": 61,
        "6769": 41,
        "6770": 166,
        "6771": 80,
        "6772": 179,
        "6773": 194,
        "6774": 165,
        "6775": 46,
        "6776": 3,
        "6777": 144,
        "6778": 44,
        "6779": 3,
        "6780": 186,
        "6781": 158,
        "6782": 116,
        "6783": 164,
        "6784": 137,
        "6785": 74,
        "6786": 235,
        "6787": 237,
        "6788": 166,
        "6789": 224,
        "6790": 42,
        "6791": 123,
        "6792": 41,
        "6793": 206,
        "6794": 204,
        "6795": 33,
        "6796": 72,
        "6797": 152,
        "6798": 87,
        "6799": 205,
        "6800": 44,
        "6801": 64,
        "6802": 63,
        "6803": 187,
        "6804": 43,
        "6805": 194,
        "6806": 149,
        "6807": 99,
        "6808": 185,
        "6809": 111,
        "6810": 177,
        "6811": 77,
        "6812": 162,
        "6813": 231,
        "6814": 172,
        "6815": 58,
        "6816": 128,
        "6817": 241,
        "6818": 112,
        "6819": 164,
        "6820": 1,
        "6821": 36,
        "6822": 119,
        "6823": 172,
        "6824": 174,
        "6825": 231,
        "6826": 141,
        "6827": 45,
        "6828": 248,
        "6829": 36,
        "6830": 0,
        "6831": 176,
        "6832": 6,
        "6833": 132,
        "6834": 189,
        "6835": 127,
        "6836": 73,
        "6837": 156,
        "6838": 244,
        "6839": 112,
        "6840": 27,
        "6841": 134,
        "6842": 149,
        "6843": 2,
        "6844": 248,
        "6845": 41,
        "6846": 142,
        "6847": 119,
        "6848": 51,
        "6849": 236,
        "6850": 204,
        "6851": 147,
        "6852": 168,
        "6853": 202,
        "6854": 190,
        "6855": 13,
        "6856": 193,
        "6857": 1,
        "6858": 144,
        "6859": 90,
        "6860": 152,
        "6861": 197,
        "6862": 202,
        "6863": 199,
        "6864": 134,
        "6865": 8,
        "6866": 135,
        "6867": 85,
        "6868": 8,
        "6869": 143,
        "6870": 31,
        "6871": 114,
        "6872": 144,
        "6873": 140,
        "6874": 243,
        "6875": 230,
        "6876": 102,
        "6877": 81,
        "6878": 38,
        "6879": 73,
        "6880": 1,
        "6881": 163,
        "6882": 231,
        "6883": 221,
        "6884": 237,
        "6885": 102,
        "6886": 39,
        "6887": 76,
        "6888": 135,
        "6889": 56,
        "6890": 239,
        "6891": 253,
        "6892": 2,
        "6893": 25,
        "6894": 36,
        "6895": 95,
        "6896": 16,
        "6897": 74,
        "6898": 30,
        "6899": 173,
        "6900": 4,
        "6901": 141,
        "6902": 114,
        "6903": 118,
        "6904": 183,
        "6905": 2,
        "6906": 149,
        "6907": 245,
        "6908": 144,
        "6909": 64,
        "6910": 179,
        "6911": 125,
        "6912": 162,
        "6913": 7,
        "6914": 163,
        "6915": 14,
        "6916": 84,
        "6917": 167,
        "6918": 156,
        "6919": 19,
        "6920": 227,
        "6921": 209,
        "6922": 120,
        "6923": 73,
        "6924": 166,
        "6925": 93,
        "6926": 124,
        "6927": 146,
        "6928": 132,
        "6929": 27,
        "6930": 250,
        "6931": 168,
        "6932": 2,
        "6933": 177,
        "6934": 82,
        "6935": 198,
        "6936": 153,
        "6937": 139,
        "6938": 108,
        "6939": 50,
        "6940": 183,
        "6941": 226,
        "6942": 22,
        "6943": 43,
        "6944": 174,
        "6945": 45,
        "6946": 173,
        "6947": 133,
        "6948": 210,
        "6949": 81,
        "6950": 126,
        "6951": 87,
        "6952": 62,
        "6953": 119,
        "6954": 119,
        "6955": 6,
        "6956": 196,
        "6957": 130,
        "6958": 143,
        "6959": 3,
        "6960": 180,
        "6961": 75,
        "6962": 36,
        "6963": 151,
        "6964": 179,
        "6965": 239,
        "6966": 115,
        "6967": 170,
        "6968": 178,
        "6969": 49,
        "6970": 141,
        "6971": 5,
        "6972": 82,
        "6973": 38,
        "6974": 99,
        "6975": 137,
        "6976": 135,
        "6977": 72,
        "6978": 47,
        "6979": 108,
        "6980": 39,
        "6981": 132,
        "6982": 14,
        "6983": 47,
        "6984": 104,
        "6985": 189,
        "6986": 245,
        "6987": 171,
        "6988": 148,
        "6989": 139,
        "6990": 214,
        "6991": 100,
        "6992": 138,
        "6993": 239,
        "6994": 17,
        "6995": 67,
        "6996": 235,
        "6997": 167,
        "6998": 141,
        "6999": 142,
        "7000": 162,
        "7001": 44,
        "7002": 179,
        "7003": 45,
        "7004": 253,
        "7005": 59,
        "7006": 115,
        "7007": 88,
        "7008": 213,
        "7009": 117,
        "7010": 175,
        "7011": 187,
        "7012": 169,
        "7013": 39,
        "7014": 164,
        "7015": 220,
        "7016": 55,
        "7017": 33,
        "7018": 89,
        "7019": 196,
        "7020": 190,
        "7021": 121,
        "7022": 30,
        "7023": 32,
        "7024": 20,
        "7025": 70,
        "7026": 99,
        "7027": 70,
        "7028": 185,
        "7029": 27,
        "7030": 18,
        "7031": 58,
        "7032": 191,
        "7033": 246,
        "7034": 112,
        "7035": 86,
        "7036": 97,
        "7037": 247,
        "7038": 130,
        "7039": 160,
        "7040": 62,
        "7041": 55,
        "7042": 13,
        "7043": 177,
        "7044": 25,
        "7045": 212,
        "7046": 197,
        "7047": 154,
        "7048": 18,
        "7049": 5,
        "7050": 234,
        "7051": 115,
        "7052": 29,
        "7053": 213,
        "7054": 125,
        "7055": 235,
        "7056": 116,
        "7057": 209,
        "7058": 210,
        "7059": 125,
        "7060": 214,
        "7061": 89,
        "7062": 86,
        "7063": 74,
        "7064": 213,
        "7065": 196,
        "7066": 103,
        "7067": 176,
        "7068": 117,
        "7069": 9,
        "7070": 20,
        "7071": 105,
        "7072": 120,
        "7073": 84,
        "7074": 146,
        "7075": 210,
        "7076": 194,
        "7077": 125,
        "7078": 173,
        "7079": 223,
        "7080": 83,
        "7081": 7,
        "7082": 23,
        "7083": 43,
        "7084": 230,
        "7085": 173,
        "7086": 14,
        "7087": 46,
        "7088": 209,
        "7089": 38,
        "7090": 100,
        "7091": 81,
        "7092": 34,
        "7093": 17,
        "7094": 168,
        "7095": 29,
        "7096": 198,
        "7097": 125,
        "7098": 125,
        "7099": 5,
        "7100": 115,
        "7101": 208,
        "7102": 133,
        "7103": 33,
        "7104": 65,
        "7105": 108,
        "7106": 31,
        "7107": 248,
        "7108": 35,
        "7109": 206,
        "7110": 139,
        "7111": 36,
        "7112": 76,
        "7113": 208,
        "7114": 201,
        "7115": 35,
        "7116": 191,
        "7117": 180,
        "7118": 148,
        "7119": 65,
        "7120": 128,
        "7121": 220,
        "7122": 160,
        "7123": 170,
        "7124": 179,
        "7125": 25,
        "7126": 51,
        "7127": 91,
        "7128": 160,
        "7129": 251,
        "7130": 77,
        "7131": 121,
        "7132": 14,
        "7133": 14,
        "7134": 151,
        "7135": 124,
        "7136": 15,
        "7137": 16,
        "7138": 254,
        "7139": 187,
        "7140": 23,
        "7141": 74,
        "7142": 140,
        "7143": 159,
        "7144": 102,
        "7145": 178,
        "7146": 52,
        "7147": 244,
        "7148": 245,
        "7149": 162,
        "7150": 150,
        "7151": 65,
        "7152": 127,
        "7153": 43,
        "7154": 58,
        "7155": 21,
        "7156": 58,
        "7157": 116,
        "7158": 216,
        "7159": 118,
        "7160": 120,
        "7161": 4,
        "7162": 72,
        "7163": 246,
        "7164": 248,
        "7165": 141,
        "7166": 197,
        "7167": 36,
        "7168": 67,
        "7169": 164,
        "7170": 220,
        "7171": 205,
        "7172": 147,
        "7173": 70,
        "7174": 155,
        "7175": 55,
        "7176": 219,
        "7177": 38,
        "7178": 89,
        "7179": 192,
        "7180": 231,
        "7181": 209,
        "7182": 132,
        "7183": 31,
        "7184": 4,
        "7185": 17,
        "7186": 230,
        "7187": 220,
        "7188": 106,
        "7189": 83,
        "7190": 55,
        "7191": 36,
        "7192": 22,
        "7193": 58,
        "7194": 192,
        "7195": 45,
        "7196": 157,
        "7197": 179,
        "7198": 84,
        "7199": 91,
        "7200": 238,
        "7201": 217,
        "7202": 237,
        "7203": 220,
        "7204": 223,
        "7205": 114,
        "7206": 244,
        "7207": 169,
        "7208": 20,
        "7209": 241,
        "7210": 179,
        "7211": 63,
        "7212": 78,
        "7213": 32,
        "7214": 4,
        "7215": 71,
        "7216": 176,
        "7217": 211,
        "7218": 24,
        "7219": 236,
        "7220": 248,
        "7221": 65,
        "7222": 177,
        "7223": 76,
        "7224": 177,
        "7225": 172,
        "7226": 1,
        "7227": 68,
        "7228": 117,
        "7229": 240,
        "7230": 192,
        "7231": 170,
        "7232": 190,
        "7233": 59,
        "7234": 168,
        "7235": 176,
        "7236": 90,
        "7237": 235,
        "7238": 36,
        "7239": 73,
        "7240": 7,
        "7241": 68,
        "7242": 231,
        "7243": 221,
        "7244": 242,
        "7245": 1,
        "7246": 55,
        "7247": 137,
        "7248": 55,
        "7249": 237,
        "7250": 239,
        "7251": 136,
        "7252": 123,
        "7253": 26,
        "7254": 76,
        "7255": 50,
        "7256": 73,
        "7257": 92,
        "7258": 255,
        "7259": 43,
        "7260": 36,
        "7261": 101,
        "7262": 188,
        "7263": 31,
        "7264": 235,
        "7265": 172,
        "7266": 77,
        "7267": 122,
        "7268": 105,
        "7269": 61,
        "7270": 255,
        "7271": 3,
        "7272": 182,
        "7273": 169,
        "7274": 15,
        "7275": 183,
        "7276": 223,
        "7277": 212,
        "7278": 217,
        "7279": 204,
        "7280": 32,
        "7281": 29,
        "7282": 233,
        "7283": 168,
        "7284": 43,
        "7285": 245,
        "7286": 73,
        "7287": 212,
        "7288": 104,
        "7289": 34,
        "7290": 23,
        "7291": 238,
        "7292": 139,
        "7293": 236,
        "7294": 203,
        "7295": 25,
        "7296": 11,
        "7297": 111,
        "7298": 205,
        "7299": 65,
        "7300": 70,
        "7301": 55,
        "7302": 109,
        "7303": 150,
        "7304": 41,
        "7305": 104,
        "7306": 141,
        "7307": 34,
        "7308": 160,
        "7309": 247,
        "7310": 144,
        "7311": 236,
        "7312": 49,
        "7313": 9,
        "7314": 197,
        "7315": 208,
        "7316": 50,
        "7317": 62,
        "7318": 67,
        "7319": 146,
        "7320": 123,
        "7321": 87,
        "7322": 173,
        "7323": 95,
        "7324": 236,
        "7325": 255,
        "7326": 72,
        "7327": 150,
        "7328": 247,
        "7329": 132,
        "7330": 19,
        "7331": 80,
        "7332": 240,
        "7333": 205,
        "7334": 140,
        "7335": 221,
        "7336": 10,
        "7337": 30,
        "7338": 236,
        "7339": 68,
        "7340": 0,
        "7341": 97,
        "7342": 235,
        "7343": 127,
        "7344": 196,
        "7345": 67,
        "7346": 57,
        "7347": 189,
        "7348": 95,
        "7349": 160,
        "7350": 26,
        "7351": 198,
        "7352": 87,
        "7353": 62,
        "7354": 234,
        "7355": 9,
        "7356": 136,
        "7357": 18,
        "7358": 124,
        "7359": 159,
        "7360": 32,
        "7361": 220,
        "7362": 111,
        "7363": 213,
        "7364": 33,
        "7365": 159,
        "7366": 166,
        "7367": 170,
        "7368": 37,
        "7369": 164,
        "7370": 110,
        "7371": 233,
        "7372": 166,
        "7373": 92,
        "7374": 250,
        "7375": 198,
        "7376": 62,
        "7377": 56,
        "7378": 68,
        "7379": 64,
        "7380": 121,
        "7381": 169,
        "7382": 226,
        "7383": 40,
        "7384": 199,
        "7385": 103,
        "7386": 100,
        "7387": 225,
        "7388": 175,
        "7389": 235,
        "7390": 201,
        "7391": 208,
        "7392": 109,
        "7393": 83,
        "7394": 63,
        "7395": 246,
        "7396": 38,
        "7397": 206,
        "7398": 83,
        "7399": 163,
        "7400": 113,
        "7401": 157,
        "7402": 215,
        "7403": 45,
        "7404": 164,
        "7405": 217,
        "7406": 62,
        "7407": 25,
        "7408": 248,
        "7409": 21,
        "7410": 157,
        "7411": 212,
        "7412": 188,
        "7413": 151,
        "7414": 23,
        "7415": 212,
        "7416": 65,
        "7417": 194,
        "7418": 32,
        "7419": 84,
        "7420": 140,
        "7421": 81,
        "7422": 145,
        "7423": 137,
        "7424": 42,
        "7425": 216,
        "7426": 192,
        "7427": 54,
        "7428": 122,
        "7429": 209,
        "7430": 220,
        "7431": 213,
        "7432": 75,
        "7433": 243,
        "7434": 47,
        "7435": 49,
        "7436": 204,
        "7437": 24,
        "7438": 79,
        "7439": 46,
        "7440": 99,
        "7441": 27,
        "7442": 190,
        "7443": 192,
        "7444": 62,
        "7445": 146,
        "7446": 183,
        "7447": 207,
        "7448": 160,
        "7449": 66,
        "7450": 93,
        "7451": 35,
        "7452": 3,
        "7453": 135,
        "7454": 80,
        "7455": 15,
        "7456": 136,
        "7457": 51,
        "7458": 116,
        "7459": 180,
        "7460": 45,
        "7461": 188,
        "7462": 165,
        "7463": 4,
        "7464": 108,
        "7465": 94,
        "7466": 18,
        "7467": 232,
        "7468": 183,
        "7469": 254,
        "7470": 181,
        "7471": 61,
        "7472": 195,
        "7473": 245,
        "7474": 77,
        "7475": 15,
        "7476": 179,
        "7477": 51,
        "7478": 50,
        "7479": 250,
        "7480": 20,
        "7481": 39,
        "7482": 184,
        "7483": 58,
        "7484": 132,
        "7485": 223,
        "7486": 163,
        "7487": 120,
        "7488": 253,
        "7489": 212,
        "7490": 59,
        "7491": 6,
        "7492": 136,
        "7493": 158,
        "7494": 225,
        "7495": 122,
        "7496": 171,
        "7497": 18,
        "7498": 99,
        "7499": 33,
        "7500": 65,
        "7501": 255,
        "7502": 146,
        "7503": 51,
        "7504": 245,
        "7505": 113,
        "7506": 173,
        "7507": 204,
        "7508": 41,
        "7509": 15,
        "7510": 113,
        "7511": 25,
        "7512": 8,
        "7513": 111,
        "7514": 204,
        "7515": 111,
        "7516": 18,
        "7517": 109,
        "7518": 231,
        "7519": 133,
        "7520": 158,
        "7521": 88,
        "7522": 26,
        "7523": 240,
        "7524": 8,
        "7525": 97,
        "7526": 82,
        "7527": 239,
        "7528": 218,
        "7529": 145,
        "7530": 116,
        "7531": 60,
        "7532": 210,
        "7533": 1,
        "7534": 193,
        "7535": 11,
        "7536": 113,
        "7537": 238,
        "7538": 5,
        "7539": 183,
        "7540": 66,
        "7541": 156,
        "7542": 56,
        "7543": 186,
        "7544": 32,
        "7545": 103,
        "7546": 5,
        "7547": 124,
        "7548": 128,
        "7549": 70,
        "7550": 83,
        "7551": 207,
        "7552": 121,
        "7553": 133,
        "7554": 64,
        "7555": 84,
        "7556": 250,
        "7557": 156,
        "7558": 221,
        "7559": 87,
        "7560": 95,
        "7561": 118,
        "7562": 82,
        "7563": 16,
        "7564": 9,
        "7565": 241,
        "7566": 241,
        "7567": 223,
        "7568": 165,
        "7569": 158,
        "7570": 170,
        "7571": 106,
        "7572": 194,
        "7573": 120,
        "7574": 25,
        "7575": 20,
        "7576": 15,
        "7577": 182,
        "7578": 206,
        "7579": 69,
        "7580": 36,
        "7581": 143,
        "7582": 170,
        "7583": 192,
        "7584": 131,
        "7585": 51,
        "7586": 6,
        "7587": 11,
        "7588": 66,
        "7589": 89,
        "7590": 25,
        "7591": 224,
        "7592": 191,
        "7593": 18,
        "7594": 145,
        "7595": 207,
        "7596": 235,
        "7597": 135,
        "7598": 216,
        "7599": 146,
        "7600": 142,
        "7601": 104,
        "7602": 51,
        "7603": 246,
        "7604": 237,
        "7605": 82,
        "7606": 156,
        "7607": 203,
        "7608": 74,
        "7609": 158,
        "7610": 121,
        "7611": 155,
        "7612": 234,
        "7613": 255,
        "7614": 232,
        "7615": 171,
        "7616": 49,
        "7617": 19,
        "7618": 129,
        "7619": 178,
        "7620": 93,
        "7621": 89,
        "7622": 136,
        "7623": 132,
        "7624": 220,
        "7625": 19,
        "7626": 44,
        "7627": 182,
        "7628": 251,
        "7629": 178,
        "7630": 123,
        "7631": 190,
        "7632": 249,
        "7633": 124,
        "7634": 248,
        "7635": 24,
        "7636": 238,
        "7637": 174,
        "7638": 231,
        "7639": 32,
        "7640": 21,
        "7641": 105,
        "7642": 20,
        "7643": 82,
        "7644": 21,
        "7645": 206,
        "7646": 190,
        "7647": 85,
        "7648": 216,
        "7649": 205,
        "7650": 46,
        "7651": 225,
        "7652": 156,
        "7653": 247,
        "7654": 152,
        "7655": 66,
        "7656": 103,
        "7657": 100,
        "7658": 216,
        "7659": 196,
        "7660": 136,
        "7661": 30,
        "7662": 216,
        "7663": 56,
        "7664": 84,
        "7665": 230,
        "7666": 173,
        "7667": 106,
        "7668": 127,
        "7669": 254,
        "7670": 114,
        "7671": 31,
        "7672": 53,
        "7673": 20,
        "7674": 167,
        "7675": 184,
        "7676": 16,
        "7677": 146,
        "7678": 114,
        "7679": 110,
        "7680": 38,
        "7681": 93,
        "7682": 227,
        "7683": 79,
        "7684": 99,
        "7685": 107,
        "7686": 252,
        "7687": 132,
        "7688": 239,
        "7689": 21,
        "7690": 220,
        "7691": 18,
        "7692": 59,
        "7693": 131,
        "7694": 42,
        "7695": 161,
        "7696": 191,
        "7697": 16,
        "7698": 57,
        "7699": 26,
        "7700": 192,
        "7701": 97,
        "7702": 34,
        "7703": 35,
        "7704": 74,
        "7705": 170,
        "7706": 191,
        "7707": 211,
        "7708": 67,
        "7709": 123,
        "7710": 51,
        "7711": 132,
        "7712": 78,
        "7713": 161,
        "7714": 52,
        "7715": 86,
        "7716": 123,
        "7717": 63,
        "7718": 211,
        "7719": 94,
        "7720": 148,
        "7721": 91,
        "7722": 243,
        "7723": 34,
        "7724": 193,
        "7725": 108,
        "7726": 186,
        "7727": 247,
        "7728": 56,
        "7729": 40,
        "7730": 30,
        "7731": 227,
        "7732": 134,
        "7733": 224,
        "7734": 2,
        "7735": 249,
        "7736": 35,
        "7737": 33,
        "7738": 35,
        "7739": 18,
        "7740": 45,
        "7741": 238,
        "7742": 36,
        "7743": 70,
        "7744": 7,
        "7745": 212,
        "7746": 231,
        "7747": 6,
        "7748": 71,
        "7749": 126,
        "7750": 141,
        "7751": 74,
        "7752": 35,
        "7753": 2,
        "7754": 173,
        "7755": 84,
        "7756": 87,
        "7757": 155,
        "7758": 238,
        "7759": 99,
        "7760": 245,
        "7761": 0,
        "7762": 86,
        "7763": 127,
        "7764": 199,
        "7765": 21,
        "7766": 125,
        "7767": 209,
        "7768": 255,
        "7769": 188,
        "7770": 87,
        "7771": 61,
        "7772": 11,
        "7773": 220,
        "7774": 100,
        "7775": 6,
        "7776": 16,
        "7777": 153,
        "7778": 172,
        "7779": 251,
        "7780": 153,
        "7781": 51,
        "7782": 95,
        "7783": 155,
        "7784": 174,
        "7785": 113,
        "7786": 117,
        "7787": 110,
        "7788": 225,
        "7789": 178,
        "7790": 15,
        "7791": 162,
        "7792": 201,
        "7793": 136,
        "7794": 17,
        "7795": 176,
        "7796": 187,
        "7797": 95,
        "7798": 132,
        "7799": 23,
        "7800": 135,
        "7801": 41,
        "7802": 167,
        "7803": 207,
        "7804": 164,
        "7805": 113,
        "7806": 172,
        "7807": 56,
        "7808": 213,
        "7809": 173,
        "7810": 231,
        "7811": 219,
        "7812": 172,
        "7813": 179,
        "7814": 161,
        "7815": 186,
        "7816": 9,
        "7817": 244,
        "7818": 103,
        "7819": 106,
        "7820": 36,
        "7821": 182,
        "7822": 96,
        "7823": 254,
        "7824": 163,
        "7825": 12,
        "7826": 55,
        "7827": 204,
        "7828": 143,
        "7829": 136,
        "7830": 173,
        "7831": 118,
        "7832": 26,
        "7833": 89,
        "7834": 245,
        "7835": 239,
        "7836": 118,
        "7837": 145,
        "7838": 238,
        "7839": 138,
        "7840": 122,
        "7841": 184,
        "7842": 97,
        "7843": 176,
        "7844": 46,
        "7845": 123,
        "7846": 107,
        "7847": 33,
        "7848": 46,
        "7849": 102,
        "7850": 10,
        "7851": 161,
        "7852": 176,
        "7853": 146,
        "7854": 68,
        "7855": 106,
        "7856": 164,
        "7857": 249,
        "7858": 239,
        "7859": 214,
        "7860": 83,
        "7861": 170,
        "7862": 182,
        "7863": 45,
        "7864": 40,
        "7865": 206,
        "7866": 34,
        "7867": 116,
        "7868": 79,
        "7869": 62,
        "7870": 76,
        "7871": 235,
        "7872": 32,
        "7873": 235,
        "7874": 253,
        "7875": 194,
        "7876": 50,
        "7877": 45,
        "7878": 13,
        "7879": 131,
        "7880": 26,
        "7881": 235,
        "7882": 225,
        "7883": 250,
        "7884": 10,
        "7885": 7,
        "7886": 116,
        "7887": 169,
        "7888": 9,
        "7889": 150,
        "7890": 115,
        "7891": 66,
        "7892": 11,
        "7893": 71,
        "7894": 150,
        "7895": 68,
        "7896": 119,
        "7897": 139,
        "7898": 39,
        "7899": 159,
        "7900": 225,
        "7901": 33,
        "7902": 145,
        "7903": 176,
        "7904": 56,
        "7905": 96,
        "7906": 216,
        "7907": 245,
        "7908": 148,
        "7909": 58,
        "7910": 255,
        "7911": 194,
        "7912": 170,
        "7913": 202,
        "7914": 206,
        "7915": 227,
        "7916": 36,
        "7917": 159,
        "7918": 213,
        "7919": 108,
        "7920": 7,
        "7921": 253,
        "7922": 14,
        "7923": 218,
        "7924": 148,
        "7925": 9,
        "7926": 41,
        "7927": 241,
        "7928": 14,
        "7929": 25,
        "7930": 145,
        "7931": 53,
        "7932": 131,
        "7933": 135,
        "7934": 34,
        "7935": 119,
        "7936": 59,
        "7937": 33,
        "7938": 122,
        "7939": 51,
        "7940": 162,
        "7941": 200,
        "7942": 22,
        "7943": 83,
        "7944": 20,
        "7945": 155,
        "7946": 241,
        "7947": 98,
        "7948": 77,
        "7949": 11,
        "7950": 210,
        "7951": 226,
        "7952": 239,
        "7953": 155,
        "7954": 185,
        "7955": 234,
        "7956": 126,
        "7957": 218,
        "7958": 182,
        "7959": 192,
        "7960": 236,
        "7961": 21,
        "7962": 0,
        "7963": 148,
        "7964": 111,
        "7965": 95,
        "7966": 26,
        "7967": 119,
        "7968": 163,
        "7969": 135,
        "7970": 139,
        "7971": 62,
        "7972": 58,
        "7973": 165,
        "7974": 136,
        "7975": 103,
        "7976": 234,
        "7977": 184,
        "7978": 31,
        "7979": 229,
        "7980": 36,
        "7981": 230,
        "7982": 223,
        "7983": 5,
        "7984": 46,
        "7985": 48,
        "7986": 161,
        "7987": 55,
        "7988": 12,
        "7989": 245,
        "7990": 112,
        "7991": 242,
        "7992": 52,
        "7993": 203,
        "7994": 114,
        "7995": 1,
        "7996": 33,
        "7997": 234,
        "7998": 252,
        "7999": 119,
        "8000": 174,
        "8001": 99,
        "8002": 51,
        "8003": 8,
        "8004": 111,
        "8005": 84,
        "8006": 230,
        "8007": 58,
        "8008": 75,
        "8009": 65,
        "8010": 59,
        "8011": 187,
        "8012": 111,
        "8013": 248,
        "8014": 106,
        "8015": 3,
        "8016": 172,
        "8017": 77,
        "8018": 10,
        "8019": 28,
        "8020": 183,
        "8021": 183,
        "8022": 253,
        "8023": 51,
        "8024": 83,
        "8025": 73,
        "8026": 209,
        "8027": 205,
        "8028": 146,
        "8029": 239,
        "8030": 171,
        "8031": 36,
        "8032": 80,
        "8033": 106,
        "8034": 221,
        "8035": 83,
        "8036": 171,
        "8037": 140,
        "8038": 67,
        "8039": 162,
        "8040": 142,
        "8041": 73,
        "8042": 142,
        "8043": 221,
        "8044": 27,
        "8045": 239,
        "8046": 162,
        "8047": 12,
        "8048": 94,
        "8049": 39,
        "8050": 5,
        "8051": 254,
        "8052": 148,
        "8053": 185,
        "8054": 166,
        "8055": 125,
        "8056": 51,
        "8057": 64,
        "8058": 122,
        "8059": 108,
        "8060": 1,
        "8061": 16,
        "8062": 228,
        "8063": 169,
        "8064": 215,
        "8065": 218,
        "8066": 107,
        "8067": 131,
        "8068": 97,
        "8069": 82,
        "8070": 230,
        "8071": 190,
        "8072": 50,
        "8073": 56,
        "8074": 254,
        "8075": 206,
        "8076": 38,
        "8077": 26,
        "8078": 117,
        "8079": 181,
        "8080": 214,
        "8081": 6,
        "8082": 214,
        "8083": 199,
        "8084": 48,
        "8085": 150,
        "8086": 170,
        "8087": 238,
        "8088": 137,
        "8089": 84,
        "8090": 227,
        "8091": 245,
        "8092": 211,
        "8093": 149,
        "8094": 20,
        "8095": 246,
        "8096": 5,
        "8097": 52,
        "8098": 160,
        "8099": 239,
        "8100": 233,
        "8101": 47,
        "8102": 68,
        "8103": 76,
        "8104": 210,
        "8105": 60,
        "8106": 161,
        "8107": 39,
        "8108": 28,
        "8109": 162,
        "8110": 185,
        "8111": 114,
        "8112": 70,
        "8113": 237,
        "8114": 206,
        "8115": 245,
        "8116": 93,
        "8117": 51,
        "8118": 150,
        "8119": 109,
        "8120": 127,
        "8121": 222,
        "8122": 245,
        "8123": 117,
        "8124": 113,
        "8125": 176,
        "8126": 99,
        "8127": 57,
        "8128": 130,
        "8129": 211,
        "8130": 194,
        "8131": 139,
        "8132": 35,
        "8133": 197,
        "8134": 22,
        "8135": 8,
        "8136": 45,
        "8137": 78,
        "8138": 164,
        "8139": 97,
        "8140": 222,
        "8141": 65,
        "8142": 255,
        "8143": 123,
        "8144": 225,
        "8145": 168,
        "8146": 228,
        "8147": 38,
        "8148": 230,
        "8149": 55,
        "8150": 166,
        "8151": 244,
        "8152": 56,
        "8153": 15,
        "8154": 209,
        "8155": 53,
        "8156": 102,
        "8157": 67,
        "8158": 21,
        "8159": 160,
        "8160": 247,
        "8161": 190,
        "8162": 172,
        "8163": 70,
        "8164": 33,
        "8165": 7,
        "8166": 70,
        "8167": 134,
        "8168": 203,
        "8169": 25,
        "8170": 227,
        "8171": 117,
        "8172": 40,
        "8173": 133,
        "8174": 35,
        "8175": 85,
        "8176": 138,
        "8177": 120,
        "8178": 211,
        "8179": 48,
        "8180": 222,
        "8181": 139,
        "8182": 105,
        "8183": 251,
        "8184": 132,
        "8185": 207,
        "8186": 69,
        "8187": 90,
        "8188": 66,
        "8189": 202,
        "8190": 189,
        "8191": 235,
        "8192": 203,
        "8193": 64,
        "8194": 245,
        "8195": 37,
        "8196": 49,
        "8197": 22,
        "8198": 89,
        "8199": 73,
        "8200": 86,
        "8201": 20,
        "8202": 182,
        "8203": 228,
        "8204": 19,
        "8205": 114,
        "8206": 35,
        "8207": 134,
        "8208": 232,
        "8209": 176,
        "8210": 77,
        "8211": 143,
        "8212": 215,
        "8213": 41,
        "8214": 149,
        "8215": 99,
        "8216": 226,
        "8217": 91,
        "8218": 184,
        "8219": 186,
        "8220": 9,
        "8221": 106,
        "8222": 86,
        "8223": 249,
        "8224": 67,
        "8225": 199,
        "8226": 249,
        "8227": 24,
        "8228": 212,
        "8229": 250,
        "8230": 61,
        "8231": 85,
        "8232": 118,
        "8233": 254,
        "8234": 126,
        "8235": 45,
        "8236": 161,
        "8237": 231,
        "8238": 23,
        "8239": 225,
        "8240": 110,
        "8241": 49,
        "8242": 58,
        "8243": 82,
        "8244": 155,
        "8245": 172,
        "8246": 99,
        "8247": 37,
        "8248": 42,
        "8249": 63,
        "8250": 195,
        "8251": 204,
        "8252": 93,
        "8253": 225,
        "8254": 204,
        "8255": 109,
        "8256": 82,
        "8257": 91,
        "8258": 145,
        "8259": 252,
        "8260": 128,
        "8261": 85,
        "8262": 181,
        "8263": 177,
        "8264": 162,
        "8265": 119,
        "8266": 91,
        "8267": 248,
        "8268": 187,
        "8269": 103,
        "8270": 16,
        "8271": 164,
        "8272": 72,
        "8273": 236,
        "8274": 54,
        "8275": 153,
        "8276": 144,
        "8277": 52,
        "8278": 126,
        "8279": 126,
        "8280": 124,
        "8281": 247,
        "8282": 225,
        "8283": 144,
        "8284": 2,
        "8285": 215,
        "8286": 225,
        "8287": 66,
        "8288": 204,
        "8289": 103,
        "8290": 84,
        "8291": 0,
        "8292": 177,
        "8293": 241,
        "8294": 170,
        "8295": 122,
        "8296": 240,
        "8297": 66,
        "8298": 244,
        "8299": 236,
        "8300": 6,
        "8301": 124,
        "8302": 26,
        "8303": 223,
        "8304": 131,
        "8305": 240,
        "8306": 151,
        "8307": 190,
        "8308": 11,
        "8309": 8,
        "8310": 129,
        "8311": 151,
        "8312": 57,
        "8313": 95,
        "8314": 81,
        "8315": 54,
        "8316": 197,
        "8317": 83,
        "8318": 208,
        "8319": 205,
        "8320": 213,
        "8321": 87,
        "8322": 241,
        "8323": 76,
        "8324": 129,
        "8325": 85,
        "8326": 114,
        "8327": 166,
        "8328": 38,
        "8329": 96,
        "8330": 50,
        "8331": 224,
        "8332": 155,
        "8333": 247,
        "8334": 165,
        "8335": 2,
        "8336": 191,
        "8337": 84,
        "8338": 162,
        "8339": 33,
        "8340": 219,
        "8341": 211,
        "8342": 201,
        "8343": 210,
        "8344": 177,
        "8345": 183,
        "8346": 185,
        "8347": 60,
        "8348": 21,
        "8349": 97,
        "8350": 126,
        "8351": 53,
        "8352": 115,
        "8353": 217,
        "8354": 34,
        "8355": 42,
        "8356": 89,
        "8357": 155,
        "8358": 238,
        "8359": 39,
        "8360": 237,
        "8361": 12,
        "8362": 222,
        "8363": 229,
        "8364": 146,
        "8365": 109,
        "8366": 173,
        "8367": 185,
        "8368": 80,
        "8369": 139,
        "8370": 158,
        "8371": 108,
        "8372": 159,
        "8373": 34,
        "8374": 121,
        "8375": 46,
        "8376": 181,
        "8377": 175,
        "8378": 14,
        "8379": 34,
        "8380": 167,
        "8381": 66,
        "8382": 248,
        "8383": 49,
        "8384": 62,
        "8385": 98,
        "8386": 154,
        "8387": 55,
        "8388": 62,
        "8389": 53,
        "8390": 184,
        "8391": 54,
        "8392": 84,
        "8393": 197,
        "8394": 148,
        "8395": 98,
        "8396": 96,
        "8397": 43,
        "8398": 174,
        "8399": 67,
        "8400": 68,
        "8401": 114,
        "8402": 73,
        "8403": 145,
        "8404": 243,
        "8405": 131,
        "8406": 108,
        "8407": 72,
        "8408": 23,
        "8409": 142,
        "8410": 138,
        "8411": 64,
        "8412": 19,
        "8413": 62,
        "8414": 225,
        "8415": 220,
        "8416": 247,
        "8417": 112,
        "8418": 40,
        "8419": 141,
        "8420": 108,
        "8421": 150,
        "8422": 94,
        "8423": 54,
        "8424": 81,
        "8425": 213,
        "8426": 252,
        "8427": 115,
        "8428": 26,
        "8429": 80,
        "8430": 20,
        "8431": 183,
        "8432": 251,
        "8433": 83,
        "8434": 174,
        "8435": 227,
        "8436": 39,
        "8437": 109,
        "8438": 251,
        "8439": 3,
        "8440": 222,
        "8441": 154,
        "8442": 47,
        "8443": 188,
        "8444": 43,
        "8445": 3,
        "8446": 212,
        "8447": 175,
        "8448": 164,
        "8449": 190,
        "8450": 70,
        "8451": 161,
        "8452": 151,
        "8453": 53,
        "8454": 75,
        "8455": 117,
        "8456": 144,
        "8457": 231,
        "8458": 22,
        "8459": 11,
        "8460": 163,
        "8461": 228,
        "8462": 173,
        "8463": 101,
        "8464": 60,
        "8465": 20,
        "8466": 140,
        "8467": 224,
        "8468": 136,
        "8469": 107,
        "8470": 211,
        "8471": 189,
        "8472": 204,
        "8473": 186,
        "8474": 103,
        "8475": 175,
        "8476": 103,
        "8477": 76,
        "8478": 65,
        "8479": 189,
        "8480": 78,
        "8481": 19,
        "8482": 182,
        "8483": 7,
        "8484": 14,
        "8485": 217,
        "8486": 142,
        "8487": 240,
        "8488": 227,
        "8489": 159,
        "8490": 143,
        "8491": 212,
        "8492": 193,
        "8493": 26,
        "8494": 195,
        "8495": 34,
        "8496": 10,
        "8497": 171,
        "8498": 19,
        "8499": 161,
        "8500": 118,
        "8501": 111,
        "8502": 23,
        "8503": 107,
        "8504": 116,
        "8505": 195,
        "8506": 5,
        "8507": 170,
        "8508": 147,
        "8509": 83,
        "8510": 21,
        "8511": 44,
        "8512": 206,
        "8513": 239,
        "8514": 29,
        "8515": 30,
        "8516": 247,
        "8517": 150,
        "8518": 239,
        "8519": 151,
        "8520": 99,
        "8521": 232,
        "8522": 74,
        "8523": 116,
        "8524": 235,
        "8525": 158,
        "8526": 62,
        "8527": 168,
        "8528": 217,
        "8529": 34,
        "8530": 209,
        "8531": 172,
        "8532": 196,
        "8533": 78,
        "8534": 147,
        "8535": 202,
        "8536": 28,
        "8537": 50,
        "8538": 27,
        "8539": 212,
        "8540": 94,
        "8541": 43,
        "8542": 74,
        "8543": 129,
        "8544": 163,
        "8545": 59,
        "8546": 230,
        "8547": 232,
        "8548": 204,
        "8549": 79,
        "8550": 161,
        "8551": 66,
        "8552": 127,
        "8553": 66,
        "8554": 186,
        "8555": 28,
        "8556": 164,
        "8557": 22,
        "8558": 111,
        "8559": 229,
        "8560": 227,
        "8561": 76,
        "8562": 75,
        "8563": 139,
        "8564": 131,
        "8565": 71,
        "8566": 217,
        "8567": 14,
        "8568": 19,
        "8569": 131,
        "8570": 191,
        "8571": 171,
        "8572": 239,
        "8573": 224,
        "8574": 86,
        "8575": 126,
        "8576": 217,
        "8577": 67,
        "8578": 26,
        "8579": 104,
        "8580": 231,
        "8581": 17,
        "8582": 145,
        "8583": 37,
        "8584": 105,
        "8585": 52,
        "8586": 79,
        "8587": 82,
        "8588": 52,
        "8589": 154,
        "8590": 105,
        "8591": 190,
        "8592": 241,
        "8593": 203,
        "8594": 186,
        "8595": 163,
        "8596": 119,
        "8597": 193,
        "8598": 107,
        "8599": 188,
        "8600": 38,
        "8601": 87,
        "8602": 238,
        "8603": 88,
        "8604": 234,
        "8605": 73,
        "8606": 71,
        "8607": 147,
        "8608": 6,
        "8609": 191,
        "8610": 72,
        "8611": 123,
        "8612": 48,
        "8613": 107,
        "8614": 197,
        "8615": 144,
        "8616": 76,
        "8617": 82,
        "8618": 110,
        "8619": 147,
        "8620": 30,
        "8621": 179,
        "8622": 108,
        "8623": 30,
        "8624": 185,
        "8625": 33,
        "8626": 66,
        "8627": 125,
        "8628": 11,
        "8629": 185,
        "8630": 173,
        "8631": 158,
        "8632": 58,
        "8633": 168,
        "8634": 116,
        "8635": 213,
        "8636": 79,
        "8637": 195,
        "8638": 176,
        "8639": 175,
        "8640": 177,
        "8641": 49,
        "8642": 186,
        "8643": 139,
        "8644": 236,
        "8645": 157,
        "8646": 101,
        "8647": 116,
        "8648": 83,
        "8649": 30,
        "8650": 62,
        "8651": 68,
        "8652": 118,
        "8653": 37,
        "8654": 138,
        "8655": 43,
        "8656": 127,
        "8657": 176,
        "8658": 191,
        "8659": 162,
        "8660": 42,
        "8661": 95,
        "8662": 29,
        "8663": 205,
        "8664": 107,
        "8665": 31,
        "8666": 165,
        "8667": 44,
        "8668": 105,
        "8669": 246,
        "8670": 18,
        "8671": 112,
        "8672": 102,
        "8673": 0,
        "8674": 33,
        "8675": 172,
        "8676": 188,
        "8677": 136,
        "8678": 91,
        "8679": 149,
        "8680": 92,
        "8681": 48,
        "8682": 170,
        "8683": 56,
        "8684": 117,
        "8685": 37,
        "8686": 147,
        "8687": 53,
        "8688": 112,
        "8689": 15,
        "8690": 148,
        "8691": 20,
        "8692": 83,
        "8693": 232,
        "8694": 82,
        "8695": 164,
        "8696": 37,
        "8697": 178,
        "8698": 117,
        "8699": 242,
        "8700": 218,
        "8701": 183,
        "8702": 183,
        "8703": 107,
        "8704": 79,
        "8705": 18,
        "8706": 9,
        "8707": 98,
        "8708": 115,
        "8709": 205,
        "8710": 36,
        "8711": 137,
        "8712": 147,
        "8713": 37,
        "8714": 25,
        "8715": 2,
        "8716": 127,
        "8717": 23,
        "8718": 8,
        "8719": 148,
        "8720": 34,
        "8721": 145,
        "8722": 103,
        "8723": 153,
        "8724": 61,
        "8725": 84,
        "8726": 191,
        "8727": 241,
        "8728": 133,
        "8729": 132,
        "8730": 43,
        "8731": 193,
        "8732": 86,
        "8733": 160,
        "8734": 32,
        "8735": 174,
        "8736": 133,
        "8737": 244,
        "8738": 201,
        "8739": 7,
        "8740": 218,
        "8741": 204,
        "8742": 91,
        "8743": 207,
        "8744": 6,
        "8745": 173,
        "8746": 228,
        "8747": 123,
        "8748": 86,
        "8749": 55,
        "8750": 18,
        "8751": 250,
        "8752": 185,
        "8753": 73,
        "8754": 137,
        "8755": 183,
        "8756": 210,
        "8757": 11,
        "8758": 41,
        "8759": 127,
        "8760": 111,
        "8761": 182,
        "8762": 5,
        "8763": 245,
        "8764": 194,
        "8765": 9,
        "8766": 67,
        "8767": 224,
        "8768": 73,
        "8769": 85,
        "8770": 24,
        "8771": 250,
        "8772": 14,
        "8773": 80,
        "8774": 140,
        "8775": 96,
        "8776": 251,
        "8777": 11,
        "8778": 186,
        "8779": 0,
        "8780": 43,
        "8781": 216,
        "8782": 107,
        "8783": 245,
        "8784": 155,
        "8785": 221,
        "8786": 7,
        "8787": 202,
        "8788": 77,
        "8789": 199,
        "8790": 167,
        "8791": 167,
        "8792": 75,
        "8793": 121,
        "8794": 66,
        "8795": 35,
        "8796": 24,
        "8797": 53,
        "8798": 89,
        "8799": 241,
        "8800": 79,
        "8801": 90,
        "8802": 247,
        "8803": 182,
        "8804": 136,
        "8805": 20,
        "8806": 215,
        "8807": 164,
        "8808": 123,
        "8809": 38,
        "8810": 8,
        "8811": 162,
        "8812": 85,
        "8813": 74,
        "8814": 107,
        "8815": 117,
        "8816": 167,
        "8817": 131,
        "8818": 230,
        "8819": 155,
        "8820": 76,
        "8821": 205,
        "8822": 19,
        "8823": 130,
        "8824": 217,
        "8825": 215,
        "8826": 83,
        "8827": 95,
        "8828": 15,
        "8829": 188,
        "8830": 78,
        "8831": 91,
        "8832": 63,
        "8833": 121,
        "8834": 245,
        "8835": 172,
        "8836": 6,
        "8837": 230,
        "8838": 33,
        "8839": 241,
        "8840": 32,
        "8841": 77,
        "8842": 111,
        "8843": 44,
        "8844": 59,
        "8845": 157,
        "8846": 62,
        "8847": 239,
        "8848": 108,
        "8849": 165,
        "8850": 18,
        "8851": 188,
        "8852": 17,
        "8853": 99,
        "8854": 23,
        "8855": 212,
        "8856": 37,
        "8857": 57,
        "8858": 246,
        "8859": 129,
        "8860": 45,
        "8861": 127,
        "8862": 236,
        "8863": 133,
        "8864": 71,
        "8865": 104,
        "8866": 188,
        "8867": 221,
        "8868": 25,
        "8869": 246,
        "8870": 85,
        "8871": 154,
        "8872": 218,
        "8873": 79,
        "8874": 165,
        "8875": 12,
        "8876": 6,
        "8877": 192,
        "8878": 14,
        "8879": 220,
        "8880": 225,
        "8881": 235,
        "8882": 2,
        "8883": 142,
        "8884": 155,
        "8885": 239,
        "8886": 103,
        "8887": 173,
        "8888": 172,
        "8889": 176,
        "8890": 1,
        "8891": 105,
        "8892": 150,
        "8893": 110,
        "8894": 182,
        "8895": 157,
        "8896": 161,
        "8897": 59,
        "8898": 129,
        "8899": 84,
        "8900": 179,
        "8901": 192,
        "8902": 63,
        "8903": 59,
        "8904": 253,
        "8905": 125,
        "8906": 113,
        "8907": 80,
        "8908": 229,
        "8909": 229,
        "8910": 96,
        "8911": 46,
        "8912": 110,
        "8913": 95,
        "8914": 2,
        "8915": 31,
        "8916": 199,
        "8917": 107,
        "8918": 143,
        "8919": 141,
        "8920": 197,
        "8921": 89,
        "8922": 248,
        "8923": 250,
        "8924": 147,
        "8925": 102,
        "8926": 247,
        "8927": 204,
        "8928": 114,
        "8929": 97,
        "8930": 124,
        "8931": 81,
        "8932": 250,
        "8933": 54,
        "8934": 41,
        "8935": 122,
        "8936": 241,
        "8937": 108,
        "8938": 90,
        "8939": 125,
        "8940": 6,
        "8941": 112,
        "8942": 230,
        "8943": 244,
        "8944": 69,
        "8945": 29,
        "8946": 230,
        "8947": 13,
        "8948": 23,
        "8949": 84,
        "8950": 2,
        "8951": 197,
        "8952": 58,
        "8953": 123,
        "8954": 229,
        "8955": 84,
        "8956": 38,
        "8957": 106,
        "8958": 104,
        "8959": 177,
        "8960": 154,
        "8961": 157,
        "8962": 88,
        "8963": 160,
        "8964": 213,
        "8965": 133,
        "8966": 9,
        "8967": 170,
        "8968": 72,
        "8969": 48,
        "8970": 77,
        "8971": 223,
        "8972": 22,
        "8973": 94,
        "8974": 215,
        "8975": 117,
        "8976": 231,
        "8977": 199,
        "8978": 126,
        "8979": 243,
        "8980": 182,
        "8981": 92,
        "8982": 43,
        "8983": 140,
        "8984": 32,
        "8985": 169,
        "8986": 103,
        "8987": 64,
        "8988": 189,
        "8989": 60,
        "8990": 180,
        "8991": 121,
        "8992": 130,
        "8993": 232,
        "8994": 246,
        "8995": 109,
        "8996": 176,
        "8997": 192,
        "8998": 153,
        "8999": 226,
        "9000": 215,
        "9001": 82,
        "9002": 64,
        "9003": 107,
        "9004": 62,
        "9005": 134,
        "9006": 25,
        "9007": 139,
        "9008": 235,
        "9009": 208,
        "9010": 10,
        "9011": 150,
        "9012": 31,
        "9013": 120,
        "9014": 250,
        "9015": 222,
        "9016": 22,
        "9017": 54,
        "9018": 200,
        "9019": 14,
        "9020": 253,
        "9021": 129,
        "9022": 134,
        "9023": 223,
        "9024": 49,
        "9025": 74,
        "9026": 170,
        "9027": 129,
        "9028": 68,
        "9029": 68,
        "9030": 86,
        "9031": 143,
        "9032": 69,
        "9033": 147,
        "9034": 28,
        "9035": 196,
        "9036": 241,
        "9037": 97,
        "9038": 36,
        "9039": 164,
        "9040": 245,
        "9041": 53,
        "9042": 122,
        "9043": 127,
        "9044": 188,
        "9045": 22,
        "9046": 186,
        "9047": 75,
        "9048": 195,
        "9049": 51,
        "9050": 199,
        "9051": 127,
        "9052": 146,
        "9053": 61,
        "9054": 201,
        "9055": 118,
        "9056": 29,
        "9057": 8,
        "9058": 117,
        "9059": 110,
        "9060": 49,
        "9061": 191,
        "9062": 236,
        "9063": 153,
        "9064": 122,
        "9065": 180,
        "9066": 30,
        "9067": 59,
        "9068": 169,
        "9069": 124,
        "9070": 226,
        "9071": 183,
        "9072": 74,
        "9073": 210,
        "9074": 230,
        "9075": 138,
        "9076": 103,
        "9077": 32,
        "9078": 101,
        "9079": 45,
        "9080": 169,
        "9081": 61,
        "9082": 175,
        "9083": 126,
        "9084": 33,
        "9085": 114,
        "9086": 73,
        "9087": 29,
        "9088": 27,
        "9089": 197,
        "9090": 151,
        "9091": 26,
        "9092": 13,
        "9093": 208,
        "9094": 194,
        "9095": 77,
        "9096": 235,
        "9097": 96,
        "9098": 149,
        "9099": 87,
        "9100": 34,
        "9101": 123,
        "9102": 52,
        "9103": 158,
        "9104": 172,
        "9105": 212,
        "9106": 241,
        "9107": 163,
        "9108": 96,
        "9109": 122,
        "9110": 129,
        "9111": 116,
        "9112": 214,
        "9113": 186,
        "9114": 252,
        "9115": 231,
        "9116": 10,
        "9117": 146,
        "9118": 236,
        "9119": 58,
        "9120": 198,
        "9121": 97,
        "9122": 74,
        "9123": 191,
        "9124": 167,
        "9125": 112,
        "9126": 154,
        "9127": 52,
        "9128": 74,
        "9129": 224,
        "9130": 122,
        "9131": 218,
        "9132": 158,
        "9133": 189,
        "9134": 200,
        "9135": 194,
        "9136": 157,
        "9137": 232,
        "9138": 73,
        "9139": 44,
        "9140": 164,
        "9141": 55,
        "9142": 185,
        "9143": 16,
        "9144": 29,
        "9145": 47,
        "9146": 27,
        "9147": 245,
        "9148": 2,
        "9149": 152,
        "9150": 187,
        "9151": 62,
        "9152": 111,
        "9153": 122,
        "9154": 195,
        "9155": 19,
        "9156": 225,
        "9157": 58,
        "9158": 214,
        "9159": 87,
        "9160": 104,
        "9161": 211,
        "9162": 200,
        "9163": 54,
        "9164": 207,
        "9165": 187,
        "9166": 228,
        "9167": 21,
        "9168": 233,
        "9169": 12,
        "9170": 235,
        "9171": 89,
        "9172": 2,
        "9173": 7,
        "9174": 25,
        "9175": 206,
        "9176": 70,
        "9177": 244,
        "9178": 35,
        "9179": 145,
        "9180": 217,
        "9181": 157,
        "9182": 116,
        "9183": 228,
        "9184": 112,
        "9185": 128,
        "9186": 64,
        "9187": 88,
        "9188": 28,
        "9189": 81,
        "9190": 91,
        "9191": 185,
        "9192": 163,
        "9193": 234,
        "9194": 96,
        "9195": 251,
        "9196": 216,
        "9197": 64,
        "9198": 216,
        "9199": 78,
        "9200": 203,
        "9201": 255,
        "9202": 74,
        "9203": 235,
        "9204": 28,
        "9205": 90,
        "9206": 83,
        "9207": 185,
        "9208": 108,
        "9209": 76,
        "9210": 157,
        "9211": 41,
        "9212": 76,
        "9213": 184,
        "9214": 185,
        "9215": 104,
        "9216": 236,
        "9217": 22,
        "9218": 229,
        "9219": 121,
        "9220": 182,
        "9221": 135,
        "9222": 79,
        "9223": 225,
        "9224": 147,
        "9225": 14,
        "9226": 109,
        "9227": 184,
        "9228": 82,
        "9229": 181,
        "9230": 79,
        "9231": 215,
        "9232": 189,
        "9233": 234,
        "9234": 215,
        "9235": 20,
        "9236": 39,
        "9237": 185,
        "9238": 215,
        "9239": 136,
        "9240": 92,
        "9241": 123,
        "9242": 73,
        "9243": 243,
        "9244": 242,
        "9245": 108,
        "9246": 99,
        "9247": 140,
        "9248": 65,
        "9249": 238,
        "9250": 65,
        "9251": 142,
        "9252": 189,
        "9253": 208,
        "9254": 105,
        "9255": 247,
        "9256": 167,
        "9257": 170,
        "9258": 169,
        "9259": 101,
        "9260": 30,
        "9261": 42,
        "9262": 125,
        "9263": 69,
        "9264": 138,
        "9265": 113,
        "9266": 203,
        "9267": 227,
        "9268": 56,
        "9269": 71,
        "9270": 192,
        "9271": 236,
        "9272": 165,
        "9273": 46,
        "9274": 4,
        "9275": 38,
        "9276": 29,
        "9277": 83,
        "9278": 93,
        "9279": 3,
        "9280": 210,
        "9281": 80,
        "9282": 4,
        "9283": 153,
        "9284": 182,
        "9285": 74,
        "9286": 99,
        "9287": 160,
        "9288": 241,
        "9289": 113,
        "9290": 251,
        "9291": 196,
        "9292": 253,
        "9293": 58,
        "9294": 124,
        "9295": 235,
        "9296": 232,
        "9297": 62,
        "9298": 75,
        "9299": 52,
        "9300": 237,
        "9301": 232,
        "9302": 94,
        "9303": 148,
        "9304": 5,
        "9305": 82,
        "9306": 177,
        "9307": 123,
        "9308": 18,
        "9309": 49,
        "9310": 40,
        "9311": 13,
        "9312": 223,
        "9313": 166,
        "9314": 203,
        "9315": 38,
        "9316": 213,
        "9317": 103,
        "9318": 170,
        "9319": 20,
        "9320": 197,
        "9321": 149,
        "9322": 108,
        "9323": 208,
        "9324": 104,
        "9325": 139,
        "9326": 174,
        "9327": 120,
        "9328": 108,
        "9329": 152,
        "9330": 123,
        "9331": 237,
        "9332": 96,
        "9333": 40,
        "9334": 185,
        "9335": 219,
        "9336": 3,
        "9337": 191,
        "9338": 227,
        "9339": 76,
        "9340": 23,
        "9341": 141,
        "9342": 217,
        "9343": 27,
        "9344": 169,
        "9345": 13,
        "9346": 206,
        "9347": 85,
        "9348": 32,
        "9349": 132,
        "9350": 167,
        "9351": 225,
        "9352": 252,
        "9353": 27,
        "9354": 19,
        "9355": 169,
        "9356": 234,
        "9357": 84,
        "9358": 208,
        "9359": 105,
        "9360": 9,
        "9361": 34,
        "9362": 68,
        "9363": 154,
        "9364": 163,
        "9365": 78,
        "9366": 44,
        "9367": 141,
        "9368": 18,
        "9369": 118,
        "9370": 96,
        "9371": 175,
        "9372": 70,
        "9373": 196,
        "9374": 27,
        "9375": 38,
        "9376": 59,
        "9377": 204,
        "9378": 100,
        "9379": 83,
        "9380": 222,
        "9381": 245,
        "9382": 24,
        "9383": 182,
        "9384": 19,
        "9385": 253,
        "9386": 165,
        "9387": 82,
        "9388": 203,
        "9389": 145,
        "9390": 52,
        "9391": 104,
        "9392": 39,
        "9393": 80,
        "9394": 20,
        "9395": 194,
        "9396": 138,
        "9397": 96,
        "9398": 97,
        "9399": 103,
        "9400": 31,
        "9401": 201,
        "9402": 58,
        "9403": 37,
        "9404": 47,
        "9405": 187,
        "9406": 128,
        "9407": 8,
        "9408": 166,
        "9409": 116,
        "9410": 181,
        "9411": 227,
        "9412": 41,
        "9413": 46,
        "9414": 212,
        "9415": 225,
        "9416": 131,
        "9417": 181,
        "9418": 215,
        "9419": 12,
        "9420": 102,
        "9421": 60,
        "9422": 174,
        "9423": 8,
        "9424": 27,
        "9425": 133,
        "9426": 55,
        "9427": 22,
        "9428": 154,
        "9429": 6,
        "9430": 12,
        "9431": 127,
        "9432": 128,
        "9433": 176,
        "9434": 31,
        "9435": 219,
        "9436": 238,
        "9437": 161,
        "9438": 224,
        "9439": 37,
        "9440": 162,
        "9441": 223,
        "9442": 152,
        "9443": 76,
        "9444": 161,
        "9445": 246,
        "9446": 239,
        "9447": 10,
        "9448": 189,
        "9449": 132,
        "9450": 98,
        "9451": 64,
        "9452": 107,
        "9453": 8,
        "9454": 59,
        "9455": 11,
        "9456": 31,
        "9457": 225,
        "9458": 83,
        "9459": 179,
        "9460": 77,
        "9461": 62,
        "9462": 202,
        "9463": 141,
        "9464": 205,
        "9465": 194,
        "9466": 106,
        "9467": 201,
        "9468": 223,
        "9469": 30,
        "9470": 73,
        "9471": 93,
        "9472": 63,
        "9473": 208,
        "9474": 129,
        "9475": 191,
        "9476": 220,
        "9477": 18,
        "9478": 244,
        "9479": 252,
        "9480": 27,
        "9481": 107,
        "9482": 64,
        "9483": 219,
        "9484": 254,
        "9485": 186,
        "9486": 157,
        "9487": 43,
        "9488": 51,
        "9489": 140,
        "9490": 157,
        "9491": 122,
        "9492": 200,
        "9493": 35,
        "9494": 208,
        "9495": 57,
        "9496": 185,
        "9497": 42,
        "9498": 137,
        "9499": 9,
        "9500": 58,
        "9501": 11,
        "9502": 21,
        "9503": 205,
        "9504": 182,
        "9505": 255,
        "9506": 221,
        "9507": 162,
        "9508": 174,
        "9509": 6,
        "9510": 68,
        "9511": 191,
        "9512": 131,
        "9513": 144,
        "9514": 121,
        "9515": 164,
        "9516": 247,
        "9517": 97,
        "9518": 70,
        "9519": 180,
        "9520": 68,
        "9521": 166,
        "9522": 16,
        "9523": 0,
        "9524": 12,
        "9525": 254,
        "9526": 84,
        "9527": 91,
        "9528": 158,
        "9529": 129,
        "9530": 131,
        "9531": 182,
        "9532": 73,
        "9533": 26,
        "9534": 88,
        "9535": 210,
        "9536": 224,
        "9537": 0,
        "9538": 43,
        "9539": 21,
        "9540": 112,
        "9541": 23,
        "9542": 3,
        "9543": 50,
        "9544": 215,
        "9545": 23,
        "9546": 69,
        "9547": 134,
        "9548": 2,
        "9549": 29,
        "9550": 176,
        "9551": 99,
        "9552": 234,
        "9553": 12,
        "9554": 246,
        "9555": 69,
        "9556": 40,
        "9557": 221,
        "9558": 2,
        "9559": 221,
        "9560": 176,
        "9561": 217,
        "9562": 34,
        "9563": 9,
        "9564": 122,
        "9565": 40,
        "9566": 237,
        "9567": 199,
        "9568": 169,
        "9569": 111,
        "9570": 152,
        "9571": 65,
        "9572": 144,
        "9573": 156,
        "9574": 9,
        "9575": 78,
        "9576": 183,
        "9577": 56,
        "9578": 218,
        "9579": 44,
        "9580": 243,
        "9581": 197,
        "9582": 239,
        "9583": 17,
        "9584": 55,
        "9585": 95,
        "9586": 43,
        "9587": 47,
        "9588": 233,
        "9589": 131,
        "9590": 62,
        "9591": 97,
        "9592": 9,
        "9593": 167,
        "9594": 159,
        "9595": 238,
        "9596": 180,
        "9597": 117,
        "9598": 51,
        "9599": 207,
        "9600": 184,
        "9601": 177,
        "9602": 182,
        "9603": 234,
        "9604": 48,
        "9605": 15,
        "9606": 78,
        "9607": 198,
        "9608": 23,
        "9609": 244,
        "9610": 28,
        "9611": 125,
        "9612": 31,
        "9613": 29,
        "9614": 180,
        "9615": 109,
        "9616": 100,
        "9617": 26,
        "9618": 188,
        "9619": 0,
        "9620": 144,
        "9621": 84,
        "9622": 221,
        "9623": 210,
        "9624": 205,
        "9625": 110,
        "9626": 84,
        "9627": 118,
        "9628": 226,
        "9629": 204,
        "9630": 56,
        "9631": 171,
        "9632": 112,
        "9633": 159,
        "9634": 227,
        "9635": 202,
        "9636": 38,
        "9637": 116,
        "9638": 197,
        "9639": 20,
        "9640": 184,
        "9641": 170,
        "9642": 40,
        "9643": 162,
        "9644": 250,
        "9645": 188,
        "9646": 7,
        "9647": 78,
        "9648": 228,
        "9649": 228,
        "9650": 247,
        "9651": 116,
        "9652": 85,
        "9653": 248,
        "9654": 136,
        "9655": 173,
        "9656": 105,
        "9657": 34,
        "9658": 74,
        "9659": 128,
        "9660": 195,
        "9661": 158,
        "9662": 80,
        "9663": 104,
        "9664": 128,
        "9665": 164,
        "9666": 198,
        "9667": 218,
        "9668": 143,
        "9669": 208,
        "9670": 92,
        "9671": 172,
        "9672": 16,
        "9673": 95,
        "9674": 125,
        "9675": 56,
        "9676": 240,
        "9677": 185,
        "9678": 220,
        "9679": 198,
        "9680": 210,
        "9681": 208,
        "9682": 71,
        "9683": 156,
        "9684": 174,
        "9685": 243,
        "9686": 0,
        "9687": 164,
        "9688": 219,
        "9689": 208,
        "9690": 232,
        "9691": 175,
        "9692": 225,
        "9693": 162,
        "9694": 255,
        "9695": 252,
        "9696": 94,
        "9697": 39,
        "9698": 241,
        "9699": 124,
        "9700": 67,
        "9701": 173,
        "9702": 171,
        "9703": 209,
        "9704": 118,
        "9705": 172,
        "9706": 71,
        "9707": 108,
        "9708": 0,
        "9709": 72,
        "9710": 95,
        "9711": 99,
        "9712": 181,
        "9713": 219,
        "9714": 248,
        "9715": 142,
        "9716": 222,
        "9717": 233,
        "9718": 194,
        "9719": 242,
        "9720": 122,
        "9721": 74,
        "9722": 231,
        "9723": 242,
        "9724": 78,
        "9725": 166,
        "9726": 155,
        "9727": 128,
        "9728": 90,
        "9729": 81,
        "9730": 96,
        "9731": 158,
        "9732": 109,
        "9733": 107,
        "9734": 57,
        "9735": 130,
        "9736": 49,
        "9737": 117,
        "9738": 184,
        "9739": 87,
        "9740": 118,
        "9741": 77,
        "9742": 251,
        "9743": 251,
        "9744": 191,
        "9745": 20,
        "9746": 15,
        "9747": 17,
        "9748": 243,
        "9749": 172,
        "9750": 185,
        "9751": 85,
        "9752": 220,
        "9753": 128,
        "9754": 98,
        "9755": 72,
        "9756": 186,
        "9757": 28,
        "9758": 124,
        "9759": 84,
        "9760": 100,
        "9761": 116,
        "9762": 1,
        "9763": 85,
        "9764": 76,
        "9765": 150,
        "9766": 34,
        "9767": 226,
        "9768": 219,
        "9769": 64,
        "9770": 22,
        "9771": 137,
        "9772": 122,
        "9773": 216,
        "9774": 196,
        "9775": 33,
        "9776": 74,
        "9777": 89,
        "9778": 179,
        "9779": 181,
        "9780": 187,
        "9781": 38,
        "9782": 39,
        "9783": 202,
        "9784": 180,
        "9785": 222,
        "9786": 236,
        "9787": 105,
        "9788": 35,
        "9789": 199,
        "9790": 163,
        "9791": 74,
        "9792": 17,
        "9793": 185,
        "9794": 93,
        "9795": 218,
        "9796": 147,
        "9797": 221,
        "9798": 237,
        "9799": 175,
        "9800": 213,
        "9801": 110,
        "9802": 32,
        "9803": 64,
        "9804": 11,
        "9805": 254,
        "9806": 192,
        "9807": 210,
        "9808": 158,
        "9809": 23,
        "9810": 155,
        "9811": 48,
        "9812": 183,
        "9813": 60,
        "9814": 120,
        "9815": 131,
        "9816": 149,
        "9817": 147,
        "9818": 87,
        "9819": 1,
        "9820": 173,
        "9821": 78,
        "9822": 201,
        "9823": 188,
        "9824": 234,
        "9825": 140,
        "9826": 20,
        "9827": 150,
        "9828": 219,
        "9829": 189,
        "9830": 53,
        "9831": 219,
        "9832": 190,
        "9833": 46,
        "9834": 66,
        "9835": 152,
        "9836": 93,
        "9837": 216,
        "9838": 10,
        "9839": 17,
        "9840": 117,
        "9841": 191,
        "9842": 38,
        "9843": 74,
        "9844": 254,
        "9845": 207,
        "9846": 8,
        "9847": 194,
        "9848": 66,
        "9849": 116,
        "9850": 132,
        "9851": 218,
        "9852": 249,
        "9853": 199,
        "9854": 27,
        "9855": 66,
        "9856": 47,
        "9857": 149,
        "9858": 133,
        "9859": 38,
        "9860": 140,
        "9861": 139,
        "9862": 178,
        "9863": 11,
        "9864": 13,
        "9865": 83,
        "9866": 72,
        "9867": 247,
        "9868": 82,
        "9869": 114,
        "9870": 180,
        "9871": 240,
        "9872": 252,
        "9873": 214,
        "9874": 183,
        "9875": 91,
        "9876": 46,
        "9877": 83,
        "9878": 69,
        "9879": 101,
        "9880": 178,
        "9881": 178,
        "9882": 103,
        "9883": 209,
        "9884": 218,
        "9885": 235,
        "9886": 234,
        "9887": 53,
        "9888": 165,
        "9889": 21,
        "9890": 202,
        "9891": 144,
        "9892": 88,
        "9893": 190,
        "9894": 97,
        "9895": 2,
        "9896": 30,
        "9897": 21,
        "9898": 160,
        "9899": 87,
        "9900": 36,
        "9901": 248,
        "9902": 183,
        "9903": 114,
        "9904": 123,
        "9905": 213,
        "9906": 194,
        "9907": 24,
        "9908": 33,
        "9909": 55,
        "9910": 87,
        "9911": 186,
        "9912": 143,
        "9913": 12,
        "9914": 1,
        "9915": 119,
        "9916": 191,
        "9917": 56,
        "9918": 76,
        "9919": 197,
        "9920": 193,
        "9921": 180,
        "9922": 52,
        "9923": 37,
        "9924": 7,
        "9925": 194,
        "9926": 105,
        "9927": 249,
        "9928": 214,
        "9929": 237,
        "9930": 4,
        "9931": 137,
        "9932": 1,
        "9933": 156,
        "9934": 198,
        "9935": 89,
        "9936": 2,
        "9937": 184,
        "9938": 162,
        "9939": 229,
        "9940": 149,
        "9941": 81,
        "9942": 181,
        "9943": 114,
        "9944": 101,
        "9945": 105,
        "9946": 199,
        "9947": 209,
        "9948": 241,
        "9949": 49,
        "9950": 46,
        "9951": 133,
        "9952": 16,
        "9953": 63,
        "9954": 95,
        "9955": 214,
        "9956": 6,
        "9957": 81,
        "9958": 206,
        "9959": 147,
        "9960": 113,
        "9961": 186,
        "9962": 249,
        "9963": 239,
        "9964": 183,
        "9965": 25,
        "9966": 19,
        "9967": 122,
        "9968": 181,
        "9969": 157,
        "9970": 119,
        "9971": 16,
        "9972": 111,
        "9973": 211,
        "9974": 78,
        "9975": 129,
        "9976": 76,
        "9977": 51,
        "9978": 247,
        "9979": 212,
        "9980": 65,
        "9981": 30,
        "9982": 158,
        "9983": 141,
        "9984": 248,
        "9985": 93,
        "9986": 152,
        "9987": 63,
        "9988": 225,
        "9989": 95,
        "9990": 237,
        "9991": 246,
        "9992": 170,
        "9993": 115,
        "9994": 255,
        "9995": 8,
        "9996": 100,
        "9997": 253,
        "9998": 55,
        "9999": 128,
        "10000": 106,
        "10001": 71,
        "10002": 186,
        "10003": 12,
        "10004": 213,
        "10005": 181,
        "10006": 249,
        "10007": 208,
        "10008": 237,
        "10009": 4,
        "10010": 207,
        "10011": 62,
        "10012": 63,
        "10013": 88,
        "10014": 191,
        "10015": 182,
        "10016": 154,
        "10017": 118,
        "10018": 248,
        "10019": 250,
        "10020": 88,
        "10021": 205,
        "10022": 164,
        "10023": 121,
        "10024": 196,
        "10025": 129,
        "10026": 22,
        "10027": 199,
        "10028": 241,
        "10029": 31,
        "10030": 230,
        "10031": 197,
        "10032": 2,
        "10033": 28,
        "10034": 28,
        "10035": 170,
        "10036": 177,
        "10037": 232,
        "10038": 145,
        "10039": 199,
        "10040": 62,
        "10041": 19,
        "10042": 193,
        "10043": 118,
        "10044": 128,
        "10045": 142,
        "10046": 189,
        "10047": 44,
        "10048": 174,
        "10049": 223,
        "10050": 52,
        "10051": 191,
        "10052": 5,
        "10053": 113,
        "10054": 212,
        "10055": 40,
        "10056": 226,
        "10057": 139,
        "10058": 201,
        "10059": 172,
        "10060": 97,
        "10061": 219,
        "10062": 131,
        "10063": 235,
        "10064": 72,
        "10065": 203,
        "10066": 145,
        "10067": 210,
        "10068": 58,
        "10069": 108,
        "10070": 0,
        "10071": 71,
        "10072": 171,
        "10073": 107,
        "10074": 64,
        "10075": 209,
        "10076": 64,
        "10077": 222,
        "10078": 207,
        "10079": 70,
        "10080": 3,
        "10081": 138,
        "10082": 72,
        "10083": 51,
        "10084": 85,
        "10085": 175,
        "10086": 197,
        "10087": 208,
        "10088": 151,
        "10089": 185,
        "10090": 245,
        "10091": 69,
        "10092": 84,
        "10093": 153,
        "10094": 76,
        "10095": 193,
        "10096": 159,
        "10097": 192,
        "10098": 164,
        "10099": 134,
        "10100": 134,
        "10101": 205,
        "10102": 113,
        "10103": 195,
        "10104": 108,
        "10105": 224,
        "10106": 221,
        "10107": 166,
        "10108": 242,
        "10109": 214,
        "10110": 116,
        "10111": 247,
        "10112": 22,
        "10113": 129,
        "10114": 233,
        "10115": 235,
        "10116": 79,
        "10117": 126,
        "10118": 69,
        "10119": 211,
        "10120": 117,
        "10121": 66,
        "10122": 58,
        "10123": 197,
        "10124": 87,
        "10125": 204,
        "10126": 37,
        "10127": 216,
        "10128": 148,
        "10129": 76,
        "10130": 34,
        "10131": 52,
        "10132": 63,
        "10133": 203,
        "10134": 16,
        "10135": 12,
        "10136": 181,
        "10137": 107,
        "10138": 21,
        "10139": 187,
        "10140": 188,
        "10141": 223,
        "10142": 155,
        "10143": 241,
        "10144": 236,
        "10145": 55,
        "10146": 229,
        "10147": 242,
        "10148": 84,
        "10149": 202,
        "10150": 101,
        "10151": 231,
        "10152": 175,
        "10153": 200,
        "10154": 235,
        "10155": 165,
        "10156": 173,
        "10157": 136,
        "10158": 183,
        "10159": 24,
        "10160": 171,
        "10161": 113,
        "10162": 49,
        "10163": 8,
        "10164": 206,
        "10165": 63,
        "10166": 40,
        "10167": 220,
        "10168": 228,
        "10169": 74,
        "10170": 135,
        "10171": 121,
        "10172": 136,
        "10173": 209,
        "10174": 54,
        "10175": 123,
        "10176": 18,
        "10177": 251,
        "10178": 207,
        "10179": 163,
        "10180": 185,
        "10181": 131,
        "10182": 118,
        "10183": 227,
        "10184": 166,
        "10185": 0,
        "10186": 19,
        "10187": 215,
        "10188": 121,
        "10189": 188,
        "10190": 22,
        "10191": 249,
        "10192": 110,
        "10193": 53,
        "10194": 13,
        "10195": 247,
        "10196": 114,
        "10197": 232,
        "10198": 199,
        "10199": 205,
        "10200": 171,
        "10201": 31,
        "10202": 114,
        "10203": 50,
        "10204": 100,
        "10205": 185,
        "10206": 209,
        "10207": 115,
        "10208": 34,
        "10209": 199,
        "10210": 161,
        "10211": 182,
        "10212": 18,
        "10213": 21,
        "10214": 198,
        "10215": 131,
        "10216": 159,
        "10217": 195,
        "10218": 90,
        "10219": 1,
        "10220": 252,
        "10221": 106,
        "10222": 235,
        "10223": 159,
        "10224": 44,
        "10225": 149,
        "10226": 188,
        "10227": 124,
        "10228": 72,
        "10229": 131,
        "10230": 36,
        "10231": 77,
        "10232": 124,
        "10233": 198,
        "10234": 179,
        "10235": 101,
        "10236": 9,
        "10237": 65,
        "10238": 231,
        "10239": 175,
        "10240": 105,
        "10241": 65,
        "10242": 142,
        "10243": 244,
        "10244": 239,
        "10245": 135,
        "10246": 16,
        "10247": 45,
        "10248": 56,
        "10249": 82,
        "10250": 219,
        "10251": 12,
        "10252": 6,
        "10253": 134,
        "10254": 11,
        "10255": 58,
        "10256": 158,
        "10257": 238,
        "10258": 160,
        "10259": 134,
        "10260": 219,
        "10261": 245,
        "10262": 82,
        "10263": 51,
        "10264": 70,
        "10265": 78,
        "10266": 67,
        "10267": 180,
        "10268": 143,
        "10269": 169,
        "10270": 32,
        "10271": 97,
        "10272": 147,
        "10273": 90,
        "10274": 131,
        "10275": 149,
        "10276": 233,
        "10277": 245,
        "10278": 241,
        "10279": 195,
        "10280": 197,
        "10281": 191,
        "10282": 98,
        "10283": 67,
        "10284": 243,
        "10285": 32,
        "10286": 72,
        "10287": 110,
        "10288": 145,
        "10289": 111,
        "10290": 209,
        "10291": 233,
        "10292": 27,
        "10293": 187,
        "10294": 184,
        "10295": 79,
        "10296": 192,
        "10297": 235,
        "10298": 246,
        "10299": 236,
        "10300": 27,
        "10301": 38,
        "10302": 175,
        "10303": 177,
        "10304": 233,
        "10305": 164,
        "10306": 115,
        "10307": 139,
        "10308": 44,
        "10309": 18,
        "10310": 255,
        "10311": 76,
        "10312": 167,
        "10313": 54,
        "10314": 31,
        "10315": 104,
        "10316": 71,
        "10317": 1,
        "10318": 201,
        "10319": 197,
        "10320": 156,
        "10321": 40,
        "10322": 190,
        "10323": 56,
        "10324": 177,
        "10325": 243,
        "10326": 138,
        "10327": 167,
        "10328": 28,
        "10329": 140,
        "10330": 143,
        "10331": 237,
        "10332": 189,
        "10333": 212,
        "10334": 254,
        "10335": 73,
        "10336": 106,
        "10337": 105,
        "10338": 114,
        "10339": 17,
        "10340": 33,
        "10341": 54,
        "10342": 219,
        "10343": 21,
        "10344": 190,
        "10345": 54,
        "10346": 44,
        "10347": 78,
        "10348": 244,
        "10349": 201,
        "10350": 161,
        "10351": 249,
        "10352": 225,
        "10353": 37,
        "10354": 135,
        "10355": 228,
        "10356": 183,
        "10357": 178,
        "10358": 233,
        "10359": 64,
        "10360": 76,
        "10361": 74,
        "10362": 243,
        "10363": 96,
        "10364": 32,
        "10365": 189,
        "10366": 201,
        "10367": 241,
        "10368": 48,
        "10369": 6,
        "10370": 176,
        "10371": 203,
        "10372": 177,
        "10373": 211,
        "10374": 42,
        "10375": 80,
        "10376": 97,
        "10377": 29,
        "10378": 126,
        "10379": 192,
        "10380": 26,
        "10381": 247,
        "10382": 250,
        "10383": 204,
        "10384": 208,
        "10385": 202,
        "10386": 164,
        "10387": 240,
        "10388": 120,
        "10389": 37,
        "10390": 66,
        "10391": 225,
        "10392": 89,
        "10393": 42,
        "10394": 209,
        "10395": 89,
        "10396": 155,
        "10397": 119,
        "10398": 71,
        "10399": 228,
        "10400": 44,
        "10401": 84,
        "10402": 98,
        "10403": 203,
        "10404": 249,
        "10405": 192,
        "10406": 104,
        "10407": 163,
        "10408": 107,
        "10409": 161,
        "10410": 53,
        "10411": 15,
        "10412": 219,
        "10413": 142,
        "10414": 12,
        "10415": 248,
        "10416": 19,
        "10417": 238,
        "10418": 189,
        "10419": 3,
        "10420": 142,
        "10421": 0,
        "10422": 109,
        "10423": 212,
        "10424": 255,
        "10425": 159,
        "10426": 13,
        "10427": 127,
        "10428": 218,
        "10429": 99,
        "10430": 98,
        "10431": 136,
        "10432": 10,
        "10433": 0,
        "10434": 143,
        "10435": 82,
        "10436": 35,
        "10437": 79,
        "10438": 137,
        "10439": 7,
        "10440": 5,
        "10441": 140,
        "10442": 85,
        "10443": 25,
        "10444": 163,
        "10445": 140,
        "10446": 255,
        "10447": 162,
        "10448": 74,
        "10449": 136,
        "10450": 191,
        "10451": 134,
        "10452": 136,
        "10453": 75,
        "10454": 2,
        "10455": 88,
        "10456": 139,
        "10457": 24,
        "10458": 109,
        "10459": 222,
        "10460": 124,
        "10461": 202,
        "10462": 104,
        "10463": 20,
        "10464": 169,
        "10465": 91,
        "10466": 178,
        "10467": 84,
        "10468": 210,
        "10469": 156,
        "10470": 206,
        "10471": 180,
        "10472": 122,
        "10473": 188,
        "10474": 118,
        "10475": 171,
        "10476": 232,
        "10477": 46,
        "10478": 114,
        "10479": 86,
        "10480": 21,
        "10481": 164,
        "10482": 138,
        "10483": 1,
        "10484": 28,
        "10485": 102,
        "10486": 157,
        "10487": 58,
        "10488": 19,
        "10489": 253,
        "10490": 33,
        "10491": 91,
        "10492": 73,
        "10493": 42,
        "10494": 140,
        "10495": 19,
        "10496": 152,
        "10497": 121,
        "10498": 157,
        "10499": 190,
        "10500": 80,
        "10501": 9,
        "10502": 196,
        "10503": 38,
        "10504": 182,
        "10505": 125,
        "10506": 23,
        "10507": 184,
        "10508": 197,
        "10509": 50,
        "10510": 154,
        "10511": 64,
        "10512": 31,
        "10513": 196,
        "10514": 237,
        "10515": 224,
        "10516": 154,
        "10517": 88,
        "10518": 206,
        "10519": 196,
        "10520": 225,
        "10521": 110,
        "10522": 252,
        "10523": 246,
        "10524": 133,
        "10525": 203,
        "10526": 211,
        "10527": 210,
        "10528": 165,
        "10529": 22,
        "10530": 31,
        "10531": 113,
        "10532": 217,
        "10533": 61,
        "10534": 141,
        "10535": 233,
        "10536": 156,
        "10537": 103,
        "10538": 19,
        "10539": 85,
        "10540": 14,
        "10541": 91,
        "10542": 37,
        "10543": 173,
        "10544": 171,
        "10545": 70,
        "10546": 158,
        "10547": 105,
        "10548": 214,
        "10549": 141,
        "10550": 168,
        "10551": 79,
        "10552": 120,
        "10553": 227,
        "10554": 63,
        "10555": 241,
        "10556": 123,
        "10557": 178,
        "10558": 207,
        "10559": 120,
        "10560": 81,
        "10561": 45,
        "10562": 64,
        "10563": 57,
        "10564": 59,
        "10565": 28,
        "10566": 162,
        "10567": 91,
        "10568": 53,
        "10569": 235,
        "10570": 190,
        "10571": 185,
        "10572": 64,
        "10573": 80,
        "10574": 34,
        "10575": 110,
        "10576": 156,
        "10577": 128,
        "10578": 9,
        "10579": 9,
        "10580": 144,
        "10581": 202,
        "10582": 153,
        "10583": 221,
        "10584": 190,
        "10585": 27,
        "10586": 176,
        "10587": 76,
        "10588": 203,
        "10589": 160,
        "10590": 217,
        "10591": 187,
        "10592": 148,
        "10593": 173,
        "10594": 8,
        "10595": 35,
        "10596": 187,
        "10597": 213,
        "10598": 180,
        "10599": 79,
        "10600": 131,
        "10601": 152,
        "10602": 203,
        "10603": 47,
        "10604": 3,
        "10605": 237,
        "10606": 165,
        "10607": 177,
        "10608": 46,
        "10609": 29,
        "10610": 32,
        "10611": 221,
        "10612": 70,
        "10613": 210,
        "10614": 189,
        "10615": 92,
        "10616": 187,
        "10617": 122,
        "10618": 229,
        "10619": 239,
        "10620": 152,
        "10621": 85,
        "10622": 73,
        "10623": 145,
        "10624": 213,
        "10625": 182,
        "10626": 99,
        "10627": 131,
        "10628": 8,
        "10629": 153,
        "10630": 223,
        "10631": 156,
        "10632": 148,
        "10633": 126,
        "10634": 196,
        "10635": 168,
        "10636": 125,
        "10637": 143,
        "10638": 89,
        "10639": 181,
        "10640": 52,
        "10641": 13,
        "10642": 130,
        "10643": 53,
        "10644": 140,
        "10645": 216,
        "10646": 196,
        "10647": 205,
        "10648": 168,
        "10649": 111,
        "10650": 79,
        "10651": 247,
        "10652": 246,
        "10653": 30,
        "10654": 89,
        "10655": 196,
        "10656": 123,
        "10657": 131,
        "10658": 233,
        "10659": 121,
        "10660": 26,
        "10661": 113,
        "10662": 77,
        "10663": 53,
        "10664": 215,
        "10665": 103,
        "10666": 86,
        "10667": 80,
        "10668": 10,
        "10669": 48,
        "10670": 4,
        "10671": 185,
        "10672": 49,
        "10673": 123,
        "10674": 173,
        "10675": 60,
        "10676": 91,
        "10677": 20,
        "10678": 29,
        "10679": 93,
        "10680": 101,
        "10681": 114,
        "10682": 197,
        "10683": 136,
        "10684": 221,
        "10685": 229,
        "10686": 117,
        "10687": 60,
        "10688": 4,
        "10689": 14,
        "10690": 246,
        "10691": 176,
        "10692": 54,
        "10693": 108,
        "10694": 106,
        "10695": 163,
        "10696": 210,
        "10697": 19,
        "10698": 111,
        "10699": 23,
        "10700": 125,
        "10701": 198,
        "10702": 172,
        "10703": 17,
        "10704": 148,
        "10705": 52,
        "10706": 43,
        "10707": 203,
        "10708": 4,
        "10709": 43,
        "10710": 143,
        "10711": 17,
        "10712": 53,
        "10713": 35,
        "10714": 117,
        "10715": 225,
        "10716": 153,
        "10717": 94,
        "10718": 177,
        "10719": 88,
        "10720": 207,
        "10721": 125,
        "10722": 178,
        "10723": 222,
        "10724": 153,
        "10725": 170,
        "10726": 109,
        "10727": 144,
        "10728": 169,
        "10729": 163,
        "10730": 89,
        "10731": 226,
        "10732": 243,
        "10733": 237,
        "10734": 158,
        "10735": 55,
        "10736": 169,
        "10737": 25,
        "10738": 83,
        "10739": 146,
        "10740": 134,
        "10741": 188,
        "10742": 32,
        "10743": 54,
        "10744": 212,
        "10745": 5,
        "10746": 68,
        "10747": 53,
        "10748": 230,
        "10749": 227,
        "10750": 41,
        "10751": 88,
        "10752": 65,
        "10753": 5,
        "10754": 110,
        "10755": 67,
        "10756": 243,
        "10757": 75,
        "10758": 28,
        "10759": 238,
        "10760": 88,
        "10761": 191,
        "10762": 126,
        "10763": 82,
        "10764": 255,
        "10765": 82,
        "10766": 204,
        "10767": 79,
        "10768": 158,
        "10769": 45,
        "10770": 185,
        "10771": 4,
        "10772": 41,
        "10773": 38,
        "10774": 54,
        "10775": 224,
        "10776": 213,
        "10777": 55,
        "10778": 200,
        "10779": 249,
        "10780": 84,
        "10781": 195,
        "10782": 11,
        "10783": 99,
        "10784": 183,
        "10785": 62,
        "10786": 251,
        "10787": 167,
        "10788": 30,
        "10789": 77,
        "10790": 22,
        "10791": 161,
        "10792": 173,
        "10793": 136,
        "10794": 111,
        "10795": 164,
        "10796": 55,
        "10797": 243,
        "10798": 88,
        "10799": 174,
        "10800": 165,
        "10801": 54,
        "10802": 44,
        "10803": 118,
        "10804": 128,
        "10805": 112,
        "10806": 156,
        "10807": 63,
        "10808": 147,
        "10809": 89,
        "10810": 185,
        "10811": 60,
        "10812": 34,
        "10813": 19,
        "10814": 140,
        "10815": 4,
        "10816": 122,
        "10817": 151,
        "10818": 113,
        "10819": 92,
        "10820": 172,
        "10821": 167,
        "10822": 170,
        "10823": 156,
        "10824": 210,
        "10825": 129,
        "10826": 229,
        "10827": 198,
        "10828": 60,
        "10829": 120,
        "10830": 62,
        "10831": 14,
        "10832": 59,
        "10833": 105,
        "10834": 249,
        "10835": 221,
        "10836": 208,
        "10837": 230,
        "10838": 43,
        "10839": 94,
        "10840": 93,
        "10841": 228,
        "10842": 6,
        "10843": 61,
        "10844": 224,
        "10845": 171,
        "10846": 94,
        "10847": 74,
        "10848": 153,
        "10849": 146,
        "10850": 64,
        "10851": 109,
        "10852": 236,
        "10853": 41,
        "10854": 113,
        "10855": 206,
        "10856": 242,
        "10857": 145,
        "10858": 12,
        "10859": 211,
        "10860": 110,
        "10861": 151,
        "10862": 169,
        "10863": 34,
        "10864": 143,
        "10865": 177,
        "10866": 175,
        "10867": 65,
        "10868": 114,
        "10869": 30,
        "10870": 190,
        "10871": 89,
        "10872": 90,
        "10873": 155,
        "10874": 179,
        "10875": 27,
        "10876": 226,
        "10877": 220,
        "10878": 57,
        "10879": 91,
        "10880": 145,
        "10881": 100,
        "10882": 74,
        "10883": 227,
        "10884": 228,
        "10885": 217,
        "10886": 154,
        "10887": 6,
        "10888": 173,
        "10889": 87,
        "10890": 132,
        "10891": 66,
        "10892": 119,
        "10893": 65,
        "10894": 216,
        "10895": 224,
        "10896": 198,
        "10897": 247,
        "10898": 197,
        "10899": 126,
        "10900": 170,
        "10901": 252,
        "10902": 102,
        "10903": 184,
        "10904": 227,
        "10905": 71,
        "10906": 158,
        "10907": 40,
        "10908": 8,
        "10909": 122,
        "10910": 224,
        "10911": 28,
        "10912": 190,
        "10913": 89,
        "10914": 31,
        "10915": 116,
        "10916": 168,
        "10917": 6,
        "10918": 131,
        "10919": 173,
        "10920": 159,
        "10921": 86,
        "10922": 13,
        "10923": 24,
        "10924": 134,
        "10925": 43,
        "10926": 220,
        "10927": 95,
        "10928": 169,
        "10929": 127,
        "10930": 73,
        "10931": 60,
        "10932": 192,
        "10933": 238,
        "10934": 8,
        "10935": 119,
        "10936": 36,
        "10937": 106,
        "10938": 139,
        "10939": 253,
        "10940": 190,
        "10941": 225,
        "10942": 200,
        "10943": 134,
        "10944": 154,
        "10945": 109,
        "10946": 76,
        "10947": 217,
        "10948": 221,
        "10949": 241,
        "10950": 133,
        "10951": 158,
        "10952": 34,
        "10953": 81,
        "10954": 106,
        "10955": 138,
        "10956": 237,
        "10957": 1,
        "10958": 106,
        "10959": 144,
        "10960": 229,
        "10961": 196,
        "10962": 93,
        "10963": 77,
        "10964": 238,
        "10965": 62,
        "10966": 100,
        "10967": 135,
        "10968": 187,
        "10969": 183,
        "10970": 107,
        "10971": 205,
        "10972": 25,
        "10973": 215,
        "10974": 58,
        "10975": 185,
        "10976": 216,
        "10977": 62,
        "10978": 177,
        "10979": 16,
        "10980": 142,
        "10981": 11,
        "10982": 194,
        "10983": 190,
        "10984": 119,
        "10985": 69,
        "10986": 143,
        "10987": 2,
        "10988": 131,
        "10989": 183,
        "10990": 124,
        "10991": 216,
        "10992": 39,
        "10993": 112,
        "10994": 165,
        "10995": 106,
        "10996": 76,
        "10997": 14,
        "10998": 31,
        "10999": 201,
        "11000": 240,
        "11001": 216,
        "11002": 74,
        "11003": 0,
        "11004": 202,
        "11005": 151,
        "11006": 111,
        "11007": 20,
        "11008": 31,
        "11009": 204,
        "11010": 128,
        "11011": 50,
        "11012": 12,
        "11013": 255,
        "11014": 123,
        "11015": 243,
        "11016": 125,
        "11017": 5,
        "11018": 11,
        "11019": 83,
        "11020": 233,
        "11021": 184,
        "11022": 38,
        "11023": 162,
        "11024": 105,
        "11025": 19,
        "11026": 243,
        "11027": 140,
        "11028": 204,
        "11029": 128,
        "11030": 2,
        "11031": 214,
        "11032": 82,
        "11033": 20,
        "11034": 218,
        "11035": 150,
        "11036": 78,
        "11037": 241,
        "11038": 51,
        "11039": 168,
        "11040": 233,
        "11041": 242,
        "11042": 30,
        "11043": 65,
        "11044": 152,
        "11045": 118,
        "11046": 205,
        "11047": 228,
        "11048": 87,
        "11049": 161,
        "11050": 188,
        "11051": 217,
        "11052": 252,
        "11053": 89,
        "11054": 176,
        "11055": 136,
        "11056": 242,
        "11057": 1,
        "11058": 85,
        "11059": 179,
        "11060": 139,
        "11061": 245,
        "11062": 40,
        "11063": 94,
        "11064": 246,
        "11065": 176,
        "11066": 212,
        "11067": 130,
        "11068": 231,
        "11069": 4,
        "11070": 121,
        "11071": 21,
        "11072": 179,
        "11073": 108,
        "11074": 2,
        "11075": 49,
        "11076": 86,
        "11077": 232,
        "11078": 35,
        "11079": 187,
        "11080": 166,
        "11081": 125,
        "11082": 178,
        "11083": 50,
        "11084": 140,
        "11085": 241,
        "11086": 93,
        "11087": 138,
        "11088": 88,
        "11089": 47,
        "11090": 136,
        "11091": 26,
        "11092": 52,
        "11093": 232,
        "11094": 70,
        "11095": 160,
        "11096": 41,
        "11097": 119,
        "11098": 74,
        "11099": 92,
        "11100": 81,
        "11101": 151,
        "11102": 212,
        "11103": 170,
        "11104": 50,
        "11105": 71,
        "11106": 18,
        "11107": 201,
        "11108": 66,
        "11109": 158,
        "11110": 250,
        "11111": 110,
        "11112": 113,
        "11113": 82,
        "11114": 73,
        "11115": 78,
        "11116": 118,
        "11117": 56,
        "11118": 244,
        "11119": 48,
        "11120": 31,
        "11121": 25,
        "11122": 252,
        "11123": 37,
        "11124": 99,
        "11125": 59,
        "11126": 196,
        "11127": 63,
        "11128": 44,
        "11129": 29,
        "11130": 119,
        "11131": 178,
        "11132": 73,
        "11133": 114,
        "11134": 167,
        "11135": 15,
        "11136": 230,
        "11137": 254,
        "11138": 116,
        "11139": 244,
        "11140": 108,
        "11141": 39,
        "11142": 104,
        "11143": 119,
        "11144": 38,
        "11145": 105,
        "11146": 179,
        "11147": 64,
        "11148": 117,
        "11149": 169,
        "11150": 71,
        "11151": 154,
        "11152": 253,
        "11153": 25,
        "11154": 108,
        "11155": 205,
        "11156": 120,
        "11157": 238,
        "11158": 207,
        "11159": 198,
        "11160": 92,
        "11161": 10,
        "11162": 46,
        "11163": 41,
        "11164": 98,
        "11165": 222,
        "11166": 10,
        "11167": 47,
        "11168": 228,
        "11169": 152,
        "11170": 81,
        "11171": 55,
        "11172": 35,
        "11173": 119,
        "11174": 204,
        "11175": 171,
        "11176": 87,
        "11177": 204,
        "11178": 134,
        "11179": 54,
        "11180": 241,
        "11181": 222,
        "11182": 49,
        "11183": 167,
        "11184": 14,
        "11185": 3,
        "11186": 204,
        "11187": 175,
        "11188": 89,
        "11189": 214,
        "11190": 14,
        "11191": 236,
        "11192": 223,
        "11193": 80,
        "11194": 79,
        "11195": 106,
        "11196": 144,
        "11197": 78,
        "11198": 20,
        "11199": 128,
        "11200": 211,
        "11201": 179,
        "11202": 157,
        "11203": 117,
        "11204": 17,
        "11205": 141,
        "11206": 231,
        "11207": 230,
        "11208": 158,
        "11209": 86,
        "11210": 200,
        "11211": 76,
        "11212": 151,
        "11213": 112,
        "11214": 106,
        "11215": 124,
        "11216": 234,
        "11217": 242,
        "11218": 250,
        "11219": 89,
        "11220": 215,
        "11221": 37,
        "11222": 200,
        "11223": 66,
        "11224": 230,
        "11225": 72,
        "11226": 91,
        "11227": 69,
        "11228": 32,
        "11229": 190,
        "11230": 66,
        "11231": 9,
        "11232": 225,
        "11233": 120,
        "11234": 35,
        "11235": 249,
        "11236": 87,
        "11237": 191,
        "11238": 152,
        "11239": 182,
        "11240": 74,
        "11241": 221,
        "11242": 212,
        "11243": 127,
        "11244": 3,
        "11245": 235,
        "11246": 196,
        "11247": 38,
        "11248": 146,
        "11249": 154,
        "11250": 229,
        "11251": 194,
        "11252": 31,
        "11253": 34,
        "11254": 41,
        "11255": 143,
        "11256": 224,
        "11257": 90,
        "11258": 4,
        "11259": 201,
        "11260": 56,
        "11261": 235,
        "11262": 92,
        "11263": 145,
        "11264": 229,
        "11265": 29,
        "11266": 200,
        "11267": 56,
        "11268": 107,
        "11269": 62,
        "11270": 221,
        "11271": 221,
        "11272": 77,
        "11273": 111,
        "11274": 229,
        "11275": 72,
        "11276": 131,
        "11277": 170,
        "11278": 81,
        "11279": 29,
        "11280": 44,
        "11281": 229,
        "11282": 18,
        "11283": 13,
        "11284": 132,
        "11285": 221,
        "11286": 160,
        "11287": 165,
        "11288": 232,
        "11289": 234,
        "11290": 148,
        "11291": 141,
        "11292": 79,
        "11293": 7,
        "11294": 49,
        "11295": 119,
        "11296": 144,
        "11297": 147,
        "11298": 25,
        "11299": 211,
        "11300": 226,
        "11301": 165,
        "11302": 70,
        "11303": 222,
        "11304": 52,
        "11305": 136,
        "11306": 35,
        "11307": 59,
        "11308": 38,
        "11309": 17,
        "11310": 59,
        "11311": 248,
        "11312": 208,
        "11313": 51,
        "11314": 21,
        "11315": 166,
        "11316": 138,
        "11317": 96,
        "11318": 208,
        "11319": 254,
        "11320": 240,
        "11321": 73,
        "11322": 56,
        "11323": 108,
        "11324": 170,
        "11325": 229,
        "11326": 24,
        "11327": 1,
        "11328": 229,
        "11329": 10,
        "11330": 112,
        "11331": 211,
        "11332": 22,
        "11333": 178,
        "11334": 204,
        "11335": 50,
        "11336": 105,
        "11337": 171,
        "11338": 23,
        "11339": 116,
        "11340": 252,
        "11341": 198,
        "11342": 172,
        "11343": 28,
        "11344": 170,
        "11345": 40,
        "11346": 132,
        "11347": 36,
        "11348": 4,
        "11349": 236,
        "11350": 135,
        "11351": 112,
        "11352": 179,
        "11353": 201,
        "11354": 21,
        "11355": 35,
        "11356": 97,
        "11357": 172,
        "11358": 220,
        "11359": 61,
        "11360": 99,
        "11361": 116,
        "11362": 86,
        "11363": 54,
        "11364": 53,
        "11365": 213,
        "11366": 100,
        "11367": 64,
        "11368": 249,
        "11369": 136,
        "11370": 154,
        "11371": 18,
        "11372": 223,
        "11373": 140,
        "11374": 36,
        "11375": 122,
        "11376": 252,
        "11377": 6,
        "11378": 238,
        "11379": 243,
        "11380": 173,
        "11381": 78,
        "11382": 208,
        "11383": 182,
        "11384": 133,
        "11385": 138,
        "11386": 253,
        "11387": 66,
        "11388": 209,
        "11389": 59,
        "11390": 3,
        "11391": 17,
        "11392": 147,
        "11393": 245,
        "11394": 46,
        "11395": 192,
        "11396": 218,
        "11397": 225,
        "11398": 128,
        "11399": 78,
        "11400": 108,
        "11401": 233,
        "11402": 84,
        "11403": 206,
        "11404": 75,
        "11405": 220,
        "11406": 135,
        "11407": 192,
        "11408": 173,
        "11409": 29,
        "11410": 17,
        "11411": 92,
        "11412": 188,
        "11413": 11,
        "11414": 82,
        "11415": 148,
        "11416": 144,
        "11417": 16,
        "11418": 207,
        "11419": 76,
        "11420": 252,
        "11421": 65,
        "11422": 151,
        "11423": 217,
        "11424": 169,
        "11425": 146,
        "11426": 153,
        "11427": 200,
        "11428": 121,
        "11429": 205,
        "11430": 52,
        "11431": 0,
        "11432": 103,
        "11433": 86,
        "11434": 74,
        "11435": 85,
        "11436": 226,
        "11437": 66,
        "11438": 145,
        "11439": 5,
        "11440": 119,
        "11441": 165,
        "11442": 78,
        "11443": 113,
        "11444": 9,
        "11445": 122,
        "11446": 119,
        "11447": 207,
        "11448": 151,
        "11449": 13,
        "11450": 238,
        "11451": 77,
        "11452": 84,
        "11453": 250,
        "11454": 38,
        "11455": 13,
        "11456": 245,
        "11457": 60,
        "11458": 110,
        "11459": 36,
        "11460": 255,
        "11461": 38,
        "11462": 163,
        "11463": 235,
        "11464": 134,
        "11465": 58,
        "11466": 3,
        "11467": 11,
        "11468": 225,
        "11469": 41,
        "11470": 97,
        "11471": 120,
        "11472": 39,
        "11473": 51,
        "11474": 44,
        "11475": 140,
        "11476": 193,
        "11477": 4,
        "11478": 4,
        "11479": 128,
        "11480": 154,
        "11481": 140,
        "11482": 145,
        "11483": 32,
        "11484": 119,
        "11485": 118,
        "11486": 11,
        "11487": 249,
        "11488": 121,
        "11489": 39,
        "11490": 232,
        "11491": 53,
        "11492": 184,
        "11493": 143,
        "11494": 163,
        "11495": 44,
        "11496": 206,
        "11497": 78,
        "11498": 28,
        "11499": 89,
        "11500": 61,
        "11501": 81,
        "11502": 150,
        "11503": 53,
        "11504": 168,
        "11505": 9,
        "11506": 248,
        "11507": 169,
        "11508": 231,
        "11509": 66,
        "11510": 192,
        "11511": 231,
        "11512": 189,
        "11513": 184,
        "11514": 190,
        "11515": 147,
        "11516": 255,
        "11517": 194,
        "11518": 142,
        "11519": 198,
        "11520": 155,
        "11521": 175,
        "11522": 167,
        "11523": 123,
        "11524": 3,
        "11525": 97,
        "11526": 255,
        "11527": 203,
        "11528": 132,
        "11529": 176,
        "11530": 3,
        "11531": 113,
        "11532": 120,
        "11533": 47,
        "11534": 231,
        "11535": 52,
        "11536": 36,
        "11537": 92,
        "11538": 172,
        "11539": 158,
        "11540": 171,
        "11541": 174,
        "11542": 216,
        "11543": 24,
        "11544": 213,
        "11545": 181,
        "11546": 25,
        "11547": 247,
        "11548": 58,
        "11549": 146,
        "11550": 239,
        "11551": 32,
        "11552": 190,
        "11553": 169,
        "11554": 58,
        "11555": 194,
        "11556": 44,
        "11557": 29,
        "11558": 56,
        "11559": 218,
        "11560": 134,
        "11561": 35,
        "11562": 152,
        "11563": 225,
        "11564": 234,
        "11565": 62,
        "11566": 114,
        "11567": 159,
        "11568": 16,
        "11569": 25,
        "11570": 220,
        "11571": 77,
        "11572": 37,
        "11573": 194,
        "11574": 45,
        "11575": 214,
        "11576": 27,
        "11577": 161,
        "11578": 126,
        "11579": 91,
        "11580": 214,
        "11581": 175,
        "11582": 99,
        "11583": 203,
        "11584": 51,
        "11585": 250,
        "11586": 178,
        "11587": 144,
        "11588": 156,
        "11589": 69,
        "11590": 79,
        "11591": 106,
        "11592": 184,
        "11593": 15,
        "11594": 76,
        "11595": 122,
        "11596": 56,
        "11597": 39,
        "11598": 220,
        "11599": 117,
        "11600": 15,
        "11601": 221,
        "11602": 8,
        "11603": 164,
        "11604": 139,
        "11605": 123,
        "11606": 200,
        "11607": 56,
        "11608": 134,
        "11609": 3,
        "11610": 212,
        "11611": 212,
        "11612": 42,
        "11613": 161,
        "11614": 145,
        "11615": 173,
        "11616": 103,
        "11617": 104,
        "11618": 149,
        "11619": 90,
        "11620": 139,
        "11621": 93,
        "11622": 110,
        "11623": 97,
        "11624": 17,
        "11625": 193,
        "11626": 35,
        "11627": 239,
        "11628": 216,
        "11629": 9,
        "11630": 149,
        "11631": 248,
        "11632": 85,
        "11633": 150,
        "11634": 187,
        "11635": 146,
        "11636": 26,
        "11637": 153,
        "11638": 218,
        "11639": 238,
        "11640": 130,
        "11641": 198,
        "11642": 210,
        "11643": 219,
        "11644": 156,
        "11645": 2,
        "11646": 101,
        "11647": 124,
        "11648": 251,
        "11649": 0,
        "11650": 215,
        "11651": 77,
        "11652": 99,
        "11653": 242,
        "11654": 93,
        "11655": 177,
        "11656": 161,
        "11657": 61,
        "11658": 117,
        "11659": 114,
        "11660": 245,
        "11661": 9,
        "11662": 17,
        "11663": 223,
        "11664": 194,
        "11665": 87,
        "11666": 69,
        "11667": 229,
        "11668": 150,
        "11669": 214,
        "11670": 215,
        "11671": 54,
        "11672": 228,
        "11673": 134,
        "11674": 94,
        "11675": 6,
        "11676": 113,
        "11677": 154,
        "11678": 199,
        "11679": 23,
        "11680": 171,
        "11681": 242,
        "11682": 113,
        "11683": 248,
        "11684": 71,
        "11685": 197,
        "11686": 80,
        "11687": 211,
        "11688": 25,
        "11689": 111,
        "11690": 177,
        "11691": 69,
        "11692": 36,
        "11693": 190,
        "11694": 226,
        "11695": 147,
        "11696": 217,
        "11697": 151,
        "11698": 83,
        "11699": 93,
        "11700": 92,
        "11701": 190,
        "11702": 208,
        "11703": 164,
        "11704": 169,
        "11705": 75,
        "11706": 213,
        "11707": 101,
        "11708": 192,
        "11709": 79,
        "11710": 146,
        "11711": 173,
        "11712": 123,
        "11713": 91,
        "11714": 188,
        "11715": 176,
        "11716": 95,
        "11717": 61,
        "11718": 64,
        "11719": 100,
        "11720": 251,
        "11721": 21,
        "11722": 94,
        "11723": 113,
        "11724": 171,
        "11725": 95,
        "11726": 23,
        "11727": 92,
        "11728": 137,
        "11729": 194,
        "11730": 192,
        "11731": 57,
        "11732": 165,
        "11733": 55,
        "11734": 80,
        "11735": 34,
        "11736": 120,
        "11737": 153,
        "11738": 185,
        "11739": 18,
        "11740": 66,
        "11741": 207,
        "11742": 44,
        "11743": 157,
        "11744": 82,
        "11745": 70,
        "11746": 178,
        "11747": 197,
        "11748": 180,
        "11749": 169,
        "11750": 90,
        "11751": 35,
        "11752": 2,
        "11753": 140,
        "11754": 40,
        "11755": 254,
        "11756": 88,
        "11757": 163,
        "11758": 119,
        "11759": 254,
        "11760": 222,
        "11761": 103,
        "11762": 40,
        "11763": 1,
        "11764": 196,
        "11765": 96,
        "11766": 166,
        "11767": 124,
        "11768": 91,
        "11769": 127,
        "11770": 105,
        "11771": 219,
        "11772": 120,
        "11773": 168,
        "11774": 46,
        "11775": 206,
        "11776": 125,
        "11777": 201,
        "11778": 250,
        "11779": 210,
        "11780": 240,
        "11781": 64,
        "11782": 7,
        "11783": 197,
        "11784": 145,
        "11785": 19,
        "11786": 44,
        "11787": 230,
        "11788": 245,
        "11789": 40,
        "11790": 107,
        "11791": 251,
        "11792": 207,
        "11793": 183,
        "11794": 124,
        "11795": 110,
        "11796": 193,
        "11797": 151,
        "11798": 147,
        "11799": 168,
        "11800": 1,
        "11801": 12,
        "11802": 74,
        "11803": 178,
        "11804": 21,
        "11805": 244,
        "11806": 209,
        "11807": 102,
        "11808": 22,
        "11809": 178,
        "11810": 104,
        "11811": 10,
        "11812": 225,
        "11813": 33,
        "11814": 148,
        "11815": 48,
        "11816": 221,
        "11817": 44,
        "11818": 214,
        "11819": 191,
        "11820": 14,
        "11821": 156,
        "11822": 173,
        "11823": 20,
        "11824": 212,
        "11825": 53,
        "11826": 144,
        "11827": 144,
        "11828": 175,
        "11829": 252,
        "11830": 26,
        "11831": 69,
        "11832": 195,
        "11833": 40,
        "11834": 38,
        "11835": 248,
        "11836": 109,
        "11837": 154,
        "11838": 131,
        "11839": 8,
        "11840": 208,
        "11841": 174,
        "11842": 122,
        "11843": 31,
        "11844": 97,
        "11845": 246,
        "11846": 14,
        "11847": 53,
        "11848": 195,
        "11849": 231,
        "11850": 45,
        "11851": 135,
        "11852": 145,
        "11853": 22,
        "11854": 1,
        "11855": 71,
        "11856": 40,
        "11857": 28,
        "11858": 76,
        "11859": 149,
        "11860": 223,
        "11861": 81,
        "11862": 104,
        "11863": 209,
        "11864": 26,
        "11865": 6,
        "11866": 172,
        "11867": 53,
        "11868": 166,
        "11869": 224,
        "11870": 69,
        "11871": 188,
        "11872": 38,
        "11873": 89,
        "11874": 45,
        "11875": 77,
        "11876": 84,
        "11877": 25,
        "11878": 173,
        "11879": 19,
        "11880": 196,
        "11881": 26,
        "11882": 193,
        "11883": 58,
        "11884": 193,
        "11885": 156,
        "11886": 236,
        "11887": 93,
        "11888": 95,
        "11889": 228,
        "11890": 158,
        "11891": 115,
        "11892": 243,
        "11893": 216,
        "11894": 135,
        "11895": 129,
        "11896": 206,
        "11897": 49,
        "11898": 238,
        "11899": 240,
        "11900": 40,
        "11901": 239,
        "11902": 125,
        "11903": 166,
        "11904": 50,
        "11905": 238,
        "11906": 38,
        "11907": 213,
        "11908": 64,
        "11909": 3,
        "11910": 45,
        "11911": 236,
        "11912": 70,
        "11913": 33,
        "11914": 171,
        "11915": 239,
        "11916": 124,
        "11917": 112,
        "11918": 37,
        "11919": 148,
        "11920": 1,
        "11921": 149,
        "11922": 133,
        "11923": 22,
        "11924": 156,
        "11925": 202,
        "11926": 81,
        "11927": 151,
        "11928": 154,
        "11929": 60,
        "11930": 107,
        "11931": 152,
        "11932": 28,
        "11933": 99,
        "11934": 165,
        "11935": 10,
        "11936": 190,
        "11937": 1,
        "11938": 118,
        "11939": 222,
        "11940": 182,
        "11941": 180,
        "11942": 240,
        "11943": 46,
        "11944": 201,
        "11945": 69,
        "11946": 153,
        "11947": 241,
        "11948": 196,
        "11949": 37,
        "11950": 147,
        "11951": 82,
        "11952": 37,
        "11953": 90,
        "11954": 249,
        "11955": 15,
        "11956": 128,
        "11957": 48,
        "11958": 90,
        "11959": 179,
        "11960": 16,
        "11961": 251,
        "11962": 91,
        "11963": 124,
        "11964": 246,
        "11965": 21,
        "11966": 200,
        "11967": 202,
        "11968": 178,
        "11969": 149,
        "11970": 46,
        "11971": 74,
        "11972": 77,
        "11973": 84,
        "11974": 145,
        "11975": 164,
        "11976": 223,
        "11977": 167,
        "11978": 149,
        "11979": 226,
        "11980": 154,
        "11981": 147,
        "11982": 47,
        "11983": 251,
        "11984": 162,
        "11985": 45,
        "11986": 187,
        "11987": 72,
        "11988": 219,
        "11989": 187,
        "11990": 70,
        "11991": 248,
        "11992": 15,
        "11993": 166,
        "11994": 124,
        "11995": 65,
        "11996": 153,
        "11997": 182,
        "11998": 240,
        "11999": 188,
        "12000": 165,
        "12001": 65,
        "12002": 34,
        "12003": 149,
        "12004": 72,
        "12005": 165,
        "12006": 74,
        "12007": 74,
        "12008": 174,
        "12009": 51,
        "12010": 189,
        "12011": 105,
        "12012": 14,
        "12013": 145,
        "12014": 71,
        "12015": 165,
        "12016": 75,
        "12017": 219,
        "12018": 152,
        "12019": 153,
        "12020": 46,
        "12021": 35,
        "12022": 70,
        "12023": 242,
        "12024": 215,
        "12025": 250,
        "12026": 137,
        "12027": 167,
        "12028": 108,
        "12029": 87,
        "12030": 78,
        "12031": 41,
        "12032": 149,
        "12033": 60,
        "12034": 52,
        "12035": 150,
        "12036": 205,
        "12037": 24,
        "12038": 201,
        "12039": 60,
        "12040": 191,
        "12041": 109,
        "12042": 90,
        "12043": 148,
        "12044": 133,
        "12045": 41,
        "12046": 197,
        "12047": 150,
        "12048": 3,
        "12049": 84,
        "12050": 6,
        "12051": 155,
        "12052": 240,
        "12053": 114,
        "12054": 155,
        "12055": 47,
        "12056": 195,
        "12057": 46,
        "12058": 110,
        "12059": 47,
        "12060": 173,
        "12061": 76,
        "12062": 118,
        "12063": 217,
        "12064": 6,
        "12065": 35,
        "12066": 222,
        "12067": 173,
        "12068": 29,
        "12069": 134,
        "12070": 173,
        "12071": 233,
        "12072": 67,
        "12073": 52,
        "12074": 162,
        "12075": 41,
        "12076": 61,
        "12077": 110,
        "12078": 129,
        "12079": 142,
        "12080": 60,
        "12081": 142,
        "12082": 106,
        "12083": 208,
        "12084": 30,
        "12085": 245,
        "12086": 71,
        "12087": 90,
        "12088": 104,
        "12089": 229,
        "12090": 178,
        "12091": 204,
        "12092": 1,
        "12093": 59,
        "12094": 159,
        "12095": 3,
        "12096": 129,
        "12097": 21,
        "12098": 255,
        "12099": 146,
        "12100": 64,
        "12101": 112,
        "12102": 113,
        "12103": 223,
        "12104": 28,
        "12105": 154,
        "12106": 17,
        "12107": 147,
        "12108": 15,
        "12109": 81,
        "12110": 9,
        "12111": 47,
        "12112": 16,
        "12113": 210,
        "12114": 203,
        "12115": 248,
        "12116": 236,
        "12117": 238,
        "12118": 234,
        "12119": 79,
        "12120": 30,
        "12121": 196,
        "12122": 115,
        "12123": 201,
        "12124": 47,
        "12125": 162,
        "12126": 112,
        "12127": 189,
        "12128": 232,
        "12129": 198,
        "12130": 107,
        "12131": 45,
        "12132": 19,
        "12133": 228,
        "12134": 118,
        "12135": 186,
        "12136": 54,
        "12137": 5,
        "12138": 59,
        "12139": 224,
        "12140": 91,
        "12141": 113,
        "12142": 214,
        "12143": 22,
        "12144": 122,
        "12145": 152,
        "12146": 153,
        "12147": 43,
        "12148": 160,
        "12149": 35,
        "12150": 5,
        "12151": 98,
        "12152": 54,
        "12153": 223,
        "12154": 144,
        "12155": 71,
        "12156": 143,
        "12157": 121,
        "12158": 31,
        "12159": 174,
        "12160": 127,
        "12161": 26,
        "12162": 181,
        "12163": 75,
        "12164": 152,
        "12165": 228,
        "12166": 191,
        "12167": 207,
        "12168": 231,
        "12169": 190,
        "12170": 0,
        "12171": 172,
        "12172": 58,
        "12173": 177,
        "12174": 152,
        "12175": 218,
        "12176": 97,
        "12177": 232,
        "12178": 34,
        "12179": 254,
        "12180": 53,
        "12181": 23,
        "12182": 143,
        "12183": 201,
        "12184": 40,
        "12185": 5,
        "12186": 174,
        "12187": 151,
        "12188": 188,
        "12189": 139,
        "12190": 194,
        "12191": 87,
        "12192": 29,
        "12193": 255,
        "12194": 131,
        "12195": 156,
        "12196": 29,
        "12197": 103,
        "12198": 205,
        "12199": 207,
        "12200": 178,
        "12201": 96,
        "12202": 144,
        "12203": 8,
        "12204": 30,
        "12205": 136,
        "12206": 95,
        "12207": 103,
        "12208": 157,
        "12209": 186,
        "12210": 52,
        "12211": 23,
        "12212": 79,
        "12213": 158,
        "12214": 102,
        "12215": 199,
        "12216": 187,
        "12217": 16,
        "12218": 196,
        "12219": 133,
        "12220": 18,
        "12221": 52,
        "12222": 48,
        "12223": 51,
        "12224": 56,
        "12225": 14,
        "12226": 79,
        "12227": 112,
        "12228": 188,
        "12229": 218,
        "12230": 10,
        "12231": 166,
        "12232": 38,
        "12233": 42,
        "12234": 134,
        "12235": 246,
        "12236": 95,
        "12237": 37,
        "12238": 191,
        "12239": 78,
        "12240": 141,
        "12241": 45,
        "12242": 130,
        "12243": 187,
        "12244": 100,
        "12245": 108,
        "12246": 206,
        "12247": 20,
        "12248": 169,
        "12249": 212,
        "12250": 133,
        "12251": 35,
        "12252": 163,
        "12253": 50,
        "12254": 217,
        "12255": 49,
        "12256": 215,
        "12257": 219,
        "12258": 195,
        "12259": 33,
        "12260": 1,
        "12261": 205,
        "12262": 251,
        "12263": 14,
        "12264": 7,
        "12265": 176,
        "12266": 218,
        "12267": 180,
        "12268": 136,
        "12269": 201,
        "12270": 215,
        "12271": 195,
        "12272": 31,
        "12273": 206,
        "12274": 150,
        "12275": 236,
        "12276": 248,
        "12277": 160,
        "12278": 124,
        "12279": 214,
        "12280": 181,
        "12281": 41,
        "12282": 210,
        "12283": 88,
        "12284": 169,
        "12285": 194,
        "12286": 105,
        "12287": 187,
        "12288": 233,
        "12289": 210,
        "12290": 182,
        "12291": 220,
        "12292": 218,
        "12293": 41,
        "12294": 197,
        "12295": 3,
        "12296": 221,
        "12297": 197,
        "12298": 131,
        "12299": 198,
        "12300": 199,
        "12301": 251,
        "12302": 207,
        "12303": 183,
        "12304": 168,
        "12305": 248,
        "12306": 220,
        "12307": 156,
        "12308": 220,
        "12309": 52,
        "12310": 131,
        "12311": 184,
        "12312": 60,
        "12313": 102,
        "12314": 180,
        "12315": 19,
        "12316": 254,
        "12317": 60,
        "12318": 150,
        "12319": 253,
        "12320": 223,
        "12321": 112,
        "12322": 59,
        "12323": 0,
        "12324": 200,
        "12325": 168,
        "12326": 191,
        "12327": 217,
        "12328": 125,
        "12329": 96,
        "12330": 45,
        "12331": 93,
        "12332": 70,
        "12333": 151,
        "12334": 167,
        "12335": 53,
        "12336": 71,
        "12337": 39,
        "12338": 36,
        "12339": 70,
        "12340": 151,
        "12341": 175,
        "12342": 76,
        "12343": 113,
        "12344": 30,
        "12345": 232,
        "12346": 167,
        "12347": 154,
        "12348": 49,
        "12349": 206,
        "12350": 217,
        "12351": 134,
        "12352": 159,
        "12353": 101,
        "12354": 224,
        "12355": 203,
        "12356": 79,
        "12357": 122,
        "12358": 27,
        "12359": 189,
        "12360": 144,
        "12361": 25,
        "12362": 165,
        "12363": 120,
        "12364": 183,
        "12365": 15,
        "12366": 254,
        "12367": 188,
        "12368": 216,
        "12369": 19,
        "12370": 116,
        "12371": 117,
        "12372": 180,
        "12373": 110,
        "12374": 80,
        "12375": 152,
        "12376": 63,
        "12377": 41,
        "12378": 138,
        "12379": 41,
        "12380": 173,
        "12381": 78,
        "12382": 65,
        "12383": 159,
        "12384": 68,
        "12385": 86,
        "12386": 217,
        "12387": 1,
        "12388": 79,
        "12389": 58,
        "12390": 72,
        "12391": 104,
        "12392": 128,
        "12393": 6,
        "12394": 204,
        "12395": 241,
        "12396": 139,
        "12397": 74,
        "12398": 182,
        "12399": 190,
        "12400": 153,
        "12401": 223,
        "12402": 38,
        "12403": 61,
        "12404": 221,
        "12405": 177,
        "12406": 172,
        "12407": 233,
        "12408": 14,
        "12409": 201,
        "12410": 133,
        "12411": 126,
        "12412": 213,
        "12413": 106,
        "12414": 149,
        "12415": 106,
        "12416": 60,
        "12417": 207,
        "12418": 107,
        "12419": 247,
        "12420": 205,
        "12421": 249,
        "12422": 202,
        "12423": 81,
        "12424": 22,
        "12425": 38,
        "12426": 108,
        "12427": 199,
        "12428": 105,
        "12429": 238,
        "12430": 201,
        "12431": 188,
        "12432": 253,
        "12433": 182,
        "12434": 190,
        "12435": 128,
        "12436": 227,
        "12437": 73,
        "12438": 56,
        "12439": 158,
        "12440": 73,
        "12441": 91,
        "12442": 49,
        "12443": 141,
        "12444": 109,
        "12445": 124,
        "12446": 69,
        "12447": 89,
        "12448": 66,
        "12449": 68,
        "12450": 212,
        "12451": 184,
        "12452": 119,
        "12453": 67,
        "12454": 44,
        "12455": 33,
        "12456": 173,
        "12457": 45,
        "12458": 197,
        "12459": 243,
        "12460": 71,
        "12461": 145,
        "12462": 123,
        "12463": 218,
        "12464": 102,
        "12465": 72,
        "12466": 116,
        "12467": 73,
        "12468": 133,
        "12469": 68,
        "12470": 253,
        "12471": 239,
        "12472": 85,
        "12473": 123,
        "12474": 99,
        "12475": 165,
        "12476": 223,
        "12477": 173,
        "12478": 68,
        "12479": 6,
        "12480": 153,
        "12481": 182,
        "12482": 200,
        "12483": 7,
        "12484": 173,
        "12485": 61,
        "12486": 113,
        "12487": 89,
        "12488": 149,
        "12489": 4,
        "12490": 207,
        "12491": 212,
        "12492": 161,
        "12493": 104,
        "12494": 89,
        "12495": 124,
        "12496": 153,
        "12497": 18,
        "12498": 156,
        "12499": 112,
        "12500": 145,
        "12501": 227,
        "12502": 128,
        "12503": 2,
        "12504": 159,
        "12505": 60,
        "12506": 18,
        "12507": 169,
        "12508": 132,
        "12509": 221,
        "12510": 47,
        "12511": 176,
        "12512": 23,
        "12513": 99,
        "12514": 206,
        "12515": 58,
        "12516": 207,
        "12517": 25,
        "12518": 90,
        "12519": 11,
        "12520": 202,
        "12521": 51,
        "12522": 114,
        "12523": 147,
        "12524": 32,
        "12525": 230,
        "12526": 133,
        "12527": 56,
        "12528": 5,
        "12529": 39,
        "12530": 32,
        "12531": 116,
        "12532": 33,
        "12533": 126,
        "12534": 99,
        "12535": 225,
        "12536": 203,
        "12537": 49,
        "12538": 130,
        "12539": 250,
        "12540": 126,
        "12541": 186,
        "12542": 216,
        "12543": 96,
        "12544": 92,
        "12545": 21,
        "12546": 242,
        "12547": 71,
        "12548": 33,
        "12549": 208,
        "12550": 69,
        "12551": 10,
        "12552": 44,
        "12553": 185,
        "12554": 202,
        "12555": 103,
        "12556": 88,
        "12557": 175,
        "12558": 8,
        "12559": 238,
        "12560": 122,
        "12561": 121,
        "12562": 203,
        "12563": 142,
        "12564": 213,
        "12565": 159,
        "12566": 171,
        "12567": 108,
        "12568": 83,
        "12569": 74,
        "12570": 24,
        "12571": 222,
        "12572": 230,
        "12573": 198,
        "12574": 75,
        "12575": 68,
        "12576": 24,
        "12577": 216,
        "12578": 40,
        "12579": 150,
        "12580": 83,
        "12581": 189,
        "12582": 34,
        "12583": 41,
        "12584": 75,
        "12585": 159,
        "12586": 210,
        "12587": 44,
        "12588": 95,
        "12589": 80,
        "12590": 171,
        "12591": 92,
        "12592": 139,
        "12593": 252,
        "12594": 87,
        "12595": 9,
        "12596": 43,
        "12597": 153,
        "12598": 74,
        "12599": 15,
        "12600": 26,
        "12601": 191,
        "12602": 142,
        "12603": 60,
        "12604": 244,
        "12605": 98,
        "12606": 64,
        "12607": 247,
        "12608": 166,
        "12609": 22,
        "12610": 192,
        "12611": 212,
        "12612": 6,
        "12613": 26,
        "12614": 38,
        "12615": 240,
        "12616": 39,
        "12617": 137,
        "12618": 66,
        "12619": 211,
        "12620": 138,
        "12621": 140,
        "12622": 118,
        "12623": 10,
        "12624": 172,
        "12625": 237,
        "12626": 178,
        "12627": 120,
        "12628": 252,
        "12629": 102,
        "12630": 108,
        "12631": 176,
        "12632": 115,
        "12633": 215,
        "12634": 203,
        "12635": 75,
        "12636": 136,
        "12637": 229,
        "12638": 10,
        "12639": 102,
        "12640": 233,
        "12641": 119,
        "12642": 186,
        "12643": 17,
        "12644": 197,
        "12645": 204,
        "12646": 125,
        "12647": 231,
        "12648": 227,
        "12649": 208,
        "12650": 3,
        "12651": 49,
        "12652": 119,
        "12653": 252,
        "12654": 249,
        "12655": 143,
        "12656": 165,
        "12657": 206,
        "12658": 4,
        "12659": 85,
        "12660": 123,
        "12661": 194,
        "12662": 179,
        "12663": 236,
        "12664": 247,
        "12665": 250,
        "12666": 56,
        "12667": 2,
        "12668": 129,
        "12669": 61,
        "12670": 68,
        "12671": 170,
        "12672": 48,
        "12673": 138,
        "12674": 81,
        "12675": 112,
        "12676": 17,
        "12677": 233,
        "12678": 8,
        "12679": 88,
        "12680": 86,
        "12681": 164,
        "12682": 8,
        "12683": 196,
        "12684": 26,
        "12685": 164,
        "12686": 96,
        "12687": 197,
        "12688": 233,
        "12689": 64,
        "12690": 80,
        "12691": 114,
        "12692": 128,
        "12693": 110,
        "12694": 84,
        "12695": 217,
        "12696": 255,
        "12697": 117,
        "12698": 105,
        "12699": 21,
        "12700": 128,
        "12701": 236,
        "12702": 75,
        "12703": 107,
        "12704": 59,
        "12705": 70,
        "12706": 23,
        "12707": 54,
        "12708": 171,
        "12709": 18,
        "12710": 238,
        "12711": 230,
        "12712": 110,
        "12713": 102,
        "12714": 168,
        "12715": 67,
        "12716": 227,
        "12717": 13,
        "12718": 223,
        "12719": 49,
        "12720": 211,
        "12721": 69,
        "12722": 146,
        "12723": 184,
        "12724": 39,
        "12725": 136,
        "12726": 106,
        "12727": 187,
        "12728": 204,
        "12729": 184,
        "12730": 70,
        "12731": 255,
        "12732": 173,
        "12733": 56,
        "12734": 46,
        "12735": 134,
        "12736": 166,
        "12737": 13,
        "12738": 98,
        "12739": 149,
        "12740": 196,
        "12741": 99,
        "12742": 6,
        "12743": 9,
        "12744": 78,
        "12745": 197,
        "12746": 140,
        "12747": 198,
        "12748": 51,
        "12749": 206,
        "12750": 153,
        "12751": 7,
        "12752": 12,
        "12753": 150,
        "12754": 110,
        "12755": 211,
        "12756": 103,
        "12757": 246,
        "12758": 229,
        "12759": 24,
        "12760": 151,
        "12761": 22,
        "12762": 89,
        "12763": 185,
        "12764": 100,
        "12765": 217,
        "12766": 191,
        "12767": 116,
        "12768": 87,
        "12769": 221,
        "12770": 135,
        "12771": 247,
        "12772": 0,
        "12773": 81,
        "12774": 99,
        "12775": 124,
        "12776": 54,
        "12777": 13,
        "12778": 74,
        "12779": 49,
        "12780": 30,
        "12781": 242,
        "12782": 66,
        "12783": 42,
        "12784": 235,
        "12785": 143,
        "12786": 70,
        "12787": 133,
        "12788": 220,
        "12789": 198,
        "12790": 165,
        "12791": 230,
        "12792": 71,
        "12793": 255,
        "12794": 88,
        "12795": 113,
        "12796": 174,
        "12797": 46,
        "12798": 12,
        "12799": 171,
        "12800": 80,
        "12801": 101,
        "12802": 60,
        "12803": 38,
        "12804": 194,
        "12805": 69,
        "12806": 207,
        "12807": 0,
        "12808": 201,
        "12809": 22,
        "12810": 171,
        "12811": 18,
        "12812": 84,
        "12813": 183,
        "12814": 61,
        "12815": 146,
        "12816": 248,
        "12817": 221,
        "12818": 192,
        "12819": 205,
        "12820": 36,
        "12821": 155,
        "12822": 45,
        "12823": 54,
        "12824": 65,
        "12825": 234,
        "12826": 70,
        "12827": 111,
        "12828": 41,
        "12829": 250,
        "12830": 33,
        "12831": 48,
        "12832": 243,
        "12833": 230,
        "12834": 178,
        "12835": 131,
        "12836": 96,
        "12837": 47,
        "12838": 8,
        "12839": 84,
        "12840": 242,
        "12841": 29,
        "12842": 44,
        "12843": 182,
        "12844": 134,
        "12845": 161,
        "12846": 210,
        "12847": 47,
        "12848": 96,
        "12849": 107,
        "12850": 158,
        "12851": 124,
        "12852": 89,
        "12853": 69,
        "12854": 53,
        "12855": 162,
        "12856": 55,
        "12857": 254,
        "12858": 159,
        "12859": 143,
        "12860": 67,
        "12861": 238,
        "12862": 130,
        "12863": 105,
        "12864": 62,
        "12865": 63,
        "12866": 46,
        "12867": 229,
        "12868": 36,
        "12869": 134,
        "12870": 33,
        "12871": 0,
        "12872": 14,
        "12873": 208,
        "12874": 13,
        "12875": 197,
        "12876": 96,
        "12877": 52,
        "12878": 50,
        "12879": 85,
        "12880": 129,
        "12881": 236,
        "12882": 22,
        "12883": 106,
        "12884": 122,
        "12885": 127,
        "12886": 196,
        "12887": 88,
        "12888": 81,
        "12889": 15,
        "12890": 250,
        "12891": 20,
        "12892": 111,
        "12893": 211,
        "12894": 146,
        "12895": 0,
        "12896": 2,
        "12897": 193,
        "12898": 248,
        "12899": 243,
        "12900": 33,
        "12901": 0,
        "12902": 58,
        "12903": 109,
        "12904": 211,
        "12905": 43,
        "12906": 62,
        "12907": 34,
        "12908": 31,
        "12909": 66,
        "12910": 116,
        "12911": 155,
        "12912": 79,
        "12913": 30,
        "12914": 234,
        "12915": 233,
        "12916": 42,
        "12917": 18,
        "12918": 56,
        "12919": 23,
        "12920": 90,
        "12921": 46,
        "12922": 93,
        "12923": 55,
        "12924": 88,
        "12925": 42,
        "12926": 93,
        "12927": 185,
        "12928": 193,
        "12929": 179,
        "12930": 191,
        "12931": 201,
        "12932": 33,
        "12933": 89,
        "12934": 5,
        "12935": 147,
        "12936": 219,
        "12937": 214,
        "12938": 38,
        "12939": 159,
        "12940": 22,
        "12941": 183,
        "12942": 116,
        "12943": 254,
        "12944": 61,
        "12945": 220,
        "12946": 168,
        "12947": 203,
        "12948": 125,
        "12949": 217,
        "12950": 237,
        "12951": 223,
        "12952": 182,
        "12953": 27,
        "12954": 6,
        "12955": 64,
        "12956": 124,
        "12957": 45,
        "12958": 184,
        "12959": 117,
        "12960": 86,
        "12961": 198,
        "12962": 209,
        "12963": 235,
        "12964": 84,
        "12965": 248,
        "12966": 111,
        "12967": 183,
        "12968": 62,
        "12969": 232,
        "12970": 63,
        "12971": 163,
        "12972": 163,
        "12973": 59,
        "12974": 249,
        "12975": 164,
        "12976": 221,
        "12977": 162,
        "12978": 201,
        "12979": 48,
        "12980": 136,
        "12981": 42,
        "12982": 45,
        "12983": 171,
        "12984": 177,
        "12985": 66,
        "12986": 4,
        "12987": 203,
        "12988": 120,
        "12989": 70,
        "12990": 210,
        "12991": 96,
        "12992": 66,
        "12993": 2,
        "12994": 148,
        "12995": 208,
        "12996": 147,
        "12997": 90,
        "12998": 187,
        "12999": 245,
        "13000": 14,
        "13001": 107,
        "13002": 71,
        "13003": 240,
        "13004": 67,
        "13005": 78,
        "13006": 1,
        "13007": 144,
        "13008": 82,
        "13009": 134,
        "13010": 64,
        "13011": 158,
        "13012": 84,
        "13013": 72,
        "13014": 62,
        "13015": 82,
        "13016": 9,
        "13017": 156,
        "13018": 172,
        "13019": 3,
        "13020": 215,
        "13021": 71,
        "13022": 47,
        "13023": 37,
        "13024": 111,
        "13025": 157,
        "13026": 215,
        "13027": 135,
        "13028": 100,
        "13029": 57,
        "13030": 69,
        "13031": 63,
        "13032": 9,
        "13033": 57,
        "13034": 21,
        "13035": 247,
        "13036": 123,
        "13037": 68,
        "13038": 63,
        "13039": 143,
        "13040": 150,
        "13041": 19,
        "13042": 159,
        "13043": 167,
        "13044": 29,
        "13045": 226,
        "13046": 251,
        "13047": 16,
        "13048": 207,
        "13049": 122,
        "13050": 179,
        "13051": 168,
        "13052": 81,
        "13053": 162,
        "13054": 77,
        "13055": 75,
        "13056": 125,
        "13057": 23,
        "13058": 86,
        "13059": 8,
        "13060": 134,
        "13061": 98,
        "13062": 190,
        "13063": 227,
        "13064": 79,
        "13065": 46,
        "13066": 64,
        "13067": 106,
        "13068": 162,
        "13069": 16,
        "13070": 189,
        "13071": 215,
        "13072": 31,
        "13073": 35,
        "13074": 221,
        "13075": 120,
        "13076": 164,
        "13077": 19,
        "13078": 164,
        "13079": 240,
        "13080": 195,
        "13081": 156,
        "13082": 97,
        "13083": 68,
        "13084": 201,
        "13085": 192,
        "13086": 228,
        "13087": 155,
        "13088": 238,
        "13089": 84,
        "13090": 251,
        "13091": 219,
        "13092": 27,
        "13093": 172,
        "13094": 10,
        "13095": 211,
        "13096": 38,
        "13097": 238,
        "13098": 245,
        "13099": 247,
        "13100": 141,
        "13101": 221,
        "13102": 234,
        "13103": 191,
        "13104": 248,
        "13105": 195,
        "13106": 137,
        "13107": 68,
        "13108": 251,
        "13109": 166,
        "13110": 29,
        "13111": 89,
        "13112": 219,
        "13113": 32,
        "13114": 176,
        "13115": 179,
        "13116": 5,
        "13117": 64,
        "13118": 223,
        "13119": 238,
        "13120": 59,
        "13121": 197,
        "13122": 100,
        "13123": 120,
        "13124": 220,
        "13125": 53,
        "13126": 185,
        "13127": 121,
        "13128": 208,
        "13129": 229,
        "13130": 185,
        "13131": 57,
        "13132": 253,
        "13133": 140,
        "13134": 70,
        "13135": 36,
        "13136": 138,
        "13137": 234,
        "13138": 115,
        "13139": 172,
        "13140": 168,
        "13141": 31,
        "13142": 160,
        "13143": 163,
        "13144": 211,
        "13145": 128,
        "13146": 74,
        "13147": 249,
        "13148": 76,
        "13149": 36,
        "13150": 167,
        "13151": 131,
        "13152": 143,
        "13153": 41,
        "13154": 172,
        "13155": 212,
        "13156": 170,
        "13157": 1,
        "13158": 246,
        "13159": 155,
        "13160": 51,
        "13161": 25,
        "13162": 210,
        "13163": 161,
        "13164": 100,
        "13165": 129,
        "13166": 132,
        "13167": 235,
        "13168": 220,
        "13169": 0,
        "13170": 254,
        "13171": 202,
        "13172": 56,
        "13173": 21,
        "13174": 252,
        "13175": 115,
        "13176": 221,
        "13177": 179,
        "13178": 196,
        "13179": 172,
        "13180": 186,
        "13181": 117,
        "13182": 110,
        "13183": 39,
        "13184": 221,
        "13185": 186,
        "13186": 153,
        "13187": 16,
        "13188": 221,
        "13189": 12,
        "13190": 147,
        "13191": 254,
        "13192": 38,
        "13193": 252,
        "13194": 131,
        "13195": 56,
        "13196": 255,
        "13197": 81,
        "13198": 31,
        "13199": 88,
        "13200": 178,
        "13201": 111,
        "13202": 222,
        "13203": 245,
        "13204": 87,
        "13205": 75,
        "13206": 228,
        "13207": 57,
        "13208": 202,
        "13209": 120,
        "13210": 148,
        "13211": 219,
        "13212": 225,
        "13213": 79,
        "13214": 133,
        "13215": 85,
        "13216": 72,
        "13217": 244,
        "13218": 237,
        "13219": 254,
        "13220": 162,
        "13221": 13,
        "13222": 84,
        "13223": 42,
        "13224": 151,
        "13225": 130,
        "13226": 50,
        "13227": 215,
        "13228": 51,
        "13229": 121,
        "13230": 30,
        "13231": 123,
        "13232": 117,
        "13233": 245,
        "13234": 30,
        "13235": 156,
        "13236": 232,
        "13237": 0,
        "13238": 24,
        "13239": 109,
        "13240": 14,
        "13241": 75,
        "13242": 160,
        "13243": 14,
        "13244": 230,
        "13245": 236,
        "13246": 93,
        "13247": 217,
        "13248": 96,
        "13249": 140,
        "13250": 67,
        "13251": 17,
        "13252": 196,
        "13253": 31,
        "13254": 85,
        "13255": 82,
        "13256": 205,
        "13257": 35,
        "13258": 202,
        "13259": 131,
        "13260": 40,
        "13261": 168,
        "13262": 217,
        "13263": 115,
        "13264": 217,
        "13265": 130,
        "13266": 103,
        "13267": 192,
        "13268": 61,
        "13269": 112,
        "13270": 102,
        "13271": 74,
        "13272": 223,
        "13273": 150,
        "13274": 134,
        "13275": 89,
        "13276": 42,
        "13277": 236,
        "13278": 121,
        "13279": 75,
        "13280": 52,
        "13281": 91,
        "13282": 157,
        "13283": 94,
        "13284": 40,
        "13285": 32,
        "13286": 29,
        "13287": 64,
        "13288": 188,
        "13289": 151,
        "13290": 43,
        "13291": 201,
        "13292": 38,
        "13293": 156,
        "13294": 26,
        "13295": 95,
        "13296": 210,
        "13297": 157,
        "13298": 110,
        "13299": 60,
        "13300": 253,
        "13301": 31,
        "13302": 107,
        "13303": 211,
        "13304": 144,
        "13305": 71,
        "13306": 126,
        "13307": 127,
        "13308": 179,
        "13309": 8,
        "13310": 115,
        "13311": 211,
        "13312": 54,
        "13313": 30,
        "13314": 237,
        "13315": 121,
        "13316": 236,
        "13317": 221,
        "13318": 182,
        "13319": 13,
        "13320": 29,
        "13321": 14,
        "13322": 117,
        "13323": 220,
        "13324": 24,
        "13325": 182,
        "13326": 89,
        "13327": 23,
        "13328": 70,
        "13329": 238,
        "13330": 63,
        "13331": 91,
        "13332": 15,
        "13333": 238,
        "13334": 91,
        "13335": 122,
        "13336": 229,
        "13337": 187,
        "13338": 203,
        "13339": 234,
        "13340": 84,
        "13341": 150,
        "13342": 119,
        "13343": 65,
        "13344": 186,
        "13345": 20,
        "13346": 237,
        "13347": 18,
        "13348": 1,
        "13349": 221,
        "13350": 105,
        "13351": 233,
        "13352": 82,
        "13353": 109,
        "13354": 156,
        "13355": 161,
        "13356": 124,
        "13357": 160,
        "13358": 201,
        "13359": 85,
        "13360": 42,
        "13361": 20,
        "13362": 215,
        "13363": 117,
        "13364": 220,
        "13365": 194,
        "13366": 155,
        "13367": 99,
        "13368": 166,
        "13369": 133,
        "13370": 47,
        "13371": 61,
        "13372": 71,
        "13373": 213,
        "13374": 84,
        "13375": 25,
        "13376": 42,
        "13377": 215,
        "13378": 153,
        "13379": 189,
        "13380": 203,
        "13381": 148,
        "13382": 250,
        "13383": 82,
        "13384": 88,
        "13385": 246,
        "13386": 105,
        "13387": 122,
        "13388": 110,
        "13389": 88,
        "13390": 226,
        "13391": 27,
        "13392": 186,
        "13393": 43,
        "13394": 36,
        "13395": 37,
        "13396": 193,
        "13397": 210,
        "13398": 73,
        "13399": 179,
        "13400": 97,
        "13401": 49,
        "13402": 86,
        "13403": 218,
        "13404": 238,
        "13405": 29,
        "13406": 168,
        "13407": 246,
        "13408": 32,
        "13409": 140,
        "13410": 37,
        "13411": 198,
        "13412": 13,
        "13413": 60,
        "13414": 127,
        "13415": 20,
        "13416": 55,
        "13417": 143,
        "13418": 179,
        "13419": 71,
        "13420": 48,
        "13421": 221,
        "13422": 27,
        "13423": 139,
        "13424": 206,
        "13425": 108,
        "13426": 193,
        "13427": 185,
        "13428": 201,
        "13429": 219,
        "13430": 120,
        "13431": 177,
        "13432": 27,
        "13433": 173,
        "13434": 98,
        "13435": 171,
        "13436": 153,
        "13437": 108,
        "13438": 31,
        "13439": 176,
        "13440": 98,
        "13441": 133,
        "13442": 66,
        "13443": 122,
        "13444": 151,
        "13445": 224,
        "13446": 98,
        "13447": 48,
        "13448": 81,
        "13449": 183,
        "13450": 130,
        "13451": 55,
        "13452": 142,
        "13453": 120,
        "13454": 127,
        "13455": 176,
        "13456": 158,
        "13457": 1,
        "13458": 131,
        "13459": 228,
        "13460": 144,
        "13461": 177,
        "13462": 20,
        "13463": 230,
        "13464": 138,
        "13465": 4,
        "13466": 207,
        "13467": 153,
        "13468": 82,
        "13469": 141,
        "13470": 70,
        "13471": 53,
        "13472": 91,
        "13473": 123,
        "13474": 57,
        "13475": 151,
        "13476": 209,
        "13477": 203,
        "13478": 139,
        "13479": 117,
        "13480": 112,
        "13481": 118,
        "13482": 190,
        "13483": 199,
        "13484": 144,
        "13485": 78,
        "13486": 134,
        "13487": 147,
        "13488": 214,
        "13489": 29,
        "13490": 87,
        "13491": 77,
        "13492": 175,
        "13493": 6,
        "13494": 15,
        "13495": 164,
        "13496": 114,
        "13497": 20,
        "13498": 115,
        "13499": 65,
        "13500": 224,
        "13501": 99,
        "13502": 5,
        "13503": 166,
        "13504": 39,
        "13505": 155,
        "13506": 162,
        "13507": 185,
        "13508": 117,
        "13509": 185,
        "13510": 242,
        "13511": 126,
        "13512": 50,
        "13513": 122,
        "13514": 193,
        "13515": 164,
        "13516": 55,
        "13517": 205,
        "13518": 219,
        "13519": 124,
        "13520": 184,
        "13521": 136,
        "13522": 92,
        "13523": 83,
        "13524": 128,
        "13525": 73,
        "13526": 161,
        "13527": 132,
        "13528": 127,
        "13529": 220,
        "13530": 104,
        "13531": 157,
        "13532": 173,
        "13533": 207,
        "13534": 191,
        "13535": 2,
        "13536": 143,
        "13537": 210,
        "13538": 222,
        "13539": 107,
        "13540": 143,
        "13541": 195,
        "13542": 190,
        "13543": 186,
        "13544": 197,
        "13545": 82,
        "13546": 37,
        "13547": 94,
        "13548": 30,
        "13549": 105,
        "13550": 205,
        "13551": 183,
        "13552": 113,
        "13553": 75,
        "13554": 87,
        "13555": 138,
        "13556": 178,
        "13557": 78,
        "13558": 42,
        "13559": 199,
        "13560": 198,
        "13561": 202,
        "13562": 95,
        "13563": 89,
        "13564": 110,
        "13565": 43,
        "13566": 219,
        "13567": 62,
        "13568": 29,
        "13569": 13,
        "13570": 28,
        "13571": 196,
        "13572": 157,
        "13573": 178,
        "13574": 172,
        "13575": 208,
        "13576": 4,
        "13577": 144,
        "13578": 19,
        "13579": 153,
        "13580": 83,
        "13581": 244,
        "13582": 19,
        "13583": 235,
        "13584": 10,
        "13585": 154,
        "13586": 217,
        "13587": 230,
        "13588": 73,
        "13589": 208,
        "13590": 188,
        "13591": 127,
        "13592": 67,
        "13593": 12,
        "13594": 70,
        "13595": 193,
        "13596": 117,
        "13597": 228,
        "13598": 27,
        "13599": 123,
        "13600": 200,
        "13601": 139,
        "13602": 94,
        "13603": 93,
        "13604": 198,
        "13605": 49,
        "13606": 186,
        "13607": 9,
        "13608": 13,
        "13609": 183,
        "13610": 72,
        "13611": 191,
        "13612": 194,
        "13613": 114,
        "13614": 14,
        "13615": 178,
        "13616": 148,
        "13617": 197,
        "13618": 116,
        "13619": 127,
        "13620": 7,
        "13621": 38,
        "13622": 27,
        "13623": 244,
        "13624": 208,
        "13625": 224,
        "13626": 131,
        "13627": 112,
        "13628": 248,
        "13629": 48,
        "13630": 236,
        "13631": 4,
        "13632": 4,
        "13633": 90,
        "13634": 168,
        "13635": 191,
        "13636": 76,
        "13637": 212,
        "13638": 203,
        "13639": 184,
        "13640": 29,
        "13641": 30,
        "13642": 135,
        "13643": 108,
        "13644": 121,
        "13645": 156,
        "13646": 136,
        "13647": 206,
        "13648": 22,
        "13649": 96,
        "13650": 0,
        "13651": 51,
        "13652": 34,
        "13653": 151,
        "13654": 216,
        "13655": 117,
        "13656": 68,
        "13657": 179,
        "13658": 123,
        "13659": 58,
        "13660": 196,
        "13661": 17,
        "13662": 171,
        "13663": 56,
        "13664": 172,
        "13665": 43,
        "13666": 64,
        "13667": 144,
        "13668": 148,
        "13669": 43,
        "13670": 139,
        "13671": 245,
        "13672": 60,
        "13673": 23,
        "13674": 137,
        "13675": 127,
        "13676": 88,
        "13677": 182,
        "13678": 20,
        "13679": 255,
        "13680": 71,
        "13681": 49,
        "13682": 248,
        "13683": 27,
        "13684": 148,
        "13685": 172,
        "13686": 104,
        "13687": 10,
        "13688": 255,
        "13689": 115,
        "13690": 100,
        "13691": 149,
        "13692": 84,
        "13693": 166,
        "13694": 48,
        "13695": 26,
        "13696": 219,
        "13697": 99,
        "13698": 118,
        "13699": 192,
        "13700": 187,
        "13701": 242,
        "13702": 101,
        "13703": 24,
        "13704": 247,
        "13705": 23,
        "13706": 198,
        "13707": 184,
        "13708": 193,
        "13709": 194,
        "13710": 121,
        "13711": 89,
        "13712": 16,
        "13713": 92,
        "13714": 3,
        "13715": 230,
        "13716": 252,
        "13717": 92,
        "13718": 183,
        "13719": 182,
        "13720": 81,
        "13721": 26,
        "13722": 223,
        "13723": 10,
        "13724": 125,
        "13725": 119,
        "13726": 10,
        "13727": 241,
        "13728": 255,
        "13729": 222,
        "13730": 226,
        "13731": 126,
        "13732": 224,
        "13733": 88,
        "13734": 155,
        "13735": 207,
        "13736": 65,
        "13737": 43,
        "13738": 167,
        "13739": 234,
        "13740": 175,
        "13741": 253,
        "13742": 75,
        "13743": 50,
        "13744": 64,
        "13745": 224,
        "13746": 141,
        "13747": 161,
        "13748": 179,
        "13749": 100,
        "13750": 189,
        "13751": 199,
        "13752": 185,
        "13753": 167,
        "13754": 132,
        "13755": 197,
        "13756": 180,
        "13757": 127,
        "13758": 150,
        "13759": 0,
        "13760": 99,
        "13761": 120,
        "13762": 17,
        "13763": 18,
        "13764": 246,
        "13765": 92,
        "13766": 67,
        "13767": 5,
        "13768": 115,
        "13769": 43,
        "13770": 217,
        "13771": 66,
        "13772": 224,
        "13773": 120,
        "13774": 8,
        "13775": 34,
        "13776": 216,
        "13777": 19,
        "13778": 3,
        "13779": 110,
        "13780": 185,
        "13781": 53,
        "13782": 87,
        "13783": 246,
        "13784": 243,
        "13785": 203,
        "13786": 5,
        "13787": 15,
        "13788": 213,
        "13789": 96,
        "13790": 155,
        "13791": 15,
        "13792": 195,
        "13793": 225,
        "13794": 209,
        "13795": 29,
        "13796": 48,
        "13797": 130,
        "13798": 104,
        "13799": 71,
        "13800": 66,
        "13801": 148,
        "13802": 253,
        "13803": 60,
        "13804": 238,
        "13805": 251,
        "13806": 210,
        "13807": 96,
        "13808": 0,
        "13809": 5,
        "13810": 78,
        "13811": 192,
        "13812": 254,
        "13813": 152,
        "13814": 168,
        "13815": 54,
        "13816": 138,
        "13817": 209,
        "13818": 151,
        "13819": 176,
        "13820": 114,
        "13821": 120,
        "13822": 12,
        "13823": 55,
        "13824": 146,
        "13825": 107,
        "13826": 249,
        "13827": 94,
        "13828": 187,
        "13829": 45,
        "13830": 31,
        "13831": 56,
        "13832": 107,
        "13833": 195,
        "13834": 147,
        "13835": 165,
        "13836": 156,
        "13837": 175,
        "13838": 82,
        "13839": 124,
        "13840": 107,
        "13841": 16,
        "13842": 110,
        "13843": 209,
        "13844": 3,
        "13845": 114,
        "13846": 142,
        "13847": 99,
        "13848": 230,
        "13849": 23,
        "13850": 191,
        "13851": 7,
        "13852": 229,
        "13853": 159,
        "13854": 161,
        "13855": 184,
        "13856": 227,
        "13857": 68,
        "13858": 74,
        "13859": 211,
        "13860": 38,
        "13861": 103,
        "13862": 14,
        "13863": 255,
        "13864": 87,
        "13865": 151,
        "13866": 214,
        "13867": 55,
        "13868": 60,
        "13869": 207,
        "13870": 49,
        "13871": 20,
        "13872": 117,
        "13873": 4,
        "13874": 23,
        "13875": 25,
        "13876": 155,
        "13877": 196,
        "13878": 100,
        "13879": 185,
        "13880": 245,
        "13881": 174,
        "13882": 80,
        "13883": 185,
        "13884": 108,
        "13885": 9,
        "13886": 168,
        "13887": 49,
        "13888": 225,
        "13889": 104,
        "13890": 112,
        "13891": 174,
        "13892": 102,
        "13893": 193,
        "13894": 221,
        "13895": 4,
        "13896": 253,
        "13897": 214,
        "13898": 150,
        "13899": 31,
        "13900": 186,
        "13901": 112,
        "13902": 233,
        "13903": 211,
        "13904": 152,
        "13905": 25,
        "13906": 152,
        "13907": 149,
        "13908": 121,
        "13909": 244,
        "13910": 62,
        "13911": 190,
        "13912": 36,
        "13913": 213,
        "13914": 167,
        "13915": 216,
        "13916": 23,
        "13917": 119,
        "13918": 157,
        "13919": 178,
        "13920": 20,
        "13921": 248,
        "13922": 80,
        "13923": 213,
        "13924": 138,
        "13925": 28,
        "13926": 224,
        "13927": 141,
        "13928": 12,
        "13929": 137,
        "13930": 238,
        "13931": 160,
        "13932": 181,
        "13933": 166,
        "13934": 34,
        "13935": 254,
        "13936": 135,
        "13937": 142,
        "13938": 117,
        "13939": 6,
        "13940": 213,
        "13941": 195,
        "13942": 75,
        "13943": 247,
        "13944": 2,
        "13945": 234,
        "13946": 80,
        "13947": 99,
        "13948": 63,
        "13949": 72,
        "13950": 4,
        "13951": 220,
        "13952": 98,
        "13953": 136,
        "13954": 139,
        "13955": 141,
        "13956": 175,
        "13957": 165,
        "13958": 104,
        "13959": 121,
        "13960": 15,
        "13961": 38,
        "13962": 203,
        "13963": 20,
        "13964": 226,
        "13965": 119,
        "13966": 156,
        "13967": 129,
        "13968": 151,
        "13969": 232,
        "13970": 229,
        "13971": 42,
        "13972": 144,
        "13973": 190,
        "13974": 53,
        "13975": 42,
        "13976": 13,
        "13977": 139,
        "13978": 252,
        "13979": 70,
        "13980": 24,
        "13981": 122,
        "13982": 196,
        "13983": 73,
        "13984": 61,
        "13985": 192,
        "13986": 236,
        "13987": 81,
        "13988": 131,
        "13989": 70,
        "13990": 140,
        "13991": 120,
        "13992": 12,
        "13993": 102,
        "13994": 166,
        "13995": 46,
        "13996": 91,
        "13997": 50,
        "13998": 78,
        "13999": 206,
        "14000": 126,
        "14001": 143,
        "14002": 177,
        "14003": 15,
        "14004": 128,
        "14005": 181,
        "14006": 128,
        "14007": 108,
        "14008": 88,
        "14009": 249,
        "14010": 31,
        "14011": 133,
        "14012": 151,
        "14013": 150,
        "14014": 239,
        "14015": 95,
        "14016": 243,
        "14017": 159,
        "14018": 83,
        "14019": 49,
        "14020": 204,
        "14021": 241,
        "14022": 101,
        "14023": 132,
        "14024": 163,
        "14025": 231,
        "14026": 15,
        "14027": 18,
        "14028": 212,
        "14029": 71,
        "14030": 14,
        "14031": 30,
        "14032": 52,
        "14033": 45,
        "14034": 104,
        "14035": 162,
        "14036": 98,
        "14037": 213,
        "14038": 64,
        "14039": 254,
        "14040": 165,
        "14041": 253,
        "14042": 145,
        "14043": 170,
        "14044": 31,
        "14045": 145,
        "14046": 23,
        "14047": 176,
        "14048": 212,
        "14049": 193,
        "14050": 53,
        "14051": 63,
        "14052": 209,
        "14053": 68,
        "14054": 5,
        "14055": 7,
        "14056": 175,
        "14057": 130,
        "14058": 145,
        "14059": 14,
        "14060": 139,
        "14061": 90,
        "14062": 57,
        "14063": 170,
        "14064": 106,
        "14065": 116,
        "14066": 183,
        "14067": 254,
        "14068": 171,
        "14069": 47,
        "14070": 190,
        "14071": 61,
        "14072": 181,
        "14073": 172,
        "14074": 254,
        "14075": 236,
        "14076": 58,
        "14077": 35,
        "14078": 24,
        "14079": 168,
        "14080": 8,
        "14081": 125,
        "14082": 85,
        "14083": 127,
        "14084": 75,
        "14085": 235,
        "14086": 237,
        "14087": 153,
        "14088": 239,
        "14089": 40,
        "14090": 4,
        "14091": 133,
        "14092": 247,
        "14093": 165,
        "14094": 94,
        "14095": 33,
        "14096": 143,
        "14097": 139,
        "14098": 196,
        "14099": 10,
        "14100": 46,
        "14101": 40,
        "14102": 82,
        "14103": 126,
        "14104": 253,
        "14105": 10,
        "14106": 79,
        "14107": 211,
        "14108": 47,
        "14109": 92,
        "14110": 158,
        "14111": 99,
        "14112": 167,
        "14113": 231,
        "14114": 144,
        "14115": 64,
        "14116": 123,
        "14117": 118,
        "14118": 77,
        "14119": 34,
        "14120": 23,
        "14121": 141,
        "14122": 72,
        "14123": 101,
        "14124": 18,
        "14125": 171,
        "14126": 195,
        "14127": 136,
        "14128": 63,
        "14129": 38,
        "14130": 246,
        "14131": 248,
        "14132": 190,
        "14133": 122,
        "14134": 242,
        "14135": 169,
        "14136": 148,
        "14137": 114,
        "14138": 146,
        "14139": 72,
        "14140": 202,
        "14141": 228,
        "14142": 104,
        "14143": 157,
        "14144": 159,
        "14145": 149,
        "14146": 17,
        "14147": 201,
        "14148": 140,
        "14149": 249,
        "14150": 145,
        "14151": 47,
        "14152": 18,
        "14153": 189,
        "14154": 99,
        "14155": 4,
        "14156": 10,
        "14157": 27,
        "14158": 236,
        "14159": 99,
        "14160": 235,
        "14161": 190,
        "14162": 157,
        "14163": 157,
        "14164": 147,
        "14165": 4,
        "14166": 45,
        "14167": 147,
        "14168": 101,
        "14169": 181,
        "14170": 52,
        "14171": 98,
        "14172": 228,
        "14173": 127,
        "14174": 29,
        "14175": 63,
        "14176": 209,
        "14177": 27,
        "14178": 43,
        "14179": 76,
        "14180": 208,
        "14181": 29,
        "14182": 185,
        "14183": 149,
        "14184": 163,
        "14185": 251,
        "14186": 154,
        "14187": 18,
        "14188": 247,
        "14189": 118,
        "14190": 229,
        "14191": 101,
        "14192": 210,
        "14193": 179,
        "14194": 213,
        "14195": 229,
        "14196": 39,
        "14197": 47,
        "14198": 85,
        "14199": 7,
        "14200": 151,
        "14201": 81,
        "14202": 13,
        "14203": 229,
        "14204": 105,
        "14205": 140,
        "14206": 4,
        "14207": 9,
        "14208": 233,
        "14209": 83,
        "14210": 24,
        "14211": 69,
        "14212": 154,
        "14213": 235,
        "14214": 117,
        "14215": 178,
        "14216": 106,
        "14217": 148,
        "14218": 196,
        "14219": 34,
        "14220": 72,
        "14221": 188,
        "14222": 4,
        "14223": 35,
        "14224": 147,
        "14225": 10,
        "14226": 160,
        "14227": 140,
        "14228": 66,
        "14229": 204,
        "14230": 234,
        "14231": 16,
        "14232": 120,
        "14233": 47,
        "14234": 44,
        "14235": 69,
        "14236": 214,
        "14237": 86,
        "14238": 53,
        "14239": 97,
        "14240": 240,
        "14241": 102,
        "14242": 141,
        "14243": 198,
        "14244": 26,
        "14245": 84,
        "14246": 93,
        "14247": 21,
        "14248": 135,
        "14249": 181,
        "14250": 51,
        "14251": 56,
        "14252": 40,
        "14253": 170,
        "14254": 95,
        "14255": 188,
        "14256": 247,
        "14257": 230,
        "14258": 65,
        "14259": 60,
        "14260": 58,
        "14261": 127,
        "14262": 249,
        "14263": 54,
        "14264": 90,
        "14265": 172,
        "14266": 137,
        "14267": 25,
        "14268": 245,
        "14269": 255,
        "14270": 39,
        "14271": 92,
        "14272": 252,
        "14273": 162,
        "14274": 75,
        "14275": 121,
        "14276": 129,
        "14277": 233,
        "14278": 43,
        "14279": 92,
        "14280": 196,
        "14281": 175,
        "14282": 106,
        "14283": 124,
        "14284": 117,
        "14285": 185,
        "14286": 176,
        "14287": 179,
        "14288": 152,
        "14289": 91,
        "14290": 36,
        "14291": 134,
        "14292": 64,
        "14293": 80,
        "14294": 252,
        "14295": 194,
        "14296": 227,
        "14297": 142,
        "14298": 1,
        "14299": 243,
        "14300": 165,
        "14301": 66,
        "14302": 173,
        "14303": 200,
        "14304": 130,
        "14305": 7,
        "14306": 141,
        "14307": 194,
        "14308": 158,
        "14309": 130,
        "14310": 89,
        "14311": 228,
        "14312": 221,
        "14313": 206,
        "14314": 21,
        "14315": 40,
        "14316": 90,
        "14317": 188,
        "14318": 79,
        "14319": 28,
        "14320": 127,
        "14321": 116,
        "14322": 73,
        "14323": 73,
        "14324": 5,
        "14325": 147,
        "14326": 156,
        "14327": 44,
        "14328": 88,
        "14329": 73,
        "14330": 47,
        "14331": 253,
        "14332": 42,
        "14333": 34,
        "14334": 134,
        "14335": 46,
        "14336": 230,
        "14337": 59,
        "14338": 131,
        "14339": 171,
        "14340": 80,
        "14341": 246,
        "14342": 14,
        "14343": 17,
        "14344": 60,
        "14345": 154,
        "14346": 154,
        "14347": 167,
        "14348": 102,
        "14349": 251,
        "14350": 204,
        "14351": 70,
        "14352": 183,
        "14353": 123,
        "14354": 82,
        "14355": 40,
        "14356": 199,
        "14357": 140,
        "14358": 48,
        "14359": 92,
        "14360": 189,
        "14361": 88,
        "14362": 123,
        "14363": 38,
        "14364": 121,
        "14365": 222,
        "14366": 13,
        "14367": 110,
        "14368": 57,
        "14369": 147,
        "14370": 237,
        "14371": 104,
        "14372": 223,
        "14373": 102,
        "14374": 22,
        "14375": 124,
        "14376": 101,
        "14377": 49,
        "14378": 200,
        "14379": 65,
        "14380": 33,
        "14381": 28,
        "14382": 145,
        "14383": 39,
        "14384": 1,
        "14385": 0,
        "14386": 63,
        "14387": 173,
        "14388": 182,
        "14389": 239,
        "14390": 147,
        "14391": 43,
        "14392": 157,
        "14393": 193,
        "14394": 223,
        "14395": 250,
        "14396": 151,
        "14397": 228,
        "14398": 163,
        "14399": 35,
        "14400": 237,
        "14401": 218,
        "14402": 93,
        "14403": 218,
        "14404": 180,
        "14405": 109,
        "14406": 65,
        "14407": 144,
        "14408": 18,
        "14409": 28,
        "14410": 65,
        "14411": 220,
        "14412": 128,
        "14413": 155,
        "14414": 91,
        "14415": 171,
        "14416": 165,
        "14417": 179,
        "14418": 182,
        "14419": 213,
        "14420": 188,
        "14421": 198,
        "14422": 169,
        "14423": 111,
        "14424": 199,
        "14425": 62,
        "14426": 15,
        "14427": 39,
        "14428": 78,
        "14429": 132,
        "14430": 255,
        "14431": 117,
        "14432": 200,
        "14433": 80,
        "14434": 200,
        "14435": 141,
        "14436": 109,
        "14437": 247,
        "14438": 147,
        "14439": 75,
        "14440": 156,
        "14441": 195,
        "14442": 101,
        "14443": 174,
        "14444": 149,
        "14445": 0,
        "14446": 175,
        "14447": 170,
        "14448": 128,
        "14449": 104,
        "14450": 83,
        "14451": 252,
        "14452": 50,
        "14453": 127,
        "14454": 226,
        "14455": 199,
        "14456": 118,
        "14457": 193,
        "14458": 255,
        "14459": 18,
        "14460": 217,
        "14461": 189,
        "14462": 149,
        "14463": 245,
        "14464": 36,
        "14465": 72,
        "14466": 220,
        "14467": 165,
        "14468": 47,
        "14469": 168,
        "14470": 80,
        "14471": 21,
        "14472": 112,
        "14473": 182,
        "14474": 138,
        "14475": 188,
        "14476": 135,
        "14477": 69,
        "14478": 56,
        "14479": 169,
        "14480": 125,
        "14481": 235,
        "14482": 154,
        "14483": 179,
        "14484": 82,
        "14485": 218,
        "14486": 177,
        "14487": 252,
        "14488": 80,
        "14489": 142,
        "14490": 168,
        "14491": 238,
        "14492": 189,
        "14493": 241,
        "14494": 210,
        "14495": 245,
        "14496": 185,
        "14497": 199,
        "14498": 29,
        "14499": 77,
        "14500": 241,
        "14501": 130,
        "14502": 39,
        "14503": 63,
        "14504": 229,
        "14505": 129,
        "14506": 95,
        "14507": 52,
        "14508": 101,
        "14509": 233,
        "14510": 234,
        "14511": 71,
        "14512": 25,
        "14513": 122,
        "14514": 5,
        "14515": 141,
        "14516": 7,
        "14517": 173,
        "14518": 50,
        "14519": 167,
        "14520": 68,
        "14521": 229,
        "14522": 73,
        "14523": 63,
        "14524": 42,
        "14525": 23,
        "14526": 107,
        "14527": 115,
        "14528": 74,
        "14529": 2,
        "14530": 68,
        "14531": 83,
        "14532": 69,
        "14533": 198,
        "14534": 235,
        "14535": 144,
        "14536": 211,
        "14537": 195,
        "14538": 231,
        "14539": 37,
        "14540": 117,
        "14541": 115,
        "14542": 15,
        "14543": 146,
        "14544": 150,
        "14545": 136,
        "14546": 31,
        "14547": 25,
        "14548": 244,
        "14549": 155,
        "14550": 196,
        "14551": 32,
        "14552": 85,
        "14553": 189,
        "14554": 78,
        "14555": 112,
        "14556": 4,
        "14557": 165,
        "14558": 140,
        "14559": 213,
        "14560": 22,
        "14561": 182,
        "14562": 88,
        "14563": 200,
        "14564": 103,
        "14565": 125,
        "14566": 252,
        "14567": 16,
        "14568": 219,
        "14569": 233,
        "14570": 28,
        "14571": 126,
        "14572": 167,
        "14573": 110,
        "14574": 157,
        "14575": 50,
        "14576": 99,
        "14577": 238,
        "14578": 73,
        "14579": 144,
        "14580": 15,
        "14581": 5,
        "14582": 43,
        "14583": 86,
        "14584": 81,
        "14585": 43,
        "14586": 30,
        "14587": 22,
        "14588": 172,
        "14589": 67,
        "14590": 229,
        "14591": 71,
        "14592": 59,
        "14593": 225,
        "14594": 132,
        "14595": 130,
        "14596": 123,
        "14597": 170,
        "14598": 89,
        "14599": 210,
        "14600": 195,
        "14601": 1,
        "14602": 57,
        "14603": 5,
        "14604": 6,
        "14605": 101,
        "14606": 142,
        "14607": 46,
        "14608": 137,
        "14609": 179,
        "14610": 234,
        "14611": 230,
        "14612": 250,
        "14613": 125,
        "14614": 186,
        "14615": 160,
        "14616": 120,
        "14617": 230,
        "14618": 158,
        "14619": 191,
        "14620": 171,
        "14621": 119,
        "14622": 82,
        "14623": 133,
        "14624": 155,
        "14625": 35,
        "14626": 57,
        "14627": 85,
        "14628": 159,
        "14629": 98,
        "14630": 218,
        "14631": 86,
        "14632": 68,
        "14633": 151,
        "14634": 222,
        "14635": 190,
        "14636": 248,
        "14637": 95,
        "14638": 17,
        "14639": 167,
        "14640": 161,
        "14641": 104,
        "14642": 189,
        "14643": 107,
        "14644": 143,
        "14645": 28,
        "14646": 77,
        "14647": 59,
        "14648": 215,
        "14649": 17,
        "14650": 169,
        "14651": 4,
        "14652": 204,
        "14653": 227,
        "14654": 159,
        "14655": 98,
        "14656": 199,
        "14657": 191,
        "14658": 229,
        "14659": 207,
        "14660": 250,
        "14661": 225,
        "14662": 223,
        "14663": 233,
        "14664": 30,
        "14665": 37,
        "14666": 157,
        "14667": 240,
        "14668": 76,
        "14669": 103,
        "14670": 180,
        "14671": 211,
        "14672": 206,
        "14673": 204,
        "14674": 130,
        "14675": 255,
        "14676": 210,
        "14677": 255,
        "14678": 189,
        "14679": 97,
        "14680": 162,
        "14681": 30,
        "14682": 196,
        "14683": 46,
        "14684": 105,
        "14685": 155,
        "14686": 41,
        "14687": 173,
        "14688": 1,
        "14689": 160,
        "14690": 191,
        "14691": 255,
        "14692": 100,
        "14693": 123,
        "14694": 0,
        "14695": 42,
        "14696": 234,
        "14697": 222,
        "14698": 184,
        "14699": 68,
        "14700": 71,
        "14701": 195,
        "14702": 83,
        "14703": 59,
        "14704": 95,
        "14705": 16,
        "14706": 83,
        "14707": 219,
        "14708": 182,
        "14709": 78,
        "14710": 115,
        "14711": 214,
        "14712": 49,
        "14713": 42,
        "14714": 122,
        "14715": 88,
        "14716": 90,
        "14717": 106,
        "14718": 95,
        "14719": 151,
        "14720": 219,
        "14721": 100,
        "14722": 71,
        "14723": 32,
        "14724": 253,
        "14725": 253,
        "14726": 56,
        "14727": 72,
        "14728": 218,
        "14729": 189,
        "14730": 57,
        "14731": 181,
        "14732": 115,
        "14733": 226,
        "14734": 129,
        "14735": 222,
        "14736": 42,
        "14737": 137,
        "14738": 184,
        "14739": 93,
        "14740": 71,
        "14741": 0,
        "14742": 227,
        "14743": 212,
        "14744": 246,
        "14745": 53,
        "14746": 202,
        "14747": 101,
        "14748": 106,
        "14749": 209,
        "14750": 60,
        "14751": 73,
        "14752": 236,
        "14753": 140,
        "14754": 240,
        "14755": 180,
        "14756": 3,
        "14757": 252,
        "14758": 254,
        "14759": 236,
        "14760": 235,
        "14761": 136,
        "14762": 140,
        "14763": 27,
        "14764": 87,
        "14765": 196,
        "14766": 24,
        "14767": 52,
        "14768": 19,
        "14769": 96,
        "14770": 186,
        "14771": 37,
        "14772": 225,
        "14773": 194,
        "14774": 225,
        "14775": 166,
        "14776": 47,
        "14777": 144,
        "14778": 228,
        "14779": 83,
        "14780": 37,
        "14781": 51,
        "14782": 73,
        "14783": 210,
        "14784": 132,
        "14785": 147,
        "14786": 177,
        "14787": 255,
        "14788": 37,
        "14789": 220,
        "14790": 93,
        "14791": 24,
        "14792": 89,
        "14793": 61,
        "14794": 144,
        "14795": 55,
        "14796": 59,
        "14797": 198,
        "14798": 158,
        "14799": 122,
        "14800": 104,
        "14801": 5,
        "14802": 246,
        "14803": 143,
        "14804": 22,
        "14805": 34,
        "14806": 78,
        "14807": 245,
        "14808": 220,
        "14809": 60,
        "14810": 3,
        "14811": 184,
        "14812": 207,
        "14813": 246,
        "14814": 186,
        "14815": 51,
        "14816": 245,
        "14817": 105,
        "14818": 177,
        "14819": 40,
        "14820": 78,
        "14821": 139,
        "14822": 11,
        "14823": 4,
        "14824": 196,
        "14825": 22,
        "14826": 108,
        "14827": 165,
        "14828": 135,
        "14829": 72,
        "14830": 8,
        "14831": 253,
        "14832": 14,
        "14833": 153,
        "14834": 205,
        "14835": 213,
        "14836": 25,
        "14837": 33,
        "14838": 139,
        "14839": 130,
        "14840": 140,
        "14841": 220,
        "14842": 182,
        "14843": 35,
        "14844": 10,
        "14845": 138,
        "14846": 204,
        "14847": 166,
        "14848": 115,
        "14849": 212,
        "14850": 134,
        "14851": 242,
        "14852": 242,
        "14853": 160,
        "14854": 26,
        "14855": 48,
        "14856": 25,
        "14857": 200,
        "14858": 137,
        "14859": 58,
        "14860": 127,
        "14861": 233,
        "14862": 131,
        "14863": 121,
        "14864": 244,
        "14865": 177,
        "14866": 13,
        "14867": 20,
        "14868": 146,
        "14869": 194,
        "14870": 43,
        "14871": 50,
        "14872": 223,
        "14873": 22,
        "14874": 68,
        "14875": 178,
        "14876": 255,
        "14877": 93,
        "14878": 43,
        "14879": 227,
        "14880": 245,
        "14881": 110,
        "14882": 119,
        "14883": 9,
        "14884": 158,
        "14885": 227,
        "14886": 90,
        "14887": 64,
        "14888": 113,
        "14889": 145,
        "14890": 233,
        "14891": 53,
        "14892": 24,
        "14893": 134,
        "14894": 237,
        "14895": 27,
        "14896": 130,
        "14897": 16,
        "14898": 67,
        "14899": 146,
        "14900": 233,
        "14901": 77,
        "14902": 81,
        "14903": 54,
        "14904": 65,
        "14905": 90,
        "14906": 103,
        "14907": 71,
        "14908": 111,
        "14909": 82,
        "14910": 109,
        "14911": 30,
        "14912": 222,
        "14913": 123,
        "14914": 19,
        "14915": 244,
        "14916": 166,
        "14917": 126,
        "14918": 25,
        "14919": 51,
        "14920": 248,
        "14921": 98,
        "14922": 251,
        "14923": 136,
        "14924": 141,
        "14925": 161,
        "14926": 52,
        "14927": 100,
        "14928": 98,
        "14929": 85,
        "14930": 77,
        "14931": 143,
        "14932": 120,
        "14933": 110,
        "14934": 235,
        "14935": 167,
        "14936": 74,
        "14937": 17,
        "14938": 64,
        "14939": 67,
        "14940": 136,
        "14941": 235,
        "14942": 48,
        "14943": 191,
        "14944": 170,
        "14945": 58,
        "14946": 89,
        "14947": 233,
        "14948": 172,
        "14949": 234,
        "14950": 172,
        "14951": 141,
        "14952": 201,
        "14953": 128,
        "14954": 78,
        "14955": 11,
        "14956": 31,
        "14957": 84,
        "14958": 18,
        "14959": 5,
        "14960": 120,
        "14961": 33,
        "14962": 143,
        "14963": 233,
        "14964": 28,
        "14965": 175,
        "14966": 134,
        "14967": 125,
        "14968": 13,
        "14969": 174,
        "14970": 3,
        "14971": 48,
        "14972": 200,
        "14973": 72,
        "14974": 145,
        "14975": 100,
        "14976": 137,
        "14977": 135,
        "14978": 111,
        "14979": 127,
        "14980": 13,
        "14981": 10,
        "14982": 66,
        "14983": 51,
        "14984": 1,
        "14985": 11,
        "14986": 162,
        "14987": 110,
        "14988": 3,
        "14989": 114,
        "14990": 52,
        "14991": 90,
        "14992": 178,
        "14993": 175,
        "14994": 34,
        "14995": 140,
        "14996": 87,
        "14997": 35,
        "14998": 0,
        "14999": 184,
        "15000": 243,
        "15001": 44,
        "15002": 12,
        "15003": 226,
        "15004": 212,
        "15005": 116,
        "15006": 15,
        "15007": 178,
        "15008": 231,
        "15009": 75,
        "15010": 212,
        "15011": 188,
        "15012": 41,
        "15013": 239,
        "15014": 184,
        "15015": 40,
        "15016": 110,
        "15017": 200,
        "15018": 53,
        "15019": 159,
        "15020": 2,
        "15021": 60,
        "15022": 115,
        "15023": 66,
        "15024": 122,
        "15025": 141,
        "15026": 180,
        "15027": 201,
        "15028": 177,
        "15029": 136,
        "15030": 225,
        "15031": 36,
        "15032": 180,
        "15033": 47,
        "15034": 77,
        "15035": 77,
        "15036": 23,
        "15037": 130,
        "15038": 203,
        "15039": 220,
        "15040": 51,
        "15041": 184,
        "15042": 165,
        "15043": 8,
        "15044": 205,
        "15045": 76,
        "15046": 70,
        "15047": 147,
        "15048": 128,
        "15049": 117,
        "15050": 81,
        "15051": 115,
        "15052": 248,
        "15053": 91,
        "15054": 224,
        "15055": 243,
        "15056": 145,
        "15057": 86,
        "15058": 137,
        "15059": 44,
        "15060": 123,
        "15061": 242,
        "15062": 54,
        "15063": 241,
        "15064": 249,
        "15065": 110,
        "15066": 185,
        "15067": 6,
        "15068": 40,
        "15069": 3,
        "15070": 249,
        "15071": 170,
        "15072": 184,
        "15073": 224,
        "15074": 184,
        "15075": 86,
        "15076": 39,
        "15077": 116,
        "15078": 64,
        "15079": 248,
        "15080": 160,
        "15081": 107,
        "15082": 70,
        "15083": 118,
        "15084": 97,
        "15085": 89,
        "15086": 21,
        "15087": 201,
        "15088": 154,
        "15089": 37,
        "15090": 115,
        "15091": 163,
        "15092": 77,
        "15093": 203,
        "15094": 120,
        "15095": 196,
        "15096": 78,
        "15097": 156,
        "15098": 174,
        "15099": 246,
        "15100": 129,
        "15101": 70,
        "15102": 67,
        "15103": 98,
        "15104": 132,
        "15105": 117,
        "15106": 112,
        "15107": 195,
        "15108": 29,
        "15109": 47,
        "15110": 254,
        "15111": 150,
        "15112": 177,
        "15113": 195,
        "15114": 247,
        "15115": 41,
        "15116": 110,
        "15117": 71,
        "15118": 34,
        "15119": 120,
        "15120": 46,
        "15121": 40,
        "15122": 127,
        "15123": 36,
        "15124": 179,
        "15125": 172,
        "15126": 191,
        "15127": 174,
        "15128": 33,
        "15129": 5,
        "15130": 3,
        "15131": 158,
        "15132": 94,
        "15133": 171,
        "15134": 105,
        "15135": 241,
        "15136": 209,
        "15137": 123,
        "15138": 246,
        "15139": 63,
        "15140": 99,
        "15141": 183,
        "15142": 49,
        "15143": 173,
        "15144": 118,
        "15145": 61,
        "15146": 219,
        "15147": 223,
        "15148": 175,
        "15149": 167,
        "15150": 6,
        "15151": 66,
        "15152": 69,
        "15153": 48,
        "15154": 40,
        "15155": 176,
        "15156": 164,
        "15157": 245,
        "15158": 8,
        "15159": 221,
        "15160": 112,
        "15161": 74,
        "15162": 130,
        "15163": 59,
        "15164": 14,
        "15165": 19,
        "15166": 43,
        "15167": 121,
        "15168": 8,
        "15169": 153,
        "15170": 48,
        "15171": 234,
        "15172": 132,
        "15173": 183,
        "15174": 118,
        "15175": 1,
        "15176": 212,
        "15177": 17,
        "15178": 193,
        "15179": 194,
        "15180": 60,
        "15181": 21,
        "15182": 254,
        "15183": 157,
        "15184": 188,
        "15185": 50,
        "15186": 46,
        "15187": 211,
        "15188": 60,
        "15189": 229,
        "15190": 35,
        "15191": 183,
        "15192": 137,
        "15193": 197,
        "15194": 243,
        "15195": 121,
        "15196": 46,
        "15197": 88,
        "15198": 209,
        "15199": 86,
        "15200": 117,
        "15201": 153,
        "15202": 89,
        "15203": 98,
        "15204": 39,
        "15205": 48,
        "15206": 28,
        "15207": 205,
        "15208": 160,
        "15209": 53,
        "15210": 138,
        "15211": 0,
        "15212": 18,
        "15213": 95,
        "15214": 201,
        "15215": 83,
        "15216": 56,
        "15217": 59,
        "15218": 161,
        "15219": 225,
        "15220": 129,
        "15221": 156,
        "15222": 8,
        "15223": 232,
        "15224": 213,
        "15225": 12,
        "15226": 188,
        "15227": 189,
        "15228": 82,
        "15229": 111,
        "15230": 138,
        "15231": 161,
        "15232": 122,
        "15233": 95,
        "15234": 213,
        "15235": 201,
        "15236": 215,
        "15237": 78,
        "15238": 0,
        "15239": 55,
        "15240": 173,
        "15241": 124,
        "15242": 0,
        "15243": 106,
        "15244": 160,
        "15245": 243,
        "15246": 108,
        "15247": 131,
        "15248": 83,
        "15249": 228,
        "15250": 153,
        "15251": 41,
        "15252": 102,
        "15253": 37,
        "15254": 71,
        "15255": 247,
        "15256": 141,
        "15257": 72,
        "15258": 155,
        "15259": 184,
        "15260": 199,
        "15261": 13,
        "15262": 62,
        "15263": 80,
        "15264": 244,
        "15265": 92,
        "15266": 231,
        "15267": 233,
        "15268": 157,
        "15269": 43,
        "15270": 204,
        "15271": 193,
        "15272": 180,
        "15273": 133,
        "15274": 189,
        "15275": 28,
        "15276": 182,
        "15277": 47,
        "15278": 226,
        "15279": 115,
        "15280": 211,
        "15281": 60,
        "15282": 192,
        "15283": 193,
        "15284": 199,
        "15285": 167,
        "15286": 134,
        "15287": 9,
        "15288": 38,
        "15289": 155,
        "15290": 116,
        "15291": 194,
        "15292": 217,
        "15293": 103,
        "15294": 246,
        "15295": 213,
        "15296": 86,
        "15297": 206,
        "15298": 190,
        "15299": 201,
        "15300": 135,
        "15301": 48,
        "15302": 173,
        "15303": 175,
        "15304": 190,
        "15305": 143,
        "15306": 172,
        "15307": 240,
        "15308": 174,
        "15309": 11,
        "15310": 89,
        "15311": 100,
        "15312": 161,
        "15313": 115,
        "15314": 78,
        "15315": 12,
        "15316": 211,
        "15317": 26,
        "15318": 129,
        "15319": 146,
        "15320": 188,
        "15321": 13,
        "15322": 115,
        "15323": 254,
        "15324": 74,
        "15325": 117,
        "15326": 51,
        "15327": 7,
        "15328": 25,
        "15329": 33,
        "15330": 22,
        "15331": 127,
        "15332": 132,
        "15333": 182,
        "15334": 7,
        "15335": 67,
        "15336": 129,
        "15337": 173,
        "15338": 200,
        "15339": 47,
        "15340": 211,
        "15341": 72,
        "15342": 74,
        "15343": 97,
        "15344": 89,
        "15345": 21,
        "15346": 166,
        "15347": 183,
        "15348": 172,
        "15349": 78,
        "15350": 150,
        "15351": 89,
        "15352": 165,
        "15353": 92,
        "15354": 51,
        "15355": 220,
        "15356": 203,
        "15357": 181,
        "15358": 119,
        "15359": 227,
        "15360": 119,
        "15361": 211,
        "15362": 148,
        "15363": 168,
        "15364": 39,
        "15365": 95,
        "15366": 143,
        "15367": 191,
        "15368": 143,
        "15369": 251,
        "15370": 252,
        "15371": 177,
        "15372": 114,
        "15373": 22,
        "15374": 252,
        "15375": 6,
        "15376": 213,
        "15377": 53,
        "15378": 241,
        "15379": 229,
        "15380": 168,
        "15381": 144,
        "15382": 123,
        "15383": 15,
        "15384": 22,
        "15385": 214,
        "15386": 153,
        "15387": 198,
        "15388": 81,
        "15389": 212,
        "15390": 103,
        "15391": 55,
        "15392": 205,
        "15393": 168,
        "15394": 29,
        "15395": 47,
        "15396": 113,
        "15397": 199,
        "15398": 177,
        "15399": 97,
        "15400": 211,
        "15401": 10,
        "15402": 217,
        "15403": 23,
        "15404": 169,
        "15405": 89,
        "15406": 12,
        "15407": 134,
        "15408": 117,
        "15409": 246,
        "15410": 108,
        "15411": 144,
        "15412": 151,
        "15413": 107,
        "15414": 40,
        "15415": 73,
        "15416": 10,
        "15417": 107,
        "15418": 64,
        "15419": 186,
        "15420": 101,
        "15421": 142,
        "15422": 18,
        "15423": 33,
        "15424": 88,
        "15425": 187,
        "15426": 63,
        "15427": 44,
        "15428": 71,
        "15429": 13,
        "15430": 107,
        "15431": 52,
        "15432": 189,
        "15433": 218,
        "15434": 96,
        "15435": 157,
        "15436": 73,
        "15437": 185,
        "15438": 126,
        "15439": 157,
        "15440": 159,
        "15441": 79,
        "15442": 77,
        "15443": 62,
        "15444": 246,
        "15445": 81,
        "15446": 89,
        "15447": 253,
        "15448": 184,
        "15449": 128,
        "15450": 173,
        "15451": 102,
        "15452": 54,
        "15453": 211,
        "15454": 253,
        "15455": 49,
        "15456": 200,
        "15457": 93,
        "15458": 181,
        "15459": 74,
        "15460": 21,
        "15461": 228,
        "15462": 23,
        "15463": 16,
        "15464": 183,
        "15465": 206,
        "15466": 122,
        "15467": 250,
        "15468": 230,
        "15469": 51,
        "15470": 173,
        "15471": 97,
        "15472": 166,
        "15473": 245,
        "15474": 61,
        "15475": 116,
        "15476": 84,
        "15477": 71,
        "15478": 20,
        "15479": 175,
        "15480": 248,
        "15481": 55,
        "15482": 218,
        "15483": 16,
        "15484": 242,
        "15485": 216,
        "15486": 10,
        "15487": 0,
        "15488": 96,
        "15489": 149,
        "15490": 201,
        "15491": 200,
        "15492": 1,
        "15493": 149,
        "15494": 169,
        "15495": 226,
        "15496": 114,
        "15497": 147,
        "15498": 189,
        "15499": 50,
        "15500": 43,
        "15501": 183,
        "15502": 167,
        "15503": 176,
        "15504": 130,
        "15505": 3,
        "15506": 46,
        "15507": 134,
        "15508": 148,
        "15509": 207,
        "15510": 85,
        "15511": 252,
        "15512": 153,
        "15513": 233,
        "15514": 131,
        "15515": 202,
        "15516": 25,
        "15517": 125,
        "15518": 245,
        "15519": 130,
        "15520": 181,
        "15521": 115,
        "15522": 196,
        "15523": 253,
        "15524": 17,
        "15525": 57,
        "15526": 8,
        "15527": 166,
        "15528": 35,
        "15529": 118,
        "15530": 105,
        "15531": 87,
        "15532": 58,
        "15533": 188,
        "15534": 57,
        "15535": 76,
        "15536": 169,
        "15537": 240,
        "15538": 218,
        "15539": 200,
        "15540": 209,
        "15541": 93,
        "15542": 110,
        "15543": 108,
        "15544": 129,
        "15545": 59,
        "15546": 84,
        "15547": 209,
        "15548": 125,
        "15549": 50,
        "15550": 223,
        "15551": 56,
        "15552": 175,
        "15553": 108,
        "15554": 196,
        "15555": 36,
        "15556": 181,
        "15557": 54,
        "15558": 81,
        "15559": 136,
        "15560": 164,
        "15561": 35,
        "15562": 206,
        "15563": 10,
        "15564": 102,
        "15565": 241,
        "15566": 97,
        "15567": 140,
        "15568": 145,
        "15569": 26,
        "15570": 76,
        "15571": 145,
        "15572": 41,
        "15573": 115,
        "15574": 32,
        "15575": 125,
        "15576": 160,
        "15577": 151,
        "15578": 239,
        "15579": 180,
        "15580": 108,
        "15581": 246,
        "15582": 67,
        "15583": 148,
        "15584": 171,
        "15585": 132,
        "15586": 83,
        "15587": 141,
        "15588": 105,
        "15589": 69,
        "15590": 219,
        "15591": 22,
        "15592": 41,
        "15593": 3,
        "15594": 247,
        "15595": 254,
        "15596": 234,
        "15597": 131,
        "15598": 83,
        "15599": 33,
        "15600": 139,
        "15601": 204,
        "15602": 208,
        "15603": 111,
        "15604": 142,
        "15605": 67,
        "15606": 242,
        "15607": 127,
        "15608": 39,
        "15609": 93,
        "15610": 66,
        "15611": 207,
        "15612": 27,
        "15613": 248,
        "15614": 38,
        "15615": 164,
        "15616": 131,
        "15617": 232,
        "15618": 97,
        "15619": 19,
        "15620": 146,
        "15621": 39,
        "15622": 48,
        "15623": 219,
        "15624": 86,
        "15625": 194,
        "15626": 36,
        "15627": 116,
        "15628": 4,
        "15629": 157,
        "15630": 64,
        "15631": 135,
        "15632": 168,
        "15633": 77,
        "15634": 13,
        "15635": 146,
        "15636": 221,
        "15637": 242,
        "15638": 29,
        "15639": 79,
        "15640": 27,
        "15641": 128,
        "15642": 190,
        "15643": 239,
        "15644": 27,
        "15645": 240,
        "15646": 3,
        "15647": 201,
        "15648": 228,
        "15649": 240,
        "15650": 32,
        "15651": 147,
        "15652": 157,
        "15653": 39,
        "15654": 127,
        "15655": 61,
        "15656": 217,
        "15657": 238,
        "15658": 211,
        "15659": 179,
        "15660": 145,
        "15661": 191,
        "15662": 58,
        "15663": 48,
        "15664": 99,
        "15665": 219,
        "15666": 68,
        "15667": 7,
        "15668": 252,
        "15669": 180,
        "15670": 163,
        "15671": 26,
        "15672": 8,
        "15673": 77,
        "15674": 166,
        "15675": 7,
        "15676": 180,
        "15677": 100,
        "15678": 221,
        "15679": 115,
        "15680": 40,
        "15681": 220,
        "15682": 113,
        "15683": 158,
        "15684": 58,
        "15685": 67,
        "15686": 236,
        "15687": 25,
        "15688": 163,
        "15689": 194,
        "15690": 244,
        "15691": 185,
        "15692": 204,
        "15693": 88,
        "15694": 185,
        "15695": 0,
        "15696": 250,
        "15697": 121,
        "15698": 39,
        "15699": 222,
        "15700": 163,
        "15701": 191,
        "15702": 155,
        "15703": 180,
        "15704": 47,
        "15705": 143,
        "15706": 104,
        "15707": 99,
        "15708": 179,
        "15709": 122,
        "15710": 187,
        "15711": 226,
        "15712": 215,
        "15713": 194,
        "15714": 107,
        "15715": 45,
        "15716": 164,
        "15717": 216,
        "15718": 29,
        "15719": 51,
        "15720": 226,
        "15721": 128,
        "15722": 46,
        "15723": 126,
        "15724": 69,
        "15725": 236,
        "15726": 145,
        "15727": 124,
        "15728": 78,
        "15729": 133,
        "15730": 87,
        "15731": 99,
        "15732": 72,
        "15733": 172,
        "15734": 187,
        "15735": 123,
        "15736": 238,
        "15737": 64,
        "15738": 253,
        "15739": 23,
        "15740": 13,
        "15741": 130,
        "15742": 198,
        "15743": 201,
        "15744": 23,
        "15745": 160,
        "15746": 59,
        "15747": 235,
        "15748": 231,
        "15749": 47,
        "15750": 107,
        "15751": 58,
        "15752": 2,
        "15753": 233,
        "15754": 172,
        "15755": 189,
        "15756": 17,
        "15757": 65,
        "15758": 120,
        "15759": 171,
        "15760": 152,
        "15761": 106,
        "15762": 112,
        "15763": 58,
        "15764": 245,
        "15765": 94,
        "15766": 129,
        "15767": 28,
        "15768": 167,
        "15769": 25,
        "15770": 89,
        "15771": 190,
        "15772": 108,
        "15773": 120,
        "15774": 236,
        "15775": 155,
        "15776": 62,
        "15777": 104,
        "15778": 98,
        "15779": 69,
        "15780": 194,
        "15781": 223,
        "15782": 71,
        "15783": 68,
        "15784": 213,
        "15785": 182,
        "15786": 134,
        "15787": 61,
        "15788": 253,
        "15789": 26,
        "15790": 176,
        "15791": 238,
        "15792": 240,
        "15793": 167,
        "15794": 39,
        "15795": 54,
        "15796": 144,
        "15797": 157,
        "15798": 44,
        "15799": 7,
        "15800": 146,
        "15801": 73,
        "15802": 84,
        "15803": 179,
        "15804": 5,
        "15805": 229,
        "15806": 107,
        "15807": 71,
        "15808": 239,
        "15809": 169,
        "15810": 214,
        "15811": 133,
        "15812": 113,
        "15813": 53,
        "15814": 165,
        "15815": 147,
        "15816": 38,
        "15817": 103,
        "15818": 29,
        "15819": 70,
        "15820": 164,
        "15821": 224,
        "15822": 21,
        "15823": 89,
        "15824": 187,
        "15825": 54,
        "15826": 65,
        "15827": 243,
        "15828": 135,
        "15829": 144,
        "15830": 200,
        "15831": 84,
        "15832": 249,
        "15833": 113,
        "15834": 220,
        "15835": 178,
        "15836": 185,
        "15837": 250,
        "15838": 193,
        "15839": 4,
        "15840": 48,
        "15841": 71,
        "15842": 238,
        "15843": 110,
        "15844": 16,
        "15845": 205,
        "15846": 168,
        "15847": 66,
        "15848": 247,
        "15849": 214,
        "15850": 54,
        "15851": 235,
        "15852": 123,
        "15853": 153,
        "15854": 43,
        "15855": 229,
        "15856": 107,
        "15857": 166,
        "15858": 150,
        "15859": 81,
        "15860": 240,
        "15861": 15,
        "15862": 95,
        "15863": 227,
        "15864": 153,
        "15865": 32,
        "15866": 136,
        "15867": 217,
        "15868": 31,
        "15869": 138,
        "15870": 71,
        "15871": 187,
        "15872": 243,
        "15873": 133,
        "15874": 84,
        "15875": 62,
        "15876": 25,
        "15877": 206,
        "15878": 243,
        "15879": 196,
        "15880": 80,
        "15881": 249,
        "15882": 237,
        "15883": 47,
        "15884": 30,
        "15885": 147,
        "15886": 170,
        "15887": 137,
        "15888": 192,
        "15889": 212,
        "15890": 179,
        "15891": 185,
        "15892": 18,
        "15893": 194,
        "15894": 59,
        "15895": 106,
        "15896": 25,
        "15897": 23,
        "15898": 19,
        "15899": 173,
        "15900": 2,
        "15901": 56,
        "15902": 151,
        "15903": 223,
        "15904": 52,
        "15905": 25,
        "15906": 110,
        "15907": 64,
        "15908": 229,
        "15909": 32,
        "15910": 58,
        "15911": 95,
        "15912": 205,
        "15913": 164,
        "15914": 211,
        "15915": 64,
        "15916": 112,
        "15917": 131,
        "15918": 142,
        "15919": 97,
        "15920": 64,
        "15921": 35,
        "15922": 59,
        "15923": 12,
        "15924": 4,
        "15925": 218,
        "15926": 152,
        "15927": 244,
        "15928": 72,
        "15929": 189,
        "15930": 236,
        "15931": 207,
        "15932": 213,
        "15933": 152,
        "15934": 76,
        "15935": 40,
        "15936": 111,
        "15937": 85,
        "15938": 42,
        "15939": 13,
        "15940": 171,
        "15941": 154,
        "15942": 74,
        "15943": 172,
        "15944": 98,
        "15945": 45,
        "15946": 228,
        "15947": 168,
        "15948": 127,
        "15949": 154,
        "15950": 121,
        "15951": 11,
        "15952": 99,
        "15953": 32,
        "15954": 245,
        "15955": 172,
        "15956": 56,
        "15957": 203,
        "15958": 202,
        "15959": 191,
        "15960": 177,
        "15961": 55,
        "15962": 141,
        "15963": 40,
        "15964": 73,
        "15965": 9,
        "15966": 213,
        "15967": 180,
        "15968": 167,
        "15969": 73,
        "15970": 81,
        "15971": 136,
        "15972": 8,
        "15973": 21,
        "15974": 169,
        "15975": 46,
        "15976": 212,
        "15977": 72,
        "15978": 163,
        "15979": 17,
        "15980": 129,
        "15981": 28,
        "15982": 93,
        "15983": 143,
        "15984": 34,
        "15985": 117,
        "15986": 187,
        "15987": 92,
        "15988": 206,
        "15989": 139,
        "15990": 30,
        "15991": 18,
        "15992": 9,
        "15993": 50,
        "15994": 250,
        "15995": 244,
        "15996": 128,
        "15997": 129,
        "15998": 192,
        "15999": 22,
        "16000": 233,
        "16001": 107,
        "16002": 104,
        "16003": 137,
        "16004": 155,
        "16005": 103,
        "16006": 236,
        "16007": 29,
        "16008": 119,
        "16009": 78,
        "16010": 19,
        "16011": 77,
        "16012": 10,
        "16013": 132,
        "16014": 89,
        "16015": 168,
        "16016": 254,
        "16017": 34,
        "16018": 104,
        "16019": 98,
        "16020": 179,
        "16021": 207,
        "16022": 123,
        "16023": 47,
        "16024": 176,
        "16025": 2,
        "16026": 169,
        "16027": 117,
        "16028": 248,
        "16029": 47,
        "16030": 115,
        "16031": 133,
        "16032": 38,
        "16033": 36,
        "16034": 80,
        "16035": 188,
        "16036": 115,
        "16037": 74,
        "16038": 184,
        "16039": 205,
        "16040": 15,
        "16041": 63,
        "16042": 170,
        "16043": 6,
        "16044": 187,
        "16045": 114,
        "16046": 17,
        "16047": 97,
        "16048": 47,
        "16049": 50,
        "16050": 244,
        "16051": 30,
        "16052": 86,
        "16053": 167,
        "16054": 170,
        "16055": 117,
        "16056": 236,
        "16057": 206,
        "16058": 128,
        "16059": 201,
        "16060": 86,
        "16061": 153,
        "16062": 5,
        "16063": 130,
        "16064": 178,
        "16065": 29,
        "16066": 163,
        "16067": 46,
        "16068": 67,
        "16069": 183,
        "16070": 60,
        "16071": 145,
        "16072": 94,
        "16073": 90,
        "16074": 24,
        "16075": 25,
        "16076": 97,
        "16077": 248,
        "16078": 89,
        "16079": 128,
        "16080": 186,
        "16081": 231,
        "16082": 40,
        "16083": 218,
        "16084": 252,
        "16085": 39,
        "16086": 141,
        "16087": 27,
        "16088": 234,
        "16089": 149,
        "16090": 243,
        "16091": 90,
        "16092": 221,
        "16093": 166,
        "16094": 23,
        "16095": 77,
        "16096": 197,
        "16097": 221,
        "16098": 35,
        "16099": 212,
        "16100": 218,
        "16101": 158,
        "16102": 5,
        "16103": 218,
        "16104": 197,
        "16105": 5,
        "16106": 49,
        "16107": 97,
        "16108": 18,
        "16109": 173,
        "16110": 11,
        "16111": 201,
        "16112": 12,
        "16113": 58,
        "16114": 186,
        "16115": 122,
        "16116": 252,
        "16117": 129,
        "16118": 241,
        "16119": 76,
        "16120": 66,
        "16121": 115,
        "16122": 128,
        "16123": 197,
        "16124": 50,
        "16125": 43,
        "16126": 11,
        "16127": 181,
        "16128": 4,
        "16129": 75,
        "16130": 31,
        "16131": 24,
        "16132": 163,
        "16133": 4,
        "16134": 162,
        "16135": 242,
        "16136": 123,
        "16137": 108,
        "16138": 217,
        "16139": 178,
        "16140": 165,
        "16141": 30,
        "16142": 54,
        "16143": 126,
        "16144": 218,
        "16145": 202,
        "16146": 49,
        "16147": 30,
        "16148": 100,
        "16149": 231,
        "16150": 3,
        "16151": 220,
        "16152": 164,
        "16153": 119,
        "16154": 201,
        "16155": 149,
        "16156": 245,
        "16157": 12,
        "16158": 70,
        "16159": 46,
        "16160": 105,
        "16161": 167,
        "16162": 90,
        "16163": 153,
        "16164": 219,
        "16165": 208,
        "16166": 52,
        "16167": 254,
        "16168": 177,
        "16169": 99,
        "16170": 30,
        "16171": 22,
        "16172": 164,
        "16173": 220,
        "16174": 100,
        "16175": 17,
        "16176": 21,
        "16177": 30,
        "16178": 150,
        "16179": 163,
        "16180": 4,
        "16181": 21,
        "16182": 109,
        "16183": 250,
        "16184": 181,
        "16185": 51,
        "16186": 206,
        "16187": 193,
        "16188": 135,
        "16189": 123,
        "16190": 188,
        "16191": 107,
        "16192": 37,
        "16193": 65,
        "16194": 210,
        "16195": 168,
        "16196": 187,
        "16197": 97,
        "16198": 181,
        "16199": 18,
        "16200": 84,
        "16201": 240,
        "16202": 154,
        "16203": 237,
        "16204": 143,
        "16205": 78,
        "16206": 179,
        "16207": 128,
        "16208": 26,
        "16209": 24,
        "16210": 2,
        "16211": 20,
        "16212": 199,
        "16213": 227,
        "16214": 250,
        "16215": 34,
        "16216": 35,
        "16217": 107,
        "16218": 229,
        "16219": 184,
        "16220": 136,
        "16221": 35,
        "16222": 193,
        "16223": 76,
        "16224": 196,
        "16225": 169,
        "16226": 36,
        "16227": 227,
        "16228": 132,
        "16229": 68,
        "16230": 96,
        "16231": 102,
        "16232": 133,
        "16233": 48,
        "16234": 116,
        "16235": 198,
        "16236": 25,
        "16237": 208,
        "16238": 40,
        "16239": 155,
        "16240": 76,
        "16241": 193,
        "16242": 110,
        "16243": 238,
        "16244": 116,
        "16245": 40,
        "16246": 60,
        "16247": 24,
        "16248": 33,
        "16249": 248,
        "16250": 133,
        "16251": 252,
        "16252": 124,
        "16253": 184,
        "16254": 228,
        "16255": 78,
        "16256": 122,
        "16257": 14,
        "16258": 6,
        "16259": 206,
        "16260": 39,
        "16261": 111,
        "16262": 215,
        "16263": 244,
        "16264": 1,
        "16265": 0,
        "16266": 190,
        "16267": 32,
        "16268": 117,
        "16269": 93,
        "16270": 168,
        "16271": 20,
        "16272": 57,
        "16273": 87,
        "16274": 96,
        "16275": 216,
        "16276": 155,
        "16277": 174,
        "16278": 233,
        "16279": 54,
        "16280": 32,
        "16281": 142,
        "16282": 34,
        "16283": 252,
        "16284": 128,
        "16285": 230,
        "16286": 238,
        "16287": 120,
        "16288": 202,
        "16289": 151,
        "16290": 140,
        "16291": 68,
        "16292": 250,
        "16293": 137,
        "16294": 94,
        "16295": 245,
        "16296": 214,
        "16297": 57,
        "16298": 163,
        "16299": 11,
        "16300": 235,
        "16301": 197,
        "16302": 102,
        "16303": 192,
        "16304": 226,
        "16305": 119,
        "16306": 18,
        "16307": 200,
        "16308": 95,
        "16309": 191,
        "16310": 158,
        "16311": 125,
        "16312": 103,
        "16313": 137,
        "16314": 25,
        "16315": 61,
        "16316": 86,
        "16317": 244,
        "16318": 28,
        "16319": 59,
        "16320": 185,
        "16321": 120,
        "16322": 212,
        "16323": 225,
        "16324": 232,
        "16325": 9,
        "16326": 10,
        "16327": 104,
        "16328": 97,
        "16329": 249,
        "16330": 77,
        "16331": 211,
        "16332": 111,
        "16333": 177,
        "16334": 124,
        "16335": 229,
        "16336": 139,
        "16337": 90,
        "16338": 161,
        "16339": 39,
        "16340": 166,
        "16341": 5,
        "16342": 141,
        "16343": 116,
        "16344": 115,
        "16345": 72,
        "16346": 6,
        "16347": 200,
        "16348": 164,
        "16349": 175,
        "16350": 50,
        "16351": 72,
        "16352": 86,
        "16353": 2,
        "16354": 46,
        "16355": 37,
        "16356": 136,
        "16357": 13,
        "16358": 240,
        "16359": 95,
        "16360": 134,
        "16361": 246,
        "16362": 5,
        "16363": 221,
        "16364": 223,
        "16365": 12,
        "16366": 158,
        "16367": 183,
        "16368": 98,
        "16369": 83,
        "16370": 76,
        "16371": 90,
        "16372": 177,
        "16373": 181,
        "16374": 35,
        "16375": 228,
        "16376": 158,
        "16377": 174,
        "16378": 246,
        "16379": 184,
        "16380": 83,
        "16381": 203,
        "16382": 241,
        "16383": 75,
        "16384": 15,
        "16385": 12,
        "16386": 89,
        "16387": 85,
        "16388": 154,
        "16389": 103,
        "16390": 62,
        "16391": 108,
        "16392": 163,
        "16393": 5,
        "16394": 170,
        "16395": 89,
        "16396": 79,
        "16397": 51,
        "16398": 93,
        "16399": 69,
        "16400": 149,
        "16401": 142,
        "16402": 110,
        "16403": 30,
        "16404": 57,
        "16405": 150,
        "16406": 222,
        "16407": 115,
        "16408": 236,
        "16409": 251,
        "16410": 95,
        "16411": 118,
        "16412": 238,
        "16413": 191,
        "16414": 24,
        "16415": 153,
        "16416": 91,
        "16417": 188,
        "16418": 48,
        "16419": 176,
        "16420": 5,
        "16421": 242,
        "16422": 29,
        "16423": 68,
        "16424": 213,
        "16425": 194,
        "16426": 40,
        "16427": 5,
        "16428": 179,
        "16429": 91,
        "16430": 188,
        "16431": 147,
        "16432": 7,
        "16433": 112,
        "16434": 169,
        "16435": 73,
        "16436": 92,
        "16437": 180,
        "16438": 142,
        "16439": 69,
        "16440": 182,
        "16441": 114,
        "16442": 247,
        "16443": 230,
        "16444": 199,
        "16445": 31,
        "16446": 51,
        "16447": 191,
        "16448": 203,
        "16449": 183,
        "16450": 130,
        "16451": 7,
        "16452": 227,
        "16453": 29,
        "16454": 183,
        "16455": 207,
        "16456": 255,
        "16457": 99,
        "16458": 101,
        "16459": 76,
        "16460": 103,
        "16461": 26,
        "16462": 185,
        "16463": 65,
        "16464": 126,
        "16465": 19,
        "16466": 43,
        "16467": 125,
        "16468": 253,
        "16469": 191,
        "16470": 99,
        "16471": 147,
        "16472": 163,
        "16473": 137,
        "16474": 41,
        "16475": 178,
        "16476": 199,
        "16477": 120,
        "16478": 45,
        "16479": 78,
        "16480": 35,
        "16481": 176,
        "16482": 205,
        "16483": 204,
        "16484": 94,
        "16485": 91,
        "16486": 61,
        "16487": 68,
        "16488": 40,
        "16489": 102,
        "16490": 111,
        "16491": 212,
        "16492": 75,
        "16493": 116,
        "16494": 134,
        "16495": 91,
        "16496": 44,
        "16497": 251,
        "16498": 73,
        "16499": 241,
        "16500": 161,
        "16501": 69,
        "16502": 239,
        "16503": 198,
        "16504": 191,
        "16505": 104,
        "16506": 206,
        "16507": 224,
        "16508": 118,
        "16509": 61,
        "16510": 234,
        "16511": 243,
        "16512": 156,
        "16513": 42,
        "16514": 90,
        "16515": 244,
        "16516": 118,
        "16517": 185,
        "16518": 226,
        "16519": 171,
        "16520": 1,
        "16521": 8,
        "16522": 0,
        "16523": 0,
        "16524": 0,
        "16525": 0,
        "16526": 0,
        "16527": 0,
        "16528": 16,
        "16529": 0,
        "16530": 0,
        "16531": 0,
        "16532": 0,
        "16533": 0,
        "16534": 0,
        "16535": 0,
        "16536": 0,
        "16537": 0,
        "16538": 0,
        "16539": 0,
        "16540": 0,
        "16541": 0,
        "16542": 0,
        "16543": 0,
        "16544": 0,
        "16545": 0,
        "16546": 0,
        "16547": 0,
        "16548": 0,
        "16549": 0,
        "16550": 0,
        "16551": 0,
        "16552": 64,
        "16553": 0,
        "16554": 0,
        "16555": 0,
        "16556": 0,
        "16557": 0,
        "16558": 0,
        "16559": 0,
        "16560": 3,
        "16561": 0,
        "16562": 0,
        "16563": 0,
        "16564": 0,
        "16565": 0,
        "16566": 0,
        "16567": 0,
        "16568": 4,
        "16569": 0,
        "16570": 0,
        "16571": 0,
        "16572": 0,
        "16573": 0,
        "16574": 0,
        "16575": 0,
        "16576": 4,
        "16577": 0,
        "16578": 0,
        "16579": 0,
        "16580": 0,
        "16581": 0,
        "16582": 0,
        "16583": 0,
        "16584": 0,
        "16585": 0,
        "16586": 0,
        "16587": 0,
        "16588": 1,
        "16589": 0,
        "16590": 0,
        "16591": 0,
        "16592": 0,
        "16593": 0,
        "16594": 0,
        "16595": 0,
        "16596": 16,
        "16597": 0,
        "16598": 0,
        "16599": 0,
        "16600": 0,
        "16601": 0,
        "16602": 0,
        "16603": 0
      }
    }
  ],
  "numDeployments": 1,
  "solcInputHash": "c0e889dcb69b76266f445d0fe3402b92",
  "bytecode": "0x6101606040526200001760006200026660201b60201c565b6002553480156200002757600080fd5b50604051620046173803806200461783398181016040528101906200004d919062000b83565b6040518060400160405280600881526020017f46616b65204555520000000000000000000000000000000000000000000000008152506040518060400160405280600481526020017f6645555200000000000000000000000000000000000000000000000000000000815250338383836040518060400160405280601181526020017f4668656e6978205065726d697373696f6e0000000000000000000000000000008152506040518060400160405280600381526020017f312e3000000000000000000000000000000000000000000000000000000000008152506200013f6000836200028260201b90919060201c565b61012081815250506200015d6001826200028260201b90919060201c565b6101408181525050818051906020012060e08181525050808051906020012061010081815250504660a081815250506200019c620002da60201b60201c565b608081815250503073ffffffffffffffffffffffffffffffffffffffff1660c08173ffffffffffffffffffffffffffffffffffffffff168152505050508160059081620001ea919062000e1f565b508060069081620001fc919062000e1f565b505050600062000212826200033760201b60201c565b9050620002486200023c8262000230617fff6200026660201b60201c565b6200035560201b60201c565b620003f860201b60201c565b6200025a8382620004cb60201b60201c565b50505050505062001260565b60006200027b8260026200057160201b60201c565b9050919050565b6000602083511015620002a857620002a0836200062860201b60201c565b9050620002d4565b82620002ba836200069560201b60201c565b6000019081620002cb919062000e1f565b5060ff60001b90505b92915050565b60007f8b73c3c69bb8fe3d512ecc4cf759cc79239f7b179b0ffacaa9a75d522b39400f60e0516101005146306040516020016200031c95949392919062000f77565b60405160208183030381529060405280519060200120905090565b60006200034e82600001516200069f60201b60201c565b9050919050565b60006200036883620006bb60201b60201c565b62000382576200037f60006200026660201b60201c565b92505b6200039382620006bb60201b60201c565b620003ad57620003aa60006200026660201b60201c565b91505b600083905060008390506000620003ea60028484608073ffffffffffffffffffffffffffffffffffffffff1663eb274b77620006c860201b60201c565b905080935050505092915050565b62000409816200077960201b60201c565b62000423576200042060006200078660201b60201c565b90505b600081905060006200043b82620007a260201b60201c565b9050608073ffffffffffffffffffffffffffffffffffffffff16637d23f1db600d836040518363ffffffff1660e01b81526004016200047c9291906200104f565b600060405180830381865afa1580156200049a573d6000803e3d6000fd5b505050506040513d6000823e3d601f19601f82011682018060405250810190620004c5919062001083565b50505050565b62000516600360008473ffffffffffffffffffffffffffffffffffffffff1673ffffffffffffffffffffffffffffffffffffffff168152602001908152602001600020548262000803565b600360008473ffffffffffffffffffffffffffffffffffffffff1673ffffffffffffffffffffffffffffffffffffffff16815260200190815260200160002081905550620005676002548262000803565b6002819055505050565b60006060608073ffffffffffffffffffffffffffffffffffffffff166319e1c5c4620005a386620007a260201b60201c565b856040518363ffffffff1660e01b8152600401620005c3929190620010d4565b600060405180830381865afa158015620005e1573d6000803e3d6000fd5b505050506040513d6000823e3d601f19601f820116820180604052508101906200060c919062001083565b90506200061f816200081f60201b60201c565b91505092915050565b600080829050601f815111156200067857826040517f305a27a90000000000000000000000000000000000000000000000000000000081526004016200066f91906200115a565b60405180910390fd5b8051816200068690620011a5565b60001c1760001b915050919050565b6000819050919050565b6000620006b48260026200082d60201b60201c565b9050919050565b6000808214159050919050565b60006060838388620006e089620007a260201b60201c565b620006f189620007a260201b60201c565b6040518463ffffffff1660e01b8152600401620007119392919062001215565b600060405180830381865afa1580156200072f573d6000803e3d6000fd5b505050506040513d6000823e3d601f19601f820116820180604052508101906200075a919062001083565b90506200076d81620008d460201b60201c565b91505095945050505050565b6000808214159050919050565b60006200079b82600d6200057160201b60201c565b9050919050565b6060602067ffffffffffffffff811115620007c257620007c1620009ae565b5b6040519080825280601f01601f191660200182016040528015620007f55781602001600182028036833780820191505090505b509050816020820152919050565b6000620008178383620008e260201b60201c565b905092915050565b600060208201519050919050565b60006060608073ffffffffffffffffffffffffffffffffffffffff16635fa55ca784866040518363ffffffff1660e01b81526004016200086f9291906200104f565b600060405180830381865afa1580156200088d573d6000803e3d6000fd5b505050506040513d6000823e3d601f19601f82011682018060405250810190620008b8919062001083565b9050620008cb816200081f60201b60201c565b91505092915050565b600060208201519050919050565b6000620008f583620006bb60201b60201c565b6200090f576200090c60006200026660201b60201c565b92505b6200092082620006bb60201b60201c565b6200093a576200093760006200026660201b60201c565b91505b6000839050600083905060006200097660028484608073ffffffffffffffffffffffffffffffffffffffff16622df619620006c860201b60201c565b905080935050505092915050565b6000604051905090565b600080fd5b600080fd5b600080fd5b6000601f19601f8301169050919050565b7f4e487b7100000000000000000000000000000000000000000000000000000000600052604160045260246000fd5b620009e8826200099d565b810181811067ffffffffffffffff8211171562000a0a5762000a09620009ae565b5b80604052505050565b600062000a1f62000984565b905062000a2d8282620009dd565b919050565b600080fd5b600080fd5b600080fd5b600067ffffffffffffffff82111562000a5f5762000a5e620009ae565b5b62000a6a826200099d565b9050602081019050919050565b60005b8381101562000a9757808201518184015260208101905062000a7a565b60008484015250505050565b600062000aba62000ab48462000a41565b62000a13565b90508281526020810184848401111562000ad95762000ad862000a3c565b5b62000ae684828562000a77565b509392505050565b600082601f83011262000b065762000b0562000a37565b5b815162000b1884826020860162000aa3565b91505092915050565b60006020828403121562000b3a5762000b3962000998565b5b62000b46602062000a13565b9050600082015167ffffffffffffffff81111562000b695762000b6862000a32565b5b62000b778482850162000aee565b60008301525092915050565b60006020828403121562000b9c5762000b9b6200098e565b5b600082015167ffffffffffffffff81111562000bbd5762000bbc62000993565b5b62000bcb8482850162000b21565b91505092915050565b600081519050919050565b7f4e487b7100000000000000000000000000000000000000000000000000000000600052602260045260246000fd5b6000600282049050600182168062000c2757607f821691505b60208210810362000c3d5762000c3c62000bdf565b5b50919050565b60008190508160005260206000209050919050565b60006020601f8301049050919050565b600082821b905092915050565b60006008830262000ca77fffffffffffffffffffffffffffffffffffffffffffffffffffffffffffffffff8262000c68565b62000cb3868362000c68565b95508019841693508086168417925050509392505050565b6000819050919050565b6000819050919050565b600062000d0062000cfa62000cf48462000ccb565b62000cd5565b62000ccb565b9050919050565b6000819050919050565b62000d1c8362000cdf565b62000d3462000d2b8262000d07565b84845462000c75565b825550505050565b600090565b62000d4b62000d3c565b62000d5881848462000d11565b505050565b5b8181101562000d805762000d7460008262000d41565b60018101905062000d5e565b5050565b601f82111562000dcf5762000d998162000c43565b62000da48462000c58565b8101602085101562000db4578190505b62000dcc62000dc38562000c58565b83018262000d5d565b50505b505050565b600082821c905092915050565b600062000df46000198460080262000dd4565b1980831691505092915050565b600062000e0f838362000de1565b9150826002028217905092915050565b62000e2a8262000bd4565b67ffffffffffffffff81111562000e465762000e45620009ae565b5b62000e52825462000c0e565b62000e5f82828562000d84565b600060209050601f83116001811462000e97576000841562000e82578287015190505b62000e8e858262000e01565b86555062000efe565b601f19841662000ea78662000c43565b60005b8281101562000ed15784890151825560018201915060208501945060208101905062000eaa565b8683101562000ef1578489015162000eed601f89168262000de1565b8355505b6001600288020188555050505b505050505050565b6000819050919050565b62000f1b8162000f06565b82525050565b62000f2c8162000ccb565b82525050565b600073ffffffffffffffffffffffffffffffffffffffff82169050919050565b600062000f5f8262000f32565b9050919050565b62000f718162000f52565b82525050565b600060a08201905062000f8e600083018862000f10565b62000f9d602083018762000f10565b62000fac604083018662000f10565b62000fbb606083018562000f21565b62000fca608083018462000f66565b9695505050505050565b600060ff82169050919050565b62000fec8162000fd4565b82525050565b600081519050919050565b600082825260208201905092915050565b60006200101b8262000ff2565b62001027818562000ffd565b93506200103981856020860162000a77565b62001044816200099d565b840191505092915050565b600060408201905062001066600083018562000fe1565b81810360208301526200107a81846200100e565b90509392505050565b6000602082840312156200109c576200109b6200098e565b5b600082015167ffffffffffffffff811115620010bd57620010bc62000993565b5b620010cb8482850162000aee565b91505092915050565b60006040820190508181036000830152620010f081856200100e565b905062001101602083018462000fe1565b9392505050565b600082825260208201905092915050565b6000620011268262000bd4565b62001132818562001108565b93506200114481856020860162000a77565b6200114f816200099d565b840191505092915050565b6000602082019050818103600083015262001176818462001119565b905092915050565b6000819050602082019050919050565b60006200119c825162000f06565b80915050919050565b6000620011b28262000ff2565b82620011be846200117e565b9050620011cb816200118e565b925060208210156200120e57620012097fffffffffffffffffffffffffffffffffffffffffffffffffffffffffffffffff8360200360080262000c68565b831692505b5050919050565b60006060820190506200122c600083018662000fe1565b81810360208301526200124081856200100e565b905081810360408301526200125681846200100e565b9050949350505050565b60805160a05160c05160e05161010051610120516101405161335c620012bb60003960006118f5015260006118ba0152600061217f0152600061215e015260006119ea01526000611a4001526000611a69015261335c6000f3fe608060405234801561001057600080fd5b50600436106101425760003560e01c80637ecebe00116100b8578063a9059cbb1161007c578063a9059cbb146103b9578063af575a00146103e9578063c4224c1914610419578063d505accf14610449578063d918156e14610465578063dd62ed3e1461049557610142565b80637ecebe00146102fb57806384b0196e1461032b5780638624a3491461034f57806395d89b411461037f5780639f284be71461039d57610142565b80633644e5151161010a5780633644e5151461020157806339c217f71461021f5780635356c4291461024f578063602772041461027f5780636e0505e1146102af57806370a08231146102cb57610142565b806306fdde0314610147578063095ea7b31461016557806318160ddd1461019557806323b872dd146101b3578063313ce567146101e3575b600080fd5b61014f6104c5565b60405161015c9190612433565b60405180910390f35b61017f600480360381019061017a91906124fd565b610557565b60405161018c9190612558565b60405180910390f35b61019d6105ab565b6040516101aa9190612582565b60405180910390f35b6101cd60048036038101906101c8919061259d565b6105bd565b6040516101da9190612558565b60405180910390f35b6101eb610692565b6040516101f8919061260c565b60405180910390f35b610209610697565b6040516102169190612640565b60405180910390f35b6102396004803603810190610234919061267f565b610729565b6040516102469190612716565b60405180910390f35b61026960048036038101906102649190612750565b61074e565b6040516102769190612433565b60405180910390f35b61029960048036038101906102949190612983565b6108bf565b6040516102a69190612433565b60405180910390f35b6102c960048036038101906102c49190612a1b565b6109ec565b005b6102e560048036038101906102e09190612a48565b610b01565b6040516102f29190612582565b60405180910390f35b61031560048036038101906103109190612a48565b610b1c565b6040516103229190612582565b60405180910390f35b610333610b37565b6040516103469796959493929190612b7d565b60405180910390f35b61036960048036038101906103649190612c01565b610be1565b6040516103769190612716565b60405180910390f35b610387610c08565b6040516103949190612433565b60405180910390f35b6103b760048036038101906103b29190612a1b565b610c9a565b005b6103d360048036038101906103ce91906124fd565b610da7565b6040516103e09190612558565b60405180910390f35b61040360048036038101906103fe9190612c9c565b610e39565b6040516104109190612716565b60405180910390f35b610433600480360381019061042e9190612cef565b61118f565b6040516104409190612716565b60405180910390f35b610463600480360381019061045e9190612d5b565b611359565b005b61047f600480360381019061047a919061267f565b6114fd565b60405161048c9190612558565b60405180910390f35b6104af60048036038101906104aa9190612dfd565b6115f5565b6040516104bc9190612582565b60405180910390f35b6060600580546104d490612e6c565b80601f016020809104026020016040519081016040528092919081815260200182805461050090612e6c565b801561054d5780601f106105225761010080835404028352916020019161054d565b820191906000526020600020905b81548152906001019060200180831161053057829003601f168201915b5050505050905090565b600082602052637f5e9f20600c5233600052816034600c205581600052602c5160601c337f8c5be1e5ebec7d5bd14f71427d1e84f3dd0314c0f7b2291e5b200ac8c7c3b92560206000a36001905092915050565b60006805345cdf77eb68f44c54905090565b60006105ca848484611615565b8360601b33602052637f5e9f208117600c526034600c20805460018101156106085780851115610602576313be252b6000526004601cfd5b84810382555b6387a211a28317600c526020600c2080548087111561062f5763f4d678b86000526004601cfd5b8681038255876000526020600c2087815401815587602052600c5160601c8660601c7fddf252ad1be2c89b69c2b068fc378daa952ba7f163c4a11628f55a4df523b3ef602080a350505050505061068784848461161a565b600190509392505050565b600090565b6000806106a261161f565b90506000801b81036106c0576106b66104c5565b8051906020012090505b6040517f8b73c3c69bb8fe3d512ecc4cf759cc79239f7b179b0ffacaa9a75d522b39400f81528160208201527fc89efdaa54c0f20c7adf612882df0950f5a951637e0307cdcb4c672f298b8bc6604082015246606082015230608082015260a081209250505090565b6000610746836107418461073c90612ef5565b611624565b61118f565b905092915050565b60608161075a90612f08565b60006107b17f6bdaeb2d29561f159c7ef98b16b27015fb2aeb87209c7ee656226d912f59927d8360000151604051602001610796929190612f1b565b6040516020818303038152906040528051906020012061163a565b905060006107c3828460200151611654565b90503373ffffffffffffffffffffffffffffffffffffffff168173ffffffffffffffffffffffffffffffffffffffff161461082a576040517f3093a27700000000000000000000000000000000000000000000000000000000815260040160405180910390fd5b6108b4600460003373ffffffffffffffffffffffffffffffffffffffff1673ffffffffffffffffffffffffffffffffffffffff16815260200190815260200160002060008873ffffffffffffffffffffffffffffffffffffffff1673ffffffffffffffffffffffffffffffffffffffff168152602001908152602001600020548660000135611680565b935050505092915050565b60608183600061091a7f6bdaeb2d29561f159c7ef98b16b27015fb2aeb87209c7ee656226d912f59927d84600001516040516020016108ff929190612f1b565b6040516020818303038152906040528051906020012061163a565b9050600061092c828560200151611654565b90508273ffffffffffffffffffffffffffffffffffffffff168173ffffffffffffffffffffffffffffffffffffffff1614610993576040517f51c65eae00000000000000000000000000000000000000000000000000000000815260040160405180910390fd5b6109e0600360008973ffffffffffffffffffffffffffffffffffffffff1673ffffffffffffffffffffffffffffffffffffffff168152602001908152602001600020548760000151611680565b94505050505092915050565b6000610a45610a008363ffffffff166116b6565b600360003373ffffffffffffffffffffffffffffffffffffffff1673ffffffffffffffffffffffffffffffffffffffff168152602001908152602001600020546116ca565b9050610a90600360003373ffffffffffffffffffffffffffffffffffffffff1673ffffffffffffffffffffffffffffffffffffffff1681526020019081526020016000205482611743565b600360003373ffffffffffffffffffffffffffffffffffffffff1673ffffffffffffffffffffffffffffffffffffffff16815260200190815260200160002081905550610adf60025482611743565b600281905550610afd33610af283611757565b63ffffffff1661181a565b5050565b60006387a211a2600c52816000526020600c20549050919050565b60006338377508600c52816000526020600c20549050919050565b600060608060008060006060610b4b6118b1565b610b536118ec565b46306000801b600067ffffffffffffffff811115610b7457610b736127b1565b5b604051908082528060200260200182016040528015610ba25781602001602082028036833780820191505090505b507f0f00000000000000000000000000000000000000000000000000000000000000959493929190965096509650965096509650965090919293949596565b6000610bff8484610bfa85610bf590612ef5565b611624565b610e39565b90509392505050565b606060068054610c1790612e6c565b80601f0160208091040260200160405190810160405280929190818152602001828054610c4390612e6c565b8015610c905780601f10610c6557610100808354040283529160200191610c90565b820191906000526020600020905b815481529060010190602001808311610c7357829003601f168201915b5050505050905090565b8063ffffffff16610caa33610b01565b1015610ce2576040517ffda7bbda00000000000000000000000000000000000000000000000000000000815260040160405180910390fd5b610cf2338263ffffffff16611927565b6000610d038263ffffffff166116b6565b9050610d4e600360003373ffffffffffffffffffffffffffffffffffffffff1673ffffffffffffffffffffffffffffffffffffffff16815260200190815260200160002054826119be565b600360003373ffffffffffffffffffffffffffffffffffffffff1673ffffffffffffffffffffffffffffffffffffffff16815260200190815260200160002081905550610d9d600254826119be565b6002819055505050565b6000610db4338484611615565b6387a211a2600c52336000526020600c20805480841115610ddd5763f4d678b86000526004601cfd5b8381038255846000526020600c2084815401815584602052600c5160601c337fddf252ad1be2c89b69c2b068fc378daa952ba7f163c4a11628f55a4df523b3ef602080a3505050610e2f33848461161a565b6001905092915050565b600080610f0a83610f05600360008973ffffffffffffffffffffffffffffffffffffffff1673ffffffffffffffffffffffffffffffffffffffff16815260200190815260200160002054600460008a73ffffffffffffffffffffffffffffffffffffffff1673ffffffffffffffffffffffffffffffffffffffff16815260200190815260200160002060003373ffffffffffffffffffffffffffffffffffffffff1673ffffffffffffffffffffffffffffffffffffffff168152602001908152602001600020546116ca565b6116ca565b9050610f92600460008773ffffffffffffffffffffffffffffffffffffffff1673ffffffffffffffffffffffffffffffffffffffff16815260200190815260200160002060003373ffffffffffffffffffffffffffffffffffffffff1673ffffffffffffffffffffffffffffffffffffffff1681526020019081526020016000205482611743565b600460008773ffffffffffffffffffffffffffffffffffffffff1673ffffffffffffffffffffffffffffffffffffffff16815260200190815260200160002060003373ffffffffffffffffffffffffffffffffffffffff1673ffffffffffffffffffffffffffffffffffffffff1681526020019081526020016000208190555061105b600360008773ffffffffffffffffffffffffffffffffffffffff1673ffffffffffffffffffffffffffffffffffffffff1681526020019081526020016000205482611743565b600360008773ffffffffffffffffffffffffffffffffffffffff1673ffffffffffffffffffffffffffffffffffffffff168152602001908152602001600020819055506110e7600360008673ffffffffffffffffffffffffffffffffffffffff1673ffffffffffffffffffffffffffffffffffffffff16815260200190815260200160002054826119be565b600360008673ffffffffffffffffffffffffffffffffffffffff1673ffffffffffffffffffffffffffffffffffffffff168152602001908152602001600020819055508373ffffffffffffffffffffffffffffffffffffffff168573ffffffffffffffffffffffffffffffffffffffff167f7612539b010127d1a2f810eeff1131de23a28ecfa8228f92a9606a879300fbb560405160405180910390a3809150509392505050565b6000806111db83600360003373ffffffffffffffffffffffffffffffffffffffff1673ffffffffffffffffffffffffffffffffffffffff168152602001908152602001600020546116ca565b9050611226600360003373ffffffffffffffffffffffffffffffffffffffff1673ffffffffffffffffffffffffffffffffffffffff1681526020019081526020016000205482611743565b600360003373ffffffffffffffffffffffffffffffffffffffff1673ffffffffffffffffffffffffffffffffffffffff168152602001908152602001600020819055506112b2600360008673ffffffffffffffffffffffffffffffffffffffff1673ffffffffffffffffffffffffffffffffffffffff16815260200190815260200160002054826119be565b600360008673ffffffffffffffffffffffffffffffffffffffff1673ffffffffffffffffffffffffffffffffffffffff168152602001908152602001600020819055508373ffffffffffffffffffffffffffffffffffffffff163373ffffffffffffffffffffffffffffffffffffffff167f7612539b010127d1a2f810eeff1131de23a28ecfa8228f92a9606a879300fbb560405160405180910390a38091505092915050565b600061136361161f565b90506000801b8103611381576113776104c5565b8051906020012090505b8442111561139757631a15a3cc6000526004601cfd5b6040518860601b60601c98508760601b60601c975065383775081901600e52886000526020600c2080547f8b73c3c69bb8fe3d512ecc4cf759cc79239f7b179b0ffacaa9a75d522b39400f83528360208401527fc89efdaa54c0f20c7adf612882df0950f5a951637e0307cdcb4c672f298b8bc6604084015246606084015230608084015260a08320602e527f6e71edae12b1b97f4d1f60370fef10105fa2faae0126114a169c64845d6126c983528a60208401528960408401528860608401528060808401528760a084015260c08320604e526042602c206000528660ff1660205285604052846060526020806080600060015afa8b3d51146114a35763ddafbaef6000526004601cfd5b80820183558a637f5e9f2060a01b17604052896034602c20558a8c7f8c5be1e5ebec7d5bd14f71427d1e84f3dd0314c0f7b2291e5b200ac8c7c3b925602060608801a3836040526000606052505050505050505050505050565b60006115118261150c90612ef5565b611624565b600460003373ffffffffffffffffffffffffffffffffffffffff1673ffffffffffffffffffffffffffffffffffffffff16815260200190815260200160002060008573ffffffffffffffffffffffffffffffffffffffff1673ffffffffffffffffffffffffffffffffffffffff168152602001908152602001600020819055508273ffffffffffffffffffffffffffffffffffffffff163373ffffffffffffffffffffffffffffffffffffffff167f46f92913a39019d68e630493d23e0cf39761bf253f7b3f8eae384b33e393ed4e60405160405180910390a36001905092915050565b600081602052637f5e9f20600c52826000526034600c2054905092915050565b505050565b505050565b600090565b600061163382600001516119d2565b9050919050565b600061164d6116476119e6565b83611a9d565b9050919050565b6000806000806116648686611ade565b9250925092506116748282611b3a565b82935050505092915050565b606061168b83611c9e565b61169c5761169960006116b6565b92505b60008390506116ad60028285611cab565b91505092915050565b60006116c3826002611d61565b9050919050565b60006116d583611c9e565b6116e6576116e360006116b6565b92505b6116ef82611c9e565b611700576116fd60006116b6565b91505b60008390506000839050600061173560028484608073ffffffffffffffffffffffffffffffffffffffff16635211c679611e03565b905080935050505092915050565b600061174f8383611e97565b905092915050565b600061176282611c9e565b6117735761177060006116b6565b91505b6000829050600061178382611f10565b90506000608073ffffffffffffffffffffffffffffffffffffffff166373cc01546002846040518363ffffffff1660e01b81526004016117c4929190612f99565b602060405180830381865afa1580156117e1573d6000803e3d6000fd5b505050506040513d601f19601f820116820180604052508101906118059190612fde565b905061181081611f6d565b9350505050919050565b61182660008383611615565b6805345cdf77eb68f44c548181018181101561184a5763e5cfe9576000526004601cfd5b806805345cdf77eb68f44c556387a211a2600c52836000526020600c2083815401815583602052600c5160601c60007fddf252ad1be2c89b69c2b068fc378daa952ba7f163c4a11628f55a4df523b3ef602080a35050506118ad6000838361161a565b5050565b60606118e760007f0000000000000000000000000000000000000000000000000000000000000000611f7790919063ffffffff16565b905090565b606061192260017f0000000000000000000000000000000000000000000000000000000000000000611f7790919063ffffffff16565b905090565b61193382600083611615565b6387a211a2600c52816000526020600c2080548083111561195c5763f4d678b86000526004601cfd5b8281038255826805345cdf77eb68f44c54036805345cdf77eb68f44c558260005260008460601b60601c7fddf252ad1be2c89b69c2b068fc378daa952ba7f163c4a11628f55a4df523b3ef60206000a350506119ba8260008361161a565b5050565b60006119ca8383612027565b905092915050565b60006119df82600261209f565b9050919050565b60007f000000000000000000000000000000000000000000000000000000000000000073ffffffffffffffffffffffffffffffffffffffff163073ffffffffffffffffffffffffffffffffffffffff16148015611a6257507f000000000000000000000000000000000000000000000000000000000000000046145b15611a8f577f00000000000000000000000000000000000000000000000000000000000000009050611a9a565b611a97612139565b90505b90565b60006040517f190100000000000000000000000000000000000000000000000000000000000081528360028201528260228201526042812091505092915050565b60008060006041845103611b235760008060006020870151925060408701519150606087015160001a9050611b15888285856121cf565b955095509550505050611b33565b60006002855160001b9250925092505b9250925092565b60006003811115611b4e57611b4d61300b565b5b826003811115611b6157611b6061300b565b5b0315611c9a5760016003811115611b7b57611b7a61300b565b5b826003811115611b8e57611b8d61300b565b5b03611bc5576040517ff645eedf00000000000000000000000000000000000000000000000000000000815260040160405180910390fd5b60026003811115611bd957611bd861300b565b5b826003811115611bec57611beb61300b565b5b03611c31578060001c6040517ffce698f7000000000000000000000000000000000000000000000000000000008152600401611c289190612582565b60405180910390fd5b600380811115611c4457611c4361300b565b5b826003811115611c5757611c5661300b565b5b03611c9957806040517fd78bce0c000000000000000000000000000000000000000000000000000000008152600401611c909190612640565b60405180910390fd5b5b5050565b6000808214159050919050565b6060608073ffffffffffffffffffffffffffffffffffffffff1663a1848ff385611cd486611f10565b85604051602001611ce5919061305b565b6040516020818303038152906040526040518463ffffffff1660e01b8152600401611d1293929190613076565b600060405180830381865afa158015611d2f573d6000803e3d6000fd5b505050506040513d6000823e3d601f19601f82011682018060405250810190611d58919061315c565b90509392505050565b60006060608073ffffffffffffffffffffffffffffffffffffffff166319e1c5c4611d8b86611f10565b856040518363ffffffff1660e01b8152600401611da99291906131a5565b600060405180830381865afa158015611dc6573d6000803e3d6000fd5b505050506040513d6000823e3d601f19601f82011682018060405250810190611def9190613245565b9050611dfa816122c3565b91505092915050565b60006060838388611e1389611f10565b611e1c89611f10565b6040518463ffffffff1660e01b8152600401611e3a93929190613076565b600060405180830381865afa158015611e57573d6000803e3d6000fd5b505050506040513d6000823e3d601f19601f82011682018060405250810190611e809190613245565b9050611e8b816122d1565b91505095945050505050565b6000611ea283611c9e565b611eb357611eb060006116b6565b92505b611ebc82611c9e565b611ecd57611eca60006116b6565b91505b600083905060008390506000611f0260028484608073ffffffffffffffffffffffffffffffffffffffff1663cc2cbeff611e03565b905080935050505092915050565b6060602067ffffffffffffffff811115611f2d57611f2c6127b1565b5b6040519080825280601f01601f191660200182016040528015611f5f5781602001600182028036833780820191505090505b509050816020820152919050565b6000819050919050565b606060ff60001b8314611f9457611f8d836122df565b9050612021565b818054611fa090612e6c565b80601f0160208091040260200160405190810160405280929190818152602001828054611fcc90612e6c565b80156120195780601f10611fee57610100808354040283529160200191612019565b820191906000526020600020905b815481529060010190602001808311611ffc57829003601f168201915b505050505090505b92915050565b600061203283611c9e565b6120435761204060006116b6565b92505b61204c82611c9e565b61205d5761205a60006116b6565b91505b60008390506000839050600061209160028484608073ffffffffffffffffffffffffffffffffffffffff16622df619611e03565b905080935050505092915050565b60006060608073ffffffffffffffffffffffffffffffffffffffff16635fa55ca784866040518363ffffffff1660e01b81526004016120df929190612f99565b600060405180830381865afa1580156120fc573d6000803e3d6000fd5b505050506040513d6000823e3d601f19601f820116820180604052508101906121259190613245565b9050612130816122c3565b91505092915050565b60007f8b73c3c69bb8fe3d512ecc4cf759cc79239f7b179b0ffacaa9a75d522b39400f7f00000000000000000000000000000000000000000000000000000000000000007f000000000000000000000000000000000000000000000000000000000000000046306040516020016121b495949392919061328e565b60405160208183030381529060405280519060200120905090565b60008060007f7fffffffffffffffffffffffffffffff5d576e7357a4501ddfe92f46681b20a08460001c111561220f5760006003859250925092506122b9565b60006001888888886040516000815260200160405260405161223494939291906132e1565b6020604051602081039080840390855afa158015612256573d6000803e3d6000fd5b505050602060405103519050600073ffffffffffffffffffffffffffffffffffffffff168173ffffffffffffffffffffffffffffffffffffffff16036122aa57600060016000801b935093509350506122b9565b8060008060001b935093509350505b9450945094915050565b600060208201519050919050565b600060208201519050919050565b606060006122ec83612353565b90506000602067ffffffffffffffff81111561230b5761230a6127b1565b5b6040519080825280601f01601f19166020018201604052801561233d5781602001600182028036833780820191505090505b5090508181528360208201528092505050919050565b60008060ff8360001c169050601f81111561239a576040517fb3512b0c00000000000000000000000000000000000000000000000000000000815260040160405180910390fd5b80915050919050565b600081519050919050565b600082825260208201905092915050565b60005b838110156123dd5780820151818401526020810190506123c2565b60008484015250505050565b6000601f19601f8301169050919050565b6000612405826123a3565b61240f81856123ae565b935061241f8185602086016123bf565b612428816123e9565b840191505092915050565b6000602082019050818103600083015261244d81846123fa565b905092915050565b6000604051905090565b600080fd5b600080fd5b600073ffffffffffffffffffffffffffffffffffffffff82169050919050565b600061249482612469565b9050919050565b6124a481612489565b81146124af57600080fd5b50565b6000813590506124c18161249b565b92915050565b6000819050919050565b6124da816124c7565b81146124e557600080fd5b50565b6000813590506124f7816124d1565b92915050565b600080604083850312156125145761251361245f565b5b6000612522858286016124b2565b9250506020612533858286016124e8565b9150509250929050565b60008115159050919050565b6125528161253d565b82525050565b600060208201905061256d6000830184612549565b92915050565b61257c816124c7565b82525050565b60006020820190506125976000830184612573565b92915050565b6000806000606084860312156125b6576125b561245f565b5b60006125c4868287016124b2565b93505060206125d5868287016124b2565b92505060406125e6868287016124e8565b9150509250925092565b600060ff82169050919050565b612606816125f0565b82525050565b600060208201905061262160008301846125fd565b92915050565b6000819050919050565b61263a81612627565b82525050565b60006020820190506126556000830184612631565b92915050565b600080fd5b6000602082840312156126765761267561265b565b5b81905092915050565b600080604083850312156126965761269561245f565b5b60006126a4858286016124b2565b925050602083013567ffffffffffffffff8111156126c5576126c4612464565b5b6126d185828601612660565b9150509250929050565b6000819050919050565b60006127006126fb6126f6846124c7565b6126db565b6124c7565b9050919050565b612710816126e5565b82525050565b600060208201905061272b6000830184612707565b92915050565b6000604082840312156127475761274661265b565b5b81905092915050565b600080604083850312156127675761276661245f565b5b6000612775858286016124b2565b925050602083013567ffffffffffffffff81111561279657612795612464565b5b6127a285828601612731565b9150509250929050565b600080fd5b7f4e487b7100000000000000000000000000000000000000000000000000000000600052604160045260246000fd5b6127e9826123e9565b810181811067ffffffffffffffff82111715612808576128076127b1565b5b80604052505050565b600061281b612455565b905061282782826127e0565b919050565b600080fd5b61283a81612627565b811461284557600080fd5b50565b60008135905061285781612831565b92915050565b600080fd5b600080fd5b600067ffffffffffffffff821115612882576128816127b1565b5b61288b826123e9565b9050602081019050919050565b82818337600083830152505050565b60006128ba6128b584612867565b612811565b9050828152602081018484840111156128d6576128d5612862565b5b6128e1848285612898565b509392505050565b600082601f8301126128fe576128fd61285d565b5b813561290e8482602086016128a7565b91505092915050565b60006040828403121561292d5761292c6127ac565b5b6129376040612811565b9050600061294784828501612848565b600083015250602082013567ffffffffffffffff81111561296b5761296a61282c565b5b612977848285016128e9565b60208301525092915050565b6000806040838503121561299a5761299961245f565b5b60006129a8858286016124b2565b925050602083013567ffffffffffffffff8111156129c9576129c8612464565b5b6129d585828601612917565b9150509250929050565b600063ffffffff82169050919050565b6129f8816129df565b8114612a0357600080fd5b50565b600081359050612a15816129ef565b92915050565b600060208284031215612a3157612a3061245f565b5b6000612a3f84828501612a06565b91505092915050565b600060208284031215612a5e57612a5d61245f565b5b6000612a6c848285016124b2565b91505092915050565b60007fff0000000000000000000000000000000000000000000000000000000000000082169050919050565b612aaa81612a75565b82525050565b612ab981612489565b82525050565b600081519050919050565b600082825260208201905092915050565b6000819050602082019050919050565b612af4816124c7565b82525050565b6000612b068383612aeb565b60208301905092915050565b6000602082019050919050565b6000612b2a82612abf565b612b348185612aca565b9350612b3f83612adb565b8060005b83811015612b70578151612b578882612afa565b9750612b6283612b12565b925050600181019050612b43565b5085935050505092915050565b600060e082019050612b92600083018a612aa1565b8181036020830152612ba481896123fa565b90508181036040830152612bb881886123fa565b9050612bc76060830187612573565b612bd46080830186612ab0565b612be160a0830185612631565b81810360c0830152612bf38184612b1f565b905098975050505050505050565b600080600060608486031215612c1a57612c1961245f565b5b6000612c28868287016124b2565b9350506020612c39868287016124b2565b925050604084013567ffffffffffffffff811115612c5a57612c59612464565b5b612c6686828701612660565b9150509250925092565b612c79816124c7565b8114612c8457600080fd5b50565b600081359050612c9681612c70565b92915050565b600080600060608486031215612cb557612cb461245f565b5b6000612cc3868287016124b2565b9350506020612cd4868287016124b2565b9250506040612ce586828701612c87565b9150509250925092565b60008060408385031215612d0657612d0561245f565b5b6000612d14858286016124b2565b9250506020612d2585828601612c87565b9150509250929050565b612d38816125f0565b8114612d4357600080fd5b50565b600081359050612d5581612d2f565b92915050565b600080600080600080600060e0888a031215612d7a57612d7961245f565b5b6000612d888a828b016124b2565b9750506020612d998a828b016124b2565b9650506040612daa8a828b016124e8565b9550506060612dbb8a828b016124e8565b9450506080612dcc8a828b01612d46565b93505060a0612ddd8a828b01612848565b92505060c0612dee8a828b01612848565b91505092959891949750929550565b60008060408385031215612e1457612e1361245f565b5b6000612e22858286016124b2565b9250506020612e33858286016124b2565b9150509250929050565b7f4e487b7100000000000000000000000000000000000000000000000000000000600052602260045260246000fd5b60006002820490506001821680612e8457607f821691505b602082108103612e9757612e96612e3d565b5b50919050565b600060208284031215612eb357612eb26127ac565b5b612ebd6020612811565b9050600082013567ffffffffffffffff811115612edd57612edc61282c565b5b612ee9848285016128e9565b60008301525092915050565b6000612f013683612e9d565b9050919050565b6000612f143683612917565b9050919050565b6000604082019050612f306000830185612631565b612f3d6020830184612631565b9392505050565b600081519050919050565b600082825260208201905092915050565b6000612f6b82612f44565b612f758185612f4f565b9350612f858185602086016123bf565b612f8e816123e9565b840191505092915050565b6000604082019050612fae60008301856125fd565b8181036020830152612fc08184612f60565b90509392505050565b600081519050612fd8816124d1565b92915050565b600060208284031215612ff457612ff361245f565b5b600061300284828501612fc9565b91505092915050565b7f4e487b7100000000000000000000000000000000000000000000000000000000600052602160045260246000fd5b6000819050919050565b61305561305082612627565b61303a565b82525050565b60006130678284613044565b60208201915081905092915050565b600060608201905061308b60008301866125fd565b818103602083015261309d8185612f60565b905081810360408301526130b18184612f60565b9050949350505050565b600067ffffffffffffffff8211156130d6576130d56127b1565b5b6130df826123e9565b9050602081019050919050565b60006130ff6130fa846130bb565b612811565b90508281526020810184848401111561311b5761311a612862565b5b6131268482856123bf565b509392505050565b600082601f8301126131435761314261285d565b5b81516131538482602086016130ec565b91505092915050565b6000602082840312156131725761317161245f565b5b600082015167ffffffffffffffff8111156131905761318f612464565b5b61319c8482850161312e565b91505092915050565b600060408201905081810360008301526131bf8185612f60565b90506131ce60208301846125fd565b9392505050565b60006131e86131e384612867565b612811565b90508281526020810184848401111561320457613203612862565b5b61320f8482856123bf565b509392505050565b600082601f83011261322c5761322b61285d565b5b815161323c8482602086016131d5565b91505092915050565b60006020828403121561325b5761325a61245f565b5b600082015167ffffffffffffffff81111561327957613278612464565b5b61328584828501613217565b91505092915050565b600060a0820190506132a36000830188612631565b6132b06020830187612631565b6132bd6040830186612631565b6132ca6060830185612573565b6132d76080830184612ab0565b9695505050505050565b60006080820190506132f66000830187612631565b61330360208301866125fd565b6133106040830185612631565b61331d6060830184612631565b9594505050505056fea2646970667358221220d2ecefabf6474a46052e52e11ab32c5139690c9cccda6a7c37d9a6911a35acc664736f6c63430008180033",
  "devdoc": {
    "errors": {
      "AllowanceOverflow()": [
        {
          "details": "The allowance has overflowed."
        }
      ],
      "AllowanceUnderflow()": [
        {
          "details": "The allowance has underflowed."
        }
      ],
      "ECDSAInvalidSignature()": [
        {
          "details": "The signature derives the `address(0)`."
        }
      ],
      "ECDSAInvalidSignatureLength(uint256)": [
        {
          "details": "The signature has an invalid length."
        }
      ],
      "ECDSAInvalidSignatureS(bytes32)": [
        {
          "details": "The signature has an S value that is in the upper half order."
        }
      ],
      "InsufficientAllowance()": [
        {
          "details": "Insufficient allowance."
        }
      ],
      "InsufficientBalance()": [
        {
          "details": "Insufficient balance."
        }
      ],
      "InvalidPermit()": [
        {
          "details": "The permit is invalid."
        }
      ],
      "PermitExpired()": [
        {
          "details": "The permit has expired."
        }
      ],
      "TotalSupplyOverflow()": [
        {
          "details": "The total supply has overflowed."
        }
      ]
    },
    "events": {
      "Approval(address,address,uint256)": {
        "details": "Emitted when `amount` tokens is approved by `owner` to be used by `spender`."
      },
      "ApprovalEncrypted(address,address)": {
        "details": "Emitted when the allowance of a `spender` for an `owner` is set by a call to {approveEncrypted}. `value` is the new allowance."
      },
      "EIP712DomainChanged()": {
        "details": "MAY be emitted to signal that the domain could have changed."
      },
      "Transfer(address,address,uint256)": {
        "details": "Emitted when `amount` tokens is transferred from `from` to `to`."
      },
      "TransferEncrypted(address,address)": {
        "details": "Emitted when `value` tokens are moved from one account (`from`) to another (`to`). Note that `value` may be zero."
      }
    },
    "kind": "dev",
    "methods": {
      "DOMAIN_SEPARATOR()": {
        "details": "Returns the EIP-712 domain separator for the EIP-2612 permit."
      },
      "allowance(address,address)": {
        "details": "Returns the amount of tokens that `spender` can spend on behalf of `owner`."
      },
      "allowanceEncrypted(address,(bytes32,bytes))": {
        "details": "Returns the remaining number of tokens that `spender` will be allowed to spend on behalf of `owner` through {transferFrom}. This is zero by default. This value changes when {approve} or {transferFrom} are called."
      },
      "approve(address,uint256)": {
        "details": "Sets `amount` as the allowance of `spender` over the caller's tokens. Emits a {Approval} event."
      },
      "approveEncrypted(address,(bytes))": {
        "details": "Sets a `value` amount of tokens as the allowance of `spender` over the caller's tokens. Returns a boolean value indicating whether the operation succeeded. IMPORTANT: Beware that changing an allowance with this method brings the risk that someone may use both the old and the new allowance by unfortunate transaction ordering. One possible solution to mitigate this race condition is to first reduce the spender's allowance to 0 and set the desired value afterwards: https://github.com/ethereum/EIPs/issues/20#issuecomment-263524729 Emits an {ApprovalEncrypted} event."
      },
      "balanceOf(address)": {
        "details": "Returns the amount of tokens owned by `owner`."
      },
      "balanceOfEncrypted(address,(bytes32,bytes))": {
        "details": "Returns the value of tokens owned by `account`, sealed and encrypted for the caller."
      },
      "decimals()": {
        "details": "Returns the decimals places of the token."
      },
      "eip712Domain()": {
        "details": "See {IERC-5267}."
      },
      "name()": {
        "details": "Returns the name of the token."
      },
      "nonces(address)": {
        "details": "Returns the current nonce for `owner`. This value is used to compute the signature for EIP-2612 permit."
      },
      "permit(address,address,uint256,uint256,uint8,bytes32,bytes32)": {
        "details": "Sets `value` as the allowance of `spender` over the tokens of `owner`, authorized by a signed approval by `owner`. Emits a {Approval} event."
      },
      "symbol()": {
        "details": "Returns the symbol of the token."
      },
      "totalSupply()": {
        "details": "Returns the amount of tokens in existence."
      },
      "transfer(address,uint256)": {
        "details": "Transfer `amount` tokens from the caller to `to`. Requirements: - `from` must at least have `amount`. Emits a {Transfer} event."
      },
      "transferFrom(address,address,uint256)": {
        "details": "Transfers `amount` tokens from `from` to `to`. Note: Does not update the allowance if it is the maximum uint256 value. Requirements: - `from` must at least have `amount`. - The caller must have at least `amount` of allowance to transfer the tokens of `from`. Emits a {Transfer} event."
      },
      "transferFromEncrypted(address,address,(bytes))": {
        "details": "Moves a `value` amount of tokens from `from` to `to` using the allowance mechanism. `value` is then deducted from the caller's allowance. Returns a boolean value indicating whether the operation succeeded. Emits a {TransferEncrypted} event."
      }
    },
    "version": 1
  },
  "userdoc": {
    "errors": {
      "SignerNotMessageSender()": [
        {
          "notice": "Emitted when the signer is not the message sender"
        }
      ],
      "SignerNotOwner()": [
        {
          "notice": "Emitted when the signer is not the specified owner"
        }
      ]
    },
    "kind": "user",
    "methods": {},
    "version": 1
  },
  "storageLayout": {
    "storage": [
      {
        "astId": 16568,
        "contract": "contracts/tokens/FakeEUR.sol:FakeEUR",
        "label": "_nameFallback",
        "offset": 0,
        "slot": "0",
        "type": "t_string_storage"
      },
      {
        "astId": 16570,
        "contract": "contracts/tokens/FakeEUR.sol:FakeEUR",
        "label": "_versionFallback",
        "offset": 0,
        "slot": "1",
        "type": "t_string_storage"
      },
      {
        "astId": 18126,
        "contract": "contracts/tokens/FakeEUR.sol:FakeEUR",
        "label": "_encTotalSupply",
        "offset": 0,
        "slot": "2",
        "type": "t_userDefinedValueType(euint32)12"
      },
      {
        "astId": 18131,
        "contract": "contracts/tokens/FakeEUR.sol:FakeEUR",
        "label": "_encBalanceOf",
        "offset": 0,
        "slot": "3",
        "type": "t_mapping(t_address,t_userDefinedValueType(euint32)12)"
      },
      {
        "astId": 18138,
        "contract": "contracts/tokens/FakeEUR.sol:FakeEUR",
        "label": "_encAllowance",
        "offset": 0,
        "slot": "4",
        "type": "t_mapping(t_address,t_mapping(t_address,t_userDefinedValueType(euint32)12))"
      },
      {
        "astId": 18140,
        "contract": "contracts/tokens/FakeEUR.sol:FakeEUR",
        "label": "_name",
        "offset": 0,
        "slot": "5",
        "type": "t_string_storage"
      },
      {
        "astId": 18142,
        "contract": "contracts/tokens/FakeEUR.sol:FakeEUR",
        "label": "_symbol",
        "offset": 0,
        "slot": "6",
        "type": "t_string_storage"
      }
    ],
    "types": {
      "t_address": {
        "encoding": "inplace",
        "label": "address",
        "numberOfBytes": "20"
      },
      "t_mapping(t_address,t_mapping(t_address,t_userDefinedValueType(euint32)12))": {
        "encoding": "mapping",
        "key": "t_address",
        "label": "mapping(address => mapping(address => euint32))",
        "numberOfBytes": "32",
        "value": "t_mapping(t_address,t_userDefinedValueType(euint32)12)"
      },
      "t_mapping(t_address,t_userDefinedValueType(euint32)12)": {
        "encoding": "mapping",
        "key": "t_address",
        "label": "mapping(address => euint32)",
        "numberOfBytes": "32",
        "value": "t_userDefinedValueType(euint32)12"
      },
      "t_string_storage": {
        "encoding": "bytes",
        "label": "string",
        "numberOfBytes": "32"
      },
      "t_userDefinedValueType(euint32)12": {
        "encoding": "inplace",
        "label": "euint32",
        "numberOfBytes": "32"
      }
    }
  }
}