{
  "address": "0x4Ecec3f476aC7e2fc8c94F4505F8D7AF8dAf50C1",
  "abi": [
    {
      "inputs": [
        {
          "components": [
            {
              "internalType": "bytes",
              "name": "data",
              "type": "bytes"
            }
          ],
          "internalType": "struct inEuint32",
          "name": "_initialSupply",
          "type": "tuple"
        }
      ],
      "stateMutability": "nonpayable",
      "type": "constructor"
    },
    {
      "inputs": [],
      "name": "AllowanceOverflow",
      "type": "error"
    },
    {
      "inputs": [],
      "name": "AllowanceUnderflow",
      "type": "error"
    },
    {
      "inputs": [],
      "name": "ECDSAInvalidSignature",
      "type": "error"
    },
    {
      "inputs": [
        {
          "internalType": "uint256",
          "name": "length",
          "type": "uint256"
        }
      ],
      "name": "ECDSAInvalidSignatureLength",
      "type": "error"
    },
    {
      "inputs": [
        {
          "internalType": "bytes32",
          "name": "s",
          "type": "bytes32"
        }
      ],
      "name": "ECDSAInvalidSignatureS",
      "type": "error"
    },
    {
      "inputs": [],
      "name": "ErrorInsufficientFunds",
      "type": "error"
    },
    {
      "inputs": [],
      "name": "InsufficientAllowance",
      "type": "error"
    },
    {
      "inputs": [],
      "name": "InsufficientBalance",
      "type": "error"
    },
    {
      "inputs": [],
      "name": "InvalidPermit",
      "type": "error"
    },
    {
      "inputs": [],
      "name": "InvalidShortString",
      "type": "error"
    },
    {
      "inputs": [],
      "name": "PermitExpired",
      "type": "error"
    },
    {
      "inputs": [],
      "name": "SignerNotMessageSender",
      "type": "error"
    },
    {
      "inputs": [],
      "name": "SignerNotOwner",
      "type": "error"
    },
    {
      "inputs": [
        {
          "internalType": "string",
          "name": "str",
          "type": "string"
        }
      ],
      "name": "StringTooLong",
      "type": "error"
    },
    {
      "inputs": [],
      "name": "TotalSupplyOverflow",
      "type": "error"
    },
    {
      "anonymous": false,
      "inputs": [
        {
          "indexed": true,
          "internalType": "address",
          "name": "owner",
          "type": "address"
        },
        {
          "indexed": true,
          "internalType": "address",
          "name": "spender",
          "type": "address"
        },
        {
          "indexed": false,
          "internalType": "uint256",
          "name": "amount",
          "type": "uint256"
        }
      ],
      "name": "Approval",
      "type": "event"
    },
    {
      "anonymous": false,
      "inputs": [
        {
          "indexed": true,
          "internalType": "address",
          "name": "owner",
          "type": "address"
        },
        {
          "indexed": true,
          "internalType": "address",
          "name": "spender",
          "type": "address"
        }
      ],
      "name": "ApprovalEncrypted",
      "type": "event"
    },
    {
      "anonymous": false,
      "inputs": [],
      "name": "EIP712DomainChanged",
      "type": "event"
    },
    {
      "anonymous": false,
      "inputs": [
        {
          "indexed": true,
          "internalType": "address",
          "name": "from",
          "type": "address"
        },
        {
          "indexed": true,
          "internalType": "address",
          "name": "to",
          "type": "address"
        },
        {
          "indexed": false,
          "internalType": "uint256",
          "name": "amount",
          "type": "uint256"
        }
      ],
      "name": "Transfer",
      "type": "event"
    },
    {
      "anonymous": false,
      "inputs": [
        {
          "indexed": true,
          "internalType": "address",
          "name": "from",
          "type": "address"
        },
        {
          "indexed": true,
          "internalType": "address",
          "name": "to",
          "type": "address"
        }
      ],
      "name": "TransferEncrypted",
      "type": "event"
    },
    {
      "inputs": [],
      "name": "DOMAIN_SEPARATOR",
      "outputs": [
        {
          "internalType": "bytes32",
          "name": "result",
          "type": "bytes32"
        }
      ],
      "stateMutability": "view",
      "type": "function"
    },
    {
      "inputs": [
        {
          "internalType": "address",
          "name": "owner",
          "type": "address"
        },
        {
          "internalType": "address",
          "name": "spender",
          "type": "address"
        }
      ],
      "name": "allowance",
      "outputs": [
        {
          "internalType": "uint256",
          "name": "result",
          "type": "uint256"
        }
      ],
      "stateMutability": "view",
      "type": "function"
    },
    {
      "inputs": [
        {
          "internalType": "address",
          "name": "spender",
          "type": "address"
        },
        {
          "components": [
            {
              "internalType": "bytes32",
              "name": "publicKey",
              "type": "bytes32"
            },
            {
              "internalType": "bytes",
              "name": "signature",
              "type": "bytes"
            }
          ],
          "internalType": "struct Permission",
          "name": "permission",
          "type": "tuple"
        }
      ],
      "name": "allowanceEncrypted",
      "outputs": [
        {
          "internalType": "string",
          "name": "",
          "type": "string"
        }
      ],
      "stateMutability": "view",
      "type": "function"
    },
    {
      "inputs": [
        {
          "internalType": "address",
          "name": "spender",
          "type": "address"
        },
        {
          "internalType": "uint256",
          "name": "amount",
          "type": "uint256"
        }
      ],
      "name": "approve",
      "outputs": [
        {
          "internalType": "bool",
          "name": "",
          "type": "bool"
        }
      ],
      "stateMutability": "nonpayable",
      "type": "function"
    },
    {
      "inputs": [
        {
          "internalType": "address",
          "name": "spender",
          "type": "address"
        },
        {
          "components": [
            {
              "internalType": "bytes",
              "name": "data",
              "type": "bytes"
            }
          ],
          "internalType": "struct inEuint32",
          "name": "value",
          "type": "tuple"
        }
      ],
      "name": "approveEncrypted",
      "outputs": [
        {
          "internalType": "bool",
          "name": "",
          "type": "bool"
        }
      ],
      "stateMutability": "nonpayable",
      "type": "function"
    },
    {
      "inputs": [
        {
          "internalType": "address",
          "name": "owner",
          "type": "address"
        }
      ],
      "name": "balanceOf",
      "outputs": [
        {
          "internalType": "uint256",
          "name": "result",
          "type": "uint256"
        }
      ],
      "stateMutability": "view",
      "type": "function"
    },
    {
      "inputs": [
        {
          "internalType": "address",
          "name": "account",
          "type": "address"
        },
        {
          "components": [
            {
              "internalType": "bytes32",
              "name": "publicKey",
              "type": "bytes32"
            },
            {
              "internalType": "bytes",
              "name": "signature",
              "type": "bytes"
            }
          ],
          "internalType": "struct Permission",
          "name": "auth",
          "type": "tuple"
        }
      ],
      "name": "balanceOfEncrypted",
      "outputs": [
        {
          "internalType": "string",
          "name": "",
          "type": "string"
        }
      ],
      "stateMutability": "view",
      "type": "function"
    },
    {
      "inputs": [],
      "name": "decimals",
      "outputs": [
        {
          "internalType": "uint8",
          "name": "",
          "type": "uint8"
        }
      ],
      "stateMutability": "pure",
      "type": "function"
    },
    {
      "inputs": [],
      "name": "eip712Domain",
      "outputs": [
        {
          "internalType": "bytes1",
          "name": "fields",
          "type": "bytes1"
        },
        {
          "internalType": "string",
          "name": "name",
          "type": "string"
        },
        {
          "internalType": "string",
          "name": "version",
          "type": "string"
        },
        {
          "internalType": "uint256",
          "name": "chainId",
          "type": "uint256"
        },
        {
          "internalType": "address",
          "name": "verifyingContract",
          "type": "address"
        },
        {
          "internalType": "bytes32",
          "name": "salt",
          "type": "bytes32"
        },
        {
          "internalType": "uint256[]",
          "name": "extensions",
          "type": "uint256[]"
        }
      ],
      "stateMutability": "view",
      "type": "function"
    },
    {
      "inputs": [],
      "name": "name",
      "outputs": [
        {
          "internalType": "string",
          "name": "",
          "type": "string"
        }
      ],
      "stateMutability": "view",
      "type": "function"
    },
    {
      "inputs": [
        {
          "internalType": "address",
          "name": "owner",
          "type": "address"
        }
      ],
      "name": "nonces",
      "outputs": [
        {
          "internalType": "uint256",
          "name": "result",
          "type": "uint256"
        }
      ],
      "stateMutability": "view",
      "type": "function"
    },
    {
      "inputs": [
        {
          "internalType": "address",
          "name": "owner",
          "type": "address"
        },
        {
          "internalType": "address",
          "name": "spender",
          "type": "address"
        },
        {
          "internalType": "uint256",
          "name": "value",
          "type": "uint256"
        },
        {
          "internalType": "uint256",
          "name": "deadline",
          "type": "uint256"
        },
        {
          "internalType": "uint8",
          "name": "v",
          "type": "uint8"
        },
        {
          "internalType": "bytes32",
          "name": "r",
          "type": "bytes32"
        },
        {
          "internalType": "bytes32",
          "name": "s",
          "type": "bytes32"
        }
      ],
      "name": "permit",
      "outputs": [],
      "stateMutability": "nonpayable",
      "type": "function"
    },
    {
      "inputs": [],
      "name": "symbol",
      "outputs": [
        {
          "internalType": "string",
          "name": "",
          "type": "string"
        }
      ],
      "stateMutability": "view",
      "type": "function"
    },
    {
      "inputs": [],
      "name": "totalSupply",
      "outputs": [
        {
          "internalType": "uint256",
          "name": "result",
          "type": "uint256"
        }
      ],
      "stateMutability": "view",
      "type": "function"
    },
    {
      "inputs": [
        {
          "internalType": "address",
          "name": "to",
          "type": "address"
        },
        {
          "internalType": "uint256",
          "name": "amount",
          "type": "uint256"
        }
      ],
      "name": "transfer",
      "outputs": [
        {
          "internalType": "bool",
          "name": "",
          "type": "bool"
        }
      ],
      "stateMutability": "nonpayable",
      "type": "function"
    },
    {
      "inputs": [
        {
          "internalType": "address",
          "name": "to",
          "type": "address"
        },
        {
          "components": [
            {
              "internalType": "bytes",
              "name": "data",
              "type": "bytes"
            }
          ],
          "internalType": "struct inEuint32",
          "name": "encryptedAmount",
          "type": "tuple"
        }
      ],
      "name": "transferEncrypted",
      "outputs": [
        {
          "internalType": "euint32",
          "name": "",
          "type": "uint256"
        }
      ],
      "stateMutability": "nonpayable",
      "type": "function"
    },
    {
      "inputs": [
        {
          "internalType": "address",
          "name": "to",
          "type": "address"
        },
        {
          "internalType": "euint32",
          "name": "amount",
          "type": "uint256"
        }
      ],
      "name": "transferEncrypted",
      "outputs": [
        {
          "internalType": "euint32",
          "name": "",
          "type": "uint256"
        }
      ],
      "stateMutability": "nonpayable",
      "type": "function"
    },
    {
      "inputs": [
        {
          "internalType": "address",
          "name": "from",
          "type": "address"
        },
        {
          "internalType": "address",
          "name": "to",
          "type": "address"
        },
        {
          "internalType": "uint256",
          "name": "amount",
          "type": "uint256"
        }
      ],
      "name": "transferFrom",
      "outputs": [
        {
          "internalType": "bool",
          "name": "",
          "type": "bool"
        }
      ],
      "stateMutability": "nonpayable",
      "type": "function"
    },
    {
      "inputs": [
        {
          "internalType": "address",
          "name": "from",
          "type": "address"
        },
        {
          "internalType": "address",
          "name": "to",
          "type": "address"
        },
        {
          "components": [
            {
              "internalType": "bytes",
              "name": "data",
              "type": "bytes"
            }
          ],
          "internalType": "struct inEuint32",
          "name": "value",
          "type": "tuple"
        }
      ],
      "name": "transferFromEncrypted",
      "outputs": [
        {
          "internalType": "euint32",
          "name": "",
          "type": "uint256"
        }
      ],
      "stateMutability": "nonpayable",
      "type": "function"
    },
    {
      "inputs": [
        {
          "internalType": "address",
          "name": "from",
          "type": "address"
        },
        {
          "internalType": "address",
          "name": "to",
          "type": "address"
        },
        {
          "internalType": "euint32",
          "name": "value",
          "type": "uint256"
        }
      ],
      "name": "transferFromEncrypted",
      "outputs": [
        {
          "internalType": "euint32",
          "name": "",
          "type": "uint256"
        }
      ],
      "stateMutability": "nonpayable",
      "type": "function"
    },
    {
      "inputs": [
        {
          "internalType": "uint32",
          "name": "amount",
          "type": "uint32"
        }
      ],
      "name": "unwrap",
      "outputs": [],
      "stateMutability": "nonpayable",
      "type": "function"
    },
    {
      "inputs": [
        {
          "internalType": "uint32",
          "name": "amount",
          "type": "uint32"
        }
      ],
      "name": "wrap",
      "outputs": [],
      "stateMutability": "nonpayable",
      "type": "function"
    }
  ],
  "transactionHash": "0x518a2fadbbfe0777187b4046beeda35f415db72318656bab79fde6d99243c3da",
  "args": [
    {
      "data": {
        "0": 16,
        "1": 8,
        "2": 0,
        "3": 0,
        "4": 0,
        "5": 0,
        "6": 0,
        "7": 0,
        "8": 199,
        "9": 131,
        "10": 205,
        "11": 219,
        "12": 151,
        "13": 79,
        "14": 2,
        "15": 204,
        "16": 239,
        "17": 53,
        "18": 227,
        "19": 64,
        "20": 132,
        "21": 79,
        "22": 29,
        "23": 137,
        "24": 89,
        "25": 33,
        "26": 15,
        "27": 67,
        "28": 138,
        "29": 166,
        "30": 223,
        "31": 84,
        "32": 109,
        "33": 102,
        "34": 129,
        "35": 194,
        "36": 97,
        "37": 68,
        "38": 171,
        "39": 48,
        "40": 228,
        "41": 201,
        "42": 52,
        "43": 244,
        "44": 238,
        "45": 71,
        "46": 120,
        "47": 204,
        "48": 59,
        "49": 64,
        "50": 134,
        "51": 179,
        "52": 183,
        "53": 178,
        "54": 175,
        "55": 18,
        "56": 78,
        "57": 247,
        "58": 147,
        "59": 178,
        "60": 95,
        "61": 92,
        "62": 73,
        "63": 179,
        "64": 171,
        "65": 176,
        "66": 15,
        "67": 174,
        "68": 97,
        "69": 183,
        "70": 221,
        "71": 135,
        "72": 175,
        "73": 179,
        "74": 32,
        "75": 190,
        "76": 196,
        "77": 89,
        "78": 16,
        "79": 46,
        "80": 63,
        "81": 113,
        "82": 122,
        "83": 191,
        "84": 13,
        "85": 124,
        "86": 183,
        "87": 100,
        "88": 85,
        "89": 214,
        "90": 197,
        "91": 11,
        "92": 101,
        "93": 153,
        "94": 168,
        "95": 162,
        "96": 215,
        "97": 238,
        "98": 152,
        "99": 133,
        "100": 207,
        "101": 154,
        "102": 64,
        "103": 88,
        "104": 153,
        "105": 62,
        "106": 211,
        "107": 107,
        "108": 145,
        "109": 240,
        "110": 236,
        "111": 142,
        "112": 250,
        "113": 10,
        "114": 230,
        "115": 221,
        "116": 54,
        "117": 189,
        "118": 133,
        "119": 172,
        "120": 140,
        "121": 57,
        "122": 39,
        "123": 72,
        "124": 207,
        "125": 229,
        "126": 50,
        "127": 238,
        "128": 228,
        "129": 147,
        "130": 138,
        "131": 9,
        "132": 82,
        "133": 103,
        "134": 243,
        "135": 53,
        "136": 214,
        "137": 144,
        "138": 137,
        "139": 4,
        "140": 42,
        "141": 118,
        "142": 149,
        "143": 169,
        "144": 50,
        "145": 104,
        "146": 39,
        "147": 71,
        "148": 129,
        "149": 185,
        "150": 153,
        "151": 191,
        "152": 233,
        "153": 191,
        "154": 112,
        "155": 88,
        "156": 11,
        "157": 171,
        "158": 0,
        "159": 102,
        "160": 180,
        "161": 37,
        "162": 114,
        "163": 81,
        "164": 248,
        "165": 11,
        "166": 113,
        "167": 138,
        "168": 191,
        "169": 28,
        "170": 185,
        "171": 27,
        "172": 153,
        "173": 142,
        "174": 117,
        "175": 237,
        "176": 94,
        "177": 120,
        "178": 104,
        "179": 232,
        "180": 38,
        "181": 92,
        "182": 197,
        "183": 219,
        "184": 142,
        "185": 45,
        "186": 139,
        "187": 78,
        "188": 61,
        "189": 99,
        "190": 190,
        "191": 45,
        "192": 167,
        "193": 1,
        "194": 46,
        "195": 97,
        "196": 178,
        "197": 136,
        "198": 80,
        "199": 21,
        "200": 177,
        "201": 101,
        "202": 207,
        "203": 137,
        "204": 120,
        "205": 136,
        "206": 120,
        "207": 44,
        "208": 142,
        "209": 40,
        "210": 114,
        "211": 95,
        "212": 197,
        "213": 227,
        "214": 19,
        "215": 120,
        "216": 14,
        "217": 8,
        "218": 154,
        "219": 122,
        "220": 216,
        "221": 151,
        "222": 130,
        "223": 66,
        "224": 241,
        "225": 60,
        "226": 212,
        "227": 88,
        "228": 199,
        "229": 196,
        "230": 42,
        "231": 171,
        "232": 40,
        "233": 206,
        "234": 236,
        "235": 111,
        "236": 9,
        "237": 46,
        "238": 243,
        "239": 231,
        "240": 19,
        "241": 251,
        "242": 109,
        "243": 40,
        "244": 15,
        "245": 214,
        "246": 150,
        "247": 195,
        "248": 205,
        "249": 189,
        "250": 255,
        "251": 36,
        "252": 213,
        "253": 255,
        "254": 96,
        "255": 150,
        "256": 204,
        "257": 24,
        "258": 226,
        "259": 14,
        "260": 109,
        "261": 161,
        "262": 151,
        "263": 120,
        "264": 155,
        "265": 246,
        "266": 220,
        "267": 16,
        "268": 236,
        "269": 129,
        "270": 125,
        "271": 104,
        "272": 64,
        "273": 74,
        "274": 211,
        "275": 219,
        "276": 6,
        "277": 54,
        "278": 159,
        "279": 55,
        "280": 122,
        "281": 127,
        "282": 85,
        "283": 62,
        "284": 103,
        "285": 250,
        "286": 184,
        "287": 218,
        "288": 234,
        "289": 48,
        "290": 189,
        "291": 49,
        "292": 43,
        "293": 16,
        "294": 248,
        "295": 22,
        "296": 156,
        "297": 36,
        "298": 50,
        "299": 135,
        "300": 219,
        "301": 165,
        "302": 68,
        "303": 209,
        "304": 51,
        "305": 140,
        "306": 196,
        "307": 114,
        "308": 78,
        "309": 133,
        "310": 162,
        "311": 51,
        "312": 126,
        "313": 164,
        "314": 148,
        "315": 163,
        "316": 253,
        "317": 102,
        "318": 139,
        "319": 139,
        "320": 75,
        "321": 103,
        "322": 18,
        "323": 249,
        "324": 130,
        "325": 20,
        "326": 24,
        "327": 213,
        "328": 211,
        "329": 116,
        "330": 25,
        "331": 69,
        "332": 171,
        "333": 249,
        "334": 92,
        "335": 198,
        "336": 219,
        "337": 243,
        "338": 227,
        "339": 223,
        "340": 120,
        "341": 192,
        "342": 191,
        "343": 107,
        "344": 226,
        "345": 238,
        "346": 59,
        "347": 72,
        "348": 182,
        "349": 254,
        "350": 120,
        "351": 129,
        "352": 243,
        "353": 42,
        "354": 251,
        "355": 80,
        "356": 224,
        "357": 224,
        "358": 115,
        "359": 81,
        "360": 243,
        "361": 130,
        "362": 34,
        "363": 237,
        "364": 229,
        "365": 220,
        "366": 135,
        "367": 250,
        "368": 27,
        "369": 212,
        "370": 166,
        "371": 55,
        "372": 107,
        "373": 225,
        "374": 172,
        "375": 59,
        "376": 221,
        "377": 210,
        "378": 218,
        "379": 208,
        "380": 23,
        "381": 153,
        "382": 95,
        "383": 82,
        "384": 197,
        "385": 218,
        "386": 61,
        "387": 190,
        "388": 63,
        "389": 35,
        "390": 197,
        "391": 126,
        "392": 227,
        "393": 225,
        "394": 122,
        "395": 190,
        "396": 199,
        "397": 71,
        "398": 138,
        "399": 161,
        "400": 193,
        "401": 183,
        "402": 156,
        "403": 225,
        "404": 160,
        "405": 100,
        "406": 142,
        "407": 138,
        "408": 19,
        "409": 209,
        "410": 213,
        "411": 29,
        "412": 96,
        "413": 162,
        "414": 233,
        "415": 160,
        "416": 244,
        "417": 37,
        "418": 214,
        "419": 79,
        "420": 164,
        "421": 32,
        "422": 80,
        "423": 37,
        "424": 136,
        "425": 81,
        "426": 197,
        "427": 135,
        "428": 61,
        "429": 142,
        "430": 157,
        "431": 116,
        "432": 27,
        "433": 96,
        "434": 235,
        "435": 125,
        "436": 176,
        "437": 165,
        "438": 8,
        "439": 5,
        "440": 48,
        "441": 229,
        "442": 216,
        "443": 49,
        "444": 59,
        "445": 151,
        "446": 159,
        "447": 126,
        "448": 125,
        "449": 51,
        "450": 144,
        "451": 141,
        "452": 68,
        "453": 96,
        "454": 197,
        "455": 167,
        "456": 94,
        "457": 114,
        "458": 68,
        "459": 204,
        "460": 145,
        "461": 131,
        "462": 137,
        "463": 158,
        "464": 103,
        "465": 120,
        "466": 129,
        "467": 53,
        "468": 178,
        "469": 233,
        "470": 36,
        "471": 164,
        "472": 252,
        "473": 225,
        "474": 117,
        "475": 30,
        "476": 165,
        "477": 203,
        "478": 121,
        "479": 162,
        "480": 223,
        "481": 58,
        "482": 175,
        "483": 65,
        "484": 38,
        "485": 90,
        "486": 198,
        "487": 113,
        "488": 185,
        "489": 37,
        "490": 29,
        "491": 249,
        "492": 46,
        "493": 107,
        "494": 241,
        "495": 101,
        "496": 77,
        "497": 23,
        "498": 235,
        "499": 244,
        "500": 154,
        "501": 103,
        "502": 76,
        "503": 152,
        "504": 238,
        "505": 117,
        "506": 147,
        "507": 246,
        "508": 248,
        "509": 60,
        "510": 218,
        "511": 48,
        "512": 117,
        "513": 241,
        "514": 123,
        "515": 83,
        "516": 236,
        "517": 108,
        "518": 134,
        "519": 237,
        "520": 13,
        "521": 0,
        "522": 81,
        "523": 45,
        "524": 184,
        "525": 235,
        "526": 253,
        "527": 18,
        "528": 244,
        "529": 230,
        "530": 125,
        "531": 93,
        "532": 28,
        "533": 23,
        "534": 9,
        "535": 62,
        "536": 177,
        "537": 26,
        "538": 33,
        "539": 220,
        "540": 126,
        "541": 53,
        "542": 119,
        "543": 128,
        "544": 150,
        "545": 180,
        "546": 163,
        "547": 52,
        "548": 206,
        "549": 10,
        "550": 163,
        "551": 225,
        "552": 163,
        "553": 207,
        "554": 254,
        "555": 40,
        "556": 132,
        "557": 71,
        "558": 178,
        "559": 48,
        "560": 45,
        "561": 240,
        "562": 228,
        "563": 248,
        "564": 184,
        "565": 70,
        "566": 82,
        "567": 151,
        "568": 224,
        "569": 173,
        "570": 223,
        "571": 14,
        "572": 19,
        "573": 158,
        "574": 230,
        "575": 164,
        "576": 215,
        "577": 72,
        "578": 41,
        "579": 201,
        "580": 65,
        "581": 218,
        "582": 30,
        "583": 17,
        "584": 87,
        "585": 143,
        "586": 181,
        "587": 202,
        "588": 69,
        "589": 215,
        "590": 128,
        "591": 109,
        "592": 161,
        "593": 12,
        "594": 8,
        "595": 67,
        "596": 136,
        "597": 227,
        "598": 105,
        "599": 193,
        "600": 247,
        "601": 255,
        "602": 176,
        "603": 110,
        "604": 87,
        "605": 65,
        "606": 238,
        "607": 119,
        "608": 113,
        "609": 135,
        "610": 17,
        "611": 175,
        "612": 154,
        "613": 218,
        "614": 199,
        "615": 188,
        "616": 244,
        "617": 93,
        "618": 27,
        "619": 226,
        "620": 241,
        "621": 21,
        "622": 102,
        "623": 2,
        "624": 93,
        "625": 183,
        "626": 148,
        "627": 85,
        "628": 247,
        "629": 238,
        "630": 152,
        "631": 126,
        "632": 102,
        "633": 16,
        "634": 201,
        "635": 118,
        "636": 176,
        "637": 231,
        "638": 19,
        "639": 207,
        "640": 242,
        "641": 177,
        "642": 218,
        "643": 213,
        "644": 61,
        "645": 21,
        "646": 124,
        "647": 40,
        "648": 204,
        "649": 43,
        "650": 126,
        "651": 7,
        "652": 134,
        "653": 92,
        "654": 148,
        "655": 14,
        "656": 115,
        "657": 196,
        "658": 85,
        "659": 19,
        "660": 42,
        "661": 73,
        "662": 37,
        "663": 182,
        "664": 130,
        "665": 3,
        "666": 204,
        "667": 163,
        "668": 68,
        "669": 186,
        "670": 241,
        "671": 96,
        "672": 115,
        "673": 91,
        "674": 238,
        "675": 202,
        "676": 126,
        "677": 12,
        "678": 58,
        "679": 234,
        "680": 244,
        "681": 45,
        "682": 235,
        "683": 119,
        "684": 10,
        "685": 13,
        "686": 4,
        "687": 211,
        "688": 13,
        "689": 218,
        "690": 183,
        "691": 44,
        "692": 190,
        "693": 225,
        "694": 67,
        "695": 196,
        "696": 124,
        "697": 181,
        "698": 154,
        "699": 158,
        "700": 185,
        "701": 27,
        "702": 103,
        "703": 94,
        "704": 165,
        "705": 148,
        "706": 81,
        "707": 160,
        "708": 203,
        "709": 213,
        "710": 53,
        "711": 101,
        "712": 234,
        "713": 215,
        "714": 187,
        "715": 73,
        "716": 67,
        "717": 56,
        "718": 109,
        "719": 168,
        "720": 83,
        "721": 44,
        "722": 2,
        "723": 202,
        "724": 229,
        "725": 140,
        "726": 237,
        "727": 179,
        "728": 202,
        "729": 162,
        "730": 119,
        "731": 86,
        "732": 151,
        "733": 223,
        "734": 58,
        "735": 26,
        "736": 84,
        "737": 99,
        "738": 246,
        "739": 52,
        "740": 114,
        "741": 4,
        "742": 92,
        "743": 142,
        "744": 129,
        "745": 206,
        "746": 56,
        "747": 8,
        "748": 88,
        "749": 148,
        "750": 150,
        "751": 64,
        "752": 115,
        "753": 50,
        "754": 116,
        "755": 158,
        "756": 55,
        "757": 217,
        "758": 255,
        "759": 251,
        "760": 79,
        "761": 85,
        "762": 210,
        "763": 178,
        "764": 168,
        "765": 56,
        "766": 214,
        "767": 149,
        "768": 154,
        "769": 167,
        "770": 175,
        "771": 57,
        "772": 192,
        "773": 183,
        "774": 113,
        "775": 185,
        "776": 97,
        "777": 24,
        "778": 60,
        "779": 173,
        "780": 201,
        "781": 112,
        "782": 233,
        "783": 107,
        "784": 224,
        "785": 15,
        "786": 159,
        "787": 34,
        "788": 42,
        "789": 97,
        "790": 103,
        "791": 24,
        "792": 148,
        "793": 231,
        "794": 31,
        "795": 57,
        "796": 58,
        "797": 91,
        "798": 61,
        "799": 160,
        "800": 252,
        "801": 164,
        "802": 172,
        "803": 43,
        "804": 227,
        "805": 74,
        "806": 161,
        "807": 217,
        "808": 112,
        "809": 74,
        "810": 198,
        "811": 186,
        "812": 193,
        "813": 214,
        "814": 34,
        "815": 202,
        "816": 204,
        "817": 133,
        "818": 50,
        "819": 17,
        "820": 63,
        "821": 111,
        "822": 73,
        "823": 218,
        "824": 29,
        "825": 111,
        "826": 52,
        "827": 88,
        "828": 23,
        "829": 198,
        "830": 152,
        "831": 122,
        "832": 63,
        "833": 229,
        "834": 130,
        "835": 244,
        "836": 187,
        "837": 122,
        "838": 228,
        "839": 210,
        "840": 76,
        "841": 120,
        "842": 144,
        "843": 39,
        "844": 185,
        "845": 168,
        "846": 239,
        "847": 247,
        "848": 239,
        "849": 23,
        "850": 108,
        "851": 236,
        "852": 50,
        "853": 225,
        "854": 69,
        "855": 192,
        "856": 31,
        "857": 20,
        "858": 234,
        "859": 98,
        "860": 64,
        "861": 99,
        "862": 205,
        "863": 70,
        "864": 192,
        "865": 177,
        "866": 60,
        "867": 173,
        "868": 159,
        "869": 91,
        "870": 37,
        "871": 102,
        "872": 89,
        "873": 24,
        "874": 5,
        "875": 14,
        "876": 184,
        "877": 7,
        "878": 213,
        "879": 72,
        "880": 215,
        "881": 85,
        "882": 13,
        "883": 60,
        "884": 74,
        "885": 251,
        "886": 64,
        "887": 168,
        "888": 116,
        "889": 16,
        "890": 94,
        "891": 225,
        "892": 219,
        "893": 43,
        "894": 80,
        "895": 110,
        "896": 213,
        "897": 124,
        "898": 212,
        "899": 85,
        "900": 111,
        "901": 186,
        "902": 190,
        "903": 8,
        "904": 243,
        "905": 191,
        "906": 154,
        "907": 97,
        "908": 157,
        "909": 103,
        "910": 170,
        "911": 57,
        "912": 137,
        "913": 105,
        "914": 161,
        "915": 39,
        "916": 146,
        "917": 68,
        "918": 103,
        "919": 78,
        "920": 39,
        "921": 242,
        "922": 190,
        "923": 244,
        "924": 25,
        "925": 30,
        "926": 12,
        "927": 46,
        "928": 242,
        "929": 143,
        "930": 255,
        "931": 109,
        "932": 13,
        "933": 178,
        "934": 76,
        "935": 93,
        "936": 163,
        "937": 168,
        "938": 255,
        "939": 210,
        "940": 154,
        "941": 10,
        "942": 153,
        "943": 73,
        "944": 151,
        "945": 156,
        "946": 34,
        "947": 55,
        "948": 226,
        "949": 216,
        "950": 87,
        "951": 92,
        "952": 181,
        "953": 17,
        "954": 19,
        "955": 23,
        "956": 19,
        "957": 166,
        "958": 39,
        "959": 6,
        "960": 208,
        "961": 218,
        "962": 245,
        "963": 9,
        "964": 67,
        "965": 121,
        "966": 37,
        "967": 190,
        "968": 82,
        "969": 6,
        "970": 227,
        "971": 183,
        "972": 54,
        "973": 31,
        "974": 100,
        "975": 66,
        "976": 56,
        "977": 97,
        "978": 171,
        "979": 157,
        "980": 224,
        "981": 30,
        "982": 38,
        "983": 174,
        "984": 224,
        "985": 81,
        "986": 34,
        "987": 80,
        "988": 50,
        "989": 110,
        "990": 159,
        "991": 203,
        "992": 212,
        "993": 209,
        "994": 170,
        "995": 10,
        "996": 181,
        "997": 71,
        "998": 60,
        "999": 129,
        "1000": 87,
        "1001": 179,
        "1002": 43,
        "1003": 51,
        "1004": 80,
        "1005": 13,
        "1006": 193,
        "1007": 201,
        "1008": 104,
        "1009": 194,
        "1010": 11,
        "1011": 223,
        "1012": 130,
        "1013": 49,
        "1014": 231,
        "1015": 48,
        "1016": 190,
        "1017": 179,
        "1018": 36,
        "1019": 21,
        "1020": 195,
        "1021": 250,
        "1022": 67,
        "1023": 243,
        "1024": 124,
        "1025": 44,
        "1026": 246,
        "1027": 46,
        "1028": 65,
        "1029": 47,
        "1030": 157,
        "1031": 195,
        "1032": 178,
        "1033": 113,
        "1034": 211,
        "1035": 29,
        "1036": 154,
        "1037": 145,
        "1038": 205,
        "1039": 96,
        "1040": 87,
        "1041": 43,
        "1042": 222,
        "1043": 21,
        "1044": 227,
        "1045": 222,
        "1046": 189,
        "1047": 0,
        "1048": 244,
        "1049": 159,
        "1050": 164,
        "1051": 71,
        "1052": 157,
        "1053": 125,
        "1054": 188,
        "1055": 3,
        "1056": 242,
        "1057": 49,
        "1058": 118,
        "1059": 149,
        "1060": 177,
        "1061": 72,
        "1062": 156,
        "1063": 8,
        "1064": 124,
        "1065": 129,
        "1066": 212,
        "1067": 8,
        "1068": 62,
        "1069": 71,
        "1070": 200,
        "1071": 65,
        "1072": 42,
        "1073": 133,
        "1074": 255,
        "1075": 240,
        "1076": 195,
        "1077": 192,
        "1078": 184,
        "1079": 210,
        "1080": 67,
        "1081": 62,
        "1082": 14,
        "1083": 122,
        "1084": 65,
        "1085": 250,
        "1086": 234,
        "1087": 78,
        "1088": 231,
        "1089": 124,
        "1090": 13,
        "1091": 138,
        "1092": 212,
        "1093": 29,
        "1094": 211,
        "1095": 0,
        "1096": 218,
        "1097": 103,
        "1098": 99,
        "1099": 248,
        "1100": 52,
        "1101": 193,
        "1102": 41,
        "1103": 237,
        "1104": 25,
        "1105": 1,
        "1106": 73,
        "1107": 60,
        "1108": 35,
        "1109": 177,
        "1110": 89,
        "1111": 101,
        "1112": 168,
        "1113": 67,
        "1114": 253,
        "1115": 163,
        "1116": 162,
        "1117": 66,
        "1118": 37,
        "1119": 237,
        "1120": 141,
        "1121": 243,
        "1122": 182,
        "1123": 170,
        "1124": 14,
        "1125": 195,
        "1126": 0,
        "1127": 79,
        "1128": 52,
        "1129": 51,
        "1130": 155,
        "1131": 37,
        "1132": 60,
        "1133": 204,
        "1134": 169,
        "1135": 38,
        "1136": 80,
        "1137": 31,
        "1138": 85,
        "1139": 131,
        "1140": 11,
        "1141": 59,
        "1142": 128,
        "1143": 72,
        "1144": 39,
        "1145": 248,
        "1146": 12,
        "1147": 206,
        "1148": 246,
        "1149": 67,
        "1150": 212,
        "1151": 155,
        "1152": 54,
        "1153": 21,
        "1154": 174,
        "1155": 67,
        "1156": 124,
        "1157": 59,
        "1158": 101,
        "1159": 176,
        "1160": 108,
        "1161": 16,
        "1162": 41,
        "1163": 195,
        "1164": 225,
        "1165": 176,
        "1166": 176,
        "1167": 88,
        "1168": 152,
        "1169": 157,
        "1170": 153,
        "1171": 56,
        "1172": 85,
        "1173": 152,
        "1174": 197,
        "1175": 107,
        "1176": 195,
        "1177": 185,
        "1178": 152,
        "1179": 218,
        "1180": 234,
        "1181": 144,
        "1182": 227,
        "1183": 36,
        "1184": 16,
        "1185": 138,
        "1186": 6,
        "1187": 8,
        "1188": 0,
        "1189": 122,
        "1190": 184,
        "1191": 61,
        "1192": 63,
        "1193": 40,
        "1194": 2,
        "1195": 80,
        "1196": 201,
        "1197": 72,
        "1198": 147,
        "1199": 28,
        "1200": 190,
        "1201": 58,
        "1202": 130,
        "1203": 198,
        "1204": 58,
        "1205": 18,
        "1206": 208,
        "1207": 230,
        "1208": 10,
        "1209": 67,
        "1210": 142,
        "1211": 142,
        "1212": 10,
        "1213": 35,
        "1214": 180,
        "1215": 66,
        "1216": 147,
        "1217": 173,
        "1218": 187,
        "1219": 33,
        "1220": 182,
        "1221": 199,
        "1222": 178,
        "1223": 22,
        "1224": 223,
        "1225": 34,
        "1226": 34,
        "1227": 115,
        "1228": 255,
        "1229": 116,
        "1230": 102,
        "1231": 84,
        "1232": 165,
        "1233": 41,
        "1234": 3,
        "1235": 220,
        "1236": 62,
        "1237": 253,
        "1238": 49,
        "1239": 68,
        "1240": 103,
        "1241": 120,
        "1242": 249,
        "1243": 90,
        "1244": 215,
        "1245": 82,
        "1246": 66,
        "1247": 182,
        "1248": 14,
        "1249": 166,
        "1250": 38,
        "1251": 219,
        "1252": 248,
        "1253": 165,
        "1254": 185,
        "1255": 127,
        "1256": 34,
        "1257": 163,
        "1258": 211,
        "1259": 158,
        "1260": 182,
        "1261": 250,
        "1262": 223,
        "1263": 210,
        "1264": 125,
        "1265": 205,
        "1266": 128,
        "1267": 81,
        "1268": 2,
        "1269": 71,
        "1270": 13,
        "1271": 64,
        "1272": 131,
        "1273": 239,
        "1274": 62,
        "1275": 109,
        "1276": 198,
        "1277": 171,
        "1278": 245,
        "1279": 24,
        "1280": 151,
        "1281": 220,
        "1282": 84,
        "1283": 66,
        "1284": 123,
        "1285": 54,
        "1286": 30,
        "1287": 34,
        "1288": 219,
        "1289": 106,
        "1290": 94,
        "1291": 134,
        "1292": 172,
        "1293": 217,
        "1294": 181,
        "1295": 141,
        "1296": 222,
        "1297": 6,
        "1298": 7,
        "1299": 4,
        "1300": 73,
        "1301": 123,
        "1302": 42,
        "1303": 237,
        "1304": 136,
        "1305": 242,
        "1306": 98,
        "1307": 168,
        "1308": 183,
        "1309": 63,
        "1310": 51,
        "1311": 221,
        "1312": 202,
        "1313": 105,
        "1314": 18,
        "1315": 124,
        "1316": 166,
        "1317": 190,
        "1318": 124,
        "1319": 12,
        "1320": 172,
        "1321": 113,
        "1322": 70,
        "1323": 133,
        "1324": 183,
        "1325": 10,
        "1326": 29,
        "1327": 11,
        "1328": 159,
        "1329": 189,
        "1330": 218,
        "1331": 126,
        "1332": 106,
        "1333": 145,
        "1334": 166,
        "1335": 65,
        "1336": 146,
        "1337": 28,
        "1338": 141,
        "1339": 124,
        "1340": 213,
        "1341": 225,
        "1342": 195,
        "1343": 16,
        "1344": 56,
        "1345": 159,
        "1346": 166,
        "1347": 143,
        "1348": 177,
        "1349": 252,
        "1350": 143,
        "1351": 123,
        "1352": 146,
        "1353": 71,
        "1354": 100,
        "1355": 13,
        "1356": 209,
        "1357": 158,
        "1358": 84,
        "1359": 215,
        "1360": 134,
        "1361": 40,
        "1362": 232,
        "1363": 48,
        "1364": 84,
        "1365": 121,
        "1366": 57,
        "1367": 181,
        "1368": 87,
        "1369": 64,
        "1370": 162,
        "1371": 19,
        "1372": 217,
        "1373": 171,
        "1374": 150,
        "1375": 52,
        "1376": 47,
        "1377": 153,
        "1378": 105,
        "1379": 83,
        "1380": 127,
        "1381": 31,
        "1382": 137,
        "1383": 69,
        "1384": 188,
        "1385": 124,
        "1386": 45,
        "1387": 116,
        "1388": 3,
        "1389": 72,
        "1390": 126,
        "1391": 77,
        "1392": 252,
        "1393": 31,
        "1394": 212,
        "1395": 234,
        "1396": 218,
        "1397": 98,
        "1398": 175,
        "1399": 203,
        "1400": 134,
        "1401": 100,
        "1402": 160,
        "1403": 138,
        "1404": 241,
        "1405": 151,
        "1406": 144,
        "1407": 25,
        "1408": 28,
        "1409": 82,
        "1410": 124,
        "1411": 30,
        "1412": 138,
        "1413": 217,
        "1414": 147,
        "1415": 62,
        "1416": 50,
        "1417": 58,
        "1418": 81,
        "1419": 114,
        "1420": 253,
        "1421": 45,
        "1422": 164,
        "1423": 165,
        "1424": 83,
        "1425": 233,
        "1426": 194,
        "1427": 133,
        "1428": 75,
        "1429": 187,
        "1430": 90,
        "1431": 146,
        "1432": 244,
        "1433": 11,
        "1434": 116,
        "1435": 122,
        "1436": 141,
        "1437": 145,
        "1438": 124,
        "1439": 115,
        "1440": 28,
        "1441": 194,
        "1442": 34,
        "1443": 109,
        "1444": 226,
        "1445": 17,
        "1446": 234,
        "1447": 197,
        "1448": 136,
        "1449": 127,
        "1450": 2,
        "1451": 28,
        "1452": 175,
        "1453": 230,
        "1454": 120,
        "1455": 100,
        "1456": 51,
        "1457": 78,
        "1458": 123,
        "1459": 158,
        "1460": 2,
        "1461": 221,
        "1462": 38,
        "1463": 122,
        "1464": 95,
        "1465": 30,
        "1466": 112,
        "1467": 191,
        "1468": 211,
        "1469": 107,
        "1470": 192,
        "1471": 71,
        "1472": 245,
        "1473": 43,
        "1474": 78,
        "1475": 51,
        "1476": 247,
        "1477": 56,
        "1478": 63,
        "1479": 229,
        "1480": 197,
        "1481": 128,
        "1482": 93,
        "1483": 134,
        "1484": 54,
        "1485": 111,
        "1486": 20,
        "1487": 152,
        "1488": 156,
        "1489": 75,
        "1490": 189,
        "1491": 45,
        "1492": 98,
        "1493": 87,
        "1494": 179,
        "1495": 168,
        "1496": 87,
        "1497": 217,
        "1498": 102,
        "1499": 110,
        "1500": 13,
        "1501": 227,
        "1502": 165,
        "1503": 200,
        "1504": 12,
        "1505": 234,
        "1506": 50,
        "1507": 9,
        "1508": 131,
        "1509": 24,
        "1510": 1,
        "1511": 78,
        "1512": 10,
        "1513": 151,
        "1514": 78,
        "1515": 116,
        "1516": 184,
        "1517": 10,
        "1518": 214,
        "1519": 55,
        "1520": 230,
        "1521": 27,
        "1522": 184,
        "1523": 249,
        "1524": 5,
        "1525": 1,
        "1526": 77,
        "1527": 239,
        "1528": 196,
        "1529": 154,
        "1530": 69,
        "1531": 201,
        "1532": 134,
        "1533": 94,
        "1534": 204,
        "1535": 199,
        "1536": 174,
        "1537": 217,
        "1538": 51,
        "1539": 208,
        "1540": 102,
        "1541": 115,
        "1542": 53,
        "1543": 157,
        "1544": 88,
        "1545": 70,
        "1546": 137,
        "1547": 14,
        "1548": 136,
        "1549": 197,
        "1550": 58,
        "1551": 83,
        "1552": 80,
        "1553": 242,
        "1554": 88,
        "1555": 154,
        "1556": 250,
        "1557": 36,
        "1558": 41,
        "1559": 87,
        "1560": 53,
        "1561": 16,
        "1562": 61,
        "1563": 33,
        "1564": 102,
        "1565": 166,
        "1566": 186,
        "1567": 223,
        "1568": 199,
        "1569": 212,
        "1570": 55,
        "1571": 155,
        "1572": 164,
        "1573": 36,
        "1574": 222,
        "1575": 215,
        "1576": 72,
        "1577": 12,
        "1578": 157,
        "1579": 149,
        "1580": 253,
        "1581": 152,
        "1582": 236,
        "1583": 250,
        "1584": 111,
        "1585": 169,
        "1586": 10,
        "1587": 176,
        "1588": 41,
        "1589": 135,
        "1590": 182,
        "1591": 11,
        "1592": 203,
        "1593": 104,
        "1594": 181,
        "1595": 107,
        "1596": 225,
        "1597": 9,
        "1598": 196,
        "1599": 235,
        "1600": 139,
        "1601": 78,
        "1602": 167,
        "1603": 136,
        "1604": 113,
        "1605": 0,
        "1606": 212,
        "1607": 57,
        "1608": 120,
        "1609": 116,
        "1610": 181,
        "1611": 240,
        "1612": 173,
        "1613": 72,
        "1614": 178,
        "1615": 84,
        "1616": 94,
        "1617": 178,
        "1618": 58,
        "1619": 39,
        "1620": 167,
        "1621": 191,
        "1622": 143,
        "1623": 245,
        "1624": 91,
        "1625": 153,
        "1626": 151,
        "1627": 155,
        "1628": 174,
        "1629": 5,
        "1630": 25,
        "1631": 254,
        "1632": 103,
        "1633": 111,
        "1634": 6,
        "1635": 200,
        "1636": 174,
        "1637": 220,
        "1638": 63,
        "1639": 146,
        "1640": 243,
        "1641": 196,
        "1642": 242,
        "1643": 240,
        "1644": 213,
        "1645": 12,
        "1646": 204,
        "1647": 229,
        "1648": 54,
        "1649": 211,
        "1650": 111,
        "1651": 160,
        "1652": 57,
        "1653": 187,
        "1654": 70,
        "1655": 126,
        "1656": 181,
        "1657": 242,
        "1658": 166,
        "1659": 28,
        "1660": 89,
        "1661": 216,
        "1662": 177,
        "1663": 147,
        "1664": 204,
        "1665": 212,
        "1666": 175,
        "1667": 216,
        "1668": 213,
        "1669": 41,
        "1670": 64,
        "1671": 162,
        "1672": 141,
        "1673": 3,
        "1674": 173,
        "1675": 127,
        "1676": 126,
        "1677": 236,
        "1678": 239,
        "1679": 177,
        "1680": 87,
        "1681": 190,
        "1682": 83,
        "1683": 26,
        "1684": 98,
        "1685": 180,
        "1686": 18,
        "1687": 249,
        "1688": 170,
        "1689": 173,
        "1690": 203,
        "1691": 235,
        "1692": 147,
        "1693": 10,
        "1694": 178,
        "1695": 4,
        "1696": 15,
        "1697": 204,
        "1698": 88,
        "1699": 115,
        "1700": 219,
        "1701": 228,
        "1702": 215,
        "1703": 226,
        "1704": 236,
        "1705": 12,
        "1706": 82,
        "1707": 11,
        "1708": 73,
        "1709": 41,
        "1710": 28,
        "1711": 190,
        "1712": 238,
        "1713": 152,
        "1714": 212,
        "1715": 38,
        "1716": 33,
        "1717": 201,
        "1718": 226,
        "1719": 175,
        "1720": 176,
        "1721": 85,
        "1722": 122,
        "1723": 32,
        "1724": 232,
        "1725": 40,
        "1726": 62,
        "1727": 61,
        "1728": 199,
        "1729": 239,
        "1730": 174,
        "1731": 125,
        "1732": 253,
        "1733": 18,
        "1734": 97,
        "1735": 22,
        "1736": 129,
        "1737": 19,
        "1738": 187,
        "1739": 30,
        "1740": 196,
        "1741": 169,
        "1742": 195,
        "1743": 254,
        "1744": 192,
        "1745": 132,
        "1746": 149,
        "1747": 75,
        "1748": 122,
        "1749": 196,
        "1750": 182,
        "1751": 138,
        "1752": 254,
        "1753": 32,
        "1754": 213,
        "1755": 85,
        "1756": 184,
        "1757": 66,
        "1758": 248,
        "1759": 249,
        "1760": 192,
        "1761": 34,
        "1762": 221,
        "1763": 185,
        "1764": 218,
        "1765": 114,
        "1766": 240,
        "1767": 96,
        "1768": 178,
        "1769": 75,
        "1770": 81,
        "1771": 99,
        "1772": 111,
        "1773": 240,
        "1774": 165,
        "1775": 163,
        "1776": 132,
        "1777": 6,
        "1778": 126,
        "1779": 13,
        "1780": 238,
        "1781": 135,
        "1782": 148,
        "1783": 3,
        "1784": 233,
        "1785": 125,
        "1786": 23,
        "1787": 172,
        "1788": 255,
        "1789": 71,
        "1790": 111,
        "1791": 246,
        "1792": 209,
        "1793": 55,
        "1794": 31,
        "1795": 168,
        "1796": 75,
        "1797": 167,
        "1798": 105,
        "1799": 177,
        "1800": 201,
        "1801": 249,
        "1802": 215,
        "1803": 38,
        "1804": 75,
        "1805": 246,
        "1806": 71,
        "1807": 148,
        "1808": 245,
        "1809": 182,
        "1810": 136,
        "1811": 120,
        "1812": 144,
        "1813": 117,
        "1814": 20,
        "1815": 67,
        "1816": 145,
        "1817": 64,
        "1818": 50,
        "1819": 245,
        "1820": 223,
        "1821": 207,
        "1822": 148,
        "1823": 185,
        "1824": 43,
        "1825": 183,
        "1826": 146,
        "1827": 166,
        "1828": 91,
        "1829": 106,
        "1830": 36,
        "1831": 23,
        "1832": 116,
        "1833": 159,
        "1834": 137,
        "1835": 224,
        "1836": 101,
        "1837": 252,
        "1838": 32,
        "1839": 27,
        "1840": 151,
        "1841": 84,
        "1842": 103,
        "1843": 192,
        "1844": 185,
        "1845": 96,
        "1846": 106,
        "1847": 244,
        "1848": 165,
        "1849": 129,
        "1850": 68,
        "1851": 209,
        "1852": 225,
        "1853": 133,
        "1854": 142,
        "1855": 26,
        "1856": 122,
        "1857": 128,
        "1858": 179,
        "1859": 12,
        "1860": 115,
        "1861": 239,
        "1862": 251,
        "1863": 21,
        "1864": 29,
        "1865": 42,
        "1866": 28,
        "1867": 50,
        "1868": 74,
        "1869": 45,
        "1870": 75,
        "1871": 167,
        "1872": 108,
        "1873": 3,
        "1874": 82,
        "1875": 102,
        "1876": 58,
        "1877": 196,
        "1878": 226,
        "1879": 81,
        "1880": 32,
        "1881": 61,
        "1882": 69,
        "1883": 93,
        "1884": 59,
        "1885": 43,
        "1886": 21,
        "1887": 110,
        "1888": 157,
        "1889": 209,
        "1890": 48,
        "1891": 221,
        "1892": 133,
        "1893": 208,
        "1894": 93,
        "1895": 124,
        "1896": 108,
        "1897": 164,
        "1898": 172,
        "1899": 207,
        "1900": 154,
        "1901": 43,
        "1902": 127,
        "1903": 84,
        "1904": 120,
        "1905": 203,
        "1906": 81,
        "1907": 148,
        "1908": 159,
        "1909": 181,
        "1910": 171,
        "1911": 91,
        "1912": 27,
        "1913": 73,
        "1914": 17,
        "1915": 115,
        "1916": 84,
        "1917": 83,
        "1918": 94,
        "1919": 255,
        "1920": 190,
        "1921": 145,
        "1922": 162,
        "1923": 190,
        "1924": 250,
        "1925": 32,
        "1926": 74,
        "1927": 199,
        "1928": 187,
        "1929": 159,
        "1930": 154,
        "1931": 232,
        "1932": 27,
        "1933": 245,
        "1934": 25,
        "1935": 22,
        "1936": 23,
        "1937": 144,
        "1938": 70,
        "1939": 3,
        "1940": 226,
        "1941": 10,
        "1942": 126,
        "1943": 72,
        "1944": 138,
        "1945": 107,
        "1946": 220,
        "1947": 194,
        "1948": 60,
        "1949": 158,
        "1950": 46,
        "1951": 48,
        "1952": 230,
        "1953": 108,
        "1954": 48,
        "1955": 21,
        "1956": 197,
        "1957": 168,
        "1958": 8,
        "1959": 8,
        "1960": 94,
        "1961": 87,
        "1962": 47,
        "1963": 127,
        "1964": 107,
        "1965": 130,
        "1966": 47,
        "1967": 51,
        "1968": 74,
        "1969": 183,
        "1970": 9,
        "1971": 195,
        "1972": 14,
        "1973": 172,
        "1974": 171,
        "1975": 130,
        "1976": 199,
        "1977": 187,
        "1978": 50,
        "1979": 66,
        "1980": 251,
        "1981": 125,
        "1982": 215,
        "1983": 90,
        "1984": 1,
        "1985": 167,
        "1986": 2,
        "1987": 98,
        "1988": 115,
        "1989": 228,
        "1990": 41,
        "1991": 83,
        "1992": 179,
        "1993": 18,
        "1994": 212,
        "1995": 158,
        "1996": 128,
        "1997": 5,
        "1998": 20,
        "1999": 171,
        "2000": 62,
        "2001": 62,
        "2002": 170,
        "2003": 145,
        "2004": 100,
        "2005": 250,
        "2006": 51,
        "2007": 204,
        "2008": 102,
        "2009": 255,
        "2010": 156,
        "2011": 186,
        "2012": 19,
        "2013": 3,
        "2014": 63,
        "2015": 77,
        "2016": 222,
        "2017": 24,
        "2018": 152,
        "2019": 58,
        "2020": 140,
        "2021": 191,
        "2022": 213,
        "2023": 49,
        "2024": 70,
        "2025": 169,
        "2026": 23,
        "2027": 103,
        "2028": 15,
        "2029": 155,
        "2030": 35,
        "2031": 21,
        "2032": 201,
        "2033": 66,
        "2034": 55,
        "2035": 10,
        "2036": 222,
        "2037": 231,
        "2038": 96,
        "2039": 166,
        "2040": 99,
        "2041": 224,
        "2042": 25,
        "2043": 206,
        "2044": 79,
        "2045": 178,
        "2046": 151,
        "2047": 99,
        "2048": 133,
        "2049": 109,
        "2050": 154,
        "2051": 89,
        "2052": 221,
        "2053": 199,
        "2054": 164,
        "2055": 91,
        "2056": 149,
        "2057": 226,
        "2058": 211,
        "2059": 190,
        "2060": 141,
        "2061": 13,
        "2062": 166,
        "2063": 38,
        "2064": 117,
        "2065": 17,
        "2066": 241,
        "2067": 247,
        "2068": 125,
        "2069": 68,
        "2070": 185,
        "2071": 230,
        "2072": 50,
        "2073": 36,
        "2074": 28,
        "2075": 80,
        "2076": 138,
        "2077": 74,
        "2078": 253,
        "2079": 194,
        "2080": 195,
        "2081": 17,
        "2082": 143,
        "2083": 184,
        "2084": 103,
        "2085": 6,
        "2086": 130,
        "2087": 48,
        "2088": 229,
        "2089": 123,
        "2090": 175,
        "2091": 224,
        "2092": 144,
        "2093": 158,
        "2094": 226,
        "2095": 224,
        "2096": 197,
        "2097": 83,
        "2098": 116,
        "2099": 202,
        "2100": 178,
        "2101": 54,
        "2102": 173,
        "2103": 64,
        "2104": 143,
        "2105": 76,
        "2106": 149,
        "2107": 246,
        "2108": 23,
        "2109": 20,
        "2110": 51,
        "2111": 134,
        "2112": 213,
        "2113": 254,
        "2114": 177,
        "2115": 243,
        "2116": 249,
        "2117": 38,
        "2118": 19,
        "2119": 108,
        "2120": 197,
        "2121": 206,
        "2122": 149,
        "2123": 104,
        "2124": 111,
        "2125": 178,
        "2126": 15,
        "2127": 159,
        "2128": 97,
        "2129": 171,
        "2130": 226,
        "2131": 167,
        "2132": 33,
        "2133": 52,
        "2134": 81,
        "2135": 123,
        "2136": 3,
        "2137": 2,
        "2138": 100,
        "2139": 59,
        "2140": 50,
        "2141": 173,
        "2142": 145,
        "2143": 206,
        "2144": 185,
        "2145": 222,
        "2146": 150,
        "2147": 246,
        "2148": 7,
        "2149": 211,
        "2150": 167,
        "2151": 237,
        "2152": 190,
        "2153": 117,
        "2154": 23,
        "2155": 77,
        "2156": 189,
        "2157": 27,
        "2158": 124,
        "2159": 37,
        "2160": 154,
        "2161": 33,
        "2162": 9,
        "2163": 0,
        "2164": 84,
        "2165": 146,
        "2166": 10,
        "2167": 13,
        "2168": 73,
        "2169": 183,
        "2170": 234,
        "2171": 26,
        "2172": 60,
        "2173": 62,
        "2174": 79,
        "2175": 229,
        "2176": 245,
        "2177": 101,
        "2178": 209,
        "2179": 107,
        "2180": 199,
        "2181": 115,
        "2182": 16,
        "2183": 116,
        "2184": 18,
        "2185": 1,
        "2186": 124,
        "2187": 110,
        "2188": 200,
        "2189": 160,
        "2190": 218,
        "2191": 63,
        "2192": 187,
        "2193": 88,
        "2194": 178,
        "2195": 114,
        "2196": 210,
        "2197": 209,
        "2198": 120,
        "2199": 214,
        "2200": 34,
        "2201": 223,
        "2202": 170,
        "2203": 76,
        "2204": 175,
        "2205": 197,
        "2206": 177,
        "2207": 152,
        "2208": 244,
        "2209": 91,
        "2210": 166,
        "2211": 28,
        "2212": 205,
        "2213": 130,
        "2214": 70,
        "2215": 142,
        "2216": 157,
        "2217": 59,
        "2218": 200,
        "2219": 107,
        "2220": 89,
        "2221": 149,
        "2222": 62,
        "2223": 46,
        "2224": 109,
        "2225": 81,
        "2226": 36,
        "2227": 174,
        "2228": 122,
        "2229": 240,
        "2230": 230,
        "2231": 172,
        "2232": 130,
        "2233": 255,
        "2234": 250,
        "2235": 10,
        "2236": 35,
        "2237": 79,
        "2238": 69,
        "2239": 101,
        "2240": 7,
        "2241": 0,
        "2242": 241,
        "2243": 140,
        "2244": 230,
        "2245": 91,
        "2246": 234,
        "2247": 61,
        "2248": 22,
        "2249": 211,
        "2250": 7,
        "2251": 30,
        "2252": 133,
        "2253": 147,
        "2254": 206,
        "2255": 32,
        "2256": 5,
        "2257": 132,
        "2258": 100,
        "2259": 250,
        "2260": 238,
        "2261": 216,
        "2262": 169,
        "2263": 152,
        "2264": 149,
        "2265": 97,
        "2266": 244,
        "2267": 144,
        "2268": 35,
        "2269": 193,
        "2270": 46,
        "2271": 81,
        "2272": 14,
        "2273": 148,
        "2274": 72,
        "2275": 81,
        "2276": 104,
        "2277": 55,
        "2278": 238,
        "2279": 242,
        "2280": 166,
        "2281": 52,
        "2282": 113,
        "2283": 171,
        "2284": 31,
        "2285": 184,
        "2286": 184,
        "2287": 190,
        "2288": 78,
        "2289": 86,
        "2290": 22,
        "2291": 158,
        "2292": 50,
        "2293": 117,
        "2294": 42,
        "2295": 122,
        "2296": 57,
        "2297": 28,
        "2298": 157,
        "2299": 71,
        "2300": 28,
        "2301": 205,
        "2302": 239,
        "2303": 72,
        "2304": 58,
        "2305": 193,
        "2306": 46,
        "2307": 162,
        "2308": 131,
        "2309": 41,
        "2310": 254,
        "2311": 227,
        "2312": 9,
        "2313": 118,
        "2314": 204,
        "2315": 228,
        "2316": 43,
        "2317": 145,
        "2318": 211,
        "2319": 133,
        "2320": 72,
        "2321": 7,
        "2322": 90,
        "2323": 81,
        "2324": 63,
        "2325": 113,
        "2326": 148,
        "2327": 57,
        "2328": 148,
        "2329": 49,
        "2330": 77,
        "2331": 54,
        "2332": 183,
        "2333": 254,
        "2334": 225,
        "2335": 194,
        "2336": 20,
        "2337": 134,
        "2338": 194,
        "2339": 111,
        "2340": 115,
        "2341": 164,
        "2342": 88,
        "2343": 188,
        "2344": 110,
        "2345": 24,
        "2346": 92,
        "2347": 204,
        "2348": 242,
        "2349": 205,
        "2350": 188,
        "2351": 48,
        "2352": 76,
        "2353": 106,
        "2354": 59,
        "2355": 32,
        "2356": 205,
        "2357": 240,
        "2358": 136,
        "2359": 176,
        "2360": 26,
        "2361": 91,
        "2362": 251,
        "2363": 243,
        "2364": 98,
        "2365": 219,
        "2366": 170,
        "2367": 98,
        "2368": 165,
        "2369": 116,
        "2370": 250,
        "2371": 220,
        "2372": 67,
        "2373": 219,
        "2374": 165,
        "2375": 151,
        "2376": 83,
        "2377": 25,
        "2378": 189,
        "2379": 86,
        "2380": 3,
        "2381": 132,
        "2382": 206,
        "2383": 45,
        "2384": 202,
        "2385": 113,
        "2386": 240,
        "2387": 156,
        "2388": 16,
        "2389": 3,
        "2390": 167,
        "2391": 23,
        "2392": 141,
        "2393": 72,
        "2394": 238,
        "2395": 229,
        "2396": 181,
        "2397": 113,
        "2398": 25,
        "2399": 245,
        "2400": 203,
        "2401": 224,
        "2402": 140,
        "2403": 189,
        "2404": 107,
        "2405": 53,
        "2406": 217,
        "2407": 99,
        "2408": 195,
        "2409": 46,
        "2410": 124,
        "2411": 90,
        "2412": 87,
        "2413": 242,
        "2414": 72,
        "2415": 129,
        "2416": 7,
        "2417": 128,
        "2418": 193,
        "2419": 237,
        "2420": 220,
        "2421": 111,
        "2422": 57,
        "2423": 75,
        "2424": 191,
        "2425": 241,
        "2426": 129,
        "2427": 58,
        "2428": 245,
        "2429": 160,
        "2430": 97,
        "2431": 112,
        "2432": 14,
        "2433": 242,
        "2434": 181,
        "2435": 48,
        "2436": 63,
        "2437": 231,
        "2438": 149,
        "2439": 25,
        "2440": 163,
        "2441": 146,
        "2442": 246,
        "2443": 99,
        "2444": 101,
        "2445": 169,
        "2446": 170,
        "2447": 21,
        "2448": 68,
        "2449": 210,
        "2450": 242,
        "2451": 32,
        "2452": 182,
        "2453": 66,
        "2454": 109,
        "2455": 11,
        "2456": 166,
        "2457": 213,
        "2458": 199,
        "2459": 161,
        "2460": 137,
        "2461": 0,
        "2462": 255,
        "2463": 144,
        "2464": 253,
        "2465": 48,
        "2466": 56,
        "2467": 48,
        "2468": 213,
        "2469": 147,
        "2470": 74,
        "2471": 124,
        "2472": 156,
        "2473": 63,
        "2474": 215,
        "2475": 125,
        "2476": 15,
        "2477": 163,
        "2478": 94,
        "2479": 186,
        "2480": 146,
        "2481": 237,
        "2482": 22,
        "2483": 238,
        "2484": 177,
        "2485": 234,
        "2486": 26,
        "2487": 35,
        "2488": 192,
        "2489": 194,
        "2490": 14,
        "2491": 151,
        "2492": 87,
        "2493": 6,
        "2494": 107,
        "2495": 109,
        "2496": 22,
        "2497": 120,
        "2498": 140,
        "2499": 112,
        "2500": 206,
        "2501": 184,
        "2502": 225,
        "2503": 224,
        "2504": 171,
        "2505": 128,
        "2506": 110,
        "2507": 2,
        "2508": 153,
        "2509": 232,
        "2510": 32,
        "2511": 53,
        "2512": 1,
        "2513": 202,
        "2514": 81,
        "2515": 89,
        "2516": 66,
        "2517": 152,
        "2518": 178,
        "2519": 207,
        "2520": 97,
        "2521": 40,
        "2522": 22,
        "2523": 115,
        "2524": 133,
        "2525": 119,
        "2526": 121,
        "2527": 13,
        "2528": 161,
        "2529": 67,
        "2530": 107,
        "2531": 70,
        "2532": 162,
        "2533": 37,
        "2534": 243,
        "2535": 15,
        "2536": 6,
        "2537": 238,
        "2538": 91,
        "2539": 241,
        "2540": 84,
        "2541": 111,
        "2542": 193,
        "2543": 33,
        "2544": 57,
        "2545": 184,
        "2546": 193,
        "2547": 26,
        "2548": 108,
        "2549": 227,
        "2550": 100,
        "2551": 113,
        "2552": 32,
        "2553": 196,
        "2554": 214,
        "2555": 0,
        "2556": 241,
        "2557": 100,
        "2558": 235,
        "2559": 142,
        "2560": 11,
        "2561": 9,
        "2562": 142,
        "2563": 244,
        "2564": 145,
        "2565": 149,
        "2566": 17,
        "2567": 8,
        "2568": 177,
        "2569": 170,
        "2570": 0,
        "2571": 146,
        "2572": 81,
        "2573": 152,
        "2574": 130,
        "2575": 21,
        "2576": 121,
        "2577": 92,
        "2578": 25,
        "2579": 70,
        "2580": 16,
        "2581": 161,
        "2582": 53,
        "2583": 83,
        "2584": 0,
        "2585": 42,
        "2586": 241,
        "2587": 239,
        "2588": 129,
        "2589": 40,
        "2590": 169,
        "2591": 62,
        "2592": 224,
        "2593": 252,
        "2594": 52,
        "2595": 62,
        "2596": 52,
        "2597": 35,
        "2598": 104,
        "2599": 37,
        "2600": 3,
        "2601": 7,
        "2602": 68,
        "2603": 7,
        "2604": 2,
        "2605": 192,
        "2606": 138,
        "2607": 83,
        "2608": 96,
        "2609": 241,
        "2610": 130,
        "2611": 232,
        "2612": 199,
        "2613": 19,
        "2614": 107,
        "2615": 103,
        "2616": 33,
        "2617": 233,
        "2618": 32,
        "2619": 248,
        "2620": 68,
        "2621": 184,
        "2622": 121,
        "2623": 199,
        "2624": 3,
        "2625": 40,
        "2626": 46,
        "2627": 174,
        "2628": 96,
        "2629": 8,
        "2630": 161,
        "2631": 197,
        "2632": 249,
        "2633": 123,
        "2634": 49,
        "2635": 177,
        "2636": 131,
        "2637": 8,
        "2638": 15,
        "2639": 216,
        "2640": 2,
        "2641": 50,
        "2642": 102,
        "2643": 181,
        "2644": 54,
        "2645": 48,
        "2646": 110,
        "2647": 53,
        "2648": 170,
        "2649": 48,
        "2650": 204,
        "2651": 27,
        "2652": 202,
        "2653": 203,
        "2654": 73,
        "2655": 224,
        "2656": 46,
        "2657": 197,
        "2658": 175,
        "2659": 41,
        "2660": 229,
        "2661": 205,
        "2662": 91,
        "2663": 18,
        "2664": 1,
        "2665": 65,
        "2666": 228,
        "2667": 241,
        "2668": 215,
        "2669": 122,
        "2670": 198,
        "2671": 143,
        "2672": 217,
        "2673": 146,
        "2674": 64,
        "2675": 174,
        "2676": 102,
        "2677": 199,
        "2678": 23,
        "2679": 41,
        "2680": 130,
        "2681": 73,
        "2682": 174,
        "2683": 230,
        "2684": 57,
        "2685": 137,
        "2686": 46,
        "2687": 201,
        "2688": 196,
        "2689": 66,
        "2690": 59,
        "2691": 164,
        "2692": 91,
        "2693": 179,
        "2694": 56,
        "2695": 21,
        "2696": 166,
        "2697": 18,
        "2698": 59,
        "2699": 138,
        "2700": 238,
        "2701": 221,
        "2702": 200,
        "2703": 108,
        "2704": 16,
        "2705": 195,
        "2706": 242,
        "2707": 162,
        "2708": 233,
        "2709": 41,
        "2710": 70,
        "2711": 223,
        "2712": 112,
        "2713": 135,
        "2714": 76,
        "2715": 159,
        "2716": 14,
        "2717": 162,
        "2718": 244,
        "2719": 120,
        "2720": 135,
        "2721": 217,
        "2722": 232,
        "2723": 222,
        "2724": 105,
        "2725": 32,
        "2726": 155,
        "2727": 101,
        "2728": 25,
        "2729": 36,
        "2730": 75,
        "2731": 123,
        "2732": 62,
        "2733": 89,
        "2734": 213,
        "2735": 223,
        "2736": 65,
        "2737": 196,
        "2738": 152,
        "2739": 80,
        "2740": 123,
        "2741": 202,
        "2742": 184,
        "2743": 78,
        "2744": 136,
        "2745": 9,
        "2746": 39,
        "2747": 241,
        "2748": 149,
        "2749": 25,
        "2750": 46,
        "2751": 82,
        "2752": 91,
        "2753": 52,
        "2754": 60,
        "2755": 217,
        "2756": 96,
        "2757": 132,
        "2758": 114,
        "2759": 14,
        "2760": 237,
        "2761": 178,
        "2762": 53,
        "2763": 136,
        "2764": 175,
        "2765": 63,
        "2766": 138,
        "2767": 33,
        "2768": 172,
        "2769": 204,
        "2770": 103,
        "2771": 198,
        "2772": 93,
        "2773": 177,
        "2774": 124,
        "2775": 167,
        "2776": 151,
        "2777": 180,
        "2778": 57,
        "2779": 211,
        "2780": 194,
        "2781": 93,
        "2782": 128,
        "2783": 2,
        "2784": 200,
        "2785": 43,
        "2786": 14,
        "2787": 174,
        "2788": 242,
        "2789": 210,
        "2790": 122,
        "2791": 244,
        "2792": 55,
        "2793": 177,
        "2794": 35,
        "2795": 93,
        "2796": 65,
        "2797": 89,
        "2798": 57,
        "2799": 172,
        "2800": 217,
        "2801": 93,
        "2802": 70,
        "2803": 235,
        "2804": 213,
        "2805": 63,
        "2806": 5,
        "2807": 98,
        "2808": 107,
        "2809": 216,
        "2810": 76,
        "2811": 224,
        "2812": 63,
        "2813": 121,
        "2814": 188,
        "2815": 199,
        "2816": 57,
        "2817": 130,
        "2818": 106,
        "2819": 127,
        "2820": 85,
        "2821": 66,
        "2822": 209,
        "2823": 159,
        "2824": 60,
        "2825": 171,
        "2826": 170,
        "2827": 223,
        "2828": 226,
        "2829": 211,
        "2830": 136,
        "2831": 48,
        "2832": 253,
        "2833": 76,
        "2834": 0,
        "2835": 156,
        "2836": 37,
        "2837": 146,
        "2838": 200,
        "2839": 24,
        "2840": 214,
        "2841": 71,
        "2842": 227,
        "2843": 207,
        "2844": 9,
        "2845": 67,
        "2846": 109,
        "2847": 17,
        "2848": 220,
        "2849": 209,
        "2850": 7,
        "2851": 192,
        "2852": 50,
        "2853": 191,
        "2854": 83,
        "2855": 60,
        "2856": 223,
        "2857": 22,
        "2858": 110,
        "2859": 213,
        "2860": 74,
        "2861": 14,
        "2862": 10,
        "2863": 85,
        "2864": 128,
        "2865": 3,
        "2866": 184,
        "2867": 75,
        "2868": 109,
        "2869": 217,
        "2870": 51,
        "2871": 170,
        "2872": 35,
        "2873": 83,
        "2874": 154,
        "2875": 140,
        "2876": 76,
        "2877": 13,
        "2878": 36,
        "2879": 251,
        "2880": 224,
        "2881": 174,
        "2882": 107,
        "2883": 99,
        "2884": 224,
        "2885": 12,
        "2886": 230,
        "2887": 156,
        "2888": 163,
        "2889": 121,
        "2890": 198,
        "2891": 208,
        "2892": 159,
        "2893": 72,
        "2894": 203,
        "2895": 71,
        "2896": 24,
        "2897": 123,
        "2898": 190,
        "2899": 123,
        "2900": 143,
        "2901": 248,
        "2902": 131,
        "2903": 25,
        "2904": 121,
        "2905": 54,
        "2906": 147,
        "2907": 49,
        "2908": 106,
        "2909": 190,
        "2910": 55,
        "2911": 184,
        "2912": 139,
        "2913": 214,
        "2914": 178,
        "2915": 100,
        "2916": 87,
        "2917": 29,
        "2918": 42,
        "2919": 96,
        "2920": 202,
        "2921": 250,
        "2922": 168,
        "2923": 103,
        "2924": 139,
        "2925": 71,
        "2926": 151,
        "2927": 178,
        "2928": 37,
        "2929": 47,
        "2930": 249,
        "2931": 23,
        "2932": 226,
        "2933": 136,
        "2934": 235,
        "2935": 144,
        "2936": 159,
        "2937": 120,
        "2938": 123,
        "2939": 152,
        "2940": 224,
        "2941": 54,
        "2942": 14,
        "2943": 173,
        "2944": 74,
        "2945": 92,
        "2946": 10,
        "2947": 239,
        "2948": 67,
        "2949": 174,
        "2950": 26,
        "2951": 3,
        "2952": 222,
        "2953": 171,
        "2954": 88,
        "2955": 219,
        "2956": 194,
        "2957": 156,
        "2958": 181,
        "2959": 38,
        "2960": 10,
        "2961": 164,
        "2962": 190,
        "2963": 168,
        "2964": 41,
        "2965": 109,
        "2966": 245,
        "2967": 229,
        "2968": 54,
        "2969": 115,
        "2970": 104,
        "2971": 21,
        "2972": 142,
        "2973": 207,
        "2974": 158,
        "2975": 225,
        "2976": 155,
        "2977": 170,
        "2978": 29,
        "2979": 42,
        "2980": 238,
        "2981": 57,
        "2982": 137,
        "2983": 141,
        "2984": 9,
        "2985": 73,
        "2986": 236,
        "2987": 121,
        "2988": 12,
        "2989": 123,
        "2990": 87,
        "2991": 228,
        "2992": 29,
        "2993": 107,
        "2994": 29,
        "2995": 56,
        "2996": 149,
        "2997": 176,
        "2998": 156,
        "2999": 170,
        "3000": 255,
        "3001": 75,
        "3002": 150,
        "3003": 220,
        "3004": 183,
        "3005": 247,
        "3006": 1,
        "3007": 93,
        "3008": 57,
        "3009": 44,
        "3010": 214,
        "3011": 107,
        "3012": 226,
        "3013": 23,
        "3014": 117,
        "3015": 111,
        "3016": 37,
        "3017": 212,
        "3018": 97,
        "3019": 81,
        "3020": 185,
        "3021": 129,
        "3022": 35,
        "3023": 24,
        "3024": 195,
        "3025": 140,
        "3026": 236,
        "3027": 161,
        "3028": 196,
        "3029": 253,
        "3030": 7,
        "3031": 175,
        "3032": 3,
        "3033": 98,
        "3034": 206,
        "3035": 227,
        "3036": 75,
        "3037": 141,
        "3038": 133,
        "3039": 203,
        "3040": 30,
        "3041": 107,
        "3042": 181,
        "3043": 116,
        "3044": 185,
        "3045": 96,
        "3046": 142,
        "3047": 112,
        "3048": 56,
        "3049": 150,
        "3050": 61,
        "3051": 137,
        "3052": 143,
        "3053": 202,
        "3054": 110,
        "3055": 78,
        "3056": 108,
        "3057": 183,
        "3058": 184,
        "3059": 128,
        "3060": 170,
        "3061": 75,
        "3062": 8,
        "3063": 104,
        "3064": 89,
        "3065": 246,
        "3066": 10,
        "3067": 180,
        "3068": 223,
        "3069": 36,
        "3070": 54,
        "3071": 228,
        "3072": 7,
        "3073": 125,
        "3074": 0,
        "3075": 203,
        "3076": 242,
        "3077": 83,
        "3078": 227,
        "3079": 1,
        "3080": 184,
        "3081": 13,
        "3082": 127,
        "3083": 144,
        "3084": 153,
        "3085": 185,
        "3086": 170,
        "3087": 192,
        "3088": 112,
        "3089": 220,
        "3090": 117,
        "3091": 149,
        "3092": 121,
        "3093": 31,
        "3094": 157,
        "3095": 100,
        "3096": 88,
        "3097": 206,
        "3098": 74,
        "3099": 81,
        "3100": 6,
        "3101": 212,
        "3102": 184,
        "3103": 47,
        "3104": 85,
        "3105": 104,
        "3106": 39,
        "3107": 70,
        "3108": 185,
        "3109": 167,
        "3110": 165,
        "3111": 9,
        "3112": 251,
        "3113": 107,
        "3114": 137,
        "3115": 57,
        "3116": 29,
        "3117": 51,
        "3118": 243,
        "3119": 238,
        "3120": 212,
        "3121": 226,
        "3122": 226,
        "3123": 76,
        "3124": 227,
        "3125": 77,
        "3126": 59,
        "3127": 145,
        "3128": 8,
        "3129": 29,
        "3130": 82,
        "3131": 110,
        "3132": 32,
        "3133": 137,
        "3134": 159,
        "3135": 7,
        "3136": 170,
        "3137": 39,
        "3138": 95,
        "3139": 70,
        "3140": 247,
        "3141": 155,
        "3142": 223,
        "3143": 124,
        "3144": 189,
        "3145": 90,
        "3146": 202,
        "3147": 164,
        "3148": 59,
        "3149": 149,
        "3150": 56,
        "3151": 224,
        "3152": 88,
        "3153": 5,
        "3154": 149,
        "3155": 159,
        "3156": 126,
        "3157": 235,
        "3158": 239,
        "3159": 110,
        "3160": 25,
        "3161": 39,
        "3162": 62,
        "3163": 195,
        "3164": 64,
        "3165": 132,
        "3166": 179,
        "3167": 25,
        "3168": 92,
        "3169": 106,
        "3170": 235,
        "3171": 142,
        "3172": 238,
        "3173": 151,
        "3174": 49,
        "3175": 172,
        "3176": 77,
        "3177": 224,
        "3178": 31,
        "3179": 115,
        "3180": 154,
        "3181": 81,
        "3182": 58,
        "3183": 143,
        "3184": 151,
        "3185": 65,
        "3186": 172,
        "3187": 49,
        "3188": 184,
        "3189": 154,
        "3190": 82,
        "3191": 240,
        "3192": 27,
        "3193": 48,
        "3194": 246,
        "3195": 151,
        "3196": 236,
        "3197": 192,
        "3198": 85,
        "3199": 141,
        "3200": 251,
        "3201": 225,
        "3202": 32,
        "3203": 36,
        "3204": 68,
        "3205": 140,
        "3206": 167,
        "3207": 187,
        "3208": 106,
        "3209": 199,
        "3210": 140,
        "3211": 85,
        "3212": 247,
        "3213": 204,
        "3214": 51,
        "3215": 102,
        "3216": 57,
        "3217": 200,
        "3218": 208,
        "3219": 21,
        "3220": 34,
        "3221": 210,
        "3222": 112,
        "3223": 237,
        "3224": 130,
        "3225": 162,
        "3226": 25,
        "3227": 40,
        "3228": 231,
        "3229": 36,
        "3230": 42,
        "3231": 130,
        "3232": 90,
        "3233": 205,
        "3234": 219,
        "3235": 31,
        "3236": 137,
        "3237": 106,
        "3238": 213,
        "3239": 105,
        "3240": 177,
        "3241": 214,
        "3242": 121,
        "3243": 31,
        "3244": 124,
        "3245": 18,
        "3246": 205,
        "3247": 8,
        "3248": 3,
        "3249": 189,
        "3250": 170,
        "3251": 228,
        "3252": 114,
        "3253": 17,
        "3254": 61,
        "3255": 127,
        "3256": 14,
        "3257": 30,
        "3258": 214,
        "3259": 166,
        "3260": 3,
        "3261": 47,
        "3262": 120,
        "3263": 52,
        "3264": 142,
        "3265": 3,
        "3266": 23,
        "3267": 26,
        "3268": 168,
        "3269": 200,
        "3270": 5,
        "3271": 28,
        "3272": 51,
        "3273": 13,
        "3274": 76,
        "3275": 63,
        "3276": 69,
        "3277": 161,
        "3278": 221,
        "3279": 170,
        "3280": 204,
        "3281": 192,
        "3282": 46,
        "3283": 59,
        "3284": 162,
        "3285": 49,
        "3286": 208,
        "3287": 116,
        "3288": 15,
        "3289": 224,
        "3290": 119,
        "3291": 78,
        "3292": 207,
        "3293": 30,
        "3294": 21,
        "3295": 191,
        "3296": 91,
        "3297": 53,
        "3298": 134,
        "3299": 186,
        "3300": 158,
        "3301": 242,
        "3302": 233,
        "3303": 151,
        "3304": 96,
        "3305": 2,
        "3306": 41,
        "3307": 102,
        "3308": 77,
        "3309": 169,
        "3310": 239,
        "3311": 207,
        "3312": 171,
        "3313": 222,
        "3314": 218,
        "3315": 217,
        "3316": 169,
        "3317": 126,
        "3318": 135,
        "3319": 23,
        "3320": 140,
        "3321": 11,
        "3322": 117,
        "3323": 231,
        "3324": 106,
        "3325": 179,
        "3326": 249,
        "3327": 184,
        "3328": 203,
        "3329": 10,
        "3330": 185,
        "3331": 224,
        "3332": 180,
        "3333": 130,
        "3334": 192,
        "3335": 140,
        "3336": 126,
        "3337": 48,
        "3338": 232,
        "3339": 154,
        "3340": 249,
        "3341": 39,
        "3342": 53,
        "3343": 161,
        "3344": 183,
        "3345": 241,
        "3346": 49,
        "3347": 46,
        "3348": 130,
        "3349": 104,
        "3350": 1,
        "3351": 72,
        "3352": 163,
        "3353": 229,
        "3354": 222,
        "3355": 78,
        "3356": 146,
        "3357": 117,
        "3358": 1,
        "3359": 127,
        "3360": 72,
        "3361": 0,
        "3362": 167,
        "3363": 206,
        "3364": 226,
        "3365": 181,
        "3366": 229,
        "3367": 113,
        "3368": 44,
        "3369": 13,
        "3370": 93,
        "3371": 47,
        "3372": 193,
        "3373": 196,
        "3374": 181,
        "3375": 22,
        "3376": 98,
        "3377": 130,
        "3378": 20,
        "3379": 203,
        "3380": 147,
        "3381": 5,
        "3382": 159,
        "3383": 66,
        "3384": 5,
        "3385": 28,
        "3386": 252,
        "3387": 1,
        "3388": 113,
        "3389": 83,
        "3390": 183,
        "3391": 2,
        "3392": 206,
        "3393": 106,
        "3394": 80,
        "3395": 154,
        "3396": 242,
        "3397": 243,
        "3398": 41,
        "3399": 250,
        "3400": 149,
        "3401": 100,
        "3402": 172,
        "3403": 217,
        "3404": 71,
        "3405": 233,
        "3406": 136,
        "3407": 253,
        "3408": 60,
        "3409": 45,
        "3410": 121,
        "3411": 109,
        "3412": 35,
        "3413": 29,
        "3414": 60,
        "3415": 77,
        "3416": 212,
        "3417": 52,
        "3418": 185,
        "3419": 236,
        "3420": 146,
        "3421": 254,
        "3422": 194,
        "3423": 39,
        "3424": 56,
        "3425": 46,
        "3426": 211,
        "3427": 18,
        "3428": 102,
        "3429": 221,
        "3430": 232,
        "3431": 36,
        "3432": 3,
        "3433": 75,
        "3434": 41,
        "3435": 218,
        "3436": 146,
        "3437": 102,
        "3438": 211,
        "3439": 141,
        "3440": 90,
        "3441": 126,
        "3442": 123,
        "3443": 185,
        "3444": 6,
        "3445": 180,
        "3446": 170,
        "3447": 194,
        "3448": 31,
        "3449": 180,
        "3450": 6,
        "3451": 151,
        "3452": 165,
        "3453": 90,
        "3454": 141,
        "3455": 100,
        "3456": 220,
        "3457": 99,
        "3458": 30,
        "3459": 198,
        "3460": 239,
        "3461": 248,
        "3462": 44,
        "3463": 89,
        "3464": 17,
        "3465": 193,
        "3466": 48,
        "3467": 123,
        "3468": 184,
        "3469": 204,
        "3470": 189,
        "3471": 137,
        "3472": 162,
        "3473": 206,
        "3474": 88,
        "3475": 123,
        "3476": 127,
        "3477": 98,
        "3478": 159,
        "3479": 143,
        "3480": 82,
        "3481": 215,
        "3482": 126,
        "3483": 233,
        "3484": 152,
        "3485": 56,
        "3486": 107,
        "3487": 200,
        "3488": 60,
        "3489": 157,
        "3490": 44,
        "3491": 27,
        "3492": 97,
        "3493": 213,
        "3494": 149,
        "3495": 127,
        "3496": 254,
        "3497": 132,
        "3498": 121,
        "3499": 168,
        "3500": 108,
        "3501": 173,
        "3502": 111,
        "3503": 98,
        "3504": 144,
        "3505": 189,
        "3506": 127,
        "3507": 191,
        "3508": 46,
        "3509": 245,
        "3510": 148,
        "3511": 244,
        "3512": 179,
        "3513": 62,
        "3514": 168,
        "3515": 213,
        "3516": 220,
        "3517": 189,
        "3518": 53,
        "3519": 61,
        "3520": 139,
        "3521": 95,
        "3522": 210,
        "3523": 207,
        "3524": 168,
        "3525": 50,
        "3526": 76,
        "3527": 216,
        "3528": 176,
        "3529": 138,
        "3530": 35,
        "3531": 198,
        "3532": 34,
        "3533": 239,
        "3534": 4,
        "3535": 77,
        "3536": 201,
        "3537": 109,
        "3538": 1,
        "3539": 175,
        "3540": 195,
        "3541": 251,
        "3542": 114,
        "3543": 74,
        "3544": 235,
        "3545": 246,
        "3546": 14,
        "3547": 19,
        "3548": 74,
        "3549": 175,
        "3550": 136,
        "3551": 39,
        "3552": 111,
        "3553": 54,
        "3554": 72,
        "3555": 14,
        "3556": 218,
        "3557": 9,
        "3558": 36,
        "3559": 43,
        "3560": 205,
        "3561": 77,
        "3562": 186,
        "3563": 61,
        "3564": 61,
        "3565": 171,
        "3566": 142,
        "3567": 96,
        "3568": 57,
        "3569": 123,
        "3570": 239,
        "3571": 199,
        "3572": 194,
        "3573": 15,
        "3574": 10,
        "3575": 88,
        "3576": 72,
        "3577": 194,
        "3578": 155,
        "3579": 216,
        "3580": 242,
        "3581": 195,
        "3582": 153,
        "3583": 117,
        "3584": 184,
        "3585": 237,
        "3586": 164,
        "3587": 208,
        "3588": 226,
        "3589": 169,
        "3590": 108,
        "3591": 79,
        "3592": 204,
        "3593": 46,
        "3594": 100,
        "3595": 212,
        "3596": 24,
        "3597": 28,
        "3598": 170,
        "3599": 57,
        "3600": 178,
        "3601": 36,
        "3602": 68,
        "3603": 248,
        "3604": 51,
        "3605": 170,
        "3606": 72,
        "3607": 253,
        "3608": 151,
        "3609": 133,
        "3610": 106,
        "3611": 134,
        "3612": 167,
        "3613": 229,
        "3614": 124,
        "3615": 2,
        "3616": 31,
        "3617": 79,
        "3618": 71,
        "3619": 131,
        "3620": 124,
        "3621": 118,
        "3622": 88,
        "3623": 79,
        "3624": 57,
        "3625": 50,
        "3626": 131,
        "3627": 244,
        "3628": 92,
        "3629": 204,
        "3630": 108,
        "3631": 11,
        "3632": 104,
        "3633": 134,
        "3634": 118,
        "3635": 93,
        "3636": 227,
        "3637": 9,
        "3638": 137,
        "3639": 76,
        "3640": 123,
        "3641": 230,
        "3642": 29,
        "3643": 190,
        "3644": 124,
        "3645": 197,
        "3646": 21,
        "3647": 123,
        "3648": 4,
        "3649": 178,
        "3650": 110,
        "3651": 164,
        "3652": 244,
        "3653": 9,
        "3654": 139,
        "3655": 125,
        "3656": 237,
        "3657": 197,
        "3658": 7,
        "3659": 54,
        "3660": 43,
        "3661": 248,
        "3662": 200,
        "3663": 30,
        "3664": 248,
        "3665": 161,
        "3666": 219,
        "3667": 135,
        "3668": 70,
        "3669": 220,
        "3670": 181,
        "3671": 90,
        "3672": 55,
        "3673": 176,
        "3674": 243,
        "3675": 19,
        "3676": 184,
        "3677": 12,
        "3678": 20,
        "3679": 38,
        "3680": 171,
        "3681": 219,
        "3682": 216,
        "3683": 169,
        "3684": 116,
        "3685": 182,
        "3686": 218,
        "3687": 252,
        "3688": 178,
        "3689": 75,
        "3690": 159,
        "3691": 122,
        "3692": 82,
        "3693": 125,
        "3694": 54,
        "3695": 177,
        "3696": 170,
        "3697": 242,
        "3698": 37,
        "3699": 179,
        "3700": 12,
        "3701": 210,
        "3702": 180,
        "3703": 248,
        "3704": 223,
        "3705": 224,
        "3706": 210,
        "3707": 146,
        "3708": 147,
        "3709": 68,
        "3710": 196,
        "3711": 60,
        "3712": 28,
        "3713": 171,
        "3714": 224,
        "3715": 243,
        "3716": 249,
        "3717": 114,
        "3718": 151,
        "3719": 48,
        "3720": 142,
        "3721": 6,
        "3722": 136,
        "3723": 212,
        "3724": 210,
        "3725": 47,
        "3726": 105,
        "3727": 140,
        "3728": 60,
        "3729": 181,
        "3730": 148,
        "3731": 201,
        "3732": 66,
        "3733": 78,
        "3734": 114,
        "3735": 93,
        "3736": 199,
        "3737": 54,
        "3738": 244,
        "3739": 213,
        "3740": 45,
        "3741": 229,
        "3742": 173,
        "3743": 15,
        "3744": 228,
        "3745": 183,
        "3746": 49,
        "3747": 223,
        "3748": 237,
        "3749": 42,
        "3750": 62,
        "3751": 223,
        "3752": 149,
        "3753": 62,
        "3754": 76,
        "3755": 72,
        "3756": 205,
        "3757": 218,
        "3758": 44,
        "3759": 206,
        "3760": 209,
        "3761": 178,
        "3762": 54,
        "3763": 35,
        "3764": 219,
        "3765": 11,
        "3766": 230,
        "3767": 54,
        "3768": 170,
        "3769": 95,
        "3770": 94,
        "3771": 234,
        "3772": 8,
        "3773": 185,
        "3774": 63,
        "3775": 144,
        "3776": 251,
        "3777": 242,
        "3778": 172,
        "3779": 44,
        "3780": 95,
        "3781": 233,
        "3782": 50,
        "3783": 122,
        "3784": 237,
        "3785": 90,
        "3786": 26,
        "3787": 132,
        "3788": 237,
        "3789": 197,
        "3790": 143,
        "3791": 108,
        "3792": 72,
        "3793": 218,
        "3794": 43,
        "3795": 180,
        "3796": 155,
        "3797": 152,
        "3798": 4,
        "3799": 100,
        "3800": 191,
        "3801": 151,
        "3802": 245,
        "3803": 162,
        "3804": 67,
        "3805": 150,
        "3806": 199,
        "3807": 35,
        "3808": 226,
        "3809": 146,
        "3810": 145,
        "3811": 134,
        "3812": 125,
        "3813": 40,
        "3814": 38,
        "3815": 0,
        "3816": 39,
        "3817": 233,
        "3818": 3,
        "3819": 201,
        "3820": 191,
        "3821": 15,
        "3822": 152,
        "3823": 154,
        "3824": 51,
        "3825": 31,
        "3826": 154,
        "3827": 224,
        "3828": 171,
        "3829": 190,
        "3830": 8,
        "3831": 91,
        "3832": 113,
        "3833": 84,
        "3834": 37,
        "3835": 205,
        "3836": 224,
        "3837": 1,
        "3838": 141,
        "3839": 98,
        "3840": 166,
        "3841": 253,
        "3842": 64,
        "3843": 97,
        "3844": 133,
        "3845": 153,
        "3846": 77,
        "3847": 52,
        "3848": 239,
        "3849": 86,
        "3850": 45,
        "3851": 237,
        "3852": 3,
        "3853": 156,
        "3854": 104,
        "3855": 210,
        "3856": 206,
        "3857": 15,
        "3858": 38,
        "3859": 66,
        "3860": 146,
        "3861": 254,
        "3862": 250,
        "3863": 197,
        "3864": 89,
        "3865": 188,
        "3866": 211,
        "3867": 250,
        "3868": 181,
        "3869": 249,
        "3870": 168,
        "3871": 30,
        "3872": 176,
        "3873": 140,
        "3874": 31,
        "3875": 78,
        "3876": 86,
        "3877": 43,
        "3878": 227,
        "3879": 50,
        "3880": 144,
        "3881": 15,
        "3882": 204,
        "3883": 68,
        "3884": 215,
        "3885": 186,
        "3886": 79,
        "3887": 97,
        "3888": 225,
        "3889": 72,
        "3890": 6,
        "3891": 106,
        "3892": 252,
        "3893": 150,
        "3894": 18,
        "3895": 66,
        "3896": 104,
        "3897": 189,
        "3898": 95,
        "3899": 142,
        "3900": 17,
        "3901": 206,
        "3902": 72,
        "3903": 30,
        "3904": 39,
        "3905": 5,
        "3906": 150,
        "3907": 215,
        "3908": 52,
        "3909": 108,
        "3910": 217,
        "3911": 173,
        "3912": 98,
        "3913": 154,
        "3914": 72,
        "3915": 113,
        "3916": 90,
        "3917": 214,
        "3918": 36,
        "3919": 148,
        "3920": 223,
        "3921": 32,
        "3922": 41,
        "3923": 19,
        "3924": 4,
        "3925": 250,
        "3926": 41,
        "3927": 202,
        "3928": 144,
        "3929": 44,
        "3930": 50,
        "3931": 255,
        "3932": 187,
        "3933": 181,
        "3934": 129,
        "3935": 80,
        "3936": 34,
        "3937": 106,
        "3938": 230,
        "3939": 77,
        "3940": 152,
        "3941": 159,
        "3942": 191,
        "3943": 117,
        "3944": 119,
        "3945": 181,
        "3946": 220,
        "3947": 199,
        "3948": 78,
        "3949": 51,
        "3950": 39,
        "3951": 100,
        "3952": 81,
        "3953": 230,
        "3954": 249,
        "3955": 217,
        "3956": 118,
        "3957": 234,
        "3958": 133,
        "3959": 171,
        "3960": 150,
        "3961": 55,
        "3962": 31,
        "3963": 60,
        "3964": 133,
        "3965": 240,
        "3966": 56,
        "3967": 168,
        "3968": 117,
        "3969": 46,
        "3970": 211,
        "3971": 178,
        "3972": 3,
        "3973": 161,
        "3974": 13,
        "3975": 30,
        "3976": 20,
        "3977": 41,
        "3978": 105,
        "3979": 87,
        "3980": 65,
        "3981": 56,
        "3982": 94,
        "3983": 136,
        "3984": 154,
        "3985": 216,
        "3986": 133,
        "3987": 134,
        "3988": 113,
        "3989": 240,
        "3990": 196,
        "3991": 224,
        "3992": 239,
        "3993": 96,
        "3994": 15,
        "3995": 50,
        "3996": 99,
        "3997": 49,
        "3998": 137,
        "3999": 94,
        "4000": 84,
        "4001": 95,
        "4002": 50,
        "4003": 144,
        "4004": 8,
        "4005": 245,
        "4006": 188,
        "4007": 107,
        "4008": 162,
        "4009": 249,
        "4010": 75,
        "4011": 15,
        "4012": 130,
        "4013": 219,
        "4014": 179,
        "4015": 62,
        "4016": 198,
        "4017": 255,
        "4018": 211,
        "4019": 45,
        "4020": 246,
        "4021": 221,
        "4022": 126,
        "4023": 96,
        "4024": 59,
        "4025": 5,
        "4026": 122,
        "4027": 161,
        "4028": 225,
        "4029": 28,
        "4030": 200,
        "4031": 166,
        "4032": 104,
        "4033": 249,
        "4034": 97,
        "4035": 83,
        "4036": 168,
        "4037": 139,
        "4038": 213,
        "4039": 198,
        "4040": 68,
        "4041": 19,
        "4042": 128,
        "4043": 171,
        "4044": 176,
        "4045": 46,
        "4046": 42,
        "4047": 226,
        "4048": 206,
        "4049": 79,
        "4050": 12,
        "4051": 161,
        "4052": 240,
        "4053": 243,
        "4054": 116,
        "4055": 71,
        "4056": 110,
        "4057": 192,
        "4058": 220,
        "4059": 17,
        "4060": 87,
        "4061": 15,
        "4062": 235,
        "4063": 37,
        "4064": 211,
        "4065": 137,
        "4066": 129,
        "4067": 28,
        "4068": 36,
        "4069": 203,
        "4070": 139,
        "4071": 61,
        "4072": 161,
        "4073": 127,
        "4074": 213,
        "4075": 243,
        "4076": 90,
        "4077": 113,
        "4078": 180,
        "4079": 255,
        "4080": 27,
        "4081": 195,
        "4082": 71,
        "4083": 43,
        "4084": 35,
        "4085": 128,
        "4086": 125,
        "4087": 123,
        "4088": 44,
        "4089": 237,
        "4090": 40,
        "4091": 72,
        "4092": 39,
        "4093": 208,
        "4094": 127,
        "4095": 245,
        "4096": 181,
        "4097": 29,
        "4098": 169,
        "4099": 154,
        "4100": 220,
        "4101": 136,
        "4102": 46,
        "4103": 39,
        "4104": 164,
        "4105": 2,
        "4106": 70,
        "4107": 218,
        "4108": 252,
        "4109": 81,
        "4110": 8,
        "4111": 251,
        "4112": 172,
        "4113": 192,
        "4114": 220,
        "4115": 169,
        "4116": 208,
        "4117": 41,
        "4118": 248,
        "4119": 229,
        "4120": 125,
        "4121": 226,
        "4122": 25,
        "4123": 229,
        "4124": 156,
        "4125": 72,
        "4126": 232,
        "4127": 7,
        "4128": 226,
        "4129": 48,
        "4130": 175,
        "4131": 18,
        "4132": 163,
        "4133": 71,
        "4134": 24,
        "4135": 235,
        "4136": 173,
        "4137": 32,
        "4138": 86,
        "4139": 233,
        "4140": 240,
        "4141": 233,
        "4142": 110,
        "4143": 148,
        "4144": 162,
        "4145": 249,
        "4146": 241,
        "4147": 44,
        "4148": 142,
        "4149": 89,
        "4150": 250,
        "4151": 37,
        "4152": 228,
        "4153": 149,
        "4154": 239,
        "4155": 134,
        "4156": 255,
        "4157": 108,
        "4158": 184,
        "4159": 117,
        "4160": 103,
        "4161": 211,
        "4162": 252,
        "4163": 164,
        "4164": 65,
        "4165": 224,
        "4166": 33,
        "4167": 233,
        "4168": 92,
        "4169": 21,
        "4170": 144,
        "4171": 1,
        "4172": 185,
        "4173": 9,
        "4174": 81,
        "4175": 164,
        "4176": 26,
        "4177": 46,
        "4178": 143,
        "4179": 47,
        "4180": 9,
        "4181": 93,
        "4182": 211,
        "4183": 12,
        "4184": 31,
        "4185": 19,
        "4186": 69,
        "4187": 173,
        "4188": 112,
        "4189": 215,
        "4190": 195,
        "4191": 149,
        "4192": 11,
        "4193": 236,
        "4194": 173,
        "4195": 92,
        "4196": 20,
        "4197": 184,
        "4198": 202,
        "4199": 225,
        "4200": 44,
        "4201": 59,
        "4202": 49,
        "4203": 137,
        "4204": 223,
        "4205": 163,
        "4206": 37,
        "4207": 92,
        "4208": 182,
        "4209": 127,
        "4210": 24,
        "4211": 110,
        "4212": 223,
        "4213": 57,
        "4214": 77,
        "4215": 223,
        "4216": 228,
        "4217": 71,
        "4218": 71,
        "4219": 240,
        "4220": 3,
        "4221": 1,
        "4222": 158,
        "4223": 156,
        "4224": 22,
        "4225": 183,
        "4226": 138,
        "4227": 87,
        "4228": 39,
        "4229": 41,
        "4230": 99,
        "4231": 246,
        "4232": 110,
        "4233": 236,
        "4234": 61,
        "4235": 143,
        "4236": 52,
        "4237": 144,
        "4238": 137,
        "4239": 160,
        "4240": 138,
        "4241": 36,
        "4242": 24,
        "4243": 23,
        "4244": 131,
        "4245": 68,
        "4246": 153,
        "4247": 240,
        "4248": 142,
        "4249": 168,
        "4250": 167,
        "4251": 9,
        "4252": 141,
        "4253": 152,
        "4254": 253,
        "4255": 79,
        "4256": 239,
        "4257": 111,
        "4258": 36,
        "4259": 3,
        "4260": 10,
        "4261": 31,
        "4262": 231,
        "4263": 35,
        "4264": 210,
        "4265": 23,
        "4266": 167,
        "4267": 68,
        "4268": 9,
        "4269": 163,
        "4270": 59,
        "4271": 105,
        "4272": 226,
        "4273": 199,
        "4274": 59,
        "4275": 21,
        "4276": 247,
        "4277": 107,
        "4278": 236,
        "4279": 68,
        "4280": 21,
        "4281": 101,
        "4282": 69,
        "4283": 189,
        "4284": 82,
        "4285": 24,
        "4286": 108,
        "4287": 159,
        "4288": 177,
        "4289": 9,
        "4290": 251,
        "4291": 162,
        "4292": 15,
        "4293": 33,
        "4294": 79,
        "4295": 239,
        "4296": 220,
        "4297": 243,
        "4298": 67,
        "4299": 194,
        "4300": 168,
        "4301": 75,
        "4302": 115,
        "4303": 23,
        "4304": 121,
        "4305": 80,
        "4306": 137,
        "4307": 137,
        "4308": 84,
        "4309": 99,
        "4310": 193,
        "4311": 205,
        "4312": 207,
        "4313": 125,
        "4314": 31,
        "4315": 192,
        "4316": 198,
        "4317": 43,
        "4318": 103,
        "4319": 241,
        "4320": 142,
        "4321": 144,
        "4322": 101,
        "4323": 178,
        "4324": 118,
        "4325": 200,
        "4326": 125,
        "4327": 121,
        "4328": 170,
        "4329": 215,
        "4330": 182,
        "4331": 52,
        "4332": 25,
        "4333": 92,
        "4334": 101,
        "4335": 92,
        "4336": 178,
        "4337": 154,
        "4338": 254,
        "4339": 77,
        "4340": 170,
        "4341": 58,
        "4342": 144,
        "4343": 175,
        "4344": 199,
        "4345": 124,
        "4346": 53,
        "4347": 82,
        "4348": 251,
        "4349": 99,
        "4350": 177,
        "4351": 232,
        "4352": 234,
        "4353": 211,
        "4354": 124,
        "4355": 68,
        "4356": 180,
        "4357": 82,
        "4358": 74,
        "4359": 185,
        "4360": 126,
        "4361": 226,
        "4362": 84,
        "4363": 60,
        "4364": 70,
        "4365": 56,
        "4366": 96,
        "4367": 127,
        "4368": 173,
        "4369": 169,
        "4370": 98,
        "4371": 68,
        "4372": 73,
        "4373": 217,
        "4374": 240,
        "4375": 204,
        "4376": 10,
        "4377": 182,
        "4378": 76,
        "4379": 234,
        "4380": 10,
        "4381": 234,
        "4382": 178,
        "4383": 155,
        "4384": 196,
        "4385": 191,
        "4386": 142,
        "4387": 63,
        "4388": 111,
        "4389": 56,
        "4390": 220,
        "4391": 219,
        "4392": 109,
        "4393": 225,
        "4394": 94,
        "4395": 121,
        "4396": 82,
        "4397": 200,
        "4398": 164,
        "4399": 90,
        "4400": 82,
        "4401": 9,
        "4402": 35,
        "4403": 194,
        "4404": 160,
        "4405": 137,
        "4406": 112,
        "4407": 227,
        "4408": 76,
        "4409": 87,
        "4410": 184,
        "4411": 68,
        "4412": 189,
        "4413": 35,
        "4414": 50,
        "4415": 127,
        "4416": 56,
        "4417": 4,
        "4418": 147,
        "4419": 46,
        "4420": 216,
        "4421": 1,
        "4422": 7,
        "4423": 85,
        "4424": 151,
        "4425": 148,
        "4426": 54,
        "4427": 204,
        "4428": 113,
        "4429": 130,
        "4430": 255,
        "4431": 150,
        "4432": 218,
        "4433": 32,
        "4434": 249,
        "4435": 79,
        "4436": 229,
        "4437": 170,
        "4438": 3,
        "4439": 45,
        "4440": 155,
        "4441": 39,
        "4442": 132,
        "4443": 73,
        "4444": 174,
        "4445": 187,
        "4446": 96,
        "4447": 206,
        "4448": 158,
        "4449": 96,
        "4450": 169,
        "4451": 137,
        "4452": 166,
        "4453": 113,
        "4454": 243,
        "4455": 133,
        "4456": 81,
        "4457": 211,
        "4458": 128,
        "4459": 97,
        "4460": 94,
        "4461": 220,
        "4462": 74,
        "4463": 127,
        "4464": 157,
        "4465": 253,
        "4466": 173,
        "4467": 243,
        "4468": 240,
        "4469": 160,
        "4470": 126,
        "4471": 161,
        "4472": 156,
        "4473": 27,
        "4474": 122,
        "4475": 55,
        "4476": 190,
        "4477": 98,
        "4478": 204,
        "4479": 141,
        "4480": 235,
        "4481": 123,
        "4482": 17,
        "4483": 75,
        "4484": 146,
        "4485": 144,
        "4486": 73,
        "4487": 45,
        "4488": 253,
        "4489": 92,
        "4490": 145,
        "4491": 128,
        "4492": 44,
        "4493": 109,
        "4494": 198,
        "4495": 35,
        "4496": 16,
        "4497": 16,
        "4498": 157,
        "4499": 59,
        "4500": 75,
        "4501": 160,
        "4502": 61,
        "4503": 61,
        "4504": 96,
        "4505": 78,
        "4506": 239,
        "4507": 146,
        "4508": 26,
        "4509": 63,
        "4510": 113,
        "4511": 156,
        "4512": 19,
        "4513": 124,
        "4514": 4,
        "4515": 230,
        "4516": 41,
        "4517": 243,
        "4518": 178,
        "4519": 72,
        "4520": 36,
        "4521": 51,
        "4522": 215,
        "4523": 44,
        "4524": 39,
        "4525": 112,
        "4526": 71,
        "4527": 140,
        "4528": 247,
        "4529": 166,
        "4530": 55,
        "4531": 189,
        "4532": 156,
        "4533": 75,
        "4534": 168,
        "4535": 212,
        "4536": 220,
        "4537": 38,
        "4538": 37,
        "4539": 45,
        "4540": 148,
        "4541": 194,
        "4542": 220,
        "4543": 23,
        "4544": 126,
        "4545": 54,
        "4546": 104,
        "4547": 163,
        "4548": 197,
        "4549": 179,
        "4550": 63,
        "4551": 83,
        "4552": 153,
        "4553": 38,
        "4554": 179,
        "4555": 43,
        "4556": 104,
        "4557": 166,
        "4558": 135,
        "4559": 61,
        "4560": 235,
        "4561": 145,
        "4562": 157,
        "4563": 247,
        "4564": 112,
        "4565": 160,
        "4566": 143,
        "4567": 144,
        "4568": 8,
        "4569": 108,
        "4570": 114,
        "4571": 129,
        "4572": 193,
        "4573": 15,
        "4574": 223,
        "4575": 179,
        "4576": 190,
        "4577": 135,
        "4578": 99,
        "4579": 236,
        "4580": 195,
        "4581": 97,
        "4582": 77,
        "4583": 222,
        "4584": 117,
        "4585": 28,
        "4586": 217,
        "4587": 120,
        "4588": 91,
        "4589": 72,
        "4590": 50,
        "4591": 151,
        "4592": 201,
        "4593": 21,
        "4594": 206,
        "4595": 104,
        "4596": 32,
        "4597": 223,
        "4598": 75,
        "4599": 180,
        "4600": 217,
        "4601": 152,
        "4602": 237,
        "4603": 78,
        "4604": 146,
        "4605": 64,
        "4606": 148,
        "4607": 186,
        "4608": 166,
        "4609": 18,
        "4610": 54,
        "4611": 102,
        "4612": 227,
        "4613": 83,
        "4614": 230,
        "4615": 60,
        "4616": 10,
        "4617": 222,
        "4618": 138,
        "4619": 2,
        "4620": 170,
        "4621": 60,
        "4622": 45,
        "4623": 182,
        "4624": 38,
        "4625": 208,
        "4626": 128,
        "4627": 26,
        "4628": 241,
        "4629": 170,
        "4630": 111,
        "4631": 207,
        "4632": 109,
        "4633": 145,
        "4634": 13,
        "4635": 28,
        "4636": 122,
        "4637": 58,
        "4638": 166,
        "4639": 182,
        "4640": 111,
        "4641": 58,
        "4642": 52,
        "4643": 179,
        "4644": 219,
        "4645": 102,
        "4646": 219,
        "4647": 20,
        "4648": 95,
        "4649": 249,
        "4650": 226,
        "4651": 54,
        "4652": 111,
        "4653": 20,
        "4654": 152,
        "4655": 159,
        "4656": 110,
        "4657": 92,
        "4658": 138,
        "4659": 184,
        "4660": 131,
        "4661": 150,
        "4662": 241,
        "4663": 153,
        "4664": 21,
        "4665": 167,
        "4666": 128,
        "4667": 194,
        "4668": 167,
        "4669": 166,
        "4670": 62,
        "4671": 190,
        "4672": 170,
        "4673": 59,
        "4674": 151,
        "4675": 253,
        "4676": 14,
        "4677": 98,
        "4678": 200,
        "4679": 101,
        "4680": 25,
        "4681": 36,
        "4682": 29,
        "4683": 28,
        "4684": 11,
        "4685": 133,
        "4686": 226,
        "4687": 93,
        "4688": 61,
        "4689": 67,
        "4690": 152,
        "4691": 176,
        "4692": 51,
        "4693": 163,
        "4694": 228,
        "4695": 151,
        "4696": 202,
        "4697": 66,
        "4698": 112,
        "4699": 69,
        "4700": 129,
        "4701": 219,
        "4702": 251,
        "4703": 71,
        "4704": 126,
        "4705": 16,
        "4706": 172,
        "4707": 66,
        "4708": 192,
        "4709": 102,
        "4710": 59,
        "4711": 76,
        "4712": 18,
        "4713": 12,
        "4714": 224,
        "4715": 253,
        "4716": 47,
        "4717": 167,
        "4718": 46,
        "4719": 134,
        "4720": 33,
        "4721": 60,
        "4722": 101,
        "4723": 100,
        "4724": 255,
        "4725": 195,
        "4726": 155,
        "4727": 172,
        "4728": 37,
        "4729": 91,
        "4730": 45,
        "4731": 7,
        "4732": 118,
        "4733": 75,
        "4734": 55,
        "4735": 191,
        "4736": 120,
        "4737": 119,
        "4738": 226,
        "4739": 89,
        "4740": 200,
        "4741": 249,
        "4742": 94,
        "4743": 34,
        "4744": 8,
        "4745": 17,
        "4746": 19,
        "4747": 76,
        "4748": 9,
        "4749": 209,
        "4750": 16,
        "4751": 149,
        "4752": 155,
        "4753": 125,
        "4754": 178,
        "4755": 138,
        "4756": 209,
        "4757": 239,
        "4758": 216,
        "4759": 98,
        "4760": 235,
        "4761": 186,
        "4762": 160,
        "4763": 181,
        "4764": 195,
        "4765": 73,
        "4766": 47,
        "4767": 192,
        "4768": 67,
        "4769": 148,
        "4770": 181,
        "4771": 151,
        "4772": 129,
        "4773": 1,
        "4774": 52,
        "4775": 5,
        "4776": 223,
        "4777": 27,
        "4778": 242,
        "4779": 0,
        "4780": 110,
        "4781": 133,
        "4782": 112,
        "4783": 137,
        "4784": 41,
        "4785": 107,
        "4786": 7,
        "4787": 172,
        "4788": 36,
        "4789": 41,
        "4790": 160,
        "4791": 128,
        "4792": 209,
        "4793": 95,
        "4794": 220,
        "4795": 122,
        "4796": 218,
        "4797": 16,
        "4798": 222,
        "4799": 225,
        "4800": 60,
        "4801": 29,
        "4802": 160,
        "4803": 62,
        "4804": 207,
        "4805": 130,
        "4806": 219,
        "4807": 198,
        "4808": 6,
        "4809": 84,
        "4810": 193,
        "4811": 190,
        "4812": 92,
        "4813": 110,
        "4814": 36,
        "4815": 52,
        "4816": 82,
        "4817": 242,
        "4818": 80,
        "4819": 59,
        "4820": 173,
        "4821": 218,
        "4822": 90,
        "4823": 148,
        "4824": 118,
        "4825": 224,
        "4826": 29,
        "4827": 111,
        "4828": 68,
        "4829": 143,
        "4830": 245,
        "4831": 23,
        "4832": 33,
        "4833": 127,
        "4834": 154,
        "4835": 122,
        "4836": 239,
        "4837": 245,
        "4838": 206,
        "4839": 75,
        "4840": 45,
        "4841": 159,
        "4842": 59,
        "4843": 93,
        "4844": 184,
        "4845": 54,
        "4846": 208,
        "4847": 207,
        "4848": 218,
        "4849": 206,
        "4850": 116,
        "4851": 207,
        "4852": 199,
        "4853": 177,
        "4854": 12,
        "4855": 240,
        "4856": 62,
        "4857": 81,
        "4858": 155,
        "4859": 179,
        "4860": 173,
        "4861": 207,
        "4862": 103,
        "4863": 203,
        "4864": 97,
        "4865": 8,
        "4866": 231,
        "4867": 111,
        "4868": 52,
        "4869": 134,
        "4870": 136,
        "4871": 43,
        "4872": 236,
        "4873": 200,
        "4874": 4,
        "4875": 209,
        "4876": 39,
        "4877": 25,
        "4878": 139,
        "4879": 82,
        "4880": 146,
        "4881": 64,
        "4882": 78,
        "4883": 202,
        "4884": 53,
        "4885": 85,
        "4886": 37,
        "4887": 247,
        "4888": 9,
        "4889": 213,
        "4890": 14,
        "4891": 179,
        "4892": 72,
        "4893": 47,
        "4894": 197,
        "4895": 223,
        "4896": 216,
        "4897": 106,
        "4898": 227,
        "4899": 113,
        "4900": 175,
        "4901": 72,
        "4902": 25,
        "4903": 179,
        "4904": 219,
        "4905": 217,
        "4906": 128,
        "4907": 40,
        "4908": 21,
        "4909": 87,
        "4910": 187,
        "4911": 238,
        "4912": 131,
        "4913": 196,
        "4914": 62,
        "4915": 243,
        "4916": 209,
        "4917": 203,
        "4918": 154,
        "4919": 226,
        "4920": 194,
        "4921": 34,
        "4922": 217,
        "4923": 145,
        "4924": 106,
        "4925": 18,
        "4926": 87,
        "4927": 19,
        "4928": 73,
        "4929": 16,
        "4930": 101,
        "4931": 55,
        "4932": 138,
        "4933": 79,
        "4934": 213,
        "4935": 84,
        "4936": 153,
        "4937": 155,
        "4938": 40,
        "4939": 214,
        "4940": 46,
        "4941": 69,
        "4942": 120,
        "4943": 155,
        "4944": 164,
        "4945": 213,
        "4946": 11,
        "4947": 71,
        "4948": 181,
        "4949": 180,
        "4950": 33,
        "4951": 165,
        "4952": 166,
        "4953": 228,
        "4954": 233,
        "4955": 131,
        "4956": 42,
        "4957": 85,
        "4958": 102,
        "4959": 94,
        "4960": 60,
        "4961": 87,
        "4962": 251,
        "4963": 253,
        "4964": 244,
        "4965": 136,
        "4966": 131,
        "4967": 139,
        "4968": 250,
        "4969": 169,
        "4970": 228,
        "4971": 37,
        "4972": 169,
        "4973": 30,
        "4974": 158,
        "4975": 179,
        "4976": 178,
        "4977": 120,
        "4978": 221,
        "4979": 172,
        "4980": 43,
        "4981": 90,
        "4982": 153,
        "4983": 197,
        "4984": 190,
        "4985": 253,
        "4986": 112,
        "4987": 74,
        "4988": 220,
        "4989": 51,
        "4990": 44,
        "4991": 238,
        "4992": 190,
        "4993": 123,
        "4994": 16,
        "4995": 243,
        "4996": 243,
        "4997": 91,
        "4998": 253,
        "4999": 178,
        "5000": 230,
        "5001": 41,
        "5002": 4,
        "5003": 222,
        "5004": 228,
        "5005": 96,
        "5006": 158,
        "5007": 156,
        "5008": 218,
        "5009": 113,
        "5010": 93,
        "5011": 172,
        "5012": 84,
        "5013": 159,
        "5014": 186,
        "5015": 202,
        "5016": 67,
        "5017": 241,
        "5018": 203,
        "5019": 46,
        "5020": 195,
        "5021": 25,
        "5022": 218,
        "5023": 92,
        "5024": 191,
        "5025": 215,
        "5026": 62,
        "5027": 106,
        "5028": 9,
        "5029": 62,
        "5030": 23,
        "5031": 149,
        "5032": 193,
        "5033": 112,
        "5034": 144,
        "5035": 8,
        "5036": 151,
        "5037": 97,
        "5038": 150,
        "5039": 123,
        "5040": 104,
        "5041": 159,
        "5042": 30,
        "5043": 103,
        "5044": 22,
        "5045": 93,
        "5046": 235,
        "5047": 143,
        "5048": 50,
        "5049": 232,
        "5050": 113,
        "5051": 149,
        "5052": 162,
        "5053": 60,
        "5054": 204,
        "5055": 166,
        "5056": 178,
        "5057": 239,
        "5058": 139,
        "5059": 152,
        "5060": 186,
        "5061": 36,
        "5062": 80,
        "5063": 227,
        "5064": 160,
        "5065": 248,
        "5066": 164,
        "5067": 29,
        "5068": 195,
        "5069": 47,
        "5070": 72,
        "5071": 235,
        "5072": 175,
        "5073": 205,
        "5074": 92,
        "5075": 184,
        "5076": 210,
        "5077": 235,
        "5078": 203,
        "5079": 157,
        "5080": 121,
        "5081": 41,
        "5082": 96,
        "5083": 216,
        "5084": 202,
        "5085": 75,
        "5086": 81,
        "5087": 248,
        "5088": 236,
        "5089": 174,
        "5090": 177,
        "5091": 197,
        "5092": 127,
        "5093": 13,
        "5094": 222,
        "5095": 147,
        "5096": 187,
        "5097": 33,
        "5098": 76,
        "5099": 166,
        "5100": 112,
        "5101": 88,
        "5102": 200,
        "5103": 92,
        "5104": 35,
        "5105": 87,
        "5106": 37,
        "5107": 195,
        "5108": 93,
        "5109": 146,
        "5110": 179,
        "5111": 209,
        "5112": 46,
        "5113": 19,
        "5114": 110,
        "5115": 147,
        "5116": 88,
        "5117": 14,
        "5118": 40,
        "5119": 116,
        "5120": 123,
        "5121": 121,
        "5122": 204,
        "5123": 20,
        "5124": 8,
        "5125": 126,
        "5126": 155,
        "5127": 253,
        "5128": 7,
        "5129": 64,
        "5130": 84,
        "5131": 103,
        "5132": 165,
        "5133": 121,
        "5134": 37,
        "5135": 209,
        "5136": 205,
        "5137": 250,
        "5138": 35,
        "5139": 13,
        "5140": 179,
        "5141": 84,
        "5142": 246,
        "5143": 90,
        "5144": 38,
        "5145": 34,
        "5146": 167,
        "5147": 20,
        "5148": 204,
        "5149": 35,
        "5150": 162,
        "5151": 184,
        "5152": 181,
        "5153": 114,
        "5154": 189,
        "5155": 16,
        "5156": 156,
        "5157": 126,
        "5158": 107,
        "5159": 127,
        "5160": 134,
        "5161": 34,
        "5162": 141,
        "5163": 83,
        "5164": 99,
        "5165": 109,
        "5166": 50,
        "5167": 50,
        "5168": 186,
        "5169": 219,
        "5170": 152,
        "5171": 78,
        "5172": 249,
        "5173": 125,
        "5174": 247,
        "5175": 38,
        "5176": 168,
        "5177": 135,
        "5178": 195,
        "5179": 121,
        "5180": 201,
        "5181": 12,
        "5182": 90,
        "5183": 154,
        "5184": 110,
        "5185": 188,
        "5186": 163,
        "5187": 98,
        "5188": 49,
        "5189": 10,
        "5190": 89,
        "5191": 173,
        "5192": 94,
        "5193": 230,
        "5194": 223,
        "5195": 11,
        "5196": 21,
        "5197": 26,
        "5198": 137,
        "5199": 91,
        "5200": 131,
        "5201": 160,
        "5202": 95,
        "5203": 75,
        "5204": 209,
        "5205": 107,
        "5206": 170,
        "5207": 84,
        "5208": 237,
        "5209": 168,
        "5210": 227,
        "5211": 185,
        "5212": 148,
        "5213": 72,
        "5214": 17,
        "5215": 102,
        "5216": 139,
        "5217": 235,
        "5218": 120,
        "5219": 188,
        "5220": 192,
        "5221": 176,
        "5222": 250,
        "5223": 136,
        "5224": 204,
        "5225": 93,
        "5226": 220,
        "5227": 59,
        "5228": 92,
        "5229": 93,
        "5230": 230,
        "5231": 27,
        "5232": 195,
        "5233": 59,
        "5234": 227,
        "5235": 245,
        "5236": 249,
        "5237": 109,
        "5238": 180,
        "5239": 158,
        "5240": 87,
        "5241": 155,
        "5242": 92,
        "5243": 192,
        "5244": 135,
        "5245": 56,
        "5246": 203,
        "5247": 52,
        "5248": 186,
        "5249": 33,
        "5250": 67,
        "5251": 119,
        "5252": 64,
        "5253": 255,
        "5254": 113,
        "5255": 121,
        "5256": 198,
        "5257": 24,
        "5258": 6,
        "5259": 47,
        "5260": 18,
        "5261": 209,
        "5262": 184,
        "5263": 160,
        "5264": 86,
        "5265": 55,
        "5266": 209,
        "5267": 110,
        "5268": 148,
        "5269": 39,
        "5270": 165,
        "5271": 197,
        "5272": 200,
        "5273": 35,
        "5274": 9,
        "5275": 114,
        "5276": 26,
        "5277": 130,
        "5278": 155,
        "5279": 20,
        "5280": 93,
        "5281": 159,
        "5282": 12,
        "5283": 47,
        "5284": 126,
        "5285": 93,
        "5286": 39,
        "5287": 38,
        "5288": 209,
        "5289": 25,
        "5290": 198,
        "5291": 136,
        "5292": 18,
        "5293": 66,
        "5294": 178,
        "5295": 157,
        "5296": 83,
        "5297": 190,
        "5298": 52,
        "5299": 82,
        "5300": 149,
        "5301": 237,
        "5302": 170,
        "5303": 224,
        "5304": 148,
        "5305": 252,
        "5306": 154,
        "5307": 19,
        "5308": 35,
        "5309": 138,
        "5310": 49,
        "5311": 34,
        "5312": 246,
        "5313": 138,
        "5314": 82,
        "5315": 18,
        "5316": 29,
        "5317": 55,
        "5318": 180,
        "5319": 156,
        "5320": 97,
        "5321": 124,
        "5322": 135,
        "5323": 15,
        "5324": 82,
        "5325": 164,
        "5326": 112,
        "5327": 103,
        "5328": 160,
        "5329": 172,
        "5330": 95,
        "5331": 11,
        "5332": 211,
        "5333": 150,
        "5334": 217,
        "5335": 13,
        "5336": 130,
        "5337": 246,
        "5338": 16,
        "5339": 186,
        "5340": 125,
        "5341": 239,
        "5342": 0,
        "5343": 59,
        "5344": 99,
        "5345": 180,
        "5346": 93,
        "5347": 163,
        "5348": 226,
        "5349": 175,
        "5350": 45,
        "5351": 100,
        "5352": 151,
        "5353": 18,
        "5354": 212,
        "5355": 212,
        "5356": 82,
        "5357": 192,
        "5358": 129,
        "5359": 130,
        "5360": 32,
        "5361": 207,
        "5362": 17,
        "5363": 196,
        "5364": 107,
        "5365": 235,
        "5366": 5,
        "5367": 118,
        "5368": 99,
        "5369": 55,
        "5370": 246,
        "5371": 108,
        "5372": 162,
        "5373": 136,
        "5374": 146,
        "5375": 118,
        "5376": 36,
        "5377": 191,
        "5378": 65,
        "5379": 62,
        "5380": 118,
        "5381": 196,
        "5382": 154,
        "5383": 152,
        "5384": 162,
        "5385": 7,
        "5386": 23,
        "5387": 3,
        "5388": 173,
        "5389": 193,
        "5390": 83,
        "5391": 24,
        "5392": 239,
        "5393": 126,
        "5394": 86,
        "5395": 155,
        "5396": 62,
        "5397": 156,
        "5398": 81,
        "5399": 130,
        "5400": 21,
        "5401": 41,
        "5402": 140,
        "5403": 9,
        "5404": 88,
        "5405": 95,
        "5406": 84,
        "5407": 79,
        "5408": 68,
        "5409": 223,
        "5410": 159,
        "5411": 123,
        "5412": 98,
        "5413": 249,
        "5414": 237,
        "5415": 145,
        "5416": 43,
        "5417": 234,
        "5418": 96,
        "5419": 123,
        "5420": 39,
        "5421": 19,
        "5422": 55,
        "5423": 219,
        "5424": 101,
        "5425": 127,
        "5426": 47,
        "5427": 198,
        "5428": 212,
        "5429": 50,
        "5430": 252,
        "5431": 179,
        "5432": 13,
        "5433": 133,
        "5434": 83,
        "5435": 127,
        "5436": 136,
        "5437": 81,
        "5438": 7,
        "5439": 78,
        "5440": 88,
        "5441": 193,
        "5442": 52,
        "5443": 83,
        "5444": 180,
        "5445": 165,
        "5446": 50,
        "5447": 126,
        "5448": 17,
        "5449": 81,
        "5450": 43,
        "5451": 61,
        "5452": 71,
        "5453": 8,
        "5454": 104,
        "5455": 117,
        "5456": 14,
        "5457": 199,
        "5458": 71,
        "5459": 225,
        "5460": 160,
        "5461": 154,
        "5462": 64,
        "5463": 189,
        "5464": 170,
        "5465": 160,
        "5466": 239,
        "5467": 151,
        "5468": 81,
        "5469": 210,
        "5470": 80,
        "5471": 107,
        "5472": 4,
        "5473": 14,
        "5474": 194,
        "5475": 17,
        "5476": 129,
        "5477": 217,
        "5478": 116,
        "5479": 5,
        "5480": 7,
        "5481": 231,
        "5482": 31,
        "5483": 73,
        "5484": 20,
        "5485": 152,
        "5486": 217,
        "5487": 219,
        "5488": 175,
        "5489": 139,
        "5490": 186,
        "5491": 205,
        "5492": 49,
        "5493": 48,
        "5494": 174,
        "5495": 182,
        "5496": 1,
        "5497": 45,
        "5498": 66,
        "5499": 101,
        "5500": 222,
        "5501": 202,
        "5502": 226,
        "5503": 105,
        "5504": 96,
        "5505": 65,
        "5506": 6,
        "5507": 138,
        "5508": 103,
        "5509": 139,
        "5510": 190,
        "5511": 21,
        "5512": 169,
        "5513": 125,
        "5514": 10,
        "5515": 25,
        "5516": 63,
        "5517": 82,
        "5518": 178,
        "5519": 31,
        "5520": 248,
        "5521": 238,
        "5522": 124,
        "5523": 243,
        "5524": 233,
        "5525": 179,
        "5526": 153,
        "5527": 251,
        "5528": 160,
        "5529": 2,
        "5530": 45,
        "5531": 15,
        "5532": 112,
        "5533": 190,
        "5534": 186,
        "5535": 75,
        "5536": 167,
        "5537": 189,
        "5538": 143,
        "5539": 26,
        "5540": 90,
        "5541": 232,
        "5542": 129,
        "5543": 184,
        "5544": 62,
        "5545": 236,
        "5546": 127,
        "5547": 238,
        "5548": 242,
        "5549": 139,
        "5550": 26,
        "5551": 168,
        "5552": 77,
        "5553": 229,
        "5554": 21,
        "5555": 108,
        "5556": 30,
        "5557": 177,
        "5558": 9,
        "5559": 47,
        "5560": 213,
        "5561": 176,
        "5562": 23,
        "5563": 41,
        "5564": 86,
        "5565": 43,
        "5566": 199,
        "5567": 11,
        "5568": 61,
        "5569": 174,
        "5570": 78,
        "5571": 87,
        "5572": 81,
        "5573": 189,
        "5574": 56,
        "5575": 61,
        "5576": 35,
        "5577": 232,
        "5578": 114,
        "5579": 62,
        "5580": 240,
        "5581": 140,
        "5582": 174,
        "5583": 62,
        "5584": 41,
        "5585": 250,
        "5586": 158,
        "5587": 25,
        "5588": 160,
        "5589": 101,
        "5590": 245,
        "5591": 152,
        "5592": 195,
        "5593": 2,
        "5594": 46,
        "5595": 18,
        "5596": 223,
        "5597": 100,
        "5598": 127,
        "5599": 242,
        "5600": 86,
        "5601": 213,
        "5602": 79,
        "5603": 225,
        "5604": 148,
        "5605": 247,
        "5606": 36,
        "5607": 68,
        "5608": 8,
        "5609": 168,
        "5610": 138,
        "5611": 225,
        "5612": 178,
        "5613": 161,
        "5614": 16,
        "5615": 110,
        "5616": 49,
        "5617": 191,
        "5618": 238,
        "5619": 159,
        "5620": 156,
        "5621": 45,
        "5622": 8,
        "5623": 245,
        "5624": 250,
        "5625": 59,
        "5626": 12,
        "5627": 98,
        "5628": 208,
        "5629": 208,
        "5630": 109,
        "5631": 255,
        "5632": 189,
        "5633": 250,
        "5634": 214,
        "5635": 3,
        "5636": 227,
        "5637": 172,
        "5638": 114,
        "5639": 142,
        "5640": 53,
        "5641": 67,
        "5642": 172,
        "5643": 238,
        "5644": 191,
        "5645": 109,
        "5646": 129,
        "5647": 228,
        "5648": 250,
        "5649": 222,
        "5650": 214,
        "5651": 28,
        "5652": 153,
        "5653": 142,
        "5654": 154,
        "5655": 210,
        "5656": 65,
        "5657": 211,
        "5658": 27,
        "5659": 2,
        "5660": 172,
        "5661": 106,
        "5662": 103,
        "5663": 43,
        "5664": 211,
        "5665": 185,
        "5666": 71,
        "5667": 225,
        "5668": 177,
        "5669": 204,
        "5670": 241,
        "5671": 69,
        "5672": 201,
        "5673": 17,
        "5674": 182,
        "5675": 40,
        "5676": 1,
        "5677": 5,
        "5678": 56,
        "5679": 26,
        "5680": 15,
        "5681": 57,
        "5682": 241,
        "5683": 59,
        "5684": 131,
        "5685": 199,
        "5686": 234,
        "5687": 6,
        "5688": 67,
        "5689": 177,
        "5690": 33,
        "5691": 94,
        "5692": 133,
        "5693": 183,
        "5694": 79,
        "5695": 222,
        "5696": 160,
        "5697": 254,
        "5698": 162,
        "5699": 207,
        "5700": 85,
        "5701": 163,
        "5702": 112,
        "5703": 217,
        "5704": 73,
        "5705": 51,
        "5706": 3,
        "5707": 211,
        "5708": 108,
        "5709": 63,
        "5710": 248,
        "5711": 159,
        "5712": 61,
        "5713": 195,
        "5714": 58,
        "5715": 127,
        "5716": 225,
        "5717": 213,
        "5718": 120,
        "5719": 28,
        "5720": 142,
        "5721": 5,
        "5722": 197,
        "5723": 112,
        "5724": 204,
        "5725": 52,
        "5726": 222,
        "5727": 27,
        "5728": 173,
        "5729": 167,
        "5730": 221,
        "5731": 17,
        "5732": 88,
        "5733": 22,
        "5734": 38,
        "5735": 177,
        "5736": 10,
        "5737": 25,
        "5738": 98,
        "5739": 64,
        "5740": 18,
        "5741": 175,
        "5742": 247,
        "5743": 29,
        "5744": 70,
        "5745": 36,
        "5746": 115,
        "5747": 108,
        "5748": 45,
        "5749": 113,
        "5750": 212,
        "5751": 157,
        "5752": 180,
        "5753": 66,
        "5754": 108,
        "5755": 60,
        "5756": 151,
        "5757": 179,
        "5758": 140,
        "5759": 165,
        "5760": 68,
        "5761": 166,
        "5762": 90,
        "5763": 112,
        "5764": 136,
        "5765": 100,
        "5766": 208,
        "5767": 9,
        "5768": 238,
        "5769": 36,
        "5770": 43,
        "5771": 193,
        "5772": 71,
        "5773": 154,
        "5774": 48,
        "5775": 70,
        "5776": 28,
        "5777": 218,
        "5778": 10,
        "5779": 101,
        "5780": 144,
        "5781": 73,
        "5782": 87,
        "5783": 57,
        "5784": 110,
        "5785": 230,
        "5786": 25,
        "5787": 135,
        "5788": 19,
        "5789": 166,
        "5790": 244,
        "5791": 105,
        "5792": 84,
        "5793": 239,
        "5794": 41,
        "5795": 233,
        "5796": 178,
        "5797": 73,
        "5798": 207,
        "5799": 151,
        "5800": 36,
        "5801": 107,
        "5802": 162,
        "5803": 6,
        "5804": 43,
        "5805": 177,
        "5806": 254,
        "5807": 216,
        "5808": 197,
        "5809": 119,
        "5810": 51,
        "5811": 87,
        "5812": 15,
        "5813": 136,
        "5814": 49,
        "5815": 238,
        "5816": 154,
        "5817": 243,
        "5818": 195,
        "5819": 227,
        "5820": 55,
        "5821": 59,
        "5822": 6,
        "5823": 116,
        "5824": 222,
        "5825": 209,
        "5826": 9,
        "5827": 167,
        "5828": 93,
        "5829": 100,
        "5830": 0,
        "5831": 211,
        "5832": 43,
        "5833": 192,
        "5834": 5,
        "5835": 245,
        "5836": 201,
        "5837": 215,
        "5838": 250,
        "5839": 125,
        "5840": 121,
        "5841": 190,
        "5842": 92,
        "5843": 122,
        "5844": 169,
        "5845": 233,
        "5846": 202,
        "5847": 210,
        "5848": 120,
        "5849": 184,
        "5850": 238,
        "5851": 70,
        "5852": 150,
        "5853": 110,
        "5854": 69,
        "5855": 189,
        "5856": 211,
        "5857": 35,
        "5858": 107,
        "5859": 35,
        "5860": 18,
        "5861": 150,
        "5862": 210,
        "5863": 137,
        "5864": 164,
        "5865": 240,
        "5866": 53,
        "5867": 39,
        "5868": 105,
        "5869": 97,
        "5870": 44,
        "5871": 114,
        "5872": 146,
        "5873": 166,
        "5874": 186,
        "5875": 216,
        "5876": 114,
        "5877": 110,
        "5878": 131,
        "5879": 84,
        "5880": 81,
        "5881": 233,
        "5882": 4,
        "5883": 253,
        "5884": 8,
        "5885": 210,
        "5886": 176,
        "5887": 155,
        "5888": 225,
        "5889": 37,
        "5890": 166,
        "5891": 70,
        "5892": 137,
        "5893": 129,
        "5894": 176,
        "5895": 39,
        "5896": 198,
        "5897": 36,
        "5898": 36,
        "5899": 179,
        "5900": 220,
        "5901": 68,
        "5902": 161,
        "5903": 186,
        "5904": 88,
        "5905": 223,
        "5906": 107,
        "5907": 229,
        "5908": 127,
        "5909": 6,
        "5910": 83,
        "5911": 144,
        "5912": 15,
        "5913": 182,
        "5914": 63,
        "5915": 158,
        "5916": 45,
        "5917": 159,
        "5918": 184,
        "5919": 114,
        "5920": 190,
        "5921": 74,
        "5922": 214,
        "5923": 14,
        "5924": 205,
        "5925": 202,
        "5926": 225,
        "5927": 42,
        "5928": 86,
        "5929": 232,
        "5930": 245,
        "5931": 5,
        "5932": 235,
        "5933": 127,
        "5934": 214,
        "5935": 148,
        "5936": 95,
        "5937": 33,
        "5938": 219,
        "5939": 94,
        "5940": 159,
        "5941": 72,
        "5942": 78,
        "5943": 102,
        "5944": 98,
        "5945": 3,
        "5946": 212,
        "5947": 215,
        "5948": 186,
        "5949": 44,
        "5950": 147,
        "5951": 229,
        "5952": 12,
        "5953": 118,
        "5954": 220,
        "5955": 170,
        "5956": 199,
        "5957": 165,
        "5958": 120,
        "5959": 128,
        "5960": 146,
        "5961": 179,
        "5962": 198,
        "5963": 91,
        "5964": 231,
        "5965": 171,
        "5966": 152,
        "5967": 241,
        "5968": 98,
        "5969": 44,
        "5970": 74,
        "5971": 172,
        "5972": 244,
        "5973": 171,
        "5974": 180,
        "5975": 53,
        "5976": 253,
        "5977": 225,
        "5978": 81,
        "5979": 17,
        "5980": 165,
        "5981": 78,
        "5982": 242,
        "5983": 244,
        "5984": 85,
        "5985": 180,
        "5986": 58,
        "5987": 47,
        "5988": 174,
        "5989": 133,
        "5990": 175,
        "5991": 24,
        "5992": 92,
        "5993": 51,
        "5994": 75,
        "5995": 46,
        "5996": 67,
        "5997": 132,
        "5998": 219,
        "5999": 170,
        "6000": 28,
        "6001": 147,
        "6002": 222,
        "6003": 135,
        "6004": 50,
        "6005": 90,
        "6006": 88,
        "6007": 187,
        "6008": 135,
        "6009": 34,
        "6010": 248,
        "6011": 9,
        "6012": 207,
        "6013": 241,
        "6014": 41,
        "6015": 25,
        "6016": 138,
        "6017": 201,
        "6018": 44,
        "6019": 38,
        "6020": 15,
        "6021": 245,
        "6022": 25,
        "6023": 8,
        "6024": 44,
        "6025": 21,
        "6026": 26,
        "6027": 214,
        "6028": 235,
        "6029": 168,
        "6030": 235,
        "6031": 106,
        "6032": 187,
        "6033": 198,
        "6034": 86,
        "6035": 239,
        "6036": 233,
        "6037": 70,
        "6038": 100,
        "6039": 149,
        "6040": 37,
        "6041": 68,
        "6042": 142,
        "6043": 144,
        "6044": 147,
        "6045": 116,
        "6046": 37,
        "6047": 17,
        "6048": 232,
        "6049": 119,
        "6050": 244,
        "6051": 65,
        "6052": 152,
        "6053": 4,
        "6054": 166,
        "6055": 147,
        "6056": 88,
        "6057": 203,
        "6058": 231,
        "6059": 54,
        "6060": 130,
        "6061": 120,
        "6062": 175,
        "6063": 207,
        "6064": 65,
        "6065": 43,
        "6066": 143,
        "6067": 223,
        "6068": 95,
        "6069": 97,
        "6070": 157,
        "6071": 190,
        "6072": 209,
        "6073": 106,
        "6074": 149,
        "6075": 223,
        "6076": 1,
        "6077": 225,
        "6078": 61,
        "6079": 108,
        "6080": 168,
        "6081": 46,
        "6082": 153,
        "6083": 111,
        "6084": 30,
        "6085": 198,
        "6086": 17,
        "6087": 148,
        "6088": 192,
        "6089": 59,
        "6090": 143,
        "6091": 120,
        "6092": 4,
        "6093": 113,
        "6094": 19,
        "6095": 104,
        "6096": 185,
        "6097": 30,
        "6098": 55,
        "6099": 109,
        "6100": 188,
        "6101": 82,
        "6102": 64,
        "6103": 250,
        "6104": 246,
        "6105": 74,
        "6106": 134,
        "6107": 141,
        "6108": 128,
        "6109": 174,
        "6110": 92,
        "6111": 104,
        "6112": 65,
        "6113": 143,
        "6114": 167,
        "6115": 39,
        "6116": 163,
        "6117": 118,
        "6118": 21,
        "6119": 84,
        "6120": 39,
        "6121": 150,
        "6122": 34,
        "6123": 172,
        "6124": 1,
        "6125": 236,
        "6126": 164,
        "6127": 187,
        "6128": 210,
        "6129": 4,
        "6130": 126,
        "6131": 79,
        "6132": 246,
        "6133": 4,
        "6134": 228,
        "6135": 96,
        "6136": 219,
        "6137": 247,
        "6138": 190,
        "6139": 32,
        "6140": 54,
        "6141": 112,
        "6142": 107,
        "6143": 151,
        "6144": 152,
        "6145": 21,
        "6146": 139,
        "6147": 206,
        "6148": 159,
        "6149": 62,
        "6150": 41,
        "6151": 216,
        "6152": 246,
        "6153": 232,
        "6154": 127,
        "6155": 233,
        "6156": 220,
        "6157": 250,
        "6158": 29,
        "6159": 217,
        "6160": 243,
        "6161": 127,
        "6162": 110,
        "6163": 96,
        "6164": 139,
        "6165": 155,
        "6166": 147,
        "6167": 125,
        "6168": 183,
        "6169": 241,
        "6170": 195,
        "6171": 41,
        "6172": 148,
        "6173": 202,
        "6174": 192,
        "6175": 120,
        "6176": 44,
        "6177": 16,
        "6178": 216,
        "6179": 161,
        "6180": 189,
        "6181": 196,
        "6182": 137,
        "6183": 156,
        "6184": 240,
        "6185": 26,
        "6186": 86,
        "6187": 184,
        "6188": 197,
        "6189": 11,
        "6190": 245,
        "6191": 234,
        "6192": 96,
        "6193": 178,
        "6194": 139,
        "6195": 8,
        "6196": 58,
        "6197": 122,
        "6198": 193,
        "6199": 101,
        "6200": 100,
        "6201": 39,
        "6202": 26,
        "6203": 47,
        "6204": 178,
        "6205": 140,
        "6206": 72,
        "6207": 9,
        "6208": 204,
        "6209": 98,
        "6210": 23,
        "6211": 183,
        "6212": 92,
        "6213": 163,
        "6214": 42,
        "6215": 150,
        "6216": 12,
        "6217": 169,
        "6218": 186,
        "6219": 106,
        "6220": 26,
        "6221": 148,
        "6222": 155,
        "6223": 217,
        "6224": 200,
        "6225": 231,
        "6226": 187,
        "6227": 60,
        "6228": 86,
        "6229": 66,
        "6230": 101,
        "6231": 29,
        "6232": 86,
        "6233": 171,
        "6234": 219,
        "6235": 78,
        "6236": 230,
        "6237": 107,
        "6238": 29,
        "6239": 148,
        "6240": 42,
        "6241": 241,
        "6242": 248,
        "6243": 137,
        "6244": 21,
        "6245": 240,
        "6246": 26,
        "6247": 118,
        "6248": 131,
        "6249": 59,
        "6250": 240,
        "6251": 223,
        "6252": 176,
        "6253": 243,
        "6254": 36,
        "6255": 13,
        "6256": 206,
        "6257": 99,
        "6258": 58,
        "6259": 21,
        "6260": 62,
        "6261": 20,
        "6262": 214,
        "6263": 253,
        "6264": 92,
        "6265": 77,
        "6266": 92,
        "6267": 115,
        "6268": 190,
        "6269": 31,
        "6270": 160,
        "6271": 160,
        "6272": 196,
        "6273": 157,
        "6274": 100,
        "6275": 141,
        "6276": 112,
        "6277": 96,
        "6278": 232,
        "6279": 190,
        "6280": 28,
        "6281": 209,
        "6282": 75,
        "6283": 58,
        "6284": 185,
        "6285": 47,
        "6286": 36,
        "6287": 15,
        "6288": 164,
        "6289": 89,
        "6290": 50,
        "6291": 96,
        "6292": 109,
        "6293": 78,
        "6294": 86,
        "6295": 183,
        "6296": 237,
        "6297": 187,
        "6298": 124,
        "6299": 130,
        "6300": 220,
        "6301": 197,
        "6302": 69,
        "6303": 107,
        "6304": 102,
        "6305": 15,
        "6306": 109,
        "6307": 89,
        "6308": 152,
        "6309": 122,
        "6310": 128,
        "6311": 242,
        "6312": 157,
        "6313": 95,
        "6314": 43,
        "6315": 129,
        "6316": 39,
        "6317": 2,
        "6318": 27,
        "6319": 181,
        "6320": 87,
        "6321": 206,
        "6322": 190,
        "6323": 65,
        "6324": 47,
        "6325": 4,
        "6326": 94,
        "6327": 169,
        "6328": 121,
        "6329": 10,
        "6330": 168,
        "6331": 196,
        "6332": 252,
        "6333": 229,
        "6334": 23,
        "6335": 217,
        "6336": 3,
        "6337": 91,
        "6338": 110,
        "6339": 247,
        "6340": 90,
        "6341": 184,
        "6342": 34,
        "6343": 44,
        "6344": 168,
        "6345": 80,
        "6346": 71,
        "6347": 149,
        "6348": 138,
        "6349": 168,
        "6350": 144,
        "6351": 59,
        "6352": 107,
        "6353": 131,
        "6354": 202,
        "6355": 79,
        "6356": 39,
        "6357": 135,
        "6358": 18,
        "6359": 21,
        "6360": 33,
        "6361": 97,
        "6362": 232,
        "6363": 251,
        "6364": 140,
        "6365": 74,
        "6366": 250,
        "6367": 118,
        "6368": 212,
        "6369": 233,
        "6370": 167,
        "6371": 131,
        "6372": 195,
        "6373": 32,
        "6374": 105,
        "6375": 143,
        "6376": 232,
        "6377": 186,
        "6378": 97,
        "6379": 131,
        "6380": 64,
        "6381": 67,
        "6382": 150,
        "6383": 189,
        "6384": 159,
        "6385": 239,
        "6386": 139,
        "6387": 91,
        "6388": 44,
        "6389": 242,
        "6390": 232,
        "6391": 201,
        "6392": 188,
        "6393": 32,
        "6394": 195,
        "6395": 233,
        "6396": 20,
        "6397": 89,
        "6398": 36,
        "6399": 144,
        "6400": 36,
        "6401": 94,
        "6402": 121,
        "6403": 176,
        "6404": 37,
        "6405": 56,
        "6406": 66,
        "6407": 72,
        "6408": 185,
        "6409": 9,
        "6410": 99,
        "6411": 184,
        "6412": 159,
        "6413": 92,
        "6414": 66,
        "6415": 248,
        "6416": 6,
        "6417": 38,
        "6418": 183,
        "6419": 75,
        "6420": 101,
        "6421": 235,
        "6422": 157,
        "6423": 104,
        "6424": 52,
        "6425": 194,
        "6426": 122,
        "6427": 56,
        "6428": 123,
        "6429": 197,
        "6430": 190,
        "6431": 179,
        "6432": 104,
        "6433": 44,
        "6434": 92,
        "6435": 59,
        "6436": 191,
        "6437": 22,
        "6438": 77,
        "6439": 237,
        "6440": 1,
        "6441": 203,
        "6442": 117,
        "6443": 211,
        "6444": 196,
        "6445": 234,
        "6446": 62,
        "6447": 207,
        "6448": 109,
        "6449": 40,
        "6450": 12,
        "6451": 74,
        "6452": 249,
        "6453": 116,
        "6454": 213,
        "6455": 62,
        "6456": 227,
        "6457": 230,
        "6458": 152,
        "6459": 89,
        "6460": 221,
        "6461": 6,
        "6462": 237,
        "6463": 231,
        "6464": 58,
        "6465": 48,
        "6466": 192,
        "6467": 145,
        "6468": 87,
        "6469": 25,
        "6470": 239,
        "6471": 18,
        "6472": 131,
        "6473": 179,
        "6474": 216,
        "6475": 97,
        "6476": 120,
        "6477": 7,
        "6478": 99,
        "6479": 149,
        "6480": 220,
        "6481": 213,
        "6482": 24,
        "6483": 96,
        "6484": 11,
        "6485": 86,
        "6486": 129,
        "6487": 194,
        "6488": 110,
        "6489": 127,
        "6490": 109,
        "6491": 3,
        "6492": 181,
        "6493": 246,
        "6494": 124,
        "6495": 49,
        "6496": 4,
        "6497": 30,
        "6498": 75,
        "6499": 188,
        "6500": 117,
        "6501": 25,
        "6502": 206,
        "6503": 33,
        "6504": 99,
        "6505": 236,
        "6506": 77,
        "6507": 84,
        "6508": 4,
        "6509": 0,
        "6510": 47,
        "6511": 62,
        "6512": 55,
        "6513": 79,
        "6514": 246,
        "6515": 8,
        "6516": 164,
        "6517": 22,
        "6518": 206,
        "6519": 7,
        "6520": 25,
        "6521": 62,
        "6522": 212,
        "6523": 88,
        "6524": 155,
        "6525": 165,
        "6526": 144,
        "6527": 21,
        "6528": 254,
        "6529": 83,
        "6530": 226,
        "6531": 185,
        "6532": 53,
        "6533": 162,
        "6534": 96,
        "6535": 213,
        "6536": 135,
        "6537": 160,
        "6538": 232,
        "6539": 199,
        "6540": 105,
        "6541": 146,
        "6542": 205,
        "6543": 164,
        "6544": 173,
        "6545": 165,
        "6546": 100,
        "6547": 29,
        "6548": 90,
        "6549": 18,
        "6550": 62,
        "6551": 153,
        "6552": 48,
        "6553": 7,
        "6554": 195,
        "6555": 178,
        "6556": 180,
        "6557": 178,
        "6558": 120,
        "6559": 190,
        "6560": 212,
        "6561": 133,
        "6562": 72,
        "6563": 198,
        "6564": 231,
        "6565": 226,
        "6566": 166,
        "6567": 13,
        "6568": 168,
        "6569": 172,
        "6570": 206,
        "6571": 250,
        "6572": 47,
        "6573": 113,
        "6574": 104,
        "6575": 83,
        "6576": 217,
        "6577": 22,
        "6578": 120,
        "6579": 67,
        "6580": 3,
        "6581": 201,
        "6582": 244,
        "6583": 163,
        "6584": 38,
        "6585": 180,
        "6586": 159,
        "6587": 208,
        "6588": 133,
        "6589": 175,
        "6590": 247,
        "6591": 116,
        "6592": 16,
        "6593": 216,
        "6594": 73,
        "6595": 33,
        "6596": 37,
        "6597": 155,
        "6598": 148,
        "6599": 129,
        "6600": 78,
        "6601": 143,
        "6602": 238,
        "6603": 240,
        "6604": 32,
        "6605": 118,
        "6606": 172,
        "6607": 94,
        "6608": 25,
        "6609": 140,
        "6610": 31,
        "6611": 10,
        "6612": 245,
        "6613": 92,
        "6614": 25,
        "6615": 1,
        "6616": 134,
        "6617": 123,
        "6618": 12,
        "6619": 53,
        "6620": 161,
        "6621": 15,
        "6622": 237,
        "6623": 247,
        "6624": 225,
        "6625": 133,
        "6626": 114,
        "6627": 30,
        "6628": 197,
        "6629": 161,
        "6630": 210,
        "6631": 231,
        "6632": 173,
        "6633": 112,
        "6634": 173,
        "6635": 197,
        "6636": 155,
        "6637": 224,
        "6638": 89,
        "6639": 186,
        "6640": 41,
        "6641": 132,
        "6642": 245,
        "6643": 183,
        "6644": 96,
        "6645": 74,
        "6646": 11,
        "6647": 8,
        "6648": 43,
        "6649": 68,
        "6650": 60,
        "6651": 145,
        "6652": 106,
        "6653": 237,
        "6654": 93,
        "6655": 242,
        "6656": 255,
        "6657": 26,
        "6658": 49,
        "6659": 211,
        "6660": 251,
        "6661": 239,
        "6662": 231,
        "6663": 48,
        "6664": 194,
        "6665": 2,
        "6666": 62,
        "6667": 39,
        "6668": 193,
        "6669": 24,
        "6670": 35,
        "6671": 243,
        "6672": 64,
        "6673": 226,
        "6674": 198,
        "6675": 29,
        "6676": 4,
        "6677": 26,
        "6678": 121,
        "6679": 93,
        "6680": 162,
        "6681": 134,
        "6682": 247,
        "6683": 40,
        "6684": 66,
        "6685": 38,
        "6686": 60,
        "6687": 9,
        "6688": 244,
        "6689": 202,
        "6690": 58,
        "6691": 238,
        "6692": 55,
        "6693": 29,
        "6694": 20,
        "6695": 182,
        "6696": 86,
        "6697": 41,
        "6698": 194,
        "6699": 182,
        "6700": 50,
        "6701": 235,
        "6702": 87,
        "6703": 241,
        "6704": 2,
        "6705": 198,
        "6706": 112,
        "6707": 92,
        "6708": 13,
        "6709": 34,
        "6710": 123,
        "6711": 14,
        "6712": 222,
        "6713": 114,
        "6714": 219,
        "6715": 209,
        "6716": 118,
        "6717": 198,
        "6718": 35,
        "6719": 72,
        "6720": 187,
        "6721": 199,
        "6722": 159,
        "6723": 10,
        "6724": 215,
        "6725": 215,
        "6726": 157,
        "6727": 91,
        "6728": 139,
        "6729": 232,
        "6730": 1,
        "6731": 197,
        "6732": 206,
        "6733": 146,
        "6734": 174,
        "6735": 22,
        "6736": 112,
        "6737": 157,
        "6738": 104,
        "6739": 107,
        "6740": 32,
        "6741": 161,
        "6742": 121,
        "6743": 89,
        "6744": 140,
        "6745": 114,
        "6746": 110,
        "6747": 132,
        "6748": 152,
        "6749": 182,
        "6750": 36,
        "6751": 103,
        "6752": 249,
        "6753": 251,
        "6754": 148,
        "6755": 80,
        "6756": 22,
        "6757": 162,
        "6758": 196,
        "6759": 243,
        "6760": 232,
        "6761": 107,
        "6762": 55,
        "6763": 41,
        "6764": 122,
        "6765": 143,
        "6766": 35,
        "6767": 101,
        "6768": 140,
        "6769": 20,
        "6770": 86,
        "6771": 164,
        "6772": 100,
        "6773": 81,
        "6774": 212,
        "6775": 35,
        "6776": 29,
        "6777": 254,
        "6778": 72,
        "6779": 190,
        "6780": 85,
        "6781": 220,
        "6782": 17,
        "6783": 140,
        "6784": 83,
        "6785": 61,
        "6786": 167,
        "6787": 218,
        "6788": 240,
        "6789": 97,
        "6790": 216,
        "6791": 32,
        "6792": 72,
        "6793": 98,
        "6794": 216,
        "6795": 82,
        "6796": 172,
        "6797": 37,
        "6798": 6,
        "6799": 59,
        "6800": 130,
        "6801": 63,
        "6802": 9,
        "6803": 211,
        "6804": 107,
        "6805": 7,
        "6806": 232,
        "6807": 184,
        "6808": 189,
        "6809": 10,
        "6810": 150,
        "6811": 12,
        "6812": 92,
        "6813": 16,
        "6814": 67,
        "6815": 33,
        "6816": 24,
        "6817": 185,
        "6818": 159,
        "6819": 197,
        "6820": 69,
        "6821": 126,
        "6822": 138,
        "6823": 201,
        "6824": 45,
        "6825": 169,
        "6826": 171,
        "6827": 241,
        "6828": 216,
        "6829": 171,
        "6830": 177,
        "6831": 208,
        "6832": 220,
        "6833": 14,
        "6834": 195,
        "6835": 123,
        "6836": 20,
        "6837": 144,
        "6838": 215,
        "6839": 218,
        "6840": 233,
        "6841": 199,
        "6842": 53,
        "6843": 129,
        "6844": 163,
        "6845": 237,
        "6846": 111,
        "6847": 86,
        "6848": 47,
        "6849": 173,
        "6850": 180,
        "6851": 100,
        "6852": 46,
        "6853": 199,
        "6854": 113,
        "6855": 50,
        "6856": 128,
        "6857": 175,
        "6858": 31,
        "6859": 34,
        "6860": 137,
        "6861": 214,
        "6862": 49,
        "6863": 132,
        "6864": 240,
        "6865": 125,
        "6866": 213,
        "6867": 9,
        "6868": 139,
        "6869": 64,
        "6870": 160,
        "6871": 234,
        "6872": 74,
        "6873": 64,
        "6874": 44,
        "6875": 107,
        "6876": 194,
        "6877": 139,
        "6878": 147,
        "6879": 178,
        "6880": 65,
        "6881": 13,
        "6882": 154,
        "6883": 39,
        "6884": 252,
        "6885": 175,
        "6886": 9,
        "6887": 92,
        "6888": 245,
        "6889": 37,
        "6890": 77,
        "6891": 238,
        "6892": 7,
        "6893": 81,
        "6894": 5,
        "6895": 81,
        "6896": 179,
        "6897": 97,
        "6898": 26,
        "6899": 252,
        "6900": 91,
        "6901": 152,
        "6902": 129,
        "6903": 27,
        "6904": 184,
        "6905": 2,
        "6906": 141,
        "6907": 93,
        "6908": 21,
        "6909": 165,
        "6910": 4,
        "6911": 177,
        "6912": 96,
        "6913": 236,
        "6914": 69,
        "6915": 179,
        "6916": 85,
        "6917": 229,
        "6918": 86,
        "6919": 4,
        "6920": 37,
        "6921": 189,
        "6922": 102,
        "6923": 87,
        "6924": 127,
        "6925": 63,
        "6926": 116,
        "6927": 232,
        "6928": 165,
        "6929": 252,
        "6930": 80,
        "6931": 151,
        "6932": 28,
        "6933": 64,
        "6934": 22,
        "6935": 160,
        "6936": 197,
        "6937": 34,
        "6938": 216,
        "6939": 210,
        "6940": 185,
        "6941": 20,
        "6942": 102,
        "6943": 8,
        "6944": 64,
        "6945": 168,
        "6946": 114,
        "6947": 25,
        "6948": 16,
        "6949": 145,
        "6950": 229,
        "6951": 103,
        "6952": 122,
        "6953": 143,
        "6954": 97,
        "6955": 132,
        "6956": 30,
        "6957": 76,
        "6958": 93,
        "6959": 53,
        "6960": 97,
        "6961": 63,
        "6962": 120,
        "6963": 67,
        "6964": 67,
        "6965": 161,
        "6966": 62,
        "6967": 204,
        "6968": 25,
        "6969": 98,
        "6970": 200,
        "6971": 186,
        "6972": 82,
        "6973": 84,
        "6974": 223,
        "6975": 130,
        "6976": 134,
        "6977": 72,
        "6978": 11,
        "6979": 124,
        "6980": 73,
        "6981": 181,
        "6982": 20,
        "6983": 252,
        "6984": 45,
        "6985": 202,
        "6986": 208,
        "6987": 114,
        "6988": 212,
        "6989": 97,
        "6990": 115,
        "6991": 101,
        "6992": 136,
        "6993": 29,
        "6994": 212,
        "6995": 53,
        "6996": 192,
        "6997": 206,
        "6998": 53,
        "6999": 2,
        "7000": 206,
        "7001": 250,
        "7002": 236,
        "7003": 5,
        "7004": 35,
        "7005": 93,
        "7006": 117,
        "7007": 3,
        "7008": 193,
        "7009": 213,
        "7010": 102,
        "7011": 29,
        "7012": 214,
        "7013": 233,
        "7014": 194,
        "7015": 132,
        "7016": 189,
        "7017": 19,
        "7018": 235,
        "7019": 239,
        "7020": 165,
        "7021": 151,
        "7022": 30,
        "7023": 106,
        "7024": 149,
        "7025": 198,
        "7026": 29,
        "7027": 132,
        "7028": 178,
        "7029": 38,
        "7030": 232,
        "7031": 206,
        "7032": 136,
        "7033": 192,
        "7034": 89,
        "7035": 183,
        "7036": 99,
        "7037": 180,
        "7038": 24,
        "7039": 56,
        "7040": 86,
        "7041": 185,
        "7042": 56,
        "7043": 54,
        "7044": 85,
        "7045": 235,
        "7046": 253,
        "7047": 9,
        "7048": 204,
        "7049": 254,
        "7050": 37,
        "7051": 177,
        "7052": 25,
        "7053": 216,
        "7054": 66,
        "7055": 33,
        "7056": 104,
        "7057": 131,
        "7058": 208,
        "7059": 85,
        "7060": 158,
        "7061": 183,
        "7062": 131,
        "7063": 2,
        "7064": 247,
        "7065": 154,
        "7066": 27,
        "7067": 105,
        "7068": 70,
        "7069": 46,
        "7070": 57,
        "7071": 106,
        "7072": 11,
        "7073": 89,
        "7074": 141,
        "7075": 224,
        "7076": 33,
        "7077": 196,
        "7078": 155,
        "7079": 13,
        "7080": 41,
        "7081": 82,
        "7082": 106,
        "7083": 195,
        "7084": 31,
        "7085": 158,
        "7086": 25,
        "7087": 60,
        "7088": 37,
        "7089": 9,
        "7090": 35,
        "7091": 216,
        "7092": 154,
        "7093": 227,
        "7094": 40,
        "7095": 202,
        "7096": 217,
        "7097": 234,
        "7098": 230,
        "7099": 133,
        "7100": 86,
        "7101": 78,
        "7102": 165,
        "7103": 86,
        "7104": 88,
        "7105": 246,
        "7106": 53,
        "7107": 172,
        "7108": 4,
        "7109": 20,
        "7110": 92,
        "7111": 175,
        "7112": 43,
        "7113": 116,
        "7114": 149,
        "7115": 44,
        "7116": 202,
        "7117": 70,
        "7118": 108,
        "7119": 10,
        "7120": 237,
        "7121": 102,
        "7122": 131,
        "7123": 44,
        "7124": 8,
        "7125": 218,
        "7126": 91,
        "7127": 79,
        "7128": 246,
        "7129": 152,
        "7130": 22,
        "7131": 130,
        "7132": 193,
        "7133": 182,
        "7134": 42,
        "7135": 187,
        "7136": 57,
        "7137": 20,
        "7138": 169,
        "7139": 170,
        "7140": 96,
        "7141": 109,
        "7142": 71,
        "7143": 204,
        "7144": 225,
        "7145": 33,
        "7146": 1,
        "7147": 243,
        "7148": 114,
        "7149": 112,
        "7150": 250,
        "7151": 41,
        "7152": 83,
        "7153": 134,
        "7154": 140,
        "7155": 195,
        "7156": 168,
        "7157": 66,
        "7158": 67,
        "7159": 243,
        "7160": 235,
        "7161": 227,
        "7162": 89,
        "7163": 95,
        "7164": 70,
        "7165": 110,
        "7166": 207,
        "7167": 13,
        "7168": 51,
        "7169": 165,
        "7170": 221,
        "7171": 65,
        "7172": 234,
        "7173": 107,
        "7174": 214,
        "7175": 29,
        "7176": 203,
        "7177": 183,
        "7178": 238,
        "7179": 6,
        "7180": 108,
        "7181": 109,
        "7182": 52,
        "7183": 96,
        "7184": 169,
        "7185": 178,
        "7186": 118,
        "7187": 222,
        "7188": 140,
        "7189": 228,
        "7190": 6,
        "7191": 97,
        "7192": 125,
        "7193": 205,
        "7194": 42,
        "7195": 76,
        "7196": 55,
        "7197": 216,
        "7198": 174,
        "7199": 246,
        "7200": 100,
        "7201": 167,
        "7202": 171,
        "7203": 122,
        "7204": 22,
        "7205": 253,
        "7206": 189,
        "7207": 60,
        "7208": 46,
        "7209": 50,
        "7210": 51,
        "7211": 107,
        "7212": 110,
        "7213": 51,
        "7214": 172,
        "7215": 81,
        "7216": 254,
        "7217": 11,
        "7218": 174,
        "7219": 142,
        "7220": 43,
        "7221": 233,
        "7222": 247,
        "7223": 211,
        "7224": 230,
        "7225": 38,
        "7226": 243,
        "7227": 3,
        "7228": 63,
        "7229": 153,
        "7230": 212,
        "7231": 186,
        "7232": 165,
        "7233": 172,
        "7234": 232,
        "7235": 111,
        "7236": 9,
        "7237": 76,
        "7238": 25,
        "7239": 231,
        "7240": 75,
        "7241": 227,
        "7242": 178,
        "7243": 56,
        "7244": 117,
        "7245": 211,
        "7246": 79,
        "7247": 246,
        "7248": 9,
        "7249": 147,
        "7250": 167,
        "7251": 78,
        "7252": 64,
        "7253": 123,
        "7254": 216,
        "7255": 100,
        "7256": 1,
        "7257": 189,
        "7258": 139,
        "7259": 222,
        "7260": 70,
        "7261": 141,
        "7262": 32,
        "7263": 163,
        "7264": 134,
        "7265": 92,
        "7266": 214,
        "7267": 239,
        "7268": 82,
        "7269": 55,
        "7270": 220,
        "7271": 207,
        "7272": 16,
        "7273": 148,
        "7274": 75,
        "7275": 75,
        "7276": 82,
        "7277": 12,
        "7278": 134,
        "7279": 57,
        "7280": 142,
        "7281": 21,
        "7282": 221,
        "7283": 26,
        "7284": 59,
        "7285": 20,
        "7286": 214,
        "7287": 249,
        "7288": 138,
        "7289": 56,
        "7290": 185,
        "7291": 202,
        "7292": 222,
        "7293": 1,
        "7294": 245,
        "7295": 170,
        "7296": 128,
        "7297": 33,
        "7298": 22,
        "7299": 137,
        "7300": 32,
        "7301": 233,
        "7302": 248,
        "7303": 156,
        "7304": 67,
        "7305": 247,
        "7306": 33,
        "7307": 69,
        "7308": 158,
        "7309": 20,
        "7310": 8,
        "7311": 164,
        "7312": 250,
        "7313": 235,
        "7314": 242,
        "7315": 81,
        "7316": 240,
        "7317": 142,
        "7318": 62,
        "7319": 217,
        "7320": 138,
        "7321": 216,
        "7322": 185,
        "7323": 160,
        "7324": 190,
        "7325": 182,
        "7326": 120,
        "7327": 24,
        "7328": 9,
        "7329": 239,
        "7330": 51,
        "7331": 66,
        "7332": 2,
        "7333": 216,
        "7334": 43,
        "7335": 108,
        "7336": 17,
        "7337": 46,
        "7338": 79,
        "7339": 192,
        "7340": 76,
        "7341": 138,
        "7342": 156,
        "7343": 75,
        "7344": 112,
        "7345": 1,
        "7346": 101,
        "7347": 57,
        "7348": 81,
        "7349": 107,
        "7350": 244,
        "7351": 65,
        "7352": 232,
        "7353": 151,
        "7354": 104,
        "7355": 196,
        "7356": 9,
        "7357": 159,
        "7358": 198,
        "7359": 125,
        "7360": 140,
        "7361": 31,
        "7362": 217,
        "7363": 77,
        "7364": 82,
        "7365": 69,
        "7366": 19,
        "7367": 19,
        "7368": 16,
        "7369": 253,
        "7370": 153,
        "7371": 188,
        "7372": 177,
        "7373": 116,
        "7374": 66,
        "7375": 234,
        "7376": 148,
        "7377": 1,
        "7378": 250,
        "7379": 192,
        "7380": 233,
        "7381": 179,
        "7382": 18,
        "7383": 187,
        "7384": 223,
        "7385": 26,
        "7386": 43,
        "7387": 234,
        "7388": 54,
        "7389": 211,
        "7390": 6,
        "7391": 227,
        "7392": 30,
        "7393": 92,
        "7394": 237,
        "7395": 186,
        "7396": 44,
        "7397": 170,
        "7398": 107,
        "7399": 183,
        "7400": 129,
        "7401": 87,
        "7402": 226,
        "7403": 44,
        "7404": 160,
        "7405": 167,
        "7406": 44,
        "7407": 226,
        "7408": 120,
        "7409": 217,
        "7410": 143,
        "7411": 184,
        "7412": 142,
        "7413": 111,
        "7414": 1,
        "7415": 81,
        "7416": 66,
        "7417": 188,
        "7418": 25,
        "7419": 37,
        "7420": 55,
        "7421": 83,
        "7422": 43,
        "7423": 53,
        "7424": 111,
        "7425": 69,
        "7426": 23,
        "7427": 21,
        "7428": 153,
        "7429": 10,
        "7430": 35,
        "7431": 31,
        "7432": 50,
        "7433": 196,
        "7434": 199,
        "7435": 188,
        "7436": 28,
        "7437": 173,
        "7438": 146,
        "7439": 175,
        "7440": 42,
        "7441": 112,
        "7442": 248,
        "7443": 180,
        "7444": 242,
        "7445": 174,
        "7446": 175,
        "7447": 7,
        "7448": 208,
        "7449": 124,
        "7450": 251,
        "7451": 17,
        "7452": 19,
        "7453": 132,
        "7454": 254,
        "7455": 222,
        "7456": 74,
        "7457": 138,
        "7458": 243,
        "7459": 91,
        "7460": 77,
        "7461": 242,
        "7462": 120,
        "7463": 107,
        "7464": 54,
        "7465": 245,
        "7466": 116,
        "7467": 175,
        "7468": 163,
        "7469": 150,
        "7470": 92,
        "7471": 14,
        "7472": 255,
        "7473": 164,
        "7474": 169,
        "7475": 0,
        "7476": 141,
        "7477": 238,
        "7478": 83,
        "7479": 244,
        "7480": 58,
        "7481": 0,
        "7482": 249,
        "7483": 110,
        "7484": 140,
        "7485": 177,
        "7486": 236,
        "7487": 29,
        "7488": 245,
        "7489": 231,
        "7490": 6,
        "7491": 195,
        "7492": 94,
        "7493": 17,
        "7494": 36,
        "7495": 227,
        "7496": 72,
        "7497": 145,
        "7498": 239,
        "7499": 1,
        "7500": 128,
        "7501": 235,
        "7502": 62,
        "7503": 18,
        "7504": 189,
        "7505": 95,
        "7506": 47,
        "7507": 119,
        "7508": 35,
        "7509": 184,
        "7510": 16,
        "7511": 220,
        "7512": 195,
        "7513": 2,
        "7514": 156,
        "7515": 249,
        "7516": 242,
        "7517": 95,
        "7518": 11,
        "7519": 227,
        "7520": 229,
        "7521": 60,
        "7522": 104,
        "7523": 154,
        "7524": 158,
        "7525": 203,
        "7526": 242,
        "7527": 95,
        "7528": 73,
        "7529": 54,
        "7530": 27,
        "7531": 84,
        "7532": 234,
        "7533": 185,
        "7534": 38,
        "7535": 87,
        "7536": 59,
        "7537": 209,
        "7538": 181,
        "7539": 255,
        "7540": 230,
        "7541": 169,
        "7542": 141,
        "7543": 193,
        "7544": 104,
        "7545": 155,
        "7546": 188,
        "7547": 190,
        "7548": 109,
        "7549": 87,
        "7550": 136,
        "7551": 163,
        "7552": 35,
        "7553": 172,
        "7554": 172,
        "7555": 167,
        "7556": 157,
        "7557": 48,
        "7558": 149,
        "7559": 155,
        "7560": 188,
        "7561": 17,
        "7562": 165,
        "7563": 238,
        "7564": 44,
        "7565": 36,
        "7566": 7,
        "7567": 10,
        "7568": 75,
        "7569": 198,
        "7570": 12,
        "7571": 28,
        "7572": 64,
        "7573": 7,
        "7574": 30,
        "7575": 229,
        "7576": 20,
        "7577": 124,
        "7578": 81,
        "7579": 81,
        "7580": 171,
        "7581": 114,
        "7582": 179,
        "7583": 13,
        "7584": 40,
        "7585": 187,
        "7586": 171,
        "7587": 154,
        "7588": 13,
        "7589": 228,
        "7590": 211,
        "7591": 64,
        "7592": 192,
        "7593": 207,
        "7594": 100,
        "7595": 243,
        "7596": 54,
        "7597": 186,
        "7598": 42,
        "7599": 229,
        "7600": 101,
        "7601": 228,
        "7602": 222,
        "7603": 118,
        "7604": 201,
        "7605": 225,
        "7606": 190,
        "7607": 235,
        "7608": 81,
        "7609": 120,
        "7610": 228,
        "7611": 35,
        "7612": 247,
        "7613": 191,
        "7614": 250,
        "7615": 3,
        "7616": 173,
        "7617": 28,
        "7618": 102,
        "7619": 14,
        "7620": 175,
        "7621": 184,
        "7622": 198,
        "7623": 98,
        "7624": 59,
        "7625": 110,
        "7626": 78,
        "7627": 100,
        "7628": 212,
        "7629": 36,
        "7630": 170,
        "7631": 172,
        "7632": 218,
        "7633": 148,
        "7634": 132,
        "7635": 42,
        "7636": 34,
        "7637": 250,
        "7638": 158,
        "7639": 160,
        "7640": 114,
        "7641": 104,
        "7642": 37,
        "7643": 0,
        "7644": 191,
        "7645": 252,
        "7646": 10,
        "7647": 208,
        "7648": 249,
        "7649": 170,
        "7650": 37,
        "7651": 160,
        "7652": 84,
        "7653": 138,
        "7654": 75,
        "7655": 162,
        "7656": 174,
        "7657": 205,
        "7658": 92,
        "7659": 247,
        "7660": 57,
        "7661": 125,
        "7662": 86,
        "7663": 78,
        "7664": 189,
        "7665": 255,
        "7666": 2,
        "7667": 17,
        "7668": 122,
        "7669": 229,
        "7670": 129,
        "7671": 118,
        "7672": 108,
        "7673": 35,
        "7674": 92,
        "7675": 40,
        "7676": 235,
        "7677": 38,
        "7678": 222,
        "7679": 86,
        "7680": 245,
        "7681": 177,
        "7682": 160,
        "7683": 187,
        "7684": 182,
        "7685": 75,
        "7686": 245,
        "7687": 127,
        "7688": 160,
        "7689": 29,
        "7690": 107,
        "7691": 135,
        "7692": 195,
        "7693": 10,
        "7694": 59,
        "7695": 198,
        "7696": 122,
        "7697": 111,
        "7698": 225,
        "7699": 116,
        "7700": 249,
        "7701": 80,
        "7702": 168,
        "7703": 109,
        "7704": 56,
        "7705": 255,
        "7706": 129,
        "7707": 216,
        "7708": 9,
        "7709": 78,
        "7710": 79,
        "7711": 143,
        "7712": 17,
        "7713": 177,
        "7714": 187,
        "7715": 33,
        "7716": 222,
        "7717": 230,
        "7718": 191,
        "7719": 162,
        "7720": 30,
        "7721": 191,
        "7722": 166,
        "7723": 28,
        "7724": 108,
        "7725": 60,
        "7726": 127,
        "7727": 53,
        "7728": 21,
        "7729": 63,
        "7730": 228,
        "7731": 82,
        "7732": 136,
        "7733": 38,
        "7734": 182,
        "7735": 209,
        "7736": 158,
        "7737": 242,
        "7738": 123,
        "7739": 32,
        "7740": 12,
        "7741": 30,
        "7742": 239,
        "7743": 157,
        "7744": 0,
        "7745": 49,
        "7746": 55,
        "7747": 61,
        "7748": 123,
        "7749": 199,
        "7750": 56,
        "7751": 146,
        "7752": 86,
        "7753": 166,
        "7754": 119,
        "7755": 94,
        "7756": 54,
        "7757": 110,
        "7758": 52,
        "7759": 24,
        "7760": 27,
        "7761": 46,
        "7762": 212,
        "7763": 78,
        "7764": 78,
        "7765": 185,
        "7766": 216,
        "7767": 109,
        "7768": 251,
        "7769": 33,
        "7770": 201,
        "7771": 192,
        "7772": 92,
        "7773": 110,
        "7774": 237,
        "7775": 2,
        "7776": 171,
        "7777": 200,
        "7778": 114,
        "7779": 1,
        "7780": 172,
        "7781": 183,
        "7782": 138,
        "7783": 230,
        "7784": 195,
        "7785": 227,
        "7786": 74,
        "7787": 158,
        "7788": 232,
        "7789": 237,
        "7790": 231,
        "7791": 127,
        "7792": 195,
        "7793": 103,
        "7794": 191,
        "7795": 62,
        "7796": 43,
        "7797": 86,
        "7798": 172,
        "7799": 21,
        "7800": 178,
        "7801": 84,
        "7802": 231,
        "7803": 229,
        "7804": 12,
        "7805": 67,
        "7806": 155,
        "7807": 60,
        "7808": 26,
        "7809": 28,
        "7810": 255,
        "7811": 56,
        "7812": 155,
        "7813": 148,
        "7814": 140,
        "7815": 159,
        "7816": 106,
        "7817": 142,
        "7818": 62,
        "7819": 37,
        "7820": 203,
        "7821": 216,
        "7822": 98,
        "7823": 62,
        "7824": 85,
        "7825": 129,
        "7826": 54,
        "7827": 111,
        "7828": 194,
        "7829": 97,
        "7830": 88,
        "7831": 123,
        "7832": 103,
        "7833": 223,
        "7834": 217,
        "7835": 182,
        "7836": 191,
        "7837": 156,
        "7838": 223,
        "7839": 129,
        "7840": 168,
        "7841": 108,
        "7842": 213,
        "7843": 235,
        "7844": 190,
        "7845": 124,
        "7846": 239,
        "7847": 134,
        "7848": 216,
        "7849": 217,
        "7850": 173,
        "7851": 76,
        "7852": 37,
        "7853": 244,
        "7854": 139,
        "7855": 111,
        "7856": 238,
        "7857": 219,
        "7858": 73,
        "7859": 52,
        "7860": 87,
        "7861": 113,
        "7862": 224,
        "7863": 198,
        "7864": 170,
        "7865": 106,
        "7866": 105,
        "7867": 15,
        "7868": 113,
        "7869": 247,
        "7870": 31,
        "7871": 18,
        "7872": 45,
        "7873": 123,
        "7874": 158,
        "7875": 90,
        "7876": 174,
        "7877": 179,
        "7878": 69,
        "7879": 37,
        "7880": 132,
        "7881": 251,
        "7882": 51,
        "7883": 49,
        "7884": 83,
        "7885": 144,
        "7886": 34,
        "7887": 210,
        "7888": 186,
        "7889": 136,
        "7890": 202,
        "7891": 99,
        "7892": 57,
        "7893": 220,
        "7894": 41,
        "7895": 114,
        "7896": 197,
        "7897": 95,
        "7898": 53,
        "7899": 116,
        "7900": 85,
        "7901": 158,
        "7902": 201,
        "7903": 179,
        "7904": 241,
        "7905": 0,
        "7906": 85,
        "7907": 146,
        "7908": 161,
        "7909": 70,
        "7910": 223,
        "7911": 196,
        "7912": 14,
        "7913": 208,
        "7914": 221,
        "7915": 222,
        "7916": 70,
        "7917": 185,
        "7918": 144,
        "7919": 129,
        "7920": 55,
        "7921": 181,
        "7922": 165,
        "7923": 150,
        "7924": 239,
        "7925": 221,
        "7926": 165,
        "7927": 169,
        "7928": 175,
        "7929": 177,
        "7930": 204,
        "7931": 193,
        "7932": 68,
        "7933": 91,
        "7934": 217,
        "7935": 147,
        "7936": 46,
        "7937": 163,
        "7938": 16,
        "7939": 14,
        "7940": 2,
        "7941": 161,
        "7942": 92,
        "7943": 224,
        "7944": 250,
        "7945": 253,
        "7946": 195,
        "7947": 151,
        "7948": 134,
        "7949": 30,
        "7950": 138,
        "7951": 88,
        "7952": 104,
        "7953": 217,
        "7954": 104,
        "7955": 153,
        "7956": 85,
        "7957": 214,
        "7958": 162,
        "7959": 215,
        "7960": 255,
        "7961": 178,
        "7962": 252,
        "7963": 247,
        "7964": 228,
        "7965": 87,
        "7966": 100,
        "7967": 59,
        "7968": 244,
        "7969": 109,
        "7970": 118,
        "7971": 212,
        "7972": 253,
        "7973": 167,
        "7974": 46,
        "7975": 142,
        "7976": 50,
        "7977": 239,
        "7978": 40,
        "7979": 221,
        "7980": 94,
        "7981": 210,
        "7982": 17,
        "7983": 234,
        "7984": 114,
        "7985": 78,
        "7986": 58,
        "7987": 185,
        "7988": 51,
        "7989": 211,
        "7990": 179,
        "7991": 33,
        "7992": 115,
        "7993": 10,
        "7994": 162,
        "7995": 128,
        "7996": 234,
        "7997": 75,
        "7998": 46,
        "7999": 176,
        "8000": 49,
        "8001": 225,
        "8002": 45,
        "8003": 32,
        "8004": 5,
        "8005": 146,
        "8006": 208,
        "8007": 82,
        "8008": 19,
        "8009": 157,
        "8010": 144,
        "8011": 127,
        "8012": 69,
        "8013": 192,
        "8014": 83,
        "8015": 148,
        "8016": 52,
        "8017": 174,
        "8018": 111,
        "8019": 204,
        "8020": 163,
        "8021": 142,
        "8022": 228,
        "8023": 217,
        "8024": 76,
        "8025": 74,
        "8026": 81,
        "8027": 168,
        "8028": 152,
        "8029": 161,
        "8030": 118,
        "8031": 236,
        "8032": 192,
        "8033": 118,
        "8034": 50,
        "8035": 23,
        "8036": 38,
        "8037": 99,
        "8038": 64,
        "8039": 40,
        "8040": 243,
        "8041": 42,
        "8042": 59,
        "8043": 122,
        "8044": 133,
        "8045": 35,
        "8046": 186,
        "8047": 155,
        "8048": 206,
        "8049": 245,
        "8050": 160,
        "8051": 91,
        "8052": 126,
        "8053": 6,
        "8054": 106,
        "8055": 12,
        "8056": 116,
        "8057": 247,
        "8058": 223,
        "8059": 40,
        "8060": 156,
        "8061": 55,
        "8062": 129,
        "8063": 58,
        "8064": 238,
        "8065": 102,
        "8066": 43,
        "8067": 138,
        "8068": 152,
        "8069": 85,
        "8070": 111,
        "8071": 140,
        "8072": 66,
        "8073": 200,
        "8074": 53,
        "8075": 216,
        "8076": 106,
        "8077": 208,
        "8078": 143,
        "8079": 62,
        "8080": 239,
        "8081": 70,
        "8082": 117,
        "8083": 24,
        "8084": 171,
        "8085": 102,
        "8086": 156,
        "8087": 137,
        "8088": 21,
        "8089": 210,
        "8090": 43,
        "8091": 50,
        "8092": 202,
        "8093": 205,
        "8094": 172,
        "8095": 170,
        "8096": 108,
        "8097": 200,
        "8098": 71,
        "8099": 178,
        "8100": 107,
        "8101": 14,
        "8102": 112,
        "8103": 185,
        "8104": 122,
        "8105": 118,
        "8106": 253,
        "8107": 89,
        "8108": 121,
        "8109": 49,
        "8110": 173,
        "8111": 222,
        "8112": 10,
        "8113": 89,
        "8114": 59,
        "8115": 116,
        "8116": 188,
        "8117": 187,
        "8118": 191,
        "8119": 234,
        "8120": 4,
        "8121": 65,
        "8122": 29,
        "8123": 84,
        "8124": 247,
        "8125": 51,
        "8126": 151,
        "8127": 57,
        "8128": 136,
        "8129": 120,
        "8130": 142,
        "8131": 93,
        "8132": 224,
        "8133": 22,
        "8134": 172,
        "8135": 250,
        "8136": 175,
        "8137": 55,
        "8138": 14,
        "8139": 137,
        "8140": 19,
        "8141": 27,
        "8142": 249,
        "8143": 185,
        "8144": 213,
        "8145": 178,
        "8146": 98,
        "8147": 57,
        "8148": 233,
        "8149": 196,
        "8150": 1,
        "8151": 14,
        "8152": 246,
        "8153": 175,
        "8154": 17,
        "8155": 64,
        "8156": 141,
        "8157": 133,
        "8158": 103,
        "8159": 99,
        "8160": 30,
        "8161": 81,
        "8162": 177,
        "8163": 39,
        "8164": 146,
        "8165": 8,
        "8166": 18,
        "8167": 97,
        "8168": 206,
        "8169": 129,
        "8170": 183,
        "8171": 155,
        "8172": 149,
        "8173": 197,
        "8174": 227,
        "8175": 70,
        "8176": 190,
        "8177": 246,
        "8178": 152,
        "8179": 18,
        "8180": 122,
        "8181": 101,
        "8182": 108,
        "8183": 240,
        "8184": 99,
        "8185": 240,
        "8186": 171,
        "8187": 59,
        "8188": 204,
        "8189": 198,
        "8190": 231,
        "8191": 189,
        "8192": 95,
        "8193": 18,
        "8194": 112,
        "8195": 91,
        "8196": 77,
        "8197": 57,
        "8198": 144,
        "8199": 213,
        "8200": 241,
        "8201": 47,
        "8202": 63,
        "8203": 135,
        "8204": 99,
        "8205": 110,
        "8206": 102,
        "8207": 168,
        "8208": 184,
        "8209": 128,
        "8210": 39,
        "8211": 249,
        "8212": 205,
        "8213": 40,
        "8214": 25,
        "8215": 241,
        "8216": 75,
        "8217": 7,
        "8218": 155,
        "8219": 78,
        "8220": 32,
        "8221": 255,
        "8222": 132,
        "8223": 185,
        "8224": 180,
        "8225": 57,
        "8226": 231,
        "8227": 177,
        "8228": 207,
        "8229": 195,
        "8230": 173,
        "8231": 210,
        "8232": 55,
        "8233": 68,
        "8234": 65,
        "8235": 48,
        "8236": 10,
        "8237": 6,
        "8238": 185,
        "8239": 124,
        "8240": 173,
        "8241": 118,
        "8242": 73,
        "8243": 25,
        "8244": 98,
        "8245": 212,
        "8246": 63,
        "8247": 158,
        "8248": 117,
        "8249": 176,
        "8250": 101,
        "8251": 166,
        "8252": 25,
        "8253": 244,
        "8254": 16,
        "8255": 171,
        "8256": 82,
        "8257": 112,
        "8258": 82,
        "8259": 0,
        "8260": 70,
        "8261": 61,
        "8262": 61,
        "8263": 153,
        "8264": 10,
        "8265": 109,
        "8266": 61,
        "8267": 123,
        "8268": 71,
        "8269": 136,
        "8270": 187,
        "8271": 33,
        "8272": 168,
        "8273": 229,
        "8274": 53,
        "8275": 54,
        "8276": 179,
        "8277": 157,
        "8278": 151,
        "8279": 186,
        "8280": 25,
        "8281": 10,
        "8282": 41,
        "8283": 12,
        "8284": 166,
        "8285": 135,
        "8286": 83,
        "8287": 217,
        "8288": 110,
        "8289": 239,
        "8290": 23,
        "8291": 217,
        "8292": 166,
        "8293": 191,
        "8294": 198,
        "8295": 165,
        "8296": 72,
        "8297": 249,
        "8298": 162,
        "8299": 160,
        "8300": 160,
        "8301": 24,
        "8302": 94,
        "8303": 226,
        "8304": 225,
        "8305": 207,
        "8306": 112,
        "8307": 10,
        "8308": 18,
        "8309": 234,
        "8310": 13,
        "8311": 144,
        "8312": 11,
        "8313": 193,
        "8314": 31,
        "8315": 104,
        "8316": 29,
        "8317": 143,
        "8318": 0,
        "8319": 114,
        "8320": 204,
        "8321": 35,
        "8322": 185,
        "8323": 31,
        "8324": 2,
        "8325": 117,
        "8326": 114,
        "8327": 87,
        "8328": 148,
        "8329": 29,
        "8330": 157,
        "8331": 16,
        "8332": 223,
        "8333": 95,
        "8334": 151,
        "8335": 214,
        "8336": 78,
        "8337": 10,
        "8338": 34,
        "8339": 177,
        "8340": 85,
        "8341": 227,
        "8342": 216,
        "8343": 65,
        "8344": 49,
        "8345": 98,
        "8346": 137,
        "8347": 49,
        "8348": 240,
        "8349": 211,
        "8350": 133,
        "8351": 176,
        "8352": 56,
        "8353": 241,
        "8354": 94,
        "8355": 146,
        "8356": 230,
        "8357": 219,
        "8358": 13,
        "8359": 244,
        "8360": 104,
        "8361": 134,
        "8362": 214,
        "8363": 39,
        "8364": 21,
        "8365": 16,
        "8366": 19,
        "8367": 250,
        "8368": 0,
        "8369": 99,
        "8370": 92,
        "8371": 43,
        "8372": 223,
        "8373": 39,
        "8374": 167,
        "8375": 226,
        "8376": 14,
        "8377": 230,
        "8378": 117,
        "8379": 53,
        "8380": 57,
        "8381": 90,
        "8382": 207,
        "8383": 91,
        "8384": 35,
        "8385": 201,
        "8386": 222,
        "8387": 146,
        "8388": 152,
        "8389": 187,
        "8390": 160,
        "8391": 84,
        "8392": 155,
        "8393": 155,
        "8394": 136,
        "8395": 56,
        "8396": 112,
        "8397": 71,
        "8398": 114,
        "8399": 12,
        "8400": 20,
        "8401": 192,
        "8402": 36,
        "8403": 40,
        "8404": 202,
        "8405": 90,
        "8406": 230,
        "8407": 149,
        "8408": 109,
        "8409": 182,
        "8410": 145,
        "8411": 105,
        "8412": 165,
        "8413": 119,
        "8414": 254,
        "8415": 42,
        "8416": 226,
        "8417": 188,
        "8418": 201,
        "8419": 22,
        "8420": 124,
        "8421": 34,
        "8422": 42,
        "8423": 0,
        "8424": 119,
        "8425": 147,
        "8426": 192,
        "8427": 12,
        "8428": 62,
        "8429": 165,
        "8430": 232,
        "8431": 45,
        "8432": 212,
        "8433": 2,
        "8434": 250,
        "8435": 164,
        "8436": 12,
        "8437": 39,
        "8438": 180,
        "8439": 49,
        "8440": 87,
        "8441": 176,
        "8442": 179,
        "8443": 121,
        "8444": 128,
        "8445": 12,
        "8446": 77,
        "8447": 191,
        "8448": 104,
        "8449": 144,
        "8450": 42,
        "8451": 100,
        "8452": 184,
        "8453": 253,
        "8454": 10,
        "8455": 91,
        "8456": 163,
        "8457": 149,
        "8458": 188,
        "8459": 249,
        "8460": 102,
        "8461": 40,
        "8462": 6,
        "8463": 99,
        "8464": 12,
        "8465": 44,
        "8466": 28,
        "8467": 135,
        "8468": 14,
        "8469": 151,
        "8470": 221,
        "8471": 59,
        "8472": 105,
        "8473": 19,
        "8474": 87,
        "8475": 213,
        "8476": 116,
        "8477": 46,
        "8478": 7,
        "8479": 183,
        "8480": 129,
        "8481": 6,
        "8482": 182,
        "8483": 74,
        "8484": 52,
        "8485": 161,
        "8486": 109,
        "8487": 118,
        "8488": 145,
        "8489": 137,
        "8490": 87,
        "8491": 76,
        "8492": 33,
        "8493": 239,
        "8494": 58,
        "8495": 100,
        "8496": 89,
        "8497": 223,
        "8498": 36,
        "8499": 90,
        "8500": 177,
        "8501": 194,
        "8502": 53,
        "8503": 242,
        "8504": 112,
        "8505": 169,
        "8506": 159,
        "8507": 106,
        "8508": 235,
        "8509": 179,
        "8510": 167,
        "8511": 160,
        "8512": 31,
        "8513": 57,
        "8514": 201,
        "8515": 16,
        "8516": 142,
        "8517": 149,
        "8518": 211,
        "8519": 87,
        "8520": 195,
        "8521": 184,
        "8522": 197,
        "8523": 84,
        "8524": 172,
        "8525": 66,
        "8526": 99,
        "8527": 96,
        "8528": 191,
        "8529": 24,
        "8530": 207,
        "8531": 51,
        "8532": 61,
        "8533": 129,
        "8534": 168,
        "8535": 174,
        "8536": 225,
        "8537": 64,
        "8538": 59,
        "8539": 249,
        "8540": 15,
        "8541": 218,
        "8542": 221,
        "8543": 50,
        "8544": 133,
        "8545": 25,
        "8546": 114,
        "8547": 102,
        "8548": 58,
        "8549": 14,
        "8550": 168,
        "8551": 236,
        "8552": 78,
        "8553": 184,
        "8554": 246,
        "8555": 183,
        "8556": 40,
        "8557": 103,
        "8558": 110,
        "8559": 158,
        "8560": 92,
        "8561": 48,
        "8562": 148,
        "8563": 20,
        "8564": 96,
        "8565": 4,
        "8566": 4,
        "8567": 3,
        "8568": 68,
        "8569": 21,
        "8570": 174,
        "8571": 35,
        "8572": 37,
        "8573": 16,
        "8574": 225,
        "8575": 250,
        "8576": 238,
        "8577": 117,
        "8578": 47,
        "8579": 37,
        "8580": 40,
        "8581": 84,
        "8582": 54,
        "8583": 123,
        "8584": 117,
        "8585": 62,
        "8586": 1,
        "8587": 187,
        "8588": 84,
        "8589": 239,
        "8590": 216,
        "8591": 96,
        "8592": 220,
        "8593": 218,
        "8594": 218,
        "8595": 146,
        "8596": 94,
        "8597": 193,
        "8598": 75,
        "8599": 58,
        "8600": 123,
        "8601": 93,
        "8602": 59,
        "8603": 10,
        "8604": 145,
        "8605": 28,
        "8606": 241,
        "8607": 86,
        "8608": 168,
        "8609": 81,
        "8610": 196,
        "8611": 45,
        "8612": 236,
        "8613": 83,
        "8614": 18,
        "8615": 69,
        "8616": 223,
        "8617": 56,
        "8618": 255,
        "8619": 137,
        "8620": 91,
        "8621": 123,
        "8622": 100,
        "8623": 208,
        "8624": 234,
        "8625": 4,
        "8626": 205,
        "8627": 56,
        "8628": 242,
        "8629": 243,
        "8630": 174,
        "8631": 64,
        "8632": 154,
        "8633": 5,
        "8634": 67,
        "8635": 203,
        "8636": 226,
        "8637": 217,
        "8638": 124,
        "8639": 203,
        "8640": 76,
        "8641": 217,
        "8642": 116,
        "8643": 220,
        "8644": 107,
        "8645": 27,
        "8646": 12,
        "8647": 110,
        "8648": 3,
        "8649": 120,
        "8650": 37,
        "8651": 99,
        "8652": 144,
        "8653": 51,
        "8654": 39,
        "8655": 44,
        "8656": 146,
        "8657": 101,
        "8658": 200,
        "8659": 42,
        "8660": 63,
        "8661": 59,
        "8662": 162,
        "8663": 126,
        "8664": 194,
        "8665": 181,
        "8666": 132,
        "8667": 16,
        "8668": 233,
        "8669": 243,
        "8670": 167,
        "8671": 45,
        "8672": 47,
        "8673": 208,
        "8674": 61,
        "8675": 62,
        "8676": 216,
        "8677": 6,
        "8678": 88,
        "8679": 208,
        "8680": 57,
        "8681": 226,
        "8682": 110,
        "8683": 91,
        "8684": 188,
        "8685": 3,
        "8686": 228,
        "8687": 253,
        "8688": 184,
        "8689": 55,
        "8690": 105,
        "8691": 170,
        "8692": 95,
        "8693": 247,
        "8694": 79,
        "8695": 21,
        "8696": 154,
        "8697": 210,
        "8698": 128,
        "8699": 105,
        "8700": 185,
        "8701": 255,
        "8702": 209,
        "8703": 144,
        "8704": 108,
        "8705": 36,
        "8706": 218,
        "8707": 29,
        "8708": 21,
        "8709": 246,
        "8710": 99,
        "8711": 222,
        "8712": 203,
        "8713": 107,
        "8714": 149,
        "8715": 188,
        "8716": 36,
        "8717": 135,
        "8718": 173,
        "8719": 50,
        "8720": 4,
        "8721": 218,
        "8722": 61,
        "8723": 93,
        "8724": 17,
        "8725": 169,
        "8726": 90,
        "8727": 63,
        "8728": 120,
        "8729": 199,
        "8730": 112,
        "8731": 126,
        "8732": 141,
        "8733": 226,
        "8734": 151,
        "8735": 69,
        "8736": 166,
        "8737": 34,
        "8738": 160,
        "8739": 68,
        "8740": 113,
        "8741": 169,
        "8742": 46,
        "8743": 140,
        "8744": 179,
        "8745": 201,
        "8746": 120,
        "8747": 234,
        "8748": 228,
        "8749": 119,
        "8750": 186,
        "8751": 233,
        "8752": 147,
        "8753": 59,
        "8754": 251,
        "8755": 12,
        "8756": 222,
        "8757": 177,
        "8758": 244,
        "8759": 3,
        "8760": 169,
        "8761": 147,
        "8762": 189,
        "8763": 102,
        "8764": 135,
        "8765": 20,
        "8766": 128,
        "8767": 78,
        "8768": 131,
        "8769": 187,
        "8770": 64,
        "8771": 29,
        "8772": 6,
        "8773": 92,
        "8774": 134,
        "8775": 61,
        "8776": 4,
        "8777": 129,
        "8778": 245,
        "8779": 227,
        "8780": 254,
        "8781": 40,
        "8782": 8,
        "8783": 29,
        "8784": 7,
        "8785": 6,
        "8786": 106,
        "8787": 103,
        "8788": 49,
        "8789": 85,
        "8790": 241,
        "8791": 112,
        "8792": 248,
        "8793": 248,
        "8794": 168,
        "8795": 37,
        "8796": 83,
        "8797": 22,
        "8798": 231,
        "8799": 224,
        "8800": 229,
        "8801": 112,
        "8802": 10,
        "8803": 184,
        "8804": 8,
        "8805": 108,
        "8806": 193,
        "8807": 182,
        "8808": 218,
        "8809": 244,
        "8810": 136,
        "8811": 41,
        "8812": 175,
        "8813": 39,
        "8814": 57,
        "8815": 243,
        "8816": 156,
        "8817": 190,
        "8818": 142,
        "8819": 86,
        "8820": 42,
        "8821": 14,
        "8822": 20,
        "8823": 170,
        "8824": 47,
        "8825": 46,
        "8826": 239,
        "8827": 60,
        "8828": 239,
        "8829": 136,
        "8830": 138,
        "8831": 163,
        "8832": 23,
        "8833": 11,
        "8834": 170,
        "8835": 58,
        "8836": 2,
        "8837": 187,
        "8838": 216,
        "8839": 12,
        "8840": 142,
        "8841": 1,
        "8842": 167,
        "8843": 74,
        "8844": 208,
        "8845": 95,
        "8846": 216,
        "8847": 3,
        "8848": 1,
        "8849": 212,
        "8850": 8,
        "8851": 129,
        "8852": 132,
        "8853": 214,
        "8854": 203,
        "8855": 82,
        "8856": 165,
        "8857": 62,
        "8858": 193,
        "8859": 238,
        "8860": 54,
        "8861": 60,
        "8862": 19,
        "8863": 59,
        "8864": 163,
        "8865": 103,
        "8866": 245,
        "8867": 197,
        "8868": 234,
        "8869": 72,
        "8870": 113,
        "8871": 2,
        "8872": 206,
        "8873": 4,
        "8874": 13,
        "8875": 210,
        "8876": 100,
        "8877": 31,
        "8878": 186,
        "8879": 14,
        "8880": 7,
        "8881": 254,
        "8882": 128,
        "8883": 66,
        "8884": 14,
        "8885": 148,
        "8886": 52,
        "8887": 49,
        "8888": 177,
        "8889": 247,
        "8890": 182,
        "8891": 147,
        "8892": 181,
        "8893": 29,
        "8894": 23,
        "8895": 5,
        "8896": 56,
        "8897": 109,
        "8898": 208,
        "8899": 105,
        "8900": 88,
        "8901": 49,
        "8902": 192,
        "8903": 20,
        "8904": 231,
        "8905": 149,
        "8906": 144,
        "8907": 90,
        "8908": 54,
        "8909": 16,
        "8910": 116,
        "8911": 0,
        "8912": 36,
        "8913": 0,
        "8914": 225,
        "8915": 96,
        "8916": 108,
        "8917": 215,
        "8918": 68,
        "8919": 180,
        "8920": 235,
        "8921": 227,
        "8922": 175,
        "8923": 32,
        "8924": 254,
        "8925": 45,
        "8926": 89,
        "8927": 82,
        "8928": 142,
        "8929": 212,
        "8930": 75,
        "8931": 156,
        "8932": 47,
        "8933": 22,
        "8934": 125,
        "8935": 232,
        "8936": 207,
        "8937": 17,
        "8938": 175,
        "8939": 162,
        "8940": 152,
        "8941": 248,
        "8942": 115,
        "8943": 121,
        "8944": 212,
        "8945": 90,
        "8946": 15,
        "8947": 157,
        "8948": 18,
        "8949": 78,
        "8950": 1,
        "8951": 248,
        "8952": 241,
        "8953": 117,
        "8954": 208,
        "8955": 240,
        "8956": 102,
        "8957": 36,
        "8958": 155,
        "8959": 155,
        "8960": 204,
        "8961": 160,
        "8962": 124,
        "8963": 92,
        "8964": 192,
        "8965": 165,
        "8966": 255,
        "8967": 129,
        "8968": 208,
        "8969": 47,
        "8970": 245,
        "8971": 2,
        "8972": 169,
        "8973": 27,
        "8974": 151,
        "8975": 34,
        "8976": 184,
        "8977": 182,
        "8978": 178,
        "8979": 150,
        "8980": 29,
        "8981": 82,
        "8982": 178,
        "8983": 124,
        "8984": 104,
        "8985": 178,
        "8986": 245,
        "8987": 127,
        "8988": 84,
        "8989": 241,
        "8990": 18,
        "8991": 153,
        "8992": 166,
        "8993": 102,
        "8994": 130,
        "8995": 173,
        "8996": 131,
        "8997": 28,
        "8998": 13,
        "8999": 83,
        "9000": 247,
        "9001": 124,
        "9002": 109,
        "9003": 68,
        "9004": 238,
        "9005": 69,
        "9006": 70,
        "9007": 200,
        "9008": 213,
        "9009": 217,
        "9010": 72,
        "9011": 29,
        "9012": 107,
        "9013": 155,
        "9014": 145,
        "9015": 207,
        "9016": 220,
        "9017": 163,
        "9018": 233,
        "9019": 134,
        "9020": 21,
        "9021": 38,
        "9022": 42,
        "9023": 105,
        "9024": 11,
        "9025": 27,
        "9026": 121,
        "9027": 170,
        "9028": 69,
        "9029": 128,
        "9030": 36,
        "9031": 222,
        "9032": 94,
        "9033": 47,
        "9034": 160,
        "9035": 103,
        "9036": 129,
        "9037": 190,
        "9038": 187,
        "9039": 183,
        "9040": 96,
        "9041": 135,
        "9042": 195,
        "9043": 233,
        "9044": 139,
        "9045": 21,
        "9046": 177,
        "9047": 29,
        "9048": 146,
        "9049": 177,
        "9050": 199,
        "9051": 57,
        "9052": 133,
        "9053": 58,
        "9054": 212,
        "9055": 232,
        "9056": 37,
        "9057": 133,
        "9058": 71,
        "9059": 163,
        "9060": 19,
        "9061": 137,
        "9062": 136,
        "9063": 94,
        "9064": 126,
        "9065": 36,
        "9066": 156,
        "9067": 255,
        "9068": 222,
        "9069": 231,
        "9070": 223,
        "9071": 90,
        "9072": 88,
        "9073": 110,
        "9074": 11,
        "9075": 247,
        "9076": 86,
        "9077": 17,
        "9078": 112,
        "9079": 49,
        "9080": 25,
        "9081": 72,
        "9082": 242,
        "9083": 165,
        "9084": 34,
        "9085": 126,
        "9086": 118,
        "9087": 246,
        "9088": 69,
        "9089": 3,
        "9090": 81,
        "9091": 58,
        "9092": 12,
        "9093": 122,
        "9094": 224,
        "9095": 109,
        "9096": 190,
        "9097": 220,
        "9098": 228,
        "9099": 240,
        "9100": 242,
        "9101": 177,
        "9102": 16,
        "9103": 41,
        "9104": 118,
        "9105": 235,
        "9106": 95,
        "9107": 191,
        "9108": 78,
        "9109": 183,
        "9110": 14,
        "9111": 176,
        "9112": 230,
        "9113": 170,
        "9114": 25,
        "9115": 183,
        "9116": 173,
        "9117": 219,
        "9118": 239,
        "9119": 114,
        "9120": 72,
        "9121": 163,
        "9122": 5,
        "9123": 166,
        "9124": 8,
        "9125": 78,
        "9126": 83,
        "9127": 30,
        "9128": 2,
        "9129": 183,
        "9130": 1,
        "9131": 123,
        "9132": 205,
        "9133": 99,
        "9134": 146,
        "9135": 1,
        "9136": 103,
        "9137": 70,
        "9138": 242,
        "9139": 135,
        "9140": 175,
        "9141": 91,
        "9142": 131,
        "9143": 137,
        "9144": 246,
        "9145": 227,
        "9146": 96,
        "9147": 250,
        "9148": 141,
        "9149": 188,
        "9150": 196,
        "9151": 168,
        "9152": 215,
        "9153": 122,
        "9154": 252,
        "9155": 4,
        "9156": 8,
        "9157": 170,
        "9158": 100,
        "9159": 83,
        "9160": 145,
        "9161": 107,
        "9162": 122,
        "9163": 96,
        "9164": 4,
        "9165": 110,
        "9166": 231,
        "9167": 37,
        "9168": 232,
        "9169": 108,
        "9170": 115,
        "9171": 231,
        "9172": 168,
        "9173": 253,
        "9174": 222,
        "9175": 233,
        "9176": 41,
        "9177": 217,
        "9178": 172,
        "9179": 22,
        "9180": 242,
        "9181": 20,
        "9182": 175,
        "9183": 75,
        "9184": 224,
        "9185": 176,
        "9186": 62,
        "9187": 91,
        "9188": 11,
        "9189": 31,
        "9190": 233,
        "9191": 205,
        "9192": 115,
        "9193": 219,
        "9194": 54,
        "9195": 212,
        "9196": 144,
        "9197": 52,
        "9198": 159,
        "9199": 25,
        "9200": 130,
        "9201": 112,
        "9202": 181,
        "9203": 255,
        "9204": 46,
        "9205": 249,
        "9206": 123,
        "9207": 238,
        "9208": 105,
        "9209": 218,
        "9210": 216,
        "9211": 83,
        "9212": 198,
        "9213": 4,
        "9214": 95,
        "9215": 111,
        "9216": 201,
        "9217": 43,
        "9218": 143,
        "9219": 144,
        "9220": 189,
        "9221": 84,
        "9222": 202,
        "9223": 141,
        "9224": 232,
        "9225": 59,
        "9226": 119,
        "9227": 138,
        "9228": 164,
        "9229": 111,
        "9230": 107,
        "9231": 155,
        "9232": 246,
        "9233": 37,
        "9234": 177,
        "9235": 144,
        "9236": 182,
        "9237": 81,
        "9238": 3,
        "9239": 74,
        "9240": 6,
        "9241": 76,
        "9242": 2,
        "9243": 240,
        "9244": 69,
        "9245": 6,
        "9246": 72,
        "9247": 54,
        "9248": 156,
        "9249": 108,
        "9250": 44,
        "9251": 233,
        "9252": 219,
        "9253": 97,
        "9254": 218,
        "9255": 10,
        "9256": 208,
        "9257": 245,
        "9258": 155,
        "9259": 240,
        "9260": 9,
        "9261": 247,
        "9262": 110,
        "9263": 232,
        "9264": 35,
        "9265": 214,
        "9266": 48,
        "9267": 17,
        "9268": 171,
        "9269": 153,
        "9270": 142,
        "9271": 86,
        "9272": 175,
        "9273": 150,
        "9274": 253,
        "9275": 182,
        "9276": 142,
        "9277": 184,
        "9278": 130,
        "9279": 43,
        "9280": 245,
        "9281": 154,
        "9282": 215,
        "9283": 121,
        "9284": 55,
        "9285": 80,
        "9286": 202,
        "9287": 20,
        "9288": 137,
        "9289": 109,
        "9290": 12,
        "9291": 124,
        "9292": 141,
        "9293": 60,
        "9294": 8,
        "9295": 39,
        "9296": 94,
        "9297": 187,
        "9298": 74,
        "9299": 206,
        "9300": 17,
        "9301": 104,
        "9302": 49,
        "9303": 207,
        "9304": 217,
        "9305": 112,
        "9306": 36,
        "9307": 244,
        "9308": 144,
        "9309": 253,
        "9310": 4,
        "9311": 47,
        "9312": 250,
        "9313": 208,
        "9314": 50,
        "9315": 186,
        "9316": 146,
        "9317": 142,
        "9318": 175,
        "9319": 202,
        "9320": 14,
        "9321": 246,
        "9322": 25,
        "9323": 221,
        "9324": 116,
        "9325": 244,
        "9326": 14,
        "9327": 26,
        "9328": 102,
        "9329": 99,
        "9330": 230,
        "9331": 187,
        "9332": 108,
        "9333": 211,
        "9334": 115,
        "9335": 126,
        "9336": 142,
        "9337": 238,
        "9338": 70,
        "9339": 205,
        "9340": 20,
        "9341": 28,
        "9342": 201,
        "9343": 4,
        "9344": 50,
        "9345": 127,
        "9346": 111,
        "9347": 99,
        "9348": 254,
        "9349": 254,
        "9350": 93,
        "9351": 54,
        "9352": 88,
        "9353": 194,
        "9354": 105,
        "9355": 136,
        "9356": 89,
        "9357": 196,
        "9358": 171,
        "9359": 26,
        "9360": 226,
        "9361": 64,
        "9362": 113,
        "9363": 39,
        "9364": 70,
        "9365": 207,
        "9366": 216,
        "9367": 155,
        "9368": 174,
        "9369": 91,
        "9370": 109,
        "9371": 49,
        "9372": 1,
        "9373": 115,
        "9374": 63,
        "9375": 33,
        "9376": 190,
        "9377": 13,
        "9378": 45,
        "9379": 51,
        "9380": 166,
        "9381": 159,
        "9382": 188,
        "9383": 48,
        "9384": 221,
        "9385": 114,
        "9386": 167,
        "9387": 77,
        "9388": 193,
        "9389": 66,
        "9390": 212,
        "9391": 21,
        "9392": 161,
        "9393": 63,
        "9394": 76,
        "9395": 165,
        "9396": 3,
        "9397": 209,
        "9398": 143,
        "9399": 96,
        "9400": 77,
        "9401": 68,
        "9402": 108,
        "9403": 58,
        "9404": 244,
        "9405": 214,
        "9406": 215,
        "9407": 131,
        "9408": 215,
        "9409": 129,
        "9410": 113,
        "9411": 73,
        "9412": 129,
        "9413": 253,
        "9414": 152,
        "9415": 205,
        "9416": 194,
        "9417": 123,
        "9418": 75,
        "9419": 249,
        "9420": 81,
        "9421": 91,
        "9422": 47,
        "9423": 1,
        "9424": 14,
        "9425": 94,
        "9426": 60,
        "9427": 167,
        "9428": 75,
        "9429": 172,
        "9430": 98,
        "9431": 157,
        "9432": 176,
        "9433": 208,
        "9434": 255,
        "9435": 45,
        "9436": 150,
        "9437": 146,
        "9438": 113,
        "9439": 185,
        "9440": 226,
        "9441": 50,
        "9442": 231,
        "9443": 214,
        "9444": 57,
        "9445": 229,
        "9446": 247,
        "9447": 26,
        "9448": 43,
        "9449": 206,
        "9450": 138,
        "9451": 66,
        "9452": 131,
        "9453": 31,
        "9454": 22,
        "9455": 43,
        "9456": 205,
        "9457": 162,
        "9458": 97,
        "9459": 17,
        "9460": 92,
        "9461": 251,
        "9462": 17,
        "9463": 66,
        "9464": 71,
        "9465": 11,
        "9466": 142,
        "9467": 55,
        "9468": 67,
        "9469": 209,
        "9470": 238,
        "9471": 252,
        "9472": 169,
        "9473": 137,
        "9474": 244,
        "9475": 101,
        "9476": 81,
        "9477": 191,
        "9478": 195,
        "9479": 74,
        "9480": 162,
        "9481": 163,
        "9482": 84,
        "9483": 13,
        "9484": 143,
        "9485": 17,
        "9486": 138,
        "9487": 13,
        "9488": 21,
        "9489": 165,
        "9490": 212,
        "9491": 84,
        "9492": 142,
        "9493": 28,
        "9494": 194,
        "9495": 236,
        "9496": 81,
        "9497": 141,
        "9498": 137,
        "9499": 91,
        "9500": 42,
        "9501": 130,
        "9502": 197,
        "9503": 114,
        "9504": 43,
        "9505": 15,
        "9506": 210,
        "9507": 84,
        "9508": 219,
        "9509": 89,
        "9510": 7,
        "9511": 236,
        "9512": 58,
        "9513": 87,
        "9514": 246,
        "9515": 123,
        "9516": 149,
        "9517": 125,
        "9518": 113,
        "9519": 73,
        "9520": 177,
        "9521": 145,
        "9522": 49,
        "9523": 142,
        "9524": 49,
        "9525": 33,
        "9526": 222,
        "9527": 164,
        "9528": 59,
        "9529": 217,
        "9530": 125,
        "9531": 51,
        "9532": 216,
        "9533": 4,
        "9534": 136,
        "9535": 217,
        "9536": 249,
        "9537": 22,
        "9538": 4,
        "9539": 192,
        "9540": 147,
        "9541": 41,
        "9542": 75,
        "9543": 70,
        "9544": 158,
        "9545": 1,
        "9546": 198,
        "9547": 115,
        "9548": 225,
        "9549": 209,
        "9550": 106,
        "9551": 227,
        "9552": 248,
        "9553": 68,
        "9554": 248,
        "9555": 102,
        "9556": 35,
        "9557": 30,
        "9558": 156,
        "9559": 158,
        "9560": 166,
        "9561": 180,
        "9562": 233,
        "9563": 132,
        "9564": 51,
        "9565": 167,
        "9566": 115,
        "9567": 250,
        "9568": 181,
        "9569": 29,
        "9570": 191,
        "9571": 78,
        "9572": 223,
        "9573": 111,
        "9574": 160,
        "9575": 184,
        "9576": 217,
        "9577": 185,
        "9578": 162,
        "9579": 50,
        "9580": 162,
        "9581": 191,
        "9582": 120,
        "9583": 49,
        "9584": 149,
        "9585": 137,
        "9586": 214,
        "9587": 169,
        "9588": 20,
        "9589": 163,
        "9590": 177,
        "9591": 19,
        "9592": 112,
        "9593": 20,
        "9594": 203,
        "9595": 246,
        "9596": 211,
        "9597": 109,
        "9598": 13,
        "9599": 94,
        "9600": 161,
        "9601": 51,
        "9602": 236,
        "9603": 241,
        "9604": 68,
        "9605": 242,
        "9606": 196,
        "9607": 122,
        "9608": 20,
        "9609": 181,
        "9610": 181,
        "9611": 211,
        "9612": 159,
        "9613": 151,
        "9614": 98,
        "9615": 107,
        "9616": 95,
        "9617": 51,
        "9618": 169,
        "9619": 126,
        "9620": 97,
        "9621": 199,
        "9622": 196,
        "9623": 56,
        "9624": 76,
        "9625": 200,
        "9626": 10,
        "9627": 15,
        "9628": 35,
        "9629": 197,
        "9630": 64,
        "9631": 2,
        "9632": 58,
        "9633": 35,
        "9634": 246,
        "9635": 69,
        "9636": 22,
        "9637": 158,
        "9638": 174,
        "9639": 126,
        "9640": 238,
        "9641": 60,
        "9642": 60,
        "9643": 231,
        "9644": 108,
        "9645": 48,
        "9646": 169,
        "9647": 96,
        "9648": 72,
        "9649": 226,
        "9650": 217,
        "9651": 38,
        "9652": 79,
        "9653": 213,
        "9654": 43,
        "9655": 97,
        "9656": 213,
        "9657": 178,
        "9658": 244,
        "9659": 113,
        "9660": 7,
        "9661": 176,
        "9662": 11,
        "9663": 191,
        "9664": 126,
        "9665": 145,
        "9666": 244,
        "9667": 55,
        "9668": 93,
        "9669": 142,
        "9670": 247,
        "9671": 230,
        "9672": 121,
        "9673": 254,
        "9674": 10,
        "9675": 252,
        "9676": 88,
        "9677": 159,
        "9678": 46,
        "9679": 11,
        "9680": 101,
        "9681": 151,
        "9682": 126,
        "9683": 253,
        "9684": 21,
        "9685": 118,
        "9686": 233,
        "9687": 160,
        "9688": 72,
        "9689": 144,
        "9690": 193,
        "9691": 85,
        "9692": 216,
        "9693": 149,
        "9694": 11,
        "9695": 5,
        "9696": 87,
        "9697": 104,
        "9698": 27,
        "9699": 66,
        "9700": 74,
        "9701": 128,
        "9702": 160,
        "9703": 244,
        "9704": 88,
        "9705": 39,
        "9706": 242,
        "9707": 147,
        "9708": 223,
        "9709": 36,
        "9710": 113,
        "9711": 254,
        "9712": 178,
        "9713": 204,
        "9714": 241,
        "9715": 27,
        "9716": 24,
        "9717": 37,
        "9718": 116,
        "9719": 19,
        "9720": 178,
        "9721": 118,
        "9722": 153,
        "9723": 68,
        "9724": 128,
        "9725": 228,
        "9726": 116,
        "9727": 253,
        "9728": 240,
        "9729": 0,
        "9730": 72,
        "9731": 244,
        "9732": 248,
        "9733": 176,
        "9734": 154,
        "9735": 220,
        "9736": 85,
        "9737": 250,
        "9738": 27,
        "9739": 5,
        "9740": 209,
        "9741": 147,
        "9742": 194,
        "9743": 212,
        "9744": 14,
        "9745": 120,
        "9746": 157,
        "9747": 214,
        "9748": 125,
        "9749": 253,
        "9750": 54,
        "9751": 223,
        "9752": 73,
        "9753": 222,
        "9754": 110,
        "9755": 251,
        "9756": 137,
        "9757": 53,
        "9758": 211,
        "9759": 88,
        "9760": 86,
        "9761": 71,
        "9762": 245,
        "9763": 251,
        "9764": 242,
        "9765": 244,
        "9766": 26,
        "9767": 138,
        "9768": 106,
        "9769": 189,
        "9770": 62,
        "9771": 51,
        "9772": 144,
        "9773": 180,
        "9774": 166,
        "9775": 53,
        "9776": 169,
        "9777": 155,
        "9778": 153,
        "9779": 202,
        "9780": 110,
        "9781": 249,
        "9782": 105,
        "9783": 160,
        "9784": 204,
        "9785": 238,
        "9786": 226,
        "9787": 53,
        "9788": 167,
        "9789": 253,
        "9790": 123,
        "9791": 199,
        "9792": 65,
        "9793": 131,
        "9794": 184,
        "9795": 213,
        "9796": 40,
        "9797": 30,
        "9798": 23,
        "9799": 37,
        "9800": 11,
        "9801": 114,
        "9802": 27,
        "9803": 119,
        "9804": 248,
        "9805": 108,
        "9806": 205,
        "9807": 155,
        "9808": 196,
        "9809": 16,
        "9810": 226,
        "9811": 22,
        "9812": 235,
        "9813": 14,
        "9814": 32,
        "9815": 125,
        "9816": 208,
        "9817": 156,
        "9818": 1,
        "9819": 58,
        "9820": 99,
        "9821": 22,
        "9822": 61,
        "9823": 174,
        "9824": 133,
        "9825": 75,
        "9826": 30,
        "9827": 103,
        "9828": 34,
        "9829": 163,
        "9830": 126,
        "9831": 124,
        "9832": 236,
        "9833": 169,
        "9834": 248,
        "9835": 90,
        "9836": 244,
        "9837": 133,
        "9838": 128,
        "9839": 225,
        "9840": 26,
        "9841": 21,
        "9842": 39,
        "9843": 7,
        "9844": 207,
        "9845": 160,
        "9846": 98,
        "9847": 63,
        "9848": 46,
        "9849": 77,
        "9850": 169,
        "9851": 98,
        "9852": 74,
        "9853": 39,
        "9854": 179,
        "9855": 242,
        "9856": 213,
        "9857": 111,
        "9858": 71,
        "9859": 24,
        "9860": 91,
        "9861": 98,
        "9862": 129,
        "9863": 43,
        "9864": 142,
        "9865": 37,
        "9866": 106,
        "9867": 190,
        "9868": 97,
        "9869": 102,
        "9870": 27,
        "9871": 180,
        "9872": 10,
        "9873": 5,
        "9874": 129,
        "9875": 3,
        "9876": 31,
        "9877": 72,
        "9878": 86,
        "9879": 6,
        "9880": 173,
        "9881": 137,
        "9882": 48,
        "9883": 100,
        "9884": 238,
        "9885": 83,
        "9886": 36,
        "9887": 35,
        "9888": 49,
        "9889": 90,
        "9890": 56,
        "9891": 33,
        "9892": 35,
        "9893": 145,
        "9894": 139,
        "9895": 10,
        "9896": 235,
        "9897": 92,
        "9898": 180,
        "9899": 159,
        "9900": 13,
        "9901": 59,
        "9902": 88,
        "9903": 25,
        "9904": 193,
        "9905": 29,
        "9906": 156,
        "9907": 62,
        "9908": 208,
        "9909": 97,
        "9910": 39,
        "9911": 173,
        "9912": 42,
        "9913": 147,
        "9914": 30,
        "9915": 207,
        "9916": 15,
        "9917": 88,
        "9918": 120,
        "9919": 138,
        "9920": 140,
        "9921": 181,
        "9922": 34,
        "9923": 33,
        "9924": 66,
        "9925": 14,
        "9926": 194,
        "9927": 98,
        "9928": 92,
        "9929": 214,
        "9930": 114,
        "9931": 237,
        "9932": 232,
        "9933": 218,
        "9934": 101,
        "9935": 234,
        "9936": 58,
        "9937": 54,
        "9938": 45,
        "9939": 235,
        "9940": 129,
        "9941": 128,
        "9942": 40,
        "9943": 240,
        "9944": 57,
        "9945": 30,
        "9946": 195,
        "9947": 174,
        "9948": 95,
        "9949": 184,
        "9950": 79,
        "9951": 232,
        "9952": 253,
        "9953": 26,
        "9954": 183,
        "9955": 252,
        "9956": 160,
        "9957": 248,
        "9958": 21,
        "9959": 12,
        "9960": 35,
        "9961": 187,
        "9962": 235,
        "9963": 103,
        "9964": 221,
        "9965": 5,
        "9966": 178,
        "9967": 104,
        "9968": 214,
        "9969": 177,
        "9970": 122,
        "9971": 222,
        "9972": 95,
        "9973": 190,
        "9974": 207,
        "9975": 104,
        "9976": 78,
        "9977": 205,
        "9978": 100,
        "9979": 29,
        "9980": 73,
        "9981": 250,
        "9982": 24,
        "9983": 217,
        "9984": 193,
        "9985": 242,
        "9986": 131,
        "9987": 139,
        "9988": 27,
        "9989": 203,
        "9990": 10,
        "9991": 116,
        "9992": 104,
        "9993": 112,
        "9994": 210,
        "9995": 46,
        "9996": 94,
        "9997": 212,
        "9998": 254,
        "9999": 55,
        "10000": 187,
        "10001": 79,
        "10002": 19,
        "10003": 122,
        "10004": 119,
        "10005": 193,
        "10006": 169,
        "10007": 143,
        "10008": 138,
        "10009": 34,
        "10010": 42,
        "10011": 133,
        "10012": 97,
        "10013": 81,
        "10014": 81,
        "10015": 1,
        "10016": 132,
        "10017": 227,
        "10018": 22,
        "10019": 250,
        "10020": 239,
        "10021": 244,
        "10022": 170,
        "10023": 27,
        "10024": 171,
        "10025": 119,
        "10026": 159,
        "10027": 105,
        "10028": 155,
        "10029": 246,
        "10030": 233,
        "10031": 95,
        "10032": 10,
        "10033": 3,
        "10034": 191,
        "10035": 39,
        "10036": 19,
        "10037": 218,
        "10038": 134,
        "10039": 34,
        "10040": 232,
        "10041": 197,
        "10042": 245,
        "10043": 98,
        "10044": 232,
        "10045": 87,
        "10046": 212,
        "10047": 99,
        "10048": 12,
        "10049": 9,
        "10050": 38,
        "10051": 151,
        "10052": 215,
        "10053": 26,
        "10054": 52,
        "10055": 40,
        "10056": 188,
        "10057": 27,
        "10058": 59,
        "10059": 241,
        "10060": 28,
        "10061": 132,
        "10062": 121,
        "10063": 63,
        "10064": 182,
        "10065": 249,
        "10066": 85,
        "10067": 218,
        "10068": 45,
        "10069": 16,
        "10070": 47,
        "10071": 164,
        "10072": 143,
        "10073": 77,
        "10074": 225,
        "10075": 121,
        "10076": 229,
        "10077": 99,
        "10078": 21,
        "10079": 3,
        "10080": 211,
        "10081": 87,
        "10082": 70,
        "10083": 96,
        "10084": 5,
        "10085": 202,
        "10086": 238,
        "10087": 162,
        "10088": 92,
        "10089": 0,
        "10090": 27,
        "10091": 58,
        "10092": 155,
        "10093": 192,
        "10094": 3,
        "10095": 61,
        "10096": 181,
        "10097": 0,
        "10098": 238,
        "10099": 174,
        "10100": 125,
        "10101": 133,
        "10102": 105,
        "10103": 249,
        "10104": 231,
        "10105": 60,
        "10106": 40,
        "10107": 192,
        "10108": 134,
        "10109": 96,
        "10110": 48,
        "10111": 215,
        "10112": 181,
        "10113": 186,
        "10114": 211,
        "10115": 224,
        "10116": 66,
        "10117": 157,
        "10118": 205,
        "10119": 230,
        "10120": 83,
        "10121": 1,
        "10122": 75,
        "10123": 8,
        "10124": 126,
        "10125": 204,
        "10126": 47,
        "10127": 152,
        "10128": 121,
        "10129": 211,
        "10130": 192,
        "10131": 203,
        "10132": 215,
        "10133": 106,
        "10134": 88,
        "10135": 196,
        "10136": 34,
        "10137": 152,
        "10138": 66,
        "10139": 108,
        "10140": 218,
        "10141": 171,
        "10142": 164,
        "10143": 132,
        "10144": 5,
        "10145": 120,
        "10146": 169,
        "10147": 124,
        "10148": 171,
        "10149": 39,
        "10150": 231,
        "10151": 114,
        "10152": 49,
        "10153": 197,
        "10154": 231,
        "10155": 88,
        "10156": 228,
        "10157": 156,
        "10158": 19,
        "10159": 131,
        "10160": 236,
        "10161": 222,
        "10162": 167,
        "10163": 113,
        "10164": 62,
        "10165": 101,
        "10166": 157,
        "10167": 98,
        "10168": 244,
        "10169": 195,
        "10170": 108,
        "10171": 60,
        "10172": 148,
        "10173": 91,
        "10174": 85,
        "10175": 138,
        "10176": 206,
        "10177": 245,
        "10178": 107,
        "10179": 192,
        "10180": 7,
        "10181": 105,
        "10182": 29,
        "10183": 153,
        "10184": 45,
        "10185": 0,
        "10186": 177,
        "10187": 18,
        "10188": 223,
        "10189": 127,
        "10190": 147,
        "10191": 165,
        "10192": 85,
        "10193": 45,
        "10194": 50,
        "10195": 210,
        "10196": 184,
        "10197": 27,
        "10198": 52,
        "10199": 182,
        "10200": 40,
        "10201": 250,
        "10202": 239,
        "10203": 113,
        "10204": 78,
        "10205": 90,
        "10206": 185,
        "10207": 102,
        "10208": 187,
        "10209": 202,
        "10210": 122,
        "10211": 248,
        "10212": 124,
        "10213": 154,
        "10214": 248,
        "10215": 44,
        "10216": 13,
        "10217": 182,
        "10218": 84,
        "10219": 71,
        "10220": 66,
        "10221": 238,
        "10222": 238,
        "10223": 114,
        "10224": 80,
        "10225": 206,
        "10226": 128,
        "10227": 113,
        "10228": 141,
        "10229": 50,
        "10230": 71,
        "10231": 8,
        "10232": 247,
        "10233": 64,
        "10234": 231,
        "10235": 44,
        "10236": 180,
        "10237": 239,
        "10238": 80,
        "10239": 80,
        "10240": 80,
        "10241": 215,
        "10242": 226,
        "10243": 239,
        "10244": 63,
        "10245": 127,
        "10246": 81,
        "10247": 181,
        "10248": 23,
        "10249": 249,
        "10250": 148,
        "10251": 210,
        "10252": 132,
        "10253": 212,
        "10254": 27,
        "10255": 190,
        "10256": 228,
        "10257": 164,
        "10258": 11,
        "10259": 2,
        "10260": 21,
        "10261": 4,
        "10262": 230,
        "10263": 245,
        "10264": 34,
        "10265": 188,
        "10266": 195,
        "10267": 67,
        "10268": 44,
        "10269": 169,
        "10270": 42,
        "10271": 156,
        "10272": 42,
        "10273": 161,
        "10274": 178,
        "10275": 102,
        "10276": 247,
        "10277": 173,
        "10278": 187,
        "10279": 213,
        "10280": 50,
        "10281": 218,
        "10282": 217,
        "10283": 62,
        "10284": 246,
        "10285": 47,
        "10286": 221,
        "10287": 1,
        "10288": 10,
        "10289": 232,
        "10290": 49,
        "10291": 208,
        "10292": 41,
        "10293": 212,
        "10294": 146,
        "10295": 151,
        "10296": 174,
        "10297": 248,
        "10298": 134,
        "10299": 87,
        "10300": 22,
        "10301": 38,
        "10302": 161,
        "10303": 204,
        "10304": 27,
        "10305": 77,
        "10306": 102,
        "10307": 253,
        "10308": 243,
        "10309": 112,
        "10310": 247,
        "10311": 211,
        "10312": 140,
        "10313": 122,
        "10314": 5,
        "10315": 173,
        "10316": 69,
        "10317": 170,
        "10318": 6,
        "10319": 244,
        "10320": 243,
        "10321": 157,
        "10322": 111,
        "10323": 59,
        "10324": 54,
        "10325": 92,
        "10326": 230,
        "10327": 107,
        "10328": 159,
        "10329": 166,
        "10330": 215,
        "10331": 239,
        "10332": 182,
        "10333": 212,
        "10334": 219,
        "10335": 83,
        "10336": 179,
        "10337": 94,
        "10338": 138,
        "10339": 99,
        "10340": 9,
        "10341": 246,
        "10342": 8,
        "10343": 5,
        "10344": 108,
        "10345": 132,
        "10346": 204,
        "10347": 83,
        "10348": 62,
        "10349": 6,
        "10350": 32,
        "10351": 34,
        "10352": 227,
        "10353": 236,
        "10354": 73,
        "10355": 253,
        "10356": 149,
        "10357": 2,
        "10358": 17,
        "10359": 119,
        "10360": 28,
        "10361": 20,
        "10362": 170,
        "10363": 117,
        "10364": 70,
        "10365": 6,
        "10366": 168,
        "10367": 51,
        "10368": 124,
        "10369": 58,
        "10370": 212,
        "10371": 110,
        "10372": 163,
        "10373": 166,
        "10374": 61,
        "10375": 195,
        "10376": 178,
        "10377": 107,
        "10378": 235,
        "10379": 235,
        "10380": 231,
        "10381": 199,
        "10382": 109,
        "10383": 214,
        "10384": 95,
        "10385": 249,
        "10386": 14,
        "10387": 62,
        "10388": 138,
        "10389": 70,
        "10390": 198,
        "10391": 178,
        "10392": 78,
        "10393": 27,
        "10394": 60,
        "10395": 228,
        "10396": 19,
        "10397": 28,
        "10398": 138,
        "10399": 176,
        "10400": 230,
        "10401": 35,
        "10402": 121,
        "10403": 75,
        "10404": 191,
        "10405": 53,
        "10406": 189,
        "10407": 103,
        "10408": 153,
        "10409": 10,
        "10410": 255,
        "10411": 52,
        "10412": 165,
        "10413": 135,
        "10414": 252,
        "10415": 155,
        "10416": 238,
        "10417": 163,
        "10418": 84,
        "10419": 21,
        "10420": 231,
        "10421": 236,
        "10422": 178,
        "10423": 241,
        "10424": 179,
        "10425": 211,
        "10426": 95,
        "10427": 177,
        "10428": 46,
        "10429": 223,
        "10430": 197,
        "10431": 167,
        "10432": 203,
        "10433": 219,
        "10434": 94,
        "10435": 147,
        "10436": 253,
        "10437": 82,
        "10438": 194,
        "10439": 33,
        "10440": 216,
        "10441": 71,
        "10442": 102,
        "10443": 171,
        "10444": 161,
        "10445": 21,
        "10446": 33,
        "10447": 118,
        "10448": 57,
        "10449": 67,
        "10450": 41,
        "10451": 163,
        "10452": 4,
        "10453": 239,
        "10454": 91,
        "10455": 176,
        "10456": 222,
        "10457": 86,
        "10458": 192,
        "10459": 104,
        "10460": 100,
        "10461": 159,
        "10462": 142,
        "10463": 253,
        "10464": 95,
        "10465": 126,
        "10466": 177,
        "10467": 238,
        "10468": 30,
        "10469": 97,
        "10470": 181,
        "10471": 86,
        "10472": 71,
        "10473": 241,
        "10474": 165,
        "10475": 196,
        "10476": 230,
        "10477": 146,
        "10478": 211,
        "10479": 232,
        "10480": 67,
        "10481": 196,
        "10482": 10,
        "10483": 85,
        "10484": 52,
        "10485": 133,
        "10486": 206,
        "10487": 235,
        "10488": 227,
        "10489": 190,
        "10490": 69,
        "10491": 2,
        "10492": 6,
        "10493": 166,
        "10494": 93,
        "10495": 135,
        "10496": 9,
        "10497": 209,
        "10498": 79,
        "10499": 88,
        "10500": 162,
        "10501": 44,
        "10502": 68,
        "10503": 50,
        "10504": 149,
        "10505": 132,
        "10506": 229,
        "10507": 11,
        "10508": 14,
        "10509": 37,
        "10510": 48,
        "10511": 84,
        "10512": 69,
        "10513": 182,
        "10514": 137,
        "10515": 251,
        "10516": 239,
        "10517": 82,
        "10518": 240,
        "10519": 255,
        "10520": 13,
        "10521": 103,
        "10522": 67,
        "10523": 19,
        "10524": 85,
        "10525": 155,
        "10526": 36,
        "10527": 200,
        "10528": 154,
        "10529": 31,
        "10530": 61,
        "10531": 16,
        "10532": 108,
        "10533": 194,
        "10534": 15,
        "10535": 107,
        "10536": 220,
        "10537": 42,
        "10538": 131,
        "10539": 0,
        "10540": 80,
        "10541": 115,
        "10542": 68,
        "10543": 206,
        "10544": 248,
        "10545": 16,
        "10546": 9,
        "10547": 13,
        "10548": 145,
        "10549": 165,
        "10550": 224,
        "10551": 109,
        "10552": 113,
        "10553": 146,
        "10554": 94,
        "10555": 253,
        "10556": 30,
        "10557": 49,
        "10558": 192,
        "10559": 157,
        "10560": 142,
        "10561": 119,
        "10562": 65,
        "10563": 41,
        "10564": 144,
        "10565": 12,
        "10566": 37,
        "10567": 163,
        "10568": 6,
        "10569": 223,
        "10570": 145,
        "10571": 212,
        "10572": 21,
        "10573": 151,
        "10574": 49,
        "10575": 171,
        "10576": 83,
        "10577": 10,
        "10578": 69,
        "10579": 182,
        "10580": 30,
        "10581": 141,
        "10582": 238,
        "10583": 12,
        "10584": 76,
        "10585": 88,
        "10586": 194,
        "10587": 15,
        "10588": 213,
        "10589": 99,
        "10590": 202,
        "10591": 106,
        "10592": 245,
        "10593": 175,
        "10594": 153,
        "10595": 62,
        "10596": 222,
        "10597": 150,
        "10598": 79,
        "10599": 107,
        "10600": 6,
        "10601": 150,
        "10602": 174,
        "10603": 241,
        "10604": 120,
        "10605": 78,
        "10606": 119,
        "10607": 100,
        "10608": 43,
        "10609": 8,
        "10610": 46,
        "10611": 50,
        "10612": 63,
        "10613": 209,
        "10614": 242,
        "10615": 56,
        "10616": 215,
        "10617": 191,
        "10618": 238,
        "10619": 144,
        "10620": 87,
        "10621": 214,
        "10622": 115,
        "10623": 208,
        "10624": 248,
        "10625": 34,
        "10626": 239,
        "10627": 120,
        "10628": 15,
        "10629": 68,
        "10630": 142,
        "10631": 230,
        "10632": 12,
        "10633": 95,
        "10634": 48,
        "10635": 151,
        "10636": 84,
        "10637": 64,
        "10638": 146,
        "10639": 204,
        "10640": 120,
        "10641": 53,
        "10642": 209,
        "10643": 144,
        "10644": 58,
        "10645": 190,
        "10646": 188,
        "10647": 60,
        "10648": 71,
        "10649": 213,
        "10650": 147,
        "10651": 247,
        "10652": 43,
        "10653": 112,
        "10654": 188,
        "10655": 40,
        "10656": 227,
        "10657": 144,
        "10658": 101,
        "10659": 47,
        "10660": 8,
        "10661": 103,
        "10662": 90,
        "10663": 119,
        "10664": 212,
        "10665": 57,
        "10666": 24,
        "10667": 138,
        "10668": 205,
        "10669": 49,
        "10670": 143,
        "10671": 51,
        "10672": 242,
        "10673": 32,
        "10674": 242,
        "10675": 56,
        "10676": 15,
        "10677": 120,
        "10678": 146,
        "10679": 20,
        "10680": 177,
        "10681": 87,
        "10682": 108,
        "10683": 170,
        "10684": 115,
        "10685": 176,
        "10686": 4,
        "10687": 5,
        "10688": 102,
        "10689": 119,
        "10690": 171,
        "10691": 73,
        "10692": 184,
        "10693": 155,
        "10694": 87,
        "10695": 254,
        "10696": 42,
        "10697": 198,
        "10698": 132,
        "10699": 244,
        "10700": 22,
        "10701": 31,
        "10702": 60,
        "10703": 111,
        "10704": 13,
        "10705": 255,
        "10706": 12,
        "10707": 147,
        "10708": 24,
        "10709": 32,
        "10710": 149,
        "10711": 212,
        "10712": 227,
        "10713": 168,
        "10714": 237,
        "10715": 22,
        "10716": 216,
        "10717": 62,
        "10718": 177,
        "10719": 55,
        "10720": 184,
        "10721": 188,
        "10722": 85,
        "10723": 78,
        "10724": 123,
        "10725": 97,
        "10726": 219,
        "10727": 106,
        "10728": 3,
        "10729": 226,
        "10730": 222,
        "10731": 191,
        "10732": 121,
        "10733": 128,
        "10734": 235,
        "10735": 211,
        "10736": 137,
        "10737": 170,
        "10738": 223,
        "10739": 142,
        "10740": 51,
        "10741": 183,
        "10742": 75,
        "10743": 241,
        "10744": 172,
        "10745": 2,
        "10746": 84,
        "10747": 185,
        "10748": 155,
        "10749": 21,
        "10750": 205,
        "10751": 196,
        "10752": 28,
        "10753": 232,
        "10754": 69,
        "10755": 41,
        "10756": 171,
        "10757": 74,
        "10758": 235,
        "10759": 232,
        "10760": 60,
        "10761": 15,
        "10762": 118,
        "10763": 81,
        "10764": 153,
        "10765": 198,
        "10766": 75,
        "10767": 179,
        "10768": 163,
        "10769": 248,
        "10770": 186,
        "10771": 241,
        "10772": 84,
        "10773": 119,
        "10774": 213,
        "10775": 30,
        "10776": 52,
        "10777": 229,
        "10778": 70,
        "10779": 184,
        "10780": 71,
        "10781": 16,
        "10782": 181,
        "10783": 249,
        "10784": 97,
        "10785": 233,
        "10786": 51,
        "10787": 35,
        "10788": 122,
        "10789": 153,
        "10790": 247,
        "10791": 101,
        "10792": 197,
        "10793": 114,
        "10794": 52,
        "10795": 155,
        "10796": 48,
        "10797": 70,
        "10798": 35,
        "10799": 183,
        "10800": 0,
        "10801": 169,
        "10802": 104,
        "10803": 54,
        "10804": 64,
        "10805": 109,
        "10806": 129,
        "10807": 247,
        "10808": 74,
        "10809": 250,
        "10810": 251,
        "10811": 112,
        "10812": 216,
        "10813": 234,
        "10814": 105,
        "10815": 234,
        "10816": 23,
        "10817": 61,
        "10818": 58,
        "10819": 148,
        "10820": 92,
        "10821": 156,
        "10822": 53,
        "10823": 95,
        "10824": 74,
        "10825": 212,
        "10826": 245,
        "10827": 3,
        "10828": 111,
        "10829": 164,
        "10830": 217,
        "10831": 123,
        "10832": 162,
        "10833": 216,
        "10834": 128,
        "10835": 3,
        "10836": 45,
        "10837": 72,
        "10838": 74,
        "10839": 255,
        "10840": 17,
        "10841": 9,
        "10842": 127,
        "10843": 165,
        "10844": 129,
        "10845": 184,
        "10846": 64,
        "10847": 165,
        "10848": 115,
        "10849": 162,
        "10850": 236,
        "10851": 201,
        "10852": 175,
        "10853": 164,
        "10854": 4,
        "10855": 209,
        "10856": 38,
        "10857": 114,
        "10858": 178,
        "10859": 30,
        "10860": 186,
        "10861": 160,
        "10862": 51,
        "10863": 29,
        "10864": 92,
        "10865": 176,
        "10866": 179,
        "10867": 140,
        "10868": 86,
        "10869": 246,
        "10870": 88,
        "10871": 46,
        "10872": 248,
        "10873": 28,
        "10874": 235,
        "10875": 78,
        "10876": 152,
        "10877": 86,
        "10878": 20,
        "10879": 175,
        "10880": 159,
        "10881": 228,
        "10882": 17,
        "10883": 137,
        "10884": 125,
        "10885": 180,
        "10886": 119,
        "10887": 157,
        "10888": 141,
        "10889": 106,
        "10890": 117,
        "10891": 200,
        "10892": 45,
        "10893": 125,
        "10894": 146,
        "10895": 44,
        "10896": 181,
        "10897": 184,
        "10898": 136,
        "10899": 115,
        "10900": 187,
        "10901": 1,
        "10902": 195,
        "10903": 62,
        "10904": 18,
        "10905": 220,
        "10906": 120,
        "10907": 161,
        "10908": 172,
        "10909": 224,
        "10910": 157,
        "10911": 47,
        "10912": 194,
        "10913": 64,
        "10914": 37,
        "10915": 162,
        "10916": 204,
        "10917": 208,
        "10918": 174,
        "10919": 116,
        "10920": 194,
        "10921": 227,
        "10922": 144,
        "10923": 216,
        "10924": 103,
        "10925": 182,
        "10926": 154,
        "10927": 69,
        "10928": 206,
        "10929": 116,
        "10930": 202,
        "10931": 32,
        "10932": 105,
        "10933": 205,
        "10934": 118,
        "10935": 16,
        "10936": 239,
        "10937": 144,
        "10938": 243,
        "10939": 217,
        "10940": 70,
        "10941": 45,
        "10942": 54,
        "10943": 199,
        "10944": 135,
        "10945": 34,
        "10946": 218,
        "10947": 110,
        "10948": 96,
        "10949": 3,
        "10950": 178,
        "10951": 150,
        "10952": 149,
        "10953": 106,
        "10954": 135,
        "10955": 184,
        "10956": 22,
        "10957": 1,
        "10958": 253,
        "10959": 52,
        "10960": 132,
        "10961": 162,
        "10962": 23,
        "10963": 192,
        "10964": 235,
        "10965": 72,
        "10966": 87,
        "10967": 205,
        "10968": 78,
        "10969": 56,
        "10970": 72,
        "10971": 216,
        "10972": 116,
        "10973": 2,
        "10974": 235,
        "10975": 200,
        "10976": 144,
        "10977": 65,
        "10978": 79,
        "10979": 33,
        "10980": 139,
        "10981": 52,
        "10982": 163,
        "10983": 171,
        "10984": 174,
        "10985": 23,
        "10986": 29,
        "10987": 222,
        "10988": 151,
        "10989": 216,
        "10990": 55,
        "10991": 91,
        "10992": 246,
        "10993": 33,
        "10994": 221,
        "10995": 53,
        "10996": 64,
        "10997": 88,
        "10998": 75,
        "10999": 7,
        "11000": 100,
        "11001": 89,
        "11002": 73,
        "11003": 32,
        "11004": 50,
        "11005": 71,
        "11006": 252,
        "11007": 15,
        "11008": 157,
        "11009": 78,
        "11010": 160,
        "11011": 179,
        "11012": 54,
        "11013": 180,
        "11014": 6,
        "11015": 59,
        "11016": 96,
        "11017": 17,
        "11018": 5,
        "11019": 243,
        "11020": 30,
        "11021": 13,
        "11022": 191,
        "11023": 94,
        "11024": 173,
        "11025": 28,
        "11026": 71,
        "11027": 180,
        "11028": 234,
        "11029": 11,
        "11030": 136,
        "11031": 76,
        "11032": 205,
        "11033": 248,
        "11034": 8,
        "11035": 180,
        "11036": 174,
        "11037": 142,
        "11038": 238,
        "11039": 25,
        "11040": 182,
        "11041": 171,
        "11042": 10,
        "11043": 211,
        "11044": 239,
        "11045": 19,
        "11046": 204,
        "11047": 219,
        "11048": 185,
        "11049": 158,
        "11050": 89,
        "11051": 174,
        "11052": 253,
        "11053": 199,
        "11054": 152,
        "11055": 243,
        "11056": 58,
        "11057": 45,
        "11058": 211,
        "11059": 17,
        "11060": 105,
        "11061": 147,
        "11062": 233,
        "11063": 168,
        "11064": 22,
        "11065": 124,
        "11066": 58,
        "11067": 2,
        "11068": 105,
        "11069": 200,
        "11070": 36,
        "11071": 137,
        "11072": 0,
        "11073": 196,
        "11074": 4,
        "11075": 2,
        "11076": 154,
        "11077": 13,
        "11078": 108,
        "11079": 110,
        "11080": 13,
        "11081": 82,
        "11082": 208,
        "11083": 255,
        "11084": 136,
        "11085": 18,
        "11086": 43,
        "11087": 200,
        "11088": 209,
        "11089": 84,
        "11090": 211,
        "11091": 165,
        "11092": 104,
        "11093": 227,
        "11094": 145,
        "11095": 223,
        "11096": 80,
        "11097": 95,
        "11098": 114,
        "11099": 189,
        "11100": 186,
        "11101": 107,
        "11102": 143,
        "11103": 165,
        "11104": 41,
        "11105": 192,
        "11106": 101,
        "11107": 80,
        "11108": 170,
        "11109": 166,
        "11110": 123,
        "11111": 88,
        "11112": 10,
        "11113": 192,
        "11114": 249,
        "11115": 205,
        "11116": 107,
        "11117": 101,
        "11118": 195,
        "11119": 4,
        "11120": 255,
        "11121": 114,
        "11122": 154,
        "11123": 21,
        "11124": 80,
        "11125": 68,
        "11126": 161,
        "11127": 57,
        "11128": 50,
        "11129": 222,
        "11130": 210,
        "11131": 198,
        "11132": 128,
        "11133": 88,
        "11134": 195,
        "11135": 121,
        "11136": 223,
        "11137": 137,
        "11138": 97,
        "11139": 229,
        "11140": 185,
        "11141": 95,
        "11142": 142,
        "11143": 173,
        "11144": 71,
        "11145": 227,
        "11146": 43,
        "11147": 14,
        "11148": 222,
        "11149": 78,
        "11150": 5,
        "11151": 18,
        "11152": 111,
        "11153": 75,
        "11154": 21,
        "11155": 38,
        "11156": 247,
        "11157": 240,
        "11158": 34,
        "11159": 29,
        "11160": 14,
        "11161": 205,
        "11162": 116,
        "11163": 233,
        "11164": 138,
        "11165": 69,
        "11166": 189,
        "11167": 24,
        "11168": 172,
        "11169": 54,
        "11170": 223,
        "11171": 104,
        "11172": 31,
        "11173": 7,
        "11174": 189,
        "11175": 68,
        "11176": 245,
        "11177": 211,
        "11178": 253,
        "11179": 121,
        "11180": 117,
        "11181": 8,
        "11182": 102,
        "11183": 192,
        "11184": 141,
        "11185": 50,
        "11186": 131,
        "11187": 17,
        "11188": 253,
        "11189": 110,
        "11190": 222,
        "11191": 127,
        "11192": 180,
        "11193": 182,
        "11194": 52,
        "11195": 28,
        "11196": 157,
        "11197": 23,
        "11198": 68,
        "11199": 160,
        "11200": 232,
        "11201": 83,
        "11202": 162,
        "11203": 85,
        "11204": 205,
        "11205": 26,
        "11206": 73,
        "11207": 107,
        "11208": 158,
        "11209": 244,
        "11210": 159,
        "11211": 164,
        "11212": 253,
        "11213": 16,
        "11214": 238,
        "11215": 147,
        "11216": 13,
        "11217": 46,
        "11218": 124,
        "11219": 178,
        "11220": 16,
        "11221": 53,
        "11222": 227,
        "11223": 218,
        "11224": 7,
        "11225": 81,
        "11226": 83,
        "11227": 142,
        "11228": 72,
        "11229": 108,
        "11230": 240,
        "11231": 125,
        "11232": 68,
        "11233": 235,
        "11234": 118,
        "11235": 207,
        "11236": 159,
        "11237": 175,
        "11238": 153,
        "11239": 98,
        "11240": 172,
        "11241": 214,
        "11242": 121,
        "11243": 169,
        "11244": 57,
        "11245": 154,
        "11246": 116,
        "11247": 119,
        "11248": 68,
        "11249": 53,
        "11250": 56,
        "11251": 181,
        "11252": 208,
        "11253": 133,
        "11254": 155,
        "11255": 83,
        "11256": 10,
        "11257": 215,
        "11258": 141,
        "11259": 61,
        "11260": 241,
        "11261": 36,
        "11262": 118,
        "11263": 110,
        "11264": 161,
        "11265": 68,
        "11266": 127,
        "11267": 92,
        "11268": 105,
        "11269": 25,
        "11270": 126,
        "11271": 103,
        "11272": 146,
        "11273": 57,
        "11274": 227,
        "11275": 13,
        "11276": 53,
        "11277": 174,
        "11278": 230,
        "11279": 234,
        "11280": 43,
        "11281": 168,
        "11282": 19,
        "11283": 205,
        "11284": 27,
        "11285": 155,
        "11286": 216,
        "11287": 151,
        "11288": 151,
        "11289": 109,
        "11290": 70,
        "11291": 197,
        "11292": 57,
        "11293": 251,
        "11294": 130,
        "11295": 76,
        "11296": 28,
        "11297": 64,
        "11298": 26,
        "11299": 95,
        "11300": 208,
        "11301": 228,
        "11302": 4,
        "11303": 202,
        "11304": 165,
        "11305": 242,
        "11306": 125,
        "11307": 147,
        "11308": 39,
        "11309": 234,
        "11310": 189,
        "11311": 124,
        "11312": 242,
        "11313": 174,
        "11314": 180,
        "11315": 76,
        "11316": 221,
        "11317": 171,
        "11318": 198,
        "11319": 200,
        "11320": 84,
        "11321": 108,
        "11322": 19,
        "11323": 203,
        "11324": 112,
        "11325": 150,
        "11326": 250,
        "11327": 218,
        "11328": 199,
        "11329": 1,
        "11330": 234,
        "11331": 198,
        "11332": 233,
        "11333": 174,
        "11334": 130,
        "11335": 93,
        "11336": 68,
        "11337": 54,
        "11338": 85,
        "11339": 54,
        "11340": 112,
        "11341": 137,
        "11342": 16,
        "11343": 30,
        "11344": 162,
        "11345": 206,
        "11346": 229,
        "11347": 88,
        "11348": 52,
        "11349": 162,
        "11350": 208,
        "11351": 22,
        "11352": 37,
        "11353": 175,
        "11354": 62,
        "11355": 27,
        "11356": 85,
        "11357": 150,
        "11358": 39,
        "11359": 103,
        "11360": 230,
        "11361": 103,
        "11362": 148,
        "11363": 246,
        "11364": 112,
        "11365": 83,
        "11366": 92,
        "11367": 238,
        "11368": 4,
        "11369": 94,
        "11370": 59,
        "11371": 46,
        "11372": 85,
        "11373": 233,
        "11374": 87,
        "11375": 152,
        "11376": 158,
        "11377": 236,
        "11378": 94,
        "11379": 24,
        "11380": 17,
        "11381": 149,
        "11382": 38,
        "11383": 99,
        "11384": 175,
        "11385": 121,
        "11386": 249,
        "11387": 20,
        "11388": 4,
        "11389": 165,
        "11390": 201,
        "11391": 97,
        "11392": 215,
        "11393": 61,
        "11394": 150,
        "11395": 109,
        "11396": 193,
        "11397": 82,
        "11398": 165,
        "11399": 209,
        "11400": 175,
        "11401": 171,
        "11402": 40,
        "11403": 54,
        "11404": 178,
        "11405": 227,
        "11406": 96,
        "11407": 230,
        "11408": 164,
        "11409": 250,
        "11410": 110,
        "11411": 179,
        "11412": 54,
        "11413": 118,
        "11414": 169,
        "11415": 214,
        "11416": 191,
        "11417": 80,
        "11418": 255,
        "11419": 33,
        "11420": 86,
        "11421": 46,
        "11422": 122,
        "11423": 52,
        "11424": 224,
        "11425": 20,
        "11426": 188,
        "11427": 188,
        "11428": 110,
        "11429": 101,
        "11430": 163,
        "11431": 55,
        "11432": 217,
        "11433": 223,
        "11434": 166,
        "11435": 251,
        "11436": 231,
        "11437": 249,
        "11438": 236,
        "11439": 191,
        "11440": 153,
        "11441": 180,
        "11442": 192,
        "11443": 158,
        "11444": 10,
        "11445": 206,
        "11446": 247,
        "11447": 13,
        "11448": 193,
        "11449": 88,
        "11450": 167,
        "11451": 163,
        "11452": 71,
        "11453": 34,
        "11454": 141,
        "11455": 249,
        "11456": 135,
        "11457": 132,
        "11458": 162,
        "11459": 209,
        "11460": 6,
        "11461": 251,
        "11462": 19,
        "11463": 7,
        "11464": 181,
        "11465": 203,
        "11466": 33,
        "11467": 107,
        "11468": 102,
        "11469": 171,
        "11470": 46,
        "11471": 69,
        "11472": 56,
        "11473": 246,
        "11474": 227,
        "11475": 5,
        "11476": 118,
        "11477": 234,
        "11478": 163,
        "11479": 13,
        "11480": 32,
        "11481": 13,
        "11482": 169,
        "11483": 211,
        "11484": 41,
        "11485": 6,
        "11486": 102,
        "11487": 98,
        "11488": 17,
        "11489": 41,
        "11490": 168,
        "11491": 74,
        "11492": 187,
        "11493": 149,
        "11494": 136,
        "11495": 188,
        "11496": 89,
        "11497": 130,
        "11498": 133,
        "11499": 176,
        "11500": 95,
        "11501": 59,
        "11502": 190,
        "11503": 135,
        "11504": 188,
        "11505": 41,
        "11506": 135,
        "11507": 118,
        "11508": 147,
        "11509": 160,
        "11510": 254,
        "11511": 52,
        "11512": 203,
        "11513": 26,
        "11514": 110,
        "11515": 98,
        "11516": 194,
        "11517": 104,
        "11518": 27,
        "11519": 215,
        "11520": 98,
        "11521": 44,
        "11522": 193,
        "11523": 29,
        "11524": 131,
        "11525": 172,
        "11526": 50,
        "11527": 128,
        "11528": 197,
        "11529": 86,
        "11530": 30,
        "11531": 46,
        "11532": 69,
        "11533": 227,
        "11534": 144,
        "11535": 26,
        "11536": 27,
        "11537": 95,
        "11538": 5,
        "11539": 98,
        "11540": 204,
        "11541": 30,
        "11542": 47,
        "11543": 234,
        "11544": 187,
        "11545": 82,
        "11546": 40,
        "11547": 59,
        "11548": 174,
        "11549": 8,
        "11550": 241,
        "11551": 23,
        "11552": 39,
        "11553": 4,
        "11554": 126,
        "11555": 49,
        "11556": 172,
        "11557": 178,
        "11558": 147,
        "11559": 18,
        "11560": 143,
        "11561": 131,
        "11562": 87,
        "11563": 215,
        "11564": 234,
        "11565": 132,
        "11566": 190,
        "11567": 239,
        "11568": 134,
        "11569": 132,
        "11570": 28,
        "11571": 6,
        "11572": 153,
        "11573": 155,
        "11574": 63,
        "11575": 21,
        "11576": 144,
        "11577": 210,
        "11578": 157,
        "11579": 28,
        "11580": 226,
        "11581": 15,
        "11582": 243,
        "11583": 55,
        "11584": 180,
        "11585": 228,
        "11586": 214,
        "11587": 80,
        "11588": 239,
        "11589": 174,
        "11590": 236,
        "11591": 245,
        "11592": 45,
        "11593": 96,
        "11594": 45,
        "11595": 81,
        "11596": 102,
        "11597": 182,
        "11598": 27,
        "11599": 48,
        "11600": 86,
        "11601": 210,
        "11602": 66,
        "11603": 7,
        "11604": 68,
        "11605": 234,
        "11606": 191,
        "11607": 184,
        "11608": 160,
        "11609": 235,
        "11610": 189,
        "11611": 217,
        "11612": 67,
        "11613": 249,
        "11614": 99,
        "11615": 203,
        "11616": 95,
        "11617": 26,
        "11618": 53,
        "11619": 33,
        "11620": 185,
        "11621": 20,
        "11622": 0,
        "11623": 11,
        "11624": 48,
        "11625": 85,
        "11626": 57,
        "11627": 203,
        "11628": 51,
        "11629": 224,
        "11630": 153,
        "11631": 56,
        "11632": 226,
        "11633": 36,
        "11634": 22,
        "11635": 152,
        "11636": 189,
        "11637": 118,
        "11638": 47,
        "11639": 232,
        "11640": 153,
        "11641": 201,
        "11642": 6,
        "11643": 187,
        "11644": 67,
        "11645": 207,
        "11646": 129,
        "11647": 119,
        "11648": 64,
        "11649": 128,
        "11650": 145,
        "11651": 204,
        "11652": 230,
        "11653": 205,
        "11654": 216,
        "11655": 149,
        "11656": 134,
        "11657": 8,
        "11658": 99,
        "11659": 113,
        "11660": 68,
        "11661": 2,
        "11662": 65,
        "11663": 63,
        "11664": 224,
        "11665": 241,
        "11666": 245,
        "11667": 49,
        "11668": 237,
        "11669": 250,
        "11670": 55,
        "11671": 254,
        "11672": 114,
        "11673": 224,
        "11674": 154,
        "11675": 41,
        "11676": 183,
        "11677": 66,
        "11678": 82,
        "11679": 65,
        "11680": 161,
        "11681": 107,
        "11682": 45,
        "11683": 204,
        "11684": 187,
        "11685": 102,
        "11686": 30,
        "11687": 158,
        "11688": 218,
        "11689": 11,
        "11690": 179,
        "11691": 234,
        "11692": 43,
        "11693": 2,
        "11694": 112,
        "11695": 169,
        "11696": 218,
        "11697": 33,
        "11698": 232,
        "11699": 89,
        "11700": 75,
        "11701": 9,
        "11702": 87,
        "11703": 44,
        "11704": 113,
        "11705": 16,
        "11706": 18,
        "11707": 209,
        "11708": 84,
        "11709": 246,
        "11710": 43,
        "11711": 74,
        "11712": 188,
        "11713": 119,
        "11714": 237,
        "11715": 241,
        "11716": 132,
        "11717": 84,
        "11718": 83,
        "11719": 136,
        "11720": 48,
        "11721": 131,
        "11722": 103,
        "11723": 100,
        "11724": 112,
        "11725": 143,
        "11726": 44,
        "11727": 167,
        "11728": 165,
        "11729": 74,
        "11730": 22,
        "11731": 97,
        "11732": 198,
        "11733": 240,
        "11734": 234,
        "11735": 149,
        "11736": 83,
        "11737": 220,
        "11738": 78,
        "11739": 74,
        "11740": 92,
        "11741": 52,
        "11742": 9,
        "11743": 1,
        "11744": 224,
        "11745": 185,
        "11746": 145,
        "11747": 70,
        "11748": 5,
        "11749": 192,
        "11750": 175,
        "11751": 33,
        "11752": 87,
        "11753": 6,
        "11754": 38,
        "11755": 121,
        "11756": 193,
        "11757": 80,
        "11758": 89,
        "11759": 17,
        "11760": 72,
        "11761": 26,
        "11762": 228,
        "11763": 5,
        "11764": 179,
        "11765": 71,
        "11766": 76,
        "11767": 185,
        "11768": 238,
        "11769": 52,
        "11770": 38,
        "11771": 251,
        "11772": 129,
        "11773": 49,
        "11774": 115,
        "11775": 91,
        "11776": 82,
        "11777": 87,
        "11778": 25,
        "11779": 69,
        "11780": 116,
        "11781": 163,
        "11782": 34,
        "11783": 168,
        "11784": 216,
        "11785": 137,
        "11786": 252,
        "11787": 248,
        "11788": 197,
        "11789": 204,
        "11790": 157,
        "11791": 75,
        "11792": 251,
        "11793": 136,
        "11794": 177,
        "11795": 168,
        "11796": 243,
        "11797": 173,
        "11798": 126,
        "11799": 20,
        "11800": 97,
        "11801": 219,
        "11802": 182,
        "11803": 255,
        "11804": 224,
        "11805": 200,
        "11806": 136,
        "11807": 92,
        "11808": 248,
        "11809": 82,
        "11810": 87,
        "11811": 81,
        "11812": 128,
        "11813": 133,
        "11814": 137,
        "11815": 211,
        "11816": 22,
        "11817": 48,
        "11818": 216,
        "11819": 187,
        "11820": 166,
        "11821": 40,
        "11822": 142,
        "11823": 101,
        "11824": 195,
        "11825": 27,
        "11826": 46,
        "11827": 164,
        "11828": 190,
        "11829": 39,
        "11830": 60,
        "11831": 103,
        "11832": 113,
        "11833": 4,
        "11834": 39,
        "11835": 168,
        "11836": 176,
        "11837": 34,
        "11838": 98,
        "11839": 187,
        "11840": 225,
        "11841": 70,
        "11842": 164,
        "11843": 48,
        "11844": 104,
        "11845": 57,
        "11846": 69,
        "11847": 89,
        "11848": 85,
        "11849": 48,
        "11850": 195,
        "11851": 139,
        "11852": 186,
        "11853": 245,
        "11854": 251,
        "11855": 46,
        "11856": 99,
        "11857": 92,
        "11858": 235,
        "11859": 130,
        "11860": 183,
        "11861": 94,
        "11862": 232,
        "11863": 78,
        "11864": 59,
        "11865": 61,
        "11866": 115,
        "11867": 169,
        "11868": 148,
        "11869": 182,
        "11870": 102,
        "11871": 69,
        "11872": 164,
        "11873": 136,
        "11874": 239,
        "11875": 59,
        "11876": 43,
        "11877": 178,
        "11878": 41,
        "11879": 74,
        "11880": 223,
        "11881": 162,
        "11882": 201,
        "11883": 135,
        "11884": 153,
        "11885": 229,
        "11886": 71,
        "11887": 155,
        "11888": 139,
        "11889": 210,
        "11890": 225,
        "11891": 47,
        "11892": 196,
        "11893": 168,
        "11894": 33,
        "11895": 102,
        "11896": 205,
        "11897": 172,
        "11898": 54,
        "11899": 172,
        "11900": 34,
        "11901": 134,
        "11902": 91,
        "11903": 213,
        "11904": 161,
        "11905": 101,
        "11906": 159,
        "11907": 133,
        "11908": 143,
        "11909": 6,
        "11910": 119,
        "11911": 238,
        "11912": 148,
        "11913": 125,
        "11914": 117,
        "11915": 223,
        "11916": 213,
        "11917": 35,
        "11918": 219,
        "11919": 86,
        "11920": 151,
        "11921": 163,
        "11922": 203,
        "11923": 123,
        "11924": 189,
        "11925": 221,
        "11926": 101,
        "11927": 186,
        "11928": 90,
        "11929": 49,
        "11930": 108,
        "11931": 32,
        "11932": 183,
        "11933": 233,
        "11934": 188,
        "11935": 29,
        "11936": 12,
        "11937": 35,
        "11938": 147,
        "11939": 29,
        "11940": 222,
        "11941": 3,
        "11942": 235,
        "11943": 145,
        "11944": 127,
        "11945": 182,
        "11946": 24,
        "11947": 3,
        "11948": 175,
        "11949": 32,
        "11950": 61,
        "11951": 139,
        "11952": 15,
        "11953": 116,
        "11954": 139,
        "11955": 206,
        "11956": 217,
        "11957": 91,
        "11958": 73,
        "11959": 31,
        "11960": 99,
        "11961": 171,
        "11962": 229,
        "11963": 185,
        "11964": 237,
        "11965": 121,
        "11966": 161,
        "11967": 207,
        "11968": 195,
        "11969": 66,
        "11970": 99,
        "11971": 104,
        "11972": 119,
        "11973": 130,
        "11974": 33,
        "11975": 116,
        "11976": 198,
        "11977": 143,
        "11978": 26,
        "11979": 147,
        "11980": 76,
        "11981": 170,
        "11982": 235,
        "11983": 70,
        "11984": 244,
        "11985": 245,
        "11986": 211,
        "11987": 209,
        "11988": 176,
        "11989": 125,
        "11990": 134,
        "11991": 42,
        "11992": 158,
        "11993": 132,
        "11994": 153,
        "11995": 32,
        "11996": 99,
        "11997": 129,
        "11998": 115,
        "11999": 50,
        "12000": 234,
        "12001": 134,
        "12002": 83,
        "12003": 15,
        "12004": 208,
        "12005": 211,
        "12006": 124,
        "12007": 164,
        "12008": 132,
        "12009": 194,
        "12010": 90,
        "12011": 212,
        "12012": 21,
        "12013": 251,
        "12014": 60,
        "12015": 150,
        "12016": 226,
        "12017": 207,
        "12018": 243,
        "12019": 13,
        "12020": 8,
        "12021": 12,
        "12022": 8,
        "12023": 212,
        "12024": 3,
        "12025": 131,
        "12026": 139,
        "12027": 252,
        "12028": 184,
        "12029": 128,
        "12030": 27,
        "12031": 228,
        "12032": 235,
        "12033": 246,
        "12034": 84,
        "12035": 163,
        "12036": 231,
        "12037": 12,
        "12038": 152,
        "12039": 69,
        "12040": 119,
        "12041": 137,
        "12042": 242,
        "12043": 6,
        "12044": 66,
        "12045": 138,
        "12046": 9,
        "12047": 234,
        "12048": 146,
        "12049": 224,
        "12050": 125,
        "12051": 100,
        "12052": 239,
        "12053": 10,
        "12054": 44,
        "12055": 68,
        "12056": 100,
        "12057": 105,
        "12058": 213,
        "12059": 196,
        "12060": 72,
        "12061": 216,
        "12062": 66,
        "12063": 113,
        "12064": 237,
        "12065": 78,
        "12066": 24,
        "12067": 169,
        "12068": 191,
        "12069": 151,
        "12070": 175,
        "12071": 127,
        "12072": 165,
        "12073": 184,
        "12074": 178,
        "12075": 150,
        "12076": 41,
        "12077": 17,
        "12078": 149,
        "12079": 88,
        "12080": 226,
        "12081": 205,
        "12082": 229,
        "12083": 133,
        "12084": 24,
        "12085": 81,
        "12086": 106,
        "12087": 23,
        "12088": 169,
        "12089": 134,
        "12090": 8,
        "12091": 192,
        "12092": 149,
        "12093": 213,
        "12094": 133,
        "12095": 150,
        "12096": 157,
        "12097": 45,
        "12098": 254,
        "12099": 222,
        "12100": 197,
        "12101": 116,
        "12102": 62,
        "12103": 121,
        "12104": 66,
        "12105": 206,
        "12106": 34,
        "12107": 144,
        "12108": 118,
        "12109": 190,
        "12110": 158,
        "12111": 151,
        "12112": 131,
        "12113": 70,
        "12114": 253,
        "12115": 77,
        "12116": 116,
        "12117": 19,
        "12118": 39,
        "12119": 164,
        "12120": 237,
        "12121": 100,
        "12122": 171,
        "12123": 56,
        "12124": 146,
        "12125": 255,
        "12126": 175,
        "12127": 49,
        "12128": 102,
        "12129": 184,
        "12130": 92,
        "12131": 178,
        "12132": 72,
        "12133": 152,
        "12134": 41,
        "12135": 10,
        "12136": 78,
        "12137": 67,
        "12138": 220,
        "12139": 216,
        "12140": 218,
        "12141": 17,
        "12142": 26,
        "12143": 167,
        "12144": 222,
        "12145": 187,
        "12146": 188,
        "12147": 162,
        "12148": 9,
        "12149": 146,
        "12150": 141,
        "12151": 205,
        "12152": 220,
        "12153": 80,
        "12154": 122,
        "12155": 12,
        "12156": 138,
        "12157": 86,
        "12158": 99,
        "12159": 134,
        "12160": 233,
        "12161": 99,
        "12162": 251,
        "12163": 241,
        "12164": 165,
        "12165": 29,
        "12166": 65,
        "12167": 227,
        "12168": 32,
        "12169": 144,
        "12170": 241,
        "12171": 180,
        "12172": 203,
        "12173": 255,
        "12174": 111,
        "12175": 102,
        "12176": 33,
        "12177": 50,
        "12178": 107,
        "12179": 52,
        "12180": 153,
        "12181": 74,
        "12182": 160,
        "12183": 73,
        "12184": 155,
        "12185": 217,
        "12186": 80,
        "12187": 212,
        "12188": 89,
        "12189": 156,
        "12190": 75,
        "12191": 221,
        "12192": 41,
        "12193": 116,
        "12194": 185,
        "12195": 78,
        "12196": 86,
        "12197": 95,
        "12198": 90,
        "12199": 25,
        "12200": 25,
        "12201": 169,
        "12202": 162,
        "12203": 112,
        "12204": 229,
        "12205": 238,
        "12206": 224,
        "12207": 250,
        "12208": 232,
        "12209": 95,
        "12210": 189,
        "12211": 63,
        "12212": 48,
        "12213": 70,
        "12214": 12,
        "12215": 106,
        "12216": 162,
        "12217": 95,
        "12218": 56,
        "12219": 194,
        "12220": 193,
        "12221": 153,
        "12222": 36,
        "12223": 124,
        "12224": 118,
        "12225": 139,
        "12226": 77,
        "12227": 169,
        "12228": 54,
        "12229": 217,
        "12230": 137,
        "12231": 200,
        "12232": 234,
        "12233": 151,
        "12234": 165,
        "12235": 19,
        "12236": 170,
        "12237": 105,
        "12238": 65,
        "12239": 44,
        "12240": 81,
        "12241": 25,
        "12242": 4,
        "12243": 84,
        "12244": 179,
        "12245": 209,
        "12246": 191,
        "12247": 159,
        "12248": 248,
        "12249": 79,
        "12250": 38,
        "12251": 227,
        "12252": 183,
        "12253": 129,
        "12254": 46,
        "12255": 234,
        "12256": 37,
        "12257": 209,
        "12258": 230,
        "12259": 174,
        "12260": 216,
        "12261": 174,
        "12262": 103,
        "12263": 124,
        "12264": 193,
        "12265": 31,
        "12266": 43,
        "12267": 52,
        "12268": 76,
        "12269": 235,
        "12270": 105,
        "12271": 26,
        "12272": 71,
        "12273": 225,
        "12274": 3,
        "12275": 94,
        "12276": 201,
        "12277": 116,
        "12278": 197,
        "12279": 234,
        "12280": 151,
        "12281": 122,
        "12282": 12,
        "12283": 229,
        "12284": 144,
        "12285": 86,
        "12286": 192,
        "12287": 195,
        "12288": 250,
        "12289": 105,
        "12290": 111,
        "12291": 129,
        "12292": 226,
        "12293": 101,
        "12294": 150,
        "12295": 153,
        "12296": 106,
        "12297": 18,
        "12298": 246,
        "12299": 108,
        "12300": 89,
        "12301": 58,
        "12302": 26,
        "12303": 225,
        "12304": 15,
        "12305": 124,
        "12306": 126,
        "12307": 192,
        "12308": 151,
        "12309": 31,
        "12310": 27,
        "12311": 44,
        "12312": 1,
        "12313": 174,
        "12314": 72,
        "12315": 214,
        "12316": 119,
        "12317": 222,
        "12318": 41,
        "12319": 86,
        "12320": 11,
        "12321": 60,
        "12322": 111,
        "12323": 214,
        "12324": 170,
        "12325": 110,
        "12326": 47,
        "12327": 230,
        "12328": 52,
        "12329": 86,
        "12330": 126,
        "12331": 166,
        "12332": 16,
        "12333": 88,
        "12334": 213,
        "12335": 206,
        "12336": 115,
        "12337": 50,
        "12338": 79,
        "12339": 23,
        "12340": 48,
        "12341": 66,
        "12342": 248,
        "12343": 249,
        "12344": 93,
        "12345": 118,
        "12346": 240,
        "12347": 224,
        "12348": 95,
        "12349": 248,
        "12350": 154,
        "12351": 7,
        "12352": 61,
        "12353": 230,
        "12354": 43,
        "12355": 197,
        "12356": 76,
        "12357": 235,
        "12358": 9,
        "12359": 155,
        "12360": 17,
        "12361": 77,
        "12362": 155,
        "12363": 189,
        "12364": 134,
        "12365": 78,
        "12366": 103,
        "12367": 138,
        "12368": 247,
        "12369": 110,
        "12370": 67,
        "12371": 151,
        "12372": 230,
        "12373": 203,
        "12374": 43,
        "12375": 114,
        "12376": 252,
        "12377": 168,
        "12378": 97,
        "12379": 113,
        "12380": 181,
        "12381": 250,
        "12382": 124,
        "12383": 199,
        "12384": 178,
        "12385": 162,
        "12386": 169,
        "12387": 33,
        "12388": 30,
        "12389": 70,
        "12390": 186,
        "12391": 20,
        "12392": 73,
        "12393": 85,
        "12394": 63,
        "12395": 31,
        "12396": 87,
        "12397": 185,
        "12398": 72,
        "12399": 47,
        "12400": 219,
        "12401": 79,
        "12402": 54,
        "12403": 203,
        "12404": 99,
        "12405": 120,
        "12406": 232,
        "12407": 82,
        "12408": 82,
        "12409": 72,
        "12410": 205,
        "12411": 25,
        "12412": 123,
        "12413": 166,
        "12414": 39,
        "12415": 83,
        "12416": 78,
        "12417": 236,
        "12418": 205,
        "12419": 141,
        "12420": 177,
        "12421": 167,
        "12422": 216,
        "12423": 203,
        "12424": 46,
        "12425": 185,
        "12426": 147,
        "12427": 223,
        "12428": 141,
        "12429": 67,
        "12430": 9,
        "12431": 23,
        "12432": 242,
        "12433": 141,
        "12434": 185,
        "12435": 231,
        "12436": 41,
        "12437": 247,
        "12438": 109,
        "12439": 210,
        "12440": 8,
        "12441": 236,
        "12442": 61,
        "12443": 230,
        "12444": 86,
        "12445": 200,
        "12446": 215,
        "12447": 92,
        "12448": 45,
        "12449": 114,
        "12450": 40,
        "12451": 119,
        "12452": 4,
        "12453": 116,
        "12454": 66,
        "12455": 65,
        "12456": 205,
        "12457": 204,
        "12458": 200,
        "12459": 233,
        "12460": 83,
        "12461": 254,
        "12462": 52,
        "12463": 140,
        "12464": 163,
        "12465": 53,
        "12466": 93,
        "12467": 243,
        "12468": 84,
        "12469": 176,
        "12470": 100,
        "12471": 73,
        "12472": 176,
        "12473": 145,
        "12474": 114,
        "12475": 132,
        "12476": 0,
        "12477": 100,
        "12478": 183,
        "12479": 102,
        "12480": 192,
        "12481": 181,
        "12482": 188,
        "12483": 115,
        "12484": 102,
        "12485": 119,
        "12486": 106,
        "12487": 200,
        "12488": 81,
        "12489": 179,
        "12490": 41,
        "12491": 3,
        "12492": 53,
        "12493": 234,
        "12494": 121,
        "12495": 249,
        "12496": 107,
        "12497": 91,
        "12498": 61,
        "12499": 148,
        "12500": 60,
        "12501": 197,
        "12502": 133,
        "12503": 14,
        "12504": 174,
        "12505": 247,
        "12506": 79,
        "12507": 179,
        "12508": 194,
        "12509": 216,
        "12510": 121,
        "12511": 59,
        "12512": 13,
        "12513": 83,
        "12514": 76,
        "12515": 189,
        "12516": 232,
        "12517": 242,
        "12518": 126,
        "12519": 190,
        "12520": 202,
        "12521": 232,
        "12522": 64,
        "12523": 74,
        "12524": 23,
        "12525": 27,
        "12526": 152,
        "12527": 228,
        "12528": 222,
        "12529": 1,
        "12530": 103,
        "12531": 83,
        "12532": 44,
        "12533": 98,
        "12534": 95,
        "12535": 251,
        "12536": 139,
        "12537": 3,
        "12538": 135,
        "12539": 185,
        "12540": 170,
        "12541": 83,
        "12542": 20,
        "12543": 31,
        "12544": 51,
        "12545": 129,
        "12546": 221,
        "12547": 217,
        "12548": 241,
        "12549": 212,
        "12550": 222,
        "12551": 8,
        "12552": 204,
        "12553": 48,
        "12554": 194,
        "12555": 136,
        "12556": 94,
        "12557": 17,
        "12558": 161,
        "12559": 82,
        "12560": 105,
        "12561": 249,
        "12562": 163,
        "12563": 245,
        "12564": 216,
        "12565": 87,
        "12566": 122,
        "12567": 212,
        "12568": 133,
        "12569": 84,
        "12570": 197,
        "12571": 250,
        "12572": 230,
        "12573": 5,
        "12574": 7,
        "12575": 140,
        "12576": 203,
        "12577": 204,
        "12578": 44,
        "12579": 107,
        "12580": 143,
        "12581": 185,
        "12582": 18,
        "12583": 80,
        "12584": 202,
        "12585": 205,
        "12586": 60,
        "12587": 133,
        "12588": 96,
        "12589": 179,
        "12590": 134,
        "12591": 83,
        "12592": 252,
        "12593": 82,
        "12594": 162,
        "12595": 38,
        "12596": 143,
        "12597": 48,
        "12598": 95,
        "12599": 3,
        "12600": 121,
        "12601": 228,
        "12602": 149,
        "12603": 209,
        "12604": 91,
        "12605": 194,
        "12606": 33,
        "12607": 115,
        "12608": 64,
        "12609": 126,
        "12610": 108,
        "12611": 95,
        "12612": 59,
        "12613": 116,
        "12614": 57,
        "12615": 185,
        "12616": 199,
        "12617": 60,
        "12618": 225,
        "12619": 149,
        "12620": 228,
        "12621": 41,
        "12622": 153,
        "12623": 251,
        "12624": 195,
        "12625": 35,
        "12626": 228,
        "12627": 61,
        "12628": 91,
        "12629": 196,
        "12630": 247,
        "12631": 68,
        "12632": 17,
        "12633": 247,
        "12634": 216,
        "12635": 220,
        "12636": 240,
        "12637": 43,
        "12638": 1,
        "12639": 12,
        "12640": 142,
        "12641": 220,
        "12642": 222,
        "12643": 121,
        "12644": 94,
        "12645": 3,
        "12646": 68,
        "12647": 138,
        "12648": 213,
        "12649": 79,
        "12650": 167,
        "12651": 30,
        "12652": 164,
        "12653": 210,
        "12654": 34,
        "12655": 134,
        "12656": 174,
        "12657": 96,
        "12658": 180,
        "12659": 5,
        "12660": 184,
        "12661": 222,
        "12662": 4,
        "12663": 173,
        "12664": 111,
        "12665": 213,
        "12666": 130,
        "12667": 53,
        "12668": 151,
        "12669": 17,
        "12670": 10,
        "12671": 208,
        "12672": 148,
        "12673": 214,
        "12674": 102,
        "12675": 146,
        "12676": 66,
        "12677": 207,
        "12678": 193,
        "12679": 18,
        "12680": 203,
        "12681": 224,
        "12682": 238,
        "12683": 157,
        "12684": 229,
        "12685": 156,
        "12686": 136,
        "12687": 54,
        "12688": 12,
        "12689": 137,
        "12690": 202,
        "12691": 38,
        "12692": 105,
        "12693": 73,
        "12694": 236,
        "12695": 115,
        "12696": 113,
        "12697": 30,
        "12698": 74,
        "12699": 157,
        "12700": 152,
        "12701": 80,
        "12702": 100,
        "12703": 130,
        "12704": 164,
        "12705": 154,
        "12706": 195,
        "12707": 77,
        "12708": 125,
        "12709": 164,
        "12710": 195,
        "12711": 54,
        "12712": 64,
        "12713": 79,
        "12714": 155,
        "12715": 4,
        "12716": 97,
        "12717": 36,
        "12718": 107,
        "12719": 185,
        "12720": 99,
        "12721": 158,
        "12722": 202,
        "12723": 237,
        "12724": 189,
        "12725": 177,
        "12726": 75,
        "12727": 192,
        "12728": 140,
        "12729": 125,
        "12730": 38,
        "12731": 195,
        "12732": 245,
        "12733": 168,
        "12734": 60,
        "12735": 114,
        "12736": 24,
        "12737": 107,
        "12738": 101,
        "12739": 136,
        "12740": 218,
        "12741": 74,
        "12742": 208,
        "12743": 43,
        "12744": 216,
        "12745": 126,
        "12746": 237,
        "12747": 161,
        "12748": 118,
        "12749": 48,
        "12750": 68,
        "12751": 231,
        "12752": 110,
        "12753": 207,
        "12754": 174,
        "12755": 85,
        "12756": 43,
        "12757": 229,
        "12758": 242,
        "12759": 48,
        "12760": 119,
        "12761": 174,
        "12762": 166,
        "12763": 12,
        "12764": 164,
        "12765": 202,
        "12766": 37,
        "12767": 255,
        "12768": 253,
        "12769": 192,
        "12770": 53,
        "12771": 89,
        "12772": 202,
        "12773": 237,
        "12774": 109,
        "12775": 162,
        "12776": 223,
        "12777": 94,
        "12778": 49,
        "12779": 171,
        "12780": 117,
        "12781": 80,
        "12782": 85,
        "12783": 239,
        "12784": 50,
        "12785": 136,
        "12786": 189,
        "12787": 0,
        "12788": 48,
        "12789": 160,
        "12790": 102,
        "12791": 232,
        "12792": 250,
        "12793": 61,
        "12794": 80,
        "12795": 180,
        "12796": 144,
        "12797": 116,
        "12798": 14,
        "12799": 189,
        "12800": 176,
        "12801": 108,
        "12802": 46,
        "12803": 69,
        "12804": 71,
        "12805": 246,
        "12806": 209,
        "12807": 157,
        "12808": 70,
        "12809": 212,
        "12810": 177,
        "12811": 76,
        "12812": 65,
        "12813": 69,
        "12814": 164,
        "12815": 18,
        "12816": 52,
        "12817": 187,
        "12818": 200,
        "12819": 242,
        "12820": 190,
        "12821": 129,
        "12822": 136,
        "12823": 209,
        "12824": 44,
        "12825": 240,
        "12826": 225,
        "12827": 216,
        "12828": 222,
        "12829": 246,
        "12830": 12,
        "12831": 187,
        "12832": 67,
        "12833": 12,
        "12834": 73,
        "12835": 112,
        "12836": 166,
        "12837": 3,
        "12838": 100,
        "12839": 224,
        "12840": 43,
        "12841": 109,
        "12842": 129,
        "12843": 45,
        "12844": 19,
        "12845": 144,
        "12846": 242,
        "12847": 68,
        "12848": 253,
        "12849": 110,
        "12850": 254,
        "12851": 160,
        "12852": 53,
        "12853": 125,
        "12854": 105,
        "12855": 147,
        "12856": 198,
        "12857": 131,
        "12858": 191,
        "12859": 20,
        "12860": 183,
        "12861": 100,
        "12862": 140,
        "12863": 18,
        "12864": 33,
        "12865": 104,
        "12866": 75,
        "12867": 170,
        "12868": 246,
        "12869": 197,
        "12870": 160,
        "12871": 238,
        "12872": 134,
        "12873": 180,
        "12874": 92,
        "12875": 172,
        "12876": 239,
        "12877": 228,
        "12878": 13,
        "12879": 184,
        "12880": 8,
        "12881": 71,
        "12882": 202,
        "12883": 145,
        "12884": 89,
        "12885": 95,
        "12886": 225,
        "12887": 79,
        "12888": 173,
        "12889": 102,
        "12890": 180,
        "12891": 200,
        "12892": 186,
        "12893": 214,
        "12894": 215,
        "12895": 68,
        "12896": 66,
        "12897": 28,
        "12898": 81,
        "12899": 97,
        "12900": 72,
        "12901": 31,
        "12902": 250,
        "12903": 40,
        "12904": 217,
        "12905": 35,
        "12906": 111,
        "12907": 133,
        "12908": 204,
        "12909": 86,
        "12910": 119,
        "12911": 5,
        "12912": 205,
        "12913": 71,
        "12914": 76,
        "12915": 58,
        "12916": 35,
        "12917": 84,
        "12918": 160,
        "12919": 244,
        "12920": 51,
        "12921": 43,
        "12922": 133,
        "12923": 4,
        "12924": 122,
        "12925": 59,
        "12926": 96,
        "12927": 139,
        "12928": 74,
        "12929": 164,
        "12930": 227,
        "12931": 147,
        "12932": 45,
        "12933": 253,
        "12934": 27,
        "12935": 104,
        "12936": 48,
        "12937": 159,
        "12938": 4,
        "12939": 171,
        "12940": 75,
        "12941": 3,
        "12942": 0,
        "12943": 124,
        "12944": 225,
        "12945": 192,
        "12946": 0,
        "12947": 60,
        "12948": 112,
        "12949": 247,
        "12950": 237,
        "12951": 95,
        "12952": 215,
        "12953": 13,
        "12954": 173,
        "12955": 31,
        "12956": 223,
        "12957": 12,
        "12958": 71,
        "12959": 81,
        "12960": 46,
        "12961": 221,
        "12962": 217,
        "12963": 37,
        "12964": 99,
        "12965": 103,
        "12966": 83,
        "12967": 156,
        "12968": 0,
        "12969": 153,
        "12970": 14,
        "12971": 253,
        "12972": 242,
        "12973": 116,
        "12974": 214,
        "12975": 225,
        "12976": 13,
        "12977": 13,
        "12978": 232,
        "12979": 163,
        "12980": 98,
        "12981": 160,
        "12982": 72,
        "12983": 245,
        "12984": 180,
        "12985": 44,
        "12986": 250,
        "12987": 164,
        "12988": 84,
        "12989": 158,
        "12990": 114,
        "12991": 221,
        "12992": 53,
        "12993": 116,
        "12994": 247,
        "12995": 165,
        "12996": 68,
        "12997": 204,
        "12998": 146,
        "12999": 217,
        "13000": 179,
        "13001": 15,
        "13002": 41,
        "13003": 101,
        "13004": 121,
        "13005": 56,
        "13006": 159,
        "13007": 85,
        "13008": 210,
        "13009": 76,
        "13010": 229,
        "13011": 124,
        "13012": 10,
        "13013": 252,
        "13014": 82,
        "13015": 6,
        "13016": 207,
        "13017": 77,
        "13018": 217,
        "13019": 200,
        "13020": 190,
        "13021": 213,
        "13022": 199,
        "13023": 121,
        "13024": 199,
        "13025": 178,
        "13026": 47,
        "13027": 37,
        "13028": 94,
        "13029": 165,
        "13030": 238,
        "13031": 202,
        "13032": 36,
        "13033": 10,
        "13034": 73,
        "13035": 5,
        "13036": 31,
        "13037": 62,
        "13038": 135,
        "13039": 2,
        "13040": 66,
        "13041": 105,
        "13042": 88,
        "13043": 72,
        "13044": 53,
        "13045": 164,
        "13046": 233,
        "13047": 150,
        "13048": 218,
        "13049": 14,
        "13050": 66,
        "13051": 205,
        "13052": 193,
        "13053": 220,
        "13054": 65,
        "13055": 125,
        "13056": 74,
        "13057": 75,
        "13058": 232,
        "13059": 66,
        "13060": 23,
        "13061": 87,
        "13062": 141,
        "13063": 7,
        "13064": 187,
        "13065": 107,
        "13066": 73,
        "13067": 112,
        "13068": 207,
        "13069": 96,
        "13070": 227,
        "13071": 33,
        "13072": 33,
        "13073": 181,
        "13074": 13,
        "13075": 224,
        "13076": 121,
        "13077": 222,
        "13078": 235,
        "13079": 95,
        "13080": 66,
        "13081": 7,
        "13082": 207,
        "13083": 57,
        "13084": 203,
        "13085": 55,
        "13086": 31,
        "13087": 255,
        "13088": 172,
        "13089": 53,
        "13090": 232,
        "13091": 224,
        "13092": 64,
        "13093": 180,
        "13094": 160,
        "13095": 122,
        "13096": 154,
        "13097": 236,
        "13098": 106,
        "13099": 26,
        "13100": 104,
        "13101": 209,
        "13102": 182,
        "13103": 165,
        "13104": 73,
        "13105": 206,
        "13106": 244,
        "13107": 128,
        "13108": 68,
        "13109": 112,
        "13110": 170,
        "13111": 248,
        "13112": 172,
        "13113": 252,
        "13114": 227,
        "13115": 159,
        "13116": 205,
        "13117": 4,
        "13118": 204,
        "13119": 155,
        "13120": 99,
        "13121": 253,
        "13122": 113,
        "13123": 161,
        "13124": 170,
        "13125": 188,
        "13126": 100,
        "13127": 254,
        "13128": 10,
        "13129": 85,
        "13130": 241,
        "13131": 62,
        "13132": 28,
        "13133": 124,
        "13134": 92,
        "13135": 215,
        "13136": 225,
        "13137": 206,
        "13138": 127,
        "13139": 75,
        "13140": 83,
        "13141": 249,
        "13142": 145,
        "13143": 76,
        "13144": 243,
        "13145": 82,
        "13146": 185,
        "13147": 230,
        "13148": 236,
        "13149": 239,
        "13150": 8,
        "13151": 153,
        "13152": 150,
        "13153": 39,
        "13154": 162,
        "13155": 158,
        "13156": 84,
        "13157": 51,
        "13158": 114,
        "13159": 93,
        "13160": 143,
        "13161": 59,
        "13162": 18,
        "13163": 252,
        "13164": 242,
        "13165": 109,
        "13166": 8,
        "13167": 69,
        "13168": 82,
        "13169": 31,
        "13170": 107,
        "13171": 116,
        "13172": 202,
        "13173": 21,
        "13174": 208,
        "13175": 97,
        "13176": 217,
        "13177": 0,
        "13178": 162,
        "13179": 65,
        "13180": 239,
        "13181": 231,
        "13182": 32,
        "13183": 116,
        "13184": 148,
        "13185": 120,
        "13186": 119,
        "13187": 71,
        "13188": 1,
        "13189": 47,
        "13190": 183,
        "13191": 24,
        "13192": 189,
        "13193": 224,
        "13194": 15,
        "13195": 104,
        "13196": 231,
        "13197": 129,
        "13198": 191,
        "13199": 0,
        "13200": 170,
        "13201": 220,
        "13202": 125,
        "13203": 242,
        "13204": 59,
        "13205": 114,
        "13206": 25,
        "13207": 202,
        "13208": 131,
        "13209": 134,
        "13210": 154,
        "13211": 124,
        "13212": 197,
        "13213": 179,
        "13214": 210,
        "13215": 66,
        "13216": 102,
        "13217": 96,
        "13218": 122,
        "13219": 137,
        "13220": 210,
        "13221": 246,
        "13222": 222,
        "13223": 128,
        "13224": 195,
        "13225": 173,
        "13226": 21,
        "13227": 194,
        "13228": 53,
        "13229": 13,
        "13230": 199,
        "13231": 180,
        "13232": 11,
        "13233": 32,
        "13234": 209,
        "13235": 222,
        "13236": 50,
        "13237": 118,
        "13238": 109,
        "13239": 126,
        "13240": 170,
        "13241": 93,
        "13242": 123,
        "13243": 15,
        "13244": 17,
        "13245": 69,
        "13246": 123,
        "13247": 207,
        "13248": 169,
        "13249": 89,
        "13250": 63,
        "13251": 219,
        "13252": 36,
        "13253": 243,
        "13254": 106,
        "13255": 179,
        "13256": 58,
        "13257": 79,
        "13258": 229,
        "13259": 20,
        "13260": 216,
        "13261": 23,
        "13262": 98,
        "13263": 122,
        "13264": 254,
        "13265": 148,
        "13266": 203,
        "13267": 53,
        "13268": 166,
        "13269": 216,
        "13270": 54,
        "13271": 152,
        "13272": 18,
        "13273": 130,
        "13274": 229,
        "13275": 67,
        "13276": 0,
        "13277": 185,
        "13278": 144,
        "13279": 237,
        "13280": 33,
        "13281": 154,
        "13282": 57,
        "13283": 222,
        "13284": 76,
        "13285": 229,
        "13286": 101,
        "13287": 175,
        "13288": 24,
        "13289": 201,
        "13290": 52,
        "13291": 237,
        "13292": 193,
        "13293": 196,
        "13294": 142,
        "13295": 246,
        "13296": 42,
        "13297": 51,
        "13298": 13,
        "13299": 151,
        "13300": 227,
        "13301": 207,
        "13302": 216,
        "13303": 225,
        "13304": 27,
        "13305": 147,
        "13306": 199,
        "13307": 78,
        "13308": 231,
        "13309": 68,
        "13310": 230,
        "13311": 136,
        "13312": 29,
        "13313": 39,
        "13314": 231,
        "13315": 109,
        "13316": 195,
        "13317": 2,
        "13318": 16,
        "13319": 62,
        "13320": 96,
        "13321": 125,
        "13322": 33,
        "13323": 124,
        "13324": 165,
        "13325": 169,
        "13326": 181,
        "13327": 37,
        "13328": 177,
        "13329": 128,
        "13330": 214,
        "13331": 66,
        "13332": 203,
        "13333": 84,
        "13334": 188,
        "13335": 63,
        "13336": 178,
        "13337": 9,
        "13338": 109,
        "13339": 115,
        "13340": 203,
        "13341": 235,
        "13342": 89,
        "13343": 238,
        "13344": 174,
        "13345": 196,
        "13346": 59,
        "13347": 192,
        "13348": 126,
        "13349": 0,
        "13350": 226,
        "13351": 55,
        "13352": 237,
        "13353": 198,
        "13354": 173,
        "13355": 246,
        "13356": 144,
        "13357": 156,
        "13358": 2,
        "13359": 137,
        "13360": 71,
        "13361": 35,
        "13362": 221,
        "13363": 206,
        "13364": 216,
        "13365": 137,
        "13366": 89,
        "13367": 22,
        "13368": 149,
        "13369": 129,
        "13370": 57,
        "13371": 53,
        "13372": 64,
        "13373": 154,
        "13374": 1,
        "13375": 203,
        "13376": 81,
        "13377": 101,
        "13378": 90,
        "13379": 240,
        "13380": 116,
        "13381": 230,
        "13382": 84,
        "13383": 90,
        "13384": 223,
        "13385": 216,
        "13386": 145,
        "13387": 44,
        "13388": 94,
        "13389": 201,
        "13390": 251,
        "13391": 137,
        "13392": 56,
        "13393": 172,
        "13394": 138,
        "13395": 178,
        "13396": 226,
        "13397": 30,
        "13398": 167,
        "13399": 218,
        "13400": 128,
        "13401": 6,
        "13402": 44,
        "13403": 28,
        "13404": 46,
        "13405": 115,
        "13406": 246,
        "13407": 32,
        "13408": 12,
        "13409": 110,
        "13410": 15,
        "13411": 214,
        "13412": 154,
        "13413": 64,
        "13414": 81,
        "13415": 128,
        "13416": 156,
        "13417": 222,
        "13418": 28,
        "13419": 39,
        "13420": 151,
        "13421": 29,
        "13422": 86,
        "13423": 159,
        "13424": 161,
        "13425": 65,
        "13426": 243,
        "13427": 158,
        "13428": 92,
        "13429": 250,
        "13430": 17,
        "13431": 36,
        "13432": 19,
        "13433": 85,
        "13434": 8,
        "13435": 0,
        "13436": 95,
        "13437": 172,
        "13438": 46,
        "13439": 209,
        "13440": 96,
        "13441": 36,
        "13442": 18,
        "13443": 113,
        "13444": 79,
        "13445": 93,
        "13446": 62,
        "13447": 228,
        "13448": 205,
        "13449": 186,
        "13450": 149,
        "13451": 23,
        "13452": 213,
        "13453": 203,
        "13454": 102,
        "13455": 31,
        "13456": 196,
        "13457": 202,
        "13458": 33,
        "13459": 224,
        "13460": 108,
        "13461": 149,
        "13462": 98,
        "13463": 116,
        "13464": 38,
        "13465": 155,
        "13466": 141,
        "13467": 207,
        "13468": 87,
        "13469": 138,
        "13470": 156,
        "13471": 126,
        "13472": 84,
        "13473": 87,
        "13474": 178,
        "13475": 210,
        "13476": 145,
        "13477": 160,
        "13478": 171,
        "13479": 199,
        "13480": 81,
        "13481": 87,
        "13482": 168,
        "13483": 166,
        "13484": 183,
        "13485": 164,
        "13486": 76,
        "13487": 46,
        "13488": 78,
        "13489": 190,
        "13490": 114,
        "13491": 164,
        "13492": 103,
        "13493": 16,
        "13494": 218,
        "13495": 92,
        "13496": 119,
        "13497": 20,
        "13498": 99,
        "13499": 166,
        "13500": 156,
        "13501": 28,
        "13502": 155,
        "13503": 140,
        "13504": 83,
        "13505": 89,
        "13506": 242,
        "13507": 240,
        "13508": 181,
        "13509": 199,
        "13510": 0,
        "13511": 108,
        "13512": 253,
        "13513": 101,
        "13514": 142,
        "13515": 156,
        "13516": 142,
        "13517": 162,
        "13518": 182,
        "13519": 52,
        "13520": 153,
        "13521": 120,
        "13522": 36,
        "13523": 234,
        "13524": 83,
        "13525": 149,
        "13526": 107,
        "13527": 219,
        "13528": 254,
        "13529": 207,
        "13530": 97,
        "13531": 58,
        "13532": 55,
        "13533": 145,
        "13534": 224,
        "13535": 204,
        "13536": 121,
        "13537": 199,
        "13538": 212,
        "13539": 149,
        "13540": 182,
        "13541": 11,
        "13542": 158,
        "13543": 115,
        "13544": 125,
        "13545": 21,
        "13546": 236,
        "13547": 233,
        "13548": 6,
        "13549": 91,
        "13550": 52,
        "13551": 18,
        "13552": 206,
        "13553": 129,
        "13554": 195,
        "13555": 166,
        "13556": 234,
        "13557": 117,
        "13558": 78,
        "13559": 209,
        "13560": 21,
        "13561": 236,
        "13562": 123,
        "13563": 73,
        "13564": 7,
        "13565": 203,
        "13566": 5,
        "13567": 67,
        "13568": 189,
        "13569": 60,
        "13570": 130,
        "13571": 185,
        "13572": 204,
        "13573": 94,
        "13574": 155,
        "13575": 74,
        "13576": 111,
        "13577": 88,
        "13578": 109,
        "13579": 132,
        "13580": 165,
        "13581": 99,
        "13582": 178,
        "13583": 124,
        "13584": 188,
        "13585": 158,
        "13586": 62,
        "13587": 121,
        "13588": 209,
        "13589": 159,
        "13590": 167,
        "13591": 126,
        "13592": 100,
        "13593": 136,
        "13594": 195,
        "13595": 175,
        "13596": 240,
        "13597": 136,
        "13598": 3,
        "13599": 99,
        "13600": 227,
        "13601": 8,
        "13602": 58,
        "13603": 164,
        "13604": 165,
        "13605": 45,
        "13606": 159,
        "13607": 225,
        "13608": 48,
        "13609": 83,
        "13610": 231,
        "13611": 193,
        "13612": 174,
        "13613": 226,
        "13614": 78,
        "13615": 66,
        "13616": 201,
        "13617": 116,
        "13618": 118,
        "13619": 67,
        "13620": 209,
        "13621": 193,
        "13622": 74,
        "13623": 13,
        "13624": 36,
        "13625": 238,
        "13626": 120,
        "13627": 19,
        "13628": 120,
        "13629": 42,
        "13630": 192,
        "13631": 12,
        "13632": 117,
        "13633": 170,
        "13634": 56,
        "13635": 235,
        "13636": 203,
        "13637": 87,
        "13638": 117,
        "13639": 194,
        "13640": 215,
        "13641": 223,
        "13642": 167,
        "13643": 74,
        "13644": 27,
        "13645": 61,
        "13646": 27,
        "13647": 176,
        "13648": 223,
        "13649": 123,
        "13650": 178,
        "13651": 157,
        "13652": 170,
        "13653": 38,
        "13654": 199,
        "13655": 208,
        "13656": 111,
        "13657": 49,
        "13658": 81,
        "13659": 83,
        "13660": 106,
        "13661": 205,
        "13662": 253,
        "13663": 254,
        "13664": 164,
        "13665": 218,
        "13666": 17,
        "13667": 99,
        "13668": 158,
        "13669": 90,
        "13670": 161,
        "13671": 59,
        "13672": 235,
        "13673": 156,
        "13674": 57,
        "13675": 24,
        "13676": 5,
        "13677": 166,
        "13678": 162,
        "13679": 174,
        "13680": 250,
        "13681": 54,
        "13682": 193,
        "13683": 2,
        "13684": 162,
        "13685": 75,
        "13686": 5,
        "13687": 183,
        "13688": 9,
        "13689": 148,
        "13690": 42,
        "13691": 193,
        "13692": 209,
        "13693": 11,
        "13694": 196,
        "13695": 49,
        "13696": 112,
        "13697": 164,
        "13698": 43,
        "13699": 202,
        "13700": 94,
        "13701": 38,
        "13702": 144,
        "13703": 239,
        "13704": 73,
        "13705": 143,
        "13706": 74,
        "13707": 143,
        "13708": 2,
        "13709": 64,
        "13710": 196,
        "13711": 214,
        "13712": 70,
        "13713": 202,
        "13714": 198,
        "13715": 128,
        "13716": 17,
        "13717": 6,
        "13718": 163,
        "13719": 76,
        "13720": 53,
        "13721": 71,
        "13722": 97,
        "13723": 60,
        "13724": 154,
        "13725": 58,
        "13726": 248,
        "13727": 144,
        "13728": 99,
        "13729": 160,
        "13730": 205,
        "13731": 44,
        "13732": 191,
        "13733": 74,
        "13734": 26,
        "13735": 80,
        "13736": 128,
        "13737": 236,
        "13738": 179,
        "13739": 180,
        "13740": 97,
        "13741": 3,
        "13742": 135,
        "13743": 196,
        "13744": 192,
        "13745": 214,
        "13746": 247,
        "13747": 67,
        "13748": 114,
        "13749": 179,
        "13750": 11,
        "13751": 1,
        "13752": 172,
        "13753": 151,
        "13754": 229,
        "13755": 112,
        "13756": 212,
        "13757": 217,
        "13758": 229,
        "13759": 114,
        "13760": 104,
        "13761": 180,
        "13762": 70,
        "13763": 189,
        "13764": 102,
        "13765": 226,
        "13766": 162,
        "13767": 81,
        "13768": 255,
        "13769": 225,
        "13770": 8,
        "13771": 152,
        "13772": 126,
        "13773": 244,
        "13774": 129,
        "13775": 160,
        "13776": 131,
        "13777": 124,
        "13778": 239,
        "13779": 246,
        "13780": 199,
        "13781": 177,
        "13782": 43,
        "13783": 209,
        "13784": 51,
        "13785": 45,
        "13786": 42,
        "13787": 109,
        "13788": 126,
        "13789": 236,
        "13790": 163,
        "13791": 204,
        "13792": 10,
        "13793": 110,
        "13794": 190,
        "13795": 220,
        "13796": 71,
        "13797": 15,
        "13798": 173,
        "13799": 202,
        "13800": 23,
        "13801": 83,
        "13802": 255,
        "13803": 193,
        "13804": 53,
        "13805": 204,
        "13806": 161,
        "13807": 90,
        "13808": 36,
        "13809": 67,
        "13810": 33,
        "13811": 227,
        "13812": 99,
        "13813": 181,
        "13814": 25,
        "13815": 175,
        "13816": 39,
        "13817": 121,
        "13818": 59,
        "13819": 206,
        "13820": 64,
        "13821": 154,
        "13822": 176,
        "13823": 185,
        "13824": 85,
        "13825": 104,
        "13826": 27,
        "13827": 186,
        "13828": 11,
        "13829": 60,
        "13830": 30,
        "13831": 63,
        "13832": 1,
        "13833": 79,
        "13834": 78,
        "13835": 231,
        "13836": 155,
        "13837": 117,
        "13838": 253,
        "13839": 12,
        "13840": 123,
        "13841": 68,
        "13842": 101,
        "13843": 9,
        "13844": 56,
        "13845": 84,
        "13846": 8,
        "13847": 145,
        "13848": 1,
        "13849": 236,
        "13850": 145,
        "13851": 39,
        "13852": 23,
        "13853": 229,
        "13854": 4,
        "13855": 170,
        "13856": 172,
        "13857": 59,
        "13858": 92,
        "13859": 226,
        "13860": 98,
        "13861": 220,
        "13862": 142,
        "13863": 64,
        "13864": 143,
        "13865": 104,
        "13866": 140,
        "13867": 197,
        "13868": 76,
        "13869": 112,
        "13870": 178,
        "13871": 74,
        "13872": 40,
        "13873": 171,
        "13874": 28,
        "13875": 38,
        "13876": 9,
        "13877": 38,
        "13878": 114,
        "13879": 100,
        "13880": 176,
        "13881": 254,
        "13882": 230,
        "13883": 40,
        "13884": 1,
        "13885": 226,
        "13886": 141,
        "13887": 174,
        "13888": 16,
        "13889": 216,
        "13890": 121,
        "13891": 248,
        "13892": 101,
        "13893": 235,
        "13894": 38,
        "13895": 13,
        "13896": 115,
        "13897": 216,
        "13898": 22,
        "13899": 84,
        "13900": 153,
        "13901": 23,
        "13902": 168,
        "13903": 2,
        "13904": 252,
        "13905": 53,
        "13906": 130,
        "13907": 252,
        "13908": 8,
        "13909": 181,
        "13910": 61,
        "13911": 5,
        "13912": 57,
        "13913": 59,
        "13914": 236,
        "13915": 62,
        "13916": 18,
        "13917": 68,
        "13918": 132,
        "13919": 129,
        "13920": 177,
        "13921": 178,
        "13922": 49,
        "13923": 157,
        "13924": 1,
        "13925": 128,
        "13926": 246,
        "13927": 177,
        "13928": 122,
        "13929": 65,
        "13930": 156,
        "13931": 93,
        "13932": 58,
        "13933": 36,
        "13934": 59,
        "13935": 148,
        "13936": 237,
        "13937": 14,
        "13938": 60,
        "13939": 110,
        "13940": 112,
        "13941": 29,
        "13942": 66,
        "13943": 191,
        "13944": 140,
        "13945": 140,
        "13946": 61,
        "13947": 193,
        "13948": 7,
        "13949": 81,
        "13950": 105,
        "13951": 99,
        "13952": 251,
        "13953": 186,
        "13954": 220,
        "13955": 60,
        "13956": 179,
        "13957": 41,
        "13958": 104,
        "13959": 151,
        "13960": 160,
        "13961": 21,
        "13962": 240,
        "13963": 49,
        "13964": 239,
        "13965": 29,
        "13966": 37,
        "13967": 221,
        "13968": 71,
        "13969": 19,
        "13970": 24,
        "13971": 95,
        "13972": 174,
        "13973": 5,
        "13974": 107,
        "13975": 147,
        "13976": 203,
        "13977": 243,
        "13978": 255,
        "13979": 16,
        "13980": 202,
        "13981": 252,
        "13982": 150,
        "13983": 168,
        "13984": 88,
        "13985": 72,
        "13986": 144,
        "13987": 142,
        "13988": 70,
        "13989": 149,
        "13990": 233,
        "13991": 237,
        "13992": 91,
        "13993": 150,
        "13994": 33,
        "13995": 215,
        "13996": 152,
        "13997": 59,
        "13998": 156,
        "13999": 160,
        "14000": 145,
        "14001": 233,
        "14002": 115,
        "14003": 242,
        "14004": 2,
        "14005": 60,
        "14006": 5,
        "14007": 254,
        "14008": 225,
        "14009": 170,
        "14010": 90,
        "14011": 87,
        "14012": 165,
        "14013": 7,
        "14014": 222,
        "14015": 107,
        "14016": 45,
        "14017": 114,
        "14018": 153,
        "14019": 147,
        "14020": 24,
        "14021": 110,
        "14022": 28,
        "14023": 141,
        "14024": 153,
        "14025": 201,
        "14026": 52,
        "14027": 165,
        "14028": 24,
        "14029": 115,
        "14030": 160,
        "14031": 220,
        "14032": 18,
        "14033": 103,
        "14034": 66,
        "14035": 76,
        "14036": 31,
        "14037": 109,
        "14038": 247,
        "14039": 135,
        "14040": 219,
        "14041": 104,
        "14042": 173,
        "14043": 240,
        "14044": 200,
        "14045": 50,
        "14046": 83,
        "14047": 27,
        "14048": 41,
        "14049": 95,
        "14050": 214,
        "14051": 44,
        "14052": 69,
        "14053": 89,
        "14054": 78,
        "14055": 41,
        "14056": 248,
        "14057": 207,
        "14058": 171,
        "14059": 162,
        "14060": 250,
        "14061": 82,
        "14062": 105,
        "14063": 113,
        "14064": 170,
        "14065": 46,
        "14066": 186,
        "14067": 99,
        "14068": 8,
        "14069": 157,
        "14070": 37,
        "14071": 173,
        "14072": 44,
        "14073": 209,
        "14074": 76,
        "14075": 30,
        "14076": 104,
        "14077": 244,
        "14078": 82,
        "14079": 54,
        "14080": 253,
        "14081": 102,
        "14082": 14,
        "14083": 94,
        "14084": 2,
        "14085": 11,
        "14086": 72,
        "14087": 13,
        "14088": 101,
        "14089": 10,
        "14090": 187,
        "14091": 106,
        "14092": 54,
        "14093": 27,
        "14094": 226,
        "14095": 118,
        "14096": 122,
        "14097": 201,
        "14098": 117,
        "14099": 110,
        "14100": 79,
        "14101": 13,
        "14102": 96,
        "14103": 201,
        "14104": 77,
        "14105": 244,
        "14106": 245,
        "14107": 243,
        "14108": 76,
        "14109": 40,
        "14110": 11,
        "14111": 226,
        "14112": 200,
        "14113": 220,
        "14114": 95,
        "14115": 181,
        "14116": 241,
        "14117": 112,
        "14118": 200,
        "14119": 141,
        "14120": 119,
        "14121": 217,
        "14122": 244,
        "14123": 174,
        "14124": 159,
        "14125": 168,
        "14126": 91,
        "14127": 244,
        "14128": 77,
        "14129": 192,
        "14130": 128,
        "14131": 180,
        "14132": 198,
        "14133": 149,
        "14134": 131,
        "14135": 23,
        "14136": 234,
        "14137": 219,
        "14138": 127,
        "14139": 60,
        "14140": 205,
        "14141": 67,
        "14142": 198,
        "14143": 125,
        "14144": 108,
        "14145": 56,
        "14146": 65,
        "14147": 157,
        "14148": 64,
        "14149": 44,
        "14150": 150,
        "14151": 63,
        "14152": 254,
        "14153": 1,
        "14154": 165,
        "14155": 247,
        "14156": 240,
        "14157": 0,
        "14158": 56,
        "14159": 58,
        "14160": 38,
        "14161": 18,
        "14162": 153,
        "14163": 132,
        "14164": 95,
        "14165": 198,
        "14166": 107,
        "14167": 37,
        "14168": 43,
        "14169": 193,
        "14170": 45,
        "14171": 107,
        "14172": 167,
        "14173": 246,
        "14174": 153,
        "14175": 145,
        "14176": 58,
        "14177": 48,
        "14178": 148,
        "14179": 96,
        "14180": 54,
        "14181": 116,
        "14182": 189,
        "14183": 16,
        "14184": 203,
        "14185": 91,
        "14186": 162,
        "14187": 24,
        "14188": 248,
        "14189": 233,
        "14190": 73,
        "14191": 187,
        "14192": 203,
        "14193": 16,
        "14194": 241,
        "14195": 39,
        "14196": 117,
        "14197": 39,
        "14198": 96,
        "14199": 143,
        "14200": 68,
        "14201": 156,
        "14202": 39,
        "14203": 172,
        "14204": 28,
        "14205": 15,
        "14206": 152,
        "14207": 139,
        "14208": 46,
        "14209": 81,
        "14210": 60,
        "14211": 130,
        "14212": 216,
        "14213": 161,
        "14214": 11,
        "14215": 85,
        "14216": 218,
        "14217": 52,
        "14218": 38,
        "14219": 29,
        "14220": 109,
        "14221": 90,
        "14222": 76,
        "14223": 158,
        "14224": 33,
        "14225": 87,
        "14226": 74,
        "14227": 124,
        "14228": 252,
        "14229": 166,
        "14230": 66,
        "14231": 171,
        "14232": 51,
        "14233": 135,
        "14234": 226,
        "14235": 76,
        "14236": 109,
        "14237": 72,
        "14238": 115,
        "14239": 157,
        "14240": 201,
        "14241": 248,
        "14242": 72,
        "14243": 26,
        "14244": 70,
        "14245": 46,
        "14246": 68,
        "14247": 119,
        "14248": 116,
        "14249": 22,
        "14250": 229,
        "14251": 157,
        "14252": 16,
        "14253": 150,
        "14254": 29,
        "14255": 8,
        "14256": 72,
        "14257": 106,
        "14258": 115,
        "14259": 223,
        "14260": 8,
        "14261": 1,
        "14262": 0,
        "14263": 205,
        "14264": 55,
        "14265": 232,
        "14266": 96,
        "14267": 42,
        "14268": 230,
        "14269": 41,
        "14270": 108,
        "14271": 158,
        "14272": 97,
        "14273": 182,
        "14274": 171,
        "14275": 200,
        "14276": 186,
        "14277": 248,
        "14278": 157,
        "14279": 176,
        "14280": 44,
        "14281": 35,
        "14282": 179,
        "14283": 87,
        "14284": 97,
        "14285": 77,
        "14286": 160,
        "14287": 112,
        "14288": 219,
        "14289": 70,
        "14290": 222,
        "14291": 74,
        "14292": 32,
        "14293": 14,
        "14294": 3,
        "14295": 107,
        "14296": 178,
        "14297": 70,
        "14298": 33,
        "14299": 15,
        "14300": 162,
        "14301": 110,
        "14302": 101,
        "14303": 84,
        "14304": 165,
        "14305": 5,
        "14306": 46,
        "14307": 9,
        "14308": 172,
        "14309": 157,
        "14310": 49,
        "14311": 248,
        "14312": 176,
        "14313": 99,
        "14314": 31,
        "14315": 205,
        "14316": 186,
        "14317": 178,
        "14318": 104,
        "14319": 147,
        "14320": 164,
        "14321": 176,
        "14322": 41,
        "14323": 102,
        "14324": 144,
        "14325": 76,
        "14326": 106,
        "14327": 124,
        "14328": 12,
        "14329": 93,
        "14330": 53,
        "14331": 125,
        "14332": 224,
        "14333": 33,
        "14334": 15,
        "14335": 46,
        "14336": 233,
        "14337": 94,
        "14338": 219,
        "14339": 19,
        "14340": 223,
        "14341": 192,
        "14342": 17,
        "14343": 251,
        "14344": 204,
        "14345": 128,
        "14346": 121,
        "14347": 7,
        "14348": 172,
        "14349": 24,
        "14350": 188,
        "14351": 14,
        "14352": 224,
        "14353": 1,
        "14354": 90,
        "14355": 175,
        "14356": 22,
        "14357": 118,
        "14358": 197,
        "14359": 10,
        "14360": 159,
        "14361": 48,
        "14362": 104,
        "14363": 184,
        "14364": 170,
        "14365": 233,
        "14366": 143,
        "14367": 68,
        "14368": 43,
        "14369": 46,
        "14370": 92,
        "14371": 105,
        "14372": 230,
        "14373": 85,
        "14374": 59,
        "14375": 250,
        "14376": 7,
        "14377": 184,
        "14378": 154,
        "14379": 72,
        "14380": 151,
        "14381": 180,
        "14382": 211,
        "14383": 189,
        "14384": 222,
        "14385": 131,
        "14386": 174,
        "14387": 148,
        "14388": 152,
        "14389": 244,
        "14390": 25,
        "14391": 30,
        "14392": 124,
        "14393": 200,
        "14394": 167,
        "14395": 140,
        "14396": 202,
        "14397": 139,
        "14398": 207,
        "14399": 186,
        "14400": 220,
        "14401": 189,
        "14402": 11,
        "14403": 137,
        "14404": 5,
        "14405": 226,
        "14406": 29,
        "14407": 39,
        "14408": 113,
        "14409": 217,
        "14410": 239,
        "14411": 195,
        "14412": 9,
        "14413": 255,
        "14414": 129,
        "14415": 93,
        "14416": 164,
        "14417": 108,
        "14418": 41,
        "14419": 96,
        "14420": 137,
        "14421": 69,
        "14422": 181,
        "14423": 127,
        "14424": 49,
        "14425": 169,
        "14426": 198,
        "14427": 226,
        "14428": 243,
        "14429": 85,
        "14430": 102,
        "14431": 171,
        "14432": 64,
        "14433": 72,
        "14434": 54,
        "14435": 56,
        "14436": 132,
        "14437": 248,
        "14438": 99,
        "14439": 103,
        "14440": 95,
        "14441": 253,
        "14442": 235,
        "14443": 40,
        "14444": 112,
        "14445": 165,
        "14446": 129,
        "14447": 110,
        "14448": 61,
        "14449": 115,
        "14450": 225,
        "14451": 173,
        "14452": 70,
        "14453": 204,
        "14454": 201,
        "14455": 164,
        "14456": 57,
        "14457": 178,
        "14458": 248,
        "14459": 213,
        "14460": 142,
        "14461": 151,
        "14462": 137,
        "14463": 77,
        "14464": 55,
        "14465": 202,
        "14466": 88,
        "14467": 237,
        "14468": 225,
        "14469": 160,
        "14470": 15,
        "14471": 31,
        "14472": 16,
        "14473": 107,
        "14474": 51,
        "14475": 35,
        "14476": 186,
        "14477": 22,
        "14478": 24,
        "14479": 79,
        "14480": 117,
        "14481": 127,
        "14482": 17,
        "14483": 100,
        "14484": 7,
        "14485": 223,
        "14486": 23,
        "14487": 201,
        "14488": 136,
        "14489": 255,
        "14490": 40,
        "14491": 139,
        "14492": 206,
        "14493": 249,
        "14494": 98,
        "14495": 202,
        "14496": 44,
        "14497": 15,
        "14498": 185,
        "14499": 64,
        "14500": 210,
        "14501": 61,
        "14502": 160,
        "14503": 15,
        "14504": 95,
        "14505": 213,
        "14506": 90,
        "14507": 9,
        "14508": 203,
        "14509": 170,
        "14510": 21,
        "14511": 77,
        "14512": 141,
        "14513": 116,
        "14514": 82,
        "14515": 25,
        "14516": 39,
        "14517": 4,
        "14518": 105,
        "14519": 144,
        "14520": 63,
        "14521": 36,
        "14522": 254,
        "14523": 11,
        "14524": 42,
        "14525": 165,
        "14526": 220,
        "14527": 193,
        "14528": 146,
        "14529": 211,
        "14530": 171,
        "14531": 193,
        "14532": 95,
        "14533": 110,
        "14534": 11,
        "14535": 192,
        "14536": 203,
        "14537": 207,
        "14538": 224,
        "14539": 195,
        "14540": 188,
        "14541": 121,
        "14542": 170,
        "14543": 11,
        "14544": 228,
        "14545": 159,
        "14546": 69,
        "14547": 49,
        "14548": 135,
        "14549": 166,
        "14550": 48,
        "14551": 75,
        "14552": 146,
        "14553": 15,
        "14554": 253,
        "14555": 103,
        "14556": 0,
        "14557": 234,
        "14558": 186,
        "14559": 85,
        "14560": 59,
        "14561": 186,
        "14562": 148,
        "14563": 49,
        "14564": 114,
        "14565": 22,
        "14566": 6,
        "14567": 174,
        "14568": 243,
        "14569": 235,
        "14570": 231,
        "14571": 211,
        "14572": 164,
        "14573": 15,
        "14574": 25,
        "14575": 108,
        "14576": 174,
        "14577": 223,
        "14578": 184,
        "14579": 75,
        "14580": 11,
        "14581": 153,
        "14582": 201,
        "14583": 139,
        "14584": 80,
        "14585": 183,
        "14586": 237,
        "14587": 120,
        "14588": 29,
        "14589": 0,
        "14590": 191,
        "14591": 48,
        "14592": 178,
        "14593": 140,
        "14594": 151,
        "14595": 186,
        "14596": 169,
        "14597": 179,
        "14598": 188,
        "14599": 228,
        "14600": 161,
        "14601": 161,
        "14602": 86,
        "14603": 190,
        "14604": 22,
        "14605": 189,
        "14606": 98,
        "14607": 43,
        "14608": 81,
        "14609": 75,
        "14610": 91,
        "14611": 194,
        "14612": 74,
        "14613": 45,
        "14614": 216,
        "14615": 74,
        "14616": 21,
        "14617": 70,
        "14618": 112,
        "14619": 176,
        "14620": 153,
        "14621": 225,
        "14622": 30,
        "14623": 152,
        "14624": 180,
        "14625": 236,
        "14626": 210,
        "14627": 18,
        "14628": 180,
        "14629": 8,
        "14630": 118,
        "14631": 26,
        "14632": 50,
        "14633": 39,
        "14634": 149,
        "14635": 144,
        "14636": 108,
        "14637": 172,
        "14638": 38,
        "14639": 131,
        "14640": 58,
        "14641": 187,
        "14642": 153,
        "14643": 118,
        "14644": 36,
        "14645": 5,
        "14646": 101,
        "14647": 161,
        "14648": 226,
        "14649": 203,
        "14650": 142,
        "14651": 226,
        "14652": 203,
        "14653": 66,
        "14654": 200,
        "14655": 10,
        "14656": 189,
        "14657": 207,
        "14658": 162,
        "14659": 214,
        "14660": 137,
        "14661": 208,
        "14662": 132,
        "14663": 244,
        "14664": 118,
        "14665": 109,
        "14666": 194,
        "14667": 134,
        "14668": 141,
        "14669": 104,
        "14670": 120,
        "14671": 26,
        "14672": 68,
        "14673": 66,
        "14674": 103,
        "14675": 17,
        "14676": 49,
        "14677": 8,
        "14678": 149,
        "14679": 162,
        "14680": 238,
        "14681": 3,
        "14682": 101,
        "14683": 17,
        "14684": 161,
        "14685": 139,
        "14686": 118,
        "14687": 109,
        "14688": 58,
        "14689": 216,
        "14690": 15,
        "14691": 40,
        "14692": 112,
        "14693": 186,
        "14694": 133,
        "14695": 165,
        "14696": 0,
        "14697": 54,
        "14698": 158,
        "14699": 176,
        "14700": 239,
        "14701": 133,
        "14702": 134,
        "14703": 85,
        "14704": 179,
        "14705": 118,
        "14706": 22,
        "14707": 82,
        "14708": 228,
        "14709": 93,
        "14710": 46,
        "14711": 41,
        "14712": 217,
        "14713": 188,
        "14714": 22,
        "14715": 91,
        "14716": 193,
        "14717": 114,
        "14718": 78,
        "14719": 183,
        "14720": 172,
        "14721": 4,
        "14722": 93,
        "14723": 68,
        "14724": 206,
        "14725": 138,
        "14726": 84,
        "14727": 208,
        "14728": 182,
        "14729": 133,
        "14730": 51,
        "14731": 58,
        "14732": 137,
        "14733": 236,
        "14734": 189,
        "14735": 119,
        "14736": 116,
        "14737": 242,
        "14738": 144,
        "14739": 25,
        "14740": 33,
        "14741": 56,
        "14742": 136,
        "14743": 105,
        "14744": 47,
        "14745": 28,
        "14746": 200,
        "14747": 221,
        "14748": 50,
        "14749": 53,
        "14750": 215,
        "14751": 219,
        "14752": 155,
        "14753": 166,
        "14754": 207,
        "14755": 186,
        "14756": 172,
        "14757": 18,
        "14758": 178,
        "14759": 68,
        "14760": 75,
        "14761": 201,
        "14762": 79,
        "14763": 175,
        "14764": 15,
        "14765": 39,
        "14766": 215,
        "14767": 121,
        "14768": 77,
        "14769": 6,
        "14770": 254,
        "14771": 74,
        "14772": 159,
        "14773": 116,
        "14774": 175,
        "14775": 142,
        "14776": 200,
        "14777": 57,
        "14778": 53,
        "14779": 164,
        "14780": 241,
        "14781": 7,
        "14782": 146,
        "14783": 247,
        "14784": 3,
        "14785": 66,
        "14786": 178,
        "14787": 239,
        "14788": 140,
        "14789": 221,
        "14790": 243,
        "14791": 5,
        "14792": 72,
        "14793": 120,
        "14794": 187,
        "14795": 148,
        "14796": 237,
        "14797": 78,
        "14798": 160,
        "14799": 108,
        "14800": 152,
        "14801": 155,
        "14802": 28,
        "14803": 196,
        "14804": 24,
        "14805": 25,
        "14806": 118,
        "14807": 215,
        "14808": 145,
        "14809": 103,
        "14810": 207,
        "14811": 65,
        "14812": 120,
        "14813": 41,
        "14814": 66,
        "14815": 35,
        "14816": 120,
        "14817": 17,
        "14818": 138,
        "14819": 193,
        "14820": 12,
        "14821": 218,
        "14822": 138,
        "14823": 186,
        "14824": 11,
        "14825": 121,
        "14826": 252,
        "14827": 161,
        "14828": 223,
        "14829": 36,
        "14830": 13,
        "14831": 46,
        "14832": 129,
        "14833": 202,
        "14834": 77,
        "14835": 165,
        "14836": 252,
        "14837": 135,
        "14838": 142,
        "14839": 99,
        "14840": 88,
        "14841": 4,
        "14842": 124,
        "14843": 48,
        "14844": 195,
        "14845": 57,
        "14846": 140,
        "14847": 121,
        "14848": 15,
        "14849": 203,
        "14850": 42,
        "14851": 232,
        "14852": 118,
        "14853": 186,
        "14854": 145,
        "14855": 179,
        "14856": 46,
        "14857": 49,
        "14858": 99,
        "14859": 40,
        "14860": 37,
        "14861": 69,
        "14862": 166,
        "14863": 156,
        "14864": 58,
        "14865": 99,
        "14866": 204,
        "14867": 126,
        "14868": 131,
        "14869": 240,
        "14870": 124,
        "14871": 229,
        "14872": 37,
        "14873": 250,
        "14874": 141,
        "14875": 90,
        "14876": 27,
        "14877": 59,
        "14878": 223,
        "14879": 16,
        "14880": 64,
        "14881": 59,
        "14882": 48,
        "14883": 134,
        "14884": 185,
        "14885": 15,
        "14886": 214,
        "14887": 226,
        "14888": 22,
        "14889": 58,
        "14890": 73,
        "14891": 201,
        "14892": 101,
        "14893": 242,
        "14894": 170,
        "14895": 53,
        "14896": 70,
        "14897": 222,
        "14898": 42,
        "14899": 81,
        "14900": 189,
        "14901": 203,
        "14902": 40,
        "14903": 18,
        "14904": 123,
        "14905": 89,
        "14906": 17,
        "14907": 247,
        "14908": 255,
        "14909": 7,
        "14910": 216,
        "14911": 7,
        "14912": 200,
        "14913": 183,
        "14914": 100,
        "14915": 133,
        "14916": 194,
        "14917": 254,
        "14918": 123,
        "14919": 215,
        "14920": 84,
        "14921": 177,
        "14922": 101,
        "14923": 70,
        "14924": 164,
        "14925": 181,
        "14926": 191,
        "14927": 252,
        "14928": 90,
        "14929": 183,
        "14930": 48,
        "14931": 136,
        "14932": 83,
        "14933": 97,
        "14934": 68,
        "14935": 23,
        "14936": 144,
        "14937": 228,
        "14938": 196,
        "14939": 70,
        "14940": 4,
        "14941": 168,
        "14942": 112,
        "14943": 16,
        "14944": 103,
        "14945": 106,
        "14946": 98,
        "14947": 174,
        "14948": 54,
        "14949": 216,
        "14950": 208,
        "14951": 156,
        "14952": 144,
        "14953": 44,
        "14954": 43,
        "14955": 40,
        "14956": 126,
        "14957": 129,
        "14958": 55,
        "14959": 39,
        "14960": 23,
        "14961": 225,
        "14962": 167,
        "14963": 68,
        "14964": 125,
        "14965": 155,
        "14966": 14,
        "14967": 159,
        "14968": 224,
        "14969": 154,
        "14970": 120,
        "14971": 225,
        "14972": 143,
        "14973": 130,
        "14974": 158,
        "14975": 168,
        "14976": 129,
        "14977": 82,
        "14978": 80,
        "14979": 252,
        "14980": 255,
        "14981": 65,
        "14982": 13,
        "14983": 171,
        "14984": 104,
        "14985": 201,
        "14986": 226,
        "14987": 206,
        "14988": 4,
        "14989": 249,
        "14990": 182,
        "14991": 247,
        "14992": 135,
        "14993": 76,
        "14994": 2,
        "14995": 137,
        "14996": 79,
        "14997": 56,
        "14998": 100,
        "14999": 83,
        "15000": 102,
        "15001": 89,
        "15002": 65,
        "15003": 0,
        "15004": 93,
        "15005": 232,
        "15006": 118,
        "15007": 45,
        "15008": 246,
        "15009": 82,
        "15010": 31,
        "15011": 96,
        "15012": 230,
        "15013": 206,
        "15014": 36,
        "15015": 20,
        "15016": 191,
        "15017": 9,
        "15018": 245,
        "15019": 115,
        "15020": 9,
        "15021": 164,
        "15022": 213,
        "15023": 88,
        "15024": 108,
        "15025": 159,
        "15026": 150,
        "15027": 61,
        "15028": 111,
        "15029": 86,
        "15030": 85,
        "15031": 78,
        "15032": 91,
        "15033": 165,
        "15034": 103,
        "15035": 39,
        "15036": 126,
        "15037": 235,
        "15038": 166,
        "15039": 19,
        "15040": 40,
        "15041": 248,
        "15042": 10,
        "15043": 244,
        "15044": 8,
        "15045": 27,
        "15046": 4,
        "15047": 100,
        "15048": 217,
        "15049": 244,
        "15050": 172,
        "15051": 182,
        "15052": 172,
        "15053": 100,
        "15054": 253,
        "15055": 190,
        "15056": 104,
        "15057": 229,
        "15058": 20,
        "15059": 175,
        "15060": 16,
        "15061": 66,
        "15062": 109,
        "15063": 106,
        "15064": 86,
        "15065": 103,
        "15066": 212,
        "15067": 87,
        "15068": 95,
        "15069": 86,
        "15070": 72,
        "15071": 190,
        "15072": 165,
        "15073": 136,
        "15074": 42,
        "15075": 230,
        "15076": 31,
        "15077": 93,
        "15078": 111,
        "15079": 86,
        "15080": 126,
        "15081": 222,
        "15082": 143,
        "15083": 68,
        "15084": 194,
        "15085": 217,
        "15086": 236,
        "15087": 56,
        "15088": 137,
        "15089": 9,
        "15090": 246,
        "15091": 193,
        "15092": 71,
        "15093": 159,
        "15094": 107,
        "15095": 1,
        "15096": 190,
        "15097": 25,
        "15098": 184,
        "15099": 44,
        "15100": 239,
        "15101": 135,
        "15102": 94,
        "15103": 97,
        "15104": 223,
        "15105": 221,
        "15106": 4,
        "15107": 250,
        "15108": 91,
        "15109": 130,
        "15110": 238,
        "15111": 144,
        "15112": 83,
        "15113": 246,
        "15114": 8,
        "15115": 193,
        "15116": 45,
        "15117": 175,
        "15118": 210,
        "15119": 174,
        "15120": 241,
        "15121": 55,
        "15122": 77,
        "15123": 188,
        "15124": 52,
        "15125": 168,
        "15126": 77,
        "15127": 142,
        "15128": 124,
        "15129": 176,
        "15130": 43,
        "15131": 38,
        "15132": 230,
        "15133": 114,
        "15134": 214,
        "15135": 57,
        "15136": 4,
        "15137": 250,
        "15138": 185,
        "15139": 46,
        "15140": 46,
        "15141": 195,
        "15142": 130,
        "15143": 241,
        "15144": 124,
        "15145": 93,
        "15146": 44,
        "15147": 139,
        "15148": 127,
        "15149": 231,
        "15150": 53,
        "15151": 123,
        "15152": 235,
        "15153": 250,
        "15154": 106,
        "15155": 127,
        "15156": 154,
        "15157": 84,
        "15158": 34,
        "15159": 106,
        "15160": 92,
        "15161": 33,
        "15162": 235,
        "15163": 43,
        "15164": 2,
        "15165": 98,
        "15166": 136,
        "15167": 3,
        "15168": 147,
        "15169": 144,
        "15170": 218,
        "15171": 242,
        "15172": 82,
        "15173": 25,
        "15174": 246,
        "15175": 117,
        "15176": 232,
        "15177": 174,
        "15178": 107,
        "15179": 54,
        "15180": 139,
        "15181": 176,
        "15182": 61,
        "15183": 39,
        "15184": 148,
        "15185": 97,
        "15186": 234,
        "15187": 253,
        "15188": 41,
        "15189": 39,
        "15190": 106,
        "15191": 213,
        "15192": 23,
        "15193": 60,
        "15194": 81,
        "15195": 222,
        "15196": 67,
        "15197": 204,
        "15198": 186,
        "15199": 100,
        "15200": 26,
        "15201": 249,
        "15202": 243,
        "15203": 71,
        "15204": 34,
        "15205": 57,
        "15206": 202,
        "15207": 80,
        "15208": 162,
        "15209": 39,
        "15210": 237,
        "15211": 199,
        "15212": 202,
        "15213": 207,
        "15214": 80,
        "15215": 26,
        "15216": 28,
        "15217": 63,
        "15218": 100,
        "15219": 136,
        "15220": 106,
        "15221": 48,
        "15222": 248,
        "15223": 124,
        "15224": 94,
        "15225": 151,
        "15226": 119,
        "15227": 8,
        "15228": 36,
        "15229": 139,
        "15230": 228,
        "15231": 242,
        "15232": 88,
        "15233": 37,
        "15234": 243,
        "15235": 103,
        "15236": 31,
        "15237": 5,
        "15238": 225,
        "15239": 231,
        "15240": 198,
        "15241": 213,
        "15242": 40,
        "15243": 220,
        "15244": 222,
        "15245": 82,
        "15246": 232,
        "15247": 115,
        "15248": 209,
        "15249": 143,
        "15250": 155,
        "15251": 245,
        "15252": 12,
        "15253": 79,
        "15254": 195,
        "15255": 202,
        "15256": 28,
        "15257": 130,
        "15258": 42,
        "15259": 196,
        "15260": 155,
        "15261": 64,
        "15262": 172,
        "15263": 21,
        "15264": 95,
        "15265": 177,
        "15266": 246,
        "15267": 101,
        "15268": 85,
        "15269": 56,
        "15270": 234,
        "15271": 230,
        "15272": 8,
        "15273": 19,
        "15274": 192,
        "15275": 131,
        "15276": 163,
        "15277": 157,
        "15278": 222,
        "15279": 111,
        "15280": 54,
        "15281": 193,
        "15282": 102,
        "15283": 199,
        "15284": 85,
        "15285": 175,
        "15286": 252,
        "15287": 139,
        "15288": 127,
        "15289": 201,
        "15290": 106,
        "15291": 139,
        "15292": 3,
        "15293": 162,
        "15294": 17,
        "15295": 142,
        "15296": 178,
        "15297": 69,
        "15298": 146,
        "15299": 217,
        "15300": 97,
        "15301": 189,
        "15302": 47,
        "15303": 106,
        "15304": 19,
        "15305": 129,
        "15306": 50,
        "15307": 195,
        "15308": 232,
        "15309": 59,
        "15310": 25,
        "15311": 171,
        "15312": 170,
        "15313": 28,
        "15314": 54,
        "15315": 155,
        "15316": 202,
        "15317": 209,
        "15318": 99,
        "15319": 93,
        "15320": 76,
        "15321": 94,
        "15322": 86,
        "15323": 168,
        "15324": 234,
        "15325": 26,
        "15326": 135,
        "15327": 184,
        "15328": 113,
        "15329": 42,
        "15330": 198,
        "15331": 99,
        "15332": 63,
        "15333": 97,
        "15334": 71,
        "15335": 96,
        "15336": 164,
        "15337": 119,
        "15338": 111,
        "15339": 83,
        "15340": 117,
        "15341": 96,
        "15342": 83,
        "15343": 154,
        "15344": 50,
        "15345": 138,
        "15346": 157,
        "15347": 40,
        "15348": 69,
        "15349": 67,
        "15350": 109,
        "15351": 62,
        "15352": 197,
        "15353": 19,
        "15354": 176,
        "15355": 29,
        "15356": 204,
        "15357": 189,
        "15358": 49,
        "15359": 92,
        "15360": 77,
        "15361": 179,
        "15362": 174,
        "15363": 96,
        "15364": 1,
        "15365": 233,
        "15366": 248,
        "15367": 25,
        "15368": 87,
        "15369": 253,
        "15370": 85,
        "15371": 11,
        "15372": 70,
        "15373": 86,
        "15374": 94,
        "15375": 136,
        "15376": 136,
        "15377": 80,
        "15378": 174,
        "15379": 79,
        "15380": 38,
        "15381": 92,
        "15382": 88,
        "15383": 180,
        "15384": 156,
        "15385": 7,
        "15386": 111,
        "15387": 204,
        "15388": 228,
        "15389": 162,
        "15390": 134,
        "15391": 186,
        "15392": 18,
        "15393": 204,
        "15394": 72,
        "15395": 96,
        "15396": 129,
        "15397": 169,
        "15398": 86,
        "15399": 46,
        "15400": 250,
        "15401": 70,
        "15402": 109,
        "15403": 177,
        "15404": 218,
        "15405": 114,
        "15406": 151,
        "15407": 126,
        "15408": 217,
        "15409": 247,
        "15410": 225,
        "15411": 6,
        "15412": 251,
        "15413": 24,
        "15414": 240,
        "15415": 36,
        "15416": 254,
        "15417": 140,
        "15418": 48,
        "15419": 28,
        "15420": 183,
        "15421": 24,
        "15422": 120,
        "15423": 77,
        "15424": 45,
        "15425": 59,
        "15426": 42,
        "15427": 97,
        "15428": 255,
        "15429": 227,
        "15430": 155,
        "15431": 244,
        "15432": 246,
        "15433": 16,
        "15434": 34,
        "15435": 227,
        "15436": 174,
        "15437": 111,
        "15438": 201,
        "15439": 147,
        "15440": 242,
        "15441": 154,
        "15442": 1,
        "15443": 35,
        "15444": 125,
        "15445": 24,
        "15446": 9,
        "15447": 212,
        "15448": 191,
        "15449": 65,
        "15450": 109,
        "15451": 219,
        "15452": 247,
        "15453": 11,
        "15454": 89,
        "15455": 147,
        "15456": 103,
        "15457": 233,
        "15458": 115,
        "15459": 207,
        "15460": 47,
        "15461": 43,
        "15462": 85,
        "15463": 82,
        "15464": 249,
        "15465": 94,
        "15466": 142,
        "15467": 157,
        "15468": 222,
        "15469": 44,
        "15470": 253,
        "15471": 138,
        "15472": 141,
        "15473": 78,
        "15474": 131,
        "15475": 234,
        "15476": 238,
        "15477": 232,
        "15478": 13,
        "15479": 97,
        "15480": 90,
        "15481": 213,
        "15482": 35,
        "15483": 250,
        "15484": 85,
        "15485": 249,
        "15486": 244,
        "15487": 93,
        "15488": 34,
        "15489": 238,
        "15490": 237,
        "15491": 144,
        "15492": 43,
        "15493": 68,
        "15494": 165,
        "15495": 35,
        "15496": 144,
        "15497": 55,
        "15498": 81,
        "15499": 83,
        "15500": 4,
        "15501": 121,
        "15502": 206,
        "15503": 103,
        "15504": 219,
        "15505": 47,
        "15506": 57,
        "15507": 21,
        "15508": 236,
        "15509": 239,
        "15510": 218,
        "15511": 22,
        "15512": 57,
        "15513": 57,
        "15514": 22,
        "15515": 29,
        "15516": 93,
        "15517": 118,
        "15518": 196,
        "15519": 39,
        "15520": 227,
        "15521": 214,
        "15522": 112,
        "15523": 76,
        "15524": 58,
        "15525": 86,
        "15526": 43,
        "15527": 58,
        "15528": 248,
        "15529": 150,
        "15530": 94,
        "15531": 99,
        "15532": 46,
        "15533": 215,
        "15534": 145,
        "15535": 176,
        "15536": 182,
        "15537": 5,
        "15538": 251,
        "15539": 90,
        "15540": 143,
        "15541": 8,
        "15542": 208,
        "15543": 6,
        "15544": 240,
        "15545": 206,
        "15546": 201,
        "15547": 19,
        "15548": 34,
        "15549": 28,
        "15550": 206,
        "15551": 83,
        "15552": 162,
        "15553": 227,
        "15554": 224,
        "15555": 29,
        "15556": 10,
        "15557": 198,
        "15558": 48,
        "15559": 94,
        "15560": 30,
        "15561": 50,
        "15562": 8,
        "15563": 235,
        "15564": 135,
        "15565": 93,
        "15566": 14,
        "15567": 188,
        "15568": 68,
        "15569": 200,
        "15570": 172,
        "15571": 162,
        "15572": 70,
        "15573": 92,
        "15574": 78,
        "15575": 137,
        "15576": 75,
        "15577": 72,
        "15578": 99,
        "15579": 45,
        "15580": 216,
        "15581": 58,
        "15582": 86,
        "15583": 215,
        "15584": 251,
        "15585": 118,
        "15586": 24,
        "15587": 69,
        "15588": 215,
        "15589": 31,
        "15590": 198,
        "15591": 130,
        "15592": 127,
        "15593": 223,
        "15594": 0,
        "15595": 194,
        "15596": 215,
        "15597": 19,
        "15598": 208,
        "15599": 12,
        "15600": 132,
        "15601": 230,
        "15602": 91,
        "15603": 19,
        "15604": 68,
        "15605": 123,
        "15606": 10,
        "15607": 192,
        "15608": 63,
        "15609": 69,
        "15610": 187,
        "15611": 57,
        "15612": 107,
        "15613": 155,
        "15614": 159,
        "15615": 204,
        "15616": 101,
        "15617": 215,
        "15618": 119,
        "15619": 247,
        "15620": 244,
        "15621": 199,
        "15622": 53,
        "15623": 198,
        "15624": 231,
        "15625": 46,
        "15626": 165,
        "15627": 222,
        "15628": 55,
        "15629": 253,
        "15630": 175,
        "15631": 98,
        "15632": 186,
        "15633": 196,
        "15634": 119,
        "15635": 130,
        "15636": 15,
        "15637": 111,
        "15638": 190,
        "15639": 232,
        "15640": 208,
        "15641": 118,
        "15642": 152,
        "15643": 200,
        "15644": 162,
        "15645": 184,
        "15646": 18,
        "15647": 252,
        "15648": 174,
        "15649": 179,
        "15650": 210,
        "15651": 52,
        "15652": 235,
        "15653": 111,
        "15654": 8,
        "15655": 135,
        "15656": 43,
        "15657": 107,
        "15658": 212,
        "15659": 191,
        "15660": 92,
        "15661": 196,
        "15662": 160,
        "15663": 237,
        "15664": 222,
        "15665": 157,
        "15666": 163,
        "15667": 21,
        "15668": 183,
        "15669": 114,
        "15670": 248,
        "15671": 37,
        "15672": 226,
        "15673": 53,
        "15674": 144,
        "15675": 251,
        "15676": 219,
        "15677": 20,
        "15678": 39,
        "15679": 169,
        "15680": 33,
        "15681": 95,
        "15682": 135,
        "15683": 250,
        "15684": 155,
        "15685": 90,
        "15686": 36,
        "15687": 76,
        "15688": 249,
        "15689": 162,
        "15690": 41,
        "15691": 192,
        "15692": 30,
        "15693": 15,
        "15694": 165,
        "15695": 182,
        "15696": 48,
        "15697": 148,
        "15698": 96,
        "15699": 202,
        "15700": 122,
        "15701": 79,
        "15702": 247,
        "15703": 185,
        "15704": 80,
        "15705": 1,
        "15706": 93,
        "15707": 237,
        "15708": 254,
        "15709": 252,
        "15710": 213,
        "15711": 249,
        "15712": 232,
        "15713": 47,
        "15714": 95,
        "15715": 251,
        "15716": 123,
        "15717": 199,
        "15718": 18,
        "15719": 57,
        "15720": 147,
        "15721": 5,
        "15722": 227,
        "15723": 80,
        "15724": 24,
        "15725": 187,
        "15726": 195,
        "15727": 126,
        "15728": 171,
        "15729": 169,
        "15730": 169,
        "15731": 18,
        "15732": 39,
        "15733": 159,
        "15734": 41,
        "15735": 181,
        "15736": 33,
        "15737": 157,
        "15738": 13,
        "15739": 132,
        "15740": 121,
        "15741": 141,
        "15742": 18,
        "15743": 222,
        "15744": 17,
        "15745": 90,
        "15746": 248,
        "15747": 157,
        "15748": 189,
        "15749": 98,
        "15750": 165,
        "15751": 233,
        "15752": 248,
        "15753": 225,
        "15754": 124,
        "15755": 37,
        "15756": 150,
        "15757": 212,
        "15758": 122,
        "15759": 249,
        "15760": 180,
        "15761": 143,
        "15762": 24,
        "15763": 35,
        "15764": 135,
        "15765": 195,
        "15766": 11,
        "15767": 25,
        "15768": 227,
        "15769": 255,
        "15770": 172,
        "15771": 132,
        "15772": 27,
        "15773": 34,
        "15774": 83,
        "15775": 236,
        "15776": 159,
        "15777": 65,
        "15778": 15,
        "15779": 94,
        "15780": 116,
        "15781": 162,
        "15782": 230,
        "15783": 152,
        "15784": 160,
        "15785": 188,
        "15786": 205,
        "15787": 72,
        "15788": 89,
        "15789": 30,
        "15790": 20,
        "15791": 73,
        "15792": 206,
        "15793": 134,
        "15794": 51,
        "15795": 4,
        "15796": 180,
        "15797": 161,
        "15798": 142,
        "15799": 34,
        "15800": 39,
        "15801": 104,
        "15802": 225,
        "15803": 3,
        "15804": 220,
        "15805": 14,
        "15806": 8,
        "15807": 62,
        "15808": 213,
        "15809": 77,
        "15810": 197,
        "15811": 89,
        "15812": 181,
        "15813": 119,
        "15814": 201,
        "15815": 43,
        "15816": 223,
        "15817": 8,
        "15818": 238,
        "15819": 9,
        "15820": 82,
        "15821": 126,
        "15822": 204,
        "15823": 179,
        "15824": 117,
        "15825": 172,
        "15826": 56,
        "15827": 164,
        "15828": 182,
        "15829": 144,
        "15830": 63,
        "15831": 50,
        "15832": 61,
        "15833": 126,
        "15834": 150,
        "15835": 140,
        "15836": 239,
        "15837": 110,
        "15838": 112,
        "15839": 91,
        "15840": 204,
        "15841": 106,
        "15842": 199,
        "15843": 154,
        "15844": 246,
        "15845": 3,
        "15846": 55,
        "15847": 231,
        "15848": 217,
        "15849": 209,
        "15850": 98,
        "15851": 101,
        "15852": 170,
        "15853": 59,
        "15854": 69,
        "15855": 236,
        "15856": 225,
        "15857": 240,
        "15858": 207,
        "15859": 203,
        "15860": 44,
        "15861": 89,
        "15862": 166,
        "15863": 96,
        "15864": 117,
        "15865": 206,
        "15866": 81,
        "15867": 200,
        "15868": 69,
        "15869": 159,
        "15870": 146,
        "15871": 140,
        "15872": 155,
        "15873": 66,
        "15874": 129,
        "15875": 118,
        "15876": 99,
        "15877": 125,
        "15878": 51,
        "15879": 72,
        "15880": 107,
        "15881": 220,
        "15882": 71,
        "15883": 178,
        "15884": 145,
        "15885": 2,
        "15886": 146,
        "15887": 203,
        "15888": 135,
        "15889": 84,
        "15890": 145,
        "15891": 69,
        "15892": 84,
        "15893": 21,
        "15894": 197,
        "15895": 41,
        "15896": 166,
        "15897": 186,
        "15898": 59,
        "15899": 94,
        "15900": 17,
        "15901": 117,
        "15902": 85,
        "15903": 54,
        "15904": 178,
        "15905": 155,
        "15906": 182,
        "15907": 117,
        "15908": 181,
        "15909": 206,
        "15910": 155,
        "15911": 169,
        "15912": 103,
        "15913": 135,
        "15914": 212,
        "15915": 212,
        "15916": 234,
        "15917": 245,
        "15918": 2,
        "15919": 12,
        "15920": 217,
        "15921": 175,
        "15922": 184,
        "15923": 10,
        "15924": 38,
        "15925": 70,
        "15926": 58,
        "15927": 6,
        "15928": 38,
        "15929": 239,
        "15930": 61,
        "15931": 146,
        "15932": 221,
        "15933": 117,
        "15934": 111,
        "15935": 128,
        "15936": 97,
        "15937": 223,
        "15938": 231,
        "15939": 224,
        "15940": 219,
        "15941": 22,
        "15942": 239,
        "15943": 118,
        "15944": 135,
        "15945": 139,
        "15946": 227,
        "15947": 57,
        "15948": 248,
        "15949": 245,
        "15950": 248,
        "15951": 143,
        "15952": 150,
        "15953": 125,
        "15954": 184,
        "15955": 190,
        "15956": 14,
        "15957": 152,
        "15958": 25,
        "15959": 99,
        "15960": 203,
        "15961": 42,
        "15962": 203,
        "15963": 42,
        "15964": 36,
        "15965": 106,
        "15966": 38,
        "15967": 229,
        "15968": 221,
        "15969": 245,
        "15970": 84,
        "15971": 75,
        "15972": 76,
        "15973": 46,
        "15974": 184,
        "15975": 87,
        "15976": 249,
        "15977": 210,
        "15978": 233,
        "15979": 234,
        "15980": 129,
        "15981": 159,
        "15982": 48,
        "15983": 129,
        "15984": 102,
        "15985": 125,
        "15986": 185,
        "15987": 197,
        "15988": 232,
        "15989": 169,
        "15990": 63,
        "15991": 70,
        "15992": 231,
        "15993": 152,
        "15994": 179,
        "15995": 44,
        "15996": 158,
        "15997": 119,
        "15998": 133,
        "15999": 233,
        "16000": 29,
        "16001": 123,
        "16002": 35,
        "16003": 76,
        "16004": 174,
        "16005": 130,
        "16006": 195,
        "16007": 103,
        "16008": 17,
        "16009": 133,
        "16010": 12,
        "16011": 254,
        "16012": 72,
        "16013": 185,
        "16014": 123,
        "16015": 94,
        "16016": 59,
        "16017": 156,
        "16018": 237,
        "16019": 48,
        "16020": 81,
        "16021": 191,
        "16022": 180,
        "16023": 44,
        "16024": 92,
        "16025": 185,
        "16026": 40,
        "16027": 14,
        "16028": 101,
        "16029": 139,
        "16030": 8,
        "16031": 242,
        "16032": 221,
        "16033": 235,
        "16034": 205,
        "16035": 204,
        "16036": 99,
        "16037": 230,
        "16038": 49,
        "16039": 54,
        "16040": 130,
        "16041": 124,
        "16042": 91,
        "16043": 106,
        "16044": 133,
        "16045": 12,
        "16046": 234,
        "16047": 81,
        "16048": 87,
        "16049": 20,
        "16050": 8,
        "16051": 36,
        "16052": 252,
        "16053": 7,
        "16054": 148,
        "16055": 32,
        "16056": 196,
        "16057": 6,
        "16058": 191,
        "16059": 225,
        "16060": 134,
        "16061": 228,
        "16062": 248,
        "16063": 132,
        "16064": 245,
        "16065": 55,
        "16066": 124,
        "16067": 183,
        "16068": 161,
        "16069": 9,
        "16070": 88,
        "16071": 30,
        "16072": 4,
        "16073": 118,
        "16074": 109,
        "16075": 180,
        "16076": 93,
        "16077": 196,
        "16078": 51,
        "16079": 71,
        "16080": 238,
        "16081": 223,
        "16082": 236,
        "16083": 227,
        "16084": 150,
        "16085": 43,
        "16086": 78,
        "16087": 212,
        "16088": 205,
        "16089": 128,
        "16090": 141,
        "16091": 196,
        "16092": 102,
        "16093": 92,
        "16094": 102,
        "16095": 112,
        "16096": 11,
        "16097": 8,
        "16098": 207,
        "16099": 71,
        "16100": 237,
        "16101": 116,
        "16102": 129,
        "16103": 104,
        "16104": 217,
        "16105": 193,
        "16106": 238,
        "16107": 235,
        "16108": 235,
        "16109": 153,
        "16110": 148,
        "16111": 128,
        "16112": 85,
        "16113": 38,
        "16114": 112,
        "16115": 232,
        "16116": 134,
        "16117": 122,
        "16118": 71,
        "16119": 121,
        "16120": 243,
        "16121": 70,
        "16122": 20,
        "16123": 211,
        "16124": 6,
        "16125": 119,
        "16126": 239,
        "16127": 237,
        "16128": 184,
        "16129": 75,
        "16130": 48,
        "16131": 217,
        "16132": 185,
        "16133": 222,
        "16134": 51,
        "16135": 217,
        "16136": 201,
        "16137": 61,
        "16138": 152,
        "16139": 51,
        "16140": 95,
        "16141": 5,
        "16142": 254,
        "16143": 216,
        "16144": 172,
        "16145": 122,
        "16146": 227,
        "16147": 213,
        "16148": 35,
        "16149": 207,
        "16150": 15,
        "16151": 144,
        "16152": 133,
        "16153": 58,
        "16154": 57,
        "16155": 163,
        "16156": 180,
        "16157": 247,
        "16158": 219,
        "16159": 45,
        "16160": 36,
        "16161": 236,
        "16162": 114,
        "16163": 157,
        "16164": 84,
        "16165": 207,
        "16166": 9,
        "16167": 208,
        "16168": 162,
        "16169": 52,
        "16170": 195,
        "16171": 2,
        "16172": 56,
        "16173": 36,
        "16174": 170,
        "16175": 12,
        "16176": 165,
        "16177": 29,
        "16178": 226,
        "16179": 41,
        "16180": 16,
        "16181": 119,
        "16182": 176,
        "16183": 173,
        "16184": 82,
        "16185": 204,
        "16186": 97,
        "16187": 50,
        "16188": 60,
        "16189": 203,
        "16190": 47,
        "16191": 177,
        "16192": 182,
        "16193": 96,
        "16194": 197,
        "16195": 246,
        "16196": 240,
        "16197": 59,
        "16198": 195,
        "16199": 228,
        "16200": 197,
        "16201": 44,
        "16202": 66,
        "16203": 145,
        "16204": 145,
        "16205": 143,
        "16206": 173,
        "16207": 91,
        "16208": 138,
        "16209": 112,
        "16210": 236,
        "16211": 120,
        "16212": 163,
        "16213": 113,
        "16214": 67,
        "16215": 223,
        "16216": 171,
        "16217": 70,
        "16218": 73,
        "16219": 95,
        "16220": 200,
        "16221": 201,
        "16222": 97,
        "16223": 187,
        "16224": 62,
        "16225": 236,
        "16226": 160,
        "16227": 7,
        "16228": 243,
        "16229": 131,
        "16230": 90,
        "16231": 254,
        "16232": 211,
        "16233": 114,
        "16234": 5,
        "16235": 100,
        "16236": 94,
        "16237": 45,
        "16238": 109,
        "16239": 16,
        "16240": 236,
        "16241": 53,
        "16242": 15,
        "16243": 151,
        "16244": 112,
        "16245": 63,
        "16246": 152,
        "16247": 186,
        "16248": 98,
        "16249": 235,
        "16250": 82,
        "16251": 175,
        "16252": 82,
        "16253": 184,
        "16254": 90,
        "16255": 144,
        "16256": 232,
        "16257": 16,
        "16258": 246,
        "16259": 211,
        "16260": 123,
        "16261": 191,
        "16262": 92,
        "16263": 130,
        "16264": 63,
        "16265": 48,
        "16266": 179,
        "16267": 146,
        "16268": 148,
        "16269": 124,
        "16270": 234,
        "16271": 7,
        "16272": 78,
        "16273": 164,
        "16274": 134,
        "16275": 44,
        "16276": 53,
        "16277": 38,
        "16278": 131,
        "16279": 169,
        "16280": 155,
        "16281": 138,
        "16282": 246,
        "16283": 180,
        "16284": 82,
        "16285": 90,
        "16286": 198,
        "16287": 197,
        "16288": 210,
        "16289": 19,
        "16290": 23,
        "16291": 29,
        "16292": 247,
        "16293": 201,
        "16294": 239,
        "16295": 205,
        "16296": 243,
        "16297": 6,
        "16298": 57,
        "16299": 201,
        "16300": 4,
        "16301": 77,
        "16302": 50,
        "16303": 201,
        "16304": 42,
        "16305": 133,
        "16306": 252,
        "16307": 198,
        "16308": 48,
        "16309": 132,
        "16310": 151,
        "16311": 70,
        "16312": 143,
        "16313": 126,
        "16314": 12,
        "16315": 172,
        "16316": 106,
        "16317": 103,
        "16318": 214,
        "16319": 162,
        "16320": 3,
        "16321": 59,
        "16322": 138,
        "16323": 45,
        "16324": 240,
        "16325": 95,
        "16326": 169,
        "16327": 137,
        "16328": 171,
        "16329": 193,
        "16330": 224,
        "16331": 117,
        "16332": 12,
        "16333": 51,
        "16334": 78,
        "16335": 167,
        "16336": 38,
        "16337": 126,
        "16338": 229,
        "16339": 3,
        "16340": 68,
        "16341": 37,
        "16342": 32,
        "16343": 155,
        "16344": 216,
        "16345": 249,
        "16346": 117,
        "16347": 181,
        "16348": 94,
        "16349": 64,
        "16350": 114,
        "16351": 103,
        "16352": 53,
        "16353": 122,
        "16354": 196,
        "16355": 59,
        "16356": 202,
        "16357": 236,
        "16358": 94,
        "16359": 176,
        "16360": 29,
        "16361": 187,
        "16362": 215,
        "16363": 36,
        "16364": 128,
        "16365": 249,
        "16366": 177,
        "16367": 2,
        "16368": 208,
        "16369": 21,
        "16370": 123,
        "16371": 162,
        "16372": 241,
        "16373": 100,
        "16374": 79,
        "16375": 113,
        "16376": 154,
        "16377": 135,
        "16378": 82,
        "16379": 85,
        "16380": 248,
        "16381": 71,
        "16382": 43,
        "16383": 215,
        "16384": 239,
        "16385": 222,
        "16386": 40,
        "16387": 185,
        "16388": 178,
        "16389": 114,
        "16390": 43,
        "16391": 236,
        "16392": 15,
        "16393": 234,
        "16394": 96,
        "16395": 72,
        "16396": 239,
        "16397": 228,
        "16398": 176,
        "16399": 242,
        "16400": 38,
        "16401": 61,
        "16402": 249,
        "16403": 68,
        "16404": 255,
        "16405": 142,
        "16406": 67,
        "16407": 187,
        "16408": 37,
        "16409": 165,
        "16410": 75,
        "16411": 138,
        "16412": 141,
        "16413": 137,
        "16414": 194,
        "16415": 243,
        "16416": 207,
        "16417": 175,
        "16418": 117,
        "16419": 239,
        "16420": 91,
        "16421": 58,
        "16422": 1,
        "16423": 223,
        "16424": 161,
        "16425": 42,
        "16426": 198,
        "16427": 122,
        "16428": 152,
        "16429": 36,
        "16430": 23,
        "16431": 76,
        "16432": 80,
        "16433": 188,
        "16434": 27,
        "16435": 68,
        "16436": 140,
        "16437": 106,
        "16438": 169,
        "16439": 222,
        "16440": 20,
        "16441": 53,
        "16442": 33,
        "16443": 74,
        "16444": 100,
        "16445": 53,
        "16446": 81,
        "16447": 111,
        "16448": 128,
        "16449": 30,
        "16450": 52,
        "16451": 129,
        "16452": 143,
        "16453": 53,
        "16454": 248,
        "16455": 209,
        "16456": 138,
        "16457": 82,
        "16458": 125,
        "16459": 158,
        "16460": 136,
        "16461": 162,
        "16462": 199,
        "16463": 67,
        "16464": 255,
        "16465": 168,
        "16466": 167,
        "16467": 96,
        "16468": 30,
        "16469": 6,
        "16470": 254,
        "16471": 121,
        "16472": 252,
        "16473": 247,
        "16474": 173,
        "16475": 206,
        "16476": 234,
        "16477": 4,
        "16478": 232,
        "16479": 173,
        "16480": 61,
        "16481": 165,
        "16482": 93,
        "16483": 70,
        "16484": 136,
        "16485": 197,
        "16486": 234,
        "16487": 10,
        "16488": 120,
        "16489": 224,
        "16490": 30,
        "16491": 209,
        "16492": 103,
        "16493": 253,
        "16494": 170,
        "16495": 187,
        "16496": 249,
        "16497": 235,
        "16498": 242,
        "16499": 50,
        "16500": 242,
        "16501": 185,
        "16502": 9,
        "16503": 154,
        "16504": 187,
        "16505": 58,
        "16506": 213,
        "16507": 144,
        "16508": 70,
        "16509": 18,
        "16510": 115,
        "16511": 30,
        "16512": 205,
        "16513": 79,
        "16514": 189,
        "16515": 146,
        "16516": 135,
        "16517": 223,
        "16518": 160,
        "16519": 119,
        "16520": 1,
        "16521": 8,
        "16522": 0,
        "16523": 0,
        "16524": 0,
        "16525": 0,
        "16526": 0,
        "16527": 0,
        "16528": 16,
        "16529": 0,
        "16530": 0,
        "16531": 0,
        "16532": 0,
        "16533": 0,
        "16534": 0,
        "16535": 0,
        "16536": 0,
        "16537": 0,
        "16538": 0,
        "16539": 0,
        "16540": 0,
        "16541": 0,
        "16542": 0,
        "16543": 0,
        "16544": 0,
        "16545": 0,
        "16546": 0,
        "16547": 0,
        "16548": 0,
        "16549": 0,
        "16550": 0,
        "16551": 0,
        "16552": 64,
        "16553": 0,
        "16554": 0,
        "16555": 0,
        "16556": 0,
        "16557": 0,
        "16558": 0,
        "16559": 0,
        "16560": 3,
        "16561": 0,
        "16562": 0,
        "16563": 0,
        "16564": 0,
        "16565": 0,
        "16566": 0,
        "16567": 0,
        "16568": 4,
        "16569": 0,
        "16570": 0,
        "16571": 0,
        "16572": 0,
        "16573": 0,
        "16574": 0,
        "16575": 0,
        "16576": 4,
        "16577": 0,
        "16578": 0,
        "16579": 0,
        "16580": 0,
        "16581": 0,
        "16582": 0,
        "16583": 0,
        "16584": 0,
        "16585": 0,
        "16586": 0,
        "16587": 0,
        "16588": 1,
        "16589": 0,
        "16590": 0,
        "16591": 0,
        "16592": 0,
        "16593": 0,
        "16594": 0,
        "16595": 0,
        "16596": 16,
        "16597": 0,
        "16598": 0,
        "16599": 0,
        "16600": 0,
        "16601": 0,
        "16602": 0,
        "16603": 0
      }
    }
  ],
  "numDeployments": 2,
  "solcInputHash": "c0e889dcb69b76266f445d0fe3402b92",
  "bytecode": "0x6101606040526200001760006200026660201b60201c565b6002553480156200002757600080fd5b50604051620046173803806200461783398181016040528101906200004d919062000b83565b6040518060400160405280600881526020017f46616b65205553440000000000000000000000000000000000000000000000008152506040518060400160405280600481526020017f6655534400000000000000000000000000000000000000000000000000000000815250338383836040518060400160405280601181526020017f4668656e6978205065726d697373696f6e0000000000000000000000000000008152506040518060400160405280600381526020017f312e3000000000000000000000000000000000000000000000000000000000008152506200013f6000836200028260201b90919060201c565b61012081815250506200015d6001826200028260201b90919060201c565b6101408181525050818051906020012060e08181525050808051906020012061010081815250504660a081815250506200019c620002da60201b60201c565b608081815250503073ffffffffffffffffffffffffffffffffffffffff1660c08173ffffffffffffffffffffffffffffffffffffffff168152505050508160059081620001ea919062000e1f565b508060069081620001fc919062000e1f565b505050600062000212826200033760201b60201c565b9050620002486200023c8262000230617fff6200026660201b60201c565b6200035560201b60201c565b620003f860201b60201c565b6200025a8382620004cb60201b60201c565b50505050505062001260565b60006200027b8260026200057160201b60201c565b9050919050565b6000602083511015620002a857620002a0836200062860201b60201c565b9050620002d4565b82620002ba836200069560201b60201c565b6000019081620002cb919062000e1f565b5060ff60001b90505b92915050565b60007f8b73c3c69bb8fe3d512ecc4cf759cc79239f7b179b0ffacaa9a75d522b39400f60e0516101005146306040516020016200031c95949392919062000f77565b60405160208183030381529060405280519060200120905090565b60006200034e82600001516200069f60201b60201c565b9050919050565b60006200036883620006bb60201b60201c565b62000382576200037f60006200026660201b60201c565b92505b6200039382620006bb60201b60201c565b620003ad57620003aa60006200026660201b60201c565b91505b600083905060008390506000620003ea60028484608073ffffffffffffffffffffffffffffffffffffffff1663eb274b77620006c860201b60201c565b905080935050505092915050565b62000409816200077960201b60201c565b62000423576200042060006200078660201b60201c565b90505b600081905060006200043b82620007a260201b60201c565b9050608073ffffffffffffffffffffffffffffffffffffffff16637d23f1db600d836040518363ffffffff1660e01b81526004016200047c9291906200104f565b600060405180830381865afa1580156200049a573d6000803e3d6000fd5b505050506040513d6000823e3d601f19601f82011682018060405250810190620004c5919062001083565b50505050565b62000516600360008473ffffffffffffffffffffffffffffffffffffffff1673ffffffffffffffffffffffffffffffffffffffff168152602001908152602001600020548262000803565b600360008473ffffffffffffffffffffffffffffffffffffffff1673ffffffffffffffffffffffffffffffffffffffff16815260200190815260200160002081905550620005676002548262000803565b6002819055505050565b60006060608073ffffffffffffffffffffffffffffffffffffffff166319e1c5c4620005a386620007a260201b60201c565b856040518363ffffffff1660e01b8152600401620005c3929190620010d4565b600060405180830381865afa158015620005e1573d6000803e3d6000fd5b505050506040513d6000823e3d601f19601f820116820180604052508101906200060c919062001083565b90506200061f816200081f60201b60201c565b91505092915050565b600080829050601f815111156200067857826040517f305a27a90000000000000000000000000000000000000000000000000000000081526004016200066f91906200115a565b60405180910390fd5b8051816200068690620011a5565b60001c1760001b915050919050565b6000819050919050565b6000620006b48260026200082d60201b60201c565b9050919050565b6000808214159050919050565b60006060838388620006e089620007a260201b60201c565b620006f189620007a260201b60201c565b6040518463ffffffff1660e01b8152600401620007119392919062001215565b600060405180830381865afa1580156200072f573d6000803e3d6000fd5b505050506040513d6000823e3d601f19601f820116820180604052508101906200075a919062001083565b90506200076d81620008d460201b60201c565b91505095945050505050565b6000808214159050919050565b60006200079b82600d6200057160201b60201c565b9050919050565b6060602067ffffffffffffffff811115620007c257620007c1620009ae565b5b6040519080825280601f01601f191660200182016040528015620007f55781602001600182028036833780820191505090505b509050816020820152919050565b6000620008178383620008e260201b60201c565b905092915050565b600060208201519050919050565b60006060608073ffffffffffffffffffffffffffffffffffffffff16635fa55ca784866040518363ffffffff1660e01b81526004016200086f9291906200104f565b600060405180830381865afa1580156200088d573d6000803e3d6000fd5b505050506040513d6000823e3d601f19601f82011682018060405250810190620008b8919062001083565b9050620008cb816200081f60201b60201c565b91505092915050565b600060208201519050919050565b6000620008f583620006bb60201b60201c565b6200090f576200090c60006200026660201b60201c565b92505b6200092082620006bb60201b60201c565b6200093a576200093760006200026660201b60201c565b91505b6000839050600083905060006200097660028484608073ffffffffffffffffffffffffffffffffffffffff16622df619620006c860201b60201c565b905080935050505092915050565b6000604051905090565b600080fd5b600080fd5b600080fd5b6000601f19601f8301169050919050565b7f4e487b7100000000000000000000000000000000000000000000000000000000600052604160045260246000fd5b620009e8826200099d565b810181811067ffffffffffffffff8211171562000a0a5762000a09620009ae565b5b80604052505050565b600062000a1f62000984565b905062000a2d8282620009dd565b919050565b600080fd5b600080fd5b600080fd5b600067ffffffffffffffff82111562000a5f5762000a5e620009ae565b5b62000a6a826200099d565b9050602081019050919050565b60005b8381101562000a9757808201518184015260208101905062000a7a565b60008484015250505050565b600062000aba62000ab48462000a41565b62000a13565b90508281526020810184848401111562000ad95762000ad862000a3c565b5b62000ae684828562000a77565b509392505050565b600082601f83011262000b065762000b0562000a37565b5b815162000b1884826020860162000aa3565b91505092915050565b60006020828403121562000b3a5762000b3962000998565b5b62000b46602062000a13565b9050600082015167ffffffffffffffff81111562000b695762000b6862000a32565b5b62000b778482850162000aee565b60008301525092915050565b60006020828403121562000b9c5762000b9b6200098e565b5b600082015167ffffffffffffffff81111562000bbd5762000bbc62000993565b5b62000bcb8482850162000b21565b91505092915050565b600081519050919050565b7f4e487b7100000000000000000000000000000000000000000000000000000000600052602260045260246000fd5b6000600282049050600182168062000c2757607f821691505b60208210810362000c3d5762000c3c62000bdf565b5b50919050565b60008190508160005260206000209050919050565b60006020601f8301049050919050565b600082821b905092915050565b60006008830262000ca77fffffffffffffffffffffffffffffffffffffffffffffffffffffffffffffffff8262000c68565b62000cb3868362000c68565b95508019841693508086168417925050509392505050565b6000819050919050565b6000819050919050565b600062000d0062000cfa62000cf48462000ccb565b62000cd5565b62000ccb565b9050919050565b6000819050919050565b62000d1c8362000cdf565b62000d3462000d2b8262000d07565b84845462000c75565b825550505050565b600090565b62000d4b62000d3c565b62000d5881848462000d11565b505050565b5b8181101562000d805762000d7460008262000d41565b60018101905062000d5e565b5050565b601f82111562000dcf5762000d998162000c43565b62000da48462000c58565b8101602085101562000db4578190505b62000dcc62000dc38562000c58565b83018262000d5d565b50505b505050565b600082821c905092915050565b600062000df46000198460080262000dd4565b1980831691505092915050565b600062000e0f838362000de1565b9150826002028217905092915050565b62000e2a8262000bd4565b67ffffffffffffffff81111562000e465762000e45620009ae565b5b62000e52825462000c0e565b62000e5f82828562000d84565b600060209050601f83116001811462000e97576000841562000e82578287015190505b62000e8e858262000e01565b86555062000efe565b601f19841662000ea78662000c43565b60005b8281101562000ed15784890151825560018201915060208501945060208101905062000eaa565b8683101562000ef1578489015162000eed601f89168262000de1565b8355505b6001600288020188555050505b505050505050565b6000819050919050565b62000f1b8162000f06565b82525050565b62000f2c8162000ccb565b82525050565b600073ffffffffffffffffffffffffffffffffffffffff82169050919050565b600062000f5f8262000f32565b9050919050565b62000f718162000f52565b82525050565b600060a08201905062000f8e600083018862000f10565b62000f9d602083018762000f10565b62000fac604083018662000f10565b62000fbb606083018562000f21565b62000fca608083018462000f66565b9695505050505050565b600060ff82169050919050565b62000fec8162000fd4565b82525050565b600081519050919050565b600082825260208201905092915050565b60006200101b8262000ff2565b62001027818562000ffd565b93506200103981856020860162000a77565b62001044816200099d565b840191505092915050565b600060408201905062001066600083018562000fe1565b81810360208301526200107a81846200100e565b90509392505050565b6000602082840312156200109c576200109b6200098e565b5b600082015167ffffffffffffffff811115620010bd57620010bc62000993565b5b620010cb8482850162000aee565b91505092915050565b60006040820190508181036000830152620010f081856200100e565b905062001101602083018462000fe1565b9392505050565b600082825260208201905092915050565b6000620011268262000bd4565b62001132818562001108565b93506200114481856020860162000a77565b6200114f816200099d565b840191505092915050565b6000602082019050818103600083015262001176818462001119565b905092915050565b6000819050602082019050919050565b60006200119c825162000f06565b80915050919050565b6000620011b28262000ff2565b82620011be846200117e565b9050620011cb816200118e565b925060208210156200120e57620012097fffffffffffffffffffffffffffffffffffffffffffffffffffffffffffffffff8360200360080262000c68565b831692505b5050919050565b60006060820190506200122c600083018662000fe1565b81810360208301526200124081856200100e565b905081810360408301526200125681846200100e565b9050949350505050565b60805160a05160c05160e05161010051610120516101405161335c620012bb60003960006118f5015260006118ba0152600061217f0152600061215e015260006119ea01526000611a4001526000611a69015261335c6000f3fe608060405234801561001057600080fd5b50600436106101425760003560e01c80637ecebe00116100b8578063a9059cbb1161007c578063a9059cbb146103b9578063af575a00146103e9578063c4224c1914610419578063d505accf14610449578063d918156e14610465578063dd62ed3e1461049557610142565b80637ecebe00146102fb57806384b0196e1461032b5780638624a3491461034f57806395d89b411461037f5780639f284be71461039d57610142565b80633644e5151161010a5780633644e5151461020157806339c217f71461021f5780635356c4291461024f578063602772041461027f5780636e0505e1146102af57806370a08231146102cb57610142565b806306fdde0314610147578063095ea7b31461016557806318160ddd1461019557806323b872dd146101b3578063313ce567146101e3575b600080fd5b61014f6104c5565b60405161015c9190612433565b60405180910390f35b61017f600480360381019061017a91906124fd565b610557565b60405161018c9190612558565b60405180910390f35b61019d6105ab565b6040516101aa9190612582565b60405180910390f35b6101cd60048036038101906101c8919061259d565b6105bd565b6040516101da9190612558565b60405180910390f35b6101eb610692565b6040516101f8919061260c565b60405180910390f35b610209610697565b6040516102169190612640565b60405180910390f35b6102396004803603810190610234919061267f565b610729565b6040516102469190612716565b60405180910390f35b61026960048036038101906102649190612750565b61074e565b6040516102769190612433565b60405180910390f35b61029960048036038101906102949190612983565b6108bf565b6040516102a69190612433565b60405180910390f35b6102c960048036038101906102c49190612a1b565b6109ec565b005b6102e560048036038101906102e09190612a48565b610b01565b6040516102f29190612582565b60405180910390f35b61031560048036038101906103109190612a48565b610b1c565b6040516103229190612582565b60405180910390f35b610333610b37565b6040516103469796959493929190612b7d565b60405180910390f35b61036960048036038101906103649190612c01565b610be1565b6040516103769190612716565b60405180910390f35b610387610c08565b6040516103949190612433565b60405180910390f35b6103b760048036038101906103b29190612a1b565b610c9a565b005b6103d360048036038101906103ce91906124fd565b610da7565b6040516103e09190612558565b60405180910390f35b61040360048036038101906103fe9190612c9c565b610e39565b6040516104109190612716565b60405180910390f35b610433600480360381019061042e9190612cef565b61118f565b6040516104409190612716565b60405180910390f35b610463600480360381019061045e9190612d5b565b611359565b005b61047f600480360381019061047a919061267f565b6114fd565b60405161048c9190612558565b60405180910390f35b6104af60048036038101906104aa9190612dfd565b6115f5565b6040516104bc9190612582565b60405180910390f35b6060600580546104d490612e6c565b80601f016020809104026020016040519081016040528092919081815260200182805461050090612e6c565b801561054d5780601f106105225761010080835404028352916020019161054d565b820191906000526020600020905b81548152906001019060200180831161053057829003601f168201915b5050505050905090565b600082602052637f5e9f20600c5233600052816034600c205581600052602c5160601c337f8c5be1e5ebec7d5bd14f71427d1e84f3dd0314c0f7b2291e5b200ac8c7c3b92560206000a36001905092915050565b60006805345cdf77eb68f44c54905090565b60006105ca848484611615565b8360601b33602052637f5e9f208117600c526034600c20805460018101156106085780851115610602576313be252b6000526004601cfd5b84810382555b6387a211a28317600c526020600c2080548087111561062f5763f4d678b86000526004601cfd5b8681038255876000526020600c2087815401815587602052600c5160601c8660601c7fddf252ad1be2c89b69c2b068fc378daa952ba7f163c4a11628f55a4df523b3ef602080a350505050505061068784848461161a565b600190509392505050565b600090565b6000806106a261161f565b90506000801b81036106c0576106b66104c5565b8051906020012090505b6040517f8b73c3c69bb8fe3d512ecc4cf759cc79239f7b179b0ffacaa9a75d522b39400f81528160208201527fc89efdaa54c0f20c7adf612882df0950f5a951637e0307cdcb4c672f298b8bc6604082015246606082015230608082015260a081209250505090565b6000610746836107418461073c90612ef5565b611624565b61118f565b905092915050565b60608161075a90612f08565b60006107b17f6bdaeb2d29561f159c7ef98b16b27015fb2aeb87209c7ee656226d912f59927d8360000151604051602001610796929190612f1b565b6040516020818303038152906040528051906020012061163a565b905060006107c3828460200151611654565b90503373ffffffffffffffffffffffffffffffffffffffff168173ffffffffffffffffffffffffffffffffffffffff161461082a576040517f3093a27700000000000000000000000000000000000000000000000000000000815260040160405180910390fd5b6108b4600460003373ffffffffffffffffffffffffffffffffffffffff1673ffffffffffffffffffffffffffffffffffffffff16815260200190815260200160002060008873ffffffffffffffffffffffffffffffffffffffff1673ffffffffffffffffffffffffffffffffffffffff168152602001908152602001600020548660000135611680565b935050505092915050565b60608183600061091a7f6bdaeb2d29561f159c7ef98b16b27015fb2aeb87209c7ee656226d912f59927d84600001516040516020016108ff929190612f1b565b6040516020818303038152906040528051906020012061163a565b9050600061092c828560200151611654565b90508273ffffffffffffffffffffffffffffffffffffffff168173ffffffffffffffffffffffffffffffffffffffff1614610993576040517f51c65eae00000000000000000000000000000000000000000000000000000000815260040160405180910390fd5b6109e0600360008973ffffffffffffffffffffffffffffffffffffffff1673ffffffffffffffffffffffffffffffffffffffff168152602001908152602001600020548760000151611680565b94505050505092915050565b6000610a45610a008363ffffffff166116b6565b600360003373ffffffffffffffffffffffffffffffffffffffff1673ffffffffffffffffffffffffffffffffffffffff168152602001908152602001600020546116ca565b9050610a90600360003373ffffffffffffffffffffffffffffffffffffffff1673ffffffffffffffffffffffffffffffffffffffff1681526020019081526020016000205482611743565b600360003373ffffffffffffffffffffffffffffffffffffffff1673ffffffffffffffffffffffffffffffffffffffff16815260200190815260200160002081905550610adf60025482611743565b600281905550610afd33610af283611757565b63ffffffff1661181a565b5050565b60006387a211a2600c52816000526020600c20549050919050565b60006338377508600c52816000526020600c20549050919050565b600060608060008060006060610b4b6118b1565b610b536118ec565b46306000801b600067ffffffffffffffff811115610b7457610b736127b1565b5b604051908082528060200260200182016040528015610ba25781602001602082028036833780820191505090505b507f0f00000000000000000000000000000000000000000000000000000000000000959493929190965096509650965096509650965090919293949596565b6000610bff8484610bfa85610bf590612ef5565b611624565b610e39565b90509392505050565b606060068054610c1790612e6c565b80601f0160208091040260200160405190810160405280929190818152602001828054610c4390612e6c565b8015610c905780601f10610c6557610100808354040283529160200191610c90565b820191906000526020600020905b815481529060010190602001808311610c7357829003601f168201915b5050505050905090565b8063ffffffff16610caa33610b01565b1015610ce2576040517ffda7bbda00000000000000000000000000000000000000000000000000000000815260040160405180910390fd5b610cf2338263ffffffff16611927565b6000610d038263ffffffff166116b6565b9050610d4e600360003373ffffffffffffffffffffffffffffffffffffffff1673ffffffffffffffffffffffffffffffffffffffff16815260200190815260200160002054826119be565b600360003373ffffffffffffffffffffffffffffffffffffffff1673ffffffffffffffffffffffffffffffffffffffff16815260200190815260200160002081905550610d9d600254826119be565b6002819055505050565b6000610db4338484611615565b6387a211a2600c52336000526020600c20805480841115610ddd5763f4d678b86000526004601cfd5b8381038255846000526020600c2084815401815584602052600c5160601c337fddf252ad1be2c89b69c2b068fc378daa952ba7f163c4a11628f55a4df523b3ef602080a3505050610e2f33848461161a565b6001905092915050565b600080610f0a83610f05600360008973ffffffffffffffffffffffffffffffffffffffff1673ffffffffffffffffffffffffffffffffffffffff16815260200190815260200160002054600460008a73ffffffffffffffffffffffffffffffffffffffff1673ffffffffffffffffffffffffffffffffffffffff16815260200190815260200160002060003373ffffffffffffffffffffffffffffffffffffffff1673ffffffffffffffffffffffffffffffffffffffff168152602001908152602001600020546116ca565b6116ca565b9050610f92600460008773ffffffffffffffffffffffffffffffffffffffff1673ffffffffffffffffffffffffffffffffffffffff16815260200190815260200160002060003373ffffffffffffffffffffffffffffffffffffffff1673ffffffffffffffffffffffffffffffffffffffff1681526020019081526020016000205482611743565b600460008773ffffffffffffffffffffffffffffffffffffffff1673ffffffffffffffffffffffffffffffffffffffff16815260200190815260200160002060003373ffffffffffffffffffffffffffffffffffffffff1673ffffffffffffffffffffffffffffffffffffffff1681526020019081526020016000208190555061105b600360008773ffffffffffffffffffffffffffffffffffffffff1673ffffffffffffffffffffffffffffffffffffffff1681526020019081526020016000205482611743565b600360008773ffffffffffffffffffffffffffffffffffffffff1673ffffffffffffffffffffffffffffffffffffffff168152602001908152602001600020819055506110e7600360008673ffffffffffffffffffffffffffffffffffffffff1673ffffffffffffffffffffffffffffffffffffffff16815260200190815260200160002054826119be565b600360008673ffffffffffffffffffffffffffffffffffffffff1673ffffffffffffffffffffffffffffffffffffffff168152602001908152602001600020819055508373ffffffffffffffffffffffffffffffffffffffff168573ffffffffffffffffffffffffffffffffffffffff167f7612539b010127d1a2f810eeff1131de23a28ecfa8228f92a9606a879300fbb560405160405180910390a3809150509392505050565b6000806111db83600360003373ffffffffffffffffffffffffffffffffffffffff1673ffffffffffffffffffffffffffffffffffffffff168152602001908152602001600020546116ca565b9050611226600360003373ffffffffffffffffffffffffffffffffffffffff1673ffffffffffffffffffffffffffffffffffffffff1681526020019081526020016000205482611743565b600360003373ffffffffffffffffffffffffffffffffffffffff1673ffffffffffffffffffffffffffffffffffffffff168152602001908152602001600020819055506112b2600360008673ffffffffffffffffffffffffffffffffffffffff1673ffffffffffffffffffffffffffffffffffffffff16815260200190815260200160002054826119be565b600360008673ffffffffffffffffffffffffffffffffffffffff1673ffffffffffffffffffffffffffffffffffffffff168152602001908152602001600020819055508373ffffffffffffffffffffffffffffffffffffffff163373ffffffffffffffffffffffffffffffffffffffff167f7612539b010127d1a2f810eeff1131de23a28ecfa8228f92a9606a879300fbb560405160405180910390a38091505092915050565b600061136361161f565b90506000801b8103611381576113776104c5565b8051906020012090505b8442111561139757631a15a3cc6000526004601cfd5b6040518860601b60601c98508760601b60601c975065383775081901600e52886000526020600c2080547f8b73c3c69bb8fe3d512ecc4cf759cc79239f7b179b0ffacaa9a75d522b39400f83528360208401527fc89efdaa54c0f20c7adf612882df0950f5a951637e0307cdcb4c672f298b8bc6604084015246606084015230608084015260a08320602e527f6e71edae12b1b97f4d1f60370fef10105fa2faae0126114a169c64845d6126c983528a60208401528960408401528860608401528060808401528760a084015260c08320604e526042602c206000528660ff1660205285604052846060526020806080600060015afa8b3d51146114a35763ddafbaef6000526004601cfd5b80820183558a637f5e9f2060a01b17604052896034602c20558a8c7f8c5be1e5ebec7d5bd14f71427d1e84f3dd0314c0f7b2291e5b200ac8c7c3b925602060608801a3836040526000606052505050505050505050505050565b60006115118261150c90612ef5565b611624565b600460003373ffffffffffffffffffffffffffffffffffffffff1673ffffffffffffffffffffffffffffffffffffffff16815260200190815260200160002060008573ffffffffffffffffffffffffffffffffffffffff1673ffffffffffffffffffffffffffffffffffffffff168152602001908152602001600020819055508273ffffffffffffffffffffffffffffffffffffffff163373ffffffffffffffffffffffffffffffffffffffff167f46f92913a39019d68e630493d23e0cf39761bf253f7b3f8eae384b33e393ed4e60405160405180910390a36001905092915050565b600081602052637f5e9f20600c52826000526034600c2054905092915050565b505050565b505050565b600090565b600061163382600001516119d2565b9050919050565b600061164d6116476119e6565b83611a9d565b9050919050565b6000806000806116648686611ade565b9250925092506116748282611b3a565b82935050505092915050565b606061168b83611c9e565b61169c5761169960006116b6565b92505b60008390506116ad60028285611cab565b91505092915050565b60006116c3826002611d61565b9050919050565b60006116d583611c9e565b6116e6576116e360006116b6565b92505b6116ef82611c9e565b611700576116fd60006116b6565b91505b60008390506000839050600061173560028484608073ffffffffffffffffffffffffffffffffffffffff16635211c679611e03565b905080935050505092915050565b600061174f8383611e97565b905092915050565b600061176282611c9e565b6117735761177060006116b6565b91505b6000829050600061178382611f10565b90506000608073ffffffffffffffffffffffffffffffffffffffff166373cc01546002846040518363ffffffff1660e01b81526004016117c4929190612f99565b602060405180830381865afa1580156117e1573d6000803e3d6000fd5b505050506040513d601f19601f820116820180604052508101906118059190612fde565b905061181081611f6d565b9350505050919050565b61182660008383611615565b6805345cdf77eb68f44c548181018181101561184a5763e5cfe9576000526004601cfd5b806805345cdf77eb68f44c556387a211a2600c52836000526020600c2083815401815583602052600c5160601c60007fddf252ad1be2c89b69c2b068fc378daa952ba7f163c4a11628f55a4df523b3ef602080a35050506118ad6000838361161a565b5050565b60606118e760007f0000000000000000000000000000000000000000000000000000000000000000611f7790919063ffffffff16565b905090565b606061192260017f0000000000000000000000000000000000000000000000000000000000000000611f7790919063ffffffff16565b905090565b61193382600083611615565b6387a211a2600c52816000526020600c2080548083111561195c5763f4d678b86000526004601cfd5b8281038255826805345cdf77eb68f44c54036805345cdf77eb68f44c558260005260008460601b60601c7fddf252ad1be2c89b69c2b068fc378daa952ba7f163c4a11628f55a4df523b3ef60206000a350506119ba8260008361161a565b5050565b60006119ca8383612027565b905092915050565b60006119df82600261209f565b9050919050565b60007f000000000000000000000000000000000000000000000000000000000000000073ffffffffffffffffffffffffffffffffffffffff163073ffffffffffffffffffffffffffffffffffffffff16148015611a6257507f000000000000000000000000000000000000000000000000000000000000000046145b15611a8f577f00000000000000000000000000000000000000000000000000000000000000009050611a9a565b611a97612139565b90505b90565b60006040517f190100000000000000000000000000000000000000000000000000000000000081528360028201528260228201526042812091505092915050565b60008060006041845103611b235760008060006020870151925060408701519150606087015160001a9050611b15888285856121cf565b955095509550505050611b33565b60006002855160001b9250925092505b9250925092565b60006003811115611b4e57611b4d61300b565b5b826003811115611b6157611b6061300b565b5b0315611c9a5760016003811115611b7b57611b7a61300b565b5b826003811115611b8e57611b8d61300b565b5b03611bc5576040517ff645eedf00000000000000000000000000000000000000000000000000000000815260040160405180910390fd5b60026003811115611bd957611bd861300b565b5b826003811115611bec57611beb61300b565b5b03611c31578060001c6040517ffce698f7000000000000000000000000000000000000000000000000000000008152600401611c289190612582565b60405180910390fd5b600380811115611c4457611c4361300b565b5b826003811115611c5757611c5661300b565b5b03611c9957806040517fd78bce0c000000000000000000000000000000000000000000000000000000008152600401611c909190612640565b60405180910390fd5b5b5050565b6000808214159050919050565b6060608073ffffffffffffffffffffffffffffffffffffffff1663a1848ff385611cd486611f10565b85604051602001611ce5919061305b565b6040516020818303038152906040526040518463ffffffff1660e01b8152600401611d1293929190613076565b600060405180830381865afa158015611d2f573d6000803e3d6000fd5b505050506040513d6000823e3d601f19601f82011682018060405250810190611d58919061315c565b90509392505050565b60006060608073ffffffffffffffffffffffffffffffffffffffff166319e1c5c4611d8b86611f10565b856040518363ffffffff1660e01b8152600401611da99291906131a5565b600060405180830381865afa158015611dc6573d6000803e3d6000fd5b505050506040513d6000823e3d601f19601f82011682018060405250810190611def9190613245565b9050611dfa816122c3565b91505092915050565b60006060838388611e1389611f10565b611e1c89611f10565b6040518463ffffffff1660e01b8152600401611e3a93929190613076565b600060405180830381865afa158015611e57573d6000803e3d6000fd5b505050506040513d6000823e3d601f19601f82011682018060405250810190611e809190613245565b9050611e8b816122d1565b91505095945050505050565b6000611ea283611c9e565b611eb357611eb060006116b6565b92505b611ebc82611c9e565b611ecd57611eca60006116b6565b91505b600083905060008390506000611f0260028484608073ffffffffffffffffffffffffffffffffffffffff1663cc2cbeff611e03565b905080935050505092915050565b6060602067ffffffffffffffff811115611f2d57611f2c6127b1565b5b6040519080825280601f01601f191660200182016040528015611f5f5781602001600182028036833780820191505090505b509050816020820152919050565b6000819050919050565b606060ff60001b8314611f9457611f8d836122df565b9050612021565b818054611fa090612e6c565b80601f0160208091040260200160405190810160405280929190818152602001828054611fcc90612e6c565b80156120195780601f10611fee57610100808354040283529160200191612019565b820191906000526020600020905b815481529060010190602001808311611ffc57829003601f168201915b505050505090505b92915050565b600061203283611c9e565b6120435761204060006116b6565b92505b61204c82611c9e565b61205d5761205a60006116b6565b91505b60008390506000839050600061209160028484608073ffffffffffffffffffffffffffffffffffffffff16622df619611e03565b905080935050505092915050565b60006060608073ffffffffffffffffffffffffffffffffffffffff16635fa55ca784866040518363ffffffff1660e01b81526004016120df929190612f99565b600060405180830381865afa1580156120fc573d6000803e3d6000fd5b505050506040513d6000823e3d601f19601f820116820180604052508101906121259190613245565b9050612130816122c3565b91505092915050565b60007f8b73c3c69bb8fe3d512ecc4cf759cc79239f7b179b0ffacaa9a75d522b39400f7f00000000000000000000000000000000000000000000000000000000000000007f000000000000000000000000000000000000000000000000000000000000000046306040516020016121b495949392919061328e565b60405160208183030381529060405280519060200120905090565b60008060007f7fffffffffffffffffffffffffffffff5d576e7357a4501ddfe92f46681b20a08460001c111561220f5760006003859250925092506122b9565b60006001888888886040516000815260200160405260405161223494939291906132e1565b6020604051602081039080840390855afa158015612256573d6000803e3d6000fd5b505050602060405103519050600073ffffffffffffffffffffffffffffffffffffffff168173ffffffffffffffffffffffffffffffffffffffff16036122aa57600060016000801b935093509350506122b9565b8060008060001b935093509350505b9450945094915050565b600060208201519050919050565b600060208201519050919050565b606060006122ec83612353565b90506000602067ffffffffffffffff81111561230b5761230a6127b1565b5b6040519080825280601f01601f19166020018201604052801561233d5781602001600182028036833780820191505090505b5090508181528360208201528092505050919050565b60008060ff8360001c169050601f81111561239a576040517fb3512b0c00000000000000000000000000000000000000000000000000000000815260040160405180910390fd5b80915050919050565b600081519050919050565b600082825260208201905092915050565b60005b838110156123dd5780820151818401526020810190506123c2565b60008484015250505050565b6000601f19601f8301169050919050565b6000612405826123a3565b61240f81856123ae565b935061241f8185602086016123bf565b612428816123e9565b840191505092915050565b6000602082019050818103600083015261244d81846123fa565b905092915050565b6000604051905090565b600080fd5b600080fd5b600073ffffffffffffffffffffffffffffffffffffffff82169050919050565b600061249482612469565b9050919050565b6124a481612489565b81146124af57600080fd5b50565b6000813590506124c18161249b565b92915050565b6000819050919050565b6124da816124c7565b81146124e557600080fd5b50565b6000813590506124f7816124d1565b92915050565b600080604083850312156125145761251361245f565b5b6000612522858286016124b2565b9250506020612533858286016124e8565b9150509250929050565b60008115159050919050565b6125528161253d565b82525050565b600060208201905061256d6000830184612549565b92915050565b61257c816124c7565b82525050565b60006020820190506125976000830184612573565b92915050565b6000806000606084860312156125b6576125b561245f565b5b60006125c4868287016124b2565b93505060206125d5868287016124b2565b92505060406125e6868287016124e8565b9150509250925092565b600060ff82169050919050565b612606816125f0565b82525050565b600060208201905061262160008301846125fd565b92915050565b6000819050919050565b61263a81612627565b82525050565b60006020820190506126556000830184612631565b92915050565b600080fd5b6000602082840312156126765761267561265b565b5b81905092915050565b600080604083850312156126965761269561245f565b5b60006126a4858286016124b2565b925050602083013567ffffffffffffffff8111156126c5576126c4612464565b5b6126d185828601612660565b9150509250929050565b6000819050919050565b60006127006126fb6126f6846124c7565b6126db565b6124c7565b9050919050565b612710816126e5565b82525050565b600060208201905061272b6000830184612707565b92915050565b6000604082840312156127475761274661265b565b5b81905092915050565b600080604083850312156127675761276661245f565b5b6000612775858286016124b2565b925050602083013567ffffffffffffffff81111561279657612795612464565b5b6127a285828601612731565b9150509250929050565b600080fd5b7f4e487b7100000000000000000000000000000000000000000000000000000000600052604160045260246000fd5b6127e9826123e9565b810181811067ffffffffffffffff82111715612808576128076127b1565b5b80604052505050565b600061281b612455565b905061282782826127e0565b919050565b600080fd5b61283a81612627565b811461284557600080fd5b50565b60008135905061285781612831565b92915050565b600080fd5b600080fd5b600067ffffffffffffffff821115612882576128816127b1565b5b61288b826123e9565b9050602081019050919050565b82818337600083830152505050565b60006128ba6128b584612867565b612811565b9050828152602081018484840111156128d6576128d5612862565b5b6128e1848285612898565b509392505050565b600082601f8301126128fe576128fd61285d565b5b813561290e8482602086016128a7565b91505092915050565b60006040828403121561292d5761292c6127ac565b5b6129376040612811565b9050600061294784828501612848565b600083015250602082013567ffffffffffffffff81111561296b5761296a61282c565b5b612977848285016128e9565b60208301525092915050565b6000806040838503121561299a5761299961245f565b5b60006129a8858286016124b2565b925050602083013567ffffffffffffffff8111156129c9576129c8612464565b5b6129d585828601612917565b9150509250929050565b600063ffffffff82169050919050565b6129f8816129df565b8114612a0357600080fd5b50565b600081359050612a15816129ef565b92915050565b600060208284031215612a3157612a3061245f565b5b6000612a3f84828501612a06565b91505092915050565b600060208284031215612a5e57612a5d61245f565b5b6000612a6c848285016124b2565b91505092915050565b60007fff0000000000000000000000000000000000000000000000000000000000000082169050919050565b612aaa81612a75565b82525050565b612ab981612489565b82525050565b600081519050919050565b600082825260208201905092915050565b6000819050602082019050919050565b612af4816124c7565b82525050565b6000612b068383612aeb565b60208301905092915050565b6000602082019050919050565b6000612b2a82612abf565b612b348185612aca565b9350612b3f83612adb565b8060005b83811015612b70578151612b578882612afa565b9750612b6283612b12565b925050600181019050612b43565b5085935050505092915050565b600060e082019050612b92600083018a612aa1565b8181036020830152612ba481896123fa565b90508181036040830152612bb881886123fa565b9050612bc76060830187612573565b612bd46080830186612ab0565b612be160a0830185612631565b81810360c0830152612bf38184612b1f565b905098975050505050505050565b600080600060608486031215612c1a57612c1961245f565b5b6000612c28868287016124b2565b9350506020612c39868287016124b2565b925050604084013567ffffffffffffffff811115612c5a57612c59612464565b5b612c6686828701612660565b9150509250925092565b612c79816124c7565b8114612c8457600080fd5b50565b600081359050612c9681612c70565b92915050565b600080600060608486031215612cb557612cb461245f565b5b6000612cc3868287016124b2565b9350506020612cd4868287016124b2565b9250506040612ce586828701612c87565b9150509250925092565b60008060408385031215612d0657612d0561245f565b5b6000612d14858286016124b2565b9250506020612d2585828601612c87565b9150509250929050565b612d38816125f0565b8114612d4357600080fd5b50565b600081359050612d5581612d2f565b92915050565b600080600080600080600060e0888a031215612d7a57612d7961245f565b5b6000612d888a828b016124b2565b9750506020612d998a828b016124b2565b9650506040612daa8a828b016124e8565b9550506060612dbb8a828b016124e8565b9450506080612dcc8a828b01612d46565b93505060a0612ddd8a828b01612848565b92505060c0612dee8a828b01612848565b91505092959891949750929550565b60008060408385031215612e1457612e1361245f565b5b6000612e22858286016124b2565b9250506020612e33858286016124b2565b9150509250929050565b7f4e487b7100000000000000000000000000000000000000000000000000000000600052602260045260246000fd5b60006002820490506001821680612e8457607f821691505b602082108103612e9757612e96612e3d565b5b50919050565b600060208284031215612eb357612eb26127ac565b5b612ebd6020612811565b9050600082013567ffffffffffffffff811115612edd57612edc61282c565b5b612ee9848285016128e9565b60008301525092915050565b6000612f013683612e9d565b9050919050565b6000612f143683612917565b9050919050565b6000604082019050612f306000830185612631565b612f3d6020830184612631565b9392505050565b600081519050919050565b600082825260208201905092915050565b6000612f6b82612f44565b612f758185612f4f565b9350612f858185602086016123bf565b612f8e816123e9565b840191505092915050565b6000604082019050612fae60008301856125fd565b8181036020830152612fc08184612f60565b90509392505050565b600081519050612fd8816124d1565b92915050565b600060208284031215612ff457612ff361245f565b5b600061300284828501612fc9565b91505092915050565b7f4e487b7100000000000000000000000000000000000000000000000000000000600052602160045260246000fd5b6000819050919050565b61305561305082612627565b61303a565b82525050565b60006130678284613044565b60208201915081905092915050565b600060608201905061308b60008301866125fd565b818103602083015261309d8185612f60565b905081810360408301526130b18184612f60565b9050949350505050565b600067ffffffffffffffff8211156130d6576130d56127b1565b5b6130df826123e9565b9050602081019050919050565b60006130ff6130fa846130bb565b612811565b90508281526020810184848401111561311b5761311a612862565b5b6131268482856123bf565b509392505050565b600082601f8301126131435761314261285d565b5b81516131538482602086016130ec565b91505092915050565b6000602082840312156131725761317161245f565b5b600082015167ffffffffffffffff8111156131905761318f612464565b5b61319c8482850161312e565b91505092915050565b600060408201905081810360008301526131bf8185612f60565b90506131ce60208301846125fd565b9392505050565b60006131e86131e384612867565b612811565b90508281526020810184848401111561320457613203612862565b5b61320f8482856123bf565b509392505050565b600082601f83011261322c5761322b61285d565b5b815161323c8482602086016131d5565b91505092915050565b60006020828403121561325b5761325a61245f565b5b600082015167ffffffffffffffff81111561327957613278612464565b5b61328584828501613217565b91505092915050565b600060a0820190506132a36000830188612631565b6132b06020830187612631565b6132bd6040830186612631565b6132ca6060830185612573565b6132d76080830184612ab0565b9695505050505050565b60006080820190506132f66000830187612631565b61330360208301866125fd565b6133106040830185612631565b61331d6060830184612631565b9594505050505056fea264697066735822122058197cac2b77cb9bd316ff9903122d58cec9c086f803140087396e89c46f21c964736f6c63430008180033",
  "devdoc": {
    "errors": {
      "AllowanceOverflow()": [
        {
          "details": "The allowance has overflowed."
        }
      ],
      "AllowanceUnderflow()": [
        {
          "details": "The allowance has underflowed."
        }
      ],
      "ECDSAInvalidSignature()": [
        {
          "details": "The signature derives the `address(0)`."
        }
      ],
      "ECDSAInvalidSignatureLength(uint256)": [
        {
          "details": "The signature has an invalid length."
        }
      ],
      "ECDSAInvalidSignatureS(bytes32)": [
        {
          "details": "The signature has an S value that is in the upper half order."
        }
      ],
      "InsufficientAllowance()": [
        {
          "details": "Insufficient allowance."
        }
      ],
      "InsufficientBalance()": [
        {
          "details": "Insufficient balance."
        }
      ],
      "InvalidPermit()": [
        {
          "details": "The permit is invalid."
        }
      ],
      "PermitExpired()": [
        {
          "details": "The permit has expired."
        }
      ],
      "TotalSupplyOverflow()": [
        {
          "details": "The total supply has overflowed."
        }
      ]
    },
    "events": {
      "Approval(address,address,uint256)": {
        "details": "Emitted when `amount` tokens is approved by `owner` to be used by `spender`."
      },
      "ApprovalEncrypted(address,address)": {
        "details": "Emitted when the allowance of a `spender` for an `owner` is set by a call to {approveEncrypted}. `value` is the new allowance."
      },
      "EIP712DomainChanged()": {
        "details": "MAY be emitted to signal that the domain could have changed."
      },
      "Transfer(address,address,uint256)": {
        "details": "Emitted when `amount` tokens is transferred from `from` to `to`."
      },
      "TransferEncrypted(address,address)": {
        "details": "Emitted when `value` tokens are moved from one account (`from`) to another (`to`). Note that `value` may be zero."
      }
    },
    "kind": "dev",
    "methods": {
      "DOMAIN_SEPARATOR()": {
        "details": "Returns the EIP-712 domain separator for the EIP-2612 permit."
      },
      "allowance(address,address)": {
        "details": "Returns the amount of tokens that `spender` can spend on behalf of `owner`."
      },
      "allowanceEncrypted(address,(bytes32,bytes))": {
        "details": "Returns the remaining number of tokens that `spender` will be allowed to spend on behalf of `owner` through {transferFrom}. This is zero by default. This value changes when {approve} or {transferFrom} are called."
      },
      "approve(address,uint256)": {
        "details": "Sets `amount` as the allowance of `spender` over the caller's tokens. Emits a {Approval} event."
      },
      "approveEncrypted(address,(bytes))": {
        "details": "Sets a `value` amount of tokens as the allowance of `spender` over the caller's tokens. Returns a boolean value indicating whether the operation succeeded. IMPORTANT: Beware that changing an allowance with this method brings the risk that someone may use both the old and the new allowance by unfortunate transaction ordering. One possible solution to mitigate this race condition is to first reduce the spender's allowance to 0 and set the desired value afterwards: https://github.com/ethereum/EIPs/issues/20#issuecomment-263524729 Emits an {ApprovalEncrypted} event."
      },
      "balanceOf(address)": {
        "details": "Returns the amount of tokens owned by `owner`."
      },
      "balanceOfEncrypted(address,(bytes32,bytes))": {
        "details": "Returns the value of tokens owned by `account`, sealed and encrypted for the caller."
      },
      "decimals()": {
        "details": "Returns the decimals places of the token."
      },
      "eip712Domain()": {
        "details": "See {IERC-5267}."
      },
      "name()": {
        "details": "Returns the name of the token."
      },
      "nonces(address)": {
        "details": "Returns the current nonce for `owner`. This value is used to compute the signature for EIP-2612 permit."
      },
      "permit(address,address,uint256,uint256,uint8,bytes32,bytes32)": {
        "details": "Sets `value` as the allowance of `spender` over the tokens of `owner`, authorized by a signed approval by `owner`. Emits a {Approval} event."
      },
      "symbol()": {
        "details": "Returns the symbol of the token."
      },
      "totalSupply()": {
        "details": "Returns the amount of tokens in existence."
      },
      "transfer(address,uint256)": {
        "details": "Transfer `amount` tokens from the caller to `to`. Requirements: - `from` must at least have `amount`. Emits a {Transfer} event."
      },
      "transferFrom(address,address,uint256)": {
        "details": "Transfers `amount` tokens from `from` to `to`. Note: Does not update the allowance if it is the maximum uint256 value. Requirements: - `from` must at least have `amount`. - The caller must have at least `amount` of allowance to transfer the tokens of `from`. Emits a {Transfer} event."
      },
      "transferFromEncrypted(address,address,(bytes))": {
        "details": "Moves a `value` amount of tokens from `from` to `to` using the allowance mechanism. `value` is then deducted from the caller's allowance. Returns a boolean value indicating whether the operation succeeded. Emits a {TransferEncrypted} event."
      }
    },
    "version": 1
  },
  "userdoc": {
    "errors": {
      "SignerNotMessageSender()": [
        {
          "notice": "Emitted when the signer is not the message sender"
        }
      ],
      "SignerNotOwner()": [
        {
          "notice": "Emitted when the signer is not the specified owner"
        }
      ]
    },
    "kind": "user",
    "methods": {},
    "version": 1
  },
  "storageLayout": {
    "storage": [
      {
        "astId": 16568,
        "contract": "contracts/tokens/FakeUSD.sol:FakeUSD",
        "label": "_nameFallback",
        "offset": 0,
        "slot": "0",
        "type": "t_string_storage"
      },
      {
        "astId": 16570,
        "contract": "contracts/tokens/FakeUSD.sol:FakeUSD",
        "label": "_versionFallback",
        "offset": 0,
        "slot": "1",
        "type": "t_string_storage"
      },
      {
        "astId": 18126,
        "contract": "contracts/tokens/FakeUSD.sol:FakeUSD",
        "label": "_encTotalSupply",
        "offset": 0,
        "slot": "2",
        "type": "t_userDefinedValueType(euint32)12"
      },
      {
        "astId": 18131,
        "contract": "contracts/tokens/FakeUSD.sol:FakeUSD",
        "label": "_encBalanceOf",
        "offset": 0,
        "slot": "3",
        "type": "t_mapping(t_address,t_userDefinedValueType(euint32)12)"
      },
      {
        "astId": 18138,
        "contract": "contracts/tokens/FakeUSD.sol:FakeUSD",
        "label": "_encAllowance",
        "offset": 0,
        "slot": "4",
        "type": "t_mapping(t_address,t_mapping(t_address,t_userDefinedValueType(euint32)12))"
      },
      {
        "astId": 18140,
        "contract": "contracts/tokens/FakeUSD.sol:FakeUSD",
        "label": "_name",
        "offset": 0,
        "slot": "5",
        "type": "t_string_storage"
      },
      {
        "astId": 18142,
        "contract": "contracts/tokens/FakeUSD.sol:FakeUSD",
        "label": "_symbol",
        "offset": 0,
        "slot": "6",
        "type": "t_string_storage"
      }
    ],
    "types": {
      "t_address": {
        "encoding": "inplace",
        "label": "address",
        "numberOfBytes": "20"
      },
      "t_mapping(t_address,t_mapping(t_address,t_userDefinedValueType(euint32)12))": {
        "encoding": "mapping",
        "key": "t_address",
        "label": "mapping(address => mapping(address => euint32))",
        "numberOfBytes": "32",
        "value": "t_mapping(t_address,t_userDefinedValueType(euint32)12)"
      },
      "t_mapping(t_address,t_userDefinedValueType(euint32)12)": {
        "encoding": "mapping",
        "key": "t_address",
        "label": "mapping(address => euint32)",
        "numberOfBytes": "32",
        "value": "t_userDefinedValueType(euint32)12"
      },
      "t_string_storage": {
        "encoding": "bytes",
        "label": "string",
        "numberOfBytes": "32"
      },
      "t_userDefinedValueType(euint32)12": {
        "encoding": "inplace",
        "label": "euint32",
        "numberOfBytes": "32"
      }
    }
  }
}