{
  "address": "0x3e6Bd7EcA7c844E6d397ABc5D80bb91155d092e7",
  "abi": [
    {
      "inputs": [
        {
          "components": [
            {
              "internalType": "bytes",
              "name": "data",
              "type": "bytes"
            }
          ],
          "internalType": "struct inEuint32",
          "name": "_initialSupply",
          "type": "tuple"
        }
      ],
      "stateMutability": "nonpayable",
      "type": "constructor"
    },
    {
      "inputs": [],
      "name": "AllowanceOverflow",
      "type": "error"
    },
    {
      "inputs": [],
      "name": "AllowanceUnderflow",
      "type": "error"
    },
    {
      "inputs": [],
      "name": "ECDSAInvalidSignature",
      "type": "error"
    },
    {
      "inputs": [
        {
          "internalType": "uint256",
          "name": "length",
          "type": "uint256"
        }
      ],
      "name": "ECDSAInvalidSignatureLength",
      "type": "error"
    },
    {
      "inputs": [
        {
          "internalType": "bytes32",
          "name": "s",
          "type": "bytes32"
        }
      ],
      "name": "ECDSAInvalidSignatureS",
      "type": "error"
    },
    {
      "inputs": [],
      "name": "ErrorInsufficientFunds",
      "type": "error"
    },
    {
      "inputs": [],
      "name": "InsufficientAllowance",
      "type": "error"
    },
    {
      "inputs": [],
      "name": "InsufficientBalance",
      "type": "error"
    },
    {
      "inputs": [],
      "name": "InvalidPermit",
      "type": "error"
    },
    {
      "inputs": [],
      "name": "InvalidShortString",
      "type": "error"
    },
    {
      "inputs": [],
      "name": "PermitExpired",
      "type": "error"
    },
    {
      "inputs": [],
      "name": "SignerNotMessageSender",
      "type": "error"
    },
    {
      "inputs": [],
      "name": "SignerNotOwner",
      "type": "error"
    },
    {
      "inputs": [
        {
          "internalType": "string",
          "name": "str",
          "type": "string"
        }
      ],
      "name": "StringTooLong",
      "type": "error"
    },
    {
      "inputs": [],
      "name": "TotalSupplyOverflow",
      "type": "error"
    },
    {
      "anonymous": false,
      "inputs": [
        {
          "indexed": true,
          "internalType": "address",
          "name": "owner",
          "type": "address"
        },
        {
          "indexed": true,
          "internalType": "address",
          "name": "spender",
          "type": "address"
        },
        {
          "indexed": false,
          "internalType": "uint256",
          "name": "amount",
          "type": "uint256"
        }
      ],
      "name": "Approval",
      "type": "event"
    },
    {
      "anonymous": false,
      "inputs": [
        {
          "indexed": true,
          "internalType": "address",
          "name": "owner",
          "type": "address"
        },
        {
          "indexed": true,
          "internalType": "address",
          "name": "spender",
          "type": "address"
        }
      ],
      "name": "ApprovalEncrypted",
      "type": "event"
    },
    {
      "anonymous": false,
      "inputs": [],
      "name": "EIP712DomainChanged",
      "type": "event"
    },
    {
      "anonymous": false,
      "inputs": [
        {
          "indexed": true,
          "internalType": "address",
          "name": "from",
          "type": "address"
        },
        {
          "indexed": true,
          "internalType": "address",
          "name": "to",
          "type": "address"
        },
        {
          "indexed": false,
          "internalType": "uint256",
          "name": "amount",
          "type": "uint256"
        }
      ],
      "name": "Transfer",
      "type": "event"
    },
    {
      "anonymous": false,
      "inputs": [
        {
          "indexed": true,
          "internalType": "address",
          "name": "from",
          "type": "address"
        },
        {
          "indexed": true,
          "internalType": "address",
          "name": "to",
          "type": "address"
        }
      ],
      "name": "TransferEncrypted",
      "type": "event"
    },
    {
      "inputs": [],
      "name": "DOMAIN_SEPARATOR",
      "outputs": [
        {
          "internalType": "bytes32",
          "name": "result",
          "type": "bytes32"
        }
      ],
      "stateMutability": "view",
      "type": "function"
    },
    {
      "inputs": [
        {
          "internalType": "address",
          "name": "owner",
          "type": "address"
        },
        {
          "internalType": "address",
          "name": "spender",
          "type": "address"
        }
      ],
      "name": "allowance",
      "outputs": [
        {
          "internalType": "uint256",
          "name": "result",
          "type": "uint256"
        }
      ],
      "stateMutability": "view",
      "type": "function"
    },
    {
      "inputs": [
        {
          "internalType": "address",
          "name": "spender",
          "type": "address"
        },
        {
          "components": [
            {
              "internalType": "bytes32",
              "name": "publicKey",
              "type": "bytes32"
            },
            {
              "internalType": "bytes",
              "name": "signature",
              "type": "bytes"
            }
          ],
          "internalType": "struct Permission",
          "name": "permission",
          "type": "tuple"
        }
      ],
      "name": "allowanceEncrypted",
      "outputs": [
        {
          "internalType": "string",
          "name": "",
          "type": "string"
        }
      ],
      "stateMutability": "view",
      "type": "function"
    },
    {
      "inputs": [
        {
          "internalType": "address",
          "name": "spender",
          "type": "address"
        },
        {
          "internalType": "uint256",
          "name": "amount",
          "type": "uint256"
        }
      ],
      "name": "approve",
      "outputs": [
        {
          "internalType": "bool",
          "name": "",
          "type": "bool"
        }
      ],
      "stateMutability": "nonpayable",
      "type": "function"
    },
    {
      "inputs": [
        {
          "internalType": "address",
          "name": "spender",
          "type": "address"
        },
        {
          "components": [
            {
              "internalType": "bytes",
              "name": "data",
              "type": "bytes"
            }
          ],
          "internalType": "struct inEuint32",
          "name": "value",
          "type": "tuple"
        }
      ],
      "name": "approveEncrypted",
      "outputs": [
        {
          "internalType": "bool",
          "name": "",
          "type": "bool"
        }
      ],
      "stateMutability": "nonpayable",
      "type": "function"
    },
    {
      "inputs": [
        {
          "internalType": "address",
          "name": "owner",
          "type": "address"
        }
      ],
      "name": "balanceOf",
      "outputs": [
        {
          "internalType": "uint256",
          "name": "result",
          "type": "uint256"
        }
      ],
      "stateMutability": "view",
      "type": "function"
    },
    {
      "inputs": [
        {
          "internalType": "address",
          "name": "account",
          "type": "address"
        },
        {
          "components": [
            {
              "internalType": "bytes32",
              "name": "publicKey",
              "type": "bytes32"
            },
            {
              "internalType": "bytes",
              "name": "signature",
              "type": "bytes"
            }
          ],
          "internalType": "struct Permission",
          "name": "auth",
          "type": "tuple"
        }
      ],
      "name": "balanceOfEncrypted",
      "outputs": [
        {
          "internalType": "string",
          "name": "",
          "type": "string"
        }
      ],
      "stateMutability": "view",
      "type": "function"
    },
    {
      "inputs": [],
      "name": "decimals",
      "outputs": [
        {
          "internalType": "uint8",
          "name": "",
          "type": "uint8"
        }
      ],
      "stateMutability": "pure",
      "type": "function"
    },
    {
      "inputs": [],
      "name": "eip712Domain",
      "outputs": [
        {
          "internalType": "bytes1",
          "name": "fields",
          "type": "bytes1"
        },
        {
          "internalType": "string",
          "name": "name",
          "type": "string"
        },
        {
          "internalType": "string",
          "name": "version",
          "type": "string"
        },
        {
          "internalType": "uint256",
          "name": "chainId",
          "type": "uint256"
        },
        {
          "internalType": "address",
          "name": "verifyingContract",
          "type": "address"
        },
        {
          "internalType": "bytes32",
          "name": "salt",
          "type": "bytes32"
        },
        {
          "internalType": "uint256[]",
          "name": "extensions",
          "type": "uint256[]"
        }
      ],
      "stateMutability": "view",
      "type": "function"
    },
    {
      "inputs": [],
      "name": "name",
      "outputs": [
        {
          "internalType": "string",
          "name": "",
          "type": "string"
        }
      ],
      "stateMutability": "view",
      "type": "function"
    },
    {
      "inputs": [
        {
          "internalType": "address",
          "name": "owner",
          "type": "address"
        }
      ],
      "name": "nonces",
      "outputs": [
        {
          "internalType": "uint256",
          "name": "result",
          "type": "uint256"
        }
      ],
      "stateMutability": "view",
      "type": "function"
    },
    {
      "inputs": [
        {
          "internalType": "address",
          "name": "owner",
          "type": "address"
        },
        {
          "internalType": "address",
          "name": "spender",
          "type": "address"
        },
        {
          "internalType": "uint256",
          "name": "value",
          "type": "uint256"
        },
        {
          "internalType": "uint256",
          "name": "deadline",
          "type": "uint256"
        },
        {
          "internalType": "uint8",
          "name": "v",
          "type": "uint8"
        },
        {
          "internalType": "bytes32",
          "name": "r",
          "type": "bytes32"
        },
        {
          "internalType": "bytes32",
          "name": "s",
          "type": "bytes32"
        }
      ],
      "name": "permit",
      "outputs": [],
      "stateMutability": "nonpayable",
      "type": "function"
    },
    {
      "inputs": [],
      "name": "symbol",
      "outputs": [
        {
          "internalType": "string",
          "name": "",
          "type": "string"
        }
      ],
      "stateMutability": "view",
      "type": "function"
    },
    {
      "inputs": [],
      "name": "totalSupply",
      "outputs": [
        {
          "internalType": "uint256",
          "name": "result",
          "type": "uint256"
        }
      ],
      "stateMutability": "view",
      "type": "function"
    },
    {
      "inputs": [
        {
          "internalType": "address",
          "name": "to",
          "type": "address"
        },
        {
          "internalType": "uint256",
          "name": "amount",
          "type": "uint256"
        }
      ],
      "name": "transfer",
      "outputs": [
        {
          "internalType": "bool",
          "name": "",
          "type": "bool"
        }
      ],
      "stateMutability": "nonpayable",
      "type": "function"
    },
    {
      "inputs": [
        {
          "internalType": "address",
          "name": "to",
          "type": "address"
        },
        {
          "components": [
            {
              "internalType": "bytes",
              "name": "data",
              "type": "bytes"
            }
          ],
          "internalType": "struct inEuint32",
          "name": "encryptedAmount",
          "type": "tuple"
        }
      ],
      "name": "transferEncrypted",
      "outputs": [
        {
          "internalType": "euint32",
          "name": "",
          "type": "uint256"
        }
      ],
      "stateMutability": "nonpayable",
      "type": "function"
    },
    {
      "inputs": [
        {
          "internalType": "address",
          "name": "to",
          "type": "address"
        },
        {
          "internalType": "euint32",
          "name": "amount",
          "type": "uint256"
        }
      ],
      "name": "transferEncrypted",
      "outputs": [
        {
          "internalType": "euint32",
          "name": "",
          "type": "uint256"
        }
      ],
      "stateMutability": "nonpayable",
      "type": "function"
    },
    {
      "inputs": [
        {
          "internalType": "address",
          "name": "from",
          "type": "address"
        },
        {
          "internalType": "address",
          "name": "to",
          "type": "address"
        },
        {
          "internalType": "uint256",
          "name": "amount",
          "type": "uint256"
        }
      ],
      "name": "transferFrom",
      "outputs": [
        {
          "internalType": "bool",
          "name": "",
          "type": "bool"
        }
      ],
      "stateMutability": "nonpayable",
      "type": "function"
    },
    {
      "inputs": [
        {
          "internalType": "address",
          "name": "from",
          "type": "address"
        },
        {
          "internalType": "address",
          "name": "to",
          "type": "address"
        },
        {
          "components": [
            {
              "internalType": "bytes",
              "name": "data",
              "type": "bytes"
            }
          ],
          "internalType": "struct inEuint32",
          "name": "value",
          "type": "tuple"
        }
      ],
      "name": "transferFromEncrypted",
      "outputs": [
        {
          "internalType": "euint32",
          "name": "",
          "type": "uint256"
        }
      ],
      "stateMutability": "nonpayable",
      "type": "function"
    },
    {
      "inputs": [
        {
          "internalType": "address",
          "name": "from",
          "type": "address"
        },
        {
          "internalType": "address",
          "name": "to",
          "type": "address"
        },
        {
          "internalType": "euint32",
          "name": "value",
          "type": "uint256"
        }
      ],
      "name": "transferFromEncrypted",
      "outputs": [
        {
          "internalType": "euint32",
          "name": "",
          "type": "uint256"
        }
      ],
      "stateMutability": "nonpayable",
      "type": "function"
    },
    {
      "inputs": [
        {
          "internalType": "uint32",
          "name": "amount",
          "type": "uint32"
        }
      ],
      "name": "unwrap",
      "outputs": [],
      "stateMutability": "nonpayable",
      "type": "function"
    },
    {
      "inputs": [
        {
          "internalType": "uint32",
          "name": "amount",
          "type": "uint32"
        }
      ],
      "name": "wrap",
      "outputs": [],
      "stateMutability": "nonpayable",
      "type": "function"
    }
  ],
  "transactionHash": "0x6bc73d7cd7dcdd7b5199c91c82a31e317f04b883df21bd016efeee5a60091b8c",
  "args": [
    {
      "data": {
        "0": 16,
        "1": 8,
        "2": 0,
        "3": 0,
        "4": 0,
        "5": 0,
        "6": 0,
        "7": 0,
        "8": 35,
        "9": 231,
        "10": 0,
        "11": 191,
        "12": 185,
        "13": 121,
        "14": 166,
        "15": 102,
        "16": 21,
        "17": 121,
        "18": 14,
        "19": 16,
        "20": 134,
        "21": 245,
        "22": 81,
        "23": 175,
        "24": 54,
        "25": 164,
        "26": 197,
        "27": 65,
        "28": 102,
        "29": 7,
        "30": 172,
        "31": 68,
        "32": 69,
        "33": 7,
        "34": 196,
        "35": 115,
        "36": 174,
        "37": 56,
        "38": 53,
        "39": 12,
        "40": 188,
        "41": 106,
        "42": 210,
        "43": 49,
        "44": 241,
        "45": 35,
        "46": 111,
        "47": 168,
        "48": 229,
        "49": 237,
        "50": 42,
        "51": 56,
        "52": 84,
        "53": 221,
        "54": 101,
        "55": 127,
        "56": 99,
        "57": 16,
        "58": 146,
        "59": 163,
        "60": 137,
        "61": 210,
        "62": 185,
        "63": 245,
        "64": 247,
        "65": 150,
        "66": 127,
        "67": 235,
        "68": 124,
        "69": 140,
        "70": 113,
        "71": 29,
        "72": 37,
        "73": 96,
        "74": 146,
        "75": 23,
        "76": 242,
        "77": 81,
        "78": 77,
        "79": 157,
        "80": 89,
        "81": 205,
        "82": 232,
        "83": 197,
        "84": 198,
        "85": 84,
        "86": 201,
        "87": 199,
        "88": 5,
        "89": 30,
        "90": 238,
        "91": 113,
        "92": 168,
        "93": 167,
        "94": 176,
        "95": 235,
        "96": 234,
        "97": 227,
        "98": 137,
        "99": 165,
        "100": 4,
        "101": 239,
        "102": 74,
        "103": 106,
        "104": 74,
        "105": 94,
        "106": 241,
        "107": 1,
        "108": 45,
        "109": 38,
        "110": 145,
        "111": 74,
        "112": 111,
        "113": 86,
        "114": 60,
        "115": 19,
        "116": 212,
        "117": 226,
        "118": 69,
        "119": 143,
        "120": 56,
        "121": 213,
        "122": 132,
        "123": 117,
        "124": 26,
        "125": 70,
        "126": 31,
        "127": 86,
        "128": 14,
        "129": 79,
        "130": 180,
        "131": 59,
        "132": 160,
        "133": 47,
        "134": 62,
        "135": 206,
        "136": 159,
        "137": 196,
        "138": 90,
        "139": 207,
        "140": 19,
        "141": 243,
        "142": 10,
        "143": 108,
        "144": 37,
        "145": 237,
        "146": 17,
        "147": 110,
        "148": 174,
        "149": 251,
        "150": 1,
        "151": 207,
        "152": 9,
        "153": 249,
        "154": 150,
        "155": 205,
        "156": 151,
        "157": 219,
        "158": 202,
        "159": 78,
        "160": 180,
        "161": 94,
        "162": 234,
        "163": 218,
        "164": 98,
        "165": 94,
        "166": 46,
        "167": 213,
        "168": 138,
        "169": 219,
        "170": 128,
        "171": 185,
        "172": 107,
        "173": 71,
        "174": 115,
        "175": 247,
        "176": 225,
        "177": 3,
        "178": 41,
        "179": 129,
        "180": 181,
        "181": 133,
        "182": 36,
        "183": 183,
        "184": 174,
        "185": 204,
        "186": 219,
        "187": 201,
        "188": 192,
        "189": 252,
        "190": 7,
        "191": 207,
        "192": 160,
        "193": 245,
        "194": 151,
        "195": 252,
        "196": 120,
        "197": 161,
        "198": 165,
        "199": 184,
        "200": 70,
        "201": 55,
        "202": 189,
        "203": 167,
        "204": 31,
        "205": 180,
        "206": 201,
        "207": 207,
        "208": 214,
        "209": 60,
        "210": 176,
        "211": 18,
        "212": 10,
        "213": 227,
        "214": 120,
        "215": 117,
        "216": 157,
        "217": 236,
        "218": 224,
        "219": 108,
        "220": 59,
        "221": 199,
        "222": 14,
        "223": 110,
        "224": 173,
        "225": 215,
        "226": 150,
        "227": 255,
        "228": 2,
        "229": 61,
        "230": 22,
        "231": 198,
        "232": 91,
        "233": 204,
        "234": 177,
        "235": 165,
        "236": 237,
        "237": 9,
        "238": 93,
        "239": 119,
        "240": 224,
        "241": 182,
        "242": 141,
        "243": 238,
        "244": 116,
        "245": 136,
        "246": 54,
        "247": 80,
        "248": 109,
        "249": 226,
        "250": 10,
        "251": 154,
        "252": 84,
        "253": 9,
        "254": 152,
        "255": 43,
        "256": 131,
        "257": 50,
        "258": 56,
        "259": 165,
        "260": 214,
        "261": 154,
        "262": 87,
        "263": 55,
        "264": 135,
        "265": 238,
        "266": 216,
        "267": 6,
        "268": 132,
        "269": 75,
        "270": 20,
        "271": 206,
        "272": 53,
        "273": 140,
        "274": 229,
        "275": 178,
        "276": 126,
        "277": 204,
        "278": 147,
        "279": 60,
        "280": 91,
        "281": 65,
        "282": 132,
        "283": 146,
        "284": 140,
        "285": 147,
        "286": 232,
        "287": 58,
        "288": 23,
        "289": 70,
        "290": 122,
        "291": 145,
        "292": 94,
        "293": 153,
        "294": 172,
        "295": 117,
        "296": 18,
        "297": 16,
        "298": 23,
        "299": 23,
        "300": 246,
        "301": 19,
        "302": 98,
        "303": 148,
        "304": 67,
        "305": 255,
        "306": 171,
        "307": 126,
        "308": 224,
        "309": 70,
        "310": 40,
        "311": 43,
        "312": 171,
        "313": 215,
        "314": 194,
        "315": 51,
        "316": 169,
        "317": 72,
        "318": 201,
        "319": 10,
        "320": 48,
        "321": 196,
        "322": 175,
        "323": 132,
        "324": 186,
        "325": 226,
        "326": 154,
        "327": 127,
        "328": 169,
        "329": 208,
        "330": 126,
        "331": 92,
        "332": 253,
        "333": 229,
        "334": 252,
        "335": 58,
        "336": 153,
        "337": 41,
        "338": 98,
        "339": 207,
        "340": 59,
        "341": 227,
        "342": 206,
        "343": 250,
        "344": 66,
        "345": 72,
        "346": 186,
        "347": 3,
        "348": 185,
        "349": 156,
        "350": 76,
        "351": 219,
        "352": 6,
        "353": 202,
        "354": 99,
        "355": 109,
        "356": 68,
        "357": 78,
        "358": 70,
        "359": 137,
        "360": 34,
        "361": 20,
        "362": 79,
        "363": 0,
        "364": 94,
        "365": 197,
        "366": 100,
        "367": 185,
        "368": 193,
        "369": 201,
        "370": 21,
        "371": 230,
        "372": 6,
        "373": 28,
        "374": 177,
        "375": 70,
        "376": 189,
        "377": 212,
        "378": 236,
        "379": 211,
        "380": 112,
        "381": 70,
        "382": 45,
        "383": 198,
        "384": 146,
        "385": 110,
        "386": 83,
        "387": 12,
        "388": 229,
        "389": 177,
        "390": 8,
        "391": 244,
        "392": 199,
        "393": 125,
        "394": 82,
        "395": 130,
        "396": 255,
        "397": 208,
        "398": 218,
        "399": 1,
        "400": 218,
        "401": 167,
        "402": 226,
        "403": 143,
        "404": 119,
        "405": 240,
        "406": 101,
        "407": 83,
        "408": 107,
        "409": 180,
        "410": 163,
        "411": 254,
        "412": 60,
        "413": 30,
        "414": 136,
        "415": 236,
        "416": 114,
        "417": 195,
        "418": 210,
        "419": 169,
        "420": 77,
        "421": 127,
        "422": 168,
        "423": 232,
        "424": 145,
        "425": 175,
        "426": 83,
        "427": 155,
        "428": 178,
        "429": 149,
        "430": 86,
        "431": 87,
        "432": 5,
        "433": 162,
        "434": 207,
        "435": 157,
        "436": 3,
        "437": 62,
        "438": 107,
        "439": 123,
        "440": 147,
        "441": 216,
        "442": 224,
        "443": 176,
        "444": 105,
        "445": 246,
        "446": 43,
        "447": 217,
        "448": 31,
        "449": 12,
        "450": 100,
        "451": 152,
        "452": 206,
        "453": 49,
        "454": 194,
        "455": 4,
        "456": 153,
        "457": 57,
        "458": 30,
        "459": 164,
        "460": 167,
        "461": 223,
        "462": 125,
        "463": 175,
        "464": 40,
        "465": 129,
        "466": 127,
        "467": 51,
        "468": 155,
        "469": 202,
        "470": 40,
        "471": 178,
        "472": 95,
        "473": 160,
        "474": 193,
        "475": 104,
        "476": 60,
        "477": 88,
        "478": 197,
        "479": 111,
        "480": 33,
        "481": 77,
        "482": 170,
        "483": 12,
        "484": 175,
        "485": 129,
        "486": 136,
        "487": 146,
        "488": 138,
        "489": 95,
        "490": 96,
        "491": 31,
        "492": 49,
        "493": 250,
        "494": 172,
        "495": 185,
        "496": 100,
        "497": 175,
        "498": 205,
        "499": 143,
        "500": 227,
        "501": 146,
        "502": 201,
        "503": 224,
        "504": 215,
        "505": 13,
        "506": 13,
        "507": 91,
        "508": 7,
        "509": 58,
        "510": 212,
        "511": 173,
        "512": 159,
        "513": 9,
        "514": 91,
        "515": 41,
        "516": 155,
        "517": 249,
        "518": 185,
        "519": 132,
        "520": 234,
        "521": 18,
        "522": 36,
        "523": 167,
        "524": 126,
        "525": 35,
        "526": 147,
        "527": 2,
        "528": 34,
        "529": 152,
        "530": 178,
        "531": 88,
        "532": 215,
        "533": 36,
        "534": 81,
        "535": 242,
        "536": 163,
        "537": 174,
        "538": 185,
        "539": 186,
        "540": 177,
        "541": 70,
        "542": 68,
        "543": 164,
        "544": 14,
        "545": 225,
        "546": 113,
        "547": 124,
        "548": 233,
        "549": 28,
        "550": 210,
        "551": 130,
        "552": 135,
        "553": 155,
        "554": 67,
        "555": 183,
        "556": 29,
        "557": 72,
        "558": 1,
        "559": 60,
        "560": 49,
        "561": 181,
        "562": 32,
        "563": 125,
        "564": 222,
        "565": 55,
        "566": 148,
        "567": 248,
        "568": 20,
        "569": 240,
        "570": 164,
        "571": 228,
        "572": 208,
        "573": 209,
        "574": 67,
        "575": 99,
        "576": 240,
        "577": 129,
        "578": 70,
        "579": 95,
        "580": 214,
        "581": 38,
        "582": 54,
        "583": 218,
        "584": 153,
        "585": 245,
        "586": 32,
        "587": 221,
        "588": 83,
        "589": 113,
        "590": 182,
        "591": 12,
        "592": 182,
        "593": 0,
        "594": 103,
        "595": 130,
        "596": 243,
        "597": 39,
        "598": 187,
        "599": 28,
        "600": 215,
        "601": 228,
        "602": 17,
        "603": 148,
        "604": 77,
        "605": 118,
        "606": 189,
        "607": 129,
        "608": 17,
        "609": 103,
        "610": 91,
        "611": 54,
        "612": 79,
        "613": 54,
        "614": 12,
        "615": 189,
        "616": 12,
        "617": 151,
        "618": 178,
        "619": 149,
        "620": 46,
        "621": 72,
        "622": 210,
        "623": 201,
        "624": 208,
        "625": 18,
        "626": 193,
        "627": 114,
        "628": 40,
        "629": 64,
        "630": 18,
        "631": 218,
        "632": 233,
        "633": 130,
        "634": 66,
        "635": 213,
        "636": 173,
        "637": 201,
        "638": 82,
        "639": 145,
        "640": 253,
        "641": 54,
        "642": 230,
        "643": 35,
        "644": 40,
        "645": 83,
        "646": 190,
        "647": 121,
        "648": 43,
        "649": 117,
        "650": 102,
        "651": 131,
        "652": 136,
        "653": 40,
        "654": 10,
        "655": 32,
        "656": 91,
        "657": 236,
        "658": 169,
        "659": 129,
        "660": 62,
        "661": 236,
        "662": 208,
        "663": 103,
        "664": 170,
        "665": 51,
        "666": 142,
        "667": 88,
        "668": 174,
        "669": 28,
        "670": 34,
        "671": 208,
        "672": 177,
        "673": 151,
        "674": 226,
        "675": 45,
        "676": 229,
        "677": 31,
        "678": 152,
        "679": 91,
        "680": 28,
        "681": 193,
        "682": 156,
        "683": 203,
        "684": 12,
        "685": 208,
        "686": 99,
        "687": 0,
        "688": 222,
        "689": 44,
        "690": 98,
        "691": 156,
        "692": 79,
        "693": 48,
        "694": 214,
        "695": 23,
        "696": 139,
        "697": 20,
        "698": 242,
        "699": 86,
        "700": 73,
        "701": 82,
        "702": 252,
        "703": 213,
        "704": 136,
        "705": 14,
        "706": 253,
        "707": 115,
        "708": 2,
        "709": 106,
        "710": 241,
        "711": 125,
        "712": 244,
        "713": 58,
        "714": 74,
        "715": 155,
        "716": 51,
        "717": 203,
        "718": 35,
        "719": 121,
        "720": 35,
        "721": 90,
        "722": 4,
        "723": 163,
        "724": 171,
        "725": 218,
        "726": 71,
        "727": 54,
        "728": 244,
        "729": 60,
        "730": 19,
        "731": 224,
        "732": 171,
        "733": 185,
        "734": 145,
        "735": 203,
        "736": 151,
        "737": 56,
        "738": 196,
        "739": 174,
        "740": 56,
        "741": 71,
        "742": 224,
        "743": 201,
        "744": 131,
        "745": 113,
        "746": 117,
        "747": 127,
        "748": 120,
        "749": 40,
        "750": 133,
        "751": 44,
        "752": 64,
        "753": 32,
        "754": 140,
        "755": 233,
        "756": 246,
        "757": 139,
        "758": 124,
        "759": 187,
        "760": 92,
        "761": 83,
        "762": 72,
        "763": 158,
        "764": 14,
        "765": 88,
        "766": 171,
        "767": 247,
        "768": 192,
        "769": 93,
        "770": 139,
        "771": 174,
        "772": 79,
        "773": 109,
        "774": 68,
        "775": 137,
        "776": 174,
        "777": 177,
        "778": 72,
        "779": 139,
        "780": 29,
        "781": 220,
        "782": 120,
        "783": 49,
        "784": 5,
        "785": 62,
        "786": 221,
        "787": 78,
        "788": 129,
        "789": 108,
        "790": 182,
        "791": 154,
        "792": 105,
        "793": 248,
        "794": 194,
        "795": 220,
        "796": 184,
        "797": 1,
        "798": 218,
        "799": 140,
        "800": 212,
        "801": 210,
        "802": 164,
        "803": 157,
        "804": 23,
        "805": 192,
        "806": 147,
        "807": 234,
        "808": 233,
        "809": 38,
        "810": 23,
        "811": 210,
        "812": 42,
        "813": 8,
        "814": 67,
        "815": 111,
        "816": 5,
        "817": 202,
        "818": 123,
        "819": 235,
        "820": 210,
        "821": 83,
        "822": 169,
        "823": 253,
        "824": 137,
        "825": 220,
        "826": 238,
        "827": 85,
        "828": 77,
        "829": 42,
        "830": 148,
        "831": 234,
        "832": 210,
        "833": 138,
        "834": 153,
        "835": 222,
        "836": 144,
        "837": 57,
        "838": 173,
        "839": 193,
        "840": 226,
        "841": 156,
        "842": 243,
        "843": 231,
        "844": 66,
        "845": 30,
        "846": 251,
        "847": 134,
        "848": 62,
        "849": 162,
        "850": 14,
        "851": 92,
        "852": 136,
        "853": 242,
        "854": 228,
        "855": 9,
        "856": 206,
        "857": 138,
        "858": 71,
        "859": 102,
        "860": 64,
        "861": 15,
        "862": 10,
        "863": 157,
        "864": 87,
        "865": 253,
        "866": 168,
        "867": 254,
        "868": 228,
        "869": 44,
        "870": 33,
        "871": 61,
        "872": 219,
        "873": 17,
        "874": 123,
        "875": 2,
        "876": 135,
        "877": 138,
        "878": 70,
        "879": 247,
        "880": 164,
        "881": 146,
        "882": 65,
        "883": 139,
        "884": 83,
        "885": 216,
        "886": 55,
        "887": 89,
        "888": 53,
        "889": 244,
        "890": 24,
        "891": 198,
        "892": 219,
        "893": 94,
        "894": 15,
        "895": 49,
        "896": 63,
        "897": 129,
        "898": 59,
        "899": 12,
        "900": 235,
        "901": 64,
        "902": 175,
        "903": 233,
        "904": 237,
        "905": 182,
        "906": 77,
        "907": 216,
        "908": 47,
        "909": 227,
        "910": 238,
        "911": 234,
        "912": 114,
        "913": 86,
        "914": 112,
        "915": 225,
        "916": 80,
        "917": 237,
        "918": 20,
        "919": 223,
        "920": 172,
        "921": 93,
        "922": 166,
        "923": 41,
        "924": 125,
        "925": 65,
        "926": 145,
        "927": 174,
        "928": 157,
        "929": 168,
        "930": 122,
        "931": 15,
        "932": 232,
        "933": 18,
        "934": 53,
        "935": 133,
        "936": 243,
        "937": 63,
        "938": 223,
        "939": 226,
        "940": 136,
        "941": 150,
        "942": 19,
        "943": 28,
        "944": 61,
        "945": 108,
        "946": 99,
        "947": 56,
        "948": 131,
        "949": 181,
        "950": 98,
        "951": 153,
        "952": 232,
        "953": 97,
        "954": 119,
        "955": 113,
        "956": 192,
        "957": 86,
        "958": 181,
        "959": 47,
        "960": 209,
        "961": 29,
        "962": 142,
        "963": 63,
        "964": 17,
        "965": 79,
        "966": 92,
        "967": 255,
        "968": 129,
        "969": 126,
        "970": 136,
        "971": 159,
        "972": 172,
        "973": 66,
        "974": 227,
        "975": 133,
        "976": 134,
        "977": 235,
        "978": 154,
        "979": 133,
        "980": 209,
        "981": 105,
        "982": 7,
        "983": 179,
        "984": 95,
        "985": 53,
        "986": 154,
        "987": 167,
        "988": 40,
        "989": 143,
        "990": 186,
        "991": 14,
        "992": 2,
        "993": 191,
        "994": 135,
        "995": 31,
        "996": 156,
        "997": 107,
        "998": 152,
        "999": 80,
        "1000": 12,
        "1001": 247,
        "1002": 129,
        "1003": 158,
        "1004": 205,
        "1005": 236,
        "1006": 238,
        "1007": 133,
        "1008": 26,
        "1009": 193,
        "1010": 24,
        "1011": 167,
        "1012": 59,
        "1013": 221,
        "1014": 17,
        "1015": 234,
        "1016": 99,
        "1017": 52,
        "1018": 92,
        "1019": 212,
        "1020": 181,
        "1021": 181,
        "1022": 116,
        "1023": 7,
        "1024": 163,
        "1025": 15,
        "1026": 46,
        "1027": 15,
        "1028": 184,
        "1029": 198,
        "1030": 81,
        "1031": 245,
        "1032": 4,
        "1033": 214,
        "1034": 201,
        "1035": 101,
        "1036": 81,
        "1037": 110,
        "1038": 223,
        "1039": 78,
        "1040": 72,
        "1041": 64,
        "1042": 172,
        "1043": 58,
        "1044": 45,
        "1045": 69,
        "1046": 184,
        "1047": 147,
        "1048": 228,
        "1049": 173,
        "1050": 123,
        "1051": 32,
        "1052": 106,
        "1053": 103,
        "1054": 94,
        "1055": 69,
        "1056": 232,
        "1057": 234,
        "1058": 247,
        "1059": 133,
        "1060": 99,
        "1061": 181,
        "1062": 130,
        "1063": 114,
        "1064": 199,
        "1065": 156,
        "1066": 24,
        "1067": 134,
        "1068": 205,
        "1069": 204,
        "1070": 177,
        "1071": 168,
        "1072": 72,
        "1073": 69,
        "1074": 133,
        "1075": 131,
        "1076": 67,
        "1077": 129,
        "1078": 174,
        "1079": 186,
        "1080": 113,
        "1081": 118,
        "1082": 229,
        "1083": 27,
        "1084": 58,
        "1085": 33,
        "1086": 229,
        "1087": 193,
        "1088": 220,
        "1089": 212,
        "1090": 43,
        "1091": 228,
        "1092": 16,
        "1093": 129,
        "1094": 75,
        "1095": 160,
        "1096": 84,
        "1097": 206,
        "1098": 124,
        "1099": 114,
        "1100": 235,
        "1101": 70,
        "1102": 231,
        "1103": 237,
        "1104": 122,
        "1105": 68,
        "1106": 87,
        "1107": 96,
        "1108": 244,
        "1109": 37,
        "1110": 8,
        "1111": 244,
        "1112": 215,
        "1113": 23,
        "1114": 145,
        "1115": 195,
        "1116": 176,
        "1117": 103,
        "1118": 35,
        "1119": 177,
        "1120": 93,
        "1121": 167,
        "1122": 223,
        "1123": 88,
        "1124": 40,
        "1125": 11,
        "1126": 29,
        "1127": 20,
        "1128": 72,
        "1129": 151,
        "1130": 54,
        "1131": 76,
        "1132": 26,
        "1133": 113,
        "1134": 213,
        "1135": 97,
        "1136": 248,
        "1137": 25,
        "1138": 220,
        "1139": 37,
        "1140": 188,
        "1141": 130,
        "1142": 125,
        "1143": 64,
        "1144": 206,
        "1145": 241,
        "1146": 197,
        "1147": 109,
        "1148": 30,
        "1149": 73,
        "1150": 140,
        "1151": 243,
        "1152": 216,
        "1153": 121,
        "1154": 75,
        "1155": 247,
        "1156": 14,
        "1157": 226,
        "1158": 144,
        "1159": 36,
        "1160": 115,
        "1161": 203,
        "1162": 65,
        "1163": 146,
        "1164": 20,
        "1165": 80,
        "1166": 243,
        "1167": 77,
        "1168": 39,
        "1169": 161,
        "1170": 244,
        "1171": 85,
        "1172": 250,
        "1173": 238,
        "1174": 20,
        "1175": 155,
        "1176": 5,
        "1177": 50,
        "1178": 156,
        "1179": 188,
        "1180": 19,
        "1181": 10,
        "1182": 99,
        "1183": 235,
        "1184": 124,
        "1185": 191,
        "1186": 240,
        "1187": 39,
        "1188": 182,
        "1189": 239,
        "1190": 119,
        "1191": 223,
        "1192": 58,
        "1193": 190,
        "1194": 46,
        "1195": 53,
        "1196": 39,
        "1197": 221,
        "1198": 109,
        "1199": 245,
        "1200": 91,
        "1201": 85,
        "1202": 71,
        "1203": 191,
        "1204": 72,
        "1205": 241,
        "1206": 211,
        "1207": 21,
        "1208": 52,
        "1209": 136,
        "1210": 36,
        "1211": 112,
        "1212": 147,
        "1213": 192,
        "1214": 112,
        "1215": 66,
        "1216": 246,
        "1217": 241,
        "1218": 84,
        "1219": 213,
        "1220": 20,
        "1221": 54,
        "1222": 82,
        "1223": 217,
        "1224": 61,
        "1225": 218,
        "1226": 90,
        "1227": 69,
        "1228": 48,
        "1229": 230,
        "1230": 203,
        "1231": 100,
        "1232": 90,
        "1233": 183,
        "1234": 144,
        "1235": 153,
        "1236": 40,
        "1237": 102,
        "1238": 48,
        "1239": 128,
        "1240": 208,
        "1241": 186,
        "1242": 177,
        "1243": 78,
        "1244": 90,
        "1245": 161,
        "1246": 92,
        "1247": 224,
        "1248": 38,
        "1249": 200,
        "1250": 230,
        "1251": 215,
        "1252": 100,
        "1253": 39,
        "1254": 229,
        "1255": 205,
        "1256": 109,
        "1257": 160,
        "1258": 169,
        "1259": 105,
        "1260": 214,
        "1261": 174,
        "1262": 162,
        "1263": 53,
        "1264": 30,
        "1265": 59,
        "1266": 18,
        "1267": 236,
        "1268": 75,
        "1269": 123,
        "1270": 39,
        "1271": 254,
        "1272": 165,
        "1273": 129,
        "1274": 22,
        "1275": 154,
        "1276": 165,
        "1277": 199,
        "1278": 146,
        "1279": 114,
        "1280": 4,
        "1281": 147,
        "1282": 170,
        "1283": 123,
        "1284": 132,
        "1285": 162,
        "1286": 221,
        "1287": 85,
        "1288": 105,
        "1289": 7,
        "1290": 154,
        "1291": 144,
        "1292": 20,
        "1293": 189,
        "1294": 66,
        "1295": 214,
        "1296": 246,
        "1297": 140,
        "1298": 24,
        "1299": 37,
        "1300": 163,
        "1301": 172,
        "1302": 213,
        "1303": 226,
        "1304": 77,
        "1305": 124,
        "1306": 80,
        "1307": 204,
        "1308": 98,
        "1309": 23,
        "1310": 143,
        "1311": 195,
        "1312": 161,
        "1313": 149,
        "1314": 207,
        "1315": 254,
        "1316": 26,
        "1317": 239,
        "1318": 30,
        "1319": 231,
        "1320": 41,
        "1321": 147,
        "1322": 111,
        "1323": 158,
        "1324": 33,
        "1325": 252,
        "1326": 116,
        "1327": 65,
        "1328": 17,
        "1329": 249,
        "1330": 216,
        "1331": 130,
        "1332": 193,
        "1333": 173,
        "1334": 107,
        "1335": 81,
        "1336": 62,
        "1337": 244,
        "1338": 232,
        "1339": 218,
        "1340": 5,
        "1341": 249,
        "1342": 140,
        "1343": 161,
        "1344": 44,
        "1345": 250,
        "1346": 225,
        "1347": 215,
        "1348": 199,
        "1349": 227,
        "1350": 191,
        "1351": 61,
        "1352": 104,
        "1353": 53,
        "1354": 25,
        "1355": 85,
        "1356": 83,
        "1357": 239,
        "1358": 64,
        "1359": 187,
        "1360": 137,
        "1361": 46,
        "1362": 102,
        "1363": 17,
        "1364": 36,
        "1365": 222,
        "1366": 226,
        "1367": 132,
        "1368": 31,
        "1369": 225,
        "1370": 28,
        "1371": 104,
        "1372": 190,
        "1373": 178,
        "1374": 3,
        "1375": 16,
        "1376": 240,
        "1377": 179,
        "1378": 121,
        "1379": 43,
        "1380": 101,
        "1381": 12,
        "1382": 10,
        "1383": 205,
        "1384": 196,
        "1385": 15,
        "1386": 189,
        "1387": 102,
        "1388": 229,
        "1389": 158,
        "1390": 61,
        "1391": 12,
        "1392": 152,
        "1393": 168,
        "1394": 70,
        "1395": 5,
        "1396": 216,
        "1397": 231,
        "1398": 85,
        "1399": 66,
        "1400": 240,
        "1401": 3,
        "1402": 194,
        "1403": 73,
        "1404": 209,
        "1405": 61,
        "1406": 150,
        "1407": 219,
        "1408": 83,
        "1409": 54,
        "1410": 117,
        "1411": 213,
        "1412": 9,
        "1413": 3,
        "1414": 91,
        "1415": 54,
        "1416": 62,
        "1417": 46,
        "1418": 2,
        "1419": 54,
        "1420": 149,
        "1421": 202,
        "1422": 103,
        "1423": 225,
        "1424": 77,
        "1425": 36,
        "1426": 125,
        "1427": 242,
        "1428": 47,
        "1429": 47,
        "1430": 157,
        "1431": 90,
        "1432": 41,
        "1433": 18,
        "1434": 2,
        "1435": 143,
        "1436": 92,
        "1437": 43,
        "1438": 166,
        "1439": 217,
        "1440": 106,
        "1441": 80,
        "1442": 24,
        "1443": 12,
        "1444": 250,
        "1445": 251,
        "1446": 199,
        "1447": 173,
        "1448": 6,
        "1449": 4,
        "1450": 170,
        "1451": 59,
        "1452": 8,
        "1453": 208,
        "1454": 255,
        "1455": 218,
        "1456": 60,
        "1457": 115,
        "1458": 15,
        "1459": 211,
        "1460": 176,
        "1461": 188,
        "1462": 132,
        "1463": 195,
        "1464": 171,
        "1465": 113,
        "1466": 88,
        "1467": 72,
        "1468": 197,
        "1469": 101,
        "1470": 222,
        "1471": 92,
        "1472": 102,
        "1473": 167,
        "1474": 86,
        "1475": 62,
        "1476": 17,
        "1477": 68,
        "1478": 128,
        "1479": 36,
        "1480": 135,
        "1481": 143,
        "1482": 124,
        "1483": 215,
        "1484": 7,
        "1485": 25,
        "1486": 204,
        "1487": 38,
        "1488": 92,
        "1489": 208,
        "1490": 221,
        "1491": 168,
        "1492": 4,
        "1493": 37,
        "1494": 215,
        "1495": 141,
        "1496": 153,
        "1497": 126,
        "1498": 99,
        "1499": 88,
        "1500": 179,
        "1501": 217,
        "1502": 200,
        "1503": 20,
        "1504": 49,
        "1505": 92,
        "1506": 249,
        "1507": 74,
        "1508": 12,
        "1509": 119,
        "1510": 138,
        "1511": 197,
        "1512": 128,
        "1513": 197,
        "1514": 143,
        "1515": 185,
        "1516": 156,
        "1517": 105,
        "1518": 228,
        "1519": 170,
        "1520": 175,
        "1521": 15,
        "1522": 67,
        "1523": 113,
        "1524": 42,
        "1525": 77,
        "1526": 186,
        "1527": 119,
        "1528": 21,
        "1529": 87,
        "1530": 87,
        "1531": 63,
        "1532": 83,
        "1533": 5,
        "1534": 37,
        "1535": 12,
        "1536": 233,
        "1537": 119,
        "1538": 30,
        "1539": 167,
        "1540": 17,
        "1541": 83,
        "1542": 78,
        "1543": 231,
        "1544": 65,
        "1545": 16,
        "1546": 101,
        "1547": 107,
        "1548": 73,
        "1549": 162,
        "1550": 167,
        "1551": 29,
        "1552": 41,
        "1553": 246,
        "1554": 92,
        "1555": 126,
        "1556": 204,
        "1557": 149,
        "1558": 96,
        "1559": 159,
        "1560": 100,
        "1561": 184,
        "1562": 185,
        "1563": 223,
        "1564": 166,
        "1565": 251,
        "1566": 189,
        "1567": 236,
        "1568": 236,
        "1569": 152,
        "1570": 98,
        "1571": 76,
        "1572": 167,
        "1573": 30,
        "1574": 239,
        "1575": 226,
        "1576": 211,
        "1577": 143,
        "1578": 247,
        "1579": 238,
        "1580": 139,
        "1581": 250,
        "1582": 90,
        "1583": 50,
        "1584": 38,
        "1585": 132,
        "1586": 30,
        "1587": 52,
        "1588": 49,
        "1589": 23,
        "1590": 31,
        "1591": 57,
        "1592": 25,
        "1593": 186,
        "1594": 200,
        "1595": 107,
        "1596": 158,
        "1597": 77,
        "1598": 32,
        "1599": 121,
        "1600": 127,
        "1601": 144,
        "1602": 157,
        "1603": 102,
        "1604": 100,
        "1605": 20,
        "1606": 176,
        "1607": 139,
        "1608": 131,
        "1609": 244,
        "1610": 252,
        "1611": 8,
        "1612": 5,
        "1613": 147,
        "1614": 199,
        "1615": 127,
        "1616": 64,
        "1617": 250,
        "1618": 91,
        "1619": 155,
        "1620": 171,
        "1621": 76,
        "1622": 73,
        "1623": 22,
        "1624": 109,
        "1625": 49,
        "1626": 128,
        "1627": 132,
        "1628": 150,
        "1629": 233,
        "1630": 58,
        "1631": 15,
        "1632": 57,
        "1633": 73,
        "1634": 235,
        "1635": 42,
        "1636": 181,
        "1637": 25,
        "1638": 108,
        "1639": 169,
        "1640": 218,
        "1641": 120,
        "1642": 88,
        "1643": 145,
        "1644": 116,
        "1645": 70,
        "1646": 40,
        "1647": 109,
        "1648": 20,
        "1649": 37,
        "1650": 56,
        "1651": 183,
        "1652": 27,
        "1653": 227,
        "1654": 249,
        "1655": 177,
        "1656": 180,
        "1657": 174,
        "1658": 247,
        "1659": 49,
        "1660": 211,
        "1661": 67,
        "1662": 153,
        "1663": 197,
        "1664": 77,
        "1665": 8,
        "1666": 144,
        "1667": 241,
        "1668": 112,
        "1669": 70,
        "1670": 13,
        "1671": 168,
        "1672": 144,
        "1673": 162,
        "1674": 82,
        "1675": 11,
        "1676": 222,
        "1677": 59,
        "1678": 228,
        "1679": 73,
        "1680": 64,
        "1681": 168,
        "1682": 224,
        "1683": 230,
        "1684": 167,
        "1685": 203,
        "1686": 78,
        "1687": 125,
        "1688": 108,
        "1689": 77,
        "1690": 181,
        "1691": 225,
        "1692": 101,
        "1693": 121,
        "1694": 68,
        "1695": 121,
        "1696": 40,
        "1697": 91,
        "1698": 76,
        "1699": 3,
        "1700": 237,
        "1701": 59,
        "1702": 177,
        "1703": 168,
        "1704": 214,
        "1705": 16,
        "1706": 196,
        "1707": 103,
        "1708": 108,
        "1709": 48,
        "1710": 175,
        "1711": 207,
        "1712": 96,
        "1713": 181,
        "1714": 187,
        "1715": 38,
        "1716": 36,
        "1717": 28,
        "1718": 188,
        "1719": 58,
        "1720": 210,
        "1721": 93,
        "1722": 63,
        "1723": 124,
        "1724": 65,
        "1725": 173,
        "1726": 51,
        "1727": 214,
        "1728": 194,
        "1729": 64,
        "1730": 53,
        "1731": 150,
        "1732": 245,
        "1733": 58,
        "1734": 96,
        "1735": 167,
        "1736": 49,
        "1737": 54,
        "1738": 95,
        "1739": 243,
        "1740": 250,
        "1741": 41,
        "1742": 9,
        "1743": 77,
        "1744": 248,
        "1745": 150,
        "1746": 232,
        "1747": 10,
        "1748": 244,
        "1749": 157,
        "1750": 172,
        "1751": 135,
        "1752": 134,
        "1753": 104,
        "1754": 112,
        "1755": 44,
        "1756": 235,
        "1757": 229,
        "1758": 33,
        "1759": 32,
        "1760": 215,
        "1761": 207,
        "1762": 78,
        "1763": 146,
        "1764": 81,
        "1765": 238,
        "1766": 158,
        "1767": 211,
        "1768": 6,
        "1769": 38,
        "1770": 8,
        "1771": 67,
        "1772": 26,
        "1773": 67,
        "1774": 203,
        "1775": 204,
        "1776": 56,
        "1777": 88,
        "1778": 210,
        "1779": 173,
        "1780": 224,
        "1781": 89,
        "1782": 183,
        "1783": 220,
        "1784": 198,
        "1785": 191,
        "1786": 58,
        "1787": 153,
        "1788": 40,
        "1789": 131,
        "1790": 67,
        "1791": 206,
        "1792": 189,
        "1793": 7,
        "1794": 141,
        "1795": 5,
        "1796": 89,
        "1797": 20,
        "1798": 68,
        "1799": 103,
        "1800": 206,
        "1801": 107,
        "1802": 80,
        "1803": 137,
        "1804": 220,
        "1805": 69,
        "1806": 86,
        "1807": 116,
        "1808": 68,
        "1809": 136,
        "1810": 96,
        "1811": 105,
        "1812": 247,
        "1813": 13,
        "1814": 35,
        "1815": 169,
        "1816": 69,
        "1817": 212,
        "1818": 41,
        "1819": 199,
        "1820": 75,
        "1821": 224,
        "1822": 201,
        "1823": 41,
        "1824": 206,
        "1825": 109,
        "1826": 227,
        "1827": 79,
        "1828": 172,
        "1829": 205,
        "1830": 85,
        "1831": 232,
        "1832": 72,
        "1833": 80,
        "1834": 248,
        "1835": 103,
        "1836": 187,
        "1837": 79,
        "1838": 40,
        "1839": 211,
        "1840": 53,
        "1841": 191,
        "1842": 139,
        "1843": 212,
        "1844": 112,
        "1845": 33,
        "1846": 218,
        "1847": 174,
        "1848": 240,
        "1849": 193,
        "1850": 87,
        "1851": 128,
        "1852": 50,
        "1853": 196,
        "1854": 137,
        "1855": 168,
        "1856": 149,
        "1857": 106,
        "1858": 241,
        "1859": 203,
        "1860": 62,
        "1861": 129,
        "1862": 93,
        "1863": 203,
        "1864": 205,
        "1865": 79,
        "1866": 189,
        "1867": 168,
        "1868": 140,
        "1869": 255,
        "1870": 101,
        "1871": 20,
        "1872": 185,
        "1873": 143,
        "1874": 207,
        "1875": 38,
        "1876": 145,
        "1877": 15,
        "1878": 25,
        "1879": 161,
        "1880": 236,
        "1881": 130,
        "1882": 12,
        "1883": 207,
        "1884": 20,
        "1885": 217,
        "1886": 125,
        "1887": 160,
        "1888": 68,
        "1889": 130,
        "1890": 7,
        "1891": 40,
        "1892": 18,
        "1893": 118,
        "1894": 166,
        "1895": 217,
        "1896": 144,
        "1897": 213,
        "1898": 209,
        "1899": 24,
        "1900": 24,
        "1901": 137,
        "1902": 173,
        "1903": 152,
        "1904": 65,
        "1905": 29,
        "1906": 105,
        "1907": 67,
        "1908": 140,
        "1909": 211,
        "1910": 133,
        "1911": 106,
        "1912": 78,
        "1913": 235,
        "1914": 106,
        "1915": 145,
        "1916": 167,
        "1917": 27,
        "1918": 172,
        "1919": 16,
        "1920": 14,
        "1921": 89,
        "1922": 208,
        "1923": 215,
        "1924": 37,
        "1925": 190,
        "1926": 18,
        "1927": 170,
        "1928": 124,
        "1929": 87,
        "1930": 233,
        "1931": 222,
        "1932": 138,
        "1933": 107,
        "1934": 195,
        "1935": 137,
        "1936": 38,
        "1937": 140,
        "1938": 97,
        "1939": 65,
        "1940": 125,
        "1941": 13,
        "1942": 98,
        "1943": 104,
        "1944": 34,
        "1945": 193,
        "1946": 7,
        "1947": 58,
        "1948": 47,
        "1949": 29,
        "1950": 16,
        "1951": 149,
        "1952": 130,
        "1953": 139,
        "1954": 82,
        "1955": 230,
        "1956": 116,
        "1957": 245,
        "1958": 76,
        "1959": 99,
        "1960": 39,
        "1961": 187,
        "1962": 169,
        "1963": 125,
        "1964": 4,
        "1965": 47,
        "1966": 2,
        "1967": 205,
        "1968": 93,
        "1969": 16,
        "1970": 96,
        "1971": 102,
        "1972": 87,
        "1973": 73,
        "1974": 87,
        "1975": 206,
        "1976": 89,
        "1977": 18,
        "1978": 245,
        "1979": 249,
        "1980": 37,
        "1981": 81,
        "1982": 98,
        "1983": 203,
        "1984": 156,
        "1985": 201,
        "1986": 235,
        "1987": 134,
        "1988": 181,
        "1989": 221,
        "1990": 221,
        "1991": 207,
        "1992": 49,
        "1993": 159,
        "1994": 255,
        "1995": 225,
        "1996": 134,
        "1997": 87,
        "1998": 210,
        "1999": 185,
        "2000": 202,
        "2001": 118,
        "2002": 93,
        "2003": 145,
        "2004": 116,
        "2005": 192,
        "2006": 159,
        "2007": 232,
        "2008": 28,
        "2009": 171,
        "2010": 26,
        "2011": 242,
        "2012": 75,
        "2013": 210,
        "2014": 200,
        "2015": 108,
        "2016": 251,
        "2017": 29,
        "2018": 61,
        "2019": 52,
        "2020": 230,
        "2021": 24,
        "2022": 119,
        "2023": 199,
        "2024": 16,
        "2025": 80,
        "2026": 30,
        "2027": 71,
        "2028": 218,
        "2029": 30,
        "2030": 227,
        "2031": 187,
        "2032": 170,
        "2033": 178,
        "2034": 166,
        "2035": 43,
        "2036": 160,
        "2037": 166,
        "2038": 132,
        "2039": 134,
        "2040": 243,
        "2041": 238,
        "2042": 157,
        "2043": 27,
        "2044": 3,
        "2045": 171,
        "2046": 87,
        "2047": 218,
        "2048": 105,
        "2049": 190,
        "2050": 173,
        "2051": 129,
        "2052": 245,
        "2053": 161,
        "2054": 214,
        "2055": 207,
        "2056": 113,
        "2057": 181,
        "2058": 136,
        "2059": 65,
        "2060": 119,
        "2061": 192,
        "2062": 218,
        "2063": 163,
        "2064": 255,
        "2065": 39,
        "2066": 240,
        "2067": 196,
        "2068": 33,
        "2069": 116,
        "2070": 125,
        "2071": 240,
        "2072": 24,
        "2073": 136,
        "2074": 171,
        "2075": 58,
        "2076": 242,
        "2077": 156,
        "2078": 121,
        "2079": 83,
        "2080": 134,
        "2081": 205,
        "2082": 107,
        "2083": 248,
        "2084": 83,
        "2085": 109,
        "2086": 231,
        "2087": 10,
        "2088": 226,
        "2089": 171,
        "2090": 165,
        "2091": 2,
        "2092": 224,
        "2093": 181,
        "2094": 221,
        "2095": 105,
        "2096": 159,
        "2097": 58,
        "2098": 85,
        "2099": 80,
        "2100": 13,
        "2101": 11,
        "2102": 137,
        "2103": 227,
        "2104": 197,
        "2105": 169,
        "2106": 201,
        "2107": 227,
        "2108": 168,
        "2109": 41,
        "2110": 153,
        "2111": 116,
        "2112": 119,
        "2113": 192,
        "2114": 193,
        "2115": 184,
        "2116": 153,
        "2117": 214,
        "2118": 44,
        "2119": 13,
        "2120": 127,
        "2121": 203,
        "2122": 172,
        "2123": 45,
        "2124": 71,
        "2125": 154,
        "2126": 135,
        "2127": 133,
        "2128": 136,
        "2129": 16,
        "2130": 169,
        "2131": 52,
        "2132": 85,
        "2133": 188,
        "2134": 144,
        "2135": 169,
        "2136": 247,
        "2137": 78,
        "2138": 76,
        "2139": 84,
        "2140": 89,
        "2141": 82,
        "2142": 104,
        "2143": 66,
        "2144": 255,
        "2145": 250,
        "2146": 155,
        "2147": 207,
        "2148": 243,
        "2149": 204,
        "2150": 62,
        "2151": 182,
        "2152": 53,
        "2153": 112,
        "2154": 173,
        "2155": 21,
        "2156": 160,
        "2157": 86,
        "2158": 20,
        "2159": 10,
        "2160": 109,
        "2161": 232,
        "2162": 229,
        "2163": 8,
        "2164": 152,
        "2165": 76,
        "2166": 18,
        "2167": 185,
        "2168": 70,
        "2169": 136,
        "2170": 45,
        "2171": 8,
        "2172": 228,
        "2173": 180,
        "2174": 222,
        "2175": 69,
        "2176": 156,
        "2177": 170,
        "2178": 4,
        "2179": 206,
        "2180": 218,
        "2181": 151,
        "2182": 193,
        "2183": 219,
        "2184": 240,
        "2185": 186,
        "2186": 88,
        "2187": 7,
        "2188": 53,
        "2189": 45,
        "2190": 252,
        "2191": 50,
        "2192": 254,
        "2193": 237,
        "2194": 179,
        "2195": 40,
        "2196": 53,
        "2197": 93,
        "2198": 52,
        "2199": 141,
        "2200": 235,
        "2201": 201,
        "2202": 76,
        "2203": 84,
        "2204": 171,
        "2205": 112,
        "2206": 238,
        "2207": 123,
        "2208": 35,
        "2209": 29,
        "2210": 216,
        "2211": 188,
        "2212": 118,
        "2213": 137,
        "2214": 51,
        "2215": 192,
        "2216": 181,
        "2217": 81,
        "2218": 22,
        "2219": 18,
        "2220": 105,
        "2221": 129,
        "2222": 235,
        "2223": 108,
        "2224": 248,
        "2225": 206,
        "2226": 122,
        "2227": 52,
        "2228": 78,
        "2229": 211,
        "2230": 102,
        "2231": 160,
        "2232": 151,
        "2233": 143,
        "2234": 205,
        "2235": 126,
        "2236": 71,
        "2237": 19,
        "2238": 80,
        "2239": 11,
        "2240": 149,
        "2241": 6,
        "2242": 56,
        "2243": 35,
        "2244": 21,
        "2245": 213,
        "2246": 181,
        "2247": 96,
        "2248": 237,
        "2249": 152,
        "2250": 103,
        "2251": 7,
        "2252": 52,
        "2253": 194,
        "2254": 119,
        "2255": 13,
        "2256": 128,
        "2257": 117,
        "2258": 117,
        "2259": 255,
        "2260": 96,
        "2261": 195,
        "2262": 141,
        "2263": 32,
        "2264": 82,
        "2265": 150,
        "2266": 15,
        "2267": 190,
        "2268": 200,
        "2269": 239,
        "2270": 186,
        "2271": 51,
        "2272": 68,
        "2273": 177,
        "2274": 222,
        "2275": 29,
        "2276": 114,
        "2277": 115,
        "2278": 229,
        "2279": 238,
        "2280": 91,
        "2281": 29,
        "2282": 174,
        "2283": 192,
        "2284": 208,
        "2285": 155,
        "2286": 247,
        "2287": 16,
        "2288": 204,
        "2289": 205,
        "2290": 9,
        "2291": 28,
        "2292": 160,
        "2293": 122,
        "2294": 150,
        "2295": 205,
        "2296": 154,
        "2297": 101,
        "2298": 231,
        "2299": 168,
        "2300": 25,
        "2301": 95,
        "2302": 133,
        "2303": 127,
        "2304": 184,
        "2305": 157,
        "2306": 108,
        "2307": 22,
        "2308": 103,
        "2309": 49,
        "2310": 65,
        "2311": 192,
        "2312": 127,
        "2313": 54,
        "2314": 36,
        "2315": 181,
        "2316": 93,
        "2317": 12,
        "2318": 237,
        "2319": 115,
        "2320": 125,
        "2321": 222,
        "2322": 141,
        "2323": 3,
        "2324": 172,
        "2325": 217,
        "2326": 13,
        "2327": 121,
        "2328": 202,
        "2329": 145,
        "2330": 61,
        "2331": 197,
        "2332": 225,
        "2333": 246,
        "2334": 246,
        "2335": 108,
        "2336": 70,
        "2337": 92,
        "2338": 203,
        "2339": 77,
        "2340": 89,
        "2341": 117,
        "2342": 6,
        "2343": 138,
        "2344": 87,
        "2345": 82,
        "2346": 25,
        "2347": 122,
        "2348": 192,
        "2349": 89,
        "2350": 183,
        "2351": 207,
        "2352": 34,
        "2353": 97,
        "2354": 10,
        "2355": 10,
        "2356": 87,
        "2357": 56,
        "2358": 114,
        "2359": 166,
        "2360": 109,
        "2361": 27,
        "2362": 218,
        "2363": 196,
        "2364": 174,
        "2365": 136,
        "2366": 12,
        "2367": 105,
        "2368": 81,
        "2369": 96,
        "2370": 30,
        "2371": 202,
        "2372": 133,
        "2373": 178,
        "2374": 0,
        "2375": 11,
        "2376": 201,
        "2377": 119,
        "2378": 78,
        "2379": 44,
        "2380": 92,
        "2381": 150,
        "2382": 157,
        "2383": 41,
        "2384": 191,
        "2385": 141,
        "2386": 25,
        "2387": 234,
        "2388": 24,
        "2389": 34,
        "2390": 234,
        "2391": 133,
        "2392": 174,
        "2393": 169,
        "2394": 131,
        "2395": 143,
        "2396": 126,
        "2397": 103,
        "2398": 48,
        "2399": 101,
        "2400": 126,
        "2401": 185,
        "2402": 162,
        "2403": 100,
        "2404": 149,
        "2405": 232,
        "2406": 171,
        "2407": 114,
        "2408": 184,
        "2409": 71,
        "2410": 1,
        "2411": 190,
        "2412": 26,
        "2413": 116,
        "2414": 127,
        "2415": 134,
        "2416": 55,
        "2417": 134,
        "2418": 218,
        "2419": 190,
        "2420": 45,
        "2421": 123,
        "2422": 204,
        "2423": 99,
        "2424": 32,
        "2425": 129,
        "2426": 8,
        "2427": 78,
        "2428": 249,
        "2429": 231,
        "2430": 210,
        "2431": 148,
        "2432": 122,
        "2433": 51,
        "2434": 133,
        "2435": 200,
        "2436": 123,
        "2437": 210,
        "2438": 52,
        "2439": 99,
        "2440": 161,
        "2441": 163,
        "2442": 142,
        "2443": 247,
        "2444": 198,
        "2445": 65,
        "2446": 186,
        "2447": 94,
        "2448": 119,
        "2449": 28,
        "2450": 95,
        "2451": 230,
        "2452": 35,
        "2453": 46,
        "2454": 248,
        "2455": 125,
        "2456": 230,
        "2457": 130,
        "2458": 14,
        "2459": 230,
        "2460": 12,
        "2461": 212,
        "2462": 247,
        "2463": 155,
        "2464": 168,
        "2465": 203,
        "2466": 39,
        "2467": 228,
        "2468": 47,
        "2469": 142,
        "2470": 177,
        "2471": 80,
        "2472": 160,
        "2473": 189,
        "2474": 157,
        "2475": 214,
        "2476": 158,
        "2477": 155,
        "2478": 198,
        "2479": 83,
        "2480": 53,
        "2481": 99,
        "2482": 39,
        "2483": 184,
        "2484": 92,
        "2485": 154,
        "2486": 68,
        "2487": 52,
        "2488": 118,
        "2489": 42,
        "2490": 159,
        "2491": 221,
        "2492": 74,
        "2493": 29,
        "2494": 145,
        "2495": 36,
        "2496": 203,
        "2497": 144,
        "2498": 44,
        "2499": 233,
        "2500": 104,
        "2501": 42,
        "2502": 130,
        "2503": 104,
        "2504": 0,
        "2505": 207,
        "2506": 226,
        "2507": 3,
        "2508": 72,
        "2509": 108,
        "2510": 99,
        "2511": 122,
        "2512": 120,
        "2513": 5,
        "2514": 251,
        "2515": 51,
        "2516": 188,
        "2517": 166,
        "2518": 29,
        "2519": 197,
        "2520": 54,
        "2521": 158,
        "2522": 193,
        "2523": 234,
        "2524": 9,
        "2525": 227,
        "2526": 215,
        "2527": 22,
        "2528": 22,
        "2529": 248,
        "2530": 98,
        "2531": 165,
        "2532": 192,
        "2533": 68,
        "2534": 153,
        "2535": 57,
        "2536": 198,
        "2537": 18,
        "2538": 14,
        "2539": 14,
        "2540": 110,
        "2541": 112,
        "2542": 107,
        "2543": 222,
        "2544": 27,
        "2545": 81,
        "2546": 159,
        "2547": 77,
        "2548": 237,
        "2549": 207,
        "2550": 205,
        "2551": 168,
        "2552": 118,
        "2553": 236,
        "2554": 35,
        "2555": 22,
        "2556": 2,
        "2557": 6,
        "2558": 21,
        "2559": 26,
        "2560": 92,
        "2561": 130,
        "2562": 41,
        "2563": 216,
        "2564": 47,
        "2565": 31,
        "2566": 160,
        "2567": 66,
        "2568": 130,
        "2569": 170,
        "2570": 223,
        "2571": 50,
        "2572": 94,
        "2573": 219,
        "2574": 191,
        "2575": 145,
        "2576": 5,
        "2577": 112,
        "2578": 226,
        "2579": 55,
        "2580": 51,
        "2581": 57,
        "2582": 224,
        "2583": 165,
        "2584": 111,
        "2585": 80,
        "2586": 91,
        "2587": 116,
        "2588": 184,
        "2589": 17,
        "2590": 46,
        "2591": 227,
        "2592": 244,
        "2593": 2,
        "2594": 148,
        "2595": 194,
        "2596": 110,
        "2597": 194,
        "2598": 41,
        "2599": 145,
        "2600": 52,
        "2601": 183,
        "2602": 167,
        "2603": 81,
        "2604": 2,
        "2605": 233,
        "2606": 208,
        "2607": 187,
        "2608": 220,
        "2609": 163,
        "2610": 32,
        "2611": 144,
        "2612": 74,
        "2613": 245,
        "2614": 6,
        "2615": 212,
        "2616": 208,
        "2617": 53,
        "2618": 16,
        "2619": 17,
        "2620": 176,
        "2621": 126,
        "2622": 95,
        "2623": 159,
        "2624": 13,
        "2625": 254,
        "2626": 201,
        "2627": 246,
        "2628": 169,
        "2629": 36,
        "2630": 75,
        "2631": 118,
        "2632": 123,
        "2633": 92,
        "2634": 210,
        "2635": 115,
        "2636": 40,
        "2637": 184,
        "2638": 131,
        "2639": 49,
        "2640": 17,
        "2641": 222,
        "2642": 109,
        "2643": 150,
        "2644": 13,
        "2645": 187,
        "2646": 177,
        "2647": 99,
        "2648": 60,
        "2649": 41,
        "2650": 122,
        "2651": 29,
        "2652": 46,
        "2653": 7,
        "2654": 235,
        "2655": 95,
        "2656": 255,
        "2657": 248,
        "2658": 8,
        "2659": 225,
        "2660": 245,
        "2661": 6,
        "2662": 179,
        "2663": 199,
        "2664": 227,
        "2665": 188,
        "2666": 62,
        "2667": 4,
        "2668": 244,
        "2669": 119,
        "2670": 162,
        "2671": 66,
        "2672": 104,
        "2673": 16,
        "2674": 142,
        "2675": 93,
        "2676": 15,
        "2677": 25,
        "2678": 180,
        "2679": 145,
        "2680": 177,
        "2681": 139,
        "2682": 21,
        "2683": 235,
        "2684": 4,
        "2685": 206,
        "2686": 110,
        "2687": 226,
        "2688": 97,
        "2689": 89,
        "2690": 125,
        "2691": 208,
        "2692": 203,
        "2693": 165,
        "2694": 38,
        "2695": 99,
        "2696": 119,
        "2697": 29,
        "2698": 166,
        "2699": 12,
        "2700": 178,
        "2701": 173,
        "2702": 58,
        "2703": 154,
        "2704": 20,
        "2705": 155,
        "2706": 141,
        "2707": 160,
        "2708": 228,
        "2709": 103,
        "2710": 177,
        "2711": 151,
        "2712": 15,
        "2713": 50,
        "2714": 90,
        "2715": 110,
        "2716": 154,
        "2717": 161,
        "2718": 210,
        "2719": 206,
        "2720": 82,
        "2721": 106,
        "2722": 123,
        "2723": 245,
        "2724": 232,
        "2725": 63,
        "2726": 165,
        "2727": 123,
        "2728": 36,
        "2729": 32,
        "2730": 92,
        "2731": 181,
        "2732": 192,
        "2733": 241,
        "2734": 134,
        "2735": 233,
        "2736": 202,
        "2737": 221,
        "2738": 81,
        "2739": 172,
        "2740": 78,
        "2741": 163,
        "2742": 168,
        "2743": 203,
        "2744": 232,
        "2745": 139,
        "2746": 108,
        "2747": 148,
        "2748": 219,
        "2749": 62,
        "2750": 153,
        "2751": 65,
        "2752": 1,
        "2753": 124,
        "2754": 187,
        "2755": 34,
        "2756": 49,
        "2757": 246,
        "2758": 147,
        "2759": 93,
        "2760": 208,
        "2761": 84,
        "2762": 68,
        "2763": 119,
        "2764": 100,
        "2765": 216,
        "2766": 74,
        "2767": 62,
        "2768": 223,
        "2769": 127,
        "2770": 248,
        "2771": 71,
        "2772": 46,
        "2773": 0,
        "2774": 151,
        "2775": 255,
        "2776": 105,
        "2777": 191,
        "2778": 69,
        "2779": 30,
        "2780": 196,
        "2781": 195,
        "2782": 180,
        "2783": 141,
        "2784": 53,
        "2785": 59,
        "2786": 74,
        "2787": 59,
        "2788": 0,
        "2789": 254,
        "2790": 7,
        "2791": 15,
        "2792": 140,
        "2793": 86,
        "2794": 9,
        "2795": 197,
        "2796": 198,
        "2797": 45,
        "2798": 124,
        "2799": 89,
        "2800": 75,
        "2801": 236,
        "2802": 7,
        "2803": 140,
        "2804": 18,
        "2805": 235,
        "2806": 199,
        "2807": 129,
        "2808": 95,
        "2809": 129,
        "2810": 139,
        "2811": 242,
        "2812": 51,
        "2813": 77,
        "2814": 3,
        "2815": 128,
        "2816": 65,
        "2817": 29,
        "2818": 47,
        "2819": 214,
        "2820": 52,
        "2821": 104,
        "2822": 100,
        "2823": 186,
        "2824": 25,
        "2825": 106,
        "2826": 211,
        "2827": 124,
        "2828": 175,
        "2829": 157,
        "2830": 8,
        "2831": 68,
        "2832": 105,
        "2833": 0,
        "2834": 31,
        "2835": 127,
        "2836": 21,
        "2837": 20,
        "2838": 151,
        "2839": 111,
        "2840": 228,
        "2841": 31,
        "2842": 60,
        "2843": 223,
        "2844": 28,
        "2845": 43,
        "2846": 178,
        "2847": 132,
        "2848": 44,
        "2849": 222,
        "2850": 244,
        "2851": 38,
        "2852": 82,
        "2853": 18,
        "2854": 130,
        "2855": 157,
        "2856": 137,
        "2857": 145,
        "2858": 163,
        "2859": 25,
        "2860": 168,
        "2861": 58,
        "2862": 37,
        "2863": 249,
        "2864": 228,
        "2865": 147,
        "2866": 222,
        "2867": 97,
        "2868": 204,
        "2869": 193,
        "2870": 167,
        "2871": 118,
        "2872": 52,
        "2873": 102,
        "2874": 244,
        "2875": 172,
        "2876": 198,
        "2877": 173,
        "2878": 173,
        "2879": 153,
        "2880": 81,
        "2881": 170,
        "2882": 203,
        "2883": 143,
        "2884": 89,
        "2885": 232,
        "2886": 206,
        "2887": 231,
        "2888": 122,
        "2889": 73,
        "2890": 23,
        "2891": 7,
        "2892": 254,
        "2893": 119,
        "2894": 51,
        "2895": 224,
        "2896": 226,
        "2897": 66,
        "2898": 71,
        "2899": 79,
        "2900": 252,
        "2901": 64,
        "2902": 208,
        "2903": 165,
        "2904": 113,
        "2905": 93,
        "2906": 128,
        "2907": 124,
        "2908": 214,
        "2909": 244,
        "2910": 228,
        "2911": 138,
        "2912": 155,
        "2913": 18,
        "2914": 230,
        "2915": 55,
        "2916": 195,
        "2917": 59,
        "2918": 221,
        "2919": 78,
        "2920": 242,
        "2921": 186,
        "2922": 30,
        "2923": 213,
        "2924": 252,
        "2925": 35,
        "2926": 97,
        "2927": 41,
        "2928": 74,
        "2929": 229,
        "2930": 245,
        "2931": 171,
        "2932": 75,
        "2933": 170,
        "2934": 43,
        "2935": 15,
        "2936": 251,
        "2937": 195,
        "2938": 128,
        "2939": 237,
        "2940": 13,
        "2941": 136,
        "2942": 169,
        "2943": 83,
        "2944": 95,
        "2945": 150,
        "2946": 204,
        "2947": 75,
        "2948": 182,
        "2949": 162,
        "2950": 33,
        "2951": 89,
        "2952": 71,
        "2953": 57,
        "2954": 49,
        "2955": 156,
        "2956": 38,
        "2957": 148,
        "2958": 167,
        "2959": 16,
        "2960": 210,
        "2961": 162,
        "2962": 99,
        "2963": 99,
        "2964": 119,
        "2965": 50,
        "2966": 9,
        "2967": 81,
        "2968": 64,
        "2969": 245,
        "2970": 37,
        "2971": 212,
        "2972": 164,
        "2973": 26,
        "2974": 65,
        "2975": 207,
        "2976": 32,
        "2977": 211,
        "2978": 237,
        "2979": 219,
        "2980": 167,
        "2981": 69,
        "2982": 95,
        "2983": 82,
        "2984": 61,
        "2985": 61,
        "2986": 37,
        "2987": 129,
        "2988": 2,
        "2989": 49,
        "2990": 252,
        "2991": 127,
        "2992": 252,
        "2993": 3,
        "2994": 92,
        "2995": 36,
        "2996": 109,
        "2997": 239,
        "2998": 217,
        "2999": 2,
        "3000": 70,
        "3001": 60,
        "3002": 169,
        "3003": 67,
        "3004": 107,
        "3005": 218,
        "3006": 81,
        "3007": 69,
        "3008": 78,
        "3009": 217,
        "3010": 70,
        "3011": 133,
        "3012": 99,
        "3013": 17,
        "3014": 202,
        "3015": 25,
        "3016": 21,
        "3017": 64,
        "3018": 243,
        "3019": 25,
        "3020": 150,
        "3021": 179,
        "3022": 230,
        "3023": 227,
        "3024": 139,
        "3025": 183,
        "3026": 8,
        "3027": 49,
        "3028": 208,
        "3029": 104,
        "3030": 50,
        "3031": 54,
        "3032": 167,
        "3033": 146,
        "3034": 15,
        "3035": 148,
        "3036": 181,
        "3037": 0,
        "3038": 214,
        "3039": 84,
        "3040": 41,
        "3041": 69,
        "3042": 131,
        "3043": 79,
        "3044": 85,
        "3045": 253,
        "3046": 107,
        "3047": 170,
        "3048": 15,
        "3049": 92,
        "3050": 48,
        "3051": 243,
        "3052": 121,
        "3053": 247,
        "3054": 208,
        "3055": 126,
        "3056": 33,
        "3057": 121,
        "3058": 115,
        "3059": 176,
        "3060": 207,
        "3061": 2,
        "3062": 37,
        "3063": 145,
        "3064": 110,
        "3065": 246,
        "3066": 63,
        "3067": 25,
        "3068": 211,
        "3069": 110,
        "3070": 100,
        "3071": 122,
        "3072": 77,
        "3073": 171,
        "3074": 221,
        "3075": 102,
        "3076": 195,
        "3077": 112,
        "3078": 245,
        "3079": 139,
        "3080": 133,
        "3081": 109,
        "3082": 85,
        "3083": 93,
        "3084": 240,
        "3085": 81,
        "3086": 89,
        "3087": 32,
        "3088": 111,
        "3089": 5,
        "3090": 64,
        "3091": 232,
        "3092": 37,
        "3093": 105,
        "3094": 237,
        "3095": 67,
        "3096": 36,
        "3097": 253,
        "3098": 209,
        "3099": 103,
        "3100": 188,
        "3101": 173,
        "3102": 227,
        "3103": 111,
        "3104": 3,
        "3105": 15,
        "3106": 106,
        "3107": 50,
        "3108": 25,
        "3109": 57,
        "3110": 140,
        "3111": 3,
        "3112": 125,
        "3113": 200,
        "3114": 39,
        "3115": 92,
        "3116": 97,
        "3117": 8,
        "3118": 200,
        "3119": 86,
        "3120": 225,
        "3121": 151,
        "3122": 97,
        "3123": 19,
        "3124": 166,
        "3125": 30,
        "3126": 49,
        "3127": 157,
        "3128": 167,
        "3129": 58,
        "3130": 48,
        "3131": 25,
        "3132": 127,
        "3133": 236,
        "3134": 80,
        "3135": 254,
        "3136": 27,
        "3137": 183,
        "3138": 157,
        "3139": 219,
        "3140": 174,
        "3141": 246,
        "3142": 237,
        "3143": 194,
        "3144": 73,
        "3145": 16,
        "3146": 222,
        "3147": 104,
        "3148": 102,
        "3149": 218,
        "3150": 18,
        "3151": 236,
        "3152": 219,
        "3153": 202,
        "3154": 205,
        "3155": 133,
        "3156": 165,
        "3157": 115,
        "3158": 118,
        "3159": 165,
        "3160": 34,
        "3161": 189,
        "3162": 43,
        "3163": 133,
        "3164": 159,
        "3165": 224,
        "3166": 10,
        "3167": 184,
        "3168": 224,
        "3169": 147,
        "3170": 42,
        "3171": 48,
        "3172": 41,
        "3173": 199,
        "3174": 151,
        "3175": 237,
        "3176": 212,
        "3177": 242,
        "3178": 127,
        "3179": 68,
        "3180": 119,
        "3181": 182,
        "3182": 76,
        "3183": 216,
        "3184": 176,
        "3185": 222,
        "3186": 237,
        "3187": 219,
        "3188": 129,
        "3189": 205,
        "3190": 185,
        "3191": 122,
        "3192": 101,
        "3193": 190,
        "3194": 215,
        "3195": 100,
        "3196": 84,
        "3197": 181,
        "3198": 102,
        "3199": 20,
        "3200": 85,
        "3201": 229,
        "3202": 194,
        "3203": 52,
        "3204": 73,
        "3205": 70,
        "3206": 13,
        "3207": 66,
        "3208": 16,
        "3209": 241,
        "3210": 185,
        "3211": 11,
        "3212": 21,
        "3213": 96,
        "3214": 255,
        "3215": 222,
        "3216": 186,
        "3217": 175,
        "3218": 224,
        "3219": 150,
        "3220": 114,
        "3221": 49,
        "3222": 190,
        "3223": 148,
        "3224": 107,
        "3225": 202,
        "3226": 208,
        "3227": 177,
        "3228": 92,
        "3229": 80,
        "3230": 72,
        "3231": 47,
        "3232": 63,
        "3233": 255,
        "3234": 228,
        "3235": 116,
        "3236": 8,
        "3237": 40,
        "3238": 218,
        "3239": 83,
        "3240": 238,
        "3241": 8,
        "3242": 36,
        "3243": 181,
        "3244": 241,
        "3245": 113,
        "3246": 55,
        "3247": 107,
        "3248": 170,
        "3249": 222,
        "3250": 96,
        "3251": 138,
        "3252": 7,
        "3253": 159,
        "3254": 151,
        "3255": 56,
        "3256": 62,
        "3257": 100,
        "3258": 78,
        "3259": 36,
        "3260": 97,
        "3261": 129,
        "3262": 119,
        "3263": 4,
        "3264": 197,
        "3265": 183,
        "3266": 231,
        "3267": 235,
        "3268": 153,
        "3269": 223,
        "3270": 214,
        "3271": 86,
        "3272": 222,
        "3273": 196,
        "3274": 69,
        "3275": 251,
        "3276": 68,
        "3277": 105,
        "3278": 170,
        "3279": 136,
        "3280": 44,
        "3281": 156,
        "3282": 188,
        "3283": 177,
        "3284": 161,
        "3285": 234,
        "3286": 231,
        "3287": 50,
        "3288": 149,
        "3289": 142,
        "3290": 239,
        "3291": 232,
        "3292": 241,
        "3293": 128,
        "3294": 233,
        "3295": 11,
        "3296": 15,
        "3297": 124,
        "3298": 179,
        "3299": 5,
        "3300": 120,
        "3301": 70,
        "3302": 17,
        "3303": 97,
        "3304": 42,
        "3305": 198,
        "3306": 78,
        "3307": 231,
        "3308": 183,
        "3309": 69,
        "3310": 55,
        "3311": 59,
        "3312": 166,
        "3313": 155,
        "3314": 63,
        "3315": 129,
        "3316": 248,
        "3317": 99,
        "3318": 156,
        "3319": 127,
        "3320": 28,
        "3321": 147,
        "3322": 108,
        "3323": 157,
        "3324": 171,
        "3325": 121,
        "3326": 157,
        "3327": 82,
        "3328": 140,
        "3329": 121,
        "3330": 28,
        "3331": 135,
        "3332": 36,
        "3333": 34,
        "3334": 153,
        "3335": 53,
        "3336": 12,
        "3337": 81,
        "3338": 146,
        "3339": 63,
        "3340": 85,
        "3341": 178,
        "3342": 93,
        "3343": 219,
        "3344": 111,
        "3345": 151,
        "3346": 194,
        "3347": 75,
        "3348": 7,
        "3349": 47,
        "3350": 26,
        "3351": 7,
        "3352": 22,
        "3353": 52,
        "3354": 226,
        "3355": 193,
        "3356": 147,
        "3357": 164,
        "3358": 133,
        "3359": 238,
        "3360": 242,
        "3361": 179,
        "3362": 12,
        "3363": 219,
        "3364": 247,
        "3365": 110,
        "3366": 72,
        "3367": 61,
        "3368": 202,
        "3369": 227,
        "3370": 104,
        "3371": 29,
        "3372": 66,
        "3373": 37,
        "3374": 111,
        "3375": 137,
        "3376": 80,
        "3377": 214,
        "3378": 74,
        "3379": 233,
        "3380": 170,
        "3381": 34,
        "3382": 227,
        "3383": 35,
        "3384": 4,
        "3385": 165,
        "3386": 109,
        "3387": 210,
        "3388": 141,
        "3389": 61,
        "3390": 136,
        "3391": 38,
        "3392": 35,
        "3393": 13,
        "3394": 243,
        "3395": 185,
        "3396": 156,
        "3397": 135,
        "3398": 29,
        "3399": 152,
        "3400": 140,
        "3401": 88,
        "3402": 110,
        "3403": 200,
        "3404": 75,
        "3405": 205,
        "3406": 213,
        "3407": 150,
        "3408": 226,
        "3409": 90,
        "3410": 84,
        "3411": 46,
        "3412": 134,
        "3413": 120,
        "3414": 91,
        "3415": 163,
        "3416": 176,
        "3417": 136,
        "3418": 145,
        "3419": 170,
        "3420": 26,
        "3421": 56,
        "3422": 46,
        "3423": 205,
        "3424": 119,
        "3425": 42,
        "3426": 213,
        "3427": 117,
        "3428": 108,
        "3429": 64,
        "3430": 139,
        "3431": 201,
        "3432": 46,
        "3433": 160,
        "3434": 132,
        "3435": 65,
        "3436": 9,
        "3437": 100,
        "3438": 97,
        "3439": 184,
        "3440": 37,
        "3441": 219,
        "3442": 18,
        "3443": 179,
        "3444": 25,
        "3445": 128,
        "3446": 77,
        "3447": 87,
        "3448": 52,
        "3449": 18,
        "3450": 23,
        "3451": 252,
        "3452": 19,
        "3453": 150,
        "3454": 184,
        "3455": 150,
        "3456": 232,
        "3457": 168,
        "3458": 147,
        "3459": 85,
        "3460": 91,
        "3461": 76,
        "3462": 57,
        "3463": 230,
        "3464": 138,
        "3465": 70,
        "3466": 148,
        "3467": 136,
        "3468": 153,
        "3469": 48,
        "3470": 149,
        "3471": 188,
        "3472": 33,
        "3473": 162,
        "3474": 87,
        "3475": 176,
        "3476": 207,
        "3477": 6,
        "3478": 202,
        "3479": 48,
        "3480": 249,
        "3481": 223,
        "3482": 20,
        "3483": 187,
        "3484": 10,
        "3485": 250,
        "3486": 78,
        "3487": 207,
        "3488": 209,
        "3489": 185,
        "3490": 43,
        "3491": 74,
        "3492": 146,
        "3493": 203,
        "3494": 249,
        "3495": 158,
        "3496": 162,
        "3497": 158,
        "3498": 72,
        "3499": 74,
        "3500": 41,
        "3501": 146,
        "3502": 85,
        "3503": 104,
        "3504": 82,
        "3505": 135,
        "3506": 188,
        "3507": 227,
        "3508": 165,
        "3509": 165,
        "3510": 56,
        "3511": 110,
        "3512": 12,
        "3513": 127,
        "3514": 203,
        "3515": 138,
        "3516": 169,
        "3517": 152,
        "3518": 195,
        "3519": 79,
        "3520": 215,
        "3521": 6,
        "3522": 156,
        "3523": 71,
        "3524": 199,
        "3525": 213,
        "3526": 52,
        "3527": 79,
        "3528": 202,
        "3529": 128,
        "3530": 201,
        "3531": 218,
        "3532": 234,
        "3533": 202,
        "3534": 75,
        "3535": 114,
        "3536": 70,
        "3537": 224,
        "3538": 231,
        "3539": 151,
        "3540": 108,
        "3541": 123,
        "3542": 63,
        "3543": 102,
        "3544": 240,
        "3545": 36,
        "3546": 9,
        "3547": 129,
        "3548": 127,
        "3549": 202,
        "3550": 243,
        "3551": 56,
        "3552": 128,
        "3553": 97,
        "3554": 239,
        "3555": 137,
        "3556": 59,
        "3557": 89,
        "3558": 49,
        "3559": 145,
        "3560": 184,
        "3561": 35,
        "3562": 245,
        "3563": 88,
        "3564": 100,
        "3565": 14,
        "3566": 187,
        "3567": 207,
        "3568": 221,
        "3569": 254,
        "3570": 225,
        "3571": 41,
        "3572": 143,
        "3573": 21,
        "3574": 83,
        "3575": 109,
        "3576": 32,
        "3577": 171,
        "3578": 141,
        "3579": 76,
        "3580": 69,
        "3581": 31,
        "3582": 233,
        "3583": 224,
        "3584": 223,
        "3585": 237,
        "3586": 88,
        "3587": 165,
        "3588": 85,
        "3589": 15,
        "3590": 164,
        "3591": 59,
        "3592": 216,
        "3593": 157,
        "3594": 77,
        "3595": 28,
        "3596": 186,
        "3597": 244,
        "3598": 72,
        "3599": 254,
        "3600": 191,
        "3601": 25,
        "3602": 239,
        "3603": 3,
        "3604": 177,
        "3605": 164,
        "3606": 201,
        "3607": 112,
        "3608": 109,
        "3609": 240,
        "3610": 139,
        "3611": 169,
        "3612": 145,
        "3613": 247,
        "3614": 201,
        "3615": 137,
        "3616": 74,
        "3617": 111,
        "3618": 87,
        "3619": 0,
        "3620": 174,
        "3621": 15,
        "3622": 250,
        "3623": 52,
        "3624": 79,
        "3625": 48,
        "3626": 34,
        "3627": 235,
        "3628": 64,
        "3629": 137,
        "3630": 169,
        "3631": 234,
        "3632": 105,
        "3633": 23,
        "3634": 10,
        "3635": 64,
        "3636": 96,
        "3637": 158,
        "3638": 27,
        "3639": 27,
        "3640": 49,
        "3641": 1,
        "3642": 174,
        "3643": 190,
        "3644": 160,
        "3645": 188,
        "3646": 134,
        "3647": 37,
        "3648": 142,
        "3649": 147,
        "3650": 176,
        "3651": 53,
        "3652": 2,
        "3653": 225,
        "3654": 236,
        "3655": 188,
        "3656": 111,
        "3657": 113,
        "3658": 51,
        "3659": 113,
        "3660": 159,
        "3661": 36,
        "3662": 223,
        "3663": 116,
        "3664": 59,
        "3665": 116,
        "3666": 118,
        "3667": 33,
        "3668": 76,
        "3669": 245,
        "3670": 19,
        "3671": 146,
        "3672": 104,
        "3673": 179,
        "3674": 34,
        "3675": 188,
        "3676": 85,
        "3677": 18,
        "3678": 123,
        "3679": 4,
        "3680": 221,
        "3681": 112,
        "3682": 130,
        "3683": 212,
        "3684": 84,
        "3685": 70,
        "3686": 122,
        "3687": 208,
        "3688": 203,
        "3689": 246,
        "3690": 147,
        "3691": 199,
        "3692": 198,
        "3693": 108,
        "3694": 236,
        "3695": 26,
        "3696": 73,
        "3697": 90,
        "3698": 173,
        "3699": 146,
        "3700": 2,
        "3701": 215,
        "3702": 182,
        "3703": 39,
        "3704": 250,
        "3705": 103,
        "3706": 1,
        "3707": 116,
        "3708": 152,
        "3709": 144,
        "3710": 16,
        "3711": 104,
        "3712": 92,
        "3713": 250,
        "3714": 70,
        "3715": 27,
        "3716": 16,
        "3717": 178,
        "3718": 177,
        "3719": 234,
        "3720": 46,
        "3721": 25,
        "3722": 114,
        "3723": 68,
        "3724": 59,
        "3725": 112,
        "3726": 38,
        "3727": 178,
        "3728": 120,
        "3729": 224,
        "3730": 137,
        "3731": 183,
        "3732": 231,
        "3733": 60,
        "3734": 120,
        "3735": 204,
        "3736": 9,
        "3737": 87,
        "3738": 36,
        "3739": 145,
        "3740": 156,
        "3741": 101,
        "3742": 9,
        "3743": 4,
        "3744": 112,
        "3745": 221,
        "3746": 0,
        "3747": 65,
        "3748": 223,
        "3749": 203,
        "3750": 234,
        "3751": 236,
        "3752": 85,
        "3753": 105,
        "3754": 173,
        "3755": 165,
        "3756": 1,
        "3757": 193,
        "3758": 31,
        "3759": 56,
        "3760": 252,
        "3761": 17,
        "3762": 19,
        "3763": 23,
        "3764": 163,
        "3765": 239,
        "3766": 168,
        "3767": 22,
        "3768": 65,
        "3769": 0,
        "3770": 179,
        "3771": 25,
        "3772": 187,
        "3773": 231,
        "3774": 200,
        "3775": 36,
        "3776": 68,
        "3777": 139,
        "3778": 190,
        "3779": 195,
        "3780": 115,
        "3781": 130,
        "3782": 52,
        "3783": 73,
        "3784": 15,
        "3785": 106,
        "3786": 188,
        "3787": 214,
        "3788": 188,
        "3789": 117,
        "3790": 236,
        "3791": 146,
        "3792": 155,
        "3793": 147,
        "3794": 170,
        "3795": 82,
        "3796": 237,
        "3797": 76,
        "3798": 139,
        "3799": 255,
        "3800": 71,
        "3801": 162,
        "3802": 106,
        "3803": 246,
        "3804": 181,
        "3805": 63,
        "3806": 193,
        "3807": 90,
        "3808": 201,
        "3809": 125,
        "3810": 144,
        "3811": 168,
        "3812": 145,
        "3813": 56,
        "3814": 52,
        "3815": 171,
        "3816": 48,
        "3817": 186,
        "3818": 154,
        "3819": 5,
        "3820": 2,
        "3821": 125,
        "3822": 249,
        "3823": 10,
        "3824": 70,
        "3825": 114,
        "3826": 6,
        "3827": 152,
        "3828": 64,
        "3829": 74,
        "3830": 3,
        "3831": 254,
        "3832": 91,
        "3833": 137,
        "3834": 123,
        "3835": 220,
        "3836": 188,
        "3837": 155,
        "3838": 131,
        "3839": 130,
        "3840": 46,
        "3841": 76,
        "3842": 112,
        "3843": 209,
        "3844": 254,
        "3845": 158,
        "3846": 15,
        "3847": 143,
        "3848": 205,
        "3849": 106,
        "3850": 107,
        "3851": 79,
        "3852": 107,
        "3853": 81,
        "3854": 201,
        "3855": 190,
        "3856": 61,
        "3857": 120,
        "3858": 70,
        "3859": 102,
        "3860": 161,
        "3861": 125,
        "3862": 28,
        "3863": 37,
        "3864": 227,
        "3865": 39,
        "3866": 12,
        "3867": 175,
        "3868": 231,
        "3869": 48,
        "3870": 225,
        "3871": 189,
        "3872": 165,
        "3873": 104,
        "3874": 93,
        "3875": 171,
        "3876": 220,
        "3877": 186,
        "3878": 88,
        "3879": 158,
        "3880": 101,
        "3881": 172,
        "3882": 11,
        "3883": 67,
        "3884": 100,
        "3885": 245,
        "3886": 10,
        "3887": 181,
        "3888": 233,
        "3889": 118,
        "3890": 14,
        "3891": 107,
        "3892": 147,
        "3893": 116,
        "3894": 148,
        "3895": 113,
        "3896": 9,
        "3897": 184,
        "3898": 168,
        "3899": 183,
        "3900": 177,
        "3901": 81,
        "3902": 186,
        "3903": 237,
        "3904": 208,
        "3905": 136,
        "3906": 134,
        "3907": 242,
        "3908": 113,
        "3909": 217,
        "3910": 211,
        "3911": 38,
        "3912": 31,
        "3913": 186,
        "3914": 177,
        "3915": 49,
        "3916": 139,
        "3917": 28,
        "3918": 160,
        "3919": 32,
        "3920": 125,
        "3921": 68,
        "3922": 186,
        "3923": 28,
        "3924": 199,
        "3925": 133,
        "3926": 57,
        "3927": 73,
        "3928": 31,
        "3929": 149,
        "3930": 189,
        "3931": 161,
        "3932": 224,
        "3933": 176,
        "3934": 185,
        "3935": 227,
        "3936": 23,
        "3937": 16,
        "3938": 246,
        "3939": 122,
        "3940": 114,
        "3941": 213,
        "3942": 154,
        "3943": 165,
        "3944": 247,
        "3945": 132,
        "3946": 255,
        "3947": 89,
        "3948": 64,
        "3949": 222,
        "3950": 188,
        "3951": 25,
        "3952": 82,
        "3953": 5,
        "3954": 140,
        "3955": 231,
        "3956": 246,
        "3957": 253,
        "3958": 175,
        "3959": 81,
        "3960": 145,
        "3961": 49,
        "3962": 240,
        "3963": 109,
        "3964": 248,
        "3965": 161,
        "3966": 105,
        "3967": 170,
        "3968": 61,
        "3969": 23,
        "3970": 248,
        "3971": 223,
        "3972": 121,
        "3973": 79,
        "3974": 115,
        "3975": 64,
        "3976": 104,
        "3977": 222,
        "3978": 71,
        "3979": 175,
        "3980": 214,
        "3981": 200,
        "3982": 243,
        "3983": 159,
        "3984": 205,
        "3985": 107,
        "3986": 116,
        "3987": 7,
        "3988": 13,
        "3989": 50,
        "3990": 164,
        "3991": 35,
        "3992": 73,
        "3993": 218,
        "3994": 85,
        "3995": 19,
        "3996": 26,
        "3997": 41,
        "3998": 180,
        "3999": 98,
        "4000": 120,
        "4001": 100,
        "4002": 53,
        "4003": 254,
        "4004": 40,
        "4005": 115,
        "4006": 9,
        "4007": 236,
        "4008": 81,
        "4009": 253,
        "4010": 154,
        "4011": 0,
        "4012": 8,
        "4013": 138,
        "4014": 212,
        "4015": 117,
        "4016": 140,
        "4017": 100,
        "4018": 215,
        "4019": 51,
        "4020": 153,
        "4021": 127,
        "4022": 209,
        "4023": 70,
        "4024": 138,
        "4025": 87,
        "4026": 236,
        "4027": 132,
        "4028": 232,
        "4029": 96,
        "4030": 77,
        "4031": 58,
        "4032": 143,
        "4033": 63,
        "4034": 247,
        "4035": 226,
        "4036": 242,
        "4037": 74,
        "4038": 39,
        "4039": 110,
        "4040": 210,
        "4041": 44,
        "4042": 209,
        "4043": 69,
        "4044": 178,
        "4045": 138,
        "4046": 164,
        "4047": 203,
        "4048": 157,
        "4049": 212,
        "4050": 180,
        "4051": 17,
        "4052": 163,
        "4053": 84,
        "4054": 184,
        "4055": 251,
        "4056": 15,
        "4057": 76,
        "4058": 196,
        "4059": 221,
        "4060": 107,
        "4061": 111,
        "4062": 250,
        "4063": 239,
        "4064": 254,
        "4065": 132,
        "4066": 192,
        "4067": 12,
        "4068": 178,
        "4069": 19,
        "4070": 77,
        "4071": 95,
        "4072": 157,
        "4073": 66,
        "4074": 97,
        "4075": 87,
        "4076": 164,
        "4077": 160,
        "4078": 84,
        "4079": 95,
        "4080": 252,
        "4081": 216,
        "4082": 23,
        "4083": 233,
        "4084": 91,
        "4085": 58,
        "4086": 42,
        "4087": 225,
        "4088": 10,
        "4089": 95,
        "4090": 222,
        "4091": 157,
        "4092": 157,
        "4093": 165,
        "4094": 149,
        "4095": 13,
        "4096": 93,
        "4097": 142,
        "4098": 25,
        "4099": 105,
        "4100": 34,
        "4101": 229,
        "4102": 32,
        "4103": 1,
        "4104": 185,
        "4105": 43,
        "4106": 94,
        "4107": 232,
        "4108": 59,
        "4109": 114,
        "4110": 91,
        "4111": 114,
        "4112": 239,
        "4113": 42,
        "4114": 17,
        "4115": 231,
        "4116": 162,
        "4117": 10,
        "4118": 246,
        "4119": 54,
        "4120": 195,
        "4121": 98,
        "4122": 147,
        "4123": 39,
        "4124": 230,
        "4125": 238,
        "4126": 26,
        "4127": 3,
        "4128": 132,
        "4129": 28,
        "4130": 88,
        "4131": 232,
        "4132": 59,
        "4133": 217,
        "4134": 162,
        "4135": 32,
        "4136": 173,
        "4137": 194,
        "4138": 145,
        "4139": 115,
        "4140": 178,
        "4141": 125,
        "4142": 67,
        "4143": 89,
        "4144": 121,
        "4145": 110,
        "4146": 174,
        "4147": 158,
        "4148": 164,
        "4149": 247,
        "4150": 239,
        "4151": 173,
        "4152": 2,
        "4153": 208,
        "4154": 174,
        "4155": 8,
        "4156": 83,
        "4157": 86,
        "4158": 192,
        "4159": 194,
        "4160": 185,
        "4161": 235,
        "4162": 123,
        "4163": 30,
        "4164": 198,
        "4165": 40,
        "4166": 165,
        "4167": 10,
        "4168": 5,
        "4169": 235,
        "4170": 10,
        "4171": 121,
        "4172": 236,
        "4173": 99,
        "4174": 95,
        "4175": 247,
        "4176": 222,
        "4177": 134,
        "4178": 78,
        "4179": 11,
        "4180": 44,
        "4181": 152,
        "4182": 52,
        "4183": 126,
        "4184": 243,
        "4185": 85,
        "4186": 96,
        "4187": 251,
        "4188": 203,
        "4189": 188,
        "4190": 215,
        "4191": 62,
        "4192": 134,
        "4193": 163,
        "4194": 7,
        "4195": 145,
        "4196": 242,
        "4197": 82,
        "4198": 172,
        "4199": 243,
        "4200": 139,
        "4201": 29,
        "4202": 168,
        "4203": 253,
        "4204": 37,
        "4205": 224,
        "4206": 137,
        "4207": 8,
        "4208": 96,
        "4209": 66,
        "4210": 234,
        "4211": 109,
        "4212": 4,
        "4213": 205,
        "4214": 202,
        "4215": 3,
        "4216": 31,
        "4217": 192,
        "4218": 127,
        "4219": 169,
        "4220": 116,
        "4221": 26,
        "4222": 243,
        "4223": 77,
        "4224": 192,
        "4225": 8,
        "4226": 122,
        "4227": 244,
        "4228": 216,
        "4229": 71,
        "4230": 138,
        "4231": 125,
        "4232": 4,
        "4233": 223,
        "4234": 53,
        "4235": 216,
        "4236": 92,
        "4237": 192,
        "4238": 141,
        "4239": 214,
        "4240": 138,
        "4241": 8,
        "4242": 48,
        "4243": 93,
        "4244": 223,
        "4245": 192,
        "4246": 54,
        "4247": 183,
        "4248": 85,
        "4249": 64,
        "4250": 192,
        "4251": 160,
        "4252": 242,
        "4253": 2,
        "4254": 14,
        "4255": 196,
        "4256": 104,
        "4257": 196,
        "4258": 212,
        "4259": 89,
        "4260": 179,
        "4261": 95,
        "4262": 184,
        "4263": 202,
        "4264": 122,
        "4265": 154,
        "4266": 95,
        "4267": 93,
        "4268": 132,
        "4269": 18,
        "4270": 45,
        "4271": 13,
        "4272": 35,
        "4273": 164,
        "4274": 209,
        "4275": 89,
        "4276": 142,
        "4277": 118,
        "4278": 194,
        "4279": 99,
        "4280": 185,
        "4281": 230,
        "4282": 247,
        "4283": 142,
        "4284": 106,
        "4285": 51,
        "4286": 13,
        "4287": 157,
        "4288": 196,
        "4289": 74,
        "4290": 33,
        "4291": 74,
        "4292": 222,
        "4293": 155,
        "4294": 165,
        "4295": 82,
        "4296": 82,
        "4297": 26,
        "4298": 182,
        "4299": 207,
        "4300": 255,
        "4301": 71,
        "4302": 158,
        "4303": 148,
        "4304": 169,
        "4305": 81,
        "4306": 61,
        "4307": 120,
        "4308": 29,
        "4309": 73,
        "4310": 228,
        "4311": 236,
        "4312": 69,
        "4313": 230,
        "4314": 117,
        "4315": 124,
        "4316": 65,
        "4317": 193,
        "4318": 129,
        "4319": 12,
        "4320": 147,
        "4321": 204,
        "4322": 188,
        "4323": 95,
        "4324": 136,
        "4325": 225,
        "4326": 249,
        "4327": 86,
        "4328": 22,
        "4329": 110,
        "4330": 167,
        "4331": 18,
        "4332": 186,
        "4333": 85,
        "4334": 66,
        "4335": 237,
        "4336": 49,
        "4337": 246,
        "4338": 138,
        "4339": 51,
        "4340": 27,
        "4341": 246,
        "4342": 64,
        "4343": 123,
        "4344": 107,
        "4345": 49,
        "4346": 66,
        "4347": 218,
        "4348": 182,
        "4349": 164,
        "4350": 125,
        "4351": 88,
        "4352": 254,
        "4353": 110,
        "4354": 245,
        "4355": 0,
        "4356": 7,
        "4357": 165,
        "4358": 189,
        "4359": 229,
        "4360": 164,
        "4361": 114,
        "4362": 242,
        "4363": 0,
        "4364": 78,
        "4365": 23,
        "4366": 127,
        "4367": 160,
        "4368": 20,
        "4369": 237,
        "4370": 117,
        "4371": 226,
        "4372": 245,
        "4373": 210,
        "4374": 11,
        "4375": 58,
        "4376": 36,
        "4377": 24,
        "4378": 100,
        "4379": 238,
        "4380": 233,
        "4381": 106,
        "4382": 250,
        "4383": 241,
        "4384": 30,
        "4385": 238,
        "4386": 154,
        "4387": 255,
        "4388": 191,
        "4389": 95,
        "4390": 172,
        "4391": 79,
        "4392": 200,
        "4393": 12,
        "4394": 55,
        "4395": 143,
        "4396": 78,
        "4397": 176,
        "4398": 187,
        "4399": 111,
        "4400": 52,
        "4401": 130,
        "4402": 143,
        "4403": 197,
        "4404": 237,
        "4405": 250,
        "4406": 196,
        "4407": 86,
        "4408": 181,
        "4409": 218,
        "4410": 111,
        "4411": 10,
        "4412": 181,
        "4413": 41,
        "4414": 123,
        "4415": 94,
        "4416": 125,
        "4417": 133,
        "4418": 175,
        "4419": 19,
        "4420": 126,
        "4421": 105,
        "4422": 170,
        "4423": 20,
        "4424": 224,
        "4425": 81,
        "4426": 79,
        "4427": 56,
        "4428": 228,
        "4429": 48,
        "4430": 166,
        "4431": 150,
        "4432": 15,
        "4433": 12,
        "4434": 228,
        "4435": 66,
        "4436": 17,
        "4437": 27,
        "4438": 200,
        "4439": 135,
        "4440": 234,
        "4441": 102,
        "4442": 169,
        "4443": 30,
        "4444": 92,
        "4445": 42,
        "4446": 15,
        "4447": 217,
        "4448": 122,
        "4449": 230,
        "4450": 58,
        "4451": 16,
        "4452": 117,
        "4453": 104,
        "4454": 55,
        "4455": 19,
        "4456": 172,
        "4457": 202,
        "4458": 175,
        "4459": 177,
        "4460": 105,
        "4461": 249,
        "4462": 211,
        "4463": 133,
        "4464": 88,
        "4465": 53,
        "4466": 0,
        "4467": 236,
        "4468": 146,
        "4469": 189,
        "4470": 22,
        "4471": 233,
        "4472": 42,
        "4473": 237,
        "4474": 19,
        "4475": 26,
        "4476": 116,
        "4477": 201,
        "4478": 10,
        "4479": 17,
        "4480": 197,
        "4481": 64,
        "4482": 194,
        "4483": 235,
        "4484": 86,
        "4485": 242,
        "4486": 99,
        "4487": 240,
        "4488": 40,
        "4489": 171,
        "4490": 206,
        "4491": 186,
        "4492": 183,
        "4493": 220,
        "4494": 111,
        "4495": 154,
        "4496": 217,
        "4497": 108,
        "4498": 133,
        "4499": 117,
        "4500": 119,
        "4501": 187,
        "4502": 143,
        "4503": 29,
        "4504": 201,
        "4505": 92,
        "4506": 180,
        "4507": 255,
        "4508": 206,
        "4509": 15,
        "4510": 96,
        "4511": 147,
        "4512": 81,
        "4513": 48,
        "4514": 106,
        "4515": 221,
        "4516": 217,
        "4517": 90,
        "4518": 139,
        "4519": 212,
        "4520": 79,
        "4521": 70,
        "4522": 100,
        "4523": 210,
        "4524": 0,
        "4525": 60,
        "4526": 230,
        "4527": 93,
        "4528": 30,
        "4529": 39,
        "4530": 142,
        "4531": 140,
        "4532": 164,
        "4533": 90,
        "4534": 225,
        "4535": 117,
        "4536": 41,
        "4537": 161,
        "4538": 35,
        "4539": 30,
        "4540": 65,
        "4541": 235,
        "4542": 123,
        "4543": 46,
        "4544": 102,
        "4545": 254,
        "4546": 250,
        "4547": 48,
        "4548": 88,
        "4549": 79,
        "4550": 99,
        "4551": 170,
        "4552": 102,
        "4553": 236,
        "4554": 72,
        "4555": 87,
        "4556": 107,
        "4557": 5,
        "4558": 182,
        "4559": 250,
        "4560": 123,
        "4561": 224,
        "4562": 35,
        "4563": 128,
        "4564": 81,
        "4565": 185,
        "4566": 216,
        "4567": 13,
        "4568": 229,
        "4569": 154,
        "4570": 17,
        "4571": 2,
        "4572": 22,
        "4573": 89,
        "4574": 209,
        "4575": 218,
        "4576": 160,
        "4577": 161,
        "4578": 187,
        "4579": 15,
        "4580": 110,
        "4581": 162,
        "4582": 28,
        "4583": 162,
        "4584": 248,
        "4585": 72,
        "4586": 17,
        "4587": 129,
        "4588": 122,
        "4589": 23,
        "4590": 43,
        "4591": 73,
        "4592": 246,
        "4593": 54,
        "4594": 146,
        "4595": 21,
        "4596": 177,
        "4597": 166,
        "4598": 0,
        "4599": 98,
        "4600": 243,
        "4601": 153,
        "4602": 176,
        "4603": 189,
        "4604": 186,
        "4605": 124,
        "4606": 179,
        "4607": 183,
        "4608": 19,
        "4609": 212,
        "4610": 206,
        "4611": 191,
        "4612": 225,
        "4613": 89,
        "4614": 53,
        "4615": 10,
        "4616": 177,
        "4617": 69,
        "4618": 105,
        "4619": 42,
        "4620": 40,
        "4621": 223,
        "4622": 57,
        "4623": 182,
        "4624": 27,
        "4625": 60,
        "4626": 13,
        "4627": 180,
        "4628": 91,
        "4629": 99,
        "4630": 149,
        "4631": 199,
        "4632": 12,
        "4633": 41,
        "4634": 204,
        "4635": 206,
        "4636": 107,
        "4637": 87,
        "4638": 134,
        "4639": 209,
        "4640": 26,
        "4641": 254,
        "4642": 82,
        "4643": 84,
        "4644": 11,
        "4645": 32,
        "4646": 70,
        "4647": 32,
        "4648": 1,
        "4649": 127,
        "4650": 74,
        "4651": 148,
        "4652": 199,
        "4653": 50,
        "4654": 37,
        "4655": 41,
        "4656": 147,
        "4657": 118,
        "4658": 173,
        "4659": 148,
        "4660": 215,
        "4661": 11,
        "4662": 215,
        "4663": 242,
        "4664": 151,
        "4665": 203,
        "4666": 132,
        "4667": 85,
        "4668": 160,
        "4669": 191,
        "4670": 162,
        "4671": 74,
        "4672": 66,
        "4673": 167,
        "4674": 35,
        "4675": 247,
        "4676": 205,
        "4677": 109,
        "4678": 202,
        "4679": 45,
        "4680": 20,
        "4681": 17,
        "4682": 42,
        "4683": 219,
        "4684": 185,
        "4685": 119,
        "4686": 42,
        "4687": 193,
        "4688": 122,
        "4689": 20,
        "4690": 14,
        "4691": 37,
        "4692": 156,
        "4693": 123,
        "4694": 177,
        "4695": 75,
        "4696": 56,
        "4697": 42,
        "4698": 221,
        "4699": 245,
        "4700": 74,
        "4701": 226,
        "4702": 62,
        "4703": 65,
        "4704": 102,
        "4705": 108,
        "4706": 70,
        "4707": 79,
        "4708": 184,
        "4709": 49,
        "4710": 3,
        "4711": 198,
        "4712": 160,
        "4713": 178,
        "4714": 57,
        "4715": 153,
        "4716": 51,
        "4717": 17,
        "4718": 176,
        "4719": 15,
        "4720": 24,
        "4721": 182,
        "4722": 195,
        "4723": 239,
        "4724": 22,
        "4725": 72,
        "4726": 130,
        "4727": 96,
        "4728": 106,
        "4729": 199,
        "4730": 109,
        "4731": 129,
        "4732": 115,
        "4733": 85,
        "4734": 9,
        "4735": 60,
        "4736": 64,
        "4737": 219,
        "4738": 229,
        "4739": 158,
        "4740": 101,
        "4741": 25,
        "4742": 122,
        "4743": 67,
        "4744": 199,
        "4745": 185,
        "4746": 89,
        "4747": 185,
        "4748": 36,
        "4749": 27,
        "4750": 59,
        "4751": 228,
        "4752": 214,
        "4753": 184,
        "4754": 200,
        "4755": 82,
        "4756": 238,
        "4757": 122,
        "4758": 127,
        "4759": 104,
        "4760": 7,
        "4761": 236,
        "4762": 236,
        "4763": 251,
        "4764": 225,
        "4765": 96,
        "4766": 53,
        "4767": 78,
        "4768": 100,
        "4769": 92,
        "4770": 248,
        "4771": 143,
        "4772": 171,
        "4773": 225,
        "4774": 20,
        "4775": 241,
        "4776": 168,
        "4777": 25,
        "4778": 249,
        "4779": 177,
        "4780": 251,
        "4781": 59,
        "4782": 158,
        "4783": 159,
        "4784": 219,
        "4785": 170,
        "4786": 67,
        "4787": 55,
        "4788": 107,
        "4789": 176,
        "4790": 163,
        "4791": 11,
        "4792": 11,
        "4793": 178,
        "4794": 208,
        "4795": 126,
        "4796": 231,
        "4797": 60,
        "4798": 189,
        "4799": 204,
        "4800": 136,
        "4801": 15,
        "4802": 85,
        "4803": 79,
        "4804": 22,
        "4805": 230,
        "4806": 12,
        "4807": 35,
        "4808": 176,
        "4809": 30,
        "4810": 192,
        "4811": 119,
        "4812": 42,
        "4813": 114,
        "4814": 37,
        "4815": 235,
        "4816": 1,
        "4817": 83,
        "4818": 138,
        "4819": 170,
        "4820": 241,
        "4821": 97,
        "4822": 234,
        "4823": 97,
        "4824": 202,
        "4825": 104,
        "4826": 24,
        "4827": 56,
        "4828": 50,
        "4829": 123,
        "4830": 240,
        "4831": 176,
        "4832": 28,
        "4833": 103,
        "4834": 141,
        "4835": 185,
        "4836": 12,
        "4837": 171,
        "4838": 115,
        "4839": 142,
        "4840": 141,
        "4841": 247,
        "4842": 26,
        "4843": 54,
        "4844": 103,
        "4845": 52,
        "4846": 104,
        "4847": 14,
        "4848": 7,
        "4849": 0,
        "4850": 27,
        "4851": 163,
        "4852": 214,
        "4853": 14,
        "4854": 78,
        "4855": 101,
        "4856": 178,
        "4857": 46,
        "4858": 112,
        "4859": 179,
        "4860": 49,
        "4861": 201,
        "4862": 115,
        "4863": 135,
        "4864": 121,
        "4865": 131,
        "4866": 73,
        "4867": 145,
        "4868": 216,
        "4869": 164,
        "4870": 39,
        "4871": 171,
        "4872": 71,
        "4873": 55,
        "4874": 121,
        "4875": 75,
        "4876": 204,
        "4877": 62,
        "4878": 218,
        "4879": 207,
        "4880": 251,
        "4881": 6,
        "4882": 91,
        "4883": 65,
        "4884": 190,
        "4885": 182,
        "4886": 253,
        "4887": 141,
        "4888": 251,
        "4889": 231,
        "4890": 128,
        "4891": 143,
        "4892": 217,
        "4893": 115,
        "4894": 74,
        "4895": 183,
        "4896": 203,
        "4897": 154,
        "4898": 54,
        "4899": 54,
        "4900": 58,
        "4901": 104,
        "4902": 101,
        "4903": 125,
        "4904": 231,
        "4905": 24,
        "4906": 211,
        "4907": 160,
        "4908": 26,
        "4909": 34,
        "4910": 24,
        "4911": 155,
        "4912": 202,
        "4913": 225,
        "4914": 61,
        "4915": 234,
        "4916": 56,
        "4917": 151,
        "4918": 87,
        "4919": 124,
        "4920": 194,
        "4921": 251,
        "4922": 6,
        "4923": 24,
        "4924": 100,
        "4925": 52,
        "4926": 156,
        "4927": 66,
        "4928": 8,
        "4929": 199,
        "4930": 173,
        "4931": 239,
        "4932": 201,
        "4933": 201,
        "4934": 81,
        "4935": 102,
        "4936": 69,
        "4937": 104,
        "4938": 14,
        "4939": 70,
        "4940": 5,
        "4941": 90,
        "4942": 127,
        "4943": 105,
        "4944": 236,
        "4945": 68,
        "4946": 33,
        "4947": 100,
        "4948": 52,
        "4949": 227,
        "4950": 178,
        "4951": 67,
        "4952": 100,
        "4953": 28,
        "4954": 62,
        "4955": 217,
        "4956": 12,
        "4957": 102,
        "4958": 213,
        "4959": 169,
        "4960": 105,
        "4961": 40,
        "4962": 46,
        "4963": 73,
        "4964": 26,
        "4965": 219,
        "4966": 144,
        "4967": 120,
        "4968": 243,
        "4969": 144,
        "4970": 2,
        "4971": 204,
        "4972": 11,
        "4973": 137,
        "4974": 47,
        "4975": 133,
        "4976": 230,
        "4977": 198,
        "4978": 66,
        "4979": 193,
        "4980": 90,
        "4981": 114,
        "4982": 222,
        "4983": 150,
        "4984": 65,
        "4985": 188,
        "4986": 74,
        "4987": 91,
        "4988": 87,
        "4989": 35,
        "4990": 210,
        "4991": 162,
        "4992": 180,
        "4993": 151,
        "4994": 98,
        "4995": 40,
        "4996": 239,
        "4997": 255,
        "4998": 208,
        "4999": 122,
        "5000": 67,
        "5001": 0,
        "5002": 224,
        "5003": 68,
        "5004": 255,
        "5005": 100,
        "5006": 217,
        "5007": 91,
        "5008": 121,
        "5009": 108,
        "5010": 187,
        "5011": 183,
        "5012": 54,
        "5013": 199,
        "5014": 153,
        "5015": 169,
        "5016": 192,
        "5017": 42,
        "5018": 87,
        "5019": 208,
        "5020": 141,
        "5021": 158,
        "5022": 215,
        "5023": 130,
        "5024": 3,
        "5025": 118,
        "5026": 212,
        "5027": 193,
        "5028": 125,
        "5029": 9,
        "5030": 150,
        "5031": 94,
        "5032": 19,
        "5033": 180,
        "5034": 34,
        "5035": 210,
        "5036": 87,
        "5037": 19,
        "5038": 248,
        "5039": 121,
        "5040": 224,
        "5041": 131,
        "5042": 147,
        "5043": 56,
        "5044": 168,
        "5045": 80,
        "5046": 142,
        "5047": 168,
        "5048": 125,
        "5049": 246,
        "5050": 28,
        "5051": 70,
        "5052": 212,
        "5053": 8,
        "5054": 168,
        "5055": 36,
        "5056": 72,
        "5057": 34,
        "5058": 77,
        "5059": 1,
        "5060": 32,
        "5061": 98,
        "5062": 253,
        "5063": 76,
        "5064": 204,
        "5065": 99,
        "5066": 97,
        "5067": 83,
        "5068": 56,
        "5069": 32,
        "5070": 52,
        "5071": 145,
        "5072": 128,
        "5073": 107,
        "5074": 141,
        "5075": 123,
        "5076": 47,
        "5077": 251,
        "5078": 173,
        "5079": 52,
        "5080": 248,
        "5081": 180,
        "5082": 250,
        "5083": 81,
        "5084": 164,
        "5085": 153,
        "5086": 30,
        "5087": 203,
        "5088": 190,
        "5089": 107,
        "5090": 37,
        "5091": 131,
        "5092": 144,
        "5093": 158,
        "5094": 160,
        "5095": 172,
        "5096": 112,
        "5097": 147,
        "5098": 240,
        "5099": 153,
        "5100": 112,
        "5101": 147,
        "5102": 202,
        "5103": 76,
        "5104": 55,
        "5105": 53,
        "5106": 203,
        "5107": 48,
        "5108": 63,
        "5109": 49,
        "5110": 137,
        "5111": 251,
        "5112": 198,
        "5113": 81,
        "5114": 241,
        "5115": 163,
        "5116": 7,
        "5117": 165,
        "5118": 33,
        "5119": 76,
        "5120": 71,
        "5121": 239,
        "5122": 0,
        "5123": 247,
        "5124": 124,
        "5125": 182,
        "5126": 127,
        "5127": 233,
        "5128": 35,
        "5129": 122,
        "5130": 51,
        "5131": 151,
        "5132": 55,
        "5133": 188,
        "5134": 227,
        "5135": 193,
        "5136": 142,
        "5137": 135,
        "5138": 197,
        "5139": 143,
        "5140": 170,
        "5141": 251,
        "5142": 218,
        "5143": 185,
        "5144": 208,
        "5145": 60,
        "5146": 135,
        "5147": 156,
        "5148": 68,
        "5149": 98,
        "5150": 144,
        "5151": 83,
        "5152": 102,
        "5153": 147,
        "5154": 61,
        "5155": 94,
        "5156": 125,
        "5157": 87,
        "5158": 145,
        "5159": 1,
        "5160": 121,
        "5161": 228,
        "5162": 151,
        "5163": 79,
        "5164": 134,
        "5165": 171,
        "5166": 33,
        "5167": 24,
        "5168": 161,
        "5169": 100,
        "5170": 83,
        "5171": 10,
        "5172": 61,
        "5173": 246,
        "5174": 246,
        "5175": 189,
        "5176": 136,
        "5177": 180,
        "5178": 141,
        "5179": 85,
        "5180": 232,
        "5181": 143,
        "5182": 173,
        "5183": 128,
        "5184": 44,
        "5185": 208,
        "5186": 187,
        "5187": 208,
        "5188": 237,
        "5189": 54,
        "5190": 26,
        "5191": 254,
        "5192": 86,
        "5193": 94,
        "5194": 110,
        "5195": 136,
        "5196": 6,
        "5197": 138,
        "5198": 100,
        "5199": 161,
        "5200": 225,
        "5201": 154,
        "5202": 221,
        "5203": 60,
        "5204": 99,
        "5205": 244,
        "5206": 72,
        "5207": 246,
        "5208": 182,
        "5209": 62,
        "5210": 77,
        "5211": 182,
        "5212": 206,
        "5213": 155,
        "5214": 171,
        "5215": 9,
        "5216": 80,
        "5217": 227,
        "5218": 232,
        "5219": 95,
        "5220": 50,
        "5221": 144,
        "5222": 71,
        "5223": 142,
        "5224": 244,
        "5225": 175,
        "5226": 248,
        "5227": 61,
        "5228": 128,
        "5229": 77,
        "5230": 2,
        "5231": 74,
        "5232": 111,
        "5233": 68,
        "5234": 170,
        "5235": 250,
        "5236": 126,
        "5237": 132,
        "5238": 175,
        "5239": 240,
        "5240": 227,
        "5241": 70,
        "5242": 168,
        "5243": 7,
        "5244": 181,
        "5245": 67,
        "5246": 179,
        "5247": 137,
        "5248": 12,
        "5249": 39,
        "5250": 233,
        "5251": 83,
        "5252": 200,
        "5253": 188,
        "5254": 16,
        "5255": 224,
        "5256": 217,
        "5257": 150,
        "5258": 155,
        "5259": 136,
        "5260": 78,
        "5261": 221,
        "5262": 46,
        "5263": 113,
        "5264": 108,
        "5265": 187,
        "5266": 109,
        "5267": 236,
        "5268": 118,
        "5269": 151,
        "5270": 198,
        "5271": 151,
        "5272": 122,
        "5273": 201,
        "5274": 180,
        "5275": 80,
        "5276": 86,
        "5277": 123,
        "5278": 9,
        "5279": 29,
        "5280": 201,
        "5281": 165,
        "5282": 170,
        "5283": 122,
        "5284": 191,
        "5285": 88,
        "5286": 249,
        "5287": 16,
        "5288": 109,
        "5289": 32,
        "5290": 68,
        "5291": 217,
        "5292": 208,
        "5293": 128,
        "5294": 108,
        "5295": 177,
        "5296": 243,
        "5297": 94,
        "5298": 224,
        "5299": 126,
        "5300": 161,
        "5301": 96,
        "5302": 252,
        "5303": 51,
        "5304": 79,
        "5305": 34,
        "5306": 233,
        "5307": 52,
        "5308": 51,
        "5309": 109,
        "5310": 240,
        "5311": 242,
        "5312": 5,
        "5313": 124,
        "5314": 32,
        "5315": 183,
        "5316": 190,
        "5317": 146,
        "5318": 93,
        "5319": 38,
        "5320": 0,
        "5321": 4,
        "5322": 154,
        "5323": 214,
        "5324": 174,
        "5325": 142,
        "5326": 70,
        "5327": 100,
        "5328": 97,
        "5329": 36,
        "5330": 102,
        "5331": 175,
        "5332": 167,
        "5333": 179,
        "5334": 134,
        "5335": 183,
        "5336": 56,
        "5337": 32,
        "5338": 39,
        "5339": 250,
        "5340": 157,
        "5341": 81,
        "5342": 221,
        "5343": 18,
        "5344": 36,
        "5345": 142,
        "5346": 72,
        "5347": 218,
        "5348": 57,
        "5349": 131,
        "5350": 231,
        "5351": 26,
        "5352": 209,
        "5353": 74,
        "5354": 132,
        "5355": 255,
        "5356": 179,
        "5357": 144,
        "5358": 57,
        "5359": 155,
        "5360": 96,
        "5361": 179,
        "5362": 19,
        "5363": 236,
        "5364": 243,
        "5365": 68,
        "5366": 84,
        "5367": 17,
        "5368": 226,
        "5369": 155,
        "5370": 126,
        "5371": 73,
        "5372": 136,
        "5373": 58,
        "5374": 149,
        "5375": 117,
        "5376": 239,
        "5377": 70,
        "5378": 221,
        "5379": 28,
        "5380": 229,
        "5381": 221,
        "5382": 189,
        "5383": 157,
        "5384": 8,
        "5385": 140,
        "5386": 46,
        "5387": 5,
        "5388": 5,
        "5389": 45,
        "5390": 212,
        "5391": 144,
        "5392": 202,
        "5393": 60,
        "5394": 245,
        "5395": 196,
        "5396": 77,
        "5397": 221,
        "5398": 224,
        "5399": 227,
        "5400": 103,
        "5401": 10,
        "5402": 165,
        "5403": 120,
        "5404": 34,
        "5405": 8,
        "5406": 229,
        "5407": 229,
        "5408": 54,
        "5409": 225,
        "5410": 28,
        "5411": 156,
        "5412": 110,
        "5413": 47,
        "5414": 205,
        "5415": 17,
        "5416": 54,
        "5417": 184,
        "5418": 229,
        "5419": 235,
        "5420": 235,
        "5421": 240,
        "5422": 22,
        "5423": 85,
        "5424": 254,
        "5425": 144,
        "5426": 211,
        "5427": 185,
        "5428": 119,
        "5429": 96,
        "5430": 93,
        "5431": 44,
        "5432": 217,
        "5433": 5,
        "5434": 130,
        "5435": 159,
        "5436": 148,
        "5437": 151,
        "5438": 233,
        "5439": 109,
        "5440": 89,
        "5441": 140,
        "5442": 147,
        "5443": 149,
        "5444": 174,
        "5445": 136,
        "5446": 90,
        "5447": 6,
        "5448": 197,
        "5449": 201,
        "5450": 195,
        "5451": 16,
        "5452": 148,
        "5453": 255,
        "5454": 60,
        "5455": 223,
        "5456": 148,
        "5457": 133,
        "5458": 89,
        "5459": 88,
        "5460": 61,
        "5461": 240,
        "5462": 140,
        "5463": 26,
        "5464": 239,
        "5465": 48,
        "5466": 97,
        "5467": 108,
        "5468": 24,
        "5469": 171,
        "5470": 128,
        "5471": 122,
        "5472": 162,
        "5473": 66,
        "5474": 171,
        "5475": 245,
        "5476": 218,
        "5477": 102,
        "5478": 58,
        "5479": 105,
        "5480": 197,
        "5481": 55,
        "5482": 21,
        "5483": 143,
        "5484": 29,
        "5485": 126,
        "5486": 168,
        "5487": 140,
        "5488": 116,
        "5489": 253,
        "5490": 90,
        "5491": 229,
        "5492": 232,
        "5493": 198,
        "5494": 185,
        "5495": 184,
        "5496": 115,
        "5497": 242,
        "5498": 171,
        "5499": 211,
        "5500": 182,
        "5501": 94,
        "5502": 170,
        "5503": 71,
        "5504": 126,
        "5505": 235,
        "5506": 206,
        "5507": 26,
        "5508": 172,
        "5509": 118,
        "5510": 208,
        "5511": 81,
        "5512": 50,
        "5513": 110,
        "5514": 164,
        "5515": 156,
        "5516": 35,
        "5517": 36,
        "5518": 176,
        "5519": 145,
        "5520": 220,
        "5521": 28,
        "5522": 182,
        "5523": 182,
        "5524": 246,
        "5525": 52,
        "5526": 184,
        "5527": 250,
        "5528": 176,
        "5529": 81,
        "5530": 170,
        "5531": 85,
        "5532": 24,
        "5533": 107,
        "5534": 193,
        "5535": 157,
        "5536": 233,
        "5537": 94,
        "5538": 204,
        "5539": 81,
        "5540": 74,
        "5541": 238,
        "5542": 160,
        "5543": 151,
        "5544": 75,
        "5545": 20,
        "5546": 74,
        "5547": 26,
        "5548": 56,
        "5549": 237,
        "5550": 220,
        "5551": 180,
        "5552": 209,
        "5553": 133,
        "5554": 151,
        "5555": 15,
        "5556": 16,
        "5557": 227,
        "5558": 241,
        "5559": 189,
        "5560": 74,
        "5561": 193,
        "5562": 61,
        "5563": 65,
        "5564": 189,
        "5565": 136,
        "5566": 160,
        "5567": 225,
        "5568": 87,
        "5569": 8,
        "5570": 122,
        "5571": 82,
        "5572": 140,
        "5573": 1,
        "5574": 120,
        "5575": 89,
        "5576": 177,
        "5577": 195,
        "5578": 2,
        "5579": 109,
        "5580": 185,
        "5581": 22,
        "5582": 39,
        "5583": 137,
        "5584": 57,
        "5585": 207,
        "5586": 53,
        "5587": 105,
        "5588": 89,
        "5589": 247,
        "5590": 55,
        "5591": 24,
        "5592": 97,
        "5593": 224,
        "5594": 201,
        "5595": 103,
        "5596": 205,
        "5597": 79,
        "5598": 84,
        "5599": 122,
        "5600": 67,
        "5601": 142,
        "5602": 219,
        "5603": 228,
        "5604": 5,
        "5605": 176,
        "5606": 183,
        "5607": 9,
        "5608": 107,
        "5609": 95,
        "5610": 130,
        "5611": 36,
        "5612": 74,
        "5613": 48,
        "5614": 183,
        "5615": 231,
        "5616": 171,
        "5617": 129,
        "5618": 214,
        "5619": 47,
        "5620": 242,
        "5621": 181,
        "5622": 25,
        "5623": 239,
        "5624": 206,
        "5625": 83,
        "5626": 241,
        "5627": 141,
        "5628": 74,
        "5629": 23,
        "5630": 139,
        "5631": 6,
        "5632": 177,
        "5633": 147,
        "5634": 198,
        "5635": 21,
        "5636": 198,
        "5637": 4,
        "5638": 119,
        "5639": 42,
        "5640": 5,
        "5641": 240,
        "5642": 156,
        "5643": 185,
        "5644": 234,
        "5645": 131,
        "5646": 198,
        "5647": 221,
        "5648": 217,
        "5649": 255,
        "5650": 1,
        "5651": 147,
        "5652": 66,
        "5653": 195,
        "5654": 28,
        "5655": 220,
        "5656": 67,
        "5657": 130,
        "5658": 139,
        "5659": 138,
        "5660": 128,
        "5661": 244,
        "5662": 214,
        "5663": 118,
        "5664": 178,
        "5665": 136,
        "5666": 14,
        "5667": 235,
        "5668": 246,
        "5669": 27,
        "5670": 239,
        "5671": 4,
        "5672": 224,
        "5673": 154,
        "5674": 42,
        "5675": 99,
        "5676": 170,
        "5677": 26,
        "5678": 25,
        "5679": 40,
        "5680": 101,
        "5681": 14,
        "5682": 63,
        "5683": 218,
        "5684": 156,
        "5685": 136,
        "5686": 91,
        "5687": 5,
        "5688": 45,
        "5689": 78,
        "5690": 134,
        "5691": 6,
        "5692": 75,
        "5693": 170,
        "5694": 196,
        "5695": 55,
        "5696": 86,
        "5697": 226,
        "5698": 5,
        "5699": 68,
        "5700": 206,
        "5701": 233,
        "5702": 225,
        "5703": 175,
        "5704": 230,
        "5705": 240,
        "5706": 104,
        "5707": 82,
        "5708": 64,
        "5709": 187,
        "5710": 201,
        "5711": 0,
        "5712": 179,
        "5713": 8,
        "5714": 66,
        "5715": 194,
        "5716": 26,
        "5717": 205,
        "5718": 134,
        "5719": 121,
        "5720": 213,
        "5721": 126,
        "5722": 175,
        "5723": 74,
        "5724": 34,
        "5725": 230,
        "5726": 70,
        "5727": 85,
        "5728": 68,
        "5729": 76,
        "5730": 245,
        "5731": 115,
        "5732": 117,
        "5733": 206,
        "5734": 145,
        "5735": 146,
        "5736": 67,
        "5737": 148,
        "5738": 150,
        "5739": 144,
        "5740": 225,
        "5741": 8,
        "5742": 185,
        "5743": 108,
        "5744": 151,
        "5745": 53,
        "5746": 115,
        "5747": 26,
        "5748": 66,
        "5749": 223,
        "5750": 137,
        "5751": 169,
        "5752": 234,
        "5753": 96,
        "5754": 7,
        "5755": 77,
        "5756": 237,
        "5757": 61,
        "5758": 25,
        "5759": 175,
        "5760": 47,
        "5761": 41,
        "5762": 102,
        "5763": 46,
        "5764": 30,
        "5765": 9,
        "5766": 120,
        "5767": 188,
        "5768": 185,
        "5769": 125,
        "5770": 188,
        "5771": 228,
        "5772": 134,
        "5773": 46,
        "5774": 82,
        "5775": 26,
        "5776": 15,
        "5777": 43,
        "5778": 117,
        "5779": 246,
        "5780": 188,
        "5781": 213,
        "5782": 88,
        "5783": 60,
        "5784": 98,
        "5785": 180,
        "5786": 48,
        "5787": 191,
        "5788": 56,
        "5789": 52,
        "5790": 73,
        "5791": 81,
        "5792": 132,
        "5793": 88,
        "5794": 157,
        "5795": 32,
        "5796": 109,
        "5797": 230,
        "5798": 57,
        "5799": 36,
        "5800": 149,
        "5801": 233,
        "5802": 3,
        "5803": 64,
        "5804": 104,
        "5805": 211,
        "5806": 74,
        "5807": 240,
        "5808": 188,
        "5809": 251,
        "5810": 48,
        "5811": 105,
        "5812": 68,
        "5813": 230,
        "5814": 48,
        "5815": 104,
        "5816": 49,
        "5817": 229,
        "5818": 167,
        "5819": 36,
        "5820": 253,
        "5821": 78,
        "5822": 156,
        "5823": 56,
        "5824": 248,
        "5825": 194,
        "5826": 107,
        "5827": 166,
        "5828": 202,
        "5829": 2,
        "5830": 51,
        "5831": 79,
        "5832": 173,
        "5833": 63,
        "5834": 37,
        "5835": 134,
        "5836": 225,
        "5837": 123,
        "5838": 198,
        "5839": 159,
        "5840": 242,
        "5841": 68,
        "5842": 192,
        "5843": 146,
        "5844": 245,
        "5845": 153,
        "5846": 185,
        "5847": 237,
        "5848": 145,
        "5849": 152,
        "5850": 23,
        "5851": 63,
        "5852": 24,
        "5853": 223,
        "5854": 196,
        "5855": 64,
        "5856": 190,
        "5857": 71,
        "5858": 238,
        "5859": 244,
        "5860": 135,
        "5861": 191,
        "5862": 219,
        "5863": 210,
        "5864": 150,
        "5865": 60,
        "5866": 157,
        "5867": 100,
        "5868": 79,
        "5869": 13,
        "5870": 244,
        "5871": 93,
        "5872": 54,
        "5873": 128,
        "5874": 200,
        "5875": 42,
        "5876": 147,
        "5877": 71,
        "5878": 128,
        "5879": 172,
        "5880": 167,
        "5881": 72,
        "5882": 164,
        "5883": 24,
        "5884": 124,
        "5885": 254,
        "5886": 23,
        "5887": 233,
        "5888": 203,
        "5889": 106,
        "5890": 45,
        "5891": 129,
        "5892": 184,
        "5893": 76,
        "5894": 49,
        "5895": 143,
        "5896": 2,
        "5897": 241,
        "5898": 103,
        "5899": 237,
        "5900": 180,
        "5901": 105,
        "5902": 203,
        "5903": 224,
        "5904": 174,
        "5905": 91,
        "5906": 104,
        "5907": 54,
        "5908": 157,
        "5909": 254,
        "5910": 249,
        "5911": 72,
        "5912": 137,
        "5913": 38,
        "5914": 221,
        "5915": 35,
        "5916": 165,
        "5917": 31,
        "5918": 145,
        "5919": 137,
        "5920": 178,
        "5921": 10,
        "5922": 191,
        "5923": 238,
        "5924": 228,
        "5925": 184,
        "5926": 239,
        "5927": 121,
        "5928": 113,
        "5929": 191,
        "5930": 37,
        "5931": 89,
        "5932": 99,
        "5933": 202,
        "5934": 213,
        "5935": 146,
        "5936": 217,
        "5937": 181,
        "5938": 214,
        "5939": 143,
        "5940": 94,
        "5941": 224,
        "5942": 251,
        "5943": 55,
        "5944": 128,
        "5945": 29,
        "5946": 7,
        "5947": 248,
        "5948": 34,
        "5949": 124,
        "5950": 138,
        "5951": 69,
        "5952": 107,
        "5953": 30,
        "5954": 107,
        "5955": 19,
        "5956": 13,
        "5957": 4,
        "5958": 223,
        "5959": 245,
        "5960": 128,
        "5961": 239,
        "5962": 145,
        "5963": 211,
        "5964": 145,
        "5965": 234,
        "5966": 93,
        "5967": 135,
        "5968": 28,
        "5969": 11,
        "5970": 148,
        "5971": 194,
        "5972": 98,
        "5973": 60,
        "5974": 142,
        "5975": 7,
        "5976": 188,
        "5977": 221,
        "5978": 22,
        "5979": 225,
        "5980": 28,
        "5981": 17,
        "5982": 44,
        "5983": 129,
        "5984": 235,
        "5985": 151,
        "5986": 178,
        "5987": 160,
        "5988": 108,
        "5989": 167,
        "5990": 21,
        "5991": 245,
        "5992": 53,
        "5993": 51,
        "5994": 38,
        "5995": 28,
        "5996": 127,
        "5997": 54,
        "5998": 194,
        "5999": 70,
        "6000": 2,
        "6001": 130,
        "6002": 222,
        "6003": 210,
        "6004": 29,
        "6005": 95,
        "6006": 230,
        "6007": 189,
        "6008": 189,
        "6009": 241,
        "6010": 8,
        "6011": 228,
        "6012": 156,
        "6013": 235,
        "6014": 115,
        "6015": 91,
        "6016": 162,
        "6017": 15,
        "6018": 174,
        "6019": 151,
        "6020": 89,
        "6021": 30,
        "6022": 247,
        "6023": 120,
        "6024": 105,
        "6025": 99,
        "6026": 14,
        "6027": 11,
        "6028": 175,
        "6029": 174,
        "6030": 215,
        "6031": 212,
        "6032": 105,
        "6033": 79,
        "6034": 10,
        "6035": 246,
        "6036": 47,
        "6037": 195,
        "6038": 68,
        "6039": 43,
        "6040": 190,
        "6041": 65,
        "6042": 205,
        "6043": 144,
        "6044": 41,
        "6045": 231,
        "6046": 214,
        "6047": 102,
        "6048": 22,
        "6049": 232,
        "6050": 58,
        "6051": 152,
        "6052": 179,
        "6053": 207,
        "6054": 53,
        "6055": 72,
        "6056": 12,
        "6057": 104,
        "6058": 14,
        "6059": 207,
        "6060": 61,
        "6061": 211,
        "6062": 38,
        "6063": 195,
        "6064": 53,
        "6065": 58,
        "6066": 213,
        "6067": 148,
        "6068": 31,
        "6069": 141,
        "6070": 161,
        "6071": 116,
        "6072": 221,
        "6073": 88,
        "6074": 24,
        "6075": 165,
        "6076": 186,
        "6077": 102,
        "6078": 113,
        "6079": 227,
        "6080": 184,
        "6081": 236,
        "6082": 160,
        "6083": 251,
        "6084": 106,
        "6085": 215,
        "6086": 163,
        "6087": 39,
        "6088": 111,
        "6089": 212,
        "6090": 176,
        "6091": 245,
        "6092": 217,
        "6093": 36,
        "6094": 183,
        "6095": 29,
        "6096": 235,
        "6097": 88,
        "6098": 211,
        "6099": 131,
        "6100": 91,
        "6101": 143,
        "6102": 112,
        "6103": 177,
        "6104": 255,
        "6105": 129,
        "6106": 16,
        "6107": 171,
        "6108": 236,
        "6109": 60,
        "6110": 138,
        "6111": 91,
        "6112": 5,
        "6113": 71,
        "6114": 159,
        "6115": 78,
        "6116": 31,
        "6117": 251,
        "6118": 4,
        "6119": 102,
        "6120": 246,
        "6121": 100,
        "6122": 0,
        "6123": 252,
        "6124": 226,
        "6125": 179,
        "6126": 192,
        "6127": 42,
        "6128": 168,
        "6129": 54,
        "6130": 252,
        "6131": 76,
        "6132": 243,
        "6133": 185,
        "6134": 13,
        "6135": 7,
        "6136": 173,
        "6137": 39,
        "6138": 113,
        "6139": 183,
        "6140": 223,
        "6141": 129,
        "6142": 191,
        "6143": 220,
        "6144": 120,
        "6145": 50,
        "6146": 118,
        "6147": 2,
        "6148": 9,
        "6149": 163,
        "6150": 206,
        "6151": 170,
        "6152": 103,
        "6153": 194,
        "6154": 155,
        "6155": 85,
        "6156": 34,
        "6157": 26,
        "6158": 224,
        "6159": 50,
        "6160": 250,
        "6161": 247,
        "6162": 91,
        "6163": 123,
        "6164": 17,
        "6165": 164,
        "6166": 202,
        "6167": 17,
        "6168": 62,
        "6169": 194,
        "6170": 194,
        "6171": 47,
        "6172": 11,
        "6173": 169,
        "6174": 27,
        "6175": 253,
        "6176": 95,
        "6177": 250,
        "6178": 57,
        "6179": 133,
        "6180": 130,
        "6181": 66,
        "6182": 211,
        "6183": 53,
        "6184": 28,
        "6185": 40,
        "6186": 4,
        "6187": 206,
        "6188": 154,
        "6189": 198,
        "6190": 80,
        "6191": 214,
        "6192": 114,
        "6193": 205,
        "6194": 183,
        "6195": 244,
        "6196": 67,
        "6197": 96,
        "6198": 226,
        "6199": 46,
        "6200": 169,
        "6201": 255,
        "6202": 187,
        "6203": 234,
        "6204": 109,
        "6205": 30,
        "6206": 193,
        "6207": 150,
        "6208": 49,
        "6209": 113,
        "6210": 46,
        "6211": 37,
        "6212": 0,
        "6213": 58,
        "6214": 18,
        "6215": 83,
        "6216": 47,
        "6217": 0,
        "6218": 177,
        "6219": 106,
        "6220": 198,
        "6221": 95,
        "6222": 9,
        "6223": 48,
        "6224": 163,
        "6225": 42,
        "6226": 251,
        "6227": 13,
        "6228": 202,
        "6229": 159,
        "6230": 62,
        "6231": 244,
        "6232": 93,
        "6233": 117,
        "6234": 26,
        "6235": 150,
        "6236": 145,
        "6237": 159,
        "6238": 164,
        "6239": 9,
        "6240": 229,
        "6241": 0,
        "6242": 79,
        "6243": 34,
        "6244": 232,
        "6245": 150,
        "6246": 75,
        "6247": 118,
        "6248": 228,
        "6249": 102,
        "6250": 97,
        "6251": 150,
        "6252": 119,
        "6253": 227,
        "6254": 75,
        "6255": 255,
        "6256": 59,
        "6257": 249,
        "6258": 61,
        "6259": 178,
        "6260": 205,
        "6261": 55,
        "6262": 169,
        "6263": 2,
        "6264": 9,
        "6265": 202,
        "6266": 22,
        "6267": 87,
        "6268": 247,
        "6269": 57,
        "6270": 194,
        "6271": 183,
        "6272": 214,
        "6273": 147,
        "6274": 101,
        "6275": 234,
        "6276": 65,
        "6277": 209,
        "6278": 199,
        "6279": 209,
        "6280": 3,
        "6281": 51,
        "6282": 200,
        "6283": 116,
        "6284": 127,
        "6285": 159,
        "6286": 124,
        "6287": 72,
        "6288": 243,
        "6289": 163,
        "6290": 72,
        "6291": 121,
        "6292": 118,
        "6293": 11,
        "6294": 109,
        "6295": 239,
        "6296": 15,
        "6297": 126,
        "6298": 122,
        "6299": 57,
        "6300": 226,
        "6301": 123,
        "6302": 26,
        "6303": 107,
        "6304": 109,
        "6305": 108,
        "6306": 60,
        "6307": 31,
        "6308": 25,
        "6309": 145,
        "6310": 92,
        "6311": 134,
        "6312": 92,
        "6313": 240,
        "6314": 58,
        "6315": 52,
        "6316": 14,
        "6317": 181,
        "6318": 74,
        "6319": 225,
        "6320": 191,
        "6321": 144,
        "6322": 218,
        "6323": 73,
        "6324": 180,
        "6325": 62,
        "6326": 103,
        "6327": 18,
        "6328": 187,
        "6329": 27,
        "6330": 185,
        "6331": 44,
        "6332": 29,
        "6333": 126,
        "6334": 237,
        "6335": 165,
        "6336": 37,
        "6337": 101,
        "6338": 179,
        "6339": 79,
        "6340": 160,
        "6341": 38,
        "6342": 243,
        "6343": 19,
        "6344": 67,
        "6345": 65,
        "6346": 131,
        "6347": 205,
        "6348": 148,
        "6349": 206,
        "6350": 143,
        "6351": 254,
        "6352": 10,
        "6353": 29,
        "6354": 95,
        "6355": 36,
        "6356": 20,
        "6357": 123,
        "6358": 189,
        "6359": 5,
        "6360": 190,
        "6361": 151,
        "6362": 203,
        "6363": 28,
        "6364": 171,
        "6365": 109,
        "6366": 99,
        "6367": 90,
        "6368": 139,
        "6369": 224,
        "6370": 130,
        "6371": 126,
        "6372": 209,
        "6373": 67,
        "6374": 0,
        "6375": 192,
        "6376": 146,
        "6377": 226,
        "6378": 201,
        "6379": 167,
        "6380": 28,
        "6381": 116,
        "6382": 116,
        "6383": 60,
        "6384": 199,
        "6385": 46,
        "6386": 96,
        "6387": 160,
        "6388": 64,
        "6389": 33,
        "6390": 244,
        "6391": 230,
        "6392": 109,
        "6393": 185,
        "6394": 132,
        "6395": 254,
        "6396": 248,
        "6397": 81,
        "6398": 241,
        "6399": 42,
        "6400": 155,
        "6401": 98,
        "6402": 81,
        "6403": 255,
        "6404": 16,
        "6405": 46,
        "6406": 105,
        "6407": 181,
        "6408": 246,
        "6409": 192,
        "6410": 247,
        "6411": 79,
        "6412": 87,
        "6413": 12,
        "6414": 86,
        "6415": 9,
        "6416": 125,
        "6417": 93,
        "6418": 117,
        "6419": 198,
        "6420": 11,
        "6421": 23,
        "6422": 233,
        "6423": 132,
        "6424": 32,
        "6425": 63,
        "6426": 86,
        "6427": 202,
        "6428": 71,
        "6429": 68,
        "6430": 244,
        "6431": 222,
        "6432": 151,
        "6433": 240,
        "6434": 128,
        "6435": 149,
        "6436": 174,
        "6437": 203,
        "6438": 129,
        "6439": 38,
        "6440": 182,
        "6441": 78,
        "6442": 153,
        "6443": 212,
        "6444": 50,
        "6445": 51,
        "6446": 122,
        "6447": 215,
        "6448": 138,
        "6449": 118,
        "6450": 156,
        "6451": 225,
        "6452": 17,
        "6453": 234,
        "6454": 76,
        "6455": 0,
        "6456": 224,
        "6457": 201,
        "6458": 244,
        "6459": 214,
        "6460": 22,
        "6461": 224,
        "6462": 151,
        "6463": 25,
        "6464": 155,
        "6465": 180,
        "6466": 80,
        "6467": 154,
        "6468": 86,
        "6469": 241,
        "6470": 152,
        "6471": 87,
        "6472": 156,
        "6473": 84,
        "6474": 237,
        "6475": 229,
        "6476": 181,
        "6477": 117,
        "6478": 17,
        "6479": 250,
        "6480": 240,
        "6481": 174,
        "6482": 204,
        "6483": 165,
        "6484": 53,
        "6485": 32,
        "6486": 162,
        "6487": 111,
        "6488": 38,
        "6489": 193,
        "6490": 65,
        "6491": 254,
        "6492": 206,
        "6493": 190,
        "6494": 168,
        "6495": 154,
        "6496": 207,
        "6497": 75,
        "6498": 125,
        "6499": 160,
        "6500": 188,
        "6501": 79,
        "6502": 91,
        "6503": 58,
        "6504": 1,
        "6505": 66,
        "6506": 80,
        "6507": 32,
        "6508": 185,
        "6509": 219,
        "6510": 63,
        "6511": 171,
        "6512": 214,
        "6513": 121,
        "6514": 140,
        "6515": 72,
        "6516": 119,
        "6517": 4,
        "6518": 111,
        "6519": 207,
        "6520": 31,
        "6521": 251,
        "6522": 187,
        "6523": 120,
        "6524": 207,
        "6525": 237,
        "6526": 124,
        "6527": 143,
        "6528": 139,
        "6529": 134,
        "6530": 196,
        "6531": 58,
        "6532": 2,
        "6533": 223,
        "6534": 248,
        "6535": 81,
        "6536": 97,
        "6537": 77,
        "6538": 22,
        "6539": 29,
        "6540": 202,
        "6541": 195,
        "6542": 181,
        "6543": 120,
        "6544": 246,
        "6545": 198,
        "6546": 142,
        "6547": 104,
        "6548": 151,
        "6549": 139,
        "6550": 50,
        "6551": 184,
        "6552": 121,
        "6553": 60,
        "6554": 7,
        "6555": 101,
        "6556": 174,
        "6557": 172,
        "6558": 223,
        "6559": 108,
        "6560": 90,
        "6561": 83,
        "6562": 83,
        "6563": 128,
        "6564": 94,
        "6565": 41,
        "6566": 24,
        "6567": 25,
        "6568": 6,
        "6569": 32,
        "6570": 163,
        "6571": 72,
        "6572": 10,
        "6573": 122,
        "6574": 133,
        "6575": 244,
        "6576": 41,
        "6577": 227,
        "6578": 13,
        "6579": 66,
        "6580": 49,
        "6581": 9,
        "6582": 222,
        "6583": 106,
        "6584": 143,
        "6585": 176,
        "6586": 38,
        "6587": 136,
        "6588": 196,
        "6589": 19,
        "6590": 232,
        "6591": 135,
        "6592": 203,
        "6593": 86,
        "6594": 196,
        "6595": 227,
        "6596": 92,
        "6597": 155,
        "6598": 215,
        "6599": 7,
        "6600": 129,
        "6601": 170,
        "6602": 171,
        "6603": 227,
        "6604": 187,
        "6605": 11,
        "6606": 39,
        "6607": 174,
        "6608": 20,
        "6609": 97,
        "6610": 56,
        "6611": 215,
        "6612": 74,
        "6613": 82,
        "6614": 248,
        "6615": 73,
        "6616": 21,
        "6617": 26,
        "6618": 252,
        "6619": 37,
        "6620": 196,
        "6621": 147,
        "6622": 168,
        "6623": 148,
        "6624": 197,
        "6625": 241,
        "6626": 143,
        "6627": 175,
        "6628": 77,
        "6629": 132,
        "6630": 208,
        "6631": 182,
        "6632": 130,
        "6633": 210,
        "6634": 116,
        "6635": 128,
        "6636": 212,
        "6637": 34,
        "6638": 17,
        "6639": 88,
        "6640": 111,
        "6641": 73,
        "6642": 174,
        "6643": 221,
        "6644": 165,
        "6645": 216,
        "6646": 248,
        "6647": 188,
        "6648": 26,
        "6649": 100,
        "6650": 72,
        "6651": 221,
        "6652": 225,
        "6653": 0,
        "6654": 237,
        "6655": 20,
        "6656": 201,
        "6657": 100,
        "6658": 34,
        "6659": 187,
        "6660": 98,
        "6661": 72,
        "6662": 194,
        "6663": 202,
        "6664": 212,
        "6665": 192,
        "6666": 159,
        "6667": 203,
        "6668": 229,
        "6669": 89,
        "6670": 240,
        "6671": 58,
        "6672": 13,
        "6673": 147,
        "6674": 68,
        "6675": 197,
        "6676": 118,
        "6677": 228,
        "6678": 187,
        "6679": 150,
        "6680": 83,
        "6681": 123,
        "6682": 187,
        "6683": 8,
        "6684": 156,
        "6685": 65,
        "6686": 234,
        "6687": 14,
        "6688": 32,
        "6689": 195,
        "6690": 173,
        "6691": 47,
        "6692": 52,
        "6693": 224,
        "6694": 132,
        "6695": 159,
        "6696": 50,
        "6697": 183,
        "6698": 72,
        "6699": 101,
        "6700": 147,
        "6701": 236,
        "6702": 184,
        "6703": 246,
        "6704": 180,
        "6705": 77,
        "6706": 156,
        "6707": 19,
        "6708": 155,
        "6709": 37,
        "6710": 55,
        "6711": 24,
        "6712": 112,
        "6713": 231,
        "6714": 145,
        "6715": 167,
        "6716": 147,
        "6717": 238,
        "6718": 178,
        "6719": 74,
        "6720": 221,
        "6721": 172,
        "6722": 15,
        "6723": 126,
        "6724": 16,
        "6725": 25,
        "6726": 242,
        "6727": 77,
        "6728": 191,
        "6729": 79,
        "6730": 236,
        "6731": 255,
        "6732": 134,
        "6733": 253,
        "6734": 227,
        "6735": 45,
        "6736": 219,
        "6737": 209,
        "6738": 99,
        "6739": 182,
        "6740": 6,
        "6741": 120,
        "6742": 114,
        "6743": 168,
        "6744": 246,
        "6745": 153,
        "6746": 48,
        "6747": 248,
        "6748": 186,
        "6749": 191,
        "6750": 29,
        "6751": 140,
        "6752": 216,
        "6753": 39,
        "6754": 103,
        "6755": 68,
        "6756": 82,
        "6757": 4,
        "6758": 46,
        "6759": 221,
        "6760": 24,
        "6761": 190,
        "6762": 212,
        "6763": 195,
        "6764": 20,
        "6765": 80,
        "6766": 100,
        "6767": 18,
        "6768": 20,
        "6769": 198,
        "6770": 138,
        "6771": 122,
        "6772": 11,
        "6773": 18,
        "6774": 8,
        "6775": 12,
        "6776": 46,
        "6777": 5,
        "6778": 65,
        "6779": 10,
        "6780": 47,
        "6781": 63,
        "6782": 236,
        "6783": 167,
        "6784": 136,
        "6785": 194,
        "6786": 242,
        "6787": 218,
        "6788": 220,
        "6789": 79,
        "6790": 100,
        "6791": 159,
        "6792": 56,
        "6793": 29,
        "6794": 223,
        "6795": 255,
        "6796": 159,
        "6797": 136,
        "6798": 189,
        "6799": 61,
        "6800": 251,
        "6801": 175,
        "6802": 242,
        "6803": 232,
        "6804": 173,
        "6805": 226,
        "6806": 84,
        "6807": 174,
        "6808": 81,
        "6809": 31,
        "6810": 110,
        "6811": 202,
        "6812": 242,
        "6813": 200,
        "6814": 121,
        "6815": 43,
        "6816": 96,
        "6817": 144,
        "6818": 15,
        "6819": 29,
        "6820": 247,
        "6821": 17,
        "6822": 74,
        "6823": 165,
        "6824": 142,
        "6825": 157,
        "6826": 70,
        "6827": 155,
        "6828": 205,
        "6829": 99,
        "6830": 26,
        "6831": 45,
        "6832": 200,
        "6833": 152,
        "6834": 123,
        "6835": 100,
        "6836": 223,
        "6837": 114,
        "6838": 147,
        "6839": 243,
        "6840": 229,
        "6841": 6,
        "6842": 174,
        "6843": 115,
        "6844": 65,
        "6845": 175,
        "6846": 10,
        "6847": 3,
        "6848": 34,
        "6849": 6,
        "6850": 130,
        "6851": 51,
        "6852": 159,
        "6853": 27,
        "6854": 121,
        "6855": 64,
        "6856": 199,
        "6857": 192,
        "6858": 220,
        "6859": 22,
        "6860": 136,
        "6861": 151,
        "6862": 46,
        "6863": 20,
        "6864": 200,
        "6865": 116,
        "6866": 143,
        "6867": 120,
        "6868": 152,
        "6869": 142,
        "6870": 191,
        "6871": 164,
        "6872": 79,
        "6873": 58,
        "6874": 26,
        "6875": 42,
        "6876": 188,
        "6877": 93,
        "6878": 217,
        "6879": 136,
        "6880": 41,
        "6881": 253,
        "6882": 126,
        "6883": 178,
        "6884": 236,
        "6885": 248,
        "6886": 10,
        "6887": 82,
        "6888": 237,
        "6889": 167,
        "6890": 74,
        "6891": 44,
        "6892": 172,
        "6893": 176,
        "6894": 153,
        "6895": 179,
        "6896": 232,
        "6897": 103,
        "6898": 17,
        "6899": 211,
        "6900": 7,
        "6901": 216,
        "6902": 155,
        "6903": 157,
        "6904": 58,
        "6905": 76,
        "6906": 84,
        "6907": 153,
        "6908": 32,
        "6909": 233,
        "6910": 31,
        "6911": 55,
        "6912": 105,
        "6913": 177,
        "6914": 111,
        "6915": 3,
        "6916": 85,
        "6917": 130,
        "6918": 72,
        "6919": 202,
        "6920": 69,
        "6921": 238,
        "6922": 68,
        "6923": 40,
        "6924": 235,
        "6925": 124,
        "6926": 48,
        "6927": 147,
        "6928": 24,
        "6929": 62,
        "6930": 167,
        "6931": 222,
        "6932": 44,
        "6933": 203,
        "6934": 42,
        "6935": 52,
        "6936": 32,
        "6937": 10,
        "6938": 73,
        "6939": 255,
        "6940": 67,
        "6941": 47,
        "6942": 167,
        "6943": 101,
        "6944": 82,
        "6945": 251,
        "6946": 23,
        "6947": 103,
        "6948": 173,
        "6949": 223,
        "6950": 119,
        "6951": 11,
        "6952": 159,
        "6953": 4,
        "6954": 87,
        "6955": 192,
        "6956": 168,
        "6957": 172,
        "6958": 213,
        "6959": 121,
        "6960": 119,
        "6961": 51,
        "6962": 154,
        "6963": 235,
        "6964": 214,
        "6965": 125,
        "6966": 93,
        "6967": 20,
        "6968": 214,
        "6969": 196,
        "6970": 37,
        "6971": 31,
        "6972": 93,
        "6973": 81,
        "6974": 171,
        "6975": 151,
        "6976": 30,
        "6977": 129,
        "6978": 183,
        "6979": 246,
        "6980": 148,
        "6981": 37,
        "6982": 135,
        "6983": 22,
        "6984": 97,
        "6985": 190,
        "6986": 242,
        "6987": 9,
        "6988": 226,
        "6989": 179,
        "6990": 31,
        "6991": 237,
        "6992": 100,
        "6993": 53,
        "6994": 242,
        "6995": 166,
        "6996": 40,
        "6997": 95,
        "6998": 101,
        "6999": 41,
        "7000": 26,
        "7001": 52,
        "7002": 13,
        "7003": 233,
        "7004": 140,
        "7005": 182,
        "7006": 81,
        "7007": 142,
        "7008": 150,
        "7009": 180,
        "7010": 176,
        "7011": 11,
        "7012": 117,
        "7013": 218,
        "7014": 150,
        "7015": 52,
        "7016": 6,
        "7017": 80,
        "7018": 10,
        "7019": 220,
        "7020": 254,
        "7021": 136,
        "7022": 203,
        "7023": 211,
        "7024": 40,
        "7025": 177,
        "7026": 163,
        "7027": 116,
        "7028": 82,
        "7029": 101,
        "7030": 182,
        "7031": 67,
        "7032": 71,
        "7033": 222,
        "7034": 184,
        "7035": 133,
        "7036": 56,
        "7037": 222,
        "7038": 63,
        "7039": 250,
        "7040": 87,
        "7041": 0,
        "7042": 95,
        "7043": 246,
        "7044": 176,
        "7045": 155,
        "7046": 188,
        "7047": 3,
        "7048": 92,
        "7049": 234,
        "7050": 220,
        "7051": 219,
        "7052": 74,
        "7053": 55,
        "7054": 190,
        "7055": 101,
        "7056": 45,
        "7057": 132,
        "7058": 148,
        "7059": 189,
        "7060": 244,
        "7061": 184,
        "7062": 92,
        "7063": 87,
        "7064": 223,
        "7065": 252,
        "7066": 92,
        "7067": 137,
        "7068": 235,
        "7069": 209,
        "7070": 197,
        "7071": 42,
        "7072": 12,
        "7073": 116,
        "7074": 57,
        "7075": 76,
        "7076": 171,
        "7077": 42,
        "7078": 200,
        "7079": 171,
        "7080": 103,
        "7081": 149,
        "7082": 39,
        "7083": 210,
        "7084": 235,
        "7085": 210,
        "7086": 57,
        "7087": 210,
        "7088": 168,
        "7089": 86,
        "7090": 122,
        "7091": 118,
        "7092": 221,
        "7093": 73,
        "7094": 129,
        "7095": 123,
        "7096": 188,
        "7097": 30,
        "7098": 238,
        "7099": 101,
        "7100": 60,
        "7101": 100,
        "7102": 18,
        "7103": 253,
        "7104": 137,
        "7105": 55,
        "7106": 238,
        "7107": 30,
        "7108": 62,
        "7109": 139,
        "7110": 182,
        "7111": 26,
        "7112": 90,
        "7113": 188,
        "7114": 64,
        "7115": 92,
        "7116": 105,
        "7117": 175,
        "7118": 186,
        "7119": 188,
        "7120": 60,
        "7121": 30,
        "7122": 108,
        "7123": 87,
        "7124": 14,
        "7125": 8,
        "7126": 41,
        "7127": 38,
        "7128": 161,
        "7129": 49,
        "7130": 224,
        "7131": 61,
        "7132": 210,
        "7133": 167,
        "7134": 82,
        "7135": 179,
        "7136": 64,
        "7137": 115,
        "7138": 91,
        "7139": 112,
        "7140": 172,
        "7141": 252,
        "7142": 97,
        "7143": 136,
        "7144": 217,
        "7145": 180,
        "7146": 46,
        "7147": 204,
        "7148": 66,
        "7149": 215,
        "7150": 127,
        "7151": 148,
        "7152": 96,
        "7153": 168,
        "7154": 198,
        "7155": 234,
        "7156": 226,
        "7157": 81,
        "7158": 254,
        "7159": 155,
        "7160": 211,
        "7161": 28,
        "7162": 229,
        "7163": 74,
        "7164": 155,
        "7165": 181,
        "7166": 211,
        "7167": 32,
        "7168": 71,
        "7169": 229,
        "7170": 36,
        "7171": 192,
        "7172": 194,
        "7173": 125,
        "7174": 215,
        "7175": 46,
        "7176": 12,
        "7177": 148,
        "7178": 198,
        "7179": 80,
        "7180": 61,
        "7181": 30,
        "7182": 224,
        "7183": 148,
        "7184": 235,
        "7185": 170,
        "7186": 225,
        "7187": 171,
        "7188": 20,
        "7189": 174,
        "7190": 115,
        "7191": 215,
        "7192": 208,
        "7193": 130,
        "7194": 102,
        "7195": 197,
        "7196": 27,
        "7197": 11,
        "7198": 224,
        "7199": 59,
        "7200": 117,
        "7201": 99,
        "7202": 104,
        "7203": 181,
        "7204": 172,
        "7205": 6,
        "7206": 52,
        "7207": 43,
        "7208": 159,
        "7209": 216,
        "7210": 228,
        "7211": 246,
        "7212": 230,
        "7213": 11,
        "7214": 124,
        "7215": 69,
        "7216": 10,
        "7217": 192,
        "7218": 119,
        "7219": 163,
        "7220": 138,
        "7221": 200,
        "7222": 245,
        "7223": 206,
        "7224": 171,
        "7225": 233,
        "7226": 232,
        "7227": 242,
        "7228": 16,
        "7229": 221,
        "7230": 113,
        "7231": 58,
        "7232": 206,
        "7233": 96,
        "7234": 161,
        "7235": 145,
        "7236": 233,
        "7237": 59,
        "7238": 232,
        "7239": 199,
        "7240": 245,
        "7241": 106,
        "7242": 135,
        "7243": 171,
        "7244": 83,
        "7245": 81,
        "7246": 87,
        "7247": 105,
        "7248": 247,
        "7249": 235,
        "7250": 143,
        "7251": 131,
        "7252": 207,
        "7253": 232,
        "7254": 237,
        "7255": 143,
        "7256": 250,
        "7257": 31,
        "7258": 52,
        "7259": 160,
        "7260": 80,
        "7261": 36,
        "7262": 139,
        "7263": 220,
        "7264": 58,
        "7265": 126,
        "7266": 245,
        "7267": 31,
        "7268": 228,
        "7269": 1,
        "7270": 35,
        "7271": 199,
        "7272": 84,
        "7273": 10,
        "7274": 171,
        "7275": 96,
        "7276": 211,
        "7277": 25,
        "7278": 60,
        "7279": 120,
        "7280": 180,
        "7281": 243,
        "7282": 205,
        "7283": 63,
        "7284": 49,
        "7285": 50,
        "7286": 142,
        "7287": 99,
        "7288": 6,
        "7289": 51,
        "7290": 203,
        "7291": 89,
        "7292": 190,
        "7293": 239,
        "7294": 9,
        "7295": 217,
        "7296": 161,
        "7297": 60,
        "7298": 239,
        "7299": 106,
        "7300": 141,
        "7301": 37,
        "7302": 93,
        "7303": 139,
        "7304": 119,
        "7305": 227,
        "7306": 156,
        "7307": 1,
        "7308": 228,
        "7309": 219,
        "7310": 27,
        "7311": 245,
        "7312": 69,
        "7313": 156,
        "7314": 177,
        "7315": 27,
        "7316": 182,
        "7317": 203,
        "7318": 134,
        "7319": 74,
        "7320": 77,
        "7321": 168,
        "7322": 95,
        "7323": 246,
        "7324": 173,
        "7325": 6,
        "7326": 128,
        "7327": 62,
        "7328": 251,
        "7329": 200,
        "7330": 255,
        "7331": 67,
        "7332": 171,
        "7333": 237,
        "7334": 117,
        "7335": 223,
        "7336": 65,
        "7337": 84,
        "7338": 40,
        "7339": 255,
        "7340": 142,
        "7341": 163,
        "7342": 183,
        "7343": 34,
        "7344": 38,
        "7345": 18,
        "7346": 208,
        "7347": 36,
        "7348": 155,
        "7349": 230,
        "7350": 149,
        "7351": 10,
        "7352": 212,
        "7353": 31,
        "7354": 129,
        "7355": 85,
        "7356": 242,
        "7357": 217,
        "7358": 18,
        "7359": 98,
        "7360": 218,
        "7361": 176,
        "7362": 55,
        "7363": 123,
        "7364": 228,
        "7365": 156,
        "7366": 2,
        "7367": 66,
        "7368": 238,
        "7369": 240,
        "7370": 186,
        "7371": 99,
        "7372": 250,
        "7373": 131,
        "7374": 146,
        "7375": 115,
        "7376": 31,
        "7377": 208,
        "7378": 105,
        "7379": 225,
        "7380": 31,
        "7381": 6,
        "7382": 166,
        "7383": 228,
        "7384": 90,
        "7385": 164,
        "7386": 146,
        "7387": 106,
        "7388": 161,
        "7389": 142,
        "7390": 170,
        "7391": 71,
        "7392": 55,
        "7393": 174,
        "7394": 169,
        "7395": 245,
        "7396": 52,
        "7397": 131,
        "7398": 6,
        "7399": 101,
        "7400": 242,
        "7401": 204,
        "7402": 66,
        "7403": 209,
        "7404": 105,
        "7405": 192,
        "7406": 76,
        "7407": 177,
        "7408": 49,
        "7409": 255,
        "7410": 198,
        "7411": 53,
        "7412": 189,
        "7413": 6,
        "7414": 104,
        "7415": 77,
        "7416": 237,
        "7417": 44,
        "7418": 21,
        "7419": 47,
        "7420": 85,
        "7421": 63,
        "7422": 171,
        "7423": 159,
        "7424": 240,
        "7425": 204,
        "7426": 46,
        "7427": 186,
        "7428": 35,
        "7429": 74,
        "7430": 77,
        "7431": 246,
        "7432": 148,
        "7433": 13,
        "7434": 32,
        "7435": 245,
        "7436": 198,
        "7437": 211,
        "7438": 79,
        "7439": 46,
        "7440": 239,
        "7441": 213,
        "7442": 249,
        "7443": 175,
        "7444": 64,
        "7445": 95,
        "7446": 121,
        "7447": 77,
        "7448": 230,
        "7449": 77,
        "7450": 5,
        "7451": 135,
        "7452": 76,
        "7453": 139,
        "7454": 70,
        "7455": 84,
        "7456": 220,
        "7457": 67,
        "7458": 34,
        "7459": 6,
        "7460": 189,
        "7461": 221,
        "7462": 202,
        "7463": 192,
        "7464": 61,
        "7465": 169,
        "7466": 149,
        "7467": 111,
        "7468": 121,
        "7469": 187,
        "7470": 208,
        "7471": 135,
        "7472": 199,
        "7473": 249,
        "7474": 220,
        "7475": 197,
        "7476": 146,
        "7477": 177,
        "7478": 171,
        "7479": 178,
        "7480": 37,
        "7481": 22,
        "7482": 46,
        "7483": 253,
        "7484": 193,
        "7485": 189,
        "7486": 250,
        "7487": 16,
        "7488": 50,
        "7489": 245,
        "7490": 179,
        "7491": 178,
        "7492": 14,
        "7493": 13,
        "7494": 254,
        "7495": 132,
        "7496": 243,
        "7497": 204,
        "7498": 61,
        "7499": 161,
        "7500": 56,
        "7501": 0,
        "7502": 105,
        "7503": 14,
        "7504": 175,
        "7505": 46,
        "7506": 15,
        "7507": 214,
        "7508": 246,
        "7509": 111,
        "7510": 98,
        "7511": 111,
        "7512": 255,
        "7513": 105,
        "7514": 74,
        "7515": 204,
        "7516": 122,
        "7517": 88,
        "7518": 219,
        "7519": 252,
        "7520": 169,
        "7521": 85,
        "7522": 78,
        "7523": 25,
        "7524": 218,
        "7525": 208,
        "7526": 143,
        "7527": 25,
        "7528": 146,
        "7529": 180,
        "7530": 109,
        "7531": 46,
        "7532": 216,
        "7533": 156,
        "7534": 101,
        "7535": 103,
        "7536": 126,
        "7537": 91,
        "7538": 92,
        "7539": 228,
        "7540": 7,
        "7541": 170,
        "7542": 91,
        "7543": 86,
        "7544": 241,
        "7545": 221,
        "7546": 241,
        "7547": 218,
        "7548": 2,
        "7549": 78,
        "7550": 189,
        "7551": 156,
        "7552": 72,
        "7553": 81,
        "7554": 220,
        "7555": 228,
        "7556": 80,
        "7557": 193,
        "7558": 19,
        "7559": 180,
        "7560": 141,
        "7561": 254,
        "7562": 246,
        "7563": 219,
        "7564": 206,
        "7565": 15,
        "7566": 193,
        "7567": 181,
        "7568": 57,
        "7569": 105,
        "7570": 184,
        "7571": 88,
        "7572": 217,
        "7573": 110,
        "7574": 227,
        "7575": 19,
        "7576": 204,
        "7577": 94,
        "7578": 99,
        "7579": 70,
        "7580": 164,
        "7581": 33,
        "7582": 188,
        "7583": 94,
        "7584": 47,
        "7585": 79,
        "7586": 83,
        "7587": 22,
        "7588": 170,
        "7589": 142,
        "7590": 216,
        "7591": 129,
        "7592": 121,
        "7593": 164,
        "7594": 22,
        "7595": 97,
        "7596": 233,
        "7597": 19,
        "7598": 190,
        "7599": 249,
        "7600": 254,
        "7601": 148,
        "7602": 142,
        "7603": 36,
        "7604": 10,
        "7605": 93,
        "7606": 26,
        "7607": 41,
        "7608": 218,
        "7609": 115,
        "7610": 155,
        "7611": 32,
        "7612": 15,
        "7613": 59,
        "7614": 156,
        "7615": 31,
        "7616": 240,
        "7617": 51,
        "7618": 230,
        "7619": 144,
        "7620": 142,
        "7621": 96,
        "7622": 171,
        "7623": 192,
        "7624": 240,
        "7625": 129,
        "7626": 245,
        "7627": 145,
        "7628": 130,
        "7629": 173,
        "7630": 92,
        "7631": 115,
        "7632": 197,
        "7633": 90,
        "7634": 93,
        "7635": 124,
        "7636": 81,
        "7637": 94,
        "7638": 214,
        "7639": 51,
        "7640": 31,
        "7641": 2,
        "7642": 29,
        "7643": 141,
        "7644": 239,
        "7645": 101,
        "7646": 85,
        "7647": 125,
        "7648": 198,
        "7649": 109,
        "7650": 217,
        "7651": 128,
        "7652": 172,
        "7653": 2,
        "7654": 224,
        "7655": 57,
        "7656": 152,
        "7657": 236,
        "7658": 27,
        "7659": 50,
        "7660": 184,
        "7661": 19,
        "7662": 75,
        "7663": 76,
        "7664": 251,
        "7665": 3,
        "7666": 205,
        "7667": 200,
        "7668": 90,
        "7669": 174,
        "7670": 199,
        "7671": 31,
        "7672": 117,
        "7673": 235,
        "7674": 60,
        "7675": 36,
        "7676": 167,
        "7677": 157,
        "7678": 113,
        "7679": 79,
        "7680": 68,
        "7681": 68,
        "7682": 80,
        "7683": 153,
        "7684": 101,
        "7685": 153,
        "7686": 70,
        "7687": 63,
        "7688": 140,
        "7689": 19,
        "7690": 241,
        "7691": 150,
        "7692": 214,
        "7693": 192,
        "7694": 51,
        "7695": 154,
        "7696": 210,
        "7697": 166,
        "7698": 80,
        "7699": 195,
        "7700": 221,
        "7701": 0,
        "7702": 44,
        "7703": 190,
        "7704": 116,
        "7705": 158,
        "7706": 90,
        "7707": 90,
        "7708": 137,
        "7709": 190,
        "7710": 40,
        "7711": 149,
        "7712": 96,
        "7713": 4,
        "7714": 107,
        "7715": 74,
        "7716": 143,
        "7717": 191,
        "7718": 182,
        "7719": 66,
        "7720": 177,
        "7721": 221,
        "7722": 124,
        "7723": 174,
        "7724": 214,
        "7725": 228,
        "7726": 35,
        "7727": 116,
        "7728": 71,
        "7729": 125,
        "7730": 58,
        "7731": 17,
        "7732": 244,
        "7733": 140,
        "7734": 15,
        "7735": 63,
        "7736": 23,
        "7737": 13,
        "7738": 15,
        "7739": 244,
        "7740": 169,
        "7741": 45,
        "7742": 247,
        "7743": 112,
        "7744": 186,
        "7745": 98,
        "7746": 180,
        "7747": 131,
        "7748": 89,
        "7749": 29,
        "7750": 64,
        "7751": 148,
        "7752": 19,
        "7753": 47,
        "7754": 64,
        "7755": 102,
        "7756": 2,
        "7757": 108,
        "7758": 99,
        "7759": 1,
        "7760": 212,
        "7761": 100,
        "7762": 128,
        "7763": 79,
        "7764": 17,
        "7765": 209,
        "7766": 14,
        "7767": 7,
        "7768": 54,
        "7769": 9,
        "7770": 139,
        "7771": 117,
        "7772": 70,
        "7773": 151,
        "7774": 106,
        "7775": 97,
        "7776": 62,
        "7777": 233,
        "7778": 55,
        "7779": 60,
        "7780": 143,
        "7781": 91,
        "7782": 234,
        "7783": 216,
        "7784": 155,
        "7785": 49,
        "7786": 242,
        "7787": 47,
        "7788": 47,
        "7789": 67,
        "7790": 161,
        "7791": 31,
        "7792": 124,
        "7793": 162,
        "7794": 44,
        "7795": 245,
        "7796": 167,
        "7797": 136,
        "7798": 173,
        "7799": 170,
        "7800": 49,
        "7801": 143,
        "7802": 6,
        "7803": 184,
        "7804": 30,
        "7805": 84,
        "7806": 129,
        "7807": 46,
        "7808": 66,
        "7809": 17,
        "7810": 59,
        "7811": 175,
        "7812": 94,
        "7813": 82,
        "7814": 90,
        "7815": 59,
        "7816": 32,
        "7817": 191,
        "7818": 36,
        "7819": 224,
        "7820": 239,
        "7821": 70,
        "7822": 18,
        "7823": 14,
        "7824": 84,
        "7825": 85,
        "7826": 119,
        "7827": 82,
        "7828": 80,
        "7829": 207,
        "7830": 165,
        "7831": 191,
        "7832": 31,
        "7833": 64,
        "7834": 103,
        "7835": 168,
        "7836": 59,
        "7837": 95,
        "7838": 6,
        "7839": 141,
        "7840": 88,
        "7841": 66,
        "7842": 111,
        "7843": 57,
        "7844": 201,
        "7845": 21,
        "7846": 118,
        "7847": 60,
        "7848": 94,
        "7849": 211,
        "7850": 118,
        "7851": 210,
        "7852": 33,
        "7853": 24,
        "7854": 98,
        "7855": 129,
        "7856": 129,
        "7857": 19,
        "7858": 26,
        "7859": 31,
        "7860": 157,
        "7861": 52,
        "7862": 59,
        "7863": 131,
        "7864": 107,
        "7865": 190,
        "7866": 93,
        "7867": 7,
        "7868": 34,
        "7869": 62,
        "7870": 79,
        "7871": 60,
        "7872": 184,
        "7873": 22,
        "7874": 28,
        "7875": 92,
        "7876": 64,
        "7877": 255,
        "7878": 0,
        "7879": 150,
        "7880": 244,
        "7881": 235,
        "7882": 43,
        "7883": 134,
        "7884": 215,
        "7885": 25,
        "7886": 210,
        "7887": 6,
        "7888": 1,
        "7889": 44,
        "7890": 69,
        "7891": 186,
        "7892": 47,
        "7893": 56,
        "7894": 143,
        "7895": 166,
        "7896": 221,
        "7897": 93,
        "7898": 121,
        "7899": 53,
        "7900": 228,
        "7901": 59,
        "7902": 171,
        "7903": 228,
        "7904": 212,
        "7905": 21,
        "7906": 71,
        "7907": 240,
        "7908": 60,
        "7909": 126,
        "7910": 75,
        "7911": 72,
        "7912": 93,
        "7913": 68,
        "7914": 21,
        "7915": 205,
        "7916": 247,
        "7917": 49,
        "7918": 39,
        "7919": 172,
        "7920": 115,
        "7921": 221,
        "7922": 41,
        "7923": 82,
        "7924": 5,
        "7925": 85,
        "7926": 34,
        "7927": 220,
        "7928": 16,
        "7929": 207,
        "7930": 135,
        "7931": 197,
        "7932": 159,
        "7933": 85,
        "7934": 69,
        "7935": 95,
        "7936": 91,
        "7937": 200,
        "7938": 58,
        "7939": 97,
        "7940": 119,
        "7941": 203,
        "7942": 5,
        "7943": 212,
        "7944": 54,
        "7945": 121,
        "7946": 60,
        "7947": 11,
        "7948": 126,
        "7949": 225,
        "7950": 23,
        "7951": 8,
        "7952": 216,
        "7953": 105,
        "7954": 132,
        "7955": 155,
        "7956": 108,
        "7957": 137,
        "7958": 197,
        "7959": 193,
        "7960": 96,
        "7961": 43,
        "7962": 216,
        "7963": 152,
        "7964": 236,
        "7965": 28,
        "7966": 52,
        "7967": 159,
        "7968": 100,
        "7969": 82,
        "7970": 143,
        "7971": 3,
        "7972": 244,
        "7973": 77,
        "7974": 123,
        "7975": 110,
        "7976": 17,
        "7977": 19,
        "7978": 91,
        "7979": 96,
        "7980": 32,
        "7981": 165,
        "7982": 127,
        "7983": 9,
        "7984": 91,
        "7985": 219,
        "7986": 206,
        "7987": 8,
        "7988": 78,
        "7989": 122,
        "7990": 180,
        "7991": 77,
        "7992": 166,
        "7993": 222,
        "7994": 188,
        "7995": 44,
        "7996": 211,
        "7997": 55,
        "7998": 41,
        "7999": 171,
        "8000": 115,
        "8001": 122,
        "8002": 214,
        "8003": 153,
        "8004": 255,
        "8005": 21,
        "8006": 254,
        "8007": 65,
        "8008": 148,
        "8009": 17,
        "8010": 230,
        "8011": 105,
        "8012": 209,
        "8013": 221,
        "8014": 38,
        "8015": 125,
        "8016": 57,
        "8017": 171,
        "8018": 90,
        "8019": 171,
        "8020": 146,
        "8021": 133,
        "8022": 48,
        "8023": 120,
        "8024": 229,
        "8025": 59,
        "8026": 160,
        "8027": 122,
        "8028": 166,
        "8029": 36,
        "8030": 2,
        "8031": 97,
        "8032": 193,
        "8033": 23,
        "8034": 80,
        "8035": 121,
        "8036": 62,
        "8037": 66,
        "8038": 215,
        "8039": 167,
        "8040": 236,
        "8041": 212,
        "8042": 88,
        "8043": 110,
        "8044": 158,
        "8045": 181,
        "8046": 254,
        "8047": 168,
        "8048": 52,
        "8049": 26,
        "8050": 65,
        "8051": 76,
        "8052": 123,
        "8053": 233,
        "8054": 213,
        "8055": 200,
        "8056": 199,
        "8057": 240,
        "8058": 30,
        "8059": 91,
        "8060": 59,
        "8061": 145,
        "8062": 231,
        "8063": 232,
        "8064": 18,
        "8065": 45,
        "8066": 214,
        "8067": 226,
        "8068": 21,
        "8069": 109,
        "8070": 32,
        "8071": 9,
        "8072": 180,
        "8073": 80,
        "8074": 1,
        "8075": 169,
        "8076": 208,
        "8077": 249,
        "8078": 146,
        "8079": 126,
        "8080": 114,
        "8081": 119,
        "8082": 19,
        "8083": 118,
        "8084": 42,
        "8085": 28,
        "8086": 111,
        "8087": 14,
        "8088": 133,
        "8089": 153,
        "8090": 116,
        "8091": 199,
        "8092": 207,
        "8093": 115,
        "8094": 40,
        "8095": 19,
        "8096": 54,
        "8097": 97,
        "8098": 11,
        "8099": 250,
        "8100": 6,
        "8101": 36,
        "8102": 122,
        "8103": 207,
        "8104": 236,
        "8105": 42,
        "8106": 205,
        "8107": 29,
        "8108": 188,
        "8109": 30,
        "8110": 170,
        "8111": 31,
        "8112": 135,
        "8113": 189,
        "8114": 44,
        "8115": 39,
        "8116": 190,
        "8117": 218,
        "8118": 14,
        "8119": 99,
        "8120": 224,
        "8121": 101,
        "8122": 223,
        "8123": 164,
        "8124": 118,
        "8125": 206,
        "8126": 37,
        "8127": 249,
        "8128": 119,
        "8129": 210,
        "8130": 238,
        "8131": 137,
        "8132": 157,
        "8133": 196,
        "8134": 0,
        "8135": 193,
        "8136": 214,
        "8137": 167,
        "8138": 231,
        "8139": 1,
        "8140": 233,
        "8141": 108,
        "8142": 128,
        "8143": 205,
        "8144": 46,
        "8145": 68,
        "8146": 165,
        "8147": 4,
        "8148": 216,
        "8149": 199,
        "8150": 168,
        "8151": 233,
        "8152": 137,
        "8153": 42,
        "8154": 106,
        "8155": 7,
        "8156": 107,
        "8157": 34,
        "8158": 94,
        "8159": 59,
        "8160": 81,
        "8161": 62,
        "8162": 20,
        "8163": 243,
        "8164": 107,
        "8165": 4,
        "8166": 123,
        "8167": 247,
        "8168": 223,
        "8169": 134,
        "8170": 68,
        "8171": 185,
        "8172": 120,
        "8173": 220,
        "8174": 46,
        "8175": 251,
        "8176": 62,
        "8177": 8,
        "8178": 205,
        "8179": 63,
        "8180": 131,
        "8181": 82,
        "8182": 56,
        "8183": 93,
        "8184": 200,
        "8185": 167,
        "8186": 77,
        "8187": 62,
        "8188": 164,
        "8189": 74,
        "8190": 10,
        "8191": 96,
        "8192": 195,
        "8193": 227,
        "8194": 118,
        "8195": 17,
        "8196": 80,
        "8197": 189,
        "8198": 148,
        "8199": 174,
        "8200": 170,
        "8201": 173,
        "8202": 97,
        "8203": 245,
        "8204": 172,
        "8205": 108,
        "8206": 255,
        "8207": 90,
        "8208": 20,
        "8209": 146,
        "8210": 142,
        "8211": 61,
        "8212": 37,
        "8213": 37,
        "8214": 216,
        "8215": 72,
        "8216": 193,
        "8217": 65,
        "8218": 81,
        "8219": 207,
        "8220": 222,
        "8221": 168,
        "8222": 165,
        "8223": 26,
        "8224": 135,
        "8225": 153,
        "8226": 74,
        "8227": 76,
        "8228": 15,
        "8229": 251,
        "8230": 147,
        "8231": 161,
        "8232": 52,
        "8233": 245,
        "8234": 152,
        "8235": 76,
        "8236": 250,
        "8237": 75,
        "8238": 200,
        "8239": 40,
        "8240": 254,
        "8241": 182,
        "8242": 188,
        "8243": 3,
        "8244": 141,
        "8245": 63,
        "8246": 195,
        "8247": 22,
        "8248": 252,
        "8249": 212,
        "8250": 172,
        "8251": 115,
        "8252": 27,
        "8253": 246,
        "8254": 244,
        "8255": 189,
        "8256": 36,
        "8257": 139,
        "8258": 235,
        "8259": 254,
        "8260": 18,
        "8261": 204,
        "8262": 91,
        "8263": 172,
        "8264": 108,
        "8265": 7,
        "8266": 154,
        "8267": 254,
        "8268": 64,
        "8269": 27,
        "8270": 236,
        "8271": 13,
        "8272": 190,
        "8273": 239,
        "8274": 85,
        "8275": 60,
        "8276": 136,
        "8277": 195,
        "8278": 219,
        "8279": 35,
        "8280": 102,
        "8281": 102,
        "8282": 144,
        "8283": 75,
        "8284": 56,
        "8285": 194,
        "8286": 79,
        "8287": 235,
        "8288": 253,
        "8289": 28,
        "8290": 216,
        "8291": 217,
        "8292": 198,
        "8293": 245,
        "8294": 195,
        "8295": 237,
        "8296": 204,
        "8297": 14,
        "8298": 13,
        "8299": 7,
        "8300": 196,
        "8301": 95,
        "8302": 91,
        "8303": 218,
        "8304": 65,
        "8305": 0,
        "8306": 92,
        "8307": 26,
        "8308": 250,
        "8309": 254,
        "8310": 100,
        "8311": 25,
        "8312": 168,
        "8313": 180,
        "8314": 125,
        "8315": 127,
        "8316": 108,
        "8317": 34,
        "8318": 127,
        "8319": 10,
        "8320": 101,
        "8321": 51,
        "8322": 131,
        "8323": 77,
        "8324": 23,
        "8325": 169,
        "8326": 116,
        "8327": 237,
        "8328": 136,
        "8329": 84,
        "8330": 37,
        "8331": 16,
        "8332": 197,
        "8333": 25,
        "8334": 26,
        "8335": 142,
        "8336": 129,
        "8337": 51,
        "8338": 105,
        "8339": 214,
        "8340": 7,
        "8341": 34,
        "8342": 124,
        "8343": 242,
        "8344": 239,
        "8345": 234,
        "8346": 50,
        "8347": 196,
        "8348": 225,
        "8349": 233,
        "8350": 238,
        "8351": 3,
        "8352": 94,
        "8353": 2,
        "8354": 89,
        "8355": 82,
        "8356": 156,
        "8357": 175,
        "8358": 32,
        "8359": 129,
        "8360": 217,
        "8361": 64,
        "8362": 168,
        "8363": 106,
        "8364": 53,
        "8365": 65,
        "8366": 236,
        "8367": 228,
        "8368": 122,
        "8369": 204,
        "8370": 104,
        "8371": 95,
        "8372": 6,
        "8373": 230,
        "8374": 91,
        "8375": 238,
        "8376": 253,
        "8377": 26,
        "8378": 14,
        "8379": 181,
        "8380": 36,
        "8381": 188,
        "8382": 71,
        "8383": 216,
        "8384": 95,
        "8385": 191,
        "8386": 227,
        "8387": 97,
        "8388": 242,
        "8389": 113,
        "8390": 105,
        "8391": 168,
        "8392": 37,
        "8393": 81,
        "8394": 231,
        "8395": 102,
        "8396": 97,
        "8397": 139,
        "8398": 214,
        "8399": 148,
        "8400": 140,
        "8401": 217,
        "8402": 67,
        "8403": 82,
        "8404": 234,
        "8405": 214,
        "8406": 250,
        "8407": 223,
        "8408": 88,
        "8409": 156,
        "8410": 158,
        "8411": 38,
        "8412": 42,
        "8413": 198,
        "8414": 176,
        "8415": 87,
        "8416": 235,
        "8417": 189,
        "8418": 22,
        "8419": 168,
        "8420": 93,
        "8421": 41,
        "8422": 47,
        "8423": 60,
        "8424": 203,
        "8425": 217,
        "8426": 85,
        "8427": 104,
        "8428": 20,
        "8429": 38,
        "8430": 73,
        "8431": 81,
        "8432": 194,
        "8433": 109,
        "8434": 130,
        "8435": 226,
        "8436": 200,
        "8437": 84,
        "8438": 134,
        "8439": 244,
        "8440": 59,
        "8441": 40,
        "8442": 141,
        "8443": 79,
        "8444": 169,
        "8445": 207,
        "8446": 51,
        "8447": 204,
        "8448": 26,
        "8449": 135,
        "8450": 95,
        "8451": 128,
        "8452": 254,
        "8453": 123,
        "8454": 208,
        "8455": 31,
        "8456": 11,
        "8457": 37,
        "8458": 155,
        "8459": 138,
        "8460": 74,
        "8461": 64,
        "8462": 74,
        "8463": 39,
        "8464": 81,
        "8465": 150,
        "8466": 194,
        "8467": 235,
        "8468": 232,
        "8469": 28,
        "8470": 255,
        "8471": 80,
        "8472": 195,
        "8473": 243,
        "8474": 157,
        "8475": 184,
        "8476": 0,
        "8477": 0,
        "8478": 234,
        "8479": 248,
        "8480": 170,
        "8481": 18,
        "8482": 238,
        "8483": 231,
        "8484": 7,
        "8485": 118,
        "8486": 221,
        "8487": 165,
        "8488": 150,
        "8489": 72,
        "8490": 158,
        "8491": 89,
        "8492": 190,
        "8493": 19,
        "8494": 127,
        "8495": 60,
        "8496": 56,
        "8497": 205,
        "8498": 235,
        "8499": 8,
        "8500": 96,
        "8501": 84,
        "8502": 53,
        "8503": 65,
        "8504": 65,
        "8505": 107,
        "8506": 247,
        "8507": 197,
        "8508": 248,
        "8509": 218,
        "8510": 60,
        "8511": 36,
        "8512": 109,
        "8513": 8,
        "8514": 139,
        "8515": 36,
        "8516": 162,
        "8517": 129,
        "8518": 112,
        "8519": 113,
        "8520": 139,
        "8521": 116,
        "8522": 237,
        "8523": 65,
        "8524": 30,
        "8525": 83,
        "8526": 115,
        "8527": 199,
        "8528": 93,
        "8529": 218,
        "8530": 175,
        "8531": 0,
        "8532": 184,
        "8533": 60,
        "8534": 52,
        "8535": 34,
        "8536": 188,
        "8537": 125,
        "8538": 19,
        "8539": 250,
        "8540": 231,
        "8541": 190,
        "8542": 111,
        "8543": 138,
        "8544": 145,
        "8545": 212,
        "8546": 211,
        "8547": 62,
        "8548": 169,
        "8549": 22,
        "8550": 67,
        "8551": 189,
        "8552": 182,
        "8553": 12,
        "8554": 116,
        "8555": 53,
        "8556": 95,
        "8557": 154,
        "8558": 156,
        "8559": 196,
        "8560": 164,
        "8561": 100,
        "8562": 4,
        "8563": 147,
        "8564": 108,
        "8565": 69,
        "8566": 44,
        "8567": 99,
        "8568": 231,
        "8569": 145,
        "8570": 179,
        "8571": 51,
        "8572": 233,
        "8573": 74,
        "8574": 173,
        "8575": 71,
        "8576": 114,
        "8577": 116,
        "8578": 4,
        "8579": 195,
        "8580": 147,
        "8581": 254,
        "8582": 76,
        "8583": 204,
        "8584": 17,
        "8585": 234,
        "8586": 118,
        "8587": 126,
        "8588": 255,
        "8589": 157,
        "8590": 66,
        "8591": 208,
        "8592": 162,
        "8593": 222,
        "8594": 138,
        "8595": 254,
        "8596": 203,
        "8597": 238,
        "8598": 242,
        "8599": 93,
        "8600": 90,
        "8601": 152,
        "8602": 120,
        "8603": 5,
        "8604": 249,
        "8605": 98,
        "8606": 226,
        "8607": 165,
        "8608": 231,
        "8609": 97,
        "8610": 159,
        "8611": 212,
        "8612": 77,
        "8613": 160,
        "8614": 34,
        "8615": 31,
        "8616": 78,
        "8617": 92,
        "8618": 47,
        "8619": 121,
        "8620": 192,
        "8621": 138,
        "8622": 43,
        "8623": 229,
        "8624": 27,
        "8625": 42,
        "8626": 236,
        "8627": 20,
        "8628": 88,
        "8629": 185,
        "8630": 250,
        "8631": 181,
        "8632": 138,
        "8633": 206,
        "8634": 250,
        "8635": 6,
        "8636": 186,
        "8637": 114,
        "8638": 129,
        "8639": 140,
        "8640": 130,
        "8641": 239,
        "8642": 249,
        "8643": 161,
        "8644": 230,
        "8645": 69,
        "8646": 180,
        "8647": 177,
        "8648": 30,
        "8649": 86,
        "8650": 89,
        "8651": 195,
        "8652": 157,
        "8653": 214,
        "8654": 218,
        "8655": 225,
        "8656": 220,
        "8657": 180,
        "8658": 189,
        "8659": 202,
        "8660": 88,
        "8661": 173,
        "8662": 72,
        "8663": 122,
        "8664": 97,
        "8665": 81,
        "8666": 103,
        "8667": 133,
        "8668": 150,
        "8669": 237,
        "8670": 78,
        "8671": 144,
        "8672": 28,
        "8673": 22,
        "8674": 73,
        "8675": 197,
        "8676": 159,
        "8677": 2,
        "8678": 142,
        "8679": 121,
        "8680": 105,
        "8681": 91,
        "8682": 219,
        "8683": 169,
        "8684": 225,
        "8685": 65,
        "8686": 0,
        "8687": 97,
        "8688": 101,
        "8689": 108,
        "8690": 213,
        "8691": 87,
        "8692": 16,
        "8693": 191,
        "8694": 194,
        "8695": 196,
        "8696": 119,
        "8697": 23,
        "8698": 202,
        "8699": 187,
        "8700": 251,
        "8701": 70,
        "8702": 88,
        "8703": 124,
        "8704": 147,
        "8705": 139,
        "8706": 70,
        "8707": 43,
        "8708": 130,
        "8709": 41,
        "8710": 100,
        "8711": 160,
        "8712": 105,
        "8713": 115,
        "8714": 65,
        "8715": 75,
        "8716": 229,
        "8717": 185,
        "8718": 10,
        "8719": 15,
        "8720": 125,
        "8721": 167,
        "8722": 158,
        "8723": 161,
        "8724": 84,
        "8725": 139,
        "8726": 64,
        "8727": 246,
        "8728": 32,
        "8729": 39,
        "8730": 130,
        "8731": 152,
        "8732": 107,
        "8733": 46,
        "8734": 107,
        "8735": 185,
        "8736": 24,
        "8737": 41,
        "8738": 148,
        "8739": 104,
        "8740": 55,
        "8741": 124,
        "8742": 191,
        "8743": 115,
        "8744": 41,
        "8745": 50,
        "8746": 241,
        "8747": 84,
        "8748": 155,
        "8749": 194,
        "8750": 246,
        "8751": 23,
        "8752": 112,
        "8753": 126,
        "8754": 152,
        "8755": 226,
        "8756": 85,
        "8757": 231,
        "8758": 221,
        "8759": 140,
        "8760": 141,
        "8761": 61,
        "8762": 60,
        "8763": 176,
        "8764": 198,
        "8765": 5,
        "8766": 199,
        "8767": 54,
        "8768": 182,
        "8769": 215,
        "8770": 23,
        "8771": 94,
        "8772": 253,
        "8773": 140,
        "8774": 163,
        "8775": 114,
        "8776": 7,
        "8777": 19,
        "8778": 68,
        "8779": 232,
        "8780": 182,
        "8781": 121,
        "8782": 215,
        "8783": 253,
        "8784": 22,
        "8785": 95,
        "8786": 227,
        "8787": 15,
        "8788": 194,
        "8789": 127,
        "8790": 225,
        "8791": 213,
        "8792": 73,
        "8793": 235,
        "8794": 113,
        "8795": 102,
        "8796": 222,
        "8797": 46,
        "8798": 81,
        "8799": 212,
        "8800": 63,
        "8801": 168,
        "8802": 185,
        "8803": 222,
        "8804": 254,
        "8805": 48,
        "8806": 18,
        "8807": 107,
        "8808": 43,
        "8809": 45,
        "8810": 129,
        "8811": 103,
        "8812": 186,
        "8813": 115,
        "8814": 19,
        "8815": 176,
        "8816": 201,
        "8817": 116,
        "8818": 86,
        "8819": 236,
        "8820": 172,
        "8821": 104,
        "8822": 188,
        "8823": 50,
        "8824": 13,
        "8825": 32,
        "8826": 242,
        "8827": 248,
        "8828": 231,
        "8829": 84,
        "8830": 48,
        "8831": 20,
        "8832": 4,
        "8833": 183,
        "8834": 19,
        "8835": 217,
        "8836": 182,
        "8837": 207,
        "8838": 198,
        "8839": 151,
        "8840": 186,
        "8841": 102,
        "8842": 209,
        "8843": 200,
        "8844": 87,
        "8845": 173,
        "8846": 226,
        "8847": 253,
        "8848": 7,
        "8849": 77,
        "8850": 84,
        "8851": 197,
        "8852": 188,
        "8853": 132,
        "8854": 228,
        "8855": 59,
        "8856": 46,
        "8857": 106,
        "8858": 24,
        "8859": 58,
        "8860": 226,
        "8861": 164,
        "8862": 210,
        "8863": 191,
        "8864": 11,
        "8865": 9,
        "8866": 58,
        "8867": 130,
        "8868": 246,
        "8869": 94,
        "8870": 40,
        "8871": 153,
        "8872": 100,
        "8873": 83,
        "8874": 122,
        "8875": 204,
        "8876": 138,
        "8877": 236,
        "8878": 243,
        "8879": 110,
        "8880": 1,
        "8881": 112,
        "8882": 224,
        "8883": 140,
        "8884": 179,
        "8885": 123,
        "8886": 234,
        "8887": 29,
        "8888": 88,
        "8889": 221,
        "8890": 74,
        "8891": 182,
        "8892": 234,
        "8893": 73,
        "8894": 241,
        "8895": 145,
        "8896": 199,
        "8897": 80,
        "8898": 26,
        "8899": 100,
        "8900": 230,
        "8901": 229,
        "8902": 153,
        "8903": 144,
        "8904": 154,
        "8905": 143,
        "8906": 92,
        "8907": 180,
        "8908": 143,
        "8909": 167,
        "8910": 155,
        "8911": 142,
        "8912": 30,
        "8913": 243,
        "8914": 21,
        "8915": 137,
        "8916": 137,
        "8917": 253,
        "8918": 181,
        "8919": 158,
        "8920": 251,
        "8921": 175,
        "8922": 59,
        "8923": 201,
        "8924": 34,
        "8925": 250,
        "8926": 56,
        "8927": 16,
        "8928": 177,
        "8929": 202,
        "8930": 209,
        "8931": 211,
        "8932": 204,
        "8933": 71,
        "8934": 100,
        "8935": 173,
        "8936": 43,
        "8937": 102,
        "8938": 200,
        "8939": 145,
        "8940": 195,
        "8941": 20,
        "8942": 111,
        "8943": 13,
        "8944": 118,
        "8945": 145,
        "8946": 8,
        "8947": 192,
        "8948": 38,
        "8949": 200,
        "8950": 186,
        "8951": 61,
        "8952": 27,
        "8953": 62,
        "8954": 111,
        "8955": 36,
        "8956": 211,
        "8957": 222,
        "8958": 97,
        "8959": 14,
        "8960": 133,
        "8961": 47,
        "8962": 125,
        "8963": 176,
        "8964": 147,
        "8965": 126,
        "8966": 171,
        "8967": 180,
        "8968": 144,
        "8969": 17,
        "8970": 112,
        "8971": 253,
        "8972": 72,
        "8973": 96,
        "8974": 112,
        "8975": 121,
        "8976": 253,
        "8977": 134,
        "8978": 77,
        "8979": 183,
        "8980": 23,
        "8981": 129,
        "8982": 167,
        "8983": 45,
        "8984": 199,
        "8985": 118,
        "8986": 182,
        "8987": 169,
        "8988": 182,
        "8989": 91,
        "8990": 153,
        "8991": 71,
        "8992": 142,
        "8993": 171,
        "8994": 101,
        "8995": 47,
        "8996": 249,
        "8997": 73,
        "8998": 185,
        "8999": 12,
        "9000": 131,
        "9001": 91,
        "9002": 44,
        "9003": 136,
        "9004": 195,
        "9005": 231,
        "9006": 65,
        "9007": 237,
        "9008": 160,
        "9009": 239,
        "9010": 118,
        "9011": 6,
        "9012": 107,
        "9013": 26,
        "9014": 93,
        "9015": 104,
        "9016": 140,
        "9017": 234,
        "9018": 180,
        "9019": 144,
        "9020": 57,
        "9021": 217,
        "9022": 53,
        "9023": 145,
        "9024": 40,
        "9025": 214,
        "9026": 247,
        "9027": 15,
        "9028": 229,
        "9029": 25,
        "9030": 27,
        "9031": 51,
        "9032": 49,
        "9033": 60,
        "9034": 228,
        "9035": 145,
        "9036": 198,
        "9037": 242,
        "9038": 122,
        "9039": 152,
        "9040": 39,
        "9041": 86,
        "9042": 67,
        "9043": 112,
        "9044": 84,
        "9045": 232,
        "9046": 179,
        "9047": 173,
        "9048": 34,
        "9049": 195,
        "9050": 47,
        "9051": 42,
        "9052": 214,
        "9053": 255,
        "9054": 12,
        "9055": 166,
        "9056": 7,
        "9057": 128,
        "9058": 39,
        "9059": 182,
        "9060": 240,
        "9061": 190,
        "9062": 107,
        "9063": 78,
        "9064": 77,
        "9065": 229,
        "9066": 76,
        "9067": 24,
        "9068": 168,
        "9069": 142,
        "9070": 116,
        "9071": 221,
        "9072": 30,
        "9073": 108,
        "9074": 22,
        "9075": 68,
        "9076": 109,
        "9077": 200,
        "9078": 250,
        "9079": 177,
        "9080": 123,
        "9081": 6,
        "9082": 221,
        "9083": 5,
        "9084": 225,
        "9085": 50,
        "9086": 222,
        "9087": 98,
        "9088": 161,
        "9089": 159,
        "9090": 211,
        "9091": 178,
        "9092": 107,
        "9093": 216,
        "9094": 50,
        "9095": 58,
        "9096": 126,
        "9097": 110,
        "9098": 234,
        "9099": 202,
        "9100": 19,
        "9101": 73,
        "9102": 90,
        "9103": 113,
        "9104": 129,
        "9105": 195,
        "9106": 130,
        "9107": 123,
        "9108": 155,
        "9109": 243,
        "9110": 12,
        "9111": 238,
        "9112": 118,
        "9113": 102,
        "9114": 59,
        "9115": 184,
        "9116": 192,
        "9117": 122,
        "9118": 43,
        "9119": 121,
        "9120": 31,
        "9121": 127,
        "9122": 130,
        "9123": 193,
        "9124": 172,
        "9125": 42,
        "9126": 141,
        "9127": 245,
        "9128": 16,
        "9129": 104,
        "9130": 59,
        "9131": 248,
        "9132": 8,
        "9133": 147,
        "9134": 161,
        "9135": 135,
        "9136": 135,
        "9137": 117,
        "9138": 76,
        "9139": 135,
        "9140": 141,
        "9141": 74,
        "9142": 152,
        "9143": 89,
        "9144": 222,
        "9145": 99,
        "9146": 13,
        "9147": 195,
        "9148": 75,
        "9149": 152,
        "9150": 130,
        "9151": 62,
        "9152": 139,
        "9153": 88,
        "9154": 13,
        "9155": 171,
        "9156": 3,
        "9157": 201,
        "9158": 177,
        "9159": 111,
        "9160": 41,
        "9161": 0,
        "9162": 41,
        "9163": 73,
        "9164": 92,
        "9165": 139,
        "9166": 151,
        "9167": 184,
        "9168": 64,
        "9169": 250,
        "9170": 247,
        "9171": 255,
        "9172": 87,
        "9173": 9,
        "9174": 149,
        "9175": 17,
        "9176": 47,
        "9177": 131,
        "9178": 137,
        "9179": 138,
        "9180": 164,
        "9181": 160,
        "9182": 104,
        "9183": 92,
        "9184": 10,
        "9185": 82,
        "9186": 182,
        "9187": 45,
        "9188": 55,
        "9189": 49,
        "9190": 251,
        "9191": 2,
        "9192": 165,
        "9193": 195,
        "9194": 145,
        "9195": 5,
        "9196": 18,
        "9197": 185,
        "9198": 253,
        "9199": 89,
        "9200": 238,
        "9201": 18,
        "9202": 14,
        "9203": 252,
        "9204": 2,
        "9205": 246,
        "9206": 200,
        "9207": 157,
        "9208": 113,
        "9209": 114,
        "9210": 56,
        "9211": 97,
        "9212": 31,
        "9213": 209,
        "9214": 121,
        "9215": 126,
        "9216": 6,
        "9217": 32,
        "9218": 104,
        "9219": 172,
        "9220": 237,
        "9221": 183,
        "9222": 24,
        "9223": 94,
        "9224": 229,
        "9225": 164,
        "9226": 240,
        "9227": 58,
        "9228": 201,
        "9229": 214,
        "9230": 7,
        "9231": 10,
        "9232": 5,
        "9233": 69,
        "9234": 81,
        "9235": 58,
        "9236": 199,
        "9237": 19,
        "9238": 18,
        "9239": 119,
        "9240": 150,
        "9241": 148,
        "9242": 234,
        "9243": 180,
        "9244": 105,
        "9245": 186,
        "9246": 177,
        "9247": 155,
        "9248": 241,
        "9249": 138,
        "9250": 59,
        "9251": 57,
        "9252": 219,
        "9253": 126,
        "9254": 251,
        "9255": 76,
        "9256": 253,
        "9257": 179,
        "9258": 92,
        "9259": 160,
        "9260": 125,
        "9261": 125,
        "9262": 182,
        "9263": 242,
        "9264": 45,
        "9265": 88,
        "9266": 66,
        "9267": 100,
        "9268": 105,
        "9269": 32,
        "9270": 117,
        "9271": 167,
        "9272": 173,
        "9273": 26,
        "9274": 132,
        "9275": 31,
        "9276": 151,
        "9277": 72,
        "9278": 254,
        "9279": 49,
        "9280": 11,
        "9281": 250,
        "9282": 97,
        "9283": 21,
        "9284": 252,
        "9285": 0,
        "9286": 231,
        "9287": 218,
        "9288": 75,
        "9289": 29,
        "9290": 98,
        "9291": 230,
        "9292": 1,
        "9293": 123,
        "9294": 88,
        "9295": 126,
        "9296": 55,
        "9297": 150,
        "9298": 140,
        "9299": 190,
        "9300": 212,
        "9301": 10,
        "9302": 161,
        "9303": 223,
        "9304": 137,
        "9305": 222,
        "9306": 98,
        "9307": 1,
        "9308": 66,
        "9309": 49,
        "9310": 63,
        "9311": 35,
        "9312": 197,
        "9313": 169,
        "9314": 140,
        "9315": 49,
        "9316": 5,
        "9317": 99,
        "9318": 39,
        "9319": 145,
        "9320": 182,
        "9321": 183,
        "9322": 167,
        "9323": 152,
        "9324": 222,
        "9325": 88,
        "9326": 174,
        "9327": 9,
        "9328": 59,
        "9329": 16,
        "9330": 27,
        "9331": 56,
        "9332": 228,
        "9333": 130,
        "9334": 41,
        "9335": 179,
        "9336": 166,
        "9337": 19,
        "9338": 32,
        "9339": 199,
        "9340": 45,
        "9341": 132,
        "9342": 171,
        "9343": 17,
        "9344": 228,
        "9345": 186,
        "9346": 249,
        "9347": 240,
        "9348": 205,
        "9349": 139,
        "9350": 159,
        "9351": 85,
        "9352": 252,
        "9353": 241,
        "9354": 56,
        "9355": 241,
        "9356": 224,
        "9357": 161,
        "9358": 192,
        "9359": 94,
        "9360": 97,
        "9361": 74,
        "9362": 108,
        "9363": 104,
        "9364": 207,
        "9365": 162,
        "9366": 245,
        "9367": 171,
        "9368": 52,
        "9369": 235,
        "9370": 185,
        "9371": 95,
        "9372": 30,
        "9373": 244,
        "9374": 248,
        "9375": 226,
        "9376": 233,
        "9377": 240,
        "9378": 104,
        "9379": 57,
        "9380": 111,
        "9381": 9,
        "9382": 245,
        "9383": 169,
        "9384": 82,
        "9385": 223,
        "9386": 158,
        "9387": 250,
        "9388": 20,
        "9389": 17,
        "9390": 81,
        "9391": 221,
        "9392": 191,
        "9393": 89,
        "9394": 1,
        "9395": 86,
        "9396": 27,
        "9397": 68,
        "9398": 7,
        "9399": 103,
        "9400": 139,
        "9401": 49,
        "9402": 12,
        "9403": 247,
        "9404": 5,
        "9405": 146,
        "9406": 40,
        "9407": 252,
        "9408": 180,
        "9409": 230,
        "9410": 206,
        "9411": 57,
        "9412": 49,
        "9413": 35,
        "9414": 17,
        "9415": 26,
        "9416": 101,
        "9417": 176,
        "9418": 208,
        "9419": 194,
        "9420": 239,
        "9421": 127,
        "9422": 214,
        "9423": 101,
        "9424": 117,
        "9425": 209,
        "9426": 4,
        "9427": 88,
        "9428": 131,
        "9429": 218,
        "9430": 185,
        "9431": 93,
        "9432": 97,
        "9433": 51,
        "9434": 162,
        "9435": 52,
        "9436": 169,
        "9437": 202,
        "9438": 141,
        "9439": 119,
        "9440": 164,
        "9441": 199,
        "9442": 35,
        "9443": 82,
        "9444": 86,
        "9445": 14,
        "9446": 123,
        "9447": 232,
        "9448": 66,
        "9449": 125,
        "9450": 11,
        "9451": 2,
        "9452": 116,
        "9453": 65,
        "9454": 0,
        "9455": 24,
        "9456": 92,
        "9457": 71,
        "9458": 74,
        "9459": 112,
        "9460": 209,
        "9461": 108,
        "9462": 203,
        "9463": 9,
        "9464": 212,
        "9465": 44,
        "9466": 109,
        "9467": 98,
        "9468": 136,
        "9469": 23,
        "9470": 109,
        "9471": 16,
        "9472": 254,
        "9473": 141,
        "9474": 10,
        "9475": 239,
        "9476": 239,
        "9477": 153,
        "9478": 231,
        "9479": 71,
        "9480": 54,
        "9481": 143,
        "9482": 70,
        "9483": 23,
        "9484": 226,
        "9485": 250,
        "9486": 150,
        "9487": 28,
        "9488": 214,
        "9489": 205,
        "9490": 53,
        "9491": 228,
        "9492": 34,
        "9493": 105,
        "9494": 92,
        "9495": 21,
        "9496": 16,
        "9497": 226,
        "9498": 119,
        "9499": 221,
        "9500": 130,
        "9501": 116,
        "9502": 218,
        "9503": 146,
        "9504": 178,
        "9505": 160,
        "9506": 207,
        "9507": 8,
        "9508": 54,
        "9509": 43,
        "9510": 249,
        "9511": 89,
        "9512": 62,
        "9513": 5,
        "9514": 108,
        "9515": 252,
        "9516": 19,
        "9517": 226,
        "9518": 54,
        "9519": 153,
        "9520": 182,
        "9521": 129,
        "9522": 12,
        "9523": 90,
        "9524": 203,
        "9525": 119,
        "9526": 209,
        "9527": 108,
        "9528": 14,
        "9529": 176,
        "9530": 209,
        "9531": 2,
        "9532": 58,
        "9533": 10,
        "9534": 216,
        "9535": 140,
        "9536": 19,
        "9537": 152,
        "9538": 226,
        "9539": 241,
        "9540": 215,
        "9541": 208,
        "9542": 148,
        "9543": 229,
        "9544": 80,
        "9545": 134,
        "9546": 45,
        "9547": 236,
        "9548": 208,
        "9549": 48,
        "9550": 93,
        "9551": 57,
        "9552": 159,
        "9553": 47,
        "9554": 145,
        "9555": 213,
        "9556": 209,
        "9557": 149,
        "9558": 156,
        "9559": 146,
        "9560": 32,
        "9561": 241,
        "9562": 150,
        "9563": 58,
        "9564": 78,
        "9565": 191,
        "9566": 77,
        "9567": 243,
        "9568": 2,
        "9569": 82,
        "9570": 137,
        "9571": 148,
        "9572": 227,
        "9573": 142,
        "9574": 131,
        "9575": 113,
        "9576": 44,
        "9577": 195,
        "9578": 229,
        "9579": 148,
        "9580": 151,
        "9581": 121,
        "9582": 216,
        "9583": 201,
        "9584": 40,
        "9585": 101,
        "9586": 249,
        "9587": 38,
        "9588": 200,
        "9589": 120,
        "9590": 97,
        "9591": 54,
        "9592": 127,
        "9593": 175,
        "9594": 217,
        "9595": 25,
        "9596": 47,
        "9597": 148,
        "9598": 25,
        "9599": 2,
        "9600": 214,
        "9601": 140,
        "9602": 185,
        "9603": 170,
        "9604": 143,
        "9605": 235,
        "9606": 189,
        "9607": 148,
        "9608": 107,
        "9609": 123,
        "9610": 123,
        "9611": 150,
        "9612": 165,
        "9613": 74,
        "9614": 216,
        "9615": 210,
        "9616": 87,
        "9617": 112,
        "9618": 46,
        "9619": 51,
        "9620": 240,
        "9621": 62,
        "9622": 73,
        "9623": 65,
        "9624": 139,
        "9625": 88,
        "9626": 209,
        "9627": 173,
        "9628": 73,
        "9629": 186,
        "9630": 126,
        "9631": 0,
        "9632": 25,
        "9633": 7,
        "9634": 60,
        "9635": 194,
        "9636": 161,
        "9637": 175,
        "9638": 86,
        "9639": 12,
        "9640": 226,
        "9641": 11,
        "9642": 248,
        "9643": 100,
        "9644": 40,
        "9645": 65,
        "9646": 57,
        "9647": 137,
        "9648": 202,
        "9649": 37,
        "9650": 189,
        "9651": 85,
        "9652": 106,
        "9653": 74,
        "9654": 35,
        "9655": 92,
        "9656": 22,
        "9657": 247,
        "9658": 21,
        "9659": 44,
        "9660": 82,
        "9661": 53,
        "9662": 168,
        "9663": 241,
        "9664": 159,
        "9665": 200,
        "9666": 164,
        "9667": 43,
        "9668": 248,
        "9669": 248,
        "9670": 236,
        "9671": 198,
        "9672": 117,
        "9673": 104,
        "9674": 197,
        "9675": 23,
        "9676": 207,
        "9677": 229,
        "9678": 136,
        "9679": 156,
        "9680": 225,
        "9681": 248,
        "9682": 77,
        "9683": 230,
        "9684": 206,
        "9685": 166,
        "9686": 116,
        "9687": 143,
        "9688": 223,
        "9689": 152,
        "9690": 247,
        "9691": 51,
        "9692": 88,
        "9693": 212,
        "9694": 3,
        "9695": 112,
        "9696": 209,
        "9697": 117,
        "9698": 37,
        "9699": 55,
        "9700": 90,
        "9701": 227,
        "9702": 54,
        "9703": 99,
        "9704": 136,
        "9705": 8,
        "9706": 74,
        "9707": 148,
        "9708": 16,
        "9709": 233,
        "9710": 58,
        "9711": 138,
        "9712": 127,
        "9713": 188,
        "9714": 175,
        "9715": 211,
        "9716": 103,
        "9717": 134,
        "9718": 64,
        "9719": 45,
        "9720": 41,
        "9721": 45,
        "9722": 111,
        "9723": 158,
        "9724": 205,
        "9725": 220,
        "9726": 211,
        "9727": 58,
        "9728": 106,
        "9729": 7,
        "9730": 208,
        "9731": 140,
        "9732": 247,
        "9733": 123,
        "9734": 151,
        "9735": 73,
        "9736": 77,
        "9737": 38,
        "9738": 30,
        "9739": 36,
        "9740": 34,
        "9741": 182,
        "9742": 133,
        "9743": 34,
        "9744": 23,
        "9745": 207,
        "9746": 145,
        "9747": 104,
        "9748": 66,
        "9749": 54,
        "9750": 170,
        "9751": 129,
        "9752": 3,
        "9753": 111,
        "9754": 7,
        "9755": 163,
        "9756": 133,
        "9757": 160,
        "9758": 127,
        "9759": 153,
        "9760": 152,
        "9761": 72,
        "9762": 215,
        "9763": 2,
        "9764": 172,
        "9765": 89,
        "9766": 223,
        "9767": 137,
        "9768": 2,
        "9769": 134,
        "9770": 165,
        "9771": 96,
        "9772": 112,
        "9773": 97,
        "9774": 75,
        "9775": 11,
        "9776": 72,
        "9777": 208,
        "9778": 94,
        "9779": 246,
        "9780": 175,
        "9781": 154,
        "9782": 68,
        "9783": 194,
        "9784": 187,
        "9785": 153,
        "9786": 107,
        "9787": 39,
        "9788": 121,
        "9789": 6,
        "9790": 8,
        "9791": 176,
        "9792": 76,
        "9793": 117,
        "9794": 193,
        "9795": 219,
        "9796": 250,
        "9797": 173,
        "9798": 185,
        "9799": 128,
        "9800": 157,
        "9801": 129,
        "9802": 197,
        "9803": 73,
        "9804": 32,
        "9805": 227,
        "9806": 214,
        "9807": 122,
        "9808": 51,
        "9809": 87,
        "9810": 142,
        "9811": 225,
        "9812": 137,
        "9813": 208,
        "9814": 90,
        "9815": 150,
        "9816": 207,
        "9817": 28,
        "9818": 200,
        "9819": 208,
        "9820": 76,
        "9821": 166,
        "9822": 213,
        "9823": 31,
        "9824": 48,
        "9825": 218,
        "9826": 105,
        "9827": 41,
        "9828": 137,
        "9829": 124,
        "9830": 204,
        "9831": 97,
        "9832": 155,
        "9833": 116,
        "9834": 49,
        "9835": 187,
        "9836": 3,
        "9837": 138,
        "9838": 41,
        "9839": 204,
        "9840": 177,
        "9841": 167,
        "9842": 130,
        "9843": 44,
        "9844": 197,
        "9845": 181,
        "9846": 36,
        "9847": 39,
        "9848": 116,
        "9849": 8,
        "9850": 220,
        "9851": 99,
        "9852": 245,
        "9853": 46,
        "9854": 245,
        "9855": 56,
        "9856": 134,
        "9857": 110,
        "9858": 132,
        "9859": 104,
        "9860": 246,
        "9861": 116,
        "9862": 211,
        "9863": 121,
        "9864": 245,
        "9865": 30,
        "9866": 61,
        "9867": 95,
        "9868": 33,
        "9869": 140,
        "9870": 151,
        "9871": 10,
        "9872": 9,
        "9873": 233,
        "9874": 169,
        "9875": 16,
        "9876": 128,
        "9877": 161,
        "9878": 137,
        "9879": 110,
        "9880": 48,
        "9881": 131,
        "9882": 152,
        "9883": 206,
        "9884": 40,
        "9885": 255,
        "9886": 234,
        "9887": 242,
        "9888": 166,
        "9889": 92,
        "9890": 174,
        "9891": 167,
        "9892": 38,
        "9893": 110,
        "9894": 17,
        "9895": 7,
        "9896": 87,
        "9897": 189,
        "9898": 110,
        "9899": 91,
        "9900": 212,
        "9901": 241,
        "9902": 101,
        "9903": 139,
        "9904": 112,
        "9905": 137,
        "9906": 107,
        "9907": 199,
        "9908": 188,
        "9909": 150,
        "9910": 187,
        "9911": 222,
        "9912": 10,
        "9913": 47,
        "9914": 201,
        "9915": 147,
        "9916": 158,
        "9917": 113,
        "9918": 71,
        "9919": 36,
        "9920": 86,
        "9921": 186,
        "9922": 62,
        "9923": 106,
        "9924": 101,
        "9925": 74,
        "9926": 246,
        "9927": 57,
        "9928": 73,
        "9929": 65,
        "9930": 105,
        "9931": 117,
        "9932": 45,
        "9933": 176,
        "9934": 221,
        "9935": 125,
        "9936": 253,
        "9937": 114,
        "9938": 147,
        "9939": 18,
        "9940": 113,
        "9941": 8,
        "9942": 139,
        "9943": 255,
        "9944": 167,
        "9945": 101,
        "9946": 60,
        "9947": 11,
        "9948": 22,
        "9949": 38,
        "9950": 80,
        "9951": 223,
        "9952": 185,
        "9953": 85,
        "9954": 61,
        "9955": 170,
        "9956": 72,
        "9957": 98,
        "9958": 23,
        "9959": 118,
        "9960": 189,
        "9961": 140,
        "9962": 99,
        "9963": 210,
        "9964": 102,
        "9965": 6,
        "9966": 198,
        "9967": 116,
        "9968": 57,
        "9969": 95,
        "9970": 177,
        "9971": 138,
        "9972": 179,
        "9973": 115,
        "9974": 17,
        "9975": 33,
        "9976": 60,
        "9977": 25,
        "9978": 96,
        "9979": 133,
        "9980": 129,
        "9981": 93,
        "9982": 95,
        "9983": 36,
        "9984": 28,
        "9985": 99,
        "9986": 93,
        "9987": 41,
        "9988": 227,
        "9989": 66,
        "9990": 145,
        "9991": 49,
        "9992": 210,
        "9993": 197,
        "9994": 111,
        "9995": 186,
        "9996": 245,
        "9997": 97,
        "9998": 229,
        "9999": 139,
        "10000": 134,
        "10001": 217,
        "10002": 41,
        "10003": 166,
        "10004": 8,
        "10005": 20,
        "10006": 93,
        "10007": 235,
        "10008": 178,
        "10009": 153,
        "10010": 236,
        "10011": 77,
        "10012": 62,
        "10013": 207,
        "10014": 155,
        "10015": 53,
        "10016": 205,
        "10017": 247,
        "10018": 193,
        "10019": 39,
        "10020": 196,
        "10021": 194,
        "10022": 83,
        "10023": 148,
        "10024": 181,
        "10025": 232,
        "10026": 56,
        "10027": 6,
        "10028": 13,
        "10029": 230,
        "10030": 103,
        "10031": 131,
        "10032": 92,
        "10033": 198,
        "10034": 211,
        "10035": 47,
        "10036": 87,
        "10037": 42,
        "10038": 219,
        "10039": 205,
        "10040": 49,
        "10041": 83,
        "10042": 21,
        "10043": 111,
        "10044": 230,
        "10045": 128,
        "10046": 187,
        "10047": 235,
        "10048": 30,
        "10049": 187,
        "10050": 240,
        "10051": 55,
        "10052": 73,
        "10053": 162,
        "10054": 167,
        "10055": 163,
        "10056": 75,
        "10057": 252,
        "10058": 78,
        "10059": 198,
        "10060": 48,
        "10061": 236,
        "10062": 198,
        "10063": 223,
        "10064": 138,
        "10065": 7,
        "10066": 106,
        "10067": 165,
        "10068": 158,
        "10069": 108,
        "10070": 61,
        "10071": 171,
        "10072": 33,
        "10073": 128,
        "10074": 48,
        "10075": 77,
        "10076": 118,
        "10077": 117,
        "10078": 254,
        "10079": 142,
        "10080": 202,
        "10081": 49,
        "10082": 183,
        "10083": 89,
        "10084": 83,
        "10085": 33,
        "10086": 241,
        "10087": 55,
        "10088": 212,
        "10089": 61,
        "10090": 127,
        "10091": 144,
        "10092": 171,
        "10093": 150,
        "10094": 110,
        "10095": 192,
        "10096": 250,
        "10097": 215,
        "10098": 80,
        "10099": 102,
        "10100": 173,
        "10101": 207,
        "10102": 132,
        "10103": 183,
        "10104": 248,
        "10105": 84,
        "10106": 116,
        "10107": 70,
        "10108": 126,
        "10109": 207,
        "10110": 133,
        "10111": 233,
        "10112": 240,
        "10113": 136,
        "10114": 181,
        "10115": 183,
        "10116": 242,
        "10117": 149,
        "10118": 176,
        "10119": 34,
        "10120": 194,
        "10121": 179,
        "10122": 170,
        "10123": 117,
        "10124": 117,
        "10125": 139,
        "10126": 23,
        "10127": 86,
        "10128": 242,
        "10129": 50,
        "10130": 199,
        "10131": 2,
        "10132": 59,
        "10133": 200,
        "10134": 87,
        "10135": 36,
        "10136": 231,
        "10137": 0,
        "10138": 193,
        "10139": 4,
        "10140": 32,
        "10141": 240,
        "10142": 71,
        "10143": 229,
        "10144": 27,
        "10145": 176,
        "10146": 69,
        "10147": 241,
        "10148": 18,
        "10149": 4,
        "10150": 235,
        "10151": 118,
        "10152": 177,
        "10153": 198,
        "10154": 156,
        "10155": 53,
        "10156": 68,
        "10157": 196,
        "10158": 69,
        "10159": 124,
        "10160": 158,
        "10161": 70,
        "10162": 126,
        "10163": 150,
        "10164": 17,
        "10165": 66,
        "10166": 86,
        "10167": 216,
        "10168": 171,
        "10169": 183,
        "10170": 154,
        "10171": 167,
        "10172": 25,
        "10173": 83,
        "10174": 226,
        "10175": 203,
        "10176": 3,
        "10177": 224,
        "10178": 19,
        "10179": 137,
        "10180": 39,
        "10181": 153,
        "10182": 9,
        "10183": 138,
        "10184": 253,
        "10185": 33,
        "10186": 222,
        "10187": 75,
        "10188": 248,
        "10189": 108,
        "10190": 167,
        "10191": 188,
        "10192": 94,
        "10193": 34,
        "10194": 30,
        "10195": 173,
        "10196": 91,
        "10197": 161,
        "10198": 206,
        "10199": 15,
        "10200": 120,
        "10201": 107,
        "10202": 131,
        "10203": 198,
        "10204": 96,
        "10205": 111,
        "10206": 205,
        "10207": 157,
        "10208": 106,
        "10209": 243,
        "10210": 57,
        "10211": 75,
        "10212": 89,
        "10213": 60,
        "10214": 64,
        "10215": 117,
        "10216": 187,
        "10217": 214,
        "10218": 29,
        "10219": 13,
        "10220": 38,
        "10221": 172,
        "10222": 108,
        "10223": 64,
        "10224": 226,
        "10225": 234,
        "10226": 149,
        "10227": 96,
        "10228": 216,
        "10229": 147,
        "10230": 47,
        "10231": 16,
        "10232": 100,
        "10233": 23,
        "10234": 3,
        "10235": 3,
        "10236": 30,
        "10237": 148,
        "10238": 27,
        "10239": 210,
        "10240": 214,
        "10241": 143,
        "10242": 112,
        "10243": 113,
        "10244": 126,
        "10245": 148,
        "10246": 45,
        "10247": 102,
        "10248": 248,
        "10249": 58,
        "10250": 32,
        "10251": 80,
        "10252": 29,
        "10253": 246,
        "10254": 235,
        "10255": 90,
        "10256": 39,
        "10257": 117,
        "10258": 61,
        "10259": 139,
        "10260": 206,
        "10261": 171,
        "10262": 27,
        "10263": 163,
        "10264": 208,
        "10265": 56,
        "10266": 254,
        "10267": 206,
        "10268": 31,
        "10269": 137,
        "10270": 178,
        "10271": 246,
        "10272": 17,
        "10273": 231,
        "10274": 42,
        "10275": 214,
        "10276": 143,
        "10277": 104,
        "10278": 43,
        "10279": 199,
        "10280": 251,
        "10281": 91,
        "10282": 149,
        "10283": 230,
        "10284": 162,
        "10285": 37,
        "10286": 74,
        "10287": 240,
        "10288": 122,
        "10289": 87,
        "10290": 36,
        "10291": 167,
        "10292": 140,
        "10293": 162,
        "10294": 227,
        "10295": 229,
        "10296": 186,
        "10297": 98,
        "10298": 55,
        "10299": 70,
        "10300": 199,
        "10301": 47,
        "10302": 130,
        "10303": 1,
        "10304": 24,
        "10305": 5,
        "10306": 213,
        "10307": 202,
        "10308": 115,
        "10309": 92,
        "10310": 39,
        "10311": 87,
        "10312": 126,
        "10313": 181,
        "10314": 67,
        "10315": 72,
        "10316": 198,
        "10317": 54,
        "10318": 218,
        "10319": 13,
        "10320": 253,
        "10321": 218,
        "10322": 111,
        "10323": 252,
        "10324": 166,
        "10325": 187,
        "10326": 14,
        "10327": 8,
        "10328": 136,
        "10329": 38,
        "10330": 14,
        "10331": 1,
        "10332": 45,
        "10333": 10,
        "10334": 96,
        "10335": 85,
        "10336": 27,
        "10337": 80,
        "10338": 93,
        "10339": 69,
        "10340": 63,
        "10341": 60,
        "10342": 210,
        "10343": 23,
        "10344": 7,
        "10345": 103,
        "10346": 162,
        "10347": 138,
        "10348": 101,
        "10349": 175,
        "10350": 242,
        "10351": 162,
        "10352": 147,
        "10353": 53,
        "10354": 118,
        "10355": 240,
        "10356": 22,
        "10357": 123,
        "10358": 39,
        "10359": 188,
        "10360": 156,
        "10361": 141,
        "10362": 152,
        "10363": 244,
        "10364": 254,
        "10365": 165,
        "10366": 186,
        "10367": 85,
        "10368": 29,
        "10369": 29,
        "10370": 61,
        "10371": 103,
        "10372": 44,
        "10373": 19,
        "10374": 38,
        "10375": 149,
        "10376": 218,
        "10377": 136,
        "10378": 7,
        "10379": 147,
        "10380": 194,
        "10381": 172,
        "10382": 181,
        "10383": 132,
        "10384": 127,
        "10385": 191,
        "10386": 134,
        "10387": 243,
        "10388": 159,
        "10389": 165,
        "10390": 1,
        "10391": 201,
        "10392": 52,
        "10393": 209,
        "10394": 95,
        "10395": 150,
        "10396": 223,
        "10397": 178,
        "10398": 203,
        "10399": 93,
        "10400": 25,
        "10401": 113,
        "10402": 153,
        "10403": 167,
        "10404": 52,
        "10405": 90,
        "10406": 228,
        "10407": 220,
        "10408": 236,
        "10409": 14,
        "10410": 98,
        "10411": 189,
        "10412": 208,
        "10413": 172,
        "10414": 104,
        "10415": 84,
        "10416": 31,
        "10417": 21,
        "10418": 46,
        "10419": 197,
        "10420": 174,
        "10421": 244,
        "10422": 10,
        "10423": 127,
        "10424": 89,
        "10425": 13,
        "10426": 126,
        "10427": 185,
        "10428": 51,
        "10429": 105,
        "10430": 63,
        "10431": 50,
        "10432": 62,
        "10433": 234,
        "10434": 116,
        "10435": 240,
        "10436": 186,
        "10437": 147,
        "10438": 75,
        "10439": 113,
        "10440": 206,
        "10441": 219,
        "10442": 98,
        "10443": 46,
        "10444": 32,
        "10445": 67,
        "10446": 169,
        "10447": 44,
        "10448": 19,
        "10449": 95,
        "10450": 4,
        "10451": 227,
        "10452": 175,
        "10453": 49,
        "10454": 36,
        "10455": 22,
        "10456": 178,
        "10457": 149,
        "10458": 126,
        "10459": 11,
        "10460": 126,
        "10461": 247,
        "10462": 57,
        "10463": 94,
        "10464": 50,
        "10465": 37,
        "10466": 156,
        "10467": 252,
        "10468": 247,
        "10469": 43,
        "10470": 128,
        "10471": 117,
        "10472": 109,
        "10473": 68,
        "10474": 219,
        "10475": 204,
        "10476": 49,
        "10477": 158,
        "10478": 108,
        "10479": 123,
        "10480": 29,
        "10481": 80,
        "10482": 185,
        "10483": 24,
        "10484": 34,
        "10485": 124,
        "10486": 189,
        "10487": 139,
        "10488": 30,
        "10489": 243,
        "10490": 188,
        "10491": 147,
        "10492": 95,
        "10493": 47,
        "10494": 88,
        "10495": 136,
        "10496": 92,
        "10497": 247,
        "10498": 66,
        "10499": 97,
        "10500": 163,
        "10501": 8,
        "10502": 2,
        "10503": 112,
        "10504": 90,
        "10505": 245,
        "10506": 84,
        "10507": 104,
        "10508": 117,
        "10509": 191,
        "10510": 127,
        "10511": 133,
        "10512": 192,
        "10513": 230,
        "10514": 57,
        "10515": 128,
        "10516": 52,
        "10517": 77,
        "10518": 162,
        "10519": 83,
        "10520": 179,
        "10521": 195,
        "10522": 97,
        "10523": 188,
        "10524": 35,
        "10525": 133,
        "10526": 230,
        "10527": 93,
        "10528": 161,
        "10529": 27,
        "10530": 0,
        "10531": 244,
        "10532": 162,
        "10533": 14,
        "10534": 103,
        "10535": 218,
        "10536": 118,
        "10537": 218,
        "10538": 242,
        "10539": 47,
        "10540": 175,
        "10541": 53,
        "10542": 228,
        "10543": 51,
        "10544": 61,
        "10545": 170,
        "10546": 124,
        "10547": 161,
        "10548": 188,
        "10549": 97,
        "10550": 63,
        "10551": 92,
        "10552": 130,
        "10553": 53,
        "10554": 157,
        "10555": 35,
        "10556": 214,
        "10557": 87,
        "10558": 139,
        "10559": 139,
        "10560": 119,
        "10561": 214,
        "10562": 220,
        "10563": 109,
        "10564": 254,
        "10565": 215,
        "10566": 96,
        "10567": 144,
        "10568": 198,
        "10569": 209,
        "10570": 220,
        "10571": 120,
        "10572": 26,
        "10573": 178,
        "10574": 19,
        "10575": 160,
        "10576": 43,
        "10577": 102,
        "10578": 64,
        "10579": 208,
        "10580": 134,
        "10581": 234,
        "10582": 57,
        "10583": 191,
        "10584": 150,
        "10585": 0,
        "10586": 107,
        "10587": 147,
        "10588": 179,
        "10589": 184,
        "10590": 158,
        "10591": 138,
        "10592": 204,
        "10593": 221,
        "10594": 84,
        "10595": 181,
        "10596": 207,
        "10597": 221,
        "10598": 232,
        "10599": 143,
        "10600": 201,
        "10601": 164,
        "10602": 224,
        "10603": 136,
        "10604": 90,
        "10605": 124,
        "10606": 77,
        "10607": 97,
        "10608": 91,
        "10609": 81,
        "10610": 209,
        "10611": 76,
        "10612": 95,
        "10613": 198,
        "10614": 48,
        "10615": 33,
        "10616": 170,
        "10617": 119,
        "10618": 126,
        "10619": 54,
        "10620": 168,
        "10621": 222,
        "10622": 165,
        "10623": 22,
        "10624": 171,
        "10625": 71,
        "10626": 117,
        "10627": 248,
        "10628": 221,
        "10629": 13,
        "10630": 249,
        "10631": 87,
        "10632": 149,
        "10633": 227,
        "10634": 57,
        "10635": 218,
        "10636": 12,
        "10637": 165,
        "10638": 7,
        "10639": 10,
        "10640": 118,
        "10641": 155,
        "10642": 230,
        "10643": 150,
        "10644": 146,
        "10645": 239,
        "10646": 56,
        "10647": 108,
        "10648": 159,
        "10649": 138,
        "10650": 24,
        "10651": 123,
        "10652": 51,
        "10653": 174,
        "10654": 158,
        "10655": 102,
        "10656": 94,
        "10657": 112,
        "10658": 248,
        "10659": 122,
        "10660": 64,
        "10661": 91,
        "10662": 85,
        "10663": 202,
        "10664": 161,
        "10665": 195,
        "10666": 78,
        "10667": 118,
        "10668": 79,
        "10669": 212,
        "10670": 108,
        "10671": 91,
        "10672": 246,
        "10673": 190,
        "10674": 135,
        "10675": 58,
        "10676": 61,
        "10677": 226,
        "10678": 248,
        "10679": 230,
        "10680": 225,
        "10681": 205,
        "10682": 21,
        "10683": 105,
        "10684": 153,
        "10685": 93,
        "10686": 153,
        "10687": 45,
        "10688": 232,
        "10689": 201,
        "10690": 25,
        "10691": 224,
        "10692": 18,
        "10693": 136,
        "10694": 75,
        "10695": 173,
        "10696": 186,
        "10697": 182,
        "10698": 71,
        "10699": 185,
        "10700": 178,
        "10701": 173,
        "10702": 160,
        "10703": 231,
        "10704": 109,
        "10705": 182,
        "10706": 134,
        "10707": 52,
        "10708": 114,
        "10709": 12,
        "10710": 120,
        "10711": 40,
        "10712": 202,
        "10713": 153,
        "10714": 174,
        "10715": 13,
        "10716": 143,
        "10717": 106,
        "10718": 41,
        "10719": 133,
        "10720": 3,
        "10721": 145,
        "10722": 254,
        "10723": 254,
        "10724": 77,
        "10725": 203,
        "10726": 37,
        "10727": 119,
        "10728": 207,
        "10729": 193,
        "10730": 18,
        "10731": 244,
        "10732": 128,
        "10733": 1,
        "10734": 236,
        "10735": 159,
        "10736": 207,
        "10737": 195,
        "10738": 82,
        "10739": 248,
        "10740": 168,
        "10741": 158,
        "10742": 55,
        "10743": 203,
        "10744": 122,
        "10745": 233,
        "10746": 17,
        "10747": 66,
        "10748": 27,
        "10749": 120,
        "10750": 116,
        "10751": 171,
        "10752": 87,
        "10753": 29,
        "10754": 154,
        "10755": 167,
        "10756": 197,
        "10757": 155,
        "10758": 106,
        "10759": 29,
        "10760": 188,
        "10761": 240,
        "10762": 127,
        "10763": 127,
        "10764": 252,
        "10765": 52,
        "10766": 159,
        "10767": 4,
        "10768": 144,
        "10769": 60,
        "10770": 207,
        "10771": 177,
        "10772": 237,
        "10773": 50,
        "10774": 203,
        "10775": 29,
        "10776": 132,
        "10777": 241,
        "10778": 121,
        "10779": 28,
        "10780": 107,
        "10781": 97,
        "10782": 204,
        "10783": 48,
        "10784": 237,
        "10785": 225,
        "10786": 236,
        "10787": 62,
        "10788": 246,
        "10789": 105,
        "10790": 30,
        "10791": 120,
        "10792": 64,
        "10793": 159,
        "10794": 3,
        "10795": 50,
        "10796": 28,
        "10797": 208,
        "10798": 201,
        "10799": 119,
        "10800": 47,
        "10801": 209,
        "10802": 233,
        "10803": 219,
        "10804": 212,
        "10805": 12,
        "10806": 98,
        "10807": 69,
        "10808": 89,
        "10809": 54,
        "10810": 215,
        "10811": 107,
        "10812": 60,
        "10813": 255,
        "10814": 214,
        "10815": 208,
        "10816": 63,
        "10817": 97,
        "10818": 77,
        "10819": 65,
        "10820": 103,
        "10821": 222,
        "10822": 201,
        "10823": 114,
        "10824": 107,
        "10825": 217,
        "10826": 76,
        "10827": 223,
        "10828": 58,
        "10829": 39,
        "10830": 96,
        "10831": 229,
        "10832": 158,
        "10833": 65,
        "10834": 87,
        "10835": 42,
        "10836": 123,
        "10837": 94,
        "10838": 15,
        "10839": 86,
        "10840": 203,
        "10841": 137,
        "10842": 89,
        "10843": 3,
        "10844": 214,
        "10845": 203,
        "10846": 53,
        "10847": 124,
        "10848": 49,
        "10849": 153,
        "10850": 56,
        "10851": 96,
        "10852": 252,
        "10853": 43,
        "10854": 228,
        "10855": 1,
        "10856": 247,
        "10857": 112,
        "10858": 19,
        "10859": 17,
        "10860": 124,
        "10861": 36,
        "10862": 78,
        "10863": 141,
        "10864": 72,
        "10865": 221,
        "10866": 191,
        "10867": 165,
        "10868": 89,
        "10869": 2,
        "10870": 216,
        "10871": 143,
        "10872": 255,
        "10873": 116,
        "10874": 49,
        "10875": 7,
        "10876": 219,
        "10877": 164,
        "10878": 204,
        "10879": 8,
        "10880": 149,
        "10881": 1,
        "10882": 173,
        "10883": 159,
        "10884": 225,
        "10885": 60,
        "10886": 105,
        "10887": 132,
        "10888": 6,
        "10889": 43,
        "10890": 247,
        "10891": 5,
        "10892": 254,
        "10893": 185,
        "10894": 214,
        "10895": 183,
        "10896": 12,
        "10897": 229,
        "10898": 41,
        "10899": 197,
        "10900": 51,
        "10901": 221,
        "10902": 133,
        "10903": 124,
        "10904": 180,
        "10905": 56,
        "10906": 247,
        "10907": 1,
        "10908": 219,
        "10909": 186,
        "10910": 246,
        "10911": 48,
        "10912": 83,
        "10913": 182,
        "10914": 36,
        "10915": 224,
        "10916": 14,
        "10917": 187,
        "10918": 91,
        "10919": 129,
        "10920": 86,
        "10921": 168,
        "10922": 134,
        "10923": 120,
        "10924": 44,
        "10925": 3,
        "10926": 113,
        "10927": 211,
        "10928": 162,
        "10929": 232,
        "10930": 43,
        "10931": 142,
        "10932": 173,
        "10933": 28,
        "10934": 158,
        "10935": 182,
        "10936": 10,
        "10937": 181,
        "10938": 185,
        "10939": 237,
        "10940": 197,
        "10941": 82,
        "10942": 21,
        "10943": 103,
        "10944": 123,
        "10945": 149,
        "10946": 37,
        "10947": 78,
        "10948": 132,
        "10949": 47,
        "10950": 234,
        "10951": 163,
        "10952": 13,
        "10953": 234,
        "10954": 142,
        "10955": 120,
        "10956": 99,
        "10957": 136,
        "10958": 51,
        "10959": 24,
        "10960": 106,
        "10961": 64,
        "10962": 191,
        "10963": 20,
        "10964": 143,
        "10965": 43,
        "10966": 93,
        "10967": 242,
        "10968": 131,
        "10969": 41,
        "10970": 16,
        "10971": 232,
        "10972": 100,
        "10973": 108,
        "10974": 57,
        "10975": 31,
        "10976": 118,
        "10977": 220,
        "10978": 197,
        "10979": 85,
        "10980": 70,
        "10981": 51,
        "10982": 127,
        "10983": 58,
        "10984": 113,
        "10985": 64,
        "10986": 217,
        "10987": 212,
        "10988": 144,
        "10989": 205,
        "10990": 89,
        "10991": 125,
        "10992": 190,
        "10993": 228,
        "10994": 11,
        "10995": 126,
        "10996": 20,
        "10997": 8,
        "10998": 145,
        "10999": 207,
        "11000": 158,
        "11001": 250,
        "11002": 80,
        "11003": 171,
        "11004": 116,
        "11005": 182,
        "11006": 46,
        "11007": 219,
        "11008": 128,
        "11009": 255,
        "11010": 230,
        "11011": 41,
        "11012": 94,
        "11013": 94,
        "11014": 210,
        "11015": 77,
        "11016": 222,
        "11017": 44,
        "11018": 198,
        "11019": 86,
        "11020": 245,
        "11021": 136,
        "11022": 98,
        "11023": 100,
        "11024": 74,
        "11025": 59,
        "11026": 232,
        "11027": 86,
        "11028": 209,
        "11029": 157,
        "11030": 170,
        "11031": 34,
        "11032": 237,
        "11033": 68,
        "11034": 73,
        "11035": 176,
        "11036": 228,
        "11037": 206,
        "11038": 5,
        "11039": 92,
        "11040": 40,
        "11041": 203,
        "11042": 16,
        "11043": 224,
        "11044": 19,
        "11045": 228,
        "11046": 66,
        "11047": 240,
        "11048": 61,
        "11049": 49,
        "11050": 224,
        "11051": 235,
        "11052": 152,
        "11053": 178,
        "11054": 38,
        "11055": 71,
        "11056": 9,
        "11057": 30,
        "11058": 87,
        "11059": 117,
        "11060": 231,
        "11061": 68,
        "11062": 51,
        "11063": 51,
        "11064": 39,
        "11065": 248,
        "11066": 210,
        "11067": 7,
        "11068": 74,
        "11069": 201,
        "11070": 120,
        "11071": 116,
        "11072": 187,
        "11073": 140,
        "11074": 223,
        "11075": 129,
        "11076": 88,
        "11077": 231,
        "11078": 102,
        "11079": 225,
        "11080": 49,
        "11081": 133,
        "11082": 126,
        "11083": 43,
        "11084": 23,
        "11085": 147,
        "11086": 105,
        "11087": 222,
        "11088": 60,
        "11089": 145,
        "11090": 9,
        "11091": 139,
        "11092": 229,
        "11093": 38,
        "11094": 98,
        "11095": 230,
        "11096": 189,
        "11097": 177,
        "11098": 184,
        "11099": 152,
        "11100": 176,
        "11101": 243,
        "11102": 3,
        "11103": 245,
        "11104": 128,
        "11105": 136,
        "11106": 101,
        "11107": 21,
        "11108": 238,
        "11109": 71,
        "11110": 195,
        "11111": 211,
        "11112": 82,
        "11113": 247,
        "11114": 71,
        "11115": 137,
        "11116": 209,
        "11117": 183,
        "11118": 61,
        "11119": 87,
        "11120": 132,
        "11121": 65,
        "11122": 253,
        "11123": 171,
        "11124": 145,
        "11125": 169,
        "11126": 112,
        "11127": 67,
        "11128": 233,
        "11129": 175,
        "11130": 248,
        "11131": 106,
        "11132": 251,
        "11133": 203,
        "11134": 127,
        "11135": 105,
        "11136": 14,
        "11137": 211,
        "11138": 169,
        "11139": 36,
        "11140": 191,
        "11141": 92,
        "11142": 29,
        "11143": 154,
        "11144": 23,
        "11145": 36,
        "11146": 57,
        "11147": 119,
        "11148": 86,
        "11149": 68,
        "11150": 141,
        "11151": 99,
        "11152": 255,
        "11153": 72,
        "11154": 8,
        "11155": 108,
        "11156": 191,
        "11157": 90,
        "11158": 243,
        "11159": 107,
        "11160": 69,
        "11161": 113,
        "11162": 215,
        "11163": 237,
        "11164": 218,
        "11165": 33,
        "11166": 7,
        "11167": 252,
        "11168": 248,
        "11169": 165,
        "11170": 49,
        "11171": 205,
        "11172": 64,
        "11173": 121,
        "11174": 66,
        "11175": 181,
        "11176": 174,
        "11177": 20,
        "11178": 140,
        "11179": 251,
        "11180": 142,
        "11181": 67,
        "11182": 114,
        "11183": 85,
        "11184": 4,
        "11185": 155,
        "11186": 112,
        "11187": 31,
        "11188": 128,
        "11189": 171,
        "11190": 26,
        "11191": 108,
        "11192": 26,
        "11193": 12,
        "11194": 120,
        "11195": 209,
        "11196": 188,
        "11197": 77,
        "11198": 219,
        "11199": 23,
        "11200": 116,
        "11201": 70,
        "11202": 247,
        "11203": 153,
        "11204": 66,
        "11205": 58,
        "11206": 31,
        "11207": 175,
        "11208": 150,
        "11209": 36,
        "11210": 61,
        "11211": 93,
        "11212": 198,
        "11213": 18,
        "11214": 6,
        "11215": 108,
        "11216": 26,
        "11217": 52,
        "11218": 166,
        "11219": 52,
        "11220": 98,
        "11221": 62,
        "11222": 132,
        "11223": 106,
        "11224": 91,
        "11225": 251,
        "11226": 138,
        "11227": 197,
        "11228": 13,
        "11229": 106,
        "11230": 58,
        "11231": 245,
        "11232": 194,
        "11233": 169,
        "11234": 151,
        "11235": 64,
        "11236": 57,
        "11237": 91,
        "11238": 132,
        "11239": 63,
        "11240": 226,
        "11241": 239,
        "11242": 211,
        "11243": 149,
        "11244": 226,
        "11245": 248,
        "11246": 155,
        "11247": 189,
        "11248": 10,
        "11249": 230,
        "11250": 8,
        "11251": 34,
        "11252": 113,
        "11253": 83,
        "11254": 73,
        "11255": 66,
        "11256": 185,
        "11257": 94,
        "11258": 47,
        "11259": 18,
        "11260": 139,
        "11261": 139,
        "11262": 79,
        "11263": 240,
        "11264": 208,
        "11265": 250,
        "11266": 190,
        "11267": 234,
        "11268": 217,
        "11269": 60,
        "11270": 158,
        "11271": 212,
        "11272": 230,
        "11273": 37,
        "11274": 216,
        "11275": 169,
        "11276": 76,
        "11277": 111,
        "11278": 185,
        "11279": 76,
        "11280": 157,
        "11281": 104,
        "11282": 214,
        "11283": 242,
        "11284": 154,
        "11285": 242,
        "11286": 118,
        "11287": 58,
        "11288": 93,
        "11289": 82,
        "11290": 163,
        "11291": 46,
        "11292": 79,
        "11293": 79,
        "11294": 127,
        "11295": 1,
        "11296": 153,
        "11297": 249,
        "11298": 170,
        "11299": 8,
        "11300": 220,
        "11301": 65,
        "11302": 153,
        "11303": 9,
        "11304": 151,
        "11305": 129,
        "11306": 183,
        "11307": 189,
        "11308": 187,
        "11309": 99,
        "11310": 207,
        "11311": 240,
        "11312": 251,
        "11313": 77,
        "11314": 140,
        "11315": 174,
        "11316": 30,
        "11317": 31,
        "11318": 119,
        "11319": 87,
        "11320": 105,
        "11321": 238,
        "11322": 31,
        "11323": 116,
        "11324": 251,
        "11325": 62,
        "11326": 130,
        "11327": 42,
        "11328": 100,
        "11329": 98,
        "11330": 71,
        "11331": 123,
        "11332": 120,
        "11333": 1,
        "11334": 220,
        "11335": 234,
        "11336": 112,
        "11337": 15,
        "11338": 133,
        "11339": 48,
        "11340": 147,
        "11341": 198,
        "11342": 134,
        "11343": 229,
        "11344": 221,
        "11345": 140,
        "11346": 177,
        "11347": 129,
        "11348": 215,
        "11349": 125,
        "11350": 214,
        "11351": 103,
        "11352": 43,
        "11353": 234,
        "11354": 198,
        "11355": 93,
        "11356": 182,
        "11357": 216,
        "11358": 116,
        "11359": 246,
        "11360": 209,
        "11361": 228,
        "11362": 127,
        "11363": 252,
        "11364": 140,
        "11365": 144,
        "11366": 89,
        "11367": 251,
        "11368": 22,
        "11369": 162,
        "11370": 57,
        "11371": 188,
        "11372": 203,
        "11373": 43,
        "11374": 24,
        "11375": 125,
        "11376": 225,
        "11377": 70,
        "11378": 121,
        "11379": 91,
        "11380": 140,
        "11381": 38,
        "11382": 33,
        "11383": 39,
        "11384": 24,
        "11385": 149,
        "11386": 59,
        "11387": 2,
        "11388": 121,
        "11389": 63,
        "11390": 57,
        "11391": 243,
        "11392": 84,
        "11393": 29,
        "11394": 18,
        "11395": 200,
        "11396": 204,
        "11397": 8,
        "11398": 6,
        "11399": 130,
        "11400": 120,
        "11401": 184,
        "11402": 105,
        "11403": 30,
        "11404": 149,
        "11405": 7,
        "11406": 123,
        "11407": 15,
        "11408": 115,
        "11409": 26,
        "11410": 251,
        "11411": 62,
        "11412": 87,
        "11413": 176,
        "11414": 179,
        "11415": 139,
        "11416": 93,
        "11417": 182,
        "11418": 48,
        "11419": 207,
        "11420": 0,
        "11421": 50,
        "11422": 97,
        "11423": 175,
        "11424": 18,
        "11425": 209,
        "11426": 25,
        "11427": 121,
        "11428": 81,
        "11429": 33,
        "11430": 88,
        "11431": 5,
        "11432": 201,
        "11433": 222,
        "11434": 167,
        "11435": 220,
        "11436": 112,
        "11437": 199,
        "11438": 34,
        "11439": 36,
        "11440": 141,
        "11441": 78,
        "11442": 36,
        "11443": 217,
        "11444": 34,
        "11445": 48,
        "11446": 123,
        "11447": 254,
        "11448": 29,
        "11449": 222,
        "11450": 191,
        "11451": 233,
        "11452": 160,
        "11453": 169,
        "11454": 71,
        "11455": 90,
        "11456": 254,
        "11457": 175,
        "11458": 89,
        "11459": 80,
        "11460": 227,
        "11461": 63,
        "11462": 247,
        "11463": 178,
        "11464": 232,
        "11465": 21,
        "11466": 110,
        "11467": 242,
        "11468": 221,
        "11469": 127,
        "11470": 49,
        "11471": 45,
        "11472": 164,
        "11473": 227,
        "11474": 128,
        "11475": 32,
        "11476": 141,
        "11477": 86,
        "11478": 19,
        "11479": 164,
        "11480": 103,
        "11481": 129,
        "11482": 236,
        "11483": 238,
        "11484": 24,
        "11485": 253,
        "11486": 84,
        "11487": 145,
        "11488": 252,
        "11489": 227,
        "11490": 171,
        "11491": 191,
        "11492": 116,
        "11493": 79,
        "11494": 87,
        "11495": 18,
        "11496": 148,
        "11497": 167,
        "11498": 89,
        "11499": 170,
        "11500": 8,
        "11501": 78,
        "11502": 203,
        "11503": 207,
        "11504": 73,
        "11505": 148,
        "11506": 201,
        "11507": 198,
        "11508": 6,
        "11509": 59,
        "11510": 184,
        "11511": 133,
        "11512": 45,
        "11513": 177,
        "11514": 53,
        "11515": 66,
        "11516": 141,
        "11517": 180,
        "11518": 190,
        "11519": 143,
        "11520": 157,
        "11521": 96,
        "11522": 27,
        "11523": 233,
        "11524": 49,
        "11525": 128,
        "11526": 196,
        "11527": 38,
        "11528": 16,
        "11529": 58,
        "11530": 61,
        "11531": 212,
        "11532": 179,
        "11533": 228,
        "11534": 244,
        "11535": 63,
        "11536": 137,
        "11537": 116,
        "11538": 4,
        "11539": 226,
        "11540": 119,
        "11541": 168,
        "11542": 90,
        "11543": 220,
        "11544": 79,
        "11545": 127,
        "11546": 9,
        "11547": 10,
        "11548": 55,
        "11549": 135,
        "11550": 226,
        "11551": 152,
        "11552": 60,
        "11553": 144,
        "11554": 174,
        "11555": 1,
        "11556": 162,
        "11557": 109,
        "11558": 126,
        "11559": 233,
        "11560": 100,
        "11561": 41,
        "11562": 240,
        "11563": 203,
        "11564": 176,
        "11565": 103,
        "11566": 238,
        "11567": 217,
        "11568": 197,
        "11569": 1,
        "11570": 57,
        "11571": 171,
        "11572": 130,
        "11573": 1,
        "11574": 143,
        "11575": 250,
        "11576": 46,
        "11577": 23,
        "11578": 83,
        "11579": 206,
        "11580": 89,
        "11581": 108,
        "11582": 186,
        "11583": 198,
        "11584": 7,
        "11585": 137,
        "11586": 242,
        "11587": 124,
        "11588": 182,
        "11589": 155,
        "11590": 150,
        "11591": 38,
        "11592": 186,
        "11593": 28,
        "11594": 173,
        "11595": 27,
        "11596": 186,
        "11597": 51,
        "11598": 2,
        "11599": 205,
        "11600": 134,
        "11601": 119,
        "11602": 153,
        "11603": 46,
        "11604": 4,
        "11605": 142,
        "11606": 48,
        "11607": 140,
        "11608": 53,
        "11609": 196,
        "11610": 55,
        "11611": 223,
        "11612": 157,
        "11613": 122,
        "11614": 255,
        "11615": 29,
        "11616": 240,
        "11617": 97,
        "11618": 71,
        "11619": 191,
        "11620": 250,
        "11621": 177,
        "11622": 203,
        "11623": 62,
        "11624": 21,
        "11625": 5,
        "11626": 156,
        "11627": 170,
        "11628": 31,
        "11629": 113,
        "11630": 90,
        "11631": 7,
        "11632": 166,
        "11633": 176,
        "11634": 214,
        "11635": 13,
        "11636": 168,
        "11637": 98,
        "11638": 79,
        "11639": 232,
        "11640": 189,
        "11641": 169,
        "11642": 162,
        "11643": 69,
        "11644": 89,
        "11645": 13,
        "11646": 203,
        "11647": 65,
        "11648": 159,
        "11649": 130,
        "11650": 40,
        "11651": 28,
        "11652": 15,
        "11653": 32,
        "11654": 33,
        "11655": 206,
        "11656": 218,
        "11657": 33,
        "11658": 104,
        "11659": 43,
        "11660": 119,
        "11661": 31,
        "11662": 184,
        "11663": 37,
        "11664": 199,
        "11665": 250,
        "11666": 242,
        "11667": 168,
        "11668": 88,
        "11669": 130,
        "11670": 61,
        "11671": 151,
        "11672": 132,
        "11673": 27,
        "11674": 30,
        "11675": 156,
        "11676": 145,
        "11677": 83,
        "11678": 120,
        "11679": 238,
        "11680": 55,
        "11681": 80,
        "11682": 14,
        "11683": 127,
        "11684": 96,
        "11685": 184,
        "11686": 68,
        "11687": 131,
        "11688": 197,
        "11689": 71,
        "11690": 33,
        "11691": 123,
        "11692": 229,
        "11693": 239,
        "11694": 7,
        "11695": 231,
        "11696": 220,
        "11697": 67,
        "11698": 165,
        "11699": 194,
        "11700": 38,
        "11701": 143,
        "11702": 99,
        "11703": 203,
        "11704": 228,
        "11705": 207,
        "11706": 154,
        "11707": 214,
        "11708": 245,
        "11709": 204,
        "11710": 228,
        "11711": 137,
        "11712": 136,
        "11713": 252,
        "11714": 131,
        "11715": 68,
        "11716": 76,
        "11717": 43,
        "11718": 50,
        "11719": 207,
        "11720": 141,
        "11721": 69,
        "11722": 244,
        "11723": 240,
        "11724": 1,
        "11725": 52,
        "11726": 114,
        "11727": 38,
        "11728": 220,
        "11729": 221,
        "11730": 231,
        "11731": 180,
        "11732": 124,
        "11733": 15,
        "11734": 110,
        "11735": 37,
        "11736": 250,
        "11737": 160,
        "11738": 121,
        "11739": 69,
        "11740": 182,
        "11741": 253,
        "11742": 152,
        "11743": 228,
        "11744": 228,
        "11745": 164,
        "11746": 225,
        "11747": 224,
        "11748": 224,
        "11749": 213,
        "11750": 158,
        "11751": 82,
        "11752": 236,
        "11753": 23,
        "11754": 69,
        "11755": 202,
        "11756": 126,
        "11757": 48,
        "11758": 136,
        "11759": 44,
        "11760": 80,
        "11761": 144,
        "11762": 122,
        "11763": 242,
        "11764": 99,
        "11765": 82,
        "11766": 40,
        "11767": 247,
        "11768": 57,
        "11769": 223,
        "11770": 247,
        "11771": 52,
        "11772": 75,
        "11773": 64,
        "11774": 162,
        "11775": 119,
        "11776": 157,
        "11777": 78,
        "11778": 163,
        "11779": 39,
        "11780": 28,
        "11781": 17,
        "11782": 150,
        "11783": 20,
        "11784": 241,
        "11785": 109,
        "11786": 3,
        "11787": 228,
        "11788": 33,
        "11789": 60,
        "11790": 180,
        "11791": 206,
        "11792": 61,
        "11793": 82,
        "11794": 76,
        "11795": 212,
        "11796": 57,
        "11797": 19,
        "11798": 212,
        "11799": 15,
        "11800": 100,
        "11801": 204,
        "11802": 19,
        "11803": 94,
        "11804": 197,
        "11805": 169,
        "11806": 145,
        "11807": 2,
        "11808": 171,
        "11809": 116,
        "11810": 75,
        "11811": 111,
        "11812": 230,
        "11813": 14,
        "11814": 94,
        "11815": 55,
        "11816": 6,
        "11817": 187,
        "11818": 213,
        "11819": 84,
        "11820": 1,
        "11821": 156,
        "11822": 80,
        "11823": 144,
        "11824": 182,
        "11825": 143,
        "11826": 136,
        "11827": 207,
        "11828": 143,
        "11829": 102,
        "11830": 28,
        "11831": 198,
        "11832": 80,
        "11833": 103,
        "11834": 196,
        "11835": 88,
        "11836": 199,
        "11837": 240,
        "11838": 237,
        "11839": 198,
        "11840": 225,
        "11841": 226,
        "11842": 107,
        "11843": 163,
        "11844": 99,
        "11845": 132,
        "11846": 245,
        "11847": 141,
        "11848": 234,
        "11849": 22,
        "11850": 147,
        "11851": 240,
        "11852": 144,
        "11853": 243,
        "11854": 156,
        "11855": 170,
        "11856": 235,
        "11857": 165,
        "11858": 27,
        "11859": 57,
        "11860": 137,
        "11861": 98,
        "11862": 46,
        "11863": 190,
        "11864": 219,
        "11865": 72,
        "11866": 0,
        "11867": 126,
        "11868": 250,
        "11869": 120,
        "11870": 139,
        "11871": 63,
        "11872": 62,
        "11873": 171,
        "11874": 177,
        "11875": 110,
        "11876": 155,
        "11877": 33,
        "11878": 156,
        "11879": 202,
        "11880": 115,
        "11881": 81,
        "11882": 166,
        "11883": 225,
        "11884": 250,
        "11885": 58,
        "11886": 38,
        "11887": 97,
        "11888": 246,
        "11889": 36,
        "11890": 145,
        "11891": 251,
        "11892": 63,
        "11893": 237,
        "11894": 222,
        "11895": 213,
        "11896": 1,
        "11897": 246,
        "11898": 235,
        "11899": 217,
        "11900": 89,
        "11901": 71,
        "11902": 94,
        "11903": 129,
        "11904": 255,
        "11905": 68,
        "11906": 24,
        "11907": 57,
        "11908": 186,
        "11909": 48,
        "11910": 171,
        "11911": 36,
        "11912": 17,
        "11913": 248,
        "11914": 171,
        "11915": 143,
        "11916": 111,
        "11917": 191,
        "11918": 51,
        "11919": 215,
        "11920": 62,
        "11921": 29,
        "11922": 217,
        "11923": 105,
        "11924": 83,
        "11925": 70,
        "11926": 77,
        "11927": 235,
        "11928": 18,
        "11929": 196,
        "11930": 179,
        "11931": 60,
        "11932": 28,
        "11933": 45,
        "11934": 72,
        "11935": 177,
        "11936": 125,
        "11937": 61,
        "11938": 168,
        "11939": 66,
        "11940": 224,
        "11941": 204,
        "11942": 69,
        "11943": 209,
        "11944": 145,
        "11945": 180,
        "11946": 127,
        "11947": 33,
        "11948": 218,
        "11949": 155,
        "11950": 22,
        "11951": 85,
        "11952": 15,
        "11953": 234,
        "11954": 196,
        "11955": 227,
        "11956": 97,
        "11957": 224,
        "11958": 103,
        "11959": 184,
        "11960": 251,
        "11961": 65,
        "11962": 11,
        "11963": 190,
        "11964": 176,
        "11965": 251,
        "11966": 237,
        "11967": 218,
        "11968": 91,
        "11969": 8,
        "11970": 7,
        "11971": 91,
        "11972": 16,
        "11973": 168,
        "11974": 1,
        "11975": 159,
        "11976": 7,
        "11977": 254,
        "11978": 212,
        "11979": 188,
        "11980": 150,
        "11981": 46,
        "11982": 64,
        "11983": 145,
        "11984": 208,
        "11985": 69,
        "11986": 121,
        "11987": 216,
        "11988": 209,
        "11989": 218,
        "11990": 169,
        "11991": 172,
        "11992": 209,
        "11993": 5,
        "11994": 91,
        "11995": 39,
        "11996": 70,
        "11997": 216,
        "11998": 250,
        "11999": 180,
        "12000": 57,
        "12001": 44,
        "12002": 120,
        "12003": 16,
        "12004": 47,
        "12005": 140,
        "12006": 50,
        "12007": 5,
        "12008": 164,
        "12009": 92,
        "12010": 201,
        "12011": 23,
        "12012": 99,
        "12013": 245,
        "12014": 178,
        "12015": 85,
        "12016": 127,
        "12017": 156,
        "12018": 167,
        "12019": 115,
        "12020": 122,
        "12021": 61,
        "12022": 45,
        "12023": 230,
        "12024": 13,
        "12025": 222,
        "12026": 121,
        "12027": 223,
        "12028": 211,
        "12029": 91,
        "12030": 154,
        "12031": 96,
        "12032": 222,
        "12033": 16,
        "12034": 254,
        "12035": 59,
        "12036": 8,
        "12037": 156,
        "12038": 220,
        "12039": 124,
        "12040": 221,
        "12041": 232,
        "12042": 166,
        "12043": 9,
        "12044": 188,
        "12045": 156,
        "12046": 129,
        "12047": 172,
        "12048": 216,
        "12049": 235,
        "12050": 135,
        "12051": 53,
        "12052": 157,
        "12053": 64,
        "12054": 35,
        "12055": 238,
        "12056": 239,
        "12057": 172,
        "12058": 159,
        "12059": 247,
        "12060": 130,
        "12061": 246,
        "12062": 114,
        "12063": 155,
        "12064": 100,
        "12065": 27,
        "12066": 133,
        "12067": 158,
        "12068": 11,
        "12069": 39,
        "12070": 207,
        "12071": 195,
        "12072": 58,
        "12073": 18,
        "12074": 62,
        "12075": 55,
        "12076": 152,
        "12077": 25,
        "12078": 4,
        "12079": 41,
        "12080": 66,
        "12081": 35,
        "12082": 111,
        "12083": 101,
        "12084": 132,
        "12085": 194,
        "12086": 220,
        "12087": 248,
        "12088": 184,
        "12089": 221,
        "12090": 173,
        "12091": 249,
        "12092": 84,
        "12093": 56,
        "12094": 112,
        "12095": 48,
        "12096": 49,
        "12097": 0,
        "12098": 56,
        "12099": 154,
        "12100": 49,
        "12101": 207,
        "12102": 11,
        "12103": 160,
        "12104": 105,
        "12105": 151,
        "12106": 7,
        "12107": 55,
        "12108": 243,
        "12109": 216,
        "12110": 230,
        "12111": 171,
        "12112": 3,
        "12113": 69,
        "12114": 7,
        "12115": 147,
        "12116": 130,
        "12117": 119,
        "12118": 227,
        "12119": 115,
        "12120": 181,
        "12121": 236,
        "12122": 104,
        "12123": 113,
        "12124": 96,
        "12125": 234,
        "12126": 247,
        "12127": 78,
        "12128": 237,
        "12129": 74,
        "12130": 207,
        "12131": 206,
        "12132": 175,
        "12133": 60,
        "12134": 175,
        "12135": 130,
        "12136": 107,
        "12137": 84,
        "12138": 72,
        "12139": 53,
        "12140": 55,
        "12141": 127,
        "12142": 194,
        "12143": 97,
        "12144": 94,
        "12145": 128,
        "12146": 14,
        "12147": 7,
        "12148": 184,
        "12149": 130,
        "12150": 34,
        "12151": 13,
        "12152": 146,
        "12153": 70,
        "12154": 156,
        "12155": 128,
        "12156": 179,
        "12157": 86,
        "12158": 116,
        "12159": 240,
        "12160": 180,
        "12161": 178,
        "12162": 134,
        "12163": 116,
        "12164": 185,
        "12165": 15,
        "12166": 175,
        "12167": 200,
        "12168": 12,
        "12169": 2,
        "12170": 229,
        "12171": 171,
        "12172": 73,
        "12173": 67,
        "12174": 38,
        "12175": 243,
        "12176": 86,
        "12177": 14,
        "12178": 65,
        "12179": 59,
        "12180": 124,
        "12181": 209,
        "12182": 228,
        "12183": 122,
        "12184": 146,
        "12185": 206,
        "12186": 42,
        "12187": 35,
        "12188": 106,
        "12189": 168,
        "12190": 32,
        "12191": 80,
        "12192": 246,
        "12193": 124,
        "12194": 220,
        "12195": 85,
        "12196": 32,
        "12197": 152,
        "12198": 223,
        "12199": 123,
        "12200": 165,
        "12201": 162,
        "12202": 196,
        "12203": 115,
        "12204": 89,
        "12205": 43,
        "12206": 72,
        "12207": 158,
        "12208": 174,
        "12209": 186,
        "12210": 228,
        "12211": 187,
        "12212": 61,
        "12213": 35,
        "12214": 127,
        "12215": 75,
        "12216": 174,
        "12217": 46,
        "12218": 196,
        "12219": 209,
        "12220": 153,
        "12221": 91,
        "12222": 175,
        "12223": 108,
        "12224": 3,
        "12225": 234,
        "12226": 166,
        "12227": 237,
        "12228": 233,
        "12229": 78,
        "12230": 129,
        "12231": 205,
        "12232": 211,
        "12233": 166,
        "12234": 98,
        "12235": 173,
        "12236": 144,
        "12237": 216,
        "12238": 167,
        "12239": 56,
        "12240": 190,
        "12241": 69,
        "12242": 166,
        "12243": 230,
        "12244": 241,
        "12245": 157,
        "12246": 115,
        "12247": 235,
        "12248": 19,
        "12249": 3,
        "12250": 145,
        "12251": 11,
        "12252": 217,
        "12253": 125,
        "12254": 18,
        "12255": 165,
        "12256": 122,
        "12257": 128,
        "12258": 181,
        "12259": 142,
        "12260": 62,
        "12261": 209,
        "12262": 237,
        "12263": 9,
        "12264": 149,
        "12265": 126,
        "12266": 32,
        "12267": 18,
        "12268": 126,
        "12269": 202,
        "12270": 252,
        "12271": 186,
        "12272": 37,
        "12273": 176,
        "12274": 208,
        "12275": 250,
        "12276": 81,
        "12277": 181,
        "12278": 134,
        "12279": 29,
        "12280": 136,
        "12281": 176,
        "12282": 21,
        "12283": 211,
        "12284": 79,
        "12285": 85,
        "12286": 224,
        "12287": 72,
        "12288": 198,
        "12289": 22,
        "12290": 255,
        "12291": 164,
        "12292": 3,
        "12293": 64,
        "12294": 136,
        "12295": 87,
        "12296": 133,
        "12297": 80,
        "12298": 41,
        "12299": 200,
        "12300": 14,
        "12301": 2,
        "12302": 116,
        "12303": 192,
        "12304": 117,
        "12305": 229,
        "12306": 3,
        "12307": 48,
        "12308": 218,
        "12309": 137,
        "12310": 75,
        "12311": 204,
        "12312": 43,
        "12313": 73,
        "12314": 185,
        "12315": 217,
        "12316": 134,
        "12317": 230,
        "12318": 242,
        "12319": 192,
        "12320": 249,
        "12321": 191,
        "12322": 56,
        "12323": 218,
        "12324": 160,
        "12325": 58,
        "12326": 140,
        "12327": 126,
        "12328": 180,
        "12329": 41,
        "12330": 10,
        "12331": 253,
        "12332": 148,
        "12333": 239,
        "12334": 48,
        "12335": 31,
        "12336": 7,
        "12337": 77,
        "12338": 167,
        "12339": 98,
        "12340": 52,
        "12341": 19,
        "12342": 128,
        "12343": 232,
        "12344": 223,
        "12345": 39,
        "12346": 187,
        "12347": 208,
        "12348": 83,
        "12349": 33,
        "12350": 5,
        "12351": 130,
        "12352": 247,
        "12353": 248,
        "12354": 85,
        "12355": 61,
        "12356": 172,
        "12357": 65,
        "12358": 28,
        "12359": 253,
        "12360": 152,
        "12361": 136,
        "12362": 206,
        "12363": 163,
        "12364": 116,
        "12365": 97,
        "12366": 188,
        "12367": 129,
        "12368": 70,
        "12369": 69,
        "12370": 174,
        "12371": 241,
        "12372": 110,
        "12373": 147,
        "12374": 17,
        "12375": 112,
        "12376": 205,
        "12377": 4,
        "12378": 243,
        "12379": 128,
        "12380": 85,
        "12381": 230,
        "12382": 16,
        "12383": 155,
        "12384": 80,
        "12385": 181,
        "12386": 66,
        "12387": 186,
        "12388": 37,
        "12389": 71,
        "12390": 24,
        "12391": 67,
        "12392": 61,
        "12393": 188,
        "12394": 55,
        "12395": 120,
        "12396": 2,
        "12397": 135,
        "12398": 55,
        "12399": 132,
        "12400": 108,
        "12401": 178,
        "12402": 137,
        "12403": 159,
        "12404": 57,
        "12405": 100,
        "12406": 108,
        "12407": 12,
        "12408": 90,
        "12409": 65,
        "12410": 185,
        "12411": 151,
        "12412": 144,
        "12413": 195,
        "12414": 248,
        "12415": 185,
        "12416": 66,
        "12417": 32,
        "12418": 115,
        "12419": 176,
        "12420": 239,
        "12421": 92,
        "12422": 241,
        "12423": 228,
        "12424": 198,
        "12425": 9,
        "12426": 49,
        "12427": 116,
        "12428": 64,
        "12429": 92,
        "12430": 171,
        "12431": 236,
        "12432": 104,
        "12433": 31,
        "12434": 221,
        "12435": 214,
        "12436": 169,
        "12437": 39,
        "12438": 47,
        "12439": 216,
        "12440": 3,
        "12441": 140,
        "12442": 4,
        "12443": 49,
        "12444": 179,
        "12445": 149,
        "12446": 126,
        "12447": 116,
        "12448": 205,
        "12449": 173,
        "12450": 183,
        "12451": 8,
        "12452": 86,
        "12453": 4,
        "12454": 219,
        "12455": 17,
        "12456": 112,
        "12457": 63,
        "12458": 191,
        "12459": 187,
        "12460": 128,
        "12461": 72,
        "12462": 76,
        "12463": 110,
        "12464": 204,
        "12465": 198,
        "12466": 94,
        "12467": 229,
        "12468": 134,
        "12469": 84,
        "12470": 245,
        "12471": 209,
        "12472": 114,
        "12473": 162,
        "12474": 216,
        "12475": 212,
        "12476": 134,
        "12477": 120,
        "12478": 95,
        "12479": 110,
        "12480": 125,
        "12481": 13,
        "12482": 0,
        "12483": 137,
        "12484": 41,
        "12485": 41,
        "12486": 249,
        "12487": 143,
        "12488": 118,
        "12489": 209,
        "12490": 28,
        "12491": 13,
        "12492": 231,
        "12493": 11,
        "12494": 167,
        "12495": 97,
        "12496": 231,
        "12497": 244,
        "12498": 5,
        "12499": 18,
        "12500": 217,
        "12501": 38,
        "12502": 109,
        "12503": 17,
        "12504": 40,
        "12505": 87,
        "12506": 226,
        "12507": 106,
        "12508": 4,
        "12509": 194,
        "12510": 206,
        "12511": 174,
        "12512": 63,
        "12513": 95,
        "12514": 46,
        "12515": 216,
        "12516": 23,
        "12517": 204,
        "12518": 116,
        "12519": 200,
        "12520": 67,
        "12521": 126,
        "12522": 5,
        "12523": 120,
        "12524": 141,
        "12525": 202,
        "12526": 169,
        "12527": 63,
        "12528": 229,
        "12529": 65,
        "12530": 23,
        "12531": 126,
        "12532": 179,
        "12533": 147,
        "12534": 71,
        "12535": 162,
        "12536": 22,
        "12537": 78,
        "12538": 48,
        "12539": 77,
        "12540": 234,
        "12541": 210,
        "12542": 65,
        "12543": 116,
        "12544": 231,
        "12545": 167,
        "12546": 122,
        "12547": 190,
        "12548": 164,
        "12549": 247,
        "12550": 109,
        "12551": 128,
        "12552": 118,
        "12553": 166,
        "12554": 56,
        "12555": 58,
        "12556": 105,
        "12557": 48,
        "12558": 120,
        "12559": 223,
        "12560": 10,
        "12561": 210,
        "12562": 168,
        "12563": 250,
        "12564": 6,
        "12565": 61,
        "12566": 207,
        "12567": 89,
        "12568": 130,
        "12569": 235,
        "12570": 120,
        "12571": 34,
        "12572": 52,
        "12573": 3,
        "12574": 245,
        "12575": 224,
        "12576": 146,
        "12577": 102,
        "12578": 105,
        "12579": 178,
        "12580": 118,
        "12581": 211,
        "12582": 69,
        "12583": 49,
        "12584": 20,
        "12585": 242,
        "12586": 11,
        "12587": 190,
        "12588": 249,
        "12589": 168,
        "12590": 169,
        "12591": 12,
        "12592": 108,
        "12593": 248,
        "12594": 160,
        "12595": 202,
        "12596": 3,
        "12597": 84,
        "12598": 104,
        "12599": 113,
        "12600": 233,
        "12601": 69,
        "12602": 9,
        "12603": 105,
        "12604": 62,
        "12605": 139,
        "12606": 13,
        "12607": 67,
        "12608": 217,
        "12609": 206,
        "12610": 230,
        "12611": 98,
        "12612": 228,
        "12613": 94,
        "12614": 17,
        "12615": 239,
        "12616": 188,
        "12617": 136,
        "12618": 81,
        "12619": 40,
        "12620": 235,
        "12621": 146,
        "12622": 56,
        "12623": 91,
        "12624": 124,
        "12625": 137,
        "12626": 11,
        "12627": 128,
        "12628": 101,
        "12629": 178,
        "12630": 142,
        "12631": 205,
        "12632": 222,
        "12633": 57,
        "12634": 154,
        "12635": 231,
        "12636": 117,
        "12637": 122,
        "12638": 93,
        "12639": 131,
        "12640": 100,
        "12641": 207,
        "12642": 40,
        "12643": 235,
        "12644": 255,
        "12645": 134,
        "12646": 29,
        "12647": 168,
        "12648": 97,
        "12649": 138,
        "12650": 185,
        "12651": 143,
        "12652": 87,
        "12653": 5,
        "12654": 96,
        "12655": 120,
        "12656": 167,
        "12657": 83,
        "12658": 114,
        "12659": 40,
        "12660": 162,
        "12661": 198,
        "12662": 179,
        "12663": 90,
        "12664": 217,
        "12665": 204,
        "12666": 142,
        "12667": 65,
        "12668": 144,
        "12669": 162,
        "12670": 174,
        "12671": 236,
        "12672": 167,
        "12673": 120,
        "12674": 86,
        "12675": 56,
        "12676": 35,
        "12677": 105,
        "12678": 213,
        "12679": 54,
        "12680": 200,
        "12681": 181,
        "12682": 133,
        "12683": 134,
        "12684": 208,
        "12685": 74,
        "12686": 99,
        "12687": 161,
        "12688": 77,
        "12689": 130,
        "12690": 166,
        "12691": 119,
        "12692": 170,
        "12693": 164,
        "12694": 94,
        "12695": 207,
        "12696": 188,
        "12697": 3,
        "12698": 54,
        "12699": 223,
        "12700": 178,
        "12701": 24,
        "12702": 201,
        "12703": 211,
        "12704": 128,
        "12705": 136,
        "12706": 113,
        "12707": 13,
        "12708": 235,
        "12709": 173,
        "12710": 83,
        "12711": 84,
        "12712": 123,
        "12713": 225,
        "12714": 250,
        "12715": 110,
        "12716": 235,
        "12717": 193,
        "12718": 98,
        "12719": 90,
        "12720": 42,
        "12721": 215,
        "12722": 106,
        "12723": 227,
        "12724": 179,
        "12725": 241,
        "12726": 106,
        "12727": 75,
        "12728": 176,
        "12729": 188,
        "12730": 25,
        "12731": 87,
        "12732": 132,
        "12733": 255,
        "12734": 47,
        "12735": 121,
        "12736": 54,
        "12737": 96,
        "12738": 49,
        "12739": 232,
        "12740": 240,
        "12741": 202,
        "12742": 199,
        "12743": 65,
        "12744": 242,
        "12745": 53,
        "12746": 29,
        "12747": 71,
        "12748": 164,
        "12749": 98,
        "12750": 38,
        "12751": 57,
        "12752": 213,
        "12753": 110,
        "12754": 26,
        "12755": 76,
        "12756": 157,
        "12757": 32,
        "12758": 159,
        "12759": 55,
        "12760": 157,
        "12761": 229,
        "12762": 111,
        "12763": 247,
        "12764": 248,
        "12765": 78,
        "12766": 8,
        "12767": 32,
        "12768": 91,
        "12769": 254,
        "12770": 192,
        "12771": 232,
        "12772": 112,
        "12773": 145,
        "12774": 157,
        "12775": 72,
        "12776": 241,
        "12777": 136,
        "12778": 35,
        "12779": 187,
        "12780": 250,
        "12781": 85,
        "12782": 122,
        "12783": 218,
        "12784": 55,
        "12785": 58,
        "12786": 122,
        "12787": 70,
        "12788": 13,
        "12789": 39,
        "12790": 44,
        "12791": 112,
        "12792": 67,
        "12793": 10,
        "12794": 23,
        "12795": 153,
        "12796": 42,
        "12797": 41,
        "12798": 112,
        "12799": 142,
        "12800": 59,
        "12801": 149,
        "12802": 188,
        "12803": 212,
        "12804": 220,
        "12805": 218,
        "12806": 196,
        "12807": 233,
        "12808": 230,
        "12809": 141,
        "12810": 153,
        "12811": 251,
        "12812": 146,
        "12813": 127,
        "12814": 77,
        "12815": 158,
        "12816": 149,
        "12817": 213,
        "12818": 158,
        "12819": 135,
        "12820": 65,
        "12821": 87,
        "12822": 225,
        "12823": 241,
        "12824": 128,
        "12825": 180,
        "12826": 5,
        "12827": 143,
        "12828": 227,
        "12829": 5,
        "12830": 55,
        "12831": 226,
        "12832": 208,
        "12833": 44,
        "12834": 239,
        "12835": 172,
        "12836": 3,
        "12837": 41,
        "12838": 36,
        "12839": 91,
        "12840": 67,
        "12841": 38,
        "12842": 43,
        "12843": 210,
        "12844": 148,
        "12845": 113,
        "12846": 7,
        "12847": 51,
        "12848": 177,
        "12849": 52,
        "12850": 56,
        "12851": 215,
        "12852": 72,
        "12853": 161,
        "12854": 211,
        "12855": 153,
        "12856": 128,
        "12857": 88,
        "12858": 192,
        "12859": 25,
        "12860": 146,
        "12861": 191,
        "12862": 76,
        "12863": 7,
        "12864": 204,
        "12865": 12,
        "12866": 243,
        "12867": 88,
        "12868": 159,
        "12869": 72,
        "12870": 83,
        "12871": 243,
        "12872": 112,
        "12873": 160,
        "12874": 111,
        "12875": 30,
        "12876": 139,
        "12877": 219,
        "12878": 180,
        "12879": 75,
        "12880": 213,
        "12881": 22,
        "12882": 104,
        "12883": 178,
        "12884": 250,
        "12885": 168,
        "12886": 11,
        "12887": 163,
        "12888": 113,
        "12889": 66,
        "12890": 247,
        "12891": 0,
        "12892": 136,
        "12893": 233,
        "12894": 4,
        "12895": 78,
        "12896": 174,
        "12897": 115,
        "12898": 150,
        "12899": 50,
        "12900": 125,
        "12901": 161,
        "12902": 193,
        "12903": 170,
        "12904": 194,
        "12905": 247,
        "12906": 203,
        "12907": 3,
        "12908": 4,
        "12909": 121,
        "12910": 132,
        "12911": 36,
        "12912": 217,
        "12913": 194,
        "12914": 168,
        "12915": 217,
        "12916": 146,
        "12917": 131,
        "12918": 113,
        "12919": 118,
        "12920": 11,
        "12921": 65,
        "12922": 120,
        "12923": 155,
        "12924": 198,
        "12925": 107,
        "12926": 77,
        "12927": 191,
        "12928": 74,
        "12929": 36,
        "12930": 245,
        "12931": 74,
        "12932": 116,
        "12933": 140,
        "12934": 48,
        "12935": 58,
        "12936": 247,
        "12937": 116,
        "12938": 207,
        "12939": 148,
        "12940": 105,
        "12941": 43,
        "12942": 222,
        "12943": 147,
        "12944": 148,
        "12945": 214,
        "12946": 59,
        "12947": 35,
        "12948": 254,
        "12949": 34,
        "12950": 218,
        "12951": 224,
        "12952": 115,
        "12953": 250,
        "12954": 184,
        "12955": 182,
        "12956": 245,
        "12957": 247,
        "12958": 233,
        "12959": 84,
        "12960": 154,
        "12961": 249,
        "12962": 184,
        "12963": 28,
        "12964": 41,
        "12965": 255,
        "12966": 148,
        "12967": 165,
        "12968": 58,
        "12969": 120,
        "12970": 33,
        "12971": 62,
        "12972": 71,
        "12973": 39,
        "12974": 224,
        "12975": 143,
        "12976": 9,
        "12977": 245,
        "12978": 112,
        "12979": 106,
        "12980": 201,
        "12981": 43,
        "12982": 116,
        "12983": 54,
        "12984": 170,
        "12985": 153,
        "12986": 117,
        "12987": 11,
        "12988": 113,
        "12989": 188,
        "12990": 223,
        "12991": 117,
        "12992": 53,
        "12993": 146,
        "12994": 220,
        "12995": 55,
        "12996": 10,
        "12997": 232,
        "12998": 153,
        "12999": 53,
        "13000": 141,
        "13001": 228,
        "13002": 44,
        "13003": 129,
        "13004": 144,
        "13005": 187,
        "13006": 207,
        "13007": 191,
        "13008": 195,
        "13009": 212,
        "13010": 146,
        "13011": 38,
        "13012": 246,
        "13013": 67,
        "13014": 129,
        "13015": 103,
        "13016": 206,
        "13017": 68,
        "13018": 73,
        "13019": 73,
        "13020": 35,
        "13021": 202,
        "13022": 171,
        "13023": 186,
        "13024": 21,
        "13025": 174,
        "13026": 247,
        "13027": 9,
        "13028": 56,
        "13029": 218,
        "13030": 19,
        "13031": 75,
        "13032": 88,
        "13033": 167,
        "13034": 67,
        "13035": 1,
        "13036": 173,
        "13037": 104,
        "13038": 235,
        "13039": 213,
        "13040": 206,
        "13041": 115,
        "13042": 253,
        "13043": 97,
        "13044": 147,
        "13045": 212,
        "13046": 173,
        "13047": 46,
        "13048": 213,
        "13049": 169,
        "13050": 231,
        "13051": 29,
        "13052": 147,
        "13053": 89,
        "13054": 159,
        "13055": 97,
        "13056": 72,
        "13057": 2,
        "13058": 179,
        "13059": 148,
        "13060": 1,
        "13061": 241,
        "13062": 233,
        "13063": 45,
        "13064": 235,
        "13065": 60,
        "13066": 147,
        "13067": 39,
        "13068": 132,
        "13069": 69,
        "13070": 134,
        "13071": 72,
        "13072": 148,
        "13073": 196,
        "13074": 240,
        "13075": 84,
        "13076": 1,
        "13077": 176,
        "13078": 178,
        "13079": 164,
        "13080": 236,
        "13081": 141,
        "13082": 193,
        "13083": 252,
        "13084": 186,
        "13085": 231,
        "13086": 35,
        "13087": 95,
        "13088": 67,
        "13089": 24,
        "13090": 81,
        "13091": 36,
        "13092": 123,
        "13093": 101,
        "13094": 0,
        "13095": 180,
        "13096": 44,
        "13097": 60,
        "13098": 138,
        "13099": 185,
        "13100": 17,
        "13101": 62,
        "13102": 83,
        "13103": 17,
        "13104": 24,
        "13105": 131,
        "13106": 126,
        "13107": 156,
        "13108": 124,
        "13109": 115,
        "13110": 39,
        "13111": 243,
        "13112": 134,
        "13113": 16,
        "13114": 156,
        "13115": 15,
        "13116": 223,
        "13117": 220,
        "13118": 49,
        "13119": 103,
        "13120": 189,
        "13121": 106,
        "13122": 110,
        "13123": 232,
        "13124": 242,
        "13125": 155,
        "13126": 175,
        "13127": 56,
        "13128": 23,
        "13129": 3,
        "13130": 131,
        "13131": 152,
        "13132": 128,
        "13133": 76,
        "13134": 138,
        "13135": 135,
        "13136": 173,
        "13137": 173,
        "13138": 212,
        "13139": 120,
        "13140": 17,
        "13141": 59,
        "13142": 233,
        "13143": 175,
        "13144": 36,
        "13145": 206,
        "13146": 142,
        "13147": 200,
        "13148": 2,
        "13149": 28,
        "13150": 253,
        "13151": 25,
        "13152": 45,
        "13153": 195,
        "13154": 199,
        "13155": 252,
        "13156": 148,
        "13157": 92,
        "13158": 226,
        "13159": 135,
        "13160": 40,
        "13161": 141,
        "13162": 160,
        "13163": 114,
        "13164": 229,
        "13165": 130,
        "13166": 56,
        "13167": 180,
        "13168": 118,
        "13169": 239,
        "13170": 226,
        "13171": 160,
        "13172": 130,
        "13173": 242,
        "13174": 28,
        "13175": 125,
        "13176": 141,
        "13177": 56,
        "13178": 216,
        "13179": 35,
        "13180": 199,
        "13181": 85,
        "13182": 115,
        "13183": 174,
        "13184": 56,
        "13185": 44,
        "13186": 155,
        "13187": 194,
        "13188": 188,
        "13189": 113,
        "13190": 75,
        "13191": 255,
        "13192": 56,
        "13193": 224,
        "13194": 5,
        "13195": 102,
        "13196": 206,
        "13197": 191,
        "13198": 143,
        "13199": 83,
        "13200": 177,
        "13201": 23,
        "13202": 174,
        "13203": 21,
        "13204": 149,
        "13205": 117,
        "13206": 120,
        "13207": 223,
        "13208": 166,
        "13209": 31,
        "13210": 156,
        "13211": 47,
        "13212": 69,
        "13213": 232,
        "13214": 0,
        "13215": 174,
        "13216": 165,
        "13217": 38,
        "13218": 48,
        "13219": 27,
        "13220": 24,
        "13221": 43,
        "13222": 102,
        "13223": 14,
        "13224": 159,
        "13225": 140,
        "13226": 167,
        "13227": 166,
        "13228": 207,
        "13229": 125,
        "13230": 201,
        "13231": 173,
        "13232": 95,
        "13233": 73,
        "13234": 216,
        "13235": 141,
        "13236": 226,
        "13237": 220,
        "13238": 95,
        "13239": 198,
        "13240": 45,
        "13241": 167,
        "13242": 78,
        "13243": 140,
        "13244": 143,
        "13245": 28,
        "13246": 162,
        "13247": 57,
        "13248": 110,
        "13249": 68,
        "13250": 43,
        "13251": 140,
        "13252": 139,
        "13253": 62,
        "13254": 113,
        "13255": 3,
        "13256": 238,
        "13257": 237,
        "13258": 122,
        "13259": 218,
        "13260": 70,
        "13261": 88,
        "13262": 139,
        "13263": 126,
        "13264": 244,
        "13265": 134,
        "13266": 210,
        "13267": 231,
        "13268": 5,
        "13269": 107,
        "13270": 45,
        "13271": 102,
        "13272": 229,
        "13273": 241,
        "13274": 110,
        "13275": 57,
        "13276": 116,
        "13277": 146,
        "13278": 181,
        "13279": 241,
        "13280": 138,
        "13281": 153,
        "13282": 81,
        "13283": 64,
        "13284": 104,
        "13285": 8,
        "13286": 9,
        "13287": 199,
        "13288": 252,
        "13289": 152,
        "13290": 141,
        "13291": 120,
        "13292": 58,
        "13293": 196,
        "13294": 57,
        "13295": 155,
        "13296": 94,
        "13297": 42,
        "13298": 231,
        "13299": 155,
        "13300": 53,
        "13301": 212,
        "13302": 195,
        "13303": 31,
        "13304": 187,
        "13305": 62,
        "13306": 76,
        "13307": 135,
        "13308": 226,
        "13309": 213,
        "13310": 16,
        "13311": 76,
        "13312": 74,
        "13313": 156,
        "13314": 136,
        "13315": 242,
        "13316": 226,
        "13317": 62,
        "13318": 16,
        "13319": 43,
        "13320": 237,
        "13321": 9,
        "13322": 164,
        "13323": 211,
        "13324": 220,
        "13325": 66,
        "13326": 29,
        "13327": 178,
        "13328": 192,
        "13329": 218,
        "13330": 90,
        "13331": 46,
        "13332": 178,
        "13333": 149,
        "13334": 213,
        "13335": 169,
        "13336": 205,
        "13337": 186,
        "13338": 62,
        "13339": 26,
        "13340": 128,
        "13341": 249,
        "13342": 112,
        "13343": 128,
        "13344": 189,
        "13345": 249,
        "13346": 233,
        "13347": 142,
        "13348": 49,
        "13349": 132,
        "13350": 45,
        "13351": 27,
        "13352": 73,
        "13353": 150,
        "13354": 21,
        "13355": 38,
        "13356": 219,
        "13357": 140,
        "13358": 67,
        "13359": 167,
        "13360": 245,
        "13361": 117,
        "13362": 50,
        "13363": 78,
        "13364": 128,
        "13365": 218,
        "13366": 242,
        "13367": 22,
        "13368": 190,
        "13369": 97,
        "13370": 198,
        "13371": 229,
        "13372": 68,
        "13373": 245,
        "13374": 3,
        "13375": 175,
        "13376": 42,
        "13377": 79,
        "13378": 132,
        "13379": 224,
        "13380": 221,
        "13381": 155,
        "13382": 134,
        "13383": 205,
        "13384": 183,
        "13385": 176,
        "13386": 78,
        "13387": 73,
        "13388": 28,
        "13389": 76,
        "13390": 137,
        "13391": 115,
        "13392": 88,
        "13393": 240,
        "13394": 199,
        "13395": 36,
        "13396": 36,
        "13397": 73,
        "13398": 142,
        "13399": 218,
        "13400": 108,
        "13401": 5,
        "13402": 110,
        "13403": 192,
        "13404": 30,
        "13405": 153,
        "13406": 70,
        "13407": 182,
        "13408": 176,
        "13409": 220,
        "13410": 81,
        "13411": 4,
        "13412": 163,
        "13413": 152,
        "13414": 177,
        "13415": 225,
        "13416": 83,
        "13417": 112,
        "13418": 157,
        "13419": 72,
        "13420": 134,
        "13421": 6,
        "13422": 13,
        "13423": 171,
        "13424": 6,
        "13425": 169,
        "13426": 23,
        "13427": 113,
        "13428": 226,
        "13429": 247,
        "13430": 43,
        "13431": 126,
        "13432": 105,
        "13433": 21,
        "13434": 198,
        "13435": 46,
        "13436": 217,
        "13437": 67,
        "13438": 74,
        "13439": 35,
        "13440": 251,
        "13441": 210,
        "13442": 52,
        "13443": 94,
        "13444": 34,
        "13445": 178,
        "13446": 112,
        "13447": 145,
        "13448": 12,
        "13449": 203,
        "13450": 6,
        "13451": 239,
        "13452": 239,
        "13453": 106,
        "13454": 192,
        "13455": 11,
        "13456": 80,
        "13457": 177,
        "13458": 116,
        "13459": 158,
        "13460": 25,
        "13461": 230,
        "13462": 100,
        "13463": 171,
        "13464": 156,
        "13465": 213,
        "13466": 206,
        "13467": 113,
        "13468": 26,
        "13469": 61,
        "13470": 207,
        "13471": 62,
        "13472": 160,
        "13473": 75,
        "13474": 215,
        "13475": 152,
        "13476": 118,
        "13477": 188,
        "13478": 113,
        "13479": 153,
        "13480": 222,
        "13481": 83,
        "13482": 244,
        "13483": 209,
        "13484": 114,
        "13485": 204,
        "13486": 213,
        "13487": 102,
        "13488": 246,
        "13489": 142,
        "13490": 91,
        "13491": 164,
        "13492": 141,
        "13493": 248,
        "13494": 190,
        "13495": 195,
        "13496": 32,
        "13497": 116,
        "13498": 146,
        "13499": 231,
        "13500": 184,
        "13501": 81,
        "13502": 144,
        "13503": 182,
        "13504": 98,
        "13505": 130,
        "13506": 69,
        "13507": 196,
        "13508": 217,
        "13509": 247,
        "13510": 62,
        "13511": 219,
        "13512": 55,
        "13513": 99,
        "13514": 189,
        "13515": 133,
        "13516": 196,
        "13517": 216,
        "13518": 39,
        "13519": 19,
        "13520": 154,
        "13521": 128,
        "13522": 185,
        "13523": 46,
        "13524": 177,
        "13525": 18,
        "13526": 21,
        "13527": 250,
        "13528": 144,
        "13529": 217,
        "13530": 42,
        "13531": 240,
        "13532": 163,
        "13533": 240,
        "13534": 138,
        "13535": 47,
        "13536": 20,
        "13537": 188,
        "13538": 209,
        "13539": 195,
        "13540": 209,
        "13541": 48,
        "13542": 119,
        "13543": 61,
        "13544": 75,
        "13545": 149,
        "13546": 98,
        "13547": 128,
        "13548": 133,
        "13549": 204,
        "13550": 166,
        "13551": 216,
        "13552": 56,
        "13553": 162,
        "13554": 71,
        "13555": 36,
        "13556": 75,
        "13557": 159,
        "13558": 134,
        "13559": 75,
        "13560": 154,
        "13561": 185,
        "13562": 212,
        "13563": 17,
        "13564": 6,
        "13565": 150,
        "13566": 225,
        "13567": 57,
        "13568": 108,
        "13569": 17,
        "13570": 124,
        "13571": 159,
        "13572": 49,
        "13573": 36,
        "13574": 7,
        "13575": 93,
        "13576": 175,
        "13577": 102,
        "13578": 227,
        "13579": 174,
        "13580": 8,
        "13581": 185,
        "13582": 161,
        "13583": 199,
        "13584": 159,
        "13585": 94,
        "13586": 37,
        "13587": 114,
        "13588": 80,
        "13589": 103,
        "13590": 53,
        "13591": 79,
        "13592": 170,
        "13593": 253,
        "13594": 205,
        "13595": 209,
        "13596": 144,
        "13597": 226,
        "13598": 202,
        "13599": 46,
        "13600": 65,
        "13601": 18,
        "13602": 209,
        "13603": 3,
        "13604": 150,
        "13605": 2,
        "13606": 153,
        "13607": 158,
        "13608": 38,
        "13609": 79,
        "13610": 213,
        "13611": 24,
        "13612": 26,
        "13613": 27,
        "13614": 196,
        "13615": 143,
        "13616": 182,
        "13617": 43,
        "13618": 71,
        "13619": 134,
        "13620": 166,
        "13621": 176,
        "13622": 196,
        "13623": 199,
        "13624": 40,
        "13625": 53,
        "13626": 239,
        "13627": 230,
        "13628": 46,
        "13629": 239,
        "13630": 254,
        "13631": 249,
        "13632": 171,
        "13633": 103,
        "13634": 214,
        "13635": 198,
        "13636": 159,
        "13637": 210,
        "13638": 225,
        "13639": 48,
        "13640": 34,
        "13641": 48,
        "13642": 78,
        "13643": 38,
        "13644": 46,
        "13645": 173,
        "13646": 28,
        "13647": 196,
        "13648": 24,
        "13649": 176,
        "13650": 69,
        "13651": 105,
        "13652": 196,
        "13653": 208,
        "13654": 110,
        "13655": 156,
        "13656": 90,
        "13657": 86,
        "13658": 145,
        "13659": 100,
        "13660": 233,
        "13661": 164,
        "13662": 87,
        "13663": 93,
        "13664": 164,
        "13665": 254,
        "13666": 140,
        "13667": 131,
        "13668": 170,
        "13669": 163,
        "13670": 82,
        "13671": 104,
        "13672": 145,
        "13673": 65,
        "13674": 148,
        "13675": 97,
        "13676": 81,
        "13677": 216,
        "13678": 36,
        "13679": 146,
        "13680": 177,
        "13681": 205,
        "13682": 184,
        "13683": 209,
        "13684": 110,
        "13685": 6,
        "13686": 98,
        "13687": 114,
        "13688": 221,
        "13689": 27,
        "13690": 9,
        "13691": 134,
        "13692": 170,
        "13693": 93,
        "13694": 16,
        "13695": 140,
        "13696": 140,
        "13697": 233,
        "13698": 96,
        "13699": 156,
        "13700": 167,
        "13701": 29,
        "13702": 174,
        "13703": 136,
        "13704": 44,
        "13705": 54,
        "13706": 145,
        "13707": 253,
        "13708": 52,
        "13709": 50,
        "13710": 10,
        "13711": 113,
        "13712": 220,
        "13713": 125,
        "13714": 101,
        "13715": 218,
        "13716": 18,
        "13717": 13,
        "13718": 161,
        "13719": 170,
        "13720": 109,
        "13721": 172,
        "13722": 71,
        "13723": 104,
        "13724": 203,
        "13725": 101,
        "13726": 113,
        "13727": 227,
        "13728": 85,
        "13729": 102,
        "13730": 0,
        "13731": 13,
        "13732": 167,
        "13733": 0,
        "13734": 146,
        "13735": 63,
        "13736": 165,
        "13737": 199,
        "13738": 7,
        "13739": 159,
        "13740": 5,
        "13741": 138,
        "13742": 29,
        "13743": 189,
        "13744": 200,
        "13745": 42,
        "13746": 137,
        "13747": 215,
        "13748": 102,
        "13749": 219,
        "13750": 164,
        "13751": 80,
        "13752": 78,
        "13753": 119,
        "13754": 186,
        "13755": 236,
        "13756": 41,
        "13757": 141,
        "13758": 237,
        "13759": 103,
        "13760": 70,
        "13761": 233,
        "13762": 73,
        "13763": 62,
        "13764": 37,
        "13765": 8,
        "13766": 66,
        "13767": 204,
        "13768": 81,
        "13769": 225,
        "13770": 1,
        "13771": 157,
        "13772": 29,
        "13773": 58,
        "13774": 82,
        "13775": 142,
        "13776": 172,
        "13777": 173,
        "13778": 189,
        "13779": 31,
        "13780": 89,
        "13781": 211,
        "13782": 176,
        "13783": 168,
        "13784": 81,
        "13785": 4,
        "13786": 228,
        "13787": 241,
        "13788": 102,
        "13789": 129,
        "13790": 28,
        "13791": 233,
        "13792": 168,
        "13793": 66,
        "13794": 214,
        "13795": 176,
        "13796": 46,
        "13797": 73,
        "13798": 172,
        "13799": 123,
        "13800": 29,
        "13801": 110,
        "13802": 214,
        "13803": 18,
        "13804": 28,
        "13805": 88,
        "13806": 249,
        "13807": 224,
        "13808": 228,
        "13809": 223,
        "13810": 140,
        "13811": 65,
        "13812": 11,
        "13813": 209,
        "13814": 108,
        "13815": 202,
        "13816": 193,
        "13817": 95,
        "13818": 132,
        "13819": 174,
        "13820": 187,
        "13821": 218,
        "13822": 125,
        "13823": 200,
        "13824": 208,
        "13825": 224,
        "13826": 226,
        "13827": 235,
        "13828": 185,
        "13829": 127,
        "13830": 147,
        "13831": 0,
        "13832": 88,
        "13833": 174,
        "13834": 163,
        "13835": 8,
        "13836": 88,
        "13837": 56,
        "13838": 55,
        "13839": 16,
        "13840": 226,
        "13841": 151,
        "13842": 120,
        "13843": 231,
        "13844": 216,
        "13845": 193,
        "13846": 123,
        "13847": 149,
        "13848": 173,
        "13849": 14,
        "13850": 76,
        "13851": 127,
        "13852": 153,
        "13853": 86,
        "13854": 168,
        "13855": 68,
        "13856": 86,
        "13857": 24,
        "13858": 47,
        "13859": 27,
        "13860": 50,
        "13861": 229,
        "13862": 120,
        "13863": 121,
        "13864": 72,
        "13865": 156,
        "13866": 217,
        "13867": 215,
        "13868": 1,
        "13869": 22,
        "13870": 246,
        "13871": 234,
        "13872": 52,
        "13873": 216,
        "13874": 182,
        "13875": 204,
        "13876": 216,
        "13877": 106,
        "13878": 61,
        "13879": 123,
        "13880": 163,
        "13881": 99,
        "13882": 136,
        "13883": 251,
        "13884": 100,
        "13885": 102,
        "13886": 102,
        "13887": 152,
        "13888": 143,
        "13889": 156,
        "13890": 159,
        "13891": 15,
        "13892": 36,
        "13893": 188,
        "13894": 23,
        "13895": 231,
        "13896": 205,
        "13897": 186,
        "13898": 210,
        "13899": 151,
        "13900": 51,
        "13901": 11,
        "13902": 253,
        "13903": 177,
        "13904": 204,
        "13905": 172,
        "13906": 168,
        "13907": 28,
        "13908": 42,
        "13909": 86,
        "13910": 114,
        "13911": 67,
        "13912": 118,
        "13913": 111,
        "13914": 17,
        "13915": 225,
        "13916": 37,
        "13917": 240,
        "13918": 155,
        "13919": 119,
        "13920": 11,
        "13921": 240,
        "13922": 26,
        "13923": 119,
        "13924": 234,
        "13925": 25,
        "13926": 168,
        "13927": 53,
        "13928": 143,
        "13929": 12,
        "13930": 29,
        "13931": 54,
        "13932": 93,
        "13933": 38,
        "13934": 221,
        "13935": 94,
        "13936": 207,
        "13937": 134,
        "13938": 17,
        "13939": 207,
        "13940": 35,
        "13941": 196,
        "13942": 123,
        "13943": 239,
        "13944": 131,
        "13945": 127,
        "13946": 151,
        "13947": 87,
        "13948": 47,
        "13949": 37,
        "13950": 137,
        "13951": 53,
        "13952": 3,
        "13953": 193,
        "13954": 90,
        "13955": 120,
        "13956": 31,
        "13957": 253,
        "13958": 203,
        "13959": 72,
        "13960": 227,
        "13961": 81,
        "13962": 139,
        "13963": 194,
        "13964": 102,
        "13965": 174,
        "13966": 210,
        "13967": 177,
        "13968": 156,
        "13969": 63,
        "13970": 89,
        "13971": 63,
        "13972": 180,
        "13973": 231,
        "13974": 136,
        "13975": 50,
        "13976": 3,
        "13977": 180,
        "13978": 157,
        "13979": 53,
        "13980": 18,
        "13981": 234,
        "13982": 205,
        "13983": 37,
        "13984": 242,
        "13985": 134,
        "13986": 77,
        "13987": 31,
        "13988": 241,
        "13989": 199,
        "13990": 163,
        "13991": 71,
        "13992": 65,
        "13993": 12,
        "13994": 63,
        "13995": 248,
        "13996": 53,
        "13997": 97,
        "13998": 225,
        "13999": 184,
        "14000": 178,
        "14001": 174,
        "14002": 102,
        "14003": 55,
        "14004": 137,
        "14005": 132,
        "14006": 147,
        "14007": 230,
        "14008": 250,
        "14009": 192,
        "14010": 199,
        "14011": 112,
        "14012": 75,
        "14013": 238,
        "14014": 62,
        "14015": 223,
        "14016": 79,
        "14017": 252,
        "14018": 46,
        "14019": 204,
        "14020": 250,
        "14021": 11,
        "14022": 154,
        "14023": 110,
        "14024": 91,
        "14025": 193,
        "14026": 10,
        "14027": 241,
        "14028": 61,
        "14029": 229,
        "14030": 217,
        "14031": 183,
        "14032": 231,
        "14033": 40,
        "14034": 221,
        "14035": 245,
        "14036": 25,
        "14037": 142,
        "14038": 43,
        "14039": 255,
        "14040": 26,
        "14041": 253,
        "14042": 170,
        "14043": 75,
        "14044": 209,
        "14045": 246,
        "14046": 130,
        "14047": 6,
        "14048": 29,
        "14049": 163,
        "14050": 231,
        "14051": 180,
        "14052": 154,
        "14053": 98,
        "14054": 75,
        "14055": 129,
        "14056": 155,
        "14057": 26,
        "14058": 96,
        "14059": 135,
        "14060": 253,
        "14061": 20,
        "14062": 148,
        "14063": 5,
        "14064": 101,
        "14065": 205,
        "14066": 215,
        "14067": 107,
        "14068": 78,
        "14069": 70,
        "14070": 109,
        "14071": 179,
        "14072": 207,
        "14073": 46,
        "14074": 53,
        "14075": 146,
        "14076": 115,
        "14077": 91,
        "14078": 96,
        "14079": 174,
        "14080": 182,
        "14081": 47,
        "14082": 140,
        "14083": 209,
        "14084": 228,
        "14085": 159,
        "14086": 84,
        "14087": 167,
        "14088": 209,
        "14089": 63,
        "14090": 62,
        "14091": 141,
        "14092": 77,
        "14093": 72,
        "14094": 218,
        "14095": 116,
        "14096": 233,
        "14097": 37,
        "14098": 115,
        "14099": 62,
        "14100": 147,
        "14101": 69,
        "14102": 13,
        "14103": 92,
        "14104": 5,
        "14105": 151,
        "14106": 21,
        "14107": 85,
        "14108": 231,
        "14109": 114,
        "14110": 97,
        "14111": 28,
        "14112": 219,
        "14113": 207,
        "14114": 71,
        "14115": 47,
        "14116": 40,
        "14117": 63,
        "14118": 242,
        "14119": 84,
        "14120": 27,
        "14121": 218,
        "14122": 43,
        "14123": 250,
        "14124": 249,
        "14125": 199,
        "14126": 80,
        "14127": 200,
        "14128": 65,
        "14129": 146,
        "14130": 120,
        "14131": 43,
        "14132": 126,
        "14133": 95,
        "14134": 152,
        "14135": 194,
        "14136": 32,
        "14137": 230,
        "14138": 152,
        "14139": 70,
        "14140": 113,
        "14141": 249,
        "14142": 135,
        "14143": 234,
        "14144": 156,
        "14145": 210,
        "14146": 199,
        "14147": 18,
        "14148": 73,
        "14149": 151,
        "14150": 59,
        "14151": 161,
        "14152": 234,
        "14153": 24,
        "14154": 208,
        "14155": 167,
        "14156": 200,
        "14157": 64,
        "14158": 18,
        "14159": 217,
        "14160": 19,
        "14161": 21,
        "14162": 136,
        "14163": 226,
        "14164": 144,
        "14165": 121,
        "14166": 8,
        "14167": 211,
        "14168": 50,
        "14169": 142,
        "14170": 7,
        "14171": 171,
        "14172": 232,
        "14173": 52,
        "14174": 90,
        "14175": 40,
        "14176": 156,
        "14177": 67,
        "14178": 35,
        "14179": 149,
        "14180": 152,
        "14181": 93,
        "14182": 186,
        "14183": 173,
        "14184": 59,
        "14185": 15,
        "14186": 124,
        "14187": 216,
        "14188": 161,
        "14189": 221,
        "14190": 245,
        "14191": 222,
        "14192": 65,
        "14193": 37,
        "14194": 205,
        "14195": 248,
        "14196": 195,
        "14197": 69,
        "14198": 64,
        "14199": 190,
        "14200": 157,
        "14201": 84,
        "14202": 187,
        "14203": 101,
        "14204": 22,
        "14205": 183,
        "14206": 228,
        "14207": 172,
        "14208": 170,
        "14209": 45,
        "14210": 127,
        "14211": 118,
        "14212": 94,
        "14213": 3,
        "14214": 219,
        "14215": 202,
        "14216": 107,
        "14217": 51,
        "14218": 81,
        "14219": 141,
        "14220": 49,
        "14221": 127,
        "14222": 23,
        "14223": 80,
        "14224": 101,
        "14225": 30,
        "14226": 61,
        "14227": 139,
        "14228": 139,
        "14229": 170,
        "14230": 238,
        "14231": 180,
        "14232": 122,
        "14233": 123,
        "14234": 38,
        "14235": 80,
        "14236": 42,
        "14237": 186,
        "14238": 94,
        "14239": 238,
        "14240": 169,
        "14241": 195,
        "14242": 110,
        "14243": 189,
        "14244": 50,
        "14245": 67,
        "14246": 99,
        "14247": 61,
        "14248": 209,
        "14249": 57,
        "14250": 181,
        "14251": 92,
        "14252": 9,
        "14253": 6,
        "14254": 107,
        "14255": 108,
        "14256": 205,
        "14257": 40,
        "14258": 217,
        "14259": 220,
        "14260": 38,
        "14261": 231,
        "14262": 28,
        "14263": 0,
        "14264": 10,
        "14265": 54,
        "14266": 213,
        "14267": 22,
        "14268": 82,
        "14269": 216,
        "14270": 149,
        "14271": 203,
        "14272": 248,
        "14273": 112,
        "14274": 218,
        "14275": 43,
        "14276": 207,
        "14277": 170,
        "14278": 57,
        "14279": 75,
        "14280": 95,
        "14281": 100,
        "14282": 208,
        "14283": 106,
        "14284": 64,
        "14285": 207,
        "14286": 248,
        "14287": 150,
        "14288": 213,
        "14289": 36,
        "14290": 134,
        "14291": 12,
        "14292": 50,
        "14293": 210,
        "14294": 128,
        "14295": 79,
        "14296": 115,
        "14297": 29,
        "14298": 52,
        "14299": 224,
        "14300": 92,
        "14301": 125,
        "14302": 104,
        "14303": 54,
        "14304": 61,
        "14305": 47,
        "14306": 154,
        "14307": 125,
        "14308": 151,
        "14309": 213,
        "14310": 61,
        "14311": 174,
        "14312": 63,
        "14313": 214,
        "14314": 208,
        "14315": 26,
        "14316": 63,
        "14317": 92,
        "14318": 186,
        "14319": 195,
        "14320": 173,
        "14321": 167,
        "14322": 103,
        "14323": 183,
        "14324": 121,
        "14325": 69,
        "14326": 156,
        "14327": 181,
        "14328": 220,
        "14329": 165,
        "14330": 57,
        "14331": 129,
        "14332": 68,
        "14333": 119,
        "14334": 127,
        "14335": 73,
        "14336": 178,
        "14337": 238,
        "14338": 187,
        "14339": 150,
        "14340": 91,
        "14341": 223,
        "14342": 109,
        "14343": 180,
        "14344": 110,
        "14345": 168,
        "14346": 138,
        "14347": 89,
        "14348": 155,
        "14349": 186,
        "14350": 233,
        "14351": 203,
        "14352": 1,
        "14353": 127,
        "14354": 0,
        "14355": 93,
        "14356": 81,
        "14357": 159,
        "14358": 221,
        "14359": 37,
        "14360": 30,
        "14361": 166,
        "14362": 207,
        "14363": 94,
        "14364": 169,
        "14365": 197,
        "14366": 24,
        "14367": 53,
        "14368": 165,
        "14369": 73,
        "14370": 13,
        "14371": 128,
        "14372": 29,
        "14373": 211,
        "14374": 241,
        "14375": 105,
        "14376": 201,
        "14377": 55,
        "14378": 31,
        "14379": 61,
        "14380": 132,
        "14381": 238,
        "14382": 41,
        "14383": 207,
        "14384": 151,
        "14385": 211,
        "14386": 227,
        "14387": 163,
        "14388": 157,
        "14389": 215,
        "14390": 125,
        "14391": 98,
        "14392": 150,
        "14393": 123,
        "14394": 151,
        "14395": 123,
        "14396": 113,
        "14397": 251,
        "14398": 170,
        "14399": 148,
        "14400": 113,
        "14401": 188,
        "14402": 146,
        "14403": 193,
        "14404": 84,
        "14405": 87,
        "14406": 126,
        "14407": 182,
        "14408": 11,
        "14409": 142,
        "14410": 185,
        "14411": 55,
        "14412": 232,
        "14413": 92,
        "14414": 28,
        "14415": 71,
        "14416": 30,
        "14417": 219,
        "14418": 228,
        "14419": 69,
        "14420": 204,
        "14421": 238,
        "14422": 253,
        "14423": 23,
        "14424": 216,
        "14425": 119,
        "14426": 166,
        "14427": 54,
        "14428": 15,
        "14429": 196,
        "14430": 27,
        "14431": 8,
        "14432": 165,
        "14433": 25,
        "14434": 248,
        "14435": 48,
        "14436": 23,
        "14437": 188,
        "14438": 92,
        "14439": 60,
        "14440": 29,
        "14441": 194,
        "14442": 101,
        "14443": 74,
        "14444": 66,
        "14445": 86,
        "14446": 212,
        "14447": 177,
        "14448": 231,
        "14449": 184,
        "14450": 207,
        "14451": 237,
        "14452": 34,
        "14453": 16,
        "14454": 196,
        "14455": 83,
        "14456": 226,
        "14457": 82,
        "14458": 180,
        "14459": 220,
        "14460": 142,
        "14461": 69,
        "14462": 174,
        "14463": 119,
        "14464": 230,
        "14465": 236,
        "14466": 148,
        "14467": 100,
        "14468": 62,
        "14469": 18,
        "14470": 136,
        "14471": 109,
        "14472": 102,
        "14473": 209,
        "14474": 86,
        "14475": 240,
        "14476": 41,
        "14477": 102,
        "14478": 219,
        "14479": 153,
        "14480": 107,
        "14481": 197,
        "14482": 59,
        "14483": 215,
        "14484": 60,
        "14485": 134,
        "14486": 237,
        "14487": 220,
        "14488": 116,
        "14489": 165,
        "14490": 99,
        "14491": 46,
        "14492": 247,
        "14493": 79,
        "14494": 60,
        "14495": 237,
        "14496": 99,
        "14497": 150,
        "14498": 185,
        "14499": 144,
        "14500": 22,
        "14501": 55,
        "14502": 143,
        "14503": 227,
        "14504": 203,
        "14505": 167,
        "14506": 230,
        "14507": 243,
        "14508": 78,
        "14509": 45,
        "14510": 103,
        "14511": 1,
        "14512": 54,
        "14513": 180,
        "14514": 131,
        "14515": 103,
        "14516": 107,
        "14517": 181,
        "14518": 44,
        "14519": 36,
        "14520": 231,
        "14521": 45,
        "14522": 8,
        "14523": 90,
        "14524": 225,
        "14525": 229,
        "14526": 181,
        "14527": 62,
        "14528": 23,
        "14529": 2,
        "14530": 162,
        "14531": 120,
        "14532": 53,
        "14533": 191,
        "14534": 48,
        "14535": 131,
        "14536": 247,
        "14537": 2,
        "14538": 145,
        "14539": 110,
        "14540": 135,
        "14541": 133,
        "14542": 205,
        "14543": 244,
        "14544": 127,
        "14545": 61,
        "14546": 60,
        "14547": 129,
        "14548": 76,
        "14549": 124,
        "14550": 232,
        "14551": 92,
        "14552": 7,
        "14553": 68,
        "14554": 162,
        "14555": 225,
        "14556": 220,
        "14557": 25,
        "14558": 178,
        "14559": 254,
        "14560": 147,
        "14561": 37,
        "14562": 96,
        "14563": 93,
        "14564": 227,
        "14565": 196,
        "14566": 107,
        "14567": 169,
        "14568": 37,
        "14569": 7,
        "14570": 40,
        "14571": 212,
        "14572": 42,
        "14573": 155,
        "14574": 219,
        "14575": 169,
        "14576": 99,
        "14577": 194,
        "14578": 143,
        "14579": 180,
        "14580": 69,
        "14581": 253,
        "14582": 25,
        "14583": 71,
        "14584": 118,
        "14585": 207,
        "14586": 150,
        "14587": 204,
        "14588": 230,
        "14589": 58,
        "14590": 200,
        "14591": 46,
        "14592": 238,
        "14593": 189,
        "14594": 85,
        "14595": 245,
        "14596": 227,
        "14597": 79,
        "14598": 61,
        "14599": 131,
        "14600": 51,
        "14601": 242,
        "14602": 255,
        "14603": 9,
        "14604": 86,
        "14605": 93,
        "14606": 112,
        "14607": 187,
        "14608": 7,
        "14609": 112,
        "14610": 4,
        "14611": 38,
        "14612": 191,
        "14613": 234,
        "14614": 47,
        "14615": 227,
        "14616": 34,
        "14617": 30,
        "14618": 255,
        "14619": 253,
        "14620": 217,
        "14621": 56,
        "14622": 252,
        "14623": 27,
        "14624": 63,
        "14625": 245,
        "14626": 36,
        "14627": 220,
        "14628": 17,
        "14629": 242,
        "14630": 255,
        "14631": 149,
        "14632": 6,
        "14633": 91,
        "14634": 119,
        "14635": 100,
        "14636": 47,
        "14637": 50,
        "14638": 77,
        "14639": 70,
        "14640": 228,
        "14641": 12,
        "14642": 217,
        "14643": 8,
        "14644": 133,
        "14645": 96,
        "14646": 116,
        "14647": 97,
        "14648": 72,
        "14649": 19,
        "14650": 114,
        "14651": 101,
        "14652": 151,
        "14653": 171,
        "14654": 157,
        "14655": 183,
        "14656": 184,
        "14657": 38,
        "14658": 84,
        "14659": 210,
        "14660": 255,
        "14661": 233,
        "14662": 45,
        "14663": 85,
        "14664": 187,
        "14665": 132,
        "14666": 140,
        "14667": 172,
        "14668": 189,
        "14669": 53,
        "14670": 74,
        "14671": 5,
        "14672": 30,
        "14673": 20,
        "14674": 82,
        "14675": 116,
        "14676": 168,
        "14677": 102,
        "14678": 253,
        "14679": 64,
        "14680": 214,
        "14681": 193,
        "14682": 255,
        "14683": 125,
        "14684": 36,
        "14685": 215,
        "14686": 201,
        "14687": 214,
        "14688": 230,
        "14689": 178,
        "14690": 15,
        "14691": 176,
        "14692": 103,
        "14693": 5,
        "14694": 118,
        "14695": 32,
        "14696": 209,
        "14697": 246,
        "14698": 2,
        "14699": 139,
        "14700": 214,
        "14701": 191,
        "14702": 64,
        "14703": 2,
        "14704": 182,
        "14705": 245,
        "14706": 233,
        "14707": 196,
        "14708": 55,
        "14709": 33,
        "14710": 39,
        "14711": 58,
        "14712": 150,
        "14713": 191,
        "14714": 158,
        "14715": 72,
        "14716": 9,
        "14717": 50,
        "14718": 157,
        "14719": 131,
        "14720": 251,
        "14721": 23,
        "14722": 117,
        "14723": 49,
        "14724": 241,
        "14725": 217,
        "14726": 50,
        "14727": 123,
        "14728": 137,
        "14729": 173,
        "14730": 193,
        "14731": 129,
        "14732": 134,
        "14733": 167,
        "14734": 102,
        "14735": 111,
        "14736": 252,
        "14737": 99,
        "14738": 6,
        "14739": 157,
        "14740": 172,
        "14741": 182,
        "14742": 221,
        "14743": 108,
        "14744": 246,
        "14745": 71,
        "14746": 42,
        "14747": 114,
        "14748": 246,
        "14749": 104,
        "14750": 193,
        "14751": 35,
        "14752": 83,
        "14753": 170,
        "14754": 34,
        "14755": 116,
        "14756": 210,
        "14757": 166,
        "14758": 239,
        "14759": 134,
        "14760": 37,
        "14761": 168,
        "14762": 104,
        "14763": 138,
        "14764": 159,
        "14765": 131,
        "14766": 95,
        "14767": 110,
        "14768": 121,
        "14769": 255,
        "14770": 149,
        "14771": 96,
        "14772": 44,
        "14773": 84,
        "14774": 86,
        "14775": 15,
        "14776": 240,
        "14777": 112,
        "14778": 22,
        "14779": 106,
        "14780": 73,
        "14781": 230,
        "14782": 14,
        "14783": 211,
        "14784": 204,
        "14785": 148,
        "14786": 175,
        "14787": 201,
        "14788": 2,
        "14789": 44,
        "14790": 107,
        "14791": 124,
        "14792": 230,
        "14793": 13,
        "14794": 228,
        "14795": 128,
        "14796": 75,
        "14797": 67,
        "14798": 144,
        "14799": 89,
        "14800": 57,
        "14801": 80,
        "14802": 38,
        "14803": 194,
        "14804": 163,
        "14805": 24,
        "14806": 197,
        "14807": 155,
        "14808": 181,
        "14809": 147,
        "14810": 181,
        "14811": 87,
        "14812": 195,
        "14813": 251,
        "14814": 80,
        "14815": 215,
        "14816": 221,
        "14817": 223,
        "14818": 36,
        "14819": 163,
        "14820": 79,
        "14821": 4,
        "14822": 120,
        "14823": 138,
        "14824": 26,
        "14825": 213,
        "14826": 60,
        "14827": 182,
        "14828": 120,
        "14829": 61,
        "14830": 132,
        "14831": 51,
        "14832": 224,
        "14833": 186,
        "14834": 161,
        "14835": 1,
        "14836": 249,
        "14837": 12,
        "14838": 238,
        "14839": 247,
        "14840": 190,
        "14841": 198,
        "14842": 248,
        "14843": 60,
        "14844": 179,
        "14845": 158,
        "14846": 171,
        "14847": 62,
        "14848": 130,
        "14849": 146,
        "14850": 148,
        "14851": 195,
        "14852": 125,
        "14853": 37,
        "14854": 154,
        "14855": 42,
        "14856": 82,
        "14857": 125,
        "14858": 235,
        "14859": 210,
        "14860": 94,
        "14861": 191,
        "14862": 137,
        "14863": 32,
        "14864": 179,
        "14865": 69,
        "14866": 42,
        "14867": 190,
        "14868": 78,
        "14869": 98,
        "14870": 119,
        "14871": 104,
        "14872": 148,
        "14873": 217,
        "14874": 223,
        "14875": 202,
        "14876": 155,
        "14877": 176,
        "14878": 62,
        "14879": 174,
        "14880": 139,
        "14881": 28,
        "14882": 127,
        "14883": 172,
        "14884": 218,
        "14885": 200,
        "14886": 223,
        "14887": 57,
        "14888": 68,
        "14889": 220,
        "14890": 22,
        "14891": 61,
        "14892": 171,
        "14893": 95,
        "14894": 123,
        "14895": 238,
        "14896": 212,
        "14897": 206,
        "14898": 64,
        "14899": 142,
        "14900": 224,
        "14901": 4,
        "14902": 124,
        "14903": 173,
        "14904": 81,
        "14905": 225,
        "14906": 135,
        "14907": 94,
        "14908": 229,
        "14909": 80,
        "14910": 80,
        "14911": 94,
        "14912": 232,
        "14913": 185,
        "14914": 217,
        "14915": 143,
        "14916": 225,
        "14917": 195,
        "14918": 216,
        "14919": 81,
        "14920": 176,
        "14921": 228,
        "14922": 57,
        "14923": 105,
        "14924": 73,
        "14925": 146,
        "14926": 31,
        "14927": 78,
        "14928": 36,
        "14929": 101,
        "14930": 170,
        "14931": 169,
        "14932": 226,
        "14933": 18,
        "14934": 173,
        "14935": 122,
        "14936": 160,
        "14937": 131,
        "14938": 77,
        "14939": 186,
        "14940": 115,
        "14941": 85,
        "14942": 45,
        "14943": 218,
        "14944": 252,
        "14945": 89,
        "14946": 202,
        "14947": 128,
        "14948": 245,
        "14949": 152,
        "14950": 104,
        "14951": 236,
        "14952": 245,
        "14953": 216,
        "14954": 118,
        "14955": 101,
        "14956": 113,
        "14957": 162,
        "14958": 41,
        "14959": 5,
        "14960": 8,
        "14961": 25,
        "14962": 179,
        "14963": 202,
        "14964": 225,
        "14965": 77,
        "14966": 99,
        "14967": 46,
        "14968": 192,
        "14969": 158,
        "14970": 105,
        "14971": 172,
        "14972": 75,
        "14973": 56,
        "14974": 88,
        "14975": 65,
        "14976": 57,
        "14977": 32,
        "14978": 169,
        "14979": 247,
        "14980": 238,
        "14981": 81,
        "14982": 108,
        "14983": 173,
        "14984": 167,
        "14985": 214,
        "14986": 106,
        "14987": 88,
        "14988": 210,
        "14989": 108,
        "14990": 126,
        "14991": 1,
        "14992": 227,
        "14993": 88,
        "14994": 48,
        "14995": 157,
        "14996": 113,
        "14997": 89,
        "14998": 229,
        "14999": 74,
        "15000": 74,
        "15001": 202,
        "15002": 135,
        "15003": 124,
        "15004": 132,
        "15005": 83,
        "15006": 208,
        "15007": 103,
        "15008": 34,
        "15009": 60,
        "15010": 51,
        "15011": 234,
        "15012": 184,
        "15013": 159,
        "15014": 251,
        "15015": 30,
        "15016": 135,
        "15017": 176,
        "15018": 210,
        "15019": 191,
        "15020": 220,
        "15021": 80,
        "15022": 254,
        "15023": 215,
        "15024": 114,
        "15025": 22,
        "15026": 182,
        "15027": 245,
        "15028": 225,
        "15029": 24,
        "15030": 91,
        "15031": 2,
        "15032": 173,
        "15033": 104,
        "15034": 220,
        "15035": 241,
        "15036": 132,
        "15037": 159,
        "15038": 254,
        "15039": 100,
        "15040": 43,
        "15041": 66,
        "15042": 163,
        "15043": 190,
        "15044": 159,
        "15045": 215,
        "15046": 160,
        "15047": 148,
        "15048": 119,
        "15049": 185,
        "15050": 175,
        "15051": 134,
        "15052": 93,
        "15053": 7,
        "15054": 99,
        "15055": 232,
        "15056": 23,
        "15057": 139,
        "15058": 123,
        "15059": 76,
        "15060": 207,
        "15061": 53,
        "15062": 25,
        "15063": 18,
        "15064": 189,
        "15065": 13,
        "15066": 162,
        "15067": 249,
        "15068": 242,
        "15069": 73,
        "15070": 143,
        "15071": 242,
        "15072": 244,
        "15073": 213,
        "15074": 67,
        "15075": 179,
        "15076": 17,
        "15077": 69,
        "15078": 68,
        "15079": 4,
        "15080": 119,
        "15081": 168,
        "15082": 126,
        "15083": 59,
        "15084": 85,
        "15085": 11,
        "15086": 133,
        "15087": 236,
        "15088": 240,
        "15089": 154,
        "15090": 186,
        "15091": 24,
        "15092": 253,
        "15093": 115,
        "15094": 212,
        "15095": 225,
        "15096": 118,
        "15097": 62,
        "15098": 60,
        "15099": 199,
        "15100": 222,
        "15101": 173,
        "15102": 155,
        "15103": 103,
        "15104": 78,
        "15105": 74,
        "15106": 227,
        "15107": 84,
        "15108": 42,
        "15109": 150,
        "15110": 191,
        "15111": 91,
        "15112": 242,
        "15113": 89,
        "15114": 87,
        "15115": 134,
        "15116": 148,
        "15117": 246,
        "15118": 106,
        "15119": 213,
        "15120": 1,
        "15121": 158,
        "15122": 161,
        "15123": 214,
        "15124": 114,
        "15125": 205,
        "15126": 58,
        "15127": 60,
        "15128": 67,
        "15129": 219,
        "15130": 117,
        "15131": 185,
        "15132": 205,
        "15133": 140,
        "15134": 184,
        "15135": 17,
        "15136": 191,
        "15137": 71,
        "15138": 162,
        "15139": 152,
        "15140": 53,
        "15141": 7,
        "15142": 237,
        "15143": 97,
        "15144": 83,
        "15145": 122,
        "15146": 242,
        "15147": 39,
        "15148": 121,
        "15149": 117,
        "15150": 127,
        "15151": 11,
        "15152": 63,
        "15153": 63,
        "15154": 168,
        "15155": 25,
        "15156": 139,
        "15157": 30,
        "15158": 229,
        "15159": 146,
        "15160": 213,
        "15161": 5,
        "15162": 178,
        "15163": 237,
        "15164": 238,
        "15165": 147,
        "15166": 40,
        "15167": 197,
        "15168": 32,
        "15169": 63,
        "15170": 70,
        "15171": 226,
        "15172": 189,
        "15173": 212,
        "15174": 3,
        "15175": 167,
        "15176": 192,
        "15177": 45,
        "15178": 11,
        "15179": 137,
        "15180": 99,
        "15181": 66,
        "15182": 251,
        "15183": 107,
        "15184": 197,
        "15185": 202,
        "15186": 85,
        "15187": 249,
        "15188": 233,
        "15189": 153,
        "15190": 39,
        "15191": 45,
        "15192": 113,
        "15193": 81,
        "15194": 155,
        "15195": 99,
        "15196": 204,
        "15197": 221,
        "15198": 62,
        "15199": 209,
        "15200": 167,
        "15201": 23,
        "15202": 49,
        "15203": 218,
        "15204": 91,
        "15205": 17,
        "15206": 152,
        "15207": 250,
        "15208": 69,
        "15209": 138,
        "15210": 221,
        "15211": 60,
        "15212": 73,
        "15213": 234,
        "15214": 166,
        "15215": 183,
        "15216": 44,
        "15217": 179,
        "15218": 151,
        "15219": 138,
        "15220": 85,
        "15221": 178,
        "15222": 212,
        "15223": 54,
        "15224": 212,
        "15225": 117,
        "15226": 116,
        "15227": 252,
        "15228": 130,
        "15229": 80,
        "15230": 188,
        "15231": 120,
        "15232": 99,
        "15233": 8,
        "15234": 89,
        "15235": 200,
        "15236": 51,
        "15237": 21,
        "15238": 244,
        "15239": 37,
        "15240": 114,
        "15241": 186,
        "15242": 121,
        "15243": 50,
        "15244": 77,
        "15245": 39,
        "15246": 26,
        "15247": 248,
        "15248": 130,
        "15249": 77,
        "15250": 209,
        "15251": 73,
        "15252": 212,
        "15253": 205,
        "15254": 4,
        "15255": 164,
        "15256": 14,
        "15257": 70,
        "15258": 113,
        "15259": 63,
        "15260": 193,
        "15261": 205,
        "15262": 234,
        "15263": 39,
        "15264": 228,
        "15265": 12,
        "15266": 92,
        "15267": 171,
        "15268": 122,
        "15269": 235,
        "15270": 254,
        "15271": 159,
        "15272": 212,
        "15273": 74,
        "15274": 105,
        "15275": 163,
        "15276": 252,
        "15277": 249,
        "15278": 170,
        "15279": 88,
        "15280": 170,
        "15281": 230,
        "15282": 90,
        "15283": 219,
        "15284": 44,
        "15285": 63,
        "15286": 247,
        "15287": 116,
        "15288": 37,
        "15289": 166,
        "15290": 243,
        "15291": 224,
        "15292": 145,
        "15293": 99,
        "15294": 74,
        "15295": 81,
        "15296": 10,
        "15297": 244,
        "15298": 103,
        "15299": 80,
        "15300": 177,
        "15301": 232,
        "15302": 96,
        "15303": 45,
        "15304": 159,
        "15305": 103,
        "15306": 46,
        "15307": 207,
        "15308": 233,
        "15309": 79,
        "15310": 83,
        "15311": 197,
        "15312": 162,
        "15313": 201,
        "15314": 248,
        "15315": 92,
        "15316": 65,
        "15317": 193,
        "15318": 115,
        "15319": 55,
        "15320": 140,
        "15321": 159,
        "15322": 74,
        "15323": 252,
        "15324": 249,
        "15325": 62,
        "15326": 151,
        "15327": 117,
        "15328": 135,
        "15329": 87,
        "15330": 18,
        "15331": 155,
        "15332": 82,
        "15333": 213,
        "15334": 209,
        "15335": 203,
        "15336": 0,
        "15337": 62,
        "15338": 221,
        "15339": 187,
        "15340": 120,
        "15341": 54,
        "15342": 241,
        "15343": 28,
        "15344": 75,
        "15345": 33,
        "15346": 128,
        "15347": 169,
        "15348": 247,
        "15349": 27,
        "15350": 21,
        "15351": 44,
        "15352": 224,
        "15353": 173,
        "15354": 222,
        "15355": 243,
        "15356": 97,
        "15357": 134,
        "15358": 72,
        "15359": 217,
        "15360": 165,
        "15361": 51,
        "15362": 122,
        "15363": 246,
        "15364": 29,
        "15365": 80,
        "15366": 94,
        "15367": 27,
        "15368": 252,
        "15369": 116,
        "15370": 2,
        "15371": 227,
        "15372": 97,
        "15373": 225,
        "15374": 124,
        "15375": 204,
        "15376": 57,
        "15377": 71,
        "15378": 69,
        "15379": 155,
        "15380": 88,
        "15381": 3,
        "15382": 238,
        "15383": 245,
        "15384": 210,
        "15385": 157,
        "15386": 223,
        "15387": 77,
        "15388": 225,
        "15389": 46,
        "15390": 81,
        "15391": 18,
        "15392": 240,
        "15393": 105,
        "15394": 227,
        "15395": 132,
        "15396": 176,
        "15397": 146,
        "15398": 50,
        "15399": 178,
        "15400": 153,
        "15401": 122,
        "15402": 254,
        "15403": 2,
        "15404": 139,
        "15405": 59,
        "15406": 170,
        "15407": 134,
        "15408": 237,
        "15409": 183,
        "15410": 165,
        "15411": 53,
        "15412": 102,
        "15413": 22,
        "15414": 171,
        "15415": 116,
        "15416": 15,
        "15417": 3,
        "15418": 255,
        "15419": 0,
        "15420": 1,
        "15421": 93,
        "15422": 77,
        "15423": 171,
        "15424": 8,
        "15425": 20,
        "15426": 132,
        "15427": 133,
        "15428": 129,
        "15429": 223,
        "15430": 52,
        "15431": 239,
        "15432": 94,
        "15433": 70,
        "15434": 120,
        "15435": 8,
        "15436": 252,
        "15437": 36,
        "15438": 184,
        "15439": 244,
        "15440": 39,
        "15441": 142,
        "15442": 57,
        "15443": 140,
        "15444": 129,
        "15445": 19,
        "15446": 112,
        "15447": 37,
        "15448": 144,
        "15449": 109,
        "15450": 206,
        "15451": 81,
        "15452": 204,
        "15453": 23,
        "15454": 199,
        "15455": 110,
        "15456": 16,
        "15457": 252,
        "15458": 185,
        "15459": 112,
        "15460": 245,
        "15461": 95,
        "15462": 57,
        "15463": 143,
        "15464": 166,
        "15465": 234,
        "15466": 13,
        "15467": 65,
        "15468": 4,
        "15469": 30,
        "15470": 106,
        "15471": 57,
        "15472": 18,
        "15473": 93,
        "15474": 167,
        "15475": 238,
        "15476": 31,
        "15477": 80,
        "15478": 60,
        "15479": 153,
        "15480": 119,
        "15481": 132,
        "15482": 96,
        "15483": 213,
        "15484": 139,
        "15485": 68,
        "15486": 101,
        "15487": 45,
        "15488": 140,
        "15489": 211,
        "15490": 200,
        "15491": 163,
        "15492": 74,
        "15493": 125,
        "15494": 191,
        "15495": 240,
        "15496": 26,
        "15497": 4,
        "15498": 105,
        "15499": 4,
        "15500": 154,
        "15501": 215,
        "15502": 0,
        "15503": 143,
        "15504": 225,
        "15505": 99,
        "15506": 101,
        "15507": 117,
        "15508": 186,
        "15509": 158,
        "15510": 201,
        "15511": 59,
        "15512": 107,
        "15513": 209,
        "15514": 9,
        "15515": 141,
        "15516": 127,
        "15517": 158,
        "15518": 23,
        "15519": 23,
        "15520": 244,
        "15521": 212,
        "15522": 204,
        "15523": 62,
        "15524": 186,
        "15525": 25,
        "15526": 157,
        "15527": 214,
        "15528": 228,
        "15529": 100,
        "15530": 124,
        "15531": 101,
        "15532": 6,
        "15533": 213,
        "15534": 107,
        "15535": 161,
        "15536": 167,
        "15537": 158,
        "15538": 163,
        "15539": 188,
        "15540": 243,
        "15541": 89,
        "15542": 80,
        "15543": 167,
        "15544": 237,
        "15545": 166,
        "15546": 14,
        "15547": 70,
        "15548": 63,
        "15549": 242,
        "15550": 9,
        "15551": 131,
        "15552": 81,
        "15553": 230,
        "15554": 54,
        "15555": 61,
        "15556": 243,
        "15557": 127,
        "15558": 108,
        "15559": 187,
        "15560": 5,
        "15561": 78,
        "15562": 230,
        "15563": 172,
        "15564": 73,
        "15565": 44,
        "15566": 78,
        "15567": 234,
        "15568": 42,
        "15569": 242,
        "15570": 14,
        "15571": 86,
        "15572": 127,
        "15573": 80,
        "15574": 80,
        "15575": 208,
        "15576": 206,
        "15577": 136,
        "15578": 66,
        "15579": 210,
        "15580": 29,
        "15581": 6,
        "15582": 12,
        "15583": 175,
        "15584": 249,
        "15585": 98,
        "15586": 206,
        "15587": 238,
        "15588": 152,
        "15589": 183,
        "15590": 154,
        "15591": 206,
        "15592": 248,
        "15593": 165,
        "15594": 216,
        "15595": 220,
        "15596": 5,
        "15597": 178,
        "15598": 106,
        "15599": 22,
        "15600": 30,
        "15601": 246,
        "15602": 75,
        "15603": 184,
        "15604": 248,
        "15605": 218,
        "15606": 66,
        "15607": 99,
        "15608": 182,
        "15609": 18,
        "15610": 122,
        "15611": 130,
        "15612": 52,
        "15613": 193,
        "15614": 117,
        "15615": 25,
        "15616": 47,
        "15617": 168,
        "15618": 228,
        "15619": 240,
        "15620": 96,
        "15621": 192,
        "15622": 67,
        "15623": 238,
        "15624": 3,
        "15625": 52,
        "15626": 138,
        "15627": 174,
        "15628": 39,
        "15629": 14,
        "15630": 136,
        "15631": 73,
        "15632": 63,
        "15633": 246,
        "15634": 8,
        "15635": 254,
        "15636": 1,
        "15637": 159,
        "15638": 173,
        "15639": 139,
        "15640": 207,
        "15641": 69,
        "15642": 204,
        "15643": 29,
        "15644": 172,
        "15645": 240,
        "15646": 44,
        "15647": 135,
        "15648": 172,
        "15649": 81,
        "15650": 149,
        "15651": 99,
        "15652": 166,
        "15653": 203,
        "15654": 224,
        "15655": 190,
        "15656": 12,
        "15657": 208,
        "15658": 53,
        "15659": 117,
        "15660": 106,
        "15661": 0,
        "15662": 113,
        "15663": 97,
        "15664": 22,
        "15665": 17,
        "15666": 200,
        "15667": 122,
        "15668": 71,
        "15669": 238,
        "15670": 132,
        "15671": 28,
        "15672": 181,
        "15673": 248,
        "15674": 68,
        "15675": 239,
        "15676": 18,
        "15677": 222,
        "15678": 198,
        "15679": 180,
        "15680": 209,
        "15681": 197,
        "15682": 24,
        "15683": 102,
        "15684": 181,
        "15685": 33,
        "15686": 57,
        "15687": 148,
        "15688": 132,
        "15689": 180,
        "15690": 245,
        "15691": 103,
        "15692": 192,
        "15693": 66,
        "15694": 234,
        "15695": 213,
        "15696": 249,
        "15697": 246,
        "15698": 182,
        "15699": 2,
        "15700": 135,
        "15701": 28,
        "15702": 4,
        "15703": 220,
        "15704": 220,
        "15705": 208,
        "15706": 116,
        "15707": 133,
        "15708": 20,
        "15709": 43,
        "15710": 85,
        "15711": 79,
        "15712": 78,
        "15713": 230,
        "15714": 202,
        "15715": 172,
        "15716": 155,
        "15717": 231,
        "15718": 110,
        "15719": 199,
        "15720": 106,
        "15721": 218,
        "15722": 208,
        "15723": 152,
        "15724": 17,
        "15725": 63,
        "15726": 129,
        "15727": 189,
        "15728": 64,
        "15729": 239,
        "15730": 65,
        "15731": 248,
        "15732": 162,
        "15733": 249,
        "15734": 18,
        "15735": 76,
        "15736": 80,
        "15737": 65,
        "15738": 249,
        "15739": 166,
        "15740": 129,
        "15741": 27,
        "15742": 20,
        "15743": 78,
        "15744": 189,
        "15745": 208,
        "15746": 34,
        "15747": 64,
        "15748": 172,
        "15749": 55,
        "15750": 152,
        "15751": 35,
        "15752": 10,
        "15753": 215,
        "15754": 211,
        "15755": 178,
        "15756": 238,
        "15757": 123,
        "15758": 186,
        "15759": 11,
        "15760": 144,
        "15761": 250,
        "15762": 16,
        "15763": 111,
        "15764": 121,
        "15765": 232,
        "15766": 211,
        "15767": 53,
        "15768": 58,
        "15769": 18,
        "15770": 204,
        "15771": 103,
        "15772": 175,
        "15773": 145,
        "15774": 165,
        "15775": 187,
        "15776": 118,
        "15777": 177,
        "15778": 102,
        "15779": 131,
        "15780": 148,
        "15781": 147,
        "15782": 4,
        "15783": 168,
        "15784": 57,
        "15785": 25,
        "15786": 121,
        "15787": 228,
        "15788": 229,
        "15789": 237,
        "15790": 231,
        "15791": 31,
        "15792": 7,
        "15793": 209,
        "15794": 108,
        "15795": 192,
        "15796": 109,
        "15797": 85,
        "15798": 100,
        "15799": 143,
        "15800": 147,
        "15801": 226,
        "15802": 223,
        "15803": 66,
        "15804": 169,
        "15805": 181,
        "15806": 252,
        "15807": 243,
        "15808": 240,
        "15809": 54,
        "15810": 227,
        "15811": 10,
        "15812": 167,
        "15813": 62,
        "15814": 105,
        "15815": 186,
        "15816": 56,
        "15817": 100,
        "15818": 242,
        "15819": 206,
        "15820": 195,
        "15821": 110,
        "15822": 143,
        "15823": 177,
        "15824": 123,
        "15825": 2,
        "15826": 254,
        "15827": 237,
        "15828": 115,
        "15829": 147,
        "15830": 45,
        "15831": 77,
        "15832": 82,
        "15833": 236,
        "15834": 34,
        "15835": 213,
        "15836": 88,
        "15837": 231,
        "15838": 248,
        "15839": 75,
        "15840": 174,
        "15841": 163,
        "15842": 220,
        "15843": 8,
        "15844": 97,
        "15845": 30,
        "15846": 212,
        "15847": 246,
        "15848": 117,
        "15849": 191,
        "15850": 101,
        "15851": 207,
        "15852": 133,
        "15853": 15,
        "15854": 31,
        "15855": 121,
        "15856": 210,
        "15857": 11,
        "15858": 16,
        "15859": 168,
        "15860": 244,
        "15861": 62,
        "15862": 234,
        "15863": 31,
        "15864": 67,
        "15865": 3,
        "15866": 28,
        "15867": 185,
        "15868": 234,
        "15869": 239,
        "15870": 246,
        "15871": 200,
        "15872": 163,
        "15873": 29,
        "15874": 66,
        "15875": 185,
        "15876": 27,
        "15877": 20,
        "15878": 74,
        "15879": 64,
        "15880": 72,
        "15881": 149,
        "15882": 64,
        "15883": 58,
        "15884": 154,
        "15885": 220,
        "15886": 229,
        "15887": 100,
        "15888": 16,
        "15889": 46,
        "15890": 201,
        "15891": 228,
        "15892": 204,
        "15893": 183,
        "15894": 179,
        "15895": 133,
        "15896": 140,
        "15897": 110,
        "15898": 167,
        "15899": 185,
        "15900": 213,
        "15901": 121,
        "15902": 248,
        "15903": 157,
        "15904": 129,
        "15905": 211,
        "15906": 253,
        "15907": 65,
        "15908": 98,
        "15909": 154,
        "15910": 86,
        "15911": 235,
        "15912": 142,
        "15913": 167,
        "15914": 15,
        "15915": 108,
        "15916": 82,
        "15917": 99,
        "15918": 21,
        "15919": 241,
        "15920": 243,
        "15921": 99,
        "15922": 70,
        "15923": 72,
        "15924": 60,
        "15925": 20,
        "15926": 115,
        "15927": 99,
        "15928": 20,
        "15929": 188,
        "15930": 71,
        "15931": 222,
        "15932": 176,
        "15933": 138,
        "15934": 225,
        "15935": 188,
        "15936": 77,
        "15937": 193,
        "15938": 200,
        "15939": 68,
        "15940": 248,
        "15941": 89,
        "15942": 105,
        "15943": 96,
        "15944": 30,
        "15945": 116,
        "15946": 153,
        "15947": 151,
        "15948": 89,
        "15949": 128,
        "15950": 252,
        "15951": 136,
        "15952": 111,
        "15953": 120,
        "15954": 175,
        "15955": 170,
        "15956": 193,
        "15957": 54,
        "15958": 183,
        "15959": 210,
        "15960": 228,
        "15961": 154,
        "15962": 226,
        "15963": 144,
        "15964": 240,
        "15965": 209,
        "15966": 101,
        "15967": 210,
        "15968": 238,
        "15969": 202,
        "15970": 128,
        "15971": 84,
        "15972": 227,
        "15973": 120,
        "15974": 157,
        "15975": 70,
        "15976": 206,
        "15977": 242,
        "15978": 165,
        "15979": 0,
        "15980": 107,
        "15981": 190,
        "15982": 35,
        "15983": 227,
        "15984": 148,
        "15985": 225,
        "15986": 69,
        "15987": 228,
        "15988": 55,
        "15989": 112,
        "15990": 73,
        "15991": 168,
        "15992": 47,
        "15993": 204,
        "15994": 198,
        "15995": 4,
        "15996": 186,
        "15997": 194,
        "15998": 231,
        "15999": 44,
        "16000": 22,
        "16001": 46,
        "16002": 209,
        "16003": 154,
        "16004": 41,
        "16005": 101,
        "16006": 151,
        "16007": 199,
        "16008": 121,
        "16009": 235,
        "16010": 211,
        "16011": 38,
        "16012": 60,
        "16013": 187,
        "16014": 77,
        "16015": 163,
        "16016": 39,
        "16017": 216,
        "16018": 218,
        "16019": 72,
        "16020": 54,
        "16021": 71,
        "16022": 55,
        "16023": 175,
        "16024": 159,
        "16025": 77,
        "16026": 13,
        "16027": 235,
        "16028": 28,
        "16029": 132,
        "16030": 59,
        "16031": 72,
        "16032": 24,
        "16033": 118,
        "16034": 248,
        "16035": 70,
        "16036": 162,
        "16037": 73,
        "16038": 72,
        "16039": 122,
        "16040": 43,
        "16041": 71,
        "16042": 8,
        "16043": 156,
        "16044": 229,
        "16045": 43,
        "16046": 207,
        "16047": 12,
        "16048": 172,
        "16049": 144,
        "16050": 167,
        "16051": 121,
        "16052": 40,
        "16053": 242,
        "16054": 110,
        "16055": 76,
        "16056": 253,
        "16057": 224,
        "16058": 144,
        "16059": 156,
        "16060": 21,
        "16061": 152,
        "16062": 227,
        "16063": 146,
        "16064": 6,
        "16065": 98,
        "16066": 112,
        "16067": 191,
        "16068": 5,
        "16069": 173,
        "16070": 241,
        "16071": 2,
        "16072": 7,
        "16073": 136,
        "16074": 182,
        "16075": 172,
        "16076": 13,
        "16077": 50,
        "16078": 188,
        "16079": 175,
        "16080": 31,
        "16081": 27,
        "16082": 45,
        "16083": 158,
        "16084": 54,
        "16085": 139,
        "16086": 56,
        "16087": 50,
        "16088": 110,
        "16089": 29,
        "16090": 161,
        "16091": 34,
        "16092": 50,
        "16093": 31,
        "16094": 172,
        "16095": 116,
        "16096": 90,
        "16097": 239,
        "16098": 51,
        "16099": 240,
        "16100": 193,
        "16101": 110,
        "16102": 173,
        "16103": 114,
        "16104": 175,
        "16105": 115,
        "16106": 43,
        "16107": 168,
        "16108": 59,
        "16109": 98,
        "16110": 205,
        "16111": 125,
        "16112": 89,
        "16113": 102,
        "16114": 152,
        "16115": 68,
        "16116": 53,
        "16117": 190,
        "16118": 36,
        "16119": 117,
        "16120": 30,
        "16121": 61,
        "16122": 159,
        "16123": 224,
        "16124": 78,
        "16125": 69,
        "16126": 217,
        "16127": 24,
        "16128": 196,
        "16129": 77,
        "16130": 234,
        "16131": 94,
        "16132": 101,
        "16133": 113,
        "16134": 89,
        "16135": 123,
        "16136": 60,
        "16137": 53,
        "16138": 180,
        "16139": 191,
        "16140": 252,
        "16141": 69,
        "16142": 4,
        "16143": 139,
        "16144": 198,
        "16145": 65,
        "16146": 124,
        "16147": 82,
        "16148": 183,
        "16149": 153,
        "16150": 242,
        "16151": 80,
        "16152": 14,
        "16153": 8,
        "16154": 155,
        "16155": 0,
        "16156": 216,
        "16157": 230,
        "16158": 191,
        "16159": 61,
        "16160": 183,
        "16161": 171,
        "16162": 70,
        "16163": 147,
        "16164": 187,
        "16165": 189,
        "16166": 56,
        "16167": 205,
        "16168": 93,
        "16169": 133,
        "16170": 143,
        "16171": 106,
        "16172": 206,
        "16173": 85,
        "16174": 33,
        "16175": 204,
        "16176": 172,
        "16177": 158,
        "16178": 55,
        "16179": 67,
        "16180": 239,
        "16181": 5,
        "16182": 25,
        "16183": 230,
        "16184": 215,
        "16185": 170,
        "16186": 149,
        "16187": 15,
        "16188": 78,
        "16189": 133,
        "16190": 171,
        "16191": 87,
        "16192": 74,
        "16193": 246,
        "16194": 114,
        "16195": 232,
        "16196": 78,
        "16197": 134,
        "16198": 214,
        "16199": 50,
        "16200": 41,
        "16201": 118,
        "16202": 90,
        "16203": 22,
        "16204": 141,
        "16205": 153,
        "16206": 127,
        "16207": 182,
        "16208": 2,
        "16209": 209,
        "16210": 224,
        "16211": 231,
        "16212": 138,
        "16213": 154,
        "16214": 48,
        "16215": 118,
        "16216": 144,
        "16217": 57,
        "16218": 96,
        "16219": 17,
        "16220": 98,
        "16221": 120,
        "16222": 48,
        "16223": 223,
        "16224": 223,
        "16225": 61,
        "16226": 172,
        "16227": 87,
        "16228": 255,
        "16229": 46,
        "16230": 69,
        "16231": 139,
        "16232": 187,
        "16233": 68,
        "16234": 185,
        "16235": 34,
        "16236": 174,
        "16237": 247,
        "16238": 233,
        "16239": 35,
        "16240": 91,
        "16241": 34,
        "16242": 249,
        "16243": 96,
        "16244": 95,
        "16245": 118,
        "16246": 13,
        "16247": 203,
        "16248": 210,
        "16249": 172,
        "16250": 54,
        "16251": 15,
        "16252": 210,
        "16253": 196,
        "16254": 113,
        "16255": 50,
        "16256": 124,
        "16257": 237,
        "16258": 167,
        "16259": 16,
        "16260": 42,
        "16261": 7,
        "16262": 216,
        "16263": 92,
        "16264": 10,
        "16265": 249,
        "16266": 153,
        "16267": 99,
        "16268": 31,
        "16269": 147,
        "16270": 230,
        "16271": 153,
        "16272": 57,
        "16273": 7,
        "16274": 15,
        "16275": 175,
        "16276": 233,
        "16277": 75,
        "16278": 51,
        "16279": 250,
        "16280": 179,
        "16281": 56,
        "16282": 109,
        "16283": 49,
        "16284": 164,
        "16285": 89,
        "16286": 207,
        "16287": 153,
        "16288": 48,
        "16289": 95,
        "16290": 149,
        "16291": 224,
        "16292": 185,
        "16293": 150,
        "16294": 17,
        "16295": 26,
        "16296": 197,
        "16297": 109,
        "16298": 113,
        "16299": 99,
        "16300": 11,
        "16301": 13,
        "16302": 27,
        "16303": 36,
        "16304": 2,
        "16305": 25,
        "16306": 14,
        "16307": 161,
        "16308": 85,
        "16309": 96,
        "16310": 85,
        "16311": 61,
        "16312": 90,
        "16313": 55,
        "16314": 173,
        "16315": 110,
        "16316": 7,
        "16317": 59,
        "16318": 191,
        "16319": 225,
        "16320": 124,
        "16321": 182,
        "16322": 179,
        "16323": 133,
        "16324": 131,
        "16325": 107,
        "16326": 115,
        "16327": 121,
        "16328": 232,
        "16329": 22,
        "16330": 234,
        "16331": 126,
        "16332": 9,
        "16333": 255,
        "16334": 76,
        "16335": 79,
        "16336": 17,
        "16337": 170,
        "16338": 254,
        "16339": 96,
        "16340": 203,
        "16341": 76,
        "16342": 154,
        "16343": 166,
        "16344": 74,
        "16345": 37,
        "16346": 203,
        "16347": 90,
        "16348": 4,
        "16349": 7,
        "16350": 228,
        "16351": 215,
        "16352": 212,
        "16353": 18,
        "16354": 148,
        "16355": 178,
        "16356": 131,
        "16357": 140,
        "16358": 40,
        "16359": 64,
        "16360": 215,
        "16361": 114,
        "16362": 17,
        "16363": 80,
        "16364": 54,
        "16365": 164,
        "16366": 246,
        "16367": 69,
        "16368": 224,
        "16369": 225,
        "16370": 251,
        "16371": 64,
        "16372": 73,
        "16373": 159,
        "16374": 251,
        "16375": 119,
        "16376": 242,
        "16377": 14,
        "16378": 220,
        "16379": 228,
        "16380": 9,
        "16381": 218,
        "16382": 34,
        "16383": 39,
        "16384": 128,
        "16385": 124,
        "16386": 157,
        "16387": 39,
        "16388": 239,
        "16389": 126,
        "16390": 127,
        "16391": 94,
        "16392": 245,
        "16393": 34,
        "16394": 190,
        "16395": 183,
        "16396": 146,
        "16397": 178,
        "16398": 31,
        "16399": 85,
        "16400": 95,
        "16401": 237,
        "16402": 241,
        "16403": 65,
        "16404": 18,
        "16405": 31,
        "16406": 44,
        "16407": 223,
        "16408": 182,
        "16409": 183,
        "16410": 138,
        "16411": 237,
        "16412": 124,
        "16413": 154,
        "16414": 144,
        "16415": 188,
        "16416": 116,
        "16417": 191,
        "16418": 255,
        "16419": 177,
        "16420": 72,
        "16421": 219,
        "16422": 125,
        "16423": 188,
        "16424": 191,
        "16425": 1,
        "16426": 245,
        "16427": 105,
        "16428": 48,
        "16429": 138,
        "16430": 212,
        "16431": 13,
        "16432": 202,
        "16433": 177,
        "16434": 166,
        "16435": 16,
        "16436": 178,
        "16437": 164,
        "16438": 216,
        "16439": 48,
        "16440": 63,
        "16441": 132,
        "16442": 25,
        "16443": 31,
        "16444": 68,
        "16445": 54,
        "16446": 199,
        "16447": 243,
        "16448": 195,
        "16449": 150,
        "16450": 126,
        "16451": 105,
        "16452": 244,
        "16453": 156,
        "16454": 24,
        "16455": 107,
        "16456": 234,
        "16457": 164,
        "16458": 164,
        "16459": 237,
        "16460": 232,
        "16461": 254,
        "16462": 114,
        "16463": 92,
        "16464": 38,
        "16465": 68,
        "16466": 115,
        "16467": 191,
        "16468": 50,
        "16469": 99,
        "16470": 23,
        "16471": 220,
        "16472": 56,
        "16473": 95,
        "16474": 118,
        "16475": 155,
        "16476": 247,
        "16477": 189,
        "16478": 116,
        "16479": 130,
        "16480": 182,
        "16481": 77,
        "16482": 236,
        "16483": 69,
        "16484": 53,
        "16485": 82,
        "16486": 199,
        "16487": 113,
        "16488": 94,
        "16489": 254,
        "16490": 225,
        "16491": 147,
        "16492": 230,
        "16493": 24,
        "16494": 84,
        "16495": 35,
        "16496": 248,
        "16497": 172,
        "16498": 82,
        "16499": 184,
        "16500": 52,
        "16501": 127,
        "16502": 223,
        "16503": 4,
        "16504": 187,
        "16505": 93,
        "16506": 195,
        "16507": 90,
        "16508": 242,
        "16509": 34,
        "16510": 44,
        "16511": 44,
        "16512": 165,
        "16513": 29,
        "16514": 150,
        "16515": 150,
        "16516": 83,
        "16517": 76,
        "16518": 8,
        "16519": 163,
        "16520": 1,
        "16521": 8,
        "16522": 0,
        "16523": 0,
        "16524": 0,
        "16525": 0,
        "16526": 0,
        "16527": 0,
        "16528": 16,
        "16529": 0,
        "16530": 0,
        "16531": 0,
        "16532": 0,
        "16533": 0,
        "16534": 0,
        "16535": 0,
        "16536": 0,
        "16537": 0,
        "16538": 0,
        "16539": 0,
        "16540": 0,
        "16541": 0,
        "16542": 0,
        "16543": 0,
        "16544": 0,
        "16545": 0,
        "16546": 0,
        "16547": 0,
        "16548": 0,
        "16549": 0,
        "16550": 0,
        "16551": 0,
        "16552": 64,
        "16553": 0,
        "16554": 0,
        "16555": 0,
        "16556": 0,
        "16557": 0,
        "16558": 0,
        "16559": 0,
        "16560": 3,
        "16561": 0,
        "16562": 0,
        "16563": 0,
        "16564": 0,
        "16565": 0,
        "16566": 0,
        "16567": 0,
        "16568": 4,
        "16569": 0,
        "16570": 0,
        "16571": 0,
        "16572": 0,
        "16573": 0,
        "16574": 0,
        "16575": 0,
        "16576": 4,
        "16577": 0,
        "16578": 0,
        "16579": 0,
        "16580": 0,
        "16581": 0,
        "16582": 0,
        "16583": 0,
        "16584": 0,
        "16585": 0,
        "16586": 0,
        "16587": 0,
        "16588": 1,
        "16589": 0,
        "16590": 0,
        "16591": 0,
        "16592": 0,
        "16593": 0,
        "16594": 0,
        "16595": 0,
        "16596": 16,
        "16597": 0,
        "16598": 0,
        "16599": 0,
        "16600": 0,
        "16601": 0,
        "16602": 0,
        "16603": 0
      }
    }
  ],
  "numDeployments": 2,
  "solcInputHash": "c0e889dcb69b76266f445d0fe3402b92",
  "bytecode": "0x6101606040526200001760006200026660201b60201c565b6002553480156200002757600080fd5b50604051620046173803806200461783398181016040528101906200004d919062000b83565b6040518060400160405280600881526020017f46616b65204555520000000000000000000000000000000000000000000000008152506040518060400160405280600481526020017f6645555200000000000000000000000000000000000000000000000000000000815250338383836040518060400160405280601181526020017f4668656e6978205065726d697373696f6e0000000000000000000000000000008152506040518060400160405280600381526020017f312e3000000000000000000000000000000000000000000000000000000000008152506200013f6000836200028260201b90919060201c565b61012081815250506200015d6001826200028260201b90919060201c565b6101408181525050818051906020012060e08181525050808051906020012061010081815250504660a081815250506200019c620002da60201b60201c565b608081815250503073ffffffffffffffffffffffffffffffffffffffff1660c08173ffffffffffffffffffffffffffffffffffffffff168152505050508160059081620001ea919062000e1f565b508060069081620001fc919062000e1f565b505050600062000212826200033760201b60201c565b9050620002486200023c8262000230617fff6200026660201b60201c565b6200035560201b60201c565b620003f860201b60201c565b6200025a8382620004cb60201b60201c565b50505050505062001260565b60006200027b8260026200057160201b60201c565b9050919050565b6000602083511015620002a857620002a0836200062860201b60201c565b9050620002d4565b82620002ba836200069560201b60201c565b6000019081620002cb919062000e1f565b5060ff60001b90505b92915050565b60007f8b73c3c69bb8fe3d512ecc4cf759cc79239f7b179b0ffacaa9a75d522b39400f60e0516101005146306040516020016200031c95949392919062000f77565b60405160208183030381529060405280519060200120905090565b60006200034e82600001516200069f60201b60201c565b9050919050565b60006200036883620006bb60201b60201c565b62000382576200037f60006200026660201b60201c565b92505b6200039382620006bb60201b60201c565b620003ad57620003aa60006200026660201b60201c565b91505b600083905060008390506000620003ea60028484608073ffffffffffffffffffffffffffffffffffffffff1663eb274b77620006c860201b60201c565b905080935050505092915050565b62000409816200077960201b60201c565b62000423576200042060006200078660201b60201c565b90505b600081905060006200043b82620007a260201b60201c565b9050608073ffffffffffffffffffffffffffffffffffffffff16637d23f1db600d836040518363ffffffff1660e01b81526004016200047c9291906200104f565b600060405180830381865afa1580156200049a573d6000803e3d6000fd5b505050506040513d6000823e3d601f19601f82011682018060405250810190620004c5919062001083565b50505050565b62000516600360008473ffffffffffffffffffffffffffffffffffffffff1673ffffffffffffffffffffffffffffffffffffffff168152602001908152602001600020548262000803565b600360008473ffffffffffffffffffffffffffffffffffffffff1673ffffffffffffffffffffffffffffffffffffffff16815260200190815260200160002081905550620005676002548262000803565b6002819055505050565b60006060608073ffffffffffffffffffffffffffffffffffffffff166319e1c5c4620005a386620007a260201b60201c565b856040518363ffffffff1660e01b8152600401620005c3929190620010d4565b600060405180830381865afa158015620005e1573d6000803e3d6000fd5b505050506040513d6000823e3d601f19601f820116820180604052508101906200060c919062001083565b90506200061f816200081f60201b60201c565b91505092915050565b600080829050601f815111156200067857826040517f305a27a90000000000000000000000000000000000000000000000000000000081526004016200066f91906200115a565b60405180910390fd5b8051816200068690620011a5565b60001c1760001b915050919050565b6000819050919050565b6000620006b48260026200082d60201b60201c565b9050919050565b6000808214159050919050565b60006060838388620006e089620007a260201b60201c565b620006f189620007a260201b60201c565b6040518463ffffffff1660e01b8152600401620007119392919062001215565b600060405180830381865afa1580156200072f573d6000803e3d6000fd5b505050506040513d6000823e3d601f19601f820116820180604052508101906200075a919062001083565b90506200076d81620008d460201b60201c565b91505095945050505050565b6000808214159050919050565b60006200079b82600d6200057160201b60201c565b9050919050565b6060602067ffffffffffffffff811115620007c257620007c1620009ae565b5b6040519080825280601f01601f191660200182016040528015620007f55781602001600182028036833780820191505090505b509050816020820152919050565b6000620008178383620008e260201b60201c565b905092915050565b600060208201519050919050565b60006060608073ffffffffffffffffffffffffffffffffffffffff16635fa55ca784866040518363ffffffff1660e01b81526004016200086f9291906200104f565b600060405180830381865afa1580156200088d573d6000803e3d6000fd5b505050506040513d6000823e3d601f19601f82011682018060405250810190620008b8919062001083565b9050620008cb816200081f60201b60201c565b91505092915050565b600060208201519050919050565b6000620008f583620006bb60201b60201c565b6200090f576200090c60006200026660201b60201c565b92505b6200092082620006bb60201b60201c565b6200093a576200093760006200026660201b60201c565b91505b6000839050600083905060006200097660028484608073ffffffffffffffffffffffffffffffffffffffff16622df619620006c860201b60201c565b905080935050505092915050565b6000604051905090565b600080fd5b600080fd5b600080fd5b6000601f19601f8301169050919050565b7f4e487b7100000000000000000000000000000000000000000000000000000000600052604160045260246000fd5b620009e8826200099d565b810181811067ffffffffffffffff8211171562000a0a5762000a09620009ae565b5b80604052505050565b600062000a1f62000984565b905062000a2d8282620009dd565b919050565b600080fd5b600080fd5b600080fd5b600067ffffffffffffffff82111562000a5f5762000a5e620009ae565b5b62000a6a826200099d565b9050602081019050919050565b60005b8381101562000a9757808201518184015260208101905062000a7a565b60008484015250505050565b600062000aba62000ab48462000a41565b62000a13565b90508281526020810184848401111562000ad95762000ad862000a3c565b5b62000ae684828562000a77565b509392505050565b600082601f83011262000b065762000b0562000a37565b5b815162000b1884826020860162000aa3565b91505092915050565b60006020828403121562000b3a5762000b3962000998565b5b62000b46602062000a13565b9050600082015167ffffffffffffffff81111562000b695762000b6862000a32565b5b62000b778482850162000aee565b60008301525092915050565b60006020828403121562000b9c5762000b9b6200098e565b5b600082015167ffffffffffffffff81111562000bbd5762000bbc62000993565b5b62000bcb8482850162000b21565b91505092915050565b600081519050919050565b7f4e487b7100000000000000000000000000000000000000000000000000000000600052602260045260246000fd5b6000600282049050600182168062000c2757607f821691505b60208210810362000c3d5762000c3c62000bdf565b5b50919050565b60008190508160005260206000209050919050565b60006020601f8301049050919050565b600082821b905092915050565b60006008830262000ca77fffffffffffffffffffffffffffffffffffffffffffffffffffffffffffffffff8262000c68565b62000cb3868362000c68565b95508019841693508086168417925050509392505050565b6000819050919050565b6000819050919050565b600062000d0062000cfa62000cf48462000ccb565b62000cd5565b62000ccb565b9050919050565b6000819050919050565b62000d1c8362000cdf565b62000d3462000d2b8262000d07565b84845462000c75565b825550505050565b600090565b62000d4b62000d3c565b62000d5881848462000d11565b505050565b5b8181101562000d805762000d7460008262000d41565b60018101905062000d5e565b5050565b601f82111562000dcf5762000d998162000c43565b62000da48462000c58565b8101602085101562000db4578190505b62000dcc62000dc38562000c58565b83018262000d5d565b50505b505050565b600082821c905092915050565b600062000df46000198460080262000dd4565b1980831691505092915050565b600062000e0f838362000de1565b9150826002028217905092915050565b62000e2a8262000bd4565b67ffffffffffffffff81111562000e465762000e45620009ae565b5b62000e52825462000c0e565b62000e5f82828562000d84565b600060209050601f83116001811462000e97576000841562000e82578287015190505b62000e8e858262000e01565b86555062000efe565b601f19841662000ea78662000c43565b60005b8281101562000ed15784890151825560018201915060208501945060208101905062000eaa565b8683101562000ef1578489015162000eed601f89168262000de1565b8355505b6001600288020188555050505b505050505050565b6000819050919050565b62000f1b8162000f06565b82525050565b62000f2c8162000ccb565b82525050565b600073ffffffffffffffffffffffffffffffffffffffff82169050919050565b600062000f5f8262000f32565b9050919050565b62000f718162000f52565b82525050565b600060a08201905062000f8e600083018862000f10565b62000f9d602083018762000f10565b62000fac604083018662000f10565b62000fbb606083018562000f21565b62000fca608083018462000f66565b9695505050505050565b600060ff82169050919050565b62000fec8162000fd4565b82525050565b600081519050919050565b600082825260208201905092915050565b60006200101b8262000ff2565b62001027818562000ffd565b93506200103981856020860162000a77565b62001044816200099d565b840191505092915050565b600060408201905062001066600083018562000fe1565b81810360208301526200107a81846200100e565b90509392505050565b6000602082840312156200109c576200109b6200098e565b5b600082015167ffffffffffffffff811115620010bd57620010bc62000993565b5b620010cb8482850162000aee565b91505092915050565b60006040820190508181036000830152620010f081856200100e565b905062001101602083018462000fe1565b9392505050565b600082825260208201905092915050565b6000620011268262000bd4565b62001132818562001108565b93506200114481856020860162000a77565b6200114f816200099d565b840191505092915050565b6000602082019050818103600083015262001176818462001119565b905092915050565b6000819050602082019050919050565b60006200119c825162000f06565b80915050919050565b6000620011b28262000ff2565b82620011be846200117e565b9050620011cb816200118e565b925060208210156200120e57620012097fffffffffffffffffffffffffffffffffffffffffffffffffffffffffffffffff8360200360080262000c68565b831692505b5050919050565b60006060820190506200122c600083018662000fe1565b81810360208301526200124081856200100e565b905081810360408301526200125681846200100e565b9050949350505050565b60805160a05160c05160e05161010051610120516101405161335c620012bb60003960006118f5015260006118ba0152600061217f0152600061215e015260006119ea01526000611a4001526000611a69015261335c6000f3fe608060405234801561001057600080fd5b50600436106101425760003560e01c80637ecebe00116100b8578063a9059cbb1161007c578063a9059cbb146103b9578063af575a00146103e9578063c4224c1914610419578063d505accf14610449578063d918156e14610465578063dd62ed3e1461049557610142565b80637ecebe00146102fb57806384b0196e1461032b5780638624a3491461034f57806395d89b411461037f5780639f284be71461039d57610142565b80633644e5151161010a5780633644e5151461020157806339c217f71461021f5780635356c4291461024f578063602772041461027f5780636e0505e1146102af57806370a08231146102cb57610142565b806306fdde0314610147578063095ea7b31461016557806318160ddd1461019557806323b872dd146101b3578063313ce567146101e3575b600080fd5b61014f6104c5565b60405161015c9190612433565b60405180910390f35b61017f600480360381019061017a91906124fd565b610557565b60405161018c9190612558565b60405180910390f35b61019d6105ab565b6040516101aa9190612582565b60405180910390f35b6101cd60048036038101906101c8919061259d565b6105bd565b6040516101da9190612558565b60405180910390f35b6101eb610692565b6040516101f8919061260c565b60405180910390f35b610209610697565b6040516102169190612640565b60405180910390f35b6102396004803603810190610234919061267f565b610729565b6040516102469190612716565b60405180910390f35b61026960048036038101906102649190612750565b61074e565b6040516102769190612433565b60405180910390f35b61029960048036038101906102949190612983565b6108bf565b6040516102a69190612433565b60405180910390f35b6102c960048036038101906102c49190612a1b565b6109ec565b005b6102e560048036038101906102e09190612a48565b610b01565b6040516102f29190612582565b60405180910390f35b61031560048036038101906103109190612a48565b610b1c565b6040516103229190612582565b60405180910390f35b610333610b37565b6040516103469796959493929190612b7d565b60405180910390f35b61036960048036038101906103649190612c01565b610be1565b6040516103769190612716565b60405180910390f35b610387610c08565b6040516103949190612433565b60405180910390f35b6103b760048036038101906103b29190612a1b565b610c9a565b005b6103d360048036038101906103ce91906124fd565b610da7565b6040516103e09190612558565b60405180910390f35b61040360048036038101906103fe9190612c9c565b610e39565b6040516104109190612716565b60405180910390f35b610433600480360381019061042e9190612cef565b61118f565b6040516104409190612716565b60405180910390f35b610463600480360381019061045e9190612d5b565b611359565b005b61047f600480360381019061047a919061267f565b6114fd565b60405161048c9190612558565b60405180910390f35b6104af60048036038101906104aa9190612dfd565b6115f5565b6040516104bc9190612582565b60405180910390f35b6060600580546104d490612e6c565b80601f016020809104026020016040519081016040528092919081815260200182805461050090612e6c565b801561054d5780601f106105225761010080835404028352916020019161054d565b820191906000526020600020905b81548152906001019060200180831161053057829003601f168201915b5050505050905090565b600082602052637f5e9f20600c5233600052816034600c205581600052602c5160601c337f8c5be1e5ebec7d5bd14f71427d1e84f3dd0314c0f7b2291e5b200ac8c7c3b92560206000a36001905092915050565b60006805345cdf77eb68f44c54905090565b60006105ca848484611615565b8360601b33602052637f5e9f208117600c526034600c20805460018101156106085780851115610602576313be252b6000526004601cfd5b84810382555b6387a211a28317600c526020600c2080548087111561062f5763f4d678b86000526004601cfd5b8681038255876000526020600c2087815401815587602052600c5160601c8660601c7fddf252ad1be2c89b69c2b068fc378daa952ba7f163c4a11628f55a4df523b3ef602080a350505050505061068784848461161a565b600190509392505050565b600090565b6000806106a261161f565b90506000801b81036106c0576106b66104c5565b8051906020012090505b6040517f8b73c3c69bb8fe3d512ecc4cf759cc79239f7b179b0ffacaa9a75d522b39400f81528160208201527fc89efdaa54c0f20c7adf612882df0950f5a951637e0307cdcb4c672f298b8bc6604082015246606082015230608082015260a081209250505090565b6000610746836107418461073c90612ef5565b611624565b61118f565b905092915050565b60608161075a90612f08565b60006107b17f6bdaeb2d29561f159c7ef98b16b27015fb2aeb87209c7ee656226d912f59927d8360000151604051602001610796929190612f1b565b6040516020818303038152906040528051906020012061163a565b905060006107c3828460200151611654565b90503373ffffffffffffffffffffffffffffffffffffffff168173ffffffffffffffffffffffffffffffffffffffff161461082a576040517f3093a27700000000000000000000000000000000000000000000000000000000815260040160405180910390fd5b6108b4600460003373ffffffffffffffffffffffffffffffffffffffff1673ffffffffffffffffffffffffffffffffffffffff16815260200190815260200160002060008873ffffffffffffffffffffffffffffffffffffffff1673ffffffffffffffffffffffffffffffffffffffff168152602001908152602001600020548660000135611680565b935050505092915050565b60608183600061091a7f6bdaeb2d29561f159c7ef98b16b27015fb2aeb87209c7ee656226d912f59927d84600001516040516020016108ff929190612f1b565b6040516020818303038152906040528051906020012061163a565b9050600061092c828560200151611654565b90508273ffffffffffffffffffffffffffffffffffffffff168173ffffffffffffffffffffffffffffffffffffffff1614610993576040517f51c65eae00000000000000000000000000000000000000000000000000000000815260040160405180910390fd5b6109e0600360008973ffffffffffffffffffffffffffffffffffffffff1673ffffffffffffffffffffffffffffffffffffffff168152602001908152602001600020548760000151611680565b94505050505092915050565b6000610a45610a008363ffffffff166116b6565b600360003373ffffffffffffffffffffffffffffffffffffffff1673ffffffffffffffffffffffffffffffffffffffff168152602001908152602001600020546116ca565b9050610a90600360003373ffffffffffffffffffffffffffffffffffffffff1673ffffffffffffffffffffffffffffffffffffffff1681526020019081526020016000205482611743565b600360003373ffffffffffffffffffffffffffffffffffffffff1673ffffffffffffffffffffffffffffffffffffffff16815260200190815260200160002081905550610adf60025482611743565b600281905550610afd33610af283611757565b63ffffffff1661181a565b5050565b60006387a211a2600c52816000526020600c20549050919050565b60006338377508600c52816000526020600c20549050919050565b600060608060008060006060610b4b6118b1565b610b536118ec565b46306000801b600067ffffffffffffffff811115610b7457610b736127b1565b5b604051908082528060200260200182016040528015610ba25781602001602082028036833780820191505090505b507f0f00000000000000000000000000000000000000000000000000000000000000959493929190965096509650965096509650965090919293949596565b6000610bff8484610bfa85610bf590612ef5565b611624565b610e39565b90509392505050565b606060068054610c1790612e6c565b80601f0160208091040260200160405190810160405280929190818152602001828054610c4390612e6c565b8015610c905780601f10610c6557610100808354040283529160200191610c90565b820191906000526020600020905b815481529060010190602001808311610c7357829003601f168201915b5050505050905090565b8063ffffffff16610caa33610b01565b1015610ce2576040517ffda7bbda00000000000000000000000000000000000000000000000000000000815260040160405180910390fd5b610cf2338263ffffffff16611927565b6000610d038263ffffffff166116b6565b9050610d4e600360003373ffffffffffffffffffffffffffffffffffffffff1673ffffffffffffffffffffffffffffffffffffffff16815260200190815260200160002054826119be565b600360003373ffffffffffffffffffffffffffffffffffffffff1673ffffffffffffffffffffffffffffffffffffffff16815260200190815260200160002081905550610d9d600254826119be565b6002819055505050565b6000610db4338484611615565b6387a211a2600c52336000526020600c20805480841115610ddd5763f4d678b86000526004601cfd5b8381038255846000526020600c2084815401815584602052600c5160601c337fddf252ad1be2c89b69c2b068fc378daa952ba7f163c4a11628f55a4df523b3ef602080a3505050610e2f33848461161a565b6001905092915050565b600080610f0a83610f05600360008973ffffffffffffffffffffffffffffffffffffffff1673ffffffffffffffffffffffffffffffffffffffff16815260200190815260200160002054600460008a73ffffffffffffffffffffffffffffffffffffffff1673ffffffffffffffffffffffffffffffffffffffff16815260200190815260200160002060003373ffffffffffffffffffffffffffffffffffffffff1673ffffffffffffffffffffffffffffffffffffffff168152602001908152602001600020546116ca565b6116ca565b9050610f92600460008773ffffffffffffffffffffffffffffffffffffffff1673ffffffffffffffffffffffffffffffffffffffff16815260200190815260200160002060003373ffffffffffffffffffffffffffffffffffffffff1673ffffffffffffffffffffffffffffffffffffffff1681526020019081526020016000205482611743565b600460008773ffffffffffffffffffffffffffffffffffffffff1673ffffffffffffffffffffffffffffffffffffffff16815260200190815260200160002060003373ffffffffffffffffffffffffffffffffffffffff1673ffffffffffffffffffffffffffffffffffffffff1681526020019081526020016000208190555061105b600360008773ffffffffffffffffffffffffffffffffffffffff1673ffffffffffffffffffffffffffffffffffffffff1681526020019081526020016000205482611743565b600360008773ffffffffffffffffffffffffffffffffffffffff1673ffffffffffffffffffffffffffffffffffffffff168152602001908152602001600020819055506110e7600360008673ffffffffffffffffffffffffffffffffffffffff1673ffffffffffffffffffffffffffffffffffffffff16815260200190815260200160002054826119be565b600360008673ffffffffffffffffffffffffffffffffffffffff1673ffffffffffffffffffffffffffffffffffffffff168152602001908152602001600020819055508373ffffffffffffffffffffffffffffffffffffffff168573ffffffffffffffffffffffffffffffffffffffff167f7612539b010127d1a2f810eeff1131de23a28ecfa8228f92a9606a879300fbb560405160405180910390a3809150509392505050565b6000806111db83600360003373ffffffffffffffffffffffffffffffffffffffff1673ffffffffffffffffffffffffffffffffffffffff168152602001908152602001600020546116ca565b9050611226600360003373ffffffffffffffffffffffffffffffffffffffff1673ffffffffffffffffffffffffffffffffffffffff1681526020019081526020016000205482611743565b600360003373ffffffffffffffffffffffffffffffffffffffff1673ffffffffffffffffffffffffffffffffffffffff168152602001908152602001600020819055506112b2600360008673ffffffffffffffffffffffffffffffffffffffff1673ffffffffffffffffffffffffffffffffffffffff16815260200190815260200160002054826119be565b600360008673ffffffffffffffffffffffffffffffffffffffff1673ffffffffffffffffffffffffffffffffffffffff168152602001908152602001600020819055508373ffffffffffffffffffffffffffffffffffffffff163373ffffffffffffffffffffffffffffffffffffffff167f7612539b010127d1a2f810eeff1131de23a28ecfa8228f92a9606a879300fbb560405160405180910390a38091505092915050565b600061136361161f565b90506000801b8103611381576113776104c5565b8051906020012090505b8442111561139757631a15a3cc6000526004601cfd5b6040518860601b60601c98508760601b60601c975065383775081901600e52886000526020600c2080547f8b73c3c69bb8fe3d512ecc4cf759cc79239f7b179b0ffacaa9a75d522b39400f83528360208401527fc89efdaa54c0f20c7adf612882df0950f5a951637e0307cdcb4c672f298b8bc6604084015246606084015230608084015260a08320602e527f6e71edae12b1b97f4d1f60370fef10105fa2faae0126114a169c64845d6126c983528a60208401528960408401528860608401528060808401528760a084015260c08320604e526042602c206000528660ff1660205285604052846060526020806080600060015afa8b3d51146114a35763ddafbaef6000526004601cfd5b80820183558a637f5e9f2060a01b17604052896034602c20558a8c7f8c5be1e5ebec7d5bd14f71427d1e84f3dd0314c0f7b2291e5b200ac8c7c3b925602060608801a3836040526000606052505050505050505050505050565b60006115118261150c90612ef5565b611624565b600460003373ffffffffffffffffffffffffffffffffffffffff1673ffffffffffffffffffffffffffffffffffffffff16815260200190815260200160002060008573ffffffffffffffffffffffffffffffffffffffff1673ffffffffffffffffffffffffffffffffffffffff168152602001908152602001600020819055508273ffffffffffffffffffffffffffffffffffffffff163373ffffffffffffffffffffffffffffffffffffffff167f46f92913a39019d68e630493d23e0cf39761bf253f7b3f8eae384b33e393ed4e60405160405180910390a36001905092915050565b600081602052637f5e9f20600c52826000526034600c2054905092915050565b505050565b505050565b600090565b600061163382600001516119d2565b9050919050565b600061164d6116476119e6565b83611a9d565b9050919050565b6000806000806116648686611ade565b9250925092506116748282611b3a565b82935050505092915050565b606061168b83611c9e565b61169c5761169960006116b6565b92505b60008390506116ad60028285611cab565b91505092915050565b60006116c3826002611d61565b9050919050565b60006116d583611c9e565b6116e6576116e360006116b6565b92505b6116ef82611c9e565b611700576116fd60006116b6565b91505b60008390506000839050600061173560028484608073ffffffffffffffffffffffffffffffffffffffff16635211c679611e03565b905080935050505092915050565b600061174f8383611e97565b905092915050565b600061176282611c9e565b6117735761177060006116b6565b91505b6000829050600061178382611f10565b90506000608073ffffffffffffffffffffffffffffffffffffffff166373cc01546002846040518363ffffffff1660e01b81526004016117c4929190612f99565b602060405180830381865afa1580156117e1573d6000803e3d6000fd5b505050506040513d601f19601f820116820180604052508101906118059190612fde565b905061181081611f6d565b9350505050919050565b61182660008383611615565b6805345cdf77eb68f44c548181018181101561184a5763e5cfe9576000526004601cfd5b806805345cdf77eb68f44c556387a211a2600c52836000526020600c2083815401815583602052600c5160601c60007fddf252ad1be2c89b69c2b068fc378daa952ba7f163c4a11628f55a4df523b3ef602080a35050506118ad6000838361161a565b5050565b60606118e760007f0000000000000000000000000000000000000000000000000000000000000000611f7790919063ffffffff16565b905090565b606061192260017f0000000000000000000000000000000000000000000000000000000000000000611f7790919063ffffffff16565b905090565b61193382600083611615565b6387a211a2600c52816000526020600c2080548083111561195c5763f4d678b86000526004601cfd5b8281038255826805345cdf77eb68f44c54036805345cdf77eb68f44c558260005260008460601b60601c7fddf252ad1be2c89b69c2b068fc378daa952ba7f163c4a11628f55a4df523b3ef60206000a350506119ba8260008361161a565b5050565b60006119ca8383612027565b905092915050565b60006119df82600261209f565b9050919050565b60007f000000000000000000000000000000000000000000000000000000000000000073ffffffffffffffffffffffffffffffffffffffff163073ffffffffffffffffffffffffffffffffffffffff16148015611a6257507f000000000000000000000000000000000000000000000000000000000000000046145b15611a8f577f00000000000000000000000000000000000000000000000000000000000000009050611a9a565b611a97612139565b90505b90565b60006040517f190100000000000000000000000000000000000000000000000000000000000081528360028201528260228201526042812091505092915050565b60008060006041845103611b235760008060006020870151925060408701519150606087015160001a9050611b15888285856121cf565b955095509550505050611b33565b60006002855160001b9250925092505b9250925092565b60006003811115611b4e57611b4d61300b565b5b826003811115611b6157611b6061300b565b5b0315611c9a5760016003811115611b7b57611b7a61300b565b5b826003811115611b8e57611b8d61300b565b5b03611bc5576040517ff645eedf00000000000000000000000000000000000000000000000000000000815260040160405180910390fd5b60026003811115611bd957611bd861300b565b5b826003811115611bec57611beb61300b565b5b03611c31578060001c6040517ffce698f7000000000000000000000000000000000000000000000000000000008152600401611c289190612582565b60405180910390fd5b600380811115611c4457611c4361300b565b5b826003811115611c5757611c5661300b565b5b03611c9957806040517fd78bce0c000000000000000000000000000000000000000000000000000000008152600401611c909190612640565b60405180910390fd5b5b5050565b6000808214159050919050565b6060608073ffffffffffffffffffffffffffffffffffffffff1663a1848ff385611cd486611f10565b85604051602001611ce5919061305b565b6040516020818303038152906040526040518463ffffffff1660e01b8152600401611d1293929190613076565b600060405180830381865afa158015611d2f573d6000803e3d6000fd5b505050506040513d6000823e3d601f19601f82011682018060405250810190611d58919061315c565b90509392505050565b60006060608073ffffffffffffffffffffffffffffffffffffffff166319e1c5c4611d8b86611f10565b856040518363ffffffff1660e01b8152600401611da99291906131a5565b600060405180830381865afa158015611dc6573d6000803e3d6000fd5b505050506040513d6000823e3d601f19601f82011682018060405250810190611def9190613245565b9050611dfa816122c3565b91505092915050565b60006060838388611e1389611f10565b611e1c89611f10565b6040518463ffffffff1660e01b8152600401611e3a93929190613076565b600060405180830381865afa158015611e57573d6000803e3d6000fd5b505050506040513d6000823e3d601f19601f82011682018060405250810190611e809190613245565b9050611e8b816122d1565b91505095945050505050565b6000611ea283611c9e565b611eb357611eb060006116b6565b92505b611ebc82611c9e565b611ecd57611eca60006116b6565b91505b600083905060008390506000611f0260028484608073ffffffffffffffffffffffffffffffffffffffff1663cc2cbeff611e03565b905080935050505092915050565b6060602067ffffffffffffffff811115611f2d57611f2c6127b1565b5b6040519080825280601f01601f191660200182016040528015611f5f5781602001600182028036833780820191505090505b509050816020820152919050565b6000819050919050565b606060ff60001b8314611f9457611f8d836122df565b9050612021565b818054611fa090612e6c565b80601f0160208091040260200160405190810160405280929190818152602001828054611fcc90612e6c565b80156120195780601f10611fee57610100808354040283529160200191612019565b820191906000526020600020905b815481529060010190602001808311611ffc57829003601f168201915b505050505090505b92915050565b600061203283611c9e565b6120435761204060006116b6565b92505b61204c82611c9e565b61205d5761205a60006116b6565b91505b60008390506000839050600061209160028484608073ffffffffffffffffffffffffffffffffffffffff16622df619611e03565b905080935050505092915050565b60006060608073ffffffffffffffffffffffffffffffffffffffff16635fa55ca784866040518363ffffffff1660e01b81526004016120df929190612f99565b600060405180830381865afa1580156120fc573d6000803e3d6000fd5b505050506040513d6000823e3d601f19601f820116820180604052508101906121259190613245565b9050612130816122c3565b91505092915050565b60007f8b73c3c69bb8fe3d512ecc4cf759cc79239f7b179b0ffacaa9a75d522b39400f7f00000000000000000000000000000000000000000000000000000000000000007f000000000000000000000000000000000000000000000000000000000000000046306040516020016121b495949392919061328e565b60405160208183030381529060405280519060200120905090565b60008060007f7fffffffffffffffffffffffffffffff5d576e7357a4501ddfe92f46681b20a08460001c111561220f5760006003859250925092506122b9565b60006001888888886040516000815260200160405260405161223494939291906132e1565b6020604051602081039080840390855afa158015612256573d6000803e3d6000fd5b505050602060405103519050600073ffffffffffffffffffffffffffffffffffffffff168173ffffffffffffffffffffffffffffffffffffffff16036122aa57600060016000801b935093509350506122b9565b8060008060001b935093509350505b9450945094915050565b600060208201519050919050565b600060208201519050919050565b606060006122ec83612353565b90506000602067ffffffffffffffff81111561230b5761230a6127b1565b5b6040519080825280601f01601f19166020018201604052801561233d5781602001600182028036833780820191505090505b5090508181528360208201528092505050919050565b60008060ff8360001c169050601f81111561239a576040517fb3512b0c00000000000000000000000000000000000000000000000000000000815260040160405180910390fd5b80915050919050565b600081519050919050565b600082825260208201905092915050565b60005b838110156123dd5780820151818401526020810190506123c2565b60008484015250505050565b6000601f19601f8301169050919050565b6000612405826123a3565b61240f81856123ae565b935061241f8185602086016123bf565b612428816123e9565b840191505092915050565b6000602082019050818103600083015261244d81846123fa565b905092915050565b6000604051905090565b600080fd5b600080fd5b600073ffffffffffffffffffffffffffffffffffffffff82169050919050565b600061249482612469565b9050919050565b6124a481612489565b81146124af57600080fd5b50565b6000813590506124c18161249b565b92915050565b6000819050919050565b6124da816124c7565b81146124e557600080fd5b50565b6000813590506124f7816124d1565b92915050565b600080604083850312156125145761251361245f565b5b6000612522858286016124b2565b9250506020612533858286016124e8565b9150509250929050565b60008115159050919050565b6125528161253d565b82525050565b600060208201905061256d6000830184612549565b92915050565b61257c816124c7565b82525050565b60006020820190506125976000830184612573565b92915050565b6000806000606084860312156125b6576125b561245f565b5b60006125c4868287016124b2565b93505060206125d5868287016124b2565b92505060406125e6868287016124e8565b9150509250925092565b600060ff82169050919050565b612606816125f0565b82525050565b600060208201905061262160008301846125fd565b92915050565b6000819050919050565b61263a81612627565b82525050565b60006020820190506126556000830184612631565b92915050565b600080fd5b6000602082840312156126765761267561265b565b5b81905092915050565b600080604083850312156126965761269561245f565b5b60006126a4858286016124b2565b925050602083013567ffffffffffffffff8111156126c5576126c4612464565b5b6126d185828601612660565b9150509250929050565b6000819050919050565b60006127006126fb6126f6846124c7565b6126db565b6124c7565b9050919050565b612710816126e5565b82525050565b600060208201905061272b6000830184612707565b92915050565b6000604082840312156127475761274661265b565b5b81905092915050565b600080604083850312156127675761276661245f565b5b6000612775858286016124b2565b925050602083013567ffffffffffffffff81111561279657612795612464565b5b6127a285828601612731565b9150509250929050565b600080fd5b7f4e487b7100000000000000000000000000000000000000000000000000000000600052604160045260246000fd5b6127e9826123e9565b810181811067ffffffffffffffff82111715612808576128076127b1565b5b80604052505050565b600061281b612455565b905061282782826127e0565b919050565b600080fd5b61283a81612627565b811461284557600080fd5b50565b60008135905061285781612831565b92915050565b600080fd5b600080fd5b600067ffffffffffffffff821115612882576128816127b1565b5b61288b826123e9565b9050602081019050919050565b82818337600083830152505050565b60006128ba6128b584612867565b612811565b9050828152602081018484840111156128d6576128d5612862565b5b6128e1848285612898565b509392505050565b600082601f8301126128fe576128fd61285d565b5b813561290e8482602086016128a7565b91505092915050565b60006040828403121561292d5761292c6127ac565b5b6129376040612811565b9050600061294784828501612848565b600083015250602082013567ffffffffffffffff81111561296b5761296a61282c565b5b612977848285016128e9565b60208301525092915050565b6000806040838503121561299a5761299961245f565b5b60006129a8858286016124b2565b925050602083013567ffffffffffffffff8111156129c9576129c8612464565b5b6129d585828601612917565b9150509250929050565b600063ffffffff82169050919050565b6129f8816129df565b8114612a0357600080fd5b50565b600081359050612a15816129ef565b92915050565b600060208284031215612a3157612a3061245f565b5b6000612a3f84828501612a06565b91505092915050565b600060208284031215612a5e57612a5d61245f565b5b6000612a6c848285016124b2565b91505092915050565b60007fff0000000000000000000000000000000000000000000000000000000000000082169050919050565b612aaa81612a75565b82525050565b612ab981612489565b82525050565b600081519050919050565b600082825260208201905092915050565b6000819050602082019050919050565b612af4816124c7565b82525050565b6000612b068383612aeb565b60208301905092915050565b6000602082019050919050565b6000612b2a82612abf565b612b348185612aca565b9350612b3f83612adb565b8060005b83811015612b70578151612b578882612afa565b9750612b6283612b12565b925050600181019050612b43565b5085935050505092915050565b600060e082019050612b92600083018a612aa1565b8181036020830152612ba481896123fa565b90508181036040830152612bb881886123fa565b9050612bc76060830187612573565b612bd46080830186612ab0565b612be160a0830185612631565b81810360c0830152612bf38184612b1f565b905098975050505050505050565b600080600060608486031215612c1a57612c1961245f565b5b6000612c28868287016124b2565b9350506020612c39868287016124b2565b925050604084013567ffffffffffffffff811115612c5a57612c59612464565b5b612c6686828701612660565b9150509250925092565b612c79816124c7565b8114612c8457600080fd5b50565b600081359050612c9681612c70565b92915050565b600080600060608486031215612cb557612cb461245f565b5b6000612cc3868287016124b2565b9350506020612cd4868287016124b2565b9250506040612ce586828701612c87565b9150509250925092565b60008060408385031215612d0657612d0561245f565b5b6000612d14858286016124b2565b9250506020612d2585828601612c87565b9150509250929050565b612d38816125f0565b8114612d4357600080fd5b50565b600081359050612d5581612d2f565b92915050565b600080600080600080600060e0888a031215612d7a57612d7961245f565b5b6000612d888a828b016124b2565b9750506020612d998a828b016124b2565b9650506040612daa8a828b016124e8565b9550506060612dbb8a828b016124e8565b9450506080612dcc8a828b01612d46565b93505060a0612ddd8a828b01612848565b92505060c0612dee8a828b01612848565b91505092959891949750929550565b60008060408385031215612e1457612e1361245f565b5b6000612e22858286016124b2565b9250506020612e33858286016124b2565b9150509250929050565b7f4e487b7100000000000000000000000000000000000000000000000000000000600052602260045260246000fd5b60006002820490506001821680612e8457607f821691505b602082108103612e9757612e96612e3d565b5b50919050565b600060208284031215612eb357612eb26127ac565b5b612ebd6020612811565b9050600082013567ffffffffffffffff811115612edd57612edc61282c565b5b612ee9848285016128e9565b60008301525092915050565b6000612f013683612e9d565b9050919050565b6000612f143683612917565b9050919050565b6000604082019050612f306000830185612631565b612f3d6020830184612631565b9392505050565b600081519050919050565b600082825260208201905092915050565b6000612f6b82612f44565b612f758185612f4f565b9350612f858185602086016123bf565b612f8e816123e9565b840191505092915050565b6000604082019050612fae60008301856125fd565b8181036020830152612fc08184612f60565b90509392505050565b600081519050612fd8816124d1565b92915050565b600060208284031215612ff457612ff361245f565b5b600061300284828501612fc9565b91505092915050565b7f4e487b7100000000000000000000000000000000000000000000000000000000600052602160045260246000fd5b6000819050919050565b61305561305082612627565b61303a565b82525050565b60006130678284613044565b60208201915081905092915050565b600060608201905061308b60008301866125fd565b818103602083015261309d8185612f60565b905081810360408301526130b18184612f60565b9050949350505050565b600067ffffffffffffffff8211156130d6576130d56127b1565b5b6130df826123e9565b9050602081019050919050565b60006130ff6130fa846130bb565b612811565b90508281526020810184848401111561311b5761311a612862565b5b6131268482856123bf565b509392505050565b600082601f8301126131435761314261285d565b5b81516131538482602086016130ec565b91505092915050565b6000602082840312156131725761317161245f565b5b600082015167ffffffffffffffff8111156131905761318f612464565b5b61319c8482850161312e565b91505092915050565b600060408201905081810360008301526131bf8185612f60565b90506131ce60208301846125fd565b9392505050565b60006131e86131e384612867565b612811565b90508281526020810184848401111561320457613203612862565b5b61320f8482856123bf565b509392505050565b600082601f83011261322c5761322b61285d565b5b815161323c8482602086016131d5565b91505092915050565b60006020828403121561325b5761325a61245f565b5b600082015167ffffffffffffffff81111561327957613278612464565b5b61328584828501613217565b91505092915050565b600060a0820190506132a36000830188612631565b6132b06020830187612631565b6132bd6040830186612631565b6132ca6060830185612573565b6132d76080830184612ab0565b9695505050505050565b60006080820190506132f66000830187612631565b61330360208301866125fd565b6133106040830185612631565b61331d6060830184612631565b9594505050505056fea2646970667358221220d2ecefabf6474a46052e52e11ab32c5139690c9cccda6a7c37d9a6911a35acc664736f6c63430008180033",
  "devdoc": {
    "errors": {
      "AllowanceOverflow()": [
        {
          "details": "The allowance has overflowed."
        }
      ],
      "AllowanceUnderflow()": [
        {
          "details": "The allowance has underflowed."
        }
      ],
      "ECDSAInvalidSignature()": [
        {
          "details": "The signature derives the `address(0)`."
        }
      ],
      "ECDSAInvalidSignatureLength(uint256)": [
        {
          "details": "The signature has an invalid length."
        }
      ],
      "ECDSAInvalidSignatureS(bytes32)": [
        {
          "details": "The signature has an S value that is in the upper half order."
        }
      ],
      "InsufficientAllowance()": [
        {
          "details": "Insufficient allowance."
        }
      ],
      "InsufficientBalance()": [
        {
          "details": "Insufficient balance."
        }
      ],
      "InvalidPermit()": [
        {
          "details": "The permit is invalid."
        }
      ],
      "PermitExpired()": [
        {
          "details": "The permit has expired."
        }
      ],
      "TotalSupplyOverflow()": [
        {
          "details": "The total supply has overflowed."
        }
      ]
    },
    "events": {
      "Approval(address,address,uint256)": {
        "details": "Emitted when `amount` tokens is approved by `owner` to be used by `spender`."
      },
      "ApprovalEncrypted(address,address)": {
        "details": "Emitted when the allowance of a `spender` for an `owner` is set by a call to {approveEncrypted}. `value` is the new allowance."
      },
      "EIP712DomainChanged()": {
        "details": "MAY be emitted to signal that the domain could have changed."
      },
      "Transfer(address,address,uint256)": {
        "details": "Emitted when `amount` tokens is transferred from `from` to `to`."
      },
      "TransferEncrypted(address,address)": {
        "details": "Emitted when `value` tokens are moved from one account (`from`) to another (`to`). Note that `value` may be zero."
      }
    },
    "kind": "dev",
    "methods": {
      "DOMAIN_SEPARATOR()": {
        "details": "Returns the EIP-712 domain separator for the EIP-2612 permit."
      },
      "allowance(address,address)": {
        "details": "Returns the amount of tokens that `spender` can spend on behalf of `owner`."
      },
      "allowanceEncrypted(address,(bytes32,bytes))": {
        "details": "Returns the remaining number of tokens that `spender` will be allowed to spend on behalf of `owner` through {transferFrom}. This is zero by default. This value changes when {approve} or {transferFrom} are called."
      },
      "approve(address,uint256)": {
        "details": "Sets `amount` as the allowance of `spender` over the caller's tokens. Emits a {Approval} event."
      },
      "approveEncrypted(address,(bytes))": {
        "details": "Sets a `value` amount of tokens as the allowance of `spender` over the caller's tokens. Returns a boolean value indicating whether the operation succeeded. IMPORTANT: Beware that changing an allowance with this method brings the risk that someone may use both the old and the new allowance by unfortunate transaction ordering. One possible solution to mitigate this race condition is to first reduce the spender's allowance to 0 and set the desired value afterwards: https://github.com/ethereum/EIPs/issues/20#issuecomment-263524729 Emits an {ApprovalEncrypted} event."
      },
      "balanceOf(address)": {
        "details": "Returns the amount of tokens owned by `owner`."
      },
      "balanceOfEncrypted(address,(bytes32,bytes))": {
        "details": "Returns the value of tokens owned by `account`, sealed and encrypted for the caller."
      },
      "decimals()": {
        "details": "Returns the decimals places of the token."
      },
      "eip712Domain()": {
        "details": "See {IERC-5267}."
      },
      "name()": {
        "details": "Returns the name of the token."
      },
      "nonces(address)": {
        "details": "Returns the current nonce for `owner`. This value is used to compute the signature for EIP-2612 permit."
      },
      "permit(address,address,uint256,uint256,uint8,bytes32,bytes32)": {
        "details": "Sets `value` as the allowance of `spender` over the tokens of `owner`, authorized by a signed approval by `owner`. Emits a {Approval} event."
      },
      "symbol()": {
        "details": "Returns the symbol of the token."
      },
      "totalSupply()": {
        "details": "Returns the amount of tokens in existence."
      },
      "transfer(address,uint256)": {
        "details": "Transfer `amount` tokens from the caller to `to`. Requirements: - `from` must at least have `amount`. Emits a {Transfer} event."
      },
      "transferFrom(address,address,uint256)": {
        "details": "Transfers `amount` tokens from `from` to `to`. Note: Does not update the allowance if it is the maximum uint256 value. Requirements: - `from` must at least have `amount`. - The caller must have at least `amount` of allowance to transfer the tokens of `from`. Emits a {Transfer} event."
      },
      "transferFromEncrypted(address,address,(bytes))": {
        "details": "Moves a `value` amount of tokens from `from` to `to` using the allowance mechanism. `value` is then deducted from the caller's allowance. Returns a boolean value indicating whether the operation succeeded. Emits a {TransferEncrypted} event."
      }
    },
    "version": 1
  },
  "userdoc": {
    "errors": {
      "SignerNotMessageSender()": [
        {
          "notice": "Emitted when the signer is not the message sender"
        }
      ],
      "SignerNotOwner()": [
        {
          "notice": "Emitted when the signer is not the specified owner"
        }
      ]
    },
    "kind": "user",
    "methods": {},
    "version": 1
  },
  "storageLayout": {
    "storage": [
      {
        "astId": 16568,
        "contract": "contracts/tokens/FakeEUR.sol:FakeEUR",
        "label": "_nameFallback",
        "offset": 0,
        "slot": "0",
        "type": "t_string_storage"
      },
      {
        "astId": 16570,
        "contract": "contracts/tokens/FakeEUR.sol:FakeEUR",
        "label": "_versionFallback",
        "offset": 0,
        "slot": "1",
        "type": "t_string_storage"
      },
      {
        "astId": 18126,
        "contract": "contracts/tokens/FakeEUR.sol:FakeEUR",
        "label": "_encTotalSupply",
        "offset": 0,
        "slot": "2",
        "type": "t_userDefinedValueType(euint32)12"
      },
      {
        "astId": 18131,
        "contract": "contracts/tokens/FakeEUR.sol:FakeEUR",
        "label": "_encBalanceOf",
        "offset": 0,
        "slot": "3",
        "type": "t_mapping(t_address,t_userDefinedValueType(euint32)12)"
      },
      {
        "astId": 18138,
        "contract": "contracts/tokens/FakeEUR.sol:FakeEUR",
        "label": "_encAllowance",
        "offset": 0,
        "slot": "4",
        "type": "t_mapping(t_address,t_mapping(t_address,t_userDefinedValueType(euint32)12))"
      },
      {
        "astId": 18140,
        "contract": "contracts/tokens/FakeEUR.sol:FakeEUR",
        "label": "_name",
        "offset": 0,
        "slot": "5",
        "type": "t_string_storage"
      },
      {
        "astId": 18142,
        "contract": "contracts/tokens/FakeEUR.sol:FakeEUR",
        "label": "_symbol",
        "offset": 0,
        "slot": "6",
        "type": "t_string_storage"
      }
    ],
    "types": {
      "t_address": {
        "encoding": "inplace",
        "label": "address",
        "numberOfBytes": "20"
      },
      "t_mapping(t_address,t_mapping(t_address,t_userDefinedValueType(euint32)12))": {
        "encoding": "mapping",
        "key": "t_address",
        "label": "mapping(address => mapping(address => euint32))",
        "numberOfBytes": "32",
        "value": "t_mapping(t_address,t_userDefinedValueType(euint32)12)"
      },
      "t_mapping(t_address,t_userDefinedValueType(euint32)12)": {
        "encoding": "mapping",
        "key": "t_address",
        "label": "mapping(address => euint32)",
        "numberOfBytes": "32",
        "value": "t_userDefinedValueType(euint32)12"
      },
      "t_string_storage": {
        "encoding": "bytes",
        "label": "string",
        "numberOfBytes": "32"
      },
      "t_userDefinedValueType(euint32)12": {
        "encoding": "inplace",
        "label": "euint32",
        "numberOfBytes": "32"
      }
    }
  }
}