{
  "address": "0x1A08755E020A594C6F00ea3FDB38c1960eAB917e",
  "abi": [
    {
      "inputs": [
        {
          "components": [
            {
              "internalType": "bytes",
              "name": "data",
              "type": "bytes"
            }
          ],
          "internalType": "struct inEuint32",
          "name": "_initialSupply",
          "type": "tuple"
        }
      ],
      "stateMutability": "nonpayable",
      "type": "constructor"
    },
    {
      "inputs": [],
      "name": "AllowanceOverflow",
      "type": "error"
    },
    {
      "inputs": [],
      "name": "AllowanceUnderflow",
      "type": "error"
    },
    {
      "inputs": [],
      "name": "ECDSAInvalidSignature",
      "type": "error"
    },
    {
      "inputs": [
        {
          "internalType": "uint256",
          "name": "length",
          "type": "uint256"
        }
      ],
      "name": "ECDSAInvalidSignatureLength",
      "type": "error"
    },
    {
      "inputs": [
        {
          "internalType": "bytes32",
          "name": "s",
          "type": "bytes32"
        }
      ],
      "name": "ECDSAInvalidSignatureS",
      "type": "error"
    },
    {
      "inputs": [],
      "name": "ErrorInsufficientFunds",
      "type": "error"
    },
    {
      "inputs": [],
      "name": "InsufficientAllowance",
      "type": "error"
    },
    {
      "inputs": [],
      "name": "InsufficientBalance",
      "type": "error"
    },
    {
      "inputs": [],
      "name": "InvalidPermit",
      "type": "error"
    },
    {
      "inputs": [],
      "name": "InvalidShortString",
      "type": "error"
    },
    {
      "inputs": [],
      "name": "PermitExpired",
      "type": "error"
    },
    {
      "inputs": [],
      "name": "SignerNotMessageSender",
      "type": "error"
    },
    {
      "inputs": [],
      "name": "SignerNotOwner",
      "type": "error"
    },
    {
      "inputs": [
        {
          "internalType": "string",
          "name": "str",
          "type": "string"
        }
      ],
      "name": "StringTooLong",
      "type": "error"
    },
    {
      "inputs": [],
      "name": "TotalSupplyOverflow",
      "type": "error"
    },
    {
      "anonymous": false,
      "inputs": [
        {
          "indexed": true,
          "internalType": "address",
          "name": "owner",
          "type": "address"
        },
        {
          "indexed": true,
          "internalType": "address",
          "name": "spender",
          "type": "address"
        },
        {
          "indexed": false,
          "internalType": "uint256",
          "name": "amount",
          "type": "uint256"
        }
      ],
      "name": "Approval",
      "type": "event"
    },
    {
      "anonymous": false,
      "inputs": [
        {
          "indexed": true,
          "internalType": "address",
          "name": "owner",
          "type": "address"
        },
        {
          "indexed": true,
          "internalType": "address",
          "name": "spender",
          "type": "address"
        }
      ],
      "name": "ApprovalEncrypted",
      "type": "event"
    },
    {
      "anonymous": false,
      "inputs": [],
      "name": "EIP712DomainChanged",
      "type": "event"
    },
    {
      "anonymous": false,
      "inputs": [
        {
          "indexed": true,
          "internalType": "address",
          "name": "from",
          "type": "address"
        },
        {
          "indexed": true,
          "internalType": "address",
          "name": "to",
          "type": "address"
        },
        {
          "indexed": false,
          "internalType": "uint256",
          "name": "amount",
          "type": "uint256"
        }
      ],
      "name": "Transfer",
      "type": "event"
    },
    {
      "anonymous": false,
      "inputs": [
        {
          "indexed": true,
          "internalType": "address",
          "name": "from",
          "type": "address"
        },
        {
          "indexed": true,
          "internalType": "address",
          "name": "to",
          "type": "address"
        }
      ],
      "name": "TransferEncrypted",
      "type": "event"
    },
    {
      "inputs": [],
      "name": "DOMAIN_SEPARATOR",
      "outputs": [
        {
          "internalType": "bytes32",
          "name": "result",
          "type": "bytes32"
        }
      ],
      "stateMutability": "view",
      "type": "function"
    },
    {
      "inputs": [
        {
          "internalType": "address",
          "name": "owner",
          "type": "address"
        },
        {
          "internalType": "address",
          "name": "spender",
          "type": "address"
        }
      ],
      "name": "allowance",
      "outputs": [
        {
          "internalType": "uint256",
          "name": "result",
          "type": "uint256"
        }
      ],
      "stateMutability": "view",
      "type": "function"
    },
    {
      "inputs": [
        {
          "internalType": "address",
          "name": "spender",
          "type": "address"
        },
        {
          "components": [
            {
              "internalType": "bytes32",
              "name": "publicKey",
              "type": "bytes32"
            },
            {
              "internalType": "bytes",
              "name": "signature",
              "type": "bytes"
            }
          ],
          "internalType": "struct Permission",
          "name": "permission",
          "type": "tuple"
        }
      ],
      "name": "allowanceEncrypted",
      "outputs": [
        {
          "internalType": "string",
          "name": "",
          "type": "string"
        }
      ],
      "stateMutability": "view",
      "type": "function"
    },
    {
      "inputs": [
        {
          "internalType": "address",
          "name": "spender",
          "type": "address"
        },
        {
          "internalType": "uint256",
          "name": "amount",
          "type": "uint256"
        }
      ],
      "name": "approve",
      "outputs": [
        {
          "internalType": "bool",
          "name": "",
          "type": "bool"
        }
      ],
      "stateMutability": "nonpayable",
      "type": "function"
    },
    {
      "inputs": [
        {
          "internalType": "address",
          "name": "spender",
          "type": "address"
        },
        {
          "components": [
            {
              "internalType": "bytes",
              "name": "data",
              "type": "bytes"
            }
          ],
          "internalType": "struct inEuint32",
          "name": "value",
          "type": "tuple"
        }
      ],
      "name": "approveEncrypted",
      "outputs": [
        {
          "internalType": "bool",
          "name": "",
          "type": "bool"
        }
      ],
      "stateMutability": "nonpayable",
      "type": "function"
    },
    {
      "inputs": [
        {
          "internalType": "address",
          "name": "owner",
          "type": "address"
        }
      ],
      "name": "balanceOf",
      "outputs": [
        {
          "internalType": "uint256",
          "name": "result",
          "type": "uint256"
        }
      ],
      "stateMutability": "view",
      "type": "function"
    },
    {
      "inputs": [
        {
          "internalType": "address",
          "name": "account",
          "type": "address"
        },
        {
          "components": [
            {
              "internalType": "bytes32",
              "name": "publicKey",
              "type": "bytes32"
            },
            {
              "internalType": "bytes",
              "name": "signature",
              "type": "bytes"
            }
          ],
          "internalType": "struct Permission",
          "name": "auth",
          "type": "tuple"
        }
      ],
      "name": "balanceOfEncrypted",
      "outputs": [
        {
          "internalType": "string",
          "name": "",
          "type": "string"
        }
      ],
      "stateMutability": "view",
      "type": "function"
    },
    {
      "inputs": [],
      "name": "decimals",
      "outputs": [
        {
          "internalType": "uint8",
          "name": "",
          "type": "uint8"
        }
      ],
      "stateMutability": "pure",
      "type": "function"
    },
    {
      "inputs": [],
      "name": "eip712Domain",
      "outputs": [
        {
          "internalType": "bytes1",
          "name": "fields",
          "type": "bytes1"
        },
        {
          "internalType": "string",
          "name": "name",
          "type": "string"
        },
        {
          "internalType": "string",
          "name": "version",
          "type": "string"
        },
        {
          "internalType": "uint256",
          "name": "chainId",
          "type": "uint256"
        },
        {
          "internalType": "address",
          "name": "verifyingContract",
          "type": "address"
        },
        {
          "internalType": "bytes32",
          "name": "salt",
          "type": "bytes32"
        },
        {
          "internalType": "uint256[]",
          "name": "extensions",
          "type": "uint256[]"
        }
      ],
      "stateMutability": "view",
      "type": "function"
    },
    {
      "inputs": [],
      "name": "name",
      "outputs": [
        {
          "internalType": "string",
          "name": "",
          "type": "string"
        }
      ],
      "stateMutability": "view",
      "type": "function"
    },
    {
      "inputs": [
        {
          "internalType": "address",
          "name": "owner",
          "type": "address"
        }
      ],
      "name": "nonces",
      "outputs": [
        {
          "internalType": "uint256",
          "name": "result",
          "type": "uint256"
        }
      ],
      "stateMutability": "view",
      "type": "function"
    },
    {
      "inputs": [
        {
          "internalType": "address",
          "name": "owner",
          "type": "address"
        },
        {
          "internalType": "address",
          "name": "spender",
          "type": "address"
        },
        {
          "internalType": "uint256",
          "name": "value",
          "type": "uint256"
        },
        {
          "internalType": "uint256",
          "name": "deadline",
          "type": "uint256"
        },
        {
          "internalType": "uint8",
          "name": "v",
          "type": "uint8"
        },
        {
          "internalType": "bytes32",
          "name": "r",
          "type": "bytes32"
        },
        {
          "internalType": "bytes32",
          "name": "s",
          "type": "bytes32"
        }
      ],
      "name": "permit",
      "outputs": [],
      "stateMutability": "nonpayable",
      "type": "function"
    },
    {
      "inputs": [],
      "name": "symbol",
      "outputs": [
        {
          "internalType": "string",
          "name": "",
          "type": "string"
        }
      ],
      "stateMutability": "view",
      "type": "function"
    },
    {
      "inputs": [],
      "name": "totalSupply",
      "outputs": [
        {
          "internalType": "uint256",
          "name": "result",
          "type": "uint256"
        }
      ],
      "stateMutability": "view",
      "type": "function"
    },
    {
      "inputs": [
        {
          "internalType": "address",
          "name": "to",
          "type": "address"
        },
        {
          "internalType": "uint256",
          "name": "amount",
          "type": "uint256"
        }
      ],
      "name": "transfer",
      "outputs": [
        {
          "internalType": "bool",
          "name": "",
          "type": "bool"
        }
      ],
      "stateMutability": "nonpayable",
      "type": "function"
    },
    {
      "inputs": [
        {
          "internalType": "address",
          "name": "to",
          "type": "address"
        },
        {
          "components": [
            {
              "internalType": "bytes",
              "name": "data",
              "type": "bytes"
            }
          ],
          "internalType": "struct inEuint32",
          "name": "encryptedAmount",
          "type": "tuple"
        }
      ],
      "name": "transferEncrypted",
      "outputs": [
        {
          "internalType": "euint32",
          "name": "",
          "type": "uint256"
        }
      ],
      "stateMutability": "nonpayable",
      "type": "function"
    },
    {
      "inputs": [
        {
          "internalType": "address",
          "name": "to",
          "type": "address"
        },
        {
          "internalType": "euint32",
          "name": "amount",
          "type": "uint256"
        }
      ],
      "name": "transferEncrypted",
      "outputs": [
        {
          "internalType": "euint32",
          "name": "",
          "type": "uint256"
        }
      ],
      "stateMutability": "nonpayable",
      "type": "function"
    },
    {
      "inputs": [
        {
          "internalType": "address",
          "name": "from",
          "type": "address"
        },
        {
          "internalType": "address",
          "name": "to",
          "type": "address"
        },
        {
          "internalType": "uint256",
          "name": "amount",
          "type": "uint256"
        }
      ],
      "name": "transferFrom",
      "outputs": [
        {
          "internalType": "bool",
          "name": "",
          "type": "bool"
        }
      ],
      "stateMutability": "nonpayable",
      "type": "function"
    },
    {
      "inputs": [
        {
          "internalType": "address",
          "name": "from",
          "type": "address"
        },
        {
          "internalType": "address",
          "name": "to",
          "type": "address"
        },
        {
          "components": [
            {
              "internalType": "bytes",
              "name": "data",
              "type": "bytes"
            }
          ],
          "internalType": "struct inEuint32",
          "name": "value",
          "type": "tuple"
        }
      ],
      "name": "transferFromEncrypted",
      "outputs": [
        {
          "internalType": "euint32",
          "name": "",
          "type": "uint256"
        }
      ],
      "stateMutability": "nonpayable",
      "type": "function"
    },
    {
      "inputs": [
        {
          "internalType": "address",
          "name": "from",
          "type": "address"
        },
        {
          "internalType": "address",
          "name": "to",
          "type": "address"
        },
        {
          "internalType": "euint32",
          "name": "value",
          "type": "uint256"
        }
      ],
      "name": "transferFromEncrypted",
      "outputs": [
        {
          "internalType": "euint32",
          "name": "",
          "type": "uint256"
        }
      ],
      "stateMutability": "nonpayable",
      "type": "function"
    },
    {
      "inputs": [
        {
          "internalType": "uint32",
          "name": "amount",
          "type": "uint32"
        }
      ],
      "name": "unwrap",
      "outputs": [],
      "stateMutability": "nonpayable",
      "type": "function"
    },
    {
      "inputs": [
        {
          "internalType": "uint32",
          "name": "amount",
          "type": "uint32"
        }
      ],
      "name": "wrap",
      "outputs": [],
      "stateMutability": "nonpayable",
      "type": "function"
    }
  ],
  "transactionHash": "0xb22320aea9a97e3931529c57ecab01703d54309ed0dc8fa82dc6ae531de2aaf4",
  "args": [
    {
      "data": {
        "0": 16,
        "1": 8,
        "2": 0,
        "3": 0,
        "4": 0,
        "5": 0,
        "6": 0,
        "7": 0,
        "8": 214,
        "9": 205,
        "10": 136,
        "11": 72,
        "12": 66,
        "13": 61,
        "14": 148,
        "15": 161,
        "16": 228,
        "17": 120,
        "18": 173,
        "19": 68,
        "20": 135,
        "21": 57,
        "22": 250,
        "23": 101,
        "24": 37,
        "25": 146,
        "26": 219,
        "27": 183,
        "28": 131,
        "29": 194,
        "30": 93,
        "31": 152,
        "32": 110,
        "33": 235,
        "34": 100,
        "35": 97,
        "36": 45,
        "37": 149,
        "38": 17,
        "39": 187,
        "40": 10,
        "41": 145,
        "42": 66,
        "43": 56,
        "44": 95,
        "45": 209,
        "46": 104,
        "47": 73,
        "48": 134,
        "49": 137,
        "50": 200,
        "51": 165,
        "52": 77,
        "53": 149,
        "54": 242,
        "55": 223,
        "56": 12,
        "57": 114,
        "58": 73,
        "59": 119,
        "60": 238,
        "61": 236,
        "62": 180,
        "63": 193,
        "64": 36,
        "65": 235,
        "66": 42,
        "67": 43,
        "68": 177,
        "69": 166,
        "70": 72,
        "71": 92,
        "72": 227,
        "73": 56,
        "74": 127,
        "75": 26,
        "76": 104,
        "77": 132,
        "78": 171,
        "79": 254,
        "80": 17,
        "81": 57,
        "82": 249,
        "83": 154,
        "84": 48,
        "85": 200,
        "86": 27,
        "87": 8,
        "88": 6,
        "89": 44,
        "90": 229,
        "91": 71,
        "92": 94,
        "93": 37,
        "94": 196,
        "95": 71,
        "96": 1,
        "97": 29,
        "98": 241,
        "99": 121,
        "100": 182,
        "101": 204,
        "102": 53,
        "103": 85,
        "104": 89,
        "105": 3,
        "106": 16,
        "107": 225,
        "108": 130,
        "109": 175,
        "110": 139,
        "111": 197,
        "112": 175,
        "113": 116,
        "114": 188,
        "115": 57,
        "116": 161,
        "117": 122,
        "118": 123,
        "119": 232,
        "120": 16,
        "121": 106,
        "122": 125,
        "123": 48,
        "124": 71,
        "125": 4,
        "126": 192,
        "127": 93,
        "128": 5,
        "129": 12,
        "130": 81,
        "131": 178,
        "132": 90,
        "133": 101,
        "134": 254,
        "135": 103,
        "136": 184,
        "137": 107,
        "138": 116,
        "139": 49,
        "140": 149,
        "141": 250,
        "142": 51,
        "143": 88,
        "144": 113,
        "145": 186,
        "146": 244,
        "147": 114,
        "148": 215,
        "149": 119,
        "150": 212,
        "151": 159,
        "152": 116,
        "153": 169,
        "154": 178,
        "155": 54,
        "156": 229,
        "157": 126,
        "158": 162,
        "159": 39,
        "160": 49,
        "161": 74,
        "162": 20,
        "163": 121,
        "164": 98,
        "165": 206,
        "166": 231,
        "167": 167,
        "168": 197,
        "169": 179,
        "170": 132,
        "171": 158,
        "172": 76,
        "173": 153,
        "174": 208,
        "175": 4,
        "176": 60,
        "177": 209,
        "178": 95,
        "179": 3,
        "180": 179,
        "181": 136,
        "182": 237,
        "183": 114,
        "184": 164,
        "185": 244,
        "186": 61,
        "187": 86,
        "188": 134,
        "189": 127,
        "190": 143,
        "191": 193,
        "192": 101,
        "193": 164,
        "194": 42,
        "195": 123,
        "196": 184,
        "197": 117,
        "198": 132,
        "199": 249,
        "200": 143,
        "201": 74,
        "202": 144,
        "203": 20,
        "204": 183,
        "205": 157,
        "206": 255,
        "207": 186,
        "208": 134,
        "209": 111,
        "210": 150,
        "211": 17,
        "212": 165,
        "213": 90,
        "214": 1,
        "215": 228,
        "216": 42,
        "217": 42,
        "218": 96,
        "219": 100,
        "220": 250,
        "221": 194,
        "222": 84,
        "223": 225,
        "224": 98,
        "225": 173,
        "226": 42,
        "227": 54,
        "228": 39,
        "229": 251,
        "230": 118,
        "231": 219,
        "232": 243,
        "233": 148,
        "234": 248,
        "235": 144,
        "236": 95,
        "237": 198,
        "238": 42,
        "239": 34,
        "240": 57,
        "241": 34,
        "242": 227,
        "243": 59,
        "244": 7,
        "245": 21,
        "246": 236,
        "247": 102,
        "248": 7,
        "249": 182,
        "250": 192,
        "251": 231,
        "252": 143,
        "253": 154,
        "254": 133,
        "255": 96,
        "256": 121,
        "257": 90,
        "258": 21,
        "259": 255,
        "260": 249,
        "261": 205,
        "262": 245,
        "263": 198,
        "264": 176,
        "265": 48,
        "266": 123,
        "267": 166,
        "268": 205,
        "269": 39,
        "270": 104,
        "271": 77,
        "272": 75,
        "273": 223,
        "274": 242,
        "275": 135,
        "276": 226,
        "277": 175,
        "278": 44,
        "279": 207,
        "280": 166,
        "281": 208,
        "282": 90,
        "283": 124,
        "284": 16,
        "285": 196,
        "286": 100,
        "287": 144,
        "288": 90,
        "289": 211,
        "290": 126,
        "291": 137,
        "292": 210,
        "293": 40,
        "294": 161,
        "295": 29,
        "296": 84,
        "297": 6,
        "298": 58,
        "299": 178,
        "300": 168,
        "301": 7,
        "302": 12,
        "303": 90,
        "304": 107,
        "305": 156,
        "306": 115,
        "307": 34,
        "308": 52,
        "309": 153,
        "310": 14,
        "311": 208,
        "312": 180,
        "313": 153,
        "314": 70,
        "315": 172,
        "316": 90,
        "317": 26,
        "318": 212,
        "319": 214,
        "320": 56,
        "321": 35,
        "322": 140,
        "323": 218,
        "324": 145,
        "325": 182,
        "326": 51,
        "327": 108,
        "328": 109,
        "329": 56,
        "330": 150,
        "331": 178,
        "332": 110,
        "333": 165,
        "334": 49,
        "335": 255,
        "336": 204,
        "337": 176,
        "338": 239,
        "339": 218,
        "340": 171,
        "341": 178,
        "342": 41,
        "343": 70,
        "344": 160,
        "345": 78,
        "346": 254,
        "347": 35,
        "348": 20,
        "349": 82,
        "350": 215,
        "351": 47,
        "352": 203,
        "353": 231,
        "354": 81,
        "355": 203,
        "356": 179,
        "357": 166,
        "358": 41,
        "359": 120,
        "360": 89,
        "361": 66,
        "362": 29,
        "363": 105,
        "364": 43,
        "365": 124,
        "366": 39,
        "367": 121,
        "368": 196,
        "369": 63,
        "370": 42,
        "371": 43,
        "372": 209,
        "373": 191,
        "374": 219,
        "375": 196,
        "376": 207,
        "377": 227,
        "378": 77,
        "379": 214,
        "380": 196,
        "381": 36,
        "382": 189,
        "383": 168,
        "384": 76,
        "385": 27,
        "386": 58,
        "387": 102,
        "388": 174,
        "389": 234,
        "390": 87,
        "391": 81,
        "392": 170,
        "393": 145,
        "394": 119,
        "395": 143,
        "396": 77,
        "397": 241,
        "398": 253,
        "399": 36,
        "400": 1,
        "401": 82,
        "402": 56,
        "403": 216,
        "404": 61,
        "405": 77,
        "406": 28,
        "407": 13,
        "408": 184,
        "409": 196,
        "410": 96,
        "411": 242,
        "412": 180,
        "413": 61,
        "414": 242,
        "415": 89,
        "416": 138,
        "417": 52,
        "418": 159,
        "419": 86,
        "420": 100,
        "421": 104,
        "422": 30,
        "423": 39,
        "424": 165,
        "425": 61,
        "426": 141,
        "427": 210,
        "428": 127,
        "429": 66,
        "430": 220,
        "431": 65,
        "432": 187,
        "433": 28,
        "434": 124,
        "435": 28,
        "436": 201,
        "437": 88,
        "438": 109,
        "439": 168,
        "440": 213,
        "441": 147,
        "442": 122,
        "443": 0,
        "444": 20,
        "445": 158,
        "446": 25,
        "447": 2,
        "448": 22,
        "449": 221,
        "450": 33,
        "451": 155,
        "452": 44,
        "453": 141,
        "454": 45,
        "455": 175,
        "456": 122,
        "457": 16,
        "458": 126,
        "459": 194,
        "460": 147,
        "461": 246,
        "462": 192,
        "463": 227,
        "464": 124,
        "465": 92,
        "466": 246,
        "467": 228,
        "468": 183,
        "469": 195,
        "470": 65,
        "471": 255,
        "472": 5,
        "473": 100,
        "474": 5,
        "475": 85,
        "476": 28,
        "477": 77,
        "478": 87,
        "479": 38,
        "480": 23,
        "481": 255,
        "482": 243,
        "483": 243,
        "484": 191,
        "485": 150,
        "486": 112,
        "487": 12,
        "488": 193,
        "489": 48,
        "490": 129,
        "491": 188,
        "492": 13,
        "493": 95,
        "494": 153,
        "495": 200,
        "496": 201,
        "497": 104,
        "498": 128,
        "499": 75,
        "500": 177,
        "501": 77,
        "502": 104,
        "503": 146,
        "504": 123,
        "505": 195,
        "506": 105,
        "507": 68,
        "508": 109,
        "509": 193,
        "510": 28,
        "511": 201,
        "512": 3,
        "513": 39,
        "514": 247,
        "515": 139,
        "516": 18,
        "517": 80,
        "518": 142,
        "519": 80,
        "520": 253,
        "521": 50,
        "522": 61,
        "523": 28,
        "524": 169,
        "525": 158,
        "526": 249,
        "527": 198,
        "528": 240,
        "529": 113,
        "530": 224,
        "531": 15,
        "532": 88,
        "533": 224,
        "534": 236,
        "535": 93,
        "536": 185,
        "537": 102,
        "538": 246,
        "539": 130,
        "540": 124,
        "541": 60,
        "542": 238,
        "543": 89,
        "544": 13,
        "545": 113,
        "546": 28,
        "547": 5,
        "548": 147,
        "549": 245,
        "550": 102,
        "551": 97,
        "552": 117,
        "553": 52,
        "554": 243,
        "555": 163,
        "556": 150,
        "557": 57,
        "558": 46,
        "559": 72,
        "560": 64,
        "561": 220,
        "562": 82,
        "563": 202,
        "564": 212,
        "565": 161,
        "566": 46,
        "567": 148,
        "568": 221,
        "569": 59,
        "570": 225,
        "571": 140,
        "572": 229,
        "573": 31,
        "574": 137,
        "575": 83,
        "576": 86,
        "577": 12,
        "578": 22,
        "579": 165,
        "580": 196,
        "581": 227,
        "582": 156,
        "583": 17,
        "584": 95,
        "585": 201,
        "586": 238,
        "587": 36,
        "588": 230,
        "589": 229,
        "590": 107,
        "591": 227,
        "592": 100,
        "593": 124,
        "594": 34,
        "595": 174,
        "596": 108,
        "597": 251,
        "598": 7,
        "599": 128,
        "600": 111,
        "601": 220,
        "602": 48,
        "603": 235,
        "604": 151,
        "605": 232,
        "606": 183,
        "607": 133,
        "608": 241,
        "609": 30,
        "610": 111,
        "611": 237,
        "612": 234,
        "613": 166,
        "614": 177,
        "615": 254,
        "616": 69,
        "617": 160,
        "618": 59,
        "619": 18,
        "620": 157,
        "621": 65,
        "622": 12,
        "623": 79,
        "624": 90,
        "625": 79,
        "626": 47,
        "627": 249,
        "628": 146,
        "629": 99,
        "630": 8,
        "631": 183,
        "632": 67,
        "633": 69,
        "634": 24,
        "635": 130,
        "636": 91,
        "637": 21,
        "638": 227,
        "639": 138,
        "640": 193,
        "641": 11,
        "642": 241,
        "643": 28,
        "644": 220,
        "645": 184,
        "646": 156,
        "647": 146,
        "648": 16,
        "649": 121,
        "650": 159,
        "651": 31,
        "652": 87,
        "653": 131,
        "654": 247,
        "655": 206,
        "656": 230,
        "657": 47,
        "658": 163,
        "659": 251,
        "660": 218,
        "661": 220,
        "662": 39,
        "663": 137,
        "664": 31,
        "665": 221,
        "666": 14,
        "667": 78,
        "668": 3,
        "669": 229,
        "670": 226,
        "671": 206,
        "672": 71,
        "673": 47,
        "674": 173,
        "675": 17,
        "676": 54,
        "677": 99,
        "678": 66,
        "679": 55,
        "680": 121,
        "681": 190,
        "682": 234,
        "683": 9,
        "684": 117,
        "685": 237,
        "686": 75,
        "687": 167,
        "688": 92,
        "689": 55,
        "690": 142,
        "691": 73,
        "692": 32,
        "693": 29,
        "694": 181,
        "695": 44,
        "696": 125,
        "697": 199,
        "698": 178,
        "699": 218,
        "700": 83,
        "701": 178,
        "702": 222,
        "703": 211,
        "704": 133,
        "705": 120,
        "706": 208,
        "707": 231,
        "708": 118,
        "709": 220,
        "710": 229,
        "711": 71,
        "712": 249,
        "713": 100,
        "714": 73,
        "715": 91,
        "716": 77,
        "717": 156,
        "718": 28,
        "719": 24,
        "720": 40,
        "721": 165,
        "722": 118,
        "723": 240,
        "724": 58,
        "725": 0,
        "726": 183,
        "727": 135,
        "728": 9,
        "729": 16,
        "730": 248,
        "731": 192,
        "732": 164,
        "733": 56,
        "734": 5,
        "735": 171,
        "736": 82,
        "737": 78,
        "738": 129,
        "739": 254,
        "740": 44,
        "741": 56,
        "742": 169,
        "743": 236,
        "744": 61,
        "745": 214,
        "746": 236,
        "747": 184,
        "748": 192,
        "749": 193,
        "750": 55,
        "751": 97,
        "752": 13,
        "753": 68,
        "754": 158,
        "755": 160,
        "756": 2,
        "757": 229,
        "758": 240,
        "759": 224,
        "760": 209,
        "761": 64,
        "762": 75,
        "763": 211,
        "764": 92,
        "765": 173,
        "766": 125,
        "767": 65,
        "768": 169,
        "769": 180,
        "770": 112,
        "771": 102,
        "772": 111,
        "773": 102,
        "774": 218,
        "775": 169,
        "776": 254,
        "777": 226,
        "778": 116,
        "779": 152,
        "780": 204,
        "781": 253,
        "782": 93,
        "783": 106,
        "784": 59,
        "785": 18,
        "786": 86,
        "787": 61,
        "788": 213,
        "789": 94,
        "790": 123,
        "791": 115,
        "792": 44,
        "793": 50,
        "794": 22,
        "795": 138,
        "796": 211,
        "797": 235,
        "798": 230,
        "799": 188,
        "800": 218,
        "801": 77,
        "802": 103,
        "803": 135,
        "804": 184,
        "805": 117,
        "806": 67,
        "807": 43,
        "808": 235,
        "809": 139,
        "810": 128,
        "811": 57,
        "812": 207,
        "813": 227,
        "814": 101,
        "815": 190,
        "816": 197,
        "817": 232,
        "818": 192,
        "819": 199,
        "820": 129,
        "821": 214,
        "822": 144,
        "823": 154,
        "824": 239,
        "825": 15,
        "826": 27,
        "827": 141,
        "828": 15,
        "829": 67,
        "830": 89,
        "831": 169,
        "832": 81,
        "833": 193,
        "834": 183,
        "835": 217,
        "836": 106,
        "837": 193,
        "838": 225,
        "839": 173,
        "840": 122,
        "841": 227,
        "842": 177,
        "843": 103,
        "844": 94,
        "845": 241,
        "846": 15,
        "847": 193,
        "848": 135,
        "849": 149,
        "850": 72,
        "851": 86,
        "852": 93,
        "853": 197,
        "854": 83,
        "855": 0,
        "856": 236,
        "857": 47,
        "858": 240,
        "859": 70,
        "860": 247,
        "861": 41,
        "862": 120,
        "863": 83,
        "864": 82,
        "865": 198,
        "866": 136,
        "867": 41,
        "868": 234,
        "869": 168,
        "870": 71,
        "871": 244,
        "872": 178,
        "873": 210,
        "874": 252,
        "875": 184,
        "876": 247,
        "877": 238,
        "878": 202,
        "879": 164,
        "880": 77,
        "881": 227,
        "882": 86,
        "883": 102,
        "884": 13,
        "885": 174,
        "886": 106,
        "887": 108,
        "888": 51,
        "889": 186,
        "890": 35,
        "891": 136,
        "892": 249,
        "893": 63,
        "894": 4,
        "895": 124,
        "896": 254,
        "897": 50,
        "898": 137,
        "899": 226,
        "900": 171,
        "901": 132,
        "902": 108,
        "903": 18,
        "904": 190,
        "905": 61,
        "906": 211,
        "907": 83,
        "908": 172,
        "909": 124,
        "910": 162,
        "911": 124,
        "912": 72,
        "913": 157,
        "914": 213,
        "915": 57,
        "916": 81,
        "917": 97,
        "918": 244,
        "919": 112,
        "920": 207,
        "921": 253,
        "922": 4,
        "923": 4,
        "924": 1,
        "925": 215,
        "926": 107,
        "927": 50,
        "928": 240,
        "929": 58,
        "930": 116,
        "931": 5,
        "932": 228,
        "933": 163,
        "934": 83,
        "935": 37,
        "936": 116,
        "937": 162,
        "938": 249,
        "939": 113,
        "940": 123,
        "941": 179,
        "942": 8,
        "943": 136,
        "944": 155,
        "945": 79,
        "946": 35,
        "947": 249,
        "948": 153,
        "949": 12,
        "950": 87,
        "951": 131,
        "952": 181,
        "953": 3,
        "954": 86,
        "955": 113,
        "956": 255,
        "957": 136,
        "958": 138,
        "959": 170,
        "960": 218,
        "961": 79,
        "962": 252,
        "963": 167,
        "964": 157,
        "965": 41,
        "966": 169,
        "967": 249,
        "968": 125,
        "969": 169,
        "970": 197,
        "971": 130,
        "972": 159,
        "973": 183,
        "974": 78,
        "975": 249,
        "976": 77,
        "977": 58,
        "978": 99,
        "979": 132,
        "980": 31,
        "981": 211,
        "982": 23,
        "983": 100,
        "984": 223,
        "985": 236,
        "986": 76,
        "987": 33,
        "988": 104,
        "989": 195,
        "990": 23,
        "991": 112,
        "992": 144,
        "993": 218,
        "994": 170,
        "995": 83,
        "996": 185,
        "997": 104,
        "998": 74,
        "999": 145,
        "1000": 35,
        "1001": 241,
        "1002": 72,
        "1003": 86,
        "1004": 178,
        "1005": 203,
        "1006": 97,
        "1007": 197,
        "1008": 214,
        "1009": 156,
        "1010": 186,
        "1011": 37,
        "1012": 166,
        "1013": 191,
        "1014": 227,
        "1015": 116,
        "1016": 177,
        "1017": 14,
        "1018": 250,
        "1019": 162,
        "1020": 178,
        "1021": 202,
        "1022": 231,
        "1023": 163,
        "1024": 124,
        "1025": 75,
        "1026": 253,
        "1027": 168,
        "1028": 204,
        "1029": 254,
        "1030": 36,
        "1031": 185,
        "1032": 14,
        "1033": 125,
        "1034": 195,
        "1035": 45,
        "1036": 81,
        "1037": 206,
        "1038": 236,
        "1039": 158,
        "1040": 21,
        "1041": 228,
        "1042": 205,
        "1043": 75,
        "1044": 213,
        "1045": 61,
        "1046": 106,
        "1047": 124,
        "1048": 27,
        "1049": 52,
        "1050": 127,
        "1051": 81,
        "1052": 247,
        "1053": 40,
        "1054": 236,
        "1055": 127,
        "1056": 27,
        "1057": 43,
        "1058": 51,
        "1059": 134,
        "1060": 171,
        "1061": 31,
        "1062": 35,
        "1063": 156,
        "1064": 76,
        "1065": 42,
        "1066": 48,
        "1067": 66,
        "1068": 146,
        "1069": 110,
        "1070": 23,
        "1071": 191,
        "1072": 217,
        "1073": 232,
        "1074": 202,
        "1075": 53,
        "1076": 114,
        "1077": 232,
        "1078": 185,
        "1079": 232,
        "1080": 136,
        "1081": 80,
        "1082": 238,
        "1083": 191,
        "1084": 74,
        "1085": 148,
        "1086": 248,
        "1087": 231,
        "1088": 106,
        "1089": 120,
        "1090": 145,
        "1091": 116,
        "1092": 127,
        "1093": 119,
        "1094": 184,
        "1095": 122,
        "1096": 122,
        "1097": 128,
        "1098": 70,
        "1099": 25,
        "1100": 42,
        "1101": 160,
        "1102": 194,
        "1103": 146,
        "1104": 175,
        "1105": 244,
        "1106": 111,
        "1107": 244,
        "1108": 24,
        "1109": 116,
        "1110": 156,
        "1111": 191,
        "1112": 183,
        "1113": 108,
        "1114": 246,
        "1115": 42,
        "1116": 216,
        "1117": 108,
        "1118": 112,
        "1119": 252,
        "1120": 224,
        "1121": 248,
        "1122": 167,
        "1123": 104,
        "1124": 144,
        "1125": 5,
        "1126": 63,
        "1127": 40,
        "1128": 7,
        "1129": 141,
        "1130": 28,
        "1131": 216,
        "1132": 230,
        "1133": 22,
        "1134": 185,
        "1135": 61,
        "1136": 171,
        "1137": 39,
        "1138": 165,
        "1139": 177,
        "1140": 62,
        "1141": 146,
        "1142": 121,
        "1143": 243,
        "1144": 204,
        "1145": 32,
        "1146": 72,
        "1147": 204,
        "1148": 205,
        "1149": 147,
        "1150": 158,
        "1151": 37,
        "1152": 65,
        "1153": 202,
        "1154": 175,
        "1155": 132,
        "1156": 161,
        "1157": 80,
        "1158": 16,
        "1159": 75,
        "1160": 108,
        "1161": 143,
        "1162": 31,
        "1163": 0,
        "1164": 4,
        "1165": 162,
        "1166": 255,
        "1167": 135,
        "1168": 139,
        "1169": 195,
        "1170": 211,
        "1171": 152,
        "1172": 23,
        "1173": 203,
        "1174": 42,
        "1175": 67,
        "1176": 94,
        "1177": 248,
        "1178": 98,
        "1179": 174,
        "1180": 252,
        "1181": 231,
        "1182": 146,
        "1183": 43,
        "1184": 73,
        "1185": 35,
        "1186": 141,
        "1187": 14,
        "1188": 252,
        "1189": 194,
        "1190": 8,
        "1191": 3,
        "1192": 113,
        "1193": 193,
        "1194": 2,
        "1195": 148,
        "1196": 231,
        "1197": 5,
        "1198": 172,
        "1199": 216,
        "1200": 100,
        "1201": 86,
        "1202": 119,
        "1203": 38,
        "1204": 74,
        "1205": 178,
        "1206": 219,
        "1207": 61,
        "1208": 73,
        "1209": 145,
        "1210": 203,
        "1211": 15,
        "1212": 238,
        "1213": 253,
        "1214": 185,
        "1215": 7,
        "1216": 109,
        "1217": 93,
        "1218": 82,
        "1219": 80,
        "1220": 245,
        "1221": 104,
        "1222": 173,
        "1223": 1,
        "1224": 105,
        "1225": 149,
        "1226": 232,
        "1227": 75,
        "1228": 225,
        "1229": 77,
        "1230": 168,
        "1231": 173,
        "1232": 112,
        "1233": 187,
        "1234": 42,
        "1235": 25,
        "1236": 239,
        "1237": 205,
        "1238": 63,
        "1239": 183,
        "1240": 160,
        "1241": 16,
        "1242": 110,
        "1243": 88,
        "1244": 104,
        "1245": 38,
        "1246": 131,
        "1247": 203,
        "1248": 66,
        "1249": 183,
        "1250": 28,
        "1251": 219,
        "1252": 50,
        "1253": 49,
        "1254": 146,
        "1255": 121,
        "1256": 72,
        "1257": 157,
        "1258": 105,
        "1259": 159,
        "1260": 225,
        "1261": 12,
        "1262": 190,
        "1263": 249,
        "1264": 62,
        "1265": 49,
        "1266": 172,
        "1267": 192,
        "1268": 137,
        "1269": 114,
        "1270": 15,
        "1271": 241,
        "1272": 146,
        "1273": 42,
        "1274": 155,
        "1275": 196,
        "1276": 190,
        "1277": 6,
        "1278": 69,
        "1279": 70,
        "1280": 148,
        "1281": 150,
        "1282": 130,
        "1283": 185,
        "1284": 16,
        "1285": 232,
        "1286": 34,
        "1287": 164,
        "1288": 98,
        "1289": 242,
        "1290": 97,
        "1291": 191,
        "1292": 42,
        "1293": 204,
        "1294": 131,
        "1295": 51,
        "1296": 98,
        "1297": 80,
        "1298": 116,
        "1299": 65,
        "1300": 56,
        "1301": 181,
        "1302": 140,
        "1303": 42,
        "1304": 190,
        "1305": 201,
        "1306": 191,
        "1307": 140,
        "1308": 2,
        "1309": 212,
        "1310": 100,
        "1311": 6,
        "1312": 112,
        "1313": 227,
        "1314": 106,
        "1315": 169,
        "1316": 32,
        "1317": 150,
        "1318": 221,
        "1319": 225,
        "1320": 67,
        "1321": 201,
        "1322": 127,
        "1323": 94,
        "1324": 136,
        "1325": 26,
        "1326": 230,
        "1327": 7,
        "1328": 238,
        "1329": 95,
        "1330": 90,
        "1331": 12,
        "1332": 18,
        "1333": 131,
        "1334": 150,
        "1335": 83,
        "1336": 84,
        "1337": 247,
        "1338": 187,
        "1339": 20,
        "1340": 29,
        "1341": 195,
        "1342": 111,
        "1343": 101,
        "1344": 151,
        "1345": 237,
        "1346": 54,
        "1347": 4,
        "1348": 1,
        "1349": 160,
        "1350": 215,
        "1351": 151,
        "1352": 42,
        "1353": 218,
        "1354": 70,
        "1355": 187,
        "1356": 52,
        "1357": 129,
        "1358": 233,
        "1359": 126,
        "1360": 163,
        "1361": 53,
        "1362": 231,
        "1363": 104,
        "1364": 172,
        "1365": 136,
        "1366": 68,
        "1367": 44,
        "1368": 67,
        "1369": 220,
        "1370": 69,
        "1371": 85,
        "1372": 113,
        "1373": 13,
        "1374": 177,
        "1375": 65,
        "1376": 109,
        "1377": 66,
        "1378": 23,
        "1379": 254,
        "1380": 138,
        "1381": 97,
        "1382": 65,
        "1383": 249,
        "1384": 239,
        "1385": 157,
        "1386": 54,
        "1387": 182,
        "1388": 210,
        "1389": 32,
        "1390": 160,
        "1391": 193,
        "1392": 101,
        "1393": 38,
        "1394": 180,
        "1395": 142,
        "1396": 111,
        "1397": 192,
        "1398": 249,
        "1399": 40,
        "1400": 194,
        "1401": 35,
        "1402": 74,
        "1403": 157,
        "1404": 212,
        "1405": 232,
        "1406": 203,
        "1407": 165,
        "1408": 155,
        "1409": 162,
        "1410": 177,
        "1411": 59,
        "1412": 81,
        "1413": 219,
        "1414": 217,
        "1415": 57,
        "1416": 248,
        "1417": 54,
        "1418": 191,
        "1419": 236,
        "1420": 188,
        "1421": 111,
        "1422": 169,
        "1423": 224,
        "1424": 127,
        "1425": 210,
        "1426": 152,
        "1427": 160,
        "1428": 138,
        "1429": 53,
        "1430": 179,
        "1431": 28,
        "1432": 107,
        "1433": 226,
        "1434": 169,
        "1435": 127,
        "1436": 37,
        "1437": 161,
        "1438": 79,
        "1439": 139,
        "1440": 224,
        "1441": 143,
        "1442": 206,
        "1443": 172,
        "1444": 28,
        "1445": 77,
        "1446": 248,
        "1447": 242,
        "1448": 129,
        "1449": 33,
        "1450": 214,
        "1451": 61,
        "1452": 121,
        "1453": 229,
        "1454": 177,
        "1455": 238,
        "1456": 157,
        "1457": 46,
        "1458": 26,
        "1459": 205,
        "1460": 54,
        "1461": 176,
        "1462": 9,
        "1463": 96,
        "1464": 245,
        "1465": 212,
        "1466": 11,
        "1467": 191,
        "1468": 34,
        "1469": 162,
        "1470": 19,
        "1471": 144,
        "1472": 20,
        "1473": 195,
        "1474": 19,
        "1475": 168,
        "1476": 94,
        "1477": 194,
        "1478": 62,
        "1479": 29,
        "1480": 164,
        "1481": 247,
        "1482": 135,
        "1483": 103,
        "1484": 211,
        "1485": 2,
        "1486": 186,
        "1487": 150,
        "1488": 164,
        "1489": 40,
        "1490": 109,
        "1491": 220,
        "1492": 169,
        "1493": 152,
        "1494": 47,
        "1495": 103,
        "1496": 146,
        "1497": 180,
        "1498": 44,
        "1499": 61,
        "1500": 143,
        "1501": 89,
        "1502": 250,
        "1503": 108,
        "1504": 105,
        "1505": 175,
        "1506": 92,
        "1507": 110,
        "1508": 90,
        "1509": 237,
        "1510": 30,
        "1511": 202,
        "1512": 200,
        "1513": 74,
        "1514": 92,
        "1515": 1,
        "1516": 191,
        "1517": 116,
        "1518": 140,
        "1519": 41,
        "1520": 3,
        "1521": 102,
        "1522": 159,
        "1523": 149,
        "1524": 89,
        "1525": 122,
        "1526": 24,
        "1527": 132,
        "1528": 215,
        "1529": 227,
        "1530": 44,
        "1531": 68,
        "1532": 180,
        "1533": 236,
        "1534": 213,
        "1535": 71,
        "1536": 88,
        "1537": 2,
        "1538": 208,
        "1539": 47,
        "1540": 6,
        "1541": 31,
        "1542": 245,
        "1543": 132,
        "1544": 97,
        "1545": 90,
        "1546": 140,
        "1547": 213,
        "1548": 189,
        "1549": 163,
        "1550": 194,
        "1551": 129,
        "1552": 148,
        "1553": 97,
        "1554": 188,
        "1555": 66,
        "1556": 186,
        "1557": 99,
        "1558": 249,
        "1559": 107,
        "1560": 82,
        "1561": 184,
        "1562": 98,
        "1563": 224,
        "1564": 91,
        "1565": 182,
        "1566": 74,
        "1567": 99,
        "1568": 122,
        "1569": 141,
        "1570": 174,
        "1571": 3,
        "1572": 226,
        "1573": 56,
        "1574": 143,
        "1575": 132,
        "1576": 127,
        "1577": 121,
        "1578": 49,
        "1579": 27,
        "1580": 212,
        "1581": 36,
        "1582": 75,
        "1583": 118,
        "1584": 159,
        "1585": 13,
        "1586": 236,
        "1587": 251,
        "1588": 91,
        "1589": 176,
        "1590": 16,
        "1591": 232,
        "1592": 189,
        "1593": 245,
        "1594": 117,
        "1595": 129,
        "1596": 119,
        "1597": 168,
        "1598": 70,
        "1599": 245,
        "1600": 77,
        "1601": 127,
        "1602": 45,
        "1603": 94,
        "1604": 253,
        "1605": 16,
        "1606": 171,
        "1607": 86,
        "1608": 53,
        "1609": 4,
        "1610": 142,
        "1611": 89,
        "1612": 237,
        "1613": 202,
        "1614": 183,
        "1615": 249,
        "1616": 49,
        "1617": 210,
        "1618": 187,
        "1619": 153,
        "1620": 221,
        "1621": 95,
        "1622": 69,
        "1623": 5,
        "1624": 62,
        "1625": 44,
        "1626": 145,
        "1627": 50,
        "1628": 23,
        "1629": 109,
        "1630": 93,
        "1631": 93,
        "1632": 165,
        "1633": 104,
        "1634": 136,
        "1635": 119,
        "1636": 214,
        "1637": 218,
        "1638": 91,
        "1639": 183,
        "1640": 24,
        "1641": 240,
        "1642": 42,
        "1643": 203,
        "1644": 15,
        "1645": 83,
        "1646": 29,
        "1647": 97,
        "1648": 186,
        "1649": 143,
        "1650": 196,
        "1651": 164,
        "1652": 165,
        "1653": 132,
        "1654": 177,
        "1655": 164,
        "1656": 16,
        "1657": 169,
        "1658": 255,
        "1659": 34,
        "1660": 214,
        "1661": 124,
        "1662": 228,
        "1663": 203,
        "1664": 202,
        "1665": 204,
        "1666": 21,
        "1667": 24,
        "1668": 49,
        "1669": 249,
        "1670": 161,
        "1671": 149,
        "1672": 183,
        "1673": 73,
        "1674": 49,
        "1675": 4,
        "1676": 244,
        "1677": 165,
        "1678": 135,
        "1679": 63,
        "1680": 144,
        "1681": 13,
        "1682": 173,
        "1683": 198,
        "1684": 7,
        "1685": 179,
        "1686": 57,
        "1687": 174,
        "1688": 110,
        "1689": 16,
        "1690": 142,
        "1691": 174,
        "1692": 176,
        "1693": 220,
        "1694": 138,
        "1695": 106,
        "1696": 49,
        "1697": 58,
        "1698": 177,
        "1699": 199,
        "1700": 203,
        "1701": 193,
        "1702": 69,
        "1703": 29,
        "1704": 185,
        "1705": 184,
        "1706": 22,
        "1707": 204,
        "1708": 108,
        "1709": 19,
        "1710": 135,
        "1711": 160,
        "1712": 203,
        "1713": 187,
        "1714": 205,
        "1715": 57,
        "1716": 151,
        "1717": 209,
        "1718": 40,
        "1719": 213,
        "1720": 253,
        "1721": 209,
        "1722": 97,
        "1723": 94,
        "1724": 207,
        "1725": 173,
        "1726": 66,
        "1727": 59,
        "1728": 191,
        "1729": 133,
        "1730": 254,
        "1731": 110,
        "1732": 253,
        "1733": 132,
        "1734": 59,
        "1735": 236,
        "1736": 190,
        "1737": 56,
        "1738": 205,
        "1739": 127,
        "1740": 52,
        "1741": 196,
        "1742": 107,
        "1743": 227,
        "1744": 1,
        "1745": 245,
        "1746": 1,
        "1747": 139,
        "1748": 194,
        "1749": 146,
        "1750": 199,
        "1751": 109,
        "1752": 125,
        "1753": 116,
        "1754": 145,
        "1755": 147,
        "1756": 170,
        "1757": 199,
        "1758": 32,
        "1759": 17,
        "1760": 3,
        "1761": 90,
        "1762": 183,
        "1763": 100,
        "1764": 147,
        "1765": 238,
        "1766": 221,
        "1767": 210,
        "1768": 220,
        "1769": 203,
        "1770": 81,
        "1771": 108,
        "1772": 255,
        "1773": 12,
        "1774": 192,
        "1775": 146,
        "1776": 243,
        "1777": 0,
        "1778": 231,
        "1779": 84,
        "1780": 211,
        "1781": 139,
        "1782": 233,
        "1783": 61,
        "1784": 4,
        "1785": 200,
        "1786": 15,
        "1787": 168,
        "1788": 227,
        "1789": 190,
        "1790": 34,
        "1791": 191,
        "1792": 129,
        "1793": 145,
        "1794": 78,
        "1795": 113,
        "1796": 125,
        "1797": 91,
        "1798": 143,
        "1799": 148,
        "1800": 30,
        "1801": 158,
        "1802": 241,
        "1803": 199,
        "1804": 248,
        "1805": 19,
        "1806": 113,
        "1807": 174,
        "1808": 115,
        "1809": 44,
        "1810": 198,
        "1811": 132,
        "1812": 106,
        "1813": 2,
        "1814": 241,
        "1815": 149,
        "1816": 153,
        "1817": 88,
        "1818": 45,
        "1819": 198,
        "1820": 25,
        "1821": 144,
        "1822": 49,
        "1823": 120,
        "1824": 151,
        "1825": 112,
        "1826": 136,
        "1827": 33,
        "1828": 74,
        "1829": 141,
        "1830": 140,
        "1831": 168,
        "1832": 228,
        "1833": 72,
        "1834": 208,
        "1835": 19,
        "1836": 226,
        "1837": 206,
        "1838": 164,
        "1839": 231,
        "1840": 231,
        "1841": 191,
        "1842": 205,
        "1843": 250,
        "1844": 192,
        "1845": 232,
        "1846": 197,
        "1847": 204,
        "1848": 139,
        "1849": 136,
        "1850": 200,
        "1851": 200,
        "1852": 128,
        "1853": 90,
        "1854": 137,
        "1855": 11,
        "1856": 99,
        "1857": 169,
        "1858": 45,
        "1859": 204,
        "1860": 147,
        "1861": 19,
        "1862": 15,
        "1863": 108,
        "1864": 185,
        "1865": 44,
        "1866": 41,
        "1867": 238,
        "1868": 248,
        "1869": 247,
        "1870": 139,
        "1871": 66,
        "1872": 185,
        "1873": 197,
        "1874": 191,
        "1875": 92,
        "1876": 31,
        "1877": 79,
        "1878": 250,
        "1879": 15,
        "1880": 149,
        "1881": 85,
        "1882": 128,
        "1883": 185,
        "1884": 2,
        "1885": 182,
        "1886": 232,
        "1887": 82,
        "1888": 139,
        "1889": 128,
        "1890": 59,
        "1891": 66,
        "1892": 22,
        "1893": 72,
        "1894": 199,
        "1895": 183,
        "1896": 72,
        "1897": 125,
        "1898": 244,
        "1899": 244,
        "1900": 227,
        "1901": 117,
        "1902": 90,
        "1903": 102,
        "1904": 25,
        "1905": 59,
        "1906": 65,
        "1907": 164,
        "1908": 4,
        "1909": 191,
        "1910": 162,
        "1911": 139,
        "1912": 64,
        "1913": 212,
        "1914": 41,
        "1915": 226,
        "1916": 239,
        "1917": 158,
        "1918": 232,
        "1919": 83,
        "1920": 64,
        "1921": 83,
        "1922": 78,
        "1923": 207,
        "1924": 90,
        "1925": 116,
        "1926": 22,
        "1927": 147,
        "1928": 95,
        "1929": 43,
        "1930": 133,
        "1931": 60,
        "1932": 143,
        "1933": 17,
        "1934": 59,
        "1935": 128,
        "1936": 38,
        "1937": 36,
        "1938": 233,
        "1939": 252,
        "1940": 184,
        "1941": 132,
        "1942": 184,
        "1943": 18,
        "1944": 155,
        "1945": 7,
        "1946": 100,
        "1947": 40,
        "1948": 235,
        "1949": 80,
        "1950": 22,
        "1951": 98,
        "1952": 238,
        "1953": 115,
        "1954": 72,
        "1955": 179,
        "1956": 73,
        "1957": 185,
        "1958": 103,
        "1959": 199,
        "1960": 235,
        "1961": 248,
        "1962": 208,
        "1963": 220,
        "1964": 116,
        "1965": 206,
        "1966": 74,
        "1967": 83,
        "1968": 118,
        "1969": 189,
        "1970": 94,
        "1971": 113,
        "1972": 48,
        "1973": 62,
        "1974": 90,
        "1975": 241,
        "1976": 216,
        "1977": 65,
        "1978": 21,
        "1979": 166,
        "1980": 29,
        "1981": 136,
        "1982": 0,
        "1983": 57,
        "1984": 220,
        "1985": 221,
        "1986": 32,
        "1987": 137,
        "1988": 79,
        "1989": 0,
        "1990": 54,
        "1991": 211,
        "1992": 195,
        "1993": 241,
        "1994": 253,
        "1995": 209,
        "1996": 96,
        "1997": 179,
        "1998": 225,
        "1999": 99,
        "2000": 103,
        "2001": 112,
        "2002": 59,
        "2003": 122,
        "2004": 33,
        "2005": 74,
        "2006": 136,
        "2007": 113,
        "2008": 201,
        "2009": 66,
        "2010": 109,
        "2011": 55,
        "2012": 28,
        "2013": 192,
        "2014": 124,
        "2015": 5,
        "2016": 133,
        "2017": 126,
        "2018": 93,
        "2019": 164,
        "2020": 102,
        "2021": 52,
        "2022": 33,
        "2023": 142,
        "2024": 72,
        "2025": 78,
        "2026": 254,
        "2027": 154,
        "2028": 148,
        "2029": 55,
        "2030": 140,
        "2031": 133,
        "2032": 44,
        "2033": 63,
        "2034": 244,
        "2035": 255,
        "2036": 86,
        "2037": 208,
        "2038": 249,
        "2039": 155,
        "2040": 248,
        "2041": 131,
        "2042": 231,
        "2043": 3,
        "2044": 34,
        "2045": 80,
        "2046": 133,
        "2047": 208,
        "2048": 85,
        "2049": 127,
        "2050": 72,
        "2051": 68,
        "2052": 69,
        "2053": 167,
        "2054": 10,
        "2055": 180,
        "2056": 144,
        "2057": 84,
        "2058": 161,
        "2059": 209,
        "2060": 228,
        "2061": 45,
        "2062": 209,
        "2063": 208,
        "2064": 28,
        "2065": 226,
        "2066": 153,
        "2067": 226,
        "2068": 71,
        "2069": 175,
        "2070": 31,
        "2071": 71,
        "2072": 255,
        "2073": 77,
        "2074": 115,
        "2075": 34,
        "2076": 2,
        "2077": 32,
        "2078": 237,
        "2079": 221,
        "2080": 195,
        "2081": 31,
        "2082": 138,
        "2083": 34,
        "2084": 62,
        "2085": 59,
        "2086": 172,
        "2087": 165,
        "2088": 25,
        "2089": 75,
        "2090": 51,
        "2091": 182,
        "2092": 16,
        "2093": 194,
        "2094": 217,
        "2095": 236,
        "2096": 46,
        "2097": 3,
        "2098": 196,
        "2099": 165,
        "2100": 192,
        "2101": 15,
        "2102": 106,
        "2103": 163,
        "2104": 105,
        "2105": 45,
        "2106": 21,
        "2107": 93,
        "2108": 166,
        "2109": 135,
        "2110": 161,
        "2111": 110,
        "2112": 40,
        "2113": 72,
        "2114": 150,
        "2115": 124,
        "2116": 110,
        "2117": 51,
        "2118": 120,
        "2119": 197,
        "2120": 185,
        "2121": 179,
        "2122": 101,
        "2123": 3,
        "2124": 242,
        "2125": 14,
        "2126": 70,
        "2127": 242,
        "2128": 130,
        "2129": 82,
        "2130": 98,
        "2131": 95,
        "2132": 128,
        "2133": 224,
        "2134": 102,
        "2135": 48,
        "2136": 150,
        "2137": 193,
        "2138": 35,
        "2139": 226,
        "2140": 81,
        "2141": 98,
        "2142": 100,
        "2143": 42,
        "2144": 30,
        "2145": 191,
        "2146": 246,
        "2147": 218,
        "2148": 98,
        "2149": 82,
        "2150": 206,
        "2151": 180,
        "2152": 39,
        "2153": 39,
        "2154": 221,
        "2155": 13,
        "2156": 4,
        "2157": 119,
        "2158": 212,
        "2159": 168,
        "2160": 53,
        "2161": 96,
        "2162": 186,
        "2163": 160,
        "2164": 26,
        "2165": 125,
        "2166": 35,
        "2167": 148,
        "2168": 32,
        "2169": 247,
        "2170": 49,
        "2171": 135,
        "2172": 42,
        "2173": 33,
        "2174": 55,
        "2175": 48,
        "2176": 222,
        "2177": 199,
        "2178": 245,
        "2179": 21,
        "2180": 29,
        "2181": 203,
        "2182": 133,
        "2183": 228,
        "2184": 187,
        "2185": 99,
        "2186": 40,
        "2187": 152,
        "2188": 166,
        "2189": 174,
        "2190": 180,
        "2191": 179,
        "2192": 194,
        "2193": 147,
        "2194": 144,
        "2195": 52,
        "2196": 53,
        "2197": 30,
        "2198": 96,
        "2199": 148,
        "2200": 169,
        "2201": 239,
        "2202": 142,
        "2203": 31,
        "2204": 37,
        "2205": 156,
        "2206": 120,
        "2207": 219,
        "2208": 169,
        "2209": 229,
        "2210": 236,
        "2211": 156,
        "2212": 20,
        "2213": 244,
        "2214": 51,
        "2215": 104,
        "2216": 253,
        "2217": 34,
        "2218": 7,
        "2219": 226,
        "2220": 245,
        "2221": 122,
        "2222": 142,
        "2223": 201,
        "2224": 23,
        "2225": 72,
        "2226": 44,
        "2227": 169,
        "2228": 165,
        "2229": 31,
        "2230": 80,
        "2231": 231,
        "2232": 41,
        "2233": 213,
        "2234": 225,
        "2235": 118,
        "2236": 112,
        "2237": 180,
        "2238": 169,
        "2239": 143,
        "2240": 72,
        "2241": 148,
        "2242": 28,
        "2243": 98,
        "2244": 63,
        "2245": 54,
        "2246": 131,
        "2247": 202,
        "2248": 29,
        "2249": 222,
        "2250": 96,
        "2251": 93,
        "2252": 45,
        "2253": 154,
        "2254": 161,
        "2255": 209,
        "2256": 143,
        "2257": 125,
        "2258": 115,
        "2259": 94,
        "2260": 69,
        "2261": 134,
        "2262": 197,
        "2263": 1,
        "2264": 116,
        "2265": 1,
        "2266": 66,
        "2267": 134,
        "2268": 202,
        "2269": 93,
        "2270": 157,
        "2271": 112,
        "2272": 155,
        "2273": 60,
        "2274": 73,
        "2275": 80,
        "2276": 119,
        "2277": 56,
        "2278": 237,
        "2279": 1,
        "2280": 251,
        "2281": 96,
        "2282": 134,
        "2283": 121,
        "2284": 38,
        "2285": 31,
        "2286": 172,
        "2287": 173,
        "2288": 155,
        "2289": 120,
        "2290": 207,
        "2291": 201,
        "2292": 107,
        "2293": 172,
        "2294": 14,
        "2295": 203,
        "2296": 77,
        "2297": 37,
        "2298": 116,
        "2299": 254,
        "2300": 11,
        "2301": 106,
        "2302": 243,
        "2303": 169,
        "2304": 126,
        "2305": 206,
        "2306": 195,
        "2307": 208,
        "2308": 21,
        "2309": 70,
        "2310": 83,
        "2311": 100,
        "2312": 55,
        "2313": 174,
        "2314": 1,
        "2315": 57,
        "2316": 47,
        "2317": 28,
        "2318": 198,
        "2319": 24,
        "2320": 5,
        "2321": 54,
        "2322": 229,
        "2323": 65,
        "2324": 234,
        "2325": 60,
        "2326": 55,
        "2327": 101,
        "2328": 94,
        "2329": 231,
        "2330": 26,
        "2331": 218,
        "2332": 242,
        "2333": 239,
        "2334": 74,
        "2335": 3,
        "2336": 149,
        "2337": 167,
        "2338": 223,
        "2339": 201,
        "2340": 216,
        "2341": 175,
        "2342": 42,
        "2343": 244,
        "2344": 179,
        "2345": 217,
        "2346": 168,
        "2347": 189,
        "2348": 23,
        "2349": 138,
        "2350": 205,
        "2351": 27,
        "2352": 1,
        "2353": 169,
        "2354": 45,
        "2355": 188,
        "2356": 95,
        "2357": 61,
        "2358": 3,
        "2359": 5,
        "2360": 119,
        "2361": 66,
        "2362": 193,
        "2363": 231,
        "2364": 126,
        "2365": 235,
        "2366": 150,
        "2367": 174,
        "2368": 136,
        "2369": 130,
        "2370": 232,
        "2371": 4,
        "2372": 142,
        "2373": 68,
        "2374": 255,
        "2375": 109,
        "2376": 174,
        "2377": 121,
        "2378": 241,
        "2379": 35,
        "2380": 43,
        "2381": 125,
        "2382": 165,
        "2383": 254,
        "2384": 10,
        "2385": 115,
        "2386": 18,
        "2387": 245,
        "2388": 25,
        "2389": 102,
        "2390": 221,
        "2391": 94,
        "2392": 15,
        "2393": 72,
        "2394": 66,
        "2395": 224,
        "2396": 195,
        "2397": 75,
        "2398": 74,
        "2399": 62,
        "2400": 50,
        "2401": 184,
        "2402": 131,
        "2403": 111,
        "2404": 254,
        "2405": 52,
        "2406": 153,
        "2407": 186,
        "2408": 203,
        "2409": 31,
        "2410": 41,
        "2411": 123,
        "2412": 34,
        "2413": 217,
        "2414": 245,
        "2415": 95,
        "2416": 40,
        "2417": 46,
        "2418": 152,
        "2419": 50,
        "2420": 145,
        "2421": 34,
        "2422": 99,
        "2423": 58,
        "2424": 7,
        "2425": 176,
        "2426": 168,
        "2427": 201,
        "2428": 143,
        "2429": 250,
        "2430": 96,
        "2431": 92,
        "2432": 248,
        "2433": 114,
        "2434": 144,
        "2435": 1,
        "2436": 140,
        "2437": 201,
        "2438": 252,
        "2439": 122,
        "2440": 52,
        "2441": 34,
        "2442": 229,
        "2443": 232,
        "2444": 0,
        "2445": 23,
        "2446": 91,
        "2447": 182,
        "2448": 163,
        "2449": 32,
        "2450": 240,
        "2451": 234,
        "2452": 15,
        "2453": 92,
        "2454": 63,
        "2455": 28,
        "2456": 10,
        "2457": 35,
        "2458": 135,
        "2459": 236,
        "2460": 180,
        "2461": 213,
        "2462": 178,
        "2463": 224,
        "2464": 135,
        "2465": 82,
        "2466": 255,
        "2467": 11,
        "2468": 7,
        "2469": 161,
        "2470": 174,
        "2471": 30,
        "2472": 10,
        "2473": 174,
        "2474": 198,
        "2475": 252,
        "2476": 249,
        "2477": 157,
        "2478": 140,
        "2479": 113,
        "2480": 242,
        "2481": 121,
        "2482": 179,
        "2483": 218,
        "2484": 250,
        "2485": 116,
        "2486": 19,
        "2487": 219,
        "2488": 122,
        "2489": 100,
        "2490": 203,
        "2491": 214,
        "2492": 7,
        "2493": 104,
        "2494": 11,
        "2495": 203,
        "2496": 154,
        "2497": 134,
        "2498": 41,
        "2499": 109,
        "2500": 44,
        "2501": 35,
        "2502": 225,
        "2503": 97,
        "2504": 83,
        "2505": 69,
        "2506": 182,
        "2507": 39,
        "2508": 112,
        "2509": 122,
        "2510": 212,
        "2511": 42,
        "2512": 237,
        "2513": 32,
        "2514": 98,
        "2515": 32,
        "2516": 25,
        "2517": 205,
        "2518": 24,
        "2519": 245,
        "2520": 175,
        "2521": 63,
        "2522": 56,
        "2523": 223,
        "2524": 244,
        "2525": 51,
        "2526": 78,
        "2527": 192,
        "2528": 235,
        "2529": 129,
        "2530": 103,
        "2531": 60,
        "2532": 156,
        "2533": 41,
        "2534": 231,
        "2535": 31,
        "2536": 66,
        "2537": 62,
        "2538": 33,
        "2539": 163,
        "2540": 38,
        "2541": 76,
        "2542": 207,
        "2543": 239,
        "2544": 92,
        "2545": 161,
        "2546": 181,
        "2547": 109,
        "2548": 192,
        "2549": 53,
        "2550": 167,
        "2551": 84,
        "2552": 37,
        "2553": 242,
        "2554": 176,
        "2555": 156,
        "2556": 67,
        "2557": 38,
        "2558": 60,
        "2559": 86,
        "2560": 53,
        "2561": 222,
        "2562": 0,
        "2563": 191,
        "2564": 120,
        "2565": 15,
        "2566": 29,
        "2567": 237,
        "2568": 174,
        "2569": 71,
        "2570": 141,
        "2571": 237,
        "2572": 171,
        "2573": 99,
        "2574": 242,
        "2575": 251,
        "2576": 99,
        "2577": 236,
        "2578": 216,
        "2579": 164,
        "2580": 248,
        "2581": 113,
        "2582": 111,
        "2583": 104,
        "2584": 44,
        "2585": 95,
        "2586": 45,
        "2587": 20,
        "2588": 220,
        "2589": 87,
        "2590": 16,
        "2591": 136,
        "2592": 253,
        "2593": 82,
        "2594": 147,
        "2595": 120,
        "2596": 220,
        "2597": 212,
        "2598": 125,
        "2599": 198,
        "2600": 7,
        "2601": 216,
        "2602": 22,
        "2603": 44,
        "2604": 71,
        "2605": 82,
        "2606": 170,
        "2607": 149,
        "2608": 1,
        "2609": 185,
        "2610": 169,
        "2611": 30,
        "2612": 212,
        "2613": 98,
        "2614": 129,
        "2615": 36,
        "2616": 79,
        "2617": 172,
        "2618": 53,
        "2619": 250,
        "2620": 4,
        "2621": 225,
        "2622": 120,
        "2623": 50,
        "2624": 133,
        "2625": 42,
        "2626": 80,
        "2627": 138,
        "2628": 219,
        "2629": 251,
        "2630": 213,
        "2631": 76,
        "2632": 101,
        "2633": 4,
        "2634": 248,
        "2635": 41,
        "2636": 36,
        "2637": 141,
        "2638": 32,
        "2639": 93,
        "2640": 68,
        "2641": 205,
        "2642": 25,
        "2643": 113,
        "2644": 62,
        "2645": 99,
        "2646": 124,
        "2647": 22,
        "2648": 157,
        "2649": 221,
        "2650": 206,
        "2651": 178,
        "2652": 29,
        "2653": 145,
        "2654": 71,
        "2655": 157,
        "2656": 78,
        "2657": 14,
        "2658": 199,
        "2659": 39,
        "2660": 161,
        "2661": 159,
        "2662": 239,
        "2663": 130,
        "2664": 235,
        "2665": 104,
        "2666": 227,
        "2667": 134,
        "2668": 186,
        "2669": 202,
        "2670": 175,
        "2671": 21,
        "2672": 215,
        "2673": 111,
        "2674": 176,
        "2675": 105,
        "2676": 251,
        "2677": 84,
        "2678": 76,
        "2679": 121,
        "2680": 155,
        "2681": 190,
        "2682": 7,
        "2683": 164,
        "2684": 95,
        "2685": 145,
        "2686": 174,
        "2687": 220,
        "2688": 184,
        "2689": 10,
        "2690": 74,
        "2691": 204,
        "2692": 56,
        "2693": 166,
        "2694": 182,
        "2695": 245,
        "2696": 55,
        "2697": 175,
        "2698": 122,
        "2699": 233,
        "2700": 177,
        "2701": 129,
        "2702": 177,
        "2703": 88,
        "2704": 98,
        "2705": 181,
        "2706": 146,
        "2707": 166,
        "2708": 116,
        "2709": 153,
        "2710": 243,
        "2711": 222,
        "2712": 89,
        "2713": 71,
        "2714": 30,
        "2715": 162,
        "2716": 253,
        "2717": 23,
        "2718": 172,
        "2719": 58,
        "2720": 200,
        "2721": 32,
        "2722": 171,
        "2723": 230,
        "2724": 132,
        "2725": 8,
        "2726": 166,
        "2727": 50,
        "2728": 158,
        "2729": 138,
        "2730": 62,
        "2731": 232,
        "2732": 215,
        "2733": 131,
        "2734": 14,
        "2735": 49,
        "2736": 85,
        "2737": 188,
        "2738": 252,
        "2739": 123,
        "2740": 107,
        "2741": 23,
        "2742": 169,
        "2743": 76,
        "2744": 196,
        "2745": 199,
        "2746": 138,
        "2747": 198,
        "2748": 160,
        "2749": 229,
        "2750": 99,
        "2751": 65,
        "2752": 109,
        "2753": 117,
        "2754": 98,
        "2755": 57,
        "2756": 156,
        "2757": 183,
        "2758": 59,
        "2759": 78,
        "2760": 56,
        "2761": 129,
        "2762": 29,
        "2763": 96,
        "2764": 212,
        "2765": 30,
        "2766": 182,
        "2767": 92,
        "2768": 69,
        "2769": 38,
        "2770": 171,
        "2771": 72,
        "2772": 3,
        "2773": 177,
        "2774": 132,
        "2775": 222,
        "2776": 110,
        "2777": 189,
        "2778": 235,
        "2779": 187,
        "2780": 10,
        "2781": 43,
        "2782": 79,
        "2783": 29,
        "2784": 108,
        "2785": 195,
        "2786": 36,
        "2787": 32,
        "2788": 8,
        "2789": 206,
        "2790": 100,
        "2791": 89,
        "2792": 95,
        "2793": 202,
        "2794": 200,
        "2795": 13,
        "2796": 227,
        "2797": 89,
        "2798": 166,
        "2799": 122,
        "2800": 211,
        "2801": 238,
        "2802": 115,
        "2803": 228,
        "2804": 162,
        "2805": 14,
        "2806": 168,
        "2807": 195,
        "2808": 33,
        "2809": 158,
        "2810": 190,
        "2811": 144,
        "2812": 119,
        "2813": 11,
        "2814": 71,
        "2815": 195,
        "2816": 252,
        "2817": 225,
        "2818": 255,
        "2819": 167,
        "2820": 151,
        "2821": 118,
        "2822": 51,
        "2823": 173,
        "2824": 215,
        "2825": 172,
        "2826": 156,
        "2827": 31,
        "2828": 177,
        "2829": 71,
        "2830": 63,
        "2831": 105,
        "2832": 41,
        "2833": 195,
        "2834": 214,
        "2835": 103,
        "2836": 76,
        "2837": 63,
        "2838": 188,
        "2839": 234,
        "2840": 133,
        "2841": 152,
        "2842": 140,
        "2843": 151,
        "2844": 28,
        "2845": 40,
        "2846": 226,
        "2847": 117,
        "2848": 141,
        "2849": 191,
        "2850": 71,
        "2851": 116,
        "2852": 51,
        "2853": 250,
        "2854": 134,
        "2855": 35,
        "2856": 31,
        "2857": 67,
        "2858": 148,
        "2859": 57,
        "2860": 81,
        "2861": 224,
        "2862": 109,
        "2863": 134,
        "2864": 186,
        "2865": 145,
        "2866": 44,
        "2867": 7,
        "2868": 252,
        "2869": 209,
        "2870": 147,
        "2871": 81,
        "2872": 94,
        "2873": 85,
        "2874": 23,
        "2875": 164,
        "2876": 139,
        "2877": 165,
        "2878": 104,
        "2879": 181,
        "2880": 107,
        "2881": 20,
        "2882": 3,
        "2883": 121,
        "2884": 58,
        "2885": 126,
        "2886": 58,
        "2887": 6,
        "2888": 123,
        "2889": 177,
        "2890": 175,
        "2891": 50,
        "2892": 236,
        "2893": 41,
        "2894": 8,
        "2895": 45,
        "2896": 17,
        "2897": 37,
        "2898": 128,
        "2899": 118,
        "2900": 189,
        "2901": 239,
        "2902": 48,
        "2903": 114,
        "2904": 121,
        "2905": 182,
        "2906": 242,
        "2907": 171,
        "2908": 223,
        "2909": 201,
        "2910": 252,
        "2911": 9,
        "2912": 113,
        "2913": 129,
        "2914": 32,
        "2915": 130,
        "2916": 6,
        "2917": 97,
        "2918": 75,
        "2919": 192,
        "2920": 220,
        "2921": 143,
        "2922": 2,
        "2923": 182,
        "2924": 234,
        "2925": 67,
        "2926": 66,
        "2927": 43,
        "2928": 92,
        "2929": 28,
        "2930": 108,
        "2931": 113,
        "2932": 63,
        "2933": 57,
        "2934": 224,
        "2935": 71,
        "2936": 78,
        "2937": 143,
        "2938": 141,
        "2939": 103,
        "2940": 28,
        "2941": 34,
        "2942": 56,
        "2943": 84,
        "2944": 9,
        "2945": 88,
        "2946": 101,
        "2947": 236,
        "2948": 5,
        "2949": 197,
        "2950": 118,
        "2951": 87,
        "2952": 177,
        "2953": 98,
        "2954": 58,
        "2955": 243,
        "2956": 81,
        "2957": 187,
        "2958": 30,
        "2959": 17,
        "2960": 90,
        "2961": 132,
        "2962": 146,
        "2963": 74,
        "2964": 7,
        "2965": 92,
        "2966": 226,
        "2967": 241,
        "2968": 163,
        "2969": 149,
        "2970": 39,
        "2971": 51,
        "2972": 173,
        "2973": 137,
        "2974": 166,
        "2975": 199,
        "2976": 112,
        "2977": 79,
        "2978": 155,
        "2979": 213,
        "2980": 225,
        "2981": 18,
        "2982": 128,
        "2983": 187,
        "2984": 173,
        "2985": 66,
        "2986": 29,
        "2987": 135,
        "2988": 103,
        "2989": 194,
        "2990": 18,
        "2991": 178,
        "2992": 183,
        "2993": 248,
        "2994": 10,
        "2995": 193,
        "2996": 7,
        "2997": 180,
        "2998": 115,
        "2999": 68,
        "3000": 191,
        "3001": 65,
        "3002": 228,
        "3003": 47,
        "3004": 171,
        "3005": 24,
        "3006": 104,
        "3007": 153,
        "3008": 217,
        "3009": 203,
        "3010": 2,
        "3011": 142,
        "3012": 82,
        "3013": 63,
        "3014": 183,
        "3015": 230,
        "3016": 62,
        "3017": 0,
        "3018": 20,
        "3019": 69,
        "3020": 36,
        "3021": 125,
        "3022": 90,
        "3023": 138,
        "3024": 132,
        "3025": 189,
        "3026": 95,
        "3027": 40,
        "3028": 245,
        "3029": 128,
        "3030": 102,
        "3031": 55,
        "3032": 186,
        "3033": 208,
        "3034": 209,
        "3035": 200,
        "3036": 213,
        "3037": 52,
        "3038": 154,
        "3039": 174,
        "3040": 199,
        "3041": 19,
        "3042": 110,
        "3043": 77,
        "3044": 164,
        "3045": 211,
        "3046": 141,
        "3047": 76,
        "3048": 204,
        "3049": 246,
        "3050": 118,
        "3051": 216,
        "3052": 15,
        "3053": 44,
        "3054": 247,
        "3055": 26,
        "3056": 45,
        "3057": 195,
        "3058": 212,
        "3059": 188,
        "3060": 50,
        "3061": 7,
        "3062": 231,
        "3063": 80,
        "3064": 204,
        "3065": 1,
        "3066": 71,
        "3067": 13,
        "3068": 139,
        "3069": 192,
        "3070": 248,
        "3071": 226,
        "3072": 164,
        "3073": 182,
        "3074": 83,
        "3075": 124,
        "3076": 252,
        "3077": 10,
        "3078": 177,
        "3079": 48,
        "3080": 114,
        "3081": 9,
        "3082": 231,
        "3083": 11,
        "3084": 146,
        "3085": 227,
        "3086": 19,
        "3087": 248,
        "3088": 51,
        "3089": 23,
        "3090": 55,
        "3091": 209,
        "3092": 173,
        "3093": 89,
        "3094": 93,
        "3095": 63,
        "3096": 54,
        "3097": 59,
        "3098": 165,
        "3099": 114,
        "3100": 152,
        "3101": 146,
        "3102": 188,
        "3103": 186,
        "3104": 96,
        "3105": 43,
        "3106": 81,
        "3107": 19,
        "3108": 41,
        "3109": 7,
        "3110": 211,
        "3111": 173,
        "3112": 148,
        "3113": 187,
        "3114": 208,
        "3115": 207,
        "3116": 253,
        "3117": 47,
        "3118": 76,
        "3119": 208,
        "3120": 29,
        "3121": 35,
        "3122": 150,
        "3123": 27,
        "3124": 215,
        "3125": 161,
        "3126": 127,
        "3127": 248,
        "3128": 97,
        "3129": 128,
        "3130": 213,
        "3131": 55,
        "3132": 167,
        "3133": 41,
        "3134": 170,
        "3135": 175,
        "3136": 158,
        "3137": 40,
        "3138": 123,
        "3139": 246,
        "3140": 162,
        "3141": 232,
        "3142": 219,
        "3143": 155,
        "3144": 52,
        "3145": 116,
        "3146": 35,
        "3147": 211,
        "3148": 87,
        "3149": 64,
        "3150": 181,
        "3151": 208,
        "3152": 189,
        "3153": 194,
        "3154": 4,
        "3155": 68,
        "3156": 45,
        "3157": 85,
        "3158": 194,
        "3159": 36,
        "3160": 161,
        "3161": 159,
        "3162": 85,
        "3163": 96,
        "3164": 128,
        "3165": 48,
        "3166": 51,
        "3167": 179,
        "3168": 190,
        "3169": 151,
        "3170": 166,
        "3171": 196,
        "3172": 157,
        "3173": 140,
        "3174": 48,
        "3175": 214,
        "3176": 94,
        "3177": 74,
        "3178": 5,
        "3179": 247,
        "3180": 74,
        "3181": 46,
        "3182": 88,
        "3183": 28,
        "3184": 190,
        "3185": 92,
        "3186": 209,
        "3187": 25,
        "3188": 173,
        "3189": 217,
        "3190": 112,
        "3191": 145,
        "3192": 186,
        "3193": 7,
        "3194": 101,
        "3195": 238,
        "3196": 252,
        "3197": 206,
        "3198": 21,
        "3199": 76,
        "3200": 117,
        "3201": 201,
        "3202": 108,
        "3203": 48,
        "3204": 191,
        "3205": 205,
        "3206": 12,
        "3207": 0,
        "3208": 23,
        "3209": 12,
        "3210": 233,
        "3211": 195,
        "3212": 109,
        "3213": 47,
        "3214": 5,
        "3215": 141,
        "3216": 20,
        "3217": 126,
        "3218": 215,
        "3219": 160,
        "3220": 73,
        "3221": 68,
        "3222": 20,
        "3223": 74,
        "3224": 50,
        "3225": 219,
        "3226": 147,
        "3227": 154,
        "3228": 56,
        "3229": 214,
        "3230": 99,
        "3231": 136,
        "3232": 235,
        "3233": 174,
        "3234": 35,
        "3235": 203,
        "3236": 62,
        "3237": 192,
        "3238": 177,
        "3239": 145,
        "3240": 23,
        "3241": 40,
        "3242": 215,
        "3243": 5,
        "3244": 226,
        "3245": 16,
        "3246": 144,
        "3247": 139,
        "3248": 53,
        "3249": 152,
        "3250": 135,
        "3251": 174,
        "3252": 236,
        "3253": 184,
        "3254": 94,
        "3255": 23,
        "3256": 27,
        "3257": 114,
        "3258": 252,
        "3259": 11,
        "3260": 113,
        "3261": 204,
        "3262": 154,
        "3263": 172,
        "3264": 164,
        "3265": 250,
        "3266": 23,
        "3267": 9,
        "3268": 154,
        "3269": 25,
        "3270": 51,
        "3271": 96,
        "3272": 152,
        "3273": 66,
        "3274": 56,
        "3275": 3,
        "3276": 8,
        "3277": 82,
        "3278": 51,
        "3279": 81,
        "3280": 188,
        "3281": 42,
        "3282": 103,
        "3283": 247,
        "3284": 3,
        "3285": 2,
        "3286": 75,
        "3287": 110,
        "3288": 183,
        "3289": 124,
        "3290": 146,
        "3291": 71,
        "3292": 124,
        "3293": 216,
        "3294": 153,
        "3295": 87,
        "3296": 95,
        "3297": 36,
        "3298": 182,
        "3299": 144,
        "3300": 62,
        "3301": 97,
        "3302": 241,
        "3303": 153,
        "3304": 42,
        "3305": 106,
        "3306": 195,
        "3307": 192,
        "3308": 117,
        "3309": 154,
        "3310": 225,
        "3311": 183,
        "3312": 253,
        "3313": 137,
        "3314": 185,
        "3315": 171,
        "3316": 220,
        "3317": 132,
        "3318": 63,
        "3319": 70,
        "3320": 14,
        "3321": 33,
        "3322": 83,
        "3323": 162,
        "3324": 189,
        "3325": 250,
        "3326": 139,
        "3327": 93,
        "3328": 251,
        "3329": 138,
        "3330": 161,
        "3331": 247,
        "3332": 21,
        "3333": 141,
        "3334": 171,
        "3335": 29,
        "3336": 97,
        "3337": 221,
        "3338": 184,
        "3339": 21,
        "3340": 58,
        "3341": 94,
        "3342": 99,
        "3343": 37,
        "3344": 129,
        "3345": 90,
        "3346": 138,
        "3347": 88,
        "3348": 72,
        "3349": 158,
        "3350": 35,
        "3351": 199,
        "3352": 192,
        "3353": 67,
        "3354": 239,
        "3355": 192,
        "3356": 37,
        "3357": 59,
        "3358": 97,
        "3359": 77,
        "3360": 253,
        "3361": 221,
        "3362": 237,
        "3363": 238,
        "3364": 138,
        "3365": 116,
        "3366": 160,
        "3367": 44,
        "3368": 119,
        "3369": 129,
        "3370": 79,
        "3371": 135,
        "3372": 114,
        "3373": 7,
        "3374": 160,
        "3375": 48,
        "3376": 204,
        "3377": 120,
        "3378": 34,
        "3379": 0,
        "3380": 131,
        "3381": 110,
        "3382": 201,
        "3383": 45,
        "3384": 44,
        "3385": 34,
        "3386": 240,
        "3387": 172,
        "3388": 140,
        "3389": 2,
        "3390": 201,
        "3391": 182,
        "3392": 243,
        "3393": 15,
        "3394": 188,
        "3395": 124,
        "3396": 91,
        "3397": 254,
        "3398": 51,
        "3399": 45,
        "3400": 25,
        "3401": 122,
        "3402": 74,
        "3403": 84,
        "3404": 4,
        "3405": 146,
        "3406": 69,
        "3407": 16,
        "3408": 137,
        "3409": 50,
        "3410": 235,
        "3411": 56,
        "3412": 103,
        "3413": 31,
        "3414": 218,
        "3415": 206,
        "3416": 225,
        "3417": 64,
        "3418": 221,
        "3419": 40,
        "3420": 217,
        "3421": 100,
        "3422": 179,
        "3423": 200,
        "3424": 64,
        "3425": 233,
        "3426": 246,
        "3427": 22,
        "3428": 227,
        "3429": 0,
        "3430": 144,
        "3431": 240,
        "3432": 177,
        "3433": 116,
        "3434": 198,
        "3435": 97,
        "3436": 203,
        "3437": 55,
        "3438": 102,
        "3439": 176,
        "3440": 91,
        "3441": 177,
        "3442": 121,
        "3443": 61,
        "3444": 113,
        "3445": 187,
        "3446": 49,
        "3447": 74,
        "3448": 190,
        "3449": 191,
        "3450": 233,
        "3451": 64,
        "3452": 250,
        "3453": 11,
        "3454": 86,
        "3455": 109,
        "3456": 144,
        "3457": 68,
        "3458": 115,
        "3459": 84,
        "3460": 237,
        "3461": 72,
        "3462": 134,
        "3463": 29,
        "3464": 57,
        "3465": 222,
        "3466": 246,
        "3467": 77,
        "3468": 25,
        "3469": 95,
        "3470": 187,
        "3471": 236,
        "3472": 160,
        "3473": 80,
        "3474": 103,
        "3475": 195,
        "3476": 161,
        "3477": 140,
        "3478": 156,
        "3479": 232,
        "3480": 210,
        "3481": 220,
        "3482": 119,
        "3483": 172,
        "3484": 195,
        "3485": 208,
        "3486": 212,
        "3487": 35,
        "3488": 232,
        "3489": 136,
        "3490": 192,
        "3491": 255,
        "3492": 109,
        "3493": 52,
        "3494": 69,
        "3495": 225,
        "3496": 12,
        "3497": 253,
        "3498": 148,
        "3499": 100,
        "3500": 251,
        "3501": 236,
        "3502": 251,
        "3503": 229,
        "3504": 199,
        "3505": 37,
        "3506": 86,
        "3507": 233,
        "3508": 237,
        "3509": 243,
        "3510": 195,
        "3511": 23,
        "3512": 225,
        "3513": 113,
        "3514": 84,
        "3515": 239,
        "3516": 48,
        "3517": 219,
        "3518": 40,
        "3519": 36,
        "3520": 172,
        "3521": 174,
        "3522": 107,
        "3523": 48,
        "3524": 75,
        "3525": 193,
        "3526": 210,
        "3527": 220,
        "3528": 102,
        "3529": 172,
        "3530": 82,
        "3531": 226,
        "3532": 7,
        "3533": 188,
        "3534": 172,
        "3535": 40,
        "3536": 21,
        "3537": 179,
        "3538": 100,
        "3539": 43,
        "3540": 65,
        "3541": 151,
        "3542": 196,
        "3543": 150,
        "3544": 252,
        "3545": 164,
        "3546": 213,
        "3547": 150,
        "3548": 164,
        "3549": 91,
        "3550": 178,
        "3551": 58,
        "3552": 139,
        "3553": 15,
        "3554": 157,
        "3555": 49,
        "3556": 65,
        "3557": 251,
        "3558": 61,
        "3559": 141,
        "3560": 2,
        "3561": 84,
        "3562": 175,
        "3563": 4,
        "3564": 185,
        "3565": 29,
        "3566": 144,
        "3567": 165,
        "3568": 94,
        "3569": 45,
        "3570": 11,
        "3571": 174,
        "3572": 193,
        "3573": 179,
        "3574": 164,
        "3575": 208,
        "3576": 121,
        "3577": 118,
        "3578": 216,
        "3579": 158,
        "3580": 81,
        "3581": 46,
        "3582": 45,
        "3583": 120,
        "3584": 123,
        "3585": 192,
        "3586": 100,
        "3587": 7,
        "3588": 217,
        "3589": 138,
        "3590": 20,
        "3591": 164,
        "3592": 57,
        "3593": 74,
        "3594": 117,
        "3595": 147,
        "3596": 144,
        "3597": 215,
        "3598": 173,
        "3599": 223,
        "3600": 108,
        "3601": 36,
        "3602": 98,
        "3603": 228,
        "3604": 109,
        "3605": 64,
        "3606": 130,
        "3607": 89,
        "3608": 30,
        "3609": 220,
        "3610": 15,
        "3611": 3,
        "3612": 160,
        "3613": 202,
        "3614": 133,
        "3615": 68,
        "3616": 1,
        "3617": 126,
        "3618": 105,
        "3619": 96,
        "3620": 165,
        "3621": 210,
        "3622": 64,
        "3623": 250,
        "3624": 18,
        "3625": 35,
        "3626": 218,
        "3627": 117,
        "3628": 41,
        "3629": 134,
        "3630": 103,
        "3631": 244,
        "3632": 101,
        "3633": 221,
        "3634": 134,
        "3635": 168,
        "3636": 74,
        "3637": 253,
        "3638": 26,
        "3639": 16,
        "3640": 133,
        "3641": 61,
        "3642": 125,
        "3643": 239,
        "3644": 244,
        "3645": 171,
        "3646": 120,
        "3647": 36,
        "3648": 230,
        "3649": 207,
        "3650": 150,
        "3651": 235,
        "3652": 66,
        "3653": 29,
        "3654": 218,
        "3655": 154,
        "3656": 162,
        "3657": 251,
        "3658": 166,
        "3659": 241,
        "3660": 207,
        "3661": 167,
        "3662": 37,
        "3663": 13,
        "3664": 46,
        "3665": 98,
        "3666": 225,
        "3667": 83,
        "3668": 178,
        "3669": 21,
        "3670": 176,
        "3671": 179,
        "3672": 49,
        "3673": 81,
        "3674": 17,
        "3675": 115,
        "3676": 245,
        "3677": 38,
        "3678": 13,
        "3679": 162,
        "3680": 64,
        "3681": 41,
        "3682": 252,
        "3683": 15,
        "3684": 202,
        "3685": 188,
        "3686": 29,
        "3687": 147,
        "3688": 38,
        "3689": 44,
        "3690": 183,
        "3691": 174,
        "3692": 229,
        "3693": 120,
        "3694": 151,
        "3695": 116,
        "3696": 232,
        "3697": 199,
        "3698": 184,
        "3699": 220,
        "3700": 145,
        "3701": 21,
        "3702": 223,
        "3703": 64,
        "3704": 51,
        "3705": 40,
        "3706": 235,
        "3707": 8,
        "3708": 219,
        "3709": 175,
        "3710": 15,
        "3711": 224,
        "3712": 204,
        "3713": 87,
        "3714": 164,
        "3715": 97,
        "3716": 226,
        "3717": 249,
        "3718": 135,
        "3719": 29,
        "3720": 96,
        "3721": 110,
        "3722": 49,
        "3723": 123,
        "3724": 116,
        "3725": 247,
        "3726": 232,
        "3727": 67,
        "3728": 144,
        "3729": 194,
        "3730": 94,
        "3731": 40,
        "3732": 211,
        "3733": 189,
        "3734": 151,
        "3735": 86,
        "3736": 82,
        "3737": 205,
        "3738": 21,
        "3739": 251,
        "3740": 221,
        "3741": 0,
        "3742": 238,
        "3743": 192,
        "3744": 52,
        "3745": 237,
        "3746": 85,
        "3747": 187,
        "3748": 86,
        "3749": 68,
        "3750": 46,
        "3751": 180,
        "3752": 133,
        "3753": 105,
        "3754": 111,
        "3755": 55,
        "3756": 221,
        "3757": 232,
        "3758": 60,
        "3759": 51,
        "3760": 250,
        "3761": 127,
        "3762": 166,
        "3763": 182,
        "3764": 143,
        "3765": 200,
        "3766": 143,
        "3767": 247,
        "3768": 18,
        "3769": 205,
        "3770": 211,
        "3771": 2,
        "3772": 216,
        "3773": 88,
        "3774": 72,
        "3775": 154,
        "3776": 127,
        "3777": 49,
        "3778": 246,
        "3779": 140,
        "3780": 15,
        "3781": 134,
        "3782": 255,
        "3783": 90,
        "3784": 3,
        "3785": 169,
        "3786": 25,
        "3787": 109,
        "3788": 255,
        "3789": 48,
        "3790": 151,
        "3791": 164,
        "3792": 118,
        "3793": 30,
        "3794": 233,
        "3795": 58,
        "3796": 11,
        "3797": 252,
        "3798": 17,
        "3799": 201,
        "3800": 186,
        "3801": 135,
        "3802": 133,
        "3803": 82,
        "3804": 227,
        "3805": 180,
        "3806": 208,
        "3807": 101,
        "3808": 199,
        "3809": 147,
        "3810": 51,
        "3811": 40,
        "3812": 86,
        "3813": 146,
        "3814": 69,
        "3815": 118,
        "3816": 23,
        "3817": 162,
        "3818": 187,
        "3819": 14,
        "3820": 50,
        "3821": 82,
        "3822": 24,
        "3823": 99,
        "3824": 227,
        "3825": 82,
        "3826": 67,
        "3827": 246,
        "3828": 119,
        "3829": 124,
        "3830": 71,
        "3831": 213,
        "3832": 32,
        "3833": 63,
        "3834": 114,
        "3835": 160,
        "3836": 110,
        "3837": 190,
        "3838": 139,
        "3839": 13,
        "3840": 164,
        "3841": 232,
        "3842": 200,
        "3843": 60,
        "3844": 246,
        "3845": 51,
        "3846": 56,
        "3847": 155,
        "3848": 187,
        "3849": 78,
        "3850": 187,
        "3851": 17,
        "3852": 230,
        "3853": 101,
        "3854": 42,
        "3855": 80,
        "3856": 226,
        "3857": 223,
        "3858": 255,
        "3859": 17,
        "3860": 117,
        "3861": 193,
        "3862": 143,
        "3863": 140,
        "3864": 93,
        "3865": 83,
        "3866": 82,
        "3867": 52,
        "3868": 104,
        "3869": 2,
        "3870": 213,
        "3871": 8,
        "3872": 186,
        "3873": 251,
        "3874": 108,
        "3875": 208,
        "3876": 90,
        "3877": 247,
        "3878": 221,
        "3879": 233,
        "3880": 59,
        "3881": 11,
        "3882": 185,
        "3883": 62,
        "3884": 205,
        "3885": 11,
        "3886": 236,
        "3887": 136,
        "3888": 218,
        "3889": 188,
        "3890": 30,
        "3891": 166,
        "3892": 191,
        "3893": 204,
        "3894": 221,
        "3895": 155,
        "3896": 247,
        "3897": 192,
        "3898": 194,
        "3899": 250,
        "3900": 233,
        "3901": 119,
        "3902": 41,
        "3903": 221,
        "3904": 100,
        "3905": 244,
        "3906": 32,
        "3907": 40,
        "3908": 204,
        "3909": 45,
        "3910": 64,
        "3911": 96,
        "3912": 23,
        "3913": 145,
        "3914": 180,
        "3915": 49,
        "3916": 12,
        "3917": 115,
        "3918": 152,
        "3919": 8,
        "3920": 185,
        "3921": 30,
        "3922": 143,
        "3923": 193,
        "3924": 134,
        "3925": 117,
        "3926": 105,
        "3927": 62,
        "3928": 244,
        "3929": 82,
        "3930": 164,
        "3931": 251,
        "3932": 10,
        "3933": 167,
        "3934": 234,
        "3935": 126,
        "3936": 109,
        "3937": 116,
        "3938": 139,
        "3939": 41,
        "3940": 70,
        "3941": 101,
        "3942": 149,
        "3943": 204,
        "3944": 153,
        "3945": 75,
        "3946": 22,
        "3947": 130,
        "3948": 169,
        "3949": 77,
        "3950": 211,
        "3951": 178,
        "3952": 76,
        "3953": 163,
        "3954": 243,
        "3955": 45,
        "3956": 15,
        "3957": 160,
        "3958": 175,
        "3959": 99,
        "3960": 197,
        "3961": 232,
        "3962": 238,
        "3963": 63,
        "3964": 18,
        "3965": 11,
        "3966": 101,
        "3967": 111,
        "3968": 231,
        "3969": 46,
        "3970": 58,
        "3971": 5,
        "3972": 35,
        "3973": 83,
        "3974": 160,
        "3975": 44,
        "3976": 206,
        "3977": 159,
        "3978": 16,
        "3979": 146,
        "3980": 27,
        "3981": 171,
        "3982": 226,
        "3983": 32,
        "3984": 39,
        "3985": 61,
        "3986": 200,
        "3987": 116,
        "3988": 230,
        "3989": 224,
        "3990": 169,
        "3991": 234,
        "3992": 54,
        "3993": 219,
        "3994": 253,
        "3995": 186,
        "3996": 11,
        "3997": 172,
        "3998": 248,
        "3999": 101,
        "4000": 116,
        "4001": 192,
        "4002": 138,
        "4003": 135,
        "4004": 42,
        "4005": 232,
        "4006": 8,
        "4007": 61,
        "4008": 113,
        "4009": 88,
        "4010": 86,
        "4011": 240,
        "4012": 54,
        "4013": 159,
        "4014": 223,
        "4015": 108,
        "4016": 0,
        "4017": 133,
        "4018": 184,
        "4019": 173,
        "4020": 49,
        "4021": 30,
        "4022": 107,
        "4023": 55,
        "4024": 134,
        "4025": 74,
        "4026": 161,
        "4027": 220,
        "4028": 38,
        "4029": 74,
        "4030": 160,
        "4031": 33,
        "4032": 36,
        "4033": 201,
        "4034": 100,
        "4035": 17,
        "4036": 235,
        "4037": 248,
        "4038": 179,
        "4039": 69,
        "4040": 148,
        "4041": 239,
        "4042": 39,
        "4043": 192,
        "4044": 156,
        "4045": 84,
        "4046": 155,
        "4047": 68,
        "4048": 129,
        "4049": 96,
        "4050": 155,
        "4051": 174,
        "4052": 195,
        "4053": 139,
        "4054": 150,
        "4055": 194,
        "4056": 8,
        "4057": 54,
        "4058": 134,
        "4059": 217,
        "4060": 43,
        "4061": 47,
        "4062": 122,
        "4063": 73,
        "4064": 186,
        "4065": 88,
        "4066": 179,
        "4067": 202,
        "4068": 171,
        "4069": 74,
        "4070": 95,
        "4071": 68,
        "4072": 164,
        "4073": 172,
        "4074": 98,
        "4075": 52,
        "4076": 59,
        "4077": 48,
        "4078": 216,
        "4079": 207,
        "4080": 169,
        "4081": 65,
        "4082": 218,
        "4083": 5,
        "4084": 174,
        "4085": 122,
        "4086": 198,
        "4087": 208,
        "4088": 132,
        "4089": 144,
        "4090": 203,
        "4091": 23,
        "4092": 69,
        "4093": 134,
        "4094": 152,
        "4095": 121,
        "4096": 203,
        "4097": 23,
        "4098": 101,
        "4099": 142,
        "4100": 189,
        "4101": 186,
        "4102": 52,
        "4103": 93,
        "4104": 18,
        "4105": 161,
        "4106": 235,
        "4107": 236,
        "4108": 159,
        "4109": 25,
        "4110": 208,
        "4111": 233,
        "4112": 120,
        "4113": 100,
        "4114": 29,
        "4115": 18,
        "4116": 22,
        "4117": 41,
        "4118": 35,
        "4119": 247,
        "4120": 156,
        "4121": 203,
        "4122": 57,
        "4123": 134,
        "4124": 242,
        "4125": 174,
        "4126": 255,
        "4127": 104,
        "4128": 141,
        "4129": 236,
        "4130": 28,
        "4131": 27,
        "4132": 69,
        "4133": 140,
        "4134": 207,
        "4135": 212,
        "4136": 243,
        "4137": 121,
        "4138": 244,
        "4139": 143,
        "4140": 159,
        "4141": 205,
        "4142": 245,
        "4143": 191,
        "4144": 141,
        "4145": 39,
        "4146": 159,
        "4147": 219,
        "4148": 114,
        "4149": 147,
        "4150": 159,
        "4151": 109,
        "4152": 252,
        "4153": 132,
        "4154": 78,
        "4155": 202,
        "4156": 85,
        "4157": 235,
        "4158": 167,
        "4159": 162,
        "4160": 237,
        "4161": 5,
        "4162": 68,
        "4163": 239,
        "4164": 211,
        "4165": 102,
        "4166": 246,
        "4167": 124,
        "4168": 29,
        "4169": 98,
        "4170": 192,
        "4171": 110,
        "4172": 243,
        "4173": 32,
        "4174": 128,
        "4175": 39,
        "4176": 224,
        "4177": 164,
        "4178": 158,
        "4179": 60,
        "4180": 66,
        "4181": 44,
        "4182": 152,
        "4183": 89,
        "4184": 57,
        "4185": 172,
        "4186": 246,
        "4187": 89,
        "4188": 48,
        "4189": 42,
        "4190": 121,
        "4191": 67,
        "4192": 36,
        "4193": 35,
        "4194": 236,
        "4195": 79,
        "4196": 184,
        "4197": 123,
        "4198": 17,
        "4199": 110,
        "4200": 99,
        "4201": 116,
        "4202": 123,
        "4203": 10,
        "4204": 234,
        "4205": 35,
        "4206": 171,
        "4207": 66,
        "4208": 29,
        "4209": 144,
        "4210": 178,
        "4211": 241,
        "4212": 156,
        "4213": 251,
        "4214": 135,
        "4215": 49,
        "4216": 25,
        "4217": 208,
        "4218": 134,
        "4219": 236,
        "4220": 236,
        "4221": 134,
        "4222": 154,
        "4223": 251,
        "4224": 171,
        "4225": 251,
        "4226": 7,
        "4227": 218,
        "4228": 39,
        "4229": 75,
        "4230": 249,
        "4231": 214,
        "4232": 65,
        "4233": 141,
        "4234": 174,
        "4235": 53,
        "4236": 141,
        "4237": 173,
        "4238": 236,
        "4239": 210,
        "4240": 238,
        "4241": 154,
        "4242": 146,
        "4243": 169,
        "4244": 195,
        "4245": 39,
        "4246": 167,
        "4247": 190,
        "4248": 23,
        "4249": 20,
        "4250": 111,
        "4251": 130,
        "4252": 197,
        "4253": 255,
        "4254": 75,
        "4255": 185,
        "4256": 55,
        "4257": 84,
        "4258": 251,
        "4259": 242,
        "4260": 174,
        "4261": 214,
        "4262": 124,
        "4263": 15,
        "4264": 74,
        "4265": 171,
        "4266": 100,
        "4267": 146,
        "4268": 65,
        "4269": 124,
        "4270": 112,
        "4271": 243,
        "4272": 189,
        "4273": 75,
        "4274": 148,
        "4275": 97,
        "4276": 165,
        "4277": 31,
        "4278": 79,
        "4279": 21,
        "4280": 119,
        "4281": 165,
        "4282": 86,
        "4283": 74,
        "4284": 62,
        "4285": 192,
        "4286": 193,
        "4287": 27,
        "4288": 44,
        "4289": 103,
        "4290": 97,
        "4291": 188,
        "4292": 70,
        "4293": 255,
        "4294": 163,
        "4295": 201,
        "4296": 60,
        "4297": 87,
        "4298": 211,
        "4299": 100,
        "4300": 198,
        "4301": 252,
        "4302": 170,
        "4303": 82,
        "4304": 70,
        "4305": 124,
        "4306": 142,
        "4307": 80,
        "4308": 123,
        "4309": 186,
        "4310": 86,
        "4311": 224,
        "4312": 29,
        "4313": 132,
        "4314": 83,
        "4315": 238,
        "4316": 198,
        "4317": 31,
        "4318": 68,
        "4319": 71,
        "4320": 142,
        "4321": 65,
        "4322": 189,
        "4323": 204,
        "4324": 248,
        "4325": 177,
        "4326": 181,
        "4327": 165,
        "4328": 72,
        "4329": 68,
        "4330": 219,
        "4331": 28,
        "4332": 230,
        "4333": 204,
        "4334": 98,
        "4335": 52,
        "4336": 125,
        "4337": 25,
        "4338": 131,
        "4339": 243,
        "4340": 107,
        "4341": 150,
        "4342": 102,
        "4343": 51,
        "4344": 91,
        "4345": 160,
        "4346": 4,
        "4347": 187,
        "4348": 101,
        "4349": 92,
        "4350": 44,
        "4351": 101,
        "4352": 4,
        "4353": 80,
        "4354": 177,
        "4355": 228,
        "4356": 162,
        "4357": 215,
        "4358": 234,
        "4359": 42,
        "4360": 226,
        "4361": 44,
        "4362": 232,
        "4363": 60,
        "4364": 82,
        "4365": 178,
        "4366": 21,
        "4367": 30,
        "4368": 70,
        "4369": 102,
        "4370": 117,
        "4371": 165,
        "4372": 95,
        "4373": 0,
        "4374": 39,
        "4375": 90,
        "4376": 78,
        "4377": 46,
        "4378": 111,
        "4379": 159,
        "4380": 193,
        "4381": 152,
        "4382": 102,
        "4383": 158,
        "4384": 109,
        "4385": 9,
        "4386": 26,
        "4387": 36,
        "4388": 23,
        "4389": 212,
        "4390": 151,
        "4391": 251,
        "4392": 61,
        "4393": 95,
        "4394": 11,
        "4395": 220,
        "4396": 192,
        "4397": 143,
        "4398": 32,
        "4399": 231,
        "4400": 213,
        "4401": 62,
        "4402": 13,
        "4403": 235,
        "4404": 64,
        "4405": 92,
        "4406": 53,
        "4407": 83,
        "4408": 62,
        "4409": 42,
        "4410": 207,
        "4411": 108,
        "4412": 219,
        "4413": 136,
        "4414": 224,
        "4415": 147,
        "4416": 113,
        "4417": 185,
        "4418": 199,
        "4419": 107,
        "4420": 203,
        "4421": 237,
        "4422": 65,
        "4423": 161,
        "4424": 126,
        "4425": 43,
        "4426": 182,
        "4427": 173,
        "4428": 90,
        "4429": 237,
        "4430": 148,
        "4431": 236,
        "4432": 9,
        "4433": 254,
        "4434": 124,
        "4435": 204,
        "4436": 81,
        "4437": 6,
        "4438": 48,
        "4439": 207,
        "4440": 236,
        "4441": 222,
        "4442": 98,
        "4443": 3,
        "4444": 134,
        "4445": 189,
        "4446": 7,
        "4447": 231,
        "4448": 207,
        "4449": 109,
        "4450": 164,
        "4451": 119,
        "4452": 67,
        "4453": 28,
        "4454": 87,
        "4455": 175,
        "4456": 129,
        "4457": 215,
        "4458": 24,
        "4459": 196,
        "4460": 65,
        "4461": 185,
        "4462": 185,
        "4463": 173,
        "4464": 164,
        "4465": 54,
        "4466": 145,
        "4467": 11,
        "4468": 235,
        "4469": 74,
        "4470": 189,
        "4471": 130,
        "4472": 208,
        "4473": 236,
        "4474": 58,
        "4475": 125,
        "4476": 230,
        "4477": 2,
        "4478": 211,
        "4479": 72,
        "4480": 185,
        "4481": 220,
        "4482": 32,
        "4483": 199,
        "4484": 56,
        "4485": 14,
        "4486": 109,
        "4487": 121,
        "4488": 129,
        "4489": 163,
        "4490": 185,
        "4491": 108,
        "4492": 29,
        "4493": 184,
        "4494": 176,
        "4495": 165,
        "4496": 129,
        "4497": 235,
        "4498": 61,
        "4499": 157,
        "4500": 39,
        "4501": 119,
        "4502": 2,
        "4503": 214,
        "4504": 171,
        "4505": 90,
        "4506": 87,
        "4507": 230,
        "4508": 109,
        "4509": 137,
        "4510": 52,
        "4511": 125,
        "4512": 198,
        "4513": 140,
        "4514": 53,
        "4515": 5,
        "4516": 245,
        "4517": 85,
        "4518": 184,
        "4519": 15,
        "4520": 185,
        "4521": 132,
        "4522": 11,
        "4523": 116,
        "4524": 124,
        "4525": 61,
        "4526": 240,
        "4527": 11,
        "4528": 103,
        "4529": 157,
        "4530": 112,
        "4531": 237,
        "4532": 167,
        "4533": 99,
        "4534": 187,
        "4535": 7,
        "4536": 105,
        "4537": 131,
        "4538": 75,
        "4539": 2,
        "4540": 36,
        "4541": 80,
        "4542": 65,
        "4543": 5,
        "4544": 82,
        "4545": 218,
        "4546": 84,
        "4547": 97,
        "4548": 79,
        "4549": 185,
        "4550": 242,
        "4551": 107,
        "4552": 64,
        "4553": 94,
        "4554": 123,
        "4555": 251,
        "4556": 7,
        "4557": 92,
        "4558": 231,
        "4559": 1,
        "4560": 82,
        "4561": 80,
        "4562": 18,
        "4563": 35,
        "4564": 201,
        "4565": 207,
        "4566": 231,
        "4567": 194,
        "4568": 150,
        "4569": 39,
        "4570": 151,
        "4571": 206,
        "4572": 210,
        "4573": 53,
        "4574": 99,
        "4575": 34,
        "4576": 61,
        "4577": 173,
        "4578": 69,
        "4579": 8,
        "4580": 160,
        "4581": 173,
        "4582": 45,
        "4583": 172,
        "4584": 199,
        "4585": 96,
        "4586": 21,
        "4587": 7,
        "4588": 143,
        "4589": 52,
        "4590": 205,
        "4591": 144,
        "4592": 147,
        "4593": 38,
        "4594": 241,
        "4595": 43,
        "4596": 138,
        "4597": 230,
        "4598": 157,
        "4599": 176,
        "4600": 248,
        "4601": 107,
        "4602": 78,
        "4603": 84,
        "4604": 63,
        "4605": 28,
        "4606": 105,
        "4607": 250,
        "4608": 176,
        "4609": 207,
        "4610": 102,
        "4611": 7,
        "4612": 161,
        "4613": 107,
        "4614": 44,
        "4615": 211,
        "4616": 15,
        "4617": 180,
        "4618": 193,
        "4619": 248,
        "4620": 170,
        "4621": 199,
        "4622": 130,
        "4623": 122,
        "4624": 56,
        "4625": 31,
        "4626": 248,
        "4627": 145,
        "4628": 45,
        "4629": 161,
        "4630": 49,
        "4631": 196,
        "4632": 111,
        "4633": 193,
        "4634": 236,
        "4635": 98,
        "4636": 238,
        "4637": 4,
        "4638": 79,
        "4639": 192,
        "4640": 30,
        "4641": 111,
        "4642": 29,
        "4643": 22,
        "4644": 19,
        "4645": 84,
        "4646": 157,
        "4647": 221,
        "4648": 108,
        "4649": 212,
        "4650": 216,
        "4651": 183,
        "4652": 179,
        "4653": 225,
        "4654": 205,
        "4655": 177,
        "4656": 146,
        "4657": 140,
        "4658": 210,
        "4659": 188,
        "4660": 119,
        "4661": 240,
        "4662": 100,
        "4663": 248,
        "4664": 28,
        "4665": 58,
        "4666": 253,
        "4667": 240,
        "4668": 190,
        "4669": 137,
        "4670": 106,
        "4671": 132,
        "4672": 186,
        "4673": 105,
        "4674": 224,
        "4675": 163,
        "4676": 223,
        "4677": 3,
        "4678": 8,
        "4679": 47,
        "4680": 136,
        "4681": 127,
        "4682": 179,
        "4683": 181,
        "4684": 141,
        "4685": 10,
        "4686": 28,
        "4687": 240,
        "4688": 142,
        "4689": 222,
        "4690": 191,
        "4691": 84,
        "4692": 89,
        "4693": 250,
        "4694": 39,
        "4695": 188,
        "4696": 59,
        "4697": 255,
        "4698": 127,
        "4699": 102,
        "4700": 166,
        "4701": 222,
        "4702": 223,
        "4703": 247,
        "4704": 137,
        "4705": 121,
        "4706": 190,
        "4707": 87,
        "4708": 193,
        "4709": 33,
        "4710": 105,
        "4711": 148,
        "4712": 48,
        "4713": 255,
        "4714": 38,
        "4715": 180,
        "4716": 17,
        "4717": 56,
        "4718": 87,
        "4719": 61,
        "4720": 72,
        "4721": 0,
        "4722": 222,
        "4723": 116,
        "4724": 79,
        "4725": 0,
        "4726": 116,
        "4727": 175,
        "4728": 249,
        "4729": 183,
        "4730": 139,
        "4731": 153,
        "4732": 138,
        "4733": 24,
        "4734": 106,
        "4735": 7,
        "4736": 47,
        "4737": 244,
        "4738": 9,
        "4739": 143,
        "4740": 64,
        "4741": 41,
        "4742": 111,
        "4743": 87,
        "4744": 62,
        "4745": 234,
        "4746": 1,
        "4747": 87,
        "4748": 20,
        "4749": 21,
        "4750": 229,
        "4751": 120,
        "4752": 45,
        "4753": 84,
        "4754": 148,
        "4755": 87,
        "4756": 214,
        "4757": 73,
        "4758": 16,
        "4759": 152,
        "4760": 125,
        "4761": 141,
        "4762": 152,
        "4763": 248,
        "4764": 37,
        "4765": 54,
        "4766": 79,
        "4767": 81,
        "4768": 3,
        "4769": 145,
        "4770": 198,
        "4771": 130,
        "4772": 151,
        "4773": 254,
        "4774": 101,
        "4775": 208,
        "4776": 195,
        "4777": 4,
        "4778": 27,
        "4779": 154,
        "4780": 217,
        "4781": 49,
        "4782": 122,
        "4783": 196,
        "4784": 91,
        "4785": 205,
        "4786": 139,
        "4787": 130,
        "4788": 140,
        "4789": 225,
        "4790": 210,
        "4791": 177,
        "4792": 107,
        "4793": 24,
        "4794": 128,
        "4795": 159,
        "4796": 65,
        "4797": 85,
        "4798": 55,
        "4799": 36,
        "4800": 32,
        "4801": 155,
        "4802": 10,
        "4803": 178,
        "4804": 84,
        "4805": 244,
        "4806": 211,
        "4807": 144,
        "4808": 44,
        "4809": 11,
        "4810": 241,
        "4811": 5,
        "4812": 82,
        "4813": 127,
        "4814": 221,
        "4815": 188,
        "4816": 18,
        "4817": 98,
        "4818": 136,
        "4819": 178,
        "4820": 191,
        "4821": 90,
        "4822": 236,
        "4823": 195,
        "4824": 250,
        "4825": 160,
        "4826": 220,
        "4827": 197,
        "4828": 126,
        "4829": 91,
        "4830": 146,
        "4831": 177,
        "4832": 93,
        "4833": 233,
        "4834": 41,
        "4835": 46,
        "4836": 72,
        "4837": 154,
        "4838": 176,
        "4839": 196,
        "4840": 110,
        "4841": 96,
        "4842": 111,
        "4843": 74,
        "4844": 184,
        "4845": 245,
        "4846": 166,
        "4847": 94,
        "4848": 12,
        "4849": 40,
        "4850": 159,
        "4851": 95,
        "4852": 101,
        "4853": 153,
        "4854": 245,
        "4855": 191,
        "4856": 52,
        "4857": 56,
        "4858": 93,
        "4859": 235,
        "4860": 185,
        "4861": 128,
        "4862": 36,
        "4863": 174,
        "4864": 145,
        "4865": 116,
        "4866": 169,
        "4867": 241,
        "4868": 150,
        "4869": 30,
        "4870": 231,
        "4871": 57,
        "4872": 129,
        "4873": 178,
        "4874": 164,
        "4875": 109,
        "4876": 6,
        "4877": 33,
        "4878": 100,
        "4879": 196,
        "4880": 147,
        "4881": 211,
        "4882": 39,
        "4883": 99,
        "4884": 108,
        "4885": 99,
        "4886": 170,
        "4887": 131,
        "4888": 3,
        "4889": 37,
        "4890": 75,
        "4891": 7,
        "4892": 22,
        "4893": 211,
        "4894": 10,
        "4895": 163,
        "4896": 141,
        "4897": 139,
        "4898": 205,
        "4899": 4,
        "4900": 51,
        "4901": 51,
        "4902": 233,
        "4903": 53,
        "4904": 227,
        "4905": 213,
        "4906": 79,
        "4907": 56,
        "4908": 148,
        "4909": 183,
        "4910": 109,
        "4911": 235,
        "4912": 76,
        "4913": 81,
        "4914": 59,
        "4915": 156,
        "4916": 157,
        "4917": 98,
        "4918": 198,
        "4919": 148,
        "4920": 93,
        "4921": 160,
        "4922": 41,
        "4923": 176,
        "4924": 210,
        "4925": 211,
        "4926": 123,
        "4927": 247,
        "4928": 159,
        "4929": 135,
        "4930": 115,
        "4931": 42,
        "4932": 4,
        "4933": 61,
        "4934": 252,
        "4935": 254,
        "4936": 177,
        "4937": 182,
        "4938": 113,
        "4939": 106,
        "4940": 196,
        "4941": 240,
        "4942": 41,
        "4943": 24,
        "4944": 122,
        "4945": 110,
        "4946": 92,
        "4947": 143,
        "4948": 177,
        "4949": 214,
        "4950": 60,
        "4951": 57,
        "4952": 116,
        "4953": 177,
        "4954": 127,
        "4955": 230,
        "4956": 195,
        "4957": 32,
        "4958": 102,
        "4959": 236,
        "4960": 237,
        "4961": 72,
        "4962": 255,
        "4963": 99,
        "4964": 181,
        "4965": 14,
        "4966": 15,
        "4967": 106,
        "4968": 10,
        "4969": 239,
        "4970": 222,
        "4971": 242,
        "4972": 5,
        "4973": 25,
        "4974": 97,
        "4975": 19,
        "4976": 52,
        "4977": 93,
        "4978": 170,
        "4979": 12,
        "4980": 159,
        "4981": 1,
        "4982": 124,
        "4983": 210,
        "4984": 241,
        "4985": 72,
        "4986": 97,
        "4987": 74,
        "4988": 208,
        "4989": 142,
        "4990": 67,
        "4991": 130,
        "4992": 121,
        "4993": 47,
        "4994": 143,
        "4995": 171,
        "4996": 245,
        "4997": 127,
        "4998": 225,
        "4999": 163,
        "5000": 187,
        "5001": 243,
        "5002": 25,
        "5003": 237,
        "5004": 206,
        "5005": 29,
        "5006": 235,
        "5007": 175,
        "5008": 253,
        "5009": 80,
        "5010": 157,
        "5011": 209,
        "5012": 19,
        "5013": 237,
        "5014": 56,
        "5015": 13,
        "5016": 91,
        "5017": 104,
        "5018": 59,
        "5019": 203,
        "5020": 184,
        "5021": 172,
        "5022": 215,
        "5023": 9,
        "5024": 21,
        "5025": 217,
        "5026": 10,
        "5027": 104,
        "5028": 132,
        "5029": 2,
        "5030": 54,
        "5031": 39,
        "5032": 216,
        "5033": 224,
        "5034": 115,
        "5035": 196,
        "5036": 41,
        "5037": 80,
        "5038": 3,
        "5039": 178,
        "5040": 60,
        "5041": 79,
        "5042": 232,
        "5043": 203,
        "5044": 45,
        "5045": 153,
        "5046": 183,
        "5047": 133,
        "5048": 143,
        "5049": 9,
        "5050": 243,
        "5051": 3,
        "5052": 188,
        "5053": 114,
        "5054": 14,
        "5055": 213,
        "5056": 65,
        "5057": 193,
        "5058": 166,
        "5059": 239,
        "5060": 150,
        "5061": 36,
        "5062": 108,
        "5063": 18,
        "5064": 78,
        "5065": 204,
        "5066": 182,
        "5067": 189,
        "5068": 239,
        "5069": 72,
        "5070": 155,
        "5071": 255,
        "5072": 69,
        "5073": 182,
        "5074": 36,
        "5075": 49,
        "5076": 139,
        "5077": 199,
        "5078": 176,
        "5079": 18,
        "5080": 65,
        "5081": 212,
        "5082": 148,
        "5083": 9,
        "5084": 101,
        "5085": 82,
        "5086": 103,
        "5087": 108,
        "5088": 245,
        "5089": 103,
        "5090": 107,
        "5091": 129,
        "5092": 60,
        "5093": 142,
        "5094": 255,
        "5095": 158,
        "5096": 134,
        "5097": 81,
        "5098": 12,
        "5099": 10,
        "5100": 246,
        "5101": 216,
        "5102": 170,
        "5103": 108,
        "5104": 200,
        "5105": 200,
        "5106": 104,
        "5107": 130,
        "5108": 252,
        "5109": 251,
        "5110": 48,
        "5111": 21,
        "5112": 234,
        "5113": 149,
        "5114": 154,
        "5115": 150,
        "5116": 234,
        "5117": 105,
        "5118": 60,
        "5119": 110,
        "5120": 111,
        "5121": 53,
        "5122": 181,
        "5123": 44,
        "5124": 154,
        "5125": 219,
        "5126": 145,
        "5127": 146,
        "5128": 88,
        "5129": 42,
        "5130": 182,
        "5131": 176,
        "5132": 212,
        "5133": 240,
        "5134": 29,
        "5135": 218,
        "5136": 214,
        "5137": 131,
        "5138": 220,
        "5139": 242,
        "5140": 172,
        "5141": 54,
        "5142": 100,
        "5143": 233,
        "5144": 135,
        "5145": 112,
        "5146": 127,
        "5147": 55,
        "5148": 73,
        "5149": 12,
        "5150": 25,
        "5151": 126,
        "5152": 124,
        "5153": 225,
        "5154": 98,
        "5155": 129,
        "5156": 245,
        "5157": 66,
        "5158": 140,
        "5159": 245,
        "5160": 69,
        "5161": 147,
        "5162": 49,
        "5163": 142,
        "5164": 139,
        "5165": 171,
        "5166": 51,
        "5167": 117,
        "5168": 11,
        "5169": 48,
        "5170": 178,
        "5171": 212,
        "5172": 57,
        "5173": 105,
        "5174": 82,
        "5175": 249,
        "5176": 119,
        "5177": 88,
        "5178": 247,
        "5179": 224,
        "5180": 114,
        "5181": 193,
        "5182": 170,
        "5183": 101,
        "5184": 241,
        "5185": 108,
        "5186": 127,
        "5187": 145,
        "5188": 76,
        "5189": 89,
        "5190": 130,
        "5191": 31,
        "5192": 193,
        "5193": 117,
        "5194": 255,
        "5195": 118,
        "5196": 16,
        "5197": 142,
        "5198": 129,
        "5199": 152,
        "5200": 167,
        "5201": 188,
        "5202": 20,
        "5203": 47,
        "5204": 23,
        "5205": 132,
        "5206": 37,
        "5207": 64,
        "5208": 36,
        "5209": 106,
        "5210": 201,
        "5211": 241,
        "5212": 202,
        "5213": 251,
        "5214": 250,
        "5215": 223,
        "5216": 246,
        "5217": 65,
        "5218": 168,
        "5219": 202,
        "5220": 80,
        "5221": 50,
        "5222": 253,
        "5223": 101,
        "5224": 176,
        "5225": 41,
        "5226": 212,
        "5227": 129,
        "5228": 25,
        "5229": 193,
        "5230": 128,
        "5231": 142,
        "5232": 164,
        "5233": 20,
        "5234": 34,
        "5235": 218,
        "5236": 25,
        "5237": 167,
        "5238": 12,
        "5239": 16,
        "5240": 165,
        "5241": 66,
        "5242": 158,
        "5243": 220,
        "5244": 218,
        "5245": 193,
        "5246": 155,
        "5247": 30,
        "5248": 235,
        "5249": 188,
        "5250": 113,
        "5251": 50,
        "5252": 90,
        "5253": 180,
        "5254": 21,
        "5255": 198,
        "5256": 24,
        "5257": 38,
        "5258": 35,
        "5259": 158,
        "5260": 55,
        "5261": 181,
        "5262": 213,
        "5263": 82,
        "5264": 117,
        "5265": 40,
        "5266": 90,
        "5267": 55,
        "5268": 200,
        "5269": 141,
        "5270": 147,
        "5271": 4,
        "5272": 2,
        "5273": 210,
        "5274": 48,
        "5275": 105,
        "5276": 27,
        "5277": 30,
        "5278": 126,
        "5279": 132,
        "5280": 201,
        "5281": 125,
        "5282": 28,
        "5283": 64,
        "5284": 63,
        "5285": 34,
        "5286": 242,
        "5287": 180,
        "5288": 150,
        "5289": 76,
        "5290": 107,
        "5291": 62,
        "5292": 47,
        "5293": 85,
        "5294": 81,
        "5295": 25,
        "5296": 72,
        "5297": 99,
        "5298": 212,
        "5299": 42,
        "5300": 223,
        "5301": 44,
        "5302": 47,
        "5303": 12,
        "5304": 178,
        "5305": 39,
        "5306": 55,
        "5307": 121,
        "5308": 16,
        "5309": 128,
        "5310": 96,
        "5311": 113,
        "5312": 166,
        "5313": 95,
        "5314": 116,
        "5315": 227,
        "5316": 207,
        "5317": 187,
        "5318": 39,
        "5319": 176,
        "5320": 175,
        "5321": 71,
        "5322": 235,
        "5323": 255,
        "5324": 92,
        "5325": 67,
        "5326": 219,
        "5327": 65,
        "5328": 151,
        "5329": 150,
        "5330": 201,
        "5331": 21,
        "5332": 186,
        "5333": 239,
        "5334": 65,
        "5335": 40,
        "5336": 219,
        "5337": 76,
        "5338": 155,
        "5339": 212,
        "5340": 63,
        "5341": 218,
        "5342": 184,
        "5343": 197,
        "5344": 232,
        "5345": 48,
        "5346": 219,
        "5347": 155,
        "5348": 74,
        "5349": 233,
        "5350": 188,
        "5351": 146,
        "5352": 156,
        "5353": 224,
        "5354": 224,
        "5355": 246,
        "5356": 62,
        "5357": 215,
        "5358": 82,
        "5359": 29,
        "5360": 182,
        "5361": 183,
        "5362": 65,
        "5363": 159,
        "5364": 17,
        "5365": 115,
        "5366": 10,
        "5367": 216,
        "5368": 227,
        "5369": 120,
        "5370": 4,
        "5371": 135,
        "5372": 119,
        "5373": 100,
        "5374": 156,
        "5375": 227,
        "5376": 112,
        "5377": 200,
        "5378": 100,
        "5379": 115,
        "5380": 161,
        "5381": 58,
        "5382": 123,
        "5383": 132,
        "5384": 117,
        "5385": 99,
        "5386": 113,
        "5387": 142,
        "5388": 130,
        "5389": 28,
        "5390": 107,
        "5391": 192,
        "5392": 178,
        "5393": 114,
        "5394": 176,
        "5395": 4,
        "5396": 74,
        "5397": 87,
        "5398": 113,
        "5399": 240,
        "5400": 71,
        "5401": 215,
        "5402": 128,
        "5403": 186,
        "5404": 59,
        "5405": 203,
        "5406": 175,
        "5407": 52,
        "5408": 85,
        "5409": 130,
        "5410": 128,
        "5411": 123,
        "5412": 1,
        "5413": 92,
        "5414": 205,
        "5415": 130,
        "5416": 213,
        "5417": 54,
        "5418": 96,
        "5419": 135,
        "5420": 159,
        "5421": 231,
        "5422": 244,
        "5423": 142,
        "5424": 44,
        "5425": 26,
        "5426": 181,
        "5427": 82,
        "5428": 98,
        "5429": 111,
        "5430": 71,
        "5431": 210,
        "5432": 131,
        "5433": 215,
        "5434": 197,
        "5435": 228,
        "5436": 227,
        "5437": 160,
        "5438": 105,
        "5439": 181,
        "5440": 52,
        "5441": 143,
        "5442": 183,
        "5443": 190,
        "5444": 2,
        "5445": 175,
        "5446": 212,
        "5447": 5,
        "5448": 41,
        "5449": 175,
        "5450": 214,
        "5451": 33,
        "5452": 181,
        "5453": 116,
        "5454": 211,
        "5455": 117,
        "5456": 115,
        "5457": 250,
        "5458": 60,
        "5459": 251,
        "5460": 179,
        "5461": 76,
        "5462": 38,
        "5463": 82,
        "5464": 67,
        "5465": 156,
        "5466": 58,
        "5467": 71,
        "5468": 11,
        "5469": 57,
        "5470": 16,
        "5471": 221,
        "5472": 24,
        "5473": 33,
        "5474": 215,
        "5475": 172,
        "5476": 82,
        "5477": 180,
        "5478": 20,
        "5479": 184,
        "5480": 31,
        "5481": 193,
        "5482": 219,
        "5483": 145,
        "5484": 94,
        "5485": 239,
        "5486": 95,
        "5487": 143,
        "5488": 217,
        "5489": 175,
        "5490": 161,
        "5491": 91,
        "5492": 154,
        "5493": 163,
        "5494": 112,
        "5495": 118,
        "5496": 86,
        "5497": 200,
        "5498": 9,
        "5499": 60,
        "5500": 238,
        "5501": 12,
        "5502": 169,
        "5503": 124,
        "5504": 40,
        "5505": 104,
        "5506": 42,
        "5507": 100,
        "5508": 131,
        "5509": 124,
        "5510": 228,
        "5511": 205,
        "5512": 52,
        "5513": 209,
        "5514": 226,
        "5515": 13,
        "5516": 210,
        "5517": 34,
        "5518": 180,
        "5519": 156,
        "5520": 46,
        "5521": 234,
        "5522": 134,
        "5523": 181,
        "5524": 195,
        "5525": 44,
        "5526": 130,
        "5527": 122,
        "5528": 192,
        "5529": 8,
        "5530": 178,
        "5531": 164,
        "5532": 251,
        "5533": 21,
        "5534": 239,
        "5535": 65,
        "5536": 49,
        "5537": 252,
        "5538": 179,
        "5539": 163,
        "5540": 9,
        "5541": 77,
        "5542": 40,
        "5543": 4,
        "5544": 104,
        "5545": 17,
        "5546": 173,
        "5547": 240,
        "5548": 222,
        "5549": 45,
        "5550": 215,
        "5551": 110,
        "5552": 40,
        "5553": 32,
        "5554": 214,
        "5555": 39,
        "5556": 116,
        "5557": 162,
        "5558": 88,
        "5559": 175,
        "5560": 159,
        "5561": 159,
        "5562": 28,
        "5563": 233,
        "5564": 182,
        "5565": 80,
        "5566": 114,
        "5567": 180,
        "5568": 13,
        "5569": 9,
        "5570": 57,
        "5571": 19,
        "5572": 132,
        "5573": 121,
        "5574": 248,
        "5575": 46,
        "5576": 207,
        "5577": 0,
        "5578": 116,
        "5579": 179,
        "5580": 68,
        "5581": 35,
        "5582": 245,
        "5583": 20,
        "5584": 54,
        "5585": 131,
        "5586": 163,
        "5587": 70,
        "5588": 65,
        "5589": 58,
        "5590": 157,
        "5591": 200,
        "5592": 45,
        "5593": 186,
        "5594": 64,
        "5595": 138,
        "5596": 176,
        "5597": 208,
        "5598": 12,
        "5599": 41,
        "5600": 21,
        "5601": 109,
        "5602": 51,
        "5603": 213,
        "5604": 216,
        "5605": 146,
        "5606": 251,
        "5607": 27,
        "5608": 34,
        "5609": 196,
        "5610": 211,
        "5611": 155,
        "5612": 182,
        "5613": 195,
        "5614": 168,
        "5615": 231,
        "5616": 116,
        "5617": 84,
        "5618": 23,
        "5619": 94,
        "5620": 72,
        "5621": 75,
        "5622": 181,
        "5623": 116,
        "5624": 166,
        "5625": 192,
        "5626": 189,
        "5627": 3,
        "5628": 230,
        "5629": 188,
        "5630": 54,
        "5631": 152,
        "5632": 108,
        "5633": 253,
        "5634": 107,
        "5635": 163,
        "5636": 191,
        "5637": 250,
        "5638": 203,
        "5639": 207,
        "5640": 233,
        "5641": 251,
        "5642": 177,
        "5643": 83,
        "5644": 68,
        "5645": 47,
        "5646": 62,
        "5647": 151,
        "5648": 94,
        "5649": 206,
        "5650": 248,
        "5651": 28,
        "5652": 115,
        "5653": 217,
        "5654": 71,
        "5655": 3,
        "5656": 142,
        "5657": 41,
        "5658": 151,
        "5659": 224,
        "5660": 162,
        "5661": 247,
        "5662": 54,
        "5663": 162,
        "5664": 27,
        "5665": 195,
        "5666": 240,
        "5667": 8,
        "5668": 192,
        "5669": 183,
        "5670": 183,
        "5671": 235,
        "5672": 40,
        "5673": 142,
        "5674": 210,
        "5675": 44,
        "5676": 166,
        "5677": 225,
        "5678": 207,
        "5679": 63,
        "5680": 81,
        "5681": 175,
        "5682": 49,
        "5683": 32,
        "5684": 211,
        "5685": 231,
        "5686": 155,
        "5687": 89,
        "5688": 97,
        "5689": 99,
        "5690": 145,
        "5691": 76,
        "5692": 203,
        "5693": 145,
        "5694": 4,
        "5695": 74,
        "5696": 192,
        "5697": 122,
        "5698": 192,
        "5699": 179,
        "5700": 14,
        "5701": 224,
        "5702": 238,
        "5703": 122,
        "5704": 97,
        "5705": 85,
        "5706": 111,
        "5707": 141,
        "5708": 71,
        "5709": 171,
        "5710": 170,
        "5711": 181,
        "5712": 193,
        "5713": 247,
        "5714": 182,
        "5715": 181,
        "5716": 54,
        "5717": 73,
        "5718": 248,
        "5719": 209,
        "5720": 59,
        "5721": 5,
        "5722": 96,
        "5723": 209,
        "5724": 191,
        "5725": 141,
        "5726": 139,
        "5727": 182,
        "5728": 157,
        "5729": 248,
        "5730": 63,
        "5731": 232,
        "5732": 115,
        "5733": 238,
        "5734": 210,
        "5735": 22,
        "5736": 44,
        "5737": 252,
        "5738": 174,
        "5739": 32,
        "5740": 174,
        "5741": 16,
        "5742": 38,
        "5743": 226,
        "5744": 180,
        "5745": 145,
        "5746": 2,
        "5747": 39,
        "5748": 80,
        "5749": 190,
        "5750": 66,
        "5751": 104,
        "5752": 124,
        "5753": 0,
        "5754": 52,
        "5755": 134,
        "5756": 224,
        "5757": 229,
        "5758": 167,
        "5759": 192,
        "5760": 66,
        "5761": 202,
        "5762": 226,
        "5763": 231,
        "5764": 22,
        "5765": 63,
        "5766": 189,
        "5767": 49,
        "5768": 162,
        "5769": 117,
        "5770": 22,
        "5771": 5,
        "5772": 34,
        "5773": 182,
        "5774": 12,
        "5775": 53,
        "5776": 166,
        "5777": 31,
        "5778": 104,
        "5779": 138,
        "5780": 113,
        "5781": 39,
        "5782": 158,
        "5783": 91,
        "5784": 50,
        "5785": 1,
        "5786": 251,
        "5787": 114,
        "5788": 66,
        "5789": 68,
        "5790": 151,
        "5791": 112,
        "5792": 181,
        "5793": 188,
        "5794": 157,
        "5795": 198,
        "5796": 29,
        "5797": 222,
        "5798": 189,
        "5799": 228,
        "5800": 135,
        "5801": 203,
        "5802": 98,
        "5803": 105,
        "5804": 2,
        "5805": 154,
        "5806": 212,
        "5807": 163,
        "5808": 142,
        "5809": 47,
        "5810": 158,
        "5811": 97,
        "5812": 172,
        "5813": 11,
        "5814": 159,
        "5815": 134,
        "5816": 93,
        "5817": 74,
        "5818": 195,
        "5819": 9,
        "5820": 88,
        "5821": 172,
        "5822": 10,
        "5823": 192,
        "5824": 16,
        "5825": 158,
        "5826": 118,
        "5827": 39,
        "5828": 122,
        "5829": 63,
        "5830": 147,
        "5831": 56,
        "5832": 121,
        "5833": 67,
        "5834": 174,
        "5835": 53,
        "5836": 211,
        "5837": 49,
        "5838": 157,
        "5839": 49,
        "5840": 3,
        "5841": 38,
        "5842": 192,
        "5843": 90,
        "5844": 124,
        "5845": 4,
        "5846": 83,
        "5847": 223,
        "5848": 125,
        "5849": 216,
        "5850": 47,
        "5851": 204,
        "5852": 200,
        "5853": 164,
        "5854": 239,
        "5855": 163,
        "5856": 211,
        "5857": 65,
        "5858": 168,
        "5859": 119,
        "5860": 29,
        "5861": 160,
        "5862": 0,
        "5863": 251,
        "5864": 3,
        "5865": 7,
        "5866": 14,
        "5867": 1,
        "5868": 104,
        "5869": 231,
        "5870": 114,
        "5871": 104,
        "5872": 250,
        "5873": 214,
        "5874": 219,
        "5875": 201,
        "5876": 174,
        "5877": 232,
        "5878": 72,
        "5879": 90,
        "5880": 152,
        "5881": 55,
        "5882": 174,
        "5883": 212,
        "5884": 24,
        "5885": 30,
        "5886": 93,
        "5887": 150,
        "5888": 4,
        "5889": 117,
        "5890": 150,
        "5891": 22,
        "5892": 31,
        "5893": 133,
        "5894": 214,
        "5895": 163,
        "5896": 34,
        "5897": 222,
        "5898": 132,
        "5899": 73,
        "5900": 42,
        "5901": 132,
        "5902": 180,
        "5903": 39,
        "5904": 124,
        "5905": 221,
        "5906": 101,
        "5907": 90,
        "5908": 179,
        "5909": 27,
        "5910": 88,
        "5911": 110,
        "5912": 114,
        "5913": 248,
        "5914": 99,
        "5915": 202,
        "5916": 220,
        "5917": 83,
        "5918": 13,
        "5919": 113,
        "5920": 155,
        "5921": 129,
        "5922": 208,
        "5923": 66,
        "5924": 88,
        "5925": 208,
        "5926": 63,
        "5927": 54,
        "5928": 128,
        "5929": 162,
        "5930": 144,
        "5931": 61,
        "5932": 127,
        "5933": 249,
        "5934": 13,
        "5935": 163,
        "5936": 36,
        "5937": 97,
        "5938": 164,
        "5939": 26,
        "5940": 125,
        "5941": 20,
        "5942": 127,
        "5943": 54,
        "5944": 58,
        "5945": 37,
        "5946": 238,
        "5947": 196,
        "5948": 175,
        "5949": 237,
        "5950": 168,
        "5951": 29,
        "5952": 121,
        "5953": 196,
        "5954": 249,
        "5955": 217,
        "5956": 246,
        "5957": 67,
        "5958": 14,
        "5959": 18,
        "5960": 57,
        "5961": 255,
        "5962": 68,
        "5963": 97,
        "5964": 250,
        "5965": 54,
        "5966": 98,
        "5967": 31,
        "5968": 197,
        "5969": 234,
        "5970": 245,
        "5971": 105,
        "5972": 28,
        "5973": 91,
        "5974": 105,
        "5975": 220,
        "5976": 163,
        "5977": 10,
        "5978": 71,
        "5979": 10,
        "5980": 253,
        "5981": 158,
        "5982": 127,
        "5983": 148,
        "5984": 192,
        "5985": 66,
        "5986": 181,
        "5987": 195,
        "5988": 202,
        "5989": 100,
        "5990": 82,
        "5991": 151,
        "5992": 163,
        "5993": 192,
        "5994": 20,
        "5995": 219,
        "5996": 229,
        "5997": 14,
        "5998": 215,
        "5999": 174,
        "6000": 214,
        "6001": 135,
        "6002": 132,
        "6003": 90,
        "6004": 241,
        "6005": 156,
        "6006": 104,
        "6007": 237,
        "6008": 249,
        "6009": 147,
        "6010": 106,
        "6011": 163,
        "6012": 215,
        "6013": 6,
        "6014": 212,
        "6015": 247,
        "6016": 71,
        "6017": 134,
        "6018": 55,
        "6019": 232,
        "6020": 57,
        "6021": 42,
        "6022": 8,
        "6023": 126,
        "6024": 93,
        "6025": 61,
        "6026": 179,
        "6027": 111,
        "6028": 127,
        "6029": 136,
        "6030": 53,
        "6031": 148,
        "6032": 135,
        "6033": 127,
        "6034": 2,
        "6035": 255,
        "6036": 220,
        "6037": 171,
        "6038": 99,
        "6039": 166,
        "6040": 203,
        "6041": 142,
        "6042": 2,
        "6043": 222,
        "6044": 136,
        "6045": 95,
        "6046": 37,
        "6047": 214,
        "6048": 128,
        "6049": 75,
        "6050": 150,
        "6051": 226,
        "6052": 79,
        "6053": 99,
        "6054": 14,
        "6055": 126,
        "6056": 194,
        "6057": 41,
        "6058": 0,
        "6059": 204,
        "6060": 173,
        "6061": 3,
        "6062": 93,
        "6063": 121,
        "6064": 117,
        "6065": 208,
        "6066": 105,
        "6067": 184,
        "6068": 125,
        "6069": 242,
        "6070": 176,
        "6071": 185,
        "6072": 189,
        "6073": 121,
        "6074": 84,
        "6075": 225,
        "6076": 235,
        "6077": 218,
        "6078": 5,
        "6079": 103,
        "6080": 246,
        "6081": 252,
        "6082": 180,
        "6083": 107,
        "6084": 125,
        "6085": 97,
        "6086": 84,
        "6087": 130,
        "6088": 74,
        "6089": 156,
        "6090": 183,
        "6091": 84,
        "6092": 147,
        "6093": 248,
        "6094": 127,
        "6095": 152,
        "6096": 84,
        "6097": 12,
        "6098": 162,
        "6099": 6,
        "6100": 227,
        "6101": 101,
        "6102": 160,
        "6103": 143,
        "6104": 183,
        "6105": 208,
        "6106": 221,
        "6107": 30,
        "6108": 148,
        "6109": 93,
        "6110": 62,
        "6111": 9,
        "6112": 75,
        "6113": 184,
        "6114": 175,
        "6115": 177,
        "6116": 169,
        "6117": 153,
        "6118": 230,
        "6119": 108,
        "6120": 218,
        "6121": 194,
        "6122": 53,
        "6123": 219,
        "6124": 17,
        "6125": 78,
        "6126": 194,
        "6127": 23,
        "6128": 235,
        "6129": 142,
        "6130": 231,
        "6131": 97,
        "6132": 221,
        "6133": 132,
        "6134": 122,
        "6135": 140,
        "6136": 113,
        "6137": 210,
        "6138": 66,
        "6139": 121,
        "6140": 100,
        "6141": 62,
        "6142": 159,
        "6143": 10,
        "6144": 145,
        "6145": 211,
        "6146": 115,
        "6147": 26,
        "6148": 124,
        "6149": 202,
        "6150": 112,
        "6151": 90,
        "6152": 92,
        "6153": 19,
        "6154": 211,
        "6155": 61,
        "6156": 223,
        "6157": 144,
        "6158": 157,
        "6159": 210,
        "6160": 28,
        "6161": 65,
        "6162": 104,
        "6163": 67,
        "6164": 68,
        "6165": 175,
        "6166": 232,
        "6167": 187,
        "6168": 109,
        "6169": 121,
        "6170": 67,
        "6171": 4,
        "6172": 201,
        "6173": 125,
        "6174": 202,
        "6175": 239,
        "6176": 199,
        "6177": 222,
        "6178": 162,
        "6179": 221,
        "6180": 243,
        "6181": 123,
        "6182": 44,
        "6183": 209,
        "6184": 144,
        "6185": 229,
        "6186": 86,
        "6187": 171,
        "6188": 5,
        "6189": 14,
        "6190": 5,
        "6191": 43,
        "6192": 126,
        "6193": 98,
        "6194": 39,
        "6195": 24,
        "6196": 83,
        "6197": 24,
        "6198": 15,
        "6199": 248,
        "6200": 67,
        "6201": 136,
        "6202": 113,
        "6203": 15,
        "6204": 198,
        "6205": 0,
        "6206": 204,
        "6207": 195,
        "6208": 217,
        "6209": 144,
        "6210": 230,
        "6211": 73,
        "6212": 78,
        "6213": 217,
        "6214": 111,
        "6215": 216,
        "6216": 181,
        "6217": 84,
        "6218": 33,
        "6219": 245,
        "6220": 117,
        "6221": 150,
        "6222": 136,
        "6223": 184,
        "6224": 4,
        "6225": 61,
        "6226": 197,
        "6227": 110,
        "6228": 115,
        "6229": 209,
        "6230": 153,
        "6231": 35,
        "6232": 13,
        "6233": 241,
        "6234": 84,
        "6235": 15,
        "6236": 45,
        "6237": 89,
        "6238": 170,
        "6239": 198,
        "6240": 129,
        "6241": 249,
        "6242": 120,
        "6243": 190,
        "6244": 125,
        "6245": 24,
        "6246": 168,
        "6247": 53,
        "6248": 125,
        "6249": 13,
        "6250": 224,
        "6251": 48,
        "6252": 41,
        "6253": 85,
        "6254": 210,
        "6255": 125,
        "6256": 150,
        "6257": 77,
        "6258": 129,
        "6259": 214,
        "6260": 99,
        "6261": 178,
        "6262": 220,
        "6263": 50,
        "6264": 160,
        "6265": 158,
        "6266": 9,
        "6267": 186,
        "6268": 141,
        "6269": 212,
        "6270": 176,
        "6271": 47,
        "6272": 254,
        "6273": 118,
        "6274": 81,
        "6275": 102,
        "6276": 139,
        "6277": 127,
        "6278": 153,
        "6279": 16,
        "6280": 214,
        "6281": 183,
        "6282": 228,
        "6283": 15,
        "6284": 65,
        "6285": 53,
        "6286": 210,
        "6287": 247,
        "6288": 132,
        "6289": 135,
        "6290": 36,
        "6291": 16,
        "6292": 28,
        "6293": 104,
        "6294": 241,
        "6295": 97,
        "6296": 234,
        "6297": 202,
        "6298": 208,
        "6299": 124,
        "6300": 251,
        "6301": 218,
        "6302": 229,
        "6303": 241,
        "6304": 239,
        "6305": 113,
        "6306": 210,
        "6307": 190,
        "6308": 226,
        "6309": 74,
        "6310": 198,
        "6311": 1,
        "6312": 73,
        "6313": 135,
        "6314": 91,
        "6315": 209,
        "6316": 245,
        "6317": 225,
        "6318": 43,
        "6319": 164,
        "6320": 150,
        "6321": 97,
        "6322": 135,
        "6323": 251,
        "6324": 114,
        "6325": 221,
        "6326": 21,
        "6327": 70,
        "6328": 177,
        "6329": 123,
        "6330": 28,
        "6331": 10,
        "6332": 48,
        "6333": 119,
        "6334": 44,
        "6335": 170,
        "6336": 142,
        "6337": 253,
        "6338": 103,
        "6339": 17,
        "6340": 128,
        "6341": 161,
        "6342": 98,
        "6343": 232,
        "6344": 37,
        "6345": 56,
        "6346": 186,
        "6347": 250,
        "6348": 46,
        "6349": 250,
        "6350": 84,
        "6351": 133,
        "6352": 5,
        "6353": 69,
        "6354": 220,
        "6355": 78,
        "6356": 162,
        "6357": 229,
        "6358": 82,
        "6359": 255,
        "6360": 188,
        "6361": 6,
        "6362": 110,
        "6363": 116,
        "6364": 4,
        "6365": 181,
        "6366": 74,
        "6367": 191,
        "6368": 1,
        "6369": 1,
        "6370": 123,
        "6371": 253,
        "6372": 197,
        "6373": 231,
        "6374": 91,
        "6375": 83,
        "6376": 196,
        "6377": 187,
        "6378": 120,
        "6379": 227,
        "6380": 20,
        "6381": 108,
        "6382": 113,
        "6383": 249,
        "6384": 193,
        "6385": 226,
        "6386": 156,
        "6387": 179,
        "6388": 240,
        "6389": 193,
        "6390": 220,
        "6391": 38,
        "6392": 243,
        "6393": 21,
        "6394": 248,
        "6395": 206,
        "6396": 113,
        "6397": 88,
        "6398": 78,
        "6399": 253,
        "6400": 251,
        "6401": 114,
        "6402": 178,
        "6403": 252,
        "6404": 136,
        "6405": 33,
        "6406": 92,
        "6407": 247,
        "6408": 70,
        "6409": 191,
        "6410": 139,
        "6411": 254,
        "6412": 136,
        "6413": 240,
        "6414": 84,
        "6415": 23,
        "6416": 178,
        "6417": 140,
        "6418": 177,
        "6419": 132,
        "6420": 201,
        "6421": 163,
        "6422": 195,
        "6423": 217,
        "6424": 91,
        "6425": 112,
        "6426": 252,
        "6427": 42,
        "6428": 55,
        "6429": 178,
        "6430": 120,
        "6431": 189,
        "6432": 131,
        "6433": 169,
        "6434": 77,
        "6435": 142,
        "6436": 218,
        "6437": 211,
        "6438": 133,
        "6439": 51,
        "6440": 18,
        "6441": 186,
        "6442": 177,
        "6443": 122,
        "6444": 249,
        "6445": 34,
        "6446": 129,
        "6447": 5,
        "6448": 130,
        "6449": 173,
        "6450": 126,
        "6451": 122,
        "6452": 112,
        "6453": 105,
        "6454": 255,
        "6455": 117,
        "6456": 81,
        "6457": 41,
        "6458": 24,
        "6459": 227,
        "6460": 208,
        "6461": 236,
        "6462": 72,
        "6463": 116,
        "6464": 196,
        "6465": 116,
        "6466": 165,
        "6467": 215,
        "6468": 60,
        "6469": 224,
        "6470": 151,
        "6471": 38,
        "6472": 189,
        "6473": 57,
        "6474": 131,
        "6475": 37,
        "6476": 248,
        "6477": 241,
        "6478": 184,
        "6479": 104,
        "6480": 104,
        "6481": 58,
        "6482": 218,
        "6483": 179,
        "6484": 91,
        "6485": 224,
        "6486": 134,
        "6487": 113,
        "6488": 6,
        "6489": 124,
        "6490": 5,
        "6491": 162,
        "6492": 133,
        "6493": 239,
        "6494": 49,
        "6495": 111,
        "6496": 24,
        "6497": 88,
        "6498": 67,
        "6499": 60,
        "6500": 172,
        "6501": 136,
        "6502": 165,
        "6503": 251,
        "6504": 75,
        "6505": 154,
        "6506": 203,
        "6507": 136,
        "6508": 145,
        "6509": 66,
        "6510": 72,
        "6511": 162,
        "6512": 124,
        "6513": 192,
        "6514": 197,
        "6515": 64,
        "6516": 182,
        "6517": 26,
        "6518": 205,
        "6519": 62,
        "6520": 195,
        "6521": 178,
        "6522": 50,
        "6523": 99,
        "6524": 204,
        "6525": 45,
        "6526": 52,
        "6527": 149,
        "6528": 203,
        "6529": 185,
        "6530": 180,
        "6531": 81,
        "6532": 7,
        "6533": 93,
        "6534": 184,
        "6535": 178,
        "6536": 255,
        "6537": 182,
        "6538": 236,
        "6539": 61,
        "6540": 16,
        "6541": 29,
        "6542": 199,
        "6543": 107,
        "6544": 17,
        "6545": 203,
        "6546": 197,
        "6547": 126,
        "6548": 124,
        "6549": 40,
        "6550": 247,
        "6551": 59,
        "6552": 210,
        "6553": 162,
        "6554": 206,
        "6555": 75,
        "6556": 43,
        "6557": 161,
        "6558": 209,
        "6559": 248,
        "6560": 191,
        "6561": 54,
        "6562": 108,
        "6563": 188,
        "6564": 133,
        "6565": 150,
        "6566": 235,
        "6567": 167,
        "6568": 126,
        "6569": 103,
        "6570": 91,
        "6571": 207,
        "6572": 235,
        "6573": 48,
        "6574": 252,
        "6575": 101,
        "6576": 143,
        "6577": 68,
        "6578": 21,
        "6579": 202,
        "6580": 94,
        "6581": 65,
        "6582": 16,
        "6583": 91,
        "6584": 42,
        "6585": 162,
        "6586": 168,
        "6587": 152,
        "6588": 59,
        "6589": 169,
        "6590": 152,
        "6591": 85,
        "6592": 212,
        "6593": 181,
        "6594": 51,
        "6595": 1,
        "6596": 242,
        "6597": 107,
        "6598": 177,
        "6599": 29,
        "6600": 2,
        "6601": 137,
        "6602": 53,
        "6603": 231,
        "6604": 183,
        "6605": 155,
        "6606": 190,
        "6607": 233,
        "6608": 150,
        "6609": 179,
        "6610": 204,
        "6611": 58,
        "6612": 183,
        "6613": 55,
        "6614": 112,
        "6615": 161,
        "6616": 92,
        "6617": 139,
        "6618": 236,
        "6619": 0,
        "6620": 235,
        "6621": 134,
        "6622": 169,
        "6623": 169,
        "6624": 199,
        "6625": 16,
        "6626": 10,
        "6627": 252,
        "6628": 45,
        "6629": 163,
        "6630": 118,
        "6631": 226,
        "6632": 208,
        "6633": 178,
        "6634": 160,
        "6635": 76,
        "6636": 99,
        "6637": 184,
        "6638": 135,
        "6639": 103,
        "6640": 65,
        "6641": 160,
        "6642": 155,
        "6643": 162,
        "6644": 40,
        "6645": 25,
        "6646": 10,
        "6647": 20,
        "6648": 99,
        "6649": 127,
        "6650": 147,
        "6651": 185,
        "6652": 49,
        "6653": 192,
        "6654": 129,
        "6655": 174,
        "6656": 221,
        "6657": 11,
        "6658": 216,
        "6659": 208,
        "6660": 98,
        "6661": 18,
        "6662": 160,
        "6663": 197,
        "6664": 175,
        "6665": 12,
        "6666": 89,
        "6667": 38,
        "6668": 161,
        "6669": 200,
        "6670": 72,
        "6671": 55,
        "6672": 77,
        "6673": 225,
        "6674": 72,
        "6675": 242,
        "6676": 81,
        "6677": 207,
        "6678": 1,
        "6679": 9,
        "6680": 85,
        "6681": 74,
        "6682": 222,
        "6683": 18,
        "6684": 239,
        "6685": 141,
        "6686": 211,
        "6687": 171,
        "6688": 189,
        "6689": 37,
        "6690": 196,
        "6691": 186,
        "6692": 39,
        "6693": 206,
        "6694": 40,
        "6695": 180,
        "6696": 5,
        "6697": 41,
        "6698": 251,
        "6699": 85,
        "6700": 213,
        "6701": 67,
        "6702": 17,
        "6703": 62,
        "6704": 62,
        "6705": 136,
        "6706": 19,
        "6707": 160,
        "6708": 197,
        "6709": 163,
        "6710": 75,
        "6711": 216,
        "6712": 182,
        "6713": 5,
        "6714": 36,
        "6715": 172,
        "6716": 1,
        "6717": 50,
        "6718": 248,
        "6719": 88,
        "6720": 127,
        "6721": 33,
        "6722": 41,
        "6723": 187,
        "6724": 3,
        "6725": 9,
        "6726": 151,
        "6727": 26,
        "6728": 144,
        "6729": 255,
        "6730": 237,
        "6731": 142,
        "6732": 235,
        "6733": 111,
        "6734": 60,
        "6735": 73,
        "6736": 80,
        "6737": 162,
        "6738": 96,
        "6739": 179,
        "6740": 170,
        "6741": 254,
        "6742": 136,
        "6743": 207,
        "6744": 124,
        "6745": 101,
        "6746": 131,
        "6747": 208,
        "6748": 95,
        "6749": 5,
        "6750": 5,
        "6751": 174,
        "6752": 197,
        "6753": 197,
        "6754": 82,
        "6755": 117,
        "6756": 78,
        "6757": 250,
        "6758": 171,
        "6759": 60,
        "6760": 109,
        "6761": 132,
        "6762": 135,
        "6763": 68,
        "6764": 18,
        "6765": 227,
        "6766": 229,
        "6767": 192,
        "6768": 166,
        "6769": 214,
        "6770": 68,
        "6771": 40,
        "6772": 196,
        "6773": 85,
        "6774": 105,
        "6775": 147,
        "6776": 59,
        "6777": 235,
        "6778": 61,
        "6779": 140,
        "6780": 157,
        "6781": 150,
        "6782": 97,
        "6783": 228,
        "6784": 164,
        "6785": 188,
        "6786": 217,
        "6787": 153,
        "6788": 230,
        "6789": 61,
        "6790": 224,
        "6791": 94,
        "6792": 172,
        "6793": 223,
        "6794": 231,
        "6795": 149,
        "6796": 48,
        "6797": 229,
        "6798": 118,
        "6799": 110,
        "6800": 72,
        "6801": 68,
        "6802": 33,
        "6803": 46,
        "6804": 250,
        "6805": 194,
        "6806": 14,
        "6807": 87,
        "6808": 98,
        "6809": 97,
        "6810": 96,
        "6811": 132,
        "6812": 28,
        "6813": 239,
        "6814": 131,
        "6815": 34,
        "6816": 156,
        "6817": 232,
        "6818": 24,
        "6819": 236,
        "6820": 45,
        "6821": 254,
        "6822": 94,
        "6823": 9,
        "6824": 149,
        "6825": 6,
        "6826": 25,
        "6827": 117,
        "6828": 181,
        "6829": 178,
        "6830": 81,
        "6831": 63,
        "6832": 84,
        "6833": 61,
        "6834": 95,
        "6835": 206,
        "6836": 194,
        "6837": 211,
        "6838": 28,
        "6839": 139,
        "6840": 12,
        "6841": 2,
        "6842": 237,
        "6843": 151,
        "6844": 228,
        "6845": 130,
        "6846": 122,
        "6847": 140,
        "6848": 76,
        "6849": 77,
        "6850": 166,
        "6851": 31,
        "6852": 170,
        "6853": 159,
        "6854": 43,
        "6855": 214,
        "6856": 70,
        "6857": 32,
        "6858": 230,
        "6859": 213,
        "6860": 146,
        "6861": 177,
        "6862": 17,
        "6863": 18,
        "6864": 127,
        "6865": 64,
        "6866": 89,
        "6867": 196,
        "6868": 92,
        "6869": 177,
        "6870": 88,
        "6871": 76,
        "6872": 25,
        "6873": 102,
        "6874": 62,
        "6875": 9,
        "6876": 102,
        "6877": 3,
        "6878": 104,
        "6879": 197,
        "6880": 236,
        "6881": 171,
        "6882": 125,
        "6883": 185,
        "6884": 118,
        "6885": 217,
        "6886": 47,
        "6887": 171,
        "6888": 95,
        "6889": 164,
        "6890": 156,
        "6891": 46,
        "6892": 235,
        "6893": 124,
        "6894": 248,
        "6895": 81,
        "6896": 1,
        "6897": 224,
        "6898": 19,
        "6899": 159,
        "6900": 47,
        "6901": 55,
        "6902": 129,
        "6903": 197,
        "6904": 80,
        "6905": 219,
        "6906": 88,
        "6907": 201,
        "6908": 192,
        "6909": 56,
        "6910": 200,
        "6911": 231,
        "6912": 85,
        "6913": 234,
        "6914": 37,
        "6915": 101,
        "6916": 128,
        "6917": 5,
        "6918": 144,
        "6919": 202,
        "6920": 64,
        "6921": 47,
        "6922": 231,
        "6923": 195,
        "6924": 210,
        "6925": 84,
        "6926": 226,
        "6927": 149,
        "6928": 132,
        "6929": 88,
        "6930": 254,
        "6931": 197,
        "6932": 41,
        "6933": 36,
        "6934": 72,
        "6935": 161,
        "6936": 144,
        "6937": 48,
        "6938": 146,
        "6939": 210,
        "6940": 48,
        "6941": 85,
        "6942": 144,
        "6943": 146,
        "6944": 120,
        "6945": 21,
        "6946": 6,
        "6947": 49,
        "6948": 26,
        "6949": 244,
        "6950": 26,
        "6951": 137,
        "6952": 244,
        "6953": 242,
        "6954": 160,
        "6955": 139,
        "6956": 121,
        "6957": 184,
        "6958": 135,
        "6959": 239,
        "6960": 65,
        "6961": 64,
        "6962": 24,
        "6963": 77,
        "6964": 147,
        "6965": 119,
        "6966": 100,
        "6967": 176,
        "6968": 74,
        "6969": 104,
        "6970": 117,
        "6971": 171,
        "6972": 5,
        "6973": 243,
        "6974": 14,
        "6975": 82,
        "6976": 27,
        "6977": 52,
        "6978": 212,
        "6979": 221,
        "6980": 11,
        "6981": 31,
        "6982": 198,
        "6983": 139,
        "6984": 44,
        "6985": 48,
        "6986": 147,
        "6987": 118,
        "6988": 72,
        "6989": 30,
        "6990": 110,
        "6991": 231,
        "6992": 127,
        "6993": 46,
        "6994": 162,
        "6995": 225,
        "6996": 200,
        "6997": 42,
        "6998": 12,
        "6999": 61,
        "7000": 190,
        "7001": 177,
        "7002": 200,
        "7003": 9,
        "7004": 201,
        "7005": 60,
        "7006": 240,
        "7007": 64,
        "7008": 0,
        "7009": 69,
        "7010": 3,
        "7011": 171,
        "7012": 5,
        "7013": 223,
        "7014": 179,
        "7015": 254,
        "7016": 182,
        "7017": 86,
        "7018": 76,
        "7019": 121,
        "7020": 245,
        "7021": 247,
        "7022": 244,
        "7023": 61,
        "7024": 114,
        "7025": 85,
        "7026": 72,
        "7027": 202,
        "7028": 181,
        "7029": 96,
        "7030": 229,
        "7031": 153,
        "7032": 38,
        "7033": 201,
        "7034": 45,
        "7035": 163,
        "7036": 254,
        "7037": 59,
        "7038": 198,
        "7039": 128,
        "7040": 225,
        "7041": 77,
        "7042": 233,
        "7043": 128,
        "7044": 159,
        "7045": 107,
        "7046": 142,
        "7047": 69,
        "7048": 198,
        "7049": 186,
        "7050": 238,
        "7051": 235,
        "7052": 147,
        "7053": 68,
        "7054": 154,
        "7055": 86,
        "7056": 25,
        "7057": 61,
        "7058": 121,
        "7059": 137,
        "7060": 105,
        "7061": 109,
        "7062": 163,
        "7063": 31,
        "7064": 104,
        "7065": 184,
        "7066": 191,
        "7067": 10,
        "7068": 31,
        "7069": 60,
        "7070": 75,
        "7071": 224,
        "7072": 62,
        "7073": 235,
        "7074": 109,
        "7075": 194,
        "7076": 235,
        "7077": 111,
        "7078": 62,
        "7079": 62,
        "7080": 239,
        "7081": 101,
        "7082": 128,
        "7083": 51,
        "7084": 180,
        "7085": 98,
        "7086": 121,
        "7087": 81,
        "7088": 221,
        "7089": 154,
        "7090": 159,
        "7091": 149,
        "7092": 149,
        "7093": 97,
        "7094": 248,
        "7095": 148,
        "7096": 69,
        "7097": 253,
        "7098": 20,
        "7099": 192,
        "7100": 93,
        "7101": 211,
        "7102": 166,
        "7103": 159,
        "7104": 187,
        "7105": 221,
        "7106": 56,
        "7107": 237,
        "7108": 254,
        "7109": 1,
        "7110": 12,
        "7111": 252,
        "7112": 60,
        "7113": 57,
        "7114": 62,
        "7115": 182,
        "7116": 132,
        "7117": 4,
        "7118": 217,
        "7119": 246,
        "7120": 157,
        "7121": 4,
        "7122": 105,
        "7123": 182,
        "7124": 116,
        "7125": 59,
        "7126": 36,
        "7127": 35,
        "7128": 131,
        "7129": 94,
        "7130": 72,
        "7131": 34,
        "7132": 49,
        "7133": 50,
        "7134": 122,
        "7135": 56,
        "7136": 97,
        "7137": 185,
        "7138": 110,
        "7139": 155,
        "7140": 20,
        "7141": 185,
        "7142": 56,
        "7143": 77,
        "7144": 235,
        "7145": 115,
        "7146": 255,
        "7147": 14,
        "7148": 27,
        "7149": 180,
        "7150": 158,
        "7151": 38,
        "7152": 250,
        "7153": 51,
        "7154": 204,
        "7155": 111,
        "7156": 151,
        "7157": 13,
        "7158": 166,
        "7159": 79,
        "7160": 123,
        "7161": 102,
        "7162": 125,
        "7163": 115,
        "7164": 241,
        "7165": 81,
        "7166": 238,
        "7167": 98,
        "7168": 183,
        "7169": 67,
        "7170": 38,
        "7171": 86,
        "7172": 57,
        "7173": 13,
        "7174": 89,
        "7175": 31,
        "7176": 189,
        "7177": 151,
        "7178": 107,
        "7179": 59,
        "7180": 116,
        "7181": 129,
        "7182": 72,
        "7183": 137,
        "7184": 112,
        "7185": 15,
        "7186": 14,
        "7187": 185,
        "7188": 20,
        "7189": 26,
        "7190": 156,
        "7191": 77,
        "7192": 100,
        "7193": 32,
        "7194": 245,
        "7195": 38,
        "7196": 148,
        "7197": 22,
        "7198": 244,
        "7199": 96,
        "7200": 193,
        "7201": 133,
        "7202": 7,
        "7203": 224,
        "7204": 145,
        "7205": 71,
        "7206": 77,
        "7207": 89,
        "7208": 86,
        "7209": 26,
        "7210": 60,
        "7211": 172,
        "7212": 152,
        "7213": 183,
        "7214": 137,
        "7215": 172,
        "7216": 251,
        "7217": 220,
        "7218": 94,
        "7219": 229,
        "7220": 203,
        "7221": 52,
        "7222": 52,
        "7223": 91,
        "7224": 121,
        "7225": 63,
        "7226": 158,
        "7227": 143,
        "7228": 125,
        "7229": 40,
        "7230": 81,
        "7231": 152,
        "7232": 124,
        "7233": 231,
        "7234": 195,
        "7235": 75,
        "7236": 185,
        "7237": 54,
        "7238": 237,
        "7239": 162,
        "7240": 172,
        "7241": 26,
        "7242": 82,
        "7243": 120,
        "7244": 186,
        "7245": 22,
        "7246": 150,
        "7247": 237,
        "7248": 238,
        "7249": 197,
        "7250": 64,
        "7251": 68,
        "7252": 166,
        "7253": 35,
        "7254": 39,
        "7255": 157,
        "7256": 2,
        "7257": 237,
        "7258": 162,
        "7259": 123,
        "7260": 203,
        "7261": 90,
        "7262": 36,
        "7263": 210,
        "7264": 57,
        "7265": 196,
        "7266": 113,
        "7267": 8,
        "7268": 137,
        "7269": 104,
        "7270": 131,
        "7271": 8,
        "7272": 199,
        "7273": 197,
        "7274": 141,
        "7275": 235,
        "7276": 180,
        "7277": 152,
        "7278": 72,
        "7279": 85,
        "7280": 76,
        "7281": 64,
        "7282": 187,
        "7283": 38,
        "7284": 230,
        "7285": 118,
        "7286": 126,
        "7287": 242,
        "7288": 237,
        "7289": 206,
        "7290": 204,
        "7291": 246,
        "7292": 33,
        "7293": 141,
        "7294": 31,
        "7295": 127,
        "7296": 5,
        "7297": 133,
        "7298": 120,
        "7299": 83,
        "7300": 108,
        "7301": 160,
        "7302": 115,
        "7303": 32,
        "7304": 238,
        "7305": 77,
        "7306": 33,
        "7307": 84,
        "7308": 39,
        "7309": 188,
        "7310": 253,
        "7311": 208,
        "7312": 119,
        "7313": 213,
        "7314": 239,
        "7315": 79,
        "7316": 162,
        "7317": 51,
        "7318": 175,
        "7319": 138,
        "7320": 176,
        "7321": 62,
        "7322": 148,
        "7323": 10,
        "7324": 187,
        "7325": 49,
        "7326": 124,
        "7327": 0,
        "7328": 7,
        "7329": 48,
        "7330": 16,
        "7331": 135,
        "7332": 151,
        "7333": 254,
        "7334": 186,
        "7335": 223,
        "7336": 60,
        "7337": 87,
        "7338": 68,
        "7339": 250,
        "7340": 135,
        "7341": 234,
        "7342": 114,
        "7343": 196,
        "7344": 23,
        "7345": 75,
        "7346": 247,
        "7347": 159,
        "7348": 27,
        "7349": 2,
        "7350": 170,
        "7351": 91,
        "7352": 57,
        "7353": 141,
        "7354": 174,
        "7355": 90,
        "7356": 123,
        "7357": 188,
        "7358": 206,
        "7359": 101,
        "7360": 230,
        "7361": 135,
        "7362": 199,
        "7363": 118,
        "7364": 203,
        "7365": 160,
        "7366": 21,
        "7367": 182,
        "7368": 188,
        "7369": 52,
        "7370": 127,
        "7371": 136,
        "7372": 37,
        "7373": 87,
        "7374": 61,
        "7375": 201,
        "7376": 2,
        "7377": 86,
        "7378": 185,
        "7379": 91,
        "7380": 181,
        "7381": 201,
        "7382": 222,
        "7383": 214,
        "7384": 57,
        "7385": 108,
        "7386": 227,
        "7387": 50,
        "7388": 119,
        "7389": 154,
        "7390": 215,
        "7391": 88,
        "7392": 2,
        "7393": 193,
        "7394": 253,
        "7395": 96,
        "7396": 48,
        "7397": 134,
        "7398": 134,
        "7399": 210,
        "7400": 16,
        "7401": 136,
        "7402": 29,
        "7403": 29,
        "7404": 88,
        "7405": 81,
        "7406": 120,
        "7407": 76,
        "7408": 229,
        "7409": 242,
        "7410": 4,
        "7411": 71,
        "7412": 192,
        "7413": 176,
        "7414": 101,
        "7415": 243,
        "7416": 104,
        "7417": 88,
        "7418": 206,
        "7419": 209,
        "7420": 111,
        "7421": 112,
        "7422": 3,
        "7423": 77,
        "7424": 54,
        "7425": 47,
        "7426": 116,
        "7427": 114,
        "7428": 17,
        "7429": 57,
        "7430": 58,
        "7431": 44,
        "7432": 176,
        "7433": 242,
        "7434": 29,
        "7435": 64,
        "7436": 24,
        "7437": 24,
        "7438": 93,
        "7439": 247,
        "7440": 96,
        "7441": 88,
        "7442": 203,
        "7443": 63,
        "7444": 179,
        "7445": 63,
        "7446": 113,
        "7447": 58,
        "7448": 73,
        "7449": 243,
        "7450": 71,
        "7451": 89,
        "7452": 60,
        "7453": 107,
        "7454": 104,
        "7455": 88,
        "7456": 250,
        "7457": 125,
        "7458": 145,
        "7459": 228,
        "7460": 173,
        "7461": 107,
        "7462": 109,
        "7463": 52,
        "7464": 82,
        "7465": 155,
        "7466": 231,
        "7467": 175,
        "7468": 229,
        "7469": 226,
        "7470": 99,
        "7471": 207,
        "7472": 8,
        "7473": 149,
        "7474": 170,
        "7475": 250,
        "7476": 155,
        "7477": 133,
        "7478": 58,
        "7479": 133,
        "7480": 61,
        "7481": 97,
        "7482": 169,
        "7483": 61,
        "7484": 127,
        "7485": 130,
        "7486": 76,
        "7487": 212,
        "7488": 165,
        "7489": 233,
        "7490": 154,
        "7491": 11,
        "7492": 89,
        "7493": 195,
        "7494": 186,
        "7495": 159,
        "7496": 210,
        "7497": 164,
        "7498": 9,
        "7499": 37,
        "7500": 64,
        "7501": 75,
        "7502": 190,
        "7503": 124,
        "7504": 90,
        "7505": 218,
        "7506": 181,
        "7507": 72,
        "7508": 254,
        "7509": 83,
        "7510": 74,
        "7511": 49,
        "7512": 57,
        "7513": 3,
        "7514": 103,
        "7515": 252,
        "7516": 3,
        "7517": 124,
        "7518": 180,
        "7519": 199,
        "7520": 71,
        "7521": 102,
        "7522": 225,
        "7523": 255,
        "7524": 220,
        "7525": 17,
        "7526": 238,
        "7527": 142,
        "7528": 158,
        "7529": 95,
        "7530": 85,
        "7531": 156,
        "7532": 240,
        "7533": 227,
        "7534": 120,
        "7535": 252,
        "7536": 125,
        "7537": 220,
        "7538": 255,
        "7539": 210,
        "7540": 224,
        "7541": 10,
        "7542": 255,
        "7543": 162,
        "7544": 105,
        "7545": 214,
        "7546": 126,
        "7547": 248,
        "7548": 235,
        "7549": 32,
        "7550": 21,
        "7551": 175,
        "7552": 97,
        "7553": 202,
        "7554": 154,
        "7555": 170,
        "7556": 183,
        "7557": 249,
        "7558": 135,
        "7559": 192,
        "7560": 32,
        "7561": 172,
        "7562": 26,
        "7563": 136,
        "7564": 89,
        "7565": 73,
        "7566": 16,
        "7567": 14,
        "7568": 246,
        "7569": 145,
        "7570": 134,
        "7571": 194,
        "7572": 130,
        "7573": 51,
        "7574": 94,
        "7575": 161,
        "7576": 21,
        "7577": 87,
        "7578": 145,
        "7579": 198,
        "7580": 39,
        "7581": 113,
        "7582": 4,
        "7583": 91,
        "7584": 55,
        "7585": 34,
        "7586": 179,
        "7587": 209,
        "7588": 81,
        "7589": 204,
        "7590": 123,
        "7591": 86,
        "7592": 180,
        "7593": 6,
        "7594": 37,
        "7595": 55,
        "7596": 20,
        "7597": 155,
        "7598": 117,
        "7599": 187,
        "7600": 75,
        "7601": 40,
        "7602": 82,
        "7603": 206,
        "7604": 53,
        "7605": 91,
        "7606": 15,
        "7607": 209,
        "7608": 233,
        "7609": 1,
        "7610": 191,
        "7611": 75,
        "7612": 115,
        "7613": 129,
        "7614": 128,
        "7615": 132,
        "7616": 231,
        "7617": 51,
        "7618": 5,
        "7619": 123,
        "7620": 153,
        "7621": 193,
        "7622": 48,
        "7623": 145,
        "7624": 14,
        "7625": 178,
        "7626": 14,
        "7627": 92,
        "7628": 138,
        "7629": 185,
        "7630": 116,
        "7631": 106,
        "7632": 96,
        "7633": 170,
        "7634": 5,
        "7635": 162,
        "7636": 216,
        "7637": 111,
        "7638": 104,
        "7639": 109,
        "7640": 122,
        "7641": 191,
        "7642": 241,
        "7643": 189,
        "7644": 151,
        "7645": 170,
        "7646": 239,
        "7647": 94,
        "7648": 174,
        "7649": 224,
        "7650": 190,
        "7651": 182,
        "7652": 222,
        "7653": 181,
        "7654": 93,
        "7655": 239,
        "7656": 205,
        "7657": 94,
        "7658": 156,
        "7659": 72,
        "7660": 100,
        "7661": 244,
        "7662": 103,
        "7663": 122,
        "7664": 58,
        "7665": 103,
        "7666": 49,
        "7667": 34,
        "7668": 198,
        "7669": 171,
        "7670": 44,
        "7671": 114,
        "7672": 208,
        "7673": 21,
        "7674": 103,
        "7675": 148,
        "7676": 226,
        "7677": 97,
        "7678": 20,
        "7679": 99,
        "7680": 159,
        "7681": 219,
        "7682": 158,
        "7683": 189,
        "7684": 246,
        "7685": 250,
        "7686": 48,
        "7687": 142,
        "7688": 16,
        "7689": 151,
        "7690": 241,
        "7691": 244,
        "7692": 124,
        "7693": 52,
        "7694": 109,
        "7695": 19,
        "7696": 154,
        "7697": 173,
        "7698": 43,
        "7699": 162,
        "7700": 180,
        "7701": 212,
        "7702": 14,
        "7703": 44,
        "7704": 159,
        "7705": 199,
        "7706": 237,
        "7707": 172,
        "7708": 116,
        "7709": 129,
        "7710": 110,
        "7711": 192,
        "7712": 145,
        "7713": 96,
        "7714": 45,
        "7715": 38,
        "7716": 246,
        "7717": 220,
        "7718": 207,
        "7719": 91,
        "7720": 220,
        "7721": 63,
        "7722": 244,
        "7723": 149,
        "7724": 202,
        "7725": 97,
        "7726": 118,
        "7727": 215,
        "7728": 27,
        "7729": 216,
        "7730": 250,
        "7731": 147,
        "7732": 141,
        "7733": 148,
        "7734": 130,
        "7735": 49,
        "7736": 4,
        "7737": 222,
        "7738": 51,
        "7739": 66,
        "7740": 66,
        "7741": 83,
        "7742": 184,
        "7743": 227,
        "7744": 196,
        "7745": 171,
        "7746": 246,
        "7747": 229,
        "7748": 234,
        "7749": 39,
        "7750": 205,
        "7751": 34,
        "7752": 79,
        "7753": 254,
        "7754": 119,
        "7755": 46,
        "7756": 15,
        "7757": 199,
        "7758": 83,
        "7759": 70,
        "7760": 219,
        "7761": 29,
        "7762": 164,
        "7763": 5,
        "7764": 138,
        "7765": 135,
        "7766": 139,
        "7767": 6,
        "7768": 246,
        "7769": 34,
        "7770": 27,
        "7771": 162,
        "7772": 232,
        "7773": 176,
        "7774": 13,
        "7775": 226,
        "7776": 116,
        "7777": 138,
        "7778": 133,
        "7779": 226,
        "7780": 82,
        "7781": 153,
        "7782": 219,
        "7783": 176,
        "7784": 164,
        "7785": 230,
        "7786": 125,
        "7787": 109,
        "7788": 23,
        "7789": 175,
        "7790": 55,
        "7791": 162,
        "7792": 124,
        "7793": 225,
        "7794": 155,
        "7795": 107,
        "7796": 79,
        "7797": 237,
        "7798": 25,
        "7799": 158,
        "7800": 114,
        "7801": 38,
        "7802": 210,
        "7803": 252,
        "7804": 245,
        "7805": 172,
        "7806": 221,
        "7807": 158,
        "7808": 94,
        "7809": 29,
        "7810": 255,
        "7811": 157,
        "7812": 111,
        "7813": 163,
        "7814": 45,
        "7815": 12,
        "7816": 158,
        "7817": 199,
        "7818": 125,
        "7819": 125,
        "7820": 57,
        "7821": 233,
        "7822": 2,
        "7823": 227,
        "7824": 18,
        "7825": 127,
        "7826": 247,
        "7827": 218,
        "7828": 206,
        "7829": 66,
        "7830": 48,
        "7831": 85,
        "7832": 23,
        "7833": 92,
        "7834": 86,
        "7835": 237,
        "7836": 246,
        "7837": 205,
        "7838": 159,
        "7839": 125,
        "7840": 210,
        "7841": 135,
        "7842": 231,
        "7843": 205,
        "7844": 77,
        "7845": 123,
        "7846": 45,
        "7847": 210,
        "7848": 181,
        "7849": 110,
        "7850": 65,
        "7851": 11,
        "7852": 68,
        "7853": 116,
        "7854": 126,
        "7855": 214,
        "7856": 191,
        "7857": 110,
        "7858": 109,
        "7859": 249,
        "7860": 36,
        "7861": 121,
        "7862": 69,
        "7863": 191,
        "7864": 99,
        "7865": 2,
        "7866": 117,
        "7867": 127,
        "7868": 163,
        "7869": 191,
        "7870": 208,
        "7871": 169,
        "7872": 135,
        "7873": 152,
        "7874": 191,
        "7875": 62,
        "7876": 82,
        "7877": 83,
        "7878": 182,
        "7879": 165,
        "7880": 107,
        "7881": 63,
        "7882": 250,
        "7883": 34,
        "7884": 156,
        "7885": 134,
        "7886": 242,
        "7887": 118,
        "7888": 191,
        "7889": 15,
        "7890": 124,
        "7891": 150,
        "7892": 245,
        "7893": 178,
        "7894": 11,
        "7895": 119,
        "7896": 238,
        "7897": 64,
        "7898": 199,
        "7899": 192,
        "7900": 179,
        "7901": 36,
        "7902": 8,
        "7903": 18,
        "7904": 124,
        "7905": 109,
        "7906": 120,
        "7907": 187,
        "7908": 185,
        "7909": 5,
        "7910": 140,
        "7911": 251,
        "7912": 89,
        "7913": 109,
        "7914": 69,
        "7915": 90,
        "7916": 207,
        "7917": 51,
        "7918": 159,
        "7919": 83,
        "7920": 37,
        "7921": 237,
        "7922": 38,
        "7923": 5,
        "7924": 136,
        "7925": 192,
        "7926": 133,
        "7927": 177,
        "7928": 152,
        "7929": 6,
        "7930": 75,
        "7931": 220,
        "7932": 176,
        "7933": 114,
        "7934": 162,
        "7935": 52,
        "7936": 117,
        "7937": 87,
        "7938": 105,
        "7939": 26,
        "7940": 233,
        "7941": 107,
        "7942": 89,
        "7943": 142,
        "7944": 62,
        "7945": 153,
        "7946": 197,
        "7947": 30,
        "7948": 226,
        "7949": 245,
        "7950": 9,
        "7951": 207,
        "7952": 33,
        "7953": 70,
        "7954": 211,
        "7955": 233,
        "7956": 119,
        "7957": 122,
        "7958": 41,
        "7959": 210,
        "7960": 116,
        "7961": 187,
        "7962": 136,
        "7963": 236,
        "7964": 197,
        "7965": 184,
        "7966": 93,
        "7967": 12,
        "7968": 134,
        "7969": 16,
        "7970": 178,
        "7971": 123,
        "7972": 76,
        "7973": 249,
        "7974": 73,
        "7975": 56,
        "7976": 78,
        "7977": 66,
        "7978": 7,
        "7979": 157,
        "7980": 41,
        "7981": 111,
        "7982": 205,
        "7983": 20,
        "7984": 162,
        "7985": 132,
        "7986": 127,
        "7987": 227,
        "7988": 163,
        "7989": 21,
        "7990": 45,
        "7991": 96,
        "7992": 112,
        "7993": 9,
        "7994": 212,
        "7995": 230,
        "7996": 152,
        "7997": 12,
        "7998": 64,
        "7999": 228,
        "8000": 8,
        "8001": 43,
        "8002": 197,
        "8003": 150,
        "8004": 21,
        "8005": 126,
        "8006": 80,
        "8007": 68,
        "8008": 67,
        "8009": 114,
        "8010": 54,
        "8011": 27,
        "8012": 206,
        "8013": 68,
        "8014": 206,
        "8015": 175,
        "8016": 23,
        "8017": 89,
        "8018": 184,
        "8019": 160,
        "8020": 178,
        "8021": 171,
        "8022": 219,
        "8023": 80,
        "8024": 36,
        "8025": 239,
        "8026": 86,
        "8027": 175,
        "8028": 251,
        "8029": 149,
        "8030": 137,
        "8031": 139,
        "8032": 150,
        "8033": 247,
        "8034": 136,
        "8035": 55,
        "8036": 26,
        "8037": 25,
        "8038": 182,
        "8039": 37,
        "8040": 14,
        "8041": 48,
        "8042": 11,
        "8043": 51,
        "8044": 144,
        "8045": 163,
        "8046": 255,
        "8047": 80,
        "8048": 40,
        "8049": 80,
        "8050": 152,
        "8051": 206,
        "8052": 80,
        "8053": 7,
        "8054": 144,
        "8055": 230,
        "8056": 152,
        "8057": 214,
        "8058": 36,
        "8059": 14,
        "8060": 170,
        "8061": 20,
        "8062": 70,
        "8063": 248,
        "8064": 183,
        "8065": 118,
        "8066": 43,
        "8067": 254,
        "8068": 108,
        "8069": 119,
        "8070": 17,
        "8071": 151,
        "8072": 93,
        "8073": 183,
        "8074": 194,
        "8075": 108,
        "8076": 142,
        "8077": 12,
        "8078": 153,
        "8079": 51,
        "8080": 184,
        "8081": 129,
        "8082": 215,
        "8083": 19,
        "8084": 140,
        "8085": 77,
        "8086": 161,
        "8087": 11,
        "8088": 49,
        "8089": 3,
        "8090": 104,
        "8091": 159,
        "8092": 226,
        "8093": 229,
        "8094": 209,
        "8095": 194,
        "8096": 255,
        "8097": 254,
        "8098": 72,
        "8099": 61,
        "8100": 241,
        "8101": 150,
        "8102": 4,
        "8103": 95,
        "8104": 200,
        "8105": 143,
        "8106": 23,
        "8107": 153,
        "8108": 0,
        "8109": 47,
        "8110": 187,
        "8111": 32,
        "8112": 80,
        "8113": 200,
        "8114": 34,
        "8115": 209,
        "8116": 237,
        "8117": 118,
        "8118": 84,
        "8119": 46,
        "8120": 85,
        "8121": 87,
        "8122": 140,
        "8123": 48,
        "8124": 19,
        "8125": 220,
        "8126": 143,
        "8127": 207,
        "8128": 183,
        "8129": 183,
        "8130": 156,
        "8131": 198,
        "8132": 19,
        "8133": 162,
        "8134": 249,
        "8135": 170,
        "8136": 97,
        "8137": 213,
        "8138": 64,
        "8139": 132,
        "8140": 159,
        "8141": 62,
        "8142": 63,
        "8143": 16,
        "8144": 74,
        "8145": 114,
        "8146": 21,
        "8147": 252,
        "8148": 189,
        "8149": 219,
        "8150": 125,
        "8151": 83,
        "8152": 181,
        "8153": 5,
        "8154": 180,
        "8155": 63,
        "8156": 111,
        "8157": 13,
        "8158": 182,
        "8159": 51,
        "8160": 64,
        "8161": 111,
        "8162": 43,
        "8163": 99,
        "8164": 92,
        "8165": 20,
        "8166": 123,
        "8167": 125,
        "8168": 27,
        "8169": 243,
        "8170": 214,
        "8171": 240,
        "8172": 127,
        "8173": 29,
        "8174": 204,
        "8175": 188,
        "8176": 186,
        "8177": 173,
        "8178": 88,
        "8179": 232,
        "8180": 24,
        "8181": 186,
        "8182": 37,
        "8183": 72,
        "8184": 149,
        "8185": 232,
        "8186": 98,
        "8187": 53,
        "8188": 92,
        "8189": 47,
        "8190": 53,
        "8191": 211,
        "8192": 141,
        "8193": 190,
        "8194": 109,
        "8195": 182,
        "8196": 141,
        "8197": 104,
        "8198": 107,
        "8199": 76,
        "8200": 226,
        "8201": 117,
        "8202": 236,
        "8203": 40,
        "8204": 22,
        "8205": 238,
        "8206": 171,
        "8207": 111,
        "8208": 67,
        "8209": 105,
        "8210": 23,
        "8211": 55,
        "8212": 27,
        "8213": 50,
        "8214": 238,
        "8215": 233,
        "8216": 218,
        "8217": 24,
        "8218": 209,
        "8219": 240,
        "8220": 234,
        "8221": 28,
        "8222": 220,
        "8223": 232,
        "8224": 163,
        "8225": 218,
        "8226": 53,
        "8227": 156,
        "8228": 77,
        "8229": 222,
        "8230": 4,
        "8231": 102,
        "8232": 37,
        "8233": 6,
        "8234": 68,
        "8235": 213,
        "8236": 233,
        "8237": 228,
        "8238": 120,
        "8239": 105,
        "8240": 144,
        "8241": 119,
        "8242": 193,
        "8243": 102,
        "8244": 146,
        "8245": 104,
        "8246": 38,
        "8247": 53,
        "8248": 132,
        "8249": 248,
        "8250": 204,
        "8251": 174,
        "8252": 207,
        "8253": 111,
        "8254": 20,
        "8255": 210,
        "8256": 135,
        "8257": 160,
        "8258": 113,
        "8259": 137,
        "8260": 192,
        "8261": 204,
        "8262": 115,
        "8263": 252,
        "8264": 225,
        "8265": 111,
        "8266": 122,
        "8267": 108,
        "8268": 206,
        "8269": 3,
        "8270": 190,
        "8271": 217,
        "8272": 244,
        "8273": 161,
        "8274": 28,
        "8275": 80,
        "8276": 248,
        "8277": 63,
        "8278": 253,
        "8279": 174,
        "8280": 223,
        "8281": 138,
        "8282": 118,
        "8283": 125,
        "8284": 226,
        "8285": 182,
        "8286": 178,
        "8287": 156,
        "8288": 10,
        "8289": 86,
        "8290": 74,
        "8291": 49,
        "8292": 114,
        "8293": 99,
        "8294": 67,
        "8295": 138,
        "8296": 16,
        "8297": 229,
        "8298": 178,
        "8299": 10,
        "8300": 185,
        "8301": 160,
        "8302": 59,
        "8303": 34,
        "8304": 16,
        "8305": 201,
        "8306": 146,
        "8307": 10,
        "8308": 234,
        "8309": 228,
        "8310": 135,
        "8311": 139,
        "8312": 150,
        "8313": 28,
        "8314": 127,
        "8315": 118,
        "8316": 210,
        "8317": 95,
        "8318": 111,
        "8319": 96,
        "8320": 106,
        "8321": 159,
        "8322": 207,
        "8323": 211,
        "8324": 190,
        "8325": 24,
        "8326": 170,
        "8327": 12,
        "8328": 198,
        "8329": 143,
        "8330": 31,
        "8331": 140,
        "8332": 113,
        "8333": 206,
        "8334": 159,
        "8335": 103,
        "8336": 16,
        "8337": 224,
        "8338": 230,
        "8339": 46,
        "8340": 234,
        "8341": 37,
        "8342": 33,
        "8343": 165,
        "8344": 232,
        "8345": 216,
        "8346": 23,
        "8347": 149,
        "8348": 183,
        "8349": 50,
        "8350": 201,
        "8351": 18,
        "8352": 158,
        "8353": 64,
        "8354": 244,
        "8355": 149,
        "8356": 245,
        "8357": 6,
        "8358": 52,
        "8359": 151,
        "8360": 111,
        "8361": 121,
        "8362": 8,
        "8363": 2,
        "8364": 68,
        "8365": 116,
        "8366": 74,
        "8367": 44,
        "8368": 49,
        "8369": 160,
        "8370": 97,
        "8371": 7,
        "8372": 39,
        "8373": 25,
        "8374": 89,
        "8375": 50,
        "8376": 67,
        "8377": 198,
        "8378": 105,
        "8379": 30,
        "8380": 133,
        "8381": 124,
        "8382": 142,
        "8383": 113,
        "8384": 46,
        "8385": 86,
        "8386": 209,
        "8387": 144,
        "8388": 51,
        "8389": 134,
        "8390": 160,
        "8391": 190,
        "8392": 58,
        "8393": 5,
        "8394": 73,
        "8395": 203,
        "8396": 150,
        "8397": 22,
        "8398": 34,
        "8399": 172,
        "8400": 236,
        "8401": 226,
        "8402": 162,
        "8403": 19,
        "8404": 11,
        "8405": 131,
        "8406": 116,
        "8407": 166,
        "8408": 173,
        "8409": 216,
        "8410": 236,
        "8411": 93,
        "8412": 228,
        "8413": 147,
        "8414": 192,
        "8415": 1,
        "8416": 6,
        "8417": 134,
        "8418": 206,
        "8419": 98,
        "8420": 80,
        "8421": 182,
        "8422": 131,
        "8423": 115,
        "8424": 185,
        "8425": 179,
        "8426": 104,
        "8427": 147,
        "8428": 171,
        "8429": 124,
        "8430": 182,
        "8431": 56,
        "8432": 126,
        "8433": 47,
        "8434": 18,
        "8435": 47,
        "8436": 243,
        "8437": 209,
        "8438": 83,
        "8439": 206,
        "8440": 138,
        "8441": 88,
        "8442": 172,
        "8443": 126,
        "8444": 200,
        "8445": 248,
        "8446": 115,
        "8447": 122,
        "8448": 165,
        "8449": 179,
        "8450": 16,
        "8451": 57,
        "8452": 17,
        "8453": 189,
        "8454": 132,
        "8455": 179,
        "8456": 79,
        "8457": 67,
        "8458": 132,
        "8459": 152,
        "8460": 244,
        "8461": 4,
        "8462": 151,
        "8463": 6,
        "8464": 252,
        "8465": 161,
        "8466": 152,
        "8467": 213,
        "8468": 66,
        "8469": 167,
        "8470": 104,
        "8471": 241,
        "8472": 123,
        "8473": 233,
        "8474": 255,
        "8475": 12,
        "8476": 225,
        "8477": 100,
        "8478": 106,
        "8479": 9,
        "8480": 180,
        "8481": 53,
        "8482": 187,
        "8483": 227,
        "8484": 193,
        "8485": 42,
        "8486": 140,
        "8487": 200,
        "8488": 163,
        "8489": 196,
        "8490": 9,
        "8491": 201,
        "8492": 159,
        "8493": 250,
        "8494": 193,
        "8495": 105,
        "8496": 206,
        "8497": 179,
        "8498": 8,
        "8499": 238,
        "8500": 181,
        "8501": 94,
        "8502": 30,
        "8503": 213,
        "8504": 80,
        "8505": 58,
        "8506": 49,
        "8507": 180,
        "8508": 28,
        "8509": 33,
        "8510": 181,
        "8511": 14,
        "8512": 209,
        "8513": 66,
        "8514": 41,
        "8515": 18,
        "8516": 142,
        "8517": 203,
        "8518": 78,
        "8519": 40,
        "8520": 41,
        "8521": 0,
        "8522": 125,
        "8523": 125,
        "8524": 107,
        "8525": 185,
        "8526": 255,
        "8527": 166,
        "8528": 164,
        "8529": 213,
        "8530": 132,
        "8531": 249,
        "8532": 200,
        "8533": 64,
        "8534": 37,
        "8535": 183,
        "8536": 224,
        "8537": 80,
        "8538": 27,
        "8539": 16,
        "8540": 215,
        "8541": 141,
        "8542": 198,
        "8543": 210,
        "8544": 110,
        "8545": 211,
        "8546": 117,
        "8547": 59,
        "8548": 12,
        "8549": 54,
        "8550": 146,
        "8551": 36,
        "8552": 125,
        "8553": 31,
        "8554": 165,
        "8555": 137,
        "8556": 46,
        "8557": 56,
        "8558": 246,
        "8559": 92,
        "8560": 1,
        "8561": 90,
        "8562": 223,
        "8563": 214,
        "8564": 143,
        "8565": 223,
        "8566": 189,
        "8567": 176,
        "8568": 34,
        "8569": 194,
        "8570": 55,
        "8571": 131,
        "8572": 9,
        "8573": 178,
        "8574": 7,
        "8575": 222,
        "8576": 82,
        "8577": 123,
        "8578": 208,
        "8579": 227,
        "8580": 69,
        "8581": 35,
        "8582": 70,
        "8583": 12,
        "8584": 188,
        "8585": 251,
        "8586": 100,
        "8587": 140,
        "8588": 88,
        "8589": 177,
        "8590": 176,
        "8591": 163,
        "8592": 20,
        "8593": 246,
        "8594": 195,
        "8595": 14,
        "8596": 243,
        "8597": 190,
        "8598": 166,
        "8599": 240,
        "8600": 194,
        "8601": 254,
        "8602": 242,
        "8603": 189,
        "8604": 137,
        "8605": 98,
        "8606": 99,
        "8607": 229,
        "8608": 185,
        "8609": 3,
        "8610": 8,
        "8611": 18,
        "8612": 27,
        "8613": 99,
        "8614": 83,
        "8615": 128,
        "8616": 24,
        "8617": 5,
        "8618": 167,
        "8619": 138,
        "8620": 242,
        "8621": 208,
        "8622": 189,
        "8623": 10,
        "8624": 206,
        "8625": 227,
        "8626": 14,
        "8627": 204,
        "8628": 81,
        "8629": 206,
        "8630": 158,
        "8631": 185,
        "8632": 128,
        "8633": 96,
        "8634": 64,
        "8635": 237,
        "8636": 63,
        "8637": 117,
        "8638": 170,
        "8639": 168,
        "8640": 24,
        "8641": 65,
        "8642": 150,
        "8643": 11,
        "8644": 137,
        "8645": 235,
        "8646": 98,
        "8647": 99,
        "8648": 38,
        "8649": 36,
        "8650": 7,
        "8651": 131,
        "8652": 206,
        "8653": 74,
        "8654": 120,
        "8655": 152,
        "8656": 83,
        "8657": 57,
        "8658": 126,
        "8659": 199,
        "8660": 86,
        "8661": 89,
        "8662": 179,
        "8663": 177,
        "8664": 21,
        "8665": 179,
        "8666": 53,
        "8667": 244,
        "8668": 140,
        "8669": 62,
        "8670": 212,
        "8671": 126,
        "8672": 86,
        "8673": 49,
        "8674": 94,
        "8675": 120,
        "8676": 38,
        "8677": 133,
        "8678": 137,
        "8679": 173,
        "8680": 174,
        "8681": 225,
        "8682": 203,
        "8683": 161,
        "8684": 59,
        "8685": 172,
        "8686": 217,
        "8687": 7,
        "8688": 23,
        "8689": 75,
        "8690": 110,
        "8691": 62,
        "8692": 11,
        "8693": 70,
        "8694": 155,
        "8695": 147,
        "8696": 77,
        "8697": 242,
        "8698": 178,
        "8699": 232,
        "8700": 75,
        "8701": 168,
        "8702": 20,
        "8703": 162,
        "8704": 18,
        "8705": 26,
        "8706": 55,
        "8707": 90,
        "8708": 51,
        "8709": 47,
        "8710": 92,
        "8711": 180,
        "8712": 20,
        "8713": 181,
        "8714": 73,
        "8715": 191,
        "8716": 231,
        "8717": 1,
        "8718": 103,
        "8719": 133,
        "8720": 84,
        "8721": 145,
        "8722": 13,
        "8723": 175,
        "8724": 229,
        "8725": 62,
        "8726": 190,
        "8727": 241,
        "8728": 177,
        "8729": 41,
        "8730": 46,
        "8731": 219,
        "8732": 163,
        "8733": 216,
        "8734": 235,
        "8735": 151,
        "8736": 146,
        "8737": 122,
        "8738": 161,
        "8739": 76,
        "8740": 103,
        "8741": 70,
        "8742": 213,
        "8743": 17,
        "8744": 222,
        "8745": 88,
        "8746": 42,
        "8747": 247,
        "8748": 171,
        "8749": 214,
        "8750": 165,
        "8751": 47,
        "8752": 180,
        "8753": 21,
        "8754": 15,
        "8755": 137,
        "8756": 0,
        "8757": 127,
        "8758": 156,
        "8759": 165,
        "8760": 10,
        "8761": 153,
        "8762": 78,
        "8763": 163,
        "8764": 105,
        "8765": 229,
        "8766": 0,
        "8767": 252,
        "8768": 168,
        "8769": 42,
        "8770": 61,
        "8771": 226,
        "8772": 45,
        "8773": 158,
        "8774": 246,
        "8775": 53,
        "8776": 227,
        "8777": 15,
        "8778": 254,
        "8779": 114,
        "8780": 179,
        "8781": 85,
        "8782": 165,
        "8783": 67,
        "8784": 194,
        "8785": 9,
        "8786": 2,
        "8787": 106,
        "8788": 104,
        "8789": 77,
        "8790": 62,
        "8791": 220,
        "8792": 124,
        "8793": 126,
        "8794": 87,
        "8795": 139,
        "8796": 187,
        "8797": 61,
        "8798": 184,
        "8799": 55,
        "8800": 163,
        "8801": 139,
        "8802": 134,
        "8803": 30,
        "8804": 57,
        "8805": 209,
        "8806": 191,
        "8807": 156,
        "8808": 180,
        "8809": 57,
        "8810": 211,
        "8811": 96,
        "8812": 148,
        "8813": 233,
        "8814": 245,
        "8815": 181,
        "8816": 63,
        "8817": 105,
        "8818": 8,
        "8819": 142,
        "8820": 10,
        "8821": 113,
        "8822": 141,
        "8823": 226,
        "8824": 33,
        "8825": 21,
        "8826": 116,
        "8827": 32,
        "8828": 113,
        "8829": 235,
        "8830": 79,
        "8831": 27,
        "8832": 182,
        "8833": 168,
        "8834": 248,
        "8835": 75,
        "8836": 72,
        "8837": 97,
        "8838": 82,
        "8839": 88,
        "8840": 184,
        "8841": 150,
        "8842": 207,
        "8843": 225,
        "8844": 244,
        "8845": 253,
        "8846": 102,
        "8847": 248,
        "8848": 26,
        "8849": 107,
        "8850": 236,
        "8851": 148,
        "8852": 64,
        "8853": 92,
        "8854": 122,
        "8855": 67,
        "8856": 100,
        "8857": 69,
        "8858": 102,
        "8859": 54,
        "8860": 233,
        "8861": 180,
        "8862": 36,
        "8863": 160,
        "8864": 91,
        "8865": 194,
        "8866": 201,
        "8867": 253,
        "8868": 72,
        "8869": 20,
        "8870": 238,
        "8871": 196,
        "8872": 58,
        "8873": 40,
        "8874": 90,
        "8875": 27,
        "8876": 176,
        "8877": 163,
        "8878": 227,
        "8879": 123,
        "8880": 46,
        "8881": 53,
        "8882": 15,
        "8883": 162,
        "8884": 238,
        "8885": 240,
        "8886": 81,
        "8887": 108,
        "8888": 132,
        "8889": 204,
        "8890": 9,
        "8891": 212,
        "8892": 87,
        "8893": 30,
        "8894": 233,
        "8895": 89,
        "8896": 113,
        "8897": 186,
        "8898": 199,
        "8899": 128,
        "8900": 107,
        "8901": 166,
        "8902": 158,
        "8903": 156,
        "8904": 169,
        "8905": 104,
        "8906": 109,
        "8907": 126,
        "8908": 21,
        "8909": 219,
        "8910": 102,
        "8911": 141,
        "8912": 174,
        "8913": 251,
        "8914": 244,
        "8915": 12,
        "8916": 179,
        "8917": 71,
        "8918": 14,
        "8919": 182,
        "8920": 6,
        "8921": 224,
        "8922": 136,
        "8923": 55,
        "8924": 175,
        "8925": 60,
        "8926": 234,
        "8927": 95,
        "8928": 251,
        "8929": 176,
        "8930": 64,
        "8931": 54,
        "8932": 118,
        "8933": 188,
        "8934": 196,
        "8935": 122,
        "8936": 231,
        "8937": 181,
        "8938": 148,
        "8939": 120,
        "8940": 146,
        "8941": 18,
        "8942": 234,
        "8943": 21,
        "8944": 126,
        "8945": 219,
        "8946": 131,
        "8947": 141,
        "8948": 178,
        "8949": 181,
        "8950": 200,
        "8951": 141,
        "8952": 11,
        "8953": 137,
        "8954": 120,
        "8955": 172,
        "8956": 130,
        "8957": 99,
        "8958": 235,
        "8959": 171,
        "8960": 92,
        "8961": 65,
        "8962": 48,
        "8963": 243,
        "8964": 20,
        "8965": 72,
        "8966": 42,
        "8967": 15,
        "8968": 81,
        "8969": 114,
        "8970": 157,
        "8971": 100,
        "8972": 37,
        "8973": 206,
        "8974": 240,
        "8975": 101,
        "8976": 241,
        "8977": 234,
        "8978": 87,
        "8979": 210,
        "8980": 194,
        "8981": 159,
        "8982": 183,
        "8983": 194,
        "8984": 80,
        "8985": 248,
        "8986": 215,
        "8987": 221,
        "8988": 143,
        "8989": 96,
        "8990": 153,
        "8991": 211,
        "8992": 69,
        "8993": 238,
        "8994": 190,
        "8995": 194,
        "8996": 103,
        "8997": 43,
        "8998": 96,
        "8999": 110,
        "9000": 84,
        "9001": 110,
        "9002": 78,
        "9003": 182,
        "9004": 185,
        "9005": 47,
        "9006": 232,
        "9007": 15,
        "9008": 75,
        "9009": 28,
        "9010": 129,
        "9011": 220,
        "9012": 142,
        "9013": 6,
        "9014": 139,
        "9015": 204,
        "9016": 252,
        "9017": 199,
        "9018": 231,
        "9019": 198,
        "9020": 208,
        "9021": 209,
        "9022": 128,
        "9023": 124,
        "9024": 220,
        "9025": 188,
        "9026": 194,
        "9027": 171,
        "9028": 36,
        "9029": 79,
        "9030": 239,
        "9031": 142,
        "9032": 239,
        "9033": 119,
        "9034": 78,
        "9035": 40,
        "9036": 157,
        "9037": 224,
        "9038": 37,
        "9039": 120,
        "9040": 79,
        "9041": 67,
        "9042": 39,
        "9043": 136,
        "9044": 198,
        "9045": 103,
        "9046": 103,
        "9047": 112,
        "9048": 117,
        "9049": 140,
        "9050": 224,
        "9051": 0,
        "9052": 180,
        "9053": 123,
        "9054": 69,
        "9055": 41,
        "9056": 45,
        "9057": 77,
        "9058": 174,
        "9059": 15,
        "9060": 18,
        "9061": 11,
        "9062": 138,
        "9063": 237,
        "9064": 56,
        "9065": 171,
        "9066": 120,
        "9067": 130,
        "9068": 239,
        "9069": 236,
        "9070": 51,
        "9071": 18,
        "9072": 248,
        "9073": 226,
        "9074": 194,
        "9075": 137,
        "9076": 7,
        "9077": 200,
        "9078": 122,
        "9079": 3,
        "9080": 115,
        "9081": 209,
        "9082": 168,
        "9083": 52,
        "9084": 180,
        "9085": 253,
        "9086": 26,
        "9087": 203,
        "9088": 136,
        "9089": 180,
        "9090": 168,
        "9091": 16,
        "9092": 51,
        "9093": 132,
        "9094": 163,
        "9095": 166,
        "9096": 151,
        "9097": 81,
        "9098": 42,
        "9099": 11,
        "9100": 47,
        "9101": 6,
        "9102": 41,
        "9103": 159,
        "9104": 182,
        "9105": 27,
        "9106": 15,
        "9107": 116,
        "9108": 13,
        "9109": 56,
        "9110": 206,
        "9111": 6,
        "9112": 46,
        "9113": 8,
        "9114": 79,
        "9115": 231,
        "9116": 8,
        "9117": 207,
        "9118": 212,
        "9119": 212,
        "9120": 1,
        "9121": 244,
        "9122": 221,
        "9123": 57,
        "9124": 208,
        "9125": 52,
        "9126": 5,
        "9127": 108,
        "9128": 81,
        "9129": 137,
        "9130": 124,
        "9131": 54,
        "9132": 245,
        "9133": 70,
        "9134": 60,
        "9135": 153,
        "9136": 82,
        "9137": 1,
        "9138": 31,
        "9139": 149,
        "9140": 241,
        "9141": 162,
        "9142": 91,
        "9143": 207,
        "9144": 34,
        "9145": 72,
        "9146": 20,
        "9147": 32,
        "9148": 159,
        "9149": 172,
        "9150": 34,
        "9151": 9,
        "9152": 130,
        "9153": 154,
        "9154": 60,
        "9155": 197,
        "9156": 156,
        "9157": 5,
        "9158": 37,
        "9159": 230,
        "9160": 138,
        "9161": 218,
        "9162": 212,
        "9163": 144,
        "9164": 99,
        "9165": 13,
        "9166": 109,
        "9167": 198,
        "9168": 222,
        "9169": 59,
        "9170": 164,
        "9171": 123,
        "9172": 117,
        "9173": 238,
        "9174": 149,
        "9175": 178,
        "9176": 37,
        "9177": 33,
        "9178": 139,
        "9179": 27,
        "9180": 108,
        "9181": 107,
        "9182": 215,
        "9183": 235,
        "9184": 21,
        "9185": 74,
        "9186": 253,
        "9187": 0,
        "9188": 9,
        "9189": 84,
        "9190": 161,
        "9191": 75,
        "9192": 43,
        "9193": 53,
        "9194": 128,
        "9195": 41,
        "9196": 232,
        "9197": 245,
        "9198": 103,
        "9199": 34,
        "9200": 154,
        "9201": 155,
        "9202": 56,
        "9203": 135,
        "9204": 19,
        "9205": 222,
        "9206": 229,
        "9207": 53,
        "9208": 183,
        "9209": 244,
        "9210": 175,
        "9211": 220,
        "9212": 186,
        "9213": 101,
        "9214": 169,
        "9215": 196,
        "9216": 19,
        "9217": 89,
        "9218": 193,
        "9219": 150,
        "9220": 9,
        "9221": 24,
        "9222": 101,
        "9223": 195,
        "9224": 34,
        "9225": 228,
        "9226": 253,
        "9227": 213,
        "9228": 99,
        "9229": 97,
        "9230": 99,
        "9231": 60,
        "9232": 25,
        "9233": 253,
        "9234": 68,
        "9235": 77,
        "9236": 236,
        "9237": 164,
        "9238": 217,
        "9239": 162,
        "9240": 123,
        "9241": 164,
        "9242": 227,
        "9243": 206,
        "9244": 211,
        "9245": 13,
        "9246": 107,
        "9247": 201,
        "9248": 78,
        "9249": 156,
        "9250": 211,
        "9251": 147,
        "9252": 230,
        "9253": 202,
        "9254": 107,
        "9255": 251,
        "9256": 42,
        "9257": 91,
        "9258": 177,
        "9259": 124,
        "9260": 165,
        "9261": 36,
        "9262": 115,
        "9263": 139,
        "9264": 41,
        "9265": 98,
        "9266": 40,
        "9267": 35,
        "9268": 40,
        "9269": 205,
        "9270": 23,
        "9271": 158,
        "9272": 39,
        "9273": 77,
        "9274": 68,
        "9275": 22,
        "9276": 148,
        "9277": 164,
        "9278": 177,
        "9279": 226,
        "9280": 235,
        "9281": 242,
        "9282": 28,
        "9283": 66,
        "9284": 24,
        "9285": 163,
        "9286": 181,
        "9287": 105,
        "9288": 160,
        "9289": 87,
        "9290": 99,
        "9291": 149,
        "9292": 232,
        "9293": 186,
        "9294": 92,
        "9295": 166,
        "9296": 102,
        "9297": 194,
        "9298": 29,
        "9299": 234,
        "9300": 179,
        "9301": 144,
        "9302": 184,
        "9303": 194,
        "9304": 142,
        "9305": 53,
        "9306": 175,
        "9307": 111,
        "9308": 218,
        "9309": 182,
        "9310": 94,
        "9311": 105,
        "9312": 15,
        "9313": 21,
        "9314": 77,
        "9315": 129,
        "9316": 153,
        "9317": 78,
        "9318": 126,
        "9319": 126,
        "9320": 92,
        "9321": 246,
        "9322": 201,
        "9323": 168,
        "9324": 11,
        "9325": 24,
        "9326": 49,
        "9327": 230,
        "9328": 219,
        "9329": 9,
        "9330": 59,
        "9331": 41,
        "9332": 159,
        "9333": 57,
        "9334": 60,
        "9335": 146,
        "9336": 93,
        "9337": 147,
        "9338": 61,
        "9339": 198,
        "9340": 88,
        "9341": 192,
        "9342": 69,
        "9343": 104,
        "9344": 33,
        "9345": 161,
        "9346": 37,
        "9347": 146,
        "9348": 129,
        "9349": 200,
        "9350": 111,
        "9351": 136,
        "9352": 147,
        "9353": 197,
        "9354": 39,
        "9355": 41,
        "9356": 207,
        "9357": 120,
        "9358": 103,
        "9359": 46,
        "9360": 250,
        "9361": 227,
        "9362": 142,
        "9363": 96,
        "9364": 208,
        "9365": 221,
        "9366": 185,
        "9367": 115,
        "9368": 14,
        "9369": 133,
        "9370": 189,
        "9371": 239,
        "9372": 183,
        "9373": 42,
        "9374": 87,
        "9375": 23,
        "9376": 7,
        "9377": 115,
        "9378": 215,
        "9379": 242,
        "9380": 233,
        "9381": 85,
        "9382": 55,
        "9383": 240,
        "9384": 40,
        "9385": 127,
        "9386": 148,
        "9387": 12,
        "9388": 7,
        "9389": 128,
        "9390": 234,
        "9391": 230,
        "9392": 171,
        "9393": 105,
        "9394": 251,
        "9395": 243,
        "9396": 46,
        "9397": 234,
        "9398": 160,
        "9399": 186,
        "9400": 73,
        "9401": 27,
        "9402": 67,
        "9403": 36,
        "9404": 176,
        "9405": 127,
        "9406": 191,
        "9407": 150,
        "9408": 116,
        "9409": 18,
        "9410": 204,
        "9411": 95,
        "9412": 253,
        "9413": 239,
        "9414": 157,
        "9415": 20,
        "9416": 190,
        "9417": 152,
        "9418": 219,
        "9419": 57,
        "9420": 130,
        "9421": 171,
        "9422": 98,
        "9423": 82,
        "9424": 237,
        "9425": 126,
        "9426": 173,
        "9427": 233,
        "9428": 69,
        "9429": 2,
        "9430": 105,
        "9431": 18,
        "9432": 202,
        "9433": 107,
        "9434": 58,
        "9435": 67,
        "9436": 70,
        "9437": 198,
        "9438": 76,
        "9439": 50,
        "9440": 156,
        "9441": 249,
        "9442": 149,
        "9443": 228,
        "9444": 183,
        "9445": 166,
        "9446": 37,
        "9447": 197,
        "9448": 160,
        "9449": 236,
        "9450": 45,
        "9451": 191,
        "9452": 213,
        "9453": 146,
        "9454": 91,
        "9455": 253,
        "9456": 78,
        "9457": 213,
        "9458": 155,
        "9459": 54,
        "9460": 38,
        "9461": 19,
        "9462": 50,
        "9463": 120,
        "9464": 236,
        "9465": 80,
        "9466": 217,
        "9467": 97,
        "9468": 164,
        "9469": 147,
        "9470": 161,
        "9471": 136,
        "9472": 101,
        "9473": 123,
        "9474": 196,
        "9475": 115,
        "9476": 114,
        "9477": 195,
        "9478": 6,
        "9479": 191,
        "9480": 213,
        "9481": 16,
        "9482": 20,
        "9483": 46,
        "9484": 41,
        "9485": 7,
        "9486": 216,
        "9487": 230,
        "9488": 136,
        "9489": 12,
        "9490": 129,
        "9491": 216,
        "9492": 50,
        "9493": 146,
        "9494": 114,
        "9495": 147,
        "9496": 99,
        "9497": 11,
        "9498": 255,
        "9499": 92,
        "9500": 117,
        "9501": 94,
        "9502": 253,
        "9503": 232,
        "9504": 163,
        "9505": 36,
        "9506": 143,
        "9507": 170,
        "9508": 233,
        "9509": 225,
        "9510": 107,
        "9511": 97,
        "9512": 64,
        "9513": 102,
        "9514": 166,
        "9515": 85,
        "9516": 69,
        "9517": 236,
        "9518": 51,
        "9519": 179,
        "9520": 187,
        "9521": 211,
        "9522": 190,
        "9523": 10,
        "9524": 6,
        "9525": 122,
        "9526": 103,
        "9527": 160,
        "9528": 171,
        "9529": 218,
        "9530": 179,
        "9531": 115,
        "9532": 181,
        "9533": 22,
        "9534": 236,
        "9535": 82,
        "9536": 6,
        "9537": 26,
        "9538": 50,
        "9539": 196,
        "9540": 86,
        "9541": 7,
        "9542": 194,
        "9543": 125,
        "9544": 64,
        "9545": 101,
        "9546": 151,
        "9547": 89,
        "9548": 160,
        "9549": 59,
        "9550": 85,
        "9551": 181,
        "9552": 151,
        "9553": 73,
        "9554": 46,
        "9555": 89,
        "9556": 234,
        "9557": 207,
        "9558": 27,
        "9559": 48,
        "9560": 30,
        "9561": 69,
        "9562": 237,
        "9563": 78,
        "9564": 13,
        "9565": 168,
        "9566": 194,
        "9567": 228,
        "9568": 26,
        "9569": 239,
        "9570": 9,
        "9571": 99,
        "9572": 56,
        "9573": 183,
        "9574": 87,
        "9575": 73,
        "9576": 95,
        "9577": 225,
        "9578": 252,
        "9579": 96,
        "9580": 196,
        "9581": 117,
        "9582": 60,
        "9583": 180,
        "9584": 112,
        "9585": 6,
        "9586": 181,
        "9587": 43,
        "9588": 125,
        "9589": 114,
        "9590": 130,
        "9591": 229,
        "9592": 58,
        "9593": 105,
        "9594": 108,
        "9595": 175,
        "9596": 87,
        "9597": 247,
        "9598": 153,
        "9599": 247,
        "9600": 61,
        "9601": 228,
        "9602": 103,
        "9603": 87,
        "9604": 208,
        "9605": 250,
        "9606": 131,
        "9607": 107,
        "9608": 117,
        "9609": 81,
        "9610": 55,
        "9611": 50,
        "9612": 238,
        "9613": 114,
        "9614": 87,
        "9615": 181,
        "9616": 167,
        "9617": 232,
        "9618": 241,
        "9619": 202,
        "9620": 251,
        "9621": 6,
        "9622": 240,
        "9623": 58,
        "9624": 166,
        "9625": 249,
        "9626": 40,
        "9627": 180,
        "9628": 103,
        "9629": 87,
        "9630": 220,
        "9631": 157,
        "9632": 36,
        "9633": 92,
        "9634": 137,
        "9635": 75,
        "9636": 178,
        "9637": 130,
        "9638": 217,
        "9639": 91,
        "9640": 244,
        "9641": 99,
        "9642": 175,
        "9643": 107,
        "9644": 98,
        "9645": 88,
        "9646": 163,
        "9647": 91,
        "9648": 64,
        "9649": 59,
        "9650": 22,
        "9651": 32,
        "9652": 5,
        "9653": 235,
        "9654": 218,
        "9655": 105,
        "9656": 86,
        "9657": 105,
        "9658": 149,
        "9659": 183,
        "9660": 142,
        "9661": 226,
        "9662": 11,
        "9663": 45,
        "9664": 195,
        "9665": 85,
        "9666": 96,
        "9667": 56,
        "9668": 143,
        "9669": 65,
        "9670": 136,
        "9671": 146,
        "9672": 142,
        "9673": 178,
        "9674": 214,
        "9675": 61,
        "9676": 238,
        "9677": 12,
        "9678": 209,
        "9679": 0,
        "9680": 35,
        "9681": 61,
        "9682": 94,
        "9683": 78,
        "9684": 144,
        "9685": 152,
        "9686": 115,
        "9687": 51,
        "9688": 150,
        "9689": 132,
        "9690": 246,
        "9691": 143,
        "9692": 211,
        "9693": 12,
        "9694": 35,
        "9695": 62,
        "9696": 83,
        "9697": 183,
        "9698": 122,
        "9699": 247,
        "9700": 97,
        "9701": 108,
        "9702": 131,
        "9703": 76,
        "9704": 190,
        "9705": 232,
        "9706": 187,
        "9707": 178,
        "9708": 132,
        "9709": 49,
        "9710": 133,
        "9711": 186,
        "9712": 44,
        "9713": 8,
        "9714": 86,
        "9715": 23,
        "9716": 234,
        "9717": 240,
        "9718": 164,
        "9719": 16,
        "9720": 179,
        "9721": 203,
        "9722": 212,
        "9723": 195,
        "9724": 179,
        "9725": 49,
        "9726": 17,
        "9727": 72,
        "9728": 112,
        "9729": 216,
        "9730": 193,
        "9731": 236,
        "9732": 64,
        "9733": 99,
        "9734": 154,
        "9735": 132,
        "9736": 129,
        "9737": 235,
        "9738": 232,
        "9739": 128,
        "9740": 71,
        "9741": 89,
        "9742": 223,
        "9743": 198,
        "9744": 161,
        "9745": 203,
        "9746": 212,
        "9747": 44,
        "9748": 75,
        "9749": 8,
        "9750": 159,
        "9751": 42,
        "9752": 107,
        "9753": 36,
        "9754": 162,
        "9755": 157,
        "9756": 94,
        "9757": 223,
        "9758": 255,
        "9759": 67,
        "9760": 2,
        "9761": 142,
        "9762": 112,
        "9763": 200,
        "9764": 158,
        "9765": 137,
        "9766": 114,
        "9767": 9,
        "9768": 181,
        "9769": 40,
        "9770": 240,
        "9771": 128,
        "9772": 217,
        "9773": 22,
        "9774": 170,
        "9775": 162,
        "9776": 99,
        "9777": 62,
        "9778": 144,
        "9779": 47,
        "9780": 100,
        "9781": 26,
        "9782": 109,
        "9783": 226,
        "9784": 141,
        "9785": 37,
        "9786": 13,
        "9787": 53,
        "9788": 75,
        "9789": 37,
        "9790": 112,
        "9791": 203,
        "9792": 200,
        "9793": 150,
        "9794": 187,
        "9795": 217,
        "9796": 233,
        "9797": 254,
        "9798": 242,
        "9799": 100,
        "9800": 110,
        "9801": 111,
        "9802": 89,
        "9803": 107,
        "9804": 212,
        "9805": 4,
        "9806": 180,
        "9807": 213,
        "9808": 63,
        "9809": 49,
        "9810": 185,
        "9811": 242,
        "9812": 126,
        "9813": 2,
        "9814": 73,
        "9815": 234,
        "9816": 137,
        "9817": 220,
        "9818": 53,
        "9819": 119,
        "9820": 217,
        "9821": 111,
        "9822": 205,
        "9823": 124,
        "9824": 43,
        "9825": 33,
        "9826": 241,
        "9827": 38,
        "9828": 135,
        "9829": 8,
        "9830": 81,
        "9831": 118,
        "9832": 100,
        "9833": 112,
        "9834": 103,
        "9835": 189,
        "9836": 223,
        "9837": 180,
        "9838": 44,
        "9839": 86,
        "9840": 217,
        "9841": 242,
        "9842": 187,
        "9843": 98,
        "9844": 253,
        "9845": 97,
        "9846": 18,
        "9847": 101,
        "9848": 175,
        "9849": 91,
        "9850": 62,
        "9851": 213,
        "9852": 93,
        "9853": 104,
        "9854": 177,
        "9855": 138,
        "9856": 76,
        "9857": 12,
        "9858": 90,
        "9859": 16,
        "9860": 165,
        "9861": 158,
        "9862": 179,
        "9863": 89,
        "9864": 147,
        "9865": 187,
        "9866": 155,
        "9867": 128,
        "9868": 65,
        "9869": 19,
        "9870": 150,
        "9871": 201,
        "9872": 154,
        "9873": 107,
        "9874": 192,
        "9875": 56,
        "9876": 211,
        "9877": 110,
        "9878": 17,
        "9879": 163,
        "9880": 85,
        "9881": 102,
        "9882": 148,
        "9883": 140,
        "9884": 236,
        "9885": 181,
        "9886": 137,
        "9887": 87,
        "9888": 56,
        "9889": 105,
        "9890": 3,
        "9891": 56,
        "9892": 48,
        "9893": 227,
        "9894": 206,
        "9895": 190,
        "9896": 36,
        "9897": 170,
        "9898": 43,
        "9899": 195,
        "9900": 200,
        "9901": 224,
        "9902": 237,
        "9903": 72,
        "9904": 144,
        "9905": 137,
        "9906": 193,
        "9907": 123,
        "9908": 119,
        "9909": 204,
        "9910": 44,
        "9911": 197,
        "9912": 63,
        "9913": 13,
        "9914": 69,
        "9915": 133,
        "9916": 173,
        "9917": 174,
        "9918": 118,
        "9919": 74,
        "9920": 224,
        "9921": 119,
        "9922": 129,
        "9923": 72,
        "9924": 4,
        "9925": 185,
        "9926": 100,
        "9927": 237,
        "9928": 15,
        "9929": 38,
        "9930": 1,
        "9931": 237,
        "9932": 201,
        "9933": 204,
        "9934": 55,
        "9935": 135,
        "9936": 124,
        "9937": 83,
        "9938": 142,
        "9939": 109,
        "9940": 247,
        "9941": 130,
        "9942": 45,
        "9943": 3,
        "9944": 26,
        "9945": 189,
        "9946": 121,
        "9947": 222,
        "9948": 184,
        "9949": 229,
        "9950": 188,
        "9951": 3,
        "9952": 45,
        "9953": 190,
        "9954": 214,
        "9955": 205,
        "9956": 144,
        "9957": 72,
        "9958": 224,
        "9959": 39,
        "9960": 173,
        "9961": 114,
        "9962": 207,
        "9963": 9,
        "9964": 138,
        "9965": 254,
        "9966": 228,
        "9967": 143,
        "9968": 49,
        "9969": 5,
        "9970": 216,
        "9971": 145,
        "9972": 3,
        "9973": 154,
        "9974": 102,
        "9975": 156,
        "9976": 97,
        "9977": 181,
        "9978": 7,
        "9979": 208,
        "9980": 245,
        "9981": 24,
        "9982": 50,
        "9983": 129,
        "9984": 24,
        "9985": 41,
        "9986": 226,
        "9987": 7,
        "9988": 132,
        "9989": 226,
        "9990": 254,
        "9991": 174,
        "9992": 158,
        "9993": 231,
        "9994": 226,
        "9995": 243,
        "9996": 209,
        "9997": 60,
        "9998": 90,
        "9999": 151,
        "10000": 26,
        "10001": 30,
        "10002": 26,
        "10003": 218,
        "10004": 207,
        "10005": 116,
        "10006": 150,
        "10007": 183,
        "10008": 68,
        "10009": 179,
        "10010": 20,
        "10011": 224,
        "10012": 80,
        "10013": 159,
        "10014": 213,
        "10015": 192,
        "10016": 103,
        "10017": 19,
        "10018": 14,
        "10019": 76,
        "10020": 88,
        "10021": 52,
        "10022": 13,
        "10023": 145,
        "10024": 131,
        "10025": 60,
        "10026": 30,
        "10027": 179,
        "10028": 56,
        "10029": 20,
        "10030": 121,
        "10031": 53,
        "10032": 27,
        "10033": 102,
        "10034": 137,
        "10035": 18,
        "10036": 100,
        "10037": 67,
        "10038": 89,
        "10039": 245,
        "10040": 247,
        "10041": 31,
        "10042": 189,
        "10043": 124,
        "10044": 178,
        "10045": 63,
        "10046": 44,
        "10047": 226,
        "10048": 234,
        "10049": 230,
        "10050": 84,
        "10051": 137,
        "10052": 204,
        "10053": 87,
        "10054": 236,
        "10055": 251,
        "10056": 33,
        "10057": 230,
        "10058": 251,
        "10059": 1,
        "10060": 56,
        "10061": 240,
        "10062": 193,
        "10063": 226,
        "10064": 198,
        "10065": 139,
        "10066": 117,
        "10067": 52,
        "10068": 165,
        "10069": 134,
        "10070": 171,
        "10071": 45,
        "10072": 176,
        "10073": 167,
        "10074": 255,
        "10075": 227,
        "10076": 5,
        "10077": 191,
        "10078": 130,
        "10079": 60,
        "10080": 35,
        "10081": 151,
        "10082": 109,
        "10083": 237,
        "10084": 44,
        "10085": 91,
        "10086": 89,
        "10087": 134,
        "10088": 189,
        "10089": 159,
        "10090": 8,
        "10091": 125,
        "10092": 18,
        "10093": 63,
        "10094": 93,
        "10095": 71,
        "10096": 244,
        "10097": 67,
        "10098": 158,
        "10099": 206,
        "10100": 63,
        "10101": 73,
        "10102": 27,
        "10103": 24,
        "10104": 126,
        "10105": 168,
        "10106": 147,
        "10107": 171,
        "10108": 198,
        "10109": 107,
        "10110": 130,
        "10111": 68,
        "10112": 165,
        "10113": 248,
        "10114": 226,
        "10115": 66,
        "10116": 149,
        "10117": 152,
        "10118": 179,
        "10119": 97,
        "10120": 118,
        "10121": 124,
        "10122": 113,
        "10123": 199,
        "10124": 214,
        "10125": 53,
        "10126": 145,
        "10127": 33,
        "10128": 219,
        "10129": 183,
        "10130": 202,
        "10131": 51,
        "10132": 93,
        "10133": 212,
        "10134": 14,
        "10135": 96,
        "10136": 219,
        "10137": 19,
        "10138": 239,
        "10139": 128,
        "10140": 94,
        "10141": 253,
        "10142": 154,
        "10143": 39,
        "10144": 98,
        "10145": 106,
        "10146": 248,
        "10147": 181,
        "10148": 52,
        "10149": 6,
        "10150": 15,
        "10151": 77,
        "10152": 5,
        "10153": 131,
        "10154": 45,
        "10155": 112,
        "10156": 139,
        "10157": 139,
        "10158": 245,
        "10159": 234,
        "10160": 185,
        "10161": 157,
        "10162": 82,
        "10163": 105,
        "10164": 63,
        "10165": 96,
        "10166": 155,
        "10167": 134,
        "10168": 33,
        "10169": 154,
        "10170": 175,
        "10171": 233,
        "10172": 163,
        "10173": 119,
        "10174": 106,
        "10175": 110,
        "10176": 38,
        "10177": 251,
        "10178": 142,
        "10179": 101,
        "10180": 16,
        "10181": 153,
        "10182": 191,
        "10183": 98,
        "10184": 81,
        "10185": 76,
        "10186": 138,
        "10187": 62,
        "10188": 22,
        "10189": 222,
        "10190": 138,
        "10191": 27,
        "10192": 151,
        "10193": 175,
        "10194": 23,
        "10195": 63,
        "10196": 55,
        "10197": 222,
        "10198": 39,
        "10199": 106,
        "10200": 35,
        "10201": 177,
        "10202": 38,
        "10203": 133,
        "10204": 14,
        "10205": 240,
        "10206": 81,
        "10207": 157,
        "10208": 197,
        "10209": 48,
        "10210": 208,
        "10211": 173,
        "10212": 139,
        "10213": 7,
        "10214": 246,
        "10215": 141,
        "10216": 13,
        "10217": 240,
        "10218": 45,
        "10219": 90,
        "10220": 73,
        "10221": 204,
        "10222": 183,
        "10223": 17,
        "10224": 38,
        "10225": 241,
        "10226": 155,
        "10227": 206,
        "10228": 155,
        "10229": 128,
        "10230": 204,
        "10231": 62,
        "10232": 187,
        "10233": 222,
        "10234": 37,
        "10235": 195,
        "10236": 116,
        "10237": 198,
        "10238": 109,
        "10239": 74,
        "10240": 94,
        "10241": 59,
        "10242": 33,
        "10243": 243,
        "10244": 50,
        "10245": 31,
        "10246": 70,
        "10247": 138,
        "10248": 248,
        "10249": 180,
        "10250": 67,
        "10251": 199,
        "10252": 36,
        "10253": 137,
        "10254": 124,
        "10255": 236,
        "10256": 149,
        "10257": 250,
        "10258": 149,
        "10259": 167,
        "10260": 111,
        "10261": 39,
        "10262": 47,
        "10263": 160,
        "10264": 142,
        "10265": 203,
        "10266": 117,
        "10267": 242,
        "10268": 1,
        "10269": 135,
        "10270": 5,
        "10271": 105,
        "10272": 29,
        "10273": 24,
        "10274": 77,
        "10275": 189,
        "10276": 17,
        "10277": 107,
        "10278": 194,
        "10279": 128,
        "10280": 83,
        "10281": 191,
        "10282": 144,
        "10283": 25,
        "10284": 200,
        "10285": 94,
        "10286": 235,
        "10287": 0,
        "10288": 235,
        "10289": 122,
        "10290": 18,
        "10291": 196,
        "10292": 224,
        "10293": 178,
        "10294": 167,
        "10295": 128,
        "10296": 19,
        "10297": 88,
        "10298": 79,
        "10299": 203,
        "10300": 190,
        "10301": 203,
        "10302": 219,
        "10303": 251,
        "10304": 73,
        "10305": 17,
        "10306": 221,
        "10307": 97,
        "10308": 125,
        "10309": 99,
        "10310": 255,
        "10311": 112,
        "10312": 33,
        "10313": 207,
        "10314": 3,
        "10315": 7,
        "10316": 129,
        "10317": 135,
        "10318": 21,
        "10319": 104,
        "10320": 237,
        "10321": 25,
        "10322": 17,
        "10323": 122,
        "10324": 175,
        "10325": 75,
        "10326": 85,
        "10327": 246,
        "10328": 0,
        "10329": 164,
        "10330": 155,
        "10331": 125,
        "10332": 245,
        "10333": 103,
        "10334": 190,
        "10335": 85,
        "10336": 78,
        "10337": 70,
        "10338": 159,
        "10339": 5,
        "10340": 251,
        "10341": 9,
        "10342": 2,
        "10343": 99,
        "10344": 160,
        "10345": 163,
        "10346": 64,
        "10347": 156,
        "10348": 105,
        "10349": 104,
        "10350": 47,
        "10351": 160,
        "10352": 139,
        "10353": 30,
        "10354": 94,
        "10355": 105,
        "10356": 114,
        "10357": 232,
        "10358": 21,
        "10359": 172,
        "10360": 144,
        "10361": 30,
        "10362": 203,
        "10363": 22,
        "10364": 46,
        "10365": 63,
        "10366": 58,
        "10367": 91,
        "10368": 111,
        "10369": 237,
        "10370": 26,
        "10371": 208,
        "10372": 150,
        "10373": 226,
        "10374": 49,
        "10375": 10,
        "10376": 188,
        "10377": 224,
        "10378": 67,
        "10379": 10,
        "10380": 24,
        "10381": 204,
        "10382": 124,
        "10383": 21,
        "10384": 93,
        "10385": 80,
        "10386": 118,
        "10387": 140,
        "10388": 50,
        "10389": 76,
        "10390": 129,
        "10391": 41,
        "10392": 206,
        "10393": 177,
        "10394": 66,
        "10395": 227,
        "10396": 134,
        "10397": 147,
        "10398": 156,
        "10399": 81,
        "10400": 243,
        "10401": 166,
        "10402": 149,
        "10403": 19,
        "10404": 174,
        "10405": 149,
        "10406": 120,
        "10407": 94,
        "10408": 64,
        "10409": 71,
        "10410": 223,
        "10411": 69,
        "10412": 255,
        "10413": 224,
        "10414": 11,
        "10415": 81,
        "10416": 38,
        "10417": 164,
        "10418": 0,
        "10419": 174,
        "10420": 209,
        "10421": 138,
        "10422": 149,
        "10423": 235,
        "10424": 2,
        "10425": 96,
        "10426": 44,
        "10427": 27,
        "10428": 9,
        "10429": 169,
        "10430": 241,
        "10431": 183,
        "10432": 88,
        "10433": 189,
        "10434": 251,
        "10435": 20,
        "10436": 72,
        "10437": 96,
        "10438": 183,
        "10439": 230,
        "10440": 125,
        "10441": 43,
        "10442": 37,
        "10443": 238,
        "10444": 121,
        "10445": 69,
        "10446": 254,
        "10447": 248,
        "10448": 65,
        "10449": 168,
        "10450": 57,
        "10451": 106,
        "10452": 178,
        "10453": 113,
        "10454": 161,
        "10455": 59,
        "10456": 86,
        "10457": 174,
        "10458": 223,
        "10459": 101,
        "10460": 181,
        "10461": 148,
        "10462": 169,
        "10463": 78,
        "10464": 145,
        "10465": 138,
        "10466": 38,
        "10467": 247,
        "10468": 9,
        "10469": 207,
        "10470": 21,
        "10471": 162,
        "10472": 200,
        "10473": 129,
        "10474": 197,
        "10475": 73,
        "10476": 16,
        "10477": 66,
        "10478": 252,
        "10479": 32,
        "10480": 4,
        "10481": 230,
        "10482": 59,
        "10483": 120,
        "10484": 82,
        "10485": 207,
        "10486": 185,
        "10487": 56,
        "10488": 22,
        "10489": 29,
        "10490": 189,
        "10491": 64,
        "10492": 74,
        "10493": 131,
        "10494": 84,
        "10495": 18,
        "10496": 205,
        "10497": 4,
        "10498": 35,
        "10499": 250,
        "10500": 74,
        "10501": 250,
        "10502": 205,
        "10503": 228,
        "10504": 133,
        "10505": 14,
        "10506": 7,
        "10507": 76,
        "10508": 110,
        "10509": 66,
        "10510": 172,
        "10511": 3,
        "10512": 90,
        "10513": 160,
        "10514": 159,
        "10515": 77,
        "10516": 217,
        "10517": 192,
        "10518": 83,
        "10519": 80,
        "10520": 231,
        "10521": 205,
        "10522": 45,
        "10523": 199,
        "10524": 124,
        "10525": 120,
        "10526": 247,
        "10527": 17,
        "10528": 153,
        "10529": 218,
        "10530": 13,
        "10531": 77,
        "10532": 88,
        "10533": 69,
        "10534": 249,
        "10535": 136,
        "10536": 16,
        "10537": 116,
        "10538": 109,
        "10539": 215,
        "10540": 29,
        "10541": 35,
        "10542": 117,
        "10543": 227,
        "10544": 98,
        "10545": 21,
        "10546": 110,
        "10547": 9,
        "10548": 49,
        "10549": 125,
        "10550": 229,
        "10551": 212,
        "10552": 192,
        "10553": 96,
        "10554": 179,
        "10555": 189,
        "10556": 208,
        "10557": 203,
        "10558": 208,
        "10559": 158,
        "10560": 249,
        "10561": 105,
        "10562": 25,
        "10563": 168,
        "10564": 202,
        "10565": 154,
        "10566": 236,
        "10567": 138,
        "10568": 77,
        "10569": 100,
        "10570": 154,
        "10571": 218,
        "10572": 16,
        "10573": 119,
        "10574": 62,
        "10575": 215,
        "10576": 74,
        "10577": 53,
        "10578": 120,
        "10579": 138,
        "10580": 40,
        "10581": 73,
        "10582": 145,
        "10583": 22,
        "10584": 242,
        "10585": 242,
        "10586": 230,
        "10587": 149,
        "10588": 211,
        "10589": 166,
        "10590": 177,
        "10591": 115,
        "10592": 106,
        "10593": 166,
        "10594": 22,
        "10595": 231,
        "10596": 160,
        "10597": 158,
        "10598": 38,
        "10599": 111,
        "10600": 57,
        "10601": 130,
        "10602": 42,
        "10603": 230,
        "10604": 64,
        "10605": 141,
        "10606": 219,
        "10607": 33,
        "10608": 217,
        "10609": 131,
        "10610": 158,
        "10611": 56,
        "10612": 160,
        "10613": 118,
        "10614": 150,
        "10615": 142,
        "10616": 159,
        "10617": 29,
        "10618": 137,
        "10619": 21,
        "10620": 50,
        "10621": 94,
        "10622": 16,
        "10623": 255,
        "10624": 38,
        "10625": 142,
        "10626": 126,
        "10627": 127,
        "10628": 66,
        "10629": 155,
        "10630": 28,
        "10631": 37,
        "10632": 156,
        "10633": 42,
        "10634": 52,
        "10635": 107,
        "10636": 125,
        "10637": 64,
        "10638": 34,
        "10639": 81,
        "10640": 16,
        "10641": 84,
        "10642": 133,
        "10643": 4,
        "10644": 131,
        "10645": 174,
        "10646": 85,
        "10647": 191,
        "10648": 217,
        "10649": 91,
        "10650": 2,
        "10651": 147,
        "10652": 176,
        "10653": 51,
        "10654": 147,
        "10655": 27,
        "10656": 106,
        "10657": 45,
        "10658": 184,
        "10659": 119,
        "10660": 55,
        "10661": 183,
        "10662": 51,
        "10663": 110,
        "10664": 95,
        "10665": 92,
        "10666": 120,
        "10667": 241,
        "10668": 243,
        "10669": 244,
        "10670": 233,
        "10671": 59,
        "10672": 52,
        "10673": 222,
        "10674": 218,
        "10675": 59,
        "10676": 140,
        "10677": 160,
        "10678": 198,
        "10679": 14,
        "10680": 60,
        "10681": 102,
        "10682": 158,
        "10683": 88,
        "10684": 254,
        "10685": 152,
        "10686": 67,
        "10687": 68,
        "10688": 163,
        "10689": 199,
        "10690": 224,
        "10691": 205,
        "10692": 75,
        "10693": 111,
        "10694": 122,
        "10695": 131,
        "10696": 175,
        "10697": 106,
        "10698": 17,
        "10699": 234,
        "10700": 58,
        "10701": 64,
        "10702": 110,
        "10703": 122,
        "10704": 15,
        "10705": 121,
        "10706": 101,
        "10707": 67,
        "10708": 28,
        "10709": 173,
        "10710": 148,
        "10711": 102,
        "10712": 200,
        "10713": 191,
        "10714": 139,
        "10715": 103,
        "10716": 29,
        "10717": 121,
        "10718": 52,
        "10719": 42,
        "10720": 127,
        "10721": 3,
        "10722": 71,
        "10723": 187,
        "10724": 100,
        "10725": 39,
        "10726": 234,
        "10727": 203,
        "10728": 35,
        "10729": 104,
        "10730": 25,
        "10731": 214,
        "10732": 14,
        "10733": 187,
        "10734": 251,
        "10735": 155,
        "10736": 217,
        "10737": 190,
        "10738": 27,
        "10739": 171,
        "10740": 38,
        "10741": 232,
        "10742": 167,
        "10743": 167,
        "10744": 209,
        "10745": 40,
        "10746": 28,
        "10747": 211,
        "10748": 28,
        "10749": 253,
        "10750": 5,
        "10751": 52,
        "10752": 106,
        "10753": 218,
        "10754": 169,
        "10755": 157,
        "10756": 69,
        "10757": 158,
        "10758": 94,
        "10759": 162,
        "10760": 28,
        "10761": 31,
        "10762": 255,
        "10763": 65,
        "10764": 104,
        "10765": 232,
        "10766": 96,
        "10767": 123,
        "10768": 202,
        "10769": 229,
        "10770": 17,
        "10771": 43,
        "10772": 137,
        "10773": 220,
        "10774": 213,
        "10775": 29,
        "10776": 183,
        "10777": 176,
        "10778": 234,
        "10779": 59,
        "10780": 85,
        "10781": 241,
        "10782": 133,
        "10783": 152,
        "10784": 244,
        "10785": 211,
        "10786": 158,
        "10787": 177,
        "10788": 20,
        "10789": 223,
        "10790": 68,
        "10791": 100,
        "10792": 173,
        "10793": 182,
        "10794": 191,
        "10795": 244,
        "10796": 47,
        "10797": 37,
        "10798": 42,
        "10799": 80,
        "10800": 129,
        "10801": 169,
        "10802": 141,
        "10803": 4,
        "10804": 209,
        "10805": 189,
        "10806": 92,
        "10807": 130,
        "10808": 96,
        "10809": 66,
        "10810": 72,
        "10811": 183,
        "10812": 105,
        "10813": 48,
        "10814": 74,
        "10815": 220,
        "10816": 50,
        "10817": 116,
        "10818": 10,
        "10819": 215,
        "10820": 144,
        "10821": 105,
        "10822": 31,
        "10823": 126,
        "10824": 7,
        "10825": 11,
        "10826": 250,
        "10827": 244,
        "10828": 248,
        "10829": 118,
        "10830": 228,
        "10831": 204,
        "10832": 243,
        "10833": 221,
        "10834": 82,
        "10835": 85,
        "10836": 112,
        "10837": 196,
        "10838": 129,
        "10839": 151,
        "10840": 38,
        "10841": 88,
        "10842": 230,
        "10843": 246,
        "10844": 172,
        "10845": 167,
        "10846": 223,
        "10847": 70,
        "10848": 165,
        "10849": 231,
        "10850": 88,
        "10851": 4,
        "10852": 30,
        "10853": 75,
        "10854": 202,
        "10855": 205,
        "10856": 106,
        "10857": 136,
        "10858": 171,
        "10859": 62,
        "10860": 32,
        "10861": 145,
        "10862": 37,
        "10863": 190,
        "10864": 221,
        "10865": 33,
        "10866": 165,
        "10867": 131,
        "10868": 236,
        "10869": 49,
        "10870": 116,
        "10871": 107,
        "10872": 218,
        "10873": 149,
        "10874": 144,
        "10875": 108,
        "10876": 187,
        "10877": 28,
        "10878": 58,
        "10879": 200,
        "10880": 232,
        "10881": 230,
        "10882": 146,
        "10883": 79,
        "10884": 70,
        "10885": 127,
        "10886": 48,
        "10887": 253,
        "10888": 181,
        "10889": 214,
        "10890": 128,
        "10891": 184,
        "10892": 59,
        "10893": 235,
        "10894": 181,
        "10895": 208,
        "10896": 149,
        "10897": 172,
        "10898": 66,
        "10899": 33,
        "10900": 57,
        "10901": 129,
        "10902": 90,
        "10903": 249,
        "10904": 8,
        "10905": 84,
        "10906": 87,
        "10907": 66,
        "10908": 103,
        "10909": 41,
        "10910": 41,
        "10911": 216,
        "10912": 19,
        "10913": 169,
        "10914": 41,
        "10915": 160,
        "10916": 171,
        "10917": 149,
        "10918": 83,
        "10919": 237,
        "10920": 193,
        "10921": 233,
        "10922": 102,
        "10923": 103,
        "10924": 123,
        "10925": 178,
        "10926": 48,
        "10927": 193,
        "10928": 167,
        "10929": 151,
        "10930": 22,
        "10931": 23,
        "10932": 119,
        "10933": 101,
        "10934": 242,
        "10935": 131,
        "10936": 24,
        "10937": 98,
        "10938": 0,
        "10939": 87,
        "10940": 222,
        "10941": 125,
        "10942": 14,
        "10943": 207,
        "10944": 193,
        "10945": 109,
        "10946": 45,
        "10947": 191,
        "10948": 134,
        "10949": 110,
        "10950": 109,
        "10951": 5,
        "10952": 57,
        "10953": 84,
        "10954": 30,
        "10955": 218,
        "10956": 111,
        "10957": 101,
        "10958": 99,
        "10959": 97,
        "10960": 71,
        "10961": 130,
        "10962": 203,
        "10963": 137,
        "10964": 99,
        "10965": 25,
        "10966": 78,
        "10967": 98,
        "10968": 72,
        "10969": 90,
        "10970": 135,
        "10971": 79,
        "10972": 123,
        "10973": 139,
        "10974": 129,
        "10975": 255,
        "10976": 190,
        "10977": 92,
        "10978": 20,
        "10979": 168,
        "10980": 44,
        "10981": 75,
        "10982": 187,
        "10983": 182,
        "10984": 223,
        "10985": 111,
        "10986": 91,
        "10987": 156,
        "10988": 190,
        "10989": 233,
        "10990": 38,
        "10991": 9,
        "10992": 209,
        "10993": 75,
        "10994": 84,
        "10995": 20,
        "10996": 35,
        "10997": 225,
        "10998": 66,
        "10999": 236,
        "11000": 30,
        "11001": 64,
        "11002": 76,
        "11003": 8,
        "11004": 68,
        "11005": 175,
        "11006": 50,
        "11007": 0,
        "11008": 55,
        "11009": 160,
        "11010": 176,
        "11011": 106,
        "11012": 101,
        "11013": 11,
        "11014": 237,
        "11015": 141,
        "11016": 191,
        "11017": 208,
        "11018": 141,
        "11019": 195,
        "11020": 91,
        "11021": 147,
        "11022": 87,
        "11023": 208,
        "11024": 205,
        "11025": 51,
        "11026": 89,
        "11027": 157,
        "11028": 249,
        "11029": 176,
        "11030": 206,
        "11031": 127,
        "11032": 231,
        "11033": 196,
        "11034": 70,
        "11035": 113,
        "11036": 200,
        "11037": 132,
        "11038": 51,
        "11039": 83,
        "11040": 205,
        "11041": 32,
        "11042": 55,
        "11043": 161,
        "11044": 191,
        "11045": 83,
        "11046": 241,
        "11047": 161,
        "11048": 193,
        "11049": 17,
        "11050": 84,
        "11051": 0,
        "11052": 215,
        "11053": 233,
        "11054": 108,
        "11055": 171,
        "11056": 228,
        "11057": 142,
        "11058": 60,
        "11059": 208,
        "11060": 134,
        "11061": 206,
        "11062": 26,
        "11063": 133,
        "11064": 11,
        "11065": 26,
        "11066": 157,
        "11067": 138,
        "11068": 174,
        "11069": 15,
        "11070": 5,
        "11071": 225,
        "11072": 125,
        "11073": 194,
        "11074": 30,
        "11075": 33,
        "11076": 250,
        "11077": 0,
        "11078": 234,
        "11079": 22,
        "11080": 252,
        "11081": 164,
        "11082": 21,
        "11083": 190,
        "11084": 167,
        "11085": 175,
        "11086": 85,
        "11087": 175,
        "11088": 31,
        "11089": 101,
        "11090": 124,
        "11091": 138,
        "11092": 200,
        "11093": 59,
        "11094": 59,
        "11095": 65,
        "11096": 212,
        "11097": 236,
        "11098": 122,
        "11099": 159,
        "11100": 3,
        "11101": 4,
        "11102": 230,
        "11103": 238,
        "11104": 227,
        "11105": 233,
        "11106": 44,
        "11107": 67,
        "11108": 27,
        "11109": 185,
        "11110": 130,
        "11111": 142,
        "11112": 4,
        "11113": 181,
        "11114": 204,
        "11115": 96,
        "11116": 218,
        "11117": 79,
        "11118": 180,
        "11119": 116,
        "11120": 57,
        "11121": 101,
        "11122": 123,
        "11123": 205,
        "11124": 243,
        "11125": 132,
        "11126": 94,
        "11127": 145,
        "11128": 147,
        "11129": 114,
        "11130": 98,
        "11131": 162,
        "11132": 146,
        "11133": 98,
        "11134": 250,
        "11135": 78,
        "11136": 247,
        "11137": 89,
        "11138": 35,
        "11139": 129,
        "11140": 178,
        "11141": 8,
        "11142": 115,
        "11143": 146,
        "11144": 117,
        "11145": 124,
        "11146": 206,
        "11147": 219,
        "11148": 255,
        "11149": 32,
        "11150": 152,
        "11151": 182,
        "11152": 46,
        "11153": 35,
        "11154": 44,
        "11155": 49,
        "11156": 7,
        "11157": 54,
        "11158": 148,
        "11159": 187,
        "11160": 246,
        "11161": 201,
        "11162": 212,
        "11163": 57,
        "11164": 155,
        "11165": 99,
        "11166": 49,
        "11167": 83,
        "11168": 30,
        "11169": 11,
        "11170": 115,
        "11171": 240,
        "11172": 237,
        "11173": 156,
        "11174": 189,
        "11175": 248,
        "11176": 254,
        "11177": 239,
        "11178": 64,
        "11179": 112,
        "11180": 105,
        "11181": 72,
        "11182": 72,
        "11183": 223,
        "11184": 55,
        "11185": 201,
        "11186": 202,
        "11187": 128,
        "11188": 158,
        "11189": 145,
        "11190": 50,
        "11191": 232,
        "11192": 241,
        "11193": 232,
        "11194": 59,
        "11195": 211,
        "11196": 217,
        "11197": 252,
        "11198": 57,
        "11199": 7,
        "11200": 64,
        "11201": 34,
        "11202": 245,
        "11203": 111,
        "11204": 150,
        "11205": 111,
        "11206": 36,
        "11207": 77,
        "11208": 143,
        "11209": 215,
        "11210": 88,
        "11211": 139,
        "11212": 150,
        "11213": 155,
        "11214": 50,
        "11215": 104,
        "11216": 121,
        "11217": 130,
        "11218": 80,
        "11219": 65,
        "11220": 198,
        "11221": 123,
        "11222": 110,
        "11223": 25,
        "11224": 13,
        "11225": 151,
        "11226": 103,
        "11227": 101,
        "11228": 231,
        "11229": 120,
        "11230": 17,
        "11231": 82,
        "11232": 159,
        "11233": 57,
        "11234": 120,
        "11235": 229,
        "11236": 162,
        "11237": 35,
        "11238": 25,
        "11239": 246,
        "11240": 246,
        "11241": 185,
        "11242": 88,
        "11243": 31,
        "11244": 129,
        "11245": 128,
        "11246": 149,
        "11247": 200,
        "11248": 172,
        "11249": 245,
        "11250": 43,
        "11251": 232,
        "11252": 86,
        "11253": 48,
        "11254": 210,
        "11255": 0,
        "11256": 246,
        "11257": 182,
        "11258": 179,
        "11259": 47,
        "11260": 83,
        "11261": 106,
        "11262": 103,
        "11263": 142,
        "11264": 130,
        "11265": 249,
        "11266": 103,
        "11267": 216,
        "11268": 248,
        "11269": 109,
        "11270": 209,
        "11271": 109,
        "11272": 49,
        "11273": 246,
        "11274": 208,
        "11275": 17,
        "11276": 198,
        "11277": 242,
        "11278": 216,
        "11279": 216,
        "11280": 139,
        "11281": 187,
        "11282": 62,
        "11283": 249,
        "11284": 90,
        "11285": 113,
        "11286": 111,
        "11287": 228,
        "11288": 10,
        "11289": 136,
        "11290": 132,
        "11291": 174,
        "11292": 82,
        "11293": 234,
        "11294": 162,
        "11295": 164,
        "11296": 251,
        "11297": 84,
        "11298": 172,
        "11299": 47,
        "11300": 140,
        "11301": 123,
        "11302": 119,
        "11303": 121,
        "11304": 85,
        "11305": 102,
        "11306": 180,
        "11307": 43,
        "11308": 113,
        "11309": 70,
        "11310": 46,
        "11311": 94,
        "11312": 153,
        "11313": 231,
        "11314": 14,
        "11315": 114,
        "11316": 246,
        "11317": 146,
        "11318": 80,
        "11319": 162,
        "11320": 77,
        "11321": 207,
        "11322": 14,
        "11323": 80,
        "11324": 52,
        "11325": 186,
        "11326": 60,
        "11327": 209,
        "11328": 190,
        "11329": 231,
        "11330": 128,
        "11331": 86,
        "11332": 1,
        "11333": 176,
        "11334": 110,
        "11335": 113,
        "11336": 254,
        "11337": 97,
        "11338": 151,
        "11339": 37,
        "11340": 114,
        "11341": 17,
        "11342": 220,
        "11343": 130,
        "11344": 50,
        "11345": 55,
        "11346": 187,
        "11347": 19,
        "11348": 163,
        "11349": 21,
        "11350": 185,
        "11351": 213,
        "11352": 196,
        "11353": 74,
        "11354": 148,
        "11355": 63,
        "11356": 196,
        "11357": 146,
        "11358": 174,
        "11359": 36,
        "11360": 79,
        "11361": 196,
        "11362": 38,
        "11363": 148,
        "11364": 102,
        "11365": 137,
        "11366": 202,
        "11367": 25,
        "11368": 40,
        "11369": 34,
        "11370": 119,
        "11371": 30,
        "11372": 215,
        "11373": 211,
        "11374": 185,
        "11375": 188,
        "11376": 148,
        "11377": 224,
        "11378": 154,
        "11379": 214,
        "11380": 155,
        "11381": 195,
        "11382": 214,
        "11383": 127,
        "11384": 119,
        "11385": 190,
        "11386": 48,
        "11387": 244,
        "11388": 57,
        "11389": 64,
        "11390": 249,
        "11391": 128,
        "11392": 148,
        "11393": 47,
        "11394": 177,
        "11395": 82,
        "11396": 73,
        "11397": 43,
        "11398": 104,
        "11399": 161,
        "11400": 110,
        "11401": 114,
        "11402": 116,
        "11403": 35,
        "11404": 9,
        "11405": 154,
        "11406": 194,
        "11407": 163,
        "11408": 190,
        "11409": 57,
        "11410": 121,
        "11411": 183,
        "11412": 249,
        "11413": 155,
        "11414": 252,
        "11415": 60,
        "11416": 184,
        "11417": 235,
        "11418": 236,
        "11419": 134,
        "11420": 229,
        "11421": 111,
        "11422": 180,
        "11423": 152,
        "11424": 113,
        "11425": 215,
        "11426": 28,
        "11427": 0,
        "11428": 59,
        "11429": 14,
        "11430": 209,
        "11431": 112,
        "11432": 27,
        "11433": 77,
        "11434": 144,
        "11435": 127,
        "11436": 207,
        "11437": 206,
        "11438": 209,
        "11439": 144,
        "11440": 24,
        "11441": 186,
        "11442": 173,
        "11443": 202,
        "11444": 152,
        "11445": 173,
        "11446": 212,
        "11447": 86,
        "11448": 182,
        "11449": 210,
        "11450": 140,
        "11451": 164,
        "11452": 77,
        "11453": 76,
        "11454": 41,
        "11455": 226,
        "11456": 54,
        "11457": 68,
        "11458": 18,
        "11459": 85,
        "11460": 99,
        "11461": 212,
        "11462": 60,
        "11463": 57,
        "11464": 172,
        "11465": 85,
        "11466": 213,
        "11467": 181,
        "11468": 2,
        "11469": 252,
        "11470": 79,
        "11471": 134,
        "11472": 73,
        "11473": 57,
        "11474": 104,
        "11475": 105,
        "11476": 55,
        "11477": 212,
        "11478": 124,
        "11479": 232,
        "11480": 150,
        "11481": 36,
        "11482": 116,
        "11483": 205,
        "11484": 111,
        "11485": 11,
        "11486": 109,
        "11487": 143,
        "11488": 163,
        "11489": 161,
        "11490": 8,
        "11491": 156,
        "11492": 111,
        "11493": 194,
        "11494": 146,
        "11495": 245,
        "11496": 222,
        "11497": 60,
        "11498": 9,
        "11499": 74,
        "11500": 143,
        "11501": 247,
        "11502": 149,
        "11503": 77,
        "11504": 178,
        "11505": 51,
        "11506": 32,
        "11507": 77,
        "11508": 162,
        "11509": 172,
        "11510": 191,
        "11511": 51,
        "11512": 120,
        "11513": 93,
        "11514": 138,
        "11515": 190,
        "11516": 106,
        "11517": 64,
        "11518": 170,
        "11519": 12,
        "11520": 116,
        "11521": 10,
        "11522": 95,
        "11523": 99,
        "11524": 204,
        "11525": 196,
        "11526": 8,
        "11527": 163,
        "11528": 184,
        "11529": 207,
        "11530": 8,
        "11531": 186,
        "11532": 13,
        "11533": 18,
        "11534": 5,
        "11535": 231,
        "11536": 163,
        "11537": 212,
        "11538": 215,
        "11539": 245,
        "11540": 87,
        "11541": 3,
        "11542": 213,
        "11543": 59,
        "11544": 219,
        "11545": 190,
        "11546": 210,
        "11547": 88,
        "11548": 66,
        "11549": 191,
        "11550": 186,
        "11551": 161,
        "11552": 156,
        "11553": 41,
        "11554": 72,
        "11555": 192,
        "11556": 214,
        "11557": 33,
        "11558": 232,
        "11559": 191,
        "11560": 119,
        "11561": 90,
        "11562": 208,
        "11563": 202,
        "11564": 95,
        "11565": 16,
        "11566": 0,
        "11567": 135,
        "11568": 191,
        "11569": 102,
        "11570": 27,
        "11571": 218,
        "11572": 187,
        "11573": 126,
        "11574": 250,
        "11575": 206,
        "11576": 155,
        "11577": 216,
        "11578": 238,
        "11579": 80,
        "11580": 78,
        "11581": 185,
        "11582": 221,
        "11583": 56,
        "11584": 159,
        "11585": 207,
        "11586": 83,
        "11587": 207,
        "11588": 251,
        "11589": 13,
        "11590": 127,
        "11591": 26,
        "11592": 209,
        "11593": 56,
        "11594": 37,
        "11595": 41,
        "11596": 25,
        "11597": 98,
        "11598": 63,
        "11599": 143,
        "11600": 242,
        "11601": 84,
        "11602": 48,
        "11603": 101,
        "11604": 10,
        "11605": 243,
        "11606": 16,
        "11607": 164,
        "11608": 6,
        "11609": 110,
        "11610": 139,
        "11611": 60,
        "11612": 211,
        "11613": 54,
        "11614": 173,
        "11615": 144,
        "11616": 54,
        "11617": 55,
        "11618": 254,
        "11619": 199,
        "11620": 43,
        "11621": 250,
        "11622": 69,
        "11623": 136,
        "11624": 57,
        "11625": 186,
        "11626": 193,
        "11627": 105,
        "11628": 79,
        "11629": 208,
        "11630": 239,
        "11631": 254,
        "11632": 217,
        "11633": 6,
        "11634": 161,
        "11635": 218,
        "11636": 26,
        "11637": 60,
        "11638": 115,
        "11639": 126,
        "11640": 32,
        "11641": 3,
        "11642": 5,
        "11643": 102,
        "11644": 70,
        "11645": 192,
        "11646": 246,
        "11647": 113,
        "11648": 40,
        "11649": 135,
        "11650": 204,
        "11651": 191,
        "11652": 23,
        "11653": 197,
        "11654": 114,
        "11655": 11,
        "11656": 142,
        "11657": 105,
        "11658": 125,
        "11659": 109,
        "11660": 80,
        "11661": 244,
        "11662": 221,
        "11663": 79,
        "11664": 105,
        "11665": 244,
        "11666": 11,
        "11667": 100,
        "11668": 238,
        "11669": 136,
        "11670": 154,
        "11671": 187,
        "11672": 169,
        "11673": 222,
        "11674": 33,
        "11675": 53,
        "11676": 1,
        "11677": 143,
        "11678": 43,
        "11679": 150,
        "11680": 153,
        "11681": 199,
        "11682": 170,
        "11683": 48,
        "11684": 94,
        "11685": 224,
        "11686": 37,
        "11687": 193,
        "11688": 97,
        "11689": 45,
        "11690": 242,
        "11691": 94,
        "11692": 55,
        "11693": 249,
        "11694": 206,
        "11695": 167,
        "11696": 238,
        "11697": 252,
        "11698": 221,
        "11699": 87,
        "11700": 180,
        "11701": 240,
        "11702": 195,
        "11703": 71,
        "11704": 204,
        "11705": 230,
        "11706": 140,
        "11707": 119,
        "11708": 122,
        "11709": 229,
        "11710": 171,
        "11711": 224,
        "11712": 17,
        "11713": 161,
        "11714": 19,
        "11715": 229,
        "11716": 160,
        "11717": 241,
        "11718": 155,
        "11719": 141,
        "11720": 154,
        "11721": 40,
        "11722": 187,
        "11723": 173,
        "11724": 14,
        "11725": 108,
        "11726": 72,
        "11727": 136,
        "11728": 224,
        "11729": 10,
        "11730": 249,
        "11731": 39,
        "11732": 193,
        "11733": 105,
        "11734": 214,
        "11735": 117,
        "11736": 99,
        "11737": 107,
        "11738": 199,
        "11739": 93,
        "11740": 46,
        "11741": 81,
        "11742": 145,
        "11743": 80,
        "11744": 204,
        "11745": 81,
        "11746": 12,
        "11747": 219,
        "11748": 83,
        "11749": 207,
        "11750": 109,
        "11751": 158,
        "11752": 181,
        "11753": 30,
        "11754": 178,
        "11755": 111,
        "11756": 163,
        "11757": 234,
        "11758": 75,
        "11759": 196,
        "11760": 247,
        "11761": 145,
        "11762": 177,
        "11763": 67,
        "11764": 101,
        "11765": 33,
        "11766": 205,
        "11767": 37,
        "11768": 138,
        "11769": 194,
        "11770": 97,
        "11771": 59,
        "11772": 48,
        "11773": 247,
        "11774": 213,
        "11775": 217,
        "11776": 3,
        "11777": 200,
        "11778": 49,
        "11779": 187,
        "11780": 173,
        "11781": 135,
        "11782": 138,
        "11783": 100,
        "11784": 31,
        "11785": 53,
        "11786": 197,
        "11787": 27,
        "11788": 27,
        "11789": 6,
        "11790": 127,
        "11791": 29,
        "11792": 3,
        "11793": 176,
        "11794": 218,
        "11795": 77,
        "11796": 47,
        "11797": 197,
        "11798": 216,
        "11799": 247,
        "11800": 75,
        "11801": 87,
        "11802": 86,
        "11803": 165,
        "11804": 8,
        "11805": 56,
        "11806": 75,
        "11807": 64,
        "11808": 12,
        "11809": 165,
        "11810": 241,
        "11811": 51,
        "11812": 121,
        "11813": 165,
        "11814": 70,
        "11815": 152,
        "11816": 10,
        "11817": 179,
        "11818": 194,
        "11819": 125,
        "11820": 227,
        "11821": 168,
        "11822": 58,
        "11823": 157,
        "11824": 32,
        "11825": 157,
        "11826": 222,
        "11827": 122,
        "11828": 161,
        "11829": 33,
        "11830": 66,
        "11831": 55,
        "11832": 248,
        "11833": 157,
        "11834": 208,
        "11835": 228,
        "11836": 201,
        "11837": 184,
        "11838": 232,
        "11839": 34,
        "11840": 99,
        "11841": 105,
        "11842": 6,
        "11843": 145,
        "11844": 192,
        "11845": 66,
        "11846": 101,
        "11847": 177,
        "11848": 143,
        "11849": 159,
        "11850": 250,
        "11851": 27,
        "11852": 187,
        "11853": 109,
        "11854": 55,
        "11855": 194,
        "11856": 19,
        "11857": 37,
        "11858": 123,
        "11859": 37,
        "11860": 108,
        "11861": 14,
        "11862": 119,
        "11863": 151,
        "11864": 222,
        "11865": 47,
        "11866": 35,
        "11867": 102,
        "11868": 182,
        "11869": 128,
        "11870": 28,
        "11871": 104,
        "11872": 87,
        "11873": 150,
        "11874": 152,
        "11875": 204,
        "11876": 218,
        "11877": 199,
        "11878": 116,
        "11879": 44,
        "11880": 141,
        "11881": 97,
        "11882": 47,
        "11883": 135,
        "11884": 129,
        "11885": 215,
        "11886": 88,
        "11887": 247,
        "11888": 84,
        "11889": 160,
        "11890": 50,
        "11891": 110,
        "11892": 192,
        "11893": 40,
        "11894": 186,
        "11895": 197,
        "11896": 112,
        "11897": 71,
        "11898": 214,
        "11899": 207,
        "11900": 118,
        "11901": 8,
        "11902": 15,
        "11903": 219,
        "11904": 205,
        "11905": 44,
        "11906": 96,
        "11907": 33,
        "11908": 254,
        "11909": 7,
        "11910": 104,
        "11911": 130,
        "11912": 31,
        "11913": 162,
        "11914": 190,
        "11915": 157,
        "11916": 102,
        "11917": 215,
        "11918": 225,
        "11919": 21,
        "11920": 53,
        "11921": 232,
        "11922": 71,
        "11923": 207,
        "11924": 160,
        "11925": 61,
        "11926": 68,
        "11927": 200,
        "11928": 209,
        "11929": 161,
        "11930": 189,
        "11931": 74,
        "11932": 136,
        "11933": 71,
        "11934": 41,
        "11935": 101,
        "11936": 144,
        "11937": 38,
        "11938": 52,
        "11939": 20,
        "11940": 9,
        "11941": 193,
        "11942": 38,
        "11943": 242,
        "11944": 109,
        "11945": 140,
        "11946": 208,
        "11947": 75,
        "11948": 175,
        "11949": 203,
        "11950": 85,
        "11951": 82,
        "11952": 110,
        "11953": 65,
        "11954": 203,
        "11955": 13,
        "11956": 151,
        "11957": 53,
        "11958": 75,
        "11959": 45,
        "11960": 98,
        "11961": 15,
        "11962": 229,
        "11963": 23,
        "11964": 73,
        "11965": 176,
        "11966": 83,
        "11967": 169,
        "11968": 160,
        "11969": 226,
        "11970": 221,
        "11971": 132,
        "11972": 90,
        "11973": 248,
        "11974": 39,
        "11975": 118,
        "11976": 122,
        "11977": 143,
        "11978": 223,
        "11979": 45,
        "11980": 69,
        "11981": 157,
        "11982": 209,
        "11983": 136,
        "11984": 95,
        "11985": 98,
        "11986": 6,
        "11987": 129,
        "11988": 210,
        "11989": 134,
        "11990": 225,
        "11991": 136,
        "11992": 159,
        "11993": 225,
        "11994": 0,
        "11995": 15,
        "11996": 87,
        "11997": 253,
        "11998": 111,
        "11999": 161,
        "12000": 201,
        "12001": 62,
        "12002": 54,
        "12003": 156,
        "12004": 179,
        "12005": 210,
        "12006": 24,
        "12007": 124,
        "12008": 174,
        "12009": 185,
        "12010": 245,
        "12011": 17,
        "12012": 16,
        "12013": 102,
        "12014": 14,
        "12015": 255,
        "12016": 103,
        "12017": 83,
        "12018": 18,
        "12019": 128,
        "12020": 98,
        "12021": 164,
        "12022": 110,
        "12023": 2,
        "12024": 164,
        "12025": 235,
        "12026": 30,
        "12027": 194,
        "12028": 164,
        "12029": 227,
        "12030": 229,
        "12031": 107,
        "12032": 98,
        "12033": 218,
        "12034": 178,
        "12035": 138,
        "12036": 142,
        "12037": 11,
        "12038": 181,
        "12039": 102,
        "12040": 167,
        "12041": 191,
        "12042": 223,
        "12043": 66,
        "12044": 231,
        "12045": 156,
        "12046": 232,
        "12047": 179,
        "12048": 69,
        "12049": 154,
        "12050": 160,
        "12051": 160,
        "12052": 128,
        "12053": 155,
        "12054": 138,
        "12055": 175,
        "12056": 4,
        "12057": 216,
        "12058": 75,
        "12059": 242,
        "12060": 68,
        "12061": 132,
        "12062": 9,
        "12063": 237,
        "12064": 15,
        "12065": 168,
        "12066": 132,
        "12067": 234,
        "12068": 53,
        "12069": 235,
        "12070": 235,
        "12071": 217,
        "12072": 187,
        "12073": 45,
        "12074": 130,
        "12075": 171,
        "12076": 155,
        "12077": 23,
        "12078": 62,
        "12079": 30,
        "12080": 61,
        "12081": 188,
        "12082": 217,
        "12083": 217,
        "12084": 237,
        "12085": 245,
        "12086": 181,
        "12087": 234,
        "12088": 128,
        "12089": 131,
        "12090": 199,
        "12091": 109,
        "12092": 156,
        "12093": 42,
        "12094": 241,
        "12095": 95,
        "12096": 132,
        "12097": 27,
        "12098": 52,
        "12099": 3,
        "12100": 88,
        "12101": 7,
        "12102": 5,
        "12103": 21,
        "12104": 225,
        "12105": 214,
        "12106": 24,
        "12107": 53,
        "12108": 15,
        "12109": 18,
        "12110": 156,
        "12111": 250,
        "12112": 90,
        "12113": 169,
        "12114": 165,
        "12115": 43,
        "12116": 78,
        "12117": 188,
        "12118": 85,
        "12119": 117,
        "12120": 111,
        "12121": 13,
        "12122": 70,
        "12123": 193,
        "12124": 46,
        "12125": 35,
        "12126": 233,
        "12127": 244,
        "12128": 50,
        "12129": 39,
        "12130": 168,
        "12131": 236,
        "12132": 15,
        "12133": 246,
        "12134": 161,
        "12135": 25,
        "12136": 18,
        "12137": 124,
        "12138": 5,
        "12139": 98,
        "12140": 151,
        "12141": 168,
        "12142": 48,
        "12143": 123,
        "12144": 176,
        "12145": 16,
        "12146": 245,
        "12147": 106,
        "12148": 78,
        "12149": 0,
        "12150": 70,
        "12151": 178,
        "12152": 201,
        "12153": 98,
        "12154": 180,
        "12155": 145,
        "12156": 149,
        "12157": 139,
        "12158": 67,
        "12159": 186,
        "12160": 84,
        "12161": 155,
        "12162": 201,
        "12163": 188,
        "12164": 163,
        "12165": 161,
        "12166": 195,
        "12167": 97,
        "12168": 242,
        "12169": 197,
        "12170": 82,
        "12171": 41,
        "12172": 116,
        "12173": 125,
        "12174": 173,
        "12175": 209,
        "12176": 143,
        "12177": 250,
        "12178": 184,
        "12179": 238,
        "12180": 34,
        "12181": 83,
        "12182": 11,
        "12183": 157,
        "12184": 216,
        "12185": 221,
        "12186": 34,
        "12187": 51,
        "12188": 34,
        "12189": 40,
        "12190": 50,
        "12191": 176,
        "12192": 114,
        "12193": 255,
        "12194": 1,
        "12195": 21,
        "12196": 130,
        "12197": 18,
        "12198": 171,
        "12199": 249,
        "12200": 127,
        "12201": 130,
        "12202": 120,
        "12203": 23,
        "12204": 85,
        "12205": 206,
        "12206": 220,
        "12207": 193,
        "12208": 200,
        "12209": 196,
        "12210": 66,
        "12211": 41,
        "12212": 64,
        "12213": 26,
        "12214": 130,
        "12215": 227,
        "12216": 83,
        "12217": 36,
        "12218": 24,
        "12219": 10,
        "12220": 129,
        "12221": 84,
        "12222": 240,
        "12223": 119,
        "12224": 193,
        "12225": 108,
        "12226": 255,
        "12227": 140,
        "12228": 227,
        "12229": 158,
        "12230": 76,
        "12231": 171,
        "12232": 181,
        "12233": 142,
        "12234": 111,
        "12235": 209,
        "12236": 153,
        "12237": 187,
        "12238": 77,
        "12239": 11,
        "12240": 184,
        "12241": 169,
        "12242": 152,
        "12243": 76,
        "12244": 210,
        "12245": 173,
        "12246": 127,
        "12247": 224,
        "12248": 234,
        "12249": 31,
        "12250": 185,
        "12251": 124,
        "12252": 31,
        "12253": 68,
        "12254": 91,
        "12255": 41,
        "12256": 65,
        "12257": 146,
        "12258": 111,
        "12259": 124,
        "12260": 204,
        "12261": 161,
        "12262": 71,
        "12263": 119,
        "12264": 23,
        "12265": 188,
        "12266": 188,
        "12267": 164,
        "12268": 130,
        "12269": 13,
        "12270": 106,
        "12271": 34,
        "12272": 155,
        "12273": 97,
        "12274": 254,
        "12275": 150,
        "12276": 52,
        "12277": 107,
        "12278": 14,
        "12279": 231,
        "12280": 218,
        "12281": 21,
        "12282": 164,
        "12283": 166,
        "12284": 232,
        "12285": 221,
        "12286": 64,
        "12287": 190,
        "12288": 11,
        "12289": 109,
        "12290": 93,
        "12291": 136,
        "12292": 215,
        "12293": 76,
        "12294": 25,
        "12295": 108,
        "12296": 241,
        "12297": 236,
        "12298": 176,
        "12299": 240,
        "12300": 227,
        "12301": 122,
        "12302": 91,
        "12303": 165,
        "12304": 212,
        "12305": 165,
        "12306": 122,
        "12307": 58,
        "12308": 131,
        "12309": 53,
        "12310": 6,
        "12311": 116,
        "12312": 200,
        "12313": 107,
        "12314": 105,
        "12315": 87,
        "12316": 6,
        "12317": 196,
        "12318": 71,
        "12319": 251,
        "12320": 247,
        "12321": 236,
        "12322": 59,
        "12323": 103,
        "12324": 239,
        "12325": 42,
        "12326": 216,
        "12327": 184,
        "12328": 46,
        "12329": 215,
        "12330": 89,
        "12331": 199,
        "12332": 108,
        "12333": 118,
        "12334": 5,
        "12335": 165,
        "12336": 135,
        "12337": 57,
        "12338": 149,
        "12339": 31,
        "12340": 218,
        "12341": 34,
        "12342": 204,
        "12343": 110,
        "12344": 97,
        "12345": 3,
        "12346": 76,
        "12347": 137,
        "12348": 238,
        "12349": 249,
        "12350": 37,
        "12351": 94,
        "12352": 146,
        "12353": 134,
        "12354": 116,
        "12355": 229,
        "12356": 134,
        "12357": 53,
        "12358": 93,
        "12359": 184,
        "12360": 171,
        "12361": 230,
        "12362": 131,
        "12363": 227,
        "12364": 97,
        "12365": 186,
        "12366": 116,
        "12367": 42,
        "12368": 237,
        "12369": 16,
        "12370": 197,
        "12371": 81,
        "12372": 45,
        "12373": 224,
        "12374": 174,
        "12375": 244,
        "12376": 110,
        "12377": 97,
        "12378": 49,
        "12379": 184,
        "12380": 73,
        "12381": 23,
        "12382": 29,
        "12383": 0,
        "12384": 98,
        "12385": 251,
        "12386": 154,
        "12387": 215,
        "12388": 209,
        "12389": 233,
        "12390": 255,
        "12391": 218,
        "12392": 49,
        "12393": 23,
        "12394": 71,
        "12395": 19,
        "12396": 204,
        "12397": 129,
        "12398": 18,
        "12399": 191,
        "12400": 169,
        "12401": 99,
        "12402": 44,
        "12403": 165,
        "12404": 232,
        "12405": 166,
        "12406": 56,
        "12407": 64,
        "12408": 146,
        "12409": 180,
        "12410": 90,
        "12411": 201,
        "12412": 224,
        "12413": 210,
        "12414": 111,
        "12415": 111,
        "12416": 118,
        "12417": 85,
        "12418": 225,
        "12419": 28,
        "12420": 126,
        "12421": 108,
        "12422": 197,
        "12423": 128,
        "12424": 151,
        "12425": 19,
        "12426": 42,
        "12427": 139,
        "12428": 129,
        "12429": 223,
        "12430": 243,
        "12431": 242,
        "12432": 44,
        "12433": 251,
        "12434": 4,
        "12435": 27,
        "12436": 42,
        "12437": 139,
        "12438": 243,
        "12439": 233,
        "12440": 14,
        "12441": 179,
        "12442": 248,
        "12443": 165,
        "12444": 120,
        "12445": 86,
        "12446": 214,
        "12447": 73,
        "12448": 211,
        "12449": 99,
        "12450": 242,
        "12451": 99,
        "12452": 184,
        "12453": 195,
        "12454": 10,
        "12455": 244,
        "12456": 218,
        "12457": 86,
        "12458": 201,
        "12459": 122,
        "12460": 88,
        "12461": 247,
        "12462": 198,
        "12463": 111,
        "12464": 36,
        "12465": 223,
        "12466": 236,
        "12467": 233,
        "12468": 187,
        "12469": 36,
        "12470": 95,
        "12471": 236,
        "12472": 203,
        "12473": 69,
        "12474": 127,
        "12475": 9,
        "12476": 97,
        "12477": 48,
        "12478": 214,
        "12479": 55,
        "12480": 239,
        "12481": 114,
        "12482": 186,
        "12483": 39,
        "12484": 187,
        "12485": 211,
        "12486": 56,
        "12487": 225,
        "12488": 211,
        "12489": 248,
        "12490": 103,
        "12491": 242,
        "12492": 49,
        "12493": 111,
        "12494": 158,
        "12495": 75,
        "12496": 77,
        "12497": 18,
        "12498": 245,
        "12499": 83,
        "12500": 238,
        "12501": 34,
        "12502": 125,
        "12503": 2,
        "12504": 47,
        "12505": 221,
        "12506": 255,
        "12507": 167,
        "12508": 159,
        "12509": 137,
        "12510": 101,
        "12511": 83,
        "12512": 139,
        "12513": 104,
        "12514": 72,
        "12515": 42,
        "12516": 231,
        "12517": 223,
        "12518": 192,
        "12519": 76,
        "12520": 105,
        "12521": 173,
        "12522": 169,
        "12523": 90,
        "12524": 164,
        "12525": 172,
        "12526": 213,
        "12527": 39,
        "12528": 71,
        "12529": 20,
        "12530": 246,
        "12531": 84,
        "12532": 119,
        "12533": 115,
        "12534": 34,
        "12535": 33,
        "12536": 139,
        "12537": 180,
        "12538": 95,
        "12539": 240,
        "12540": 159,
        "12541": 112,
        "12542": 148,
        "12543": 106,
        "12544": 207,
        "12545": 191,
        "12546": 65,
        "12547": 45,
        "12548": 220,
        "12549": 92,
        "12550": 111,
        "12551": 88,
        "12552": 108,
        "12553": 207,
        "12554": 74,
        "12555": 40,
        "12556": 36,
        "12557": 3,
        "12558": 66,
        "12559": 170,
        "12560": 2,
        "12561": 251,
        "12562": 118,
        "12563": 18,
        "12564": 199,
        "12565": 243,
        "12566": 176,
        "12567": 130,
        "12568": 240,
        "12569": 224,
        "12570": 60,
        "12571": 55,
        "12572": 231,
        "12573": 54,
        "12574": 160,
        "12575": 196,
        "12576": 231,
        "12577": 194,
        "12578": 206,
        "12579": 176,
        "12580": 209,
        "12581": 136,
        "12582": 58,
        "12583": 128,
        "12584": 73,
        "12585": 80,
        "12586": 166,
        "12587": 31,
        "12588": 116,
        "12589": 46,
        "12590": 187,
        "12591": 49,
        "12592": 100,
        "12593": 235,
        "12594": 246,
        "12595": 195,
        "12596": 180,
        "12597": 143,
        "12598": 139,
        "12599": 113,
        "12600": 143,
        "12601": 105,
        "12602": 9,
        "12603": 31,
        "12604": 223,
        "12605": 106,
        "12606": 58,
        "12607": 98,
        "12608": 40,
        "12609": 251,
        "12610": 144,
        "12611": 214,
        "12612": 26,
        "12613": 204,
        "12614": 99,
        "12615": 145,
        "12616": 173,
        "12617": 39,
        "12618": 136,
        "12619": 1,
        "12620": 211,
        "12621": 76,
        "12622": 121,
        "12623": 41,
        "12624": 93,
        "12625": 207,
        "12626": 154,
        "12627": 88,
        "12628": 114,
        "12629": 212,
        "12630": 82,
        "12631": 85,
        "12632": 28,
        "12633": 236,
        "12634": 23,
        "12635": 217,
        "12636": 90,
        "12637": 62,
        "12638": 223,
        "12639": 239,
        "12640": 199,
        "12641": 47,
        "12642": 37,
        "12643": 180,
        "12644": 37,
        "12645": 85,
        "12646": 89,
        "12647": 34,
        "12648": 81,
        "12649": 206,
        "12650": 79,
        "12651": 99,
        "12652": 196,
        "12653": 42,
        "12654": 28,
        "12655": 109,
        "12656": 247,
        "12657": 16,
        "12658": 131,
        "12659": 135,
        "12660": 2,
        "12661": 235,
        "12662": 188,
        "12663": 95,
        "12664": 114,
        "12665": 23,
        "12666": 200,
        "12667": 2,
        "12668": 2,
        "12669": 115,
        "12670": 150,
        "12671": 192,
        "12672": 4,
        "12673": 3,
        "12674": 151,
        "12675": 13,
        "12676": 14,
        "12677": 5,
        "12678": 211,
        "12679": 11,
        "12680": 250,
        "12681": 201,
        "12682": 63,
        "12683": 70,
        "12684": 176,
        "12685": 51,
        "12686": 8,
        "12687": 12,
        "12688": 148,
        "12689": 124,
        "12690": 237,
        "12691": 250,
        "12692": 207,
        "12693": 71,
        "12694": 43,
        "12695": 178,
        "12696": 24,
        "12697": 181,
        "12698": 190,
        "12699": 160,
        "12700": 32,
        "12701": 134,
        "12702": 86,
        "12703": 226,
        "12704": 224,
        "12705": 231,
        "12706": 102,
        "12707": 192,
        "12708": 174,
        "12709": 128,
        "12710": 185,
        "12711": 38,
        "12712": 207,
        "12713": 227,
        "12714": 179,
        "12715": 71,
        "12716": 137,
        "12717": 35,
        "12718": 194,
        "12719": 176,
        "12720": 247,
        "12721": 226,
        "12722": 86,
        "12723": 90,
        "12724": 50,
        "12725": 119,
        "12726": 88,
        "12727": 223,
        "12728": 92,
        "12729": 225,
        "12730": 245,
        "12731": 199,
        "12732": 137,
        "12733": 26,
        "12734": 93,
        "12735": 37,
        "12736": 33,
        "12737": 244,
        "12738": 41,
        "12739": 249,
        "12740": 147,
        "12741": 18,
        "12742": 222,
        "12743": 234,
        "12744": 192,
        "12745": 144,
        "12746": 194,
        "12747": 92,
        "12748": 242,
        "12749": 127,
        "12750": 42,
        "12751": 188,
        "12752": 28,
        "12753": 41,
        "12754": 224,
        "12755": 235,
        "12756": 250,
        "12757": 18,
        "12758": 5,
        "12759": 24,
        "12760": 121,
        "12761": 251,
        "12762": 185,
        "12763": 208,
        "12764": 249,
        "12765": 114,
        "12766": 143,
        "12767": 241,
        "12768": 51,
        "12769": 93,
        "12770": 153,
        "12771": 63,
        "12772": 70,
        "12773": 196,
        "12774": 127,
        "12775": 44,
        "12776": 108,
        "12777": 49,
        "12778": 201,
        "12779": 179,
        "12780": 7,
        "12781": 161,
        "12782": 137,
        "12783": 163,
        "12784": 117,
        "12785": 206,
        "12786": 70,
        "12787": 185,
        "12788": 86,
        "12789": 176,
        "12790": 133,
        "12791": 72,
        "12792": 102,
        "12793": 22,
        "12794": 211,
        "12795": 96,
        "12796": 210,
        "12797": 203,
        "12798": 104,
        "12799": 187,
        "12800": 73,
        "12801": 249,
        "12802": 151,
        "12803": 157,
        "12804": 40,
        "12805": 90,
        "12806": 30,
        "12807": 174,
        "12808": 128,
        "12809": 181,
        "12810": 200,
        "12811": 124,
        "12812": 115,
        "12813": 41,
        "12814": 215,
        "12815": 77,
        "12816": 98,
        "12817": 95,
        "12818": 4,
        "12819": 254,
        "12820": 92,
        "12821": 206,
        "12822": 220,
        "12823": 161,
        "12824": 163,
        "12825": 241,
        "12826": 184,
        "12827": 86,
        "12828": 194,
        "12829": 183,
        "12830": 127,
        "12831": 208,
        "12832": 151,
        "12833": 62,
        "12834": 85,
        "12835": 28,
        "12836": 0,
        "12837": 201,
        "12838": 166,
        "12839": 37,
        "12840": 125,
        "12841": 143,
        "12842": 50,
        "12843": 16,
        "12844": 218,
        "12845": 167,
        "12846": 142,
        "12847": 153,
        "12848": 62,
        "12849": 216,
        "12850": 227,
        "12851": 98,
        "12852": 54,
        "12853": 149,
        "12854": 86,
        "12855": 7,
        "12856": 8,
        "12857": 179,
        "12858": 208,
        "12859": 252,
        "12860": 252,
        "12861": 5,
        "12862": 46,
        "12863": 43,
        "12864": 217,
        "12865": 138,
        "12866": 72,
        "12867": 122,
        "12868": 209,
        "12869": 240,
        "12870": 4,
        "12871": 74,
        "12872": 36,
        "12873": 87,
        "12874": 191,
        "12875": 82,
        "12876": 40,
        "12877": 164,
        "12878": 27,
        "12879": 74,
        "12880": 110,
        "12881": 219,
        "12882": 35,
        "12883": 18,
        "12884": 68,
        "12885": 53,
        "12886": 43,
        "12887": 199,
        "12888": 245,
        "12889": 188,
        "12890": 207,
        "12891": 247,
        "12892": 123,
        "12893": 57,
        "12894": 10,
        "12895": 48,
        "12896": 206,
        "12897": 117,
        "12898": 40,
        "12899": 179,
        "12900": 64,
        "12901": 69,
        "12902": 180,
        "12903": 128,
        "12904": 31,
        "12905": 49,
        "12906": 105,
        "12907": 155,
        "12908": 200,
        "12909": 144,
        "12910": 156,
        "12911": 231,
        "12912": 196,
        "12913": 176,
        "12914": 103,
        "12915": 248,
        "12916": 43,
        "12917": 131,
        "12918": 1,
        "12919": 122,
        "12920": 180,
        "12921": 170,
        "12922": 39,
        "12923": 110,
        "12924": 54,
        "12925": 161,
        "12926": 46,
        "12927": 91,
        "12928": 116,
        "12929": 176,
        "12930": 170,
        "12931": 111,
        "12932": 58,
        "12933": 193,
        "12934": 71,
        "12935": 220,
        "12936": 178,
        "12937": 146,
        "12938": 192,
        "12939": 125,
        "12940": 160,
        "12941": 173,
        "12942": 58,
        "12943": 26,
        "12944": 92,
        "12945": 121,
        "12946": 107,
        "12947": 135,
        "12948": 169,
        "12949": 20,
        "12950": 90,
        "12951": 28,
        "12952": 225,
        "12953": 99,
        "12954": 160,
        "12955": 86,
        "12956": 48,
        "12957": 178,
        "12958": 97,
        "12959": 117,
        "12960": 168,
        "12961": 230,
        "12962": 89,
        "12963": 40,
        "12964": 10,
        "12965": 246,
        "12966": 19,
        "12967": 199,
        "12968": 179,
        "12969": 67,
        "12970": 9,
        "12971": 76,
        "12972": 144,
        "12973": 65,
        "12974": 29,
        "12975": 15,
        "12976": 190,
        "12977": 71,
        "12978": 82,
        "12979": 28,
        "12980": 98,
        "12981": 74,
        "12982": 187,
        "12983": 228,
        "12984": 126,
        "12985": 23,
        "12986": 8,
        "12987": 58,
        "12988": 115,
        "12989": 254,
        "12990": 19,
        "12991": 211,
        "12992": 157,
        "12993": 180,
        "12994": 3,
        "12995": 163,
        "12996": 172,
        "12997": 186,
        "12998": 230,
        "12999": 235,
        "13000": 111,
        "13001": 114,
        "13002": 241,
        "13003": 121,
        "13004": 244,
        "13005": 10,
        "13006": 155,
        "13007": 183,
        "13008": 26,
        "13009": 214,
        "13010": 148,
        "13011": 120,
        "13012": 175,
        "13013": 170,
        "13014": 48,
        "13015": 9,
        "13016": 13,
        "13017": 153,
        "13018": 231,
        "13019": 46,
        "13020": 209,
        "13021": 244,
        "13022": 163,
        "13023": 53,
        "13024": 111,
        "13025": 205,
        "13026": 51,
        "13027": 149,
        "13028": 14,
        "13029": 19,
        "13030": 66,
        "13031": 11,
        "13032": 69,
        "13033": 175,
        "13034": 35,
        "13035": 121,
        "13036": 166,
        "13037": 10,
        "13038": 126,
        "13039": 113,
        "13040": 205,
        "13041": 211,
        "13042": 205,
        "13043": 207,
        "13044": 68,
        "13045": 17,
        "13046": 190,
        "13047": 255,
        "13048": 3,
        "13049": 42,
        "13050": 160,
        "13051": 79,
        "13052": 154,
        "13053": 71,
        "13054": 85,
        "13055": 172,
        "13056": 180,
        "13057": 78,
        "13058": 110,
        "13059": 191,
        "13060": 172,
        "13061": 254,
        "13062": 70,
        "13063": 44,
        "13064": 39,
        "13065": 5,
        "13066": 122,
        "13067": 23,
        "13068": 40,
        "13069": 4,
        "13070": 174,
        "13071": 71,
        "13072": 58,
        "13073": 188,
        "13074": 13,
        "13075": 84,
        "13076": 168,
        "13077": 254,
        "13078": 211,
        "13079": 46,
        "13080": 108,
        "13081": 7,
        "13082": 34,
        "13083": 187,
        "13084": 243,
        "13085": 215,
        "13086": 94,
        "13087": 173,
        "13088": 66,
        "13089": 137,
        "13090": 100,
        "13091": 153,
        "13092": 156,
        "13093": 5,
        "13094": 238,
        "13095": 58,
        "13096": 72,
        "13097": 47,
        "13098": 243,
        "13099": 191,
        "13100": 41,
        "13101": 61,
        "13102": 232,
        "13103": 200,
        "13104": 143,
        "13105": 202,
        "13106": 209,
        "13107": 41,
        "13108": 93,
        "13109": 167,
        "13110": 64,
        "13111": 44,
        "13112": 205,
        "13113": 33,
        "13114": 146,
        "13115": 101,
        "13116": 51,
        "13117": 73,
        "13118": 244,
        "13119": 183,
        "13120": 216,
        "13121": 102,
        "13122": 128,
        "13123": 157,
        "13124": 210,
        "13125": 229,
        "13126": 221,
        "13127": 74,
        "13128": 16,
        "13129": 236,
        "13130": 240,
        "13131": 222,
        "13132": 167,
        "13133": 180,
        "13134": 28,
        "13135": 68,
        "13136": 250,
        "13137": 224,
        "13138": 197,
        "13139": 8,
        "13140": 211,
        "13141": 239,
        "13142": 172,
        "13143": 176,
        "13144": 28,
        "13145": 200,
        "13146": 36,
        "13147": 228,
        "13148": 137,
        "13149": 190,
        "13150": 172,
        "13151": 0,
        "13152": 20,
        "13153": 169,
        "13154": 225,
        "13155": 207,
        "13156": 83,
        "13157": 162,
        "13158": 132,
        "13159": 24,
        "13160": 143,
        "13161": 225,
        "13162": 106,
        "13163": 113,
        "13164": 108,
        "13165": 121,
        "13166": 94,
        "13167": 252,
        "13168": 8,
        "13169": 33,
        "13170": 24,
        "13171": 39,
        "13172": 176,
        "13173": 150,
        "13174": 68,
        "13175": 192,
        "13176": 59,
        "13177": 218,
        "13178": 219,
        "13179": 79,
        "13180": 48,
        "13181": 38,
        "13182": 250,
        "13183": 40,
        "13184": 4,
        "13185": 152,
        "13186": 239,
        "13187": 181,
        "13188": 129,
        "13189": 159,
        "13190": 113,
        "13191": 232,
        "13192": 210,
        "13193": 145,
        "13194": 217,
        "13195": 117,
        "13196": 139,
        "13197": 220,
        "13198": 107,
        "13199": 71,
        "13200": 179,
        "13201": 26,
        "13202": 176,
        "13203": 80,
        "13204": 195,
        "13205": 123,
        "13206": 140,
        "13207": 155,
        "13208": 111,
        "13209": 209,
        "13210": 11,
        "13211": 83,
        "13212": 4,
        "13213": 173,
        "13214": 4,
        "13215": 253,
        "13216": 247,
        "13217": 3,
        "13218": 59,
        "13219": 182,
        "13220": 130,
        "13221": 18,
        "13222": 73,
        "13223": 69,
        "13224": 116,
        "13225": 55,
        "13226": 25,
        "13227": 170,
        "13228": 212,
        "13229": 216,
        "13230": 251,
        "13231": 39,
        "13232": 251,
        "13233": 174,
        "13234": 97,
        "13235": 57,
        "13236": 121,
        "13237": 157,
        "13238": 231,
        "13239": 249,
        "13240": 107,
        "13241": 27,
        "13242": 108,
        "13243": 234,
        "13244": 254,
        "13245": 11,
        "13246": 178,
        "13247": 149,
        "13248": 181,
        "13249": 219,
        "13250": 201,
        "13251": 130,
        "13252": 89,
        "13253": 89,
        "13254": 3,
        "13255": 84,
        "13256": 105,
        "13257": 118,
        "13258": 169,
        "13259": 177,
        "13260": 47,
        "13261": 141,
        "13262": 76,
        "13263": 235,
        "13264": 197,
        "13265": 189,
        "13266": 179,
        "13267": 4,
        "13268": 78,
        "13269": 154,
        "13270": 138,
        "13271": 23,
        "13272": 178,
        "13273": 71,
        "13274": 35,
        "13275": 58,
        "13276": 176,
        "13277": 213,
        "13278": 9,
        "13279": 186,
        "13280": 128,
        "13281": 181,
        "13282": 0,
        "13283": 140,
        "13284": 161,
        "13285": 100,
        "13286": 21,
        "13287": 8,
        "13288": 25,
        "13289": 127,
        "13290": 57,
        "13291": 11,
        "13292": 71,
        "13293": 132,
        "13294": 53,
        "13295": 170,
        "13296": 37,
        "13297": 74,
        "13298": 19,
        "13299": 207,
        "13300": 35,
        "13301": 120,
        "13302": 147,
        "13303": 73,
        "13304": 160,
        "13305": 11,
        "13306": 26,
        "13307": 30,
        "13308": 179,
        "13309": 108,
        "13310": 194,
        "13311": 240,
        "13312": 238,
        "13313": 56,
        "13314": 50,
        "13315": 1,
        "13316": 186,
        "13317": 176,
        "13318": 169,
        "13319": 29,
        "13320": 94,
        "13321": 235,
        "13322": 196,
        "13323": 165,
        "13324": 222,
        "13325": 185,
        "13326": 17,
        "13327": 33,
        "13328": 30,
        "13329": 127,
        "13330": 140,
        "13331": 77,
        "13332": 236,
        "13333": 143,
        "13334": 23,
        "13335": 130,
        "13336": 18,
        "13337": 81,
        "13338": 44,
        "13339": 177,
        "13340": 253,
        "13341": 85,
        "13342": 221,
        "13343": 231,
        "13344": 70,
        "13345": 125,
        "13346": 94,
        "13347": 51,
        "13348": 104,
        "13349": 172,
        "13350": 73,
        "13351": 193,
        "13352": 82,
        "13353": 171,
        "13354": 42,
        "13355": 124,
        "13356": 26,
        "13357": 48,
        "13358": 104,
        "13359": 120,
        "13360": 186,
        "13361": 217,
        "13362": 7,
        "13363": 24,
        "13364": 31,
        "13365": 133,
        "13366": 105,
        "13367": 216,
        "13368": 33,
        "13369": 18,
        "13370": 118,
        "13371": 110,
        "13372": 88,
        "13373": 17,
        "13374": 225,
        "13375": 184,
        "13376": 172,
        "13377": 242,
        "13378": 194,
        "13379": 104,
        "13380": 199,
        "13381": 79,
        "13382": 159,
        "13383": 28,
        "13384": 31,
        "13385": 135,
        "13386": 214,
        "13387": 192,
        "13388": 170,
        "13389": 68,
        "13390": 153,
        "13391": 135,
        "13392": 188,
        "13393": 172,
        "13394": 166,
        "13395": 204,
        "13396": 50,
        "13397": 201,
        "13398": 114,
        "13399": 52,
        "13400": 200,
        "13401": 234,
        "13402": 244,
        "13403": 215,
        "13404": 222,
        "13405": 16,
        "13406": 181,
        "13407": 38,
        "13408": 141,
        "13409": 204,
        "13410": 190,
        "13411": 48,
        "13412": 221,
        "13413": 193,
        "13414": 13,
        "13415": 124,
        "13416": 67,
        "13417": 59,
        "13418": 182,
        "13419": 49,
        "13420": 49,
        "13421": 120,
        "13422": 198,
        "13423": 136,
        "13424": 200,
        "13425": 237,
        "13426": 8,
        "13427": 26,
        "13428": 55,
        "13429": 134,
        "13430": 135,
        "13431": 118,
        "13432": 174,
        "13433": 214,
        "13434": 116,
        "13435": 172,
        "13436": 100,
        "13437": 216,
        "13438": 108,
        "13439": 196,
        "13440": 125,
        "13441": 177,
        "13442": 45,
        "13443": 173,
        "13444": 33,
        "13445": 80,
        "13446": 249,
        "13447": 127,
        "13448": 170,
        "13449": 175,
        "13450": 39,
        "13451": 194,
        "13452": 203,
        "13453": 157,
        "13454": 214,
        "13455": 27,
        "13456": 190,
        "13457": 90,
        "13458": 1,
        "13459": 117,
        "13460": 69,
        "13461": 233,
        "13462": 206,
        "13463": 30,
        "13464": 46,
        "13465": 94,
        "13466": 254,
        "13467": 182,
        "13468": 102,
        "13469": 161,
        "13470": 101,
        "13471": 188,
        "13472": 120,
        "13473": 86,
        "13474": 3,
        "13475": 55,
        "13476": 213,
        "13477": 6,
        "13478": 6,
        "13479": 0,
        "13480": 160,
        "13481": 254,
        "13482": 71,
        "13483": 190,
        "13484": 207,
        "13485": 19,
        "13486": 54,
        "13487": 90,
        "13488": 225,
        "13489": 184,
        "13490": 73,
        "13491": 202,
        "13492": 215,
        "13493": 99,
        "13494": 219,
        "13495": 83,
        "13496": 164,
        "13497": 86,
        "13498": 15,
        "13499": 173,
        "13500": 102,
        "13501": 36,
        "13502": 54,
        "13503": 107,
        "13504": 88,
        "13505": 150,
        "13506": 138,
        "13507": 75,
        "13508": 9,
        "13509": 87,
        "13510": 47,
        "13511": 14,
        "13512": 162,
        "13513": 157,
        "13514": 46,
        "13515": 20,
        "13516": 158,
        "13517": 110,
        "13518": 169,
        "13519": 224,
        "13520": 68,
        "13521": 164,
        "13522": 34,
        "13523": 82,
        "13524": 59,
        "13525": 70,
        "13526": 128,
        "13527": 59,
        "13528": 248,
        "13529": 140,
        "13530": 99,
        "13531": 230,
        "13532": 237,
        "13533": 218,
        "13534": 209,
        "13535": 57,
        "13536": 167,
        "13537": 113,
        "13538": 219,
        "13539": 243,
        "13540": 94,
        "13541": 63,
        "13542": 89,
        "13543": 82,
        "13544": 112,
        "13545": 241,
        "13546": 250,
        "13547": 32,
        "13548": 130,
        "13549": 92,
        "13550": 94,
        "13551": 200,
        "13552": 149,
        "13553": 241,
        "13554": 198,
        "13555": 198,
        "13556": 251,
        "13557": 61,
        "13558": 44,
        "13559": 103,
        "13560": 29,
        "13561": 130,
        "13562": 45,
        "13563": 135,
        "13564": 36,
        "13565": 70,
        "13566": 99,
        "13567": 103,
        "13568": 67,
        "13569": 71,
        "13570": 128,
        "13571": 196,
        "13572": 244,
        "13573": 234,
        "13574": 123,
        "13575": 144,
        "13576": 202,
        "13577": 90,
        "13578": 220,
        "13579": 193,
        "13580": 230,
        "13581": 115,
        "13582": 237,
        "13583": 128,
        "13584": 45,
        "13585": 204,
        "13586": 233,
        "13587": 132,
        "13588": 10,
        "13589": 171,
        "13590": 21,
        "13591": 1,
        "13592": 93,
        "13593": 166,
        "13594": 84,
        "13595": 222,
        "13596": 132,
        "13597": 12,
        "13598": 45,
        "13599": 164,
        "13600": 59,
        "13601": 116,
        "13602": 239,
        "13603": 162,
        "13604": 46,
        "13605": 227,
        "13606": 122,
        "13607": 240,
        "13608": 31,
        "13609": 178,
        "13610": 59,
        "13611": 44,
        "13612": 129,
        "13613": 23,
        "13614": 214,
        "13615": 79,
        "13616": 189,
        "13617": 55,
        "13618": 244,
        "13619": 142,
        "13620": 40,
        "13621": 176,
        "13622": 207,
        "13623": 89,
        "13624": 148,
        "13625": 60,
        "13626": 95,
        "13627": 58,
        "13628": 12,
        "13629": 41,
        "13630": 91,
        "13631": 186,
        "13632": 135,
        "13633": 109,
        "13634": 52,
        "13635": 111,
        "13636": 178,
        "13637": 100,
        "13638": 136,
        "13639": 217,
        "13640": 91,
        "13641": 226,
        "13642": 6,
        "13643": 88,
        "13644": 27,
        "13645": 198,
        "13646": 177,
        "13647": 71,
        "13648": 226,
        "13649": 158,
        "13650": 128,
        "13651": 136,
        "13652": 248,
        "13653": 86,
        "13654": 142,
        "13655": 248,
        "13656": 86,
        "13657": 84,
        "13658": 146,
        "13659": 209,
        "13660": 144,
        "13661": 77,
        "13662": 172,
        "13663": 29,
        "13664": 17,
        "13665": 224,
        "13666": 147,
        "13667": 86,
        "13668": 41,
        "13669": 223,
        "13670": 211,
        "13671": 218,
        "13672": 243,
        "13673": 11,
        "13674": 203,
        "13675": 53,
        "13676": 21,
        "13677": 165,
        "13678": 95,
        "13679": 231,
        "13680": 40,
        "13681": 248,
        "13682": 250,
        "13683": 144,
        "13684": 3,
        "13685": 49,
        "13686": 191,
        "13687": 255,
        "13688": 232,
        "13689": 39,
        "13690": 6,
        "13691": 2,
        "13692": 73,
        "13693": 203,
        "13694": 113,
        "13695": 123,
        "13696": 42,
        "13697": 138,
        "13698": 213,
        "13699": 170,
        "13700": 43,
        "13701": 160,
        "13702": 54,
        "13703": 147,
        "13704": 206,
        "13705": 52,
        "13706": 224,
        "13707": 174,
        "13708": 53,
        "13709": 202,
        "13710": 247,
        "13711": 27,
        "13712": 102,
        "13713": 45,
        "13714": 188,
        "13715": 207,
        "13716": 96,
        "13717": 192,
        "13718": 4,
        "13719": 35,
        "13720": 103,
        "13721": 58,
        "13722": 142,
        "13723": 241,
        "13724": 7,
        "13725": 21,
        "13726": 69,
        "13727": 117,
        "13728": 217,
        "13729": 136,
        "13730": 27,
        "13731": 233,
        "13732": 17,
        "13733": 54,
        "13734": 254,
        "13735": 183,
        "13736": 109,
        "13737": 136,
        "13738": 130,
        "13739": 219,
        "13740": 157,
        "13741": 248,
        "13742": 175,
        "13743": 224,
        "13744": 162,
        "13745": 104,
        "13746": 130,
        "13747": 131,
        "13748": 123,
        "13749": 143,
        "13750": 25,
        "13751": 137,
        "13752": 114,
        "13753": 192,
        "13754": 191,
        "13755": 118,
        "13756": 0,
        "13757": 178,
        "13758": 199,
        "13759": 185,
        "13760": 138,
        "13761": 242,
        "13762": 31,
        "13763": 41,
        "13764": 84,
        "13765": 213,
        "13766": 247,
        "13767": 241,
        "13768": 181,
        "13769": 231,
        "13770": 137,
        "13771": 240,
        "13772": 3,
        "13773": 28,
        "13774": 39,
        "13775": 223,
        "13776": 210,
        "13777": 102,
        "13778": 198,
        "13779": 192,
        "13780": 22,
        "13781": 152,
        "13782": 32,
        "13783": 1,
        "13784": 224,
        "13785": 246,
        "13786": 103,
        "13787": 135,
        "13788": 196,
        "13789": 57,
        "13790": 138,
        "13791": 52,
        "13792": 111,
        "13793": 52,
        "13794": 108,
        "13795": 3,
        "13796": 201,
        "13797": 162,
        "13798": 159,
        "13799": 54,
        "13800": 149,
        "13801": 190,
        "13802": 70,
        "13803": 161,
        "13804": 101,
        "13805": 153,
        "13806": 208,
        "13807": 148,
        "13808": 197,
        "13809": 30,
        "13810": 51,
        "13811": 74,
        "13812": 49,
        "13813": 221,
        "13814": 78,
        "13815": 213,
        "13816": 63,
        "13817": 231,
        "13818": 13,
        "13819": 140,
        "13820": 154,
        "13821": 141,
        "13822": 123,
        "13823": 139,
        "13824": 64,
        "13825": 222,
        "13826": 240,
        "13827": 1,
        "13828": 184,
        "13829": 70,
        "13830": 75,
        "13831": 215,
        "13832": 177,
        "13833": 136,
        "13834": 53,
        "13835": 109,
        "13836": 62,
        "13837": 70,
        "13838": 216,
        "13839": 24,
        "13840": 221,
        "13841": 37,
        "13842": 17,
        "13843": 64,
        "13844": 42,
        "13845": 8,
        "13846": 180,
        "13847": 25,
        "13848": 80,
        "13849": 144,
        "13850": 77,
        "13851": 70,
        "13852": 154,
        "13853": 240,
        "13854": 198,
        "13855": 52,
        "13856": 218,
        "13857": 233,
        "13858": 184,
        "13859": 115,
        "13860": 104,
        "13861": 244,
        "13862": 220,
        "13863": 79,
        "13864": 235,
        "13865": 213,
        "13866": 232,
        "13867": 88,
        "13868": 167,
        "13869": 1,
        "13870": 229,
        "13871": 192,
        "13872": 233,
        "13873": 165,
        "13874": 71,
        "13875": 44,
        "13876": 236,
        "13877": 180,
        "13878": 246,
        "13879": 224,
        "13880": 83,
        "13881": 28,
        "13882": 4,
        "13883": 103,
        "13884": 157,
        "13885": 45,
        "13886": 97,
        "13887": 166,
        "13888": 166,
        "13889": 51,
        "13890": 171,
        "13891": 86,
        "13892": 90,
        "13893": 167,
        "13894": 49,
        "13895": 135,
        "13896": 145,
        "13897": 213,
        "13898": 194,
        "13899": 84,
        "13900": 62,
        "13901": 170,
        "13902": 233,
        "13903": 138,
        "13904": 48,
        "13905": 206,
        "13906": 55,
        "13907": 109,
        "13908": 213,
        "13909": 110,
        "13910": 55,
        "13911": 241,
        "13912": 11,
        "13913": 47,
        "13914": 152,
        "13915": 202,
        "13916": 13,
        "13917": 156,
        "13918": 198,
        "13919": 117,
        "13920": 201,
        "13921": 119,
        "13922": 178,
        "13923": 238,
        "13924": 139,
        "13925": 243,
        "13926": 107,
        "13927": 144,
        "13928": 174,
        "13929": 10,
        "13930": 49,
        "13931": 141,
        "13932": 118,
        "13933": 100,
        "13934": 4,
        "13935": 159,
        "13936": 26,
        "13937": 45,
        "13938": 217,
        "13939": 244,
        "13940": 57,
        "13941": 69,
        "13942": 206,
        "13943": 49,
        "13944": 183,
        "13945": 140,
        "13946": 251,
        "13947": 62,
        "13948": 97,
        "13949": 72,
        "13950": 122,
        "13951": 171,
        "13952": 171,
        "13953": 243,
        "13954": 133,
        "13955": 41,
        "13956": 128,
        "13957": 101,
        "13958": 132,
        "13959": 172,
        "13960": 69,
        "13961": 55,
        "13962": 206,
        "13963": 226,
        "13964": 169,
        "13965": 152,
        "13966": 55,
        "13967": 220,
        "13968": 35,
        "13969": 218,
        "13970": 21,
        "13971": 255,
        "13972": 235,
        "13973": 205,
        "13974": 61,
        "13975": 95,
        "13976": 87,
        "13977": 244,
        "13978": 34,
        "13979": 93,
        "13980": 78,
        "13981": 194,
        "13982": 160,
        "13983": 190,
        "13984": 160,
        "13985": 8,
        "13986": 242,
        "13987": 84,
        "13988": 36,
        "13989": 13,
        "13990": 251,
        "13991": 67,
        "13992": 104,
        "13993": 111,
        "13994": 47,
        "13995": 57,
        "13996": 24,
        "13997": 105,
        "13998": 181,
        "13999": 57,
        "14000": 211,
        "14001": 93,
        "14002": 170,
        "14003": 82,
        "14004": 119,
        "14005": 8,
        "14006": 112,
        "14007": 96,
        "14008": 41,
        "14009": 58,
        "14010": 108,
        "14011": 205,
        "14012": 8,
        "14013": 10,
        "14014": 165,
        "14015": 166,
        "14016": 189,
        "14017": 107,
        "14018": 204,
        "14019": 103,
        "14020": 221,
        "14021": 42,
        "14022": 39,
        "14023": 47,
        "14024": 31,
        "14025": 28,
        "14026": 69,
        "14027": 15,
        "14028": 233,
        "14029": 179,
        "14030": 182,
        "14031": 105,
        "14032": 62,
        "14033": 232,
        "14034": 147,
        "14035": 59,
        "14036": 177,
        "14037": 37,
        "14038": 98,
        "14039": 36,
        "14040": 55,
        "14041": 173,
        "14042": 191,
        "14043": 230,
        "14044": 70,
        "14045": 201,
        "14046": 253,
        "14047": 125,
        "14048": 114,
        "14049": 156,
        "14050": 33,
        "14051": 153,
        "14052": 226,
        "14053": 48,
        "14054": 212,
        "14055": 121,
        "14056": 14,
        "14057": 203,
        "14058": 107,
        "14059": 150,
        "14060": 148,
        "14061": 240,
        "14062": 171,
        "14063": 32,
        "14064": 135,
        "14065": 76,
        "14066": 147,
        "14067": 36,
        "14068": 213,
        "14069": 83,
        "14070": 179,
        "14071": 45,
        "14072": 81,
        "14073": 190,
        "14074": 92,
        "14075": 140,
        "14076": 49,
        "14077": 72,
        "14078": 74,
        "14079": 88,
        "14080": 85,
        "14081": 132,
        "14082": 219,
        "14083": 92,
        "14084": 54,
        "14085": 196,
        "14086": 66,
        "14087": 144,
        "14088": 216,
        "14089": 17,
        "14090": 44,
        "14091": 10,
        "14092": 252,
        "14093": 0,
        "14094": 79,
        "14095": 253,
        "14096": 151,
        "14097": 179,
        "14098": 14,
        "14099": 238,
        "14100": 84,
        "14101": 168,
        "14102": 162,
        "14103": 57,
        "14104": 191,
        "14105": 42,
        "14106": 99,
        "14107": 165,
        "14108": 85,
        "14109": 37,
        "14110": 217,
        "14111": 15,
        "14112": 60,
        "14113": 207,
        "14114": 152,
        "14115": 198,
        "14116": 39,
        "14117": 14,
        "14118": 252,
        "14119": 172,
        "14120": 158,
        "14121": 140,
        "14122": 239,
        "14123": 255,
        "14124": 83,
        "14125": 199,
        "14126": 21,
        "14127": 159,
        "14128": 132,
        "14129": 150,
        "14130": 170,
        "14131": 244,
        "14132": 125,
        "14133": 247,
        "14134": 240,
        "14135": 162,
        "14136": 208,
        "14137": 22,
        "14138": 16,
        "14139": 126,
        "14140": 149,
        "14141": 23,
        "14142": 101,
        "14143": 125,
        "14144": 66,
        "14145": 97,
        "14146": 8,
        "14147": 44,
        "14148": 3,
        "14149": 81,
        "14150": 207,
        "14151": 21,
        "14152": 181,
        "14153": 14,
        "14154": 192,
        "14155": 175,
        "14156": 120,
        "14157": 193,
        "14158": 127,
        "14159": 70,
        "14160": 72,
        "14161": 186,
        "14162": 205,
        "14163": 238,
        "14164": 86,
        "14165": 217,
        "14166": 36,
        "14167": 246,
        "14168": 244,
        "14169": 99,
        "14170": 22,
        "14171": 174,
        "14172": 94,
        "14173": 92,
        "14174": 168,
        "14175": 6,
        "14176": 156,
        "14177": 186,
        "14178": 90,
        "14179": 237,
        "14180": 35,
        "14181": 216,
        "14182": 156,
        "14183": 74,
        "14184": 107,
        "14185": 107,
        "14186": 198,
        "14187": 131,
        "14188": 15,
        "14189": 94,
        "14190": 42,
        "14191": 164,
        "14192": 250,
        "14193": 190,
        "14194": 142,
        "14195": 220,
        "14196": 13,
        "14197": 236,
        "14198": 245,
        "14199": 157,
        "14200": 42,
        "14201": 85,
        "14202": 208,
        "14203": 89,
        "14204": 148,
        "14205": 159,
        "14206": 12,
        "14207": 19,
        "14208": 255,
        "14209": 45,
        "14210": 198,
        "14211": 144,
        "14212": 248,
        "14213": 141,
        "14214": 128,
        "14215": 45,
        "14216": 120,
        "14217": 120,
        "14218": 138,
        "14219": 37,
        "14220": 17,
        "14221": 55,
        "14222": 72,
        "14223": 144,
        "14224": 211,
        "14225": 200,
        "14226": 120,
        "14227": 206,
        "14228": 180,
        "14229": 233,
        "14230": 67,
        "14231": 101,
        "14232": 228,
        "14233": 19,
        "14234": 60,
        "14235": 255,
        "14236": 155,
        "14237": 231,
        "14238": 209,
        "14239": 238,
        "14240": 151,
        "14241": 241,
        "14242": 60,
        "14243": 224,
        "14244": 135,
        "14245": 22,
        "14246": 53,
        "14247": 194,
        "14248": 185,
        "14249": 40,
        "14250": 203,
        "14251": 117,
        "14252": 54,
        "14253": 37,
        "14254": 104,
        "14255": 129,
        "14256": 187,
        "14257": 120,
        "14258": 248,
        "14259": 114,
        "14260": 248,
        "14261": 240,
        "14262": 174,
        "14263": 150,
        "14264": 239,
        "14265": 127,
        "14266": 63,
        "14267": 95,
        "14268": 86,
        "14269": 106,
        "14270": 51,
        "14271": 157,
        "14272": 243,
        "14273": 25,
        "14274": 59,
        "14275": 194,
        "14276": 147,
        "14277": 161,
        "14278": 155,
        "14279": 15,
        "14280": 11,
        "14281": 252,
        "14282": 38,
        "14283": 210,
        "14284": 154,
        "14285": 80,
        "14286": 92,
        "14287": 22,
        "14288": 38,
        "14289": 40,
        "14290": 245,
        "14291": 225,
        "14292": 254,
        "14293": 38,
        "14294": 40,
        "14295": 255,
        "14296": 38,
        "14297": 64,
        "14298": 196,
        "14299": 133,
        "14300": 70,
        "14301": 116,
        "14302": 1,
        "14303": 144,
        "14304": 235,
        "14305": 163,
        "14306": 78,
        "14307": 6,
        "14308": 106,
        "14309": 137,
        "14310": 199,
        "14311": 8,
        "14312": 95,
        "14313": 172,
        "14314": 172,
        "14315": 21,
        "14316": 134,
        "14317": 146,
        "14318": 192,
        "14319": 228,
        "14320": 82,
        "14321": 130,
        "14322": 160,
        "14323": 156,
        "14324": 133,
        "14325": 97,
        "14326": 154,
        "14327": 160,
        "14328": 146,
        "14329": 82,
        "14330": 120,
        "14331": 19,
        "14332": 53,
        "14333": 15,
        "14334": 157,
        "14335": 50,
        "14336": 92,
        "14337": 54,
        "14338": 205,
        "14339": 81,
        "14340": 6,
        "14341": 154,
        "14342": 205,
        "14343": 209,
        "14344": 236,
        "14345": 17,
        "14346": 134,
        "14347": 97,
        "14348": 44,
        "14349": 173,
        "14350": 146,
        "14351": 79,
        "14352": 65,
        "14353": 19,
        "14354": 21,
        "14355": 156,
        "14356": 249,
        "14357": 57,
        "14358": 254,
        "14359": 84,
        "14360": 181,
        "14361": 69,
        "14362": 151,
        "14363": 225,
        "14364": 82,
        "14365": 28,
        "14366": 252,
        "14367": 243,
        "14368": 92,
        "14369": 236,
        "14370": 41,
        "14371": 167,
        "14372": 199,
        "14373": 215,
        "14374": 245,
        "14375": 231,
        "14376": 111,
        "14377": 182,
        "14378": 160,
        "14379": 215,
        "14380": 87,
        "14381": 25,
        "14382": 147,
        "14383": 93,
        "14384": 117,
        "14385": 118,
        "14386": 154,
        "14387": 60,
        "14388": 55,
        "14389": 29,
        "14390": 203,
        "14391": 202,
        "14392": 127,
        "14393": 38,
        "14394": 213,
        "14395": 19,
        "14396": 97,
        "14397": 106,
        "14398": 148,
        "14399": 158,
        "14400": 254,
        "14401": 149,
        "14402": 144,
        "14403": 171,
        "14404": 245,
        "14405": 39,
        "14406": 203,
        "14407": 59,
        "14408": 238,
        "14409": 212,
        "14410": 129,
        "14411": 235,
        "14412": 40,
        "14413": 130,
        "14414": 158,
        "14415": 133,
        "14416": 112,
        "14417": 148,
        "14418": 142,
        "14419": 237,
        "14420": 236,
        "14421": 78,
        "14422": 32,
        "14423": 59,
        "14424": 209,
        "14425": 177,
        "14426": 38,
        "14427": 226,
        "14428": 69,
        "14429": 77,
        "14430": 242,
        "14431": 143,
        "14432": 166,
        "14433": 51,
        "14434": 219,
        "14435": 220,
        "14436": 8,
        "14437": 63,
        "14438": 151,
        "14439": 153,
        "14440": 97,
        "14441": 48,
        "14442": 72,
        "14443": 49,
        "14444": 50,
        "14445": 141,
        "14446": 234,
        "14447": 98,
        "14448": 142,
        "14449": 131,
        "14450": 5,
        "14451": 71,
        "14452": 184,
        "14453": 82,
        "14454": 170,
        "14455": 58,
        "14456": 148,
        "14457": 23,
        "14458": 136,
        "14459": 35,
        "14460": 94,
        "14461": 215,
        "14462": 9,
        "14463": 236,
        "14464": 86,
        "14465": 83,
        "14466": 12,
        "14467": 64,
        "14468": 30,
        "14469": 224,
        "14470": 91,
        "14471": 158,
        "14472": 4,
        "14473": 192,
        "14474": 108,
        "14475": 125,
        "14476": 55,
        "14477": 113,
        "14478": 69,
        "14479": 62,
        "14480": 196,
        "14481": 32,
        "14482": 250,
        "14483": 189,
        "14484": 255,
        "14485": 4,
        "14486": 88,
        "14487": 247,
        "14488": 22,
        "14489": 181,
        "14490": 203,
        "14491": 4,
        "14492": 219,
        "14493": 137,
        "14494": 247,
        "14495": 110,
        "14496": 167,
        "14497": 218,
        "14498": 142,
        "14499": 237,
        "14500": 89,
        "14501": 31,
        "14502": 18,
        "14503": 74,
        "14504": 198,
        "14505": 197,
        "14506": 119,
        "14507": 152,
        "14508": 46,
        "14509": 158,
        "14510": 152,
        "14511": 72,
        "14512": 4,
        "14513": 36,
        "14514": 30,
        "14515": 128,
        "14516": 123,
        "14517": 79,
        "14518": 206,
        "14519": 134,
        "14520": 217,
        "14521": 151,
        "14522": 78,
        "14523": 57,
        "14524": 172,
        "14525": 246,
        "14526": 216,
        "14527": 15,
        "14528": 195,
        "14529": 73,
        "14530": 61,
        "14531": 126,
        "14532": 246,
        "14533": 152,
        "14534": 114,
        "14535": 57,
        "14536": 19,
        "14537": 43,
        "14538": 245,
        "14539": 66,
        "14540": 60,
        "14541": 240,
        "14542": 239,
        "14543": 178,
        "14544": 192,
        "14545": 158,
        "14546": 79,
        "14547": 108,
        "14548": 5,
        "14549": 240,
        "14550": 59,
        "14551": 67,
        "14552": 210,
        "14553": 155,
        "14554": 229,
        "14555": 250,
        "14556": 110,
        "14557": 95,
        "14558": 214,
        "14559": 81,
        "14560": 92,
        "14561": 151,
        "14562": 71,
        "14563": 153,
        "14564": 206,
        "14565": 176,
        "14566": 135,
        "14567": 113,
        "14568": 137,
        "14569": 43,
        "14570": 129,
        "14571": 62,
        "14572": 220,
        "14573": 35,
        "14574": 143,
        "14575": 206,
        "14576": 163,
        "14577": 22,
        "14578": 9,
        "14579": 251,
        "14580": 197,
        "14581": 209,
        "14582": 120,
        "14583": 167,
        "14584": 50,
        "14585": 217,
        "14586": 23,
        "14587": 186,
        "14588": 67,
        "14589": 133,
        "14590": 156,
        "14591": 203,
        "14592": 115,
        "14593": 120,
        "14594": 91,
        "14595": 249,
        "14596": 93,
        "14597": 213,
        "14598": 203,
        "14599": 189,
        "14600": 233,
        "14601": 219,
        "14602": 7,
        "14603": 112,
        "14604": 15,
        "14605": 97,
        "14606": 56,
        "14607": 234,
        "14608": 106,
        "14609": 253,
        "14610": 26,
        "14611": 203,
        "14612": 249,
        "14613": 220,
        "14614": 90,
        "14615": 152,
        "14616": 224,
        "14617": 171,
        "14618": 190,
        "14619": 74,
        "14620": 60,
        "14621": 142,
        "14622": 224,
        "14623": 105,
        "14624": 209,
        "14625": 134,
        "14626": 98,
        "14627": 106,
        "14628": 96,
        "14629": 74,
        "14630": 13,
        "14631": 43,
        "14632": 46,
        "14633": 187,
        "14634": 233,
        "14635": 98,
        "14636": 221,
        "14637": 1,
        "14638": 36,
        "14639": 194,
        "14640": 13,
        "14641": 110,
        "14642": 227,
        "14643": 19,
        "14644": 247,
        "14645": 85,
        "14646": 201,
        "14647": 32,
        "14648": 127,
        "14649": 177,
        "14650": 235,
        "14651": 152,
        "14652": 32,
        "14653": 159,
        "14654": 201,
        "14655": 187,
        "14656": 50,
        "14657": 29,
        "14658": 54,
        "14659": 97,
        "14660": 155,
        "14661": 191,
        "14662": 40,
        "14663": 120,
        "14664": 231,
        "14665": 61,
        "14666": 114,
        "14667": 22,
        "14668": 229,
        "14669": 148,
        "14670": 18,
        "14671": 194,
        "14672": 8,
        "14673": 183,
        "14674": 188,
        "14675": 1,
        "14676": 118,
        "14677": 80,
        "14678": 230,
        "14679": 35,
        "14680": 4,
        "14681": 207,
        "14682": 187,
        "14683": 6,
        "14684": 21,
        "14685": 225,
        "14686": 241,
        "14687": 152,
        "14688": 162,
        "14689": 188,
        "14690": 130,
        "14691": 97,
        "14692": 153,
        "14693": 233,
        "14694": 213,
        "14695": 96,
        "14696": 201,
        "14697": 125,
        "14698": 90,
        "14699": 218,
        "14700": 68,
        "14701": 226,
        "14702": 52,
        "14703": 94,
        "14704": 58,
        "14705": 102,
        "14706": 16,
        "14707": 23,
        "14708": 34,
        "14709": 73,
        "14710": 119,
        "14711": 209,
        "14712": 89,
        "14713": 6,
        "14714": 131,
        "14715": 128,
        "14716": 92,
        "14717": 195,
        "14718": 20,
        "14719": 63,
        "14720": 89,
        "14721": 176,
        "14722": 121,
        "14723": 81,
        "14724": 49,
        "14725": 200,
        "14726": 163,
        "14727": 141,
        "14728": 72,
        "14729": 53,
        "14730": 169,
        "14731": 250,
        "14732": 35,
        "14733": 199,
        "14734": 164,
        "14735": 253,
        "14736": 133,
        "14737": 112,
        "14738": 222,
        "14739": 148,
        "14740": 231,
        "14741": 148,
        "14742": 109,
        "14743": 115,
        "14744": 152,
        "14745": 247,
        "14746": 181,
        "14747": 241,
        "14748": 161,
        "14749": 139,
        "14750": 53,
        "14751": 146,
        "14752": 49,
        "14753": 154,
        "14754": 203,
        "14755": 95,
        "14756": 157,
        "14757": 207,
        "14758": 222,
        "14759": 186,
        "14760": 218,
        "14761": 93,
        "14762": 70,
        "14763": 64,
        "14764": 56,
        "14765": 14,
        "14766": 12,
        "14767": 195,
        "14768": 121,
        "14769": 252,
        "14770": 181,
        "14771": 43,
        "14772": 28,
        "14773": 152,
        "14774": 53,
        "14775": 49,
        "14776": 32,
        "14777": 142,
        "14778": 1,
        "14779": 150,
        "14780": 119,
        "14781": 42,
        "14782": 48,
        "14783": 41,
        "14784": 190,
        "14785": 111,
        "14786": 84,
        "14787": 96,
        "14788": 182,
        "14789": 40,
        "14790": 73,
        "14791": 25,
        "14792": 208,
        "14793": 0,
        "14794": 208,
        "14795": 242,
        "14796": 180,
        "14797": 171,
        "14798": 157,
        "14799": 110,
        "14800": 122,
        "14801": 99,
        "14802": 171,
        "14803": 225,
        "14804": 51,
        "14805": 82,
        "14806": 118,
        "14807": 25,
        "14808": 83,
        "14809": 172,
        "14810": 93,
        "14811": 114,
        "14812": 15,
        "14813": 170,
        "14814": 59,
        "14815": 156,
        "14816": 67,
        "14817": 65,
        "14818": 14,
        "14819": 225,
        "14820": 246,
        "14821": 28,
        "14822": 59,
        "14823": 225,
        "14824": 180,
        "14825": 70,
        "14826": 74,
        "14827": 138,
        "14828": 13,
        "14829": 180,
        "14830": 3,
        "14831": 125,
        "14832": 252,
        "14833": 149,
        "14834": 163,
        "14835": 251,
        "14836": 121,
        "14837": 248,
        "14838": 132,
        "14839": 160,
        "14840": 249,
        "14841": 73,
        "14842": 10,
        "14843": 26,
        "14844": 16,
        "14845": 236,
        "14846": 217,
        "14847": 157,
        "14848": 194,
        "14849": 191,
        "14850": 49,
        "14851": 124,
        "14852": 154,
        "14853": 28,
        "14854": 92,
        "14855": 206,
        "14856": 123,
        "14857": 151,
        "14858": 251,
        "14859": 43,
        "14860": 76,
        "14861": 2,
        "14862": 97,
        "14863": 191,
        "14864": 101,
        "14865": 93,
        "14866": 11,
        "14867": 133,
        "14868": 194,
        "14869": 63,
        "14870": 93,
        "14871": 57,
        "14872": 228,
        "14873": 243,
        "14874": 24,
        "14875": 136,
        "14876": 245,
        "14877": 183,
        "14878": 246,
        "14879": 250,
        "14880": 187,
        "14881": 146,
        "14882": 145,
        "14883": 36,
        "14884": 110,
        "14885": 56,
        "14886": 153,
        "14887": 112,
        "14888": 81,
        "14889": 37,
        "14890": 14,
        "14891": 87,
        "14892": 28,
        "14893": 113,
        "14894": 254,
        "14895": 102,
        "14896": 208,
        "14897": 230,
        "14898": 235,
        "14899": 0,
        "14900": 62,
        "14901": 68,
        "14902": 172,
        "14903": 170,
        "14904": 64,
        "14905": 85,
        "14906": 15,
        "14907": 8,
        "14908": 69,
        "14909": 120,
        "14910": 38,
        "14911": 16,
        "14912": 122,
        "14913": 224,
        "14914": 178,
        "14915": 40,
        "14916": 47,
        "14917": 182,
        "14918": 140,
        "14919": 84,
        "14920": 175,
        "14921": 63,
        "14922": 210,
        "14923": 48,
        "14924": 148,
        "14925": 216,
        "14926": 192,
        "14927": 175,
        "14928": 250,
        "14929": 243,
        "14930": 95,
        "14931": 178,
        "14932": 101,
        "14933": 68,
        "14934": 16,
        "14935": 51,
        "14936": 54,
        "14937": 196,
        "14938": 11,
        "14939": 41,
        "14940": 28,
        "14941": 132,
        "14942": 146,
        "14943": 169,
        "14944": 139,
        "14945": 166,
        "14946": 141,
        "14947": 137,
        "14948": 144,
        "14949": 194,
        "14950": 219,
        "14951": 14,
        "14952": 218,
        "14953": 183,
        "14954": 201,
        "14955": 29,
        "14956": 230,
        "14957": 123,
        "14958": 46,
        "14959": 56,
        "14960": 200,
        "14961": 207,
        "14962": 42,
        "14963": 125,
        "14964": 4,
        "14965": 203,
        "14966": 114,
        "14967": 163,
        "14968": 100,
        "14969": 75,
        "14970": 89,
        "14971": 36,
        "14972": 185,
        "14973": 179,
        "14974": 38,
        "14975": 52,
        "14976": 84,
        "14977": 250,
        "14978": 189,
        "14979": 3,
        "14980": 45,
        "14981": 227,
        "14982": 184,
        "14983": 67,
        "14984": 87,
        "14985": 126,
        "14986": 98,
        "14987": 137,
        "14988": 197,
        "14989": 43,
        "14990": 208,
        "14991": 48,
        "14992": 97,
        "14993": 229,
        "14994": 41,
        "14995": 223,
        "14996": 95,
        "14997": 162,
        "14998": 100,
        "14999": 146,
        "15000": 80,
        "15001": 30,
        "15002": 47,
        "15003": 69,
        "15004": 71,
        "15005": 128,
        "15006": 23,
        "15007": 236,
        "15008": 127,
        "15009": 122,
        "15010": 101,
        "15011": 151,
        "15012": 181,
        "15013": 135,
        "15014": 133,
        "15015": 148,
        "15016": 65,
        "15017": 192,
        "15018": 68,
        "15019": 10,
        "15020": 185,
        "15021": 85,
        "15022": 66,
        "15023": 17,
        "15024": 243,
        "15025": 131,
        "15026": 42,
        "15027": 51,
        "15028": 55,
        "15029": 217,
        "15030": 164,
        "15031": 186,
        "15032": 117,
        "15033": 58,
        "15034": 253,
        "15035": 44,
        "15036": 50,
        "15037": 89,
        "15038": 215,
        "15039": 168,
        "15040": 205,
        "15041": 174,
        "15042": 175,
        "15043": 102,
        "15044": 243,
        "15045": 146,
        "15046": 96,
        "15047": 83,
        "15048": 136,
        "15049": 236,
        "15050": 207,
        "15051": 202,
        "15052": 125,
        "15053": 164,
        "15054": 166,
        "15055": 145,
        "15056": 193,
        "15057": 123,
        "15058": 27,
        "15059": 66,
        "15060": 137,
        "15061": 232,
        "15062": 148,
        "15063": 207,
        "15064": 53,
        "15065": 244,
        "15066": 190,
        "15067": 200,
        "15068": 183,
        "15069": 154,
        "15070": 118,
        "15071": 52,
        "15072": 122,
        "15073": 173,
        "15074": 7,
        "15075": 159,
        "15076": 40,
        "15077": 98,
        "15078": 210,
        "15079": 159,
        "15080": 209,
        "15081": 174,
        "15082": 214,
        "15083": 51,
        "15084": 158,
        "15085": 85,
        "15086": 6,
        "15087": 121,
        "15088": 115,
        "15089": 69,
        "15090": 106,
        "15091": 226,
        "15092": 166,
        "15093": 157,
        "15094": 169,
        "15095": 4,
        "15096": 198,
        "15097": 155,
        "15098": 55,
        "15099": 78,
        "15100": 25,
        "15101": 186,
        "15102": 8,
        "15103": 15,
        "15104": 137,
        "15105": 246,
        "15106": 51,
        "15107": 86,
        "15108": 251,
        "15109": 110,
        "15110": 87,
        "15111": 155,
        "15112": 246,
        "15113": 15,
        "15114": 95,
        "15115": 95,
        "15116": 224,
        "15117": 101,
        "15118": 24,
        "15119": 46,
        "15120": 128,
        "15121": 62,
        "15122": 111,
        "15123": 161,
        "15124": 178,
        "15125": 42,
        "15126": 47,
        "15127": 118,
        "15128": 66,
        "15129": 199,
        "15130": 85,
        "15131": 168,
        "15132": 100,
        "15133": 83,
        "15134": 3,
        "15135": 104,
        "15136": 88,
        "15137": 11,
        "15138": 44,
        "15139": 201,
        "15140": 51,
        "15141": 55,
        "15142": 17,
        "15143": 248,
        "15144": 155,
        "15145": 27,
        "15146": 215,
        "15147": 218,
        "15148": 111,
        "15149": 107,
        "15150": 54,
        "15151": 61,
        "15152": 191,
        "15153": 215,
        "15154": 7,
        "15155": 89,
        "15156": 106,
        "15157": 40,
        "15158": 91,
        "15159": 140,
        "15160": 87,
        "15161": 186,
        "15162": 211,
        "15163": 177,
        "15164": 18,
        "15165": 193,
        "15166": 107,
        "15167": 61,
        "15168": 79,
        "15169": 91,
        "15170": 232,
        "15171": 241,
        "15172": 7,
        "15173": 147,
        "15174": 68,
        "15175": 154,
        "15176": 220,
        "15177": 189,
        "15178": 173,
        "15179": 88,
        "15180": 42,
        "15181": 239,
        "15182": 132,
        "15183": 144,
        "15184": 240,
        "15185": 5,
        "15186": 146,
        "15187": 111,
        "15188": 252,
        "15189": 25,
        "15190": 32,
        "15191": 217,
        "15192": 202,
        "15193": 158,
        "15194": 13,
        "15195": 149,
        "15196": 125,
        "15197": 247,
        "15198": 202,
        "15199": 12,
        "15200": 20,
        "15201": 250,
        "15202": 36,
        "15203": 156,
        "15204": 249,
        "15205": 146,
        "15206": 215,
        "15207": 206,
        "15208": 56,
        "15209": 128,
        "15210": 93,
        "15211": 218,
        "15212": 23,
        "15213": 17,
        "15214": 43,
        "15215": 37,
        "15216": 2,
        "15217": 31,
        "15218": 184,
        "15219": 95,
        "15220": 34,
        "15221": 54,
        "15222": 6,
        "15223": 153,
        "15224": 171,
        "15225": 201,
        "15226": 28,
        "15227": 162,
        "15228": 201,
        "15229": 176,
        "15230": 17,
        "15231": 146,
        "15232": 137,
        "15233": 18,
        "15234": 178,
        "15235": 218,
        "15236": 235,
        "15237": 56,
        "15238": 134,
        "15239": 6,
        "15240": 12,
        "15241": 221,
        "15242": 88,
        "15243": 226,
        "15244": 214,
        "15245": 66,
        "15246": 91,
        "15247": 147,
        "15248": 7,
        "15249": 253,
        "15250": 76,
        "15251": 60,
        "15252": 91,
        "15253": 85,
        "15254": 171,
        "15255": 21,
        "15256": 122,
        "15257": 92,
        "15258": 51,
        "15259": 115,
        "15260": 36,
        "15261": 190,
        "15262": 64,
        "15263": 210,
        "15264": 56,
        "15265": 14,
        "15266": 57,
        "15267": 218,
        "15268": 65,
        "15269": 185,
        "15270": 125,
        "15271": 50,
        "15272": 215,
        "15273": 6,
        "15274": 39,
        "15275": 190,
        "15276": 137,
        "15277": 80,
        "15278": 15,
        "15279": 197,
        "15280": 9,
        "15281": 94,
        "15282": 206,
        "15283": 36,
        "15284": 185,
        "15285": 96,
        "15286": 56,
        "15287": 118,
        "15288": 61,
        "15289": 159,
        "15290": 195,
        "15291": 39,
        "15292": 232,
        "15293": 76,
        "15294": 217,
        "15295": 244,
        "15296": 147,
        "15297": 19,
        "15298": 25,
        "15299": 99,
        "15300": 145,
        "15301": 82,
        "15302": 196,
        "15303": 81,
        "15304": 195,
        "15305": 189,
        "15306": 226,
        "15307": 90,
        "15308": 3,
        "15309": 250,
        "15310": 40,
        "15311": 209,
        "15312": 216,
        "15313": 178,
        "15314": 127,
        "15315": 207,
        "15316": 9,
        "15317": 69,
        "15318": 178,
        "15319": 49,
        "15320": 40,
        "15321": 54,
        "15322": 176,
        "15323": 37,
        "15324": 240,
        "15325": 141,
        "15326": 56,
        "15327": 189,
        "15328": 150,
        "15329": 229,
        "15330": 232,
        "15331": 36,
        "15332": 23,
        "15333": 169,
        "15334": 92,
        "15335": 116,
        "15336": 174,
        "15337": 110,
        "15338": 33,
        "15339": 154,
        "15340": 162,
        "15341": 13,
        "15342": 63,
        "15343": 106,
        "15344": 74,
        "15345": 239,
        "15346": 138,
        "15347": 119,
        "15348": 33,
        "15349": 202,
        "15350": 94,
        "15351": 18,
        "15352": 88,
        "15353": 77,
        "15354": 161,
        "15355": 207,
        "15356": 167,
        "15357": 62,
        "15358": 61,
        "15359": 73,
        "15360": 81,
        "15361": 26,
        "15362": 125,
        "15363": 111,
        "15364": 151,
        "15365": 59,
        "15366": 220,
        "15367": 65,
        "15368": 129,
        "15369": 228,
        "15370": 18,
        "15371": 208,
        "15372": 30,
        "15373": 245,
        "15374": 220,
        "15375": 109,
        "15376": 35,
        "15377": 128,
        "15378": 75,
        "15379": 132,
        "15380": 107,
        "15381": 86,
        "15382": 81,
        "15383": 227,
        "15384": 13,
        "15385": 79,
        "15386": 99,
        "15387": 96,
        "15388": 221,
        "15389": 234,
        "15390": 145,
        "15391": 100,
        "15392": 244,
        "15393": 145,
        "15394": 20,
        "15395": 218,
        "15396": 195,
        "15397": 68,
        "15398": 169,
        "15399": 167,
        "15400": 173,
        "15401": 146,
        "15402": 58,
        "15403": 196,
        "15404": 69,
        "15405": 245,
        "15406": 226,
        "15407": 246,
        "15408": 168,
        "15409": 232,
        "15410": 169,
        "15411": 192,
        "15412": 19,
        "15413": 160,
        "15414": 34,
        "15415": 69,
        "15416": 2,
        "15417": 100,
        "15418": 226,
        "15419": 246,
        "15420": 200,
        "15421": 219,
        "15422": 214,
        "15423": 218,
        "15424": 169,
        "15425": 246,
        "15426": 37,
        "15427": 207,
        "15428": 198,
        "15429": 26,
        "15430": 108,
        "15431": 127,
        "15432": 195,
        "15433": 193,
        "15434": 16,
        "15435": 123,
        "15436": 90,
        "15437": 31,
        "15438": 0,
        "15439": 96,
        "15440": 136,
        "15441": 187,
        "15442": 37,
        "15443": 160,
        "15444": 57,
        "15445": 36,
        "15446": 189,
        "15447": 100,
        "15448": 24,
        "15449": 90,
        "15450": 4,
        "15451": 36,
        "15452": 126,
        "15453": 144,
        "15454": 22,
        "15455": 181,
        "15456": 235,
        "15457": 43,
        "15458": 165,
        "15459": 107,
        "15460": 152,
        "15461": 72,
        "15462": 185,
        "15463": 248,
        "15464": 194,
        "15465": 31,
        "15466": 237,
        "15467": 114,
        "15468": 36,
        "15469": 52,
        "15470": 137,
        "15471": 105,
        "15472": 219,
        "15473": 119,
        "15474": 251,
        "15475": 174,
        "15476": 1,
        "15477": 16,
        "15478": 115,
        "15479": 143,
        "15480": 216,
        "15481": 220,
        "15482": 1,
        "15483": 252,
        "15484": 120,
        "15485": 132,
        "15486": 83,
        "15487": 71,
        "15488": 231,
        "15489": 88,
        "15490": 134,
        "15491": 170,
        "15492": 228,
        "15493": 28,
        "15494": 113,
        "15495": 124,
        "15496": 184,
        "15497": 242,
        "15498": 154,
        "15499": 136,
        "15500": 217,
        "15501": 96,
        "15502": 110,
        "15503": 131,
        "15504": 175,
        "15505": 76,
        "15506": 28,
        "15507": 157,
        "15508": 123,
        "15509": 187,
        "15510": 215,
        "15511": 11,
        "15512": 25,
        "15513": 182,
        "15514": 223,
        "15515": 56,
        "15516": 95,
        "15517": 136,
        "15518": 84,
        "15519": 251,
        "15520": 156,
        "15521": 210,
        "15522": 23,
        "15523": 78,
        "15524": 173,
        "15525": 133,
        "15526": 159,
        "15527": 245,
        "15528": 253,
        "15529": 3,
        "15530": 55,
        "15531": 151,
        "15532": 74,
        "15533": 4,
        "15534": 119,
        "15535": 58,
        "15536": 147,
        "15537": 21,
        "15538": 214,
        "15539": 83,
        "15540": 26,
        "15541": 123,
        "15542": 123,
        "15543": 200,
        "15544": 188,
        "15545": 210,
        "15546": 155,
        "15547": 19,
        "15548": 9,
        "15549": 60,
        "15550": 181,
        "15551": 109,
        "15552": 72,
        "15553": 173,
        "15554": 242,
        "15555": 192,
        "15556": 86,
        "15557": 137,
        "15558": 216,
        "15559": 249,
        "15560": 57,
        "15561": 228,
        "15562": 220,
        "15563": 220,
        "15564": 77,
        "15565": 246,
        "15566": 1,
        "15567": 201,
        "15568": 7,
        "15569": 61,
        "15570": 60,
        "15571": 20,
        "15572": 216,
        "15573": 139,
        "15574": 222,
        "15575": 71,
        "15576": 48,
        "15577": 207,
        "15578": 46,
        "15579": 107,
        "15580": 186,
        "15581": 73,
        "15582": 93,
        "15583": 207,
        "15584": 144,
        "15585": 14,
        "15586": 35,
        "15587": 197,
        "15588": 113,
        "15589": 166,
        "15590": 20,
        "15591": 145,
        "15592": 43,
        "15593": 180,
        "15594": 131,
        "15595": 202,
        "15596": 33,
        "15597": 39,
        "15598": 245,
        "15599": 86,
        "15600": 102,
        "15601": 225,
        "15602": 59,
        "15603": 76,
        "15604": 24,
        "15605": 211,
        "15606": 195,
        "15607": 87,
        "15608": 1,
        "15609": 164,
        "15610": 62,
        "15611": 12,
        "15612": 178,
        "15613": 109,
        "15614": 27,
        "15615": 81,
        "15616": 165,
        "15617": 193,
        "15618": 108,
        "15619": 32,
        "15620": 40,
        "15621": 79,
        "15622": 68,
        "15623": 237,
        "15624": 216,
        "15625": 206,
        "15626": 159,
        "15627": 8,
        "15628": 51,
        "15629": 13,
        "15630": 89,
        "15631": 87,
        "15632": 65,
        "15633": 101,
        "15634": 78,
        "15635": 144,
        "15636": 160,
        "15637": 221,
        "15638": 190,
        "15639": 43,
        "15640": 30,
        "15641": 151,
        "15642": 174,
        "15643": 31,
        "15644": 31,
        "15645": 97,
        "15646": 159,
        "15647": 193,
        "15648": 239,
        "15649": 235,
        "15650": 108,
        "15651": 139,
        "15652": 169,
        "15653": 0,
        "15654": 53,
        "15655": 185,
        "15656": 90,
        "15657": 84,
        "15658": 197,
        "15659": 49,
        "15660": 3,
        "15661": 122,
        "15662": 143,
        "15663": 32,
        "15664": 119,
        "15665": 56,
        "15666": 123,
        "15667": 106,
        "15668": 132,
        "15669": 226,
        "15670": 231,
        "15671": 132,
        "15672": 235,
        "15673": 199,
        "15674": 216,
        "15675": 167,
        "15676": 52,
        "15677": 72,
        "15678": 187,
        "15679": 249,
        "15680": 216,
        "15681": 43,
        "15682": 27,
        "15683": 48,
        "15684": 180,
        "15685": 231,
        "15686": 179,
        "15687": 239,
        "15688": 109,
        "15689": 11,
        "15690": 240,
        "15691": 137,
        "15692": 200,
        "15693": 125,
        "15694": 92,
        "15695": 246,
        "15696": 148,
        "15697": 151,
        "15698": 138,
        "15699": 70,
        "15700": 143,
        "15701": 138,
        "15702": 21,
        "15703": 61,
        "15704": 14,
        "15705": 129,
        "15706": 42,
        "15707": 164,
        "15708": 123,
        "15709": 199,
        "15710": 15,
        "15711": 237,
        "15712": 22,
        "15713": 47,
        "15714": 152,
        "15715": 126,
        "15716": 33,
        "15717": 56,
        "15718": 250,
        "15719": 133,
        "15720": 231,
        "15721": 177,
        "15722": 118,
        "15723": 43,
        "15724": 232,
        "15725": 115,
        "15726": 53,
        "15727": 218,
        "15728": 88,
        "15729": 86,
        "15730": 175,
        "15731": 198,
        "15732": 158,
        "15733": 31,
        "15734": 138,
        "15735": 63,
        "15736": 234,
        "15737": 117,
        "15738": 190,
        "15739": 44,
        "15740": 41,
        "15741": 98,
        "15742": 78,
        "15743": 197,
        "15744": 99,
        "15745": 136,
        "15746": 155,
        "15747": 117,
        "15748": 45,
        "15749": 189,
        "15750": 82,
        "15751": 91,
        "15752": 224,
        "15753": 129,
        "15754": 49,
        "15755": 6,
        "15756": 23,
        "15757": 217,
        "15758": 14,
        "15759": 61,
        "15760": 198,
        "15761": 99,
        "15762": 141,
        "15763": 239,
        "15764": 162,
        "15765": 68,
        "15766": 15,
        "15767": 145,
        "15768": 161,
        "15769": 250,
        "15770": 230,
        "15771": 62,
        "15772": 90,
        "15773": 189,
        "15774": 105,
        "15775": 57,
        "15776": 27,
        "15777": 118,
        "15778": 7,
        "15779": 198,
        "15780": 195,
        "15781": 237,
        "15782": 95,
        "15783": 108,
        "15784": 214,
        "15785": 219,
        "15786": 0,
        "15787": 116,
        "15788": 12,
        "15789": 42,
        "15790": 45,
        "15791": 251,
        "15792": 77,
        "15793": 168,
        "15794": 219,
        "15795": 106,
        "15796": 216,
        "15797": 145,
        "15798": 158,
        "15799": 170,
        "15800": 30,
        "15801": 35,
        "15802": 128,
        "15803": 112,
        "15804": 121,
        "15805": 12,
        "15806": 238,
        "15807": 229,
        "15808": 60,
        "15809": 75,
        "15810": 210,
        "15811": 59,
        "15812": 171,
        "15813": 18,
        "15814": 212,
        "15815": 210,
        "15816": 231,
        "15817": 17,
        "15818": 137,
        "15819": 179,
        "15820": 251,
        "15821": 97,
        "15822": 236,
        "15823": 51,
        "15824": 42,
        "15825": 248,
        "15826": 111,
        "15827": 111,
        "15828": 144,
        "15829": 22,
        "15830": 125,
        "15831": 194,
        "15832": 25,
        "15833": 9,
        "15834": 43,
        "15835": 132,
        "15836": 49,
        "15837": 193,
        "15838": 241,
        "15839": 199,
        "15840": 118,
        "15841": 119,
        "15842": 8,
        "15843": 19,
        "15844": 61,
        "15845": 123,
        "15846": 26,
        "15847": 11,
        "15848": 255,
        "15849": 171,
        "15850": 129,
        "15851": 136,
        "15852": 49,
        "15853": 75,
        "15854": 75,
        "15855": 194,
        "15856": 42,
        "15857": 145,
        "15858": 232,
        "15859": 159,
        "15860": 246,
        "15861": 214,
        "15862": 102,
        "15863": 9,
        "15864": 82,
        "15865": 244,
        "15866": 53,
        "15867": 123,
        "15868": 92,
        "15869": 177,
        "15870": 13,
        "15871": 174,
        "15872": 44,
        "15873": 155,
        "15874": 150,
        "15875": 21,
        "15876": 173,
        "15877": 114,
        "15878": 146,
        "15879": 148,
        "15880": 32,
        "15881": 178,
        "15882": 184,
        "15883": 60,
        "15884": 77,
        "15885": 92,
        "15886": 232,
        "15887": 153,
        "15888": 184,
        "15889": 148,
        "15890": 37,
        "15891": 46,
        "15892": 18,
        "15893": 93,
        "15894": 108,
        "15895": 20,
        "15896": 151,
        "15897": 147,
        "15898": 124,
        "15899": 214,
        "15900": 97,
        "15901": 29,
        "15902": 39,
        "15903": 215,
        "15904": 198,
        "15905": 209,
        "15906": 193,
        "15907": 109,
        "15908": 61,
        "15909": 111,
        "15910": 163,
        "15911": 19,
        "15912": 30,
        "15913": 138,
        "15914": 107,
        "15915": 167,
        "15916": 1,
        "15917": 16,
        "15918": 189,
        "15919": 146,
        "15920": 70,
        "15921": 205,
        "15922": 8,
        "15923": 97,
        "15924": 98,
        "15925": 166,
        "15926": 29,
        "15927": 4,
        "15928": 144,
        "15929": 252,
        "15930": 7,
        "15931": 45,
        "15932": 204,
        "15933": 141,
        "15934": 198,
        "15935": 205,
        "15936": 54,
        "15937": 242,
        "15938": 105,
        "15939": 206,
        "15940": 87,
        "15941": 114,
        "15942": 137,
        "15943": 155,
        "15944": 141,
        "15945": 198,
        "15946": 147,
        "15947": 169,
        "15948": 106,
        "15949": 186,
        "15950": 189,
        "15951": 52,
        "15952": 118,
        "15953": 57,
        "15954": 56,
        "15955": 234,
        "15956": 61,
        "15957": 203,
        "15958": 68,
        "15959": 33,
        "15960": 219,
        "15961": 219,
        "15962": 32,
        "15963": 249,
        "15964": 186,
        "15965": 204,
        "15966": 71,
        "15967": 48,
        "15968": 230,
        "15969": 98,
        "15970": 163,
        "15971": 202,
        "15972": 204,
        "15973": 103,
        "15974": 54,
        "15975": 233,
        "15976": 234,
        "15977": 224,
        "15978": 182,
        "15979": 94,
        "15980": 252,
        "15981": 5,
        "15982": 143,
        "15983": 24,
        "15984": 208,
        "15985": 52,
        "15986": 159,
        "15987": 225,
        "15988": 25,
        "15989": 197,
        "15990": 93,
        "15991": 253,
        "15992": 203,
        "15993": 187,
        "15994": 175,
        "15995": 224,
        "15996": 142,
        "15997": 50,
        "15998": 230,
        "15999": 27,
        "16000": 99,
        "16001": 219,
        "16002": 169,
        "16003": 176,
        "16004": 25,
        "16005": 42,
        "16006": 43,
        "16007": 58,
        "16008": 164,
        "16009": 38,
        "16010": 246,
        "16011": 239,
        "16012": 229,
        "16013": 187,
        "16014": 184,
        "16015": 157,
        "16016": 163,
        "16017": 182,
        "16018": 133,
        "16019": 6,
        "16020": 196,
        "16021": 106,
        "16022": 95,
        "16023": 7,
        "16024": 142,
        "16025": 112,
        "16026": 79,
        "16027": 189,
        "16028": 129,
        "16029": 100,
        "16030": 124,
        "16031": 243,
        "16032": 65,
        "16033": 119,
        "16034": 153,
        "16035": 250,
        "16036": 232,
        "16037": 204,
        "16038": 138,
        "16039": 42,
        "16040": 31,
        "16041": 206,
        "16042": 65,
        "16043": 48,
        "16044": 24,
        "16045": 78,
        "16046": 35,
        "16047": 87,
        "16048": 24,
        "16049": 192,
        "16050": 83,
        "16051": 111,
        "16052": 176,
        "16053": 169,
        "16054": 204,
        "16055": 99,
        "16056": 15,
        "16057": 7,
        "16058": 211,
        "16059": 5,
        "16060": 213,
        "16061": 225,
        "16062": 57,
        "16063": 49,
        "16064": 171,
        "16065": 102,
        "16066": 20,
        "16067": 127,
        "16068": 153,
        "16069": 1,
        "16070": 135,
        "16071": 43,
        "16072": 130,
        "16073": 207,
        "16074": 78,
        "16075": 217,
        "16076": 248,
        "16077": 106,
        "16078": 9,
        "16079": 151,
        "16080": 82,
        "16081": 222,
        "16082": 24,
        "16083": 95,
        "16084": 72,
        "16085": 75,
        "16086": 187,
        "16087": 165,
        "16088": 244,
        "16089": 208,
        "16090": 72,
        "16091": 176,
        "16092": 52,
        "16093": 186,
        "16094": 166,
        "16095": 122,
        "16096": 147,
        "16097": 97,
        "16098": 187,
        "16099": 90,
        "16100": 170,
        "16101": 26,
        "16102": 162,
        "16103": 158,
        "16104": 41,
        "16105": 94,
        "16106": 205,
        "16107": 73,
        "16108": 34,
        "16109": 59,
        "16110": 214,
        "16111": 39,
        "16112": 164,
        "16113": 167,
        "16114": 247,
        "16115": 243,
        "16116": 248,
        "16117": 33,
        "16118": 117,
        "16119": 69,
        "16120": 33,
        "16121": 135,
        "16122": 196,
        "16123": 175,
        "16124": 93,
        "16125": 195,
        "16126": 87,
        "16127": 245,
        "16128": 181,
        "16129": 92,
        "16130": 127,
        "16131": 242,
        "16132": 93,
        "16133": 33,
        "16134": 118,
        "16135": 41,
        "16136": 175,
        "16137": 215,
        "16138": 77,
        "16139": 63,
        "16140": 94,
        "16141": 229,
        "16142": 109,
        "16143": 206,
        "16144": 24,
        "16145": 185,
        "16146": 80,
        "16147": 14,
        "16148": 166,
        "16149": 169,
        "16150": 236,
        "16151": 106,
        "16152": 222,
        "16153": 32,
        "16154": 113,
        "16155": 179,
        "16156": 71,
        "16157": 205,
        "16158": 22,
        "16159": 227,
        "16160": 239,
        "16161": 168,
        "16162": 187,
        "16163": 73,
        "16164": 222,
        "16165": 116,
        "16166": 57,
        "16167": 0,
        "16168": 101,
        "16169": 2,
        "16170": 47,
        "16171": 32,
        "16172": 130,
        "16173": 215,
        "16174": 2,
        "16175": 85,
        "16176": 252,
        "16177": 167,
        "16178": 242,
        "16179": 187,
        "16180": 57,
        "16181": 38,
        "16182": 174,
        "16183": 250,
        "16184": 175,
        "16185": 228,
        "16186": 124,
        "16187": 137,
        "16188": 255,
        "16189": 15,
        "16190": 39,
        "16191": 68,
        "16192": 42,
        "16193": 222,
        "16194": 101,
        "16195": 148,
        "16196": 157,
        "16197": 16,
        "16198": 134,
        "16199": 7,
        "16200": 182,
        "16201": 61,
        "16202": 1,
        "16203": 253,
        "16204": 60,
        "16205": 185,
        "16206": 249,
        "16207": 15,
        "16208": 160,
        "16209": 164,
        "16210": 28,
        "16211": 180,
        "16212": 39,
        "16213": 156,
        "16214": 161,
        "16215": 54,
        "16216": 101,
        "16217": 126,
        "16218": 125,
        "16219": 60,
        "16220": 122,
        "16221": 215,
        "16222": 75,
        "16223": 252,
        "16224": 241,
        "16225": 108,
        "16226": 22,
        "16227": 101,
        "16228": 110,
        "16229": 96,
        "16230": 79,
        "16231": 6,
        "16232": 55,
        "16233": 34,
        "16234": 158,
        "16235": 67,
        "16236": 237,
        "16237": 4,
        "16238": 43,
        "16239": 185,
        "16240": 22,
        "16241": 172,
        "16242": 213,
        "16243": 255,
        "16244": 123,
        "16245": 159,
        "16246": 201,
        "16247": 58,
        "16248": 10,
        "16249": 186,
        "16250": 37,
        "16251": 231,
        "16252": 66,
        "16253": 33,
        "16254": 60,
        "16255": 161,
        "16256": 212,
        "16257": 58,
        "16258": 198,
        "16259": 153,
        "16260": 122,
        "16261": 134,
        "16262": 20,
        "16263": 26,
        "16264": 52,
        "16265": 159,
        "16266": 118,
        "16267": 212,
        "16268": 108,
        "16269": 208,
        "16270": 72,
        "16271": 53,
        "16272": 206,
        "16273": 198,
        "16274": 217,
        "16275": 252,
        "16276": 153,
        "16277": 138,
        "16278": 200,
        "16279": 97,
        "16280": 207,
        "16281": 124,
        "16282": 189,
        "16283": 82,
        "16284": 80,
        "16285": 56,
        "16286": 11,
        "16287": 92,
        "16288": 89,
        "16289": 131,
        "16290": 223,
        "16291": 113,
        "16292": 63,
        "16293": 187,
        "16294": 92,
        "16295": 169,
        "16296": 167,
        "16297": 139,
        "16298": 182,
        "16299": 246,
        "16300": 3,
        "16301": 197,
        "16302": 14,
        "16303": 54,
        "16304": 193,
        "16305": 208,
        "16306": 78,
        "16307": 58,
        "16308": 16,
        "16309": 235,
        "16310": 15,
        "16311": 110,
        "16312": 36,
        "16313": 229,
        "16314": 178,
        "16315": 31,
        "16316": 105,
        "16317": 166,
        "16318": 157,
        "16319": 183,
        "16320": 170,
        "16321": 164,
        "16322": 82,
        "16323": 59,
        "16324": 223,
        "16325": 94,
        "16326": 34,
        "16327": 34,
        "16328": 71,
        "16329": 167,
        "16330": 188,
        "16331": 58,
        "16332": 157,
        "16333": 72,
        "16334": 142,
        "16335": 220,
        "16336": 162,
        "16337": 75,
        "16338": 186,
        "16339": 15,
        "16340": 226,
        "16341": 107,
        "16342": 236,
        "16343": 36,
        "16344": 27,
        "16345": 134,
        "16346": 22,
        "16347": 111,
        "16348": 108,
        "16349": 69,
        "16350": 116,
        "16351": 241,
        "16352": 92,
        "16353": 244,
        "16354": 118,
        "16355": 200,
        "16356": 137,
        "16357": 0,
        "16358": 236,
        "16359": 129,
        "16360": 158,
        "16361": 177,
        "16362": 37,
        "16363": 239,
        "16364": 154,
        "16365": 116,
        "16366": 71,
        "16367": 58,
        "16368": 84,
        "16369": 189,
        "16370": 129,
        "16371": 255,
        "16372": 31,
        "16373": 169,
        "16374": 190,
        "16375": 13,
        "16376": 92,
        "16377": 244,
        "16378": 186,
        "16379": 230,
        "16380": 39,
        "16381": 68,
        "16382": 211,
        "16383": 120,
        "16384": 49,
        "16385": 180,
        "16386": 178,
        "16387": 212,
        "16388": 74,
        "16389": 65,
        "16390": 206,
        "16391": 69,
        "16392": 114,
        "16393": 133,
        "16394": 119,
        "16395": 220,
        "16396": 239,
        "16397": 205,
        "16398": 94,
        "16399": 13,
        "16400": 212,
        "16401": 86,
        "16402": 43,
        "16403": 40,
        "16404": 211,
        "16405": 140,
        "16406": 144,
        "16407": 248,
        "16408": 248,
        "16409": 79,
        "16410": 98,
        "16411": 209,
        "16412": 68,
        "16413": 133,
        "16414": 194,
        "16415": 6,
        "16416": 172,
        "16417": 131,
        "16418": 12,
        "16419": 157,
        "16420": 225,
        "16421": 245,
        "16422": 83,
        "16423": 97,
        "16424": 194,
        "16425": 224,
        "16426": 76,
        "16427": 157,
        "16428": 194,
        "16429": 91,
        "16430": 225,
        "16431": 177,
        "16432": 164,
        "16433": 150,
        "16434": 148,
        "16435": 41,
        "16436": 83,
        "16437": 58,
        "16438": 203,
        "16439": 93,
        "16440": 28,
        "16441": 173,
        "16442": 199,
        "16443": 168,
        "16444": 223,
        "16445": 222,
        "16446": 154,
        "16447": 195,
        "16448": 48,
        "16449": 11,
        "16450": 207,
        "16451": 227,
        "16452": 160,
        "16453": 100,
        "16454": 52,
        "16455": 15,
        "16456": 168,
        "16457": 53,
        "16458": 194,
        "16459": 248,
        "16460": 16,
        "16461": 182,
        "16462": 52,
        "16463": 161,
        "16464": 90,
        "16465": 202,
        "16466": 136,
        "16467": 194,
        "16468": 250,
        "16469": 97,
        "16470": 183,
        "16471": 33,
        "16472": 78,
        "16473": 33,
        "16474": 64,
        "16475": 71,
        "16476": 98,
        "16477": 150,
        "16478": 120,
        "16479": 43,
        "16480": 222,
        "16481": 112,
        "16482": 12,
        "16483": 146,
        "16484": 218,
        "16485": 130,
        "16486": 77,
        "16487": 142,
        "16488": 198,
        "16489": 22,
        "16490": 135,
        "16491": 88,
        "16492": 229,
        "16493": 68,
        "16494": 109,
        "16495": 7,
        "16496": 217,
        "16497": 35,
        "16498": 217,
        "16499": 10,
        "16500": 205,
        "16501": 21,
        "16502": 223,
        "16503": 87,
        "16504": 0,
        "16505": 188,
        "16506": 68,
        "16507": 139,
        "16508": 214,
        "16509": 5,
        "16510": 136,
        "16511": 111,
        "16512": 101,
        "16513": 202,
        "16514": 72,
        "16515": 29,
        "16516": 176,
        "16517": 190,
        "16518": 26,
        "16519": 88,
        "16520": 1,
        "16521": 8,
        "16522": 0,
        "16523": 0,
        "16524": 0,
        "16525": 0,
        "16526": 0,
        "16527": 0,
        "16528": 16,
        "16529": 0,
        "16530": 0,
        "16531": 0,
        "16532": 0,
        "16533": 0,
        "16534": 0,
        "16535": 0,
        "16536": 0,
        "16537": 0,
        "16538": 0,
        "16539": 0,
        "16540": 0,
        "16541": 0,
        "16542": 0,
        "16543": 0,
        "16544": 0,
        "16545": 0,
        "16546": 0,
        "16547": 0,
        "16548": 0,
        "16549": 0,
        "16550": 0,
        "16551": 0,
        "16552": 64,
        "16553": 0,
        "16554": 0,
        "16555": 0,
        "16556": 0,
        "16557": 0,
        "16558": 0,
        "16559": 0,
        "16560": 3,
        "16561": 0,
        "16562": 0,
        "16563": 0,
        "16564": 0,
        "16565": 0,
        "16566": 0,
        "16567": 0,
        "16568": 4,
        "16569": 0,
        "16570": 0,
        "16571": 0,
        "16572": 0,
        "16573": 0,
        "16574": 0,
        "16575": 0,
        "16576": 4,
        "16577": 0,
        "16578": 0,
        "16579": 0,
        "16580": 0,
        "16581": 0,
        "16582": 0,
        "16583": 0,
        "16584": 0,
        "16585": 0,
        "16586": 0,
        "16587": 0,
        "16588": 1,
        "16589": 0,
        "16590": 0,
        "16591": 0,
        "16592": 0,
        "16593": 0,
        "16594": 0,
        "16595": 0,
        "16596": 16,
        "16597": 0,
        "16598": 0,
        "16599": 0,
        "16600": 0,
        "16601": 0,
        "16602": 0,
        "16603": 0
      }
    }
  ],
  "numDeployments": 1,
  "solcInputHash": "c0e889dcb69b76266f445d0fe3402b92",
  "bytecode": "0x6101606040526200001760006200026660201b60201c565b6002553480156200002757600080fd5b50604051620046173803806200461783398181016040528101906200004d919062000b83565b6040518060400160405280600881526020017f46616b65204555520000000000000000000000000000000000000000000000008152506040518060400160405280600481526020017f6645555200000000000000000000000000000000000000000000000000000000815250338383836040518060400160405280601181526020017f4668656e6978205065726d697373696f6e0000000000000000000000000000008152506040518060400160405280600381526020017f312e3000000000000000000000000000000000000000000000000000000000008152506200013f6000836200028260201b90919060201c565b61012081815250506200015d6001826200028260201b90919060201c565b6101408181525050818051906020012060e08181525050808051906020012061010081815250504660a081815250506200019c620002da60201b60201c565b608081815250503073ffffffffffffffffffffffffffffffffffffffff1660c08173ffffffffffffffffffffffffffffffffffffffff168152505050508160059081620001ea919062000e1f565b508060069081620001fc919062000e1f565b505050600062000212826200033760201b60201c565b9050620002486200023c8262000230617fff6200026660201b60201c565b6200035560201b60201c565b620003f860201b60201c565b6200025a8382620004cb60201b60201c565b50505050505062001260565b60006200027b8260026200057160201b60201c565b9050919050565b6000602083511015620002a857620002a0836200062860201b60201c565b9050620002d4565b82620002ba836200069560201b60201c565b6000019081620002cb919062000e1f565b5060ff60001b90505b92915050565b60007f8b73c3c69bb8fe3d512ecc4cf759cc79239f7b179b0ffacaa9a75d522b39400f60e0516101005146306040516020016200031c95949392919062000f77565b60405160208183030381529060405280519060200120905090565b60006200034e82600001516200069f60201b60201c565b9050919050565b60006200036883620006bb60201b60201c565b62000382576200037f60006200026660201b60201c565b92505b6200039382620006bb60201b60201c565b620003ad57620003aa60006200026660201b60201c565b91505b600083905060008390506000620003ea60028484608073ffffffffffffffffffffffffffffffffffffffff1663eb274b77620006c860201b60201c565b905080935050505092915050565b62000409816200077960201b60201c565b62000423576200042060006200078660201b60201c565b90505b600081905060006200043b82620007a260201b60201c565b9050608073ffffffffffffffffffffffffffffffffffffffff16637d23f1db600d836040518363ffffffff1660e01b81526004016200047c9291906200104f565b600060405180830381865afa1580156200049a573d6000803e3d6000fd5b505050506040513d6000823e3d601f19601f82011682018060405250810190620004c5919062001083565b50505050565b62000516600360008473ffffffffffffffffffffffffffffffffffffffff1673ffffffffffffffffffffffffffffffffffffffff168152602001908152602001600020548262000803565b600360008473ffffffffffffffffffffffffffffffffffffffff1673ffffffffffffffffffffffffffffffffffffffff16815260200190815260200160002081905550620005676002548262000803565b6002819055505050565b60006060608073ffffffffffffffffffffffffffffffffffffffff166319e1c5c4620005a386620007a260201b60201c565b856040518363ffffffff1660e01b8152600401620005c3929190620010d4565b600060405180830381865afa158015620005e1573d6000803e3d6000fd5b505050506040513d6000823e3d601f19601f820116820180604052508101906200060c919062001083565b90506200061f816200081f60201b60201c565b91505092915050565b600080829050601f815111156200067857826040517f305a27a90000000000000000000000000000000000000000000000000000000081526004016200066f91906200115a565b60405180910390fd5b8051816200068690620011a5565b60001c1760001b915050919050565b6000819050919050565b6000620006b48260026200082d60201b60201c565b9050919050565b6000808214159050919050565b60006060838388620006e089620007a260201b60201c565b620006f189620007a260201b60201c565b6040518463ffffffff1660e01b8152600401620007119392919062001215565b600060405180830381865afa1580156200072f573d6000803e3d6000fd5b505050506040513d6000823e3d601f19601f820116820180604052508101906200075a919062001083565b90506200076d81620008d460201b60201c565b91505095945050505050565b6000808214159050919050565b60006200079b82600d6200057160201b60201c565b9050919050565b6060602067ffffffffffffffff811115620007c257620007c1620009ae565b5b6040519080825280601f01601f191660200182016040528015620007f55781602001600182028036833780820191505090505b509050816020820152919050565b6000620008178383620008e260201b60201c565b905092915050565b600060208201519050919050565b60006060608073ffffffffffffffffffffffffffffffffffffffff16635fa55ca784866040518363ffffffff1660e01b81526004016200086f9291906200104f565b600060405180830381865afa1580156200088d573d6000803e3d6000fd5b505050506040513d6000823e3d601f19601f82011682018060405250810190620008b8919062001083565b9050620008cb816200081f60201b60201c565b91505092915050565b600060208201519050919050565b6000620008f583620006bb60201b60201c565b6200090f576200090c60006200026660201b60201c565b92505b6200092082620006bb60201b60201c565b6200093a576200093760006200026660201b60201c565b91505b6000839050600083905060006200097660028484608073ffffffffffffffffffffffffffffffffffffffff16622df619620006c860201b60201c565b905080935050505092915050565b6000604051905090565b600080fd5b600080fd5b600080fd5b6000601f19601f8301169050919050565b7f4e487b7100000000000000000000000000000000000000000000000000000000600052604160045260246000fd5b620009e8826200099d565b810181811067ffffffffffffffff8211171562000a0a5762000a09620009ae565b5b80604052505050565b600062000a1f62000984565b905062000a2d8282620009dd565b919050565b600080fd5b600080fd5b600080fd5b600067ffffffffffffffff82111562000a5f5762000a5e620009ae565b5b62000a6a826200099d565b9050602081019050919050565b60005b8381101562000a9757808201518184015260208101905062000a7a565b60008484015250505050565b600062000aba62000ab48462000a41565b62000a13565b90508281526020810184848401111562000ad95762000ad862000a3c565b5b62000ae684828562000a77565b509392505050565b600082601f83011262000b065762000b0562000a37565b5b815162000b1884826020860162000aa3565b91505092915050565b60006020828403121562000b3a5762000b3962000998565b5b62000b46602062000a13565b9050600082015167ffffffffffffffff81111562000b695762000b6862000a32565b5b62000b778482850162000aee565b60008301525092915050565b60006020828403121562000b9c5762000b9b6200098e565b5b600082015167ffffffffffffffff81111562000bbd5762000bbc62000993565b5b62000bcb8482850162000b21565b91505092915050565b600081519050919050565b7f4e487b7100000000000000000000000000000000000000000000000000000000600052602260045260246000fd5b6000600282049050600182168062000c2757607f821691505b60208210810362000c3d5762000c3c62000bdf565b5b50919050565b60008190508160005260206000209050919050565b60006020601f8301049050919050565b600082821b905092915050565b60006008830262000ca77fffffffffffffffffffffffffffffffffffffffffffffffffffffffffffffffff8262000c68565b62000cb3868362000c68565b95508019841693508086168417925050509392505050565b6000819050919050565b6000819050919050565b600062000d0062000cfa62000cf48462000ccb565b62000cd5565b62000ccb565b9050919050565b6000819050919050565b62000d1c8362000cdf565b62000d3462000d2b8262000d07565b84845462000c75565b825550505050565b600090565b62000d4b62000d3c565b62000d5881848462000d11565b505050565b5b8181101562000d805762000d7460008262000d41565b60018101905062000d5e565b5050565b601f82111562000dcf5762000d998162000c43565b62000da48462000c58565b8101602085101562000db4578190505b62000dcc62000dc38562000c58565b83018262000d5d565b50505b505050565b600082821c905092915050565b600062000df46000198460080262000dd4565b1980831691505092915050565b600062000e0f838362000de1565b9150826002028217905092915050565b62000e2a8262000bd4565b67ffffffffffffffff81111562000e465762000e45620009ae565b5b62000e52825462000c0e565b62000e5f82828562000d84565b600060209050601f83116001811462000e97576000841562000e82578287015190505b62000e8e858262000e01565b86555062000efe565b601f19841662000ea78662000c43565b60005b8281101562000ed15784890151825560018201915060208501945060208101905062000eaa565b8683101562000ef1578489015162000eed601f89168262000de1565b8355505b6001600288020188555050505b505050505050565b6000819050919050565b62000f1b8162000f06565b82525050565b62000f2c8162000ccb565b82525050565b600073ffffffffffffffffffffffffffffffffffffffff82169050919050565b600062000f5f8262000f32565b9050919050565b62000f718162000f52565b82525050565b600060a08201905062000f8e600083018862000f10565b62000f9d602083018762000f10565b62000fac604083018662000f10565b62000fbb606083018562000f21565b62000fca608083018462000f66565b9695505050505050565b600060ff82169050919050565b62000fec8162000fd4565b82525050565b600081519050919050565b600082825260208201905092915050565b60006200101b8262000ff2565b62001027818562000ffd565b93506200103981856020860162000a77565b62001044816200099d565b840191505092915050565b600060408201905062001066600083018562000fe1565b81810360208301526200107a81846200100e565b90509392505050565b6000602082840312156200109c576200109b6200098e565b5b600082015167ffffffffffffffff811115620010bd57620010bc62000993565b5b620010cb8482850162000aee565b91505092915050565b60006040820190508181036000830152620010f081856200100e565b905062001101602083018462000fe1565b9392505050565b600082825260208201905092915050565b6000620011268262000bd4565b62001132818562001108565b93506200114481856020860162000a77565b6200114f816200099d565b840191505092915050565b6000602082019050818103600083015262001176818462001119565b905092915050565b6000819050602082019050919050565b60006200119c825162000f06565b80915050919050565b6000620011b28262000ff2565b82620011be846200117e565b9050620011cb816200118e565b925060208210156200120e57620012097fffffffffffffffffffffffffffffffffffffffffffffffffffffffffffffffff8360200360080262000c68565b831692505b5050919050565b60006060820190506200122c600083018662000fe1565b81810360208301526200124081856200100e565b905081810360408301526200125681846200100e565b9050949350505050565b60805160a05160c05160e05161010051610120516101405161335c620012bb60003960006118f5015260006118ba0152600061217f0152600061215e015260006119ea01526000611a4001526000611a69015261335c6000f3fe608060405234801561001057600080fd5b50600436106101425760003560e01c80637ecebe00116100b8578063a9059cbb1161007c578063a9059cbb146103b9578063af575a00146103e9578063c4224c1914610419578063d505accf14610449578063d918156e14610465578063dd62ed3e1461049557610142565b80637ecebe00146102fb57806384b0196e1461032b5780638624a3491461034f57806395d89b411461037f5780639f284be71461039d57610142565b80633644e5151161010a5780633644e5151461020157806339c217f71461021f5780635356c4291461024f578063602772041461027f5780636e0505e1146102af57806370a08231146102cb57610142565b806306fdde0314610147578063095ea7b31461016557806318160ddd1461019557806323b872dd146101b3578063313ce567146101e3575b600080fd5b61014f6104c5565b60405161015c9190612433565b60405180910390f35b61017f600480360381019061017a91906124fd565b610557565b60405161018c9190612558565b60405180910390f35b61019d6105ab565b6040516101aa9190612582565b60405180910390f35b6101cd60048036038101906101c8919061259d565b6105bd565b6040516101da9190612558565b60405180910390f35b6101eb610692565b6040516101f8919061260c565b60405180910390f35b610209610697565b6040516102169190612640565b60405180910390f35b6102396004803603810190610234919061267f565b610729565b6040516102469190612716565b60405180910390f35b61026960048036038101906102649190612750565b61074e565b6040516102769190612433565b60405180910390f35b61029960048036038101906102949190612983565b6108bf565b6040516102a69190612433565b60405180910390f35b6102c960048036038101906102c49190612a1b565b6109ec565b005b6102e560048036038101906102e09190612a48565b610b01565b6040516102f29190612582565b60405180910390f35b61031560048036038101906103109190612a48565b610b1c565b6040516103229190612582565b60405180910390f35b610333610b37565b6040516103469796959493929190612b7d565b60405180910390f35b61036960048036038101906103649190612c01565b610be1565b6040516103769190612716565b60405180910390f35b610387610c08565b6040516103949190612433565b60405180910390f35b6103b760048036038101906103b29190612a1b565b610c9a565b005b6103d360048036038101906103ce91906124fd565b610da7565b6040516103e09190612558565b60405180910390f35b61040360048036038101906103fe9190612c9c565b610e39565b6040516104109190612716565b60405180910390f35b610433600480360381019061042e9190612cef565b61118f565b6040516104409190612716565b60405180910390f35b610463600480360381019061045e9190612d5b565b611359565b005b61047f600480360381019061047a919061267f565b6114fd565b60405161048c9190612558565b60405180910390f35b6104af60048036038101906104aa9190612dfd565b6115f5565b6040516104bc9190612582565b60405180910390f35b6060600580546104d490612e6c565b80601f016020809104026020016040519081016040528092919081815260200182805461050090612e6c565b801561054d5780601f106105225761010080835404028352916020019161054d565b820191906000526020600020905b81548152906001019060200180831161053057829003601f168201915b5050505050905090565b600082602052637f5e9f20600c5233600052816034600c205581600052602c5160601c337f8c5be1e5ebec7d5bd14f71427d1e84f3dd0314c0f7b2291e5b200ac8c7c3b92560206000a36001905092915050565b60006805345cdf77eb68f44c54905090565b60006105ca848484611615565b8360601b33602052637f5e9f208117600c526034600c20805460018101156106085780851115610602576313be252b6000526004601cfd5b84810382555b6387a211a28317600c526020600c2080548087111561062f5763f4d678b86000526004601cfd5b8681038255876000526020600c2087815401815587602052600c5160601c8660601c7fddf252ad1be2c89b69c2b068fc378daa952ba7f163c4a11628f55a4df523b3ef602080a350505050505061068784848461161a565b600190509392505050565b600090565b6000806106a261161f565b90506000801b81036106c0576106b66104c5565b8051906020012090505b6040517f8b73c3c69bb8fe3d512ecc4cf759cc79239f7b179b0ffacaa9a75d522b39400f81528160208201527fc89efdaa54c0f20c7adf612882df0950f5a951637e0307cdcb4c672f298b8bc6604082015246606082015230608082015260a081209250505090565b6000610746836107418461073c90612ef5565b611624565b61118f565b905092915050565b60608161075a90612f08565b60006107b17f6bdaeb2d29561f159c7ef98b16b27015fb2aeb87209c7ee656226d912f59927d8360000151604051602001610796929190612f1b565b6040516020818303038152906040528051906020012061163a565b905060006107c3828460200151611654565b90503373ffffffffffffffffffffffffffffffffffffffff168173ffffffffffffffffffffffffffffffffffffffff161461082a576040517f3093a27700000000000000000000000000000000000000000000000000000000815260040160405180910390fd5b6108b4600460003373ffffffffffffffffffffffffffffffffffffffff1673ffffffffffffffffffffffffffffffffffffffff16815260200190815260200160002060008873ffffffffffffffffffffffffffffffffffffffff1673ffffffffffffffffffffffffffffffffffffffff168152602001908152602001600020548660000135611680565b935050505092915050565b60608183600061091a7f6bdaeb2d29561f159c7ef98b16b27015fb2aeb87209c7ee656226d912f59927d84600001516040516020016108ff929190612f1b565b6040516020818303038152906040528051906020012061163a565b9050600061092c828560200151611654565b90508273ffffffffffffffffffffffffffffffffffffffff168173ffffffffffffffffffffffffffffffffffffffff1614610993576040517f51c65eae00000000000000000000000000000000000000000000000000000000815260040160405180910390fd5b6109e0600360008973ffffffffffffffffffffffffffffffffffffffff1673ffffffffffffffffffffffffffffffffffffffff168152602001908152602001600020548760000151611680565b94505050505092915050565b6000610a45610a008363ffffffff166116b6565b600360003373ffffffffffffffffffffffffffffffffffffffff1673ffffffffffffffffffffffffffffffffffffffff168152602001908152602001600020546116ca565b9050610a90600360003373ffffffffffffffffffffffffffffffffffffffff1673ffffffffffffffffffffffffffffffffffffffff1681526020019081526020016000205482611743565b600360003373ffffffffffffffffffffffffffffffffffffffff1673ffffffffffffffffffffffffffffffffffffffff16815260200190815260200160002081905550610adf60025482611743565b600281905550610afd33610af283611757565b63ffffffff1661181a565b5050565b60006387a211a2600c52816000526020600c20549050919050565b60006338377508600c52816000526020600c20549050919050565b600060608060008060006060610b4b6118b1565b610b536118ec565b46306000801b600067ffffffffffffffff811115610b7457610b736127b1565b5b604051908082528060200260200182016040528015610ba25781602001602082028036833780820191505090505b507f0f00000000000000000000000000000000000000000000000000000000000000959493929190965096509650965096509650965090919293949596565b6000610bff8484610bfa85610bf590612ef5565b611624565b610e39565b90509392505050565b606060068054610c1790612e6c565b80601f0160208091040260200160405190810160405280929190818152602001828054610c4390612e6c565b8015610c905780601f10610c6557610100808354040283529160200191610c90565b820191906000526020600020905b815481529060010190602001808311610c7357829003601f168201915b5050505050905090565b8063ffffffff16610caa33610b01565b1015610ce2576040517ffda7bbda00000000000000000000000000000000000000000000000000000000815260040160405180910390fd5b610cf2338263ffffffff16611927565b6000610d038263ffffffff166116b6565b9050610d4e600360003373ffffffffffffffffffffffffffffffffffffffff1673ffffffffffffffffffffffffffffffffffffffff16815260200190815260200160002054826119be565b600360003373ffffffffffffffffffffffffffffffffffffffff1673ffffffffffffffffffffffffffffffffffffffff16815260200190815260200160002081905550610d9d600254826119be565b6002819055505050565b6000610db4338484611615565b6387a211a2600c52336000526020600c20805480841115610ddd5763f4d678b86000526004601cfd5b8381038255846000526020600c2084815401815584602052600c5160601c337fddf252ad1be2c89b69c2b068fc378daa952ba7f163c4a11628f55a4df523b3ef602080a3505050610e2f33848461161a565b6001905092915050565b600080610f0a83610f05600360008973ffffffffffffffffffffffffffffffffffffffff1673ffffffffffffffffffffffffffffffffffffffff16815260200190815260200160002054600460008a73ffffffffffffffffffffffffffffffffffffffff1673ffffffffffffffffffffffffffffffffffffffff16815260200190815260200160002060003373ffffffffffffffffffffffffffffffffffffffff1673ffffffffffffffffffffffffffffffffffffffff168152602001908152602001600020546116ca565b6116ca565b9050610f92600460008773ffffffffffffffffffffffffffffffffffffffff1673ffffffffffffffffffffffffffffffffffffffff16815260200190815260200160002060003373ffffffffffffffffffffffffffffffffffffffff1673ffffffffffffffffffffffffffffffffffffffff1681526020019081526020016000205482611743565b600460008773ffffffffffffffffffffffffffffffffffffffff1673ffffffffffffffffffffffffffffffffffffffff16815260200190815260200160002060003373ffffffffffffffffffffffffffffffffffffffff1673ffffffffffffffffffffffffffffffffffffffff1681526020019081526020016000208190555061105b600360008773ffffffffffffffffffffffffffffffffffffffff1673ffffffffffffffffffffffffffffffffffffffff1681526020019081526020016000205482611743565b600360008773ffffffffffffffffffffffffffffffffffffffff1673ffffffffffffffffffffffffffffffffffffffff168152602001908152602001600020819055506110e7600360008673ffffffffffffffffffffffffffffffffffffffff1673ffffffffffffffffffffffffffffffffffffffff16815260200190815260200160002054826119be565b600360008673ffffffffffffffffffffffffffffffffffffffff1673ffffffffffffffffffffffffffffffffffffffff168152602001908152602001600020819055508373ffffffffffffffffffffffffffffffffffffffff168573ffffffffffffffffffffffffffffffffffffffff167f7612539b010127d1a2f810eeff1131de23a28ecfa8228f92a9606a879300fbb560405160405180910390a3809150509392505050565b6000806111db83600360003373ffffffffffffffffffffffffffffffffffffffff1673ffffffffffffffffffffffffffffffffffffffff168152602001908152602001600020546116ca565b9050611226600360003373ffffffffffffffffffffffffffffffffffffffff1673ffffffffffffffffffffffffffffffffffffffff1681526020019081526020016000205482611743565b600360003373ffffffffffffffffffffffffffffffffffffffff1673ffffffffffffffffffffffffffffffffffffffff168152602001908152602001600020819055506112b2600360008673ffffffffffffffffffffffffffffffffffffffff1673ffffffffffffffffffffffffffffffffffffffff16815260200190815260200160002054826119be565b600360008673ffffffffffffffffffffffffffffffffffffffff1673ffffffffffffffffffffffffffffffffffffffff168152602001908152602001600020819055508373ffffffffffffffffffffffffffffffffffffffff163373ffffffffffffffffffffffffffffffffffffffff167f7612539b010127d1a2f810eeff1131de23a28ecfa8228f92a9606a879300fbb560405160405180910390a38091505092915050565b600061136361161f565b90506000801b8103611381576113776104c5565b8051906020012090505b8442111561139757631a15a3cc6000526004601cfd5b6040518860601b60601c98508760601b60601c975065383775081901600e52886000526020600c2080547f8b73c3c69bb8fe3d512ecc4cf759cc79239f7b179b0ffacaa9a75d522b39400f83528360208401527fc89efdaa54c0f20c7adf612882df0950f5a951637e0307cdcb4c672f298b8bc6604084015246606084015230608084015260a08320602e527f6e71edae12b1b97f4d1f60370fef10105fa2faae0126114a169c64845d6126c983528a60208401528960408401528860608401528060808401528760a084015260c08320604e526042602c206000528660ff1660205285604052846060526020806080600060015afa8b3d51146114a35763ddafbaef6000526004601cfd5b80820183558a637f5e9f2060a01b17604052896034602c20558a8c7f8c5be1e5ebec7d5bd14f71427d1e84f3dd0314c0f7b2291e5b200ac8c7c3b925602060608801a3836040526000606052505050505050505050505050565b60006115118261150c90612ef5565b611624565b600460003373ffffffffffffffffffffffffffffffffffffffff1673ffffffffffffffffffffffffffffffffffffffff16815260200190815260200160002060008573ffffffffffffffffffffffffffffffffffffffff1673ffffffffffffffffffffffffffffffffffffffff168152602001908152602001600020819055508273ffffffffffffffffffffffffffffffffffffffff163373ffffffffffffffffffffffffffffffffffffffff167f46f92913a39019d68e630493d23e0cf39761bf253f7b3f8eae384b33e393ed4e60405160405180910390a36001905092915050565b600081602052637f5e9f20600c52826000526034600c2054905092915050565b505050565b505050565b600090565b600061163382600001516119d2565b9050919050565b600061164d6116476119e6565b83611a9d565b9050919050565b6000806000806116648686611ade565b9250925092506116748282611b3a565b82935050505092915050565b606061168b83611c9e565b61169c5761169960006116b6565b92505b60008390506116ad60028285611cab565b91505092915050565b60006116c3826002611d61565b9050919050565b60006116d583611c9e565b6116e6576116e360006116b6565b92505b6116ef82611c9e565b611700576116fd60006116b6565b91505b60008390506000839050600061173560028484608073ffffffffffffffffffffffffffffffffffffffff16635211c679611e03565b905080935050505092915050565b600061174f8383611e97565b905092915050565b600061176282611c9e565b6117735761177060006116b6565b91505b6000829050600061178382611f10565b90506000608073ffffffffffffffffffffffffffffffffffffffff166373cc01546002846040518363ffffffff1660e01b81526004016117c4929190612f99565b602060405180830381865afa1580156117e1573d6000803e3d6000fd5b505050506040513d601f19601f820116820180604052508101906118059190612fde565b905061181081611f6d565b9350505050919050565b61182660008383611615565b6805345cdf77eb68f44c548181018181101561184a5763e5cfe9576000526004601cfd5b806805345cdf77eb68f44c556387a211a2600c52836000526020600c2083815401815583602052600c5160601c60007fddf252ad1be2c89b69c2b068fc378daa952ba7f163c4a11628f55a4df523b3ef602080a35050506118ad6000838361161a565b5050565b60606118e760007f0000000000000000000000000000000000000000000000000000000000000000611f7790919063ffffffff16565b905090565b606061192260017f0000000000000000000000000000000000000000000000000000000000000000611f7790919063ffffffff16565b905090565b61193382600083611615565b6387a211a2600c52816000526020600c2080548083111561195c5763f4d678b86000526004601cfd5b8281038255826805345cdf77eb68f44c54036805345cdf77eb68f44c558260005260008460601b60601c7fddf252ad1be2c89b69c2b068fc378daa952ba7f163c4a11628f55a4df523b3ef60206000a350506119ba8260008361161a565b5050565b60006119ca8383612027565b905092915050565b60006119df82600261209f565b9050919050565b60007f000000000000000000000000000000000000000000000000000000000000000073ffffffffffffffffffffffffffffffffffffffff163073ffffffffffffffffffffffffffffffffffffffff16148015611a6257507f000000000000000000000000000000000000000000000000000000000000000046145b15611a8f577f00000000000000000000000000000000000000000000000000000000000000009050611a9a565b611a97612139565b90505b90565b60006040517f190100000000000000000000000000000000000000000000000000000000000081528360028201528260228201526042812091505092915050565b60008060006041845103611b235760008060006020870151925060408701519150606087015160001a9050611b15888285856121cf565b955095509550505050611b33565b60006002855160001b9250925092505b9250925092565b60006003811115611b4e57611b4d61300b565b5b826003811115611b6157611b6061300b565b5b0315611c9a5760016003811115611b7b57611b7a61300b565b5b826003811115611b8e57611b8d61300b565b5b03611bc5576040517ff645eedf00000000000000000000000000000000000000000000000000000000815260040160405180910390fd5b60026003811115611bd957611bd861300b565b5b826003811115611bec57611beb61300b565b5b03611c31578060001c6040517ffce698f7000000000000000000000000000000000000000000000000000000008152600401611c289190612582565b60405180910390fd5b600380811115611c4457611c4361300b565b5b826003811115611c5757611c5661300b565b5b03611c9957806040517fd78bce0c000000000000000000000000000000000000000000000000000000008152600401611c909190612640565b60405180910390fd5b5b5050565b6000808214159050919050565b6060608073ffffffffffffffffffffffffffffffffffffffff1663a1848ff385611cd486611f10565b85604051602001611ce5919061305b565b6040516020818303038152906040526040518463ffffffff1660e01b8152600401611d1293929190613076565b600060405180830381865afa158015611d2f573d6000803e3d6000fd5b505050506040513d6000823e3d601f19601f82011682018060405250810190611d58919061315c565b90509392505050565b60006060608073ffffffffffffffffffffffffffffffffffffffff166319e1c5c4611d8b86611f10565b856040518363ffffffff1660e01b8152600401611da99291906131a5565b600060405180830381865afa158015611dc6573d6000803e3d6000fd5b505050506040513d6000823e3d601f19601f82011682018060405250810190611def9190613245565b9050611dfa816122c3565b91505092915050565b60006060838388611e1389611f10565b611e1c89611f10565b6040518463ffffffff1660e01b8152600401611e3a93929190613076565b600060405180830381865afa158015611e57573d6000803e3d6000fd5b505050506040513d6000823e3d601f19601f82011682018060405250810190611e809190613245565b9050611e8b816122d1565b91505095945050505050565b6000611ea283611c9e565b611eb357611eb060006116b6565b92505b611ebc82611c9e565b611ecd57611eca60006116b6565b91505b600083905060008390506000611f0260028484608073ffffffffffffffffffffffffffffffffffffffff1663cc2cbeff611e03565b905080935050505092915050565b6060602067ffffffffffffffff811115611f2d57611f2c6127b1565b5b6040519080825280601f01601f191660200182016040528015611f5f5781602001600182028036833780820191505090505b509050816020820152919050565b6000819050919050565b606060ff60001b8314611f9457611f8d836122df565b9050612021565b818054611fa090612e6c565b80601f0160208091040260200160405190810160405280929190818152602001828054611fcc90612e6c565b80156120195780601f10611fee57610100808354040283529160200191612019565b820191906000526020600020905b815481529060010190602001808311611ffc57829003601f168201915b505050505090505b92915050565b600061203283611c9e565b6120435761204060006116b6565b92505b61204c82611c9e565b61205d5761205a60006116b6565b91505b60008390506000839050600061209160028484608073ffffffffffffffffffffffffffffffffffffffff16622df619611e03565b905080935050505092915050565b60006060608073ffffffffffffffffffffffffffffffffffffffff16635fa55ca784866040518363ffffffff1660e01b81526004016120df929190612f99565b600060405180830381865afa1580156120fc573d6000803e3d6000fd5b505050506040513d6000823e3d601f19601f820116820180604052508101906121259190613245565b9050612130816122c3565b91505092915050565b60007f8b73c3c69bb8fe3d512ecc4cf759cc79239f7b179b0ffacaa9a75d522b39400f7f00000000000000000000000000000000000000000000000000000000000000007f000000000000000000000000000000000000000000000000000000000000000046306040516020016121b495949392919061328e565b60405160208183030381529060405280519060200120905090565b60008060007f7fffffffffffffffffffffffffffffff5d576e7357a4501ddfe92f46681b20a08460001c111561220f5760006003859250925092506122b9565b60006001888888886040516000815260200160405260405161223494939291906132e1565b6020604051602081039080840390855afa158015612256573d6000803e3d6000fd5b505050602060405103519050600073ffffffffffffffffffffffffffffffffffffffff168173ffffffffffffffffffffffffffffffffffffffff16036122aa57600060016000801b935093509350506122b9565b8060008060001b935093509350505b9450945094915050565b600060208201519050919050565b600060208201519050919050565b606060006122ec83612353565b90506000602067ffffffffffffffff81111561230b5761230a6127b1565b5b6040519080825280601f01601f19166020018201604052801561233d5781602001600182028036833780820191505090505b5090508181528360208201528092505050919050565b60008060ff8360001c169050601f81111561239a576040517fb3512b0c00000000000000000000000000000000000000000000000000000000815260040160405180910390fd5b80915050919050565b600081519050919050565b600082825260208201905092915050565b60005b838110156123dd5780820151818401526020810190506123c2565b60008484015250505050565b6000601f19601f8301169050919050565b6000612405826123a3565b61240f81856123ae565b935061241f8185602086016123bf565b612428816123e9565b840191505092915050565b6000602082019050818103600083015261244d81846123fa565b905092915050565b6000604051905090565b600080fd5b600080fd5b600073ffffffffffffffffffffffffffffffffffffffff82169050919050565b600061249482612469565b9050919050565b6124a481612489565b81146124af57600080fd5b50565b6000813590506124c18161249b565b92915050565b6000819050919050565b6124da816124c7565b81146124e557600080fd5b50565b6000813590506124f7816124d1565b92915050565b600080604083850312156125145761251361245f565b5b6000612522858286016124b2565b9250506020612533858286016124e8565b9150509250929050565b60008115159050919050565b6125528161253d565b82525050565b600060208201905061256d6000830184612549565b92915050565b61257c816124c7565b82525050565b60006020820190506125976000830184612573565b92915050565b6000806000606084860312156125b6576125b561245f565b5b60006125c4868287016124b2565b93505060206125d5868287016124b2565b92505060406125e6868287016124e8565b9150509250925092565b600060ff82169050919050565b612606816125f0565b82525050565b600060208201905061262160008301846125fd565b92915050565b6000819050919050565b61263a81612627565b82525050565b60006020820190506126556000830184612631565b92915050565b600080fd5b6000602082840312156126765761267561265b565b5b81905092915050565b600080604083850312156126965761269561245f565b5b60006126a4858286016124b2565b925050602083013567ffffffffffffffff8111156126c5576126c4612464565b5b6126d185828601612660565b9150509250929050565b6000819050919050565b60006127006126fb6126f6846124c7565b6126db565b6124c7565b9050919050565b612710816126e5565b82525050565b600060208201905061272b6000830184612707565b92915050565b6000604082840312156127475761274661265b565b5b81905092915050565b600080604083850312156127675761276661245f565b5b6000612775858286016124b2565b925050602083013567ffffffffffffffff81111561279657612795612464565b5b6127a285828601612731565b9150509250929050565b600080fd5b7f4e487b7100000000000000000000000000000000000000000000000000000000600052604160045260246000fd5b6127e9826123e9565b810181811067ffffffffffffffff82111715612808576128076127b1565b5b80604052505050565b600061281b612455565b905061282782826127e0565b919050565b600080fd5b61283a81612627565b811461284557600080fd5b50565b60008135905061285781612831565b92915050565b600080fd5b600080fd5b600067ffffffffffffffff821115612882576128816127b1565b5b61288b826123e9565b9050602081019050919050565b82818337600083830152505050565b60006128ba6128b584612867565b612811565b9050828152602081018484840111156128d6576128d5612862565b5b6128e1848285612898565b509392505050565b600082601f8301126128fe576128fd61285d565b5b813561290e8482602086016128a7565b91505092915050565b60006040828403121561292d5761292c6127ac565b5b6129376040612811565b9050600061294784828501612848565b600083015250602082013567ffffffffffffffff81111561296b5761296a61282c565b5b612977848285016128e9565b60208301525092915050565b6000806040838503121561299a5761299961245f565b5b60006129a8858286016124b2565b925050602083013567ffffffffffffffff8111156129c9576129c8612464565b5b6129d585828601612917565b9150509250929050565b600063ffffffff82169050919050565b6129f8816129df565b8114612a0357600080fd5b50565b600081359050612a15816129ef565b92915050565b600060208284031215612a3157612a3061245f565b5b6000612a3f84828501612a06565b91505092915050565b600060208284031215612a5e57612a5d61245f565b5b6000612a6c848285016124b2565b91505092915050565b60007fff0000000000000000000000000000000000000000000000000000000000000082169050919050565b612aaa81612a75565b82525050565b612ab981612489565b82525050565b600081519050919050565b600082825260208201905092915050565b6000819050602082019050919050565b612af4816124c7565b82525050565b6000612b068383612aeb565b60208301905092915050565b6000602082019050919050565b6000612b2a82612abf565b612b348185612aca565b9350612b3f83612adb565b8060005b83811015612b70578151612b578882612afa565b9750612b6283612b12565b925050600181019050612b43565b5085935050505092915050565b600060e082019050612b92600083018a612aa1565b8181036020830152612ba481896123fa565b90508181036040830152612bb881886123fa565b9050612bc76060830187612573565b612bd46080830186612ab0565b612be160a0830185612631565b81810360c0830152612bf38184612b1f565b905098975050505050505050565b600080600060608486031215612c1a57612c1961245f565b5b6000612c28868287016124b2565b9350506020612c39868287016124b2565b925050604084013567ffffffffffffffff811115612c5a57612c59612464565b5b612c6686828701612660565b9150509250925092565b612c79816124c7565b8114612c8457600080fd5b50565b600081359050612c9681612c70565b92915050565b600080600060608486031215612cb557612cb461245f565b5b6000612cc3868287016124b2565b9350506020612cd4868287016124b2565b9250506040612ce586828701612c87565b9150509250925092565b60008060408385031215612d0657612d0561245f565b5b6000612d14858286016124b2565b9250506020612d2585828601612c87565b9150509250929050565b612d38816125f0565b8114612d4357600080fd5b50565b600081359050612d5581612d2f565b92915050565b600080600080600080600060e0888a031215612d7a57612d7961245f565b5b6000612d888a828b016124b2565b9750506020612d998a828b016124b2565b9650506040612daa8a828b016124e8565b9550506060612dbb8a828b016124e8565b9450506080612dcc8a828b01612d46565b93505060a0612ddd8a828b01612848565b92505060c0612dee8a828b01612848565b91505092959891949750929550565b60008060408385031215612e1457612e1361245f565b5b6000612e22858286016124b2565b9250506020612e33858286016124b2565b9150509250929050565b7f4e487b7100000000000000000000000000000000000000000000000000000000600052602260045260246000fd5b60006002820490506001821680612e8457607f821691505b602082108103612e9757612e96612e3d565b5b50919050565b600060208284031215612eb357612eb26127ac565b5b612ebd6020612811565b9050600082013567ffffffffffffffff811115612edd57612edc61282c565b5b612ee9848285016128e9565b60008301525092915050565b6000612f013683612e9d565b9050919050565b6000612f143683612917565b9050919050565b6000604082019050612f306000830185612631565b612f3d6020830184612631565b9392505050565b600081519050919050565b600082825260208201905092915050565b6000612f6b82612f44565b612f758185612f4f565b9350612f858185602086016123bf565b612f8e816123e9565b840191505092915050565b6000604082019050612fae60008301856125fd565b8181036020830152612fc08184612f60565b90509392505050565b600081519050612fd8816124d1565b92915050565b600060208284031215612ff457612ff361245f565b5b600061300284828501612fc9565b91505092915050565b7f4e487b7100000000000000000000000000000000000000000000000000000000600052602160045260246000fd5b6000819050919050565b61305561305082612627565b61303a565b82525050565b60006130678284613044565b60208201915081905092915050565b600060608201905061308b60008301866125fd565b818103602083015261309d8185612f60565b905081810360408301526130b18184612f60565b9050949350505050565b600067ffffffffffffffff8211156130d6576130d56127b1565b5b6130df826123e9565b9050602081019050919050565b60006130ff6130fa846130bb565b612811565b90508281526020810184848401111561311b5761311a612862565b5b6131268482856123bf565b509392505050565b600082601f8301126131435761314261285d565b5b81516131538482602086016130ec565b91505092915050565b6000602082840312156131725761317161245f565b5b600082015167ffffffffffffffff8111156131905761318f612464565b5b61319c8482850161312e565b91505092915050565b600060408201905081810360008301526131bf8185612f60565b90506131ce60208301846125fd565b9392505050565b60006131e86131e384612867565b612811565b90508281526020810184848401111561320457613203612862565b5b61320f8482856123bf565b509392505050565b600082601f83011261322c5761322b61285d565b5b815161323c8482602086016131d5565b91505092915050565b60006020828403121561325b5761325a61245f565b5b600082015167ffffffffffffffff81111561327957613278612464565b5b61328584828501613217565b91505092915050565b600060a0820190506132a36000830188612631565b6132b06020830187612631565b6132bd6040830186612631565b6132ca6060830185612573565b6132d76080830184612ab0565b9695505050505050565b60006080820190506132f66000830187612631565b61330360208301866125fd565b6133106040830185612631565b61331d6060830184612631565b9594505050505056fea2646970667358221220d2ecefabf6474a46052e52e11ab32c5139690c9cccda6a7c37d9a6911a35acc664736f6c63430008180033",
  "devdoc": {
    "errors": {
      "AllowanceOverflow()": [
        {
          "details": "The allowance has overflowed."
        }
      ],
      "AllowanceUnderflow()": [
        {
          "details": "The allowance has underflowed."
        }
      ],
      "ECDSAInvalidSignature()": [
        {
          "details": "The signature derives the `address(0)`."
        }
      ],
      "ECDSAInvalidSignatureLength(uint256)": [
        {
          "details": "The signature has an invalid length."
        }
      ],
      "ECDSAInvalidSignatureS(bytes32)": [
        {
          "details": "The signature has an S value that is in the upper half order."
        }
      ],
      "InsufficientAllowance()": [
        {
          "details": "Insufficient allowance."
        }
      ],
      "InsufficientBalance()": [
        {
          "details": "Insufficient balance."
        }
      ],
      "InvalidPermit()": [
        {
          "details": "The permit is invalid."
        }
      ],
      "PermitExpired()": [
        {
          "details": "The permit has expired."
        }
      ],
      "TotalSupplyOverflow()": [
        {
          "details": "The total supply has overflowed."
        }
      ]
    },
    "events": {
      "Approval(address,address,uint256)": {
        "details": "Emitted when `amount` tokens is approved by `owner` to be used by `spender`."
      },
      "ApprovalEncrypted(address,address)": {
        "details": "Emitted when the allowance of a `spender` for an `owner` is set by a call to {approveEncrypted}. `value` is the new allowance."
      },
      "EIP712DomainChanged()": {
        "details": "MAY be emitted to signal that the domain could have changed."
      },
      "Transfer(address,address,uint256)": {
        "details": "Emitted when `amount` tokens is transferred from `from` to `to`."
      },
      "TransferEncrypted(address,address)": {
        "details": "Emitted when `value` tokens are moved from one account (`from`) to another (`to`). Note that `value` may be zero."
      }
    },
    "kind": "dev",
    "methods": {
      "DOMAIN_SEPARATOR()": {
        "details": "Returns the EIP-712 domain separator for the EIP-2612 permit."
      },
      "allowance(address,address)": {
        "details": "Returns the amount of tokens that `spender` can spend on behalf of `owner`."
      },
      "allowanceEncrypted(address,(bytes32,bytes))": {
        "details": "Returns the remaining number of tokens that `spender` will be allowed to spend on behalf of `owner` through {transferFrom}. This is zero by default. This value changes when {approve} or {transferFrom} are called."
      },
      "approve(address,uint256)": {
        "details": "Sets `amount` as the allowance of `spender` over the caller's tokens. Emits a {Approval} event."
      },
      "approveEncrypted(address,(bytes))": {
        "details": "Sets a `value` amount of tokens as the allowance of `spender` over the caller's tokens. Returns a boolean value indicating whether the operation succeeded. IMPORTANT: Beware that changing an allowance with this method brings the risk that someone may use both the old and the new allowance by unfortunate transaction ordering. One possible solution to mitigate this race condition is to first reduce the spender's allowance to 0 and set the desired value afterwards: https://github.com/ethereum/EIPs/issues/20#issuecomment-263524729 Emits an {ApprovalEncrypted} event."
      },
      "balanceOf(address)": {
        "details": "Returns the amount of tokens owned by `owner`."
      },
      "balanceOfEncrypted(address,(bytes32,bytes))": {
        "details": "Returns the value of tokens owned by `account`, sealed and encrypted for the caller."
      },
      "decimals()": {
        "details": "Returns the decimals places of the token."
      },
      "eip712Domain()": {
        "details": "See {IERC-5267}."
      },
      "name()": {
        "details": "Returns the name of the token."
      },
      "nonces(address)": {
        "details": "Returns the current nonce for `owner`. This value is used to compute the signature for EIP-2612 permit."
      },
      "permit(address,address,uint256,uint256,uint8,bytes32,bytes32)": {
        "details": "Sets `value` as the allowance of `spender` over the tokens of `owner`, authorized by a signed approval by `owner`. Emits a {Approval} event."
      },
      "symbol()": {
        "details": "Returns the symbol of the token."
      },
      "totalSupply()": {
        "details": "Returns the amount of tokens in existence."
      },
      "transfer(address,uint256)": {
        "details": "Transfer `amount` tokens from the caller to `to`. Requirements: - `from` must at least have `amount`. Emits a {Transfer} event."
      },
      "transferFrom(address,address,uint256)": {
        "details": "Transfers `amount` tokens from `from` to `to`. Note: Does not update the allowance if it is the maximum uint256 value. Requirements: - `from` must at least have `amount`. - The caller must have at least `amount` of allowance to transfer the tokens of `from`. Emits a {Transfer} event."
      },
      "transferFromEncrypted(address,address,(bytes))": {
        "details": "Moves a `value` amount of tokens from `from` to `to` using the allowance mechanism. `value` is then deducted from the caller's allowance. Returns a boolean value indicating whether the operation succeeded. Emits a {TransferEncrypted} event."
      }
    },
    "version": 1
  },
  "userdoc": {
    "errors": {
      "SignerNotMessageSender()": [
        {
          "notice": "Emitted when the signer is not the message sender"
        }
      ],
      "SignerNotOwner()": [
        {
          "notice": "Emitted when the signer is not the specified owner"
        }
      ]
    },
    "kind": "user",
    "methods": {},
    "version": 1
  },
  "storageLayout": {
    "storage": [
      {
        "astId": 16568,
        "contract": "contracts/tokens/FakeEUR.sol:FakeEUR",
        "label": "_nameFallback",
        "offset": 0,
        "slot": "0",
        "type": "t_string_storage"
      },
      {
        "astId": 16570,
        "contract": "contracts/tokens/FakeEUR.sol:FakeEUR",
        "label": "_versionFallback",
        "offset": 0,
        "slot": "1",
        "type": "t_string_storage"
      },
      {
        "astId": 18126,
        "contract": "contracts/tokens/FakeEUR.sol:FakeEUR",
        "label": "_encTotalSupply",
        "offset": 0,
        "slot": "2",
        "type": "t_userDefinedValueType(euint32)12"
      },
      {
        "astId": 18131,
        "contract": "contracts/tokens/FakeEUR.sol:FakeEUR",
        "label": "_encBalanceOf",
        "offset": 0,
        "slot": "3",
        "type": "t_mapping(t_address,t_userDefinedValueType(euint32)12)"
      },
      {
        "astId": 18138,
        "contract": "contracts/tokens/FakeEUR.sol:FakeEUR",
        "label": "_encAllowance",
        "offset": 0,
        "slot": "4",
        "type": "t_mapping(t_address,t_mapping(t_address,t_userDefinedValueType(euint32)12))"
      },
      {
        "astId": 18140,
        "contract": "contracts/tokens/FakeEUR.sol:FakeEUR",
        "label": "_name",
        "offset": 0,
        "slot": "5",
        "type": "t_string_storage"
      },
      {
        "astId": 18142,
        "contract": "contracts/tokens/FakeEUR.sol:FakeEUR",
        "label": "_symbol",
        "offset": 0,
        "slot": "6",
        "type": "t_string_storage"
      }
    ],
    "types": {
      "t_address": {
        "encoding": "inplace",
        "label": "address",
        "numberOfBytes": "20"
      },
      "t_mapping(t_address,t_mapping(t_address,t_userDefinedValueType(euint32)12))": {
        "encoding": "mapping",
        "key": "t_address",
        "label": "mapping(address => mapping(address => euint32))",
        "numberOfBytes": "32",
        "value": "t_mapping(t_address,t_userDefinedValueType(euint32)12)"
      },
      "t_mapping(t_address,t_userDefinedValueType(euint32)12)": {
        "encoding": "mapping",
        "key": "t_address",
        "label": "mapping(address => euint32)",
        "numberOfBytes": "32",
        "value": "t_userDefinedValueType(euint32)12"
      },
      "t_string_storage": {
        "encoding": "bytes",
        "label": "string",
        "numberOfBytes": "32"
      },
      "t_userDefinedValueType(euint32)12": {
        "encoding": "inplace",
        "label": "euint32",
        "numberOfBytes": "32"
      }
    }
  }
}