{
  "address": "0x864818D531E480041c21EEbC2992d2227a82472A",
  "abi": [
    {
      "inputs": [
        {
          "components": [
            {
              "internalType": "bytes",
              "name": "data",
              "type": "bytes"
            }
          ],
          "internalType": "struct inEuint32",
          "name": "_initialSupply",
          "type": "tuple"
        }
      ],
      "stateMutability": "nonpayable",
      "type": "constructor"
    },
    {
      "inputs": [],
      "name": "AllowanceOverflow",
      "type": "error"
    },
    {
      "inputs": [],
      "name": "AllowanceUnderflow",
      "type": "error"
    },
    {
      "inputs": [],
      "name": "ECDSAInvalidSignature",
      "type": "error"
    },
    {
      "inputs": [
        {
          "internalType": "uint256",
          "name": "length",
          "type": "uint256"
        }
      ],
      "name": "ECDSAInvalidSignatureLength",
      "type": "error"
    },
    {
      "inputs": [
        {
          "internalType": "bytes32",
          "name": "s",
          "type": "bytes32"
        }
      ],
      "name": "ECDSAInvalidSignatureS",
      "type": "error"
    },
    {
      "inputs": [],
      "name": "ErrorInsufficientFunds",
      "type": "error"
    },
    {
      "inputs": [],
      "name": "InsufficientAllowance",
      "type": "error"
    },
    {
      "inputs": [],
      "name": "InsufficientBalance",
      "type": "error"
    },
    {
      "inputs": [],
      "name": "InvalidPermit",
      "type": "error"
    },
    {
      "inputs": [],
      "name": "InvalidShortString",
      "type": "error"
    },
    {
      "inputs": [],
      "name": "PermitExpired",
      "type": "error"
    },
    {
      "inputs": [],
      "name": "SignerNotMessageSender",
      "type": "error"
    },
    {
      "inputs": [],
      "name": "SignerNotOwner",
      "type": "error"
    },
    {
      "inputs": [
        {
          "internalType": "string",
          "name": "str",
          "type": "string"
        }
      ],
      "name": "StringTooLong",
      "type": "error"
    },
    {
      "inputs": [],
      "name": "TotalSupplyOverflow",
      "type": "error"
    },
    {
      "anonymous": false,
      "inputs": [
        {
          "indexed": true,
          "internalType": "address",
          "name": "owner",
          "type": "address"
        },
        {
          "indexed": true,
          "internalType": "address",
          "name": "spender",
          "type": "address"
        },
        {
          "indexed": false,
          "internalType": "uint256",
          "name": "amount",
          "type": "uint256"
        }
      ],
      "name": "Approval",
      "type": "event"
    },
    {
      "anonymous": false,
      "inputs": [
        {
          "indexed": true,
          "internalType": "address",
          "name": "owner",
          "type": "address"
        },
        {
          "indexed": true,
          "internalType": "address",
          "name": "spender",
          "type": "address"
        }
      ],
      "name": "ApprovalEncrypted",
      "type": "event"
    },
    {
      "anonymous": false,
      "inputs": [],
      "name": "EIP712DomainChanged",
      "type": "event"
    },
    {
      "anonymous": false,
      "inputs": [
        {
          "indexed": true,
          "internalType": "address",
          "name": "from",
          "type": "address"
        },
        {
          "indexed": true,
          "internalType": "address",
          "name": "to",
          "type": "address"
        },
        {
          "indexed": false,
          "internalType": "uint256",
          "name": "amount",
          "type": "uint256"
        }
      ],
      "name": "Transfer",
      "type": "event"
    },
    {
      "anonymous": false,
      "inputs": [
        {
          "indexed": true,
          "internalType": "address",
          "name": "from",
          "type": "address"
        },
        {
          "indexed": true,
          "internalType": "address",
          "name": "to",
          "type": "address"
        }
      ],
      "name": "TransferEncrypted",
      "type": "event"
    },
    {
      "inputs": [],
      "name": "DOMAIN_SEPARATOR",
      "outputs": [
        {
          "internalType": "bytes32",
          "name": "result",
          "type": "bytes32"
        }
      ],
      "stateMutability": "view",
      "type": "function"
    },
    {
      "inputs": [
        {
          "internalType": "address",
          "name": "owner",
          "type": "address"
        },
        {
          "internalType": "address",
          "name": "spender",
          "type": "address"
        }
      ],
      "name": "allowance",
      "outputs": [
        {
          "internalType": "uint256",
          "name": "result",
          "type": "uint256"
        }
      ],
      "stateMutability": "view",
      "type": "function"
    },
    {
      "inputs": [
        {
          "internalType": "address",
          "name": "spender",
          "type": "address"
        },
        {
          "components": [
            {
              "internalType": "bytes32",
              "name": "publicKey",
              "type": "bytes32"
            },
            {
              "internalType": "bytes",
              "name": "signature",
              "type": "bytes"
            }
          ],
          "internalType": "struct Permission",
          "name": "permission",
          "type": "tuple"
        }
      ],
      "name": "allowanceEncrypted",
      "outputs": [
        {
          "internalType": "string",
          "name": "",
          "type": "string"
        }
      ],
      "stateMutability": "view",
      "type": "function"
    },
    {
      "inputs": [
        {
          "internalType": "address",
          "name": "spender",
          "type": "address"
        },
        {
          "internalType": "uint256",
          "name": "amount",
          "type": "uint256"
        }
      ],
      "name": "approve",
      "outputs": [
        {
          "internalType": "bool",
          "name": "",
          "type": "bool"
        }
      ],
      "stateMutability": "nonpayable",
      "type": "function"
    },
    {
      "inputs": [
        {
          "internalType": "address",
          "name": "spender",
          "type": "address"
        },
        {
          "components": [
            {
              "internalType": "bytes",
              "name": "data",
              "type": "bytes"
            }
          ],
          "internalType": "struct inEuint32",
          "name": "value",
          "type": "tuple"
        }
      ],
      "name": "approveEncrypted",
      "outputs": [
        {
          "internalType": "bool",
          "name": "",
          "type": "bool"
        }
      ],
      "stateMutability": "nonpayable",
      "type": "function"
    },
    {
      "inputs": [
        {
          "internalType": "address",
          "name": "owner",
          "type": "address"
        }
      ],
      "name": "balanceOf",
      "outputs": [
        {
          "internalType": "uint256",
          "name": "result",
          "type": "uint256"
        }
      ],
      "stateMutability": "view",
      "type": "function"
    },
    {
      "inputs": [
        {
          "internalType": "address",
          "name": "account",
          "type": "address"
        },
        {
          "components": [
            {
              "internalType": "bytes32",
              "name": "publicKey",
              "type": "bytes32"
            },
            {
              "internalType": "bytes",
              "name": "signature",
              "type": "bytes"
            }
          ],
          "internalType": "struct Permission",
          "name": "auth",
          "type": "tuple"
        }
      ],
      "name": "balanceOfEncrypted",
      "outputs": [
        {
          "internalType": "string",
          "name": "",
          "type": "string"
        }
      ],
      "stateMutability": "view",
      "type": "function"
    },
    {
      "inputs": [],
      "name": "decimals",
      "outputs": [
        {
          "internalType": "uint8",
          "name": "",
          "type": "uint8"
        }
      ],
      "stateMutability": "pure",
      "type": "function"
    },
    {
      "inputs": [],
      "name": "eip712Domain",
      "outputs": [
        {
          "internalType": "bytes1",
          "name": "fields",
          "type": "bytes1"
        },
        {
          "internalType": "string",
          "name": "name",
          "type": "string"
        },
        {
          "internalType": "string",
          "name": "version",
          "type": "string"
        },
        {
          "internalType": "uint256",
          "name": "chainId",
          "type": "uint256"
        },
        {
          "internalType": "address",
          "name": "verifyingContract",
          "type": "address"
        },
        {
          "internalType": "bytes32",
          "name": "salt",
          "type": "bytes32"
        },
        {
          "internalType": "uint256[]",
          "name": "extensions",
          "type": "uint256[]"
        }
      ],
      "stateMutability": "view",
      "type": "function"
    },
    {
      "inputs": [],
      "name": "name",
      "outputs": [
        {
          "internalType": "string",
          "name": "",
          "type": "string"
        }
      ],
      "stateMutability": "view",
      "type": "function"
    },
    {
      "inputs": [
        {
          "internalType": "address",
          "name": "owner",
          "type": "address"
        }
      ],
      "name": "nonces",
      "outputs": [
        {
          "internalType": "uint256",
          "name": "result",
          "type": "uint256"
        }
      ],
      "stateMutability": "view",
      "type": "function"
    },
    {
      "inputs": [
        {
          "internalType": "address",
          "name": "owner",
          "type": "address"
        },
        {
          "internalType": "address",
          "name": "spender",
          "type": "address"
        },
        {
          "internalType": "uint256",
          "name": "value",
          "type": "uint256"
        },
        {
          "internalType": "uint256",
          "name": "deadline",
          "type": "uint256"
        },
        {
          "internalType": "uint8",
          "name": "v",
          "type": "uint8"
        },
        {
          "internalType": "bytes32",
          "name": "r",
          "type": "bytes32"
        },
        {
          "internalType": "bytes32",
          "name": "s",
          "type": "bytes32"
        }
      ],
      "name": "permit",
      "outputs": [],
      "stateMutability": "nonpayable",
      "type": "function"
    },
    {
      "inputs": [],
      "name": "symbol",
      "outputs": [
        {
          "internalType": "string",
          "name": "",
          "type": "string"
        }
      ],
      "stateMutability": "view",
      "type": "function"
    },
    {
      "inputs": [],
      "name": "totalSupply",
      "outputs": [
        {
          "internalType": "uint256",
          "name": "result",
          "type": "uint256"
        }
      ],
      "stateMutability": "view",
      "type": "function"
    },
    {
      "inputs": [
        {
          "internalType": "address",
          "name": "to",
          "type": "address"
        },
        {
          "internalType": "uint256",
          "name": "amount",
          "type": "uint256"
        }
      ],
      "name": "transfer",
      "outputs": [
        {
          "internalType": "bool",
          "name": "",
          "type": "bool"
        }
      ],
      "stateMutability": "nonpayable",
      "type": "function"
    },
    {
      "inputs": [
        {
          "internalType": "address",
          "name": "to",
          "type": "address"
        },
        {
          "components": [
            {
              "internalType": "bytes",
              "name": "data",
              "type": "bytes"
            }
          ],
          "internalType": "struct inEuint32",
          "name": "encryptedAmount",
          "type": "tuple"
        }
      ],
      "name": "transferEncrypted",
      "outputs": [
        {
          "internalType": "euint32",
          "name": "",
          "type": "uint256"
        }
      ],
      "stateMutability": "nonpayable",
      "type": "function"
    },
    {
      "inputs": [
        {
          "internalType": "address",
          "name": "to",
          "type": "address"
        },
        {
          "internalType": "euint32",
          "name": "amount",
          "type": "uint256"
        }
      ],
      "name": "transferEncrypted",
      "outputs": [
        {
          "internalType": "euint32",
          "name": "",
          "type": "uint256"
        }
      ],
      "stateMutability": "nonpayable",
      "type": "function"
    },
    {
      "inputs": [
        {
          "internalType": "address",
          "name": "from",
          "type": "address"
        },
        {
          "internalType": "address",
          "name": "to",
          "type": "address"
        },
        {
          "internalType": "uint256",
          "name": "amount",
          "type": "uint256"
        }
      ],
      "name": "transferFrom",
      "outputs": [
        {
          "internalType": "bool",
          "name": "",
          "type": "bool"
        }
      ],
      "stateMutability": "nonpayable",
      "type": "function"
    },
    {
      "inputs": [
        {
          "internalType": "address",
          "name": "from",
          "type": "address"
        },
        {
          "internalType": "address",
          "name": "to",
          "type": "address"
        },
        {
          "components": [
            {
              "internalType": "bytes",
              "name": "data",
              "type": "bytes"
            }
          ],
          "internalType": "struct inEuint32",
          "name": "value",
          "type": "tuple"
        }
      ],
      "name": "transferFromEncrypted",
      "outputs": [
        {
          "internalType": "euint32",
          "name": "",
          "type": "uint256"
        }
      ],
      "stateMutability": "nonpayable",
      "type": "function"
    },
    {
      "inputs": [
        {
          "internalType": "address",
          "name": "from",
          "type": "address"
        },
        {
          "internalType": "address",
          "name": "to",
          "type": "address"
        },
        {
          "internalType": "euint32",
          "name": "value",
          "type": "uint256"
        }
      ],
      "name": "transferFromEncrypted",
      "outputs": [
        {
          "internalType": "euint32",
          "name": "",
          "type": "uint256"
        }
      ],
      "stateMutability": "nonpayable",
      "type": "function"
    },
    {
      "inputs": [
        {
          "internalType": "uint32",
          "name": "amount",
          "type": "uint32"
        }
      ],
      "name": "unwrap",
      "outputs": [],
      "stateMutability": "nonpayable",
      "type": "function"
    },
    {
      "inputs": [
        {
          "internalType": "uint32",
          "name": "amount",
          "type": "uint32"
        }
      ],
      "name": "wrap",
      "outputs": [],
      "stateMutability": "nonpayable",
      "type": "function"
    }
  ],
  "transactionHash": "0xb46ddbf87b8099600e6fb4586c24ccd3890cd5c1ba5bc7e507fcd78893dd8c2c",
  "args": [
    {
      "data": {
        "0": 16,
        "1": 8,
        "2": 0,
        "3": 0,
        "4": 0,
        "5": 0,
        "6": 0,
        "7": 0,
        "8": 205,
        "9": 169,
        "10": 89,
        "11": 231,
        "12": 151,
        "13": 125,
        "14": 79,
        "15": 92,
        "16": 1,
        "17": 96,
        "18": 58,
        "19": 103,
        "20": 160,
        "21": 18,
        "22": 86,
        "23": 35,
        "24": 247,
        "25": 101,
        "26": 13,
        "27": 87,
        "28": 251,
        "29": 34,
        "30": 41,
        "31": 240,
        "32": 209,
        "33": 142,
        "34": 186,
        "35": 44,
        "36": 17,
        "37": 236,
        "38": 77,
        "39": 17,
        "40": 122,
        "41": 57,
        "42": 32,
        "43": 88,
        "44": 198,
        "45": 160,
        "46": 43,
        "47": 142,
        "48": 137,
        "49": 29,
        "50": 134,
        "51": 175,
        "52": 177,
        "53": 71,
        "54": 32,
        "55": 12,
        "56": 127,
        "57": 95,
        "58": 18,
        "59": 115,
        "60": 225,
        "61": 143,
        "62": 159,
        "63": 115,
        "64": 27,
        "65": 173,
        "66": 74,
        "67": 111,
        "68": 68,
        "69": 178,
        "70": 46,
        "71": 108,
        "72": 220,
        "73": 22,
        "74": 103,
        "75": 154,
        "76": 221,
        "77": 42,
        "78": 248,
        "79": 72,
        "80": 160,
        "81": 84,
        "82": 105,
        "83": 208,
        "84": 193,
        "85": 12,
        "86": 86,
        "87": 26,
        "88": 146,
        "89": 35,
        "90": 153,
        "91": 177,
        "92": 29,
        "93": 32,
        "94": 117,
        "95": 104,
        "96": 174,
        "97": 121,
        "98": 231,
        "99": 147,
        "100": 62,
        "101": 174,
        "102": 34,
        "103": 58,
        "104": 69,
        "105": 164,
        "106": 249,
        "107": 33,
        "108": 188,
        "109": 244,
        "110": 148,
        "111": 134,
        "112": 176,
        "113": 4,
        "114": 216,
        "115": 129,
        "116": 145,
        "117": 120,
        "118": 103,
        "119": 205,
        "120": 160,
        "121": 196,
        "122": 204,
        "123": 79,
        "124": 178,
        "125": 190,
        "126": 169,
        "127": 185,
        "128": 94,
        "129": 59,
        "130": 243,
        "131": 65,
        "132": 206,
        "133": 241,
        "134": 35,
        "135": 15,
        "136": 184,
        "137": 215,
        "138": 107,
        "139": 81,
        "140": 194,
        "141": 87,
        "142": 145,
        "143": 196,
        "144": 241,
        "145": 169,
        "146": 118,
        "147": 63,
        "148": 159,
        "149": 207,
        "150": 143,
        "151": 5,
        "152": 14,
        "153": 80,
        "154": 182,
        "155": 234,
        "156": 236,
        "157": 34,
        "158": 187,
        "159": 191,
        "160": 8,
        "161": 158,
        "162": 72,
        "163": 40,
        "164": 10,
        "165": 101,
        "166": 134,
        "167": 13,
        "168": 119,
        "169": 100,
        "170": 92,
        "171": 213,
        "172": 75,
        "173": 2,
        "174": 225,
        "175": 145,
        "176": 211,
        "177": 27,
        "178": 86,
        "179": 20,
        "180": 3,
        "181": 28,
        "182": 52,
        "183": 25,
        "184": 112,
        "185": 50,
        "186": 240,
        "187": 90,
        "188": 60,
        "189": 50,
        "190": 193,
        "191": 106,
        "192": 133,
        "193": 23,
        "194": 15,
        "195": 250,
        "196": 31,
        "197": 87,
        "198": 81,
        "199": 144,
        "200": 83,
        "201": 162,
        "202": 53,
        "203": 10,
        "204": 137,
        "205": 217,
        "206": 70,
        "207": 202,
        "208": 218,
        "209": 6,
        "210": 119,
        "211": 180,
        "212": 171,
        "213": 230,
        "214": 86,
        "215": 228,
        "216": 190,
        "217": 16,
        "218": 184,
        "219": 103,
        "220": 168,
        "221": 157,
        "222": 16,
        "223": 162,
        "224": 32,
        "225": 38,
        "226": 229,
        "227": 65,
        "228": 5,
        "229": 242,
        "230": 243,
        "231": 183,
        "232": 117,
        "233": 147,
        "234": 15,
        "235": 127,
        "236": 95,
        "237": 45,
        "238": 182,
        "239": 218,
        "240": 51,
        "241": 136,
        "242": 163,
        "243": 193,
        "244": 15,
        "245": 139,
        "246": 13,
        "247": 4,
        "248": 213,
        "249": 155,
        "250": 2,
        "251": 49,
        "252": 66,
        "253": 253,
        "254": 183,
        "255": 37,
        "256": 45,
        "257": 217,
        "258": 161,
        "259": 174,
        "260": 28,
        "261": 49,
        "262": 110,
        "263": 117,
        "264": 133,
        "265": 150,
        "266": 86,
        "267": 241,
        "268": 144,
        "269": 124,
        "270": 174,
        "271": 215,
        "272": 242,
        "273": 216,
        "274": 33,
        "275": 230,
        "276": 129,
        "277": 238,
        "278": 22,
        "279": 232,
        "280": 52,
        "281": 142,
        "282": 27,
        "283": 200,
        "284": 223,
        "285": 76,
        "286": 45,
        "287": 160,
        "288": 243,
        "289": 178,
        "290": 52,
        "291": 222,
        "292": 82,
        "293": 171,
        "294": 81,
        "295": 230,
        "296": 45,
        "297": 146,
        "298": 147,
        "299": 161,
        "300": 123,
        "301": 14,
        "302": 3,
        "303": 232,
        "304": 75,
        "305": 38,
        "306": 6,
        "307": 226,
        "308": 182,
        "309": 180,
        "310": 24,
        "311": 211,
        "312": 77,
        "313": 197,
        "314": 39,
        "315": 143,
        "316": 72,
        "317": 166,
        "318": 97,
        "319": 123,
        "320": 138,
        "321": 37,
        "322": 239,
        "323": 122,
        "324": 113,
        "325": 57,
        "326": 255,
        "327": 60,
        "328": 111,
        "329": 101,
        "330": 222,
        "331": 193,
        "332": 226,
        "333": 85,
        "334": 138,
        "335": 137,
        "336": 92,
        "337": 131,
        "338": 35,
        "339": 174,
        "340": 53,
        "341": 99,
        "342": 211,
        "343": 223,
        "344": 218,
        "345": 93,
        "346": 120,
        "347": 154,
        "348": 110,
        "349": 155,
        "350": 224,
        "351": 235,
        "352": 246,
        "353": 200,
        "354": 89,
        "355": 23,
        "356": 218,
        "357": 215,
        "358": 198,
        "359": 44,
        "360": 137,
        "361": 49,
        "362": 152,
        "363": 80,
        "364": 143,
        "365": 255,
        "366": 178,
        "367": 171,
        "368": 206,
        "369": 79,
        "370": 62,
        "371": 106,
        "372": 123,
        "373": 111,
        "374": 134,
        "375": 190,
        "376": 166,
        "377": 176,
        "378": 27,
        "379": 41,
        "380": 183,
        "381": 225,
        "382": 186,
        "383": 58,
        "384": 86,
        "385": 105,
        "386": 216,
        "387": 104,
        "388": 165,
        "389": 234,
        "390": 105,
        "391": 222,
        "392": 229,
        "393": 156,
        "394": 144,
        "395": 167,
        "396": 188,
        "397": 129,
        "398": 107,
        "399": 203,
        "400": 254,
        "401": 15,
        "402": 210,
        "403": 14,
        "404": 29,
        "405": 216,
        "406": 99,
        "407": 247,
        "408": 215,
        "409": 252,
        "410": 234,
        "411": 229,
        "412": 253,
        "413": 177,
        "414": 174,
        "415": 221,
        "416": 94,
        "417": 164,
        "418": 178,
        "419": 14,
        "420": 197,
        "421": 255,
        "422": 102,
        "423": 131,
        "424": 196,
        "425": 226,
        "426": 236,
        "427": 25,
        "428": 237,
        "429": 145,
        "430": 75,
        "431": 46,
        "432": 48,
        "433": 87,
        "434": 196,
        "435": 247,
        "436": 173,
        "437": 209,
        "438": 240,
        "439": 214,
        "440": 212,
        "441": 64,
        "442": 87,
        "443": 25,
        "444": 130,
        "445": 126,
        "446": 64,
        "447": 13,
        "448": 76,
        "449": 15,
        "450": 124,
        "451": 35,
        "452": 24,
        "453": 24,
        "454": 209,
        "455": 205,
        "456": 200,
        "457": 141,
        "458": 125,
        "459": 202,
        "460": 65,
        "461": 39,
        "462": 19,
        "463": 84,
        "464": 42,
        "465": 115,
        "466": 175,
        "467": 240,
        "468": 225,
        "469": 119,
        "470": 49,
        "471": 88,
        "472": 146,
        "473": 135,
        "474": 82,
        "475": 96,
        "476": 46,
        "477": 253,
        "478": 73,
        "479": 86,
        "480": 45,
        "481": 203,
        "482": 172,
        "483": 122,
        "484": 136,
        "485": 93,
        "486": 57,
        "487": 108,
        "488": 197,
        "489": 5,
        "490": 16,
        "491": 183,
        "492": 168,
        "493": 140,
        "494": 53,
        "495": 93,
        "496": 152,
        "497": 255,
        "498": 250,
        "499": 96,
        "500": 163,
        "501": 24,
        "502": 137,
        "503": 93,
        "504": 12,
        "505": 203,
        "506": 3,
        "507": 201,
        "508": 231,
        "509": 92,
        "510": 133,
        "511": 24,
        "512": 42,
        "513": 29,
        "514": 178,
        "515": 236,
        "516": 63,
        "517": 215,
        "518": 78,
        "519": 221,
        "520": 25,
        "521": 83,
        "522": 85,
        "523": 150,
        "524": 123,
        "525": 133,
        "526": 121,
        "527": 195,
        "528": 186,
        "529": 42,
        "530": 227,
        "531": 6,
        "532": 145,
        "533": 152,
        "534": 227,
        "535": 30,
        "536": 206,
        "537": 217,
        "538": 177,
        "539": 201,
        "540": 30,
        "541": 169,
        "542": 67,
        "543": 175,
        "544": 28,
        "545": 89,
        "546": 218,
        "547": 30,
        "548": 194,
        "549": 20,
        "550": 186,
        "551": 39,
        "552": 252,
        "553": 196,
        "554": 125,
        "555": 188,
        "556": 207,
        "557": 240,
        "558": 182,
        "559": 132,
        "560": 206,
        "561": 115,
        "562": 38,
        "563": 36,
        "564": 141,
        "565": 124,
        "566": 237,
        "567": 143,
        "568": 165,
        "569": 63,
        "570": 4,
        "571": 12,
        "572": 100,
        "573": 236,
        "574": 71,
        "575": 183,
        "576": 123,
        "577": 162,
        "578": 146,
        "579": 145,
        "580": 213,
        "581": 133,
        "582": 150,
        "583": 57,
        "584": 236,
        "585": 166,
        "586": 154,
        "587": 76,
        "588": 223,
        "589": 65,
        "590": 196,
        "591": 61,
        "592": 216,
        "593": 89,
        "594": 130,
        "595": 12,
        "596": 148,
        "597": 168,
        "598": 218,
        "599": 223,
        "600": 158,
        "601": 44,
        "602": 139,
        "603": 111,
        "604": 175,
        "605": 192,
        "606": 254,
        "607": 111,
        "608": 145,
        "609": 235,
        "610": 116,
        "611": 175,
        "612": 197,
        "613": 82,
        "614": 218,
        "615": 150,
        "616": 33,
        "617": 94,
        "618": 244,
        "619": 147,
        "620": 121,
        "621": 24,
        "622": 222,
        "623": 237,
        "624": 172,
        "625": 211,
        "626": 120,
        "627": 244,
        "628": 68,
        "629": 153,
        "630": 110,
        "631": 76,
        "632": 36,
        "633": 6,
        "634": 68,
        "635": 13,
        "636": 21,
        "637": 244,
        "638": 64,
        "639": 174,
        "640": 141,
        "641": 238,
        "642": 56,
        "643": 143,
        "644": 6,
        "645": 5,
        "646": 145,
        "647": 211,
        "648": 241,
        "649": 121,
        "650": 240,
        "651": 141,
        "652": 65,
        "653": 155,
        "654": 191,
        "655": 26,
        "656": 207,
        "657": 62,
        "658": 83,
        "659": 191,
        "660": 180,
        "661": 93,
        "662": 171,
        "663": 151,
        "664": 12,
        "665": 237,
        "666": 88,
        "667": 63,
        "668": 6,
        "669": 62,
        "670": 250,
        "671": 7,
        "672": 95,
        "673": 163,
        "674": 95,
        "675": 103,
        "676": 93,
        "677": 110,
        "678": 249,
        "679": 215,
        "680": 206,
        "681": 81,
        "682": 178,
        "683": 71,
        "684": 102,
        "685": 178,
        "686": 238,
        "687": 245,
        "688": 9,
        "689": 240,
        "690": 68,
        "691": 188,
        "692": 62,
        "693": 158,
        "694": 9,
        "695": 99,
        "696": 84,
        "697": 229,
        "698": 155,
        "699": 139,
        "700": 100,
        "701": 117,
        "702": 128,
        "703": 115,
        "704": 39,
        "705": 194,
        "706": 27,
        "707": 54,
        "708": 35,
        "709": 40,
        "710": 205,
        "711": 2,
        "712": 100,
        "713": 196,
        "714": 240,
        "715": 229,
        "716": 71,
        "717": 137,
        "718": 0,
        "719": 100,
        "720": 38,
        "721": 34,
        "722": 220,
        "723": 30,
        "724": 102,
        "725": 133,
        "726": 214,
        "727": 255,
        "728": 32,
        "729": 68,
        "730": 94,
        "731": 247,
        "732": 245,
        "733": 120,
        "734": 64,
        "735": 167,
        "736": 194,
        "737": 127,
        "738": 242,
        "739": 95,
        "740": 61,
        "741": 86,
        "742": 27,
        "743": 125,
        "744": 34,
        "745": 254,
        "746": 131,
        "747": 198,
        "748": 127,
        "749": 48,
        "750": 207,
        "751": 252,
        "752": 144,
        "753": 76,
        "754": 54,
        "755": 83,
        "756": 113,
        "757": 31,
        "758": 47,
        "759": 105,
        "760": 248,
        "761": 34,
        "762": 159,
        "763": 197,
        "764": 175,
        "765": 131,
        "766": 87,
        "767": 32,
        "768": 67,
        "769": 193,
        "770": 162,
        "771": 101,
        "772": 151,
        "773": 44,
        "774": 124,
        "775": 113,
        "776": 194,
        "777": 158,
        "778": 2,
        "779": 14,
        "780": 198,
        "781": 138,
        "782": 223,
        "783": 252,
        "784": 67,
        "785": 241,
        "786": 163,
        "787": 86,
        "788": 49,
        "789": 40,
        "790": 204,
        "791": 169,
        "792": 131,
        "793": 157,
        "794": 92,
        "795": 118,
        "796": 206,
        "797": 146,
        "798": 211,
        "799": 108,
        "800": 122,
        "801": 6,
        "802": 242,
        "803": 23,
        "804": 162,
        "805": 173,
        "806": 204,
        "807": 69,
        "808": 129,
        "809": 87,
        "810": 66,
        "811": 210,
        "812": 121,
        "813": 148,
        "814": 52,
        "815": 45,
        "816": 87,
        "817": 98,
        "818": 129,
        "819": 252,
        "820": 187,
        "821": 99,
        "822": 137,
        "823": 143,
        "824": 148,
        "825": 109,
        "826": 161,
        "827": 162,
        "828": 83,
        "829": 201,
        "830": 232,
        "831": 36,
        "832": 239,
        "833": 124,
        "834": 64,
        "835": 95,
        "836": 41,
        "837": 132,
        "838": 206,
        "839": 201,
        "840": 61,
        "841": 149,
        "842": 47,
        "843": 216,
        "844": 80,
        "845": 216,
        "846": 160,
        "847": 253,
        "848": 67,
        "849": 106,
        "850": 108,
        "851": 33,
        "852": 17,
        "853": 229,
        "854": 208,
        "855": 46,
        "856": 52,
        "857": 144,
        "858": 242,
        "859": 47,
        "860": 115,
        "861": 33,
        "862": 230,
        "863": 51,
        "864": 73,
        "865": 38,
        "866": 10,
        "867": 233,
        "868": 169,
        "869": 81,
        "870": 101,
        "871": 110,
        "872": 116,
        "873": 73,
        "874": 203,
        "875": 213,
        "876": 224,
        "877": 134,
        "878": 138,
        "879": 149,
        "880": 178,
        "881": 11,
        "882": 151,
        "883": 193,
        "884": 99,
        "885": 145,
        "886": 124,
        "887": 29,
        "888": 237,
        "889": 140,
        "890": 157,
        "891": 157,
        "892": 166,
        "893": 218,
        "894": 180,
        "895": 165,
        "896": 31,
        "897": 14,
        "898": 22,
        "899": 235,
        "900": 25,
        "901": 133,
        "902": 184,
        "903": 206,
        "904": 39,
        "905": 16,
        "906": 209,
        "907": 139,
        "908": 233,
        "909": 212,
        "910": 165,
        "911": 119,
        "912": 228,
        "913": 185,
        "914": 65,
        "915": 76,
        "916": 33,
        "917": 57,
        "918": 55,
        "919": 49,
        "920": 211,
        "921": 212,
        "922": 69,
        "923": 103,
        "924": 176,
        "925": 72,
        "926": 84,
        "927": 43,
        "928": 74,
        "929": 23,
        "930": 240,
        "931": 25,
        "932": 153,
        "933": 84,
        "934": 52,
        "935": 156,
        "936": 219,
        "937": 48,
        "938": 247,
        "939": 81,
        "940": 63,
        "941": 169,
        "942": 168,
        "943": 57,
        "944": 183,
        "945": 105,
        "946": 160,
        "947": 121,
        "948": 191,
        "949": 189,
        "950": 10,
        "951": 202,
        "952": 141,
        "953": 154,
        "954": 38,
        "955": 213,
        "956": 99,
        "957": 135,
        "958": 245,
        "959": 253,
        "960": 229,
        "961": 140,
        "962": 252,
        "963": 207,
        "964": 115,
        "965": 186,
        "966": 107,
        "967": 6,
        "968": 65,
        "969": 23,
        "970": 206,
        "971": 64,
        "972": 251,
        "973": 148,
        "974": 248,
        "975": 24,
        "976": 30,
        "977": 83,
        "978": 96,
        "979": 166,
        "980": 85,
        "981": 200,
        "982": 23,
        "983": 28,
        "984": 47,
        "985": 92,
        "986": 255,
        "987": 45,
        "988": 37,
        "989": 68,
        "990": 20,
        "991": 145,
        "992": 93,
        "993": 244,
        "994": 184,
        "995": 255,
        "996": 227,
        "997": 180,
        "998": 6,
        "999": 127,
        "1000": 141,
        "1001": 164,
        "1002": 195,
        "1003": 222,
        "1004": 60,
        "1005": 227,
        "1006": 219,
        "1007": 109,
        "1008": 179,
        "1009": 225,
        "1010": 21,
        "1011": 203,
        "1012": 1,
        "1013": 233,
        "1014": 25,
        "1015": 112,
        "1016": 141,
        "1017": 26,
        "1018": 173,
        "1019": 187,
        "1020": 35,
        "1021": 130,
        "1022": 249,
        "1023": 57,
        "1024": 48,
        "1025": 172,
        "1026": 43,
        "1027": 106,
        "1028": 32,
        "1029": 48,
        "1030": 246,
        "1031": 210,
        "1032": 180,
        "1033": 38,
        "1034": 137,
        "1035": 140,
        "1036": 165,
        "1037": 115,
        "1038": 166,
        "1039": 30,
        "1040": 166,
        "1041": 26,
        "1042": 253,
        "1043": 181,
        "1044": 140,
        "1045": 78,
        "1046": 117,
        "1047": 132,
        "1048": 249,
        "1049": 195,
        "1050": 151,
        "1051": 77,
        "1052": 16,
        "1053": 150,
        "1054": 103,
        "1055": 15,
        "1056": 45,
        "1057": 141,
        "1058": 218,
        "1059": 151,
        "1060": 86,
        "1061": 230,
        "1062": 219,
        "1063": 142,
        "1064": 192,
        "1065": 253,
        "1066": 82,
        "1067": 200,
        "1068": 250,
        "1069": 78,
        "1070": 86,
        "1071": 140,
        "1072": 131,
        "1073": 68,
        "1074": 132,
        "1075": 128,
        "1076": 234,
        "1077": 143,
        "1078": 112,
        "1079": 131,
        "1080": 166,
        "1081": 182,
        "1082": 53,
        "1083": 159,
        "1084": 117,
        "1085": 132,
        "1086": 218,
        "1087": 38,
        "1088": 146,
        "1089": 182,
        "1090": 43,
        "1091": 91,
        "1092": 245,
        "1093": 65,
        "1094": 211,
        "1095": 65,
        "1096": 29,
        "1097": 31,
        "1098": 241,
        "1099": 119,
        "1100": 90,
        "1101": 165,
        "1102": 188,
        "1103": 119,
        "1104": 144,
        "1105": 32,
        "1106": 101,
        "1107": 47,
        "1108": 200,
        "1109": 88,
        "1110": 142,
        "1111": 41,
        "1112": 65,
        "1113": 185,
        "1114": 68,
        "1115": 250,
        "1116": 91,
        "1117": 231,
        "1118": 190,
        "1119": 72,
        "1120": 153,
        "1121": 181,
        "1122": 183,
        "1123": 48,
        "1124": 158,
        "1125": 12,
        "1126": 213,
        "1127": 81,
        "1128": 71,
        "1129": 79,
        "1130": 149,
        "1131": 125,
        "1132": 8,
        "1133": 25,
        "1134": 75,
        "1135": 239,
        "1136": 3,
        "1137": 184,
        "1138": 204,
        "1139": 228,
        "1140": 57,
        "1141": 158,
        "1142": 21,
        "1143": 245,
        "1144": 19,
        "1145": 63,
        "1146": 117,
        "1147": 12,
        "1148": 59,
        "1149": 119,
        "1150": 120,
        "1151": 179,
        "1152": 182,
        "1153": 21,
        "1154": 22,
        "1155": 229,
        "1156": 181,
        "1157": 74,
        "1158": 33,
        "1159": 5,
        "1160": 98,
        "1161": 127,
        "1162": 27,
        "1163": 75,
        "1164": 53,
        "1165": 217,
        "1166": 104,
        "1167": 124,
        "1168": 183,
        "1169": 154,
        "1170": 3,
        "1171": 218,
        "1172": 187,
        "1173": 187,
        "1174": 108,
        "1175": 85,
        "1176": 144,
        "1177": 227,
        "1178": 93,
        "1179": 164,
        "1180": 242,
        "1181": 208,
        "1182": 146,
        "1183": 204,
        "1184": 119,
        "1185": 84,
        "1186": 186,
        "1187": 119,
        "1188": 16,
        "1189": 121,
        "1190": 5,
        "1191": 147,
        "1192": 139,
        "1193": 200,
        "1194": 69,
        "1195": 222,
        "1196": 158,
        "1197": 197,
        "1198": 101,
        "1199": 60,
        "1200": 60,
        "1201": 151,
        "1202": 23,
        "1203": 39,
        "1204": 233,
        "1205": 153,
        "1206": 63,
        "1207": 168,
        "1208": 227,
        "1209": 64,
        "1210": 250,
        "1211": 22,
        "1212": 146,
        "1213": 226,
        "1214": 211,
        "1215": 35,
        "1216": 61,
        "1217": 147,
        "1218": 82,
        "1219": 151,
        "1220": 57,
        "1221": 92,
        "1222": 203,
        "1223": 46,
        "1224": 10,
        "1225": 75,
        "1226": 135,
        "1227": 105,
        "1228": 187,
        "1229": 95,
        "1230": 146,
        "1231": 31,
        "1232": 172,
        "1233": 179,
        "1234": 109,
        "1235": 216,
        "1236": 104,
        "1237": 190,
        "1238": 135,
        "1239": 199,
        "1240": 86,
        "1241": 100,
        "1242": 215,
        "1243": 59,
        "1244": 42,
        "1245": 110,
        "1246": 105,
        "1247": 143,
        "1248": 199,
        "1249": 227,
        "1250": 232,
        "1251": 193,
        "1252": 149,
        "1253": 176,
        "1254": 254,
        "1255": 179,
        "1256": 70,
        "1257": 193,
        "1258": 192,
        "1259": 114,
        "1260": 192,
        "1261": 112,
        "1262": 47,
        "1263": 75,
        "1264": 108,
        "1265": 135,
        "1266": 234,
        "1267": 174,
        "1268": 161,
        "1269": 230,
        "1270": 77,
        "1271": 177,
        "1272": 38,
        "1273": 197,
        "1274": 95,
        "1275": 53,
        "1276": 136,
        "1277": 119,
        "1278": 69,
        "1279": 133,
        "1280": 83,
        "1281": 72,
        "1282": 152,
        "1283": 5,
        "1284": 85,
        "1285": 131,
        "1286": 50,
        "1287": 65,
        "1288": 66,
        "1289": 28,
        "1290": 159,
        "1291": 183,
        "1292": 175,
        "1293": 94,
        "1294": 138,
        "1295": 203,
        "1296": 151,
        "1297": 65,
        "1298": 60,
        "1299": 207,
        "1300": 177,
        "1301": 192,
        "1302": 244,
        "1303": 253,
        "1304": 224,
        "1305": 214,
        "1306": 255,
        "1307": 243,
        "1308": 17,
        "1309": 32,
        "1310": 8,
        "1311": 65,
        "1312": 35,
        "1313": 177,
        "1314": 72,
        "1315": 68,
        "1316": 218,
        "1317": 151,
        "1318": 9,
        "1319": 179,
        "1320": 177,
        "1321": 31,
        "1322": 26,
        "1323": 214,
        "1324": 65,
        "1325": 12,
        "1326": 110,
        "1327": 205,
        "1328": 60,
        "1329": 43,
        "1330": 91,
        "1331": 241,
        "1332": 45,
        "1333": 2,
        "1334": 112,
        "1335": 60,
        "1336": 249,
        "1337": 98,
        "1338": 207,
        "1339": 207,
        "1340": 55,
        "1341": 7,
        "1342": 108,
        "1343": 124,
        "1344": 92,
        "1345": 148,
        "1346": 158,
        "1347": 143,
        "1348": 185,
        "1349": 127,
        "1350": 214,
        "1351": 14,
        "1352": 139,
        "1353": 118,
        "1354": 32,
        "1355": 195,
        "1356": 21,
        "1357": 187,
        "1358": 11,
        "1359": 249,
        "1360": 40,
        "1361": 80,
        "1362": 70,
        "1363": 66,
        "1364": 156,
        "1365": 1,
        "1366": 149,
        "1367": 226,
        "1368": 20,
        "1369": 34,
        "1370": 206,
        "1371": 49,
        "1372": 198,
        "1373": 49,
        "1374": 233,
        "1375": 247,
        "1376": 77,
        "1377": 254,
        "1378": 164,
        "1379": 65,
        "1380": 231,
        "1381": 23,
        "1382": 96,
        "1383": 154,
        "1384": 155,
        "1385": 23,
        "1386": 219,
        "1387": 107,
        "1388": 33,
        "1389": 47,
        "1390": 12,
        "1391": 66,
        "1392": 190,
        "1393": 29,
        "1394": 244,
        "1395": 172,
        "1396": 206,
        "1397": 213,
        "1398": 220,
        "1399": 92,
        "1400": 62,
        "1401": 109,
        "1402": 225,
        "1403": 41,
        "1404": 206,
        "1405": 22,
        "1406": 207,
        "1407": 41,
        "1408": 156,
        "1409": 112,
        "1410": 252,
        "1411": 73,
        "1412": 97,
        "1413": 83,
        "1414": 77,
        "1415": 254,
        "1416": 94,
        "1417": 182,
        "1418": 9,
        "1419": 229,
        "1420": 163,
        "1421": 59,
        "1422": 216,
        "1423": 21,
        "1424": 185,
        "1425": 190,
        "1426": 222,
        "1427": 91,
        "1428": 224,
        "1429": 224,
        "1430": 112,
        "1431": 120,
        "1432": 241,
        "1433": 216,
        "1434": 254,
        "1435": 123,
        "1436": 142,
        "1437": 61,
        "1438": 151,
        "1439": 119,
        "1440": 209,
        "1441": 205,
        "1442": 54,
        "1443": 140,
        "1444": 1,
        "1445": 11,
        "1446": 43,
        "1447": 185,
        "1448": 116,
        "1449": 227,
        "1450": 193,
        "1451": 15,
        "1452": 209,
        "1453": 79,
        "1454": 214,
        "1455": 230,
        "1456": 18,
        "1457": 157,
        "1458": 193,
        "1459": 66,
        "1460": 196,
        "1461": 26,
        "1462": 118,
        "1463": 120,
        "1464": 142,
        "1465": 67,
        "1466": 49,
        "1467": 109,
        "1468": 145,
        "1469": 205,
        "1470": 227,
        "1471": 110,
        "1472": 169,
        "1473": 222,
        "1474": 121,
        "1475": 200,
        "1476": 228,
        "1477": 60,
        "1478": 124,
        "1479": 144,
        "1480": 230,
        "1481": 89,
        "1482": 192,
        "1483": 156,
        "1484": 229,
        "1485": 57,
        "1486": 130,
        "1487": 75,
        "1488": 146,
        "1489": 169,
        "1490": 218,
        "1491": 189,
        "1492": 42,
        "1493": 27,
        "1494": 216,
        "1495": 173,
        "1496": 189,
        "1497": 107,
        "1498": 26,
        "1499": 69,
        "1500": 111,
        "1501": 47,
        "1502": 48,
        "1503": 132,
        "1504": 231,
        "1505": 6,
        "1506": 27,
        "1507": 135,
        "1508": 137,
        "1509": 160,
        "1510": 201,
        "1511": 112,
        "1512": 234,
        "1513": 181,
        "1514": 222,
        "1515": 118,
        "1516": 118,
        "1517": 153,
        "1518": 240,
        "1519": 3,
        "1520": 131,
        "1521": 191,
        "1522": 196,
        "1523": 3,
        "1524": 21,
        "1525": 95,
        "1526": 241,
        "1527": 249,
        "1528": 236,
        "1529": 148,
        "1530": 158,
        "1531": 237,
        "1532": 235,
        "1533": 63,
        "1534": 100,
        "1535": 40,
        "1536": 113,
        "1537": 117,
        "1538": 58,
        "1539": 38,
        "1540": 21,
        "1541": 185,
        "1542": 173,
        "1543": 171,
        "1544": 240,
        "1545": 229,
        "1546": 247,
        "1547": 56,
        "1548": 102,
        "1549": 27,
        "1550": 193,
        "1551": 59,
        "1552": 51,
        "1553": 205,
        "1554": 194,
        "1555": 65,
        "1556": 67,
        "1557": 240,
        "1558": 125,
        "1559": 247,
        "1560": 137,
        "1561": 155,
        "1562": 100,
        "1563": 185,
        "1564": 61,
        "1565": 127,
        "1566": 28,
        "1567": 248,
        "1568": 151,
        "1569": 229,
        "1570": 59,
        "1571": 209,
        "1572": 215,
        "1573": 253,
        "1574": 140,
        "1575": 46,
        "1576": 239,
        "1577": 36,
        "1578": 157,
        "1579": 175,
        "1580": 201,
        "1581": 44,
        "1582": 211,
        "1583": 174,
        "1584": 28,
        "1585": 65,
        "1586": 172,
        "1587": 78,
        "1588": 214,
        "1589": 80,
        "1590": 113,
        "1591": 74,
        "1592": 128,
        "1593": 94,
        "1594": 39,
        "1595": 129,
        "1596": 166,
        "1597": 243,
        "1598": 245,
        "1599": 168,
        "1600": 251,
        "1601": 248,
        "1602": 244,
        "1603": 205,
        "1604": 16,
        "1605": 107,
        "1606": 37,
        "1607": 50,
        "1608": 85,
        "1609": 224,
        "1610": 134,
        "1611": 114,
        "1612": 71,
        "1613": 204,
        "1614": 200,
        "1615": 252,
        "1616": 209,
        "1617": 127,
        "1618": 207,
        "1619": 157,
        "1620": 176,
        "1621": 136,
        "1622": 249,
        "1623": 34,
        "1624": 219,
        "1625": 47,
        "1626": 52,
        "1627": 119,
        "1628": 250,
        "1629": 164,
        "1630": 16,
        "1631": 105,
        "1632": 33,
        "1633": 252,
        "1634": 242,
        "1635": 182,
        "1636": 123,
        "1637": 71,
        "1638": 115,
        "1639": 250,
        "1640": 220,
        "1641": 6,
        "1642": 163,
        "1643": 219,
        "1644": 166,
        "1645": 136,
        "1646": 160,
        "1647": 115,
        "1648": 34,
        "1649": 23,
        "1650": 72,
        "1651": 10,
        "1652": 253,
        "1653": 165,
        "1654": 183,
        "1655": 87,
        "1656": 206,
        "1657": 190,
        "1658": 130,
        "1659": 105,
        "1660": 2,
        "1661": 120,
        "1662": 128,
        "1663": 157,
        "1664": 52,
        "1665": 19,
        "1666": 95,
        "1667": 115,
        "1668": 103,
        "1669": 97,
        "1670": 79,
        "1671": 64,
        "1672": 75,
        "1673": 89,
        "1674": 186,
        "1675": 123,
        "1676": 52,
        "1677": 10,
        "1678": 123,
        "1679": 242,
        "1680": 84,
        "1681": 243,
        "1682": 119,
        "1683": 242,
        "1684": 187,
        "1685": 70,
        "1686": 148,
        "1687": 28,
        "1688": 193,
        "1689": 56,
        "1690": 125,
        "1691": 243,
        "1692": 239,
        "1693": 155,
        "1694": 198,
        "1695": 195,
        "1696": 168,
        "1697": 116,
        "1698": 80,
        "1699": 5,
        "1700": 232,
        "1701": 8,
        "1702": 7,
        "1703": 29,
        "1704": 106,
        "1705": 202,
        "1706": 49,
        "1707": 44,
        "1708": 153,
        "1709": 218,
        "1710": 64,
        "1711": 119,
        "1712": 255,
        "1713": 224,
        "1714": 89,
        "1715": 93,
        "1716": 205,
        "1717": 178,
        "1718": 99,
        "1719": 159,
        "1720": 116,
        "1721": 29,
        "1722": 40,
        "1723": 193,
        "1724": 156,
        "1725": 113,
        "1726": 39,
        "1727": 11,
        "1728": 134,
        "1729": 242,
        "1730": 60,
        "1731": 118,
        "1732": 168,
        "1733": 181,
        "1734": 94,
        "1735": 211,
        "1736": 182,
        "1737": 156,
        "1738": 49,
        "1739": 134,
        "1740": 175,
        "1741": 84,
        "1742": 89,
        "1743": 187,
        "1744": 18,
        "1745": 145,
        "1746": 123,
        "1747": 23,
        "1748": 90,
        "1749": 212,
        "1750": 131,
        "1751": 222,
        "1752": 113,
        "1753": 83,
        "1754": 183,
        "1755": 107,
        "1756": 40,
        "1757": 6,
        "1758": 218,
        "1759": 22,
        "1760": 253,
        "1761": 235,
        "1762": 193,
        "1763": 233,
        "1764": 92,
        "1765": 3,
        "1766": 171,
        "1767": 12,
        "1768": 132,
        "1769": 127,
        "1770": 236,
        "1771": 241,
        "1772": 180,
        "1773": 61,
        "1774": 114,
        "1775": 3,
        "1776": 38,
        "1777": 102,
        "1778": 124,
        "1779": 223,
        "1780": 241,
        "1781": 29,
        "1782": 137,
        "1783": 98,
        "1784": 100,
        "1785": 147,
        "1786": 196,
        "1787": 85,
        "1788": 21,
        "1789": 174,
        "1790": 13,
        "1791": 75,
        "1792": 99,
        "1793": 65,
        "1794": 81,
        "1795": 95,
        "1796": 1,
        "1797": 12,
        "1798": 11,
        "1799": 237,
        "1800": 213,
        "1801": 56,
        "1802": 165,
        "1803": 36,
        "1804": 132,
        "1805": 92,
        "1806": 174,
        "1807": 116,
        "1808": 77,
        "1809": 214,
        "1810": 37,
        "1811": 249,
        "1812": 10,
        "1813": 9,
        "1814": 118,
        "1815": 192,
        "1816": 60,
        "1817": 194,
        "1818": 35,
        "1819": 114,
        "1820": 178,
        "1821": 61,
        "1822": 65,
        "1823": 202,
        "1824": 139,
        "1825": 81,
        "1826": 152,
        "1827": 111,
        "1828": 118,
        "1829": 240,
        "1830": 165,
        "1831": 156,
        "1832": 215,
        "1833": 102,
        "1834": 123,
        "1835": 110,
        "1836": 37,
        "1837": 191,
        "1838": 230,
        "1839": 3,
        "1840": 247,
        "1841": 127,
        "1842": 8,
        "1843": 23,
        "1844": 9,
        "1845": 98,
        "1846": 104,
        "1847": 230,
        "1848": 47,
        "1849": 27,
        "1850": 96,
        "1851": 208,
        "1852": 77,
        "1853": 126,
        "1854": 253,
        "1855": 253,
        "1856": 58,
        "1857": 18,
        "1858": 166,
        "1859": 219,
        "1860": 176,
        "1861": 3,
        "1862": 219,
        "1863": 242,
        "1864": 163,
        "1865": 208,
        "1866": 49,
        "1867": 95,
        "1868": 198,
        "1869": 19,
        "1870": 241,
        "1871": 46,
        "1872": 121,
        "1873": 35,
        "1874": 113,
        "1875": 228,
        "1876": 59,
        "1877": 127,
        "1878": 113,
        "1879": 36,
        "1880": 27,
        "1881": 51,
        "1882": 242,
        "1883": 211,
        "1884": 66,
        "1885": 50,
        "1886": 22,
        "1887": 54,
        "1888": 214,
        "1889": 28,
        "1890": 30,
        "1891": 155,
        "1892": 157,
        "1893": 120,
        "1894": 64,
        "1895": 92,
        "1896": 105,
        "1897": 10,
        "1898": 123,
        "1899": 143,
        "1900": 31,
        "1901": 2,
        "1902": 16,
        "1903": 12,
        "1904": 192,
        "1905": 125,
        "1906": 203,
        "1907": 155,
        "1908": 140,
        "1909": 19,
        "1910": 96,
        "1911": 115,
        "1912": 148,
        "1913": 112,
        "1914": 184,
        "1915": 63,
        "1916": 194,
        "1917": 184,
        "1918": 100,
        "1919": 129,
        "1920": 115,
        "1921": 45,
        "1922": 222,
        "1923": 16,
        "1924": 61,
        "1925": 150,
        "1926": 102,
        "1927": 195,
        "1928": 22,
        "1929": 214,
        "1930": 85,
        "1931": 5,
        "1932": 197,
        "1933": 132,
        "1934": 177,
        "1935": 158,
        "1936": 214,
        "1937": 55,
        "1938": 219,
        "1939": 168,
        "1940": 86,
        "1941": 115,
        "1942": 108,
        "1943": 236,
        "1944": 117,
        "1945": 123,
        "1946": 142,
        "1947": 182,
        "1948": 39,
        "1949": 140,
        "1950": 81,
        "1951": 110,
        "1952": 132,
        "1953": 178,
        "1954": 123,
        "1955": 118,
        "1956": 55,
        "1957": 122,
        "1958": 161,
        "1959": 21,
        "1960": 202,
        "1961": 85,
        "1962": 152,
        "1963": 3,
        "1964": 240,
        "1965": 153,
        "1966": 86,
        "1967": 133,
        "1968": 78,
        "1969": 125,
        "1970": 241,
        "1971": 43,
        "1972": 110,
        "1973": 228,
        "1974": 200,
        "1975": 103,
        "1976": 69,
        "1977": 36,
        "1978": 224,
        "1979": 22,
        "1980": 73,
        "1981": 98,
        "1982": 196,
        "1983": 246,
        "1984": 56,
        "1985": 92,
        "1986": 89,
        "1987": 178,
        "1988": 147,
        "1989": 209,
        "1990": 240,
        "1991": 216,
        "1992": 106,
        "1993": 109,
        "1994": 196,
        "1995": 183,
        "1996": 187,
        "1997": 243,
        "1998": 17,
        "1999": 25,
        "2000": 7,
        "2001": 29,
        "2002": 29,
        "2003": 113,
        "2004": 220,
        "2005": 169,
        "2006": 87,
        "2007": 227,
        "2008": 48,
        "2009": 110,
        "2010": 209,
        "2011": 19,
        "2012": 36,
        "2013": 77,
        "2014": 163,
        "2015": 231,
        "2016": 108,
        "2017": 255,
        "2018": 118,
        "2019": 131,
        "2020": 229,
        "2021": 230,
        "2022": 91,
        "2023": 2,
        "2024": 182,
        "2025": 220,
        "2026": 163,
        "2027": 82,
        "2028": 69,
        "2029": 202,
        "2030": 135,
        "2031": 24,
        "2032": 118,
        "2033": 15,
        "2034": 189,
        "2035": 163,
        "2036": 189,
        "2037": 198,
        "2038": 88,
        "2039": 6,
        "2040": 219,
        "2041": 153,
        "2042": 143,
        "2043": 4,
        "2044": 157,
        "2045": 181,
        "2046": 102,
        "2047": 123,
        "2048": 177,
        "2049": 105,
        "2050": 148,
        "2051": 94,
        "2052": 16,
        "2053": 81,
        "2054": 225,
        "2055": 23,
        "2056": 22,
        "2057": 30,
        "2058": 155,
        "2059": 72,
        "2060": 233,
        "2061": 223,
        "2062": 81,
        "2063": 212,
        "2064": 90,
        "2065": 1,
        "2066": 177,
        "2067": 222,
        "2068": 14,
        "2069": 151,
        "2070": 166,
        "2071": 150,
        "2072": 213,
        "2073": 27,
        "2074": 187,
        "2075": 136,
        "2076": 171,
        "2077": 218,
        "2078": 235,
        "2079": 16,
        "2080": 130,
        "2081": 215,
        "2082": 232,
        "2083": 33,
        "2084": 33,
        "2085": 56,
        "2086": 195,
        "2087": 34,
        "2088": 122,
        "2089": 166,
        "2090": 120,
        "2091": 58,
        "2092": 15,
        "2093": 67,
        "2094": 135,
        "2095": 97,
        "2096": 208,
        "2097": 198,
        "2098": 204,
        "2099": 134,
        "2100": 106,
        "2101": 45,
        "2102": 194,
        "2103": 191,
        "2104": 102,
        "2105": 97,
        "2106": 110,
        "2107": 113,
        "2108": 202,
        "2109": 235,
        "2110": 234,
        "2111": 246,
        "2112": 179,
        "2113": 174,
        "2114": 66,
        "2115": 136,
        "2116": 171,
        "2117": 163,
        "2118": 183,
        "2119": 249,
        "2120": 2,
        "2121": 196,
        "2122": 63,
        "2123": 71,
        "2124": 30,
        "2125": 187,
        "2126": 10,
        "2127": 155,
        "2128": 149,
        "2129": 126,
        "2130": 199,
        "2131": 75,
        "2132": 164,
        "2133": 16,
        "2134": 247,
        "2135": 134,
        "2136": 94,
        "2137": 133,
        "2138": 230,
        "2139": 158,
        "2140": 252,
        "2141": 226,
        "2142": 44,
        "2143": 232,
        "2144": 104,
        "2145": 158,
        "2146": 24,
        "2147": 115,
        "2148": 223,
        "2149": 202,
        "2150": 251,
        "2151": 36,
        "2152": 59,
        "2153": 147,
        "2154": 130,
        "2155": 32,
        "2156": 214,
        "2157": 114,
        "2158": 216,
        "2159": 107,
        "2160": 137,
        "2161": 247,
        "2162": 165,
        "2163": 67,
        "2164": 234,
        "2165": 46,
        "2166": 143,
        "2167": 176,
        "2168": 21,
        "2169": 218,
        "2170": 20,
        "2171": 151,
        "2172": 68,
        "2173": 237,
        "2174": 91,
        "2175": 185,
        "2176": 235,
        "2177": 98,
        "2178": 36,
        "2179": 43,
        "2180": 212,
        "2181": 99,
        "2182": 246,
        "2183": 5,
        "2184": 115,
        "2185": 86,
        "2186": 53,
        "2187": 64,
        "2188": 56,
        "2189": 68,
        "2190": 49,
        "2191": 20,
        "2192": 208,
        "2193": 107,
        "2194": 128,
        "2195": 207,
        "2196": 216,
        "2197": 15,
        "2198": 216,
        "2199": 195,
        "2200": 0,
        "2201": 138,
        "2202": 31,
        "2203": 92,
        "2204": 111,
        "2205": 172,
        "2206": 191,
        "2207": 203,
        "2208": 183,
        "2209": 22,
        "2210": 255,
        "2211": 224,
        "2212": 168,
        "2213": 186,
        "2214": 141,
        "2215": 12,
        "2216": 130,
        "2217": 128,
        "2218": 133,
        "2219": 4,
        "2220": 200,
        "2221": 88,
        "2222": 234,
        "2223": 161,
        "2224": 124,
        "2225": 91,
        "2226": 187,
        "2227": 232,
        "2228": 22,
        "2229": 100,
        "2230": 228,
        "2231": 76,
        "2232": 221,
        "2233": 217,
        "2234": 154,
        "2235": 198,
        "2236": 147,
        "2237": 196,
        "2238": 5,
        "2239": 4,
        "2240": 237,
        "2241": 24,
        "2242": 10,
        "2243": 101,
        "2244": 192,
        "2245": 93,
        "2246": 137,
        "2247": 160,
        "2248": 55,
        "2249": 160,
        "2250": 163,
        "2251": 73,
        "2252": 245,
        "2253": 177,
        "2254": 197,
        "2255": 145,
        "2256": 54,
        "2257": 161,
        "2258": 156,
        "2259": 174,
        "2260": 212,
        "2261": 193,
        "2262": 246,
        "2263": 226,
        "2264": 160,
        "2265": 9,
        "2266": 132,
        "2267": 84,
        "2268": 221,
        "2269": 93,
        "2270": 49,
        "2271": 183,
        "2272": 228,
        "2273": 255,
        "2274": 164,
        "2275": 232,
        "2276": 230,
        "2277": 65,
        "2278": 143,
        "2279": 46,
        "2280": 222,
        "2281": 224,
        "2282": 143,
        "2283": 120,
        "2284": 85,
        "2285": 53,
        "2286": 199,
        "2287": 73,
        "2288": 179,
        "2289": 120,
        "2290": 171,
        "2291": 94,
        "2292": 195,
        "2293": 65,
        "2294": 173,
        "2295": 207,
        "2296": 30,
        "2297": 252,
        "2298": 122,
        "2299": 161,
        "2300": 99,
        "2301": 61,
        "2302": 148,
        "2303": 140,
        "2304": 181,
        "2305": 98,
        "2306": 216,
        "2307": 212,
        "2308": 142,
        "2309": 232,
        "2310": 67,
        "2311": 159,
        "2312": 151,
        "2313": 249,
        "2314": 3,
        "2315": 108,
        "2316": 125,
        "2317": 199,
        "2318": 114,
        "2319": 139,
        "2320": 117,
        "2321": 76,
        "2322": 19,
        "2323": 187,
        "2324": 171,
        "2325": 116,
        "2326": 96,
        "2327": 180,
        "2328": 154,
        "2329": 62,
        "2330": 195,
        "2331": 155,
        "2332": 129,
        "2333": 8,
        "2334": 255,
        "2335": 184,
        "2336": 190,
        "2337": 37,
        "2338": 36,
        "2339": 35,
        "2340": 145,
        "2341": 0,
        "2342": 207,
        "2343": 241,
        "2344": 250,
        "2345": 92,
        "2346": 48,
        "2347": 79,
        "2348": 167,
        "2349": 7,
        "2350": 226,
        "2351": 146,
        "2352": 197,
        "2353": 162,
        "2354": 1,
        "2355": 38,
        "2356": 113,
        "2357": 169,
        "2358": 217,
        "2359": 133,
        "2360": 237,
        "2361": 51,
        "2362": 195,
        "2363": 59,
        "2364": 109,
        "2365": 113,
        "2366": 223,
        "2367": 15,
        "2368": 3,
        "2369": 168,
        "2370": 100,
        "2371": 235,
        "2372": 247,
        "2373": 60,
        "2374": 128,
        "2375": 245,
        "2376": 130,
        "2377": 49,
        "2378": 222,
        "2379": 39,
        "2380": 139,
        "2381": 93,
        "2382": 132,
        "2383": 6,
        "2384": 147,
        "2385": 95,
        "2386": 222,
        "2387": 237,
        "2388": 51,
        "2389": 74,
        "2390": 113,
        "2391": 155,
        "2392": 254,
        "2393": 64,
        "2394": 205,
        "2395": 249,
        "2396": 133,
        "2397": 120,
        "2398": 78,
        "2399": 131,
        "2400": 1,
        "2401": 42,
        "2402": 81,
        "2403": 240,
        "2404": 125,
        "2405": 38,
        "2406": 5,
        "2407": 240,
        "2408": 166,
        "2409": 138,
        "2410": 98,
        "2411": 33,
        "2412": 59,
        "2413": 104,
        "2414": 155,
        "2415": 207,
        "2416": 129,
        "2417": 62,
        "2418": 221,
        "2419": 54,
        "2420": 66,
        "2421": 164,
        "2422": 146,
        "2423": 109,
        "2424": 195,
        "2425": 126,
        "2426": 214,
        "2427": 74,
        "2428": 182,
        "2429": 255,
        "2430": 56,
        "2431": 73,
        "2432": 80,
        "2433": 44,
        "2434": 45,
        "2435": 61,
        "2436": 199,
        "2437": 171,
        "2438": 52,
        "2439": 80,
        "2440": 50,
        "2441": 46,
        "2442": 77,
        "2443": 212,
        "2444": 43,
        "2445": 179,
        "2446": 43,
        "2447": 116,
        "2448": 248,
        "2449": 142,
        "2450": 227,
        "2451": 123,
        "2452": 245,
        "2453": 156,
        "2454": 253,
        "2455": 75,
        "2456": 100,
        "2457": 175,
        "2458": 35,
        "2459": 172,
        "2460": 176,
        "2461": 26,
        "2462": 135,
        "2463": 247,
        "2464": 169,
        "2465": 25,
        "2466": 14,
        "2467": 74,
        "2468": 103,
        "2469": 227,
        "2470": 204,
        "2471": 74,
        "2472": 62,
        "2473": 231,
        "2474": 197,
        "2475": 19,
        "2476": 60,
        "2477": 230,
        "2478": 70,
        "2479": 235,
        "2480": 219,
        "2481": 237,
        "2482": 71,
        "2483": 254,
        "2484": 25,
        "2485": 37,
        "2486": 88,
        "2487": 189,
        "2488": 193,
        "2489": 54,
        "2490": 122,
        "2491": 99,
        "2492": 197,
        "2493": 203,
        "2494": 69,
        "2495": 170,
        "2496": 51,
        "2497": 84,
        "2498": 233,
        "2499": 189,
        "2500": 33,
        "2501": 71,
        "2502": 232,
        "2503": 228,
        "2504": 6,
        "2505": 98,
        "2506": 145,
        "2507": 169,
        "2508": 9,
        "2509": 51,
        "2510": 238,
        "2511": 73,
        "2512": 184,
        "2513": 46,
        "2514": 218,
        "2515": 9,
        "2516": 128,
        "2517": 108,
        "2518": 8,
        "2519": 210,
        "2520": 164,
        "2521": 213,
        "2522": 74,
        "2523": 38,
        "2524": 218,
        "2525": 248,
        "2526": 53,
        "2527": 207,
        "2528": 1,
        "2529": 68,
        "2530": 243,
        "2531": 192,
        "2532": 246,
        "2533": 117,
        "2534": 2,
        "2535": 2,
        "2536": 30,
        "2537": 252,
        "2538": 115,
        "2539": 135,
        "2540": 31,
        "2541": 178,
        "2542": 24,
        "2543": 251,
        "2544": 172,
        "2545": 253,
        "2546": 194,
        "2547": 200,
        "2548": 154,
        "2549": 33,
        "2550": 128,
        "2551": 217,
        "2552": 233,
        "2553": 151,
        "2554": 186,
        "2555": 126,
        "2556": 184,
        "2557": 9,
        "2558": 198,
        "2559": 30,
        "2560": 6,
        "2561": 90,
        "2562": 237,
        "2563": 95,
        "2564": 158,
        "2565": 8,
        "2566": 56,
        "2567": 76,
        "2568": 225,
        "2569": 213,
        "2570": 48,
        "2571": 36,
        "2572": 195,
        "2573": 117,
        "2574": 31,
        "2575": 169,
        "2576": 5,
        "2577": 84,
        "2578": 163,
        "2579": 182,
        "2580": 191,
        "2581": 12,
        "2582": 146,
        "2583": 21,
        "2584": 143,
        "2585": 181,
        "2586": 224,
        "2587": 19,
        "2588": 105,
        "2589": 42,
        "2590": 232,
        "2591": 62,
        "2592": 137,
        "2593": 188,
        "2594": 190,
        "2595": 232,
        "2596": 149,
        "2597": 72,
        "2598": 61,
        "2599": 237,
        "2600": 60,
        "2601": 233,
        "2602": 220,
        "2603": 16,
        "2604": 50,
        "2605": 248,
        "2606": 103,
        "2607": 238,
        "2608": 63,
        "2609": 120,
        "2610": 189,
        "2611": 42,
        "2612": 181,
        "2613": 122,
        "2614": 238,
        "2615": 133,
        "2616": 199,
        "2617": 144,
        "2618": 70,
        "2619": 186,
        "2620": 173,
        "2621": 50,
        "2622": 222,
        "2623": 99,
        "2624": 76,
        "2625": 135,
        "2626": 107,
        "2627": 166,
        "2628": 229,
        "2629": 73,
        "2630": 200,
        "2631": 169,
        "2632": 50,
        "2633": 252,
        "2634": 113,
        "2635": 40,
        "2636": 61,
        "2637": 10,
        "2638": 191,
        "2639": 179,
        "2640": 186,
        "2641": 40,
        "2642": 167,
        "2643": 133,
        "2644": 77,
        "2645": 204,
        "2646": 82,
        "2647": 132,
        "2648": 24,
        "2649": 206,
        "2650": 179,
        "2651": 109,
        "2652": 69,
        "2653": 91,
        "2654": 188,
        "2655": 33,
        "2656": 53,
        "2657": 124,
        "2658": 207,
        "2659": 121,
        "2660": 239,
        "2661": 139,
        "2662": 81,
        "2663": 27,
        "2664": 53,
        "2665": 211,
        "2666": 255,
        "2667": 49,
        "2668": 95,
        "2669": 189,
        "2670": 217,
        "2671": 165,
        "2672": 25,
        "2673": 162,
        "2674": 36,
        "2675": 246,
        "2676": 104,
        "2677": 114,
        "2678": 185,
        "2679": 10,
        "2680": 232,
        "2681": 53,
        "2682": 177,
        "2683": 134,
        "2684": 210,
        "2685": 31,
        "2686": 42,
        "2687": 93,
        "2688": 4,
        "2689": 37,
        "2690": 153,
        "2691": 87,
        "2692": 161,
        "2693": 71,
        "2694": 16,
        "2695": 167,
        "2696": 212,
        "2697": 117,
        "2698": 84,
        "2699": 178,
        "2700": 138,
        "2701": 74,
        "2702": 59,
        "2703": 18,
        "2704": 250,
        "2705": 103,
        "2706": 104,
        "2707": 14,
        "2708": 251,
        "2709": 202,
        "2710": 6,
        "2711": 143,
        "2712": 115,
        "2713": 205,
        "2714": 202,
        "2715": 146,
        "2716": 64,
        "2717": 37,
        "2718": 144,
        "2719": 165,
        "2720": 117,
        "2721": 20,
        "2722": 145,
        "2723": 85,
        "2724": 243,
        "2725": 55,
        "2726": 154,
        "2727": 177,
        "2728": 65,
        "2729": 183,
        "2730": 173,
        "2731": 52,
        "2732": 150,
        "2733": 200,
        "2734": 159,
        "2735": 243,
        "2736": 54,
        "2737": 140,
        "2738": 134,
        "2739": 133,
        "2740": 205,
        "2741": 86,
        "2742": 5,
        "2743": 225,
        "2744": 2,
        "2745": 126,
        "2746": 210,
        "2747": 32,
        "2748": 164,
        "2749": 198,
        "2750": 55,
        "2751": 130,
        "2752": 59,
        "2753": 229,
        "2754": 145,
        "2755": 115,
        "2756": 243,
        "2757": 81,
        "2758": 47,
        "2759": 164,
        "2760": 220,
        "2761": 24,
        "2762": 162,
        "2763": 188,
        "2764": 57,
        "2765": 74,
        "2766": 30,
        "2767": 61,
        "2768": 100,
        "2769": 40,
        "2770": 3,
        "2771": 240,
        "2772": 11,
        "2773": 126,
        "2774": 152,
        "2775": 219,
        "2776": 97,
        "2777": 183,
        "2778": 152,
        "2779": 129,
        "2780": 128,
        "2781": 32,
        "2782": 188,
        "2783": 215,
        "2784": 80,
        "2785": 131,
        "2786": 54,
        "2787": 177,
        "2788": 2,
        "2789": 40,
        "2790": 187,
        "2791": 47,
        "2792": 82,
        "2793": 26,
        "2794": 116,
        "2795": 205,
        "2796": 248,
        "2797": 64,
        "2798": 187,
        "2799": 56,
        "2800": 186,
        "2801": 8,
        "2802": 187,
        "2803": 185,
        "2804": 104,
        "2805": 122,
        "2806": 87,
        "2807": 59,
        "2808": 73,
        "2809": 7,
        "2810": 212,
        "2811": 117,
        "2812": 30,
        "2813": 167,
        "2814": 183,
        "2815": 15,
        "2816": 152,
        "2817": 137,
        "2818": 208,
        "2819": 39,
        "2820": 129,
        "2821": 65,
        "2822": 34,
        "2823": 156,
        "2824": 58,
        "2825": 167,
        "2826": 121,
        "2827": 17,
        "2828": 186,
        "2829": 147,
        "2830": 59,
        "2831": 68,
        "2832": 117,
        "2833": 87,
        "2834": 136,
        "2835": 151,
        "2836": 145,
        "2837": 144,
        "2838": 15,
        "2839": 173,
        "2840": 76,
        "2841": 51,
        "2842": 167,
        "2843": 68,
        "2844": 138,
        "2845": 5,
        "2846": 167,
        "2847": 121,
        "2848": 30,
        "2849": 204,
        "2850": 210,
        "2851": 156,
        "2852": 47,
        "2853": 10,
        "2854": 68,
        "2855": 204,
        "2856": 138,
        "2857": 71,
        "2858": 100,
        "2859": 36,
        "2860": 195,
        "2861": 1,
        "2862": 79,
        "2863": 64,
        "2864": 161,
        "2865": 240,
        "2866": 47,
        "2867": 81,
        "2868": 195,
        "2869": 195,
        "2870": 227,
        "2871": 73,
        "2872": 89,
        "2873": 7,
        "2874": 214,
        "2875": 204,
        "2876": 214,
        "2877": 104,
        "2878": 200,
        "2879": 64,
        "2880": 38,
        "2881": 158,
        "2882": 187,
        "2883": 57,
        "2884": 187,
        "2885": 130,
        "2886": 83,
        "2887": 168,
        "2888": 235,
        "2889": 150,
        "2890": 201,
        "2891": 143,
        "2892": 123,
        "2893": 20,
        "2894": 11,
        "2895": 173,
        "2896": 95,
        "2897": 32,
        "2898": 10,
        "2899": 161,
        "2900": 33,
        "2901": 139,
        "2902": 97,
        "2903": 124,
        "2904": 37,
        "2905": 163,
        "2906": 9,
        "2907": 125,
        "2908": 124,
        "2909": 234,
        "2910": 71,
        "2911": 56,
        "2912": 75,
        "2913": 188,
        "2914": 3,
        "2915": 73,
        "2916": 85,
        "2917": 125,
        "2918": 58,
        "2919": 205,
        "2920": 67,
        "2921": 252,
        "2922": 233,
        "2923": 52,
        "2924": 161,
        "2925": 39,
        "2926": 159,
        "2927": 208,
        "2928": 45,
        "2929": 234,
        "2930": 238,
        "2931": 51,
        "2932": 122,
        "2933": 95,
        "2934": 23,
        "2935": 171,
        "2936": 136,
        "2937": 249,
        "2938": 223,
        "2939": 240,
        "2940": 84,
        "2941": 75,
        "2942": 210,
        "2943": 30,
        "2944": 59,
        "2945": 203,
        "2946": 72,
        "2947": 221,
        "2948": 159,
        "2949": 114,
        "2950": 47,
        "2951": 62,
        "2952": 53,
        "2953": 10,
        "2954": 110,
        "2955": 180,
        "2956": 64,
        "2957": 46,
        "2958": 37,
        "2959": 22,
        "2960": 191,
        "2961": 230,
        "2962": 241,
        "2963": 187,
        "2964": 44,
        "2965": 105,
        "2966": 14,
        "2967": 64,
        "2968": 247,
        "2969": 251,
        "2970": 75,
        "2971": 206,
        "2972": 243,
        "2973": 200,
        "2974": 231,
        "2975": 149,
        "2976": 70,
        "2977": 234,
        "2978": 158,
        "2979": 252,
        "2980": 226,
        "2981": 128,
        "2982": 131,
        "2983": 108,
        "2984": 127,
        "2985": 26,
        "2986": 109,
        "2987": 214,
        "2988": 15,
        "2989": 33,
        "2990": 76,
        "2991": 204,
        "2992": 31,
        "2993": 211,
        "2994": 171,
        "2995": 147,
        "2996": 114,
        "2997": 93,
        "2998": 20,
        "2999": 3,
        "3000": 202,
        "3001": 216,
        "3002": 146,
        "3003": 198,
        "3004": 60,
        "3005": 43,
        "3006": 52,
        "3007": 143,
        "3008": 79,
        "3009": 200,
        "3010": 80,
        "3011": 104,
        "3012": 204,
        "3013": 202,
        "3014": 8,
        "3015": 95,
        "3016": 22,
        "3017": 31,
        "3018": 9,
        "3019": 97,
        "3020": 162,
        "3021": 188,
        "3022": 196,
        "3023": 238,
        "3024": 205,
        "3025": 22,
        "3026": 230,
        "3027": 35,
        "3028": 37,
        "3029": 72,
        "3030": 116,
        "3031": 101,
        "3032": 174,
        "3033": 102,
        "3034": 87,
        "3035": 72,
        "3036": 232,
        "3037": 188,
        "3038": 143,
        "3039": 252,
        "3040": 75,
        "3041": 32,
        "3042": 85,
        "3043": 140,
        "3044": 52,
        "3045": 215,
        "3046": 235,
        "3047": 223,
        "3048": 181,
        "3049": 199,
        "3050": 137,
        "3051": 73,
        "3052": 188,
        "3053": 58,
        "3054": 33,
        "3055": 128,
        "3056": 106,
        "3057": 235,
        "3058": 115,
        "3059": 189,
        "3060": 201,
        "3061": 163,
        "3062": 167,
        "3063": 10,
        "3064": 128,
        "3065": 159,
        "3066": 93,
        "3067": 147,
        "3068": 57,
        "3069": 151,
        "3070": 89,
        "3071": 92,
        "3072": 179,
        "3073": 75,
        "3074": 68,
        "3075": 139,
        "3076": 54,
        "3077": 93,
        "3078": 117,
        "3079": 137,
        "3080": 87,
        "3081": 240,
        "3082": 146,
        "3083": 246,
        "3084": 190,
        "3085": 82,
        "3086": 124,
        "3087": 22,
        "3088": 174,
        "3089": 112,
        "3090": 102,
        "3091": 230,
        "3092": 30,
        "3093": 105,
        "3094": 116,
        "3095": 122,
        "3096": 214,
        "3097": 112,
        "3098": 207,
        "3099": 77,
        "3100": 44,
        "3101": 129,
        "3102": 175,
        "3103": 5,
        "3104": 123,
        "3105": 47,
        "3106": 176,
        "3107": 50,
        "3108": 34,
        "3109": 106,
        "3110": 245,
        "3111": 170,
        "3112": 3,
        "3113": 242,
        "3114": 201,
        "3115": 146,
        "3116": 163,
        "3117": 194,
        "3118": 227,
        "3119": 186,
        "3120": 180,
        "3121": 118,
        "3122": 28,
        "3123": 159,
        "3124": 66,
        "3125": 20,
        "3126": 237,
        "3127": 25,
        "3128": 218,
        "3129": 4,
        "3130": 78,
        "3131": 1,
        "3132": 250,
        "3133": 161,
        "3134": 244,
        "3135": 186,
        "3136": 158,
        "3137": 137,
        "3138": 123,
        "3139": 227,
        "3140": 87,
        "3141": 91,
        "3142": 199,
        "3143": 75,
        "3144": 179,
        "3145": 37,
        "3146": 248,
        "3147": 204,
        "3148": 83,
        "3149": 252,
        "3150": 184,
        "3151": 167,
        "3152": 102,
        "3153": 74,
        "3154": 139,
        "3155": 97,
        "3156": 98,
        "3157": 124,
        "3158": 134,
        "3159": 244,
        "3160": 255,
        "3161": 24,
        "3162": 102,
        "3163": 82,
        "3164": 194,
        "3165": 189,
        "3166": 226,
        "3167": 192,
        "3168": 224,
        "3169": 201,
        "3170": 191,
        "3171": 199,
        "3172": 110,
        "3173": 173,
        "3174": 219,
        "3175": 151,
        "3176": 216,
        "3177": 3,
        "3178": 27,
        "3179": 179,
        "3180": 148,
        "3181": 151,
        "3182": 94,
        "3183": 87,
        "3184": 125,
        "3185": 109,
        "3186": 232,
        "3187": 96,
        "3188": 84,
        "3189": 135,
        "3190": 30,
        "3191": 202,
        "3192": 171,
        "3193": 173,
        "3194": 167,
        "3195": 164,
        "3196": 153,
        "3197": 31,
        "3198": 93,
        "3199": 48,
        "3200": 23,
        "3201": 158,
        "3202": 110,
        "3203": 229,
        "3204": 217,
        "3205": 42,
        "3206": 62,
        "3207": 132,
        "3208": 197,
        "3209": 147,
        "3210": 230,
        "3211": 179,
        "3212": 5,
        "3213": 86,
        "3214": 102,
        "3215": 255,
        "3216": 73,
        "3217": 169,
        "3218": 63,
        "3219": 41,
        "3220": 216,
        "3221": 53,
        "3222": 119,
        "3223": 244,
        "3224": 148,
        "3225": 48,
        "3226": 80,
        "3227": 165,
        "3228": 252,
        "3229": 22,
        "3230": 147,
        "3231": 74,
        "3232": 75,
        "3233": 146,
        "3234": 42,
        "3235": 86,
        "3236": 206,
        "3237": 97,
        "3238": 105,
        "3239": 68,
        "3240": 222,
        "3241": 222,
        "3242": 125,
        "3243": 129,
        "3244": 97,
        "3245": 116,
        "3246": 123,
        "3247": 242,
        "3248": 214,
        "3249": 221,
        "3250": 213,
        "3251": 26,
        "3252": 210,
        "3253": 98,
        "3254": 221,
        "3255": 69,
        "3256": 246,
        "3257": 76,
        "3258": 28,
        "3259": 122,
        "3260": 193,
        "3261": 109,
        "3262": 8,
        "3263": 136,
        "3264": 233,
        "3265": 208,
        "3266": 149,
        "3267": 154,
        "3268": 171,
        "3269": 225,
        "3270": 249,
        "3271": 197,
        "3272": 238,
        "3273": 199,
        "3274": 15,
        "3275": 203,
        "3276": 105,
        "3277": 196,
        "3278": 50,
        "3279": 103,
        "3280": 153,
        "3281": 231,
        "3282": 175,
        "3283": 167,
        "3284": 137,
        "3285": 190,
        "3286": 8,
        "3287": 65,
        "3288": 248,
        "3289": 53,
        "3290": 92,
        "3291": 86,
        "3292": 147,
        "3293": 78,
        "3294": 146,
        "3295": 252,
        "3296": 121,
        "3297": 71,
        "3298": 157,
        "3299": 74,
        "3300": 4,
        "3301": 115,
        "3302": 31,
        "3303": 119,
        "3304": 8,
        "3305": 51,
        "3306": 225,
        "3307": 233,
        "3308": 252,
        "3309": 245,
        "3310": 146,
        "3311": 108,
        "3312": 24,
        "3313": 110,
        "3314": 185,
        "3315": 147,
        "3316": 93,
        "3317": 17,
        "3318": 58,
        "3319": 107,
        "3320": 79,
        "3321": 178,
        "3322": 104,
        "3323": 14,
        "3324": 86,
        "3325": 156,
        "3326": 133,
        "3327": 72,
        "3328": 10,
        "3329": 36,
        "3330": 38,
        "3331": 229,
        "3332": 245,
        "3333": 221,
        "3334": 227,
        "3335": 3,
        "3336": 64,
        "3337": 57,
        "3338": 41,
        "3339": 253,
        "3340": 70,
        "3341": 30,
        "3342": 120,
        "3343": 184,
        "3344": 12,
        "3345": 97,
        "3346": 204,
        "3347": 17,
        "3348": 200,
        "3349": 159,
        "3350": 254,
        "3351": 46,
        "3352": 40,
        "3353": 197,
        "3354": 130,
        "3355": 189,
        "3356": 174,
        "3357": 113,
        "3358": 230,
        "3359": 113,
        "3360": 112,
        "3361": 128,
        "3362": 247,
        "3363": 167,
        "3364": 160,
        "3365": 118,
        "3366": 16,
        "3367": 74,
        "3368": 253,
        "3369": 232,
        "3370": 217,
        "3371": 154,
        "3372": 86,
        "3373": 196,
        "3374": 255,
        "3375": 18,
        "3376": 29,
        "3377": 193,
        "3378": 161,
        "3379": 248,
        "3380": 249,
        "3381": 167,
        "3382": 59,
        "3383": 126,
        "3384": 25,
        "3385": 134,
        "3386": 106,
        "3387": 195,
        "3388": 116,
        "3389": 75,
        "3390": 195,
        "3391": 167,
        "3392": 52,
        "3393": 78,
        "3394": 165,
        "3395": 81,
        "3396": 97,
        "3397": 235,
        "3398": 26,
        "3399": 108,
        "3400": 93,
        "3401": 240,
        "3402": 213,
        "3403": 225,
        "3404": 50,
        "3405": 135,
        "3406": 178,
        "3407": 181,
        "3408": 101,
        "3409": 67,
        "3410": 253,
        "3411": 49,
        "3412": 130,
        "3413": 231,
        "3414": 221,
        "3415": 145,
        "3416": 170,
        "3417": 125,
        "3418": 119,
        "3419": 23,
        "3420": 191,
        "3421": 170,
        "3422": 13,
        "3423": 111,
        "3424": 1,
        "3425": 173,
        "3426": 135,
        "3427": 100,
        "3428": 55,
        "3429": 199,
        "3430": 213,
        "3431": 52,
        "3432": 215,
        "3433": 103,
        "3434": 229,
        "3435": 204,
        "3436": 50,
        "3437": 89,
        "3438": 177,
        "3439": 153,
        "3440": 130,
        "3441": 239,
        "3442": 82,
        "3443": 189,
        "3444": 253,
        "3445": 186,
        "3446": 41,
        "3447": 95,
        "3448": 180,
        "3449": 153,
        "3450": 80,
        "3451": 225,
        "3452": 242,
        "3453": 183,
        "3454": 47,
        "3455": 104,
        "3456": 67,
        "3457": 227,
        "3458": 8,
        "3459": 2,
        "3460": 0,
        "3461": 22,
        "3462": 49,
        "3463": 138,
        "3464": 219,
        "3465": 114,
        "3466": 190,
        "3467": 56,
        "3468": 232,
        "3469": 165,
        "3470": 252,
        "3471": 122,
        "3472": 94,
        "3473": 172,
        "3474": 122,
        "3475": 197,
        "3476": 209,
        "3477": 228,
        "3478": 207,
        "3479": 220,
        "3480": 188,
        "3481": 20,
        "3482": 95,
        "3483": 250,
        "3484": 86,
        "3485": 48,
        "3486": 44,
        "3487": 212,
        "3488": 225,
        "3489": 153,
        "3490": 15,
        "3491": 94,
        "3492": 33,
        "3493": 121,
        "3494": 1,
        "3495": 174,
        "3496": 245,
        "3497": 122,
        "3498": 112,
        "3499": 236,
        "3500": 62,
        "3501": 130,
        "3502": 17,
        "3503": 175,
        "3504": 64,
        "3505": 165,
        "3506": 203,
        "3507": 108,
        "3508": 229,
        "3509": 192,
        "3510": 145,
        "3511": 152,
        "3512": 168,
        "3513": 149,
        "3514": 135,
        "3515": 66,
        "3516": 198,
        "3517": 37,
        "3518": 235,
        "3519": 212,
        "3520": 201,
        "3521": 2,
        "3522": 52,
        "3523": 93,
        "3524": 119,
        "3525": 149,
        "3526": 133,
        "3527": 221,
        "3528": 78,
        "3529": 42,
        "3530": 188,
        "3531": 140,
        "3532": 226,
        "3533": 13,
        "3534": 88,
        "3535": 233,
        "3536": 165,
        "3537": 35,
        "3538": 239,
        "3539": 239,
        "3540": 104,
        "3541": 124,
        "3542": 186,
        "3543": 254,
        "3544": 43,
        "3545": 150,
        "3546": 156,
        "3547": 215,
        "3548": 185,
        "3549": 24,
        "3550": 225,
        "3551": 75,
        "3552": 70,
        "3553": 211,
        "3554": 70,
        "3555": 252,
        "3556": 233,
        "3557": 19,
        "3558": 165,
        "3559": 130,
        "3560": 72,
        "3561": 22,
        "3562": 42,
        "3563": 254,
        "3564": 112,
        "3565": 144,
        "3566": 123,
        "3567": 50,
        "3568": 210,
        "3569": 25,
        "3570": 221,
        "3571": 218,
        "3572": 89,
        "3573": 50,
        "3574": 144,
        "3575": 163,
        "3576": 120,
        "3577": 112,
        "3578": 57,
        "3579": 157,
        "3580": 25,
        "3581": 22,
        "3582": 20,
        "3583": 153,
        "3584": 250,
        "3585": 166,
        "3586": 101,
        "3587": 156,
        "3588": 162,
        "3589": 9,
        "3590": 218,
        "3591": 69,
        "3592": 165,
        "3593": 26,
        "3594": 104,
        "3595": 92,
        "3596": 137,
        "3597": 255,
        "3598": 229,
        "3599": 205,
        "3600": 248,
        "3601": 235,
        "3602": 64,
        "3603": 132,
        "3604": 200,
        "3605": 161,
        "3606": 178,
        "3607": 93,
        "3608": 5,
        "3609": 170,
        "3610": 127,
        "3611": 11,
        "3612": 174,
        "3613": 144,
        "3614": 108,
        "3615": 78,
        "3616": 244,
        "3617": 50,
        "3618": 214,
        "3619": 97,
        "3620": 32,
        "3621": 172,
        "3622": 71,
        "3623": 199,
        "3624": 10,
        "3625": 168,
        "3626": 6,
        "3627": 123,
        "3628": 31,
        "3629": 182,
        "3630": 125,
        "3631": 9,
        "3632": 185,
        "3633": 92,
        "3634": 242,
        "3635": 162,
        "3636": 10,
        "3637": 143,
        "3638": 9,
        "3639": 7,
        "3640": 146,
        "3641": 226,
        "3642": 69,
        "3643": 196,
        "3644": 204,
        "3645": 183,
        "3646": 56,
        "3647": 48,
        "3648": 101,
        "3649": 133,
        "3650": 24,
        "3651": 217,
        "3652": 237,
        "3653": 133,
        "3654": 194,
        "3655": 33,
        "3656": 84,
        "3657": 117,
        "3658": 115,
        "3659": 142,
        "3660": 197,
        "3661": 16,
        "3662": 166,
        "3663": 189,
        "3664": 118,
        "3665": 113,
        "3666": 92,
        "3667": 214,
        "3668": 125,
        "3669": 172,
        "3670": 54,
        "3671": 133,
        "3672": 96,
        "3673": 169,
        "3674": 93,
        "3675": 12,
        "3676": 242,
        "3677": 152,
        "3678": 39,
        "3679": 242,
        "3680": 34,
        "3681": 13,
        "3682": 144,
        "3683": 229,
        "3684": 220,
        "3685": 110,
        "3686": 96,
        "3687": 164,
        "3688": 109,
        "3689": 206,
        "3690": 183,
        "3691": 253,
        "3692": 224,
        "3693": 171,
        "3694": 134,
        "3695": 161,
        "3696": 94,
        "3697": 75,
        "3698": 177,
        "3699": 211,
        "3700": 122,
        "3701": 165,
        "3702": 21,
        "3703": 157,
        "3704": 50,
        "3705": 163,
        "3706": 201,
        "3707": 178,
        "3708": 150,
        "3709": 91,
        "3710": 19,
        "3711": 188,
        "3712": 207,
        "3713": 199,
        "3714": 110,
        "3715": 222,
        "3716": 111,
        "3717": 138,
        "3718": 103,
        "3719": 156,
        "3720": 245,
        "3721": 144,
        "3722": 29,
        "3723": 75,
        "3724": 184,
        "3725": 77,
        "3726": 249,
        "3727": 164,
        "3728": 216,
        "3729": 76,
        "3730": 37,
        "3731": 141,
        "3732": 215,
        "3733": 93,
        "3734": 229,
        "3735": 52,
        "3736": 128,
        "3737": 97,
        "3738": 235,
        "3739": 70,
        "3740": 72,
        "3741": 95,
        "3742": 181,
        "3743": 8,
        "3744": 237,
        "3745": 154,
        "3746": 253,
        "3747": 86,
        "3748": 166,
        "3749": 197,
        "3750": 99,
        "3751": 213,
        "3752": 39,
        "3753": 139,
        "3754": 83,
        "3755": 22,
        "3756": 212,
        "3757": 235,
        "3758": 108,
        "3759": 98,
        "3760": 225,
        "3761": 86,
        "3762": 71,
        "3763": 232,
        "3764": 52,
        "3765": 125,
        "3766": 231,
        "3767": 52,
        "3768": 8,
        "3769": 254,
        "3770": 222,
        "3771": 161,
        "3772": 218,
        "3773": 96,
        "3774": 33,
        "3775": 50,
        "3776": 191,
        "3777": 163,
        "3778": 31,
        "3779": 4,
        "3780": 104,
        "3781": 136,
        "3782": 110,
        "3783": 250,
        "3784": 199,
        "3785": 46,
        "3786": 59,
        "3787": 237,
        "3788": 235,
        "3789": 140,
        "3790": 241,
        "3791": 105,
        "3792": 97,
        "3793": 248,
        "3794": 12,
        "3795": 130,
        "3796": 38,
        "3797": 85,
        "3798": 131,
        "3799": 50,
        "3800": 159,
        "3801": 242,
        "3802": 148,
        "3803": 178,
        "3804": 45,
        "3805": 17,
        "3806": 114,
        "3807": 167,
        "3808": 225,
        "3809": 251,
        "3810": 241,
        "3811": 112,
        "3812": 12,
        "3813": 156,
        "3814": 148,
        "3815": 143,
        "3816": 239,
        "3817": 170,
        "3818": 12,
        "3819": 16,
        "3820": 70,
        "3821": 145,
        "3822": 212,
        "3823": 194,
        "3824": 133,
        "3825": 88,
        "3826": 161,
        "3827": 122,
        "3828": 72,
        "3829": 134,
        "3830": 255,
        "3831": 29,
        "3832": 251,
        "3833": 123,
        "3834": 222,
        "3835": 53,
        "3836": 155,
        "3837": 20,
        "3838": 82,
        "3839": 42,
        "3840": 57,
        "3841": 102,
        "3842": 250,
        "3843": 50,
        "3844": 195,
        "3845": 77,
        "3846": 219,
        "3847": 223,
        "3848": 229,
        "3849": 83,
        "3850": 47,
        "3851": 225,
        "3852": 48,
        "3853": 107,
        "3854": 192,
        "3855": 9,
        "3856": 65,
        "3857": 66,
        "3858": 18,
        "3859": 20,
        "3860": 139,
        "3861": 239,
        "3862": 224,
        "3863": 114,
        "3864": 112,
        "3865": 228,
        "3866": 215,
        "3867": 159,
        "3868": 180,
        "3869": 240,
        "3870": 120,
        "3871": 237,
        "3872": 238,
        "3873": 166,
        "3874": 12,
        "3875": 149,
        "3876": 87,
        "3877": 32,
        "3878": 2,
        "3879": 63,
        "3880": 214,
        "3881": 147,
        "3882": 147,
        "3883": 106,
        "3884": 51,
        "3885": 191,
        "3886": 82,
        "3887": 41,
        "3888": 213,
        "3889": 101,
        "3890": 217,
        "3891": 89,
        "3892": 65,
        "3893": 221,
        "3894": 1,
        "3895": 87,
        "3896": 44,
        "3897": 62,
        "3898": 249,
        "3899": 185,
        "3900": 200,
        "3901": 68,
        "3902": 167,
        "3903": 252,
        "3904": 162,
        "3905": 102,
        "3906": 106,
        "3907": 148,
        "3908": 98,
        "3909": 231,
        "3910": 155,
        "3911": 96,
        "3912": 172,
        "3913": 11,
        "3914": 213,
        "3915": 188,
        "3916": 149,
        "3917": 3,
        "3918": 91,
        "3919": 254,
        "3920": 232,
        "3921": 109,
        "3922": 28,
        "3923": 111,
        "3924": 194,
        "3925": 12,
        "3926": 52,
        "3927": 94,
        "3928": 136,
        "3929": 125,
        "3930": 104,
        "3931": 60,
        "3932": 178,
        "3933": 124,
        "3934": 71,
        "3935": 14,
        "3936": 46,
        "3937": 136,
        "3938": 255,
        "3939": 167,
        "3940": 147,
        "3941": 46,
        "3942": 30,
        "3943": 229,
        "3944": 41,
        "3945": 235,
        "3946": 171,
        "3947": 34,
        "3948": 183,
        "3949": 83,
        "3950": 182,
        "3951": 152,
        "3952": 197,
        "3953": 72,
        "3954": 40,
        "3955": 64,
        "3956": 201,
        "3957": 205,
        "3958": 182,
        "3959": 192,
        "3960": 30,
        "3961": 36,
        "3962": 171,
        "3963": 186,
        "3964": 74,
        "3965": 83,
        "3966": 87,
        "3967": 68,
        "3968": 190,
        "3969": 218,
        "3970": 184,
        "3971": 48,
        "3972": 161,
        "3973": 138,
        "3974": 247,
        "3975": 109,
        "3976": 191,
        "3977": 183,
        "3978": 186,
        "3979": 231,
        "3980": 194,
        "3981": 129,
        "3982": 130,
        "3983": 220,
        "3984": 158,
        "3985": 151,
        "3986": 198,
        "3987": 188,
        "3988": 151,
        "3989": 250,
        "3990": 1,
        "3991": 176,
        "3992": 102,
        "3993": 141,
        "3994": 223,
        "3995": 214,
        "3996": 62,
        "3997": 218,
        "3998": 249,
        "3999": 41,
        "4000": 170,
        "4001": 19,
        "4002": 104,
        "4003": 123,
        "4004": 81,
        "4005": 168,
        "4006": 55,
        "4007": 6,
        "4008": 153,
        "4009": 34,
        "4010": 96,
        "4011": 243,
        "4012": 144,
        "4013": 244,
        "4014": 28,
        "4015": 156,
        "4016": 29,
        "4017": 18,
        "4018": 2,
        "4019": 214,
        "4020": 178,
        "4021": 179,
        "4022": 175,
        "4023": 128,
        "4024": 106,
        "4025": 151,
        "4026": 226,
        "4027": 32,
        "4028": 207,
        "4029": 127,
        "4030": 96,
        "4031": 61,
        "4032": 86,
        "4033": 95,
        "4034": 181,
        "4035": 217,
        "4036": 18,
        "4037": 204,
        "4038": 196,
        "4039": 233,
        "4040": 157,
        "4041": 137,
        "4042": 127,
        "4043": 7,
        "4044": 69,
        "4045": 202,
        "4046": 174,
        "4047": 219,
        "4048": 21,
        "4049": 103,
        "4050": 203,
        "4051": 20,
        "4052": 152,
        "4053": 122,
        "4054": 83,
        "4055": 130,
        "4056": 19,
        "4057": 81,
        "4058": 184,
        "4059": 164,
        "4060": 183,
        "4061": 236,
        "4062": 43,
        "4063": 164,
        "4064": 55,
        "4065": 232,
        "4066": 38,
        "4067": 72,
        "4068": 139,
        "4069": 230,
        "4070": 207,
        "4071": 13,
        "4072": 171,
        "4073": 159,
        "4074": 186,
        "4075": 14,
        "4076": 252,
        "4077": 165,
        "4078": 167,
        "4079": 39,
        "4080": 162,
        "4081": 130,
        "4082": 64,
        "4083": 211,
        "4084": 84,
        "4085": 223,
        "4086": 109,
        "4087": 2,
        "4088": 151,
        "4089": 81,
        "4090": 54,
        "4091": 118,
        "4092": 208,
        "4093": 199,
        "4094": 4,
        "4095": 23,
        "4096": 103,
        "4097": 216,
        "4098": 15,
        "4099": 227,
        "4100": 1,
        "4101": 47,
        "4102": 99,
        "4103": 224,
        "4104": 44,
        "4105": 29,
        "4106": 3,
        "4107": 193,
        "4108": 157,
        "4109": 250,
        "4110": 79,
        "4111": 202,
        "4112": 231,
        "4113": 114,
        "4114": 45,
        "4115": 139,
        "4116": 144,
        "4117": 9,
        "4118": 218,
        "4119": 20,
        "4120": 155,
        "4121": 53,
        "4122": 239,
        "4123": 214,
        "4124": 172,
        "4125": 162,
        "4126": 69,
        "4127": 198,
        "4128": 67,
        "4129": 41,
        "4130": 30,
        "4131": 136,
        "4132": 142,
        "4133": 59,
        "4134": 163,
        "4135": 124,
        "4136": 112,
        "4137": 61,
        "4138": 67,
        "4139": 240,
        "4140": 109,
        "4141": 77,
        "4142": 107,
        "4143": 144,
        "4144": 248,
        "4145": 254,
        "4146": 125,
        "4147": 17,
        "4148": 79,
        "4149": 90,
        "4150": 0,
        "4151": 59,
        "4152": 213,
        "4153": 163,
        "4154": 57,
        "4155": 220,
        "4156": 116,
        "4157": 224,
        "4158": 253,
        "4159": 36,
        "4160": 112,
        "4161": 252,
        "4162": 90,
        "4163": 66,
        "4164": 0,
        "4165": 71,
        "4166": 197,
        "4167": 93,
        "4168": 34,
        "4169": 208,
        "4170": 105,
        "4171": 246,
        "4172": 146,
        "4173": 92,
        "4174": 197,
        "4175": 238,
        "4176": 38,
        "4177": 205,
        "4178": 205,
        "4179": 89,
        "4180": 153,
        "4181": 30,
        "4182": 147,
        "4183": 175,
        "4184": 41,
        "4185": 39,
        "4186": 63,
        "4187": 244,
        "4188": 12,
        "4189": 25,
        "4190": 175,
        "4191": 19,
        "4192": 178,
        "4193": 127,
        "4194": 18,
        "4195": 18,
        "4196": 229,
        "4197": 70,
        "4198": 171,
        "4199": 250,
        "4200": 219,
        "4201": 48,
        "4202": 14,
        "4203": 182,
        "4204": 238,
        "4205": 18,
        "4206": 37,
        "4207": 252,
        "4208": 135,
        "4209": 35,
        "4210": 155,
        "4211": 85,
        "4212": 241,
        "4213": 53,
        "4214": 135,
        "4215": 21,
        "4216": 88,
        "4217": 118,
        "4218": 29,
        "4219": 88,
        "4220": 175,
        "4221": 252,
        "4222": 250,
        "4223": 204,
        "4224": 240,
        "4225": 247,
        "4226": 166,
        "4227": 115,
        "4228": 109,
        "4229": 142,
        "4230": 227,
        "4231": 142,
        "4232": 163,
        "4233": 140,
        "4234": 132,
        "4235": 80,
        "4236": 13,
        "4237": 98,
        "4238": 124,
        "4239": 219,
        "4240": 34,
        "4241": 40,
        "4242": 116,
        "4243": 3,
        "4244": 140,
        "4245": 159,
        "4246": 123,
        "4247": 215,
        "4248": 64,
        "4249": 154,
        "4250": 32,
        "4251": 158,
        "4252": 225,
        "4253": 69,
        "4254": 40,
        "4255": 129,
        "4256": 205,
        "4257": 227,
        "4258": 12,
        "4259": 131,
        "4260": 160,
        "4261": 97,
        "4262": 1,
        "4263": 76,
        "4264": 140,
        "4265": 79,
        "4266": 168,
        "4267": 191,
        "4268": 153,
        "4269": 3,
        "4270": 142,
        "4271": 115,
        "4272": 39,
        "4273": 72,
        "4274": 234,
        "4275": 111,
        "4276": 46,
        "4277": 63,
        "4278": 237,
        "4279": 72,
        "4280": 131,
        "4281": 83,
        "4282": 211,
        "4283": 18,
        "4284": 126,
        "4285": 121,
        "4286": 178,
        "4287": 125,
        "4288": 28,
        "4289": 154,
        "4290": 110,
        "4291": 91,
        "4292": 182,
        "4293": 158,
        "4294": 78,
        "4295": 134,
        "4296": 6,
        "4297": 190,
        "4298": 185,
        "4299": 117,
        "4300": 141,
        "4301": 22,
        "4302": 31,
        "4303": 213,
        "4304": 12,
        "4305": 129,
        "4306": 136,
        "4307": 52,
        "4308": 15,
        "4309": 11,
        "4310": 49,
        "4311": 111,
        "4312": 150,
        "4313": 155,
        "4314": 193,
        "4315": 220,
        "4316": 41,
        "4317": 127,
        "4318": 211,
        "4319": 252,
        "4320": 187,
        "4321": 93,
        "4322": 75,
        "4323": 22,
        "4324": 218,
        "4325": 26,
        "4326": 50,
        "4327": 77,
        "4328": 61,
        "4329": 94,
        "4330": 18,
        "4331": 140,
        "4332": 145,
        "4333": 224,
        "4334": 35,
        "4335": 106,
        "4336": 116,
        "4337": 201,
        "4338": 188,
        "4339": 122,
        "4340": 71,
        "4341": 73,
        "4342": 235,
        "4343": 237,
        "4344": 94,
        "4345": 241,
        "4346": 187,
        "4347": 187,
        "4348": 201,
        "4349": 186,
        "4350": 63,
        "4351": 227,
        "4352": 164,
        "4353": 200,
        "4354": 160,
        "4355": 22,
        "4356": 211,
        "4357": 137,
        "4358": 196,
        "4359": 36,
        "4360": 211,
        "4361": 140,
        "4362": 116,
        "4363": 161,
        "4364": 84,
        "4365": 188,
        "4366": 179,
        "4367": 51,
        "4368": 235,
        "4369": 146,
        "4370": 88,
        "4371": 83,
        "4372": 12,
        "4373": 102,
        "4374": 117,
        "4375": 52,
        "4376": 151,
        "4377": 70,
        "4378": 115,
        "4379": 2,
        "4380": 63,
        "4381": 185,
        "4382": 120,
        "4383": 212,
        "4384": 68,
        "4385": 66,
        "4386": 43,
        "4387": 59,
        "4388": 96,
        "4389": 77,
        "4390": 31,
        "4391": 62,
        "4392": 219,
        "4393": 200,
        "4394": 131,
        "4395": 24,
        "4396": 228,
        "4397": 69,
        "4398": 94,
        "4399": 52,
        "4400": 240,
        "4401": 115,
        "4402": 194,
        "4403": 31,
        "4404": 115,
        "4405": 8,
        "4406": 162,
        "4407": 164,
        "4408": 26,
        "4409": 68,
        "4410": 105,
        "4411": 186,
        "4412": 103,
        "4413": 112,
        "4414": 229,
        "4415": 15,
        "4416": 153,
        "4417": 37,
        "4418": 203,
        "4419": 38,
        "4420": 124,
        "4421": 181,
        "4422": 27,
        "4423": 110,
        "4424": 67,
        "4425": 15,
        "4426": 149,
        "4427": 151,
        "4428": 192,
        "4429": 143,
        "4430": 60,
        "4431": 123,
        "4432": 133,
        "4433": 128,
        "4434": 165,
        "4435": 116,
        "4436": 19,
        "4437": 29,
        "4438": 228,
        "4439": 66,
        "4440": 196,
        "4441": 82,
        "4442": 12,
        "4443": 104,
        "4444": 124,
        "4445": 124,
        "4446": 113,
        "4447": 164,
        "4448": 104,
        "4449": 234,
        "4450": 28,
        "4451": 204,
        "4452": 194,
        "4453": 227,
        "4454": 180,
        "4455": 116,
        "4456": 33,
        "4457": 171,
        "4458": 226,
        "4459": 102,
        "4460": 1,
        "4461": 131,
        "4462": 166,
        "4463": 62,
        "4464": 145,
        "4465": 123,
        "4466": 123,
        "4467": 224,
        "4468": 107,
        "4469": 221,
        "4470": 185,
        "4471": 54,
        "4472": 76,
        "4473": 27,
        "4474": 32,
        "4475": 23,
        "4476": 144,
        "4477": 190,
        "4478": 252,
        "4479": 10,
        "4480": 13,
        "4481": 173,
        "4482": 88,
        "4483": 59,
        "4484": 220,
        "4485": 94,
        "4486": 96,
        "4487": 3,
        "4488": 31,
        "4489": 70,
        "4490": 26,
        "4491": 50,
        "4492": 39,
        "4493": 173,
        "4494": 72,
        "4495": 80,
        "4496": 164,
        "4497": 125,
        "4498": 144,
        "4499": 32,
        "4500": 224,
        "4501": 249,
        "4502": 157,
        "4503": 94,
        "4504": 53,
        "4505": 37,
        "4506": 227,
        "4507": 31,
        "4508": 92,
        "4509": 114,
        "4510": 88,
        "4511": 161,
        "4512": 131,
        "4513": 114,
        "4514": 89,
        "4515": 192,
        "4516": 34,
        "4517": 217,
        "4518": 33,
        "4519": 42,
        "4520": 218,
        "4521": 21,
        "4522": 181,
        "4523": 95,
        "4524": 75,
        "4525": 23,
        "4526": 107,
        "4527": 111,
        "4528": 121,
        "4529": 45,
        "4530": 91,
        "4531": 43,
        "4532": 176,
        "4533": 65,
        "4534": 47,
        "4535": 174,
        "4536": 156,
        "4537": 138,
        "4538": 96,
        "4539": 212,
        "4540": 243,
        "4541": 30,
        "4542": 160,
        "4543": 58,
        "4544": 231,
        "4545": 176,
        "4546": 85,
        "4547": 129,
        "4548": 19,
        "4549": 75,
        "4550": 240,
        "4551": 65,
        "4552": 38,
        "4553": 143,
        "4554": 61,
        "4555": 220,
        "4556": 152,
        "4557": 155,
        "4558": 209,
        "4559": 36,
        "4560": 57,
        "4561": 118,
        "4562": 246,
        "4563": 99,
        "4564": 197,
        "4565": 250,
        "4566": 177,
        "4567": 88,
        "4568": 66,
        "4569": 97,
        "4570": 47,
        "4571": 99,
        "4572": 137,
        "4573": 176,
        "4574": 99,
        "4575": 23,
        "4576": 29,
        "4577": 60,
        "4578": 24,
        "4579": 0,
        "4580": 33,
        "4581": 2,
        "4582": 97,
        "4583": 144,
        "4584": 81,
        "4585": 97,
        "4586": 126,
        "4587": 218,
        "4588": 20,
        "4589": 109,
        "4590": 96,
        "4591": 46,
        "4592": 142,
        "4593": 65,
        "4594": 76,
        "4595": 133,
        "4596": 130,
        "4597": 124,
        "4598": 243,
        "4599": 39,
        "4600": 197,
        "4601": 120,
        "4602": 32,
        "4603": 150,
        "4604": 56,
        "4605": 12,
        "4606": 158,
        "4607": 151,
        "4608": 193,
        "4609": 255,
        "4610": 106,
        "4611": 32,
        "4612": 14,
        "4613": 8,
        "4614": 150,
        "4615": 11,
        "4616": 111,
        "4617": 210,
        "4618": 124,
        "4619": 9,
        "4620": 231,
        "4621": 156,
        "4622": 183,
        "4623": 31,
        "4624": 19,
        "4625": 60,
        "4626": 76,
        "4627": 231,
        "4628": 200,
        "4629": 194,
        "4630": 164,
        "4631": 140,
        "4632": 135,
        "4633": 160,
        "4634": 113,
        "4635": 25,
        "4636": 199,
        "4637": 226,
        "4638": 248,
        "4639": 146,
        "4640": 134,
        "4641": 164,
        "4642": 232,
        "4643": 195,
        "4644": 17,
        "4645": 207,
        "4646": 105,
        "4647": 30,
        "4648": 205,
        "4649": 95,
        "4650": 250,
        "4651": 241,
        "4652": 174,
        "4653": 171,
        "4654": 185,
        "4655": 166,
        "4656": 123,
        "4657": 71,
        "4658": 49,
        "4659": 95,
        "4660": 178,
        "4661": 60,
        "4662": 125,
        "4663": 244,
        "4664": 125,
        "4665": 41,
        "4666": 209,
        "4667": 14,
        "4668": 16,
        "4669": 59,
        "4670": 1,
        "4671": 248,
        "4672": 27,
        "4673": 231,
        "4674": 70,
        "4675": 14,
        "4676": 160,
        "4677": 35,
        "4678": 119,
        "4679": 212,
        "4680": 70,
        "4681": 132,
        "4682": 98,
        "4683": 200,
        "4684": 200,
        "4685": 65,
        "4686": 44,
        "4687": 67,
        "4688": 102,
        "4689": 64,
        "4690": 77,
        "4691": 46,
        "4692": 77,
        "4693": 157,
        "4694": 243,
        "4695": 8,
        "4696": 29,
        "4697": 142,
        "4698": 200,
        "4699": 168,
        "4700": 58,
        "4701": 34,
        "4702": 105,
        "4703": 161,
        "4704": 66,
        "4705": 134,
        "4706": 133,
        "4707": 250,
        "4708": 129,
        "4709": 165,
        "4710": 218,
        "4711": 101,
        "4712": 121,
        "4713": 245,
        "4714": 149,
        "4715": 29,
        "4716": 225,
        "4717": 47,
        "4718": 153,
        "4719": 26,
        "4720": 235,
        "4721": 154,
        "4722": 143,
        "4723": 245,
        "4724": 213,
        "4725": 92,
        "4726": 113,
        "4727": 142,
        "4728": 154,
        "4729": 87,
        "4730": 181,
        "4731": 118,
        "4732": 46,
        "4733": 67,
        "4734": 231,
        "4735": 95,
        "4736": 15,
        "4737": 189,
        "4738": 34,
        "4739": 195,
        "4740": 233,
        "4741": 45,
        "4742": 89,
        "4743": 124,
        "4744": 122,
        "4745": 57,
        "4746": 163,
        "4747": 230,
        "4748": 5,
        "4749": 77,
        "4750": 132,
        "4751": 144,
        "4752": 216,
        "4753": 109,
        "4754": 61,
        "4755": 124,
        "4756": 48,
        "4757": 154,
        "4758": 98,
        "4759": 187,
        "4760": 29,
        "4761": 23,
        "4762": 3,
        "4763": 248,
        "4764": 39,
        "4765": 144,
        "4766": 12,
        "4767": 11,
        "4768": 241,
        "4769": 2,
        "4770": 209,
        "4771": 99,
        "4772": 61,
        "4773": 177,
        "4774": 174,
        "4775": 29,
        "4776": 175,
        "4777": 129,
        "4778": 181,
        "4779": 68,
        "4780": 226,
        "4781": 107,
        "4782": 9,
        "4783": 12,
        "4784": 95,
        "4785": 13,
        "4786": 57,
        "4787": 21,
        "4788": 93,
        "4789": 97,
        "4790": 187,
        "4791": 232,
        "4792": 180,
        "4793": 100,
        "4794": 196,
        "4795": 24,
        "4796": 198,
        "4797": 234,
        "4798": 16,
        "4799": 5,
        "4800": 20,
        "4801": 3,
        "4802": 46,
        "4803": 149,
        "4804": 142,
        "4805": 16,
        "4806": 121,
        "4807": 157,
        "4808": 51,
        "4809": 56,
        "4810": 77,
        "4811": 240,
        "4812": 143,
        "4813": 122,
        "4814": 81,
        "4815": 8,
        "4816": 29,
        "4817": 108,
        "4818": 253,
        "4819": 87,
        "4820": 131,
        "4821": 221,
        "4822": 207,
        "4823": 123,
        "4824": 143,
        "4825": 1,
        "4826": 13,
        "4827": 13,
        "4828": 92,
        "4829": 253,
        "4830": 81,
        "4831": 118,
        "4832": 23,
        "4833": 149,
        "4834": 146,
        "4835": 71,
        "4836": 222,
        "4837": 98,
        "4838": 218,
        "4839": 106,
        "4840": 194,
        "4841": 226,
        "4842": 216,
        "4843": 203,
        "4844": 147,
        "4845": 174,
        "4846": 60,
        "4847": 16,
        "4848": 35,
        "4849": 214,
        "4850": 238,
        "4851": 86,
        "4852": 56,
        "4853": 67,
        "4854": 24,
        "4855": 87,
        "4856": 89,
        "4857": 251,
        "4858": 46,
        "4859": 157,
        "4860": 229,
        "4861": 36,
        "4862": 106,
        "4863": 158,
        "4864": 34,
        "4865": 199,
        "4866": 63,
        "4867": 170,
        "4868": 243,
        "4869": 167,
        "4870": 55,
        "4871": 108,
        "4872": 48,
        "4873": 48,
        "4874": 90,
        "4875": 213,
        "4876": 43,
        "4877": 92,
        "4878": 246,
        "4879": 178,
        "4880": 145,
        "4881": 57,
        "4882": 179,
        "4883": 63,
        "4884": 114,
        "4885": 191,
        "4886": 176,
        "4887": 109,
        "4888": 57,
        "4889": 211,
        "4890": 123,
        "4891": 251,
        "4892": 220,
        "4893": 228,
        "4894": 100,
        "4895": 173,
        "4896": 153,
        "4897": 253,
        "4898": 175,
        "4899": 86,
        "4900": 138,
        "4901": 103,
        "4902": 3,
        "4903": 13,
        "4904": 150,
        "4905": 81,
        "4906": 9,
        "4907": 65,
        "4908": 146,
        "4909": 211,
        "4910": 129,
        "4911": 25,
        "4912": 162,
        "4913": 152,
        "4914": 120,
        "4915": 3,
        "4916": 163,
        "4917": 20,
        "4918": 223,
        "4919": 242,
        "4920": 79,
        "4921": 150,
        "4922": 177,
        "4923": 103,
        "4924": 195,
        "4925": 170,
        "4926": 79,
        "4927": 221,
        "4928": 69,
        "4929": 227,
        "4930": 200,
        "4931": 126,
        "4932": 162,
        "4933": 81,
        "4934": 11,
        "4935": 101,
        "4936": 253,
        "4937": 49,
        "4938": 53,
        "4939": 196,
        "4940": 134,
        "4941": 83,
        "4942": 42,
        "4943": 151,
        "4944": 114,
        "4945": 161,
        "4946": 157,
        "4947": 240,
        "4948": 107,
        "4949": 128,
        "4950": 143,
        "4951": 245,
        "4952": 230,
        "4953": 246,
        "4954": 164,
        "4955": 142,
        "4956": 91,
        "4957": 16,
        "4958": 152,
        "4959": 110,
        "4960": 228,
        "4961": 221,
        "4962": 205,
        "4963": 242,
        "4964": 60,
        "4965": 244,
        "4966": 160,
        "4967": 49,
        "4968": 30,
        "4969": 165,
        "4970": 222,
        "4971": 170,
        "4972": 115,
        "4973": 169,
        "4974": 131,
        "4975": 207,
        "4976": 126,
        "4977": 179,
        "4978": 117,
        "4979": 140,
        "4980": 95,
        "4981": 154,
        "4982": 36,
        "4983": 101,
        "4984": 196,
        "4985": 17,
        "4986": 119,
        "4987": 14,
        "4988": 83,
        "4989": 239,
        "4990": 226,
        "4991": 234,
        "4992": 41,
        "4993": 26,
        "4994": 102,
        "4995": 54,
        "4996": 233,
        "4997": 30,
        "4998": 229,
        "4999": 117,
        "5000": 183,
        "5001": 189,
        "5002": 69,
        "5003": 4,
        "5004": 31,
        "5005": 93,
        "5006": 131,
        "5007": 20,
        "5008": 12,
        "5009": 253,
        "5010": 239,
        "5011": 1,
        "5012": 66,
        "5013": 126,
        "5014": 192,
        "5015": 243,
        "5016": 208,
        "5017": 202,
        "5018": 240,
        "5019": 185,
        "5020": 182,
        "5021": 226,
        "5022": 55,
        "5023": 121,
        "5024": 150,
        "5025": 190,
        "5026": 42,
        "5027": 82,
        "5028": 222,
        "5029": 231,
        "5030": 88,
        "5031": 0,
        "5032": 254,
        "5033": 174,
        "5034": 224,
        "5035": 152,
        "5036": 97,
        "5037": 128,
        "5038": 144,
        "5039": 209,
        "5040": 221,
        "5041": 238,
        "5042": 193,
        "5043": 113,
        "5044": 31,
        "5045": 175,
        "5046": 252,
        "5047": 32,
        "5048": 178,
        "5049": 34,
        "5050": 23,
        "5051": 187,
        "5052": 240,
        "5053": 62,
        "5054": 76,
        "5055": 114,
        "5056": 108,
        "5057": 118,
        "5058": 173,
        "5059": 44,
        "5060": 213,
        "5061": 151,
        "5062": 26,
        "5063": 245,
        "5064": 70,
        "5065": 235,
        "5066": 4,
        "5067": 173,
        "5068": 11,
        "5069": 248,
        "5070": 180,
        "5071": 254,
        "5072": 67,
        "5073": 161,
        "5074": 176,
        "5075": 65,
        "5076": 47,
        "5077": 166,
        "5078": 155,
        "5079": 230,
        "5080": 232,
        "5081": 189,
        "5082": 247,
        "5083": 253,
        "5084": 83,
        "5085": 251,
        "5086": 177,
        "5087": 190,
        "5088": 169,
        "5089": 18,
        "5090": 149,
        "5091": 92,
        "5092": 134,
        "5093": 6,
        "5094": 132,
        "5095": 28,
        "5096": 99,
        "5097": 32,
        "5098": 120,
        "5099": 19,
        "5100": 166,
        "5101": 213,
        "5102": 101,
        "5103": 158,
        "5104": 66,
        "5105": 106,
        "5106": 81,
        "5107": 117,
        "5108": 29,
        "5109": 192,
        "5110": 137,
        "5111": 102,
        "5112": 212,
        "5113": 187,
        "5114": 232,
        "5115": 23,
        "5116": 152,
        "5117": 21,
        "5118": 98,
        "5119": 105,
        "5120": 196,
        "5121": 189,
        "5122": 208,
        "5123": 245,
        "5124": 153,
        "5125": 171,
        "5126": 0,
        "5127": 238,
        "5128": 182,
        "5129": 171,
        "5130": 1,
        "5131": 237,
        "5132": 23,
        "5133": 188,
        "5134": 140,
        "5135": 86,
        "5136": 202,
        "5137": 74,
        "5138": 106,
        "5139": 121,
        "5140": 240,
        "5141": 36,
        "5142": 18,
        "5143": 253,
        "5144": 102,
        "5145": 92,
        "5146": 90,
        "5147": 184,
        "5148": 211,
        "5149": 33,
        "5150": 185,
        "5151": 192,
        "5152": 114,
        "5153": 45,
        "5154": 88,
        "5155": 77,
        "5156": 225,
        "5157": 100,
        "5158": 150,
        "5159": 232,
        "5160": 247,
        "5161": 192,
        "5162": 229,
        "5163": 82,
        "5164": 17,
        "5165": 155,
        "5166": 78,
        "5167": 68,
        "5168": 32,
        "5169": 91,
        "5170": 242,
        "5171": 66,
        "5172": 51,
        "5173": 50,
        "5174": 210,
        "5175": 65,
        "5176": 231,
        "5177": 120,
        "5178": 56,
        "5179": 118,
        "5180": 147,
        "5181": 6,
        "5182": 244,
        "5183": 244,
        "5184": 48,
        "5185": 165,
        "5186": 188,
        "5187": 11,
        "5188": 116,
        "5189": 171,
        "5190": 135,
        "5191": 36,
        "5192": 85,
        "5193": 154,
        "5194": 88,
        "5195": 25,
        "5196": 68,
        "5197": 12,
        "5198": 91,
        "5199": 196,
        "5200": 67,
        "5201": 68,
        "5202": 219,
        "5203": 191,
        "5204": 198,
        "5205": 145,
        "5206": 93,
        "5207": 161,
        "5208": 157,
        "5209": 184,
        "5210": 205,
        "5211": 44,
        "5212": 89,
        "5213": 65,
        "5214": 13,
        "5215": 23,
        "5216": 207,
        "5217": 41,
        "5218": 50,
        "5219": 249,
        "5220": 57,
        "5221": 124,
        "5222": 204,
        "5223": 214,
        "5224": 199,
        "5225": 33,
        "5226": 53,
        "5227": 141,
        "5228": 17,
        "5229": 19,
        "5230": 96,
        "5231": 99,
        "5232": 149,
        "5233": 82,
        "5234": 26,
        "5235": 37,
        "5236": 222,
        "5237": 3,
        "5238": 66,
        "5239": 226,
        "5240": 192,
        "5241": 52,
        "5242": 153,
        "5243": 121,
        "5244": 190,
        "5245": 209,
        "5246": 107,
        "5247": 194,
        "5248": 162,
        "5249": 211,
        "5250": 188,
        "5251": 216,
        "5252": 45,
        "5253": 48,
        "5254": 99,
        "5255": 128,
        "5256": 184,
        "5257": 100,
        "5258": 246,
        "5259": 100,
        "5260": 48,
        "5261": 246,
        "5262": 199,
        "5263": 236,
        "5264": 148,
        "5265": 221,
        "5266": 172,
        "5267": 130,
        "5268": 61,
        "5269": 250,
        "5270": 226,
        "5271": 223,
        "5272": 24,
        "5273": 239,
        "5274": 114,
        "5275": 127,
        "5276": 114,
        "5277": 166,
        "5278": 44,
        "5279": 215,
        "5280": 207,
        "5281": 13,
        "5282": 211,
        "5283": 46,
        "5284": 19,
        "5285": 220,
        "5286": 222,
        "5287": 229,
        "5288": 151,
        "5289": 193,
        "5290": 228,
        "5291": 28,
        "5292": 19,
        "5293": 23,
        "5294": 252,
        "5295": 34,
        "5296": 69,
        "5297": 111,
        "5298": 38,
        "5299": 32,
        "5300": 111,
        "5301": 97,
        "5302": 7,
        "5303": 233,
        "5304": 244,
        "5305": 105,
        "5306": 234,
        "5307": 141,
        "5308": 16,
        "5309": 157,
        "5310": 3,
        "5311": 113,
        "5312": 92,
        "5313": 73,
        "5314": 25,
        "5315": 227,
        "5316": 165,
        "5317": 200,
        "5318": 175,
        "5319": 123,
        "5320": 245,
        "5321": 140,
        "5322": 175,
        "5323": 42,
        "5324": 171,
        "5325": 169,
        "5326": 146,
        "5327": 116,
        "5328": 149,
        "5329": 175,
        "5330": 211,
        "5331": 26,
        "5332": 60,
        "5333": 20,
        "5334": 16,
        "5335": 109,
        "5336": 103,
        "5337": 169,
        "5338": 34,
        "5339": 49,
        "5340": 38,
        "5341": 97,
        "5342": 49,
        "5343": 32,
        "5344": 110,
        "5345": 21,
        "5346": 178,
        "5347": 255,
        "5348": 193,
        "5349": 131,
        "5350": 251,
        "5351": 250,
        "5352": 62,
        "5353": 52,
        "5354": 64,
        "5355": 205,
        "5356": 81,
        "5357": 0,
        "5358": 186,
        "5359": 164,
        "5360": 228,
        "5361": 248,
        "5362": 194,
        "5363": 219,
        "5364": 232,
        "5365": 223,
        "5366": 136,
        "5367": 145,
        "5368": 81,
        "5369": 110,
        "5370": 161,
        "5371": 112,
        "5372": 177,
        "5373": 96,
        "5374": 185,
        "5375": 59,
        "5376": 57,
        "5377": 164,
        "5378": 242,
        "5379": 40,
        "5380": 108,
        "5381": 16,
        "5382": 246,
        "5383": 237,
        "5384": 37,
        "5385": 5,
        "5386": 117,
        "5387": 222,
        "5388": 168,
        "5389": 61,
        "5390": 2,
        "5391": 79,
        "5392": 171,
        "5393": 210,
        "5394": 87,
        "5395": 210,
        "5396": 108,
        "5397": 167,
        "5398": 139,
        "5399": 134,
        "5400": 158,
        "5401": 78,
        "5402": 175,
        "5403": 69,
        "5404": 195,
        "5405": 57,
        "5406": 211,
        "5407": 28,
        "5408": 180,
        "5409": 142,
        "5410": 214,
        "5411": 158,
        "5412": 222,
        "5413": 44,
        "5414": 156,
        "5415": 193,
        "5416": 108,
        "5417": 129,
        "5418": 241,
        "5419": 156,
        "5420": 248,
        "5421": 237,
        "5422": 218,
        "5423": 221,
        "5424": 44,
        "5425": 90,
        "5426": 108,
        "5427": 241,
        "5428": 198,
        "5429": 1,
        "5430": 87,
        "5431": 158,
        "5432": 50,
        "5433": 218,
        "5434": 208,
        "5435": 169,
        "5436": 227,
        "5437": 253,
        "5438": 184,
        "5439": 19,
        "5440": 135,
        "5441": 1,
        "5442": 224,
        "5443": 29,
        "5444": 218,
        "5445": 126,
        "5446": 253,
        "5447": 246,
        "5448": 56,
        "5449": 3,
        "5450": 177,
        "5451": 103,
        "5452": 12,
        "5453": 216,
        "5454": 98,
        "5455": 250,
        "5456": 9,
        "5457": 204,
        "5458": 22,
        "5459": 65,
        "5460": 215,
        "5461": 18,
        "5462": 198,
        "5463": 88,
        "5464": 198,
        "5465": 193,
        "5466": 128,
        "5467": 112,
        "5468": 10,
        "5469": 52,
        "5470": 184,
        "5471": 61,
        "5472": 110,
        "5473": 114,
        "5474": 131,
        "5475": 154,
        "5476": 238,
        "5477": 180,
        "5478": 145,
        "5479": 199,
        "5480": 5,
        "5481": 252,
        "5482": 191,
        "5483": 41,
        "5484": 36,
        "5485": 163,
        "5486": 27,
        "5487": 185,
        "5488": 57,
        "5489": 91,
        "5490": 33,
        "5491": 54,
        "5492": 72,
        "5493": 102,
        "5494": 119,
        "5495": 202,
        "5496": 118,
        "5497": 174,
        "5498": 215,
        "5499": 198,
        "5500": 59,
        "5501": 234,
        "5502": 36,
        "5503": 69,
        "5504": 121,
        "5505": 162,
        "5506": 222,
        "5507": 41,
        "5508": 233,
        "5509": 183,
        "5510": 254,
        "5511": 237,
        "5512": 226,
        "5513": 194,
        "5514": 91,
        "5515": 98,
        "5516": 67,
        "5517": 129,
        "5518": 194,
        "5519": 179,
        "5520": 120,
        "5521": 165,
        "5522": 167,
        "5523": 184,
        "5524": 18,
        "5525": 1,
        "5526": 177,
        "5527": 33,
        "5528": 231,
        "5529": 188,
        "5530": 226,
        "5531": 73,
        "5532": 160,
        "5533": 82,
        "5534": 184,
        "5535": 166,
        "5536": 190,
        "5537": 143,
        "5538": 59,
        "5539": 155,
        "5540": 40,
        "5541": 138,
        "5542": 36,
        "5543": 101,
        "5544": 201,
        "5545": 217,
        "5546": 207,
        "5547": 48,
        "5548": 207,
        "5549": 57,
        "5550": 242,
        "5551": 163,
        "5552": 73,
        "5553": 250,
        "5554": 197,
        "5555": 149,
        "5556": 211,
        "5557": 173,
        "5558": 157,
        "5559": 245,
        "5560": 19,
        "5561": 247,
        "5562": 202,
        "5563": 5,
        "5564": 67,
        "5565": 135,
        "5566": 156,
        "5567": 170,
        "5568": 199,
        "5569": 225,
        "5570": 10,
        "5571": 238,
        "5572": 29,
        "5573": 232,
        "5574": 72,
        "5575": 58,
        "5576": 140,
        "5577": 203,
        "5578": 206,
        "5579": 229,
        "5580": 148,
        "5581": 75,
        "5582": 91,
        "5583": 105,
        "5584": 39,
        "5585": 71,
        "5586": 16,
        "5587": 113,
        "5588": 159,
        "5589": 120,
        "5590": 202,
        "5591": 60,
        "5592": 61,
        "5593": 202,
        "5594": 74,
        "5595": 159,
        "5596": 85,
        "5597": 219,
        "5598": 252,
        "5599": 159,
        "5600": 113,
        "5601": 153,
        "5602": 211,
        "5603": 146,
        "5604": 18,
        "5605": 102,
        "5606": 182,
        "5607": 183,
        "5608": 22,
        "5609": 255,
        "5610": 143,
        "5611": 107,
        "5612": 250,
        "5613": 75,
        "5614": 8,
        "5615": 253,
        "5616": 85,
        "5617": 232,
        "5618": 120,
        "5619": 110,
        "5620": 78,
        "5621": 141,
        "5622": 107,
        "5623": 155,
        "5624": 180,
        "5625": 57,
        "5626": 142,
        "5627": 15,
        "5628": 245,
        "5629": 20,
        "5630": 193,
        "5631": 230,
        "5632": 152,
        "5633": 81,
        "5634": 56,
        "5635": 11,
        "5636": 201,
        "5637": 117,
        "5638": 169,
        "5639": 196,
        "5640": 114,
        "5641": 73,
        "5642": 145,
        "5643": 238,
        "5644": 44,
        "5645": 28,
        "5646": 50,
        "5647": 232,
        "5648": 177,
        "5649": 95,
        "5650": 57,
        "5651": 225,
        "5652": 61,
        "5653": 174,
        "5654": 166,
        "5655": 172,
        "5656": 16,
        "5657": 19,
        "5658": 45,
        "5659": 135,
        "5660": 160,
        "5661": 80,
        "5662": 208,
        "5663": 108,
        "5664": 130,
        "5665": 226,
        "5666": 77,
        "5667": 96,
        "5668": 243,
        "5669": 14,
        "5670": 66,
        "5671": 194,
        "5672": 230,
        "5673": 67,
        "5674": 150,
        "5675": 99,
        "5676": 197,
        "5677": 138,
        "5678": 151,
        "5679": 91,
        "5680": 162,
        "5681": 240,
        "5682": 36,
        "5683": 160,
        "5684": 97,
        "5685": 3,
        "5686": 211,
        "5687": 19,
        "5688": 170,
        "5689": 0,
        "5690": 81,
        "5691": 0,
        "5692": 129,
        "5693": 228,
        "5694": 250,
        "5695": 247,
        "5696": 25,
        "5697": 16,
        "5698": 98,
        "5699": 106,
        "5700": 28,
        "5701": 16,
        "5702": 119,
        "5703": 159,
        "5704": 149,
        "5705": 184,
        "5706": 99,
        "5707": 209,
        "5708": 72,
        "5709": 114,
        "5710": 219,
        "5711": 176,
        "5712": 121,
        "5713": 126,
        "5714": 234,
        "5715": 155,
        "5716": 70,
        "5717": 4,
        "5718": 57,
        "5719": 72,
        "5720": 63,
        "5721": 155,
        "5722": 64,
        "5723": 228,
        "5724": 4,
        "5725": 237,
        "5726": 154,
        "5727": 168,
        "5728": 124,
        "5729": 144,
        "5730": 87,
        "5731": 168,
        "5732": 66,
        "5733": 9,
        "5734": 120,
        "5735": 201,
        "5736": 100,
        "5737": 91,
        "5738": 150,
        "5739": 252,
        "5740": 226,
        "5741": 79,
        "5742": 184,
        "5743": 158,
        "5744": 159,
        "5745": 206,
        "5746": 27,
        "5747": 100,
        "5748": 239,
        "5749": 69,
        "5750": 201,
        "5751": 31,
        "5752": 239,
        "5753": 231,
        "5754": 146,
        "5755": 145,
        "5756": 69,
        "5757": 204,
        "5758": 163,
        "5759": 224,
        "5760": 211,
        "5761": 28,
        "5762": 255,
        "5763": 92,
        "5764": 159,
        "5765": 150,
        "5766": 189,
        "5767": 231,
        "5768": 171,
        "5769": 240,
        "5770": 59,
        "5771": 128,
        "5772": 72,
        "5773": 138,
        "5774": 27,
        "5775": 32,
        "5776": 84,
        "5777": 233,
        "5778": 94,
        "5779": 3,
        "5780": 147,
        "5781": 59,
        "5782": 170,
        "5783": 104,
        "5784": 169,
        "5785": 246,
        "5786": 119,
        "5787": 245,
        "5788": 161,
        "5789": 232,
        "5790": 242,
        "5791": 32,
        "5792": 51,
        "5793": 250,
        "5794": 35,
        "5795": 0,
        "5796": 207,
        "5797": 103,
        "5798": 66,
        "5799": 40,
        "5800": 226,
        "5801": 53,
        "5802": 179,
        "5803": 60,
        "5804": 46,
        "5805": 119,
        "5806": 14,
        "5807": 63,
        "5808": 175,
        "5809": 153,
        "5810": 144,
        "5811": 142,
        "5812": 217,
        "5813": 180,
        "5814": 23,
        "5815": 75,
        "5816": 77,
        "5817": 246,
        "5818": 132,
        "5819": 58,
        "5820": 228,
        "5821": 37,
        "5822": 181,
        "5823": 106,
        "5824": 1,
        "5825": 185,
        "5826": 203,
        "5827": 74,
        "5828": 248,
        "5829": 31,
        "5830": 121,
        "5831": 21,
        "5832": 109,
        "5833": 183,
        "5834": 66,
        "5835": 253,
        "5836": 156,
        "5837": 187,
        "5838": 57,
        "5839": 52,
        "5840": 161,
        "5841": 217,
        "5842": 15,
        "5843": 74,
        "5844": 106,
        "5845": 55,
        "5846": 192,
        "5847": 155,
        "5848": 109,
        "5849": 17,
        "5850": 225,
        "5851": 111,
        "5852": 99,
        "5853": 122,
        "5854": 44,
        "5855": 126,
        "5856": 180,
        "5857": 83,
        "5858": 200,
        "5859": 138,
        "5860": 16,
        "5861": 162,
        "5862": 182,
        "5863": 183,
        "5864": 49,
        "5865": 34,
        "5866": 251,
        "5867": 30,
        "5868": 196,
        "5869": 170,
        "5870": 8,
        "5871": 115,
        "5872": 234,
        "5873": 31,
        "5874": 203,
        "5875": 169,
        "5876": 174,
        "5877": 31,
        "5878": 73,
        "5879": 215,
        "5880": 219,
        "5881": 35,
        "5882": 11,
        "5883": 16,
        "5884": 152,
        "5885": 198,
        "5886": 27,
        "5887": 46,
        "5888": 33,
        "5889": 14,
        "5890": 245,
        "5891": 155,
        "5892": 192,
        "5893": 133,
        "5894": 14,
        "5895": 189,
        "5896": 173,
        "5897": 173,
        "5898": 115,
        "5899": 223,
        "5900": 123,
        "5901": 142,
        "5902": 147,
        "5903": 219,
        "5904": 172,
        "5905": 196,
        "5906": 106,
        "5907": 179,
        "5908": 45,
        "5909": 79,
        "5910": 238,
        "5911": 123,
        "5912": 1,
        "5913": 142,
        "5914": 252,
        "5915": 140,
        "5916": 165,
        "5917": 180,
        "5918": 210,
        "5919": 51,
        "5920": 130,
        "5921": 181,
        "5922": 85,
        "5923": 78,
        "5924": 211,
        "5925": 128,
        "5926": 151,
        "5927": 124,
        "5928": 91,
        "5929": 114,
        "5930": 123,
        "5931": 91,
        "5932": 219,
        "5933": 8,
        "5934": 108,
        "5935": 105,
        "5936": 112,
        "5937": 152,
        "5938": 137,
        "5939": 149,
        "5940": 89,
        "5941": 36,
        "5942": 15,
        "5943": 252,
        "5944": 83,
        "5945": 240,
        "5946": 216,
        "5947": 179,
        "5948": 141,
        "5949": 175,
        "5950": 39,
        "5951": 191,
        "5952": 98,
        "5953": 246,
        "5954": 95,
        "5955": 208,
        "5956": 147,
        "5957": 204,
        "5958": 32,
        "5959": 206,
        "5960": 185,
        "5961": 42,
        "5962": 109,
        "5963": 174,
        "5964": 153,
        "5965": 164,
        "5966": 247,
        "5967": 176,
        "5968": 133,
        "5969": 230,
        "5970": 129,
        "5971": 243,
        "5972": 204,
        "5973": 118,
        "5974": 181,
        "5975": 156,
        "5976": 76,
        "5977": 92,
        "5978": 139,
        "5979": 144,
        "5980": 172,
        "5981": 37,
        "5982": 51,
        "5983": 251,
        "5984": 64,
        "5985": 179,
        "5986": 103,
        "5987": 37,
        "5988": 100,
        "5989": 179,
        "5990": 189,
        "5991": 127,
        "5992": 144,
        "5993": 57,
        "5994": 206,
        "5995": 93,
        "5996": 246,
        "5997": 113,
        "5998": 61,
        "5999": 214,
        "6000": 39,
        "6001": 211,
        "6002": 176,
        "6003": 32,
        "6004": 253,
        "6005": 60,
        "6006": 205,
        "6007": 63,
        "6008": 14,
        "6009": 177,
        "6010": 185,
        "6011": 175,
        "6012": 126,
        "6013": 18,
        "6014": 0,
        "6015": 0,
        "6016": 96,
        "6017": 24,
        "6018": 225,
        "6019": 156,
        "6020": 239,
        "6021": 145,
        "6022": 13,
        "6023": 80,
        "6024": 159,
        "6025": 206,
        "6026": 73,
        "6027": 145,
        "6028": 151,
        "6029": 109,
        "6030": 129,
        "6031": 167,
        "6032": 50,
        "6033": 168,
        "6034": 210,
        "6035": 47,
        "6036": 250,
        "6037": 165,
        "6038": 103,
        "6039": 10,
        "6040": 167,
        "6041": 6,
        "6042": 167,
        "6043": 135,
        "6044": 109,
        "6045": 189,
        "6046": 15,
        "6047": 99,
        "6048": 209,
        "6049": 53,
        "6050": 194,
        "6051": 204,
        "6052": 184,
        "6053": 50,
        "6054": 137,
        "6055": 146,
        "6056": 219,
        "6057": 35,
        "6058": 227,
        "6059": 65,
        "6060": 38,
        "6061": 253,
        "6062": 104,
        "6063": 87,
        "6064": 127,
        "6065": 58,
        "6066": 251,
        "6067": 207,
        "6068": 240,
        "6069": 30,
        "6070": 148,
        "6071": 190,
        "6072": 11,
        "6073": 208,
        "6074": 15,
        "6075": 65,
        "6076": 133,
        "6077": 199,
        "6078": 51,
        "6079": 170,
        "6080": 2,
        "6081": 109,
        "6082": 35,
        "6083": 103,
        "6084": 183,
        "6085": 19,
        "6086": 34,
        "6087": 34,
        "6088": 215,
        "6089": 170,
        "6090": 39,
        "6091": 172,
        "6092": 123,
        "6093": 102,
        "6094": 241,
        "6095": 92,
        "6096": 64,
        "6097": 107,
        "6098": 100,
        "6099": 52,
        "6100": 218,
        "6101": 41,
        "6102": 235,
        "6103": 203,
        "6104": 175,
        "6105": 234,
        "6106": 40,
        "6107": 253,
        "6108": 146,
        "6109": 194,
        "6110": 135,
        "6111": 154,
        "6112": 253,
        "6113": 253,
        "6114": 147,
        "6115": 194,
        "6116": 142,
        "6117": 55,
        "6118": 165,
        "6119": 219,
        "6120": 127,
        "6121": 105,
        "6122": 181,
        "6123": 248,
        "6124": 17,
        "6125": 73,
        "6126": 185,
        "6127": 73,
        "6128": 165,
        "6129": 240,
        "6130": 225,
        "6131": 143,
        "6132": 177,
        "6133": 236,
        "6134": 7,
        "6135": 24,
        "6136": 64,
        "6137": 212,
        "6138": 11,
        "6139": 192,
        "6140": 72,
        "6141": 157,
        "6142": 8,
        "6143": 220,
        "6144": 85,
        "6145": 101,
        "6146": 92,
        "6147": 32,
        "6148": 147,
        "6149": 208,
        "6150": 77,
        "6151": 15,
        "6152": 60,
        "6153": 114,
        "6154": 128,
        "6155": 55,
        "6156": 222,
        "6157": 250,
        "6158": 217,
        "6159": 190,
        "6160": 135,
        "6161": 45,
        "6162": 109,
        "6163": 199,
        "6164": 90,
        "6165": 109,
        "6166": 125,
        "6167": 146,
        "6168": 190,
        "6169": 166,
        "6170": 117,
        "6171": 182,
        "6172": 12,
        "6173": 146,
        "6174": 10,
        "6175": 129,
        "6176": 8,
        "6177": 196,
        "6178": 216,
        "6179": 26,
        "6180": 251,
        "6181": 212,
        "6182": 61,
        "6183": 47,
        "6184": 207,
        "6185": 7,
        "6186": 0,
        "6187": 68,
        "6188": 223,
        "6189": 168,
        "6190": 226,
        "6191": 88,
        "6192": 237,
        "6193": 163,
        "6194": 140,
        "6195": 59,
        "6196": 251,
        "6197": 161,
        "6198": 193,
        "6199": 63,
        "6200": 97,
        "6201": 229,
        "6202": 27,
        "6203": 107,
        "6204": 92,
        "6205": 191,
        "6206": 189,
        "6207": 231,
        "6208": 144,
        "6209": 166,
        "6210": 103,
        "6211": 22,
        "6212": 71,
        "6213": 108,
        "6214": 102,
        "6215": 106,
        "6216": 203,
        "6217": 88,
        "6218": 82,
        "6219": 154,
        "6220": 103,
        "6221": 110,
        "6222": 48,
        "6223": 144,
        "6224": 39,
        "6225": 15,
        "6226": 167,
        "6227": 107,
        "6228": 48,
        "6229": 54,
        "6230": 207,
        "6231": 78,
        "6232": 51,
        "6233": 239,
        "6234": 146,
        "6235": 85,
        "6236": 207,
        "6237": 110,
        "6238": 130,
        "6239": 191,
        "6240": 195,
        "6241": 108,
        "6242": 38,
        "6243": 141,
        "6244": 114,
        "6245": 194,
        "6246": 134,
        "6247": 176,
        "6248": 170,
        "6249": 109,
        "6250": 77,
        "6251": 102,
        "6252": 49,
        "6253": 157,
        "6254": 174,
        "6255": 219,
        "6256": 116,
        "6257": 208,
        "6258": 193,
        "6259": 3,
        "6260": 126,
        "6261": 114,
        "6262": 117,
        "6263": 93,
        "6264": 147,
        "6265": 150,
        "6266": 181,
        "6267": 141,
        "6268": 116,
        "6269": 27,
        "6270": 17,
        "6271": 133,
        "6272": 82,
        "6273": 89,
        "6274": 202,
        "6275": 231,
        "6276": 95,
        "6277": 47,
        "6278": 234,
        "6279": 238,
        "6280": 85,
        "6281": 101,
        "6282": 79,
        "6283": 172,
        "6284": 229,
        "6285": 181,
        "6286": 70,
        "6287": 46,
        "6288": 142,
        "6289": 233,
        "6290": 201,
        "6291": 202,
        "6292": 160,
        "6293": 67,
        "6294": 147,
        "6295": 254,
        "6296": 226,
        "6297": 10,
        "6298": 115,
        "6299": 17,
        "6300": 185,
        "6301": 43,
        "6302": 120,
        "6303": 207,
        "6304": 131,
        "6305": 249,
        "6306": 143,
        "6307": 120,
        "6308": 1,
        "6309": 249,
        "6310": 210,
        "6311": 221,
        "6312": 142,
        "6313": 129,
        "6314": 248,
        "6315": 190,
        "6316": 25,
        "6317": 160,
        "6318": 194,
        "6319": 239,
        "6320": 142,
        "6321": 13,
        "6322": 80,
        "6323": 249,
        "6324": 34,
        "6325": 83,
        "6326": 173,
        "6327": 153,
        "6328": 130,
        "6329": 205,
        "6330": 225,
        "6331": 128,
        "6332": 191,
        "6333": 134,
        "6334": 127,
        "6335": 0,
        "6336": 178,
        "6337": 31,
        "6338": 117,
        "6339": 97,
        "6340": 104,
        "6341": 139,
        "6342": 135,
        "6343": 150,
        "6344": 141,
        "6345": 0,
        "6346": 251,
        "6347": 32,
        "6348": 126,
        "6349": 60,
        "6350": 139,
        "6351": 193,
        "6352": 190,
        "6353": 175,
        "6354": 200,
        "6355": 222,
        "6356": 254,
        "6357": 135,
        "6358": 241,
        "6359": 27,
        "6360": 115,
        "6361": 22,
        "6362": 131,
        "6363": 15,
        "6364": 228,
        "6365": 55,
        "6366": 217,
        "6367": 169,
        "6368": 104,
        "6369": 141,
        "6370": 236,
        "6371": 237,
        "6372": 92,
        "6373": 7,
        "6374": 93,
        "6375": 121,
        "6376": 23,
        "6377": 104,
        "6378": 8,
        "6379": 191,
        "6380": 135,
        "6381": 203,
        "6382": 224,
        "6383": 25,
        "6384": 107,
        "6385": 42,
        "6386": 217,
        "6387": 109,
        "6388": 69,
        "6389": 10,
        "6390": 63,
        "6391": 155,
        "6392": 156,
        "6393": 57,
        "6394": 103,
        "6395": 182,
        "6396": 64,
        "6397": 127,
        "6398": 81,
        "6399": 132,
        "6400": 68,
        "6401": 29,
        "6402": 233,
        "6403": 134,
        "6404": 205,
        "6405": 231,
        "6406": 150,
        "6407": 205,
        "6408": 30,
        "6409": 126,
        "6410": 216,
        "6411": 221,
        "6412": 155,
        "6413": 189,
        "6414": 139,
        "6415": 236,
        "6416": 250,
        "6417": 225,
        "6418": 237,
        "6419": 104,
        "6420": 195,
        "6421": 23,
        "6422": 17,
        "6423": 95,
        "6424": 87,
        "6425": 24,
        "6426": 248,
        "6427": 40,
        "6428": 37,
        "6429": 155,
        "6430": 242,
        "6431": 75,
        "6432": 224,
        "6433": 86,
        "6434": 183,
        "6435": 194,
        "6436": 212,
        "6437": 178,
        "6438": 203,
        "6439": 17,
        "6440": 104,
        "6441": 197,
        "6442": 254,
        "6443": 209,
        "6444": 230,
        "6445": 131,
        "6446": 203,
        "6447": 63,
        "6448": 228,
        "6449": 64,
        "6450": 68,
        "6451": 133,
        "6452": 226,
        "6453": 60,
        "6454": 44,
        "6455": 238,
        "6456": 92,
        "6457": 164,
        "6458": 10,
        "6459": 88,
        "6460": 195,
        "6461": 118,
        "6462": 205,
        "6463": 2,
        "6464": 39,
        "6465": 165,
        "6466": 125,
        "6467": 204,
        "6468": 50,
        "6469": 244,
        "6470": 159,
        "6471": 58,
        "6472": 127,
        "6473": 105,
        "6474": 169,
        "6475": 214,
        "6476": 62,
        "6477": 146,
        "6478": 185,
        "6479": 52,
        "6480": 209,
        "6481": 103,
        "6482": 120,
        "6483": 18,
        "6484": 175,
        "6485": 60,
        "6486": 65,
        "6487": 5,
        "6488": 59,
        "6489": 139,
        "6490": 96,
        "6491": 127,
        "6492": 44,
        "6493": 4,
        "6494": 62,
        "6495": 218,
        "6496": 185,
        "6497": 189,
        "6498": 170,
        "6499": 93,
        "6500": 47,
        "6501": 120,
        "6502": 149,
        "6503": 218,
        "6504": 69,
        "6505": 81,
        "6506": 95,
        "6507": 90,
        "6508": 79,
        "6509": 239,
        "6510": 179,
        "6511": 195,
        "6512": 12,
        "6513": 56,
        "6514": 100,
        "6515": 227,
        "6516": 144,
        "6517": 13,
        "6518": 34,
        "6519": 190,
        "6520": 244,
        "6521": 244,
        "6522": 212,
        "6523": 49,
        "6524": 105,
        "6525": 25,
        "6526": 115,
        "6527": 250,
        "6528": 232,
        "6529": 162,
        "6530": 255,
        "6531": 24,
        "6532": 0,
        "6533": 24,
        "6534": 224,
        "6535": 237,
        "6536": 157,
        "6537": 158,
        "6538": 246,
        "6539": 192,
        "6540": 16,
        "6541": 155,
        "6542": 166,
        "6543": 202,
        "6544": 119,
        "6545": 178,
        "6546": 57,
        "6547": 80,
        "6548": 228,
        "6549": 247,
        "6550": 37,
        "6551": 205,
        "6552": 116,
        "6553": 156,
        "6554": 209,
        "6555": 125,
        "6556": 181,
        "6557": 53,
        "6558": 4,
        "6559": 93,
        "6560": 17,
        "6561": 93,
        "6562": 169,
        "6563": 110,
        "6564": 42,
        "6565": 147,
        "6566": 71,
        "6567": 234,
        "6568": 37,
        "6569": 167,
        "6570": 178,
        "6571": 193,
        "6572": 28,
        "6573": 79,
        "6574": 238,
        "6575": 45,
        "6576": 51,
        "6577": 171,
        "6578": 188,
        "6579": 126,
        "6580": 7,
        "6581": 244,
        "6582": 109,
        "6583": 112,
        "6584": 128,
        "6585": 50,
        "6586": 15,
        "6587": 202,
        "6588": 50,
        "6589": 34,
        "6590": 109,
        "6591": 95,
        "6592": 234,
        "6593": 25,
        "6594": 66,
        "6595": 193,
        "6596": 119,
        "6597": 220,
        "6598": 75,
        "6599": 208,
        "6600": 98,
        "6601": 175,
        "6602": 95,
        "6603": 242,
        "6604": 192,
        "6605": 90,
        "6606": 214,
        "6607": 138,
        "6608": 203,
        "6609": 152,
        "6610": 129,
        "6611": 73,
        "6612": 93,
        "6613": 204,
        "6614": 145,
        "6615": 127,
        "6616": 10,
        "6617": 10,
        "6618": 144,
        "6619": 152,
        "6620": 247,
        "6621": 68,
        "6622": 189,
        "6623": 34,
        "6624": 237,
        "6625": 47,
        "6626": 250,
        "6627": 11,
        "6628": 105,
        "6629": 239,
        "6630": 235,
        "6631": 158,
        "6632": 158,
        "6633": 92,
        "6634": 76,
        "6635": 236,
        "6636": 27,
        "6637": 204,
        "6638": 120,
        "6639": 183,
        "6640": 205,
        "6641": 214,
        "6642": 213,
        "6643": 175,
        "6644": 113,
        "6645": 95,
        "6646": 110,
        "6647": 21,
        "6648": 210,
        "6649": 37,
        "6650": 48,
        "6651": 101,
        "6652": 42,
        "6653": 221,
        "6654": 26,
        "6655": 2,
        "6656": 8,
        "6657": 27,
        "6658": 60,
        "6659": 253,
        "6660": 120,
        "6661": 159,
        "6662": 103,
        "6663": 104,
        "6664": 63,
        "6665": 27,
        "6666": 153,
        "6667": 43,
        "6668": 194,
        "6669": 14,
        "6670": 139,
        "6671": 211,
        "6672": 80,
        "6673": 85,
        "6674": 100,
        "6675": 98,
        "6676": 169,
        "6677": 206,
        "6678": 166,
        "6679": 80,
        "6680": 88,
        "6681": 150,
        "6682": 171,
        "6683": 98,
        "6684": 36,
        "6685": 70,
        "6686": 220,
        "6687": 209,
        "6688": 186,
        "6689": 236,
        "6690": 201,
        "6691": 4,
        "6692": 179,
        "6693": 243,
        "6694": 128,
        "6695": 210,
        "6696": 114,
        "6697": 21,
        "6698": 115,
        "6699": 238,
        "6700": 175,
        "6701": 54,
        "6702": 221,
        "6703": 28,
        "6704": 37,
        "6705": 129,
        "6706": 42,
        "6707": 67,
        "6708": 132,
        "6709": 26,
        "6710": 114,
        "6711": 161,
        "6712": 124,
        "6713": 170,
        "6714": 104,
        "6715": 128,
        "6716": 140,
        "6717": 242,
        "6718": 197,
        "6719": 47,
        "6720": 210,
        "6721": 38,
        "6722": 31,
        "6723": 185,
        "6724": 238,
        "6725": 211,
        "6726": 91,
        "6727": 59,
        "6728": 166,
        "6729": 120,
        "6730": 138,
        "6731": 127,
        "6732": 19,
        "6733": 5,
        "6734": 210,
        "6735": 179,
        "6736": 182,
        "6737": 244,
        "6738": 137,
        "6739": 246,
        "6740": 143,
        "6741": 111,
        "6742": 205,
        "6743": 172,
        "6744": 111,
        "6745": 230,
        "6746": 220,
        "6747": 38,
        "6748": 66,
        "6749": 86,
        "6750": 119,
        "6751": 46,
        "6752": 11,
        "6753": 154,
        "6754": 94,
        "6755": 97,
        "6756": 109,
        "6757": 102,
        "6758": 0,
        "6759": 238,
        "6760": 255,
        "6761": 49,
        "6762": 61,
        "6763": 69,
        "6764": 232,
        "6765": 174,
        "6766": 194,
        "6767": 229,
        "6768": 208,
        "6769": 82,
        "6770": 150,
        "6771": 29,
        "6772": 55,
        "6773": 29,
        "6774": 33,
        "6775": 76,
        "6776": 139,
        "6777": 97,
        "6778": 12,
        "6779": 193,
        "6780": 206,
        "6781": 190,
        "6782": 167,
        "6783": 56,
        "6784": 13,
        "6785": 33,
        "6786": 227,
        "6787": 117,
        "6788": 67,
        "6789": 104,
        "6790": 84,
        "6791": 102,
        "6792": 197,
        "6793": 250,
        "6794": 77,
        "6795": 13,
        "6796": 137,
        "6797": 42,
        "6798": 20,
        "6799": 90,
        "6800": 98,
        "6801": 29,
        "6802": 70,
        "6803": 164,
        "6804": 172,
        "6805": 104,
        "6806": 42,
        "6807": 7,
        "6808": 2,
        "6809": 14,
        "6810": 231,
        "6811": 53,
        "6812": 134,
        "6813": 163,
        "6814": 140,
        "6815": 5,
        "6816": 109,
        "6817": 235,
        "6818": 191,
        "6819": 84,
        "6820": 119,
        "6821": 186,
        "6822": 166,
        "6823": 157,
        "6824": 204,
        "6825": 53,
        "6826": 103,
        "6827": 22,
        "6828": 32,
        "6829": 128,
        "6830": 82,
        "6831": 78,
        "6832": 113,
        "6833": 191,
        "6834": 63,
        "6835": 89,
        "6836": 116,
        "6837": 128,
        "6838": 237,
        "6839": 223,
        "6840": 86,
        "6841": 18,
        "6842": 16,
        "6843": 175,
        "6844": 47,
        "6845": 167,
        "6846": 91,
        "6847": 123,
        "6848": 14,
        "6849": 211,
        "6850": 65,
        "6851": 188,
        "6852": 184,
        "6853": 241,
        "6854": 33,
        "6855": 222,
        "6856": 74,
        "6857": 215,
        "6858": 109,
        "6859": 135,
        "6860": 189,
        "6861": 226,
        "6862": 245,
        "6863": 233,
        "6864": 181,
        "6865": 165,
        "6866": 99,
        "6867": 140,
        "6868": 119,
        "6869": 34,
        "6870": 120,
        "6871": 79,
        "6872": 103,
        "6873": 56,
        "6874": 193,
        "6875": 160,
        "6876": 236,
        "6877": 1,
        "6878": 6,
        "6879": 89,
        "6880": 117,
        "6881": 15,
        "6882": 148,
        "6883": 247,
        "6884": 130,
        "6885": 161,
        "6886": 36,
        "6887": 14,
        "6888": 131,
        "6889": 253,
        "6890": 34,
        "6891": 0,
        "6892": 3,
        "6893": 187,
        "6894": 134,
        "6895": 38,
        "6896": 117,
        "6897": 125,
        "6898": 32,
        "6899": 83,
        "6900": 140,
        "6901": 168,
        "6902": 26,
        "6903": 152,
        "6904": 160,
        "6905": 117,
        "6906": 26,
        "6907": 45,
        "6908": 144,
        "6909": 85,
        "6910": 162,
        "6911": 150,
        "6912": 127,
        "6913": 67,
        "6914": 160,
        "6915": 170,
        "6916": 18,
        "6917": 245,
        "6918": 224,
        "6919": 21,
        "6920": 102,
        "6921": 153,
        "6922": 169,
        "6923": 39,
        "6924": 135,
        "6925": 232,
        "6926": 140,
        "6927": 106,
        "6928": 22,
        "6929": 145,
        "6930": 17,
        "6931": 255,
        "6932": 14,
        "6933": 122,
        "6934": 154,
        "6935": 95,
        "6936": 160,
        "6937": 122,
        "6938": 221,
        "6939": 106,
        "6940": 166,
        "6941": 119,
        "6942": 228,
        "6943": 33,
        "6944": 28,
        "6945": 44,
        "6946": 133,
        "6947": 244,
        "6948": 15,
        "6949": 105,
        "6950": 109,
        "6951": 205,
        "6952": 225,
        "6953": 210,
        "6954": 54,
        "6955": 117,
        "6956": 37,
        "6957": 23,
        "6958": 144,
        "6959": 56,
        "6960": 99,
        "6961": 72,
        "6962": 25,
        "6963": 131,
        "6964": 78,
        "6965": 26,
        "6966": 63,
        "6967": 79,
        "6968": 88,
        "6969": 51,
        "6970": 126,
        "6971": 33,
        "6972": 79,
        "6973": 171,
        "6974": 181,
        "6975": 70,
        "6976": 176,
        "6977": 155,
        "6978": 164,
        "6979": 90,
        "6980": 78,
        "6981": 34,
        "6982": 251,
        "6983": 124,
        "6984": 169,
        "6985": 60,
        "6986": 31,
        "6987": 231,
        "6988": 224,
        "6989": 176,
        "6990": 147,
        "6991": 236,
        "6992": 156,
        "6993": 37,
        "6994": 128,
        "6995": 141,
        "6996": 13,
        "6997": 165,
        "6998": 105,
        "6999": 58,
        "7000": 169,
        "7001": 13,
        "7002": 112,
        "7003": 106,
        "7004": 75,
        "7005": 134,
        "7006": 166,
        "7007": 197,
        "7008": 91,
        "7009": 246,
        "7010": 49,
        "7011": 51,
        "7012": 85,
        "7013": 60,
        "7014": 69,
        "7015": 101,
        "7016": 7,
        "7017": 169,
        "7018": 4,
        "7019": 159,
        "7020": 197,
        "7021": 48,
        "7022": 253,
        "7023": 71,
        "7024": 176,
        "7025": 45,
        "7026": 62,
        "7027": 60,
        "7028": 184,
        "7029": 134,
        "7030": 145,
        "7031": 161,
        "7032": 145,
        "7033": 101,
        "7034": 107,
        "7035": 227,
        "7036": 169,
        "7037": 5,
        "7038": 61,
        "7039": 221,
        "7040": 0,
        "7041": 148,
        "7042": 93,
        "7043": 193,
        "7044": 63,
        "7045": 85,
        "7046": 173,
        "7047": 160,
        "7048": 87,
        "7049": 186,
        "7050": 164,
        "7051": 211,
        "7052": 63,
        "7053": 61,
        "7054": 120,
        "7055": 175,
        "7056": 172,
        "7057": 26,
        "7058": 217,
        "7059": 109,
        "7060": 32,
        "7061": 127,
        "7062": 207,
        "7063": 187,
        "7064": 150,
        "7065": 30,
        "7066": 10,
        "7067": 30,
        "7068": 126,
        "7069": 173,
        "7070": 229,
        "7071": 58,
        "7072": 39,
        "7073": 120,
        "7074": 64,
        "7075": 232,
        "7076": 2,
        "7077": 3,
        "7078": 73,
        "7079": 64,
        "7080": 215,
        "7081": 108,
        "7082": 251,
        "7083": 219,
        "7084": 94,
        "7085": 208,
        "7086": 6,
        "7087": 201,
        "7088": 121,
        "7089": 100,
        "7090": 101,
        "7091": 31,
        "7092": 111,
        "7093": 178,
        "7094": 130,
        "7095": 205,
        "7096": 100,
        "7097": 46,
        "7098": 161,
        "7099": 161,
        "7100": 82,
        "7101": 123,
        "7102": 132,
        "7103": 93,
        "7104": 109,
        "7105": 37,
        "7106": 63,
        "7107": 96,
        "7108": 87,
        "7109": 227,
        "7110": 12,
        "7111": 10,
        "7112": 15,
        "7113": 183,
        "7114": 142,
        "7115": 136,
        "7116": 86,
        "7117": 240,
        "7118": 242,
        "7119": 241,
        "7120": 169,
        "7121": 58,
        "7122": 100,
        "7123": 100,
        "7124": 90,
        "7125": 88,
        "7126": 21,
        "7127": 1,
        "7128": 128,
        "7129": 180,
        "7130": 17,
        "7131": 204,
        "7132": 27,
        "7133": 82,
        "7134": 232,
        "7135": 205,
        "7136": 232,
        "7137": 149,
        "7138": 248,
        "7139": 91,
        "7140": 161,
        "7141": 111,
        "7142": 160,
        "7143": 96,
        "7144": 111,
        "7145": 133,
        "7146": 200,
        "7147": 229,
        "7148": 157,
        "7149": 76,
        "7150": 218,
        "7151": 37,
        "7152": 175,
        "7153": 30,
        "7154": 129,
        "7155": 213,
        "7156": 168,
        "7157": 204,
        "7158": 31,
        "7159": 254,
        "7160": 34,
        "7161": 130,
        "7162": 216,
        "7163": 130,
        "7164": 30,
        "7165": 64,
        "7166": 6,
        "7167": 152,
        "7168": 185,
        "7169": 56,
        "7170": 23,
        "7171": 29,
        "7172": 71,
        "7173": 249,
        "7174": 80,
        "7175": 65,
        "7176": 135,
        "7177": 34,
        "7178": 210,
        "7179": 58,
        "7180": 76,
        "7181": 247,
        "7182": 196,
        "7183": 75,
        "7184": 249,
        "7185": 168,
        "7186": 214,
        "7187": 136,
        "7188": 21,
        "7189": 199,
        "7190": 107,
        "7191": 45,
        "7192": 52,
        "7193": 69,
        "7194": 146,
        "7195": 225,
        "7196": 181,
        "7197": 112,
        "7198": 50,
        "7199": 158,
        "7200": 50,
        "7201": 236,
        "7202": 251,
        "7203": 126,
        "7204": 254,
        "7205": 169,
        "7206": 145,
        "7207": 88,
        "7208": 195,
        "7209": 174,
        "7210": 221,
        "7211": 114,
        "7212": 246,
        "7213": 216,
        "7214": 131,
        "7215": 28,
        "7216": 183,
        "7217": 172,
        "7218": 102,
        "7219": 111,
        "7220": 225,
        "7221": 221,
        "7222": 216,
        "7223": 168,
        "7224": 151,
        "7225": 34,
        "7226": 226,
        "7227": 97,
        "7228": 184,
        "7229": 126,
        "7230": 6,
        "7231": 38,
        "7232": 14,
        "7233": 206,
        "7234": 152,
        "7235": 190,
        "7236": 213,
        "7237": 250,
        "7238": 245,
        "7239": 1,
        "7240": 239,
        "7241": 10,
        "7242": 84,
        "7243": 11,
        "7244": 229,
        "7245": 169,
        "7246": 20,
        "7247": 206,
        "7248": 22,
        "7249": 77,
        "7250": 37,
        "7251": 134,
        "7252": 226,
        "7253": 251,
        "7254": 21,
        "7255": 110,
        "7256": 237,
        "7257": 123,
        "7258": 232,
        "7259": 115,
        "7260": 174,
        "7261": 21,
        "7262": 94,
        "7263": 171,
        "7264": 154,
        "7265": 137,
        "7266": 12,
        "7267": 221,
        "7268": 150,
        "7269": 55,
        "7270": 216,
        "7271": 57,
        "7272": 204,
        "7273": 199,
        "7274": 74,
        "7275": 11,
        "7276": 209,
        "7277": 6,
        "7278": 13,
        "7279": 189,
        "7280": 23,
        "7281": 228,
        "7282": 207,
        "7283": 23,
        "7284": 54,
        "7285": 34,
        "7286": 107,
        "7287": 179,
        "7288": 237,
        "7289": 41,
        "7290": 202,
        "7291": 222,
        "7292": 51,
        "7293": 169,
        "7294": 71,
        "7295": 83,
        "7296": 208,
        "7297": 135,
        "7298": 176,
        "7299": 236,
        "7300": 183,
        "7301": 207,
        "7302": 57,
        "7303": 48,
        "7304": 230,
        "7305": 246,
        "7306": 3,
        "7307": 18,
        "7308": 225,
        "7309": 191,
        "7310": 112,
        "7311": 183,
        "7312": 112,
        "7313": 49,
        "7314": 208,
        "7315": 248,
        "7316": 123,
        "7317": 157,
        "7318": 1,
        "7319": 93,
        "7320": 46,
        "7321": 241,
        "7322": 213,
        "7323": 151,
        "7324": 199,
        "7325": 208,
        "7326": 29,
        "7327": 87,
        "7328": 194,
        "7329": 124,
        "7330": 67,
        "7331": 41,
        "7332": 57,
        "7333": 115,
        "7334": 105,
        "7335": 33,
        "7336": 56,
        "7337": 205,
        "7338": 11,
        "7339": 190,
        "7340": 78,
        "7341": 201,
        "7342": 17,
        "7343": 164,
        "7344": 251,
        "7345": 237,
        "7346": 53,
        "7347": 170,
        "7348": 142,
        "7349": 17,
        "7350": 145,
        "7351": 43,
        "7352": 240,
        "7353": 3,
        "7354": 202,
        "7355": 184,
        "7356": 53,
        "7357": 158,
        "7358": 249,
        "7359": 94,
        "7360": 60,
        "7361": 86,
        "7362": 251,
        "7363": 55,
        "7364": 182,
        "7365": 88,
        "7366": 129,
        "7367": 217,
        "7368": 17,
        "7369": 145,
        "7370": 149,
        "7371": 222,
        "7372": 71,
        "7373": 172,
        "7374": 9,
        "7375": 202,
        "7376": 209,
        "7377": 232,
        "7378": 101,
        "7379": 173,
        "7380": 172,
        "7381": 179,
        "7382": 140,
        "7383": 195,
        "7384": 124,
        "7385": 1,
        "7386": 68,
        "7387": 67,
        "7388": 212,
        "7389": 248,
        "7390": 0,
        "7391": 3,
        "7392": 227,
        "7393": 169,
        "7394": 42,
        "7395": 3,
        "7396": 236,
        "7397": 92,
        "7398": 74,
        "7399": 40,
        "7400": 117,
        "7401": 245,
        "7402": 83,
        "7403": 19,
        "7404": 154,
        "7405": 238,
        "7406": 119,
        "7407": 216,
        "7408": 187,
        "7409": 23,
        "7410": 188,
        "7411": 181,
        "7412": 9,
        "7413": 80,
        "7414": 154,
        "7415": 55,
        "7416": 76,
        "7417": 40,
        "7418": 180,
        "7419": 244,
        "7420": 206,
        "7421": 66,
        "7422": 63,
        "7423": 27,
        "7424": 187,
        "7425": 129,
        "7426": 93,
        "7427": 168,
        "7428": 225,
        "7429": 99,
        "7430": 198,
        "7431": 129,
        "7432": 241,
        "7433": 156,
        "7434": 11,
        "7435": 22,
        "7436": 20,
        "7437": 213,
        "7438": 131,
        "7439": 241,
        "7440": 71,
        "7441": 234,
        "7442": 133,
        "7443": 122,
        "7444": 143,
        "7445": 95,
        "7446": 46,
        "7447": 90,
        "7448": 93,
        "7449": 167,
        "7450": 222,
        "7451": 185,
        "7452": 185,
        "7453": 218,
        "7454": 63,
        "7455": 163,
        "7456": 151,
        "7457": 45,
        "7458": 58,
        "7459": 198,
        "7460": 139,
        "7461": 164,
        "7462": 22,
        "7463": 84,
        "7464": 85,
        "7465": 49,
        "7466": 173,
        "7467": 22,
        "7468": 186,
        "7469": 159,
        "7470": 149,
        "7471": 209,
        "7472": 148,
        "7473": 179,
        "7474": 159,
        "7475": 119,
        "7476": 171,
        "7477": 188,
        "7478": 104,
        "7479": 123,
        "7480": 152,
        "7481": 197,
        "7482": 128,
        "7483": 80,
        "7484": 236,
        "7485": 200,
        "7486": 123,
        "7487": 33,
        "7488": 22,
        "7489": 164,
        "7490": 67,
        "7491": 14,
        "7492": 212,
        "7493": 146,
        "7494": 193,
        "7495": 43,
        "7496": 28,
        "7497": 94,
        "7498": 241,
        "7499": 215,
        "7500": 98,
        "7501": 245,
        "7502": 167,
        "7503": 83,
        "7504": 180,
        "7505": 245,
        "7506": 207,
        "7507": 199,
        "7508": 200,
        "7509": 96,
        "7510": 86,
        "7511": 220,
        "7512": 75,
        "7513": 17,
        "7514": 242,
        "7515": 248,
        "7516": 5,
        "7517": 179,
        "7518": 159,
        "7519": 150,
        "7520": 204,
        "7521": 133,
        "7522": 191,
        "7523": 35,
        "7524": 33,
        "7525": 187,
        "7526": 244,
        "7527": 61,
        "7528": 232,
        "7529": 187,
        "7530": 179,
        "7531": 194,
        "7532": 132,
        "7533": 72,
        "7534": 58,
        "7535": 63,
        "7536": 41,
        "7537": 13,
        "7538": 119,
        "7539": 59,
        "7540": 151,
        "7541": 97,
        "7542": 158,
        "7543": 29,
        "7544": 210,
        "7545": 143,
        "7546": 64,
        "7547": 215,
        "7548": 143,
        "7549": 108,
        "7550": 181,
        "7551": 30,
        "7552": 11,
        "7553": 253,
        "7554": 179,
        "7555": 61,
        "7556": 157,
        "7557": 54,
        "7558": 136,
        "7559": 227,
        "7560": 173,
        "7561": 98,
        "7562": 21,
        "7563": 51,
        "7564": 40,
        "7565": 232,
        "7566": 243,
        "7567": 53,
        "7568": 25,
        "7569": 221,
        "7570": 121,
        "7571": 249,
        "7572": 210,
        "7573": 178,
        "7574": 242,
        "7575": 99,
        "7576": 207,
        "7577": 216,
        "7578": 226,
        "7579": 133,
        "7580": 27,
        "7581": 242,
        "7582": 184,
        "7583": 16,
        "7584": 80,
        "7585": 200,
        "7586": 105,
        "7587": 208,
        "7588": 107,
        "7589": 88,
        "7590": 215,
        "7591": 234,
        "7592": 217,
        "7593": 100,
        "7594": 29,
        "7595": 144,
        "7596": 1,
        "7597": 184,
        "7598": 48,
        "7599": 237,
        "7600": 96,
        "7601": 28,
        "7602": 229,
        "7603": 18,
        "7604": 55,
        "7605": 160,
        "7606": 159,
        "7607": 118,
        "7608": 56,
        "7609": 1,
        "7610": 179,
        "7611": 103,
        "7612": 117,
        "7613": 36,
        "7614": 51,
        "7615": 193,
        "7616": 40,
        "7617": 152,
        "7618": 44,
        "7619": 179,
        "7620": 96,
        "7621": 8,
        "7622": 140,
        "7623": 46,
        "7624": 163,
        "7625": 254,
        "7626": 236,
        "7627": 204,
        "7628": 205,
        "7629": 243,
        "7630": 60,
        "7631": 208,
        "7632": 62,
        "7633": 216,
        "7634": 237,
        "7635": 121,
        "7636": 203,
        "7637": 173,
        "7638": 207,
        "7639": 164,
        "7640": 132,
        "7641": 245,
        "7642": 145,
        "7643": 20,
        "7644": 219,
        "7645": 128,
        "7646": 203,
        "7647": 74,
        "7648": 220,
        "7649": 19,
        "7650": 254,
        "7651": 152,
        "7652": 118,
        "7653": 190,
        "7654": 111,
        "7655": 63,
        "7656": 161,
        "7657": 166,
        "7658": 182,
        "7659": 128,
        "7660": 185,
        "7661": 3,
        "7662": 131,
        "7663": 121,
        "7664": 131,
        "7665": 91,
        "7666": 166,
        "7667": 63,
        "7668": 84,
        "7669": 167,
        "7670": 179,
        "7671": 94,
        "7672": 140,
        "7673": 74,
        "7674": 34,
        "7675": 176,
        "7676": 202,
        "7677": 254,
        "7678": 24,
        "7679": 119,
        "7680": 201,
        "7681": 192,
        "7682": 104,
        "7683": 58,
        "7684": 139,
        "7685": 39,
        "7686": 89,
        "7687": 47,
        "7688": 249,
        "7689": 12,
        "7690": 52,
        "7691": 173,
        "7692": 144,
        "7693": 47,
        "7694": 6,
        "7695": 34,
        "7696": 190,
        "7697": 86,
        "7698": 32,
        "7699": 76,
        "7700": 109,
        "7701": 41,
        "7702": 100,
        "7703": 18,
        "7704": 242,
        "7705": 160,
        "7706": 112,
        "7707": 141,
        "7708": 73,
        "7709": 216,
        "7710": 41,
        "7711": 68,
        "7712": 181,
        "7713": 25,
        "7714": 161,
        "7715": 88,
        "7716": 255,
        "7717": 112,
        "7718": 60,
        "7719": 130,
        "7720": 41,
        "7721": 55,
        "7722": 173,
        "7723": 24,
        "7724": 67,
        "7725": 244,
        "7726": 2,
        "7727": 247,
        "7728": 209,
        "7729": 141,
        "7730": 174,
        "7731": 225,
        "7732": 61,
        "7733": 125,
        "7734": 71,
        "7735": 214,
        "7736": 123,
        "7737": 176,
        "7738": 108,
        "7739": 159,
        "7740": 197,
        "7741": 167,
        "7742": 7,
        "7743": 168,
        "7744": 60,
        "7745": 9,
        "7746": 60,
        "7747": 33,
        "7748": 44,
        "7749": 218,
        "7750": 95,
        "7751": 146,
        "7752": 125,
        "7753": 157,
        "7754": 36,
        "7755": 254,
        "7756": 133,
        "7757": 137,
        "7758": 24,
        "7759": 168,
        "7760": 76,
        "7761": 201,
        "7762": 103,
        "7763": 162,
        "7764": 12,
        "7765": 178,
        "7766": 152,
        "7767": 104,
        "7768": 49,
        "7769": 207,
        "7770": 15,
        "7771": 44,
        "7772": 191,
        "7773": 245,
        "7774": 221,
        "7775": 1,
        "7776": 177,
        "7777": 171,
        "7778": 9,
        "7779": 183,
        "7780": 47,
        "7781": 199,
        "7782": 71,
        "7783": 67,
        "7784": 8,
        "7785": 112,
        "7786": 121,
        "7787": 115,
        "7788": 116,
        "7789": 146,
        "7790": 154,
        "7791": 100,
        "7792": 245,
        "7793": 35,
        "7794": 89,
        "7795": 237,
        "7796": 23,
        "7797": 128,
        "7798": 208,
        "7799": 232,
        "7800": 66,
        "7801": 124,
        "7802": 229,
        "7803": 143,
        "7804": 40,
        "7805": 17,
        "7806": 176,
        "7807": 22,
        "7808": 75,
        "7809": 249,
        "7810": 155,
        "7811": 180,
        "7812": 247,
        "7813": 203,
        "7814": 214,
        "7815": 207,
        "7816": 66,
        "7817": 113,
        "7818": 249,
        "7819": 150,
        "7820": 168,
        "7821": 126,
        "7822": 74,
        "7823": 1,
        "7824": 172,
        "7825": 28,
        "7826": 149,
        "7827": 230,
        "7828": 197,
        "7829": 217,
        "7830": 106,
        "7831": 44,
        "7832": 110,
        "7833": 139,
        "7834": 14,
        "7835": 149,
        "7836": 187,
        "7837": 116,
        "7838": 43,
        "7839": 82,
        "7840": 220,
        "7841": 255,
        "7842": 50,
        "7843": 14,
        "7844": 135,
        "7845": 83,
        "7846": 146,
        "7847": 78,
        "7848": 181,
        "7849": 9,
        "7850": 159,
        "7851": 198,
        "7852": 127,
        "7853": 151,
        "7854": 129,
        "7855": 73,
        "7856": 192,
        "7857": 60,
        "7858": 121,
        "7859": 228,
        "7860": 138,
        "7861": 207,
        "7862": 24,
        "7863": 158,
        "7864": 151,
        "7865": 20,
        "7866": 87,
        "7867": 136,
        "7868": 253,
        "7869": 117,
        "7870": 188,
        "7871": 248,
        "7872": 60,
        "7873": 14,
        "7874": 36,
        "7875": 239,
        "7876": 166,
        "7877": 212,
        "7878": 8,
        "7879": 90,
        "7880": 60,
        "7881": 198,
        "7882": 108,
        "7883": 85,
        "7884": 206,
        "7885": 232,
        "7886": 227,
        "7887": 26,
        "7888": 80,
        "7889": 32,
        "7890": 31,
        "7891": 109,
        "7892": 37,
        "7893": 116,
        "7894": 90,
        "7895": 82,
        "7896": 60,
        "7897": 127,
        "7898": 198,
        "7899": 104,
        "7900": 35,
        "7901": 192,
        "7902": 57,
        "7903": 101,
        "7904": 200,
        "7905": 88,
        "7906": 94,
        "7907": 107,
        "7908": 190,
        "7909": 241,
        "7910": 229,
        "7911": 211,
        "7912": 12,
        "7913": 26,
        "7914": 164,
        "7915": 92,
        "7916": 247,
        "7917": 42,
        "7918": 214,
        "7919": 208,
        "7920": 71,
        "7921": 204,
        "7922": 174,
        "7923": 128,
        "7924": 27,
        "7925": 251,
        "7926": 129,
        "7927": 187,
        "7928": 156,
        "7929": 91,
        "7930": 49,
        "7931": 236,
        "7932": 136,
        "7933": 64,
        "7934": 81,
        "7935": 38,
        "7936": 164,
        "7937": 254,
        "7938": 172,
        "7939": 40,
        "7940": 191,
        "7941": 155,
        "7942": 71,
        "7943": 164,
        "7944": 59,
        "7945": 1,
        "7946": 70,
        "7947": 165,
        "7948": 66,
        "7949": 78,
        "7950": 176,
        "7951": 161,
        "7952": 25,
        "7953": 120,
        "7954": 130,
        "7955": 58,
        "7956": 220,
        "7957": 86,
        "7958": 158,
        "7959": 241,
        "7960": 165,
        "7961": 39,
        "7962": 213,
        "7963": 16,
        "7964": 24,
        "7965": 171,
        "7966": 24,
        "7967": 43,
        "7968": 82,
        "7969": 54,
        "7970": 210,
        "7971": 243,
        "7972": 131,
        "7973": 2,
        "7974": 105,
        "7975": 206,
        "7976": 194,
        "7977": 52,
        "7978": 237,
        "7979": 241,
        "7980": 44,
        "7981": 138,
        "7982": 3,
        "7983": 5,
        "7984": 200,
        "7985": 40,
        "7986": 87,
        "7987": 246,
        "7988": 206,
        "7989": 205,
        "7990": 217,
        "7991": 97,
        "7992": 39,
        "7993": 140,
        "7994": 227,
        "7995": 152,
        "7996": 179,
        "7997": 160,
        "7998": 219,
        "7999": 120,
        "8000": 10,
        "8001": 236,
        "8002": 155,
        "8003": 139,
        "8004": 58,
        "8005": 46,
        "8006": 209,
        "8007": 163,
        "8008": 18,
        "8009": 103,
        "8010": 164,
        "8011": 236,
        "8012": 136,
        "8013": 135,
        "8014": 25,
        "8015": 127,
        "8016": 102,
        "8017": 250,
        "8018": 139,
        "8019": 5,
        "8020": 71,
        "8021": 31,
        "8022": 179,
        "8023": 4,
        "8024": 64,
        "8025": 235,
        "8026": 142,
        "8027": 188,
        "8028": 92,
        "8029": 7,
        "8030": 69,
        "8031": 229,
        "8032": 222,
        "8033": 212,
        "8034": 184,
        "8035": 142,
        "8036": 5,
        "8037": 216,
        "8038": 75,
        "8039": 38,
        "8040": 135,
        "8041": 72,
        "8042": 159,
        "8043": 241,
        "8044": 104,
        "8045": 116,
        "8046": 232,
        "8047": 11,
        "8048": 237,
        "8049": 95,
        "8050": 68,
        "8051": 221,
        "8052": 163,
        "8053": 196,
        "8054": 218,
        "8055": 48,
        "8056": 57,
        "8057": 87,
        "8058": 3,
        "8059": 78,
        "8060": 65,
        "8061": 133,
        "8062": 4,
        "8063": 26,
        "8064": 134,
        "8065": 136,
        "8066": 138,
        "8067": 22,
        "8068": 73,
        "8069": 104,
        "8070": 80,
        "8071": 178,
        "8072": 179,
        "8073": 45,
        "8074": 58,
        "8075": 200,
        "8076": 206,
        "8077": 57,
        "8078": 35,
        "8079": 59,
        "8080": 199,
        "8081": 172,
        "8082": 201,
        "8083": 246,
        "8084": 9,
        "8085": 216,
        "8086": 141,
        "8087": 28,
        "8088": 59,
        "8089": 81,
        "8090": 201,
        "8091": 201,
        "8092": 154,
        "8093": 241,
        "8094": 161,
        "8095": 64,
        "8096": 67,
        "8097": 180,
        "8098": 4,
        "8099": 128,
        "8100": 63,
        "8101": 78,
        "8102": 249,
        "8103": 208,
        "8104": 83,
        "8105": 140,
        "8106": 93,
        "8107": 156,
        "8108": 220,
        "8109": 0,
        "8110": 76,
        "8111": 91,
        "8112": 92,
        "8113": 211,
        "8114": 16,
        "8115": 106,
        "8116": 38,
        "8117": 65,
        "8118": 131,
        "8119": 130,
        "8120": 198,
        "8121": 38,
        "8122": 74,
        "8123": 213,
        "8124": 131,
        "8125": 216,
        "8126": 71,
        "8127": 101,
        "8128": 25,
        "8129": 67,
        "8130": 179,
        "8131": 219,
        "8132": 43,
        "8133": 129,
        "8134": 248,
        "8135": 251,
        "8136": 229,
        "8137": 81,
        "8138": 116,
        "8139": 203,
        "8140": 3,
        "8141": 22,
        "8142": 176,
        "8143": 243,
        "8144": 82,
        "8145": 230,
        "8146": 210,
        "8147": 249,
        "8148": 51,
        "8149": 108,
        "8150": 92,
        "8151": 29,
        "8152": 105,
        "8153": 227,
        "8154": 14,
        "8155": 215,
        "8156": 14,
        "8157": 64,
        "8158": 145,
        "8159": 6,
        "8160": 247,
        "8161": 49,
        "8162": 67,
        "8163": 103,
        "8164": 170,
        "8165": 104,
        "8166": 91,
        "8167": 21,
        "8168": 28,
        "8169": 12,
        "8170": 248,
        "8171": 30,
        "8172": 144,
        "8173": 3,
        "8174": 188,
        "8175": 113,
        "8176": 228,
        "8177": 200,
        "8178": 218,
        "8179": 153,
        "8180": 243,
        "8181": 68,
        "8182": 182,
        "8183": 48,
        "8184": 151,
        "8185": 155,
        "8186": 233,
        "8187": 87,
        "8188": 117,
        "8189": 147,
        "8190": 158,
        "8191": 100,
        "8192": 9,
        "8193": 55,
        "8194": 153,
        "8195": 29,
        "8196": 69,
        "8197": 218,
        "8198": 122,
        "8199": 158,
        "8200": 106,
        "8201": 105,
        "8202": 80,
        "8203": 154,
        "8204": 224,
        "8205": 39,
        "8206": 247,
        "8207": 241,
        "8208": 100,
        "8209": 202,
        "8210": 35,
        "8211": 8,
        "8212": 158,
        "8213": 27,
        "8214": 112,
        "8215": 100,
        "8216": 76,
        "8217": 247,
        "8218": 220,
        "8219": 97,
        "8220": 193,
        "8221": 4,
        "8222": 61,
        "8223": 249,
        "8224": 3,
        "8225": 104,
        "8226": 211,
        "8227": 65,
        "8228": 245,
        "8229": 197,
        "8230": 70,
        "8231": 217,
        "8232": 83,
        "8233": 163,
        "8234": 220,
        "8235": 237,
        "8236": 218,
        "8237": 181,
        "8238": 34,
        "8239": 27,
        "8240": 220,
        "8241": 72,
        "8242": 35,
        "8243": 223,
        "8244": 62,
        "8245": 37,
        "8246": 95,
        "8247": 148,
        "8248": 157,
        "8249": 20,
        "8250": 188,
        "8251": 143,
        "8252": 41,
        "8253": 82,
        "8254": 226,
        "8255": 174,
        "8256": 26,
        "8257": 1,
        "8258": 149,
        "8259": 115,
        "8260": 185,
        "8261": 39,
        "8262": 241,
        "8263": 5,
        "8264": 219,
        "8265": 219,
        "8266": 103,
        "8267": 221,
        "8268": 214,
        "8269": 96,
        "8270": 42,
        "8271": 18,
        "8272": 157,
        "8273": 59,
        "8274": 115,
        "8275": 111,
        "8276": 27,
        "8277": 163,
        "8278": 75,
        "8279": 250,
        "8280": 14,
        "8281": 10,
        "8282": 246,
        "8283": 234,
        "8284": 211,
        "8285": 224,
        "8286": 180,
        "8287": 252,
        "8288": 10,
        "8289": 39,
        "8290": 214,
        "8291": 130,
        "8292": 93,
        "8293": 168,
        "8294": 16,
        "8295": 194,
        "8296": 187,
        "8297": 99,
        "8298": 203,
        "8299": 180,
        "8300": 178,
        "8301": 180,
        "8302": 186,
        "8303": 67,
        "8304": 197,
        "8305": 133,
        "8306": 87,
        "8307": 167,
        "8308": 222,
        "8309": 115,
        "8310": 235,
        "8311": 57,
        "8312": 184,
        "8313": 210,
        "8314": 134,
        "8315": 180,
        "8316": 49,
        "8317": 82,
        "8318": 158,
        "8319": 48,
        "8320": 10,
        "8321": 111,
        "8322": 241,
        "8323": 117,
        "8324": 24,
        "8325": 174,
        "8326": 51,
        "8327": 122,
        "8328": 54,
        "8329": 58,
        "8330": 227,
        "8331": 179,
        "8332": 18,
        "8333": 123,
        "8334": 178,
        "8335": 241,
        "8336": 129,
        "8337": 29,
        "8338": 41,
        "8339": 42,
        "8340": 212,
        "8341": 184,
        "8342": 52,
        "8343": 190,
        "8344": 217,
        "8345": 8,
        "8346": 36,
        "8347": 218,
        "8348": 221,
        "8349": 169,
        "8350": 76,
        "8351": 187,
        "8352": 232,
        "8353": 149,
        "8354": 189,
        "8355": 144,
        "8356": 34,
        "8357": 105,
        "8358": 80,
        "8359": 103,
        "8360": 192,
        "8361": 40,
        "8362": 98,
        "8363": 248,
        "8364": 71,
        "8365": 98,
        "8366": 128,
        "8367": 122,
        "8368": 122,
        "8369": 205,
        "8370": 9,
        "8371": 204,
        "8372": 170,
        "8373": 192,
        "8374": 102,
        "8375": 61,
        "8376": 122,
        "8377": 68,
        "8378": 176,
        "8379": 126,
        "8380": 248,
        "8381": 216,
        "8382": 130,
        "8383": 219,
        "8384": 19,
        "8385": 2,
        "8386": 177,
        "8387": 210,
        "8388": 16,
        "8389": 99,
        "8390": 15,
        "8391": 213,
        "8392": 201,
        "8393": 37,
        "8394": 253,
        "8395": 92,
        "8396": 39,
        "8397": 49,
        "8398": 81,
        "8399": 22,
        "8400": 70,
        "8401": 191,
        "8402": 204,
        "8403": 179,
        "8404": 103,
        "8405": 130,
        "8406": 131,
        "8407": 102,
        "8408": 59,
        "8409": 48,
        "8410": 146,
        "8411": 195,
        "8412": 78,
        "8413": 55,
        "8414": 37,
        "8415": 247,
        "8416": 13,
        "8417": 21,
        "8418": 247,
        "8419": 218,
        "8420": 98,
        "8421": 56,
        "8422": 106,
        "8423": 162,
        "8424": 240,
        "8425": 84,
        "8426": 64,
        "8427": 147,
        "8428": 90,
        "8429": 20,
        "8430": 159,
        "8431": 249,
        "8432": 70,
        "8433": 8,
        "8434": 205,
        "8435": 43,
        "8436": 130,
        "8437": 153,
        "8438": 199,
        "8439": 215,
        "8440": 129,
        "8441": 55,
        "8442": 63,
        "8443": 205,
        "8444": 145,
        "8445": 53,
        "8446": 68,
        "8447": 163,
        "8448": 253,
        "8449": 240,
        "8450": 83,
        "8451": 208,
        "8452": 71,
        "8453": 246,
        "8454": 94,
        "8455": 160,
        "8456": 249,
        "8457": 52,
        "8458": 83,
        "8459": 170,
        "8460": 140,
        "8461": 226,
        "8462": 108,
        "8463": 2,
        "8464": 200,
        "8465": 30,
        "8466": 43,
        "8467": 3,
        "8468": 19,
        "8469": 51,
        "8470": 167,
        "8471": 137,
        "8472": 0,
        "8473": 154,
        "8474": 31,
        "8475": 123,
        "8476": 240,
        "8477": 52,
        "8478": 25,
        "8479": 175,
        "8480": 213,
        "8481": 242,
        "8482": 99,
        "8483": 196,
        "8484": 79,
        "8485": 215,
        "8486": 57,
        "8487": 133,
        "8488": 215,
        "8489": 236,
        "8490": 39,
        "8491": 187,
        "8492": 83,
        "8493": 14,
        "8494": 184,
        "8495": 8,
        "8496": 184,
        "8497": 240,
        "8498": 94,
        "8499": 148,
        "8500": 254,
        "8501": 105,
        "8502": 62,
        "8503": 230,
        "8504": 156,
        "8505": 221,
        "8506": 23,
        "8507": 76,
        "8508": 103,
        "8509": 254,
        "8510": 185,
        "8511": 196,
        "8512": 138,
        "8513": 75,
        "8514": 175,
        "8515": 99,
        "8516": 153,
        "8517": 184,
        "8518": 56,
        "8519": 41,
        "8520": 248,
        "8521": 96,
        "8522": 107,
        "8523": 59,
        "8524": 41,
        "8525": 137,
        "8526": 14,
        "8527": 214,
        "8528": 243,
        "8529": 56,
        "8530": 113,
        "8531": 95,
        "8532": 202,
        "8533": 119,
        "8534": 232,
        "8535": 140,
        "8536": 188,
        "8537": 5,
        "8538": 38,
        "8539": 124,
        "8540": 239,
        "8541": 200,
        "8542": 89,
        "8543": 219,
        "8544": 165,
        "8545": 146,
        "8546": 210,
        "8547": 4,
        "8548": 165,
        "8549": 172,
        "8550": 75,
        "8551": 84,
        "8552": 153,
        "8553": 211,
        "8554": 229,
        "8555": 217,
        "8556": 125,
        "8557": 185,
        "8558": 198,
        "8559": 111,
        "8560": 1,
        "8561": 175,
        "8562": 22,
        "8563": 99,
        "8564": 195,
        "8565": 88,
        "8566": 175,
        "8567": 181,
        "8568": 161,
        "8569": 76,
        "8570": 181,
        "8571": 215,
        "8572": 21,
        "8573": 61,
        "8574": 172,
        "8575": 54,
        "8576": 115,
        "8577": 225,
        "8578": 247,
        "8579": 231,
        "8580": 63,
        "8581": 188,
        "8582": 140,
        "8583": 23,
        "8584": 189,
        "8585": 238,
        "8586": 198,
        "8587": 71,
        "8588": 252,
        "8589": 88,
        "8590": 87,
        "8591": 44,
        "8592": 225,
        "8593": 211,
        "8594": 215,
        "8595": 186,
        "8596": 180,
        "8597": 248,
        "8598": 127,
        "8599": 178,
        "8600": 170,
        "8601": 143,
        "8602": 35,
        "8603": 174,
        "8604": 217,
        "8605": 181,
        "8606": 135,
        "8607": 143,
        "8608": 61,
        "8609": 61,
        "8610": 4,
        "8611": 20,
        "8612": 121,
        "8613": 158,
        "8614": 110,
        "8615": 193,
        "8616": 203,
        "8617": 57,
        "8618": 132,
        "8619": 177,
        "8620": 232,
        "8621": 16,
        "8622": 174,
        "8623": 165,
        "8624": 228,
        "8625": 189,
        "8626": 53,
        "8627": 36,
        "8628": 223,
        "8629": 79,
        "8630": 85,
        "8631": 32,
        "8632": 151,
        "8633": 146,
        "8634": 229,
        "8635": 95,
        "8636": 84,
        "8637": 127,
        "8638": 30,
        "8639": 230,
        "8640": 233,
        "8641": 217,
        "8642": 152,
        "8643": 221,
        "8644": 205,
        "8645": 14,
        "8646": 45,
        "8647": 250,
        "8648": 131,
        "8649": 11,
        "8650": 105,
        "8651": 181,
        "8652": 137,
        "8653": 63,
        "8654": 16,
        "8655": 121,
        "8656": 50,
        "8657": 248,
        "8658": 181,
        "8659": 14,
        "8660": 195,
        "8661": 75,
        "8662": 42,
        "8663": 107,
        "8664": 228,
        "8665": 131,
        "8666": 169,
        "8667": 12,
        "8668": 146,
        "8669": 146,
        "8670": 231,
        "8671": 28,
        "8672": 59,
        "8673": 165,
        "8674": 67,
        "8675": 232,
        "8676": 214,
        "8677": 97,
        "8678": 22,
        "8679": 51,
        "8680": 65,
        "8681": 230,
        "8682": 64,
        "8683": 110,
        "8684": 186,
        "8685": 152,
        "8686": 230,
        "8687": 54,
        "8688": 51,
        "8689": 232,
        "8690": 22,
        "8691": 69,
        "8692": 199,
        "8693": 171,
        "8694": 0,
        "8695": 18,
        "8696": 234,
        "8697": 185,
        "8698": 139,
        "8699": 140,
        "8700": 220,
        "8701": 173,
        "8702": 219,
        "8703": 100,
        "8704": 241,
        "8705": 58,
        "8706": 106,
        "8707": 84,
        "8708": 239,
        "8709": 251,
        "8710": 179,
        "8711": 130,
        "8712": 203,
        "8713": 122,
        "8714": 138,
        "8715": 39,
        "8716": 8,
        "8717": 10,
        "8718": 68,
        "8719": 89,
        "8720": 1,
        "8721": 32,
        "8722": 54,
        "8723": 77,
        "8724": 87,
        "8725": 7,
        "8726": 252,
        "8727": 237,
        "8728": 11,
        "8729": 99,
        "8730": 222,
        "8731": 57,
        "8732": 125,
        "8733": 178,
        "8734": 48,
        "8735": 136,
        "8736": 212,
        "8737": 11,
        "8738": 237,
        "8739": 15,
        "8740": 162,
        "8741": 199,
        "8742": 218,
        "8743": 176,
        "8744": 94,
        "8745": 115,
        "8746": 159,
        "8747": 238,
        "8748": 147,
        "8749": 61,
        "8750": 255,
        "8751": 124,
        "8752": 176,
        "8753": 243,
        "8754": 194,
        "8755": 79,
        "8756": 86,
        "8757": 125,
        "8758": 46,
        "8759": 117,
        "8760": 41,
        "8761": 159,
        "8762": 141,
        "8763": 16,
        "8764": 96,
        "8765": 64,
        "8766": 55,
        "8767": 8,
        "8768": 161,
        "8769": 159,
        "8770": 246,
        "8771": 27,
        "8772": 169,
        "8773": 252,
        "8774": 17,
        "8775": 189,
        "8776": 93,
        "8777": 167,
        "8778": 159,
        "8779": 31,
        "8780": 213,
        "8781": 57,
        "8782": 179,
        "8783": 63,
        "8784": 227,
        "8785": 158,
        "8786": 36,
        "8787": 3,
        "8788": 7,
        "8789": 215,
        "8790": 35,
        "8791": 38,
        "8792": 79,
        "8793": 133,
        "8794": 172,
        "8795": 254,
        "8796": 139,
        "8797": 113,
        "8798": 241,
        "8799": 69,
        "8800": 191,
        "8801": 89,
        "8802": 149,
        "8803": 81,
        "8804": 216,
        "8805": 86,
        "8806": 195,
        "8807": 184,
        "8808": 86,
        "8809": 155,
        "8810": 44,
        "8811": 90,
        "8812": 110,
        "8813": 228,
        "8814": 22,
        "8815": 29,
        "8816": 31,
        "8817": 101,
        "8818": 245,
        "8819": 42,
        "8820": 166,
        "8821": 42,
        "8822": 46,
        "8823": 124,
        "8824": 70,
        "8825": 208,
        "8826": 127,
        "8827": 233,
        "8828": 170,
        "8829": 213,
        "8830": 76,
        "8831": 163,
        "8832": 111,
        "8833": 192,
        "8834": 202,
        "8835": 139,
        "8836": 172,
        "8837": 192,
        "8838": 242,
        "8839": 228,
        "8840": 29,
        "8841": 18,
        "8842": 40,
        "8843": 9,
        "8844": 116,
        "8845": 132,
        "8846": 164,
        "8847": 215,
        "8848": 51,
        "8849": 119,
        "8850": 181,
        "8851": 178,
        "8852": 101,
        "8853": 85,
        "8854": 215,
        "8855": 33,
        "8856": 226,
        "8857": 25,
        "8858": 31,
        "8859": 119,
        "8860": 148,
        "8861": 113,
        "8862": 117,
        "8863": 178,
        "8864": 89,
        "8865": 38,
        "8866": 185,
        "8867": 34,
        "8868": 134,
        "8869": 50,
        "8870": 180,
        "8871": 57,
        "8872": 31,
        "8873": 100,
        "8874": 9,
        "8875": 231,
        "8876": 243,
        "8877": 35,
        "8878": 116,
        "8879": 233,
        "8880": 145,
        "8881": 156,
        "8882": 200,
        "8883": 176,
        "8884": 162,
        "8885": 91,
        "8886": 123,
        "8887": 187,
        "8888": 123,
        "8889": 162,
        "8890": 186,
        "8891": 153,
        "8892": 195,
        "8893": 211,
        "8894": 39,
        "8895": 160,
        "8896": 147,
        "8897": 175,
        "8898": 172,
        "8899": 42,
        "8900": 167,
        "8901": 121,
        "8902": 64,
        "8903": 158,
        "8904": 231,
        "8905": 120,
        "8906": 31,
        "8907": 116,
        "8908": 224,
        "8909": 78,
        "8910": 2,
        "8911": 170,
        "8912": 227,
        "8913": 70,
        "8914": 193,
        "8915": 247,
        "8916": 171,
        "8917": 145,
        "8918": 117,
        "8919": 80,
        "8920": 232,
        "8921": 217,
        "8922": 247,
        "8923": 5,
        "8924": 253,
        "8925": 180,
        "8926": 195,
        "8927": 234,
        "8928": 162,
        "8929": 49,
        "8930": 142,
        "8931": 176,
        "8932": 140,
        "8933": 105,
        "8934": 60,
        "8935": 221,
        "8936": 64,
        "8937": 246,
        "8938": 243,
        "8939": 160,
        "8940": 227,
        "8941": 78,
        "8942": 48,
        "8943": 212,
        "8944": 85,
        "8945": 166,
        "8946": 195,
        "8947": 228,
        "8948": 63,
        "8949": 126,
        "8950": 29,
        "8951": 90,
        "8952": 184,
        "8953": 188,
        "8954": 230,
        "8955": 30,
        "8956": 24,
        "8957": 62,
        "8958": 115,
        "8959": 37,
        "8960": 92,
        "8961": 154,
        "8962": 106,
        "8963": 6,
        "8964": 227,
        "8965": 43,
        "8966": 193,
        "8967": 144,
        "8968": 254,
        "8969": 180,
        "8970": 101,
        "8971": 40,
        "8972": 210,
        "8973": 253,
        "8974": 234,
        "8975": 72,
        "8976": 3,
        "8977": 93,
        "8978": 204,
        "8979": 112,
        "8980": 125,
        "8981": 29,
        "8982": 2,
        "8983": 57,
        "8984": 87,
        "8985": 210,
        "8986": 101,
        "8987": 65,
        "8988": 67,
        "8989": 26,
        "8990": 218,
        "8991": 247,
        "8992": 166,
        "8993": 177,
        "8994": 208,
        "8995": 1,
        "8996": 46,
        "8997": 51,
        "8998": 131,
        "8999": 194,
        "9000": 48,
        "9001": 113,
        "9002": 142,
        "9003": 24,
        "9004": 143,
        "9005": 254,
        "9006": 165,
        "9007": 128,
        "9008": 169,
        "9009": 245,
        "9010": 206,
        "9011": 52,
        "9012": 46,
        "9013": 222,
        "9014": 115,
        "9015": 53,
        "9016": 251,
        "9017": 55,
        "9018": 46,
        "9019": 221,
        "9020": 194,
        "9021": 94,
        "9022": 87,
        "9023": 174,
        "9024": 198,
        "9025": 127,
        "9026": 109,
        "9027": 109,
        "9028": 157,
        "9029": 159,
        "9030": 111,
        "9031": 61,
        "9032": 6,
        "9033": 176,
        "9034": 155,
        "9035": 221,
        "9036": 24,
        "9037": 242,
        "9038": 129,
        "9039": 54,
        "9040": 76,
        "9041": 149,
        "9042": 19,
        "9043": 213,
        "9044": 243,
        "9045": 181,
        "9046": 30,
        "9047": 255,
        "9048": 235,
        "9049": 145,
        "9050": 189,
        "9051": 82,
        "9052": 120,
        "9053": 140,
        "9054": 107,
        "9055": 205,
        "9056": 149,
        "9057": 183,
        "9058": 113,
        "9059": 249,
        "9060": 181,
        "9061": 163,
        "9062": 85,
        "9063": 16,
        "9064": 65,
        "9065": 177,
        "9066": 182,
        "9067": 54,
        "9068": 193,
        "9069": 13,
        "9070": 126,
        "9071": 201,
        "9072": 235,
        "9073": 205,
        "9074": 138,
        "9075": 21,
        "9076": 41,
        "9077": 255,
        "9078": 189,
        "9079": 0,
        "9080": 234,
        "9081": 220,
        "9082": 128,
        "9083": 114,
        "9084": 28,
        "9085": 138,
        "9086": 249,
        "9087": 252,
        "9088": 192,
        "9089": 173,
        "9090": 204,
        "9091": 25,
        "9092": 51,
        "9093": 13,
        "9094": 205,
        "9095": 124,
        "9096": 58,
        "9097": 77,
        "9098": 165,
        "9099": 177,
        "9100": 238,
        "9101": 11,
        "9102": 156,
        "9103": 139,
        "9104": 123,
        "9105": 5,
        "9106": 48,
        "9107": 33,
        "9108": 87,
        "9109": 134,
        "9110": 157,
        "9111": 82,
        "9112": 13,
        "9113": 51,
        "9114": 6,
        "9115": 203,
        "9116": 152,
        "9117": 88,
        "9118": 141,
        "9119": 130,
        "9120": 89,
        "9121": 249,
        "9122": 46,
        "9123": 66,
        "9124": 12,
        "9125": 198,
        "9126": 90,
        "9127": 202,
        "9128": 59,
        "9129": 188,
        "9130": 152,
        "9131": 182,
        "9132": 6,
        "9133": 11,
        "9134": 114,
        "9135": 224,
        "9136": 163,
        "9137": 183,
        "9138": 171,
        "9139": 22,
        "9140": 162,
        "9141": 187,
        "9142": 135,
        "9143": 223,
        "9144": 104,
        "9145": 149,
        "9146": 205,
        "9147": 235,
        "9148": 251,
        "9149": 228,
        "9150": 49,
        "9151": 136,
        "9152": 12,
        "9153": 27,
        "9154": 173,
        "9155": 92,
        "9156": 160,
        "9157": 89,
        "9158": 59,
        "9159": 131,
        "9160": 240,
        "9161": 64,
        "9162": 185,
        "9163": 59,
        "9164": 159,
        "9165": 125,
        "9166": 39,
        "9167": 202,
        "9168": 168,
        "9169": 205,
        "9170": 175,
        "9171": 160,
        "9172": 227,
        "9173": 92,
        "9174": 27,
        "9175": 186,
        "9176": 203,
        "9177": 220,
        "9178": 147,
        "9179": 68,
        "9180": 200,
        "9181": 71,
        "9182": 26,
        "9183": 104,
        "9184": 133,
        "9185": 65,
        "9186": 112,
        "9187": 45,
        "9188": 254,
        "9189": 69,
        "9190": 107,
        "9191": 228,
        "9192": 18,
        "9193": 110,
        "9194": 141,
        "9195": 242,
        "9196": 94,
        "9197": 211,
        "9198": 18,
        "9199": 204,
        "9200": 241,
        "9201": 244,
        "9202": 61,
        "9203": 43,
        "9204": 236,
        "9205": 82,
        "9206": 155,
        "9207": 200,
        "9208": 186,
        "9209": 23,
        "9210": 221,
        "9211": 101,
        "9212": 228,
        "9213": 33,
        "9214": 236,
        "9215": 38,
        "9216": 86,
        "9217": 83,
        "9218": 26,
        "9219": 27,
        "9220": 233,
        "9221": 40,
        "9222": 175,
        "9223": 196,
        "9224": 228,
        "9225": 45,
        "9226": 182,
        "9227": 142,
        "9228": 71,
        "9229": 42,
        "9230": 78,
        "9231": 22,
        "9232": 246,
        "9233": 139,
        "9234": 43,
        "9235": 165,
        "9236": 202,
        "9237": 211,
        "9238": 103,
        "9239": 50,
        "9240": 160,
        "9241": 169,
        "9242": 107,
        "9243": 235,
        "9244": 178,
        "9245": 133,
        "9246": 38,
        "9247": 200,
        "9248": 81,
        "9249": 145,
        "9250": 70,
        "9251": 132,
        "9252": 202,
        "9253": 137,
        "9254": 59,
        "9255": 23,
        "9256": 227,
        "9257": 88,
        "9258": 28,
        "9259": 94,
        "9260": 173,
        "9261": 16,
        "9262": 218,
        "9263": 44,
        "9264": 103,
        "9265": 147,
        "9266": 209,
        "9267": 97,
        "9268": 143,
        "9269": 236,
        "9270": 134,
        "9271": 165,
        "9272": 106,
        "9273": 116,
        "9274": 8,
        "9275": 130,
        "9276": 186,
        "9277": 84,
        "9278": 70,
        "9279": 177,
        "9280": 94,
        "9281": 173,
        "9282": 27,
        "9283": 197,
        "9284": 12,
        "9285": 1,
        "9286": 146,
        "9287": 201,
        "9288": 35,
        "9289": 200,
        "9290": 188,
        "9291": 76,
        "9292": 197,
        "9293": 195,
        "9294": 34,
        "9295": 2,
        "9296": 174,
        "9297": 209,
        "9298": 191,
        "9299": 98,
        "9300": 96,
        "9301": 228,
        "9302": 129,
        "9303": 199,
        "9304": 85,
        "9305": 50,
        "9306": 193,
        "9307": 200,
        "9308": 144,
        "9309": 164,
        "9310": 88,
        "9311": 60,
        "9312": 132,
        "9313": 140,
        "9314": 60,
        "9315": 30,
        "9316": 30,
        "9317": 24,
        "9318": 91,
        "9319": 124,
        "9320": 159,
        "9321": 207,
        "9322": 62,
        "9323": 164,
        "9324": 247,
        "9325": 119,
        "9326": 196,
        "9327": 49,
        "9328": 32,
        "9329": 251,
        "9330": 42,
        "9331": 156,
        "9332": 255,
        "9333": 93,
        "9334": 170,
        "9335": 196,
        "9336": 7,
        "9337": 103,
        "9338": 117,
        "9339": 88,
        "9340": 74,
        "9341": 180,
        "9342": 91,
        "9343": 29,
        "9344": 77,
        "9345": 250,
        "9346": 15,
        "9347": 149,
        "9348": 13,
        "9349": 59,
        "9350": 234,
        "9351": 198,
        "9352": 116,
        "9353": 241,
        "9354": 128,
        "9355": 251,
        "9356": 156,
        "9357": 254,
        "9358": 182,
        "9359": 27,
        "9360": 250,
        "9361": 191,
        "9362": 87,
        "9363": 110,
        "9364": 183,
        "9365": 156,
        "9366": 149,
        "9367": 121,
        "9368": 9,
        "9369": 45,
        "9370": 143,
        "9371": 152,
        "9372": 124,
        "9373": 45,
        "9374": 85,
        "9375": 102,
        "9376": 50,
        "9377": 86,
        "9378": 218,
        "9379": 70,
        "9380": 82,
        "9381": 200,
        "9382": 148,
        "9383": 203,
        "9384": 86,
        "9385": 181,
        "9386": 44,
        "9387": 141,
        "9388": 196,
        "9389": 146,
        "9390": 61,
        "9391": 245,
        "9392": 178,
        "9393": 173,
        "9394": 74,
        "9395": 150,
        "9396": 201,
        "9397": 42,
        "9398": 53,
        "9399": 129,
        "9400": 93,
        "9401": 40,
        "9402": 186,
        "9403": 202,
        "9404": 205,
        "9405": 222,
        "9406": 45,
        "9407": 156,
        "9408": 200,
        "9409": 51,
        "9410": 81,
        "9411": 243,
        "9412": 93,
        "9413": 32,
        "9414": 84,
        "9415": 218,
        "9416": 138,
        "9417": 44,
        "9418": 148,
        "9419": 198,
        "9420": 10,
        "9421": 207,
        "9422": 130,
        "9423": 234,
        "9424": 30,
        "9425": 189,
        "9426": 34,
        "9427": 152,
        "9428": 105,
        "9429": 10,
        "9430": 123,
        "9431": 214,
        "9432": 156,
        "9433": 131,
        "9434": 22,
        "9435": 226,
        "9436": 74,
        "9437": 128,
        "9438": 157,
        "9439": 124,
        "9440": 129,
        "9441": 17,
        "9442": 72,
        "9443": 149,
        "9444": 179,
        "9445": 24,
        "9446": 146,
        "9447": 11,
        "9448": 96,
        "9449": 184,
        "9450": 77,
        "9451": 112,
        "9452": 181,
        "9453": 8,
        "9454": 40,
        "9455": 40,
        "9456": 98,
        "9457": 14,
        "9458": 67,
        "9459": 2,
        "9460": 237,
        "9461": 23,
        "9462": 1,
        "9463": 145,
        "9464": 14,
        "9465": 128,
        "9466": 226,
        "9467": 224,
        "9468": 59,
        "9469": 185,
        "9470": 216,
        "9471": 79,
        "9472": 60,
        "9473": 31,
        "9474": 49,
        "9475": 206,
        "9476": 66,
        "9477": 245,
        "9478": 29,
        "9479": 98,
        "9480": 232,
        "9481": 117,
        "9482": 17,
        "9483": 15,
        "9484": 70,
        "9485": 97,
        "9486": 227,
        "9487": 140,
        "9488": 119,
        "9489": 243,
        "9490": 61,
        "9491": 182,
        "9492": 68,
        "9493": 245,
        "9494": 232,
        "9495": 116,
        "9496": 245,
        "9497": 54,
        "9498": 181,
        "9499": 175,
        "9500": 178,
        "9501": 206,
        "9502": 176,
        "9503": 41,
        "9504": 97,
        "9505": 94,
        "9506": 89,
        "9507": 230,
        "9508": 172,
        "9509": 15,
        "9510": 146,
        "9511": 235,
        "9512": 81,
        "9513": 66,
        "9514": 36,
        "9515": 70,
        "9516": 192,
        "9517": 130,
        "9518": 209,
        "9519": 173,
        "9520": 227,
        "9521": 38,
        "9522": 16,
        "9523": 166,
        "9524": 79,
        "9525": 58,
        "9526": 134,
        "9527": 54,
        "9528": 57,
        "9529": 27,
        "9530": 167,
        "9531": 153,
        "9532": 152,
        "9533": 57,
        "9534": 47,
        "9535": 136,
        "9536": 70,
        "9537": 249,
        "9538": 37,
        "9539": 180,
        "9540": 122,
        "9541": 10,
        "9542": 236,
        "9543": 25,
        "9544": 201,
        "9545": 134,
        "9546": 27,
        "9547": 107,
        "9548": 80,
        "9549": 195,
        "9550": 135,
        "9551": 44,
        "9552": 169,
        "9553": 57,
        "9554": 16,
        "9555": 109,
        "9556": 33,
        "9557": 148,
        "9558": 3,
        "9559": 123,
        "9560": 90,
        "9561": 14,
        "9562": 125,
        "9563": 224,
        "9564": 98,
        "9565": 167,
        "9566": 28,
        "9567": 25,
        "9568": 223,
        "9569": 152,
        "9570": 118,
        "9571": 135,
        "9572": 43,
        "9573": 114,
        "9574": 215,
        "9575": 217,
        "9576": 183,
        "9577": 136,
        "9578": 82,
        "9579": 90,
        "9580": 220,
        "9581": 32,
        "9582": 168,
        "9583": 130,
        "9584": 246,
        "9585": 31,
        "9586": 212,
        "9587": 54,
        "9588": 121,
        "9589": 67,
        "9590": 13,
        "9591": 181,
        "9592": 66,
        "9593": 130,
        "9594": 147,
        "9595": 32,
        "9596": 96,
        "9597": 34,
        "9598": 92,
        "9599": 166,
        "9600": 139,
        "9601": 4,
        "9602": 149,
        "9603": 248,
        "9604": 118,
        "9605": 240,
        "9606": 129,
        "9607": 145,
        "9608": 46,
        "9609": 253,
        "9610": 33,
        "9611": 239,
        "9612": 185,
        "9613": 236,
        "9614": 98,
        "9615": 183,
        "9616": 111,
        "9617": 20,
        "9618": 231,
        "9619": 241,
        "9620": 209,
        "9621": 75,
        "9622": 52,
        "9623": 12,
        "9624": 45,
        "9625": 6,
        "9626": 69,
        "9627": 92,
        "9628": 252,
        "9629": 95,
        "9630": 157,
        "9631": 244,
        "9632": 96,
        "9633": 75,
        "9634": 252,
        "9635": 176,
        "9636": 51,
        "9637": 217,
        "9638": 41,
        "9639": 161,
        "9640": 97,
        "9641": 235,
        "9642": 237,
        "9643": 27,
        "9644": 149,
        "9645": 80,
        "9646": 77,
        "9647": 41,
        "9648": 28,
        "9649": 7,
        "9650": 99,
        "9651": 103,
        "9652": 53,
        "9653": 136,
        "9654": 41,
        "9655": 76,
        "9656": 12,
        "9657": 246,
        "9658": 182,
        "9659": 40,
        "9660": 125,
        "9661": 40,
        "9662": 211,
        "9663": 137,
        "9664": 26,
        "9665": 21,
        "9666": 131,
        "9667": 28,
        "9668": 108,
        "9669": 66,
        "9670": 170,
        "9671": 245,
        "9672": 64,
        "9673": 167,
        "9674": 197,
        "9675": 80,
        "9676": 209,
        "9677": 51,
        "9678": 18,
        "9679": 213,
        "9680": 146,
        "9681": 57,
        "9682": 176,
        "9683": 17,
        "9684": 1,
        "9685": 84,
        "9686": 0,
        "9687": 195,
        "9688": 247,
        "9689": 52,
        "9690": 115,
        "9691": 136,
        "9692": 101,
        "9693": 11,
        "9694": 49,
        "9695": 33,
        "9696": 99,
        "9697": 88,
        "9698": 15,
        "9699": 92,
        "9700": 31,
        "9701": 153,
        "9702": 215,
        "9703": 233,
        "9704": 9,
        "9705": 200,
        "9706": 206,
        "9707": 112,
        "9708": 94,
        "9709": 127,
        "9710": 152,
        "9711": 254,
        "9712": 142,
        "9713": 223,
        "9714": 184,
        "9715": 202,
        "9716": 203,
        "9717": 90,
        "9718": 185,
        "9719": 76,
        "9720": 181,
        "9721": 61,
        "9722": 134,
        "9723": 59,
        "9724": 247,
        "9725": 182,
        "9726": 214,
        "9727": 142,
        "9728": 175,
        "9729": 242,
        "9730": 73,
        "9731": 104,
        "9732": 192,
        "9733": 48,
        "9734": 237,
        "9735": 143,
        "9736": 117,
        "9737": 251,
        "9738": 247,
        "9739": 5,
        "9740": 143,
        "9741": 182,
        "9742": 67,
        "9743": 84,
        "9744": 193,
        "9745": 170,
        "9746": 119,
        "9747": 31,
        "9748": 29,
        "9749": 113,
        "9750": 235,
        "9751": 244,
        "9752": 186,
        "9753": 96,
        "9754": 163,
        "9755": 140,
        "9756": 90,
        "9757": 221,
        "9758": 189,
        "9759": 130,
        "9760": 40,
        "9761": 64,
        "9762": 58,
        "9763": 203,
        "9764": 242,
        "9765": 247,
        "9766": 164,
        "9767": 36,
        "9768": 165,
        "9769": 36,
        "9770": 111,
        "9771": 135,
        "9772": 83,
        "9773": 241,
        "9774": 255,
        "9775": 130,
        "9776": 143,
        "9777": 12,
        "9778": 84,
        "9779": 75,
        "9780": 52,
        "9781": 144,
        "9782": 159,
        "9783": 239,
        "9784": 115,
        "9785": 99,
        "9786": 60,
        "9787": 240,
        "9788": 49,
        "9789": 236,
        "9790": 10,
        "9791": 241,
        "9792": 29,
        "9793": 117,
        "9794": 42,
        "9795": 238,
        "9796": 26,
        "9797": 233,
        "9798": 125,
        "9799": 234,
        "9800": 20,
        "9801": 169,
        "9802": 120,
        "9803": 229,
        "9804": 254,
        "9805": 157,
        "9806": 85,
        "9807": 212,
        "9808": 228,
        "9809": 56,
        "9810": 93,
        "9811": 8,
        "9812": 68,
        "9813": 223,
        "9814": 102,
        "9815": 244,
        "9816": 149,
        "9817": 93,
        "9818": 94,
        "9819": 83,
        "9820": 180,
        "9821": 238,
        "9822": 187,
        "9823": 78,
        "9824": 150,
        "9825": 18,
        "9826": 64,
        "9827": 147,
        "9828": 146,
        "9829": 8,
        "9830": 244,
        "9831": 64,
        "9832": 90,
        "9833": 172,
        "9834": 175,
        "9835": 217,
        "9836": 212,
        "9837": 15,
        "9838": 78,
        "9839": 223,
        "9840": 243,
        "9841": 219,
        "9842": 116,
        "9843": 74,
        "9844": 13,
        "9845": 6,
        "9846": 83,
        "9847": 175,
        "9848": 75,
        "9849": 115,
        "9850": 105,
        "9851": 154,
        "9852": 8,
        "9853": 208,
        "9854": 59,
        "9855": 130,
        "9856": 45,
        "9857": 163,
        "9858": 143,
        "9859": 191,
        "9860": 184,
        "9861": 123,
        "9862": 188,
        "9863": 76,
        "9864": 157,
        "9865": 219,
        "9866": 70,
        "9867": 225,
        "9868": 44,
        "9869": 157,
        "9870": 194,
        "9871": 115,
        "9872": 153,
        "9873": 211,
        "9874": 106,
        "9875": 175,
        "9876": 14,
        "9877": 182,
        "9878": 55,
        "9879": 101,
        "9880": 6,
        "9881": 27,
        "9882": 250,
        "9883": 194,
        "9884": 8,
        "9885": 225,
        "9886": 18,
        "9887": 178,
        "9888": 225,
        "9889": 83,
        "9890": 162,
        "9891": 119,
        "9892": 145,
        "9893": 123,
        "9894": 172,
        "9895": 241,
        "9896": 160,
        "9897": 99,
        "9898": 139,
        "9899": 75,
        "9900": 53,
        "9901": 162,
        "9902": 240,
        "9903": 216,
        "9904": 35,
        "9905": 134,
        "9906": 173,
        "9907": 99,
        "9908": 227,
        "9909": 216,
        "9910": 244,
        "9911": 72,
        "9912": 105,
        "9913": 47,
        "9914": 11,
        "9915": 40,
        "9916": 133,
        "9917": 82,
        "9918": 210,
        "9919": 35,
        "9920": 77,
        "9921": 44,
        "9922": 81,
        "9923": 215,
        "9924": 78,
        "9925": 120,
        "9926": 97,
        "9927": 104,
        "9928": 49,
        "9929": 189,
        "9930": 105,
        "9931": 146,
        "9932": 176,
        "9933": 177,
        "9934": 214,
        "9935": 239,
        "9936": 225,
        "9937": 237,
        "9938": 190,
        "9939": 243,
        "9940": 23,
        "9941": 2,
        "9942": 188,
        "9943": 100,
        "9944": 52,
        "9945": 42,
        "9946": 146,
        "9947": 71,
        "9948": 70,
        "9949": 254,
        "9950": 227,
        "9951": 101,
        "9952": 203,
        "9953": 26,
        "9954": 107,
        "9955": 129,
        "9956": 24,
        "9957": 133,
        "9958": 98,
        "9959": 99,
        "9960": 44,
        "9961": 69,
        "9962": 216,
        "9963": 82,
        "9964": 15,
        "9965": 70,
        "9966": 11,
        "9967": 254,
        "9968": 231,
        "9969": 180,
        "9970": 176,
        "9971": 208,
        "9972": 100,
        "9973": 181,
        "9974": 117,
        "9975": 165,
        "9976": 179,
        "9977": 205,
        "9978": 28,
        "9979": 126,
        "9980": 208,
        "9981": 74,
        "9982": 111,
        "9983": 146,
        "9984": 192,
        "9985": 214,
        "9986": 139,
        "9987": 108,
        "9988": 208,
        "9989": 128,
        "9990": 46,
        "9991": 163,
        "9992": 66,
        "9993": 227,
        "9994": 47,
        "9995": 213,
        "9996": 44,
        "9997": 118,
        "9998": 237,
        "9999": 122,
        "10000": 177,
        "10001": 114,
        "10002": 129,
        "10003": 227,
        "10004": 71,
        "10005": 74,
        "10006": 233,
        "10007": 86,
        "10008": 93,
        "10009": 235,
        "10010": 30,
        "10011": 6,
        "10012": 217,
        "10013": 7,
        "10014": 118,
        "10015": 114,
        "10016": 14,
        "10017": 232,
        "10018": 112,
        "10019": 30,
        "10020": 187,
        "10021": 235,
        "10022": 60,
        "10023": 229,
        "10024": 56,
        "10025": 142,
        "10026": 69,
        "10027": 113,
        "10028": 167,
        "10029": 166,
        "10030": 154,
        "10031": 100,
        "10032": 128,
        "10033": 24,
        "10034": 102,
        "10035": 152,
        "10036": 108,
        "10037": 51,
        "10038": 253,
        "10039": 57,
        "10040": 247,
        "10041": 176,
        "10042": 91,
        "10043": 218,
        "10044": 225,
        "10045": 68,
        "10046": 249,
        "10047": 167,
        "10048": 102,
        "10049": 158,
        "10050": 151,
        "10051": 119,
        "10052": 42,
        "10053": 201,
        "10054": 144,
        "10055": 36,
        "10056": 205,
        "10057": 40,
        "10058": 84,
        "10059": 106,
        "10060": 167,
        "10061": 248,
        "10062": 120,
        "10063": 181,
        "10064": 5,
        "10065": 177,
        "10066": 81,
        "10067": 183,
        "10068": 32,
        "10069": 203,
        "10070": 11,
        "10071": 179,
        "10072": 161,
        "10073": 237,
        "10074": 116,
        "10075": 175,
        "10076": 184,
        "10077": 51,
        "10078": 188,
        "10079": 207,
        "10080": 244,
        "10081": 129,
        "10082": 193,
        "10083": 100,
        "10084": 43,
        "10085": 119,
        "10086": 238,
        "10087": 104,
        "10088": 190,
        "10089": 245,
        "10090": 112,
        "10091": 124,
        "10092": 37,
        "10093": 56,
        "10094": 219,
        "10095": 37,
        "10096": 201,
        "10097": 45,
        "10098": 161,
        "10099": 125,
        "10100": 36,
        "10101": 190,
        "10102": 117,
        "10103": 132,
        "10104": 42,
        "10105": 154,
        "10106": 27,
        "10107": 41,
        "10108": 18,
        "10109": 132,
        "10110": 121,
        "10111": 183,
        "10112": 223,
        "10113": 81,
        "10114": 223,
        "10115": 176,
        "10116": 88,
        "10117": 86,
        "10118": 243,
        "10119": 138,
        "10120": 57,
        "10121": 114,
        "10122": 68,
        "10123": 95,
        "10124": 217,
        "10125": 188,
        "10126": 242,
        "10127": 236,
        "10128": 101,
        "10129": 42,
        "10130": 152,
        "10131": 205,
        "10132": 221,
        "10133": 47,
        "10134": 18,
        "10135": 146,
        "10136": 143,
        "10137": 205,
        "10138": 61,
        "10139": 226,
        "10140": 83,
        "10141": 181,
        "10142": 65,
        "10143": 82,
        "10144": 225,
        "10145": 210,
        "10146": 182,
        "10147": 4,
        "10148": 7,
        "10149": 38,
        "10150": 53,
        "10151": 126,
        "10152": 39,
        "10153": 194,
        "10154": 104,
        "10155": 248,
        "10156": 145,
        "10157": 153,
        "10158": 97,
        "10159": 250,
        "10160": 224,
        "10161": 52,
        "10162": 204,
        "10163": 119,
        "10164": 99,
        "10165": 217,
        "10166": 222,
        "10167": 63,
        "10168": 148,
        "10169": 239,
        "10170": 67,
        "10171": 201,
        "10172": 158,
        "10173": 46,
        "10174": 232,
        "10175": 120,
        "10176": 237,
        "10177": 150,
        "10178": 193,
        "10179": 86,
        "10180": 52,
        "10181": 4,
        "10182": 90,
        "10183": 192,
        "10184": 254,
        "10185": 246,
        "10186": 114,
        "10187": 45,
        "10188": 173,
        "10189": 156,
        "10190": 75,
        "10191": 226,
        "10192": 56,
        "10193": 126,
        "10194": 103,
        "10195": 219,
        "10196": 75,
        "10197": 234,
        "10198": 46,
        "10199": 194,
        "10200": 52,
        "10201": 120,
        "10202": 220,
        "10203": 214,
        "10204": 42,
        "10205": 83,
        "10206": 172,
        "10207": 195,
        "10208": 203,
        "10209": 0,
        "10210": 254,
        "10211": 48,
        "10212": 106,
        "10213": 118,
        "10214": 100,
        "10215": 116,
        "10216": 145,
        "10217": 110,
        "10218": 135,
        "10219": 143,
        "10220": 130,
        "10221": 217,
        "10222": 90,
        "10223": 2,
        "10224": 255,
        "10225": 114,
        "10226": 94,
        "10227": 225,
        "10228": 109,
        "10229": 131,
        "10230": 19,
        "10231": 138,
        "10232": 72,
        "10233": 197,
        "10234": 245,
        "10235": 250,
        "10236": 89,
        "10237": 16,
        "10238": 118,
        "10239": 236,
        "10240": 88,
        "10241": 61,
        "10242": 50,
        "10243": 179,
        "10244": 149,
        "10245": 80,
        "10246": 219,
        "10247": 173,
        "10248": 206,
        "10249": 177,
        "10250": 84,
        "10251": 20,
        "10252": 244,
        "10253": 146,
        "10254": 252,
        "10255": 157,
        "10256": 108,
        "10257": 58,
        "10258": 179,
        "10259": 45,
        "10260": 20,
        "10261": 48,
        "10262": 188,
        "10263": 82,
        "10264": 59,
        "10265": 70,
        "10266": 14,
        "10267": 91,
        "10268": 224,
        "10269": 28,
        "10270": 220,
        "10271": 6,
        "10272": 169,
        "10273": 44,
        "10274": 58,
        "10275": 48,
        "10276": 175,
        "10277": 101,
        "10278": 57,
        "10279": 60,
        "10280": 226,
        "10281": 70,
        "10282": 82,
        "10283": 96,
        "10284": 198,
        "10285": 174,
        "10286": 201,
        "10287": 18,
        "10288": 99,
        "10289": 119,
        "10290": 154,
        "10291": 97,
        "10292": 143,
        "10293": 238,
        "10294": 109,
        "10295": 25,
        "10296": 233,
        "10297": 24,
        "10298": 46,
        "10299": 176,
        "10300": 9,
        "10301": 234,
        "10302": 121,
        "10303": 178,
        "10304": 225,
        "10305": 250,
        "10306": 120,
        "10307": 9,
        "10308": 204,
        "10309": 221,
        "10310": 195,
        "10311": 107,
        "10312": 101,
        "10313": 83,
        "10314": 6,
        "10315": 80,
        "10316": 234,
        "10317": 235,
        "10318": 86,
        "10319": 82,
        "10320": 35,
        "10321": 207,
        "10322": 109,
        "10323": 16,
        "10324": 242,
        "10325": 0,
        "10326": 212,
        "10327": 228,
        "10328": 2,
        "10329": 226,
        "10330": 175,
        "10331": 167,
        "10332": 182,
        "10333": 103,
        "10334": 170,
        "10335": 107,
        "10336": 173,
        "10337": 100,
        "10338": 12,
        "10339": 252,
        "10340": 159,
        "10341": 247,
        "10342": 28,
        "10343": 112,
        "10344": 150,
        "10345": 231,
        "10346": 219,
        "10347": 42,
        "10348": 108,
        "10349": 226,
        "10350": 120,
        "10351": 71,
        "10352": 24,
        "10353": 245,
        "10354": 76,
        "10355": 232,
        "10356": 166,
        "10357": 208,
        "10358": 51,
        "10359": 194,
        "10360": 59,
        "10361": 172,
        "10362": 47,
        "10363": 132,
        "10364": 175,
        "10365": 172,
        "10366": 12,
        "10367": 48,
        "10368": 88,
        "10369": 142,
        "10370": 63,
        "10371": 78,
        "10372": 146,
        "10373": 67,
        "10374": 2,
        "10375": 218,
        "10376": 170,
        "10377": 182,
        "10378": 155,
        "10379": 177,
        "10380": 27,
        "10381": 55,
        "10382": 239,
        "10383": 215,
        "10384": 219,
        "10385": 40,
        "10386": 146,
        "10387": 90,
        "10388": 173,
        "10389": 50,
        "10390": 22,
        "10391": 110,
        "10392": 16,
        "10393": 251,
        "10394": 220,
        "10395": 76,
        "10396": 219,
        "10397": 105,
        "10398": 255,
        "10399": 145,
        "10400": 126,
        "10401": 102,
        "10402": 193,
        "10403": 16,
        "10404": 200,
        "10405": 240,
        "10406": 235,
        "10407": 156,
        "10408": 175,
        "10409": 69,
        "10410": 1,
        "10411": 230,
        "10412": 185,
        "10413": 48,
        "10414": 144,
        "10415": 214,
        "10416": 31,
        "10417": 100,
        "10418": 211,
        "10419": 173,
        "10420": 57,
        "10421": 235,
        "10422": 163,
        "10423": 224,
        "10424": 8,
        "10425": 38,
        "10426": 182,
        "10427": 139,
        "10428": 147,
        "10429": 118,
        "10430": 88,
        "10431": 184,
        "10432": 178,
        "10433": 215,
        "10434": 30,
        "10435": 138,
        "10436": 176,
        "10437": 44,
        "10438": 145,
        "10439": 118,
        "10440": 102,
        "10441": 40,
        "10442": 181,
        "10443": 209,
        "10444": 105,
        "10445": 57,
        "10446": 181,
        "10447": 21,
        "10448": 116,
        "10449": 130,
        "10450": 157,
        "10451": 236,
        "10452": 57,
        "10453": 91,
        "10454": 225,
        "10455": 8,
        "10456": 227,
        "10457": 93,
        "10458": 187,
        "10459": 171,
        "10460": 54,
        "10461": 0,
        "10462": 98,
        "10463": 235,
        "10464": 87,
        "10465": 101,
        "10466": 219,
        "10467": 20,
        "10468": 117,
        "10469": 94,
        "10470": 167,
        "10471": 225,
        "10472": 110,
        "10473": 87,
        "10474": 169,
        "10475": 206,
        "10476": 48,
        "10477": 32,
        "10478": 173,
        "10479": 165,
        "10480": 4,
        "10481": 103,
        "10482": 148,
        "10483": 228,
        "10484": 155,
        "10485": 246,
        "10486": 186,
        "10487": 200,
        "10488": 57,
        "10489": 239,
        "10490": 61,
        "10491": 4,
        "10492": 87,
        "10493": 126,
        "10494": 60,
        "10495": 107,
        "10496": 191,
        "10497": 99,
        "10498": 246,
        "10499": 193,
        "10500": 24,
        "10501": 21,
        "10502": 252,
        "10503": 67,
        "10504": 207,
        "10505": 115,
        "10506": 33,
        "10507": 34,
        "10508": 48,
        "10509": 248,
        "10510": 221,
        "10511": 78,
        "10512": 255,
        "10513": 35,
        "10514": 88,
        "10515": 46,
        "10516": 152,
        "10517": 188,
        "10518": 81,
        "10519": 69,
        "10520": 160,
        "10521": 206,
        "10522": 121,
        "10523": 37,
        "10524": 214,
        "10525": 223,
        "10526": 34,
        "10527": 181,
        "10528": 238,
        "10529": 130,
        "10530": 207,
        "10531": 56,
        "10532": 74,
        "10533": 49,
        "10534": 14,
        "10535": 52,
        "10536": 232,
        "10537": 121,
        "10538": 15,
        "10539": 139,
        "10540": 60,
        "10541": 34,
        "10542": 36,
        "10543": 124,
        "10544": 6,
        "10545": 240,
        "10546": 19,
        "10547": 39,
        "10548": 152,
        "10549": 170,
        "10550": 156,
        "10551": 71,
        "10552": 104,
        "10553": 184,
        "10554": 109,
        "10555": 23,
        "10556": 188,
        "10557": 207,
        "10558": 221,
        "10559": 136,
        "10560": 73,
        "10561": 6,
        "10562": 0,
        "10563": 142,
        "10564": 14,
        "10565": 149,
        "10566": 175,
        "10567": 59,
        "10568": 154,
        "10569": 73,
        "10570": 187,
        "10571": 6,
        "10572": 130,
        "10573": 30,
        "10574": 253,
        "10575": 199,
        "10576": 0,
        "10577": 170,
        "10578": 223,
        "10579": 75,
        "10580": 52,
        "10581": 89,
        "10582": 76,
        "10583": 255,
        "10584": 179,
        "10585": 127,
        "10586": 250,
        "10587": 80,
        "10588": 229,
        "10589": 52,
        "10590": 215,
        "10591": 187,
        "10592": 27,
        "10593": 24,
        "10594": 240,
        "10595": 62,
        "10596": 23,
        "10597": 82,
        "10598": 54,
        "10599": 95,
        "10600": 167,
        "10601": 87,
        "10602": 26,
        "10603": 76,
        "10604": 131,
        "10605": 96,
        "10606": 14,
        "10607": 185,
        "10608": 10,
        "10609": 97,
        "10610": 239,
        "10611": 19,
        "10612": 212,
        "10613": 64,
        "10614": 159,
        "10615": 22,
        "10616": 73,
        "10617": 93,
        "10618": 7,
        "10619": 140,
        "10620": 215,
        "10621": 91,
        "10622": 159,
        "10623": 39,
        "10624": 2,
        "10625": 40,
        "10626": 233,
        "10627": 118,
        "10628": 80,
        "10629": 70,
        "10630": 224,
        "10631": 117,
        "10632": 233,
        "10633": 23,
        "10634": 183,
        "10635": 59,
        "10636": 22,
        "10637": 167,
        "10638": 236,
        "10639": 109,
        "10640": 125,
        "10641": 205,
        "10642": 149,
        "10643": 189,
        "10644": 41,
        "10645": 145,
        "10646": 252,
        "10647": 221,
        "10648": 189,
        "10649": 112,
        "10650": 255,
        "10651": 86,
        "10652": 8,
        "10653": 116,
        "10654": 108,
        "10655": 2,
        "10656": 103,
        "10657": 149,
        "10658": 84,
        "10659": 76,
        "10660": 50,
        "10661": 132,
        "10662": 120,
        "10663": 133,
        "10664": 99,
        "10665": 63,
        "10666": 220,
        "10667": 47,
        "10668": 109,
        "10669": 120,
        "10670": 24,
        "10671": 189,
        "10672": 139,
        "10673": 234,
        "10674": 55,
        "10675": 88,
        "10676": 140,
        "10677": 203,
        "10678": 142,
        "10679": 59,
        "10680": 135,
        "10681": 126,
        "10682": 134,
        "10683": 73,
        "10684": 191,
        "10685": 191,
        "10686": 191,
        "10687": 96,
        "10688": 50,
        "10689": 172,
        "10690": 106,
        "10691": 158,
        "10692": 94,
        "10693": 249,
        "10694": 147,
        "10695": 12,
        "10696": 25,
        "10697": 241,
        "10698": 41,
        "10699": 215,
        "10700": 217,
        "10701": 25,
        "10702": 20,
        "10703": 28,
        "10704": 168,
        "10705": 19,
        "10706": 218,
        "10707": 241,
        "10708": 207,
        "10709": 217,
        "10710": 36,
        "10711": 164,
        "10712": 241,
        "10713": 78,
        "10714": 135,
        "10715": 94,
        "10716": 46,
        "10717": 129,
        "10718": 224,
        "10719": 96,
        "10720": 87,
        "10721": 197,
        "10722": 195,
        "10723": 34,
        "10724": 137,
        "10725": 248,
        "10726": 253,
        "10727": 171,
        "10728": 2,
        "10729": 189,
        "10730": 196,
        "10731": 195,
        "10732": 73,
        "10733": 100,
        "10734": 145,
        "10735": 146,
        "10736": 162,
        "10737": 170,
        "10738": 61,
        "10739": 45,
        "10740": 174,
        "10741": 199,
        "10742": 196,
        "10743": 184,
        "10744": 105,
        "10745": 64,
        "10746": 0,
        "10747": 20,
        "10748": 97,
        "10749": 120,
        "10750": 227,
        "10751": 55,
        "10752": 248,
        "10753": 17,
        "10754": 12,
        "10755": 43,
        "10756": 151,
        "10757": 167,
        "10758": 54,
        "10759": 80,
        "10760": 191,
        "10761": 250,
        "10762": 65,
        "10763": 126,
        "10764": 63,
        "10765": 59,
        "10766": 27,
        "10767": 163,
        "10768": 190,
        "10769": 239,
        "10770": 209,
        "10771": 140,
        "10772": 89,
        "10773": 240,
        "10774": 5,
        "10775": 15,
        "10776": 56,
        "10777": 22,
        "10778": 98,
        "10779": 93,
        "10780": 185,
        "10781": 140,
        "10782": 4,
        "10783": 122,
        "10784": 119,
        "10785": 101,
        "10786": 239,
        "10787": 183,
        "10788": 27,
        "10789": 31,
        "10790": 162,
        "10791": 239,
        "10792": 26,
        "10793": 61,
        "10794": 21,
        "10795": 34,
        "10796": 250,
        "10797": 54,
        "10798": 254,
        "10799": 130,
        "10800": 116,
        "10801": 226,
        "10802": 228,
        "10803": 165,
        "10804": 123,
        "10805": 36,
        "10806": 190,
        "10807": 23,
        "10808": 52,
        "10809": 29,
        "10810": 193,
        "10811": 27,
        "10812": 64,
        "10813": 118,
        "10814": 224,
        "10815": 202,
        "10816": 201,
        "10817": 227,
        "10818": 134,
        "10819": 182,
        "10820": 38,
        "10821": 184,
        "10822": 89,
        "10823": 145,
        "10824": 45,
        "10825": 65,
        "10826": 79,
        "10827": 87,
        "10828": 190,
        "10829": 188,
        "10830": 53,
        "10831": 105,
        "10832": 142,
        "10833": 27,
        "10834": 166,
        "10835": 192,
        "10836": 134,
        "10837": 172,
        "10838": 168,
        "10839": 167,
        "10840": 53,
        "10841": 138,
        "10842": 110,
        "10843": 108,
        "10844": 188,
        "10845": 154,
        "10846": 137,
        "10847": 96,
        "10848": 193,
        "10849": 148,
        "10850": 246,
        "10851": 215,
        "10852": 216,
        "10853": 160,
        "10854": 168,
        "10855": 24,
        "10856": 116,
        "10857": 77,
        "10858": 116,
        "10859": 160,
        "10860": 155,
        "10861": 246,
        "10862": 76,
        "10863": 75,
        "10864": 18,
        "10865": 81,
        "10866": 195,
        "10867": 160,
        "10868": 44,
        "10869": 220,
        "10870": 196,
        "10871": 208,
        "10872": 89,
        "10873": 160,
        "10874": 210,
        "10875": 184,
        "10876": 124,
        "10877": 22,
        "10878": 91,
        "10879": 77,
        "10880": 112,
        "10881": 14,
        "10882": 42,
        "10883": 191,
        "10884": 165,
        "10885": 164,
        "10886": 197,
        "10887": 191,
        "10888": 139,
        "10889": 200,
        "10890": 127,
        "10891": 183,
        "10892": 117,
        "10893": 0,
        "10894": 37,
        "10895": 212,
        "10896": 93,
        "10897": 110,
        "10898": 235,
        "10899": 250,
        "10900": 120,
        "10901": 185,
        "10902": 227,
        "10903": 208,
        "10904": 203,
        "10905": 132,
        "10906": 37,
        "10907": 164,
        "10908": 232,
        "10909": 36,
        "10910": 171,
        "10911": 102,
        "10912": 145,
        "10913": 114,
        "10914": 169,
        "10915": 14,
        "10916": 207,
        "10917": 21,
        "10918": 172,
        "10919": 43,
        "10920": 116,
        "10921": 9,
        "10922": 198,
        "10923": 208,
        "10924": 225,
        "10925": 237,
        "10926": 50,
        "10927": 41,
        "10928": 156,
        "10929": 163,
        "10930": 210,
        "10931": 173,
        "10932": 232,
        "10933": 241,
        "10934": 242,
        "10935": 170,
        "10936": 220,
        "10937": 92,
        "10938": 162,
        "10939": 165,
        "10940": 190,
        "10941": 73,
        "10942": 134,
        "10943": 78,
        "10944": 218,
        "10945": 54,
        "10946": 238,
        "10947": 151,
        "10948": 76,
        "10949": 84,
        "10950": 164,
        "10951": 53,
        "10952": 139,
        "10953": 128,
        "10954": 203,
        "10955": 251,
        "10956": 138,
        "10957": 66,
        "10958": 97,
        "10959": 60,
        "10960": 159,
        "10961": 181,
        "10962": 139,
        "10963": 207,
        "10964": 180,
        "10965": 175,
        "10966": 186,
        "10967": 202,
        "10968": 72,
        "10969": 198,
        "10970": 55,
        "10971": 53,
        "10972": 196,
        "10973": 28,
        "10974": 115,
        "10975": 191,
        "10976": 245,
        "10977": 77,
        "10978": 244,
        "10979": 69,
        "10980": 10,
        "10981": 106,
        "10982": 97,
        "10983": 201,
        "10984": 231,
        "10985": 74,
        "10986": 83,
        "10987": 94,
        "10988": 250,
        "10989": 178,
        "10990": 250,
        "10991": 236,
        "10992": 168,
        "10993": 29,
        "10994": 206,
        "10995": 93,
        "10996": 6,
        "10997": 56,
        "10998": 153,
        "10999": 249,
        "11000": 163,
        "11001": 65,
        "11002": 113,
        "11003": 192,
        "11004": 207,
        "11005": 120,
        "11006": 164,
        "11007": 96,
        "11008": 44,
        "11009": 240,
        "11010": 39,
        "11011": 11,
        "11012": 136,
        "11013": 251,
        "11014": 66,
        "11015": 209,
        "11016": 129,
        "11017": 95,
        "11018": 156,
        "11019": 131,
        "11020": 161,
        "11021": 253,
        "11022": 139,
        "11023": 240,
        "11024": 169,
        "11025": 170,
        "11026": 63,
        "11027": 126,
        "11028": 236,
        "11029": 28,
        "11030": 194,
        "11031": 129,
        "11032": 188,
        "11033": 82,
        "11034": 211,
        "11035": 25,
        "11036": 40,
        "11037": 223,
        "11038": 119,
        "11039": 237,
        "11040": 167,
        "11041": 57,
        "11042": 15,
        "11043": 142,
        "11044": 14,
        "11045": 70,
        "11046": 92,
        "11047": 153,
        "11048": 204,
        "11049": 105,
        "11050": 25,
        "11051": 186,
        "11052": 255,
        "11053": 108,
        "11054": 165,
        "11055": 53,
        "11056": 155,
        "11057": 219,
        "11058": 249,
        "11059": 160,
        "11060": 223,
        "11061": 104,
        "11062": 25,
        "11063": 126,
        "11064": 53,
        "11065": 15,
        "11066": 145,
        "11067": 186,
        "11068": 99,
        "11069": 56,
        "11070": 132,
        "11071": 30,
        "11072": 198,
        "11073": 20,
        "11074": 205,
        "11075": 218,
        "11076": 181,
        "11077": 166,
        "11078": 157,
        "11079": 155,
        "11080": 189,
        "11081": 35,
        "11082": 87,
        "11083": 128,
        "11084": 72,
        "11085": 121,
        "11086": 29,
        "11087": 61,
        "11088": 15,
        "11089": 255,
        "11090": 189,
        "11091": 117,
        "11092": 71,
        "11093": 40,
        "11094": 12,
        "11095": 251,
        "11096": 108,
        "11097": 20,
        "11098": 156,
        "11099": 38,
        "11100": 45,
        "11101": 176,
        "11102": 141,
        "11103": 55,
        "11104": 202,
        "11105": 231,
        "11106": 142,
        "11107": 75,
        "11108": 84,
        "11109": 96,
        "11110": 148,
        "11111": 243,
        "11112": 241,
        "11113": 211,
        "11114": 36,
        "11115": 152,
        "11116": 240,
        "11117": 164,
        "11118": 134,
        "11119": 10,
        "11120": 133,
        "11121": 134,
        "11122": 205,
        "11123": 58,
        "11124": 182,
        "11125": 137,
        "11126": 94,
        "11127": 212,
        "11128": 40,
        "11129": 133,
        "11130": 179,
        "11131": 101,
        "11132": 169,
        "11133": 221,
        "11134": 13,
        "11135": 164,
        "11136": 245,
        "11137": 10,
        "11138": 164,
        "11139": 144,
        "11140": 176,
        "11141": 100,
        "11142": 193,
        "11143": 157,
        "11144": 172,
        "11145": 251,
        "11146": 67,
        "11147": 170,
        "11148": 194,
        "11149": 63,
        "11150": 137,
        "11151": 94,
        "11152": 57,
        "11153": 198,
        "11154": 188,
        "11155": 130,
        "11156": 45,
        "11157": 36,
        "11158": 220,
        "11159": 74,
        "11160": 169,
        "11161": 181,
        "11162": 60,
        "11163": 114,
        "11164": 44,
        "11165": 32,
        "11166": 231,
        "11167": 0,
        "11168": 168,
        "11169": 70,
        "11170": 190,
        "11171": 202,
        "11172": 209,
        "11173": 134,
        "11174": 25,
        "11175": 186,
        "11176": 8,
        "11177": 210,
        "11178": 34,
        "11179": 59,
        "11180": 13,
        "11181": 178,
        "11182": 86,
        "11183": 254,
        "11184": 143,
        "11185": 185,
        "11186": 16,
        "11187": 35,
        "11188": 253,
        "11189": 223,
        "11190": 63,
        "11191": 1,
        "11192": 154,
        "11193": 188,
        "11194": 140,
        "11195": 119,
        "11196": 233,
        "11197": 5,
        "11198": 28,
        "11199": 50,
        "11200": 7,
        "11201": 225,
        "11202": 190,
        "11203": 210,
        "11204": 87,
        "11205": 145,
        "11206": 34,
        "11207": 209,
        "11208": 2,
        "11209": 132,
        "11210": 97,
        "11211": 107,
        "11212": 134,
        "11213": 116,
        "11214": 179,
        "11215": 26,
        "11216": 58,
        "11217": 251,
        "11218": 199,
        "11219": 81,
        "11220": 18,
        "11221": 244,
        "11222": 82,
        "11223": 109,
        "11224": 176,
        "11225": 99,
        "11226": 164,
        "11227": 149,
        "11228": 220,
        "11229": 26,
        "11230": 99,
        "11231": 190,
        "11232": 100,
        "11233": 93,
        "11234": 7,
        "11235": 185,
        "11236": 142,
        "11237": 51,
        "11238": 219,
        "11239": 1,
        "11240": 10,
        "11241": 108,
        "11242": 77,
        "11243": 81,
        "11244": 84,
        "11245": 131,
        "11246": 212,
        "11247": 164,
        "11248": 186,
        "11249": 59,
        "11250": 198,
        "11251": 10,
        "11252": 212,
        "11253": 201,
        "11254": 86,
        "11255": 222,
        "11256": 59,
        "11257": 120,
        "11258": 194,
        "11259": 178,
        "11260": 140,
        "11261": 54,
        "11262": 124,
        "11263": 183,
        "11264": 85,
        "11265": 224,
        "11266": 109,
        "11267": 232,
        "11268": 1,
        "11269": 4,
        "11270": 86,
        "11271": 140,
        "11272": 207,
        "11273": 152,
        "11274": 48,
        "11275": 205,
        "11276": 205,
        "11277": 57,
        "11278": 170,
        "11279": 96,
        "11280": 75,
        "11281": 104,
        "11282": 19,
        "11283": 246,
        "11284": 89,
        "11285": 7,
        "11286": 176,
        "11287": 44,
        "11288": 207,
        "11289": 118,
        "11290": 137,
        "11291": 16,
        "11292": 51,
        "11293": 11,
        "11294": 24,
        "11295": 80,
        "11296": 232,
        "11297": 231,
        "11298": 188,
        "11299": 194,
        "11300": 137,
        "11301": 212,
        "11302": 92,
        "11303": 153,
        "11304": 45,
        "11305": 65,
        "11306": 145,
        "11307": 84,
        "11308": 66,
        "11309": 110,
        "11310": 14,
        "11311": 0,
        "11312": 150,
        "11313": 51,
        "11314": 244,
        "11315": 196,
        "11316": 142,
        "11317": 58,
        "11318": 215,
        "11319": 252,
        "11320": 102,
        "11321": 87,
        "11322": 58,
        "11323": 48,
        "11324": 70,
        "11325": 235,
        "11326": 160,
        "11327": 149,
        "11328": 10,
        "11329": 102,
        "11330": 115,
        "11331": 193,
        "11332": 94,
        "11333": 60,
        "11334": 250,
        "11335": 155,
        "11336": 116,
        "11337": 224,
        "11338": 175,
        "11339": 63,
        "11340": 66,
        "11341": 195,
        "11342": 88,
        "11343": 122,
        "11344": 219,
        "11345": 78,
        "11346": 114,
        "11347": 91,
        "11348": 73,
        "11349": 241,
        "11350": 246,
        "11351": 108,
        "11352": 136,
        "11353": 193,
        "11354": 157,
        "11355": 68,
        "11356": 45,
        "11357": 154,
        "11358": 239,
        "11359": 19,
        "11360": 200,
        "11361": 75,
        "11362": 50,
        "11363": 93,
        "11364": 23,
        "11365": 214,
        "11366": 228,
        "11367": 56,
        "11368": 147,
        "11369": 81,
        "11370": 81,
        "11371": 26,
        "11372": 71,
        "11373": 23,
        "11374": 36,
        "11375": 201,
        "11376": 36,
        "11377": 95,
        "11378": 51,
        "11379": 246,
        "11380": 165,
        "11381": 97,
        "11382": 168,
        "11383": 27,
        "11384": 124,
        "11385": 119,
        "11386": 113,
        "11387": 46,
        "11388": 98,
        "11389": 50,
        "11390": 3,
        "11391": 46,
        "11392": 50,
        "11393": 168,
        "11394": 145,
        "11395": 203,
        "11396": 228,
        "11397": 95,
        "11398": 240,
        "11399": 224,
        "11400": 128,
        "11401": 77,
        "11402": 128,
        "11403": 58,
        "11404": 236,
        "11405": 113,
        "11406": 8,
        "11407": 82,
        "11408": 142,
        "11409": 166,
        "11410": 235,
        "11411": 21,
        "11412": 8,
        "11413": 72,
        "11414": 193,
        "11415": 214,
        "11416": 110,
        "11417": 53,
        "11418": 151,
        "11419": 102,
        "11420": 63,
        "11421": 134,
        "11422": 137,
        "11423": 135,
        "11424": 222,
        "11425": 199,
        "11426": 142,
        "11427": 36,
        "11428": 213,
        "11429": 174,
        "11430": 51,
        "11431": 86,
        "11432": 141,
        "11433": 208,
        "11434": 191,
        "11435": 184,
        "11436": 82,
        "11437": 1,
        "11438": 186,
        "11439": 180,
        "11440": 186,
        "11441": 122,
        "11442": 115,
        "11443": 150,
        "11444": 60,
        "11445": 172,
        "11446": 120,
        "11447": 247,
        "11448": 117,
        "11449": 132,
        "11450": 14,
        "11451": 153,
        "11452": 237,
        "11453": 102,
        "11454": 99,
        "11455": 149,
        "11456": 8,
        "11457": 169,
        "11458": 196,
        "11459": 103,
        "11460": 113,
        "11461": 112,
        "11462": 194,
        "11463": 0,
        "11464": 123,
        "11465": 84,
        "11466": 19,
        "11467": 231,
        "11468": 73,
        "11469": 231,
        "11470": 97,
        "11471": 74,
        "11472": 121,
        "11473": 18,
        "11474": 150,
        "11475": 15,
        "11476": 206,
        "11477": 59,
        "11478": 152,
        "11479": 140,
        "11480": 146,
        "11481": 215,
        "11482": 115,
        "11483": 12,
        "11484": 230,
        "11485": 180,
        "11486": 70,
        "11487": 164,
        "11488": 255,
        "11489": 219,
        "11490": 6,
        "11491": 136,
        "11492": 61,
        "11493": 84,
        "11494": 171,
        "11495": 145,
        "11496": 18,
        "11497": 12,
        "11498": 10,
        "11499": 140,
        "11500": 120,
        "11501": 219,
        "11502": 137,
        "11503": 243,
        "11504": 189,
        "11505": 76,
        "11506": 177,
        "11507": 219,
        "11508": 1,
        "11509": 78,
        "11510": 50,
        "11511": 244,
        "11512": 27,
        "11513": 166,
        "11514": 217,
        "11515": 97,
        "11516": 63,
        "11517": 50,
        "11518": 253,
        "11519": 128,
        "11520": 225,
        "11521": 13,
        "11522": 203,
        "11523": 251,
        "11524": 138,
        "11525": 45,
        "11526": 213,
        "11527": 107,
        "11528": 58,
        "11529": 204,
        "11530": 173,
        "11531": 138,
        "11532": 193,
        "11533": 189,
        "11534": 60,
        "11535": 33,
        "11536": 40,
        "11537": 38,
        "11538": 117,
        "11539": 250,
        "11540": 232,
        "11541": 252,
        "11542": 183,
        "11543": 61,
        "11544": 187,
        "11545": 97,
        "11546": 93,
        "11547": 81,
        "11548": 108,
        "11549": 244,
        "11550": 73,
        "11551": 8,
        "11552": 32,
        "11553": 156,
        "11554": 223,
        "11555": 93,
        "11556": 117,
        "11557": 235,
        "11558": 222,
        "11559": 5,
        "11560": 165,
        "11561": 143,
        "11562": 123,
        "11563": 221,
        "11564": 128,
        "11565": 233,
        "11566": 9,
        "11567": 0,
        "11568": 247,
        "11569": 27,
        "11570": 138,
        "11571": 203,
        "11572": 34,
        "11573": 223,
        "11574": 115,
        "11575": 222,
        "11576": 19,
        "11577": 68,
        "11578": 207,
        "11579": 4,
        "11580": 82,
        "11581": 226,
        "11582": 103,
        "11583": 29,
        "11584": 25,
        "11585": 236,
        "11586": 19,
        "11587": 122,
        "11588": 8,
        "11589": 245,
        "11590": 172,
        "11591": 91,
        "11592": 25,
        "11593": 180,
        "11594": 164,
        "11595": 49,
        "11596": 0,
        "11597": 227,
        "11598": 183,
        "11599": 193,
        "11600": 28,
        "11601": 169,
        "11602": 137,
        "11603": 185,
        "11604": 246,
        "11605": 198,
        "11606": 196,
        "11607": 248,
        "11608": 142,
        "11609": 98,
        "11610": 246,
        "11611": 216,
        "11612": 110,
        "11613": 141,
        "11614": 186,
        "11615": 127,
        "11616": 5,
        "11617": 20,
        "11618": 166,
        "11619": 116,
        "11620": 38,
        "11621": 173,
        "11622": 205,
        "11623": 252,
        "11624": 4,
        "11625": 201,
        "11626": 20,
        "11627": 194,
        "11628": 71,
        "11629": 33,
        "11630": 234,
        "11631": 117,
        "11632": 28,
        "11633": 165,
        "11634": 94,
        "11635": 153,
        "11636": 7,
        "11637": 73,
        "11638": 237,
        "11639": 79,
        "11640": 139,
        "11641": 145,
        "11642": 149,
        "11643": 180,
        "11644": 254,
        "11645": 234,
        "11646": 204,
        "11647": 60,
        "11648": 190,
        "11649": 59,
        "11650": 33,
        "11651": 158,
        "11652": 172,
        "11653": 106,
        "11654": 88,
        "11655": 120,
        "11656": 172,
        "11657": 30,
        "11658": 136,
        "11659": 128,
        "11660": 189,
        "11661": 179,
        "11662": 191,
        "11663": 221,
        "11664": 192,
        "11665": 117,
        "11666": 223,
        "11667": 49,
        "11668": 128,
        "11669": 240,
        "11670": 72,
        "11671": 157,
        "11672": 11,
        "11673": 82,
        "11674": 12,
        "11675": 136,
        "11676": 117,
        "11677": 52,
        "11678": 201,
        "11679": 16,
        "11680": 119,
        "11681": 191,
        "11682": 130,
        "11683": 31,
        "11684": 13,
        "11685": 227,
        "11686": 113,
        "11687": 140,
        "11688": 72,
        "11689": 151,
        "11690": 115,
        "11691": 112,
        "11692": 176,
        "11693": 34,
        "11694": 214,
        "11695": 220,
        "11696": 153,
        "11697": 171,
        "11698": 204,
        "11699": 116,
        "11700": 181,
        "11701": 173,
        "11702": 25,
        "11703": 103,
        "11704": 158,
        "11705": 253,
        "11706": 222,
        "11707": 53,
        "11708": 67,
        "11709": 188,
        "11710": 81,
        "11711": 151,
        "11712": 118,
        "11713": 205,
        "11714": 90,
        "11715": 190,
        "11716": 205,
        "11717": 134,
        "11718": 214,
        "11719": 74,
        "11720": 153,
        "11721": 47,
        "11722": 237,
        "11723": 186,
        "11724": 5,
        "11725": 176,
        "11726": 120,
        "11727": 202,
        "11728": 195,
        "11729": 12,
        "11730": 91,
        "11731": 171,
        "11732": 19,
        "11733": 36,
        "11734": 180,
        "11735": 205,
        "11736": 92,
        "11737": 21,
        "11738": 140,
        "11739": 28,
        "11740": 195,
        "11741": 63,
        "11742": 113,
        "11743": 225,
        "11744": 152,
        "11745": 97,
        "11746": 77,
        "11747": 251,
        "11748": 50,
        "11749": 193,
        "11750": 111,
        "11751": 201,
        "11752": 123,
        "11753": 159,
        "11754": 156,
        "11755": 90,
        "11756": 57,
        "11757": 97,
        "11758": 222,
        "11759": 120,
        "11760": 186,
        "11761": 91,
        "11762": 216,
        "11763": 125,
        "11764": 150,
        "11765": 188,
        "11766": 142,
        "11767": 109,
        "11768": 77,
        "11769": 92,
        "11770": 123,
        "11771": 164,
        "11772": 112,
        "11773": 212,
        "11774": 62,
        "11775": 141,
        "11776": 219,
        "11777": 237,
        "11778": 199,
        "11779": 62,
        "11780": 184,
        "11781": 120,
        "11782": 17,
        "11783": 145,
        "11784": 211,
        "11785": 120,
        "11786": 248,
        "11787": 80,
        "11788": 140,
        "11789": 11,
        "11790": 124,
        "11791": 193,
        "11792": 133,
        "11793": 94,
        "11794": 202,
        "11795": 69,
        "11796": 100,
        "11797": 10,
        "11798": 98,
        "11799": 51,
        "11800": 245,
        "11801": 125,
        "11802": 23,
        "11803": 58,
        "11804": 227,
        "11805": 173,
        "11806": 60,
        "11807": 152,
        "11808": 94,
        "11809": 142,
        "11810": 200,
        "11811": 245,
        "11812": 141,
        "11813": 214,
        "11814": 14,
        "11815": 42,
        "11816": 221,
        "11817": 93,
        "11818": 33,
        "11819": 146,
        "11820": 125,
        "11821": 229,
        "11822": 87,
        "11823": 212,
        "11824": 243,
        "11825": 112,
        "11826": 60,
        "11827": 235,
        "11828": 54,
        "11829": 169,
        "11830": 241,
        "11831": 188,
        "11832": 146,
        "11833": 50,
        "11834": 78,
        "11835": 88,
        "11836": 31,
        "11837": 43,
        "11838": 51,
        "11839": 15,
        "11840": 163,
        "11841": 2,
        "11842": 169,
        "11843": 231,
        "11844": 183,
        "11845": 225,
        "11846": 39,
        "11847": 52,
        "11848": 148,
        "11849": 150,
        "11850": 220,
        "11851": 0,
        "11852": 193,
        "11853": 75,
        "11854": 13,
        "11855": 94,
        "11856": 195,
        "11857": 106,
        "11858": 107,
        "11859": 190,
        "11860": 72,
        "11861": 176,
        "11862": 136,
        "11863": 227,
        "11864": 82,
        "11865": 93,
        "11866": 3,
        "11867": 89,
        "11868": 50,
        "11869": 160,
        "11870": 206,
        "11871": 231,
        "11872": 111,
        "11873": 213,
        "11874": 92,
        "11875": 18,
        "11876": 141,
        "11877": 56,
        "11878": 150,
        "11879": 89,
        "11880": 240,
        "11881": 43,
        "11882": 123,
        "11883": 205,
        "11884": 85,
        "11885": 156,
        "11886": 5,
        "11887": 42,
        "11888": 167,
        "11889": 6,
        "11890": 34,
        "11891": 202,
        "11892": 5,
        "11893": 30,
        "11894": 233,
        "11895": 136,
        "11896": 126,
        "11897": 51,
        "11898": 120,
        "11899": 188,
        "11900": 164,
        "11901": 197,
        "11902": 1,
        "11903": 78,
        "11904": 14,
        "11905": 187,
        "11906": 102,
        "11907": 6,
        "11908": 185,
        "11909": 147,
        "11910": 185,
        "11911": 10,
        "11912": 77,
        "11913": 5,
        "11914": 54,
        "11915": 70,
        "11916": 124,
        "11917": 222,
        "11918": 239,
        "11919": 124,
        "11920": 110,
        "11921": 240,
        "11922": 207,
        "11923": 147,
        "11924": 217,
        "11925": 250,
        "11926": 219,
        "11927": 106,
        "11928": 230,
        "11929": 115,
        "11930": 39,
        "11931": 56,
        "11932": 100,
        "11933": 248,
        "11934": 241,
        "11935": 107,
        "11936": 62,
        "11937": 87,
        "11938": 165,
        "11939": 76,
        "11940": 244,
        "11941": 97,
        "11942": 220,
        "11943": 63,
        "11944": 124,
        "11945": 16,
        "11946": 154,
        "11947": 255,
        "11948": 215,
        "11949": 90,
        "11950": 162,
        "11951": 247,
        "11952": 110,
        "11953": 74,
        "11954": 77,
        "11955": 119,
        "11956": 229,
        "11957": 178,
        "11958": 222,
        "11959": 3,
        "11960": 62,
        "11961": 247,
        "11962": 89,
        "11963": 118,
        "11964": 189,
        "11965": 112,
        "11966": 11,
        "11967": 16,
        "11968": 128,
        "11969": 238,
        "11970": 201,
        "11971": 47,
        "11972": 248,
        "11973": 156,
        "11974": 242,
        "11975": 107,
        "11976": 0,
        "11977": 102,
        "11978": 65,
        "11979": 42,
        "11980": 236,
        "11981": 233,
        "11982": 194,
        "11983": 242,
        "11984": 35,
        "11985": 77,
        "11986": 57,
        "11987": 27,
        "11988": 168,
        "11989": 117,
        "11990": 32,
        "11991": 171,
        "11992": 191,
        "11993": 232,
        "11994": 215,
        "11995": 132,
        "11996": 191,
        "11997": 188,
        "11998": 144,
        "11999": 39,
        "12000": 149,
        "12001": 232,
        "12002": 191,
        "12003": 112,
        "12004": 118,
        "12005": 171,
        "12006": 233,
        "12007": 13,
        "12008": 28,
        "12009": 253,
        "12010": 204,
        "12011": 133,
        "12012": 150,
        "12013": 229,
        "12014": 55,
        "12015": 88,
        "12016": 94,
        "12017": 149,
        "12018": 246,
        "12019": 51,
        "12020": 254,
        "12021": 130,
        "12022": 255,
        "12023": 234,
        "12024": 216,
        "12025": 25,
        "12026": 169,
        "12027": 71,
        "12028": 216,
        "12029": 102,
        "12030": 176,
        "12031": 252,
        "12032": 14,
        "12033": 250,
        "12034": 185,
        "12035": 219,
        "12036": 177,
        "12037": 58,
        "12038": 195,
        "12039": 227,
        "12040": 40,
        "12041": 189,
        "12042": 48,
        "12043": 31,
        "12044": 103,
        "12045": 101,
        "12046": 135,
        "12047": 192,
        "12048": 103,
        "12049": 66,
        "12050": 98,
        "12051": 98,
        "12052": 87,
        "12053": 172,
        "12054": 99,
        "12055": 65,
        "12056": 19,
        "12057": 10,
        "12058": 110,
        "12059": 93,
        "12060": 134,
        "12061": 82,
        "12062": 2,
        "12063": 178,
        "12064": 13,
        "12065": 66,
        "12066": 136,
        "12067": 134,
        "12068": 180,
        "12069": 185,
        "12070": 47,
        "12071": 3,
        "12072": 242,
        "12073": 187,
        "12074": 0,
        "12075": 12,
        "12076": 248,
        "12077": 106,
        "12078": 134,
        "12079": 156,
        "12080": 137,
        "12081": 14,
        "12082": 189,
        "12083": 10,
        "12084": 152,
        "12085": 105,
        "12086": 48,
        "12087": 25,
        "12088": 40,
        "12089": 157,
        "12090": 193,
        "12091": 55,
        "12092": 9,
        "12093": 12,
        "12094": 165,
        "12095": 154,
        "12096": 26,
        "12097": 34,
        "12098": 41,
        "12099": 48,
        "12100": 50,
        "12101": 160,
        "12102": 225,
        "12103": 227,
        "12104": 104,
        "12105": 98,
        "12106": 31,
        "12107": 243,
        "12108": 146,
        "12109": 37,
        "12110": 157,
        "12111": 70,
        "12112": 59,
        "12113": 194,
        "12114": 188,
        "12115": 90,
        "12116": 98,
        "12117": 173,
        "12118": 144,
        "12119": 205,
        "12120": 148,
        "12121": 216,
        "12122": 30,
        "12123": 40,
        "12124": 135,
        "12125": 95,
        "12126": 255,
        "12127": 125,
        "12128": 53,
        "12129": 47,
        "12130": 30,
        "12131": 60,
        "12132": 100,
        "12133": 197,
        "12134": 59,
        "12135": 203,
        "12136": 14,
        "12137": 214,
        "12138": 12,
        "12139": 213,
        "12140": 129,
        "12141": 236,
        "12142": 84,
        "12143": 236,
        "12144": 61,
        "12145": 53,
        "12146": 101,
        "12147": 147,
        "12148": 105,
        "12149": 24,
        "12150": 38,
        "12151": 202,
        "12152": 143,
        "12153": 22,
        "12154": 20,
        "12155": 182,
        "12156": 120,
        "12157": 228,
        "12158": 5,
        "12159": 43,
        "12160": 74,
        "12161": 102,
        "12162": 30,
        "12163": 83,
        "12164": 71,
        "12165": 71,
        "12166": 17,
        "12167": 236,
        "12168": 108,
        "12169": 11,
        "12170": 85,
        "12171": 191,
        "12172": 149,
        "12173": 1,
        "12174": 129,
        "12175": 119,
        "12176": 11,
        "12177": 80,
        "12178": 157,
        "12179": 153,
        "12180": 129,
        "12181": 193,
        "12182": 131,
        "12183": 7,
        "12184": 182,
        "12185": 48,
        "12186": 145,
        "12187": 132,
        "12188": 198,
        "12189": 238,
        "12190": 152,
        "12191": 85,
        "12192": 117,
        "12193": 145,
        "12194": 23,
        "12195": 14,
        "12196": 150,
        "12197": 119,
        "12198": 104,
        "12199": 2,
        "12200": 242,
        "12201": 108,
        "12202": 12,
        "12203": 246,
        "12204": 14,
        "12205": 33,
        "12206": 27,
        "12207": 145,
        "12208": 136,
        "12209": 193,
        "12210": 162,
        "12211": 136,
        "12212": 149,
        "12213": 108,
        "12214": 194,
        "12215": 103,
        "12216": 58,
        "12217": 62,
        "12218": 7,
        "12219": 152,
        "12220": 160,
        "12221": 141,
        "12222": 237,
        "12223": 64,
        "12224": 172,
        "12225": 106,
        "12226": 118,
        "12227": 191,
        "12228": 208,
        "12229": 12,
        "12230": 3,
        "12231": 202,
        "12232": 96,
        "12233": 180,
        "12234": 238,
        "12235": 1,
        "12236": 17,
        "12237": 200,
        "12238": 8,
        "12239": 17,
        "12240": 122,
        "12241": 228,
        "12242": 13,
        "12243": 28,
        "12244": 226,
        "12245": 1,
        "12246": 140,
        "12247": 68,
        "12248": 60,
        "12249": 180,
        "12250": 99,
        "12251": 63,
        "12252": 17,
        "12253": 181,
        "12254": 75,
        "12255": 133,
        "12256": 99,
        "12257": 37,
        "12258": 151,
        "12259": 52,
        "12260": 30,
        "12261": 127,
        "12262": 51,
        "12263": 190,
        "12264": 66,
        "12265": 173,
        "12266": 218,
        "12267": 12,
        "12268": 224,
        "12269": 134,
        "12270": 99,
        "12271": 122,
        "12272": 93,
        "12273": 133,
        "12274": 97,
        "12275": 122,
        "12276": 144,
        "12277": 145,
        "12278": 169,
        "12279": 131,
        "12280": 207,
        "12281": 9,
        "12282": 170,
        "12283": 168,
        "12284": 220,
        "12285": 150,
        "12286": 149,
        "12287": 70,
        "12288": 94,
        "12289": 21,
        "12290": 211,
        "12291": 136,
        "12292": 188,
        "12293": 246,
        "12294": 3,
        "12295": 203,
        "12296": 137,
        "12297": 0,
        "12298": 250,
        "12299": 45,
        "12300": 196,
        "12301": 214,
        "12302": 39,
        "12303": 220,
        "12304": 93,
        "12305": 117,
        "12306": 252,
        "12307": 149,
        "12308": 136,
        "12309": 63,
        "12310": 49,
        "12311": 65,
        "12312": 155,
        "12313": 158,
        "12314": 112,
        "12315": 143,
        "12316": 194,
        "12317": 94,
        "12318": 88,
        "12319": 57,
        "12320": 244,
        "12321": 114,
        "12322": 41,
        "12323": 125,
        "12324": 85,
        "12325": 68,
        "12326": 70,
        "12327": 159,
        "12328": 12,
        "12329": 32,
        "12330": 160,
        "12331": 154,
        "12332": 157,
        "12333": 115,
        "12334": 200,
        "12335": 50,
        "12336": 207,
        "12337": 231,
        "12338": 187,
        "12339": 22,
        "12340": 80,
        "12341": 11,
        "12342": 184,
        "12343": 73,
        "12344": 0,
        "12345": 74,
        "12346": 211,
        "12347": 186,
        "12348": 70,
        "12349": 218,
        "12350": 125,
        "12351": 8,
        "12352": 72,
        "12353": 14,
        "12354": 130,
        "12355": 156,
        "12356": 110,
        "12357": 230,
        "12358": 235,
        "12359": 36,
        "12360": 198,
        "12361": 108,
        "12362": 141,
        "12363": 67,
        "12364": 165,
        "12365": 67,
        "12366": 146,
        "12367": 81,
        "12368": 119,
        "12369": 105,
        "12370": 189,
        "12371": 228,
        "12372": 133,
        "12373": 93,
        "12374": 147,
        "12375": 97,
        "12376": 144,
        "12377": 215,
        "12378": 142,
        "12379": 42,
        "12380": 156,
        "12381": 225,
        "12382": 169,
        "12383": 166,
        "12384": 230,
        "12385": 210,
        "12386": 218,
        "12387": 162,
        "12388": 207,
        "12389": 93,
        "12390": 245,
        "12391": 159,
        "12392": 41,
        "12393": 17,
        "12394": 35,
        "12395": 187,
        "12396": 43,
        "12397": 157,
        "12398": 98,
        "12399": 89,
        "12400": 214,
        "12401": 129,
        "12402": 238,
        "12403": 125,
        "12404": 223,
        "12405": 115,
        "12406": 134,
        "12407": 4,
        "12408": 200,
        "12409": 71,
        "12410": 148,
        "12411": 157,
        "12412": 4,
        "12413": 148,
        "12414": 73,
        "12415": 163,
        "12416": 137,
        "12417": 142,
        "12418": 104,
        "12419": 148,
        "12420": 67,
        "12421": 225,
        "12422": 97,
        "12423": 235,
        "12424": 137,
        "12425": 32,
        "12426": 54,
        "12427": 68,
        "12428": 87,
        "12429": 120,
        "12430": 7,
        "12431": 0,
        "12432": 82,
        "12433": 3,
        "12434": 105,
        "12435": 74,
        "12436": 112,
        "12437": 191,
        "12438": 30,
        "12439": 183,
        "12440": 124,
        "12441": 98,
        "12442": 61,
        "12443": 1,
        "12444": 200,
        "12445": 216,
        "12446": 67,
        "12447": 185,
        "12448": 227,
        "12449": 197,
        "12450": 233,
        "12451": 164,
        "12452": 97,
        "12453": 50,
        "12454": 7,
        "12455": 241,
        "12456": 95,
        "12457": 212,
        "12458": 74,
        "12459": 235,
        "12460": 25,
        "12461": 98,
        "12462": 197,
        "12463": 58,
        "12464": 125,
        "12465": 203,
        "12466": 42,
        "12467": 41,
        "12468": 188,
        "12469": 201,
        "12470": 236,
        "12471": 254,
        "12472": 244,
        "12473": 82,
        "12474": 210,
        "12475": 14,
        "12476": 246,
        "12477": 41,
        "12478": 3,
        "12479": 233,
        "12480": 146,
        "12481": 13,
        "12482": 175,
        "12483": 218,
        "12484": 73,
        "12485": 118,
        "12486": 125,
        "12487": 126,
        "12488": 57,
        "12489": 151,
        "12490": 52,
        "12491": 74,
        "12492": 170,
        "12493": 136,
        "12494": 152,
        "12495": 31,
        "12496": 143,
        "12497": 105,
        "12498": 249,
        "12499": 115,
        "12500": 233,
        "12501": 69,
        "12502": 230,
        "12503": 128,
        "12504": 10,
        "12505": 204,
        "12506": 54,
        "12507": 152,
        "12508": 176,
        "12509": 85,
        "12510": 140,
        "12511": 103,
        "12512": 59,
        "12513": 205,
        "12514": 29,
        "12515": 206,
        "12516": 149,
        "12517": 244,
        "12518": 156,
        "12519": 190,
        "12520": 111,
        "12521": 87,
        "12522": 51,
        "12523": 90,
        "12524": 54,
        "12525": 146,
        "12526": 81,
        "12527": 34,
        "12528": 183,
        "12529": 49,
        "12530": 227,
        "12531": 8,
        "12532": 192,
        "12533": 153,
        "12534": 179,
        "12535": 141,
        "12536": 60,
        "12537": 126,
        "12538": 100,
        "12539": 240,
        "12540": 208,
        "12541": 226,
        "12542": 68,
        "12543": 26,
        "12544": 210,
        "12545": 55,
        "12546": 97,
        "12547": 49,
        "12548": 111,
        "12549": 175,
        "12550": 160,
        "12551": 54,
        "12552": 208,
        "12553": 85,
        "12554": 40,
        "12555": 90,
        "12556": 144,
        "12557": 161,
        "12558": 40,
        "12559": 184,
        "12560": 32,
        "12561": 66,
        "12562": 171,
        "12563": 45,
        "12564": 97,
        "12565": 255,
        "12566": 224,
        "12567": 73,
        "12568": 166,
        "12569": 52,
        "12570": 248,
        "12571": 184,
        "12572": 71,
        "12573": 254,
        "12574": 154,
        "12575": 105,
        "12576": 234,
        "12577": 192,
        "12578": 1,
        "12579": 86,
        "12580": 106,
        "12581": 251,
        "12582": 128,
        "12583": 20,
        "12584": 117,
        "12585": 196,
        "12586": 211,
        "12587": 211,
        "12588": 140,
        "12589": 202,
        "12590": 87,
        "12591": 152,
        "12592": 104,
        "12593": 162,
        "12594": 47,
        "12595": 102,
        "12596": 243,
        "12597": 96,
        "12598": 49,
        "12599": 227,
        "12600": 207,
        "12601": 134,
        "12602": 30,
        "12603": 220,
        "12604": 11,
        "12605": 185,
        "12606": 61,
        "12607": 185,
        "12608": 236,
        "12609": 246,
        "12610": 135,
        "12611": 104,
        "12612": 74,
        "12613": 40,
        "12614": 224,
        "12615": 69,
        "12616": 250,
        "12617": 71,
        "12618": 41,
        "12619": 243,
        "12620": 11,
        "12621": 36,
        "12622": 105,
        "12623": 95,
        "12624": 101,
        "12625": 151,
        "12626": 64,
        "12627": 103,
        "12628": 68,
        "12629": 138,
        "12630": 18,
        "12631": 23,
        "12632": 148,
        "12633": 192,
        "12634": 245,
        "12635": 220,
        "12636": 81,
        "12637": 213,
        "12638": 131,
        "12639": 120,
        "12640": 243,
        "12641": 117,
        "12642": 21,
        "12643": 214,
        "12644": 196,
        "12645": 67,
        "12646": 62,
        "12647": 217,
        "12648": 97,
        "12649": 107,
        "12650": 152,
        "12651": 79,
        "12652": 245,
        "12653": 199,
        "12654": 154,
        "12655": 222,
        "12656": 210,
        "12657": 190,
        "12658": 140,
        "12659": 192,
        "12660": 118,
        "12661": 18,
        "12662": 223,
        "12663": 59,
        "12664": 24,
        "12665": 119,
        "12666": 35,
        "12667": 153,
        "12668": 244,
        "12669": 216,
        "12670": 145,
        "12671": 164,
        "12672": 94,
        "12673": 127,
        "12674": 90,
        "12675": 17,
        "12676": 225,
        "12677": 113,
        "12678": 115,
        "12679": 148,
        "12680": 221,
        "12681": 227,
        "12682": 254,
        "12683": 22,
        "12684": 68,
        "12685": 142,
        "12686": 181,
        "12687": 177,
        "12688": 203,
        "12689": 139,
        "12690": 236,
        "12691": 70,
        "12692": 107,
        "12693": 243,
        "12694": 185,
        "12695": 140,
        "12696": 240,
        "12697": 68,
        "12698": 165,
        "12699": 252,
        "12700": 129,
        "12701": 212,
        "12702": 168,
        "12703": 208,
        "12704": 250,
        "12705": 24,
        "12706": 163,
        "12707": 117,
        "12708": 30,
        "12709": 105,
        "12710": 245,
        "12711": 133,
        "12712": 208,
        "12713": 55,
        "12714": 151,
        "12715": 188,
        "12716": 149,
        "12717": 4,
        "12718": 105,
        "12719": 221,
        "12720": 95,
        "12721": 99,
        "12722": 202,
        "12723": 59,
        "12724": 190,
        "12725": 212,
        "12726": 120,
        "12727": 48,
        "12728": 166,
        "12729": 219,
        "12730": 84,
        "12731": 219,
        "12732": 101,
        "12733": 40,
        "12734": 254,
        "12735": 19,
        "12736": 252,
        "12737": 23,
        "12738": 33,
        "12739": 37,
        "12740": 205,
        "12741": 221,
        "12742": 184,
        "12743": 134,
        "12744": 180,
        "12745": 218,
        "12746": 125,
        "12747": 74,
        "12748": 107,
        "12749": 148,
        "12750": 59,
        "12751": 236,
        "12752": 234,
        "12753": 112,
        "12754": 72,
        "12755": 207,
        "12756": 9,
        "12757": 20,
        "12758": 204,
        "12759": 29,
        "12760": 61,
        "12761": 12,
        "12762": 22,
        "12763": 179,
        "12764": 72,
        "12765": 177,
        "12766": 154,
        "12767": 178,
        "12768": 182,
        "12769": 235,
        "12770": 210,
        "12771": 92,
        "12772": 251,
        "12773": 111,
        "12774": 165,
        "12775": 95,
        "12776": 110,
        "12777": 202,
        "12778": 239,
        "12779": 111,
        "12780": 208,
        "12781": 191,
        "12782": 14,
        "12783": 24,
        "12784": 159,
        "12785": 45,
        "12786": 28,
        "12787": 37,
        "12788": 78,
        "12789": 213,
        "12790": 243,
        "12791": 122,
        "12792": 155,
        "12793": 101,
        "12794": 70,
        "12795": 181,
        "12796": 51,
        "12797": 57,
        "12798": 111,
        "12799": 206,
        "12800": 38,
        "12801": 177,
        "12802": 187,
        "12803": 224,
        "12804": 206,
        "12805": 70,
        "12806": 43,
        "12807": 249,
        "12808": 93,
        "12809": 136,
        "12810": 24,
        "12811": 65,
        "12812": 62,
        "12813": 187,
        "12814": 55,
        "12815": 167,
        "12816": 86,
        "12817": 229,
        "12818": 252,
        "12819": 233,
        "12820": 11,
        "12821": 89,
        "12822": 181,
        "12823": 42,
        "12824": 68,
        "12825": 254,
        "12826": 86,
        "12827": 193,
        "12828": 164,
        "12829": 233,
        "12830": 42,
        "12831": 95,
        "12832": 219,
        "12833": 253,
        "12834": 208,
        "12835": 39,
        "12836": 20,
        "12837": 76,
        "12838": 189,
        "12839": 88,
        "12840": 112,
        "12841": 66,
        "12842": 131,
        "12843": 68,
        "12844": 53,
        "12845": 52,
        "12846": 169,
        "12847": 169,
        "12848": 130,
        "12849": 229,
        "12850": 52,
        "12851": 42,
        "12852": 140,
        "12853": 81,
        "12854": 246,
        "12855": 100,
        "12856": 98,
        "12857": 29,
        "12858": 112,
        "12859": 11,
        "12860": 10,
        "12861": 217,
        "12862": 85,
        "12863": 63,
        "12864": 15,
        "12865": 192,
        "12866": 6,
        "12867": 175,
        "12868": 218,
        "12869": 242,
        "12870": 155,
        "12871": 68,
        "12872": 43,
        "12873": 96,
        "12874": 165,
        "12875": 113,
        "12876": 122,
        "12877": 121,
        "12878": 171,
        "12879": 118,
        "12880": 223,
        "12881": 208,
        "12882": 78,
        "12883": 124,
        "12884": 37,
        "12885": 163,
        "12886": 174,
        "12887": 66,
        "12888": 20,
        "12889": 65,
        "12890": 114,
        "12891": 158,
        "12892": 7,
        "12893": 90,
        "12894": 119,
        "12895": 32,
        "12896": 45,
        "12897": 81,
        "12898": 131,
        "12899": 176,
        "12900": 254,
        "12901": 68,
        "12902": 71,
        "12903": 222,
        "12904": 41,
        "12905": 243,
        "12906": 95,
        "12907": 157,
        "12908": 1,
        "12909": 192,
        "12910": 100,
        "12911": 56,
        "12912": 115,
        "12913": 68,
        "12914": 55,
        "12915": 158,
        "12916": 3,
        "12917": 137,
        "12918": 86,
        "12919": 29,
        "12920": 27,
        "12921": 182,
        "12922": 83,
        "12923": 57,
        "12924": 171,
        "12925": 202,
        "12926": 188,
        "12927": 219,
        "12928": 120,
        "12929": 152,
        "12930": 74,
        "12931": 9,
        "12932": 214,
        "12933": 192,
        "12934": 120,
        "12935": 11,
        "12936": 217,
        "12937": 127,
        "12938": 97,
        "12939": 108,
        "12940": 241,
        "12941": 13,
        "12942": 151,
        "12943": 73,
        "12944": 78,
        "12945": 162,
        "12946": 122,
        "12947": 10,
        "12948": 218,
        "12949": 101,
        "12950": 84,
        "12951": 28,
        "12952": 236,
        "12953": 237,
        "12954": 4,
        "12955": 110,
        "12956": 59,
        "12957": 42,
        "12958": 149,
        "12959": 8,
        "12960": 219,
        "12961": 219,
        "12962": 37,
        "12963": 13,
        "12964": 54,
        "12965": 210,
        "12966": 247,
        "12967": 124,
        "12968": 96,
        "12969": 57,
        "12970": 56,
        "12971": 141,
        "12972": 188,
        "12973": 41,
        "12974": 241,
        "12975": 205,
        "12976": 23,
        "12977": 135,
        "12978": 114,
        "12979": 38,
        "12980": 184,
        "12981": 165,
        "12982": 57,
        "12983": 87,
        "12984": 155,
        "12985": 194,
        "12986": 241,
        "12987": 22,
        "12988": 247,
        "12989": 177,
        "12990": 247,
        "12991": 153,
        "12992": 66,
        "12993": 236,
        "12994": 42,
        "12995": 56,
        "12996": 171,
        "12997": 240,
        "12998": 106,
        "12999": 53,
        "13000": 138,
        "13001": 33,
        "13002": 59,
        "13003": 142,
        "13004": 220,
        "13005": 105,
        "13006": 200,
        "13007": 84,
        "13008": 154,
        "13009": 99,
        "13010": 78,
        "13011": 161,
        "13012": 181,
        "13013": 42,
        "13014": 10,
        "13015": 175,
        "13016": 190,
        "13017": 156,
        "13018": 30,
        "13019": 88,
        "13020": 156,
        "13021": 140,
        "13022": 114,
        "13023": 143,
        "13024": 139,
        "13025": 22,
        "13026": 122,
        "13027": 229,
        "13028": 188,
        "13029": 51,
        "13030": 80,
        "13031": 113,
        "13032": 81,
        "13033": 180,
        "13034": 178,
        "13035": 113,
        "13036": 191,
        "13037": 194,
        "13038": 123,
        "13039": 22,
        "13040": 28,
        "13041": 89,
        "13042": 229,
        "13043": 77,
        "13044": 92,
        "13045": 255,
        "13046": 90,
        "13047": 13,
        "13048": 211,
        "13049": 45,
        "13050": 219,
        "13051": 141,
        "13052": 54,
        "13053": 165,
        "13054": 1,
        "13055": 100,
        "13056": 11,
        "13057": 194,
        "13058": 96,
        "13059": 234,
        "13060": 156,
        "13061": 225,
        "13062": 190,
        "13063": 65,
        "13064": 186,
        "13065": 13,
        "13066": 89,
        "13067": 220,
        "13068": 150,
        "13069": 141,
        "13070": 186,
        "13071": 58,
        "13072": 89,
        "13073": 35,
        "13074": 46,
        "13075": 235,
        "13076": 71,
        "13077": 46,
        "13078": 102,
        "13079": 25,
        "13080": 86,
        "13081": 82,
        "13082": 216,
        "13083": 207,
        "13084": 188,
        "13085": 69,
        "13086": 24,
        "13087": 4,
        "13088": 119,
        "13089": 251,
        "13090": 185,
        "13091": 70,
        "13092": 58,
        "13093": 73,
        "13094": 181,
        "13095": 15,
        "13096": 215,
        "13097": 163,
        "13098": 100,
        "13099": 49,
        "13100": 139,
        "13101": 79,
        "13102": 61,
        "13103": 28,
        "13104": 66,
        "13105": 37,
        "13106": 78,
        "13107": 239,
        "13108": 64,
        "13109": 189,
        "13110": 141,
        "13111": 45,
        "13112": 87,
        "13113": 225,
        "13114": 6,
        "13115": 159,
        "13116": 236,
        "13117": 119,
        "13118": 62,
        "13119": 198,
        "13120": 37,
        "13121": 26,
        "13122": 236,
        "13123": 62,
        "13124": 233,
        "13125": 250,
        "13126": 149,
        "13127": 88,
        "13128": 25,
        "13129": 12,
        "13130": 248,
        "13131": 87,
        "13132": 125,
        "13133": 194,
        "13134": 178,
        "13135": 139,
        "13136": 29,
        "13137": 42,
        "13138": 192,
        "13139": 178,
        "13140": 181,
        "13141": 71,
        "13142": 243,
        "13143": 110,
        "13144": 174,
        "13145": 14,
        "13146": 23,
        "13147": 31,
        "13148": 152,
        "13149": 178,
        "13150": 30,
        "13151": 251,
        "13152": 35,
        "13153": 143,
        "13154": 90,
        "13155": 12,
        "13156": 248,
        "13157": 52,
        "13158": 228,
        "13159": 53,
        "13160": 225,
        "13161": 157,
        "13162": 8,
        "13163": 176,
        "13164": 252,
        "13165": 14,
        "13166": 185,
        "13167": 195,
        "13168": 226,
        "13169": 179,
        "13170": 159,
        "13171": 27,
        "13172": 91,
        "13173": 102,
        "13174": 97,
        "13175": 165,
        "13176": 118,
        "13177": 97,
        "13178": 26,
        "13179": 90,
        "13180": 130,
        "13181": 149,
        "13182": 165,
        "13183": 147,
        "13184": 86,
        "13185": 254,
        "13186": 97,
        "13187": 35,
        "13188": 29,
        "13189": 110,
        "13190": 201,
        "13191": 106,
        "13192": 149,
        "13193": 129,
        "13194": 239,
        "13195": 107,
        "13196": 91,
        "13197": 167,
        "13198": 37,
        "13199": 174,
        "13200": 65,
        "13201": 104,
        "13202": 148,
        "13203": 105,
        "13204": 144,
        "13205": 114,
        "13206": 3,
        "13207": 216,
        "13208": 213,
        "13209": 173,
        "13210": 228,
        "13211": 144,
        "13212": 41,
        "13213": 75,
        "13214": 108,
        "13215": 213,
        "13216": 103,
        "13217": 77,
        "13218": 74,
        "13219": 89,
        "13220": 75,
        "13221": 132,
        "13222": 156,
        "13223": 34,
        "13224": 207,
        "13225": 13,
        "13226": 91,
        "13227": 163,
        "13228": 168,
        "13229": 50,
        "13230": 244,
        "13231": 0,
        "13232": 54,
        "13233": 75,
        "13234": 150,
        "13235": 16,
        "13236": 149,
        "13237": 134,
        "13238": 90,
        "13239": 64,
        "13240": 121,
        "13241": 131,
        "13242": 174,
        "13243": 49,
        "13244": 93,
        "13245": 111,
        "13246": 65,
        "13247": 137,
        "13248": 199,
        "13249": 244,
        "13250": 130,
        "13251": 90,
        "13252": 151,
        "13253": 245,
        "13254": 237,
        "13255": 252,
        "13256": 27,
        "13257": 153,
        "13258": 33,
        "13259": 171,
        "13260": 234,
        "13261": 171,
        "13262": 118,
        "13263": 194,
        "13264": 229,
        "13265": 222,
        "13266": 161,
        "13267": 26,
        "13268": 44,
        "13269": 102,
        "13270": 107,
        "13271": 130,
        "13272": 53,
        "13273": 25,
        "13274": 207,
        "13275": 116,
        "13276": 63,
        "13277": 238,
        "13278": 51,
        "13279": 150,
        "13280": 169,
        "13281": 89,
        "13282": 113,
        "13283": 196,
        "13284": 99,
        "13285": 174,
        "13286": 204,
        "13287": 210,
        "13288": 91,
        "13289": 0,
        "13290": 67,
        "13291": 137,
        "13292": 218,
        "13293": 14,
        "13294": 179,
        "13295": 117,
        "13296": 157,
        "13297": 234,
        "13298": 63,
        "13299": 119,
        "13300": 236,
        "13301": 88,
        "13302": 90,
        "13303": 101,
        "13304": 245,
        "13305": 169,
        "13306": 163,
        "13307": 167,
        "13308": 64,
        "13309": 251,
        "13310": 46,
        "13311": 228,
        "13312": 166,
        "13313": 163,
        "13314": 53,
        "13315": 2,
        "13316": 17,
        "13317": 149,
        "13318": 79,
        "13319": 166,
        "13320": 173,
        "13321": 226,
        "13322": 243,
        "13323": 13,
        "13324": 95,
        "13325": 134,
        "13326": 132,
        "13327": 208,
        "13328": 213,
        "13329": 21,
        "13330": 239,
        "13331": 179,
        "13332": 99,
        "13333": 122,
        "13334": 121,
        "13335": 10,
        "13336": 132,
        "13337": 200,
        "13338": 83,
        "13339": 101,
        "13340": 97,
        "13341": 84,
        "13342": 154,
        "13343": 132,
        "13344": 250,
        "13345": 218,
        "13346": 33,
        "13347": 63,
        "13348": 82,
        "13349": 34,
        "13350": 76,
        "13351": 37,
        "13352": 109,
        "13353": 150,
        "13354": 170,
        "13355": 209,
        "13356": 39,
        "13357": 116,
        "13358": 128,
        "13359": 168,
        "13360": 5,
        "13361": 72,
        "13362": 188,
        "13363": 175,
        "13364": 145,
        "13365": 234,
        "13366": 142,
        "13367": 150,
        "13368": 172,
        "13369": 49,
        "13370": 156,
        "13371": 103,
        "13372": 189,
        "13373": 244,
        "13374": 24,
        "13375": 202,
        "13376": 134,
        "13377": 226,
        "13378": 254,
        "13379": 67,
        "13380": 253,
        "13381": 204,
        "13382": 200,
        "13383": 244,
        "13384": 133,
        "13385": 195,
        "13386": 216,
        "13387": 194,
        "13388": 189,
        "13389": 237,
        "13390": 242,
        "13391": 171,
        "13392": 15,
        "13393": 103,
        "13394": 165,
        "13395": 141,
        "13396": 191,
        "13397": 75,
        "13398": 14,
        "13399": 249,
        "13400": 160,
        "13401": 238,
        "13402": 67,
        "13403": 130,
        "13404": 237,
        "13405": 119,
        "13406": 85,
        "13407": 221,
        "13408": 131,
        "13409": 80,
        "13410": 188,
        "13411": 44,
        "13412": 142,
        "13413": 11,
        "13414": 29,
        "13415": 8,
        "13416": 80,
        "13417": 105,
        "13418": 151,
        "13419": 158,
        "13420": 125,
        "13421": 106,
        "13422": 167,
        "13423": 123,
        "13424": 14,
        "13425": 70,
        "13426": 57,
        "13427": 231,
        "13428": 231,
        "13429": 78,
        "13430": 73,
        "13431": 12,
        "13432": 27,
        "13433": 135,
        "13434": 110,
        "13435": 249,
        "13436": 109,
        "13437": 106,
        "13438": 147,
        "13439": 150,
        "13440": 134,
        "13441": 236,
        "13442": 152,
        "13443": 218,
        "13444": 185,
        "13445": 82,
        "13446": 9,
        "13447": 233,
        "13448": 153,
        "13449": 149,
        "13450": 39,
        "13451": 18,
        "13452": 239,
        "13453": 222,
        "13454": 112,
        "13455": 12,
        "13456": 127,
        "13457": 29,
        "13458": 96,
        "13459": 59,
        "13460": 234,
        "13461": 78,
        "13462": 98,
        "13463": 18,
        "13464": 221,
        "13465": 169,
        "13466": 91,
        "13467": 39,
        "13468": 152,
        "13469": 17,
        "13470": 184,
        "13471": 233,
        "13472": 80,
        "13473": 11,
        "13474": 105,
        "13475": 188,
        "13476": 43,
        "13477": 246,
        "13478": 176,
        "13479": 155,
        "13480": 29,
        "13481": 198,
        "13482": 171,
        "13483": 231,
        "13484": 107,
        "13485": 60,
        "13486": 187,
        "13487": 241,
        "13488": 90,
        "13489": 23,
        "13490": 4,
        "13491": 29,
        "13492": 13,
        "13493": 149,
        "13494": 236,
        "13495": 54,
        "13496": 222,
        "13497": 38,
        "13498": 187,
        "13499": 241,
        "13500": 230,
        "13501": 199,
        "13502": 227,
        "13503": 14,
        "13504": 236,
        "13505": 169,
        "13506": 142,
        "13507": 164,
        "13508": 47,
        "13509": 220,
        "13510": 24,
        "13511": 211,
        "13512": 109,
        "13513": 254,
        "13514": 151,
        "13515": 189,
        "13516": 236,
        "13517": 167,
        "13518": 157,
        "13519": 44,
        "13520": 232,
        "13521": 203,
        "13522": 133,
        "13523": 60,
        "13524": 60,
        "13525": 21,
        "13526": 170,
        "13527": 60,
        "13528": 223,
        "13529": 143,
        "13530": 246,
        "13531": 41,
        "13532": 58,
        "13533": 225,
        "13534": 81,
        "13535": 40,
        "13536": 196,
        "13537": 139,
        "13538": 82,
        "13539": 118,
        "13540": 160,
        "13541": 207,
        "13542": 56,
        "13543": 239,
        "13544": 175,
        "13545": 144,
        "13546": 240,
        "13547": 213,
        "13548": 200,
        "13549": 237,
        "13550": 80,
        "13551": 127,
        "13552": 243,
        "13553": 248,
        "13554": 108,
        "13555": 152,
        "13556": 98,
        "13557": 32,
        "13558": 79,
        "13559": 169,
        "13560": 164,
        "13561": 66,
        "13562": 202,
        "13563": 252,
        "13564": 32,
        "13565": 98,
        "13566": 87,
        "13567": 212,
        "13568": 77,
        "13569": 31,
        "13570": 5,
        "13571": 131,
        "13572": 220,
        "13573": 83,
        "13574": 117,
        "13575": 43,
        "13576": 74,
        "13577": 213,
        "13578": 105,
        "13579": 244,
        "13580": 171,
        "13581": 1,
        "13582": 144,
        "13583": 80,
        "13584": 21,
        "13585": 51,
        "13586": 176,
        "13587": 32,
        "13588": 14,
        "13589": 171,
        "13590": 93,
        "13591": 18,
        "13592": 224,
        "13593": 190,
        "13594": 13,
        "13595": 161,
        "13596": 232,
        "13597": 144,
        "13598": 123,
        "13599": 149,
        "13600": 219,
        "13601": 94,
        "13602": 154,
        "13603": 212,
        "13604": 129,
        "13605": 233,
        "13606": 8,
        "13607": 163,
        "13608": 136,
        "13609": 60,
        "13610": 68,
        "13611": 174,
        "13612": 85,
        "13613": 166,
        "13614": 14,
        "13615": 144,
        "13616": 76,
        "13617": 91,
        "13618": 75,
        "13619": 39,
        "13620": 171,
        "13621": 8,
        "13622": 178,
        "13623": 66,
        "13624": 6,
        "13625": 156,
        "13626": 59,
        "13627": 133,
        "13628": 222,
        "13629": 93,
        "13630": 151,
        "13631": 134,
        "13632": 172,
        "13633": 100,
        "13634": 13,
        "13635": 194,
        "13636": 151,
        "13637": 212,
        "13638": 101,
        "13639": 112,
        "13640": 246,
        "13641": 173,
        "13642": 200,
        "13643": 42,
        "13644": 22,
        "13645": 197,
        "13646": 120,
        "13647": 147,
        "13648": 51,
        "13649": 11,
        "13650": 175,
        "13651": 95,
        "13652": 47,
        "13653": 193,
        "13654": 165,
        "13655": 74,
        "13656": 47,
        "13657": 42,
        "13658": 15,
        "13659": 168,
        "13660": 225,
        "13661": 244,
        "13662": 142,
        "13663": 140,
        "13664": 244,
        "13665": 97,
        "13666": 202,
        "13667": 170,
        "13668": 123,
        "13669": 59,
        "13670": 194,
        "13671": 150,
        "13672": 47,
        "13673": 110,
        "13674": 118,
        "13675": 79,
        "13676": 221,
        "13677": 95,
        "13678": 237,
        "13679": 152,
        "13680": 38,
        "13681": 23,
        "13682": 104,
        "13683": 28,
        "13684": 165,
        "13685": 200,
        "13686": 236,
        "13687": 24,
        "13688": 25,
        "13689": 70,
        "13690": 208,
        "13691": 243,
        "13692": 105,
        "13693": 246,
        "13694": 188,
        "13695": 10,
        "13696": 203,
        "13697": 190,
        "13698": 253,
        "13699": 157,
        "13700": 148,
        "13701": 116,
        "13702": 193,
        "13703": 196,
        "13704": 135,
        "13705": 56,
        "13706": 203,
        "13707": 189,
        "13708": 20,
        "13709": 80,
        "13710": 100,
        "13711": 53,
        "13712": 91,
        "13713": 249,
        "13714": 181,
        "13715": 83,
        "13716": 125,
        "13717": 152,
        "13718": 135,
        "13719": 152,
        "13720": 28,
        "13721": 224,
        "13722": 1,
        "13723": 210,
        "13724": 117,
        "13725": 146,
        "13726": 25,
        "13727": 20,
        "13728": 66,
        "13729": 207,
        "13730": 32,
        "13731": 135,
        "13732": 70,
        "13733": 98,
        "13734": 161,
        "13735": 158,
        "13736": 9,
        "13737": 180,
        "13738": 232,
        "13739": 209,
        "13740": 255,
        "13741": 242,
        "13742": 205,
        "13743": 74,
        "13744": 214,
        "13745": 123,
        "13746": 107,
        "13747": 246,
        "13748": 123,
        "13749": 215,
        "13750": 230,
        "13751": 138,
        "13752": 193,
        "13753": 169,
        "13754": 137,
        "13755": 77,
        "13756": 102,
        "13757": 215,
        "13758": 30,
        "13759": 155,
        "13760": 119,
        "13761": 118,
        "13762": 241,
        "13763": 203,
        "13764": 105,
        "13765": 200,
        "13766": 13,
        "13767": 212,
        "13768": 189,
        "13769": 227,
        "13770": 118,
        "13771": 129,
        "13772": 39,
        "13773": 85,
        "13774": 24,
        "13775": 155,
        "13776": 201,
        "13777": 199,
        "13778": 164,
        "13779": 134,
        "13780": 92,
        "13781": 236,
        "13782": 214,
        "13783": 38,
        "13784": 227,
        "13785": 224,
        "13786": 162,
        "13787": 197,
        "13788": 0,
        "13789": 139,
        "13790": 129,
        "13791": 235,
        "13792": 17,
        "13793": 243,
        "13794": 149,
        "13795": 152,
        "13796": 159,
        "13797": 122,
        "13798": 39,
        "13799": 46,
        "13800": 22,
        "13801": 169,
        "13802": 67,
        "13803": 24,
        "13804": 91,
        "13805": 122,
        "13806": 149,
        "13807": 14,
        "13808": 163,
        "13809": 104,
        "13810": 95,
        "13811": 123,
        "13812": 217,
        "13813": 169,
        "13814": 251,
        "13815": 206,
        "13816": 41,
        "13817": 100,
        "13818": 119,
        "13819": 246,
        "13820": 3,
        "13821": 210,
        "13822": 147,
        "13823": 248,
        "13824": 18,
        "13825": 170,
        "13826": 81,
        "13827": 169,
        "13828": 129,
        "13829": 200,
        "13830": 53,
        "13831": 15,
        "13832": 252,
        "13833": 185,
        "13834": 99,
        "13835": 78,
        "13836": 220,
        "13837": 0,
        "13838": 88,
        "13839": 244,
        "13840": 4,
        "13841": 156,
        "13842": 156,
        "13843": 203,
        "13844": 80,
        "13845": 53,
        "13846": 100,
        "13847": 158,
        "13848": 199,
        "13849": 250,
        "13850": 77,
        "13851": 185,
        "13852": 84,
        "13853": 157,
        "13854": 93,
        "13855": 176,
        "13856": 109,
        "13857": 243,
        "13858": 133,
        "13859": 85,
        "13860": 2,
        "13861": 11,
        "13862": 136,
        "13863": 27,
        "13864": 117,
        "13865": 50,
        "13866": 183,
        "13867": 243,
        "13868": 121,
        "13869": 66,
        "13870": 64,
        "13871": 75,
        "13872": 7,
        "13873": 51,
        "13874": 18,
        "13875": 216,
        "13876": 220,
        "13877": 9,
        "13878": 85,
        "13879": 18,
        "13880": 28,
        "13881": 97,
        "13882": 2,
        "13883": 4,
        "13884": 135,
        "13885": 219,
        "13886": 199,
        "13887": 210,
        "13888": 170,
        "13889": 184,
        "13890": 214,
        "13891": 136,
        "13892": 233,
        "13893": 171,
        "13894": 131,
        "13895": 17,
        "13896": 95,
        "13897": 27,
        "13898": 236,
        "13899": 163,
        "13900": 30,
        "13901": 196,
        "13902": 12,
        "13903": 171,
        "13904": 113,
        "13905": 13,
        "13906": 200,
        "13907": 168,
        "13908": 113,
        "13909": 181,
        "13910": 40,
        "13911": 93,
        "13912": 94,
        "13913": 244,
        "13914": 114,
        "13915": 185,
        "13916": 231,
        "13917": 24,
        "13918": 242,
        "13919": 211,
        "13920": 242,
        "13921": 164,
        "13922": 4,
        "13923": 238,
        "13924": 117,
        "13925": 63,
        "13926": 177,
        "13927": 155,
        "13928": 15,
        "13929": 11,
        "13930": 124,
        "13931": 166,
        "13932": 243,
        "13933": 60,
        "13934": 99,
        "13935": 113,
        "13936": 99,
        "13937": 27,
        "13938": 20,
        "13939": 138,
        "13940": 165,
        "13941": 218,
        "13942": 181,
        "13943": 241,
        "13944": 174,
        "13945": 15,
        "13946": 54,
        "13947": 232,
        "13948": 6,
        "13949": 4,
        "13950": 221,
        "13951": 238,
        "13952": 89,
        "13953": 93,
        "13954": 157,
        "13955": 138,
        "13956": 27,
        "13957": 126,
        "13958": 226,
        "13959": 50,
        "13960": 144,
        "13961": 7,
        "13962": 47,
        "13963": 171,
        "13964": 29,
        "13965": 62,
        "13966": 63,
        "13967": 82,
        "13968": 69,
        "13969": 202,
        "13970": 89,
        "13971": 250,
        "13972": 103,
        "13973": 55,
        "13974": 154,
        "13975": 117,
        "13976": 115,
        "13977": 106,
        "13978": 166,
        "13979": 71,
        "13980": 212,
        "13981": 71,
        "13982": 183,
        "13983": 20,
        "13984": 191,
        "13985": 64,
        "13986": 229,
        "13987": 253,
        "13988": 197,
        "13989": 39,
        "13990": 119,
        "13991": 61,
        "13992": 35,
        "13993": 82,
        "13994": 81,
        "13995": 202,
        "13996": 1,
        "13997": 233,
        "13998": 138,
        "13999": 78,
        "14000": 191,
        "14001": 64,
        "14002": 36,
        "14003": 115,
        "14004": 2,
        "14005": 197,
        "14006": 61,
        "14007": 92,
        "14008": 189,
        "14009": 114,
        "14010": 147,
        "14011": 16,
        "14012": 98,
        "14013": 119,
        "14014": 31,
        "14015": 138,
        "14016": 123,
        "14017": 244,
        "14018": 137,
        "14019": 186,
        "14020": 129,
        "14021": 159,
        "14022": 23,
        "14023": 25,
        "14024": 81,
        "14025": 15,
        "14026": 210,
        "14027": 143,
        "14028": 134,
        "14029": 72,
        "14030": 102,
        "14031": 43,
        "14032": 213,
        "14033": 39,
        "14034": 120,
        "14035": 74,
        "14036": 242,
        "14037": 80,
        "14038": 235,
        "14039": 5,
        "14040": 189,
        "14041": 81,
        "14042": 65,
        "14043": 229,
        "14044": 41,
        "14045": 42,
        "14046": 78,
        "14047": 71,
        "14048": 243,
        "14049": 220,
        "14050": 71,
        "14051": 22,
        "14052": 37,
        "14053": 30,
        "14054": 93,
        "14055": 34,
        "14056": 40,
        "14057": 231,
        "14058": 49,
        "14059": 239,
        "14060": 111,
        "14061": 20,
        "14062": 95,
        "14063": 94,
        "14064": 120,
        "14065": 196,
        "14066": 234,
        "14067": 30,
        "14068": 122,
        "14069": 209,
        "14070": 203,
        "14071": 191,
        "14072": 150,
        "14073": 33,
        "14074": 46,
        "14075": 53,
        "14076": 146,
        "14077": 148,
        "14078": 168,
        "14079": 112,
        "14080": 101,
        "14081": 93,
        "14082": 210,
        "14083": 89,
        "14084": 65,
        "14085": 139,
        "14086": 203,
        "14087": 204,
        "14088": 171,
        "14089": 2,
        "14090": 132,
        "14091": 73,
        "14092": 249,
        "14093": 195,
        "14094": 8,
        "14095": 85,
        "14096": 32,
        "14097": 70,
        "14098": 98,
        "14099": 217,
        "14100": 51,
        "14101": 50,
        "14102": 212,
        "14103": 225,
        "14104": 75,
        "14105": 77,
        "14106": 167,
        "14107": 3,
        "14108": 100,
        "14109": 54,
        "14110": 88,
        "14111": 4,
        "14112": 194,
        "14113": 149,
        "14114": 12,
        "14115": 235,
        "14116": 207,
        "14117": 34,
        "14118": 224,
        "14119": 67,
        "14120": 37,
        "14121": 4,
        "14122": 245,
        "14123": 94,
        "14124": 185,
        "14125": 105,
        "14126": 210,
        "14127": 219,
        "14128": 195,
        "14129": 87,
        "14130": 109,
        "14131": 9,
        "14132": 207,
        "14133": 80,
        "14134": 154,
        "14135": 182,
        "14136": 211,
        "14137": 144,
        "14138": 75,
        "14139": 55,
        "14140": 255,
        "14141": 3,
        "14142": 217,
        "14143": 209,
        "14144": 56,
        "14145": 23,
        "14146": 59,
        "14147": 43,
        "14148": 219,
        "14149": 1,
        "14150": 51,
        "14151": 231,
        "14152": 92,
        "14153": 23,
        "14154": 9,
        "14155": 160,
        "14156": 191,
        "14157": 22,
        "14158": 15,
        "14159": 200,
        "14160": 198,
        "14161": 20,
        "14162": 36,
        "14163": 111,
        "14164": 86,
        "14165": 226,
        "14166": 108,
        "14167": 55,
        "14168": 179,
        "14169": 168,
        "14170": 36,
        "14171": 36,
        "14172": 84,
        "14173": 194,
        "14174": 19,
        "14175": 143,
        "14176": 14,
        "14177": 31,
        "14178": 92,
        "14179": 97,
        "14180": 73,
        "14181": 222,
        "14182": 202,
        "14183": 198,
        "14184": 120,
        "14185": 22,
        "14186": 147,
        "14187": 254,
        "14188": 186,
        "14189": 101,
        "14190": 147,
        "14191": 86,
        "14192": 149,
        "14193": 147,
        "14194": 201,
        "14195": 108,
        "14196": 87,
        "14197": 120,
        "14198": 145,
        "14199": 52,
        "14200": 115,
        "14201": 162,
        "14202": 222,
        "14203": 9,
        "14204": 62,
        "14205": 98,
        "14206": 243,
        "14207": 0,
        "14208": 108,
        "14209": 157,
        "14210": 193,
        "14211": 224,
        "14212": 75,
        "14213": 32,
        "14214": 51,
        "14215": 89,
        "14216": 229,
        "14217": 154,
        "14218": 234,
        "14219": 120,
        "14220": 229,
        "14221": 134,
        "14222": 80,
        "14223": 19,
        "14224": 229,
        "14225": 248,
        "14226": 238,
        "14227": 128,
        "14228": 59,
        "14229": 183,
        "14230": 169,
        "14231": 252,
        "14232": 117,
        "14233": 71,
        "14234": 92,
        "14235": 137,
        "14236": 106,
        "14237": 161,
        "14238": 126,
        "14239": 179,
        "14240": 93,
        "14241": 97,
        "14242": 173,
        "14243": 229,
        "14244": 143,
        "14245": 22,
        "14246": 156,
        "14247": 1,
        "14248": 147,
        "14249": 116,
        "14250": 102,
        "14251": 78,
        "14252": 9,
        "14253": 255,
        "14254": 251,
        "14255": 124,
        "14256": 120,
        "14257": 112,
        "14258": 189,
        "14259": 161,
        "14260": 86,
        "14261": 153,
        "14262": 65,
        "14263": 199,
        "14264": 204,
        "14265": 152,
        "14266": 178,
        "14267": 155,
        "14268": 223,
        "14269": 14,
        "14270": 146,
        "14271": 82,
        "14272": 73,
        "14273": 18,
        "14274": 195,
        "14275": 122,
        "14276": 106,
        "14277": 83,
        "14278": 164,
        "14279": 239,
        "14280": 2,
        "14281": 134,
        "14282": 34,
        "14283": 59,
        "14284": 86,
        "14285": 75,
        "14286": 77,
        "14287": 198,
        "14288": 98,
        "14289": 72,
        "14290": 6,
        "14291": 96,
        "14292": 88,
        "14293": 38,
        "14294": 111,
        "14295": 243,
        "14296": 252,
        "14297": 240,
        "14298": 169,
        "14299": 0,
        "14300": 170,
        "14301": 249,
        "14302": 226,
        "14303": 26,
        "14304": 134,
        "14305": 18,
        "14306": 238,
        "14307": 61,
        "14308": 198,
        "14309": 51,
        "14310": 97,
        "14311": 231,
        "14312": 240,
        "14313": 19,
        "14314": 22,
        "14315": 225,
        "14316": 134,
        "14317": 250,
        "14318": 73,
        "14319": 245,
        "14320": 167,
        "14321": 205,
        "14322": 14,
        "14323": 11,
        "14324": 166,
        "14325": 161,
        "14326": 160,
        "14327": 186,
        "14328": 217,
        "14329": 68,
        "14330": 119,
        "14331": 3,
        "14332": 38,
        "14333": 148,
        "14334": 46,
        "14335": 123,
        "14336": 209,
        "14337": 128,
        "14338": 40,
        "14339": 68,
        "14340": 28,
        "14341": 181,
        "14342": 182,
        "14343": 211,
        "14344": 5,
        "14345": 209,
        "14346": 69,
        "14347": 152,
        "14348": 26,
        "14349": 51,
        "14350": 8,
        "14351": 219,
        "14352": 247,
        "14353": 248,
        "14354": 119,
        "14355": 95,
        "14356": 172,
        "14357": 101,
        "14358": 173,
        "14359": 93,
        "14360": 47,
        "14361": 26,
        "14362": 124,
        "14363": 15,
        "14364": 66,
        "14365": 151,
        "14366": 127,
        "14367": 131,
        "14368": 78,
        "14369": 238,
        "14370": 252,
        "14371": 69,
        "14372": 221,
        "14373": 18,
        "14374": 164,
        "14375": 109,
        "14376": 155,
        "14377": 86,
        "14378": 187,
        "14379": 178,
        "14380": 127,
        "14381": 160,
        "14382": 90,
        "14383": 110,
        "14384": 187,
        "14385": 90,
        "14386": 73,
        "14387": 30,
        "14388": 228,
        "14389": 207,
        "14390": 140,
        "14391": 216,
        "14392": 54,
        "14393": 71,
        "14394": 3,
        "14395": 140,
        "14396": 66,
        "14397": 204,
        "14398": 156,
        "14399": 112,
        "14400": 135,
        "14401": 242,
        "14402": 192,
        "14403": 191,
        "14404": 174,
        "14405": 45,
        "14406": 46,
        "14407": 123,
        "14408": 239,
        "14409": 94,
        "14410": 197,
        "14411": 121,
        "14412": 27,
        "14413": 250,
        "14414": 73,
        "14415": 237,
        "14416": 186,
        "14417": 40,
        "14418": 191,
        "14419": 52,
        "14420": 16,
        "14421": 165,
        "14422": 248,
        "14423": 89,
        "14424": 234,
        "14425": 59,
        "14426": 162,
        "14427": 35,
        "14428": 91,
        "14429": 35,
        "14430": 182,
        "14431": 162,
        "14432": 11,
        "14433": 57,
        "14434": 164,
        "14435": 120,
        "14436": 213,
        "14437": 145,
        "14438": 205,
        "14439": 253,
        "14440": 109,
        "14441": 82,
        "14442": 8,
        "14443": 118,
        "14444": 240,
        "14445": 93,
        "14446": 231,
        "14447": 120,
        "14448": 240,
        "14449": 194,
        "14450": 3,
        "14451": 162,
        "14452": 177,
        "14453": 66,
        "14454": 178,
        "14455": 49,
        "14456": 161,
        "14457": 35,
        "14458": 24,
        "14459": 192,
        "14460": 82,
        "14461": 93,
        "14462": 43,
        "14463": 200,
        "14464": 171,
        "14465": 40,
        "14466": 253,
        "14467": 36,
        "14468": 248,
        "14469": 254,
        "14470": 171,
        "14471": 181,
        "14472": 79,
        "14473": 26,
        "14474": 61,
        "14475": 189,
        "14476": 228,
        "14477": 201,
        "14478": 13,
        "14479": 195,
        "14480": 197,
        "14481": 205,
        "14482": 114,
        "14483": 203,
        "14484": 41,
        "14485": 30,
        "14486": 102,
        "14487": 62,
        "14488": 57,
        "14489": 141,
        "14490": 173,
        "14491": 76,
        "14492": 21,
        "14493": 111,
        "14494": 64,
        "14495": 243,
        "14496": 22,
        "14497": 165,
        "14498": 143,
        "14499": 109,
        "14500": 152,
        "14501": 114,
        "14502": 204,
        "14503": 45,
        "14504": 109,
        "14505": 83,
        "14506": 146,
        "14507": 134,
        "14508": 174,
        "14509": 110,
        "14510": 163,
        "14511": 109,
        "14512": 223,
        "14513": 39,
        "14514": 21,
        "14515": 67,
        "14516": 32,
        "14517": 108,
        "14518": 161,
        "14519": 224,
        "14520": 90,
        "14521": 248,
        "14522": 15,
        "14523": 182,
        "14524": 227,
        "14525": 3,
        "14526": 249,
        "14527": 101,
        "14528": 157,
        "14529": 184,
        "14530": 63,
        "14531": 64,
        "14532": 112,
        "14533": 160,
        "14534": 40,
        "14535": 154,
        "14536": 72,
        "14537": 212,
        "14538": 33,
        "14539": 149,
        "14540": 136,
        "14541": 246,
        "14542": 169,
        "14543": 183,
        "14544": 13,
        "14545": 107,
        "14546": 228,
        "14547": 228,
        "14548": 69,
        "14549": 8,
        "14550": 172,
        "14551": 177,
        "14552": 54,
        "14553": 8,
        "14554": 190,
        "14555": 133,
        "14556": 20,
        "14557": 159,
        "14558": 204,
        "14559": 231,
        "14560": 125,
        "14561": 166,
        "14562": 65,
        "14563": 207,
        "14564": 149,
        "14565": 40,
        "14566": 231,
        "14567": 240,
        "14568": 192,
        "14569": 28,
        "14570": 217,
        "14571": 137,
        "14572": 207,
        "14573": 90,
        "14574": 210,
        "14575": 196,
        "14576": 77,
        "14577": 83,
        "14578": 173,
        "14579": 148,
        "14580": 70,
        "14581": 128,
        "14582": 251,
        "14583": 72,
        "14584": 160,
        "14585": 172,
        "14586": 233,
        "14587": 225,
        "14588": 69,
        "14589": 176,
        "14590": 231,
        "14591": 169,
        "14592": 105,
        "14593": 44,
        "14594": 70,
        "14595": 155,
        "14596": 86,
        "14597": 197,
        "14598": 193,
        "14599": 16,
        "14600": 248,
        "14601": 160,
        "14602": 227,
        "14603": 187,
        "14604": 227,
        "14605": 159,
        "14606": 205,
        "14607": 33,
        "14608": 134,
        "14609": 80,
        "14610": 50,
        "14611": 2,
        "14612": 16,
        "14613": 196,
        "14614": 179,
        "14615": 68,
        "14616": 234,
        "14617": 238,
        "14618": 212,
        "14619": 242,
        "14620": 41,
        "14621": 224,
        "14622": 252,
        "14623": 243,
        "14624": 130,
        "14625": 177,
        "14626": 65,
        "14627": 73,
        "14628": 178,
        "14629": 78,
        "14630": 118,
        "14631": 54,
        "14632": 218,
        "14633": 57,
        "14634": 189,
        "14635": 250,
        "14636": 214,
        "14637": 168,
        "14638": 53,
        "14639": 52,
        "14640": 143,
        "14641": 53,
        "14642": 66,
        "14643": 56,
        "14644": 52,
        "14645": 17,
        "14646": 234,
        "14647": 224,
        "14648": 7,
        "14649": 10,
        "14650": 105,
        "14651": 33,
        "14652": 163,
        "14653": 112,
        "14654": 113,
        "14655": 160,
        "14656": 62,
        "14657": 19,
        "14658": 174,
        "14659": 137,
        "14660": 143,
        "14661": 133,
        "14662": 242,
        "14663": 213,
        "14664": 75,
        "14665": 255,
        "14666": 143,
        "14667": 1,
        "14668": 222,
        "14669": 30,
        "14670": 100,
        "14671": 75,
        "14672": 143,
        "14673": 19,
        "14674": 240,
        "14675": 158,
        "14676": 91,
        "14677": 219,
        "14678": 192,
        "14679": 190,
        "14680": 254,
        "14681": 164,
        "14682": 213,
        "14683": 134,
        "14684": 60,
        "14685": 188,
        "14686": 133,
        "14687": 202,
        "14688": 77,
        "14689": 226,
        "14690": 243,
        "14691": 29,
        "14692": 246,
        "14693": 134,
        "14694": 232,
        "14695": 252,
        "14696": 58,
        "14697": 190,
        "14698": 107,
        "14699": 171,
        "14700": 240,
        "14701": 23,
        "14702": 245,
        "14703": 45,
        "14704": 209,
        "14705": 174,
        "14706": 216,
        "14707": 84,
        "14708": 16,
        "14709": 44,
        "14710": 188,
        "14711": 242,
        "14712": 11,
        "14713": 231,
        "14714": 60,
        "14715": 14,
        "14716": 118,
        "14717": 183,
        "14718": 120,
        "14719": 120,
        "14720": 58,
        "14721": 146,
        "14722": 55,
        "14723": 202,
        "14724": 119,
        "14725": 125,
        "14726": 220,
        "14727": 208,
        "14728": 209,
        "14729": 119,
        "14730": 210,
        "14731": 50,
        "14732": 128,
        "14733": 183,
        "14734": 244,
        "14735": 177,
        "14736": 51,
        "14737": 66,
        "14738": 191,
        "14739": 184,
        "14740": 35,
        "14741": 1,
        "14742": 235,
        "14743": 8,
        "14744": 33,
        "14745": 220,
        "14746": 145,
        "14747": 220,
        "14748": 185,
        "14749": 110,
        "14750": 88,
        "14751": 41,
        "14752": 88,
        "14753": 75,
        "14754": 228,
        "14755": 76,
        "14756": 192,
        "14757": 129,
        "14758": 156,
        "14759": 32,
        "14760": 208,
        "14761": 126,
        "14762": 202,
        "14763": 153,
        "14764": 72,
        "14765": 167,
        "14766": 50,
        "14767": 191,
        "14768": 234,
        "14769": 174,
        "14770": 254,
        "14771": 173,
        "14772": 148,
        "14773": 4,
        "14774": 219,
        "14775": 254,
        "14776": 152,
        "14777": 34,
        "14778": 78,
        "14779": 237,
        "14780": 210,
        "14781": 161,
        "14782": 80,
        "14783": 51,
        "14784": 84,
        "14785": 224,
        "14786": 133,
        "14787": 52,
        "14788": 107,
        "14789": 185,
        "14790": 196,
        "14791": 92,
        "14792": 129,
        "14793": 145,
        "14794": 123,
        "14795": 253,
        "14796": 203,
        "14797": 156,
        "14798": 150,
        "14799": 103,
        "14800": 128,
        "14801": 246,
        "14802": 248,
        "14803": 42,
        "14804": 150,
        "14805": 150,
        "14806": 153,
        "14807": 104,
        "14808": 189,
        "14809": 109,
        "14810": 239,
        "14811": 172,
        "14812": 16,
        "14813": 137,
        "14814": 208,
        "14815": 1,
        "14816": 162,
        "14817": 123,
        "14818": 197,
        "14819": 137,
        "14820": 73,
        "14821": 211,
        "14822": 99,
        "14823": 28,
        "14824": 57,
        "14825": 145,
        "14826": 103,
        "14827": 115,
        "14828": 109,
        "14829": 236,
        "14830": 142,
        "14831": 6,
        "14832": 58,
        "14833": 99,
        "14834": 12,
        "14835": 26,
        "14836": 216,
        "14837": 96,
        "14838": 155,
        "14839": 140,
        "14840": 91,
        "14841": 236,
        "14842": 80,
        "14843": 150,
        "14844": 19,
        "14845": 94,
        "14846": 247,
        "14847": 244,
        "14848": 162,
        "14849": 220,
        "14850": 71,
        "14851": 97,
        "14852": 25,
        "14853": 77,
        "14854": 235,
        "14855": 152,
        "14856": 237,
        "14857": 237,
        "14858": 88,
        "14859": 111,
        "14860": 146,
        "14861": 28,
        "14862": 197,
        "14863": 212,
        "14864": 212,
        "14865": 229,
        "14866": 21,
        "14867": 121,
        "14868": 14,
        "14869": 249,
        "14870": 4,
        "14871": 185,
        "14872": 7,
        "14873": 255,
        "14874": 37,
        "14875": 219,
        "14876": 11,
        "14877": 206,
        "14878": 99,
        "14879": 253,
        "14880": 50,
        "14881": 90,
        "14882": 253,
        "14883": 234,
        "14884": 105,
        "14885": 87,
        "14886": 246,
        "14887": 88,
        "14888": 14,
        "14889": 116,
        "14890": 110,
        "14891": 205,
        "14892": 131,
        "14893": 152,
        "14894": 30,
        "14895": 132,
        "14896": 20,
        "14897": 17,
        "14898": 243,
        "14899": 213,
        "14900": 120,
        "14901": 0,
        "14902": 30,
        "14903": 51,
        "14904": 38,
        "14905": 254,
        "14906": 110,
        "14907": 153,
        "14908": 230,
        "14909": 198,
        "14910": 127,
        "14911": 22,
        "14912": 45,
        "14913": 231,
        "14914": 216,
        "14915": 64,
        "14916": 141,
        "14917": 128,
        "14918": 86,
        "14919": 129,
        "14920": 229,
        "14921": 210,
        "14922": 166,
        "14923": 243,
        "14924": 199,
        "14925": 204,
        "14926": 30,
        "14927": 16,
        "14928": 138,
        "14929": 94,
        "14930": 121,
        "14931": 193,
        "14932": 115,
        "14933": 154,
        "14934": 36,
        "14935": 59,
        "14936": 16,
        "14937": 30,
        "14938": 80,
        "14939": 246,
        "14940": 30,
        "14941": 98,
        "14942": 59,
        "14943": 80,
        "14944": 18,
        "14945": 41,
        "14946": 189,
        "14947": 229,
        "14948": 71,
        "14949": 144,
        "14950": 231,
        "14951": 67,
        "14952": 25,
        "14953": 191,
        "14954": 184,
        "14955": 181,
        "14956": 45,
        "14957": 222,
        "14958": 43,
        "14959": 131,
        "14960": 81,
        "14961": 103,
        "14962": 107,
        "14963": 128,
        "14964": 175,
        "14965": 60,
        "14966": 92,
        "14967": 42,
        "14968": 86,
        "14969": 18,
        "14970": 19,
        "14971": 228,
        "14972": 44,
        "14973": 11,
        "14974": 161,
        "14975": 26,
        "14976": 91,
        "14977": 221,
        "14978": 111,
        "14979": 80,
        "14980": 100,
        "14981": 229,
        "14982": 224,
        "14983": 56,
        "14984": 152,
        "14985": 22,
        "14986": 44,
        "14987": 47,
        "14988": 167,
        "14989": 174,
        "14990": 44,
        "14991": 7,
        "14992": 46,
        "14993": 176,
        "14994": 104,
        "14995": 245,
        "14996": 163,
        "14997": 211,
        "14998": 184,
        "14999": 2,
        "15000": 78,
        "15001": 218,
        "15002": 68,
        "15003": 173,
        "15004": 20,
        "15005": 13,
        "15006": 62,
        "15007": 186,
        "15008": 26,
        "15009": 94,
        "15010": 230,
        "15011": 159,
        "15012": 231,
        "15013": 232,
        "15014": 9,
        "15015": 22,
        "15016": 202,
        "15017": 96,
        "15018": 81,
        "15019": 109,
        "15020": 148,
        "15021": 117,
        "15022": 152,
        "15023": 56,
        "15024": 166,
        "15025": 248,
        "15026": 198,
        "15027": 91,
        "15028": 81,
        "15029": 164,
        "15030": 93,
        "15031": 167,
        "15032": 70,
        "15033": 46,
        "15034": 195,
        "15035": 39,
        "15036": 108,
        "15037": 160,
        "15038": 166,
        "15039": 239,
        "15040": 189,
        "15041": 252,
        "15042": 15,
        "15043": 36,
        "15044": 217,
        "15045": 83,
        "15046": 200,
        "15047": 163,
        "15048": 207,
        "15049": 39,
        "15050": 140,
        "15051": 44,
        "15052": 198,
        "15053": 189,
        "15054": 150,
        "15055": 241,
        "15056": 156,
        "15057": 233,
        "15058": 126,
        "15059": 179,
        "15060": 252,
        "15061": 169,
        "15062": 148,
        "15063": 207,
        "15064": 174,
        "15065": 202,
        "15066": 8,
        "15067": 156,
        "15068": 242,
        "15069": 142,
        "15070": 233,
        "15071": 163,
        "15072": 81,
        "15073": 205,
        "15074": 90,
        "15075": 254,
        "15076": 131,
        "15077": 72,
        "15078": 218,
        "15079": 54,
        "15080": 11,
        "15081": 78,
        "15082": 232,
        "15083": 31,
        "15084": 110,
        "15085": 82,
        "15086": 130,
        "15087": 163,
        "15088": 33,
        "15089": 152,
        "15090": 198,
        "15091": 47,
        "15092": 192,
        "15093": 95,
        "15094": 148,
        "15095": 224,
        "15096": 34,
        "15097": 131,
        "15098": 157,
        "15099": 136,
        "15100": 185,
        "15101": 87,
        "15102": 25,
        "15103": 165,
        "15104": 163,
        "15105": 121,
        "15106": 188,
        "15107": 77,
        "15108": 147,
        "15109": 212,
        "15110": 2,
        "15111": 164,
        "15112": 51,
        "15113": 191,
        "15114": 40,
        "15115": 43,
        "15116": 172,
        "15117": 167,
        "15118": 126,
        "15119": 72,
        "15120": 160,
        "15121": 177,
        "15122": 117,
        "15123": 244,
        "15124": 46,
        "15125": 149,
        "15126": 115,
        "15127": 238,
        "15128": 30,
        "15129": 38,
        "15130": 235,
        "15131": 68,
        "15132": 97,
        "15133": 44,
        "15134": 160,
        "15135": 108,
        "15136": 249,
        "15137": 173,
        "15138": 56,
        "15139": 188,
        "15140": 187,
        "15141": 242,
        "15142": 86,
        "15143": 25,
        "15144": 92,
        "15145": 112,
        "15146": 135,
        "15147": 191,
        "15148": 192,
        "15149": 128,
        "15150": 194,
        "15151": 88,
        "15152": 210,
        "15153": 167,
        "15154": 66,
        "15155": 115,
        "15156": 82,
        "15157": 182,
        "15158": 160,
        "15159": 120,
        "15160": 143,
        "15161": 61,
        "15162": 98,
        "15163": 205,
        "15164": 222,
        "15165": 244,
        "15166": 36,
        "15167": 177,
        "15168": 220,
        "15169": 252,
        "15170": 183,
        "15171": 129,
        "15172": 85,
        "15173": 152,
        "15174": 51,
        "15175": 117,
        "15176": 64,
        "15177": 144,
        "15178": 113,
        "15179": 137,
        "15180": 63,
        "15181": 252,
        "15182": 80,
        "15183": 249,
        "15184": 137,
        "15185": 35,
        "15186": 141,
        "15187": 137,
        "15188": 244,
        "15189": 42,
        "15190": 64,
        "15191": 252,
        "15192": 223,
        "15193": 197,
        "15194": 36,
        "15195": 191,
        "15196": 166,
        "15197": 241,
        "15198": 237,
        "15199": 252,
        "15200": 189,
        "15201": 130,
        "15202": 84,
        "15203": 7,
        "15204": 133,
        "15205": 166,
        "15206": 103,
        "15207": 12,
        "15208": 141,
        "15209": 149,
        "15210": 135,
        "15211": 43,
        "15212": 132,
        "15213": 214,
        "15214": 48,
        "15215": 48,
        "15216": 242,
        "15217": 202,
        "15218": 44,
        "15219": 98,
        "15220": 47,
        "15221": 144,
        "15222": 182,
        "15223": 21,
        "15224": 20,
        "15225": 208,
        "15226": 146,
        "15227": 190,
        "15228": 163,
        "15229": 81,
        "15230": 209,
        "15231": 155,
        "15232": 99,
        "15233": 169,
        "15234": 161,
        "15235": 157,
        "15236": 80,
        "15237": 123,
        "15238": 150,
        "15239": 175,
        "15240": 213,
        "15241": 32,
        "15242": 204,
        "15243": 188,
        "15244": 195,
        "15245": 98,
        "15246": 56,
        "15247": 129,
        "15248": 33,
        "15249": 106,
        "15250": 151,
        "15251": 143,
        "15252": 227,
        "15253": 228,
        "15254": 214,
        "15255": 112,
        "15256": 185,
        "15257": 56,
        "15258": 25,
        "15259": 20,
        "15260": 68,
        "15261": 41,
        "15262": 231,
        "15263": 157,
        "15264": 218,
        "15265": 90,
        "15266": 179,
        "15267": 226,
        "15268": 79,
        "15269": 36,
        "15270": 77,
        "15271": 38,
        "15272": 45,
        "15273": 189,
        "15274": 85,
        "15275": 151,
        "15276": 226,
        "15277": 182,
        "15278": 87,
        "15279": 5,
        "15280": 3,
        "15281": 71,
        "15282": 95,
        "15283": 175,
        "15284": 42,
        "15285": 127,
        "15286": 125,
        "15287": 93,
        "15288": 36,
        "15289": 41,
        "15290": 226,
        "15291": 118,
        "15292": 240,
        "15293": 105,
        "15294": 37,
        "15295": 251,
        "15296": 85,
        "15297": 117,
        "15298": 81,
        "15299": 82,
        "15300": 111,
        "15301": 234,
        "15302": 179,
        "15303": 219,
        "15304": 198,
        "15305": 48,
        "15306": 230,
        "15307": 220,
        "15308": 28,
        "15309": 210,
        "15310": 108,
        "15311": 192,
        "15312": 155,
        "15313": 216,
        "15314": 175,
        "15315": 82,
        "15316": 139,
        "15317": 84,
        "15318": 174,
        "15319": 108,
        "15320": 137,
        "15321": 242,
        "15322": 22,
        "15323": 57,
        "15324": 67,
        "15325": 122,
        "15326": 140,
        "15327": 84,
        "15328": 190,
        "15329": 229,
        "15330": 224,
        "15331": 166,
        "15332": 155,
        "15333": 167,
        "15334": 71,
        "15335": 144,
        "15336": 181,
        "15337": 154,
        "15338": 207,
        "15339": 212,
        "15340": 31,
        "15341": 235,
        "15342": 74,
        "15343": 243,
        "15344": 152,
        "15345": 71,
        "15346": 199,
        "15347": 221,
        "15348": 75,
        "15349": 141,
        "15350": 244,
        "15351": 204,
        "15352": 120,
        "15353": 143,
        "15354": 83,
        "15355": 252,
        "15356": 60,
        "15357": 213,
        "15358": 121,
        "15359": 87,
        "15360": 167,
        "15361": 65,
        "15362": 222,
        "15363": 0,
        "15364": 84,
        "15365": 34,
        "15366": 38,
        "15367": 24,
        "15368": 3,
        "15369": 108,
        "15370": 65,
        "15371": 123,
        "15372": 104,
        "15373": 204,
        "15374": 99,
        "15375": 115,
        "15376": 27,
        "15377": 150,
        "15378": 23,
        "15379": 168,
        "15380": 170,
        "15381": 169,
        "15382": 123,
        "15383": 21,
        "15384": 212,
        "15385": 202,
        "15386": 32,
        "15387": 72,
        "15388": 51,
        "15389": 30,
        "15390": 21,
        "15391": 240,
        "15392": 251,
        "15393": 229,
        "15394": 20,
        "15395": 165,
        "15396": 231,
        "15397": 126,
        "15398": 154,
        "15399": 40,
        "15400": 146,
        "15401": 196,
        "15402": 102,
        "15403": 194,
        "15404": 3,
        "15405": 233,
        "15406": 89,
        "15407": 180,
        "15408": 158,
        "15409": 7,
        "15410": 222,
        "15411": 6,
        "15412": 239,
        "15413": 162,
        "15414": 29,
        "15415": 112,
        "15416": 178,
        "15417": 200,
        "15418": 222,
        "15419": 177,
        "15420": 61,
        "15421": 192,
        "15422": 162,
        "15423": 210,
        "15424": 73,
        "15425": 123,
        "15426": 210,
        "15427": 23,
        "15428": 146,
        "15429": 48,
        "15430": 52,
        "15431": 116,
        "15432": 152,
        "15433": 160,
        "15434": 69,
        "15435": 171,
        "15436": 209,
        "15437": 158,
        "15438": 85,
        "15439": 166,
        "15440": 185,
        "15441": 81,
        "15442": 241,
        "15443": 142,
        "15444": 14,
        "15445": 225,
        "15446": 22,
        "15447": 176,
        "15448": 13,
        "15449": 159,
        "15450": 61,
        "15451": 142,
        "15452": 80,
        "15453": 12,
        "15454": 104,
        "15455": 161,
        "15456": 224,
        "15457": 64,
        "15458": 201,
        "15459": 31,
        "15460": 137,
        "15461": 159,
        "15462": 97,
        "15463": 54,
        "15464": 228,
        "15465": 129,
        "15466": 193,
        "15467": 101,
        "15468": 88,
        "15469": 227,
        "15470": 150,
        "15471": 9,
        "15472": 15,
        "15473": 200,
        "15474": 250,
        "15475": 214,
        "15476": 64,
        "15477": 245,
        "15478": 232,
        "15479": 76,
        "15480": 200,
        "15481": 110,
        "15482": 217,
        "15483": 104,
        "15484": 113,
        "15485": 61,
        "15486": 202,
        "15487": 143,
        "15488": 221,
        "15489": 236,
        "15490": 21,
        "15491": 82,
        "15492": 245,
        "15493": 105,
        "15494": 37,
        "15495": 184,
        "15496": 34,
        "15497": 137,
        "15498": 182,
        "15499": 108,
        "15500": 79,
        "15501": 2,
        "15502": 15,
        "15503": 12,
        "15504": 4,
        "15505": 111,
        "15506": 47,
        "15507": 15,
        "15508": 246,
        "15509": 23,
        "15510": 201,
        "15511": 102,
        "15512": 155,
        "15513": 165,
        "15514": 82,
        "15515": 77,
        "15516": 229,
        "15517": 149,
        "15518": 97,
        "15519": 121,
        "15520": 226,
        "15521": 178,
        "15522": 138,
        "15523": 247,
        "15524": 191,
        "15525": 182,
        "15526": 91,
        "15527": 142,
        "15528": 143,
        "15529": 94,
        "15530": 21,
        "15531": 173,
        "15532": 240,
        "15533": 171,
        "15534": 73,
        "15535": 107,
        "15536": 190,
        "15537": 182,
        "15538": 27,
        "15539": 184,
        "15540": 192,
        "15541": 155,
        "15542": 205,
        "15543": 163,
        "15544": 194,
        "15545": 34,
        "15546": 194,
        "15547": 60,
        "15548": 183,
        "15549": 216,
        "15550": 124,
        "15551": 7,
        "15552": 14,
        "15553": 83,
        "15554": 40,
        "15555": 152,
        "15556": 108,
        "15557": 104,
        "15558": 78,
        "15559": 108,
        "15560": 83,
        "15561": 33,
        "15562": 192,
        "15563": 88,
        "15564": 227,
        "15565": 203,
        "15566": 63,
        "15567": 33,
        "15568": 150,
        "15569": 90,
        "15570": 167,
        "15571": 74,
        "15572": 3,
        "15573": 31,
        "15574": 221,
        "15575": 39,
        "15576": 248,
        "15577": 26,
        "15578": 6,
        "15579": 78,
        "15580": 237,
        "15581": 178,
        "15582": 134,
        "15583": 229,
        "15584": 140,
        "15585": 92,
        "15586": 159,
        "15587": 106,
        "15588": 5,
        "15589": 51,
        "15590": 228,
        "15591": 10,
        "15592": 31,
        "15593": 142,
        "15594": 193,
        "15595": 127,
        "15596": 8,
        "15597": 245,
        "15598": 5,
        "15599": 137,
        "15600": 212,
        "15601": 107,
        "15602": 208,
        "15603": 35,
        "15604": 104,
        "15605": 71,
        "15606": 154,
        "15607": 114,
        "15608": 115,
        "15609": 46,
        "15610": 235,
        "15611": 122,
        "15612": 215,
        "15613": 143,
        "15614": 217,
        "15615": 157,
        "15616": 130,
        "15617": 247,
        "15618": 220,
        "15619": 151,
        "15620": 74,
        "15621": 210,
        "15622": 13,
        "15623": 193,
        "15624": 103,
        "15625": 126,
        "15626": 78,
        "15627": 118,
        "15628": 130,
        "15629": 201,
        "15630": 85,
        "15631": 249,
        "15632": 19,
        "15633": 250,
        "15634": 149,
        "15635": 209,
        "15636": 221,
        "15637": 10,
        "15638": 98,
        "15639": 134,
        "15640": 218,
        "15641": 221,
        "15642": 239,
        "15643": 146,
        "15644": 204,
        "15645": 184,
        "15646": 67,
        "15647": 186,
        "15648": 48,
        "15649": 255,
        "15650": 179,
        "15651": 1,
        "15652": 115,
        "15653": 138,
        "15654": 191,
        "15655": 111,
        "15656": 162,
        "15657": 139,
        "15658": 39,
        "15659": 202,
        "15660": 218,
        "15661": 80,
        "15662": 20,
        "15663": 237,
        "15664": 249,
        "15665": 165,
        "15666": 192,
        "15667": 239,
        "15668": 254,
        "15669": 244,
        "15670": 52,
        "15671": 77,
        "15672": 191,
        "15673": 182,
        "15674": 245,
        "15675": 245,
        "15676": 118,
        "15677": 3,
        "15678": 140,
        "15679": 67,
        "15680": 225,
        "15681": 136,
        "15682": 26,
        "15683": 180,
        "15684": 0,
        "15685": 66,
        "15686": 29,
        "15687": 38,
        "15688": 7,
        "15689": 67,
        "15690": 164,
        "15691": 56,
        "15692": 100,
        "15693": 194,
        "15694": 18,
        "15695": 22,
        "15696": 56,
        "15697": 51,
        "15698": 30,
        "15699": 184,
        "15700": 210,
        "15701": 126,
        "15702": 79,
        "15703": 227,
        "15704": 35,
        "15705": 172,
        "15706": 189,
        "15707": 27,
        "15708": 192,
        "15709": 41,
        "15710": 239,
        "15711": 100,
        "15712": 235,
        "15713": 242,
        "15714": 98,
        "15715": 85,
        "15716": 226,
        "15717": 174,
        "15718": 77,
        "15719": 248,
        "15720": 96,
        "15721": 249,
        "15722": 17,
        "15723": 232,
        "15724": 187,
        "15725": 44,
        "15726": 57,
        "15727": 110,
        "15728": 214,
        "15729": 103,
        "15730": 148,
        "15731": 102,
        "15732": 233,
        "15733": 64,
        "15734": 163,
        "15735": 225,
        "15736": 254,
        "15737": 117,
        "15738": 93,
        "15739": 214,
        "15740": 4,
        "15741": 121,
        "15742": 7,
        "15743": 12,
        "15744": 110,
        "15745": 158,
        "15746": 61,
        "15747": 27,
        "15748": 105,
        "15749": 214,
        "15750": 124,
        "15751": 210,
        "15752": 2,
        "15753": 230,
        "15754": 78,
        "15755": 213,
        "15756": 64,
        "15757": 130,
        "15758": 125,
        "15759": 191,
        "15760": 222,
        "15761": 229,
        "15762": 152,
        "15763": 13,
        "15764": 48,
        "15765": 218,
        "15766": 130,
        "15767": 222,
        "15768": 101,
        "15769": 250,
        "15770": 69,
        "15771": 63,
        "15772": 18,
        "15773": 181,
        "15774": 204,
        "15775": 108,
        "15776": 247,
        "15777": 72,
        "15778": 237,
        "15779": 83,
        "15780": 230,
        "15781": 89,
        "15782": 230,
        "15783": 215,
        "15784": 49,
        "15785": 213,
        "15786": 40,
        "15787": 58,
        "15788": 221,
        "15789": 31,
        "15790": 215,
        "15791": 194,
        "15792": 198,
        "15793": 175,
        "15794": 172,
        "15795": 198,
        "15796": 112,
        "15797": 201,
        "15798": 62,
        "15799": 152,
        "15800": 73,
        "15801": 252,
        "15802": 174,
        "15803": 53,
        "15804": 216,
        "15805": 182,
        "15806": 109,
        "15807": 188,
        "15808": 179,
        "15809": 51,
        "15810": 27,
        "15811": 244,
        "15812": 228,
        "15813": 54,
        "15814": 48,
        "15815": 109,
        "15816": 97,
        "15817": 44,
        "15818": 101,
        "15819": 156,
        "15820": 66,
        "15821": 172,
        "15822": 247,
        "15823": 87,
        "15824": 136,
        "15825": 71,
        "15826": 54,
        "15827": 243,
        "15828": 117,
        "15829": 139,
        "15830": 19,
        "15831": 18,
        "15832": 233,
        "15833": 61,
        "15834": 233,
        "15835": 201,
        "15836": 59,
        "15837": 137,
        "15838": 26,
        "15839": 234,
        "15840": 45,
        "15841": 9,
        "15842": 125,
        "15843": 185,
        "15844": 119,
        "15845": 123,
        "15846": 245,
        "15847": 103,
        "15848": 119,
        "15849": 90,
        "15850": 221,
        "15851": 113,
        "15852": 55,
        "15853": 239,
        "15854": 48,
        "15855": 93,
        "15856": 118,
        "15857": 249,
        "15858": 156,
        "15859": 157,
        "15860": 153,
        "15861": 207,
        "15862": 128,
        "15863": 157,
        "15864": 23,
        "15865": 232,
        "15866": 22,
        "15867": 148,
        "15868": 102,
        "15869": 30,
        "15870": 122,
        "15871": 88,
        "15872": 184,
        "15873": 76,
        "15874": 89,
        "15875": 119,
        "15876": 26,
        "15877": 228,
        "15878": 119,
        "15879": 128,
        "15880": 92,
        "15881": 110,
        "15882": 177,
        "15883": 135,
        "15884": 109,
        "15885": 71,
        "15886": 244,
        "15887": 158,
        "15888": 126,
        "15889": 208,
        "15890": 249,
        "15891": 246,
        "15892": 242,
        "15893": 37,
        "15894": 125,
        "15895": 30,
        "15896": 163,
        "15897": 161,
        "15898": 193,
        "15899": 193,
        "15900": 36,
        "15901": 68,
        "15902": 74,
        "15903": 111,
        "15904": 68,
        "15905": 93,
        "15906": 138,
        "15907": 16,
        "15908": 94,
        "15909": 239,
        "15910": 49,
        "15911": 184,
        "15912": 224,
        "15913": 249,
        "15914": 96,
        "15915": 28,
        "15916": 168,
        "15917": 118,
        "15918": 246,
        "15919": 36,
        "15920": 112,
        "15921": 234,
        "15922": 136,
        "15923": 167,
        "15924": 83,
        "15925": 168,
        "15926": 142,
        "15927": 205,
        "15928": 164,
        "15929": 253,
        "15930": 71,
        "15931": 130,
        "15932": 42,
        "15933": 55,
        "15934": 131,
        "15935": 36,
        "15936": 168,
        "15937": 156,
        "15938": 29,
        "15939": 72,
        "15940": 72,
        "15941": 231,
        "15942": 239,
        "15943": 91,
        "15944": 195,
        "15945": 155,
        "15946": 181,
        "15947": 57,
        "15948": 42,
        "15949": 128,
        "15950": 223,
        "15951": 84,
        "15952": 186,
        "15953": 113,
        "15954": 71,
        "15955": 104,
        "15956": 18,
        "15957": 107,
        "15958": 234,
        "15959": 229,
        "15960": 102,
        "15961": 40,
        "15962": 233,
        "15963": 55,
        "15964": 53,
        "15965": 157,
        "15966": 52,
        "15967": 42,
        "15968": 195,
        "15969": 190,
        "15970": 106,
        "15971": 136,
        "15972": 205,
        "15973": 20,
        "15974": 77,
        "15975": 151,
        "15976": 134,
        "15977": 179,
        "15978": 11,
        "15979": 6,
        "15980": 225,
        "15981": 21,
        "15982": 89,
        "15983": 65,
        "15984": 55,
        "15985": 76,
        "15986": 162,
        "15987": 6,
        "15988": 207,
        "15989": 66,
        "15990": 188,
        "15991": 76,
        "15992": 107,
        "15993": 214,
        "15994": 9,
        "15995": 196,
        "15996": 213,
        "15997": 25,
        "15998": 154,
        "15999": 49,
        "16000": 162,
        "16001": 213,
        "16002": 133,
        "16003": 149,
        "16004": 92,
        "16005": 102,
        "16006": 177,
        "16007": 197,
        "16008": 76,
        "16009": 188,
        "16010": 194,
        "16011": 237,
        "16012": 40,
        "16013": 76,
        "16014": 143,
        "16015": 212,
        "16016": 102,
        "16017": 174,
        "16018": 233,
        "16019": 182,
        "16020": 29,
        "16021": 192,
        "16022": 245,
        "16023": 9,
        "16024": 100,
        "16025": 23,
        "16026": 188,
        "16027": 129,
        "16028": 14,
        "16029": 144,
        "16030": 254,
        "16031": 45,
        "16032": 170,
        "16033": 123,
        "16034": 130,
        "16035": 195,
        "16036": 204,
        "16037": 25,
        "16038": 164,
        "16039": 106,
        "16040": 214,
        "16041": 132,
        "16042": 174,
        "16043": 170,
        "16044": 176,
        "16045": 173,
        "16046": 158,
        "16047": 63,
        "16048": 230,
        "16049": 122,
        "16050": 136,
        "16051": 50,
        "16052": 145,
        "16053": 235,
        "16054": 247,
        "16055": 198,
        "16056": 191,
        "16057": 83,
        "16058": 120,
        "16059": 149,
        "16060": 200,
        "16061": 123,
        "16062": 235,
        "16063": 186,
        "16064": 226,
        "16065": 19,
        "16066": 103,
        "16067": 105,
        "16068": 143,
        "16069": 14,
        "16070": 70,
        "16071": 200,
        "16072": 60,
        "16073": 29,
        "16074": 84,
        "16075": 241,
        "16076": 192,
        "16077": 25,
        "16078": 135,
        "16079": 249,
        "16080": 225,
        "16081": 56,
        "16082": 188,
        "16083": 187,
        "16084": 78,
        "16085": 203,
        "16086": 225,
        "16087": 69,
        "16088": 210,
        "16089": 19,
        "16090": 147,
        "16091": 80,
        "16092": 37,
        "16093": 37,
        "16094": 236,
        "16095": 182,
        "16096": 132,
        "16097": 44,
        "16098": 113,
        "16099": 2,
        "16100": 137,
        "16101": 25,
        "16102": 89,
        "16103": 6,
        "16104": 126,
        "16105": 200,
        "16106": 234,
        "16107": 94,
        "16108": 234,
        "16109": 235,
        "16110": 61,
        "16111": 196,
        "16112": 97,
        "16113": 42,
        "16114": 88,
        "16115": 5,
        "16116": 39,
        "16117": 155,
        "16118": 6,
        "16119": 36,
        "16120": 152,
        "16121": 34,
        "16122": 49,
        "16123": 132,
        "16124": 125,
        "16125": 81,
        "16126": 194,
        "16127": 239,
        "16128": 117,
        "16129": 42,
        "16130": 174,
        "16131": 242,
        "16132": 162,
        "16133": 209,
        "16134": 213,
        "16135": 141,
        "16136": 220,
        "16137": 228,
        "16138": 93,
        "16139": 103,
        "16140": 106,
        "16141": 212,
        "16142": 21,
        "16143": 124,
        "16144": 47,
        "16145": 198,
        "16146": 40,
        "16147": 244,
        "16148": 175,
        "16149": 33,
        "16150": 42,
        "16151": 12,
        "16152": 169,
        "16153": 131,
        "16154": 4,
        "16155": 237,
        "16156": 4,
        "16157": 44,
        "16158": 89,
        "16159": 86,
        "16160": 82,
        "16161": 161,
        "16162": 111,
        "16163": 193,
        "16164": 141,
        "16165": 15,
        "16166": 223,
        "16167": 178,
        "16168": 72,
        "16169": 3,
        "16170": 107,
        "16171": 100,
        "16172": 16,
        "16173": 25,
        "16174": 89,
        "16175": 190,
        "16176": 138,
        "16177": 166,
        "16178": 208,
        "16179": 119,
        "16180": 46,
        "16181": 50,
        "16182": 150,
        "16183": 176,
        "16184": 72,
        "16185": 240,
        "16186": 120,
        "16187": 106,
        "16188": 194,
        "16189": 212,
        "16190": 221,
        "16191": 246,
        "16192": 97,
        "16193": 144,
        "16194": 206,
        "16195": 92,
        "16196": 146,
        "16197": 166,
        "16198": 84,
        "16199": 35,
        "16200": 220,
        "16201": 41,
        "16202": 170,
        "16203": 167,
        "16204": 23,
        "16205": 59,
        "16206": 69,
        "16207": 36,
        "16208": 16,
        "16209": 90,
        "16210": 85,
        "16211": 174,
        "16212": 11,
        "16213": 111,
        "16214": 111,
        "16215": 107,
        "16216": 104,
        "16217": 123,
        "16218": 121,
        "16219": 41,
        "16220": 251,
        "16221": 3,
        "16222": 200,
        "16223": 29,
        "16224": 206,
        "16225": 93,
        "16226": 96,
        "16227": 26,
        "16228": 142,
        "16229": 205,
        "16230": 82,
        "16231": 36,
        "16232": 45,
        "16233": 217,
        "16234": 79,
        "16235": 85,
        "16236": 64,
        "16237": 19,
        "16238": 96,
        "16239": 88,
        "16240": 204,
        "16241": 149,
        "16242": 143,
        "16243": 76,
        "16244": 84,
        "16245": 31,
        "16246": 136,
        "16247": 180,
        "16248": 167,
        "16249": 84,
        "16250": 105,
        "16251": 231,
        "16252": 1,
        "16253": 214,
        "16254": 120,
        "16255": 162,
        "16256": 19,
        "16257": 8,
        "16258": 216,
        "16259": 60,
        "16260": 91,
        "16261": 74,
        "16262": 183,
        "16263": 40,
        "16264": 161,
        "16265": 118,
        "16266": 43,
        "16267": 111,
        "16268": 121,
        "16269": 204,
        "16270": 228,
        "16271": 33,
        "16272": 248,
        "16273": 127,
        "16274": 164,
        "16275": 105,
        "16276": 90,
        "16277": 179,
        "16278": 209,
        "16279": 65,
        "16280": 214,
        "16281": 87,
        "16282": 221,
        "16283": 244,
        "16284": 116,
        "16285": 51,
        "16286": 234,
        "16287": 103,
        "16288": 207,
        "16289": 236,
        "16290": 197,
        "16291": 230,
        "16292": 209,
        "16293": 95,
        "16294": 191,
        "16295": 234,
        "16296": 140,
        "16297": 206,
        "16298": 49,
        "16299": 255,
        "16300": 85,
        "16301": 50,
        "16302": 205,
        "16303": 175,
        "16304": 127,
        "16305": 185,
        "16306": 228,
        "16307": 146,
        "16308": 48,
        "16309": 29,
        "16310": 30,
        "16311": 240,
        "16312": 73,
        "16313": 97,
        "16314": 215,
        "16315": 159,
        "16316": 172,
        "16317": 161,
        "16318": 13,
        "16319": 104,
        "16320": 75,
        "16321": 110,
        "16322": 89,
        "16323": 41,
        "16324": 212,
        "16325": 176,
        "16326": 207,
        "16327": 27,
        "16328": 131,
        "16329": 99,
        "16330": 90,
        "16331": 166,
        "16332": 24,
        "16333": 33,
        "16334": 15,
        "16335": 26,
        "16336": 45,
        "16337": 30,
        "16338": 159,
        "16339": 189,
        "16340": 43,
        "16341": 71,
        "16342": 76,
        "16343": 144,
        "16344": 215,
        "16345": 188,
        "16346": 139,
        "16347": 109,
        "16348": 222,
        "16349": 83,
        "16350": 81,
        "16351": 138,
        "16352": 40,
        "16353": 164,
        "16354": 49,
        "16355": 155,
        "16356": 168,
        "16357": 254,
        "16358": 207,
        "16359": 249,
        "16360": 13,
        "16361": 132,
        "16362": 2,
        "16363": 149,
        "16364": 254,
        "16365": 70,
        "16366": 160,
        "16367": 197,
        "16368": 46,
        "16369": 180,
        "16370": 255,
        "16371": 95,
        "16372": 103,
        "16373": 99,
        "16374": 214,
        "16375": 192,
        "16376": 55,
        "16377": 51,
        "16378": 190,
        "16379": 254,
        "16380": 52,
        "16381": 105,
        "16382": 13,
        "16383": 25,
        "16384": 156,
        "16385": 43,
        "16386": 191,
        "16387": 105,
        "16388": 116,
        "16389": 236,
        "16390": 155,
        "16391": 16,
        "16392": 106,
        "16393": 195,
        "16394": 122,
        "16395": 64,
        "16396": 30,
        "16397": 250,
        "16398": 211,
        "16399": 62,
        "16400": 101,
        "16401": 19,
        "16402": 55,
        "16403": 190,
        "16404": 223,
        "16405": 128,
        "16406": 223,
        "16407": 157,
        "16408": 200,
        "16409": 102,
        "16410": 203,
        "16411": 68,
        "16412": 8,
        "16413": 189,
        "16414": 245,
        "16415": 140,
        "16416": 76,
        "16417": 179,
        "16418": 4,
        "16419": 156,
        "16420": 86,
        "16421": 209,
        "16422": 81,
        "16423": 184,
        "16424": 222,
        "16425": 121,
        "16426": 29,
        "16427": 87,
        "16428": 111,
        "16429": 137,
        "16430": 109,
        "16431": 113,
        "16432": 218,
        "16433": 52,
        "16434": 140,
        "16435": 133,
        "16436": 70,
        "16437": 69,
        "16438": 158,
        "16439": 1,
        "16440": 250,
        "16441": 69,
        "16442": 255,
        "16443": 24,
        "16444": 14,
        "16445": 115,
        "16446": 183,
        "16447": 237,
        "16448": 85,
        "16449": 10,
        "16450": 5,
        "16451": 161,
        "16452": 215,
        "16453": 60,
        "16454": 193,
        "16455": 157,
        "16456": 141,
        "16457": 81,
        "16458": 123,
        "16459": 207,
        "16460": 91,
        "16461": 113,
        "16462": 49,
        "16463": 186,
        "16464": 1,
        "16465": 103,
        "16466": 137,
        "16467": 155,
        "16468": 244,
        "16469": 6,
        "16470": 103,
        "16471": 157,
        "16472": 200,
        "16473": 93,
        "16474": 163,
        "16475": 30,
        "16476": 166,
        "16477": 56,
        "16478": 222,
        "16479": 198,
        "16480": 96,
        "16481": 46,
        "16482": 121,
        "16483": 245,
        "16484": 186,
        "16485": 115,
        "16486": 205,
        "16487": 15,
        "16488": 150,
        "16489": 241,
        "16490": 163,
        "16491": 218,
        "16492": 238,
        "16493": 226,
        "16494": 102,
        "16495": 6,
        "16496": 15,
        "16497": 96,
        "16498": 37,
        "16499": 197,
        "16500": 231,
        "16501": 225,
        "16502": 204,
        "16503": 64,
        "16504": 48,
        "16505": 209,
        "16506": 158,
        "16507": 131,
        "16508": 70,
        "16509": 188,
        "16510": 193,
        "16511": 185,
        "16512": 20,
        "16513": 226,
        "16514": 48,
        "16515": 145,
        "16516": 122,
        "16517": 88,
        "16518": 112,
        "16519": 238,
        "16520": 1,
        "16521": 8,
        "16522": 0,
        "16523": 0,
        "16524": 0,
        "16525": 0,
        "16526": 0,
        "16527": 0,
        "16528": 16,
        "16529": 0,
        "16530": 0,
        "16531": 0,
        "16532": 0,
        "16533": 0,
        "16534": 0,
        "16535": 0,
        "16536": 0,
        "16537": 0,
        "16538": 0,
        "16539": 0,
        "16540": 0,
        "16541": 0,
        "16542": 0,
        "16543": 0,
        "16544": 0,
        "16545": 0,
        "16546": 0,
        "16547": 0,
        "16548": 0,
        "16549": 0,
        "16550": 0,
        "16551": 0,
        "16552": 64,
        "16553": 0,
        "16554": 0,
        "16555": 0,
        "16556": 0,
        "16557": 0,
        "16558": 0,
        "16559": 0,
        "16560": 3,
        "16561": 0,
        "16562": 0,
        "16563": 0,
        "16564": 0,
        "16565": 0,
        "16566": 0,
        "16567": 0,
        "16568": 4,
        "16569": 0,
        "16570": 0,
        "16571": 0,
        "16572": 0,
        "16573": 0,
        "16574": 0,
        "16575": 0,
        "16576": 4,
        "16577": 0,
        "16578": 0,
        "16579": 0,
        "16580": 0,
        "16581": 0,
        "16582": 0,
        "16583": 0,
        "16584": 0,
        "16585": 0,
        "16586": 0,
        "16587": 0,
        "16588": 1,
        "16589": 0,
        "16590": 0,
        "16591": 0,
        "16592": 0,
        "16593": 0,
        "16594": 0,
        "16595": 0,
        "16596": 16,
        "16597": 0,
        "16598": 0,
        "16599": 0,
        "16600": 0,
        "16601": 0,
        "16602": 0,
        "16603": 0
      }
    }
  ],
  "numDeployments": 3,
  "solcInputHash": "c0e889dcb69b76266f445d0fe3402b92",
  "bytecode": "0x6101606040526200001760006200026660201b60201c565b6002553480156200002757600080fd5b50604051620046173803806200461783398181016040528101906200004d919062000b83565b6040518060400160405280600881526020017f46616b652046475a0000000000000000000000000000000000000000000000008152506040518060400160405280600481526020017f6646475a00000000000000000000000000000000000000000000000000000000815250338383836040518060400160405280601181526020017f4668656e6978205065726d697373696f6e0000000000000000000000000000008152506040518060400160405280600381526020017f312e3000000000000000000000000000000000000000000000000000000000008152506200013f6000836200028260201b90919060201c565b61012081815250506200015d6001826200028260201b90919060201c565b6101408181525050818051906020012060e08181525050808051906020012061010081815250504660a081815250506200019c620002da60201b60201c565b608081815250503073ffffffffffffffffffffffffffffffffffffffff1660c08173ffffffffffffffffffffffffffffffffffffffff168152505050508160059081620001ea919062000e1f565b508060069081620001fc919062000e1f565b505050600062000212826200033760201b60201c565b9050620002486200023c8262000230617fff6200026660201b60201c565b6200035560201b60201c565b620003f860201b60201c565b6200025a8382620004cb60201b60201c565b50505050505062001260565b60006200027b8260026200057160201b60201c565b9050919050565b6000602083511015620002a857620002a0836200062860201b60201c565b9050620002d4565b82620002ba836200069560201b60201c565b6000019081620002cb919062000e1f565b5060ff60001b90505b92915050565b60007f8b73c3c69bb8fe3d512ecc4cf759cc79239f7b179b0ffacaa9a75d522b39400f60e0516101005146306040516020016200031c95949392919062000f77565b60405160208183030381529060405280519060200120905090565b60006200034e82600001516200069f60201b60201c565b9050919050565b60006200036883620006bb60201b60201c565b62000382576200037f60006200026660201b60201c565b92505b6200039382620006bb60201b60201c565b620003ad57620003aa60006200026660201b60201c565b91505b600083905060008390506000620003ea60028484608073ffffffffffffffffffffffffffffffffffffffff1663eb274b77620006c860201b60201c565b905080935050505092915050565b62000409816200077960201b60201c565b62000423576200042060006200078660201b60201c565b90505b600081905060006200043b82620007a260201b60201c565b9050608073ffffffffffffffffffffffffffffffffffffffff16637d23f1db600d836040518363ffffffff1660e01b81526004016200047c9291906200104f565b600060405180830381865afa1580156200049a573d6000803e3d6000fd5b505050506040513d6000823e3d601f19601f82011682018060405250810190620004c5919062001083565b50505050565b62000516600360008473ffffffffffffffffffffffffffffffffffffffff1673ffffffffffffffffffffffffffffffffffffffff168152602001908152602001600020548262000803565b600360008473ffffffffffffffffffffffffffffffffffffffff1673ffffffffffffffffffffffffffffffffffffffff16815260200190815260200160002081905550620005676002548262000803565b6002819055505050565b60006060608073ffffffffffffffffffffffffffffffffffffffff166319e1c5c4620005a386620007a260201b60201c565b856040518363ffffffff1660e01b8152600401620005c3929190620010d4565b600060405180830381865afa158015620005e1573d6000803e3d6000fd5b505050506040513d6000823e3d601f19601f820116820180604052508101906200060c919062001083565b90506200061f816200081f60201b60201c565b91505092915050565b600080829050601f815111156200067857826040517f305a27a90000000000000000000000000000000000000000000000000000000081526004016200066f91906200115a565b60405180910390fd5b8051816200068690620011a5565b60001c1760001b915050919050565b6000819050919050565b6000620006b48260026200082d60201b60201c565b9050919050565b6000808214159050919050565b60006060838388620006e089620007a260201b60201c565b620006f189620007a260201b60201c565b6040518463ffffffff1660e01b8152600401620007119392919062001215565b600060405180830381865afa1580156200072f573d6000803e3d6000fd5b505050506040513d6000823e3d601f19601f820116820180604052508101906200075a919062001083565b90506200076d81620008d460201b60201c565b91505095945050505050565b6000808214159050919050565b60006200079b82600d6200057160201b60201c565b9050919050565b6060602067ffffffffffffffff811115620007c257620007c1620009ae565b5b6040519080825280601f01601f191660200182016040528015620007f55781602001600182028036833780820191505090505b509050816020820152919050565b6000620008178383620008e260201b60201c565b905092915050565b600060208201519050919050565b60006060608073ffffffffffffffffffffffffffffffffffffffff16635fa55ca784866040518363ffffffff1660e01b81526004016200086f9291906200104f565b600060405180830381865afa1580156200088d573d6000803e3d6000fd5b505050506040513d6000823e3d601f19601f82011682018060405250810190620008b8919062001083565b9050620008cb816200081f60201b60201c565b91505092915050565b600060208201519050919050565b6000620008f583620006bb60201b60201c565b6200090f576200090c60006200026660201b60201c565b92505b6200092082620006bb60201b60201c565b6200093a576200093760006200026660201b60201c565b91505b6000839050600083905060006200097660028484608073ffffffffffffffffffffffffffffffffffffffff16622df619620006c860201b60201c565b905080935050505092915050565b6000604051905090565b600080fd5b600080fd5b600080fd5b6000601f19601f8301169050919050565b7f4e487b7100000000000000000000000000000000000000000000000000000000600052604160045260246000fd5b620009e8826200099d565b810181811067ffffffffffffffff8211171562000a0a5762000a09620009ae565b5b80604052505050565b600062000a1f62000984565b905062000a2d8282620009dd565b919050565b600080fd5b600080fd5b600080fd5b600067ffffffffffffffff82111562000a5f5762000a5e620009ae565b5b62000a6a826200099d565b9050602081019050919050565b60005b8381101562000a9757808201518184015260208101905062000a7a565b60008484015250505050565b600062000aba62000ab48462000a41565b62000a13565b90508281526020810184848401111562000ad95762000ad862000a3c565b5b62000ae684828562000a77565b509392505050565b600082601f83011262000b065762000b0562000a37565b5b815162000b1884826020860162000aa3565b91505092915050565b60006020828403121562000b3a5762000b3962000998565b5b62000b46602062000a13565b9050600082015167ffffffffffffffff81111562000b695762000b6862000a32565b5b62000b778482850162000aee565b60008301525092915050565b60006020828403121562000b9c5762000b9b6200098e565b5b600082015167ffffffffffffffff81111562000bbd5762000bbc62000993565b5b62000bcb8482850162000b21565b91505092915050565b600081519050919050565b7f4e487b7100000000000000000000000000000000000000000000000000000000600052602260045260246000fd5b6000600282049050600182168062000c2757607f821691505b60208210810362000c3d5762000c3c62000bdf565b5b50919050565b60008190508160005260206000209050919050565b60006020601f8301049050919050565b600082821b905092915050565b60006008830262000ca77fffffffffffffffffffffffffffffffffffffffffffffffffffffffffffffffff8262000c68565b62000cb3868362000c68565b95508019841693508086168417925050509392505050565b6000819050919050565b6000819050919050565b600062000d0062000cfa62000cf48462000ccb565b62000cd5565b62000ccb565b9050919050565b6000819050919050565b62000d1c8362000cdf565b62000d3462000d2b8262000d07565b84845462000c75565b825550505050565b600090565b62000d4b62000d3c565b62000d5881848462000d11565b505050565b5b8181101562000d805762000d7460008262000d41565b60018101905062000d5e565b5050565b601f82111562000dcf5762000d998162000c43565b62000da48462000c58565b8101602085101562000db4578190505b62000dcc62000dc38562000c58565b83018262000d5d565b50505b505050565b600082821c905092915050565b600062000df46000198460080262000dd4565b1980831691505092915050565b600062000e0f838362000de1565b9150826002028217905092915050565b62000e2a8262000bd4565b67ffffffffffffffff81111562000e465762000e45620009ae565b5b62000e52825462000c0e565b62000e5f82828562000d84565b600060209050601f83116001811462000e97576000841562000e82578287015190505b62000e8e858262000e01565b86555062000efe565b601f19841662000ea78662000c43565b60005b8281101562000ed15784890151825560018201915060208501945060208101905062000eaa565b8683101562000ef1578489015162000eed601f89168262000de1565b8355505b6001600288020188555050505b505050505050565b6000819050919050565b62000f1b8162000f06565b82525050565b62000f2c8162000ccb565b82525050565b600073ffffffffffffffffffffffffffffffffffffffff82169050919050565b600062000f5f8262000f32565b9050919050565b62000f718162000f52565b82525050565b600060a08201905062000f8e600083018862000f10565b62000f9d602083018762000f10565b62000fac604083018662000f10565b62000fbb606083018562000f21565b62000fca608083018462000f66565b9695505050505050565b600060ff82169050919050565b62000fec8162000fd4565b82525050565b600081519050919050565b600082825260208201905092915050565b60006200101b8262000ff2565b62001027818562000ffd565b93506200103981856020860162000a77565b62001044816200099d565b840191505092915050565b600060408201905062001066600083018562000fe1565b81810360208301526200107a81846200100e565b90509392505050565b6000602082840312156200109c576200109b6200098e565b5b600082015167ffffffffffffffff811115620010bd57620010bc62000993565b5b620010cb8482850162000aee565b91505092915050565b60006040820190508181036000830152620010f081856200100e565b905062001101602083018462000fe1565b9392505050565b600082825260208201905092915050565b6000620011268262000bd4565b62001132818562001108565b93506200114481856020860162000a77565b6200114f816200099d565b840191505092915050565b6000602082019050818103600083015262001176818462001119565b905092915050565b6000819050602082019050919050565b60006200119c825162000f06565b80915050919050565b6000620011b28262000ff2565b82620011be846200117e565b9050620011cb816200118e565b925060208210156200120e57620012097fffffffffffffffffffffffffffffffffffffffffffffffffffffffffffffffff8360200360080262000c68565b831692505b5050919050565b60006060820190506200122c600083018662000fe1565b81810360208301526200124081856200100e565b905081810360408301526200125681846200100e565b9050949350505050565b60805160a05160c05160e05161010051610120516101405161335c620012bb60003960006118f5015260006118ba0152600061217f0152600061215e015260006119ea01526000611a4001526000611a69015261335c6000f3fe608060405234801561001057600080fd5b50600436106101425760003560e01c80637ecebe00116100b8578063a9059cbb1161007c578063a9059cbb146103b9578063af575a00146103e9578063c4224c1914610419578063d505accf14610449578063d918156e14610465578063dd62ed3e1461049557610142565b80637ecebe00146102fb57806384b0196e1461032b5780638624a3491461034f57806395d89b411461037f5780639f284be71461039d57610142565b80633644e5151161010a5780633644e5151461020157806339c217f71461021f5780635356c4291461024f578063602772041461027f5780636e0505e1146102af57806370a08231146102cb57610142565b806306fdde0314610147578063095ea7b31461016557806318160ddd1461019557806323b872dd146101b3578063313ce567146101e3575b600080fd5b61014f6104c5565b60405161015c9190612433565b60405180910390f35b61017f600480360381019061017a91906124fd565b610557565b60405161018c9190612558565b60405180910390f35b61019d6105ab565b6040516101aa9190612582565b60405180910390f35b6101cd60048036038101906101c8919061259d565b6105bd565b6040516101da9190612558565b60405180910390f35b6101eb610692565b6040516101f8919061260c565b60405180910390f35b610209610697565b6040516102169190612640565b60405180910390f35b6102396004803603810190610234919061267f565b610729565b6040516102469190612716565b60405180910390f35b61026960048036038101906102649190612750565b61074e565b6040516102769190612433565b60405180910390f35b61029960048036038101906102949190612983565b6108bf565b6040516102a69190612433565b60405180910390f35b6102c960048036038101906102c49190612a1b565b6109ec565b005b6102e560048036038101906102e09190612a48565b610b01565b6040516102f29190612582565b60405180910390f35b61031560048036038101906103109190612a48565b610b1c565b6040516103229190612582565b60405180910390f35b610333610b37565b6040516103469796959493929190612b7d565b60405180910390f35b61036960048036038101906103649190612c01565b610be1565b6040516103769190612716565b60405180910390f35b610387610c08565b6040516103949190612433565b60405180910390f35b6103b760048036038101906103b29190612a1b565b610c9a565b005b6103d360048036038101906103ce91906124fd565b610da7565b6040516103e09190612558565b60405180910390f35b61040360048036038101906103fe9190612c9c565b610e39565b6040516104109190612716565b60405180910390f35b610433600480360381019061042e9190612cef565b61118f565b6040516104409190612716565b60405180910390f35b610463600480360381019061045e9190612d5b565b611359565b005b61047f600480360381019061047a919061267f565b6114fd565b60405161048c9190612558565b60405180910390f35b6104af60048036038101906104aa9190612dfd565b6115f5565b6040516104bc9190612582565b60405180910390f35b6060600580546104d490612e6c565b80601f016020809104026020016040519081016040528092919081815260200182805461050090612e6c565b801561054d5780601f106105225761010080835404028352916020019161054d565b820191906000526020600020905b81548152906001019060200180831161053057829003601f168201915b5050505050905090565b600082602052637f5e9f20600c5233600052816034600c205581600052602c5160601c337f8c5be1e5ebec7d5bd14f71427d1e84f3dd0314c0f7b2291e5b200ac8c7c3b92560206000a36001905092915050565b60006805345cdf77eb68f44c54905090565b60006105ca848484611615565b8360601b33602052637f5e9f208117600c526034600c20805460018101156106085780851115610602576313be252b6000526004601cfd5b84810382555b6387a211a28317600c526020600c2080548087111561062f5763f4d678b86000526004601cfd5b8681038255876000526020600c2087815401815587602052600c5160601c8660601c7fddf252ad1be2c89b69c2b068fc378daa952ba7f163c4a11628f55a4df523b3ef602080a350505050505061068784848461161a565b600190509392505050565b600090565b6000806106a261161f565b90506000801b81036106c0576106b66104c5565b8051906020012090505b6040517f8b73c3c69bb8fe3d512ecc4cf759cc79239f7b179b0ffacaa9a75d522b39400f81528160208201527fc89efdaa54c0f20c7adf612882df0950f5a951637e0307cdcb4c672f298b8bc6604082015246606082015230608082015260a081209250505090565b6000610746836107418461073c90612ef5565b611624565b61118f565b905092915050565b60608161075a90612f08565b60006107b17f6bdaeb2d29561f159c7ef98b16b27015fb2aeb87209c7ee656226d912f59927d8360000151604051602001610796929190612f1b565b6040516020818303038152906040528051906020012061163a565b905060006107c3828460200151611654565b90503373ffffffffffffffffffffffffffffffffffffffff168173ffffffffffffffffffffffffffffffffffffffff161461082a576040517f3093a27700000000000000000000000000000000000000000000000000000000815260040160405180910390fd5b6108b4600460003373ffffffffffffffffffffffffffffffffffffffff1673ffffffffffffffffffffffffffffffffffffffff16815260200190815260200160002060008873ffffffffffffffffffffffffffffffffffffffff1673ffffffffffffffffffffffffffffffffffffffff168152602001908152602001600020548660000135611680565b935050505092915050565b60608183600061091a7f6bdaeb2d29561f159c7ef98b16b27015fb2aeb87209c7ee656226d912f59927d84600001516040516020016108ff929190612f1b565b6040516020818303038152906040528051906020012061163a565b9050600061092c828560200151611654565b90508273ffffffffffffffffffffffffffffffffffffffff168173ffffffffffffffffffffffffffffffffffffffff1614610993576040517f51c65eae00000000000000000000000000000000000000000000000000000000815260040160405180910390fd5b6109e0600360008973ffffffffffffffffffffffffffffffffffffffff1673ffffffffffffffffffffffffffffffffffffffff168152602001908152602001600020548760000151611680565b94505050505092915050565b6000610a45610a008363ffffffff166116b6565b600360003373ffffffffffffffffffffffffffffffffffffffff1673ffffffffffffffffffffffffffffffffffffffff168152602001908152602001600020546116ca565b9050610a90600360003373ffffffffffffffffffffffffffffffffffffffff1673ffffffffffffffffffffffffffffffffffffffff1681526020019081526020016000205482611743565b600360003373ffffffffffffffffffffffffffffffffffffffff1673ffffffffffffffffffffffffffffffffffffffff16815260200190815260200160002081905550610adf60025482611743565b600281905550610afd33610af283611757565b63ffffffff1661181a565b5050565b60006387a211a2600c52816000526020600c20549050919050565b60006338377508600c52816000526020600c20549050919050565b600060608060008060006060610b4b6118b1565b610b536118ec565b46306000801b600067ffffffffffffffff811115610b7457610b736127b1565b5b604051908082528060200260200182016040528015610ba25781602001602082028036833780820191505090505b507f0f00000000000000000000000000000000000000000000000000000000000000959493929190965096509650965096509650965090919293949596565b6000610bff8484610bfa85610bf590612ef5565b611624565b610e39565b90509392505050565b606060068054610c1790612e6c565b80601f0160208091040260200160405190810160405280929190818152602001828054610c4390612e6c565b8015610c905780601f10610c6557610100808354040283529160200191610c90565b820191906000526020600020905b815481529060010190602001808311610c7357829003601f168201915b5050505050905090565b8063ffffffff16610caa33610b01565b1015610ce2576040517ffda7bbda00000000000000000000000000000000000000000000000000000000815260040160405180910390fd5b610cf2338263ffffffff16611927565b6000610d038263ffffffff166116b6565b9050610d4e600360003373ffffffffffffffffffffffffffffffffffffffff1673ffffffffffffffffffffffffffffffffffffffff16815260200190815260200160002054826119be565b600360003373ffffffffffffffffffffffffffffffffffffffff1673ffffffffffffffffffffffffffffffffffffffff16815260200190815260200160002081905550610d9d600254826119be565b6002819055505050565b6000610db4338484611615565b6387a211a2600c52336000526020600c20805480841115610ddd5763f4d678b86000526004601cfd5b8381038255846000526020600c2084815401815584602052600c5160601c337fddf252ad1be2c89b69c2b068fc378daa952ba7f163c4a11628f55a4df523b3ef602080a3505050610e2f33848461161a565b6001905092915050565b600080610f0a83610f05600360008973ffffffffffffffffffffffffffffffffffffffff1673ffffffffffffffffffffffffffffffffffffffff16815260200190815260200160002054600460008a73ffffffffffffffffffffffffffffffffffffffff1673ffffffffffffffffffffffffffffffffffffffff16815260200190815260200160002060003373ffffffffffffffffffffffffffffffffffffffff1673ffffffffffffffffffffffffffffffffffffffff168152602001908152602001600020546116ca565b6116ca565b9050610f92600460008773ffffffffffffffffffffffffffffffffffffffff1673ffffffffffffffffffffffffffffffffffffffff16815260200190815260200160002060003373ffffffffffffffffffffffffffffffffffffffff1673ffffffffffffffffffffffffffffffffffffffff1681526020019081526020016000205482611743565b600460008773ffffffffffffffffffffffffffffffffffffffff1673ffffffffffffffffffffffffffffffffffffffff16815260200190815260200160002060003373ffffffffffffffffffffffffffffffffffffffff1673ffffffffffffffffffffffffffffffffffffffff1681526020019081526020016000208190555061105b600360008773ffffffffffffffffffffffffffffffffffffffff1673ffffffffffffffffffffffffffffffffffffffff1681526020019081526020016000205482611743565b600360008773ffffffffffffffffffffffffffffffffffffffff1673ffffffffffffffffffffffffffffffffffffffff168152602001908152602001600020819055506110e7600360008673ffffffffffffffffffffffffffffffffffffffff1673ffffffffffffffffffffffffffffffffffffffff16815260200190815260200160002054826119be565b600360008673ffffffffffffffffffffffffffffffffffffffff1673ffffffffffffffffffffffffffffffffffffffff168152602001908152602001600020819055508373ffffffffffffffffffffffffffffffffffffffff168573ffffffffffffffffffffffffffffffffffffffff167f7612539b010127d1a2f810eeff1131de23a28ecfa8228f92a9606a879300fbb560405160405180910390a3809150509392505050565b6000806111db83600360003373ffffffffffffffffffffffffffffffffffffffff1673ffffffffffffffffffffffffffffffffffffffff168152602001908152602001600020546116ca565b9050611226600360003373ffffffffffffffffffffffffffffffffffffffff1673ffffffffffffffffffffffffffffffffffffffff1681526020019081526020016000205482611743565b600360003373ffffffffffffffffffffffffffffffffffffffff1673ffffffffffffffffffffffffffffffffffffffff168152602001908152602001600020819055506112b2600360008673ffffffffffffffffffffffffffffffffffffffff1673ffffffffffffffffffffffffffffffffffffffff16815260200190815260200160002054826119be565b600360008673ffffffffffffffffffffffffffffffffffffffff1673ffffffffffffffffffffffffffffffffffffffff168152602001908152602001600020819055508373ffffffffffffffffffffffffffffffffffffffff163373ffffffffffffffffffffffffffffffffffffffff167f7612539b010127d1a2f810eeff1131de23a28ecfa8228f92a9606a879300fbb560405160405180910390a38091505092915050565b600061136361161f565b90506000801b8103611381576113776104c5565b8051906020012090505b8442111561139757631a15a3cc6000526004601cfd5b6040518860601b60601c98508760601b60601c975065383775081901600e52886000526020600c2080547f8b73c3c69bb8fe3d512ecc4cf759cc79239f7b179b0ffacaa9a75d522b39400f83528360208401527fc89efdaa54c0f20c7adf612882df0950f5a951637e0307cdcb4c672f298b8bc6604084015246606084015230608084015260a08320602e527f6e71edae12b1b97f4d1f60370fef10105fa2faae0126114a169c64845d6126c983528a60208401528960408401528860608401528060808401528760a084015260c08320604e526042602c206000528660ff1660205285604052846060526020806080600060015afa8b3d51146114a35763ddafbaef6000526004601cfd5b80820183558a637f5e9f2060a01b17604052896034602c20558a8c7f8c5be1e5ebec7d5bd14f71427d1e84f3dd0314c0f7b2291e5b200ac8c7c3b925602060608801a3836040526000606052505050505050505050505050565b60006115118261150c90612ef5565b611624565b600460003373ffffffffffffffffffffffffffffffffffffffff1673ffffffffffffffffffffffffffffffffffffffff16815260200190815260200160002060008573ffffffffffffffffffffffffffffffffffffffff1673ffffffffffffffffffffffffffffffffffffffff168152602001908152602001600020819055508273ffffffffffffffffffffffffffffffffffffffff163373ffffffffffffffffffffffffffffffffffffffff167f46f92913a39019d68e630493d23e0cf39761bf253f7b3f8eae384b33e393ed4e60405160405180910390a36001905092915050565b600081602052637f5e9f20600c52826000526034600c2054905092915050565b505050565b505050565b600090565b600061163382600001516119d2565b9050919050565b600061164d6116476119e6565b83611a9d565b9050919050565b6000806000806116648686611ade565b9250925092506116748282611b3a565b82935050505092915050565b606061168b83611c9e565b61169c5761169960006116b6565b92505b60008390506116ad60028285611cab565b91505092915050565b60006116c3826002611d61565b9050919050565b60006116d583611c9e565b6116e6576116e360006116b6565b92505b6116ef82611c9e565b611700576116fd60006116b6565b91505b60008390506000839050600061173560028484608073ffffffffffffffffffffffffffffffffffffffff16635211c679611e03565b905080935050505092915050565b600061174f8383611e97565b905092915050565b600061176282611c9e565b6117735761177060006116b6565b91505b6000829050600061178382611f10565b90506000608073ffffffffffffffffffffffffffffffffffffffff166373cc01546002846040518363ffffffff1660e01b81526004016117c4929190612f99565b602060405180830381865afa1580156117e1573d6000803e3d6000fd5b505050506040513d601f19601f820116820180604052508101906118059190612fde565b905061181081611f6d565b9350505050919050565b61182660008383611615565b6805345cdf77eb68f44c548181018181101561184a5763e5cfe9576000526004601cfd5b806805345cdf77eb68f44c556387a211a2600c52836000526020600c2083815401815583602052600c5160601c60007fddf252ad1be2c89b69c2b068fc378daa952ba7f163c4a11628f55a4df523b3ef602080a35050506118ad6000838361161a565b5050565b60606118e760007f0000000000000000000000000000000000000000000000000000000000000000611f7790919063ffffffff16565b905090565b606061192260017f0000000000000000000000000000000000000000000000000000000000000000611f7790919063ffffffff16565b905090565b61193382600083611615565b6387a211a2600c52816000526020600c2080548083111561195c5763f4d678b86000526004601cfd5b8281038255826805345cdf77eb68f44c54036805345cdf77eb68f44c558260005260008460601b60601c7fddf252ad1be2c89b69c2b068fc378daa952ba7f163c4a11628f55a4df523b3ef60206000a350506119ba8260008361161a565b5050565b60006119ca8383612027565b905092915050565b60006119df82600261209f565b9050919050565b60007f000000000000000000000000000000000000000000000000000000000000000073ffffffffffffffffffffffffffffffffffffffff163073ffffffffffffffffffffffffffffffffffffffff16148015611a6257507f000000000000000000000000000000000000000000000000000000000000000046145b15611a8f577f00000000000000000000000000000000000000000000000000000000000000009050611a9a565b611a97612139565b90505b90565b60006040517f190100000000000000000000000000000000000000000000000000000000000081528360028201528260228201526042812091505092915050565b60008060006041845103611b235760008060006020870151925060408701519150606087015160001a9050611b15888285856121cf565b955095509550505050611b33565b60006002855160001b9250925092505b9250925092565b60006003811115611b4e57611b4d61300b565b5b826003811115611b6157611b6061300b565b5b0315611c9a5760016003811115611b7b57611b7a61300b565b5b826003811115611b8e57611b8d61300b565b5b03611bc5576040517ff645eedf00000000000000000000000000000000000000000000000000000000815260040160405180910390fd5b60026003811115611bd957611bd861300b565b5b826003811115611bec57611beb61300b565b5b03611c31578060001c6040517ffce698f7000000000000000000000000000000000000000000000000000000008152600401611c289190612582565b60405180910390fd5b600380811115611c4457611c4361300b565b5b826003811115611c5757611c5661300b565b5b03611c9957806040517fd78bce0c000000000000000000000000000000000000000000000000000000008152600401611c909190612640565b60405180910390fd5b5b5050565b6000808214159050919050565b6060608073ffffffffffffffffffffffffffffffffffffffff1663a1848ff385611cd486611f10565b85604051602001611ce5919061305b565b6040516020818303038152906040526040518463ffffffff1660e01b8152600401611d1293929190613076565b600060405180830381865afa158015611d2f573d6000803e3d6000fd5b505050506040513d6000823e3d601f19601f82011682018060405250810190611d58919061315c565b90509392505050565b60006060608073ffffffffffffffffffffffffffffffffffffffff166319e1c5c4611d8b86611f10565b856040518363ffffffff1660e01b8152600401611da99291906131a5565b600060405180830381865afa158015611dc6573d6000803e3d6000fd5b505050506040513d6000823e3d601f19601f82011682018060405250810190611def9190613245565b9050611dfa816122c3565b91505092915050565b60006060838388611e1389611f10565b611e1c89611f10565b6040518463ffffffff1660e01b8152600401611e3a93929190613076565b600060405180830381865afa158015611e57573d6000803e3d6000fd5b505050506040513d6000823e3d601f19601f82011682018060405250810190611e809190613245565b9050611e8b816122d1565b91505095945050505050565b6000611ea283611c9e565b611eb357611eb060006116b6565b92505b611ebc82611c9e565b611ecd57611eca60006116b6565b91505b600083905060008390506000611f0260028484608073ffffffffffffffffffffffffffffffffffffffff1663cc2cbeff611e03565b905080935050505092915050565b6060602067ffffffffffffffff811115611f2d57611f2c6127b1565b5b6040519080825280601f01601f191660200182016040528015611f5f5781602001600182028036833780820191505090505b509050816020820152919050565b6000819050919050565b606060ff60001b8314611f9457611f8d836122df565b9050612021565b818054611fa090612e6c565b80601f0160208091040260200160405190810160405280929190818152602001828054611fcc90612e6c565b80156120195780601f10611fee57610100808354040283529160200191612019565b820191906000526020600020905b815481529060010190602001808311611ffc57829003601f168201915b505050505090505b92915050565b600061203283611c9e565b6120435761204060006116b6565b92505b61204c82611c9e565b61205d5761205a60006116b6565b91505b60008390506000839050600061209160028484608073ffffffffffffffffffffffffffffffffffffffff16622df619611e03565b905080935050505092915050565b60006060608073ffffffffffffffffffffffffffffffffffffffff16635fa55ca784866040518363ffffffff1660e01b81526004016120df929190612f99565b600060405180830381865afa1580156120fc573d6000803e3d6000fd5b505050506040513d6000823e3d601f19601f820116820180604052508101906121259190613245565b9050612130816122c3565b91505092915050565b60007f8b73c3c69bb8fe3d512ecc4cf759cc79239f7b179b0ffacaa9a75d522b39400f7f00000000000000000000000000000000000000000000000000000000000000007f000000000000000000000000000000000000000000000000000000000000000046306040516020016121b495949392919061328e565b60405160208183030381529060405280519060200120905090565b60008060007f7fffffffffffffffffffffffffffffff5d576e7357a4501ddfe92f46681b20a08460001c111561220f5760006003859250925092506122b9565b60006001888888886040516000815260200160405260405161223494939291906132e1565b6020604051602081039080840390855afa158015612256573d6000803e3d6000fd5b505050602060405103519050600073ffffffffffffffffffffffffffffffffffffffff168173ffffffffffffffffffffffffffffffffffffffff16036122aa57600060016000801b935093509350506122b9565b8060008060001b935093509350505b9450945094915050565b600060208201519050919050565b600060208201519050919050565b606060006122ec83612353565b90506000602067ffffffffffffffff81111561230b5761230a6127b1565b5b6040519080825280601f01601f19166020018201604052801561233d5781602001600182028036833780820191505090505b5090508181528360208201528092505050919050565b60008060ff8360001c169050601f81111561239a576040517fb3512b0c00000000000000000000000000000000000000000000000000000000815260040160405180910390fd5b80915050919050565b600081519050919050565b600082825260208201905092915050565b60005b838110156123dd5780820151818401526020810190506123c2565b60008484015250505050565b6000601f19601f8301169050919050565b6000612405826123a3565b61240f81856123ae565b935061241f8185602086016123bf565b612428816123e9565b840191505092915050565b6000602082019050818103600083015261244d81846123fa565b905092915050565b6000604051905090565b600080fd5b600080fd5b600073ffffffffffffffffffffffffffffffffffffffff82169050919050565b600061249482612469565b9050919050565b6124a481612489565b81146124af57600080fd5b50565b6000813590506124c18161249b565b92915050565b6000819050919050565b6124da816124c7565b81146124e557600080fd5b50565b6000813590506124f7816124d1565b92915050565b600080604083850312156125145761251361245f565b5b6000612522858286016124b2565b9250506020612533858286016124e8565b9150509250929050565b60008115159050919050565b6125528161253d565b82525050565b600060208201905061256d6000830184612549565b92915050565b61257c816124c7565b82525050565b60006020820190506125976000830184612573565b92915050565b6000806000606084860312156125b6576125b561245f565b5b60006125c4868287016124b2565b93505060206125d5868287016124b2565b92505060406125e6868287016124e8565b9150509250925092565b600060ff82169050919050565b612606816125f0565b82525050565b600060208201905061262160008301846125fd565b92915050565b6000819050919050565b61263a81612627565b82525050565b60006020820190506126556000830184612631565b92915050565b600080fd5b6000602082840312156126765761267561265b565b5b81905092915050565b600080604083850312156126965761269561245f565b5b60006126a4858286016124b2565b925050602083013567ffffffffffffffff8111156126c5576126c4612464565b5b6126d185828601612660565b9150509250929050565b6000819050919050565b60006127006126fb6126f6846124c7565b6126db565b6124c7565b9050919050565b612710816126e5565b82525050565b600060208201905061272b6000830184612707565b92915050565b6000604082840312156127475761274661265b565b5b81905092915050565b600080604083850312156127675761276661245f565b5b6000612775858286016124b2565b925050602083013567ffffffffffffffff81111561279657612795612464565b5b6127a285828601612731565b9150509250929050565b600080fd5b7f4e487b7100000000000000000000000000000000000000000000000000000000600052604160045260246000fd5b6127e9826123e9565b810181811067ffffffffffffffff82111715612808576128076127b1565b5b80604052505050565b600061281b612455565b905061282782826127e0565b919050565b600080fd5b61283a81612627565b811461284557600080fd5b50565b60008135905061285781612831565b92915050565b600080fd5b600080fd5b600067ffffffffffffffff821115612882576128816127b1565b5b61288b826123e9565b9050602081019050919050565b82818337600083830152505050565b60006128ba6128b584612867565b612811565b9050828152602081018484840111156128d6576128d5612862565b5b6128e1848285612898565b509392505050565b600082601f8301126128fe576128fd61285d565b5b813561290e8482602086016128a7565b91505092915050565b60006040828403121561292d5761292c6127ac565b5b6129376040612811565b9050600061294784828501612848565b600083015250602082013567ffffffffffffffff81111561296b5761296a61282c565b5b612977848285016128e9565b60208301525092915050565b6000806040838503121561299a5761299961245f565b5b60006129a8858286016124b2565b925050602083013567ffffffffffffffff8111156129c9576129c8612464565b5b6129d585828601612917565b9150509250929050565b600063ffffffff82169050919050565b6129f8816129df565b8114612a0357600080fd5b50565b600081359050612a15816129ef565b92915050565b600060208284031215612a3157612a3061245f565b5b6000612a3f84828501612a06565b91505092915050565b600060208284031215612a5e57612a5d61245f565b5b6000612a6c848285016124b2565b91505092915050565b60007fff0000000000000000000000000000000000000000000000000000000000000082169050919050565b612aaa81612a75565b82525050565b612ab981612489565b82525050565b600081519050919050565b600082825260208201905092915050565b6000819050602082019050919050565b612af4816124c7565b82525050565b6000612b068383612aeb565b60208301905092915050565b6000602082019050919050565b6000612b2a82612abf565b612b348185612aca565b9350612b3f83612adb565b8060005b83811015612b70578151612b578882612afa565b9750612b6283612b12565b925050600181019050612b43565b5085935050505092915050565b600060e082019050612b92600083018a612aa1565b8181036020830152612ba481896123fa565b90508181036040830152612bb881886123fa565b9050612bc76060830187612573565b612bd46080830186612ab0565b612be160a0830185612631565b81810360c0830152612bf38184612b1f565b905098975050505050505050565b600080600060608486031215612c1a57612c1961245f565b5b6000612c28868287016124b2565b9350506020612c39868287016124b2565b925050604084013567ffffffffffffffff811115612c5a57612c59612464565b5b612c6686828701612660565b9150509250925092565b612c79816124c7565b8114612c8457600080fd5b50565b600081359050612c9681612c70565b92915050565b600080600060608486031215612cb557612cb461245f565b5b6000612cc3868287016124b2565b9350506020612cd4868287016124b2565b9250506040612ce586828701612c87565b9150509250925092565b60008060408385031215612d0657612d0561245f565b5b6000612d14858286016124b2565b9250506020612d2585828601612c87565b9150509250929050565b612d38816125f0565b8114612d4357600080fd5b50565b600081359050612d5581612d2f565b92915050565b600080600080600080600060e0888a031215612d7a57612d7961245f565b5b6000612d888a828b016124b2565b9750506020612d998a828b016124b2565b9650506040612daa8a828b016124e8565b9550506060612dbb8a828b016124e8565b9450506080612dcc8a828b01612d46565b93505060a0612ddd8a828b01612848565b92505060c0612dee8a828b01612848565b91505092959891949750929550565b60008060408385031215612e1457612e1361245f565b5b6000612e22858286016124b2565b9250506020612e33858286016124b2565b9150509250929050565b7f4e487b7100000000000000000000000000000000000000000000000000000000600052602260045260246000fd5b60006002820490506001821680612e8457607f821691505b602082108103612e9757612e96612e3d565b5b50919050565b600060208284031215612eb357612eb26127ac565b5b612ebd6020612811565b9050600082013567ffffffffffffffff811115612edd57612edc61282c565b5b612ee9848285016128e9565b60008301525092915050565b6000612f013683612e9d565b9050919050565b6000612f143683612917565b9050919050565b6000604082019050612f306000830185612631565b612f3d6020830184612631565b9392505050565b600081519050919050565b600082825260208201905092915050565b6000612f6b82612f44565b612f758185612f4f565b9350612f858185602086016123bf565b612f8e816123e9565b840191505092915050565b6000604082019050612fae60008301856125fd565b8181036020830152612fc08184612f60565b90509392505050565b600081519050612fd8816124d1565b92915050565b600060208284031215612ff457612ff361245f565b5b600061300284828501612fc9565b91505092915050565b7f4e487b7100000000000000000000000000000000000000000000000000000000600052602160045260246000fd5b6000819050919050565b61305561305082612627565b61303a565b82525050565b60006130678284613044565b60208201915081905092915050565b600060608201905061308b60008301866125fd565b818103602083015261309d8185612f60565b905081810360408301526130b18184612f60565b9050949350505050565b600067ffffffffffffffff8211156130d6576130d56127b1565b5b6130df826123e9565b9050602081019050919050565b60006130ff6130fa846130bb565b612811565b90508281526020810184848401111561311b5761311a612862565b5b6131268482856123bf565b509392505050565b600082601f8301126131435761314261285d565b5b81516131538482602086016130ec565b91505092915050565b6000602082840312156131725761317161245f565b5b600082015167ffffffffffffffff8111156131905761318f612464565b5b61319c8482850161312e565b91505092915050565b600060408201905081810360008301526131bf8185612f60565b90506131ce60208301846125fd565b9392505050565b60006131e86131e384612867565b612811565b90508281526020810184848401111561320457613203612862565b5b61320f8482856123bf565b509392505050565b600082601f83011261322c5761322b61285d565b5b815161323c8482602086016131d5565b91505092915050565b60006020828403121561325b5761325a61245f565b5b600082015167ffffffffffffffff81111561327957613278612464565b5b61328584828501613217565b91505092915050565b600060a0820190506132a36000830188612631565b6132b06020830187612631565b6132bd6040830186612631565b6132ca6060830185612573565b6132d76080830184612ab0565b9695505050505050565b60006080820190506132f66000830187612631565b61330360208301866125fd565b6133106040830185612631565b61331d6060830184612631565b9594505050505056fea264697066735822122054e0a0f4efb5c65f190b631d1807022c518b43b07919c197c9a86ff1e683e47c64736f6c63430008180033",
  "devdoc": {
    "errors": {
      "AllowanceOverflow()": [
        {
          "details": "The allowance has overflowed."
        }
      ],
      "AllowanceUnderflow()": [
        {
          "details": "The allowance has underflowed."
        }
      ],
      "ECDSAInvalidSignature()": [
        {
          "details": "The signature derives the `address(0)`."
        }
      ],
      "ECDSAInvalidSignatureLength(uint256)": [
        {
          "details": "The signature has an invalid length."
        }
      ],
      "ECDSAInvalidSignatureS(bytes32)": [
        {
          "details": "The signature has an S value that is in the upper half order."
        }
      ],
      "InsufficientAllowance()": [
        {
          "details": "Insufficient allowance."
        }
      ],
      "InsufficientBalance()": [
        {
          "details": "Insufficient balance."
        }
      ],
      "InvalidPermit()": [
        {
          "details": "The permit is invalid."
        }
      ],
      "PermitExpired()": [
        {
          "details": "The permit has expired."
        }
      ],
      "TotalSupplyOverflow()": [
        {
          "details": "The total supply has overflowed."
        }
      ]
    },
    "events": {
      "Approval(address,address,uint256)": {
        "details": "Emitted when `amount` tokens is approved by `owner` to be used by `spender`."
      },
      "ApprovalEncrypted(address,address)": {
        "details": "Emitted when the allowance of a `spender` for an `owner` is set by a call to {approveEncrypted}. `value` is the new allowance."
      },
      "EIP712DomainChanged()": {
        "details": "MAY be emitted to signal that the domain could have changed."
      },
      "Transfer(address,address,uint256)": {
        "details": "Emitted when `amount` tokens is transferred from `from` to `to`."
      },
      "TransferEncrypted(address,address)": {
        "details": "Emitted when `value` tokens are moved from one account (`from`) to another (`to`). Note that `value` may be zero."
      }
    },
    "kind": "dev",
    "methods": {
      "DOMAIN_SEPARATOR()": {
        "details": "Returns the EIP-712 domain separator for the EIP-2612 permit."
      },
      "allowance(address,address)": {
        "details": "Returns the amount of tokens that `spender` can spend on behalf of `owner`."
      },
      "allowanceEncrypted(address,(bytes32,bytes))": {
        "details": "Returns the remaining number of tokens that `spender` will be allowed to spend on behalf of `owner` through {transferFrom}. This is zero by default. This value changes when {approve} or {transferFrom} are called."
      },
      "approve(address,uint256)": {
        "details": "Sets `amount` as the allowance of `spender` over the caller's tokens. Emits a {Approval} event."
      },
      "approveEncrypted(address,(bytes))": {
        "details": "Sets a `value` amount of tokens as the allowance of `spender` over the caller's tokens. Returns a boolean value indicating whether the operation succeeded. IMPORTANT: Beware that changing an allowance with this method brings the risk that someone may use both the old and the new allowance by unfortunate transaction ordering. One possible solution to mitigate this race condition is to first reduce the spender's allowance to 0 and set the desired value afterwards: https://github.com/ethereum/EIPs/issues/20#issuecomment-263524729 Emits an {ApprovalEncrypted} event."
      },
      "balanceOf(address)": {
        "details": "Returns the amount of tokens owned by `owner`."
      },
      "balanceOfEncrypted(address,(bytes32,bytes))": {
        "details": "Returns the value of tokens owned by `account`, sealed and encrypted for the caller."
      },
      "decimals()": {
        "details": "Returns the decimals places of the token."
      },
      "eip712Domain()": {
        "details": "See {IERC-5267}."
      },
      "name()": {
        "details": "Returns the name of the token."
      },
      "nonces(address)": {
        "details": "Returns the current nonce for `owner`. This value is used to compute the signature for EIP-2612 permit."
      },
      "permit(address,address,uint256,uint256,uint8,bytes32,bytes32)": {
        "details": "Sets `value` as the allowance of `spender` over the tokens of `owner`, authorized by a signed approval by `owner`. Emits a {Approval} event."
      },
      "symbol()": {
        "details": "Returns the symbol of the token."
      },
      "totalSupply()": {
        "details": "Returns the amount of tokens in existence."
      },
      "transfer(address,uint256)": {
        "details": "Transfer `amount` tokens from the caller to `to`. Requirements: - `from` must at least have `amount`. Emits a {Transfer} event."
      },
      "transferFrom(address,address,uint256)": {
        "details": "Transfers `amount` tokens from `from` to `to`. Note: Does not update the allowance if it is the maximum uint256 value. Requirements: - `from` must at least have `amount`. - The caller must have at least `amount` of allowance to transfer the tokens of `from`. Emits a {Transfer} event."
      },
      "transferFromEncrypted(address,address,(bytes))": {
        "details": "Moves a `value` amount of tokens from `from` to `to` using the allowance mechanism. `value` is then deducted from the caller's allowance. Returns a boolean value indicating whether the operation succeeded. Emits a {TransferEncrypted} event."
      }
    },
    "version": 1
  },
  "userdoc": {
    "errors": {
      "SignerNotMessageSender()": [
        {
          "notice": "Emitted when the signer is not the message sender"
        }
      ],
      "SignerNotOwner()": [
        {
          "notice": "Emitted when the signer is not the specified owner"
        }
      ]
    },
    "kind": "user",
    "methods": {},
    "version": 1
  },
  "storageLayout": {
    "storage": [
      {
        "astId": 16568,
        "contract": "contracts/tokens/FakeFGZ.sol:FakeFGZ",
        "label": "_nameFallback",
        "offset": 0,
        "slot": "0",
        "type": "t_string_storage"
      },
      {
        "astId": 16570,
        "contract": "contracts/tokens/FakeFGZ.sol:FakeFGZ",
        "label": "_versionFallback",
        "offset": 0,
        "slot": "1",
        "type": "t_string_storage"
      },
      {
        "astId": 18126,
        "contract": "contracts/tokens/FakeFGZ.sol:FakeFGZ",
        "label": "_encTotalSupply",
        "offset": 0,
        "slot": "2",
        "type": "t_userDefinedValueType(euint32)12"
      },
      {
        "astId": 18131,
        "contract": "contracts/tokens/FakeFGZ.sol:FakeFGZ",
        "label": "_encBalanceOf",
        "offset": 0,
        "slot": "3",
        "type": "t_mapping(t_address,t_userDefinedValueType(euint32)12)"
      },
      {
        "astId": 18138,
        "contract": "contracts/tokens/FakeFGZ.sol:FakeFGZ",
        "label": "_encAllowance",
        "offset": 0,
        "slot": "4",
        "type": "t_mapping(t_address,t_mapping(t_address,t_userDefinedValueType(euint32)12))"
      },
      {
        "astId": 18140,
        "contract": "contracts/tokens/FakeFGZ.sol:FakeFGZ",
        "label": "_name",
        "offset": 0,
        "slot": "5",
        "type": "t_string_storage"
      },
      {
        "astId": 18142,
        "contract": "contracts/tokens/FakeFGZ.sol:FakeFGZ",
        "label": "_symbol",
        "offset": 0,
        "slot": "6",
        "type": "t_string_storage"
      }
    ],
    "types": {
      "t_address": {
        "encoding": "inplace",
        "label": "address",
        "numberOfBytes": "20"
      },
      "t_mapping(t_address,t_mapping(t_address,t_userDefinedValueType(euint32)12))": {
        "encoding": "mapping",
        "key": "t_address",
        "label": "mapping(address => mapping(address => euint32))",
        "numberOfBytes": "32",
        "value": "t_mapping(t_address,t_userDefinedValueType(euint32)12)"
      },
      "t_mapping(t_address,t_userDefinedValueType(euint32)12)": {
        "encoding": "mapping",
        "key": "t_address",
        "label": "mapping(address => euint32)",
        "numberOfBytes": "32",
        "value": "t_userDefinedValueType(euint32)12"
      },
      "t_string_storage": {
        "encoding": "bytes",
        "label": "string",
        "numberOfBytes": "32"
      },
      "t_userDefinedValueType(euint32)12": {
        "encoding": "inplace",
        "label": "euint32",
        "numberOfBytes": "32"
      }
    }
  }
}