{
  "address": "0x52721b182f58F0c8E8D049a456738483DE3b4f1e",
  "abi": [
    {
      "inputs": [
        {
          "components": [
            {
              "internalType": "bytes",
              "name": "data",
              "type": "bytes"
            }
          ],
          "internalType": "struct inEuint32",
          "name": "_initialSupply",
          "type": "tuple"
        }
      ],
      "stateMutability": "nonpayable",
      "type": "constructor"
    },
    {
      "inputs": [],
      "name": "AllowanceOverflow",
      "type": "error"
    },
    {
      "inputs": [],
      "name": "AllowanceUnderflow",
      "type": "error"
    },
    {
      "inputs": [],
      "name": "ECDSAInvalidSignature",
      "type": "error"
    },
    {
      "inputs": [
        {
          "internalType": "uint256",
          "name": "length",
          "type": "uint256"
        }
      ],
      "name": "ECDSAInvalidSignatureLength",
      "type": "error"
    },
    {
      "inputs": [
        {
          "internalType": "bytes32",
          "name": "s",
          "type": "bytes32"
        }
      ],
      "name": "ECDSAInvalidSignatureS",
      "type": "error"
    },
    {
      "inputs": [],
      "name": "ErrorInsufficientFunds",
      "type": "error"
    },
    {
      "inputs": [],
      "name": "InsufficientAllowance",
      "type": "error"
    },
    {
      "inputs": [],
      "name": "InsufficientBalance",
      "type": "error"
    },
    {
      "inputs": [],
      "name": "InvalidPermit",
      "type": "error"
    },
    {
      "inputs": [],
      "name": "InvalidShortString",
      "type": "error"
    },
    {
      "inputs": [],
      "name": "PermitExpired",
      "type": "error"
    },
    {
      "inputs": [],
      "name": "SignerNotMessageSender",
      "type": "error"
    },
    {
      "inputs": [],
      "name": "SignerNotOwner",
      "type": "error"
    },
    {
      "inputs": [
        {
          "internalType": "string",
          "name": "str",
          "type": "string"
        }
      ],
      "name": "StringTooLong",
      "type": "error"
    },
    {
      "inputs": [],
      "name": "TotalSupplyOverflow",
      "type": "error"
    },
    {
      "anonymous": false,
      "inputs": [
        {
          "indexed": true,
          "internalType": "address",
          "name": "owner",
          "type": "address"
        },
        {
          "indexed": true,
          "internalType": "address",
          "name": "spender",
          "type": "address"
        },
        {
          "indexed": false,
          "internalType": "uint256",
          "name": "amount",
          "type": "uint256"
        }
      ],
      "name": "Approval",
      "type": "event"
    },
    {
      "anonymous": false,
      "inputs": [
        {
          "indexed": true,
          "internalType": "address",
          "name": "owner",
          "type": "address"
        },
        {
          "indexed": true,
          "internalType": "address",
          "name": "spender",
          "type": "address"
        }
      ],
      "name": "ApprovalEncrypted",
      "type": "event"
    },
    {
      "anonymous": false,
      "inputs": [],
      "name": "EIP712DomainChanged",
      "type": "event"
    },
    {
      "anonymous": false,
      "inputs": [
        {
          "indexed": true,
          "internalType": "address",
          "name": "from",
          "type": "address"
        },
        {
          "indexed": true,
          "internalType": "address",
          "name": "to",
          "type": "address"
        },
        {
          "indexed": false,
          "internalType": "uint256",
          "name": "amount",
          "type": "uint256"
        }
      ],
      "name": "Transfer",
      "type": "event"
    },
    {
      "anonymous": false,
      "inputs": [
        {
          "indexed": true,
          "internalType": "address",
          "name": "from",
          "type": "address"
        },
        {
          "indexed": true,
          "internalType": "address",
          "name": "to",
          "type": "address"
        }
      ],
      "name": "TransferEncrypted",
      "type": "event"
    },
    {
      "inputs": [],
      "name": "DOMAIN_SEPARATOR",
      "outputs": [
        {
          "internalType": "bytes32",
          "name": "result",
          "type": "bytes32"
        }
      ],
      "stateMutability": "view",
      "type": "function"
    },
    {
      "inputs": [
        {
          "internalType": "address",
          "name": "owner",
          "type": "address"
        },
        {
          "internalType": "address",
          "name": "spender",
          "type": "address"
        }
      ],
      "name": "allowance",
      "outputs": [
        {
          "internalType": "uint256",
          "name": "result",
          "type": "uint256"
        }
      ],
      "stateMutability": "view",
      "type": "function"
    },
    {
      "inputs": [
        {
          "internalType": "address",
          "name": "spender",
          "type": "address"
        },
        {
          "components": [
            {
              "internalType": "bytes32",
              "name": "publicKey",
              "type": "bytes32"
            },
            {
              "internalType": "bytes",
              "name": "signature",
              "type": "bytes"
            }
          ],
          "internalType": "struct Permission",
          "name": "permission",
          "type": "tuple"
        }
      ],
      "name": "allowanceEncrypted",
      "outputs": [
        {
          "internalType": "string",
          "name": "",
          "type": "string"
        }
      ],
      "stateMutability": "view",
      "type": "function"
    },
    {
      "inputs": [
        {
          "internalType": "address",
          "name": "spender",
          "type": "address"
        },
        {
          "internalType": "uint256",
          "name": "amount",
          "type": "uint256"
        }
      ],
      "name": "approve",
      "outputs": [
        {
          "internalType": "bool",
          "name": "",
          "type": "bool"
        }
      ],
      "stateMutability": "nonpayable",
      "type": "function"
    },
    {
      "inputs": [
        {
          "internalType": "address",
          "name": "spender",
          "type": "address"
        },
        {
          "components": [
            {
              "internalType": "bytes",
              "name": "data",
              "type": "bytes"
            }
          ],
          "internalType": "struct inEuint32",
          "name": "value",
          "type": "tuple"
        }
      ],
      "name": "approveEncrypted",
      "outputs": [
        {
          "internalType": "bool",
          "name": "",
          "type": "bool"
        }
      ],
      "stateMutability": "nonpayable",
      "type": "function"
    },
    {
      "inputs": [
        {
          "internalType": "address",
          "name": "owner",
          "type": "address"
        }
      ],
      "name": "balanceOf",
      "outputs": [
        {
          "internalType": "uint256",
          "name": "result",
          "type": "uint256"
        }
      ],
      "stateMutability": "view",
      "type": "function"
    },
    {
      "inputs": [
        {
          "internalType": "address",
          "name": "account",
          "type": "address"
        },
        {
          "components": [
            {
              "internalType": "bytes32",
              "name": "publicKey",
              "type": "bytes32"
            },
            {
              "internalType": "bytes",
              "name": "signature",
              "type": "bytes"
            }
          ],
          "internalType": "struct Permission",
          "name": "auth",
          "type": "tuple"
        }
      ],
      "name": "balanceOfEncrypted",
      "outputs": [
        {
          "internalType": "string",
          "name": "",
          "type": "string"
        }
      ],
      "stateMutability": "view",
      "type": "function"
    },
    {
      "inputs": [],
      "name": "decimals",
      "outputs": [
        {
          "internalType": "uint8",
          "name": "",
          "type": "uint8"
        }
      ],
      "stateMutability": "pure",
      "type": "function"
    },
    {
      "inputs": [],
      "name": "eip712Domain",
      "outputs": [
        {
          "internalType": "bytes1",
          "name": "fields",
          "type": "bytes1"
        },
        {
          "internalType": "string",
          "name": "name",
          "type": "string"
        },
        {
          "internalType": "string",
          "name": "version",
          "type": "string"
        },
        {
          "internalType": "uint256",
          "name": "chainId",
          "type": "uint256"
        },
        {
          "internalType": "address",
          "name": "verifyingContract",
          "type": "address"
        },
        {
          "internalType": "bytes32",
          "name": "salt",
          "type": "bytes32"
        },
        {
          "internalType": "uint256[]",
          "name": "extensions",
          "type": "uint256[]"
        }
      ],
      "stateMutability": "view",
      "type": "function"
    },
    {
      "inputs": [],
      "name": "name",
      "outputs": [
        {
          "internalType": "string",
          "name": "",
          "type": "string"
        }
      ],
      "stateMutability": "view",
      "type": "function"
    },
    {
      "inputs": [
        {
          "internalType": "address",
          "name": "owner",
          "type": "address"
        }
      ],
      "name": "nonces",
      "outputs": [
        {
          "internalType": "uint256",
          "name": "result",
          "type": "uint256"
        }
      ],
      "stateMutability": "view",
      "type": "function"
    },
    {
      "inputs": [
        {
          "internalType": "address",
          "name": "owner",
          "type": "address"
        },
        {
          "internalType": "address",
          "name": "spender",
          "type": "address"
        },
        {
          "internalType": "uint256",
          "name": "value",
          "type": "uint256"
        },
        {
          "internalType": "uint256",
          "name": "deadline",
          "type": "uint256"
        },
        {
          "internalType": "uint8",
          "name": "v",
          "type": "uint8"
        },
        {
          "internalType": "bytes32",
          "name": "r",
          "type": "bytes32"
        },
        {
          "internalType": "bytes32",
          "name": "s",
          "type": "bytes32"
        }
      ],
      "name": "permit",
      "outputs": [],
      "stateMutability": "nonpayable",
      "type": "function"
    },
    {
      "inputs": [],
      "name": "symbol",
      "outputs": [
        {
          "internalType": "string",
          "name": "",
          "type": "string"
        }
      ],
      "stateMutability": "view",
      "type": "function"
    },
    {
      "inputs": [],
      "name": "totalSupply",
      "outputs": [
        {
          "internalType": "uint256",
          "name": "result",
          "type": "uint256"
        }
      ],
      "stateMutability": "view",
      "type": "function"
    },
    {
      "inputs": [
        {
          "internalType": "address",
          "name": "to",
          "type": "address"
        },
        {
          "internalType": "uint256",
          "name": "amount",
          "type": "uint256"
        }
      ],
      "name": "transfer",
      "outputs": [
        {
          "internalType": "bool",
          "name": "",
          "type": "bool"
        }
      ],
      "stateMutability": "nonpayable",
      "type": "function"
    },
    {
      "inputs": [
        {
          "internalType": "address",
          "name": "to",
          "type": "address"
        },
        {
          "components": [
            {
              "internalType": "bytes",
              "name": "data",
              "type": "bytes"
            }
          ],
          "internalType": "struct inEuint32",
          "name": "encryptedAmount",
          "type": "tuple"
        }
      ],
      "name": "transferEncrypted",
      "outputs": [
        {
          "internalType": "euint32",
          "name": "",
          "type": "uint256"
        }
      ],
      "stateMutability": "nonpayable",
      "type": "function"
    },
    {
      "inputs": [
        {
          "internalType": "address",
          "name": "to",
          "type": "address"
        },
        {
          "internalType": "euint32",
          "name": "amount",
          "type": "uint256"
        }
      ],
      "name": "transferEncrypted",
      "outputs": [
        {
          "internalType": "euint32",
          "name": "",
          "type": "uint256"
        }
      ],
      "stateMutability": "nonpayable",
      "type": "function"
    },
    {
      "inputs": [
        {
          "internalType": "address",
          "name": "from",
          "type": "address"
        },
        {
          "internalType": "address",
          "name": "to",
          "type": "address"
        },
        {
          "internalType": "uint256",
          "name": "amount",
          "type": "uint256"
        }
      ],
      "name": "transferFrom",
      "outputs": [
        {
          "internalType": "bool",
          "name": "",
          "type": "bool"
        }
      ],
      "stateMutability": "nonpayable",
      "type": "function"
    },
    {
      "inputs": [
        {
          "internalType": "address",
          "name": "from",
          "type": "address"
        },
        {
          "internalType": "address",
          "name": "to",
          "type": "address"
        },
        {
          "components": [
            {
              "internalType": "bytes",
              "name": "data",
              "type": "bytes"
            }
          ],
          "internalType": "struct inEuint32",
          "name": "value",
          "type": "tuple"
        }
      ],
      "name": "transferFromEncrypted",
      "outputs": [
        {
          "internalType": "euint32",
          "name": "",
          "type": "uint256"
        }
      ],
      "stateMutability": "nonpayable",
      "type": "function"
    },
    {
      "inputs": [
        {
          "internalType": "address",
          "name": "from",
          "type": "address"
        },
        {
          "internalType": "address",
          "name": "to",
          "type": "address"
        },
        {
          "internalType": "euint32",
          "name": "value",
          "type": "uint256"
        }
      ],
      "name": "transferFromEncrypted",
      "outputs": [
        {
          "internalType": "euint32",
          "name": "",
          "type": "uint256"
        }
      ],
      "stateMutability": "nonpayable",
      "type": "function"
    },
    {
      "inputs": [
        {
          "internalType": "uint32",
          "name": "amount",
          "type": "uint32"
        }
      ],
      "name": "unwrap",
      "outputs": [],
      "stateMutability": "nonpayable",
      "type": "function"
    },
    {
      "inputs": [
        {
          "internalType": "uint32",
          "name": "amount",
          "type": "uint32"
        }
      ],
      "name": "wrap",
      "outputs": [],
      "stateMutability": "nonpayable",
      "type": "function"
    }
  ],
  "transactionHash": "0xb7627c4cfb3a5c3e34eaf41d1626aadf349145eccd2b21bf783f17cf3aa9b005",
  "args": [
    {
      "data": {
        "0": 16,
        "1": 8,
        "2": 0,
        "3": 0,
        "4": 0,
        "5": 0,
        "6": 0,
        "7": 0,
        "8": 119,
        "9": 153,
        "10": 18,
        "11": 198,
        "12": 163,
        "13": 196,
        "14": 46,
        "15": 25,
        "16": 66,
        "17": 214,
        "18": 52,
        "19": 85,
        "20": 81,
        "21": 154,
        "22": 197,
        "23": 231,
        "24": 145,
        "25": 215,
        "26": 230,
        "27": 157,
        "28": 228,
        "29": 75,
        "30": 176,
        "31": 119,
        "32": 45,
        "33": 209,
        "34": 54,
        "35": 244,
        "36": 66,
        "37": 141,
        "38": 132,
        "39": 247,
        "40": 249,
        "41": 56,
        "42": 251,
        "43": 167,
        "44": 89,
        "45": 11,
        "46": 147,
        "47": 98,
        "48": 200,
        "49": 210,
        "50": 29,
        "51": 213,
        "52": 82,
        "53": 231,
        "54": 28,
        "55": 60,
        "56": 18,
        "57": 229,
        "58": 79,
        "59": 131,
        "60": 169,
        "61": 141,
        "62": 47,
        "63": 71,
        "64": 2,
        "65": 114,
        "66": 231,
        "67": 124,
        "68": 138,
        "69": 81,
        "70": 174,
        "71": 71,
        "72": 215,
        "73": 177,
        "74": 60,
        "75": 24,
        "76": 103,
        "77": 228,
        "78": 72,
        "79": 139,
        "80": 68,
        "81": 217,
        "82": 219,
        "83": 80,
        "84": 178,
        "85": 147,
        "86": 163,
        "87": 169,
        "88": 235,
        "89": 81,
        "90": 27,
        "91": 186,
        "92": 111,
        "93": 24,
        "94": 165,
        "95": 83,
        "96": 29,
        "97": 172,
        "98": 217,
        "99": 116,
        "100": 244,
        "101": 245,
        "102": 15,
        "103": 130,
        "104": 95,
        "105": 34,
        "106": 149,
        "107": 167,
        "108": 11,
        "109": 207,
        "110": 206,
        "111": 234,
        "112": 18,
        "113": 186,
        "114": 62,
        "115": 234,
        "116": 26,
        "117": 68,
        "118": 48,
        "119": 32,
        "120": 141,
        "121": 148,
        "122": 110,
        "123": 93,
        "124": 249,
        "125": 23,
        "126": 46,
        "127": 76,
        "128": 52,
        "129": 98,
        "130": 89,
        "131": 99,
        "132": 53,
        "133": 87,
        "134": 243,
        "135": 70,
        "136": 90,
        "137": 80,
        "138": 77,
        "139": 153,
        "140": 162,
        "141": 205,
        "142": 91,
        "143": 121,
        "144": 85,
        "145": 75,
        "146": 59,
        "147": 253,
        "148": 95,
        "149": 73,
        "150": 83,
        "151": 50,
        "152": 127,
        "153": 135,
        "154": 31,
        "155": 178,
        "156": 158,
        "157": 52,
        "158": 118,
        "159": 18,
        "160": 162,
        "161": 246,
        "162": 14,
        "163": 247,
        "164": 7,
        "165": 223,
        "166": 24,
        "167": 120,
        "168": 124,
        "169": 22,
        "170": 103,
        "171": 194,
        "172": 58,
        "173": 126,
        "174": 89,
        "175": 197,
        "176": 198,
        "177": 136,
        "178": 225,
        "179": 184,
        "180": 182,
        "181": 183,
        "182": 185,
        "183": 42,
        "184": 57,
        "185": 234,
        "186": 223,
        "187": 77,
        "188": 193,
        "189": 20,
        "190": 76,
        "191": 44,
        "192": 83,
        "193": 188,
        "194": 204,
        "195": 25,
        "196": 76,
        "197": 155,
        "198": 26,
        "199": 242,
        "200": 195,
        "201": 76,
        "202": 52,
        "203": 53,
        "204": 106,
        "205": 68,
        "206": 54,
        "207": 111,
        "208": 106,
        "209": 3,
        "210": 74,
        "211": 226,
        "212": 154,
        "213": 160,
        "214": 103,
        "215": 33,
        "216": 199,
        "217": 138,
        "218": 58,
        "219": 75,
        "220": 249,
        "221": 59,
        "222": 3,
        "223": 135,
        "224": 66,
        "225": 84,
        "226": 211,
        "227": 91,
        "228": 104,
        "229": 156,
        "230": 134,
        "231": 77,
        "232": 196,
        "233": 77,
        "234": 162,
        "235": 128,
        "236": 248,
        "237": 249,
        "238": 254,
        "239": 89,
        "240": 132,
        "241": 207,
        "242": 174,
        "243": 228,
        "244": 98,
        "245": 45,
        "246": 234,
        "247": 105,
        "248": 41,
        "249": 165,
        "250": 233,
        "251": 127,
        "252": 167,
        "253": 72,
        "254": 38,
        "255": 90,
        "256": 142,
        "257": 10,
        "258": 40,
        "259": 251,
        "260": 162,
        "261": 109,
        "262": 111,
        "263": 16,
        "264": 6,
        "265": 150,
        "266": 245,
        "267": 132,
        "268": 11,
        "269": 235,
        "270": 232,
        "271": 228,
        "272": 128,
        "273": 186,
        "274": 43,
        "275": 248,
        "276": 138,
        "277": 247,
        "278": 227,
        "279": 86,
        "280": 219,
        "281": 107,
        "282": 247,
        "283": 204,
        "284": 157,
        "285": 25,
        "286": 36,
        "287": 33,
        "288": 85,
        "289": 103,
        "290": 189,
        "291": 22,
        "292": 179,
        "293": 1,
        "294": 173,
        "295": 95,
        "296": 251,
        "297": 83,
        "298": 252,
        "299": 70,
        "300": 62,
        "301": 42,
        "302": 218,
        "303": 135,
        "304": 154,
        "305": 76,
        "306": 75,
        "307": 146,
        "308": 166,
        "309": 39,
        "310": 56,
        "311": 239,
        "312": 221,
        "313": 223,
        "314": 110,
        "315": 130,
        "316": 185,
        "317": 232,
        "318": 128,
        "319": 191,
        "320": 110,
        "321": 151,
        "322": 134,
        "323": 80,
        "324": 129,
        "325": 188,
        "326": 53,
        "327": 85,
        "328": 80,
        "329": 248,
        "330": 146,
        "331": 109,
        "332": 31,
        "333": 223,
        "334": 244,
        "335": 205,
        "336": 200,
        "337": 112,
        "338": 174,
        "339": 10,
        "340": 238,
        "341": 131,
        "342": 164,
        "343": 207,
        "344": 103,
        "345": 214,
        "346": 64,
        "347": 8,
        "348": 138,
        "349": 186,
        "350": 232,
        "351": 39,
        "352": 118,
        "353": 127,
        "354": 205,
        "355": 60,
        "356": 85,
        "357": 208,
        "358": 136,
        "359": 133,
        "360": 136,
        "361": 89,
        "362": 161,
        "363": 78,
        "364": 142,
        "365": 122,
        "366": 231,
        "367": 74,
        "368": 151,
        "369": 116,
        "370": 72,
        "371": 213,
        "372": 246,
        "373": 66,
        "374": 16,
        "375": 53,
        "376": 218,
        "377": 73,
        "378": 193,
        "379": 152,
        "380": 108,
        "381": 2,
        "382": 8,
        "383": 166,
        "384": 38,
        "385": 91,
        "386": 168,
        "387": 148,
        "388": 254,
        "389": 89,
        "390": 53,
        "391": 62,
        "392": 134,
        "393": 88,
        "394": 136,
        "395": 240,
        "396": 30,
        "397": 148,
        "398": 128,
        "399": 101,
        "400": 121,
        "401": 142,
        "402": 107,
        "403": 55,
        "404": 71,
        "405": 191,
        "406": 191,
        "407": 30,
        "408": 127,
        "409": 164,
        "410": 216,
        "411": 50,
        "412": 197,
        "413": 166,
        "414": 95,
        "415": 17,
        "416": 218,
        "417": 220,
        "418": 104,
        "419": 2,
        "420": 13,
        "421": 236,
        "422": 195,
        "423": 6,
        "424": 78,
        "425": 217,
        "426": 5,
        "427": 119,
        "428": 206,
        "429": 201,
        "430": 148,
        "431": 229,
        "432": 235,
        "433": 98,
        "434": 26,
        "435": 173,
        "436": 87,
        "437": 108,
        "438": 80,
        "439": 240,
        "440": 231,
        "441": 131,
        "442": 238,
        "443": 23,
        "444": 137,
        "445": 202,
        "446": 253,
        "447": 125,
        "448": 78,
        "449": 246,
        "450": 170,
        "451": 77,
        "452": 96,
        "453": 115,
        "454": 89,
        "455": 131,
        "456": 149,
        "457": 126,
        "458": 37,
        "459": 118,
        "460": 71,
        "461": 98,
        "462": 148,
        "463": 187,
        "464": 219,
        "465": 14,
        "466": 171,
        "467": 241,
        "468": 135,
        "469": 179,
        "470": 186,
        "471": 222,
        "472": 96,
        "473": 59,
        "474": 26,
        "475": 216,
        "476": 213,
        "477": 119,
        "478": 27,
        "479": 171,
        "480": 46,
        "481": 90,
        "482": 73,
        "483": 83,
        "484": 12,
        "485": 97,
        "486": 59,
        "487": 203,
        "488": 64,
        "489": 154,
        "490": 163,
        "491": 233,
        "492": 214,
        "493": 176,
        "494": 70,
        "495": 13,
        "496": 104,
        "497": 102,
        "498": 234,
        "499": 105,
        "500": 189,
        "501": 183,
        "502": 112,
        "503": 188,
        "504": 123,
        "505": 59,
        "506": 165,
        "507": 118,
        "508": 173,
        "509": 70,
        "510": 139,
        "511": 189,
        "512": 236,
        "513": 16,
        "514": 1,
        "515": 84,
        "516": 111,
        "517": 74,
        "518": 110,
        "519": 153,
        "520": 235,
        "521": 220,
        "522": 99,
        "523": 240,
        "524": 68,
        "525": 144,
        "526": 196,
        "527": 46,
        "528": 24,
        "529": 81,
        "530": 91,
        "531": 61,
        "532": 86,
        "533": 98,
        "534": 91,
        "535": 127,
        "536": 206,
        "537": 19,
        "538": 201,
        "539": 174,
        "540": 172,
        "541": 75,
        "542": 57,
        "543": 149,
        "544": 49,
        "545": 40,
        "546": 227,
        "547": 126,
        "548": 125,
        "549": 238,
        "550": 29,
        "551": 188,
        "552": 143,
        "553": 250,
        "554": 135,
        "555": 41,
        "556": 236,
        "557": 213,
        "558": 145,
        "559": 133,
        "560": 221,
        "561": 21,
        "562": 49,
        "563": 119,
        "564": 138,
        "565": 32,
        "566": 231,
        "567": 214,
        "568": 191,
        "569": 43,
        "570": 110,
        "571": 212,
        "572": 200,
        "573": 145,
        "574": 248,
        "575": 252,
        "576": 183,
        "577": 244,
        "578": 86,
        "579": 24,
        "580": 59,
        "581": 87,
        "582": 134,
        "583": 33,
        "584": 0,
        "585": 53,
        "586": 228,
        "587": 55,
        "588": 164,
        "589": 186,
        "590": 238,
        "591": 244,
        "592": 247,
        "593": 55,
        "594": 71,
        "595": 47,
        "596": 9,
        "597": 8,
        "598": 34,
        "599": 186,
        "600": 211,
        "601": 106,
        "602": 218,
        "603": 244,
        "604": 123,
        "605": 35,
        "606": 51,
        "607": 105,
        "608": 189,
        "609": 70,
        "610": 96,
        "611": 226,
        "612": 191,
        "613": 249,
        "614": 138,
        "615": 213,
        "616": 144,
        "617": 207,
        "618": 82,
        "619": 156,
        "620": 238,
        "621": 139,
        "622": 7,
        "623": 226,
        "624": 241,
        "625": 67,
        "626": 227,
        "627": 20,
        "628": 120,
        "629": 173,
        "630": 107,
        "631": 155,
        "632": 69,
        "633": 248,
        "634": 88,
        "635": 36,
        "636": 54,
        "637": 230,
        "638": 44,
        "639": 191,
        "640": 161,
        "641": 219,
        "642": 52,
        "643": 111,
        "644": 110,
        "645": 164,
        "646": 150,
        "647": 69,
        "648": 155,
        "649": 68,
        "650": 214,
        "651": 236,
        "652": 13,
        "653": 111,
        "654": 186,
        "655": 33,
        "656": 151,
        "657": 204,
        "658": 164,
        "659": 136,
        "660": 69,
        "661": 184,
        "662": 125,
        "663": 238,
        "664": 179,
        "665": 60,
        "666": 124,
        "667": 126,
        "668": 197,
        "669": 220,
        "670": 70,
        "671": 217,
        "672": 101,
        "673": 79,
        "674": 211,
        "675": 174,
        "676": 144,
        "677": 122,
        "678": 201,
        "679": 43,
        "680": 186,
        "681": 185,
        "682": 27,
        "683": 3,
        "684": 198,
        "685": 153,
        "686": 248,
        "687": 37,
        "688": 208,
        "689": 201,
        "690": 192,
        "691": 121,
        "692": 196,
        "693": 11,
        "694": 219,
        "695": 183,
        "696": 178,
        "697": 235,
        "698": 252,
        "699": 157,
        "700": 41,
        "701": 247,
        "702": 148,
        "703": 210,
        "704": 148,
        "705": 231,
        "706": 109,
        "707": 73,
        "708": 77,
        "709": 253,
        "710": 138,
        "711": 70,
        "712": 13,
        "713": 145,
        "714": 35,
        "715": 228,
        "716": 66,
        "717": 157,
        "718": 140,
        "719": 159,
        "720": 186,
        "721": 238,
        "722": 76,
        "723": 135,
        "724": 252,
        "725": 178,
        "726": 116,
        "727": 28,
        "728": 196,
        "729": 18,
        "730": 213,
        "731": 202,
        "732": 110,
        "733": 242,
        "734": 144,
        "735": 208,
        "736": 16,
        "737": 120,
        "738": 179,
        "739": 180,
        "740": 178,
        "741": 18,
        "742": 58,
        "743": 213,
        "744": 244,
        "745": 44,
        "746": 154,
        "747": 250,
        "748": 29,
        "749": 66,
        "750": 135,
        "751": 114,
        "752": 3,
        "753": 158,
        "754": 157,
        "755": 39,
        "756": 191,
        "757": 54,
        "758": 84,
        "759": 114,
        "760": 89,
        "761": 206,
        "762": 92,
        "763": 227,
        "764": 225,
        "765": 255,
        "766": 188,
        "767": 221,
        "768": 28,
        "769": 217,
        "770": 244,
        "771": 101,
        "772": 51,
        "773": 49,
        "774": 44,
        "775": 234,
        "776": 101,
        "777": 51,
        "778": 196,
        "779": 255,
        "780": 232,
        "781": 211,
        "782": 2,
        "783": 145,
        "784": 46,
        "785": 241,
        "786": 176,
        "787": 14,
        "788": 137,
        "789": 186,
        "790": 244,
        "791": 34,
        "792": 153,
        "793": 168,
        "794": 157,
        "795": 3,
        "796": 187,
        "797": 38,
        "798": 116,
        "799": 73,
        "800": 59,
        "801": 126,
        "802": 126,
        "803": 11,
        "804": 197,
        "805": 177,
        "806": 165,
        "807": 37,
        "808": 231,
        "809": 182,
        "810": 120,
        "811": 25,
        "812": 144,
        "813": 235,
        "814": 221,
        "815": 119,
        "816": 99,
        "817": 239,
        "818": 47,
        "819": 255,
        "820": 193,
        "821": 243,
        "822": 196,
        "823": 83,
        "824": 28,
        "825": 194,
        "826": 175,
        "827": 141,
        "828": 17,
        "829": 113,
        "830": 199,
        "831": 79,
        "832": 208,
        "833": 189,
        "834": 113,
        "835": 246,
        "836": 117,
        "837": 82,
        "838": 205,
        "839": 86,
        "840": 133,
        "841": 155,
        "842": 96,
        "843": 71,
        "844": 64,
        "845": 131,
        "846": 48,
        "847": 204,
        "848": 20,
        "849": 138,
        "850": 36,
        "851": 92,
        "852": 146,
        "853": 27,
        "854": 206,
        "855": 132,
        "856": 215,
        "857": 239,
        "858": 155,
        "859": 13,
        "860": 81,
        "861": 47,
        "862": 141,
        "863": 134,
        "864": 46,
        "865": 207,
        "866": 174,
        "867": 155,
        "868": 54,
        "869": 55,
        "870": 76,
        "871": 230,
        "872": 40,
        "873": 177,
        "874": 66,
        "875": 53,
        "876": 246,
        "877": 123,
        "878": 190,
        "879": 34,
        "880": 176,
        "881": 5,
        "882": 12,
        "883": 121,
        "884": 108,
        "885": 206,
        "886": 210,
        "887": 249,
        "888": 11,
        "889": 180,
        "890": 126,
        "891": 28,
        "892": 100,
        "893": 221,
        "894": 50,
        "895": 48,
        "896": 12,
        "897": 31,
        "898": 130,
        "899": 103,
        "900": 182,
        "901": 188,
        "902": 71,
        "903": 49,
        "904": 46,
        "905": 119,
        "906": 226,
        "907": 8,
        "908": 136,
        "909": 55,
        "910": 123,
        "911": 71,
        "912": 60,
        "913": 249,
        "914": 155,
        "915": 17,
        "916": 64,
        "917": 79,
        "918": 21,
        "919": 216,
        "920": 75,
        "921": 93,
        "922": 196,
        "923": 250,
        "924": 116,
        "925": 239,
        "926": 78,
        "927": 106,
        "928": 3,
        "929": 213,
        "930": 155,
        "931": 91,
        "932": 176,
        "933": 77,
        "934": 97,
        "935": 188,
        "936": 163,
        "937": 166,
        "938": 12,
        "939": 180,
        "940": 95,
        "941": 42,
        "942": 136,
        "943": 67,
        "944": 220,
        "945": 171,
        "946": 249,
        "947": 174,
        "948": 240,
        "949": 69,
        "950": 22,
        "951": 102,
        "952": 67,
        "953": 18,
        "954": 238,
        "955": 55,
        "956": 156,
        "957": 61,
        "958": 59,
        "959": 80,
        "960": 72,
        "961": 42,
        "962": 94,
        "963": 61,
        "964": 47,
        "965": 183,
        "966": 202,
        "967": 61,
        "968": 219,
        "969": 193,
        "970": 3,
        "971": 94,
        "972": 4,
        "973": 227,
        "974": 181,
        "975": 128,
        "976": 244,
        "977": 225,
        "978": 109,
        "979": 0,
        "980": 239,
        "981": 249,
        "982": 104,
        "983": 140,
        "984": 245,
        "985": 212,
        "986": 92,
        "987": 255,
        "988": 228,
        "989": 105,
        "990": 85,
        "991": 181,
        "992": 203,
        "993": 16,
        "994": 146,
        "995": 41,
        "996": 72,
        "997": 66,
        "998": 196,
        "999": 57,
        "1000": 155,
        "1001": 97,
        "1002": 63,
        "1003": 254,
        "1004": 118,
        "1005": 167,
        "1006": 170,
        "1007": 42,
        "1008": 119,
        "1009": 53,
        "1010": 138,
        "1011": 106,
        "1012": 11,
        "1013": 63,
        "1014": 45,
        "1015": 98,
        "1016": 212,
        "1017": 77,
        "1018": 144,
        "1019": 8,
        "1020": 86,
        "1021": 212,
        "1022": 118,
        "1023": 216,
        "1024": 33,
        "1025": 3,
        "1026": 92,
        "1027": 192,
        "1028": 154,
        "1029": 165,
        "1030": 12,
        "1031": 9,
        "1032": 81,
        "1033": 77,
        "1034": 57,
        "1035": 52,
        "1036": 231,
        "1037": 98,
        "1038": 27,
        "1039": 104,
        "1040": 60,
        "1041": 201,
        "1042": 100,
        "1043": 143,
        "1044": 114,
        "1045": 119,
        "1046": 48,
        "1047": 10,
        "1048": 175,
        "1049": 50,
        "1050": 30,
        "1051": 7,
        "1052": 169,
        "1053": 31,
        "1054": 1,
        "1055": 160,
        "1056": 25,
        "1057": 80,
        "1058": 150,
        "1059": 161,
        "1060": 100,
        "1061": 135,
        "1062": 201,
        "1063": 19,
        "1064": 160,
        "1065": 217,
        "1066": 83,
        "1067": 73,
        "1068": 201,
        "1069": 101,
        "1070": 104,
        "1071": 1,
        "1072": 210,
        "1073": 30,
        "1074": 133,
        "1075": 21,
        "1076": 153,
        "1077": 118,
        "1078": 83,
        "1079": 62,
        "1080": 107,
        "1081": 187,
        "1082": 181,
        "1083": 242,
        "1084": 209,
        "1085": 224,
        "1086": 110,
        "1087": 108,
        "1088": 97,
        "1089": 182,
        "1090": 121,
        "1091": 6,
        "1092": 19,
        "1093": 47,
        "1094": 227,
        "1095": 125,
        "1096": 222,
        "1097": 151,
        "1098": 43,
        "1099": 247,
        "1100": 185,
        "1101": 230,
        "1102": 88,
        "1103": 195,
        "1104": 243,
        "1105": 167,
        "1106": 3,
        "1107": 111,
        "1108": 255,
        "1109": 76,
        "1110": 76,
        "1111": 101,
        "1112": 146,
        "1113": 7,
        "1114": 213,
        "1115": 68,
        "1116": 222,
        "1117": 115,
        "1118": 135,
        "1119": 223,
        "1120": 205,
        "1121": 105,
        "1122": 135,
        "1123": 23,
        "1124": 214,
        "1125": 29,
        "1126": 206,
        "1127": 7,
        "1128": 189,
        "1129": 185,
        "1130": 225,
        "1131": 207,
        "1132": 65,
        "1133": 37,
        "1134": 196,
        "1135": 145,
        "1136": 1,
        "1137": 154,
        "1138": 238,
        "1139": 124,
        "1140": 67,
        "1141": 32,
        "1142": 7,
        "1143": 75,
        "1144": 83,
        "1145": 243,
        "1146": 232,
        "1147": 59,
        "1148": 51,
        "1149": 66,
        "1150": 191,
        "1151": 154,
        "1152": 196,
        "1153": 215,
        "1154": 192,
        "1155": 166,
        "1156": 174,
        "1157": 22,
        "1158": 168,
        "1159": 79,
        "1160": 220,
        "1161": 225,
        "1162": 15,
        "1163": 232,
        "1164": 3,
        "1165": 175,
        "1166": 253,
        "1167": 205,
        "1168": 103,
        "1169": 202,
        "1170": 139,
        "1171": 28,
        "1172": 229,
        "1173": 60,
        "1174": 209,
        "1175": 200,
        "1176": 144,
        "1177": 151,
        "1178": 164,
        "1179": 64,
        "1180": 7,
        "1181": 8,
        "1182": 230,
        "1183": 135,
        "1184": 93,
        "1185": 243,
        "1186": 137,
        "1187": 27,
        "1188": 243,
        "1189": 39,
        "1190": 222,
        "1191": 105,
        "1192": 246,
        "1193": 201,
        "1194": 2,
        "1195": 143,
        "1196": 27,
        "1197": 198,
        "1198": 63,
        "1199": 75,
        "1200": 124,
        "1201": 11,
        "1202": 119,
        "1203": 106,
        "1204": 103,
        "1205": 46,
        "1206": 4,
        "1207": 83,
        "1208": 81,
        "1209": 185,
        "1210": 130,
        "1211": 80,
        "1212": 24,
        "1213": 116,
        "1214": 48,
        "1215": 172,
        "1216": 57,
        "1217": 42,
        "1218": 212,
        "1219": 47,
        "1220": 11,
        "1221": 32,
        "1222": 177,
        "1223": 132,
        "1224": 226,
        "1225": 228,
        "1226": 18,
        "1227": 91,
        "1228": 145,
        "1229": 127,
        "1230": 102,
        "1231": 14,
        "1232": 134,
        "1233": 191,
        "1234": 248,
        "1235": 249,
        "1236": 200,
        "1237": 183,
        "1238": 166,
        "1239": 145,
        "1240": 59,
        "1241": 239,
        "1242": 207,
        "1243": 8,
        "1244": 127,
        "1245": 82,
        "1246": 204,
        "1247": 244,
        "1248": 82,
        "1249": 115,
        "1250": 4,
        "1251": 12,
        "1252": 234,
        "1253": 74,
        "1254": 128,
        "1255": 34,
        "1256": 18,
        "1257": 18,
        "1258": 65,
        "1259": 32,
        "1260": 30,
        "1261": 68,
        "1262": 8,
        "1263": 237,
        "1264": 73,
        "1265": 197,
        "1266": 196,
        "1267": 92,
        "1268": 247,
        "1269": 27,
        "1270": 78,
        "1271": 149,
        "1272": 193,
        "1273": 104,
        "1274": 29,
        "1275": 253,
        "1276": 27,
        "1277": 52,
        "1278": 9,
        "1279": 61,
        "1280": 98,
        "1281": 57,
        "1282": 47,
        "1283": 171,
        "1284": 5,
        "1285": 192,
        "1286": 228,
        "1287": 170,
        "1288": 232,
        "1289": 146,
        "1290": 5,
        "1291": 81,
        "1292": 95,
        "1293": 80,
        "1294": 177,
        "1295": 172,
        "1296": 89,
        "1297": 107,
        "1298": 10,
        "1299": 1,
        "1300": 178,
        "1301": 4,
        "1302": 187,
        "1303": 24,
        "1304": 1,
        "1305": 138,
        "1306": 76,
        "1307": 40,
        "1308": 132,
        "1309": 64,
        "1310": 251,
        "1311": 32,
        "1312": 214,
        "1313": 67,
        "1314": 109,
        "1315": 221,
        "1316": 151,
        "1317": 244,
        "1318": 159,
        "1319": 65,
        "1320": 136,
        "1321": 88,
        "1322": 127,
        "1323": 127,
        "1324": 155,
        "1325": 220,
        "1326": 11,
        "1327": 211,
        "1328": 12,
        "1329": 18,
        "1330": 106,
        "1331": 69,
        "1332": 84,
        "1333": 46,
        "1334": 231,
        "1335": 156,
        "1336": 143,
        "1337": 209,
        "1338": 37,
        "1339": 76,
        "1340": 37,
        "1341": 120,
        "1342": 190,
        "1343": 52,
        "1344": 55,
        "1345": 195,
        "1346": 218,
        "1347": 185,
        "1348": 144,
        "1349": 183,
        "1350": 120,
        "1351": 110,
        "1352": 6,
        "1353": 132,
        "1354": 8,
        "1355": 102,
        "1356": 50,
        "1357": 33,
        "1358": 76,
        "1359": 19,
        "1360": 131,
        "1361": 222,
        "1362": 20,
        "1363": 85,
        "1364": 227,
        "1365": 28,
        "1366": 202,
        "1367": 115,
        "1368": 200,
        "1369": 49,
        "1370": 214,
        "1371": 112,
        "1372": 207,
        "1373": 87,
        "1374": 158,
        "1375": 19,
        "1376": 71,
        "1377": 169,
        "1378": 231,
        "1379": 114,
        "1380": 129,
        "1381": 64,
        "1382": 107,
        "1383": 167,
        "1384": 60,
        "1385": 93,
        "1386": 63,
        "1387": 165,
        "1388": 69,
        "1389": 74,
        "1390": 39,
        "1391": 172,
        "1392": 43,
        "1393": 66,
        "1394": 223,
        "1395": 96,
        "1396": 200,
        "1397": 119,
        "1398": 243,
        "1399": 131,
        "1400": 22,
        "1401": 61,
        "1402": 203,
        "1403": 170,
        "1404": 177,
        "1405": 154,
        "1406": 132,
        "1407": 109,
        "1408": 227,
        "1409": 84,
        "1410": 102,
        "1411": 82,
        "1412": 132,
        "1413": 222,
        "1414": 5,
        "1415": 40,
        "1416": 191,
        "1417": 135,
        "1418": 253,
        "1419": 188,
        "1420": 197,
        "1421": 16,
        "1422": 13,
        "1423": 7,
        "1424": 170,
        "1425": 95,
        "1426": 173,
        "1427": 226,
        "1428": 168,
        "1429": 215,
        "1430": 7,
        "1431": 255,
        "1432": 41,
        "1433": 221,
        "1434": 220,
        "1435": 142,
        "1436": 47,
        "1437": 87,
        "1438": 56,
        "1439": 251,
        "1440": 243,
        "1441": 188,
        "1442": 184,
        "1443": 105,
        "1444": 208,
        "1445": 9,
        "1446": 87,
        "1447": 27,
        "1448": 51,
        "1449": 250,
        "1450": 199,
        "1451": 54,
        "1452": 26,
        "1453": 21,
        "1454": 208,
        "1455": 208,
        "1456": 240,
        "1457": 176,
        "1458": 82,
        "1459": 41,
        "1460": 129,
        "1461": 140,
        "1462": 234,
        "1463": 123,
        "1464": 35,
        "1465": 185,
        "1466": 56,
        "1467": 72,
        "1468": 203,
        "1469": 206,
        "1470": 15,
        "1471": 227,
        "1472": 253,
        "1473": 107,
        "1474": 158,
        "1475": 101,
        "1476": 57,
        "1477": 29,
        "1478": 78,
        "1479": 233,
        "1480": 16,
        "1481": 193,
        "1482": 109,
        "1483": 177,
        "1484": 9,
        "1485": 253,
        "1486": 193,
        "1487": 179,
        "1488": 204,
        "1489": 63,
        "1490": 149,
        "1491": 178,
        "1492": 33,
        "1493": 95,
        "1494": 20,
        "1495": 109,
        "1496": 203,
        "1497": 169,
        "1498": 240,
        "1499": 201,
        "1500": 241,
        "1501": 82,
        "1502": 255,
        "1503": 174,
        "1504": 94,
        "1505": 137,
        "1506": 17,
        "1507": 99,
        "1508": 144,
        "1509": 45,
        "1510": 107,
        "1511": 183,
        "1512": 71,
        "1513": 161,
        "1514": 233,
        "1515": 111,
        "1516": 254,
        "1517": 145,
        "1518": 42,
        "1519": 101,
        "1520": 64,
        "1521": 95,
        "1522": 175,
        "1523": 37,
        "1524": 195,
        "1525": 21,
        "1526": 185,
        "1527": 175,
        "1528": 185,
        "1529": 41,
        "1530": 53,
        "1531": 177,
        "1532": 250,
        "1533": 169,
        "1534": 107,
        "1535": 187,
        "1536": 56,
        "1537": 47,
        "1538": 49,
        "1539": 245,
        "1540": 201,
        "1541": 164,
        "1542": 88,
        "1543": 210,
        "1544": 66,
        "1545": 214,
        "1546": 189,
        "1547": 235,
        "1548": 91,
        "1549": 237,
        "1550": 221,
        "1551": 225,
        "1552": 18,
        "1553": 18,
        "1554": 211,
        "1555": 44,
        "1556": 223,
        "1557": 148,
        "1558": 80,
        "1559": 239,
        "1560": 42,
        "1561": 154,
        "1562": 175,
        "1563": 230,
        "1564": 32,
        "1565": 224,
        "1566": 35,
        "1567": 201,
        "1568": 253,
        "1569": 116,
        "1570": 205,
        "1571": 138,
        "1572": 228,
        "1573": 29,
        "1574": 46,
        "1575": 15,
        "1576": 159,
        "1577": 115,
        "1578": 86,
        "1579": 232,
        "1580": 222,
        "1581": 142,
        "1582": 0,
        "1583": 78,
        "1584": 88,
        "1585": 135,
        "1586": 130,
        "1587": 253,
        "1588": 243,
        "1589": 186,
        "1590": 14,
        "1591": 167,
        "1592": 199,
        "1593": 92,
        "1594": 143,
        "1595": 105,
        "1596": 157,
        "1597": 175,
        "1598": 74,
        "1599": 1,
        "1600": 11,
        "1601": 117,
        "1602": 56,
        "1603": 15,
        "1604": 37,
        "1605": 221,
        "1606": 19,
        "1607": 140,
        "1608": 252,
        "1609": 101,
        "1610": 164,
        "1611": 18,
        "1612": 20,
        "1613": 230,
        "1614": 33,
        "1615": 201,
        "1616": 44,
        "1617": 168,
        "1618": 106,
        "1619": 191,
        "1620": 249,
        "1621": 165,
        "1622": 213,
        "1623": 199,
        "1624": 245,
        "1625": 44,
        "1626": 190,
        "1627": 155,
        "1628": 196,
        "1629": 35,
        "1630": 54,
        "1631": 109,
        "1632": 184,
        "1633": 169,
        "1634": 178,
        "1635": 125,
        "1636": 28,
        "1637": 139,
        "1638": 198,
        "1639": 245,
        "1640": 65,
        "1641": 84,
        "1642": 169,
        "1643": 24,
        "1644": 125,
        "1645": 218,
        "1646": 197,
        "1647": 22,
        "1648": 135,
        "1649": 20,
        "1650": 47,
        "1651": 212,
        "1652": 138,
        "1653": 198,
        "1654": 150,
        "1655": 231,
        "1656": 174,
        "1657": 143,
        "1658": 51,
        "1659": 76,
        "1660": 163,
        "1661": 175,
        "1662": 222,
        "1663": 43,
        "1664": 232,
        "1665": 211,
        "1666": 151,
        "1667": 134,
        "1668": 75,
        "1669": 190,
        "1670": 181,
        "1671": 161,
        "1672": 216,
        "1673": 179,
        "1674": 193,
        "1675": 181,
        "1676": 47,
        "1677": 141,
        "1678": 45,
        "1679": 87,
        "1680": 254,
        "1681": 212,
        "1682": 90,
        "1683": 190,
        "1684": 232,
        "1685": 70,
        "1686": 40,
        "1687": 246,
        "1688": 41,
        "1689": 81,
        "1690": 84,
        "1691": 8,
        "1692": 49,
        "1693": 116,
        "1694": 221,
        "1695": 180,
        "1696": 56,
        "1697": 200,
        "1698": 95,
        "1699": 24,
        "1700": 117,
        "1701": 249,
        "1702": 1,
        "1703": 210,
        "1704": 188,
        "1705": 181,
        "1706": 242,
        "1707": 7,
        "1708": 93,
        "1709": 113,
        "1710": 63,
        "1711": 91,
        "1712": 121,
        "1713": 248,
        "1714": 94,
        "1715": 172,
        "1716": 128,
        "1717": 161,
        "1718": 249,
        "1719": 39,
        "1720": 25,
        "1721": 168,
        "1722": 133,
        "1723": 125,
        "1724": 125,
        "1725": 56,
        "1726": 132,
        "1727": 42,
        "1728": 112,
        "1729": 113,
        "1730": 160,
        "1731": 2,
        "1732": 68,
        "1733": 26,
        "1734": 158,
        "1735": 128,
        "1736": 248,
        "1737": 143,
        "1738": 48,
        "1739": 224,
        "1740": 180,
        "1741": 64,
        "1742": 48,
        "1743": 120,
        "1744": 94,
        "1745": 70,
        "1746": 66,
        "1747": 243,
        "1748": 252,
        "1749": 174,
        "1750": 176,
        "1751": 79,
        "1752": 75,
        "1753": 48,
        "1754": 244,
        "1755": 167,
        "1756": 115,
        "1757": 90,
        "1758": 54,
        "1759": 144,
        "1760": 21,
        "1761": 170,
        "1762": 138,
        "1763": 177,
        "1764": 162,
        "1765": 77,
        "1766": 121,
        "1767": 213,
        "1768": 22,
        "1769": 249,
        "1770": 170,
        "1771": 219,
        "1772": 64,
        "1773": 104,
        "1774": 103,
        "1775": 182,
        "1776": 126,
        "1777": 6,
        "1778": 83,
        "1779": 131,
        "1780": 166,
        "1781": 84,
        "1782": 98,
        "1783": 82,
        "1784": 94,
        "1785": 167,
        "1786": 149,
        "1787": 247,
        "1788": 66,
        "1789": 92,
        "1790": 123,
        "1791": 128,
        "1792": 134,
        "1793": 102,
        "1794": 30,
        "1795": 110,
        "1796": 128,
        "1797": 68,
        "1798": 83,
        "1799": 250,
        "1800": 157,
        "1801": 170,
        "1802": 40,
        "1803": 47,
        "1804": 110,
        "1805": 18,
        "1806": 191,
        "1807": 25,
        "1808": 16,
        "1809": 243,
        "1810": 43,
        "1811": 116,
        "1812": 7,
        "1813": 212,
        "1814": 135,
        "1815": 240,
        "1816": 101,
        "1817": 254,
        "1818": 99,
        "1819": 36,
        "1820": 152,
        "1821": 28,
        "1822": 106,
        "1823": 74,
        "1824": 198,
        "1825": 0,
        "1826": 136,
        "1827": 62,
        "1828": 85,
        "1829": 253,
        "1830": 40,
        "1831": 251,
        "1832": 165,
        "1833": 173,
        "1834": 29,
        "1835": 102,
        "1836": 26,
        "1837": 178,
        "1838": 128,
        "1839": 41,
        "1840": 192,
        "1841": 12,
        "1842": 75,
        "1843": 203,
        "1844": 25,
        "1845": 112,
        "1846": 26,
        "1847": 122,
        "1848": 201,
        "1849": 199,
        "1850": 20,
        "1851": 157,
        "1852": 118,
        "1853": 1,
        "1854": 16,
        "1855": 183,
        "1856": 83,
        "1857": 46,
        "1858": 61,
        "1859": 241,
        "1860": 255,
        "1861": 113,
        "1862": 35,
        "1863": 33,
        "1864": 169,
        "1865": 99,
        "1866": 38,
        "1867": 74,
        "1868": 176,
        "1869": 243,
        "1870": 157,
        "1871": 0,
        "1872": 182,
        "1873": 34,
        "1874": 162,
        "1875": 80,
        "1876": 255,
        "1877": 28,
        "1878": 169,
        "1879": 22,
        "1880": 109,
        "1881": 208,
        "1882": 129,
        "1883": 73,
        "1884": 99,
        "1885": 214,
        "1886": 24,
        "1887": 24,
        "1888": 44,
        "1889": 195,
        "1890": 104,
        "1891": 192,
        "1892": 32,
        "1893": 196,
        "1894": 3,
        "1895": 191,
        "1896": 10,
        "1897": 254,
        "1898": 187,
        "1899": 140,
        "1900": 135,
        "1901": 191,
        "1902": 184,
        "1903": 5,
        "1904": 179,
        "1905": 31,
        "1906": 98,
        "1907": 205,
        "1908": 69,
        "1909": 60,
        "1910": 2,
        "1911": 16,
        "1912": 154,
        "1913": 171,
        "1914": 167,
        "1915": 41,
        "1916": 150,
        "1917": 247,
        "1918": 167,
        "1919": 86,
        "1920": 211,
        "1921": 39,
        "1922": 220,
        "1923": 3,
        "1924": 116,
        "1925": 140,
        "1926": 22,
        "1927": 253,
        "1928": 21,
        "1929": 219,
        "1930": 49,
        "1931": 62,
        "1932": 183,
        "1933": 67,
        "1934": 195,
        "1935": 146,
        "1936": 182,
        "1937": 40,
        "1938": 188,
        "1939": 252,
        "1940": 18,
        "1941": 127,
        "1942": 194,
        "1943": 173,
        "1944": 219,
        "1945": 79,
        "1946": 101,
        "1947": 186,
        "1948": 84,
        "1949": 255,
        "1950": 92,
        "1951": 35,
        "1952": 83,
        "1953": 29,
        "1954": 120,
        "1955": 183,
        "1956": 115,
        "1957": 133,
        "1958": 23,
        "1959": 92,
        "1960": 41,
        "1961": 151,
        "1962": 96,
        "1963": 150,
        "1964": 206,
        "1965": 225,
        "1966": 64,
        "1967": 210,
        "1968": 33,
        "1969": 162,
        "1970": 129,
        "1971": 204,
        "1972": 0,
        "1973": 154,
        "1974": 120,
        "1975": 159,
        "1976": 199,
        "1977": 5,
        "1978": 242,
        "1979": 49,
        "1980": 85,
        "1981": 82,
        "1982": 140,
        "1983": 60,
        "1984": 69,
        "1985": 74,
        "1986": 179,
        "1987": 153,
        "1988": 230,
        "1989": 195,
        "1990": 219,
        "1991": 68,
        "1992": 192,
        "1993": 240,
        "1994": 63,
        "1995": 170,
        "1996": 189,
        "1997": 47,
        "1998": 37,
        "1999": 216,
        "2000": 79,
        "2001": 226,
        "2002": 147,
        "2003": 223,
        "2004": 130,
        "2005": 53,
        "2006": 208,
        "2007": 111,
        "2008": 8,
        "2009": 143,
        "2010": 21,
        "2011": 64,
        "2012": 77,
        "2013": 20,
        "2014": 3,
        "2015": 218,
        "2016": 26,
        "2017": 122,
        "2018": 191,
        "2019": 51,
        "2020": 28,
        "2021": 109,
        "2022": 67,
        "2023": 201,
        "2024": 38,
        "2025": 185,
        "2026": 76,
        "2027": 72,
        "2028": 65,
        "2029": 19,
        "2030": 137,
        "2031": 211,
        "2032": 195,
        "2033": 191,
        "2034": 17,
        "2035": 45,
        "2036": 54,
        "2037": 202,
        "2038": 116,
        "2039": 87,
        "2040": 133,
        "2041": 187,
        "2042": 50,
        "2043": 36,
        "2044": 183,
        "2045": 61,
        "2046": 174,
        "2047": 234,
        "2048": 23,
        "2049": 214,
        "2050": 81,
        "2051": 212,
        "2052": 35,
        "2053": 190,
        "2054": 108,
        "2055": 25,
        "2056": 158,
        "2057": 213,
        "2058": 10,
        "2059": 89,
        "2060": 62,
        "2061": 151,
        "2062": 80,
        "2063": 26,
        "2064": 70,
        "2065": 150,
        "2066": 183,
        "2067": 48,
        "2068": 1,
        "2069": 105,
        "2070": 198,
        "2071": 181,
        "2072": 65,
        "2073": 117,
        "2074": 208,
        "2075": 90,
        "2076": 117,
        "2077": 134,
        "2078": 134,
        "2079": 25,
        "2080": 25,
        "2081": 151,
        "2082": 22,
        "2083": 93,
        "2084": 115,
        "2085": 37,
        "2086": 145,
        "2087": 139,
        "2088": 225,
        "2089": 172,
        "2090": 171,
        "2091": 148,
        "2092": 252,
        "2093": 174,
        "2094": 233,
        "2095": 118,
        "2096": 199,
        "2097": 73,
        "2098": 131,
        "2099": 3,
        "2100": 127,
        "2101": 109,
        "2102": 219,
        "2103": 25,
        "2104": 2,
        "2105": 143,
        "2106": 212,
        "2107": 5,
        "2108": 165,
        "2109": 217,
        "2110": 89,
        "2111": 81,
        "2112": 5,
        "2113": 191,
        "2114": 190,
        "2115": 15,
        "2116": 109,
        "2117": 186,
        "2118": 194,
        "2119": 224,
        "2120": 66,
        "2121": 187,
        "2122": 171,
        "2123": 167,
        "2124": 236,
        "2125": 215,
        "2126": 232,
        "2127": 22,
        "2128": 253,
        "2129": 174,
        "2130": 48,
        "2131": 55,
        "2132": 20,
        "2133": 43,
        "2134": 22,
        "2135": 156,
        "2136": 8,
        "2137": 234,
        "2138": 226,
        "2139": 24,
        "2140": 93,
        "2141": 16,
        "2142": 248,
        "2143": 134,
        "2144": 125,
        "2145": 187,
        "2146": 118,
        "2147": 91,
        "2148": 71,
        "2149": 205,
        "2150": 138,
        "2151": 213,
        "2152": 156,
        "2153": 36,
        "2154": 209,
        "2155": 255,
        "2156": 20,
        "2157": 40,
        "2158": 142,
        "2159": 47,
        "2160": 230,
        "2161": 20,
        "2162": 252,
        "2163": 244,
        "2164": 102,
        "2165": 106,
        "2166": 67,
        "2167": 152,
        "2168": 25,
        "2169": 116,
        "2170": 200,
        "2171": 97,
        "2172": 159,
        "2173": 58,
        "2174": 20,
        "2175": 85,
        "2176": 222,
        "2177": 7,
        "2178": 149,
        "2179": 98,
        "2180": 13,
        "2181": 7,
        "2182": 228,
        "2183": 106,
        "2184": 135,
        "2185": 158,
        "2186": 145,
        "2187": 204,
        "2188": 188,
        "2189": 72,
        "2190": 220,
        "2191": 108,
        "2192": 98,
        "2193": 120,
        "2194": 13,
        "2195": 25,
        "2196": 234,
        "2197": 117,
        "2198": 248,
        "2199": 130,
        "2200": 26,
        "2201": 245,
        "2202": 126,
        "2203": 147,
        "2204": 63,
        "2205": 174,
        "2206": 151,
        "2207": 123,
        "2208": 81,
        "2209": 184,
        "2210": 163,
        "2211": 203,
        "2212": 82,
        "2213": 141,
        "2214": 66,
        "2215": 183,
        "2216": 104,
        "2217": 209,
        "2218": 180,
        "2219": 71,
        "2220": 28,
        "2221": 94,
        "2222": 97,
        "2223": 56,
        "2224": 58,
        "2225": 196,
        "2226": 23,
        "2227": 135,
        "2228": 91,
        "2229": 22,
        "2230": 220,
        "2231": 88,
        "2232": 58,
        "2233": 121,
        "2234": 80,
        "2235": 115,
        "2236": 240,
        "2237": 69,
        "2238": 155,
        "2239": 118,
        "2240": 95,
        "2241": 213,
        "2242": 189,
        "2243": 71,
        "2244": 175,
        "2245": 51,
        "2246": 218,
        "2247": 160,
        "2248": 17,
        "2249": 188,
        "2250": 193,
        "2251": 190,
        "2252": 0,
        "2253": 46,
        "2254": 233,
        "2255": 45,
        "2256": 146,
        "2257": 42,
        "2258": 182,
        "2259": 245,
        "2260": 69,
        "2261": 140,
        "2262": 89,
        "2263": 91,
        "2264": 71,
        "2265": 193,
        "2266": 222,
        "2267": 0,
        "2268": 60,
        "2269": 249,
        "2270": 125,
        "2271": 72,
        "2272": 78,
        "2273": 205,
        "2274": 65,
        "2275": 174,
        "2276": 196,
        "2277": 136,
        "2278": 20,
        "2279": 162,
        "2280": 148,
        "2281": 79,
        "2282": 163,
        "2283": 218,
        "2284": 208,
        "2285": 56,
        "2286": 199,
        "2287": 200,
        "2288": 240,
        "2289": 161,
        "2290": 182,
        "2291": 121,
        "2292": 83,
        "2293": 10,
        "2294": 5,
        "2295": 228,
        "2296": 11,
        "2297": 69,
        "2298": 36,
        "2299": 117,
        "2300": 92,
        "2301": 123,
        "2302": 21,
        "2303": 76,
        "2304": 122,
        "2305": 141,
        "2306": 114,
        "2307": 219,
        "2308": 3,
        "2309": 114,
        "2310": 154,
        "2311": 223,
        "2312": 162,
        "2313": 248,
        "2314": 117,
        "2315": 112,
        "2316": 24,
        "2317": 208,
        "2318": 107,
        "2319": 86,
        "2320": 150,
        "2321": 197,
        "2322": 206,
        "2323": 137,
        "2324": 194,
        "2325": 56,
        "2326": 208,
        "2327": 16,
        "2328": 164,
        "2329": 103,
        "2330": 185,
        "2331": 53,
        "2332": 230,
        "2333": 130,
        "2334": 154,
        "2335": 116,
        "2336": 100,
        "2337": 75,
        "2338": 1,
        "2339": 45,
        "2340": 190,
        "2341": 216,
        "2342": 154,
        "2343": 184,
        "2344": 138,
        "2345": 237,
        "2346": 13,
        "2347": 222,
        "2348": 72,
        "2349": 79,
        "2350": 69,
        "2351": 46,
        "2352": 120,
        "2353": 201,
        "2354": 252,
        "2355": 8,
        "2356": 197,
        "2357": 159,
        "2358": 172,
        "2359": 109,
        "2360": 183,
        "2361": 130,
        "2362": 175,
        "2363": 132,
        "2364": 206,
        "2365": 226,
        "2366": 65,
        "2367": 195,
        "2368": 243,
        "2369": 168,
        "2370": 144,
        "2371": 250,
        "2372": 118,
        "2373": 149,
        "2374": 249,
        "2375": 203,
        "2376": 188,
        "2377": 0,
        "2378": 252,
        "2379": 166,
        "2380": 116,
        "2381": 71,
        "2382": 145,
        "2383": 237,
        "2384": 110,
        "2385": 207,
        "2386": 232,
        "2387": 252,
        "2388": 247,
        "2389": 192,
        "2390": 180,
        "2391": 49,
        "2392": 162,
        "2393": 162,
        "2394": 144,
        "2395": 168,
        "2396": 16,
        "2397": 79,
        "2398": 113,
        "2399": 194,
        "2400": 78,
        "2401": 29,
        "2402": 162,
        "2403": 75,
        "2404": 108,
        "2405": 185,
        "2406": 212,
        "2407": 78,
        "2408": 47,
        "2409": 239,
        "2410": 58,
        "2411": 155,
        "2412": 197,
        "2413": 81,
        "2414": 48,
        "2415": 110,
        "2416": 241,
        "2417": 91,
        "2418": 176,
        "2419": 54,
        "2420": 165,
        "2421": 173,
        "2422": 181,
        "2423": 226,
        "2424": 162,
        "2425": 183,
        "2426": 234,
        "2427": 20,
        "2428": 103,
        "2429": 155,
        "2430": 116,
        "2431": 21,
        "2432": 218,
        "2433": 71,
        "2434": 133,
        "2435": 207,
        "2436": 23,
        "2437": 20,
        "2438": 85,
        "2439": 8,
        "2440": 32,
        "2441": 79,
        "2442": 135,
        "2443": 138,
        "2444": 57,
        "2445": 252,
        "2446": 187,
        "2447": 86,
        "2448": 110,
        "2449": 65,
        "2450": 235,
        "2451": 112,
        "2452": 138,
        "2453": 146,
        "2454": 89,
        "2455": 219,
        "2456": 100,
        "2457": 58,
        "2458": 106,
        "2459": 84,
        "2460": 142,
        "2461": 74,
        "2462": 143,
        "2463": 0,
        "2464": 33,
        "2465": 177,
        "2466": 9,
        "2467": 233,
        "2468": 52,
        "2469": 34,
        "2470": 109,
        "2471": 34,
        "2472": 120,
        "2473": 130,
        "2474": 171,
        "2475": 211,
        "2476": 47,
        "2477": 118,
        "2478": 138,
        "2479": 192,
        "2480": 85,
        "2481": 9,
        "2482": 67,
        "2483": 225,
        "2484": 152,
        "2485": 11,
        "2486": 199,
        "2487": 77,
        "2488": 66,
        "2489": 55,
        "2490": 36,
        "2491": 102,
        "2492": 229,
        "2493": 21,
        "2494": 182,
        "2495": 79,
        "2496": 57,
        "2497": 170,
        "2498": 198,
        "2499": 134,
        "2500": 176,
        "2501": 211,
        "2502": 31,
        "2503": 204,
        "2504": 82,
        "2505": 235,
        "2506": 136,
        "2507": 244,
        "2508": 174,
        "2509": 223,
        "2510": 178,
        "2511": 84,
        "2512": 29,
        "2513": 83,
        "2514": 252,
        "2515": 47,
        "2516": 74,
        "2517": 214,
        "2518": 44,
        "2519": 136,
        "2520": 173,
        "2521": 197,
        "2522": 196,
        "2523": 254,
        "2524": 143,
        "2525": 50,
        "2526": 61,
        "2527": 178,
        "2528": 40,
        "2529": 149,
        "2530": 181,
        "2531": 78,
        "2532": 242,
        "2533": 86,
        "2534": 114,
        "2535": 250,
        "2536": 83,
        "2537": 173,
        "2538": 116,
        "2539": 189,
        "2540": 247,
        "2541": 246,
        "2542": 191,
        "2543": 203,
        "2544": 79,
        "2545": 194,
        "2546": 150,
        "2547": 240,
        "2548": 224,
        "2549": 215,
        "2550": 208,
        "2551": 23,
        "2552": 186,
        "2553": 32,
        "2554": 255,
        "2555": 247,
        "2556": 198,
        "2557": 137,
        "2558": 17,
        "2559": 27,
        "2560": 41,
        "2561": 95,
        "2562": 43,
        "2563": 192,
        "2564": 28,
        "2565": 179,
        "2566": 171,
        "2567": 120,
        "2568": 149,
        "2569": 121,
        "2570": 3,
        "2571": 49,
        "2572": 30,
        "2573": 37,
        "2574": 15,
        "2575": 147,
        "2576": 244,
        "2577": 182,
        "2578": 79,
        "2579": 201,
        "2580": 166,
        "2581": 88,
        "2582": 82,
        "2583": 8,
        "2584": 150,
        "2585": 216,
        "2586": 28,
        "2587": 158,
        "2588": 172,
        "2589": 176,
        "2590": 173,
        "2591": 44,
        "2592": 110,
        "2593": 120,
        "2594": 117,
        "2595": 80,
        "2596": 116,
        "2597": 189,
        "2598": 9,
        "2599": 44,
        "2600": 114,
        "2601": 180,
        "2602": 194,
        "2603": 29,
        "2604": 250,
        "2605": 62,
        "2606": 240,
        "2607": 238,
        "2608": 235,
        "2609": 147,
        "2610": 163,
        "2611": 42,
        "2612": 113,
        "2613": 17,
        "2614": 252,
        "2615": 104,
        "2616": 38,
        "2617": 159,
        "2618": 115,
        "2619": 197,
        "2620": 167,
        "2621": 90,
        "2622": 197,
        "2623": 56,
        "2624": 198,
        "2625": 44,
        "2626": 55,
        "2627": 162,
        "2628": 187,
        "2629": 129,
        "2630": 221,
        "2631": 205,
        "2632": 194,
        "2633": 130,
        "2634": 193,
        "2635": 206,
        "2636": 202,
        "2637": 223,
        "2638": 67,
        "2639": 221,
        "2640": 177,
        "2641": 115,
        "2642": 82,
        "2643": 86,
        "2644": 183,
        "2645": 37,
        "2646": 23,
        "2647": 249,
        "2648": 131,
        "2649": 35,
        "2650": 7,
        "2651": 247,
        "2652": 233,
        "2653": 38,
        "2654": 44,
        "2655": 55,
        "2656": 28,
        "2657": 136,
        "2658": 68,
        "2659": 84,
        "2660": 85,
        "2661": 157,
        "2662": 57,
        "2663": 170,
        "2664": 30,
        "2665": 232,
        "2666": 43,
        "2667": 213,
        "2668": 43,
        "2669": 182,
        "2670": 164,
        "2671": 68,
        "2672": 2,
        "2673": 164,
        "2674": 202,
        "2675": 191,
        "2676": 215,
        "2677": 35,
        "2678": 108,
        "2679": 22,
        "2680": 46,
        "2681": 75,
        "2682": 231,
        "2683": 156,
        "2684": 133,
        "2685": 10,
        "2686": 76,
        "2687": 113,
        "2688": 77,
        "2689": 151,
        "2690": 138,
        "2691": 65,
        "2692": 177,
        "2693": 151,
        "2694": 90,
        "2695": 176,
        "2696": 216,
        "2697": 161,
        "2698": 14,
        "2699": 200,
        "2700": 155,
        "2701": 208,
        "2702": 4,
        "2703": 163,
        "2704": 4,
        "2705": 227,
        "2706": 196,
        "2707": 137,
        "2708": 98,
        "2709": 9,
        "2710": 71,
        "2711": 91,
        "2712": 122,
        "2713": 62,
        "2714": 209,
        "2715": 8,
        "2716": 190,
        "2717": 159,
        "2718": 31,
        "2719": 55,
        "2720": 86,
        "2721": 213,
        "2722": 66,
        "2723": 182,
        "2724": 125,
        "2725": 83,
        "2726": 229,
        "2727": 47,
        "2728": 150,
        "2729": 232,
        "2730": 65,
        "2731": 176,
        "2732": 49,
        "2733": 205,
        "2734": 137,
        "2735": 157,
        "2736": 87,
        "2737": 229,
        "2738": 91,
        "2739": 248,
        "2740": 179,
        "2741": 97,
        "2742": 60,
        "2743": 241,
        "2744": 8,
        "2745": 108,
        "2746": 197,
        "2747": 29,
        "2748": 42,
        "2749": 209,
        "2750": 101,
        "2751": 57,
        "2752": 86,
        "2753": 14,
        "2754": 167,
        "2755": 21,
        "2756": 6,
        "2757": 242,
        "2758": 37,
        "2759": 14,
        "2760": 99,
        "2761": 218,
        "2762": 27,
        "2763": 6,
        "2764": 75,
        "2765": 126,
        "2766": 135,
        "2767": 148,
        "2768": 115,
        "2769": 92,
        "2770": 93,
        "2771": 184,
        "2772": 179,
        "2773": 109,
        "2774": 83,
        "2775": 175,
        "2776": 3,
        "2777": 112,
        "2778": 149,
        "2779": 15,
        "2780": 86,
        "2781": 205,
        "2782": 156,
        "2783": 32,
        "2784": 70,
        "2785": 181,
        "2786": 217,
        "2787": 39,
        "2788": 79,
        "2789": 231,
        "2790": 63,
        "2791": 131,
        "2792": 244,
        "2793": 41,
        "2794": 130,
        "2795": 11,
        "2796": 210,
        "2797": 149,
        "2798": 69,
        "2799": 184,
        "2800": 95,
        "2801": 139,
        "2802": 42,
        "2803": 56,
        "2804": 99,
        "2805": 7,
        "2806": 20,
        "2807": 108,
        "2808": 153,
        "2809": 38,
        "2810": 78,
        "2811": 248,
        "2812": 58,
        "2813": 63,
        "2814": 206,
        "2815": 79,
        "2816": 31,
        "2817": 108,
        "2818": 188,
        "2819": 166,
        "2820": 89,
        "2821": 242,
        "2822": 216,
        "2823": 84,
        "2824": 157,
        "2825": 3,
        "2826": 41,
        "2827": 91,
        "2828": 11,
        "2829": 204,
        "2830": 35,
        "2831": 226,
        "2832": 216,
        "2833": 137,
        "2834": 145,
        "2835": 194,
        "2836": 43,
        "2837": 234,
        "2838": 231,
        "2839": 24,
        "2840": 15,
        "2841": 78,
        "2842": 245,
        "2843": 4,
        "2844": 102,
        "2845": 48,
        "2846": 133,
        "2847": 92,
        "2848": 125,
        "2849": 31,
        "2850": 136,
        "2851": 123,
        "2852": 125,
        "2853": 94,
        "2854": 155,
        "2855": 235,
        "2856": 236,
        "2857": 191,
        "2858": 220,
        "2859": 74,
        "2860": 105,
        "2861": 184,
        "2862": 10,
        "2863": 52,
        "2864": 134,
        "2865": 220,
        "2866": 66,
        "2867": 252,
        "2868": 105,
        "2869": 76,
        "2870": 203,
        "2871": 111,
        "2872": 230,
        "2873": 245,
        "2874": 190,
        "2875": 23,
        "2876": 171,
        "2877": 84,
        "2878": 117,
        "2879": 175,
        "2880": 96,
        "2881": 180,
        "2882": 190,
        "2883": 199,
        "2884": 247,
        "2885": 41,
        "2886": 71,
        "2887": 246,
        "2888": 11,
        "2889": 21,
        "2890": 135,
        "2891": 251,
        "2892": 214,
        "2893": 122,
        "2894": 206,
        "2895": 142,
        "2896": 213,
        "2897": 48,
        "2898": 145,
        "2899": 113,
        "2900": 39,
        "2901": 123,
        "2902": 101,
        "2903": 33,
        "2904": 226,
        "2905": 50,
        "2906": 230,
        "2907": 63,
        "2908": 165,
        "2909": 148,
        "2910": 122,
        "2911": 31,
        "2912": 219,
        "2913": 200,
        "2914": 106,
        "2915": 147,
        "2916": 237,
        "2917": 41,
        "2918": 210,
        "2919": 129,
        "2920": 5,
        "2921": 22,
        "2922": 76,
        "2923": 81,
        "2924": 148,
        "2925": 147,
        "2926": 17,
        "2927": 23,
        "2928": 161,
        "2929": 55,
        "2930": 150,
        "2931": 182,
        "2932": 20,
        "2933": 187,
        "2934": 239,
        "2935": 96,
        "2936": 106,
        "2937": 209,
        "2938": 215,
        "2939": 68,
        "2940": 19,
        "2941": 223,
        "2942": 28,
        "2943": 163,
        "2944": 73,
        "2945": 24,
        "2946": 3,
        "2947": 101,
        "2948": 179,
        "2949": 87,
        "2950": 0,
        "2951": 115,
        "2952": 93,
        "2953": 195,
        "2954": 250,
        "2955": 204,
        "2956": 230,
        "2957": 190,
        "2958": 84,
        "2959": 90,
        "2960": 185,
        "2961": 198,
        "2962": 155,
        "2963": 240,
        "2964": 141,
        "2965": 130,
        "2966": 196,
        "2967": 1,
        "2968": 213,
        "2969": 182,
        "2970": 121,
        "2971": 224,
        "2972": 66,
        "2973": 46,
        "2974": 106,
        "2975": 246,
        "2976": 76,
        "2977": 181,
        "2978": 254,
        "2979": 212,
        "2980": 26,
        "2981": 148,
        "2982": 134,
        "2983": 31,
        "2984": 51,
        "2985": 154,
        "2986": 10,
        "2987": 78,
        "2988": 224,
        "2989": 72,
        "2990": 118,
        "2991": 175,
        "2992": 38,
        "2993": 105,
        "2994": 125,
        "2995": 247,
        "2996": 79,
        "2997": 143,
        "2998": 252,
        "2999": 225,
        "3000": 23,
        "3001": 208,
        "3002": 241,
        "3003": 72,
        "3004": 212,
        "3005": 145,
        "3006": 95,
        "3007": 53,
        "3008": 50,
        "3009": 99,
        "3010": 179,
        "3011": 34,
        "3012": 215,
        "3013": 142,
        "3014": 42,
        "3015": 248,
        "3016": 153,
        "3017": 230,
        "3018": 218,
        "3019": 79,
        "3020": 94,
        "3021": 205,
        "3022": 59,
        "3023": 215,
        "3024": 50,
        "3025": 114,
        "3026": 180,
        "3027": 253,
        "3028": 251,
        "3029": 188,
        "3030": 21,
        "3031": 5,
        "3032": 180,
        "3033": 79,
        "3034": 62,
        "3035": 215,
        "3036": 70,
        "3037": 24,
        "3038": 7,
        "3039": 2,
        "3040": 213,
        "3041": 14,
        "3042": 247,
        "3043": 58,
        "3044": 249,
        "3045": 67,
        "3046": 6,
        "3047": 52,
        "3048": 226,
        "3049": 216,
        "3050": 26,
        "3051": 58,
        "3052": 195,
        "3053": 225,
        "3054": 179,
        "3055": 69,
        "3056": 199,
        "3057": 159,
        "3058": 114,
        "3059": 185,
        "3060": 218,
        "3061": 33,
        "3062": 161,
        "3063": 166,
        "3064": 171,
        "3065": 42,
        "3066": 110,
        "3067": 137,
        "3068": 82,
        "3069": 78,
        "3070": 61,
        "3071": 170,
        "3072": 38,
        "3073": 127,
        "3074": 132,
        "3075": 69,
        "3076": 106,
        "3077": 39,
        "3078": 146,
        "3079": 208,
        "3080": 203,
        "3081": 158,
        "3082": 173,
        "3083": 159,
        "3084": 48,
        "3085": 228,
        "3086": 95,
        "3087": 63,
        "3088": 71,
        "3089": 138,
        "3090": 204,
        "3091": 147,
        "3092": 190,
        "3093": 167,
        "3094": 46,
        "3095": 231,
        "3096": 91,
        "3097": 29,
        "3098": 254,
        "3099": 131,
        "3100": 96,
        "3101": 218,
        "3102": 175,
        "3103": 240,
        "3104": 46,
        "3105": 75,
        "3106": 196,
        "3107": 0,
        "3108": 204,
        "3109": 99,
        "3110": 212,
        "3111": 23,
        "3112": 214,
        "3113": 79,
        "3114": 250,
        "3115": 96,
        "3116": 46,
        "3117": 230,
        "3118": 120,
        "3119": 165,
        "3120": 79,
        "3121": 208,
        "3122": 38,
        "3123": 254,
        "3124": 44,
        "3125": 204,
        "3126": 208,
        "3127": 173,
        "3128": 214,
        "3129": 189,
        "3130": 178,
        "3131": 94,
        "3132": 162,
        "3133": 64,
        "3134": 218,
        "3135": 190,
        "3136": 145,
        "3137": 81,
        "3138": 187,
        "3139": 154,
        "3140": 192,
        "3141": 4,
        "3142": 116,
        "3143": 124,
        "3144": 18,
        "3145": 21,
        "3146": 148,
        "3147": 251,
        "3148": 205,
        "3149": 199,
        "3150": 23,
        "3151": 183,
        "3152": 11,
        "3153": 9,
        "3154": 83,
        "3155": 112,
        "3156": 150,
        "3157": 147,
        "3158": 236,
        "3159": 4,
        "3160": 73,
        "3161": 184,
        "3162": 233,
        "3163": 149,
        "3164": 46,
        "3165": 4,
        "3166": 240,
        "3167": 64,
        "3168": 72,
        "3169": 208,
        "3170": 146,
        "3171": 251,
        "3172": 18,
        "3173": 31,
        "3174": 216,
        "3175": 200,
        "3176": 234,
        "3177": 109,
        "3178": 18,
        "3179": 192,
        "3180": 122,
        "3181": 36,
        "3182": 146,
        "3183": 167,
        "3184": 140,
        "3185": 144,
        "3186": 176,
        "3187": 126,
        "3188": 120,
        "3189": 202,
        "3190": 232,
        "3191": 170,
        "3192": 32,
        "3193": 175,
        "3194": 230,
        "3195": 242,
        "3196": 13,
        "3197": 69,
        "3198": 1,
        "3199": 173,
        "3200": 49,
        "3201": 154,
        "3202": 204,
        "3203": 103,
        "3204": 70,
        "3205": 177,
        "3206": 203,
        "3207": 202,
        "3208": 32,
        "3209": 238,
        "3210": 177,
        "3211": 70,
        "3212": 98,
        "3213": 139,
        "3214": 73,
        "3215": 58,
        "3216": 86,
        "3217": 108,
        "3218": 161,
        "3219": 60,
        "3220": 66,
        "3221": 139,
        "3222": 211,
        "3223": 245,
        "3224": 238,
        "3225": 126,
        "3226": 209,
        "3227": 230,
        "3228": 61,
        "3229": 91,
        "3230": 56,
        "3231": 223,
        "3232": 79,
        "3233": 107,
        "3234": 79,
        "3235": 83,
        "3236": 38,
        "3237": 31,
        "3238": 188,
        "3239": 65,
        "3240": 252,
        "3241": 172,
        "3242": 225,
        "3243": 37,
        "3244": 181,
        "3245": 54,
        "3246": 207,
        "3247": 179,
        "3248": 178,
        "3249": 105,
        "3250": 124,
        "3251": 153,
        "3252": 210,
        "3253": 48,
        "3254": 217,
        "3255": 4,
        "3256": 179,
        "3257": 164,
        "3258": 152,
        "3259": 64,
        "3260": 22,
        "3261": 112,
        "3262": 139,
        "3263": 5,
        "3264": 72,
        "3265": 224,
        "3266": 220,
        "3267": 181,
        "3268": 167,
        "3269": 166,
        "3270": 227,
        "3271": 10,
        "3272": 250,
        "3273": 15,
        "3274": 17,
        "3275": 117,
        "3276": 88,
        "3277": 197,
        "3278": 17,
        "3279": 183,
        "3280": 39,
        "3281": 28,
        "3282": 207,
        "3283": 204,
        "3284": 14,
        "3285": 125,
        "3286": 140,
        "3287": 144,
        "3288": 62,
        "3289": 232,
        "3290": 73,
        "3291": 132,
        "3292": 49,
        "3293": 35,
        "3294": 157,
        "3295": 147,
        "3296": 191,
        "3297": 234,
        "3298": 10,
        "3299": 253,
        "3300": 225,
        "3301": 203,
        "3302": 1,
        "3303": 178,
        "3304": 252,
        "3305": 109,
        "3306": 5,
        "3307": 230,
        "3308": 231,
        "3309": 36,
        "3310": 27,
        "3311": 73,
        "3312": 176,
        "3313": 136,
        "3314": 211,
        "3315": 73,
        "3316": 157,
        "3317": 118,
        "3318": 193,
        "3319": 113,
        "3320": 154,
        "3321": 92,
        "3322": 66,
        "3323": 220,
        "3324": 204,
        "3325": 3,
        "3326": 22,
        "3327": 72,
        "3328": 21,
        "3329": 70,
        "3330": 55,
        "3331": 66,
        "3332": 57,
        "3333": 108,
        "3334": 183,
        "3335": 73,
        "3336": 247,
        "3337": 173,
        "3338": 52,
        "3339": 243,
        "3340": 181,
        "3341": 6,
        "3342": 229,
        "3343": 44,
        "3344": 25,
        "3345": 185,
        "3346": 243,
        "3347": 126,
        "3348": 142,
        "3349": 145,
        "3350": 191,
        "3351": 214,
        "3352": 73,
        "3353": 250,
        "3354": 1,
        "3355": 224,
        "3356": 46,
        "3357": 115,
        "3358": 125,
        "3359": 217,
        "3360": 210,
        "3361": 3,
        "3362": 34,
        "3363": 60,
        "3364": 209,
        "3365": 142,
        "3366": 222,
        "3367": 149,
        "3368": 33,
        "3369": 187,
        "3370": 244,
        "3371": 6,
        "3372": 209,
        "3373": 28,
        "3374": 170,
        "3375": 229,
        "3376": 12,
        "3377": 236,
        "3378": 7,
        "3379": 224,
        "3380": 72,
        "3381": 84,
        "3382": 112,
        "3383": 46,
        "3384": 119,
        "3385": 194,
        "3386": 192,
        "3387": 37,
        "3388": 50,
        "3389": 121,
        "3390": 89,
        "3391": 18,
        "3392": 120,
        "3393": 81,
        "3394": 183,
        "3395": 156,
        "3396": 189,
        "3397": 4,
        "3398": 218,
        "3399": 43,
        "3400": 125,
        "3401": 29,
        "3402": 107,
        "3403": 7,
        "3404": 223,
        "3405": 186,
        "3406": 164,
        "3407": 219,
        "3408": 31,
        "3409": 134,
        "3410": 253,
        "3411": 189,
        "3412": 15,
        "3413": 100,
        "3414": 251,
        "3415": 4,
        "3416": 126,
        "3417": 242,
        "3418": 23,
        "3419": 234,
        "3420": 126,
        "3421": 127,
        "3422": 249,
        "3423": 176,
        "3424": 88,
        "3425": 85,
        "3426": 175,
        "3427": 134,
        "3428": 13,
        "3429": 62,
        "3430": 85,
        "3431": 72,
        "3432": 187,
        "3433": 213,
        "3434": 199,
        "3435": 8,
        "3436": 238,
        "3437": 155,
        "3438": 67,
        "3439": 49,
        "3440": 41,
        "3441": 197,
        "3442": 15,
        "3443": 233,
        "3444": 177,
        "3445": 142,
        "3446": 209,
        "3447": 22,
        "3448": 203,
        "3449": 139,
        "3450": 250,
        "3451": 149,
        "3452": 220,
        "3453": 30,
        "3454": 37,
        "3455": 141,
        "3456": 143,
        "3457": 56,
        "3458": 17,
        "3459": 71,
        "3460": 89,
        "3461": 27,
        "3462": 57,
        "3463": 195,
        "3464": 106,
        "3465": 9,
        "3466": 158,
        "3467": 44,
        "3468": 138,
        "3469": 175,
        "3470": 108,
        "3471": 89,
        "3472": 210,
        "3473": 6,
        "3474": 176,
        "3475": 162,
        "3476": 79,
        "3477": 197,
        "3478": 69,
        "3479": 231,
        "3480": 121,
        "3481": 244,
        "3482": 248,
        "3483": 101,
        "3484": 233,
        "3485": 243,
        "3486": 210,
        "3487": 220,
        "3488": 30,
        "3489": 30,
        "3490": 23,
        "3491": 121,
        "3492": 241,
        "3493": 63,
        "3494": 85,
        "3495": 217,
        "3496": 70,
        "3497": 158,
        "3498": 48,
        "3499": 195,
        "3500": 44,
        "3501": 37,
        "3502": 94,
        "3503": 11,
        "3504": 152,
        "3505": 93,
        "3506": 182,
        "3507": 163,
        "3508": 59,
        "3509": 127,
        "3510": 82,
        "3511": 5,
        "3512": 175,
        "3513": 19,
        "3514": 248,
        "3515": 236,
        "3516": 6,
        "3517": 192,
        "3518": 168,
        "3519": 112,
        "3520": 173,
        "3521": 58,
        "3522": 127,
        "3523": 73,
        "3524": 25,
        "3525": 39,
        "3526": 54,
        "3527": 101,
        "3528": 51,
        "3529": 55,
        "3530": 155,
        "3531": 175,
        "3532": 163,
        "3533": 187,
        "3534": 30,
        "3535": 119,
        "3536": 60,
        "3537": 223,
        "3538": 94,
        "3539": 57,
        "3540": 85,
        "3541": 202,
        "3542": 58,
        "3543": 29,
        "3544": 5,
        "3545": 10,
        "3546": 219,
        "3547": 120,
        "3548": 138,
        "3549": 135,
        "3550": 204,
        "3551": 64,
        "3552": 51,
        "3553": 179,
        "3554": 139,
        "3555": 173,
        "3556": 234,
        "3557": 172,
        "3558": 44,
        "3559": 91,
        "3560": 47,
        "3561": 127,
        "3562": 138,
        "3563": 221,
        "3564": 118,
        "3565": 237,
        "3566": 118,
        "3567": 221,
        "3568": 83,
        "3569": 109,
        "3570": 130,
        "3571": 56,
        "3572": 184,
        "3573": 172,
        "3574": 197,
        "3575": 83,
        "3576": 183,
        "3577": 141,
        "3578": 64,
        "3579": 30,
        "3580": 44,
        "3581": 246,
        "3582": 244,
        "3583": 66,
        "3584": 44,
        "3585": 71,
        "3586": 62,
        "3587": 86,
        "3588": 121,
        "3589": 83,
        "3590": 29,
        "3591": 9,
        "3592": 64,
        "3593": 158,
        "3594": 114,
        "3595": 93,
        "3596": 6,
        "3597": 67,
        "3598": 90,
        "3599": 181,
        "3600": 201,
        "3601": 198,
        "3602": 189,
        "3603": 122,
        "3604": 134,
        "3605": 233,
        "3606": 138,
        "3607": 37,
        "3608": 65,
        "3609": 233,
        "3610": 243,
        "3611": 131,
        "3612": 24,
        "3613": 245,
        "3614": 182,
        "3615": 254,
        "3616": 85,
        "3617": 235,
        "3618": 150,
        "3619": 192,
        "3620": 39,
        "3621": 138,
        "3622": 42,
        "3623": 78,
        "3624": 240,
        "3625": 104,
        "3626": 101,
        "3627": 167,
        "3628": 150,
        "3629": 180,
        "3630": 215,
        "3631": 122,
        "3632": 95,
        "3633": 106,
        "3634": 190,
        "3635": 151,
        "3636": 77,
        "3637": 198,
        "3638": 40,
        "3639": 114,
        "3640": 121,
        "3641": 41,
        "3642": 245,
        "3643": 215,
        "3644": 151,
        "3645": 80,
        "3646": 96,
        "3647": 170,
        "3648": 254,
        "3649": 203,
        "3650": 203,
        "3651": 122,
        "3652": 196,
        "3653": 3,
        "3654": 37,
        "3655": 54,
        "3656": 1,
        "3657": 99,
        "3658": 68,
        "3659": 210,
        "3660": 120,
        "3661": 92,
        "3662": 51,
        "3663": 204,
        "3664": 57,
        "3665": 173,
        "3666": 78,
        "3667": 124,
        "3668": 90,
        "3669": 72,
        "3670": 253,
        "3671": 12,
        "3672": 195,
        "3673": 139,
        "3674": 55,
        "3675": 63,
        "3676": 49,
        "3677": 189,
        "3678": 246,
        "3679": 83,
        "3680": 34,
        "3681": 139,
        "3682": 214,
        "3683": 103,
        "3684": 210,
        "3685": 93,
        "3686": 61,
        "3687": 5,
        "3688": 61,
        "3689": 227,
        "3690": 40,
        "3691": 29,
        "3692": 249,
        "3693": 60,
        "3694": 11,
        "3695": 204,
        "3696": 240,
        "3697": 85,
        "3698": 64,
        "3699": 7,
        "3700": 37,
        "3701": 107,
        "3702": 48,
        "3703": 117,
        "3704": 153,
        "3705": 171,
        "3706": 225,
        "3707": 81,
        "3708": 91,
        "3709": 83,
        "3710": 12,
        "3711": 124,
        "3712": 73,
        "3713": 240,
        "3714": 125,
        "3715": 150,
        "3716": 155,
        "3717": 99,
        "3718": 167,
        "3719": 170,
        "3720": 16,
        "3721": 167,
        "3722": 156,
        "3723": 117,
        "3724": 197,
        "3725": 7,
        "3726": 136,
        "3727": 168,
        "3728": 65,
        "3729": 76,
        "3730": 24,
        "3731": 164,
        "3732": 152,
        "3733": 169,
        "3734": 141,
        "3735": 187,
        "3736": 6,
        "3737": 34,
        "3738": 123,
        "3739": 188,
        "3740": 46,
        "3741": 75,
        "3742": 58,
        "3743": 200,
        "3744": 158,
        "3745": 140,
        "3746": 189,
        "3747": 41,
        "3748": 215,
        "3749": 47,
        "3750": 177,
        "3751": 200,
        "3752": 176,
        "3753": 194,
        "3754": 145,
        "3755": 0,
        "3756": 75,
        "3757": 82,
        "3758": 246,
        "3759": 50,
        "3760": 48,
        "3761": 28,
        "3762": 4,
        "3763": 186,
        "3764": 116,
        "3765": 165,
        "3766": 182,
        "3767": 217,
        "3768": 240,
        "3769": 138,
        "3770": 172,
        "3771": 151,
        "3772": 100,
        "3773": 73,
        "3774": 129,
        "3775": 190,
        "3776": 166,
        "3777": 147,
        "3778": 173,
        "3779": 202,
        "3780": 61,
        "3781": 62,
        "3782": 10,
        "3783": 196,
        "3784": 192,
        "3785": 205,
        "3786": 23,
        "3787": 55,
        "3788": 251,
        "3789": 237,
        "3790": 233,
        "3791": 174,
        "3792": 16,
        "3793": 96,
        "3794": 156,
        "3795": 174,
        "3796": 18,
        "3797": 209,
        "3798": 78,
        "3799": 209,
        "3800": 117,
        "3801": 148,
        "3802": 91,
        "3803": 187,
        "3804": 238,
        "3805": 211,
        "3806": 179,
        "3807": 191,
        "3808": 60,
        "3809": 122,
        "3810": 163,
        "3811": 238,
        "3812": 131,
        "3813": 215,
        "3814": 28,
        "3815": 176,
        "3816": 98,
        "3817": 103,
        "3818": 207,
        "3819": 103,
        "3820": 106,
        "3821": 59,
        "3822": 90,
        "3823": 41,
        "3824": 90,
        "3825": 103,
        "3826": 133,
        "3827": 246,
        "3828": 242,
        "3829": 74,
        "3830": 24,
        "3831": 153,
        "3832": 236,
        "3833": 81,
        "3834": 73,
        "3835": 151,
        "3836": 41,
        "3837": 120,
        "3838": 38,
        "3839": 223,
        "3840": 128,
        "3841": 57,
        "3842": 85,
        "3843": 30,
        "3844": 242,
        "3845": 84,
        "3846": 23,
        "3847": 6,
        "3848": 178,
        "3849": 248,
        "3850": 29,
        "3851": 94,
        "3852": 95,
        "3853": 242,
        "3854": 48,
        "3855": 7,
        "3856": 239,
        "3857": 80,
        "3858": 3,
        "3859": 240,
        "3860": 236,
        "3861": 166,
        "3862": 128,
        "3863": 89,
        "3864": 231,
        "3865": 127,
        "3866": 206,
        "3867": 150,
        "3868": 207,
        "3869": 0,
        "3870": 30,
        "3871": 88,
        "3872": 202,
        "3873": 192,
        "3874": 87,
        "3875": 121,
        "3876": 245,
        "3877": 158,
        "3878": 117,
        "3879": 195,
        "3880": 162,
        "3881": 50,
        "3882": 195,
        "3883": 145,
        "3884": 70,
        "3885": 182,
        "3886": 218,
        "3887": 207,
        "3888": 230,
        "3889": 229,
        "3890": 34,
        "3891": 202,
        "3892": 180,
        "3893": 132,
        "3894": 139,
        "3895": 175,
        "3896": 78,
        "3897": 195,
        "3898": 100,
        "3899": 199,
        "3900": 171,
        "3901": 89,
        "3902": 214,
        "3903": 213,
        "3904": 146,
        "3905": 154,
        "3906": 247,
        "3907": 153,
        "3908": 69,
        "3909": 26,
        "3910": 104,
        "3911": 51,
        "3912": 75,
        "3913": 158,
        "3914": 182,
        "3915": 102,
        "3916": 170,
        "3917": 22,
        "3918": 168,
        "3919": 75,
        "3920": 116,
        "3921": 192,
        "3922": 31,
        "3923": 181,
        "3924": 142,
        "3925": 193,
        "3926": 8,
        "3927": 108,
        "3928": 88,
        "3929": 227,
        "3930": 150,
        "3931": 244,
        "3932": 163,
        "3933": 138,
        "3934": 233,
        "3935": 35,
        "3936": 171,
        "3937": 57,
        "3938": 135,
        "3939": 251,
        "3940": 192,
        "3941": 193,
        "3942": 63,
        "3943": 93,
        "3944": 243,
        "3945": 41,
        "3946": 141,
        "3947": 82,
        "3948": 131,
        "3949": 81,
        "3950": 234,
        "3951": 240,
        "3952": 7,
        "3953": 19,
        "3954": 203,
        "3955": 72,
        "3956": 197,
        "3957": 209,
        "3958": 200,
        "3959": 255,
        "3960": 135,
        "3961": 102,
        "3962": 221,
        "3963": 67,
        "3964": 198,
        "3965": 6,
        "3966": 89,
        "3967": 219,
        "3968": 168,
        "3969": 213,
        "3970": 242,
        "3971": 53,
        "3972": 244,
        "3973": 185,
        "3974": 183,
        "3975": 216,
        "3976": 130,
        "3977": 207,
        "3978": 228,
        "3979": 16,
        "3980": 124,
        "3981": 125,
        "3982": 151,
        "3983": 136,
        "3984": 156,
        "3985": 179,
        "3986": 131,
        "3987": 135,
        "3988": 157,
        "3989": 176,
        "3990": 1,
        "3991": 237,
        "3992": 219,
        "3993": 147,
        "3994": 160,
        "3995": 52,
        "3996": 106,
        "3997": 245,
        "3998": 86,
        "3999": 74,
        "4000": 203,
        "4001": 88,
        "4002": 28,
        "4003": 118,
        "4004": 177,
        "4005": 155,
        "4006": 1,
        "4007": 14,
        "4008": 141,
        "4009": 139,
        "4010": 209,
        "4011": 131,
        "4012": 9,
        "4013": 65,
        "4014": 22,
        "4015": 217,
        "4016": 54,
        "4017": 167,
        "4018": 141,
        "4019": 128,
        "4020": 120,
        "4021": 0,
        "4022": 42,
        "4023": 188,
        "4024": 153,
        "4025": 223,
        "4026": 90,
        "4027": 159,
        "4028": 252,
        "4029": 4,
        "4030": 255,
        "4031": 219,
        "4032": 158,
        "4033": 43,
        "4034": 251,
        "4035": 109,
        "4036": 106,
        "4037": 83,
        "4038": 94,
        "4039": 170,
        "4040": 204,
        "4041": 60,
        "4042": 51,
        "4043": 125,
        "4044": 84,
        "4045": 196,
        "4046": 47,
        "4047": 247,
        "4048": 116,
        "4049": 236,
        "4050": 54,
        "4051": 145,
        "4052": 173,
        "4053": 208,
        "4054": 167,
        "4055": 136,
        "4056": 40,
        "4057": 24,
        "4058": 148,
        "4059": 30,
        "4060": 195,
        "4061": 60,
        "4062": 243,
        "4063": 220,
        "4064": 11,
        "4065": 174,
        "4066": 23,
        "4067": 168,
        "4068": 146,
        "4069": 239,
        "4070": 120,
        "4071": 75,
        "4072": 144,
        "4073": 50,
        "4074": 151,
        "4075": 139,
        "4076": 48,
        "4077": 45,
        "4078": 106,
        "4079": 95,
        "4080": 49,
        "4081": 226,
        "4082": 64,
        "4083": 181,
        "4084": 152,
        "4085": 110,
        "4086": 115,
        "4087": 198,
        "4088": 241,
        "4089": 118,
        "4090": 235,
        "4091": 88,
        "4092": 223,
        "4093": 251,
        "4094": 6,
        "4095": 76,
        "4096": 56,
        "4097": 143,
        "4098": 158,
        "4099": 151,
        "4100": 74,
        "4101": 161,
        "4102": 5,
        "4103": 131,
        "4104": 41,
        "4105": 219,
        "4106": 48,
        "4107": 184,
        "4108": 195,
        "4109": 48,
        "4110": 56,
        "4111": 39,
        "4112": 185,
        "4113": 52,
        "4114": 37,
        "4115": 229,
        "4116": 8,
        "4117": 160,
        "4118": 62,
        "4119": 237,
        "4120": 179,
        "4121": 117,
        "4122": 167,
        "4123": 147,
        "4124": 22,
        "4125": 130,
        "4126": 244,
        "4127": 115,
        "4128": 210,
        "4129": 1,
        "4130": 102,
        "4131": 119,
        "4132": 53,
        "4133": 122,
        "4134": 100,
        "4135": 69,
        "4136": 139,
        "4137": 108,
        "4138": 230,
        "4139": 214,
        "4140": 8,
        "4141": 210,
        "4142": 111,
        "4143": 189,
        "4144": 131,
        "4145": 242,
        "4146": 16,
        "4147": 67,
        "4148": 199,
        "4149": 23,
        "4150": 18,
        "4151": 225,
        "4152": 7,
        "4153": 195,
        "4154": 92,
        "4155": 91,
        "4156": 190,
        "4157": 78,
        "4158": 109,
        "4159": 92,
        "4160": 124,
        "4161": 177,
        "4162": 252,
        "4163": 95,
        "4164": 139,
        "4165": 126,
        "4166": 43,
        "4167": 103,
        "4168": 117,
        "4169": 194,
        "4170": 238,
        "4171": 16,
        "4172": 194,
        "4173": 89,
        "4174": 5,
        "4175": 69,
        "4176": 149,
        "4177": 79,
        "4178": 133,
        "4179": 153,
        "4180": 159,
        "4181": 45,
        "4182": 177,
        "4183": 137,
        "4184": 60,
        "4185": 169,
        "4186": 192,
        "4187": 6,
        "4188": 218,
        "4189": 194,
        "4190": 224,
        "4191": 242,
        "4192": 113,
        "4193": 130,
        "4194": 77,
        "4195": 74,
        "4196": 10,
        "4197": 254,
        "4198": 223,
        "4199": 185,
        "4200": 30,
        "4201": 125,
        "4202": 176,
        "4203": 254,
        "4204": 150,
        "4205": 158,
        "4206": 193,
        "4207": 122,
        "4208": 120,
        "4209": 38,
        "4210": 181,
        "4211": 255,
        "4212": 16,
        "4213": 143,
        "4214": 254,
        "4215": 25,
        "4216": 231,
        "4217": 52,
        "4218": 150,
        "4219": 21,
        "4220": 70,
        "4221": 193,
        "4222": 139,
        "4223": 103,
        "4224": 20,
        "4225": 102,
        "4226": 255,
        "4227": 24,
        "4228": 152,
        "4229": 130,
        "4230": 91,
        "4231": 204,
        "4232": 6,
        "4233": 172,
        "4234": 182,
        "4235": 239,
        "4236": 34,
        "4237": 65,
        "4238": 215,
        "4239": 87,
        "4240": 152,
        "4241": 211,
        "4242": 64,
        "4243": 73,
        "4244": 222,
        "4245": 79,
        "4246": 120,
        "4247": 161,
        "4248": 97,
        "4249": 212,
        "4250": 20,
        "4251": 11,
        "4252": 143,
        "4253": 102,
        "4254": 57,
        "4255": 35,
        "4256": 132,
        "4257": 95,
        "4258": 26,
        "4259": 127,
        "4260": 250,
        "4261": 40,
        "4262": 227,
        "4263": 8,
        "4264": 45,
        "4265": 64,
        "4266": 202,
        "4267": 231,
        "4268": 157,
        "4269": 226,
        "4270": 38,
        "4271": 101,
        "4272": 213,
        "4273": 125,
        "4274": 171,
        "4275": 197,
        "4276": 18,
        "4277": 153,
        "4278": 166,
        "4279": 67,
        "4280": 184,
        "4281": 167,
        "4282": 6,
        "4283": 83,
        "4284": 226,
        "4285": 88,
        "4286": 42,
        "4287": 72,
        "4288": 90,
        "4289": 209,
        "4290": 43,
        "4291": 225,
        "4292": 182,
        "4293": 101,
        "4294": 102,
        "4295": 171,
        "4296": 113,
        "4297": 253,
        "4298": 181,
        "4299": 206,
        "4300": 237,
        "4301": 178,
        "4302": 19,
        "4303": 230,
        "4304": 245,
        "4305": 221,
        "4306": 248,
        "4307": 3,
        "4308": 192,
        "4309": 57,
        "4310": 87,
        "4311": 92,
        "4312": 121,
        "4313": 89,
        "4314": 50,
        "4315": 193,
        "4316": 43,
        "4317": 170,
        "4318": 116,
        "4319": 135,
        "4320": 44,
        "4321": 70,
        "4322": 19,
        "4323": 13,
        "4324": 90,
        "4325": 77,
        "4326": 191,
        "4327": 233,
        "4328": 178,
        "4329": 193,
        "4330": 126,
        "4331": 173,
        "4332": 61,
        "4333": 254,
        "4334": 172,
        "4335": 244,
        "4336": 74,
        "4337": 136,
        "4338": 194,
        "4339": 130,
        "4340": 107,
        "4341": 95,
        "4342": 25,
        "4343": 119,
        "4344": 221,
        "4345": 241,
        "4346": 77,
        "4347": 249,
        "4348": 90,
        "4349": 143,
        "4350": 158,
        "4351": 241,
        "4352": 36,
        "4353": 59,
        "4354": 211,
        "4355": 224,
        "4356": 22,
        "4357": 20,
        "4358": 231,
        "4359": 45,
        "4360": 181,
        "4361": 162,
        "4362": 97,
        "4363": 175,
        "4364": 196,
        "4365": 19,
        "4366": 250,
        "4367": 156,
        "4368": 46,
        "4369": 61,
        "4370": 55,
        "4371": 37,
        "4372": 0,
        "4373": 225,
        "4374": 122,
        "4375": 50,
        "4376": 88,
        "4377": 92,
        "4378": 255,
        "4379": 57,
        "4380": 108,
        "4381": 119,
        "4382": 178,
        "4383": 202,
        "4384": 7,
        "4385": 204,
        "4386": 62,
        "4387": 184,
        "4388": 88,
        "4389": 25,
        "4390": 90,
        "4391": 67,
        "4392": 233,
        "4393": 139,
        "4394": 4,
        "4395": 127,
        "4396": 59,
        "4397": 196,
        "4398": 209,
        "4399": 255,
        "4400": 146,
        "4401": 207,
        "4402": 103,
        "4403": 217,
        "4404": 195,
        "4405": 162,
        "4406": 9,
        "4407": 59,
        "4408": 126,
        "4409": 108,
        "4410": 204,
        "4411": 12,
        "4412": 130,
        "4413": 229,
        "4414": 219,
        "4415": 135,
        "4416": 71,
        "4417": 159,
        "4418": 7,
        "4419": 10,
        "4420": 45,
        "4421": 137,
        "4422": 235,
        "4423": 99,
        "4424": 92,
        "4425": 121,
        "4426": 119,
        "4427": 34,
        "4428": 196,
        "4429": 246,
        "4430": 201,
        "4431": 41,
        "4432": 36,
        "4433": 128,
        "4434": 132,
        "4435": 178,
        "4436": 235,
        "4437": 188,
        "4438": 150,
        "4439": 113,
        "4440": 208,
        "4441": 30,
        "4442": 151,
        "4443": 136,
        "4444": 172,
        "4445": 96,
        "4446": 129,
        "4447": 103,
        "4448": 238,
        "4449": 111,
        "4450": 196,
        "4451": 42,
        "4452": 92,
        "4453": 196,
        "4454": 153,
        "4455": 226,
        "4456": 59,
        "4457": 115,
        "4458": 119,
        "4459": 200,
        "4460": 217,
        "4461": 96,
        "4462": 32,
        "4463": 198,
        "4464": 127,
        "4465": 164,
        "4466": 45,
        "4467": 61,
        "4468": 151,
        "4469": 40,
        "4470": 159,
        "4471": 105,
        "4472": 148,
        "4473": 185,
        "4474": 172,
        "4475": 43,
        "4476": 162,
        "4477": 136,
        "4478": 165,
        "4479": 36,
        "4480": 129,
        "4481": 119,
        "4482": 246,
        "4483": 220,
        "4484": 41,
        "4485": 191,
        "4486": 87,
        "4487": 139,
        "4488": 7,
        "4489": 107,
        "4490": 57,
        "4491": 132,
        "4492": 60,
        "4493": 7,
        "4494": 116,
        "4495": 41,
        "4496": 103,
        "4497": 122,
        "4498": 111,
        "4499": 210,
        "4500": 72,
        "4501": 145,
        "4502": 148,
        "4503": 73,
        "4504": 73,
        "4505": 199,
        "4506": 80,
        "4507": 178,
        "4508": 5,
        "4509": 179,
        "4510": 225,
        "4511": 72,
        "4512": 117,
        "4513": 117,
        "4514": 38,
        "4515": 138,
        "4516": 105,
        "4517": 41,
        "4518": 139,
        "4519": 145,
        "4520": 247,
        "4521": 114,
        "4522": 155,
        "4523": 147,
        "4524": 5,
        "4525": 48,
        "4526": 225,
        "4527": 128,
        "4528": 117,
        "4529": 96,
        "4530": 213,
        "4531": 46,
        "4532": 169,
        "4533": 39,
        "4534": 113,
        "4535": 209,
        "4536": 54,
        "4537": 175,
        "4538": 85,
        "4539": 227,
        "4540": 57,
        "4541": 134,
        "4542": 175,
        "4543": 107,
        "4544": 223,
        "4545": 2,
        "4546": 46,
        "4547": 121,
        "4548": 177,
        "4549": 253,
        "4550": 103,
        "4551": 124,
        "4552": 70,
        "4553": 169,
        "4554": 123,
        "4555": 181,
        "4556": 89,
        "4557": 84,
        "4558": 128,
        "4559": 247,
        "4560": 105,
        "4561": 226,
        "4562": 227,
        "4563": 99,
        "4564": 117,
        "4565": 181,
        "4566": 93,
        "4567": 251,
        "4568": 185,
        "4569": 184,
        "4570": 173,
        "4571": 61,
        "4572": 241,
        "4573": 204,
        "4574": 123,
        "4575": 112,
        "4576": 211,
        "4577": 172,
        "4578": 248,
        "4579": 95,
        "4580": 161,
        "4581": 51,
        "4582": 115,
        "4583": 159,
        "4584": 146,
        "4585": 147,
        "4586": 25,
        "4587": 218,
        "4588": 11,
        "4589": 200,
        "4590": 95,
        "4591": 235,
        "4592": 239,
        "4593": 205,
        "4594": 216,
        "4595": 4,
        "4596": 214,
        "4597": 145,
        "4598": 78,
        "4599": 127,
        "4600": 92,
        "4601": 18,
        "4602": 77,
        "4603": 93,
        "4604": 207,
        "4605": 111,
        "4606": 162,
        "4607": 34,
        "4608": 126,
        "4609": 190,
        "4610": 78,
        "4611": 16,
        "4612": 157,
        "4613": 84,
        "4614": 215,
        "4615": 178,
        "4616": 211,
        "4617": 191,
        "4618": 209,
        "4619": 174,
        "4620": 5,
        "4621": 137,
        "4622": 168,
        "4623": 235,
        "4624": 219,
        "4625": 144,
        "4626": 194,
        "4627": 238,
        "4628": 252,
        "4629": 242,
        "4630": 112,
        "4631": 198,
        "4632": 42,
        "4633": 215,
        "4634": 102,
        "4635": 188,
        "4636": 64,
        "4637": 26,
        "4638": 6,
        "4639": 236,
        "4640": 197,
        "4641": 1,
        "4642": 246,
        "4643": 16,
        "4644": 202,
        "4645": 44,
        "4646": 29,
        "4647": 251,
        "4648": 9,
        "4649": 92,
        "4650": 89,
        "4651": 158,
        "4652": 248,
        "4653": 161,
        "4654": 126,
        "4655": 26,
        "4656": 34,
        "4657": 69,
        "4658": 143,
        "4659": 149,
        "4660": 178,
        "4661": 204,
        "4662": 72,
        "4663": 216,
        "4664": 188,
        "4665": 143,
        "4666": 25,
        "4667": 199,
        "4668": 199,
        "4669": 186,
        "4670": 86,
        "4671": 162,
        "4672": 218,
        "4673": 230,
        "4674": 90,
        "4675": 160,
        "4676": 140,
        "4677": 166,
        "4678": 203,
        "4679": 74,
        "4680": 117,
        "4681": 29,
        "4682": 60,
        "4683": 238,
        "4684": 220,
        "4685": 254,
        "4686": 197,
        "4687": 174,
        "4688": 97,
        "4689": 171,
        "4690": 96,
        "4691": 191,
        "4692": 47,
        "4693": 255,
        "4694": 189,
        "4695": 9,
        "4696": 174,
        "4697": 220,
        "4698": 86,
        "4699": 69,
        "4700": 213,
        "4701": 135,
        "4702": 144,
        "4703": 201,
        "4704": 212,
        "4705": 90,
        "4706": 176,
        "4707": 17,
        "4708": 192,
        "4709": 240,
        "4710": 249,
        "4711": 178,
        "4712": 167,
        "4713": 141,
        "4714": 187,
        "4715": 175,
        "4716": 180,
        "4717": 14,
        "4718": 214,
        "4719": 110,
        "4720": 173,
        "4721": 75,
        "4722": 16,
        "4723": 4,
        "4724": 132,
        "4725": 43,
        "4726": 177,
        "4727": 185,
        "4728": 140,
        "4729": 46,
        "4730": 250,
        "4731": 180,
        "4732": 202,
        "4733": 210,
        "4734": 81,
        "4735": 121,
        "4736": 109,
        "4737": 121,
        "4738": 150,
        "4739": 243,
        "4740": 16,
        "4741": 79,
        "4742": 124,
        "4743": 248,
        "4744": 73,
        "4745": 81,
        "4746": 200,
        "4747": 218,
        "4748": 155,
        "4749": 8,
        "4750": 88,
        "4751": 209,
        "4752": 58,
        "4753": 93,
        "4754": 216,
        "4755": 96,
        "4756": 29,
        "4757": 189,
        "4758": 74,
        "4759": 219,
        "4760": 11,
        "4761": 73,
        "4762": 181,
        "4763": 170,
        "4764": 53,
        "4765": 113,
        "4766": 248,
        "4767": 25,
        "4768": 243,
        "4769": 166,
        "4770": 92,
        "4771": 169,
        "4772": 65,
        "4773": 209,
        "4774": 206,
        "4775": 124,
        "4776": 6,
        "4777": 132,
        "4778": 242,
        "4779": 25,
        "4780": 127,
        "4781": 164,
        "4782": 37,
        "4783": 96,
        "4784": 162,
        "4785": 199,
        "4786": 51,
        "4787": 197,
        "4788": 92,
        "4789": 228,
        "4790": 2,
        "4791": 32,
        "4792": 71,
        "4793": 59,
        "4794": 171,
        "4795": 43,
        "4796": 205,
        "4797": 142,
        "4798": 99,
        "4799": 233,
        "4800": 124,
        "4801": 135,
        "4802": 122,
        "4803": 119,
        "4804": 107,
        "4805": 226,
        "4806": 80,
        "4807": 27,
        "4808": 121,
        "4809": 234,
        "4810": 148,
        "4811": 179,
        "4812": 17,
        "4813": 112,
        "4814": 0,
        "4815": 228,
        "4816": 25,
        "4817": 155,
        "4818": 70,
        "4819": 207,
        "4820": 167,
        "4821": 187,
        "4822": 156,
        "4823": 25,
        "4824": 183,
        "4825": 88,
        "4826": 44,
        "4827": 62,
        "4828": 131,
        "4829": 111,
        "4830": 3,
        "4831": 26,
        "4832": 184,
        "4833": 109,
        "4834": 175,
        "4835": 82,
        "4836": 225,
        "4837": 236,
        "4838": 213,
        "4839": 246,
        "4840": 179,
        "4841": 175,
        "4842": 214,
        "4843": 120,
        "4844": 43,
        "4845": 238,
        "4846": 124,
        "4847": 3,
        "4848": 230,
        "4849": 231,
        "4850": 146,
        "4851": 138,
        "4852": 156,
        "4853": 172,
        "4854": 2,
        "4855": 88,
        "4856": 4,
        "4857": 255,
        "4858": 204,
        "4859": 83,
        "4860": 221,
        "4861": 98,
        "4862": 16,
        "4863": 110,
        "4864": 185,
        "4865": 230,
        "4866": 99,
        "4867": 176,
        "4868": 127,
        "4869": 221,
        "4870": 122,
        "4871": 144,
        "4872": 247,
        "4873": 138,
        "4874": 252,
        "4875": 51,
        "4876": 251,
        "4877": 107,
        "4878": 85,
        "4879": 208,
        "4880": 70,
        "4881": 18,
        "4882": 172,
        "4883": 249,
        "4884": 45,
        "4885": 20,
        "4886": 139,
        "4887": 1,
        "4888": 191,
        "4889": 143,
        "4890": 7,
        "4891": 171,
        "4892": 229,
        "4893": 244,
        "4894": 41,
        "4895": 178,
        "4896": 170,
        "4897": 111,
        "4898": 178,
        "4899": 58,
        "4900": 28,
        "4901": 158,
        "4902": 105,
        "4903": 16,
        "4904": 126,
        "4905": 17,
        "4906": 122,
        "4907": 181,
        "4908": 68,
        "4909": 246,
        "4910": 90,
        "4911": 145,
        "4912": 107,
        "4913": 8,
        "4914": 139,
        "4915": 131,
        "4916": 237,
        "4917": 165,
        "4918": 178,
        "4919": 9,
        "4920": 113,
        "4921": 109,
        "4922": 182,
        "4923": 11,
        "4924": 71,
        "4925": 11,
        "4926": 113,
        "4927": 105,
        "4928": 254,
        "4929": 223,
        "4930": 231,
        "4931": 102,
        "4932": 89,
        "4933": 81,
        "4934": 71,
        "4935": 176,
        "4936": 81,
        "4937": 179,
        "4938": 74,
        "4939": 233,
        "4940": 52,
        "4941": 168,
        "4942": 78,
        "4943": 186,
        "4944": 142,
        "4945": 48,
        "4946": 60,
        "4947": 123,
        "4948": 19,
        "4949": 134,
        "4950": 237,
        "4951": 68,
        "4952": 98,
        "4953": 31,
        "4954": 236,
        "4955": 75,
        "4956": 23,
        "4957": 165,
        "4958": 29,
        "4959": 248,
        "4960": 189,
        "4961": 187,
        "4962": 34,
        "4963": 150,
        "4964": 25,
        "4965": 172,
        "4966": 253,
        "4967": 156,
        "4968": 42,
        "4969": 115,
        "4970": 89,
        "4971": 11,
        "4972": 77,
        "4973": 168,
        "4974": 16,
        "4975": 182,
        "4976": 108,
        "4977": 27,
        "4978": 90,
        "4979": 27,
        "4980": 234,
        "4981": 19,
        "4982": 163,
        "4983": 227,
        "4984": 131,
        "4985": 209,
        "4986": 100,
        "4987": 251,
        "4988": 170,
        "4989": 118,
        "4990": 162,
        "4991": 230,
        "4992": 43,
        "4993": 128,
        "4994": 138,
        "4995": 129,
        "4996": 233,
        "4997": 170,
        "4998": 180,
        "4999": 78,
        "5000": 153,
        "5001": 170,
        "5002": 85,
        "5003": 139,
        "5004": 58,
        "5005": 75,
        "5006": 36,
        "5007": 113,
        "5008": 78,
        "5009": 206,
        "5010": 154,
        "5011": 157,
        "5012": 218,
        "5013": 133,
        "5014": 180,
        "5015": 189,
        "5016": 13,
        "5017": 103,
        "5018": 220,
        "5019": 236,
        "5020": 245,
        "5021": 8,
        "5022": 151,
        "5023": 231,
        "5024": 204,
        "5025": 6,
        "5026": 19,
        "5027": 139,
        "5028": 137,
        "5029": 227,
        "5030": 72,
        "5031": 216,
        "5032": 97,
        "5033": 176,
        "5034": 4,
        "5035": 193,
        "5036": 27,
        "5037": 150,
        "5038": 194,
        "5039": 128,
        "5040": 4,
        "5041": 13,
        "5042": 188,
        "5043": 82,
        "5044": 47,
        "5045": 78,
        "5046": 32,
        "5047": 183,
        "5048": 6,
        "5049": 51,
        "5050": 164,
        "5051": 5,
        "5052": 151,
        "5053": 172,
        "5054": 167,
        "5055": 240,
        "5056": 144,
        "5057": 90,
        "5058": 58,
        "5059": 88,
        "5060": 91,
        "5061": 77,
        "5062": 87,
        "5063": 126,
        "5064": 248,
        "5065": 158,
        "5066": 153,
        "5067": 85,
        "5068": 118,
        "5069": 151,
        "5070": 35,
        "5071": 221,
        "5072": 185,
        "5073": 199,
        "5074": 145,
        "5075": 181,
        "5076": 249,
        "5077": 38,
        "5078": 223,
        "5079": 238,
        "5080": 245,
        "5081": 250,
        "5082": 175,
        "5083": 18,
        "5084": 138,
        "5085": 221,
        "5086": 147,
        "5087": 147,
        "5088": 11,
        "5089": 97,
        "5090": 81,
        "5091": 177,
        "5092": 71,
        "5093": 6,
        "5094": 94,
        "5095": 155,
        "5096": 225,
        "5097": 228,
        "5098": 105,
        "5099": 67,
        "5100": 195,
        "5101": 153,
        "5102": 81,
        "5103": 8,
        "5104": 6,
        "5105": 82,
        "5106": 200,
        "5107": 97,
        "5108": 158,
        "5109": 247,
        "5110": 244,
        "5111": 214,
        "5112": 32,
        "5113": 154,
        "5114": 64,
        "5115": 171,
        "5116": 160,
        "5117": 165,
        "5118": 199,
        "5119": 214,
        "5120": 25,
        "5121": 143,
        "5122": 130,
        "5123": 229,
        "5124": 35,
        "5125": 163,
        "5126": 45,
        "5127": 64,
        "5128": 249,
        "5129": 154,
        "5130": 237,
        "5131": 21,
        "5132": 82,
        "5133": 123,
        "5134": 243,
        "5135": 101,
        "5136": 216,
        "5137": 170,
        "5138": 83,
        "5139": 213,
        "5140": 62,
        "5141": 222,
        "5142": 1,
        "5143": 234,
        "5144": 209,
        "5145": 60,
        "5146": 188,
        "5147": 173,
        "5148": 117,
        "5149": 93,
        "5150": 227,
        "5151": 14,
        "5152": 113,
        "5153": 177,
        "5154": 128,
        "5155": 199,
        "5156": 192,
        "5157": 100,
        "5158": 109,
        "5159": 168,
        "5160": 238,
        "5161": 72,
        "5162": 76,
        "5163": 218,
        "5164": 211,
        "5165": 199,
        "5166": 237,
        "5167": 194,
        "5168": 113,
        "5169": 190,
        "5170": 199,
        "5171": 32,
        "5172": 140,
        "5173": 35,
        "5174": 9,
        "5175": 18,
        "5176": 245,
        "5177": 204,
        "5178": 243,
        "5179": 123,
        "5180": 133,
        "5181": 79,
        "5182": 151,
        "5183": 128,
        "5184": 233,
        "5185": 209,
        "5186": 203,
        "5187": 129,
        "5188": 32,
        "5189": 239,
        "5190": 78,
        "5191": 194,
        "5192": 211,
        "5193": 56,
        "5194": 155,
        "5195": 102,
        "5196": 225,
        "5197": 101,
        "5198": 133,
        "5199": 193,
        "5200": 201,
        "5201": 136,
        "5202": 100,
        "5203": 232,
        "5204": 47,
        "5205": 11,
        "5206": 118,
        "5207": 7,
        "5208": 198,
        "5209": 226,
        "5210": 177,
        "5211": 0,
        "5212": 232,
        "5213": 15,
        "5214": 241,
        "5215": 186,
        "5216": 244,
        "5217": 94,
        "5218": 98,
        "5219": 167,
        "5220": 187,
        "5221": 29,
        "5222": 210,
        "5223": 179,
        "5224": 244,
        "5225": 241,
        "5226": 205,
        "5227": 117,
        "5228": 147,
        "5229": 251,
        "5230": 209,
        "5231": 200,
        "5232": 16,
        "5233": 67,
        "5234": 154,
        "5235": 82,
        "5236": 26,
        "5237": 122,
        "5238": 153,
        "5239": 46,
        "5240": 231,
        "5241": 223,
        "5242": 210,
        "5243": 229,
        "5244": 76,
        "5245": 23,
        "5246": 220,
        "5247": 145,
        "5248": 104,
        "5249": 100,
        "5250": 192,
        "5251": 100,
        "5252": 224,
        "5253": 141,
        "5254": 53,
        "5255": 220,
        "5256": 247,
        "5257": 152,
        "5258": 125,
        "5259": 9,
        "5260": 199,
        "5261": 101,
        "5262": 239,
        "5263": 162,
        "5264": 71,
        "5265": 41,
        "5266": 252,
        "5267": 63,
        "5268": 61,
        "5269": 141,
        "5270": 245,
        "5271": 172,
        "5272": 155,
        "5273": 134,
        "5274": 32,
        "5275": 180,
        "5276": 151,
        "5277": 33,
        "5278": 142,
        "5279": 113,
        "5280": 59,
        "5281": 62,
        "5282": 219,
        "5283": 111,
        "5284": 138,
        "5285": 109,
        "5286": 177,
        "5287": 87,
        "5288": 154,
        "5289": 211,
        "5290": 201,
        "5291": 214,
        "5292": 14,
        "5293": 143,
        "5294": 214,
        "5295": 234,
        "5296": 102,
        "5297": 155,
        "5298": 197,
        "5299": 82,
        "5300": 87,
        "5301": 128,
        "5302": 204,
        "5303": 199,
        "5304": 87,
        "5305": 99,
        "5306": 191,
        "5307": 135,
        "5308": 42,
        "5309": 216,
        "5310": 233,
        "5311": 50,
        "5312": 88,
        "5313": 198,
        "5314": 240,
        "5315": 245,
        "5316": 56,
        "5317": 12,
        "5318": 11,
        "5319": 193,
        "5320": 3,
        "5321": 143,
        "5322": 71,
        "5323": 42,
        "5324": 222,
        "5325": 94,
        "5326": 165,
        "5327": 185,
        "5328": 105,
        "5329": 78,
        "5330": 187,
        "5331": 12,
        "5332": 249,
        "5333": 219,
        "5334": 26,
        "5335": 252,
        "5336": 31,
        "5337": 204,
        "5338": 172,
        "5339": 173,
        "5340": 128,
        "5341": 104,
        "5342": 58,
        "5343": 179,
        "5344": 48,
        "5345": 95,
        "5346": 182,
        "5347": 131,
        "5348": 105,
        "5349": 203,
        "5350": 147,
        "5351": 40,
        "5352": 75,
        "5353": 161,
        "5354": 130,
        "5355": 210,
        "5356": 116,
        "5357": 133,
        "5358": 79,
        "5359": 113,
        "5360": 184,
        "5361": 45,
        "5362": 217,
        "5363": 81,
        "5364": 233,
        "5365": 73,
        "5366": 149,
        "5367": 69,
        "5368": 47,
        "5369": 126,
        "5370": 154,
        "5371": 98,
        "5372": 231,
        "5373": 234,
        "5374": 38,
        "5375": 148,
        "5376": 184,
        "5377": 114,
        "5378": 244,
        "5379": 65,
        "5380": 74,
        "5381": 17,
        "5382": 246,
        "5383": 178,
        "5384": 175,
        "5385": 59,
        "5386": 139,
        "5387": 8,
        "5388": 127,
        "5389": 207,
        "5390": 5,
        "5391": 223,
        "5392": 92,
        "5393": 85,
        "5394": 121,
        "5395": 121,
        "5396": 37,
        "5397": 202,
        "5398": 102,
        "5399": 211,
        "5400": 222,
        "5401": 122,
        "5402": 7,
        "5403": 220,
        "5404": 21,
        "5405": 111,
        "5406": 67,
        "5407": 89,
        "5408": 200,
        "5409": 128,
        "5410": 55,
        "5411": 186,
        "5412": 130,
        "5413": 106,
        "5414": 75,
        "5415": 55,
        "5416": 10,
        "5417": 212,
        "5418": 53,
        "5419": 200,
        "5420": 151,
        "5421": 73,
        "5422": 251,
        "5423": 240,
        "5424": 40,
        "5425": 170,
        "5426": 231,
        "5427": 178,
        "5428": 172,
        "5429": 148,
        "5430": 91,
        "5431": 224,
        "5432": 93,
        "5433": 235,
        "5434": 99,
        "5435": 227,
        "5436": 221,
        "5437": 25,
        "5438": 174,
        "5439": 195,
        "5440": 189,
        "5441": 215,
        "5442": 74,
        "5443": 198,
        "5444": 63,
        "5445": 61,
        "5446": 16,
        "5447": 104,
        "5448": 44,
        "5449": 113,
        "5450": 146,
        "5451": 215,
        "5452": 103,
        "5453": 113,
        "5454": 181,
        "5455": 131,
        "5456": 240,
        "5457": 44,
        "5458": 248,
        "5459": 79,
        "5460": 187,
        "5461": 74,
        "5462": 47,
        "5463": 137,
        "5464": 97,
        "5465": 248,
        "5466": 229,
        "5467": 91,
        "5468": 180,
        "5469": 89,
        "5470": 251,
        "5471": 30,
        "5472": 93,
        "5473": 60,
        "5474": 210,
        "5475": 158,
        "5476": 182,
        "5477": 108,
        "5478": 145,
        "5479": 239,
        "5480": 204,
        "5481": 171,
        "5482": 53,
        "5483": 120,
        "5484": 85,
        "5485": 18,
        "5486": 24,
        "5487": 48,
        "5488": 243,
        "5489": 85,
        "5490": 170,
        "5491": 182,
        "5492": 180,
        "5493": 241,
        "5494": 20,
        "5495": 159,
        "5496": 61,
        "5497": 136,
        "5498": 57,
        "5499": 104,
        "5500": 44,
        "5501": 217,
        "5502": 214,
        "5503": 115,
        "5504": 213,
        "5505": 94,
        "5506": 27,
        "5507": 133,
        "5508": 213,
        "5509": 41,
        "5510": 126,
        "5511": 183,
        "5512": 27,
        "5513": 31,
        "5514": 197,
        "5515": 33,
        "5516": 209,
        "5517": 151,
        "5518": 101,
        "5519": 218,
        "5520": 102,
        "5521": 105,
        "5522": 225,
        "5523": 4,
        "5524": 31,
        "5525": 205,
        "5526": 249,
        "5527": 218,
        "5528": 208,
        "5529": 133,
        "5530": 21,
        "5531": 68,
        "5532": 18,
        "5533": 180,
        "5534": 236,
        "5535": 112,
        "5536": 182,
        "5537": 47,
        "5538": 231,
        "5539": 98,
        "5540": 77,
        "5541": 178,
        "5542": 214,
        "5543": 57,
        "5544": 40,
        "5545": 97,
        "5546": 32,
        "5547": 76,
        "5548": 125,
        "5549": 169,
        "5550": 161,
        "5551": 5,
        "5552": 131,
        "5553": 156,
        "5554": 208,
        "5555": 55,
        "5556": 166,
        "5557": 156,
        "5558": 144,
        "5559": 67,
        "5560": 4,
        "5561": 52,
        "5562": 98,
        "5563": 234,
        "5564": 135,
        "5565": 148,
        "5566": 180,
        "5567": 159,
        "5568": 107,
        "5569": 176,
        "5570": 226,
        "5571": 114,
        "5572": 254,
        "5573": 136,
        "5574": 159,
        "5575": 60,
        "5576": 86,
        "5577": 227,
        "5578": 20,
        "5579": 74,
        "5580": 115,
        "5581": 219,
        "5582": 30,
        "5583": 14,
        "5584": 169,
        "5585": 191,
        "5586": 190,
        "5587": 160,
        "5588": 200,
        "5589": 84,
        "5590": 73,
        "5591": 121,
        "5592": 236,
        "5593": 11,
        "5594": 233,
        "5595": 38,
        "5596": 47,
        "5597": 51,
        "5598": 108,
        "5599": 200,
        "5600": 70,
        "5601": 78,
        "5602": 58,
        "5603": 193,
        "5604": 222,
        "5605": 182,
        "5606": 53,
        "5607": 153,
        "5608": 251,
        "5609": 87,
        "5610": 182,
        "5611": 137,
        "5612": 60,
        "5613": 107,
        "5614": 71,
        "5615": 250,
        "5616": 87,
        "5617": 201,
        "5618": 122,
        "5619": 145,
        "5620": 116,
        "5621": 36,
        "5622": 160,
        "5623": 65,
        "5624": 95,
        "5625": 80,
        "5626": 118,
        "5627": 254,
        "5628": 75,
        "5629": 60,
        "5630": 83,
        "5631": 110,
        "5632": 204,
        "5633": 245,
        "5634": 239,
        "5635": 21,
        "5636": 75,
        "5637": 239,
        "5638": 141,
        "5639": 16,
        "5640": 255,
        "5641": 19,
        "5642": 156,
        "5643": 177,
        "5644": 155,
        "5645": 77,
        "5646": 247,
        "5647": 72,
        "5648": 89,
        "5649": 57,
        "5650": 9,
        "5651": 46,
        "5652": 54,
        "5653": 229,
        "5654": 29,
        "5655": 151,
        "5656": 157,
        "5657": 121,
        "5658": 188,
        "5659": 229,
        "5660": 104,
        "5661": 178,
        "5662": 140,
        "5663": 112,
        "5664": 202,
        "5665": 45,
        "5666": 45,
        "5667": 126,
        "5668": 186,
        "5669": 220,
        "5670": 4,
        "5671": 126,
        "5672": 161,
        "5673": 101,
        "5674": 216,
        "5675": 160,
        "5676": 30,
        "5677": 137,
        "5678": 119,
        "5679": 248,
        "5680": 67,
        "5681": 29,
        "5682": 63,
        "5683": 96,
        "5684": 189,
        "5685": 58,
        "5686": 2,
        "5687": 208,
        "5688": 248,
        "5689": 213,
        "5690": 29,
        "5691": 48,
        "5692": 214,
        "5693": 91,
        "5694": 148,
        "5695": 250,
        "5696": 92,
        "5697": 46,
        "5698": 212,
        "5699": 67,
        "5700": 118,
        "5701": 42,
        "5702": 94,
        "5703": 91,
        "5704": 38,
        "5705": 112,
        "5706": 108,
        "5707": 122,
        "5708": 59,
        "5709": 230,
        "5710": 99,
        "5711": 236,
        "5712": 170,
        "5713": 161,
        "5714": 12,
        "5715": 183,
        "5716": 75,
        "5717": 58,
        "5718": 255,
        "5719": 192,
        "5720": 212,
        "5721": 43,
        "5722": 96,
        "5723": 7,
        "5724": 85,
        "5725": 113,
        "5726": 60,
        "5727": 74,
        "5728": 118,
        "5729": 132,
        "5730": 114,
        "5731": 171,
        "5732": 1,
        "5733": 86,
        "5734": 177,
        "5735": 166,
        "5736": 78,
        "5737": 27,
        "5738": 230,
        "5739": 105,
        "5740": 194,
        "5741": 94,
        "5742": 207,
        "5743": 154,
        "5744": 38,
        "5745": 199,
        "5746": 241,
        "5747": 52,
        "5748": 132,
        "5749": 158,
        "5750": 129,
        "5751": 159,
        "5752": 136,
        "5753": 3,
        "5754": 63,
        "5755": 135,
        "5756": 220,
        "5757": 250,
        "5758": 109,
        "5759": 85,
        "5760": 94,
        "5761": 156,
        "5762": 23,
        "5763": 42,
        "5764": 57,
        "5765": 235,
        "5766": 16,
        "5767": 206,
        "5768": 145,
        "5769": 13,
        "5770": 185,
        "5771": 202,
        "5772": 159,
        "5773": 89,
        "5774": 73,
        "5775": 164,
        "5776": 39,
        "5777": 184,
        "5778": 195,
        "5779": 158,
        "5780": 170,
        "5781": 70,
        "5782": 240,
        "5783": 214,
        "5784": 8,
        "5785": 49,
        "5786": 39,
        "5787": 149,
        "5788": 239,
        "5789": 145,
        "5790": 202,
        "5791": 75,
        "5792": 76,
        "5793": 35,
        "5794": 154,
        "5795": 225,
        "5796": 183,
        "5797": 201,
        "5798": 131,
        "5799": 177,
        "5800": 169,
        "5801": 201,
        "5802": 161,
        "5803": 235,
        "5804": 8,
        "5805": 224,
        "5806": 215,
        "5807": 137,
        "5808": 59,
        "5809": 216,
        "5810": 61,
        "5811": 223,
        "5812": 119,
        "5813": 1,
        "5814": 223,
        "5815": 233,
        "5816": 38,
        "5817": 200,
        "5818": 29,
        "5819": 0,
        "5820": 214,
        "5821": 10,
        "5822": 29,
        "5823": 191,
        "5824": 153,
        "5825": 80,
        "5826": 128,
        "5827": 83,
        "5828": 139,
        "5829": 116,
        "5830": 102,
        "5831": 127,
        "5832": 165,
        "5833": 207,
        "5834": 137,
        "5835": 103,
        "5836": 193,
        "5837": 125,
        "5838": 147,
        "5839": 241,
        "5840": 104,
        "5841": 33,
        "5842": 175,
        "5843": 140,
        "5844": 205,
        "5845": 202,
        "5846": 83,
        "5847": 236,
        "5848": 246,
        "5849": 79,
        "5850": 192,
        "5851": 54,
        "5852": 20,
        "5853": 156,
        "5854": 35,
        "5855": 2,
        "5856": 202,
        "5857": 236,
        "5858": 134,
        "5859": 82,
        "5860": 249,
        "5861": 15,
        "5862": 188,
        "5863": 27,
        "5864": 165,
        "5865": 192,
        "5866": 185,
        "5867": 161,
        "5868": 9,
        "5869": 93,
        "5870": 57,
        "5871": 178,
        "5872": 84,
        "5873": 213,
        "5874": 199,
        "5875": 219,
        "5876": 99,
        "5877": 103,
        "5878": 225,
        "5879": 125,
        "5880": 232,
        "5881": 12,
        "5882": 98,
        "5883": 70,
        "5884": 244,
        "5885": 137,
        "5886": 114,
        "5887": 109,
        "5888": 163,
        "5889": 228,
        "5890": 69,
        "5891": 82,
        "5892": 132,
        "5893": 143,
        "5894": 104,
        "5895": 137,
        "5896": 137,
        "5897": 236,
        "5898": 200,
        "5899": 172,
        "5900": 176,
        "5901": 27,
        "5902": 246,
        "5903": 133,
        "5904": 70,
        "5905": 194,
        "5906": 244,
        "5907": 41,
        "5908": 17,
        "5909": 107,
        "5910": 81,
        "5911": 199,
        "5912": 215,
        "5913": 142,
        "5914": 23,
        "5915": 98,
        "5916": 158,
        "5917": 144,
        "5918": 190,
        "5919": 94,
        "5920": 210,
        "5921": 214,
        "5922": 7,
        "5923": 134,
        "5924": 222,
        "5925": 105,
        "5926": 200,
        "5927": 191,
        "5928": 80,
        "5929": 172,
        "5930": 89,
        "5931": 143,
        "5932": 16,
        "5933": 230,
        "5934": 232,
        "5935": 75,
        "5936": 184,
        "5937": 68,
        "5938": 199,
        "5939": 22,
        "5940": 140,
        "5941": 180,
        "5942": 2,
        "5943": 159,
        "5944": 102,
        "5945": 144,
        "5946": 103,
        "5947": 7,
        "5948": 180,
        "5949": 172,
        "5950": 195,
        "5951": 233,
        "5952": 169,
        "5953": 246,
        "5954": 58,
        "5955": 90,
        "5956": 17,
        "5957": 170,
        "5958": 181,
        "5959": 126,
        "5960": 4,
        "5961": 164,
        "5962": 218,
        "5963": 4,
        "5964": 254,
        "5965": 105,
        "5966": 132,
        "5967": 32,
        "5968": 177,
        "5969": 250,
        "5970": 0,
        "5971": 220,
        "5972": 72,
        "5973": 13,
        "5974": 164,
        "5975": 3,
        "5976": 157,
        "5977": 175,
        "5978": 54,
        "5979": 203,
        "5980": 5,
        "5981": 89,
        "5982": 37,
        "5983": 135,
        "5984": 85,
        "5985": 151,
        "5986": 85,
        "5987": 105,
        "5988": 66,
        "5989": 47,
        "5990": 1,
        "5991": 51,
        "5992": 63,
        "5993": 218,
        "5994": 144,
        "5995": 65,
        "5996": 60,
        "5997": 204,
        "5998": 185,
        "5999": 228,
        "6000": 86,
        "6001": 188,
        "6002": 165,
        "6003": 73,
        "6004": 255,
        "6005": 110,
        "6006": 52,
        "6007": 70,
        "6008": 127,
        "6009": 84,
        "6010": 111,
        "6011": 56,
        "6012": 228,
        "6013": 63,
        "6014": 18,
        "6015": 148,
        "6016": 15,
        "6017": 73,
        "6018": 170,
        "6019": 101,
        "6020": 135,
        "6021": 99,
        "6022": 102,
        "6023": 32,
        "6024": 31,
        "6025": 77,
        "6026": 189,
        "6027": 201,
        "6028": 183,
        "6029": 11,
        "6030": 137,
        "6031": 18,
        "6032": 121,
        "6033": 214,
        "6034": 159,
        "6035": 203,
        "6036": 167,
        "6037": 172,
        "6038": 113,
        "6039": 223,
        "6040": 113,
        "6041": 252,
        "6042": 19,
        "6043": 91,
        "6044": 73,
        "6045": 151,
        "6046": 31,
        "6047": 253,
        "6048": 180,
        "6049": 71,
        "6050": 64,
        "6051": 207,
        "6052": 65,
        "6053": 40,
        "6054": 242,
        "6055": 170,
        "6056": 242,
        "6057": 157,
        "6058": 128,
        "6059": 242,
        "6060": 193,
        "6061": 63,
        "6062": 130,
        "6063": 23,
        "6064": 100,
        "6065": 202,
        "6066": 203,
        "6067": 72,
        "6068": 8,
        "6069": 249,
        "6070": 93,
        "6071": 18,
        "6072": 69,
        "6073": 233,
        "6074": 102,
        "6075": 189,
        "6076": 176,
        "6077": 254,
        "6078": 19,
        "6079": 223,
        "6080": 25,
        "6081": 84,
        "6082": 248,
        "6083": 189,
        "6084": 198,
        "6085": 249,
        "6086": 190,
        "6087": 17,
        "6088": 255,
        "6089": 61,
        "6090": 190,
        "6091": 169,
        "6092": 129,
        "6093": 11,
        "6094": 133,
        "6095": 195,
        "6096": 98,
        "6097": 229,
        "6098": 129,
        "6099": 99,
        "6100": 159,
        "6101": 84,
        "6102": 80,
        "6103": 70,
        "6104": 224,
        "6105": 28,
        "6106": 112,
        "6107": 11,
        "6108": 87,
        "6109": 109,
        "6110": 109,
        "6111": 0,
        "6112": 163,
        "6113": 188,
        "6114": 201,
        "6115": 171,
        "6116": 190,
        "6117": 83,
        "6118": 40,
        "6119": 43,
        "6120": 122,
        "6121": 149,
        "6122": 77,
        "6123": 70,
        "6124": 209,
        "6125": 27,
        "6126": 88,
        "6127": 39,
        "6128": 227,
        "6129": 231,
        "6130": 184,
        "6131": 64,
        "6132": 18,
        "6133": 253,
        "6134": 74,
        "6135": 172,
        "6136": 244,
        "6137": 116,
        "6138": 251,
        "6139": 143,
        "6140": 179,
        "6141": 38,
        "6142": 112,
        "6143": 174,
        "6144": 115,
        "6145": 126,
        "6146": 210,
        "6147": 234,
        "6148": 143,
        "6149": 32,
        "6150": 209,
        "6151": 74,
        "6152": 20,
        "6153": 99,
        "6154": 198,
        "6155": 199,
        "6156": 183,
        "6157": 29,
        "6158": 98,
        "6159": 67,
        "6160": 155,
        "6161": 206,
        "6162": 99,
        "6163": 140,
        "6164": 49,
        "6165": 151,
        "6166": 73,
        "6167": 16,
        "6168": 186,
        "6169": 81,
        "6170": 224,
        "6171": 146,
        "6172": 207,
        "6173": 172,
        "6174": 89,
        "6175": 16,
        "6176": 102,
        "6177": 211,
        "6178": 244,
        "6179": 49,
        "6180": 216,
        "6181": 85,
        "6182": 2,
        "6183": 105,
        "6184": 15,
        "6185": 230,
        "6186": 197,
        "6187": 38,
        "6188": 123,
        "6189": 73,
        "6190": 45,
        "6191": 178,
        "6192": 251,
        "6193": 140,
        "6194": 144,
        "6195": 244,
        "6196": 96,
        "6197": 76,
        "6198": 252,
        "6199": 11,
        "6200": 119,
        "6201": 142,
        "6202": 156,
        "6203": 253,
        "6204": 134,
        "6205": 191,
        "6206": 72,
        "6207": 44,
        "6208": 150,
        "6209": 233,
        "6210": 177,
        "6211": 6,
        "6212": 149,
        "6213": 229,
        "6214": 48,
        "6215": 128,
        "6216": 206,
        "6217": 1,
        "6218": 25,
        "6219": 35,
        "6220": 99,
        "6221": 12,
        "6222": 146,
        "6223": 28,
        "6224": 218,
        "6225": 251,
        "6226": 4,
        "6227": 245,
        "6228": 170,
        "6229": 134,
        "6230": 153,
        "6231": 166,
        "6232": 18,
        "6233": 212,
        "6234": 5,
        "6235": 251,
        "6236": 160,
        "6237": 99,
        "6238": 52,
        "6239": 206,
        "6240": 81,
        "6241": 140,
        "6242": 228,
        "6243": 119,
        "6244": 146,
        "6245": 227,
        "6246": 81,
        "6247": 191,
        "6248": 95,
        "6249": 91,
        "6250": 239,
        "6251": 15,
        "6252": 11,
        "6253": 2,
        "6254": 3,
        "6255": 198,
        "6256": 251,
        "6257": 166,
        "6258": 239,
        "6259": 87,
        "6260": 69,
        "6261": 232,
        "6262": 162,
        "6263": 107,
        "6264": 60,
        "6265": 205,
        "6266": 206,
        "6267": 92,
        "6268": 212,
        "6269": 102,
        "6270": 33,
        "6271": 240,
        "6272": 138,
        "6273": 20,
        "6274": 166,
        "6275": 196,
        "6276": 60,
        "6277": 192,
        "6278": 120,
        "6279": 3,
        "6280": 226,
        "6281": 223,
        "6282": 95,
        "6283": 36,
        "6284": 40,
        "6285": 253,
        "6286": 162,
        "6287": 175,
        "6288": 61,
        "6289": 159,
        "6290": 221,
        "6291": 191,
        "6292": 164,
        "6293": 247,
        "6294": 92,
        "6295": 58,
        "6296": 87,
        "6297": 36,
        "6298": 192,
        "6299": 61,
        "6300": 56,
        "6301": 23,
        "6302": 212,
        "6303": 45,
        "6304": 242,
        "6305": 89,
        "6306": 81,
        "6307": 9,
        "6308": 200,
        "6309": 171,
        "6310": 248,
        "6311": 202,
        "6312": 98,
        "6313": 187,
        "6314": 120,
        "6315": 122,
        "6316": 105,
        "6317": 228,
        "6318": 2,
        "6319": 133,
        "6320": 94,
        "6321": 156,
        "6322": 212,
        "6323": 163,
        "6324": 143,
        "6325": 193,
        "6326": 35,
        "6327": 206,
        "6328": 1,
        "6329": 81,
        "6330": 223,
        "6331": 21,
        "6332": 99,
        "6333": 249,
        "6334": 30,
        "6335": 97,
        "6336": 79,
        "6337": 224,
        "6338": 141,
        "6339": 68,
        "6340": 191,
        "6341": 132,
        "6342": 251,
        "6343": 242,
        "6344": 98,
        "6345": 12,
        "6346": 183,
        "6347": 145,
        "6348": 111,
        "6349": 8,
        "6350": 127,
        "6351": 135,
        "6352": 89,
        "6353": 125,
        "6354": 64,
        "6355": 198,
        "6356": 45,
        "6357": 175,
        "6358": 113,
        "6359": 195,
        "6360": 72,
        "6361": 16,
        "6362": 4,
        "6363": 234,
        "6364": 126,
        "6365": 128,
        "6366": 166,
        "6367": 135,
        "6368": 51,
        "6369": 20,
        "6370": 3,
        "6371": 43,
        "6372": 82,
        "6373": 116,
        "6374": 93,
        "6375": 114,
        "6376": 254,
        "6377": 88,
        "6378": 61,
        "6379": 252,
        "6380": 194,
        "6381": 142,
        "6382": 28,
        "6383": 37,
        "6384": 121,
        "6385": 138,
        "6386": 148,
        "6387": 146,
        "6388": 164,
        "6389": 229,
        "6390": 75,
        "6391": 87,
        "6392": 126,
        "6393": 205,
        "6394": 127,
        "6395": 34,
        "6396": 65,
        "6397": 136,
        "6398": 175,
        "6399": 78,
        "6400": 182,
        "6401": 54,
        "6402": 110,
        "6403": 223,
        "6404": 26,
        "6405": 199,
        "6406": 115,
        "6407": 126,
        "6408": 85,
        "6409": 86,
        "6410": 23,
        "6411": 229,
        "6412": 209,
        "6413": 112,
        "6414": 83,
        "6415": 135,
        "6416": 16,
        "6417": 24,
        "6418": 198,
        "6419": 27,
        "6420": 136,
        "6421": 116,
        "6422": 139,
        "6423": 104,
        "6424": 133,
        "6425": 96,
        "6426": 68,
        "6427": 177,
        "6428": 231,
        "6429": 175,
        "6430": 125,
        "6431": 30,
        "6432": 26,
        "6433": 119,
        "6434": 83,
        "6435": 20,
        "6436": 13,
        "6437": 251,
        "6438": 19,
        "6439": 203,
        "6440": 181,
        "6441": 157,
        "6442": 155,
        "6443": 57,
        "6444": 132,
        "6445": 102,
        "6446": 30,
        "6447": 152,
        "6448": 159,
        "6449": 188,
        "6450": 209,
        "6451": 181,
        "6452": 14,
        "6453": 67,
        "6454": 221,
        "6455": 74,
        "6456": 201,
        "6457": 53,
        "6458": 99,
        "6459": 254,
        "6460": 210,
        "6461": 188,
        "6462": 168,
        "6463": 56,
        "6464": 176,
        "6465": 86,
        "6466": 168,
        "6467": 54,
        "6468": 64,
        "6469": 178,
        "6470": 244,
        "6471": 119,
        "6472": 36,
        "6473": 142,
        "6474": 134,
        "6475": 200,
        "6476": 84,
        "6477": 44,
        "6478": 85,
        "6479": 249,
        "6480": 116,
        "6481": 205,
        "6482": 17,
        "6483": 132,
        "6484": 35,
        "6485": 116,
        "6486": 54,
        "6487": 155,
        "6488": 97,
        "6489": 224,
        "6490": 239,
        "6491": 17,
        "6492": 111,
        "6493": 152,
        "6494": 186,
        "6495": 4,
        "6496": 144,
        "6497": 236,
        "6498": 127,
        "6499": 77,
        "6500": 28,
        "6501": 253,
        "6502": 232,
        "6503": 198,
        "6504": 127,
        "6505": 164,
        "6506": 5,
        "6507": 80,
        "6508": 57,
        "6509": 32,
        "6510": 120,
        "6511": 111,
        "6512": 231,
        "6513": 219,
        "6514": 128,
        "6515": 252,
        "6516": 35,
        "6517": 21,
        "6518": 139,
        "6519": 9,
        "6520": 213,
        "6521": 252,
        "6522": 229,
        "6523": 159,
        "6524": 137,
        "6525": 70,
        "6526": 240,
        "6527": 148,
        "6528": 252,
        "6529": 220,
        "6530": 212,
        "6531": 68,
        "6532": 222,
        "6533": 99,
        "6534": 251,
        "6535": 151,
        "6536": 187,
        "6537": 87,
        "6538": 63,
        "6539": 174,
        "6540": 241,
        "6541": 85,
        "6542": 227,
        "6543": 55,
        "6544": 118,
        "6545": 46,
        "6546": 169,
        "6547": 15,
        "6548": 68,
        "6549": 169,
        "6550": 63,
        "6551": 132,
        "6552": 94,
        "6553": 218,
        "6554": 37,
        "6555": 29,
        "6556": 254,
        "6557": 108,
        "6558": 112,
        "6559": 159,
        "6560": 80,
        "6561": 205,
        "6562": 6,
        "6563": 137,
        "6564": 43,
        "6565": 254,
        "6566": 141,
        "6567": 248,
        "6568": 169,
        "6569": 246,
        "6570": 88,
        "6571": 101,
        "6572": 209,
        "6573": 80,
        "6574": 200,
        "6575": 38,
        "6576": 24,
        "6577": 7,
        "6578": 72,
        "6579": 157,
        "6580": 5,
        "6581": 236,
        "6582": 205,
        "6583": 235,
        "6584": 53,
        "6585": 255,
        "6586": 31,
        "6587": 190,
        "6588": 18,
        "6589": 244,
        "6590": 227,
        "6591": 12,
        "6592": 198,
        "6593": 107,
        "6594": 109,
        "6595": 47,
        "6596": 137,
        "6597": 7,
        "6598": 119,
        "6599": 158,
        "6600": 230,
        "6601": 195,
        "6602": 70,
        "6603": 120,
        "6604": 123,
        "6605": 77,
        "6606": 240,
        "6607": 230,
        "6608": 66,
        "6609": 57,
        "6610": 27,
        "6611": 233,
        "6612": 2,
        "6613": 161,
        "6614": 32,
        "6615": 145,
        "6616": 178,
        "6617": 35,
        "6618": 17,
        "6619": 17,
        "6620": 129,
        "6621": 188,
        "6622": 89,
        "6623": 56,
        "6624": 193,
        "6625": 130,
        "6626": 255,
        "6627": 206,
        "6628": 36,
        "6629": 210,
        "6630": 65,
        "6631": 53,
        "6632": 130,
        "6633": 63,
        "6634": 38,
        "6635": 123,
        "6636": 203,
        "6637": 42,
        "6638": 180,
        "6639": 142,
        "6640": 238,
        "6641": 225,
        "6642": 144,
        "6643": 71,
        "6644": 220,
        "6645": 118,
        "6646": 68,
        "6647": 80,
        "6648": 1,
        "6649": 113,
        "6650": 194,
        "6651": 208,
        "6652": 212,
        "6653": 81,
        "6654": 232,
        "6655": 38,
        "6656": 131,
        "6657": 16,
        "6658": 254,
        "6659": 11,
        "6660": 55,
        "6661": 243,
        "6662": 62,
        "6663": 219,
        "6664": 53,
        "6665": 238,
        "6666": 104,
        "6667": 193,
        "6668": 20,
        "6669": 61,
        "6670": 66,
        "6671": 9,
        "6672": 134,
        "6673": 100,
        "6674": 151,
        "6675": 58,
        "6676": 131,
        "6677": 199,
        "6678": 93,
        "6679": 30,
        "6680": 68,
        "6681": 17,
        "6682": 125,
        "6683": 111,
        "6684": 221,
        "6685": 239,
        "6686": 28,
        "6687": 243,
        "6688": 139,
        "6689": 31,
        "6690": 234,
        "6691": 219,
        "6692": 119,
        "6693": 145,
        "6694": 145,
        "6695": 180,
        "6696": 42,
        "6697": 208,
        "6698": 116,
        "6699": 76,
        "6700": 170,
        "6701": 237,
        "6702": 189,
        "6703": 223,
        "6704": 149,
        "6705": 210,
        "6706": 77,
        "6707": 194,
        "6708": 6,
        "6709": 153,
        "6710": 127,
        "6711": 128,
        "6712": 73,
        "6713": 106,
        "6714": 114,
        "6715": 113,
        "6716": 52,
        "6717": 24,
        "6718": 234,
        "6719": 107,
        "6720": 41,
        "6721": 246,
        "6722": 234,
        "6723": 85,
        "6724": 209,
        "6725": 197,
        "6726": 43,
        "6727": 244,
        "6728": 121,
        "6729": 80,
        "6730": 176,
        "6731": 136,
        "6732": 16,
        "6733": 90,
        "6734": 135,
        "6735": 7,
        "6736": 75,
        "6737": 25,
        "6738": 31,
        "6739": 143,
        "6740": 67,
        "6741": 61,
        "6742": 119,
        "6743": 59,
        "6744": 147,
        "6745": 235,
        "6746": 4,
        "6747": 254,
        "6748": 117,
        "6749": 175,
        "6750": 146,
        "6751": 93,
        "6752": 30,
        "6753": 143,
        "6754": 158,
        "6755": 200,
        "6756": 206,
        "6757": 187,
        "6758": 105,
        "6759": 134,
        "6760": 35,
        "6761": 110,
        "6762": 89,
        "6763": 252,
        "6764": 173,
        "6765": 38,
        "6766": 187,
        "6767": 103,
        "6768": 173,
        "6769": 18,
        "6770": 188,
        "6771": 19,
        "6772": 192,
        "6773": 117,
        "6774": 72,
        "6775": 26,
        "6776": 128,
        "6777": 210,
        "6778": 89,
        "6779": 184,
        "6780": 67,
        "6781": 84,
        "6782": 147,
        "6783": 227,
        "6784": 132,
        "6785": 213,
        "6786": 13,
        "6787": 253,
        "6788": 176,
        "6789": 1,
        "6790": 196,
        "6791": 89,
        "6792": 20,
        "6793": 252,
        "6794": 42,
        "6795": 164,
        "6796": 243,
        "6797": 166,
        "6798": 87,
        "6799": 213,
        "6800": 191,
        "6801": 21,
        "6802": 129,
        "6803": 97,
        "6804": 35,
        "6805": 168,
        "6806": 246,
        "6807": 13,
        "6808": 207,
        "6809": 16,
        "6810": 125,
        "6811": 48,
        "6812": 234,
        "6813": 204,
        "6814": 244,
        "6815": 148,
        "6816": 91,
        "6817": 153,
        "6818": 83,
        "6819": 138,
        "6820": 27,
        "6821": 243,
        "6822": 2,
        "6823": 106,
        "6824": 139,
        "6825": 210,
        "6826": 115,
        "6827": 4,
        "6828": 88,
        "6829": 11,
        "6830": 220,
        "6831": 35,
        "6832": 0,
        "6833": 39,
        "6834": 115,
        "6835": 32,
        "6836": 149,
        "6837": 159,
        "6838": 254,
        "6839": 124,
        "6840": 105,
        "6841": 113,
        "6842": 160,
        "6843": 47,
        "6844": 70,
        "6845": 209,
        "6846": 134,
        "6847": 69,
        "6848": 214,
        "6849": 65,
        "6850": 107,
        "6851": 230,
        "6852": 27,
        "6853": 44,
        "6854": 75,
        "6855": 7,
        "6856": 189,
        "6857": 81,
        "6858": 134,
        "6859": 144,
        "6860": 96,
        "6861": 146,
        "6862": 215,
        "6863": 33,
        "6864": 183,
        "6865": 192,
        "6866": 212,
        "6867": 179,
        "6868": 78,
        "6869": 81,
        "6870": 64,
        "6871": 211,
        "6872": 253,
        "6873": 46,
        "6874": 240,
        "6875": 53,
        "6876": 76,
        "6877": 53,
        "6878": 31,
        "6879": 184,
        "6880": 169,
        "6881": 42,
        "6882": 75,
        "6883": 213,
        "6884": 16,
        "6885": 185,
        "6886": 112,
        "6887": 180,
        "6888": 67,
        "6889": 71,
        "6890": 217,
        "6891": 98,
        "6892": 211,
        "6893": 95,
        "6894": 15,
        "6895": 148,
        "6896": 195,
        "6897": 131,
        "6898": 119,
        "6899": 120,
        "6900": 83,
        "6901": 8,
        "6902": 43,
        "6903": 48,
        "6904": 51,
        "6905": 239,
        "6906": 225,
        "6907": 176,
        "6908": 207,
        "6909": 9,
        "6910": 132,
        "6911": 126,
        "6912": 246,
        "6913": 41,
        "6914": 59,
        "6915": 253,
        "6916": 229,
        "6917": 40,
        "6918": 64,
        "6919": 69,
        "6920": 181,
        "6921": 236,
        "6922": 100,
        "6923": 79,
        "6924": 82,
        "6925": 214,
        "6926": 250,
        "6927": 200,
        "6928": 194,
        "6929": 178,
        "6930": 136,
        "6931": 167,
        "6932": 177,
        "6933": 191,
        "6934": 248,
        "6935": 58,
        "6936": 97,
        "6937": 100,
        "6938": 138,
        "6939": 120,
        "6940": 177,
        "6941": 172,
        "6942": 113,
        "6943": 166,
        "6944": 132,
        "6945": 251,
        "6946": 154,
        "6947": 230,
        "6948": 205,
        "6949": 16,
        "6950": 181,
        "6951": 250,
        "6952": 4,
        "6953": 22,
        "6954": 56,
        "6955": 203,
        "6956": 183,
        "6957": 204,
        "6958": 71,
        "6959": 146,
        "6960": 90,
        "6961": 212,
        "6962": 109,
        "6963": 78,
        "6964": 73,
        "6965": 237,
        "6966": 135,
        "6967": 0,
        "6968": 16,
        "6969": 116,
        "6970": 19,
        "6971": 14,
        "6972": 92,
        "6973": 36,
        "6974": 171,
        "6975": 243,
        "6976": 10,
        "6977": 99,
        "6978": 123,
        "6979": 177,
        "6980": 186,
        "6981": 83,
        "6982": 255,
        "6983": 234,
        "6984": 85,
        "6985": 74,
        "6986": 39,
        "6987": 97,
        "6988": 40,
        "6989": 1,
        "6990": 5,
        "6991": 255,
        "6992": 28,
        "6993": 228,
        "6994": 200,
        "6995": 65,
        "6996": 34,
        "6997": 1,
        "6998": 123,
        "6999": 105,
        "7000": 12,
        "7001": 94,
        "7002": 232,
        "7003": 110,
        "7004": 16,
        "7005": 21,
        "7006": 82,
        "7007": 220,
        "7008": 252,
        "7009": 164,
        "7010": 221,
        "7011": 241,
        "7012": 87,
        "7013": 186,
        "7014": 43,
        "7015": 76,
        "7016": 218,
        "7017": 248,
        "7018": 187,
        "7019": 225,
        "7020": 34,
        "7021": 196,
        "7022": 46,
        "7023": 52,
        "7024": 211,
        "7025": 204,
        "7026": 95,
        "7027": 104,
        "7028": 172,
        "7029": 162,
        "7030": 252,
        "7031": 148,
        "7032": 5,
        "7033": 225,
        "7034": 195,
        "7035": 35,
        "7036": 174,
        "7037": 71,
        "7038": 64,
        "7039": 82,
        "7040": 128,
        "7041": 119,
        "7042": 204,
        "7043": 215,
        "7044": 232,
        "7045": 173,
        "7046": 186,
        "7047": 194,
        "7048": 48,
        "7049": 83,
        "7050": 181,
        "7051": 181,
        "7052": 91,
        "7053": 231,
        "7054": 84,
        "7055": 221,
        "7056": 22,
        "7057": 31,
        "7058": 202,
        "7059": 191,
        "7060": 137,
        "7061": 194,
        "7062": 223,
        "7063": 25,
        "7064": 180,
        "7065": 77,
        "7066": 123,
        "7067": 215,
        "7068": 43,
        "7069": 237,
        "7070": 194,
        "7071": 182,
        "7072": 228,
        "7073": 66,
        "7074": 166,
        "7075": 86,
        "7076": 134,
        "7077": 108,
        "7078": 16,
        "7079": 78,
        "7080": 92,
        "7081": 19,
        "7082": 88,
        "7083": 113,
        "7084": 173,
        "7085": 42,
        "7086": 101,
        "7087": 152,
        "7088": 55,
        "7089": 154,
        "7090": 37,
        "7091": 192,
        "7092": 49,
        "7093": 154,
        "7094": 202,
        "7095": 236,
        "7096": 85,
        "7097": 71,
        "7098": 65,
        "7099": 16,
        "7100": 224,
        "7101": 54,
        "7102": 182,
        "7103": 241,
        "7104": 98,
        "7105": 193,
        "7106": 65,
        "7107": 121,
        "7108": 167,
        "7109": 139,
        "7110": 193,
        "7111": 220,
        "7112": 71,
        "7113": 224,
        "7114": 55,
        "7115": 146,
        "7116": 210,
        "7117": 39,
        "7118": 183,
        "7119": 127,
        "7120": 220,
        "7121": 2,
        "7122": 150,
        "7123": 0,
        "7124": 159,
        "7125": 43,
        "7126": 157,
        "7127": 209,
        "7128": 204,
        "7129": 34,
        "7130": 129,
        "7131": 3,
        "7132": 73,
        "7133": 218,
        "7134": 194,
        "7135": 123,
        "7136": 102,
        "7137": 25,
        "7138": 108,
        "7139": 75,
        "7140": 139,
        "7141": 242,
        "7142": 213,
        "7143": 186,
        "7144": 168,
        "7145": 143,
        "7146": 199,
        "7147": 85,
        "7148": 93,
        "7149": 218,
        "7150": 41,
        "7151": 202,
        "7152": 252,
        "7153": 47,
        "7154": 134,
        "7155": 209,
        "7156": 163,
        "7157": 255,
        "7158": 205,
        "7159": 156,
        "7160": 108,
        "7161": 108,
        "7162": 178,
        "7163": 185,
        "7164": 45,
        "7165": 96,
        "7166": 139,
        "7167": 231,
        "7168": 84,
        "7169": 233,
        "7170": 131,
        "7171": 186,
        "7172": 224,
        "7173": 226,
        "7174": 111,
        "7175": 86,
        "7176": 227,
        "7177": 14,
        "7178": 109,
        "7179": 173,
        "7180": 75,
        "7181": 111,
        "7182": 109,
        "7183": 134,
        "7184": 40,
        "7185": 104,
        "7186": 102,
        "7187": 139,
        "7188": 38,
        "7189": 251,
        "7190": 83,
        "7191": 229,
        "7192": 179,
        "7193": 2,
        "7194": 122,
        "7195": 124,
        "7196": 85,
        "7197": 18,
        "7198": 142,
        "7199": 21,
        "7200": 110,
        "7201": 135,
        "7202": 202,
        "7203": 221,
        "7204": 97,
        "7205": 99,
        "7206": 225,
        "7207": 21,
        "7208": 62,
        "7209": 253,
        "7210": 135,
        "7211": 155,
        "7212": 114,
        "7213": 201,
        "7214": 69,
        "7215": 71,
        "7216": 95,
        "7217": 243,
        "7218": 119,
        "7219": 34,
        "7220": 59,
        "7221": 120,
        "7222": 20,
        "7223": 130,
        "7224": 18,
        "7225": 71,
        "7226": 102,
        "7227": 71,
        "7228": 127,
        "7229": 155,
        "7230": 147,
        "7231": 113,
        "7232": 141,
        "7233": 215,
        "7234": 163,
        "7235": 226,
        "7236": 104,
        "7237": 91,
        "7238": 69,
        "7239": 88,
        "7240": 76,
        "7241": 73,
        "7242": 202,
        "7243": 231,
        "7244": 159,
        "7245": 252,
        "7246": 195,
        "7247": 234,
        "7248": 1,
        "7249": 122,
        "7250": 37,
        "7251": 48,
        "7252": 166,
        "7253": 217,
        "7254": 60,
        "7255": 8,
        "7256": 19,
        "7257": 102,
        "7258": 136,
        "7259": 108,
        "7260": 53,
        "7261": 104,
        "7262": 119,
        "7263": 216,
        "7264": 24,
        "7265": 68,
        "7266": 7,
        "7267": 33,
        "7268": 53,
        "7269": 84,
        "7270": 3,
        "7271": 151,
        "7272": 31,
        "7273": 254,
        "7274": 82,
        "7275": 147,
        "7276": 123,
        "7277": 145,
        "7278": 17,
        "7279": 166,
        "7280": 182,
        "7281": 230,
        "7282": 237,
        "7283": 66,
        "7284": 237,
        "7285": 113,
        "7286": 203,
        "7287": 120,
        "7288": 201,
        "7289": 47,
        "7290": 213,
        "7291": 239,
        "7292": 223,
        "7293": 163,
        "7294": 107,
        "7295": 128,
        "7296": 152,
        "7297": 53,
        "7298": 68,
        "7299": 209,
        "7300": 174,
        "7301": 60,
        "7302": 131,
        "7303": 141,
        "7304": 198,
        "7305": 252,
        "7306": 134,
        "7307": 31,
        "7308": 223,
        "7309": 168,
        "7310": 141,
        "7311": 204,
        "7312": 142,
        "7313": 180,
        "7314": 193,
        "7315": 223,
        "7316": 51,
        "7317": 235,
        "7318": 130,
        "7319": 167,
        "7320": 223,
        "7321": 201,
        "7322": 42,
        "7323": 232,
        "7324": 67,
        "7325": 76,
        "7326": 80,
        "7327": 154,
        "7328": 213,
        "7329": 237,
        "7330": 98,
        "7331": 223,
        "7332": 9,
        "7333": 71,
        "7334": 121,
        "7335": 82,
        "7336": 150,
        "7337": 119,
        "7338": 52,
        "7339": 112,
        "7340": 47,
        "7341": 26,
        "7342": 32,
        "7343": 199,
        "7344": 76,
        "7345": 162,
        "7346": 78,
        "7347": 169,
        "7348": 169,
        "7349": 227,
        "7350": 249,
        "7351": 86,
        "7352": 49,
        "7353": 173,
        "7354": 76,
        "7355": 165,
        "7356": 216,
        "7357": 28,
        "7358": 70,
        "7359": 242,
        "7360": 14,
        "7361": 153,
        "7362": 162,
        "7363": 22,
        "7364": 141,
        "7365": 29,
        "7366": 133,
        "7367": 198,
        "7368": 3,
        "7369": 112,
        "7370": 91,
        "7371": 249,
        "7372": 51,
        "7373": 171,
        "7374": 242,
        "7375": 217,
        "7376": 193,
        "7377": 220,
        "7378": 253,
        "7379": 114,
        "7380": 225,
        "7381": 93,
        "7382": 99,
        "7383": 145,
        "7384": 6,
        "7385": 5,
        "7386": 76,
        "7387": 113,
        "7388": 48,
        "7389": 196,
        "7390": 136,
        "7391": 178,
        "7392": 178,
        "7393": 136,
        "7394": 109,
        "7395": 150,
        "7396": 67,
        "7397": 39,
        "7398": 178,
        "7399": 160,
        "7400": 253,
        "7401": 74,
        "7402": 206,
        "7403": 122,
        "7404": 125,
        "7405": 166,
        "7406": 162,
        "7407": 41,
        "7408": 191,
        "7409": 231,
        "7410": 7,
        "7411": 51,
        "7412": 129,
        "7413": 35,
        "7414": 167,
        "7415": 16,
        "7416": 131,
        "7417": 4,
        "7418": 130,
        "7419": 104,
        "7420": 16,
        "7421": 83,
        "7422": 5,
        "7423": 41,
        "7424": 95,
        "7425": 132,
        "7426": 166,
        "7427": 94,
        "7428": 29,
        "7429": 225,
        "7430": 119,
        "7431": 79,
        "7432": 196,
        "7433": 109,
        "7434": 183,
        "7435": 124,
        "7436": 196,
        "7437": 65,
        "7438": 220,
        "7439": 133,
        "7440": 162,
        "7441": 128,
        "7442": 254,
        "7443": 168,
        "7444": 59,
        "7445": 73,
        "7446": 248,
        "7447": 47,
        "7448": 64,
        "7449": 34,
        "7450": 70,
        "7451": 40,
        "7452": 183,
        "7453": 234,
        "7454": 119,
        "7455": 186,
        "7456": 201,
        "7457": 126,
        "7458": 185,
        "7459": 2,
        "7460": 169,
        "7461": 39,
        "7462": 19,
        "7463": 173,
        "7464": 203,
        "7465": 75,
        "7466": 206,
        "7467": 83,
        "7468": 18,
        "7469": 139,
        "7470": 203,
        "7471": 137,
        "7472": 176,
        "7473": 216,
        "7474": 16,
        "7475": 129,
        "7476": 204,
        "7477": 233,
        "7478": 227,
        "7479": 160,
        "7480": 17,
        "7481": 146,
        "7482": 211,
        "7483": 208,
        "7484": 158,
        "7485": 73,
        "7486": 149,
        "7487": 248,
        "7488": 34,
        "7489": 218,
        "7490": 222,
        "7491": 77,
        "7492": 63,
        "7493": 126,
        "7494": 155,
        "7495": 221,
        "7496": 209,
        "7497": 145,
        "7498": 65,
        "7499": 69,
        "7500": 172,
        "7501": 115,
        "7502": 175,
        "7503": 108,
        "7504": 204,
        "7505": 97,
        "7506": 122,
        "7507": 45,
        "7508": 188,
        "7509": 143,
        "7510": 244,
        "7511": 97,
        "7512": 9,
        "7513": 124,
        "7514": 93,
        "7515": 158,
        "7516": 122,
        "7517": 237,
        "7518": 145,
        "7519": 18,
        "7520": 113,
        "7521": 133,
        "7522": 189,
        "7523": 199,
        "7524": 79,
        "7525": 142,
        "7526": 251,
        "7527": 170,
        "7528": 21,
        "7529": 37,
        "7530": 229,
        "7531": 75,
        "7532": 68,
        "7533": 59,
        "7534": 144,
        "7535": 118,
        "7536": 122,
        "7537": 190,
        "7538": 44,
        "7539": 69,
        "7540": 135,
        "7541": 50,
        "7542": 38,
        "7543": 106,
        "7544": 169,
        "7545": 63,
        "7546": 98,
        "7547": 124,
        "7548": 32,
        "7549": 104,
        "7550": 84,
        "7551": 170,
        "7552": 198,
        "7553": 218,
        "7554": 62,
        "7555": 21,
        "7556": 29,
        "7557": 236,
        "7558": 30,
        "7559": 41,
        "7560": 116,
        "7561": 157,
        "7562": 234,
        "7563": 32,
        "7564": 213,
        "7565": 236,
        "7566": 247,
        "7567": 113,
        "7568": 64,
        "7569": 119,
        "7570": 109,
        "7571": 135,
        "7572": 43,
        "7573": 237,
        "7574": 169,
        "7575": 208,
        "7576": 148,
        "7577": 1,
        "7578": 87,
        "7579": 149,
        "7580": 67,
        "7581": 221,
        "7582": 83,
        "7583": 102,
        "7584": 197,
        "7585": 128,
        "7586": 105,
        "7587": 181,
        "7588": 165,
        "7589": 24,
        "7590": 84,
        "7591": 50,
        "7592": 84,
        "7593": 102,
        "7594": 78,
        "7595": 234,
        "7596": 130,
        "7597": 132,
        "7598": 41,
        "7599": 201,
        "7600": 141,
        "7601": 30,
        "7602": 148,
        "7603": 170,
        "7604": 15,
        "7605": 227,
        "7606": 240,
        "7607": 27,
        "7608": 253,
        "7609": 182,
        "7610": 161,
        "7611": 7,
        "7612": 123,
        "7613": 107,
        "7614": 4,
        "7615": 148,
        "7616": 167,
        "7617": 167,
        "7618": 138,
        "7619": 186,
        "7620": 194,
        "7621": 59,
        "7622": 230,
        "7623": 126,
        "7624": 46,
        "7625": 192,
        "7626": 138,
        "7627": 203,
        "7628": 67,
        "7629": 210,
        "7630": 73,
        "7631": 173,
        "7632": 207,
        "7633": 198,
        "7634": 238,
        "7635": 248,
        "7636": 254,
        "7637": 81,
        "7638": 252,
        "7639": 103,
        "7640": 171,
        "7641": 152,
        "7642": 56,
        "7643": 67,
        "7644": 47,
        "7645": 124,
        "7646": 119,
        "7647": 126,
        "7648": 67,
        "7649": 88,
        "7650": 145,
        "7651": 129,
        "7652": 86,
        "7653": 200,
        "7654": 181,
        "7655": 205,
        "7656": 239,
        "7657": 113,
        "7658": 36,
        "7659": 142,
        "7660": 144,
        "7661": 189,
        "7662": 194,
        "7663": 116,
        "7664": 240,
        "7665": 186,
        "7666": 159,
        "7667": 148,
        "7668": 211,
        "7669": 212,
        "7670": 200,
        "7671": 243,
        "7672": 55,
        "7673": 149,
        "7674": 129,
        "7675": 53,
        "7676": 169,
        "7677": 29,
        "7678": 132,
        "7679": 94,
        "7680": 41,
        "7681": 163,
        "7682": 5,
        "7683": 82,
        "7684": 71,
        "7685": 169,
        "7686": 47,
        "7687": 128,
        "7688": 205,
        "7689": 41,
        "7690": 178,
        "7691": 200,
        "7692": 170,
        "7693": 150,
        "7694": 174,
        "7695": 223,
        "7696": 212,
        "7697": 126,
        "7698": 192,
        "7699": 124,
        "7700": 146,
        "7701": 245,
        "7702": 83,
        "7703": 221,
        "7704": 142,
        "7705": 233,
        "7706": 182,
        "7707": 212,
        "7708": 248,
        "7709": 66,
        "7710": 107,
        "7711": 54,
        "7712": 13,
        "7713": 255,
        "7714": 151,
        "7715": 9,
        "7716": 14,
        "7717": 97,
        "7718": 79,
        "7719": 34,
        "7720": 252,
        "7721": 14,
        "7722": 182,
        "7723": 206,
        "7724": 154,
        "7725": 247,
        "7726": 195,
        "7727": 129,
        "7728": 223,
        "7729": 1,
        "7730": 196,
        "7731": 21,
        "7732": 43,
        "7733": 48,
        "7734": 2,
        "7735": 156,
        "7736": 189,
        "7737": 51,
        "7738": 111,
        "7739": 131,
        "7740": 225,
        "7741": 247,
        "7742": 66,
        "7743": 215,
        "7744": 46,
        "7745": 81,
        "7746": 65,
        "7747": 181,
        "7748": 141,
        "7749": 41,
        "7750": 159,
        "7751": 205,
        "7752": 249,
        "7753": 140,
        "7754": 194,
        "7755": 29,
        "7756": 170,
        "7757": 58,
        "7758": 2,
        "7759": 88,
        "7760": 83,
        "7761": 204,
        "7762": 68,
        "7763": 166,
        "7764": 62,
        "7765": 226,
        "7766": 210,
        "7767": 106,
        "7768": 30,
        "7769": 207,
        "7770": 120,
        "7771": 52,
        "7772": 10,
        "7773": 189,
        "7774": 249,
        "7775": 145,
        "7776": 138,
        "7777": 21,
        "7778": 17,
        "7779": 10,
        "7780": 54,
        "7781": 190,
        "7782": 51,
        "7783": 241,
        "7784": 43,
        "7785": 191,
        "7786": 142,
        "7787": 196,
        "7788": 226,
        "7789": 224,
        "7790": 224,
        "7791": 223,
        "7792": 106,
        "7793": 45,
        "7794": 4,
        "7795": 153,
        "7796": 198,
        "7797": 135,
        "7798": 162,
        "7799": 245,
        "7800": 22,
        "7801": 126,
        "7802": 70,
        "7803": 64,
        "7804": 63,
        "7805": 97,
        "7806": 146,
        "7807": 250,
        "7808": 99,
        "7809": 44,
        "7810": 189,
        "7811": 68,
        "7812": 144,
        "7813": 28,
        "7814": 229,
        "7815": 184,
        "7816": 126,
        "7817": 4,
        "7818": 95,
        "7819": 179,
        "7820": 83,
        "7821": 74,
        "7822": 91,
        "7823": 131,
        "7824": 75,
        "7825": 198,
        "7826": 35,
        "7827": 248,
        "7828": 72,
        "7829": 198,
        "7830": 57,
        "7831": 248,
        "7832": 253,
        "7833": 148,
        "7834": 186,
        "7835": 30,
        "7836": 135,
        "7837": 83,
        "7838": 97,
        "7839": 224,
        "7840": 231,
        "7841": 137,
        "7842": 101,
        "7843": 43,
        "7844": 85,
        "7845": 204,
        "7846": 68,
        "7847": 168,
        "7848": 236,
        "7849": 104,
        "7850": 122,
        "7851": 132,
        "7852": 144,
        "7853": 168,
        "7854": 179,
        "7855": 201,
        "7856": 168,
        "7857": 246,
        "7858": 223,
        "7859": 161,
        "7860": 219,
        "7861": 127,
        "7862": 28,
        "7863": 139,
        "7864": 150,
        "7865": 239,
        "7866": 248,
        "7867": 48,
        "7868": 83,
        "7869": 48,
        "7870": 175,
        "7871": 112,
        "7872": 204,
        "7873": 173,
        "7874": 150,
        "7875": 162,
        "7876": 93,
        "7877": 101,
        "7878": 68,
        "7879": 234,
        "7880": 70,
        "7881": 22,
        "7882": 139,
        "7883": 227,
        "7884": 145,
        "7885": 18,
        "7886": 171,
        "7887": 194,
        "7888": 146,
        "7889": 81,
        "7890": 157,
        "7891": 240,
        "7892": 81,
        "7893": 31,
        "7894": 78,
        "7895": 79,
        "7896": 188,
        "7897": 99,
        "7898": 160,
        "7899": 10,
        "7900": 147,
        "7901": 177,
        "7902": 161,
        "7903": 44,
        "7904": 206,
        "7905": 91,
        "7906": 170,
        "7907": 7,
        "7908": 217,
        "7909": 53,
        "7910": 152,
        "7911": 242,
        "7912": 188,
        "7913": 4,
        "7914": 154,
        "7915": 23,
        "7916": 110,
        "7917": 158,
        "7918": 169,
        "7919": 155,
        "7920": 253,
        "7921": 38,
        "7922": 167,
        "7923": 178,
        "7924": 38,
        "7925": 54,
        "7926": 186,
        "7927": 126,
        "7928": 217,
        "7929": 19,
        "7930": 249,
        "7931": 214,
        "7932": 232,
        "7933": 224,
        "7934": 132,
        "7935": 128,
        "7936": 50,
        "7937": 76,
        "7938": 209,
        "7939": 40,
        "7940": 27,
        "7941": 60,
        "7942": 22,
        "7943": 251,
        "7944": 70,
        "7945": 28,
        "7946": 209,
        "7947": 50,
        "7948": 124,
        "7949": 134,
        "7950": 166,
        "7951": 92,
        "7952": 152,
        "7953": 22,
        "7954": 124,
        "7955": 158,
        "7956": 101,
        "7957": 104,
        "7958": 215,
        "7959": 189,
        "7960": 149,
        "7961": 158,
        "7962": 193,
        "7963": 44,
        "7964": 31,
        "7965": 142,
        "7966": 228,
        "7967": 169,
        "7968": 5,
        "7969": 58,
        "7970": 171,
        "7971": 59,
        "7972": 75,
        "7973": 230,
        "7974": 92,
        "7975": 251,
        "7976": 1,
        "7977": 136,
        "7978": 101,
        "7979": 158,
        "7980": 98,
        "7981": 129,
        "7982": 16,
        "7983": 82,
        "7984": 99,
        "7985": 123,
        "7986": 229,
        "7987": 186,
        "7988": 13,
        "7989": 136,
        "7990": 200,
        "7991": 239,
        "7992": 17,
        "7993": 57,
        "7994": 89,
        "7995": 166,
        "7996": 230,
        "7997": 220,
        "7998": 68,
        "7999": 253,
        "8000": 3,
        "8001": 239,
        "8002": 49,
        "8003": 40,
        "8004": 47,
        "8005": 229,
        "8006": 148,
        "8007": 19,
        "8008": 233,
        "8009": 151,
        "8010": 25,
        "8011": 115,
        "8012": 134,
        "8013": 95,
        "8014": 11,
        "8015": 230,
        "8016": 34,
        "8017": 114,
        "8018": 13,
        "8019": 24,
        "8020": 100,
        "8021": 102,
        "8022": 3,
        "8023": 239,
        "8024": 121,
        "8025": 157,
        "8026": 118,
        "8027": 178,
        "8028": 36,
        "8029": 35,
        "8030": 62,
        "8031": 94,
        "8032": 27,
        "8033": 10,
        "8034": 200,
        "8035": 36,
        "8036": 212,
        "8037": 5,
        "8038": 4,
        "8039": 216,
        "8040": 61,
        "8041": 93,
        "8042": 23,
        "8043": 44,
        "8044": 152,
        "8045": 163,
        "8046": 21,
        "8047": 195,
        "8048": 151,
        "8049": 126,
        "8050": 50,
        "8051": 142,
        "8052": 184,
        "8053": 34,
        "8054": 168,
        "8055": 237,
        "8056": 202,
        "8057": 149,
        "8058": 106,
        "8059": 142,
        "8060": 234,
        "8061": 30,
        "8062": 217,
        "8063": 1,
        "8064": 255,
        "8065": 159,
        "8066": 185,
        "8067": 25,
        "8068": 148,
        "8069": 43,
        "8070": 176,
        "8071": 159,
        "8072": 35,
        "8073": 15,
        "8074": 72,
        "8075": 250,
        "8076": 226,
        "8077": 241,
        "8078": 239,
        "8079": 8,
        "8080": 55,
        "8081": 102,
        "8082": 174,
        "8083": 50,
        "8084": 155,
        "8085": 242,
        "8086": 105,
        "8087": 77,
        "8088": 67,
        "8089": 153,
        "8090": 236,
        "8091": 162,
        "8092": 43,
        "8093": 109,
        "8094": 144,
        "8095": 209,
        "8096": 76,
        "8097": 74,
        "8098": 188,
        "8099": 128,
        "8100": 120,
        "8101": 108,
        "8102": 96,
        "8103": 109,
        "8104": 0,
        "8105": 64,
        "8106": 7,
        "8107": 18,
        "8108": 1,
        "8109": 86,
        "8110": 25,
        "8111": 150,
        "8112": 217,
        "8113": 117,
        "8114": 226,
        "8115": 87,
        "8116": 192,
        "8117": 65,
        "8118": 201,
        "8119": 239,
        "8120": 110,
        "8121": 122,
        "8122": 143,
        "8123": 255,
        "8124": 150,
        "8125": 44,
        "8126": 15,
        "8127": 139,
        "8128": 11,
        "8129": 29,
        "8130": 58,
        "8131": 58,
        "8132": 54,
        "8133": 178,
        "8134": 48,
        "8135": 138,
        "8136": 13,
        "8137": 27,
        "8138": 62,
        "8139": 96,
        "8140": 56,
        "8141": 11,
        "8142": 200,
        "8143": 17,
        "8144": 15,
        "8145": 153,
        "8146": 211,
        "8147": 7,
        "8148": 57,
        "8149": 76,
        "8150": 68,
        "8151": 235,
        "8152": 156,
        "8153": 160,
        "8154": 182,
        "8155": 155,
        "8156": 127,
        "8157": 218,
        "8158": 113,
        "8159": 1,
        "8160": 213,
        "8161": 15,
        "8162": 118,
        "8163": 247,
        "8164": 0,
        "8165": 176,
        "8166": 68,
        "8167": 175,
        "8168": 166,
        "8169": 113,
        "8170": 155,
        "8171": 251,
        "8172": 37,
        "8173": 61,
        "8174": 49,
        "8175": 232,
        "8176": 72,
        "8177": 233,
        "8178": 28,
        "8179": 81,
        "8180": 106,
        "8181": 82,
        "8182": 160,
        "8183": 178,
        "8184": 103,
        "8185": 51,
        "8186": 196,
        "8187": 96,
        "8188": 234,
        "8189": 211,
        "8190": 47,
        "8191": 104,
        "8192": 40,
        "8193": 219,
        "8194": 29,
        "8195": 249,
        "8196": 67,
        "8197": 142,
        "8198": 89,
        "8199": 71,
        "8200": 228,
        "8201": 178,
        "8202": 147,
        "8203": 19,
        "8204": 21,
        "8205": 129,
        "8206": 87,
        "8207": 247,
        "8208": 183,
        "8209": 203,
        "8210": 42,
        "8211": 241,
        "8212": 121,
        "8213": 108,
        "8214": 26,
        "8215": 14,
        "8216": 202,
        "8217": 25,
        "8218": 214,
        "8219": 168,
        "8220": 76,
        "8221": 30,
        "8222": 234,
        "8223": 123,
        "8224": 199,
        "8225": 103,
        "8226": 98,
        "8227": 35,
        "8228": 28,
        "8229": 150,
        "8230": 153,
        "8231": 184,
        "8232": 190,
        "8233": 242,
        "8234": 73,
        "8235": 101,
        "8236": 234,
        "8237": 4,
        "8238": 26,
        "8239": 129,
        "8240": 77,
        "8241": 86,
        "8242": 250,
        "8243": 45,
        "8244": 133,
        "8245": 148,
        "8246": 64,
        "8247": 229,
        "8248": 26,
        "8249": 1,
        "8250": 207,
        "8251": 48,
        "8252": 133,
        "8253": 101,
        "8254": 116,
        "8255": 58,
        "8256": 182,
        "8257": 225,
        "8258": 136,
        "8259": 164,
        "8260": 69,
        "8261": 232,
        "8262": 223,
        "8263": 207,
        "8264": 228,
        "8265": 174,
        "8266": 113,
        "8267": 62,
        "8268": 189,
        "8269": 149,
        "8270": 46,
        "8271": 137,
        "8272": 52,
        "8273": 40,
        "8274": 47,
        "8275": 128,
        "8276": 51,
        "8277": 31,
        "8278": 31,
        "8279": 130,
        "8280": 193,
        "8281": 79,
        "8282": 172,
        "8283": 151,
        "8284": 63,
        "8285": 34,
        "8286": 173,
        "8287": 54,
        "8288": 125,
        "8289": 43,
        "8290": 164,
        "8291": 251,
        "8292": 221,
        "8293": 137,
        "8294": 26,
        "8295": 103,
        "8296": 11,
        "8297": 233,
        "8298": 3,
        "8299": 74,
        "8300": 22,
        "8301": 104,
        "8302": 78,
        "8303": 196,
        "8304": 43,
        "8305": 180,
        "8306": 126,
        "8307": 55,
        "8308": 176,
        "8309": 229,
        "8310": 77,
        "8311": 116,
        "8312": 42,
        "8313": 110,
        "8314": 65,
        "8315": 130,
        "8316": 234,
        "8317": 73,
        "8318": 53,
        "8319": 27,
        "8320": 210,
        "8321": 198,
        "8322": 91,
        "8323": 217,
        "8324": 237,
        "8325": 122,
        "8326": 108,
        "8327": 62,
        "8328": 59,
        "8329": 105,
        "8330": 222,
        "8331": 248,
        "8332": 223,
        "8333": 59,
        "8334": 252,
        "8335": 34,
        "8336": 204,
        "8337": 153,
        "8338": 10,
        "8339": 156,
        "8340": 19,
        "8341": 196,
        "8342": 24,
        "8343": 228,
        "8344": 44,
        "8345": 10,
        "8346": 244,
        "8347": 119,
        "8348": 45,
        "8349": 82,
        "8350": 168,
        "8351": 245,
        "8352": 18,
        "8353": 135,
        "8354": 234,
        "8355": 211,
        "8356": 124,
        "8357": 144,
        "8358": 40,
        "8359": 41,
        "8360": 58,
        "8361": 113,
        "8362": 231,
        "8363": 52,
        "8364": 96,
        "8365": 216,
        "8366": 246,
        "8367": 67,
        "8368": 234,
        "8369": 104,
        "8370": 207,
        "8371": 0,
        "8372": 11,
        "8373": 169,
        "8374": 23,
        "8375": 246,
        "8376": 107,
        "8377": 59,
        "8378": 55,
        "8379": 179,
        "8380": 243,
        "8381": 165,
        "8382": 234,
        "8383": 210,
        "8384": 32,
        "8385": 236,
        "8386": 186,
        "8387": 95,
        "8388": 230,
        "8389": 47,
        "8390": 102,
        "8391": 206,
        "8392": 50,
        "8393": 29,
        "8394": 63,
        "8395": 172,
        "8396": 186,
        "8397": 16,
        "8398": 9,
        "8399": 44,
        "8400": 248,
        "8401": 215,
        "8402": 181,
        "8403": 21,
        "8404": 146,
        "8405": 111,
        "8406": 135,
        "8407": 196,
        "8408": 171,
        "8409": 134,
        "8410": 80,
        "8411": 187,
        "8412": 94,
        "8413": 110,
        "8414": 103,
        "8415": 112,
        "8416": 232,
        "8417": 6,
        "8418": 27,
        "8419": 137,
        "8420": 104,
        "8421": 158,
        "8422": 7,
        "8423": 106,
        "8424": 152,
        "8425": 195,
        "8426": 11,
        "8427": 124,
        "8428": 171,
        "8429": 5,
        "8430": 231,
        "8431": 101,
        "8432": 172,
        "8433": 10,
        "8434": 19,
        "8435": 142,
        "8436": 211,
        "8437": 5,
        "8438": 153,
        "8439": 221,
        "8440": 19,
        "8441": 174,
        "8442": 240,
        "8443": 5,
        "8444": 128,
        "8445": 251,
        "8446": 128,
        "8447": 1,
        "8448": 251,
        "8449": 66,
        "8450": 19,
        "8451": 38,
        "8452": 65,
        "8453": 162,
        "8454": 131,
        "8455": 169,
        "8456": 148,
        "8457": 87,
        "8458": 37,
        "8459": 211,
        "8460": 188,
        "8461": 44,
        "8462": 160,
        "8463": 165,
        "8464": 148,
        "8465": 245,
        "8466": 165,
        "8467": 3,
        "8468": 68,
        "8469": 139,
        "8470": 123,
        "8471": 38,
        "8472": 38,
        "8473": 57,
        "8474": 127,
        "8475": 172,
        "8476": 41,
        "8477": 104,
        "8478": 89,
        "8479": 189,
        "8480": 184,
        "8481": 98,
        "8482": 114,
        "8483": 243,
        "8484": 162,
        "8485": 199,
        "8486": 33,
        "8487": 174,
        "8488": 251,
        "8489": 98,
        "8490": 121,
        "8491": 160,
        "8492": 200,
        "8493": 210,
        "8494": 14,
        "8495": 66,
        "8496": 26,
        "8497": 244,
        "8498": 172,
        "8499": 15,
        "8500": 96,
        "8501": 252,
        "8502": 1,
        "8503": 162,
        "8504": 208,
        "8505": 245,
        "8506": 110,
        "8507": 61,
        "8508": 92,
        "8509": 253,
        "8510": 213,
        "8511": 83,
        "8512": 130,
        "8513": 229,
        "8514": 247,
        "8515": 179,
        "8516": 42,
        "8517": 61,
        "8518": 239,
        "8519": 53,
        "8520": 56,
        "8521": 1,
        "8522": 25,
        "8523": 147,
        "8524": 149,
        "8525": 105,
        "8526": 117,
        "8527": 8,
        "8528": 143,
        "8529": 68,
        "8530": 166,
        "8531": 5,
        "8532": 117,
        "8533": 72,
        "8534": 86,
        "8535": 129,
        "8536": 240,
        "8537": 54,
        "8538": 198,
        "8539": 87,
        "8540": 182,
        "8541": 241,
        "8542": 167,
        "8543": 193,
        "8544": 58,
        "8545": 56,
        "8546": 113,
        "8547": 216,
        "8548": 118,
        "8549": 26,
        "8550": 155,
        "8551": 108,
        "8552": 37,
        "8553": 150,
        "8554": 221,
        "8555": 1,
        "8556": 205,
        "8557": 96,
        "8558": 142,
        "8559": 193,
        "8560": 157,
        "8561": 205,
        "8562": 164,
        "8563": 224,
        "8564": 133,
        "8565": 145,
        "8566": 106,
        "8567": 107,
        "8568": 50,
        "8569": 229,
        "8570": 29,
        "8571": 189,
        "8572": 214,
        "8573": 71,
        "8574": 185,
        "8575": 114,
        "8576": 188,
        "8577": 170,
        "8578": 126,
        "8579": 76,
        "8580": 251,
        "8581": 48,
        "8582": 87,
        "8583": 212,
        "8584": 27,
        "8585": 137,
        "8586": 138,
        "8587": 207,
        "8588": 80,
        "8589": 226,
        "8590": 225,
        "8591": 227,
        "8592": 219,
        "8593": 148,
        "8594": 254,
        "8595": 165,
        "8596": 207,
        "8597": 169,
        "8598": 202,
        "8599": 136,
        "8600": 94,
        "8601": 72,
        "8602": 172,
        "8603": 63,
        "8604": 169,
        "8605": 177,
        "8606": 146,
        "8607": 196,
        "8608": 146,
        "8609": 179,
        "8610": 74,
        "8611": 132,
        "8612": 44,
        "8613": 106,
        "8614": 211,
        "8615": 174,
        "8616": 221,
        "8617": 3,
        "8618": 67,
        "8619": 158,
        "8620": 137,
        "8621": 220,
        "8622": 111,
        "8623": 224,
        "8624": 192,
        "8625": 192,
        "8626": 85,
        "8627": 31,
        "8628": 64,
        "8629": 104,
        "8630": 221,
        "8631": 64,
        "8632": 201,
        "8633": 70,
        "8634": 184,
        "8635": 148,
        "8636": 62,
        "8637": 142,
        "8638": 227,
        "8639": 249,
        "8640": 110,
        "8641": 53,
        "8642": 20,
        "8643": 68,
        "8644": 65,
        "8645": 142,
        "8646": 150,
        "8647": 4,
        "8648": 57,
        "8649": 83,
        "8650": 175,
        "8651": 14,
        "8652": 143,
        "8653": 47,
        "8654": 113,
        "8655": 124,
        "8656": 40,
        "8657": 166,
        "8658": 87,
        "8659": 135,
        "8660": 172,
        "8661": 155,
        "8662": 102,
        "8663": 205,
        "8664": 2,
        "8665": 238,
        "8666": 156,
        "8667": 223,
        "8668": 173,
        "8669": 89,
        "8670": 193,
        "8671": 128,
        "8672": 202,
        "8673": 243,
        "8674": 190,
        "8675": 146,
        "8676": 31,
        "8677": 200,
        "8678": 247,
        "8679": 197,
        "8680": 191,
        "8681": 129,
        "8682": 40,
        "8683": 228,
        "8684": 2,
        "8685": 159,
        "8686": 92,
        "8687": 64,
        "8688": 241,
        "8689": 73,
        "8690": 55,
        "8691": 253,
        "8692": 204,
        "8693": 156,
        "8694": 162,
        "8695": 226,
        "8696": 65,
        "8697": 163,
        "8698": 112,
        "8699": 211,
        "8700": 135,
        "8701": 207,
        "8702": 147,
        "8703": 69,
        "8704": 128,
        "8705": 193,
        "8706": 18,
        "8707": 43,
        "8708": 181,
        "8709": 172,
        "8710": 172,
        "8711": 48,
        "8712": 15,
        "8713": 146,
        "8714": 9,
        "8715": 164,
        "8716": 110,
        "8717": 66,
        "8718": 88,
        "8719": 83,
        "8720": 129,
        "8721": 118,
        "8722": 239,
        "8723": 122,
        "8724": 219,
        "8725": 140,
        "8726": 12,
        "8727": 89,
        "8728": 45,
        "8729": 248,
        "8730": 131,
        "8731": 151,
        "8732": 1,
        "8733": 177,
        "8734": 193,
        "8735": 251,
        "8736": 30,
        "8737": 179,
        "8738": 48,
        "8739": 164,
        "8740": 226,
        "8741": 11,
        "8742": 185,
        "8743": 68,
        "8744": 186,
        "8745": 211,
        "8746": 196,
        "8747": 138,
        "8748": 63,
        "8749": 238,
        "8750": 188,
        "8751": 86,
        "8752": 155,
        "8753": 125,
        "8754": 139,
        "8755": 96,
        "8756": 212,
        "8757": 103,
        "8758": 22,
        "8759": 236,
        "8760": 218,
        "8761": 94,
        "8762": 243,
        "8763": 130,
        "8764": 149,
        "8765": 15,
        "8766": 168,
        "8767": 207,
        "8768": 177,
        "8769": 127,
        "8770": 214,
        "8771": 90,
        "8772": 138,
        "8773": 204,
        "8774": 13,
        "8775": 77,
        "8776": 69,
        "8777": 61,
        "8778": 158,
        "8779": 111,
        "8780": 151,
        "8781": 123,
        "8782": 25,
        "8783": 141,
        "8784": 30,
        "8785": 70,
        "8786": 219,
        "8787": 43,
        "8788": 217,
        "8789": 140,
        "8790": 159,
        "8791": 219,
        "8792": 165,
        "8793": 1,
        "8794": 202,
        "8795": 188,
        "8796": 81,
        "8797": 195,
        "8798": 50,
        "8799": 199,
        "8800": 38,
        "8801": 169,
        "8802": 196,
        "8803": 107,
        "8804": 48,
        "8805": 158,
        "8806": 49,
        "8807": 17,
        "8808": 199,
        "8809": 68,
        "8810": 46,
        "8811": 132,
        "8812": 207,
        "8813": 195,
        "8814": 139,
        "8815": 254,
        "8816": 51,
        "8817": 43,
        "8818": 44,
        "8819": 193,
        "8820": 154,
        "8821": 13,
        "8822": 145,
        "8823": 27,
        "8824": 132,
        "8825": 10,
        "8826": 98,
        "8827": 120,
        "8828": 2,
        "8829": 233,
        "8830": 151,
        "8831": 208,
        "8832": 40,
        "8833": 254,
        "8834": 127,
        "8835": 160,
        "8836": 235,
        "8837": 206,
        "8838": 144,
        "8839": 202,
        "8840": 249,
        "8841": 6,
        "8842": 102,
        "8843": 235,
        "8844": 110,
        "8845": 213,
        "8846": 208,
        "8847": 226,
        "8848": 33,
        "8849": 24,
        "8850": 23,
        "8851": 90,
        "8852": 197,
        "8853": 215,
        "8854": 24,
        "8855": 88,
        "8856": 166,
        "8857": 201,
        "8858": 184,
        "8859": 85,
        "8860": 139,
        "8861": 184,
        "8862": 220,
        "8863": 125,
        "8864": 111,
        "8865": 82,
        "8866": 174,
        "8867": 195,
        "8868": 74,
        "8869": 76,
        "8870": 202,
        "8871": 96,
        "8872": 251,
        "8873": 43,
        "8874": 120,
        "8875": 86,
        "8876": 251,
        "8877": 127,
        "8878": 230,
        "8879": 151,
        "8880": 89,
        "8881": 50,
        "8882": 218,
        "8883": 107,
        "8884": 164,
        "8885": 189,
        "8886": 144,
        "8887": 211,
        "8888": 69,
        "8889": 178,
        "8890": 143,
        "8891": 186,
        "8892": 208,
        "8893": 43,
        "8894": 70,
        "8895": 36,
        "8896": 142,
        "8897": 29,
        "8898": 175,
        "8899": 203,
        "8900": 87,
        "8901": 66,
        "8902": 127,
        "8903": 122,
        "8904": 246,
        "8905": 80,
        "8906": 163,
        "8907": 227,
        "8908": 89,
        "8909": 106,
        "8910": 186,
        "8911": 44,
        "8912": 48,
        "8913": 157,
        "8914": 91,
        "8915": 95,
        "8916": 89,
        "8917": 203,
        "8918": 3,
        "8919": 96,
        "8920": 139,
        "8921": 163,
        "8922": 147,
        "8923": 245,
        "8924": 175,
        "8925": 255,
        "8926": 177,
        "8927": 164,
        "8928": 6,
        "8929": 192,
        "8930": 118,
        "8931": 226,
        "8932": 108,
        "8933": 177,
        "8934": 185,
        "8935": 181,
        "8936": 23,
        "8937": 114,
        "8938": 56,
        "8939": 67,
        "8940": 155,
        "8941": 254,
        "8942": 234,
        "8943": 205,
        "8944": 71,
        "8945": 82,
        "8946": 146,
        "8947": 157,
        "8948": 128,
        "8949": 69,
        "8950": 4,
        "8951": 171,
        "8952": 85,
        "8953": 121,
        "8954": 211,
        "8955": 0,
        "8956": 229,
        "8957": 100,
        "8958": 96,
        "8959": 50,
        "8960": 14,
        "8961": 209,
        "8962": 147,
        "8963": 138,
        "8964": 0,
        "8965": 252,
        "8966": 108,
        "8967": 20,
        "8968": 21,
        "8969": 138,
        "8970": 95,
        "8971": 54,
        "8972": 74,
        "8973": 100,
        "8974": 98,
        "8975": 251,
        "8976": 155,
        "8977": 129,
        "8978": 247,
        "8979": 218,
        "8980": 126,
        "8981": 36,
        "8982": 242,
        "8983": 140,
        "8984": 65,
        "8985": 184,
        "8986": 67,
        "8987": 149,
        "8988": 105,
        "8989": 245,
        "8990": 178,
        "8991": 169,
        "8992": 60,
        "8993": 58,
        "8994": 119,
        "8995": 120,
        "8996": 212,
        "8997": 51,
        "8998": 71,
        "8999": 215,
        "9000": 221,
        "9001": 189,
        "9002": 45,
        "9003": 229,
        "9004": 229,
        "9005": 20,
        "9006": 205,
        "9007": 106,
        "9008": 144,
        "9009": 126,
        "9010": 102,
        "9011": 144,
        "9012": 127,
        "9013": 254,
        "9014": 150,
        "9015": 154,
        "9016": 200,
        "9017": 34,
        "9018": 37,
        "9019": 246,
        "9020": 27,
        "9021": 127,
        "9022": 14,
        "9023": 100,
        "9024": 172,
        "9025": 237,
        "9026": 247,
        "9027": 34,
        "9028": 168,
        "9029": 79,
        "9030": 126,
        "9031": 240,
        "9032": 154,
        "9033": 106,
        "9034": 83,
        "9035": 190,
        "9036": 77,
        "9037": 33,
        "9038": 75,
        "9039": 77,
        "9040": 57,
        "9041": 72,
        "9042": 106,
        "9043": 47,
        "9044": 0,
        "9045": 231,
        "9046": 136,
        "9047": 230,
        "9048": 168,
        "9049": 136,
        "9050": 89,
        "9051": 186,
        "9052": 156,
        "9053": 188,
        "9054": 71,
        "9055": 223,
        "9056": 240,
        "9057": 160,
        "9058": 230,
        "9059": 122,
        "9060": 14,
        "9061": 2,
        "9062": 12,
        "9063": 167,
        "9064": 94,
        "9065": 251,
        "9066": 30,
        "9067": 125,
        "9068": 94,
        "9069": 92,
        "9070": 121,
        "9071": 100,
        "9072": 102,
        "9073": 84,
        "9074": 69,
        "9075": 170,
        "9076": 23,
        "9077": 52,
        "9078": 46,
        "9079": 107,
        "9080": 230,
        "9081": 39,
        "9082": 59,
        "9083": 133,
        "9084": 129,
        "9085": 233,
        "9086": 183,
        "9087": 103,
        "9088": 151,
        "9089": 38,
        "9090": 89,
        "9091": 179,
        "9092": 82,
        "9093": 250,
        "9094": 142,
        "9095": 91,
        "9096": 228,
        "9097": 8,
        "9098": 92,
        "9099": 116,
        "9100": 185,
        "9101": 222,
        "9102": 97,
        "9103": 225,
        "9104": 16,
        "9105": 91,
        "9106": 246,
        "9107": 131,
        "9108": 248,
        "9109": 112,
        "9110": 241,
        "9111": 114,
        "9112": 161,
        "9113": 147,
        "9114": 236,
        "9115": 92,
        "9116": 182,
        "9117": 127,
        "9118": 18,
        "9119": 122,
        "9120": 248,
        "9121": 133,
        "9122": 172,
        "9123": 237,
        "9124": 160,
        "9125": 124,
        "9126": 1,
        "9127": 95,
        "9128": 104,
        "9129": 99,
        "9130": 19,
        "9131": 42,
        "9132": 244,
        "9133": 155,
        "9134": 148,
        "9135": 132,
        "9136": 89,
        "9137": 44,
        "9138": 244,
        "9139": 12,
        "9140": 59,
        "9141": 141,
        "9142": 222,
        "9143": 108,
        "9144": 230,
        "9145": 28,
        "9146": 58,
        "9147": 66,
        "9148": 30,
        "9149": 34,
        "9150": 117,
        "9151": 250,
        "9152": 114,
        "9153": 106,
        "9154": 111,
        "9155": 155,
        "9156": 124,
        "9157": 75,
        "9158": 2,
        "9159": 65,
        "9160": 27,
        "9161": 65,
        "9162": 238,
        "9163": 102,
        "9164": 48,
        "9165": 95,
        "9166": 240,
        "9167": 23,
        "9168": 27,
        "9169": 132,
        "9170": 16,
        "9171": 114,
        "9172": 4,
        "9173": 249,
        "9174": 45,
        "9175": 198,
        "9176": 246,
        "9177": 44,
        "9178": 48,
        "9179": 235,
        "9180": 171,
        "9181": 166,
        "9182": 187,
        "9183": 57,
        "9184": 109,
        "9185": 66,
        "9186": 247,
        "9187": 101,
        "9188": 147,
        "9189": 227,
        "9190": 116,
        "9191": 115,
        "9192": 252,
        "9193": 160,
        "9194": 13,
        "9195": 136,
        "9196": 236,
        "9197": 155,
        "9198": 48,
        "9199": 210,
        "9200": 123,
        "9201": 75,
        "9202": 245,
        "9203": 186,
        "9204": 209,
        "9205": 64,
        "9206": 80,
        "9207": 48,
        "9208": 207,
        "9209": 144,
        "9210": 114,
        "9211": 222,
        "9212": 223,
        "9213": 255,
        "9214": 214,
        "9215": 243,
        "9216": 164,
        "9217": 255,
        "9218": 189,
        "9219": 124,
        "9220": 215,
        "9221": 171,
        "9222": 156,
        "9223": 121,
        "9224": 150,
        "9225": 46,
        "9226": 39,
        "9227": 85,
        "9228": 212,
        "9229": 233,
        "9230": 228,
        "9231": 134,
        "9232": 169,
        "9233": 249,
        "9234": 70,
        "9235": 195,
        "9236": 136,
        "9237": 166,
        "9238": 255,
        "9239": 161,
        "9240": 161,
        "9241": 4,
        "9242": 212,
        "9243": 110,
        "9244": 241,
        "9245": 38,
        "9246": 23,
        "9247": 64,
        "9248": 104,
        "9249": 93,
        "9250": 65,
        "9251": 106,
        "9252": 35,
        "9253": 247,
        "9254": 181,
        "9255": 13,
        "9256": 14,
        "9257": 77,
        "9258": 31,
        "9259": 138,
        "9260": 23,
        "9261": 247,
        "9262": 31,
        "9263": 183,
        "9264": 45,
        "9265": 109,
        "9266": 236,
        "9267": 148,
        "9268": 123,
        "9269": 45,
        "9270": 21,
        "9271": 142,
        "9272": 230,
        "9273": 181,
        "9274": 27,
        "9275": 224,
        "9276": 147,
        "9277": 101,
        "9278": 63,
        "9279": 192,
        "9280": 118,
        "9281": 168,
        "9282": 232,
        "9283": 103,
        "9284": 100,
        "9285": 28,
        "9286": 232,
        "9287": 111,
        "9288": 183,
        "9289": 21,
        "9290": 6,
        "9291": 179,
        "9292": 94,
        "9293": 168,
        "9294": 145,
        "9295": 97,
        "9296": 77,
        "9297": 123,
        "9298": 99,
        "9299": 139,
        "9300": 24,
        "9301": 235,
        "9302": 57,
        "9303": 92,
        "9304": 79,
        "9305": 152,
        "9306": 174,
        "9307": 120,
        "9308": 116,
        "9309": 97,
        "9310": 215,
        "9311": 137,
        "9312": 221,
        "9313": 56,
        "9314": 9,
        "9315": 49,
        "9316": 128,
        "9317": 70,
        "9318": 198,
        "9319": 107,
        "9320": 199,
        "9321": 56,
        "9322": 206,
        "9323": 222,
        "9324": 87,
        "9325": 52,
        "9326": 210,
        "9327": 140,
        "9328": 59,
        "9329": 149,
        "9330": 141,
        "9331": 19,
        "9332": 119,
        "9333": 217,
        "9334": 144,
        "9335": 121,
        "9336": 181,
        "9337": 21,
        "9338": 44,
        "9339": 49,
        "9340": 88,
        "9341": 157,
        "9342": 232,
        "9343": 82,
        "9344": 129,
        "9345": 208,
        "9346": 94,
        "9347": 104,
        "9348": 64,
        "9349": 65,
        "9350": 138,
        "9351": 136,
        "9352": 161,
        "9353": 139,
        "9354": 227,
        "9355": 140,
        "9356": 151,
        "9357": 163,
        "9358": 79,
        "9359": 80,
        "9360": 67,
        "9361": 22,
        "9362": 167,
        "9363": 178,
        "9364": 108,
        "9365": 23,
        "9366": 149,
        "9367": 139,
        "9368": 101,
        "9369": 187,
        "9370": 231,
        "9371": 8,
        "9372": 233,
        "9373": 144,
        "9374": 249,
        "9375": 232,
        "9376": 41,
        "9377": 115,
        "9378": 81,
        "9379": 166,
        "9380": 52,
        "9381": 83,
        "9382": 68,
        "9383": 197,
        "9384": 147,
        "9385": 157,
        "9386": 246,
        "9387": 41,
        "9388": 131,
        "9389": 70,
        "9390": 107,
        "9391": 27,
        "9392": 246,
        "9393": 94,
        "9394": 76,
        "9395": 175,
        "9396": 243,
        "9397": 64,
        "9398": 112,
        "9399": 92,
        "9400": 150,
        "9401": 65,
        "9402": 225,
        "9403": 170,
        "9404": 6,
        "9405": 224,
        "9406": 142,
        "9407": 69,
        "9408": 91,
        "9409": 206,
        "9410": 100,
        "9411": 215,
        "9412": 106,
        "9413": 255,
        "9414": 18,
        "9415": 143,
        "9416": 164,
        "9417": 186,
        "9418": 201,
        "9419": 10,
        "9420": 41,
        "9421": 78,
        "9422": 63,
        "9423": 4,
        "9424": 44,
        "9425": 29,
        "9426": 162,
        "9427": 170,
        "9428": 182,
        "9429": 191,
        "9430": 219,
        "9431": 208,
        "9432": 162,
        "9433": 204,
        "9434": 138,
        "9435": 222,
        "9436": 230,
        "9437": 161,
        "9438": 60,
        "9439": 42,
        "9440": 80,
        "9441": 242,
        "9442": 84,
        "9443": 116,
        "9444": 187,
        "9445": 227,
        "9446": 51,
        "9447": 187,
        "9448": 228,
        "9449": 15,
        "9450": 202,
        "9451": 31,
        "9452": 212,
        "9453": 140,
        "9454": 233,
        "9455": 133,
        "9456": 12,
        "9457": 76,
        "9458": 137,
        "9459": 135,
        "9460": 69,
        "9461": 231,
        "9462": 25,
        "9463": 84,
        "9464": 186,
        "9465": 206,
        "9466": 138,
        "9467": 133,
        "9468": 58,
        "9469": 68,
        "9470": 89,
        "9471": 220,
        "9472": 174,
        "9473": 81,
        "9474": 251,
        "9475": 104,
        "9476": 4,
        "9477": 111,
        "9478": 12,
        "9479": 190,
        "9480": 199,
        "9481": 106,
        "9482": 114,
        "9483": 120,
        "9484": 89,
        "9485": 189,
        "9486": 136,
        "9487": 238,
        "9488": 129,
        "9489": 89,
        "9490": 44,
        "9491": 174,
        "9492": 166,
        "9493": 126,
        "9494": 93,
        "9495": 43,
        "9496": 131,
        "9497": 225,
        "9498": 214,
        "9499": 211,
        "9500": 246,
        "9501": 39,
        "9502": 102,
        "9503": 95,
        "9504": 87,
        "9505": 214,
        "9506": 206,
        "9507": 125,
        "9508": 106,
        "9509": 213,
        "9510": 126,
        "9511": 241,
        "9512": 101,
        "9513": 167,
        "9514": 109,
        "9515": 61,
        "9516": 155,
        "9517": 186,
        "9518": 202,
        "9519": 138,
        "9520": 197,
        "9521": 89,
        "9522": 146,
        "9523": 241,
        "9524": 26,
        "9525": 6,
        "9526": 188,
        "9527": 56,
        "9528": 92,
        "9529": 132,
        "9530": 187,
        "9531": 53,
        "9532": 25,
        "9533": 141,
        "9534": 68,
        "9535": 138,
        "9536": 191,
        "9537": 85,
        "9538": 118,
        "9539": 35,
        "9540": 0,
        "9541": 135,
        "9542": 178,
        "9543": 136,
        "9544": 4,
        "9545": 44,
        "9546": 80,
        "9547": 214,
        "9548": 13,
        "9549": 36,
        "9550": 166,
        "9551": 246,
        "9552": 30,
        "9553": 92,
        "9554": 100,
        "9555": 213,
        "9556": 230,
        "9557": 5,
        "9558": 60,
        "9559": 57,
        "9560": 76,
        "9561": 101,
        "9562": 130,
        "9563": 210,
        "9564": 236,
        "9565": 94,
        "9566": 98,
        "9567": 182,
        "9568": 66,
        "9569": 126,
        "9570": 214,
        "9571": 64,
        "9572": 56,
        "9573": 218,
        "9574": 133,
        "9575": 61,
        "9576": 25,
        "9577": 6,
        "9578": 111,
        "9579": 170,
        "9580": 244,
        "9581": 232,
        "9582": 143,
        "9583": 158,
        "9584": 194,
        "9585": 212,
        "9586": 64,
        "9587": 74,
        "9588": 9,
        "9589": 70,
        "9590": 174,
        "9591": 33,
        "9592": 81,
        "9593": 75,
        "9594": 97,
        "9595": 83,
        "9596": 91,
        "9597": 108,
        "9598": 37,
        "9599": 83,
        "9600": 186,
        "9601": 101,
        "9602": 130,
        "9603": 212,
        "9604": 211,
        "9605": 4,
        "9606": 128,
        "9607": 142,
        "9608": 105,
        "9609": 67,
        "9610": 205,
        "9611": 33,
        "9612": 42,
        "9613": 132,
        "9614": 48,
        "9615": 244,
        "9616": 66,
        "9617": 246,
        "9618": 11,
        "9619": 39,
        "9620": 110,
        "9621": 194,
        "9622": 146,
        "9623": 226,
        "9624": 157,
        "9625": 96,
        "9626": 146,
        "9627": 4,
        "9628": 72,
        "9629": 11,
        "9630": 147,
        "9631": 40,
        "9632": 14,
        "9633": 253,
        "9634": 188,
        "9635": 202,
        "9636": 176,
        "9637": 129,
        "9638": 18,
        "9639": 143,
        "9640": 243,
        "9641": 215,
        "9642": 162,
        "9643": 161,
        "9644": 16,
        "9645": 80,
        "9646": 238,
        "9647": 56,
        "9648": 143,
        "9649": 114,
        "9650": 111,
        "9651": 46,
        "9652": 118,
        "9653": 22,
        "9654": 22,
        "9655": 44,
        "9656": 125,
        "9657": 185,
        "9658": 58,
        "9659": 125,
        "9660": 77,
        "9661": 199,
        "9662": 99,
        "9663": 215,
        "9664": 213,
        "9665": 251,
        "9666": 248,
        "9667": 207,
        "9668": 100,
        "9669": 242,
        "9670": 125,
        "9671": 20,
        "9672": 185,
        "9673": 88,
        "9674": 217,
        "9675": 50,
        "9676": 28,
        "9677": 185,
        "9678": 228,
        "9679": 61,
        "9680": 66,
        "9681": 125,
        "9682": 169,
        "9683": 75,
        "9684": 80,
        "9685": 81,
        "9686": 28,
        "9687": 17,
        "9688": 184,
        "9689": 90,
        "9690": 65,
        "9691": 214,
        "9692": 49,
        "9693": 54,
        "9694": 107,
        "9695": 79,
        "9696": 95,
        "9697": 144,
        "9698": 159,
        "9699": 98,
        "9700": 54,
        "9701": 147,
        "9702": 203,
        "9703": 236,
        "9704": 104,
        "9705": 159,
        "9706": 251,
        "9707": 154,
        "9708": 159,
        "9709": 100,
        "9710": 168,
        "9711": 132,
        "9712": 138,
        "9713": 16,
        "9714": 96,
        "9715": 159,
        "9716": 106,
        "9717": 36,
        "9718": 13,
        "9719": 108,
        "9720": 135,
        "9721": 158,
        "9722": 78,
        "9723": 132,
        "9724": 13,
        "9725": 161,
        "9726": 190,
        "9727": 174,
        "9728": 199,
        "9729": 132,
        "9730": 140,
        "9731": 204,
        "9732": 8,
        "9733": 162,
        "9734": 138,
        "9735": 153,
        "9736": 249,
        "9737": 28,
        "9738": 251,
        "9739": 155,
        "9740": 249,
        "9741": 135,
        "9742": 171,
        "9743": 13,
        "9744": 191,
        "9745": 126,
        "9746": 148,
        "9747": 237,
        "9748": 172,
        "9749": 87,
        "9750": 88,
        "9751": 133,
        "9752": 224,
        "9753": 23,
        "9754": 75,
        "9755": 92,
        "9756": 59,
        "9757": 150,
        "9758": 249,
        "9759": 140,
        "9760": 47,
        "9761": 31,
        "9762": 178,
        "9763": 181,
        "9764": 120,
        "9765": 54,
        "9766": 159,
        "9767": 250,
        "9768": 166,
        "9769": 49,
        "9770": 253,
        "9771": 248,
        "9772": 22,
        "9773": 160,
        "9774": 48,
        "9775": 244,
        "9776": 69,
        "9777": 11,
        "9778": 67,
        "9779": 191,
        "9780": 230,
        "9781": 33,
        "9782": 127,
        "9783": 189,
        "9784": 130,
        "9785": 73,
        "9786": 252,
        "9787": 60,
        "9788": 44,
        "9789": 245,
        "9790": 153,
        "9791": 251,
        "9792": 69,
        "9793": 177,
        "9794": 201,
        "9795": 205,
        "9796": 113,
        "9797": 237,
        "9798": 185,
        "9799": 38,
        "9800": 229,
        "9801": 69,
        "9802": 23,
        "9803": 65,
        "9804": 5,
        "9805": 146,
        "9806": 96,
        "9807": 34,
        "9808": 123,
        "9809": 226,
        "9810": 6,
        "9811": 153,
        "9812": 248,
        "9813": 58,
        "9814": 0,
        "9815": 43,
        "9816": 135,
        "9817": 16,
        "9818": 174,
        "9819": 42,
        "9820": 236,
        "9821": 35,
        "9822": 222,
        "9823": 183,
        "9824": 160,
        "9825": 17,
        "9826": 188,
        "9827": 234,
        "9828": 89,
        "9829": 137,
        "9830": 25,
        "9831": 101,
        "9832": 32,
        "9833": 106,
        "9834": 185,
        "9835": 43,
        "9836": 251,
        "9837": 69,
        "9838": 132,
        "9839": 88,
        "9840": 42,
        "9841": 214,
        "9842": 210,
        "9843": 77,
        "9844": 49,
        "9845": 186,
        "9846": 74,
        "9847": 122,
        "9848": 34,
        "9849": 213,
        "9850": 105,
        "9851": 183,
        "9852": 240,
        "9853": 47,
        "9854": 187,
        "9855": 116,
        "9856": 4,
        "9857": 103,
        "9858": 144,
        "9859": 235,
        "9860": 106,
        "9861": 62,
        "9862": 72,
        "9863": 255,
        "9864": 154,
        "9865": 73,
        "9866": 239,
        "9867": 158,
        "9868": 164,
        "9869": 111,
        "9870": 53,
        "9871": 189,
        "9872": 145,
        "9873": 36,
        "9874": 69,
        "9875": 167,
        "9876": 30,
        "9877": 193,
        "9878": 107,
        "9879": 109,
        "9880": 185,
        "9881": 61,
        "9882": 199,
        "9883": 222,
        "9884": 100,
        "9885": 139,
        "9886": 216,
        "9887": 160,
        "9888": 110,
        "9889": 84,
        "9890": 252,
        "9891": 122,
        "9892": 54,
        "9893": 151,
        "9894": 63,
        "9895": 165,
        "9896": 139,
        "9897": 101,
        "9898": 14,
        "9899": 236,
        "9900": 22,
        "9901": 109,
        "9902": 127,
        "9903": 18,
        "9904": 179,
        "9905": 192,
        "9906": 58,
        "9907": 248,
        "9908": 89,
        "9909": 8,
        "9910": 96,
        "9911": 190,
        "9912": 211,
        "9913": 190,
        "9914": 64,
        "9915": 149,
        "9916": 253,
        "9917": 3,
        "9918": 199,
        "9919": 17,
        "9920": 18,
        "9921": 252,
        "9922": 126,
        "9923": 14,
        "9924": 191,
        "9925": 130,
        "9926": 186,
        "9927": 186,
        "9928": 222,
        "9929": 9,
        "9930": 35,
        "9931": 26,
        "9932": 122,
        "9933": 172,
        "9934": 187,
        "9935": 154,
        "9936": 142,
        "9937": 96,
        "9938": 153,
        "9939": 93,
        "9940": 59,
        "9941": 149,
        "9942": 110,
        "9943": 241,
        "9944": 152,
        "9945": 223,
        "9946": 72,
        "9947": 163,
        "9948": 168,
        "9949": 68,
        "9950": 86,
        "9951": 179,
        "9952": 155,
        "9953": 49,
        "9954": 110,
        "9955": 220,
        "9956": 104,
        "9957": 49,
        "9958": 78,
        "9959": 36,
        "9960": 126,
        "9961": 119,
        "9962": 125,
        "9963": 224,
        "9964": 138,
        "9965": 204,
        "9966": 43,
        "9967": 102,
        "9968": 233,
        "9969": 117,
        "9970": 210,
        "9971": 102,
        "9972": 31,
        "9973": 4,
        "9974": 224,
        "9975": 17,
        "9976": 221,
        "9977": 226,
        "9978": 152,
        "9979": 70,
        "9980": 173,
        "9981": 126,
        "9982": 235,
        "9983": 21,
        "9984": 10,
        "9985": 126,
        "9986": 230,
        "9987": 111,
        "9988": 184,
        "9989": 187,
        "9990": 244,
        "9991": 174,
        "9992": 224,
        "9993": 221,
        "9994": 69,
        "9995": 243,
        "9996": 43,
        "9997": 73,
        "9998": 235,
        "9999": 244,
        "10000": 99,
        "10001": 68,
        "10002": 173,
        "10003": 59,
        "10004": 231,
        "10005": 175,
        "10006": 67,
        "10007": 69,
        "10008": 58,
        "10009": 13,
        "10010": 247,
        "10011": 83,
        "10012": 163,
        "10013": 180,
        "10014": 74,
        "10015": 207,
        "10016": 184,
        "10017": 65,
        "10018": 68,
        "10019": 224,
        "10020": 139,
        "10021": 172,
        "10022": 104,
        "10023": 103,
        "10024": 26,
        "10025": 2,
        "10026": 235,
        "10027": 44,
        "10028": 207,
        "10029": 193,
        "10030": 253,
        "10031": 240,
        "10032": 203,
        "10033": 123,
        "10034": 83,
        "10035": 70,
        "10036": 66,
        "10037": 128,
        "10038": 253,
        "10039": 162,
        "10040": 97,
        "10041": 61,
        "10042": 15,
        "10043": 95,
        "10044": 112,
        "10045": 230,
        "10046": 153,
        "10047": 83,
        "10048": 237,
        "10049": 195,
        "10050": 138,
        "10051": 78,
        "10052": 107,
        "10053": 155,
        "10054": 83,
        "10055": 20,
        "10056": 145,
        "10057": 24,
        "10058": 7,
        "10059": 136,
        "10060": 94,
        "10061": 119,
        "10062": 151,
        "10063": 23,
        "10064": 38,
        "10065": 103,
        "10066": 157,
        "10067": 157,
        "10068": 114,
        "10069": 123,
        "10070": 229,
        "10071": 12,
        "10072": 120,
        "10073": 81,
        "10074": 231,
        "10075": 134,
        "10076": 217,
        "10077": 214,
        "10078": 206,
        "10079": 163,
        "10080": 42,
        "10081": 115,
        "10082": 98,
        "10083": 153,
        "10084": 247,
        "10085": 134,
        "10086": 92,
        "10087": 104,
        "10088": 75,
        "10089": 74,
        "10090": 240,
        "10091": 214,
        "10092": 195,
        "10093": 164,
        "10094": 111,
        "10095": 105,
        "10096": 109,
        "10097": 119,
        "10098": 164,
        "10099": 171,
        "10100": 116,
        "10101": 106,
        "10102": 113,
        "10103": 146,
        "10104": 199,
        "10105": 155,
        "10106": 205,
        "10107": 144,
        "10108": 173,
        "10109": 129,
        "10110": 111,
        "10111": 141,
        "10112": 81,
        "10113": 92,
        "10114": 95,
        "10115": 0,
        "10116": 30,
        "10117": 197,
        "10118": 76,
        "10119": 220,
        "10120": 74,
        "10121": 7,
        "10122": 110,
        "10123": 78,
        "10124": 163,
        "10125": 190,
        "10126": 109,
        "10127": 157,
        "10128": 93,
        "10129": 156,
        "10130": 45,
        "10131": 18,
        "10132": 220,
        "10133": 65,
        "10134": 123,
        "10135": 1,
        "10136": 123,
        "10137": 116,
        "10138": 76,
        "10139": 237,
        "10140": 195,
        "10141": 81,
        "10142": 22,
        "10143": 148,
        "10144": 157,
        "10145": 99,
        "10146": 93,
        "10147": 215,
        "10148": 219,
        "10149": 79,
        "10150": 34,
        "10151": 34,
        "10152": 113,
        "10153": 13,
        "10154": 161,
        "10155": 138,
        "10156": 67,
        "10157": 8,
        "10158": 120,
        "10159": 157,
        "10160": 20,
        "10161": 60,
        "10162": 54,
        "10163": 115,
        "10164": 116,
        "10165": 55,
        "10166": 200,
        "10167": 155,
        "10168": 108,
        "10169": 161,
        "10170": 190,
        "10171": 218,
        "10172": 109,
        "10173": 17,
        "10174": 58,
        "10175": 100,
        "10176": 217,
        "10177": 201,
        "10178": 208,
        "10179": 212,
        "10180": 245,
        "10181": 67,
        "10182": 171,
        "10183": 20,
        "10184": 168,
        "10185": 242,
        "10186": 6,
        "10187": 92,
        "10188": 196,
        "10189": 200,
        "10190": 125,
        "10191": 174,
        "10192": 1,
        "10193": 2,
        "10194": 0,
        "10195": 25,
        "10196": 247,
        "10197": 46,
        "10198": 51,
        "10199": 189,
        "10200": 166,
        "10201": 152,
        "10202": 227,
        "10203": 73,
        "10204": 204,
        "10205": 63,
        "10206": 229,
        "10207": 232,
        "10208": 34,
        "10209": 98,
        "10210": 104,
        "10211": 166,
        "10212": 78,
        "10213": 70,
        "10214": 49,
        "10215": 209,
        "10216": 158,
        "10217": 137,
        "10218": 205,
        "10219": 191,
        "10220": 141,
        "10221": 14,
        "10222": 218,
        "10223": 25,
        "10224": 19,
        "10225": 106,
        "10226": 207,
        "10227": 113,
        "10228": 125,
        "10229": 233,
        "10230": 206,
        "10231": 35,
        "10232": 120,
        "10233": 199,
        "10234": 168,
        "10235": 96,
        "10236": 7,
        "10237": 93,
        "10238": 129,
        "10239": 136,
        "10240": 186,
        "10241": 161,
        "10242": 125,
        "10243": 249,
        "10244": 194,
        "10245": 245,
        "10246": 196,
        "10247": 253,
        "10248": 90,
        "10249": 114,
        "10250": 253,
        "10251": 200,
        "10252": 181,
        "10253": 132,
        "10254": 156,
        "10255": 215,
        "10256": 121,
        "10257": 165,
        "10258": 216,
        "10259": 149,
        "10260": 142,
        "10261": 180,
        "10262": 231,
        "10263": 134,
        "10264": 217,
        "10265": 236,
        "10266": 94,
        "10267": 241,
        "10268": 185,
        "10269": 170,
        "10270": 20,
        "10271": 107,
        "10272": 171,
        "10273": 85,
        "10274": 209,
        "10275": 56,
        "10276": 36,
        "10277": 65,
        "10278": 78,
        "10279": 114,
        "10280": 34,
        "10281": 115,
        "10282": 186,
        "10283": 116,
        "10284": 143,
        "10285": 125,
        "10286": 50,
        "10287": 39,
        "10288": 136,
        "10289": 86,
        "10290": 99,
        "10291": 74,
        "10292": 219,
        "10293": 249,
        "10294": 49,
        "10295": 13,
        "10296": 202,
        "10297": 37,
        "10298": 22,
        "10299": 31,
        "10300": 177,
        "10301": 151,
        "10302": 242,
        "10303": 92,
        "10304": 32,
        "10305": 55,
        "10306": 40,
        "10307": 214,
        "10308": 46,
        "10309": 245,
        "10310": 248,
        "10311": 212,
        "10312": 68,
        "10313": 217,
        "10314": 103,
        "10315": 124,
        "10316": 163,
        "10317": 33,
        "10318": 188,
        "10319": 55,
        "10320": 46,
        "10321": 181,
        "10322": 188,
        "10323": 37,
        "10324": 236,
        "10325": 67,
        "10326": 100,
        "10327": 4,
        "10328": 40,
        "10329": 209,
        "10330": 62,
        "10331": 210,
        "10332": 114,
        "10333": 18,
        "10334": 217,
        "10335": 77,
        "10336": 236,
        "10337": 237,
        "10338": 14,
        "10339": 240,
        "10340": 71,
        "10341": 58,
        "10342": 195,
        "10343": 72,
        "10344": 17,
        "10345": 96,
        "10346": 81,
        "10347": 203,
        "10348": 20,
        "10349": 121,
        "10350": 224,
        "10351": 214,
        "10352": 52,
        "10353": 40,
        "10354": 149,
        "10355": 176,
        "10356": 215,
        "10357": 12,
        "10358": 41,
        "10359": 152,
        "10360": 239,
        "10361": 250,
        "10362": 19,
        "10363": 130,
        "10364": 45,
        "10365": 176,
        "10366": 98,
        "10367": 225,
        "10368": 210,
        "10369": 231,
        "10370": 84,
        "10371": 11,
        "10372": 110,
        "10373": 170,
        "10374": 154,
        "10375": 77,
        "10376": 159,
        "10377": 66,
        "10378": 31,
        "10379": 105,
        "10380": 146,
        "10381": 90,
        "10382": 131,
        "10383": 25,
        "10384": 83,
        "10385": 45,
        "10386": 102,
        "10387": 41,
        "10388": 205,
        "10389": 247,
        "10390": 160,
        "10391": 55,
        "10392": 243,
        "10393": 27,
        "10394": 131,
        "10395": 50,
        "10396": 160,
        "10397": 135,
        "10398": 122,
        "10399": 104,
        "10400": 32,
        "10401": 66,
        "10402": 0,
        "10403": 103,
        "10404": 247,
        "10405": 58,
        "10406": 125,
        "10407": 45,
        "10408": 29,
        "10409": 205,
        "10410": 221,
        "10411": 146,
        "10412": 179,
        "10413": 19,
        "10414": 142,
        "10415": 87,
        "10416": 27,
        "10417": 88,
        "10418": 103,
        "10419": 15,
        "10420": 52,
        "10421": 250,
        "10422": 71,
        "10423": 207,
        "10424": 1,
        "10425": 204,
        "10426": 254,
        "10427": 108,
        "10428": 126,
        "10429": 72,
        "10430": 182,
        "10431": 224,
        "10432": 245,
        "10433": 242,
        "10434": 55,
        "10435": 78,
        "10436": 6,
        "10437": 47,
        "10438": 242,
        "10439": 66,
        "10440": 63,
        "10441": 133,
        "10442": 89,
        "10443": 27,
        "10444": 23,
        "10445": 11,
        "10446": 98,
        "10447": 211,
        "10448": 138,
        "10449": 30,
        "10450": 179,
        "10451": 242,
        "10452": 205,
        "10453": 138,
        "10454": 189,
        "10455": 40,
        "10456": 69,
        "10457": 192,
        "10458": 54,
        "10459": 40,
        "10460": 6,
        "10461": 76,
        "10462": 137,
        "10463": 66,
        "10464": 247,
        "10465": 123,
        "10466": 236,
        "10467": 81,
        "10468": 206,
        "10469": 157,
        "10470": 241,
        "10471": 211,
        "10472": 43,
        "10473": 55,
        "10474": 174,
        "10475": 169,
        "10476": 225,
        "10477": 191,
        "10478": 101,
        "10479": 67,
        "10480": 116,
        "10481": 212,
        "10482": 134,
        "10483": 209,
        "10484": 100,
        "10485": 219,
        "10486": 144,
        "10487": 99,
        "10488": 134,
        "10489": 40,
        "10490": 55,
        "10491": 193,
        "10492": 233,
        "10493": 111,
        "10494": 50,
        "10495": 194,
        "10496": 49,
        "10497": 236,
        "10498": 80,
        "10499": 77,
        "10500": 180,
        "10501": 234,
        "10502": 203,
        "10503": 125,
        "10504": 208,
        "10505": 60,
        "10506": 58,
        "10507": 76,
        "10508": 182,
        "10509": 134,
        "10510": 127,
        "10511": 21,
        "10512": 235,
        "10513": 105,
        "10514": 33,
        "10515": 238,
        "10516": 184,
        "10517": 235,
        "10518": 43,
        "10519": 107,
        "10520": 83,
        "10521": 227,
        "10522": 180,
        "10523": 211,
        "10524": 162,
        "10525": 93,
        "10526": 108,
        "10527": 102,
        "10528": 120,
        "10529": 141,
        "10530": 234,
        "10531": 177,
        "10532": 71,
        "10533": 98,
        "10534": 41,
        "10535": 192,
        "10536": 129,
        "10537": 222,
        "10538": 12,
        "10539": 223,
        "10540": 38,
        "10541": 19,
        "10542": 186,
        "10543": 184,
        "10544": 187,
        "10545": 41,
        "10546": 100,
        "10547": 154,
        "10548": 16,
        "10549": 229,
        "10550": 67,
        "10551": 15,
        "10552": 250,
        "10553": 68,
        "10554": 237,
        "10555": 56,
        "10556": 237,
        "10557": 246,
        "10558": 74,
        "10559": 234,
        "10560": 142,
        "10561": 94,
        "10562": 33,
        "10563": 246,
        "10564": 130,
        "10565": 201,
        "10566": 238,
        "10567": 89,
        "10568": 178,
        "10569": 249,
        "10570": 185,
        "10571": 136,
        "10572": 1,
        "10573": 10,
        "10574": 42,
        "10575": 19,
        "10576": 169,
        "10577": 232,
        "10578": 44,
        "10579": 83,
        "10580": 119,
        "10581": 47,
        "10582": 179,
        "10583": 66,
        "10584": 54,
        "10585": 132,
        "10586": 69,
        "10587": 118,
        "10588": 108,
        "10589": 147,
        "10590": 138,
        "10591": 206,
        "10592": 123,
        "10593": 218,
        "10594": 186,
        "10595": 109,
        "10596": 130,
        "10597": 221,
        "10598": 128,
        "10599": 66,
        "10600": 194,
        "10601": 226,
        "10602": 11,
        "10603": 50,
        "10604": 115,
        "10605": 139,
        "10606": 28,
        "10607": 207,
        "10608": 114,
        "10609": 42,
        "10610": 163,
        "10611": 225,
        "10612": 126,
        "10613": 100,
        "10614": 69,
        "10615": 183,
        "10616": 8,
        "10617": 146,
        "10618": 65,
        "10619": 241,
        "10620": 23,
        "10621": 98,
        "10622": 246,
        "10623": 140,
        "10624": 40,
        "10625": 226,
        "10626": 55,
        "10627": 17,
        "10628": 5,
        "10629": 238,
        "10630": 160,
        "10631": 143,
        "10632": 119,
        "10633": 107,
        "10634": 106,
        "10635": 117,
        "10636": 136,
        "10637": 142,
        "10638": 161,
        "10639": 158,
        "10640": 226,
        "10641": 8,
        "10642": 188,
        "10643": 53,
        "10644": 194,
        "10645": 220,
        "10646": 228,
        "10647": 56,
        "10648": 124,
        "10649": 150,
        "10650": 156,
        "10651": 135,
        "10652": 181,
        "10653": 218,
        "10654": 151,
        "10655": 203,
        "10656": 104,
        "10657": 21,
        "10658": 219,
        "10659": 242,
        "10660": 103,
        "10661": 179,
        "10662": 96,
        "10663": 82,
        "10664": 150,
        "10665": 67,
        "10666": 170,
        "10667": 76,
        "10668": 170,
        "10669": 203,
        "10670": 83,
        "10671": 248,
        "10672": 23,
        "10673": 203,
        "10674": 135,
        "10675": 221,
        "10676": 171,
        "10677": 174,
        "10678": 102,
        "10679": 225,
        "10680": 118,
        "10681": 219,
        "10682": 108,
        "10683": 161,
        "10684": 120,
        "10685": 48,
        "10686": 5,
        "10687": 153,
        "10688": 116,
        "10689": 182,
        "10690": 98,
        "10691": 183,
        "10692": 198,
        "10693": 158,
        "10694": 161,
        "10695": 216,
        "10696": 129,
        "10697": 147,
        "10698": 238,
        "10699": 208,
        "10700": 51,
        "10701": 94,
        "10702": 20,
        "10703": 251,
        "10704": 148,
        "10705": 239,
        "10706": 174,
        "10707": 37,
        "10708": 188,
        "10709": 181,
        "10710": 226,
        "10711": 247,
        "10712": 213,
        "10713": 221,
        "10714": 54,
        "10715": 61,
        "10716": 228,
        "10717": 248,
        "10718": 35,
        "10719": 173,
        "10720": 206,
        "10721": 210,
        "10722": 62,
        "10723": 81,
        "10724": 248,
        "10725": 113,
        "10726": 38,
        "10727": 218,
        "10728": 236,
        "10729": 230,
        "10730": 183,
        "10731": 126,
        "10732": 39,
        "10733": 110,
        "10734": 120,
        "10735": 228,
        "10736": 136,
        "10737": 188,
        "10738": 42,
        "10739": 200,
        "10740": 30,
        "10741": 192,
        "10742": 204,
        "10743": 52,
        "10744": 239,
        "10745": 198,
        "10746": 251,
        "10747": 218,
        "10748": 59,
        "10749": 249,
        "10750": 190,
        "10751": 237,
        "10752": 212,
        "10753": 171,
        "10754": 109,
        "10755": 184,
        "10756": 36,
        "10757": 226,
        "10758": 85,
        "10759": 192,
        "10760": 75,
        "10761": 140,
        "10762": 175,
        "10763": 219,
        "10764": 7,
        "10765": 33,
        "10766": 249,
        "10767": 14,
        "10768": 178,
        "10769": 198,
        "10770": 32,
        "10771": 10,
        "10772": 235,
        "10773": 181,
        "10774": 184,
        "10775": 49,
        "10776": 3,
        "10777": 134,
        "10778": 124,
        "10779": 127,
        "10780": 25,
        "10781": 139,
        "10782": 225,
        "10783": 2,
        "10784": 252,
        "10785": 57,
        "10786": 47,
        "10787": 1,
        "10788": 54,
        "10789": 201,
        "10790": 36,
        "10791": 92,
        "10792": 204,
        "10793": 218,
        "10794": 5,
        "10795": 189,
        "10796": 199,
        "10797": 213,
        "10798": 218,
        "10799": 38,
        "10800": 175,
        "10801": 185,
        "10802": 28,
        "10803": 32,
        "10804": 54,
        "10805": 55,
        "10806": 17,
        "10807": 243,
        "10808": 14,
        "10809": 59,
        "10810": 240,
        "10811": 127,
        "10812": 22,
        "10813": 170,
        "10814": 27,
        "10815": 105,
        "10816": 135,
        "10817": 213,
        "10818": 201,
        "10819": 202,
        "10820": 72,
        "10821": 110,
        "10822": 118,
        "10823": 185,
        "10824": 106,
        "10825": 13,
        "10826": 38,
        "10827": 5,
        "10828": 110,
        "10829": 177,
        "10830": 94,
        "10831": 141,
        "10832": 165,
        "10833": 169,
        "10834": 13,
        "10835": 20,
        "10836": 130,
        "10837": 139,
        "10838": 129,
        "10839": 16,
        "10840": 200,
        "10841": 173,
        "10842": 205,
        "10843": 248,
        "10844": 190,
        "10845": 44,
        "10846": 251,
        "10847": 179,
        "10848": 243,
        "10849": 26,
        "10850": 153,
        "10851": 17,
        "10852": 22,
        "10853": 201,
        "10854": 188,
        "10855": 155,
        "10856": 191,
        "10857": 192,
        "10858": 215,
        "10859": 247,
        "10860": 234,
        "10861": 103,
        "10862": 199,
        "10863": 234,
        "10864": 179,
        "10865": 225,
        "10866": 219,
        "10867": 241,
        "10868": 119,
        "10869": 152,
        "10870": 67,
        "10871": 147,
        "10872": 33,
        "10873": 129,
        "10874": 4,
        "10875": 70,
        "10876": 156,
        "10877": 24,
        "10878": 175,
        "10879": 120,
        "10880": 177,
        "10881": 203,
        "10882": 212,
        "10883": 106,
        "10884": 88,
        "10885": 198,
        "10886": 235,
        "10887": 24,
        "10888": 9,
        "10889": 240,
        "10890": 233,
        "10891": 79,
        "10892": 98,
        "10893": 36,
        "10894": 50,
        "10895": 60,
        "10896": 134,
        "10897": 197,
        "10898": 204,
        "10899": 87,
        "10900": 186,
        "10901": 75,
        "10902": 23,
        "10903": 42,
        "10904": 169,
        "10905": 227,
        "10906": 88,
        "10907": 38,
        "10908": 23,
        "10909": 188,
        "10910": 58,
        "10911": 173,
        "10912": 242,
        "10913": 91,
        "10914": 164,
        "10915": 156,
        "10916": 222,
        "10917": 175,
        "10918": 49,
        "10919": 36,
        "10920": 175,
        "10921": 142,
        "10922": 99,
        "10923": 44,
        "10924": 225,
        "10925": 81,
        "10926": 251,
        "10927": 229,
        "10928": 107,
        "10929": 214,
        "10930": 56,
        "10931": 166,
        "10932": 207,
        "10933": 202,
        "10934": 215,
        "10935": 52,
        "10936": 199,
        "10937": 138,
        "10938": 75,
        "10939": 194,
        "10940": 226,
        "10941": 176,
        "10942": 223,
        "10943": 187,
        "10944": 217,
        "10945": 154,
        "10946": 183,
        "10947": 112,
        "10948": 203,
        "10949": 56,
        "10950": 141,
        "10951": 90,
        "10952": 235,
        "10953": 157,
        "10954": 70,
        "10955": 214,
        "10956": 58,
        "10957": 34,
        "10958": 151,
        "10959": 55,
        "10960": 146,
        "10961": 151,
        "10962": 231,
        "10963": 93,
        "10964": 95,
        "10965": 44,
        "10966": 235,
        "10967": 15,
        "10968": 177,
        "10969": 181,
        "10970": 47,
        "10971": 41,
        "10972": 173,
        "10973": 3,
        "10974": 117,
        "10975": 184,
        "10976": 118,
        "10977": 95,
        "10978": 215,
        "10979": 123,
        "10980": 63,
        "10981": 206,
        "10982": 197,
        "10983": 139,
        "10984": 35,
        "10985": 30,
        "10986": 177,
        "10987": 117,
        "10988": 245,
        "10989": 214,
        "10990": 220,
        "10991": 225,
        "10992": 240,
        "10993": 171,
        "10994": 189,
        "10995": 15,
        "10996": 244,
        "10997": 143,
        "10998": 220,
        "10999": 70,
        "11000": 208,
        "11001": 93,
        "11002": 117,
        "11003": 129,
        "11004": 254,
        "11005": 169,
        "11006": 58,
        "11007": 149,
        "11008": 208,
        "11009": 152,
        "11010": 229,
        "11011": 40,
        "11012": 161,
        "11013": 38,
        "11014": 187,
        "11015": 187,
        "11016": 152,
        "11017": 160,
        "11018": 244,
        "11019": 103,
        "11020": 133,
        "11021": 29,
        "11022": 32,
        "11023": 171,
        "11024": 64,
        "11025": 127,
        "11026": 219,
        "11027": 1,
        "11028": 168,
        "11029": 17,
        "11030": 153,
        "11031": 101,
        "11032": 52,
        "11033": 28,
        "11034": 225,
        "11035": 48,
        "11036": 244,
        "11037": 185,
        "11038": 143,
        "11039": 127,
        "11040": 194,
        "11041": 109,
        "11042": 152,
        "11043": 207,
        "11044": 116,
        "11045": 84,
        "11046": 72,
        "11047": 185,
        "11048": 29,
        "11049": 7,
        "11050": 115,
        "11051": 3,
        "11052": 107,
        "11053": 11,
        "11054": 88,
        "11055": 198,
        "11056": 162,
        "11057": 204,
        "11058": 64,
        "11059": 128,
        "11060": 218,
        "11061": 99,
        "11062": 93,
        "11063": 74,
        "11064": 197,
        "11065": 169,
        "11066": 60,
        "11067": 179,
        "11068": 43,
        "11069": 50,
        "11070": 12,
        "11071": 192,
        "11072": 242,
        "11073": 8,
        "11074": 193,
        "11075": 233,
        "11076": 118,
        "11077": 237,
        "11078": 48,
        "11079": 121,
        "11080": 251,
        "11081": 158,
        "11082": 87,
        "11083": 41,
        "11084": 131,
        "11085": 193,
        "11086": 241,
        "11087": 79,
        "11088": 136,
        "11089": 84,
        "11090": 24,
        "11091": 195,
        "11092": 118,
        "11093": 150,
        "11094": 103,
        "11095": 44,
        "11096": 129,
        "11097": 72,
        "11098": 80,
        "11099": 89,
        "11100": 3,
        "11101": 203,
        "11102": 72,
        "11103": 196,
        "11104": 71,
        "11105": 252,
        "11106": 48,
        "11107": 156,
        "11108": 241,
        "11109": 53,
        "11110": 187,
        "11111": 233,
        "11112": 188,
        "11113": 227,
        "11114": 151,
        "11115": 65,
        "11116": 153,
        "11117": 241,
        "11118": 193,
        "11119": 206,
        "11120": 25,
        "11121": 163,
        "11122": 226,
        "11123": 243,
        "11124": 218,
        "11125": 201,
        "11126": 79,
        "11127": 74,
        "11128": 195,
        "11129": 134,
        "11130": 170,
        "11131": 35,
        "11132": 51,
        "11133": 64,
        "11134": 75,
        "11135": 160,
        "11136": 176,
        "11137": 232,
        "11138": 135,
        "11139": 69,
        "11140": 149,
        "11141": 136,
        "11142": 253,
        "11143": 239,
        "11144": 50,
        "11145": 47,
        "11146": 27,
        "11147": 250,
        "11148": 236,
        "11149": 43,
        "11150": 109,
        "11151": 19,
        "11152": 253,
        "11153": 1,
        "11154": 48,
        "11155": 132,
        "11156": 197,
        "11157": 75,
        "11158": 201,
        "11159": 96,
        "11160": 174,
        "11161": 97,
        "11162": 223,
        "11163": 106,
        "11164": 199,
        "11165": 182,
        "11166": 181,
        "11167": 60,
        "11168": 198,
        "11169": 186,
        "11170": 130,
        "11171": 173,
        "11172": 200,
        "11173": 26,
        "11174": 122,
        "11175": 185,
        "11176": 189,
        "11177": 173,
        "11178": 60,
        "11179": 203,
        "11180": 238,
        "11181": 102,
        "11182": 229,
        "11183": 70,
        "11184": 145,
        "11185": 59,
        "11186": 184,
        "11187": 158,
        "11188": 206,
        "11189": 99,
        "11190": 114,
        "11191": 43,
        "11192": 122,
        "11193": 16,
        "11194": 174,
        "11195": 116,
        "11196": 209,
        "11197": 224,
        "11198": 87,
        "11199": 169,
        "11200": 154,
        "11201": 214,
        "11202": 252,
        "11203": 121,
        "11204": 143,
        "11205": 245,
        "11206": 178,
        "11207": 175,
        "11208": 146,
        "11209": 184,
        "11210": 144,
        "11211": 153,
        "11212": 44,
        "11213": 215,
        "11214": 88,
        "11215": 64,
        "11216": 153,
        "11217": 180,
        "11218": 76,
        "11219": 248,
        "11220": 228,
        "11221": 171,
        "11222": 37,
        "11223": 30,
        "11224": 211,
        "11225": 58,
        "11226": 53,
        "11227": 131,
        "11228": 137,
        "11229": 39,
        "11230": 161,
        "11231": 227,
        "11232": 213,
        "11233": 141,
        "11234": 247,
        "11235": 0,
        "11236": 12,
        "11237": 188,
        "11238": 48,
        "11239": 45,
        "11240": 240,
        "11241": 66,
        "11242": 52,
        "11243": 19,
        "11244": 65,
        "11245": 235,
        "11246": 173,
        "11247": 103,
        "11248": 236,
        "11249": 193,
        "11250": 219,
        "11251": 109,
        "11252": 199,
        "11253": 190,
        "11254": 215,
        "11255": 125,
        "11256": 80,
        "11257": 10,
        "11258": 11,
        "11259": 60,
        "11260": 146,
        "11261": 79,
        "11262": 40,
        "11263": 111,
        "11264": 39,
        "11265": 47,
        "11266": 198,
        "11267": 248,
        "11268": 59,
        "11269": 171,
        "11270": 172,
        "11271": 42,
        "11272": 103,
        "11273": 232,
        "11274": 90,
        "11275": 134,
        "11276": 235,
        "11277": 16,
        "11278": 226,
        "11279": 228,
        "11280": 232,
        "11281": 30,
        "11282": 177,
        "11283": 165,
        "11284": 223,
        "11285": 196,
        "11286": 239,
        "11287": 231,
        "11288": 68,
        "11289": 49,
        "11290": 109,
        "11291": 81,
        "11292": 244,
        "11293": 250,
        "11294": 47,
        "11295": 148,
        "11296": 122,
        "11297": 97,
        "11298": 22,
        "11299": 180,
        "11300": 215,
        "11301": 104,
        "11302": 245,
        "11303": 143,
        "11304": 20,
        "11305": 81,
        "11306": 30,
        "11307": 42,
        "11308": 182,
        "11309": 114,
        "11310": 104,
        "11311": 219,
        "11312": 119,
        "11313": 70,
        "11314": 201,
        "11315": 161,
        "11316": 249,
        "11317": 87,
        "11318": 170,
        "11319": 76,
        "11320": 132,
        "11321": 173,
        "11322": 156,
        "11323": 124,
        "11324": 235,
        "11325": 142,
        "11326": 241,
        "11327": 120,
        "11328": 244,
        "11329": 243,
        "11330": 166,
        "11331": 153,
        "11332": 92,
        "11333": 13,
        "11334": 136,
        "11335": 121,
        "11336": 212,
        "11337": 236,
        "11338": 175,
        "11339": 192,
        "11340": 49,
        "11341": 233,
        "11342": 185,
        "11343": 182,
        "11344": 133,
        "11345": 208,
        "11346": 194,
        "11347": 216,
        "11348": 206,
        "11349": 129,
        "11350": 24,
        "11351": 27,
        "11352": 16,
        "11353": 41,
        "11354": 116,
        "11355": 210,
        "11356": 68,
        "11357": 83,
        "11358": 212,
        "11359": 215,
        "11360": 59,
        "11361": 236,
        "11362": 120,
        "11363": 48,
        "11364": 24,
        "11365": 136,
        "11366": 26,
        "11367": 234,
        "11368": 69,
        "11369": 101,
        "11370": 111,
        "11371": 231,
        "11372": 220,
        "11373": 1,
        "11374": 126,
        "11375": 101,
        "11376": 164,
        "11377": 89,
        "11378": 107,
        "11379": 35,
        "11380": 97,
        "11381": 149,
        "11382": 247,
        "11383": 104,
        "11384": 247,
        "11385": 74,
        "11386": 170,
        "11387": 84,
        "11388": 227,
        "11389": 83,
        "11390": 150,
        "11391": 164,
        "11392": 85,
        "11393": 26,
        "11394": 83,
        "11395": 89,
        "11396": 233,
        "11397": 188,
        "11398": 142,
        "11399": 223,
        "11400": 252,
        "11401": 193,
        "11402": 81,
        "11403": 163,
        "11404": 76,
        "11405": 196,
        "11406": 132,
        "11407": 57,
        "11408": 119,
        "11409": 139,
        "11410": 115,
        "11411": 110,
        "11412": 116,
        "11413": 125,
        "11414": 182,
        "11415": 18,
        "11416": 124,
        "11417": 105,
        "11418": 62,
        "11419": 242,
        "11420": 62,
        "11421": 81,
        "11422": 133,
        "11423": 200,
        "11424": 67,
        "11425": 172,
        "11426": 200,
        "11427": 48,
        "11428": 25,
        "11429": 187,
        "11430": 251,
        "11431": 234,
        "11432": 152,
        "11433": 220,
        "11434": 4,
        "11435": 37,
        "11436": 232,
        "11437": 99,
        "11438": 71,
        "11439": 214,
        "11440": 104,
        "11441": 69,
        "11442": 5,
        "11443": 68,
        "11444": 24,
        "11445": 226,
        "11446": 195,
        "11447": 81,
        "11448": 81,
        "11449": 73,
        "11450": 8,
        "11451": 164,
        "11452": 42,
        "11453": 40,
        "11454": 255,
        "11455": 238,
        "11456": 70,
        "11457": 230,
        "11458": 191,
        "11459": 57,
        "11460": 196,
        "11461": 96,
        "11462": 176,
        "11463": 48,
        "11464": 82,
        "11465": 245,
        "11466": 214,
        "11467": 224,
        "11468": 8,
        "11469": 31,
        "11470": 86,
        "11471": 191,
        "11472": 234,
        "11473": 47,
        "11474": 39,
        "11475": 40,
        "11476": 55,
        "11477": 99,
        "11478": 22,
        "11479": 84,
        "11480": 104,
        "11481": 211,
        "11482": 213,
        "11483": 240,
        "11484": 128,
        "11485": 82,
        "11486": 106,
        "11487": 109,
        "11488": 51,
        "11489": 91,
        "11490": 28,
        "11491": 165,
        "11492": 182,
        "11493": 11,
        "11494": 81,
        "11495": 149,
        "11496": 239,
        "11497": 21,
        "11498": 92,
        "11499": 210,
        "11500": 73,
        "11501": 115,
        "11502": 166,
        "11503": 150,
        "11504": 248,
        "11505": 190,
        "11506": 14,
        "11507": 100,
        "11508": 180,
        "11509": 195,
        "11510": 137,
        "11511": 152,
        "11512": 119,
        "11513": 167,
        "11514": 49,
        "11515": 232,
        "11516": 112,
        "11517": 170,
        "11518": 156,
        "11519": 118,
        "11520": 34,
        "11521": 165,
        "11522": 254,
        "11523": 232,
        "11524": 55,
        "11525": 244,
        "11526": 250,
        "11527": 41,
        "11528": 66,
        "11529": 150,
        "11530": 14,
        "11531": 64,
        "11532": 128,
        "11533": 236,
        "11534": 59,
        "11535": 47,
        "11536": 235,
        "11537": 118,
        "11538": 71,
        "11539": 214,
        "11540": 218,
        "11541": 236,
        "11542": 252,
        "11543": 130,
        "11544": 242,
        "11545": 22,
        "11546": 48,
        "11547": 128,
        "11548": 84,
        "11549": 116,
        "11550": 160,
        "11551": 199,
        "11552": 123,
        "11553": 21,
        "11554": 107,
        "11555": 10,
        "11556": 166,
        "11557": 206,
        "11558": 99,
        "11559": 145,
        "11560": 169,
        "11561": 115,
        "11562": 104,
        "11563": 234,
        "11564": 70,
        "11565": 39,
        "11566": 97,
        "11567": 179,
        "11568": 81,
        "11569": 130,
        "11570": 169,
        "11571": 250,
        "11572": 19,
        "11573": 116,
        "11574": 133,
        "11575": 54,
        "11576": 109,
        "11577": 233,
        "11578": 184,
        "11579": 173,
        "11580": 181,
        "11581": 137,
        "11582": 11,
        "11583": 255,
        "11584": 213,
        "11585": 154,
        "11586": 100,
        "11587": 69,
        "11588": 202,
        "11589": 63,
        "11590": 20,
        "11591": 196,
        "11592": 113,
        "11593": 165,
        "11594": 180,
        "11595": 45,
        "11596": 243,
        "11597": 102,
        "11598": 81,
        "11599": 239,
        "11600": 8,
        "11601": 149,
        "11602": 68,
        "11603": 182,
        "11604": 229,
        "11605": 136,
        "11606": 154,
        "11607": 114,
        "11608": 66,
        "11609": 28,
        "11610": 158,
        "11611": 219,
        "11612": 255,
        "11613": 159,
        "11614": 206,
        "11615": 103,
        "11616": 47,
        "11617": 97,
        "11618": 54,
        "11619": 99,
        "11620": 230,
        "11621": 51,
        "11622": 248,
        "11623": 118,
        "11624": 201,
        "11625": 135,
        "11626": 250,
        "11627": 86,
        "11628": 166,
        "11629": 75,
        "11630": 150,
        "11631": 219,
        "11632": 54,
        "11633": 165,
        "11634": 150,
        "11635": 110,
        "11636": 129,
        "11637": 117,
        "11638": 54,
        "11639": 79,
        "11640": 112,
        "11641": 120,
        "11642": 137,
        "11643": 196,
        "11644": 87,
        "11645": 100,
        "11646": 103,
        "11647": 113,
        "11648": 104,
        "11649": 77,
        "11650": 44,
        "11651": 169,
        "11652": 89,
        "11653": 99,
        "11654": 219,
        "11655": 41,
        "11656": 154,
        "11657": 167,
        "11658": 76,
        "11659": 129,
        "11660": 134,
        "11661": 78,
        "11662": 161,
        "11663": 129,
        "11664": 235,
        "11665": 141,
        "11666": 169,
        "11667": 14,
        "11668": 36,
        "11669": 123,
        "11670": 85,
        "11671": 148,
        "11672": 205,
        "11673": 92,
        "11674": 202,
        "11675": 160,
        "11676": 5,
        "11677": 141,
        "11678": 124,
        "11679": 254,
        "11680": 106,
        "11681": 36,
        "11682": 116,
        "11683": 95,
        "11684": 208,
        "11685": 188,
        "11686": 38,
        "11687": 216,
        "11688": 155,
        "11689": 1,
        "11690": 136,
        "11691": 112,
        "11692": 182,
        "11693": 109,
        "11694": 37,
        "11695": 37,
        "11696": 250,
        "11697": 87,
        "11698": 246,
        "11699": 210,
        "11700": 202,
        "11701": 238,
        "11702": 63,
        "11703": 3,
        "11704": 181,
        "11705": 70,
        "11706": 146,
        "11707": 105,
        "11708": 169,
        "11709": 208,
        "11710": 75,
        "11711": 80,
        "11712": 128,
        "11713": 73,
        "11714": 204,
        "11715": 16,
        "11716": 166,
        "11717": 191,
        "11718": 224,
        "11719": 181,
        "11720": 65,
        "11721": 88,
        "11722": 117,
        "11723": 7,
        "11724": 14,
        "11725": 174,
        "11726": 132,
        "11727": 221,
        "11728": 138,
        "11729": 140,
        "11730": 7,
        "11731": 49,
        "11732": 117,
        "11733": 33,
        "11734": 133,
        "11735": 26,
        "11736": 118,
        "11737": 220,
        "11738": 221,
        "11739": 198,
        "11740": 168,
        "11741": 38,
        "11742": 68,
        "11743": 76,
        "11744": 40,
        "11745": 192,
        "11746": 1,
        "11747": 14,
        "11748": 142,
        "11749": 122,
        "11750": 134,
        "11751": 173,
        "11752": 51,
        "11753": 38,
        "11754": 46,
        "11755": 14,
        "11756": 175,
        "11757": 10,
        "11758": 111,
        "11759": 232,
        "11760": 101,
        "11761": 46,
        "11762": 25,
        "11763": 133,
        "11764": 51,
        "11765": 123,
        "11766": 162,
        "11767": 56,
        "11768": 114,
        "11769": 139,
        "11770": 22,
        "11771": 201,
        "11772": 207,
        "11773": 2,
        "11774": 235,
        "11775": 69,
        "11776": 114,
        "11777": 95,
        "11778": 38,
        "11779": 202,
        "11780": 111,
        "11781": 203,
        "11782": 221,
        "11783": 23,
        "11784": 217,
        "11785": 123,
        "11786": 183,
        "11787": 129,
        "11788": 237,
        "11789": 111,
        "11790": 96,
        "11791": 245,
        "11792": 63,
        "11793": 2,
        "11794": 12,
        "11795": 150,
        "11796": 163,
        "11797": 229,
        "11798": 86,
        "11799": 86,
        "11800": 36,
        "11801": 189,
        "11802": 251,
        "11803": 201,
        "11804": 5,
        "11805": 239,
        "11806": 189,
        "11807": 181,
        "11808": 177,
        "11809": 210,
        "11810": 249,
        "11811": 23,
        "11812": 53,
        "11813": 38,
        "11814": 150,
        "11815": 49,
        "11816": 177,
        "11817": 235,
        "11818": 43,
        "11819": 248,
        "11820": 187,
        "11821": 163,
        "11822": 197,
        "11823": 144,
        "11824": 105,
        "11825": 152,
        "11826": 186,
        "11827": 14,
        "11828": 144,
        "11829": 189,
        "11830": 157,
        "11831": 156,
        "11832": 244,
        "11833": 65,
        "11834": 170,
        "11835": 168,
        "11836": 164,
        "11837": 49,
        "11838": 142,
        "11839": 150,
        "11840": 218,
        "11841": 31,
        "11842": 1,
        "11843": 138,
        "11844": 255,
        "11845": 148,
        "11846": 68,
        "11847": 255,
        "11848": 164,
        "11849": 195,
        "11850": 150,
        "11851": 51,
        "11852": 224,
        "11853": 207,
        "11854": 29,
        "11855": 103,
        "11856": 240,
        "11857": 25,
        "11858": 114,
        "11859": 27,
        "11860": 189,
        "11861": 76,
        "11862": 62,
        "11863": 50,
        "11864": 213,
        "11865": 227,
        "11866": 189,
        "11867": 65,
        "11868": 20,
        "11869": 26,
        "11870": 190,
        "11871": 3,
        "11872": 223,
        "11873": 1,
        "11874": 242,
        "11875": 158,
        "11876": 110,
        "11877": 26,
        "11878": 88,
        "11879": 224,
        "11880": 89,
        "11881": 161,
        "11882": 109,
        "11883": 103,
        "11884": 143,
        "11885": 253,
        "11886": 2,
        "11887": 96,
        "11888": 45,
        "11889": 104,
        "11890": 207,
        "11891": 185,
        "11892": 115,
        "11893": 91,
        "11894": 89,
        "11895": 133,
        "11896": 222,
        "11897": 198,
        "11898": 27,
        "11899": 180,
        "11900": 170,
        "11901": 17,
        "11902": 35,
        "11903": 19,
        "11904": 55,
        "11905": 25,
        "11906": 59,
        "11907": 99,
        "11908": 70,
        "11909": 129,
        "11910": 254,
        "11911": 29,
        "11912": 81,
        "11913": 223,
        "11914": 158,
        "11915": 249,
        "11916": 124,
        "11917": 229,
        "11918": 231,
        "11919": 51,
        "11920": 76,
        "11921": 35,
        "11922": 142,
        "11923": 67,
        "11924": 154,
        "11925": 179,
        "11926": 47,
        "11927": 159,
        "11928": 185,
        "11929": 121,
        "11930": 81,
        "11931": 29,
        "11932": 250,
        "11933": 117,
        "11934": 93,
        "11935": 175,
        "11936": 212,
        "11937": 165,
        "11938": 141,
        "11939": 72,
        "11940": 24,
        "11941": 100,
        "11942": 74,
        "11943": 229,
        "11944": 4,
        "11945": 4,
        "11946": 45,
        "11947": 42,
        "11948": 229,
        "11949": 226,
        "11950": 101,
        "11951": 47,
        "11952": 168,
        "11953": 116,
        "11954": 12,
        "11955": 138,
        "11956": 154,
        "11957": 153,
        "11958": 37,
        "11959": 156,
        "11960": 142,
        "11961": 112,
        "11962": 100,
        "11963": 235,
        "11964": 9,
        "11965": 56,
        "11966": 144,
        "11967": 72,
        "11968": 51,
        "11969": 251,
        "11970": 64,
        "11971": 64,
        "11972": 228,
        "11973": 55,
        "11974": 240,
        "11975": 181,
        "11976": 0,
        "11977": 4,
        "11978": 95,
        "11979": 48,
        "11980": 236,
        "11981": 8,
        "11982": 112,
        "11983": 188,
        "11984": 228,
        "11985": 49,
        "11986": 44,
        "11987": 249,
        "11988": 227,
        "11989": 80,
        "11990": 120,
        "11991": 71,
        "11992": 89,
        "11993": 9,
        "11994": 79,
        "11995": 75,
        "11996": 73,
        "11997": 1,
        "11998": 114,
        "11999": 248,
        "12000": 253,
        "12001": 73,
        "12002": 196,
        "12003": 60,
        "12004": 2,
        "12005": 241,
        "12006": 110,
        "12007": 105,
        "12008": 66,
        "12009": 1,
        "12010": 127,
        "12011": 125,
        "12012": 46,
        "12013": 98,
        "12014": 76,
        "12015": 2,
        "12016": 138,
        "12017": 73,
        "12018": 39,
        "12019": 108,
        "12020": 116,
        "12021": 65,
        "12022": 125,
        "12023": 235,
        "12024": 176,
        "12025": 223,
        "12026": 66,
        "12027": 251,
        "12028": 222,
        "12029": 131,
        "12030": 183,
        "12031": 153,
        "12032": 95,
        "12033": 93,
        "12034": 49,
        "12035": 129,
        "12036": 153,
        "12037": 131,
        "12038": 80,
        "12039": 35,
        "12040": 229,
        "12041": 228,
        "12042": 97,
        "12043": 225,
        "12044": 0,
        "12045": 146,
        "12046": 198,
        "12047": 201,
        "12048": 114,
        "12049": 169,
        "12050": 216,
        "12051": 155,
        "12052": 17,
        "12053": 50,
        "12054": 223,
        "12055": 34,
        "12056": 72,
        "12057": 104,
        "12058": 62,
        "12059": 124,
        "12060": 47,
        "12061": 249,
        "12062": 83,
        "12063": 225,
        "12064": 140,
        "12065": 253,
        "12066": 242,
        "12067": 233,
        "12068": 164,
        "12069": 201,
        "12070": 230,
        "12071": 198,
        "12072": 214,
        "12073": 188,
        "12074": 97,
        "12075": 144,
        "12076": 2,
        "12077": 250,
        "12078": 100,
        "12079": 142,
        "12080": 8,
        "12081": 175,
        "12082": 97,
        "12083": 81,
        "12084": 20,
        "12085": 167,
        "12086": 35,
        "12087": 204,
        "12088": 13,
        "12089": 188,
        "12090": 246,
        "12091": 131,
        "12092": 243,
        "12093": 138,
        "12094": 126,
        "12095": 124,
        "12096": 164,
        "12097": 49,
        "12098": 232,
        "12099": 45,
        "12100": 232,
        "12101": 43,
        "12102": 27,
        "12103": 71,
        "12104": 136,
        "12105": 75,
        "12106": 56,
        "12107": 161,
        "12108": 56,
        "12109": 136,
        "12110": 11,
        "12111": 117,
        "12112": 44,
        "12113": 116,
        "12114": 66,
        "12115": 144,
        "12116": 116,
        "12117": 250,
        "12118": 170,
        "12119": 201,
        "12120": 229,
        "12121": 70,
        "12122": 38,
        "12123": 103,
        "12124": 94,
        "12125": 116,
        "12126": 27,
        "12127": 126,
        "12128": 216,
        "12129": 135,
        "12130": 182,
        "12131": 244,
        "12132": 102,
        "12133": 31,
        "12134": 191,
        "12135": 194,
        "12136": 98,
        "12137": 162,
        "12138": 85,
        "12139": 250,
        "12140": 133,
        "12141": 37,
        "12142": 183,
        "12143": 105,
        "12144": 211,
        "12145": 241,
        "12146": 230,
        "12147": 219,
        "12148": 206,
        "12149": 196,
        "12150": 34,
        "12151": 50,
        "12152": 90,
        "12153": 167,
        "12154": 169,
        "12155": 88,
        "12156": 174,
        "12157": 14,
        "12158": 114,
        "12159": 163,
        "12160": 7,
        "12161": 185,
        "12162": 99,
        "12163": 179,
        "12164": 189,
        "12165": 46,
        "12166": 21,
        "12167": 221,
        "12168": 120,
        "12169": 153,
        "12170": 109,
        "12171": 212,
        "12172": 4,
        "12173": 107,
        "12174": 225,
        "12175": 38,
        "12176": 168,
        "12177": 199,
        "12178": 18,
        "12179": 43,
        "12180": 178,
        "12181": 133,
        "12182": 245,
        "12183": 173,
        "12184": 87,
        "12185": 153,
        "12186": 130,
        "12187": 156,
        "12188": 218,
        "12189": 5,
        "12190": 114,
        "12191": 219,
        "12192": 162,
        "12193": 45,
        "12194": 109,
        "12195": 55,
        "12196": 174,
        "12197": 160,
        "12198": 109,
        "12199": 175,
        "12200": 99,
        "12201": 185,
        "12202": 222,
        "12203": 58,
        "12204": 127,
        "12205": 238,
        "12206": 147,
        "12207": 116,
        "12208": 213,
        "12209": 193,
        "12210": 162,
        "12211": 77,
        "12212": 229,
        "12213": 114,
        "12214": 203,
        "12215": 100,
        "12216": 35,
        "12217": 205,
        "12218": 159,
        "12219": 247,
        "12220": 86,
        "12221": 107,
        "12222": 19,
        "12223": 96,
        "12224": 243,
        "12225": 185,
        "12226": 109,
        "12227": 60,
        "12228": 244,
        "12229": 126,
        "12230": 119,
        "12231": 12,
        "12232": 231,
        "12233": 20,
        "12234": 36,
        "12235": 127,
        "12236": 144,
        "12237": 111,
        "12238": 55,
        "12239": 171,
        "12240": 224,
        "12241": 39,
        "12242": 57,
        "12243": 92,
        "12244": 152,
        "12245": 79,
        "12246": 167,
        "12247": 116,
        "12248": 111,
        "12249": 191,
        "12250": 63,
        "12251": 207,
        "12252": 80,
        "12253": 151,
        "12254": 234,
        "12255": 225,
        "12256": 83,
        "12257": 251,
        "12258": 239,
        "12259": 16,
        "12260": 243,
        "12261": 19,
        "12262": 138,
        "12263": 68,
        "12264": 231,
        "12265": 13,
        "12266": 32,
        "12267": 176,
        "12268": 73,
        "12269": 18,
        "12270": 164,
        "12271": 173,
        "12272": 227,
        "12273": 225,
        "12274": 222,
        "12275": 104,
        "12276": 32,
        "12277": 28,
        "12278": 185,
        "12279": 1,
        "12280": 234,
        "12281": 67,
        "12282": 11,
        "12283": 190,
        "12284": 229,
        "12285": 95,
        "12286": 250,
        "12287": 255,
        "12288": 142,
        "12289": 9,
        "12290": 34,
        "12291": 116,
        "12292": 157,
        "12293": 227,
        "12294": 108,
        "12295": 62,
        "12296": 194,
        "12297": 165,
        "12298": 117,
        "12299": 193,
        "12300": 228,
        "12301": 18,
        "12302": 75,
        "12303": 104,
        "12304": 12,
        "12305": 146,
        "12306": 66,
        "12307": 245,
        "12308": 249,
        "12309": 110,
        "12310": 76,
        "12311": 68,
        "12312": 11,
        "12313": 197,
        "12314": 210,
        "12315": 62,
        "12316": 232,
        "12317": 171,
        "12318": 162,
        "12319": 73,
        "12320": 35,
        "12321": 59,
        "12322": 9,
        "12323": 170,
        "12324": 78,
        "12325": 112,
        "12326": 37,
        "12327": 183,
        "12328": 185,
        "12329": 93,
        "12330": 7,
        "12331": 127,
        "12332": 119,
        "12333": 246,
        "12334": 96,
        "12335": 226,
        "12336": 115,
        "12337": 91,
        "12338": 121,
        "12339": 66,
        "12340": 200,
        "12341": 121,
        "12342": 108,
        "12343": 145,
        "12344": 153,
        "12345": 213,
        "12346": 173,
        "12347": 205,
        "12348": 193,
        "12349": 93,
        "12350": 34,
        "12351": 180,
        "12352": 199,
        "12353": 105,
        "12354": 93,
        "12355": 57,
        "12356": 140,
        "12357": 145,
        "12358": 129,
        "12359": 120,
        "12360": 37,
        "12361": 167,
        "12362": 194,
        "12363": 16,
        "12364": 180,
        "12365": 23,
        "12366": 66,
        "12367": 126,
        "12368": 238,
        "12369": 27,
        "12370": 214,
        "12371": 122,
        "12372": 230,
        "12373": 106,
        "12374": 49,
        "12375": 116,
        "12376": 35,
        "12377": 162,
        "12378": 207,
        "12379": 26,
        "12380": 154,
        "12381": 170,
        "12382": 177,
        "12383": 209,
        "12384": 56,
        "12385": 46,
        "12386": 126,
        "12387": 234,
        "12388": 227,
        "12389": 165,
        "12390": 171,
        "12391": 172,
        "12392": 122,
        "12393": 245,
        "12394": 154,
        "12395": 16,
        "12396": 199,
        "12397": 231,
        "12398": 216,
        "12399": 156,
        "12400": 87,
        "12401": 254,
        "12402": 246,
        "12403": 97,
        "12404": 2,
        "12405": 125,
        "12406": 86,
        "12407": 72,
        "12408": 44,
        "12409": 204,
        "12410": 119,
        "12411": 193,
        "12412": 99,
        "12413": 78,
        "12414": 207,
        "12415": 30,
        "12416": 181,
        "12417": 249,
        "12418": 47,
        "12419": 237,
        "12420": 48,
        "12421": 65,
        "12422": 101,
        "12423": 118,
        "12424": 29,
        "12425": 76,
        "12426": 143,
        "12427": 180,
        "12428": 227,
        "12429": 239,
        "12430": 65,
        "12431": 29,
        "12432": 118,
        "12433": 69,
        "12434": 245,
        "12435": 191,
        "12436": 3,
        "12437": 233,
        "12438": 107,
        "12439": 7,
        "12440": 36,
        "12441": 111,
        "12442": 66,
        "12443": 49,
        "12444": 3,
        "12445": 247,
        "12446": 177,
        "12447": 147,
        "12448": 239,
        "12449": 45,
        "12450": 227,
        "12451": 170,
        "12452": 208,
        "12453": 96,
        "12454": 129,
        "12455": 245,
        "12456": 80,
        "12457": 31,
        "12458": 230,
        "12459": 187,
        "12460": 142,
        "12461": 167,
        "12462": 243,
        "12463": 195,
        "12464": 146,
        "12465": 145,
        "12466": 67,
        "12467": 170,
        "12468": 77,
        "12469": 254,
        "12470": 101,
        "12471": 222,
        "12472": 137,
        "12473": 113,
        "12474": 109,
        "12475": 133,
        "12476": 235,
        "12477": 121,
        "12478": 235,
        "12479": 70,
        "12480": 66,
        "12481": 167,
        "12482": 8,
        "12483": 53,
        "12484": 27,
        "12485": 210,
        "12486": 23,
        "12487": 168,
        "12488": 35,
        "12489": 62,
        "12490": 47,
        "12491": 240,
        "12492": 47,
        "12493": 250,
        "12494": 85,
        "12495": 57,
        "12496": 209,
        "12497": 119,
        "12498": 181,
        "12499": 21,
        "12500": 13,
        "12501": 153,
        "12502": 216,
        "12503": 170,
        "12504": 36,
        "12505": 243,
        "12506": 206,
        "12507": 232,
        "12508": 189,
        "12509": 1,
        "12510": 64,
        "12511": 188,
        "12512": 142,
        "12513": 33,
        "12514": 209,
        "12515": 26,
        "12516": 178,
        "12517": 175,
        "12518": 105,
        "12519": 203,
        "12520": 8,
        "12521": 95,
        "12522": 253,
        "12523": 187,
        "12524": 153,
        "12525": 170,
        "12526": 186,
        "12527": 187,
        "12528": 180,
        "12529": 169,
        "12530": 153,
        "12531": 182,
        "12532": 106,
        "12533": 80,
        "12534": 239,
        "12535": 95,
        "12536": 85,
        "12537": 188,
        "12538": 30,
        "12539": 221,
        "12540": 187,
        "12541": 72,
        "12542": 131,
        "12543": 40,
        "12544": 76,
        "12545": 43,
        "12546": 56,
        "12547": 221,
        "12548": 138,
        "12549": 227,
        "12550": 241,
        "12551": 26,
        "12552": 145,
        "12553": 90,
        "12554": 104,
        "12555": 151,
        "12556": 144,
        "12557": 180,
        "12558": 127,
        "12559": 53,
        "12560": 83,
        "12561": 91,
        "12562": 191,
        "12563": 75,
        "12564": 99,
        "12565": 151,
        "12566": 219,
        "12567": 253,
        "12568": 27,
        "12569": 47,
        "12570": 72,
        "12571": 90,
        "12572": 212,
        "12573": 20,
        "12574": 206,
        "12575": 80,
        "12576": 21,
        "12577": 8,
        "12578": 211,
        "12579": 156,
        "12580": 192,
        "12581": 91,
        "12582": 94,
        "12583": 226,
        "12584": 228,
        "12585": 210,
        "12586": 166,
        "12587": 138,
        "12588": 32,
        "12589": 22,
        "12590": 222,
        "12591": 86,
        "12592": 161,
        "12593": 247,
        "12594": 78,
        "12595": 208,
        "12596": 7,
        "12597": 246,
        "12598": 204,
        "12599": 112,
        "12600": 11,
        "12601": 12,
        "12602": 15,
        "12603": 4,
        "12604": 177,
        "12605": 100,
        "12606": 61,
        "12607": 139,
        "12608": 98,
        "12609": 228,
        "12610": 56,
        "12611": 219,
        "12612": 249,
        "12613": 13,
        "12614": 204,
        "12615": 21,
        "12616": 252,
        "12617": 78,
        "12618": 243,
        "12619": 222,
        "12620": 41,
        "12621": 129,
        "12622": 56,
        "12623": 176,
        "12624": 236,
        "12625": 193,
        "12626": 25,
        "12627": 148,
        "12628": 172,
        "12629": 37,
        "12630": 158,
        "12631": 29,
        "12632": 104,
        "12633": 149,
        "12634": 108,
        "12635": 25,
        "12636": 126,
        "12637": 96,
        "12638": 239,
        "12639": 207,
        "12640": 28,
        "12641": 216,
        "12642": 154,
        "12643": 223,
        "12644": 44,
        "12645": 159,
        "12646": 151,
        "12647": 197,
        "12648": 241,
        "12649": 162,
        "12650": 49,
        "12651": 41,
        "12652": 171,
        "12653": 74,
        "12654": 244,
        "12655": 114,
        "12656": 84,
        "12657": 135,
        "12658": 137,
        "12659": 226,
        "12660": 110,
        "12661": 242,
        "12662": 29,
        "12663": 110,
        "12664": 249,
        "12665": 155,
        "12666": 251,
        "12667": 40,
        "12668": 173,
        "12669": 219,
        "12670": 190,
        "12671": 90,
        "12672": 130,
        "12673": 59,
        "12674": 98,
        "12675": 51,
        "12676": 235,
        "12677": 237,
        "12678": 81,
        "12679": 196,
        "12680": 158,
        "12681": 82,
        "12682": 24,
        "12683": 65,
        "12684": 191,
        "12685": 196,
        "12686": 151,
        "12687": 124,
        "12688": 127,
        "12689": 107,
        "12690": 196,
        "12691": 208,
        "12692": 207,
        "12693": 228,
        "12694": 114,
        "12695": 209,
        "12696": 245,
        "12697": 78,
        "12698": 225,
        "12699": 252,
        "12700": 49,
        "12701": 248,
        "12702": 182,
        "12703": 84,
        "12704": 99,
        "12705": 186,
        "12706": 233,
        "12707": 122,
        "12708": 177,
        "12709": 35,
        "12710": 107,
        "12711": 75,
        "12712": 10,
        "12713": 124,
        "12714": 110,
        "12715": 105,
        "12716": 136,
        "12717": 147,
        "12718": 249,
        "12719": 15,
        "12720": 22,
        "12721": 67,
        "12722": 13,
        "12723": 22,
        "12724": 34,
        "12725": 149,
        "12726": 221,
        "12727": 56,
        "12728": 68,
        "12729": 209,
        "12730": 30,
        "12731": 141,
        "12732": 165,
        "12733": 42,
        "12734": 249,
        "12735": 152,
        "12736": 243,
        "12737": 161,
        "12738": 14,
        "12739": 88,
        "12740": 161,
        "12741": 17,
        "12742": 127,
        "12743": 21,
        "12744": 130,
        "12745": 245,
        "12746": 252,
        "12747": 161,
        "12748": 119,
        "12749": 176,
        "12750": 157,
        "12751": 246,
        "12752": 25,
        "12753": 150,
        "12754": 153,
        "12755": 215,
        "12756": 77,
        "12757": 111,
        "12758": 81,
        "12759": 115,
        "12760": 54,
        "12761": 243,
        "12762": 120,
        "12763": 99,
        "12764": 240,
        "12765": 165,
        "12766": 8,
        "12767": 132,
        "12768": 254,
        "12769": 72,
        "12770": 62,
        "12771": 219,
        "12772": 70,
        "12773": 162,
        "12774": 229,
        "12775": 119,
        "12776": 13,
        "12777": 99,
        "12778": 223,
        "12779": 164,
        "12780": 201,
        "12781": 155,
        "12782": 170,
        "12783": 143,
        "12784": 206,
        "12785": 252,
        "12786": 42,
        "12787": 51,
        "12788": 43,
        "12789": 155,
        "12790": 69,
        "12791": 187,
        "12792": 97,
        "12793": 178,
        "12794": 243,
        "12795": 172,
        "12796": 111,
        "12797": 196,
        "12798": 112,
        "12799": 218,
        "12800": 214,
        "12801": 175,
        "12802": 238,
        "12803": 203,
        "12804": 227,
        "12805": 197,
        "12806": 211,
        "12807": 130,
        "12808": 185,
        "12809": 178,
        "12810": 159,
        "12811": 180,
        "12812": 69,
        "12813": 30,
        "12814": 240,
        "12815": 105,
        "12816": 133,
        "12817": 80,
        "12818": 42,
        "12819": 78,
        "12820": 65,
        "12821": 230,
        "12822": 139,
        "12823": 226,
        "12824": 233,
        "12825": 70,
        "12826": 184,
        "12827": 140,
        "12828": 251,
        "12829": 108,
        "12830": 177,
        "12831": 92,
        "12832": 118,
        "12833": 191,
        "12834": 56,
        "12835": 1,
        "12836": 130,
        "12837": 82,
        "12838": 224,
        "12839": 159,
        "12840": 143,
        "12841": 210,
        "12842": 59,
        "12843": 73,
        "12844": 183,
        "12845": 10,
        "12846": 227,
        "12847": 247,
        "12848": 145,
        "12849": 11,
        "12850": 28,
        "12851": 218,
        "12852": 141,
        "12853": 117,
        "12854": 65,
        "12855": 75,
        "12856": 249,
        "12857": 12,
        "12858": 2,
        "12859": 158,
        "12860": 1,
        "12861": 170,
        "12862": 56,
        "12863": 144,
        "12864": 87,
        "12865": 165,
        "12866": 187,
        "12867": 61,
        "12868": 48,
        "12869": 111,
        "12870": 24,
        "12871": 170,
        "12872": 148,
        "12873": 115,
        "12874": 232,
        "12875": 225,
        "12876": 88,
        "12877": 108,
        "12878": 222,
        "12879": 88,
        "12880": 2,
        "12881": 194,
        "12882": 36,
        "12883": 98,
        "12884": 144,
        "12885": 39,
        "12886": 44,
        "12887": 78,
        "12888": 137,
        "12889": 120,
        "12890": 101,
        "12891": 177,
        "12892": 228,
        "12893": 238,
        "12894": 157,
        "12895": 214,
        "12896": 53,
        "12897": 192,
        "12898": 80,
        "12899": 244,
        "12900": 84,
        "12901": 34,
        "12902": 95,
        "12903": 29,
        "12904": 11,
        "12905": 216,
        "12906": 17,
        "12907": 178,
        "12908": 70,
        "12909": 50,
        "12910": 161,
        "12911": 138,
        "12912": 217,
        "12913": 8,
        "12914": 28,
        "12915": 204,
        "12916": 212,
        "12917": 214,
        "12918": 194,
        "12919": 84,
        "12920": 6,
        "12921": 154,
        "12922": 227,
        "12923": 212,
        "12924": 233,
        "12925": 194,
        "12926": 60,
        "12927": 153,
        "12928": 157,
        "12929": 114,
        "12930": 125,
        "12931": 102,
        "12932": 223,
        "12933": 30,
        "12934": 142,
        "12935": 8,
        "12936": 172,
        "12937": 37,
        "12938": 141,
        "12939": 134,
        "12940": 211,
        "12941": 28,
        "12942": 206,
        "12943": 75,
        "12944": 110,
        "12945": 41,
        "12946": 146,
        "12947": 32,
        "12948": 128,
        "12949": 117,
        "12950": 73,
        "12951": 20,
        "12952": 236,
        "12953": 146,
        "12954": 152,
        "12955": 176,
        "12956": 211,
        "12957": 244,
        "12958": 233,
        "12959": 225,
        "12960": 160,
        "12961": 239,
        "12962": 190,
        "12963": 2,
        "12964": 54,
        "12965": 127,
        "12966": 8,
        "12967": 15,
        "12968": 163,
        "12969": 154,
        "12970": 152,
        "12971": 135,
        "12972": 78,
        "12973": 9,
        "12974": 131,
        "12975": 46,
        "12976": 40,
        "12977": 215,
        "12978": 45,
        "12979": 122,
        "12980": 101,
        "12981": 160,
        "12982": 209,
        "12983": 25,
        "12984": 253,
        "12985": 248,
        "12986": 121,
        "12987": 33,
        "12988": 185,
        "12989": 193,
        "12990": 216,
        "12991": 199,
        "12992": 145,
        "12993": 197,
        "12994": 117,
        "12995": 135,
        "12996": 242,
        "12997": 103,
        "12998": 103,
        "12999": 109,
        "13000": 213,
        "13001": 223,
        "13002": 52,
        "13003": 81,
        "13004": 236,
        "13005": 197,
        "13006": 142,
        "13007": 32,
        "13008": 133,
        "13009": 71,
        "13010": 131,
        "13011": 100,
        "13012": 116,
        "13013": 166,
        "13014": 235,
        "13015": 1,
        "13016": 95,
        "13017": 137,
        "13018": 101,
        "13019": 99,
        "13020": 18,
        "13021": 188,
        "13022": 222,
        "13023": 71,
        "13024": 227,
        "13025": 68,
        "13026": 115,
        "13027": 165,
        "13028": 245,
        "13029": 92,
        "13030": 102,
        "13031": 45,
        "13032": 212,
        "13033": 244,
        "13034": 69,
        "13035": 182,
        "13036": 37,
        "13037": 199,
        "13038": 113,
        "13039": 152,
        "13040": 13,
        "13041": 130,
        "13042": 16,
        "13043": 236,
        "13044": 193,
        "13045": 217,
        "13046": 9,
        "13047": 91,
        "13048": 138,
        "13049": 104,
        "13050": 90,
        "13051": 80,
        "13052": 185,
        "13053": 35,
        "13054": 224,
        "13055": 185,
        "13056": 237,
        "13057": 12,
        "13058": 251,
        "13059": 59,
        "13060": 77,
        "13061": 216,
        "13062": 40,
        "13063": 137,
        "13064": 197,
        "13065": 102,
        "13066": 156,
        "13067": 22,
        "13068": 185,
        "13069": 79,
        "13070": 151,
        "13071": 253,
        "13072": 152,
        "13073": 162,
        "13074": 199,
        "13075": 59,
        "13076": 69,
        "13077": 101,
        "13078": 107,
        "13079": 208,
        "13080": 221,
        "13081": 132,
        "13082": 3,
        "13083": 123,
        "13084": 175,
        "13085": 162,
        "13086": 36,
        "13087": 129,
        "13088": 116,
        "13089": 221,
        "13090": 150,
        "13091": 204,
        "13092": 34,
        "13093": 164,
        "13094": 36,
        "13095": 83,
        "13096": 188,
        "13097": 134,
        "13098": 107,
        "13099": 217,
        "13100": 122,
        "13101": 112,
        "13102": 151,
        "13103": 102,
        "13104": 206,
        "13105": 44,
        "13106": 88,
        "13107": 113,
        "13108": 119,
        "13109": 149,
        "13110": 174,
        "13111": 201,
        "13112": 179,
        "13113": 156,
        "13114": 235,
        "13115": 168,
        "13116": 19,
        "13117": 28,
        "13118": 3,
        "13119": 223,
        "13120": 113,
        "13121": 152,
        "13122": 109,
        "13123": 55,
        "13124": 104,
        "13125": 177,
        "13126": 39,
        "13127": 63,
        "13128": 78,
        "13129": 145,
        "13130": 53,
        "13131": 129,
        "13132": 95,
        "13133": 88,
        "13134": 169,
        "13135": 132,
        "13136": 195,
        "13137": 102,
        "13138": 192,
        "13139": 77,
        "13140": 140,
        "13141": 171,
        "13142": 113,
        "13143": 93,
        "13144": 145,
        "13145": 139,
        "13146": 40,
        "13147": 226,
        "13148": 179,
        "13149": 136,
        "13150": 211,
        "13151": 34,
        "13152": 213,
        "13153": 23,
        "13154": 196,
        "13155": 175,
        "13156": 78,
        "13157": 207,
        "13158": 142,
        "13159": 98,
        "13160": 151,
        "13161": 35,
        "13162": 15,
        "13163": 191,
        "13164": 139,
        "13165": 56,
        "13166": 175,
        "13167": 63,
        "13168": 18,
        "13169": 69,
        "13170": 222,
        "13171": 179,
        "13172": 225,
        "13173": 213,
        "13174": 249,
        "13175": 67,
        "13176": 95,
        "13177": 165,
        "13178": 136,
        "13179": 116,
        "13180": 31,
        "13181": 182,
        "13182": 34,
        "13183": 40,
        "13184": 94,
        "13185": 108,
        "13186": 210,
        "13187": 75,
        "13188": 242,
        "13189": 110,
        "13190": 253,
        "13191": 105,
        "13192": 215,
        "13193": 127,
        "13194": 227,
        "13195": 82,
        "13196": 80,
        "13197": 254,
        "13198": 144,
        "13199": 169,
        "13200": 55,
        "13201": 22,
        "13202": 218,
        "13203": 210,
        "13204": 65,
        "13205": 145,
        "13206": 47,
        "13207": 44,
        "13208": 74,
        "13209": 108,
        "13210": 246,
        "13211": 95,
        "13212": 84,
        "13213": 20,
        "13214": 124,
        "13215": 154,
        "13216": 102,
        "13217": 113,
        "13218": 20,
        "13219": 200,
        "13220": 64,
        "13221": 149,
        "13222": 185,
        "13223": 254,
        "13224": 135,
        "13225": 213,
        "13226": 110,
        "13227": 241,
        "13228": 156,
        "13229": 56,
        "13230": 228,
        "13231": 228,
        "13232": 87,
        "13233": 121,
        "13234": 84,
        "13235": 203,
        "13236": 97,
        "13237": 108,
        "13238": 157,
        "13239": 122,
        "13240": 195,
        "13241": 126,
        "13242": 96,
        "13243": 64,
        "13244": 131,
        "13245": 186,
        "13246": 169,
        "13247": 122,
        "13248": 75,
        "13249": 15,
        "13250": 212,
        "13251": 185,
        "13252": 86,
        "13253": 95,
        "13254": 44,
        "13255": 179,
        "13256": 157,
        "13257": 161,
        "13258": 212,
        "13259": 6,
        "13260": 88,
        "13261": 180,
        "13262": 185,
        "13263": 5,
        "13264": 217,
        "13265": 237,
        "13266": 15,
        "13267": 157,
        "13268": 8,
        "13269": 228,
        "13270": 72,
        "13271": 228,
        "13272": 7,
        "13273": 93,
        "13274": 248,
        "13275": 165,
        "13276": 94,
        "13277": 134,
        "13278": 64,
        "13279": 99,
        "13280": 165,
        "13281": 237,
        "13282": 117,
        "13283": 125,
        "13284": 210,
        "13285": 88,
        "13286": 218,
        "13287": 103,
        "13288": 208,
        "13289": 144,
        "13290": 241,
        "13291": 147,
        "13292": 172,
        "13293": 246,
        "13294": 182,
        "13295": 121,
        "13296": 195,
        "13297": 169,
        "13298": 67,
        "13299": 131,
        "13300": 111,
        "13301": 228,
        "13302": 12,
        "13303": 255,
        "13304": 142,
        "13305": 194,
        "13306": 239,
        "13307": 175,
        "13308": 144,
        "13309": 203,
        "13310": 42,
        "13311": 98,
        "13312": 79,
        "13313": 92,
        "13314": 167,
        "13315": 31,
        "13316": 153,
        "13317": 176,
        "13318": 206,
        "13319": 90,
        "13320": 205,
        "13321": 36,
        "13322": 255,
        "13323": 41,
        "13324": 192,
        "13325": 236,
        "13326": 178,
        "13327": 122,
        "13328": 42,
        "13329": 205,
        "13330": 217,
        "13331": 85,
        "13332": 149,
        "13333": 50,
        "13334": 58,
        "13335": 3,
        "13336": 49,
        "13337": 89,
        "13338": 182,
        "13339": 248,
        "13340": 243,
        "13341": 56,
        "13342": 121,
        "13343": 188,
        "13344": 193,
        "13345": 143,
        "13346": 143,
        "13347": 253,
        "13348": 71,
        "13349": 80,
        "13350": 227,
        "13351": 104,
        "13352": 135,
        "13353": 142,
        "13354": 235,
        "13355": 6,
        "13356": 2,
        "13357": 149,
        "13358": 74,
        "13359": 90,
        "13360": 54,
        "13361": 87,
        "13362": 92,
        "13363": 242,
        "13364": 251,
        "13365": 89,
        "13366": 22,
        "13367": 245,
        "13368": 168,
        "13369": 154,
        "13370": 91,
        "13371": 116,
        "13372": 8,
        "13373": 20,
        "13374": 79,
        "13375": 5,
        "13376": 220,
        "13377": 215,
        "13378": 127,
        "13379": 71,
        "13380": 204,
        "13381": 195,
        "13382": 98,
        "13383": 126,
        "13384": 172,
        "13385": 116,
        "13386": 125,
        "13387": 254,
        "13388": 182,
        "13389": 76,
        "13390": 127,
        "13391": 236,
        "13392": 82,
        "13393": 135,
        "13394": 76,
        "13395": 217,
        "13396": 178,
        "13397": 166,
        "13398": 65,
        "13399": 234,
        "13400": 79,
        "13401": 93,
        "13402": 84,
        "13403": 131,
        "13404": 122,
        "13405": 190,
        "13406": 115,
        "13407": 246,
        "13408": 183,
        "13409": 209,
        "13410": 16,
        "13411": 135,
        "13412": 65,
        "13413": 2,
        "13414": 180,
        "13415": 126,
        "13416": 133,
        "13417": 153,
        "13418": 179,
        "13419": 35,
        "13420": 115,
        "13421": 104,
        "13422": 95,
        "13423": 111,
        "13424": 202,
        "13425": 179,
        "13426": 182,
        "13427": 196,
        "13428": 53,
        "13429": 7,
        "13430": 31,
        "13431": 145,
        "13432": 189,
        "13433": 170,
        "13434": 228,
        "13435": 80,
        "13436": 95,
        "13437": 200,
        "13438": 72,
        "13439": 20,
        "13440": 81,
        "13441": 237,
        "13442": 111,
        "13443": 29,
        "13444": 164,
        "13445": 198,
        "13446": 12,
        "13447": 18,
        "13448": 164,
        "13449": 125,
        "13450": 228,
        "13451": 5,
        "13452": 207,
        "13453": 58,
        "13454": 20,
        "13455": 19,
        "13456": 201,
        "13457": 155,
        "13458": 153,
        "13459": 211,
        "13460": 80,
        "13461": 170,
        "13462": 95,
        "13463": 172,
        "13464": 109,
        "13465": 196,
        "13466": 179,
        "13467": 224,
        "13468": 55,
        "13469": 0,
        "13470": 27,
        "13471": 21,
        "13472": 171,
        "13473": 125,
        "13474": 53,
        "13475": 113,
        "13476": 29,
        "13477": 16,
        "13478": 188,
        "13479": 251,
        "13480": 172,
        "13481": 79,
        "13482": 56,
        "13483": 167,
        "13484": 93,
        "13485": 39,
        "13486": 220,
        "13487": 255,
        "13488": 173,
        "13489": 96,
        "13490": 100,
        "13491": 37,
        "13492": 5,
        "13493": 156,
        "13494": 74,
        "13495": 57,
        "13496": 58,
        "13497": 195,
        "13498": 167,
        "13499": 125,
        "13500": 230,
        "13501": 8,
        "13502": 230,
        "13503": 236,
        "13504": 251,
        "13505": 243,
        "13506": 86,
        "13507": 177,
        "13508": 229,
        "13509": 177,
        "13510": 234,
        "13511": 177,
        "13512": 151,
        "13513": 29,
        "13514": 201,
        "13515": 119,
        "13516": 223,
        "13517": 239,
        "13518": 228,
        "13519": 38,
        "13520": 253,
        "13521": 164,
        "13522": 216,
        "13523": 5,
        "13524": 147,
        "13525": 97,
        "13526": 211,
        "13527": 178,
        "13528": 196,
        "13529": 171,
        "13530": 202,
        "13531": 155,
        "13532": 198,
        "13533": 107,
        "13534": 239,
        "13535": 88,
        "13536": 250,
        "13537": 251,
        "13538": 240,
        "13539": 113,
        "13540": 211,
        "13541": 60,
        "13542": 125,
        "13543": 85,
        "13544": 228,
        "13545": 241,
        "13546": 19,
        "13547": 40,
        "13548": 233,
        "13549": 169,
        "13550": 185,
        "13551": 146,
        "13552": 237,
        "13553": 243,
        "13554": 247,
        "13555": 161,
        "13556": 127,
        "13557": 175,
        "13558": 13,
        "13559": 123,
        "13560": 165,
        "13561": 15,
        "13562": 88,
        "13563": 183,
        "13564": 109,
        "13565": 247,
        "13566": 252,
        "13567": 183,
        "13568": 90,
        "13569": 78,
        "13570": 163,
        "13571": 8,
        "13572": 21,
        "13573": 209,
        "13574": 137,
        "13575": 178,
        "13576": 37,
        "13577": 3,
        "13578": 248,
        "13579": 162,
        "13580": 219,
        "13581": 161,
        "13582": 50,
        "13583": 36,
        "13584": 9,
        "13585": 45,
        "13586": 241,
        "13587": 62,
        "13588": 114,
        "13589": 57,
        "13590": 63,
        "13591": 196,
        "13592": 120,
        "13593": 53,
        "13594": 108,
        "13595": 229,
        "13596": 179,
        "13597": 23,
        "13598": 28,
        "13599": 255,
        "13600": 192,
        "13601": 102,
        "13602": 101,
        "13603": 72,
        "13604": 244,
        "13605": 74,
        "13606": 141,
        "13607": 196,
        "13608": 48,
        "13609": 29,
        "13610": 88,
        "13611": 88,
        "13612": 9,
        "13613": 203,
        "13614": 26,
        "13615": 76,
        "13616": 197,
        "13617": 76,
        "13618": 35,
        "13619": 84,
        "13620": 34,
        "13621": 200,
        "13622": 137,
        "13623": 146,
        "13624": 177,
        "13625": 2,
        "13626": 198,
        "13627": 62,
        "13628": 189,
        "13629": 228,
        "13630": 94,
        "13631": 137,
        "13632": 125,
        "13633": 175,
        "13634": 162,
        "13635": 134,
        "13636": 130,
        "13637": 191,
        "13638": 193,
        "13639": 241,
        "13640": 72,
        "13641": 239,
        "13642": 163,
        "13643": 156,
        "13644": 172,
        "13645": 180,
        "13646": 129,
        "13647": 152,
        "13648": 102,
        "13649": 196,
        "13650": 99,
        "13651": 2,
        "13652": 51,
        "13653": 49,
        "13654": 54,
        "13655": 132,
        "13656": 133,
        "13657": 241,
        "13658": 236,
        "13659": 244,
        "13660": 25,
        "13661": 67,
        "13662": 104,
        "13663": 136,
        "13664": 57,
        "13665": 213,
        "13666": 203,
        "13667": 21,
        "13668": 208,
        "13669": 230,
        "13670": 25,
        "13671": 61,
        "13672": 246,
        "13673": 235,
        "13674": 65,
        "13675": 98,
        "13676": 230,
        "13677": 50,
        "13678": 233,
        "13679": 178,
        "13680": 90,
        "13681": 164,
        "13682": 65,
        "13683": 249,
        "13684": 36,
        "13685": 71,
        "13686": 35,
        "13687": 82,
        "13688": 236,
        "13689": 193,
        "13690": 56,
        "13691": 190,
        "13692": 1,
        "13693": 83,
        "13694": 7,
        "13695": 104,
        "13696": 233,
        "13697": 240,
        "13698": 207,
        "13699": 169,
        "13700": 55,
        "13701": 16,
        "13702": 36,
        "13703": 120,
        "13704": 244,
        "13705": 240,
        "13706": 54,
        "13707": 124,
        "13708": 166,
        "13709": 174,
        "13710": 120,
        "13711": 244,
        "13712": 106,
        "13713": 194,
        "13714": 85,
        "13715": 203,
        "13716": 17,
        "13717": 205,
        "13718": 186,
        "13719": 170,
        "13720": 31,
        "13721": 85,
        "13722": 100,
        "13723": 162,
        "13724": 162,
        "13725": 63,
        "13726": 181,
        "13727": 137,
        "13728": 222,
        "13729": 108,
        "13730": 121,
        "13731": 42,
        "13732": 253,
        "13733": 114,
        "13734": 7,
        "13735": 184,
        "13736": 150,
        "13737": 46,
        "13738": 243,
        "13739": 63,
        "13740": 200,
        "13741": 198,
        "13742": 222,
        "13743": 159,
        "13744": 247,
        "13745": 175,
        "13746": 80,
        "13747": 111,
        "13748": 226,
        "13749": 99,
        "13750": 15,
        "13751": 223,
        "13752": 57,
        "13753": 85,
        "13754": 194,
        "13755": 17,
        "13756": 82,
        "13757": 125,
        "13758": 64,
        "13759": 249,
        "13760": 97,
        "13761": 11,
        "13762": 209,
        "13763": 31,
        "13764": 229,
        "13765": 116,
        "13766": 110,
        "13767": 226,
        "13768": 9,
        "13769": 148,
        "13770": 129,
        "13771": 131,
        "13772": 224,
        "13773": 95,
        "13774": 74,
        "13775": 237,
        "13776": 31,
        "13777": 111,
        "13778": 154,
        "13779": 144,
        "13780": 245,
        "13781": 148,
        "13782": 111,
        "13783": 68,
        "13784": 186,
        "13785": 99,
        "13786": 138,
        "13787": 15,
        "13788": 102,
        "13789": 105,
        "13790": 163,
        "13791": 127,
        "13792": 206,
        "13793": 154,
        "13794": 127,
        "13795": 23,
        "13796": 245,
        "13797": 34,
        "13798": 78,
        "13799": 83,
        "13800": 97,
        "13801": 62,
        "13802": 221,
        "13803": 28,
        "13804": 244,
        "13805": 145,
        "13806": 18,
        "13807": 4,
        "13808": 234,
        "13809": 87,
        "13810": 231,
        "13811": 188,
        "13812": 180,
        "13813": 37,
        "13814": 163,
        "13815": 205,
        "13816": 158,
        "13817": 52,
        "13818": 203,
        "13819": 63,
        "13820": 197,
        "13821": 157,
        "13822": 11,
        "13823": 128,
        "13824": 121,
        "13825": 77,
        "13826": 87,
        "13827": 49,
        "13828": 14,
        "13829": 207,
        "13830": 10,
        "13831": 162,
        "13832": 24,
        "13833": 154,
        "13834": 134,
        "13835": 175,
        "13836": 15,
        "13837": 174,
        "13838": 117,
        "13839": 216,
        "13840": 199,
        "13841": 32,
        "13842": 31,
        "13843": 154,
        "13844": 129,
        "13845": 146,
        "13846": 100,
        "13847": 16,
        "13848": 195,
        "13849": 244,
        "13850": 204,
        "13851": 201,
        "13852": 109,
        "13853": 91,
        "13854": 239,
        "13855": 93,
        "13856": 37,
        "13857": 175,
        "13858": 167,
        "13859": 36,
        "13860": 142,
        "13861": 254,
        "13862": 60,
        "13863": 198,
        "13864": 182,
        "13865": 233,
        "13866": 235,
        "13867": 79,
        "13868": 109,
        "13869": 38,
        "13870": 86,
        "13871": 210,
        "13872": 15,
        "13873": 199,
        "13874": 2,
        "13875": 9,
        "13876": 76,
        "13877": 65,
        "13878": 105,
        "13879": 108,
        "13880": 118,
        "13881": 223,
        "13882": 93,
        "13883": 144,
        "13884": 176,
        "13885": 184,
        "13886": 177,
        "13887": 18,
        "13888": 101,
        "13889": 29,
        "13890": 219,
        "13891": 55,
        "13892": 250,
        "13893": 91,
        "13894": 225,
        "13895": 242,
        "13896": 104,
        "13897": 1,
        "13898": 102,
        "13899": 107,
        "13900": 66,
        "13901": 238,
        "13902": 151,
        "13903": 73,
        "13904": 143,
        "13905": 202,
        "13906": 237,
        "13907": 120,
        "13908": 222,
        "13909": 195,
        "13910": 217,
        "13911": 166,
        "13912": 209,
        "13913": 4,
        "13914": 136,
        "13915": 104,
        "13916": 213,
        "13917": 143,
        "13918": 63,
        "13919": 245,
        "13920": 120,
        "13921": 54,
        "13922": 219,
        "13923": 30,
        "13924": 149,
        "13925": 146,
        "13926": 140,
        "13927": 43,
        "13928": 164,
        "13929": 210,
        "13930": 248,
        "13931": 189,
        "13932": 82,
        "13933": 206,
        "13934": 188,
        "13935": 9,
        "13936": 106,
        "13937": 158,
        "13938": 18,
        "13939": 185,
        "13940": 226,
        "13941": 120,
        "13942": 148,
        "13943": 8,
        "13944": 174,
        "13945": 210,
        "13946": 83,
        "13947": 199,
        "13948": 27,
        "13949": 233,
        "13950": 5,
        "13951": 78,
        "13952": 123,
        "13953": 122,
        "13954": 158,
        "13955": 46,
        "13956": 85,
        "13957": 53,
        "13958": 253,
        "13959": 51,
        "13960": 17,
        "13961": 97,
        "13962": 245,
        "13963": 158,
        "13964": 116,
        "13965": 250,
        "13966": 168,
        "13967": 204,
        "13968": 69,
        "13969": 52,
        "13970": 33,
        "13971": 108,
        "13972": 250,
        "13973": 122,
        "13974": 24,
        "13975": 106,
        "13976": 3,
        "13977": 54,
        "13978": 43,
        "13979": 215,
        "13980": 201,
        "13981": 137,
        "13982": 37,
        "13983": 190,
        "13984": 122,
        "13985": 180,
        "13986": 74,
        "13987": 187,
        "13988": 79,
        "13989": 109,
        "13990": 226,
        "13991": 136,
        "13992": 41,
        "13993": 239,
        "13994": 12,
        "13995": 167,
        "13996": 65,
        "13997": 91,
        "13998": 19,
        "13999": 133,
        "14000": 25,
        "14001": 182,
        "14002": 4,
        "14003": 244,
        "14004": 19,
        "14005": 22,
        "14006": 171,
        "14007": 89,
        "14008": 175,
        "14009": 210,
        "14010": 234,
        "14011": 160,
        "14012": 74,
        "14013": 131,
        "14014": 52,
        "14015": 98,
        "14016": 131,
        "14017": 242,
        "14018": 231,
        "14019": 55,
        "14020": 40,
        "14021": 107,
        "14022": 28,
        "14023": 15,
        "14024": 247,
        "14025": 141,
        "14026": 94,
        "14027": 102,
        "14028": 50,
        "14029": 63,
        "14030": 212,
        "14031": 231,
        "14032": 55,
        "14033": 88,
        "14034": 223,
        "14035": 106,
        "14036": 17,
        "14037": 174,
        "14038": 254,
        "14039": 147,
        "14040": 226,
        "14041": 99,
        "14042": 210,
        "14043": 96,
        "14044": 249,
        "14045": 70,
        "14046": 26,
        "14047": 64,
        "14048": 134,
        "14049": 242,
        "14050": 238,
        "14051": 2,
        "14052": 41,
        "14053": 2,
        "14054": 96,
        "14055": 79,
        "14056": 10,
        "14057": 158,
        "14058": 188,
        "14059": 22,
        "14060": 217,
        "14061": 68,
        "14062": 237,
        "14063": 35,
        "14064": 13,
        "14065": 73,
        "14066": 144,
        "14067": 165,
        "14068": 32,
        "14069": 198,
        "14070": 33,
        "14071": 90,
        "14072": 244,
        "14073": 213,
        "14074": 69,
        "14075": 139,
        "14076": 24,
        "14077": 42,
        "14078": 9,
        "14079": 203,
        "14080": 243,
        "14081": 129,
        "14082": 141,
        "14083": 216,
        "14084": 222,
        "14085": 89,
        "14086": 169,
        "14087": 175,
        "14088": 193,
        "14089": 143,
        "14090": 36,
        "14091": 142,
        "14092": 198,
        "14093": 215,
        "14094": 236,
        "14095": 125,
        "14096": 137,
        "14097": 217,
        "14098": 208,
        "14099": 89,
        "14100": 19,
        "14101": 39,
        "14102": 41,
        "14103": 180,
        "14104": 127,
        "14105": 46,
        "14106": 244,
        "14107": 187,
        "14108": 86,
        "14109": 178,
        "14110": 139,
        "14111": 25,
        "14112": 6,
        "14113": 179,
        "14114": 134,
        "14115": 41,
        "14116": 184,
        "14117": 208,
        "14118": 176,
        "14119": 247,
        "14120": 177,
        "14121": 114,
        "14122": 150,
        "14123": 231,
        "14124": 107,
        "14125": 110,
        "14126": 207,
        "14127": 159,
        "14128": 157,
        "14129": 203,
        "14130": 31,
        "14131": 200,
        "14132": 193,
        "14133": 220,
        "14134": 123,
        "14135": 114,
        "14136": 219,
        "14137": 225,
        "14138": 255,
        "14139": 253,
        "14140": 29,
        "14141": 195,
        "14142": 238,
        "14143": 251,
        "14144": 9,
        "14145": 40,
        "14146": 174,
        "14147": 80,
        "14148": 7,
        "14149": 19,
        "14150": 248,
        "14151": 64,
        "14152": 43,
        "14153": 157,
        "14154": 146,
        "14155": 129,
        "14156": 214,
        "14157": 160,
        "14158": 14,
        "14159": 222,
        "14160": 107,
        "14161": 41,
        "14162": 162,
        "14163": 52,
        "14164": 236,
        "14165": 153,
        "14166": 18,
        "14167": 126,
        "14168": 169,
        "14169": 120,
        "14170": 103,
        "14171": 34,
        "14172": 24,
        "14173": 111,
        "14174": 24,
        "14175": 212,
        "14176": 69,
        "14177": 229,
        "14178": 240,
        "14179": 239,
        "14180": 236,
        "14181": 231,
        "14182": 62,
        "14183": 129,
        "14184": 187,
        "14185": 185,
        "14186": 193,
        "14187": 9,
        "14188": 49,
        "14189": 69,
        "14190": 42,
        "14191": 58,
        "14192": 89,
        "14193": 111,
        "14194": 73,
        "14195": 31,
        "14196": 171,
        "14197": 90,
        "14198": 166,
        "14199": 21,
        "14200": 10,
        "14201": 130,
        "14202": 22,
        "14203": 179,
        "14204": 184,
        "14205": 88,
        "14206": 164,
        "14207": 67,
        "14208": 143,
        "14209": 57,
        "14210": 245,
        "14211": 50,
        "14212": 196,
        "14213": 115,
        "14214": 248,
        "14215": 154,
        "14216": 144,
        "14217": 20,
        "14218": 37,
        "14219": 221,
        "14220": 125,
        "14221": 29,
        "14222": 177,
        "14223": 208,
        "14224": 57,
        "14225": 230,
        "14226": 22,
        "14227": 220,
        "14228": 10,
        "14229": 161,
        "14230": 174,
        "14231": 126,
        "14232": 121,
        "14233": 38,
        "14234": 147,
        "14235": 119,
        "14236": 24,
        "14237": 154,
        "14238": 42,
        "14239": 45,
        "14240": 99,
        "14241": 83,
        "14242": 42,
        "14243": 174,
        "14244": 86,
        "14245": 225,
        "14246": 65,
        "14247": 138,
        "14248": 86,
        "14249": 141,
        "14250": 54,
        "14251": 42,
        "14252": 23,
        "14253": 173,
        "14254": 70,
        "14255": 26,
        "14256": 235,
        "14257": 165,
        "14258": 0,
        "14259": 43,
        "14260": 5,
        "14261": 225,
        "14262": 34,
        "14263": 102,
        "14264": 60,
        "14265": 64,
        "14266": 141,
        "14267": 235,
        "14268": 131,
        "14269": 128,
        "14270": 180,
        "14271": 238,
        "14272": 206,
        "14273": 22,
        "14274": 211,
        "14275": 150,
        "14276": 56,
        "14277": 186,
        "14278": 38,
        "14279": 32,
        "14280": 90,
        "14281": 142,
        "14282": 123,
        "14283": 220,
        "14284": 255,
        "14285": 51,
        "14286": 7,
        "14287": 47,
        "14288": 49,
        "14289": 154,
        "14290": 172,
        "14291": 93,
        "14292": 159,
        "14293": 84,
        "14294": 153,
        "14295": 200,
        "14296": 245,
        "14297": 9,
        "14298": 112,
        "14299": 193,
        "14300": 125,
        "14301": 156,
        "14302": 163,
        "14303": 38,
        "14304": 115,
        "14305": 125,
        "14306": 148,
        "14307": 251,
        "14308": 127,
        "14309": 244,
        "14310": 33,
        "14311": 79,
        "14312": 172,
        "14313": 97,
        "14314": 29,
        "14315": 179,
        "14316": 161,
        "14317": 164,
        "14318": 19,
        "14319": 102,
        "14320": 106,
        "14321": 139,
        "14322": 222,
        "14323": 25,
        "14324": 167,
        "14325": 204,
        "14326": 165,
        "14327": 145,
        "14328": 245,
        "14329": 243,
        "14330": 32,
        "14331": 241,
        "14332": 215,
        "14333": 180,
        "14334": 163,
        "14335": 59,
        "14336": 143,
        "14337": 75,
        "14338": 1,
        "14339": 209,
        "14340": 255,
        "14341": 48,
        "14342": 80,
        "14343": 43,
        "14344": 185,
        "14345": 183,
        "14346": 166,
        "14347": 183,
        "14348": 199,
        "14349": 161,
        "14350": 17,
        "14351": 143,
        "14352": 99,
        "14353": 235,
        "14354": 105,
        "14355": 150,
        "14356": 153,
        "14357": 89,
        "14358": 125,
        "14359": 90,
        "14360": 185,
        "14361": 219,
        "14362": 220,
        "14363": 232,
        "14364": 17,
        "14365": 79,
        "14366": 176,
        "14367": 174,
        "14368": 116,
        "14369": 63,
        "14370": 249,
        "14371": 29,
        "14372": 165,
        "14373": 76,
        "14374": 130,
        "14375": 68,
        "14376": 230,
        "14377": 202,
        "14378": 210,
        "14379": 155,
        "14380": 170,
        "14381": 41,
        "14382": 173,
        "14383": 5,
        "14384": 114,
        "14385": 125,
        "14386": 137,
        "14387": 99,
        "14388": 218,
        "14389": 26,
        "14390": 170,
        "14391": 14,
        "14392": 76,
        "14393": 156,
        "14394": 141,
        "14395": 227,
        "14396": 216,
        "14397": 113,
        "14398": 187,
        "14399": 16,
        "14400": 52,
        "14401": 58,
        "14402": 46,
        "14403": 209,
        "14404": 65,
        "14405": 44,
        "14406": 29,
        "14407": 55,
        "14408": 150,
        "14409": 100,
        "14410": 236,
        "14411": 134,
        "14412": 242,
        "14413": 188,
        "14414": 175,
        "14415": 26,
        "14416": 137,
        "14417": 9,
        "14418": 164,
        "14419": 53,
        "14420": 26,
        "14421": 220,
        "14422": 176,
        "14423": 145,
        "14424": 134,
        "14425": 141,
        "14426": 229,
        "14427": 153,
        "14428": 213,
        "14429": 185,
        "14430": 181,
        "14431": 43,
        "14432": 159,
        "14433": 134,
        "14434": 12,
        "14435": 220,
        "14436": 195,
        "14437": 113,
        "14438": 146,
        "14439": 251,
        "14440": 171,
        "14441": 221,
        "14442": 93,
        "14443": 170,
        "14444": 2,
        "14445": 230,
        "14446": 44,
        "14447": 204,
        "14448": 104,
        "14449": 74,
        "14450": 234,
        "14451": 2,
        "14452": 112,
        "14453": 167,
        "14454": 221,
        "14455": 23,
        "14456": 222,
        "14457": 138,
        "14458": 112,
        "14459": 228,
        "14460": 35,
        "14461": 140,
        "14462": 168,
        "14463": 109,
        "14464": 21,
        "14465": 134,
        "14466": 144,
        "14467": 176,
        "14468": 166,
        "14469": 75,
        "14470": 254,
        "14471": 220,
        "14472": 168,
        "14473": 35,
        "14474": 71,
        "14475": 251,
        "14476": 188,
        "14477": 61,
        "14478": 220,
        "14479": 155,
        "14480": 56,
        "14481": 4,
        "14482": 0,
        "14483": 114,
        "14484": 26,
        "14485": 10,
        "14486": 206,
        "14487": 233,
        "14488": 110,
        "14489": 82,
        "14490": 232,
        "14491": 58,
        "14492": 0,
        "14493": 197,
        "14494": 138,
        "14495": 124,
        "14496": 78,
        "14497": 101,
        "14498": 142,
        "14499": 62,
        "14500": 5,
        "14501": 26,
        "14502": 132,
        "14503": 164,
        "14504": 227,
        "14505": 147,
        "14506": 108,
        "14507": 95,
        "14508": 26,
        "14509": 36,
        "14510": 45,
        "14511": 71,
        "14512": 175,
        "14513": 159,
        "14514": 51,
        "14515": 220,
        "14516": 195,
        "14517": 148,
        "14518": 19,
        "14519": 251,
        "14520": 254,
        "14521": 247,
        "14522": 193,
        "14523": 69,
        "14524": 13,
        "14525": 123,
        "14526": 115,
        "14527": 118,
        "14528": 166,
        "14529": 38,
        "14530": 107,
        "14531": 43,
        "14532": 166,
        "14533": 249,
        "14534": 137,
        "14535": 103,
        "14536": 133,
        "14537": 87,
        "14538": 66,
        "14539": 54,
        "14540": 61,
        "14541": 37,
        "14542": 91,
        "14543": 165,
        "14544": 199,
        "14545": 133,
        "14546": 148,
        "14547": 140,
        "14548": 53,
        "14549": 109,
        "14550": 186,
        "14551": 232,
        "14552": 6,
        "14553": 243,
        "14554": 198,
        "14555": 60,
        "14556": 226,
        "14557": 48,
        "14558": 26,
        "14559": 3,
        "14560": 51,
        "14561": 63,
        "14562": 176,
        "14563": 92,
        "14564": 109,
        "14565": 87,
        "14566": 223,
        "14567": 117,
        "14568": 36,
        "14569": 13,
        "14570": 193,
        "14571": 22,
        "14572": 17,
        "14573": 24,
        "14574": 182,
        "14575": 226,
        "14576": 72,
        "14577": 138,
        "14578": 87,
        "14579": 222,
        "14580": 38,
        "14581": 168,
        "14582": 28,
        "14583": 207,
        "14584": 232,
        "14585": 182,
        "14586": 129,
        "14587": 227,
        "14588": 148,
        "14589": 47,
        "14590": 190,
        "14591": 181,
        "14592": 10,
        "14593": 146,
        "14594": 239,
        "14595": 235,
        "14596": 39,
        "14597": 168,
        "14598": 197,
        "14599": 153,
        "14600": 116,
        "14601": 0,
        "14602": 250,
        "14603": 69,
        "14604": 193,
        "14605": 198,
        "14606": 52,
        "14607": 211,
        "14608": 248,
        "14609": 219,
        "14610": 127,
        "14611": 105,
        "14612": 76,
        "14613": 124,
        "14614": 169,
        "14615": 169,
        "14616": 190,
        "14617": 35,
        "14618": 218,
        "14619": 89,
        "14620": 14,
        "14621": 160,
        "14622": 74,
        "14623": 208,
        "14624": 245,
        "14625": 45,
        "14626": 155,
        "14627": 133,
        "14628": 68,
        "14629": 140,
        "14630": 207,
        "14631": 164,
        "14632": 132,
        "14633": 35,
        "14634": 236,
        "14635": 8,
        "14636": 43,
        "14637": 17,
        "14638": 227,
        "14639": 28,
        "14640": 5,
        "14641": 123,
        "14642": 230,
        "14643": 202,
        "14644": 47,
        "14645": 219,
        "14646": 208,
        "14647": 50,
        "14648": 195,
        "14649": 39,
        "14650": 148,
        "14651": 102,
        "14652": 152,
        "14653": 38,
        "14654": 62,
        "14655": 94,
        "14656": 141,
        "14657": 30,
        "14658": 244,
        "14659": 205,
        "14660": 21,
        "14661": 17,
        "14662": 28,
        "14663": 191,
        "14664": 42,
        "14665": 37,
        "14666": 104,
        "14667": 222,
        "14668": 146,
        "14669": 199,
        "14670": 166,
        "14671": 72,
        "14672": 214,
        "14673": 9,
        "14674": 160,
        "14675": 190,
        "14676": 19,
        "14677": 90,
        "14678": 81,
        "14679": 7,
        "14680": 206,
        "14681": 212,
        "14682": 45,
        "14683": 241,
        "14684": 12,
        "14685": 231,
        "14686": 155,
        "14687": 232,
        "14688": 82,
        "14689": 150,
        "14690": 36,
        "14691": 210,
        "14692": 15,
        "14693": 4,
        "14694": 170,
        "14695": 178,
        "14696": 208,
        "14697": 222,
        "14698": 209,
        "14699": 94,
        "14700": 154,
        "14701": 86,
        "14702": 58,
        "14703": 240,
        "14704": 200,
        "14705": 60,
        "14706": 16,
        "14707": 187,
        "14708": 251,
        "14709": 100,
        "14710": 5,
        "14711": 5,
        "14712": 225,
        "14713": 199,
        "14714": 59,
        "14715": 163,
        "14716": 246,
        "14717": 23,
        "14718": 238,
        "14719": 203,
        "14720": 215,
        "14721": 56,
        "14722": 156,
        "14723": 208,
        "14724": 5,
        "14725": 4,
        "14726": 240,
        "14727": 212,
        "14728": 111,
        "14729": 177,
        "14730": 35,
        "14731": 235,
        "14732": 115,
        "14733": 181,
        "14734": 250,
        "14735": 168,
        "14736": 0,
        "14737": 216,
        "14738": 79,
        "14739": 138,
        "14740": 251,
        "14741": 176,
        "14742": 75,
        "14743": 98,
        "14744": 66,
        "14745": 235,
        "14746": 236,
        "14747": 232,
        "14748": 111,
        "14749": 255,
        "14750": 86,
        "14751": 148,
        "14752": 18,
        "14753": 225,
        "14754": 16,
        "14755": 105,
        "14756": 244,
        "14757": 108,
        "14758": 35,
        "14759": 41,
        "14760": 42,
        "14761": 176,
        "14762": 252,
        "14763": 72,
        "14764": 118,
        "14765": 71,
        "14766": 170,
        "14767": 219,
        "14768": 185,
        "14769": 162,
        "14770": 3,
        "14771": 186,
        "14772": 235,
        "14773": 234,
        "14774": 37,
        "14775": 19,
        "14776": 244,
        "14777": 144,
        "14778": 242,
        "14779": 243,
        "14780": 54,
        "14781": 162,
        "14782": 208,
        "14783": 192,
        "14784": 109,
        "14785": 85,
        "14786": 165,
        "14787": 202,
        "14788": 63,
        "14789": 106,
        "14790": 167,
        "14791": 59,
        "14792": 202,
        "14793": 57,
        "14794": 211,
        "14795": 252,
        "14796": 25,
        "14797": 92,
        "14798": 186,
        "14799": 151,
        "14800": 50,
        "14801": 16,
        "14802": 32,
        "14803": 83,
        "14804": 156,
        "14805": 107,
        "14806": 211,
        "14807": 236,
        "14808": 43,
        "14809": 174,
        "14810": 88,
        "14811": 8,
        "14812": 131,
        "14813": 55,
        "14814": 142,
        "14815": 2,
        "14816": 212,
        "14817": 121,
        "14818": 180,
        "14819": 131,
        "14820": 22,
        "14821": 5,
        "14822": 20,
        "14823": 186,
        "14824": 233,
        "14825": 194,
        "14826": 143,
        "14827": 151,
        "14828": 163,
        "14829": 182,
        "14830": 136,
        "14831": 158,
        "14832": 205,
        "14833": 153,
        "14834": 147,
        "14835": 84,
        "14836": 7,
        "14837": 15,
        "14838": 249,
        "14839": 40,
        "14840": 141,
        "14841": 133,
        "14842": 159,
        "14843": 115,
        "14844": 171,
        "14845": 116,
        "14846": 39,
        "14847": 114,
        "14848": 21,
        "14849": 156,
        "14850": 154,
        "14851": 25,
        "14852": 196,
        "14853": 95,
        "14854": 69,
        "14855": 232,
        "14856": 159,
        "14857": 46,
        "14858": 149,
        "14859": 127,
        "14860": 49,
        "14861": 153,
        "14862": 71,
        "14863": 46,
        "14864": 231,
        "14865": 4,
        "14866": 194,
        "14867": 103,
        "14868": 238,
        "14869": 78,
        "14870": 251,
        "14871": 43,
        "14872": 15,
        "14873": 108,
        "14874": 146,
        "14875": 33,
        "14876": 117,
        "14877": 217,
        "14878": 28,
        "14879": 75,
        "14880": 249,
        "14881": 105,
        "14882": 20,
        "14883": 212,
        "14884": 207,
        "14885": 141,
        "14886": 216,
        "14887": 189,
        "14888": 237,
        "14889": 87,
        "14890": 17,
        "14891": 125,
        "14892": 244,
        "14893": 0,
        "14894": 60,
        "14895": 57,
        "14896": 183,
        "14897": 114,
        "14898": 109,
        "14899": 38,
        "14900": 227,
        "14901": 244,
        "14902": 212,
        "14903": 208,
        "14904": 114,
        "14905": 162,
        "14906": 98,
        "14907": 134,
        "14908": 217,
        "14909": 40,
        "14910": 123,
        "14911": 73,
        "14912": 244,
        "14913": 215,
        "14914": 188,
        "14915": 227,
        "14916": 216,
        "14917": 197,
        "14918": 183,
        "14919": 163,
        "14920": 24,
        "14921": 201,
        "14922": 68,
        "14923": 139,
        "14924": 223,
        "14925": 179,
        "14926": 230,
        "14927": 180,
        "14928": 122,
        "14929": 25,
        "14930": 19,
        "14931": 96,
        "14932": 56,
        "14933": 97,
        "14934": 9,
        "14935": 86,
        "14936": 136,
        "14937": 91,
        "14938": 230,
        "14939": 34,
        "14940": 179,
        "14941": 22,
        "14942": 44,
        "14943": 180,
        "14944": 154,
        "14945": 216,
        "14946": 243,
        "14947": 196,
        "14948": 250,
        "14949": 57,
        "14950": 165,
        "14951": 89,
        "14952": 99,
        "14953": 226,
        "14954": 135,
        "14955": 146,
        "14956": 164,
        "14957": 144,
        "14958": 188,
        "14959": 68,
        "14960": 54,
        "14961": 122,
        "14962": 225,
        "14963": 86,
        "14964": 142,
        "14965": 171,
        "14966": 197,
        "14967": 57,
        "14968": 119,
        "14969": 152,
        "14970": 166,
        "14971": 207,
        "14972": 205,
        "14973": 88,
        "14974": 244,
        "14975": 24,
        "14976": 139,
        "14977": 158,
        "14978": 115,
        "14979": 208,
        "14980": 123,
        "14981": 5,
        "14982": 102,
        "14983": 215,
        "14984": 243,
        "14985": 210,
        "14986": 33,
        "14987": 17,
        "14988": 34,
        "14989": 173,
        "14990": 158,
        "14991": 180,
        "14992": 206,
        "14993": 149,
        "14994": 100,
        "14995": 66,
        "14996": 56,
        "14997": 120,
        "14998": 163,
        "14999": 253,
        "15000": 220,
        "15001": 174,
        "15002": 20,
        "15003": 56,
        "15004": 229,
        "15005": 134,
        "15006": 52,
        "15007": 45,
        "15008": 71,
        "15009": 131,
        "15010": 64,
        "15011": 21,
        "15012": 9,
        "15013": 172,
        "15014": 65,
        "15015": 158,
        "15016": 107,
        "15017": 44,
        "15018": 169,
        "15019": 228,
        "15020": 242,
        "15021": 105,
        "15022": 66,
        "15023": 246,
        "15024": 165,
        "15025": 109,
        "15026": 76,
        "15027": 168,
        "15028": 242,
        "15029": 133,
        "15030": 243,
        "15031": 204,
        "15032": 73,
        "15033": 88,
        "15034": 97,
        "15035": 133,
        "15036": 222,
        "15037": 106,
        "15038": 158,
        "15039": 243,
        "15040": 239,
        "15041": 80,
        "15042": 29,
        "15043": 222,
        "15044": 106,
        "15045": 86,
        "15046": 145,
        "15047": 124,
        "15048": 79,
        "15049": 111,
        "15050": 79,
        "15051": 200,
        "15052": 15,
        "15053": 210,
        "15054": 218,
        "15055": 179,
        "15056": 253,
        "15057": 94,
        "15058": 111,
        "15059": 227,
        "15060": 193,
        "15061": 169,
        "15062": 137,
        "15063": 17,
        "15064": 72,
        "15065": 195,
        "15066": 209,
        "15067": 135,
        "15068": 37,
        "15069": 76,
        "15070": 124,
        "15071": 233,
        "15072": 54,
        "15073": 122,
        "15074": 122,
        "15075": 161,
        "15076": 18,
        "15077": 51,
        "15078": 6,
        "15079": 137,
        "15080": 251,
        "15081": 105,
        "15082": 141,
        "15083": 250,
        "15084": 178,
        "15085": 132,
        "15086": 125,
        "15087": 172,
        "15088": 116,
        "15089": 230,
        "15090": 191,
        "15091": 37,
        "15092": 203,
        "15093": 230,
        "15094": 145,
        "15095": 108,
        "15096": 162,
        "15097": 124,
        "15098": 238,
        "15099": 112,
        "15100": 22,
        "15101": 206,
        "15102": 242,
        "15103": 207,
        "15104": 137,
        "15105": 81,
        "15106": 191,
        "15107": 13,
        "15108": 83,
        "15109": 139,
        "15110": 61,
        "15111": 57,
        "15112": 229,
        "15113": 224,
        "15114": 118,
        "15115": 21,
        "15116": 133,
        "15117": 114,
        "15118": 235,
        "15119": 223,
        "15120": 40,
        "15121": 131,
        "15122": 20,
        "15123": 45,
        "15124": 77,
        "15125": 159,
        "15126": 189,
        "15127": 42,
        "15128": 136,
        "15129": 16,
        "15130": 73,
        "15131": 238,
        "15132": 225,
        "15133": 8,
        "15134": 65,
        "15135": 146,
        "15136": 76,
        "15137": 97,
        "15138": 225,
        "15139": 223,
        "15140": 175,
        "15141": 236,
        "15142": 209,
        "15143": 138,
        "15144": 128,
        "15145": 205,
        "15146": 87,
        "15147": 239,
        "15148": 60,
        "15149": 47,
        "15150": 109,
        "15151": 175,
        "15152": 81,
        "15153": 233,
        "15154": 192,
        "15155": 222,
        "15156": 74,
        "15157": 233,
        "15158": 248,
        "15159": 221,
        "15160": 204,
        "15161": 17,
        "15162": 20,
        "15163": 190,
        "15164": 129,
        "15165": 56,
        "15166": 175,
        "15167": 221,
        "15168": 27,
        "15169": 99,
        "15170": 248,
        "15171": 49,
        "15172": 151,
        "15173": 196,
        "15174": 201,
        "15175": 6,
        "15176": 228,
        "15177": 182,
        "15178": 78,
        "15179": 28,
        "15180": 175,
        "15181": 51,
        "15182": 107,
        "15183": 245,
        "15184": 69,
        "15185": 178,
        "15186": 135,
        "15187": 211,
        "15188": 10,
        "15189": 61,
        "15190": 159,
        "15191": 139,
        "15192": 24,
        "15193": 154,
        "15194": 96,
        "15195": 126,
        "15196": 243,
        "15197": 56,
        "15198": 158,
        "15199": 51,
        "15200": 168,
        "15201": 240,
        "15202": 152,
        "15203": 102,
        "15204": 236,
        "15205": 198,
        "15206": 161,
        "15207": 32,
        "15208": 201,
        "15209": 220,
        "15210": 31,
        "15211": 102,
        "15212": 140,
        "15213": 92,
        "15214": 5,
        "15215": 234,
        "15216": 191,
        "15217": 185,
        "15218": 69,
        "15219": 163,
        "15220": 157,
        "15221": 91,
        "15222": 51,
        "15223": 174,
        "15224": 143,
        "15225": 210,
        "15226": 212,
        "15227": 211,
        "15228": 181,
        "15229": 68,
        "15230": 137,
        "15231": 119,
        "15232": 64,
        "15233": 6,
        "15234": 99,
        "15235": 78,
        "15236": 51,
        "15237": 124,
        "15238": 2,
        "15239": 246,
        "15240": 143,
        "15241": 174,
        "15242": 24,
        "15243": 53,
        "15244": 201,
        "15245": 197,
        "15246": 236,
        "15247": 83,
        "15248": 25,
        "15249": 79,
        "15250": 57,
        "15251": 74,
        "15252": 244,
        "15253": 202,
        "15254": 232,
        "15255": 86,
        "15256": 109,
        "15257": 161,
        "15258": 84,
        "15259": 146,
        "15260": 70,
        "15261": 28,
        "15262": 62,
        "15263": 220,
        "15264": 152,
        "15265": 21,
        "15266": 42,
        "15267": 95,
        "15268": 27,
        "15269": 87,
        "15270": 241,
        "15271": 41,
        "15272": 175,
        "15273": 177,
        "15274": 131,
        "15275": 49,
        "15276": 197,
        "15277": 177,
        "15278": 175,
        "15279": 32,
        "15280": 172,
        "15281": 118,
        "15282": 77,
        "15283": 137,
        "15284": 101,
        "15285": 28,
        "15286": 15,
        "15287": 193,
        "15288": 18,
        "15289": 53,
        "15290": 193,
        "15291": 56,
        "15292": 125,
        "15293": 39,
        "15294": 104,
        "15295": 158,
        "15296": 200,
        "15297": 195,
        "15298": 196,
        "15299": 44,
        "15300": 8,
        "15301": 106,
        "15302": 52,
        "15303": 16,
        "15304": 213,
        "15305": 45,
        "15306": 184,
        "15307": 183,
        "15308": 145,
        "15309": 39,
        "15310": 110,
        "15311": 231,
        "15312": 55,
        "15313": 154,
        "15314": 196,
        "15315": 46,
        "15316": 102,
        "15317": 254,
        "15318": 39,
        "15319": 48,
        "15320": 228,
        "15321": 127,
        "15322": 9,
        "15323": 161,
        "15324": 58,
        "15325": 50,
        "15326": 197,
        "15327": 62,
        "15328": 65,
        "15329": 20,
        "15330": 136,
        "15331": 232,
        "15332": 158,
        "15333": 94,
        "15334": 225,
        "15335": 50,
        "15336": 8,
        "15337": 65,
        "15338": 87,
        "15339": 168,
        "15340": 210,
        "15341": 85,
        "15342": 94,
        "15343": 75,
        "15344": 0,
        "15345": 49,
        "15346": 238,
        "15347": 112,
        "15348": 219,
        "15349": 26,
        "15350": 55,
        "15351": 27,
        "15352": 121,
        "15353": 239,
        "15354": 229,
        "15355": 204,
        "15356": 226,
        "15357": 106,
        "15358": 119,
        "15359": 133,
        "15360": 218,
        "15361": 220,
        "15362": 141,
        "15363": 120,
        "15364": 26,
        "15365": 132,
        "15366": 9,
        "15367": 61,
        "15368": 28,
        "15369": 115,
        "15370": 134,
        "15371": 234,
        "15372": 135,
        "15373": 83,
        "15374": 39,
        "15375": 216,
        "15376": 168,
        "15377": 12,
        "15378": 180,
        "15379": 123,
        "15380": 72,
        "15381": 116,
        "15382": 195,
        "15383": 56,
        "15384": 250,
        "15385": 28,
        "15386": 7,
        "15387": 85,
        "15388": 222,
        "15389": 205,
        "15390": 166,
        "15391": 169,
        "15392": 38,
        "15393": 169,
        "15394": 143,
        "15395": 93,
        "15396": 70,
        "15397": 91,
        "15398": 133,
        "15399": 11,
        "15400": 21,
        "15401": 225,
        "15402": 81,
        "15403": 167,
        "15404": 34,
        "15405": 169,
        "15406": 164,
        "15407": 168,
        "15408": 199,
        "15409": 178,
        "15410": 1,
        "15411": 159,
        "15412": 64,
        "15413": 66,
        "15414": 119,
        "15415": 62,
        "15416": 131,
        "15417": 9,
        "15418": 206,
        "15419": 69,
        "15420": 5,
        "15421": 76,
        "15422": 159,
        "15423": 7,
        "15424": 21,
        "15425": 233,
        "15426": 84,
        "15427": 97,
        "15428": 230,
        "15429": 26,
        "15430": 208,
        "15431": 244,
        "15432": 230,
        "15433": 96,
        "15434": 193,
        "15435": 247,
        "15436": 147,
        "15437": 214,
        "15438": 252,
        "15439": 107,
        "15440": 140,
        "15441": 161,
        "15442": 31,
        "15443": 149,
        "15444": 62,
        "15445": 184,
        "15446": 13,
        "15447": 124,
        "15448": 178,
        "15449": 177,
        "15450": 98,
        "15451": 127,
        "15452": 92,
        "15453": 77,
        "15454": 68,
        "15455": 45,
        "15456": 208,
        "15457": 31,
        "15458": 171,
        "15459": 241,
        "15460": 251,
        "15461": 76,
        "15462": 77,
        "15463": 210,
        "15464": 239,
        "15465": 227,
        "15466": 61,
        "15467": 192,
        "15468": 126,
        "15469": 182,
        "15470": 32,
        "15471": 244,
        "15472": 199,
        "15473": 174,
        "15474": 206,
        "15475": 244,
        "15476": 83,
        "15477": 237,
        "15478": 190,
        "15479": 179,
        "15480": 239,
        "15481": 79,
        "15482": 145,
        "15483": 12,
        "15484": 77,
        "15485": 73,
        "15486": 82,
        "15487": 119,
        "15488": 203,
        "15489": 214,
        "15490": 120,
        "15491": 239,
        "15492": 241,
        "15493": 239,
        "15494": 172,
        "15495": 128,
        "15496": 49,
        "15497": 154,
        "15498": 186,
        "15499": 60,
        "15500": 163,
        "15501": 191,
        "15502": 142,
        "15503": 46,
        "15504": 21,
        "15505": 77,
        "15506": 90,
        "15507": 179,
        "15508": 254,
        "15509": 199,
        "15510": 210,
        "15511": 27,
        "15512": 95,
        "15513": 91,
        "15514": 113,
        "15515": 253,
        "15516": 96,
        "15517": 202,
        "15518": 5,
        "15519": 32,
        "15520": 171,
        "15521": 137,
        "15522": 11,
        "15523": 93,
        "15524": 108,
        "15525": 111,
        "15526": 157,
        "15527": 145,
        "15528": 40,
        "15529": 115,
        "15530": 79,
        "15531": 3,
        "15532": 71,
        "15533": 75,
        "15534": 78,
        "15535": 253,
        "15536": 135,
        "15537": 240,
        "15538": 187,
        "15539": 105,
        "15540": 116,
        "15541": 209,
        "15542": 198,
        "15543": 42,
        "15544": 73,
        "15545": 116,
        "15546": 224,
        "15547": 117,
        "15548": 148,
        "15549": 217,
        "15550": 79,
        "15551": 107,
        "15552": 186,
        "15553": 6,
        "15554": 178,
        "15555": 251,
        "15556": 159,
        "15557": 19,
        "15558": 225,
        "15559": 172,
        "15560": 13,
        "15561": 61,
        "15562": 7,
        "15563": 51,
        "15564": 49,
        "15565": 131,
        "15566": 99,
        "15567": 221,
        "15568": 164,
        "15569": 102,
        "15570": 179,
        "15571": 63,
        "15572": 88,
        "15573": 127,
        "15574": 235,
        "15575": 5,
        "15576": 141,
        "15577": 38,
        "15578": 145,
        "15579": 155,
        "15580": 47,
        "15581": 129,
        "15582": 44,
        "15583": 97,
        "15584": 153,
        "15585": 253,
        "15586": 33,
        "15587": 138,
        "15588": 79,
        "15589": 160,
        "15590": 236,
        "15591": 62,
        "15592": 128,
        "15593": 73,
        "15594": 58,
        "15595": 36,
        "15596": 143,
        "15597": 72,
        "15598": 47,
        "15599": 6,
        "15600": 81,
        "15601": 88,
        "15602": 28,
        "15603": 65,
        "15604": 171,
        "15605": 232,
        "15606": 183,
        "15607": 73,
        "15608": 86,
        "15609": 30,
        "15610": 246,
        "15611": 125,
        "15612": 85,
        "15613": 46,
        "15614": 130,
        "15615": 115,
        "15616": 162,
        "15617": 163,
        "15618": 250,
        "15619": 168,
        "15620": 64,
        "15621": 221,
        "15622": 90,
        "15623": 230,
        "15624": 23,
        "15625": 189,
        "15626": 65,
        "15627": 49,
        "15628": 177,
        "15629": 90,
        "15630": 117,
        "15631": 197,
        "15632": 216,
        "15633": 56,
        "15634": 147,
        "15635": 91,
        "15636": 79,
        "15637": 228,
        "15638": 121,
        "15639": 15,
        "15640": 37,
        "15641": 188,
        "15642": 230,
        "15643": 239,
        "15644": 58,
        "15645": 213,
        "15646": 90,
        "15647": 71,
        "15648": 236,
        "15649": 33,
        "15650": 74,
        "15651": 12,
        "15652": 160,
        "15653": 21,
        "15654": 208,
        "15655": 127,
        "15656": 84,
        "15657": 27,
        "15658": 251,
        "15659": 252,
        "15660": 65,
        "15661": 141,
        "15662": 20,
        "15663": 175,
        "15664": 143,
        "15665": 21,
        "15666": 91,
        "15667": 89,
        "15668": 68,
        "15669": 232,
        "15670": 32,
        "15671": 113,
        "15672": 105,
        "15673": 231,
        "15674": 121,
        "15675": 178,
        "15676": 149,
        "15677": 87,
        "15678": 133,
        "15679": 191,
        "15680": 16,
        "15681": 182,
        "15682": 221,
        "15683": 72,
        "15684": 91,
        "15685": 198,
        "15686": 218,
        "15687": 30,
        "15688": 0,
        "15689": 146,
        "15690": 138,
        "15691": 10,
        "15692": 38,
        "15693": 179,
        "15694": 217,
        "15695": 240,
        "15696": 17,
        "15697": 119,
        "15698": 31,
        "15699": 76,
        "15700": 28,
        "15701": 223,
        "15702": 231,
        "15703": 194,
        "15704": 129,
        "15705": 219,
        "15706": 234,
        "15707": 3,
        "15708": 255,
        "15709": 162,
        "15710": 243,
        "15711": 252,
        "15712": 15,
        "15713": 195,
        "15714": 35,
        "15715": 91,
        "15716": 89,
        "15717": 50,
        "15718": 213,
        "15719": 212,
        "15720": 247,
        "15721": 61,
        "15722": 251,
        "15723": 205,
        "15724": 22,
        "15725": 198,
        "15726": 39,
        "15727": 78,
        "15728": 249,
        "15729": 134,
        "15730": 250,
        "15731": 101,
        "15732": 171,
        "15733": 194,
        "15734": 101,
        "15735": 88,
        "15736": 119,
        "15737": 9,
        "15738": 247,
        "15739": 98,
        "15740": 238,
        "15741": 29,
        "15742": 68,
        "15743": 121,
        "15744": 98,
        "15745": 247,
        "15746": 66,
        "15747": 76,
        "15748": 193,
        "15749": 24,
        "15750": 59,
        "15751": 41,
        "15752": 196,
        "15753": 134,
        "15754": 181,
        "15755": 68,
        "15756": 63,
        "15757": 116,
        "15758": 249,
        "15759": 154,
        "15760": 237,
        "15761": 19,
        "15762": 250,
        "15763": 8,
        "15764": 149,
        "15765": 159,
        "15766": 230,
        "15767": 215,
        "15768": 42,
        "15769": 138,
        "15770": 201,
        "15771": 174,
        "15772": 83,
        "15773": 95,
        "15774": 121,
        "15775": 141,
        "15776": 147,
        "15777": 146,
        "15778": 24,
        "15779": 103,
        "15780": 177,
        "15781": 106,
        "15782": 241,
        "15783": 49,
        "15784": 162,
        "15785": 217,
        "15786": 226,
        "15787": 148,
        "15788": 213,
        "15789": 5,
        "15790": 35,
        "15791": 97,
        "15792": 234,
        "15793": 46,
        "15794": 174,
        "15795": 156,
        "15796": 181,
        "15797": 216,
        "15798": 177,
        "15799": 126,
        "15800": 95,
        "15801": 190,
        "15802": 136,
        "15803": 105,
        "15804": 98,
        "15805": 206,
        "15806": 139,
        "15807": 213,
        "15808": 66,
        "15809": 11,
        "15810": 252,
        "15811": 97,
        "15812": 151,
        "15813": 214,
        "15814": 129,
        "15815": 133,
        "15816": 190,
        "15817": 77,
        "15818": 220,
        "15819": 139,
        "15820": 163,
        "15821": 219,
        "15822": 170,
        "15823": 136,
        "15824": 211,
        "15825": 144,
        "15826": 210,
        "15827": 29,
        "15828": 239,
        "15829": 216,
        "15830": 231,
        "15831": 129,
        "15832": 80,
        "15833": 25,
        "15834": 237,
        "15835": 127,
        "15836": 208,
        "15837": 136,
        "15838": 139,
        "15839": 0,
        "15840": 112,
        "15841": 131,
        "15842": 112,
        "15843": 91,
        "15844": 155,
        "15845": 193,
        "15846": 27,
        "15847": 116,
        "15848": 198,
        "15849": 77,
        "15850": 40,
        "15851": 119,
        "15852": 224,
        "15853": 188,
        "15854": 101,
        "15855": 142,
        "15856": 216,
        "15857": 114,
        "15858": 196,
        "15859": 102,
        "15860": 66,
        "15861": 112,
        "15862": 244,
        "15863": 191,
        "15864": 59,
        "15865": 136,
        "15866": 238,
        "15867": 60,
        "15868": 51,
        "15869": 190,
        "15870": 94,
        "15871": 210,
        "15872": 92,
        "15873": 194,
        "15874": 37,
        "15875": 69,
        "15876": 85,
        "15877": 119,
        "15878": 137,
        "15879": 203,
        "15880": 40,
        "15881": 213,
        "15882": 83,
        "15883": 19,
        "15884": 21,
        "15885": 222,
        "15886": 140,
        "15887": 200,
        "15888": 100,
        "15889": 78,
        "15890": 251,
        "15891": 208,
        "15892": 67,
        "15893": 66,
        "15894": 39,
        "15895": 221,
        "15896": 91,
        "15897": 124,
        "15898": 209,
        "15899": 20,
        "15900": 197,
        "15901": 71,
        "15902": 123,
        "15903": 51,
        "15904": 29,
        "15905": 174,
        "15906": 200,
        "15907": 93,
        "15908": 203,
        "15909": 200,
        "15910": 180,
        "15911": 9,
        "15912": 246,
        "15913": 167,
        "15914": 86,
        "15915": 144,
        "15916": 177,
        "15917": 239,
        "15918": 161,
        "15919": 160,
        "15920": 14,
        "15921": 57,
        "15922": 84,
        "15923": 102,
        "15924": 20,
        "15925": 125,
        "15926": 35,
        "15927": 91,
        "15928": 106,
        "15929": 143,
        "15930": 182,
        "15931": 175,
        "15932": 237,
        "15933": 163,
        "15934": 148,
        "15935": 122,
        "15936": 68,
        "15937": 139,
        "15938": 203,
        "15939": 11,
        "15940": 158,
        "15941": 140,
        "15942": 3,
        "15943": 169,
        "15944": 18,
        "15945": 42,
        "15946": 19,
        "15947": 50,
        "15948": 10,
        "15949": 164,
        "15950": 197,
        "15951": 242,
        "15952": 161,
        "15953": 210,
        "15954": 223,
        "15955": 75,
        "15956": 105,
        "15957": 59,
        "15958": 4,
        "15959": 130,
        "15960": 98,
        "15961": 224,
        "15962": 46,
        "15963": 251,
        "15964": 76,
        "15965": 106,
        "15966": 69,
        "15967": 122,
        "15968": 26,
        "15969": 167,
        "15970": 166,
        "15971": 72,
        "15972": 51,
        "15973": 252,
        "15974": 155,
        "15975": 203,
        "15976": 181,
        "15977": 229,
        "15978": 173,
        "15979": 223,
        "15980": 237,
        "15981": 96,
        "15982": 207,
        "15983": 19,
        "15984": 255,
        "15985": 123,
        "15986": 23,
        "15987": 231,
        "15988": 209,
        "15989": 158,
        "15990": 114,
        "15991": 190,
        "15992": 190,
        "15993": 181,
        "15994": 169,
        "15995": 10,
        "15996": 162,
        "15997": 84,
        "15998": 19,
        "15999": 133,
        "16000": 218,
        "16001": 231,
        "16002": 190,
        "16003": 18,
        "16004": 250,
        "16005": 113,
        "16006": 253,
        "16007": 152,
        "16008": 1,
        "16009": 161,
        "16010": 222,
        "16011": 248,
        "16012": 148,
        "16013": 154,
        "16014": 193,
        "16015": 0,
        "16016": 5,
        "16017": 53,
        "16018": 81,
        "16019": 230,
        "16020": 69,
        "16021": 123,
        "16022": 10,
        "16023": 137,
        "16024": 200,
        "16025": 215,
        "16026": 215,
        "16027": 233,
        "16028": 135,
        "16029": 199,
        "16030": 89,
        "16031": 80,
        "16032": 7,
        "16033": 79,
        "16034": 168,
        "16035": 66,
        "16036": 175,
        "16037": 88,
        "16038": 135,
        "16039": 85,
        "16040": 132,
        "16041": 166,
        "16042": 100,
        "16043": 38,
        "16044": 22,
        "16045": 187,
        "16046": 199,
        "16047": 95,
        "16048": 202,
        "16049": 208,
        "16050": 242,
        "16051": 214,
        "16052": 137,
        "16053": 171,
        "16054": 254,
        "16055": 212,
        "16056": 188,
        "16057": 21,
        "16058": 194,
        "16059": 96,
        "16060": 237,
        "16061": 73,
        "16062": 223,
        "16063": 161,
        "16064": 230,
        "16065": 26,
        "16066": 126,
        "16067": 6,
        "16068": 139,
        "16069": 239,
        "16070": 80,
        "16071": 135,
        "16072": 152,
        "16073": 135,
        "16074": 80,
        "16075": 245,
        "16076": 37,
        "16077": 250,
        "16078": 212,
        "16079": 17,
        "16080": 66,
        "16081": 14,
        "16082": 162,
        "16083": 55,
        "16084": 242,
        "16085": 10,
        "16086": 184,
        "16087": 66,
        "16088": 111,
        "16089": 31,
        "16090": 40,
        "16091": 108,
        "16092": 198,
        "16093": 214,
        "16094": 158,
        "16095": 108,
        "16096": 117,
        "16097": 40,
        "16098": 116,
        "16099": 76,
        "16100": 218,
        "16101": 163,
        "16102": 79,
        "16103": 66,
        "16104": 198,
        "16105": 44,
        "16106": 133,
        "16107": 168,
        "16108": 1,
        "16109": 124,
        "16110": 222,
        "16111": 233,
        "16112": 110,
        "16113": 133,
        "16114": 29,
        "16115": 63,
        "16116": 254,
        "16117": 207,
        "16118": 100,
        "16119": 139,
        "16120": 240,
        "16121": 10,
        "16122": 234,
        "16123": 164,
        "16124": 75,
        "16125": 0,
        "16126": 218,
        "16127": 148,
        "16128": 97,
        "16129": 121,
        "16130": 184,
        "16131": 64,
        "16132": 226,
        "16133": 28,
        "16134": 110,
        "16135": 23,
        "16136": 223,
        "16137": 228,
        "16138": 158,
        "16139": 42,
        "16140": 41,
        "16141": 101,
        "16142": 89,
        "16143": 95,
        "16144": 80,
        "16145": 27,
        "16146": 151,
        "16147": 162,
        "16148": 224,
        "16149": 84,
        "16150": 21,
        "16151": 19,
        "16152": 230,
        "16153": 137,
        "16154": 177,
        "16155": 165,
        "16156": 136,
        "16157": 200,
        "16158": 174,
        "16159": 135,
        "16160": 133,
        "16161": 9,
        "16162": 43,
        "16163": 27,
        "16164": 67,
        "16165": 199,
        "16166": 106,
        "16167": 227,
        "16168": 78,
        "16169": 190,
        "16170": 236,
        "16171": 219,
        "16172": 144,
        "16173": 174,
        "16174": 23,
        "16175": 15,
        "16176": 101,
        "16177": 32,
        "16178": 230,
        "16179": 47,
        "16180": 226,
        "16181": 42,
        "16182": 212,
        "16183": 93,
        "16184": 13,
        "16185": 95,
        "16186": 234,
        "16187": 33,
        "16188": 189,
        "16189": 239,
        "16190": 151,
        "16191": 98,
        "16192": 169,
        "16193": 7,
        "16194": 109,
        "16195": 19,
        "16196": 85,
        "16197": 235,
        "16198": 146,
        "16199": 13,
        "16200": 29,
        "16201": 31,
        "16202": 164,
        "16203": 254,
        "16204": 9,
        "16205": 234,
        "16206": 138,
        "16207": 173,
        "16208": 210,
        "16209": 40,
        "16210": 248,
        "16211": 35,
        "16212": 217,
        "16213": 25,
        "16214": 206,
        "16215": 242,
        "16216": 22,
        "16217": 143,
        "16218": 222,
        "16219": 101,
        "16220": 15,
        "16221": 48,
        "16222": 213,
        "16223": 146,
        "16224": 95,
        "16225": 238,
        "16226": 113,
        "16227": 51,
        "16228": 214,
        "16229": 22,
        "16230": 120,
        "16231": 82,
        "16232": 215,
        "16233": 90,
        "16234": 24,
        "16235": 235,
        "16236": 116,
        "16237": 49,
        "16238": 115,
        "16239": 48,
        "16240": 66,
        "16241": 184,
        "16242": 34,
        "16243": 81,
        "16244": 77,
        "16245": 135,
        "16246": 212,
        "16247": 245,
        "16248": 244,
        "16249": 15,
        "16250": 181,
        "16251": 96,
        "16252": 23,
        "16253": 59,
        "16254": 101,
        "16255": 204,
        "16256": 62,
        "16257": 129,
        "16258": 239,
        "16259": 67,
        "16260": 218,
        "16261": 147,
        "16262": 15,
        "16263": 117,
        "16264": 23,
        "16265": 208,
        "16266": 101,
        "16267": 172,
        "16268": 181,
        "16269": 59,
        "16270": 167,
        "16271": 247,
        "16272": 74,
        "16273": 207,
        "16274": 201,
        "16275": 93,
        "16276": 55,
        "16277": 5,
        "16278": 106,
        "16279": 216,
        "16280": 70,
        "16281": 17,
        "16282": 133,
        "16283": 19,
        "16284": 137,
        "16285": 75,
        "16286": 193,
        "16287": 202,
        "16288": 223,
        "16289": 225,
        "16290": 252,
        "16291": 74,
        "16292": 6,
        "16293": 137,
        "16294": 21,
        "16295": 252,
        "16296": 247,
        "16297": 179,
        "16298": 241,
        "16299": 218,
        "16300": 21,
        "16301": 1,
        "16302": 50,
        "16303": 157,
        "16304": 205,
        "16305": 63,
        "16306": 142,
        "16307": 89,
        "16308": 28,
        "16309": 159,
        "16310": 212,
        "16311": 148,
        "16312": 47,
        "16313": 19,
        "16314": 161,
        "16315": 17,
        "16316": 238,
        "16317": 141,
        "16318": 175,
        "16319": 180,
        "16320": 224,
        "16321": 241,
        "16322": 73,
        "16323": 141,
        "16324": 70,
        "16325": 183,
        "16326": 242,
        "16327": 30,
        "16328": 144,
        "16329": 183,
        "16330": 245,
        "16331": 44,
        "16332": 86,
        "16333": 80,
        "16334": 136,
        "16335": 129,
        "16336": 22,
        "16337": 43,
        "16338": 54,
        "16339": 19,
        "16340": 244,
        "16341": 169,
        "16342": 14,
        "16343": 100,
        "16344": 240,
        "16345": 36,
        "16346": 192,
        "16347": 232,
        "16348": 110,
        "16349": 36,
        "16350": 55,
        "16351": 44,
        "16352": 127,
        "16353": 189,
        "16354": 11,
        "16355": 159,
        "16356": 24,
        "16357": 220,
        "16358": 254,
        "16359": 116,
        "16360": 253,
        "16361": 92,
        "16362": 15,
        "16363": 6,
        "16364": 63,
        "16365": 38,
        "16366": 15,
        "16367": 227,
        "16368": 130,
        "16369": 95,
        "16370": 36,
        "16371": 32,
        "16372": 15,
        "16373": 145,
        "16374": 103,
        "16375": 42,
        "16376": 253,
        "16377": 70,
        "16378": 201,
        "16379": 177,
        "16380": 215,
        "16381": 225,
        "16382": 201,
        "16383": 40,
        "16384": 223,
        "16385": 213,
        "16386": 143,
        "16387": 93,
        "16388": 57,
        "16389": 66,
        "16390": 136,
        "16391": 159,
        "16392": 151,
        "16393": 66,
        "16394": 61,
        "16395": 164,
        "16396": 200,
        "16397": 207,
        "16398": 2,
        "16399": 99,
        "16400": 38,
        "16401": 119,
        "16402": 24,
        "16403": 160,
        "16404": 143,
        "16405": 173,
        "16406": 88,
        "16407": 183,
        "16408": 27,
        "16409": 54,
        "16410": 161,
        "16411": 161,
        "16412": 224,
        "16413": 58,
        "16414": 113,
        "16415": 248,
        "16416": 54,
        "16417": 202,
        "16418": 89,
        "16419": 93,
        "16420": 136,
        "16421": 77,
        "16422": 242,
        "16423": 42,
        "16424": 65,
        "16425": 98,
        "16426": 222,
        "16427": 46,
        "16428": 115,
        "16429": 243,
        "16430": 93,
        "16431": 147,
        "16432": 140,
        "16433": 218,
        "16434": 13,
        "16435": 33,
        "16436": 48,
        "16437": 155,
        "16438": 78,
        "16439": 7,
        "16440": 48,
        "16441": 202,
        "16442": 43,
        "16443": 186,
        "16444": 178,
        "16445": 35,
        "16446": 179,
        "16447": 59,
        "16448": 222,
        "16449": 130,
        "16450": 206,
        "16451": 124,
        "16452": 148,
        "16453": 21,
        "16454": 134,
        "16455": 25,
        "16456": 190,
        "16457": 132,
        "16458": 9,
        "16459": 60,
        "16460": 93,
        "16461": 184,
        "16462": 100,
        "16463": 77,
        "16464": 74,
        "16465": 169,
        "16466": 95,
        "16467": 98,
        "16468": 120,
        "16469": 253,
        "16470": 179,
        "16471": 146,
        "16472": 66,
        "16473": 3,
        "16474": 114,
        "16475": 95,
        "16476": 167,
        "16477": 124,
        "16478": 144,
        "16479": 85,
        "16480": 59,
        "16481": 6,
        "16482": 50,
        "16483": 207,
        "16484": 49,
        "16485": 232,
        "16486": 115,
        "16487": 234,
        "16488": 122,
        "16489": 245,
        "16490": 80,
        "16491": 113,
        "16492": 83,
        "16493": 66,
        "16494": 75,
        "16495": 219,
        "16496": 161,
        "16497": 124,
        "16498": 84,
        "16499": 175,
        "16500": 110,
        "16501": 238,
        "16502": 75,
        "16503": 59,
        "16504": 119,
        "16505": 155,
        "16506": 8,
        "16507": 237,
        "16508": 224,
        "16509": 142,
        "16510": 5,
        "16511": 27,
        "16512": 7,
        "16513": 172,
        "16514": 42,
        "16515": 20,
        "16516": 42,
        "16517": 173,
        "16518": 246,
        "16519": 197,
        "16520": 1,
        "16521": 8,
        "16522": 0,
        "16523": 0,
        "16524": 0,
        "16525": 0,
        "16526": 0,
        "16527": 0,
        "16528": 16,
        "16529": 0,
        "16530": 0,
        "16531": 0,
        "16532": 0,
        "16533": 0,
        "16534": 0,
        "16535": 0,
        "16536": 0,
        "16537": 0,
        "16538": 0,
        "16539": 0,
        "16540": 0,
        "16541": 0,
        "16542": 0,
        "16543": 0,
        "16544": 0,
        "16545": 0,
        "16546": 0,
        "16547": 0,
        "16548": 0,
        "16549": 0,
        "16550": 0,
        "16551": 0,
        "16552": 64,
        "16553": 0,
        "16554": 0,
        "16555": 0,
        "16556": 0,
        "16557": 0,
        "16558": 0,
        "16559": 0,
        "16560": 3,
        "16561": 0,
        "16562": 0,
        "16563": 0,
        "16564": 0,
        "16565": 0,
        "16566": 0,
        "16567": 0,
        "16568": 4,
        "16569": 0,
        "16570": 0,
        "16571": 0,
        "16572": 0,
        "16573": 0,
        "16574": 0,
        "16575": 0,
        "16576": 4,
        "16577": 0,
        "16578": 0,
        "16579": 0,
        "16580": 0,
        "16581": 0,
        "16582": 0,
        "16583": 0,
        "16584": 0,
        "16585": 0,
        "16586": 0,
        "16587": 0,
        "16588": 1,
        "16589": 0,
        "16590": 0,
        "16591": 0,
        "16592": 0,
        "16593": 0,
        "16594": 0,
        "16595": 0,
        "16596": 16,
        "16597": 0,
        "16598": 0,
        "16599": 0,
        "16600": 0,
        "16601": 0,
        "16602": 0,
        "16603": 0
      }
    }
  ],
  "numDeployments": 3,
  "solcInputHash": "c0e889dcb69b76266f445d0fe3402b92",
  "bytecode": "0x6101606040526200001760006200026660201b60201c565b6002553480156200002757600080fd5b50604051620046173803806200461783398181016040528101906200004d919062000b83565b6040518060400160405280600881526020017f46616b65204555520000000000000000000000000000000000000000000000008152506040518060400160405280600481526020017f6645555200000000000000000000000000000000000000000000000000000000815250338383836040518060400160405280601181526020017f4668656e6978205065726d697373696f6e0000000000000000000000000000008152506040518060400160405280600381526020017f312e3000000000000000000000000000000000000000000000000000000000008152506200013f6000836200028260201b90919060201c565b61012081815250506200015d6001826200028260201b90919060201c565b6101408181525050818051906020012060e08181525050808051906020012061010081815250504660a081815250506200019c620002da60201b60201c565b608081815250503073ffffffffffffffffffffffffffffffffffffffff1660c08173ffffffffffffffffffffffffffffffffffffffff168152505050508160059081620001ea919062000e1f565b508060069081620001fc919062000e1f565b505050600062000212826200033760201b60201c565b9050620002486200023c8262000230617fff6200026660201b60201c565b6200035560201b60201c565b620003f860201b60201c565b6200025a8382620004cb60201b60201c565b50505050505062001260565b60006200027b8260026200057160201b60201c565b9050919050565b6000602083511015620002a857620002a0836200062860201b60201c565b9050620002d4565b82620002ba836200069560201b60201c565b6000019081620002cb919062000e1f565b5060ff60001b90505b92915050565b60007f8b73c3c69bb8fe3d512ecc4cf759cc79239f7b179b0ffacaa9a75d522b39400f60e0516101005146306040516020016200031c95949392919062000f77565b60405160208183030381529060405280519060200120905090565b60006200034e82600001516200069f60201b60201c565b9050919050565b60006200036883620006bb60201b60201c565b62000382576200037f60006200026660201b60201c565b92505b6200039382620006bb60201b60201c565b620003ad57620003aa60006200026660201b60201c565b91505b600083905060008390506000620003ea60028484608073ffffffffffffffffffffffffffffffffffffffff1663eb274b77620006c860201b60201c565b905080935050505092915050565b62000409816200077960201b60201c565b62000423576200042060006200078660201b60201c565b90505b600081905060006200043b82620007a260201b60201c565b9050608073ffffffffffffffffffffffffffffffffffffffff16637d23f1db600d836040518363ffffffff1660e01b81526004016200047c9291906200104f565b600060405180830381865afa1580156200049a573d6000803e3d6000fd5b505050506040513d6000823e3d601f19601f82011682018060405250810190620004c5919062001083565b50505050565b62000516600360008473ffffffffffffffffffffffffffffffffffffffff1673ffffffffffffffffffffffffffffffffffffffff168152602001908152602001600020548262000803565b600360008473ffffffffffffffffffffffffffffffffffffffff1673ffffffffffffffffffffffffffffffffffffffff16815260200190815260200160002081905550620005676002548262000803565b6002819055505050565b60006060608073ffffffffffffffffffffffffffffffffffffffff166319e1c5c4620005a386620007a260201b60201c565b856040518363ffffffff1660e01b8152600401620005c3929190620010d4565b600060405180830381865afa158015620005e1573d6000803e3d6000fd5b505050506040513d6000823e3d601f19601f820116820180604052508101906200060c919062001083565b90506200061f816200081f60201b60201c565b91505092915050565b600080829050601f815111156200067857826040517f305a27a90000000000000000000000000000000000000000000000000000000081526004016200066f91906200115a565b60405180910390fd5b8051816200068690620011a5565b60001c1760001b915050919050565b6000819050919050565b6000620006b48260026200082d60201b60201c565b9050919050565b6000808214159050919050565b60006060838388620006e089620007a260201b60201c565b620006f189620007a260201b60201c565b6040518463ffffffff1660e01b8152600401620007119392919062001215565b600060405180830381865afa1580156200072f573d6000803e3d6000fd5b505050506040513d6000823e3d601f19601f820116820180604052508101906200075a919062001083565b90506200076d81620008d460201b60201c565b91505095945050505050565b6000808214159050919050565b60006200079b82600d6200057160201b60201c565b9050919050565b6060602067ffffffffffffffff811115620007c257620007c1620009ae565b5b6040519080825280601f01601f191660200182016040528015620007f55781602001600182028036833780820191505090505b509050816020820152919050565b6000620008178383620008e260201b60201c565b905092915050565b600060208201519050919050565b60006060608073ffffffffffffffffffffffffffffffffffffffff16635fa55ca784866040518363ffffffff1660e01b81526004016200086f9291906200104f565b600060405180830381865afa1580156200088d573d6000803e3d6000fd5b505050506040513d6000823e3d601f19601f82011682018060405250810190620008b8919062001083565b9050620008cb816200081f60201b60201c565b91505092915050565b600060208201519050919050565b6000620008f583620006bb60201b60201c565b6200090f576200090c60006200026660201b60201c565b92505b6200092082620006bb60201b60201c565b6200093a576200093760006200026660201b60201c565b91505b6000839050600083905060006200097660028484608073ffffffffffffffffffffffffffffffffffffffff16622df619620006c860201b60201c565b905080935050505092915050565b6000604051905090565b600080fd5b600080fd5b600080fd5b6000601f19601f8301169050919050565b7f4e487b7100000000000000000000000000000000000000000000000000000000600052604160045260246000fd5b620009e8826200099d565b810181811067ffffffffffffffff8211171562000a0a5762000a09620009ae565b5b80604052505050565b600062000a1f62000984565b905062000a2d8282620009dd565b919050565b600080fd5b600080fd5b600080fd5b600067ffffffffffffffff82111562000a5f5762000a5e620009ae565b5b62000a6a826200099d565b9050602081019050919050565b60005b8381101562000a9757808201518184015260208101905062000a7a565b60008484015250505050565b600062000aba62000ab48462000a41565b62000a13565b90508281526020810184848401111562000ad95762000ad862000a3c565b5b62000ae684828562000a77565b509392505050565b600082601f83011262000b065762000b0562000a37565b5b815162000b1884826020860162000aa3565b91505092915050565b60006020828403121562000b3a5762000b3962000998565b5b62000b46602062000a13565b9050600082015167ffffffffffffffff81111562000b695762000b6862000a32565b5b62000b778482850162000aee565b60008301525092915050565b60006020828403121562000b9c5762000b9b6200098e565b5b600082015167ffffffffffffffff81111562000bbd5762000bbc62000993565b5b62000bcb8482850162000b21565b91505092915050565b600081519050919050565b7f4e487b7100000000000000000000000000000000000000000000000000000000600052602260045260246000fd5b6000600282049050600182168062000c2757607f821691505b60208210810362000c3d5762000c3c62000bdf565b5b50919050565b60008190508160005260206000209050919050565b60006020601f8301049050919050565b600082821b905092915050565b60006008830262000ca77fffffffffffffffffffffffffffffffffffffffffffffffffffffffffffffffff8262000c68565b62000cb3868362000c68565b95508019841693508086168417925050509392505050565b6000819050919050565b6000819050919050565b600062000d0062000cfa62000cf48462000ccb565b62000cd5565b62000ccb565b9050919050565b6000819050919050565b62000d1c8362000cdf565b62000d3462000d2b8262000d07565b84845462000c75565b825550505050565b600090565b62000d4b62000d3c565b62000d5881848462000d11565b505050565b5b8181101562000d805762000d7460008262000d41565b60018101905062000d5e565b5050565b601f82111562000dcf5762000d998162000c43565b62000da48462000c58565b8101602085101562000db4578190505b62000dcc62000dc38562000c58565b83018262000d5d565b50505b505050565b600082821c905092915050565b600062000df46000198460080262000dd4565b1980831691505092915050565b600062000e0f838362000de1565b9150826002028217905092915050565b62000e2a8262000bd4565b67ffffffffffffffff81111562000e465762000e45620009ae565b5b62000e52825462000c0e565b62000e5f82828562000d84565b600060209050601f83116001811462000e97576000841562000e82578287015190505b62000e8e858262000e01565b86555062000efe565b601f19841662000ea78662000c43565b60005b8281101562000ed15784890151825560018201915060208501945060208101905062000eaa565b8683101562000ef1578489015162000eed601f89168262000de1565b8355505b6001600288020188555050505b505050505050565b6000819050919050565b62000f1b8162000f06565b82525050565b62000f2c8162000ccb565b82525050565b600073ffffffffffffffffffffffffffffffffffffffff82169050919050565b600062000f5f8262000f32565b9050919050565b62000f718162000f52565b82525050565b600060a08201905062000f8e600083018862000f10565b62000f9d602083018762000f10565b62000fac604083018662000f10565b62000fbb606083018562000f21565b62000fca608083018462000f66565b9695505050505050565b600060ff82169050919050565b62000fec8162000fd4565b82525050565b600081519050919050565b600082825260208201905092915050565b60006200101b8262000ff2565b62001027818562000ffd565b93506200103981856020860162000a77565b62001044816200099d565b840191505092915050565b600060408201905062001066600083018562000fe1565b81810360208301526200107a81846200100e565b90509392505050565b6000602082840312156200109c576200109b6200098e565b5b600082015167ffffffffffffffff811115620010bd57620010bc62000993565b5b620010cb8482850162000aee565b91505092915050565b60006040820190508181036000830152620010f081856200100e565b905062001101602083018462000fe1565b9392505050565b600082825260208201905092915050565b6000620011268262000bd4565b62001132818562001108565b93506200114481856020860162000a77565b6200114f816200099d565b840191505092915050565b6000602082019050818103600083015262001176818462001119565b905092915050565b6000819050602082019050919050565b60006200119c825162000f06565b80915050919050565b6000620011b28262000ff2565b82620011be846200117e565b9050620011cb816200118e565b925060208210156200120e57620012097fffffffffffffffffffffffffffffffffffffffffffffffffffffffffffffffff8360200360080262000c68565b831692505b5050919050565b60006060820190506200122c600083018662000fe1565b81810360208301526200124081856200100e565b905081810360408301526200125681846200100e565b9050949350505050565b60805160a05160c05160e05161010051610120516101405161335c620012bb60003960006118f5015260006118ba0152600061217f0152600061215e015260006119ea01526000611a4001526000611a69015261335c6000f3fe608060405234801561001057600080fd5b50600436106101425760003560e01c80637ecebe00116100b8578063a9059cbb1161007c578063a9059cbb146103b9578063af575a00146103e9578063c4224c1914610419578063d505accf14610449578063d918156e14610465578063dd62ed3e1461049557610142565b80637ecebe00146102fb57806384b0196e1461032b5780638624a3491461034f57806395d89b411461037f5780639f284be71461039d57610142565b80633644e5151161010a5780633644e5151461020157806339c217f71461021f5780635356c4291461024f578063602772041461027f5780636e0505e1146102af57806370a08231146102cb57610142565b806306fdde0314610147578063095ea7b31461016557806318160ddd1461019557806323b872dd146101b3578063313ce567146101e3575b600080fd5b61014f6104c5565b60405161015c9190612433565b60405180910390f35b61017f600480360381019061017a91906124fd565b610557565b60405161018c9190612558565b60405180910390f35b61019d6105ab565b6040516101aa9190612582565b60405180910390f35b6101cd60048036038101906101c8919061259d565b6105bd565b6040516101da9190612558565b60405180910390f35b6101eb610692565b6040516101f8919061260c565b60405180910390f35b610209610697565b6040516102169190612640565b60405180910390f35b6102396004803603810190610234919061267f565b610729565b6040516102469190612716565b60405180910390f35b61026960048036038101906102649190612750565b61074e565b6040516102769190612433565b60405180910390f35b61029960048036038101906102949190612983565b6108bf565b6040516102a69190612433565b60405180910390f35b6102c960048036038101906102c49190612a1b565b6109ec565b005b6102e560048036038101906102e09190612a48565b610b01565b6040516102f29190612582565b60405180910390f35b61031560048036038101906103109190612a48565b610b1c565b6040516103229190612582565b60405180910390f35b610333610b37565b6040516103469796959493929190612b7d565b60405180910390f35b61036960048036038101906103649190612c01565b610be1565b6040516103769190612716565b60405180910390f35b610387610c08565b6040516103949190612433565b60405180910390f35b6103b760048036038101906103b29190612a1b565b610c9a565b005b6103d360048036038101906103ce91906124fd565b610da7565b6040516103e09190612558565b60405180910390f35b61040360048036038101906103fe9190612c9c565b610e39565b6040516104109190612716565b60405180910390f35b610433600480360381019061042e9190612cef565b61118f565b6040516104409190612716565b60405180910390f35b610463600480360381019061045e9190612d5b565b611359565b005b61047f600480360381019061047a919061267f565b6114fd565b60405161048c9190612558565b60405180910390f35b6104af60048036038101906104aa9190612dfd565b6115f5565b6040516104bc9190612582565b60405180910390f35b6060600580546104d490612e6c565b80601f016020809104026020016040519081016040528092919081815260200182805461050090612e6c565b801561054d5780601f106105225761010080835404028352916020019161054d565b820191906000526020600020905b81548152906001019060200180831161053057829003601f168201915b5050505050905090565b600082602052637f5e9f20600c5233600052816034600c205581600052602c5160601c337f8c5be1e5ebec7d5bd14f71427d1e84f3dd0314c0f7b2291e5b200ac8c7c3b92560206000a36001905092915050565b60006805345cdf77eb68f44c54905090565b60006105ca848484611615565b8360601b33602052637f5e9f208117600c526034600c20805460018101156106085780851115610602576313be252b6000526004601cfd5b84810382555b6387a211a28317600c526020600c2080548087111561062f5763f4d678b86000526004601cfd5b8681038255876000526020600c2087815401815587602052600c5160601c8660601c7fddf252ad1be2c89b69c2b068fc378daa952ba7f163c4a11628f55a4df523b3ef602080a350505050505061068784848461161a565b600190509392505050565b600090565b6000806106a261161f565b90506000801b81036106c0576106b66104c5565b8051906020012090505b6040517f8b73c3c69bb8fe3d512ecc4cf759cc79239f7b179b0ffacaa9a75d522b39400f81528160208201527fc89efdaa54c0f20c7adf612882df0950f5a951637e0307cdcb4c672f298b8bc6604082015246606082015230608082015260a081209250505090565b6000610746836107418461073c90612ef5565b611624565b61118f565b905092915050565b60608161075a90612f08565b60006107b17f6bdaeb2d29561f159c7ef98b16b27015fb2aeb87209c7ee656226d912f59927d8360000151604051602001610796929190612f1b565b6040516020818303038152906040528051906020012061163a565b905060006107c3828460200151611654565b90503373ffffffffffffffffffffffffffffffffffffffff168173ffffffffffffffffffffffffffffffffffffffff161461082a576040517f3093a27700000000000000000000000000000000000000000000000000000000815260040160405180910390fd5b6108b4600460003373ffffffffffffffffffffffffffffffffffffffff1673ffffffffffffffffffffffffffffffffffffffff16815260200190815260200160002060008873ffffffffffffffffffffffffffffffffffffffff1673ffffffffffffffffffffffffffffffffffffffff168152602001908152602001600020548660000135611680565b935050505092915050565b60608183600061091a7f6bdaeb2d29561f159c7ef98b16b27015fb2aeb87209c7ee656226d912f59927d84600001516040516020016108ff929190612f1b565b6040516020818303038152906040528051906020012061163a565b9050600061092c828560200151611654565b90508273ffffffffffffffffffffffffffffffffffffffff168173ffffffffffffffffffffffffffffffffffffffff1614610993576040517f51c65eae00000000000000000000000000000000000000000000000000000000815260040160405180910390fd5b6109e0600360008973ffffffffffffffffffffffffffffffffffffffff1673ffffffffffffffffffffffffffffffffffffffff168152602001908152602001600020548760000151611680565b94505050505092915050565b6000610a45610a008363ffffffff166116b6565b600360003373ffffffffffffffffffffffffffffffffffffffff1673ffffffffffffffffffffffffffffffffffffffff168152602001908152602001600020546116ca565b9050610a90600360003373ffffffffffffffffffffffffffffffffffffffff1673ffffffffffffffffffffffffffffffffffffffff1681526020019081526020016000205482611743565b600360003373ffffffffffffffffffffffffffffffffffffffff1673ffffffffffffffffffffffffffffffffffffffff16815260200190815260200160002081905550610adf60025482611743565b600281905550610afd33610af283611757565b63ffffffff1661181a565b5050565b60006387a211a2600c52816000526020600c20549050919050565b60006338377508600c52816000526020600c20549050919050565b600060608060008060006060610b4b6118b1565b610b536118ec565b46306000801b600067ffffffffffffffff811115610b7457610b736127b1565b5b604051908082528060200260200182016040528015610ba25781602001602082028036833780820191505090505b507f0f00000000000000000000000000000000000000000000000000000000000000959493929190965096509650965096509650965090919293949596565b6000610bff8484610bfa85610bf590612ef5565b611624565b610e39565b90509392505050565b606060068054610c1790612e6c565b80601f0160208091040260200160405190810160405280929190818152602001828054610c4390612e6c565b8015610c905780601f10610c6557610100808354040283529160200191610c90565b820191906000526020600020905b815481529060010190602001808311610c7357829003601f168201915b5050505050905090565b8063ffffffff16610caa33610b01565b1015610ce2576040517ffda7bbda00000000000000000000000000000000000000000000000000000000815260040160405180910390fd5b610cf2338263ffffffff16611927565b6000610d038263ffffffff166116b6565b9050610d4e600360003373ffffffffffffffffffffffffffffffffffffffff1673ffffffffffffffffffffffffffffffffffffffff16815260200190815260200160002054826119be565b600360003373ffffffffffffffffffffffffffffffffffffffff1673ffffffffffffffffffffffffffffffffffffffff16815260200190815260200160002081905550610d9d600254826119be565b6002819055505050565b6000610db4338484611615565b6387a211a2600c52336000526020600c20805480841115610ddd5763f4d678b86000526004601cfd5b8381038255846000526020600c2084815401815584602052600c5160601c337fddf252ad1be2c89b69c2b068fc378daa952ba7f163c4a11628f55a4df523b3ef602080a3505050610e2f33848461161a565b6001905092915050565b600080610f0a83610f05600360008973ffffffffffffffffffffffffffffffffffffffff1673ffffffffffffffffffffffffffffffffffffffff16815260200190815260200160002054600460008a73ffffffffffffffffffffffffffffffffffffffff1673ffffffffffffffffffffffffffffffffffffffff16815260200190815260200160002060003373ffffffffffffffffffffffffffffffffffffffff1673ffffffffffffffffffffffffffffffffffffffff168152602001908152602001600020546116ca565b6116ca565b9050610f92600460008773ffffffffffffffffffffffffffffffffffffffff1673ffffffffffffffffffffffffffffffffffffffff16815260200190815260200160002060003373ffffffffffffffffffffffffffffffffffffffff1673ffffffffffffffffffffffffffffffffffffffff1681526020019081526020016000205482611743565b600460008773ffffffffffffffffffffffffffffffffffffffff1673ffffffffffffffffffffffffffffffffffffffff16815260200190815260200160002060003373ffffffffffffffffffffffffffffffffffffffff1673ffffffffffffffffffffffffffffffffffffffff1681526020019081526020016000208190555061105b600360008773ffffffffffffffffffffffffffffffffffffffff1673ffffffffffffffffffffffffffffffffffffffff1681526020019081526020016000205482611743565b600360008773ffffffffffffffffffffffffffffffffffffffff1673ffffffffffffffffffffffffffffffffffffffff168152602001908152602001600020819055506110e7600360008673ffffffffffffffffffffffffffffffffffffffff1673ffffffffffffffffffffffffffffffffffffffff16815260200190815260200160002054826119be565b600360008673ffffffffffffffffffffffffffffffffffffffff1673ffffffffffffffffffffffffffffffffffffffff168152602001908152602001600020819055508373ffffffffffffffffffffffffffffffffffffffff168573ffffffffffffffffffffffffffffffffffffffff167f7612539b010127d1a2f810eeff1131de23a28ecfa8228f92a9606a879300fbb560405160405180910390a3809150509392505050565b6000806111db83600360003373ffffffffffffffffffffffffffffffffffffffff1673ffffffffffffffffffffffffffffffffffffffff168152602001908152602001600020546116ca565b9050611226600360003373ffffffffffffffffffffffffffffffffffffffff1673ffffffffffffffffffffffffffffffffffffffff1681526020019081526020016000205482611743565b600360003373ffffffffffffffffffffffffffffffffffffffff1673ffffffffffffffffffffffffffffffffffffffff168152602001908152602001600020819055506112b2600360008673ffffffffffffffffffffffffffffffffffffffff1673ffffffffffffffffffffffffffffffffffffffff16815260200190815260200160002054826119be565b600360008673ffffffffffffffffffffffffffffffffffffffff1673ffffffffffffffffffffffffffffffffffffffff168152602001908152602001600020819055508373ffffffffffffffffffffffffffffffffffffffff163373ffffffffffffffffffffffffffffffffffffffff167f7612539b010127d1a2f810eeff1131de23a28ecfa8228f92a9606a879300fbb560405160405180910390a38091505092915050565b600061136361161f565b90506000801b8103611381576113776104c5565b8051906020012090505b8442111561139757631a15a3cc6000526004601cfd5b6040518860601b60601c98508760601b60601c975065383775081901600e52886000526020600c2080547f8b73c3c69bb8fe3d512ecc4cf759cc79239f7b179b0ffacaa9a75d522b39400f83528360208401527fc89efdaa54c0f20c7adf612882df0950f5a951637e0307cdcb4c672f298b8bc6604084015246606084015230608084015260a08320602e527f6e71edae12b1b97f4d1f60370fef10105fa2faae0126114a169c64845d6126c983528a60208401528960408401528860608401528060808401528760a084015260c08320604e526042602c206000528660ff1660205285604052846060526020806080600060015afa8b3d51146114a35763ddafbaef6000526004601cfd5b80820183558a637f5e9f2060a01b17604052896034602c20558a8c7f8c5be1e5ebec7d5bd14f71427d1e84f3dd0314c0f7b2291e5b200ac8c7c3b925602060608801a3836040526000606052505050505050505050505050565b60006115118261150c90612ef5565b611624565b600460003373ffffffffffffffffffffffffffffffffffffffff1673ffffffffffffffffffffffffffffffffffffffff16815260200190815260200160002060008573ffffffffffffffffffffffffffffffffffffffff1673ffffffffffffffffffffffffffffffffffffffff168152602001908152602001600020819055508273ffffffffffffffffffffffffffffffffffffffff163373ffffffffffffffffffffffffffffffffffffffff167f46f92913a39019d68e630493d23e0cf39761bf253f7b3f8eae384b33e393ed4e60405160405180910390a36001905092915050565b600081602052637f5e9f20600c52826000526034600c2054905092915050565b505050565b505050565b600090565b600061163382600001516119d2565b9050919050565b600061164d6116476119e6565b83611a9d565b9050919050565b6000806000806116648686611ade565b9250925092506116748282611b3a565b82935050505092915050565b606061168b83611c9e565b61169c5761169960006116b6565b92505b60008390506116ad60028285611cab565b91505092915050565b60006116c3826002611d61565b9050919050565b60006116d583611c9e565b6116e6576116e360006116b6565b92505b6116ef82611c9e565b611700576116fd60006116b6565b91505b60008390506000839050600061173560028484608073ffffffffffffffffffffffffffffffffffffffff16635211c679611e03565b905080935050505092915050565b600061174f8383611e97565b905092915050565b600061176282611c9e565b6117735761177060006116b6565b91505b6000829050600061178382611f10565b90506000608073ffffffffffffffffffffffffffffffffffffffff166373cc01546002846040518363ffffffff1660e01b81526004016117c4929190612f99565b602060405180830381865afa1580156117e1573d6000803e3d6000fd5b505050506040513d601f19601f820116820180604052508101906118059190612fde565b905061181081611f6d565b9350505050919050565b61182660008383611615565b6805345cdf77eb68f44c548181018181101561184a5763e5cfe9576000526004601cfd5b806805345cdf77eb68f44c556387a211a2600c52836000526020600c2083815401815583602052600c5160601c60007fddf252ad1be2c89b69c2b068fc378daa952ba7f163c4a11628f55a4df523b3ef602080a35050506118ad6000838361161a565b5050565b60606118e760007f0000000000000000000000000000000000000000000000000000000000000000611f7790919063ffffffff16565b905090565b606061192260017f0000000000000000000000000000000000000000000000000000000000000000611f7790919063ffffffff16565b905090565b61193382600083611615565b6387a211a2600c52816000526020600c2080548083111561195c5763f4d678b86000526004601cfd5b8281038255826805345cdf77eb68f44c54036805345cdf77eb68f44c558260005260008460601b60601c7fddf252ad1be2c89b69c2b068fc378daa952ba7f163c4a11628f55a4df523b3ef60206000a350506119ba8260008361161a565b5050565b60006119ca8383612027565b905092915050565b60006119df82600261209f565b9050919050565b60007f000000000000000000000000000000000000000000000000000000000000000073ffffffffffffffffffffffffffffffffffffffff163073ffffffffffffffffffffffffffffffffffffffff16148015611a6257507f000000000000000000000000000000000000000000000000000000000000000046145b15611a8f577f00000000000000000000000000000000000000000000000000000000000000009050611a9a565b611a97612139565b90505b90565b60006040517f190100000000000000000000000000000000000000000000000000000000000081528360028201528260228201526042812091505092915050565b60008060006041845103611b235760008060006020870151925060408701519150606087015160001a9050611b15888285856121cf565b955095509550505050611b33565b60006002855160001b9250925092505b9250925092565b60006003811115611b4e57611b4d61300b565b5b826003811115611b6157611b6061300b565b5b0315611c9a5760016003811115611b7b57611b7a61300b565b5b826003811115611b8e57611b8d61300b565b5b03611bc5576040517ff645eedf00000000000000000000000000000000000000000000000000000000815260040160405180910390fd5b60026003811115611bd957611bd861300b565b5b826003811115611bec57611beb61300b565b5b03611c31578060001c6040517ffce698f7000000000000000000000000000000000000000000000000000000008152600401611c289190612582565b60405180910390fd5b600380811115611c4457611c4361300b565b5b826003811115611c5757611c5661300b565b5b03611c9957806040517fd78bce0c000000000000000000000000000000000000000000000000000000008152600401611c909190612640565b60405180910390fd5b5b5050565b6000808214159050919050565b6060608073ffffffffffffffffffffffffffffffffffffffff1663a1848ff385611cd486611f10565b85604051602001611ce5919061305b565b6040516020818303038152906040526040518463ffffffff1660e01b8152600401611d1293929190613076565b600060405180830381865afa158015611d2f573d6000803e3d6000fd5b505050506040513d6000823e3d601f19601f82011682018060405250810190611d58919061315c565b90509392505050565b60006060608073ffffffffffffffffffffffffffffffffffffffff166319e1c5c4611d8b86611f10565b856040518363ffffffff1660e01b8152600401611da99291906131a5565b600060405180830381865afa158015611dc6573d6000803e3d6000fd5b505050506040513d6000823e3d601f19601f82011682018060405250810190611def9190613245565b9050611dfa816122c3565b91505092915050565b60006060838388611e1389611f10565b611e1c89611f10565b6040518463ffffffff1660e01b8152600401611e3a93929190613076565b600060405180830381865afa158015611e57573d6000803e3d6000fd5b505050506040513d6000823e3d601f19601f82011682018060405250810190611e809190613245565b9050611e8b816122d1565b91505095945050505050565b6000611ea283611c9e565b611eb357611eb060006116b6565b92505b611ebc82611c9e565b611ecd57611eca60006116b6565b91505b600083905060008390506000611f0260028484608073ffffffffffffffffffffffffffffffffffffffff1663cc2cbeff611e03565b905080935050505092915050565b6060602067ffffffffffffffff811115611f2d57611f2c6127b1565b5b6040519080825280601f01601f191660200182016040528015611f5f5781602001600182028036833780820191505090505b509050816020820152919050565b6000819050919050565b606060ff60001b8314611f9457611f8d836122df565b9050612021565b818054611fa090612e6c565b80601f0160208091040260200160405190810160405280929190818152602001828054611fcc90612e6c565b80156120195780601f10611fee57610100808354040283529160200191612019565b820191906000526020600020905b815481529060010190602001808311611ffc57829003601f168201915b505050505090505b92915050565b600061203283611c9e565b6120435761204060006116b6565b92505b61204c82611c9e565b61205d5761205a60006116b6565b91505b60008390506000839050600061209160028484608073ffffffffffffffffffffffffffffffffffffffff16622df619611e03565b905080935050505092915050565b60006060608073ffffffffffffffffffffffffffffffffffffffff16635fa55ca784866040518363ffffffff1660e01b81526004016120df929190612f99565b600060405180830381865afa1580156120fc573d6000803e3d6000fd5b505050506040513d6000823e3d601f19601f820116820180604052508101906121259190613245565b9050612130816122c3565b91505092915050565b60007f8b73c3c69bb8fe3d512ecc4cf759cc79239f7b179b0ffacaa9a75d522b39400f7f00000000000000000000000000000000000000000000000000000000000000007f000000000000000000000000000000000000000000000000000000000000000046306040516020016121b495949392919061328e565b60405160208183030381529060405280519060200120905090565b60008060007f7fffffffffffffffffffffffffffffff5d576e7357a4501ddfe92f46681b20a08460001c111561220f5760006003859250925092506122b9565b60006001888888886040516000815260200160405260405161223494939291906132e1565b6020604051602081039080840390855afa158015612256573d6000803e3d6000fd5b505050602060405103519050600073ffffffffffffffffffffffffffffffffffffffff168173ffffffffffffffffffffffffffffffffffffffff16036122aa57600060016000801b935093509350506122b9565b8060008060001b935093509350505b9450945094915050565b600060208201519050919050565b600060208201519050919050565b606060006122ec83612353565b90506000602067ffffffffffffffff81111561230b5761230a6127b1565b5b6040519080825280601f01601f19166020018201604052801561233d5781602001600182028036833780820191505090505b5090508181528360208201528092505050919050565b60008060ff8360001c169050601f81111561239a576040517fb3512b0c00000000000000000000000000000000000000000000000000000000815260040160405180910390fd5b80915050919050565b600081519050919050565b600082825260208201905092915050565b60005b838110156123dd5780820151818401526020810190506123c2565b60008484015250505050565b6000601f19601f8301169050919050565b6000612405826123a3565b61240f81856123ae565b935061241f8185602086016123bf565b612428816123e9565b840191505092915050565b6000602082019050818103600083015261244d81846123fa565b905092915050565b6000604051905090565b600080fd5b600080fd5b600073ffffffffffffffffffffffffffffffffffffffff82169050919050565b600061249482612469565b9050919050565b6124a481612489565b81146124af57600080fd5b50565b6000813590506124c18161249b565b92915050565b6000819050919050565b6124da816124c7565b81146124e557600080fd5b50565b6000813590506124f7816124d1565b92915050565b600080604083850312156125145761251361245f565b5b6000612522858286016124b2565b9250506020612533858286016124e8565b9150509250929050565b60008115159050919050565b6125528161253d565b82525050565b600060208201905061256d6000830184612549565b92915050565b61257c816124c7565b82525050565b60006020820190506125976000830184612573565b92915050565b6000806000606084860312156125b6576125b561245f565b5b60006125c4868287016124b2565b93505060206125d5868287016124b2565b92505060406125e6868287016124e8565b9150509250925092565b600060ff82169050919050565b612606816125f0565b82525050565b600060208201905061262160008301846125fd565b92915050565b6000819050919050565b61263a81612627565b82525050565b60006020820190506126556000830184612631565b92915050565b600080fd5b6000602082840312156126765761267561265b565b5b81905092915050565b600080604083850312156126965761269561245f565b5b60006126a4858286016124b2565b925050602083013567ffffffffffffffff8111156126c5576126c4612464565b5b6126d185828601612660565b9150509250929050565b6000819050919050565b60006127006126fb6126f6846124c7565b6126db565b6124c7565b9050919050565b612710816126e5565b82525050565b600060208201905061272b6000830184612707565b92915050565b6000604082840312156127475761274661265b565b5b81905092915050565b600080604083850312156127675761276661245f565b5b6000612775858286016124b2565b925050602083013567ffffffffffffffff81111561279657612795612464565b5b6127a285828601612731565b9150509250929050565b600080fd5b7f4e487b7100000000000000000000000000000000000000000000000000000000600052604160045260246000fd5b6127e9826123e9565b810181811067ffffffffffffffff82111715612808576128076127b1565b5b80604052505050565b600061281b612455565b905061282782826127e0565b919050565b600080fd5b61283a81612627565b811461284557600080fd5b50565b60008135905061285781612831565b92915050565b600080fd5b600080fd5b600067ffffffffffffffff821115612882576128816127b1565b5b61288b826123e9565b9050602081019050919050565b82818337600083830152505050565b60006128ba6128b584612867565b612811565b9050828152602081018484840111156128d6576128d5612862565b5b6128e1848285612898565b509392505050565b600082601f8301126128fe576128fd61285d565b5b813561290e8482602086016128a7565b91505092915050565b60006040828403121561292d5761292c6127ac565b5b6129376040612811565b9050600061294784828501612848565b600083015250602082013567ffffffffffffffff81111561296b5761296a61282c565b5b612977848285016128e9565b60208301525092915050565b6000806040838503121561299a5761299961245f565b5b60006129a8858286016124b2565b925050602083013567ffffffffffffffff8111156129c9576129c8612464565b5b6129d585828601612917565b9150509250929050565b600063ffffffff82169050919050565b6129f8816129df565b8114612a0357600080fd5b50565b600081359050612a15816129ef565b92915050565b600060208284031215612a3157612a3061245f565b5b6000612a3f84828501612a06565b91505092915050565b600060208284031215612a5e57612a5d61245f565b5b6000612a6c848285016124b2565b91505092915050565b60007fff0000000000000000000000000000000000000000000000000000000000000082169050919050565b612aaa81612a75565b82525050565b612ab981612489565b82525050565b600081519050919050565b600082825260208201905092915050565b6000819050602082019050919050565b612af4816124c7565b82525050565b6000612b068383612aeb565b60208301905092915050565b6000602082019050919050565b6000612b2a82612abf565b612b348185612aca565b9350612b3f83612adb565b8060005b83811015612b70578151612b578882612afa565b9750612b6283612b12565b925050600181019050612b43565b5085935050505092915050565b600060e082019050612b92600083018a612aa1565b8181036020830152612ba481896123fa565b90508181036040830152612bb881886123fa565b9050612bc76060830187612573565b612bd46080830186612ab0565b612be160a0830185612631565b81810360c0830152612bf38184612b1f565b905098975050505050505050565b600080600060608486031215612c1a57612c1961245f565b5b6000612c28868287016124b2565b9350506020612c39868287016124b2565b925050604084013567ffffffffffffffff811115612c5a57612c59612464565b5b612c6686828701612660565b9150509250925092565b612c79816124c7565b8114612c8457600080fd5b50565b600081359050612c9681612c70565b92915050565b600080600060608486031215612cb557612cb461245f565b5b6000612cc3868287016124b2565b9350506020612cd4868287016124b2565b9250506040612ce586828701612c87565b9150509250925092565b60008060408385031215612d0657612d0561245f565b5b6000612d14858286016124b2565b9250506020612d2585828601612c87565b9150509250929050565b612d38816125f0565b8114612d4357600080fd5b50565b600081359050612d5581612d2f565b92915050565b600080600080600080600060e0888a031215612d7a57612d7961245f565b5b6000612d888a828b016124b2565b9750506020612d998a828b016124b2565b9650506040612daa8a828b016124e8565b9550506060612dbb8a828b016124e8565b9450506080612dcc8a828b01612d46565b93505060a0612ddd8a828b01612848565b92505060c0612dee8a828b01612848565b91505092959891949750929550565b60008060408385031215612e1457612e1361245f565b5b6000612e22858286016124b2565b9250506020612e33858286016124b2565b9150509250929050565b7f4e487b7100000000000000000000000000000000000000000000000000000000600052602260045260246000fd5b60006002820490506001821680612e8457607f821691505b602082108103612e9757612e96612e3d565b5b50919050565b600060208284031215612eb357612eb26127ac565b5b612ebd6020612811565b9050600082013567ffffffffffffffff811115612edd57612edc61282c565b5b612ee9848285016128e9565b60008301525092915050565b6000612f013683612e9d565b9050919050565b6000612f143683612917565b9050919050565b6000604082019050612f306000830185612631565b612f3d6020830184612631565b9392505050565b600081519050919050565b600082825260208201905092915050565b6000612f6b82612f44565b612f758185612f4f565b9350612f858185602086016123bf565b612f8e816123e9565b840191505092915050565b6000604082019050612fae60008301856125fd565b8181036020830152612fc08184612f60565b90509392505050565b600081519050612fd8816124d1565b92915050565b600060208284031215612ff457612ff361245f565b5b600061300284828501612fc9565b91505092915050565b7f4e487b7100000000000000000000000000000000000000000000000000000000600052602160045260246000fd5b6000819050919050565b61305561305082612627565b61303a565b82525050565b60006130678284613044565b60208201915081905092915050565b600060608201905061308b60008301866125fd565b818103602083015261309d8185612f60565b905081810360408301526130b18184612f60565b9050949350505050565b600067ffffffffffffffff8211156130d6576130d56127b1565b5b6130df826123e9565b9050602081019050919050565b60006130ff6130fa846130bb565b612811565b90508281526020810184848401111561311b5761311a612862565b5b6131268482856123bf565b509392505050565b600082601f8301126131435761314261285d565b5b81516131538482602086016130ec565b91505092915050565b6000602082840312156131725761317161245f565b5b600082015167ffffffffffffffff8111156131905761318f612464565b5b61319c8482850161312e565b91505092915050565b600060408201905081810360008301526131bf8185612f60565b90506131ce60208301846125fd565b9392505050565b60006131e86131e384612867565b612811565b90508281526020810184848401111561320457613203612862565b5b61320f8482856123bf565b509392505050565b600082601f83011261322c5761322b61285d565b5b815161323c8482602086016131d5565b91505092915050565b60006020828403121561325b5761325a61245f565b5b600082015167ffffffffffffffff81111561327957613278612464565b5b61328584828501613217565b91505092915050565b600060a0820190506132a36000830188612631565b6132b06020830187612631565b6132bd6040830186612631565b6132ca6060830185612573565b6132d76080830184612ab0565b9695505050505050565b60006080820190506132f66000830187612631565b61330360208301866125fd565b6133106040830185612631565b61331d6060830184612631565b9594505050505056fea2646970667358221220d2ecefabf6474a46052e52e11ab32c5139690c9cccda6a7c37d9a6911a35acc664736f6c63430008180033",
  "devdoc": {
    "errors": {
      "AllowanceOverflow()": [
        {
          "details": "The allowance has overflowed."
        }
      ],
      "AllowanceUnderflow()": [
        {
          "details": "The allowance has underflowed."
        }
      ],
      "ECDSAInvalidSignature()": [
        {
          "details": "The signature derives the `address(0)`."
        }
      ],
      "ECDSAInvalidSignatureLength(uint256)": [
        {
          "details": "The signature has an invalid length."
        }
      ],
      "ECDSAInvalidSignatureS(bytes32)": [
        {
          "details": "The signature has an S value that is in the upper half order."
        }
      ],
      "InsufficientAllowance()": [
        {
          "details": "Insufficient allowance."
        }
      ],
      "InsufficientBalance()": [
        {
          "details": "Insufficient balance."
        }
      ],
      "InvalidPermit()": [
        {
          "details": "The permit is invalid."
        }
      ],
      "PermitExpired()": [
        {
          "details": "The permit has expired."
        }
      ],
      "TotalSupplyOverflow()": [
        {
          "details": "The total supply has overflowed."
        }
      ]
    },
    "events": {
      "Approval(address,address,uint256)": {
        "details": "Emitted when `amount` tokens is approved by `owner` to be used by `spender`."
      },
      "ApprovalEncrypted(address,address)": {
        "details": "Emitted when the allowance of a `spender` for an `owner` is set by a call to {approveEncrypted}. `value` is the new allowance."
      },
      "EIP712DomainChanged()": {
        "details": "MAY be emitted to signal that the domain could have changed."
      },
      "Transfer(address,address,uint256)": {
        "details": "Emitted when `amount` tokens is transferred from `from` to `to`."
      },
      "TransferEncrypted(address,address)": {
        "details": "Emitted when `value` tokens are moved from one account (`from`) to another (`to`). Note that `value` may be zero."
      }
    },
    "kind": "dev",
    "methods": {
      "DOMAIN_SEPARATOR()": {
        "details": "Returns the EIP-712 domain separator for the EIP-2612 permit."
      },
      "allowance(address,address)": {
        "details": "Returns the amount of tokens that `spender` can spend on behalf of `owner`."
      },
      "allowanceEncrypted(address,(bytes32,bytes))": {
        "details": "Returns the remaining number of tokens that `spender` will be allowed to spend on behalf of `owner` through {transferFrom}. This is zero by default. This value changes when {approve} or {transferFrom} are called."
      },
      "approve(address,uint256)": {
        "details": "Sets `amount` as the allowance of `spender` over the caller's tokens. Emits a {Approval} event."
      },
      "approveEncrypted(address,(bytes))": {
        "details": "Sets a `value` amount of tokens as the allowance of `spender` over the caller's tokens. Returns a boolean value indicating whether the operation succeeded. IMPORTANT: Beware that changing an allowance with this method brings the risk that someone may use both the old and the new allowance by unfortunate transaction ordering. One possible solution to mitigate this race condition is to first reduce the spender's allowance to 0 and set the desired value afterwards: https://github.com/ethereum/EIPs/issues/20#issuecomment-263524729 Emits an {ApprovalEncrypted} event."
      },
      "balanceOf(address)": {
        "details": "Returns the amount of tokens owned by `owner`."
      },
      "balanceOfEncrypted(address,(bytes32,bytes))": {
        "details": "Returns the value of tokens owned by `account`, sealed and encrypted for the caller."
      },
      "decimals()": {
        "details": "Returns the decimals places of the token."
      },
      "eip712Domain()": {
        "details": "See {IERC-5267}."
      },
      "name()": {
        "details": "Returns the name of the token."
      },
      "nonces(address)": {
        "details": "Returns the current nonce for `owner`. This value is used to compute the signature for EIP-2612 permit."
      },
      "permit(address,address,uint256,uint256,uint8,bytes32,bytes32)": {
        "details": "Sets `value` as the allowance of `spender` over the tokens of `owner`, authorized by a signed approval by `owner`. Emits a {Approval} event."
      },
      "symbol()": {
        "details": "Returns the symbol of the token."
      },
      "totalSupply()": {
        "details": "Returns the amount of tokens in existence."
      },
      "transfer(address,uint256)": {
        "details": "Transfer `amount` tokens from the caller to `to`. Requirements: - `from` must at least have `amount`. Emits a {Transfer} event."
      },
      "transferFrom(address,address,uint256)": {
        "details": "Transfers `amount` tokens from `from` to `to`. Note: Does not update the allowance if it is the maximum uint256 value. Requirements: - `from` must at least have `amount`. - The caller must have at least `amount` of allowance to transfer the tokens of `from`. Emits a {Transfer} event."
      },
      "transferFromEncrypted(address,address,(bytes))": {
        "details": "Moves a `value` amount of tokens from `from` to `to` using the allowance mechanism. `value` is then deducted from the caller's allowance. Returns a boolean value indicating whether the operation succeeded. Emits a {TransferEncrypted} event."
      }
    },
    "version": 1
  },
  "userdoc": {
    "errors": {
      "SignerNotMessageSender()": [
        {
          "notice": "Emitted when the signer is not the message sender"
        }
      ],
      "SignerNotOwner()": [
        {
          "notice": "Emitted when the signer is not the specified owner"
        }
      ]
    },
    "kind": "user",
    "methods": {},
    "version": 1
  },
  "storageLayout": {
    "storage": [
      {
        "astId": 16568,
        "contract": "contracts/tokens/FakeEUR.sol:FakeEUR",
        "label": "_nameFallback",
        "offset": 0,
        "slot": "0",
        "type": "t_string_storage"
      },
      {
        "astId": 16570,
        "contract": "contracts/tokens/FakeEUR.sol:FakeEUR",
        "label": "_versionFallback",
        "offset": 0,
        "slot": "1",
        "type": "t_string_storage"
      },
      {
        "astId": 18126,
        "contract": "contracts/tokens/FakeEUR.sol:FakeEUR",
        "label": "_encTotalSupply",
        "offset": 0,
        "slot": "2",
        "type": "t_userDefinedValueType(euint32)12"
      },
      {
        "astId": 18131,
        "contract": "contracts/tokens/FakeEUR.sol:FakeEUR",
        "label": "_encBalanceOf",
        "offset": 0,
        "slot": "3",
        "type": "t_mapping(t_address,t_userDefinedValueType(euint32)12)"
      },
      {
        "astId": 18138,
        "contract": "contracts/tokens/FakeEUR.sol:FakeEUR",
        "label": "_encAllowance",
        "offset": 0,
        "slot": "4",
        "type": "t_mapping(t_address,t_mapping(t_address,t_userDefinedValueType(euint32)12))"
      },
      {
        "astId": 18140,
        "contract": "contracts/tokens/FakeEUR.sol:FakeEUR",
        "label": "_name",
        "offset": 0,
        "slot": "5",
        "type": "t_string_storage"
      },
      {
        "astId": 18142,
        "contract": "contracts/tokens/FakeEUR.sol:FakeEUR",
        "label": "_symbol",
        "offset": 0,
        "slot": "6",
        "type": "t_string_storage"
      }
    ],
    "types": {
      "t_address": {
        "encoding": "inplace",
        "label": "address",
        "numberOfBytes": "20"
      },
      "t_mapping(t_address,t_mapping(t_address,t_userDefinedValueType(euint32)12))": {
        "encoding": "mapping",
        "key": "t_address",
        "label": "mapping(address => mapping(address => euint32))",
        "numberOfBytes": "32",
        "value": "t_mapping(t_address,t_userDefinedValueType(euint32)12)"
      },
      "t_mapping(t_address,t_userDefinedValueType(euint32)12)": {
        "encoding": "mapping",
        "key": "t_address",
        "label": "mapping(address => euint32)",
        "numberOfBytes": "32",
        "value": "t_userDefinedValueType(euint32)12"
      },
      "t_string_storage": {
        "encoding": "bytes",
        "label": "string",
        "numberOfBytes": "32"
      },
      "t_userDefinedValueType(euint32)12": {
        "encoding": "inplace",
        "label": "euint32",
        "numberOfBytes": "32"
      }
    }
  }
}