{
  "address": "0x69F1766223f7488c7f41640AC0879504760D4Df1",
  "abi": [
    {
      "inputs": [
        {
          "components": [
            {
              "internalType": "bytes",
              "name": "data",
              "type": "bytes"
            }
          ],
          "internalType": "struct inEuint32",
          "name": "_initialSupply",
          "type": "tuple"
        }
      ],
      "stateMutability": "nonpayable",
      "type": "constructor"
    },
    {
      "inputs": [],
      "name": "AllowanceOverflow",
      "type": "error"
    },
    {
      "inputs": [],
      "name": "AllowanceUnderflow",
      "type": "error"
    },
    {
      "inputs": [],
      "name": "ECDSAInvalidSignature",
      "type": "error"
    },
    {
      "inputs": [
        {
          "internalType": "uint256",
          "name": "length",
          "type": "uint256"
        }
      ],
      "name": "ECDSAInvalidSignatureLength",
      "type": "error"
    },
    {
      "inputs": [
        {
          "internalType": "bytes32",
          "name": "s",
          "type": "bytes32"
        }
      ],
      "name": "ECDSAInvalidSignatureS",
      "type": "error"
    },
    {
      "inputs": [],
      "name": "ErrorInsufficientFunds",
      "type": "error"
    },
    {
      "inputs": [],
      "name": "InsufficientAllowance",
      "type": "error"
    },
    {
      "inputs": [],
      "name": "InsufficientBalance",
      "type": "error"
    },
    {
      "inputs": [],
      "name": "InvalidPermit",
      "type": "error"
    },
    {
      "inputs": [],
      "name": "InvalidShortString",
      "type": "error"
    },
    {
      "inputs": [],
      "name": "PermitExpired",
      "type": "error"
    },
    {
      "inputs": [],
      "name": "SignerNotMessageSender",
      "type": "error"
    },
    {
      "inputs": [],
      "name": "SignerNotOwner",
      "type": "error"
    },
    {
      "inputs": [
        {
          "internalType": "string",
          "name": "str",
          "type": "string"
        }
      ],
      "name": "StringTooLong",
      "type": "error"
    },
    {
      "inputs": [],
      "name": "TotalSupplyOverflow",
      "type": "error"
    },
    {
      "anonymous": false,
      "inputs": [
        {
          "indexed": true,
          "internalType": "address",
          "name": "owner",
          "type": "address"
        },
        {
          "indexed": true,
          "internalType": "address",
          "name": "spender",
          "type": "address"
        },
        {
          "indexed": false,
          "internalType": "uint256",
          "name": "amount",
          "type": "uint256"
        }
      ],
      "name": "Approval",
      "type": "event"
    },
    {
      "anonymous": false,
      "inputs": [
        {
          "indexed": true,
          "internalType": "address",
          "name": "owner",
          "type": "address"
        },
        {
          "indexed": true,
          "internalType": "address",
          "name": "spender",
          "type": "address"
        }
      ],
      "name": "ApprovalEncrypted",
      "type": "event"
    },
    {
      "anonymous": false,
      "inputs": [],
      "name": "EIP712DomainChanged",
      "type": "event"
    },
    {
      "anonymous": false,
      "inputs": [
        {
          "indexed": true,
          "internalType": "address",
          "name": "from",
          "type": "address"
        },
        {
          "indexed": true,
          "internalType": "address",
          "name": "to",
          "type": "address"
        },
        {
          "indexed": false,
          "internalType": "uint256",
          "name": "amount",
          "type": "uint256"
        }
      ],
      "name": "Transfer",
      "type": "event"
    },
    {
      "anonymous": false,
      "inputs": [
        {
          "indexed": true,
          "internalType": "address",
          "name": "from",
          "type": "address"
        },
        {
          "indexed": true,
          "internalType": "address",
          "name": "to",
          "type": "address"
        }
      ],
      "name": "TransferEncrypted",
      "type": "event"
    },
    {
      "inputs": [],
      "name": "DOMAIN_SEPARATOR",
      "outputs": [
        {
          "internalType": "bytes32",
          "name": "result",
          "type": "bytes32"
        }
      ],
      "stateMutability": "view",
      "type": "function"
    },
    {
      "inputs": [
        {
          "internalType": "address",
          "name": "owner",
          "type": "address"
        },
        {
          "internalType": "address",
          "name": "spender",
          "type": "address"
        }
      ],
      "name": "allowance",
      "outputs": [
        {
          "internalType": "uint256",
          "name": "result",
          "type": "uint256"
        }
      ],
      "stateMutability": "view",
      "type": "function"
    },
    {
      "inputs": [
        {
          "internalType": "address",
          "name": "spender",
          "type": "address"
        },
        {
          "components": [
            {
              "internalType": "bytes32",
              "name": "publicKey",
              "type": "bytes32"
            },
            {
              "internalType": "bytes",
              "name": "signature",
              "type": "bytes"
            }
          ],
          "internalType": "struct Permission",
          "name": "permission",
          "type": "tuple"
        }
      ],
      "name": "allowanceEncrypted",
      "outputs": [
        {
          "internalType": "string",
          "name": "",
          "type": "string"
        }
      ],
      "stateMutability": "view",
      "type": "function"
    },
    {
      "inputs": [
        {
          "internalType": "address",
          "name": "spender",
          "type": "address"
        },
        {
          "internalType": "uint256",
          "name": "amount",
          "type": "uint256"
        }
      ],
      "name": "approve",
      "outputs": [
        {
          "internalType": "bool",
          "name": "",
          "type": "bool"
        }
      ],
      "stateMutability": "nonpayable",
      "type": "function"
    },
    {
      "inputs": [
        {
          "internalType": "address",
          "name": "spender",
          "type": "address"
        },
        {
          "components": [
            {
              "internalType": "bytes",
              "name": "data",
              "type": "bytes"
            }
          ],
          "internalType": "struct inEuint32",
          "name": "value",
          "type": "tuple"
        }
      ],
      "name": "approveEncrypted",
      "outputs": [
        {
          "internalType": "bool",
          "name": "",
          "type": "bool"
        }
      ],
      "stateMutability": "nonpayable",
      "type": "function"
    },
    {
      "inputs": [
        {
          "internalType": "address",
          "name": "owner",
          "type": "address"
        }
      ],
      "name": "balanceOf",
      "outputs": [
        {
          "internalType": "uint256",
          "name": "result",
          "type": "uint256"
        }
      ],
      "stateMutability": "view",
      "type": "function"
    },
    {
      "inputs": [
        {
          "internalType": "address",
          "name": "account",
          "type": "address"
        },
        {
          "components": [
            {
              "internalType": "bytes32",
              "name": "publicKey",
              "type": "bytes32"
            },
            {
              "internalType": "bytes",
              "name": "signature",
              "type": "bytes"
            }
          ],
          "internalType": "struct Permission",
          "name": "auth",
          "type": "tuple"
        }
      ],
      "name": "balanceOfEncrypted",
      "outputs": [
        {
          "internalType": "string",
          "name": "",
          "type": "string"
        }
      ],
      "stateMutability": "view",
      "type": "function"
    },
    {
      "inputs": [],
      "name": "decimals",
      "outputs": [
        {
          "internalType": "uint8",
          "name": "",
          "type": "uint8"
        }
      ],
      "stateMutability": "pure",
      "type": "function"
    },
    {
      "inputs": [],
      "name": "eip712Domain",
      "outputs": [
        {
          "internalType": "bytes1",
          "name": "fields",
          "type": "bytes1"
        },
        {
          "internalType": "string",
          "name": "name",
          "type": "string"
        },
        {
          "internalType": "string",
          "name": "version",
          "type": "string"
        },
        {
          "internalType": "uint256",
          "name": "chainId",
          "type": "uint256"
        },
        {
          "internalType": "address",
          "name": "verifyingContract",
          "type": "address"
        },
        {
          "internalType": "bytes32",
          "name": "salt",
          "type": "bytes32"
        },
        {
          "internalType": "uint256[]",
          "name": "extensions",
          "type": "uint256[]"
        }
      ],
      "stateMutability": "view",
      "type": "function"
    },
    {
      "inputs": [],
      "name": "name",
      "outputs": [
        {
          "internalType": "string",
          "name": "",
          "type": "string"
        }
      ],
      "stateMutability": "view",
      "type": "function"
    },
    {
      "inputs": [
        {
          "internalType": "address",
          "name": "owner",
          "type": "address"
        }
      ],
      "name": "nonces",
      "outputs": [
        {
          "internalType": "uint256",
          "name": "result",
          "type": "uint256"
        }
      ],
      "stateMutability": "view",
      "type": "function"
    },
    {
      "inputs": [
        {
          "internalType": "address",
          "name": "owner",
          "type": "address"
        },
        {
          "internalType": "address",
          "name": "spender",
          "type": "address"
        },
        {
          "internalType": "uint256",
          "name": "value",
          "type": "uint256"
        },
        {
          "internalType": "uint256",
          "name": "deadline",
          "type": "uint256"
        },
        {
          "internalType": "uint8",
          "name": "v",
          "type": "uint8"
        },
        {
          "internalType": "bytes32",
          "name": "r",
          "type": "bytes32"
        },
        {
          "internalType": "bytes32",
          "name": "s",
          "type": "bytes32"
        }
      ],
      "name": "permit",
      "outputs": [],
      "stateMutability": "nonpayable",
      "type": "function"
    },
    {
      "inputs": [],
      "name": "symbol",
      "outputs": [
        {
          "internalType": "string",
          "name": "",
          "type": "string"
        }
      ],
      "stateMutability": "view",
      "type": "function"
    },
    {
      "inputs": [],
      "name": "totalSupply",
      "outputs": [
        {
          "internalType": "uint256",
          "name": "result",
          "type": "uint256"
        }
      ],
      "stateMutability": "view",
      "type": "function"
    },
    {
      "inputs": [
        {
          "internalType": "address",
          "name": "to",
          "type": "address"
        },
        {
          "internalType": "uint256",
          "name": "amount",
          "type": "uint256"
        }
      ],
      "name": "transfer",
      "outputs": [
        {
          "internalType": "bool",
          "name": "",
          "type": "bool"
        }
      ],
      "stateMutability": "nonpayable",
      "type": "function"
    },
    {
      "inputs": [
        {
          "internalType": "address",
          "name": "to",
          "type": "address"
        },
        {
          "components": [
            {
              "internalType": "bytes",
              "name": "data",
              "type": "bytes"
            }
          ],
          "internalType": "struct inEuint32",
          "name": "encryptedAmount",
          "type": "tuple"
        }
      ],
      "name": "transferEncrypted",
      "outputs": [
        {
          "internalType": "euint32",
          "name": "",
          "type": "uint256"
        }
      ],
      "stateMutability": "nonpayable",
      "type": "function"
    },
    {
      "inputs": [
        {
          "internalType": "address",
          "name": "to",
          "type": "address"
        },
        {
          "internalType": "euint32",
          "name": "amount",
          "type": "uint256"
        }
      ],
      "name": "transferEncrypted",
      "outputs": [
        {
          "internalType": "euint32",
          "name": "",
          "type": "uint256"
        }
      ],
      "stateMutability": "nonpayable",
      "type": "function"
    },
    {
      "inputs": [
        {
          "internalType": "address",
          "name": "from",
          "type": "address"
        },
        {
          "internalType": "address",
          "name": "to",
          "type": "address"
        },
        {
          "internalType": "uint256",
          "name": "amount",
          "type": "uint256"
        }
      ],
      "name": "transferFrom",
      "outputs": [
        {
          "internalType": "bool",
          "name": "",
          "type": "bool"
        }
      ],
      "stateMutability": "nonpayable",
      "type": "function"
    },
    {
      "inputs": [
        {
          "internalType": "address",
          "name": "from",
          "type": "address"
        },
        {
          "internalType": "address",
          "name": "to",
          "type": "address"
        },
        {
          "components": [
            {
              "internalType": "bytes",
              "name": "data",
              "type": "bytes"
            }
          ],
          "internalType": "struct inEuint32",
          "name": "value",
          "type": "tuple"
        }
      ],
      "name": "transferFromEncrypted",
      "outputs": [
        {
          "internalType": "euint32",
          "name": "",
          "type": "uint256"
        }
      ],
      "stateMutability": "nonpayable",
      "type": "function"
    },
    {
      "inputs": [
        {
          "internalType": "address",
          "name": "from",
          "type": "address"
        },
        {
          "internalType": "address",
          "name": "to",
          "type": "address"
        },
        {
          "internalType": "euint32",
          "name": "value",
          "type": "uint256"
        }
      ],
      "name": "transferFromEncrypted",
      "outputs": [
        {
          "internalType": "euint32",
          "name": "",
          "type": "uint256"
        }
      ],
      "stateMutability": "nonpayable",
      "type": "function"
    },
    {
      "inputs": [
        {
          "internalType": "uint32",
          "name": "amount",
          "type": "uint32"
        }
      ],
      "name": "unwrap",
      "outputs": [],
      "stateMutability": "nonpayable",
      "type": "function"
    },
    {
      "inputs": [
        {
          "internalType": "uint32",
          "name": "amount",
          "type": "uint32"
        }
      ],
      "name": "wrap",
      "outputs": [],
      "stateMutability": "nonpayable",
      "type": "function"
    }
  ],
  "transactionHash": "0x4a73d9fbc04fb936bf9092cbdd72a046ea6de44ad8b377d148eb862b0407e6c7",
  "args": [
    {
      "data": {
        "0": 16,
        "1": 8,
        "2": 0,
        "3": 0,
        "4": 0,
        "5": 0,
        "6": 0,
        "7": 0,
        "8": 80,
        "9": 237,
        "10": 28,
        "11": 185,
        "12": 32,
        "13": 212,
        "14": 63,
        "15": 90,
        "16": 74,
        "17": 36,
        "18": 5,
        "19": 26,
        "20": 83,
        "21": 150,
        "22": 128,
        "23": 89,
        "24": 154,
        "25": 173,
        "26": 224,
        "27": 113,
        "28": 149,
        "29": 163,
        "30": 70,
        "31": 236,
        "32": 218,
        "33": 21,
        "34": 84,
        "35": 54,
        "36": 51,
        "37": 247,
        "38": 109,
        "39": 190,
        "40": 118,
        "41": 171,
        "42": 104,
        "43": 56,
        "44": 96,
        "45": 165,
        "46": 141,
        "47": 237,
        "48": 25,
        "49": 178,
        "50": 53,
        "51": 9,
        "52": 174,
        "53": 177,
        "54": 49,
        "55": 140,
        "56": 116,
        "57": 197,
        "58": 11,
        "59": 90,
        "60": 103,
        "61": 172,
        "62": 229,
        "63": 79,
        "64": 159,
        "65": 150,
        "66": 8,
        "67": 55,
        "68": 159,
        "69": 251,
        "70": 133,
        "71": 204,
        "72": 137,
        "73": 48,
        "74": 52,
        "75": 127,
        "76": 148,
        "77": 149,
        "78": 120,
        "79": 246,
        "80": 53,
        "81": 170,
        "82": 252,
        "83": 172,
        "84": 186,
        "85": 99,
        "86": 159,
        "87": 110,
        "88": 103,
        "89": 144,
        "90": 217,
        "91": 78,
        "92": 13,
        "93": 87,
        "94": 148,
        "95": 190,
        "96": 74,
        "97": 161,
        "98": 132,
        "99": 86,
        "100": 3,
        "101": 51,
        "102": 58,
        "103": 124,
        "104": 67,
        "105": 210,
        "106": 227,
        "107": 55,
        "108": 6,
        "109": 172,
        "110": 229,
        "111": 60,
        "112": 112,
        "113": 238,
        "114": 241,
        "115": 160,
        "116": 133,
        "117": 106,
        "118": 62,
        "119": 122,
        "120": 162,
        "121": 190,
        "122": 92,
        "123": 249,
        "124": 255,
        "125": 81,
        "126": 62,
        "127": 188,
        "128": 50,
        "129": 18,
        "130": 162,
        "131": 151,
        "132": 86,
        "133": 151,
        "134": 137,
        "135": 246,
        "136": 187,
        "137": 128,
        "138": 146,
        "139": 175,
        "140": 212,
        "141": 224,
        "142": 115,
        "143": 173,
        "144": 155,
        "145": 156,
        "146": 6,
        "147": 159,
        "148": 238,
        "149": 86,
        "150": 79,
        "151": 252,
        "152": 49,
        "153": 111,
        "154": 177,
        "155": 119,
        "156": 161,
        "157": 94,
        "158": 79,
        "159": 129,
        "160": 173,
        "161": 205,
        "162": 253,
        "163": 23,
        "164": 250,
        "165": 80,
        "166": 160,
        "167": 251,
        "168": 69,
        "169": 145,
        "170": 27,
        "171": 80,
        "172": 32,
        "173": 219,
        "174": 150,
        "175": 181,
        "176": 95,
        "177": 249,
        "178": 12,
        "179": 113,
        "180": 196,
        "181": 38,
        "182": 85,
        "183": 108,
        "184": 22,
        "185": 176,
        "186": 79,
        "187": 134,
        "188": 7,
        "189": 25,
        "190": 247,
        "191": 90,
        "192": 246,
        "193": 62,
        "194": 42,
        "195": 121,
        "196": 120,
        "197": 95,
        "198": 190,
        "199": 13,
        "200": 209,
        "201": 155,
        "202": 186,
        "203": 183,
        "204": 202,
        "205": 203,
        "206": 71,
        "207": 182,
        "208": 244,
        "209": 100,
        "210": 50,
        "211": 153,
        "212": 168,
        "213": 230,
        "214": 244,
        "215": 160,
        "216": 242,
        "217": 76,
        "218": 113,
        "219": 200,
        "220": 47,
        "221": 249,
        "222": 121,
        "223": 220,
        "224": 247,
        "225": 23,
        "226": 73,
        "227": 10,
        "228": 221,
        "229": 255,
        "230": 168,
        "231": 111,
        "232": 96,
        "233": 90,
        "234": 251,
        "235": 199,
        "236": 247,
        "237": 122,
        "238": 14,
        "239": 233,
        "240": 40,
        "241": 111,
        "242": 244,
        "243": 199,
        "244": 204,
        "245": 16,
        "246": 72,
        "247": 58,
        "248": 8,
        "249": 136,
        "250": 192,
        "251": 88,
        "252": 34,
        "253": 30,
        "254": 70,
        "255": 80,
        "256": 238,
        "257": 10,
        "258": 51,
        "259": 46,
        "260": 142,
        "261": 19,
        "262": 15,
        "263": 140,
        "264": 99,
        "265": 206,
        "266": 163,
        "267": 174,
        "268": 255,
        "269": 230,
        "270": 253,
        "271": 112,
        "272": 92,
        "273": 249,
        "274": 141,
        "275": 9,
        "276": 122,
        "277": 185,
        "278": 128,
        "279": 33,
        "280": 51,
        "281": 134,
        "282": 29,
        "283": 40,
        "284": 52,
        "285": 26,
        "286": 39,
        "287": 135,
        "288": 187,
        "289": 181,
        "290": 245,
        "291": 232,
        "292": 89,
        "293": 171,
        "294": 153,
        "295": 235,
        "296": 109,
        "297": 136,
        "298": 149,
        "299": 246,
        "300": 221,
        "301": 115,
        "302": 139,
        "303": 72,
        "304": 175,
        "305": 177,
        "306": 21,
        "307": 189,
        "308": 198,
        "309": 99,
        "310": 218,
        "311": 115,
        "312": 82,
        "313": 25,
        "314": 171,
        "315": 119,
        "316": 53,
        "317": 241,
        "318": 13,
        "319": 30,
        "320": 161,
        "321": 81,
        "322": 159,
        "323": 189,
        "324": 194,
        "325": 234,
        "326": 176,
        "327": 131,
        "328": 68,
        "329": 207,
        "330": 224,
        "331": 159,
        "332": 3,
        "333": 49,
        "334": 157,
        "335": 176,
        "336": 218,
        "337": 96,
        "338": 77,
        "339": 218,
        "340": 188,
        "341": 107,
        "342": 246,
        "343": 5,
        "344": 213,
        "345": 137,
        "346": 220,
        "347": 159,
        "348": 86,
        "349": 175,
        "350": 127,
        "351": 169,
        "352": 108,
        "353": 206,
        "354": 183,
        "355": 197,
        "356": 240,
        "357": 48,
        "358": 229,
        "359": 9,
        "360": 69,
        "361": 243,
        "362": 166,
        "363": 78,
        "364": 219,
        "365": 152,
        "366": 202,
        "367": 43,
        "368": 29,
        "369": 103,
        "370": 110,
        "371": 228,
        "372": 32,
        "373": 153,
        "374": 89,
        "375": 176,
        "376": 155,
        "377": 156,
        "378": 113,
        "379": 236,
        "380": 132,
        "381": 12,
        "382": 254,
        "383": 13,
        "384": 80,
        "385": 255,
        "386": 39,
        "387": 193,
        "388": 9,
        "389": 71,
        "390": 190,
        "391": 229,
        "392": 76,
        "393": 121,
        "394": 134,
        "395": 27,
        "396": 192,
        "397": 95,
        "398": 65,
        "399": 1,
        "400": 94,
        "401": 43,
        "402": 129,
        "403": 5,
        "404": 244,
        "405": 138,
        "406": 231,
        "407": 40,
        "408": 39,
        "409": 239,
        "410": 77,
        "411": 181,
        "412": 32,
        "413": 74,
        "414": 195,
        "415": 138,
        "416": 251,
        "417": 132,
        "418": 138,
        "419": 143,
        "420": 170,
        "421": 118,
        "422": 250,
        "423": 169,
        "424": 253,
        "425": 80,
        "426": 43,
        "427": 48,
        "428": 42,
        "429": 131,
        "430": 251,
        "431": 216,
        "432": 98,
        "433": 44,
        "434": 57,
        "435": 16,
        "436": 252,
        "437": 45,
        "438": 81,
        "439": 251,
        "440": 82,
        "441": 26,
        "442": 227,
        "443": 137,
        "444": 54,
        "445": 115,
        "446": 108,
        "447": 232,
        "448": 70,
        "449": 115,
        "450": 6,
        "451": 16,
        "452": 105,
        "453": 79,
        "454": 159,
        "455": 227,
        "456": 56,
        "457": 87,
        "458": 123,
        "459": 139,
        "460": 39,
        "461": 242,
        "462": 229,
        "463": 238,
        "464": 119,
        "465": 167,
        "466": 63,
        "467": 218,
        "468": 132,
        "469": 211,
        "470": 163,
        "471": 122,
        "472": 242,
        "473": 198,
        "474": 236,
        "475": 151,
        "476": 50,
        "477": 36,
        "478": 172,
        "479": 178,
        "480": 78,
        "481": 75,
        "482": 174,
        "483": 76,
        "484": 95,
        "485": 52,
        "486": 221,
        "487": 196,
        "488": 217,
        "489": 67,
        "490": 89,
        "491": 65,
        "492": 109,
        "493": 132,
        "494": 47,
        "495": 223,
        "496": 5,
        "497": 143,
        "498": 166,
        "499": 172,
        "500": 44,
        "501": 207,
        "502": 170,
        "503": 130,
        "504": 53,
        "505": 75,
        "506": 62,
        "507": 129,
        "508": 62,
        "509": 75,
        "510": 101,
        "511": 160,
        "512": 93,
        "513": 178,
        "514": 218,
        "515": 63,
        "516": 10,
        "517": 231,
        "518": 5,
        "519": 20,
        "520": 18,
        "521": 54,
        "522": 2,
        "523": 47,
        "524": 174,
        "525": 243,
        "526": 120,
        "527": 229,
        "528": 38,
        "529": 60,
        "530": 178,
        "531": 135,
        "532": 237,
        "533": 10,
        "534": 120,
        "535": 34,
        "536": 36,
        "537": 119,
        "538": 154,
        "539": 96,
        "540": 59,
        "541": 162,
        "542": 76,
        "543": 173,
        "544": 93,
        "545": 19,
        "546": 180,
        "547": 18,
        "548": 189,
        "549": 76,
        "550": 190,
        "551": 188,
        "552": 219,
        "553": 61,
        "554": 169,
        "555": 216,
        "556": 41,
        "557": 215,
        "558": 200,
        "559": 70,
        "560": 189,
        "561": 155,
        "562": 51,
        "563": 246,
        "564": 27,
        "565": 132,
        "566": 240,
        "567": 23,
        "568": 207,
        "569": 24,
        "570": 139,
        "571": 69,
        "572": 119,
        "573": 27,
        "574": 44,
        "575": 224,
        "576": 50,
        "577": 52,
        "578": 49,
        "579": 161,
        "580": 146,
        "581": 208,
        "582": 127,
        "583": 212,
        "584": 230,
        "585": 243,
        "586": 28,
        "587": 126,
        "588": 108,
        "589": 136,
        "590": 127,
        "591": 118,
        "592": 86,
        "593": 59,
        "594": 203,
        "595": 14,
        "596": 190,
        "597": 135,
        "598": 250,
        "599": 223,
        "600": 181,
        "601": 49,
        "602": 20,
        "603": 57,
        "604": 62,
        "605": 154,
        "606": 83,
        "607": 20,
        "608": 185,
        "609": 239,
        "610": 251,
        "611": 226,
        "612": 205,
        "613": 94,
        "614": 34,
        "615": 24,
        "616": 94,
        "617": 92,
        "618": 232,
        "619": 187,
        "620": 42,
        "621": 112,
        "622": 70,
        "623": 127,
        "624": 87,
        "625": 0,
        "626": 9,
        "627": 35,
        "628": 176,
        "629": 6,
        "630": 70,
        "631": 131,
        "632": 16,
        "633": 26,
        "634": 218,
        "635": 189,
        "636": 205,
        "637": 201,
        "638": 20,
        "639": 74,
        "640": 45,
        "641": 70,
        "642": 189,
        "643": 235,
        "644": 137,
        "645": 217,
        "646": 162,
        "647": 120,
        "648": 37,
        "649": 18,
        "650": 100,
        "651": 205,
        "652": 1,
        "653": 155,
        "654": 54,
        "655": 223,
        "656": 192,
        "657": 175,
        "658": 146,
        "659": 174,
        "660": 137,
        "661": 114,
        "662": 29,
        "663": 250,
        "664": 197,
        "665": 81,
        "666": 6,
        "667": 153,
        "668": 236,
        "669": 157,
        "670": 32,
        "671": 174,
        "672": 225,
        "673": 235,
        "674": 220,
        "675": 24,
        "676": 157,
        "677": 147,
        "678": 213,
        "679": 94,
        "680": 118,
        "681": 114,
        "682": 239,
        "683": 15,
        "684": 230,
        "685": 244,
        "686": 81,
        "687": 11,
        "688": 3,
        "689": 99,
        "690": 70,
        "691": 160,
        "692": 73,
        "693": 29,
        "694": 127,
        "695": 121,
        "696": 119,
        "697": 168,
        "698": 97,
        "699": 217,
        "700": 151,
        "701": 145,
        "702": 194,
        "703": 97,
        "704": 124,
        "705": 130,
        "706": 96,
        "707": 86,
        "708": 63,
        "709": 236,
        "710": 207,
        "711": 184,
        "712": 69,
        "713": 113,
        "714": 118,
        "715": 127,
        "716": 197,
        "717": 42,
        "718": 238,
        "719": 226,
        "720": 223,
        "721": 36,
        "722": 217,
        "723": 247,
        "724": 70,
        "725": 231,
        "726": 0,
        "727": 50,
        "728": 126,
        "729": 82,
        "730": 124,
        "731": 124,
        "732": 157,
        "733": 187,
        "734": 57,
        "735": 177,
        "736": 87,
        "737": 137,
        "738": 132,
        "739": 170,
        "740": 240,
        "741": 74,
        "742": 218,
        "743": 181,
        "744": 91,
        "745": 245,
        "746": 157,
        "747": 68,
        "748": 189,
        "749": 21,
        "750": 239,
        "751": 27,
        "752": 122,
        "753": 85,
        "754": 193,
        "755": 33,
        "756": 18,
        "757": 204,
        "758": 21,
        "759": 27,
        "760": 71,
        "761": 202,
        "762": 163,
        "763": 86,
        "764": 120,
        "765": 22,
        "766": 236,
        "767": 206,
        "768": 191,
        "769": 30,
        "770": 111,
        "771": 86,
        "772": 114,
        "773": 243,
        "774": 189,
        "775": 176,
        "776": 3,
        "777": 210,
        "778": 36,
        "779": 125,
        "780": 225,
        "781": 218,
        "782": 148,
        "783": 44,
        "784": 138,
        "785": 7,
        "786": 109,
        "787": 44,
        "788": 236,
        "789": 89,
        "790": 124,
        "791": 106,
        "792": 142,
        "793": 215,
        "794": 213,
        "795": 66,
        "796": 30,
        "797": 180,
        "798": 110,
        "799": 25,
        "800": 107,
        "801": 184,
        "802": 42,
        "803": 23,
        "804": 10,
        "805": 179,
        "806": 209,
        "807": 104,
        "808": 10,
        "809": 168,
        "810": 188,
        "811": 176,
        "812": 148,
        "813": 255,
        "814": 114,
        "815": 254,
        "816": 166,
        "817": 117,
        "818": 253,
        "819": 219,
        "820": 69,
        "821": 114,
        "822": 136,
        "823": 129,
        "824": 70,
        "825": 72,
        "826": 136,
        "827": 12,
        "828": 109,
        "829": 8,
        "830": 1,
        "831": 145,
        "832": 117,
        "833": 93,
        "834": 145,
        "835": 42,
        "836": 119,
        "837": 76,
        "838": 150,
        "839": 133,
        "840": 19,
        "841": 62,
        "842": 173,
        "843": 187,
        "844": 242,
        "845": 217,
        "846": 226,
        "847": 49,
        "848": 87,
        "849": 53,
        "850": 110,
        "851": 92,
        "852": 86,
        "853": 225,
        "854": 234,
        "855": 212,
        "856": 14,
        "857": 76,
        "858": 106,
        "859": 122,
        "860": 3,
        "861": 190,
        "862": 59,
        "863": 247,
        "864": 195,
        "865": 18,
        "866": 35,
        "867": 13,
        "868": 173,
        "869": 63,
        "870": 137,
        "871": 178,
        "872": 153,
        "873": 37,
        "874": 5,
        "875": 114,
        "876": 188,
        "877": 154,
        "878": 77,
        "879": 99,
        "880": 8,
        "881": 153,
        "882": 234,
        "883": 95,
        "884": 72,
        "885": 139,
        "886": 92,
        "887": 122,
        "888": 248,
        "889": 241,
        "890": 196,
        "891": 45,
        "892": 199,
        "893": 39,
        "894": 51,
        "895": 209,
        "896": 14,
        "897": 172,
        "898": 255,
        "899": 151,
        "900": 242,
        "901": 61,
        "902": 78,
        "903": 170,
        "904": 192,
        "905": 133,
        "906": 114,
        "907": 140,
        "908": 227,
        "909": 147,
        "910": 26,
        "911": 157,
        "912": 33,
        "913": 160,
        "914": 165,
        "915": 241,
        "916": 244,
        "917": 95,
        "918": 9,
        "919": 224,
        "920": 242,
        "921": 110,
        "922": 155,
        "923": 109,
        "924": 58,
        "925": 97,
        "926": 110,
        "927": 166,
        "928": 37,
        "929": 105,
        "930": 255,
        "931": 142,
        "932": 212,
        "933": 239,
        "934": 186,
        "935": 216,
        "936": 47,
        "937": 123,
        "938": 132,
        "939": 66,
        "940": 46,
        "941": 137,
        "942": 122,
        "943": 131,
        "944": 192,
        "945": 189,
        "946": 102,
        "947": 93,
        "948": 17,
        "949": 20,
        "950": 7,
        "951": 58,
        "952": 216,
        "953": 216,
        "954": 243,
        "955": 211,
        "956": 143,
        "957": 241,
        "958": 130,
        "959": 122,
        "960": 190,
        "961": 241,
        "962": 93,
        "963": 136,
        "964": 154,
        "965": 223,
        "966": 77,
        "967": 36,
        "968": 64,
        "969": 110,
        "970": 123,
        "971": 128,
        "972": 248,
        "973": 151,
        "974": 142,
        "975": 9,
        "976": 192,
        "977": 117,
        "978": 150,
        "979": 49,
        "980": 43,
        "981": 180,
        "982": 224,
        "983": 45,
        "984": 232,
        "985": 20,
        "986": 237,
        "987": 103,
        "988": 255,
        "989": 162,
        "990": 244,
        "991": 91,
        "992": 111,
        "993": 87,
        "994": 1,
        "995": 50,
        "996": 137,
        "997": 102,
        "998": 163,
        "999": 232,
        "1000": 17,
        "1001": 227,
        "1002": 242,
        "1003": 127,
        "1004": 219,
        "1005": 2,
        "1006": 253,
        "1007": 231,
        "1008": 211,
        "1009": 107,
        "1010": 104,
        "1011": 35,
        "1012": 207,
        "1013": 219,
        "1014": 246,
        "1015": 164,
        "1016": 222,
        "1017": 23,
        "1018": 61,
        "1019": 125,
        "1020": 230,
        "1021": 227,
        "1022": 9,
        "1023": 16,
        "1024": 248,
        "1025": 229,
        "1026": 84,
        "1027": 239,
        "1028": 244,
        "1029": 250,
        "1030": 8,
        "1031": 189,
        "1032": 76,
        "1033": 184,
        "1034": 93,
        "1035": 74,
        "1036": 218,
        "1037": 157,
        "1038": 205,
        "1039": 161,
        "1040": 189,
        "1041": 216,
        "1042": 55,
        "1043": 4,
        "1044": 39,
        "1045": 78,
        "1046": 64,
        "1047": 177,
        "1048": 72,
        "1049": 242,
        "1050": 111,
        "1051": 241,
        "1052": 164,
        "1053": 155,
        "1054": 189,
        "1055": 246,
        "1056": 250,
        "1057": 56,
        "1058": 218,
        "1059": 72,
        "1060": 4,
        "1061": 28,
        "1062": 109,
        "1063": 212,
        "1064": 95,
        "1065": 6,
        "1066": 193,
        "1067": 151,
        "1068": 230,
        "1069": 141,
        "1070": 85,
        "1071": 71,
        "1072": 116,
        "1073": 210,
        "1074": 56,
        "1075": 126,
        "1076": 2,
        "1077": 9,
        "1078": 205,
        "1079": 40,
        "1080": 237,
        "1081": 5,
        "1082": 235,
        "1083": 93,
        "1084": 243,
        "1085": 226,
        "1086": 200,
        "1087": 216,
        "1088": 158,
        "1089": 78,
        "1090": 161,
        "1091": 100,
        "1092": 147,
        "1093": 191,
        "1094": 26,
        "1095": 68,
        "1096": 50,
        "1097": 231,
        "1098": 96,
        "1099": 116,
        "1100": 53,
        "1101": 66,
        "1102": 165,
        "1103": 108,
        "1104": 219,
        "1105": 20,
        "1106": 56,
        "1107": 70,
        "1108": 41,
        "1109": 106,
        "1110": 47,
        "1111": 124,
        "1112": 108,
        "1113": 200,
        "1114": 193,
        "1115": 138,
        "1116": 20,
        "1117": 61,
        "1118": 64,
        "1119": 130,
        "1120": 229,
        "1121": 145,
        "1122": 3,
        "1123": 47,
        "1124": 83,
        "1125": 183,
        "1126": 64,
        "1127": 3,
        "1128": 0,
        "1129": 35,
        "1130": 212,
        "1131": 171,
        "1132": 10,
        "1133": 218,
        "1134": 248,
        "1135": 149,
        "1136": 112,
        "1137": 244,
        "1138": 200,
        "1139": 163,
        "1140": 236,
        "1141": 214,
        "1142": 152,
        "1143": 7,
        "1144": 108,
        "1145": 81,
        "1146": 178,
        "1147": 232,
        "1148": 40,
        "1149": 52,
        "1150": 16,
        "1151": 1,
        "1152": 72,
        "1153": 255,
        "1154": 230,
        "1155": 55,
        "1156": 55,
        "1157": 219,
        "1158": 245,
        "1159": 164,
        "1160": 4,
        "1161": 135,
        "1162": 252,
        "1163": 243,
        "1164": 160,
        "1165": 214,
        "1166": 218,
        "1167": 194,
        "1168": 44,
        "1169": 143,
        "1170": 155,
        "1171": 109,
        "1172": 242,
        "1173": 217,
        "1174": 47,
        "1175": 36,
        "1176": 78,
        "1177": 87,
        "1178": 157,
        "1179": 211,
        "1180": 170,
        "1181": 96,
        "1182": 190,
        "1183": 115,
        "1184": 89,
        "1185": 220,
        "1186": 201,
        "1187": 209,
        "1188": 33,
        "1189": 3,
        "1190": 220,
        "1191": 217,
        "1192": 78,
        "1193": 60,
        "1194": 82,
        "1195": 147,
        "1196": 201,
        "1197": 79,
        "1198": 170,
        "1199": 194,
        "1200": 80,
        "1201": 200,
        "1202": 212,
        "1203": 44,
        "1204": 91,
        "1205": 7,
        "1206": 1,
        "1207": 229,
        "1208": 11,
        "1209": 42,
        "1210": 57,
        "1211": 53,
        "1212": 71,
        "1213": 182,
        "1214": 191,
        "1215": 84,
        "1216": 140,
        "1217": 40,
        "1218": 222,
        "1219": 140,
        "1220": 157,
        "1221": 252,
        "1222": 103,
        "1223": 211,
        "1224": 84,
        "1225": 87,
        "1226": 158,
        "1227": 221,
        "1228": 208,
        "1229": 15,
        "1230": 83,
        "1231": 141,
        "1232": 58,
        "1233": 234,
        "1234": 138,
        "1235": 5,
        "1236": 51,
        "1237": 88,
        "1238": 255,
        "1239": 68,
        "1240": 94,
        "1241": 9,
        "1242": 104,
        "1243": 50,
        "1244": 162,
        "1245": 4,
        "1246": 198,
        "1247": 91,
        "1248": 55,
        "1249": 137,
        "1250": 56,
        "1251": 23,
        "1252": 17,
        "1253": 224,
        "1254": 140,
        "1255": 26,
        "1256": 55,
        "1257": 137,
        "1258": 55,
        "1259": 115,
        "1260": 239,
        "1261": 54,
        "1262": 223,
        "1263": 198,
        "1264": 40,
        "1265": 156,
        "1266": 173,
        "1267": 161,
        "1268": 132,
        "1269": 48,
        "1270": 107,
        "1271": 111,
        "1272": 53,
        "1273": 23,
        "1274": 200,
        "1275": 39,
        "1276": 134,
        "1277": 12,
        "1278": 125,
        "1279": 138,
        "1280": 203,
        "1281": 97,
        "1282": 106,
        "1283": 219,
        "1284": 89,
        "1285": 150,
        "1286": 252,
        "1287": 240,
        "1288": 62,
        "1289": 100,
        "1290": 61,
        "1291": 250,
        "1292": 19,
        "1293": 159,
        "1294": 192,
        "1295": 143,
        "1296": 243,
        "1297": 22,
        "1298": 208,
        "1299": 53,
        "1300": 194,
        "1301": 236,
        "1302": 134,
        "1303": 32,
        "1304": 183,
        "1305": 152,
        "1306": 84,
        "1307": 109,
        "1308": 130,
        "1309": 73,
        "1310": 211,
        "1311": 61,
        "1312": 187,
        "1313": 156,
        "1314": 157,
        "1315": 45,
        "1316": 59,
        "1317": 227,
        "1318": 184,
        "1319": 236,
        "1320": 165,
        "1321": 245,
        "1322": 190,
        "1323": 33,
        "1324": 18,
        "1325": 241,
        "1326": 78,
        "1327": 167,
        "1328": 176,
        "1329": 108,
        "1330": 5,
        "1331": 42,
        "1332": 41,
        "1333": 217,
        "1334": 14,
        "1335": 200,
        "1336": 210,
        "1337": 231,
        "1338": 204,
        "1339": 29,
        "1340": 20,
        "1341": 117,
        "1342": 50,
        "1343": 97,
        "1344": 37,
        "1345": 57,
        "1346": 71,
        "1347": 162,
        "1348": 7,
        "1349": 96,
        "1350": 185,
        "1351": 115,
        "1352": 142,
        "1353": 193,
        "1354": 53,
        "1355": 157,
        "1356": 102,
        "1357": 84,
        "1358": 173,
        "1359": 27,
        "1360": 0,
        "1361": 132,
        "1362": 205,
        "1363": 76,
        "1364": 243,
        "1365": 102,
        "1366": 180,
        "1367": 6,
        "1368": 237,
        "1369": 114,
        "1370": 74,
        "1371": 216,
        "1372": 235,
        "1373": 101,
        "1374": 37,
        "1375": 118,
        "1376": 255,
        "1377": 231,
        "1378": 16,
        "1379": 188,
        "1380": 62,
        "1381": 231,
        "1382": 55,
        "1383": 36,
        "1384": 144,
        "1385": 65,
        "1386": 138,
        "1387": 8,
        "1388": 28,
        "1389": 187,
        "1390": 141,
        "1391": 193,
        "1392": 223,
        "1393": 44,
        "1394": 244,
        "1395": 45,
        "1396": 222,
        "1397": 121,
        "1398": 135,
        "1399": 3,
        "1400": 202,
        "1401": 148,
        "1402": 204,
        "1403": 227,
        "1404": 36,
        "1405": 37,
        "1406": 180,
        "1407": 243,
        "1408": 201,
        "1409": 201,
        "1410": 245,
        "1411": 44,
        "1412": 95,
        "1413": 155,
        "1414": 100,
        "1415": 148,
        "1416": 200,
        "1417": 164,
        "1418": 222,
        "1419": 201,
        "1420": 109,
        "1421": 137,
        "1422": 179,
        "1423": 229,
        "1424": 226,
        "1425": 82,
        "1426": 237,
        "1427": 196,
        "1428": 176,
        "1429": 116,
        "1430": 5,
        "1431": 49,
        "1432": 254,
        "1433": 120,
        "1434": 166,
        "1435": 175,
        "1436": 205,
        "1437": 65,
        "1438": 191,
        "1439": 201,
        "1440": 70,
        "1441": 163,
        "1442": 13,
        "1443": 239,
        "1444": 0,
        "1445": 46,
        "1446": 182,
        "1447": 115,
        "1448": 221,
        "1449": 157,
        "1450": 69,
        "1451": 175,
        "1452": 196,
        "1453": 124,
        "1454": 55,
        "1455": 192,
        "1456": 64,
        "1457": 231,
        "1458": 75,
        "1459": 92,
        "1460": 147,
        "1461": 117,
        "1462": 53,
        "1463": 61,
        "1464": 224,
        "1465": 61,
        "1466": 82,
        "1467": 203,
        "1468": 205,
        "1469": 152,
        "1470": 5,
        "1471": 43,
        "1472": 155,
        "1473": 236,
        "1474": 149,
        "1475": 178,
        "1476": 246,
        "1477": 37,
        "1478": 16,
        "1479": 1,
        "1480": 254,
        "1481": 121,
        "1482": 186,
        "1483": 30,
        "1484": 133,
        "1485": 153,
        "1486": 7,
        "1487": 142,
        "1488": 142,
        "1489": 46,
        "1490": 139,
        "1491": 181,
        "1492": 38,
        "1493": 140,
        "1494": 126,
        "1495": 196,
        "1496": 81,
        "1497": 51,
        "1498": 104,
        "1499": 210,
        "1500": 158,
        "1501": 32,
        "1502": 182,
        "1503": 44,
        "1504": 45,
        "1505": 19,
        "1506": 106,
        "1507": 3,
        "1508": 116,
        "1509": 222,
        "1510": 40,
        "1511": 122,
        "1512": 120,
        "1513": 33,
        "1514": 48,
        "1515": 207,
        "1516": 12,
        "1517": 243,
        "1518": 113,
        "1519": 155,
        "1520": 91,
        "1521": 81,
        "1522": 39,
        "1523": 234,
        "1524": 59,
        "1525": 126,
        "1526": 34,
        "1527": 255,
        "1528": 15,
        "1529": 53,
        "1530": 184,
        "1531": 201,
        "1532": 212,
        "1533": 47,
        "1534": 154,
        "1535": 194,
        "1536": 50,
        "1537": 175,
        "1538": 95,
        "1539": 29,
        "1540": 50,
        "1541": 252,
        "1542": 191,
        "1543": 225,
        "1544": 30,
        "1545": 201,
        "1546": 235,
        "1547": 84,
        "1548": 213,
        "1549": 199,
        "1550": 124,
        "1551": 125,
        "1552": 209,
        "1553": 43,
        "1554": 46,
        "1555": 48,
        "1556": 241,
        "1557": 29,
        "1558": 192,
        "1559": 42,
        "1560": 74,
        "1561": 23,
        "1562": 112,
        "1563": 230,
        "1564": 87,
        "1565": 42,
        "1566": 39,
        "1567": 105,
        "1568": 170,
        "1569": 182,
        "1570": 246,
        "1571": 239,
        "1572": 125,
        "1573": 125,
        "1574": 114,
        "1575": 126,
        "1576": 90,
        "1577": 22,
        "1578": 62,
        "1579": 84,
        "1580": 43,
        "1581": 38,
        "1582": 108,
        "1583": 107,
        "1584": 121,
        "1585": 108,
        "1586": 28,
        "1587": 182,
        "1588": 111,
        "1589": 62,
        "1590": 151,
        "1591": 144,
        "1592": 18,
        "1593": 0,
        "1594": 157,
        "1595": 184,
        "1596": 57,
        "1597": 235,
        "1598": 221,
        "1599": 101,
        "1600": 249,
        "1601": 20,
        "1602": 55,
        "1603": 9,
        "1604": 135,
        "1605": 239,
        "1606": 234,
        "1607": 228,
        "1608": 63,
        "1609": 9,
        "1610": 227,
        "1611": 4,
        "1612": 175,
        "1613": 114,
        "1614": 11,
        "1615": 16,
        "1616": 76,
        "1617": 143,
        "1618": 103,
        "1619": 235,
        "1620": 237,
        "1621": 38,
        "1622": 129,
        "1623": 75,
        "1624": 174,
        "1625": 61,
        "1626": 105,
        "1627": 222,
        "1628": 52,
        "1629": 224,
        "1630": 119,
        "1631": 0,
        "1632": 121,
        "1633": 135,
        "1634": 204,
        "1635": 18,
        "1636": 226,
        "1637": 185,
        "1638": 80,
        "1639": 69,
        "1640": 200,
        "1641": 87,
        "1642": 47,
        "1643": 77,
        "1644": 30,
        "1645": 140,
        "1646": 162,
        "1647": 97,
        "1648": 29,
        "1649": 211,
        "1650": 102,
        "1651": 199,
        "1652": 25,
        "1653": 215,
        "1654": 60,
        "1655": 254,
        "1656": 144,
        "1657": 204,
        "1658": 29,
        "1659": 1,
        "1660": 94,
        "1661": 189,
        "1662": 100,
        "1663": 228,
        "1664": 6,
        "1665": 64,
        "1666": 72,
        "1667": 173,
        "1668": 134,
        "1669": 10,
        "1670": 219,
        "1671": 33,
        "1672": 90,
        "1673": 190,
        "1674": 180,
        "1675": 33,
        "1676": 220,
        "1677": 224,
        "1678": 169,
        "1679": 60,
        "1680": 248,
        "1681": 84,
        "1682": 55,
        "1683": 116,
        "1684": 52,
        "1685": 239,
        "1686": 3,
        "1687": 135,
        "1688": 243,
        "1689": 246,
        "1690": 37,
        "1691": 210,
        "1692": 242,
        "1693": 155,
        "1694": 155,
        "1695": 176,
        "1696": 133,
        "1697": 21,
        "1698": 196,
        "1699": 194,
        "1700": 222,
        "1701": 76,
        "1702": 194,
        "1703": 186,
        "1704": 177,
        "1705": 46,
        "1706": 61,
        "1707": 162,
        "1708": 107,
        "1709": 45,
        "1710": 240,
        "1711": 178,
        "1712": 195,
        "1713": 117,
        "1714": 176,
        "1715": 199,
        "1716": 176,
        "1717": 248,
        "1718": 30,
        "1719": 30,
        "1720": 238,
        "1721": 85,
        "1722": 174,
        "1723": 56,
        "1724": 145,
        "1725": 253,
        "1726": 41,
        "1727": 33,
        "1728": 253,
        "1729": 0,
        "1730": 14,
        "1731": 185,
        "1732": 209,
        "1733": 61,
        "1734": 186,
        "1735": 216,
        "1736": 4,
        "1737": 171,
        "1738": 173,
        "1739": 105,
        "1740": 50,
        "1741": 25,
        "1742": 173,
        "1743": 132,
        "1744": 215,
        "1745": 55,
        "1746": 7,
        "1747": 193,
        "1748": 30,
        "1749": 28,
        "1750": 57,
        "1751": 50,
        "1752": 160,
        "1753": 202,
        "1754": 143,
        "1755": 38,
        "1756": 161,
        "1757": 142,
        "1758": 140,
        "1759": 101,
        "1760": 15,
        "1761": 247,
        "1762": 114,
        "1763": 122,
        "1764": 76,
        "1765": 54,
        "1766": 146,
        "1767": 245,
        "1768": 122,
        "1769": 1,
        "1770": 184,
        "1771": 133,
        "1772": 202,
        "1773": 47,
        "1774": 192,
        "1775": 178,
        "1776": 222,
        "1777": 67,
        "1778": 64,
        "1779": 193,
        "1780": 202,
        "1781": 182,
        "1782": 166,
        "1783": 127,
        "1784": 79,
        "1785": 101,
        "1786": 252,
        "1787": 36,
        "1788": 186,
        "1789": 78,
        "1790": 187,
        "1791": 133,
        "1792": 194,
        "1793": 170,
        "1794": 30,
        "1795": 96,
        "1796": 153,
        "1797": 203,
        "1798": 70,
        "1799": 27,
        "1800": 192,
        "1801": 184,
        "1802": 254,
        "1803": 149,
        "1804": 156,
        "1805": 144,
        "1806": 74,
        "1807": 235,
        "1808": 174,
        "1809": 199,
        "1810": 182,
        "1811": 161,
        "1812": 251,
        "1813": 205,
        "1814": 27,
        "1815": 159,
        "1816": 57,
        "1817": 85,
        "1818": 197,
        "1819": 210,
        "1820": 185,
        "1821": 124,
        "1822": 163,
        "1823": 22,
        "1824": 31,
        "1825": 123,
        "1826": 91,
        "1827": 123,
        "1828": 54,
        "1829": 176,
        "1830": 88,
        "1831": 58,
        "1832": 140,
        "1833": 191,
        "1834": 63,
        "1835": 166,
        "1836": 15,
        "1837": 79,
        "1838": 69,
        "1839": 6,
        "1840": 113,
        "1841": 190,
        "1842": 242,
        "1843": 234,
        "1844": 62,
        "1845": 97,
        "1846": 4,
        "1847": 232,
        "1848": 26,
        "1849": 65,
        "1850": 93,
        "1851": 181,
        "1852": 107,
        "1853": 162,
        "1854": 99,
        "1855": 28,
        "1856": 248,
        "1857": 162,
        "1858": 106,
        "1859": 81,
        "1860": 186,
        "1861": 55,
        "1862": 235,
        "1863": 59,
        "1864": 35,
        "1865": 100,
        "1866": 141,
        "1867": 92,
        "1868": 253,
        "1869": 12,
        "1870": 188,
        "1871": 171,
        "1872": 235,
        "1873": 127,
        "1874": 124,
        "1875": 78,
        "1876": 11,
        "1877": 241,
        "1878": 247,
        "1879": 12,
        "1880": 125,
        "1881": 86,
        "1882": 96,
        "1883": 7,
        "1884": 124,
        "1885": 95,
        "1886": 81,
        "1887": 247,
        "1888": 237,
        "1889": 242,
        "1890": 115,
        "1891": 237,
        "1892": 120,
        "1893": 57,
        "1894": 46,
        "1895": 172,
        "1896": 38,
        "1897": 49,
        "1898": 143,
        "1899": 2,
        "1900": 217,
        "1901": 165,
        "1902": 121,
        "1903": 185,
        "1904": 223,
        "1905": 37,
        "1906": 98,
        "1907": 179,
        "1908": 250,
        "1909": 50,
        "1910": 0,
        "1911": 21,
        "1912": 96,
        "1913": 160,
        "1914": 7,
        "1915": 237,
        "1916": 57,
        "1917": 240,
        "1918": 135,
        "1919": 75,
        "1920": 131,
        "1921": 201,
        "1922": 99,
        "1923": 36,
        "1924": 198,
        "1925": 38,
        "1926": 31,
        "1927": 108,
        "1928": 4,
        "1929": 183,
        "1930": 7,
        "1931": 17,
        "1932": 142,
        "1933": 216,
        "1934": 164,
        "1935": 101,
        "1936": 43,
        "1937": 116,
        "1938": 103,
        "1939": 255,
        "1940": 44,
        "1941": 85,
        "1942": 93,
        "1943": 65,
        "1944": 20,
        "1945": 116,
        "1946": 226,
        "1947": 133,
        "1948": 228,
        "1949": 212,
        "1950": 51,
        "1951": 23,
        "1952": 81,
        "1953": 139,
        "1954": 98,
        "1955": 154,
        "1956": 135,
        "1957": 71,
        "1958": 50,
        "1959": 95,
        "1960": 154,
        "1961": 73,
        "1962": 219,
        "1963": 178,
        "1964": 131,
        "1965": 179,
        "1966": 227,
        "1967": 65,
        "1968": 226,
        "1969": 199,
        "1970": 162,
        "1971": 181,
        "1972": 16,
        "1973": 48,
        "1974": 186,
        "1975": 125,
        "1976": 113,
        "1977": 48,
        "1978": 66,
        "1979": 17,
        "1980": 64,
        "1981": 160,
        "1982": 39,
        "1983": 46,
        "1984": 218,
        "1985": 219,
        "1986": 212,
        "1987": 111,
        "1988": 196,
        "1989": 103,
        "1990": 81,
        "1991": 70,
        "1992": 71,
        "1993": 244,
        "1994": 239,
        "1995": 159,
        "1996": 188,
        "1997": 62,
        "1998": 145,
        "1999": 198,
        "2000": 134,
        "2001": 222,
        "2002": 249,
        "2003": 183,
        "2004": 111,
        "2005": 204,
        "2006": 115,
        "2007": 24,
        "2008": 68,
        "2009": 71,
        "2010": 112,
        "2011": 102,
        "2012": 144,
        "2013": 86,
        "2014": 181,
        "2015": 184,
        "2016": 179,
        "2017": 150,
        "2018": 255,
        "2019": 104,
        "2020": 35,
        "2021": 6,
        "2022": 63,
        "2023": 125,
        "2024": 0,
        "2025": 128,
        "2026": 251,
        "2027": 153,
        "2028": 118,
        "2029": 151,
        "2030": 201,
        "2031": 12,
        "2032": 7,
        "2033": 66,
        "2034": 121,
        "2035": 212,
        "2036": 46,
        "2037": 25,
        "2038": 193,
        "2039": 24,
        "2040": 150,
        "2041": 43,
        "2042": 170,
        "2043": 206,
        "2044": 133,
        "2045": 199,
        "2046": 167,
        "2047": 3,
        "2048": 177,
        "2049": 228,
        "2050": 131,
        "2051": 104,
        "2052": 76,
        "2053": 66,
        "2054": 99,
        "2055": 119,
        "2056": 187,
        "2057": 33,
        "2058": 48,
        "2059": 201,
        "2060": 166,
        "2061": 189,
        "2062": 13,
        "2063": 223,
        "2064": 11,
        "2065": 55,
        "2066": 39,
        "2067": 65,
        "2068": 44,
        "2069": 14,
        "2070": 97,
        "2071": 255,
        "2072": 227,
        "2073": 214,
        "2074": 178,
        "2075": 190,
        "2076": 62,
        "2077": 132,
        "2078": 99,
        "2079": 133,
        "2080": 8,
        "2081": 232,
        "2082": 159,
        "2083": 136,
        "2084": 85,
        "2085": 169,
        "2086": 166,
        "2087": 220,
        "2088": 102,
        "2089": 238,
        "2090": 98,
        "2091": 58,
        "2092": 23,
        "2093": 201,
        "2094": 142,
        "2095": 131,
        "2096": 130,
        "2097": 1,
        "2098": 151,
        "2099": 232,
        "2100": 198,
        "2101": 26,
        "2102": 110,
        "2103": 140,
        "2104": 139,
        "2105": 162,
        "2106": 221,
        "2107": 70,
        "2108": 177,
        "2109": 223,
        "2110": 112,
        "2111": 0,
        "2112": 99,
        "2113": 115,
        "2114": 48,
        "2115": 43,
        "2116": 145,
        "2117": 187,
        "2118": 114,
        "2119": 174,
        "2120": 231,
        "2121": 148,
        "2122": 140,
        "2123": 101,
        "2124": 144,
        "2125": 7,
        "2126": 113,
        "2127": 47,
        "2128": 193,
        "2129": 2,
        "2130": 122,
        "2131": 44,
        "2132": 87,
        "2133": 3,
        "2134": 71,
        "2135": 10,
        "2136": 215,
        "2137": 51,
        "2138": 94,
        "2139": 28,
        "2140": 159,
        "2141": 191,
        "2142": 0,
        "2143": 106,
        "2144": 210,
        "2145": 98,
        "2146": 167,
        "2147": 253,
        "2148": 65,
        "2149": 167,
        "2150": 224,
        "2151": 204,
        "2152": 81,
        "2153": 157,
        "2154": 254,
        "2155": 205,
        "2156": 229,
        "2157": 21,
        "2158": 115,
        "2159": 210,
        "2160": 182,
        "2161": 165,
        "2162": 232,
        "2163": 75,
        "2164": 108,
        "2165": 181,
        "2166": 117,
        "2167": 99,
        "2168": 209,
        "2169": 142,
        "2170": 99,
        "2171": 26,
        "2172": 160,
        "2173": 186,
        "2174": 18,
        "2175": 227,
        "2176": 23,
        "2177": 69,
        "2178": 239,
        "2179": 14,
        "2180": 221,
        "2181": 98,
        "2182": 36,
        "2183": 231,
        "2184": 31,
        "2185": 121,
        "2186": 86,
        "2187": 152,
        "2188": 34,
        "2189": 145,
        "2190": 210,
        "2191": 34,
        "2192": 253,
        "2193": 254,
        "2194": 90,
        "2195": 87,
        "2196": 120,
        "2197": 91,
        "2198": 83,
        "2199": 194,
        "2200": 56,
        "2201": 72,
        "2202": 53,
        "2203": 233,
        "2204": 179,
        "2205": 125,
        "2206": 42,
        "2207": 255,
        "2208": 94,
        "2209": 251,
        "2210": 250,
        "2211": 116,
        "2212": 62,
        "2213": 175,
        "2214": 27,
        "2215": 243,
        "2216": 53,
        "2217": 118,
        "2218": 21,
        "2219": 90,
        "2220": 129,
        "2221": 156,
        "2222": 76,
        "2223": 68,
        "2224": 223,
        "2225": 132,
        "2226": 160,
        "2227": 92,
        "2228": 221,
        "2229": 143,
        "2230": 241,
        "2231": 235,
        "2232": 85,
        "2233": 36,
        "2234": 160,
        "2235": 13,
        "2236": 169,
        "2237": 80,
        "2238": 65,
        "2239": 60,
        "2240": 94,
        "2241": 50,
        "2242": 224,
        "2243": 106,
        "2244": 65,
        "2245": 22,
        "2246": 50,
        "2247": 98,
        "2248": 129,
        "2249": 225,
        "2250": 148,
        "2251": 164,
        "2252": 147,
        "2253": 141,
        "2254": 46,
        "2255": 106,
        "2256": 182,
        "2257": 161,
        "2258": 236,
        "2259": 51,
        "2260": 83,
        "2261": 47,
        "2262": 253,
        "2263": 226,
        "2264": 128,
        "2265": 225,
        "2266": 145,
        "2267": 145,
        "2268": 188,
        "2269": 137,
        "2270": 60,
        "2271": 195,
        "2272": 111,
        "2273": 49,
        "2274": 152,
        "2275": 254,
        "2276": 99,
        "2277": 189,
        "2278": 51,
        "2279": 226,
        "2280": 20,
        "2281": 134,
        "2282": 71,
        "2283": 123,
        "2284": 131,
        "2285": 74,
        "2286": 243,
        "2287": 119,
        "2288": 145,
        "2289": 201,
        "2290": 167,
        "2291": 208,
        "2292": 209,
        "2293": 0,
        "2294": 64,
        "2295": 194,
        "2296": 230,
        "2297": 73,
        "2298": 100,
        "2299": 215,
        "2300": 211,
        "2301": 201,
        "2302": 120,
        "2303": 225,
        "2304": 100,
        "2305": 37,
        "2306": 108,
        "2307": 228,
        "2308": 231,
        "2309": 70,
        "2310": 131,
        "2311": 103,
        "2312": 90,
        "2313": 132,
        "2314": 114,
        "2315": 147,
        "2316": 128,
        "2317": 151,
        "2318": 33,
        "2319": 111,
        "2320": 227,
        "2321": 247,
        "2322": 242,
        "2323": 146,
        "2324": 94,
        "2325": 228,
        "2326": 48,
        "2327": 103,
        "2328": 182,
        "2329": 223,
        "2330": 233,
        "2331": 58,
        "2332": 216,
        "2333": 137,
        "2334": 220,
        "2335": 169,
        "2336": 142,
        "2337": 240,
        "2338": 156,
        "2339": 226,
        "2340": 199,
        "2341": 10,
        "2342": 205,
        "2343": 52,
        "2344": 69,
        "2345": 204,
        "2346": 201,
        "2347": 85,
        "2348": 15,
        "2349": 177,
        "2350": 162,
        "2351": 24,
        "2352": 212,
        "2353": 107,
        "2354": 226,
        "2355": 56,
        "2356": 0,
        "2357": 127,
        "2358": 29,
        "2359": 61,
        "2360": 16,
        "2361": 48,
        "2362": 9,
        "2363": 96,
        "2364": 95,
        "2365": 218,
        "2366": 186,
        "2367": 113,
        "2368": 109,
        "2369": 174,
        "2370": 15,
        "2371": 185,
        "2372": 43,
        "2373": 195,
        "2374": 226,
        "2375": 114,
        "2376": 122,
        "2377": 54,
        "2378": 214,
        "2379": 185,
        "2380": 113,
        "2381": 29,
        "2382": 115,
        "2383": 44,
        "2384": 72,
        "2385": 205,
        "2386": 14,
        "2387": 221,
        "2388": 240,
        "2389": 237,
        "2390": 81,
        "2391": 43,
        "2392": 58,
        "2393": 178,
        "2394": 186,
        "2395": 47,
        "2396": 148,
        "2397": 171,
        "2398": 34,
        "2399": 45,
        "2400": 179,
        "2401": 105,
        "2402": 223,
        "2403": 58,
        "2404": 46,
        "2405": 247,
        "2406": 229,
        "2407": 104,
        "2408": 127,
        "2409": 229,
        "2410": 69,
        "2411": 41,
        "2412": 13,
        "2413": 116,
        "2414": 144,
        "2415": 194,
        "2416": 91,
        "2417": 61,
        "2418": 160,
        "2419": 176,
        "2420": 210,
        "2421": 220,
        "2422": 88,
        "2423": 232,
        "2424": 62,
        "2425": 167,
        "2426": 217,
        "2427": 83,
        "2428": 9,
        "2429": 32,
        "2430": 5,
        "2431": 252,
        "2432": 251,
        "2433": 90,
        "2434": 70,
        "2435": 38,
        "2436": 94,
        "2437": 213,
        "2438": 170,
        "2439": 59,
        "2440": 115,
        "2441": 32,
        "2442": 167,
        "2443": 52,
        "2444": 1,
        "2445": 207,
        "2446": 78,
        "2447": 50,
        "2448": 148,
        "2449": 125,
        "2450": 31,
        "2451": 41,
        "2452": 98,
        "2453": 240,
        "2454": 222,
        "2455": 185,
        "2456": 118,
        "2457": 167,
        "2458": 165,
        "2459": 87,
        "2460": 26,
        "2461": 46,
        "2462": 69,
        "2463": 121,
        "2464": 16,
        "2465": 97,
        "2466": 6,
        "2467": 149,
        "2468": 237,
        "2469": 165,
        "2470": 253,
        "2471": 195,
        "2472": 186,
        "2473": 162,
        "2474": 162,
        "2475": 70,
        "2476": 184,
        "2477": 142,
        "2478": 238,
        "2479": 202,
        "2480": 92,
        "2481": 80,
        "2482": 101,
        "2483": 37,
        "2484": 182,
        "2485": 203,
        "2486": 245,
        "2487": 177,
        "2488": 197,
        "2489": 57,
        "2490": 56,
        "2491": 137,
        "2492": 92,
        "2493": 243,
        "2494": 104,
        "2495": 16,
        "2496": 60,
        "2497": 229,
        "2498": 217,
        "2499": 75,
        "2500": 40,
        "2501": 144,
        "2502": 177,
        "2503": 117,
        "2504": 149,
        "2505": 85,
        "2506": 60,
        "2507": 193,
        "2508": 13,
        "2509": 207,
        "2510": 251,
        "2511": 135,
        "2512": 59,
        "2513": 204,
        "2514": 82,
        "2515": 24,
        "2516": 237,
        "2517": 230,
        "2518": 202,
        "2519": 90,
        "2520": 224,
        "2521": 219,
        "2522": 241,
        "2523": 227,
        "2524": 51,
        "2525": 42,
        "2526": 226,
        "2527": 57,
        "2528": 59,
        "2529": 108,
        "2530": 116,
        "2531": 61,
        "2532": 48,
        "2533": 87,
        "2534": 210,
        "2535": 33,
        "2536": 18,
        "2537": 231,
        "2538": 180,
        "2539": 43,
        "2540": 79,
        "2541": 220,
        "2542": 235,
        "2543": 168,
        "2544": 33,
        "2545": 6,
        "2546": 61,
        "2547": 52,
        "2548": 225,
        "2549": 196,
        "2550": 48,
        "2551": 231,
        "2552": 49,
        "2553": 19,
        "2554": 73,
        "2555": 195,
        "2556": 90,
        "2557": 161,
        "2558": 208,
        "2559": 78,
        "2560": 98,
        "2561": 160,
        "2562": 3,
        "2563": 253,
        "2564": 121,
        "2565": 111,
        "2566": 8,
        "2567": 49,
        "2568": 192,
        "2569": 19,
        "2570": 243,
        "2571": 124,
        "2572": 130,
        "2573": 73,
        "2574": 70,
        "2575": 192,
        "2576": 163,
        "2577": 145,
        "2578": 245,
        "2579": 209,
        "2580": 21,
        "2581": 84,
        "2582": 191,
        "2583": 246,
        "2584": 142,
        "2585": 15,
        "2586": 229,
        "2587": 187,
        "2588": 104,
        "2589": 42,
        "2590": 126,
        "2591": 44,
        "2592": 154,
        "2593": 38,
        "2594": 9,
        "2595": 87,
        "2596": 34,
        "2597": 151,
        "2598": 177,
        "2599": 90,
        "2600": 201,
        "2601": 252,
        "2602": 243,
        "2603": 123,
        "2604": 183,
        "2605": 122,
        "2606": 116,
        "2607": 94,
        "2608": 203,
        "2609": 42,
        "2610": 103,
        "2611": 85,
        "2612": 154,
        "2613": 216,
        "2614": 26,
        "2615": 4,
        "2616": 22,
        "2617": 223,
        "2618": 128,
        "2619": 126,
        "2620": 36,
        "2621": 94,
        "2622": 35,
        "2623": 174,
        "2624": 59,
        "2625": 157,
        "2626": 242,
        "2627": 190,
        "2628": 78,
        "2629": 179,
        "2630": 8,
        "2631": 208,
        "2632": 96,
        "2633": 88,
        "2634": 39,
        "2635": 199,
        "2636": 47,
        "2637": 209,
        "2638": 134,
        "2639": 208,
        "2640": 100,
        "2641": 255,
        "2642": 235,
        "2643": 122,
        "2644": 76,
        "2645": 28,
        "2646": 45,
        "2647": 123,
        "2648": 57,
        "2649": 255,
        "2650": 186,
        "2651": 56,
        "2652": 176,
        "2653": 97,
        "2654": 109,
        "2655": 138,
        "2656": 92,
        "2657": 52,
        "2658": 177,
        "2659": 156,
        "2660": 30,
        "2661": 83,
        "2662": 40,
        "2663": 58,
        "2664": 104,
        "2665": 177,
        "2666": 108,
        "2667": 162,
        "2668": 111,
        "2669": 60,
        "2670": 214,
        "2671": 81,
        "2672": 49,
        "2673": 213,
        "2674": 175,
        "2675": 182,
        "2676": 233,
        "2677": 77,
        "2678": 157,
        "2679": 221,
        "2680": 219,
        "2681": 2,
        "2682": 225,
        "2683": 230,
        "2684": 78,
        "2685": 46,
        "2686": 42,
        "2687": 97,
        "2688": 111,
        "2689": 88,
        "2690": 196,
        "2691": 157,
        "2692": 30,
        "2693": 84,
        "2694": 22,
        "2695": 111,
        "2696": 80,
        "2697": 10,
        "2698": 109,
        "2699": 248,
        "2700": 110,
        "2701": 193,
        "2702": 9,
        "2703": 1,
        "2704": 210,
        "2705": 32,
        "2706": 7,
        "2707": 163,
        "2708": 61,
        "2709": 138,
        "2710": 130,
        "2711": 8,
        "2712": 168,
        "2713": 95,
        "2714": 182,
        "2715": 255,
        "2716": 154,
        "2717": 18,
        "2718": 251,
        "2719": 164,
        "2720": 152,
        "2721": 178,
        "2722": 250,
        "2723": 157,
        "2724": 136,
        "2725": 137,
        "2726": 164,
        "2727": 197,
        "2728": 187,
        "2729": 129,
        "2730": 156,
        "2731": 10,
        "2732": 225,
        "2733": 22,
        "2734": 215,
        "2735": 178,
        "2736": 244,
        "2737": 174,
        "2738": 221,
        "2739": 0,
        "2740": 128,
        "2741": 113,
        "2742": 9,
        "2743": 143,
        "2744": 31,
        "2745": 250,
        "2746": 241,
        "2747": 45,
        "2748": 171,
        "2749": 151,
        "2750": 70,
        "2751": 143,
        "2752": 162,
        "2753": 62,
        "2754": 242,
        "2755": 54,
        "2756": 196,
        "2757": 33,
        "2758": 33,
        "2759": 110,
        "2760": 173,
        "2761": 220,
        "2762": 14,
        "2763": 26,
        "2764": 254,
        "2765": 131,
        "2766": 110,
        "2767": 25,
        "2768": 2,
        "2769": 98,
        "2770": 60,
        "2771": 85,
        "2772": 115,
        "2773": 197,
        "2774": 3,
        "2775": 88,
        "2776": 122,
        "2777": 48,
        "2778": 124,
        "2779": 220,
        "2780": 87,
        "2781": 4,
        "2782": 167,
        "2783": 101,
        "2784": 25,
        "2785": 140,
        "2786": 207,
        "2787": 250,
        "2788": 64,
        "2789": 122,
        "2790": 59,
        "2791": 56,
        "2792": 149,
        "2793": 72,
        "2794": 100,
        "2795": 100,
        "2796": 198,
        "2797": 205,
        "2798": 172,
        "2799": 140,
        "2800": 207,
        "2801": 19,
        "2802": 228,
        "2803": 113,
        "2804": 156,
        "2805": 74,
        "2806": 140,
        "2807": 203,
        "2808": 228,
        "2809": 36,
        "2810": 236,
        "2811": 172,
        "2812": 96,
        "2813": 85,
        "2814": 218,
        "2815": 159,
        "2816": 167,
        "2817": 235,
        "2818": 221,
        "2819": 36,
        "2820": 49,
        "2821": 77,
        "2822": 161,
        "2823": 56,
        "2824": 124,
        "2825": 62,
        "2826": 91,
        "2827": 137,
        "2828": 219,
        "2829": 225,
        "2830": 205,
        "2831": 234,
        "2832": 12,
        "2833": 60,
        "2834": 54,
        "2835": 247,
        "2836": 210,
        "2837": 56,
        "2838": 186,
        "2839": 215,
        "2840": 35,
        "2841": 30,
        "2842": 41,
        "2843": 240,
        "2844": 202,
        "2845": 241,
        "2846": 112,
        "2847": 16,
        "2848": 163,
        "2849": 37,
        "2850": 162,
        "2851": 132,
        "2852": 128,
        "2853": 140,
        "2854": 253,
        "2855": 69,
        "2856": 216,
        "2857": 105,
        "2858": 156,
        "2859": 65,
        "2860": 205,
        "2861": 242,
        "2862": 202,
        "2863": 135,
        "2864": 234,
        "2865": 161,
        "2866": 38,
        "2867": 190,
        "2868": 22,
        "2869": 139,
        "2870": 218,
        "2871": 183,
        "2872": 179,
        "2873": 247,
        "2874": 75,
        "2875": 254,
        "2876": 16,
        "2877": 68,
        "2878": 109,
        "2879": 105,
        "2880": 75,
        "2881": 76,
        "2882": 67,
        "2883": 118,
        "2884": 240,
        "2885": 93,
        "2886": 63,
        "2887": 97,
        "2888": 18,
        "2889": 128,
        "2890": 224,
        "2891": 209,
        "2892": 237,
        "2893": 76,
        "2894": 127,
        "2895": 48,
        "2896": 223,
        "2897": 96,
        "2898": 44,
        "2899": 71,
        "2900": 231,
        "2901": 173,
        "2902": 160,
        "2903": 189,
        "2904": 240,
        "2905": 10,
        "2906": 160,
        "2907": 237,
        "2908": 141,
        "2909": 187,
        "2910": 195,
        "2911": 207,
        "2912": 81,
        "2913": 44,
        "2914": 85,
        "2915": 95,
        "2916": 142,
        "2917": 93,
        "2918": 135,
        "2919": 209,
        "2920": 226,
        "2921": 177,
        "2922": 64,
        "2923": 104,
        "2924": 143,
        "2925": 12,
        "2926": 117,
        "2927": 194,
        "2928": 234,
        "2929": 3,
        "2930": 173,
        "2931": 11,
        "2932": 0,
        "2933": 5,
        "2934": 47,
        "2935": 215,
        "2936": 5,
        "2937": 160,
        "2938": 14,
        "2939": 25,
        "2940": 187,
        "2941": 2,
        "2942": 224,
        "2943": 235,
        "2944": 16,
        "2945": 90,
        "2946": 182,
        "2947": 64,
        "2948": 33,
        "2949": 113,
        "2950": 221,
        "2951": 31,
        "2952": 196,
        "2953": 216,
        "2954": 115,
        "2955": 12,
        "2956": 240,
        "2957": 110,
        "2958": 36,
        "2959": 83,
        "2960": 191,
        "2961": 59,
        "2962": 167,
        "2963": 207,
        "2964": 202,
        "2965": 252,
        "2966": 232,
        "2967": 43,
        "2968": 17,
        "2969": 48,
        "2970": 131,
        "2971": 51,
        "2972": 124,
        "2973": 160,
        "2974": 190,
        "2975": 79,
        "2976": 57,
        "2977": 158,
        "2978": 163,
        "2979": 252,
        "2980": 129,
        "2981": 247,
        "2982": 160,
        "2983": 54,
        "2984": 210,
        "2985": 75,
        "2986": 80,
        "2987": 125,
        "2988": 18,
        "2989": 7,
        "2990": 145,
        "2991": 211,
        "2992": 190,
        "2993": 133,
        "2994": 246,
        "2995": 36,
        "2996": 236,
        "2997": 171,
        "2998": 110,
        "2999": 129,
        "3000": 58,
        "3001": 47,
        "3002": 158,
        "3003": 43,
        "3004": 18,
        "3005": 141,
        "3006": 204,
        "3007": 49,
        "3008": 146,
        "3009": 29,
        "3010": 44,
        "3011": 174,
        "3012": 9,
        "3013": 50,
        "3014": 82,
        "3015": 12,
        "3016": 82,
        "3017": 9,
        "3018": 134,
        "3019": 107,
        "3020": 216,
        "3021": 209,
        "3022": 86,
        "3023": 198,
        "3024": 228,
        "3025": 123,
        "3026": 28,
        "3027": 134,
        "3028": 30,
        "3029": 222,
        "3030": 251,
        "3031": 163,
        "3032": 251,
        "3033": 50,
        "3034": 8,
        "3035": 170,
        "3036": 35,
        "3037": 76,
        "3038": 86,
        "3039": 37,
        "3040": 190,
        "3041": 25,
        "3042": 110,
        "3043": 52,
        "3044": 142,
        "3045": 83,
        "3046": 164,
        "3047": 80,
        "3048": 123,
        "3049": 100,
        "3050": 163,
        "3051": 230,
        "3052": 36,
        "3053": 159,
        "3054": 107,
        "3055": 158,
        "3056": 19,
        "3057": 121,
        "3058": 115,
        "3059": 40,
        "3060": 85,
        "3061": 120,
        "3062": 66,
        "3063": 80,
        "3064": 38,
        "3065": 43,
        "3066": 161,
        "3067": 86,
        "3068": 31,
        "3069": 60,
        "3070": 233,
        "3071": 64,
        "3072": 206,
        "3073": 53,
        "3074": 74,
        "3075": 151,
        "3076": 206,
        "3077": 248,
        "3078": 211,
        "3079": 7,
        "3080": 25,
        "3081": 33,
        "3082": 36,
        "3083": 209,
        "3084": 166,
        "3085": 111,
        "3086": 150,
        "3087": 199,
        "3088": 37,
        "3089": 250,
        "3090": 245,
        "3091": 158,
        "3092": 229,
        "3093": 9,
        "3094": 82,
        "3095": 206,
        "3096": 151,
        "3097": 47,
        "3098": 81,
        "3099": 6,
        "3100": 217,
        "3101": 160,
        "3102": 38,
        "3103": 201,
        "3104": 235,
        "3105": 59,
        "3106": 135,
        "3107": 132,
        "3108": 80,
        "3109": 101,
        "3110": 187,
        "3111": 164,
        "3112": 77,
        "3113": 1,
        "3114": 115,
        "3115": 75,
        "3116": 18,
        "3117": 130,
        "3118": 94,
        "3119": 47,
        "3120": 104,
        "3121": 155,
        "3122": 240,
        "3123": 12,
        "3124": 208,
        "3125": 238,
        "3126": 171,
        "3127": 166,
        "3128": 43,
        "3129": 216,
        "3130": 214,
        "3131": 160,
        "3132": 249,
        "3133": 37,
        "3134": 166,
        "3135": 168,
        "3136": 13,
        "3137": 120,
        "3138": 159,
        "3139": 43,
        "3140": 249,
        "3141": 169,
        "3142": 180,
        "3143": 237,
        "3144": 203,
        "3145": 92,
        "3146": 24,
        "3147": 167,
        "3148": 18,
        "3149": 222,
        "3150": 43,
        "3151": 248,
        "3152": 205,
        "3153": 61,
        "3154": 68,
        "3155": 111,
        "3156": 255,
        "3157": 237,
        "3158": 136,
        "3159": 100,
        "3160": 115,
        "3161": 151,
        "3162": 219,
        "3163": 218,
        "3164": 53,
        "3165": 98,
        "3166": 17,
        "3167": 194,
        "3168": 185,
        "3169": 139,
        "3170": 157,
        "3171": 221,
        "3172": 220,
        "3173": 84,
        "3174": 85,
        "3175": 119,
        "3176": 138,
        "3177": 160,
        "3178": 199,
        "3179": 140,
        "3180": 16,
        "3181": 161,
        "3182": 234,
        "3183": 89,
        "3184": 121,
        "3185": 186,
        "3186": 126,
        "3187": 215,
        "3188": 166,
        "3189": 162,
        "3190": 142,
        "3191": 174,
        "3192": 159,
        "3193": 74,
        "3194": 248,
        "3195": 63,
        "3196": 116,
        "3197": 55,
        "3198": 7,
        "3199": 147,
        "3200": 213,
        "3201": 115,
        "3202": 135,
        "3203": 103,
        "3204": 232,
        "3205": 36,
        "3206": 168,
        "3207": 138,
        "3208": 135,
        "3209": 129,
        "3210": 160,
        "3211": 3,
        "3212": 74,
        "3213": 67,
        "3214": 104,
        "3215": 191,
        "3216": 30,
        "3217": 125,
        "3218": 52,
        "3219": 182,
        "3220": 206,
        "3221": 6,
        "3222": 213,
        "3223": 208,
        "3224": 140,
        "3225": 144,
        "3226": 70,
        "3227": 152,
        "3228": 172,
        "3229": 36,
        "3230": 166,
        "3231": 55,
        "3232": 211,
        "3233": 181,
        "3234": 80,
        "3235": 190,
        "3236": 25,
        "3237": 134,
        "3238": 182,
        "3239": 93,
        "3240": 35,
        "3241": 241,
        "3242": 91,
        "3243": 55,
        "3244": 147,
        "3245": 189,
        "3246": 62,
        "3247": 138,
        "3248": 34,
        "3249": 13,
        "3250": 97,
        "3251": 60,
        "3252": 42,
        "3253": 244,
        "3254": 59,
        "3255": 230,
        "3256": 86,
        "3257": 67,
        "3258": 47,
        "3259": 185,
        "3260": 47,
        "3261": 209,
        "3262": 92,
        "3263": 180,
        "3264": 123,
        "3265": 174,
        "3266": 161,
        "3267": 97,
        "3268": 170,
        "3269": 61,
        "3270": 65,
        "3271": 248,
        "3272": 181,
        "3273": 172,
        "3274": 124,
        "3275": 55,
        "3276": 27,
        "3277": 167,
        "3278": 210,
        "3279": 110,
        "3280": 27,
        "3281": 223,
        "3282": 247,
        "3283": 178,
        "3284": 246,
        "3285": 88,
        "3286": 35,
        "3287": 159,
        "3288": 52,
        "3289": 32,
        "3290": 231,
        "3291": 38,
        "3292": 92,
        "3293": 180,
        "3294": 195,
        "3295": 218,
        "3296": 56,
        "3297": 4,
        "3298": 64,
        "3299": 140,
        "3300": 130,
        "3301": 6,
        "3302": 172,
        "3303": 64,
        "3304": 113,
        "3305": 241,
        "3306": 176,
        "3307": 74,
        "3308": 198,
        "3309": 147,
        "3310": 150,
        "3311": 21,
        "3312": 77,
        "3313": 248,
        "3314": 166,
        "3315": 22,
        "3316": 236,
        "3317": 21,
        "3318": 178,
        "3319": 171,
        "3320": 104,
        "3321": 96,
        "3322": 102,
        "3323": 4,
        "3324": 146,
        "3325": 120,
        "3326": 75,
        "3327": 189,
        "3328": 154,
        "3329": 205,
        "3330": 192,
        "3331": 69,
        "3332": 36,
        "3333": 237,
        "3334": 224,
        "3335": 193,
        "3336": 151,
        "3337": 202,
        "3338": 114,
        "3339": 74,
        "3340": 164,
        "3341": 55,
        "3342": 158,
        "3343": 195,
        "3344": 255,
        "3345": 161,
        "3346": 150,
        "3347": 104,
        "3348": 19,
        "3349": 248,
        "3350": 47,
        "3351": 1,
        "3352": 229,
        "3353": 74,
        "3354": 195,
        "3355": 157,
        "3356": 223,
        "3357": 87,
        "3358": 76,
        "3359": 141,
        "3360": 178,
        "3361": 210,
        "3362": 41,
        "3363": 231,
        "3364": 128,
        "3365": 2,
        "3366": 21,
        "3367": 255,
        "3368": 238,
        "3369": 133,
        "3370": 225,
        "3371": 226,
        "3372": 7,
        "3373": 72,
        "3374": 236,
        "3375": 108,
        "3376": 28,
        "3377": 205,
        "3378": 202,
        "3379": 194,
        "3380": 173,
        "3381": 234,
        "3382": 204,
        "3383": 63,
        "3384": 69,
        "3385": 196,
        "3386": 212,
        "3387": 142,
        "3388": 100,
        "3389": 243,
        "3390": 169,
        "3391": 152,
        "3392": 112,
        "3393": 77,
        "3394": 9,
        "3395": 210,
        "3396": 169,
        "3397": 122,
        "3398": 84,
        "3399": 50,
        "3400": 112,
        "3401": 178,
        "3402": 17,
        "3403": 125,
        "3404": 205,
        "3405": 136,
        "3406": 160,
        "3407": 204,
        "3408": 212,
        "3409": 254,
        "3410": 228,
        "3411": 98,
        "3412": 57,
        "3413": 77,
        "3414": 86,
        "3415": 240,
        "3416": 170,
        "3417": 10,
        "3418": 242,
        "3419": 229,
        "3420": 63,
        "3421": 249,
        "3422": 186,
        "3423": 226,
        "3424": 42,
        "3425": 195,
        "3426": 216,
        "3427": 4,
        "3428": 60,
        "3429": 235,
        "3430": 213,
        "3431": 177,
        "3432": 165,
        "3433": 72,
        "3434": 232,
        "3435": 119,
        "3436": 17,
        "3437": 34,
        "3438": 100,
        "3439": 72,
        "3440": 52,
        "3441": 80,
        "3442": 1,
        "3443": 138,
        "3444": 83,
        "3445": 59,
        "3446": 125,
        "3447": 219,
        "3448": 4,
        "3449": 247,
        "3450": 38,
        "3451": 244,
        "3452": 227,
        "3453": 40,
        "3454": 137,
        "3455": 84,
        "3456": 37,
        "3457": 88,
        "3458": 96,
        "3459": 42,
        "3460": 133,
        "3461": 15,
        "3462": 5,
        "3463": 96,
        "3464": 35,
        "3465": 228,
        "3466": 128,
        "3467": 217,
        "3468": 138,
        "3469": 207,
        "3470": 231,
        "3471": 129,
        "3472": 254,
        "3473": 206,
        "3474": 244,
        "3475": 101,
        "3476": 104,
        "3477": 250,
        "3478": 128,
        "3479": 61,
        "3480": 79,
        "3481": 0,
        "3482": 150,
        "3483": 34,
        "3484": 125,
        "3485": 94,
        "3486": 145,
        "3487": 36,
        "3488": 202,
        "3489": 113,
        "3490": 19,
        "3491": 164,
        "3492": 22,
        "3493": 31,
        "3494": 239,
        "3495": 246,
        "3496": 246,
        "3497": 58,
        "3498": 92,
        "3499": 192,
        "3500": 174,
        "3501": 40,
        "3502": 8,
        "3503": 72,
        "3504": 73,
        "3505": 151,
        "3506": 70,
        "3507": 149,
        "3508": 32,
        "3509": 73,
        "3510": 135,
        "3511": 167,
        "3512": 20,
        "3513": 78,
        "3514": 184,
        "3515": 88,
        "3516": 94,
        "3517": 141,
        "3518": 159,
        "3519": 220,
        "3520": 222,
        "3521": 172,
        "3522": 144,
        "3523": 98,
        "3524": 4,
        "3525": 225,
        "3526": 190,
        "3527": 84,
        "3528": 125,
        "3529": 175,
        "3530": 133,
        "3531": 92,
        "3532": 27,
        "3533": 143,
        "3534": 170,
        "3535": 102,
        "3536": 166,
        "3537": 157,
        "3538": 197,
        "3539": 160,
        "3540": 180,
        "3541": 245,
        "3542": 54,
        "3543": 126,
        "3544": 50,
        "3545": 220,
        "3546": 72,
        "3547": 111,
        "3548": 85,
        "3549": 13,
        "3550": 195,
        "3551": 245,
        "3552": 249,
        "3553": 1,
        "3554": 59,
        "3555": 185,
        "3556": 190,
        "3557": 122,
        "3558": 37,
        "3559": 192,
        "3560": 165,
        "3561": 39,
        "3562": 152,
        "3563": 169,
        "3564": 240,
        "3565": 209,
        "3566": 168,
        "3567": 198,
        "3568": 80,
        "3569": 141,
        "3570": 137,
        "3571": 99,
        "3572": 73,
        "3573": 10,
        "3574": 159,
        "3575": 0,
        "3576": 137,
        "3577": 124,
        "3578": 12,
        "3579": 100,
        "3580": 218,
        "3581": 214,
        "3582": 106,
        "3583": 19,
        "3584": 99,
        "3585": 249,
        "3586": 223,
        "3587": 172,
        "3588": 52,
        "3589": 47,
        "3590": 165,
        "3591": 224,
        "3592": 165,
        "3593": 94,
        "3594": 88,
        "3595": 64,
        "3596": 111,
        "3597": 30,
        "3598": 250,
        "3599": 227,
        "3600": 92,
        "3601": 116,
        "3602": 238,
        "3603": 191,
        "3604": 111,
        "3605": 182,
        "3606": 137,
        "3607": 105,
        "3608": 116,
        "3609": 41,
        "3610": 36,
        "3611": 13,
        "3612": 235,
        "3613": 147,
        "3614": 29,
        "3615": 84,
        "3616": 110,
        "3617": 42,
        "3618": 101,
        "3619": 108,
        "3620": 180,
        "3621": 16,
        "3622": 42,
        "3623": 74,
        "3624": 210,
        "3625": 207,
        "3626": 96,
        "3627": 188,
        "3628": 5,
        "3629": 206,
        "3630": 116,
        "3631": 128,
        "3632": 231,
        "3633": 15,
        "3634": 155,
        "3635": 199,
        "3636": 75,
        "3637": 142,
        "3638": 123,
        "3639": 166,
        "3640": 40,
        "3641": 18,
        "3642": 92,
        "3643": 105,
        "3644": 48,
        "3645": 184,
        "3646": 97,
        "3647": 44,
        "3648": 13,
        "3649": 87,
        "3650": 101,
        "3651": 25,
        "3652": 23,
        "3653": 129,
        "3654": 230,
        "3655": 77,
        "3656": 2,
        "3657": 55,
        "3658": 146,
        "3659": 143,
        "3660": 103,
        "3661": 66,
        "3662": 200,
        "3663": 17,
        "3664": 223,
        "3665": 111,
        "3666": 154,
        "3667": 198,
        "3668": 24,
        "3669": 109,
        "3670": 205,
        "3671": 79,
        "3672": 40,
        "3673": 142,
        "3674": 151,
        "3675": 252,
        "3676": 60,
        "3677": 139,
        "3678": 129,
        "3679": 96,
        "3680": 49,
        "3681": 26,
        "3682": 227,
        "3683": 52,
        "3684": 163,
        "3685": 49,
        "3686": 57,
        "3687": 126,
        "3688": 149,
        "3689": 123,
        "3690": 157,
        "3691": 94,
        "3692": 197,
        "3693": 125,
        "3694": 199,
        "3695": 170,
        "3696": 90,
        "3697": 68,
        "3698": 177,
        "3699": 23,
        "3700": 126,
        "3701": 75,
        "3702": 129,
        "3703": 233,
        "3704": 104,
        "3705": 105,
        "3706": 45,
        "3707": 75,
        "3708": 157,
        "3709": 115,
        "3710": 147,
        "3711": 180,
        "3712": 4,
        "3713": 57,
        "3714": 184,
        "3715": 206,
        "3716": 17,
        "3717": 221,
        "3718": 246,
        "3719": 78,
        "3720": 213,
        "3721": 233,
        "3722": 81,
        "3723": 43,
        "3724": 27,
        "3725": 135,
        "3726": 55,
        "3727": 226,
        "3728": 118,
        "3729": 29,
        "3730": 198,
        "3731": 30,
        "3732": 207,
        "3733": 225,
        "3734": 104,
        "3735": 212,
        "3736": 6,
        "3737": 204,
        "3738": 73,
        "3739": 109,
        "3740": 76,
        "3741": 219,
        "3742": 70,
        "3743": 253,
        "3744": 201,
        "3745": 180,
        "3746": 13,
        "3747": 142,
        "3748": 200,
        "3749": 9,
        "3750": 201,
        "3751": 56,
        "3752": 238,
        "3753": 33,
        "3754": 103,
        "3755": 1,
        "3756": 155,
        "3757": 195,
        "3758": 142,
        "3759": 166,
        "3760": 187,
        "3761": 213,
        "3762": 250,
        "3763": 146,
        "3764": 179,
        "3765": 88,
        "3766": 33,
        "3767": 124,
        "3768": 5,
        "3769": 125,
        "3770": 43,
        "3771": 14,
        "3772": 237,
        "3773": 220,
        "3774": 177,
        "3775": 20,
        "3776": 76,
        "3777": 28,
        "3778": 244,
        "3779": 169,
        "3780": 244,
        "3781": 51,
        "3782": 45,
        "3783": 93,
        "3784": 216,
        "3785": 248,
        "3786": 146,
        "3787": 55,
        "3788": 140,
        "3789": 103,
        "3790": 103,
        "3791": 139,
        "3792": 126,
        "3793": 33,
        "3794": 188,
        "3795": 201,
        "3796": 255,
        "3797": 188,
        "3798": 235,
        "3799": 148,
        "3800": 238,
        "3801": 121,
        "3802": 66,
        "3803": 32,
        "3804": 127,
        "3805": 223,
        "3806": 58,
        "3807": 244,
        "3808": 217,
        "3809": 81,
        "3810": 87,
        "3811": 31,
        "3812": 248,
        "3813": 74,
        "3814": 41,
        "3815": 101,
        "3816": 239,
        "3817": 69,
        "3818": 191,
        "3819": 68,
        "3820": 149,
        "3821": 112,
        "3822": 242,
        "3823": 6,
        "3824": 108,
        "3825": 110,
        "3826": 255,
        "3827": 136,
        "3828": 221,
        "3829": 10,
        "3830": 170,
        "3831": 180,
        "3832": 62,
        "3833": 116,
        "3834": 58,
        "3835": 119,
        "3836": 61,
        "3837": 186,
        "3838": 165,
        "3839": 175,
        "3840": 144,
        "3841": 234,
        "3842": 71,
        "3843": 21,
        "3844": 99,
        "3845": 54,
        "3846": 19,
        "3847": 250,
        "3848": 83,
        "3849": 142,
        "3850": 223,
        "3851": 107,
        "3852": 46,
        "3853": 116,
        "3854": 79,
        "3855": 207,
        "3856": 102,
        "3857": 4,
        "3858": 30,
        "3859": 110,
        "3860": 79,
        "3861": 30,
        "3862": 83,
        "3863": 115,
        "3864": 7,
        "3865": 59,
        "3866": 109,
        "3867": 223,
        "3868": 255,
        "3869": 99,
        "3870": 147,
        "3871": 221,
        "3872": 145,
        "3873": 125,
        "3874": 200,
        "3875": 118,
        "3876": 81,
        "3877": 125,
        "3878": 123,
        "3879": 201,
        "3880": 52,
        "3881": 209,
        "3882": 54,
        "3883": 70,
        "3884": 25,
        "3885": 209,
        "3886": 66,
        "3887": 175,
        "3888": 116,
        "3889": 53,
        "3890": 157,
        "3891": 118,
        "3892": 157,
        "3893": 101,
        "3894": 137,
        "3895": 73,
        "3896": 84,
        "3897": 98,
        "3898": 30,
        "3899": 173,
        "3900": 235,
        "3901": 69,
        "3902": 204,
        "3903": 131,
        "3904": 245,
        "3905": 196,
        "3906": 108,
        "3907": 56,
        "3908": 91,
        "3909": 235,
        "3910": 209,
        "3911": 76,
        "3912": 25,
        "3913": 219,
        "3914": 175,
        "3915": 47,
        "3916": 183,
        "3917": 239,
        "3918": 69,
        "3919": 179,
        "3920": 151,
        "3921": 215,
        "3922": 120,
        "3923": 22,
        "3924": 227,
        "3925": 82,
        "3926": 133,
        "3927": 34,
        "3928": 161,
        "3929": 179,
        "3930": 121,
        "3931": 170,
        "3932": 250,
        "3933": 145,
        "3934": 171,
        "3935": 61,
        "3936": 32,
        "3937": 31,
        "3938": 109,
        "3939": 232,
        "3940": 84,
        "3941": 140,
        "3942": 17,
        "3943": 83,
        "3944": 207,
        "3945": 251,
        "3946": 185,
        "3947": 169,
        "3948": 228,
        "3949": 1,
        "3950": 21,
        "3951": 87,
        "3952": 202,
        "3953": 58,
        "3954": 167,
        "3955": 155,
        "3956": 82,
        "3957": 9,
        "3958": 5,
        "3959": 214,
        "3960": 118,
        "3961": 68,
        "3962": 253,
        "3963": 204,
        "3964": 219,
        "3965": 94,
        "3966": 158,
        "3967": 197,
        "3968": 217,
        "3969": 142,
        "3970": 5,
        "3971": 162,
        "3972": 12,
        "3973": 138,
        "3974": 0,
        "3975": 133,
        "3976": 182,
        "3977": 230,
        "3978": 169,
        "3979": 220,
        "3980": 188,
        "3981": 112,
        "3982": 11,
        "3983": 103,
        "3984": 110,
        "3985": 46,
        "3986": 159,
        "3987": 244,
        "3988": 196,
        "3989": 56,
        "3990": 56,
        "3991": 210,
        "3992": 250,
        "3993": 228,
        "3994": 56,
        "3995": 209,
        "3996": 45,
        "3997": 146,
        "3998": 2,
        "3999": 35,
        "4000": 101,
        "4001": 151,
        "4002": 12,
        "4003": 14,
        "4004": 242,
        "4005": 100,
        "4006": 81,
        "4007": 228,
        "4008": 202,
        "4009": 112,
        "4010": 145,
        "4011": 134,
        "4012": 126,
        "4013": 111,
        "4014": 65,
        "4015": 11,
        "4016": 224,
        "4017": 139,
        "4018": 155,
        "4019": 68,
        "4020": 111,
        "4021": 45,
        "4022": 95,
        "4023": 15,
        "4024": 49,
        "4025": 22,
        "4026": 240,
        "4027": 204,
        "4028": 19,
        "4029": 227,
        "4030": 16,
        "4031": 118,
        "4032": 225,
        "4033": 231,
        "4034": 4,
        "4035": 175,
        "4036": 240,
        "4037": 68,
        "4038": 224,
        "4039": 49,
        "4040": 31,
        "4041": 234,
        "4042": 195,
        "4043": 34,
        "4044": 92,
        "4045": 56,
        "4046": 51,
        "4047": 131,
        "4048": 194,
        "4049": 78,
        "4050": 115,
        "4051": 24,
        "4052": 212,
        "4053": 202,
        "4054": 167,
        "4055": 166,
        "4056": 18,
        "4057": 16,
        "4058": 81,
        "4059": 140,
        "4060": 135,
        "4061": 255,
        "4062": 128,
        "4063": 75,
        "4064": 185,
        "4065": 136,
        "4066": 81,
        "4067": 243,
        "4068": 59,
        "4069": 35,
        "4070": 143,
        "4071": 48,
        "4072": 127,
        "4073": 164,
        "4074": 30,
        "4075": 20,
        "4076": 52,
        "4077": 101,
        "4078": 45,
        "4079": 92,
        "4080": 88,
        "4081": 214,
        "4082": 11,
        "4083": 72,
        "4084": 235,
        "4085": 117,
        "4086": 86,
        "4087": 239,
        "4088": 231,
        "4089": 96,
        "4090": 51,
        "4091": 3,
        "4092": 231,
        "4093": 4,
        "4094": 234,
        "4095": 243,
        "4096": 28,
        "4097": 187,
        "4098": 124,
        "4099": 38,
        "4100": 120,
        "4101": 88,
        "4102": 206,
        "4103": 6,
        "4104": 199,
        "4105": 205,
        "4106": 185,
        "4107": 37,
        "4108": 238,
        "4109": 219,
        "4110": 199,
        "4111": 127,
        "4112": 224,
        "4113": 228,
        "4114": 85,
        "4115": 72,
        "4116": 195,
        "4117": 65,
        "4118": 250,
        "4119": 41,
        "4120": 54,
        "4121": 14,
        "4122": 42,
        "4123": 206,
        "4124": 80,
        "4125": 166,
        "4126": 6,
        "4127": 26,
        "4128": 213,
        "4129": 52,
        "4130": 187,
        "4131": 59,
        "4132": 180,
        "4133": 75,
        "4134": 184,
        "4135": 209,
        "4136": 2,
        "4137": 40,
        "4138": 14,
        "4139": 174,
        "4140": 190,
        "4141": 183,
        "4142": 44,
        "4143": 248,
        "4144": 11,
        "4145": 171,
        "4146": 19,
        "4147": 42,
        "4148": 194,
        "4149": 227,
        "4150": 140,
        "4151": 137,
        "4152": 146,
        "4153": 9,
        "4154": 73,
        "4155": 35,
        "4156": 237,
        "4157": 205,
        "4158": 9,
        "4159": 182,
        "4160": 193,
        "4161": 253,
        "4162": 85,
        "4163": 161,
        "4164": 90,
        "4165": 26,
        "4166": 246,
        "4167": 65,
        "4168": 244,
        "4169": 167,
        "4170": 219,
        "4171": 57,
        "4172": 56,
        "4173": 72,
        "4174": 179,
        "4175": 55,
        "4176": 166,
        "4177": 192,
        "4178": 100,
        "4179": 163,
        "4180": 110,
        "4181": 143,
        "4182": 159,
        "4183": 255,
        "4184": 158,
        "4185": 207,
        "4186": 13,
        "4187": 14,
        "4188": 73,
        "4189": 27,
        "4190": 102,
        "4191": 117,
        "4192": 176,
        "4193": 121,
        "4194": 19,
        "4195": 127,
        "4196": 55,
        "4197": 251,
        "4198": 124,
        "4199": 137,
        "4200": 158,
        "4201": 122,
        "4202": 185,
        "4203": 9,
        "4204": 55,
        "4205": 53,
        "4206": 33,
        "4207": 170,
        "4208": 131,
        "4209": 12,
        "4210": 99,
        "4211": 135,
        "4212": 192,
        "4213": 46,
        "4214": 137,
        "4215": 83,
        "4216": 242,
        "4217": 40,
        "4218": 71,
        "4219": 132,
        "4220": 72,
        "4221": 50,
        "4222": 137,
        "4223": 46,
        "4224": 205,
        "4225": 46,
        "4226": 127,
        "4227": 170,
        "4228": 180,
        "4229": 249,
        "4230": 105,
        "4231": 145,
        "4232": 179,
        "4233": 235,
        "4234": 127,
        "4235": 192,
        "4236": 155,
        "4237": 53,
        "4238": 141,
        "4239": 3,
        "4240": 151,
        "4241": 243,
        "4242": 31,
        "4243": 132,
        "4244": 48,
        "4245": 4,
        "4246": 185,
        "4247": 224,
        "4248": 208,
        "4249": 27,
        "4250": 41,
        "4251": 76,
        "4252": 99,
        "4253": 45,
        "4254": 230,
        "4255": 125,
        "4256": 167,
        "4257": 64,
        "4258": 181,
        "4259": 138,
        "4260": 200,
        "4261": 76,
        "4262": 252,
        "4263": 229,
        "4264": 126,
        "4265": 30,
        "4266": 166,
        "4267": 134,
        "4268": 69,
        "4269": 251,
        "4270": 211,
        "4271": 141,
        "4272": 212,
        "4273": 92,
        "4274": 249,
        "4275": 18,
        "4276": 231,
        "4277": 180,
        "4278": 237,
        "4279": 66,
        "4280": 159,
        "4281": 180,
        "4282": 44,
        "4283": 89,
        "4284": 41,
        "4285": 75,
        "4286": 82,
        "4287": 252,
        "4288": 252,
        "4289": 251,
        "4290": 45,
        "4291": 29,
        "4292": 32,
        "4293": 157,
        "4294": 34,
        "4295": 181,
        "4296": 55,
        "4297": 37,
        "4298": 197,
        "4299": 132,
        "4300": 185,
        "4301": 66,
        "4302": 255,
        "4303": 190,
        "4304": 93,
        "4305": 153,
        "4306": 93,
        "4307": 93,
        "4308": 38,
        "4309": 12,
        "4310": 166,
        "4311": 17,
        "4312": 17,
        "4313": 208,
        "4314": 234,
        "4315": 108,
        "4316": 94,
        "4317": 146,
        "4318": 147,
        "4319": 1,
        "4320": 172,
        "4321": 251,
        "4322": 188,
        "4323": 14,
        "4324": 253,
        "4325": 38,
        "4326": 160,
        "4327": 125,
        "4328": 130,
        "4329": 67,
        "4330": 38,
        "4331": 104,
        "4332": 68,
        "4333": 157,
        "4334": 0,
        "4335": 131,
        "4336": 121,
        "4337": 206,
        "4338": 95,
        "4339": 164,
        "4340": 22,
        "4341": 59,
        "4342": 21,
        "4343": 41,
        "4344": 11,
        "4345": 114,
        "4346": 91,
        "4347": 165,
        "4348": 127,
        "4349": 210,
        "4350": 103,
        "4351": 137,
        "4352": 73,
        "4353": 136,
        "4354": 60,
        "4355": 37,
        "4356": 125,
        "4357": 193,
        "4358": 208,
        "4359": 132,
        "4360": 21,
        "4361": 119,
        "4362": 251,
        "4363": 26,
        "4364": 176,
        "4365": 35,
        "4366": 28,
        "4367": 121,
        "4368": 139,
        "4369": 93,
        "4370": 151,
        "4371": 186,
        "4372": 129,
        "4373": 38,
        "4374": 47,
        "4375": 236,
        "4376": 59,
        "4377": 242,
        "4378": 128,
        "4379": 165,
        "4380": 106,
        "4381": 76,
        "4382": 80,
        "4383": 117,
        "4384": 1,
        "4385": 19,
        "4386": 62,
        "4387": 249,
        "4388": 145,
        "4389": 93,
        "4390": 36,
        "4391": 185,
        "4392": 28,
        "4393": 187,
        "4394": 3,
        "4395": 96,
        "4396": 211,
        "4397": 158,
        "4398": 84,
        "4399": 210,
        "4400": 81,
        "4401": 90,
        "4402": 107,
        "4403": 133,
        "4404": 152,
        "4405": 244,
        "4406": 132,
        "4407": 69,
        "4408": 145,
        "4409": 246,
        "4410": 251,
        "4411": 123,
        "4412": 25,
        "4413": 48,
        "4414": 200,
        "4415": 181,
        "4416": 70,
        "4417": 223,
        "4418": 255,
        "4419": 225,
        "4420": 56,
        "4421": 197,
        "4422": 30,
        "4423": 195,
        "4424": 111,
        "4425": 250,
        "4426": 4,
        "4427": 125,
        "4428": 28,
        "4429": 219,
        "4430": 204,
        "4431": 64,
        "4432": 203,
        "4433": 176,
        "4434": 5,
        "4435": 62,
        "4436": 131,
        "4437": 116,
        "4438": 197,
        "4439": 175,
        "4440": 55,
        "4441": 97,
        "4442": 148,
        "4443": 132,
        "4444": 250,
        "4445": 14,
        "4446": 135,
        "4447": 116,
        "4448": 250,
        "4449": 45,
        "4450": 147,
        "4451": 134,
        "4452": 177,
        "4453": 50,
        "4454": 47,
        "4455": 212,
        "4456": 160,
        "4457": 247,
        "4458": 23,
        "4459": 169,
        "4460": 186,
        "4461": 26,
        "4462": 156,
        "4463": 117,
        "4464": 72,
        "4465": 89,
        "4466": 185,
        "4467": 115,
        "4468": 189,
        "4469": 215,
        "4470": 44,
        "4471": 155,
        "4472": 186,
        "4473": 211,
        "4474": 146,
        "4475": 204,
        "4476": 202,
        "4477": 21,
        "4478": 249,
        "4479": 182,
        "4480": 197,
        "4481": 148,
        "4482": 80,
        "4483": 214,
        "4484": 3,
        "4485": 46,
        "4486": 246,
        "4487": 245,
        "4488": 63,
        "4489": 189,
        "4490": 205,
        "4491": 64,
        "4492": 57,
        "4493": 68,
        "4494": 247,
        "4495": 80,
        "4496": 161,
        "4497": 54,
        "4498": 109,
        "4499": 143,
        "4500": 216,
        "4501": 103,
        "4502": 75,
        "4503": 187,
        "4504": 212,
        "4505": 194,
        "4506": 197,
        "4507": 169,
        "4508": 182,
        "4509": 2,
        "4510": 78,
        "4511": 147,
        "4512": 179,
        "4513": 219,
        "4514": 226,
        "4515": 182,
        "4516": 107,
        "4517": 95,
        "4518": 46,
        "4519": 156,
        "4520": 46,
        "4521": 231,
        "4522": 125,
        "4523": 18,
        "4524": 157,
        "4525": 180,
        "4526": 191,
        "4527": 252,
        "4528": 27,
        "4529": 210,
        "4530": 106,
        "4531": 148,
        "4532": 180,
        "4533": 183,
        "4534": 147,
        "4535": 163,
        "4536": 225,
        "4537": 85,
        "4538": 137,
        "4539": 97,
        "4540": 180,
        "4541": 170,
        "4542": 212,
        "4543": 99,
        "4544": 8,
        "4545": 213,
        "4546": 93,
        "4547": 39,
        "4548": 219,
        "4549": 185,
        "4550": 21,
        "4551": 233,
        "4552": 124,
        "4553": 138,
        "4554": 238,
        "4555": 201,
        "4556": 11,
        "4557": 63,
        "4558": 63,
        "4559": 254,
        "4560": 112,
        "4561": 161,
        "4562": 204,
        "4563": 198,
        "4564": 101,
        "4565": 5,
        "4566": 80,
        "4567": 142,
        "4568": 177,
        "4569": 43,
        "4570": 1,
        "4571": 55,
        "4572": 175,
        "4573": 208,
        "4574": 107,
        "4575": 181,
        "4576": 77,
        "4577": 4,
        "4578": 170,
        "4579": 228,
        "4580": 100,
        "4581": 117,
        "4582": 191,
        "4583": 34,
        "4584": 96,
        "4585": 35,
        "4586": 2,
        "4587": 200,
        "4588": 249,
        "4589": 120,
        "4590": 221,
        "4591": 188,
        "4592": 93,
        "4593": 76,
        "4594": 79,
        "4595": 193,
        "4596": 134,
        "4597": 37,
        "4598": 148,
        "4599": 160,
        "4600": 227,
        "4601": 232,
        "4602": 178,
        "4603": 191,
        "4604": 125,
        "4605": 245,
        "4606": 175,
        "4607": 243,
        "4608": 39,
        "4609": 233,
        "4610": 224,
        "4611": 135,
        "4612": 36,
        "4613": 171,
        "4614": 84,
        "4615": 255,
        "4616": 181,
        "4617": 21,
        "4618": 235,
        "4619": 52,
        "4620": 151,
        "4621": 73,
        "4622": 99,
        "4623": 255,
        "4624": 55,
        "4625": 27,
        "4626": 9,
        "4627": 13,
        "4628": 209,
        "4629": 145,
        "4630": 232,
        "4631": 104,
        "4632": 151,
        "4633": 133,
        "4634": 65,
        "4635": 24,
        "4636": 82,
        "4637": 231,
        "4638": 35,
        "4639": 160,
        "4640": 9,
        "4641": 80,
        "4642": 43,
        "4643": 58,
        "4644": 113,
        "4645": 145,
        "4646": 45,
        "4647": 168,
        "4648": 34,
        "4649": 127,
        "4650": 225,
        "4651": 128,
        "4652": 45,
        "4653": 189,
        "4654": 94,
        "4655": 82,
        "4656": 97,
        "4657": 94,
        "4658": 173,
        "4659": 114,
        "4660": 13,
        "4661": 213,
        "4662": 91,
        "4663": 52,
        "4664": 212,
        "4665": 98,
        "4666": 160,
        "4667": 101,
        "4668": 119,
        "4669": 235,
        "4670": 91,
        "4671": 33,
        "4672": 189,
        "4673": 195,
        "4674": 118,
        "4675": 236,
        "4676": 226,
        "4677": 78,
        "4678": 25,
        "4679": 120,
        "4680": 29,
        "4681": 21,
        "4682": 88,
        "4683": 190,
        "4684": 216,
        "4685": 144,
        "4686": 127,
        "4687": 164,
        "4688": 67,
        "4689": 187,
        "4690": 44,
        "4691": 171,
        "4692": 191,
        "4693": 70,
        "4694": 160,
        "4695": 206,
        "4696": 166,
        "4697": 75,
        "4698": 120,
        "4699": 132,
        "4700": 146,
        "4701": 104,
        "4702": 136,
        "4703": 46,
        "4704": 136,
        "4705": 89,
        "4706": 108,
        "4707": 1,
        "4708": 162,
        "4709": 160,
        "4710": 49,
        "4711": 197,
        "4712": 109,
        "4713": 214,
        "4714": 69,
        "4715": 44,
        "4716": 82,
        "4717": 38,
        "4718": 18,
        "4719": 98,
        "4720": 82,
        "4721": 216,
        "4722": 246,
        "4723": 186,
        "4724": 37,
        "4725": 27,
        "4726": 238,
        "4727": 195,
        "4728": 102,
        "4729": 186,
        "4730": 162,
        "4731": 254,
        "4732": 200,
        "4733": 185,
        "4734": 252,
        "4735": 149,
        "4736": 161,
        "4737": 166,
        "4738": 66,
        "4739": 146,
        "4740": 185,
        "4741": 141,
        "4742": 60,
        "4743": 70,
        "4744": 98,
        "4745": 14,
        "4746": 36,
        "4747": 146,
        "4748": 7,
        "4749": 5,
        "4750": 125,
        "4751": 67,
        "4752": 97,
        "4753": 198,
        "4754": 245,
        "4755": 66,
        "4756": 89,
        "4757": 106,
        "4758": 50,
        "4759": 70,
        "4760": 248,
        "4761": 222,
        "4762": 107,
        "4763": 77,
        "4764": 71,
        "4765": 167,
        "4766": 159,
        "4767": 243,
        "4768": 111,
        "4769": 189,
        "4770": 120,
        "4771": 138,
        "4772": 86,
        "4773": 34,
        "4774": 237,
        "4775": 72,
        "4776": 243,
        "4777": 45,
        "4778": 113,
        "4779": 238,
        "4780": 159,
        "4781": 1,
        "4782": 117,
        "4783": 153,
        "4784": 86,
        "4785": 9,
        "4786": 210,
        "4787": 199,
        "4788": 194,
        "4789": 48,
        "4790": 250,
        "4791": 60,
        "4792": 214,
        "4793": 58,
        "4794": 126,
        "4795": 149,
        "4796": 231,
        "4797": 176,
        "4798": 196,
        "4799": 44,
        "4800": 61,
        "4801": 232,
        "4802": 42,
        "4803": 227,
        "4804": 221,
        "4805": 138,
        "4806": 208,
        "4807": 75,
        "4808": 88,
        "4809": 173,
        "4810": 254,
        "4811": 29,
        "4812": 65,
        "4813": 236,
        "4814": 119,
        "4815": 159,
        "4816": 207,
        "4817": 112,
        "4818": 152,
        "4819": 155,
        "4820": 233,
        "4821": 91,
        "4822": 233,
        "4823": 116,
        "4824": 15,
        "4825": 29,
        "4826": 63,
        "4827": 33,
        "4828": 68,
        "4829": 137,
        "4830": 254,
        "4831": 143,
        "4832": 56,
        "4833": 10,
        "4834": 37,
        "4835": 120,
        "4836": 233,
        "4837": 106,
        "4838": 28,
        "4839": 106,
        "4840": 91,
        "4841": 236,
        "4842": 224,
        "4843": 207,
        "4844": 79,
        "4845": 238,
        "4846": 194,
        "4847": 41,
        "4848": 74,
        "4849": 112,
        "4850": 162,
        "4851": 132,
        "4852": 240,
        "4853": 67,
        "4854": 168,
        "4855": 64,
        "4856": 165,
        "4857": 84,
        "4858": 89,
        "4859": 91,
        "4860": 106,
        "4861": 190,
        "4862": 183,
        "4863": 2,
        "4864": 1,
        "4865": 71,
        "4866": 61,
        "4867": 29,
        "4868": 153,
        "4869": 2,
        "4870": 108,
        "4871": 175,
        "4872": 234,
        "4873": 102,
        "4874": 29,
        "4875": 101,
        "4876": 144,
        "4877": 129,
        "4878": 186,
        "4879": 137,
        "4880": 133,
        "4881": 197,
        "4882": 115,
        "4883": 210,
        "4884": 222,
        "4885": 38,
        "4886": 245,
        "4887": 205,
        "4888": 111,
        "4889": 194,
        "4890": 51,
        "4891": 233,
        "4892": 96,
        "4893": 240,
        "4894": 237,
        "4895": 10,
        "4896": 137,
        "4897": 215,
        "4898": 173,
        "4899": 90,
        "4900": 253,
        "4901": 144,
        "4902": 163,
        "4903": 119,
        "4904": 107,
        "4905": 81,
        "4906": 162,
        "4907": 29,
        "4908": 114,
        "4909": 84,
        "4910": 154,
        "4911": 26,
        "4912": 143,
        "4913": 36,
        "4914": 131,
        "4915": 111,
        "4916": 212,
        "4917": 209,
        "4918": 247,
        "4919": 164,
        "4920": 89,
        "4921": 61,
        "4922": 160,
        "4923": 223,
        "4924": 81,
        "4925": 171,
        "4926": 241,
        "4927": 87,
        "4928": 124,
        "4929": 133,
        "4930": 11,
        "4931": 61,
        "4932": 137,
        "4933": 199,
        "4934": 213,
        "4935": 57,
        "4936": 14,
        "4937": 234,
        "4938": 234,
        "4939": 205,
        "4940": 49,
        "4941": 102,
        "4942": 91,
        "4943": 134,
        "4944": 58,
        "4945": 11,
        "4946": 148,
        "4947": 18,
        "4948": 193,
        "4949": 215,
        "4950": 132,
        "4951": 40,
        "4952": 242,
        "4953": 69,
        "4954": 170,
        "4955": 187,
        "4956": 81,
        "4957": 83,
        "4958": 57,
        "4959": 84,
        "4960": 156,
        "4961": 9,
        "4962": 110,
        "4963": 126,
        "4964": 98,
        "4965": 172,
        "4966": 208,
        "4967": 108,
        "4968": 199,
        "4969": 39,
        "4970": 60,
        "4971": 93,
        "4972": 213,
        "4973": 155,
        "4974": 184,
        "4975": 49,
        "4976": 113,
        "4977": 65,
        "4978": 20,
        "4979": 133,
        "4980": 249,
        "4981": 172,
        "4982": 236,
        "4983": 249,
        "4984": 22,
        "4985": 8,
        "4986": 2,
        "4987": 77,
        "4988": 69,
        "4989": 234,
        "4990": 135,
        "4991": 109,
        "4992": 11,
        "4993": 133,
        "4994": 157,
        "4995": 43,
        "4996": 90,
        "4997": 144,
        "4998": 136,
        "4999": 35,
        "5000": 148,
        "5001": 155,
        "5002": 139,
        "5003": 49,
        "5004": 3,
        "5005": 112,
        "5006": 113,
        "5007": 30,
        "5008": 173,
        "5009": 180,
        "5010": 170,
        "5011": 32,
        "5012": 234,
        "5013": 165,
        "5014": 134,
        "5015": 193,
        "5016": 8,
        "5017": 26,
        "5018": 180,
        "5019": 196,
        "5020": 156,
        "5021": 34,
        "5022": 91,
        "5023": 24,
        "5024": 68,
        "5025": 54,
        "5026": 48,
        "5027": 197,
        "5028": 133,
        "5029": 114,
        "5030": 89,
        "5031": 211,
        "5032": 79,
        "5033": 156,
        "5034": 57,
        "5035": 123,
        "5036": 122,
        "5037": 207,
        "5038": 203,
        "5039": 26,
        "5040": 119,
        "5041": 26,
        "5042": 171,
        "5043": 226,
        "5044": 205,
        "5045": 42,
        "5046": 211,
        "5047": 9,
        "5048": 153,
        "5049": 52,
        "5050": 90,
        "5051": 17,
        "5052": 166,
        "5053": 32,
        "5054": 91,
        "5055": 51,
        "5056": 212,
        "5057": 80,
        "5058": 112,
        "5059": 124,
        "5060": 140,
        "5061": 247,
        "5062": 249,
        "5063": 171,
        "5064": 133,
        "5065": 50,
        "5066": 47,
        "5067": 109,
        "5068": 249,
        "5069": 183,
        "5070": 238,
        "5071": 5,
        "5072": 35,
        "5073": 107,
        "5074": 32,
        "5075": 47,
        "5076": 225,
        "5077": 0,
        "5078": 65,
        "5079": 163,
        "5080": 88,
        "5081": 165,
        "5082": 216,
        "5083": 107,
        "5084": 94,
        "5085": 216,
        "5086": 68,
        "5087": 249,
        "5088": 88,
        "5089": 127,
        "5090": 200,
        "5091": 250,
        "5092": 11,
        "5093": 231,
        "5094": 79,
        "5095": 244,
        "5096": 192,
        "5097": 86,
        "5098": 130,
        "5099": 185,
        "5100": 56,
        "5101": 94,
        "5102": 79,
        "5103": 70,
        "5104": 228,
        "5105": 178,
        "5106": 41,
        "5107": 46,
        "5108": 206,
        "5109": 30,
        "5110": 49,
        "5111": 91,
        "5112": 232,
        "5113": 168,
        "5114": 203,
        "5115": 102,
        "5116": 29,
        "5117": 182,
        "5118": 147,
        "5119": 94,
        "5120": 75,
        "5121": 217,
        "5122": 189,
        "5123": 35,
        "5124": 14,
        "5125": 77,
        "5126": 255,
        "5127": 139,
        "5128": 76,
        "5129": 31,
        "5130": 179,
        "5131": 0,
        "5132": 40,
        "5133": 102,
        "5134": 13,
        "5135": 62,
        "5136": 170,
        "5137": 238,
        "5138": 231,
        "5139": 226,
        "5140": 179,
        "5141": 222,
        "5142": 114,
        "5143": 137,
        "5144": 146,
        "5145": 10,
        "5146": 112,
        "5147": 61,
        "5148": 36,
        "5149": 51,
        "5150": 63,
        "5151": 190,
        "5152": 179,
        "5153": 45,
        "5154": 253,
        "5155": 201,
        "5156": 12,
        "5157": 46,
        "5158": 43,
        "5159": 197,
        "5160": 128,
        "5161": 147,
        "5162": 206,
        "5163": 193,
        "5164": 248,
        "5165": 4,
        "5166": 48,
        "5167": 7,
        "5168": 130,
        "5169": 135,
        "5170": 0,
        "5171": 44,
        "5172": 168,
        "5173": 35,
        "5174": 237,
        "5175": 11,
        "5176": 56,
        "5177": 11,
        "5178": 21,
        "5179": 2,
        "5180": 225,
        "5181": 69,
        "5182": 130,
        "5183": 138,
        "5184": 116,
        "5185": 20,
        "5186": 79,
        "5187": 254,
        "5188": 55,
        "5189": 154,
        "5190": 159,
        "5191": 56,
        "5192": 48,
        "5193": 225,
        "5194": 6,
        "5195": 65,
        "5196": 60,
        "5197": 245,
        "5198": 226,
        "5199": 131,
        "5200": 68,
        "5201": 2,
        "5202": 137,
        "5203": 244,
        "5204": 166,
        "5205": 145,
        "5206": 65,
        "5207": 240,
        "5208": 186,
        "5209": 216,
        "5210": 182,
        "5211": 103,
        "5212": 170,
        "5213": 250,
        "5214": 240,
        "5215": 193,
        "5216": 156,
        "5217": 179,
        "5218": 22,
        "5219": 112,
        "5220": 94,
        "5221": 211,
        "5222": 128,
        "5223": 26,
        "5224": 242,
        "5225": 70,
        "5226": 254,
        "5227": 236,
        "5228": 219,
        "5229": 15,
        "5230": 48,
        "5231": 198,
        "5232": 165,
        "5233": 172,
        "5234": 234,
        "5235": 5,
        "5236": 193,
        "5237": 178,
        "5238": 202,
        "5239": 4,
        "5240": 86,
        "5241": 81,
        "5242": 205,
        "5243": 20,
        "5244": 172,
        "5245": 222,
        "5246": 140,
        "5247": 0,
        "5248": 74,
        "5249": 35,
        "5250": 117,
        "5251": 32,
        "5252": 28,
        "5253": 182,
        "5254": 57,
        "5255": 242,
        "5256": 152,
        "5257": 157,
        "5258": 231,
        "5259": 221,
        "5260": 78,
        "5261": 105,
        "5262": 59,
        "5263": 184,
        "5264": 194,
        "5265": 175,
        "5266": 212,
        "5267": 20,
        "5268": 79,
        "5269": 140,
        "5270": 160,
        "5271": 244,
        "5272": 10,
        "5273": 186,
        "5274": 161,
        "5275": 34,
        "5276": 136,
        "5277": 76,
        "5278": 128,
        "5279": 25,
        "5280": 114,
        "5281": 117,
        "5282": 202,
        "5283": 255,
        "5284": 203,
        "5285": 65,
        "5286": 49,
        "5287": 12,
        "5288": 18,
        "5289": 73,
        "5290": 8,
        "5291": 72,
        "5292": 35,
        "5293": 57,
        "5294": 123,
        "5295": 5,
        "5296": 212,
        "5297": 64,
        "5298": 140,
        "5299": 216,
        "5300": 191,
        "5301": 169,
        "5302": 108,
        "5303": 38,
        "5304": 82,
        "5305": 253,
        "5306": 197,
        "5307": 91,
        "5308": 169,
        "5309": 101,
        "5310": 52,
        "5311": 229,
        "5312": 200,
        "5313": 93,
        "5314": 166,
        "5315": 46,
        "5316": 244,
        "5317": 9,
        "5318": 212,
        "5319": 85,
        "5320": 238,
        "5321": 174,
        "5322": 229,
        "5323": 101,
        "5324": 177,
        "5325": 111,
        "5326": 122,
        "5327": 102,
        "5328": 56,
        "5329": 176,
        "5330": 27,
        "5331": 60,
        "5332": 138,
        "5333": 146,
        "5334": 129,
        "5335": 226,
        "5336": 10,
        "5337": 233,
        "5338": 45,
        "5339": 108,
        "5340": 177,
        "5341": 196,
        "5342": 196,
        "5343": 184,
        "5344": 85,
        "5345": 192,
        "5346": 238,
        "5347": 225,
        "5348": 80,
        "5349": 31,
        "5350": 3,
        "5351": 18,
        "5352": 15,
        "5353": 33,
        "5354": 185,
        "5355": 75,
        "5356": 42,
        "5357": 170,
        "5358": 171,
        "5359": 24,
        "5360": 227,
        "5361": 11,
        "5362": 157,
        "5363": 235,
        "5364": 56,
        "5365": 223,
        "5366": 103,
        "5367": 79,
        "5368": 224,
        "5369": 253,
        "5370": 9,
        "5371": 113,
        "5372": 80,
        "5373": 55,
        "5374": 81,
        "5375": 245,
        "5376": 205,
        "5377": 194,
        "5378": 225,
        "5379": 172,
        "5380": 219,
        "5381": 145,
        "5382": 246,
        "5383": 114,
        "5384": 146,
        "5385": 21,
        "5386": 78,
        "5387": 14,
        "5388": 125,
        "5389": 31,
        "5390": 7,
        "5391": 36,
        "5392": 110,
        "5393": 68,
        "5394": 129,
        "5395": 39,
        "5396": 74,
        "5397": 67,
        "5398": 183,
        "5399": 215,
        "5400": 41,
        "5401": 39,
        "5402": 238,
        "5403": 3,
        "5404": 139,
        "5405": 127,
        "5406": 84,
        "5407": 4,
        "5408": 175,
        "5409": 148,
        "5410": 14,
        "5411": 30,
        "5412": 62,
        "5413": 208,
        "5414": 98,
        "5415": 242,
        "5416": 23,
        "5417": 203,
        "5418": 207,
        "5419": 96,
        "5420": 190,
        "5421": 16,
        "5422": 146,
        "5423": 105,
        "5424": 96,
        "5425": 88,
        "5426": 22,
        "5427": 10,
        "5428": 249,
        "5429": 145,
        "5430": 102,
        "5431": 31,
        "5432": 56,
        "5433": 179,
        "5434": 51,
        "5435": 60,
        "5436": 249,
        "5437": 58,
        "5438": 228,
        "5439": 176,
        "5440": 141,
        "5441": 191,
        "5442": 107,
        "5443": 22,
        "5444": 189,
        "5445": 6,
        "5446": 134,
        "5447": 97,
        "5448": 37,
        "5449": 62,
        "5450": 161,
        "5451": 83,
        "5452": 81,
        "5453": 111,
        "5454": 225,
        "5455": 147,
        "5456": 88,
        "5457": 129,
        "5458": 177,
        "5459": 160,
        "5460": 154,
        "5461": 179,
        "5462": 211,
        "5463": 54,
        "5464": 190,
        "5465": 103,
        "5466": 121,
        "5467": 57,
        "5468": 67,
        "5469": 153,
        "5470": 194,
        "5471": 67,
        "5472": 26,
        "5473": 81,
        "5474": 68,
        "5475": 192,
        "5476": 0,
        "5477": 210,
        "5478": 209,
        "5479": 184,
        "5480": 182,
        "5481": 46,
        "5482": 53,
        "5483": 83,
        "5484": 175,
        "5485": 190,
        "5486": 92,
        "5487": 234,
        "5488": 147,
        "5489": 38,
        "5490": 13,
        "5491": 12,
        "5492": 24,
        "5493": 18,
        "5494": 66,
        "5495": 77,
        "5496": 86,
        "5497": 89,
        "5498": 5,
        "5499": 158,
        "5500": 215,
        "5501": 161,
        "5502": 79,
        "5503": 146,
        "5504": 220,
        "5505": 65,
        "5506": 61,
        "5507": 14,
        "5508": 128,
        "5509": 22,
        "5510": 74,
        "5511": 233,
        "5512": 62,
        "5513": 145,
        "5514": 53,
        "5515": 69,
        "5516": 160,
        "5517": 131,
        "5518": 161,
        "5519": 134,
        "5520": 246,
        "5521": 10,
        "5522": 241,
        "5523": 131,
        "5524": 55,
        "5525": 136,
        "5526": 30,
        "5527": 111,
        "5528": 21,
        "5529": 213,
        "5530": 222,
        "5531": 82,
        "5532": 47,
        "5533": 64,
        "5534": 20,
        "5535": 255,
        "5536": 206,
        "5537": 13,
        "5538": 206,
        "5539": 115,
        "5540": 250,
        "5541": 132,
        "5542": 81,
        "5543": 38,
        "5544": 166,
        "5545": 45,
        "5546": 192,
        "5547": 20,
        "5548": 173,
        "5549": 165,
        "5550": 152,
        "5551": 241,
        "5552": 128,
        "5553": 202,
        "5554": 72,
        "5555": 158,
        "5556": 117,
        "5557": 27,
        "5558": 155,
        "5559": 147,
        "5560": 38,
        "5561": 209,
        "5562": 14,
        "5563": 25,
        "5564": 66,
        "5565": 153,
        "5566": 81,
        "5567": 215,
        "5568": 54,
        "5569": 59,
        "5570": 36,
        "5571": 130,
        "5572": 238,
        "5573": 110,
        "5574": 41,
        "5575": 223,
        "5576": 76,
        "5577": 80,
        "5578": 148,
        "5579": 164,
        "5580": 83,
        "5581": 10,
        "5582": 227,
        "5583": 47,
        "5584": 233,
        "5585": 55,
        "5586": 190,
        "5587": 120,
        "5588": 190,
        "5589": 62,
        "5590": 50,
        "5591": 180,
        "5592": 166,
        "5593": 83,
        "5594": 26,
        "5595": 22,
        "5596": 128,
        "5597": 217,
        "5598": 57,
        "5599": 122,
        "5600": 210,
        "5601": 199,
        "5602": 219,
        "5603": 234,
        "5604": 185,
        "5605": 149,
        "5606": 222,
        "5607": 199,
        "5608": 71,
        "5609": 245,
        "5610": 95,
        "5611": 33,
        "5612": 237,
        "5613": 51,
        "5614": 160,
        "5615": 4,
        "5616": 172,
        "5617": 113,
        "5618": 72,
        "5619": 88,
        "5620": 99,
        "5621": 79,
        "5622": 29,
        "5623": 184,
        "5624": 154,
        "5625": 0,
        "5626": 115,
        "5627": 227,
        "5628": 28,
        "5629": 134,
        "5630": 226,
        "5631": 148,
        "5632": 40,
        "5633": 133,
        "5634": 230,
        "5635": 227,
        "5636": 118,
        "5637": 111,
        "5638": 71,
        "5639": 29,
        "5640": 0,
        "5641": 246,
        "5642": 247,
        "5643": 146,
        "5644": 104,
        "5645": 154,
        "5646": 255,
        "5647": 185,
        "5648": 38,
        "5649": 158,
        "5650": 175,
        "5651": 28,
        "5652": 165,
        "5653": 224,
        "5654": 110,
        "5655": 246,
        "5656": 10,
        "5657": 140,
        "5658": 219,
        "5659": 62,
        "5660": 153,
        "5661": 191,
        "5662": 138,
        "5663": 133,
        "5664": 13,
        "5665": 160,
        "5666": 92,
        "5667": 155,
        "5668": 112,
        "5669": 89,
        "5670": 227,
        "5671": 250,
        "5672": 17,
        "5673": 1,
        "5674": 33,
        "5675": 39,
        "5676": 64,
        "5677": 90,
        "5678": 157,
        "5679": 211,
        "5680": 225,
        "5681": 26,
        "5682": 251,
        "5683": 131,
        "5684": 71,
        "5685": 132,
        "5686": 251,
        "5687": 106,
        "5688": 192,
        "5689": 176,
        "5690": 70,
        "5691": 11,
        "5692": 146,
        "5693": 224,
        "5694": 184,
        "5695": 200,
        "5696": 44,
        "5697": 251,
        "5698": 113,
        "5699": 73,
        "5700": 239,
        "5701": 91,
        "5702": 5,
        "5703": 236,
        "5704": 50,
        "5705": 30,
        "5706": 243,
        "5707": 26,
        "5708": 41,
        "5709": 148,
        "5710": 11,
        "5711": 6,
        "5712": 242,
        "5713": 189,
        "5714": 94,
        "5715": 13,
        "5716": 232,
        "5717": 158,
        "5718": 26,
        "5719": 187,
        "5720": 141,
        "5721": 243,
        "5722": 12,
        "5723": 223,
        "5724": 74,
        "5725": 138,
        "5726": 131,
        "5727": 86,
        "5728": 161,
        "5729": 97,
        "5730": 147,
        "5731": 115,
        "5732": 226,
        "5733": 136,
        "5734": 113,
        "5735": 10,
        "5736": 172,
        "5737": 41,
        "5738": 47,
        "5739": 179,
        "5740": 55,
        "5741": 69,
        "5742": 85,
        "5743": 97,
        "5744": 235,
        "5745": 59,
        "5746": 221,
        "5747": 136,
        "5748": 229,
        "5749": 159,
        "5750": 150,
        "5751": 184,
        "5752": 95,
        "5753": 229,
        "5754": 28,
        "5755": 75,
        "5756": 236,
        "5757": 95,
        "5758": 43,
        "5759": 213,
        "5760": 119,
        "5761": 9,
        "5762": 32,
        "5763": 195,
        "5764": 244,
        "5765": 25,
        "5766": 238,
        "5767": 17,
        "5768": 203,
        "5769": 207,
        "5770": 16,
        "5771": 111,
        "5772": 173,
        "5773": 53,
        "5774": 96,
        "5775": 148,
        "5776": 25,
        "5777": 76,
        "5778": 237,
        "5779": 101,
        "5780": 166,
        "5781": 61,
        "5782": 74,
        "5783": 179,
        "5784": 110,
        "5785": 195,
        "5786": 30,
        "5787": 54,
        "5788": 144,
        "5789": 166,
        "5790": 105,
        "5791": 206,
        "5792": 154,
        "5793": 253,
        "5794": 155,
        "5795": 18,
        "5796": 127,
        "5797": 225,
        "5798": 135,
        "5799": 232,
        "5800": 5,
        "5801": 203,
        "5802": 129,
        "5803": 26,
        "5804": 60,
        "5805": 11,
        "5806": 252,
        "5807": 121,
        "5808": 38,
        "5809": 253,
        "5810": 211,
        "5811": 154,
        "5812": 87,
        "5813": 51,
        "5814": 224,
        "5815": 69,
        "5816": 169,
        "5817": 166,
        "5818": 234,
        "5819": 78,
        "5820": 192,
        "5821": 34,
        "5822": 205,
        "5823": 88,
        "5824": 38,
        "5825": 13,
        "5826": 111,
        "5827": 78,
        "5828": 230,
        "5829": 64,
        "5830": 148,
        "5831": 89,
        "5832": 67,
        "5833": 123,
        "5834": 50,
        "5835": 65,
        "5836": 35,
        "5837": 251,
        "5838": 167,
        "5839": 127,
        "5840": 2,
        "5841": 167,
        "5842": 188,
        "5843": 8,
        "5844": 170,
        "5845": 3,
        "5846": 242,
        "5847": 61,
        "5848": 124,
        "5849": 76,
        "5850": 110,
        "5851": 141,
        "5852": 151,
        "5853": 48,
        "5854": 182,
        "5855": 75,
        "5856": 249,
        "5857": 212,
        "5858": 34,
        "5859": 122,
        "5860": 252,
        "5861": 25,
        "5862": 201,
        "5863": 143,
        "5864": 196,
        "5865": 109,
        "5866": 160,
        "5867": 186,
        "5868": 27,
        "5869": 233,
        "5870": 222,
        "5871": 165,
        "5872": 251,
        "5873": 188,
        "5874": 11,
        "5875": 45,
        "5876": 186,
        "5877": 212,
        "5878": 226,
        "5879": 247,
        "5880": 34,
        "5881": 18,
        "5882": 28,
        "5883": 59,
        "5884": 78,
        "5885": 120,
        "5886": 93,
        "5887": 57,
        "5888": 0,
        "5889": 164,
        "5890": 140,
        "5891": 186,
        "5892": 109,
        "5893": 186,
        "5894": 44,
        "5895": 59,
        "5896": 125,
        "5897": 52,
        "5898": 54,
        "5899": 129,
        "5900": 26,
        "5901": 175,
        "5902": 251,
        "5903": 63,
        "5904": 250,
        "5905": 82,
        "5906": 209,
        "5907": 160,
        "5908": 223,
        "5909": 136,
        "5910": 19,
        "5911": 128,
        "5912": 128,
        "5913": 128,
        "5914": 123,
        "5915": 178,
        "5916": 184,
        "5917": 230,
        "5918": 146,
        "5919": 8,
        "5920": 58,
        "5921": 239,
        "5922": 62,
        "5923": 53,
        "5924": 242,
        "5925": 222,
        "5926": 38,
        "5927": 171,
        "5928": 165,
        "5929": 245,
        "5930": 130,
        "5931": 236,
        "5932": 172,
        "5933": 250,
        "5934": 255,
        "5935": 30,
        "5936": 106,
        "5937": 220,
        "5938": 21,
        "5939": 150,
        "5940": 139,
        "5941": 101,
        "5942": 29,
        "5943": 83,
        "5944": 184,
        "5945": 121,
        "5946": 212,
        "5947": 122,
        "5948": 98,
        "5949": 59,
        "5950": 7,
        "5951": 94,
        "5952": 130,
        "5953": 90,
        "5954": 91,
        "5955": 242,
        "5956": 147,
        "5957": 244,
        "5958": 29,
        "5959": 226,
        "5960": 144,
        "5961": 166,
        "5962": 236,
        "5963": 210,
        "5964": 39,
        "5965": 100,
        "5966": 12,
        "5967": 246,
        "5968": 122,
        "5969": 201,
        "5970": 14,
        "5971": 245,
        "5972": 80,
        "5973": 138,
        "5974": 31,
        "5975": 33,
        "5976": 24,
        "5977": 81,
        "5978": 10,
        "5979": 23,
        "5980": 137,
        "5981": 213,
        "5982": 126,
        "5983": 108,
        "5984": 88,
        "5985": 198,
        "5986": 215,
        "5987": 33,
        "5988": 47,
        "5989": 225,
        "5990": 22,
        "5991": 158,
        "5992": 23,
        "5993": 161,
        "5994": 40,
        "5995": 109,
        "5996": 139,
        "5997": 27,
        "5998": 195,
        "5999": 54,
        "6000": 116,
        "6001": 165,
        "6002": 6,
        "6003": 208,
        "6004": 62,
        "6005": 199,
        "6006": 173,
        "6007": 137,
        "6008": 107,
        "6009": 199,
        "6010": 47,
        "6011": 244,
        "6012": 200,
        "6013": 116,
        "6014": 43,
        "6015": 32,
        "6016": 176,
        "6017": 184,
        "6018": 127,
        "6019": 150,
        "6020": 148,
        "6021": 1,
        "6022": 60,
        "6023": 88,
        "6024": 66,
        "6025": 33,
        "6026": 188,
        "6027": 0,
        "6028": 216,
        "6029": 178,
        "6030": 186,
        "6031": 241,
        "6032": 177,
        "6033": 163,
        "6034": 194,
        "6035": 183,
        "6036": 159,
        "6037": 79,
        "6038": 155,
        "6039": 29,
        "6040": 134,
        "6041": 230,
        "6042": 130,
        "6043": 158,
        "6044": 110,
        "6045": 224,
        "6046": 65,
        "6047": 243,
        "6048": 155,
        "6049": 221,
        "6050": 56,
        "6051": 48,
        "6052": 251,
        "6053": 255,
        "6054": 142,
        "6055": 247,
        "6056": 114,
        "6057": 227,
        "6058": 227,
        "6059": 119,
        "6060": 202,
        "6061": 29,
        "6062": 114,
        "6063": 74,
        "6064": 37,
        "6065": 125,
        "6066": 125,
        "6067": 162,
        "6068": 156,
        "6069": 191,
        "6070": 135,
        "6071": 158,
        "6072": 216,
        "6073": 131,
        "6074": 69,
        "6075": 25,
        "6076": 215,
        "6077": 6,
        "6078": 6,
        "6079": 144,
        "6080": 103,
        "6081": 156,
        "6082": 199,
        "6083": 105,
        "6084": 130,
        "6085": 112,
        "6086": 106,
        "6087": 110,
        "6088": 54,
        "6089": 10,
        "6090": 182,
        "6091": 230,
        "6092": 4,
        "6093": 41,
        "6094": 28,
        "6095": 14,
        "6096": 196,
        "6097": 103,
        "6098": 38,
        "6099": 46,
        "6100": 36,
        "6101": 37,
        "6102": 66,
        "6103": 124,
        "6104": 19,
        "6105": 110,
        "6106": 167,
        "6107": 195,
        "6108": 11,
        "6109": 104,
        "6110": 130,
        "6111": 135,
        "6112": 57,
        "6113": 205,
        "6114": 171,
        "6115": 135,
        "6116": 62,
        "6117": 120,
        "6118": 154,
        "6119": 175,
        "6120": 102,
        "6121": 214,
        "6122": 239,
        "6123": 140,
        "6124": 243,
        "6125": 48,
        "6126": 117,
        "6127": 27,
        "6128": 190,
        "6129": 137,
        "6130": 179,
        "6131": 107,
        "6132": 98,
        "6133": 3,
        "6134": 172,
        "6135": 183,
        "6136": 60,
        "6137": 167,
        "6138": 107,
        "6139": 27,
        "6140": 230,
        "6141": 4,
        "6142": 238,
        "6143": 80,
        "6144": 141,
        "6145": 38,
        "6146": 173,
        "6147": 118,
        "6148": 167,
        "6149": 85,
        "6150": 153,
        "6151": 126,
        "6152": 102,
        "6153": 6,
        "6154": 153,
        "6155": 129,
        "6156": 114,
        "6157": 18,
        "6158": 209,
        "6159": 230,
        "6160": 235,
        "6161": 174,
        "6162": 210,
        "6163": 44,
        "6164": 2,
        "6165": 249,
        "6166": 198,
        "6167": 166,
        "6168": 173,
        "6169": 114,
        "6170": 129,
        "6171": 184,
        "6172": 87,
        "6173": 182,
        "6174": 106,
        "6175": 182,
        "6176": 88,
        "6177": 171,
        "6178": 142,
        "6179": 121,
        "6180": 118,
        "6181": 7,
        "6182": 15,
        "6183": 201,
        "6184": 16,
        "6185": 65,
        "6186": 1,
        "6187": 91,
        "6188": 116,
        "6189": 249,
        "6190": 208,
        "6191": 254,
        "6192": 186,
        "6193": 164,
        "6194": 255,
        "6195": 202,
        "6196": 171,
        "6197": 65,
        "6198": 222,
        "6199": 194,
        "6200": 201,
        "6201": 96,
        "6202": 228,
        "6203": 24,
        "6204": 173,
        "6205": 147,
        "6206": 64,
        "6207": 194,
        "6208": 149,
        "6209": 134,
        "6210": 30,
        "6211": 107,
        "6212": 50,
        "6213": 143,
        "6214": 189,
        "6215": 188,
        "6216": 140,
        "6217": 162,
        "6218": 38,
        "6219": 232,
        "6220": 49,
        "6221": 94,
        "6222": 133,
        "6223": 48,
        "6224": 47,
        "6225": 167,
        "6226": 20,
        "6227": 186,
        "6228": 179,
        "6229": 227,
        "6230": 39,
        "6231": 199,
        "6232": 158,
        "6233": 104,
        "6234": 223,
        "6235": 16,
        "6236": 197,
        "6237": 234,
        "6238": 39,
        "6239": 204,
        "6240": 212,
        "6241": 132,
        "6242": 180,
        "6243": 38,
        "6244": 127,
        "6245": 44,
        "6246": 161,
        "6247": 118,
        "6248": 196,
        "6249": 57,
        "6250": 79,
        "6251": 242,
        "6252": 248,
        "6253": 199,
        "6254": 173,
        "6255": 99,
        "6256": 44,
        "6257": 185,
        "6258": 215,
        "6259": 178,
        "6260": 236,
        "6261": 54,
        "6262": 53,
        "6263": 104,
        "6264": 33,
        "6265": 25,
        "6266": 162,
        "6267": 245,
        "6268": 192,
        "6269": 46,
        "6270": 97,
        "6271": 86,
        "6272": 48,
        "6273": 84,
        "6274": 246,
        "6275": 117,
        "6276": 9,
        "6277": 255,
        "6278": 205,
        "6279": 82,
        "6280": 49,
        "6281": 159,
        "6282": 166,
        "6283": 55,
        "6284": 26,
        "6285": 218,
        "6286": 219,
        "6287": 110,
        "6288": 77,
        "6289": 207,
        "6290": 142,
        "6291": 129,
        "6292": 82,
        "6293": 161,
        "6294": 177,
        "6295": 167,
        "6296": 209,
        "6297": 159,
        "6298": 167,
        "6299": 43,
        "6300": 45,
        "6301": 214,
        "6302": 81,
        "6303": 147,
        "6304": 208,
        "6305": 193,
        "6306": 127,
        "6307": 1,
        "6308": 97,
        "6309": 97,
        "6310": 51,
        "6311": 69,
        "6312": 187,
        "6313": 208,
        "6314": 230,
        "6315": 31,
        "6316": 191,
        "6317": 29,
        "6318": 105,
        "6319": 93,
        "6320": 208,
        "6321": 113,
        "6322": 120,
        "6323": 86,
        "6324": 242,
        "6325": 67,
        "6326": 255,
        "6327": 2,
        "6328": 62,
        "6329": 245,
        "6330": 107,
        "6331": 66,
        "6332": 181,
        "6333": 66,
        "6334": 25,
        "6335": 235,
        "6336": 124,
        "6337": 79,
        "6338": 254,
        "6339": 217,
        "6340": 15,
        "6341": 46,
        "6342": 72,
        "6343": 111,
        "6344": 205,
        "6345": 109,
        "6346": 141,
        "6347": 254,
        "6348": 156,
        "6349": 90,
        "6350": 192,
        "6351": 127,
        "6352": 50,
        "6353": 72,
        "6354": 165,
        "6355": 164,
        "6356": 26,
        "6357": 72,
        "6358": 247,
        "6359": 117,
        "6360": 245,
        "6361": 64,
        "6362": 252,
        "6363": 129,
        "6364": 56,
        "6365": 137,
        "6366": 224,
        "6367": 201,
        "6368": 197,
        "6369": 197,
        "6370": 7,
        "6371": 68,
        "6372": 254,
        "6373": 16,
        "6374": 86,
        "6375": 221,
        "6376": 67,
        "6377": 114,
        "6378": 2,
        "6379": 170,
        "6380": 112,
        "6381": 134,
        "6382": 188,
        "6383": 215,
        "6384": 153,
        "6385": 210,
        "6386": 110,
        "6387": 230,
        "6388": 106,
        "6389": 182,
        "6390": 12,
        "6391": 109,
        "6392": 38,
        "6393": 124,
        "6394": 239,
        "6395": 197,
        "6396": 192,
        "6397": 34,
        "6398": 233,
        "6399": 237,
        "6400": 216,
        "6401": 224,
        "6402": 72,
        "6403": 27,
        "6404": 130,
        "6405": 109,
        "6406": 58,
        "6407": 161,
        "6408": 231,
        "6409": 144,
        "6410": 92,
        "6411": 6,
        "6412": 243,
        "6413": 200,
        "6414": 153,
        "6415": 153,
        "6416": 38,
        "6417": 32,
        "6418": 125,
        "6419": 241,
        "6420": 49,
        "6421": 186,
        "6422": 255,
        "6423": 219,
        "6424": 30,
        "6425": 136,
        "6426": 125,
        "6427": 155,
        "6428": 12,
        "6429": 59,
        "6430": 87,
        "6431": 173,
        "6432": 104,
        "6433": 222,
        "6434": 51,
        "6435": 64,
        "6436": 210,
        "6437": 59,
        "6438": 242,
        "6439": 103,
        "6440": 248,
        "6441": 106,
        "6442": 37,
        "6443": 218,
        "6444": 227,
        "6445": 25,
        "6446": 65,
        "6447": 19,
        "6448": 4,
        "6449": 1,
        "6450": 172,
        "6451": 34,
        "6452": 56,
        "6453": 247,
        "6454": 37,
        "6455": 124,
        "6456": 29,
        "6457": 35,
        "6458": 3,
        "6459": 12,
        "6460": 43,
        "6461": 198,
        "6462": 58,
        "6463": 134,
        "6464": 238,
        "6465": 45,
        "6466": 207,
        "6467": 9,
        "6468": 116,
        "6469": 41,
        "6470": 252,
        "6471": 237,
        "6472": 111,
        "6473": 239,
        "6474": 78,
        "6475": 66,
        "6476": 160,
        "6477": 141,
        "6478": 1,
        "6479": 183,
        "6480": 231,
        "6481": 30,
        "6482": 129,
        "6483": 217,
        "6484": 226,
        "6485": 199,
        "6486": 106,
        "6487": 74,
        "6488": 146,
        "6489": 68,
        "6490": 41,
        "6491": 247,
        "6492": 125,
        "6493": 143,
        "6494": 101,
        "6495": 102,
        "6496": 36,
        "6497": 131,
        "6498": 76,
        "6499": 216,
        "6500": 87,
        "6501": 42,
        "6502": 194,
        "6503": 139,
        "6504": 153,
        "6505": 27,
        "6506": 118,
        "6507": 52,
        "6508": 102,
        "6509": 111,
        "6510": 7,
        "6511": 184,
        "6512": 107,
        "6513": 30,
        "6514": 31,
        "6515": 124,
        "6516": 138,
        "6517": 17,
        "6518": 51,
        "6519": 152,
        "6520": 47,
        "6521": 64,
        "6522": 150,
        "6523": 114,
        "6524": 224,
        "6525": 61,
        "6526": 173,
        "6527": 114,
        "6528": 198,
        "6529": 31,
        "6530": 110,
        "6531": 62,
        "6532": 27,
        "6533": 104,
        "6534": 185,
        "6535": 252,
        "6536": 249,
        "6537": 30,
        "6538": 186,
        "6539": 90,
        "6540": 241,
        "6541": 186,
        "6542": 195,
        "6543": 184,
        "6544": 147,
        "6545": 59,
        "6546": 3,
        "6547": 62,
        "6548": 232,
        "6549": 226,
        "6550": 208,
        "6551": 76,
        "6552": 146,
        "6553": 180,
        "6554": 191,
        "6555": 213,
        "6556": 76,
        "6557": 199,
        "6558": 159,
        "6559": 228,
        "6560": 69,
        "6561": 55,
        "6562": 81,
        "6563": 48,
        "6564": 48,
        "6565": 76,
        "6566": 95,
        "6567": 17,
        "6568": 161,
        "6569": 65,
        "6570": 155,
        "6571": 164,
        "6572": 161,
        "6573": 148,
        "6574": 219,
        "6575": 139,
        "6576": 142,
        "6577": 213,
        "6578": 7,
        "6579": 48,
        "6580": 206,
        "6581": 4,
        "6582": 68,
        "6583": 3,
        "6584": 248,
        "6585": 60,
        "6586": 222,
        "6587": 77,
        "6588": 189,
        "6589": 59,
        "6590": 143,
        "6591": 223,
        "6592": 19,
        "6593": 216,
        "6594": 244,
        "6595": 179,
        "6596": 169,
        "6597": 117,
        "6598": 75,
        "6599": 69,
        "6600": 194,
        "6601": 93,
        "6602": 42,
        "6603": 1,
        "6604": 84,
        "6605": 193,
        "6606": 168,
        "6607": 7,
        "6608": 166,
        "6609": 18,
        "6610": 210,
        "6611": 211,
        "6612": 142,
        "6613": 91,
        "6614": 240,
        "6615": 37,
        "6616": 5,
        "6617": 173,
        "6618": 30,
        "6619": 61,
        "6620": 211,
        "6621": 80,
        "6622": 189,
        "6623": 221,
        "6624": 176,
        "6625": 223,
        "6626": 5,
        "6627": 124,
        "6628": 243,
        "6629": 3,
        "6630": 210,
        "6631": 64,
        "6632": 115,
        "6633": 162,
        "6634": 220,
        "6635": 198,
        "6636": 234,
        "6637": 159,
        "6638": 161,
        "6639": 5,
        "6640": 174,
        "6641": 87,
        "6642": 172,
        "6643": 70,
        "6644": 49,
        "6645": 116,
        "6646": 136,
        "6647": 236,
        "6648": 38,
        "6649": 1,
        "6650": 223,
        "6651": 9,
        "6652": 164,
        "6653": 73,
        "6654": 79,
        "6655": 166,
        "6656": 138,
        "6657": 17,
        "6658": 244,
        "6659": 239,
        "6660": 45,
        "6661": 185,
        "6662": 135,
        "6663": 196,
        "6664": 20,
        "6665": 177,
        "6666": 219,
        "6667": 229,
        "6668": 95,
        "6669": 121,
        "6670": 197,
        "6671": 58,
        "6672": 172,
        "6673": 177,
        "6674": 77,
        "6675": 234,
        "6676": 238,
        "6677": 107,
        "6678": 231,
        "6679": 152,
        "6680": 57,
        "6681": 190,
        "6682": 220,
        "6683": 182,
        "6684": 2,
        "6685": 10,
        "6686": 221,
        "6687": 66,
        "6688": 110,
        "6689": 248,
        "6690": 15,
        "6691": 214,
        "6692": 103,
        "6693": 155,
        "6694": 35,
        "6695": 38,
        "6696": 37,
        "6697": 95,
        "6698": 5,
        "6699": 21,
        "6700": 206,
        "6701": 25,
        "6702": 130,
        "6703": 126,
        "6704": 179,
        "6705": 86,
        "6706": 27,
        "6707": 166,
        "6708": 191,
        "6709": 104,
        "6710": 227,
        "6711": 60,
        "6712": 86,
        "6713": 12,
        "6714": 168,
        "6715": 123,
        "6716": 53,
        "6717": 160,
        "6718": 97,
        "6719": 117,
        "6720": 31,
        "6721": 107,
        "6722": 163,
        "6723": 31,
        "6724": 226,
        "6725": 47,
        "6726": 162,
        "6727": 74,
        "6728": 180,
        "6729": 17,
        "6730": 41,
        "6731": 157,
        "6732": 101,
        "6733": 84,
        "6734": 99,
        "6735": 7,
        "6736": 16,
        "6737": 17,
        "6738": 12,
        "6739": 111,
        "6740": 220,
        "6741": 118,
        "6742": 146,
        "6743": 220,
        "6744": 0,
        "6745": 77,
        "6746": 143,
        "6747": 125,
        "6748": 99,
        "6749": 154,
        "6750": 167,
        "6751": 234,
        "6752": 46,
        "6753": 77,
        "6754": 180,
        "6755": 30,
        "6756": 230,
        "6757": 189,
        "6758": 139,
        "6759": 185,
        "6760": 118,
        "6761": 21,
        "6762": 229,
        "6763": 107,
        "6764": 53,
        "6765": 36,
        "6766": 120,
        "6767": 61,
        "6768": 229,
        "6769": 37,
        "6770": 225,
        "6771": 241,
        "6772": 190,
        "6773": 137,
        "6774": 22,
        "6775": 196,
        "6776": 225,
        "6777": 23,
        "6778": 209,
        "6779": 77,
        "6780": 154,
        "6781": 166,
        "6782": 21,
        "6783": 43,
        "6784": 137,
        "6785": 201,
        "6786": 253,
        "6787": 189,
        "6788": 107,
        "6789": 218,
        "6790": 168,
        "6791": 119,
        "6792": 235,
        "6793": 20,
        "6794": 143,
        "6795": 13,
        "6796": 204,
        "6797": 213,
        "6798": 135,
        "6799": 59,
        "6800": 51,
        "6801": 110,
        "6802": 85,
        "6803": 135,
        "6804": 224,
        "6805": 101,
        "6806": 88,
        "6807": 70,
        "6808": 143,
        "6809": 40,
        "6810": 21,
        "6811": 250,
        "6812": 142,
        "6813": 134,
        "6814": 217,
        "6815": 144,
        "6816": 211,
        "6817": 16,
        "6818": 131,
        "6819": 72,
        "6820": 197,
        "6821": 72,
        "6822": 4,
        "6823": 173,
        "6824": 214,
        "6825": 228,
        "6826": 90,
        "6827": 146,
        "6828": 30,
        "6829": 92,
        "6830": 1,
        "6831": 78,
        "6832": 94,
        "6833": 50,
        "6834": 239,
        "6835": 124,
        "6836": 169,
        "6837": 215,
        "6838": 124,
        "6839": 120,
        "6840": 133,
        "6841": 62,
        "6842": 235,
        "6843": 246,
        "6844": 206,
        "6845": 238,
        "6846": 187,
        "6847": 40,
        "6848": 150,
        "6849": 246,
        "6850": 2,
        "6851": 39,
        "6852": 75,
        "6853": 78,
        "6854": 22,
        "6855": 38,
        "6856": 27,
        "6857": 149,
        "6858": 157,
        "6859": 208,
        "6860": 132,
        "6861": 134,
        "6862": 8,
        "6863": 105,
        "6864": 212,
        "6865": 171,
        "6866": 205,
        "6867": 14,
        "6868": 2,
        "6869": 57,
        "6870": 136,
        "6871": 136,
        "6872": 254,
        "6873": 212,
        "6874": 92,
        "6875": 76,
        "6876": 5,
        "6877": 76,
        "6878": 248,
        "6879": 75,
        "6880": 85,
        "6881": 201,
        "6882": 152,
        "6883": 120,
        "6884": 204,
        "6885": 11,
        "6886": 48,
        "6887": 93,
        "6888": 155,
        "6889": 37,
        "6890": 229,
        "6891": 215,
        "6892": 55,
        "6893": 111,
        "6894": 94,
        "6895": 157,
        "6896": 211,
        "6897": 9,
        "6898": 29,
        "6899": 247,
        "6900": 190,
        "6901": 209,
        "6902": 236,
        "6903": 144,
        "6904": 52,
        "6905": 130,
        "6906": 129,
        "6907": 200,
        "6908": 152,
        "6909": 149,
        "6910": 24,
        "6911": 136,
        "6912": 195,
        "6913": 243,
        "6914": 192,
        "6915": 216,
        "6916": 102,
        "6917": 164,
        "6918": 143,
        "6919": 197,
        "6920": 112,
        "6921": 16,
        "6922": 240,
        "6923": 47,
        "6924": 54,
        "6925": 58,
        "6926": 101,
        "6927": 31,
        "6928": 149,
        "6929": 135,
        "6930": 185,
        "6931": 94,
        "6932": 94,
        "6933": 53,
        "6934": 202,
        "6935": 230,
        "6936": 86,
        "6937": 118,
        "6938": 36,
        "6939": 111,
        "6940": 215,
        "6941": 118,
        "6942": 116,
        "6943": 255,
        "6944": 245,
        "6945": 201,
        "6946": 100,
        "6947": 217,
        "6948": 32,
        "6949": 25,
        "6950": 202,
        "6951": 96,
        "6952": 226,
        "6953": 39,
        "6954": 63,
        "6955": 28,
        "6956": 201,
        "6957": 132,
        "6958": 9,
        "6959": 187,
        "6960": 18,
        "6961": 85,
        "6962": 245,
        "6963": 27,
        "6964": 44,
        "6965": 99,
        "6966": 107,
        "6967": 14,
        "6968": 215,
        "6969": 47,
        "6970": 182,
        "6971": 240,
        "6972": 205,
        "6973": 158,
        "6974": 209,
        "6975": 59,
        "6976": 172,
        "6977": 54,
        "6978": 126,
        "6979": 85,
        "6980": 138,
        "6981": 163,
        "6982": 157,
        "6983": 210,
        "6984": 44,
        "6985": 6,
        "6986": 61,
        "6987": 170,
        "6988": 202,
        "6989": 78,
        "6990": 241,
        "6991": 92,
        "6992": 249,
        "6993": 136,
        "6994": 152,
        "6995": 255,
        "6996": 107,
        "6997": 230,
        "6998": 87,
        "6999": 86,
        "7000": 129,
        "7001": 44,
        "7002": 10,
        "7003": 93,
        "7004": 16,
        "7005": 27,
        "7006": 220,
        "7007": 0,
        "7008": 20,
        "7009": 208,
        "7010": 136,
        "7011": 164,
        "7012": 109,
        "7013": 74,
        "7014": 174,
        "7015": 57,
        "7016": 117,
        "7017": 105,
        "7018": 19,
        "7019": 176,
        "7020": 50,
        "7021": 54,
        "7022": 106,
        "7023": 63,
        "7024": 218,
        "7025": 10,
        "7026": 196,
        "7027": 131,
        "7028": 145,
        "7029": 9,
        "7030": 53,
        "7031": 186,
        "7032": 247,
        "7033": 98,
        "7034": 111,
        "7035": 8,
        "7036": 211,
        "7037": 36,
        "7038": 38,
        "7039": 73,
        "7040": 21,
        "7041": 140,
        "7042": 42,
        "7043": 99,
        "7044": 163,
        "7045": 20,
        "7046": 221,
        "7047": 4,
        "7048": 188,
        "7049": 56,
        "7050": 157,
        "7051": 100,
        "7052": 80,
        "7053": 226,
        "7054": 137,
        "7055": 28,
        "7056": 204,
        "7057": 33,
        "7058": 218,
        "7059": 5,
        "7060": 243,
        "7061": 167,
        "7062": 117,
        "7063": 77,
        "7064": 151,
        "7065": 126,
        "7066": 188,
        "7067": 32,
        "7068": 86,
        "7069": 12,
        "7070": 80,
        "7071": 238,
        "7072": 179,
        "7073": 7,
        "7074": 130,
        "7075": 179,
        "7076": 165,
        "7077": 237,
        "7078": 191,
        "7079": 121,
        "7080": 186,
        "7081": 249,
        "7082": 240,
        "7083": 158,
        "7084": 234,
        "7085": 196,
        "7086": 0,
        "7087": 8,
        "7088": 75,
        "7089": 152,
        "7090": 33,
        "7091": 243,
        "7092": 170,
        "7093": 125,
        "7094": 215,
        "7095": 122,
        "7096": 142,
        "7097": 181,
        "7098": 107,
        "7099": 221,
        "7100": 117,
        "7101": 136,
        "7102": 26,
        "7103": 36,
        "7104": 178,
        "7105": 71,
        "7106": 190,
        "7107": 178,
        "7108": 41,
        "7109": 5,
        "7110": 210,
        "7111": 211,
        "7112": 222,
        "7113": 84,
        "7114": 137,
        "7115": 141,
        "7116": 135,
        "7117": 167,
        "7118": 210,
        "7119": 74,
        "7120": 211,
        "7121": 227,
        "7122": 74,
        "7123": 54,
        "7124": 244,
        "7125": 208,
        "7126": 99,
        "7127": 119,
        "7128": 230,
        "7129": 11,
        "7130": 20,
        "7131": 101,
        "7132": 242,
        "7133": 145,
        "7134": 146,
        "7135": 246,
        "7136": 169,
        "7137": 237,
        "7138": 118,
        "7139": 186,
        "7140": 153,
        "7141": 102,
        "7142": 90,
        "7143": 48,
        "7144": 76,
        "7145": 222,
        "7146": 4,
        "7147": 172,
        "7148": 124,
        "7149": 225,
        "7150": 142,
        "7151": 165,
        "7152": 23,
        "7153": 112,
        "7154": 251,
        "7155": 15,
        "7156": 1,
        "7157": 23,
        "7158": 15,
        "7159": 214,
        "7160": 190,
        "7161": 0,
        "7162": 58,
        "7163": 160,
        "7164": 63,
        "7165": 141,
        "7166": 216,
        "7167": 211,
        "7168": 240,
        "7169": 224,
        "7170": 232,
        "7171": 148,
        "7172": 163,
        "7173": 80,
        "7174": 190,
        "7175": 14,
        "7176": 222,
        "7177": 126,
        "7178": 99,
        "7179": 8,
        "7180": 123,
        "7181": 123,
        "7182": 193,
        "7183": 180,
        "7184": 97,
        "7185": 200,
        "7186": 50,
        "7187": 117,
        "7188": 154,
        "7189": 95,
        "7190": 176,
        "7191": 209,
        "7192": 171,
        "7193": 106,
        "7194": 70,
        "7195": 30,
        "7196": 82,
        "7197": 105,
        "7198": 114,
        "7199": 95,
        "7200": 54,
        "7201": 88,
        "7202": 255,
        "7203": 206,
        "7204": 93,
        "7205": 112,
        "7206": 113,
        "7207": 16,
        "7208": 184,
        "7209": 191,
        "7210": 0,
        "7211": 65,
        "7212": 80,
        "7213": 236,
        "7214": 188,
        "7215": 188,
        "7216": 106,
        "7217": 207,
        "7218": 233,
        "7219": 223,
        "7220": 121,
        "7221": 134,
        "7222": 107,
        "7223": 29,
        "7224": 233,
        "7225": 10,
        "7226": 65,
        "7227": 52,
        "7228": 42,
        "7229": 29,
        "7230": 177,
        "7231": 253,
        "7232": 184,
        "7233": 1,
        "7234": 35,
        "7235": 114,
        "7236": 154,
        "7237": 69,
        "7238": 145,
        "7239": 228,
        "7240": 30,
        "7241": 243,
        "7242": 215,
        "7243": 253,
        "7244": 237,
        "7245": 122,
        "7246": 12,
        "7247": 97,
        "7248": 129,
        "7249": 57,
        "7250": 185,
        "7251": 97,
        "7252": 56,
        "7253": 152,
        "7254": 111,
        "7255": 189,
        "7256": 215,
        "7257": 45,
        "7258": 67,
        "7259": 171,
        "7260": 29,
        "7261": 143,
        "7262": 45,
        "7263": 150,
        "7264": 90,
        "7265": 137,
        "7266": 218,
        "7267": 203,
        "7268": 101,
        "7269": 90,
        "7270": 94,
        "7271": 19,
        "7272": 143,
        "7273": 226,
        "7274": 247,
        "7275": 119,
        "7276": 184,
        "7277": 70,
        "7278": 169,
        "7279": 240,
        "7280": 136,
        "7281": 243,
        "7282": 236,
        "7283": 223,
        "7284": 151,
        "7285": 192,
        "7286": 207,
        "7287": 47,
        "7288": 118,
        "7289": 87,
        "7290": 33,
        "7291": 146,
        "7292": 44,
        "7293": 3,
        "7294": 178,
        "7295": 158,
        "7296": 5,
        "7297": 105,
        "7298": 230,
        "7299": 54,
        "7300": 101,
        "7301": 106,
        "7302": 128,
        "7303": 23,
        "7304": 253,
        "7305": 26,
        "7306": 106,
        "7307": 143,
        "7308": 141,
        "7309": 19,
        "7310": 77,
        "7311": 71,
        "7312": 167,
        "7313": 228,
        "7314": 241,
        "7315": 215,
        "7316": 226,
        "7317": 61,
        "7318": 189,
        "7319": 61,
        "7320": 66,
        "7321": 21,
        "7322": 202,
        "7323": 63,
        "7324": 216,
        "7325": 109,
        "7326": 118,
        "7327": 193,
        "7328": 175,
        "7329": 34,
        "7330": 51,
        "7331": 163,
        "7332": 76,
        "7333": 188,
        "7334": 109,
        "7335": 182,
        "7336": 214,
        "7337": 84,
        "7338": 193,
        "7339": 249,
        "7340": 99,
        "7341": 231,
        "7342": 236,
        "7343": 135,
        "7344": 50,
        "7345": 206,
        "7346": 226,
        "7347": 11,
        "7348": 52,
        "7349": 12,
        "7350": 30,
        "7351": 235,
        "7352": 204,
        "7353": 214,
        "7354": 37,
        "7355": 63,
        "7356": 69,
        "7357": 169,
        "7358": 247,
        "7359": 127,
        "7360": 20,
        "7361": 178,
        "7362": 220,
        "7363": 190,
        "7364": 9,
        "7365": 132,
        "7366": 58,
        "7367": 201,
        "7368": 204,
        "7369": 68,
        "7370": 51,
        "7371": 78,
        "7372": 47,
        "7373": 123,
        "7374": 115,
        "7375": 255,
        "7376": 113,
        "7377": 44,
        "7378": 32,
        "7379": 4,
        "7380": 47,
        "7381": 159,
        "7382": 118,
        "7383": 192,
        "7384": 213,
        "7385": 180,
        "7386": 77,
        "7387": 178,
        "7388": 177,
        "7389": 90,
        "7390": 106,
        "7391": 245,
        "7392": 41,
        "7393": 13,
        "7394": 188,
        "7395": 35,
        "7396": 166,
        "7397": 166,
        "7398": 94,
        "7399": 232,
        "7400": 1,
        "7401": 101,
        "7402": 41,
        "7403": 15,
        "7404": 78,
        "7405": 142,
        "7406": 108,
        "7407": 140,
        "7408": 220,
        "7409": 31,
        "7410": 239,
        "7411": 29,
        "7412": 44,
        "7413": 5,
        "7414": 224,
        "7415": 99,
        "7416": 25,
        "7417": 255,
        "7418": 161,
        "7419": 28,
        "7420": 44,
        "7421": 243,
        "7422": 245,
        "7423": 99,
        "7424": 216,
        "7425": 174,
        "7426": 195,
        "7427": 33,
        "7428": 185,
        "7429": 58,
        "7430": 173,
        "7431": 197,
        "7432": 33,
        "7433": 213,
        "7434": 213,
        "7435": 172,
        "7436": 194,
        "7437": 122,
        "7438": 120,
        "7439": 211,
        "7440": 140,
        "7441": 6,
        "7442": 3,
        "7443": 185,
        "7444": 177,
        "7445": 148,
        "7446": 149,
        "7447": 196,
        "7448": 209,
        "7449": 66,
        "7450": 99,
        "7451": 221,
        "7452": 233,
        "7453": 16,
        "7454": 94,
        "7455": 41,
        "7456": 93,
        "7457": 35,
        "7458": 115,
        "7459": 28,
        "7460": 10,
        "7461": 5,
        "7462": 73,
        "7463": 94,
        "7464": 36,
        "7465": 209,
        "7466": 188,
        "7467": 215,
        "7468": 202,
        "7469": 3,
        "7470": 211,
        "7471": 235,
        "7472": 223,
        "7473": 70,
        "7474": 118,
        "7475": 75,
        "7476": 146,
        "7477": 230,
        "7478": 177,
        "7479": 226,
        "7480": 167,
        "7481": 54,
        "7482": 154,
        "7483": 4,
        "7484": 19,
        "7485": 43,
        "7486": 205,
        "7487": 49,
        "7488": 245,
        "7489": 170,
        "7490": 109,
        "7491": 16,
        "7492": 222,
        "7493": 96,
        "7494": 144,
        "7495": 203,
        "7496": 228,
        "7497": 108,
        "7498": 59,
        "7499": 252,
        "7500": 38,
        "7501": 44,
        "7502": 228,
        "7503": 160,
        "7504": 178,
        "7505": 180,
        "7506": 147,
        "7507": 18,
        "7508": 190,
        "7509": 71,
        "7510": 251,
        "7511": 73,
        "7512": 201,
        "7513": 43,
        "7514": 255,
        "7515": 185,
        "7516": 5,
        "7517": 26,
        "7518": 31,
        "7519": 131,
        "7520": 166,
        "7521": 63,
        "7522": 216,
        "7523": 220,
        "7524": 148,
        "7525": 218,
        "7526": 92,
        "7527": 66,
        "7528": 230,
        "7529": 142,
        "7530": 14,
        "7531": 90,
        "7532": 138,
        "7533": 235,
        "7534": 79,
        "7535": 149,
        "7536": 177,
        "7537": 193,
        "7538": 35,
        "7539": 84,
        "7540": 225,
        "7541": 96,
        "7542": 55,
        "7543": 78,
        "7544": 54,
        "7545": 186,
        "7546": 180,
        "7547": 216,
        "7548": 38,
        "7549": 161,
        "7550": 40,
        "7551": 92,
        "7552": 71,
        "7553": 187,
        "7554": 63,
        "7555": 114,
        "7556": 248,
        "7557": 116,
        "7558": 199,
        "7559": 46,
        "7560": 35,
        "7561": 172,
        "7562": 198,
        "7563": 170,
        "7564": 207,
        "7565": 51,
        "7566": 185,
        "7567": 27,
        "7568": 222,
        "7569": 84,
        "7570": 147,
        "7571": 31,
        "7572": 155,
        "7573": 152,
        "7574": 112,
        "7575": 64,
        "7576": 191,
        "7577": 164,
        "7578": 2,
        "7579": 96,
        "7580": 176,
        "7581": 233,
        "7582": 37,
        "7583": 159,
        "7584": 170,
        "7585": 20,
        "7586": 127,
        "7587": 246,
        "7588": 156,
        "7589": 70,
        "7590": 254,
        "7591": 72,
        "7592": 95,
        "7593": 28,
        "7594": 47,
        "7595": 203,
        "7596": 187,
        "7597": 50,
        "7598": 197,
        "7599": 68,
        "7600": 54,
        "7601": 7,
        "7602": 22,
        "7603": 120,
        "7604": 40,
        "7605": 104,
        "7606": 133,
        "7607": 139,
        "7608": 74,
        "7609": 148,
        "7610": 85,
        "7611": 11,
        "7612": 146,
        "7613": 247,
        "7614": 4,
        "7615": 186,
        "7616": 214,
        "7617": 7,
        "7618": 74,
        "7619": 114,
        "7620": 248,
        "7621": 4,
        "7622": 252,
        "7623": 146,
        "7624": 222,
        "7625": 245,
        "7626": 78,
        "7627": 53,
        "7628": 135,
        "7629": 245,
        "7630": 171,
        "7631": 223,
        "7632": 136,
        "7633": 39,
        "7634": 153,
        "7635": 122,
        "7636": 156,
        "7637": 44,
        "7638": 245,
        "7639": 7,
        "7640": 0,
        "7641": 82,
        "7642": 46,
        "7643": 174,
        "7644": 54,
        "7645": 214,
        "7646": 48,
        "7647": 3,
        "7648": 253,
        "7649": 69,
        "7650": 224,
        "7651": 251,
        "7652": 153,
        "7653": 74,
        "7654": 93,
        "7655": 24,
        "7656": 81,
        "7657": 30,
        "7658": 15,
        "7659": 226,
        "7660": 241,
        "7661": 141,
        "7662": 161,
        "7663": 109,
        "7664": 57,
        "7665": 253,
        "7666": 122,
        "7667": 134,
        "7668": 161,
        "7669": 252,
        "7670": 220,
        "7671": 76,
        "7672": 81,
        "7673": 184,
        "7674": 191,
        "7675": 10,
        "7676": 66,
        "7677": 120,
        "7678": 64,
        "7679": 157,
        "7680": 110,
        "7681": 142,
        "7682": 53,
        "7683": 129,
        "7684": 211,
        "7685": 208,
        "7686": 183,
        "7687": 27,
        "7688": 29,
        "7689": 61,
        "7690": 230,
        "7691": 66,
        "7692": 16,
        "7693": 95,
        "7694": 108,
        "7695": 98,
        "7696": 12,
        "7697": 155,
        "7698": 141,
        "7699": 159,
        "7700": 32,
        "7701": 198,
        "7702": 174,
        "7703": 76,
        "7704": 43,
        "7705": 113,
        "7706": 153,
        "7707": 148,
        "7708": 251,
        "7709": 230,
        "7710": 179,
        "7711": 163,
        "7712": 202,
        "7713": 66,
        "7714": 44,
        "7715": 189,
        "7716": 112,
        "7717": 72,
        "7718": 142,
        "7719": 68,
        "7720": 43,
        "7721": 10,
        "7722": 69,
        "7723": 221,
        "7724": 248,
        "7725": 8,
        "7726": 253,
        "7727": 128,
        "7728": 79,
        "7729": 149,
        "7730": 200,
        "7731": 247,
        "7732": 112,
        "7733": 116,
        "7734": 235,
        "7735": 110,
        "7736": 109,
        "7737": 125,
        "7738": 92,
        "7739": 165,
        "7740": 50,
        "7741": 155,
        "7742": 91,
        "7743": 179,
        "7744": 181,
        "7745": 168,
        "7746": 227,
        "7747": 142,
        "7748": 66,
        "7749": 19,
        "7750": 175,
        "7751": 32,
        "7752": 7,
        "7753": 228,
        "7754": 149,
        "7755": 17,
        "7756": 66,
        "7757": 57,
        "7758": 188,
        "7759": 16,
        "7760": 153,
        "7761": 225,
        "7762": 17,
        "7763": 255,
        "7764": 118,
        "7765": 101,
        "7766": 26,
        "7767": 184,
        "7768": 250,
        "7769": 44,
        "7770": 221,
        "7771": 57,
        "7772": 240,
        "7773": 235,
        "7774": 247,
        "7775": 22,
        "7776": 149,
        "7777": 31,
        "7778": 234,
        "7779": 181,
        "7780": 37,
        "7781": 239,
        "7782": 106,
        "7783": 77,
        "7784": 23,
        "7785": 225,
        "7786": 147,
        "7787": 132,
        "7788": 159,
        "7789": 154,
        "7790": 16,
        "7791": 118,
        "7792": 60,
        "7793": 221,
        "7794": 161,
        "7795": 24,
        "7796": 169,
        "7797": 5,
        "7798": 104,
        "7799": 97,
        "7800": 89,
        "7801": 205,
        "7802": 23,
        "7803": 151,
        "7804": 125,
        "7805": 15,
        "7806": 169,
        "7807": 113,
        "7808": 78,
        "7809": 4,
        "7810": 43,
        "7811": 99,
        "7812": 35,
        "7813": 203,
        "7814": 239,
        "7815": 72,
        "7816": 62,
        "7817": 250,
        "7818": 25,
        "7819": 66,
        "7820": 79,
        "7821": 109,
        "7822": 177,
        "7823": 91,
        "7824": 161,
        "7825": 154,
        "7826": 59,
        "7827": 31,
        "7828": 95,
        "7829": 204,
        "7830": 66,
        "7831": 54,
        "7832": 69,
        "7833": 137,
        "7834": 0,
        "7835": 34,
        "7836": 148,
        "7837": 180,
        "7838": 198,
        "7839": 18,
        "7840": 114,
        "7841": 35,
        "7842": 88,
        "7843": 169,
        "7844": 36,
        "7845": 12,
        "7846": 91,
        "7847": 36,
        "7848": 91,
        "7849": 233,
        "7850": 192,
        "7851": 123,
        "7852": 49,
        "7853": 165,
        "7854": 124,
        "7855": 25,
        "7856": 141,
        "7857": 168,
        "7858": 124,
        "7859": 129,
        "7860": 51,
        "7861": 239,
        "7862": 87,
        "7863": 146,
        "7864": 144,
        "7865": 155,
        "7866": 88,
        "7867": 121,
        "7868": 134,
        "7869": 92,
        "7870": 36,
        "7871": 21,
        "7872": 175,
        "7873": 72,
        "7874": 184,
        "7875": 120,
        "7876": 102,
        "7877": 54,
        "7878": 207,
        "7879": 43,
        "7880": 104,
        "7881": 167,
        "7882": 111,
        "7883": 86,
        "7884": 59,
        "7885": 52,
        "7886": 136,
        "7887": 128,
        "7888": 229,
        "7889": 203,
        "7890": 22,
        "7891": 194,
        "7892": 129,
        "7893": 41,
        "7894": 111,
        "7895": 109,
        "7896": 154,
        "7897": 234,
        "7898": 112,
        "7899": 192,
        "7900": 98,
        "7901": 160,
        "7902": 69,
        "7903": 55,
        "7904": 112,
        "7905": 174,
        "7906": 238,
        "7907": 41,
        "7908": 197,
        "7909": 138,
        "7910": 84,
        "7911": 161,
        "7912": 114,
        "7913": 120,
        "7914": 141,
        "7915": 135,
        "7916": 46,
        "7917": 108,
        "7918": 95,
        "7919": 35,
        "7920": 116,
        "7921": 4,
        "7922": 250,
        "7923": 40,
        "7924": 159,
        "7925": 128,
        "7926": 52,
        "7927": 75,
        "7928": 26,
        "7929": 33,
        "7930": 69,
        "7931": 154,
        "7932": 135,
        "7933": 157,
        "7934": 80,
        "7935": 224,
        "7936": 92,
        "7937": 186,
        "7938": 99,
        "7939": 93,
        "7940": 35,
        "7941": 2,
        "7942": 217,
        "7943": 148,
        "7944": 172,
        "7945": 11,
        "7946": 97,
        "7947": 141,
        "7948": 30,
        "7949": 99,
        "7950": 67,
        "7951": 96,
        "7952": 26,
        "7953": 28,
        "7954": 133,
        "7955": 217,
        "7956": 171,
        "7957": 55,
        "7958": 229,
        "7959": 17,
        "7960": 144,
        "7961": 247,
        "7962": 157,
        "7963": 108,
        "7964": 236,
        "7965": 62,
        "7966": 13,
        "7967": 66,
        "7968": 20,
        "7969": 148,
        "7970": 94,
        "7971": 77,
        "7972": 225,
        "7973": 83,
        "7974": 48,
        "7975": 39,
        "7976": 17,
        "7977": 41,
        "7978": 97,
        "7979": 120,
        "7980": 168,
        "7981": 255,
        "7982": 140,
        "7983": 251,
        "7984": 94,
        "7985": 218,
        "7986": 240,
        "7987": 150,
        "7988": 71,
        "7989": 207,
        "7990": 103,
        "7991": 193,
        "7992": 145,
        "7993": 183,
        "7994": 255,
        "7995": 144,
        "7996": 171,
        "7997": 12,
        "7998": 78,
        "7999": 11,
        "8000": 17,
        "8001": 243,
        "8002": 85,
        "8003": 162,
        "8004": 160,
        "8005": 61,
        "8006": 173,
        "8007": 74,
        "8008": 21,
        "8009": 6,
        "8010": 154,
        "8011": 143,
        "8012": 186,
        "8013": 52,
        "8014": 123,
        "8015": 158,
        "8016": 176,
        "8017": 106,
        "8018": 213,
        "8019": 213,
        "8020": 189,
        "8021": 142,
        "8022": 24,
        "8023": 236,
        "8024": 163,
        "8025": 66,
        "8026": 197,
        "8027": 37,
        "8028": 41,
        "8029": 218,
        "8030": 158,
        "8031": 196,
        "8032": 81,
        "8033": 65,
        "8034": 110,
        "8035": 232,
        "8036": 48,
        "8037": 142,
        "8038": 229,
        "8039": 236,
        "8040": 155,
        "8041": 39,
        "8042": 188,
        "8043": 237,
        "8044": 134,
        "8045": 89,
        "8046": 75,
        "8047": 155,
        "8048": 108,
        "8049": 190,
        "8050": 55,
        "8051": 49,
        "8052": 53,
        "8053": 252,
        "8054": 107,
        "8055": 27,
        "8056": 234,
        "8057": 140,
        "8058": 167,
        "8059": 209,
        "8060": 178,
        "8061": 170,
        "8062": 242,
        "8063": 208,
        "8064": 187,
        "8065": 222,
        "8066": 6,
        "8067": 66,
        "8068": 89,
        "8069": 96,
        "8070": 180,
        "8071": 164,
        "8072": 72,
        "8073": 133,
        "8074": 125,
        "8075": 222,
        "8076": 50,
        "8077": 115,
        "8078": 91,
        "8079": 7,
        "8080": 188,
        "8081": 127,
        "8082": 204,
        "8083": 133,
        "8084": 136,
        "8085": 177,
        "8086": 82,
        "8087": 36,
        "8088": 161,
        "8089": 192,
        "8090": 237,
        "8091": 17,
        "8092": 42,
        "8093": 20,
        "8094": 245,
        "8095": 67,
        "8096": 186,
        "8097": 177,
        "8098": 229,
        "8099": 74,
        "8100": 125,
        "8101": 160,
        "8102": 251,
        "8103": 245,
        "8104": 147,
        "8105": 234,
        "8106": 2,
        "8107": 29,
        "8108": 241,
        "8109": 194,
        "8110": 127,
        "8111": 73,
        "8112": 62,
        "8113": 228,
        "8114": 51,
        "8115": 120,
        "8116": 34,
        "8117": 154,
        "8118": 126,
        "8119": 203,
        "8120": 210,
        "8121": 185,
        "8122": 165,
        "8123": 65,
        "8124": 82,
        "8125": 110,
        "8126": 237,
        "8127": 42,
        "8128": 227,
        "8129": 141,
        "8130": 207,
        "8131": 155,
        "8132": 9,
        "8133": 86,
        "8134": 252,
        "8135": 56,
        "8136": 215,
        "8137": 180,
        "8138": 94,
        "8139": 147,
        "8140": 157,
        "8141": 212,
        "8142": 30,
        "8143": 131,
        "8144": 56,
        "8145": 130,
        "8146": 165,
        "8147": 197,
        "8148": 138,
        "8149": 162,
        "8150": 255,
        "8151": 242,
        "8152": 155,
        "8153": 235,
        "8154": 192,
        "8155": 133,
        "8156": 136,
        "8157": 151,
        "8158": 255,
        "8159": 66,
        "8160": 179,
        "8161": 235,
        "8162": 104,
        "8163": 91,
        "8164": 230,
        "8165": 154,
        "8166": 134,
        "8167": 85,
        "8168": 142,
        "8169": 201,
        "8170": 153,
        "8171": 61,
        "8172": 5,
        "8173": 207,
        "8174": 82,
        "8175": 233,
        "8176": 73,
        "8177": 120,
        "8178": 6,
        "8179": 104,
        "8180": 27,
        "8181": 56,
        "8182": 176,
        "8183": 215,
        "8184": 57,
        "8185": 35,
        "8186": 183,
        "8187": 253,
        "8188": 55,
        "8189": 10,
        "8190": 24,
        "8191": 3,
        "8192": 112,
        "8193": 127,
        "8194": 105,
        "8195": 70,
        "8196": 121,
        "8197": 94,
        "8198": 29,
        "8199": 219,
        "8200": 224,
        "8201": 22,
        "8202": 138,
        "8203": 10,
        "8204": 137,
        "8205": 167,
        "8206": 169,
        "8207": 211,
        "8208": 84,
        "8209": 246,
        "8210": 38,
        "8211": 105,
        "8212": 223,
        "8213": 60,
        "8214": 94,
        "8215": 58,
        "8216": 191,
        "8217": 110,
        "8218": 11,
        "8219": 131,
        "8220": 212,
        "8221": 27,
        "8222": 219,
        "8223": 115,
        "8224": 14,
        "8225": 247,
        "8226": 88,
        "8227": 245,
        "8228": 129,
        "8229": 231,
        "8230": 248,
        "8231": 196,
        "8232": 2,
        "8233": 144,
        "8234": 49,
        "8235": 142,
        "8236": 224,
        "8237": 75,
        "8238": 1,
        "8239": 169,
        "8240": 78,
        "8241": 128,
        "8242": 151,
        "8243": 235,
        "8244": 185,
        "8245": 217,
        "8246": 208,
        "8247": 159,
        "8248": 2,
        "8249": 83,
        "8250": 10,
        "8251": 15,
        "8252": 117,
        "8253": 35,
        "8254": 222,
        "8255": 23,
        "8256": 67,
        "8257": 138,
        "8258": 118,
        "8259": 96,
        "8260": 199,
        "8261": 130,
        "8262": 70,
        "8263": 29,
        "8264": 51,
        "8265": 162,
        "8266": 103,
        "8267": 63,
        "8268": 232,
        "8269": 70,
        "8270": 33,
        "8271": 20,
        "8272": 145,
        "8273": 30,
        "8274": 195,
        "8275": 167,
        "8276": 252,
        "8277": 81,
        "8278": 206,
        "8279": 177,
        "8280": 230,
        "8281": 61,
        "8282": 10,
        "8283": 38,
        "8284": 182,
        "8285": 1,
        "8286": 219,
        "8287": 146,
        "8288": 161,
        "8289": 90,
        "8290": 181,
        "8291": 3,
        "8292": 225,
        "8293": 225,
        "8294": 162,
        "8295": 247,
        "8296": 99,
        "8297": 92,
        "8298": 217,
        "8299": 0,
        "8300": 89,
        "8301": 192,
        "8302": 210,
        "8303": 221,
        "8304": 185,
        "8305": 59,
        "8306": 121,
        "8307": 232,
        "8308": 213,
        "8309": 123,
        "8310": 211,
        "8311": 158,
        "8312": 252,
        "8313": 213,
        "8314": 224,
        "8315": 156,
        "8316": 255,
        "8317": 122,
        "8318": 9,
        "8319": 188,
        "8320": 101,
        "8321": 50,
        "8322": 3,
        "8323": 49,
        "8324": 31,
        "8325": 42,
        "8326": 246,
        "8327": 6,
        "8328": 182,
        "8329": 92,
        "8330": 97,
        "8331": 114,
        "8332": 125,
        "8333": 17,
        "8334": 245,
        "8335": 26,
        "8336": 209,
        "8337": 122,
        "8338": 24,
        "8339": 24,
        "8340": 198,
        "8341": 216,
        "8342": 84,
        "8343": 141,
        "8344": 242,
        "8345": 71,
        "8346": 11,
        "8347": 78,
        "8348": 28,
        "8349": 250,
        "8350": 165,
        "8351": 224,
        "8352": 168,
        "8353": 68,
        "8354": 127,
        "8355": 212,
        "8356": 35,
        "8357": 182,
        "8358": 202,
        "8359": 157,
        "8360": 135,
        "8361": 83,
        "8362": 153,
        "8363": 59,
        "8364": 155,
        "8365": 92,
        "8366": 169,
        "8367": 58,
        "8368": 145,
        "8369": 181,
        "8370": 248,
        "8371": 43,
        "8372": 223,
        "8373": 96,
        "8374": 83,
        "8375": 136,
        "8376": 53,
        "8377": 46,
        "8378": 84,
        "8379": 127,
        "8380": 34,
        "8381": 141,
        "8382": 155,
        "8383": 191,
        "8384": 182,
        "8385": 157,
        "8386": 116,
        "8387": 101,
        "8388": 115,
        "8389": 228,
        "8390": 245,
        "8391": 144,
        "8392": 203,
        "8393": 105,
        "8394": 69,
        "8395": 230,
        "8396": 90,
        "8397": 198,
        "8398": 251,
        "8399": 234,
        "8400": 236,
        "8401": 206,
        "8402": 204,
        "8403": 106,
        "8404": 63,
        "8405": 196,
        "8406": 103,
        "8407": 13,
        "8408": 224,
        "8409": 99,
        "8410": 223,
        "8411": 163,
        "8412": 221,
        "8413": 69,
        "8414": 10,
        "8415": 38,
        "8416": 38,
        "8417": 205,
        "8418": 30,
        "8419": 59,
        "8420": 109,
        "8421": 25,
        "8422": 18,
        "8423": 76,
        "8424": 160,
        "8425": 172,
        "8426": 238,
        "8427": 66,
        "8428": 26,
        "8429": 146,
        "8430": 102,
        "8431": 43,
        "8432": 56,
        "8433": 40,
        "8434": 100,
        "8435": 24,
        "8436": 27,
        "8437": 160,
        "8438": 210,
        "8439": 230,
        "8440": 102,
        "8441": 190,
        "8442": 135,
        "8443": 210,
        "8444": 73,
        "8445": 204,
        "8446": 162,
        "8447": 144,
        "8448": 71,
        "8449": 39,
        "8450": 62,
        "8451": 194,
        "8452": 27,
        "8453": 83,
        "8454": 255,
        "8455": 237,
        "8456": 242,
        "8457": 18,
        "8458": 5,
        "8459": 71,
        "8460": 121,
        "8461": 234,
        "8462": 161,
        "8463": 1,
        "8464": 82,
        "8465": 13,
        "8466": 136,
        "8467": 66,
        "8468": 52,
        "8469": 217,
        "8470": 25,
        "8471": 116,
        "8472": 218,
        "8473": 86,
        "8474": 175,
        "8475": 212,
        "8476": 102,
        "8477": 198,
        "8478": 48,
        "8479": 62,
        "8480": 244,
        "8481": 107,
        "8482": 217,
        "8483": 108,
        "8484": 239,
        "8485": 182,
        "8486": 212,
        "8487": 197,
        "8488": 119,
        "8489": 147,
        "8490": 92,
        "8491": 38,
        "8492": 207,
        "8493": 139,
        "8494": 198,
        "8495": 225,
        "8496": 218,
        "8497": 8,
        "8498": 82,
        "8499": 243,
        "8500": 150,
        "8501": 174,
        "8502": 22,
        "8503": 25,
        "8504": 169,
        "8505": 14,
        "8506": 197,
        "8507": 49,
        "8508": 135,
        "8509": 128,
        "8510": 153,
        "8511": 62,
        "8512": 173,
        "8513": 252,
        "8514": 163,
        "8515": 44,
        "8516": 134,
        "8517": 19,
        "8518": 34,
        "8519": 109,
        "8520": 127,
        "8521": 68,
        "8522": 161,
        "8523": 39,
        "8524": 32,
        "8525": 128,
        "8526": 156,
        "8527": 235,
        "8528": 147,
        "8529": 116,
        "8530": 3,
        "8531": 172,
        "8532": 171,
        "8533": 3,
        "8534": 164,
        "8535": 148,
        "8536": 16,
        "8537": 70,
        "8538": 164,
        "8539": 213,
        "8540": 31,
        "8541": 127,
        "8542": 57,
        "8543": 7,
        "8544": 100,
        "8545": 254,
        "8546": 235,
        "8547": 4,
        "8548": 146,
        "8549": 151,
        "8550": 98,
        "8551": 233,
        "8552": 202,
        "8553": 49,
        "8554": 218,
        "8555": 46,
        "8556": 83,
        "8557": 120,
        "8558": 249,
        "8559": 142,
        "8560": 4,
        "8561": 234,
        "8562": 67,
        "8563": 157,
        "8564": 57,
        "8565": 132,
        "8566": 57,
        "8567": 163,
        "8568": 233,
        "8569": 223,
        "8570": 187,
        "8571": 117,
        "8572": 203,
        "8573": 54,
        "8574": 155,
        "8575": 35,
        "8576": 126,
        "8577": 105,
        "8578": 98,
        "8579": 178,
        "8580": 85,
        "8581": 102,
        "8582": 46,
        "8583": 48,
        "8584": 178,
        "8585": 45,
        "8586": 222,
        "8587": 221,
        "8588": 141,
        "8589": 85,
        "8590": 106,
        "8591": 42,
        "8592": 139,
        "8593": 53,
        "8594": 19,
        "8595": 17,
        "8596": 74,
        "8597": 40,
        "8598": 56,
        "8599": 140,
        "8600": 56,
        "8601": 244,
        "8602": 102,
        "8603": 116,
        "8604": 40,
        "8605": 145,
        "8606": 101,
        "8607": 186,
        "8608": 165,
        "8609": 44,
        "8610": 122,
        "8611": 167,
        "8612": 10,
        "8613": 78,
        "8614": 164,
        "8615": 251,
        "8616": 165,
        "8617": 103,
        "8618": 226,
        "8619": 182,
        "8620": 2,
        "8621": 160,
        "8622": 184,
        "8623": 152,
        "8624": 146,
        "8625": 46,
        "8626": 117,
        "8627": 194,
        "8628": 247,
        "8629": 139,
        "8630": 206,
        "8631": 86,
        "8632": 223,
        "8633": 184,
        "8634": 253,
        "8635": 15,
        "8636": 145,
        "8637": 207,
        "8638": 48,
        "8639": 5,
        "8640": 243,
        "8641": 55,
        "8642": 118,
        "8643": 32,
        "8644": 200,
        "8645": 249,
        "8646": 59,
        "8647": 44,
        "8648": 163,
        "8649": 28,
        "8650": 70,
        "8651": 188,
        "8652": 226,
        "8653": 23,
        "8654": 98,
        "8655": 96,
        "8656": 85,
        "8657": 106,
        "8658": 25,
        "8659": 201,
        "8660": 212,
        "8661": 106,
        "8662": 150,
        "8663": 207,
        "8664": 178,
        "8665": 11,
        "8666": 20,
        "8667": 217,
        "8668": 163,
        "8669": 80,
        "8670": 13,
        "8671": 87,
        "8672": 27,
        "8673": 97,
        "8674": 16,
        "8675": 14,
        "8676": 60,
        "8677": 211,
        "8678": 94,
        "8679": 19,
        "8680": 8,
        "8681": 162,
        "8682": 0,
        "8683": 28,
        "8684": 173,
        "8685": 215,
        "8686": 173,
        "8687": 145,
        "8688": 216,
        "8689": 81,
        "8690": 177,
        "8691": 106,
        "8692": 173,
        "8693": 254,
        "8694": 162,
        "8695": 80,
        "8696": 59,
        "8697": 20,
        "8698": 64,
        "8699": 69,
        "8700": 62,
        "8701": 84,
        "8702": 18,
        "8703": 217,
        "8704": 19,
        "8705": 233,
        "8706": 51,
        "8707": 2,
        "8708": 201,
        "8709": 6,
        "8710": 214,
        "8711": 92,
        "8712": 92,
        "8713": 44,
        "8714": 97,
        "8715": 8,
        "8716": 170,
        "8717": 114,
        "8718": 170,
        "8719": 69,
        "8720": 237,
        "8721": 93,
        "8722": 136,
        "8723": 135,
        "8724": 87,
        "8725": 242,
        "8726": 8,
        "8727": 56,
        "8728": 89,
        "8729": 233,
        "8730": 193,
        "8731": 191,
        "8732": 185,
        "8733": 107,
        "8734": 212,
        "8735": 204,
        "8736": 196,
        "8737": 170,
        "8738": 73,
        "8739": 25,
        "8740": 3,
        "8741": 82,
        "8742": 114,
        "8743": 32,
        "8744": 208,
        "8745": 25,
        "8746": 48,
        "8747": 55,
        "8748": 176,
        "8749": 88,
        "8750": 138,
        "8751": 30,
        "8752": 120,
        "8753": 61,
        "8754": 196,
        "8755": 210,
        "8756": 217,
        "8757": 61,
        "8758": 47,
        "8759": 114,
        "8760": 255,
        "8761": 137,
        "8762": 198,
        "8763": 159,
        "8764": 164,
        "8765": 73,
        "8766": 149,
        "8767": 233,
        "8768": 77,
        "8769": 239,
        "8770": 35,
        "8771": 33,
        "8772": 185,
        "8773": 232,
        "8774": 171,
        "8775": 246,
        "8776": 104,
        "8777": 116,
        "8778": 139,
        "8779": 53,
        "8780": 173,
        "8781": 222,
        "8782": 42,
        "8783": 177,
        "8784": 221,
        "8785": 164,
        "8786": 19,
        "8787": 194,
        "8788": 214,
        "8789": 39,
        "8790": 84,
        "8791": 197,
        "8792": 108,
        "8793": 174,
        "8794": 73,
        "8795": 189,
        "8796": 37,
        "8797": 165,
        "8798": 151,
        "8799": 152,
        "8800": 144,
        "8801": 178,
        "8802": 182,
        "8803": 92,
        "8804": 211,
        "8805": 15,
        "8806": 6,
        "8807": 4,
        "8808": 196,
        "8809": 242,
        "8810": 63,
        "8811": 180,
        "8812": 132,
        "8813": 34,
        "8814": 232,
        "8815": 27,
        "8816": 106,
        "8817": 180,
        "8818": 191,
        "8819": 85,
        "8820": 226,
        "8821": 142,
        "8822": 47,
        "8823": 101,
        "8824": 170,
        "8825": 124,
        "8826": 26,
        "8827": 0,
        "8828": 71,
        "8829": 48,
        "8830": 70,
        "8831": 29,
        "8832": 54,
        "8833": 106,
        "8834": 81,
        "8835": 109,
        "8836": 192,
        "8837": 182,
        "8838": 129,
        "8839": 141,
        "8840": 106,
        "8841": 123,
        "8842": 222,
        "8843": 158,
        "8844": 124,
        "8845": 196,
        "8846": 78,
        "8847": 35,
        "8848": 148,
        "8849": 177,
        "8850": 100,
        "8851": 11,
        "8852": 3,
        "8853": 162,
        "8854": 153,
        "8855": 249,
        "8856": 127,
        "8857": 20,
        "8858": 79,
        "8859": 165,
        "8860": 47,
        "8861": 231,
        "8862": 138,
        "8863": 147,
        "8864": 219,
        "8865": 60,
        "8866": 157,
        "8867": 13,
        "8868": 98,
        "8869": 3,
        "8870": 166,
        "8871": 149,
        "8872": 19,
        "8873": 154,
        "8874": 246,
        "8875": 170,
        "8876": 80,
        "8877": 151,
        "8878": 66,
        "8879": 30,
        "8880": 165,
        "8881": 199,
        "8882": 170,
        "8883": 138,
        "8884": 188,
        "8885": 51,
        "8886": 5,
        "8887": 14,
        "8888": 249,
        "8889": 94,
        "8890": 95,
        "8891": 170,
        "8892": 34,
        "8893": 0,
        "8894": 84,
        "8895": 112,
        "8896": 176,
        "8897": 126,
        "8898": 98,
        "8899": 250,
        "8900": 35,
        "8901": 109,
        "8902": 231,
        "8903": 193,
        "8904": 3,
        "8905": 228,
        "8906": 63,
        "8907": 76,
        "8908": 181,
        "8909": 90,
        "8910": 177,
        "8911": 235,
        "8912": 58,
        "8913": 120,
        "8914": 4,
        "8915": 110,
        "8916": 78,
        "8917": 161,
        "8918": 139,
        "8919": 211,
        "8920": 64,
        "8921": 38,
        "8922": 16,
        "8923": 172,
        "8924": 99,
        "8925": 121,
        "8926": 95,
        "8927": 1,
        "8928": 67,
        "8929": 212,
        "8930": 244,
        "8931": 33,
        "8932": 55,
        "8933": 134,
        "8934": 174,
        "8935": 213,
        "8936": 226,
        "8937": 213,
        "8938": 188,
        "8939": 179,
        "8940": 49,
        "8941": 17,
        "8942": 151,
        "8943": 250,
        "8944": 164,
        "8945": 156,
        "8946": 186,
        "8947": 231,
        "8948": 88,
        "8949": 248,
        "8950": 75,
        "8951": 213,
        "8952": 158,
        "8953": 22,
        "8954": 74,
        "8955": 181,
        "8956": 181,
        "8957": 28,
        "8958": 128,
        "8959": 201,
        "8960": 18,
        "8961": 176,
        "8962": 199,
        "8963": 76,
        "8964": 121,
        "8965": 192,
        "8966": 239,
        "8967": 158,
        "8968": 208,
        "8969": 120,
        "8970": 105,
        "8971": 33,
        "8972": 181,
        "8973": 28,
        "8974": 80,
        "8975": 52,
        "8976": 33,
        "8977": 34,
        "8978": 111,
        "8979": 70,
        "8980": 164,
        "8981": 99,
        "8982": 234,
        "8983": 59,
        "8984": 227,
        "8985": 136,
        "8986": 237,
        "8987": 254,
        "8988": 176,
        "8989": 209,
        "8990": 141,
        "8991": 31,
        "8992": 47,
        "8993": 109,
        "8994": 59,
        "8995": 166,
        "8996": 253,
        "8997": 59,
        "8998": 159,
        "8999": 135,
        "9000": 55,
        "9001": 21,
        "9002": 216,
        "9003": 140,
        "9004": 243,
        "9005": 165,
        "9006": 105,
        "9007": 194,
        "9008": 217,
        "9009": 130,
        "9010": 165,
        "9011": 109,
        "9012": 82,
        "9013": 204,
        "9014": 122,
        "9015": 209,
        "9016": 26,
        "9017": 84,
        "9018": 196,
        "9019": 190,
        "9020": 186,
        "9021": 3,
        "9022": 23,
        "9023": 6,
        "9024": 24,
        "9025": 27,
        "9026": 87,
        "9027": 13,
        "9028": 95,
        "9029": 88,
        "9030": 110,
        "9031": 71,
        "9032": 37,
        "9033": 179,
        "9034": 222,
        "9035": 129,
        "9036": 62,
        "9037": 186,
        "9038": 19,
        "9039": 34,
        "9040": 174,
        "9041": 226,
        "9042": 37,
        "9043": 45,
        "9044": 100,
        "9045": 224,
        "9046": 114,
        "9047": 116,
        "9048": 37,
        "9049": 174,
        "9050": 191,
        "9051": 187,
        "9052": 18,
        "9053": 24,
        "9054": 200,
        "9055": 50,
        "9056": 93,
        "9057": 9,
        "9058": 24,
        "9059": 15,
        "9060": 8,
        "9061": 170,
        "9062": 103,
        "9063": 137,
        "9064": 226,
        "9065": 217,
        "9066": 154,
        "9067": 91,
        "9068": 61,
        "9069": 247,
        "9070": 212,
        "9071": 239,
        "9072": 96,
        "9073": 199,
        "9074": 123,
        "9075": 64,
        "9076": 38,
        "9077": 24,
        "9078": 213,
        "9079": 44,
        "9080": 8,
        "9081": 217,
        "9082": 250,
        "9083": 183,
        "9084": 218,
        "9085": 156,
        "9086": 88,
        "9087": 122,
        "9088": 4,
        "9089": 19,
        "9090": 144,
        "9091": 150,
        "9092": 29,
        "9093": 235,
        "9094": 67,
        "9095": 97,
        "9096": 8,
        "9097": 86,
        "9098": 234,
        "9099": 114,
        "9100": 205,
        "9101": 43,
        "9102": 221,
        "9103": 253,
        "9104": 111,
        "9105": 95,
        "9106": 161,
        "9107": 175,
        "9108": 129,
        "9109": 226,
        "9110": 197,
        "9111": 64,
        "9112": 148,
        "9113": 110,
        "9114": 89,
        "9115": 196,
        "9116": 211,
        "9117": 156,
        "9118": 202,
        "9119": 204,
        "9120": 33,
        "9121": 250,
        "9122": 236,
        "9123": 200,
        "9124": 252,
        "9125": 212,
        "9126": 78,
        "9127": 205,
        "9128": 84,
        "9129": 237,
        "9130": 99,
        "9131": 17,
        "9132": 227,
        "9133": 18,
        "9134": 62,
        "9135": 79,
        "9136": 215,
        "9137": 117,
        "9138": 134,
        "9139": 126,
        "9140": 227,
        "9141": 186,
        "9142": 38,
        "9143": 45,
        "9144": 152,
        "9145": 235,
        "9146": 159,
        "9147": 54,
        "9148": 46,
        "9149": 0,
        "9150": 143,
        "9151": 87,
        "9152": 24,
        "9153": 229,
        "9154": 103,
        "9155": 128,
        "9156": 208,
        "9157": 10,
        "9158": 155,
        "9159": 80,
        "9160": 76,
        "9161": 168,
        "9162": 106,
        "9163": 92,
        "9164": 85,
        "9165": 179,
        "9166": 255,
        "9167": 168,
        "9168": 214,
        "9169": 40,
        "9170": 249,
        "9171": 0,
        "9172": 248,
        "9173": 212,
        "9174": 64,
        "9175": 225,
        "9176": 17,
        "9177": 20,
        "9178": 122,
        "9179": 108,
        "9180": 45,
        "9181": 228,
        "9182": 18,
        "9183": 160,
        "9184": 117,
        "9185": 198,
        "9186": 37,
        "9187": 72,
        "9188": 105,
        "9189": 80,
        "9190": 238,
        "9191": 131,
        "9192": 28,
        "9193": 146,
        "9194": 207,
        "9195": 107,
        "9196": 100,
        "9197": 109,
        "9198": 234,
        "9199": 11,
        "9200": 184,
        "9201": 151,
        "9202": 232,
        "9203": 64,
        "9204": 212,
        "9205": 44,
        "9206": 24,
        "9207": 24,
        "9208": 81,
        "9209": 81,
        "9210": 70,
        "9211": 89,
        "9212": 189,
        "9213": 50,
        "9214": 196,
        "9215": 180,
        "9216": 132,
        "9217": 138,
        "9218": 1,
        "9219": 68,
        "9220": 192,
        "9221": 132,
        "9222": 22,
        "9223": 248,
        "9224": 22,
        "9225": 21,
        "9226": 24,
        "9227": 185,
        "9228": 113,
        "9229": 7,
        "9230": 32,
        "9231": 93,
        "9232": 23,
        "9233": 240,
        "9234": 35,
        "9235": 94,
        "9236": 67,
        "9237": 43,
        "9238": 88,
        "9239": 181,
        "9240": 59,
        "9241": 87,
        "9242": 134,
        "9243": 46,
        "9244": 74,
        "9245": 126,
        "9246": 107,
        "9247": 195,
        "9248": 33,
        "9249": 202,
        "9250": 142,
        "9251": 221,
        "9252": 20,
        "9253": 93,
        "9254": 230,
        "9255": 76,
        "9256": 113,
        "9257": 21,
        "9258": 1,
        "9259": 0,
        "9260": 70,
        "9261": 81,
        "9262": 217,
        "9263": 163,
        "9264": 67,
        "9265": 157,
        "9266": 190,
        "9267": 54,
        "9268": 115,
        "9269": 179,
        "9270": 45,
        "9271": 148,
        "9272": 14,
        "9273": 15,
        "9274": 105,
        "9275": 59,
        "9276": 107,
        "9277": 253,
        "9278": 230,
        "9279": 82,
        "9280": 157,
        "9281": 38,
        "9282": 140,
        "9283": 232,
        "9284": 57,
        "9285": 238,
        "9286": 43,
        "9287": 181,
        "9288": 61,
        "9289": 18,
        "9290": 94,
        "9291": 19,
        "9292": 54,
        "9293": 208,
        "9294": 223,
        "9295": 194,
        "9296": 155,
        "9297": 242,
        "9298": 245,
        "9299": 169,
        "9300": 158,
        "9301": 243,
        "9302": 127,
        "9303": 103,
        "9304": 7,
        "9305": 235,
        "9306": 31,
        "9307": 250,
        "9308": 94,
        "9309": 216,
        "9310": 126,
        "9311": 221,
        "9312": 23,
        "9313": 248,
        "9314": 247,
        "9315": 99,
        "9316": 180,
        "9317": 4,
        "9318": 108,
        "9319": 185,
        "9320": 178,
        "9321": 213,
        "9322": 103,
        "9323": 29,
        "9324": 95,
        "9325": 244,
        "9326": 73,
        "9327": 93,
        "9328": 253,
        "9329": 23,
        "9330": 65,
        "9331": 216,
        "9332": 220,
        "9333": 51,
        "9334": 181,
        "9335": 53,
        "9336": 169,
        "9337": 255,
        "9338": 50,
        "9339": 122,
        "9340": 181,
        "9341": 217,
        "9342": 123,
        "9343": 196,
        "9344": 189,
        "9345": 123,
        "9346": 31,
        "9347": 230,
        "9348": 144,
        "9349": 158,
        "9350": 198,
        "9351": 134,
        "9352": 170,
        "9353": 62,
        "9354": 167,
        "9355": 128,
        "9356": 154,
        "9357": 79,
        "9358": 78,
        "9359": 60,
        "9360": 2,
        "9361": 85,
        "9362": 138,
        "9363": 116,
        "9364": 130,
        "9365": 212,
        "9366": 162,
        "9367": 225,
        "9368": 222,
        "9369": 205,
        "9370": 122,
        "9371": 252,
        "9372": 199,
        "9373": 81,
        "9374": 61,
        "9375": 226,
        "9376": 200,
        "9377": 160,
        "9378": 99,
        "9379": 58,
        "9380": 38,
        "9381": 46,
        "9382": 73,
        "9383": 79,
        "9384": 17,
        "9385": 114,
        "9386": 44,
        "9387": 62,
        "9388": 242,
        "9389": 73,
        "9390": 35,
        "9391": 163,
        "9392": 210,
        "9393": 191,
        "9394": 244,
        "9395": 84,
        "9396": 100,
        "9397": 72,
        "9398": 134,
        "9399": 244,
        "9400": 134,
        "9401": 141,
        "9402": 104,
        "9403": 227,
        "9404": 111,
        "9405": 109,
        "9406": 175,
        "9407": 165,
        "9408": 106,
        "9409": 63,
        "9410": 53,
        "9411": 66,
        "9412": 80,
        "9413": 117,
        "9414": 19,
        "9415": 130,
        "9416": 7,
        "9417": 171,
        "9418": 17,
        "9419": 176,
        "9420": 3,
        "9421": 77,
        "9422": 209,
        "9423": 106,
        "9424": 243,
        "9425": 83,
        "9426": 43,
        "9427": 48,
        "9428": 235,
        "9429": 229,
        "9430": 82,
        "9431": 156,
        "9432": 11,
        "9433": 93,
        "9434": 71,
        "9435": 54,
        "9436": 240,
        "9437": 19,
        "9438": 195,
        "9439": 217,
        "9440": 236,
        "9441": 102,
        "9442": 117,
        "9443": 208,
        "9444": 170,
        "9445": 120,
        "9446": 234,
        "9447": 205,
        "9448": 171,
        "9449": 36,
        "9450": 252,
        "9451": 230,
        "9452": 160,
        "9453": 56,
        "9454": 4,
        "9455": 110,
        "9456": 207,
        "9457": 41,
        "9458": 228,
        "9459": 51,
        "9460": 142,
        "9461": 21,
        "9462": 107,
        "9463": 203,
        "9464": 189,
        "9465": 113,
        "9466": 98,
        "9467": 247,
        "9468": 239,
        "9469": 165,
        "9470": 254,
        "9471": 215,
        "9472": 255,
        "9473": 182,
        "9474": 149,
        "9475": 225,
        "9476": 249,
        "9477": 214,
        "9478": 125,
        "9479": 245,
        "9480": 215,
        "9481": 35,
        "9482": 188,
        "9483": 97,
        "9484": 71,
        "9485": 122,
        "9486": 24,
        "9487": 174,
        "9488": 236,
        "9489": 91,
        "9490": 225,
        "9491": 248,
        "9492": 125,
        "9493": 30,
        "9494": 68,
        "9495": 180,
        "9496": 150,
        "9497": 212,
        "9498": 113,
        "9499": 187,
        "9500": 80,
        "9501": 153,
        "9502": 93,
        "9503": 39,
        "9504": 229,
        "9505": 145,
        "9506": 87,
        "9507": 135,
        "9508": 72,
        "9509": 93,
        "9510": 124,
        "9511": 234,
        "9512": 175,
        "9513": 103,
        "9514": 248,
        "9515": 105,
        "9516": 223,
        "9517": 113,
        "9518": 212,
        "9519": 241,
        "9520": 141,
        "9521": 164,
        "9522": 151,
        "9523": 120,
        "9524": 186,
        "9525": 90,
        "9526": 215,
        "9527": 31,
        "9528": 20,
        "9529": 116,
        "9530": 134,
        "9531": 51,
        "9532": 76,
        "9533": 180,
        "9534": 84,
        "9535": 35,
        "9536": 148,
        "9537": 25,
        "9538": 182,
        "9539": 183,
        "9540": 78,
        "9541": 251,
        "9542": 249,
        "9543": 177,
        "9544": 89,
        "9545": 77,
        "9546": 125,
        "9547": 171,
        "9548": 168,
        "9549": 196,
        "9550": 242,
        "9551": 26,
        "9552": 131,
        "9553": 169,
        "9554": 193,
        "9555": 229,
        "9556": 99,
        "9557": 57,
        "9558": 235,
        "9559": 245,
        "9560": 8,
        "9561": 156,
        "9562": 72,
        "9563": 138,
        "9564": 232,
        "9565": 219,
        "9566": 207,
        "9567": 182,
        "9568": 67,
        "9569": 203,
        "9570": 59,
        "9571": 30,
        "9572": 213,
        "9573": 51,
        "9574": 135,
        "9575": 212,
        "9576": 10,
        "9577": 178,
        "9578": 121,
        "9579": 63,
        "9580": 30,
        "9581": 173,
        "9582": 5,
        "9583": 142,
        "9584": 241,
        "9585": 253,
        "9586": 170,
        "9587": 32,
        "9588": 107,
        "9589": 233,
        "9590": 98,
        "9591": 6,
        "9592": 125,
        "9593": 193,
        "9594": 204,
        "9595": 16,
        "9596": 133,
        "9597": 196,
        "9598": 79,
        "9599": 178,
        "9600": 184,
        "9601": 110,
        "9602": 217,
        "9603": 220,
        "9604": 231,
        "9605": 15,
        "9606": 113,
        "9607": 41,
        "9608": 251,
        "9609": 49,
        "9610": 203,
        "9611": 237,
        "9612": 234,
        "9613": 74,
        "9614": 71,
        "9615": 153,
        "9616": 187,
        "9617": 48,
        "9618": 229,
        "9619": 210,
        "9620": 25,
        "9621": 6,
        "9622": 198,
        "9623": 55,
        "9624": 237,
        "9625": 219,
        "9626": 202,
        "9627": 232,
        "9628": 167,
        "9629": 151,
        "9630": 138,
        "9631": 96,
        "9632": 158,
        "9633": 49,
        "9634": 139,
        "9635": 159,
        "9636": 207,
        "9637": 94,
        "9638": 175,
        "9639": 248,
        "9640": 217,
        "9641": 112,
        "9642": 115,
        "9643": 9,
        "9644": 87,
        "9645": 76,
        "9646": 37,
        "9647": 229,
        "9648": 42,
        "9649": 230,
        "9650": 240,
        "9651": 6,
        "9652": 56,
        "9653": 11,
        "9654": 6,
        "9655": 220,
        "9656": 130,
        "9657": 31,
        "9658": 101,
        "9659": 34,
        "9660": 109,
        "9661": 231,
        "9662": 110,
        "9663": 33,
        "9664": 10,
        "9665": 52,
        "9666": 135,
        "9667": 63,
        "9668": 69,
        "9669": 225,
        "9670": 198,
        "9671": 117,
        "9672": 173,
        "9673": 10,
        "9674": 41,
        "9675": 163,
        "9676": 48,
        "9677": 29,
        "9678": 44,
        "9679": 190,
        "9680": 191,
        "9681": 108,
        "9682": 28,
        "9683": 9,
        "9684": 243,
        "9685": 127,
        "9686": 132,
        "9687": 249,
        "9688": 126,
        "9689": 141,
        "9690": 15,
        "9691": 159,
        "9692": 48,
        "9693": 13,
        "9694": 59,
        "9695": 187,
        "9696": 173,
        "9697": 85,
        "9698": 163,
        "9699": 143,
        "9700": 130,
        "9701": 144,
        "9702": 246,
        "9703": 184,
        "9704": 49,
        "9705": 35,
        "9706": 62,
        "9707": 43,
        "9708": 73,
        "9709": 170,
        "9710": 24,
        "9711": 145,
        "9712": 55,
        "9713": 45,
        "9714": 177,
        "9715": 131,
        "9716": 59,
        "9717": 218,
        "9718": 106,
        "9719": 155,
        "9720": 209,
        "9721": 113,
        "9722": 54,
        "9723": 126,
        "9724": 139,
        "9725": 33,
        "9726": 77,
        "9727": 94,
        "9728": 131,
        "9729": 227,
        "9730": 43,
        "9731": 70,
        "9732": 206,
        "9733": 53,
        "9734": 115,
        "9735": 60,
        "9736": 95,
        "9737": 188,
        "9738": 115,
        "9739": 159,
        "9740": 182,
        "9741": 136,
        "9742": 30,
        "9743": 77,
        "9744": 68,
        "9745": 190,
        "9746": 51,
        "9747": 184,
        "9748": 84,
        "9749": 202,
        "9750": 212,
        "9751": 84,
        "9752": 181,
        "9753": 125,
        "9754": 233,
        "9755": 15,
        "9756": 37,
        "9757": 253,
        "9758": 120,
        "9759": 254,
        "9760": 197,
        "9761": 210,
        "9762": 157,
        "9763": 28,
        "9764": 101,
        "9765": 213,
        "9766": 199,
        "9767": 145,
        "9768": 231,
        "9769": 6,
        "9770": 1,
        "9771": 0,
        "9772": 99,
        "9773": 95,
        "9774": 37,
        "9775": 229,
        "9776": 114,
        "9777": 0,
        "9778": 110,
        "9779": 230,
        "9780": 164,
        "9781": 122,
        "9782": 27,
        "9783": 184,
        "9784": 10,
        "9785": 180,
        "9786": 65,
        "9787": 237,
        "9788": 91,
        "9789": 227,
        "9790": 2,
        "9791": 27,
        "9792": 192,
        "9793": 58,
        "9794": 151,
        "9795": 107,
        "9796": 216,
        "9797": 148,
        "9798": 139,
        "9799": 158,
        "9800": 244,
        "9801": 41,
        "9802": 146,
        "9803": 78,
        "9804": 152,
        "9805": 83,
        "9806": 5,
        "9807": 153,
        "9808": 229,
        "9809": 3,
        "9810": 53,
        "9811": 15,
        "9812": 79,
        "9813": 25,
        "9814": 219,
        "9815": 127,
        "9816": 76,
        "9817": 249,
        "9818": 65,
        "9819": 185,
        "9820": 166,
        "9821": 212,
        "9822": 98,
        "9823": 250,
        "9824": 194,
        "9825": 164,
        "9826": 49,
        "9827": 189,
        "9828": 102,
        "9829": 110,
        "9830": 18,
        "9831": 4,
        "9832": 113,
        "9833": 6,
        "9834": 78,
        "9835": 143,
        "9836": 166,
        "9837": 214,
        "9838": 75,
        "9839": 68,
        "9840": 80,
        "9841": 198,
        "9842": 191,
        "9843": 79,
        "9844": 189,
        "9845": 55,
        "9846": 4,
        "9847": 138,
        "9848": 75,
        "9849": 143,
        "9850": 173,
        "9851": 167,
        "9852": 5,
        "9853": 152,
        "9854": 50,
        "9855": 192,
        "9856": 74,
        "9857": 4,
        "9858": 109,
        "9859": 104,
        "9860": 184,
        "9861": 193,
        "9862": 40,
        "9863": 96,
        "9864": 166,
        "9865": 136,
        "9866": 109,
        "9867": 155,
        "9868": 4,
        "9869": 35,
        "9870": 247,
        "9871": 81,
        "9872": 124,
        "9873": 242,
        "9874": 92,
        "9875": 218,
        "9876": 137,
        "9877": 122,
        "9878": 62,
        "9879": 217,
        "9880": 86,
        "9881": 241,
        "9882": 58,
        "9883": 203,
        "9884": 182,
        "9885": 162,
        "9886": 12,
        "9887": 1,
        "9888": 66,
        "9889": 62,
        "9890": 18,
        "9891": 29,
        "9892": 162,
        "9893": 164,
        "9894": 193,
        "9895": 102,
        "9896": 206,
        "9897": 42,
        "9898": 186,
        "9899": 140,
        "9900": 110,
        "9901": 191,
        "9902": 245,
        "9903": 60,
        "9904": 102,
        "9905": 179,
        "9906": 117,
        "9907": 116,
        "9908": 77,
        "9909": 132,
        "9910": 130,
        "9911": 85,
        "9912": 209,
        "9913": 46,
        "9914": 108,
        "9915": 3,
        "9916": 193,
        "9917": 178,
        "9918": 108,
        "9919": 5,
        "9920": 121,
        "9921": 146,
        "9922": 31,
        "9923": 3,
        "9924": 165,
        "9925": 39,
        "9926": 211,
        "9927": 60,
        "9928": 0,
        "9929": 38,
        "9930": 65,
        "9931": 55,
        "9932": 188,
        "9933": 70,
        "9934": 169,
        "9935": 219,
        "9936": 85,
        "9937": 215,
        "9938": 191,
        "9939": 34,
        "9940": 63,
        "9941": 27,
        "9942": 77,
        "9943": 30,
        "9944": 85,
        "9945": 69,
        "9946": 16,
        "9947": 44,
        "9948": 19,
        "9949": 198,
        "9950": 99,
        "9951": 126,
        "9952": 6,
        "9953": 152,
        "9954": 1,
        "9955": 23,
        "9956": 114,
        "9957": 14,
        "9958": 78,
        "9959": 169,
        "9960": 49,
        "9961": 106,
        "9962": 197,
        "9963": 137,
        "9964": 19,
        "9965": 215,
        "9966": 79,
        "9967": 191,
        "9968": 18,
        "9969": 251,
        "9970": 216,
        "9971": 204,
        "9972": 188,
        "9973": 148,
        "9974": 255,
        "9975": 229,
        "9976": 76,
        "9977": 230,
        "9978": 183,
        "9979": 123,
        "9980": 12,
        "9981": 15,
        "9982": 49,
        "9983": 19,
        "9984": 45,
        "9985": 127,
        "9986": 201,
        "9987": 236,
        "9988": 130,
        "9989": 53,
        "9990": 183,
        "9991": 14,
        "9992": 156,
        "9993": 149,
        "9994": 86,
        "9995": 215,
        "9996": 73,
        "9997": 99,
        "9998": 58,
        "9999": 221,
        "10000": 245,
        "10001": 42,
        "10002": 56,
        "10003": 82,
        "10004": 229,
        "10005": 142,
        "10006": 61,
        "10007": 109,
        "10008": 0,
        "10009": 0,
        "10010": 55,
        "10011": 157,
        "10012": 18,
        "10013": 37,
        "10014": 229,
        "10015": 233,
        "10016": 230,
        "10017": 11,
        "10018": 194,
        "10019": 230,
        "10020": 78,
        "10021": 68,
        "10022": 205,
        "10023": 167,
        "10024": 158,
        "10025": 29,
        "10026": 106,
        "10027": 148,
        "10028": 14,
        "10029": 69,
        "10030": 110,
        "10031": 207,
        "10032": 4,
        "10033": 143,
        "10034": 239,
        "10035": 102,
        "10036": 78,
        "10037": 16,
        "10038": 52,
        "10039": 97,
        "10040": 187,
        "10041": 63,
        "10042": 80,
        "10043": 118,
        "10044": 1,
        "10045": 144,
        "10046": 5,
        "10047": 183,
        "10048": 152,
        "10049": 182,
        "10050": 253,
        "10051": 91,
        "10052": 33,
        "10053": 6,
        "10054": 14,
        "10055": 137,
        "10056": 210,
        "10057": 143,
        "10058": 138,
        "10059": 158,
        "10060": 22,
        "10061": 98,
        "10062": 197,
        "10063": 120,
        "10064": 113,
        "10065": 47,
        "10066": 193,
        "10067": 48,
        "10068": 98,
        "10069": 166,
        "10070": 180,
        "10071": 39,
        "10072": 132,
        "10073": 191,
        "10074": 192,
        "10075": 94,
        "10076": 110,
        "10077": 232,
        "10078": 20,
        "10079": 11,
        "10080": 116,
        "10081": 19,
        "10082": 70,
        "10083": 180,
        "10084": 135,
        "10085": 243,
        "10086": 190,
        "10087": 52,
        "10088": 135,
        "10089": 116,
        "10090": 219,
        "10091": 240,
        "10092": 107,
        "10093": 100,
        "10094": 165,
        "10095": 96,
        "10096": 124,
        "10097": 140,
        "10098": 206,
        "10099": 121,
        "10100": 191,
        "10101": 230,
        "10102": 195,
        "10103": 175,
        "10104": 29,
        "10105": 165,
        "10106": 14,
        "10107": 119,
        "10108": 142,
        "10109": 87,
        "10110": 2,
        "10111": 194,
        "10112": 231,
        "10113": 133,
        "10114": 55,
        "10115": 36,
        "10116": 200,
        "10117": 96,
        "10118": 133,
        "10119": 95,
        "10120": 240,
        "10121": 129,
        "10122": 194,
        "10123": 169,
        "10124": 37,
        "10125": 92,
        "10126": 56,
        "10127": 227,
        "10128": 35,
        "10129": 130,
        "10130": 10,
        "10131": 25,
        "10132": 25,
        "10133": 13,
        "10134": 52,
        "10135": 59,
        "10136": 146,
        "10137": 97,
        "10138": 153,
        "10139": 123,
        "10140": 220,
        "10141": 233,
        "10142": 11,
        "10143": 10,
        "10144": 242,
        "10145": 50,
        "10146": 99,
        "10147": 133,
        "10148": 41,
        "10149": 100,
        "10150": 78,
        "10151": 83,
        "10152": 160,
        "10153": 240,
        "10154": 132,
        "10155": 249,
        "10156": 182,
        "10157": 61,
        "10158": 178,
        "10159": 175,
        "10160": 112,
        "10161": 204,
        "10162": 191,
        "10163": 96,
        "10164": 202,
        "10165": 22,
        "10166": 203,
        "10167": 180,
        "10168": 113,
        "10169": 245,
        "10170": 8,
        "10171": 251,
        "10172": 5,
        "10173": 114,
        "10174": 106,
        "10175": 6,
        "10176": 225,
        "10177": 168,
        "10178": 177,
        "10179": 244,
        "10180": 47,
        "10181": 250,
        "10182": 76,
        "10183": 107,
        "10184": 203,
        "10185": 237,
        "10186": 14,
        "10187": 45,
        "10188": 69,
        "10189": 68,
        "10190": 252,
        "10191": 117,
        "10192": 11,
        "10193": 162,
        "10194": 89,
        "10195": 252,
        "10196": 137,
        "10197": 221,
        "10198": 56,
        "10199": 204,
        "10200": 85,
        "10201": 1,
        "10202": 86,
        "10203": 217,
        "10204": 67,
        "10205": 60,
        "10206": 119,
        "10207": 224,
        "10208": 36,
        "10209": 67,
        "10210": 98,
        "10211": 133,
        "10212": 142,
        "10213": 218,
        "10214": 127,
        "10215": 63,
        "10216": 160,
        "10217": 134,
        "10218": 148,
        "10219": 217,
        "10220": 95,
        "10221": 1,
        "10222": 103,
        "10223": 47,
        "10224": 154,
        "10225": 56,
        "10226": 172,
        "10227": 98,
        "10228": 43,
        "10229": 134,
        "10230": 170,
        "10231": 37,
        "10232": 91,
        "10233": 182,
        "10234": 65,
        "10235": 141,
        "10236": 114,
        "10237": 217,
        "10238": 105,
        "10239": 176,
        "10240": 84,
        "10241": 64,
        "10242": 102,
        "10243": 169,
        "10244": 71,
        "10245": 188,
        "10246": 63,
        "10247": 3,
        "10248": 99,
        "10249": 112,
        "10250": 73,
        "10251": 55,
        "10252": 17,
        "10253": 122,
        "10254": 202,
        "10255": 203,
        "10256": 179,
        "10257": 81,
        "10258": 87,
        "10259": 82,
        "10260": 119,
        "10261": 30,
        "10262": 158,
        "10263": 194,
        "10264": 129,
        "10265": 219,
        "10266": 113,
        "10267": 238,
        "10268": 20,
        "10269": 138,
        "10270": 209,
        "10271": 196,
        "10272": 25,
        "10273": 193,
        "10274": 63,
        "10275": 32,
        "10276": 210,
        "10277": 159,
        "10278": 252,
        "10279": 55,
        "10280": 52,
        "10281": 145,
        "10282": 216,
        "10283": 110,
        "10284": 93,
        "10285": 190,
        "10286": 226,
        "10287": 253,
        "10288": 137,
        "10289": 8,
        "10290": 242,
        "10291": 68,
        "10292": 144,
        "10293": 144,
        "10294": 49,
        "10295": 142,
        "10296": 56,
        "10297": 172,
        "10298": 64,
        "10299": 10,
        "10300": 97,
        "10301": 226,
        "10302": 32,
        "10303": 240,
        "10304": 138,
        "10305": 102,
        "10306": 63,
        "10307": 127,
        "10308": 97,
        "10309": 120,
        "10310": 114,
        "10311": 43,
        "10312": 186,
        "10313": 93,
        "10314": 75,
        "10315": 35,
        "10316": 167,
        "10317": 207,
        "10318": 246,
        "10319": 88,
        "10320": 42,
        "10321": 139,
        "10322": 127,
        "10323": 100,
        "10324": 115,
        "10325": 47,
        "10326": 111,
        "10327": 150,
        "10328": 7,
        "10329": 197,
        "10330": 71,
        "10331": 135,
        "10332": 101,
        "10333": 224,
        "10334": 155,
        "10335": 102,
        "10336": 105,
        "10337": 224,
        "10338": 255,
        "10339": 168,
        "10340": 243,
        "10341": 108,
        "10342": 189,
        "10343": 121,
        "10344": 214,
        "10345": 43,
        "10346": 160,
        "10347": 63,
        "10348": 54,
        "10349": 177,
        "10350": 172,
        "10351": 172,
        "10352": 206,
        "10353": 121,
        "10354": 53,
        "10355": 97,
        "10356": 207,
        "10357": 118,
        "10358": 214,
        "10359": 199,
        "10360": 72,
        "10361": 93,
        "10362": 220,
        "10363": 211,
        "10364": 131,
        "10365": 80,
        "10366": 162,
        "10367": 77,
        "10368": 205,
        "10369": 55,
        "10370": 71,
        "10371": 132,
        "10372": 184,
        "10373": 187,
        "10374": 236,
        "10375": 87,
        "10376": 177,
        "10377": 217,
        "10378": 154,
        "10379": 167,
        "10380": 44,
        "10381": 166,
        "10382": 66,
        "10383": 225,
        "10384": 16,
        "10385": 163,
        "10386": 169,
        "10387": 16,
        "10388": 230,
        "10389": 60,
        "10390": 102,
        "10391": 244,
        "10392": 251,
        "10393": 12,
        "10394": 224,
        "10395": 121,
        "10396": 56,
        "10397": 6,
        "10398": 18,
        "10399": 5,
        "10400": 160,
        "10401": 67,
        "10402": 55,
        "10403": 134,
        "10404": 94,
        "10405": 186,
        "10406": 254,
        "10407": 121,
        "10408": 46,
        "10409": 28,
        "10410": 30,
        "10411": 206,
        "10412": 84,
        "10413": 85,
        "10414": 67,
        "10415": 21,
        "10416": 34,
        "10417": 111,
        "10418": 203,
        "10419": 18,
        "10420": 228,
        "10421": 210,
        "10422": 217,
        "10423": 216,
        "10424": 62,
        "10425": 197,
        "10426": 174,
        "10427": 32,
        "10428": 145,
        "10429": 238,
        "10430": 0,
        "10431": 5,
        "10432": 113,
        "10433": 235,
        "10434": 0,
        "10435": 185,
        "10436": 114,
        "10437": 156,
        "10438": 51,
        "10439": 72,
        "10440": 225,
        "10441": 145,
        "10442": 189,
        "10443": 229,
        "10444": 56,
        "10445": 189,
        "10446": 180,
        "10447": 87,
        "10448": 35,
        "10449": 147,
        "10450": 1,
        "10451": 177,
        "10452": 126,
        "10453": 79,
        "10454": 236,
        "10455": 181,
        "10456": 200,
        "10457": 132,
        "10458": 210,
        "10459": 116,
        "10460": 174,
        "10461": 237,
        "10462": 104,
        "10463": 34,
        "10464": 243,
        "10465": 144,
        "10466": 10,
        "10467": 13,
        "10468": 175,
        "10469": 26,
        "10470": 238,
        "10471": 94,
        "10472": 238,
        "10473": 230,
        "10474": 174,
        "10475": 252,
        "10476": 182,
        "10477": 48,
        "10478": 200,
        "10479": 92,
        "10480": 67,
        "10481": 37,
        "10482": 230,
        "10483": 249,
        "10484": 42,
        "10485": 167,
        "10486": 4,
        "10487": 29,
        "10488": 58,
        "10489": 205,
        "10490": 29,
        "10491": 88,
        "10492": 123,
        "10493": 79,
        "10494": 217,
        "10495": 34,
        "10496": 133,
        "10497": 20,
        "10498": 123,
        "10499": 235,
        "10500": 137,
        "10501": 233,
        "10502": 106,
        "10503": 85,
        "10504": 254,
        "10505": 123,
        "10506": 77,
        "10507": 116,
        "10508": 170,
        "10509": 154,
        "10510": 51,
        "10511": 240,
        "10512": 49,
        "10513": 94,
        "10514": 232,
        "10515": 11,
        "10516": 125,
        "10517": 85,
        "10518": 220,
        "10519": 84,
        "10520": 139,
        "10521": 145,
        "10522": 201,
        "10523": 183,
        "10524": 17,
        "10525": 48,
        "10526": 6,
        "10527": 202,
        "10528": 29,
        "10529": 60,
        "10530": 43,
        "10531": 204,
        "10532": 186,
        "10533": 127,
        "10534": 31,
        "10535": 71,
        "10536": 86,
        "10537": 127,
        "10538": 17,
        "10539": 162,
        "10540": 0,
        "10541": 81,
        "10542": 180,
        "10543": 12,
        "10544": 211,
        "10545": 156,
        "10546": 204,
        "10547": 5,
        "10548": 224,
        "10549": 207,
        "10550": 80,
        "10551": 130,
        "10552": 210,
        "10553": 216,
        "10554": 191,
        "10555": 165,
        "10556": 89,
        "10557": 96,
        "10558": 254,
        "10559": 164,
        "10560": 31,
        "10561": 161,
        "10562": 148,
        "10563": 173,
        "10564": 170,
        "10565": 72,
        "10566": 212,
        "10567": 253,
        "10568": 21,
        "10569": 113,
        "10570": 226,
        "10571": 213,
        "10572": 165,
        "10573": 218,
        "10574": 121,
        "10575": 179,
        "10576": 162,
        "10577": 147,
        "10578": 196,
        "10579": 221,
        "10580": 72,
        "10581": 131,
        "10582": 249,
        "10583": 183,
        "10584": 146,
        "10585": 96,
        "10586": 51,
        "10587": 138,
        "10588": 97,
        "10589": 199,
        "10590": 188,
        "10591": 196,
        "10592": 122,
        "10593": 5,
        "10594": 158,
        "10595": 132,
        "10596": 133,
        "10597": 110,
        "10598": 238,
        "10599": 193,
        "10600": 72,
        "10601": 229,
        "10602": 137,
        "10603": 1,
        "10604": 132,
        "10605": 67,
        "10606": 202,
        "10607": 12,
        "10608": 67,
        "10609": 29,
        "10610": 140,
        "10611": 11,
        "10612": 186,
        "10613": 31,
        "10614": 178,
        "10615": 177,
        "10616": 32,
        "10617": 162,
        "10618": 70,
        "10619": 86,
        "10620": 214,
        "10621": 35,
        "10622": 153,
        "10623": 0,
        "10624": 28,
        "10625": 73,
        "10626": 82,
        "10627": 46,
        "10628": 241,
        "10629": 143,
        "10630": 183,
        "10631": 85,
        "10632": 229,
        "10633": 141,
        "10634": 184,
        "10635": 126,
        "10636": 248,
        "10637": 68,
        "10638": 45,
        "10639": 91,
        "10640": 206,
        "10641": 130,
        "10642": 45,
        "10643": 221,
        "10644": 177,
        "10645": 107,
        "10646": 46,
        "10647": 155,
        "10648": 0,
        "10649": 223,
        "10650": 255,
        "10651": 39,
        "10652": 124,
        "10653": 38,
        "10654": 70,
        "10655": 201,
        "10656": 139,
        "10657": 187,
        "10658": 139,
        "10659": 162,
        "10660": 222,
        "10661": 250,
        "10662": 35,
        "10663": 167,
        "10664": 229,
        "10665": 13,
        "10666": 99,
        "10667": 190,
        "10668": 37,
        "10669": 120,
        "10670": 198,
        "10671": 63,
        "10672": 7,
        "10673": 87,
        "10674": 227,
        "10675": 2,
        "10676": 86,
        "10677": 74,
        "10678": 127,
        "10679": 168,
        "10680": 183,
        "10681": 87,
        "10682": 160,
        "10683": 65,
        "10684": 167,
        "10685": 220,
        "10686": 187,
        "10687": 113,
        "10688": 138,
        "10689": 160,
        "10690": 123,
        "10691": 96,
        "10692": 184,
        "10693": 136,
        "10694": 226,
        "10695": 236,
        "10696": 148,
        "10697": 234,
        "10698": 249,
        "10699": 138,
        "10700": 20,
        "10701": 134,
        "10702": 18,
        "10703": 60,
        "10704": 105,
        "10705": 79,
        "10706": 148,
        "10707": 198,
        "10708": 71,
        "10709": 214,
        "10710": 157,
        "10711": 17,
        "10712": 198,
        "10713": 30,
        "10714": 231,
        "10715": 198,
        "10716": 199,
        "10717": 158,
        "10718": 133,
        "10719": 168,
        "10720": 208,
        "10721": 85,
        "10722": 241,
        "10723": 60,
        "10724": 116,
        "10725": 220,
        "10726": 94,
        "10727": 217,
        "10728": 64,
        "10729": 89,
        "10730": 17,
        "10731": 159,
        "10732": 132,
        "10733": 118,
        "10734": 153,
        "10735": 28,
        "10736": 190,
        "10737": 42,
        "10738": 62,
        "10739": 201,
        "10740": 7,
        "10741": 208,
        "10742": 75,
        "10743": 80,
        "10744": 239,
        "10745": 6,
        "10746": 133,
        "10747": 162,
        "10748": 238,
        "10749": 195,
        "10750": 98,
        "10751": 152,
        "10752": 244,
        "10753": 232,
        "10754": 241,
        "10755": 215,
        "10756": 218,
        "10757": 192,
        "10758": 141,
        "10759": 167,
        "10760": 253,
        "10761": 145,
        "10762": 169,
        "10763": 37,
        "10764": 247,
        "10765": 86,
        "10766": 80,
        "10767": 59,
        "10768": 203,
        "10769": 105,
        "10770": 149,
        "10771": 20,
        "10772": 233,
        "10773": 64,
        "10774": 169,
        "10775": 181,
        "10776": 58,
        "10777": 190,
        "10778": 198,
        "10779": 238,
        "10780": 49,
        "10781": 116,
        "10782": 138,
        "10783": 104,
        "10784": 57,
        "10785": 95,
        "10786": 82,
        "10787": 185,
        "10788": 248,
        "10789": 75,
        "10790": 138,
        "10791": 47,
        "10792": 84,
        "10793": 68,
        "10794": 63,
        "10795": 141,
        "10796": 255,
        "10797": 196,
        "10798": 219,
        "10799": 56,
        "10800": 170,
        "10801": 197,
        "10802": 202,
        "10803": 198,
        "10804": 193,
        "10805": 67,
        "10806": 247,
        "10807": 48,
        "10808": 233,
        "10809": 94,
        "10810": 145,
        "10811": 138,
        "10812": 204,
        "10813": 248,
        "10814": 248,
        "10815": 149,
        "10816": 110,
        "10817": 237,
        "10818": 2,
        "10819": 102,
        "10820": 5,
        "10821": 75,
        "10822": 43,
        "10823": 124,
        "10824": 173,
        "10825": 230,
        "10826": 158,
        "10827": 159,
        "10828": 79,
        "10829": 214,
        "10830": 240,
        "10831": 40,
        "10832": 161,
        "10833": 216,
        "10834": 208,
        "10835": 35,
        "10836": 13,
        "10837": 162,
        "10838": 211,
        "10839": 176,
        "10840": 58,
        "10841": 128,
        "10842": 188,
        "10843": 183,
        "10844": 185,
        "10845": 84,
        "10846": 200,
        "10847": 202,
        "10848": 194,
        "10849": 166,
        "10850": 251,
        "10851": 245,
        "10852": 38,
        "10853": 86,
        "10854": 157,
        "10855": 142,
        "10856": 165,
        "10857": 130,
        "10858": 87,
        "10859": 69,
        "10860": 60,
        "10861": 190,
        "10862": 167,
        "10863": 87,
        "10864": 247,
        "10865": 98,
        "10866": 69,
        "10867": 144,
        "10868": 59,
        "10869": 116,
        "10870": 85,
        "10871": 186,
        "10872": 70,
        "10873": 121,
        "10874": 181,
        "10875": 160,
        "10876": 120,
        "10877": 204,
        "10878": 226,
        "10879": 225,
        "10880": 30,
        "10881": 123,
        "10882": 24,
        "10883": 102,
        "10884": 97,
        "10885": 228,
        "10886": 50,
        "10887": 82,
        "10888": 84,
        "10889": 9,
        "10890": 174,
        "10891": 66,
        "10892": 240,
        "10893": 181,
        "10894": 17,
        "10895": 152,
        "10896": 88,
        "10897": 109,
        "10898": 14,
        "10899": 229,
        "10900": 177,
        "10901": 132,
        "10902": 209,
        "10903": 159,
        "10904": 121,
        "10905": 88,
        "10906": 216,
        "10907": 199,
        "10908": 131,
        "10909": 132,
        "10910": 20,
        "10911": 250,
        "10912": 10,
        "10913": 112,
        "10914": 166,
        "10915": 57,
        "10916": 125,
        "10917": 48,
        "10918": 16,
        "10919": 188,
        "10920": 51,
        "10921": 139,
        "10922": 228,
        "10923": 176,
        "10924": 137,
        "10925": 135,
        "10926": 91,
        "10927": 53,
        "10928": 99,
        "10929": 196,
        "10930": 110,
        "10931": 202,
        "10932": 101,
        "10933": 206,
        "10934": 154,
        "10935": 204,
        "10936": 23,
        "10937": 66,
        "10938": 55,
        "10939": 235,
        "10940": 127,
        "10941": 19,
        "10942": 251,
        "10943": 39,
        "10944": 143,
        "10945": 197,
        "10946": 61,
        "10947": 172,
        "10948": 160,
        "10949": 183,
        "10950": 89,
        "10951": 83,
        "10952": 228,
        "10953": 247,
        "10954": 120,
        "10955": 139,
        "10956": 196,
        "10957": 69,
        "10958": 196,
        "10959": 92,
        "10960": 130,
        "10961": 65,
        "10962": 142,
        "10963": 186,
        "10964": 237,
        "10965": 139,
        "10966": 252,
        "10967": 140,
        "10968": 159,
        "10969": 8,
        "10970": 66,
        "10971": 26,
        "10972": 238,
        "10973": 37,
        "10974": 240,
        "10975": 235,
        "10976": 185,
        "10977": 187,
        "10978": 116,
        "10979": 153,
        "10980": 203,
        "10981": 183,
        "10982": 248,
        "10983": 90,
        "10984": 189,
        "10985": 224,
        "10986": 143,
        "10987": 112,
        "10988": 168,
        "10989": 134,
        "10990": 137,
        "10991": 155,
        "10992": 246,
        "10993": 108,
        "10994": 146,
        "10995": 76,
        "10996": 0,
        "10997": 171,
        "10998": 131,
        "10999": 210,
        "11000": 163,
        "11001": 73,
        "11002": 230,
        "11003": 222,
        "11004": 189,
        "11005": 242,
        "11006": 110,
        "11007": 195,
        "11008": 238,
        "11009": 96,
        "11010": 24,
        "11011": 123,
        "11012": 247,
        "11013": 85,
        "11014": 79,
        "11015": 243,
        "11016": 203,
        "11017": 64,
        "11018": 140,
        "11019": 129,
        "11020": 251,
        "11021": 101,
        "11022": 215,
        "11023": 81,
        "11024": 7,
        "11025": 247,
        "11026": 232,
        "11027": 34,
        "11028": 50,
        "11029": 9,
        "11030": 179,
        "11031": 232,
        "11032": 119,
        "11033": 92,
        "11034": 67,
        "11035": 174,
        "11036": 199,
        "11037": 131,
        "11038": 98,
        "11039": 159,
        "11040": 193,
        "11041": 247,
        "11042": 133,
        "11043": 134,
        "11044": 140,
        "11045": 233,
        "11046": 109,
        "11047": 7,
        "11048": 87,
        "11049": 197,
        "11050": 24,
        "11051": 109,
        "11052": 28,
        "11053": 117,
        "11054": 47,
        "11055": 190,
        "11056": 157,
        "11057": 73,
        "11058": 144,
        "11059": 14,
        "11060": 207,
        "11061": 190,
        "11062": 158,
        "11063": 14,
        "11064": 91,
        "11065": 57,
        "11066": 150,
        "11067": 44,
        "11068": 190,
        "11069": 180,
        "11070": 2,
        "11071": 102,
        "11072": 166,
        "11073": 215,
        "11074": 237,
        "11075": 87,
        "11076": 131,
        "11077": 183,
        "11078": 191,
        "11079": 236,
        "11080": 138,
        "11081": 23,
        "11082": 192,
        "11083": 199,
        "11084": 253,
        "11085": 160,
        "11086": 107,
        "11087": 19,
        "11088": 227,
        "11089": 50,
        "11090": 207,
        "11091": 104,
        "11092": 196,
        "11093": 159,
        "11094": 177,
        "11095": 196,
        "11096": 180,
        "11097": 37,
        "11098": 114,
        "11099": 149,
        "11100": 79,
        "11101": 34,
        "11102": 243,
        "11103": 172,
        "11104": 172,
        "11105": 173,
        "11106": 12,
        "11107": 66,
        "11108": 111,
        "11109": 207,
        "11110": 197,
        "11111": 13,
        "11112": 139,
        "11113": 99,
        "11114": 193,
        "11115": 79,
        "11116": 203,
        "11117": 100,
        "11118": 220,
        "11119": 127,
        "11120": 173,
        "11121": 172,
        "11122": 183,
        "11123": 207,
        "11124": 184,
        "11125": 22,
        "11126": 169,
        "11127": 131,
        "11128": 142,
        "11129": 64,
        "11130": 104,
        "11131": 54,
        "11132": 42,
        "11133": 51,
        "11134": 145,
        "11135": 41,
        "11136": 34,
        "11137": 106,
        "11138": 94,
        "11139": 52,
        "11140": 196,
        "11141": 56,
        "11142": 176,
        "11143": 126,
        "11144": 67,
        "11145": 43,
        "11146": 49,
        "11147": 88,
        "11148": 186,
        "11149": 241,
        "11150": 144,
        "11151": 28,
        "11152": 250,
        "11153": 157,
        "11154": 115,
        "11155": 67,
        "11156": 92,
        "11157": 52,
        "11158": 55,
        "11159": 91,
        "11160": 96,
        "11161": 158,
        "11162": 252,
        "11163": 100,
        "11164": 129,
        "11165": 220,
        "11166": 52,
        "11167": 206,
        "11168": 19,
        "11169": 232,
        "11170": 54,
        "11171": 160,
        "11172": 96,
        "11173": 163,
        "11174": 29,
        "11175": 91,
        "11176": 244,
        "11177": 85,
        "11178": 234,
        "11179": 208,
        "11180": 107,
        "11181": 99,
        "11182": 35,
        "11183": 180,
        "11184": 49,
        "11185": 109,
        "11186": 66,
        "11187": 97,
        "11188": 229,
        "11189": 169,
        "11190": 172,
        "11191": 25,
        "11192": 4,
        "11193": 219,
        "11194": 51,
        "11195": 16,
        "11196": 91,
        "11197": 114,
        "11198": 107,
        "11199": 97,
        "11200": 247,
        "11201": 213,
        "11202": 110,
        "11203": 149,
        "11204": 6,
        "11205": 59,
        "11206": 61,
        "11207": 108,
        "11208": 59,
        "11209": 167,
        "11210": 133,
        "11211": 84,
        "11212": 145,
        "11213": 122,
        "11214": 69,
        "11215": 12,
        "11216": 229,
        "11217": 160,
        "11218": 227,
        "11219": 212,
        "11220": 173,
        "11221": 195,
        "11222": 110,
        "11223": 228,
        "11224": 130,
        "11225": 138,
        "11226": 117,
        "11227": 108,
        "11228": 141,
        "11229": 52,
        "11230": 39,
        "11231": 203,
        "11232": 175,
        "11233": 111,
        "11234": 118,
        "11235": 12,
        "11236": 159,
        "11237": 197,
        "11238": 133,
        "11239": 123,
        "11240": 95,
        "11241": 110,
        "11242": 155,
        "11243": 224,
        "11244": 121,
        "11245": 213,
        "11246": 240,
        "11247": 163,
        "11248": 55,
        "11249": 0,
        "11250": 204,
        "11251": 246,
        "11252": 242,
        "11253": 85,
        "11254": 17,
        "11255": 233,
        "11256": 62,
        "11257": 156,
        "11258": 71,
        "11259": 154,
        "11260": 63,
        "11261": 252,
        "11262": 64,
        "11263": 41,
        "11264": 128,
        "11265": 232,
        "11266": 252,
        "11267": 237,
        "11268": 105,
        "11269": 28,
        "11270": 84,
        "11271": 82,
        "11272": 195,
        "11273": 207,
        "11274": 211,
        "11275": 179,
        "11276": 57,
        "11277": 158,
        "11278": 167,
        "11279": 231,
        "11280": 101,
        "11281": 4,
        "11282": 178,
        "11283": 77,
        "11284": 169,
        "11285": 33,
        "11286": 200,
        "11287": 12,
        "11288": 62,
        "11289": 65,
        "11290": 195,
        "11291": 125,
        "11292": 24,
        "11293": 212,
        "11294": 64,
        "11295": 149,
        "11296": 55,
        "11297": 63,
        "11298": 166,
        "11299": 210,
        "11300": 252,
        "11301": 114,
        "11302": 195,
        "11303": 97,
        "11304": 115,
        "11305": 150,
        "11306": 119,
        "11307": 187,
        "11308": 186,
        "11309": 181,
        "11310": 175,
        "11311": 129,
        "11312": 29,
        "11313": 213,
        "11314": 226,
        "11315": 217,
        "11316": 167,
        "11317": 74,
        "11318": 73,
        "11319": 51,
        "11320": 247,
        "11321": 152,
        "11322": 132,
        "11323": 222,
        "11324": 247,
        "11325": 107,
        "11326": 119,
        "11327": 66,
        "11328": 244,
        "11329": 53,
        "11330": 122,
        "11331": 221,
        "11332": 229,
        "11333": 65,
        "11334": 29,
        "11335": 79,
        "11336": 7,
        "11337": 115,
        "11338": 68,
        "11339": 195,
        "11340": 196,
        "11341": 3,
        "11342": 91,
        "11343": 140,
        "11344": 205,
        "11345": 114,
        "11346": 235,
        "11347": 190,
        "11348": 249,
        "11349": 206,
        "11350": 18,
        "11351": 224,
        "11352": 226,
        "11353": 22,
        "11354": 81,
        "11355": 38,
        "11356": 112,
        "11357": 250,
        "11358": 195,
        "11359": 215,
        "11360": 51,
        "11361": 17,
        "11362": 27,
        "11363": 244,
        "11364": 56,
        "11365": 141,
        "11366": 67,
        "11367": 134,
        "11368": 226,
        "11369": 177,
        "11370": 0,
        "11371": 112,
        "11372": 90,
        "11373": 14,
        "11374": 15,
        "11375": 71,
        "11376": 246,
        "11377": 53,
        "11378": 178,
        "11379": 172,
        "11380": 130,
        "11381": 221,
        "11382": 109,
        "11383": 75,
        "11384": 255,
        "11385": 49,
        "11386": 181,
        "11387": 110,
        "11388": 11,
        "11389": 99,
        "11390": 185,
        "11391": 147,
        "11392": 184,
        "11393": 140,
        "11394": 29,
        "11395": 67,
        "11396": 114,
        "11397": 67,
        "11398": 30,
        "11399": 251,
        "11400": 54,
        "11401": 174,
        "11402": 74,
        "11403": 73,
        "11404": 156,
        "11405": 62,
        "11406": 16,
        "11407": 134,
        "11408": 192,
        "11409": 52,
        "11410": 62,
        "11411": 228,
        "11412": 66,
        "11413": 74,
        "11414": 246,
        "11415": 196,
        "11416": 69,
        "11417": 195,
        "11418": 176,
        "11419": 28,
        "11420": 4,
        "11421": 9,
        "11422": 164,
        "11423": 46,
        "11424": 193,
        "11425": 174,
        "11426": 128,
        "11427": 0,
        "11428": 80,
        "11429": 7,
        "11430": 39,
        "11431": 51,
        "11432": 45,
        "11433": 222,
        "11434": 124,
        "11435": 210,
        "11436": 44,
        "11437": 250,
        "11438": 52,
        "11439": 25,
        "11440": 23,
        "11441": 153,
        "11442": 233,
        "11443": 4,
        "11444": 243,
        "11445": 10,
        "11446": 147,
        "11447": 111,
        "11448": 248,
        "11449": 236,
        "11450": 1,
        "11451": 3,
        "11452": 86,
        "11453": 179,
        "11454": 113,
        "11455": 115,
        "11456": 56,
        "11457": 163,
        "11458": 138,
        "11459": 1,
        "11460": 116,
        "11461": 95,
        "11462": 106,
        "11463": 177,
        "11464": 160,
        "11465": 98,
        "11466": 143,
        "11467": 232,
        "11468": 215,
        "11469": 135,
        "11470": 148,
        "11471": 236,
        "11472": 155,
        "11473": 59,
        "11474": 179,
        "11475": 51,
        "11476": 198,
        "11477": 227,
        "11478": 107,
        "11479": 19,
        "11480": 44,
        "11481": 219,
        "11482": 151,
        "11483": 58,
        "11484": 114,
        "11485": 17,
        "11486": 95,
        "11487": 39,
        "11488": 112,
        "11489": 17,
        "11490": 236,
        "11491": 4,
        "11492": 109,
        "11493": 249,
        "11494": 200,
        "11495": 92,
        "11496": 86,
        "11497": 12,
        "11498": 34,
        "11499": 51,
        "11500": 89,
        "11501": 154,
        "11502": 126,
        "11503": 233,
        "11504": 252,
        "11505": 226,
        "11506": 74,
        "11507": 157,
        "11508": 227,
        "11509": 137,
        "11510": 144,
        "11511": 47,
        "11512": 39,
        "11513": 97,
        "11514": 151,
        "11515": 104,
        "11516": 191,
        "11517": 119,
        "11518": 77,
        "11519": 62,
        "11520": 167,
        "11521": 228,
        "11522": 128,
        "11523": 143,
        "11524": 23,
        "11525": 184,
        "11526": 134,
        "11527": 254,
        "11528": 13,
        "11529": 62,
        "11530": 233,
        "11531": 80,
        "11532": 161,
        "11533": 169,
        "11534": 40,
        "11535": 138,
        "11536": 1,
        "11537": 14,
        "11538": 152,
        "11539": 250,
        "11540": 49,
        "11541": 90,
        "11542": 216,
        "11543": 40,
        "11544": 120,
        "11545": 212,
        "11546": 108,
        "11547": 214,
        "11548": 182,
        "11549": 175,
        "11550": 56,
        "11551": 52,
        "11552": 145,
        "11553": 74,
        "11554": 123,
        "11555": 146,
        "11556": 115,
        "11557": 28,
        "11558": 73,
        "11559": 109,
        "11560": 116,
        "11561": 124,
        "11562": 111,
        "11563": 143,
        "11564": 97,
        "11565": 251,
        "11566": 138,
        "11567": 124,
        "11568": 15,
        "11569": 242,
        "11570": 196,
        "11571": 249,
        "11572": 164,
        "11573": 156,
        "11574": 84,
        "11575": 109,
        "11576": 57,
        "11577": 108,
        "11578": 204,
        "11579": 214,
        "11580": 105,
        "11581": 108,
        "11582": 43,
        "11583": 60,
        "11584": 11,
        "11585": 8,
        "11586": 187,
        "11587": 154,
        "11588": 92,
        "11589": 132,
        "11590": 195,
        "11591": 247,
        "11592": 231,
        "11593": 145,
        "11594": 7,
        "11595": 7,
        "11596": 103,
        "11597": 213,
        "11598": 126,
        "11599": 173,
        "11600": 65,
        "11601": 171,
        "11602": 181,
        "11603": 109,
        "11604": 244,
        "11605": 146,
        "11606": 87,
        "11607": 92,
        "11608": 52,
        "11609": 115,
        "11610": 21,
        "11611": 149,
        "11612": 215,
        "11613": 90,
        "11614": 9,
        "11615": 198,
        "11616": 103,
        "11617": 12,
        "11618": 180,
        "11619": 208,
        "11620": 60,
        "11621": 183,
        "11622": 84,
        "11623": 29,
        "11624": 145,
        "11625": 165,
        "11626": 75,
        "11627": 100,
        "11628": 61,
        "11629": 226,
        "11630": 101,
        "11631": 1,
        "11632": 151,
        "11633": 64,
        "11634": 9,
        "11635": 85,
        "11636": 100,
        "11637": 91,
        "11638": 162,
        "11639": 194,
        "11640": 82,
        "11641": 7,
        "11642": 109,
        "11643": 232,
        "11644": 198,
        "11645": 184,
        "11646": 35,
        "11647": 223,
        "11648": 91,
        "11649": 99,
        "11650": 121,
        "11651": 75,
        "11652": 152,
        "11653": 59,
        "11654": 243,
        "11655": 74,
        "11656": 7,
        "11657": 107,
        "11658": 159,
        "11659": 155,
        "11660": 152,
        "11661": 183,
        "11662": 23,
        "11663": 149,
        "11664": 57,
        "11665": 232,
        "11666": 240,
        "11667": 207,
        "11668": 98,
        "11669": 96,
        "11670": 29,
        "11671": 57,
        "11672": 62,
        "11673": 247,
        "11674": 147,
        "11675": 51,
        "11676": 98,
        "11677": 53,
        "11678": 3,
        "11679": 125,
        "11680": 75,
        "11681": 107,
        "11682": 219,
        "11683": 157,
        "11684": 69,
        "11685": 126,
        "11686": 190,
        "11687": 135,
        "11688": 107,
        "11689": 86,
        "11690": 50,
        "11691": 69,
        "11692": 198,
        "11693": 230,
        "11694": 177,
        "11695": 168,
        "11696": 180,
        "11697": 177,
        "11698": 202,
        "11699": 231,
        "11700": 179,
        "11701": 173,
        "11702": 5,
        "11703": 153,
        "11704": 106,
        "11705": 86,
        "11706": 174,
        "11707": 127,
        "11708": 15,
        "11709": 25,
        "11710": 141,
        "11711": 248,
        "11712": 230,
        "11713": 214,
        "11714": 242,
        "11715": 155,
        "11716": 238,
        "11717": 16,
        "11718": 213,
        "11719": 247,
        "11720": 16,
        "11721": 37,
        "11722": 8,
        "11723": 209,
        "11724": 104,
        "11725": 179,
        "11726": 245,
        "11727": 168,
        "11728": 26,
        "11729": 82,
        "11730": 238,
        "11731": 102,
        "11732": 14,
        "11733": 99,
        "11734": 36,
        "11735": 208,
        "11736": 210,
        "11737": 198,
        "11738": 203,
        "11739": 248,
        "11740": 229,
        "11741": 143,
        "11742": 187,
        "11743": 221,
        "11744": 70,
        "11745": 31,
        "11746": 22,
        "11747": 23,
        "11748": 44,
        "11749": 204,
        "11750": 27,
        "11751": 91,
        "11752": 243,
        "11753": 154,
        "11754": 50,
        "11755": 31,
        "11756": 179,
        "11757": 224,
        "11758": 32,
        "11759": 239,
        "11760": 64,
        "11761": 216,
        "11762": 214,
        "11763": 194,
        "11764": 64,
        "11765": 37,
        "11766": 193,
        "11767": 228,
        "11768": 234,
        "11769": 152,
        "11770": 124,
        "11771": 60,
        "11772": 113,
        "11773": 149,
        "11774": 246,
        "11775": 80,
        "11776": 4,
        "11777": 198,
        "11778": 72,
        "11779": 152,
        "11780": 12,
        "11781": 109,
        "11782": 227,
        "11783": 101,
        "11784": 6,
        "11785": 125,
        "11786": 248,
        "11787": 132,
        "11788": 152,
        "11789": 255,
        "11790": 87,
        "11791": 166,
        "11792": 202,
        "11793": 110,
        "11794": 138,
        "11795": 53,
        "11796": 162,
        "11797": 255,
        "11798": 228,
        "11799": 175,
        "11800": 171,
        "11801": 234,
        "11802": 196,
        "11803": 139,
        "11804": 198,
        "11805": 186,
        "11806": 32,
        "11807": 185,
        "11808": 113,
        "11809": 92,
        "11810": 28,
        "11811": 197,
        "11812": 49,
        "11813": 16,
        "11814": 217,
        "11815": 226,
        "11816": 180,
        "11817": 241,
        "11818": 98,
        "11819": 184,
        "11820": 39,
        "11821": 252,
        "11822": 31,
        "11823": 117,
        "11824": 84,
        "11825": 238,
        "11826": 7,
        "11827": 184,
        "11828": 95,
        "11829": 255,
        "11830": 16,
        "11831": 221,
        "11832": 229,
        "11833": 70,
        "11834": 158,
        "11835": 205,
        "11836": 234,
        "11837": 35,
        "11838": 172,
        "11839": 223,
        "11840": 130,
        "11841": 147,
        "11842": 60,
        "11843": 156,
        "11844": 26,
        "11845": 113,
        "11846": 144,
        "11847": 253,
        "11848": 29,
        "11849": 22,
        "11850": 108,
        "11851": 186,
        "11852": 39,
        "11853": 47,
        "11854": 53,
        "11855": 213,
        "11856": 85,
        "11857": 172,
        "11858": 135,
        "11859": 228,
        "11860": 212,
        "11861": 140,
        "11862": 122,
        "11863": 75,
        "11864": 4,
        "11865": 226,
        "11866": 233,
        "11867": 89,
        "11868": 117,
        "11869": 222,
        "11870": 229,
        "11871": 103,
        "11872": 253,
        "11873": 93,
        "11874": 208,
        "11875": 115,
        "11876": 68,
        "11877": 2,
        "11878": 136,
        "11879": 159,
        "11880": 254,
        "11881": 18,
        "11882": 59,
        "11883": 47,
        "11884": 184,
        "11885": 190,
        "11886": 119,
        "11887": 188,
        "11888": 132,
        "11889": 73,
        "11890": 196,
        "11891": 239,
        "11892": 131,
        "11893": 132,
        "11894": 70,
        "11895": 79,
        "11896": 239,
        "11897": 81,
        "11898": 163,
        "11899": 207,
        "11900": 160,
        "11901": 99,
        "11902": 220,
        "11903": 4,
        "11904": 234,
        "11905": 120,
        "11906": 177,
        "11907": 213,
        "11908": 0,
        "11909": 14,
        "11910": 223,
        "11911": 72,
        "11912": 51,
        "11913": 211,
        "11914": 125,
        "11915": 228,
        "11916": 226,
        "11917": 186,
        "11918": 244,
        "11919": 98,
        "11920": 150,
        "11921": 111,
        "11922": 216,
        "11923": 241,
        "11924": 12,
        "11925": 162,
        "11926": 191,
        "11927": 53,
        "11928": 43,
        "11929": 204,
        "11930": 213,
        "11931": 136,
        "11932": 171,
        "11933": 109,
        "11934": 145,
        "11935": 69,
        "11936": 192,
        "11937": 166,
        "11938": 93,
        "11939": 239,
        "11940": 136,
        "11941": 98,
        "11942": 174,
        "11943": 16,
        "11944": 228,
        "11945": 65,
        "11946": 79,
        "11947": 194,
        "11948": 182,
        "11949": 206,
        "11950": 197,
        "11951": 216,
        "11952": 88,
        "11953": 33,
        "11954": 138,
        "11955": 58,
        "11956": 72,
        "11957": 254,
        "11958": 3,
        "11959": 165,
        "11960": 169,
        "11961": 215,
        "11962": 110,
        "11963": 234,
        "11964": 104,
        "11965": 214,
        "11966": 158,
        "11967": 150,
        "11968": 105,
        "11969": 219,
        "11970": 165,
        "11971": 195,
        "11972": 108,
        "11973": 9,
        "11974": 83,
        "11975": 131,
        "11976": 210,
        "11977": 209,
        "11978": 60,
        "11979": 112,
        "11980": 110,
        "11981": 145,
        "11982": 89,
        "11983": 33,
        "11984": 116,
        "11985": 215,
        "11986": 159,
        "11987": 45,
        "11988": 238,
        "11989": 188,
        "11990": 178,
        "11991": 43,
        "11992": 78,
        "11993": 194,
        "11994": 52,
        "11995": 86,
        "11996": 165,
        "11997": 202,
        "11998": 124,
        "11999": 153,
        "12000": 120,
        "12001": 251,
        "12002": 169,
        "12003": 133,
        "12004": 255,
        "12005": 172,
        "12006": 185,
        "12007": 89,
        "12008": 119,
        "12009": 115,
        "12010": 135,
        "12011": 172,
        "12012": 59,
        "12013": 45,
        "12014": 79,
        "12015": 149,
        "12016": 246,
        "12017": 110,
        "12018": 202,
        "12019": 204,
        "12020": 59,
        "12021": 202,
        "12022": 71,
        "12023": 142,
        "12024": 193,
        "12025": 41,
        "12026": 63,
        "12027": 19,
        "12028": 9,
        "12029": 81,
        "12030": 88,
        "12031": 1,
        "12032": 110,
        "12033": 107,
        "12034": 156,
        "12035": 118,
        "12036": 222,
        "12037": 212,
        "12038": 117,
        "12039": 201,
        "12040": 174,
        "12041": 247,
        "12042": 166,
        "12043": 106,
        "12044": 69,
        "12045": 62,
        "12046": 185,
        "12047": 42,
        "12048": 182,
        "12049": 148,
        "12050": 214,
        "12051": 162,
        "12052": 247,
        "12053": 17,
        "12054": 102,
        "12055": 119,
        "12056": 74,
        "12057": 103,
        "12058": 149,
        "12059": 8,
        "12060": 221,
        "12061": 148,
        "12062": 127,
        "12063": 95,
        "12064": 140,
        "12065": 89,
        "12066": 77,
        "12067": 127,
        "12068": 209,
        "12069": 152,
        "12070": 233,
        "12071": 203,
        "12072": 137,
        "12073": 42,
        "12074": 58,
        "12075": 67,
        "12076": 222,
        "12077": 1,
        "12078": 22,
        "12079": 51,
        "12080": 217,
        "12081": 194,
        "12082": 185,
        "12083": 14,
        "12084": 100,
        "12085": 34,
        "12086": 57,
        "12087": 227,
        "12088": 124,
        "12089": 105,
        "12090": 31,
        "12091": 56,
        "12092": 109,
        "12093": 153,
        "12094": 123,
        "12095": 184,
        "12096": 172,
        "12097": 168,
        "12098": 55,
        "12099": 227,
        "12100": 13,
        "12101": 202,
        "12102": 136,
        "12103": 154,
        "12104": 55,
        "12105": 33,
        "12106": 97,
        "12107": 27,
        "12108": 171,
        "12109": 13,
        "12110": 8,
        "12111": 91,
        "12112": 54,
        "12113": 74,
        "12114": 188,
        "12115": 86,
        "12116": 73,
        "12117": 154,
        "12118": 146,
        "12119": 131,
        "12120": 11,
        "12121": 168,
        "12122": 107,
        "12123": 17,
        "12124": 160,
        "12125": 237,
        "12126": 219,
        "12127": 214,
        "12128": 89,
        "12129": 31,
        "12130": 111,
        "12131": 35,
        "12132": 22,
        "12133": 26,
        "12134": 65,
        "12135": 33,
        "12136": 53,
        "12137": 200,
        "12138": 92,
        "12139": 214,
        "12140": 47,
        "12141": 137,
        "12142": 110,
        "12143": 43,
        "12144": 90,
        "12145": 140,
        "12146": 88,
        "12147": 231,
        "12148": 27,
        "12149": 95,
        "12150": 19,
        "12151": 153,
        "12152": 32,
        "12153": 5,
        "12154": 31,
        "12155": 186,
        "12156": 67,
        "12157": 147,
        "12158": 40,
        "12159": 103,
        "12160": 189,
        "12161": 74,
        "12162": 240,
        "12163": 207,
        "12164": 177,
        "12165": 44,
        "12166": 191,
        "12167": 11,
        "12168": 77,
        "12169": 60,
        "12170": 19,
        "12171": 149,
        "12172": 189,
        "12173": 231,
        "12174": 110,
        "12175": 246,
        "12176": 98,
        "12177": 72,
        "12178": 76,
        "12179": 162,
        "12180": 200,
        "12181": 226,
        "12182": 246,
        "12183": 204,
        "12184": 46,
        "12185": 137,
        "12186": 188,
        "12187": 144,
        "12188": 138,
        "12189": 190,
        "12190": 239,
        "12191": 92,
        "12192": 218,
        "12193": 66,
        "12194": 31,
        "12195": 120,
        "12196": 223,
        "12197": 251,
        "12198": 39,
        "12199": 163,
        "12200": 17,
        "12201": 71,
        "12202": 59,
        "12203": 178,
        "12204": 123,
        "12205": 226,
        "12206": 17,
        "12207": 196,
        "12208": 145,
        "12209": 88,
        "12210": 71,
        "12211": 23,
        "12212": 195,
        "12213": 66,
        "12214": 128,
        "12215": 107,
        "12216": 75,
        "12217": 193,
        "12218": 37,
        "12219": 72,
        "12220": 220,
        "12221": 118,
        "12222": 146,
        "12223": 145,
        "12224": 42,
        "12225": 71,
        "12226": 126,
        "12227": 15,
        "12228": 193,
        "12229": 105,
        "12230": 64,
        "12231": 231,
        "12232": 235,
        "12233": 82,
        "12234": 100,
        "12235": 34,
        "12236": 197,
        "12237": 250,
        "12238": 152,
        "12239": 233,
        "12240": 196,
        "12241": 215,
        "12242": 232,
        "12243": 153,
        "12244": 71,
        "12245": 228,
        "12246": 139,
        "12247": 238,
        "12248": 2,
        "12249": 49,
        "12250": 107,
        "12251": 37,
        "12252": 94,
        "12253": 96,
        "12254": 174,
        "12255": 211,
        "12256": 168,
        "12257": 61,
        "12258": 199,
        "12259": 240,
        "12260": 172,
        "12261": 93,
        "12262": 45,
        "12263": 247,
        "12264": 253,
        "12265": 21,
        "12266": 65,
        "12267": 117,
        "12268": 26,
        "12269": 92,
        "12270": 207,
        "12271": 95,
        "12272": 61,
        "12273": 20,
        "12274": 177,
        "12275": 207,
        "12276": 242,
        "12277": 84,
        "12278": 85,
        "12279": 179,
        "12280": 115,
        "12281": 64,
        "12282": 236,
        "12283": 178,
        "12284": 5,
        "12285": 39,
        "12286": 191,
        "12287": 246,
        "12288": 194,
        "12289": 95,
        "12290": 63,
        "12291": 127,
        "12292": 153,
        "12293": 41,
        "12294": 94,
        "12295": 117,
        "12296": 61,
        "12297": 21,
        "12298": 133,
        "12299": 93,
        "12300": 108,
        "12301": 191,
        "12302": 154,
        "12303": 124,
        "12304": 118,
        "12305": 233,
        "12306": 199,
        "12307": 97,
        "12308": 117,
        "12309": 244,
        "12310": 22,
        "12311": 84,
        "12312": 126,
        "12313": 10,
        "12314": 81,
        "12315": 165,
        "12316": 125,
        "12317": 72,
        "12318": 91,
        "12319": 123,
        "12320": 220,
        "12321": 162,
        "12322": 90,
        "12323": 96,
        "12324": 198,
        "12325": 228,
        "12326": 82,
        "12327": 205,
        "12328": 1,
        "12329": 12,
        "12330": 196,
        "12331": 215,
        "12332": 225,
        "12333": 170,
        "12334": 50,
        "12335": 44,
        "12336": 36,
        "12337": 164,
        "12338": 94,
        "12339": 9,
        "12340": 157,
        "12341": 48,
        "12342": 56,
        "12343": 158,
        "12344": 23,
        "12345": 14,
        "12346": 222,
        "12347": 168,
        "12348": 218,
        "12349": 208,
        "12350": 95,
        "12351": 90,
        "12352": 181,
        "12353": 171,
        "12354": 82,
        "12355": 180,
        "12356": 254,
        "12357": 28,
        "12358": 49,
        "12359": 124,
        "12360": 224,
        "12361": 151,
        "12362": 64,
        "12363": 179,
        "12364": 50,
        "12365": 7,
        "12366": 186,
        "12367": 13,
        "12368": 69,
        "12369": 42,
        "12370": 196,
        "12371": 0,
        "12372": 92,
        "12373": 22,
        "12374": 8,
        "12375": 145,
        "12376": 112,
        "12377": 100,
        "12378": 11,
        "12379": 214,
        "12380": 190,
        "12381": 139,
        "12382": 93,
        "12383": 77,
        "12384": 92,
        "12385": 53,
        "12386": 95,
        "12387": 239,
        "12388": 33,
        "12389": 91,
        "12390": 238,
        "12391": 12,
        "12392": 11,
        "12393": 176,
        "12394": 14,
        "12395": 175,
        "12396": 229,
        "12397": 133,
        "12398": 151,
        "12399": 60,
        "12400": 119,
        "12401": 132,
        "12402": 192,
        "12403": 119,
        "12404": 95,
        "12405": 73,
        "12406": 191,
        "12407": 196,
        "12408": 155,
        "12409": 175,
        "12410": 237,
        "12411": 193,
        "12412": 219,
        "12413": 50,
        "12414": 169,
        "12415": 63,
        "12416": 20,
        "12417": 254,
        "12418": 84,
        "12419": 74,
        "12420": 170,
        "12421": 208,
        "12422": 93,
        "12423": 223,
        "12424": 82,
        "12425": 172,
        "12426": 207,
        "12427": 198,
        "12428": 154,
        "12429": 0,
        "12430": 163,
        "12431": 161,
        "12432": 118,
        "12433": 180,
        "12434": 201,
        "12435": 59,
        "12436": 139,
        "12437": 123,
        "12438": 228,
        "12439": 124,
        "12440": 97,
        "12441": 129,
        "12442": 35,
        "12443": 124,
        "12444": 133,
        "12445": 87,
        "12446": 252,
        "12447": 52,
        "12448": 208,
        "12449": 176,
        "12450": 206,
        "12451": 183,
        "12452": 84,
        "12453": 209,
        "12454": 214,
        "12455": 188,
        "12456": 38,
        "12457": 172,
        "12458": 62,
        "12459": 19,
        "12460": 97,
        "12461": 183,
        "12462": 130,
        "12463": 63,
        "12464": 231,
        "12465": 31,
        "12466": 86,
        "12467": 165,
        "12468": 199,
        "12469": 23,
        "12470": 220,
        "12471": 87,
        "12472": 214,
        "12473": 22,
        "12474": 132,
        "12475": 244,
        "12476": 41,
        "12477": 175,
        "12478": 95,
        "12479": 152,
        "12480": 129,
        "12481": 159,
        "12482": 124,
        "12483": 114,
        "12484": 166,
        "12485": 109,
        "12486": 46,
        "12487": 147,
        "12488": 28,
        "12489": 91,
        "12490": 130,
        "12491": 151,
        "12492": 196,
        "12493": 78,
        "12494": 109,
        "12495": 236,
        "12496": 135,
        "12497": 232,
        "12498": 164,
        "12499": 84,
        "12500": 97,
        "12501": 142,
        "12502": 34,
        "12503": 149,
        "12504": 209,
        "12505": 136,
        "12506": 74,
        "12507": 115,
        "12508": 141,
        "12509": 92,
        "12510": 115,
        "12511": 83,
        "12512": 91,
        "12513": 99,
        "12514": 111,
        "12515": 232,
        "12516": 25,
        "12517": 181,
        "12518": 155,
        "12519": 158,
        "12520": 124,
        "12521": 34,
        "12522": 98,
        "12523": 203,
        "12524": 113,
        "12525": 74,
        "12526": 237,
        "12527": 78,
        "12528": 21,
        "12529": 123,
        "12530": 151,
        "12531": 154,
        "12532": 194,
        "12533": 198,
        "12534": 77,
        "12535": 37,
        "12536": 241,
        "12537": 38,
        "12538": 64,
        "12539": 235,
        "12540": 249,
        "12541": 13,
        "12542": 250,
        "12543": 91,
        "12544": 167,
        "12545": 189,
        "12546": 189,
        "12547": 76,
        "12548": 194,
        "12549": 175,
        "12550": 177,
        "12551": 224,
        "12552": 135,
        "12553": 95,
        "12554": 100,
        "12555": 185,
        "12556": 102,
        "12557": 46,
        "12558": 244,
        "12559": 214,
        "12560": 12,
        "12561": 152,
        "12562": 171,
        "12563": 210,
        "12564": 151,
        "12565": 129,
        "12566": 57,
        "12567": 18,
        "12568": 13,
        "12569": 91,
        "12570": 224,
        "12571": 210,
        "12572": 30,
        "12573": 110,
        "12574": 230,
        "12575": 184,
        "12576": 191,
        "12577": 99,
        "12578": 65,
        "12579": 98,
        "12580": 192,
        "12581": 146,
        "12582": 132,
        "12583": 135,
        "12584": 141,
        "12585": 39,
        "12586": 72,
        "12587": 144,
        "12588": 147,
        "12589": 87,
        "12590": 203,
        "12591": 214,
        "12592": 26,
        "12593": 214,
        "12594": 153,
        "12595": 19,
        "12596": 95,
        "12597": 130,
        "12598": 12,
        "12599": 94,
        "12600": 190,
        "12601": 54,
        "12602": 196,
        "12603": 226,
        "12604": 65,
        "12605": 255,
        "12606": 81,
        "12607": 182,
        "12608": 169,
        "12609": 196,
        "12610": 118,
        "12611": 23,
        "12612": 87,
        "12613": 178,
        "12614": 80,
        "12615": 90,
        "12616": 63,
        "12617": 44,
        "12618": 187,
        "12619": 1,
        "12620": 226,
        "12621": 214,
        "12622": 145,
        "12623": 254,
        "12624": 115,
        "12625": 225,
        "12626": 8,
        "12627": 95,
        "12628": 234,
        "12629": 133,
        "12630": 111,
        "12631": 20,
        "12632": 239,
        "12633": 66,
        "12634": 38,
        "12635": 209,
        "12636": 163,
        "12637": 36,
        "12638": 109,
        "12639": 50,
        "12640": 123,
        "12641": 92,
        "12642": 164,
        "12643": 91,
        "12644": 169,
        "12645": 15,
        "12646": 6,
        "12647": 142,
        "12648": 12,
        "12649": 111,
        "12650": 215,
        "12651": 65,
        "12652": 100,
        "12653": 137,
        "12654": 82,
        "12655": 162,
        "12656": 161,
        "12657": 178,
        "12658": 255,
        "12659": 125,
        "12660": 24,
        "12661": 8,
        "12662": 104,
        "12663": 136,
        "12664": 8,
        "12665": 22,
        "12666": 172,
        "12667": 162,
        "12668": 239,
        "12669": 175,
        "12670": 131,
        "12671": 84,
        "12672": 210,
        "12673": 139,
        "12674": 41,
        "12675": 11,
        "12676": 84,
        "12677": 163,
        "12678": 78,
        "12679": 92,
        "12680": 216,
        "12681": 54,
        "12682": 36,
        "12683": 198,
        "12684": 116,
        "12685": 213,
        "12686": 247,
        "12687": 107,
        "12688": 85,
        "12689": 236,
        "12690": 43,
        "12691": 234,
        "12692": 61,
        "12693": 247,
        "12694": 128,
        "12695": 223,
        "12696": 32,
        "12697": 232,
        "12698": 230,
        "12699": 47,
        "12700": 51,
        "12701": 213,
        "12702": 33,
        "12703": 187,
        "12704": 107,
        "12705": 84,
        "12706": 107,
        "12707": 57,
        "12708": 124,
        "12709": 93,
        "12710": 212,
        "12711": 126,
        "12712": 201,
        "12713": 63,
        "12714": 137,
        "12715": 187,
        "12716": 14,
        "12717": 134,
        "12718": 30,
        "12719": 186,
        "12720": 213,
        "12721": 218,
        "12722": 216,
        "12723": 119,
        "12724": 233,
        "12725": 47,
        "12726": 120,
        "12727": 30,
        "12728": 60,
        "12729": 61,
        "12730": 149,
        "12731": 142,
        "12732": 164,
        "12733": 194,
        "12734": 243,
        "12735": 254,
        "12736": 193,
        "12737": 110,
        "12738": 122,
        "12739": 102,
        "12740": 109,
        "12741": 164,
        "12742": 46,
        "12743": 81,
        "12744": 91,
        "12745": 11,
        "12746": 115,
        "12747": 4,
        "12748": 69,
        "12749": 242,
        "12750": 245,
        "12751": 75,
        "12752": 52,
        "12753": 83,
        "12754": 255,
        "12755": 248,
        "12756": 72,
        "12757": 149,
        "12758": 98,
        "12759": 185,
        "12760": 165,
        "12761": 11,
        "12762": 115,
        "12763": 41,
        "12764": 7,
        "12765": 116,
        "12766": 185,
        "12767": 105,
        "12768": 34,
        "12769": 22,
        "12770": 173,
        "12771": 143,
        "12772": 194,
        "12773": 128,
        "12774": 22,
        "12775": 59,
        "12776": 59,
        "12777": 20,
        "12778": 115,
        "12779": 197,
        "12780": 37,
        "12781": 176,
        "12782": 81,
        "12783": 34,
        "12784": 174,
        "12785": 6,
        "12786": 156,
        "12787": 211,
        "12788": 156,
        "12789": 4,
        "12790": 38,
        "12791": 113,
        "12792": 148,
        "12793": 166,
        "12794": 153,
        "12795": 140,
        "12796": 77,
        "12797": 9,
        "12798": 222,
        "12799": 190,
        "12800": 191,
        "12801": 37,
        "12802": 59,
        "12803": 139,
        "12804": 49,
        "12805": 132,
        "12806": 29,
        "12807": 133,
        "12808": 233,
        "12809": 38,
        "12810": 168,
        "12811": 95,
        "12812": 164,
        "12813": 18,
        "12814": 163,
        "12815": 14,
        "12816": 205,
        "12817": 0,
        "12818": 87,
        "12819": 236,
        "12820": 57,
        "12821": 115,
        "12822": 82,
        "12823": 219,
        "12824": 166,
        "12825": 161,
        "12826": 106,
        "12827": 101,
        "12828": 205,
        "12829": 147,
        "12830": 74,
        "12831": 155,
        "12832": 251,
        "12833": 125,
        "12834": 133,
        "12835": 213,
        "12836": 226,
        "12837": 85,
        "12838": 104,
        "12839": 82,
        "12840": 0,
        "12841": 149,
        "12842": 255,
        "12843": 211,
        "12844": 7,
        "12845": 90,
        "12846": 60,
        "12847": 145,
        "12848": 105,
        "12849": 4,
        "12850": 228,
        "12851": 130,
        "12852": 178,
        "12853": 69,
        "12854": 216,
        "12855": 42,
        "12856": 215,
        "12857": 172,
        "12858": 239,
        "12859": 204,
        "12860": 145,
        "12861": 18,
        "12862": 159,
        "12863": 215,
        "12864": 205,
        "12865": 4,
        "12866": 113,
        "12867": 91,
        "12868": 1,
        "12869": 156,
        "12870": 10,
        "12871": 98,
        "12872": 200,
        "12873": 130,
        "12874": 56,
        "12875": 5,
        "12876": 129,
        "12877": 121,
        "12878": 156,
        "12879": 183,
        "12880": 70,
        "12881": 249,
        "12882": 23,
        "12883": 220,
        "12884": 88,
        "12885": 180,
        "12886": 12,
        "12887": 43,
        "12888": 108,
        "12889": 136,
        "12890": 248,
        "12891": 252,
        "12892": 162,
        "12893": 82,
        "12894": 11,
        "12895": 165,
        "12896": 93,
        "12897": 142,
        "12898": 161,
        "12899": 209,
        "12900": 193,
        "12901": 73,
        "12902": 9,
        "12903": 169,
        "12904": 224,
        "12905": 203,
        "12906": 177,
        "12907": 220,
        "12908": 182,
        "12909": 102,
        "12910": 239,
        "12911": 10,
        "12912": 166,
        "12913": 193,
        "12914": 34,
        "12915": 54,
        "12916": 250,
        "12917": 48,
        "12918": 100,
        "12919": 20,
        "12920": 19,
        "12921": 227,
        "12922": 230,
        "12923": 239,
        "12924": 161,
        "12925": 93,
        "12926": 109,
        "12927": 62,
        "12928": 45,
        "12929": 79,
        "12930": 15,
        "12931": 208,
        "12932": 121,
        "12933": 154,
        "12934": 241,
        "12935": 246,
        "12936": 153,
        "12937": 233,
        "12938": 200,
        "12939": 145,
        "12940": 205,
        "12941": 72,
        "12942": 5,
        "12943": 12,
        "12944": 231,
        "12945": 100,
        "12946": 72,
        "12947": 159,
        "12948": 179,
        "12949": 239,
        "12950": 92,
        "12951": 101,
        "12952": 82,
        "12953": 45,
        "12954": 246,
        "12955": 152,
        "12956": 156,
        "12957": 66,
        "12958": 240,
        "12959": 31,
        "12960": 115,
        "12961": 0,
        "12962": 252,
        "12963": 2,
        "12964": 107,
        "12965": 100,
        "12966": 106,
        "12967": 173,
        "12968": 186,
        "12969": 173,
        "12970": 88,
        "12971": 135,
        "12972": 158,
        "12973": 161,
        "12974": 155,
        "12975": 182,
        "12976": 244,
        "12977": 152,
        "12978": 194,
        "12979": 86,
        "12980": 7,
        "12981": 66,
        "12982": 227,
        "12983": 31,
        "12984": 124,
        "12985": 17,
        "12986": 213,
        "12987": 172,
        "12988": 217,
        "12989": 109,
        "12990": 204,
        "12991": 32,
        "12992": 30,
        "12993": 245,
        "12994": 255,
        "12995": 58,
        "12996": 15,
        "12997": 153,
        "12998": 80,
        "12999": 249,
        "13000": 179,
        "13001": 105,
        "13002": 175,
        "13003": 67,
        "13004": 139,
        "13005": 83,
        "13006": 35,
        "13007": 58,
        "13008": 9,
        "13009": 128,
        "13010": 158,
        "13011": 162,
        "13012": 115,
        "13013": 77,
        "13014": 192,
        "13015": 203,
        "13016": 169,
        "13017": 173,
        "13018": 222,
        "13019": 11,
        "13020": 106,
        "13021": 249,
        "13022": 62,
        "13023": 144,
        "13024": 72,
        "13025": 52,
        "13026": 134,
        "13027": 232,
        "13028": 17,
        "13029": 71,
        "13030": 229,
        "13031": 176,
        "13032": 180,
        "13033": 4,
        "13034": 74,
        "13035": 75,
        "13036": 61,
        "13037": 168,
        "13038": 206,
        "13039": 143,
        "13040": 254,
        "13041": 59,
        "13042": 248,
        "13043": 66,
        "13044": 130,
        "13045": 233,
        "13046": 131,
        "13047": 77,
        "13048": 228,
        "13049": 250,
        "13050": 9,
        "13051": 133,
        "13052": 79,
        "13053": 255,
        "13054": 157,
        "13055": 116,
        "13056": 103,
        "13057": 232,
        "13058": 201,
        "13059": 142,
        "13060": 58,
        "13061": 142,
        "13062": 234,
        "13063": 104,
        "13064": 212,
        "13065": 240,
        "13066": 57,
        "13067": 60,
        "13068": 209,
        "13069": 140,
        "13070": 136,
        "13071": 195,
        "13072": 7,
        "13073": 64,
        "13074": 184,
        "13075": 69,
        "13076": 219,
        "13077": 138,
        "13078": 225,
        "13079": 52,
        "13080": 174,
        "13081": 15,
        "13082": 158,
        "13083": 123,
        "13084": 144,
        "13085": 206,
        "13086": 73,
        "13087": 204,
        "13088": 242,
        "13089": 39,
        "13090": 167,
        "13091": 25,
        "13092": 230,
        "13093": 183,
        "13094": 130,
        "13095": 220,
        "13096": 19,
        "13097": 173,
        "13098": 0,
        "13099": 158,
        "13100": 107,
        "13101": 9,
        "13102": 44,
        "13103": 56,
        "13104": 88,
        "13105": 29,
        "13106": 104,
        "13107": 9,
        "13108": 185,
        "13109": 161,
        "13110": 220,
        "13111": 86,
        "13112": 31,
        "13113": 224,
        "13114": 115,
        "13115": 33,
        "13116": 52,
        "13117": 55,
        "13118": 250,
        "13119": 197,
        "13120": 52,
        "13121": 230,
        "13122": 25,
        "13123": 20,
        "13124": 72,
        "13125": 107,
        "13126": 125,
        "13127": 104,
        "13128": 81,
        "13129": 112,
        "13130": 12,
        "13131": 231,
        "13132": 158,
        "13133": 20,
        "13134": 86,
        "13135": 173,
        "13136": 11,
        "13137": 176,
        "13138": 134,
        "13139": 45,
        "13140": 248,
        "13141": 63,
        "13142": 240,
        "13143": 195,
        "13144": 91,
        "13145": 135,
        "13146": 65,
        "13147": 87,
        "13148": 253,
        "13149": 57,
        "13150": 91,
        "13151": 185,
        "13152": 5,
        "13153": 184,
        "13154": 82,
        "13155": 16,
        "13156": 249,
        "13157": 119,
        "13158": 184,
        "13159": 123,
        "13160": 196,
        "13161": 125,
        "13162": 2,
        "13163": 245,
        "13164": 231,
        "13165": 58,
        "13166": 188,
        "13167": 196,
        "13168": 111,
        "13169": 157,
        "13170": 214,
        "13171": 244,
        "13172": 232,
        "13173": 102,
        "13174": 189,
        "13175": 152,
        "13176": 248,
        "13177": 5,
        "13178": 35,
        "13179": 159,
        "13180": 80,
        "13181": 12,
        "13182": 214,
        "13183": 128,
        "13184": 58,
        "13185": 170,
        "13186": 233,
        "13187": 28,
        "13188": 128,
        "13189": 203,
        "13190": 59,
        "13191": 91,
        "13192": 122,
        "13193": 47,
        "13194": 255,
        "13195": 145,
        "13196": 82,
        "13197": 15,
        "13198": 251,
        "13199": 17,
        "13200": 249,
        "13201": 211,
        "13202": 210,
        "13203": 84,
        "13204": 75,
        "13205": 94,
        "13206": 0,
        "13207": 108,
        "13208": 113,
        "13209": 207,
        "13210": 82,
        "13211": 106,
        "13212": 137,
        "13213": 51,
        "13214": 44,
        "13215": 85,
        "13216": 12,
        "13217": 216,
        "13218": 41,
        "13219": 47,
        "13220": 233,
        "13221": 224,
        "13222": 204,
        "13223": 123,
        "13224": 201,
        "13225": 38,
        "13226": 165,
        "13227": 244,
        "13228": 18,
        "13229": 188,
        "13230": 106,
        "13231": 154,
        "13232": 250,
        "13233": 216,
        "13234": 19,
        "13235": 91,
        "13236": 48,
        "13237": 20,
        "13238": 47,
        "13239": 181,
        "13240": 69,
        "13241": 2,
        "13242": 69,
        "13243": 234,
        "13244": 185,
        "13245": 65,
        "13246": 16,
        "13247": 25,
        "13248": 7,
        "13249": 134,
        "13250": 50,
        "13251": 122,
        "13252": 99,
        "13253": 77,
        "13254": 42,
        "13255": 37,
        "13256": 173,
        "13257": 100,
        "13258": 6,
        "13259": 93,
        "13260": 87,
        "13261": 162,
        "13262": 165,
        "13263": 240,
        "13264": 101,
        "13265": 39,
        "13266": 237,
        "13267": 49,
        "13268": 103,
        "13269": 116,
        "13270": 149,
        "13271": 154,
        "13272": 65,
        "13273": 173,
        "13274": 239,
        "13275": 220,
        "13276": 113,
        "13277": 67,
        "13278": 76,
        "13279": 86,
        "13280": 209,
        "13281": 161,
        "13282": 145,
        "13283": 80,
        "13284": 149,
        "13285": 203,
        "13286": 155,
        "13287": 66,
        "13288": 208,
        "13289": 151,
        "13290": 21,
        "13291": 161,
        "13292": 6,
        "13293": 152,
        "13294": 9,
        "13295": 210,
        "13296": 119,
        "13297": 192,
        "13298": 104,
        "13299": 225,
        "13300": 222,
        "13301": 91,
        "13302": 160,
        "13303": 248,
        "13304": 117,
        "13305": 61,
        "13306": 168,
        "13307": 61,
        "13308": 42,
        "13309": 45,
        "13310": 83,
        "13311": 54,
        "13312": 205,
        "13313": 219,
        "13314": 22,
        "13315": 20,
        "13316": 169,
        "13317": 156,
        "13318": 220,
        "13319": 254,
        "13320": 172,
        "13321": 129,
        "13322": 94,
        "13323": 236,
        "13324": 141,
        "13325": 25,
        "13326": 150,
        "13327": 7,
        "13328": 2,
        "13329": 1,
        "13330": 188,
        "13331": 57,
        "13332": 31,
        "13333": 241,
        "13334": 148,
        "13335": 173,
        "13336": 61,
        "13337": 219,
        "13338": 233,
        "13339": 185,
        "13340": 204,
        "13341": 35,
        "13342": 243,
        "13343": 131,
        "13344": 70,
        "13345": 197,
        "13346": 10,
        "13347": 76,
        "13348": 90,
        "13349": 255,
        "13350": 27,
        "13351": 158,
        "13352": 96,
        "13353": 32,
        "13354": 25,
        "13355": 2,
        "13356": 37,
        "13357": 244,
        "13358": 198,
        "13359": 35,
        "13360": 2,
        "13361": 190,
        "13362": 50,
        "13363": 211,
        "13364": 146,
        "13365": 111,
        "13366": 110,
        "13367": 103,
        "13368": 241,
        "13369": 226,
        "13370": 132,
        "13371": 139,
        "13372": 134,
        "13373": 45,
        "13374": 195,
        "13375": 138,
        "13376": 65,
        "13377": 54,
        "13378": 143,
        "13379": 128,
        "13380": 57,
        "13381": 90,
        "13382": 239,
        "13383": 205,
        "13384": 97,
        "13385": 70,
        "13386": 87,
        "13387": 214,
        "13388": 51,
        "13389": 90,
        "13390": 45,
        "13391": 253,
        "13392": 17,
        "13393": 39,
        "13394": 11,
        "13395": 240,
        "13396": 238,
        "13397": 243,
        "13398": 131,
        "13399": 25,
        "13400": 153,
        "13401": 199,
        "13402": 48,
        "13403": 30,
        "13404": 90,
        "13405": 3,
        "13406": 57,
        "13407": 31,
        "13408": 101,
        "13409": 46,
        "13410": 6,
        "13411": 59,
        "13412": 10,
        "13413": 72,
        "13414": 168,
        "13415": 72,
        "13416": 107,
        "13417": 222,
        "13418": 138,
        "13419": 170,
        "13420": 51,
        "13421": 121,
        "13422": 67,
        "13423": 4,
        "13424": 161,
        "13425": 81,
        "13426": 252,
        "13427": 124,
        "13428": 137,
        "13429": 75,
        "13430": 254,
        "13431": 198,
        "13432": 188,
        "13433": 165,
        "13434": 243,
        "13435": 116,
        "13436": 54,
        "13437": 194,
        "13438": 34,
        "13439": 47,
        "13440": 174,
        "13441": 125,
        "13442": 10,
        "13443": 190,
        "13444": 36,
        "13445": 67,
        "13446": 173,
        "13447": 206,
        "13448": 64,
        "13449": 35,
        "13450": 124,
        "13451": 12,
        "13452": 105,
        "13453": 98,
        "13454": 247,
        "13455": 8,
        "13456": 48,
        "13457": 57,
        "13458": 29,
        "13459": 240,
        "13460": 126,
        "13461": 114,
        "13462": 4,
        "13463": 125,
        "13464": 136,
        "13465": 158,
        "13466": 221,
        "13467": 68,
        "13468": 104,
        "13469": 194,
        "13470": 251,
        "13471": 8,
        "13472": 107,
        "13473": 17,
        "13474": 247,
        "13475": 179,
        "13476": 81,
        "13477": 179,
        "13478": 108,
        "13479": 45,
        "13480": 104,
        "13481": 45,
        "13482": 148,
        "13483": 149,
        "13484": 97,
        "13485": 30,
        "13486": 207,
        "13487": 189,
        "13488": 48,
        "13489": 105,
        "13490": 118,
        "13491": 250,
        "13492": 171,
        "13493": 59,
        "13494": 136,
        "13495": 63,
        "13496": 45,
        "13497": 113,
        "13498": 238,
        "13499": 83,
        "13500": 54,
        "13501": 34,
        "13502": 174,
        "13503": 68,
        "13504": 62,
        "13505": 213,
        "13506": 8,
        "13507": 205,
        "13508": 24,
        "13509": 27,
        "13510": 126,
        "13511": 171,
        "13512": 138,
        "13513": 66,
        "13514": 169,
        "13515": 182,
        "13516": 121,
        "13517": 131,
        "13518": 174,
        "13519": 53,
        "13520": 141,
        "13521": 92,
        "13522": 114,
        "13523": 88,
        "13524": 216,
        "13525": 245,
        "13526": 190,
        "13527": 186,
        "13528": 63,
        "13529": 91,
        "13530": 156,
        "13531": 106,
        "13532": 3,
        "13533": 187,
        "13534": 15,
        "13535": 192,
        "13536": 144,
        "13537": 254,
        "13538": 114,
        "13539": 20,
        "13540": 6,
        "13541": 61,
        "13542": 217,
        "13543": 163,
        "13544": 87,
        "13545": 150,
        "13546": 108,
        "13547": 52,
        "13548": 204,
        "13549": 213,
        "13550": 246,
        "13551": 33,
        "13552": 205,
        "13553": 137,
        "13554": 136,
        "13555": 156,
        "13556": 58,
        "13557": 239,
        "13558": 74,
        "13559": 151,
        "13560": 228,
        "13561": 189,
        "13562": 103,
        "13563": 81,
        "13564": 132,
        "13565": 233,
        "13566": 107,
        "13567": 224,
        "13568": 30,
        "13569": 95,
        "13570": 245,
        "13571": 253,
        "13572": 213,
        "13573": 14,
        "13574": 67,
        "13575": 105,
        "13576": 155,
        "13577": 192,
        "13578": 10,
        "13579": 76,
        "13580": 222,
        "13581": 129,
        "13582": 223,
        "13583": 78,
        "13584": 161,
        "13585": 177,
        "13586": 191,
        "13587": 21,
        "13588": 189,
        "13589": 115,
        "13590": 70,
        "13591": 61,
        "13592": 77,
        "13593": 10,
        "13594": 48,
        "13595": 254,
        "13596": 199,
        "13597": 182,
        "13598": 92,
        "13599": 50,
        "13600": 30,
        "13601": 167,
        "13602": 181,
        "13603": 123,
        "13604": 22,
        "13605": 216,
        "13606": 97,
        "13607": 66,
        "13608": 162,
        "13609": 76,
        "13610": 87,
        "13611": 47,
        "13612": 58,
        "13613": 121,
        "13614": 72,
        "13615": 235,
        "13616": 140,
        "13617": 82,
        "13618": 101,
        "13619": 128,
        "13620": 221,
        "13621": 76,
        "13622": 78,
        "13623": 187,
        "13624": 108,
        "13625": 145,
        "13626": 11,
        "13627": 226,
        "13628": 254,
        "13629": 81,
        "13630": 110,
        "13631": 43,
        "13632": 121,
        "13633": 31,
        "13634": 244,
        "13635": 3,
        "13636": 30,
        "13637": 22,
        "13638": 35,
        "13639": 38,
        "13640": 232,
        "13641": 40,
        "13642": 6,
        "13643": 104,
        "13644": 81,
        "13645": 74,
        "13646": 51,
        "13647": 238,
        "13648": 210,
        "13649": 138,
        "13650": 105,
        "13651": 32,
        "13652": 35,
        "13653": 78,
        "13654": 51,
        "13655": 132,
        "13656": 82,
        "13657": 78,
        "13658": 140,
        "13659": 186,
        "13660": 69,
        "13661": 86,
        "13662": 32,
        "13663": 209,
        "13664": 180,
        "13665": 180,
        "13666": 133,
        "13667": 100,
        "13668": 21,
        "13669": 107,
        "13670": 134,
        "13671": 187,
        "13672": 135,
        "13673": 156,
        "13674": 193,
        "13675": 1,
        "13676": 9,
        "13677": 175,
        "13678": 239,
        "13679": 78,
        "13680": 97,
        "13681": 221,
        "13682": 173,
        "13683": 119,
        "13684": 105,
        "13685": 106,
        "13686": 29,
        "13687": 164,
        "13688": 27,
        "13689": 184,
        "13690": 158,
        "13691": 247,
        "13692": 78,
        "13693": 90,
        "13694": 129,
        "13695": 112,
        "13696": 2,
        "13697": 35,
        "13698": 205,
        "13699": 226,
        "13700": 253,
        "13701": 126,
        "13702": 141,
        "13703": 72,
        "13704": 28,
        "13705": 228,
        "13706": 175,
        "13707": 122,
        "13708": 86,
        "13709": 72,
        "13710": 2,
        "13711": 194,
        "13712": 183,
        "13713": 252,
        "13714": 227,
        "13715": 188,
        "13716": 54,
        "13717": 127,
        "13718": 97,
        "13719": 226,
        "13720": 147,
        "13721": 114,
        "13722": 223,
        "13723": 185,
        "13724": 71,
        "13725": 137,
        "13726": 38,
        "13727": 224,
        "13728": 167,
        "13729": 0,
        "13730": 72,
        "13731": 28,
        "13732": 100,
        "13733": 72,
        "13734": 235,
        "13735": 197,
        "13736": 202,
        "13737": 67,
        "13738": 40,
        "13739": 170,
        "13740": 9,
        "13741": 23,
        "13742": 184,
        "13743": 34,
        "13744": 243,
        "13745": 57,
        "13746": 4,
        "13747": 253,
        "13748": 185,
        "13749": 201,
        "13750": 227,
        "13751": 20,
        "13752": 72,
        "13753": 26,
        "13754": 86,
        "13755": 4,
        "13756": 54,
        "13757": 243,
        "13758": 219,
        "13759": 16,
        "13760": 151,
        "13761": 202,
        "13762": 62,
        "13763": 90,
        "13764": 95,
        "13765": 171,
        "13766": 32,
        "13767": 210,
        "13768": 154,
        "13769": 220,
        "13770": 227,
        "13771": 106,
        "13772": 107,
        "13773": 50,
        "13774": 58,
        "13775": 1,
        "13776": 220,
        "13777": 242,
        "13778": 233,
        "13779": 186,
        "13780": 228,
        "13781": 244,
        "13782": 24,
        "13783": 185,
        "13784": 2,
        "13785": 39,
        "13786": 200,
        "13787": 84,
        "13788": 64,
        "13789": 99,
        "13790": 249,
        "13791": 47,
        "13792": 193,
        "13793": 101,
        "13794": 0,
        "13795": 80,
        "13796": 119,
        "13797": 252,
        "13798": 211,
        "13799": 137,
        "13800": 141,
        "13801": 127,
        "13802": 57,
        "13803": 122,
        "13804": 35,
        "13805": 174,
        "13806": 16,
        "13807": 46,
        "13808": 224,
        "13809": 228,
        "13810": 4,
        "13811": 178,
        "13812": 198,
        "13813": 76,
        "13814": 253,
        "13815": 73,
        "13816": 79,
        "13817": 209,
        "13818": 44,
        "13819": 236,
        "13820": 101,
        "13821": 36,
        "13822": 39,
        "13823": 213,
        "13824": 190,
        "13825": 32,
        "13826": 105,
        "13827": 129,
        "13828": 51,
        "13829": 86,
        "13830": 8,
        "13831": 19,
        "13832": 196,
        "13833": 219,
        "13834": 207,
        "13835": 169,
        "13836": 37,
        "13837": 110,
        "13838": 8,
        "13839": 10,
        "13840": 77,
        "13841": 144,
        "13842": 248,
        "13843": 245,
        "13844": 50,
        "13845": 153,
        "13846": 107,
        "13847": 249,
        "13848": 1,
        "13849": 203,
        "13850": 25,
        "13851": 240,
        "13852": 195,
        "13853": 14,
        "13854": 6,
        "13855": 209,
        "13856": 92,
        "13857": 31,
        "13858": 35,
        "13859": 123,
        "13860": 249,
        "13861": 58,
        "13862": 90,
        "13863": 251,
        "13864": 171,
        "13865": 208,
        "13866": 5,
        "13867": 78,
        "13868": 188,
        "13869": 243,
        "13870": 167,
        "13871": 241,
        "13872": 128,
        "13873": 37,
        "13874": 226,
        "13875": 136,
        "13876": 126,
        "13877": 252,
        "13878": 143,
        "13879": 243,
        "13880": 163,
        "13881": 52,
        "13882": 22,
        "13883": 253,
        "13884": 17,
        "13885": 202,
        "13886": 163,
        "13887": 220,
        "13888": 92,
        "13889": 180,
        "13890": 62,
        "13891": 124,
        "13892": 148,
        "13893": 247,
        "13894": 194,
        "13895": 130,
        "13896": 54,
        "13897": 38,
        "13898": 129,
        "13899": 3,
        "13900": 94,
        "13901": 97,
        "13902": 70,
        "13903": 137,
        "13904": 43,
        "13905": 34,
        "13906": 234,
        "13907": 154,
        "13908": 179,
        "13909": 77,
        "13910": 77,
        "13911": 221,
        "13912": 181,
        "13913": 116,
        "13914": 80,
        "13915": 88,
        "13916": 231,
        "13917": 230,
        "13918": 206,
        "13919": 116,
        "13920": 82,
        "13921": 227,
        "13922": 247,
        "13923": 181,
        "13924": 220,
        "13925": 31,
        "13926": 52,
        "13927": 207,
        "13928": 54,
        "13929": 208,
        "13930": 172,
        "13931": 79,
        "13932": 184,
        "13933": 66,
        "13934": 168,
        "13935": 156,
        "13936": 84,
        "13937": 174,
        "13938": 60,
        "13939": 200,
        "13940": 253,
        "13941": 98,
        "13942": 238,
        "13943": 238,
        "13944": 115,
        "13945": 15,
        "13946": 137,
        "13947": 141,
        "13948": 201,
        "13949": 232,
        "13950": 41,
        "13951": 42,
        "13952": 48,
        "13953": 124,
        "13954": 76,
        "13955": 161,
        "13956": 52,
        "13957": 125,
        "13958": 57,
        "13959": 3,
        "13960": 105,
        "13961": 49,
        "13962": 242,
        "13963": 139,
        "13964": 17,
        "13965": 254,
        "13966": 37,
        "13967": 205,
        "13968": 172,
        "13969": 55,
        "13970": 192,
        "13971": 247,
        "13972": 217,
        "13973": 102,
        "13974": 183,
        "13975": 39,
        "13976": 36,
        "13977": 44,
        "13978": 99,
        "13979": 29,
        "13980": 200,
        "13981": 197,
        "13982": 108,
        "13983": 11,
        "13984": 203,
        "13985": 135,
        "13986": 85,
        "13987": 195,
        "13988": 118,
        "13989": 107,
        "13990": 116,
        "13991": 144,
        "13992": 226,
        "13993": 119,
        "13994": 77,
        "13995": 79,
        "13996": 140,
        "13997": 23,
        "13998": 3,
        "13999": 119,
        "14000": 201,
        "14001": 245,
        "14002": 20,
        "14003": 64,
        "14004": 158,
        "14005": 214,
        "14006": 48,
        "14007": 46,
        "14008": 211,
        "14009": 60,
        "14010": 189,
        "14011": 116,
        "14012": 30,
        "14013": 59,
        "14014": 112,
        "14015": 89,
        "14016": 241,
        "14017": 150,
        "14018": 219,
        "14019": 178,
        "14020": 174,
        "14021": 195,
        "14022": 41,
        "14023": 189,
        "14024": 116,
        "14025": 8,
        "14026": 191,
        "14027": 10,
        "14028": 252,
        "14029": 243,
        "14030": 34,
        "14031": 144,
        "14032": 29,
        "14033": 214,
        "14034": 173,
        "14035": 74,
        "14036": 99,
        "14037": 222,
        "14038": 7,
        "14039": 137,
        "14040": 84,
        "14041": 157,
        "14042": 111,
        "14043": 228,
        "14044": 222,
        "14045": 126,
        "14046": 179,
        "14047": 212,
        "14048": 153,
        "14049": 94,
        "14050": 174,
        "14051": 223,
        "14052": 192,
        "14053": 152,
        "14054": 101,
        "14055": 142,
        "14056": 163,
        "14057": 8,
        "14058": 162,
        "14059": 158,
        "14060": 95,
        "14061": 156,
        "14062": 253,
        "14063": 254,
        "14064": 170,
        "14065": 153,
        "14066": 242,
        "14067": 233,
        "14068": 15,
        "14069": 52,
        "14070": 49,
        "14071": 185,
        "14072": 43,
        "14073": 56,
        "14074": 122,
        "14075": 215,
        "14076": 239,
        "14077": 185,
        "14078": 231,
        "14079": 205,
        "14080": 211,
        "14081": 223,
        "14082": 142,
        "14083": 122,
        "14084": 107,
        "14085": 46,
        "14086": 234,
        "14087": 153,
        "14088": 50,
        "14089": 12,
        "14090": 157,
        "14091": 240,
        "14092": 103,
        "14093": 112,
        "14094": 47,
        "14095": 110,
        "14096": 124,
        "14097": 9,
        "14098": 196,
        "14099": 238,
        "14100": 192,
        "14101": 255,
        "14102": 215,
        "14103": 207,
        "14104": 88,
        "14105": 219,
        "14106": 37,
        "14107": 129,
        "14108": 157,
        "14109": 84,
        "14110": 64,
        "14111": 205,
        "14112": 250,
        "14113": 20,
        "14114": 245,
        "14115": 203,
        "14116": 248,
        "14117": 26,
        "14118": 170,
        "14119": 232,
        "14120": 83,
        "14121": 249,
        "14122": 150,
        "14123": 248,
        "14124": 185,
        "14125": 107,
        "14126": 235,
        "14127": 4,
        "14128": 205,
        "14129": 180,
        "14130": 48,
        "14131": 206,
        "14132": 219,
        "14133": 66,
        "14134": 103,
        "14135": 184,
        "14136": 226,
        "14137": 195,
        "14138": 10,
        "14139": 231,
        "14140": 21,
        "14141": 210,
        "14142": 255,
        "14143": 6,
        "14144": 220,
        "14145": 239,
        "14146": 164,
        "14147": 5,
        "14148": 195,
        "14149": 73,
        "14150": 179,
        "14151": 85,
        "14152": 14,
        "14153": 231,
        "14154": 197,
        "14155": 54,
        "14156": 228,
        "14157": 46,
        "14158": 202,
        "14159": 217,
        "14160": 239,
        "14161": 87,
        "14162": 14,
        "14163": 214,
        "14164": 177,
        "14165": 91,
        "14166": 145,
        "14167": 120,
        "14168": 230,
        "14169": 236,
        "14170": 252,
        "14171": 245,
        "14172": 86,
        "14173": 43,
        "14174": 10,
        "14175": 137,
        "14176": 180,
        "14177": 146,
        "14178": 72,
        "14179": 126,
        "14180": 167,
        "14181": 232,
        "14182": 13,
        "14183": 187,
        "14184": 255,
        "14185": 64,
        "14186": 241,
        "14187": 1,
        "14188": 241,
        "14189": 150,
        "14190": 182,
        "14191": 74,
        "14192": 228,
        "14193": 90,
        "14194": 170,
        "14195": 216,
        "14196": 136,
        "14197": 96,
        "14198": 198,
        "14199": 112,
        "14200": 49,
        "14201": 241,
        "14202": 221,
        "14203": 223,
        "14204": 191,
        "14205": 156,
        "14206": 129,
        "14207": 239,
        "14208": 187,
        "14209": 253,
        "14210": 83,
        "14211": 74,
        "14212": 115,
        "14213": 171,
        "14214": 205,
        "14215": 139,
        "14216": 244,
        "14217": 200,
        "14218": 53,
        "14219": 174,
        "14220": 154,
        "14221": 83,
        "14222": 188,
        "14223": 250,
        "14224": 107,
        "14225": 39,
        "14226": 232,
        "14227": 12,
        "14228": 214,
        "14229": 83,
        "14230": 194,
        "14231": 43,
        "14232": 158,
        "14233": 81,
        "14234": 163,
        "14235": 135,
        "14236": 82,
        "14237": 109,
        "14238": 178,
        "14239": 175,
        "14240": 35,
        "14241": 141,
        "14242": 23,
        "14243": 157,
        "14244": 56,
        "14245": 21,
        "14246": 11,
        "14247": 40,
        "14248": 106,
        "14249": 161,
        "14250": 193,
        "14251": 122,
        "14252": 254,
        "14253": 15,
        "14254": 110,
        "14255": 42,
        "14256": 62,
        "14257": 201,
        "14258": 31,
        "14259": 19,
        "14260": 119,
        "14261": 112,
        "14262": 176,
        "14263": 11,
        "14264": 213,
        "14265": 1,
        "14266": 47,
        "14267": 148,
        "14268": 123,
        "14269": 77,
        "14270": 77,
        "14271": 247,
        "14272": 114,
        "14273": 224,
        "14274": 47,
        "14275": 87,
        "14276": 140,
        "14277": 137,
        "14278": 57,
        "14279": 152,
        "14280": 35,
        "14281": 115,
        "14282": 123,
        "14283": 47,
        "14284": 25,
        "14285": 207,
        "14286": 181,
        "14287": 174,
        "14288": 211,
        "14289": 124,
        "14290": 134,
        "14291": 255,
        "14292": 98,
        "14293": 52,
        "14294": 179,
        "14295": 34,
        "14296": 104,
        "14297": 1,
        "14298": 205,
        "14299": 58,
        "14300": 233,
        "14301": 192,
        "14302": 119,
        "14303": 67,
        "14304": 42,
        "14305": 236,
        "14306": 25,
        "14307": 151,
        "14308": 68,
        "14309": 248,
        "14310": 178,
        "14311": 57,
        "14312": 66,
        "14313": 46,
        "14314": 140,
        "14315": 135,
        "14316": 10,
        "14317": 221,
        "14318": 27,
        "14319": 96,
        "14320": 220,
        "14321": 79,
        "14322": 162,
        "14323": 199,
        "14324": 125,
        "14325": 136,
        "14326": 62,
        "14327": 170,
        "14328": 95,
        "14329": 88,
        "14330": 44,
        "14331": 62,
        "14332": 71,
        "14333": 166,
        "14334": 63,
        "14335": 148,
        "14336": 156,
        "14337": 99,
        "14338": 202,
        "14339": 215,
        "14340": 97,
        "14341": 32,
        "14342": 6,
        "14343": 198,
        "14344": 106,
        "14345": 137,
        "14346": 105,
        "14347": 3,
        "14348": 223,
        "14349": 230,
        "14350": 83,
        "14351": 124,
        "14352": 184,
        "14353": 86,
        "14354": 148,
        "14355": 124,
        "14356": 14,
        "14357": 13,
        "14358": 108,
        "14359": 59,
        "14360": 84,
        "14361": 10,
        "14362": 121,
        "14363": 166,
        "14364": 38,
        "14365": 15,
        "14366": 253,
        "14367": 2,
        "14368": 197,
        "14369": 61,
        "14370": 28,
        "14371": 216,
        "14372": 104,
        "14373": 67,
        "14374": 106,
        "14375": 8,
        "14376": 195,
        "14377": 72,
        "14378": 91,
        "14379": 32,
        "14380": 21,
        "14381": 157,
        "14382": 180,
        "14383": 76,
        "14384": 83,
        "14385": 254,
        "14386": 252,
        "14387": 0,
        "14388": 126,
        "14389": 84,
        "14390": 219,
        "14391": 148,
        "14392": 201,
        "14393": 162,
        "14394": 163,
        "14395": 64,
        "14396": 61,
        "14397": 114,
        "14398": 217,
        "14399": 40,
        "14400": 175,
        "14401": 33,
        "14402": 246,
        "14403": 134,
        "14404": 54,
        "14405": 166,
        "14406": 127,
        "14407": 3,
        "14408": 244,
        "14409": 241,
        "14410": 89,
        "14411": 63,
        "14412": 212,
        "14413": 210,
        "14414": 182,
        "14415": 139,
        "14416": 18,
        "14417": 116,
        "14418": 170,
        "14419": 112,
        "14420": 242,
        "14421": 18,
        "14422": 102,
        "14423": 138,
        "14424": 207,
        "14425": 247,
        "14426": 48,
        "14427": 48,
        "14428": 25,
        "14429": 82,
        "14430": 220,
        "14431": 122,
        "14432": 115,
        "14433": 13,
        "14434": 151,
        "14435": 92,
        "14436": 46,
        "14437": 224,
        "14438": 178,
        "14439": 29,
        "14440": 79,
        "14441": 133,
        "14442": 242,
        "14443": 76,
        "14444": 61,
        "14445": 96,
        "14446": 125,
        "14447": 244,
        "14448": 198,
        "14449": 253,
        "14450": 126,
        "14451": 194,
        "14452": 247,
        "14453": 16,
        "14454": 57,
        "14455": 172,
        "14456": 79,
        "14457": 112,
        "14458": 183,
        "14459": 206,
        "14460": 210,
        "14461": 179,
        "14462": 115,
        "14463": 88,
        "14464": 183,
        "14465": 91,
        "14466": 122,
        "14467": 204,
        "14468": 1,
        "14469": 246,
        "14470": 37,
        "14471": 253,
        "14472": 39,
        "14473": 33,
        "14474": 53,
        "14475": 238,
        "14476": 123,
        "14477": 113,
        "14478": 128,
        "14479": 127,
        "14480": 146,
        "14481": 93,
        "14482": 160,
        "14483": 133,
        "14484": 136,
        "14485": 185,
        "14486": 198,
        "14487": 115,
        "14488": 56,
        "14489": 8,
        "14490": 48,
        "14491": 128,
        "14492": 114,
        "14493": 233,
        "14494": 46,
        "14495": 192,
        "14496": 70,
        "14497": 33,
        "14498": 35,
        "14499": 206,
        "14500": 73,
        "14501": 43,
        "14502": 121,
        "14503": 213,
        "14504": 237,
        "14505": 41,
        "14506": 58,
        "14507": 231,
        "14508": 57,
        "14509": 70,
        "14510": 184,
        "14511": 9,
        "14512": 114,
        "14513": 236,
        "14514": 96,
        "14515": 205,
        "14516": 169,
        "14517": 21,
        "14518": 34,
        "14519": 52,
        "14520": 235,
        "14521": 76,
        "14522": 178,
        "14523": 95,
        "14524": 43,
        "14525": 14,
        "14526": 207,
        "14527": 155,
        "14528": 141,
        "14529": 85,
        "14530": 172,
        "14531": 118,
        "14532": 252,
        "14533": 128,
        "14534": 86,
        "14535": 92,
        "14536": 206,
        "14537": 199,
        "14538": 195,
        "14539": 225,
        "14540": 137,
        "14541": 28,
        "14542": 30,
        "14543": 228,
        "14544": 84,
        "14545": 12,
        "14546": 84,
        "14547": 192,
        "14548": 90,
        "14549": 2,
        "14550": 175,
        "14551": 250,
        "14552": 134,
        "14553": 26,
        "14554": 81,
        "14555": 60,
        "14556": 90,
        "14557": 131,
        "14558": 124,
        "14559": 91,
        "14560": 43,
        "14561": 136,
        "14562": 52,
        "14563": 169,
        "14564": 83,
        "14565": 55,
        "14566": 145,
        "14567": 109,
        "14568": 187,
        "14569": 106,
        "14570": 43,
        "14571": 123,
        "14572": 163,
        "14573": 177,
        "14574": 235,
        "14575": 218,
        "14576": 214,
        "14577": 16,
        "14578": 137,
        "14579": 199,
        "14580": 172,
        "14581": 86,
        "14582": 29,
        "14583": 249,
        "14584": 150,
        "14585": 114,
        "14586": 199,
        "14587": 85,
        "14588": 5,
        "14589": 250,
        "14590": 214,
        "14591": 148,
        "14592": 208,
        "14593": 181,
        "14594": 117,
        "14595": 178,
        "14596": 125,
        "14597": 42,
        "14598": 224,
        "14599": 167,
        "14600": 107,
        "14601": 97,
        "14602": 198,
        "14603": 254,
        "14604": 159,
        "14605": 79,
        "14606": 146,
        "14607": 178,
        "14608": 100,
        "14609": 73,
        "14610": 13,
        "14611": 77,
        "14612": 108,
        "14613": 92,
        "14614": 179,
        "14615": 121,
        "14616": 87,
        "14617": 81,
        "14618": 69,
        "14619": 62,
        "14620": 250,
        "14621": 73,
        "14622": 46,
        "14623": 237,
        "14624": 40,
        "14625": 111,
        "14626": 43,
        "14627": 173,
        "14628": 159,
        "14629": 210,
        "14630": 170,
        "14631": 12,
        "14632": 235,
        "14633": 59,
        "14634": 238,
        "14635": 218,
        "14636": 22,
        "14637": 211,
        "14638": 178,
        "14639": 175,
        "14640": 47,
        "14641": 166,
        "14642": 29,
        "14643": 54,
        "14644": 234,
        "14645": 214,
        "14646": 111,
        "14647": 80,
        "14648": 26,
        "14649": 216,
        "14650": 45,
        "14651": 1,
        "14652": 126,
        "14653": 195,
        "14654": 150,
        "14655": 76,
        "14656": 245,
        "14657": 3,
        "14658": 169,
        "14659": 204,
        "14660": 28,
        "14661": 163,
        "14662": 132,
        "14663": 48,
        "14664": 191,
        "14665": 26,
        "14666": 68,
        "14667": 54,
        "14668": 130,
        "14669": 242,
        "14670": 100,
        "14671": 197,
        "14672": 162,
        "14673": 240,
        "14674": 102,
        "14675": 155,
        "14676": 44,
        "14677": 174,
        "14678": 14,
        "14679": 167,
        "14680": 95,
        "14681": 220,
        "14682": 147,
        "14683": 149,
        "14684": 210,
        "14685": 128,
        "14686": 90,
        "14687": 42,
        "14688": 83,
        "14689": 251,
        "14690": 123,
        "14691": 163,
        "14692": 89,
        "14693": 128,
        "14694": 189,
        "14695": 162,
        "14696": 240,
        "14697": 185,
        "14698": 235,
        "14699": 211,
        "14700": 190,
        "14701": 217,
        "14702": 9,
        "14703": 98,
        "14704": 179,
        "14705": 59,
        "14706": 21,
        "14707": 138,
        "14708": 192,
        "14709": 231,
        "14710": 166,
        "14711": 69,
        "14712": 40,
        "14713": 36,
        "14714": 220,
        "14715": 119,
        "14716": 162,
        "14717": 21,
        "14718": 41,
        "14719": 133,
        "14720": 229,
        "14721": 162,
        "14722": 131,
        "14723": 217,
        "14724": 247,
        "14725": 73,
        "14726": 48,
        "14727": 64,
        "14728": 99,
        "14729": 58,
        "14730": 170,
        "14731": 100,
        "14732": 70,
        "14733": 155,
        "14734": 226,
        "14735": 231,
        "14736": 210,
        "14737": 209,
        "14738": 201,
        "14739": 221,
        "14740": 128,
        "14741": 112,
        "14742": 45,
        "14743": 234,
        "14744": 19,
        "14745": 218,
        "14746": 226,
        "14747": 28,
        "14748": 246,
        "14749": 231,
        "14750": 164,
        "14751": 17,
        "14752": 102,
        "14753": 227,
        "14754": 18,
        "14755": 169,
        "14756": 52,
        "14757": 184,
        "14758": 164,
        "14759": 132,
        "14760": 173,
        "14761": 88,
        "14762": 245,
        "14763": 65,
        "14764": 244,
        "14765": 76,
        "14766": 18,
        "14767": 17,
        "14768": 229,
        "14769": 92,
        "14770": 211,
        "14771": 194,
        "14772": 135,
        "14773": 140,
        "14774": 141,
        "14775": 214,
        "14776": 170,
        "14777": 108,
        "14778": 18,
        "14779": 229,
        "14780": 230,
        "14781": 18,
        "14782": 44,
        "14783": 240,
        "14784": 231,
        "14785": 56,
        "14786": 41,
        "14787": 138,
        "14788": 163,
        "14789": 208,
        "14790": 67,
        "14791": 220,
        "14792": 177,
        "14793": 230,
        "14794": 102,
        "14795": 113,
        "14796": 147,
        "14797": 133,
        "14798": 242,
        "14799": 136,
        "14800": 232,
        "14801": 88,
        "14802": 17,
        "14803": 105,
        "14804": 177,
        "14805": 19,
        "14806": 128,
        "14807": 162,
        "14808": 153,
        "14809": 224,
        "14810": 32,
        "14811": 10,
        "14812": 28,
        "14813": 120,
        "14814": 104,
        "14815": 40,
        "14816": 89,
        "14817": 119,
        "14818": 28,
        "14819": 31,
        "14820": 164,
        "14821": 76,
        "14822": 23,
        "14823": 93,
        "14824": 157,
        "14825": 163,
        "14826": 140,
        "14827": 144,
        "14828": 228,
        "14829": 92,
        "14830": 187,
        "14831": 73,
        "14832": 205,
        "14833": 3,
        "14834": 55,
        "14835": 222,
        "14836": 240,
        "14837": 174,
        "14838": 223,
        "14839": 182,
        "14840": 202,
        "14841": 21,
        "14842": 157,
        "14843": 231,
        "14844": 192,
        "14845": 52,
        "14846": 187,
        "14847": 247,
        "14848": 177,
        "14849": 46,
        "14850": 134,
        "14851": 86,
        "14852": 189,
        "14853": 70,
        "14854": 37,
        "14855": 169,
        "14856": 177,
        "14857": 178,
        "14858": 27,
        "14859": 239,
        "14860": 214,
        "14861": 204,
        "14862": 42,
        "14863": 191,
        "14864": 235,
        "14865": 67,
        "14866": 219,
        "14867": 154,
        "14868": 119,
        "14869": 228,
        "14870": 39,
        "14871": 34,
        "14872": 17,
        "14873": 84,
        "14874": 105,
        "14875": 156,
        "14876": 143,
        "14877": 86,
        "14878": 192,
        "14879": 43,
        "14880": 222,
        "14881": 106,
        "14882": 186,
        "14883": 57,
        "14884": 56,
        "14885": 94,
        "14886": 42,
        "14887": 42,
        "14888": 155,
        "14889": 137,
        "14890": 237,
        "14891": 125,
        "14892": 89,
        "14893": 39,
        "14894": 3,
        "14895": 179,
        "14896": 96,
        "14897": 159,
        "14898": 181,
        "14899": 143,
        "14900": 236,
        "14901": 77,
        "14902": 177,
        "14903": 118,
        "14904": 209,
        "14905": 152,
        "14906": 235,
        "14907": 185,
        "14908": 182,
        "14909": 201,
        "14910": 8,
        "14911": 89,
        "14912": 24,
        "14913": 218,
        "14914": 231,
        "14915": 36,
        "14916": 195,
        "14917": 127,
        "14918": 7,
        "14919": 227,
        "14920": 158,
        "14921": 182,
        "14922": 229,
        "14923": 93,
        "14924": 41,
        "14925": 112,
        "14926": 222,
        "14927": 77,
        "14928": 247,
        "14929": 55,
        "14930": 202,
        "14931": 122,
        "14932": 152,
        "14933": 106,
        "14934": 121,
        "14935": 57,
        "14936": 22,
        "14937": 220,
        "14938": 238,
        "14939": 47,
        "14940": 15,
        "14941": 12,
        "14942": 163,
        "14943": 228,
        "14944": 115,
        "14945": 190,
        "14946": 232,
        "14947": 231,
        "14948": 234,
        "14949": 86,
        "14950": 238,
        "14951": 113,
        "14952": 93,
        "14953": 200,
        "14954": 255,
        "14955": 112,
        "14956": 110,
        "14957": 233,
        "14958": 187,
        "14959": 182,
        "14960": 105,
        "14961": 250,
        "14962": 98,
        "14963": 249,
        "14964": 204,
        "14965": 180,
        "14966": 18,
        "14967": 181,
        "14968": 192,
        "14969": 153,
        "14970": 237,
        "14971": 4,
        "14972": 75,
        "14973": 133,
        "14974": 64,
        "14975": 67,
        "14976": 130,
        "14977": 23,
        "14978": 18,
        "14979": 109,
        "14980": 121,
        "14981": 18,
        "14982": 163,
        "14983": 41,
        "14984": 214,
        "14985": 252,
        "14986": 138,
        "14987": 150,
        "14988": 230,
        "14989": 152,
        "14990": 38,
        "14991": 39,
        "14992": 218,
        "14993": 213,
        "14994": 26,
        "14995": 81,
        "14996": 199,
        "14997": 241,
        "14998": 68,
        "14999": 141,
        "15000": 144,
        "15001": 66,
        "15002": 11,
        "15003": 22,
        "15004": 161,
        "15005": 107,
        "15006": 199,
        "15007": 189,
        "15008": 65,
        "15009": 84,
        "15010": 168,
        "15011": 30,
        "15012": 173,
        "15013": 85,
        "15014": 136,
        "15015": 219,
        "15016": 202,
        "15017": 174,
        "15018": 15,
        "15019": 15,
        "15020": 175,
        "15021": 14,
        "15022": 130,
        "15023": 131,
        "15024": 159,
        "15025": 19,
        "15026": 89,
        "15027": 126,
        "15028": 243,
        "15029": 58,
        "15030": 245,
        "15031": 41,
        "15032": 142,
        "15033": 35,
        "15034": 58,
        "15035": 90,
        "15036": 76,
        "15037": 223,
        "15038": 168,
        "15039": 91,
        "15040": 238,
        "15041": 86,
        "15042": 24,
        "15043": 191,
        "15044": 71,
        "15045": 39,
        "15046": 245,
        "15047": 194,
        "15048": 87,
        "15049": 75,
        "15050": 156,
        "15051": 208,
        "15052": 130,
        "15053": 9,
        "15054": 138,
        "15055": 48,
        "15056": 252,
        "15057": 203,
        "15058": 177,
        "15059": 179,
        "15060": 71,
        "15061": 209,
        "15062": 27,
        "15063": 14,
        "15064": 19,
        "15065": 223,
        "15066": 75,
        "15067": 178,
        "15068": 230,
        "15069": 53,
        "15070": 9,
        "15071": 55,
        "15072": 116,
        "15073": 55,
        "15074": 77,
        "15075": 116,
        "15076": 53,
        "15077": 169,
        "15078": 28,
        "15079": 122,
        "15080": 226,
        "15081": 68,
        "15082": 16,
        "15083": 206,
        "15084": 251,
        "15085": 94,
        "15086": 134,
        "15087": 202,
        "15088": 72,
        "15089": 212,
        "15090": 19,
        "15091": 65,
        "15092": 50,
        "15093": 91,
        "15094": 147,
        "15095": 251,
        "15096": 239,
        "15097": 49,
        "15098": 9,
        "15099": 24,
        "15100": 10,
        "15101": 38,
        "15102": 113,
        "15103": 108,
        "15104": 209,
        "15105": 238,
        "15106": 24,
        "15107": 75,
        "15108": 90,
        "15109": 95,
        "15110": 113,
        "15111": 112,
        "15112": 212,
        "15113": 73,
        "15114": 57,
        "15115": 81,
        "15116": 110,
        "15117": 197,
        "15118": 168,
        "15119": 76,
        "15120": 175,
        "15121": 149,
        "15122": 118,
        "15123": 56,
        "15124": 231,
        "15125": 207,
        "15126": 155,
        "15127": 144,
        "15128": 199,
        "15129": 12,
        "15130": 36,
        "15131": 166,
        "15132": 184,
        "15133": 55,
        "15134": 18,
        "15135": 46,
        "15136": 250,
        "15137": 104,
        "15138": 59,
        "15139": 127,
        "15140": 108,
        "15141": 56,
        "15142": 212,
        "15143": 46,
        "15144": 248,
        "15145": 146,
        "15146": 1,
        "15147": 140,
        "15148": 71,
        "15149": 212,
        "15150": 132,
        "15151": 13,
        "15152": 115,
        "15153": 145,
        "15154": 70,
        "15155": 88,
        "15156": 65,
        "15157": 56,
        "15158": 231,
        "15159": 133,
        "15160": 147,
        "15161": 170,
        "15162": 224,
        "15163": 225,
        "15164": 6,
        "15165": 229,
        "15166": 22,
        "15167": 120,
        "15168": 251,
        "15169": 26,
        "15170": 139,
        "15171": 131,
        "15172": 135,
        "15173": 8,
        "15174": 9,
        "15175": 28,
        "15176": 216,
        "15177": 167,
        "15178": 132,
        "15179": 168,
        "15180": 144,
        "15181": 105,
        "15182": 169,
        "15183": 91,
        "15184": 8,
        "15185": 64,
        "15186": 80,
        "15187": 35,
        "15188": 50,
        "15189": 39,
        "15190": 202,
        "15191": 172,
        "15192": 6,
        "15193": 175,
        "15194": 14,
        "15195": 55,
        "15196": 131,
        "15197": 2,
        "15198": 153,
        "15199": 87,
        "15200": 21,
        "15201": 124,
        "15202": 35,
        "15203": 40,
        "15204": 57,
        "15205": 153,
        "15206": 153,
        "15207": 27,
        "15208": 192,
        "15209": 205,
        "15210": 155,
        "15211": 103,
        "15212": 228,
        "15213": 142,
        "15214": 0,
        "15215": 151,
        "15216": 3,
        "15217": 28,
        "15218": 208,
        "15219": 187,
        "15220": 2,
        "15221": 167,
        "15222": 172,
        "15223": 97,
        "15224": 243,
        "15225": 92,
        "15226": 110,
        "15227": 31,
        "15228": 148,
        "15229": 138,
        "15230": 244,
        "15231": 146,
        "15232": 64,
        "15233": 112,
        "15234": 192,
        "15235": 136,
        "15236": 166,
        "15237": 121,
        "15238": 154,
        "15239": 95,
        "15240": 229,
        "15241": 189,
        "15242": 43,
        "15243": 169,
        "15244": 132,
        "15245": 99,
        "15246": 151,
        "15247": 209,
        "15248": 59,
        "15249": 221,
        "15250": 233,
        "15251": 6,
        "15252": 168,
        "15253": 246,
        "15254": 149,
        "15255": 216,
        "15256": 28,
        "15257": 4,
        "15258": 173,
        "15259": 98,
        "15260": 208,
        "15261": 29,
        "15262": 178,
        "15263": 144,
        "15264": 47,
        "15265": 105,
        "15266": 204,
        "15267": 31,
        "15268": 249,
        "15269": 137,
        "15270": 34,
        "15271": 27,
        "15272": 167,
        "15273": 104,
        "15274": 86,
        "15275": 95,
        "15276": 3,
        "15277": 143,
        "15278": 127,
        "15279": 96,
        "15280": 83,
        "15281": 229,
        "15282": 174,
        "15283": 252,
        "15284": 4,
        "15285": 42,
        "15286": 35,
        "15287": 221,
        "15288": 144,
        "15289": 140,
        "15290": 147,
        "15291": 38,
        "15292": 130,
        "15293": 136,
        "15294": 100,
        "15295": 6,
        "15296": 107,
        "15297": 163,
        "15298": 172,
        "15299": 98,
        "15300": 154,
        "15301": 255,
        "15302": 206,
        "15303": 48,
        "15304": 200,
        "15305": 185,
        "15306": 43,
        "15307": 246,
        "15308": 130,
        "15309": 41,
        "15310": 195,
        "15311": 118,
        "15312": 51,
        "15313": 134,
        "15314": 225,
        "15315": 29,
        "15316": 161,
        "15317": 1,
        "15318": 55,
        "15319": 68,
        "15320": 207,
        "15321": 90,
        "15322": 138,
        "15323": 187,
        "15324": 44,
        "15325": 126,
        "15326": 206,
        "15327": 237,
        "15328": 28,
        "15329": 237,
        "15330": 11,
        "15331": 147,
        "15332": 217,
        "15333": 38,
        "15334": 42,
        "15335": 251,
        "15336": 183,
        "15337": 124,
        "15338": 47,
        "15339": 114,
        "15340": 91,
        "15341": 126,
        "15342": 26,
        "15343": 26,
        "15344": 253,
        "15345": 146,
        "15346": 216,
        "15347": 180,
        "15348": 53,
        "15349": 227,
        "15350": 226,
        "15351": 244,
        "15352": 102,
        "15353": 184,
        "15354": 89,
        "15355": 111,
        "15356": 83,
        "15357": 71,
        "15358": 18,
        "15359": 171,
        "15360": 44,
        "15361": 163,
        "15362": 240,
        "15363": 133,
        "15364": 183,
        "15365": 15,
        "15366": 71,
        "15367": 25,
        "15368": 113,
        "15369": 174,
        "15370": 147,
        "15371": 217,
        "15372": 41,
        "15373": 19,
        "15374": 13,
        "15375": 159,
        "15376": 207,
        "15377": 243,
        "15378": 115,
        "15379": 209,
        "15380": 79,
        "15381": 28,
        "15382": 141,
        "15383": 122,
        "15384": 30,
        "15385": 183,
        "15386": 233,
        "15387": 15,
        "15388": 237,
        "15389": 218,
        "15390": 1,
        "15391": 16,
        "15392": 143,
        "15393": 46,
        "15394": 232,
        "15395": 141,
        "15396": 247,
        "15397": 60,
        "15398": 61,
        "15399": 54,
        "15400": 51,
        "15401": 49,
        "15402": 146,
        "15403": 171,
        "15404": 180,
        "15405": 82,
        "15406": 29,
        "15407": 23,
        "15408": 84,
        "15409": 69,
        "15410": 180,
        "15411": 31,
        "15412": 185,
        "15413": 122,
        "15414": 193,
        "15415": 187,
        "15416": 58,
        "15417": 208,
        "15418": 65,
        "15419": 195,
        "15420": 161,
        "15421": 87,
        "15422": 33,
        "15423": 22,
        "15424": 26,
        "15425": 153,
        "15426": 186,
        "15427": 31,
        "15428": 8,
        "15429": 171,
        "15430": 209,
        "15431": 27,
        "15432": 128,
        "15433": 232,
        "15434": 131,
        "15435": 100,
        "15436": 22,
        "15437": 254,
        "15438": 24,
        "15439": 56,
        "15440": 6,
        "15441": 161,
        "15442": 191,
        "15443": 7,
        "15444": 171,
        "15445": 82,
        "15446": 148,
        "15447": 155,
        "15448": 48,
        "15449": 4,
        "15450": 169,
        "15451": 194,
        "15452": 206,
        "15453": 25,
        "15454": 182,
        "15455": 239,
        "15456": 61,
        "15457": 175,
        "15458": 225,
        "15459": 48,
        "15460": 1,
        "15461": 52,
        "15462": 88,
        "15463": 187,
        "15464": 3,
        "15465": 83,
        "15466": 219,
        "15467": 58,
        "15468": 225,
        "15469": 102,
        "15470": 200,
        "15471": 165,
        "15472": 89,
        "15473": 179,
        "15474": 128,
        "15475": 201,
        "15476": 188,
        "15477": 36,
        "15478": 85,
        "15479": 222,
        "15480": 149,
        "15481": 99,
        "15482": 246,
        "15483": 183,
        "15484": 21,
        "15485": 246,
        "15486": 219,
        "15487": 4,
        "15488": 181,
        "15489": 213,
        "15490": 102,
        "15491": 63,
        "15492": 111,
        "15493": 142,
        "15494": 156,
        "15495": 248,
        "15496": 49,
        "15497": 125,
        "15498": 155,
        "15499": 167,
        "15500": 76,
        "15501": 159,
        "15502": 95,
        "15503": 32,
        "15504": 234,
        "15505": 226,
        "15506": 162,
        "15507": 124,
        "15508": 46,
        "15509": 84,
        "15510": 182,
        "15511": 74,
        "15512": 112,
        "15513": 14,
        "15514": 82,
        "15515": 24,
        "15516": 220,
        "15517": 98,
        "15518": 152,
        "15519": 50,
        "15520": 220,
        "15521": 166,
        "15522": 8,
        "15523": 158,
        "15524": 238,
        "15525": 45,
        "15526": 66,
        "15527": 83,
        "15528": 133,
        "15529": 24,
        "15530": 100,
        "15531": 210,
        "15532": 55,
        "15533": 157,
        "15534": 178,
        "15535": 150,
        "15536": 60,
        "15537": 134,
        "15538": 211,
        "15539": 197,
        "15540": 15,
        "15541": 158,
        "15542": 35,
        "15543": 223,
        "15544": 78,
        "15545": 200,
        "15546": 97,
        "15547": 88,
        "15548": 141,
        "15549": 177,
        "15550": 75,
        "15551": 25,
        "15552": 52,
        "15553": 100,
        "15554": 38,
        "15555": 102,
        "15556": 231,
        "15557": 62,
        "15558": 59,
        "15559": 19,
        "15560": 43,
        "15561": 232,
        "15562": 207,
        "15563": 16,
        "15564": 245,
        "15565": 23,
        "15566": 172,
        "15567": 162,
        "15568": 91,
        "15569": 229,
        "15570": 230,
        "15571": 146,
        "15572": 66,
        "15573": 206,
        "15574": 59,
        "15575": 55,
        "15576": 169,
        "15577": 73,
        "15578": 73,
        "15579": 71,
        "15580": 156,
        "15581": 37,
        "15582": 120,
        "15583": 240,
        "15584": 60,
        "15585": 55,
        "15586": 117,
        "15587": 246,
        "15588": 82,
        "15589": 104,
        "15590": 203,
        "15591": 199,
        "15592": 102,
        "15593": 33,
        "15594": 21,
        "15595": 41,
        "15596": 239,
        "15597": 223,
        "15598": 232,
        "15599": 221,
        "15600": 52,
        "15601": 87,
        "15602": 183,
        "15603": 190,
        "15604": 42,
        "15605": 34,
        "15606": 69,
        "15607": 104,
        "15608": 103,
        "15609": 241,
        "15610": 214,
        "15611": 56,
        "15612": 233,
        "15613": 81,
        "15614": 81,
        "15615": 40,
        "15616": 219,
        "15617": 150,
        "15618": 6,
        "15619": 162,
        "15620": 125,
        "15621": 215,
        "15622": 96,
        "15623": 213,
        "15624": 162,
        "15625": 142,
        "15626": 214,
        "15627": 135,
        "15628": 26,
        "15629": 104,
        "15630": 228,
        "15631": 70,
        "15632": 213,
        "15633": 29,
        "15634": 147,
        "15635": 109,
        "15636": 67,
        "15637": 169,
        "15638": 204,
        "15639": 63,
        "15640": 180,
        "15641": 152,
        "15642": 152,
        "15643": 184,
        "15644": 58,
        "15645": 123,
        "15646": 15,
        "15647": 11,
        "15648": 131,
        "15649": 225,
        "15650": 176,
        "15651": 200,
        "15652": 244,
        "15653": 91,
        "15654": 26,
        "15655": 235,
        "15656": 138,
        "15657": 254,
        "15658": 232,
        "15659": 160,
        "15660": 213,
        "15661": 51,
        "15662": 209,
        "15663": 253,
        "15664": 33,
        "15665": 86,
        "15666": 175,
        "15667": 235,
        "15668": 153,
        "15669": 199,
        "15670": 43,
        "15671": 178,
        "15672": 46,
        "15673": 68,
        "15674": 71,
        "15675": 30,
        "15676": 127,
        "15677": 239,
        "15678": 218,
        "15679": 199,
        "15680": 45,
        "15681": 98,
        "15682": 39,
        "15683": 10,
        "15684": 214,
        "15685": 189,
        "15686": 82,
        "15687": 23,
        "15688": 17,
        "15689": 98,
        "15690": 60,
        "15691": 96,
        "15692": 94,
        "15693": 191,
        "15694": 206,
        "15695": 141,
        "15696": 15,
        "15697": 105,
        "15698": 60,
        "15699": 55,
        "15700": 95,
        "15701": 75,
        "15702": 13,
        "15703": 243,
        "15704": 117,
        "15705": 207,
        "15706": 73,
        "15707": 90,
        "15708": 65,
        "15709": 135,
        "15710": 99,
        "15711": 174,
        "15712": 236,
        "15713": 25,
        "15714": 135,
        "15715": 30,
        "15716": 117,
        "15717": 145,
        "15718": 211,
        "15719": 31,
        "15720": 196,
        "15721": 153,
        "15722": 0,
        "15723": 60,
        "15724": 50,
        "15725": 100,
        "15726": 150,
        "15727": 27,
        "15728": 90,
        "15729": 104,
        "15730": 96,
        "15731": 183,
        "15732": 197,
        "15733": 204,
        "15734": 183,
        "15735": 231,
        "15736": 63,
        "15737": 210,
        "15738": 29,
        "15739": 32,
        "15740": 151,
        "15741": 124,
        "15742": 152,
        "15743": 251,
        "15744": 49,
        "15745": 223,
        "15746": 59,
        "15747": 221,
        "15748": 53,
        "15749": 56,
        "15750": 26,
        "15751": 85,
        "15752": 166,
        "15753": 27,
        "15754": 108,
        "15755": 19,
        "15756": 189,
        "15757": 41,
        "15758": 139,
        "15759": 172,
        "15760": 202,
        "15761": 186,
        "15762": 62,
        "15763": 1,
        "15764": 90,
        "15765": 204,
        "15766": 84,
        "15767": 94,
        "15768": 172,
        "15769": 151,
        "15770": 9,
        "15771": 203,
        "15772": 22,
        "15773": 137,
        "15774": 235,
        "15775": 135,
        "15776": 99,
        "15777": 120,
        "15778": 173,
        "15779": 0,
        "15780": 110,
        "15781": 250,
        "15782": 70,
        "15783": 86,
        "15784": 163,
        "15785": 178,
        "15786": 166,
        "15787": 2,
        "15788": 66,
        "15789": 167,
        "15790": 222,
        "15791": 251,
        "15792": 114,
        "15793": 224,
        "15794": 117,
        "15795": 89,
        "15796": 32,
        "15797": 92,
        "15798": 193,
        "15799": 253,
        "15800": 152,
        "15801": 252,
        "15802": 216,
        "15803": 214,
        "15804": 180,
        "15805": 208,
        "15806": 179,
        "15807": 37,
        "15808": 69,
        "15809": 154,
        "15810": 115,
        "15811": 253,
        "15812": 160,
        "15813": 192,
        "15814": 237,
        "15815": 156,
        "15816": 65,
        "15817": 150,
        "15818": 190,
        "15819": 161,
        "15820": 194,
        "15821": 223,
        "15822": 76,
        "15823": 18,
        "15824": 156,
        "15825": 52,
        "15826": 217,
        "15827": 161,
        "15828": 246,
        "15829": 130,
        "15830": 180,
        "15831": 68,
        "15832": 152,
        "15833": 148,
        "15834": 166,
        "15835": 109,
        "15836": 3,
        "15837": 236,
        "15838": 16,
        "15839": 92,
        "15840": 242,
        "15841": 51,
        "15842": 31,
        "15843": 225,
        "15844": 176,
        "15845": 38,
        "15846": 224,
        "15847": 229,
        "15848": 82,
        "15849": 173,
        "15850": 93,
        "15851": 19,
        "15852": 216,
        "15853": 245,
        "15854": 25,
        "15855": 250,
        "15856": 217,
        "15857": 168,
        "15858": 49,
        "15859": 77,
        "15860": 197,
        "15861": 6,
        "15862": 98,
        "15863": 200,
        "15864": 109,
        "15865": 41,
        "15866": 229,
        "15867": 130,
        "15868": 17,
        "15869": 23,
        "15870": 205,
        "15871": 111,
        "15872": 252,
        "15873": 110,
        "15874": 249,
        "15875": 206,
        "15876": 56,
        "15877": 14,
        "15878": 208,
        "15879": 183,
        "15880": 140,
        "15881": 30,
        "15882": 62,
        "15883": 153,
        "15884": 27,
        "15885": 105,
        "15886": 225,
        "15887": 64,
        "15888": 33,
        "15889": 13,
        "15890": 140,
        "15891": 38,
        "15892": 250,
        "15893": 207,
        "15894": 182,
        "15895": 255,
        "15896": 236,
        "15897": 80,
        "15898": 87,
        "15899": 18,
        "15900": 41,
        "15901": 101,
        "15902": 45,
        "15903": 67,
        "15904": 111,
        "15905": 105,
        "15906": 234,
        "15907": 125,
        "15908": 212,
        "15909": 250,
        "15910": 5,
        "15911": 242,
        "15912": 69,
        "15913": 192,
        "15914": 39,
        "15915": 212,
        "15916": 255,
        "15917": 200,
        "15918": 146,
        "15919": 31,
        "15920": 236,
        "15921": 162,
        "15922": 141,
        "15923": 55,
        "15924": 154,
        "15925": 238,
        "15926": 199,
        "15927": 42,
        "15928": 45,
        "15929": 180,
        "15930": 196,
        "15931": 42,
        "15932": 96,
        "15933": 101,
        "15934": 89,
        "15935": 221,
        "15936": 150,
        "15937": 16,
        "15938": 164,
        "15939": 36,
        "15940": 176,
        "15941": 111,
        "15942": 203,
        "15943": 216,
        "15944": 192,
        "15945": 72,
        "15946": 184,
        "15947": 83,
        "15948": 212,
        "15949": 186,
        "15950": 134,
        "15951": 218,
        "15952": 144,
        "15953": 66,
        "15954": 6,
        "15955": 192,
        "15956": 2,
        "15957": 9,
        "15958": 30,
        "15959": 167,
        "15960": 61,
        "15961": 5,
        "15962": 100,
        "15963": 175,
        "15964": 131,
        "15965": 242,
        "15966": 169,
        "15967": 255,
        "15968": 18,
        "15969": 68,
        "15970": 9,
        "15971": 83,
        "15972": 174,
        "15973": 61,
        "15974": 179,
        "15975": 179,
        "15976": 99,
        "15977": 125,
        "15978": 106,
        "15979": 38,
        "15980": 115,
        "15981": 107,
        "15982": 141,
        "15983": 172,
        "15984": 231,
        "15985": 221,
        "15986": 173,
        "15987": 0,
        "15988": 80,
        "15989": 166,
        "15990": 21,
        "15991": 240,
        "15992": 4,
        "15993": 74,
        "15994": 19,
        "15995": 161,
        "15996": 147,
        "15997": 233,
        "15998": 215,
        "15999": 150,
        "16000": 68,
        "16001": 250,
        "16002": 198,
        "16003": 48,
        "16004": 48,
        "16005": 64,
        "16006": 97,
        "16007": 192,
        "16008": 102,
        "16009": 163,
        "16010": 160,
        "16011": 70,
        "16012": 27,
        "16013": 156,
        "16014": 84,
        "16015": 161,
        "16016": 183,
        "16017": 181,
        "16018": 221,
        "16019": 237,
        "16020": 140,
        "16021": 31,
        "16022": 40,
        "16023": 229,
        "16024": 56,
        "16025": 242,
        "16026": 31,
        "16027": 144,
        "16028": 97,
        "16029": 24,
        "16030": 142,
        "16031": 12,
        "16032": 80,
        "16033": 6,
        "16034": 166,
        "16035": 78,
        "16036": 195,
        "16037": 72,
        "16038": 47,
        "16039": 134,
        "16040": 68,
        "16041": 137,
        "16042": 194,
        "16043": 36,
        "16044": 115,
        "16045": 183,
        "16046": 103,
        "16047": 29,
        "16048": 137,
        "16049": 26,
        "16050": 25,
        "16051": 247,
        "16052": 128,
        "16053": 43,
        "16054": 122,
        "16055": 212,
        "16056": 108,
        "16057": 4,
        "16058": 103,
        "16059": 29,
        "16060": 20,
        "16061": 224,
        "16062": 11,
        "16063": 241,
        "16064": 125,
        "16065": 37,
        "16066": 8,
        "16067": 223,
        "16068": 40,
        "16069": 119,
        "16070": 27,
        "16071": 121,
        "16072": 142,
        "16073": 2,
        "16074": 32,
        "16075": 205,
        "16076": 223,
        "16077": 148,
        "16078": 123,
        "16079": 59,
        "16080": 192,
        "16081": 232,
        "16082": 215,
        "16083": 208,
        "16084": 89,
        "16085": 59,
        "16086": 24,
        "16087": 234,
        "16088": 212,
        "16089": 174,
        "16090": 169,
        "16091": 196,
        "16092": 9,
        "16093": 73,
        "16094": 254,
        "16095": 42,
        "16096": 118,
        "16097": 40,
        "16098": 85,
        "16099": 204,
        "16100": 10,
        "16101": 105,
        "16102": 24,
        "16103": 68,
        "16104": 226,
        "16105": 248,
        "16106": 245,
        "16107": 228,
        "16108": 229,
        "16109": 109,
        "16110": 142,
        "16111": 201,
        "16112": 248,
        "16113": 114,
        "16114": 251,
        "16115": 170,
        "16116": 146,
        "16117": 242,
        "16118": 223,
        "16119": 49,
        "16120": 43,
        "16121": 128,
        "16122": 229,
        "16123": 66,
        "16124": 162,
        "16125": 203,
        "16126": 51,
        "16127": 142,
        "16128": 143,
        "16129": 227,
        "16130": 194,
        "16131": 38,
        "16132": 103,
        "16133": 254,
        "16134": 78,
        "16135": 120,
        "16136": 58,
        "16137": 42,
        "16138": 42,
        "16139": 255,
        "16140": 42,
        "16141": 54,
        "16142": 59,
        "16143": 30,
        "16144": 60,
        "16145": 153,
        "16146": 152,
        "16147": 243,
        "16148": 9,
        "16149": 159,
        "16150": 137,
        "16151": 117,
        "16152": 231,
        "16153": 208,
        "16154": 27,
        "16155": 14,
        "16156": 214,
        "16157": 186,
        "16158": 211,
        "16159": 226,
        "16160": 30,
        "16161": 29,
        "16162": 59,
        "16163": 18,
        "16164": 90,
        "16165": 75,
        "16166": 89,
        "16167": 139,
        "16168": 51,
        "16169": 21,
        "16170": 118,
        "16171": 88,
        "16172": 53,
        "16173": 231,
        "16174": 178,
        "16175": 31,
        "16176": 119,
        "16177": 76,
        "16178": 0,
        "16179": 132,
        "16180": 254,
        "16181": 225,
        "16182": 172,
        "16183": 239,
        "16184": 8,
        "16185": 25,
        "16186": 25,
        "16187": 36,
        "16188": 145,
        "16189": 241,
        "16190": 31,
        "16191": 228,
        "16192": 250,
        "16193": 149,
        "16194": 65,
        "16195": 62,
        "16196": 59,
        "16197": 248,
        "16198": 43,
        "16199": 143,
        "16200": 110,
        "16201": 227,
        "16202": 6,
        "16203": 82,
        "16204": 136,
        "16205": 34,
        "16206": 193,
        "16207": 106,
        "16208": 6,
        "16209": 186,
        "16210": 99,
        "16211": 66,
        "16212": 97,
        "16213": 163,
        "16214": 252,
        "16215": 60,
        "16216": 76,
        "16217": 180,
        "16218": 131,
        "16219": 121,
        "16220": 22,
        "16221": 62,
        "16222": 234,
        "16223": 20,
        "16224": 214,
        "16225": 238,
        "16226": 97,
        "16227": 9,
        "16228": 23,
        "16229": 14,
        "16230": 219,
        "16231": 226,
        "16232": 73,
        "16233": 169,
        "16234": 182,
        "16235": 8,
        "16236": 14,
        "16237": 19,
        "16238": 141,
        "16239": 252,
        "16240": 148,
        "16241": 252,
        "16242": 75,
        "16243": 84,
        "16244": 217,
        "16245": 183,
        "16246": 26,
        "16247": 135,
        "16248": 21,
        "16249": 240,
        "16250": 75,
        "16251": 5,
        "16252": 122,
        "16253": 167,
        "16254": 51,
        "16255": 112,
        "16256": 184,
        "16257": 72,
        "16258": 101,
        "16259": 145,
        "16260": 58,
        "16261": 156,
        "16262": 64,
        "16263": 103,
        "16264": 78,
        "16265": 120,
        "16266": 176,
        "16267": 70,
        "16268": 37,
        "16269": 133,
        "16270": 60,
        "16271": 82,
        "16272": 75,
        "16273": 5,
        "16274": 111,
        "16275": 103,
        "16276": 91,
        "16277": 102,
        "16278": 130,
        "16279": 14,
        "16280": 85,
        "16281": 69,
        "16282": 70,
        "16283": 8,
        "16284": 231,
        "16285": 48,
        "16286": 150,
        "16287": 52,
        "16288": 187,
        "16289": 188,
        "16290": 249,
        "16291": 23,
        "16292": 31,
        "16293": 94,
        "16294": 70,
        "16295": 6,
        "16296": 53,
        "16297": 153,
        "16298": 26,
        "16299": 218,
        "16300": 122,
        "16301": 203,
        "16302": 207,
        "16303": 76,
        "16304": 169,
        "16305": 221,
        "16306": 117,
        "16307": 71,
        "16308": 143,
        "16309": 112,
        "16310": 133,
        "16311": 71,
        "16312": 123,
        "16313": 12,
        "16314": 78,
        "16315": 74,
        "16316": 46,
        "16317": 23,
        "16318": 44,
        "16319": 220,
        "16320": 161,
        "16321": 183,
        "16322": 145,
        "16323": 53,
        "16324": 180,
        "16325": 16,
        "16326": 22,
        "16327": 169,
        "16328": 252,
        "16329": 189,
        "16330": 193,
        "16331": 58,
        "16332": 202,
        "16333": 69,
        "16334": 229,
        "16335": 151,
        "16336": 42,
        "16337": 192,
        "16338": 235,
        "16339": 223,
        "16340": 67,
        "16341": 142,
        "16342": 74,
        "16343": 21,
        "16344": 176,
        "16345": 125,
        "16346": 139,
        "16347": 179,
        "16348": 196,
        "16349": 177,
        "16350": 148,
        "16351": 170,
        "16352": 255,
        "16353": 248,
        "16354": 173,
        "16355": 38,
        "16356": 42,
        "16357": 135,
        "16358": 248,
        "16359": 80,
        "16360": 6,
        "16361": 224,
        "16362": 190,
        "16363": 203,
        "16364": 55,
        "16365": 247,
        "16366": 41,
        "16367": 236,
        "16368": 5,
        "16369": 49,
        "16370": 28,
        "16371": 38,
        "16372": 186,
        "16373": 144,
        "16374": 84,
        "16375": 20,
        "16376": 183,
        "16377": 138,
        "16378": 172,
        "16379": 155,
        "16380": 31,
        "16381": 208,
        "16382": 100,
        "16383": 129,
        "16384": 75,
        "16385": 178,
        "16386": 94,
        "16387": 25,
        "16388": 204,
        "16389": 78,
        "16390": 83,
        "16391": 45,
        "16392": 212,
        "16393": 93,
        "16394": 107,
        "16395": 170,
        "16396": 243,
        "16397": 122,
        "16398": 64,
        "16399": 219,
        "16400": 45,
        "16401": 195,
        "16402": 73,
        "16403": 43,
        "16404": 218,
        "16405": 218,
        "16406": 170,
        "16407": 131,
        "16408": 51,
        "16409": 100,
        "16410": 5,
        "16411": 89,
        "16412": 191,
        "16413": 207,
        "16414": 245,
        "16415": 17,
        "16416": 78,
        "16417": 95,
        "16418": 177,
        "16419": 192,
        "16420": 211,
        "16421": 18,
        "16422": 84,
        "16423": 104,
        "16424": 222,
        "16425": 253,
        "16426": 14,
        "16427": 54,
        "16428": 185,
        "16429": 114,
        "16430": 177,
        "16431": 217,
        "16432": 104,
        "16433": 89,
        "16434": 75,
        "16435": 38,
        "16436": 214,
        "16437": 169,
        "16438": 195,
        "16439": 208,
        "16440": 70,
        "16441": 150,
        "16442": 78,
        "16443": 136,
        "16444": 157,
        "16445": 185,
        "16446": 149,
        "16447": 29,
        "16448": 84,
        "16449": 117,
        "16450": 172,
        "16451": 80,
        "16452": 106,
        "16453": 110,
        "16454": 121,
        "16455": 221,
        "16456": 2,
        "16457": 249,
        "16458": 63,
        "16459": 34,
        "16460": 65,
        "16461": 0,
        "16462": 30,
        "16463": 97,
        "16464": 107,
        "16465": 171,
        "16466": 173,
        "16467": 227,
        "16468": 159,
        "16469": 195,
        "16470": 114,
        "16471": 103,
        "16472": 121,
        "16473": 119,
        "16474": 247,
        "16475": 152,
        "16476": 69,
        "16477": 158,
        "16478": 4,
        "16479": 19,
        "16480": 176,
        "16481": 68,
        "16482": 196,
        "16483": 82,
        "16484": 250,
        "16485": 216,
        "16486": 74,
        "16487": 160,
        "16488": 247,
        "16489": 0,
        "16490": 141,
        "16491": 171,
        "16492": 57,
        "16493": 87,
        "16494": 8,
        "16495": 224,
        "16496": 41,
        "16497": 126,
        "16498": 82,
        "16499": 135,
        "16500": 87,
        "16501": 8,
        "16502": 45,
        "16503": 21,
        "16504": 31,
        "16505": 136,
        "16506": 45,
        "16507": 4,
        "16508": 231,
        "16509": 193,
        "16510": 130,
        "16511": 75,
        "16512": 240,
        "16513": 97,
        "16514": 191,
        "16515": 87,
        "16516": 236,
        "16517": 16,
        "16518": 197,
        "16519": 194,
        "16520": 1,
        "16521": 8,
        "16522": 0,
        "16523": 0,
        "16524": 0,
        "16525": 0,
        "16526": 0,
        "16527": 0,
        "16528": 16,
        "16529": 0,
        "16530": 0,
        "16531": 0,
        "16532": 0,
        "16533": 0,
        "16534": 0,
        "16535": 0,
        "16536": 0,
        "16537": 0,
        "16538": 0,
        "16539": 0,
        "16540": 0,
        "16541": 0,
        "16542": 0,
        "16543": 0,
        "16544": 0,
        "16545": 0,
        "16546": 0,
        "16547": 0,
        "16548": 0,
        "16549": 0,
        "16550": 0,
        "16551": 0,
        "16552": 64,
        "16553": 0,
        "16554": 0,
        "16555": 0,
        "16556": 0,
        "16557": 0,
        "16558": 0,
        "16559": 0,
        "16560": 3,
        "16561": 0,
        "16562": 0,
        "16563": 0,
        "16564": 0,
        "16565": 0,
        "16566": 0,
        "16567": 0,
        "16568": 4,
        "16569": 0,
        "16570": 0,
        "16571": 0,
        "16572": 0,
        "16573": 0,
        "16574": 0,
        "16575": 0,
        "16576": 4,
        "16577": 0,
        "16578": 0,
        "16579": 0,
        "16580": 0,
        "16581": 0,
        "16582": 0,
        "16583": 0,
        "16584": 0,
        "16585": 0,
        "16586": 0,
        "16587": 0,
        "16588": 1,
        "16589": 0,
        "16590": 0,
        "16591": 0,
        "16592": 0,
        "16593": 0,
        "16594": 0,
        "16595": 0,
        "16596": 16,
        "16597": 0,
        "16598": 0,
        "16599": 0,
        "16600": 0,
        "16601": 0,
        "16602": 0,
        "16603": 0
      }
    }
  ],
  "numDeployments": 1,
  "solcInputHash": "c0e889dcb69b76266f445d0fe3402b92",
  "bytecode": "0x6101606040526200001760006200026660201b60201c565b6002553480156200002757600080fd5b50604051620046173803806200461783398181016040528101906200004d919062000b83565b6040518060400160405280600881526020017f46616b65205553440000000000000000000000000000000000000000000000008152506040518060400160405280600481526020017f6655534400000000000000000000000000000000000000000000000000000000815250338383836040518060400160405280601181526020017f4668656e6978205065726d697373696f6e0000000000000000000000000000008152506040518060400160405280600381526020017f312e3000000000000000000000000000000000000000000000000000000000008152506200013f6000836200028260201b90919060201c565b61012081815250506200015d6001826200028260201b90919060201c565b6101408181525050818051906020012060e08181525050808051906020012061010081815250504660a081815250506200019c620002da60201b60201c565b608081815250503073ffffffffffffffffffffffffffffffffffffffff1660c08173ffffffffffffffffffffffffffffffffffffffff168152505050508160059081620001ea919062000e1f565b508060069081620001fc919062000e1f565b505050600062000212826200033760201b60201c565b9050620002486200023c8262000230617fff6200026660201b60201c565b6200035560201b60201c565b620003f860201b60201c565b6200025a8382620004cb60201b60201c565b50505050505062001260565b60006200027b8260026200057160201b60201c565b9050919050565b6000602083511015620002a857620002a0836200062860201b60201c565b9050620002d4565b82620002ba836200069560201b60201c565b6000019081620002cb919062000e1f565b5060ff60001b90505b92915050565b60007f8b73c3c69bb8fe3d512ecc4cf759cc79239f7b179b0ffacaa9a75d522b39400f60e0516101005146306040516020016200031c95949392919062000f77565b60405160208183030381529060405280519060200120905090565b60006200034e82600001516200069f60201b60201c565b9050919050565b60006200036883620006bb60201b60201c565b62000382576200037f60006200026660201b60201c565b92505b6200039382620006bb60201b60201c565b620003ad57620003aa60006200026660201b60201c565b91505b600083905060008390506000620003ea60028484608073ffffffffffffffffffffffffffffffffffffffff1663eb274b77620006c860201b60201c565b905080935050505092915050565b62000409816200077960201b60201c565b62000423576200042060006200078660201b60201c565b90505b600081905060006200043b82620007a260201b60201c565b9050608073ffffffffffffffffffffffffffffffffffffffff16637d23f1db600d836040518363ffffffff1660e01b81526004016200047c9291906200104f565b600060405180830381865afa1580156200049a573d6000803e3d6000fd5b505050506040513d6000823e3d601f19601f82011682018060405250810190620004c5919062001083565b50505050565b62000516600360008473ffffffffffffffffffffffffffffffffffffffff1673ffffffffffffffffffffffffffffffffffffffff168152602001908152602001600020548262000803565b600360008473ffffffffffffffffffffffffffffffffffffffff1673ffffffffffffffffffffffffffffffffffffffff16815260200190815260200160002081905550620005676002548262000803565b6002819055505050565b60006060608073ffffffffffffffffffffffffffffffffffffffff166319e1c5c4620005a386620007a260201b60201c565b856040518363ffffffff1660e01b8152600401620005c3929190620010d4565b600060405180830381865afa158015620005e1573d6000803e3d6000fd5b505050506040513d6000823e3d601f19601f820116820180604052508101906200060c919062001083565b90506200061f816200081f60201b60201c565b91505092915050565b600080829050601f815111156200067857826040517f305a27a90000000000000000000000000000000000000000000000000000000081526004016200066f91906200115a565b60405180910390fd5b8051816200068690620011a5565b60001c1760001b915050919050565b6000819050919050565b6000620006b48260026200082d60201b60201c565b9050919050565b6000808214159050919050565b60006060838388620006e089620007a260201b60201c565b620006f189620007a260201b60201c565b6040518463ffffffff1660e01b8152600401620007119392919062001215565b600060405180830381865afa1580156200072f573d6000803e3d6000fd5b505050506040513d6000823e3d601f19601f820116820180604052508101906200075a919062001083565b90506200076d81620008d460201b60201c565b91505095945050505050565b6000808214159050919050565b60006200079b82600d6200057160201b60201c565b9050919050565b6060602067ffffffffffffffff811115620007c257620007c1620009ae565b5b6040519080825280601f01601f191660200182016040528015620007f55781602001600182028036833780820191505090505b509050816020820152919050565b6000620008178383620008e260201b60201c565b905092915050565b600060208201519050919050565b60006060608073ffffffffffffffffffffffffffffffffffffffff16635fa55ca784866040518363ffffffff1660e01b81526004016200086f9291906200104f565b600060405180830381865afa1580156200088d573d6000803e3d6000fd5b505050506040513d6000823e3d601f19601f82011682018060405250810190620008b8919062001083565b9050620008cb816200081f60201b60201c565b91505092915050565b600060208201519050919050565b6000620008f583620006bb60201b60201c565b6200090f576200090c60006200026660201b60201c565b92505b6200092082620006bb60201b60201c565b6200093a576200093760006200026660201b60201c565b91505b6000839050600083905060006200097660028484608073ffffffffffffffffffffffffffffffffffffffff16622df619620006c860201b60201c565b905080935050505092915050565b6000604051905090565b600080fd5b600080fd5b600080fd5b6000601f19601f8301169050919050565b7f4e487b7100000000000000000000000000000000000000000000000000000000600052604160045260246000fd5b620009e8826200099d565b810181811067ffffffffffffffff8211171562000a0a5762000a09620009ae565b5b80604052505050565b600062000a1f62000984565b905062000a2d8282620009dd565b919050565b600080fd5b600080fd5b600080fd5b600067ffffffffffffffff82111562000a5f5762000a5e620009ae565b5b62000a6a826200099d565b9050602081019050919050565b60005b8381101562000a9757808201518184015260208101905062000a7a565b60008484015250505050565b600062000aba62000ab48462000a41565b62000a13565b90508281526020810184848401111562000ad95762000ad862000a3c565b5b62000ae684828562000a77565b509392505050565b600082601f83011262000b065762000b0562000a37565b5b815162000b1884826020860162000aa3565b91505092915050565b60006020828403121562000b3a5762000b3962000998565b5b62000b46602062000a13565b9050600082015167ffffffffffffffff81111562000b695762000b6862000a32565b5b62000b778482850162000aee565b60008301525092915050565b60006020828403121562000b9c5762000b9b6200098e565b5b600082015167ffffffffffffffff81111562000bbd5762000bbc62000993565b5b62000bcb8482850162000b21565b91505092915050565b600081519050919050565b7f4e487b7100000000000000000000000000000000000000000000000000000000600052602260045260246000fd5b6000600282049050600182168062000c2757607f821691505b60208210810362000c3d5762000c3c62000bdf565b5b50919050565b60008190508160005260206000209050919050565b60006020601f8301049050919050565b600082821b905092915050565b60006008830262000ca77fffffffffffffffffffffffffffffffffffffffffffffffffffffffffffffffff8262000c68565b62000cb3868362000c68565b95508019841693508086168417925050509392505050565b6000819050919050565b6000819050919050565b600062000d0062000cfa62000cf48462000ccb565b62000cd5565b62000ccb565b9050919050565b6000819050919050565b62000d1c8362000cdf565b62000d3462000d2b8262000d07565b84845462000c75565b825550505050565b600090565b62000d4b62000d3c565b62000d5881848462000d11565b505050565b5b8181101562000d805762000d7460008262000d41565b60018101905062000d5e565b5050565b601f82111562000dcf5762000d998162000c43565b62000da48462000c58565b8101602085101562000db4578190505b62000dcc62000dc38562000c58565b83018262000d5d565b50505b505050565b600082821c905092915050565b600062000df46000198460080262000dd4565b1980831691505092915050565b600062000e0f838362000de1565b9150826002028217905092915050565b62000e2a8262000bd4565b67ffffffffffffffff81111562000e465762000e45620009ae565b5b62000e52825462000c0e565b62000e5f82828562000d84565b600060209050601f83116001811462000e97576000841562000e82578287015190505b62000e8e858262000e01565b86555062000efe565b601f19841662000ea78662000c43565b60005b8281101562000ed15784890151825560018201915060208501945060208101905062000eaa565b8683101562000ef1578489015162000eed601f89168262000de1565b8355505b6001600288020188555050505b505050505050565b6000819050919050565b62000f1b8162000f06565b82525050565b62000f2c8162000ccb565b82525050565b600073ffffffffffffffffffffffffffffffffffffffff82169050919050565b600062000f5f8262000f32565b9050919050565b62000f718162000f52565b82525050565b600060a08201905062000f8e600083018862000f10565b62000f9d602083018762000f10565b62000fac604083018662000f10565b62000fbb606083018562000f21565b62000fca608083018462000f66565b9695505050505050565b600060ff82169050919050565b62000fec8162000fd4565b82525050565b600081519050919050565b600082825260208201905092915050565b60006200101b8262000ff2565b62001027818562000ffd565b93506200103981856020860162000a77565b62001044816200099d565b840191505092915050565b600060408201905062001066600083018562000fe1565b81810360208301526200107a81846200100e565b90509392505050565b6000602082840312156200109c576200109b6200098e565b5b600082015167ffffffffffffffff811115620010bd57620010bc62000993565b5b620010cb8482850162000aee565b91505092915050565b60006040820190508181036000830152620010f081856200100e565b905062001101602083018462000fe1565b9392505050565b600082825260208201905092915050565b6000620011268262000bd4565b62001132818562001108565b93506200114481856020860162000a77565b6200114f816200099d565b840191505092915050565b6000602082019050818103600083015262001176818462001119565b905092915050565b6000819050602082019050919050565b60006200119c825162000f06565b80915050919050565b6000620011b28262000ff2565b82620011be846200117e565b9050620011cb816200118e565b925060208210156200120e57620012097fffffffffffffffffffffffffffffffffffffffffffffffffffffffffffffffff8360200360080262000c68565b831692505b5050919050565b60006060820190506200122c600083018662000fe1565b81810360208301526200124081856200100e565b905081810360408301526200125681846200100e565b9050949350505050565b60805160a05160c05160e05161010051610120516101405161335c620012bb60003960006118f5015260006118ba0152600061217f0152600061215e015260006119ea01526000611a4001526000611a69015261335c6000f3fe608060405234801561001057600080fd5b50600436106101425760003560e01c80637ecebe00116100b8578063a9059cbb1161007c578063a9059cbb146103b9578063af575a00146103e9578063c4224c1914610419578063d505accf14610449578063d918156e14610465578063dd62ed3e1461049557610142565b80637ecebe00146102fb57806384b0196e1461032b5780638624a3491461034f57806395d89b411461037f5780639f284be71461039d57610142565b80633644e5151161010a5780633644e5151461020157806339c217f71461021f5780635356c4291461024f578063602772041461027f5780636e0505e1146102af57806370a08231146102cb57610142565b806306fdde0314610147578063095ea7b31461016557806318160ddd1461019557806323b872dd146101b3578063313ce567146101e3575b600080fd5b61014f6104c5565b60405161015c9190612433565b60405180910390f35b61017f600480360381019061017a91906124fd565b610557565b60405161018c9190612558565b60405180910390f35b61019d6105ab565b6040516101aa9190612582565b60405180910390f35b6101cd60048036038101906101c8919061259d565b6105bd565b6040516101da9190612558565b60405180910390f35b6101eb610692565b6040516101f8919061260c565b60405180910390f35b610209610697565b6040516102169190612640565b60405180910390f35b6102396004803603810190610234919061267f565b610729565b6040516102469190612716565b60405180910390f35b61026960048036038101906102649190612750565b61074e565b6040516102769190612433565b60405180910390f35b61029960048036038101906102949190612983565b6108bf565b6040516102a69190612433565b60405180910390f35b6102c960048036038101906102c49190612a1b565b6109ec565b005b6102e560048036038101906102e09190612a48565b610b01565b6040516102f29190612582565b60405180910390f35b61031560048036038101906103109190612a48565b610b1c565b6040516103229190612582565b60405180910390f35b610333610b37565b6040516103469796959493929190612b7d565b60405180910390f35b61036960048036038101906103649190612c01565b610be1565b6040516103769190612716565b60405180910390f35b610387610c08565b6040516103949190612433565b60405180910390f35b6103b760048036038101906103b29190612a1b565b610c9a565b005b6103d360048036038101906103ce91906124fd565b610da7565b6040516103e09190612558565b60405180910390f35b61040360048036038101906103fe9190612c9c565b610e39565b6040516104109190612716565b60405180910390f35b610433600480360381019061042e9190612cef565b61118f565b6040516104409190612716565b60405180910390f35b610463600480360381019061045e9190612d5b565b611359565b005b61047f600480360381019061047a919061267f565b6114fd565b60405161048c9190612558565b60405180910390f35b6104af60048036038101906104aa9190612dfd565b6115f5565b6040516104bc9190612582565b60405180910390f35b6060600580546104d490612e6c565b80601f016020809104026020016040519081016040528092919081815260200182805461050090612e6c565b801561054d5780601f106105225761010080835404028352916020019161054d565b820191906000526020600020905b81548152906001019060200180831161053057829003601f168201915b5050505050905090565b600082602052637f5e9f20600c5233600052816034600c205581600052602c5160601c337f8c5be1e5ebec7d5bd14f71427d1e84f3dd0314c0f7b2291e5b200ac8c7c3b92560206000a36001905092915050565b60006805345cdf77eb68f44c54905090565b60006105ca848484611615565b8360601b33602052637f5e9f208117600c526034600c20805460018101156106085780851115610602576313be252b6000526004601cfd5b84810382555b6387a211a28317600c526020600c2080548087111561062f5763f4d678b86000526004601cfd5b8681038255876000526020600c2087815401815587602052600c5160601c8660601c7fddf252ad1be2c89b69c2b068fc378daa952ba7f163c4a11628f55a4df523b3ef602080a350505050505061068784848461161a565b600190509392505050565b600090565b6000806106a261161f565b90506000801b81036106c0576106b66104c5565b8051906020012090505b6040517f8b73c3c69bb8fe3d512ecc4cf759cc79239f7b179b0ffacaa9a75d522b39400f81528160208201527fc89efdaa54c0f20c7adf612882df0950f5a951637e0307cdcb4c672f298b8bc6604082015246606082015230608082015260a081209250505090565b6000610746836107418461073c90612ef5565b611624565b61118f565b905092915050565b60608161075a90612f08565b60006107b17f6bdaeb2d29561f159c7ef98b16b27015fb2aeb87209c7ee656226d912f59927d8360000151604051602001610796929190612f1b565b6040516020818303038152906040528051906020012061163a565b905060006107c3828460200151611654565b90503373ffffffffffffffffffffffffffffffffffffffff168173ffffffffffffffffffffffffffffffffffffffff161461082a576040517f3093a27700000000000000000000000000000000000000000000000000000000815260040160405180910390fd5b6108b4600460003373ffffffffffffffffffffffffffffffffffffffff1673ffffffffffffffffffffffffffffffffffffffff16815260200190815260200160002060008873ffffffffffffffffffffffffffffffffffffffff1673ffffffffffffffffffffffffffffffffffffffff168152602001908152602001600020548660000135611680565b935050505092915050565b60608183600061091a7f6bdaeb2d29561f159c7ef98b16b27015fb2aeb87209c7ee656226d912f59927d84600001516040516020016108ff929190612f1b565b6040516020818303038152906040528051906020012061163a565b9050600061092c828560200151611654565b90508273ffffffffffffffffffffffffffffffffffffffff168173ffffffffffffffffffffffffffffffffffffffff1614610993576040517f51c65eae00000000000000000000000000000000000000000000000000000000815260040160405180910390fd5b6109e0600360008973ffffffffffffffffffffffffffffffffffffffff1673ffffffffffffffffffffffffffffffffffffffff168152602001908152602001600020548760000151611680565b94505050505092915050565b6000610a45610a008363ffffffff166116b6565b600360003373ffffffffffffffffffffffffffffffffffffffff1673ffffffffffffffffffffffffffffffffffffffff168152602001908152602001600020546116ca565b9050610a90600360003373ffffffffffffffffffffffffffffffffffffffff1673ffffffffffffffffffffffffffffffffffffffff1681526020019081526020016000205482611743565b600360003373ffffffffffffffffffffffffffffffffffffffff1673ffffffffffffffffffffffffffffffffffffffff16815260200190815260200160002081905550610adf60025482611743565b600281905550610afd33610af283611757565b63ffffffff1661181a565b5050565b60006387a211a2600c52816000526020600c20549050919050565b60006338377508600c52816000526020600c20549050919050565b600060608060008060006060610b4b6118b1565b610b536118ec565b46306000801b600067ffffffffffffffff811115610b7457610b736127b1565b5b604051908082528060200260200182016040528015610ba25781602001602082028036833780820191505090505b507f0f00000000000000000000000000000000000000000000000000000000000000959493929190965096509650965096509650965090919293949596565b6000610bff8484610bfa85610bf590612ef5565b611624565b610e39565b90509392505050565b606060068054610c1790612e6c565b80601f0160208091040260200160405190810160405280929190818152602001828054610c4390612e6c565b8015610c905780601f10610c6557610100808354040283529160200191610c90565b820191906000526020600020905b815481529060010190602001808311610c7357829003601f168201915b5050505050905090565b8063ffffffff16610caa33610b01565b1015610ce2576040517ffda7bbda00000000000000000000000000000000000000000000000000000000815260040160405180910390fd5b610cf2338263ffffffff16611927565b6000610d038263ffffffff166116b6565b9050610d4e600360003373ffffffffffffffffffffffffffffffffffffffff1673ffffffffffffffffffffffffffffffffffffffff16815260200190815260200160002054826119be565b600360003373ffffffffffffffffffffffffffffffffffffffff1673ffffffffffffffffffffffffffffffffffffffff16815260200190815260200160002081905550610d9d600254826119be565b6002819055505050565b6000610db4338484611615565b6387a211a2600c52336000526020600c20805480841115610ddd5763f4d678b86000526004601cfd5b8381038255846000526020600c2084815401815584602052600c5160601c337fddf252ad1be2c89b69c2b068fc378daa952ba7f163c4a11628f55a4df523b3ef602080a3505050610e2f33848461161a565b6001905092915050565b600080610f0a83610f05600360008973ffffffffffffffffffffffffffffffffffffffff1673ffffffffffffffffffffffffffffffffffffffff16815260200190815260200160002054600460008a73ffffffffffffffffffffffffffffffffffffffff1673ffffffffffffffffffffffffffffffffffffffff16815260200190815260200160002060003373ffffffffffffffffffffffffffffffffffffffff1673ffffffffffffffffffffffffffffffffffffffff168152602001908152602001600020546116ca565b6116ca565b9050610f92600460008773ffffffffffffffffffffffffffffffffffffffff1673ffffffffffffffffffffffffffffffffffffffff16815260200190815260200160002060003373ffffffffffffffffffffffffffffffffffffffff1673ffffffffffffffffffffffffffffffffffffffff1681526020019081526020016000205482611743565b600460008773ffffffffffffffffffffffffffffffffffffffff1673ffffffffffffffffffffffffffffffffffffffff16815260200190815260200160002060003373ffffffffffffffffffffffffffffffffffffffff1673ffffffffffffffffffffffffffffffffffffffff1681526020019081526020016000208190555061105b600360008773ffffffffffffffffffffffffffffffffffffffff1673ffffffffffffffffffffffffffffffffffffffff1681526020019081526020016000205482611743565b600360008773ffffffffffffffffffffffffffffffffffffffff1673ffffffffffffffffffffffffffffffffffffffff168152602001908152602001600020819055506110e7600360008673ffffffffffffffffffffffffffffffffffffffff1673ffffffffffffffffffffffffffffffffffffffff16815260200190815260200160002054826119be565b600360008673ffffffffffffffffffffffffffffffffffffffff1673ffffffffffffffffffffffffffffffffffffffff168152602001908152602001600020819055508373ffffffffffffffffffffffffffffffffffffffff168573ffffffffffffffffffffffffffffffffffffffff167f7612539b010127d1a2f810eeff1131de23a28ecfa8228f92a9606a879300fbb560405160405180910390a3809150509392505050565b6000806111db83600360003373ffffffffffffffffffffffffffffffffffffffff1673ffffffffffffffffffffffffffffffffffffffff168152602001908152602001600020546116ca565b9050611226600360003373ffffffffffffffffffffffffffffffffffffffff1673ffffffffffffffffffffffffffffffffffffffff1681526020019081526020016000205482611743565b600360003373ffffffffffffffffffffffffffffffffffffffff1673ffffffffffffffffffffffffffffffffffffffff168152602001908152602001600020819055506112b2600360008673ffffffffffffffffffffffffffffffffffffffff1673ffffffffffffffffffffffffffffffffffffffff16815260200190815260200160002054826119be565b600360008673ffffffffffffffffffffffffffffffffffffffff1673ffffffffffffffffffffffffffffffffffffffff168152602001908152602001600020819055508373ffffffffffffffffffffffffffffffffffffffff163373ffffffffffffffffffffffffffffffffffffffff167f7612539b010127d1a2f810eeff1131de23a28ecfa8228f92a9606a879300fbb560405160405180910390a38091505092915050565b600061136361161f565b90506000801b8103611381576113776104c5565b8051906020012090505b8442111561139757631a15a3cc6000526004601cfd5b6040518860601b60601c98508760601b60601c975065383775081901600e52886000526020600c2080547f8b73c3c69bb8fe3d512ecc4cf759cc79239f7b179b0ffacaa9a75d522b39400f83528360208401527fc89efdaa54c0f20c7adf612882df0950f5a951637e0307cdcb4c672f298b8bc6604084015246606084015230608084015260a08320602e527f6e71edae12b1b97f4d1f60370fef10105fa2faae0126114a169c64845d6126c983528a60208401528960408401528860608401528060808401528760a084015260c08320604e526042602c206000528660ff1660205285604052846060526020806080600060015afa8b3d51146114a35763ddafbaef6000526004601cfd5b80820183558a637f5e9f2060a01b17604052896034602c20558a8c7f8c5be1e5ebec7d5bd14f71427d1e84f3dd0314c0f7b2291e5b200ac8c7c3b925602060608801a3836040526000606052505050505050505050505050565b60006115118261150c90612ef5565b611624565b600460003373ffffffffffffffffffffffffffffffffffffffff1673ffffffffffffffffffffffffffffffffffffffff16815260200190815260200160002060008573ffffffffffffffffffffffffffffffffffffffff1673ffffffffffffffffffffffffffffffffffffffff168152602001908152602001600020819055508273ffffffffffffffffffffffffffffffffffffffff163373ffffffffffffffffffffffffffffffffffffffff167f46f92913a39019d68e630493d23e0cf39761bf253f7b3f8eae384b33e393ed4e60405160405180910390a36001905092915050565b600081602052637f5e9f20600c52826000526034600c2054905092915050565b505050565b505050565b600090565b600061163382600001516119d2565b9050919050565b600061164d6116476119e6565b83611a9d565b9050919050565b6000806000806116648686611ade565b9250925092506116748282611b3a565b82935050505092915050565b606061168b83611c9e565b61169c5761169960006116b6565b92505b60008390506116ad60028285611cab565b91505092915050565b60006116c3826002611d61565b9050919050565b60006116d583611c9e565b6116e6576116e360006116b6565b92505b6116ef82611c9e565b611700576116fd60006116b6565b91505b60008390506000839050600061173560028484608073ffffffffffffffffffffffffffffffffffffffff16635211c679611e03565b905080935050505092915050565b600061174f8383611e97565b905092915050565b600061176282611c9e565b6117735761177060006116b6565b91505b6000829050600061178382611f10565b90506000608073ffffffffffffffffffffffffffffffffffffffff166373cc01546002846040518363ffffffff1660e01b81526004016117c4929190612f99565b602060405180830381865afa1580156117e1573d6000803e3d6000fd5b505050506040513d601f19601f820116820180604052508101906118059190612fde565b905061181081611f6d565b9350505050919050565b61182660008383611615565b6805345cdf77eb68f44c548181018181101561184a5763e5cfe9576000526004601cfd5b806805345cdf77eb68f44c556387a211a2600c52836000526020600c2083815401815583602052600c5160601c60007fddf252ad1be2c89b69c2b068fc378daa952ba7f163c4a11628f55a4df523b3ef602080a35050506118ad6000838361161a565b5050565b60606118e760007f0000000000000000000000000000000000000000000000000000000000000000611f7790919063ffffffff16565b905090565b606061192260017f0000000000000000000000000000000000000000000000000000000000000000611f7790919063ffffffff16565b905090565b61193382600083611615565b6387a211a2600c52816000526020600c2080548083111561195c5763f4d678b86000526004601cfd5b8281038255826805345cdf77eb68f44c54036805345cdf77eb68f44c558260005260008460601b60601c7fddf252ad1be2c89b69c2b068fc378daa952ba7f163c4a11628f55a4df523b3ef60206000a350506119ba8260008361161a565b5050565b60006119ca8383612027565b905092915050565b60006119df82600261209f565b9050919050565b60007f000000000000000000000000000000000000000000000000000000000000000073ffffffffffffffffffffffffffffffffffffffff163073ffffffffffffffffffffffffffffffffffffffff16148015611a6257507f000000000000000000000000000000000000000000000000000000000000000046145b15611a8f577f00000000000000000000000000000000000000000000000000000000000000009050611a9a565b611a97612139565b90505b90565b60006040517f190100000000000000000000000000000000000000000000000000000000000081528360028201528260228201526042812091505092915050565b60008060006041845103611b235760008060006020870151925060408701519150606087015160001a9050611b15888285856121cf565b955095509550505050611b33565b60006002855160001b9250925092505b9250925092565b60006003811115611b4e57611b4d61300b565b5b826003811115611b6157611b6061300b565b5b0315611c9a5760016003811115611b7b57611b7a61300b565b5b826003811115611b8e57611b8d61300b565b5b03611bc5576040517ff645eedf00000000000000000000000000000000000000000000000000000000815260040160405180910390fd5b60026003811115611bd957611bd861300b565b5b826003811115611bec57611beb61300b565b5b03611c31578060001c6040517ffce698f7000000000000000000000000000000000000000000000000000000008152600401611c289190612582565b60405180910390fd5b600380811115611c4457611c4361300b565b5b826003811115611c5757611c5661300b565b5b03611c9957806040517fd78bce0c000000000000000000000000000000000000000000000000000000008152600401611c909190612640565b60405180910390fd5b5b5050565b6000808214159050919050565b6060608073ffffffffffffffffffffffffffffffffffffffff1663a1848ff385611cd486611f10565b85604051602001611ce5919061305b565b6040516020818303038152906040526040518463ffffffff1660e01b8152600401611d1293929190613076565b600060405180830381865afa158015611d2f573d6000803e3d6000fd5b505050506040513d6000823e3d601f19601f82011682018060405250810190611d58919061315c565b90509392505050565b60006060608073ffffffffffffffffffffffffffffffffffffffff166319e1c5c4611d8b86611f10565b856040518363ffffffff1660e01b8152600401611da99291906131a5565b600060405180830381865afa158015611dc6573d6000803e3d6000fd5b505050506040513d6000823e3d601f19601f82011682018060405250810190611def9190613245565b9050611dfa816122c3565b91505092915050565b60006060838388611e1389611f10565b611e1c89611f10565b6040518463ffffffff1660e01b8152600401611e3a93929190613076565b600060405180830381865afa158015611e57573d6000803e3d6000fd5b505050506040513d6000823e3d601f19601f82011682018060405250810190611e809190613245565b9050611e8b816122d1565b91505095945050505050565b6000611ea283611c9e565b611eb357611eb060006116b6565b92505b611ebc82611c9e565b611ecd57611eca60006116b6565b91505b600083905060008390506000611f0260028484608073ffffffffffffffffffffffffffffffffffffffff1663cc2cbeff611e03565b905080935050505092915050565b6060602067ffffffffffffffff811115611f2d57611f2c6127b1565b5b6040519080825280601f01601f191660200182016040528015611f5f5781602001600182028036833780820191505090505b509050816020820152919050565b6000819050919050565b606060ff60001b8314611f9457611f8d836122df565b9050612021565b818054611fa090612e6c565b80601f0160208091040260200160405190810160405280929190818152602001828054611fcc90612e6c565b80156120195780601f10611fee57610100808354040283529160200191612019565b820191906000526020600020905b815481529060010190602001808311611ffc57829003601f168201915b505050505090505b92915050565b600061203283611c9e565b6120435761204060006116b6565b92505b61204c82611c9e565b61205d5761205a60006116b6565b91505b60008390506000839050600061209160028484608073ffffffffffffffffffffffffffffffffffffffff16622df619611e03565b905080935050505092915050565b60006060608073ffffffffffffffffffffffffffffffffffffffff16635fa55ca784866040518363ffffffff1660e01b81526004016120df929190612f99565b600060405180830381865afa1580156120fc573d6000803e3d6000fd5b505050506040513d6000823e3d601f19601f820116820180604052508101906121259190613245565b9050612130816122c3565b91505092915050565b60007f8b73c3c69bb8fe3d512ecc4cf759cc79239f7b179b0ffacaa9a75d522b39400f7f00000000000000000000000000000000000000000000000000000000000000007f000000000000000000000000000000000000000000000000000000000000000046306040516020016121b495949392919061328e565b60405160208183030381529060405280519060200120905090565b60008060007f7fffffffffffffffffffffffffffffff5d576e7357a4501ddfe92f46681b20a08460001c111561220f5760006003859250925092506122b9565b60006001888888886040516000815260200160405260405161223494939291906132e1565b6020604051602081039080840390855afa158015612256573d6000803e3d6000fd5b505050602060405103519050600073ffffffffffffffffffffffffffffffffffffffff168173ffffffffffffffffffffffffffffffffffffffff16036122aa57600060016000801b935093509350506122b9565b8060008060001b935093509350505b9450945094915050565b600060208201519050919050565b600060208201519050919050565b606060006122ec83612353565b90506000602067ffffffffffffffff81111561230b5761230a6127b1565b5b6040519080825280601f01601f19166020018201604052801561233d5781602001600182028036833780820191505090505b5090508181528360208201528092505050919050565b60008060ff8360001c169050601f81111561239a576040517fb3512b0c00000000000000000000000000000000000000000000000000000000815260040160405180910390fd5b80915050919050565b600081519050919050565b600082825260208201905092915050565b60005b838110156123dd5780820151818401526020810190506123c2565b60008484015250505050565b6000601f19601f8301169050919050565b6000612405826123a3565b61240f81856123ae565b935061241f8185602086016123bf565b612428816123e9565b840191505092915050565b6000602082019050818103600083015261244d81846123fa565b905092915050565b6000604051905090565b600080fd5b600080fd5b600073ffffffffffffffffffffffffffffffffffffffff82169050919050565b600061249482612469565b9050919050565b6124a481612489565b81146124af57600080fd5b50565b6000813590506124c18161249b565b92915050565b6000819050919050565b6124da816124c7565b81146124e557600080fd5b50565b6000813590506124f7816124d1565b92915050565b600080604083850312156125145761251361245f565b5b6000612522858286016124b2565b9250506020612533858286016124e8565b9150509250929050565b60008115159050919050565b6125528161253d565b82525050565b600060208201905061256d6000830184612549565b92915050565b61257c816124c7565b82525050565b60006020820190506125976000830184612573565b92915050565b6000806000606084860312156125b6576125b561245f565b5b60006125c4868287016124b2565b93505060206125d5868287016124b2565b92505060406125e6868287016124e8565b9150509250925092565b600060ff82169050919050565b612606816125f0565b82525050565b600060208201905061262160008301846125fd565b92915050565b6000819050919050565b61263a81612627565b82525050565b60006020820190506126556000830184612631565b92915050565b600080fd5b6000602082840312156126765761267561265b565b5b81905092915050565b600080604083850312156126965761269561245f565b5b60006126a4858286016124b2565b925050602083013567ffffffffffffffff8111156126c5576126c4612464565b5b6126d185828601612660565b9150509250929050565b6000819050919050565b60006127006126fb6126f6846124c7565b6126db565b6124c7565b9050919050565b612710816126e5565b82525050565b600060208201905061272b6000830184612707565b92915050565b6000604082840312156127475761274661265b565b5b81905092915050565b600080604083850312156127675761276661245f565b5b6000612775858286016124b2565b925050602083013567ffffffffffffffff81111561279657612795612464565b5b6127a285828601612731565b9150509250929050565b600080fd5b7f4e487b7100000000000000000000000000000000000000000000000000000000600052604160045260246000fd5b6127e9826123e9565b810181811067ffffffffffffffff82111715612808576128076127b1565b5b80604052505050565b600061281b612455565b905061282782826127e0565b919050565b600080fd5b61283a81612627565b811461284557600080fd5b50565b60008135905061285781612831565b92915050565b600080fd5b600080fd5b600067ffffffffffffffff821115612882576128816127b1565b5b61288b826123e9565b9050602081019050919050565b82818337600083830152505050565b60006128ba6128b584612867565b612811565b9050828152602081018484840111156128d6576128d5612862565b5b6128e1848285612898565b509392505050565b600082601f8301126128fe576128fd61285d565b5b813561290e8482602086016128a7565b91505092915050565b60006040828403121561292d5761292c6127ac565b5b6129376040612811565b9050600061294784828501612848565b600083015250602082013567ffffffffffffffff81111561296b5761296a61282c565b5b612977848285016128e9565b60208301525092915050565b6000806040838503121561299a5761299961245f565b5b60006129a8858286016124b2565b925050602083013567ffffffffffffffff8111156129c9576129c8612464565b5b6129d585828601612917565b9150509250929050565b600063ffffffff82169050919050565b6129f8816129df565b8114612a0357600080fd5b50565b600081359050612a15816129ef565b92915050565b600060208284031215612a3157612a3061245f565b5b6000612a3f84828501612a06565b91505092915050565b600060208284031215612a5e57612a5d61245f565b5b6000612a6c848285016124b2565b91505092915050565b60007fff0000000000000000000000000000000000000000000000000000000000000082169050919050565b612aaa81612a75565b82525050565b612ab981612489565b82525050565b600081519050919050565b600082825260208201905092915050565b6000819050602082019050919050565b612af4816124c7565b82525050565b6000612b068383612aeb565b60208301905092915050565b6000602082019050919050565b6000612b2a82612abf565b612b348185612aca565b9350612b3f83612adb565b8060005b83811015612b70578151612b578882612afa565b9750612b6283612b12565b925050600181019050612b43565b5085935050505092915050565b600060e082019050612b92600083018a612aa1565b8181036020830152612ba481896123fa565b90508181036040830152612bb881886123fa565b9050612bc76060830187612573565b612bd46080830186612ab0565b612be160a0830185612631565b81810360c0830152612bf38184612b1f565b905098975050505050505050565b600080600060608486031215612c1a57612c1961245f565b5b6000612c28868287016124b2565b9350506020612c39868287016124b2565b925050604084013567ffffffffffffffff811115612c5a57612c59612464565b5b612c6686828701612660565b9150509250925092565b612c79816124c7565b8114612c8457600080fd5b50565b600081359050612c9681612c70565b92915050565b600080600060608486031215612cb557612cb461245f565b5b6000612cc3868287016124b2565b9350506020612cd4868287016124b2565b9250506040612ce586828701612c87565b9150509250925092565b60008060408385031215612d0657612d0561245f565b5b6000612d14858286016124b2565b9250506020612d2585828601612c87565b9150509250929050565b612d38816125f0565b8114612d4357600080fd5b50565b600081359050612d5581612d2f565b92915050565b600080600080600080600060e0888a031215612d7a57612d7961245f565b5b6000612d888a828b016124b2565b9750506020612d998a828b016124b2565b9650506040612daa8a828b016124e8565b9550506060612dbb8a828b016124e8565b9450506080612dcc8a828b01612d46565b93505060a0612ddd8a828b01612848565b92505060c0612dee8a828b01612848565b91505092959891949750929550565b60008060408385031215612e1457612e1361245f565b5b6000612e22858286016124b2565b9250506020612e33858286016124b2565b9150509250929050565b7f4e487b7100000000000000000000000000000000000000000000000000000000600052602260045260246000fd5b60006002820490506001821680612e8457607f821691505b602082108103612e9757612e96612e3d565b5b50919050565b600060208284031215612eb357612eb26127ac565b5b612ebd6020612811565b9050600082013567ffffffffffffffff811115612edd57612edc61282c565b5b612ee9848285016128e9565b60008301525092915050565b6000612f013683612e9d565b9050919050565b6000612f143683612917565b9050919050565b6000604082019050612f306000830185612631565b612f3d6020830184612631565b9392505050565b600081519050919050565b600082825260208201905092915050565b6000612f6b82612f44565b612f758185612f4f565b9350612f858185602086016123bf565b612f8e816123e9565b840191505092915050565b6000604082019050612fae60008301856125fd565b8181036020830152612fc08184612f60565b90509392505050565b600081519050612fd8816124d1565b92915050565b600060208284031215612ff457612ff361245f565b5b600061300284828501612fc9565b91505092915050565b7f4e487b7100000000000000000000000000000000000000000000000000000000600052602160045260246000fd5b6000819050919050565b61305561305082612627565b61303a565b82525050565b60006130678284613044565b60208201915081905092915050565b600060608201905061308b60008301866125fd565b818103602083015261309d8185612f60565b905081810360408301526130b18184612f60565b9050949350505050565b600067ffffffffffffffff8211156130d6576130d56127b1565b5b6130df826123e9565b9050602081019050919050565b60006130ff6130fa846130bb565b612811565b90508281526020810184848401111561311b5761311a612862565b5b6131268482856123bf565b509392505050565b600082601f8301126131435761314261285d565b5b81516131538482602086016130ec565b91505092915050565b6000602082840312156131725761317161245f565b5b600082015167ffffffffffffffff8111156131905761318f612464565b5b61319c8482850161312e565b91505092915050565b600060408201905081810360008301526131bf8185612f60565b90506131ce60208301846125fd565b9392505050565b60006131e86131e384612867565b612811565b90508281526020810184848401111561320457613203612862565b5b61320f8482856123bf565b509392505050565b600082601f83011261322c5761322b61285d565b5b815161323c8482602086016131d5565b91505092915050565b60006020828403121561325b5761325a61245f565b5b600082015167ffffffffffffffff81111561327957613278612464565b5b61328584828501613217565b91505092915050565b600060a0820190506132a36000830188612631565b6132b06020830187612631565b6132bd6040830186612631565b6132ca6060830185612573565b6132d76080830184612ab0565b9695505050505050565b60006080820190506132f66000830187612631565b61330360208301866125fd565b6133106040830185612631565b61331d6060830184612631565b9594505050505056fea264697066735822122058197cac2b77cb9bd316ff9903122d58cec9c086f803140087396e89c46f21c964736f6c63430008180033",
  "devdoc": {
    "errors": {
      "AllowanceOverflow()": [
        {
          "details": "The allowance has overflowed."
        }
      ],
      "AllowanceUnderflow()": [
        {
          "details": "The allowance has underflowed."
        }
      ],
      "ECDSAInvalidSignature()": [
        {
          "details": "The signature derives the `address(0)`."
        }
      ],
      "ECDSAInvalidSignatureLength(uint256)": [
        {
          "details": "The signature has an invalid length."
        }
      ],
      "ECDSAInvalidSignatureS(bytes32)": [
        {
          "details": "The signature has an S value that is in the upper half order."
        }
      ],
      "InsufficientAllowance()": [
        {
          "details": "Insufficient allowance."
        }
      ],
      "InsufficientBalance()": [
        {
          "details": "Insufficient balance."
        }
      ],
      "InvalidPermit()": [
        {
          "details": "The permit is invalid."
        }
      ],
      "PermitExpired()": [
        {
          "details": "The permit has expired."
        }
      ],
      "TotalSupplyOverflow()": [
        {
          "details": "The total supply has overflowed."
        }
      ]
    },
    "events": {
      "Approval(address,address,uint256)": {
        "details": "Emitted when `amount` tokens is approved by `owner` to be used by `spender`."
      },
      "ApprovalEncrypted(address,address)": {
        "details": "Emitted when the allowance of a `spender` for an `owner` is set by a call to {approveEncrypted}. `value` is the new allowance."
      },
      "EIP712DomainChanged()": {
        "details": "MAY be emitted to signal that the domain could have changed."
      },
      "Transfer(address,address,uint256)": {
        "details": "Emitted when `amount` tokens is transferred from `from` to `to`."
      },
      "TransferEncrypted(address,address)": {
        "details": "Emitted when `value` tokens are moved from one account (`from`) to another (`to`). Note that `value` may be zero."
      }
    },
    "kind": "dev",
    "methods": {
      "DOMAIN_SEPARATOR()": {
        "details": "Returns the EIP-712 domain separator for the EIP-2612 permit."
      },
      "allowance(address,address)": {
        "details": "Returns the amount of tokens that `spender` can spend on behalf of `owner`."
      },
      "allowanceEncrypted(address,(bytes32,bytes))": {
        "details": "Returns the remaining number of tokens that `spender` will be allowed to spend on behalf of `owner` through {transferFrom}. This is zero by default. This value changes when {approve} or {transferFrom} are called."
      },
      "approve(address,uint256)": {
        "details": "Sets `amount` as the allowance of `spender` over the caller's tokens. Emits a {Approval} event."
      },
      "approveEncrypted(address,(bytes))": {
        "details": "Sets a `value` amount of tokens as the allowance of `spender` over the caller's tokens. Returns a boolean value indicating whether the operation succeeded. IMPORTANT: Beware that changing an allowance with this method brings the risk that someone may use both the old and the new allowance by unfortunate transaction ordering. One possible solution to mitigate this race condition is to first reduce the spender's allowance to 0 and set the desired value afterwards: https://github.com/ethereum/EIPs/issues/20#issuecomment-263524729 Emits an {ApprovalEncrypted} event."
      },
      "balanceOf(address)": {
        "details": "Returns the amount of tokens owned by `owner`."
      },
      "balanceOfEncrypted(address,(bytes32,bytes))": {
        "details": "Returns the value of tokens owned by `account`, sealed and encrypted for the caller."
      },
      "decimals()": {
        "details": "Returns the decimals places of the token."
      },
      "eip712Domain()": {
        "details": "See {IERC-5267}."
      },
      "name()": {
        "details": "Returns the name of the token."
      },
      "nonces(address)": {
        "details": "Returns the current nonce for `owner`. This value is used to compute the signature for EIP-2612 permit."
      },
      "permit(address,address,uint256,uint256,uint8,bytes32,bytes32)": {
        "details": "Sets `value` as the allowance of `spender` over the tokens of `owner`, authorized by a signed approval by `owner`. Emits a {Approval} event."
      },
      "symbol()": {
        "details": "Returns the symbol of the token."
      },
      "totalSupply()": {
        "details": "Returns the amount of tokens in existence."
      },
      "transfer(address,uint256)": {
        "details": "Transfer `amount` tokens from the caller to `to`. Requirements: - `from` must at least have `amount`. Emits a {Transfer} event."
      },
      "transferFrom(address,address,uint256)": {
        "details": "Transfers `amount` tokens from `from` to `to`. Note: Does not update the allowance if it is the maximum uint256 value. Requirements: - `from` must at least have `amount`. - The caller must have at least `amount` of allowance to transfer the tokens of `from`. Emits a {Transfer} event."
      },
      "transferFromEncrypted(address,address,(bytes))": {
        "details": "Moves a `value` amount of tokens from `from` to `to` using the allowance mechanism. `value` is then deducted from the caller's allowance. Returns a boolean value indicating whether the operation succeeded. Emits a {TransferEncrypted} event."
      }
    },
    "version": 1
  },
  "userdoc": {
    "errors": {
      "SignerNotMessageSender()": [
        {
          "notice": "Emitted when the signer is not the message sender"
        }
      ],
      "SignerNotOwner()": [
        {
          "notice": "Emitted when the signer is not the specified owner"
        }
      ]
    },
    "kind": "user",
    "methods": {},
    "version": 1
  },
  "storageLayout": {
    "storage": [
      {
        "astId": 16568,
        "contract": "contracts/tokens/FakeUSD.sol:FakeUSD",
        "label": "_nameFallback",
        "offset": 0,
        "slot": "0",
        "type": "t_string_storage"
      },
      {
        "astId": 16570,
        "contract": "contracts/tokens/FakeUSD.sol:FakeUSD",
        "label": "_versionFallback",
        "offset": 0,
        "slot": "1",
        "type": "t_string_storage"
      },
      {
        "astId": 18126,
        "contract": "contracts/tokens/FakeUSD.sol:FakeUSD",
        "label": "_encTotalSupply",
        "offset": 0,
        "slot": "2",
        "type": "t_userDefinedValueType(euint32)12"
      },
      {
        "astId": 18131,
        "contract": "contracts/tokens/FakeUSD.sol:FakeUSD",
        "label": "_encBalanceOf",
        "offset": 0,
        "slot": "3",
        "type": "t_mapping(t_address,t_userDefinedValueType(euint32)12)"
      },
      {
        "astId": 18138,
        "contract": "contracts/tokens/FakeUSD.sol:FakeUSD",
        "label": "_encAllowance",
        "offset": 0,
        "slot": "4",
        "type": "t_mapping(t_address,t_mapping(t_address,t_userDefinedValueType(euint32)12))"
      },
      {
        "astId": 18140,
        "contract": "contracts/tokens/FakeUSD.sol:FakeUSD",
        "label": "_name",
        "offset": 0,
        "slot": "5",
        "type": "t_string_storage"
      },
      {
        "astId": 18142,
        "contract": "contracts/tokens/FakeUSD.sol:FakeUSD",
        "label": "_symbol",
        "offset": 0,
        "slot": "6",
        "type": "t_string_storage"
      }
    ],
    "types": {
      "t_address": {
        "encoding": "inplace",
        "label": "address",
        "numberOfBytes": "20"
      },
      "t_mapping(t_address,t_mapping(t_address,t_userDefinedValueType(euint32)12))": {
        "encoding": "mapping",
        "key": "t_address",
        "label": "mapping(address => mapping(address => euint32))",
        "numberOfBytes": "32",
        "value": "t_mapping(t_address,t_userDefinedValueType(euint32)12)"
      },
      "t_mapping(t_address,t_userDefinedValueType(euint32)12)": {
        "encoding": "mapping",
        "key": "t_address",
        "label": "mapping(address => euint32)",
        "numberOfBytes": "32",
        "value": "t_userDefinedValueType(euint32)12"
      },
      "t_string_storage": {
        "encoding": "bytes",
        "label": "string",
        "numberOfBytes": "32"
      },
      "t_userDefinedValueType(euint32)12": {
        "encoding": "inplace",
        "label": "euint32",
        "numberOfBytes": "32"
      }
    }
  }
}