{
  "address": "0xe8cDef9eC51A3b3EEC6038FAD143240348fB95b4",
  "abi": [
    {
      "inputs": [
        {
          "components": [
            {
              "internalType": "bytes",
              "name": "data",
              "type": "bytes"
            }
          ],
          "internalType": "struct inEuint32",
          "name": "_initialSupply",
          "type": "tuple"
        }
      ],
      "stateMutability": "nonpayable",
      "type": "constructor"
    },
    {
      "inputs": [],
      "name": "AllowanceOverflow",
      "type": "error"
    },
    {
      "inputs": [],
      "name": "AllowanceUnderflow",
      "type": "error"
    },
    {
      "inputs": [],
      "name": "ECDSAInvalidSignature",
      "type": "error"
    },
    {
      "inputs": [
        {
          "internalType": "uint256",
          "name": "length",
          "type": "uint256"
        }
      ],
      "name": "ECDSAInvalidSignatureLength",
      "type": "error"
    },
    {
      "inputs": [
        {
          "internalType": "bytes32",
          "name": "s",
          "type": "bytes32"
        }
      ],
      "name": "ECDSAInvalidSignatureS",
      "type": "error"
    },
    {
      "inputs": [],
      "name": "ErrorInsufficientFunds",
      "type": "error"
    },
    {
      "inputs": [],
      "name": "InsufficientAllowance",
      "type": "error"
    },
    {
      "inputs": [],
      "name": "InsufficientBalance",
      "type": "error"
    },
    {
      "inputs": [],
      "name": "InvalidPermit",
      "type": "error"
    },
    {
      "inputs": [],
      "name": "InvalidShortString",
      "type": "error"
    },
    {
      "inputs": [],
      "name": "PermitExpired",
      "type": "error"
    },
    {
      "inputs": [],
      "name": "SignerNotMessageSender",
      "type": "error"
    },
    {
      "inputs": [],
      "name": "SignerNotOwner",
      "type": "error"
    },
    {
      "inputs": [
        {
          "internalType": "string",
          "name": "str",
          "type": "string"
        }
      ],
      "name": "StringTooLong",
      "type": "error"
    },
    {
      "inputs": [],
      "name": "TotalSupplyOverflow",
      "type": "error"
    },
    {
      "anonymous": false,
      "inputs": [
        {
          "indexed": true,
          "internalType": "address",
          "name": "owner",
          "type": "address"
        },
        {
          "indexed": true,
          "internalType": "address",
          "name": "spender",
          "type": "address"
        },
        {
          "indexed": false,
          "internalType": "uint256",
          "name": "amount",
          "type": "uint256"
        }
      ],
      "name": "Approval",
      "type": "event"
    },
    {
      "anonymous": false,
      "inputs": [
        {
          "indexed": true,
          "internalType": "address",
          "name": "owner",
          "type": "address"
        },
        {
          "indexed": true,
          "internalType": "address",
          "name": "spender",
          "type": "address"
        }
      ],
      "name": "ApprovalEncrypted",
      "type": "event"
    },
    {
      "anonymous": false,
      "inputs": [],
      "name": "EIP712DomainChanged",
      "type": "event"
    },
    {
      "anonymous": false,
      "inputs": [
        {
          "indexed": true,
          "internalType": "address",
          "name": "from",
          "type": "address"
        },
        {
          "indexed": true,
          "internalType": "address",
          "name": "to",
          "type": "address"
        },
        {
          "indexed": false,
          "internalType": "uint256",
          "name": "amount",
          "type": "uint256"
        }
      ],
      "name": "Transfer",
      "type": "event"
    },
    {
      "anonymous": false,
      "inputs": [
        {
          "indexed": true,
          "internalType": "address",
          "name": "from",
          "type": "address"
        },
        {
          "indexed": true,
          "internalType": "address",
          "name": "to",
          "type": "address"
        }
      ],
      "name": "TransferEncrypted",
      "type": "event"
    },
    {
      "inputs": [],
      "name": "DOMAIN_SEPARATOR",
      "outputs": [
        {
          "internalType": "bytes32",
          "name": "result",
          "type": "bytes32"
        }
      ],
      "stateMutability": "view",
      "type": "function"
    },
    {
      "inputs": [
        {
          "internalType": "address",
          "name": "owner",
          "type": "address"
        },
        {
          "internalType": "address",
          "name": "spender",
          "type": "address"
        }
      ],
      "name": "allowance",
      "outputs": [
        {
          "internalType": "uint256",
          "name": "result",
          "type": "uint256"
        }
      ],
      "stateMutability": "view",
      "type": "function"
    },
    {
      "inputs": [
        {
          "internalType": "address",
          "name": "spender",
          "type": "address"
        },
        {
          "components": [
            {
              "internalType": "bytes32",
              "name": "publicKey",
              "type": "bytes32"
            },
            {
              "internalType": "bytes",
              "name": "signature",
              "type": "bytes"
            }
          ],
          "internalType": "struct Permission",
          "name": "permission",
          "type": "tuple"
        }
      ],
      "name": "allowanceEncrypted",
      "outputs": [
        {
          "internalType": "string",
          "name": "",
          "type": "string"
        }
      ],
      "stateMutability": "view",
      "type": "function"
    },
    {
      "inputs": [
        {
          "internalType": "address",
          "name": "spender",
          "type": "address"
        },
        {
          "internalType": "uint256",
          "name": "amount",
          "type": "uint256"
        }
      ],
      "name": "approve",
      "outputs": [
        {
          "internalType": "bool",
          "name": "",
          "type": "bool"
        }
      ],
      "stateMutability": "nonpayable",
      "type": "function"
    },
    {
      "inputs": [
        {
          "internalType": "address",
          "name": "spender",
          "type": "address"
        },
        {
          "components": [
            {
              "internalType": "bytes",
              "name": "data",
              "type": "bytes"
            }
          ],
          "internalType": "struct inEuint32",
          "name": "value",
          "type": "tuple"
        }
      ],
      "name": "approveEncrypted",
      "outputs": [
        {
          "internalType": "bool",
          "name": "",
          "type": "bool"
        }
      ],
      "stateMutability": "nonpayable",
      "type": "function"
    },
    {
      "inputs": [
        {
          "internalType": "address",
          "name": "owner",
          "type": "address"
        }
      ],
      "name": "balanceOf",
      "outputs": [
        {
          "internalType": "uint256",
          "name": "result",
          "type": "uint256"
        }
      ],
      "stateMutability": "view",
      "type": "function"
    },
    {
      "inputs": [
        {
          "internalType": "address",
          "name": "account",
          "type": "address"
        },
        {
          "components": [
            {
              "internalType": "bytes32",
              "name": "publicKey",
              "type": "bytes32"
            },
            {
              "internalType": "bytes",
              "name": "signature",
              "type": "bytes"
            }
          ],
          "internalType": "struct Permission",
          "name": "auth",
          "type": "tuple"
        }
      ],
      "name": "balanceOfEncrypted",
      "outputs": [
        {
          "internalType": "string",
          "name": "",
          "type": "string"
        }
      ],
      "stateMutability": "view",
      "type": "function"
    },
    {
      "inputs": [],
      "name": "decimals",
      "outputs": [
        {
          "internalType": "uint8",
          "name": "",
          "type": "uint8"
        }
      ],
      "stateMutability": "pure",
      "type": "function"
    },
    {
      "inputs": [],
      "name": "eip712Domain",
      "outputs": [
        {
          "internalType": "bytes1",
          "name": "fields",
          "type": "bytes1"
        },
        {
          "internalType": "string",
          "name": "name",
          "type": "string"
        },
        {
          "internalType": "string",
          "name": "version",
          "type": "string"
        },
        {
          "internalType": "uint256",
          "name": "chainId",
          "type": "uint256"
        },
        {
          "internalType": "address",
          "name": "verifyingContract",
          "type": "address"
        },
        {
          "internalType": "bytes32",
          "name": "salt",
          "type": "bytes32"
        },
        {
          "internalType": "uint256[]",
          "name": "extensions",
          "type": "uint256[]"
        }
      ],
      "stateMutability": "view",
      "type": "function"
    },
    {
      "inputs": [],
      "name": "name",
      "outputs": [
        {
          "internalType": "string",
          "name": "",
          "type": "string"
        }
      ],
      "stateMutability": "view",
      "type": "function"
    },
    {
      "inputs": [
        {
          "internalType": "address",
          "name": "owner",
          "type": "address"
        }
      ],
      "name": "nonces",
      "outputs": [
        {
          "internalType": "uint256",
          "name": "result",
          "type": "uint256"
        }
      ],
      "stateMutability": "view",
      "type": "function"
    },
    {
      "inputs": [
        {
          "internalType": "address",
          "name": "owner",
          "type": "address"
        },
        {
          "internalType": "address",
          "name": "spender",
          "type": "address"
        },
        {
          "internalType": "uint256",
          "name": "value",
          "type": "uint256"
        },
        {
          "internalType": "uint256",
          "name": "deadline",
          "type": "uint256"
        },
        {
          "internalType": "uint8",
          "name": "v",
          "type": "uint8"
        },
        {
          "internalType": "bytes32",
          "name": "r",
          "type": "bytes32"
        },
        {
          "internalType": "bytes32",
          "name": "s",
          "type": "bytes32"
        }
      ],
      "name": "permit",
      "outputs": [],
      "stateMutability": "nonpayable",
      "type": "function"
    },
    {
      "inputs": [],
      "name": "symbol",
      "outputs": [
        {
          "internalType": "string",
          "name": "",
          "type": "string"
        }
      ],
      "stateMutability": "view",
      "type": "function"
    },
    {
      "inputs": [],
      "name": "totalSupply",
      "outputs": [
        {
          "internalType": "uint256",
          "name": "result",
          "type": "uint256"
        }
      ],
      "stateMutability": "view",
      "type": "function"
    },
    {
      "inputs": [
        {
          "internalType": "address",
          "name": "to",
          "type": "address"
        },
        {
          "internalType": "uint256",
          "name": "amount",
          "type": "uint256"
        }
      ],
      "name": "transfer",
      "outputs": [
        {
          "internalType": "bool",
          "name": "",
          "type": "bool"
        }
      ],
      "stateMutability": "nonpayable",
      "type": "function"
    },
    {
      "inputs": [
        {
          "internalType": "address",
          "name": "to",
          "type": "address"
        },
        {
          "components": [
            {
              "internalType": "bytes",
              "name": "data",
              "type": "bytes"
            }
          ],
          "internalType": "struct inEuint32",
          "name": "encryptedAmount",
          "type": "tuple"
        }
      ],
      "name": "transferEncrypted",
      "outputs": [
        {
          "internalType": "euint32",
          "name": "",
          "type": "uint256"
        }
      ],
      "stateMutability": "nonpayable",
      "type": "function"
    },
    {
      "inputs": [
        {
          "internalType": "address",
          "name": "to",
          "type": "address"
        },
        {
          "internalType": "euint32",
          "name": "amount",
          "type": "uint256"
        }
      ],
      "name": "transferEncrypted",
      "outputs": [
        {
          "internalType": "euint32",
          "name": "",
          "type": "uint256"
        }
      ],
      "stateMutability": "nonpayable",
      "type": "function"
    },
    {
      "inputs": [
        {
          "internalType": "address",
          "name": "from",
          "type": "address"
        },
        {
          "internalType": "address",
          "name": "to",
          "type": "address"
        },
        {
          "internalType": "uint256",
          "name": "amount",
          "type": "uint256"
        }
      ],
      "name": "transferFrom",
      "outputs": [
        {
          "internalType": "bool",
          "name": "",
          "type": "bool"
        }
      ],
      "stateMutability": "nonpayable",
      "type": "function"
    },
    {
      "inputs": [
        {
          "internalType": "address",
          "name": "from",
          "type": "address"
        },
        {
          "internalType": "address",
          "name": "to",
          "type": "address"
        },
        {
          "components": [
            {
              "internalType": "bytes",
              "name": "data",
              "type": "bytes"
            }
          ],
          "internalType": "struct inEuint32",
          "name": "value",
          "type": "tuple"
        }
      ],
      "name": "transferFromEncrypted",
      "outputs": [
        {
          "internalType": "euint32",
          "name": "",
          "type": "uint256"
        }
      ],
      "stateMutability": "nonpayable",
      "type": "function"
    },
    {
      "inputs": [
        {
          "internalType": "address",
          "name": "from",
          "type": "address"
        },
        {
          "internalType": "address",
          "name": "to",
          "type": "address"
        },
        {
          "internalType": "euint32",
          "name": "value",
          "type": "uint256"
        }
      ],
      "name": "transferFromEncrypted",
      "outputs": [
        {
          "internalType": "euint32",
          "name": "",
          "type": "uint256"
        }
      ],
      "stateMutability": "nonpayable",
      "type": "function"
    },
    {
      "inputs": [
        {
          "internalType": "uint32",
          "name": "amount",
          "type": "uint32"
        }
      ],
      "name": "unwrap",
      "outputs": [],
      "stateMutability": "nonpayable",
      "type": "function"
    },
    {
      "inputs": [
        {
          "internalType": "uint32",
          "name": "amount",
          "type": "uint32"
        }
      ],
      "name": "wrap",
      "outputs": [],
      "stateMutability": "nonpayable",
      "type": "function"
    }
  ],
  "transactionHash": "0x5838facd62b5b9b4b7f12993d61e077d072464cb98d3b9d294c82276be0d3a28",
  "args": [
    {
      "data": {
        "0": 16,
        "1": 8,
        "2": 0,
        "3": 0,
        "4": 0,
        "5": 0,
        "6": 0,
        "7": 0,
        "8": 68,
        "9": 127,
        "10": 58,
        "11": 222,
        "12": 44,
        "13": 223,
        "14": 81,
        "15": 105,
        "16": 35,
        "17": 50,
        "18": 168,
        "19": 158,
        "20": 114,
        "21": 232,
        "22": 24,
        "23": 79,
        "24": 161,
        "25": 77,
        "26": 166,
        "27": 108,
        "28": 162,
        "29": 180,
        "30": 218,
        "31": 188,
        "32": 158,
        "33": 219,
        "34": 38,
        "35": 71,
        "36": 245,
        "37": 153,
        "38": 169,
        "39": 252,
        "40": 20,
        "41": 114,
        "42": 214,
        "43": 250,
        "44": 93,
        "45": 193,
        "46": 154,
        "47": 4,
        "48": 43,
        "49": 17,
        "50": 238,
        "51": 3,
        "52": 109,
        "53": 8,
        "54": 66,
        "55": 192,
        "56": 215,
        "57": 208,
        "58": 57,
        "59": 9,
        "60": 215,
        "61": 7,
        "62": 18,
        "63": 29,
        "64": 199,
        "65": 110,
        "66": 205,
        "67": 106,
        "68": 116,
        "69": 5,
        "70": 153,
        "71": 5,
        "72": 13,
        "73": 60,
        "74": 174,
        "75": 226,
        "76": 183,
        "77": 72,
        "78": 189,
        "79": 233,
        "80": 180,
        "81": 51,
        "82": 251,
        "83": 35,
        "84": 130,
        "85": 142,
        "86": 175,
        "87": 227,
        "88": 227,
        "89": 188,
        "90": 7,
        "91": 144,
        "92": 9,
        "93": 170,
        "94": 119,
        "95": 129,
        "96": 170,
        "97": 235,
        "98": 246,
        "99": 123,
        "100": 18,
        "101": 253,
        "102": 6,
        "103": 242,
        "104": 55,
        "105": 10,
        "106": 245,
        "107": 66,
        "108": 76,
        "109": 7,
        "110": 139,
        "111": 196,
        "112": 81,
        "113": 2,
        "114": 22,
        "115": 242,
        "116": 7,
        "117": 162,
        "118": 25,
        "119": 23,
        "120": 206,
        "121": 102,
        "122": 59,
        "123": 242,
        "124": 175,
        "125": 12,
        "126": 131,
        "127": 182,
        "128": 65,
        "129": 146,
        "130": 43,
        "131": 216,
        "132": 71,
        "133": 53,
        "134": 200,
        "135": 71,
        "136": 153,
        "137": 200,
        "138": 121,
        "139": 222,
        "140": 113,
        "141": 77,
        "142": 76,
        "143": 6,
        "144": 157,
        "145": 0,
        "146": 229,
        "147": 222,
        "148": 3,
        "149": 91,
        "150": 101,
        "151": 189,
        "152": 96,
        "153": 251,
        "154": 7,
        "155": 236,
        "156": 133,
        "157": 250,
        "158": 168,
        "159": 107,
        "160": 36,
        "161": 135,
        "162": 227,
        "163": 121,
        "164": 184,
        "165": 5,
        "166": 80,
        "167": 159,
        "168": 168,
        "169": 71,
        "170": 192,
        "171": 194,
        "172": 7,
        "173": 101,
        "174": 36,
        "175": 75,
        "176": 175,
        "177": 33,
        "178": 77,
        "179": 15,
        "180": 102,
        "181": 19,
        "182": 187,
        "183": 5,
        "184": 144,
        "185": 106,
        "186": 61,
        "187": 41,
        "188": 190,
        "189": 172,
        "190": 40,
        "191": 223,
        "192": 115,
        "193": 229,
        "194": 172,
        "195": 209,
        "196": 119,
        "197": 55,
        "198": 44,
        "199": 164,
        "200": 34,
        "201": 198,
        "202": 158,
        "203": 64,
        "204": 40,
        "205": 179,
        "206": 226,
        "207": 212,
        "208": 103,
        "209": 244,
        "210": 34,
        "211": 196,
        "212": 38,
        "213": 70,
        "214": 76,
        "215": 119,
        "216": 19,
        "217": 163,
        "218": 98,
        "219": 96,
        "220": 51,
        "221": 167,
        "222": 152,
        "223": 223,
        "224": 55,
        "225": 70,
        "226": 208,
        "227": 101,
        "228": 37,
        "229": 207,
        "230": 37,
        "231": 114,
        "232": 181,
        "233": 17,
        "234": 209,
        "235": 46,
        "236": 236,
        "237": 150,
        "238": 125,
        "239": 27,
        "240": 107,
        "241": 5,
        "242": 181,
        "243": 222,
        "244": 56,
        "245": 240,
        "246": 89,
        "247": 147,
        "248": 5,
        "249": 237,
        "250": 28,
        "251": 204,
        "252": 176,
        "253": 219,
        "254": 158,
        "255": 236,
        "256": 231,
        "257": 96,
        "258": 177,
        "259": 26,
        "260": 168,
        "261": 40,
        "262": 14,
        "263": 115,
        "264": 181,
        "265": 128,
        "266": 67,
        "267": 239,
        "268": 249,
        "269": 50,
        "270": 98,
        "271": 230,
        "272": 43,
        "273": 151,
        "274": 147,
        "275": 181,
        "276": 150,
        "277": 238,
        "278": 128,
        "279": 163,
        "280": 24,
        "281": 43,
        "282": 75,
        "283": 81,
        "284": 5,
        "285": 214,
        "286": 64,
        "287": 13,
        "288": 244,
        "289": 118,
        "290": 166,
        "291": 48,
        "292": 254,
        "293": 19,
        "294": 94,
        "295": 165,
        "296": 39,
        "297": 33,
        "298": 128,
        "299": 94,
        "300": 86,
        "301": 220,
        "302": 237,
        "303": 190,
        "304": 107,
        "305": 68,
        "306": 149,
        "307": 2,
        "308": 40,
        "309": 141,
        "310": 6,
        "311": 83,
        "312": 244,
        "313": 34,
        "314": 111,
        "315": 253,
        "316": 27,
        "317": 195,
        "318": 70,
        "319": 229,
        "320": 127,
        "321": 58,
        "322": 174,
        "323": 159,
        "324": 163,
        "325": 174,
        "326": 107,
        "327": 183,
        "328": 15,
        "329": 151,
        "330": 249,
        "331": 236,
        "332": 136,
        "333": 77,
        "334": 38,
        "335": 204,
        "336": 205,
        "337": 28,
        "338": 197,
        "339": 189,
        "340": 59,
        "341": 160,
        "342": 249,
        "343": 136,
        "344": 173,
        "345": 93,
        "346": 196,
        "347": 34,
        "348": 80,
        "349": 233,
        "350": 69,
        "351": 3,
        "352": 58,
        "353": 184,
        "354": 90,
        "355": 112,
        "356": 57,
        "357": 132,
        "358": 224,
        "359": 68,
        "360": 42,
        "361": 232,
        "362": 24,
        "363": 81,
        "364": 176,
        "365": 132,
        "366": 254,
        "367": 31,
        "368": 53,
        "369": 179,
        "370": 38,
        "371": 91,
        "372": 117,
        "373": 174,
        "374": 222,
        "375": 43,
        "376": 79,
        "377": 1,
        "378": 131,
        "379": 143,
        "380": 243,
        "381": 202,
        "382": 6,
        "383": 195,
        "384": 102,
        "385": 244,
        "386": 90,
        "387": 201,
        "388": 150,
        "389": 43,
        "390": 254,
        "391": 151,
        "392": 66,
        "393": 224,
        "394": 44,
        "395": 194,
        "396": 3,
        "397": 0,
        "398": 251,
        "399": 151,
        "400": 93,
        "401": 177,
        "402": 213,
        "403": 105,
        "404": 154,
        "405": 26,
        "406": 88,
        "407": 204,
        "408": 227,
        "409": 29,
        "410": 137,
        "411": 247,
        "412": 60,
        "413": 71,
        "414": 251,
        "415": 219,
        "416": 132,
        "417": 92,
        "418": 102,
        "419": 27,
        "420": 38,
        "421": 30,
        "422": 42,
        "423": 159,
        "424": 206,
        "425": 15,
        "426": 48,
        "427": 115,
        "428": 39,
        "429": 7,
        "430": 90,
        "431": 1,
        "432": 182,
        "433": 169,
        "434": 234,
        "435": 223,
        "436": 219,
        "437": 118,
        "438": 46,
        "439": 7,
        "440": 165,
        "441": 111,
        "442": 238,
        "443": 216,
        "444": 37,
        "445": 93,
        "446": 179,
        "447": 97,
        "448": 58,
        "449": 114,
        "450": 250,
        "451": 160,
        "452": 134,
        "453": 68,
        "454": 182,
        "455": 85,
        "456": 9,
        "457": 177,
        "458": 173,
        "459": 149,
        "460": 254,
        "461": 88,
        "462": 27,
        "463": 39,
        "464": 206,
        "465": 179,
        "466": 149,
        "467": 81,
        "468": 196,
        "469": 165,
        "470": 41,
        "471": 123,
        "472": 41,
        "473": 69,
        "474": 43,
        "475": 42,
        "476": 152,
        "477": 252,
        "478": 51,
        "479": 5,
        "480": 133,
        "481": 55,
        "482": 116,
        "483": 149,
        "484": 75,
        "485": 48,
        "486": 70,
        "487": 13,
        "488": 87,
        "489": 30,
        "490": 29,
        "491": 98,
        "492": 4,
        "493": 147,
        "494": 193,
        "495": 98,
        "496": 114,
        "497": 45,
        "498": 233,
        "499": 62,
        "500": 78,
        "501": 141,
        "502": 87,
        "503": 4,
        "504": 42,
        "505": 186,
        "506": 222,
        "507": 29,
        "508": 92,
        "509": 148,
        "510": 115,
        "511": 196,
        "512": 184,
        "513": 100,
        "514": 8,
        "515": 112,
        "516": 129,
        "517": 206,
        "518": 65,
        "519": 238,
        "520": 50,
        "521": 60,
        "522": 109,
        "523": 233,
        "524": 183,
        "525": 6,
        "526": 209,
        "527": 232,
        "528": 25,
        "529": 115,
        "530": 77,
        "531": 178,
        "532": 113,
        "533": 71,
        "534": 154,
        "535": 140,
        "536": 166,
        "537": 60,
        "538": 157,
        "539": 158,
        "540": 219,
        "541": 174,
        "542": 97,
        "543": 228,
        "544": 77,
        "545": 184,
        "546": 46,
        "547": 117,
        "548": 110,
        "549": 103,
        "550": 55,
        "551": 225,
        "552": 179,
        "553": 118,
        "554": 64,
        "555": 15,
        "556": 244,
        "557": 190,
        "558": 82,
        "559": 206,
        "560": 219,
        "561": 153,
        "562": 32,
        "563": 57,
        "564": 250,
        "565": 160,
        "566": 104,
        "567": 248,
        "568": 111,
        "569": 53,
        "570": 51,
        "571": 217,
        "572": 16,
        "573": 146,
        "574": 200,
        "575": 60,
        "576": 56,
        "577": 138,
        "578": 103,
        "579": 102,
        "580": 139,
        "581": 252,
        "582": 253,
        "583": 58,
        "584": 250,
        "585": 37,
        "586": 211,
        "587": 148,
        "588": 39,
        "589": 70,
        "590": 31,
        "591": 130,
        "592": 50,
        "593": 124,
        "594": 138,
        "595": 114,
        "596": 27,
        "597": 36,
        "598": 176,
        "599": 182,
        "600": 187,
        "601": 144,
        "602": 186,
        "603": 54,
        "604": 156,
        "605": 246,
        "606": 36,
        "607": 176,
        "608": 26,
        "609": 17,
        "610": 23,
        "611": 40,
        "612": 33,
        "613": 132,
        "614": 92,
        "615": 252,
        "616": 77,
        "617": 100,
        "618": 0,
        "619": 200,
        "620": 104,
        "621": 138,
        "622": 73,
        "623": 194,
        "624": 64,
        "625": 100,
        "626": 223,
        "627": 64,
        "628": 225,
        "629": 179,
        "630": 236,
        "631": 18,
        "632": 182,
        "633": 119,
        "634": 28,
        "635": 130,
        "636": 191,
        "637": 49,
        "638": 243,
        "639": 1,
        "640": 97,
        "641": 233,
        "642": 110,
        "643": 68,
        "644": 172,
        "645": 224,
        "646": 251,
        "647": 42,
        "648": 23,
        "649": 49,
        "650": 165,
        "651": 234,
        "652": 88,
        "653": 93,
        "654": 130,
        "655": 248,
        "656": 12,
        "657": 207,
        "658": 224,
        "659": 197,
        "660": 250,
        "661": 4,
        "662": 131,
        "663": 100,
        "664": 133,
        "665": 45,
        "666": 80,
        "667": 81,
        "668": 244,
        "669": 92,
        "670": 163,
        "671": 161,
        "672": 218,
        "673": 16,
        "674": 209,
        "675": 134,
        "676": 108,
        "677": 84,
        "678": 9,
        "679": 150,
        "680": 26,
        "681": 69,
        "682": 91,
        "683": 207,
        "684": 212,
        "685": 129,
        "686": 234,
        "687": 61,
        "688": 27,
        "689": 138,
        "690": 61,
        "691": 95,
        "692": 149,
        "693": 63,
        "694": 76,
        "695": 190,
        "696": 127,
        "697": 145,
        "698": 251,
        "699": 180,
        "700": 63,
        "701": 120,
        "702": 102,
        "703": 36,
        "704": 131,
        "705": 71,
        "706": 141,
        "707": 135,
        "708": 213,
        "709": 157,
        "710": 242,
        "711": 247,
        "712": 185,
        "713": 194,
        "714": 246,
        "715": 99,
        "716": 43,
        "717": 160,
        "718": 71,
        "719": 21,
        "720": 45,
        "721": 154,
        "722": 113,
        "723": 250,
        "724": 122,
        "725": 209,
        "726": 94,
        "727": 29,
        "728": 23,
        "729": 243,
        "730": 246,
        "731": 64,
        "732": 23,
        "733": 122,
        "734": 80,
        "735": 140,
        "736": 245,
        "737": 102,
        "738": 223,
        "739": 3,
        "740": 40,
        "741": 31,
        "742": 14,
        "743": 8,
        "744": 163,
        "745": 250,
        "746": 88,
        "747": 133,
        "748": 96,
        "749": 214,
        "750": 127,
        "751": 2,
        "752": 159,
        "753": 178,
        "754": 216,
        "755": 202,
        "756": 55,
        "757": 237,
        "758": 77,
        "759": 92,
        "760": 211,
        "761": 45,
        "762": 172,
        "763": 213,
        "764": 202,
        "765": 251,
        "766": 89,
        "767": 96,
        "768": 136,
        "769": 85,
        "770": 19,
        "771": 142,
        "772": 202,
        "773": 233,
        "774": 240,
        "775": 36,
        "776": 254,
        "777": 89,
        "778": 7,
        "779": 57,
        "780": 217,
        "781": 16,
        "782": 3,
        "783": 192,
        "784": 73,
        "785": 234,
        "786": 255,
        "787": 10,
        "788": 99,
        "789": 169,
        "790": 78,
        "791": 153,
        "792": 132,
        "793": 50,
        "794": 89,
        "795": 26,
        "796": 103,
        "797": 68,
        "798": 171,
        "799": 24,
        "800": 206,
        "801": 64,
        "802": 159,
        "803": 206,
        "804": 18,
        "805": 41,
        "806": 9,
        "807": 85,
        "808": 247,
        "809": 176,
        "810": 212,
        "811": 29,
        "812": 175,
        "813": 134,
        "814": 229,
        "815": 201,
        "816": 170,
        "817": 212,
        "818": 153,
        "819": 218,
        "820": 165,
        "821": 128,
        "822": 9,
        "823": 124,
        "824": 179,
        "825": 45,
        "826": 29,
        "827": 117,
        "828": 74,
        "829": 142,
        "830": 210,
        "831": 183,
        "832": 125,
        "833": 73,
        "834": 241,
        "835": 141,
        "836": 21,
        "837": 242,
        "838": 232,
        "839": 206,
        "840": 138,
        "841": 128,
        "842": 7,
        "843": 140,
        "844": 213,
        "845": 44,
        "846": 211,
        "847": 201,
        "848": 106,
        "849": 105,
        "850": 87,
        "851": 201,
        "852": 215,
        "853": 96,
        "854": 245,
        "855": 37,
        "856": 221,
        "857": 239,
        "858": 33,
        "859": 178,
        "860": 109,
        "861": 174,
        "862": 55,
        "863": 147,
        "864": 98,
        "865": 21,
        "866": 201,
        "867": 144,
        "868": 224,
        "869": 31,
        "870": 41,
        "871": 90,
        "872": 47,
        "873": 92,
        "874": 18,
        "875": 45,
        "876": 190,
        "877": 70,
        "878": 2,
        "879": 9,
        "880": 171,
        "881": 42,
        "882": 111,
        "883": 133,
        "884": 15,
        "885": 53,
        "886": 237,
        "887": 176,
        "888": 94,
        "889": 35,
        "890": 110,
        "891": 68,
        "892": 145,
        "893": 54,
        "894": 199,
        "895": 219,
        "896": 224,
        "897": 167,
        "898": 100,
        "899": 238,
        "900": 134,
        "901": 211,
        "902": 126,
        "903": 41,
        "904": 243,
        "905": 222,
        "906": 43,
        "907": 178,
        "908": 162,
        "909": 105,
        "910": 59,
        "911": 243,
        "912": 237,
        "913": 251,
        "914": 78,
        "915": 31,
        "916": 23,
        "917": 178,
        "918": 22,
        "919": 180,
        "920": 212,
        "921": 169,
        "922": 36,
        "923": 184,
        "924": 212,
        "925": 106,
        "926": 96,
        "927": 175,
        "928": 2,
        "929": 143,
        "930": 70,
        "931": 31,
        "932": 76,
        "933": 210,
        "934": 118,
        "935": 223,
        "936": 175,
        "937": 165,
        "938": 198,
        "939": 231,
        "940": 56,
        "941": 28,
        "942": 70,
        "943": 141,
        "944": 95,
        "945": 15,
        "946": 15,
        "947": 93,
        "948": 34,
        "949": 109,
        "950": 21,
        "951": 121,
        "952": 165,
        "953": 146,
        "954": 138,
        "955": 209,
        "956": 107,
        "957": 97,
        "958": 255,
        "959": 8,
        "960": 13,
        "961": 63,
        "962": 184,
        "963": 123,
        "964": 167,
        "965": 50,
        "966": 183,
        "967": 130,
        "968": 166,
        "969": 86,
        "970": 56,
        "971": 237,
        "972": 114,
        "973": 171,
        "974": 30,
        "975": 170,
        "976": 84,
        "977": 1,
        "978": 86,
        "979": 213,
        "980": 103,
        "981": 110,
        "982": 193,
        "983": 228,
        "984": 0,
        "985": 110,
        "986": 128,
        "987": 168,
        "988": 110,
        "989": 35,
        "990": 84,
        "991": 202,
        "992": 70,
        "993": 115,
        "994": 19,
        "995": 185,
        "996": 7,
        "997": 91,
        "998": 137,
        "999": 119,
        "1000": 76,
        "1001": 68,
        "1002": 119,
        "1003": 205,
        "1004": 204,
        "1005": 229,
        "1006": 231,
        "1007": 141,
        "1008": 43,
        "1009": 107,
        "1010": 63,
        "1011": 56,
        "1012": 167,
        "1013": 215,
        "1014": 93,
        "1015": 72,
        "1016": 145,
        "1017": 80,
        "1018": 168,
        "1019": 247,
        "1020": 238,
        "1021": 5,
        "1022": 224,
        "1023": 252,
        "1024": 221,
        "1025": 192,
        "1026": 203,
        "1027": 151,
        "1028": 26,
        "1029": 252,
        "1030": 226,
        "1031": 240,
        "1032": 200,
        "1033": 34,
        "1034": 117,
        "1035": 208,
        "1036": 51,
        "1037": 161,
        "1038": 148,
        "1039": 206,
        "1040": 19,
        "1041": 34,
        "1042": 210,
        "1043": 196,
        "1044": 213,
        "1045": 117,
        "1046": 157,
        "1047": 16,
        "1048": 254,
        "1049": 44,
        "1050": 96,
        "1051": 217,
        "1052": 178,
        "1053": 37,
        "1054": 179,
        "1055": 29,
        "1056": 55,
        "1057": 220,
        "1058": 240,
        "1059": 214,
        "1060": 248,
        "1061": 54,
        "1062": 224,
        "1063": 138,
        "1064": 8,
        "1065": 3,
        "1066": 219,
        "1067": 46,
        "1068": 60,
        "1069": 2,
        "1070": 248,
        "1071": 208,
        "1072": 55,
        "1073": 108,
        "1074": 3,
        "1075": 67,
        "1076": 161,
        "1077": 28,
        "1078": 209,
        "1079": 35,
        "1080": 203,
        "1081": 107,
        "1082": 43,
        "1083": 16,
        "1084": 78,
        "1085": 175,
        "1086": 222,
        "1087": 53,
        "1088": 248,
        "1089": 142,
        "1090": 88,
        "1091": 156,
        "1092": 137,
        "1093": 242,
        "1094": 158,
        "1095": 45,
        "1096": 195,
        "1097": 235,
        "1098": 196,
        "1099": 55,
        "1100": 34,
        "1101": 101,
        "1102": 85,
        "1103": 99,
        "1104": 205,
        "1105": 94,
        "1106": 192,
        "1107": 42,
        "1108": 113,
        "1109": 214,
        "1110": 135,
        "1111": 100,
        "1112": 93,
        "1113": 4,
        "1114": 0,
        "1115": 65,
        "1116": 44,
        "1117": 81,
        "1118": 156,
        "1119": 209,
        "1120": 169,
        "1121": 134,
        "1122": 177,
        "1123": 166,
        "1124": 255,
        "1125": 152,
        "1126": 149,
        "1127": 47,
        "1128": 25,
        "1129": 106,
        "1130": 120,
        "1131": 249,
        "1132": 159,
        "1133": 224,
        "1134": 93,
        "1135": 168,
        "1136": 161,
        "1137": 30,
        "1138": 126,
        "1139": 243,
        "1140": 136,
        "1141": 85,
        "1142": 132,
        "1143": 244,
        "1144": 176,
        "1145": 37,
        "1146": 128,
        "1147": 64,
        "1148": 184,
        "1149": 99,
        "1150": 231,
        "1151": 224,
        "1152": 116,
        "1153": 138,
        "1154": 194,
        "1155": 86,
        "1156": 106,
        "1157": 190,
        "1158": 79,
        "1159": 179,
        "1160": 93,
        "1161": 76,
        "1162": 11,
        "1163": 65,
        "1164": 223,
        "1165": 117,
        "1166": 192,
        "1167": 57,
        "1168": 206,
        "1169": 45,
        "1170": 241,
        "1171": 147,
        "1172": 3,
        "1173": 6,
        "1174": 8,
        "1175": 203,
        "1176": 163,
        "1177": 114,
        "1178": 199,
        "1179": 24,
        "1180": 241,
        "1181": 154,
        "1182": 36,
        "1183": 106,
        "1184": 185,
        "1185": 78,
        "1186": 41,
        "1187": 144,
        "1188": 58,
        "1189": 145,
        "1190": 222,
        "1191": 233,
        "1192": 172,
        "1193": 147,
        "1194": 248,
        "1195": 243,
        "1196": 33,
        "1197": 240,
        "1198": 201,
        "1199": 109,
        "1200": 243,
        "1201": 149,
        "1202": 48,
        "1203": 93,
        "1204": 52,
        "1205": 66,
        "1206": 65,
        "1207": 169,
        "1208": 67,
        "1209": 131,
        "1210": 165,
        "1211": 195,
        "1212": 125,
        "1213": 85,
        "1214": 84,
        "1215": 176,
        "1216": 174,
        "1217": 228,
        "1218": 160,
        "1219": 200,
        "1220": 113,
        "1221": 162,
        "1222": 5,
        "1223": 225,
        "1224": 89,
        "1225": 100,
        "1226": 57,
        "1227": 207,
        "1228": 38,
        "1229": 35,
        "1230": 62,
        "1231": 95,
        "1232": 28,
        "1233": 119,
        "1234": 119,
        "1235": 106,
        "1236": 235,
        "1237": 160,
        "1238": 129,
        "1239": 59,
        "1240": 156,
        "1241": 63,
        "1242": 97,
        "1243": 17,
        "1244": 134,
        "1245": 96,
        "1246": 117,
        "1247": 8,
        "1248": 201,
        "1249": 129,
        "1250": 177,
        "1251": 196,
        "1252": 143,
        "1253": 47,
        "1254": 18,
        "1255": 29,
        "1256": 225,
        "1257": 83,
        "1258": 144,
        "1259": 125,
        "1260": 35,
        "1261": 5,
        "1262": 41,
        "1263": 40,
        "1264": 178,
        "1265": 47,
        "1266": 176,
        "1267": 108,
        "1268": 129,
        "1269": 27,
        "1270": 68,
        "1271": 244,
        "1272": 137,
        "1273": 142,
        "1274": 120,
        "1275": 4,
        "1276": 55,
        "1277": 248,
        "1278": 211,
        "1279": 249,
        "1280": 39,
        "1281": 181,
        "1282": 124,
        "1283": 35,
        "1284": 205,
        "1285": 68,
        "1286": 27,
        "1287": 125,
        "1288": 140,
        "1289": 3,
        "1290": 28,
        "1291": 151,
        "1292": 146,
        "1293": 73,
        "1294": 71,
        "1295": 128,
        "1296": 41,
        "1297": 229,
        "1298": 0,
        "1299": 91,
        "1300": 237,
        "1301": 89,
        "1302": 29,
        "1303": 64,
        "1304": 141,
        "1305": 203,
        "1306": 169,
        "1307": 67,
        "1308": 192,
        "1309": 58,
        "1310": 227,
        "1311": 99,
        "1312": 235,
        "1313": 98,
        "1314": 159,
        "1315": 65,
        "1316": 102,
        "1317": 180,
        "1318": 187,
        "1319": 204,
        "1320": 163,
        "1321": 231,
        "1322": 233,
        "1323": 81,
        "1324": 127,
        "1325": 167,
        "1326": 59,
        "1327": 176,
        "1328": 232,
        "1329": 188,
        "1330": 208,
        "1331": 120,
        "1332": 235,
        "1333": 142,
        "1334": 203,
        "1335": 164,
        "1336": 127,
        "1337": 33,
        "1338": 32,
        "1339": 109,
        "1340": 102,
        "1341": 149,
        "1342": 105,
        "1343": 58,
        "1344": 118,
        "1345": 209,
        "1346": 135,
        "1347": 115,
        "1348": 224,
        "1349": 160,
        "1350": 221,
        "1351": 248,
        "1352": 78,
        "1353": 206,
        "1354": 17,
        "1355": 34,
        "1356": 224,
        "1357": 253,
        "1358": 62,
        "1359": 11,
        "1360": 248,
        "1361": 56,
        "1362": 232,
        "1363": 97,
        "1364": 232,
        "1365": 185,
        "1366": 217,
        "1367": 123,
        "1368": 187,
        "1369": 170,
        "1370": 52,
        "1371": 143,
        "1372": 102,
        "1373": 34,
        "1374": 87,
        "1375": 14,
        "1376": 50,
        "1377": 128,
        "1378": 112,
        "1379": 78,
        "1380": 112,
        "1381": 62,
        "1382": 34,
        "1383": 13,
        "1384": 192,
        "1385": 214,
        "1386": 51,
        "1387": 237,
        "1388": 178,
        "1389": 89,
        "1390": 247,
        "1391": 243,
        "1392": 171,
        "1393": 157,
        "1394": 194,
        "1395": 8,
        "1396": 118,
        "1397": 44,
        "1398": 254,
        "1399": 174,
        "1400": 209,
        "1401": 205,
        "1402": 7,
        "1403": 37,
        "1404": 24,
        "1405": 16,
        "1406": 254,
        "1407": 186,
        "1408": 194,
        "1409": 147,
        "1410": 190,
        "1411": 23,
        "1412": 31,
        "1413": 0,
        "1414": 34,
        "1415": 103,
        "1416": 59,
        "1417": 236,
        "1418": 217,
        "1419": 223,
        "1420": 82,
        "1421": 187,
        "1422": 21,
        "1423": 189,
        "1424": 134,
        "1425": 199,
        "1426": 121,
        "1427": 144,
        "1428": 224,
        "1429": 8,
        "1430": 166,
        "1431": 70,
        "1432": 83,
        "1433": 98,
        "1434": 111,
        "1435": 88,
        "1436": 59,
        "1437": 154,
        "1438": 238,
        "1439": 115,
        "1440": 61,
        "1441": 199,
        "1442": 250,
        "1443": 36,
        "1444": 2,
        "1445": 249,
        "1446": 58,
        "1447": 66,
        "1448": 226,
        "1449": 76,
        "1450": 136,
        "1451": 192,
        "1452": 82,
        "1453": 126,
        "1454": 187,
        "1455": 1,
        "1456": 179,
        "1457": 41,
        "1458": 147,
        "1459": 17,
        "1460": 177,
        "1461": 170,
        "1462": 14,
        "1463": 224,
        "1464": 28,
        "1465": 188,
        "1466": 244,
        "1467": 190,
        "1468": 42,
        "1469": 227,
        "1470": 71,
        "1471": 17,
        "1472": 72,
        "1473": 43,
        "1474": 67,
        "1475": 14,
        "1476": 22,
        "1477": 243,
        "1478": 219,
        "1479": 14,
        "1480": 113,
        "1481": 0,
        "1482": 75,
        "1483": 114,
        "1484": 22,
        "1485": 114,
        "1486": 15,
        "1487": 143,
        "1488": 207,
        "1489": 54,
        "1490": 89,
        "1491": 165,
        "1492": 98,
        "1493": 1,
        "1494": 203,
        "1495": 1,
        "1496": 4,
        "1497": 128,
        "1498": 199,
        "1499": 49,
        "1500": 30,
        "1501": 200,
        "1502": 21,
        "1503": 8,
        "1504": 230,
        "1505": 223,
        "1506": 244,
        "1507": 48,
        "1508": 32,
        "1509": 181,
        "1510": 28,
        "1511": 19,
        "1512": 144,
        "1513": 0,
        "1514": 11,
        "1515": 219,
        "1516": 4,
        "1517": 34,
        "1518": 50,
        "1519": 191,
        "1520": 29,
        "1521": 30,
        "1522": 212,
        "1523": 155,
        "1524": 210,
        "1525": 201,
        "1526": 47,
        "1527": 218,
        "1528": 137,
        "1529": 236,
        "1530": 47,
        "1531": 78,
        "1532": 9,
        "1533": 162,
        "1534": 188,
        "1535": 77,
        "1536": 26,
        "1537": 41,
        "1538": 74,
        "1539": 159,
        "1540": 167,
        "1541": 177,
        "1542": 18,
        "1543": 70,
        "1544": 239,
        "1545": 91,
        "1546": 58,
        "1547": 34,
        "1548": 249,
        "1549": 134,
        "1550": 183,
        "1551": 179,
        "1552": 252,
        "1553": 95,
        "1554": 47,
        "1555": 239,
        "1556": 96,
        "1557": 121,
        "1558": 69,
        "1559": 132,
        "1560": 123,
        "1561": 191,
        "1562": 130,
        "1563": 113,
        "1564": 249,
        "1565": 13,
        "1566": 34,
        "1567": 3,
        "1568": 166,
        "1569": 52,
        "1570": 67,
        "1571": 68,
        "1572": 216,
        "1573": 115,
        "1574": 61,
        "1575": 253,
        "1576": 215,
        "1577": 229,
        "1578": 7,
        "1579": 225,
        "1580": 84,
        "1581": 209,
        "1582": 58,
        "1583": 14,
        "1584": 68,
        "1585": 119,
        "1586": 176,
        "1587": 208,
        "1588": 220,
        "1589": 196,
        "1590": 181,
        "1591": 106,
        "1592": 224,
        "1593": 180,
        "1594": 62,
        "1595": 5,
        "1596": 173,
        "1597": 165,
        "1598": 242,
        "1599": 62,
        "1600": 207,
        "1601": 217,
        "1602": 221,
        "1603": 209,
        "1604": 68,
        "1605": 44,
        "1606": 90,
        "1607": 198,
        "1608": 31,
        "1609": 189,
        "1610": 87,
        "1611": 15,
        "1612": 101,
        "1613": 114,
        "1614": 26,
        "1615": 14,
        "1616": 2,
        "1617": 208,
        "1618": 15,
        "1619": 241,
        "1620": 38,
        "1621": 30,
        "1622": 180,
        "1623": 20,
        "1624": 50,
        "1625": 172,
        "1626": 54,
        "1627": 167,
        "1628": 115,
        "1629": 249,
        "1630": 238,
        "1631": 83,
        "1632": 206,
        "1633": 145,
        "1634": 218,
        "1635": 137,
        "1636": 50,
        "1637": 234,
        "1638": 88,
        "1639": 17,
        "1640": 178,
        "1641": 120,
        "1642": 177,
        "1643": 126,
        "1644": 67,
        "1645": 56,
        "1646": 56,
        "1647": 243,
        "1648": 213,
        "1649": 243,
        "1650": 8,
        "1651": 91,
        "1652": 201,
        "1653": 13,
        "1654": 17,
        "1655": 253,
        "1656": 224,
        "1657": 118,
        "1658": 108,
        "1659": 156,
        "1660": 50,
        "1661": 254,
        "1662": 4,
        "1663": 38,
        "1664": 44,
        "1665": 150,
        "1666": 125,
        "1667": 143,
        "1668": 230,
        "1669": 54,
        "1670": 71,
        "1671": 236,
        "1672": 27,
        "1673": 210,
        "1674": 123,
        "1675": 108,
        "1676": 5,
        "1677": 3,
        "1678": 30,
        "1679": 16,
        "1680": 195,
        "1681": 136,
        "1682": 113,
        "1683": 249,
        "1684": 78,
        "1685": 5,
        "1686": 110,
        "1687": 41,
        "1688": 135,
        "1689": 137,
        "1690": 43,
        "1691": 130,
        "1692": 138,
        "1693": 247,
        "1694": 113,
        "1695": 178,
        "1696": 49,
        "1697": 57,
        "1698": 54,
        "1699": 42,
        "1700": 240,
        "1701": 50,
        "1702": 162,
        "1703": 1,
        "1704": 189,
        "1705": 139,
        "1706": 6,
        "1707": 194,
        "1708": 212,
        "1709": 66,
        "1710": 232,
        "1711": 32,
        "1712": 88,
        "1713": 118,
        "1714": 224,
        "1715": 17,
        "1716": 86,
        "1717": 22,
        "1718": 35,
        "1719": 218,
        "1720": 174,
        "1721": 239,
        "1722": 36,
        "1723": 164,
        "1724": 62,
        "1725": 172,
        "1726": 197,
        "1727": 178,
        "1728": 240,
        "1729": 19,
        "1730": 102,
        "1731": 133,
        "1732": 224,
        "1733": 238,
        "1734": 188,
        "1735": 135,
        "1736": 155,
        "1737": 245,
        "1738": 178,
        "1739": 61,
        "1740": 191,
        "1741": 217,
        "1742": 138,
        "1743": 116,
        "1744": 90,
        "1745": 29,
        "1746": 210,
        "1747": 62,
        "1748": 56,
        "1749": 187,
        "1750": 50,
        "1751": 94,
        "1752": 23,
        "1753": 90,
        "1754": 237,
        "1755": 65,
        "1756": 122,
        "1757": 205,
        "1758": 80,
        "1759": 136,
        "1760": 36,
        "1761": 219,
        "1762": 191,
        "1763": 126,
        "1764": 93,
        "1765": 167,
        "1766": 22,
        "1767": 104,
        "1768": 186,
        "1769": 92,
        "1770": 64,
        "1771": 82,
        "1772": 133,
        "1773": 11,
        "1774": 73,
        "1775": 30,
        "1776": 164,
        "1777": 27,
        "1778": 28,
        "1779": 26,
        "1780": 63,
        "1781": 227,
        "1782": 39,
        "1783": 35,
        "1784": 196,
        "1785": 32,
        "1786": 189,
        "1787": 140,
        "1788": 245,
        "1789": 169,
        "1790": 3,
        "1791": 208,
        "1792": 26,
        "1793": 181,
        "1794": 165,
        "1795": 32,
        "1796": 125,
        "1797": 239,
        "1798": 134,
        "1799": 250,
        "1800": 169,
        "1801": 47,
        "1802": 168,
        "1803": 168,
        "1804": 10,
        "1805": 48,
        "1806": 168,
        "1807": 183,
        "1808": 249,
        "1809": 207,
        "1810": 200,
        "1811": 116,
        "1812": 233,
        "1813": 197,
        "1814": 139,
        "1815": 4,
        "1816": 220,
        "1817": 3,
        "1818": 163,
        "1819": 154,
        "1820": 5,
        "1821": 151,
        "1822": 133,
        "1823": 209,
        "1824": 69,
        "1825": 157,
        "1826": 38,
        "1827": 232,
        "1828": 68,
        "1829": 139,
        "1830": 245,
        "1831": 74,
        "1832": 97,
        "1833": 7,
        "1834": 253,
        "1835": 226,
        "1836": 100,
        "1837": 40,
        "1838": 206,
        "1839": 78,
        "1840": 120,
        "1841": 65,
        "1842": 145,
        "1843": 244,
        "1844": 166,
        "1845": 38,
        "1846": 208,
        "1847": 250,
        "1848": 218,
        "1849": 93,
        "1850": 199,
        "1851": 139,
        "1852": 229,
        "1853": 187,
        "1854": 1,
        "1855": 247,
        "1856": 90,
        "1857": 67,
        "1858": 113,
        "1859": 69,
        "1860": 220,
        "1861": 14,
        "1862": 26,
        "1863": 7,
        "1864": 132,
        "1865": 178,
        "1866": 24,
        "1867": 125,
        "1868": 252,
        "1869": 13,
        "1870": 168,
        "1871": 223,
        "1872": 189,
        "1873": 132,
        "1874": 200,
        "1875": 252,
        "1876": 150,
        "1877": 63,
        "1878": 189,
        "1879": 147,
        "1880": 231,
        "1881": 62,
        "1882": 12,
        "1883": 220,
        "1884": 51,
        "1885": 158,
        "1886": 183,
        "1887": 250,
        "1888": 79,
        "1889": 227,
        "1890": 39,
        "1891": 188,
        "1892": 16,
        "1893": 166,
        "1894": 23,
        "1895": 27,
        "1896": 124,
        "1897": 218,
        "1898": 156,
        "1899": 227,
        "1900": 206,
        "1901": 107,
        "1902": 212,
        "1903": 139,
        "1904": 110,
        "1905": 227,
        "1906": 16,
        "1907": 172,
        "1908": 220,
        "1909": 221,
        "1910": 84,
        "1911": 40,
        "1912": 131,
        "1913": 0,
        "1914": 120,
        "1915": 29,
        "1916": 36,
        "1917": 184,
        "1918": 28,
        "1919": 151,
        "1920": 16,
        "1921": 82,
        "1922": 179,
        "1923": 227,
        "1924": 20,
        "1925": 121,
        "1926": 137,
        "1927": 104,
        "1928": 178,
        "1929": 36,
        "1930": 254,
        "1931": 13,
        "1932": 100,
        "1933": 241,
        "1934": 42,
        "1935": 52,
        "1936": 59,
        "1937": 43,
        "1938": 20,
        "1939": 73,
        "1940": 237,
        "1941": 26,
        "1942": 125,
        "1943": 169,
        "1944": 171,
        "1945": 190,
        "1946": 56,
        "1947": 85,
        "1948": 252,
        "1949": 163,
        "1950": 3,
        "1951": 125,
        "1952": 72,
        "1953": 87,
        "1954": 11,
        "1955": 133,
        "1956": 12,
        "1957": 3,
        "1958": 186,
        "1959": 194,
        "1960": 133,
        "1961": 83,
        "1962": 82,
        "1963": 118,
        "1964": 100,
        "1965": 163,
        "1966": 126,
        "1967": 219,
        "1968": 89,
        "1969": 233,
        "1970": 175,
        "1971": 73,
        "1972": 150,
        "1973": 8,
        "1974": 250,
        "1975": 62,
        "1976": 74,
        "1977": 12,
        "1978": 29,
        "1979": 107,
        "1980": 201,
        "1981": 3,
        "1982": 178,
        "1983": 97,
        "1984": 36,
        "1985": 95,
        "1986": 242,
        "1987": 84,
        "1988": 141,
        "1989": 241,
        "1990": 95,
        "1991": 118,
        "1992": 180,
        "1993": 19,
        "1994": 0,
        "1995": 94,
        "1996": 221,
        "1997": 107,
        "1998": 138,
        "1999": 104,
        "2000": 64,
        "2001": 100,
        "2002": 223,
        "2003": 68,
        "2004": 246,
        "2005": 25,
        "2006": 248,
        "2007": 195,
        "2008": 94,
        "2009": 139,
        "2010": 16,
        "2011": 172,
        "2012": 223,
        "2013": 146,
        "2014": 2,
        "2015": 255,
        "2016": 215,
        "2017": 215,
        "2018": 7,
        "2019": 87,
        "2020": 190,
        "2021": 203,
        "2022": 127,
        "2023": 87,
        "2024": 181,
        "2025": 231,
        "2026": 33,
        "2027": 48,
        "2028": 174,
        "2029": 194,
        "2030": 249,
        "2031": 24,
        "2032": 137,
        "2033": 93,
        "2034": 215,
        "2035": 89,
        "2036": 84,
        "2037": 245,
        "2038": 127,
        "2039": 79,
        "2040": 243,
        "2041": 88,
        "2042": 103,
        "2043": 65,
        "2044": 96,
        "2045": 192,
        "2046": 125,
        "2047": 7,
        "2048": 85,
        "2049": 61,
        "2050": 187,
        "2051": 105,
        "2052": 132,
        "2053": 204,
        "2054": 83,
        "2055": 136,
        "2056": 91,
        "2057": 57,
        "2058": 160,
        "2059": 168,
        "2060": 25,
        "2061": 133,
        "2062": 187,
        "2063": 228,
        "2064": 60,
        "2065": 121,
        "2066": 176,
        "2067": 41,
        "2068": 14,
        "2069": 0,
        "2070": 248,
        "2071": 118,
        "2072": 74,
        "2073": 5,
        "2074": 72,
        "2075": 91,
        "2076": 40,
        "2077": 19,
        "2078": 115,
        "2079": 16,
        "2080": 68,
        "2081": 70,
        "2082": 186,
        "2083": 166,
        "2084": 173,
        "2085": 29,
        "2086": 43,
        "2087": 97,
        "2088": 121,
        "2089": 112,
        "2090": 69,
        "2091": 112,
        "2092": 133,
        "2093": 159,
        "2094": 28,
        "2095": 254,
        "2096": 57,
        "2097": 182,
        "2098": 156,
        "2099": 208,
        "2100": 181,
        "2101": 176,
        "2102": 178,
        "2103": 245,
        "2104": 130,
        "2105": 250,
        "2106": 190,
        "2107": 228,
        "2108": 14,
        "2109": 35,
        "2110": 102,
        "2111": 134,
        "2112": 110,
        "2113": 120,
        "2114": 22,
        "2115": 50,
        "2116": 232,
        "2117": 33,
        "2118": 249,
        "2119": 13,
        "2120": 63,
        "2121": 129,
        "2122": 131,
        "2123": 172,
        "2124": 164,
        "2125": 150,
        "2126": 211,
        "2127": 30,
        "2128": 116,
        "2129": 75,
        "2130": 234,
        "2131": 185,
        "2132": 173,
        "2133": 87,
        "2134": 106,
        "2135": 216,
        "2136": 104,
        "2137": 199,
        "2138": 205,
        "2139": 236,
        "2140": 105,
        "2141": 227,
        "2142": 226,
        "2143": 28,
        "2144": 133,
        "2145": 145,
        "2146": 223,
        "2147": 76,
        "2148": 187,
        "2149": 134,
        "2150": 137,
        "2151": 158,
        "2152": 47,
        "2153": 6,
        "2154": 66,
        "2155": 86,
        "2156": 193,
        "2157": 84,
        "2158": 242,
        "2159": 242,
        "2160": 240,
        "2161": 151,
        "2162": 223,
        "2163": 159,
        "2164": 224,
        "2165": 119,
        "2166": 128,
        "2167": 228,
        "2168": 138,
        "2169": 36,
        "2170": 101,
        "2171": 173,
        "2172": 139,
        "2173": 229,
        "2174": 38,
        "2175": 80,
        "2176": 105,
        "2177": 249,
        "2178": 104,
        "2179": 115,
        "2180": 20,
        "2181": 25,
        "2182": 191,
        "2183": 175,
        "2184": 148,
        "2185": 30,
        "2186": 202,
        "2187": 123,
        "2188": 69,
        "2189": 47,
        "2190": 88,
        "2191": 25,
        "2192": 160,
        "2193": 139,
        "2194": 140,
        "2195": 114,
        "2196": 25,
        "2197": 93,
        "2198": 188,
        "2199": 98,
        "2200": 245,
        "2201": 151,
        "2202": 218,
        "2203": 233,
        "2204": 214,
        "2205": 97,
        "2206": 221,
        "2207": 252,
        "2208": 64,
        "2209": 247,
        "2210": 159,
        "2211": 252,
        "2212": 85,
        "2213": 88,
        "2214": 95,
        "2215": 67,
        "2216": 173,
        "2217": 171,
        "2218": 123,
        "2219": 142,
        "2220": 18,
        "2221": 150,
        "2222": 197,
        "2223": 3,
        "2224": 39,
        "2225": 69,
        "2226": 232,
        "2227": 253,
        "2228": 109,
        "2229": 62,
        "2230": 105,
        "2231": 88,
        "2232": 149,
        "2233": 231,
        "2234": 135,
        "2235": 188,
        "2236": 249,
        "2237": 224,
        "2238": 168,
        "2239": 212,
        "2240": 49,
        "2241": 51,
        "2242": 233,
        "2243": 34,
        "2244": 173,
        "2245": 212,
        "2246": 9,
        "2247": 246,
        "2248": 36,
        "2249": 124,
        "2250": 10,
        "2251": 116,
        "2252": 71,
        "2253": 103,
        "2254": 152,
        "2255": 49,
        "2256": 188,
        "2257": 210,
        "2258": 104,
        "2259": 129,
        "2260": 188,
        "2261": 33,
        "2262": 52,
        "2263": 215,
        "2264": 218,
        "2265": 148,
        "2266": 189,
        "2267": 13,
        "2268": 190,
        "2269": 178,
        "2270": 222,
        "2271": 10,
        "2272": 53,
        "2273": 137,
        "2274": 209,
        "2275": 32,
        "2276": 245,
        "2277": 38,
        "2278": 192,
        "2279": 126,
        "2280": 169,
        "2281": 220,
        "2282": 25,
        "2283": 75,
        "2284": 163,
        "2285": 169,
        "2286": 109,
        "2287": 128,
        "2288": 34,
        "2289": 231,
        "2290": 138,
        "2291": 218,
        "2292": 170,
        "2293": 55,
        "2294": 108,
        "2295": 165,
        "2296": 166,
        "2297": 108,
        "2298": 195,
        "2299": 237,
        "2300": 126,
        "2301": 38,
        "2302": 52,
        "2303": 222,
        "2304": 139,
        "2305": 104,
        "2306": 87,
        "2307": 38,
        "2308": 183,
        "2309": 180,
        "2310": 11,
        "2311": 162,
        "2312": 7,
        "2313": 63,
        "2314": 126,
        "2315": 93,
        "2316": 229,
        "2317": 39,
        "2318": 96,
        "2319": 233,
        "2320": 16,
        "2321": 246,
        "2322": 241,
        "2323": 141,
        "2324": 218,
        "2325": 42,
        "2326": 163,
        "2327": 216,
        "2328": 127,
        "2329": 235,
        "2330": 212,
        "2331": 26,
        "2332": 254,
        "2333": 133,
        "2334": 17,
        "2335": 181,
        "2336": 254,
        "2337": 232,
        "2338": 213,
        "2339": 18,
        "2340": 41,
        "2341": 77,
        "2342": 56,
        "2343": 106,
        "2344": 150,
        "2345": 59,
        "2346": 210,
        "2347": 248,
        "2348": 53,
        "2349": 133,
        "2350": 106,
        "2351": 244,
        "2352": 92,
        "2353": 80,
        "2354": 1,
        "2355": 138,
        "2356": 82,
        "2357": 119,
        "2358": 114,
        "2359": 65,
        "2360": 89,
        "2361": 184,
        "2362": 220,
        "2363": 48,
        "2364": 160,
        "2365": 226,
        "2366": 0,
        "2367": 89,
        "2368": 38,
        "2369": 129,
        "2370": 126,
        "2371": 222,
        "2372": 171,
        "2373": 134,
        "2374": 178,
        "2375": 125,
        "2376": 11,
        "2377": 30,
        "2378": 158,
        "2379": 213,
        "2380": 251,
        "2381": 46,
        "2382": 112,
        "2383": 184,
        "2384": 173,
        "2385": 111,
        "2386": 98,
        "2387": 188,
        "2388": 84,
        "2389": 126,
        "2390": 231,
        "2391": 247,
        "2392": 162,
        "2393": 158,
        "2394": 16,
        "2395": 154,
        "2396": 151,
        "2397": 89,
        "2398": 62,
        "2399": 212,
        "2400": 5,
        "2401": 79,
        "2402": 39,
        "2403": 135,
        "2404": 175,
        "2405": 33,
        "2406": 39,
        "2407": 255,
        "2408": 154,
        "2409": 189,
        "2410": 114,
        "2411": 189,
        "2412": 123,
        "2413": 242,
        "2414": 212,
        "2415": 245,
        "2416": 185,
        "2417": 129,
        "2418": 30,
        "2419": 126,
        "2420": 211,
        "2421": 141,
        "2422": 95,
        "2423": 175,
        "2424": 178,
        "2425": 156,
        "2426": 120,
        "2427": 7,
        "2428": 161,
        "2429": 175,
        "2430": 14,
        "2431": 16,
        "2432": 233,
        "2433": 237,
        "2434": 18,
        "2435": 35,
        "2436": 116,
        "2437": 63,
        "2438": 136,
        "2439": 199,
        "2440": 46,
        "2441": 115,
        "2442": 71,
        "2443": 181,
        "2444": 91,
        "2445": 115,
        "2446": 18,
        "2447": 9,
        "2448": 134,
        "2449": 85,
        "2450": 185,
        "2451": 239,
        "2452": 55,
        "2453": 55,
        "2454": 217,
        "2455": 224,
        "2456": 139,
        "2457": 90,
        "2458": 120,
        "2459": 134,
        "2460": 206,
        "2461": 149,
        "2462": 19,
        "2463": 186,
        "2464": 118,
        "2465": 193,
        "2466": 176,
        "2467": 151,
        "2468": 20,
        "2469": 23,
        "2470": 87,
        "2471": 248,
        "2472": 188,
        "2473": 191,
        "2474": 98,
        "2475": 127,
        "2476": 96,
        "2477": 93,
        "2478": 226,
        "2479": 231,
        "2480": 89,
        "2481": 59,
        "2482": 143,
        "2483": 195,
        "2484": 48,
        "2485": 245,
        "2486": 221,
        "2487": 3,
        "2488": 29,
        "2489": 109,
        "2490": 8,
        "2491": 193,
        "2492": 159,
        "2493": 126,
        "2494": 174,
        "2495": 11,
        "2496": 48,
        "2497": 43,
        "2498": 27,
        "2499": 139,
        "2500": 247,
        "2501": 181,
        "2502": 38,
        "2503": 1,
        "2504": 99,
        "2505": 208,
        "2506": 13,
        "2507": 63,
        "2508": 154,
        "2509": 143,
        "2510": 242,
        "2511": 196,
        "2512": 217,
        "2513": 41,
        "2514": 218,
        "2515": 217,
        "2516": 40,
        "2517": 208,
        "2518": 143,
        "2519": 133,
        "2520": 200,
        "2521": 204,
        "2522": 4,
        "2523": 24,
        "2524": 95,
        "2525": 160,
        "2526": 72,
        "2527": 104,
        "2528": 91,
        "2529": 159,
        "2530": 38,
        "2531": 85,
        "2532": 195,
        "2533": 74,
        "2534": 122,
        "2535": 122,
        "2536": 221,
        "2537": 70,
        "2538": 144,
        "2539": 87,
        "2540": 225,
        "2541": 77,
        "2542": 65,
        "2543": 224,
        "2544": 49,
        "2545": 51,
        "2546": 142,
        "2547": 0,
        "2548": 199,
        "2549": 130,
        "2550": 15,
        "2551": 227,
        "2552": 92,
        "2553": 255,
        "2554": 62,
        "2555": 239,
        "2556": 79,
        "2557": 141,
        "2558": 234,
        "2559": 115,
        "2560": 194,
        "2561": 226,
        "2562": 49,
        "2563": 33,
        "2564": 118,
        "2565": 57,
        "2566": 226,
        "2567": 127,
        "2568": 168,
        "2569": 151,
        "2570": 252,
        "2571": 247,
        "2572": 196,
        "2573": 198,
        "2574": 131,
        "2575": 194,
        "2576": 236,
        "2577": 207,
        "2578": 84,
        "2579": 87,
        "2580": 112,
        "2581": 167,
        "2582": 101,
        "2583": 166,
        "2584": 135,
        "2585": 157,
        "2586": 238,
        "2587": 6,
        "2588": 48,
        "2589": 73,
        "2590": 119,
        "2591": 80,
        "2592": 70,
        "2593": 102,
        "2594": 32,
        "2595": 14,
        "2596": 222,
        "2597": 214,
        "2598": 255,
        "2599": 161,
        "2600": 176,
        "2601": 110,
        "2602": 174,
        "2603": 153,
        "2604": 250,
        "2605": 245,
        "2606": 57,
        "2607": 139,
        "2608": 187,
        "2609": 247,
        "2610": 9,
        "2611": 204,
        "2612": 242,
        "2613": 76,
        "2614": 243,
        "2615": 26,
        "2616": 203,
        "2617": 6,
        "2618": 120,
        "2619": 250,
        "2620": 224,
        "2621": 8,
        "2622": 81,
        "2623": 40,
        "2624": 199,
        "2625": 74,
        "2626": 14,
        "2627": 157,
        "2628": 135,
        "2629": 106,
        "2630": 194,
        "2631": 159,
        "2632": 4,
        "2633": 58,
        "2634": 9,
        "2635": 131,
        "2636": 226,
        "2637": 28,
        "2638": 170,
        "2639": 152,
        "2640": 1,
        "2641": 51,
        "2642": 11,
        "2643": 98,
        "2644": 134,
        "2645": 168,
        "2646": 7,
        "2647": 199,
        "2648": 62,
        "2649": 101,
        "2650": 222,
        "2651": 88,
        "2652": 244,
        "2653": 83,
        "2654": 231,
        "2655": 62,
        "2656": 90,
        "2657": 213,
        "2658": 48,
        "2659": 248,
        "2660": 237,
        "2661": 104,
        "2662": 122,
        "2663": 205,
        "2664": 248,
        "2665": 191,
        "2666": 2,
        "2667": 166,
        "2668": 254,
        "2669": 144,
        "2670": 155,
        "2671": 175,
        "2672": 138,
        "2673": 69,
        "2674": 122,
        "2675": 117,
        "2676": 43,
        "2677": 56,
        "2678": 142,
        "2679": 203,
        "2680": 202,
        "2681": 193,
        "2682": 31,
        "2683": 75,
        "2684": 65,
        "2685": 59,
        "2686": 113,
        "2687": 221,
        "2688": 212,
        "2689": 112,
        "2690": 40,
        "2691": 153,
        "2692": 41,
        "2693": 20,
        "2694": 30,
        "2695": 33,
        "2696": 17,
        "2697": 1,
        "2698": 215,
        "2699": 198,
        "2700": 26,
        "2701": 150,
        "2702": 59,
        "2703": 211,
        "2704": 173,
        "2705": 9,
        "2706": 91,
        "2707": 86,
        "2708": 117,
        "2709": 15,
        "2710": 255,
        "2711": 247,
        "2712": 150,
        "2713": 212,
        "2714": 210,
        "2715": 183,
        "2716": 43,
        "2717": 43,
        "2718": 8,
        "2719": 126,
        "2720": 143,
        "2721": 205,
        "2722": 7,
        "2723": 42,
        "2724": 55,
        "2725": 166,
        "2726": 70,
        "2727": 185,
        "2728": 48,
        "2729": 95,
        "2730": 104,
        "2731": 214,
        "2732": 229,
        "2733": 222,
        "2734": 230,
        "2735": 78,
        "2736": 52,
        "2737": 108,
        "2738": 84,
        "2739": 87,
        "2740": 103,
        "2741": 4,
        "2742": 162,
        "2743": 153,
        "2744": 64,
        "2745": 138,
        "2746": 196,
        "2747": 73,
        "2748": 32,
        "2749": 38,
        "2750": 168,
        "2751": 143,
        "2752": 201,
        "2753": 131,
        "2754": 113,
        "2755": 213,
        "2756": 107,
        "2757": 17,
        "2758": 104,
        "2759": 44,
        "2760": 102,
        "2761": 209,
        "2762": 47,
        "2763": 181,
        "2764": 168,
        "2765": 200,
        "2766": 62,
        "2767": 221,
        "2768": 203,
        "2769": 245,
        "2770": 202,
        "2771": 206,
        "2772": 157,
        "2773": 57,
        "2774": 248,
        "2775": 6,
        "2776": 174,
        "2777": 68,
        "2778": 95,
        "2779": 213,
        "2780": 180,
        "2781": 121,
        "2782": 57,
        "2783": 225,
        "2784": 251,
        "2785": 188,
        "2786": 111,
        "2787": 64,
        "2788": 76,
        "2789": 189,
        "2790": 135,
        "2791": 191,
        "2792": 222,
        "2793": 165,
        "2794": 167,
        "2795": 240,
        "2796": 56,
        "2797": 66,
        "2798": 165,
        "2799": 243,
        "2800": 79,
        "2801": 188,
        "2802": 164,
        "2803": 219,
        "2804": 42,
        "2805": 198,
        "2806": 224,
        "2807": 17,
        "2808": 229,
        "2809": 2,
        "2810": 114,
        "2811": 160,
        "2812": 224,
        "2813": 204,
        "2814": 98,
        "2815": 25,
        "2816": 11,
        "2817": 36,
        "2818": 28,
        "2819": 10,
        "2820": 103,
        "2821": 31,
        "2822": 179,
        "2823": 191,
        "2824": 250,
        "2825": 112,
        "2826": 152,
        "2827": 52,
        "2828": 161,
        "2829": 141,
        "2830": 188,
        "2831": 86,
        "2832": 140,
        "2833": 47,
        "2834": 131,
        "2835": 7,
        "2836": 35,
        "2837": 3,
        "2838": 71,
        "2839": 92,
        "2840": 49,
        "2841": 184,
        "2842": 106,
        "2843": 32,
        "2844": 197,
        "2845": 173,
        "2846": 45,
        "2847": 255,
        "2848": 19,
        "2849": 252,
        "2850": 63,
        "2851": 79,
        "2852": 69,
        "2853": 48,
        "2854": 49,
        "2855": 218,
        "2856": 227,
        "2857": 232,
        "2858": 110,
        "2859": 40,
        "2860": 43,
        "2861": 172,
        "2862": 112,
        "2863": 77,
        "2864": 141,
        "2865": 201,
        "2866": 192,
        "2867": 240,
        "2868": 201,
        "2869": 197,
        "2870": 148,
        "2871": 143,
        "2872": 208,
        "2873": 46,
        "2874": 216,
        "2875": 38,
        "2876": 80,
        "2877": 172,
        "2878": 227,
        "2879": 18,
        "2880": 74,
        "2881": 61,
        "2882": 244,
        "2883": 252,
        "2884": 244,
        "2885": 201,
        "2886": 38,
        "2887": 156,
        "2888": 49,
        "2889": 234,
        "2890": 19,
        "2891": 22,
        "2892": 70,
        "2893": 19,
        "2894": 7,
        "2895": 90,
        "2896": 192,
        "2897": 67,
        "2898": 17,
        "2899": 37,
        "2900": 205,
        "2901": 131,
        "2902": 176,
        "2903": 212,
        "2904": 244,
        "2905": 247,
        "2906": 44,
        "2907": 225,
        "2908": 0,
        "2909": 203,
        "2910": 35,
        "2911": 214,
        "2912": 69,
        "2913": 24,
        "2914": 39,
        "2915": 231,
        "2916": 86,
        "2917": 225,
        "2918": 6,
        "2919": 118,
        "2920": 80,
        "2921": 39,
        "2922": 239,
        "2923": 90,
        "2924": 206,
        "2925": 113,
        "2926": 25,
        "2927": 7,
        "2928": 180,
        "2929": 69,
        "2930": 154,
        "2931": 145,
        "2932": 21,
        "2933": 6,
        "2934": 133,
        "2935": 112,
        "2936": 176,
        "2937": 50,
        "2938": 232,
        "2939": 223,
        "2940": 92,
        "2941": 103,
        "2942": 187,
        "2943": 196,
        "2944": 146,
        "2945": 133,
        "2946": 26,
        "2947": 217,
        "2948": 162,
        "2949": 63,
        "2950": 65,
        "2951": 40,
        "2952": 49,
        "2953": 129,
        "2954": 132,
        "2955": 225,
        "2956": 230,
        "2957": 226,
        "2958": 125,
        "2959": 77,
        "2960": 140,
        "2961": 36,
        "2962": 70,
        "2963": 156,
        "2964": 27,
        "2965": 27,
        "2966": 109,
        "2967": 92,
        "2968": 69,
        "2969": 91,
        "2970": 119,
        "2971": 238,
        "2972": 24,
        "2973": 34,
        "2974": 162,
        "2975": 47,
        "2976": 134,
        "2977": 239,
        "2978": 98,
        "2979": 69,
        "2980": 4,
        "2981": 90,
        "2982": 192,
        "2983": 169,
        "2984": 105,
        "2985": 105,
        "2986": 179,
        "2987": 174,
        "2988": 247,
        "2989": 74,
        "2990": 212,
        "2991": 157,
        "2992": 170,
        "2993": 91,
        "2994": 117,
        "2995": 77,
        "2996": 3,
        "2997": 94,
        "2998": 141,
        "2999": 79,
        "3000": 154,
        "3001": 95,
        "3002": 198,
        "3003": 242,
        "3004": 143,
        "3005": 219,
        "3006": 60,
        "3007": 93,
        "3008": 87,
        "3009": 181,
        "3010": 150,
        "3011": 40,
        "3012": 71,
        "3013": 188,
        "3014": 159,
        "3015": 31,
        "3016": 227,
        "3017": 96,
        "3018": 82,
        "3019": 81,
        "3020": 206,
        "3021": 92,
        "3022": 105,
        "3023": 46,
        "3024": 150,
        "3025": 23,
        "3026": 222,
        "3027": 171,
        "3028": 41,
        "3029": 4,
        "3030": 198,
        "3031": 125,
        "3032": 232,
        "3033": 174,
        "3034": 16,
        "3035": 55,
        "3036": 254,
        "3037": 58,
        "3038": 226,
        "3039": 28,
        "3040": 2,
        "3041": 220,
        "3042": 228,
        "3043": 179,
        "3044": 110,
        "3045": 77,
        "3046": 25,
        "3047": 88,
        "3048": 214,
        "3049": 146,
        "3050": 119,
        "3051": 122,
        "3052": 48,
        "3053": 79,
        "3054": 254,
        "3055": 247,
        "3056": 154,
        "3057": 161,
        "3058": 159,
        "3059": 193,
        "3060": 74,
        "3061": 64,
        "3062": 151,
        "3063": 187,
        "3064": 123,
        "3065": 205,
        "3066": 1,
        "3067": 141,
        "3068": 22,
        "3069": 108,
        "3070": 195,
        "3071": 118,
        "3072": 5,
        "3073": 233,
        "3074": 203,
        "3075": 61,
        "3076": 62,
        "3077": 192,
        "3078": 67,
        "3079": 20,
        "3080": 48,
        "3081": 72,
        "3082": 28,
        "3083": 16,
        "3084": 151,
        "3085": 184,
        "3086": 105,
        "3087": 169,
        "3088": 122,
        "3089": 56,
        "3090": 24,
        "3091": 17,
        "3092": 251,
        "3093": 125,
        "3094": 244,
        "3095": 19,
        "3096": 73,
        "3097": 71,
        "3098": 9,
        "3099": 17,
        "3100": 112,
        "3101": 219,
        "3102": 44,
        "3103": 177,
        "3104": 185,
        "3105": 73,
        "3106": 132,
        "3107": 48,
        "3108": 217,
        "3109": 47,
        "3110": 196,
        "3111": 78,
        "3112": 145,
        "3113": 3,
        "3114": 106,
        "3115": 21,
        "3116": 121,
        "3117": 117,
        "3118": 144,
        "3119": 206,
        "3120": 21,
        "3121": 64,
        "3122": 206,
        "3123": 187,
        "3124": 213,
        "3125": 45,
        "3126": 71,
        "3127": 116,
        "3128": 144,
        "3129": 173,
        "3130": 113,
        "3131": 253,
        "3132": 16,
        "3133": 81,
        "3134": 121,
        "3135": 246,
        "3136": 171,
        "3137": 202,
        "3138": 53,
        "3139": 120,
        "3140": 181,
        "3141": 35,
        "3142": 160,
        "3143": 33,
        "3144": 35,
        "3145": 87,
        "3146": 228,
        "3147": 3,
        "3148": 242,
        "3149": 254,
        "3150": 171,
        "3151": 197,
        "3152": 210,
        "3153": 89,
        "3154": 22,
        "3155": 234,
        "3156": 187,
        "3157": 195,
        "3158": 196,
        "3159": 136,
        "3160": 110,
        "3161": 33,
        "3162": 235,
        "3163": 4,
        "3164": 149,
        "3165": 122,
        "3166": 6,
        "3167": 194,
        "3168": 48,
        "3169": 243,
        "3170": 142,
        "3171": 148,
        "3172": 57,
        "3173": 179,
        "3174": 155,
        "3175": 117,
        "3176": 81,
        "3177": 90,
        "3178": 151,
        "3179": 160,
        "3180": 121,
        "3181": 201,
        "3182": 233,
        "3183": 32,
        "3184": 14,
        "3185": 119,
        "3186": 149,
        "3187": 21,
        "3188": 55,
        "3189": 173,
        "3190": 105,
        "3191": 207,
        "3192": 68,
        "3193": 63,
        "3194": 11,
        "3195": 103,
        "3196": 106,
        "3197": 45,
        "3198": 66,
        "3199": 241,
        "3200": 206,
        "3201": 169,
        "3202": 66,
        "3203": 210,
        "3204": 190,
        "3205": 227,
        "3206": 142,
        "3207": 48,
        "3208": 53,
        "3209": 190,
        "3210": 74,
        "3211": 74,
        "3212": 93,
        "3213": 145,
        "3214": 181,
        "3215": 75,
        "3216": 179,
        "3217": 199,
        "3218": 184,
        "3219": 143,
        "3220": 235,
        "3221": 235,
        "3222": 227,
        "3223": 0,
        "3224": 110,
        "3225": 222,
        "3226": 3,
        "3227": 86,
        "3228": 146,
        "3229": 104,
        "3230": 245,
        "3231": 14,
        "3232": 72,
        "3233": 237,
        "3234": 205,
        "3235": 223,
        "3236": 244,
        "3237": 254,
        "3238": 87,
        "3239": 167,
        "3240": 86,
        "3241": 141,
        "3242": 23,
        "3243": 151,
        "3244": 227,
        "3245": 182,
        "3246": 2,
        "3247": 156,
        "3248": 98,
        "3249": 142,
        "3250": 186,
        "3251": 167,
        "3252": 93,
        "3253": 33,
        "3254": 191,
        "3255": 54,
        "3256": 129,
        "3257": 227,
        "3258": 105,
        "3259": 176,
        "3260": 234,
        "3261": 77,
        "3262": 201,
        "3263": 124,
        "3264": 8,
        "3265": 246,
        "3266": 255,
        "3267": 157,
        "3268": 181,
        "3269": 64,
        "3270": 200,
        "3271": 25,
        "3272": 175,
        "3273": 42,
        "3274": 85,
        "3275": 126,
        "3276": 55,
        "3277": 80,
        "3278": 20,
        "3279": 158,
        "3280": 143,
        "3281": 126,
        "3282": 147,
        "3283": 86,
        "3284": 24,
        "3285": 104,
        "3286": 141,
        "3287": 63,
        "3288": 53,
        "3289": 3,
        "3290": 68,
        "3291": 165,
        "3292": 93,
        "3293": 29,
        "3294": 118,
        "3295": 153,
        "3296": 106,
        "3297": 252,
        "3298": 38,
        "3299": 139,
        "3300": 196,
        "3301": 39,
        "3302": 219,
        "3303": 26,
        "3304": 2,
        "3305": 68,
        "3306": 129,
        "3307": 20,
        "3308": 224,
        "3309": 222,
        "3310": 204,
        "3311": 19,
        "3312": 243,
        "3313": 121,
        "3314": 130,
        "3315": 236,
        "3316": 37,
        "3317": 20,
        "3318": 219,
        "3319": 66,
        "3320": 98,
        "3321": 16,
        "3322": 242,
        "3323": 92,
        "3324": 48,
        "3325": 122,
        "3326": 72,
        "3327": 43,
        "3328": 70,
        "3329": 51,
        "3330": 115,
        "3331": 182,
        "3332": 39,
        "3333": 95,
        "3334": 130,
        "3335": 109,
        "3336": 102,
        "3337": 160,
        "3338": 20,
        "3339": 85,
        "3340": 236,
        "3341": 125,
        "3342": 50,
        "3343": 96,
        "3344": 79,
        "3345": 1,
        "3346": 149,
        "3347": 139,
        "3348": 155,
        "3349": 165,
        "3350": 16,
        "3351": 204,
        "3352": 136,
        "3353": 29,
        "3354": 96,
        "3355": 8,
        "3356": 30,
        "3357": 49,
        "3358": 143,
        "3359": 0,
        "3360": 168,
        "3361": 174,
        "3362": 38,
        "3363": 178,
        "3364": 142,
        "3365": 62,
        "3366": 49,
        "3367": 247,
        "3368": 140,
        "3369": 210,
        "3370": 232,
        "3371": 227,
        "3372": 185,
        "3373": 48,
        "3374": 167,
        "3375": 156,
        "3376": 46,
        "3377": 190,
        "3378": 58,
        "3379": 108,
        "3380": 47,
        "3381": 61,
        "3382": 79,
        "3383": 153,
        "3384": 71,
        "3385": 186,
        "3386": 206,
        "3387": 117,
        "3388": 218,
        "3389": 17,
        "3390": 239,
        "3391": 153,
        "3392": 116,
        "3393": 76,
        "3394": 98,
        "3395": 127,
        "3396": 193,
        "3397": 16,
        "3398": 146,
        "3399": 64,
        "3400": 17,
        "3401": 253,
        "3402": 240,
        "3403": 21,
        "3404": 97,
        "3405": 113,
        "3406": 202,
        "3407": 183,
        "3408": 57,
        "3409": 5,
        "3410": 63,
        "3411": 149,
        "3412": 90,
        "3413": 247,
        "3414": 179,
        "3415": 238,
        "3416": 103,
        "3417": 138,
        "3418": 133,
        "3419": 133,
        "3420": 191,
        "3421": 121,
        "3422": 147,
        "3423": 119,
        "3424": 81,
        "3425": 5,
        "3426": 233,
        "3427": 146,
        "3428": 66,
        "3429": 101,
        "3430": 21,
        "3431": 164,
        "3432": 34,
        "3433": 32,
        "3434": 18,
        "3435": 106,
        "3436": 255,
        "3437": 245,
        "3438": 92,
        "3439": 216,
        "3440": 44,
        "3441": 212,
        "3442": 82,
        "3443": 217,
        "3444": 164,
        "3445": 159,
        "3446": 40,
        "3447": 11,
        "3448": 49,
        "3449": 178,
        "3450": 140,
        "3451": 40,
        "3452": 70,
        "3453": 210,
        "3454": 150,
        "3455": 27,
        "3456": 83,
        "3457": 170,
        "3458": 213,
        "3459": 94,
        "3460": 49,
        "3461": 228,
        "3462": 29,
        "3463": 87,
        "3464": 96,
        "3465": 123,
        "3466": 178,
        "3467": 186,
        "3468": 148,
        "3469": 220,
        "3470": 51,
        "3471": 158,
        "3472": 5,
        "3473": 188,
        "3474": 132,
        "3475": 236,
        "3476": 215,
        "3477": 155,
        "3478": 22,
        "3479": 89,
        "3480": 69,
        "3481": 168,
        "3482": 232,
        "3483": 45,
        "3484": 50,
        "3485": 165,
        "3486": 157,
        "3487": 4,
        "3488": 241,
        "3489": 54,
        "3490": 68,
        "3491": 213,
        "3492": 82,
        "3493": 100,
        "3494": 61,
        "3495": 6,
        "3496": 105,
        "3497": 246,
        "3498": 191,
        "3499": 25,
        "3500": 139,
        "3501": 146,
        "3502": 88,
        "3503": 239,
        "3504": 62,
        "3505": 194,
        "3506": 158,
        "3507": 197,
        "3508": 106,
        "3509": 160,
        "3510": 83,
        "3511": 104,
        "3512": 166,
        "3513": 238,
        "3514": 135,
        "3515": 52,
        "3516": 137,
        "3517": 87,
        "3518": 68,
        "3519": 72,
        "3520": 253,
        "3521": 235,
        "3522": 188,
        "3523": 148,
        "3524": 126,
        "3525": 13,
        "3526": 209,
        "3527": 64,
        "3528": 251,
        "3529": 106,
        "3530": 16,
        "3531": 92,
        "3532": 170,
        "3533": 133,
        "3534": 26,
        "3535": 46,
        "3536": 90,
        "3537": 219,
        "3538": 83,
        "3539": 251,
        "3540": 63,
        "3541": 31,
        "3542": 187,
        "3543": 127,
        "3544": 193,
        "3545": 25,
        "3546": 156,
        "3547": 170,
        "3548": 181,
        "3549": 246,
        "3550": 173,
        "3551": 247,
        "3552": 24,
        "3553": 67,
        "3554": 16,
        "3555": 193,
        "3556": 66,
        "3557": 157,
        "3558": 29,
        "3559": 203,
        "3560": 92,
        "3561": 51,
        "3562": 218,
        "3563": 37,
        "3564": 251,
        "3565": 137,
        "3566": 5,
        "3567": 196,
        "3568": 243,
        "3569": 100,
        "3570": 4,
        "3571": 167,
        "3572": 203,
        "3573": 208,
        "3574": 117,
        "3575": 242,
        "3576": 20,
        "3577": 225,
        "3578": 39,
        "3579": 155,
        "3580": 223,
        "3581": 163,
        "3582": 93,
        "3583": 66,
        "3584": 237,
        "3585": 99,
        "3586": 153,
        "3587": 244,
        "3588": 187,
        "3589": 182,
        "3590": 18,
        "3591": 211,
        "3592": 179,
        "3593": 101,
        "3594": 93,
        "3595": 176,
        "3596": 125,
        "3597": 224,
        "3598": 200,
        "3599": 211,
        "3600": 182,
        "3601": 196,
        "3602": 159,
        "3603": 115,
        "3604": 177,
        "3605": 99,
        "3606": 31,
        "3607": 27,
        "3608": 131,
        "3609": 57,
        "3610": 197,
        "3611": 231,
        "3612": 251,
        "3613": 49,
        "3614": 29,
        "3615": 144,
        "3616": 209,
        "3617": 163,
        "3618": 92,
        "3619": 36,
        "3620": 146,
        "3621": 155,
        "3622": 74,
        "3623": 88,
        "3624": 183,
        "3625": 133,
        "3626": 162,
        "3627": 255,
        "3628": 29,
        "3629": 90,
        "3630": 108,
        "3631": 34,
        "3632": 238,
        "3633": 92,
        "3634": 154,
        "3635": 130,
        "3636": 197,
        "3637": 115,
        "3638": 205,
        "3639": 26,
        "3640": 18,
        "3641": 112,
        "3642": 17,
        "3643": 100,
        "3644": 1,
        "3645": 72,
        "3646": 155,
        "3647": 70,
        "3648": 63,
        "3649": 139,
        "3650": 60,
        "3651": 138,
        "3652": 216,
        "3653": 91,
        "3654": 70,
        "3655": 33,
        "3656": 27,
        "3657": 2,
        "3658": 168,
        "3659": 160,
        "3660": 26,
        "3661": 124,
        "3662": 200,
        "3663": 11,
        "3664": 141,
        "3665": 244,
        "3666": 3,
        "3667": 2,
        "3668": 156,
        "3669": 227,
        "3670": 205,
        "3671": 87,
        "3672": 89,
        "3673": 165,
        "3674": 183,
        "3675": 136,
        "3676": 18,
        "3677": 102,
        "3678": 244,
        "3679": 11,
        "3680": 26,
        "3681": 135,
        "3682": 114,
        "3683": 83,
        "3684": 66,
        "3685": 80,
        "3686": 5,
        "3687": 186,
        "3688": 225,
        "3689": 253,
        "3690": 107,
        "3691": 60,
        "3692": 101,
        "3693": 129,
        "3694": 109,
        "3695": 128,
        "3696": 168,
        "3697": 84,
        "3698": 211,
        "3699": 250,
        "3700": 217,
        "3701": 100,
        "3702": 149,
        "3703": 182,
        "3704": 81,
        "3705": 236,
        "3706": 108,
        "3707": 93,
        "3708": 100,
        "3709": 64,
        "3710": 207,
        "3711": 218,
        "3712": 86,
        "3713": 208,
        "3714": 132,
        "3715": 31,
        "3716": 81,
        "3717": 7,
        "3718": 138,
        "3719": 215,
        "3720": 168,
        "3721": 184,
        "3722": 159,
        "3723": 162,
        "3724": 182,
        "3725": 63,
        "3726": 192,
        "3727": 184,
        "3728": 15,
        "3729": 12,
        "3730": 105,
        "3731": 207,
        "3732": 99,
        "3733": 66,
        "3734": 134,
        "3735": 122,
        "3736": 242,
        "3737": 219,
        "3738": 154,
        "3739": 118,
        "3740": 62,
        "3741": 139,
        "3742": 69,
        "3743": 255,
        "3744": 244,
        "3745": 227,
        "3746": 124,
        "3747": 19,
        "3748": 19,
        "3749": 131,
        "3750": 120,
        "3751": 154,
        "3752": 29,
        "3753": 182,
        "3754": 140,
        "3755": 130,
        "3756": 29,
        "3757": 77,
        "3758": 160,
        "3759": 138,
        "3760": 103,
        "3761": 251,
        "3762": 100,
        "3763": 95,
        "3764": 138,
        "3765": 149,
        "3766": 51,
        "3767": 39,
        "3768": 14,
        "3769": 103,
        "3770": 119,
        "3771": 137,
        "3772": 12,
        "3773": 224,
        "3774": 15,
        "3775": 243,
        "3776": 206,
        "3777": 22,
        "3778": 65,
        "3779": 191,
        "3780": 9,
        "3781": 58,
        "3782": 191,
        "3783": 100,
        "3784": 43,
        "3785": 17,
        "3786": 199,
        "3787": 119,
        "3788": 37,
        "3789": 31,
        "3790": 175,
        "3791": 227,
        "3792": 114,
        "3793": 188,
        "3794": 209,
        "3795": 21,
        "3796": 178,
        "3797": 120,
        "3798": 179,
        "3799": 24,
        "3800": 43,
        "3801": 51,
        "3802": 35,
        "3803": 238,
        "3804": 83,
        "3805": 149,
        "3806": 212,
        "3807": 1,
        "3808": 178,
        "3809": 157,
        "3810": 108,
        "3811": 101,
        "3812": 6,
        "3813": 51,
        "3814": 148,
        "3815": 237,
        "3816": 48,
        "3817": 105,
        "3818": 4,
        "3819": 179,
        "3820": 185,
        "3821": 36,
        "3822": 206,
        "3823": 60,
        "3824": 113,
        "3825": 209,
        "3826": 237,
        "3827": 242,
        "3828": 0,
        "3829": 180,
        "3830": 10,
        "3831": 108,
        "3832": 230,
        "3833": 150,
        "3834": 22,
        "3835": 28,
        "3836": 176,
        "3837": 1,
        "3838": 5,
        "3839": 174,
        "3840": 40,
        "3841": 43,
        "3842": 47,
        "3843": 71,
        "3844": 240,
        "3845": 123,
        "3846": 84,
        "3847": 146,
        "3848": 101,
        "3849": 19,
        "3850": 49,
        "3851": 16,
        "3852": 187,
        "3853": 63,
        "3854": 156,
        "3855": 54,
        "3856": 147,
        "3857": 242,
        "3858": 119,
        "3859": 117,
        "3860": 98,
        "3861": 85,
        "3862": 111,
        "3863": 126,
        "3864": 153,
        "3865": 71,
        "3866": 216,
        "3867": 86,
        "3868": 84,
        "3869": 44,
        "3870": 219,
        "3871": 38,
        "3872": 179,
        "3873": 117,
        "3874": 31,
        "3875": 16,
        "3876": 161,
        "3877": 215,
        "3878": 242,
        "3879": 189,
        "3880": 199,
        "3881": 222,
        "3882": 164,
        "3883": 2,
        "3884": 153,
        "3885": 142,
        "3886": 212,
        "3887": 109,
        "3888": 5,
        "3889": 94,
        "3890": 238,
        "3891": 232,
        "3892": 194,
        "3893": 146,
        "3894": 177,
        "3895": 11,
        "3896": 176,
        "3897": 62,
        "3898": 68,
        "3899": 216,
        "3900": 57,
        "3901": 225,
        "3902": 175,
        "3903": 103,
        "3904": 39,
        "3905": 202,
        "3906": 199,
        "3907": 218,
        "3908": 63,
        "3909": 107,
        "3910": 168,
        "3911": 102,
        "3912": 30,
        "3913": 47,
        "3914": 110,
        "3915": 28,
        "3916": 208,
        "3917": 134,
        "3918": 245,
        "3919": 134,
        "3920": 102,
        "3921": 148,
        "3922": 197,
        "3923": 96,
        "3924": 192,
        "3925": 182,
        "3926": 70,
        "3927": 97,
        "3928": 10,
        "3929": 144,
        "3930": 226,
        "3931": 116,
        "3932": 115,
        "3933": 175,
        "3934": 6,
        "3935": 13,
        "3936": 139,
        "3937": 10,
        "3938": 116,
        "3939": 188,
        "3940": 113,
        "3941": 238,
        "3942": 79,
        "3943": 22,
        "3944": 89,
        "3945": 36,
        "3946": 78,
        "3947": 155,
        "3948": 192,
        "3949": 115,
        "3950": 168,
        "3951": 67,
        "3952": 140,
        "3953": 77,
        "3954": 232,
        "3955": 139,
        "3956": 243,
        "3957": 73,
        "3958": 82,
        "3959": 178,
        "3960": 111,
        "3961": 138,
        "3962": 185,
        "3963": 159,
        "3964": 7,
        "3965": 222,
        "3966": 165,
        "3967": 240,
        "3968": 28,
        "3969": 75,
        "3970": 148,
        "3971": 189,
        "3972": 207,
        "3973": 195,
        "3974": 150,
        "3975": 90,
        "3976": 139,
        "3977": 166,
        "3978": 112,
        "3979": 231,
        "3980": 166,
        "3981": 111,
        "3982": 227,
        "3983": 39,
        "3984": 208,
        "3985": 56,
        "3986": 82,
        "3987": 23,
        "3988": 254,
        "3989": 82,
        "3990": 98,
        "3991": 33,
        "3992": 91,
        "3993": 60,
        "3994": 215,
        "3995": 18,
        "3996": 9,
        "3997": 176,
        "3998": 13,
        "3999": 235,
        "4000": 0,
        "4001": 106,
        "4002": 177,
        "4003": 148,
        "4004": 116,
        "4005": 47,
        "4006": 88,
        "4007": 189,
        "4008": 187,
        "4009": 188,
        "4010": 140,
        "4011": 255,
        "4012": 65,
        "4013": 247,
        "4014": 230,
        "4015": 21,
        "4016": 82,
        "4017": 160,
        "4018": 241,
        "4019": 64,
        "4020": 232,
        "4021": 162,
        "4022": 239,
        "4023": 117,
        "4024": 212,
        "4025": 88,
        "4026": 223,
        "4027": 35,
        "4028": 12,
        "4029": 212,
        "4030": 237,
        "4031": 38,
        "4032": 178,
        "4033": 225,
        "4034": 6,
        "4035": 113,
        "4036": 200,
        "4037": 60,
        "4038": 81,
        "4039": 122,
        "4040": 210,
        "4041": 215,
        "4042": 130,
        "4043": 100,
        "4044": 213,
        "4045": 220,
        "4046": 54,
        "4047": 157,
        "4048": 103,
        "4049": 44,
        "4050": 86,
        "4051": 163,
        "4052": 196,
        "4053": 150,
        "4054": 191,
        "4055": 27,
        "4056": 165,
        "4057": 166,
        "4058": 69,
        "4059": 101,
        "4060": 150,
        "4061": 183,
        "4062": 23,
        "4063": 51,
        "4064": 63,
        "4065": 15,
        "4066": 233,
        "4067": 186,
        "4068": 219,
        "4069": 88,
        "4070": 203,
        "4071": 190,
        "4072": 231,
        "4073": 58,
        "4074": 186,
        "4075": 241,
        "4076": 234,
        "4077": 212,
        "4078": 228,
        "4079": 226,
        "4080": 8,
        "4081": 35,
        "4082": 216,
        "4083": 163,
        "4084": 142,
        "4085": 191,
        "4086": 143,
        "4087": 184,
        "4088": 57,
        "4089": 245,
        "4090": 155,
        "4091": 11,
        "4092": 71,
        "4093": 244,
        "4094": 60,
        "4095": 233,
        "4096": 194,
        "4097": 85,
        "4098": 22,
        "4099": 182,
        "4100": 179,
        "4101": 82,
        "4102": 55,
        "4103": 149,
        "4104": 192,
        "4105": 190,
        "4106": 181,
        "4107": 172,
        "4108": 209,
        "4109": 250,
        "4110": 46,
        "4111": 202,
        "4112": 11,
        "4113": 71,
        "4114": 46,
        "4115": 248,
        "4116": 19,
        "4117": 187,
        "4118": 3,
        "4119": 102,
        "4120": 148,
        "4121": 6,
        "4122": 84,
        "4123": 202,
        "4124": 255,
        "4125": 143,
        "4126": 210,
        "4127": 21,
        "4128": 216,
        "4129": 120,
        "4130": 209,
        "4131": 112,
        "4132": 179,
        "4133": 131,
        "4134": 243,
        "4135": 226,
        "4136": 193,
        "4137": 106,
        "4138": 14,
        "4139": 87,
        "4140": 108,
        "4141": 6,
        "4142": 95,
        "4143": 193,
        "4144": 93,
        "4145": 193,
        "4146": 64,
        "4147": 35,
        "4148": 237,
        "4149": 160,
        "4150": 60,
        "4151": 221,
        "4152": 118,
        "4153": 152,
        "4154": 100,
        "4155": 13,
        "4156": 178,
        "4157": 150,
        "4158": 107,
        "4159": 110,
        "4160": 205,
        "4161": 161,
        "4162": 54,
        "4163": 232,
        "4164": 152,
        "4165": 125,
        "4166": 192,
        "4167": 109,
        "4168": 54,
        "4169": 137,
        "4170": 8,
        "4171": 95,
        "4172": 79,
        "4173": 153,
        "4174": 12,
        "4175": 64,
        "4176": 207,
        "4177": 236,
        "4178": 84,
        "4179": 150,
        "4180": 110,
        "4181": 132,
        "4182": 175,
        "4183": 38,
        "4184": 16,
        "4185": 0,
        "4186": 49,
        "4187": 222,
        "4188": 84,
        "4189": 243,
        "4190": 95,
        "4191": 116,
        "4192": 103,
        "4193": 83,
        "4194": 190,
        "4195": 207,
        "4196": 12,
        "4197": 242,
        "4198": 188,
        "4199": 60,
        "4200": 59,
        "4201": 90,
        "4202": 35,
        "4203": 134,
        "4204": 225,
        "4205": 27,
        "4206": 8,
        "4207": 56,
        "4208": 207,
        "4209": 68,
        "4210": 13,
        "4211": 39,
        "4212": 159,
        "4213": 30,
        "4214": 56,
        "4215": 42,
        "4216": 155,
        "4217": 161,
        "4218": 239,
        "4219": 223,
        "4220": 203,
        "4221": 187,
        "4222": 121,
        "4223": 141,
        "4224": 155,
        "4225": 238,
        "4226": 94,
        "4227": 230,
        "4228": 108,
        "4229": 92,
        "4230": 205,
        "4231": 86,
        "4232": 103,
        "4233": 245,
        "4234": 45,
        "4235": 4,
        "4236": 183,
        "4237": 187,
        "4238": 7,
        "4239": 68,
        "4240": 150,
        "4241": 253,
        "4242": 148,
        "4243": 29,
        "4244": 94,
        "4245": 150,
        "4246": 73,
        "4247": 135,
        "4248": 29,
        "4249": 36,
        "4250": 170,
        "4251": 31,
        "4252": 157,
        "4253": 232,
        "4254": 152,
        "4255": 207,
        "4256": 174,
        "4257": 201,
        "4258": 0,
        "4259": 71,
        "4260": 103,
        "4261": 44,
        "4262": 142,
        "4263": 188,
        "4264": 69,
        "4265": 187,
        "4266": 209,
        "4267": 148,
        "4268": 46,
        "4269": 189,
        "4270": 217,
        "4271": 153,
        "4272": 238,
        "4273": 221,
        "4274": 135,
        "4275": 186,
        "4276": 195,
        "4277": 43,
        "4278": 215,
        "4279": 200,
        "4280": 138,
        "4281": 89,
        "4282": 73,
        "4283": 214,
        "4284": 117,
        "4285": 166,
        "4286": 244,
        "4287": 32,
        "4288": 184,
        "4289": 210,
        "4290": 180,
        "4291": 155,
        "4292": 186,
        "4293": 213,
        "4294": 176,
        "4295": 207,
        "4296": 119,
        "4297": 7,
        "4298": 249,
        "4299": 189,
        "4300": 61,
        "4301": 9,
        "4302": 35,
        "4303": 130,
        "4304": 46,
        "4305": 68,
        "4306": 238,
        "4307": 86,
        "4308": 154,
        "4309": 118,
        "4310": 241,
        "4311": 12,
        "4312": 198,
        "4313": 236,
        "4314": 103,
        "4315": 81,
        "4316": 14,
        "4317": 69,
        "4318": 143,
        "4319": 136,
        "4320": 130,
        "4321": 83,
        "4322": 254,
        "4323": 206,
        "4324": 171,
        "4325": 17,
        "4326": 248,
        "4327": 173,
        "4328": 251,
        "4329": 21,
        "4330": 137,
        "4331": 216,
        "4332": 10,
        "4333": 40,
        "4334": 156,
        "4335": 198,
        "4336": 67,
        "4337": 31,
        "4338": 253,
        "4339": 78,
        "4340": 212,
        "4341": 22,
        "4342": 183,
        "4343": 249,
        "4344": 194,
        "4345": 81,
        "4346": 235,
        "4347": 194,
        "4348": 6,
        "4349": 143,
        "4350": 173,
        "4351": 110,
        "4352": 206,
        "4353": 164,
        "4354": 95,
        "4355": 174,
        "4356": 100,
        "4357": 172,
        "4358": 251,
        "4359": 219,
        "4360": 61,
        "4361": 142,
        "4362": 103,
        "4363": 223,
        "4364": 217,
        "4365": 131,
        "4366": 172,
        "4367": 240,
        "4368": 141,
        "4369": 200,
        "4370": 86,
        "4371": 90,
        "4372": 45,
        "4373": 213,
        "4374": 69,
        "4375": 43,
        "4376": 52,
        "4377": 93,
        "4378": 123,
        "4379": 146,
        "4380": 92,
        "4381": 73,
        "4382": 73,
        "4383": 139,
        "4384": 197,
        "4385": 245,
        "4386": 73,
        "4387": 6,
        "4388": 61,
        "4389": 120,
        "4390": 96,
        "4391": 175,
        "4392": 23,
        "4393": 53,
        "4394": 111,
        "4395": 22,
        "4396": 208,
        "4397": 148,
        "4398": 37,
        "4399": 89,
        "4400": 37,
        "4401": 217,
        "4402": 4,
        "4403": 69,
        "4404": 234,
        "4405": 183,
        "4406": 231,
        "4407": 153,
        "4408": 0,
        "4409": 6,
        "4410": 154,
        "4411": 249,
        "4412": 207,
        "4413": 78,
        "4414": 134,
        "4415": 175,
        "4416": 4,
        "4417": 131,
        "4418": 77,
        "4419": 15,
        "4420": 208,
        "4421": 207,
        "4422": 55,
        "4423": 89,
        "4424": 145,
        "4425": 63,
        "4426": 19,
        "4427": 11,
        "4428": 95,
        "4429": 105,
        "4430": 15,
        "4431": 150,
        "4432": 5,
        "4433": 14,
        "4434": 147,
        "4435": 138,
        "4436": 231,
        "4437": 242,
        "4438": 240,
        "4439": 91,
        "4440": 55,
        "4441": 5,
        "4442": 226,
        "4443": 230,
        "4444": 91,
        "4445": 215,
        "4446": 36,
        "4447": 50,
        "4448": 34,
        "4449": 245,
        "4450": 118,
        "4451": 45,
        "4452": 229,
        "4453": 41,
        "4454": 88,
        "4455": 208,
        "4456": 143,
        "4457": 211,
        "4458": 7,
        "4459": 104,
        "4460": 243,
        "4461": 36,
        "4462": 152,
        "4463": 146,
        "4464": 3,
        "4465": 108,
        "4466": 235,
        "4467": 225,
        "4468": 228,
        "4469": 45,
        "4470": 228,
        "4471": 19,
        "4472": 204,
        "4473": 56,
        "4474": 240,
        "4475": 192,
        "4476": 53,
        "4477": 220,
        "4478": 168,
        "4479": 31,
        "4480": 143,
        "4481": 222,
        "4482": 220,
        "4483": 224,
        "4484": 138,
        "4485": 11,
        "4486": 127,
        "4487": 175,
        "4488": 34,
        "4489": 131,
        "4490": 113,
        "4491": 215,
        "4492": 153,
        "4493": 230,
        "4494": 62,
        "4495": 93,
        "4496": 20,
        "4497": 249,
        "4498": 77,
        "4499": 129,
        "4500": 219,
        "4501": 59,
        "4502": 102,
        "4503": 22,
        "4504": 119,
        "4505": 155,
        "4506": 149,
        "4507": 99,
        "4508": 192,
        "4509": 220,
        "4510": 222,
        "4511": 22,
        "4512": 171,
        "4513": 179,
        "4514": 206,
        "4515": 21,
        "4516": 239,
        "4517": 160,
        "4518": 51,
        "4519": 94,
        "4520": 6,
        "4521": 239,
        "4522": 40,
        "4523": 152,
        "4524": 146,
        "4525": 3,
        "4526": 249,
        "4527": 253,
        "4528": 64,
        "4529": 190,
        "4530": 21,
        "4531": 99,
        "4532": 102,
        "4533": 34,
        "4534": 238,
        "4535": 107,
        "4536": 128,
        "4537": 53,
        "4538": 219,
        "4539": 161,
        "4540": 231,
        "4541": 142,
        "4542": 95,
        "4543": 184,
        "4544": 154,
        "4545": 14,
        "4546": 207,
        "4547": 171,
        "4548": 148,
        "4549": 67,
        "4550": 49,
        "4551": 247,
        "4552": 54,
        "4553": 152,
        "4554": 228,
        "4555": 211,
        "4556": 234,
        "4557": 168,
        "4558": 104,
        "4559": 35,
        "4560": 94,
        "4561": 123,
        "4562": 136,
        "4563": 238,
        "4564": 240,
        "4565": 146,
        "4566": 30,
        "4567": 254,
        "4568": 168,
        "4569": 96,
        "4570": 225,
        "4571": 207,
        "4572": 89,
        "4573": 121,
        "4574": 40,
        "4575": 88,
        "4576": 166,
        "4577": 168,
        "4578": 17,
        "4579": 70,
        "4580": 160,
        "4581": 249,
        "4582": 97,
        "4583": 147,
        "4584": 41,
        "4585": 93,
        "4586": 190,
        "4587": 115,
        "4588": 62,
        "4589": 10,
        "4590": 214,
        "4591": 76,
        "4592": 121,
        "4593": 24,
        "4594": 149,
        "4595": 168,
        "4596": 120,
        "4597": 154,
        "4598": 83,
        "4599": 75,
        "4600": 11,
        "4601": 61,
        "4602": 165,
        "4603": 254,
        "4604": 109,
        "4605": 214,
        "4606": 15,
        "4607": 224,
        "4608": 120,
        "4609": 14,
        "4610": 218,
        "4611": 144,
        "4612": 236,
        "4613": 248,
        "4614": 91,
        "4615": 117,
        "4616": 231,
        "4617": 73,
        "4618": 64,
        "4619": 96,
        "4620": 32,
        "4621": 187,
        "4622": 168,
        "4623": 53,
        "4624": 88,
        "4625": 172,
        "4626": 246,
        "4627": 249,
        "4628": 210,
        "4629": 92,
        "4630": 150,
        "4631": 165,
        "4632": 208,
        "4633": 31,
        "4634": 168,
        "4635": 57,
        "4636": 105,
        "4637": 17,
        "4638": 143,
        "4639": 128,
        "4640": 180,
        "4641": 10,
        "4642": 48,
        "4643": 223,
        "4644": 19,
        "4645": 91,
        "4646": 254,
        "4647": 189,
        "4648": 111,
        "4649": 12,
        "4650": 79,
        "4651": 244,
        "4652": 177,
        "4653": 129,
        "4654": 81,
        "4655": 59,
        "4656": 55,
        "4657": 164,
        "4658": 148,
        "4659": 64,
        "4660": 115,
        "4661": 173,
        "4662": 48,
        "4663": 83,
        "4664": 112,
        "4665": 127,
        "4666": 81,
        "4667": 194,
        "4668": 85,
        "4669": 119,
        "4670": 233,
        "4671": 16,
        "4672": 137,
        "4673": 23,
        "4674": 86,
        "4675": 7,
        "4676": 72,
        "4677": 242,
        "4678": 189,
        "4679": 42,
        "4680": 117,
        "4681": 146,
        "4682": 96,
        "4683": 14,
        "4684": 53,
        "4685": 142,
        "4686": 194,
        "4687": 249,
        "4688": 137,
        "4689": 21,
        "4690": 76,
        "4691": 230,
        "4692": 223,
        "4693": 73,
        "4694": 15,
        "4695": 199,
        "4696": 99,
        "4697": 106,
        "4698": 205,
        "4699": 0,
        "4700": 28,
        "4701": 184,
        "4702": 236,
        "4703": 133,
        "4704": 176,
        "4705": 246,
        "4706": 120,
        "4707": 247,
        "4708": 142,
        "4709": 141,
        "4710": 223,
        "4711": 12,
        "4712": 123,
        "4713": 39,
        "4714": 24,
        "4715": 5,
        "4716": 224,
        "4717": 60,
        "4718": 48,
        "4719": 166,
        "4720": 82,
        "4721": 62,
        "4722": 121,
        "4723": 173,
        "4724": 29,
        "4725": 68,
        "4726": 142,
        "4727": 28,
        "4728": 32,
        "4729": 212,
        "4730": 220,
        "4731": 156,
        "4732": 236,
        "4733": 111,
        "4734": 160,
        "4735": 206,
        "4736": 217,
        "4737": 158,
        "4738": 31,
        "4739": 14,
        "4740": 158,
        "4741": 206,
        "4742": 82,
        "4743": 237,
        "4744": 254,
        "4745": 152,
        "4746": 149,
        "4747": 122,
        "4748": 229,
        "4749": 189,
        "4750": 197,
        "4751": 252,
        "4752": 77,
        "4753": 229,
        "4754": 153,
        "4755": 172,
        "4756": 112,
        "4757": 161,
        "4758": 103,
        "4759": 44,
        "4760": 49,
        "4761": 43,
        "4762": 141,
        "4763": 148,
        "4764": 108,
        "4765": 52,
        "4766": 8,
        "4767": 81,
        "4768": 112,
        "4769": 25,
        "4770": 252,
        "4771": 82,
        "4772": 67,
        "4773": 13,
        "4774": 89,
        "4775": 175,
        "4776": 113,
        "4777": 214,
        "4778": 43,
        "4779": 233,
        "4780": 18,
        "4781": 16,
        "4782": 16,
        "4783": 73,
        "4784": 25,
        "4785": 45,
        "4786": 226,
        "4787": 197,
        "4788": 147,
        "4789": 207,
        "4790": 0,
        "4791": 75,
        "4792": 21,
        "4793": 235,
        "4794": 40,
        "4795": 16,
        "4796": 24,
        "4797": 160,
        "4798": 13,
        "4799": 127,
        "4800": 182,
        "4801": 143,
        "4802": 210,
        "4803": 166,
        "4804": 204,
        "4805": 198,
        "4806": 91,
        "4807": 212,
        "4808": 87,
        "4809": 120,
        "4810": 199,
        "4811": 139,
        "4812": 19,
        "4813": 219,
        "4814": 36,
        "4815": 175,
        "4816": 214,
        "4817": 28,
        "4818": 68,
        "4819": 171,
        "4820": 150,
        "4821": 239,
        "4822": 113,
        "4823": 20,
        "4824": 86,
        "4825": 209,
        "4826": 88,
        "4827": 82,
        "4828": 14,
        "4829": 110,
        "4830": 122,
        "4831": 181,
        "4832": 121,
        "4833": 69,
        "4834": 246,
        "4835": 229,
        "4836": 91,
        "4837": 87,
        "4838": 67,
        "4839": 130,
        "4840": 3,
        "4841": 105,
        "4842": 106,
        "4843": 236,
        "4844": 102,
        "4845": 223,
        "4846": 153,
        "4847": 54,
        "4848": 28,
        "4849": 10,
        "4850": 255,
        "4851": 170,
        "4852": 186,
        "4853": 140,
        "4854": 44,
        "4855": 162,
        "4856": 231,
        "4857": 96,
        "4858": 112,
        "4859": 40,
        "4860": 102,
        "4861": 233,
        "4862": 241,
        "4863": 1,
        "4864": 144,
        "4865": 36,
        "4866": 169,
        "4867": 203,
        "4868": 140,
        "4869": 49,
        "4870": 14,
        "4871": 89,
        "4872": 96,
        "4873": 37,
        "4874": 141,
        "4875": 55,
        "4876": 46,
        "4877": 241,
        "4878": 224,
        "4879": 154,
        "4880": 50,
        "4881": 252,
        "4882": 253,
        "4883": 116,
        "4884": 154,
        "4885": 68,
        "4886": 21,
        "4887": 143,
        "4888": 54,
        "4889": 205,
        "4890": 121,
        "4891": 32,
        "4892": 71,
        "4893": 4,
        "4894": 75,
        "4895": 233,
        "4896": 36,
        "4897": 183,
        "4898": 49,
        "4899": 239,
        "4900": 242,
        "4901": 153,
        "4902": 76,
        "4903": 12,
        "4904": 43,
        "4905": 34,
        "4906": 180,
        "4907": 133,
        "4908": 241,
        "4909": 255,
        "4910": 5,
        "4911": 225,
        "4912": 217,
        "4913": 80,
        "4914": 249,
        "4915": 122,
        "4916": 25,
        "4917": 247,
        "4918": 53,
        "4919": 19,
        "4920": 113,
        "4921": 52,
        "4922": 75,
        "4923": 221,
        "4924": 18,
        "4925": 225,
        "4926": 130,
        "4927": 207,
        "4928": 32,
        "4929": 35,
        "4930": 6,
        "4931": 103,
        "4932": 117,
        "4933": 99,
        "4934": 63,
        "4935": 172,
        "4936": 196,
        "4937": 59,
        "4938": 202,
        "4939": 167,
        "4940": 15,
        "4941": 123,
        "4942": 239,
        "4943": 4,
        "4944": 164,
        "4945": 250,
        "4946": 113,
        "4947": 112,
        "4948": 136,
        "4949": 8,
        "4950": 67,
        "4951": 78,
        "4952": 138,
        "4953": 216,
        "4954": 55,
        "4955": 116,
        "4956": 9,
        "4957": 91,
        "4958": 9,
        "4959": 25,
        "4960": 214,
        "4961": 23,
        "4962": 200,
        "4963": 173,
        "4964": 9,
        "4965": 105,
        "4966": 72,
        "4967": 135,
        "4968": 225,
        "4969": 6,
        "4970": 251,
        "4971": 156,
        "4972": 207,
        "4973": 217,
        "4974": 218,
        "4975": 42,
        "4976": 58,
        "4977": 147,
        "4978": 112,
        "4979": 93,
        "4980": 238,
        "4981": 157,
        "4982": 0,
        "4983": 16,
        "4984": 84,
        "4985": 209,
        "4986": 19,
        "4987": 163,
        "4988": 110,
        "4989": 37,
        "4990": 255,
        "4991": 212,
        "4992": 253,
        "4993": 56,
        "4994": 134,
        "4995": 28,
        "4996": 240,
        "4997": 15,
        "4998": 166,
        "4999": 168,
        "5000": 149,
        "5001": 2,
        "5002": 188,
        "5003": 109,
        "5004": 234,
        "5005": 205,
        "5006": 133,
        "5007": 129,
        "5008": 76,
        "5009": 115,
        "5010": 248,
        "5011": 16,
        "5012": 58,
        "5013": 16,
        "5014": 237,
        "5015": 96,
        "5016": 63,
        "5017": 82,
        "5018": 20,
        "5019": 7,
        "5020": 64,
        "5021": 120,
        "5022": 50,
        "5023": 198,
        "5024": 66,
        "5025": 112,
        "5026": 170,
        "5027": 12,
        "5028": 171,
        "5029": 202,
        "5030": 255,
        "5031": 21,
        "5032": 153,
        "5033": 60,
        "5034": 60,
        "5035": 155,
        "5036": 161,
        "5037": 248,
        "5038": 249,
        "5039": 39,
        "5040": 171,
        "5041": 166,
        "5042": 47,
        "5043": 31,
        "5044": 126,
        "5045": 112,
        "5046": 14,
        "5047": 188,
        "5048": 25,
        "5049": 7,
        "5050": 130,
        "5051": 128,
        "5052": 165,
        "5053": 164,
        "5054": 125,
        "5055": 25,
        "5056": 22,
        "5057": 114,
        "5058": 118,
        "5059": 235,
        "5060": 49,
        "5061": 147,
        "5062": 79,
        "5063": 169,
        "5064": 115,
        "5065": 104,
        "5066": 1,
        "5067": 250,
        "5068": 209,
        "5069": 17,
        "5070": 235,
        "5071": 195,
        "5072": 3,
        "5073": 78,
        "5074": 55,
        "5075": 204,
        "5076": 212,
        "5077": 158,
        "5078": 49,
        "5079": 98,
        "5080": 104,
        "5081": 115,
        "5082": 190,
        "5083": 58,
        "5084": 184,
        "5085": 90,
        "5086": 200,
        "5087": 63,
        "5088": 181,
        "5089": 85,
        "5090": 79,
        "5091": 43,
        "5092": 204,
        "5093": 170,
        "5094": 38,
        "5095": 211,
        "5096": 165,
        "5097": 217,
        "5098": 244,
        "5099": 102,
        "5100": 70,
        "5101": 3,
        "5102": 6,
        "5103": 174,
        "5104": 113,
        "5105": 52,
        "5106": 252,
        "5107": 62,
        "5108": 64,
        "5109": 246,
        "5110": 86,
        "5111": 187,
        "5112": 135,
        "5113": 181,
        "5114": 34,
        "5115": 216,
        "5116": 30,
        "5117": 59,
        "5118": 37,
        "5119": 94,
        "5120": 233,
        "5121": 203,
        "5122": 196,
        "5123": 125,
        "5124": 162,
        "5125": 60,
        "5126": 72,
        "5127": 138,
        "5128": 198,
        "5129": 97,
        "5130": 146,
        "5131": 135,
        "5132": 215,
        "5133": 86,
        "5134": 37,
        "5135": 114,
        "5136": 84,
        "5137": 224,
        "5138": 222,
        "5139": 101,
        "5140": 239,
        "5141": 159,
        "5142": 158,
        "5143": 117,
        "5144": 113,
        "5145": 240,
        "5146": 46,
        "5147": 6,
        "5148": 81,
        "5149": 145,
        "5150": 76,
        "5151": 144,
        "5152": 118,
        "5153": 174,
        "5154": 199,
        "5155": 107,
        "5156": 237,
        "5157": 29,
        "5158": 223,
        "5159": 208,
        "5160": 111,
        "5161": 213,
        "5162": 92,
        "5163": 1,
        "5164": 69,
        "5165": 167,
        "5166": 113,
        "5167": 219,
        "5168": 6,
        "5169": 96,
        "5170": 171,
        "5171": 244,
        "5172": 171,
        "5173": 51,
        "5174": 95,
        "5175": 75,
        "5176": 98,
        "5177": 2,
        "5178": 200,
        "5179": 218,
        "5180": 29,
        "5181": 11,
        "5182": 141,
        "5183": 218,
        "5184": 148,
        "5185": 221,
        "5186": 158,
        "5187": 224,
        "5188": 70,
        "5189": 122,
        "5190": 120,
        "5191": 119,
        "5192": 153,
        "5193": 141,
        "5194": 27,
        "5195": 194,
        "5196": 200,
        "5197": 161,
        "5198": 214,
        "5199": 78,
        "5200": 41,
        "5201": 244,
        "5202": 98,
        "5203": 112,
        "5204": 124,
        "5205": 105,
        "5206": 219,
        "5207": 224,
        "5208": 81,
        "5209": 214,
        "5210": 57,
        "5211": 121,
        "5212": 43,
        "5213": 2,
        "5214": 46,
        "5215": 50,
        "5216": 152,
        "5217": 42,
        "5218": 188,
        "5219": 9,
        "5220": 144,
        "5221": 101,
        "5222": 133,
        "5223": 98,
        "5224": 158,
        "5225": 158,
        "5226": 204,
        "5227": 41,
        "5228": 30,
        "5229": 187,
        "5230": 167,
        "5231": 99,
        "5232": 191,
        "5233": 109,
        "5234": 231,
        "5235": 65,
        "5236": 110,
        "5237": 118,
        "5238": 112,
        "5239": 34,
        "5240": 30,
        "5241": 202,
        "5242": 33,
        "5243": 223,
        "5244": 66,
        "5245": 42,
        "5246": 29,
        "5247": 83,
        "5248": 183,
        "5249": 127,
        "5250": 234,
        "5251": 177,
        "5252": 127,
        "5253": 119,
        "5254": 165,
        "5255": 127,
        "5256": 187,
        "5257": 110,
        "5258": 188,
        "5259": 57,
        "5260": 96,
        "5261": 136,
        "5262": 255,
        "5263": 16,
        "5264": 243,
        "5265": 98,
        "5266": 176,
        "5267": 95,
        "5268": 242,
        "5269": 1,
        "5270": 49,
        "5271": 238,
        "5272": 125,
        "5273": 135,
        "5274": 108,
        "5275": 217,
        "5276": 39,
        "5277": 145,
        "5278": 94,
        "5279": 163,
        "5280": 159,
        "5281": 151,
        "5282": 52,
        "5283": 54,
        "5284": 49,
        "5285": 1,
        "5286": 216,
        "5287": 116,
        "5288": 19,
        "5289": 107,
        "5290": 0,
        "5291": 113,
        "5292": 231,
        "5293": 182,
        "5294": 139,
        "5295": 177,
        "5296": 225,
        "5297": 194,
        "5298": 33,
        "5299": 45,
        "5300": 237,
        "5301": 156,
        "5302": 101,
        "5303": 92,
        "5304": 149,
        "5305": 186,
        "5306": 95,
        "5307": 105,
        "5308": 230,
        "5309": 32,
        "5310": 176,
        "5311": 73,
        "5312": 125,
        "5313": 187,
        "5314": 41,
        "5315": 40,
        "5316": 58,
        "5317": 84,
        "5318": 190,
        "5319": 246,
        "5320": 64,
        "5321": 154,
        "5322": 242,
        "5323": 248,
        "5324": 128,
        "5325": 37,
        "5326": 201,
        "5327": 74,
        "5328": 200,
        "5329": 208,
        "5330": 205,
        "5331": 75,
        "5332": 55,
        "5333": 37,
        "5334": 73,
        "5335": 209,
        "5336": 22,
        "5337": 97,
        "5338": 78,
        "5339": 222,
        "5340": 202,
        "5341": 97,
        "5342": 170,
        "5343": 207,
        "5344": 79,
        "5345": 127,
        "5346": 31,
        "5347": 154,
        "5348": 63,
        "5349": 111,
        "5350": 197,
        "5351": 107,
        "5352": 86,
        "5353": 40,
        "5354": 233,
        "5355": 190,
        "5356": 191,
        "5357": 121,
        "5358": 26,
        "5359": 156,
        "5360": 139,
        "5361": 179,
        "5362": 181,
        "5363": 251,
        "5364": 116,
        "5365": 164,
        "5366": 248,
        "5367": 33,
        "5368": 253,
        "5369": 44,
        "5370": 168,
        "5371": 167,
        "5372": 76,
        "5373": 117,
        "5374": 234,
        "5375": 156,
        "5376": 31,
        "5377": 234,
        "5378": 36,
        "5379": 185,
        "5380": 93,
        "5381": 80,
        "5382": 38,
        "5383": 214,
        "5384": 7,
        "5385": 115,
        "5386": 100,
        "5387": 165,
        "5388": 193,
        "5389": 127,
        "5390": 109,
        "5391": 31,
        "5392": 22,
        "5393": 155,
        "5394": 199,
        "5395": 171,
        "5396": 227,
        "5397": 232,
        "5398": 49,
        "5399": 64,
        "5400": 247,
        "5401": 120,
        "5402": 169,
        "5403": 21,
        "5404": 37,
        "5405": 105,
        "5406": 191,
        "5407": 240,
        "5408": 75,
        "5409": 237,
        "5410": 24,
        "5411": 122,
        "5412": 242,
        "5413": 127,
        "5414": 33,
        "5415": 59,
        "5416": 48,
        "5417": 28,
        "5418": 249,
        "5419": 51,
        "5420": 9,
        "5421": 157,
        "5422": 128,
        "5423": 6,
        "5424": 55,
        "5425": 9,
        "5426": 167,
        "5427": 126,
        "5428": 95,
        "5429": 108,
        "5430": 15,
        "5431": 50,
        "5432": 167,
        "5433": 35,
        "5434": 193,
        "5435": 121,
        "5436": 109,
        "5437": 179,
        "5438": 106,
        "5439": 159,
        "5440": 255,
        "5441": 225,
        "5442": 175,
        "5443": 127,
        "5444": 220,
        "5445": 208,
        "5446": 255,
        "5447": 199,
        "5448": 212,
        "5449": 154,
        "5450": 28,
        "5451": 10,
        "5452": 247,
        "5453": 208,
        "5454": 0,
        "5455": 253,
        "5456": 235,
        "5457": 77,
        "5458": 46,
        "5459": 11,
        "5460": 144,
        "5461": 139,
        "5462": 50,
        "5463": 30,
        "5464": 94,
        "5465": 130,
        "5466": 91,
        "5467": 88,
        "5468": 196,
        "5469": 202,
        "5470": 120,
        "5471": 50,
        "5472": 66,
        "5473": 10,
        "5474": 229,
        "5475": 174,
        "5476": 136,
        "5477": 174,
        "5478": 209,
        "5479": 142,
        "5480": 254,
        "5481": 130,
        "5482": 169,
        "5483": 240,
        "5484": 93,
        "5485": 170,
        "5486": 36,
        "5487": 225,
        "5488": 99,
        "5489": 69,
        "5490": 171,
        "5491": 218,
        "5492": 41,
        "5493": 234,
        "5494": 42,
        "5495": 255,
        "5496": 238,
        "5497": 110,
        "5498": 84,
        "5499": 145,
        "5500": 197,
        "5501": 173,
        "5502": 204,
        "5503": 101,
        "5504": 155,
        "5505": 119,
        "5506": 18,
        "5507": 110,
        "5508": 22,
        "5509": 155,
        "5510": 24,
        "5511": 18,
        "5512": 154,
        "5513": 214,
        "5514": 208,
        "5515": 91,
        "5516": 24,
        "5517": 92,
        "5518": 50,
        "5519": 209,
        "5520": 131,
        "5521": 15,
        "5522": 231,
        "5523": 170,
        "5524": 19,
        "5525": 193,
        "5526": 7,
        "5527": 43,
        "5528": 120,
        "5529": 151,
        "5530": 3,
        "5531": 74,
        "5532": 79,
        "5533": 145,
        "5534": 137,
        "5535": 57,
        "5536": 247,
        "5537": 37,
        "5538": 224,
        "5539": 207,
        "5540": 46,
        "5541": 19,
        "5542": 48,
        "5543": 31,
        "5544": 32,
        "5545": 143,
        "5546": 61,
        "5547": 18,
        "5548": 128,
        "5549": 86,
        "5550": 66,
        "5551": 71,
        "5552": 160,
        "5553": 3,
        "5554": 174,
        "5555": 45,
        "5556": 23,
        "5557": 101,
        "5558": 33,
        "5559": 89,
        "5560": 239,
        "5561": 174,
        "5562": 185,
        "5563": 146,
        "5564": 197,
        "5565": 151,
        "5566": 205,
        "5567": 150,
        "5568": 83,
        "5569": 246,
        "5570": 65,
        "5571": 184,
        "5572": 230,
        "5573": 220,
        "5574": 192,
        "5575": 42,
        "5576": 43,
        "5577": 80,
        "5578": 76,
        "5579": 57,
        "5580": 140,
        "5581": 116,
        "5582": 136,
        "5583": 183,
        "5584": 85,
        "5585": 85,
        "5586": 15,
        "5587": 218,
        "5588": 10,
        "5589": 177,
        "5590": 101,
        "5591": 174,
        "5592": 244,
        "5593": 91,
        "5594": 244,
        "5595": 64,
        "5596": 23,
        "5597": 114,
        "5598": 102,
        "5599": 177,
        "5600": 31,
        "5601": 139,
        "5602": 130,
        "5603": 138,
        "5604": 44,
        "5605": 64,
        "5606": 202,
        "5607": 137,
        "5608": 64,
        "5609": 15,
        "5610": 92,
        "5611": 72,
        "5612": 112,
        "5613": 63,
        "5614": 206,
        "5615": 187,
        "5616": 122,
        "5617": 82,
        "5618": 199,
        "5619": 58,
        "5620": 172,
        "5621": 175,
        "5622": 38,
        "5623": 128,
        "5624": 119,
        "5625": 247,
        "5626": 188,
        "5627": 236,
        "5628": 78,
        "5629": 166,
        "5630": 148,
        "5631": 21,
        "5632": 175,
        "5633": 161,
        "5634": 225,
        "5635": 25,
        "5636": 214,
        "5637": 144,
        "5638": 137,
        "5639": 142,
        "5640": 70,
        "5641": 112,
        "5642": 249,
        "5643": 44,
        "5644": 84,
        "5645": 60,
        "5646": 30,
        "5647": 4,
        "5648": 63,
        "5649": 146,
        "5650": 195,
        "5651": 86,
        "5652": 31,
        "5653": 182,
        "5654": 53,
        "5655": 206,
        "5656": 223,
        "5657": 222,
        "5658": 181,
        "5659": 146,
        "5660": 154,
        "5661": 208,
        "5662": 228,
        "5663": 151,
        "5664": 61,
        "5665": 24,
        "5666": 10,
        "5667": 221,
        "5668": 252,
        "5669": 117,
        "5670": 246,
        "5671": 94,
        "5672": 169,
        "5673": 223,
        "5674": 60,
        "5675": 51,
        "5676": 188,
        "5677": 12,
        "5678": 192,
        "5679": 68,
        "5680": 93,
        "5681": 150,
        "5682": 20,
        "5683": 142,
        "5684": 57,
        "5685": 25,
        "5686": 48,
        "5687": 24,
        "5688": 70,
        "5689": 101,
        "5690": 254,
        "5691": 7,
        "5692": 79,
        "5693": 13,
        "5694": 208,
        "5695": 181,
        "5696": 241,
        "5697": 110,
        "5698": 123,
        "5699": 215,
        "5700": 9,
        "5701": 30,
        "5702": 147,
        "5703": 117,
        "5704": 96,
        "5705": 70,
        "5706": 95,
        "5707": 100,
        "5708": 64,
        "5709": 38,
        "5710": 30,
        "5711": 83,
        "5712": 171,
        "5713": 93,
        "5714": 179,
        "5715": 40,
        "5716": 115,
        "5717": 103,
        "5718": 190,
        "5719": 142,
        "5720": 63,
        "5721": 206,
        "5722": 39,
        "5723": 252,
        "5724": 57,
        "5725": 252,
        "5726": 29,
        "5727": 238,
        "5728": 56,
        "5729": 85,
        "5730": 211,
        "5731": 38,
        "5732": 176,
        "5733": 121,
        "5734": 74,
        "5735": 143,
        "5736": 162,
        "5737": 226,
        "5738": 158,
        "5739": 185,
        "5740": 61,
        "5741": 27,
        "5742": 158,
        "5743": 59,
        "5744": 240,
        "5745": 151,
        "5746": 196,
        "5747": 189,
        "5748": 153,
        "5749": 170,
        "5750": 154,
        "5751": 95,
        "5752": 178,
        "5753": 178,
        "5754": 25,
        "5755": 137,
        "5756": 123,
        "5757": 144,
        "5758": 167,
        "5759": 108,
        "5760": 48,
        "5761": 50,
        "5762": 35,
        "5763": 6,
        "5764": 60,
        "5765": 167,
        "5766": 137,
        "5767": 228,
        "5768": 202,
        "5769": 243,
        "5770": 122,
        "5771": 130,
        "5772": 83,
        "5773": 209,
        "5774": 222,
        "5775": 114,
        "5776": 49,
        "5777": 120,
        "5778": 22,
        "5779": 86,
        "5780": 232,
        "5781": 41,
        "5782": 50,
        "5783": 49,
        "5784": 156,
        "5785": 103,
        "5786": 52,
        "5787": 143,
        "5788": 144,
        "5789": 84,
        "5790": 237,
        "5791": 224,
        "5792": 3,
        "5793": 50,
        "5794": 49,
        "5795": 49,
        "5796": 173,
        "5797": 188,
        "5798": 211,
        "5799": 157,
        "5800": 50,
        "5801": 87,
        "5802": 237,
        "5803": 253,
        "5804": 226,
        "5805": 201,
        "5806": 251,
        "5807": 184,
        "5808": 21,
        "5809": 190,
        "5810": 251,
        "5811": 24,
        "5812": 87,
        "5813": 94,
        "5814": 160,
        "5815": 51,
        "5816": 222,
        "5817": 66,
        "5818": 34,
        "5819": 236,
        "5820": 251,
        "5821": 204,
        "5822": 197,
        "5823": 72,
        "5824": 127,
        "5825": 130,
        "5826": 6,
        "5827": 38,
        "5828": 154,
        "5829": 74,
        "5830": 252,
        "5831": 234,
        "5832": 186,
        "5833": 81,
        "5834": 142,
        "5835": 67,
        "5836": 154,
        "5837": 212,
        "5838": 208,
        "5839": 75,
        "5840": 48,
        "5841": 139,
        "5842": 77,
        "5843": 14,
        "5844": 219,
        "5845": 104,
        "5846": 193,
        "5847": 17,
        "5848": 89,
        "5849": 190,
        "5850": 31,
        "5851": 148,
        "5852": 61,
        "5853": 160,
        "5854": 220,
        "5855": 93,
        "5856": 12,
        "5857": 247,
        "5858": 176,
        "5859": 29,
        "5860": 37,
        "5861": 164,
        "5862": 69,
        "5863": 214,
        "5864": 59,
        "5865": 83,
        "5866": 220,
        "5867": 37,
        "5868": 160,
        "5869": 96,
        "5870": 190,
        "5871": 239,
        "5872": 202,
        "5873": 121,
        "5874": 93,
        "5875": 213,
        "5876": 108,
        "5877": 81,
        "5878": 53,
        "5879": 244,
        "5880": 231,
        "5881": 229,
        "5882": 142,
        "5883": 16,
        "5884": 51,
        "5885": 193,
        "5886": 71,
        "5887": 34,
        "5888": 2,
        "5889": 33,
        "5890": 60,
        "5891": 233,
        "5892": 237,
        "5893": 221,
        "5894": 226,
        "5895": 61,
        "5896": 35,
        "5897": 241,
        "5898": 54,
        "5899": 85,
        "5900": 206,
        "5901": 226,
        "5902": 96,
        "5903": 21,
        "5904": 150,
        "5905": 107,
        "5906": 25,
        "5907": 70,
        "5908": 166,
        "5909": 74,
        "5910": 100,
        "5911": 169,
        "5912": 189,
        "5913": 74,
        "5914": 14,
        "5915": 163,
        "5916": 238,
        "5917": 232,
        "5918": 233,
        "5919": 186,
        "5920": 160,
        "5921": 34,
        "5922": 155,
        "5923": 196,
        "5924": 6,
        "5925": 243,
        "5926": 230,
        "5927": 140,
        "5928": 195,
        "5929": 251,
        "5930": 33,
        "5931": 20,
        "5932": 207,
        "5933": 147,
        "5934": 185,
        "5935": 239,
        "5936": 129,
        "5937": 157,
        "5938": 167,
        "5939": 151,
        "5940": 218,
        "5941": 190,
        "5942": 86,
        "5943": 65,
        "5944": 75,
        "5945": 37,
        "5946": 176,
        "5947": 7,
        "5948": 123,
        "5949": 12,
        "5950": 108,
        "5951": 0,
        "5952": 252,
        "5953": 6,
        "5954": 113,
        "5955": 188,
        "5956": 241,
        "5957": 84,
        "5958": 222,
        "5959": 223,
        "5960": 129,
        "5961": 144,
        "5962": 44,
        "5963": 26,
        "5964": 252,
        "5965": 40,
        "5966": 58,
        "5967": 216,
        "5968": 253,
        "5969": 84,
        "5970": 165,
        "5971": 3,
        "5972": 223,
        "5973": 196,
        "5974": 180,
        "5975": 106,
        "5976": 123,
        "5977": 40,
        "5978": 5,
        "5979": 164,
        "5980": 62,
        "5981": 131,
        "5982": 19,
        "5983": 82,
        "5984": 9,
        "5985": 252,
        "5986": 15,
        "5987": 251,
        "5988": 38,
        "5989": 177,
        "5990": 54,
        "5991": 145,
        "5992": 191,
        "5993": 229,
        "5994": 197,
        "5995": 126,
        "5996": 141,
        "5997": 177,
        "5998": 103,
        "5999": 26,
        "6000": 35,
        "6001": 240,
        "6002": 99,
        "6003": 12,
        "6004": 129,
        "6005": 193,
        "6006": 188,
        "6007": 28,
        "6008": 157,
        "6009": 181,
        "6010": 59,
        "6011": 200,
        "6012": 238,
        "6013": 160,
        "6014": 156,
        "6015": 138,
        "6016": 198,
        "6017": 38,
        "6018": 156,
        "6019": 190,
        "6020": 152,
        "6021": 170,
        "6022": 113,
        "6023": 101,
        "6024": 52,
        "6025": 177,
        "6026": 88,
        "6027": 233,
        "6028": 151,
        "6029": 199,
        "6030": 113,
        "6031": 23,
        "6032": 2,
        "6033": 253,
        "6034": 57,
        "6035": 206,
        "6036": 219,
        "6037": 105,
        "6038": 208,
        "6039": 1,
        "6040": 119,
        "6041": 208,
        "6042": 7,
        "6043": 231,
        "6044": 130,
        "6045": 94,
        "6046": 66,
        "6047": 251,
        "6048": 145,
        "6049": 250,
        "6050": 83,
        "6051": 70,
        "6052": 193,
        "6053": 48,
        "6054": 68,
        "6055": 30,
        "6056": 67,
        "6057": 122,
        "6058": 45,
        "6059": 190,
        "6060": 7,
        "6061": 85,
        "6062": 195,
        "6063": 196,
        "6064": 187,
        "6065": 54,
        "6066": 201,
        "6067": 16,
        "6068": 39,
        "6069": 136,
        "6070": 238,
        "6071": 107,
        "6072": 251,
        "6073": 162,
        "6074": 223,
        "6075": 171,
        "6076": 37,
        "6077": 88,
        "6078": 183,
        "6079": 199,
        "6080": 62,
        "6081": 194,
        "6082": 233,
        "6083": 229,
        "6084": 13,
        "6085": 34,
        "6086": 177,
        "6087": 173,
        "6088": 221,
        "6089": 189,
        "6090": 227,
        "6091": 193,
        "6092": 41,
        "6093": 204,
        "6094": 56,
        "6095": 64,
        "6096": 59,
        "6097": 230,
        "6098": 75,
        "6099": 7,
        "6100": 102,
        "6101": 144,
        "6102": 6,
        "6103": 251,
        "6104": 224,
        "6105": 96,
        "6106": 184,
        "6107": 166,
        "6108": 8,
        "6109": 199,
        "6110": 214,
        "6111": 165,
        "6112": 22,
        "6113": 108,
        "6114": 226,
        "6115": 245,
        "6116": 161,
        "6117": 17,
        "6118": 105,
        "6119": 52,
        "6120": 233,
        "6121": 113,
        "6122": 69,
        "6123": 114,
        "6124": 138,
        "6125": 123,
        "6126": 68,
        "6127": 22,
        "6128": 136,
        "6129": 192,
        "6130": 157,
        "6131": 138,
        "6132": 31,
        "6133": 39,
        "6134": 198,
        "6135": 233,
        "6136": 122,
        "6137": 42,
        "6138": 255,
        "6139": 90,
        "6140": 125,
        "6141": 51,
        "6142": 224,
        "6143": 136,
        "6144": 96,
        "6145": 228,
        "6146": 50,
        "6147": 193,
        "6148": 194,
        "6149": 243,
        "6150": 20,
        "6151": 231,
        "6152": 105,
        "6153": 170,
        "6154": 229,
        "6155": 57,
        "6156": 157,
        "6157": 219,
        "6158": 241,
        "6159": 70,
        "6160": 31,
        "6161": 69,
        "6162": 135,
        "6163": 114,
        "6164": 37,
        "6165": 44,
        "6166": 221,
        "6167": 20,
        "6168": 118,
        "6169": 151,
        "6170": 240,
        "6171": 199,
        "6172": 217,
        "6173": 227,
        "6174": 200,
        "6175": 62,
        "6176": 55,
        "6177": 220,
        "6178": 195,
        "6179": 38,
        "6180": 178,
        "6181": 140,
        "6182": 166,
        "6183": 39,
        "6184": 229,
        "6185": 104,
        "6186": 129,
        "6187": 94,
        "6188": 66,
        "6189": 146,
        "6190": 14,
        "6191": 246,
        "6192": 78,
        "6193": 237,
        "6194": 231,
        "6195": 173,
        "6196": 78,
        "6197": 162,
        "6198": 134,
        "6199": 105,
        "6200": 30,
        "6201": 170,
        "6202": 125,
        "6203": 35,
        "6204": 153,
        "6205": 199,
        "6206": 64,
        "6207": 14,
        "6208": 145,
        "6209": 33,
        "6210": 98,
        "6211": 196,
        "6212": 183,
        "6213": 134,
        "6214": 86,
        "6215": 161,
        "6216": 224,
        "6217": 198,
        "6218": 220,
        "6219": 207,
        "6220": 79,
        "6221": 92,
        "6222": 151,
        "6223": 212,
        "6224": 155,
        "6225": 52,
        "6226": 145,
        "6227": 221,
        "6228": 251,
        "6229": 13,
        "6230": 217,
        "6231": 124,
        "6232": 140,
        "6233": 5,
        "6234": 4,
        "6235": 58,
        "6236": 12,
        "6237": 236,
        "6238": 108,
        "6239": 226,
        "6240": 145,
        "6241": 232,
        "6242": 229,
        "6243": 47,
        "6244": 210,
        "6245": 105,
        "6246": 41,
        "6247": 232,
        "6248": 54,
        "6249": 101,
        "6250": 233,
        "6251": 47,
        "6252": 106,
        "6253": 137,
        "6254": 250,
        "6255": 134,
        "6256": 72,
        "6257": 38,
        "6258": 68,
        "6259": 155,
        "6260": 246,
        "6261": 118,
        "6262": 251,
        "6263": 83,
        "6264": 79,
        "6265": 35,
        "6266": 198,
        "6267": 14,
        "6268": 102,
        "6269": 71,
        "6270": 91,
        "6271": 196,
        "6272": 53,
        "6273": 2,
        "6274": 21,
        "6275": 174,
        "6276": 8,
        "6277": 117,
        "6278": 170,
        "6279": 22,
        "6280": 180,
        "6281": 82,
        "6282": 169,
        "6283": 100,
        "6284": 161,
        "6285": 54,
        "6286": 145,
        "6287": 82,
        "6288": 217,
        "6289": 126,
        "6290": 194,
        "6291": 71,
        "6292": 110,
        "6293": 213,
        "6294": 194,
        "6295": 51,
        "6296": 158,
        "6297": 57,
        "6298": 230,
        "6299": 114,
        "6300": 166,
        "6301": 78,
        "6302": 210,
        "6303": 36,
        "6304": 0,
        "6305": 78,
        "6306": 71,
        "6307": 101,
        "6308": 38,
        "6309": 254,
        "6310": 231,
        "6311": 179,
        "6312": 12,
        "6313": 219,
        "6314": 4,
        "6315": 63,
        "6316": 112,
        "6317": 41,
        "6318": 178,
        "6319": 115,
        "6320": 235,
        "6321": 214,
        "6322": 180,
        "6323": 69,
        "6324": 102,
        "6325": 28,
        "6326": 148,
        "6327": 16,
        "6328": 212,
        "6329": 20,
        "6330": 46,
        "6331": 209,
        "6332": 129,
        "6333": 244,
        "6334": 45,
        "6335": 131,
        "6336": 47,
        "6337": 17,
        "6338": 28,
        "6339": 91,
        "6340": 223,
        "6341": 11,
        "6342": 155,
        "6343": 182,
        "6344": 75,
        "6345": 71,
        "6346": 143,
        "6347": 120,
        "6348": 95,
        "6349": 93,
        "6350": 244,
        "6351": 39,
        "6352": 39,
        "6353": 132,
        "6354": 52,
        "6355": 135,
        "6356": 175,
        "6357": 6,
        "6358": 69,
        "6359": 216,
        "6360": 162,
        "6361": 171,
        "6362": 59,
        "6363": 224,
        "6364": 149,
        "6365": 59,
        "6366": 134,
        "6367": 103,
        "6368": 129,
        "6369": 63,
        "6370": 236,
        "6371": 124,
        "6372": 241,
        "6373": 93,
        "6374": 240,
        "6375": 140,
        "6376": 123,
        "6377": 117,
        "6378": 253,
        "6379": 39,
        "6380": 30,
        "6381": 67,
        "6382": 105,
        "6383": 81,
        "6384": 125,
        "6385": 244,
        "6386": 209,
        "6387": 237,
        "6388": 47,
        "6389": 176,
        "6390": 21,
        "6391": 188,
        "6392": 201,
        "6393": 190,
        "6394": 231,
        "6395": 86,
        "6396": 174,
        "6397": 159,
        "6398": 180,
        "6399": 24,
        "6400": 32,
        "6401": 54,
        "6402": 146,
        "6403": 233,
        "6404": 126,
        "6405": 176,
        "6406": 177,
        "6407": 115,
        "6408": 90,
        "6409": 31,
        "6410": 228,
        "6411": 234,
        "6412": 77,
        "6413": 191,
        "6414": 186,
        "6415": 50,
        "6416": 225,
        "6417": 95,
        "6418": 94,
        "6419": 128,
        "6420": 9,
        "6421": 78,
        "6422": 178,
        "6423": 203,
        "6424": 9,
        "6425": 101,
        "6426": 230,
        "6427": 18,
        "6428": 134,
        "6429": 66,
        "6430": 175,
        "6431": 174,
        "6432": 54,
        "6433": 158,
        "6434": 105,
        "6435": 86,
        "6436": 174,
        "6437": 76,
        "6438": 60,
        "6439": 105,
        "6440": 217,
        "6441": 87,
        "6442": 128,
        "6443": 148,
        "6444": 172,
        "6445": 38,
        "6446": 4,
        "6447": 68,
        "6448": 144,
        "6449": 167,
        "6450": 33,
        "6451": 188,
        "6452": 17,
        "6453": 68,
        "6454": 42,
        "6455": 94,
        "6456": 111,
        "6457": 219,
        "6458": 153,
        "6459": 124,
        "6460": 139,
        "6461": 123,
        "6462": 103,
        "6463": 198,
        "6464": 6,
        "6465": 17,
        "6466": 208,
        "6467": 123,
        "6468": 100,
        "6469": 210,
        "6470": 219,
        "6471": 179,
        "6472": 253,
        "6473": 224,
        "6474": 146,
        "6475": 53,
        "6476": 188,
        "6477": 4,
        "6478": 170,
        "6479": 157,
        "6480": 102,
        "6481": 156,
        "6482": 200,
        "6483": 80,
        "6484": 201,
        "6485": 168,
        "6486": 52,
        "6487": 1,
        "6488": 84,
        "6489": 130,
        "6490": 167,
        "6491": 82,
        "6492": 172,
        "6493": 155,
        "6494": 248,
        "6495": 151,
        "6496": 177,
        "6497": 255,
        "6498": 127,
        "6499": 74,
        "6500": 116,
        "6501": 141,
        "6502": 193,
        "6503": 104,
        "6504": 70,
        "6505": 43,
        "6506": 153,
        "6507": 73,
        "6508": 216,
        "6509": 122,
        "6510": 120,
        "6511": 50,
        "6512": 61,
        "6513": 121,
        "6514": 59,
        "6515": 252,
        "6516": 74,
        "6517": 147,
        "6518": 156,
        "6519": 66,
        "6520": 184,
        "6521": 63,
        "6522": 1,
        "6523": 104,
        "6524": 231,
        "6525": 213,
        "6526": 54,
        "6527": 190,
        "6528": 30,
        "6529": 14,
        "6530": 50,
        "6531": 94,
        "6532": 2,
        "6533": 254,
        "6534": 164,
        "6535": 90,
        "6536": 134,
        "6537": 105,
        "6538": 101,
        "6539": 255,
        "6540": 113,
        "6541": 107,
        "6542": 15,
        "6543": 163,
        "6544": 128,
        "6545": 233,
        "6546": 112,
        "6547": 108,
        "6548": 150,
        "6549": 176,
        "6550": 105,
        "6551": 212,
        "6552": 121,
        "6553": 252,
        "6554": 185,
        "6555": 248,
        "6556": 17,
        "6557": 24,
        "6558": 136,
        "6559": 111,
        "6560": 156,
        "6561": 173,
        "6562": 224,
        "6563": 184,
        "6564": 114,
        "6565": 246,
        "6566": 178,
        "6567": 156,
        "6568": 143,
        "6569": 245,
        "6570": 0,
        "6571": 157,
        "6572": 157,
        "6573": 173,
        "6574": 68,
        "6575": 26,
        "6576": 121,
        "6577": 241,
        "6578": 215,
        "6579": 39,
        "6580": 166,
        "6581": 9,
        "6582": 66,
        "6583": 226,
        "6584": 248,
        "6585": 214,
        "6586": 252,
        "6587": 204,
        "6588": 121,
        "6589": 249,
        "6590": 35,
        "6591": 17,
        "6592": 197,
        "6593": 43,
        "6594": 103,
        "6595": 81,
        "6596": 57,
        "6597": 78,
        "6598": 1,
        "6599": 195,
        "6600": 160,
        "6601": 172,
        "6602": 55,
        "6603": 104,
        "6604": 131,
        "6605": 205,
        "6606": 237,
        "6607": 114,
        "6608": 20,
        "6609": 58,
        "6610": 146,
        "6611": 26,
        "6612": 201,
        "6613": 162,
        "6614": 185,
        "6615": 106,
        "6616": 246,
        "6617": 185,
        "6618": 254,
        "6619": 2,
        "6620": 139,
        "6621": 225,
        "6622": 247,
        "6623": 112,
        "6624": 222,
        "6625": 139,
        "6626": 171,
        "6627": 179,
        "6628": 182,
        "6629": 103,
        "6630": 84,
        "6631": 225,
        "6632": 203,
        "6633": 111,
        "6634": 88,
        "6635": 143,
        "6636": 17,
        "6637": 90,
        "6638": 80,
        "6639": 81,
        "6640": 162,
        "6641": 200,
        "6642": 208,
        "6643": 18,
        "6644": 102,
        "6645": 197,
        "6646": 180,
        "6647": 141,
        "6648": 217,
        "6649": 19,
        "6650": 112,
        "6651": 79,
        "6652": 164,
        "6653": 144,
        "6654": 89,
        "6655": 148,
        "6656": 231,
        "6657": 174,
        "6658": 209,
        "6659": 124,
        "6660": 82,
        "6661": 92,
        "6662": 255,
        "6663": 174,
        "6664": 9,
        "6665": 90,
        "6666": 7,
        "6667": 89,
        "6668": 232,
        "6669": 199,
        "6670": 134,
        "6671": 68,
        "6672": 124,
        "6673": 74,
        "6674": 192,
        "6675": 87,
        "6676": 172,
        "6677": 250,
        "6678": 64,
        "6679": 94,
        "6680": 220,
        "6681": 171,
        "6682": 98,
        "6683": 91,
        "6684": 19,
        "6685": 57,
        "6686": 113,
        "6687": 156,
        "6688": 196,
        "6689": 174,
        "6690": 72,
        "6691": 44,
        "6692": 33,
        "6693": 46,
        "6694": 200,
        "6695": 24,
        "6696": 10,
        "6697": 76,
        "6698": 107,
        "6699": 102,
        "6700": 251,
        "6701": 4,
        "6702": 21,
        "6703": 229,
        "6704": 176,
        "6705": 146,
        "6706": 20,
        "6707": 211,
        "6708": 58,
        "6709": 115,
        "6710": 213,
        "6711": 97,
        "6712": 180,
        "6713": 100,
        "6714": 253,
        "6715": 236,
        "6716": 89,
        "6717": 193,
        "6718": 164,
        "6719": 33,
        "6720": 166,
        "6721": 185,
        "6722": 205,
        "6723": 252,
        "6724": 210,
        "6725": 144,
        "6726": 155,
        "6727": 107,
        "6728": 205,
        "6729": 59,
        "6730": 50,
        "6731": 207,
        "6732": 29,
        "6733": 238,
        "6734": 95,
        "6735": 15,
        "6736": 47,
        "6737": 39,
        "6738": 103,
        "6739": 104,
        "6740": 76,
        "6741": 168,
        "6742": 134,
        "6743": 130,
        "6744": 62,
        "6745": 165,
        "6746": 111,
        "6747": 192,
        "6748": 250,
        "6749": 49,
        "6750": 117,
        "6751": 20,
        "6752": 123,
        "6753": 59,
        "6754": 1,
        "6755": 186,
        "6756": 217,
        "6757": 75,
        "6758": 36,
        "6759": 216,
        "6760": 62,
        "6761": 22,
        "6762": 190,
        "6763": 65,
        "6764": 156,
        "6765": 129,
        "6766": 41,
        "6767": 55,
        "6768": 254,
        "6769": 143,
        "6770": 135,
        "6771": 136,
        "6772": 219,
        "6773": 21,
        "6774": 64,
        "6775": 150,
        "6776": 74,
        "6777": 70,
        "6778": 179,
        "6779": 161,
        "6780": 150,
        "6781": 56,
        "6782": 105,
        "6783": 78,
        "6784": 74,
        "6785": 203,
        "6786": 77,
        "6787": 2,
        "6788": 64,
        "6789": 180,
        "6790": 81,
        "6791": 53,
        "6792": 60,
        "6793": 83,
        "6794": 213,
        "6795": 74,
        "6796": 95,
        "6797": 41,
        "6798": 16,
        "6799": 99,
        "6800": 1,
        "6801": 196,
        "6802": 184,
        "6803": 224,
        "6804": 100,
        "6805": 132,
        "6806": 180,
        "6807": 9,
        "6808": 106,
        "6809": 235,
        "6810": 155,
        "6811": 15,
        "6812": 190,
        "6813": 133,
        "6814": 31,
        "6815": 30,
        "6816": 13,
        "6817": 163,
        "6818": 175,
        "6819": 152,
        "6820": 199,
        "6821": 107,
        "6822": 156,
        "6823": 226,
        "6824": 145,
        "6825": 253,
        "6826": 120,
        "6827": 147,
        "6828": 24,
        "6829": 105,
        "6830": 73,
        "6831": 139,
        "6832": 91,
        "6833": 138,
        "6834": 253,
        "6835": 235,
        "6836": 238,
        "6837": 132,
        "6838": 80,
        "6839": 151,
        "6840": 184,
        "6841": 183,
        "6842": 90,
        "6843": 91,
        "6844": 150,
        "6845": 153,
        "6846": 176,
        "6847": 111,
        "6848": 57,
        "6849": 192,
        "6850": 62,
        "6851": 85,
        "6852": 128,
        "6853": 19,
        "6854": 21,
        "6855": 245,
        "6856": 144,
        "6857": 18,
        "6858": 199,
        "6859": 178,
        "6860": 8,
        "6861": 37,
        "6862": 54,
        "6863": 7,
        "6864": 19,
        "6865": 73,
        "6866": 253,
        "6867": 100,
        "6868": 121,
        "6869": 29,
        "6870": 49,
        "6871": 103,
        "6872": 231,
        "6873": 176,
        "6874": 139,
        "6875": 220,
        "6876": 1,
        "6877": 33,
        "6878": 144,
        "6879": 197,
        "6880": 2,
        "6881": 185,
        "6882": 40,
        "6883": 70,
        "6884": 48,
        "6885": 241,
        "6886": 197,
        "6887": 73,
        "6888": 236,
        "6889": 80,
        "6890": 111,
        "6891": 20,
        "6892": 183,
        "6893": 167,
        "6894": 168,
        "6895": 210,
        "6896": 39,
        "6897": 182,
        "6898": 104,
        "6899": 62,
        "6900": 165,
        "6901": 20,
        "6902": 138,
        "6903": 140,
        "6904": 29,
        "6905": 142,
        "6906": 153,
        "6907": 36,
        "6908": 74,
        "6909": 244,
        "6910": 245,
        "6911": 121,
        "6912": 182,
        "6913": 92,
        "6914": 50,
        "6915": 159,
        "6916": 37,
        "6917": 137,
        "6918": 213,
        "6919": 250,
        "6920": 182,
        "6921": 127,
        "6922": 179,
        "6923": 166,
        "6924": 185,
        "6925": 45,
        "6926": 224,
        "6927": 173,
        "6928": 12,
        "6929": 172,
        "6930": 116,
        "6931": 171,
        "6932": 154,
        "6933": 178,
        "6934": 136,
        "6935": 91,
        "6936": 126,
        "6937": 60,
        "6938": 84,
        "6939": 2,
        "6940": 106,
        "6941": 226,
        "6942": 249,
        "6943": 252,
        "6944": 102,
        "6945": 100,
        "6946": 227,
        "6947": 56,
        "6948": 169,
        "6949": 165,
        "6950": 181,
        "6951": 14,
        "6952": 113,
        "6953": 23,
        "6954": 108,
        "6955": 129,
        "6956": 92,
        "6957": 13,
        "6958": 81,
        "6959": 253,
        "6960": 42,
        "6961": 210,
        "6962": 170,
        "6963": 226,
        "6964": 88,
        "6965": 64,
        "6966": 242,
        "6967": 130,
        "6968": 202,
        "6969": 230,
        "6970": 83,
        "6971": 37,
        "6972": 88,
        "6973": 251,
        "6974": 133,
        "6975": 3,
        "6976": 229,
        "6977": 245,
        "6978": 56,
        "6979": 91,
        "6980": 32,
        "6981": 170,
        "6982": 121,
        "6983": 106,
        "6984": 76,
        "6985": 80,
        "6986": 42,
        "6987": 204,
        "6988": 71,
        "6989": 131,
        "6990": 126,
        "6991": 18,
        "6992": 62,
        "6993": 98,
        "6994": 115,
        "6995": 240,
        "6996": 145,
        "6997": 19,
        "6998": 118,
        "6999": 179,
        "7000": 113,
        "7001": 76,
        "7002": 111,
        "7003": 186,
        "7004": 48,
        "7005": 52,
        "7006": 145,
        "7007": 60,
        "7008": 38,
        "7009": 248,
        "7010": 115,
        "7011": 221,
        "7012": 111,
        "7013": 74,
        "7014": 64,
        "7015": 66,
        "7016": 1,
        "7017": 140,
        "7018": 166,
        "7019": 106,
        "7020": 170,
        "7021": 160,
        "7022": 218,
        "7023": 40,
        "7024": 125,
        "7025": 166,
        "7026": 41,
        "7027": 203,
        "7028": 165,
        "7029": 102,
        "7030": 126,
        "7031": 175,
        "7032": 229,
        "7033": 69,
        "7034": 63,
        "7035": 122,
        "7036": 10,
        "7037": 201,
        "7038": 59,
        "7039": 81,
        "7040": 45,
        "7041": 248,
        "7042": 244,
        "7043": 31,
        "7044": 169,
        "7045": 32,
        "7046": 175,
        "7047": 48,
        "7048": 52,
        "7049": 79,
        "7050": 190,
        "7051": 240,
        "7052": 161,
        "7053": 5,
        "7054": 69,
        "7055": 75,
        "7056": 184,
        "7057": 182,
        "7058": 210,
        "7059": 5,
        "7060": 111,
        "7061": 242,
        "7062": 106,
        "7063": 105,
        "7064": 64,
        "7065": 132,
        "7066": 51,
        "7067": 186,
        "7068": 20,
        "7069": 105,
        "7070": 104,
        "7071": 202,
        "7072": 31,
        "7073": 75,
        "7074": 10,
        "7075": 133,
        "7076": 128,
        "7077": 134,
        "7078": 136,
        "7079": 57,
        "7080": 173,
        "7081": 31,
        "7082": 43,
        "7083": 105,
        "7084": 74,
        "7085": 217,
        "7086": 210,
        "7087": 122,
        "7088": 146,
        "7089": 178,
        "7090": 124,
        "7091": 39,
        "7092": 158,
        "7093": 233,
        "7094": 196,
        "7095": 172,
        "7096": 143,
        "7097": 18,
        "7098": 151,
        "7099": 122,
        "7100": 16,
        "7101": 153,
        "7102": 94,
        "7103": 235,
        "7104": 248,
        "7105": 175,
        "7106": 129,
        "7107": 32,
        "7108": 54,
        "7109": 87,
        "7110": 232,
        "7111": 128,
        "7112": 206,
        "7113": 9,
        "7114": 216,
        "7115": 192,
        "7116": 245,
        "7117": 76,
        "7118": 127,
        "7119": 228,
        "7120": 46,
        "7121": 217,
        "7122": 219,
        "7123": 156,
        "7124": 147,
        "7125": 215,
        "7126": 50,
        "7127": 230,
        "7128": 156,
        "7129": 204,
        "7130": 231,
        "7131": 217,
        "7132": 27,
        "7133": 72,
        "7134": 68,
        "7135": 157,
        "7136": 130,
        "7137": 213,
        "7138": 165,
        "7139": 28,
        "7140": 229,
        "7141": 231,
        "7142": 171,
        "7143": 91,
        "7144": 98,
        "7145": 138,
        "7146": 29,
        "7147": 184,
        "7148": 75,
        "7149": 242,
        "7150": 133,
        "7151": 43,
        "7152": 163,
        "7153": 156,
        "7154": 3,
        "7155": 251,
        "7156": 19,
        "7157": 240,
        "7158": 11,
        "7159": 146,
        "7160": 125,
        "7161": 34,
        "7162": 238,
        "7163": 55,
        "7164": 157,
        "7165": 68,
        "7166": 9,
        "7167": 113,
        "7168": 187,
        "7169": 57,
        "7170": 32,
        "7171": 239,
        "7172": 30,
        "7173": 186,
        "7174": 124,
        "7175": 170,
        "7176": 233,
        "7177": 172,
        "7178": 102,
        "7179": 58,
        "7180": 200,
        "7181": 33,
        "7182": 145,
        "7183": 213,
        "7184": 213,
        "7185": 175,
        "7186": 48,
        "7187": 74,
        "7188": 222,
        "7189": 249,
        "7190": 120,
        "7191": 203,
        "7192": 126,
        "7193": 49,
        "7194": 26,
        "7195": 200,
        "7196": 41,
        "7197": 241,
        "7198": 126,
        "7199": 58,
        "7200": 246,
        "7201": 38,
        "7202": 254,
        "7203": 151,
        "7204": 68,
        "7205": 250,
        "7206": 217,
        "7207": 173,
        "7208": 222,
        "7209": 20,
        "7210": 184,
        "7211": 61,
        "7212": 33,
        "7213": 23,
        "7214": 77,
        "7215": 232,
        "7216": 34,
        "7217": 153,
        "7218": 41,
        "7219": 96,
        "7220": 90,
        "7221": 105,
        "7222": 119,
        "7223": 179,
        "7224": 43,
        "7225": 1,
        "7226": 132,
        "7227": 127,
        "7228": 12,
        "7229": 32,
        "7230": 125,
        "7231": 28,
        "7232": 24,
        "7233": 111,
        "7234": 91,
        "7235": 90,
        "7236": 177,
        "7237": 48,
        "7238": 150,
        "7239": 49,
        "7240": 130,
        "7241": 69,
        "7242": 77,
        "7243": 93,
        "7244": 51,
        "7245": 18,
        "7246": 200,
        "7247": 70,
        "7248": 47,
        "7249": 143,
        "7250": 64,
        "7251": 217,
        "7252": 73,
        "7253": 146,
        "7254": 83,
        "7255": 76,
        "7256": 151,
        "7257": 184,
        "7258": 72,
        "7259": 97,
        "7260": 89,
        "7261": 39,
        "7262": 210,
        "7263": 24,
        "7264": 146,
        "7265": 54,
        "7266": 128,
        "7267": 131,
        "7268": 130,
        "7269": 185,
        "7270": 155,
        "7271": 229,
        "7272": 46,
        "7273": 118,
        "7274": 0,
        "7275": 33,
        "7276": 128,
        "7277": 167,
        "7278": 154,
        "7279": 252,
        "7280": 78,
        "7281": 246,
        "7282": 129,
        "7283": 178,
        "7284": 158,
        "7285": 13,
        "7286": 161,
        "7287": 172,
        "7288": 41,
        "7289": 136,
        "7290": 145,
        "7291": 248,
        "7292": 222,
        "7293": 96,
        "7294": 71,
        "7295": 16,
        "7296": 171,
        "7297": 60,
        "7298": 82,
        "7299": 245,
        "7300": 199,
        "7301": 223,
        "7302": 180,
        "7303": 36,
        "7304": 207,
        "7305": 108,
        "7306": 3,
        "7307": 238,
        "7308": 53,
        "7309": 82,
        "7310": 192,
        "7311": 193,
        "7312": 173,
        "7313": 108,
        "7314": 91,
        "7315": 250,
        "7316": 75,
        "7317": 81,
        "7318": 188,
        "7319": 13,
        "7320": 63,
        "7321": 98,
        "7322": 106,
        "7323": 187,
        "7324": 112,
        "7325": 90,
        "7326": 71,
        "7327": 161,
        "7328": 119,
        "7329": 7,
        "7330": 255,
        "7331": 225,
        "7332": 214,
        "7333": 201,
        "7334": 46,
        "7335": 71,
        "7336": 96,
        "7337": 29,
        "7338": 244,
        "7339": 167,
        "7340": 5,
        "7341": 174,
        "7342": 11,
        "7343": 28,
        "7344": 246,
        "7345": 176,
        "7346": 19,
        "7347": 73,
        "7348": 100,
        "7349": 78,
        "7350": 76,
        "7351": 210,
        "7352": 218,
        "7353": 54,
        "7354": 148,
        "7355": 52,
        "7356": 125,
        "7357": 238,
        "7358": 117,
        "7359": 238,
        "7360": 52,
        "7361": 98,
        "7362": 160,
        "7363": 157,
        "7364": 102,
        "7365": 212,
        "7366": 127,
        "7367": 22,
        "7368": 164,
        "7369": 95,
        "7370": 158,
        "7371": 199,
        "7372": 189,
        "7373": 33,
        "7374": 92,
        "7375": 163,
        "7376": 187,
        "7377": 71,
        "7378": 120,
        "7379": 236,
        "7380": 116,
        "7381": 54,
        "7382": 98,
        "7383": 11,
        "7384": 59,
        "7385": 38,
        "7386": 96,
        "7387": 162,
        "7388": 127,
        "7389": 229,
        "7390": 180,
        "7391": 220,
        "7392": 0,
        "7393": 55,
        "7394": 77,
        "7395": 226,
        "7396": 228,
        "7397": 208,
        "7398": 139,
        "7399": 56,
        "7400": 133,
        "7401": 138,
        "7402": 195,
        "7403": 67,
        "7404": 7,
        "7405": 92,
        "7406": 166,
        "7407": 181,
        "7408": 201,
        "7409": 38,
        "7410": 212,
        "7411": 240,
        "7412": 136,
        "7413": 67,
        "7414": 148,
        "7415": 97,
        "7416": 181,
        "7417": 176,
        "7418": 140,
        "7419": 71,
        "7420": 65,
        "7421": 139,
        "7422": 86,
        "7423": 121,
        "7424": 241,
        "7425": 170,
        "7426": 38,
        "7427": 251,
        "7428": 113,
        "7429": 201,
        "7430": 17,
        "7431": 108,
        "7432": 225,
        "7433": 129,
        "7434": 17,
        "7435": 98,
        "7436": 17,
        "7437": 95,
        "7438": 57,
        "7439": 202,
        "7440": 203,
        "7441": 236,
        "7442": 148,
        "7443": 186,
        "7444": 231,
        "7445": 82,
        "7446": 191,
        "7447": 191,
        "7448": 68,
        "7449": 29,
        "7450": 41,
        "7451": 77,
        "7452": 232,
        "7453": 29,
        "7454": 75,
        "7455": 6,
        "7456": 136,
        "7457": 206,
        "7458": 53,
        "7459": 5,
        "7460": 247,
        "7461": 130,
        "7462": 191,
        "7463": 90,
        "7464": 59,
        "7465": 227,
        "7466": 59,
        "7467": 133,
        "7468": 16,
        "7469": 21,
        "7470": 248,
        "7471": 229,
        "7472": 177,
        "7473": 143,
        "7474": 177,
        "7475": 172,
        "7476": 154,
        "7477": 242,
        "7478": 226,
        "7479": 92,
        "7480": 219,
        "7481": 61,
        "7482": 58,
        "7483": 33,
        "7484": 60,
        "7485": 80,
        "7486": 132,
        "7487": 205,
        "7488": 32,
        "7489": 57,
        "7490": 173,
        "7491": 76,
        "7492": 122,
        "7493": 220,
        "7494": 245,
        "7495": 182,
        "7496": 27,
        "7497": 162,
        "7498": 173,
        "7499": 166,
        "7500": 91,
        "7501": 144,
        "7502": 243,
        "7503": 123,
        "7504": 6,
        "7505": 122,
        "7506": 246,
        "7507": 47,
        "7508": 108,
        "7509": 55,
        "7510": 114,
        "7511": 172,
        "7512": 101,
        "7513": 31,
        "7514": 41,
        "7515": 76,
        "7516": 108,
        "7517": 155,
        "7518": 28,
        "7519": 221,
        "7520": 186,
        "7521": 131,
        "7522": 161,
        "7523": 125,
        "7524": 240,
        "7525": 46,
        "7526": 226,
        "7527": 108,
        "7528": 71,
        "7529": 14,
        "7530": 235,
        "7531": 33,
        "7532": 175,
        "7533": 160,
        "7534": 75,
        "7535": 101,
        "7536": 200,
        "7537": 53,
        "7538": 94,
        "7539": 64,
        "7540": 241,
        "7541": 165,
        "7542": 90,
        "7543": 49,
        "7544": 35,
        "7545": 71,
        "7546": 143,
        "7547": 70,
        "7548": 17,
        "7549": 238,
        "7550": 155,
        "7551": 165,
        "7552": 213,
        "7553": 84,
        "7554": 135,
        "7555": 254,
        "7556": 10,
        "7557": 101,
        "7558": 103,
        "7559": 224,
        "7560": 154,
        "7561": 251,
        "7562": 119,
        "7563": 47,
        "7564": 59,
        "7565": 157,
        "7566": 75,
        "7567": 76,
        "7568": 182,
        "7569": 83,
        "7570": 4,
        "7571": 204,
        "7572": 252,
        "7573": 219,
        "7574": 246,
        "7575": 91,
        "7576": 93,
        "7577": 184,
        "7578": 14,
        "7579": 72,
        "7580": 190,
        "7581": 17,
        "7582": 190,
        "7583": 71,
        "7584": 230,
        "7585": 188,
        "7586": 182,
        "7587": 49,
        "7588": 53,
        "7589": 127,
        "7590": 235,
        "7591": 211,
        "7592": 248,
        "7593": 236,
        "7594": 123,
        "7595": 123,
        "7596": 198,
        "7597": 63,
        "7598": 211,
        "7599": 17,
        "7600": 109,
        "7601": 172,
        "7602": 143,
        "7603": 236,
        "7604": 0,
        "7605": 167,
        "7606": 219,
        "7607": 70,
        "7608": 208,
        "7609": 129,
        "7610": 68,
        "7611": 71,
        "7612": 162,
        "7613": 217,
        "7614": 232,
        "7615": 85,
        "7616": 224,
        "7617": 165,
        "7618": 172,
        "7619": 37,
        "7620": 239,
        "7621": 107,
        "7622": 125,
        "7623": 114,
        "7624": 46,
        "7625": 55,
        "7626": 250,
        "7627": 50,
        "7628": 255,
        "7629": 52,
        "7630": 165,
        "7631": 247,
        "7632": 102,
        "7633": 193,
        "7634": 110,
        "7635": 50,
        "7636": 16,
        "7637": 32,
        "7638": 188,
        "7639": 202,
        "7640": 66,
        "7641": 26,
        "7642": 111,
        "7643": 142,
        "7644": 21,
        "7645": 215,
        "7646": 105,
        "7647": 159,
        "7648": 5,
        "7649": 60,
        "7650": 100,
        "7651": 202,
        "7652": 24,
        "7653": 111,
        "7654": 50,
        "7655": 91,
        "7656": 241,
        "7657": 98,
        "7658": 107,
        "7659": 145,
        "7660": 105,
        "7661": 125,
        "7662": 244,
        "7663": 164,
        "7664": 138,
        "7665": 216,
        "7666": 128,
        "7667": 208,
        "7668": 182,
        "7669": 240,
        "7670": 78,
        "7671": 101,
        "7672": 11,
        "7673": 250,
        "7674": 195,
        "7675": 185,
        "7676": 79,
        "7677": 72,
        "7678": 127,
        "7679": 38,
        "7680": 123,
        "7681": 243,
        "7682": 164,
        "7683": 164,
        "7684": 37,
        "7685": 215,
        "7686": 1,
        "7687": 34,
        "7688": 101,
        "7689": 0,
        "7690": 121,
        "7691": 54,
        "7692": 247,
        "7693": 23,
        "7694": 138,
        "7695": 165,
        "7696": 246,
        "7697": 242,
        "7698": 19,
        "7699": 201,
        "7700": 228,
        "7701": 245,
        "7702": 29,
        "7703": 37,
        "7704": 78,
        "7705": 222,
        "7706": 68,
        "7707": 248,
        "7708": 174,
        "7709": 178,
        "7710": 150,
        "7711": 17,
        "7712": 12,
        "7713": 177,
        "7714": 58,
        "7715": 163,
        "7716": 165,
        "7717": 19,
        "7718": 4,
        "7719": 196,
        "7720": 37,
        "7721": 156,
        "7722": 136,
        "7723": 103,
        "7724": 221,
        "7725": 220,
        "7726": 140,
        "7727": 234,
        "7728": 58,
        "7729": 72,
        "7730": 254,
        "7731": 171,
        "7732": 10,
        "7733": 79,
        "7734": 92,
        "7735": 52,
        "7736": 109,
        "7737": 95,
        "7738": 21,
        "7739": 248,
        "7740": 88,
        "7741": 48,
        "7742": 138,
        "7743": 29,
        "7744": 89,
        "7745": 53,
        "7746": 144,
        "7747": 162,
        "7748": 46,
        "7749": 178,
        "7750": 251,
        "7751": 53,
        "7752": 8,
        "7753": 212,
        "7754": 54,
        "7755": 16,
        "7756": 160,
        "7757": 124,
        "7758": 140,
        "7759": 173,
        "7760": 182,
        "7761": 80,
        "7762": 183,
        "7763": 59,
        "7764": 167,
        "7765": 152,
        "7766": 151,
        "7767": 228,
        "7768": 50,
        "7769": 189,
        "7770": 221,
        "7771": 187,
        "7772": 242,
        "7773": 70,
        "7774": 29,
        "7775": 31,
        "7776": 45,
        "7777": 190,
        "7778": 39,
        "7779": 139,
        "7780": 94,
        "7781": 133,
        "7782": 203,
        "7783": 118,
        "7784": 36,
        "7785": 209,
        "7786": 145,
        "7787": 140,
        "7788": 164,
        "7789": 237,
        "7790": 207,
        "7791": 128,
        "7792": 200,
        "7793": 85,
        "7794": 193,
        "7795": 150,
        "7796": 222,
        "7797": 251,
        "7798": 207,
        "7799": 138,
        "7800": 193,
        "7801": 0,
        "7802": 21,
        "7803": 205,
        "7804": 178,
        "7805": 41,
        "7806": 135,
        "7807": 153,
        "7808": 39,
        "7809": 189,
        "7810": 26,
        "7811": 216,
        "7812": 173,
        "7813": 77,
        "7814": 19,
        "7815": 3,
        "7816": 179,
        "7817": 9,
        "7818": 119,
        "7819": 106,
        "7820": 229,
        "7821": 186,
        "7822": 10,
        "7823": 155,
        "7824": 102,
        "7825": 176,
        "7826": 154,
        "7827": 65,
        "7828": 94,
        "7829": 157,
        "7830": 49,
        "7831": 48,
        "7832": 37,
        "7833": 6,
        "7834": 7,
        "7835": 62,
        "7836": 110,
        "7837": 14,
        "7838": 251,
        "7839": 120,
        "7840": 0,
        "7841": 108,
        "7842": 76,
        "7843": 45,
        "7844": 45,
        "7845": 82,
        "7846": 121,
        "7847": 253,
        "7848": 10,
        "7849": 175,
        "7850": 175,
        "7851": 25,
        "7852": 106,
        "7853": 179,
        "7854": 87,
        "7855": 248,
        "7856": 203,
        "7857": 15,
        "7858": 18,
        "7859": 51,
        "7860": 137,
        "7861": 183,
        "7862": 58,
        "7863": 117,
        "7864": 187,
        "7865": 109,
        "7866": 28,
        "7867": 78,
        "7868": 177,
        "7869": 67,
        "7870": 236,
        "7871": 150,
        "7872": 124,
        "7873": 17,
        "7874": 215,
        "7875": 0,
        "7876": 182,
        "7877": 198,
        "7878": 228,
        "7879": 148,
        "7880": 144,
        "7881": 128,
        "7882": 95,
        "7883": 248,
        "7884": 75,
        "7885": 212,
        "7886": 50,
        "7887": 244,
        "7888": 71,
        "7889": 151,
        "7890": 180,
        "7891": 109,
        "7892": 123,
        "7893": 46,
        "7894": 222,
        "7895": 105,
        "7896": 158,
        "7897": 79,
        "7898": 163,
        "7899": 253,
        "7900": 128,
        "7901": 168,
        "7902": 87,
        "7903": 126,
        "7904": 23,
        "7905": 140,
        "7906": 75,
        "7907": 241,
        "7908": 230,
        "7909": 105,
        "7910": 180,
        "7911": 248,
        "7912": 143,
        "7913": 7,
        "7914": 75,
        "7915": 208,
        "7916": 29,
        "7917": 167,
        "7918": 46,
        "7919": 21,
        "7920": 160,
        "7921": 55,
        "7922": 194,
        "7923": 56,
        "7924": 229,
        "7925": 47,
        "7926": 165,
        "7927": 204,
        "7928": 201,
        "7929": 130,
        "7930": 133,
        "7931": 201,
        "7932": 218,
        "7933": 54,
        "7934": 145,
        "7935": 55,
        "7936": 150,
        "7937": 2,
        "7938": 116,
        "7939": 210,
        "7940": 21,
        "7941": 144,
        "7942": 131,
        "7943": 237,
        "7944": 20,
        "7945": 209,
        "7946": 151,
        "7947": 116,
        "7948": 5,
        "7949": 201,
        "7950": 24,
        "7951": 26,
        "7952": 203,
        "7953": 154,
        "7954": 2,
        "7955": 71,
        "7956": 240,
        "7957": 113,
        "7958": 42,
        "7959": 86,
        "7960": 173,
        "7961": 78,
        "7962": 106,
        "7963": 6,
        "7964": 145,
        "7965": 52,
        "7966": 121,
        "7967": 45,
        "7968": 183,
        "7969": 242,
        "7970": 9,
        "7971": 208,
        "7972": 95,
        "7973": 253,
        "7974": 131,
        "7975": 182,
        "7976": 5,
        "7977": 20,
        "7978": 23,
        "7979": 19,
        "7980": 59,
        "7981": 18,
        "7982": 138,
        "7983": 202,
        "7984": 21,
        "7985": 243,
        "7986": 99,
        "7987": 181,
        "7988": 249,
        "7989": 139,
        "7990": 75,
        "7991": 226,
        "7992": 33,
        "7993": 175,
        "7994": 113,
        "7995": 23,
        "7996": 211,
        "7997": 71,
        "7998": 215,
        "7999": 75,
        "8000": 149,
        "8001": 132,
        "8002": 189,
        "8003": 189,
        "8004": 33,
        "8005": 209,
        "8006": 85,
        "8007": 31,
        "8008": 86,
        "8009": 147,
        "8010": 5,
        "8011": 16,
        "8012": 79,
        "8013": 105,
        "8014": 167,
        "8015": 68,
        "8016": 117,
        "8017": 78,
        "8018": 97,
        "8019": 241,
        "8020": 11,
        "8021": 213,
        "8022": 82,
        "8023": 30,
        "8024": 220,
        "8025": 8,
        "8026": 2,
        "8027": 31,
        "8028": 41,
        "8029": 95,
        "8030": 166,
        "8031": 193,
        "8032": 12,
        "8033": 114,
        "8034": 122,
        "8035": 72,
        "8036": 83,
        "8037": 0,
        "8038": 181,
        "8039": 213,
        "8040": 249,
        "8041": 218,
        "8042": 79,
        "8043": 90,
        "8044": 220,
        "8045": 51,
        "8046": 16,
        "8047": 98,
        "8048": 48,
        "8049": 113,
        "8050": 179,
        "8051": 205,
        "8052": 43,
        "8053": 157,
        "8054": 230,
        "8055": 155,
        "8056": 218,
        "8057": 165,
        "8058": 206,
        "8059": 102,
        "8060": 82,
        "8061": 96,
        "8062": 225,
        "8063": 167,
        "8064": 214,
        "8065": 166,
        "8066": 10,
        "8067": 209,
        "8068": 218,
        "8069": 196,
        "8070": 89,
        "8071": 121,
        "8072": 34,
        "8073": 133,
        "8074": 213,
        "8075": 152,
        "8076": 229,
        "8077": 145,
        "8078": 82,
        "8079": 17,
        "8080": 25,
        "8081": 249,
        "8082": 102,
        "8083": 83,
        "8084": 98,
        "8085": 108,
        "8086": 250,
        "8087": 119,
        "8088": 222,
        "8089": 151,
        "8090": 11,
        "8091": 39,
        "8092": 231,
        "8093": 69,
        "8094": 96,
        "8095": 168,
        "8096": 148,
        "8097": 204,
        "8098": 97,
        "8099": 92,
        "8100": 149,
        "8101": 114,
        "8102": 217,
        "8103": 55,
        "8104": 67,
        "8105": 236,
        "8106": 47,
        "8107": 129,
        "8108": 32,
        "8109": 132,
        "8110": 25,
        "8111": 145,
        "8112": 224,
        "8113": 44,
        "8114": 253,
        "8115": 17,
        "8116": 106,
        "8117": 205,
        "8118": 233,
        "8119": 199,
        "8120": 28,
        "8121": 239,
        "8122": 50,
        "8123": 142,
        "8124": 185,
        "8125": 93,
        "8126": 248,
        "8127": 178,
        "8128": 251,
        "8129": 106,
        "8130": 29,
        "8131": 84,
        "8132": 252,
        "8133": 190,
        "8134": 134,
        "8135": 93,
        "8136": 103,
        "8137": 60,
        "8138": 247,
        "8139": 79,
        "8140": 164,
        "8141": 200,
        "8142": 39,
        "8143": 57,
        "8144": 168,
        "8145": 75,
        "8146": 94,
        "8147": 30,
        "8148": 253,
        "8149": 242,
        "8150": 138,
        "8151": 192,
        "8152": 207,
        "8153": 45,
        "8154": 222,
        "8155": 57,
        "8156": 72,
        "8157": 152,
        "8158": 21,
        "8159": 39,
        "8160": 14,
        "8161": 193,
        "8162": 234,
        "8163": 250,
        "8164": 96,
        "8165": 2,
        "8166": 119,
        "8167": 213,
        "8168": 203,
        "8169": 60,
        "8170": 23,
        "8171": 131,
        "8172": 100,
        "8173": 142,
        "8174": 168,
        "8175": 219,
        "8176": 122,
        "8177": 178,
        "8178": 216,
        "8179": 248,
        "8180": 169,
        "8181": 61,
        "8182": 183,
        "8183": 209,
        "8184": 220,
        "8185": 103,
        "8186": 145,
        "8187": 232,
        "8188": 136,
        "8189": 43,
        "8190": 3,
        "8191": 130,
        "8192": 120,
        "8193": 118,
        "8194": 111,
        "8195": 63,
        "8196": 22,
        "8197": 205,
        "8198": 18,
        "8199": 15,
        "8200": 30,
        "8201": 120,
        "8202": 157,
        "8203": 19,
        "8204": 151,
        "8205": 5,
        "8206": 248,
        "8207": 179,
        "8208": 57,
        "8209": 159,
        "8210": 237,
        "8211": 218,
        "8212": 210,
        "8213": 26,
        "8214": 19,
        "8215": 25,
        "8216": 121,
        "8217": 66,
        "8218": 174,
        "8219": 134,
        "8220": 104,
        "8221": 208,
        "8222": 215,
        "8223": 39,
        "8224": 225,
        "8225": 139,
        "8226": 96,
        "8227": 8,
        "8228": 211,
        "8229": 151,
        "8230": 120,
        "8231": 156,
        "8232": 242,
        "8233": 141,
        "8234": 87,
        "8235": 88,
        "8236": 244,
        "8237": 114,
        "8238": 244,
        "8239": 58,
        "8240": 77,
        "8241": 107,
        "8242": 97,
        "8243": 110,
        "8244": 223,
        "8245": 240,
        "8246": 137,
        "8247": 32,
        "8248": 169,
        "8249": 111,
        "8250": 183,
        "8251": 131,
        "8252": 24,
        "8253": 164,
        "8254": 1,
        "8255": 63,
        "8256": 193,
        "8257": 31,
        "8258": 89,
        "8259": 41,
        "8260": 35,
        "8261": 22,
        "8262": 102,
        "8263": 216,
        "8264": 124,
        "8265": 244,
        "8266": 66,
        "8267": 122,
        "8268": 176,
        "8269": 152,
        "8270": 196,
        "8271": 121,
        "8272": 158,
        "8273": 191,
        "8274": 142,
        "8275": 38,
        "8276": 95,
        "8277": 156,
        "8278": 213,
        "8279": 32,
        "8280": 162,
        "8281": 21,
        "8282": 156,
        "8283": 35,
        "8284": 213,
        "8285": 23,
        "8286": 4,
        "8287": 36,
        "8288": 199,
        "8289": 37,
        "8290": 244,
        "8291": 148,
        "8292": 157,
        "8293": 42,
        "8294": 175,
        "8295": 139,
        "8296": 81,
        "8297": 3,
        "8298": 73,
        "8299": 167,
        "8300": 161,
        "8301": 237,
        "8302": 198,
        "8303": 239,
        "8304": 81,
        "8305": 108,
        "8306": 223,
        "8307": 8,
        "8308": 206,
        "8309": 87,
        "8310": 229,
        "8311": 214,
        "8312": 109,
        "8313": 194,
        "8314": 120,
        "8315": 148,
        "8316": 150,
        "8317": 187,
        "8318": 56,
        "8319": 225,
        "8320": 132,
        "8321": 192,
        "8322": 40,
        "8323": 53,
        "8324": 122,
        "8325": 113,
        "8326": 215,
        "8327": 77,
        "8328": 187,
        "8329": 22,
        "8330": 119,
        "8331": 70,
        "8332": 80,
        "8333": 181,
        "8334": 189,
        "8335": 255,
        "8336": 231,
        "8337": 171,
        "8338": 147,
        "8339": 176,
        "8340": 167,
        "8341": 169,
        "8342": 21,
        "8343": 55,
        "8344": 90,
        "8345": 128,
        "8346": 33,
        "8347": 207,
        "8348": 218,
        "8349": 174,
        "8350": 158,
        "8351": 62,
        "8352": 101,
        "8353": 6,
        "8354": 72,
        "8355": 82,
        "8356": 220,
        "8357": 209,
        "8358": 72,
        "8359": 84,
        "8360": 141,
        "8361": 81,
        "8362": 43,
        "8363": 119,
        "8364": 235,
        "8365": 180,
        "8366": 28,
        "8367": 166,
        "8368": 34,
        "8369": 109,
        "8370": 225,
        "8371": 125,
        "8372": 249,
        "8373": 82,
        "8374": 254,
        "8375": 190,
        "8376": 214,
        "8377": 112,
        "8378": 78,
        "8379": 125,
        "8380": 73,
        "8381": 24,
        "8382": 167,
        "8383": 76,
        "8384": 22,
        "8385": 225,
        "8386": 93,
        "8387": 18,
        "8388": 221,
        "8389": 189,
        "8390": 78,
        "8391": 28,
        "8392": 29,
        "8393": 6,
        "8394": 33,
        "8395": 142,
        "8396": 31,
        "8397": 41,
        "8398": 99,
        "8399": 82,
        "8400": 173,
        "8401": 137,
        "8402": 174,
        "8403": 61,
        "8404": 103,
        "8405": 84,
        "8406": 94,
        "8407": 41,
        "8408": 99,
        "8409": 13,
        "8410": 193,
        "8411": 29,
        "8412": 65,
        "8413": 78,
        "8414": 233,
        "8415": 59,
        "8416": 227,
        "8417": 246,
        "8418": 111,
        "8419": 54,
        "8420": 33,
        "8421": 251,
        "8422": 242,
        "8423": 205,
        "8424": 253,
        "8425": 123,
        "8426": 98,
        "8427": 96,
        "8428": 140,
        "8429": 253,
        "8430": 28,
        "8431": 104,
        "8432": 2,
        "8433": 41,
        "8434": 142,
        "8435": 184,
        "8436": 115,
        "8437": 60,
        "8438": 103,
        "8439": 242,
        "8440": 117,
        "8441": 158,
        "8442": 170,
        "8443": 8,
        "8444": 102,
        "8445": 90,
        "8446": 103,
        "8447": 83,
        "8448": 69,
        "8449": 58,
        "8450": 246,
        "8451": 42,
        "8452": 108,
        "8453": 189,
        "8454": 205,
        "8455": 24,
        "8456": 196,
        "8457": 126,
        "8458": 208,
        "8459": 183,
        "8460": 63,
        "8461": 220,
        "8462": 189,
        "8463": 223,
        "8464": 162,
        "8465": 38,
        "8466": 131,
        "8467": 174,
        "8468": 222,
        "8469": 23,
        "8470": 15,
        "8471": 73,
        "8472": 7,
        "8473": 196,
        "8474": 53,
        "8475": 155,
        "8476": 158,
        "8477": 214,
        "8478": 10,
        "8479": 97,
        "8480": 33,
        "8481": 14,
        "8482": 102,
        "8483": 248,
        "8484": 202,
        "8485": 138,
        "8486": 43,
        "8487": 137,
        "8488": 3,
        "8489": 119,
        "8490": 124,
        "8491": 132,
        "8492": 57,
        "8493": 230,
        "8494": 177,
        "8495": 52,
        "8496": 116,
        "8497": 105,
        "8498": 102,
        "8499": 121,
        "8500": 54,
        "8501": 72,
        "8502": 95,
        "8503": 113,
        "8504": 150,
        "8505": 129,
        "8506": 218,
        "8507": 155,
        "8508": 88,
        "8509": 158,
        "8510": 165,
        "8511": 25,
        "8512": 219,
        "8513": 136,
        "8514": 230,
        "8515": 158,
        "8516": 58,
        "8517": 95,
        "8518": 11,
        "8519": 133,
        "8520": 16,
        "8521": 193,
        "8522": 46,
        "8523": 85,
        "8524": 234,
        "8525": 29,
        "8526": 49,
        "8527": 224,
        "8528": 83,
        "8529": 109,
        "8530": 197,
        "8531": 63,
        "8532": 203,
        "8533": 131,
        "8534": 71,
        "8535": 93,
        "8536": 197,
        "8537": 108,
        "8538": 31,
        "8539": 177,
        "8540": 58,
        "8541": 101,
        "8542": 124,
        "8543": 132,
        "8544": 186,
        "8545": 23,
        "8546": 235,
        "8547": 47,
        "8548": 198,
        "8549": 114,
        "8550": 215,
        "8551": 9,
        "8552": 192,
        "8553": 204,
        "8554": 158,
        "8555": 201,
        "8556": 192,
        "8557": 184,
        "8558": 199,
        "8559": 27,
        "8560": 176,
        "8561": 16,
        "8562": 216,
        "8563": 1,
        "8564": 34,
        "8565": 94,
        "8566": 119,
        "8567": 27,
        "8568": 112,
        "8569": 231,
        "8570": 182,
        "8571": 224,
        "8572": 245,
        "8573": 128,
        "8574": 203,
        "8575": 72,
        "8576": 238,
        "8577": 19,
        "8578": 229,
        "8579": 30,
        "8580": 224,
        "8581": 97,
        "8582": 151,
        "8583": 213,
        "8584": 75,
        "8585": 210,
        "8586": 131,
        "8587": 163,
        "8588": 146,
        "8589": 166,
        "8590": 195,
        "8591": 176,
        "8592": 157,
        "8593": 73,
        "8594": 204,
        "8595": 232,
        "8596": 58,
        "8597": 124,
        "8598": 246,
        "8599": 169,
        "8600": 82,
        "8601": 225,
        "8602": 167,
        "8603": 174,
        "8604": 249,
        "8605": 229,
        "8606": 120,
        "8607": 154,
        "8608": 38,
        "8609": 7,
        "8610": 71,
        "8611": 47,
        "8612": 106,
        "8613": 176,
        "8614": 186,
        "8615": 223,
        "8616": 91,
        "8617": 252,
        "8618": 231,
        "8619": 21,
        "8620": 18,
        "8621": 88,
        "8622": 75,
        "8623": 0,
        "8624": 54,
        "8625": 6,
        "8626": 216,
        "8627": 231,
        "8628": 157,
        "8629": 197,
        "8630": 177,
        "8631": 153,
        "8632": 190,
        "8633": 114,
        "8634": 131,
        "8635": 212,
        "8636": 224,
        "8637": 88,
        "8638": 173,
        "8639": 163,
        "8640": 190,
        "8641": 229,
        "8642": 137,
        "8643": 174,
        "8644": 206,
        "8645": 105,
        "8646": 230,
        "8647": 25,
        "8648": 238,
        "8649": 46,
        "8650": 111,
        "8651": 82,
        "8652": 127,
        "8653": 137,
        "8654": 23,
        "8655": 177,
        "8656": 222,
        "8657": 218,
        "8658": 30,
        "8659": 183,
        "8660": 253,
        "8661": 60,
        "8662": 131,
        "8663": 152,
        "8664": 180,
        "8665": 174,
        "8666": 180,
        "8667": 86,
        "8668": 200,
        "8669": 237,
        "8670": 30,
        "8671": 192,
        "8672": 168,
        "8673": 224,
        "8674": 89,
        "8675": 61,
        "8676": 174,
        "8677": 58,
        "8678": 70,
        "8679": 4,
        "8680": 53,
        "8681": 245,
        "8682": 172,
        "8683": 50,
        "8684": 153,
        "8685": 224,
        "8686": 113,
        "8687": 43,
        "8688": 129,
        "8689": 215,
        "8690": 231,
        "8691": 56,
        "8692": 219,
        "8693": 7,
        "8694": 54,
        "8695": 31,
        "8696": 203,
        "8697": 55,
        "8698": 73,
        "8699": 8,
        "8700": 197,
        "8701": 128,
        "8702": 121,
        "8703": 216,
        "8704": 32,
        "8705": 241,
        "8706": 130,
        "8707": 228,
        "8708": 236,
        "8709": 153,
        "8710": 97,
        "8711": 135,
        "8712": 56,
        "8713": 47,
        "8714": 95,
        "8715": 70,
        "8716": 165,
        "8717": 49,
        "8718": 81,
        "8719": 216,
        "8720": 2,
        "8721": 222,
        "8722": 32,
        "8723": 74,
        "8724": 14,
        "8725": 201,
        "8726": 255,
        "8727": 226,
        "8728": 88,
        "8729": 251,
        "8730": 106,
        "8731": 29,
        "8732": 241,
        "8733": 150,
        "8734": 87,
        "8735": 9,
        "8736": 166,
        "8737": 106,
        "8738": 220,
        "8739": 107,
        "8740": 137,
        "8741": 46,
        "8742": 17,
        "8743": 199,
        "8744": 225,
        "8745": 211,
        "8746": 37,
        "8747": 166,
        "8748": 45,
        "8749": 156,
        "8750": 65,
        "8751": 254,
        "8752": 202,
        "8753": 65,
        "8754": 155,
        "8755": 104,
        "8756": 50,
        "8757": 158,
        "8758": 225,
        "8759": 163,
        "8760": 94,
        "8761": 116,
        "8762": 104,
        "8763": 238,
        "8764": 228,
        "8765": 227,
        "8766": 54,
        "8767": 189,
        "8768": 179,
        "8769": 178,
        "8770": 228,
        "8771": 214,
        "8772": 146,
        "8773": 221,
        "8774": 247,
        "8775": 236,
        "8776": 70,
        "8777": 134,
        "8778": 53,
        "8779": 150,
        "8780": 214,
        "8781": 245,
        "8782": 215,
        "8783": 26,
        "8784": 41,
        "8785": 98,
        "8786": 152,
        "8787": 96,
        "8788": 178,
        "8789": 222,
        "8790": 236,
        "8791": 132,
        "8792": 143,
        "8793": 207,
        "8794": 79,
        "8795": 48,
        "8796": 30,
        "8797": 91,
        "8798": 95,
        "8799": 211,
        "8800": 26,
        "8801": 7,
        "8802": 204,
        "8803": 58,
        "8804": 14,
        "8805": 19,
        "8806": 209,
        "8807": 127,
        "8808": 195,
        "8809": 102,
        "8810": 19,
        "8811": 128,
        "8812": 161,
        "8813": 109,
        "8814": 223,
        "8815": 240,
        "8816": 200,
        "8817": 170,
        "8818": 39,
        "8819": 76,
        "8820": 12,
        "8821": 26,
        "8822": 150,
        "8823": 51,
        "8824": 192,
        "8825": 150,
        "8826": 95,
        "8827": 163,
        "8828": 12,
        "8829": 157,
        "8830": 125,
        "8831": 197,
        "8832": 114,
        "8833": 39,
        "8834": 50,
        "8835": 164,
        "8836": 47,
        "8837": 95,
        "8838": 224,
        "8839": 33,
        "8840": 252,
        "8841": 129,
        "8842": 164,
        "8843": 92,
        "8844": 148,
        "8845": 157,
        "8846": 131,
        "8847": 28,
        "8848": 118,
        "8849": 172,
        "8850": 93,
        "8851": 202,
        "8852": 192,
        "8853": 49,
        "8854": 247,
        "8855": 109,
        "8856": 71,
        "8857": 66,
        "8858": 114,
        "8859": 249,
        "8860": 187,
        "8861": 237,
        "8862": 170,
        "8863": 201,
        "8864": 215,
        "8865": 219,
        "8866": 76,
        "8867": 17,
        "8868": 148,
        "8869": 219,
        "8870": 216,
        "8871": 23,
        "8872": 113,
        "8873": 226,
        "8874": 191,
        "8875": 15,
        "8876": 107,
        "8877": 34,
        "8878": 220,
        "8879": 113,
        "8880": 95,
        "8881": 136,
        "8882": 58,
        "8883": 207,
        "8884": 188,
        "8885": 190,
        "8886": 34,
        "8887": 175,
        "8888": 117,
        "8889": 24,
        "8890": 46,
        "8891": 192,
        "8892": 105,
        "8893": 108,
        "8894": 236,
        "8895": 82,
        "8896": 169,
        "8897": 140,
        "8898": 9,
        "8899": 47,
        "8900": 235,
        "8901": 145,
        "8902": 18,
        "8903": 220,
        "8904": 232,
        "8905": 234,
        "8906": 55,
        "8907": 203,
        "8908": 171,
        "8909": 58,
        "8910": 215,
        "8911": 240,
        "8912": 114,
        "8913": 117,
        "8914": 161,
        "8915": 14,
        "8916": 148,
        "8917": 233,
        "8918": 229,
        "8919": 202,
        "8920": 110,
        "8921": 167,
        "8922": 5,
        "8923": 120,
        "8924": 128,
        "8925": 248,
        "8926": 157,
        "8927": 132,
        "8928": 38,
        "8929": 171,
        "8930": 24,
        "8931": 123,
        "8932": 105,
        "8933": 5,
        "8934": 120,
        "8935": 242,
        "8936": 85,
        "8937": 164,
        "8938": 153,
        "8939": 237,
        "8940": 0,
        "8941": 80,
        "8942": 169,
        "8943": 95,
        "8944": 251,
        "8945": 230,
        "8946": 206,
        "8947": 182,
        "8948": 51,
        "8949": 40,
        "8950": 211,
        "8951": 164,
        "8952": 225,
        "8953": 103,
        "8954": 12,
        "8955": 212,
        "8956": 111,
        "8957": 50,
        "8958": 5,
        "8959": 63,
        "8960": 76,
        "8961": 103,
        "8962": 121,
        "8963": 15,
        "8964": 121,
        "8965": 144,
        "8966": 247,
        "8967": 25,
        "8968": 190,
        "8969": 139,
        "8970": 249,
        "8971": 44,
        "8972": 104,
        "8973": 230,
        "8974": 28,
        "8975": 35,
        "8976": 181,
        "8977": 226,
        "8978": 140,
        "8979": 169,
        "8980": 62,
        "8981": 68,
        "8982": 171,
        "8983": 199,
        "8984": 13,
        "8985": 133,
        "8986": 246,
        "8987": 223,
        "8988": 208,
        "8989": 2,
        "8990": 163,
        "8991": 190,
        "8992": 56,
        "8993": 172,
        "8994": 132,
        "8995": 236,
        "8996": 190,
        "8997": 82,
        "8998": 171,
        "8999": 210,
        "9000": 66,
        "9001": 235,
        "9002": 21,
        "9003": 49,
        "9004": 73,
        "9005": 204,
        "9006": 131,
        "9007": 222,
        "9008": 234,
        "9009": 71,
        "9010": 179,
        "9011": 128,
        "9012": 42,
        "9013": 199,
        "9014": 189,
        "9015": 135,
        "9016": 17,
        "9017": 109,
        "9018": 176,
        "9019": 83,
        "9020": 87,
        "9021": 218,
        "9022": 48,
        "9023": 218,
        "9024": 236,
        "9025": 160,
        "9026": 241,
        "9027": 191,
        "9028": 82,
        "9029": 112,
        "9030": 126,
        "9031": 228,
        "9032": 218,
        "9033": 143,
        "9034": 200,
        "9035": 7,
        "9036": 179,
        "9037": 140,
        "9038": 254,
        "9039": 110,
        "9040": 245,
        "9041": 22,
        "9042": 179,
        "9043": 137,
        "9044": 39,
        "9045": 172,
        "9046": 51,
        "9047": 139,
        "9048": 173,
        "9049": 34,
        "9050": 228,
        "9051": 209,
        "9052": 102,
        "9053": 212,
        "9054": 63,
        "9055": 160,
        "9056": 83,
        "9057": 167,
        "9058": 181,
        "9059": 117,
        "9060": 91,
        "9061": 95,
        "9062": 13,
        "9063": 23,
        "9064": 69,
        "9065": 127,
        "9066": 114,
        "9067": 89,
        "9068": 5,
        "9069": 43,
        "9070": 231,
        "9071": 63,
        "9072": 24,
        "9073": 178,
        "9074": 35,
        "9075": 144,
        "9076": 40,
        "9077": 10,
        "9078": 178,
        "9079": 123,
        "9080": 39,
        "9081": 71,
        "9082": 160,
        "9083": 236,
        "9084": 139,
        "9085": 135,
        "9086": 181,
        "9087": 154,
        "9088": 32,
        "9089": 36,
        "9090": 131,
        "9091": 123,
        "9092": 51,
        "9093": 103,
        "9094": 150,
        "9095": 151,
        "9096": 98,
        "9097": 241,
        "9098": 233,
        "9099": 246,
        "9100": 253,
        "9101": 194,
        "9102": 101,
        "9103": 16,
        "9104": 6,
        "9105": 231,
        "9106": 55,
        "9107": 236,
        "9108": 234,
        "9109": 217,
        "9110": 229,
        "9111": 248,
        "9112": 129,
        "9113": 220,
        "9114": 146,
        "9115": 156,
        "9116": 206,
        "9117": 157,
        "9118": 25,
        "9119": 92,
        "9120": 56,
        "9121": 238,
        "9122": 33,
        "9123": 173,
        "9124": 240,
        "9125": 69,
        "9126": 124,
        "9127": 3,
        "9128": 12,
        "9129": 140,
        "9130": 135,
        "9131": 85,
        "9132": 158,
        "9133": 4,
        "9134": 205,
        "9135": 147,
        "9136": 123,
        "9137": 77,
        "9138": 210,
        "9139": 192,
        "9140": 114,
        "9141": 181,
        "9142": 211,
        "9143": 8,
        "9144": 146,
        "9145": 2,
        "9146": 50,
        "9147": 115,
        "9148": 118,
        "9149": 152,
        "9150": 85,
        "9151": 141,
        "9152": 114,
        "9153": 143,
        "9154": 131,
        "9155": 22,
        "9156": 43,
        "9157": 163,
        "9158": 211,
        "9159": 73,
        "9160": 12,
        "9161": 43,
        "9162": 66,
        "9163": 240,
        "9164": 93,
        "9165": 207,
        "9166": 33,
        "9167": 230,
        "9168": 43,
        "9169": 76,
        "9170": 30,
        "9171": 83,
        "9172": 184,
        "9173": 2,
        "9174": 225,
        "9175": 221,
        "9176": 142,
        "9177": 56,
        "9178": 117,
        "9179": 119,
        "9180": 90,
        "9181": 4,
        "9182": 146,
        "9183": 7,
        "9184": 33,
        "9185": 63,
        "9186": 32,
        "9187": 2,
        "9188": 248,
        "9189": 16,
        "9190": 36,
        "9191": 75,
        "9192": 218,
        "9193": 62,
        "9194": 191,
        "9195": 254,
        "9196": 176,
        "9197": 199,
        "9198": 27,
        "9199": 97,
        "9200": 82,
        "9201": 103,
        "9202": 150,
        "9203": 76,
        "9204": 2,
        "9205": 8,
        "9206": 232,
        "9207": 141,
        "9208": 215,
        "9209": 203,
        "9210": 200,
        "9211": 100,
        "9212": 233,
        "9213": 60,
        "9214": 168,
        "9215": 225,
        "9216": 111,
        "9217": 245,
        "9218": 211,
        "9219": 55,
        "9220": 38,
        "9221": 158,
        "9222": 132,
        "9223": 124,
        "9224": 128,
        "9225": 183,
        "9226": 73,
        "9227": 250,
        "9228": 134,
        "9229": 1,
        "9230": 153,
        "9231": 68,
        "9232": 96,
        "9233": 154,
        "9234": 183,
        "9235": 249,
        "9236": 90,
        "9237": 65,
        "9238": 218,
        "9239": 212,
        "9240": 171,
        "9241": 4,
        "9242": 160,
        "9243": 50,
        "9244": 80,
        "9245": 127,
        "9246": 173,
        "9247": 89,
        "9248": 23,
        "9249": 209,
        "9250": 103,
        "9251": 193,
        "9252": 61,
        "9253": 110,
        "9254": 7,
        "9255": 156,
        "9256": 114,
        "9257": 67,
        "9258": 154,
        "9259": 8,
        "9260": 237,
        "9261": 55,
        "9262": 173,
        "9263": 50,
        "9264": 134,
        "9265": 160,
        "9266": 213,
        "9267": 159,
        "9268": 184,
        "9269": 20,
        "9270": 201,
        "9271": 186,
        "9272": 68,
        "9273": 245,
        "9274": 55,
        "9275": 197,
        "9276": 161,
        "9277": 11,
        "9278": 251,
        "9279": 134,
        "9280": 96,
        "9281": 154,
        "9282": 47,
        "9283": 197,
        "9284": 14,
        "9285": 168,
        "9286": 27,
        "9287": 210,
        "9288": 174,
        "9289": 190,
        "9290": 143,
        "9291": 155,
        "9292": 161,
        "9293": 3,
        "9294": 38,
        "9295": 147,
        "9296": 41,
        "9297": 116,
        "9298": 102,
        "9299": 39,
        "9300": 209,
        "9301": 60,
        "9302": 39,
        "9303": 245,
        "9304": 81,
        "9305": 113,
        "9306": 101,
        "9307": 121,
        "9308": 119,
        "9309": 10,
        "9310": 253,
        "9311": 9,
        "9312": 33,
        "9313": 28,
        "9314": 197,
        "9315": 49,
        "9316": 145,
        "9317": 4,
        "9318": 89,
        "9319": 24,
        "9320": 64,
        "9321": 253,
        "9322": 178,
        "9323": 108,
        "9324": 166,
        "9325": 35,
        "9326": 201,
        "9327": 115,
        "9328": 24,
        "9329": 169,
        "9330": 241,
        "9331": 220,
        "9332": 114,
        "9333": 92,
        "9334": 105,
        "9335": 59,
        "9336": 215,
        "9337": 14,
        "9338": 226,
        "9339": 122,
        "9340": 248,
        "9341": 81,
        "9342": 105,
        "9343": 209,
        "9344": 249,
        "9345": 43,
        "9346": 115,
        "9347": 95,
        "9348": 190,
        "9349": 168,
        "9350": 243,
        "9351": 254,
        "9352": 191,
        "9353": 115,
        "9354": 2,
        "9355": 149,
        "9356": 229,
        "9357": 46,
        "9358": 255,
        "9359": 31,
        "9360": 192,
        "9361": 248,
        "9362": 160,
        "9363": 193,
        "9364": 82,
        "9365": 77,
        "9366": 107,
        "9367": 180,
        "9368": 180,
        "9369": 48,
        "9370": 248,
        "9371": 116,
        "9372": 132,
        "9373": 158,
        "9374": 4,
        "9375": 35,
        "9376": 113,
        "9377": 177,
        "9378": 44,
        "9379": 30,
        "9380": 174,
        "9381": 127,
        "9382": 229,
        "9383": 229,
        "9384": 12,
        "9385": 4,
        "9386": 58,
        "9387": 168,
        "9388": 114,
        "9389": 48,
        "9390": 171,
        "9391": 108,
        "9392": 135,
        "9393": 51,
        "9394": 35,
        "9395": 100,
        "9396": 193,
        "9397": 247,
        "9398": 34,
        "9399": 149,
        "9400": 128,
        "9401": 51,
        "9402": 12,
        "9403": 123,
        "9404": 122,
        "9405": 82,
        "9406": 162,
        "9407": 123,
        "9408": 73,
        "9409": 143,
        "9410": 132,
        "9411": 179,
        "9412": 108,
        "9413": 90,
        "9414": 173,
        "9415": 85,
        "9416": 95,
        "9417": 183,
        "9418": 226,
        "9419": 73,
        "9420": 53,
        "9421": 39,
        "9422": 225,
        "9423": 99,
        "9424": 97,
        "9425": 130,
        "9426": 83,
        "9427": 112,
        "9428": 42,
        "9429": 5,
        "9430": 144,
        "9431": 75,
        "9432": 46,
        "9433": 169,
        "9434": 203,
        "9435": 166,
        "9436": 49,
        "9437": 219,
        "9438": 21,
        "9439": 250,
        "9440": 135,
        "9441": 102,
        "9442": 159,
        "9443": 168,
        "9444": 135,
        "9445": 156,
        "9446": 139,
        "9447": 213,
        "9448": 220,
        "9449": 10,
        "9450": 68,
        "9451": 224,
        "9452": 37,
        "9453": 166,
        "9454": 180,
        "9455": 10,
        "9456": 200,
        "9457": 97,
        "9458": 206,
        "9459": 247,
        "9460": 109,
        "9461": 100,
        "9462": 156,
        "9463": 126,
        "9464": 170,
        "9465": 177,
        "9466": 183,
        "9467": 151,
        "9468": 10,
        "9469": 194,
        "9470": 81,
        "9471": 81,
        "9472": 78,
        "9473": 173,
        "9474": 154,
        "9475": 20,
        "9476": 249,
        "9477": 93,
        "9478": 126,
        "9479": 132,
        "9480": 79,
        "9481": 14,
        "9482": 186,
        "9483": 184,
        "9484": 118,
        "9485": 129,
        "9486": 246,
        "9487": 247,
        "9488": 53,
        "9489": 55,
        "9490": 174,
        "9491": 213,
        "9492": 253,
        "9493": 170,
        "9494": 193,
        "9495": 41,
        "9496": 118,
        "9497": 105,
        "9498": 124,
        "9499": 62,
        "9500": 97,
        "9501": 66,
        "9502": 62,
        "9503": 195,
        "9504": 234,
        "9505": 58,
        "9506": 134,
        "9507": 37,
        "9508": 94,
        "9509": 88,
        "9510": 211,
        "9511": 16,
        "9512": 220,
        "9513": 101,
        "9514": 220,
        "9515": 49,
        "9516": 0,
        "9517": 87,
        "9518": 213,
        "9519": 233,
        "9520": 53,
        "9521": 83,
        "9522": 123,
        "9523": 74,
        "9524": 149,
        "9525": 219,
        "9526": 58,
        "9527": 190,
        "9528": 74,
        "9529": 207,
        "9530": 76,
        "9531": 44,
        "9532": 50,
        "9533": 17,
        "9534": 185,
        "9535": 113,
        "9536": 221,
        "9537": 100,
        "9538": 145,
        "9539": 38,
        "9540": 84,
        "9541": 154,
        "9542": 86,
        "9543": 216,
        "9544": 116,
        "9545": 236,
        "9546": 244,
        "9547": 68,
        "9548": 156,
        "9549": 116,
        "9550": 43,
        "9551": 191,
        "9552": 101,
        "9553": 60,
        "9554": 55,
        "9555": 195,
        "9556": 165,
        "9557": 43,
        "9558": 232,
        "9559": 146,
        "9560": 117,
        "9561": 253,
        "9562": 193,
        "9563": 139,
        "9564": 197,
        "9565": 169,
        "9566": 31,
        "9567": 228,
        "9568": 65,
        "9569": 32,
        "9570": 120,
        "9571": 130,
        "9572": 227,
        "9573": 73,
        "9574": 78,
        "9575": 102,
        "9576": 88,
        "9577": 242,
        "9578": 38,
        "9579": 98,
        "9580": 165,
        "9581": 44,
        "9582": 117,
        "9583": 24,
        "9584": 60,
        "9585": 124,
        "9586": 52,
        "9587": 36,
        "9588": 223,
        "9589": 205,
        "9590": 60,
        "9591": 98,
        "9592": 230,
        "9593": 123,
        "9594": 73,
        "9595": 155,
        "9596": 176,
        "9597": 27,
        "9598": 240,
        "9599": 249,
        "9600": 94,
        "9601": 204,
        "9602": 237,
        "9603": 126,
        "9604": 154,
        "9605": 187,
        "9606": 7,
        "9607": 127,
        "9608": 253,
        "9609": 150,
        "9610": 76,
        "9611": 84,
        "9612": 23,
        "9613": 85,
        "9614": 150,
        "9615": 211,
        "9616": 99,
        "9617": 147,
        "9618": 107,
        "9619": 151,
        "9620": 173,
        "9621": 148,
        "9622": 21,
        "9623": 228,
        "9624": 61,
        "9625": 79,
        "9626": 255,
        "9627": 12,
        "9628": 248,
        "9629": 41,
        "9630": 122,
        "9631": 227,
        "9632": 253,
        "9633": 76,
        "9634": 247,
        "9635": 245,
        "9636": 202,
        "9637": 149,
        "9638": 244,
        "9639": 8,
        "9640": 101,
        "9641": 47,
        "9642": 145,
        "9643": 196,
        "9644": 80,
        "9645": 156,
        "9646": 8,
        "9647": 100,
        "9648": 23,
        "9649": 237,
        "9650": 63,
        "9651": 159,
        "9652": 120,
        "9653": 25,
        "9654": 110,
        "9655": 168,
        "9656": 131,
        "9657": 194,
        "9658": 214,
        "9659": 170,
        "9660": 65,
        "9661": 97,
        "9662": 142,
        "9663": 99,
        "9664": 16,
        "9665": 233,
        "9666": 168,
        "9667": 21,
        "9668": 245,
        "9669": 218,
        "9670": 207,
        "9671": 118,
        "9672": 152,
        "9673": 90,
        "9674": 216,
        "9675": 180,
        "9676": 240,
        "9677": 48,
        "9678": 41,
        "9679": 12,
        "9680": 23,
        "9681": 244,
        "9682": 160,
        "9683": 216,
        "9684": 79,
        "9685": 133,
        "9686": 128,
        "9687": 153,
        "9688": 73,
        "9689": 17,
        "9690": 85,
        "9691": 138,
        "9692": 14,
        "9693": 209,
        "9694": 128,
        "9695": 128,
        "9696": 114,
        "9697": 134,
        "9698": 228,
        "9699": 198,
        "9700": 160,
        "9701": 145,
        "9702": 166,
        "9703": 164,
        "9704": 231,
        "9705": 152,
        "9706": 12,
        "9707": 169,
        "9708": 183,
        "9709": 194,
        "9710": 40,
        "9711": 66,
        "9712": 33,
        "9713": 70,
        "9714": 99,
        "9715": 99,
        "9716": 42,
        "9717": 180,
        "9718": 245,
        "9719": 207,
        "9720": 248,
        "9721": 147,
        "9722": 162,
        "9723": 165,
        "9724": 24,
        "9725": 19,
        "9726": 134,
        "9727": 64,
        "9728": 134,
        "9729": 74,
        "9730": 62,
        "9731": 15,
        "9732": 153,
        "9733": 220,
        "9734": 228,
        "9735": 241,
        "9736": 105,
        "9737": 38,
        "9738": 250,
        "9739": 51,
        "9740": 211,
        "9741": 76,
        "9742": 43,
        "9743": 142,
        "9744": 80,
        "9745": 113,
        "9746": 218,
        "9747": 162,
        "9748": 1,
        "9749": 194,
        "9750": 54,
        "9751": 226,
        "9752": 52,
        "9753": 114,
        "9754": 129,
        "9755": 77,
        "9756": 77,
        "9757": 143,
        "9758": 215,
        "9759": 50,
        "9760": 49,
        "9761": 237,
        "9762": 142,
        "9763": 255,
        "9764": 252,
        "9765": 36,
        "9766": 128,
        "9767": 238,
        "9768": 234,
        "9769": 14,
        "9770": 24,
        "9771": 238,
        "9772": 88,
        "9773": 245,
        "9774": 116,
        "9775": 205,
        "9776": 188,
        "9777": 116,
        "9778": 66,
        "9779": 23,
        "9780": 101,
        "9781": 252,
        "9782": 153,
        "9783": 170,
        "9784": 179,
        "9785": 76,
        "9786": 95,
        "9787": 61,
        "9788": 249,
        "9789": 162,
        "9790": 40,
        "9791": 194,
        "9792": 127,
        "9793": 19,
        "9794": 116,
        "9795": 119,
        "9796": 28,
        "9797": 130,
        "9798": 175,
        "9799": 228,
        "9800": 56,
        "9801": 222,
        "9802": 84,
        "9803": 206,
        "9804": 180,
        "9805": 236,
        "9806": 167,
        "9807": 153,
        "9808": 111,
        "9809": 37,
        "9810": 212,
        "9811": 164,
        "9812": 38,
        "9813": 121,
        "9814": 48,
        "9815": 40,
        "9816": 81,
        "9817": 175,
        "9818": 139,
        "9819": 102,
        "9820": 195,
        "9821": 173,
        "9822": 191,
        "9823": 199,
        "9824": 155,
        "9825": 190,
        "9826": 150,
        "9827": 70,
        "9828": 236,
        "9829": 123,
        "9830": 170,
        "9831": 27,
        "9832": 192,
        "9833": 47,
        "9834": 166,
        "9835": 100,
        "9836": 125,
        "9837": 204,
        "9838": 217,
        "9839": 200,
        "9840": 79,
        "9841": 13,
        "9842": 151,
        "9843": 20,
        "9844": 89,
        "9845": 169,
        "9846": 20,
        "9847": 34,
        "9848": 22,
        "9849": 121,
        "9850": 203,
        "9851": 137,
        "9852": 143,
        "9853": 152,
        "9854": 75,
        "9855": 55,
        "9856": 194,
        "9857": 103,
        "9858": 175,
        "9859": 242,
        "9860": 187,
        "9861": 135,
        "9862": 170,
        "9863": 186,
        "9864": 195,
        "9865": 138,
        "9866": 179,
        "9867": 37,
        "9868": 119,
        "9869": 167,
        "9870": 139,
        "9871": 41,
        "9872": 70,
        "9873": 220,
        "9874": 104,
        "9875": 90,
        "9876": 30,
        "9877": 138,
        "9878": 87,
        "9879": 42,
        "9880": 29,
        "9881": 103,
        "9882": 11,
        "9883": 17,
        "9884": 71,
        "9885": 21,
        "9886": 186,
        "9887": 5,
        "9888": 52,
        "9889": 65,
        "9890": 38,
        "9891": 49,
        "9892": 207,
        "9893": 90,
        "9894": 48,
        "9895": 121,
        "9896": 160,
        "9897": 222,
        "9898": 125,
        "9899": 56,
        "9900": 224,
        "9901": 112,
        "9902": 67,
        "9903": 15,
        "9904": 210,
        "9905": 145,
        "9906": 73,
        "9907": 126,
        "9908": 68,
        "9909": 60,
        "9910": 167,
        "9911": 52,
        "9912": 7,
        "9913": 21,
        "9914": 58,
        "9915": 217,
        "9916": 102,
        "9917": 122,
        "9918": 210,
        "9919": 74,
        "9920": 186,
        "9921": 219,
        "9922": 10,
        "9923": 221,
        "9924": 205,
        "9925": 12,
        "9926": 26,
        "9927": 206,
        "9928": 27,
        "9929": 107,
        "9930": 177,
        "9931": 133,
        "9932": 202,
        "9933": 135,
        "9934": 65,
        "9935": 248,
        "9936": 91,
        "9937": 42,
        "9938": 35,
        "9939": 219,
        "9940": 205,
        "9941": 144,
        "9942": 125,
        "9943": 41,
        "9944": 116,
        "9945": 149,
        "9946": 225,
        "9947": 53,
        "9948": 70,
        "9949": 169,
        "9950": 168,
        "9951": 255,
        "9952": 45,
        "9953": 103,
        "9954": 253,
        "9955": 247,
        "9956": 136,
        "9957": 167,
        "9958": 74,
        "9959": 250,
        "9960": 139,
        "9961": 10,
        "9962": 25,
        "9963": 184,
        "9964": 155,
        "9965": 21,
        "9966": 38,
        "9967": 29,
        "9968": 214,
        "9969": 224,
        "9970": 83,
        "9971": 164,
        "9972": 186,
        "9973": 49,
        "9974": 165,
        "9975": 48,
        "9976": 60,
        "9977": 236,
        "9978": 10,
        "9979": 8,
        "9980": 120,
        "9981": 57,
        "9982": 203,
        "9983": 166,
        "9984": 99,
        "9985": 93,
        "9986": 105,
        "9987": 99,
        "9988": 149,
        "9989": 193,
        "9990": 41,
        "9991": 185,
        "9992": 40,
        "9993": 145,
        "9994": 41,
        "9995": 248,
        "9996": 12,
        "9997": 227,
        "9998": 115,
        "9999": 150,
        "10000": 169,
        "10001": 153,
        "10002": 44,
        "10003": 109,
        "10004": 214,
        "10005": 78,
        "10006": 219,
        "10007": 3,
        "10008": 220,
        "10009": 245,
        "10010": 23,
        "10011": 169,
        "10012": 235,
        "10013": 4,
        "10014": 196,
        "10015": 24,
        "10016": 26,
        "10017": 58,
        "10018": 67,
        "10019": 137,
        "10020": 175,
        "10021": 177,
        "10022": 69,
        "10023": 226,
        "10024": 127,
        "10025": 241,
        "10026": 103,
        "10027": 161,
        "10028": 226,
        "10029": 162,
        "10030": 223,
        "10031": 214,
        "10032": 25,
        "10033": 120,
        "10034": 81,
        "10035": 17,
        "10036": 225,
        "10037": 173,
        "10038": 149,
        "10039": 126,
        "10040": 19,
        "10041": 153,
        "10042": 61,
        "10043": 190,
        "10044": 190,
        "10045": 98,
        "10046": 117,
        "10047": 91,
        "10048": 149,
        "10049": 39,
        "10050": 97,
        "10051": 141,
        "10052": 216,
        "10053": 199,
        "10054": 55,
        "10055": 87,
        "10056": 142,
        "10057": 249,
        "10058": 20,
        "10059": 147,
        "10060": 253,
        "10061": 249,
        "10062": 70,
        "10063": 121,
        "10064": 63,
        "10065": 216,
        "10066": 170,
        "10067": 85,
        "10068": 15,
        "10069": 139,
        "10070": 105,
        "10071": 47,
        "10072": 205,
        "10073": 98,
        "10074": 171,
        "10075": 13,
        "10076": 34,
        "10077": 202,
        "10078": 222,
        "10079": 51,
        "10080": 165,
        "10081": 139,
        "10082": 94,
        "10083": 111,
        "10084": 136,
        "10085": 91,
        "10086": 244,
        "10087": 47,
        "10088": 239,
        "10089": 50,
        "10090": 205,
        "10091": 25,
        "10092": 185,
        "10093": 222,
        "10094": 139,
        "10095": 198,
        "10096": 226,
        "10097": 85,
        "10098": 172,
        "10099": 241,
        "10100": 252,
        "10101": 225,
        "10102": 142,
        "10103": 249,
        "10104": 81,
        "10105": 230,
        "10106": 115,
        "10107": 101,
        "10108": 14,
        "10109": 240,
        "10110": 217,
        "10111": 110,
        "10112": 207,
        "10113": 40,
        "10114": 246,
        "10115": 97,
        "10116": 33,
        "10117": 75,
        "10118": 180,
        "10119": 32,
        "10120": 188,
        "10121": 224,
        "10122": 70,
        "10123": 195,
        "10124": 3,
        "10125": 251,
        "10126": 179,
        "10127": 149,
        "10128": 196,
        "10129": 30,
        "10130": 23,
        "10131": 64,
        "10132": 45,
        "10133": 13,
        "10134": 168,
        "10135": 204,
        "10136": 141,
        "10137": 74,
        "10138": 127,
        "10139": 108,
        "10140": 121,
        "10141": 42,
        "10142": 253,
        "10143": 234,
        "10144": 149,
        "10145": 3,
        "10146": 90,
        "10147": 141,
        "10148": 84,
        "10149": 20,
        "10150": 81,
        "10151": 225,
        "10152": 164,
        "10153": 10,
        "10154": 162,
        "10155": 63,
        "10156": 235,
        "10157": 185,
        "10158": 122,
        "10159": 83,
        "10160": 54,
        "10161": 90,
        "10162": 100,
        "10163": 121,
        "10164": 137,
        "10165": 71,
        "10166": 248,
        "10167": 176,
        "10168": 105,
        "10169": 32,
        "10170": 212,
        "10171": 41,
        "10172": 211,
        "10173": 255,
        "10174": 84,
        "10175": 187,
        "10176": 35,
        "10177": 167,
        "10178": 166,
        "10179": 136,
        "10180": 151,
        "10181": 187,
        "10182": 56,
        "10183": 57,
        "10184": 230,
        "10185": 10,
        "10186": 238,
        "10187": 216,
        "10188": 248,
        "10189": 170,
        "10190": 35,
        "10191": 157,
        "10192": 29,
        "10193": 244,
        "10194": 25,
        "10195": 169,
        "10196": 41,
        "10197": 191,
        "10198": 37,
        "10199": 92,
        "10200": 152,
        "10201": 21,
        "10202": 249,
        "10203": 103,
        "10204": 160,
        "10205": 29,
        "10206": 204,
        "10207": 206,
        "10208": 172,
        "10209": 23,
        "10210": 190,
        "10211": 43,
        "10212": 177,
        "10213": 225,
        "10214": 123,
        "10215": 201,
        "10216": 36,
        "10217": 32,
        "10218": 114,
        "10219": 93,
        "10220": 69,
        "10221": 78,
        "10222": 113,
        "10223": 144,
        "10224": 253,
        "10225": 40,
        "10226": 93,
        "10227": 51,
        "10228": 93,
        "10229": 183,
        "10230": 76,
        "10231": 251,
        "10232": 90,
        "10233": 221,
        "10234": 153,
        "10235": 18,
        "10236": 166,
        "10237": 225,
        "10238": 83,
        "10239": 38,
        "10240": 180,
        "10241": 82,
        "10242": 195,
        "10243": 229,
        "10244": 136,
        "10245": 120,
        "10246": 109,
        "10247": 114,
        "10248": 207,
        "10249": 134,
        "10250": 197,
        "10251": 250,
        "10252": 19,
        "10253": 63,
        "10254": 60,
        "10255": 169,
        "10256": 151,
        "10257": 64,
        "10258": 41,
        "10259": 59,
        "10260": 114,
        "10261": 37,
        "10262": 88,
        "10263": 185,
        "10264": 214,
        "10265": 105,
        "10266": 132,
        "10267": 175,
        "10268": 107,
        "10269": 224,
        "10270": 46,
        "10271": 151,
        "10272": 91,
        "10273": 238,
        "10274": 208,
        "10275": 151,
        "10276": 27,
        "10277": 57,
        "10278": 202,
        "10279": 217,
        "10280": 1,
        "10281": 204,
        "10282": 5,
        "10283": 219,
        "10284": 169,
        "10285": 51,
        "10286": 251,
        "10287": 181,
        "10288": 65,
        "10289": 250,
        "10290": 7,
        "10291": 223,
        "10292": 139,
        "10293": 245,
        "10294": 14,
        "10295": 39,
        "10296": 242,
        "10297": 118,
        "10298": 157,
        "10299": 151,
        "10300": 239,
        "10301": 166,
        "10302": 108,
        "10303": 230,
        "10304": 24,
        "10305": 60,
        "10306": 7,
        "10307": 207,
        "10308": 121,
        "10309": 242,
        "10310": 173,
        "10311": 208,
        "10312": 79,
        "10313": 237,
        "10314": 177,
        "10315": 61,
        "10316": 197,
        "10317": 14,
        "10318": 199,
        "10319": 163,
        "10320": 204,
        "10321": 135,
        "10322": 251,
        "10323": 118,
        "10324": 172,
        "10325": 197,
        "10326": 48,
        "10327": 24,
        "10328": 25,
        "10329": 188,
        "10330": 13,
        "10331": 253,
        "10332": 21,
        "10333": 249,
        "10334": 187,
        "10335": 120,
        "10336": 100,
        "10337": 247,
        "10338": 86,
        "10339": 138,
        "10340": 0,
        "10341": 185,
        "10342": 6,
        "10343": 122,
        "10344": 140,
        "10345": 206,
        "10346": 236,
        "10347": 30,
        "10348": 224,
        "10349": 223,
        "10350": 245,
        "10351": 1,
        "10352": 167,
        "10353": 243,
        "10354": 146,
        "10355": 243,
        "10356": 60,
        "10357": 138,
        "10358": 177,
        "10359": 80,
        "10360": 187,
        "10361": 86,
        "10362": 117,
        "10363": 151,
        "10364": 68,
        "10365": 92,
        "10366": 221,
        "10367": 90,
        "10368": 252,
        "10369": 103,
        "10370": 154,
        "10371": 133,
        "10372": 154,
        "10373": 250,
        "10374": 133,
        "10375": 209,
        "10376": 141,
        "10377": 92,
        "10378": 111,
        "10379": 65,
        "10380": 246,
        "10381": 173,
        "10382": 31,
        "10383": 44,
        "10384": 113,
        "10385": 115,
        "10386": 120,
        "10387": 150,
        "10388": 122,
        "10389": 15,
        "10390": 105,
        "10391": 159,
        "10392": 220,
        "10393": 200,
        "10394": 119,
        "10395": 74,
        "10396": 98,
        "10397": 57,
        "10398": 76,
        "10399": 7,
        "10400": 19,
        "10401": 179,
        "10402": 89,
        "10403": 147,
        "10404": 228,
        "10405": 215,
        "10406": 18,
        "10407": 172,
        "10408": 206,
        "10409": 159,
        "10410": 78,
        "10411": 9,
        "10412": 186,
        "10413": 81,
        "10414": 43,
        "10415": 240,
        "10416": 68,
        "10417": 183,
        "10418": 137,
        "10419": 77,
        "10420": 125,
        "10421": 225,
        "10422": 143,
        "10423": 22,
        "10424": 255,
        "10425": 172,
        "10426": 237,
        "10427": 70,
        "10428": 10,
        "10429": 61,
        "10430": 9,
        "10431": 215,
        "10432": 99,
        "10433": 120,
        "10434": 208,
        "10435": 122,
        "10436": 224,
        "10437": 82,
        "10438": 249,
        "10439": 67,
        "10440": 119,
        "10441": 181,
        "10442": 56,
        "10443": 246,
        "10444": 11,
        "10445": 247,
        "10446": 247,
        "10447": 221,
        "10448": 106,
        "10449": 139,
        "10450": 196,
        "10451": 245,
        "10452": 202,
        "10453": 252,
        "10454": 118,
        "10455": 98,
        "10456": 213,
        "10457": 253,
        "10458": 19,
        "10459": 252,
        "10460": 35,
        "10461": 40,
        "10462": 18,
        "10463": 191,
        "10464": 168,
        "10465": 116,
        "10466": 173,
        "10467": 216,
        "10468": 7,
        "10469": 150,
        "10470": 137,
        "10471": 253,
        "10472": 65,
        "10473": 236,
        "10474": 39,
        "10475": 150,
        "10476": 191,
        "10477": 132,
        "10478": 90,
        "10479": 27,
        "10480": 120,
        "10481": 181,
        "10482": 158,
        "10483": 5,
        "10484": 0,
        "10485": 83,
        "10486": 167,
        "10487": 3,
        "10488": 137,
        "10489": 114,
        "10490": 43,
        "10491": 172,
        "10492": 228,
        "10493": 89,
        "10494": 227,
        "10495": 211,
        "10496": 46,
        "10497": 219,
        "10498": 242,
        "10499": 23,
        "10500": 147,
        "10501": 96,
        "10502": 46,
        "10503": 206,
        "10504": 5,
        "10505": 15,
        "10506": 84,
        "10507": 60,
        "10508": 155,
        "10509": 245,
        "10510": 1,
        "10511": 156,
        "10512": 93,
        "10513": 43,
        "10514": 207,
        "10515": 107,
        "10516": 150,
        "10517": 43,
        "10518": 107,
        "10519": 28,
        "10520": 215,
        "10521": 132,
        "10522": 28,
        "10523": 186,
        "10524": 100,
        "10525": 12,
        "10526": 172,
        "10527": 62,
        "10528": 57,
        "10529": 103,
        "10530": 221,
        "10531": 243,
        "10532": 42,
        "10533": 72,
        "10534": 235,
        "10535": 227,
        "10536": 61,
        "10537": 162,
        "10538": 152,
        "10539": 119,
        "10540": 120,
        "10541": 120,
        "10542": 147,
        "10543": 12,
        "10544": 115,
        "10545": 186,
        "10546": 226,
        "10547": 243,
        "10548": 56,
        "10549": 121,
        "10550": 30,
        "10551": 70,
        "10552": 236,
        "10553": 243,
        "10554": 67,
        "10555": 113,
        "10556": 203,
        "10557": 193,
        "10558": 11,
        "10559": 55,
        "10560": 245,
        "10561": 11,
        "10562": 186,
        "10563": 223,
        "10564": 195,
        "10565": 94,
        "10566": 197,
        "10567": 191,
        "10568": 213,
        "10569": 121,
        "10570": 29,
        "10571": 203,
        "10572": 122,
        "10573": 115,
        "10574": 59,
        "10575": 230,
        "10576": 93,
        "10577": 20,
        "10578": 198,
        "10579": 53,
        "10580": 114,
        "10581": 56,
        "10582": 171,
        "10583": 46,
        "10584": 246,
        "10585": 130,
        "10586": 192,
        "10587": 177,
        "10588": 67,
        "10589": 173,
        "10590": 68,
        "10591": 50,
        "10592": 92,
        "10593": 188,
        "10594": 202,
        "10595": 174,
        "10596": 180,
        "10597": 54,
        "10598": 52,
        "10599": 232,
        "10600": 67,
        "10601": 237,
        "10602": 39,
        "10603": 214,
        "10604": 209,
        "10605": 37,
        "10606": 245,
        "10607": 8,
        "10608": 248,
        "10609": 8,
        "10610": 66,
        "10611": 104,
        "10612": 51,
        "10613": 245,
        "10614": 216,
        "10615": 192,
        "10616": 185,
        "10617": 139,
        "10618": 59,
        "10619": 57,
        "10620": 109,
        "10621": 127,
        "10622": 96,
        "10623": 152,
        "10624": 32,
        "10625": 116,
        "10626": 79,
        "10627": 35,
        "10628": 36,
        "10629": 67,
        "10630": 181,
        "10631": 65,
        "10632": 20,
        "10633": 47,
        "10634": 164,
        "10635": 114,
        "10636": 25,
        "10637": 253,
        "10638": 229,
        "10639": 14,
        "10640": 47,
        "10641": 249,
        "10642": 69,
        "10643": 190,
        "10644": 29,
        "10645": 166,
        "10646": 118,
        "10647": 111,
        "10648": 222,
        "10649": 95,
        "10650": 103,
        "10651": 23,
        "10652": 174,
        "10653": 82,
        "10654": 56,
        "10655": 213,
        "10656": 47,
        "10657": 35,
        "10658": 235,
        "10659": 234,
        "10660": 24,
        "10661": 112,
        "10662": 89,
        "10663": 134,
        "10664": 214,
        "10665": 23,
        "10666": 121,
        "10667": 163,
        "10668": 217,
        "10669": 194,
        "10670": 4,
        "10671": 49,
        "10672": 179,
        "10673": 235,
        "10674": 79,
        "10675": 77,
        "10676": 14,
        "10677": 86,
        "10678": 71,
        "10679": 51,
        "10680": 212,
        "10681": 30,
        "10682": 245,
        "10683": 165,
        "10684": 85,
        "10685": 80,
        "10686": 144,
        "10687": 59,
        "10688": 38,
        "10689": 211,
        "10690": 248,
        "10691": 166,
        "10692": 96,
        "10693": 18,
        "10694": 112,
        "10695": 187,
        "10696": 212,
        "10697": 149,
        "10698": 244,
        "10699": 143,
        "10700": 83,
        "10701": 28,
        "10702": 131,
        "10703": 184,
        "10704": 132,
        "10705": 193,
        "10706": 211,
        "10707": 200,
        "10708": 174,
        "10709": 46,
        "10710": 253,
        "10711": 189,
        "10712": 104,
        "10713": 120,
        "10714": 140,
        "10715": 206,
        "10716": 80,
        "10717": 132,
        "10718": 191,
        "10719": 120,
        "10720": 107,
        "10721": 84,
        "10722": 184,
        "10723": 73,
        "10724": 43,
        "10725": 1,
        "10726": 173,
        "10727": 33,
        "10728": 12,
        "10729": 126,
        "10730": 95,
        "10731": 139,
        "10732": 112,
        "10733": 137,
        "10734": 211,
        "10735": 34,
        "10736": 65,
        "10737": 231,
        "10738": 137,
        "10739": 206,
        "10740": 98,
        "10741": 166,
        "10742": 89,
        "10743": 215,
        "10744": 66,
        "10745": 80,
        "10746": 228,
        "10747": 145,
        "10748": 89,
        "10749": 41,
        "10750": 173,
        "10751": 243,
        "10752": 49,
        "10753": 199,
        "10754": 235,
        "10755": 62,
        "10756": 38,
        "10757": 27,
        "10758": 154,
        "10759": 12,
        "10760": 86,
        "10761": 67,
        "10762": 187,
        "10763": 236,
        "10764": 194,
        "10765": 235,
        "10766": 102,
        "10767": 255,
        "10768": 102,
        "10769": 250,
        "10770": 179,
        "10771": 94,
        "10772": 27,
        "10773": 212,
        "10774": 107,
        "10775": 137,
        "10776": 103,
        "10777": 175,
        "10778": 254,
        "10779": 242,
        "10780": 197,
        "10781": 127,
        "10782": 53,
        "10783": 23,
        "10784": 150,
        "10785": 101,
        "10786": 97,
        "10787": 21,
        "10788": 250,
        "10789": 173,
        "10790": 220,
        "10791": 187,
        "10792": 13,
        "10793": 149,
        "10794": 241,
        "10795": 43,
        "10796": 202,
        "10797": 1,
        "10798": 101,
        "10799": 188,
        "10800": 230,
        "10801": 3,
        "10802": 126,
        "10803": 74,
        "10804": 233,
        "10805": 26,
        "10806": 168,
        "10807": 121,
        "10808": 109,
        "10809": 61,
        "10810": 102,
        "10811": 61,
        "10812": 96,
        "10813": 45,
        "10814": 135,
        "10815": 219,
        "10816": 84,
        "10817": 137,
        "10818": 252,
        "10819": 245,
        "10820": 245,
        "10821": 41,
        "10822": 210,
        "10823": 213,
        "10824": 49,
        "10825": 55,
        "10826": 100,
        "10827": 25,
        "10828": 113,
        "10829": 167,
        "10830": 186,
        "10831": 98,
        "10832": 28,
        "10833": 187,
        "10834": 157,
        "10835": 125,
        "10836": 125,
        "10837": 185,
        "10838": 201,
        "10839": 172,
        "10840": 12,
        "10841": 104,
        "10842": 68,
        "10843": 194,
        "10844": 28,
        "10845": 53,
        "10846": 4,
        "10847": 17,
        "10848": 88,
        "10849": 222,
        "10850": 146,
        "10851": 96,
        "10852": 50,
        "10853": 124,
        "10854": 186,
        "10855": 246,
        "10856": 100,
        "10857": 137,
        "10858": 62,
        "10859": 48,
        "10860": 127,
        "10861": 150,
        "10862": 67,
        "10863": 124,
        "10864": 102,
        "10865": 39,
        "10866": 171,
        "10867": 120,
        "10868": 125,
        "10869": 53,
        "10870": 3,
        "10871": 195,
        "10872": 118,
        "10873": 79,
        "10874": 113,
        "10875": 59,
        "10876": 71,
        "10877": 64,
        "10878": 197,
        "10879": 53,
        "10880": 248,
        "10881": 152,
        "10882": 128,
        "10883": 188,
        "10884": 37,
        "10885": 177,
        "10886": 197,
        "10887": 212,
        "10888": 0,
        "10889": 172,
        "10890": 164,
        "10891": 75,
        "10892": 245,
        "10893": 52,
        "10894": 73,
        "10895": 69,
        "10896": 31,
        "10897": 105,
        "10898": 167,
        "10899": 205,
        "10900": 171,
        "10901": 31,
        "10902": 129,
        "10903": 16,
        "10904": 182,
        "10905": 131,
        "10906": 115,
        "10907": 10,
        "10908": 79,
        "10909": 219,
        "10910": 91,
        "10911": 200,
        "10912": 54,
        "10913": 64,
        "10914": 43,
        "10915": 191,
        "10916": 115,
        "10917": 1,
        "10918": 250,
        "10919": 209,
        "10920": 115,
        "10921": 53,
        "10922": 42,
        "10923": 96,
        "10924": 219,
        "10925": 130,
        "10926": 168,
        "10927": 233,
        "10928": 211,
        "10929": 250,
        "10930": 28,
        "10931": 79,
        "10932": 248,
        "10933": 134,
        "10934": 203,
        "10935": 248,
        "10936": 128,
        "10937": 17,
        "10938": 188,
        "10939": 62,
        "10940": 232,
        "10941": 240,
        "10942": 130,
        "10943": 99,
        "10944": 38,
        "10945": 209,
        "10946": 177,
        "10947": 32,
        "10948": 164,
        "10949": 43,
        "10950": 51,
        "10951": 241,
        "10952": 65,
        "10953": 186,
        "10954": 237,
        "10955": 79,
        "10956": 224,
        "10957": 173,
        "10958": 39,
        "10959": 78,
        "10960": 168,
        "10961": 129,
        "10962": 147,
        "10963": 220,
        "10964": 200,
        "10965": 238,
        "10966": 110,
        "10967": 251,
        "10968": 226,
        "10969": 231,
        "10970": 48,
        "10971": 199,
        "10972": 232,
        "10973": 22,
        "10974": 50,
        "10975": 153,
        "10976": 138,
        "10977": 167,
        "10978": 158,
        "10979": 2,
        "10980": 204,
        "10981": 61,
        "10982": 4,
        "10983": 231,
        "10984": 220,
        "10985": 45,
        "10986": 155,
        "10987": 162,
        "10988": 56,
        "10989": 44,
        "10990": 131,
        "10991": 176,
        "10992": 178,
        "10993": 60,
        "10994": 70,
        "10995": 168,
        "10996": 166,
        "10997": 84,
        "10998": 76,
        "10999": 146,
        "11000": 107,
        "11001": 19,
        "11002": 40,
        "11003": 197,
        "11004": 107,
        "11005": 0,
        "11006": 22,
        "11007": 206,
        "11008": 98,
        "11009": 163,
        "11010": 166,
        "11011": 31,
        "11012": 202,
        "11013": 162,
        "11014": 10,
        "11015": 212,
        "11016": 170,
        "11017": 196,
        "11018": 127,
        "11019": 140,
        "11020": 229,
        "11021": 235,
        "11022": 105,
        "11023": 209,
        "11024": 65,
        "11025": 8,
        "11026": 114,
        "11027": 216,
        "11028": 104,
        "11029": 5,
        "11030": 104,
        "11031": 50,
        "11032": 115,
        "11033": 229,
        "11034": 235,
        "11035": 83,
        "11036": 81,
        "11037": 230,
        "11038": 59,
        "11039": 103,
        "11040": 204,
        "11041": 242,
        "11042": 158,
        "11043": 160,
        "11044": 248,
        "11045": 91,
        "11046": 80,
        "11047": 167,
        "11048": 20,
        "11049": 239,
        "11050": 26,
        "11051": 174,
        "11052": 69,
        "11053": 205,
        "11054": 208,
        "11055": 93,
        "11056": 163,
        "11057": 147,
        "11058": 21,
        "11059": 177,
        "11060": 147,
        "11061": 79,
        "11062": 6,
        "11063": 109,
        "11064": 168,
        "11065": 115,
        "11066": 128,
        "11067": 107,
        "11068": 250,
        "11069": 81,
        "11070": 74,
        "11071": 234,
        "11072": 172,
        "11073": 230,
        "11074": 102,
        "11075": 92,
        "11076": 203,
        "11077": 102,
        "11078": 222,
        "11079": 188,
        "11080": 157,
        "11081": 4,
        "11082": 100,
        "11083": 205,
        "11084": 105,
        "11085": 142,
        "11086": 1,
        "11087": 141,
        "11088": 35,
        "11089": 120,
        "11090": 36,
        "11091": 76,
        "11092": 195,
        "11093": 143,
        "11094": 65,
        "11095": 66,
        "11096": 55,
        "11097": 158,
        "11098": 143,
        "11099": 226,
        "11100": 109,
        "11101": 56,
        "11102": 236,
        "11103": 39,
        "11104": 103,
        "11105": 133,
        "11106": 99,
        "11107": 163,
        "11108": 95,
        "11109": 14,
        "11110": 220,
        "11111": 43,
        "11112": 92,
        "11113": 88,
        "11114": 125,
        "11115": 29,
        "11116": 242,
        "11117": 42,
        "11118": 112,
        "11119": 160,
        "11120": 114,
        "11121": 233,
        "11122": 192,
        "11123": 74,
        "11124": 191,
        "11125": 102,
        "11126": 86,
        "11127": 144,
        "11128": 211,
        "11129": 219,
        "11130": 71,
        "11131": 17,
        "11132": 51,
        "11133": 20,
        "11134": 188,
        "11135": 247,
        "11136": 100,
        "11137": 57,
        "11138": 216,
        "11139": 8,
        "11140": 79,
        "11141": 67,
        "11142": 24,
        "11143": 248,
        "11144": 128,
        "11145": 6,
        "11146": 248,
        "11147": 219,
        "11148": 166,
        "11149": 46,
        "11150": 187,
        "11151": 102,
        "11152": 140,
        "11153": 140,
        "11154": 78,
        "11155": 137,
        "11156": 35,
        "11157": 27,
        "11158": 113,
        "11159": 239,
        "11160": 249,
        "11161": 217,
        "11162": 202,
        "11163": 122,
        "11164": 117,
        "11165": 231,
        "11166": 234,
        "11167": 247,
        "11168": 201,
        "11169": 93,
        "11170": 90,
        "11171": 132,
        "11172": 27,
        "11173": 204,
        "11174": 151,
        "11175": 50,
        "11176": 131,
        "11177": 226,
        "11178": 114,
        "11179": 178,
        "11180": 185,
        "11181": 223,
        "11182": 128,
        "11183": 234,
        "11184": 22,
        "11185": 134,
        "11186": 116,
        "11187": 237,
        "11188": 209,
        "11189": 89,
        "11190": 134,
        "11191": 48,
        "11192": 101,
        "11193": 12,
        "11194": 236,
        "11195": 2,
        "11196": 119,
        "11197": 208,
        "11198": 253,
        "11199": 216,
        "11200": 134,
        "11201": 22,
        "11202": 249,
        "11203": 74,
        "11204": 229,
        "11205": 157,
        "11206": 217,
        "11207": 15,
        "11208": 165,
        "11209": 195,
        "11210": 187,
        "11211": 90,
        "11212": 221,
        "11213": 3,
        "11214": 60,
        "11215": 28,
        "11216": 213,
        "11217": 57,
        "11218": 115,
        "11219": 208,
        "11220": 224,
        "11221": 167,
        "11222": 211,
        "11223": 182,
        "11224": 162,
        "11225": 116,
        "11226": 217,
        "11227": 140,
        "11228": 9,
        "11229": 187,
        "11230": 218,
        "11231": 134,
        "11232": 217,
        "11233": 159,
        "11234": 158,
        "11235": 167,
        "11236": 245,
        "11237": 11,
        "11238": 19,
        "11239": 103,
        "11240": 105,
        "11241": 37,
        "11242": 237,
        "11243": 145,
        "11244": 110,
        "11245": 73,
        "11246": 29,
        "11247": 72,
        "11248": 110,
        "11249": 63,
        "11250": 38,
        "11251": 75,
        "11252": 81,
        "11253": 91,
        "11254": 137,
        "11255": 111,
        "11256": 248,
        "11257": 252,
        "11258": 57,
        "11259": 34,
        "11260": 153,
        "11261": 171,
        "11262": 237,
        "11263": 35,
        "11264": 144,
        "11265": 124,
        "11266": 24,
        "11267": 149,
        "11268": 1,
        "11269": 173,
        "11270": 172,
        "11271": 187,
        "11272": 8,
        "11273": 35,
        "11274": 119,
        "11275": 221,
        "11276": 150,
        "11277": 216,
        "11278": 224,
        "11279": 121,
        "11280": 115,
        "11281": 156,
        "11282": 235,
        "11283": 207,
        "11284": 36,
        "11285": 20,
        "11286": 174,
        "11287": 169,
        "11288": 148,
        "11289": 35,
        "11290": 125,
        "11291": 224,
        "11292": 160,
        "11293": 67,
        "11294": 227,
        "11295": 222,
        "11296": 29,
        "11297": 126,
        "11298": 146,
        "11299": 151,
        "11300": 163,
        "11301": 76,
        "11302": 118,
        "11303": 186,
        "11304": 233,
        "11305": 123,
        "11306": 191,
        "11307": 32,
        "11308": 44,
        "11309": 156,
        "11310": 61,
        "11311": 110,
        "11312": 37,
        "11313": 168,
        "11314": 149,
        "11315": 3,
        "11316": 133,
        "11317": 213,
        "11318": 250,
        "11319": 180,
        "11320": 63,
        "11321": 105,
        "11322": 91,
        "11323": 219,
        "11324": 23,
        "11325": 97,
        "11326": 88,
        "11327": 168,
        "11328": 65,
        "11329": 159,
        "11330": 12,
        "11331": 112,
        "11332": 67,
        "11333": 133,
        "11334": 33,
        "11335": 222,
        "11336": 135,
        "11337": 31,
        "11338": 145,
        "11339": 175,
        "11340": 105,
        "11341": 176,
        "11342": 39,
        "11343": 85,
        "11344": 225,
        "11345": 208,
        "11346": 99,
        "11347": 102,
        "11348": 129,
        "11349": 96,
        "11350": 49,
        "11351": 233,
        "11352": 195,
        "11353": 249,
        "11354": 251,
        "11355": 187,
        "11356": 14,
        "11357": 147,
        "11358": 8,
        "11359": 232,
        "11360": 6,
        "11361": 203,
        "11362": 63,
        "11363": 5,
        "11364": 232,
        "11365": 0,
        "11366": 207,
        "11367": 252,
        "11368": 213,
        "11369": 70,
        "11370": 47,
        "11371": 163,
        "11372": 175,
        "11373": 16,
        "11374": 139,
        "11375": 73,
        "11376": 255,
        "11377": 227,
        "11378": 220,
        "11379": 53,
        "11380": 146,
        "11381": 243,
        "11382": 251,
        "11383": 128,
        "11384": 200,
        "11385": 96,
        "11386": 38,
        "11387": 109,
        "11388": 192,
        "11389": 33,
        "11390": 12,
        "11391": 238,
        "11392": 120,
        "11393": 13,
        "11394": 130,
        "11395": 228,
        "11396": 194,
        "11397": 140,
        "11398": 115,
        "11399": 89,
        "11400": 80,
        "11401": 132,
        "11402": 43,
        "11403": 163,
        "11404": 35,
        "11405": 82,
        "11406": 109,
        "11407": 189,
        "11408": 253,
        "11409": 36,
        "11410": 59,
        "11411": 242,
        "11412": 251,
        "11413": 90,
        "11414": 183,
        "11415": 36,
        "11416": 226,
        "11417": 247,
        "11418": 34,
        "11419": 142,
        "11420": 4,
        "11421": 26,
        "11422": 111,
        "11423": 36,
        "11424": 98,
        "11425": 8,
        "11426": 135,
        "11427": 61,
        "11428": 253,
        "11429": 72,
        "11430": 156,
        "11431": 242,
        "11432": 50,
        "11433": 232,
        "11434": 247,
        "11435": 210,
        "11436": 148,
        "11437": 60,
        "11438": 210,
        "11439": 49,
        "11440": 237,
        "11441": 233,
        "11442": 181,
        "11443": 42,
        "11444": 30,
        "11445": 25,
        "11446": 174,
        "11447": 71,
        "11448": 219,
        "11449": 91,
        "11450": 147,
        "11451": 185,
        "11452": 240,
        "11453": 10,
        "11454": 106,
        "11455": 97,
        "11456": 214,
        "11457": 191,
        "11458": 235,
        "11459": 248,
        "11460": 15,
        "11461": 116,
        "11462": 167,
        "11463": 114,
        "11464": 158,
        "11465": 77,
        "11466": 91,
        "11467": 252,
        "11468": 120,
        "11469": 134,
        "11470": 29,
        "11471": 62,
        "11472": 65,
        "11473": 205,
        "11474": 68,
        "11475": 122,
        "11476": 75,
        "11477": 115,
        "11478": 252,
        "11479": 254,
        "11480": 128,
        "11481": 6,
        "11482": 188,
        "11483": 26,
        "11484": 74,
        "11485": 169,
        "11486": 194,
        "11487": 103,
        "11488": 251,
        "11489": 206,
        "11490": 135,
        "11491": 76,
        "11492": 126,
        "11493": 154,
        "11494": 154,
        "11495": 245,
        "11496": 32,
        "11497": 154,
        "11498": 252,
        "11499": 130,
        "11500": 33,
        "11501": 0,
        "11502": 60,
        "11503": 184,
        "11504": 42,
        "11505": 207,
        "11506": 249,
        "11507": 144,
        "11508": 137,
        "11509": 236,
        "11510": 19,
        "11511": 68,
        "11512": 99,
        "11513": 119,
        "11514": 105,
        "11515": 229,
        "11516": 2,
        "11517": 3,
        "11518": 251,
        "11519": 155,
        "11520": 153,
        "11521": 1,
        "11522": 50,
        "11523": 251,
        "11524": 169,
        "11525": 196,
        "11526": 225,
        "11527": 82,
        "11528": 227,
        "11529": 5,
        "11530": 128,
        "11531": 130,
        "11532": 66,
        "11533": 221,
        "11534": 236,
        "11535": 150,
        "11536": 88,
        "11537": 9,
        "11538": 219,
        "11539": 221,
        "11540": 182,
        "11541": 217,
        "11542": 11,
        "11543": 162,
        "11544": 183,
        "11545": 76,
        "11546": 46,
        "11547": 88,
        "11548": 179,
        "11549": 226,
        "11550": 80,
        "11551": 148,
        "11552": 103,
        "11553": 25,
        "11554": 27,
        "11555": 255,
        "11556": 197,
        "11557": 168,
        "11558": 130,
        "11559": 215,
        "11560": 5,
        "11561": 90,
        "11562": 138,
        "11563": 163,
        "11564": 232,
        "11565": 33,
        "11566": 38,
        "11567": 199,
        "11568": 134,
        "11569": 15,
        "11570": 85,
        "11571": 111,
        "11572": 98,
        "11573": 37,
        "11574": 49,
        "11575": 106,
        "11576": 112,
        "11577": 65,
        "11578": 6,
        "11579": 12,
        "11580": 94,
        "11581": 32,
        "11582": 149,
        "11583": 230,
        "11584": 180,
        "11585": 243,
        "11586": 27,
        "11587": 64,
        "11588": 39,
        "11589": 200,
        "11590": 141,
        "11591": 139,
        "11592": 92,
        "11593": 244,
        "11594": 214,
        "11595": 172,
        "11596": 57,
        "11597": 100,
        "11598": 9,
        "11599": 62,
        "11600": 229,
        "11601": 235,
        "11602": 94,
        "11603": 10,
        "11604": 114,
        "11605": 157,
        "11606": 220,
        "11607": 112,
        "11608": 58,
        "11609": 144,
        "11610": 86,
        "11611": 167,
        "11612": 65,
        "11613": 112,
        "11614": 217,
        "11615": 80,
        "11616": 111,
        "11617": 176,
        "11618": 109,
        "11619": 38,
        "11620": 1,
        "11621": 203,
        "11622": 77,
        "11623": 144,
        "11624": 137,
        "11625": 13,
        "11626": 235,
        "11627": 167,
        "11628": 63,
        "11629": 193,
        "11630": 226,
        "11631": 85,
        "11632": 176,
        "11633": 22,
        "11634": 186,
        "11635": 48,
        "11636": 100,
        "11637": 227,
        "11638": 196,
        "11639": 242,
        "11640": 40,
        "11641": 98,
        "11642": 31,
        "11643": 67,
        "11644": 98,
        "11645": 196,
        "11646": 157,
        "11647": 233,
        "11648": 240,
        "11649": 128,
        "11650": 253,
        "11651": 215,
        "11652": 122,
        "11653": 151,
        "11654": 46,
        "11655": 97,
        "11656": 105,
        "11657": 221,
        "11658": 185,
        "11659": 198,
        "11660": 102,
        "11661": 235,
        "11662": 230,
        "11663": 190,
        "11664": 154,
        "11665": 205,
        "11666": 32,
        "11667": 165,
        "11668": 145,
        "11669": 215,
        "11670": 116,
        "11671": 62,
        "11672": 131,
        "11673": 21,
        "11674": 113,
        "11675": 35,
        "11676": 136,
        "11677": 67,
        "11678": 39,
        "11679": 23,
        "11680": 222,
        "11681": 135,
        "11682": 83,
        "11683": 226,
        "11684": 122,
        "11685": 153,
        "11686": 115,
        "11687": 49,
        "11688": 82,
        "11689": 196,
        "11690": 35,
        "11691": 227,
        "11692": 154,
        "11693": 42,
        "11694": 16,
        "11695": 209,
        "11696": 67,
        "11697": 38,
        "11698": 41,
        "11699": 78,
        "11700": 71,
        "11701": 65,
        "11702": 14,
        "11703": 90,
        "11704": 89,
        "11705": 84,
        "11706": 179,
        "11707": 51,
        "11708": 77,
        "11709": 28,
        "11710": 251,
        "11711": 200,
        "11712": 177,
        "11713": 19,
        "11714": 109,
        "11715": 216,
        "11716": 91,
        "11717": 151,
        "11718": 149,
        "11719": 61,
        "11720": 46,
        "11721": 181,
        "11722": 81,
        "11723": 199,
        "11724": 127,
        "11725": 117,
        "11726": 77,
        "11727": 126,
        "11728": 124,
        "11729": 83,
        "11730": 193,
        "11731": 223,
        "11732": 6,
        "11733": 158,
        "11734": 157,
        "11735": 198,
        "11736": 100,
        "11737": 249,
        "11738": 147,
        "11739": 61,
        "11740": 99,
        "11741": 222,
        "11742": 91,
        "11743": 145,
        "11744": 133,
        "11745": 167,
        "11746": 156,
        "11747": 233,
        "11748": 222,
        "11749": 74,
        "11750": 11,
        "11751": 177,
        "11752": 252,
        "11753": 158,
        "11754": 116,
        "11755": 171,
        "11756": 157,
        "11757": 182,
        "11758": 216,
        "11759": 15,
        "11760": 44,
        "11761": 123,
        "11762": 182,
        "11763": 181,
        "11764": 131,
        "11765": 242,
        "11766": 128,
        "11767": 51,
        "11768": 219,
        "11769": 248,
        "11770": 141,
        "11771": 200,
        "11772": 4,
        "11773": 70,
        "11774": 137,
        "11775": 195,
        "11776": 150,
        "11777": 94,
        "11778": 73,
        "11779": 199,
        "11780": 226,
        "11781": 221,
        "11782": 53,
        "11783": 38,
        "11784": 231,
        "11785": 211,
        "11786": 120,
        "11787": 80,
        "11788": 92,
        "11789": 190,
        "11790": 181,
        "11791": 116,
        "11792": 113,
        "11793": 72,
        "11794": 50,
        "11795": 26,
        "11796": 13,
        "11797": 66,
        "11798": 233,
        "11799": 246,
        "11800": 185,
        "11801": 206,
        "11802": 199,
        "11803": 190,
        "11804": 128,
        "11805": 68,
        "11806": 127,
        "11807": 95,
        "11808": 75,
        "11809": 85,
        "11810": 72,
        "11811": 66,
        "11812": 38,
        "11813": 209,
        "11814": 178,
        "11815": 205,
        "11816": 19,
        "11817": 55,
        "11818": 26,
        "11819": 213,
        "11820": 171,
        "11821": 179,
        "11822": 250,
        "11823": 51,
        "11824": 115,
        "11825": 101,
        "11826": 235,
        "11827": 8,
        "11828": 91,
        "11829": 127,
        "11830": 37,
        "11831": 36,
        "11832": 228,
        "11833": 245,
        "11834": 195,
        "11835": 156,
        "11836": 48,
        "11837": 64,
        "11838": 142,
        "11839": 122,
        "11840": 254,
        "11841": 209,
        "11842": 170,
        "11843": 52,
        "11844": 85,
        "11845": 155,
        "11846": 205,
        "11847": 42,
        "11848": 53,
        "11849": 70,
        "11850": 61,
        "11851": 4,
        "11852": 133,
        "11853": 178,
        "11854": 143,
        "11855": 22,
        "11856": 2,
        "11857": 234,
        "11858": 244,
        "11859": 38,
        "11860": 137,
        "11861": 182,
        "11862": 245,
        "11863": 207,
        "11864": 100,
        "11865": 18,
        "11866": 30,
        "11867": 137,
        "11868": 107,
        "11869": 138,
        "11870": 71,
        "11871": 254,
        "11872": 99,
        "11873": 254,
        "11874": 160,
        "11875": 212,
        "11876": 197,
        "11877": 18,
        "11878": 116,
        "11879": 212,
        "11880": 158,
        "11881": 194,
        "11882": 193,
        "11883": 207,
        "11884": 67,
        "11885": 39,
        "11886": 12,
        "11887": 38,
        "11888": 5,
        "11889": 170,
        "11890": 100,
        "11891": 149,
        "11892": 38,
        "11893": 157,
        "11894": 14,
        "11895": 62,
        "11896": 159,
        "11897": 49,
        "11898": 240,
        "11899": 145,
        "11900": 90,
        "11901": 195,
        "11902": 221,
        "11903": 46,
        "11904": 175,
        "11905": 153,
        "11906": 240,
        "11907": 225,
        "11908": 32,
        "11909": 248,
        "11910": 61,
        "11911": 4,
        "11912": 10,
        "11913": 125,
        "11914": 89,
        "11915": 212,
        "11916": 134,
        "11917": 31,
        "11918": 213,
        "11919": 92,
        "11920": 197,
        "11921": 27,
        "11922": 148,
        "11923": 178,
        "11924": 159,
        "11925": 221,
        "11926": 120,
        "11927": 242,
        "11928": 93,
        "11929": 99,
        "11930": 150,
        "11931": 11,
        "11932": 162,
        "11933": 115,
        "11934": 5,
        "11935": 85,
        "11936": 174,
        "11937": 72,
        "11938": 26,
        "11939": 132,
        "11940": 17,
        "11941": 246,
        "11942": 112,
        "11943": 16,
        "11944": 224,
        "11945": 45,
        "11946": 43,
        "11947": 171,
        "11948": 72,
        "11949": 207,
        "11950": 116,
        "11951": 197,
        "11952": 188,
        "11953": 184,
        "11954": 99,
        "11955": 217,
        "11956": 201,
        "11957": 159,
        "11958": 220,
        "11959": 18,
        "11960": 164,
        "11961": 187,
        "11962": 95,
        "11963": 237,
        "11964": 22,
        "11965": 223,
        "11966": 136,
        "11967": 185,
        "11968": 135,
        "11969": 54,
        "11970": 28,
        "11971": 60,
        "11972": 247,
        "11973": 232,
        "11974": 64,
        "11975": 220,
        "11976": 121,
        "11977": 54,
        "11978": 221,
        "11979": 141,
        "11980": 102,
        "11981": 254,
        "11982": 6,
        "11983": 58,
        "11984": 144,
        "11985": 144,
        "11986": 116,
        "11987": 118,
        "11988": 49,
        "11989": 28,
        "11990": 22,
        "11991": 252,
        "11992": 199,
        "11993": 78,
        "11994": 108,
        "11995": 47,
        "11996": 92,
        "11997": 32,
        "11998": 130,
        "11999": 128,
        "12000": 246,
        "12001": 196,
        "12002": 152,
        "12003": 16,
        "12004": 65,
        "12005": 69,
        "12006": 27,
        "12007": 81,
        "12008": 185,
        "12009": 71,
        "12010": 185,
        "12011": 185,
        "12012": 234,
        "12013": 185,
        "12014": 148,
        "12015": 172,
        "12016": 33,
        "12017": 37,
        "12018": 110,
        "12019": 150,
        "12020": 104,
        "12021": 204,
        "12022": 168,
        "12023": 227,
        "12024": 178,
        "12025": 60,
        "12026": 47,
        "12027": 2,
        "12028": 40,
        "12029": 48,
        "12030": 55,
        "12031": 166,
        "12032": 127,
        "12033": 16,
        "12034": 178,
        "12035": 39,
        "12036": 95,
        "12037": 93,
        "12038": 133,
        "12039": 3,
        "12040": 213,
        "12041": 100,
        "12042": 140,
        "12043": 181,
        "12044": 42,
        "12045": 120,
        "12046": 164,
        "12047": 59,
        "12048": 130,
        "12049": 136,
        "12050": 139,
        "12051": 54,
        "12052": 146,
        "12053": 199,
        "12054": 29,
        "12055": 176,
        "12056": 52,
        "12057": 68,
        "12058": 73,
        "12059": 15,
        "12060": 10,
        "12061": 211,
        "12062": 35,
        "12063": 91,
        "12064": 174,
        "12065": 198,
        "12066": 28,
        "12067": 248,
        "12068": 170,
        "12069": 140,
        "12070": 248,
        "12071": 15,
        "12072": 215,
        "12073": 246,
        "12074": 34,
        "12075": 180,
        "12076": 22,
        "12077": 25,
        "12078": 92,
        "12079": 22,
        "12080": 190,
        "12081": 163,
        "12082": 34,
        "12083": 138,
        "12084": 10,
        "12085": 117,
        "12086": 251,
        "12087": 131,
        "12088": 191,
        "12089": 244,
        "12090": 8,
        "12091": 153,
        "12092": 55,
        "12093": 170,
        "12094": 143,
        "12095": 189,
        "12096": 1,
        "12097": 252,
        "12098": 207,
        "12099": 231,
        "12100": 97,
        "12101": 212,
        "12102": 174,
        "12103": 233,
        "12104": 79,
        "12105": 184,
        "12106": 241,
        "12107": 81,
        "12108": 76,
        "12109": 20,
        "12110": 105,
        "12111": 60,
        "12112": 156,
        "12113": 131,
        "12114": 240,
        "12115": 5,
        "12116": 141,
        "12117": 60,
        "12118": 50,
        "12119": 68,
        "12120": 170,
        "12121": 134,
        "12122": 228,
        "12123": 24,
        "12124": 34,
        "12125": 90,
        "12126": 125,
        "12127": 127,
        "12128": 21,
        "12129": 178,
        "12130": 211,
        "12131": 56,
        "12132": 201,
        "12133": 136,
        "12134": 176,
        "12135": 249,
        "12136": 42,
        "12137": 137,
        "12138": 45,
        "12139": 113,
        "12140": 120,
        "12141": 120,
        "12142": 122,
        "12143": 188,
        "12144": 234,
        "12145": 185,
        "12146": 231,
        "12147": 170,
        "12148": 209,
        "12149": 75,
        "12150": 236,
        "12151": 243,
        "12152": 101,
        "12153": 234,
        "12154": 233,
        "12155": 167,
        "12156": 15,
        "12157": 200,
        "12158": 199,
        "12159": 193,
        "12160": 147,
        "12161": 62,
        "12162": 129,
        "12163": 41,
        "12164": 191,
        "12165": 110,
        "12166": 106,
        "12167": 235,
        "12168": 102,
        "12169": 64,
        "12170": 179,
        "12171": 155,
        "12172": 244,
        "12173": 157,
        "12174": 168,
        "12175": 7,
        "12176": 47,
        "12177": 65,
        "12178": 186,
        "12179": 222,
        "12180": 223,
        "12181": 70,
        "12182": 222,
        "12183": 100,
        "12184": 145,
        "12185": 171,
        "12186": 61,
        "12187": 47,
        "12188": 48,
        "12189": 90,
        "12190": 117,
        "12191": 62,
        "12192": 6,
        "12193": 54,
        "12194": 10,
        "12195": 213,
        "12196": 170,
        "12197": 135,
        "12198": 140,
        "12199": 6,
        "12200": 12,
        "12201": 2,
        "12202": 173,
        "12203": 130,
        "12204": 85,
        "12205": 233,
        "12206": 197,
        "12207": 89,
        "12208": 113,
        "12209": 236,
        "12210": 26,
        "12211": 110,
        "12212": 67,
        "12213": 61,
        "12214": 232,
        "12215": 191,
        "12216": 55,
        "12217": 203,
        "12218": 176,
        "12219": 15,
        "12220": 138,
        "12221": 116,
        "12222": 79,
        "12223": 53,
        "12224": 164,
        "12225": 150,
        "12226": 166,
        "12227": 198,
        "12228": 234,
        "12229": 102,
        "12230": 6,
        "12231": 40,
        "12232": 230,
        "12233": 166,
        "12234": 132,
        "12235": 206,
        "12236": 37,
        "12237": 253,
        "12238": 10,
        "12239": 19,
        "12240": 22,
        "12241": 36,
        "12242": 107,
        "12243": 138,
        "12244": 112,
        "12245": 226,
        "12246": 228,
        "12247": 21,
        "12248": 89,
        "12249": 161,
        "12250": 46,
        "12251": 46,
        "12252": 60,
        "12253": 217,
        "12254": 153,
        "12255": 233,
        "12256": 48,
        "12257": 190,
        "12258": 71,
        "12259": 14,
        "12260": 87,
        "12261": 6,
        "12262": 96,
        "12263": 213,
        "12264": 95,
        "12265": 27,
        "12266": 151,
        "12267": 30,
        "12268": 102,
        "12269": 247,
        "12270": 81,
        "12271": 100,
        "12272": 29,
        "12273": 116,
        "12274": 116,
        "12275": 54,
        "12276": 105,
        "12277": 89,
        "12278": 232,
        "12279": 103,
        "12280": 104,
        "12281": 192,
        "12282": 212,
        "12283": 63,
        "12284": 86,
        "12285": 35,
        "12286": 174,
        "12287": 104,
        "12288": 157,
        "12289": 246,
        "12290": 68,
        "12291": 199,
        "12292": 127,
        "12293": 182,
        "12294": 21,
        "12295": 115,
        "12296": 253,
        "12297": 87,
        "12298": 45,
        "12299": 9,
        "12300": 116,
        "12301": 158,
        "12302": 55,
        "12303": 161,
        "12304": 254,
        "12305": 180,
        "12306": 196,
        "12307": 112,
        "12308": 176,
        "12309": 63,
        "12310": 201,
        "12311": 70,
        "12312": 232,
        "12313": 78,
        "12314": 23,
        "12315": 209,
        "12316": 144,
        "12317": 18,
        "12318": 178,
        "12319": 228,
        "12320": 206,
        "12321": 254,
        "12322": 161,
        "12323": 192,
        "12324": 215,
        "12325": 89,
        "12326": 7,
        "12327": 198,
        "12328": 166,
        "12329": 93,
        "12330": 116,
        "12331": 194,
        "12332": 119,
        "12333": 218,
        "12334": 112,
        "12335": 42,
        "12336": 210,
        "12337": 151,
        "12338": 225,
        "12339": 81,
        "12340": 16,
        "12341": 102,
        "12342": 125,
        "12343": 4,
        "12344": 253,
        "12345": 190,
        "12346": 126,
        "12347": 98,
        "12348": 165,
        "12349": 27,
        "12350": 159,
        "12351": 95,
        "12352": 235,
        "12353": 116,
        "12354": 255,
        "12355": 204,
        "12356": 125,
        "12357": 173,
        "12358": 126,
        "12359": 64,
        "12360": 230,
        "12361": 235,
        "12362": 26,
        "12363": 48,
        "12364": 125,
        "12365": 205,
        "12366": 144,
        "12367": 169,
        "12368": 170,
        "12369": 207,
        "12370": 161,
        "12371": 196,
        "12372": 138,
        "12373": 62,
        "12374": 245,
        "12375": 20,
        "12376": 205,
        "12377": 180,
        "12378": 154,
        "12379": 152,
        "12380": 207,
        "12381": 46,
        "12382": 96,
        "12383": 87,
        "12384": 121,
        "12385": 8,
        "12386": 241,
        "12387": 235,
        "12388": 77,
        "12389": 191,
        "12390": 225,
        "12391": 13,
        "12392": 216,
        "12393": 59,
        "12394": 231,
        "12395": 253,
        "12396": 177,
        "12397": 95,
        "12398": 54,
        "12399": 19,
        "12400": 216,
        "12401": 179,
        "12402": 196,
        "12403": 136,
        "12404": 36,
        "12405": 115,
        "12406": 131,
        "12407": 245,
        "12408": 7,
        "12409": 182,
        "12410": 211,
        "12411": 51,
        "12412": 45,
        "12413": 248,
        "12414": 57,
        "12415": 166,
        "12416": 183,
        "12417": 169,
        "12418": 197,
        "12419": 239,
        "12420": 92,
        "12421": 50,
        "12422": 147,
        "12423": 185,
        "12424": 193,
        "12425": 113,
        "12426": 53,
        "12427": 234,
        "12428": 28,
        "12429": 187,
        "12430": 136,
        "12431": 188,
        "12432": 218,
        "12433": 238,
        "12434": 76,
        "12435": 202,
        "12436": 71,
        "12437": 242,
        "12438": 186,
        "12439": 67,
        "12440": 111,
        "12441": 231,
        "12442": 55,
        "12443": 183,
        "12444": 136,
        "12445": 250,
        "12446": 252,
        "12447": 150,
        "12448": 21,
        "12449": 170,
        "12450": 207,
        "12451": 173,
        "12452": 146,
        "12453": 164,
        "12454": 88,
        "12455": 88,
        "12456": 230,
        "12457": 140,
        "12458": 209,
        "12459": 78,
        "12460": 229,
        "12461": 14,
        "12462": 179,
        "12463": 68,
        "12464": 17,
        "12465": 180,
        "12466": 229,
        "12467": 191,
        "12468": 117,
        "12469": 26,
        "12470": 90,
        "12471": 95,
        "12472": 198,
        "12473": 102,
        "12474": 106,
        "12475": 22,
        "12476": 166,
        "12477": 102,
        "12478": 10,
        "12479": 29,
        "12480": 213,
        "12481": 163,
        "12482": 78,
        "12483": 143,
        "12484": 49,
        "12485": 44,
        "12486": 123,
        "12487": 167,
        "12488": 66,
        "12489": 108,
        "12490": 46,
        "12491": 83,
        "12492": 30,
        "12493": 94,
        "12494": 0,
        "12495": 76,
        "12496": 230,
        "12497": 84,
        "12498": 8,
        "12499": 32,
        "12500": 6,
        "12501": 242,
        "12502": 113,
        "12503": 157,
        "12504": 206,
        "12505": 17,
        "12506": 57,
        "12507": 15,
        "12508": 255,
        "12509": 56,
        "12510": 227,
        "12511": 144,
        "12512": 90,
        "12513": 61,
        "12514": 11,
        "12515": 120,
        "12516": 229,
        "12517": 123,
        "12518": 121,
        "12519": 63,
        "12520": 49,
        "12521": 6,
        "12522": 70,
        "12523": 106,
        "12524": 188,
        "12525": 202,
        "12526": 58,
        "12527": 231,
        "12528": 210,
        "12529": 82,
        "12530": 126,
        "12531": 234,
        "12532": 202,
        "12533": 165,
        "12534": 3,
        "12535": 225,
        "12536": 248,
        "12537": 68,
        "12538": 228,
        "12539": 58,
        "12540": 192,
        "12541": 58,
        "12542": 182,
        "12543": 195,
        "12544": 163,
        "12545": 187,
        "12546": 220,
        "12547": 7,
        "12548": 88,
        "12549": 138,
        "12550": 51,
        "12551": 23,
        "12552": 104,
        "12553": 20,
        "12554": 40,
        "12555": 211,
        "12556": 147,
        "12557": 85,
        "12558": 1,
        "12559": 249,
        "12560": 53,
        "12561": 11,
        "12562": 167,
        "12563": 147,
        "12564": 167,
        "12565": 228,
        "12566": 77,
        "12567": 220,
        "12568": 237,
        "12569": 190,
        "12570": 19,
        "12571": 19,
        "12572": 82,
        "12573": 178,
        "12574": 138,
        "12575": 76,
        "12576": 229,
        "12577": 101,
        "12578": 154,
        "12579": 198,
        "12580": 254,
        "12581": 219,
        "12582": 116,
        "12583": 255,
        "12584": 48,
        "12585": 134,
        "12586": 255,
        "12587": 182,
        "12588": 152,
        "12589": 103,
        "12590": 86,
        "12591": 87,
        "12592": 146,
        "12593": 150,
        "12594": 240,
        "12595": 53,
        "12596": 21,
        "12597": 102,
        "12598": 125,
        "12599": 5,
        "12600": 63,
        "12601": 4,
        "12602": 36,
        "12603": 81,
        "12604": 32,
        "12605": 231,
        "12606": 97,
        "12607": 152,
        "12608": 152,
        "12609": 105,
        "12610": 186,
        "12611": 137,
        "12612": 63,
        "12613": 207,
        "12614": 154,
        "12615": 156,
        "12616": 51,
        "12617": 255,
        "12618": 227,
        "12619": 206,
        "12620": 192,
        "12621": 171,
        "12622": 39,
        "12623": 218,
        "12624": 60,
        "12625": 125,
        "12626": 100,
        "12627": 211,
        "12628": 118,
        "12629": 226,
        "12630": 210,
        "12631": 197,
        "12632": 189,
        "12633": 30,
        "12634": 170,
        "12635": 136,
        "12636": 107,
        "12637": 69,
        "12638": 76,
        "12639": 78,
        "12640": 89,
        "12641": 135,
        "12642": 241,
        "12643": 228,
        "12644": 64,
        "12645": 203,
        "12646": 12,
        "12647": 81,
        "12648": 43,
        "12649": 214,
        "12650": 139,
        "12651": 79,
        "12652": 131,
        "12653": 116,
        "12654": 207,
        "12655": 105,
        "12656": 153,
        "12657": 203,
        "12658": 14,
        "12659": 236,
        "12660": 8,
        "12661": 131,
        "12662": 134,
        "12663": 32,
        "12664": 180,
        "12665": 98,
        "12666": 170,
        "12667": 89,
        "12668": 27,
        "12669": 135,
        "12670": 235,
        "12671": 247,
        "12672": 83,
        "12673": 153,
        "12674": 74,
        "12675": 67,
        "12676": 78,
        "12677": 186,
        "12678": 81,
        "12679": 213,
        "12680": 71,
        "12681": 92,
        "12682": 45,
        "12683": 49,
        "12684": 213,
        "12685": 145,
        "12686": 7,
        "12687": 134,
        "12688": 244,
        "12689": 251,
        "12690": 148,
        "12691": 204,
        "12692": 225,
        "12693": 199,
        "12694": 18,
        "12695": 175,
        "12696": 222,
        "12697": 77,
        "12698": 158,
        "12699": 70,
        "12700": 52,
        "12701": 64,
        "12702": 249,
        "12703": 111,
        "12704": 98,
        "12705": 8,
        "12706": 247,
        "12707": 152,
        "12708": 86,
        "12709": 91,
        "12710": 20,
        "12711": 254,
        "12712": 187,
        "12713": 224,
        "12714": 121,
        "12715": 109,
        "12716": 63,
        "12717": 37,
        "12718": 43,
        "12719": 183,
        "12720": 81,
        "12721": 172,
        "12722": 180,
        "12723": 137,
        "12724": 230,
        "12725": 99,
        "12726": 255,
        "12727": 30,
        "12728": 35,
        "12729": 43,
        "12730": 88,
        "12731": 169,
        "12732": 160,
        "12733": 254,
        "12734": 117,
        "12735": 234,
        "12736": 181,
        "12737": 54,
        "12738": 166,
        "12739": 34,
        "12740": 129,
        "12741": 168,
        "12742": 245,
        "12743": 195,
        "12744": 127,
        "12745": 18,
        "12746": 129,
        "12747": 147,
        "12748": 48,
        "12749": 72,
        "12750": 83,
        "12751": 172,
        "12752": 254,
        "12753": 229,
        "12754": 39,
        "12755": 90,
        "12756": 219,
        "12757": 121,
        "12758": 72,
        "12759": 14,
        "12760": 3,
        "12761": 3,
        "12762": 203,
        "12763": 99,
        "12764": 187,
        "12765": 96,
        "12766": 159,
        "12767": 137,
        "12768": 169,
        "12769": 228,
        "12770": 189,
        "12771": 119,
        "12772": 158,
        "12773": 172,
        "12774": 89,
        "12775": 214,
        "12776": 61,
        "12777": 6,
        "12778": 58,
        "12779": 95,
        "12780": 192,
        "12781": 102,
        "12782": 213,
        "12783": 147,
        "12784": 236,
        "12785": 253,
        "12786": 46,
        "12787": 52,
        "12788": 74,
        "12789": 232,
        "12790": 187,
        "12791": 190,
        "12792": 204,
        "12793": 122,
        "12794": 87,
        "12795": 66,
        "12796": 152,
        "12797": 144,
        "12798": 1,
        "12799": 193,
        "12800": 227,
        "12801": 139,
        "12802": 6,
        "12803": 147,
        "12804": 26,
        "12805": 103,
        "12806": 1,
        "12807": 232,
        "12808": 200,
        "12809": 224,
        "12810": 132,
        "12811": 27,
        "12812": 174,
        "12813": 139,
        "12814": 76,
        "12815": 161,
        "12816": 0,
        "12817": 225,
        "12818": 183,
        "12819": 241,
        "12820": 234,
        "12821": 14,
        "12822": 30,
        "12823": 217,
        "12824": 203,
        "12825": 128,
        "12826": 124,
        "12827": 46,
        "12828": 62,
        "12829": 169,
        "12830": 24,
        "12831": 174,
        "12832": 213,
        "12833": 186,
        "12834": 54,
        "12835": 5,
        "12836": 185,
        "12837": 130,
        "12838": 204,
        "12839": 202,
        "12840": 7,
        "12841": 230,
        "12842": 207,
        "12843": 33,
        "12844": 66,
        "12845": 240,
        "12846": 232,
        "12847": 47,
        "12848": 253,
        "12849": 8,
        "12850": 195,
        "12851": 105,
        "12852": 177,
        "12853": 140,
        "12854": 47,
        "12855": 135,
        "12856": 176,
        "12857": 222,
        "12858": 54,
        "12859": 109,
        "12860": 142,
        "12861": 166,
        "12862": 28,
        "12863": 91,
        "12864": 224,
        "12865": 14,
        "12866": 79,
        "12867": 38,
        "12868": 32,
        "12869": 236,
        "12870": 167,
        "12871": 168,
        "12872": 183,
        "12873": 70,
        "12874": 131,
        "12875": 52,
        "12876": 245,
        "12877": 231,
        "12878": 171,
        "12879": 26,
        "12880": 210,
        "12881": 99,
        "12882": 8,
        "12883": 125,
        "12884": 49,
        "12885": 225,
        "12886": 194,
        "12887": 221,
        "12888": 102,
        "12889": 6,
        "12890": 147,
        "12891": 85,
        "12892": 162,
        "12893": 5,
        "12894": 94,
        "12895": 35,
        "12896": 121,
        "12897": 187,
        "12898": 231,
        "12899": 240,
        "12900": 148,
        "12901": 203,
        "12902": 185,
        "12903": 29,
        "12904": 203,
        "12905": 144,
        "12906": 78,
        "12907": 208,
        "12908": 1,
        "12909": 166,
        "12910": 103,
        "12911": 145,
        "12912": 79,
        "12913": 46,
        "12914": 164,
        "12915": 10,
        "12916": 27,
        "12917": 106,
        "12918": 212,
        "12919": 149,
        "12920": 92,
        "12921": 126,
        "12922": 111,
        "12923": 130,
        "12924": 133,
        "12925": 120,
        "12926": 87,
        "12927": 34,
        "12928": 54,
        "12929": 190,
        "12930": 132,
        "12931": 5,
        "12932": 46,
        "12933": 140,
        "12934": 62,
        "12935": 218,
        "12936": 225,
        "12937": 176,
        "12938": 44,
        "12939": 36,
        "12940": 21,
        "12941": 41,
        "12942": 18,
        "12943": 204,
        "12944": 151,
        "12945": 161,
        "12946": 191,
        "12947": 134,
        "12948": 90,
        "12949": 155,
        "12950": 225,
        "12951": 163,
        "12952": 210,
        "12953": 69,
        "12954": 237,
        "12955": 254,
        "12956": 35,
        "12957": 203,
        "12958": 198,
        "12959": 188,
        "12960": 76,
        "12961": 83,
        "12962": 208,
        "12963": 227,
        "12964": 224,
        "12965": 35,
        "12966": 192,
        "12967": 14,
        "12968": 154,
        "12969": 6,
        "12970": 224,
        "12971": 186,
        "12972": 88,
        "12973": 39,
        "12974": 64,
        "12975": 208,
        "12976": 244,
        "12977": 46,
        "12978": 35,
        "12979": 58,
        "12980": 235,
        "12981": 55,
        "12982": 8,
        "12983": 197,
        "12984": 239,
        "12985": 50,
        "12986": 79,
        "12987": 41,
        "12988": 217,
        "12989": 250,
        "12990": 71,
        "12991": 134,
        "12992": 34,
        "12993": 4,
        "12994": 138,
        "12995": 146,
        "12996": 58,
        "12997": 216,
        "12998": 68,
        "12999": 117,
        "13000": 1,
        "13001": 117,
        "13002": 24,
        "13003": 240,
        "13004": 139,
        "13005": 169,
        "13006": 19,
        "13007": 116,
        "13008": 149,
        "13009": 27,
        "13010": 223,
        "13011": 205,
        "13012": 87,
        "13013": 144,
        "13014": 209,
        "13015": 240,
        "13016": 12,
        "13017": 14,
        "13018": 218,
        "13019": 28,
        "13020": 175,
        "13021": 137,
        "13022": 120,
        "13023": 141,
        "13024": 69,
        "13025": 84,
        "13026": 184,
        "13027": 181,
        "13028": 152,
        "13029": 9,
        "13030": 86,
        "13031": 49,
        "13032": 246,
        "13033": 139,
        "13034": 89,
        "13035": 181,
        "13036": 79,
        "13037": 110,
        "13038": 51,
        "13039": 4,
        "13040": 95,
        "13041": 70,
        "13042": 67,
        "13043": 20,
        "13044": 240,
        "13045": 93,
        "13046": 26,
        "13047": 110,
        "13048": 69,
        "13049": 150,
        "13050": 137,
        "13051": 180,
        "13052": 63,
        "13053": 6,
        "13054": 79,
        "13055": 46,
        "13056": 85,
        "13057": 106,
        "13058": 26,
        "13059": 113,
        "13060": 164,
        "13061": 156,
        "13062": 64,
        "13063": 15,
        "13064": 171,
        "13065": 39,
        "13066": 240,
        "13067": 159,
        "13068": 58,
        "13069": 133,
        "13070": 117,
        "13071": 181,
        "13072": 191,
        "13073": 101,
        "13074": 235,
        "13075": 239,
        "13076": 205,
        "13077": 133,
        "13078": 137,
        "13079": 116,
        "13080": 91,
        "13081": 64,
        "13082": 48,
        "13083": 25,
        "13084": 21,
        "13085": 60,
        "13086": 9,
        "13087": 106,
        "13088": 155,
        "13089": 88,
        "13090": 57,
        "13091": 151,
        "13092": 244,
        "13093": 143,
        "13094": 225,
        "13095": 219,
        "13096": 162,
        "13097": 56,
        "13098": 53,
        "13099": 135,
        "13100": 17,
        "13101": 21,
        "13102": 193,
        "13103": 217,
        "13104": 138,
        "13105": 70,
        "13106": 220,
        "13107": 29,
        "13108": 48,
        "13109": 88,
        "13110": 231,
        "13111": 207,
        "13112": 71,
        "13113": 92,
        "13114": 0,
        "13115": 208,
        "13116": 20,
        "13117": 168,
        "13118": 6,
        "13119": 37,
        "13120": 146,
        "13121": 191,
        "13122": 245,
        "13123": 195,
        "13124": 186,
        "13125": 243,
        "13126": 37,
        "13127": 114,
        "13128": 231,
        "13129": 53,
        "13130": 22,
        "13131": 134,
        "13132": 114,
        "13133": 75,
        "13134": 49,
        "13135": 23,
        "13136": 144,
        "13137": 157,
        "13138": 240,
        "13139": 162,
        "13140": 205,
        "13141": 100,
        "13142": 136,
        "13143": 65,
        "13144": 11,
        "13145": 151,
        "13146": 250,
        "13147": 206,
        "13148": 66,
        "13149": 170,
        "13150": 13,
        "13151": 89,
        "13152": 151,
        "13153": 246,
        "13154": 103,
        "13155": 244,
        "13156": 84,
        "13157": 69,
        "13158": 252,
        "13159": 232,
        "13160": 212,
        "13161": 126,
        "13162": 30,
        "13163": 160,
        "13164": 100,
        "13165": 142,
        "13166": 161,
        "13167": 58,
        "13168": 163,
        "13169": 20,
        "13170": 246,
        "13171": 175,
        "13172": 89,
        "13173": 254,
        "13174": 187,
        "13175": 11,
        "13176": 139,
        "13177": 242,
        "13178": 33,
        "13179": 236,
        "13180": 104,
        "13181": 219,
        "13182": 17,
        "13183": 74,
        "13184": 86,
        "13185": 200,
        "13186": 20,
        "13187": 162,
        "13188": 24,
        "13189": 142,
        "13190": 46,
        "13191": 128,
        "13192": 142,
        "13193": 129,
        "13194": 74,
        "13195": 72,
        "13196": 4,
        "13197": 13,
        "13198": 33,
        "13199": 110,
        "13200": 11,
        "13201": 37,
        "13202": 63,
        "13203": 184,
        "13204": 246,
        "13205": 126,
        "13206": 86,
        "13207": 184,
        "13208": 106,
        "13209": 184,
        "13210": 107,
        "13211": 89,
        "13212": 42,
        "13213": 43,
        "13214": 244,
        "13215": 141,
        "13216": 167,
        "13217": 17,
        "13218": 104,
        "13219": 232,
        "13220": 155,
        "13221": 0,
        "13222": 128,
        "13223": 242,
        "13224": 41,
        "13225": 38,
        "13226": 178,
        "13227": 93,
        "13228": 160,
        "13229": 35,
        "13230": 1,
        "13231": 147,
        "13232": 104,
        "13233": 160,
        "13234": 82,
        "13235": 74,
        "13236": 47,
        "13237": 225,
        "13238": 168,
        "13239": 171,
        "13240": 43,
        "13241": 110,
        "13242": 231,
        "13243": 128,
        "13244": 171,
        "13245": 33,
        "13246": 61,
        "13247": 183,
        "13248": 187,
        "13249": 150,
        "13250": 194,
        "13251": 33,
        "13252": 46,
        "13253": 72,
        "13254": 182,
        "13255": 152,
        "13256": 152,
        "13257": 68,
        "13258": 246,
        "13259": 108,
        "13260": 29,
        "13261": 145,
        "13262": 137,
        "13263": 64,
        "13264": 214,
        "13265": 6,
        "13266": 148,
        "13267": 81,
        "13268": 39,
        "13269": 7,
        "13270": 38,
        "13271": 201,
        "13272": 220,
        "13273": 89,
        "13274": 207,
        "13275": 137,
        "13276": 60,
        "13277": 246,
        "13278": 129,
        "13279": 201,
        "13280": 51,
        "13281": 139,
        "13282": 3,
        "13283": 48,
        "13284": 69,
        "13285": 168,
        "13286": 126,
        "13287": 24,
        "13288": 68,
        "13289": 213,
        "13290": 100,
        "13291": 25,
        "13292": 66,
        "13293": 203,
        "13294": 124,
        "13295": 75,
        "13296": 147,
        "13297": 68,
        "13298": 82,
        "13299": 84,
        "13300": 247,
        "13301": 205,
        "13302": 155,
        "13303": 208,
        "13304": 6,
        "13305": 66,
        "13306": 53,
        "13307": 93,
        "13308": 35,
        "13309": 242,
        "13310": 244,
        "13311": 149,
        "13312": 83,
        "13313": 229,
        "13314": 115,
        "13315": 74,
        "13316": 34,
        "13317": 129,
        "13318": 113,
        "13319": 151,
        "13320": 69,
        "13321": 105,
        "13322": 180,
        "13323": 20,
        "13324": 54,
        "13325": 95,
        "13326": 140,
        "13327": 114,
        "13328": 51,
        "13329": 251,
        "13330": 160,
        "13331": 35,
        "13332": 154,
        "13333": 204,
        "13334": 216,
        "13335": 239,
        "13336": 91,
        "13337": 183,
        "13338": 146,
        "13339": 63,
        "13340": 184,
        "13341": 109,
        "13342": 236,
        "13343": 29,
        "13344": 35,
        "13345": 23,
        "13346": 172,
        "13347": 22,
        "13348": 218,
        "13349": 119,
        "13350": 8,
        "13351": 226,
        "13352": 211,
        "13353": 94,
        "13354": 163,
        "13355": 147,
        "13356": 78,
        "13357": 22,
        "13358": 89,
        "13359": 225,
        "13360": 30,
        "13361": 187,
        "13362": 72,
        "13363": 51,
        "13364": 92,
        "13365": 73,
        "13366": 98,
        "13367": 102,
        "13368": 11,
        "13369": 100,
        "13370": 78,
        "13371": 183,
        "13372": 108,
        "13373": 89,
        "13374": 64,
        "13375": 231,
        "13376": 44,
        "13377": 73,
        "13378": 44,
        "13379": 248,
        "13380": 152,
        "13381": 140,
        "13382": 110,
        "13383": 137,
        "13384": 29,
        "13385": 177,
        "13386": 147,
        "13387": 0,
        "13388": 86,
        "13389": 29,
        "13390": 214,
        "13391": 178,
        "13392": 185,
        "13393": 222,
        "13394": 217,
        "13395": 179,
        "13396": 213,
        "13397": 92,
        "13398": 56,
        "13399": 13,
        "13400": 32,
        "13401": 229,
        "13402": 155,
        "13403": 163,
        "13404": 126,
        "13405": 195,
        "13406": 46,
        "13407": 246,
        "13408": 79,
        "13409": 195,
        "13410": 193,
        "13411": 23,
        "13412": 121,
        "13413": 35,
        "13414": 208,
        "13415": 184,
        "13416": 116,
        "13417": 4,
        "13418": 210,
        "13419": 9,
        "13420": 86,
        "13421": 149,
        "13422": 212,
        "13423": 122,
        "13424": 90,
        "13425": 177,
        "13426": 174,
        "13427": 67,
        "13428": 58,
        "13429": 223,
        "13430": 252,
        "13431": 209,
        "13432": 83,
        "13433": 11,
        "13434": 139,
        "13435": 150,
        "13436": 23,
        "13437": 162,
        "13438": 122,
        "13439": 205,
        "13440": 78,
        "13441": 65,
        "13442": 27,
        "13443": 98,
        "13444": 31,
        "13445": 37,
        "13446": 198,
        "13447": 116,
        "13448": 124,
        "13449": 80,
        "13450": 7,
        "13451": 1,
        "13452": 199,
        "13453": 224,
        "13454": 66,
        "13455": 227,
        "13456": 213,
        "13457": 147,
        "13458": 62,
        "13459": 198,
        "13460": 57,
        "13461": 9,
        "13462": 66,
        "13463": 89,
        "13464": 37,
        "13465": 24,
        "13466": 105,
        "13467": 15,
        "13468": 106,
        "13469": 163,
        "13470": 75,
        "13471": 59,
        "13472": 28,
        "13473": 195,
        "13474": 99,
        "13475": 242,
        "13476": 45,
        "13477": 7,
        "13478": 57,
        "13479": 53,
        "13480": 119,
        "13481": 192,
        "13482": 243,
        "13483": 241,
        "13484": 240,
        "13485": 210,
        "13486": 81,
        "13487": 209,
        "13488": 55,
        "13489": 42,
        "13490": 142,
        "13491": 95,
        "13492": 158,
        "13493": 66,
        "13494": 146,
        "13495": 179,
        "13496": 150,
        "13497": 57,
        "13498": 59,
        "13499": 134,
        "13500": 23,
        "13501": 191,
        "13502": 99,
        "13503": 19,
        "13504": 224,
        "13505": 102,
        "13506": 222,
        "13507": 132,
        "13508": 21,
        "13509": 248,
        "13510": 247,
        "13511": 138,
        "13512": 10,
        "13513": 194,
        "13514": 232,
        "13515": 35,
        "13516": 147,
        "13517": 193,
        "13518": 91,
        "13519": 193,
        "13520": 196,
        "13521": 167,
        "13522": 240,
        "13523": 160,
        "13524": 182,
        "13525": 177,
        "13526": 92,
        "13527": 146,
        "13528": 26,
        "13529": 20,
        "13530": 191,
        "13531": 77,
        "13532": 24,
        "13533": 251,
        "13534": 246,
        "13535": 70,
        "13536": 205,
        "13537": 38,
        "13538": 112,
        "13539": 85,
        "13540": 161,
        "13541": 76,
        "13542": 185,
        "13543": 248,
        "13544": 171,
        "13545": 254,
        "13546": 213,
        "13547": 128,
        "13548": 190,
        "13549": 12,
        "13550": 4,
        "13551": 148,
        "13552": 138,
        "13553": 47,
        "13554": 171,
        "13555": 180,
        "13556": 34,
        "13557": 61,
        "13558": 64,
        "13559": 87,
        "13560": 253,
        "13561": 56,
        "13562": 5,
        "13563": 73,
        "13564": 249,
        "13565": 228,
        "13566": 121,
        "13567": 35,
        "13568": 156,
        "13569": 106,
        "13570": 245,
        "13571": 173,
        "13572": 73,
        "13573": 165,
        "13574": 200,
        "13575": 10,
        "13576": 92,
        "13577": 125,
        "13578": 22,
        "13579": 45,
        "13580": 215,
        "13581": 173,
        "13582": 103,
        "13583": 136,
        "13584": 137,
        "13585": 102,
        "13586": 112,
        "13587": 3,
        "13588": 56,
        "13589": 35,
        "13590": 142,
        "13591": 88,
        "13592": 251,
        "13593": 163,
        "13594": 55,
        "13595": 10,
        "13596": 41,
        "13597": 186,
        "13598": 229,
        "13599": 114,
        "13600": 179,
        "13601": 230,
        "13602": 79,
        "13603": 172,
        "13604": 238,
        "13605": 143,
        "13606": 230,
        "13607": 76,
        "13608": 46,
        "13609": 97,
        "13610": 145,
        "13611": 52,
        "13612": 162,
        "13613": 150,
        "13614": 80,
        "13615": 194,
        "13616": 34,
        "13617": 189,
        "13618": 103,
        "13619": 155,
        "13620": 110,
        "13621": 6,
        "13622": 92,
        "13623": 116,
        "13624": 91,
        "13625": 78,
        "13626": 240,
        "13627": 1,
        "13628": 136,
        "13629": 48,
        "13630": 235,
        "13631": 213,
        "13632": 215,
        "13633": 155,
        "13634": 9,
        "13635": 108,
        "13636": 204,
        "13637": 252,
        "13638": 218,
        "13639": 62,
        "13640": 178,
        "13641": 41,
        "13642": 46,
        "13643": 102,
        "13644": 190,
        "13645": 155,
        "13646": 140,
        "13647": 229,
        "13648": 78,
        "13649": 59,
        "13650": 213,
        "13651": 42,
        "13652": 82,
        "13653": 240,
        "13654": 56,
        "13655": 189,
        "13656": 237,
        "13657": 80,
        "13658": 162,
        "13659": 31,
        "13660": 91,
        "13661": 0,
        "13662": 81,
        "13663": 48,
        "13664": 211,
        "13665": 163,
        "13666": 204,
        "13667": 188,
        "13668": 108,
        "13669": 184,
        "13670": 95,
        "13671": 209,
        "13672": 7,
        "13673": 48,
        "13674": 120,
        "13675": 67,
        "13676": 32,
        "13677": 42,
        "13678": 44,
        "13679": 141,
        "13680": 178,
        "13681": 214,
        "13682": 186,
        "13683": 93,
        "13684": 57,
        "13685": 24,
        "13686": 110,
        "13687": 166,
        "13688": 50,
        "13689": 25,
        "13690": 46,
        "13691": 85,
        "13692": 32,
        "13693": 218,
        "13694": 233,
        "13695": 194,
        "13696": 115,
        "13697": 220,
        "13698": 68,
        "13699": 2,
        "13700": 117,
        "13701": 165,
        "13702": 0,
        "13703": 111,
        "13704": 214,
        "13705": 12,
        "13706": 210,
        "13707": 123,
        "13708": 121,
        "13709": 231,
        "13710": 127,
        "13711": 179,
        "13712": 71,
        "13713": 227,
        "13714": 56,
        "13715": 57,
        "13716": 223,
        "13717": 179,
        "13718": 158,
        "13719": 67,
        "13720": 57,
        "13721": 246,
        "13722": 174,
        "13723": 228,
        "13724": 122,
        "13725": 95,
        "13726": 112,
        "13727": 122,
        "13728": 253,
        "13729": 254,
        "13730": 134,
        "13731": 123,
        "13732": 90,
        "13733": 76,
        "13734": 191,
        "13735": 245,
        "13736": 109,
        "13737": 214,
        "13738": 35,
        "13739": 230,
        "13740": 229,
        "13741": 103,
        "13742": 8,
        "13743": 27,
        "13744": 142,
        "13745": 225,
        "13746": 95,
        "13747": 3,
        "13748": 8,
        "13749": 38,
        "13750": 9,
        "13751": 159,
        "13752": 128,
        "13753": 106,
        "13754": 140,
        "13755": 35,
        "13756": 53,
        "13757": 163,
        "13758": 132,
        "13759": 15,
        "13760": 108,
        "13761": 148,
        "13762": 183,
        "13763": 20,
        "13764": 38,
        "13765": 0,
        "13766": 160,
        "13767": 156,
        "13768": 28,
        "13769": 34,
        "13770": 169,
        "13771": 181,
        "13772": 136,
        "13773": 74,
        "13774": 191,
        "13775": 210,
        "13776": 182,
        "13777": 96,
        "13778": 140,
        "13779": 123,
        "13780": 17,
        "13781": 57,
        "13782": 74,
        "13783": 204,
        "13784": 97,
        "13785": 138,
        "13786": 204,
        "13787": 27,
        "13788": 223,
        "13789": 193,
        "13790": 128,
        "13791": 58,
        "13792": 15,
        "13793": 120,
        "13794": 153,
        "13795": 236,
        "13796": 56,
        "13797": 147,
        "13798": 173,
        "13799": 194,
        "13800": 192,
        "13801": 95,
        "13802": 234,
        "13803": 168,
        "13804": 210,
        "13805": 23,
        "13806": 65,
        "13807": 225,
        "13808": 141,
        "13809": 106,
        "13810": 239,
        "13811": 225,
        "13812": 80,
        "13813": 132,
        "13814": 247,
        "13815": 161,
        "13816": 119,
        "13817": 136,
        "13818": 32,
        "13819": 100,
        "13820": 247,
        "13821": 165,
        "13822": 97,
        "13823": 148,
        "13824": 58,
        "13825": 58,
        "13826": 109,
        "13827": 254,
        "13828": 105,
        "13829": 91,
        "13830": 222,
        "13831": 3,
        "13832": 6,
        "13833": 242,
        "13834": 241,
        "13835": 119,
        "13836": 208,
        "13837": 100,
        "13838": 185,
        "13839": 79,
        "13840": 20,
        "13841": 224,
        "13842": 22,
        "13843": 43,
        "13844": 216,
        "13845": 184,
        "13846": 248,
        "13847": 11,
        "13848": 95,
        "13849": 128,
        "13850": 43,
        "13851": 94,
        "13852": 107,
        "13853": 5,
        "13854": 205,
        "13855": 168,
        "13856": 82,
        "13857": 170,
        "13858": 223,
        "13859": 236,
        "13860": 235,
        "13861": 191,
        "13862": 176,
        "13863": 147,
        "13864": 234,
        "13865": 85,
        "13866": 222,
        "13867": 166,
        "13868": 195,
        "13869": 114,
        "13870": 1,
        "13871": 126,
        "13872": 99,
        "13873": 47,
        "13874": 159,
        "13875": 17,
        "13876": 215,
        "13877": 255,
        "13878": 21,
        "13879": 123,
        "13880": 223,
        "13881": 227,
        "13882": 107,
        "13883": 81,
        "13884": 5,
        "13885": 239,
        "13886": 205,
        "13887": 201,
        "13888": 67,
        "13889": 0,
        "13890": 46,
        "13891": 203,
        "13892": 99,
        "13893": 220,
        "13894": 117,
        "13895": 6,
        "13896": 5,
        "13897": 102,
        "13898": 246,
        "13899": 18,
        "13900": 75,
        "13901": 92,
        "13902": 253,
        "13903": 5,
        "13904": 112,
        "13905": 166,
        "13906": 4,
        "13907": 203,
        "13908": 106,
        "13909": 119,
        "13910": 77,
        "13911": 61,
        "13912": 214,
        "13913": 40,
        "13914": 186,
        "13915": 97,
        "13916": 214,
        "13917": 97,
        "13918": 28,
        "13919": 59,
        "13920": 35,
        "13921": 54,
        "13922": 198,
        "13923": 82,
        "13924": 152,
        "13925": 65,
        "13926": 13,
        "13927": 81,
        "13928": 181,
        "13929": 184,
        "13930": 158,
        "13931": 219,
        "13932": 97,
        "13933": 207,
        "13934": 207,
        "13935": 203,
        "13936": 71,
        "13937": 22,
        "13938": 102,
        "13939": 105,
        "13940": 219,
        "13941": 254,
        "13942": 38,
        "13943": 224,
        "13944": 16,
        "13945": 92,
        "13946": 50,
        "13947": 63,
        "13948": 202,
        "13949": 18,
        "13950": 183,
        "13951": 49,
        "13952": 49,
        "13953": 107,
        "13954": 109,
        "13955": 33,
        "13956": 244,
        "13957": 115,
        "13958": 226,
        "13959": 232,
        "13960": 16,
        "13961": 251,
        "13962": 119,
        "13963": 66,
        "13964": 242,
        "13965": 235,
        "13966": 52,
        "13967": 142,
        "13968": 169,
        "13969": 59,
        "13970": 27,
        "13971": 209,
        "13972": 71,
        "13973": 221,
        "13974": 228,
        "13975": 21,
        "13976": 14,
        "13977": 96,
        "13978": 43,
        "13979": 76,
        "13980": 149,
        "13981": 26,
        "13982": 62,
        "13983": 169,
        "13984": 84,
        "13985": 103,
        "13986": 237,
        "13987": 145,
        "13988": 39,
        "13989": 217,
        "13990": 8,
        "13991": 81,
        "13992": 75,
        "13993": 184,
        "13994": 130,
        "13995": 176,
        "13996": 197,
        "13997": 85,
        "13998": 244,
        "13999": 43,
        "14000": 252,
        "14001": 137,
        "14002": 15,
        "14003": 44,
        "14004": 2,
        "14005": 187,
        "14006": 68,
        "14007": 146,
        "14008": 202,
        "14009": 89,
        "14010": 154,
        "14011": 8,
        "14012": 101,
        "14013": 8,
        "14014": 189,
        "14015": 202,
        "14016": 239,
        "14017": 79,
        "14018": 91,
        "14019": 7,
        "14020": 201,
        "14021": 11,
        "14022": 33,
        "14023": 177,
        "14024": 33,
        "14025": 47,
        "14026": 143,
        "14027": 5,
        "14028": 39,
        "14029": 14,
        "14030": 120,
        "14031": 84,
        "14032": 193,
        "14033": 204,
        "14034": 117,
        "14035": 243,
        "14036": 233,
        "14037": 250,
        "14038": 242,
        "14039": 2,
        "14040": 31,
        "14041": 33,
        "14042": 20,
        "14043": 10,
        "14044": 14,
        "14045": 98,
        "14046": 57,
        "14047": 66,
        "14048": 186,
        "14049": 20,
        "14050": 160,
        "14051": 148,
        "14052": 207,
        "14053": 185,
        "14054": 246,
        "14055": 86,
        "14056": 146,
        "14057": 192,
        "14058": 64,
        "14059": 236,
        "14060": 110,
        "14061": 218,
        "14062": 104,
        "14063": 90,
        "14064": 234,
        "14065": 60,
        "14066": 113,
        "14067": 14,
        "14068": 214,
        "14069": 163,
        "14070": 230,
        "14071": 54,
        "14072": 180,
        "14073": 5,
        "14074": 68,
        "14075": 11,
        "14076": 253,
        "14077": 74,
        "14078": 229,
        "14079": 229,
        "14080": 187,
        "14081": 69,
        "14082": 62,
        "14083": 144,
        "14084": 115,
        "14085": 183,
        "14086": 247,
        "14087": 67,
        "14088": 0,
        "14089": 225,
        "14090": 77,
        "14091": 87,
        "14092": 227,
        "14093": 217,
        "14094": 72,
        "14095": 57,
        "14096": 226,
        "14097": 132,
        "14098": 169,
        "14099": 181,
        "14100": 44,
        "14101": 71,
        "14102": 52,
        "14103": 42,
        "14104": 91,
        "14105": 200,
        "14106": 167,
        "14107": 34,
        "14108": 83,
        "14109": 18,
        "14110": 215,
        "14111": 233,
        "14112": 46,
        "14113": 88,
        "14114": 124,
        "14115": 220,
        "14116": 202,
        "14117": 172,
        "14118": 157,
        "14119": 20,
        "14120": 60,
        "14121": 91,
        "14122": 255,
        "14123": 248,
        "14124": 183,
        "14125": 38,
        "14126": 235,
        "14127": 225,
        "14128": 250,
        "14129": 63,
        "14130": 185,
        "14131": 213,
        "14132": 106,
        "14133": 254,
        "14134": 65,
        "14135": 8,
        "14136": 47,
        "14137": 226,
        "14138": 231,
        "14139": 183,
        "14140": 116,
        "14141": 212,
        "14142": 84,
        "14143": 192,
        "14144": 11,
        "14145": 118,
        "14146": 131,
        "14147": 10,
        "14148": 187,
        "14149": 82,
        "14150": 162,
        "14151": 152,
        "14152": 195,
        "14153": 42,
        "14154": 119,
        "14155": 255,
        "14156": 109,
        "14157": 10,
        "14158": 140,
        "14159": 184,
        "14160": 2,
        "14161": 48,
        "14162": 74,
        "14163": 98,
        "14164": 26,
        "14165": 181,
        "14166": 56,
        "14167": 240,
        "14168": 175,
        "14169": 94,
        "14170": 245,
        "14171": 114,
        "14172": 105,
        "14173": 138,
        "14174": 122,
        "14175": 20,
        "14176": 46,
        "14177": 254,
        "14178": 225,
        "14179": 242,
        "14180": 88,
        "14181": 53,
        "14182": 11,
        "14183": 33,
        "14184": 31,
        "14185": 149,
        "14186": 143,
        "14187": 248,
        "14188": 217,
        "14189": 29,
        "14190": 162,
        "14191": 141,
        "14192": 242,
        "14193": 28,
        "14194": 3,
        "14195": 104,
        "14196": 9,
        "14197": 57,
        "14198": 122,
        "14199": 146,
        "14200": 186,
        "14201": 184,
        "14202": 141,
        "14203": 178,
        "14204": 116,
        "14205": 31,
        "14206": 150,
        "14207": 179,
        "14208": 253,
        "14209": 228,
        "14210": 168,
        "14211": 52,
        "14212": 147,
        "14213": 177,
        "14214": 35,
        "14215": 34,
        "14216": 130,
        "14217": 142,
        "14218": 25,
        "14219": 191,
        "14220": 163,
        "14221": 124,
        "14222": 213,
        "14223": 210,
        "14224": 93,
        "14225": 153,
        "14226": 117,
        "14227": 25,
        "14228": 124,
        "14229": 121,
        "14230": 178,
        "14231": 97,
        "14232": 197,
        "14233": 194,
        "14234": 218,
        "14235": 34,
        "14236": 194,
        "14237": 85,
        "14238": 177,
        "14239": 234,
        "14240": 41,
        "14241": 121,
        "14242": 12,
        "14243": 241,
        "14244": 136,
        "14245": 63,
        "14246": 159,
        "14247": 251,
        "14248": 59,
        "14249": 10,
        "14250": 161,
        "14251": 209,
        "14252": 46,
        "14253": 133,
        "14254": 188,
        "14255": 139,
        "14256": 141,
        "14257": 235,
        "14258": 41,
        "14259": 136,
        "14260": 103,
        "14261": 168,
        "14262": 142,
        "14263": 196,
        "14264": 104,
        "14265": 90,
        "14266": 235,
        "14267": 61,
        "14268": 249,
        "14269": 20,
        "14270": 161,
        "14271": 179,
        "14272": 64,
        "14273": 123,
        "14274": 168,
        "14275": 209,
        "14276": 215,
        "14277": 200,
        "14278": 57,
        "14279": 251,
        "14280": 15,
        "14281": 230,
        "14282": 78,
        "14283": 77,
        "14284": 176,
        "14285": 6,
        "14286": 205,
        "14287": 72,
        "14288": 82,
        "14289": 231,
        "14290": 168,
        "14291": 187,
        "14292": 176,
        "14293": 231,
        "14294": 121,
        "14295": 64,
        "14296": 18,
        "14297": 142,
        "14298": 18,
        "14299": 28,
        "14300": 217,
        "14301": 92,
        "14302": 51,
        "14303": 178,
        "14304": 243,
        "14305": 157,
        "14306": 57,
        "14307": 123,
        "14308": 143,
        "14309": 238,
        "14310": 114,
        "14311": 193,
        "14312": 143,
        "14313": 205,
        "14314": 12,
        "14315": 237,
        "14316": 66,
        "14317": 113,
        "14318": 164,
        "14319": 108,
        "14320": 40,
        "14321": 98,
        "14322": 142,
        "14323": 209,
        "14324": 47,
        "14325": 219,
        "14326": 9,
        "14327": 72,
        "14328": 245,
        "14329": 172,
        "14330": 168,
        "14331": 161,
        "14332": 187,
        "14333": 108,
        "14334": 72,
        "14335": 243,
        "14336": 195,
        "14337": 42,
        "14338": 8,
        "14339": 34,
        "14340": 28,
        "14341": 164,
        "14342": 123,
        "14343": 65,
        "14344": 168,
        "14345": 72,
        "14346": 211,
        "14347": 216,
        "14348": 116,
        "14349": 201,
        "14350": 57,
        "14351": 200,
        "14352": 182,
        "14353": 87,
        "14354": 92,
        "14355": 7,
        "14356": 81,
        "14357": 185,
        "14358": 24,
        "14359": 60,
        "14360": 116,
        "14361": 128,
        "14362": 9,
        "14363": 8,
        "14364": 181,
        "14365": 26,
        "14366": 86,
        "14367": 156,
        "14368": 241,
        "14369": 234,
        "14370": 186,
        "14371": 168,
        "14372": 48,
        "14373": 197,
        "14374": 226,
        "14375": 203,
        "14376": 108,
        "14377": 56,
        "14378": 169,
        "14379": 83,
        "14380": 98,
        "14381": 56,
        "14382": 236,
        "14383": 189,
        "14384": 0,
        "14385": 145,
        "14386": 18,
        "14387": 109,
        "14388": 69,
        "14389": 180,
        "14390": 122,
        "14391": 57,
        "14392": 148,
        "14393": 90,
        "14394": 150,
        "14395": 146,
        "14396": 27,
        "14397": 216,
        "14398": 227,
        "14399": 178,
        "14400": 48,
        "14401": 212,
        "14402": 6,
        "14403": 250,
        "14404": 225,
        "14405": 115,
        "14406": 111,
        "14407": 50,
        "14408": 13,
        "14409": 234,
        "14410": 150,
        "14411": 167,
        "14412": 249,
        "14413": 222,
        "14414": 240,
        "14415": 152,
        "14416": 122,
        "14417": 103,
        "14418": 94,
        "14419": 45,
        "14420": 46,
        "14421": 99,
        "14422": 35,
        "14423": 187,
        "14424": 9,
        "14425": 93,
        "14426": 241,
        "14427": 114,
        "14428": 76,
        "14429": 44,
        "14430": 104,
        "14431": 198,
        "14432": 59,
        "14433": 67,
        "14434": 212,
        "14435": 191,
        "14436": 12,
        "14437": 164,
        "14438": 203,
        "14439": 125,
        "14440": 200,
        "14441": 194,
        "14442": 75,
        "14443": 122,
        "14444": 19,
        "14445": 217,
        "14446": 247,
        "14447": 216,
        "14448": 63,
        "14449": 110,
        "14450": 3,
        "14451": 244,
        "14452": 144,
        "14453": 222,
        "14454": 39,
        "14455": 168,
        "14456": 165,
        "14457": 68,
        "14458": 171,
        "14459": 55,
        "14460": 58,
        "14461": 59,
        "14462": 67,
        "14463": 10,
        "14464": 213,
        "14465": 172,
        "14466": 223,
        "14467": 165,
        "14468": 4,
        "14469": 228,
        "14470": 51,
        "14471": 188,
        "14472": 79,
        "14473": 170,
        "14474": 18,
        "14475": 95,
        "14476": 159,
        "14477": 60,
        "14478": 214,
        "14479": 204,
        "14480": 140,
        "14481": 134,
        "14482": 252,
        "14483": 197,
        "14484": 135,
        "14485": 56,
        "14486": 112,
        "14487": 73,
        "14488": 51,
        "14489": 98,
        "14490": 69,
        "14491": 187,
        "14492": 195,
        "14493": 156,
        "14494": 206,
        "14495": 20,
        "14496": 91,
        "14497": 103,
        "14498": 210,
        "14499": 242,
        "14500": 68,
        "14501": 192,
        "14502": 151,
        "14503": 9,
        "14504": 19,
        "14505": 91,
        "14506": 152,
        "14507": 9,
        "14508": 83,
        "14509": 171,
        "14510": 81,
        "14511": 239,
        "14512": 53,
        "14513": 0,
        "14514": 240,
        "14515": 107,
        "14516": 42,
        "14517": 226,
        "14518": 193,
        "14519": 49,
        "14520": 215,
        "14521": 109,
        "14522": 153,
        "14523": 212,
        "14524": 210,
        "14525": 2,
        "14526": 154,
        "14527": 209,
        "14528": 64,
        "14529": 55,
        "14530": 244,
        "14531": 109,
        "14532": 44,
        "14533": 14,
        "14534": 59,
        "14535": 240,
        "14536": 28,
        "14537": 227,
        "14538": 60,
        "14539": 97,
        "14540": 91,
        "14541": 197,
        "14542": 142,
        "14543": 50,
        "14544": 24,
        "14545": 113,
        "14546": 66,
        "14547": 186,
        "14548": 180,
        "14549": 105,
        "14550": 193,
        "14551": 225,
        "14552": 133,
        "14553": 67,
        "14554": 235,
        "14555": 210,
        "14556": 159,
        "14557": 97,
        "14558": 93,
        "14559": 55,
        "14560": 226,
        "14561": 172,
        "14562": 150,
        "14563": 11,
        "14564": 150,
        "14565": 188,
        "14566": 149,
        "14567": 154,
        "14568": 21,
        "14569": 201,
        "14570": 235,
        "14571": 12,
        "14572": 31,
        "14573": 13,
        "14574": 10,
        "14575": 213,
        "14576": 218,
        "14577": 211,
        "14578": 207,
        "14579": 178,
        "14580": 245,
        "14581": 46,
        "14582": 151,
        "14583": 116,
        "14584": 78,
        "14585": 112,
        "14586": 226,
        "14587": 68,
        "14588": 217,
        "14589": 151,
        "14590": 169,
        "14591": 18,
        "14592": 4,
        "14593": 15,
        "14594": 158,
        "14595": 121,
        "14596": 18,
        "14597": 48,
        "14598": 206,
        "14599": 150,
        "14600": 104,
        "14601": 253,
        "14602": 173,
        "14603": 156,
        "14604": 0,
        "14605": 15,
        "14606": 58,
        "14607": 119,
        "14608": 79,
        "14609": 252,
        "14610": 52,
        "14611": 202,
        "14612": 151,
        "14613": 241,
        "14614": 139,
        "14615": 106,
        "14616": 174,
        "14617": 228,
        "14618": 101,
        "14619": 79,
        "14620": 248,
        "14621": 242,
        "14622": 168,
        "14623": 120,
        "14624": 157,
        "14625": 246,
        "14626": 150,
        "14627": 187,
        "14628": 191,
        "14629": 111,
        "14630": 102,
        "14631": 172,
        "14632": 128,
        "14633": 45,
        "14634": 181,
        "14635": 155,
        "14636": 153,
        "14637": 191,
        "14638": 128,
        "14639": 82,
        "14640": 87,
        "14641": 61,
        "14642": 47,
        "14643": 61,
        "14644": 141,
        "14645": 145,
        "14646": 60,
        "14647": 71,
        "14648": 206,
        "14649": 206,
        "14650": 19,
        "14651": 127,
        "14652": 105,
        "14653": 41,
        "14654": 14,
        "14655": 232,
        "14656": 26,
        "14657": 38,
        "14658": 90,
        "14659": 45,
        "14660": 159,
        "14661": 131,
        "14662": 121,
        "14663": 165,
        "14664": 222,
        "14665": 29,
        "14666": 100,
        "14667": 51,
        "14668": 206,
        "14669": 50,
        "14670": 29,
        "14671": 18,
        "14672": 192,
        "14673": 167,
        "14674": 81,
        "14675": 193,
        "14676": 60,
        "14677": 247,
        "14678": 87,
        "14679": 253,
        "14680": 199,
        "14681": 120,
        "14682": 250,
        "14683": 89,
        "14684": 105,
        "14685": 133,
        "14686": 8,
        "14687": 5,
        "14688": 2,
        "14689": 220,
        "14690": 42,
        "14691": 204,
        "14692": 60,
        "14693": 54,
        "14694": 61,
        "14695": 57,
        "14696": 112,
        "14697": 184,
        "14698": 26,
        "14699": 144,
        "14700": 141,
        "14701": 60,
        "14702": 45,
        "14703": 156,
        "14704": 118,
        "14705": 151,
        "14706": 107,
        "14707": 163,
        "14708": 144,
        "14709": 93,
        "14710": 242,
        "14711": 38,
        "14712": 20,
        "14713": 230,
        "14714": 242,
        "14715": 50,
        "14716": 170,
        "14717": 75,
        "14718": 105,
        "14719": 78,
        "14720": 51,
        "14721": 144,
        "14722": 81,
        "14723": 44,
        "14724": 89,
        "14725": 14,
        "14726": 179,
        "14727": 134,
        "14728": 39,
        "14729": 175,
        "14730": 6,
        "14731": 210,
        "14732": 55,
        "14733": 158,
        "14734": 86,
        "14735": 206,
        "14736": 207,
        "14737": 105,
        "14738": 248,
        "14739": 122,
        "14740": 228,
        "14741": 223,
        "14742": 237,
        "14743": 238,
        "14744": 78,
        "14745": 43,
        "14746": 26,
        "14747": 55,
        "14748": 166,
        "14749": 196,
        "14750": 100,
        "14751": 144,
        "14752": 38,
        "14753": 166,
        "14754": 97,
        "14755": 169,
        "14756": 73,
        "14757": 172,
        "14758": 3,
        "14759": 159,
        "14760": 98,
        "14761": 19,
        "14762": 168,
        "14763": 163,
        "14764": 205,
        "14765": 189,
        "14766": 61,
        "14767": 113,
        "14768": 28,
        "14769": 178,
        "14770": 17,
        "14771": 137,
        "14772": 103,
        "14773": 155,
        "14774": 225,
        "14775": 28,
        "14776": 200,
        "14777": 135,
        "14778": 203,
        "14779": 166,
        "14780": 84,
        "14781": 21,
        "14782": 124,
        "14783": 45,
        "14784": 57,
        "14785": 73,
        "14786": 191,
        "14787": 168,
        "14788": 134,
        "14789": 253,
        "14790": 30,
        "14791": 71,
        "14792": 76,
        "14793": 207,
        "14794": 132,
        "14795": 121,
        "14796": 143,
        "14797": 8,
        "14798": 193,
        "14799": 90,
        "14800": 34,
        "14801": 110,
        "14802": 200,
        "14803": 105,
        "14804": 17,
        "14805": 140,
        "14806": 132,
        "14807": 55,
        "14808": 128,
        "14809": 42,
        "14810": 184,
        "14811": 88,
        "14812": 136,
        "14813": 207,
        "14814": 243,
        "14815": 130,
        "14816": 143,
        "14817": 223,
        "14818": 158,
        "14819": 99,
        "14820": 125,
        "14821": 79,
        "14822": 229,
        "14823": 230,
        "14824": 76,
        "14825": 151,
        "14826": 18,
        "14827": 133,
        "14828": 124,
        "14829": 163,
        "14830": 69,
        "14831": 39,
        "14832": 100,
        "14833": 61,
        "14834": 44,
        "14835": 248,
        "14836": 9,
        "14837": 95,
        "14838": 248,
        "14839": 175,
        "14840": 130,
        "14841": 169,
        "14842": 146,
        "14843": 150,
        "14844": 186,
        "14845": 33,
        "14846": 31,
        "14847": 151,
        "14848": 10,
        "14849": 128,
        "14850": 84,
        "14851": 168,
        "14852": 26,
        "14853": 3,
        "14854": 238,
        "14855": 186,
        "14856": 250,
        "14857": 107,
        "14858": 111,
        "14859": 68,
        "14860": 179,
        "14861": 128,
        "14862": 193,
        "14863": 184,
        "14864": 164,
        "14865": 243,
        "14866": 74,
        "14867": 208,
        "14868": 36,
        "14869": 114,
        "14870": 74,
        "14871": 156,
        "14872": 251,
        "14873": 169,
        "14874": 195,
        "14875": 122,
        "14876": 49,
        "14877": 144,
        "14878": 20,
        "14879": 134,
        "14880": 29,
        "14881": 233,
        "14882": 200,
        "14883": 169,
        "14884": 85,
        "14885": 128,
        "14886": 243,
        "14887": 82,
        "14888": 104,
        "14889": 74,
        "14890": 154,
        "14891": 29,
        "14892": 52,
        "14893": 75,
        "14894": 133,
        "14895": 254,
        "14896": 111,
        "14897": 222,
        "14898": 196,
        "14899": 173,
        "14900": 73,
        "14901": 200,
        "14902": 239,
        "14903": 186,
        "14904": 242,
        "14905": 126,
        "14906": 146,
        "14907": 65,
        "14908": 132,
        "14909": 243,
        "14910": 190,
        "14911": 196,
        "14912": 59,
        "14913": 136,
        "14914": 126,
        "14915": 177,
        "14916": 163,
        "14917": 211,
        "14918": 8,
        "14919": 148,
        "14920": 121,
        "14921": 180,
        "14922": 66,
        "14923": 28,
        "14924": 160,
        "14925": 102,
        "14926": 57,
        "14927": 222,
        "14928": 66,
        "14929": 20,
        "14930": 220,
        "14931": 174,
        "14932": 63,
        "14933": 37,
        "14934": 234,
        "14935": 34,
        "14936": 37,
        "14937": 74,
        "14938": 245,
        "14939": 174,
        "14940": 110,
        "14941": 21,
        "14942": 148,
        "14943": 43,
        "14944": 31,
        "14945": 45,
        "14946": 170,
        "14947": 38,
        "14948": 27,
        "14949": 81,
        "14950": 21,
        "14951": 4,
        "14952": 5,
        "14953": 125,
        "14954": 161,
        "14955": 43,
        "14956": 234,
        "14957": 49,
        "14958": 229,
        "14959": 220,
        "14960": 143,
        "14961": 101,
        "14962": 110,
        "14963": 113,
        "14964": 95,
        "14965": 226,
        "14966": 197,
        "14967": 184,
        "14968": 85,
        "14969": 33,
        "14970": 214,
        "14971": 215,
        "14972": 216,
        "14973": 34,
        "14974": 160,
        "14975": 67,
        "14976": 92,
        "14977": 56,
        "14978": 98,
        "14979": 94,
        "14980": 60,
        "14981": 18,
        "14982": 46,
        "14983": 255,
        "14984": 114,
        "14985": 40,
        "14986": 246,
        "14987": 52,
        "14988": 88,
        "14989": 74,
        "14990": 223,
        "14991": 220,
        "14992": 206,
        "14993": 200,
        "14994": 107,
        "14995": 209,
        "14996": 10,
        "14997": 249,
        "14998": 232,
        "14999": 187,
        "15000": 11,
        "15001": 235,
        "15002": 135,
        "15003": 52,
        "15004": 166,
        "15005": 153,
        "15006": 22,
        "15007": 66,
        "15008": 77,
        "15009": 124,
        "15010": 91,
        "15011": 131,
        "15012": 206,
        "15013": 27,
        "15014": 55,
        "15015": 56,
        "15016": 220,
        "15017": 230,
        "15018": 192,
        "15019": 111,
        "15020": 14,
        "15021": 252,
        "15022": 123,
        "15023": 213,
        "15024": 173,
        "15025": 242,
        "15026": 66,
        "15027": 61,
        "15028": 58,
        "15029": 174,
        "15030": 198,
        "15031": 134,
        "15032": 69,
        "15033": 115,
        "15034": 142,
        "15035": 251,
        "15036": 152,
        "15037": 31,
        "15038": 150,
        "15039": 47,
        "15040": 59,
        "15041": 243,
        "15042": 211,
        "15043": 157,
        "15044": 72,
        "15045": 67,
        "15046": 81,
        "15047": 91,
        "15048": 163,
        "15049": 22,
        "15050": 159,
        "15051": 158,
        "15052": 172,
        "15053": 132,
        "15054": 166,
        "15055": 17,
        "15056": 200,
        "15057": 156,
        "15058": 38,
        "15059": 214,
        "15060": 178,
        "15061": 85,
        "15062": 234,
        "15063": 233,
        "15064": 91,
        "15065": 190,
        "15066": 158,
        "15067": 169,
        "15068": 209,
        "15069": 102,
        "15070": 94,
        "15071": 250,
        "15072": 85,
        "15073": 121,
        "15074": 218,
        "15075": 72,
        "15076": 130,
        "15077": 55,
        "15078": 123,
        "15079": 255,
        "15080": 29,
        "15081": 169,
        "15082": 170,
        "15083": 143,
        "15084": 37,
        "15085": 3,
        "15086": 192,
        "15087": 87,
        "15088": 30,
        "15089": 105,
        "15090": 182,
        "15091": 65,
        "15092": 192,
        "15093": 46,
        "15094": 209,
        "15095": 93,
        "15096": 74,
        "15097": 105,
        "15098": 182,
        "15099": 63,
        "15100": 205,
        "15101": 177,
        "15102": 195,
        "15103": 106,
        "15104": 39,
        "15105": 191,
        "15106": 17,
        "15107": 133,
        "15108": 14,
        "15109": 214,
        "15110": 0,
        "15111": 183,
        "15112": 162,
        "15113": 195,
        "15114": 219,
        "15115": 35,
        "15116": 200,
        "15117": 199,
        "15118": 1,
        "15119": 225,
        "15120": 219,
        "15121": 209,
        "15122": 223,
        "15123": 174,
        "15124": 63,
        "15125": 193,
        "15126": 23,
        "15127": 33,
        "15128": 24,
        "15129": 240,
        "15130": 130,
        "15131": 133,
        "15132": 153,
        "15133": 116,
        "15134": 147,
        "15135": 213,
        "15136": 134,
        "15137": 169,
        "15138": 118,
        "15139": 242,
        "15140": 231,
        "15141": 255,
        "15142": 52,
        "15143": 142,
        "15144": 227,
        "15145": 245,
        "15146": 132,
        "15147": 227,
        "15148": 168,
        "15149": 208,
        "15150": 188,
        "15151": 75,
        "15152": 153,
        "15153": 51,
        "15154": 84,
        "15155": 117,
        "15156": 53,
        "15157": 49,
        "15158": 93,
        "15159": 9,
        "15160": 228,
        "15161": 24,
        "15162": 16,
        "15163": 14,
        "15164": 137,
        "15165": 124,
        "15166": 154,
        "15167": 46,
        "15168": 181,
        "15169": 183,
        "15170": 145,
        "15171": 252,
        "15172": 124,
        "15173": 180,
        "15174": 101,
        "15175": 249,
        "15176": 27,
        "15177": 168,
        "15178": 84,
        "15179": 31,
        "15180": 125,
        "15181": 117,
        "15182": 56,
        "15183": 3,
        "15184": 139,
        "15185": 77,
        "15186": 0,
        "15187": 156,
        "15188": 55,
        "15189": 35,
        "15190": 22,
        "15191": 237,
        "15192": 151,
        "15193": 115,
        "15194": 41,
        "15195": 68,
        "15196": 100,
        "15197": 19,
        "15198": 239,
        "15199": 247,
        "15200": 163,
        "15201": 194,
        "15202": 242,
        "15203": 0,
        "15204": 172,
        "15205": 167,
        "15206": 79,
        "15207": 78,
        "15208": 39,
        "15209": 90,
        "15210": 219,
        "15211": 113,
        "15212": 179,
        "15213": 198,
        "15214": 124,
        "15215": 205,
        "15216": 229,
        "15217": 134,
        "15218": 191,
        "15219": 95,
        "15220": 146,
        "15221": 73,
        "15222": 81,
        "15223": 129,
        "15224": 43,
        "15225": 204,
        "15226": 75,
        "15227": 130,
        "15228": 14,
        "15229": 115,
        "15230": 135,
        "15231": 60,
        "15232": 224,
        "15233": 249,
        "15234": 190,
        "15235": 195,
        "15236": 179,
        "15237": 210,
        "15238": 22,
        "15239": 135,
        "15240": 93,
        "15241": 245,
        "15242": 125,
        "15243": 120,
        "15244": 196,
        "15245": 79,
        "15246": 254,
        "15247": 94,
        "15248": 0,
        "15249": 58,
        "15250": 80,
        "15251": 167,
        "15252": 225,
        "15253": 221,
        "15254": 21,
        "15255": 41,
        "15256": 205,
        "15257": 243,
        "15258": 144,
        "15259": 112,
        "15260": 61,
        "15261": 34,
        "15262": 156,
        "15263": 81,
        "15264": 245,
        "15265": 233,
        "15266": 192,
        "15267": 112,
        "15268": 31,
        "15269": 169,
        "15270": 216,
        "15271": 179,
        "15272": 132,
        "15273": 15,
        "15274": 22,
        "15275": 175,
        "15276": 40,
        "15277": 153,
        "15278": 116,
        "15279": 190,
        "15280": 251,
        "15281": 32,
        "15282": 106,
        "15283": 2,
        "15284": 218,
        "15285": 135,
        "15286": 234,
        "15287": 87,
        "15288": 188,
        "15289": 82,
        "15290": 233,
        "15291": 134,
        "15292": 141,
        "15293": 60,
        "15294": 203,
        "15295": 203,
        "15296": 21,
        "15297": 17,
        "15298": 74,
        "15299": 207,
        "15300": 97,
        "15301": 165,
        "15302": 39,
        "15303": 31,
        "15304": 237,
        "15305": 84,
        "15306": 61,
        "15307": 180,
        "15308": 81,
        "15309": 6,
        "15310": 174,
        "15311": 91,
        "15312": 72,
        "15313": 102,
        "15314": 155,
        "15315": 92,
        "15316": 199,
        "15317": 179,
        "15318": 125,
        "15319": 204,
        "15320": 13,
        "15321": 174,
        "15322": 44,
        "15323": 138,
        "15324": 41,
        "15325": 215,
        "15326": 128,
        "15327": 62,
        "15328": 116,
        "15329": 183,
        "15330": 128,
        "15331": 25,
        "15332": 241,
        "15333": 72,
        "15334": 200,
        "15335": 17,
        "15336": 226,
        "15337": 166,
        "15338": 217,
        "15339": 28,
        "15340": 53,
        "15341": 16,
        "15342": 124,
        "15343": 226,
        "15344": 140,
        "15345": 13,
        "15346": 48,
        "15347": 238,
        "15348": 138,
        "15349": 149,
        "15350": 20,
        "15351": 96,
        "15352": 136,
        "15353": 100,
        "15354": 160,
        "15355": 22,
        "15356": 148,
        "15357": 54,
        "15358": 32,
        "15359": 152,
        "15360": 236,
        "15361": 229,
        "15362": 114,
        "15363": 34,
        "15364": 19,
        "15365": 235,
        "15366": 118,
        "15367": 219,
        "15368": 199,
        "15369": 233,
        "15370": 81,
        "15371": 139,
        "15372": 246,
        "15373": 11,
        "15374": 78,
        "15375": 69,
        "15376": 234,
        "15377": 243,
        "15378": 71,
        "15379": 117,
        "15380": 190,
        "15381": 111,
        "15382": 21,
        "15383": 233,
        "15384": 86,
        "15385": 165,
        "15386": 119,
        "15387": 102,
        "15388": 81,
        "15389": 77,
        "15390": 64,
        "15391": 73,
        "15392": 218,
        "15393": 210,
        "15394": 213,
        "15395": 33,
        "15396": 192,
        "15397": 98,
        "15398": 162,
        "15399": 203,
        "15400": 120,
        "15401": 132,
        "15402": 177,
        "15403": 201,
        "15404": 197,
        "15405": 226,
        "15406": 164,
        "15407": 21,
        "15408": 15,
        "15409": 44,
        "15410": 169,
        "15411": 251,
        "15412": 21,
        "15413": 140,
        "15414": 37,
        "15415": 54,
        "15416": 4,
        "15417": 50,
        "15418": 65,
        "15419": 43,
        "15420": 95,
        "15421": 111,
        "15422": 149,
        "15423": 205,
        "15424": 21,
        "15425": 243,
        "15426": 138,
        "15427": 73,
        "15428": 240,
        "15429": 172,
        "15430": 157,
        "15431": 73,
        "15432": 115,
        "15433": 6,
        "15434": 99,
        "15435": 10,
        "15436": 39,
        "15437": 161,
        "15438": 148,
        "15439": 214,
        "15440": 8,
        "15441": 44,
        "15442": 121,
        "15443": 52,
        "15444": 57,
        "15445": 208,
        "15446": 55,
        "15447": 137,
        "15448": 97,
        "15449": 48,
        "15450": 63,
        "15451": 89,
        "15452": 175,
        "15453": 175,
        "15454": 198,
        "15455": 91,
        "15456": 252,
        "15457": 144,
        "15458": 188,
        "15459": 232,
        "15460": 105,
        "15461": 216,
        "15462": 106,
        "15463": 19,
        "15464": 150,
        "15465": 233,
        "15466": 111,
        "15467": 20,
        "15468": 48,
        "15469": 98,
        "15470": 197,
        "15471": 227,
        "15472": 158,
        "15473": 179,
        "15474": 42,
        "15475": 34,
        "15476": 34,
        "15477": 223,
        "15478": 248,
        "15479": 54,
        "15480": 249,
        "15481": 51,
        "15482": 253,
        "15483": 6,
        "15484": 157,
        "15485": 134,
        "15486": 148,
        "15487": 169,
        "15488": 139,
        "15489": 142,
        "15490": 117,
        "15491": 58,
        "15492": 30,
        "15493": 61,
        "15494": 110,
        "15495": 199,
        "15496": 93,
        "15497": 79,
        "15498": 156,
        "15499": 147,
        "15500": 224,
        "15501": 13,
        "15502": 167,
        "15503": 161,
        "15504": 180,
        "15505": 224,
        "15506": 238,
        "15507": 65,
        "15508": 85,
        "15509": 68,
        "15510": 64,
        "15511": 199,
        "15512": 165,
        "15513": 40,
        "15514": 147,
        "15515": 194,
        "15516": 166,
        "15517": 108,
        "15518": 155,
        "15519": 139,
        "15520": 44,
        "15521": 93,
        "15522": 206,
        "15523": 151,
        "15524": 96,
        "15525": 218,
        "15526": 255,
        "15527": 124,
        "15528": 109,
        "15529": 86,
        "15530": 204,
        "15531": 222,
        "15532": 196,
        "15533": 11,
        "15534": 10,
        "15535": 188,
        "15536": 223,
        "15537": 232,
        "15538": 135,
        "15539": 26,
        "15540": 124,
        "15541": 62,
        "15542": 162,
        "15543": 30,
        "15544": 154,
        "15545": 128,
        "15546": 49,
        "15547": 49,
        "15548": 168,
        "15549": 132,
        "15550": 5,
        "15551": 139,
        "15552": 15,
        "15553": 210,
        "15554": 1,
        "15555": 116,
        "15556": 36,
        "15557": 216,
        "15558": 249,
        "15559": 94,
        "15560": 162,
        "15561": 87,
        "15562": 83,
        "15563": 164,
        "15564": 73,
        "15565": 173,
        "15566": 2,
        "15567": 226,
        "15568": 119,
        "15569": 212,
        "15570": 132,
        "15571": 75,
        "15572": 175,
        "15573": 127,
        "15574": 11,
        "15575": 19,
        "15576": 42,
        "15577": 70,
        "15578": 61,
        "15579": 234,
        "15580": 23,
        "15581": 7,
        "15582": 23,
        "15583": 109,
        "15584": 32,
        "15585": 217,
        "15586": 213,
        "15587": 114,
        "15588": 206,
        "15589": 232,
        "15590": 77,
        "15591": 245,
        "15592": 228,
        "15593": 43,
        "15594": 199,
        "15595": 25,
        "15596": 157,
        "15597": 60,
        "15598": 142,
        "15599": 185,
        "15600": 156,
        "15601": 152,
        "15602": 62,
        "15603": 22,
        "15604": 211,
        "15605": 43,
        "15606": 87,
        "15607": 204,
        "15608": 202,
        "15609": 24,
        "15610": 239,
        "15611": 65,
        "15612": 34,
        "15613": 116,
        "15614": 0,
        "15615": 102,
        "15616": 246,
        "15617": 199,
        "15618": 163,
        "15619": 6,
        "15620": 176,
        "15621": 57,
        "15622": 81,
        "15623": 19,
        "15624": 106,
        "15625": 138,
        "15626": 72,
        "15627": 201,
        "15628": 47,
        "15629": 17,
        "15630": 154,
        "15631": 218,
        "15632": 184,
        "15633": 169,
        "15634": 203,
        "15635": 173,
        "15636": 157,
        "15637": 224,
        "15638": 170,
        "15639": 57,
        "15640": 202,
        "15641": 202,
        "15642": 64,
        "15643": 91,
        "15644": 207,
        "15645": 196,
        "15646": 113,
        "15647": 219,
        "15648": 166,
        "15649": 149,
        "15650": 50,
        "15651": 180,
        "15652": 26,
        "15653": 24,
        "15654": 109,
        "15655": 67,
        "15656": 149,
        "15657": 106,
        "15658": 73,
        "15659": 160,
        "15660": 53,
        "15661": 182,
        "15662": 218,
        "15663": 163,
        "15664": 67,
        "15665": 10,
        "15666": 252,
        "15667": 34,
        "15668": 73,
        "15669": 39,
        "15670": 16,
        "15671": 214,
        "15672": 52,
        "15673": 116,
        "15674": 129,
        "15675": 151,
        "15676": 56,
        "15677": 40,
        "15678": 37,
        "15679": 36,
        "15680": 19,
        "15681": 114,
        "15682": 141,
        "15683": 141,
        "15684": 15,
        "15685": 132,
        "15686": 151,
        "15687": 218,
        "15688": 157,
        "15689": 72,
        "15690": 58,
        "15691": 54,
        "15692": 228,
        "15693": 111,
        "15694": 209,
        "15695": 144,
        "15696": 178,
        "15697": 159,
        "15698": 24,
        "15699": 114,
        "15700": 74,
        "15701": 104,
        "15702": 153,
        "15703": 217,
        "15704": 91,
        "15705": 139,
        "15706": 130,
        "15707": 162,
        "15708": 185,
        "15709": 208,
        "15710": 77,
        "15711": 194,
        "15712": 154,
        "15713": 54,
        "15714": 145,
        "15715": 252,
        "15716": 103,
        "15717": 26,
        "15718": 112,
        "15719": 78,
        "15720": 113,
        "15721": 201,
        "15722": 56,
        "15723": 100,
        "15724": 25,
        "15725": 69,
        "15726": 238,
        "15727": 36,
        "15728": 7,
        "15729": 243,
        "15730": 244,
        "15731": 55,
        "15732": 60,
        "15733": 190,
        "15734": 228,
        "15735": 255,
        "15736": 186,
        "15737": 127,
        "15738": 43,
        "15739": 142,
        "15740": 2,
        "15741": 225,
        "15742": 67,
        "15743": 96,
        "15744": 111,
        "15745": 40,
        "15746": 20,
        "15747": 107,
        "15748": 231,
        "15749": 148,
        "15750": 79,
        "15751": 237,
        "15752": 246,
        "15753": 237,
        "15754": 100,
        "15755": 10,
        "15756": 250,
        "15757": 26,
        "15758": 210,
        "15759": 221,
        "15760": 164,
        "15761": 19,
        "15762": 248,
        "15763": 127,
        "15764": 9,
        "15765": 244,
        "15766": 149,
        "15767": 81,
        "15768": 119,
        "15769": 243,
        "15770": 186,
        "15771": 112,
        "15772": 70,
        "15773": 118,
        "15774": 196,
        "15775": 64,
        "15776": 236,
        "15777": 235,
        "15778": 218,
        "15779": 195,
        "15780": 105,
        "15781": 241,
        "15782": 83,
        "15783": 53,
        "15784": 89,
        "15785": 131,
        "15786": 207,
        "15787": 114,
        "15788": 201,
        "15789": 111,
        "15790": 240,
        "15791": 149,
        "15792": 10,
        "15793": 133,
        "15794": 151,
        "15795": 50,
        "15796": 47,
        "15797": 65,
        "15798": 78,
        "15799": 105,
        "15800": 88,
        "15801": 53,
        "15802": 105,
        "15803": 51,
        "15804": 38,
        "15805": 63,
        "15806": 74,
        "15807": 148,
        "15808": 14,
        "15809": 97,
        "15810": 126,
        "15811": 248,
        "15812": 220,
        "15813": 105,
        "15814": 11,
        "15815": 156,
        "15816": 110,
        "15817": 1,
        "15818": 211,
        "15819": 64,
        "15820": 28,
        "15821": 60,
        "15822": 72,
        "15823": 251,
        "15824": 132,
        "15825": 122,
        "15826": 90,
        "15827": 219,
        "15828": 92,
        "15829": 227,
        "15830": 180,
        "15831": 47,
        "15832": 81,
        "15833": 154,
        "15834": 242,
        "15835": 165,
        "15836": 139,
        "15837": 111,
        "15838": 234,
        "15839": 3,
        "15840": 69,
        "15841": 86,
        "15842": 28,
        "15843": 23,
        "15844": 188,
        "15845": 74,
        "15846": 254,
        "15847": 91,
        "15848": 160,
        "15849": 98,
        "15850": 198,
        "15851": 238,
        "15852": 150,
        "15853": 70,
        "15854": 131,
        "15855": 236,
        "15856": 222,
        "15857": 136,
        "15858": 72,
        "15859": 211,
        "15860": 127,
        "15861": 47,
        "15862": 101,
        "15863": 109,
        "15864": 44,
        "15865": 206,
        "15866": 27,
        "15867": 134,
        "15868": 3,
        "15869": 229,
        "15870": 49,
        "15871": 170,
        "15872": 208,
        "15873": 63,
        "15874": 156,
        "15875": 42,
        "15876": 211,
        "15877": 205,
        "15878": 80,
        "15879": 182,
        "15880": 62,
        "15881": 198,
        "15882": 101,
        "15883": 23,
        "15884": 254,
        "15885": 75,
        "15886": 199,
        "15887": 222,
        "15888": 83,
        "15889": 136,
        "15890": 81,
        "15891": 210,
        "15892": 169,
        "15893": 249,
        "15894": 6,
        "15895": 140,
        "15896": 58,
        "15897": 173,
        "15898": 178,
        "15899": 191,
        "15900": 246,
        "15901": 64,
        "15902": 118,
        "15903": 131,
        "15904": 156,
        "15905": 175,
        "15906": 116,
        "15907": 195,
        "15908": 254,
        "15909": 81,
        "15910": 13,
        "15911": 202,
        "15912": 143,
        "15913": 73,
        "15914": 236,
        "15915": 242,
        "15916": 26,
        "15917": 22,
        "15918": 209,
        "15919": 139,
        "15920": 228,
        "15921": 237,
        "15922": 36,
        "15923": 70,
        "15924": 191,
        "15925": 61,
        "15926": 241,
        "15927": 97,
        "15928": 86,
        "15929": 206,
        "15930": 167,
        "15931": 173,
        "15932": 254,
        "15933": 194,
        "15934": 182,
        "15935": 113,
        "15936": 133,
        "15937": 15,
        "15938": 114,
        "15939": 105,
        "15940": 238,
        "15941": 35,
        "15942": 215,
        "15943": 87,
        "15944": 181,
        "15945": 232,
        "15946": 141,
        "15947": 2,
        "15948": 186,
        "15949": 240,
        "15950": 227,
        "15951": 172,
        "15952": 85,
        "15953": 230,
        "15954": 87,
        "15955": 89,
        "15956": 127,
        "15957": 181,
        "15958": 156,
        "15959": 73,
        "15960": 33,
        "15961": 237,
        "15962": 99,
        "15963": 167,
        "15964": 191,
        "15965": 124,
        "15966": 156,
        "15967": 121,
        "15968": 193,
        "15969": 210,
        "15970": 49,
        "15971": 206,
        "15972": 165,
        "15973": 45,
        "15974": 116,
        "15975": 37,
        "15976": 88,
        "15977": 78,
        "15978": 243,
        "15979": 60,
        "15980": 75,
        "15981": 174,
        "15982": 180,
        "15983": 91,
        "15984": 40,
        "15985": 32,
        "15986": 179,
        "15987": 67,
        "15988": 244,
        "15989": 118,
        "15990": 136,
        "15991": 217,
        "15992": 92,
        "15993": 172,
        "15994": 211,
        "15995": 68,
        "15996": 224,
        "15997": 179,
        "15998": 165,
        "15999": 231,
        "16000": 31,
        "16001": 191,
        "16002": 119,
        "16003": 136,
        "16004": 36,
        "16005": 51,
        "16006": 16,
        "16007": 237,
        "16008": 33,
        "16009": 183,
        "16010": 60,
        "16011": 60,
        "16012": 220,
        "16013": 93,
        "16014": 145,
        "16015": 145,
        "16016": 95,
        "16017": 109,
        "16018": 78,
        "16019": 184,
        "16020": 24,
        "16021": 228,
        "16022": 190,
        "16023": 178,
        "16024": 193,
        "16025": 84,
        "16026": 31,
        "16027": 201,
        "16028": 87,
        "16029": 0,
        "16030": 139,
        "16031": 241,
        "16032": 187,
        "16033": 173,
        "16034": 125,
        "16035": 167,
        "16036": 132,
        "16037": 41,
        "16038": 164,
        "16039": 151,
        "16040": 104,
        "16041": 108,
        "16042": 230,
        "16043": 73,
        "16044": 238,
        "16045": 82,
        "16046": 56,
        "16047": 46,
        "16048": 47,
        "16049": 150,
        "16050": 77,
        "16051": 214,
        "16052": 4,
        "16053": 161,
        "16054": 151,
        "16055": 152,
        "16056": 154,
        "16057": 219,
        "16058": 173,
        "16059": 214,
        "16060": 243,
        "16061": 123,
        "16062": 16,
        "16063": 51,
        "16064": 98,
        "16065": 233,
        "16066": 72,
        "16067": 21,
        "16068": 130,
        "16069": 70,
        "16070": 240,
        "16071": 223,
        "16072": 132,
        "16073": 5,
        "16074": 90,
        "16075": 1,
        "16076": 59,
        "16077": 32,
        "16078": 176,
        "16079": 29,
        "16080": 122,
        "16081": 244,
        "16082": 206,
        "16083": 239,
        "16084": 92,
        "16085": 252,
        "16086": 209,
        "16087": 55,
        "16088": 193,
        "16089": 226,
        "16090": 167,
        "16091": 233,
        "16092": 147,
        "16093": 145,
        "16094": 37,
        "16095": 21,
        "16096": 136,
        "16097": 249,
        "16098": 171,
        "16099": 165,
        "16100": 111,
        "16101": 75,
        "16102": 127,
        "16103": 68,
        "16104": 82,
        "16105": 21,
        "16106": 163,
        "16107": 145,
        "16108": 135,
        "16109": 63,
        "16110": 113,
        "16111": 219,
        "16112": 76,
        "16113": 193,
        "16114": 129,
        "16115": 232,
        "16116": 45,
        "16117": 52,
        "16118": 139,
        "16119": 203,
        "16120": 201,
        "16121": 232,
        "16122": 14,
        "16123": 79,
        "16124": 124,
        "16125": 26,
        "16126": 37,
        "16127": 132,
        "16128": 44,
        "16129": 249,
        "16130": 82,
        "16131": 16,
        "16132": 121,
        "16133": 201,
        "16134": 67,
        "16135": 124,
        "16136": 28,
        "16137": 16,
        "16138": 242,
        "16139": 187,
        "16140": 14,
        "16141": 143,
        "16142": 211,
        "16143": 202,
        "16144": 71,
        "16145": 109,
        "16146": 153,
        "16147": 60,
        "16148": 111,
        "16149": 29,
        "16150": 30,
        "16151": 72,
        "16152": 187,
        "16153": 219,
        "16154": 241,
        "16155": 25,
        "16156": 216,
        "16157": 134,
        "16158": 248,
        "16159": 177,
        "16160": 149,
        "16161": 197,
        "16162": 211,
        "16163": 237,
        "16164": 187,
        "16165": 157,
        "16166": 53,
        "16167": 88,
        "16168": 68,
        "16169": 169,
        "16170": 12,
        "16171": 236,
        "16172": 100,
        "16173": 55,
        "16174": 204,
        "16175": 91,
        "16176": 129,
        "16177": 230,
        "16178": 195,
        "16179": 173,
        "16180": 66,
        "16181": 19,
        "16182": 192,
        "16183": 40,
        "16184": 137,
        "16185": 74,
        "16186": 223,
        "16187": 222,
        "16188": 39,
        "16189": 165,
        "16190": 63,
        "16191": 82,
        "16192": 177,
        "16193": 145,
        "16194": 12,
        "16195": 171,
        "16196": 184,
        "16197": 108,
        "16198": 164,
        "16199": 254,
        "16200": 37,
        "16201": 64,
        "16202": 181,
        "16203": 31,
        "16204": 154,
        "16205": 60,
        "16206": 47,
        "16207": 215,
        "16208": 94,
        "16209": 172,
        "16210": 211,
        "16211": 231,
        "16212": 95,
        "16213": 79,
        "16214": 79,
        "16215": 254,
        "16216": 68,
        "16217": 44,
        "16218": 220,
        "16219": 236,
        "16220": 56,
        "16221": 186,
        "16222": 153,
        "16223": 50,
        "16224": 48,
        "16225": 238,
        "16226": 175,
        "16227": 93,
        "16228": 148,
        "16229": 42,
        "16230": 86,
        "16231": 250,
        "16232": 92,
        "16233": 54,
        "16234": 160,
        "16235": 81,
        "16236": 239,
        "16237": 126,
        "16238": 206,
        "16239": 153,
        "16240": 44,
        "16241": 127,
        "16242": 31,
        "16243": 77,
        "16244": 241,
        "16245": 85,
        "16246": 104,
        "16247": 187,
        "16248": 104,
        "16249": 229,
        "16250": 16,
        "16251": 177,
        "16252": 66,
        "16253": 201,
        "16254": 55,
        "16255": 162,
        "16256": 33,
        "16257": 75,
        "16258": 39,
        "16259": 30,
        "16260": 143,
        "16261": 115,
        "16262": 88,
        "16263": 162,
        "16264": 188,
        "16265": 1,
        "16266": 68,
        "16267": 85,
        "16268": 212,
        "16269": 255,
        "16270": 122,
        "16271": 247,
        "16272": 81,
        "16273": 28,
        "16274": 95,
        "16275": 20,
        "16276": 230,
        "16277": 35,
        "16278": 24,
        "16279": 253,
        "16280": 223,
        "16281": 212,
        "16282": 104,
        "16283": 28,
        "16284": 130,
        "16285": 188,
        "16286": 5,
        "16287": 18,
        "16288": 52,
        "16289": 101,
        "16290": 226,
        "16291": 239,
        "16292": 247,
        "16293": 86,
        "16294": 125,
        "16295": 109,
        "16296": 83,
        "16297": 98,
        "16298": 218,
        "16299": 110,
        "16300": 215,
        "16301": 60,
        "16302": 146,
        "16303": 189,
        "16304": 213,
        "16305": 237,
        "16306": 204,
        "16307": 80,
        "16308": 23,
        "16309": 127,
        "16310": 126,
        "16311": 76,
        "16312": 50,
        "16313": 64,
        "16314": 187,
        "16315": 57,
        "16316": 44,
        "16317": 197,
        "16318": 26,
        "16319": 210,
        "16320": 157,
        "16321": 50,
        "16322": 103,
        "16323": 8,
        "16324": 85,
        "16325": 82,
        "16326": 159,
        "16327": 46,
        "16328": 19,
        "16329": 87,
        "16330": 179,
        "16331": 136,
        "16332": 86,
        "16333": 111,
        "16334": 239,
        "16335": 238,
        "16336": 155,
        "16337": 101,
        "16338": 228,
        "16339": 89,
        "16340": 226,
        "16341": 179,
        "16342": 125,
        "16343": 162,
        "16344": 249,
        "16345": 91,
        "16346": 106,
        "16347": 190,
        "16348": 117,
        "16349": 54,
        "16350": 100,
        "16351": 203,
        "16352": 59,
        "16353": 13,
        "16354": 181,
        "16355": 188,
        "16356": 143,
        "16357": 215,
        "16358": 25,
        "16359": 247,
        "16360": 120,
        "16361": 252,
        "16362": 58,
        "16363": 200,
        "16364": 179,
        "16365": 43,
        "16366": 238,
        "16367": 116,
        "16368": 4,
        "16369": 200,
        "16370": 192,
        "16371": 110,
        "16372": 111,
        "16373": 88,
        "16374": 186,
        "16375": 50,
        "16376": 46,
        "16377": 62,
        "16378": 77,
        "16379": 226,
        "16380": 172,
        "16381": 219,
        "16382": 161,
        "16383": 94,
        "16384": 178,
        "16385": 235,
        "16386": 153,
        "16387": 168,
        "16388": 168,
        "16389": 5,
        "16390": 6,
        "16391": 174,
        "16392": 171,
        "16393": 254,
        "16394": 235,
        "16395": 164,
        "16396": 91,
        "16397": 255,
        "16398": 176,
        "16399": 141,
        "16400": 75,
        "16401": 228,
        "16402": 8,
        "16403": 52,
        "16404": 243,
        "16405": 18,
        "16406": 85,
        "16407": 169,
        "16408": 132,
        "16409": 101,
        "16410": 34,
        "16411": 82,
        "16412": 41,
        "16413": 215,
        "16414": 241,
        "16415": 121,
        "16416": 146,
        "16417": 20,
        "16418": 73,
        "16419": 203,
        "16420": 21,
        "16421": 105,
        "16422": 227,
        "16423": 210,
        "16424": 54,
        "16425": 125,
        "16426": 249,
        "16427": 69,
        "16428": 195,
        "16429": 106,
        "16430": 67,
        "16431": 70,
        "16432": 177,
        "16433": 133,
        "16434": 53,
        "16435": 192,
        "16436": 252,
        "16437": 101,
        "16438": 144,
        "16439": 179,
        "16440": 249,
        "16441": 0,
        "16442": 143,
        "16443": 223,
        "16444": 180,
        "16445": 174,
        "16446": 229,
        "16447": 154,
        "16448": 153,
        "16449": 222,
        "16450": 153,
        "16451": 180,
        "16452": 207,
        "16453": 114,
        "16454": 255,
        "16455": 237,
        "16456": 177,
        "16457": 72,
        "16458": 99,
        "16459": 126,
        "16460": 80,
        "16461": 4,
        "16462": 45,
        "16463": 171,
        "16464": 131,
        "16465": 173,
        "16466": 218,
        "16467": 206,
        "16468": 189,
        "16469": 110,
        "16470": 121,
        "16471": 219,
        "16472": 183,
        "16473": 127,
        "16474": 248,
        "16475": 4,
        "16476": 246,
        "16477": 199,
        "16478": 141,
        "16479": 221,
        "16480": 124,
        "16481": 79,
        "16482": 225,
        "16483": 248,
        "16484": 91,
        "16485": 118,
        "16486": 96,
        "16487": 228,
        "16488": 12,
        "16489": 79,
        "16490": 157,
        "16491": 180,
        "16492": 163,
        "16493": 231,
        "16494": 142,
        "16495": 6,
        "16496": 7,
        "16497": 241,
        "16498": 76,
        "16499": 168,
        "16500": 234,
        "16501": 55,
        "16502": 163,
        "16503": 94,
        "16504": 27,
        "16505": 222,
        "16506": 79,
        "16507": 155,
        "16508": 241,
        "16509": 27,
        "16510": 29,
        "16511": 25,
        "16512": 44,
        "16513": 100,
        "16514": 1,
        "16515": 246,
        "16516": 3,
        "16517": 140,
        "16518": 75,
        "16519": 209,
        "16520": 1,
        "16521": 8,
        "16522": 0,
        "16523": 0,
        "16524": 0,
        "16525": 0,
        "16526": 0,
        "16527": 0,
        "16528": 16,
        "16529": 0,
        "16530": 0,
        "16531": 0,
        "16532": 0,
        "16533": 0,
        "16534": 0,
        "16535": 0,
        "16536": 0,
        "16537": 0,
        "16538": 0,
        "16539": 0,
        "16540": 0,
        "16541": 0,
        "16542": 0,
        "16543": 0,
        "16544": 0,
        "16545": 0,
        "16546": 0,
        "16547": 0,
        "16548": 0,
        "16549": 0,
        "16550": 0,
        "16551": 0,
        "16552": 64,
        "16553": 0,
        "16554": 0,
        "16555": 0,
        "16556": 0,
        "16557": 0,
        "16558": 0,
        "16559": 0,
        "16560": 3,
        "16561": 0,
        "16562": 0,
        "16563": 0,
        "16564": 0,
        "16565": 0,
        "16566": 0,
        "16567": 0,
        "16568": 4,
        "16569": 0,
        "16570": 0,
        "16571": 0,
        "16572": 0,
        "16573": 0,
        "16574": 0,
        "16575": 0,
        "16576": 4,
        "16577": 0,
        "16578": 0,
        "16579": 0,
        "16580": 0,
        "16581": 0,
        "16582": 0,
        "16583": 0,
        "16584": 0,
        "16585": 0,
        "16586": 0,
        "16587": 0,
        "16588": 1,
        "16589": 0,
        "16590": 0,
        "16591": 0,
        "16592": 0,
        "16593": 0,
        "16594": 0,
        "16595": 0,
        "16596": 16,
        "16597": 0,
        "16598": 0,
        "16599": 0,
        "16600": 0,
        "16601": 0,
        "16602": 0,
        "16603": 0
      }
    }
  ],
  "numDeployments": 1,
  "solcInputHash": "c0e889dcb69b76266f445d0fe3402b92",
  "bytecode": "0x6101606040526200001760006200026660201b60201c565b6002553480156200002757600080fd5b50604051620046173803806200461783398181016040528101906200004d919062000b83565b6040518060400160405280600881526020017f46616b65205553440000000000000000000000000000000000000000000000008152506040518060400160405280600481526020017f6655534400000000000000000000000000000000000000000000000000000000815250338383836040518060400160405280601181526020017f4668656e6978205065726d697373696f6e0000000000000000000000000000008152506040518060400160405280600381526020017f312e3000000000000000000000000000000000000000000000000000000000008152506200013f6000836200028260201b90919060201c565b61012081815250506200015d6001826200028260201b90919060201c565b6101408181525050818051906020012060e08181525050808051906020012061010081815250504660a081815250506200019c620002da60201b60201c565b608081815250503073ffffffffffffffffffffffffffffffffffffffff1660c08173ffffffffffffffffffffffffffffffffffffffff168152505050508160059081620001ea919062000e1f565b508060069081620001fc919062000e1f565b505050600062000212826200033760201b60201c565b9050620002486200023c8262000230617fff6200026660201b60201c565b6200035560201b60201c565b620003f860201b60201c565b6200025a8382620004cb60201b60201c565b50505050505062001260565b60006200027b8260026200057160201b60201c565b9050919050565b6000602083511015620002a857620002a0836200062860201b60201c565b9050620002d4565b82620002ba836200069560201b60201c565b6000019081620002cb919062000e1f565b5060ff60001b90505b92915050565b60007f8b73c3c69bb8fe3d512ecc4cf759cc79239f7b179b0ffacaa9a75d522b39400f60e0516101005146306040516020016200031c95949392919062000f77565b60405160208183030381529060405280519060200120905090565b60006200034e82600001516200069f60201b60201c565b9050919050565b60006200036883620006bb60201b60201c565b62000382576200037f60006200026660201b60201c565b92505b6200039382620006bb60201b60201c565b620003ad57620003aa60006200026660201b60201c565b91505b600083905060008390506000620003ea60028484608073ffffffffffffffffffffffffffffffffffffffff1663eb274b77620006c860201b60201c565b905080935050505092915050565b62000409816200077960201b60201c565b62000423576200042060006200078660201b60201c565b90505b600081905060006200043b82620007a260201b60201c565b9050608073ffffffffffffffffffffffffffffffffffffffff16637d23f1db600d836040518363ffffffff1660e01b81526004016200047c9291906200104f565b600060405180830381865afa1580156200049a573d6000803e3d6000fd5b505050506040513d6000823e3d601f19601f82011682018060405250810190620004c5919062001083565b50505050565b62000516600360008473ffffffffffffffffffffffffffffffffffffffff1673ffffffffffffffffffffffffffffffffffffffff168152602001908152602001600020548262000803565b600360008473ffffffffffffffffffffffffffffffffffffffff1673ffffffffffffffffffffffffffffffffffffffff16815260200190815260200160002081905550620005676002548262000803565b6002819055505050565b60006060608073ffffffffffffffffffffffffffffffffffffffff166319e1c5c4620005a386620007a260201b60201c565b856040518363ffffffff1660e01b8152600401620005c3929190620010d4565b600060405180830381865afa158015620005e1573d6000803e3d6000fd5b505050506040513d6000823e3d601f19601f820116820180604052508101906200060c919062001083565b90506200061f816200081f60201b60201c565b91505092915050565b600080829050601f815111156200067857826040517f305a27a90000000000000000000000000000000000000000000000000000000081526004016200066f91906200115a565b60405180910390fd5b8051816200068690620011a5565b60001c1760001b915050919050565b6000819050919050565b6000620006b48260026200082d60201b60201c565b9050919050565b6000808214159050919050565b60006060838388620006e089620007a260201b60201c565b620006f189620007a260201b60201c565b6040518463ffffffff1660e01b8152600401620007119392919062001215565b600060405180830381865afa1580156200072f573d6000803e3d6000fd5b505050506040513d6000823e3d601f19601f820116820180604052508101906200075a919062001083565b90506200076d81620008d460201b60201c565b91505095945050505050565b6000808214159050919050565b60006200079b82600d6200057160201b60201c565b9050919050565b6060602067ffffffffffffffff811115620007c257620007c1620009ae565b5b6040519080825280601f01601f191660200182016040528015620007f55781602001600182028036833780820191505090505b509050816020820152919050565b6000620008178383620008e260201b60201c565b905092915050565b600060208201519050919050565b60006060608073ffffffffffffffffffffffffffffffffffffffff16635fa55ca784866040518363ffffffff1660e01b81526004016200086f9291906200104f565b600060405180830381865afa1580156200088d573d6000803e3d6000fd5b505050506040513d6000823e3d601f19601f82011682018060405250810190620008b8919062001083565b9050620008cb816200081f60201b60201c565b91505092915050565b600060208201519050919050565b6000620008f583620006bb60201b60201c565b6200090f576200090c60006200026660201b60201c565b92505b6200092082620006bb60201b60201c565b6200093a576200093760006200026660201b60201c565b91505b6000839050600083905060006200097660028484608073ffffffffffffffffffffffffffffffffffffffff16622df619620006c860201b60201c565b905080935050505092915050565b6000604051905090565b600080fd5b600080fd5b600080fd5b6000601f19601f8301169050919050565b7f4e487b7100000000000000000000000000000000000000000000000000000000600052604160045260246000fd5b620009e8826200099d565b810181811067ffffffffffffffff8211171562000a0a5762000a09620009ae565b5b80604052505050565b600062000a1f62000984565b905062000a2d8282620009dd565b919050565b600080fd5b600080fd5b600080fd5b600067ffffffffffffffff82111562000a5f5762000a5e620009ae565b5b62000a6a826200099d565b9050602081019050919050565b60005b8381101562000a9757808201518184015260208101905062000a7a565b60008484015250505050565b600062000aba62000ab48462000a41565b62000a13565b90508281526020810184848401111562000ad95762000ad862000a3c565b5b62000ae684828562000a77565b509392505050565b600082601f83011262000b065762000b0562000a37565b5b815162000b1884826020860162000aa3565b91505092915050565b60006020828403121562000b3a5762000b3962000998565b5b62000b46602062000a13565b9050600082015167ffffffffffffffff81111562000b695762000b6862000a32565b5b62000b778482850162000aee565b60008301525092915050565b60006020828403121562000b9c5762000b9b6200098e565b5b600082015167ffffffffffffffff81111562000bbd5762000bbc62000993565b5b62000bcb8482850162000b21565b91505092915050565b600081519050919050565b7f4e487b7100000000000000000000000000000000000000000000000000000000600052602260045260246000fd5b6000600282049050600182168062000c2757607f821691505b60208210810362000c3d5762000c3c62000bdf565b5b50919050565b60008190508160005260206000209050919050565b60006020601f8301049050919050565b600082821b905092915050565b60006008830262000ca77fffffffffffffffffffffffffffffffffffffffffffffffffffffffffffffffff8262000c68565b62000cb3868362000c68565b95508019841693508086168417925050509392505050565b6000819050919050565b6000819050919050565b600062000d0062000cfa62000cf48462000ccb565b62000cd5565b62000ccb565b9050919050565b6000819050919050565b62000d1c8362000cdf565b62000d3462000d2b8262000d07565b84845462000c75565b825550505050565b600090565b62000d4b62000d3c565b62000d5881848462000d11565b505050565b5b8181101562000d805762000d7460008262000d41565b60018101905062000d5e565b5050565b601f82111562000dcf5762000d998162000c43565b62000da48462000c58565b8101602085101562000db4578190505b62000dcc62000dc38562000c58565b83018262000d5d565b50505b505050565b600082821c905092915050565b600062000df46000198460080262000dd4565b1980831691505092915050565b600062000e0f838362000de1565b9150826002028217905092915050565b62000e2a8262000bd4565b67ffffffffffffffff81111562000e465762000e45620009ae565b5b62000e52825462000c0e565b62000e5f82828562000d84565b600060209050601f83116001811462000e97576000841562000e82578287015190505b62000e8e858262000e01565b86555062000efe565b601f19841662000ea78662000c43565b60005b8281101562000ed15784890151825560018201915060208501945060208101905062000eaa565b8683101562000ef1578489015162000eed601f89168262000de1565b8355505b6001600288020188555050505b505050505050565b6000819050919050565b62000f1b8162000f06565b82525050565b62000f2c8162000ccb565b82525050565b600073ffffffffffffffffffffffffffffffffffffffff82169050919050565b600062000f5f8262000f32565b9050919050565b62000f718162000f52565b82525050565b600060a08201905062000f8e600083018862000f10565b62000f9d602083018762000f10565b62000fac604083018662000f10565b62000fbb606083018562000f21565b62000fca608083018462000f66565b9695505050505050565b600060ff82169050919050565b62000fec8162000fd4565b82525050565b600081519050919050565b600082825260208201905092915050565b60006200101b8262000ff2565b62001027818562000ffd565b93506200103981856020860162000a77565b62001044816200099d565b840191505092915050565b600060408201905062001066600083018562000fe1565b81810360208301526200107a81846200100e565b90509392505050565b6000602082840312156200109c576200109b6200098e565b5b600082015167ffffffffffffffff811115620010bd57620010bc62000993565b5b620010cb8482850162000aee565b91505092915050565b60006040820190508181036000830152620010f081856200100e565b905062001101602083018462000fe1565b9392505050565b600082825260208201905092915050565b6000620011268262000bd4565b62001132818562001108565b93506200114481856020860162000a77565b6200114f816200099d565b840191505092915050565b6000602082019050818103600083015262001176818462001119565b905092915050565b6000819050602082019050919050565b60006200119c825162000f06565b80915050919050565b6000620011b28262000ff2565b82620011be846200117e565b9050620011cb816200118e565b925060208210156200120e57620012097fffffffffffffffffffffffffffffffffffffffffffffffffffffffffffffffff8360200360080262000c68565b831692505b5050919050565b60006060820190506200122c600083018662000fe1565b81810360208301526200124081856200100e565b905081810360408301526200125681846200100e565b9050949350505050565b60805160a05160c05160e05161010051610120516101405161335c620012bb60003960006118f5015260006118ba0152600061217f0152600061215e015260006119ea01526000611a4001526000611a69015261335c6000f3fe608060405234801561001057600080fd5b50600436106101425760003560e01c80637ecebe00116100b8578063a9059cbb1161007c578063a9059cbb146103b9578063af575a00146103e9578063c4224c1914610419578063d505accf14610449578063d918156e14610465578063dd62ed3e1461049557610142565b80637ecebe00146102fb57806384b0196e1461032b5780638624a3491461034f57806395d89b411461037f5780639f284be71461039d57610142565b80633644e5151161010a5780633644e5151461020157806339c217f71461021f5780635356c4291461024f578063602772041461027f5780636e0505e1146102af57806370a08231146102cb57610142565b806306fdde0314610147578063095ea7b31461016557806318160ddd1461019557806323b872dd146101b3578063313ce567146101e3575b600080fd5b61014f6104c5565b60405161015c9190612433565b60405180910390f35b61017f600480360381019061017a91906124fd565b610557565b60405161018c9190612558565b60405180910390f35b61019d6105ab565b6040516101aa9190612582565b60405180910390f35b6101cd60048036038101906101c8919061259d565b6105bd565b6040516101da9190612558565b60405180910390f35b6101eb610692565b6040516101f8919061260c565b60405180910390f35b610209610697565b6040516102169190612640565b60405180910390f35b6102396004803603810190610234919061267f565b610729565b6040516102469190612716565b60405180910390f35b61026960048036038101906102649190612750565b61074e565b6040516102769190612433565b60405180910390f35b61029960048036038101906102949190612983565b6108bf565b6040516102a69190612433565b60405180910390f35b6102c960048036038101906102c49190612a1b565b6109ec565b005b6102e560048036038101906102e09190612a48565b610b01565b6040516102f29190612582565b60405180910390f35b61031560048036038101906103109190612a48565b610b1c565b6040516103229190612582565b60405180910390f35b610333610b37565b6040516103469796959493929190612b7d565b60405180910390f35b61036960048036038101906103649190612c01565b610be1565b6040516103769190612716565b60405180910390f35b610387610c08565b6040516103949190612433565b60405180910390f35b6103b760048036038101906103b29190612a1b565b610c9a565b005b6103d360048036038101906103ce91906124fd565b610da7565b6040516103e09190612558565b60405180910390f35b61040360048036038101906103fe9190612c9c565b610e39565b6040516104109190612716565b60405180910390f35b610433600480360381019061042e9190612cef565b61118f565b6040516104409190612716565b60405180910390f35b610463600480360381019061045e9190612d5b565b611359565b005b61047f600480360381019061047a919061267f565b6114fd565b60405161048c9190612558565b60405180910390f35b6104af60048036038101906104aa9190612dfd565b6115f5565b6040516104bc9190612582565b60405180910390f35b6060600580546104d490612e6c565b80601f016020809104026020016040519081016040528092919081815260200182805461050090612e6c565b801561054d5780601f106105225761010080835404028352916020019161054d565b820191906000526020600020905b81548152906001019060200180831161053057829003601f168201915b5050505050905090565b600082602052637f5e9f20600c5233600052816034600c205581600052602c5160601c337f8c5be1e5ebec7d5bd14f71427d1e84f3dd0314c0f7b2291e5b200ac8c7c3b92560206000a36001905092915050565b60006805345cdf77eb68f44c54905090565b60006105ca848484611615565b8360601b33602052637f5e9f208117600c526034600c20805460018101156106085780851115610602576313be252b6000526004601cfd5b84810382555b6387a211a28317600c526020600c2080548087111561062f5763f4d678b86000526004601cfd5b8681038255876000526020600c2087815401815587602052600c5160601c8660601c7fddf252ad1be2c89b69c2b068fc378daa952ba7f163c4a11628f55a4df523b3ef602080a350505050505061068784848461161a565b600190509392505050565b600090565b6000806106a261161f565b90506000801b81036106c0576106b66104c5565b8051906020012090505b6040517f8b73c3c69bb8fe3d512ecc4cf759cc79239f7b179b0ffacaa9a75d522b39400f81528160208201527fc89efdaa54c0f20c7adf612882df0950f5a951637e0307cdcb4c672f298b8bc6604082015246606082015230608082015260a081209250505090565b6000610746836107418461073c90612ef5565b611624565b61118f565b905092915050565b60608161075a90612f08565b60006107b17f6bdaeb2d29561f159c7ef98b16b27015fb2aeb87209c7ee656226d912f59927d8360000151604051602001610796929190612f1b565b6040516020818303038152906040528051906020012061163a565b905060006107c3828460200151611654565b90503373ffffffffffffffffffffffffffffffffffffffff168173ffffffffffffffffffffffffffffffffffffffff161461082a576040517f3093a27700000000000000000000000000000000000000000000000000000000815260040160405180910390fd5b6108b4600460003373ffffffffffffffffffffffffffffffffffffffff1673ffffffffffffffffffffffffffffffffffffffff16815260200190815260200160002060008873ffffffffffffffffffffffffffffffffffffffff1673ffffffffffffffffffffffffffffffffffffffff168152602001908152602001600020548660000135611680565b935050505092915050565b60608183600061091a7f6bdaeb2d29561f159c7ef98b16b27015fb2aeb87209c7ee656226d912f59927d84600001516040516020016108ff929190612f1b565b6040516020818303038152906040528051906020012061163a565b9050600061092c828560200151611654565b90508273ffffffffffffffffffffffffffffffffffffffff168173ffffffffffffffffffffffffffffffffffffffff1614610993576040517f51c65eae00000000000000000000000000000000000000000000000000000000815260040160405180910390fd5b6109e0600360008973ffffffffffffffffffffffffffffffffffffffff1673ffffffffffffffffffffffffffffffffffffffff168152602001908152602001600020548760000151611680565b94505050505092915050565b6000610a45610a008363ffffffff166116b6565b600360003373ffffffffffffffffffffffffffffffffffffffff1673ffffffffffffffffffffffffffffffffffffffff168152602001908152602001600020546116ca565b9050610a90600360003373ffffffffffffffffffffffffffffffffffffffff1673ffffffffffffffffffffffffffffffffffffffff1681526020019081526020016000205482611743565b600360003373ffffffffffffffffffffffffffffffffffffffff1673ffffffffffffffffffffffffffffffffffffffff16815260200190815260200160002081905550610adf60025482611743565b600281905550610afd33610af283611757565b63ffffffff1661181a565b5050565b60006387a211a2600c52816000526020600c20549050919050565b60006338377508600c52816000526020600c20549050919050565b600060608060008060006060610b4b6118b1565b610b536118ec565b46306000801b600067ffffffffffffffff811115610b7457610b736127b1565b5b604051908082528060200260200182016040528015610ba25781602001602082028036833780820191505090505b507f0f00000000000000000000000000000000000000000000000000000000000000959493929190965096509650965096509650965090919293949596565b6000610bff8484610bfa85610bf590612ef5565b611624565b610e39565b90509392505050565b606060068054610c1790612e6c565b80601f0160208091040260200160405190810160405280929190818152602001828054610c4390612e6c565b8015610c905780601f10610c6557610100808354040283529160200191610c90565b820191906000526020600020905b815481529060010190602001808311610c7357829003601f168201915b5050505050905090565b8063ffffffff16610caa33610b01565b1015610ce2576040517ffda7bbda00000000000000000000000000000000000000000000000000000000815260040160405180910390fd5b610cf2338263ffffffff16611927565b6000610d038263ffffffff166116b6565b9050610d4e600360003373ffffffffffffffffffffffffffffffffffffffff1673ffffffffffffffffffffffffffffffffffffffff16815260200190815260200160002054826119be565b600360003373ffffffffffffffffffffffffffffffffffffffff1673ffffffffffffffffffffffffffffffffffffffff16815260200190815260200160002081905550610d9d600254826119be565b6002819055505050565b6000610db4338484611615565b6387a211a2600c52336000526020600c20805480841115610ddd5763f4d678b86000526004601cfd5b8381038255846000526020600c2084815401815584602052600c5160601c337fddf252ad1be2c89b69c2b068fc378daa952ba7f163c4a11628f55a4df523b3ef602080a3505050610e2f33848461161a565b6001905092915050565b600080610f0a83610f05600360008973ffffffffffffffffffffffffffffffffffffffff1673ffffffffffffffffffffffffffffffffffffffff16815260200190815260200160002054600460008a73ffffffffffffffffffffffffffffffffffffffff1673ffffffffffffffffffffffffffffffffffffffff16815260200190815260200160002060003373ffffffffffffffffffffffffffffffffffffffff1673ffffffffffffffffffffffffffffffffffffffff168152602001908152602001600020546116ca565b6116ca565b9050610f92600460008773ffffffffffffffffffffffffffffffffffffffff1673ffffffffffffffffffffffffffffffffffffffff16815260200190815260200160002060003373ffffffffffffffffffffffffffffffffffffffff1673ffffffffffffffffffffffffffffffffffffffff1681526020019081526020016000205482611743565b600460008773ffffffffffffffffffffffffffffffffffffffff1673ffffffffffffffffffffffffffffffffffffffff16815260200190815260200160002060003373ffffffffffffffffffffffffffffffffffffffff1673ffffffffffffffffffffffffffffffffffffffff1681526020019081526020016000208190555061105b600360008773ffffffffffffffffffffffffffffffffffffffff1673ffffffffffffffffffffffffffffffffffffffff1681526020019081526020016000205482611743565b600360008773ffffffffffffffffffffffffffffffffffffffff1673ffffffffffffffffffffffffffffffffffffffff168152602001908152602001600020819055506110e7600360008673ffffffffffffffffffffffffffffffffffffffff1673ffffffffffffffffffffffffffffffffffffffff16815260200190815260200160002054826119be565b600360008673ffffffffffffffffffffffffffffffffffffffff1673ffffffffffffffffffffffffffffffffffffffff168152602001908152602001600020819055508373ffffffffffffffffffffffffffffffffffffffff168573ffffffffffffffffffffffffffffffffffffffff167f7612539b010127d1a2f810eeff1131de23a28ecfa8228f92a9606a879300fbb560405160405180910390a3809150509392505050565b6000806111db83600360003373ffffffffffffffffffffffffffffffffffffffff1673ffffffffffffffffffffffffffffffffffffffff168152602001908152602001600020546116ca565b9050611226600360003373ffffffffffffffffffffffffffffffffffffffff1673ffffffffffffffffffffffffffffffffffffffff1681526020019081526020016000205482611743565b600360003373ffffffffffffffffffffffffffffffffffffffff1673ffffffffffffffffffffffffffffffffffffffff168152602001908152602001600020819055506112b2600360008673ffffffffffffffffffffffffffffffffffffffff1673ffffffffffffffffffffffffffffffffffffffff16815260200190815260200160002054826119be565b600360008673ffffffffffffffffffffffffffffffffffffffff1673ffffffffffffffffffffffffffffffffffffffff168152602001908152602001600020819055508373ffffffffffffffffffffffffffffffffffffffff163373ffffffffffffffffffffffffffffffffffffffff167f7612539b010127d1a2f810eeff1131de23a28ecfa8228f92a9606a879300fbb560405160405180910390a38091505092915050565b600061136361161f565b90506000801b8103611381576113776104c5565b8051906020012090505b8442111561139757631a15a3cc6000526004601cfd5b6040518860601b60601c98508760601b60601c975065383775081901600e52886000526020600c2080547f8b73c3c69bb8fe3d512ecc4cf759cc79239f7b179b0ffacaa9a75d522b39400f83528360208401527fc89efdaa54c0f20c7adf612882df0950f5a951637e0307cdcb4c672f298b8bc6604084015246606084015230608084015260a08320602e527f6e71edae12b1b97f4d1f60370fef10105fa2faae0126114a169c64845d6126c983528a60208401528960408401528860608401528060808401528760a084015260c08320604e526042602c206000528660ff1660205285604052846060526020806080600060015afa8b3d51146114a35763ddafbaef6000526004601cfd5b80820183558a637f5e9f2060a01b17604052896034602c20558a8c7f8c5be1e5ebec7d5bd14f71427d1e84f3dd0314c0f7b2291e5b200ac8c7c3b925602060608801a3836040526000606052505050505050505050505050565b60006115118261150c90612ef5565b611624565b600460003373ffffffffffffffffffffffffffffffffffffffff1673ffffffffffffffffffffffffffffffffffffffff16815260200190815260200160002060008573ffffffffffffffffffffffffffffffffffffffff1673ffffffffffffffffffffffffffffffffffffffff168152602001908152602001600020819055508273ffffffffffffffffffffffffffffffffffffffff163373ffffffffffffffffffffffffffffffffffffffff167f46f92913a39019d68e630493d23e0cf39761bf253f7b3f8eae384b33e393ed4e60405160405180910390a36001905092915050565b600081602052637f5e9f20600c52826000526034600c2054905092915050565b505050565b505050565b600090565b600061163382600001516119d2565b9050919050565b600061164d6116476119e6565b83611a9d565b9050919050565b6000806000806116648686611ade565b9250925092506116748282611b3a565b82935050505092915050565b606061168b83611c9e565b61169c5761169960006116b6565b92505b60008390506116ad60028285611cab565b91505092915050565b60006116c3826002611d61565b9050919050565b60006116d583611c9e565b6116e6576116e360006116b6565b92505b6116ef82611c9e565b611700576116fd60006116b6565b91505b60008390506000839050600061173560028484608073ffffffffffffffffffffffffffffffffffffffff16635211c679611e03565b905080935050505092915050565b600061174f8383611e97565b905092915050565b600061176282611c9e565b6117735761177060006116b6565b91505b6000829050600061178382611f10565b90506000608073ffffffffffffffffffffffffffffffffffffffff166373cc01546002846040518363ffffffff1660e01b81526004016117c4929190612f99565b602060405180830381865afa1580156117e1573d6000803e3d6000fd5b505050506040513d601f19601f820116820180604052508101906118059190612fde565b905061181081611f6d565b9350505050919050565b61182660008383611615565b6805345cdf77eb68f44c548181018181101561184a5763e5cfe9576000526004601cfd5b806805345cdf77eb68f44c556387a211a2600c52836000526020600c2083815401815583602052600c5160601c60007fddf252ad1be2c89b69c2b068fc378daa952ba7f163c4a11628f55a4df523b3ef602080a35050506118ad6000838361161a565b5050565b60606118e760007f0000000000000000000000000000000000000000000000000000000000000000611f7790919063ffffffff16565b905090565b606061192260017f0000000000000000000000000000000000000000000000000000000000000000611f7790919063ffffffff16565b905090565b61193382600083611615565b6387a211a2600c52816000526020600c2080548083111561195c5763f4d678b86000526004601cfd5b8281038255826805345cdf77eb68f44c54036805345cdf77eb68f44c558260005260008460601b60601c7fddf252ad1be2c89b69c2b068fc378daa952ba7f163c4a11628f55a4df523b3ef60206000a350506119ba8260008361161a565b5050565b60006119ca8383612027565b905092915050565b60006119df82600261209f565b9050919050565b60007f000000000000000000000000000000000000000000000000000000000000000073ffffffffffffffffffffffffffffffffffffffff163073ffffffffffffffffffffffffffffffffffffffff16148015611a6257507f000000000000000000000000000000000000000000000000000000000000000046145b15611a8f577f00000000000000000000000000000000000000000000000000000000000000009050611a9a565b611a97612139565b90505b90565b60006040517f190100000000000000000000000000000000000000000000000000000000000081528360028201528260228201526042812091505092915050565b60008060006041845103611b235760008060006020870151925060408701519150606087015160001a9050611b15888285856121cf565b955095509550505050611b33565b60006002855160001b9250925092505b9250925092565b60006003811115611b4e57611b4d61300b565b5b826003811115611b6157611b6061300b565b5b0315611c9a5760016003811115611b7b57611b7a61300b565b5b826003811115611b8e57611b8d61300b565b5b03611bc5576040517ff645eedf00000000000000000000000000000000000000000000000000000000815260040160405180910390fd5b60026003811115611bd957611bd861300b565b5b826003811115611bec57611beb61300b565b5b03611c31578060001c6040517ffce698f7000000000000000000000000000000000000000000000000000000008152600401611c289190612582565b60405180910390fd5b600380811115611c4457611c4361300b565b5b826003811115611c5757611c5661300b565b5b03611c9957806040517fd78bce0c000000000000000000000000000000000000000000000000000000008152600401611c909190612640565b60405180910390fd5b5b5050565b6000808214159050919050565b6060608073ffffffffffffffffffffffffffffffffffffffff1663a1848ff385611cd486611f10565b85604051602001611ce5919061305b565b6040516020818303038152906040526040518463ffffffff1660e01b8152600401611d1293929190613076565b600060405180830381865afa158015611d2f573d6000803e3d6000fd5b505050506040513d6000823e3d601f19601f82011682018060405250810190611d58919061315c565b90509392505050565b60006060608073ffffffffffffffffffffffffffffffffffffffff166319e1c5c4611d8b86611f10565b856040518363ffffffff1660e01b8152600401611da99291906131a5565b600060405180830381865afa158015611dc6573d6000803e3d6000fd5b505050506040513d6000823e3d601f19601f82011682018060405250810190611def9190613245565b9050611dfa816122c3565b91505092915050565b60006060838388611e1389611f10565b611e1c89611f10565b6040518463ffffffff1660e01b8152600401611e3a93929190613076565b600060405180830381865afa158015611e57573d6000803e3d6000fd5b505050506040513d6000823e3d601f19601f82011682018060405250810190611e809190613245565b9050611e8b816122d1565b91505095945050505050565b6000611ea283611c9e565b611eb357611eb060006116b6565b92505b611ebc82611c9e565b611ecd57611eca60006116b6565b91505b600083905060008390506000611f0260028484608073ffffffffffffffffffffffffffffffffffffffff1663cc2cbeff611e03565b905080935050505092915050565b6060602067ffffffffffffffff811115611f2d57611f2c6127b1565b5b6040519080825280601f01601f191660200182016040528015611f5f5781602001600182028036833780820191505090505b509050816020820152919050565b6000819050919050565b606060ff60001b8314611f9457611f8d836122df565b9050612021565b818054611fa090612e6c565b80601f0160208091040260200160405190810160405280929190818152602001828054611fcc90612e6c565b80156120195780601f10611fee57610100808354040283529160200191612019565b820191906000526020600020905b815481529060010190602001808311611ffc57829003601f168201915b505050505090505b92915050565b600061203283611c9e565b6120435761204060006116b6565b92505b61204c82611c9e565b61205d5761205a60006116b6565b91505b60008390506000839050600061209160028484608073ffffffffffffffffffffffffffffffffffffffff16622df619611e03565b905080935050505092915050565b60006060608073ffffffffffffffffffffffffffffffffffffffff16635fa55ca784866040518363ffffffff1660e01b81526004016120df929190612f99565b600060405180830381865afa1580156120fc573d6000803e3d6000fd5b505050506040513d6000823e3d601f19601f820116820180604052508101906121259190613245565b9050612130816122c3565b91505092915050565b60007f8b73c3c69bb8fe3d512ecc4cf759cc79239f7b179b0ffacaa9a75d522b39400f7f00000000000000000000000000000000000000000000000000000000000000007f000000000000000000000000000000000000000000000000000000000000000046306040516020016121b495949392919061328e565b60405160208183030381529060405280519060200120905090565b60008060007f7fffffffffffffffffffffffffffffff5d576e7357a4501ddfe92f46681b20a08460001c111561220f5760006003859250925092506122b9565b60006001888888886040516000815260200160405260405161223494939291906132e1565b6020604051602081039080840390855afa158015612256573d6000803e3d6000fd5b505050602060405103519050600073ffffffffffffffffffffffffffffffffffffffff168173ffffffffffffffffffffffffffffffffffffffff16036122aa57600060016000801b935093509350506122b9565b8060008060001b935093509350505b9450945094915050565b600060208201519050919050565b600060208201519050919050565b606060006122ec83612353565b90506000602067ffffffffffffffff81111561230b5761230a6127b1565b5b6040519080825280601f01601f19166020018201604052801561233d5781602001600182028036833780820191505090505b5090508181528360208201528092505050919050565b60008060ff8360001c169050601f81111561239a576040517fb3512b0c00000000000000000000000000000000000000000000000000000000815260040160405180910390fd5b80915050919050565b600081519050919050565b600082825260208201905092915050565b60005b838110156123dd5780820151818401526020810190506123c2565b60008484015250505050565b6000601f19601f8301169050919050565b6000612405826123a3565b61240f81856123ae565b935061241f8185602086016123bf565b612428816123e9565b840191505092915050565b6000602082019050818103600083015261244d81846123fa565b905092915050565b6000604051905090565b600080fd5b600080fd5b600073ffffffffffffffffffffffffffffffffffffffff82169050919050565b600061249482612469565b9050919050565b6124a481612489565b81146124af57600080fd5b50565b6000813590506124c18161249b565b92915050565b6000819050919050565b6124da816124c7565b81146124e557600080fd5b50565b6000813590506124f7816124d1565b92915050565b600080604083850312156125145761251361245f565b5b6000612522858286016124b2565b9250506020612533858286016124e8565b9150509250929050565b60008115159050919050565b6125528161253d565b82525050565b600060208201905061256d6000830184612549565b92915050565b61257c816124c7565b82525050565b60006020820190506125976000830184612573565b92915050565b6000806000606084860312156125b6576125b561245f565b5b60006125c4868287016124b2565b93505060206125d5868287016124b2565b92505060406125e6868287016124e8565b9150509250925092565b600060ff82169050919050565b612606816125f0565b82525050565b600060208201905061262160008301846125fd565b92915050565b6000819050919050565b61263a81612627565b82525050565b60006020820190506126556000830184612631565b92915050565b600080fd5b6000602082840312156126765761267561265b565b5b81905092915050565b600080604083850312156126965761269561245f565b5b60006126a4858286016124b2565b925050602083013567ffffffffffffffff8111156126c5576126c4612464565b5b6126d185828601612660565b9150509250929050565b6000819050919050565b60006127006126fb6126f6846124c7565b6126db565b6124c7565b9050919050565b612710816126e5565b82525050565b600060208201905061272b6000830184612707565b92915050565b6000604082840312156127475761274661265b565b5b81905092915050565b600080604083850312156127675761276661245f565b5b6000612775858286016124b2565b925050602083013567ffffffffffffffff81111561279657612795612464565b5b6127a285828601612731565b9150509250929050565b600080fd5b7f4e487b7100000000000000000000000000000000000000000000000000000000600052604160045260246000fd5b6127e9826123e9565b810181811067ffffffffffffffff82111715612808576128076127b1565b5b80604052505050565b600061281b612455565b905061282782826127e0565b919050565b600080fd5b61283a81612627565b811461284557600080fd5b50565b60008135905061285781612831565b92915050565b600080fd5b600080fd5b600067ffffffffffffffff821115612882576128816127b1565b5b61288b826123e9565b9050602081019050919050565b82818337600083830152505050565b60006128ba6128b584612867565b612811565b9050828152602081018484840111156128d6576128d5612862565b5b6128e1848285612898565b509392505050565b600082601f8301126128fe576128fd61285d565b5b813561290e8482602086016128a7565b91505092915050565b60006040828403121561292d5761292c6127ac565b5b6129376040612811565b9050600061294784828501612848565b600083015250602082013567ffffffffffffffff81111561296b5761296a61282c565b5b612977848285016128e9565b60208301525092915050565b6000806040838503121561299a5761299961245f565b5b60006129a8858286016124b2565b925050602083013567ffffffffffffffff8111156129c9576129c8612464565b5b6129d585828601612917565b9150509250929050565b600063ffffffff82169050919050565b6129f8816129df565b8114612a0357600080fd5b50565b600081359050612a15816129ef565b92915050565b600060208284031215612a3157612a3061245f565b5b6000612a3f84828501612a06565b91505092915050565b600060208284031215612a5e57612a5d61245f565b5b6000612a6c848285016124b2565b91505092915050565b60007fff0000000000000000000000000000000000000000000000000000000000000082169050919050565b612aaa81612a75565b82525050565b612ab981612489565b82525050565b600081519050919050565b600082825260208201905092915050565b6000819050602082019050919050565b612af4816124c7565b82525050565b6000612b068383612aeb565b60208301905092915050565b6000602082019050919050565b6000612b2a82612abf565b612b348185612aca565b9350612b3f83612adb565b8060005b83811015612b70578151612b578882612afa565b9750612b6283612b12565b925050600181019050612b43565b5085935050505092915050565b600060e082019050612b92600083018a612aa1565b8181036020830152612ba481896123fa565b90508181036040830152612bb881886123fa565b9050612bc76060830187612573565b612bd46080830186612ab0565b612be160a0830185612631565b81810360c0830152612bf38184612b1f565b905098975050505050505050565b600080600060608486031215612c1a57612c1961245f565b5b6000612c28868287016124b2565b9350506020612c39868287016124b2565b925050604084013567ffffffffffffffff811115612c5a57612c59612464565b5b612c6686828701612660565b9150509250925092565b612c79816124c7565b8114612c8457600080fd5b50565b600081359050612c9681612c70565b92915050565b600080600060608486031215612cb557612cb461245f565b5b6000612cc3868287016124b2565b9350506020612cd4868287016124b2565b9250506040612ce586828701612c87565b9150509250925092565b60008060408385031215612d0657612d0561245f565b5b6000612d14858286016124b2565b9250506020612d2585828601612c87565b9150509250929050565b612d38816125f0565b8114612d4357600080fd5b50565b600081359050612d5581612d2f565b92915050565b600080600080600080600060e0888a031215612d7a57612d7961245f565b5b6000612d888a828b016124b2565b9750506020612d998a828b016124b2565b9650506040612daa8a828b016124e8565b9550506060612dbb8a828b016124e8565b9450506080612dcc8a828b01612d46565b93505060a0612ddd8a828b01612848565b92505060c0612dee8a828b01612848565b91505092959891949750929550565b60008060408385031215612e1457612e1361245f565b5b6000612e22858286016124b2565b9250506020612e33858286016124b2565b9150509250929050565b7f4e487b7100000000000000000000000000000000000000000000000000000000600052602260045260246000fd5b60006002820490506001821680612e8457607f821691505b602082108103612e9757612e96612e3d565b5b50919050565b600060208284031215612eb357612eb26127ac565b5b612ebd6020612811565b9050600082013567ffffffffffffffff811115612edd57612edc61282c565b5b612ee9848285016128e9565b60008301525092915050565b6000612f013683612e9d565b9050919050565b6000612f143683612917565b9050919050565b6000604082019050612f306000830185612631565b612f3d6020830184612631565b9392505050565b600081519050919050565b600082825260208201905092915050565b6000612f6b82612f44565b612f758185612f4f565b9350612f858185602086016123bf565b612f8e816123e9565b840191505092915050565b6000604082019050612fae60008301856125fd565b8181036020830152612fc08184612f60565b90509392505050565b600081519050612fd8816124d1565b92915050565b600060208284031215612ff457612ff361245f565b5b600061300284828501612fc9565b91505092915050565b7f4e487b7100000000000000000000000000000000000000000000000000000000600052602160045260246000fd5b6000819050919050565b61305561305082612627565b61303a565b82525050565b60006130678284613044565b60208201915081905092915050565b600060608201905061308b60008301866125fd565b818103602083015261309d8185612f60565b905081810360408301526130b18184612f60565b9050949350505050565b600067ffffffffffffffff8211156130d6576130d56127b1565b5b6130df826123e9565b9050602081019050919050565b60006130ff6130fa846130bb565b612811565b90508281526020810184848401111561311b5761311a612862565b5b6131268482856123bf565b509392505050565b600082601f8301126131435761314261285d565b5b81516131538482602086016130ec565b91505092915050565b6000602082840312156131725761317161245f565b5b600082015167ffffffffffffffff8111156131905761318f612464565b5b61319c8482850161312e565b91505092915050565b600060408201905081810360008301526131bf8185612f60565b90506131ce60208301846125fd565b9392505050565b60006131e86131e384612867565b612811565b90508281526020810184848401111561320457613203612862565b5b61320f8482856123bf565b509392505050565b600082601f83011261322c5761322b61285d565b5b815161323c8482602086016131d5565b91505092915050565b60006020828403121561325b5761325a61245f565b5b600082015167ffffffffffffffff81111561327957613278612464565b5b61328584828501613217565b91505092915050565b600060a0820190506132a36000830188612631565b6132b06020830187612631565b6132bd6040830186612631565b6132ca6060830185612573565b6132d76080830184612ab0565b9695505050505050565b60006080820190506132f66000830187612631565b61330360208301866125fd565b6133106040830185612631565b61331d6060830184612631565b9594505050505056fea264697066735822122058197cac2b77cb9bd316ff9903122d58cec9c086f803140087396e89c46f21c964736f6c63430008180033",
  "devdoc": {
    "errors": {
      "AllowanceOverflow()": [
        {
          "details": "The allowance has overflowed."
        }
      ],
      "AllowanceUnderflow()": [
        {
          "details": "The allowance has underflowed."
        }
      ],
      "ECDSAInvalidSignature()": [
        {
          "details": "The signature derives the `address(0)`."
        }
      ],
      "ECDSAInvalidSignatureLength(uint256)": [
        {
          "details": "The signature has an invalid length."
        }
      ],
      "ECDSAInvalidSignatureS(bytes32)": [
        {
          "details": "The signature has an S value that is in the upper half order."
        }
      ],
      "InsufficientAllowance()": [
        {
          "details": "Insufficient allowance."
        }
      ],
      "InsufficientBalance()": [
        {
          "details": "Insufficient balance."
        }
      ],
      "InvalidPermit()": [
        {
          "details": "The permit is invalid."
        }
      ],
      "PermitExpired()": [
        {
          "details": "The permit has expired."
        }
      ],
      "TotalSupplyOverflow()": [
        {
          "details": "The total supply has overflowed."
        }
      ]
    },
    "events": {
      "Approval(address,address,uint256)": {
        "details": "Emitted when `amount` tokens is approved by `owner` to be used by `spender`."
      },
      "ApprovalEncrypted(address,address)": {
        "details": "Emitted when the allowance of a `spender` for an `owner` is set by a call to {approveEncrypted}. `value` is the new allowance."
      },
      "EIP712DomainChanged()": {
        "details": "MAY be emitted to signal that the domain could have changed."
      },
      "Transfer(address,address,uint256)": {
        "details": "Emitted when `amount` tokens is transferred from `from` to `to`."
      },
      "TransferEncrypted(address,address)": {
        "details": "Emitted when `value` tokens are moved from one account (`from`) to another (`to`). Note that `value` may be zero."
      }
    },
    "kind": "dev",
    "methods": {
      "DOMAIN_SEPARATOR()": {
        "details": "Returns the EIP-712 domain separator for the EIP-2612 permit."
      },
      "allowance(address,address)": {
        "details": "Returns the amount of tokens that `spender` can spend on behalf of `owner`."
      },
      "allowanceEncrypted(address,(bytes32,bytes))": {
        "details": "Returns the remaining number of tokens that `spender` will be allowed to spend on behalf of `owner` through {transferFrom}. This is zero by default. This value changes when {approve} or {transferFrom} are called."
      },
      "approve(address,uint256)": {
        "details": "Sets `amount` as the allowance of `spender` over the caller's tokens. Emits a {Approval} event."
      },
      "approveEncrypted(address,(bytes))": {
        "details": "Sets a `value` amount of tokens as the allowance of `spender` over the caller's tokens. Returns a boolean value indicating whether the operation succeeded. IMPORTANT: Beware that changing an allowance with this method brings the risk that someone may use both the old and the new allowance by unfortunate transaction ordering. One possible solution to mitigate this race condition is to first reduce the spender's allowance to 0 and set the desired value afterwards: https://github.com/ethereum/EIPs/issues/20#issuecomment-263524729 Emits an {ApprovalEncrypted} event."
      },
      "balanceOf(address)": {
        "details": "Returns the amount of tokens owned by `owner`."
      },
      "balanceOfEncrypted(address,(bytes32,bytes))": {
        "details": "Returns the value of tokens owned by `account`, sealed and encrypted for the caller."
      },
      "decimals()": {
        "details": "Returns the decimals places of the token."
      },
      "eip712Domain()": {
        "details": "See {IERC-5267}."
      },
      "name()": {
        "details": "Returns the name of the token."
      },
      "nonces(address)": {
        "details": "Returns the current nonce for `owner`. This value is used to compute the signature for EIP-2612 permit."
      },
      "permit(address,address,uint256,uint256,uint8,bytes32,bytes32)": {
        "details": "Sets `value` as the allowance of `spender` over the tokens of `owner`, authorized by a signed approval by `owner`. Emits a {Approval} event."
      },
      "symbol()": {
        "details": "Returns the symbol of the token."
      },
      "totalSupply()": {
        "details": "Returns the amount of tokens in existence."
      },
      "transfer(address,uint256)": {
        "details": "Transfer `amount` tokens from the caller to `to`. Requirements: - `from` must at least have `amount`. Emits a {Transfer} event."
      },
      "transferFrom(address,address,uint256)": {
        "details": "Transfers `amount` tokens from `from` to `to`. Note: Does not update the allowance if it is the maximum uint256 value. Requirements: - `from` must at least have `amount`. - The caller must have at least `amount` of allowance to transfer the tokens of `from`. Emits a {Transfer} event."
      },
      "transferFromEncrypted(address,address,(bytes))": {
        "details": "Moves a `value` amount of tokens from `from` to `to` using the allowance mechanism. `value` is then deducted from the caller's allowance. Returns a boolean value indicating whether the operation succeeded. Emits a {TransferEncrypted} event."
      }
    },
    "version": 1
  },
  "userdoc": {
    "errors": {
      "SignerNotMessageSender()": [
        {
          "notice": "Emitted when the signer is not the message sender"
        }
      ],
      "SignerNotOwner()": [
        {
          "notice": "Emitted when the signer is not the specified owner"
        }
      ]
    },
    "kind": "user",
    "methods": {},
    "version": 1
  },
  "storageLayout": {
    "storage": [
      {
        "astId": 16568,
        "contract": "contracts/tokens/FakeUSD.sol:FakeUSD",
        "label": "_nameFallback",
        "offset": 0,
        "slot": "0",
        "type": "t_string_storage"
      },
      {
        "astId": 16570,
        "contract": "contracts/tokens/FakeUSD.sol:FakeUSD",
        "label": "_versionFallback",
        "offset": 0,
        "slot": "1",
        "type": "t_string_storage"
      },
      {
        "astId": 18126,
        "contract": "contracts/tokens/FakeUSD.sol:FakeUSD",
        "label": "_encTotalSupply",
        "offset": 0,
        "slot": "2",
        "type": "t_userDefinedValueType(euint32)12"
      },
      {
        "astId": 18131,
        "contract": "contracts/tokens/FakeUSD.sol:FakeUSD",
        "label": "_encBalanceOf",
        "offset": 0,
        "slot": "3",
        "type": "t_mapping(t_address,t_userDefinedValueType(euint32)12)"
      },
      {
        "astId": 18138,
        "contract": "contracts/tokens/FakeUSD.sol:FakeUSD",
        "label": "_encAllowance",
        "offset": 0,
        "slot": "4",
        "type": "t_mapping(t_address,t_mapping(t_address,t_userDefinedValueType(euint32)12))"
      },
      {
        "astId": 18140,
        "contract": "contracts/tokens/FakeUSD.sol:FakeUSD",
        "label": "_name",
        "offset": 0,
        "slot": "5",
        "type": "t_string_storage"
      },
      {
        "astId": 18142,
        "contract": "contracts/tokens/FakeUSD.sol:FakeUSD",
        "label": "_symbol",
        "offset": 0,
        "slot": "6",
        "type": "t_string_storage"
      }
    ],
    "types": {
      "t_address": {
        "encoding": "inplace",
        "label": "address",
        "numberOfBytes": "20"
      },
      "t_mapping(t_address,t_mapping(t_address,t_userDefinedValueType(euint32)12))": {
        "encoding": "mapping",
        "key": "t_address",
        "label": "mapping(address => mapping(address => euint32))",
        "numberOfBytes": "32",
        "value": "t_mapping(t_address,t_userDefinedValueType(euint32)12)"
      },
      "t_mapping(t_address,t_userDefinedValueType(euint32)12)": {
        "encoding": "mapping",
        "key": "t_address",
        "label": "mapping(address => euint32)",
        "numberOfBytes": "32",
        "value": "t_userDefinedValueType(euint32)12"
      },
      "t_string_storage": {
        "encoding": "bytes",
        "label": "string",
        "numberOfBytes": "32"
      },
      "t_userDefinedValueType(euint32)12": {
        "encoding": "inplace",
        "label": "euint32",
        "numberOfBytes": "32"
      }
    }
  }
}