{
  "address": "0xC4ebf83679793c54493232DfbeDD80677B52F212",
  "abi": [
    {
      "inputs": [
        {
          "components": [
            {
              "internalType": "bytes",
              "name": "data",
              "type": "bytes"
            }
          ],
          "internalType": "struct inEuint32",
          "name": "_initialSupply",
          "type": "tuple"
        }
      ],
      "stateMutability": "nonpayable",
      "type": "constructor"
    },
    {
      "inputs": [],
      "name": "AllowanceOverflow",
      "type": "error"
    },
    {
      "inputs": [],
      "name": "AllowanceUnderflow",
      "type": "error"
    },
    {
      "inputs": [],
      "name": "ECDSAInvalidSignature",
      "type": "error"
    },
    {
      "inputs": [
        {
          "internalType": "uint256",
          "name": "length",
          "type": "uint256"
        }
      ],
      "name": "ECDSAInvalidSignatureLength",
      "type": "error"
    },
    {
      "inputs": [
        {
          "internalType": "bytes32",
          "name": "s",
          "type": "bytes32"
        }
      ],
      "name": "ECDSAInvalidSignatureS",
      "type": "error"
    },
    {
      "inputs": [],
      "name": "ErrorInsufficientFunds",
      "type": "error"
    },
    {
      "inputs": [],
      "name": "InsufficientAllowance",
      "type": "error"
    },
    {
      "inputs": [],
      "name": "InsufficientBalance",
      "type": "error"
    },
    {
      "inputs": [],
      "name": "InvalidPermit",
      "type": "error"
    },
    {
      "inputs": [],
      "name": "InvalidShortString",
      "type": "error"
    },
    {
      "inputs": [],
      "name": "PermitExpired",
      "type": "error"
    },
    {
      "inputs": [],
      "name": "SignerNotMessageSender",
      "type": "error"
    },
    {
      "inputs": [],
      "name": "SignerNotOwner",
      "type": "error"
    },
    {
      "inputs": [
        {
          "internalType": "string",
          "name": "str",
          "type": "string"
        }
      ],
      "name": "StringTooLong",
      "type": "error"
    },
    {
      "inputs": [],
      "name": "TotalSupplyOverflow",
      "type": "error"
    },
    {
      "anonymous": false,
      "inputs": [
        {
          "indexed": true,
          "internalType": "address",
          "name": "owner",
          "type": "address"
        },
        {
          "indexed": true,
          "internalType": "address",
          "name": "spender",
          "type": "address"
        },
        {
          "indexed": false,
          "internalType": "uint256",
          "name": "amount",
          "type": "uint256"
        }
      ],
      "name": "Approval",
      "type": "event"
    },
    {
      "anonymous": false,
      "inputs": [
        {
          "indexed": true,
          "internalType": "address",
          "name": "owner",
          "type": "address"
        },
        {
          "indexed": true,
          "internalType": "address",
          "name": "spender",
          "type": "address"
        }
      ],
      "name": "ApprovalEncrypted",
      "type": "event"
    },
    {
      "anonymous": false,
      "inputs": [],
      "name": "EIP712DomainChanged",
      "type": "event"
    },
    {
      "anonymous": false,
      "inputs": [
        {
          "indexed": true,
          "internalType": "address",
          "name": "from",
          "type": "address"
        },
        {
          "indexed": true,
          "internalType": "address",
          "name": "to",
          "type": "address"
        },
        {
          "indexed": false,
          "internalType": "uint256",
          "name": "amount",
          "type": "uint256"
        }
      ],
      "name": "Transfer",
      "type": "event"
    },
    {
      "anonymous": false,
      "inputs": [
        {
          "indexed": true,
          "internalType": "address",
          "name": "from",
          "type": "address"
        },
        {
          "indexed": true,
          "internalType": "address",
          "name": "to",
          "type": "address"
        }
      ],
      "name": "TransferEncrypted",
      "type": "event"
    },
    {
      "inputs": [],
      "name": "DOMAIN_SEPARATOR",
      "outputs": [
        {
          "internalType": "bytes32",
          "name": "result",
          "type": "bytes32"
        }
      ],
      "stateMutability": "view",
      "type": "function"
    },
    {
      "inputs": [
        {
          "internalType": "address",
          "name": "owner",
          "type": "address"
        },
        {
          "internalType": "address",
          "name": "spender",
          "type": "address"
        }
      ],
      "name": "allowance",
      "outputs": [
        {
          "internalType": "uint256",
          "name": "result",
          "type": "uint256"
        }
      ],
      "stateMutability": "view",
      "type": "function"
    },
    {
      "inputs": [
        {
          "internalType": "address",
          "name": "spender",
          "type": "address"
        },
        {
          "components": [
            {
              "internalType": "bytes32",
              "name": "publicKey",
              "type": "bytes32"
            },
            {
              "internalType": "bytes",
              "name": "signature",
              "type": "bytes"
            }
          ],
          "internalType": "struct Permission",
          "name": "permission",
          "type": "tuple"
        }
      ],
      "name": "allowanceEncrypted",
      "outputs": [
        {
          "internalType": "string",
          "name": "",
          "type": "string"
        }
      ],
      "stateMutability": "view",
      "type": "function"
    },
    {
      "inputs": [
        {
          "internalType": "address",
          "name": "spender",
          "type": "address"
        },
        {
          "internalType": "uint256",
          "name": "amount",
          "type": "uint256"
        }
      ],
      "name": "approve",
      "outputs": [
        {
          "internalType": "bool",
          "name": "",
          "type": "bool"
        }
      ],
      "stateMutability": "nonpayable",
      "type": "function"
    },
    {
      "inputs": [
        {
          "internalType": "address",
          "name": "spender",
          "type": "address"
        },
        {
          "components": [
            {
              "internalType": "bytes",
              "name": "data",
              "type": "bytes"
            }
          ],
          "internalType": "struct inEuint32",
          "name": "value",
          "type": "tuple"
        }
      ],
      "name": "approveEncrypted",
      "outputs": [
        {
          "internalType": "bool",
          "name": "",
          "type": "bool"
        }
      ],
      "stateMutability": "nonpayable",
      "type": "function"
    },
    {
      "inputs": [
        {
          "internalType": "address",
          "name": "owner",
          "type": "address"
        }
      ],
      "name": "balanceOf",
      "outputs": [
        {
          "internalType": "uint256",
          "name": "result",
          "type": "uint256"
        }
      ],
      "stateMutability": "view",
      "type": "function"
    },
    {
      "inputs": [
        {
          "internalType": "address",
          "name": "account",
          "type": "address"
        },
        {
          "components": [
            {
              "internalType": "bytes32",
              "name": "publicKey",
              "type": "bytes32"
            },
            {
              "internalType": "bytes",
              "name": "signature",
              "type": "bytes"
            }
          ],
          "internalType": "struct Permission",
          "name": "auth",
          "type": "tuple"
        }
      ],
      "name": "balanceOfEncrypted",
      "outputs": [
        {
          "internalType": "string",
          "name": "",
          "type": "string"
        }
      ],
      "stateMutability": "view",
      "type": "function"
    },
    {
      "inputs": [],
      "name": "decimals",
      "outputs": [
        {
          "internalType": "uint8",
          "name": "",
          "type": "uint8"
        }
      ],
      "stateMutability": "pure",
      "type": "function"
    },
    {
      "inputs": [],
      "name": "eip712Domain",
      "outputs": [
        {
          "internalType": "bytes1",
          "name": "fields",
          "type": "bytes1"
        },
        {
          "internalType": "string",
          "name": "name",
          "type": "string"
        },
        {
          "internalType": "string",
          "name": "version",
          "type": "string"
        },
        {
          "internalType": "uint256",
          "name": "chainId",
          "type": "uint256"
        },
        {
          "internalType": "address",
          "name": "verifyingContract",
          "type": "address"
        },
        {
          "internalType": "bytes32",
          "name": "salt",
          "type": "bytes32"
        },
        {
          "internalType": "uint256[]",
          "name": "extensions",
          "type": "uint256[]"
        }
      ],
      "stateMutability": "view",
      "type": "function"
    },
    {
      "inputs": [],
      "name": "name",
      "outputs": [
        {
          "internalType": "string",
          "name": "",
          "type": "string"
        }
      ],
      "stateMutability": "view",
      "type": "function"
    },
    {
      "inputs": [
        {
          "internalType": "address",
          "name": "owner",
          "type": "address"
        }
      ],
      "name": "nonces",
      "outputs": [
        {
          "internalType": "uint256",
          "name": "result",
          "type": "uint256"
        }
      ],
      "stateMutability": "view",
      "type": "function"
    },
    {
      "inputs": [
        {
          "internalType": "address",
          "name": "owner",
          "type": "address"
        },
        {
          "internalType": "address",
          "name": "spender",
          "type": "address"
        },
        {
          "internalType": "uint256",
          "name": "value",
          "type": "uint256"
        },
        {
          "internalType": "uint256",
          "name": "deadline",
          "type": "uint256"
        },
        {
          "internalType": "uint8",
          "name": "v",
          "type": "uint8"
        },
        {
          "internalType": "bytes32",
          "name": "r",
          "type": "bytes32"
        },
        {
          "internalType": "bytes32",
          "name": "s",
          "type": "bytes32"
        }
      ],
      "name": "permit",
      "outputs": [],
      "stateMutability": "nonpayable",
      "type": "function"
    },
    {
      "inputs": [],
      "name": "symbol",
      "outputs": [
        {
          "internalType": "string",
          "name": "",
          "type": "string"
        }
      ],
      "stateMutability": "view",
      "type": "function"
    },
    {
      "inputs": [],
      "name": "totalSupply",
      "outputs": [
        {
          "internalType": "uint256",
          "name": "result",
          "type": "uint256"
        }
      ],
      "stateMutability": "view",
      "type": "function"
    },
    {
      "inputs": [
        {
          "internalType": "address",
          "name": "to",
          "type": "address"
        },
        {
          "internalType": "uint256",
          "name": "amount",
          "type": "uint256"
        }
      ],
      "name": "transfer",
      "outputs": [
        {
          "internalType": "bool",
          "name": "",
          "type": "bool"
        }
      ],
      "stateMutability": "nonpayable",
      "type": "function"
    },
    {
      "inputs": [
        {
          "internalType": "address",
          "name": "to",
          "type": "address"
        },
        {
          "components": [
            {
              "internalType": "bytes",
              "name": "data",
              "type": "bytes"
            }
          ],
          "internalType": "struct inEuint32",
          "name": "encryptedAmount",
          "type": "tuple"
        }
      ],
      "name": "transferEncrypted",
      "outputs": [
        {
          "internalType": "euint32",
          "name": "",
          "type": "uint256"
        }
      ],
      "stateMutability": "nonpayable",
      "type": "function"
    },
    {
      "inputs": [
        {
          "internalType": "address",
          "name": "to",
          "type": "address"
        },
        {
          "internalType": "euint32",
          "name": "amount",
          "type": "uint256"
        }
      ],
      "name": "transferEncrypted",
      "outputs": [
        {
          "internalType": "euint32",
          "name": "",
          "type": "uint256"
        }
      ],
      "stateMutability": "nonpayable",
      "type": "function"
    },
    {
      "inputs": [
        {
          "internalType": "address",
          "name": "from",
          "type": "address"
        },
        {
          "internalType": "address",
          "name": "to",
          "type": "address"
        },
        {
          "internalType": "uint256",
          "name": "amount",
          "type": "uint256"
        }
      ],
      "name": "transferFrom",
      "outputs": [
        {
          "internalType": "bool",
          "name": "",
          "type": "bool"
        }
      ],
      "stateMutability": "nonpayable",
      "type": "function"
    },
    {
      "inputs": [
        {
          "internalType": "address",
          "name": "from",
          "type": "address"
        },
        {
          "internalType": "address",
          "name": "to",
          "type": "address"
        },
        {
          "components": [
            {
              "internalType": "bytes",
              "name": "data",
              "type": "bytes"
            }
          ],
          "internalType": "struct inEuint32",
          "name": "value",
          "type": "tuple"
        }
      ],
      "name": "transferFromEncrypted",
      "outputs": [
        {
          "internalType": "euint32",
          "name": "",
          "type": "uint256"
        }
      ],
      "stateMutability": "nonpayable",
      "type": "function"
    },
    {
      "inputs": [
        {
          "internalType": "address",
          "name": "from",
          "type": "address"
        },
        {
          "internalType": "address",
          "name": "to",
          "type": "address"
        },
        {
          "internalType": "euint32",
          "name": "value",
          "type": "uint256"
        }
      ],
      "name": "transferFromEncrypted",
      "outputs": [
        {
          "internalType": "euint32",
          "name": "",
          "type": "uint256"
        }
      ],
      "stateMutability": "nonpayable",
      "type": "function"
    },
    {
      "inputs": [
        {
          "internalType": "uint32",
          "name": "amount",
          "type": "uint32"
        }
      ],
      "name": "unwrap",
      "outputs": [],
      "stateMutability": "nonpayable",
      "type": "function"
    },
    {
      "inputs": [
        {
          "internalType": "uint32",
          "name": "amount",
          "type": "uint32"
        }
      ],
      "name": "wrap",
      "outputs": [],
      "stateMutability": "nonpayable",
      "type": "function"
    }
  ],
  "transactionHash": "0xadb687328710e02873b9aff96cce73486e28c3f04124bff449419cfea045dafb",
  "args": [
    {
      "data": {
        "0": 16,
        "1": 8,
        "2": 0,
        "3": 0,
        "4": 0,
        "5": 0,
        "6": 0,
        "7": 0,
        "8": 10,
        "9": 53,
        "10": 7,
        "11": 18,
        "12": 114,
        "13": 199,
        "14": 120,
        "15": 236,
        "16": 244,
        "17": 164,
        "18": 144,
        "19": 91,
        "20": 149,
        "21": 19,
        "22": 122,
        "23": 91,
        "24": 100,
        "25": 36,
        "26": 85,
        "27": 55,
        "28": 14,
        "29": 249,
        "30": 15,
        "31": 192,
        "32": 15,
        "33": 32,
        "34": 188,
        "35": 173,
        "36": 236,
        "37": 65,
        "38": 33,
        "39": 159,
        "40": 227,
        "41": 1,
        "42": 62,
        "43": 52,
        "44": 181,
        "45": 80,
        "46": 74,
        "47": 53,
        "48": 203,
        "49": 79,
        "50": 161,
        "51": 227,
        "52": 254,
        "53": 206,
        "54": 43,
        "55": 67,
        "56": 50,
        "57": 155,
        "58": 48,
        "59": 23,
        "60": 160,
        "61": 78,
        "62": 242,
        "63": 116,
        "64": 221,
        "65": 10,
        "66": 107,
        "67": 137,
        "68": 124,
        "69": 61,
        "70": 113,
        "71": 169,
        "72": 78,
        "73": 70,
        "74": 155,
        "75": 76,
        "76": 68,
        "77": 56,
        "78": 101,
        "79": 234,
        "80": 0,
        "81": 30,
        "82": 116,
        "83": 239,
        "84": 239,
        "85": 178,
        "86": 246,
        "87": 165,
        "88": 114,
        "89": 219,
        "90": 182,
        "91": 170,
        "92": 73,
        "93": 146,
        "94": 7,
        "95": 245,
        "96": 76,
        "97": 32,
        "98": 240,
        "99": 110,
        "100": 81,
        "101": 93,
        "102": 80,
        "103": 124,
        "104": 240,
        "105": 145,
        "106": 132,
        "107": 147,
        "108": 141,
        "109": 202,
        "110": 218,
        "111": 4,
        "112": 223,
        "113": 168,
        "114": 55,
        "115": 241,
        "116": 184,
        "117": 182,
        "118": 26,
        "119": 206,
        "120": 86,
        "121": 219,
        "122": 165,
        "123": 55,
        "124": 203,
        "125": 74,
        "126": 228,
        "127": 9,
        "128": 209,
        "129": 85,
        "130": 180,
        "131": 219,
        "132": 255,
        "133": 29,
        "134": 242,
        "135": 66,
        "136": 36,
        "137": 170,
        "138": 91,
        "139": 48,
        "140": 16,
        "141": 122,
        "142": 187,
        "143": 147,
        "144": 74,
        "145": 237,
        "146": 122,
        "147": 82,
        "148": 19,
        "149": 60,
        "150": 211,
        "151": 239,
        "152": 68,
        "153": 154,
        "154": 84,
        "155": 143,
        "156": 137,
        "157": 34,
        "158": 114,
        "159": 27,
        "160": 17,
        "161": 78,
        "162": 130,
        "163": 143,
        "164": 99,
        "165": 213,
        "166": 222,
        "167": 33,
        "168": 131,
        "169": 168,
        "170": 141,
        "171": 229,
        "172": 190,
        "173": 77,
        "174": 239,
        "175": 28,
        "176": 109,
        "177": 22,
        "178": 97,
        "179": 206,
        "180": 224,
        "181": 53,
        "182": 64,
        "183": 141,
        "184": 14,
        "185": 119,
        "186": 174,
        "187": 248,
        "188": 120,
        "189": 151,
        "190": 161,
        "191": 246,
        "192": 201,
        "193": 196,
        "194": 133,
        "195": 3,
        "196": 207,
        "197": 219,
        "198": 151,
        "199": 72,
        "200": 79,
        "201": 152,
        "202": 248,
        "203": 44,
        "204": 146,
        "205": 68,
        "206": 50,
        "207": 116,
        "208": 105,
        "209": 48,
        "210": 140,
        "211": 136,
        "212": 52,
        "213": 238,
        "214": 155,
        "215": 115,
        "216": 56,
        "217": 108,
        "218": 202,
        "219": 113,
        "220": 15,
        "221": 53,
        "222": 119,
        "223": 219,
        "224": 200,
        "225": 64,
        "226": 241,
        "227": 51,
        "228": 239,
        "229": 157,
        "230": 107,
        "231": 26,
        "232": 169,
        "233": 109,
        "234": 168,
        "235": 151,
        "236": 232,
        "237": 48,
        "238": 174,
        "239": 245,
        "240": 237,
        "241": 199,
        "242": 1,
        "243": 26,
        "244": 87,
        "245": 180,
        "246": 123,
        "247": 21,
        "248": 169,
        "249": 157,
        "250": 183,
        "251": 37,
        "252": 24,
        "253": 190,
        "254": 66,
        "255": 101,
        "256": 119,
        "257": 190,
        "258": 204,
        "259": 90,
        "260": 50,
        "261": 177,
        "262": 43,
        "263": 174,
        "264": 44,
        "265": 20,
        "266": 5,
        "267": 12,
        "268": 175,
        "269": 144,
        "270": 224,
        "271": 203,
        "272": 96,
        "273": 222,
        "274": 147,
        "275": 118,
        "276": 157,
        "277": 95,
        "278": 87,
        "279": 227,
        "280": 215,
        "281": 182,
        "282": 88,
        "283": 19,
        "284": 157,
        "285": 67,
        "286": 110,
        "287": 26,
        "288": 223,
        "289": 108,
        "290": 176,
        "291": 164,
        "292": 115,
        "293": 63,
        "294": 101,
        "295": 12,
        "296": 224,
        "297": 31,
        "298": 69,
        "299": 113,
        "300": 168,
        "301": 242,
        "302": 180,
        "303": 32,
        "304": 230,
        "305": 165,
        "306": 34,
        "307": 31,
        "308": 46,
        "309": 224,
        "310": 201,
        "311": 4,
        "312": 178,
        "313": 22,
        "314": 49,
        "315": 118,
        "316": 170,
        "317": 174,
        "318": 201,
        "319": 68,
        "320": 75,
        "321": 233,
        "322": 199,
        "323": 22,
        "324": 186,
        "325": 139,
        "326": 10,
        "327": 201,
        "328": 125,
        "329": 98,
        "330": 243,
        "331": 231,
        "332": 51,
        "333": 169,
        "334": 22,
        "335": 119,
        "336": 199,
        "337": 139,
        "338": 209,
        "339": 210,
        "340": 168,
        "341": 188,
        "342": 155,
        "343": 189,
        "344": 177,
        "345": 210,
        "346": 190,
        "347": 15,
        "348": 167,
        "349": 90,
        "350": 212,
        "351": 154,
        "352": 141,
        "353": 201,
        "354": 62,
        "355": 59,
        "356": 231,
        "357": 84,
        "358": 0,
        "359": 93,
        "360": 22,
        "361": 121,
        "362": 150,
        "363": 211,
        "364": 181,
        "365": 84,
        "366": 53,
        "367": 84,
        "368": 163,
        "369": 234,
        "370": 38,
        "371": 32,
        "372": 72,
        "373": 243,
        "374": 153,
        "375": 17,
        "376": 103,
        "377": 49,
        "378": 13,
        "379": 40,
        "380": 181,
        "381": 190,
        "382": 244,
        "383": 188,
        "384": 129,
        "385": 58,
        "386": 174,
        "387": 37,
        "388": 183,
        "389": 242,
        "390": 138,
        "391": 192,
        "392": 69,
        "393": 30,
        "394": 152,
        "395": 131,
        "396": 245,
        "397": 51,
        "398": 80,
        "399": 14,
        "400": 114,
        "401": 193,
        "402": 163,
        "403": 140,
        "404": 123,
        "405": 124,
        "406": 108,
        "407": 160,
        "408": 21,
        "409": 57,
        "410": 67,
        "411": 112,
        "412": 125,
        "413": 84,
        "414": 40,
        "415": 181,
        "416": 241,
        "417": 118,
        "418": 60,
        "419": 12,
        "420": 1,
        "421": 231,
        "422": 160,
        "423": 19,
        "424": 135,
        "425": 126,
        "426": 249,
        "427": 194,
        "428": 159,
        "429": 162,
        "430": 119,
        "431": 49,
        "432": 153,
        "433": 164,
        "434": 244,
        "435": 29,
        "436": 196,
        "437": 31,
        "438": 111,
        "439": 56,
        "440": 19,
        "441": 208,
        "442": 104,
        "443": 204,
        "444": 166,
        "445": 199,
        "446": 80,
        "447": 75,
        "448": 188,
        "449": 129,
        "450": 178,
        "451": 43,
        "452": 95,
        "453": 171,
        "454": 179,
        "455": 20,
        "456": 168,
        "457": 39,
        "458": 223,
        "459": 252,
        "460": 142,
        "461": 45,
        "462": 160,
        "463": 212,
        "464": 219,
        "465": 100,
        "466": 233,
        "467": 87,
        "468": 28,
        "469": 198,
        "470": 47,
        "471": 107,
        "472": 54,
        "473": 51,
        "474": 91,
        "475": 176,
        "476": 54,
        "477": 33,
        "478": 122,
        "479": 30,
        "480": 201,
        "481": 248,
        "482": 109,
        "483": 168,
        "484": 15,
        "485": 235,
        "486": 5,
        "487": 158,
        "488": 245,
        "489": 136,
        "490": 248,
        "491": 67,
        "492": 212,
        "493": 152,
        "494": 140,
        "495": 154,
        "496": 238,
        "497": 118,
        "498": 164,
        "499": 148,
        "500": 126,
        "501": 114,
        "502": 186,
        "503": 3,
        "504": 27,
        "505": 186,
        "506": 1,
        "507": 106,
        "508": 246,
        "509": 237,
        "510": 55,
        "511": 34,
        "512": 173,
        "513": 245,
        "514": 27,
        "515": 50,
        "516": 86,
        "517": 31,
        "518": 241,
        "519": 15,
        "520": 156,
        "521": 28,
        "522": 142,
        "523": 59,
        "524": 109,
        "525": 77,
        "526": 81,
        "527": 16,
        "528": 47,
        "529": 143,
        "530": 247,
        "531": 40,
        "532": 110,
        "533": 201,
        "534": 107,
        "535": 93,
        "536": 158,
        "537": 144,
        "538": 87,
        "539": 113,
        "540": 169,
        "541": 27,
        "542": 199,
        "543": 34,
        "544": 118,
        "545": 246,
        "546": 30,
        "547": 99,
        "548": 239,
        "549": 161,
        "550": 15,
        "551": 100,
        "552": 51,
        "553": 92,
        "554": 131,
        "555": 151,
        "556": 81,
        "557": 224,
        "558": 56,
        "559": 71,
        "560": 156,
        "561": 220,
        "562": 155,
        "563": 187,
        "564": 212,
        "565": 116,
        "566": 6,
        "567": 203,
        "568": 76,
        "569": 252,
        "570": 158,
        "571": 32,
        "572": 166,
        "573": 7,
        "574": 59,
        "575": 47,
        "576": 5,
        "577": 236,
        "578": 31,
        "579": 187,
        "580": 177,
        "581": 140,
        "582": 60,
        "583": 85,
        "584": 6,
        "585": 77,
        "586": 14,
        "587": 163,
        "588": 207,
        "589": 215,
        "590": 44,
        "591": 252,
        "592": 33,
        "593": 122,
        "594": 159,
        "595": 0,
        "596": 14,
        "597": 107,
        "598": 65,
        "599": 153,
        "600": 73,
        "601": 10,
        "602": 60,
        "603": 152,
        "604": 170,
        "605": 205,
        "606": 47,
        "607": 136,
        "608": 155,
        "609": 192,
        "610": 38,
        "611": 49,
        "612": 229,
        "613": 144,
        "614": 26,
        "615": 12,
        "616": 31,
        "617": 115,
        "618": 51,
        "619": 60,
        "620": 146,
        "621": 42,
        "622": 36,
        "623": 11,
        "624": 162,
        "625": 200,
        "626": 219,
        "627": 79,
        "628": 62,
        "629": 42,
        "630": 150,
        "631": 179,
        "632": 188,
        "633": 242,
        "634": 91,
        "635": 148,
        "636": 192,
        "637": 238,
        "638": 8,
        "639": 148,
        "640": 98,
        "641": 177,
        "642": 197,
        "643": 158,
        "644": 248,
        "645": 175,
        "646": 86,
        "647": 213,
        "648": 49,
        "649": 59,
        "650": 144,
        "651": 145,
        "652": 164,
        "653": 150,
        "654": 92,
        "655": 194,
        "656": 209,
        "657": 122,
        "658": 77,
        "659": 177,
        "660": 43,
        "661": 142,
        "662": 126,
        "663": 203,
        "664": 45,
        "665": 159,
        "666": 66,
        "667": 192,
        "668": 36,
        "669": 120,
        "670": 15,
        "671": 48,
        "672": 219,
        "673": 80,
        "674": 104,
        "675": 166,
        "676": 179,
        "677": 119,
        "678": 138,
        "679": 21,
        "680": 130,
        "681": 99,
        "682": 201,
        "683": 213,
        "684": 57,
        "685": 8,
        "686": 62,
        "687": 3,
        "688": 135,
        "689": 73,
        "690": 197,
        "691": 148,
        "692": 201,
        "693": 11,
        "694": 154,
        "695": 142,
        "696": 188,
        "697": 62,
        "698": 18,
        "699": 166,
        "700": 243,
        "701": 40,
        "702": 134,
        "703": 163,
        "704": 69,
        "705": 103,
        "706": 56,
        "707": 90,
        "708": 253,
        "709": 238,
        "710": 148,
        "711": 185,
        "712": 183,
        "713": 219,
        "714": 81,
        "715": 185,
        "716": 153,
        "717": 128,
        "718": 77,
        "719": 134,
        "720": 213,
        "721": 56,
        "722": 91,
        "723": 104,
        "724": 152,
        "725": 170,
        "726": 249,
        "727": 112,
        "728": 37,
        "729": 185,
        "730": 163,
        "731": 212,
        "732": 221,
        "733": 212,
        "734": 44,
        "735": 106,
        "736": 27,
        "737": 162,
        "738": 125,
        "739": 46,
        "740": 84,
        "741": 5,
        "742": 198,
        "743": 39,
        "744": 122,
        "745": 222,
        "746": 147,
        "747": 242,
        "748": 92,
        "749": 63,
        "750": 185,
        "751": 37,
        "752": 83,
        "753": 255,
        "754": 165,
        "755": 120,
        "756": 175,
        "757": 67,
        "758": 11,
        "759": 20,
        "760": 241,
        "761": 135,
        "762": 15,
        "763": 10,
        "764": 170,
        "765": 57,
        "766": 193,
        "767": 102,
        "768": 104,
        "769": 88,
        "770": 162,
        "771": 64,
        "772": 65,
        "773": 2,
        "774": 35,
        "775": 150,
        "776": 101,
        "777": 155,
        "778": 131,
        "779": 255,
        "780": 152,
        "781": 86,
        "782": 39,
        "783": 243,
        "784": 235,
        "785": 209,
        "786": 185,
        "787": 176,
        "788": 151,
        "789": 161,
        "790": 215,
        "791": 151,
        "792": 253,
        "793": 156,
        "794": 12,
        "795": 116,
        "796": 21,
        "797": 86,
        "798": 146,
        "799": 194,
        "800": 60,
        "801": 84,
        "802": 186,
        "803": 60,
        "804": 248,
        "805": 232,
        "806": 3,
        "807": 234,
        "808": 95,
        "809": 25,
        "810": 106,
        "811": 9,
        "812": 243,
        "813": 135,
        "814": 30,
        "815": 193,
        "816": 81,
        "817": 205,
        "818": 159,
        "819": 250,
        "820": 223,
        "821": 163,
        "822": 36,
        "823": 23,
        "824": 82,
        "825": 8,
        "826": 81,
        "827": 199,
        "828": 151,
        "829": 21,
        "830": 235,
        "831": 193,
        "832": 216,
        "833": 40,
        "834": 32,
        "835": 47,
        "836": 197,
        "837": 138,
        "838": 191,
        "839": 210,
        "840": 21,
        "841": 176,
        "842": 229,
        "843": 235,
        "844": 168,
        "845": 194,
        "846": 48,
        "847": 48,
        "848": 18,
        "849": 44,
        "850": 85,
        "851": 30,
        "852": 175,
        "853": 236,
        "854": 74,
        "855": 103,
        "856": 39,
        "857": 26,
        "858": 27,
        "859": 146,
        "860": 163,
        "861": 224,
        "862": 117,
        "863": 24,
        "864": 122,
        "865": 80,
        "866": 153,
        "867": 102,
        "868": 198,
        "869": 232,
        "870": 180,
        "871": 55,
        "872": 19,
        "873": 202,
        "874": 26,
        "875": 51,
        "876": 232,
        "877": 153,
        "878": 22,
        "879": 30,
        "880": 3,
        "881": 51,
        "882": 63,
        "883": 187,
        "884": 73,
        "885": 92,
        "886": 6,
        "887": 228,
        "888": 18,
        "889": 249,
        "890": 7,
        "891": 95,
        "892": 196,
        "893": 200,
        "894": 203,
        "895": 145,
        "896": 110,
        "897": 103,
        "898": 86,
        "899": 123,
        "900": 62,
        "901": 200,
        "902": 84,
        "903": 85,
        "904": 127,
        "905": 232,
        "906": 109,
        "907": 65,
        "908": 13,
        "909": 36,
        "910": 147,
        "911": 149,
        "912": 236,
        "913": 197,
        "914": 174,
        "915": 26,
        "916": 163,
        "917": 234,
        "918": 213,
        "919": 207,
        "920": 17,
        "921": 13,
        "922": 163,
        "923": 28,
        "924": 70,
        "925": 177,
        "926": 208,
        "927": 220,
        "928": 15,
        "929": 199,
        "930": 57,
        "931": 212,
        "932": 79,
        "933": 65,
        "934": 105,
        "935": 2,
        "936": 25,
        "937": 166,
        "938": 175,
        "939": 108,
        "940": 89,
        "941": 222,
        "942": 61,
        "943": 95,
        "944": 202,
        "945": 67,
        "946": 129,
        "947": 146,
        "948": 10,
        "949": 79,
        "950": 54,
        "951": 106,
        "952": 184,
        "953": 48,
        "954": 161,
        "955": 60,
        "956": 171,
        "957": 69,
        "958": 7,
        "959": 74,
        "960": 175,
        "961": 87,
        "962": 94,
        "963": 16,
        "964": 153,
        "965": 90,
        "966": 11,
        "967": 56,
        "968": 155,
        "969": 93,
        "970": 114,
        "971": 115,
        "972": 18,
        "973": 62,
        "974": 51,
        "975": 174,
        "976": 167,
        "977": 189,
        "978": 15,
        "979": 0,
        "980": 38,
        "981": 94,
        "982": 88,
        "983": 181,
        "984": 81,
        "985": 89,
        "986": 15,
        "987": 230,
        "988": 246,
        "989": 144,
        "990": 225,
        "991": 122,
        "992": 175,
        "993": 44,
        "994": 51,
        "995": 242,
        "996": 76,
        "997": 61,
        "998": 241,
        "999": 30,
        "1000": 172,
        "1001": 7,
        "1002": 52,
        "1003": 144,
        "1004": 234,
        "1005": 153,
        "1006": 169,
        "1007": 111,
        "1008": 241,
        "1009": 175,
        "1010": 73,
        "1011": 55,
        "1012": 60,
        "1013": 0,
        "1014": 170,
        "1015": 209,
        "1016": 241,
        "1017": 109,
        "1018": 43,
        "1019": 41,
        "1020": 0,
        "1021": 55,
        "1022": 237,
        "1023": 210,
        "1024": 128,
        "1025": 140,
        "1026": 1,
        "1027": 162,
        "1028": 221,
        "1029": 124,
        "1030": 233,
        "1031": 103,
        "1032": 124,
        "1033": 6,
        "1034": 208,
        "1035": 208,
        "1036": 67,
        "1037": 194,
        "1038": 34,
        "1039": 108,
        "1040": 30,
        "1041": 178,
        "1042": 164,
        "1043": 42,
        "1044": 202,
        "1045": 117,
        "1046": 208,
        "1047": 52,
        "1048": 1,
        "1049": 7,
        "1050": 152,
        "1051": 199,
        "1052": 181,
        "1053": 164,
        "1054": 89,
        "1055": 136,
        "1056": 83,
        "1057": 18,
        "1058": 237,
        "1059": 110,
        "1060": 60,
        "1061": 205,
        "1062": 116,
        "1063": 200,
        "1064": 68,
        "1065": 209,
        "1066": 149,
        "1067": 105,
        "1068": 35,
        "1069": 154,
        "1070": 233,
        "1071": 168,
        "1072": 41,
        "1073": 233,
        "1074": 217,
        "1075": 153,
        "1076": 147,
        "1077": 34,
        "1078": 42,
        "1079": 151,
        "1080": 117,
        "1081": 172,
        "1082": 147,
        "1083": 68,
        "1084": 52,
        "1085": 125,
        "1086": 85,
        "1087": 229,
        "1088": 245,
        "1089": 56,
        "1090": 238,
        "1091": 7,
        "1092": 12,
        "1093": 225,
        "1094": 11,
        "1095": 91,
        "1096": 151,
        "1097": 67,
        "1098": 156,
        "1099": 164,
        "1100": 166,
        "1101": 133,
        "1102": 95,
        "1103": 144,
        "1104": 214,
        "1105": 197,
        "1106": 170,
        "1107": 236,
        "1108": 135,
        "1109": 25,
        "1110": 192,
        "1111": 135,
        "1112": 90,
        "1113": 212,
        "1114": 248,
        "1115": 193,
        "1116": 89,
        "1117": 90,
        "1118": 98,
        "1119": 56,
        "1120": 103,
        "1121": 198,
        "1122": 126,
        "1123": 138,
        "1124": 38,
        "1125": 6,
        "1126": 215,
        "1127": 60,
        "1128": 213,
        "1129": 123,
        "1130": 129,
        "1131": 83,
        "1132": 47,
        "1133": 48,
        "1134": 84,
        "1135": 22,
        "1136": 180,
        "1137": 91,
        "1138": 111,
        "1139": 27,
        "1140": 56,
        "1141": 136,
        "1142": 233,
        "1143": 233,
        "1144": 207,
        "1145": 31,
        "1146": 124,
        "1147": 50,
        "1148": 117,
        "1149": 173,
        "1150": 20,
        "1151": 163,
        "1152": 26,
        "1153": 73,
        "1154": 16,
        "1155": 181,
        "1156": 27,
        "1157": 30,
        "1158": 90,
        "1159": 13,
        "1160": 208,
        "1161": 252,
        "1162": 124,
        "1163": 34,
        "1164": 104,
        "1165": 51,
        "1166": 192,
        "1167": 209,
        "1168": 74,
        "1169": 82,
        "1170": 45,
        "1171": 155,
        "1172": 16,
        "1173": 152,
        "1174": 160,
        "1175": 36,
        "1176": 84,
        "1177": 161,
        "1178": 26,
        "1179": 213,
        "1180": 98,
        "1181": 213,
        "1182": 54,
        "1183": 59,
        "1184": 78,
        "1185": 57,
        "1186": 102,
        "1187": 8,
        "1188": 227,
        "1189": 89,
        "1190": 235,
        "1191": 95,
        "1192": 137,
        "1193": 208,
        "1194": 128,
        "1195": 244,
        "1196": 140,
        "1197": 116,
        "1198": 178,
        "1199": 248,
        "1200": 48,
        "1201": 86,
        "1202": 30,
        "1203": 47,
        "1204": 104,
        "1205": 186,
        "1206": 3,
        "1207": 8,
        "1208": 110,
        "1209": 237,
        "1210": 194,
        "1211": 90,
        "1212": 15,
        "1213": 108,
        "1214": 188,
        "1215": 67,
        "1216": 3,
        "1217": 82,
        "1218": 226,
        "1219": 51,
        "1220": 125,
        "1221": 70,
        "1222": 137,
        "1223": 158,
        "1224": 197,
        "1225": 89,
        "1226": 123,
        "1227": 191,
        "1228": 123,
        "1229": 156,
        "1230": 146,
        "1231": 30,
        "1232": 60,
        "1233": 253,
        "1234": 109,
        "1235": 233,
        "1236": 117,
        "1237": 177,
        "1238": 14,
        "1239": 143,
        "1240": 135,
        "1241": 7,
        "1242": 30,
        "1243": 195,
        "1244": 172,
        "1245": 165,
        "1246": 98,
        "1247": 254,
        "1248": 201,
        "1249": 54,
        "1250": 242,
        "1251": 67,
        "1252": 177,
        "1253": 10,
        "1254": 87,
        "1255": 254,
        "1256": 19,
        "1257": 186,
        "1258": 236,
        "1259": 87,
        "1260": 53,
        "1261": 230,
        "1262": 225,
        "1263": 212,
        "1264": 175,
        "1265": 100,
        "1266": 7,
        "1267": 212,
        "1268": 100,
        "1269": 222,
        "1270": 112,
        "1271": 67,
        "1272": 77,
        "1273": 34,
        "1274": 219,
        "1275": 166,
        "1276": 215,
        "1277": 159,
        "1278": 220,
        "1279": 96,
        "1280": 237,
        "1281": 245,
        "1282": 116,
        "1283": 79,
        "1284": 139,
        "1285": 64,
        "1286": 107,
        "1287": 207,
        "1288": 216,
        "1289": 100,
        "1290": 124,
        "1291": 192,
        "1292": 132,
        "1293": 89,
        "1294": 81,
        "1295": 8,
        "1296": 252,
        "1297": 222,
        "1298": 97,
        "1299": 126,
        "1300": 60,
        "1301": 5,
        "1302": 223,
        "1303": 141,
        "1304": 137,
        "1305": 225,
        "1306": 198,
        "1307": 148,
        "1308": 69,
        "1309": 191,
        "1310": 79,
        "1311": 69,
        "1312": 152,
        "1313": 129,
        "1314": 146,
        "1315": 43,
        "1316": 49,
        "1317": 235,
        "1318": 44,
        "1319": 76,
        "1320": 150,
        "1321": 119,
        "1322": 193,
        "1323": 192,
        "1324": 162,
        "1325": 227,
        "1326": 28,
        "1327": 126,
        "1328": 64,
        "1329": 177,
        "1330": 196,
        "1331": 143,
        "1332": 247,
        "1333": 123,
        "1334": 82,
        "1335": 163,
        "1336": 44,
        "1337": 162,
        "1338": 57,
        "1339": 124,
        "1340": 2,
        "1341": 131,
        "1342": 79,
        "1343": 247,
        "1344": 112,
        "1345": 88,
        "1346": 47,
        "1347": 231,
        "1348": 10,
        "1349": 17,
        "1350": 151,
        "1351": 83,
        "1352": 209,
        "1353": 171,
        "1354": 178,
        "1355": 36,
        "1356": 100,
        "1357": 218,
        "1358": 162,
        "1359": 208,
        "1360": 4,
        "1361": 70,
        "1362": 79,
        "1363": 79,
        "1364": 134,
        "1365": 109,
        "1366": 235,
        "1367": 199,
        "1368": 170,
        "1369": 11,
        "1370": 146,
        "1371": 69,
        "1372": 14,
        "1373": 200,
        "1374": 115,
        "1375": 73,
        "1376": 11,
        "1377": 232,
        "1378": 237,
        "1379": 51,
        "1380": 18,
        "1381": 196,
        "1382": 30,
        "1383": 229,
        "1384": 133,
        "1385": 236,
        "1386": 201,
        "1387": 76,
        "1388": 155,
        "1389": 60,
        "1390": 131,
        "1391": 221,
        "1392": 81,
        "1393": 109,
        "1394": 181,
        "1395": 82,
        "1396": 67,
        "1397": 165,
        "1398": 0,
        "1399": 222,
        "1400": 163,
        "1401": 19,
        "1402": 11,
        "1403": 27,
        "1404": 232,
        "1405": 139,
        "1406": 106,
        "1407": 158,
        "1408": 169,
        "1409": 37,
        "1410": 51,
        "1411": 194,
        "1412": 168,
        "1413": 71,
        "1414": 230,
        "1415": 175,
        "1416": 26,
        "1417": 162,
        "1418": 228,
        "1419": 83,
        "1420": 39,
        "1421": 3,
        "1422": 176,
        "1423": 227,
        "1424": 38,
        "1425": 171,
        "1426": 104,
        "1427": 89,
        "1428": 50,
        "1429": 143,
        "1430": 90,
        "1431": 231,
        "1432": 90,
        "1433": 52,
        "1434": 228,
        "1435": 84,
        "1436": 195,
        "1437": 109,
        "1438": 238,
        "1439": 138,
        "1440": 178,
        "1441": 18,
        "1442": 189,
        "1443": 13,
        "1444": 171,
        "1445": 75,
        "1446": 170,
        "1447": 160,
        "1448": 28,
        "1449": 155,
        "1450": 120,
        "1451": 128,
        "1452": 123,
        "1453": 31,
        "1454": 150,
        "1455": 227,
        "1456": 62,
        "1457": 148,
        "1458": 73,
        "1459": 30,
        "1460": 161,
        "1461": 17,
        "1462": 188,
        "1463": 210,
        "1464": 33,
        "1465": 77,
        "1466": 108,
        "1467": 211,
        "1468": 116,
        "1469": 98,
        "1470": 56,
        "1471": 223,
        "1472": 223,
        "1473": 6,
        "1474": 100,
        "1475": 102,
        "1476": 132,
        "1477": 101,
        "1478": 115,
        "1479": 117,
        "1480": 99,
        "1481": 130,
        "1482": 211,
        "1483": 224,
        "1484": 163,
        "1485": 20,
        "1486": 103,
        "1487": 209,
        "1488": 143,
        "1489": 157,
        "1490": 211,
        "1491": 34,
        "1492": 99,
        "1493": 3,
        "1494": 110,
        "1495": 144,
        "1496": 52,
        "1497": 67,
        "1498": 20,
        "1499": 41,
        "1500": 157,
        "1501": 7,
        "1502": 36,
        "1503": 185,
        "1504": 143,
        "1505": 57,
        "1506": 27,
        "1507": 91,
        "1508": 87,
        "1509": 252,
        "1510": 208,
        "1511": 125,
        "1512": 112,
        "1513": 80,
        "1514": 141,
        "1515": 160,
        "1516": 93,
        "1517": 252,
        "1518": 114,
        "1519": 234,
        "1520": 183,
        "1521": 247,
        "1522": 0,
        "1523": 92,
        "1524": 52,
        "1525": 199,
        "1526": 76,
        "1527": 96,
        "1528": 244,
        "1529": 248,
        "1530": 23,
        "1531": 96,
        "1532": 41,
        "1533": 237,
        "1534": 152,
        "1535": 234,
        "1536": 32,
        "1537": 48,
        "1538": 193,
        "1539": 218,
        "1540": 92,
        "1541": 102,
        "1542": 104,
        "1543": 255,
        "1544": 40,
        "1545": 57,
        "1546": 36,
        "1547": 11,
        "1548": 164,
        "1549": 175,
        "1550": 149,
        "1551": 38,
        "1552": 100,
        "1553": 1,
        "1554": 93,
        "1555": 38,
        "1556": 136,
        "1557": 178,
        "1558": 117,
        "1559": 207,
        "1560": 247,
        "1561": 63,
        "1562": 18,
        "1563": 249,
        "1564": 4,
        "1565": 184,
        "1566": 35,
        "1567": 197,
        "1568": 46,
        "1569": 168,
        "1570": 101,
        "1571": 58,
        "1572": 109,
        "1573": 55,
        "1574": 113,
        "1575": 42,
        "1576": 111,
        "1577": 94,
        "1578": 204,
        "1579": 232,
        "1580": 240,
        "1581": 60,
        "1582": 71,
        "1583": 12,
        "1584": 75,
        "1585": 114,
        "1586": 1,
        "1587": 78,
        "1588": 208,
        "1589": 4,
        "1590": 204,
        "1591": 13,
        "1592": 187,
        "1593": 88,
        "1594": 31,
        "1595": 6,
        "1596": 150,
        "1597": 37,
        "1598": 129,
        "1599": 200,
        "1600": 220,
        "1601": 216,
        "1602": 13,
        "1603": 28,
        "1604": 42,
        "1605": 28,
        "1606": 253,
        "1607": 135,
        "1608": 7,
        "1609": 144,
        "1610": 2,
        "1611": 101,
        "1612": 55,
        "1613": 139,
        "1614": 95,
        "1615": 195,
        "1616": 46,
        "1617": 85,
        "1618": 44,
        "1619": 251,
        "1620": 211,
        "1621": 56,
        "1622": 60,
        "1623": 92,
        "1624": 216,
        "1625": 81,
        "1626": 44,
        "1627": 174,
        "1628": 243,
        "1629": 227,
        "1630": 8,
        "1631": 101,
        "1632": 155,
        "1633": 117,
        "1634": 43,
        "1635": 139,
        "1636": 231,
        "1637": 62,
        "1638": 13,
        "1639": 236,
        "1640": 58,
        "1641": 134,
        "1642": 233,
        "1643": 10,
        "1644": 227,
        "1645": 17,
        "1646": 196,
        "1647": 70,
        "1648": 77,
        "1649": 54,
        "1650": 74,
        "1651": 4,
        "1652": 150,
        "1653": 130,
        "1654": 42,
        "1655": 27,
        "1656": 136,
        "1657": 84,
        "1658": 123,
        "1659": 91,
        "1660": 34,
        "1661": 251,
        "1662": 37,
        "1663": 117,
        "1664": 239,
        "1665": 98,
        "1666": 169,
        "1667": 225,
        "1668": 176,
        "1669": 86,
        "1670": 83,
        "1671": 225,
        "1672": 95,
        "1673": 38,
        "1674": 50,
        "1675": 195,
        "1676": 139,
        "1677": 25,
        "1678": 41,
        "1679": 143,
        "1680": 66,
        "1681": 77,
        "1682": 157,
        "1683": 65,
        "1684": 224,
        "1685": 38,
        "1686": 59,
        "1687": 59,
        "1688": 200,
        "1689": 245,
        "1690": 216,
        "1691": 114,
        "1692": 233,
        "1693": 198,
        "1694": 236,
        "1695": 163,
        "1696": 229,
        "1697": 175,
        "1698": 43,
        "1699": 221,
        "1700": 226,
        "1701": 203,
        "1702": 139,
        "1703": 210,
        "1704": 96,
        "1705": 168,
        "1706": 252,
        "1707": 46,
        "1708": 195,
        "1709": 228,
        "1710": 142,
        "1711": 243,
        "1712": 227,
        "1713": 193,
        "1714": 120,
        "1715": 25,
        "1716": 181,
        "1717": 233,
        "1718": 50,
        "1719": 227,
        "1720": 202,
        "1721": 75,
        "1722": 202,
        "1723": 178,
        "1724": 74,
        "1725": 140,
        "1726": 103,
        "1727": 90,
        "1728": 223,
        "1729": 218,
        "1730": 126,
        "1731": 238,
        "1732": 206,
        "1733": 196,
        "1734": 222,
        "1735": 227,
        "1736": 146,
        "1737": 73,
        "1738": 232,
        "1739": 62,
        "1740": 232,
        "1741": 110,
        "1742": 51,
        "1743": 227,
        "1744": 53,
        "1745": 160,
        "1746": 84,
        "1747": 0,
        "1748": 225,
        "1749": 62,
        "1750": 234,
        "1751": 85,
        "1752": 228,
        "1753": 153,
        "1754": 102,
        "1755": 155,
        "1756": 95,
        "1757": 35,
        "1758": 198,
        "1759": 226,
        "1760": 238,
        "1761": 73,
        "1762": 133,
        "1763": 174,
        "1764": 20,
        "1765": 11,
        "1766": 138,
        "1767": 107,
        "1768": 198,
        "1769": 89,
        "1770": 6,
        "1771": 129,
        "1772": 138,
        "1773": 82,
        "1774": 0,
        "1775": 204,
        "1776": 34,
        "1777": 69,
        "1778": 184,
        "1779": 131,
        "1780": 43,
        "1781": 88,
        "1782": 106,
        "1783": 215,
        "1784": 62,
        "1785": 143,
        "1786": 186,
        "1787": 28,
        "1788": 243,
        "1789": 177,
        "1790": 132,
        "1791": 99,
        "1792": 224,
        "1793": 112,
        "1794": 137,
        "1795": 39,
        "1796": 191,
        "1797": 162,
        "1798": 135,
        "1799": 237,
        "1800": 74,
        "1801": 153,
        "1802": 192,
        "1803": 106,
        "1804": 184,
        "1805": 92,
        "1806": 208,
        "1807": 223,
        "1808": 154,
        "1809": 143,
        "1810": 156,
        "1811": 38,
        "1812": 10,
        "1813": 52,
        "1814": 249,
        "1815": 137,
        "1816": 168,
        "1817": 76,
        "1818": 177,
        "1819": 185,
        "1820": 171,
        "1821": 227,
        "1822": 108,
        "1823": 20,
        "1824": 220,
        "1825": 53,
        "1826": 152,
        "1827": 64,
        "1828": 175,
        "1829": 112,
        "1830": 178,
        "1831": 147,
        "1832": 209,
        "1833": 241,
        "1834": 117,
        "1835": 37,
        "1836": 116,
        "1837": 79,
        "1838": 161,
        "1839": 45,
        "1840": 74,
        "1841": 179,
        "1842": 186,
        "1843": 170,
        "1844": 245,
        "1845": 150,
        "1846": 149,
        "1847": 164,
        "1848": 138,
        "1849": 75,
        "1850": 216,
        "1851": 112,
        "1852": 176,
        "1853": 202,
        "1854": 174,
        "1855": 38,
        "1856": 178,
        "1857": 218,
        "1858": 166,
        "1859": 122,
        "1860": 10,
        "1861": 69,
        "1862": 20,
        "1863": 82,
        "1864": 159,
        "1865": 114,
        "1866": 112,
        "1867": 155,
        "1868": 65,
        "1869": 88,
        "1870": 163,
        "1871": 99,
        "1872": 171,
        "1873": 152,
        "1874": 130,
        "1875": 143,
        "1876": 208,
        "1877": 229,
        "1878": 78,
        "1879": 85,
        "1880": 65,
        "1881": 168,
        "1882": 40,
        "1883": 206,
        "1884": 197,
        "1885": 11,
        "1886": 132,
        "1887": 68,
        "1888": 225,
        "1889": 213,
        "1890": 93,
        "1891": 185,
        "1892": 85,
        "1893": 123,
        "1894": 3,
        "1895": 248,
        "1896": 206,
        "1897": 208,
        "1898": 63,
        "1899": 123,
        "1900": 85,
        "1901": 252,
        "1902": 207,
        "1903": 41,
        "1904": 189,
        "1905": 74,
        "1906": 90,
        "1907": 152,
        "1908": 249,
        "1909": 63,
        "1910": 102,
        "1911": 114,
        "1912": 130,
        "1913": 61,
        "1914": 198,
        "1915": 13,
        "1916": 102,
        "1917": 73,
        "1918": 58,
        "1919": 148,
        "1920": 29,
        "1921": 222,
        "1922": 84,
        "1923": 196,
        "1924": 71,
        "1925": 97,
        "1926": 89,
        "1927": 38,
        "1928": 122,
        "1929": 6,
        "1930": 249,
        "1931": 149,
        "1932": 48,
        "1933": 91,
        "1934": 138,
        "1935": 171,
        "1936": 140,
        "1937": 56,
        "1938": 120,
        "1939": 255,
        "1940": 64,
        "1941": 105,
        "1942": 120,
        "1943": 196,
        "1944": 109,
        "1945": 227,
        "1946": 95,
        "1947": 179,
        "1948": 244,
        "1949": 92,
        "1950": 132,
        "1951": 175,
        "1952": 75,
        "1953": 23,
        "1954": 28,
        "1955": 223,
        "1956": 5,
        "1957": 249,
        "1958": 57,
        "1959": 30,
        "1960": 180,
        "1961": 2,
        "1962": 173,
        "1963": 54,
        "1964": 55,
        "1965": 252,
        "1966": 113,
        "1967": 218,
        "1968": 27,
        "1969": 18,
        "1970": 32,
        "1971": 35,
        "1972": 171,
        "1973": 113,
        "1974": 223,
        "1975": 237,
        "1976": 25,
        "1977": 202,
        "1978": 97,
        "1979": 156,
        "1980": 131,
        "1981": 1,
        "1982": 157,
        "1983": 117,
        "1984": 251,
        "1985": 175,
        "1986": 4,
        "1987": 142,
        "1988": 151,
        "1989": 202,
        "1990": 201,
        "1991": 150,
        "1992": 103,
        "1993": 44,
        "1994": 61,
        "1995": 131,
        "1996": 40,
        "1997": 214,
        "1998": 24,
        "1999": 8,
        "2000": 35,
        "2001": 5,
        "2002": 14,
        "2003": 165,
        "2004": 253,
        "2005": 122,
        "2006": 222,
        "2007": 130,
        "2008": 96,
        "2009": 54,
        "2010": 89,
        "2011": 70,
        "2012": 188,
        "2013": 44,
        "2014": 164,
        "2015": 199,
        "2016": 114,
        "2017": 13,
        "2018": 69,
        "2019": 220,
        "2020": 209,
        "2021": 216,
        "2022": 213,
        "2023": 185,
        "2024": 219,
        "2025": 20,
        "2026": 48,
        "2027": 143,
        "2028": 63,
        "2029": 68,
        "2030": 203,
        "2031": 184,
        "2032": 0,
        "2033": 93,
        "2034": 239,
        "2035": 103,
        "2036": 247,
        "2037": 155,
        "2038": 162,
        "2039": 2,
        "2040": 7,
        "2041": 49,
        "2042": 18,
        "2043": 100,
        "2044": 221,
        "2045": 28,
        "2046": 111,
        "2047": 31,
        "2048": 203,
        "2049": 220,
        "2050": 125,
        "2051": 218,
        "2052": 88,
        "2053": 230,
        "2054": 5,
        "2055": 132,
        "2056": 43,
        "2057": 3,
        "2058": 59,
        "2059": 62,
        "2060": 83,
        "2061": 197,
        "2062": 185,
        "2063": 59,
        "2064": 37,
        "2065": 242,
        "2066": 237,
        "2067": 153,
        "2068": 205,
        "2069": 239,
        "2070": 233,
        "2071": 60,
        "2072": 46,
        "2073": 112,
        "2074": 246,
        "2075": 125,
        "2076": 255,
        "2077": 239,
        "2078": 2,
        "2079": 155,
        "2080": 72,
        "2081": 214,
        "2082": 200,
        "2083": 13,
        "2084": 184,
        "2085": 49,
        "2086": 155,
        "2087": 232,
        "2088": 104,
        "2089": 24,
        "2090": 180,
        "2091": 60,
        "2092": 120,
        "2093": 196,
        "2094": 3,
        "2095": 32,
        "2096": 65,
        "2097": 53,
        "2098": 177,
        "2099": 55,
        "2100": 113,
        "2101": 221,
        "2102": 155,
        "2103": 60,
        "2104": 181,
        "2105": 25,
        "2106": 181,
        "2107": 153,
        "2108": 220,
        "2109": 99,
        "2110": 33,
        "2111": 102,
        "2112": 47,
        "2113": 87,
        "2114": 213,
        "2115": 202,
        "2116": 194,
        "2117": 147,
        "2118": 252,
        "2119": 6,
        "2120": 212,
        "2121": 37,
        "2122": 196,
        "2123": 62,
        "2124": 128,
        "2125": 139,
        "2126": 84,
        "2127": 90,
        "2128": 15,
        "2129": 186,
        "2130": 79,
        "2131": 95,
        "2132": 229,
        "2133": 254,
        "2134": 209,
        "2135": 95,
        "2136": 126,
        "2137": 160,
        "2138": 139,
        "2139": 39,
        "2140": 254,
        "2141": 167,
        "2142": 175,
        "2143": 205,
        "2144": 60,
        "2145": 68,
        "2146": 23,
        "2147": 166,
        "2148": 242,
        "2149": 69,
        "2150": 182,
        "2151": 185,
        "2152": 161,
        "2153": 214,
        "2154": 250,
        "2155": 150,
        "2156": 51,
        "2157": 145,
        "2158": 97,
        "2159": 218,
        "2160": 88,
        "2161": 183,
        "2162": 228,
        "2163": 189,
        "2164": 35,
        "2165": 202,
        "2166": 193,
        "2167": 155,
        "2168": 80,
        "2169": 246,
        "2170": 201,
        "2171": 210,
        "2172": 210,
        "2173": 173,
        "2174": 39,
        "2175": 253,
        "2176": 92,
        "2177": 100,
        "2178": 189,
        "2179": 35,
        "2180": 78,
        "2181": 143,
        "2182": 246,
        "2183": 156,
        "2184": 222,
        "2185": 209,
        "2186": 157,
        "2187": 112,
        "2188": 168,
        "2189": 8,
        "2190": 32,
        "2191": 30,
        "2192": 95,
        "2193": 74,
        "2194": 224,
        "2195": 35,
        "2196": 48,
        "2197": 30,
        "2198": 242,
        "2199": 117,
        "2200": 191,
        "2201": 28,
        "2202": 219,
        "2203": 178,
        "2204": 14,
        "2205": 252,
        "2206": 15,
        "2207": 192,
        "2208": 247,
        "2209": 144,
        "2210": 79,
        "2211": 19,
        "2212": 40,
        "2213": 112,
        "2214": 13,
        "2215": 183,
        "2216": 33,
        "2217": 70,
        "2218": 22,
        "2219": 150,
        "2220": 124,
        "2221": 96,
        "2222": 47,
        "2223": 244,
        "2224": 35,
        "2225": 204,
        "2226": 57,
        "2227": 143,
        "2228": 173,
        "2229": 32,
        "2230": 105,
        "2231": 243,
        "2232": 24,
        "2233": 158,
        "2234": 141,
        "2235": 2,
        "2236": 58,
        "2237": 175,
        "2238": 52,
        "2239": 247,
        "2240": 29,
        "2241": 209,
        "2242": 112,
        "2243": 135,
        "2244": 182,
        "2245": 142,
        "2246": 146,
        "2247": 180,
        "2248": 228,
        "2249": 109,
        "2250": 42,
        "2251": 189,
        "2252": 60,
        "2253": 204,
        "2254": 76,
        "2255": 55,
        "2256": 15,
        "2257": 63,
        "2258": 87,
        "2259": 228,
        "2260": 224,
        "2261": 162,
        "2262": 156,
        "2263": 149,
        "2264": 19,
        "2265": 221,
        "2266": 248,
        "2267": 95,
        "2268": 196,
        "2269": 226,
        "2270": 124,
        "2271": 227,
        "2272": 65,
        "2273": 56,
        "2274": 165,
        "2275": 241,
        "2276": 128,
        "2277": 168,
        "2278": 50,
        "2279": 70,
        "2280": 246,
        "2281": 14,
        "2282": 27,
        "2283": 91,
        "2284": 21,
        "2285": 232,
        "2286": 97,
        "2287": 10,
        "2288": 155,
        "2289": 107,
        "2290": 110,
        "2291": 34,
        "2292": 163,
        "2293": 152,
        "2294": 145,
        "2295": 182,
        "2296": 121,
        "2297": 106,
        "2298": 227,
        "2299": 236,
        "2300": 56,
        "2301": 2,
        "2302": 128,
        "2303": 78,
        "2304": 174,
        "2305": 237,
        "2306": 123,
        "2307": 84,
        "2308": 10,
        "2309": 148,
        "2310": 26,
        "2311": 217,
        "2312": 91,
        "2313": 139,
        "2314": 46,
        "2315": 118,
        "2316": 82,
        "2317": 118,
        "2318": 96,
        "2319": 190,
        "2320": 242,
        "2321": 119,
        "2322": 155,
        "2323": 68,
        "2324": 121,
        "2325": 16,
        "2326": 88,
        "2327": 5,
        "2328": 74,
        "2329": 76,
        "2330": 229,
        "2331": 159,
        "2332": 97,
        "2333": 246,
        "2334": 110,
        "2335": 47,
        "2336": 233,
        "2337": 96,
        "2338": 66,
        "2339": 213,
        "2340": 99,
        "2341": 108,
        "2342": 52,
        "2343": 126,
        "2344": 239,
        "2345": 254,
        "2346": 49,
        "2347": 123,
        "2348": 78,
        "2349": 77,
        "2350": 58,
        "2351": 208,
        "2352": 190,
        "2353": 109,
        "2354": 133,
        "2355": 52,
        "2356": 20,
        "2357": 80,
        "2358": 36,
        "2359": 7,
        "2360": 91,
        "2361": 103,
        "2362": 156,
        "2363": 109,
        "2364": 71,
        "2365": 234,
        "2366": 226,
        "2367": 233,
        "2368": 81,
        "2369": 190,
        "2370": 7,
        "2371": 30,
        "2372": 122,
        "2373": 4,
        "2374": 132,
        "2375": 163,
        "2376": 74,
        "2377": 132,
        "2378": 170,
        "2379": 16,
        "2380": 85,
        "2381": 94,
        "2382": 184,
        "2383": 21,
        "2384": 252,
        "2385": 53,
        "2386": 14,
        "2387": 211,
        "2388": 231,
        "2389": 146,
        "2390": 45,
        "2391": 109,
        "2392": 127,
        "2393": 239,
        "2394": 238,
        "2395": 181,
        "2396": 231,
        "2397": 99,
        "2398": 38,
        "2399": 245,
        "2400": 154,
        "2401": 126,
        "2402": 26,
        "2403": 148,
        "2404": 104,
        "2405": 71,
        "2406": 155,
        "2407": 114,
        "2408": 195,
        "2409": 61,
        "2410": 108,
        "2411": 217,
        "2412": 50,
        "2413": 92,
        "2414": 17,
        "2415": 37,
        "2416": 14,
        "2417": 15,
        "2418": 139,
        "2419": 19,
        "2420": 40,
        "2421": 65,
        "2422": 136,
        "2423": 99,
        "2424": 167,
        "2425": 33,
        "2426": 26,
        "2427": 139,
        "2428": 171,
        "2429": 12,
        "2430": 220,
        "2431": 87,
        "2432": 47,
        "2433": 234,
        "2434": 238,
        "2435": 57,
        "2436": 58,
        "2437": 54,
        "2438": 200,
        "2439": 195,
        "2440": 163,
        "2441": 16,
        "2442": 173,
        "2443": 168,
        "2444": 56,
        "2445": 83,
        "2446": 44,
        "2447": 101,
        "2448": 14,
        "2449": 35,
        "2450": 190,
        "2451": 62,
        "2452": 148,
        "2453": 106,
        "2454": 252,
        "2455": 217,
        "2456": 45,
        "2457": 73,
        "2458": 152,
        "2459": 173,
        "2460": 146,
        "2461": 47,
        "2462": 107,
        "2463": 33,
        "2464": 2,
        "2465": 91,
        "2466": 184,
        "2467": 156,
        "2468": 212,
        "2469": 45,
        "2470": 8,
        "2471": 130,
        "2472": 238,
        "2473": 171,
        "2474": 24,
        "2475": 234,
        "2476": 238,
        "2477": 57,
        "2478": 171,
        "2479": 144,
        "2480": 114,
        "2481": 50,
        "2482": 96,
        "2483": 168,
        "2484": 188,
        "2485": 92,
        "2486": 216,
        "2487": 25,
        "2488": 6,
        "2489": 30,
        "2490": 251,
        "2491": 84,
        "2492": 55,
        "2493": 192,
        "2494": 152,
        "2495": 199,
        "2496": 2,
        "2497": 111,
        "2498": 22,
        "2499": 224,
        "2500": 178,
        "2501": 137,
        "2502": 247,
        "2503": 116,
        "2504": 126,
        "2505": 180,
        "2506": 30,
        "2507": 138,
        "2508": 180,
        "2509": 22,
        "2510": 31,
        "2511": 179,
        "2512": 246,
        "2513": 36,
        "2514": 165,
        "2515": 120,
        "2516": 242,
        "2517": 99,
        "2518": 59,
        "2519": 33,
        "2520": 182,
        "2521": 15,
        "2522": 161,
        "2523": 102,
        "2524": 23,
        "2525": 179,
        "2526": 174,
        "2527": 64,
        "2528": 20,
        "2529": 182,
        "2530": 236,
        "2531": 60,
        "2532": 214,
        "2533": 234,
        "2534": 42,
        "2535": 120,
        "2536": 208,
        "2537": 71,
        "2538": 110,
        "2539": 232,
        "2540": 244,
        "2541": 128,
        "2542": 62,
        "2543": 207,
        "2544": 185,
        "2545": 197,
        "2546": 139,
        "2547": 136,
        "2548": 230,
        "2549": 152,
        "2550": 29,
        "2551": 166,
        "2552": 172,
        "2553": 175,
        "2554": 1,
        "2555": 159,
        "2556": 152,
        "2557": 247,
        "2558": 217,
        "2559": 53,
        "2560": 42,
        "2561": 24,
        "2562": 236,
        "2563": 95,
        "2564": 61,
        "2565": 213,
        "2566": 27,
        "2567": 152,
        "2568": 182,
        "2569": 98,
        "2570": 253,
        "2571": 53,
        "2572": 75,
        "2573": 173,
        "2574": 247,
        "2575": 132,
        "2576": 247,
        "2577": 243,
        "2578": 57,
        "2579": 190,
        "2580": 247,
        "2581": 242,
        "2582": 44,
        "2583": 235,
        "2584": 232,
        "2585": 33,
        "2586": 13,
        "2587": 89,
        "2588": 96,
        "2589": 143,
        "2590": 191,
        "2591": 186,
        "2592": 179,
        "2593": 48,
        "2594": 183,
        "2595": 237,
        "2596": 22,
        "2597": 29,
        "2598": 129,
        "2599": 63,
        "2600": 59,
        "2601": 31,
        "2602": 206,
        "2603": 184,
        "2604": 207,
        "2605": 237,
        "2606": 26,
        "2607": 31,
        "2608": 233,
        "2609": 155,
        "2610": 51,
        "2611": 20,
        "2612": 161,
        "2613": 219,
        "2614": 253,
        "2615": 103,
        "2616": 149,
        "2617": 18,
        "2618": 42,
        "2619": 153,
        "2620": 4,
        "2621": 225,
        "2622": 90,
        "2623": 226,
        "2624": 102,
        "2625": 224,
        "2626": 228,
        "2627": 154,
        "2628": 203,
        "2629": 89,
        "2630": 78,
        "2631": 12,
        "2632": 136,
        "2633": 98,
        "2634": 56,
        "2635": 61,
        "2636": 184,
        "2637": 25,
        "2638": 231,
        "2639": 215,
        "2640": 155,
        "2641": 78,
        "2642": 244,
        "2643": 95,
        "2644": 178,
        "2645": 103,
        "2646": 146,
        "2647": 32,
        "2648": 168,
        "2649": 159,
        "2650": 221,
        "2651": 115,
        "2652": 240,
        "2653": 136,
        "2654": 197,
        "2655": 90,
        "2656": 170,
        "2657": 139,
        "2658": 207,
        "2659": 24,
        "2660": 182,
        "2661": 216,
        "2662": 37,
        "2663": 113,
        "2664": 21,
        "2665": 210,
        "2666": 19,
        "2667": 237,
        "2668": 137,
        "2669": 108,
        "2670": 122,
        "2671": 204,
        "2672": 79,
        "2673": 174,
        "2674": 99,
        "2675": 155,
        "2676": 178,
        "2677": 114,
        "2678": 40,
        "2679": 177,
        "2680": 157,
        "2681": 171,
        "2682": 240,
        "2683": 74,
        "2684": 187,
        "2685": 2,
        "2686": 125,
        "2687": 16,
        "2688": 86,
        "2689": 241,
        "2690": 126,
        "2691": 10,
        "2692": 110,
        "2693": 117,
        "2694": 38,
        "2695": 161,
        "2696": 225,
        "2697": 250,
        "2698": 157,
        "2699": 175,
        "2700": 186,
        "2701": 71,
        "2702": 169,
        "2703": 38,
        "2704": 226,
        "2705": 11,
        "2706": 110,
        "2707": 175,
        "2708": 1,
        "2709": 238,
        "2710": 56,
        "2711": 137,
        "2712": 79,
        "2713": 136,
        "2714": 67,
        "2715": 27,
        "2716": 250,
        "2717": 246,
        "2718": 65,
        "2719": 245,
        "2720": 127,
        "2721": 23,
        "2722": 189,
        "2723": 134,
        "2724": 86,
        "2725": 112,
        "2726": 95,
        "2727": 202,
        "2728": 147,
        "2729": 82,
        "2730": 71,
        "2731": 127,
        "2732": 240,
        "2733": 81,
        "2734": 151,
        "2735": 81,
        "2736": 237,
        "2737": 176,
        "2738": 225,
        "2739": 165,
        "2740": 97,
        "2741": 85,
        "2742": 198,
        "2743": 90,
        "2744": 229,
        "2745": 245,
        "2746": 225,
        "2747": 103,
        "2748": 185,
        "2749": 248,
        "2750": 135,
        "2751": 82,
        "2752": 74,
        "2753": 109,
        "2754": 186,
        "2755": 33,
        "2756": 97,
        "2757": 12,
        "2758": 78,
        "2759": 104,
        "2760": 131,
        "2761": 42,
        "2762": 81,
        "2763": 230,
        "2764": 248,
        "2765": 236,
        "2766": 197,
        "2767": 139,
        "2768": 188,
        "2769": 40,
        "2770": 253,
        "2771": 176,
        "2772": 66,
        "2773": 23,
        "2774": 163,
        "2775": 221,
        "2776": 73,
        "2777": 15,
        "2778": 18,
        "2779": 235,
        "2780": 200,
        "2781": 230,
        "2782": 236,
        "2783": 203,
        "2784": 106,
        "2785": 54,
        "2786": 242,
        "2787": 47,
        "2788": 185,
        "2789": 101,
        "2790": 213,
        "2791": 165,
        "2792": 153,
        "2793": 62,
        "2794": 62,
        "2795": 33,
        "2796": 137,
        "2797": 52,
        "2798": 151,
        "2799": 167,
        "2800": 62,
        "2801": 0,
        "2802": 222,
        "2803": 149,
        "2804": 124,
        "2805": 154,
        "2806": 4,
        "2807": 159,
        "2808": 5,
        "2809": 133,
        "2810": 234,
        "2811": 51,
        "2812": 214,
        "2813": 55,
        "2814": 100,
        "2815": 48,
        "2816": 37,
        "2817": 205,
        "2818": 56,
        "2819": 199,
        "2820": 240,
        "2821": 68,
        "2822": 64,
        "2823": 50,
        "2824": 173,
        "2825": 182,
        "2826": 30,
        "2827": 61,
        "2828": 33,
        "2829": 167,
        "2830": 126,
        "2831": 227,
        "2832": 65,
        "2833": 238,
        "2834": 135,
        "2835": 211,
        "2836": 222,
        "2837": 27,
        "2838": 115,
        "2839": 171,
        "2840": 230,
        "2841": 20,
        "2842": 66,
        "2843": 159,
        "2844": 192,
        "2845": 199,
        "2846": 17,
        "2847": 188,
        "2848": 40,
        "2849": 95,
        "2850": 75,
        "2851": 53,
        "2852": 235,
        "2853": 77,
        "2854": 62,
        "2855": 24,
        "2856": 23,
        "2857": 9,
        "2858": 93,
        "2859": 75,
        "2860": 182,
        "2861": 247,
        "2862": 58,
        "2863": 124,
        "2864": 41,
        "2865": 217,
        "2866": 150,
        "2867": 75,
        "2868": 204,
        "2869": 33,
        "2870": 117,
        "2871": 27,
        "2872": 75,
        "2873": 91,
        "2874": 36,
        "2875": 210,
        "2876": 172,
        "2877": 197,
        "2878": 106,
        "2879": 60,
        "2880": 235,
        "2881": 243,
        "2882": 202,
        "2883": 167,
        "2884": 69,
        "2885": 106,
        "2886": 59,
        "2887": 87,
        "2888": 235,
        "2889": 165,
        "2890": 170,
        "2891": 13,
        "2892": 72,
        "2893": 225,
        "2894": 100,
        "2895": 139,
        "2896": 155,
        "2897": 24,
        "2898": 173,
        "2899": 41,
        "2900": 152,
        "2901": 255,
        "2902": 80,
        "2903": 70,
        "2904": 55,
        "2905": 148,
        "2906": 160,
        "2907": 222,
        "2908": 33,
        "2909": 84,
        "2910": 136,
        "2911": 60,
        "2912": 33,
        "2913": 215,
        "2914": 80,
        "2915": 215,
        "2916": 73,
        "2917": 26,
        "2918": 250,
        "2919": 197,
        "2920": 162,
        "2921": 177,
        "2922": 6,
        "2923": 2,
        "2924": 76,
        "2925": 56,
        "2926": 139,
        "2927": 216,
        "2928": 71,
        "2929": 10,
        "2930": 152,
        "2931": 155,
        "2932": 10,
        "2933": 26,
        "2934": 101,
        "2935": 150,
        "2936": 47,
        "2937": 152,
        "2938": 240,
        "2939": 16,
        "2940": 234,
        "2941": 44,
        "2942": 173,
        "2943": 136,
        "2944": 49,
        "2945": 236,
        "2946": 48,
        "2947": 185,
        "2948": 224,
        "2949": 83,
        "2950": 131,
        "2951": 227,
        "2952": 50,
        "2953": 17,
        "2954": 88,
        "2955": 88,
        "2956": 120,
        "2957": 209,
        "2958": 74,
        "2959": 140,
        "2960": 106,
        "2961": 248,
        "2962": 138,
        "2963": 145,
        "2964": 220,
        "2965": 78,
        "2966": 220,
        "2967": 223,
        "2968": 5,
        "2969": 16,
        "2970": 206,
        "2971": 2,
        "2972": 53,
        "2973": 80,
        "2974": 96,
        "2975": 40,
        "2976": 17,
        "2977": 142,
        "2978": 3,
        "2979": 218,
        "2980": 23,
        "2981": 236,
        "2982": 35,
        "2983": 138,
        "2984": 34,
        "2985": 159,
        "2986": 85,
        "2987": 254,
        "2988": 229,
        "2989": 241,
        "2990": 252,
        "2991": 229,
        "2992": 23,
        "2993": 255,
        "2994": 29,
        "2995": 144,
        "2996": 179,
        "2997": 110,
        "2998": 3,
        "2999": 237,
        "3000": 31,
        "3001": 252,
        "3002": 20,
        "3003": 70,
        "3004": 100,
        "3005": 15,
        "3006": 41,
        "3007": 118,
        "3008": 11,
        "3009": 37,
        "3010": 43,
        "3011": 14,
        "3012": 88,
        "3013": 120,
        "3014": 131,
        "3015": 198,
        "3016": 245,
        "3017": 44,
        "3018": 43,
        "3019": 45,
        "3020": 231,
        "3021": 5,
        "3022": 35,
        "3023": 51,
        "3024": 0,
        "3025": 230,
        "3026": 56,
        "3027": 168,
        "3028": 116,
        "3029": 209,
        "3030": 189,
        "3031": 133,
        "3032": 34,
        "3033": 92,
        "3034": 85,
        "3035": 19,
        "3036": 121,
        "3037": 230,
        "3038": 234,
        "3039": 222,
        "3040": 248,
        "3041": 18,
        "3042": 59,
        "3043": 230,
        "3044": 89,
        "3045": 221,
        "3046": 35,
        "3047": 149,
        "3048": 27,
        "3049": 237,
        "3050": 123,
        "3051": 77,
        "3052": 147,
        "3053": 109,
        "3054": 85,
        "3055": 245,
        "3056": 43,
        "3057": 222,
        "3058": 107,
        "3059": 205,
        "3060": 247,
        "3061": 130,
        "3062": 241,
        "3063": 92,
        "3064": 66,
        "3065": 114,
        "3066": 79,
        "3067": 211,
        "3068": 172,
        "3069": 243,
        "3070": 241,
        "3071": 150,
        "3072": 13,
        "3073": 88,
        "3074": 33,
        "3075": 124,
        "3076": 156,
        "3077": 225,
        "3078": 232,
        "3079": 99,
        "3080": 200,
        "3081": 172,
        "3082": 96,
        "3083": 43,
        "3084": 192,
        "3085": 176,
        "3086": 243,
        "3087": 240,
        "3088": 246,
        "3089": 92,
        "3090": 234,
        "3091": 56,
        "3092": 51,
        "3093": 9,
        "3094": 188,
        "3095": 220,
        "3096": 99,
        "3097": 118,
        "3098": 203,
        "3099": 8,
        "3100": 209,
        "3101": 195,
        "3102": 122,
        "3103": 232,
        "3104": 28,
        "3105": 179,
        "3106": 219,
        "3107": 202,
        "3108": 86,
        "3109": 106,
        "3110": 79,
        "3111": 65,
        "3112": 54,
        "3113": 124,
        "3114": 234,
        "3115": 142,
        "3116": 200,
        "3117": 122,
        "3118": 164,
        "3119": 238,
        "3120": 180,
        "3121": 37,
        "3122": 204,
        "3123": 152,
        "3124": 144,
        "3125": 144,
        "3126": 95,
        "3127": 57,
        "3128": 120,
        "3129": 8,
        "3130": 140,
        "3131": 179,
        "3132": 35,
        "3133": 241,
        "3134": 200,
        "3135": 236,
        "3136": 190,
        "3137": 206,
        "3138": 6,
        "3139": 111,
        "3140": 50,
        "3141": 82,
        "3142": 128,
        "3143": 113,
        "3144": 137,
        "3145": 227,
        "3146": 200,
        "3147": 56,
        "3148": 92,
        "3149": 195,
        "3150": 119,
        "3151": 189,
        "3152": 239,
        "3153": 29,
        "3154": 136,
        "3155": 76,
        "3156": 243,
        "3157": 112,
        "3158": 102,
        "3159": 226,
        "3160": 233,
        "3161": 189,
        "3162": 18,
        "3163": 197,
        "3164": 219,
        "3165": 7,
        "3166": 212,
        "3167": 138,
        "3168": 86,
        "3169": 243,
        "3170": 216,
        "3171": 118,
        "3172": 102,
        "3173": 140,
        "3174": 175,
        "3175": 110,
        "3176": 73,
        "3177": 160,
        "3178": 61,
        "3179": 95,
        "3180": 242,
        "3181": 87,
        "3182": 163,
        "3183": 11,
        "3184": 202,
        "3185": 254,
        "3186": 149,
        "3187": 121,
        "3188": 67,
        "3189": 166,
        "3190": 17,
        "3191": 157,
        "3192": 13,
        "3193": 9,
        "3194": 62,
        "3195": 208,
        "3196": 24,
        "3197": 138,
        "3198": 123,
        "3199": 224,
        "3200": 190,
        "3201": 78,
        "3202": 181,
        "3203": 31,
        "3204": 126,
        "3205": 63,
        "3206": 212,
        "3207": 240,
        "3208": 126,
        "3209": 129,
        "3210": 152,
        "3211": 199,
        "3212": 117,
        "3213": 150,
        "3214": 185,
        "3215": 66,
        "3216": 253,
        "3217": 187,
        "3218": 184,
        "3219": 248,
        "3220": 177,
        "3221": 3,
        "3222": 144,
        "3223": 142,
        "3224": 154,
        "3225": 46,
        "3226": 22,
        "3227": 38,
        "3228": 130,
        "3229": 184,
        "3230": 222,
        "3231": 211,
        "3232": 27,
        "3233": 130,
        "3234": 92,
        "3235": 193,
        "3236": 28,
        "3237": 247,
        "3238": 10,
        "3239": 200,
        "3240": 77,
        "3241": 230,
        "3242": 243,
        "3243": 196,
        "3244": 28,
        "3245": 185,
        "3246": 23,
        "3247": 105,
        "3248": 115,
        "3249": 79,
        "3250": 29,
        "3251": 150,
        "3252": 161,
        "3253": 207,
        "3254": 133,
        "3255": 13,
        "3256": 38,
        "3257": 45,
        "3258": 187,
        "3259": 152,
        "3260": 44,
        "3261": 249,
        "3262": 124,
        "3263": 4,
        "3264": 29,
        "3265": 221,
        "3266": 125,
        "3267": 246,
        "3268": 179,
        "3269": 174,
        "3270": 24,
        "3271": 122,
        "3272": 143,
        "3273": 210,
        "3274": 174,
        "3275": 236,
        "3276": 208,
        "3277": 57,
        "3278": 185,
        "3279": 60,
        "3280": 255,
        "3281": 190,
        "3282": 188,
        "3283": 133,
        "3284": 79,
        "3285": 130,
        "3286": 37,
        "3287": 110,
        "3288": 32,
        "3289": 25,
        "3290": 224,
        "3291": 48,
        "3292": 237,
        "3293": 247,
        "3294": 225,
        "3295": 114,
        "3296": 157,
        "3297": 112,
        "3298": 206,
        "3299": 13,
        "3300": 77,
        "3301": 250,
        "3302": 217,
        "3303": 44,
        "3304": 171,
        "3305": 121,
        "3306": 181,
        "3307": 111,
        "3308": 59,
        "3309": 178,
        "3310": 79,
        "3311": 176,
        "3312": 45,
        "3313": 224,
        "3314": 223,
        "3315": 88,
        "3316": 204,
        "3317": 164,
        "3318": 77,
        "3319": 195,
        "3320": 98,
        "3321": 96,
        "3322": 192,
        "3323": 191,
        "3324": 0,
        "3325": 95,
        "3326": 8,
        "3327": 227,
        "3328": 97,
        "3329": 5,
        "3330": 52,
        "3331": 78,
        "3332": 138,
        "3333": 47,
        "3334": 42,
        "3335": 100,
        "3336": 245,
        "3337": 132,
        "3338": 73,
        "3339": 217,
        "3340": 126,
        "3341": 72,
        "3342": 196,
        "3343": 2,
        "3344": 50,
        "3345": 167,
        "3346": 177,
        "3347": 210,
        "3348": 255,
        "3349": 46,
        "3350": 25,
        "3351": 243,
        "3352": 208,
        "3353": 17,
        "3354": 169,
        "3355": 159,
        "3356": 9,
        "3357": 108,
        "3358": 242,
        "3359": 229,
        "3360": 28,
        "3361": 232,
        "3362": 130,
        "3363": 245,
        "3364": 197,
        "3365": 119,
        "3366": 137,
        "3367": 232,
        "3368": 188,
        "3369": 54,
        "3370": 175,
        "3371": 253,
        "3372": 234,
        "3373": 73,
        "3374": 163,
        "3375": 82,
        "3376": 91,
        "3377": 250,
        "3378": 130,
        "3379": 17,
        "3380": 192,
        "3381": 188,
        "3382": 102,
        "3383": 157,
        "3384": 57,
        "3385": 144,
        "3386": 88,
        "3387": 39,
        "3388": 105,
        "3389": 137,
        "3390": 112,
        "3391": 133,
        "3392": 167,
        "3393": 61,
        "3394": 63,
        "3395": 47,
        "3396": 9,
        "3397": 31,
        "3398": 13,
        "3399": 198,
        "3400": 81,
        "3401": 155,
        "3402": 243,
        "3403": 183,
        "3404": 193,
        "3405": 102,
        "3406": 48,
        "3407": 219,
        "3408": 107,
        "3409": 209,
        "3410": 235,
        "3411": 184,
        "3412": 28,
        "3413": 54,
        "3414": 176,
        "3415": 147,
        "3416": 148,
        "3417": 126,
        "3418": 220,
        "3419": 1,
        "3420": 59,
        "3421": 47,
        "3422": 182,
        "3423": 46,
        "3424": 123,
        "3425": 127,
        "3426": 34,
        "3427": 29,
        "3428": 142,
        "3429": 72,
        "3430": 183,
        "3431": 101,
        "3432": 25,
        "3433": 212,
        "3434": 9,
        "3435": 72,
        "3436": 150,
        "3437": 213,
        "3438": 74,
        "3439": 141,
        "3440": 228,
        "3441": 70,
        "3442": 12,
        "3443": 32,
        "3444": 21,
        "3445": 110,
        "3446": 146,
        "3447": 103,
        "3448": 159,
        "3449": 235,
        "3450": 29,
        "3451": 27,
        "3452": 253,
        "3453": 89,
        "3454": 229,
        "3455": 144,
        "3456": 34,
        "3457": 74,
        "3458": 155,
        "3459": 156,
        "3460": 110,
        "3461": 104,
        "3462": 231,
        "3463": 239,
        "3464": 99,
        "3465": 177,
        "3466": 24,
        "3467": 13,
        "3468": 0,
        "3469": 55,
        "3470": 22,
        "3471": 233,
        "3472": 60,
        "3473": 20,
        "3474": 199,
        "3475": 239,
        "3476": 99,
        "3477": 187,
        "3478": 21,
        "3479": 243,
        "3480": 37,
        "3481": 137,
        "3482": 77,
        "3483": 94,
        "3484": 60,
        "3485": 127,
        "3486": 81,
        "3487": 86,
        "3488": 168,
        "3489": 52,
        "3490": 67,
        "3491": 188,
        "3492": 95,
        "3493": 199,
        "3494": 107,
        "3495": 115,
        "3496": 75,
        "3497": 218,
        "3498": 58,
        "3499": 64,
        "3500": 149,
        "3501": 205,
        "3502": 146,
        "3503": 89,
        "3504": 53,
        "3505": 212,
        "3506": 232,
        "3507": 160,
        "3508": 130,
        "3509": 160,
        "3510": 247,
        "3511": 144,
        "3512": 132,
        "3513": 10,
        "3514": 159,
        "3515": 223,
        "3516": 193,
        "3517": 170,
        "3518": 134,
        "3519": 80,
        "3520": 55,
        "3521": 213,
        "3522": 84,
        "3523": 230,
        "3524": 235,
        "3525": 200,
        "3526": 202,
        "3527": 32,
        "3528": 51,
        "3529": 124,
        "3530": 230,
        "3531": 215,
        "3532": 180,
        "3533": 134,
        "3534": 31,
        "3535": 226,
        "3536": 21,
        "3537": 153,
        "3538": 161,
        "3539": 35,
        "3540": 32,
        "3541": 17,
        "3542": 210,
        "3543": 187,
        "3544": 147,
        "3545": 137,
        "3546": 118,
        "3547": 154,
        "3548": 121,
        "3549": 255,
        "3550": 128,
        "3551": 116,
        "3552": 159,
        "3553": 172,
        "3554": 184,
        "3555": 248,
        "3556": 106,
        "3557": 78,
        "3558": 122,
        "3559": 0,
        "3560": 20,
        "3561": 207,
        "3562": 103,
        "3563": 248,
        "3564": 163,
        "3565": 23,
        "3566": 99,
        "3567": 221,
        "3568": 30,
        "3569": 89,
        "3570": 122,
        "3571": 1,
        "3572": 75,
        "3573": 174,
        "3574": 40,
        "3575": 226,
        "3576": 43,
        "3577": 226,
        "3578": 252,
        "3579": 16,
        "3580": 171,
        "3581": 103,
        "3582": 145,
        "3583": 250,
        "3584": 62,
        "3585": 179,
        "3586": 101,
        "3587": 206,
        "3588": 164,
        "3589": 15,
        "3590": 24,
        "3591": 79,
        "3592": 3,
        "3593": 40,
        "3594": 60,
        "3595": 178,
        "3596": 173,
        "3597": 112,
        "3598": 242,
        "3599": 156,
        "3600": 234,
        "3601": 217,
        "3602": 124,
        "3603": 65,
        "3604": 155,
        "3605": 123,
        "3606": 221,
        "3607": 165,
        "3608": 41,
        "3609": 17,
        "3610": 84,
        "3611": 50,
        "3612": 209,
        "3613": 232,
        "3614": 32,
        "3615": 103,
        "3616": 57,
        "3617": 100,
        "3618": 132,
        "3619": 10,
        "3620": 248,
        "3621": 235,
        "3622": 222,
        "3623": 65,
        "3624": 182,
        "3625": 17,
        "3626": 83,
        "3627": 29,
        "3628": 2,
        "3629": 26,
        "3630": 216,
        "3631": 225,
        "3632": 52,
        "3633": 26,
        "3634": 96,
        "3635": 178,
        "3636": 97,
        "3637": 31,
        "3638": 153,
        "3639": 162,
        "3640": 143,
        "3641": 194,
        "3642": 21,
        "3643": 59,
        "3644": 193,
        "3645": 30,
        "3646": 124,
        "3647": 224,
        "3648": 220,
        "3649": 132,
        "3650": 125,
        "3651": 63,
        "3652": 122,
        "3653": 108,
        "3654": 244,
        "3655": 12,
        "3656": 36,
        "3657": 78,
        "3658": 209,
        "3659": 120,
        "3660": 19,
        "3661": 142,
        "3662": 83,
        "3663": 236,
        "3664": 212,
        "3665": 113,
        "3666": 228,
        "3667": 8,
        "3668": 94,
        "3669": 158,
        "3670": 89,
        "3671": 128,
        "3672": 177,
        "3673": 27,
        "3674": 253,
        "3675": 74,
        "3676": 116,
        "3677": 23,
        "3678": 139,
        "3679": 225,
        "3680": 14,
        "3681": 247,
        "3682": 225,
        "3683": 138,
        "3684": 183,
        "3685": 240,
        "3686": 85,
        "3687": 50,
        "3688": 207,
        "3689": 224,
        "3690": 7,
        "3691": 127,
        "3692": 63,
        "3693": 34,
        "3694": 243,
        "3695": 71,
        "3696": 17,
        "3697": 77,
        "3698": 211,
        "3699": 35,
        "3700": 204,
        "3701": 107,
        "3702": 30,
        "3703": 77,
        "3704": 59,
        "3705": 255,
        "3706": 139,
        "3707": 164,
        "3708": 0,
        "3709": 61,
        "3710": 192,
        "3711": 35,
        "3712": 238,
        "3713": 136,
        "3714": 154,
        "3715": 159,
        "3716": 204,
        "3717": 35,
        "3718": 135,
        "3719": 152,
        "3720": 204,
        "3721": 21,
        "3722": 137,
        "3723": 158,
        "3724": 83,
        "3725": 62,
        "3726": 17,
        "3727": 200,
        "3728": 95,
        "3729": 95,
        "3730": 196,
        "3731": 57,
        "3732": 64,
        "3733": 97,
        "3734": 109,
        "3735": 198,
        "3736": 79,
        "3737": 122,
        "3738": 82,
        "3739": 178,
        "3740": 29,
        "3741": 51,
        "3742": 26,
        "3743": 26,
        "3744": 77,
        "3745": 98,
        "3746": 76,
        "3747": 148,
        "3748": 188,
        "3749": 191,
        "3750": 184,
        "3751": 94,
        "3752": 4,
        "3753": 206,
        "3754": 188,
        "3755": 126,
        "3756": 112,
        "3757": 168,
        "3758": 228,
        "3759": 2,
        "3760": 199,
        "3761": 140,
        "3762": 169,
        "3763": 90,
        "3764": 99,
        "3765": 26,
        "3766": 26,
        "3767": 37,
        "3768": 190,
        "3769": 220,
        "3770": 91,
        "3771": 143,
        "3772": 213,
        "3773": 52,
        "3774": 1,
        "3775": 58,
        "3776": 82,
        "3777": 130,
        "3778": 58,
        "3779": 116,
        "3780": 3,
        "3781": 243,
        "3782": 242,
        "3783": 112,
        "3784": 26,
        "3785": 217,
        "3786": 199,
        "3787": 238,
        "3788": 209,
        "3789": 215,
        "3790": 186,
        "3791": 74,
        "3792": 165,
        "3793": 23,
        "3794": 219,
        "3795": 140,
        "3796": 119,
        "3797": 145,
        "3798": 68,
        "3799": 127,
        "3800": 73,
        "3801": 134,
        "3802": 251,
        "3803": 143,
        "3804": 230,
        "3805": 249,
        "3806": 236,
        "3807": 75,
        "3808": 118,
        "3809": 95,
        "3810": 204,
        "3811": 210,
        "3812": 65,
        "3813": 75,
        "3814": 230,
        "3815": 64,
        "3816": 238,
        "3817": 202,
        "3818": 44,
        "3819": 173,
        "3820": 65,
        "3821": 58,
        "3822": 209,
        "3823": 2,
        "3824": 63,
        "3825": 230,
        "3826": 156,
        "3827": 192,
        "3828": 198,
        "3829": 223,
        "3830": 68,
        "3831": 155,
        "3832": 251,
        "3833": 136,
        "3834": 204,
        "3835": 93,
        "3836": 58,
        "3837": 240,
        "3838": 51,
        "3839": 106,
        "3840": 206,
        "3841": 122,
        "3842": 234,
        "3843": 173,
        "3844": 194,
        "3845": 192,
        "3846": 91,
        "3847": 49,
        "3848": 243,
        "3849": 61,
        "3850": 221,
        "3851": 85,
        "3852": 220,
        "3853": 0,
        "3854": 117,
        "3855": 165,
        "3856": 172,
        "3857": 232,
        "3858": 217,
        "3859": 97,
        "3860": 26,
        "3861": 143,
        "3862": 230,
        "3863": 250,
        "3864": 238,
        "3865": 177,
        "3866": 127,
        "3867": 78,
        "3868": 225,
        "3869": 164,
        "3870": 142,
        "3871": 72,
        "3872": 255,
        "3873": 127,
        "3874": 122,
        "3875": 160,
        "3876": 131,
        "3877": 167,
        "3878": 9,
        "3879": 56,
        "3880": 252,
        "3881": 180,
        "3882": 62,
        "3883": 216,
        "3884": 125,
        "3885": 139,
        "3886": 116,
        "3887": 114,
        "3888": 203,
        "3889": 16,
        "3890": 75,
        "3891": 84,
        "3892": 1,
        "3893": 142,
        "3894": 238,
        "3895": 212,
        "3896": 169,
        "3897": 183,
        "3898": 26,
        "3899": 141,
        "3900": 208,
        "3901": 174,
        "3902": 128,
        "3903": 0,
        "3904": 89,
        "3905": 253,
        "3906": 223,
        "3907": 231,
        "3908": 162,
        "3909": 137,
        "3910": 29,
        "3911": 16,
        "3912": 57,
        "3913": 182,
        "3914": 30,
        "3915": 243,
        "3916": 195,
        "3917": 114,
        "3918": 147,
        "3919": 242,
        "3920": 248,
        "3921": 143,
        "3922": 123,
        "3923": 89,
        "3924": 34,
        "3925": 78,
        "3926": 8,
        "3927": 197,
        "3928": 184,
        "3929": 132,
        "3930": 253,
        "3931": 166,
        "3932": 151,
        "3933": 247,
        "3934": 146,
        "3935": 11,
        "3936": 96,
        "3937": 159,
        "3938": 0,
        "3939": 244,
        "3940": 109,
        "3941": 225,
        "3942": 171,
        "3943": 28,
        "3944": 43,
        "3945": 2,
        "3946": 224,
        "3947": 79,
        "3948": 35,
        "3949": 248,
        "3950": 47,
        "3951": 247,
        "3952": 116,
        "3953": 156,
        "3954": 205,
        "3955": 126,
        "3956": 70,
        "3957": 111,
        "3958": 121,
        "3959": 126,
        "3960": 147,
        "3961": 118,
        "3962": 108,
        "3963": 43,
        "3964": 199,
        "3965": 118,
        "3966": 60,
        "3967": 160,
        "3968": 57,
        "3969": 246,
        "3970": 151,
        "3971": 42,
        "3972": 230,
        "3973": 144,
        "3974": 4,
        "3975": 252,
        "3976": 104,
        "3977": 166,
        "3978": 101,
        "3979": 82,
        "3980": 177,
        "3981": 32,
        "3982": 6,
        "3983": 54,
        "3984": 48,
        "3985": 143,
        "3986": 215,
        "3987": 143,
        "3988": 28,
        "3989": 212,
        "3990": 246,
        "3991": 193,
        "3992": 14,
        "3993": 180,
        "3994": 52,
        "3995": 163,
        "3996": 131,
        "3997": 152,
        "3998": 181,
        "3999": 195,
        "4000": 20,
        "4001": 140,
        "4002": 60,
        "4003": 59,
        "4004": 12,
        "4005": 96,
        "4006": 183,
        "4007": 194,
        "4008": 163,
        "4009": 107,
        "4010": 38,
        "4011": 29,
        "4012": 45,
        "4013": 112,
        "4014": 59,
        "4015": 48,
        "4016": 41,
        "4017": 106,
        "4018": 226,
        "4019": 22,
        "4020": 211,
        "4021": 214,
        "4022": 106,
        "4023": 163,
        "4024": 128,
        "4025": 130,
        "4026": 184,
        "4027": 13,
        "4028": 210,
        "4029": 230,
        "4030": 155,
        "4031": 139,
        "4032": 242,
        "4033": 142,
        "4034": 189,
        "4035": 135,
        "4036": 89,
        "4037": 33,
        "4038": 165,
        "4039": 228,
        "4040": 122,
        "4041": 101,
        "4042": 36,
        "4043": 47,
        "4044": 167,
        "4045": 148,
        "4046": 5,
        "4047": 105,
        "4048": 54,
        "4049": 46,
        "4050": 147,
        "4051": 51,
        "4052": 159,
        "4053": 39,
        "4054": 238,
        "4055": 198,
        "4056": 27,
        "4057": 44,
        "4058": 7,
        "4059": 67,
        "4060": 39,
        "4061": 134,
        "4062": 68,
        "4063": 96,
        "4064": 105,
        "4065": 237,
        "4066": 253,
        "4067": 202,
        "4068": 52,
        "4069": 238,
        "4070": 109,
        "4071": 17,
        "4072": 83,
        "4073": 242,
        "4074": 229,
        "4075": 121,
        "4076": 160,
        "4077": 199,
        "4078": 73,
        "4079": 19,
        "4080": 124,
        "4081": 0,
        "4082": 13,
        "4083": 132,
        "4084": 171,
        "4085": 248,
        "4086": 138,
        "4087": 230,
        "4088": 109,
        "4089": 243,
        "4090": 143,
        "4091": 45,
        "4092": 45,
        "4093": 169,
        "4094": 170,
        "4095": 82,
        "4096": 41,
        "4097": 15,
        "4098": 95,
        "4099": 214,
        "4100": 237,
        "4101": 240,
        "4102": 216,
        "4103": 145,
        "4104": 46,
        "4105": 90,
        "4106": 90,
        "4107": 203,
        "4108": 81,
        "4109": 84,
        "4110": 145,
        "4111": 6,
        "4112": 198,
        "4113": 170,
        "4114": 183,
        "4115": 235,
        "4116": 212,
        "4117": 163,
        "4118": 253,
        "4119": 66,
        "4120": 24,
        "4121": 34,
        "4122": 139,
        "4123": 155,
        "4124": 167,
        "4125": 99,
        "4126": 34,
        "4127": 111,
        "4128": 185,
        "4129": 8,
        "4130": 66,
        "4131": 85,
        "4132": 86,
        "4133": 232,
        "4134": 6,
        "4135": 102,
        "4136": 198,
        "4137": 142,
        "4138": 51,
        "4139": 129,
        "4140": 66,
        "4141": 152,
        "4142": 241,
        "4143": 145,
        "4144": 92,
        "4145": 113,
        "4146": 166,
        "4147": 87,
        "4148": 188,
        "4149": 144,
        "4150": 67,
        "4151": 146,
        "4152": 228,
        "4153": 252,
        "4154": 113,
        "4155": 68,
        "4156": 111,
        "4157": 249,
        "4158": 99,
        "4159": 26,
        "4160": 242,
        "4161": 82,
        "4162": 135,
        "4163": 245,
        "4164": 112,
        "4165": 177,
        "4166": 39,
        "4167": 0,
        "4168": 61,
        "4169": 16,
        "4170": 149,
        "4171": 200,
        "4172": 110,
        "4173": 49,
        "4174": 190,
        "4175": 8,
        "4176": 39,
        "4177": 51,
        "4178": 195,
        "4179": 243,
        "4180": 217,
        "4181": 15,
        "4182": 174,
        "4183": 149,
        "4184": 181,
        "4185": 214,
        "4186": 179,
        "4187": 132,
        "4188": 234,
        "4189": 34,
        "4190": 136,
        "4191": 101,
        "4192": 118,
        "4193": 72,
        "4194": 245,
        "4195": 111,
        "4196": 99,
        "4197": 144,
        "4198": 74,
        "4199": 241,
        "4200": 167,
        "4201": 144,
        "4202": 88,
        "4203": 2,
        "4204": 34,
        "4205": 217,
        "4206": 122,
        "4207": 150,
        "4208": 246,
        "4209": 2,
        "4210": 243,
        "4211": 224,
        "4212": 3,
        "4213": 61,
        "4214": 251,
        "4215": 35,
        "4216": 161,
        "4217": 168,
        "4218": 25,
        "4219": 236,
        "4220": 232,
        "4221": 78,
        "4222": 113,
        "4223": 220,
        "4224": 160,
        "4225": 64,
        "4226": 111,
        "4227": 106,
        "4228": 149,
        "4229": 182,
        "4230": 41,
        "4231": 33,
        "4232": 54,
        "4233": 212,
        "4234": 204,
        "4235": 24,
        "4236": 159,
        "4237": 9,
        "4238": 45,
        "4239": 113,
        "4240": 13,
        "4241": 67,
        "4242": 248,
        "4243": 1,
        "4244": 79,
        "4245": 208,
        "4246": 85,
        "4247": 62,
        "4248": 22,
        "4249": 242,
        "4250": 237,
        "4251": 188,
        "4252": 104,
        "4253": 21,
        "4254": 10,
        "4255": 204,
        "4256": 109,
        "4257": 140,
        "4258": 196,
        "4259": 142,
        "4260": 78,
        "4261": 119,
        "4262": 223,
        "4263": 107,
        "4264": 94,
        "4265": 52,
        "4266": 228,
        "4267": 52,
        "4268": 195,
        "4269": 73,
        "4270": 55,
        "4271": 141,
        "4272": 63,
        "4273": 25,
        "4274": 110,
        "4275": 13,
        "4276": 247,
        "4277": 243,
        "4278": 39,
        "4279": 182,
        "4280": 51,
        "4281": 99,
        "4282": 149,
        "4283": 92,
        "4284": 74,
        "4285": 215,
        "4286": 119,
        "4287": 150,
        "4288": 241,
        "4289": 51,
        "4290": 3,
        "4291": 211,
        "4292": 191,
        "4293": 11,
        "4294": 237,
        "4295": 218,
        "4296": 143,
        "4297": 65,
        "4298": 114,
        "4299": 127,
        "4300": 179,
        "4301": 141,
        "4302": 225,
        "4303": 40,
        "4304": 186,
        "4305": 191,
        "4306": 209,
        "4307": 155,
        "4308": 67,
        "4309": 79,
        "4310": 55,
        "4311": 130,
        "4312": 60,
        "4313": 105,
        "4314": 91,
        "4315": 48,
        "4316": 255,
        "4317": 173,
        "4318": 140,
        "4319": 116,
        "4320": 98,
        "4321": 250,
        "4322": 90,
        "4323": 162,
        "4324": 12,
        "4325": 68,
        "4326": 198,
        "4327": 207,
        "4328": 137,
        "4329": 151,
        "4330": 176,
        "4331": 108,
        "4332": 228,
        "4333": 181,
        "4334": 83,
        "4335": 29,
        "4336": 116,
        "4337": 140,
        "4338": 140,
        "4339": 174,
        "4340": 35,
        "4341": 33,
        "4342": 26,
        "4343": 143,
        "4344": 80,
        "4345": 89,
        "4346": 121,
        "4347": 12,
        "4348": 202,
        "4349": 23,
        "4350": 22,
        "4351": 28,
        "4352": 130,
        "4353": 195,
        "4354": 214,
        "4355": 179,
        "4356": 0,
        "4357": 65,
        "4358": 160,
        "4359": 130,
        "4360": 137,
        "4361": 178,
        "4362": 47,
        "4363": 11,
        "4364": 127,
        "4365": 1,
        "4366": 167,
        "4367": 48,
        "4368": 152,
        "4369": 19,
        "4370": 145,
        "4371": 244,
        "4372": 156,
        "4373": 169,
        "4374": 182,
        "4375": 95,
        "4376": 32,
        "4377": 69,
        "4378": 53,
        "4379": 18,
        "4380": 224,
        "4381": 152,
        "4382": 43,
        "4383": 6,
        "4384": 5,
        "4385": 132,
        "4386": 182,
        "4387": 121,
        "4388": 199,
        "4389": 52,
        "4390": 71,
        "4391": 104,
        "4392": 151,
        "4393": 21,
        "4394": 4,
        "4395": 211,
        "4396": 251,
        "4397": 143,
        "4398": 88,
        "4399": 236,
        "4400": 212,
        "4401": 175,
        "4402": 117,
        "4403": 113,
        "4404": 143,
        "4405": 119,
        "4406": 137,
        "4407": 25,
        "4408": 151,
        "4409": 251,
        "4410": 67,
        "4411": 226,
        "4412": 23,
        "4413": 200,
        "4414": 62,
        "4415": 140,
        "4416": 196,
        "4417": 175,
        "4418": 113,
        "4419": 88,
        "4420": 193,
        "4421": 47,
        "4422": 120,
        "4423": 120,
        "4424": 28,
        "4425": 54,
        "4426": 135,
        "4427": 1,
        "4428": 100,
        "4429": 105,
        "4430": 5,
        "4431": 196,
        "4432": 34,
        "4433": 237,
        "4434": 237,
        "4435": 154,
        "4436": 219,
        "4437": 93,
        "4438": 125,
        "4439": 50,
        "4440": 103,
        "4441": 199,
        "4442": 138,
        "4443": 16,
        "4444": 232,
        "4445": 193,
        "4446": 194,
        "4447": 1,
        "4448": 249,
        "4449": 201,
        "4450": 173,
        "4451": 198,
        "4452": 176,
        "4453": 14,
        "4454": 90,
        "4455": 1,
        "4456": 113,
        "4457": 134,
        "4458": 22,
        "4459": 156,
        "4460": 145,
        "4461": 95,
        "4462": 118,
        "4463": 251,
        "4464": 63,
        "4465": 116,
        "4466": 14,
        "4467": 200,
        "4468": 56,
        "4469": 242,
        "4470": 108,
        "4471": 174,
        "4472": 216,
        "4473": 106,
        "4474": 236,
        "4475": 14,
        "4476": 76,
        "4477": 140,
        "4478": 221,
        "4479": 163,
        "4480": 173,
        "4481": 255,
        "4482": 209,
        "4483": 180,
        "4484": 131,
        "4485": 243,
        "4486": 244,
        "4487": 229,
        "4488": 42,
        "4489": 41,
        "4490": 221,
        "4491": 79,
        "4492": 77,
        "4493": 140,
        "4494": 74,
        "4495": 143,
        "4496": 22,
        "4497": 226,
        "4498": 182,
        "4499": 228,
        "4500": 13,
        "4501": 33,
        "4502": 6,
        "4503": 144,
        "4504": 10,
        "4505": 184,
        "4506": 164,
        "4507": 113,
        "4508": 57,
        "4509": 119,
        "4510": 102,
        "4511": 234,
        "4512": 135,
        "4513": 180,
        "4514": 215,
        "4515": 78,
        "4516": 195,
        "4517": 118,
        "4518": 182,
        "4519": 242,
        "4520": 225,
        "4521": 47,
        "4522": 69,
        "4523": 45,
        "4524": 24,
        "4525": 188,
        "4526": 118,
        "4527": 154,
        "4528": 165,
        "4529": 200,
        "4530": 73,
        "4531": 124,
        "4532": 10,
        "4533": 104,
        "4534": 134,
        "4535": 105,
        "4536": 231,
        "4537": 139,
        "4538": 255,
        "4539": 201,
        "4540": 170,
        "4541": 103,
        "4542": 234,
        "4543": 0,
        "4544": 212,
        "4545": 27,
        "4546": 40,
        "4547": 49,
        "4548": 100,
        "4549": 41,
        "4550": 78,
        "4551": 171,
        "4552": 247,
        "4553": 202,
        "4554": 161,
        "4555": 71,
        "4556": 182,
        "4557": 26,
        "4558": 240,
        "4559": 138,
        "4560": 35,
        "4561": 36,
        "4562": 192,
        "4563": 243,
        "4564": 46,
        "4565": 52,
        "4566": 236,
        "4567": 126,
        "4568": 87,
        "4569": 247,
        "4570": 83,
        "4571": 167,
        "4572": 241,
        "4573": 152,
        "4574": 30,
        "4575": 170,
        "4576": 23,
        "4577": 114,
        "4578": 28,
        "4579": 172,
        "4580": 29,
        "4581": 43,
        "4582": 101,
        "4583": 40,
        "4584": 194,
        "4585": 95,
        "4586": 198,
        "4587": 52,
        "4588": 40,
        "4589": 35,
        "4590": 5,
        "4591": 144,
        "4592": 136,
        "4593": 106,
        "4594": 27,
        "4595": 125,
        "4596": 137,
        "4597": 220,
        "4598": 175,
        "4599": 210,
        "4600": 252,
        "4601": 51,
        "4602": 93,
        "4603": 78,
        "4604": 99,
        "4605": 11,
        "4606": 14,
        "4607": 94,
        "4608": 65,
        "4609": 184,
        "4610": 23,
        "4611": 29,
        "4612": 90,
        "4613": 192,
        "4614": 90,
        "4615": 127,
        "4616": 18,
        "4617": 163,
        "4618": 195,
        "4619": 5,
        "4620": 90,
        "4621": 179,
        "4622": 118,
        "4623": 122,
        "4624": 2,
        "4625": 113,
        "4626": 44,
        "4627": 111,
        "4628": 178,
        "4629": 174,
        "4630": 11,
        "4631": 139,
        "4632": 83,
        "4633": 32,
        "4634": 57,
        "4635": 40,
        "4636": 193,
        "4637": 157,
        "4638": 99,
        "4639": 205,
        "4640": 9,
        "4641": 214,
        "4642": 110,
        "4643": 175,
        "4644": 41,
        "4645": 138,
        "4646": 169,
        "4647": 56,
        "4648": 186,
        "4649": 128,
        "4650": 80,
        "4651": 114,
        "4652": 200,
        "4653": 205,
        "4654": 248,
        "4655": 231,
        "4656": 34,
        "4657": 130,
        "4658": 236,
        "4659": 240,
        "4660": 111,
        "4661": 144,
        "4662": 199,
        "4663": 118,
        "4664": 253,
        "4665": 172,
        "4666": 69,
        "4667": 187,
        "4668": 5,
        "4669": 44,
        "4670": 91,
        "4671": 248,
        "4672": 84,
        "4673": 222,
        "4674": 61,
        "4675": 244,
        "4676": 102,
        "4677": 25,
        "4678": 31,
        "4679": 132,
        "4680": 84,
        "4681": 155,
        "4682": 148,
        "4683": 17,
        "4684": 4,
        "4685": 108,
        "4686": 192,
        "4687": 163,
        "4688": 231,
        "4689": 74,
        "4690": 112,
        "4691": 9,
        "4692": 177,
        "4693": 198,
        "4694": 140,
        "4695": 72,
        "4696": 115,
        "4697": 246,
        "4698": 118,
        "4699": 157,
        "4700": 181,
        "4701": 146,
        "4702": 163,
        "4703": 121,
        "4704": 113,
        "4705": 40,
        "4706": 150,
        "4707": 46,
        "4708": 24,
        "4709": 250,
        "4710": 82,
        "4711": 118,
        "4712": 37,
        "4713": 112,
        "4714": 33,
        "4715": 121,
        "4716": 2,
        "4717": 154,
        "4718": 148,
        "4719": 83,
        "4720": 194,
        "4721": 233,
        "4722": 156,
        "4723": 132,
        "4724": 98,
        "4725": 3,
        "4726": 100,
        "4727": 181,
        "4728": 178,
        "4729": 212,
        "4730": 57,
        "4731": 61,
        "4732": 255,
        "4733": 123,
        "4734": 17,
        "4735": 180,
        "4736": 223,
        "4737": 231,
        "4738": 174,
        "4739": 152,
        "4740": 158,
        "4741": 105,
        "4742": 87,
        "4743": 16,
        "4744": 150,
        "4745": 155,
        "4746": 126,
        "4747": 162,
        "4748": 162,
        "4749": 146,
        "4750": 136,
        "4751": 128,
        "4752": 197,
        "4753": 118,
        "4754": 87,
        "4755": 122,
        "4756": 157,
        "4757": 58,
        "4758": 108,
        "4759": 81,
        "4760": 214,
        "4761": 227,
        "4762": 202,
        "4763": 231,
        "4764": 216,
        "4765": 241,
        "4766": 106,
        "4767": 167,
        "4768": 164,
        "4769": 10,
        "4770": 111,
        "4771": 35,
        "4772": 37,
        "4773": 76,
        "4774": 212,
        "4775": 223,
        "4776": 246,
        "4777": 18,
        "4778": 145,
        "4779": 104,
        "4780": 167,
        "4781": 96,
        "4782": 79,
        "4783": 237,
        "4784": 71,
        "4785": 212,
        "4786": 237,
        "4787": 110,
        "4788": 113,
        "4789": 70,
        "4790": 112,
        "4791": 42,
        "4792": 20,
        "4793": 151,
        "4794": 17,
        "4795": 185,
        "4796": 221,
        "4797": 12,
        "4798": 96,
        "4799": 20,
        "4800": 180,
        "4801": 47,
        "4802": 21,
        "4803": 38,
        "4804": 14,
        "4805": 102,
        "4806": 60,
        "4807": 100,
        "4808": 239,
        "4809": 165,
        "4810": 95,
        "4811": 58,
        "4812": 44,
        "4813": 20,
        "4814": 1,
        "4815": 31,
        "4816": 139,
        "4817": 95,
        "4818": 78,
        "4819": 220,
        "4820": 176,
        "4821": 55,
        "4822": 169,
        "4823": 55,
        "4824": 205,
        "4825": 112,
        "4826": 93,
        "4827": 61,
        "4828": 7,
        "4829": 3,
        "4830": 137,
        "4831": 26,
        "4832": 228,
        "4833": 145,
        "4834": 78,
        "4835": 69,
        "4836": 163,
        "4837": 193,
        "4838": 75,
        "4839": 94,
        "4840": 170,
        "4841": 230,
        "4842": 58,
        "4843": 111,
        "4844": 40,
        "4845": 94,
        "4846": 53,
        "4847": 194,
        "4848": 230,
        "4849": 16,
        "4850": 9,
        "4851": 36,
        "4852": 66,
        "4853": 248,
        "4854": 150,
        "4855": 155,
        "4856": 107,
        "4857": 223,
        "4858": 143,
        "4859": 234,
        "4860": 167,
        "4861": 172,
        "4862": 228,
        "4863": 147,
        "4864": 55,
        "4865": 255,
        "4866": 205,
        "4867": 225,
        "4868": 251,
        "4869": 55,
        "4870": 46,
        "4871": 85,
        "4872": 77,
        "4873": 119,
        "4874": 132,
        "4875": 249,
        "4876": 208,
        "4877": 231,
        "4878": 103,
        "4879": 9,
        "4880": 88,
        "4881": 63,
        "4882": 173,
        "4883": 1,
        "4884": 157,
        "4885": 134,
        "4886": 145,
        "4887": 51,
        "4888": 31,
        "4889": 8,
        "4890": 190,
        "4891": 91,
        "4892": 247,
        "4893": 102,
        "4894": 76,
        "4895": 229,
        "4896": 173,
        "4897": 138,
        "4898": 126,
        "4899": 246,
        "4900": 196,
        "4901": 63,
        "4902": 17,
        "4903": 76,
        "4904": 48,
        "4905": 59,
        "4906": 18,
        "4907": 85,
        "4908": 43,
        "4909": 148,
        "4910": 70,
        "4911": 52,
        "4912": 254,
        "4913": 197,
        "4914": 68,
        "4915": 193,
        "4916": 248,
        "4917": 44,
        "4918": 114,
        "4919": 34,
        "4920": 60,
        "4921": 157,
        "4922": 220,
        "4923": 185,
        "4924": 255,
        "4925": 206,
        "4926": 254,
        "4927": 223,
        "4928": 51,
        "4929": 152,
        "4930": 8,
        "4931": 235,
        "4932": 96,
        "4933": 194,
        "4934": 197,
        "4935": 89,
        "4936": 114,
        "4937": 199,
        "4938": 56,
        "4939": 103,
        "4940": 182,
        "4941": 117,
        "4942": 179,
        "4943": 205,
        "4944": 103,
        "4945": 59,
        "4946": 148,
        "4947": 116,
        "4948": 137,
        "4949": 55,
        "4950": 23,
        "4951": 91,
        "4952": 131,
        "4953": 109,
        "4954": 169,
        "4955": 200,
        "4956": 230,
        "4957": 243,
        "4958": 20,
        "4959": 131,
        "4960": 221,
        "4961": 147,
        "4962": 169,
        "4963": 35,
        "4964": 190,
        "4965": 69,
        "4966": 36,
        "4967": 86,
        "4968": 181,
        "4969": 179,
        "4970": 141,
        "4971": 230,
        "4972": 244,
        "4973": 212,
        "4974": 228,
        "4975": 164,
        "4976": 106,
        "4977": 12,
        "4978": 240,
        "4979": 151,
        "4980": 50,
        "4981": 147,
        "4982": 233,
        "4983": 108,
        "4984": 204,
        "4985": 198,
        "4986": 189,
        "4987": 40,
        "4988": 203,
        "4989": 198,
        "4990": 107,
        "4991": 123,
        "4992": 14,
        "4993": 170,
        "4994": 165,
        "4995": 82,
        "4996": 52,
        "4997": 253,
        "4998": 80,
        "4999": 48,
        "5000": 163,
        "5001": 206,
        "5002": 51,
        "5003": 26,
        "5004": 39,
        "5005": 155,
        "5006": 242,
        "5007": 15,
        "5008": 74,
        "5009": 159,
        "5010": 85,
        "5011": 201,
        "5012": 194,
        "5013": 58,
        "5014": 201,
        "5015": 86,
        "5016": 113,
        "5017": 42,
        "5018": 74,
        "5019": 109,
        "5020": 74,
        "5021": 133,
        "5022": 97,
        "5023": 97,
        "5024": 172,
        "5025": 79,
        "5026": 146,
        "5027": 29,
        "5028": 36,
        "5029": 209,
        "5030": 251,
        "5031": 223,
        "5032": 147,
        "5033": 119,
        "5034": 83,
        "5035": 106,
        "5036": 79,
        "5037": 7,
        "5038": 145,
        "5039": 167,
        "5040": 42,
        "5041": 244,
        "5042": 255,
        "5043": 183,
        "5044": 139,
        "5045": 253,
        "5046": 26,
        "5047": 180,
        "5048": 121,
        "5049": 118,
        "5050": 136,
        "5051": 220,
        "5052": 187,
        "5053": 169,
        "5054": 186,
        "5055": 44,
        "5056": 2,
        "5057": 114,
        "5058": 255,
        "5059": 54,
        "5060": 230,
        "5061": 151,
        "5062": 138,
        "5063": 138,
        "5064": 14,
        "5065": 23,
        "5066": 151,
        "5067": 225,
        "5068": 238,
        "5069": 85,
        "5070": 14,
        "5071": 7,
        "5072": 140,
        "5073": 204,
        "5074": 56,
        "5075": 141,
        "5076": 37,
        "5077": 18,
        "5078": 202,
        "5079": 138,
        "5080": 235,
        "5081": 184,
        "5082": 214,
        "5083": 121,
        "5084": 245,
        "5085": 166,
        "5086": 148,
        "5087": 56,
        "5088": 225,
        "5089": 38,
        "5090": 35,
        "5091": 170,
        "5092": 64,
        "5093": 38,
        "5094": 84,
        "5095": 65,
        "5096": 26,
        "5097": 240,
        "5098": 172,
        "5099": 186,
        "5100": 126,
        "5101": 124,
        "5102": 24,
        "5103": 78,
        "5104": 56,
        "5105": 167,
        "5106": 65,
        "5107": 42,
        "5108": 119,
        "5109": 255,
        "5110": 78,
        "5111": 185,
        "5112": 22,
        "5113": 13,
        "5114": 115,
        "5115": 112,
        "5116": 18,
        "5117": 107,
        "5118": 70,
        "5119": 22,
        "5120": 103,
        "5121": 114,
        "5122": 225,
        "5123": 177,
        "5124": 127,
        "5125": 72,
        "5126": 185,
        "5127": 64,
        "5128": 146,
        "5129": 176,
        "5130": 47,
        "5131": 219,
        "5132": 109,
        "5133": 199,
        "5134": 214,
        "5135": 82,
        "5136": 255,
        "5137": 175,
        "5138": 98,
        "5139": 213,
        "5140": 20,
        "5141": 172,
        "5142": 91,
        "5143": 172,
        "5144": 72,
        "5145": 6,
        "5146": 81,
        "5147": 81,
        "5148": 189,
        "5149": 128,
        "5150": 59,
        "5151": 81,
        "5152": 197,
        "5153": 69,
        "5154": 175,
        "5155": 136,
        "5156": 37,
        "5157": 3,
        "5158": 247,
        "5159": 110,
        "5160": 108,
        "5161": 218,
        "5162": 140,
        "5163": 183,
        "5164": 148,
        "5165": 82,
        "5166": 5,
        "5167": 129,
        "5168": 118,
        "5169": 77,
        "5170": 66,
        "5171": 122,
        "5172": 133,
        "5173": 64,
        "5174": 23,
        "5175": 131,
        "5176": 33,
        "5177": 236,
        "5178": 77,
        "5179": 46,
        "5180": 139,
        "5181": 87,
        "5182": 116,
        "5183": 94,
        "5184": 208,
        "5185": 50,
        "5186": 40,
        "5187": 156,
        "5188": 66,
        "5189": 136,
        "5190": 15,
        "5191": 254,
        "5192": 187,
        "5193": 140,
        "5194": 133,
        "5195": 96,
        "5196": 251,
        "5197": 250,
        "5198": 136,
        "5199": 175,
        "5200": 21,
        "5201": 75,
        "5202": 132,
        "5203": 10,
        "5204": 75,
        "5205": 14,
        "5206": 235,
        "5207": 206,
        "5208": 205,
        "5209": 123,
        "5210": 246,
        "5211": 38,
        "5212": 62,
        "5213": 171,
        "5214": 181,
        "5215": 17,
        "5216": 153,
        "5217": 58,
        "5218": 99,
        "5219": 121,
        "5220": 208,
        "5221": 253,
        "5222": 63,
        "5223": 99,
        "5224": 99,
        "5225": 14,
        "5226": 38,
        "5227": 129,
        "5228": 11,
        "5229": 213,
        "5230": 109,
        "5231": 159,
        "5232": 79,
        "5233": 163,
        "5234": 150,
        "5235": 94,
        "5236": 77,
        "5237": 209,
        "5238": 43,
        "5239": 72,
        "5240": 140,
        "5241": 54,
        "5242": 172,
        "5243": 53,
        "5244": 151,
        "5245": 239,
        "5246": 93,
        "5247": 211,
        "5248": 151,
        "5249": 195,
        "5250": 63,
        "5251": 243,
        "5252": 77,
        "5253": 46,
        "5254": 147,
        "5255": 30,
        "5256": 101,
        "5257": 112,
        "5258": 161,
        "5259": 7,
        "5260": 79,
        "5261": 165,
        "5262": 4,
        "5263": 124,
        "5264": 124,
        "5265": 211,
        "5266": 4,
        "5267": 187,
        "5268": 20,
        "5269": 205,
        "5270": 149,
        "5271": 3,
        "5272": 13,
        "5273": 39,
        "5274": 191,
        "5275": 172,
        "5276": 156,
        "5277": 247,
        "5278": 46,
        "5279": 36,
        "5280": 108,
        "5281": 136,
        "5282": 57,
        "5283": 15,
        "5284": 173,
        "5285": 240,
        "5286": 238,
        "5287": 4,
        "5288": 208,
        "5289": 242,
        "5290": 87,
        "5291": 164,
        "5292": 222,
        "5293": 74,
        "5294": 209,
        "5295": 9,
        "5296": 59,
        "5297": 71,
        "5298": 46,
        "5299": 63,
        "5300": 150,
        "5301": 190,
        "5302": 152,
        "5303": 4,
        "5304": 250,
        "5305": 178,
        "5306": 20,
        "5307": 202,
        "5308": 232,
        "5309": 231,
        "5310": 145,
        "5311": 161,
        "5312": 167,
        "5313": 61,
        "5314": 215,
        "5315": 201,
        "5316": 76,
        "5317": 209,
        "5318": 77,
        "5319": 45,
        "5320": 36,
        "5321": 98,
        "5322": 79,
        "5323": 232,
        "5324": 156,
        "5325": 138,
        "5326": 142,
        "5327": 134,
        "5328": 175,
        "5329": 249,
        "5330": 42,
        "5331": 106,
        "5332": 204,
        "5333": 97,
        "5334": 150,
        "5335": 31,
        "5336": 152,
        "5337": 44,
        "5338": 244,
        "5339": 223,
        "5340": 235,
        "5341": 212,
        "5342": 142,
        "5343": 35,
        "5344": 206,
        "5345": 160,
        "5346": 101,
        "5347": 150,
        "5348": 128,
        "5349": 17,
        "5350": 111,
        "5351": 184,
        "5352": 121,
        "5353": 141,
        "5354": 220,
        "5355": 22,
        "5356": 181,
        "5357": 53,
        "5358": 46,
        "5359": 50,
        "5360": 119,
        "5361": 38,
        "5362": 63,
        "5363": 177,
        "5364": 132,
        "5365": 0,
        "5366": 221,
        "5367": 217,
        "5368": 40,
        "5369": 29,
        "5370": 53,
        "5371": 193,
        "5372": 85,
        "5373": 84,
        "5374": 205,
        "5375": 32,
        "5376": 236,
        "5377": 229,
        "5378": 74,
        "5379": 130,
        "5380": 134,
        "5381": 226,
        "5382": 199,
        "5383": 33,
        "5384": 182,
        "5385": 115,
        "5386": 221,
        "5387": 149,
        "5388": 226,
        "5389": 55,
        "5390": 98,
        "5391": 101,
        "5392": 83,
        "5393": 42,
        "5394": 187,
        "5395": 203,
        "5396": 1,
        "5397": 39,
        "5398": 18,
        "5399": 29,
        "5400": 144,
        "5401": 39,
        "5402": 189,
        "5403": 74,
        "5404": 137,
        "5405": 153,
        "5406": 77,
        "5407": 17,
        "5408": 82,
        "5409": 228,
        "5410": 152,
        "5411": 211,
        "5412": 131,
        "5413": 55,
        "5414": 46,
        "5415": 148,
        "5416": 87,
        "5417": 39,
        "5418": 100,
        "5419": 211,
        "5420": 244,
        "5421": 214,
        "5422": 57,
        "5423": 2,
        "5424": 114,
        "5425": 214,
        "5426": 211,
        "5427": 206,
        "5428": 231,
        "5429": 19,
        "5430": 87,
        "5431": 95,
        "5432": 167,
        "5433": 213,
        "5434": 52,
        "5435": 43,
        "5436": 182,
        "5437": 2,
        "5438": 37,
        "5439": 153,
        "5440": 90,
        "5441": 85,
        "5442": 198,
        "5443": 64,
        "5444": 169,
        "5445": 67,
        "5446": 51,
        "5447": 38,
        "5448": 213,
        "5449": 81,
        "5450": 81,
        "5451": 27,
        "5452": 164,
        "5453": 111,
        "5454": 39,
        "5455": 194,
        "5456": 172,
        "5457": 21,
        "5458": 162,
        "5459": 93,
        "5460": 244,
        "5461": 107,
        "5462": 214,
        "5463": 13,
        "5464": 103,
        "5465": 130,
        "5466": 20,
        "5467": 124,
        "5468": 49,
        "5469": 160,
        "5470": 49,
        "5471": 21,
        "5472": 223,
        "5473": 115,
        "5474": 148,
        "5475": 211,
        "5476": 47,
        "5477": 83,
        "5478": 8,
        "5479": 19,
        "5480": 161,
        "5481": 27,
        "5482": 13,
        "5483": 59,
        "5484": 96,
        "5485": 228,
        "5486": 247,
        "5487": 37,
        "5488": 186,
        "5489": 234,
        "5490": 238,
        "5491": 100,
        "5492": 63,
        "5493": 35,
        "5494": 79,
        "5495": 136,
        "5496": 141,
        "5497": 234,
        "5498": 104,
        "5499": 232,
        "5500": 248,
        "5501": 46,
        "5502": 106,
        "5503": 45,
        "5504": 139,
        "5505": 24,
        "5506": 57,
        "5507": 12,
        "5508": 31,
        "5509": 23,
        "5510": 214,
        "5511": 107,
        "5512": 13,
        "5513": 197,
        "5514": 179,
        "5515": 51,
        "5516": 23,
        "5517": 212,
        "5518": 241,
        "5519": 203,
        "5520": 119,
        "5521": 4,
        "5522": 99,
        "5523": 232,
        "5524": 166,
        "5525": 203,
        "5526": 92,
        "5527": 255,
        "5528": 194,
        "5529": 1,
        "5530": 146,
        "5531": 241,
        "5532": 155,
        "5533": 199,
        "5534": 90,
        "5535": 49,
        "5536": 205,
        "5537": 124,
        "5538": 183,
        "5539": 158,
        "5540": 35,
        "5541": 173,
        "5542": 240,
        "5543": 50,
        "5544": 64,
        "5545": 45,
        "5546": 11,
        "5547": 77,
        "5548": 254,
        "5549": 252,
        "5550": 226,
        "5551": 159,
        "5552": 14,
        "5553": 6,
        "5554": 186,
        "5555": 30,
        "5556": 215,
        "5557": 227,
        "5558": 242,
        "5559": 219,
        "5560": 53,
        "5561": 183,
        "5562": 227,
        "5563": 161,
        "5564": 55,
        "5565": 251,
        "5566": 51,
        "5567": 205,
        "5568": 224,
        "5569": 92,
        "5570": 178,
        "5571": 194,
        "5572": 100,
        "5573": 223,
        "5574": 141,
        "5575": 221,
        "5576": 72,
        "5577": 90,
        "5578": 44,
        "5579": 93,
        "5580": 4,
        "5581": 93,
        "5582": 68,
        "5583": 206,
        "5584": 198,
        "5585": 128,
        "5586": 223,
        "5587": 84,
        "5588": 18,
        "5589": 25,
        "5590": 240,
        "5591": 40,
        "5592": 33,
        "5593": 241,
        "5594": 3,
        "5595": 162,
        "5596": 101,
        "5597": 56,
        "5598": 79,
        "5599": 41,
        "5600": 53,
        "5601": 66,
        "5602": 93,
        "5603": 16,
        "5604": 58,
        "5605": 60,
        "5606": 187,
        "5607": 246,
        "5608": 240,
        "5609": 142,
        "5610": 230,
        "5611": 231,
        "5612": 141,
        "5613": 136,
        "5614": 164,
        "5615": 178,
        "5616": 8,
        "5617": 98,
        "5618": 213,
        "5619": 82,
        "5620": 226,
        "5621": 153,
        "5622": 174,
        "5623": 153,
        "5624": 135,
        "5625": 42,
        "5626": 179,
        "5627": 169,
        "5628": 3,
        "5629": 63,
        "5630": 242,
        "5631": 81,
        "5632": 205,
        "5633": 55,
        "5634": 134,
        "5635": 209,
        "5636": 164,
        "5637": 20,
        "5638": 71,
        "5639": 227,
        "5640": 115,
        "5641": 154,
        "5642": 106,
        "5643": 114,
        "5644": 240,
        "5645": 165,
        "5646": 33,
        "5647": 82,
        "5648": 51,
        "5649": 3,
        "5650": 40,
        "5651": 149,
        "5652": 81,
        "5653": 205,
        "5654": 39,
        "5655": 171,
        "5656": 118,
        "5657": 67,
        "5658": 13,
        "5659": 126,
        "5660": 190,
        "5661": 58,
        "5662": 233,
        "5663": 241,
        "5664": 239,
        "5665": 201,
        "5666": 144,
        "5667": 62,
        "5668": 122,
        "5669": 37,
        "5670": 69,
        "5671": 20,
        "5672": 195,
        "5673": 185,
        "5674": 62,
        "5675": 162,
        "5676": 20,
        "5677": 50,
        "5678": 171,
        "5679": 192,
        "5680": 188,
        "5681": 73,
        "5682": 157,
        "5683": 239,
        "5684": 26,
        "5685": 231,
        "5686": 92,
        "5687": 166,
        "5688": 177,
        "5689": 239,
        "5690": 156,
        "5691": 140,
        "5692": 182,
        "5693": 113,
        "5694": 47,
        "5695": 27,
        "5696": 95,
        "5697": 71,
        "5698": 122,
        "5699": 206,
        "5700": 225,
        "5701": 10,
        "5702": 76,
        "5703": 145,
        "5704": 184,
        "5705": 254,
        "5706": 165,
        "5707": 149,
        "5708": 115,
        "5709": 73,
        "5710": 40,
        "5711": 182,
        "5712": 89,
        "5713": 38,
        "5714": 226,
        "5715": 249,
        "5716": 194,
        "5717": 77,
        "5718": 210,
        "5719": 3,
        "5720": 209,
        "5721": 151,
        "5722": 55,
        "5723": 159,
        "5724": 55,
        "5725": 167,
        "5726": 158,
        "5727": 151,
        "5728": 98,
        "5729": 247,
        "5730": 162,
        "5731": 183,
        "5732": 191,
        "5733": 42,
        "5734": 70,
        "5735": 80,
        "5736": 183,
        "5737": 106,
        "5738": 182,
        "5739": 4,
        "5740": 247,
        "5741": 143,
        "5742": 136,
        "5743": 132,
        "5744": 76,
        "5745": 10,
        "5746": 172,
        "5747": 1,
        "5748": 164,
        "5749": 245,
        "5750": 76,
        "5751": 6,
        "5752": 45,
        "5753": 135,
        "5754": 235,
        "5755": 76,
        "5756": 114,
        "5757": 77,
        "5758": 15,
        "5759": 174,
        "5760": 30,
        "5761": 183,
        "5762": 157,
        "5763": 136,
        "5764": 129,
        "5765": 247,
        "5766": 130,
        "5767": 235,
        "5768": 100,
        "5769": 79,
        "5770": 12,
        "5771": 218,
        "5772": 57,
        "5773": 42,
        "5774": 206,
        "5775": 64,
        "5776": 243,
        "5777": 164,
        "5778": 232,
        "5779": 76,
        "5780": 147,
        "5781": 109,
        "5782": 45,
        "5783": 86,
        "5784": 160,
        "5785": 183,
        "5786": 174,
        "5787": 71,
        "5788": 239,
        "5789": 150,
        "5790": 166,
        "5791": 122,
        "5792": 129,
        "5793": 16,
        "5794": 199,
        "5795": 64,
        "5796": 47,
        "5797": 45,
        "5798": 178,
        "5799": 130,
        "5800": 249,
        "5801": 164,
        "5802": 145,
        "5803": 112,
        "5804": 206,
        "5805": 15,
        "5806": 176,
        "5807": 18,
        "5808": 144,
        "5809": 55,
        "5810": 21,
        "5811": 211,
        "5812": 221,
        "5813": 56,
        "5814": 226,
        "5815": 160,
        "5816": 3,
        "5817": 69,
        "5818": 189,
        "5819": 107,
        "5820": 159,
        "5821": 222,
        "5822": 24,
        "5823": 81,
        "5824": 234,
        "5825": 96,
        "5826": 135,
        "5827": 6,
        "5828": 50,
        "5829": 214,
        "5830": 241,
        "5831": 112,
        "5832": 152,
        "5833": 113,
        "5834": 182,
        "5835": 212,
        "5836": 100,
        "5837": 4,
        "5838": 188,
        "5839": 217,
        "5840": 129,
        "5841": 186,
        "5842": 78,
        "5843": 34,
        "5844": 138,
        "5845": 158,
        "5846": 120,
        "5847": 182,
        "5848": 53,
        "5849": 181,
        "5850": 45,
        "5851": 169,
        "5852": 247,
        "5853": 149,
        "5854": 18,
        "5855": 165,
        "5856": 85,
        "5857": 244,
        "5858": 138,
        "5859": 184,
        "5860": 145,
        "5861": 251,
        "5862": 37,
        "5863": 252,
        "5864": 148,
        "5865": 109,
        "5866": 167,
        "5867": 28,
        "5868": 250,
        "5869": 184,
        "5870": 219,
        "5871": 102,
        "5872": 32,
        "5873": 41,
        "5874": 90,
        "5875": 9,
        "5876": 223,
        "5877": 178,
        "5878": 72,
        "5879": 1,
        "5880": 231,
        "5881": 198,
        "5882": 40,
        "5883": 165,
        "5884": 172,
        "5885": 158,
        "5886": 155,
        "5887": 96,
        "5888": 196,
        "5889": 25,
        "5890": 160,
        "5891": 9,
        "5892": 143,
        "5893": 70,
        "5894": 25,
        "5895": 157,
        "5896": 240,
        "5897": 242,
        "5898": 77,
        "5899": 120,
        "5900": 232,
        "5901": 141,
        "5902": 222,
        "5903": 109,
        "5904": 155,
        "5905": 67,
        "5906": 26,
        "5907": 79,
        "5908": 47,
        "5909": 145,
        "5910": 128,
        "5911": 114,
        "5912": 130,
        "5913": 175,
        "5914": 6,
        "5915": 25,
        "5916": 168,
        "5917": 37,
        "5918": 178,
        "5919": 144,
        "5920": 14,
        "5921": 72,
        "5922": 235,
        "5923": 151,
        "5924": 28,
        "5925": 42,
        "5926": 192,
        "5927": 244,
        "5928": 226,
        "5929": 45,
        "5930": 72,
        "5931": 140,
        "5932": 188,
        "5933": 186,
        "5934": 6,
        "5935": 250,
        "5936": 119,
        "5937": 176,
        "5938": 188,
        "5939": 42,
        "5940": 87,
        "5941": 47,
        "5942": 13,
        "5943": 187,
        "5944": 175,
        "5945": 7,
        "5946": 244,
        "5947": 149,
        "5948": 104,
        "5949": 221,
        "5950": 68,
        "5951": 97,
        "5952": 21,
        "5953": 248,
        "5954": 48,
        "5955": 136,
        "5956": 19,
        "5957": 85,
        "5958": 208,
        "5959": 93,
        "5960": 17,
        "5961": 33,
        "5962": 138,
        "5963": 62,
        "5964": 97,
        "5965": 127,
        "5966": 232,
        "5967": 216,
        "5968": 218,
        "5969": 4,
        "5970": 191,
        "5971": 137,
        "5972": 3,
        "5973": 230,
        "5974": 98,
        "5975": 25,
        "5976": 152,
        "5977": 21,
        "5978": 129,
        "5979": 216,
        "5980": 94,
        "5981": 114,
        "5982": 193,
        "5983": 92,
        "5984": 41,
        "5985": 135,
        "5986": 245,
        "5987": 86,
        "5988": 102,
        "5989": 97,
        "5990": 94,
        "5991": 103,
        "5992": 94,
        "5993": 60,
        "5994": 128,
        "5995": 196,
        "5996": 174,
        "5997": 224,
        "5998": 16,
        "5999": 158,
        "6000": 18,
        "6001": 128,
        "6002": 136,
        "6003": 211,
        "6004": 86,
        "6005": 233,
        "6006": 240,
        "6007": 102,
        "6008": 210,
        "6009": 74,
        "6010": 123,
        "6011": 252,
        "6012": 21,
        "6013": 134,
        "6014": 87,
        "6015": 193,
        "6016": 209,
        "6017": 93,
        "6018": 207,
        "6019": 227,
        "6020": 252,
        "6021": 200,
        "6022": 96,
        "6023": 21,
        "6024": 196,
        "6025": 229,
        "6026": 217,
        "6027": 72,
        "6028": 19,
        "6029": 165,
        "6030": 245,
        "6031": 63,
        "6032": 238,
        "6033": 212,
        "6034": 193,
        "6035": 86,
        "6036": 254,
        "6037": 160,
        "6038": 210,
        "6039": 48,
        "6040": 94,
        "6041": 228,
        "6042": 10,
        "6043": 113,
        "6044": 172,
        "6045": 22,
        "6046": 65,
        "6047": 255,
        "6048": 145,
        "6049": 149,
        "6050": 236,
        "6051": 59,
        "6052": 40,
        "6053": 161,
        "6054": 237,
        "6055": 220,
        "6056": 243,
        "6057": 34,
        "6058": 0,
        "6059": 142,
        "6060": 242,
        "6061": 9,
        "6062": 17,
        "6063": 194,
        "6064": 171,
        "6065": 191,
        "6066": 58,
        "6067": 12,
        "6068": 126,
        "6069": 233,
        "6070": 207,
        "6071": 149,
        "6072": 238,
        "6073": 186,
        "6074": 207,
        "6075": 201,
        "6076": 247,
        "6077": 118,
        "6078": 210,
        "6079": 158,
        "6080": 253,
        "6081": 176,
        "6082": 52,
        "6083": 226,
        "6084": 230,
        "6085": 85,
        "6086": 9,
        "6087": 63,
        "6088": 17,
        "6089": 198,
        "6090": 155,
        "6091": 244,
        "6092": 70,
        "6093": 104,
        "6094": 16,
        "6095": 49,
        "6096": 171,
        "6097": 151,
        "6098": 114,
        "6099": 34,
        "6100": 166,
        "6101": 235,
        "6102": 239,
        "6103": 117,
        "6104": 87,
        "6105": 26,
        "6106": 218,
        "6107": 210,
        "6108": 211,
        "6109": 191,
        "6110": 253,
        "6111": 89,
        "6112": 92,
        "6113": 94,
        "6114": 7,
        "6115": 255,
        "6116": 212,
        "6117": 35,
        "6118": 67,
        "6119": 70,
        "6120": 155,
        "6121": 192,
        "6122": 242,
        "6123": 228,
        "6124": 108,
        "6125": 80,
        "6126": 84,
        "6127": 91,
        "6128": 34,
        "6129": 204,
        "6130": 203,
        "6131": 245,
        "6132": 108,
        "6133": 98,
        "6134": 115,
        "6135": 212,
        "6136": 151,
        "6137": 54,
        "6138": 128,
        "6139": 115,
        "6140": 241,
        "6141": 134,
        "6142": 54,
        "6143": 250,
        "6144": 38,
        "6145": 118,
        "6146": 163,
        "6147": 37,
        "6148": 247,
        "6149": 51,
        "6150": 82,
        "6151": 88,
        "6152": 150,
        "6153": 0,
        "6154": 138,
        "6155": 221,
        "6156": 128,
        "6157": 130,
        "6158": 135,
        "6159": 163,
        "6160": 100,
        "6161": 158,
        "6162": 74,
        "6163": 26,
        "6164": 180,
        "6165": 44,
        "6166": 115,
        "6167": 123,
        "6168": 41,
        "6169": 96,
        "6170": 19,
        "6171": 16,
        "6172": 111,
        "6173": 121,
        "6174": 86,
        "6175": 217,
        "6176": 62,
        "6177": 178,
        "6178": 184,
        "6179": 121,
        "6180": 224,
        "6181": 136,
        "6182": 98,
        "6183": 136,
        "6184": 41,
        "6185": 160,
        "6186": 3,
        "6187": 104,
        "6188": 12,
        "6189": 94,
        "6190": 177,
        "6191": 255,
        "6192": 243,
        "6193": 173,
        "6194": 132,
        "6195": 101,
        "6196": 40,
        "6197": 198,
        "6198": 80,
        "6199": 222,
        "6200": 174,
        "6201": 193,
        "6202": 254,
        "6203": 63,
        "6204": 237,
        "6205": 66,
        "6206": 18,
        "6207": 200,
        "6208": 251,
        "6209": 28,
        "6210": 39,
        "6211": 204,
        "6212": 12,
        "6213": 39,
        "6214": 64,
        "6215": 89,
        "6216": 20,
        "6217": 182,
        "6218": 96,
        "6219": 166,
        "6220": 3,
        "6221": 153,
        "6222": 27,
        "6223": 27,
        "6224": 18,
        "6225": 254,
        "6226": 185,
        "6227": 176,
        "6228": 61,
        "6229": 220,
        "6230": 212,
        "6231": 96,
        "6232": 70,
        "6233": 102,
        "6234": 208,
        "6235": 191,
        "6236": 125,
        "6237": 149,
        "6238": 146,
        "6239": 150,
        "6240": 124,
        "6241": 92,
        "6242": 187,
        "6243": 203,
        "6244": 39,
        "6245": 194,
        "6246": 204,
        "6247": 102,
        "6248": 149,
        "6249": 69,
        "6250": 243,
        "6251": 243,
        "6252": 66,
        "6253": 208,
        "6254": 240,
        "6255": 68,
        "6256": 158,
        "6257": 81,
        "6258": 244,
        "6259": 131,
        "6260": 61,
        "6261": 143,
        "6262": 234,
        "6263": 192,
        "6264": 198,
        "6265": 61,
        "6266": 223,
        "6267": 127,
        "6268": 68,
        "6269": 91,
        "6270": 61,
        "6271": 93,
        "6272": 84,
        "6273": 209,
        "6274": 113,
        "6275": 163,
        "6276": 188,
        "6277": 60,
        "6278": 96,
        "6279": 116,
        "6280": 13,
        "6281": 72,
        "6282": 15,
        "6283": 66,
        "6284": 102,
        "6285": 40,
        "6286": 22,
        "6287": 218,
        "6288": 106,
        "6289": 225,
        "6290": 180,
        "6291": 151,
        "6292": 155,
        "6293": 123,
        "6294": 18,
        "6295": 215,
        "6296": 69,
        "6297": 100,
        "6298": 157,
        "6299": 145,
        "6300": 235,
        "6301": 240,
        "6302": 165,
        "6303": 9,
        "6304": 128,
        "6305": 233,
        "6306": 204,
        "6307": 141,
        "6308": 121,
        "6309": 111,
        "6310": 130,
        "6311": 137,
        "6312": 222,
        "6313": 248,
        "6314": 132,
        "6315": 56,
        "6316": 236,
        "6317": 223,
        "6318": 67,
        "6319": 191,
        "6320": 141,
        "6321": 139,
        "6322": 225,
        "6323": 65,
        "6324": 151,
        "6325": 220,
        "6326": 2,
        "6327": 26,
        "6328": 72,
        "6329": 8,
        "6330": 164,
        "6331": 74,
        "6332": 141,
        "6333": 192,
        "6334": 98,
        "6335": 165,
        "6336": 32,
        "6337": 121,
        "6338": 30,
        "6339": 92,
        "6340": 3,
        "6341": 216,
        "6342": 111,
        "6343": 3,
        "6344": 122,
        "6345": 154,
        "6346": 95,
        "6347": 176,
        "6348": 204,
        "6349": 29,
        "6350": 203,
        "6351": 159,
        "6352": 62,
        "6353": 0,
        "6354": 149,
        "6355": 252,
        "6356": 130,
        "6357": 61,
        "6358": 19,
        "6359": 244,
        "6360": 124,
        "6361": 117,
        "6362": 128,
        "6363": 83,
        "6364": 56,
        "6365": 4,
        "6366": 35,
        "6367": 37,
        "6368": 217,
        "6369": 184,
        "6370": 53,
        "6371": 199,
        "6372": 246,
        "6373": 66,
        "6374": 12,
        "6375": 215,
        "6376": 189,
        "6377": 39,
        "6378": 129,
        "6379": 65,
        "6380": 28,
        "6381": 3,
        "6382": 28,
        "6383": 145,
        "6384": 155,
        "6385": 35,
        "6386": 49,
        "6387": 70,
        "6388": 131,
        "6389": 89,
        "6390": 61,
        "6391": 121,
        "6392": 26,
        "6393": 180,
        "6394": 199,
        "6395": 164,
        "6396": 189,
        "6397": 141,
        "6398": 77,
        "6399": 120,
        "6400": 106,
        "6401": 43,
        "6402": 11,
        "6403": 204,
        "6404": 136,
        "6405": 95,
        "6406": 196,
        "6407": 106,
        "6408": 221,
        "6409": 222,
        "6410": 79,
        "6411": 49,
        "6412": 44,
        "6413": 222,
        "6414": 8,
        "6415": 32,
        "6416": 66,
        "6417": 50,
        "6418": 233,
        "6419": 178,
        "6420": 144,
        "6421": 54,
        "6422": 62,
        "6423": 7,
        "6424": 154,
        "6425": 54,
        "6426": 23,
        "6427": 105,
        "6428": 113,
        "6429": 249,
        "6430": 115,
        "6431": 172,
        "6432": 68,
        "6433": 113,
        "6434": 18,
        "6435": 4,
        "6436": 184,
        "6437": 249,
        "6438": 42,
        "6439": 187,
        "6440": 199,
        "6441": 40,
        "6442": 220,
        "6443": 131,
        "6444": 7,
        "6445": 121,
        "6446": 7,
        "6447": 24,
        "6448": 141,
        "6449": 92,
        "6450": 74,
        "6451": 144,
        "6452": 220,
        "6453": 178,
        "6454": 104,
        "6455": 30,
        "6456": 253,
        "6457": 222,
        "6458": 152,
        "6459": 92,
        "6460": 49,
        "6461": 70,
        "6462": 112,
        "6463": 165,
        "6464": 249,
        "6465": 145,
        "6466": 226,
        "6467": 218,
        "6468": 209,
        "6469": 102,
        "6470": 185,
        "6471": 247,
        "6472": 147,
        "6473": 42,
        "6474": 227,
        "6475": 231,
        "6476": 6,
        "6477": 71,
        "6478": 75,
        "6479": 113,
        "6480": 4,
        "6481": 60,
        "6482": 231,
        "6483": 160,
        "6484": 101,
        "6485": 62,
        "6486": 213,
        "6487": 186,
        "6488": 112,
        "6489": 50,
        "6490": 129,
        "6491": 100,
        "6492": 180,
        "6493": 253,
        "6494": 211,
        "6495": 212,
        "6496": 205,
        "6497": 156,
        "6498": 1,
        "6499": 166,
        "6500": 158,
        "6501": 96,
        "6502": 146,
        "6503": 47,
        "6504": 12,
        "6505": 58,
        "6506": 1,
        "6507": 221,
        "6508": 22,
        "6509": 92,
        "6510": 242,
        "6511": 26,
        "6512": 120,
        "6513": 213,
        "6514": 23,
        "6515": 19,
        "6516": 76,
        "6517": 71,
        "6518": 155,
        "6519": 210,
        "6520": 232,
        "6521": 156,
        "6522": 29,
        "6523": 180,
        "6524": 213,
        "6525": 243,
        "6526": 153,
        "6527": 219,
        "6528": 41,
        "6529": 143,
        "6530": 221,
        "6531": 207,
        "6532": 174,
        "6533": 6,
        "6534": 224,
        "6535": 79,
        "6536": 15,
        "6537": 123,
        "6538": 30,
        "6539": 83,
        "6540": 66,
        "6541": 167,
        "6542": 216,
        "6543": 49,
        "6544": 123,
        "6545": 30,
        "6546": 195,
        "6547": 214,
        "6548": 171,
        "6549": 159,
        "6550": 181,
        "6551": 45,
        "6552": 241,
        "6553": 88,
        "6554": 226,
        "6555": 134,
        "6556": 37,
        "6557": 33,
        "6558": 72,
        "6559": 49,
        "6560": 36,
        "6561": 155,
        "6562": 229,
        "6563": 42,
        "6564": 205,
        "6565": 235,
        "6566": 198,
        "6567": 115,
        "6568": 223,
        "6569": 209,
        "6570": 89,
        "6571": 155,
        "6572": 181,
        "6573": 95,
        "6574": 54,
        "6575": 92,
        "6576": 44,
        "6577": 6,
        "6578": 51,
        "6579": 173,
        "6580": 111,
        "6581": 178,
        "6582": 60,
        "6583": 195,
        "6584": 159,
        "6585": 96,
        "6586": 194,
        "6587": 238,
        "6588": 94,
        "6589": 175,
        "6590": 106,
        "6591": 90,
        "6592": 22,
        "6593": 85,
        "6594": 125,
        "6595": 136,
        "6596": 233,
        "6597": 18,
        "6598": 74,
        "6599": 252,
        "6600": 36,
        "6601": 144,
        "6602": 239,
        "6603": 82,
        "6604": 227,
        "6605": 204,
        "6606": 19,
        "6607": 107,
        "6608": 193,
        "6609": 142,
        "6610": 160,
        "6611": 51,
        "6612": 221,
        "6613": 116,
        "6614": 218,
        "6615": 41,
        "6616": 33,
        "6617": 152,
        "6618": 20,
        "6619": 216,
        "6620": 249,
        "6621": 253,
        "6622": 3,
        "6623": 74,
        "6624": 221,
        "6625": 201,
        "6626": 253,
        "6627": 208,
        "6628": 116,
        "6629": 1,
        "6630": 88,
        "6631": 6,
        "6632": 71,
        "6633": 33,
        "6634": 2,
        "6635": 32,
        "6636": 249,
        "6637": 178,
        "6638": 43,
        "6639": 250,
        "6640": 188,
        "6641": 103,
        "6642": 116,
        "6643": 217,
        "6644": 135,
        "6645": 223,
        "6646": 161,
        "6647": 77,
        "6648": 175,
        "6649": 47,
        "6650": 104,
        "6651": 248,
        "6652": 179,
        "6653": 206,
        "6654": 202,
        "6655": 1,
        "6656": 4,
        "6657": 185,
        "6658": 28,
        "6659": 22,
        "6660": 130,
        "6661": 18,
        "6662": 232,
        "6663": 178,
        "6664": 85,
        "6665": 237,
        "6666": 235,
        "6667": 99,
        "6668": 95,
        "6669": 156,
        "6670": 81,
        "6671": 60,
        "6672": 138,
        "6673": 70,
        "6674": 174,
        "6675": 54,
        "6676": 94,
        "6677": 72,
        "6678": 161,
        "6679": 66,
        "6680": 194,
        "6681": 217,
        "6682": 58,
        "6683": 115,
        "6684": 1,
        "6685": 251,
        "6686": 203,
        "6687": 168,
        "6688": 137,
        "6689": 172,
        "6690": 138,
        "6691": 206,
        "6692": 234,
        "6693": 123,
        "6694": 7,
        "6695": 249,
        "6696": 36,
        "6697": 247,
        "6698": 118,
        "6699": 128,
        "6700": 196,
        "6701": 72,
        "6702": 6,
        "6703": 240,
        "6704": 94,
        "6705": 91,
        "6706": 141,
        "6707": 222,
        "6708": 15,
        "6709": 27,
        "6710": 170,
        "6711": 229,
        "6712": 68,
        "6713": 239,
        "6714": 79,
        "6715": 97,
        "6716": 36,
        "6717": 122,
        "6718": 127,
        "6719": 97,
        "6720": 198,
        "6721": 187,
        "6722": 200,
        "6723": 146,
        "6724": 253,
        "6725": 128,
        "6726": 133,
        "6727": 118,
        "6728": 113,
        "6729": 186,
        "6730": 165,
        "6731": 224,
        "6732": 210,
        "6733": 114,
        "6734": 249,
        "6735": 218,
        "6736": 51,
        "6737": 93,
        "6738": 20,
        "6739": 50,
        "6740": 182,
        "6741": 103,
        "6742": 209,
        "6743": 125,
        "6744": 24,
        "6745": 114,
        "6746": 56,
        "6747": 236,
        "6748": 39,
        "6749": 201,
        "6750": 20,
        "6751": 154,
        "6752": 163,
        "6753": 58,
        "6754": 49,
        "6755": 85,
        "6756": 120,
        "6757": 88,
        "6758": 109,
        "6759": 102,
        "6760": 254,
        "6761": 185,
        "6762": 79,
        "6763": 198,
        "6764": 91,
        "6765": 44,
        "6766": 1,
        "6767": 219,
        "6768": 232,
        "6769": 220,
        "6770": 216,
        "6771": 37,
        "6772": 237,
        "6773": 55,
        "6774": 192,
        "6775": 98,
        "6776": 182,
        "6777": 40,
        "6778": 124,
        "6779": 101,
        "6780": 230,
        "6781": 75,
        "6782": 12,
        "6783": 204,
        "6784": 75,
        "6785": 148,
        "6786": 245,
        "6787": 136,
        "6788": 53,
        "6789": 39,
        "6790": 48,
        "6791": 71,
        "6792": 201,
        "6793": 106,
        "6794": 83,
        "6795": 121,
        "6796": 3,
        "6797": 99,
        "6798": 86,
        "6799": 177,
        "6800": 149,
        "6801": 209,
        "6802": 59,
        "6803": 53,
        "6804": 47,
        "6805": 222,
        "6806": 42,
        "6807": 39,
        "6808": 40,
        "6809": 79,
        "6810": 107,
        "6811": 207,
        "6812": 131,
        "6813": 69,
        "6814": 41,
        "6815": 222,
        "6816": 224,
        "6817": 111,
        "6818": 204,
        "6819": 14,
        "6820": 171,
        "6821": 87,
        "6822": 132,
        "6823": 136,
        "6824": 253,
        "6825": 202,
        "6826": 185,
        "6827": 206,
        "6828": 96,
        "6829": 45,
        "6830": 101,
        "6831": 25,
        "6832": 78,
        "6833": 253,
        "6834": 28,
        "6835": 85,
        "6836": 8,
        "6837": 154,
        "6838": 255,
        "6839": 236,
        "6840": 38,
        "6841": 208,
        "6842": 236,
        "6843": 83,
        "6844": 146,
        "6845": 206,
        "6846": 208,
        "6847": 228,
        "6848": 90,
        "6849": 249,
        "6850": 1,
        "6851": 9,
        "6852": 64,
        "6853": 230,
        "6854": 185,
        "6855": 101,
        "6856": 60,
        "6857": 255,
        "6858": 195,
        "6859": 141,
        "6860": 153,
        "6861": 94,
        "6862": 250,
        "6863": 213,
        "6864": 44,
        "6865": 155,
        "6866": 212,
        "6867": 149,
        "6868": 243,
        "6869": 90,
        "6870": 26,
        "6871": 131,
        "6872": 135,
        "6873": 12,
        "6874": 204,
        "6875": 155,
        "6876": 191,
        "6877": 171,
        "6878": 164,
        "6879": 105,
        "6880": 69,
        "6881": 108,
        "6882": 199,
        "6883": 25,
        "6884": 121,
        "6885": 234,
        "6886": 48,
        "6887": 147,
        "6888": 157,
        "6889": 12,
        "6890": 90,
        "6891": 246,
        "6892": 35,
        "6893": 10,
        "6894": 13,
        "6895": 177,
        "6896": 120,
        "6897": 109,
        "6898": 122,
        "6899": 158,
        "6900": 154,
        "6901": 112,
        "6902": 67,
        "6903": 35,
        "6904": 227,
        "6905": 233,
        "6906": 206,
        "6907": 0,
        "6908": 254,
        "6909": 239,
        "6910": 183,
        "6911": 152,
        "6912": 74,
        "6913": 215,
        "6914": 110,
        "6915": 210,
        "6916": 62,
        "6917": 105,
        "6918": 196,
        "6919": 216,
        "6920": 99,
        "6921": 122,
        "6922": 44,
        "6923": 225,
        "6924": 209,
        "6925": 116,
        "6926": 66,
        "6927": 95,
        "6928": 183,
        "6929": 152,
        "6930": 50,
        "6931": 108,
        "6932": 234,
        "6933": 40,
        "6934": 23,
        "6935": 19,
        "6936": 159,
        "6937": 205,
        "6938": 92,
        "6939": 199,
        "6940": 10,
        "6941": 93,
        "6942": 78,
        "6943": 65,
        "6944": 179,
        "6945": 71,
        "6946": 104,
        "6947": 8,
        "6948": 18,
        "6949": 93,
        "6950": 171,
        "6951": 123,
        "6952": 41,
        "6953": 227,
        "6954": 53,
        "6955": 74,
        "6956": 178,
        "6957": 227,
        "6958": 67,
        "6959": 224,
        "6960": 46,
        "6961": 109,
        "6962": 50,
        "6963": 91,
        "6964": 138,
        "6965": 34,
        "6966": 149,
        "6967": 170,
        "6968": 22,
        "6969": 165,
        "6970": 30,
        "6971": 27,
        "6972": 83,
        "6973": 110,
        "6974": 177,
        "6975": 40,
        "6976": 116,
        "6977": 200,
        "6978": 37,
        "6979": 109,
        "6980": 173,
        "6981": 147,
        "6982": 138,
        "6983": 27,
        "6984": 8,
        "6985": 232,
        "6986": 142,
        "6987": 201,
        "6988": 78,
        "6989": 42,
        "6990": 243,
        "6991": 196,
        "6992": 156,
        "6993": 240,
        "6994": 205,
        "6995": 165,
        "6996": 72,
        "6997": 2,
        "6998": 244,
        "6999": 79,
        "7000": 6,
        "7001": 198,
        "7002": 139,
        "7003": 18,
        "7004": 229,
        "7005": 62,
        "7006": 94,
        "7007": 232,
        "7008": 34,
        "7009": 171,
        "7010": 124,
        "7011": 87,
        "7012": 177,
        "7013": 255,
        "7014": 184,
        "7015": 155,
        "7016": 22,
        "7017": 193,
        "7018": 117,
        "7019": 213,
        "7020": 231,
        "7021": 87,
        "7022": 157,
        "7023": 192,
        "7024": 184,
        "7025": 191,
        "7026": 83,
        "7027": 228,
        "7028": 2,
        "7029": 225,
        "7030": 10,
        "7031": 144,
        "7032": 112,
        "7033": 83,
        "7034": 71,
        "7035": 210,
        "7036": 245,
        "7037": 120,
        "7038": 236,
        "7039": 131,
        "7040": 58,
        "7041": 0,
        "7042": 56,
        "7043": 145,
        "7044": 169,
        "7045": 88,
        "7046": 170,
        "7047": 252,
        "7048": 178,
        "7049": 199,
        "7050": 75,
        "7051": 87,
        "7052": 43,
        "7053": 45,
        "7054": 83,
        "7055": 228,
        "7056": 198,
        "7057": 141,
        "7058": 53,
        "7059": 73,
        "7060": 85,
        "7061": 183,
        "7062": 121,
        "7063": 68,
        "7064": 241,
        "7065": 198,
        "7066": 13,
        "7067": 52,
        "7068": 148,
        "7069": 242,
        "7070": 77,
        "7071": 179,
        "7072": 175,
        "7073": 102,
        "7074": 56,
        "7075": 84,
        "7076": 140,
        "7077": 172,
        "7078": 245,
        "7079": 75,
        "7080": 121,
        "7081": 163,
        "7082": 236,
        "7083": 137,
        "7084": 92,
        "7085": 4,
        "7086": 237,
        "7087": 111,
        "7088": 115,
        "7089": 108,
        "7090": 85,
        "7091": 233,
        "7092": 206,
        "7093": 68,
        "7094": 28,
        "7095": 4,
        "7096": 82,
        "7097": 94,
        "7098": 202,
        "7099": 211,
        "7100": 240,
        "7101": 162,
        "7102": 154,
        "7103": 142,
        "7104": 241,
        "7105": 64,
        "7106": 176,
        "7107": 237,
        "7108": 97,
        "7109": 78,
        "7110": 61,
        "7111": 129,
        "7112": 48,
        "7113": 137,
        "7114": 169,
        "7115": 214,
        "7116": 253,
        "7117": 121,
        "7118": 125,
        "7119": 33,
        "7120": 162,
        "7121": 70,
        "7122": 53,
        "7123": 121,
        "7124": 12,
        "7125": 138,
        "7126": 110,
        "7127": 90,
        "7128": 50,
        "7129": 113,
        "7130": 197,
        "7131": 22,
        "7132": 160,
        "7133": 120,
        "7134": 182,
        "7135": 37,
        "7136": 32,
        "7137": 144,
        "7138": 53,
        "7139": 29,
        "7140": 200,
        "7141": 118,
        "7142": 45,
        "7143": 165,
        "7144": 243,
        "7145": 18,
        "7146": 231,
        "7147": 40,
        "7148": 113,
        "7149": 69,
        "7150": 57,
        "7151": 54,
        "7152": 157,
        "7153": 2,
        "7154": 71,
        "7155": 90,
        "7156": 230,
        "7157": 141,
        "7158": 26,
        "7159": 131,
        "7160": 73,
        "7161": 79,
        "7162": 233,
        "7163": 12,
        "7164": 240,
        "7165": 33,
        "7166": 54,
        "7167": 216,
        "7168": 58,
        "7169": 210,
        "7170": 148,
        "7171": 45,
        "7172": 248,
        "7173": 230,
        "7174": 44,
        "7175": 18,
        "7176": 139,
        "7177": 146,
        "7178": 0,
        "7179": 221,
        "7180": 94,
        "7181": 88,
        "7182": 125,
        "7183": 240,
        "7184": 200,
        "7185": 101,
        "7186": 233,
        "7187": 227,
        "7188": 132,
        "7189": 61,
        "7190": 240,
        "7191": 47,
        "7192": 230,
        "7193": 229,
        "7194": 78,
        "7195": 1,
        "7196": 7,
        "7197": 191,
        "7198": 119,
        "7199": 122,
        "7200": 222,
        "7201": 38,
        "7202": 243,
        "7203": 152,
        "7204": 204,
        "7205": 72,
        "7206": 56,
        "7207": 41,
        "7208": 240,
        "7209": 213,
        "7210": 84,
        "7211": 51,
        "7212": 248,
        "7213": 133,
        "7214": 51,
        "7215": 196,
        "7216": 244,
        "7217": 59,
        "7218": 186,
        "7219": 9,
        "7220": 134,
        "7221": 68,
        "7222": 80,
        "7223": 73,
        "7224": 126,
        "7225": 134,
        "7226": 46,
        "7227": 106,
        "7228": 233,
        "7229": 97,
        "7230": 214,
        "7231": 47,
        "7232": 171,
        "7233": 189,
        "7234": 125,
        "7235": 43,
        "7236": 156,
        "7237": 161,
        "7238": 221,
        "7239": 70,
        "7240": 32,
        "7241": 194,
        "7242": 208,
        "7243": 250,
        "7244": 102,
        "7245": 114,
        "7246": 108,
        "7247": 70,
        "7248": 65,
        "7249": 223,
        "7250": 213,
        "7251": 158,
        "7252": 152,
        "7253": 191,
        "7254": 96,
        "7255": 62,
        "7256": 94,
        "7257": 223,
        "7258": 225,
        "7259": 101,
        "7260": 80,
        "7261": 53,
        "7262": 202,
        "7263": 82,
        "7264": 5,
        "7265": 222,
        "7266": 193,
        "7267": 222,
        "7268": 193,
        "7269": 54,
        "7270": 214,
        "7271": 122,
        "7272": 119,
        "7273": 181,
        "7274": 223,
        "7275": 85,
        "7276": 48,
        "7277": 16,
        "7278": 127,
        "7279": 145,
        "7280": 229,
        "7281": 156,
        "7282": 162,
        "7283": 199,
        "7284": 162,
        "7285": 41,
        "7286": 50,
        "7287": 208,
        "7288": 224,
        "7289": 199,
        "7290": 0,
        "7291": 88,
        "7292": 80,
        "7293": 63,
        "7294": 9,
        "7295": 236,
        "7296": 182,
        "7297": 204,
        "7298": 247,
        "7299": 214,
        "7300": 200,
        "7301": 135,
        "7302": 214,
        "7303": 29,
        "7304": 113,
        "7305": 72,
        "7306": 31,
        "7307": 21,
        "7308": 226,
        "7309": 131,
        "7310": 210,
        "7311": 98,
        "7312": 24,
        "7313": 188,
        "7314": 52,
        "7315": 241,
        "7316": 130,
        "7317": 248,
        "7318": 101,
        "7319": 100,
        "7320": 8,
        "7321": 169,
        "7322": 12,
        "7323": 126,
        "7324": 18,
        "7325": 230,
        "7326": 3,
        "7327": 79,
        "7328": 115,
        "7329": 91,
        "7330": 152,
        "7331": 93,
        "7332": 209,
        "7333": 211,
        "7334": 151,
        "7335": 79,
        "7336": 212,
        "7337": 175,
        "7338": 100,
        "7339": 88,
        "7340": 121,
        "7341": 90,
        "7342": 27,
        "7343": 32,
        "7344": 255,
        "7345": 13,
        "7346": 62,
        "7347": 154,
        "7348": 173,
        "7349": 136,
        "7350": 225,
        "7351": 59,
        "7352": 99,
        "7353": 195,
        "7354": 96,
        "7355": 165,
        "7356": 46,
        "7357": 247,
        "7358": 5,
        "7359": 207,
        "7360": 246,
        "7361": 43,
        "7362": 138,
        "7363": 195,
        "7364": 11,
        "7365": 220,
        "7366": 198,
        "7367": 36,
        "7368": 201,
        "7369": 67,
        "7370": 224,
        "7371": 93,
        "7372": 173,
        "7373": 86,
        "7374": 73,
        "7375": 225,
        "7376": 10,
        "7377": 163,
        "7378": 244,
        "7379": 147,
        "7380": 213,
        "7381": 125,
        "7382": 253,
        "7383": 108,
        "7384": 46,
        "7385": 75,
        "7386": 195,
        "7387": 124,
        "7388": 63,
        "7389": 129,
        "7390": 95,
        "7391": 172,
        "7392": 133,
        "7393": 33,
        "7394": 76,
        "7395": 130,
        "7396": 75,
        "7397": 235,
        "7398": 92,
        "7399": 45,
        "7400": 179,
        "7401": 106,
        "7402": 240,
        "7403": 24,
        "7404": 170,
        "7405": 187,
        "7406": 140,
        "7407": 11,
        "7408": 79,
        "7409": 249,
        "7410": 124,
        "7411": 173,
        "7412": 152,
        "7413": 186,
        "7414": 239,
        "7415": 221,
        "7416": 246,
        "7417": 114,
        "7418": 172,
        "7419": 252,
        "7420": 150,
        "7421": 142,
        "7422": 47,
        "7423": 209,
        "7424": 7,
        "7425": 33,
        "7426": 56,
        "7427": 77,
        "7428": 92,
        "7429": 182,
        "7430": 27,
        "7431": 142,
        "7432": 145,
        "7433": 64,
        "7434": 228,
        "7435": 20,
        "7436": 42,
        "7437": 12,
        "7438": 207,
        "7439": 126,
        "7440": 243,
        "7441": 233,
        "7442": 252,
        "7443": 146,
        "7444": 111,
        "7445": 246,
        "7446": 152,
        "7447": 1,
        "7448": 230,
        "7449": 58,
        "7450": 9,
        "7451": 148,
        "7452": 9,
        "7453": 235,
        "7454": 79,
        "7455": 176,
        "7456": 239,
        "7457": 236,
        "7458": 171,
        "7459": 179,
        "7460": 126,
        "7461": 147,
        "7462": 18,
        "7463": 133,
        "7464": 130,
        "7465": 145,
        "7466": 147,
        "7467": 88,
        "7468": 100,
        "7469": 199,
        "7470": 208,
        "7471": 40,
        "7472": 176,
        "7473": 105,
        "7474": 221,
        "7475": 225,
        "7476": 72,
        "7477": 35,
        "7478": 135,
        "7479": 57,
        "7480": 151,
        "7481": 83,
        "7482": 23,
        "7483": 238,
        "7484": 255,
        "7485": 221,
        "7486": 166,
        "7487": 185,
        "7488": 254,
        "7489": 24,
        "7490": 1,
        "7491": 95,
        "7492": 94,
        "7493": 221,
        "7494": 210,
        "7495": 182,
        "7496": 14,
        "7497": 253,
        "7498": 166,
        "7499": 143,
        "7500": 107,
        "7501": 138,
        "7502": 244,
        "7503": 115,
        "7504": 6,
        "7505": 15,
        "7506": 241,
        "7507": 168,
        "7508": 9,
        "7509": 200,
        "7510": 138,
        "7511": 48,
        "7512": 231,
        "7513": 204,
        "7514": 50,
        "7515": 52,
        "7516": 146,
        "7517": 57,
        "7518": 56,
        "7519": 41,
        "7520": 43,
        "7521": 17,
        "7522": 46,
        "7523": 203,
        "7524": 104,
        "7525": 128,
        "7526": 39,
        "7527": 177,
        "7528": 81,
        "7529": 84,
        "7530": 133,
        "7531": 11,
        "7532": 209,
        "7533": 230,
        "7534": 21,
        "7535": 77,
        "7536": 123,
        "7537": 237,
        "7538": 218,
        "7539": 148,
        "7540": 165,
        "7541": 189,
        "7542": 168,
        "7543": 160,
        "7544": 197,
        "7545": 178,
        "7546": 172,
        "7547": 16,
        "7548": 168,
        "7549": 248,
        "7550": 209,
        "7551": 238,
        "7552": 14,
        "7553": 205,
        "7554": 253,
        "7555": 232,
        "7556": 73,
        "7557": 71,
        "7558": 79,
        "7559": 200,
        "7560": 24,
        "7561": 100,
        "7562": 205,
        "7563": 137,
        "7564": 185,
        "7565": 79,
        "7566": 54,
        "7567": 241,
        "7568": 200,
        "7569": 51,
        "7570": 220,
        "7571": 126,
        "7572": 191,
        "7573": 216,
        "7574": 58,
        "7575": 90,
        "7576": 126,
        "7577": 124,
        "7578": 233,
        "7579": 151,
        "7580": 198,
        "7581": 99,
        "7582": 131,
        "7583": 198,
        "7584": 213,
        "7585": 113,
        "7586": 33,
        "7587": 216,
        "7588": 20,
        "7589": 251,
        "7590": 76,
        "7591": 40,
        "7592": 198,
        "7593": 232,
        "7594": 135,
        "7595": 83,
        "7596": 77,
        "7597": 130,
        "7598": 200,
        "7599": 54,
        "7600": 44,
        "7601": 31,
        "7602": 170,
        "7603": 145,
        "7604": 22,
        "7605": 73,
        "7606": 184,
        "7607": 164,
        "7608": 234,
        "7609": 75,
        "7610": 189,
        "7611": 108,
        "7612": 143,
        "7613": 24,
        "7614": 181,
        "7615": 166,
        "7616": 216,
        "7617": 154,
        "7618": 135,
        "7619": 211,
        "7620": 222,
        "7621": 55,
        "7622": 168,
        "7623": 226,
        "7624": 140,
        "7625": 86,
        "7626": 191,
        "7627": 106,
        "7628": 103,
        "7629": 225,
        "7630": 2,
        "7631": 82,
        "7632": 168,
        "7633": 72,
        "7634": 35,
        "7635": 198,
        "7636": 106,
        "7637": 80,
        "7638": 27,
        "7639": 95,
        "7640": 139,
        "7641": 212,
        "7642": 247,
        "7643": 196,
        "7644": 209,
        "7645": 183,
        "7646": 148,
        "7647": 149,
        "7648": 126,
        "7649": 116,
        "7650": 230,
        "7651": 33,
        "7652": 115,
        "7653": 92,
        "7654": 2,
        "7655": 23,
        "7656": 126,
        "7657": 111,
        "7658": 182,
        "7659": 6,
        "7660": 12,
        "7661": 236,
        "7662": 78,
        "7663": 243,
        "7664": 227,
        "7665": 91,
        "7666": 119,
        "7667": 95,
        "7668": 93,
        "7669": 40,
        "7670": 232,
        "7671": 241,
        "7672": 191,
        "7673": 154,
        "7674": 53,
        "7675": 65,
        "7676": 11,
        "7677": 55,
        "7678": 100,
        "7679": 205,
        "7680": 109,
        "7681": 164,
        "7682": 37,
        "7683": 146,
        "7684": 204,
        "7685": 7,
        "7686": 84,
        "7687": 147,
        "7688": 26,
        "7689": 94,
        "7690": 108,
        "7691": 198,
        "7692": 249,
        "7693": 41,
        "7694": 145,
        "7695": 6,
        "7696": 133,
        "7697": 252,
        "7698": 19,
        "7699": 26,
        "7700": 124,
        "7701": 45,
        "7702": 232,
        "7703": 234,
        "7704": 205,
        "7705": 58,
        "7706": 184,
        "7707": 158,
        "7708": 226,
        "7709": 184,
        "7710": 82,
        "7711": 168,
        "7712": 166,
        "7713": 144,
        "7714": 253,
        "7715": 238,
        "7716": 185,
        "7717": 249,
        "7718": 45,
        "7719": 60,
        "7720": 4,
        "7721": 55,
        "7722": 45,
        "7723": 202,
        "7724": 113,
        "7725": 233,
        "7726": 124,
        "7727": 189,
        "7728": 216,
        "7729": 89,
        "7730": 77,
        "7731": 74,
        "7732": 227,
        "7733": 156,
        "7734": 144,
        "7735": 39,
        "7736": 150,
        "7737": 3,
        "7738": 39,
        "7739": 173,
        "7740": 123,
        "7741": 72,
        "7742": 72,
        "7743": 174,
        "7744": 153,
        "7745": 30,
        "7746": 176,
        "7747": 32,
        "7748": 47,
        "7749": 28,
        "7750": 168,
        "7751": 98,
        "7752": 91,
        "7753": 104,
        "7754": 150,
        "7755": 187,
        "7756": 40,
        "7757": 54,
        "7758": 241,
        "7759": 224,
        "7760": 131,
        "7761": 233,
        "7762": 230,
        "7763": 246,
        "7764": 30,
        "7765": 121,
        "7766": 184,
        "7767": 131,
        "7768": 146,
        "7769": 4,
        "7770": 114,
        "7771": 80,
        "7772": 20,
        "7773": 50,
        "7774": 38,
        "7775": 80,
        "7776": 192,
        "7777": 50,
        "7778": 247,
        "7779": 197,
        "7780": 231,
        "7781": 10,
        "7782": 192,
        "7783": 107,
        "7784": 253,
        "7785": 143,
        "7786": 50,
        "7787": 231,
        "7788": 202,
        "7789": 244,
        "7790": 94,
        "7791": 211,
        "7792": 143,
        "7793": 14,
        "7794": 50,
        "7795": 237,
        "7796": 88,
        "7797": 102,
        "7798": 50,
        "7799": 79,
        "7800": 140,
        "7801": 83,
        "7802": 138,
        "7803": 143,
        "7804": 40,
        "7805": 60,
        "7806": 27,
        "7807": 136,
        "7808": 191,
        "7809": 235,
        "7810": 206,
        "7811": 84,
        "7812": 165,
        "7813": 20,
        "7814": 149,
        "7815": 147,
        "7816": 149,
        "7817": 129,
        "7818": 207,
        "7819": 254,
        "7820": 28,
        "7821": 82,
        "7822": 82,
        "7823": 60,
        "7824": 35,
        "7825": 240,
        "7826": 189,
        "7827": 94,
        "7828": 159,
        "7829": 236,
        "7830": 59,
        "7831": 158,
        "7832": 76,
        "7833": 208,
        "7834": 72,
        "7835": 220,
        "7836": 117,
        "7837": 133,
        "7838": 167,
        "7839": 155,
        "7840": 164,
        "7841": 151,
        "7842": 143,
        "7843": 83,
        "7844": 53,
        "7845": 209,
        "7846": 13,
        "7847": 72,
        "7848": 53,
        "7849": 51,
        "7850": 129,
        "7851": 59,
        "7852": 44,
        "7853": 153,
        "7854": 96,
        "7855": 141,
        "7856": 186,
        "7857": 80,
        "7858": 215,
        "7859": 206,
        "7860": 218,
        "7861": 222,
        "7862": 207,
        "7863": 179,
        "7864": 246,
        "7865": 205,
        "7866": 54,
        "7867": 230,
        "7868": 17,
        "7869": 211,
        "7870": 11,
        "7871": 143,
        "7872": 62,
        "7873": 95,
        "7874": 115,
        "7875": 250,
        "7876": 155,
        "7877": 33,
        "7878": 92,
        "7879": 42,
        "7880": 252,
        "7881": 222,
        "7882": 18,
        "7883": 151,
        "7884": 39,
        "7885": 154,
        "7886": 176,
        "7887": 13,
        "7888": 27,
        "7889": 175,
        "7890": 209,
        "7891": 229,
        "7892": 166,
        "7893": 50,
        "7894": 19,
        "7895": 29,
        "7896": 121,
        "7897": 191,
        "7898": 21,
        "7899": 14,
        "7900": 132,
        "7901": 161,
        "7902": 219,
        "7903": 192,
        "7904": 8,
        "7905": 158,
        "7906": 227,
        "7907": 44,
        "7908": 108,
        "7909": 229,
        "7910": 37,
        "7911": 248,
        "7912": 161,
        "7913": 150,
        "7914": 18,
        "7915": 251,
        "7916": 213,
        "7917": 181,
        "7918": 151,
        "7919": 246,
        "7920": 234,
        "7921": 40,
        "7922": 63,
        "7923": 159,
        "7924": 179,
        "7925": 33,
        "7926": 7,
        "7927": 151,
        "7928": 183,
        "7929": 162,
        "7930": 79,
        "7931": 210,
        "7932": 157,
        "7933": 42,
        "7934": 172,
        "7935": 19,
        "7936": 135,
        "7937": 6,
        "7938": 199,
        "7939": 162,
        "7940": 53,
        "7941": 242,
        "7942": 141,
        "7943": 123,
        "7944": 97,
        "7945": 139,
        "7946": 173,
        "7947": 254,
        "7948": 23,
        "7949": 191,
        "7950": 132,
        "7951": 76,
        "7952": 244,
        "7953": 91,
        "7954": 246,
        "7955": 189,
        "7956": 81,
        "7957": 78,
        "7958": 32,
        "7959": 203,
        "7960": 4,
        "7961": 46,
        "7962": 104,
        "7963": 125,
        "7964": 1,
        "7965": 19,
        "7966": 164,
        "7967": 186,
        "7968": 9,
        "7969": 99,
        "7970": 22,
        "7971": 39,
        "7972": 67,
        "7973": 221,
        "7974": 92,
        "7975": 233,
        "7976": 166,
        "7977": 244,
        "7978": 63,
        "7979": 138,
        "7980": 239,
        "7981": 17,
        "7982": 85,
        "7983": 39,
        "7984": 75,
        "7985": 100,
        "7986": 31,
        "7987": 254,
        "7988": 158,
        "7989": 150,
        "7990": 245,
        "7991": 189,
        "7992": 66,
        "7993": 24,
        "7994": 251,
        "7995": 130,
        "7996": 105,
        "7997": 18,
        "7998": 89,
        "7999": 154,
        "8000": 133,
        "8001": 107,
        "8002": 231,
        "8003": 200,
        "8004": 145,
        "8005": 107,
        "8006": 179,
        "8007": 144,
        "8008": 211,
        "8009": 208,
        "8010": 242,
        "8011": 24,
        "8012": 31,
        "8013": 210,
        "8014": 171,
        "8015": 195,
        "8016": 31,
        "8017": 79,
        "8018": 177,
        "8019": 42,
        "8020": 191,
        "8021": 80,
        "8022": 46,
        "8023": 240,
        "8024": 146,
        "8025": 189,
        "8026": 43,
        "8027": 115,
        "8028": 38,
        "8029": 204,
        "8030": 29,
        "8031": 189,
        "8032": 240,
        "8033": 22,
        "8034": 52,
        "8035": 45,
        "8036": 64,
        "8037": 39,
        "8038": 153,
        "8039": 44,
        "8040": 43,
        "8041": 247,
        "8042": 212,
        "8043": 206,
        "8044": 79,
        "8045": 47,
        "8046": 2,
        "8047": 198,
        "8048": 25,
        "8049": 210,
        "8050": 106,
        "8051": 61,
        "8052": 49,
        "8053": 10,
        "8054": 222,
        "8055": 214,
        "8056": 246,
        "8057": 128,
        "8058": 167,
        "8059": 91,
        "8060": 198,
        "8061": 8,
        "8062": 53,
        "8063": 241,
        "8064": 62,
        "8065": 39,
        "8066": 77,
        "8067": 40,
        "8068": 168,
        "8069": 171,
        "8070": 185,
        "8071": 191,
        "8072": 73,
        "8073": 57,
        "8074": 236,
        "8075": 21,
        "8076": 79,
        "8077": 54,
        "8078": 60,
        "8079": 43,
        "8080": 192,
        "8081": 148,
        "8082": 159,
        "8083": 2,
        "8084": 102,
        "8085": 220,
        "8086": 107,
        "8087": 3,
        "8088": 85,
        "8089": 181,
        "8090": 119,
        "8091": 170,
        "8092": 1,
        "8093": 250,
        "8094": 113,
        "8095": 110,
        "8096": 186,
        "8097": 112,
        "8098": 178,
        "8099": 202,
        "8100": 44,
        "8101": 174,
        "8102": 46,
        "8103": 44,
        "8104": 196,
        "8105": 85,
        "8106": 217,
        "8107": 189,
        "8108": 6,
        "8109": 7,
        "8110": 8,
        "8111": 13,
        "8112": 114,
        "8113": 35,
        "8114": 132,
        "8115": 196,
        "8116": 10,
        "8117": 120,
        "8118": 131,
        "8119": 224,
        "8120": 102,
        "8121": 121,
        "8122": 122,
        "8123": 128,
        "8124": 48,
        "8125": 4,
        "8126": 208,
        "8127": 65,
        "8128": 70,
        "8129": 162,
        "8130": 104,
        "8131": 82,
        "8132": 214,
        "8133": 131,
        "8134": 86,
        "8135": 83,
        "8136": 199,
        "8137": 160,
        "8138": 174,
        "8139": 11,
        "8140": 223,
        "8141": 199,
        "8142": 45,
        "8143": 8,
        "8144": 168,
        "8145": 110,
        "8146": 56,
        "8147": 74,
        "8148": 17,
        "8149": 134,
        "8150": 129,
        "8151": 207,
        "8152": 29,
        "8153": 166,
        "8154": 249,
        "8155": 203,
        "8156": 253,
        "8157": 13,
        "8158": 192,
        "8159": 56,
        "8160": 119,
        "8161": 44,
        "8162": 68,
        "8163": 44,
        "8164": 129,
        "8165": 73,
        "8166": 170,
        "8167": 134,
        "8168": 102,
        "8169": 194,
        "8170": 198,
        "8171": 177,
        "8172": 145,
        "8173": 96,
        "8174": 235,
        "8175": 66,
        "8176": 182,
        "8177": 1,
        "8178": 168,
        "8179": 45,
        "8180": 149,
        "8181": 85,
        "8182": 211,
        "8183": 49,
        "8184": 227,
        "8185": 210,
        "8186": 194,
        "8187": 128,
        "8188": 24,
        "8189": 242,
        "8190": 64,
        "8191": 82,
        "8192": 133,
        "8193": 53,
        "8194": 139,
        "8195": 112,
        "8196": 206,
        "8197": 196,
        "8198": 31,
        "8199": 19,
        "8200": 60,
        "8201": 135,
        "8202": 104,
        "8203": 153,
        "8204": 194,
        "8205": 177,
        "8206": 171,
        "8207": 195,
        "8208": 174,
        "8209": 64,
        "8210": 238,
        "8211": 248,
        "8212": 86,
        "8213": 79,
        "8214": 140,
        "8215": 199,
        "8216": 58,
        "8217": 132,
        "8218": 39,
        "8219": 155,
        "8220": 86,
        "8221": 147,
        "8222": 246,
        "8223": 150,
        "8224": 175,
        "8225": 79,
        "8226": 51,
        "8227": 191,
        "8228": 158,
        "8229": 189,
        "8230": 12,
        "8231": 250,
        "8232": 251,
        "8233": 74,
        "8234": 73,
        "8235": 117,
        "8236": 125,
        "8237": 236,
        "8238": 176,
        "8239": 11,
        "8240": 231,
        "8241": 109,
        "8242": 251,
        "8243": 2,
        "8244": 11,
        "8245": 15,
        "8246": 83,
        "8247": 205,
        "8248": 235,
        "8249": 3,
        "8250": 53,
        "8251": 247,
        "8252": 86,
        "8253": 62,
        "8254": 168,
        "8255": 197,
        "8256": 23,
        "8257": 80,
        "8258": 4,
        "8259": 188,
        "8260": 246,
        "8261": 172,
        "8262": 57,
        "8263": 48,
        "8264": 197,
        "8265": 207,
        "8266": 118,
        "8267": 66,
        "8268": 50,
        "8269": 74,
        "8270": 34,
        "8271": 216,
        "8272": 120,
        "8273": 231,
        "8274": 33,
        "8275": 63,
        "8276": 198,
        "8277": 145,
        "8278": 249,
        "8279": 244,
        "8280": 160,
        "8281": 159,
        "8282": 159,
        "8283": 214,
        "8284": 237,
        "8285": 91,
        "8286": 34,
        "8287": 235,
        "8288": 251,
        "8289": 213,
        "8290": 107,
        "8291": 45,
        "8292": 243,
        "8293": 243,
        "8294": 64,
        "8295": 152,
        "8296": 138,
        "8297": 22,
        "8298": 119,
        "8299": 126,
        "8300": 160,
        "8301": 155,
        "8302": 227,
        "8303": 150,
        "8304": 46,
        "8305": 57,
        "8306": 97,
        "8307": 74,
        "8308": 183,
        "8309": 111,
        "8310": 89,
        "8311": 243,
        "8312": 30,
        "8313": 12,
        "8314": 31,
        "8315": 66,
        "8316": 154,
        "8317": 204,
        "8318": 57,
        "8319": 171,
        "8320": 75,
        "8321": 112,
        "8322": 5,
        "8323": 193,
        "8324": 116,
        "8325": 32,
        "8326": 163,
        "8327": 223,
        "8328": 243,
        "8329": 188,
        "8330": 18,
        "8331": 29,
        "8332": 7,
        "8333": 205,
        "8334": 44,
        "8335": 102,
        "8336": 96,
        "8337": 27,
        "8338": 76,
        "8339": 55,
        "8340": 157,
        "8341": 193,
        "8342": 208,
        "8343": 20,
        "8344": 133,
        "8345": 24,
        "8346": 117,
        "8347": 230,
        "8348": 188,
        "8349": 244,
        "8350": 72,
        "8351": 117,
        "8352": 185,
        "8353": 93,
        "8354": 131,
        "8355": 192,
        "8356": 201,
        "8357": 121,
        "8358": 195,
        "8359": 187,
        "8360": 124,
        "8361": 113,
        "8362": 93,
        "8363": 241,
        "8364": 28,
        "8365": 35,
        "8366": 168,
        "8367": 232,
        "8368": 129,
        "8369": 148,
        "8370": 254,
        "8371": 235,
        "8372": 31,
        "8373": 232,
        "8374": 147,
        "8375": 18,
        "8376": 167,
        "8377": 186,
        "8378": 60,
        "8379": 88,
        "8380": 183,
        "8381": 209,
        "8382": 149,
        "8383": 9,
        "8384": 251,
        "8385": 45,
        "8386": 54,
        "8387": 163,
        "8388": 168,
        "8389": 223,
        "8390": 125,
        "8391": 66,
        "8392": 161,
        "8393": 113,
        "8394": 82,
        "8395": 98,
        "8396": 167,
        "8397": 212,
        "8398": 70,
        "8399": 238,
        "8400": 66,
        "8401": 71,
        "8402": 130,
        "8403": 232,
        "8404": 122,
        "8405": 44,
        "8406": 170,
        "8407": 139,
        "8408": 74,
        "8409": 248,
        "8410": 51,
        "8411": 151,
        "8412": 161,
        "8413": 186,
        "8414": 87,
        "8415": 44,
        "8416": 50,
        "8417": 205,
        "8418": 71,
        "8419": 46,
        "8420": 158,
        "8421": 35,
        "8422": 23,
        "8423": 178,
        "8424": 227,
        "8425": 151,
        "8426": 38,
        "8427": 71,
        "8428": 101,
        "8429": 244,
        "8430": 199,
        "8431": 150,
        "8432": 181,
        "8433": 186,
        "8434": 37,
        "8435": 87,
        "8436": 67,
        "8437": 136,
        "8438": 141,
        "8439": 115,
        "8440": 252,
        "8441": 210,
        "8442": 254,
        "8443": 152,
        "8444": 58,
        "8445": 88,
        "8446": 172,
        "8447": 55,
        "8448": 186,
        "8449": 185,
        "8450": 165,
        "8451": 77,
        "8452": 248,
        "8453": 52,
        "8454": 27,
        "8455": 208,
        "8456": 57,
        "8457": 242,
        "8458": 12,
        "8459": 168,
        "8460": 172,
        "8461": 92,
        "8462": 55,
        "8463": 47,
        "8464": 220,
        "8465": 129,
        "8466": 153,
        "8467": 131,
        "8468": 150,
        "8469": 86,
        "8470": 123,
        "8471": 250,
        "8472": 240,
        "8473": 166,
        "8474": 126,
        "8475": 69,
        "8476": 192,
        "8477": 110,
        "8478": 228,
        "8479": 88,
        "8480": 88,
        "8481": 234,
        "8482": 98,
        "8483": 136,
        "8484": 112,
        "8485": 138,
        "8486": 149,
        "8487": 121,
        "8488": 4,
        "8489": 154,
        "8490": 203,
        "8491": 125,
        "8492": 192,
        "8493": 191,
        "8494": 88,
        "8495": 5,
        "8496": 92,
        "8497": 50,
        "8498": 198,
        "8499": 243,
        "8500": 56,
        "8501": 130,
        "8502": 34,
        "8503": 55,
        "8504": 87,
        "8505": 100,
        "8506": 41,
        "8507": 159,
        "8508": 133,
        "8509": 234,
        "8510": 66,
        "8511": 136,
        "8512": 149,
        "8513": 212,
        "8514": 2,
        "8515": 100,
        "8516": 82,
        "8517": 238,
        "8518": 30,
        "8519": 124,
        "8520": 227,
        "8521": 232,
        "8522": 112,
        "8523": 117,
        "8524": 179,
        "8525": 143,
        "8526": 81,
        "8527": 33,
        "8528": 14,
        "8529": 42,
        "8530": 186,
        "8531": 115,
        "8532": 119,
        "8533": 184,
        "8534": 1,
        "8535": 156,
        "8536": 69,
        "8537": 76,
        "8538": 86,
        "8539": 53,
        "8540": 22,
        "8541": 42,
        "8542": 59,
        "8543": 185,
        "8544": 26,
        "8545": 21,
        "8546": 215,
        "8547": 124,
        "8548": 199,
        "8549": 205,
        "8550": 140,
        "8551": 229,
        "8552": 28,
        "8553": 55,
        "8554": 174,
        "8555": 165,
        "8556": 177,
        "8557": 64,
        "8558": 80,
        "8559": 200,
        "8560": 14,
        "8561": 33,
        "8562": 133,
        "8563": 194,
        "8564": 196,
        "8565": 35,
        "8566": 143,
        "8567": 150,
        "8568": 240,
        "8569": 228,
        "8570": 92,
        "8571": 31,
        "8572": 198,
        "8573": 3,
        "8574": 201,
        "8575": 92,
        "8576": 74,
        "8577": 91,
        "8578": 38,
        "8579": 252,
        "8580": 248,
        "8581": 41,
        "8582": 57,
        "8583": 154,
        "8584": 50,
        "8585": 154,
        "8586": 193,
        "8587": 113,
        "8588": 158,
        "8589": 49,
        "8590": 251,
        "8591": 64,
        "8592": 144,
        "8593": 212,
        "8594": 133,
        "8595": 226,
        "8596": 37,
        "8597": 172,
        "8598": 69,
        "8599": 166,
        "8600": 2,
        "8601": 216,
        "8602": 228,
        "8603": 185,
        "8604": 98,
        "8605": 163,
        "8606": 146,
        "8607": 63,
        "8608": 220,
        "8609": 84,
        "8610": 214,
        "8611": 114,
        "8612": 151,
        "8613": 31,
        "8614": 115,
        "8615": 22,
        "8616": 215,
        "8617": 244,
        "8618": 236,
        "8619": 18,
        "8620": 215,
        "8621": 90,
        "8622": 114,
        "8623": 134,
        "8624": 8,
        "8625": 35,
        "8626": 115,
        "8627": 54,
        "8628": 149,
        "8629": 153,
        "8630": 192,
        "8631": 112,
        "8632": 231,
        "8633": 104,
        "8634": 188,
        "8635": 138,
        "8636": 185,
        "8637": 221,
        "8638": 127,
        "8639": 68,
        "8640": 188,
        "8641": 133,
        "8642": 37,
        "8643": 166,
        "8644": 108,
        "8645": 5,
        "8646": 76,
        "8647": 255,
        "8648": 5,
        "8649": 83,
        "8650": 214,
        "8651": 182,
        "8652": 174,
        "8653": 155,
        "8654": 105,
        "8655": 159,
        "8656": 49,
        "8657": 247,
        "8658": 200,
        "8659": 188,
        "8660": 96,
        "8661": 236,
        "8662": 128,
        "8663": 33,
        "8664": 149,
        "8665": 95,
        "8666": 188,
        "8667": 166,
        "8668": 234,
        "8669": 176,
        "8670": 172,
        "8671": 110,
        "8672": 26,
        "8673": 221,
        "8674": 6,
        "8675": 132,
        "8676": 165,
        "8677": 43,
        "8678": 83,
        "8679": 135,
        "8680": 244,
        "8681": 223,
        "8682": 76,
        "8683": 129,
        "8684": 72,
        "8685": 127,
        "8686": 18,
        "8687": 55,
        "8688": 207,
        "8689": 170,
        "8690": 243,
        "8691": 20,
        "8692": 186,
        "8693": 227,
        "8694": 54,
        "8695": 183,
        "8696": 115,
        "8697": 87,
        "8698": 251,
        "8699": 85,
        "8700": 111,
        "8701": 237,
        "8702": 9,
        "8703": 182,
        "8704": 124,
        "8705": 200,
        "8706": 214,
        "8707": 187,
        "8708": 67,
        "8709": 174,
        "8710": 119,
        "8711": 243,
        "8712": 51,
        "8713": 66,
        "8714": 252,
        "8715": 165,
        "8716": 140,
        "8717": 139,
        "8718": 85,
        "8719": 176,
        "8720": 78,
        "8721": 27,
        "8722": 184,
        "8723": 95,
        "8724": 74,
        "8725": 211,
        "8726": 114,
        "8727": 26,
        "8728": 81,
        "8729": 109,
        "8730": 190,
        "8731": 172,
        "8732": 78,
        "8733": 227,
        "8734": 173,
        "8735": 109,
        "8736": 163,
        "8737": 82,
        "8738": 89,
        "8739": 155,
        "8740": 120,
        "8741": 85,
        "8742": 254,
        "8743": 193,
        "8744": 250,
        "8745": 203,
        "8746": 79,
        "8747": 129,
        "8748": 72,
        "8749": 64,
        "8750": 233,
        "8751": 165,
        "8752": 184,
        "8753": 23,
        "8754": 136,
        "8755": 0,
        "8756": 106,
        "8757": 74,
        "8758": 215,
        "8759": 173,
        "8760": 195,
        "8761": 212,
        "8762": 164,
        "8763": 148,
        "8764": 2,
        "8765": 255,
        "8766": 203,
        "8767": 213,
        "8768": 207,
        "8769": 140,
        "8770": 236,
        "8771": 100,
        "8772": 96,
        "8773": 26,
        "8774": 141,
        "8775": 225,
        "8776": 202,
        "8777": 46,
        "8778": 126,
        "8779": 139,
        "8780": 41,
        "8781": 239,
        "8782": 141,
        "8783": 106,
        "8784": 215,
        "8785": 38,
        "8786": 15,
        "8787": 66,
        "8788": 194,
        "8789": 82,
        "8790": 140,
        "8791": 8,
        "8792": 1,
        "8793": 241,
        "8794": 113,
        "8795": 224,
        "8796": 155,
        "8797": 218,
        "8798": 231,
        "8799": 146,
        "8800": 200,
        "8801": 46,
        "8802": 26,
        "8803": 42,
        "8804": 10,
        "8805": 58,
        "8806": 34,
        "8807": 129,
        "8808": 226,
        "8809": 117,
        "8810": 27,
        "8811": 137,
        "8812": 47,
        "8813": 169,
        "8814": 76,
        "8815": 227,
        "8816": 99,
        "8817": 10,
        "8818": 43,
        "8819": 80,
        "8820": 129,
        "8821": 235,
        "8822": 25,
        "8823": 204,
        "8824": 68,
        "8825": 216,
        "8826": 234,
        "8827": 214,
        "8828": 203,
        "8829": 244,
        "8830": 50,
        "8831": 165,
        "8832": 178,
        "8833": 83,
        "8834": 250,
        "8835": 173,
        "8836": 149,
        "8837": 179,
        "8838": 187,
        "8839": 35,
        "8840": 85,
        "8841": 3,
        "8842": 110,
        "8843": 81,
        "8844": 222,
        "8845": 51,
        "8846": 53,
        "8847": 235,
        "8848": 20,
        "8849": 169,
        "8850": 243,
        "8851": 105,
        "8852": 142,
        "8853": 184,
        "8854": 160,
        "8855": 171,
        "8856": 54,
        "8857": 103,
        "8858": 7,
        "8859": 110,
        "8860": 18,
        "8861": 139,
        "8862": 192,
        "8863": 21,
        "8864": 47,
        "8865": 174,
        "8866": 171,
        "8867": 49,
        "8868": 9,
        "8869": 67,
        "8870": 253,
        "8871": 103,
        "8872": 123,
        "8873": 2,
        "8874": 46,
        "8875": 232,
        "8876": 6,
        "8877": 17,
        "8878": 200,
        "8879": 3,
        "8880": 229,
        "8881": 197,
        "8882": 157,
        "8883": 26,
        "8884": 47,
        "8885": 26,
        "8886": 143,
        "8887": 112,
        "8888": 168,
        "8889": 105,
        "8890": 197,
        "8891": 149,
        "8892": 136,
        "8893": 153,
        "8894": 53,
        "8895": 90,
        "8896": 63,
        "8897": 233,
        "8898": 140,
        "8899": 76,
        "8900": 96,
        "8901": 97,
        "8902": 127,
        "8903": 30,
        "8904": 246,
        "8905": 64,
        "8906": 39,
        "8907": 146,
        "8908": 47,
        "8909": 242,
        "8910": 138,
        "8911": 145,
        "8912": 144,
        "8913": 82,
        "8914": 242,
        "8915": 166,
        "8916": 120,
        "8917": 140,
        "8918": 182,
        "8919": 127,
        "8920": 174,
        "8921": 164,
        "8922": 248,
        "8923": 213,
        "8924": 31,
        "8925": 37,
        "8926": 138,
        "8927": 85,
        "8928": 103,
        "8929": 184,
        "8930": 40,
        "8931": 203,
        "8932": 211,
        "8933": 146,
        "8934": 196,
        "8935": 87,
        "8936": 70,
        "8937": 73,
        "8938": 222,
        "8939": 71,
        "8940": 143,
        "8941": 170,
        "8942": 179,
        "8943": 6,
        "8944": 90,
        "8945": 151,
        "8946": 110,
        "8947": 113,
        "8948": 182,
        "8949": 6,
        "8950": 182,
        "8951": 160,
        "8952": 44,
        "8953": 232,
        "8954": 236,
        "8955": 64,
        "8956": 163,
        "8957": 88,
        "8958": 147,
        "8959": 230,
        "8960": 175,
        "8961": 18,
        "8962": 201,
        "8963": 79,
        "8964": 115,
        "8965": 57,
        "8966": 194,
        "8967": 90,
        "8968": 177,
        "8969": 174,
        "8970": 220,
        "8971": 26,
        "8972": 3,
        "8973": 174,
        "8974": 204,
        "8975": 235,
        "8976": 79,
        "8977": 148,
        "8978": 8,
        "8979": 109,
        "8980": 211,
        "8981": 88,
        "8982": 230,
        "8983": 89,
        "8984": 253,
        "8985": 37,
        "8986": 207,
        "8987": 216,
        "8988": 196,
        "8989": 117,
        "8990": 95,
        "8991": 80,
        "8992": 235,
        "8993": 106,
        "8994": 240,
        "8995": 104,
        "8996": 60,
        "8997": 168,
        "8998": 146,
        "8999": 166,
        "9000": 11,
        "9001": 157,
        "9002": 242,
        "9003": 24,
        "9004": 47,
        "9005": 247,
        "9006": 90,
        "9007": 207,
        "9008": 135,
        "9009": 86,
        "9010": 173,
        "9011": 178,
        "9012": 40,
        "9013": 73,
        "9014": 240,
        "9015": 246,
        "9016": 92,
        "9017": 30,
        "9018": 199,
        "9019": 23,
        "9020": 218,
        "9021": 172,
        "9022": 138,
        "9023": 64,
        "9024": 92,
        "9025": 0,
        "9026": 90,
        "9027": 75,
        "9028": 239,
        "9029": 196,
        "9030": 94,
        "9031": 201,
        "9032": 175,
        "9033": 209,
        "9034": 220,
        "9035": 246,
        "9036": 65,
        "9037": 107,
        "9038": 44,
        "9039": 218,
        "9040": 50,
        "9041": 123,
        "9042": 55,
        "9043": 72,
        "9044": 175,
        "9045": 158,
        "9046": 48,
        "9047": 48,
        "9048": 27,
        "9049": 240,
        "9050": 143,
        "9051": 187,
        "9052": 53,
        "9053": 232,
        "9054": 211,
        "9055": 75,
        "9056": 181,
        "9057": 59,
        "9058": 69,
        "9059": 202,
        "9060": 82,
        "9061": 78,
        "9062": 4,
        "9063": 44,
        "9064": 239,
        "9065": 98,
        "9066": 163,
        "9067": 64,
        "9068": 45,
        "9069": 127,
        "9070": 102,
        "9071": 171,
        "9072": 136,
        "9073": 5,
        "9074": 88,
        "9075": 89,
        "9076": 10,
        "9077": 207,
        "9078": 61,
        "9079": 216,
        "9080": 186,
        "9081": 14,
        "9082": 39,
        "9083": 39,
        "9084": 15,
        "9085": 35,
        "9086": 198,
        "9087": 157,
        "9088": 25,
        "9089": 61,
        "9090": 42,
        "9091": 38,
        "9092": 199,
        "9093": 159,
        "9094": 78,
        "9095": 152,
        "9096": 206,
        "9097": 200,
        "9098": 242,
        "9099": 172,
        "9100": 191,
        "9101": 173,
        "9102": 39,
        "9103": 109,
        "9104": 185,
        "9105": 165,
        "9106": 27,
        "9107": 71,
        "9108": 185,
        "9109": 190,
        "9110": 244,
        "9111": 210,
        "9112": 255,
        "9113": 19,
        "9114": 62,
        "9115": 112,
        "9116": 166,
        "9117": 165,
        "9118": 86,
        "9119": 228,
        "9120": 105,
        "9121": 122,
        "9122": 86,
        "9123": 116,
        "9124": 179,
        "9125": 89,
        "9126": 7,
        "9127": 150,
        "9128": 203,
        "9129": 44,
        "9130": 111,
        "9131": 153,
        "9132": 148,
        "9133": 185,
        "9134": 247,
        "9135": 205,
        "9136": 233,
        "9137": 54,
        "9138": 242,
        "9139": 54,
        "9140": 159,
        "9141": 213,
        "9142": 104,
        "9143": 29,
        "9144": 188,
        "9145": 96,
        "9146": 42,
        "9147": 95,
        "9148": 244,
        "9149": 222,
        "9150": 1,
        "9151": 16,
        "9152": 40,
        "9153": 153,
        "9154": 107,
        "9155": 80,
        "9156": 233,
        "9157": 176,
        "9158": 130,
        "9159": 68,
        "9160": 184,
        "9161": 78,
        "9162": 80,
        "9163": 35,
        "9164": 156,
        "9165": 53,
        "9166": 116,
        "9167": 254,
        "9168": 184,
        "9169": 71,
        "9170": 119,
        "9171": 90,
        "9172": 167,
        "9173": 124,
        "9174": 34,
        "9175": 39,
        "9176": 217,
        "9177": 106,
        "9178": 231,
        "9179": 2,
        "9180": 140,
        "9181": 128,
        "9182": 198,
        "9183": 250,
        "9184": 61,
        "9185": 187,
        "9186": 185,
        "9187": 88,
        "9188": 12,
        "9189": 162,
        "9190": 252,
        "9191": 251,
        "9192": 85,
        "9193": 108,
        "9194": 3,
        "9195": 215,
        "9196": 43,
        "9197": 221,
        "9198": 242,
        "9199": 174,
        "9200": 67,
        "9201": 7,
        "9202": 7,
        "9203": 9,
        "9204": 164,
        "9205": 23,
        "9206": 246,
        "9207": 86,
        "9208": 67,
        "9209": 118,
        "9210": 185,
        "9211": 124,
        "9212": 210,
        "9213": 190,
        "9214": 33,
        "9215": 39,
        "9216": 81,
        "9217": 190,
        "9218": 214,
        "9219": 41,
        "9220": 26,
        "9221": 222,
        "9222": 94,
        "9223": 50,
        "9224": 143,
        "9225": 47,
        "9226": 117,
        "9227": 85,
        "9228": 37,
        "9229": 126,
        "9230": 25,
        "9231": 137,
        "9232": 15,
        "9233": 193,
        "9234": 177,
        "9235": 243,
        "9236": 230,
        "9237": 166,
        "9238": 82,
        "9239": 128,
        "9240": 203,
        "9241": 68,
        "9242": 99,
        "9243": 91,
        "9244": 15,
        "9245": 31,
        "9246": 170,
        "9247": 126,
        "9248": 33,
        "9249": 65,
        "9250": 118,
        "9251": 201,
        "9252": 102,
        "9253": 6,
        "9254": 152,
        "9255": 186,
        "9256": 218,
        "9257": 239,
        "9258": 203,
        "9259": 226,
        "9260": 138,
        "9261": 29,
        "9262": 161,
        "9263": 190,
        "9264": 156,
        "9265": 10,
        "9266": 210,
        "9267": 131,
        "9268": 218,
        "9269": 113,
        "9270": 220,
        "9271": 64,
        "9272": 245,
        "9273": 12,
        "9274": 162,
        "9275": 68,
        "9276": 130,
        "9277": 165,
        "9278": 199,
        "9279": 185,
        "9280": 13,
        "9281": 209,
        "9282": 104,
        "9283": 143,
        "9284": 155,
        "9285": 55,
        "9286": 39,
        "9287": 81,
        "9288": 59,
        "9289": 60,
        "9290": 197,
        "9291": 140,
        "9292": 9,
        "9293": 30,
        "9294": 201,
        "9295": 18,
        "9296": 113,
        "9297": 250,
        "9298": 12,
        "9299": 129,
        "9300": 237,
        "9301": 251,
        "9302": 130,
        "9303": 28,
        "9304": 146,
        "9305": 91,
        "9306": 11,
        "9307": 2,
        "9308": 84,
        "9309": 207,
        "9310": 126,
        "9311": 56,
        "9312": 216,
        "9313": 1,
        "9314": 189,
        "9315": 32,
        "9316": 142,
        "9317": 26,
        "9318": 65,
        "9319": 70,
        "9320": 126,
        "9321": 197,
        "9322": 252,
        "9323": 58,
        "9324": 5,
        "9325": 136,
        "9326": 38,
        "9327": 30,
        "9328": 249,
        "9329": 109,
        "9330": 215,
        "9331": 15,
        "9332": 37,
        "9333": 73,
        "9334": 61,
        "9335": 57,
        "9336": 28,
        "9337": 64,
        "9338": 78,
        "9339": 252,
        "9340": 38,
        "9341": 207,
        "9342": 31,
        "9343": 5,
        "9344": 164,
        "9345": 196,
        "9346": 149,
        "9347": 39,
        "9348": 133,
        "9349": 135,
        "9350": 227,
        "9351": 153,
        "9352": 3,
        "9353": 208,
        "9354": 9,
        "9355": 135,
        "9356": 11,
        "9357": 10,
        "9358": 206,
        "9359": 0,
        "9360": 161,
        "9361": 65,
        "9362": 6,
        "9363": 250,
        "9364": 34,
        "9365": 16,
        "9366": 20,
        "9367": 69,
        "9368": 107,
        "9369": 32,
        "9370": 77,
        "9371": 13,
        "9372": 175,
        "9373": 245,
        "9374": 148,
        "9375": 132,
        "9376": 36,
        "9377": 194,
        "9378": 146,
        "9379": 155,
        "9380": 198,
        "9381": 153,
        "9382": 96,
        "9383": 141,
        "9384": 74,
        "9385": 94,
        "9386": 86,
        "9387": 166,
        "9388": 60,
        "9389": 68,
        "9390": 241,
        "9391": 209,
        "9392": 90,
        "9393": 246,
        "9394": 37,
        "9395": 10,
        "9396": 51,
        "9397": 200,
        "9398": 139,
        "9399": 111,
        "9400": 97,
        "9401": 36,
        "9402": 117,
        "9403": 227,
        "9404": 220,
        "9405": 188,
        "9406": 38,
        "9407": 39,
        "9408": 144,
        "9409": 113,
        "9410": 2,
        "9411": 44,
        "9412": 182,
        "9413": 141,
        "9414": 157,
        "9415": 214,
        "9416": 235,
        "9417": 95,
        "9418": 200,
        "9419": 118,
        "9420": 198,
        "9421": 223,
        "9422": 181,
        "9423": 44,
        "9424": 52,
        "9425": 40,
        "9426": 202,
        "9427": 198,
        "9428": 53,
        "9429": 222,
        "9430": 105,
        "9431": 169,
        "9432": 250,
        "9433": 111,
        "9434": 100,
        "9435": 185,
        "9436": 32,
        "9437": 166,
        "9438": 194,
        "9439": 250,
        "9440": 67,
        "9441": 96,
        "9442": 53,
        "9443": 99,
        "9444": 205,
        "9445": 45,
        "9446": 241,
        "9447": 175,
        "9448": 114,
        "9449": 160,
        "9450": 9,
        "9451": 191,
        "9452": 88,
        "9453": 244,
        "9454": 2,
        "9455": 253,
        "9456": 195,
        "9457": 18,
        "9458": 58,
        "9459": 68,
        "9460": 128,
        "9461": 88,
        "9462": 94,
        "9463": 43,
        "9464": 193,
        "9465": 222,
        "9466": 22,
        "9467": 69,
        "9468": 220,
        "9469": 163,
        "9470": 229,
        "9471": 115,
        "9472": 50,
        "9473": 227,
        "9474": 24,
        "9475": 107,
        "9476": 14,
        "9477": 181,
        "9478": 138,
        "9479": 242,
        "9480": 126,
        "9481": 3,
        "9482": 130,
        "9483": 217,
        "9484": 23,
        "9485": 69,
        "9486": 144,
        "9487": 36,
        "9488": 186,
        "9489": 151,
        "9490": 131,
        "9491": 64,
        "9492": 109,
        "9493": 113,
        "9494": 128,
        "9495": 3,
        "9496": 72,
        "9497": 174,
        "9498": 123,
        "9499": 130,
        "9500": 82,
        "9501": 127,
        "9502": 229,
        "9503": 55,
        "9504": 26,
        "9505": 141,
        "9506": 21,
        "9507": 60,
        "9508": 25,
        "9509": 156,
        "9510": 129,
        "9511": 130,
        "9512": 130,
        "9513": 73,
        "9514": 117,
        "9515": 185,
        "9516": 116,
        "9517": 116,
        "9518": 99,
        "9519": 229,
        "9520": 90,
        "9521": 166,
        "9522": 88,
        "9523": 136,
        "9524": 100,
        "9525": 128,
        "9526": 114,
        "9527": 32,
        "9528": 215,
        "9529": 40,
        "9530": 45,
        "9531": 186,
        "9532": 33,
        "9533": 168,
        "9534": 244,
        "9535": 51,
        "9536": 231,
        "9537": 93,
        "9538": 134,
        "9539": 69,
        "9540": 18,
        "9541": 83,
        "9542": 3,
        "9543": 112,
        "9544": 146,
        "9545": 128,
        "9546": 73,
        "9547": 131,
        "9548": 141,
        "9549": 188,
        "9550": 11,
        "9551": 114,
        "9552": 131,
        "9553": 85,
        "9554": 144,
        "9555": 136,
        "9556": 222,
        "9557": 228,
        "9558": 137,
        "9559": 46,
        "9560": 186,
        "9561": 44,
        "9562": 143,
        "9563": 91,
        "9564": 30,
        "9565": 29,
        "9566": 119,
        "9567": 58,
        "9568": 24,
        "9569": 17,
        "9570": 214,
        "9571": 254,
        "9572": 50,
        "9573": 171,
        "9574": 237,
        "9575": 24,
        "9576": 77,
        "9577": 101,
        "9578": 253,
        "9579": 37,
        "9580": 26,
        "9581": 215,
        "9582": 127,
        "9583": 184,
        "9584": 116,
        "9585": 60,
        "9586": 34,
        "9587": 200,
        "9588": 213,
        "9589": 205,
        "9590": 196,
        "9591": 87,
        "9592": 143,
        "9593": 147,
        "9594": 155,
        "9595": 80,
        "9596": 254,
        "9597": 255,
        "9598": 172,
        "9599": 194,
        "9600": 198,
        "9601": 175,
        "9602": 46,
        "9603": 182,
        "9604": 178,
        "9605": 134,
        "9606": 204,
        "9607": 96,
        "9608": 98,
        "9609": 187,
        "9610": 242,
        "9611": 237,
        "9612": 152,
        "9613": 151,
        "9614": 227,
        "9615": 188,
        "9616": 78,
        "9617": 50,
        "9618": 197,
        "9619": 242,
        "9620": 228,
        "9621": 146,
        "9622": 107,
        "9623": 245,
        "9624": 196,
        "9625": 235,
        "9626": 22,
        "9627": 239,
        "9628": 157,
        "9629": 178,
        "9630": 130,
        "9631": 109,
        "9632": 12,
        "9633": 166,
        "9634": 166,
        "9635": 200,
        "9636": 144,
        "9637": 12,
        "9638": 210,
        "9639": 95,
        "9640": 220,
        "9641": 33,
        "9642": 253,
        "9643": 73,
        "9644": 124,
        "9645": 241,
        "9646": 98,
        "9647": 167,
        "9648": 28,
        "9649": 103,
        "9650": 242,
        "9651": 8,
        "9652": 68,
        "9653": 79,
        "9654": 124,
        "9655": 185,
        "9656": 188,
        "9657": 225,
        "9658": 146,
        "9659": 198,
        "9660": 42,
        "9661": 17,
        "9662": 35,
        "9663": 99,
        "9664": 79,
        "9665": 149,
        "9666": 48,
        "9667": 32,
        "9668": 93,
        "9669": 115,
        "9670": 183,
        "9671": 35,
        "9672": 7,
        "9673": 243,
        "9674": 107,
        "9675": 240,
        "9676": 126,
        "9677": 198,
        "9678": 71,
        "9679": 81,
        "9680": 221,
        "9681": 243,
        "9682": 244,
        "9683": 244,
        "9684": 142,
        "9685": 154,
        "9686": 237,
        "9687": 62,
        "9688": 93,
        "9689": 163,
        "9690": 63,
        "9691": 49,
        "9692": 222,
        "9693": 121,
        "9694": 122,
        "9695": 93,
        "9696": 77,
        "9697": 116,
        "9698": 72,
        "9699": 59,
        "9700": 87,
        "9701": 44,
        "9702": 234,
        "9703": 170,
        "9704": 122,
        "9705": 74,
        "9706": 238,
        "9707": 16,
        "9708": 241,
        "9709": 110,
        "9710": 157,
        "9711": 23,
        "9712": 171,
        "9713": 193,
        "9714": 127,
        "9715": 254,
        "9716": 144,
        "9717": 104,
        "9718": 245,
        "9719": 3,
        "9720": 198,
        "9721": 249,
        "9722": 150,
        "9723": 140,
        "9724": 52,
        "9725": 118,
        "9726": 1,
        "9727": 168,
        "9728": 212,
        "9729": 163,
        "9730": 216,
        "9731": 6,
        "9732": 53,
        "9733": 222,
        "9734": 204,
        "9735": 164,
        "9736": 21,
        "9737": 20,
        "9738": 253,
        "9739": 233,
        "9740": 21,
        "9741": 46,
        "9742": 18,
        "9743": 174,
        "9744": 223,
        "9745": 17,
        "9746": 19,
        "9747": 128,
        "9748": 69,
        "9749": 124,
        "9750": 222,
        "9751": 9,
        "9752": 74,
        "9753": 66,
        "9754": 61,
        "9755": 220,
        "9756": 49,
        "9757": 117,
        "9758": 90,
        "9759": 192,
        "9760": 66,
        "9761": 134,
        "9762": 93,
        "9763": 68,
        "9764": 168,
        "9765": 137,
        "9766": 148,
        "9767": 151,
        "9768": 126,
        "9769": 175,
        "9770": 142,
        "9771": 70,
        "9772": 216,
        "9773": 96,
        "9774": 202,
        "9775": 124,
        "9776": 162,
        "9777": 25,
        "9778": 9,
        "9779": 231,
        "9780": 242,
        "9781": 2,
        "9782": 43,
        "9783": 209,
        "9784": 76,
        "9785": 201,
        "9786": 40,
        "9787": 53,
        "9788": 39,
        "9789": 155,
        "9790": 81,
        "9791": 155,
        "9792": 55,
        "9793": 90,
        "9794": 90,
        "9795": 204,
        "9796": 247,
        "9797": 234,
        "9798": 209,
        "9799": 29,
        "9800": 46,
        "9801": 20,
        "9802": 25,
        "9803": 9,
        "9804": 77,
        "9805": 250,
        "9806": 122,
        "9807": 229,
        "9808": 4,
        "9809": 111,
        "9810": 172,
        "9811": 234,
        "9812": 250,
        "9813": 164,
        "9814": 56,
        "9815": 151,
        "9816": 95,
        "9817": 70,
        "9818": 210,
        "9819": 32,
        "9820": 96,
        "9821": 26,
        "9822": 6,
        "9823": 118,
        "9824": 37,
        "9825": 51,
        "9826": 215,
        "9827": 192,
        "9828": 206,
        "9829": 167,
        "9830": 14,
        "9831": 139,
        "9832": 94,
        "9833": 250,
        "9834": 11,
        "9835": 106,
        "9836": 68,
        "9837": 84,
        "9838": 80,
        "9839": 117,
        "9840": 53,
        "9841": 162,
        "9842": 61,
        "9843": 102,
        "9844": 180,
        "9845": 214,
        "9846": 94,
        "9847": 86,
        "9848": 73,
        "9849": 221,
        "9850": 173,
        "9851": 58,
        "9852": 162,
        "9853": 14,
        "9854": 179,
        "9855": 35,
        "9856": 127,
        "9857": 101,
        "9858": 114,
        "9859": 205,
        "9860": 9,
        "9861": 23,
        "9862": 7,
        "9863": 239,
        "9864": 35,
        "9865": 22,
        "9866": 106,
        "9867": 125,
        "9868": 183,
        "9869": 59,
        "9870": 168,
        "9871": 240,
        "9872": 89,
        "9873": 46,
        "9874": 211,
        "9875": 181,
        "9876": 156,
        "9877": 245,
        "9878": 171,
        "9879": 187,
        "9880": 41,
        "9881": 96,
        "9882": 104,
        "9883": 113,
        "9884": 240,
        "9885": 153,
        "9886": 154,
        "9887": 134,
        "9888": 76,
        "9889": 237,
        "9890": 35,
        "9891": 146,
        "9892": 57,
        "9893": 75,
        "9894": 68,
        "9895": 233,
        "9896": 255,
        "9897": 77,
        "9898": 35,
        "9899": 115,
        "9900": 0,
        "9901": 152,
        "9902": 59,
        "9903": 17,
        "9904": 143,
        "9905": 147,
        "9906": 13,
        "9907": 144,
        "9908": 41,
        "9909": 156,
        "9910": 23,
        "9911": 65,
        "9912": 81,
        "9913": 146,
        "9914": 119,
        "9915": 205,
        "9916": 182,
        "9917": 33,
        "9918": 110,
        "9919": 244,
        "9920": 197,
        "9921": 84,
        "9922": 166,
        "9923": 141,
        "9924": 211,
        "9925": 217,
        "9926": 191,
        "9927": 49,
        "9928": 241,
        "9929": 252,
        "9930": 81,
        "9931": 150,
        "9932": 242,
        "9933": 243,
        "9934": 47,
        "9935": 99,
        "9936": 148,
        "9937": 161,
        "9938": 46,
        "9939": 81,
        "9940": 138,
        "9941": 91,
        "9942": 92,
        "9943": 248,
        "9944": 212,
        "9945": 17,
        "9946": 49,
        "9947": 171,
        "9948": 160,
        "9949": 159,
        "9950": 197,
        "9951": 7,
        "9952": 2,
        "9953": 93,
        "9954": 169,
        "9955": 126,
        "9956": 137,
        "9957": 219,
        "9958": 135,
        "9959": 26,
        "9960": 218,
        "9961": 183,
        "9962": 198,
        "9963": 29,
        "9964": 66,
        "9965": 185,
        "9966": 33,
        "9967": 125,
        "9968": 160,
        "9969": 221,
        "9970": 57,
        "9971": 245,
        "9972": 233,
        "9973": 202,
        "9974": 29,
        "9975": 36,
        "9976": 241,
        "9977": 64,
        "9978": 225,
        "9979": 219,
        "9980": 7,
        "9981": 241,
        "9982": 121,
        "9983": 110,
        "9984": 54,
        "9985": 56,
        "9986": 220,
        "9987": 82,
        "9988": 12,
        "9989": 104,
        "9990": 93,
        "9991": 188,
        "9992": 138,
        "9993": 117,
        "9994": 123,
        "9995": 8,
        "9996": 202,
        "9997": 173,
        "9998": 166,
        "9999": 83,
        "10000": 60,
        "10001": 163,
        "10002": 167,
        "10003": 177,
        "10004": 108,
        "10005": 202,
        "10006": 90,
        "10007": 5,
        "10008": 193,
        "10009": 36,
        "10010": 5,
        "10011": 0,
        "10012": 190,
        "10013": 191,
        "10014": 129,
        "10015": 239,
        "10016": 27,
        "10017": 40,
        "10018": 56,
        "10019": 13,
        "10020": 135,
        "10021": 243,
        "10022": 82,
        "10023": 112,
        "10024": 130,
        "10025": 82,
        "10026": 94,
        "10027": 86,
        "10028": 121,
        "10029": 198,
        "10030": 159,
        "10031": 136,
        "10032": 227,
        "10033": 236,
        "10034": 100,
        "10035": 97,
        "10036": 4,
        "10037": 167,
        "10038": 178,
        "10039": 92,
        "10040": 233,
        "10041": 76,
        "10042": 209,
        "10043": 176,
        "10044": 112,
        "10045": 37,
        "10046": 152,
        "10047": 202,
        "10048": 246,
        "10049": 127,
        "10050": 176,
        "10051": 161,
        "10052": 251,
        "10053": 80,
        "10054": 136,
        "10055": 34,
        "10056": 240,
        "10057": 77,
        "10058": 149,
        "10059": 109,
        "10060": 148,
        "10061": 82,
        "10062": 33,
        "10063": 13,
        "10064": 119,
        "10065": 65,
        "10066": 81,
        "10067": 90,
        "10068": 232,
        "10069": 236,
        "10070": 191,
        "10071": 13,
        "10072": 79,
        "10073": 65,
        "10074": 58,
        "10075": 48,
        "10076": 226,
        "10077": 204,
        "10078": 205,
        "10079": 38,
        "10080": 184,
        "10081": 132,
        "10082": 115,
        "10083": 26,
        "10084": 68,
        "10085": 151,
        "10086": 185,
        "10087": 38,
        "10088": 76,
        "10089": 15,
        "10090": 251,
        "10091": 4,
        "10092": 146,
        "10093": 46,
        "10094": 211,
        "10095": 34,
        "10096": 59,
        "10097": 159,
        "10098": 13,
        "10099": 245,
        "10100": 30,
        "10101": 67,
        "10102": 18,
        "10103": 34,
        "10104": 4,
        "10105": 119,
        "10106": 128,
        "10107": 74,
        "10108": 175,
        "10109": 199,
        "10110": 97,
        "10111": 31,
        "10112": 230,
        "10113": 128,
        "10114": 17,
        "10115": 45,
        "10116": 98,
        "10117": 101,
        "10118": 190,
        "10119": 1,
        "10120": 103,
        "10121": 72,
        "10122": 91,
        "10123": 38,
        "10124": 216,
        "10125": 232,
        "10126": 10,
        "10127": 34,
        "10128": 201,
        "10129": 73,
        "10130": 124,
        "10131": 39,
        "10132": 195,
        "10133": 176,
        "10134": 231,
        "10135": 156,
        "10136": 97,
        "10137": 116,
        "10138": 148,
        "10139": 101,
        "10140": 252,
        "10141": 79,
        "10142": 65,
        "10143": 46,
        "10144": 43,
        "10145": 223,
        "10146": 240,
        "10147": 230,
        "10148": 106,
        "10149": 3,
        "10150": 92,
        "10151": 252,
        "10152": 53,
        "10153": 142,
        "10154": 91,
        "10155": 180,
        "10156": 55,
        "10157": 23,
        "10158": 114,
        "10159": 176,
        "10160": 57,
        "10161": 197,
        "10162": 165,
        "10163": 96,
        "10164": 33,
        "10165": 246,
        "10166": 214,
        "10167": 205,
        "10168": 84,
        "10169": 199,
        "10170": 205,
        "10171": 206,
        "10172": 123,
        "10173": 214,
        "10174": 230,
        "10175": 74,
        "10176": 126,
        "10177": 226,
        "10178": 225,
        "10179": 239,
        "10180": 79,
        "10181": 237,
        "10182": 73,
        "10183": 160,
        "10184": 240,
        "10185": 206,
        "10186": 175,
        "10187": 252,
        "10188": 134,
        "10189": 133,
        "10190": 218,
        "10191": 127,
        "10192": 214,
        "10193": 29,
        "10194": 10,
        "10195": 5,
        "10196": 202,
        "10197": 124,
        "10198": 24,
        "10199": 216,
        "10200": 171,
        "10201": 26,
        "10202": 231,
        "10203": 252,
        "10204": 136,
        "10205": 156,
        "10206": 52,
        "10207": 90,
        "10208": 136,
        "10209": 162,
        "10210": 43,
        "10211": 192,
        "10212": 63,
        "10213": 25,
        "10214": 254,
        "10215": 81,
        "10216": 45,
        "10217": 102,
        "10218": 173,
        "10219": 106,
        "10220": 130,
        "10221": 15,
        "10222": 87,
        "10223": 22,
        "10224": 65,
        "10225": 119,
        "10226": 189,
        "10227": 241,
        "10228": 213,
        "10229": 220,
        "10230": 116,
        "10231": 175,
        "10232": 218,
        "10233": 210,
        "10234": 159,
        "10235": 8,
        "10236": 41,
        "10237": 109,
        "10238": 162,
        "10239": 196,
        "10240": 191,
        "10241": 72,
        "10242": 235,
        "10243": 196,
        "10244": 128,
        "10245": 32,
        "10246": 155,
        "10247": 206,
        "10248": 58,
        "10249": 242,
        "10250": 192,
        "10251": 86,
        "10252": 32,
        "10253": 242,
        "10254": 145,
        "10255": 63,
        "10256": 71,
        "10257": 135,
        "10258": 213,
        "10259": 60,
        "10260": 56,
        "10261": 27,
        "10262": 33,
        "10263": 32,
        "10264": 198,
        "10265": 9,
        "10266": 69,
        "10267": 61,
        "10268": 16,
        "10269": 234,
        "10270": 111,
        "10271": 213,
        "10272": 229,
        "10273": 237,
        "10274": 155,
        "10275": 196,
        "10276": 158,
        "10277": 150,
        "10278": 120,
        "10279": 122,
        "10280": 216,
        "10281": 140,
        "10282": 80,
        "10283": 164,
        "10284": 235,
        "10285": 242,
        "10286": 157,
        "10287": 13,
        "10288": 23,
        "10289": 160,
        "10290": 189,
        "10291": 40,
        "10292": 182,
        "10293": 44,
        "10294": 127,
        "10295": 229,
        "10296": 41,
        "10297": 31,
        "10298": 195,
        "10299": 94,
        "10300": 143,
        "10301": 52,
        "10302": 88,
        "10303": 48,
        "10304": 221,
        "10305": 10,
        "10306": 252,
        "10307": 103,
        "10308": 151,
        "10309": 163,
        "10310": 27,
        "10311": 52,
        "10312": 220,
        "10313": 84,
        "10314": 210,
        "10315": 38,
        "10316": 173,
        "10317": 186,
        "10318": 235,
        "10319": 144,
        "10320": 137,
        "10321": 116,
        "10322": 11,
        "10323": 238,
        "10324": 221,
        "10325": 243,
        "10326": 110,
        "10327": 199,
        "10328": 188,
        "10329": 134,
        "10330": 235,
        "10331": 123,
        "10332": 252,
        "10333": 135,
        "10334": 36,
        "10335": 129,
        "10336": 31,
        "10337": 102,
        "10338": 76,
        "10339": 29,
        "10340": 132,
        "10341": 110,
        "10342": 158,
        "10343": 53,
        "10344": 171,
        "10345": 183,
        "10346": 208,
        "10347": 215,
        "10348": 75,
        "10349": 143,
        "10350": 110,
        "10351": 105,
        "10352": 55,
        "10353": 211,
        "10354": 6,
        "10355": 178,
        "10356": 3,
        "10357": 16,
        "10358": 18,
        "10359": 147,
        "10360": 194,
        "10361": 59,
        "10362": 89,
        "10363": 51,
        "10364": 194,
        "10365": 175,
        "10366": 95,
        "10367": 156,
        "10368": 193,
        "10369": 160,
        "10370": 38,
        "10371": 3,
        "10372": 207,
        "10373": 210,
        "10374": 99,
        "10375": 8,
        "10376": 25,
        "10377": 241,
        "10378": 42,
        "10379": 154,
        "10380": 146,
        "10381": 251,
        "10382": 158,
        "10383": 137,
        "10384": 178,
        "10385": 220,
        "10386": 110,
        "10387": 19,
        "10388": 56,
        "10389": 81,
        "10390": 230,
        "10391": 225,
        "10392": 188,
        "10393": 115,
        "10394": 166,
        "10395": 53,
        "10396": 68,
        "10397": 181,
        "10398": 142,
        "10399": 123,
        "10400": 191,
        "10401": 240,
        "10402": 184,
        "10403": 141,
        "10404": 18,
        "10405": 251,
        "10406": 238,
        "10407": 83,
        "10408": 197,
        "10409": 216,
        "10410": 127,
        "10411": 100,
        "10412": 132,
        "10413": 165,
        "10414": 181,
        "10415": 60,
        "10416": 171,
        "10417": 74,
        "10418": 220,
        "10419": 127,
        "10420": 169,
        "10421": 190,
        "10422": 231,
        "10423": 38,
        "10424": 253,
        "10425": 63,
        "10426": 199,
        "10427": 74,
        "10428": 125,
        "10429": 53,
        "10430": 131,
        "10431": 21,
        "10432": 234,
        "10433": 34,
        "10434": 183,
        "10435": 188,
        "10436": 136,
        "10437": 55,
        "10438": 82,
        "10439": 177,
        "10440": 29,
        "10441": 56,
        "10442": 94,
        "10443": 162,
        "10444": 97,
        "10445": 80,
        "10446": 5,
        "10447": 31,
        "10448": 25,
        "10449": 89,
        "10450": 212,
        "10451": 94,
        "10452": 228,
        "10453": 138,
        "10454": 54,
        "10455": 115,
        "10456": 92,
        "10457": 155,
        "10458": 110,
        "10459": 148,
        "10460": 169,
        "10461": 226,
        "10462": 189,
        "10463": 108,
        "10464": 187,
        "10465": 137,
        "10466": 224,
        "10467": 219,
        "10468": 245,
        "10469": 94,
        "10470": 112,
        "10471": 57,
        "10472": 133,
        "10473": 129,
        "10474": 65,
        "10475": 218,
        "10476": 59,
        "10477": 108,
        "10478": 175,
        "10479": 41,
        "10480": 200,
        "10481": 102,
        "10482": 221,
        "10483": 207,
        "10484": 137,
        "10485": 59,
        "10486": 12,
        "10487": 173,
        "10488": 149,
        "10489": 127,
        "10490": 215,
        "10491": 54,
        "10492": 162,
        "10493": 112,
        "10494": 63,
        "10495": 236,
        "10496": 0,
        "10497": 235,
        "10498": 176,
        "10499": 29,
        "10500": 66,
        "10501": 151,
        "10502": 108,
        "10503": 164,
        "10504": 136,
        "10505": 141,
        "10506": 216,
        "10507": 69,
        "10508": 29,
        "10509": 228,
        "10510": 174,
        "10511": 109,
        "10512": 46,
        "10513": 1,
        "10514": 232,
        "10515": 20,
        "10516": 83,
        "10517": 53,
        "10518": 95,
        "10519": 99,
        "10520": 232,
        "10521": 180,
        "10522": 212,
        "10523": 114,
        "10524": 113,
        "10525": 93,
        "10526": 37,
        "10527": 102,
        "10528": 125,
        "10529": 135,
        "10530": 232,
        "10531": 174,
        "10532": 135,
        "10533": 254,
        "10534": 73,
        "10535": 110,
        "10536": 205,
        "10537": 78,
        "10538": 148,
        "10539": 35,
        "10540": 69,
        "10541": 80,
        "10542": 174,
        "10543": 129,
        "10544": 131,
        "10545": 59,
        "10546": 185,
        "10547": 233,
        "10548": 99,
        "10549": 104,
        "10550": 169,
        "10551": 7,
        "10552": 39,
        "10553": 239,
        "10554": 226,
        "10555": 95,
        "10556": 85,
        "10557": 122,
        "10558": 149,
        "10559": 253,
        "10560": 127,
        "10561": 189,
        "10562": 129,
        "10563": 190,
        "10564": 143,
        "10565": 51,
        "10566": 225,
        "10567": 199,
        "10568": 203,
        "10569": 68,
        "10570": 217,
        "10571": 215,
        "10572": 191,
        "10573": 180,
        "10574": 137,
        "10575": 207,
        "10576": 104,
        "10577": 89,
        "10578": 87,
        "10579": 162,
        "10580": 210,
        "10581": 86,
        "10582": 99,
        "10583": 124,
        "10584": 19,
        "10585": 2,
        "10586": 231,
        "10587": 205,
        "10588": 143,
        "10589": 218,
        "10590": 57,
        "10591": 46,
        "10592": 186,
        "10593": 197,
        "10594": 5,
        "10595": 3,
        "10596": 232,
        "10597": 175,
        "10598": 45,
        "10599": 38,
        "10600": 65,
        "10601": 106,
        "10602": 179,
        "10603": 16,
        "10604": 88,
        "10605": 81,
        "10606": 114,
        "10607": 127,
        "10608": 17,
        "10609": 132,
        "10610": 92,
        "10611": 175,
        "10612": 202,
        "10613": 208,
        "10614": 175,
        "10615": 186,
        "10616": 97,
        "10617": 159,
        "10618": 245,
        "10619": 68,
        "10620": 173,
        "10621": 186,
        "10622": 38,
        "10623": 163,
        "10624": 3,
        "10625": 192,
        "10626": 99,
        "10627": 190,
        "10628": 220,
        "10629": 73,
        "10630": 150,
        "10631": 77,
        "10632": 233,
        "10633": 155,
        "10634": 129,
        "10635": 13,
        "10636": 113,
        "10637": 8,
        "10638": 115,
        "10639": 195,
        "10640": 75,
        "10641": 210,
        "10642": 204,
        "10643": 110,
        "10644": 60,
        "10645": 216,
        "10646": 11,
        "10647": 53,
        "10648": 44,
        "10649": 221,
        "10650": 77,
        "10651": 125,
        "10652": 219,
        "10653": 225,
        "10654": 79,
        "10655": 72,
        "10656": 110,
        "10657": 254,
        "10658": 16,
        "10659": 212,
        "10660": 212,
        "10661": 200,
        "10662": 44,
        "10663": 245,
        "10664": 99,
        "10665": 59,
        "10666": 112,
        "10667": 161,
        "10668": 114,
        "10669": 177,
        "10670": 227,
        "10671": 108,
        "10672": 164,
        "10673": 198,
        "10674": 189,
        "10675": 183,
        "10676": 205,
        "10677": 84,
        "10678": 226,
        "10679": 70,
        "10680": 92,
        "10681": 140,
        "10682": 242,
        "10683": 188,
        "10684": 214,
        "10685": 235,
        "10686": 135,
        "10687": 143,
        "10688": 113,
        "10689": 255,
        "10690": 49,
        "10691": 53,
        "10692": 229,
        "10693": 236,
        "10694": 235,
        "10695": 147,
        "10696": 159,
        "10697": 223,
        "10698": 3,
        "10699": 233,
        "10700": 41,
        "10701": 52,
        "10702": 70,
        "10703": 148,
        "10704": 133,
        "10705": 12,
        "10706": 89,
        "10707": 41,
        "10708": 40,
        "10709": 186,
        "10710": 8,
        "10711": 8,
        "10712": 65,
        "10713": 246,
        "10714": 109,
        "10715": 53,
        "10716": 228,
        "10717": 152,
        "10718": 78,
        "10719": 144,
        "10720": 122,
        "10721": 205,
        "10722": 173,
        "10723": 97,
        "10724": 58,
        "10725": 207,
        "10726": 12,
        "10727": 65,
        "10728": 79,
        "10729": 38,
        "10730": 232,
        "10731": 157,
        "10732": 53,
        "10733": 56,
        "10734": 246,
        "10735": 92,
        "10736": 123,
        "10737": 35,
        "10738": 224,
        "10739": 209,
        "10740": 43,
        "10741": 116,
        "10742": 0,
        "10743": 70,
        "10744": 9,
        "10745": 253,
        "10746": 47,
        "10747": 188,
        "10748": 227,
        "10749": 35,
        "10750": 219,
        "10751": 0,
        "10752": 104,
        "10753": 197,
        "10754": 223,
        "10755": 36,
        "10756": 155,
        "10757": 208,
        "10758": 213,
        "10759": 102,
        "10760": 170,
        "10761": 173,
        "10762": 187,
        "10763": 193,
        "10764": 43,
        "10765": 171,
        "10766": 47,
        "10767": 131,
        "10768": 234,
        "10769": 223,
        "10770": 216,
        "10771": 201,
        "10772": 202,
        "10773": 120,
        "10774": 50,
        "10775": 146,
        "10776": 109,
        "10777": 144,
        "10778": 165,
        "10779": 140,
        "10780": 68,
        "10781": 249,
        "10782": 161,
        "10783": 170,
        "10784": 165,
        "10785": 157,
        "10786": 10,
        "10787": 212,
        "10788": 59,
        "10789": 162,
        "10790": 198,
        "10791": 44,
        "10792": 10,
        "10793": 102,
        "10794": 88,
        "10795": 206,
        "10796": 200,
        "10797": 64,
        "10798": 43,
        "10799": 206,
        "10800": 43,
        "10801": 150,
        "10802": 178,
        "10803": 161,
        "10804": 209,
        "10805": 17,
        "10806": 76,
        "10807": 78,
        "10808": 61,
        "10809": 150,
        "10810": 42,
        "10811": 8,
        "10812": 18,
        "10813": 55,
        "10814": 89,
        "10815": 113,
        "10816": 240,
        "10817": 86,
        "10818": 98,
        "10819": 175,
        "10820": 155,
        "10821": 102,
        "10822": 238,
        "10823": 172,
        "10824": 242,
        "10825": 65,
        "10826": 220,
        "10827": 20,
        "10828": 43,
        "10829": 2,
        "10830": 62,
        "10831": 227,
        "10832": 173,
        "10833": 126,
        "10834": 108,
        "10835": 240,
        "10836": 105,
        "10837": 132,
        "10838": 162,
        "10839": 63,
        "10840": 220,
        "10841": 211,
        "10842": 206,
        "10843": 169,
        "10844": 102,
        "10845": 18,
        "10846": 103,
        "10847": 41,
        "10848": 145,
        "10849": 101,
        "10850": 106,
        "10851": 211,
        "10852": 56,
        "10853": 124,
        "10854": 14,
        "10855": 196,
        "10856": 164,
        "10857": 78,
        "10858": 37,
        "10859": 70,
        "10860": 42,
        "10861": 152,
        "10862": 83,
        "10863": 245,
        "10864": 111,
        "10865": 27,
        "10866": 25,
        "10867": 183,
        "10868": 234,
        "10869": 158,
        "10870": 132,
        "10871": 104,
        "10872": 240,
        "10873": 165,
        "10874": 78,
        "10875": 230,
        "10876": 137,
        "10877": 132,
        "10878": 151,
        "10879": 219,
        "10880": 160,
        "10881": 132,
        "10882": 254,
        "10883": 127,
        "10884": 187,
        "10885": 86,
        "10886": 83,
        "10887": 231,
        "10888": 109,
        "10889": 109,
        "10890": 210,
        "10891": 88,
        "10892": 227,
        "10893": 103,
        "10894": 11,
        "10895": 63,
        "10896": 103,
        "10897": 39,
        "10898": 35,
        "10899": 109,
        "10900": 163,
        "10901": 7,
        "10902": 50,
        "10903": 68,
        "10904": 223,
        "10905": 133,
        "10906": 225,
        "10907": 25,
        "10908": 102,
        "10909": 76,
        "10910": 113,
        "10911": 212,
        "10912": 75,
        "10913": 237,
        "10914": 5,
        "10915": 79,
        "10916": 113,
        "10917": 139,
        "10918": 170,
        "10919": 78,
        "10920": 33,
        "10921": 105,
        "10922": 209,
        "10923": 77,
        "10924": 39,
        "10925": 23,
        "10926": 95,
        "10927": 60,
        "10928": 79,
        "10929": 171,
        "10930": 82,
        "10931": 82,
        "10932": 1,
        "10933": 124,
        "10934": 31,
        "10935": 63,
        "10936": 153,
        "10937": 249,
        "10938": 167,
        "10939": 217,
        "10940": 146,
        "10941": 59,
        "10942": 179,
        "10943": 116,
        "10944": 168,
        "10945": 145,
        "10946": 102,
        "10947": 206,
        "10948": 223,
        "10949": 130,
        "10950": 52,
        "10951": 89,
        "10952": 90,
        "10953": 164,
        "10954": 215,
        "10955": 28,
        "10956": 137,
        "10957": 163,
        "10958": 150,
        "10959": 17,
        "10960": 131,
        "10961": 50,
        "10962": 106,
        "10963": 57,
        "10964": 35,
        "10965": 195,
        "10966": 105,
        "10967": 100,
        "10968": 190,
        "10969": 191,
        "10970": 153,
        "10971": 25,
        "10972": 65,
        "10973": 242,
        "10974": 31,
        "10975": 37,
        "10976": 115,
        "10977": 172,
        "10978": 146,
        "10979": 56,
        "10980": 50,
        "10981": 109,
        "10982": 10,
        "10983": 117,
        "10984": 136,
        "10985": 101,
        "10986": 173,
        "10987": 115,
        "10988": 64,
        "10989": 11,
        "10990": 171,
        "10991": 166,
        "10992": 250,
        "10993": 50,
        "10994": 204,
        "10995": 215,
        "10996": 174,
        "10997": 87,
        "10998": 154,
        "10999": 244,
        "11000": 148,
        "11001": 112,
        "11002": 108,
        "11003": 160,
        "11004": 70,
        "11005": 121,
        "11006": 165,
        "11007": 61,
        "11008": 109,
        "11009": 45,
        "11010": 81,
        "11011": 20,
        "11012": 191,
        "11013": 220,
        "11014": 48,
        "11015": 51,
        "11016": 101,
        "11017": 244,
        "11018": 192,
        "11019": 10,
        "11020": 55,
        "11021": 30,
        "11022": 177,
        "11023": 146,
        "11024": 160,
        "11025": 23,
        "11026": 207,
        "11027": 169,
        "11028": 152,
        "11029": 223,
        "11030": 58,
        "11031": 80,
        "11032": 149,
        "11033": 186,
        "11034": 72,
        "11035": 181,
        "11036": 80,
        "11037": 89,
        "11038": 60,
        "11039": 175,
        "11040": 67,
        "11041": 28,
        "11042": 22,
        "11043": 40,
        "11044": 118,
        "11045": 26,
        "11046": 64,
        "11047": 75,
        "11048": 100,
        "11049": 17,
        "11050": 228,
        "11051": 188,
        "11052": 22,
        "11053": 110,
        "11054": 214,
        "11055": 165,
        "11056": 30,
        "11057": 78,
        "11058": 129,
        "11059": 10,
        "11060": 3,
        "11061": 41,
        "11062": 95,
        "11063": 101,
        "11064": 57,
        "11065": 133,
        "11066": 136,
        "11067": 94,
        "11068": 150,
        "11069": 243,
        "11070": 130,
        "11071": 22,
        "11072": 72,
        "11073": 105,
        "11074": 60,
        "11075": 185,
        "11076": 70,
        "11077": 47,
        "11078": 24,
        "11079": 238,
        "11080": 127,
        "11081": 89,
        "11082": 40,
        "11083": 51,
        "11084": 119,
        "11085": 9,
        "11086": 43,
        "11087": 159,
        "11088": 210,
        "11089": 36,
        "11090": 8,
        "11091": 155,
        "11092": 145,
        "11093": 127,
        "11094": 29,
        "11095": 18,
        "11096": 233,
        "11097": 94,
        "11098": 179,
        "11099": 110,
        "11100": 154,
        "11101": 135,
        "11102": 22,
        "11103": 228,
        "11104": 198,
        "11105": 39,
        "11106": 143,
        "11107": 224,
        "11108": 179,
        "11109": 159,
        "11110": 81,
        "11111": 244,
        "11112": 163,
        "11113": 42,
        "11114": 144,
        "11115": 0,
        "11116": 192,
        "11117": 215,
        "11118": 91,
        "11119": 183,
        "11120": 191,
        "11121": 21,
        "11122": 177,
        "11123": 250,
        "11124": 59,
        "11125": 61,
        "11126": 101,
        "11127": 122,
        "11128": 101,
        "11129": 193,
        "11130": 125,
        "11131": 198,
        "11132": 166,
        "11133": 0,
        "11134": 58,
        "11135": 125,
        "11136": 15,
        "11137": 107,
        "11138": 51,
        "11139": 3,
        "11140": 231,
        "11141": 165,
        "11142": 210,
        "11143": 25,
        "11144": 77,
        "11145": 159,
        "11146": 95,
        "11147": 105,
        "11148": 137,
        "11149": 79,
        "11150": 191,
        "11151": 100,
        "11152": 22,
        "11153": 87,
        "11154": 105,
        "11155": 90,
        "11156": 141,
        "11157": 76,
        "11158": 17,
        "11159": 196,
        "11160": 86,
        "11161": 84,
        "11162": 22,
        "11163": 141,
        "11164": 105,
        "11165": 15,
        "11166": 14,
        "11167": 106,
        "11168": 100,
        "11169": 70,
        "11170": 44,
        "11171": 122,
        "11172": 203,
        "11173": 89,
        "11174": 202,
        "11175": 160,
        "11176": 12,
        "11177": 39,
        "11178": 150,
        "11179": 69,
        "11180": 53,
        "11181": 174,
        "11182": 169,
        "11183": 20,
        "11184": 7,
        "11185": 200,
        "11186": 125,
        "11187": 150,
        "11188": 168,
        "11189": 101,
        "11190": 42,
        "11191": 45,
        "11192": 84,
        "11193": 111,
        "11194": 253,
        "11195": 125,
        "11196": 23,
        "11197": 229,
        "11198": 134,
        "11199": 219,
        "11200": 240,
        "11201": 95,
        "11202": 66,
        "11203": 30,
        "11204": 19,
        "11205": 229,
        "11206": 228,
        "11207": 223,
        "11208": 65,
        "11209": 208,
        "11210": 99,
        "11211": 170,
        "11212": 52,
        "11213": 128,
        "11214": 100,
        "11215": 220,
        "11216": 160,
        "11217": 129,
        "11218": 87,
        "11219": 41,
        "11220": 206,
        "11221": 84,
        "11222": 194,
        "11223": 99,
        "11224": 80,
        "11225": 241,
        "11226": 143,
        "11227": 203,
        "11228": 43,
        "11229": 248,
        "11230": 65,
        "11231": 220,
        "11232": 53,
        "11233": 158,
        "11234": 53,
        "11235": 141,
        "11236": 125,
        "11237": 47,
        "11238": 38,
        "11239": 105,
        "11240": 4,
        "11241": 238,
        "11242": 2,
        "11243": 55,
        "11244": 119,
        "11245": 28,
        "11246": 10,
        "11247": 235,
        "11248": 159,
        "11249": 234,
        "11250": 231,
        "11251": 10,
        "11252": 190,
        "11253": 128,
        "11254": 144,
        "11255": 242,
        "11256": 237,
        "11257": 198,
        "11258": 100,
        "11259": 98,
        "11260": 35,
        "11261": 71,
        "11262": 151,
        "11263": 92,
        "11264": 159,
        "11265": 147,
        "11266": 230,
        "11267": 222,
        "11268": 11,
        "11269": 220,
        "11270": 8,
        "11271": 255,
        "11272": 242,
        "11273": 55,
        "11274": 33,
        "11275": 181,
        "11276": 172,
        "11277": 31,
        "11278": 104,
        "11279": 134,
        "11280": 131,
        "11281": 65,
        "11282": 94,
        "11283": 206,
        "11284": 234,
        "11285": 196,
        "11286": 147,
        "11287": 192,
        "11288": 129,
        "11289": 68,
        "11290": 190,
        "11291": 113,
        "11292": 212,
        "11293": 104,
        "11294": 109,
        "11295": 87,
        "11296": 128,
        "11297": 63,
        "11298": 205,
        "11299": 43,
        "11300": 197,
        "11301": 80,
        "11302": 137,
        "11303": 252,
        "11304": 179,
        "11305": 124,
        "11306": 215,
        "11307": 21,
        "11308": 104,
        "11309": 151,
        "11310": 211,
        "11311": 208,
        "11312": 101,
        "11313": 235,
        "11314": 46,
        "11315": 109,
        "11316": 255,
        "11317": 95,
        "11318": 160,
        "11319": 133,
        "11320": 12,
        "11321": 48,
        "11322": 237,
        "11323": 226,
        "11324": 150,
        "11325": 77,
        "11326": 246,
        "11327": 48,
        "11328": 221,
        "11329": 67,
        "11330": 8,
        "11331": 176,
        "11332": 103,
        "11333": 27,
        "11334": 34,
        "11335": 127,
        "11336": 118,
        "11337": 32,
        "11338": 94,
        "11339": 55,
        "11340": 21,
        "11341": 39,
        "11342": 248,
        "11343": 149,
        "11344": 206,
        "11345": 117,
        "11346": 94,
        "11347": 116,
        "11348": 213,
        "11349": 65,
        "11350": 208,
        "11351": 236,
        "11352": 63,
        "11353": 79,
        "11354": 133,
        "11355": 61,
        "11356": 58,
        "11357": 253,
        "11358": 170,
        "11359": 48,
        "11360": 13,
        "11361": 194,
        "11362": 90,
        "11363": 83,
        "11364": 107,
        "11365": 237,
        "11366": 252,
        "11367": 158,
        "11368": 49,
        "11369": 187,
        "11370": 4,
        "11371": 221,
        "11372": 199,
        "11373": 65,
        "11374": 20,
        "11375": 166,
        "11376": 79,
        "11377": 227,
        "11378": 175,
        "11379": 80,
        "11380": 86,
        "11381": 121,
        "11382": 146,
        "11383": 137,
        "11384": 44,
        "11385": 170,
        "11386": 159,
        "11387": 119,
        "11388": 0,
        "11389": 129,
        "11390": 44,
        "11391": 15,
        "11392": 69,
        "11393": 78,
        "11394": 237,
        "11395": 118,
        "11396": 195,
        "11397": 111,
        "11398": 190,
        "11399": 165,
        "11400": 3,
        "11401": 34,
        "11402": 153,
        "11403": 163,
        "11404": 167,
        "11405": 1,
        "11406": 243,
        "11407": 95,
        "11408": 96,
        "11409": 158,
        "11410": 178,
        "11411": 1,
        "11412": 132,
        "11413": 22,
        "11414": 85,
        "11415": 176,
        "11416": 99,
        "11417": 119,
        "11418": 156,
        "11419": 75,
        "11420": 161,
        "11421": 117,
        "11422": 242,
        "11423": 5,
        "11424": 248,
        "11425": 120,
        "11426": 230,
        "11427": 109,
        "11428": 26,
        "11429": 9,
        "11430": 133,
        "11431": 64,
        "11432": 14,
        "11433": 42,
        "11434": 225,
        "11435": 82,
        "11436": 123,
        "11437": 39,
        "11438": 193,
        "11439": 114,
        "11440": 106,
        "11441": 237,
        "11442": 96,
        "11443": 165,
        "11444": 14,
        "11445": 255,
        "11446": 79,
        "11447": 68,
        "11448": 234,
        "11449": 27,
        "11450": 124,
        "11451": 230,
        "11452": 21,
        "11453": 65,
        "11454": 91,
        "11455": 247,
        "11456": 18,
        "11457": 65,
        "11458": 148,
        "11459": 218,
        "11460": 34,
        "11461": 87,
        "11462": 12,
        "11463": 245,
        "11464": 209,
        "11465": 208,
        "11466": 42,
        "11467": 47,
        "11468": 185,
        "11469": 195,
        "11470": 235,
        "11471": 68,
        "11472": 240,
        "11473": 142,
        "11474": 216,
        "11475": 72,
        "11476": 193,
        "11477": 218,
        "11478": 190,
        "11479": 189,
        "11480": 210,
        "11481": 11,
        "11482": 192,
        "11483": 229,
        "11484": 61,
        "11485": 26,
        "11486": 191,
        "11487": 166,
        "11488": 127,
        "11489": 243,
        "11490": 39,
        "11491": 158,
        "11492": 89,
        "11493": 47,
        "11494": 88,
        "11495": 91,
        "11496": 105,
        "11497": 95,
        "11498": 94,
        "11499": 82,
        "11500": 133,
        "11501": 35,
        "11502": 254,
        "11503": 139,
        "11504": 183,
        "11505": 151,
        "11506": 13,
        "11507": 198,
        "11508": 239,
        "11509": 174,
        "11510": 64,
        "11511": 231,
        "11512": 105,
        "11513": 191,
        "11514": 102,
        "11515": 190,
        "11516": 88,
        "11517": 80,
        "11518": 125,
        "11519": 205,
        "11520": 70,
        "11521": 159,
        "11522": 147,
        "11523": 86,
        "11524": 166,
        "11525": 204,
        "11526": 135,
        "11527": 204,
        "11528": 87,
        "11529": 240,
        "11530": 8,
        "11531": 98,
        "11532": 152,
        "11533": 113,
        "11534": 156,
        "11535": 38,
        "11536": 250,
        "11537": 48,
        "11538": 180,
        "11539": 216,
        "11540": 113,
        "11541": 141,
        "11542": 85,
        "11543": 255,
        "11544": 54,
        "11545": 3,
        "11546": 95,
        "11547": 136,
        "11548": 56,
        "11549": 109,
        "11550": 61,
        "11551": 242,
        "11552": 65,
        "11553": 35,
        "11554": 238,
        "11555": 96,
        "11556": 172,
        "11557": 246,
        "11558": 207,
        "11559": 4,
        "11560": 92,
        "11561": 81,
        "11562": 97,
        "11563": 119,
        "11564": 186,
        "11565": 169,
        "11566": 123,
        "11567": 244,
        "11568": 255,
        "11569": 108,
        "11570": 245,
        "11571": 201,
        "11572": 7,
        "11573": 44,
        "11574": 202,
        "11575": 75,
        "11576": 140,
        "11577": 231,
        "11578": 73,
        "11579": 173,
        "11580": 252,
        "11581": 66,
        "11582": 98,
        "11583": 196,
        "11584": 97,
        "11585": 94,
        "11586": 131,
        "11587": 175,
        "11588": 59,
        "11589": 86,
        "11590": 105,
        "11591": 177,
        "11592": 208,
        "11593": 233,
        "11594": 207,
        "11595": 96,
        "11596": 254,
        "11597": 242,
        "11598": 203,
        "11599": 59,
        "11600": 228,
        "11601": 201,
        "11602": 125,
        "11603": 65,
        "11604": 190,
        "11605": 50,
        "11606": 220,
        "11607": 68,
        "11608": 170,
        "11609": 155,
        "11610": 17,
        "11611": 129,
        "11612": 31,
        "11613": 89,
        "11614": 186,
        "11615": 149,
        "11616": 234,
        "11617": 143,
        "11618": 110,
        "11619": 116,
        "11620": 231,
        "11621": 60,
        "11622": 173,
        "11623": 245,
        "11624": 226,
        "11625": 150,
        "11626": 140,
        "11627": 114,
        "11628": 83,
        "11629": 78,
        "11630": 98,
        "11631": 55,
        "11632": 194,
        "11633": 123,
        "11634": 113,
        "11635": 67,
        "11636": 160,
        "11637": 165,
        "11638": 60,
        "11639": 224,
        "11640": 183,
        "11641": 7,
        "11642": 52,
        "11643": 172,
        "11644": 115,
        "11645": 123,
        "11646": 27,
        "11647": 104,
        "11648": 193,
        "11649": 155,
        "11650": 95,
        "11651": 245,
        "11652": 125,
        "11653": 37,
        "11654": 180,
        "11655": 27,
        "11656": 99,
        "11657": 138,
        "11658": 246,
        "11659": 162,
        "11660": 8,
        "11661": 203,
        "11662": 63,
        "11663": 209,
        "11664": 89,
        "11665": 235,
        "11666": 63,
        "11667": 167,
        "11668": 193,
        "11669": 164,
        "11670": 0,
        "11671": 195,
        "11672": 137,
        "11673": 128,
        "11674": 58,
        "11675": 125,
        "11676": 87,
        "11677": 154,
        "11678": 67,
        "11679": 23,
        "11680": 234,
        "11681": 12,
        "11682": 107,
        "11683": 200,
        "11684": 64,
        "11685": 221,
        "11686": 70,
        "11687": 97,
        "11688": 149,
        "11689": 153,
        "11690": 26,
        "11691": 178,
        "11692": 37,
        "11693": 216,
        "11694": 228,
        "11695": 132,
        "11696": 47,
        "11697": 106,
        "11698": 148,
        "11699": 33,
        "11700": 162,
        "11701": 219,
        "11702": 132,
        "11703": 9,
        "11704": 184,
        "11705": 100,
        "11706": 93,
        "11707": 53,
        "11708": 74,
        "11709": 96,
        "11710": 96,
        "11711": 100,
        "11712": 129,
        "11713": 123,
        "11714": 205,
        "11715": 153,
        "11716": 112,
        "11717": 133,
        "11718": 232,
        "11719": 106,
        "11720": 155,
        "11721": 82,
        "11722": 90,
        "11723": 226,
        "11724": 103,
        "11725": 9,
        "11726": 142,
        "11727": 183,
        "11728": 85,
        "11729": 222,
        "11730": 233,
        "11731": 33,
        "11732": 71,
        "11733": 106,
        "11734": 179,
        "11735": 53,
        "11736": 77,
        "11737": 16,
        "11738": 3,
        "11739": 153,
        "11740": 140,
        "11741": 216,
        "11742": 90,
        "11743": 178,
        "11744": 7,
        "11745": 1,
        "11746": 195,
        "11747": 66,
        "11748": 212,
        "11749": 193,
        "11750": 1,
        "11751": 82,
        "11752": 157,
        "11753": 102,
        "11754": 187,
        "11755": 3,
        "11756": 74,
        "11757": 216,
        "11758": 56,
        "11759": 130,
        "11760": 195,
        "11761": 142,
        "11762": 193,
        "11763": 150,
        "11764": 194,
        "11765": 122,
        "11766": 174,
        "11767": 198,
        "11768": 137,
        "11769": 216,
        "11770": 204,
        "11771": 106,
        "11772": 119,
        "11773": 141,
        "11774": 245,
        "11775": 179,
        "11776": 169,
        "11777": 84,
        "11778": 222,
        "11779": 234,
        "11780": 248,
        "11781": 162,
        "11782": 16,
        "11783": 158,
        "11784": 95,
        "11785": 122,
        "11786": 239,
        "11787": 234,
        "11788": 49,
        "11789": 231,
        "11790": 170,
        "11791": 148,
        "11792": 19,
        "11793": 248,
        "11794": 222,
        "11795": 164,
        "11796": 17,
        "11797": 136,
        "11798": 253,
        "11799": 67,
        "11800": 133,
        "11801": 182,
        "11802": 109,
        "11803": 34,
        "11804": 235,
        "11805": 20,
        "11806": 117,
        "11807": 213,
        "11808": 174,
        "11809": 11,
        "11810": 92,
        "11811": 91,
        "11812": 158,
        "11813": 199,
        "11814": 57,
        "11815": 109,
        "11816": 171,
        "11817": 76,
        "11818": 125,
        "11819": 55,
        "11820": 228,
        "11821": 166,
        "11822": 65,
        "11823": 35,
        "11824": 69,
        "11825": 90,
        "11826": 137,
        "11827": 53,
        "11828": 32,
        "11829": 17,
        "11830": 208,
        "11831": 197,
        "11832": 76,
        "11833": 248,
        "11834": 150,
        "11835": 82,
        "11836": 17,
        "11837": 75,
        "11838": 61,
        "11839": 183,
        "11840": 254,
        "11841": 215,
        "11842": 113,
        "11843": 42,
        "11844": 233,
        "11845": 63,
        "11846": 171,
        "11847": 216,
        "11848": 68,
        "11849": 156,
        "11850": 215,
        "11851": 225,
        "11852": 87,
        "11853": 83,
        "11854": 114,
        "11855": 3,
        "11856": 6,
        "11857": 153,
        "11858": 44,
        "11859": 15,
        "11860": 136,
        "11861": 41,
        "11862": 108,
        "11863": 220,
        "11864": 78,
        "11865": 225,
        "11866": 252,
        "11867": 10,
        "11868": 36,
        "11869": 59,
        "11870": 171,
        "11871": 206,
        "11872": 138,
        "11873": 37,
        "11874": 198,
        "11875": 132,
        "11876": 103,
        "11877": 34,
        "11878": 183,
        "11879": 54,
        "11880": 153,
        "11881": 84,
        "11882": 81,
        "11883": 172,
        "11884": 25,
        "11885": 68,
        "11886": 82,
        "11887": 205,
        "11888": 204,
        "11889": 122,
        "11890": 46,
        "11891": 233,
        "11892": 174,
        "11893": 228,
        "11894": 191,
        "11895": 231,
        "11896": 106,
        "11897": 83,
        "11898": 40,
        "11899": 5,
        "11900": 65,
        "11901": 255,
        "11902": 29,
        "11903": 104,
        "11904": 101,
        "11905": 16,
        "11906": 146,
        "11907": 248,
        "11908": 227,
        "11909": 132,
        "11910": 182,
        "11911": 11,
        "11912": 30,
        "11913": 39,
        "11914": 151,
        "11915": 210,
        "11916": 33,
        "11917": 81,
        "11918": 94,
        "11919": 5,
        "11920": 252,
        "11921": 143,
        "11922": 182,
        "11923": 76,
        "11924": 212,
        "11925": 84,
        "11926": 38,
        "11927": 4,
        "11928": 136,
        "11929": 177,
        "11930": 200,
        "11931": 210,
        "11932": 134,
        "11933": 158,
        "11934": 190,
        "11935": 109,
        "11936": 73,
        "11937": 203,
        "11938": 73,
        "11939": 120,
        "11940": 151,
        "11941": 87,
        "11942": 230,
        "11943": 171,
        "11944": 36,
        "11945": 188,
        "11946": 99,
        "11947": 125,
        "11948": 115,
        "11949": 253,
        "11950": 129,
        "11951": 70,
        "11952": 179,
        "11953": 179,
        "11954": 185,
        "11955": 230,
        "11956": 168,
        "11957": 247,
        "11958": 146,
        "11959": 34,
        "11960": 54,
        "11961": 188,
        "11962": 111,
        "11963": 240,
        "11964": 113,
        "11965": 238,
        "11966": 44,
        "11967": 134,
        "11968": 211,
        "11969": 202,
        "11970": 190,
        "11971": 254,
        "11972": 171,
        "11973": 213,
        "11974": 3,
        "11975": 133,
        "11976": 104,
        "11977": 93,
        "11978": 192,
        "11979": 147,
        "11980": 78,
        "11981": 188,
        "11982": 195,
        "11983": 67,
        "11984": 182,
        "11985": 161,
        "11986": 32,
        "11987": 193,
        "11988": 155,
        "11989": 98,
        "11990": 27,
        "11991": 159,
        "11992": 210,
        "11993": 207,
        "11994": 164,
        "11995": 42,
        "11996": 35,
        "11997": 50,
        "11998": 124,
        "11999": 188,
        "12000": 109,
        "12001": 151,
        "12002": 58,
        "12003": 5,
        "12004": 138,
        "12005": 188,
        "12006": 212,
        "12007": 67,
        "12008": 75,
        "12009": 161,
        "12010": 251,
        "12011": 168,
        "12012": 1,
        "12013": 157,
        "12014": 53,
        "12015": 38,
        "12016": 56,
        "12017": 200,
        "12018": 47,
        "12019": 245,
        "12020": 104,
        "12021": 88,
        "12022": 131,
        "12023": 245,
        "12024": 71,
        "12025": 168,
        "12026": 132,
        "12027": 33,
        "12028": 67,
        "12029": 213,
        "12030": 173,
        "12031": 133,
        "12032": 20,
        "12033": 214,
        "12034": 172,
        "12035": 58,
        "12036": 210,
        "12037": 121,
        "12038": 213,
        "12039": 231,
        "12040": 61,
        "12041": 189,
        "12042": 53,
        "12043": 143,
        "12044": 81,
        "12045": 153,
        "12046": 17,
        "12047": 86,
        "12048": 224,
        "12049": 249,
        "12050": 140,
        "12051": 203,
        "12052": 67,
        "12053": 9,
        "12054": 7,
        "12055": 255,
        "12056": 9,
        "12057": 91,
        "12058": 215,
        "12059": 208,
        "12060": 234,
        "12061": 189,
        "12062": 9,
        "12063": 48,
        "12064": 42,
        "12065": 80,
        "12066": 89,
        "12067": 31,
        "12068": 214,
        "12069": 128,
        "12070": 190,
        "12071": 16,
        "12072": 36,
        "12073": 101,
        "12074": 15,
        "12075": 137,
        "12076": 64,
        "12077": 69,
        "12078": 128,
        "12079": 31,
        "12080": 131,
        "12081": 37,
        "12082": 138,
        "12083": 191,
        "12084": 77,
        "12085": 2,
        "12086": 32,
        "12087": 115,
        "12088": 113,
        "12089": 173,
        "12090": 93,
        "12091": 102,
        "12092": 162,
        "12093": 138,
        "12094": 75,
        "12095": 185,
        "12096": 202,
        "12097": 194,
        "12098": 119,
        "12099": 221,
        "12100": 162,
        "12101": 215,
        "12102": 205,
        "12103": 21,
        "12104": 207,
        "12105": 201,
        "12106": 125,
        "12107": 215,
        "12108": 181,
        "12109": 104,
        "12110": 194,
        "12111": 68,
        "12112": 82,
        "12113": 216,
        "12114": 177,
        "12115": 60,
        "12116": 152,
        "12117": 64,
        "12118": 15,
        "12119": 222,
        "12120": 30,
        "12121": 51,
        "12122": 33,
        "12123": 181,
        "12124": 138,
        "12125": 144,
        "12126": 144,
        "12127": 62,
        "12128": 69,
        "12129": 32,
        "12130": 161,
        "12131": 69,
        "12132": 212,
        "12133": 42,
        "12134": 188,
        "12135": 17,
        "12136": 82,
        "12137": 133,
        "12138": 39,
        "12139": 228,
        "12140": 151,
        "12141": 33,
        "12142": 164,
        "12143": 197,
        "12144": 210,
        "12145": 239,
        "12146": 101,
        "12147": 160,
        "12148": 197,
        "12149": 225,
        "12150": 208,
        "12151": 100,
        "12152": 7,
        "12153": 230,
        "12154": 183,
        "12155": 95,
        "12156": 229,
        "12157": 29,
        "12158": 8,
        "12159": 164,
        "12160": 69,
        "12161": 130,
        "12162": 33,
        "12163": 100,
        "12164": 31,
        "12165": 55,
        "12166": 66,
        "12167": 87,
        "12168": 203,
        "12169": 138,
        "12170": 251,
        "12171": 139,
        "12172": 43,
        "12173": 159,
        "12174": 9,
        "12175": 147,
        "12176": 68,
        "12177": 89,
        "12178": 109,
        "12179": 236,
        "12180": 250,
        "12181": 216,
        "12182": 9,
        "12183": 155,
        "12184": 162,
        "12185": 93,
        "12186": 17,
        "12187": 254,
        "12188": 194,
        "12189": 106,
        "12190": 219,
        "12191": 195,
        "12192": 19,
        "12193": 189,
        "12194": 51,
        "12195": 39,
        "12196": 19,
        "12197": 31,
        "12198": 219,
        "12199": 151,
        "12200": 195,
        "12201": 64,
        "12202": 227,
        "12203": 44,
        "12204": 151,
        "12205": 89,
        "12206": 242,
        "12207": 199,
        "12208": 129,
        "12209": 120,
        "12210": 222,
        "12211": 24,
        "12212": 88,
        "12213": 181,
        "12214": 48,
        "12215": 30,
        "12216": 225,
        "12217": 191,
        "12218": 5,
        "12219": 14,
        "12220": 22,
        "12221": 170,
        "12222": 94,
        "12223": 139,
        "12224": 172,
        "12225": 121,
        "12226": 95,
        "12227": 177,
        "12228": 215,
        "12229": 239,
        "12230": 182,
        "12231": 208,
        "12232": 200,
        "12233": 82,
        "12234": 162,
        "12235": 60,
        "12236": 209,
        "12237": 206,
        "12238": 192,
        "12239": 76,
        "12240": 11,
        "12241": 64,
        "12242": 244,
        "12243": 34,
        "12244": 89,
        "12245": 205,
        "12246": 63,
        "12247": 195,
        "12248": 36,
        "12249": 250,
        "12250": 204,
        "12251": 21,
        "12252": 172,
        "12253": 156,
        "12254": 30,
        "12255": 134,
        "12256": 106,
        "12257": 208,
        "12258": 233,
        "12259": 187,
        "12260": 149,
        "12261": 39,
        "12262": 172,
        "12263": 176,
        "12264": 53,
        "12265": 61,
        "12266": 86,
        "12267": 85,
        "12268": 91,
        "12269": 232,
        "12270": 229,
        "12271": 195,
        "12272": 4,
        "12273": 98,
        "12274": 161,
        "12275": 250,
        "12276": 125,
        "12277": 91,
        "12278": 133,
        "12279": 112,
        "12280": 240,
        "12281": 125,
        "12282": 242,
        "12283": 186,
        "12284": 233,
        "12285": 78,
        "12286": 21,
        "12287": 113,
        "12288": 74,
        "12289": 10,
        "12290": 160,
        "12291": 117,
        "12292": 123,
        "12293": 111,
        "12294": 39,
        "12295": 253,
        "12296": 241,
        "12297": 234,
        "12298": 143,
        "12299": 56,
        "12300": 13,
        "12301": 6,
        "12302": 107,
        "12303": 144,
        "12304": 74,
        "12305": 163,
        "12306": 9,
        "12307": 244,
        "12308": 125,
        "12309": 219,
        "12310": 96,
        "12311": 101,
        "12312": 106,
        "12313": 161,
        "12314": 201,
        "12315": 175,
        "12316": 29,
        "12317": 200,
        "12318": 50,
        "12319": 170,
        "12320": 42,
        "12321": 11,
        "12322": 153,
        "12323": 181,
        "12324": 220,
        "12325": 5,
        "12326": 172,
        "12327": 226,
        "12328": 111,
        "12329": 47,
        "12330": 195,
        "12331": 3,
        "12332": 218,
        "12333": 187,
        "12334": 120,
        "12335": 167,
        "12336": 174,
        "12337": 78,
        "12338": 83,
        "12339": 15,
        "12340": 167,
        "12341": 3,
        "12342": 48,
        "12343": 156,
        "12344": 164,
        "12345": 17,
        "12346": 47,
        "12347": 255,
        "12348": 28,
        "12349": 26,
        "12350": 40,
        "12351": 141,
        "12352": 19,
        "12353": 139,
        "12354": 246,
        "12355": 92,
        "12356": 30,
        "12357": 60,
        "12358": 96,
        "12359": 84,
        "12360": 175,
        "12361": 213,
        "12362": 255,
        "12363": 159,
        "12364": 111,
        "12365": 68,
        "12366": 57,
        "12367": 251,
        "12368": 254,
        "12369": 229,
        "12370": 233,
        "12371": 81,
        "12372": 96,
        "12373": 162,
        "12374": 14,
        "12375": 37,
        "12376": 160,
        "12377": 255,
        "12378": 175,
        "12379": 12,
        "12380": 158,
        "12381": 151,
        "12382": 110,
        "12383": 103,
        "12384": 5,
        "12385": 243,
        "12386": 157,
        "12387": 69,
        "12388": 71,
        "12389": 191,
        "12390": 15,
        "12391": 64,
        "12392": 88,
        "12393": 185,
        "12394": 173,
        "12395": 106,
        "12396": 168,
        "12397": 81,
        "12398": 116,
        "12399": 90,
        "12400": 41,
        "12401": 98,
        "12402": 149,
        "12403": 3,
        "12404": 155,
        "12405": 107,
        "12406": 156,
        "12407": 240,
        "12408": 47,
        "12409": 185,
        "12410": 217,
        "12411": 77,
        "12412": 137,
        "12413": 0,
        "12414": 218,
        "12415": 195,
        "12416": 136,
        "12417": 19,
        "12418": 14,
        "12419": 90,
        "12420": 113,
        "12421": 80,
        "12422": 72,
        "12423": 6,
        "12424": 162,
        "12425": 91,
        "12426": 76,
        "12427": 235,
        "12428": 81,
        "12429": 237,
        "12430": 7,
        "12431": 73,
        "12432": 132,
        "12433": 230,
        "12434": 222,
        "12435": 13,
        "12436": 182,
        "12437": 186,
        "12438": 215,
        "12439": 153,
        "12440": 151,
        "12441": 253,
        "12442": 203,
        "12443": 93,
        "12444": 224,
        "12445": 71,
        "12446": 29,
        "12447": 100,
        "12448": 99,
        "12449": 142,
        "12450": 155,
        "12451": 130,
        "12452": 165,
        "12453": 134,
        "12454": 154,
        "12455": 233,
        "12456": 125,
        "12457": 5,
        "12458": 160,
        "12459": 195,
        "12460": 207,
        "12461": 61,
        "12462": 146,
        "12463": 150,
        "12464": 176,
        "12465": 25,
        "12466": 140,
        "12467": 62,
        "12468": 40,
        "12469": 64,
        "12470": 142,
        "12471": 8,
        "12472": 190,
        "12473": 71,
        "12474": 232,
        "12475": 228,
        "12476": 73,
        "12477": 183,
        "12478": 167,
        "12479": 167,
        "12480": 22,
        "12481": 198,
        "12482": 60,
        "12483": 74,
        "12484": 133,
        "12485": 3,
        "12486": 77,
        "12487": 250,
        "12488": 239,
        "12489": 91,
        "12490": 15,
        "12491": 124,
        "12492": 197,
        "12493": 184,
        "12494": 243,
        "12495": 234,
        "12496": 122,
        "12497": 113,
        "12498": 183,
        "12499": 228,
        "12500": 38,
        "12501": 129,
        "12502": 30,
        "12503": 178,
        "12504": 70,
        "12505": 33,
        "12506": 148,
        "12507": 11,
        "12508": 44,
        "12509": 234,
        "12510": 159,
        "12511": 60,
        "12512": 60,
        "12513": 75,
        "12514": 115,
        "12515": 20,
        "12516": 245,
        "12517": 179,
        "12518": 157,
        "12519": 32,
        "12520": 0,
        "12521": 2,
        "12522": 208,
        "12523": 146,
        "12524": 74,
        "12525": 163,
        "12526": 134,
        "12527": 81,
        "12528": 98,
        "12529": 10,
        "12530": 255,
        "12531": 218,
        "12532": 19,
        "12533": 199,
        "12534": 200,
        "12535": 96,
        "12536": 50,
        "12537": 229,
        "12538": 157,
        "12539": 46,
        "12540": 25,
        "12541": 249,
        "12542": 132,
        "12543": 113,
        "12544": 149,
        "12545": 216,
        "12546": 60,
        "12547": 204,
        "12548": 247,
        "12549": 85,
        "12550": 84,
        "12551": 94,
        "12552": 56,
        "12553": 237,
        "12554": 179,
        "12555": 77,
        "12556": 26,
        "12557": 155,
        "12558": 4,
        "12559": 146,
        "12560": 67,
        "12561": 181,
        "12562": 104,
        "12563": 193,
        "12564": 176,
        "12565": 212,
        "12566": 146,
        "12567": 58,
        "12568": 63,
        "12569": 28,
        "12570": 139,
        "12571": 23,
        "12572": 46,
        "12573": 201,
        "12574": 73,
        "12575": 157,
        "12576": 190,
        "12577": 96,
        "12578": 28,
        "12579": 10,
        "12580": 156,
        "12581": 161,
        "12582": 249,
        "12583": 246,
        "12584": 180,
        "12585": 84,
        "12586": 86,
        "12587": 178,
        "12588": 130,
        "12589": 232,
        "12590": 105,
        "12591": 197,
        "12592": 182,
        "12593": 131,
        "12594": 229,
        "12595": 190,
        "12596": 139,
        "12597": 87,
        "12598": 184,
        "12599": 76,
        "12600": 97,
        "12601": 28,
        "12602": 113,
        "12603": 16,
        "12604": 134,
        "12605": 215,
        "12606": 103,
        "12607": 228,
        "12608": 249,
        "12609": 214,
        "12610": 134,
        "12611": 126,
        "12612": 134,
        "12613": 175,
        "12614": 149,
        "12615": 100,
        "12616": 54,
        "12617": 201,
        "12618": 209,
        "12619": 154,
        "12620": 14,
        "12621": 143,
        "12622": 81,
        "12623": 240,
        "12624": 175,
        "12625": 60,
        "12626": 82,
        "12627": 94,
        "12628": 167,
        "12629": 217,
        "12630": 251,
        "12631": 156,
        "12632": 74,
        "12633": 247,
        "12634": 53,
        "12635": 108,
        "12636": 129,
        "12637": 137,
        "12638": 250,
        "12639": 190,
        "12640": 230,
        "12641": 121,
        "12642": 135,
        "12643": 128,
        "12644": 174,
        "12645": 136,
        "12646": 236,
        "12647": 222,
        "12648": 231,
        "12649": 254,
        "12650": 34,
        "12651": 46,
        "12652": 237,
        "12653": 113,
        "12654": 3,
        "12655": 7,
        "12656": 69,
        "12657": 1,
        "12658": 206,
        "12659": 241,
        "12660": 14,
        "12661": 116,
        "12662": 19,
        "12663": 67,
        "12664": 156,
        "12665": 33,
        "12666": 222,
        "12667": 50,
        "12668": 142,
        "12669": 158,
        "12670": 17,
        "12671": 150,
        "12672": 143,
        "12673": 19,
        "12674": 14,
        "12675": 86,
        "12676": 199,
        "12677": 190,
        "12678": 117,
        "12679": 128,
        "12680": 218,
        "12681": 222,
        "12682": 169,
        "12683": 177,
        "12684": 21,
        "12685": 188,
        "12686": 90,
        "12687": 176,
        "12688": 90,
        "12689": 80,
        "12690": 45,
        "12691": 212,
        "12692": 4,
        "12693": 65,
        "12694": 97,
        "12695": 157,
        "12696": 9,
        "12697": 96,
        "12698": 59,
        "12699": 150,
        "12700": 236,
        "12701": 124,
        "12702": 82,
        "12703": 37,
        "12704": 193,
        "12705": 61,
        "12706": 187,
        "12707": 50,
        "12708": 7,
        "12709": 126,
        "12710": 11,
        "12711": 210,
        "12712": 22,
        "12713": 243,
        "12714": 59,
        "12715": 86,
        "12716": 45,
        "12717": 205,
        "12718": 97,
        "12719": 145,
        "12720": 137,
        "12721": 229,
        "12722": 200,
        "12723": 108,
        "12724": 26,
        "12725": 232,
        "12726": 213,
        "12727": 23,
        "12728": 134,
        "12729": 214,
        "12730": 148,
        "12731": 113,
        "12732": 53,
        "12733": 153,
        "12734": 30,
        "12735": 153,
        "12736": 48,
        "12737": 0,
        "12738": 137,
        "12739": 1,
        "12740": 167,
        "12741": 244,
        "12742": 39,
        "12743": 191,
        "12744": 117,
        "12745": 138,
        "12746": 104,
        "12747": 15,
        "12748": 217,
        "12749": 10,
        "12750": 7,
        "12751": 140,
        "12752": 233,
        "12753": 9,
        "12754": 4,
        "12755": 73,
        "12756": 220,
        "12757": 37,
        "12758": 79,
        "12759": 240,
        "12760": 227,
        "12761": 78,
        "12762": 240,
        "12763": 214,
        "12764": 128,
        "12765": 187,
        "12766": 54,
        "12767": 196,
        "12768": 176,
        "12769": 4,
        "12770": 41,
        "12771": 102,
        "12772": 228,
        "12773": 35,
        "12774": 7,
        "12775": 192,
        "12776": 186,
        "12777": 144,
        "12778": 5,
        "12779": 97,
        "12780": 198,
        "12781": 105,
        "12782": 174,
        "12783": 96,
        "12784": 118,
        "12785": 187,
        "12786": 209,
        "12787": 110,
        "12788": 76,
        "12789": 10,
        "12790": 143,
        "12791": 154,
        "12792": 2,
        "12793": 74,
        "12794": 79,
        "12795": 58,
        "12796": 161,
        "12797": 180,
        "12798": 219,
        "12799": 232,
        "12800": 212,
        "12801": 20,
        "12802": 171,
        "12803": 182,
        "12804": 123,
        "12805": 154,
        "12806": 6,
        "12807": 93,
        "12808": 196,
        "12809": 54,
        "12810": 139,
        "12811": 143,
        "12812": 95,
        "12813": 149,
        "12814": 218,
        "12815": 254,
        "12816": 246,
        "12817": 173,
        "12818": 43,
        "12819": 192,
        "12820": 128,
        "12821": 161,
        "12822": 233,
        "12823": 94,
        "12824": 113,
        "12825": 219,
        "12826": 6,
        "12827": 116,
        "12828": 204,
        "12829": 7,
        "12830": 201,
        "12831": 21,
        "12832": 121,
        "12833": 119,
        "12834": 225,
        "12835": 91,
        "12836": 231,
        "12837": 148,
        "12838": 145,
        "12839": 12,
        "12840": 126,
        "12841": 249,
        "12842": 204,
        "12843": 173,
        "12844": 132,
        "12845": 210,
        "12846": 174,
        "12847": 2,
        "12848": 133,
        "12849": 175,
        "12850": 109,
        "12851": 71,
        "12852": 36,
        "12853": 164,
        "12854": 18,
        "12855": 37,
        "12856": 241,
        "12857": 81,
        "12858": 64,
        "12859": 62,
        "12860": 121,
        "12861": 34,
        "12862": 124,
        "12863": 229,
        "12864": 199,
        "12865": 211,
        "12866": 120,
        "12867": 235,
        "12868": 170,
        "12869": 87,
        "12870": 57,
        "12871": 103,
        "12872": 47,
        "12873": 239,
        "12874": 98,
        "12875": 71,
        "12876": 211,
        "12877": 66,
        "12878": 55,
        "12879": 160,
        "12880": 176,
        "12881": 141,
        "12882": 23,
        "12883": 101,
        "12884": 186,
        "12885": 88,
        "12886": 201,
        "12887": 221,
        "12888": 3,
        "12889": 121,
        "12890": 191,
        "12891": 44,
        "12892": 171,
        "12893": 10,
        "12894": 234,
        "12895": 221,
        "12896": 244,
        "12897": 10,
        "12898": 135,
        "12899": 44,
        "12900": 230,
        "12901": 128,
        "12902": 188,
        "12903": 139,
        "12904": 148,
        "12905": 189,
        "12906": 183,
        "12907": 60,
        "12908": 152,
        "12909": 95,
        "12910": 49,
        "12911": 238,
        "12912": 138,
        "12913": 155,
        "12914": 33,
        "12915": 8,
        "12916": 152,
        "12917": 232,
        "12918": 223,
        "12919": 204,
        "12920": 33,
        "12921": 208,
        "12922": 123,
        "12923": 110,
        "12924": 146,
        "12925": 33,
        "12926": 3,
        "12927": 136,
        "12928": 84,
        "12929": 148,
        "12930": 152,
        "12931": 138,
        "12932": 13,
        "12933": 116,
        "12934": 150,
        "12935": 188,
        "12936": 25,
        "12937": 250,
        "12938": 16,
        "12939": 7,
        "12940": 128,
        "12941": 186,
        "12942": 9,
        "12943": 102,
        "12944": 113,
        "12945": 155,
        "12946": 247,
        "12947": 39,
        "12948": 177,
        "12949": 170,
        "12950": 72,
        "12951": 152,
        "12952": 239,
        "12953": 223,
        "12954": 105,
        "12955": 211,
        "12956": 19,
        "12957": 228,
        "12958": 193,
        "12959": 225,
        "12960": 188,
        "12961": 119,
        "12962": 44,
        "12963": 152,
        "12964": 249,
        "12965": 168,
        "12966": 7,
        "12967": 245,
        "12968": 140,
        "12969": 129,
        "12970": 176,
        "12971": 113,
        "12972": 68,
        "12973": 104,
        "12974": 110,
        "12975": 179,
        "12976": 31,
        "12977": 97,
        "12978": 243,
        "12979": 46,
        "12980": 129,
        "12981": 36,
        "12982": 12,
        "12983": 63,
        "12984": 226,
        "12985": 6,
        "12986": 175,
        "12987": 43,
        "12988": 73,
        "12989": 238,
        "12990": 83,
        "12991": 171,
        "12992": 104,
        "12993": 31,
        "12994": 25,
        "12995": 66,
        "12996": 189,
        "12997": 71,
        "12998": 252,
        "12999": 241,
        "13000": 42,
        "13001": 33,
        "13002": 173,
        "13003": 135,
        "13004": 12,
        "13005": 66,
        "13006": 21,
        "13007": 190,
        "13008": 41,
        "13009": 130,
        "13010": 231,
        "13011": 2,
        "13012": 182,
        "13013": 214,
        "13014": 234,
        "13015": 223,
        "13016": 253,
        "13017": 27,
        "13018": 160,
        "13019": 21,
        "13020": 138,
        "13021": 32,
        "13022": 32,
        "13023": 59,
        "13024": 115,
        "13025": 98,
        "13026": 226,
        "13027": 123,
        "13028": 89,
        "13029": 203,
        "13030": 225,
        "13031": 154,
        "13032": 185,
        "13033": 149,
        "13034": 155,
        "13035": 30,
        "13036": 193,
        "13037": 80,
        "13038": 32,
        "13039": 55,
        "13040": 222,
        "13041": 127,
        "13042": 103,
        "13043": 14,
        "13044": 107,
        "13045": 44,
        "13046": 181,
        "13047": 164,
        "13048": 242,
        "13049": 53,
        "13050": 156,
        "13051": 72,
        "13052": 27,
        "13053": 242,
        "13054": 16,
        "13055": 207,
        "13056": 24,
        "13057": 238,
        "13058": 158,
        "13059": 204,
        "13060": 211,
        "13061": 154,
        "13062": 29,
        "13063": 227,
        "13064": 108,
        "13065": 208,
        "13066": 113,
        "13067": 2,
        "13068": 254,
        "13069": 129,
        "13070": 153,
        "13071": 246,
        "13072": 231,
        "13073": 122,
        "13074": 158,
        "13075": 3,
        "13076": 225,
        "13077": 43,
        "13078": 205,
        "13079": 151,
        "13080": 139,
        "13081": 231,
        "13082": 203,
        "13083": 138,
        "13084": 51,
        "13085": 127,
        "13086": 116,
        "13087": 133,
        "13088": 232,
        "13089": 109,
        "13090": 31,
        "13091": 233,
        "13092": 154,
        "13093": 147,
        "13094": 26,
        "13095": 255,
        "13096": 149,
        "13097": 105,
        "13098": 206,
        "13099": 52,
        "13100": 124,
        "13101": 226,
        "13102": 248,
        "13103": 120,
        "13104": 55,
        "13105": 45,
        "13106": 131,
        "13107": 159,
        "13108": 249,
        "13109": 74,
        "13110": 254,
        "13111": 11,
        "13112": 229,
        "13113": 209,
        "13114": 130,
        "13115": 130,
        "13116": 184,
        "13117": 155,
        "13118": 128,
        "13119": 52,
        "13120": 103,
        "13121": 200,
        "13122": 168,
        "13123": 78,
        "13124": 90,
        "13125": 84,
        "13126": 22,
        "13127": 127,
        "13128": 180,
        "13129": 145,
        "13130": 84,
        "13131": 184,
        "13132": 230,
        "13133": 4,
        "13134": 18,
        "13135": 211,
        "13136": 102,
        "13137": 205,
        "13138": 69,
        "13139": 39,
        "13140": 235,
        "13141": 101,
        "13142": 229,
        "13143": 114,
        "13144": 239,
        "13145": 73,
        "13146": 216,
        "13147": 44,
        "13148": 248,
        "13149": 45,
        "13150": 129,
        "13151": 224,
        "13152": 210,
        "13153": 207,
        "13154": 61,
        "13155": 54,
        "13156": 76,
        "13157": 189,
        "13158": 155,
        "13159": 36,
        "13160": 254,
        "13161": 20,
        "13162": 47,
        "13163": 249,
        "13164": 54,
        "13165": 159,
        "13166": 24,
        "13167": 75,
        "13168": 40,
        "13169": 78,
        "13170": 103,
        "13171": 95,
        "13172": 141,
        "13173": 249,
        "13174": 115,
        "13175": 79,
        "13176": 220,
        "13177": 57,
        "13178": 88,
        "13179": 87,
        "13180": 241,
        "13181": 29,
        "13182": 29,
        "13183": 234,
        "13184": 253,
        "13185": 180,
        "13186": 34,
        "13187": 204,
        "13188": 179,
        "13189": 193,
        "13190": 86,
        "13191": 0,
        "13192": 103,
        "13193": 53,
        "13194": 81,
        "13195": 182,
        "13196": 67,
        "13197": 112,
        "13198": 68,
        "13199": 235,
        "13200": 151,
        "13201": 51,
        "13202": 247,
        "13203": 152,
        "13204": 174,
        "13205": 38,
        "13206": 173,
        "13207": 39,
        "13208": 87,
        "13209": 80,
        "13210": 191,
        "13211": 53,
        "13212": 190,
        "13213": 29,
        "13214": 50,
        "13215": 87,
        "13216": 188,
        "13217": 131,
        "13218": 204,
        "13219": 162,
        "13220": 158,
        "13221": 92,
        "13222": 77,
        "13223": 145,
        "13224": 21,
        "13225": 116,
        "13226": 39,
        "13227": 244,
        "13228": 252,
        "13229": 89,
        "13230": 60,
        "13231": 215,
        "13232": 159,
        "13233": 230,
        "13234": 204,
        "13235": 57,
        "13236": 177,
        "13237": 183,
        "13238": 113,
        "13239": 146,
        "13240": 105,
        "13241": 110,
        "13242": 46,
        "13243": 219,
        "13244": 111,
        "13245": 166,
        "13246": 130,
        "13247": 61,
        "13248": 230,
        "13249": 99,
        "13250": 231,
        "13251": 206,
        "13252": 99,
        "13253": 37,
        "13254": 93,
        "13255": 138,
        "13256": 130,
        "13257": 85,
        "13258": 150,
        "13259": 98,
        "13260": 72,
        "13261": 57,
        "13262": 152,
        "13263": 79,
        "13264": 167,
        "13265": 86,
        "13266": 70,
        "13267": 226,
        "13268": 51,
        "13269": 80,
        "13270": 236,
        "13271": 154,
        "13272": 198,
        "13273": 107,
        "13274": 121,
        "13275": 17,
        "13276": 149,
        "13277": 200,
        "13278": 251,
        "13279": 151,
        "13280": 28,
        "13281": 60,
        "13282": 0,
        "13283": 58,
        "13284": 244,
        "13285": 77,
        "13286": 20,
        "13287": 214,
        "13288": 58,
        "13289": 159,
        "13290": 77,
        "13291": 248,
        "13292": 171,
        "13293": 11,
        "13294": 210,
        "13295": 31,
        "13296": 21,
        "13297": 191,
        "13298": 184,
        "13299": 74,
        "13300": 138,
        "13301": 190,
        "13302": 225,
        "13303": 85,
        "13304": 107,
        "13305": 41,
        "13306": 158,
        "13307": 232,
        "13308": 169,
        "13309": 110,
        "13310": 249,
        "13311": 51,
        "13312": 166,
        "13313": 212,
        "13314": 13,
        "13315": 123,
        "13316": 21,
        "13317": 13,
        "13318": 228,
        "13319": 94,
        "13320": 59,
        "13321": 13,
        "13322": 189,
        "13323": 73,
        "13324": 85,
        "13325": 62,
        "13326": 80,
        "13327": 78,
        "13328": 192,
        "13329": 85,
        "13330": 169,
        "13331": 218,
        "13332": 121,
        "13333": 34,
        "13334": 227,
        "13335": 70,
        "13336": 49,
        "13337": 61,
        "13338": 121,
        "13339": 24,
        "13340": 143,
        "13341": 160,
        "13342": 40,
        "13343": 160,
        "13344": 101,
        "13345": 70,
        "13346": 102,
        "13347": 203,
        "13348": 49,
        "13349": 226,
        "13350": 205,
        "13351": 237,
        "13352": 170,
        "13353": 44,
        "13354": 208,
        "13355": 58,
        "13356": 158,
        "13357": 72,
        "13358": 194,
        "13359": 94,
        "13360": 7,
        "13361": 209,
        "13362": 216,
        "13363": 217,
        "13364": 0,
        "13365": 117,
        "13366": 149,
        "13367": 223,
        "13368": 67,
        "13369": 255,
        "13370": 71,
        "13371": 199,
        "13372": 27,
        "13373": 88,
        "13374": 62,
        "13375": 81,
        "13376": 79,
        "13377": 211,
        "13378": 242,
        "13379": 155,
        "13380": 178,
        "13381": 47,
        "13382": 120,
        "13383": 98,
        "13384": 29,
        "13385": 254,
        "13386": 201,
        "13387": 165,
        "13388": 20,
        "13389": 170,
        "13390": 92,
        "13391": 241,
        "13392": 229,
        "13393": 229,
        "13394": 113,
        "13395": 110,
        "13396": 24,
        "13397": 204,
        "13398": 62,
        "13399": 169,
        "13400": 4,
        "13401": 139,
        "13402": 13,
        "13403": 61,
        "13404": 246,
        "13405": 195,
        "13406": 218,
        "13407": 230,
        "13408": 115,
        "13409": 201,
        "13410": 14,
        "13411": 249,
        "13412": 13,
        "13413": 103,
        "13414": 15,
        "13415": 221,
        "13416": 110,
        "13417": 198,
        "13418": 101,
        "13419": 38,
        "13420": 220,
        "13421": 186,
        "13422": 201,
        "13423": 53,
        "13424": 22,
        "13425": 78,
        "13426": 219,
        "13427": 16,
        "13428": 158,
        "13429": 165,
        "13430": 135,
        "13431": 255,
        "13432": 166,
        "13433": 219,
        "13434": 13,
        "13435": 137,
        "13436": 178,
        "13437": 75,
        "13438": 243,
        "13439": 83,
        "13440": 115,
        "13441": 178,
        "13442": 97,
        "13443": 163,
        "13444": 77,
        "13445": 246,
        "13446": 103,
        "13447": 64,
        "13448": 161,
        "13449": 137,
        "13450": 162,
        "13451": 52,
        "13452": 194,
        "13453": 43,
        "13454": 60,
        "13455": 188,
        "13456": 84,
        "13457": 137,
        "13458": 159,
        "13459": 204,
        "13460": 47,
        "13461": 92,
        "13462": 36,
        "13463": 83,
        "13464": 178,
        "13465": 147,
        "13466": 220,
        "13467": 12,
        "13468": 158,
        "13469": 32,
        "13470": 14,
        "13471": 247,
        "13472": 9,
        "13473": 29,
        "13474": 21,
        "13475": 19,
        "13476": 229,
        "13477": 204,
        "13478": 114,
        "13479": 57,
        "13480": 204,
        "13481": 156,
        "13482": 104,
        "13483": 131,
        "13484": 199,
        "13485": 100,
        "13486": 177,
        "13487": 183,
        "13488": 216,
        "13489": 155,
        "13490": 250,
        "13491": 64,
        "13492": 87,
        "13493": 66,
        "13494": 172,
        "13495": 68,
        "13496": 92,
        "13497": 93,
        "13498": 98,
        "13499": 54,
        "13500": 28,
        "13501": 121,
        "13502": 79,
        "13503": 249,
        "13504": 8,
        "13505": 229,
        "13506": 76,
        "13507": 110,
        "13508": 182,
        "13509": 84,
        "13510": 22,
        "13511": 121,
        "13512": 154,
        "13513": 8,
        "13514": 134,
        "13515": 60,
        "13516": 230,
        "13517": 46,
        "13518": 245,
        "13519": 203,
        "13520": 133,
        "13521": 0,
        "13522": 43,
        "13523": 104,
        "13524": 209,
        "13525": 108,
        "13526": 13,
        "13527": 167,
        "13528": 94,
        "13529": 78,
        "13530": 133,
        "13531": 53,
        "13532": 233,
        "13533": 120,
        "13534": 91,
        "13535": 105,
        "13536": 205,
        "13537": 198,
        "13538": 254,
        "13539": 48,
        "13540": 245,
        "13541": 159,
        "13542": 40,
        "13543": 164,
        "13544": 134,
        "13545": 168,
        "13546": 7,
        "13547": 175,
        "13548": 10,
        "13549": 123,
        "13550": 30,
        "13551": 159,
        "13552": 237,
        "13553": 150,
        "13554": 97,
        "13555": 164,
        "13556": 20,
        "13557": 101,
        "13558": 122,
        "13559": 22,
        "13560": 135,
        "13561": 67,
        "13562": 31,
        "13563": 214,
        "13564": 74,
        "13565": 192,
        "13566": 112,
        "13567": 218,
        "13568": 229,
        "13569": 225,
        "13570": 27,
        "13571": 245,
        "13572": 102,
        "13573": 161,
        "13574": 57,
        "13575": 46,
        "13576": 147,
        "13577": 219,
        "13578": 207,
        "13579": 105,
        "13580": 190,
        "13581": 37,
        "13582": 121,
        "13583": 152,
        "13584": 89,
        "13585": 3,
        "13586": 5,
        "13587": 180,
        "13588": 164,
        "13589": 11,
        "13590": 113,
        "13591": 89,
        "13592": 148,
        "13593": 119,
        "13594": 180,
        "13595": 227,
        "13596": 230,
        "13597": 28,
        "13598": 87,
        "13599": 239,
        "13600": 75,
        "13601": 161,
        "13602": 201,
        "13603": 161,
        "13604": 115,
        "13605": 193,
        "13606": 85,
        "13607": 249,
        "13608": 58,
        "13609": 197,
        "13610": 181,
        "13611": 173,
        "13612": 115,
        "13613": 45,
        "13614": 48,
        "13615": 146,
        "13616": 80,
        "13617": 11,
        "13618": 106,
        "13619": 75,
        "13620": 20,
        "13621": 50,
        "13622": 52,
        "13623": 61,
        "13624": 217,
        "13625": 31,
        "13626": 89,
        "13627": 103,
        "13628": 45,
        "13629": 167,
        "13630": 16,
        "13631": 103,
        "13632": 68,
        "13633": 238,
        "13634": 134,
        "13635": 165,
        "13636": 40,
        "13637": 239,
        "13638": 183,
        "13639": 168,
        "13640": 221,
        "13641": 107,
        "13642": 26,
        "13643": 108,
        "13644": 62,
        "13645": 122,
        "13646": 71,
        "13647": 219,
        "13648": 162,
        "13649": 6,
        "13650": 115,
        "13651": 240,
        "13652": 101,
        "13653": 91,
        "13654": 241,
        "13655": 29,
        "13656": 57,
        "13657": 130,
        "13658": 171,
        "13659": 31,
        "13660": 97,
        "13661": 137,
        "13662": 227,
        "13663": 39,
        "13664": 96,
        "13665": 3,
        "13666": 121,
        "13667": 26,
        "13668": 23,
        "13669": 35,
        "13670": 93,
        "13671": 86,
        "13672": 165,
        "13673": 243,
        "13674": 169,
        "13675": 79,
        "13676": 132,
        "13677": 172,
        "13678": 216,
        "13679": 28,
        "13680": 246,
        "13681": 96,
        "13682": 4,
        "13683": 188,
        "13684": 215,
        "13685": 142,
        "13686": 166,
        "13687": 46,
        "13688": 156,
        "13689": 14,
        "13690": 95,
        "13691": 21,
        "13692": 146,
        "13693": 185,
        "13694": 95,
        "13695": 218,
        "13696": 167,
        "13697": 208,
        "13698": 84,
        "13699": 179,
        "13700": 180,
        "13701": 203,
        "13702": 61,
        "13703": 156,
        "13704": 215,
        "13705": 228,
        "13706": 161,
        "13707": 252,
        "13708": 8,
        "13709": 89,
        "13710": 176,
        "13711": 30,
        "13712": 159,
        "13713": 247,
        "13714": 42,
        "13715": 93,
        "13716": 167,
        "13717": 81,
        "13718": 22,
        "13719": 204,
        "13720": 246,
        "13721": 140,
        "13722": 8,
        "13723": 91,
        "13724": 246,
        "13725": 206,
        "13726": 168,
        "13727": 31,
        "13728": 112,
        "13729": 146,
        "13730": 172,
        "13731": 126,
        "13732": 55,
        "13733": 236,
        "13734": 68,
        "13735": 235,
        "13736": 240,
        "13737": 52,
        "13738": 122,
        "13739": 168,
        "13740": 29,
        "13741": 197,
        "13742": 169,
        "13743": 188,
        "13744": 56,
        "13745": 142,
        "13746": 197,
        "13747": 128,
        "13748": 193,
        "13749": 179,
        "13750": 92,
        "13751": 202,
        "13752": 190,
        "13753": 243,
        "13754": 78,
        "13755": 111,
        "13756": 87,
        "13757": 116,
        "13758": 213,
        "13759": 228,
        "13760": 128,
        "13761": 182,
        "13762": 205,
        "13763": 190,
        "13764": 196,
        "13765": 135,
        "13766": 213,
        "13767": 138,
        "13768": 57,
        "13769": 59,
        "13770": 17,
        "13771": 106,
        "13772": 237,
        "13773": 131,
        "13774": 114,
        "13775": 157,
        "13776": 188,
        "13777": 248,
        "13778": 97,
        "13779": 184,
        "13780": 170,
        "13781": 231,
        "13782": 238,
        "13783": 193,
        "13784": 193,
        "13785": 195,
        "13786": 35,
        "13787": 151,
        "13788": 159,
        "13789": 67,
        "13790": 81,
        "13791": 201,
        "13792": 12,
        "13793": 122,
        "13794": 107,
        "13795": 117,
        "13796": 8,
        "13797": 215,
        "13798": 16,
        "13799": 86,
        "13800": 37,
        "13801": 49,
        "13802": 155,
        "13803": 124,
        "13804": 242,
        "13805": 44,
        "13806": 156,
        "13807": 136,
        "13808": 122,
        "13809": 44,
        "13810": 54,
        "13811": 166,
        "13812": 69,
        "13813": 152,
        "13814": 63,
        "13815": 184,
        "13816": 175,
        "13817": 197,
        "13818": 104,
        "13819": 67,
        "13820": 127,
        "13821": 140,
        "13822": 46,
        "13823": 95,
        "13824": 165,
        "13825": 166,
        "13826": 212,
        "13827": 192,
        "13828": 14,
        "13829": 207,
        "13830": 224,
        "13831": 244,
        "13832": 193,
        "13833": 237,
        "13834": 122,
        "13835": 74,
        "13836": 99,
        "13837": 91,
        "13838": 234,
        "13839": 223,
        "13840": 130,
        "13841": 193,
        "13842": 130,
        "13843": 93,
        "13844": 65,
        "13845": 195,
        "13846": 236,
        "13847": 204,
        "13848": 106,
        "13849": 76,
        "13850": 168,
        "13851": 66,
        "13852": 63,
        "13853": 7,
        "13854": 250,
        "13855": 187,
        "13856": 138,
        "13857": 36,
        "13858": 213,
        "13859": 55,
        "13860": 19,
        "13861": 97,
        "13862": 42,
        "13863": 101,
        "13864": 94,
        "13865": 93,
        "13866": 167,
        "13867": 202,
        "13868": 249,
        "13869": 147,
        "13870": 166,
        "13871": 151,
        "13872": 38,
        "13873": 227,
        "13874": 99,
        "13875": 59,
        "13876": 68,
        "13877": 179,
        "13878": 58,
        "13879": 156,
        "13880": 230,
        "13881": 247,
        "13882": 254,
        "13883": 211,
        "13884": 165,
        "13885": 47,
        "13886": 13,
        "13887": 22,
        "13888": 22,
        "13889": 186,
        "13890": 251,
        "13891": 43,
        "13892": 60,
        "13893": 60,
        "13894": 39,
        "13895": 161,
        "13896": 40,
        "13897": 11,
        "13898": 166,
        "13899": 70,
        "13900": 252,
        "13901": 55,
        "13902": 113,
        "13903": 254,
        "13904": 84,
        "13905": 39,
        "13906": 4,
        "13907": 182,
        "13908": 31,
        "13909": 200,
        "13910": 91,
        "13911": 7,
        "13912": 177,
        "13913": 19,
        "13914": 254,
        "13915": 191,
        "13916": 234,
        "13917": 184,
        "13918": 68,
        "13919": 245,
        "13920": 192,
        "13921": 171,
        "13922": 239,
        "13923": 52,
        "13924": 15,
        "13925": 161,
        "13926": 103,
        "13927": 1,
        "13928": 219,
        "13929": 80,
        "13930": 221,
        "13931": 27,
        "13932": 240,
        "13933": 255,
        "13934": 110,
        "13935": 194,
        "13936": 132,
        "13937": 248,
        "13938": 109,
        "13939": 157,
        "13940": 159,
        "13941": 230,
        "13942": 223,
        "13943": 72,
        "13944": 184,
        "13945": 240,
        "13946": 193,
        "13947": 83,
        "13948": 191,
        "13949": 183,
        "13950": 18,
        "13951": 237,
        "13952": 235,
        "13953": 25,
        "13954": 89,
        "13955": 217,
        "13956": 198,
        "13957": 2,
        "13958": 185,
        "13959": 99,
        "13960": 110,
        "13961": 225,
        "13962": 108,
        "13963": 88,
        "13964": 6,
        "13965": 213,
        "13966": 124,
        "13967": 204,
        "13968": 238,
        "13969": 172,
        "13970": 210,
        "13971": 8,
        "13972": 36,
        "13973": 35,
        "13974": 65,
        "13975": 62,
        "13976": 62,
        "13977": 255,
        "13978": 242,
        "13979": 80,
        "13980": 32,
        "13981": 1,
        "13982": 161,
        "13983": 159,
        "13984": 165,
        "13985": 141,
        "13986": 17,
        "13987": 30,
        "13988": 188,
        "13989": 188,
        "13990": 124,
        "13991": 215,
        "13992": 249,
        "13993": 127,
        "13994": 133,
        "13995": 215,
        "13996": 81,
        "13997": 108,
        "13998": 251,
        "13999": 106,
        "14000": 38,
        "14001": 28,
        "14002": 5,
        "14003": 220,
        "14004": 64,
        "14005": 88,
        "14006": 229,
        "14007": 209,
        "14008": 146,
        "14009": 231,
        "14010": 246,
        "14011": 105,
        "14012": 92,
        "14013": 89,
        "14014": 126,
        "14015": 185,
        "14016": 96,
        "14017": 210,
        "14018": 206,
        "14019": 234,
        "14020": 2,
        "14021": 224,
        "14022": 218,
        "14023": 202,
        "14024": 59,
        "14025": 186,
        "14026": 93,
        "14027": 249,
        "14028": 32,
        "14029": 214,
        "14030": 250,
        "14031": 60,
        "14032": 15,
        "14033": 222,
        "14034": 104,
        "14035": 124,
        "14036": 18,
        "14037": 245,
        "14038": 204,
        "14039": 131,
        "14040": 73,
        "14041": 68,
        "14042": 164,
        "14043": 13,
        "14044": 134,
        "14045": 96,
        "14046": 20,
        "14047": 131,
        "14048": 246,
        "14049": 24,
        "14050": 212,
        "14051": 66,
        "14052": 125,
        "14053": 153,
        "14054": 93,
        "14055": 87,
        "14056": 128,
        "14057": 228,
        "14058": 138,
        "14059": 189,
        "14060": 136,
        "14061": 85,
        "14062": 69,
        "14063": 91,
        "14064": 184,
        "14065": 113,
        "14066": 84,
        "14067": 2,
        "14068": 70,
        "14069": 247,
        "14070": 226,
        "14071": 13,
        "14072": 0,
        "14073": 201,
        "14074": 137,
        "14075": 65,
        "14076": 77,
        "14077": 18,
        "14078": 30,
        "14079": 165,
        "14080": 158,
        "14081": 74,
        "14082": 25,
        "14083": 151,
        "14084": 215,
        "14085": 207,
        "14086": 19,
        "14087": 196,
        "14088": 99,
        "14089": 67,
        "14090": 119,
        "14091": 31,
        "14092": 141,
        "14093": 55,
        "14094": 15,
        "14095": 233,
        "14096": 69,
        "14097": 48,
        "14098": 222,
        "14099": 55,
        "14100": 220,
        "14101": 21,
        "14102": 100,
        "14103": 212,
        "14104": 189,
        "14105": 41,
        "14106": 176,
        "14107": 104,
        "14108": 181,
        "14109": 54,
        "14110": 248,
        "14111": 90,
        "14112": 45,
        "14113": 6,
        "14114": 147,
        "14115": 145,
        "14116": 25,
        "14117": 246,
        "14118": 181,
        "14119": 12,
        "14120": 186,
        "14121": 73,
        "14122": 140,
        "14123": 98,
        "14124": 196,
        "14125": 46,
        "14126": 26,
        "14127": 123,
        "14128": 48,
        "14129": 165,
        "14130": 79,
        "14131": 21,
        "14132": 10,
        "14133": 150,
        "14134": 190,
        "14135": 220,
        "14136": 225,
        "14137": 173,
        "14138": 128,
        "14139": 77,
        "14140": 79,
        "14141": 3,
        "14142": 238,
        "14143": 190,
        "14144": 148,
        "14145": 61,
        "14146": 219,
        "14147": 208,
        "14148": 106,
        "14149": 231,
        "14150": 232,
        "14151": 166,
        "14152": 48,
        "14153": 223,
        "14154": 106,
        "14155": 85,
        "14156": 9,
        "14157": 49,
        "14158": 79,
        "14159": 231,
        "14160": 199,
        "14161": 34,
        "14162": 160,
        "14163": 99,
        "14164": 150,
        "14165": 110,
        "14166": 88,
        "14167": 188,
        "14168": 103,
        "14169": 124,
        "14170": 53,
        "14171": 145,
        "14172": 118,
        "14173": 19,
        "14174": 67,
        "14175": 1,
        "14176": 201,
        "14177": 203,
        "14178": 3,
        "14179": 20,
        "14180": 112,
        "14181": 142,
        "14182": 27,
        "14183": 216,
        "14184": 145,
        "14185": 157,
        "14186": 71,
        "14187": 190,
        "14188": 152,
        "14189": 41,
        "14190": 74,
        "14191": 85,
        "14192": 234,
        "14193": 179,
        "14194": 179,
        "14195": 175,
        "14196": 39,
        "14197": 107,
        "14198": 103,
        "14199": 171,
        "14200": 55,
        "14201": 157,
        "14202": 58,
        "14203": 46,
        "14204": 31,
        "14205": 165,
        "14206": 22,
        "14207": 59,
        "14208": 123,
        "14209": 240,
        "14210": 190,
        "14211": 185,
        "14212": 86,
        "14213": 103,
        "14214": 209,
        "14215": 163,
        "14216": 54,
        "14217": 88,
        "14218": 65,
        "14219": 248,
        "14220": 96,
        "14221": 123,
        "14222": 57,
        "14223": 108,
        "14224": 104,
        "14225": 128,
        "14226": 175,
        "14227": 138,
        "14228": 242,
        "14229": 113,
        "14230": 216,
        "14231": 33,
        "14232": 42,
        "14233": 223,
        "14234": 65,
        "14235": 204,
        "14236": 152,
        "14237": 154,
        "14238": 129,
        "14239": 142,
        "14240": 67,
        "14241": 158,
        "14242": 181,
        "14243": 74,
        "14244": 114,
        "14245": 168,
        "14246": 188,
        "14247": 33,
        "14248": 14,
        "14249": 55,
        "14250": 144,
        "14251": 77,
        "14252": 134,
        "14253": 109,
        "14254": 76,
        "14255": 246,
        "14256": 167,
        "14257": 22,
        "14258": 155,
        "14259": 236,
        "14260": 14,
        "14261": 67,
        "14262": 42,
        "14263": 147,
        "14264": 210,
        "14265": 229,
        "14266": 105,
        "14267": 115,
        "14268": 76,
        "14269": 91,
        "14270": 119,
        "14271": 223,
        "14272": 189,
        "14273": 244,
        "14274": 229,
        "14275": 174,
        "14276": 12,
        "14277": 68,
        "14278": 115,
        "14279": 145,
        "14280": 93,
        "14281": 135,
        "14282": 60,
        "14283": 241,
        "14284": 50,
        "14285": 31,
        "14286": 139,
        "14287": 65,
        "14288": 200,
        "14289": 64,
        "14290": 93,
        "14291": 55,
        "14292": 93,
        "14293": 132,
        "14294": 165,
        "14295": 81,
        "14296": 63,
        "14297": 222,
        "14298": 85,
        "14299": 28,
        "14300": 174,
        "14301": 236,
        "14302": 34,
        "14303": 231,
        "14304": 81,
        "14305": 9,
        "14306": 98,
        "14307": 201,
        "14308": 72,
        "14309": 7,
        "14310": 246,
        "14311": 90,
        "14312": 163,
        "14313": 65,
        "14314": 235,
        "14315": 117,
        "14316": 89,
        "14317": 163,
        "14318": 91,
        "14319": 40,
        "14320": 84,
        "14321": 93,
        "14322": 130,
        "14323": 196,
        "14324": 110,
        "14325": 104,
        "14326": 236,
        "14327": 143,
        "14328": 142,
        "14329": 71,
        "14330": 155,
        "14331": 30,
        "14332": 157,
        "14333": 156,
        "14334": 70,
        "14335": 4,
        "14336": 237,
        "14337": 26,
        "14338": 243,
        "14339": 45,
        "14340": 135,
        "14341": 191,
        "14342": 198,
        "14343": 248,
        "14344": 45,
        "14345": 145,
        "14346": 80,
        "14347": 19,
        "14348": 150,
        "14349": 154,
        "14350": 158,
        "14351": 5,
        "14352": 239,
        "14353": 187,
        "14354": 6,
        "14355": 41,
        "14356": 146,
        "14357": 153,
        "14358": 141,
        "14359": 116,
        "14360": 164,
        "14361": 198,
        "14362": 95,
        "14363": 234,
        "14364": 165,
        "14365": 198,
        "14366": 71,
        "14367": 10,
        "14368": 159,
        "14369": 46,
        "14370": 0,
        "14371": 219,
        "14372": 112,
        "14373": 1,
        "14374": 90,
        "14375": 98,
        "14376": 140,
        "14377": 167,
        "14378": 147,
        "14379": 18,
        "14380": 223,
        "14381": 214,
        "14382": 118,
        "14383": 84,
        "14384": 138,
        "14385": 74,
        "14386": 229,
        "14387": 171,
        "14388": 80,
        "14389": 98,
        "14390": 106,
        "14391": 64,
        "14392": 176,
        "14393": 80,
        "14394": 159,
        "14395": 25,
        "14396": 107,
        "14397": 223,
        "14398": 171,
        "14399": 114,
        "14400": 249,
        "14401": 186,
        "14402": 189,
        "14403": 84,
        "14404": 187,
        "14405": 63,
        "14406": 93,
        "14407": 92,
        "14408": 14,
        "14409": 163,
        "14410": 53,
        "14411": 36,
        "14412": 45,
        "14413": 239,
        "14414": 82,
        "14415": 125,
        "14416": 140,
        "14417": 21,
        "14418": 192,
        "14419": 147,
        "14420": 59,
        "14421": 20,
        "14422": 218,
        "14423": 131,
        "14424": 14,
        "14425": 216,
        "14426": 233,
        "14427": 46,
        "14428": 171,
        "14429": 101,
        "14430": 11,
        "14431": 193,
        "14432": 219,
        "14433": 146,
        "14434": 197,
        "14435": 224,
        "14436": 201,
        "14437": 111,
        "14438": 14,
        "14439": 12,
        "14440": 150,
        "14441": 0,
        "14442": 255,
        "14443": 219,
        "14444": 187,
        "14445": 102,
        "14446": 5,
        "14447": 196,
        "14448": 141,
        "14449": 25,
        "14450": 45,
        "14451": 141,
        "14452": 53,
        "14453": 247,
        "14454": 121,
        "14455": 55,
        "14456": 42,
        "14457": 79,
        "14458": 161,
        "14459": 198,
        "14460": 221,
        "14461": 86,
        "14462": 19,
        "14463": 152,
        "14464": 112,
        "14465": 225,
        "14466": 91,
        "14467": 127,
        "14468": 141,
        "14469": 217,
        "14470": 96,
        "14471": 229,
        "14472": 100,
        "14473": 252,
        "14474": 6,
        "14475": 54,
        "14476": 180,
        "14477": 104,
        "14478": 163,
        "14479": 221,
        "14480": 50,
        "14481": 7,
        "14482": 230,
        "14483": 58,
        "14484": 111,
        "14485": 212,
        "14486": 58,
        "14487": 235,
        "14488": 236,
        "14489": 126,
        "14490": 215,
        "14491": 234,
        "14492": 115,
        "14493": 198,
        "14494": 242,
        "14495": 6,
        "14496": 204,
        "14497": 24,
        "14498": 14,
        "14499": 80,
        "14500": 214,
        "14501": 2,
        "14502": 62,
        "14503": 5,
        "14504": 78,
        "14505": 10,
        "14506": 79,
        "14507": 159,
        "14508": 191,
        "14509": 255,
        "14510": 9,
        "14511": 176,
        "14512": 195,
        "14513": 22,
        "14514": 141,
        "14515": 65,
        "14516": 104,
        "14517": 204,
        "14518": 181,
        "14519": 24,
        "14520": 56,
        "14521": 37,
        "14522": 119,
        "14523": 39,
        "14524": 119,
        "14525": 251,
        "14526": 242,
        "14527": 40,
        "14528": 188,
        "14529": 188,
        "14530": 119,
        "14531": 46,
        "14532": 195,
        "14533": 84,
        "14534": 249,
        "14535": 59,
        "14536": 133,
        "14537": 17,
        "14538": 202,
        "14539": 191,
        "14540": 18,
        "14541": 210,
        "14542": 49,
        "14543": 180,
        "14544": 215,
        "14545": 152,
        "14546": 22,
        "14547": 169,
        "14548": 199,
        "14549": 76,
        "14550": 31,
        "14551": 45,
        "14552": 164,
        "14553": 209,
        "14554": 149,
        "14555": 201,
        "14556": 206,
        "14557": 176,
        "14558": 231,
        "14559": 62,
        "14560": 48,
        "14561": 113,
        "14562": 74,
        "14563": 155,
        "14564": 24,
        "14565": 70,
        "14566": 199,
        "14567": 177,
        "14568": 77,
        "14569": 152,
        "14570": 121,
        "14571": 242,
        "14572": 149,
        "14573": 160,
        "14574": 144,
        "14575": 73,
        "14576": 128,
        "14577": 40,
        "14578": 157,
        "14579": 179,
        "14580": 1,
        "14581": 57,
        "14582": 3,
        "14583": 128,
        "14584": 3,
        "14585": 82,
        "14586": 241,
        "14587": 121,
        "14588": 144,
        "14589": 30,
        "14590": 63,
        "14591": 59,
        "14592": 46,
        "14593": 250,
        "14594": 95,
        "14595": 111,
        "14596": 54,
        "14597": 99,
        "14598": 135,
        "14599": 110,
        "14600": 62,
        "14601": 204,
        "14602": 180,
        "14603": 195,
        "14604": 85,
        "14605": 255,
        "14606": 243,
        "14607": 55,
        "14608": 52,
        "14609": 124,
        "14610": 45,
        "14611": 31,
        "14612": 173,
        "14613": 46,
        "14614": 190,
        "14615": 195,
        "14616": 154,
        "14617": 245,
        "14618": 136,
        "14619": 136,
        "14620": 97,
        "14621": 212,
        "14622": 142,
        "14623": 54,
        "14624": 215,
        "14625": 169,
        "14626": 9,
        "14627": 65,
        "14628": 2,
        "14629": 173,
        "14630": 218,
        "14631": 97,
        "14632": 128,
        "14633": 210,
        "14634": 36,
        "14635": 222,
        "14636": 72,
        "14637": 188,
        "14638": 3,
        "14639": 230,
        "14640": 195,
        "14641": 82,
        "14642": 118,
        "14643": 206,
        "14644": 239,
        "14645": 11,
        "14646": 146,
        "14647": 64,
        "14648": 122,
        "14649": 232,
        "14650": 39,
        "14651": 21,
        "14652": 213,
        "14653": 49,
        "14654": 86,
        "14655": 171,
        "14656": 115,
        "14657": 196,
        "14658": 68,
        "14659": 76,
        "14660": 62,
        "14661": 143,
        "14662": 238,
        "14663": 55,
        "14664": 113,
        "14665": 131,
        "14666": 162,
        "14667": 40,
        "14668": 110,
        "14669": 201,
        "14670": 69,
        "14671": 223,
        "14672": 250,
        "14673": 247,
        "14674": 117,
        "14675": 245,
        "14676": 9,
        "14677": 99,
        "14678": 49,
        "14679": 138,
        "14680": 251,
        "14681": 157,
        "14682": 246,
        "14683": 168,
        "14684": 31,
        "14685": 121,
        "14686": 156,
        "14687": 173,
        "14688": 220,
        "14689": 88,
        "14690": 52,
        "14691": 86,
        "14692": 243,
        "14693": 233,
        "14694": 142,
        "14695": 63,
        "14696": 84,
        "14697": 73,
        "14698": 255,
        "14699": 42,
        "14700": 52,
        "14701": 163,
        "14702": 126,
        "14703": 237,
        "14704": 232,
        "14705": 200,
        "14706": 205,
        "14707": 40,
        "14708": 75,
        "14709": 19,
        "14710": 96,
        "14711": 13,
        "14712": 27,
        "14713": 106,
        "14714": 215,
        "14715": 157,
        "14716": 43,
        "14717": 45,
        "14718": 128,
        "14719": 57,
        "14720": 54,
        "14721": 214,
        "14722": 82,
        "14723": 231,
        "14724": 173,
        "14725": 61,
        "14726": 243,
        "14727": 172,
        "14728": 15,
        "14729": 135,
        "14730": 35,
        "14731": 98,
        "14732": 220,
        "14733": 42,
        "14734": 230,
        "14735": 72,
        "14736": 101,
        "14737": 161,
        "14738": 124,
        "14739": 61,
        "14740": 96,
        "14741": 4,
        "14742": 147,
        "14743": 125,
        "14744": 223,
        "14745": 213,
        "14746": 60,
        "14747": 207,
        "14748": 143,
        "14749": 173,
        "14750": 57,
        "14751": 111,
        "14752": 157,
        "14753": 58,
        "14754": 181,
        "14755": 206,
        "14756": 26,
        "14757": 80,
        "14758": 204,
        "14759": 38,
        "14760": 143,
        "14761": 123,
        "14762": 83,
        "14763": 128,
        "14764": 188,
        "14765": 14,
        "14766": 168,
        "14767": 164,
        "14768": 11,
        "14769": 13,
        "14770": 105,
        "14771": 25,
        "14772": 192,
        "14773": 250,
        "14774": 80,
        "14775": 84,
        "14776": 49,
        "14777": 160,
        "14778": 193,
        "14779": 147,
        "14780": 154,
        "14781": 191,
        "14782": 245,
        "14783": 72,
        "14784": 215,
        "14785": 0,
        "14786": 142,
        "14787": 212,
        "14788": 226,
        "14789": 193,
        "14790": 101,
        "14791": 86,
        "14792": 145,
        "14793": 210,
        "14794": 101,
        "14795": 113,
        "14796": 3,
        "14797": 215,
        "14798": 77,
        "14799": 236,
        "14800": 162,
        "14801": 208,
        "14802": 247,
        "14803": 250,
        "14804": 72,
        "14805": 179,
        "14806": 10,
        "14807": 163,
        "14808": 67,
        "14809": 107,
        "14810": 162,
        "14811": 249,
        "14812": 246,
        "14813": 48,
        "14814": 186,
        "14815": 234,
        "14816": 250,
        "14817": 112,
        "14818": 52,
        "14819": 172,
        "14820": 62,
        "14821": 56,
        "14822": 19,
        "14823": 79,
        "14824": 121,
        "14825": 55,
        "14826": 210,
        "14827": 55,
        "14828": 128,
        "14829": 239,
        "14830": 198,
        "14831": 232,
        "14832": 104,
        "14833": 54,
        "14834": 5,
        "14835": 43,
        "14836": 246,
        "14837": 180,
        "14838": 183,
        "14839": 236,
        "14840": 217,
        "14841": 34,
        "14842": 128,
        "14843": 40,
        "14844": 26,
        "14845": 117,
        "14846": 119,
        "14847": 47,
        "14848": 102,
        "14849": 102,
        "14850": 253,
        "14851": 210,
        "14852": 226,
        "14853": 127,
        "14854": 124,
        "14855": 247,
        "14856": 51,
        "14857": 209,
        "14858": 42,
        "14859": 209,
        "14860": 101,
        "14861": 72,
        "14862": 230,
        "14863": 19,
        "14864": 125,
        "14865": 160,
        "14866": 91,
        "14867": 228,
        "14868": 201,
        "14869": 214,
        "14870": 28,
        "14871": 221,
        "14872": 75,
        "14873": 237,
        "14874": 44,
        "14875": 247,
        "14876": 110,
        "14877": 66,
        "14878": 61,
        "14879": 198,
        "14880": 184,
        "14881": 112,
        "14882": 163,
        "14883": 159,
        "14884": 115,
        "14885": 40,
        "14886": 212,
        "14887": 5,
        "14888": 222,
        "14889": 253,
        "14890": 3,
        "14891": 202,
        "14892": 19,
        "14893": 55,
        "14894": 125,
        "14895": 12,
        "14896": 173,
        "14897": 174,
        "14898": 230,
        "14899": 42,
        "14900": 208,
        "14901": 95,
        "14902": 18,
        "14903": 171,
        "14904": 72,
        "14905": 68,
        "14906": 236,
        "14907": 140,
        "14908": 100,
        "14909": 64,
        "14910": 72,
        "14911": 189,
        "14912": 241,
        "14913": 212,
        "14914": 150,
        "14915": 143,
        "14916": 85,
        "14917": 171,
        "14918": 102,
        "14919": 65,
        "14920": 174,
        "14921": 177,
        "14922": 151,
        "14923": 72,
        "14924": 15,
        "14925": 240,
        "14926": 174,
        "14927": 180,
        "14928": 126,
        "14929": 122,
        "14930": 0,
        "14931": 116,
        "14932": 96,
        "14933": 209,
        "14934": 113,
        "14935": 169,
        "14936": 178,
        "14937": 248,
        "14938": 102,
        "14939": 14,
        "14940": 197,
        "14941": 18,
        "14942": 54,
        "14943": 39,
        "14944": 68,
        "14945": 138,
        "14946": 117,
        "14947": 134,
        "14948": 104,
        "14949": 198,
        "14950": 209,
        "14951": 217,
        "14952": 248,
        "14953": 39,
        "14954": 200,
        "14955": 190,
        "14956": 102,
        "14957": 102,
        "14958": 51,
        "14959": 245,
        "14960": 235,
        "14961": 115,
        "14962": 162,
        "14963": 194,
        "14964": 97,
        "14965": 249,
        "14966": 243,
        "14967": 111,
        "14968": 17,
        "14969": 29,
        "14970": 195,
        "14971": 230,
        "14972": 172,
        "14973": 6,
        "14974": 10,
        "14975": 83,
        "14976": 17,
        "14977": 110,
        "14978": 173,
        "14979": 69,
        "14980": 128,
        "14981": 226,
        "14982": 156,
        "14983": 86,
        "14984": 19,
        "14985": 117,
        "14986": 86,
        "14987": 82,
        "14988": 87,
        "14989": 55,
        "14990": 152,
        "14991": 255,
        "14992": 61,
        "14993": 79,
        "14994": 24,
        "14995": 51,
        "14996": 115,
        "14997": 87,
        "14998": 253,
        "14999": 144,
        "15000": 217,
        "15001": 2,
        "15002": 235,
        "15003": 86,
        "15004": 160,
        "15005": 203,
        "15006": 208,
        "15007": 106,
        "15008": 248,
        "15009": 222,
        "15010": 43,
        "15011": 120,
        "15012": 54,
        "15013": 125,
        "15014": 207,
        "15015": 178,
        "15016": 240,
        "15017": 93,
        "15018": 253,
        "15019": 120,
        "15020": 200,
        "15021": 89,
        "15022": 189,
        "15023": 62,
        "15024": 59,
        "15025": 135,
        "15026": 250,
        "15027": 117,
        "15028": 34,
        "15029": 219,
        "15030": 202,
        "15031": 128,
        "15032": 218,
        "15033": 187,
        "15034": 71,
        "15035": 35,
        "15036": 252,
        "15037": 208,
        "15038": 230,
        "15039": 81,
        "15040": 136,
        "15041": 206,
        "15042": 135,
        "15043": 122,
        "15044": 219,
        "15045": 4,
        "15046": 188,
        "15047": 55,
        "15048": 102,
        "15049": 81,
        "15050": 101,
        "15051": 206,
        "15052": 236,
        "15053": 242,
        "15054": 55,
        "15055": 73,
        "15056": 74,
        "15057": 8,
        "15058": 78,
        "15059": 236,
        "15060": 38,
        "15061": 54,
        "15062": 24,
        "15063": 128,
        "15064": 194,
        "15065": 57,
        "15066": 30,
        "15067": 199,
        "15068": 83,
        "15069": 7,
        "15070": 13,
        "15071": 132,
        "15072": 215,
        "15073": 165,
        "15074": 135,
        "15075": 117,
        "15076": 31,
        "15077": 9,
        "15078": 238,
        "15079": 61,
        "15080": 96,
        "15081": 117,
        "15082": 138,
        "15083": 180,
        "15084": 169,
        "15085": 149,
        "15086": 54,
        "15087": 228,
        "15088": 2,
        "15089": 241,
        "15090": 56,
        "15091": 240,
        "15092": 59,
        "15093": 61,
        "15094": 240,
        "15095": 83,
        "15096": 107,
        "15097": 120,
        "15098": 233,
        "15099": 102,
        "15100": 33,
        "15101": 195,
        "15102": 37,
        "15103": 75,
        "15104": 12,
        "15105": 76,
        "15106": 140,
        "15107": 242,
        "15108": 140,
        "15109": 128,
        "15110": 237,
        "15111": 155,
        "15112": 113,
        "15113": 168,
        "15114": 39,
        "15115": 117,
        "15116": 178,
        "15117": 202,
        "15118": 96,
        "15119": 91,
        "15120": 215,
        "15121": 102,
        "15122": 136,
        "15123": 21,
        "15124": 118,
        "15125": 122,
        "15126": 19,
        "15127": 248,
        "15128": 64,
        "15129": 93,
        "15130": 23,
        "15131": 27,
        "15132": 37,
        "15133": 123,
        "15134": 213,
        "15135": 113,
        "15136": 27,
        "15137": 217,
        "15138": 229,
        "15139": 0,
        "15140": 57,
        "15141": 236,
        "15142": 175,
        "15143": 20,
        "15144": 5,
        "15145": 8,
        "15146": 57,
        "15147": 234,
        "15148": 14,
        "15149": 252,
        "15150": 165,
        "15151": 201,
        "15152": 206,
        "15153": 28,
        "15154": 157,
        "15155": 71,
        "15156": 200,
        "15157": 203,
        "15158": 155,
        "15159": 197,
        "15160": 55,
        "15161": 182,
        "15162": 64,
        "15163": 43,
        "15164": 129,
        "15165": 52,
        "15166": 250,
        "15167": 137,
        "15168": 56,
        "15169": 79,
        "15170": 23,
        "15171": 61,
        "15172": 40,
        "15173": 9,
        "15174": 44,
        "15175": 54,
        "15176": 163,
        "15177": 83,
        "15178": 195,
        "15179": 19,
        "15180": 222,
        "15181": 16,
        "15182": 100,
        "15183": 151,
        "15184": 186,
        "15185": 160,
        "15186": 79,
        "15187": 118,
        "15188": 84,
        "15189": 6,
        "15190": 194,
        "15191": 184,
        "15192": 210,
        "15193": 162,
        "15194": 63,
        "15195": 75,
        "15196": 115,
        "15197": 67,
        "15198": 124,
        "15199": 248,
        "15200": 208,
        "15201": 126,
        "15202": 210,
        "15203": 236,
        "15204": 178,
        "15205": 226,
        "15206": 63,
        "15207": 217,
        "15208": 202,
        "15209": 13,
        "15210": 52,
        "15211": 138,
        "15212": 169,
        "15213": 130,
        "15214": 99,
        "15215": 6,
        "15216": 74,
        "15217": 2,
        "15218": 71,
        "15219": 219,
        "15220": 166,
        "15221": 110,
        "15222": 43,
        "15223": 241,
        "15224": 8,
        "15225": 176,
        "15226": 133,
        "15227": 18,
        "15228": 159,
        "15229": 3,
        "15230": 193,
        "15231": 8,
        "15232": 238,
        "15233": 182,
        "15234": 215,
        "15235": 73,
        "15236": 205,
        "15237": 9,
        "15238": 68,
        "15239": 156,
        "15240": 69,
        "15241": 19,
        "15242": 43,
        "15243": 44,
        "15244": 95,
        "15245": 146,
        "15246": 90,
        "15247": 119,
        "15248": 163,
        "15249": 116,
        "15250": 230,
        "15251": 149,
        "15252": 112,
        "15253": 201,
        "15254": 28,
        "15255": 197,
        "15256": 136,
        "15257": 53,
        "15258": 161,
        "15259": 71,
        "15260": 128,
        "15261": 21,
        "15262": 138,
        "15263": 215,
        "15264": 41,
        "15265": 55,
        "15266": 17,
        "15267": 42,
        "15268": 31,
        "15269": 207,
        "15270": 177,
        "15271": 46,
        "15272": 135,
        "15273": 231,
        "15274": 254,
        "15275": 144,
        "15276": 213,
        "15277": 6,
        "15278": 109,
        "15279": 238,
        "15280": 250,
        "15281": 162,
        "15282": 28,
        "15283": 99,
        "15284": 11,
        "15285": 137,
        "15286": 196,
        "15287": 170,
        "15288": 192,
        "15289": 160,
        "15290": 164,
        "15291": 127,
        "15292": 46,
        "15293": 158,
        "15294": 132,
        "15295": 0,
        "15296": 64,
        "15297": 170,
        "15298": 111,
        "15299": 39,
        "15300": 95,
        "15301": 241,
        "15302": 149,
        "15303": 55,
        "15304": 84,
        "15305": 137,
        "15306": 122,
        "15307": 121,
        "15308": 110,
        "15309": 160,
        "15310": 119,
        "15311": 43,
        "15312": 205,
        "15313": 254,
        "15314": 165,
        "15315": 30,
        "15316": 202,
        "15317": 210,
        "15318": 113,
        "15319": 254,
        "15320": 53,
        "15321": 40,
        "15322": 101,
        "15323": 145,
        "15324": 184,
        "15325": 26,
        "15326": 209,
        "15327": 89,
        "15328": 154,
        "15329": 175,
        "15330": 185,
        "15331": 231,
        "15332": 65,
        "15333": 12,
        "15334": 88,
        "15335": 102,
        "15336": 199,
        "15337": 41,
        "15338": 241,
        "15339": 226,
        "15340": 223,
        "15341": 253,
        "15342": 113,
        "15343": 114,
        "15344": 240,
        "15345": 244,
        "15346": 46,
        "15347": 237,
        "15348": 43,
        "15349": 29,
        "15350": 2,
        "15351": 153,
        "15352": 159,
        "15353": 32,
        "15354": 64,
        "15355": 60,
        "15356": 122,
        "15357": 120,
        "15358": 34,
        "15359": 131,
        "15360": 166,
        "15361": 30,
        "15362": 224,
        "15363": 93,
        "15364": 0,
        "15365": 26,
        "15366": 247,
        "15367": 70,
        "15368": 107,
        "15369": 36,
        "15370": 97,
        "15371": 129,
        "15372": 64,
        "15373": 169,
        "15374": 107,
        "15375": 237,
        "15376": 162,
        "15377": 182,
        "15378": 192,
        "15379": 241,
        "15380": 86,
        "15381": 145,
        "15382": 104,
        "15383": 140,
        "15384": 218,
        "15385": 0,
        "15386": 254,
        "15387": 136,
        "15388": 249,
        "15389": 125,
        "15390": 105,
        "15391": 100,
        "15392": 68,
        "15393": 244,
        "15394": 178,
        "15395": 193,
        "15396": 193,
        "15397": 153,
        "15398": 71,
        "15399": 232,
        "15400": 40,
        "15401": 2,
        "15402": 109,
        "15403": 106,
        "15404": 71,
        "15405": 125,
        "15406": 191,
        "15407": 127,
        "15408": 105,
        "15409": 117,
        "15410": 34,
        "15411": 225,
        "15412": 180,
        "15413": 229,
        "15414": 28,
        "15415": 196,
        "15416": 197,
        "15417": 42,
        "15418": 77,
        "15419": 73,
        "15420": 118,
        "15421": 2,
        "15422": 226,
        "15423": 87,
        "15424": 108,
        "15425": 216,
        "15426": 44,
        "15427": 3,
        "15428": 115,
        "15429": 70,
        "15430": 112,
        "15431": 97,
        "15432": 174,
        "15433": 212,
        "15434": 133,
        "15435": 187,
        "15436": 15,
        "15437": 187,
        "15438": 162,
        "15439": 62,
        "15440": 84,
        "15441": 197,
        "15442": 56,
        "15443": 181,
        "15444": 228,
        "15445": 142,
        "15446": 73,
        "15447": 251,
        "15448": 60,
        "15449": 20,
        "15450": 104,
        "15451": 52,
        "15452": 199,
        "15453": 28,
        "15454": 195,
        "15455": 127,
        "15456": 173,
        "15457": 124,
        "15458": 59,
        "15459": 90,
        "15460": 56,
        "15461": 34,
        "15462": 204,
        "15463": 27,
        "15464": 207,
        "15465": 162,
        "15466": 181,
        "15467": 224,
        "15468": 12,
        "15469": 227,
        "15470": 126,
        "15471": 118,
        "15472": 30,
        "15473": 210,
        "15474": 225,
        "15475": 100,
        "15476": 31,
        "15477": 94,
        "15478": 152,
        "15479": 230,
        "15480": 49,
        "15481": 235,
        "15482": 159,
        "15483": 21,
        "15484": 183,
        "15485": 180,
        "15486": 86,
        "15487": 77,
        "15488": 197,
        "15489": 23,
        "15490": 102,
        "15491": 79,
        "15492": 242,
        "15493": 73,
        "15494": 127,
        "15495": 224,
        "15496": 162,
        "15497": 140,
        "15498": 210,
        "15499": 217,
        "15500": 83,
        "15501": 63,
        "15502": 6,
        "15503": 165,
        "15504": 15,
        "15505": 69,
        "15506": 69,
        "15507": 144,
        "15508": 243,
        "15509": 174,
        "15510": 35,
        "15511": 116,
        "15512": 210,
        "15513": 221,
        "15514": 249,
        "15515": 189,
        "15516": 230,
        "15517": 4,
        "15518": 140,
        "15519": 254,
        "15520": 0,
        "15521": 163,
        "15522": 39,
        "15523": 27,
        "15524": 80,
        "15525": 199,
        "15526": 121,
        "15527": 142,
        "15528": 64,
        "15529": 69,
        "15530": 202,
        "15531": 227,
        "15532": 78,
        "15533": 66,
        "15534": 97,
        "15535": 2,
        "15536": 46,
        "15537": 8,
        "15538": 33,
        "15539": 139,
        "15540": 5,
        "15541": 55,
        "15542": 80,
        "15543": 22,
        "15544": 85,
        "15545": 94,
        "15546": 134,
        "15547": 71,
        "15548": 122,
        "15549": 7,
        "15550": 153,
        "15551": 19,
        "15552": 62,
        "15553": 105,
        "15554": 250,
        "15555": 191,
        "15556": 192,
        "15557": 38,
        "15558": 182,
        "15559": 253,
        "15560": 77,
        "15561": 234,
        "15562": 240,
        "15563": 204,
        "15564": 5,
        "15565": 245,
        "15566": 251,
        "15567": 227,
        "15568": 93,
        "15569": 157,
        "15570": 31,
        "15571": 103,
        "15572": 149,
        "15573": 210,
        "15574": 148,
        "15575": 77,
        "15576": 115,
        "15577": 245,
        "15578": 98,
        "15579": 213,
        "15580": 35,
        "15581": 110,
        "15582": 33,
        "15583": 157,
        "15584": 141,
        "15585": 37,
        "15586": 227,
        "15587": 85,
        "15588": 12,
        "15589": 114,
        "15590": 64,
        "15591": 212,
        "15592": 141,
        "15593": 187,
        "15594": 178,
        "15595": 185,
        "15596": 2,
        "15597": 172,
        "15598": 9,
        "15599": 105,
        "15600": 220,
        "15601": 253,
        "15602": 170,
        "15603": 22,
        "15604": 54,
        "15605": 203,
        "15606": 145,
        "15607": 128,
        "15608": 149,
        "15609": 4,
        "15610": 140,
        "15611": 60,
        "15612": 125,
        "15613": 79,
        "15614": 34,
        "15615": 241,
        "15616": 151,
        "15617": 211,
        "15618": 245,
        "15619": 211,
        "15620": 225,
        "15621": 59,
        "15622": 190,
        "15623": 47,
        "15624": 88,
        "15625": 189,
        "15626": 76,
        "15627": 126,
        "15628": 233,
        "15629": 209,
        "15630": 230,
        "15631": 120,
        "15632": 167,
        "15633": 88,
        "15634": 11,
        "15635": 103,
        "15636": 55,
        "15637": 28,
        "15638": 100,
        "15639": 153,
        "15640": 191,
        "15641": 116,
        "15642": 170,
        "15643": 131,
        "15644": 67,
        "15645": 89,
        "15646": 182,
        "15647": 90,
        "15648": 45,
        "15649": 83,
        "15650": 241,
        "15651": 160,
        "15652": 59,
        "15653": 98,
        "15654": 253,
        "15655": 76,
        "15656": 176,
        "15657": 250,
        "15658": 54,
        "15659": 39,
        "15660": 21,
        "15661": 223,
        "15662": 175,
        "15663": 87,
        "15664": 195,
        "15665": 202,
        "15666": 188,
        "15667": 111,
        "15668": 105,
        "15669": 208,
        "15670": 229,
        "15671": 143,
        "15672": 99,
        "15673": 246,
        "15674": 135,
        "15675": 103,
        "15676": 181,
        "15677": 228,
        "15678": 178,
        "15679": 88,
        "15680": 147,
        "15681": 109,
        "15682": 215,
        "15683": 129,
        "15684": 94,
        "15685": 117,
        "15686": 122,
        "15687": 122,
        "15688": 202,
        "15689": 203,
        "15690": 147,
        "15691": 104,
        "15692": 26,
        "15693": 11,
        "15694": 104,
        "15695": 30,
        "15696": 219,
        "15697": 249,
        "15698": 249,
        "15699": 244,
        "15700": 92,
        "15701": 226,
        "15702": 155,
        "15703": 98,
        "15704": 166,
        "15705": 76,
        "15706": 42,
        "15707": 68,
        "15708": 187,
        "15709": 11,
        "15710": 233,
        "15711": 27,
        "15712": 146,
        "15713": 142,
        "15714": 12,
        "15715": 219,
        "15716": 55,
        "15717": 219,
        "15718": 23,
        "15719": 137,
        "15720": 43,
        "15721": 224,
        "15722": 22,
        "15723": 59,
        "15724": 89,
        "15725": 49,
        "15726": 215,
        "15727": 142,
        "15728": 50,
        "15729": 199,
        "15730": 58,
        "15731": 149,
        "15732": 72,
        "15733": 31,
        "15734": 70,
        "15735": 193,
        "15736": 10,
        "15737": 124,
        "15738": 58,
        "15739": 61,
        "15740": 115,
        "15741": 228,
        "15742": 28,
        "15743": 76,
        "15744": 24,
        "15745": 202,
        "15746": 160,
        "15747": 200,
        "15748": 108,
        "15749": 86,
        "15750": 122,
        "15751": 8,
        "15752": 68,
        "15753": 250,
        "15754": 88,
        "15755": 100,
        "15756": 59,
        "15757": 213,
        "15758": 65,
        "15759": 159,
        "15760": 24,
        "15761": 84,
        "15762": 239,
        "15763": 123,
        "15764": 62,
        "15765": 66,
        "15766": 231,
        "15767": 246,
        "15768": 0,
        "15769": 94,
        "15770": 234,
        "15771": 178,
        "15772": 66,
        "15773": 215,
        "15774": 125,
        "15775": 33,
        "15776": 216,
        "15777": 4,
        "15778": 161,
        "15779": 253,
        "15780": 145,
        "15781": 10,
        "15782": 138,
        "15783": 44,
        "15784": 37,
        "15785": 187,
        "15786": 119,
        "15787": 220,
        "15788": 196,
        "15789": 167,
        "15790": 32,
        "15791": 134,
        "15792": 149,
        "15793": 32,
        "15794": 112,
        "15795": 253,
        "15796": 44,
        "15797": 19,
        "15798": 183,
        "15799": 153,
        "15800": 84,
        "15801": 220,
        "15802": 205,
        "15803": 191,
        "15804": 215,
        "15805": 171,
        "15806": 149,
        "15807": 40,
        "15808": 218,
        "15809": 214,
        "15810": 227,
        "15811": 2,
        "15812": 185,
        "15813": 238,
        "15814": 222,
        "15815": 21,
        "15816": 216,
        "15817": 26,
        "15818": 40,
        "15819": 15,
        "15820": 196,
        "15821": 60,
        "15822": 128,
        "15823": 210,
        "15824": 111,
        "15825": 99,
        "15826": 187,
        "15827": 128,
        "15828": 221,
        "15829": 143,
        "15830": 99,
        "15831": 42,
        "15832": 56,
        "15833": 5,
        "15834": 65,
        "15835": 239,
        "15836": 34,
        "15837": 235,
        "15838": 255,
        "15839": 202,
        "15840": 187,
        "15841": 101,
        "15842": 98,
        "15843": 100,
        "15844": 42,
        "15845": 95,
        "15846": 203,
        "15847": 182,
        "15848": 132,
        "15849": 85,
        "15850": 241,
        "15851": 95,
        "15852": 227,
        "15853": 23,
        "15854": 169,
        "15855": 175,
        "15856": 136,
        "15857": 233,
        "15858": 238,
        "15859": 1,
        "15860": 84,
        "15861": 193,
        "15862": 232,
        "15863": 221,
        "15864": 40,
        "15865": 14,
        "15866": 199,
        "15867": 162,
        "15868": 94,
        "15869": 235,
        "15870": 1,
        "15871": 22,
        "15872": 165,
        "15873": 217,
        "15874": 181,
        "15875": 114,
        "15876": 165,
        "15877": 84,
        "15878": 78,
        "15879": 186,
        "15880": 111,
        "15881": 198,
        "15882": 2,
        "15883": 254,
        "15884": 21,
        "15885": 32,
        "15886": 63,
        "15887": 185,
        "15888": 21,
        "15889": 189,
        "15890": 132,
        "15891": 110,
        "15892": 78,
        "15893": 238,
        "15894": 172,
        "15895": 216,
        "15896": 54,
        "15897": 86,
        "15898": 210,
        "15899": 87,
        "15900": 220,
        "15901": 174,
        "15902": 158,
        "15903": 37,
        "15904": 18,
        "15905": 190,
        "15906": 166,
        "15907": 226,
        "15908": 148,
        "15909": 232,
        "15910": 18,
        "15911": 144,
        "15912": 42,
        "15913": 17,
        "15914": 71,
        "15915": 183,
        "15916": 105,
        "15917": 240,
        "15918": 193,
        "15919": 83,
        "15920": 160,
        "15921": 75,
        "15922": 88,
        "15923": 136,
        "15924": 221,
        "15925": 64,
        "15926": 78,
        "15927": 180,
        "15928": 107,
        "15929": 103,
        "15930": 5,
        "15931": 156,
        "15932": 234,
        "15933": 65,
        "15934": 230,
        "15935": 57,
        "15936": 59,
        "15937": 76,
        "15938": 135,
        "15939": 231,
        "15940": 30,
        "15941": 146,
        "15942": 164,
        "15943": 103,
        "15944": 170,
        "15945": 60,
        "15946": 20,
        "15947": 226,
        "15948": 118,
        "15949": 145,
        "15950": 21,
        "15951": 150,
        "15952": 140,
        "15953": 170,
        "15954": 84,
        "15955": 67,
        "15956": 185,
        "15957": 165,
        "15958": 36,
        "15959": 181,
        "15960": 6,
        "15961": 32,
        "15962": 13,
        "15963": 175,
        "15964": 112,
        "15965": 117,
        "15966": 56,
        "15967": 74,
        "15968": 253,
        "15969": 234,
        "15970": 233,
        "15971": 125,
        "15972": 31,
        "15973": 186,
        "15974": 64,
        "15975": 14,
        "15976": 72,
        "15977": 165,
        "15978": 206,
        "15979": 193,
        "15980": 15,
        "15981": 202,
        "15982": 237,
        "15983": 87,
        "15984": 166,
        "15985": 189,
        "15986": 129,
        "15987": 20,
        "15988": 72,
        "15989": 130,
        "15990": 203,
        "15991": 8,
        "15992": 52,
        "15993": 111,
        "15994": 122,
        "15995": 71,
        "15996": 198,
        "15997": 124,
        "15998": 64,
        "15999": 205,
        "16000": 71,
        "16001": 254,
        "16002": 140,
        "16003": 245,
        "16004": 156,
        "16005": 109,
        "16006": 103,
        "16007": 115,
        "16008": 189,
        "16009": 16,
        "16010": 184,
        "16011": 87,
        "16012": 213,
        "16013": 52,
        "16014": 229,
        "16015": 156,
        "16016": 182,
        "16017": 152,
        "16018": 192,
        "16019": 161,
        "16020": 103,
        "16021": 100,
        "16022": 135,
        "16023": 3,
        "16024": 179,
        "16025": 50,
        "16026": 151,
        "16027": 85,
        "16028": 53,
        "16029": 162,
        "16030": 83,
        "16031": 115,
        "16032": 132,
        "16033": 102,
        "16034": 36,
        "16035": 117,
        "16036": 239,
        "16037": 194,
        "16038": 55,
        "16039": 4,
        "16040": 169,
        "16041": 164,
        "16042": 87,
        "16043": 37,
        "16044": 210,
        "16045": 151,
        "16046": 179,
        "16047": 81,
        "16048": 198,
        "16049": 148,
        "16050": 113,
        "16051": 163,
        "16052": 184,
        "16053": 58,
        "16054": 158,
        "16055": 191,
        "16056": 100,
        "16057": 173,
        "16058": 218,
        "16059": 79,
        "16060": 92,
        "16061": 255,
        "16062": 144,
        "16063": 79,
        "16064": 196,
        "16065": 21,
        "16066": 230,
        "16067": 27,
        "16068": 83,
        "16069": 225,
        "16070": 72,
        "16071": 157,
        "16072": 160,
        "16073": 154,
        "16074": 247,
        "16075": 51,
        "16076": 229,
        "16077": 214,
        "16078": 175,
        "16079": 5,
        "16080": 250,
        "16081": 90,
        "16082": 122,
        "16083": 69,
        "16084": 249,
        "16085": 3,
        "16086": 229,
        "16087": 153,
        "16088": 95,
        "16089": 45,
        "16090": 179,
        "16091": 108,
        "16092": 15,
        "16093": 24,
        "16094": 23,
        "16095": 103,
        "16096": 150,
        "16097": 198,
        "16098": 5,
        "16099": 184,
        "16100": 220,
        "16101": 30,
        "16102": 185,
        "16103": 231,
        "16104": 10,
        "16105": 85,
        "16106": 184,
        "16107": 250,
        "16108": 64,
        "16109": 215,
        "16110": 122,
        "16111": 40,
        "16112": 78,
        "16113": 4,
        "16114": 147,
        "16115": 100,
        "16116": 76,
        "16117": 156,
        "16118": 144,
        "16119": 125,
        "16120": 96,
        "16121": 187,
        "16122": 201,
        "16123": 199,
        "16124": 23,
        "16125": 106,
        "16126": 38,
        "16127": 198,
        "16128": 96,
        "16129": 102,
        "16130": 7,
        "16131": 94,
        "16132": 15,
        "16133": 17,
        "16134": 148,
        "16135": 75,
        "16136": 113,
        "16137": 158,
        "16138": 253,
        "16139": 109,
        "16140": 181,
        "16141": 108,
        "16142": 53,
        "16143": 113,
        "16144": 97,
        "16145": 245,
        "16146": 59,
        "16147": 160,
        "16148": 14,
        "16149": 138,
        "16150": 17,
        "16151": 24,
        "16152": 65,
        "16153": 126,
        "16154": 186,
        "16155": 228,
        "16156": 105,
        "16157": 236,
        "16158": 40,
        "16159": 1,
        "16160": 250,
        "16161": 99,
        "16162": 112,
        "16163": 56,
        "16164": 189,
        "16165": 24,
        "16166": 153,
        "16167": 153,
        "16168": 195,
        "16169": 11,
        "16170": 253,
        "16171": 111,
        "16172": 140,
        "16173": 186,
        "16174": 62,
        "16175": 127,
        "16176": 31,
        "16177": 17,
        "16178": 136,
        "16179": 14,
        "16180": 86,
        "16181": 147,
        "16182": 8,
        "16183": 29,
        "16184": 158,
        "16185": 91,
        "16186": 18,
        "16187": 253,
        "16188": 16,
        "16189": 223,
        "16190": 180,
        "16191": 36,
        "16192": 160,
        "16193": 219,
        "16194": 109,
        "16195": 123,
        "16196": 159,
        "16197": 65,
        "16198": 235,
        "16199": 239,
        "16200": 2,
        "16201": 1,
        "16202": 117,
        "16203": 106,
        "16204": 167,
        "16205": 44,
        "16206": 86,
        "16207": 177,
        "16208": 100,
        "16209": 220,
        "16210": 88,
        "16211": 48,
        "16212": 242,
        "16213": 59,
        "16214": 223,
        "16215": 110,
        "16216": 38,
        "16217": 39,
        "16218": 18,
        "16219": 208,
        "16220": 74,
        "16221": 57,
        "16222": 14,
        "16223": 200,
        "16224": 189,
        "16225": 2,
        "16226": 200,
        "16227": 42,
        "16228": 47,
        "16229": 202,
        "16230": 19,
        "16231": 35,
        "16232": 209,
        "16233": 140,
        "16234": 239,
        "16235": 209,
        "16236": 161,
        "16237": 144,
        "16238": 41,
        "16239": 239,
        "16240": 142,
        "16241": 43,
        "16242": 226,
        "16243": 97,
        "16244": 222,
        "16245": 2,
        "16246": 82,
        "16247": 178,
        "16248": 23,
        "16249": 169,
        "16250": 155,
        "16251": 137,
        "16252": 51,
        "16253": 22,
        "16254": 215,
        "16255": 130,
        "16256": 153,
        "16257": 150,
        "16258": 38,
        "16259": 234,
        "16260": 5,
        "16261": 53,
        "16262": 89,
        "16263": 153,
        "16264": 184,
        "16265": 80,
        "16266": 240,
        "16267": 233,
        "16268": 243,
        "16269": 18,
        "16270": 95,
        "16271": 23,
        "16272": 148,
        "16273": 214,
        "16274": 59,
        "16275": 81,
        "16276": 50,
        "16277": 79,
        "16278": 77,
        "16279": 191,
        "16280": 168,
        "16281": 174,
        "16282": 53,
        "16283": 46,
        "16284": 41,
        "16285": 28,
        "16286": 217,
        "16287": 19,
        "16288": 150,
        "16289": 37,
        "16290": 210,
        "16291": 65,
        "16292": 115,
        "16293": 138,
        "16294": 237,
        "16295": 180,
        "16296": 192,
        "16297": 83,
        "16298": 254,
        "16299": 58,
        "16300": 222,
        "16301": 105,
        "16302": 84,
        "16303": 97,
        "16304": 246,
        "16305": 157,
        "16306": 158,
        "16307": 196,
        "16308": 44,
        "16309": 80,
        "16310": 25,
        "16311": 163,
        "16312": 128,
        "16313": 140,
        "16314": 243,
        "16315": 182,
        "16316": 99,
        "16317": 162,
        "16318": 41,
        "16319": 30,
        "16320": 70,
        "16321": 218,
        "16322": 254,
        "16323": 6,
        "16324": 115,
        "16325": 98,
        "16326": 245,
        "16327": 121,
        "16328": 245,
        "16329": 56,
        "16330": 228,
        "16331": 116,
        "16332": 177,
        "16333": 177,
        "16334": 242,
        "16335": 38,
        "16336": 157,
        "16337": 111,
        "16338": 102,
        "16339": 121,
        "16340": 209,
        "16341": 26,
        "16342": 7,
        "16343": 62,
        "16344": 84,
        "16345": 164,
        "16346": 138,
        "16347": 203,
        "16348": 189,
        "16349": 50,
        "16350": 229,
        "16351": 215,
        "16352": 215,
        "16353": 0,
        "16354": 6,
        "16355": 115,
        "16356": 175,
        "16357": 239,
        "16358": 117,
        "16359": 149,
        "16360": 240,
        "16361": 38,
        "16362": 135,
        "16363": 171,
        "16364": 57,
        "16365": 147,
        "16366": 10,
        "16367": 201,
        "16368": 71,
        "16369": 128,
        "16370": 126,
        "16371": 125,
        "16372": 53,
        "16373": 181,
        "16374": 31,
        "16375": 252,
        "16376": 85,
        "16377": 150,
        "16378": 86,
        "16379": 226,
        "16380": 127,
        "16381": 98,
        "16382": 209,
        "16383": 140,
        "16384": 31,
        "16385": 248,
        "16386": 140,
        "16387": 97,
        "16388": 156,
        "16389": 145,
        "16390": 226,
        "16391": 159,
        "16392": 33,
        "16393": 74,
        "16394": 93,
        "16395": 225,
        "16396": 126,
        "16397": 116,
        "16398": 180,
        "16399": 91,
        "16400": 189,
        "16401": 185,
        "16402": 226,
        "16403": 188,
        "16404": 233,
        "16405": 255,
        "16406": 234,
        "16407": 217,
        "16408": 223,
        "16409": 161,
        "16410": 69,
        "16411": 132,
        "16412": 147,
        "16413": 131,
        "16414": 132,
        "16415": 52,
        "16416": 137,
        "16417": 81,
        "16418": 239,
        "16419": 102,
        "16420": 197,
        "16421": 144,
        "16422": 3,
        "16423": 78,
        "16424": 129,
        "16425": 118,
        "16426": 215,
        "16427": 99,
        "16428": 216,
        "16429": 75,
        "16430": 109,
        "16431": 116,
        "16432": 192,
        "16433": 95,
        "16434": 162,
        "16435": 1,
        "16436": 60,
        "16437": 45,
        "16438": 132,
        "16439": 66,
        "16440": 248,
        "16441": 159,
        "16442": 123,
        "16443": 253,
        "16444": 3,
        "16445": 111,
        "16446": 255,
        "16447": 131,
        "16448": 135,
        "16449": 132,
        "16450": 43,
        "16451": 88,
        "16452": 138,
        "16453": 158,
        "16454": 214,
        "16455": 232,
        "16456": 103,
        "16457": 153,
        "16458": 40,
        "16459": 36,
        "16460": 52,
        "16461": 88,
        "16462": 74,
        "16463": 122,
        "16464": 28,
        "16465": 94,
        "16466": 176,
        "16467": 27,
        "16468": 198,
        "16469": 165,
        "16470": 216,
        "16471": 32,
        "16472": 139,
        "16473": 48,
        "16474": 222,
        "16475": 149,
        "16476": 166,
        "16477": 229,
        "16478": 236,
        "16479": 110,
        "16480": 35,
        "16481": 208,
        "16482": 141,
        "16483": 219,
        "16484": 241,
        "16485": 177,
        "16486": 29,
        "16487": 158,
        "16488": 243,
        "16489": 139,
        "16490": 137,
        "16491": 236,
        "16492": 218,
        "16493": 185,
        "16494": 245,
        "16495": 38,
        "16496": 117,
        "16497": 173,
        "16498": 128,
        "16499": 239,
        "16500": 123,
        "16501": 243,
        "16502": 29,
        "16503": 176,
        "16504": 53,
        "16505": 53,
        "16506": 65,
        "16507": 141,
        "16508": 82,
        "16509": 174,
        "16510": 9,
        "16511": 108,
        "16512": 87,
        "16513": 79,
        "16514": 81,
        "16515": 192,
        "16516": 246,
        "16517": 226,
        "16518": 189,
        "16519": 83,
        "16520": 1,
        "16521": 8,
        "16522": 0,
        "16523": 0,
        "16524": 0,
        "16525": 0,
        "16526": 0,
        "16527": 0,
        "16528": 16,
        "16529": 0,
        "16530": 0,
        "16531": 0,
        "16532": 0,
        "16533": 0,
        "16534": 0,
        "16535": 0,
        "16536": 0,
        "16537": 0,
        "16538": 0,
        "16539": 0,
        "16540": 0,
        "16541": 0,
        "16542": 0,
        "16543": 0,
        "16544": 0,
        "16545": 0,
        "16546": 0,
        "16547": 0,
        "16548": 0,
        "16549": 0,
        "16550": 0,
        "16551": 0,
        "16552": 64,
        "16553": 0,
        "16554": 0,
        "16555": 0,
        "16556": 0,
        "16557": 0,
        "16558": 0,
        "16559": 0,
        "16560": 3,
        "16561": 0,
        "16562": 0,
        "16563": 0,
        "16564": 0,
        "16565": 0,
        "16566": 0,
        "16567": 0,
        "16568": 4,
        "16569": 0,
        "16570": 0,
        "16571": 0,
        "16572": 0,
        "16573": 0,
        "16574": 0,
        "16575": 0,
        "16576": 4,
        "16577": 0,
        "16578": 0,
        "16579": 0,
        "16580": 0,
        "16581": 0,
        "16582": 0,
        "16583": 0,
        "16584": 0,
        "16585": 0,
        "16586": 0,
        "16587": 0,
        "16588": 1,
        "16589": 0,
        "16590": 0,
        "16591": 0,
        "16592": 0,
        "16593": 0,
        "16594": 0,
        "16595": 0,
        "16596": 16,
        "16597": 0,
        "16598": 0,
        "16599": 0,
        "16600": 0,
        "16601": 0,
        "16602": 0,
        "16603": 0
      }
    }
  ],
  "numDeployments": 1,
  "solcInputHash": "c0e889dcb69b76266f445d0fe3402b92",
  "bytecode": "0x6101606040526200001760006200026660201b60201c565b6002553480156200002757600080fd5b50604051620046173803806200461783398181016040528101906200004d919062000b83565b6040518060400160405280600881526020017f46616b652046475a0000000000000000000000000000000000000000000000008152506040518060400160405280600481526020017f6646475a00000000000000000000000000000000000000000000000000000000815250338383836040518060400160405280601181526020017f4668656e6978205065726d697373696f6e0000000000000000000000000000008152506040518060400160405280600381526020017f312e3000000000000000000000000000000000000000000000000000000000008152506200013f6000836200028260201b90919060201c565b61012081815250506200015d6001826200028260201b90919060201c565b6101408181525050818051906020012060e08181525050808051906020012061010081815250504660a081815250506200019c620002da60201b60201c565b608081815250503073ffffffffffffffffffffffffffffffffffffffff1660c08173ffffffffffffffffffffffffffffffffffffffff168152505050508160059081620001ea919062000e1f565b508060069081620001fc919062000e1f565b505050600062000212826200033760201b60201c565b9050620002486200023c8262000230617fff6200026660201b60201c565b6200035560201b60201c565b620003f860201b60201c565b6200025a8382620004cb60201b60201c565b50505050505062001260565b60006200027b8260026200057160201b60201c565b9050919050565b6000602083511015620002a857620002a0836200062860201b60201c565b9050620002d4565b82620002ba836200069560201b60201c565b6000019081620002cb919062000e1f565b5060ff60001b90505b92915050565b60007f8b73c3c69bb8fe3d512ecc4cf759cc79239f7b179b0ffacaa9a75d522b39400f60e0516101005146306040516020016200031c95949392919062000f77565b60405160208183030381529060405280519060200120905090565b60006200034e82600001516200069f60201b60201c565b9050919050565b60006200036883620006bb60201b60201c565b62000382576200037f60006200026660201b60201c565b92505b6200039382620006bb60201b60201c565b620003ad57620003aa60006200026660201b60201c565b91505b600083905060008390506000620003ea60028484608073ffffffffffffffffffffffffffffffffffffffff1663eb274b77620006c860201b60201c565b905080935050505092915050565b62000409816200077960201b60201c565b62000423576200042060006200078660201b60201c565b90505b600081905060006200043b82620007a260201b60201c565b9050608073ffffffffffffffffffffffffffffffffffffffff16637d23f1db600d836040518363ffffffff1660e01b81526004016200047c9291906200104f565b600060405180830381865afa1580156200049a573d6000803e3d6000fd5b505050506040513d6000823e3d601f19601f82011682018060405250810190620004c5919062001083565b50505050565b62000516600360008473ffffffffffffffffffffffffffffffffffffffff1673ffffffffffffffffffffffffffffffffffffffff168152602001908152602001600020548262000803565b600360008473ffffffffffffffffffffffffffffffffffffffff1673ffffffffffffffffffffffffffffffffffffffff16815260200190815260200160002081905550620005676002548262000803565b6002819055505050565b60006060608073ffffffffffffffffffffffffffffffffffffffff166319e1c5c4620005a386620007a260201b60201c565b856040518363ffffffff1660e01b8152600401620005c3929190620010d4565b600060405180830381865afa158015620005e1573d6000803e3d6000fd5b505050506040513d6000823e3d601f19601f820116820180604052508101906200060c919062001083565b90506200061f816200081f60201b60201c565b91505092915050565b600080829050601f815111156200067857826040517f305a27a90000000000000000000000000000000000000000000000000000000081526004016200066f91906200115a565b60405180910390fd5b8051816200068690620011a5565b60001c1760001b915050919050565b6000819050919050565b6000620006b48260026200082d60201b60201c565b9050919050565b6000808214159050919050565b60006060838388620006e089620007a260201b60201c565b620006f189620007a260201b60201c565b6040518463ffffffff1660e01b8152600401620007119392919062001215565b600060405180830381865afa1580156200072f573d6000803e3d6000fd5b505050506040513d6000823e3d601f19601f820116820180604052508101906200075a919062001083565b90506200076d81620008d460201b60201c565b91505095945050505050565b6000808214159050919050565b60006200079b82600d6200057160201b60201c565b9050919050565b6060602067ffffffffffffffff811115620007c257620007c1620009ae565b5b6040519080825280601f01601f191660200182016040528015620007f55781602001600182028036833780820191505090505b509050816020820152919050565b6000620008178383620008e260201b60201c565b905092915050565b600060208201519050919050565b60006060608073ffffffffffffffffffffffffffffffffffffffff16635fa55ca784866040518363ffffffff1660e01b81526004016200086f9291906200104f565b600060405180830381865afa1580156200088d573d6000803e3d6000fd5b505050506040513d6000823e3d601f19601f82011682018060405250810190620008b8919062001083565b9050620008cb816200081f60201b60201c565b91505092915050565b600060208201519050919050565b6000620008f583620006bb60201b60201c565b6200090f576200090c60006200026660201b60201c565b92505b6200092082620006bb60201b60201c565b6200093a576200093760006200026660201b60201c565b91505b6000839050600083905060006200097660028484608073ffffffffffffffffffffffffffffffffffffffff16622df619620006c860201b60201c565b905080935050505092915050565b6000604051905090565b600080fd5b600080fd5b600080fd5b6000601f19601f8301169050919050565b7f4e487b7100000000000000000000000000000000000000000000000000000000600052604160045260246000fd5b620009e8826200099d565b810181811067ffffffffffffffff8211171562000a0a5762000a09620009ae565b5b80604052505050565b600062000a1f62000984565b905062000a2d8282620009dd565b919050565b600080fd5b600080fd5b600080fd5b600067ffffffffffffffff82111562000a5f5762000a5e620009ae565b5b62000a6a826200099d565b9050602081019050919050565b60005b8381101562000a9757808201518184015260208101905062000a7a565b60008484015250505050565b600062000aba62000ab48462000a41565b62000a13565b90508281526020810184848401111562000ad95762000ad862000a3c565b5b62000ae684828562000a77565b509392505050565b600082601f83011262000b065762000b0562000a37565b5b815162000b1884826020860162000aa3565b91505092915050565b60006020828403121562000b3a5762000b3962000998565b5b62000b46602062000a13565b9050600082015167ffffffffffffffff81111562000b695762000b6862000a32565b5b62000b778482850162000aee565b60008301525092915050565b60006020828403121562000b9c5762000b9b6200098e565b5b600082015167ffffffffffffffff81111562000bbd5762000bbc62000993565b5b62000bcb8482850162000b21565b91505092915050565b600081519050919050565b7f4e487b7100000000000000000000000000000000000000000000000000000000600052602260045260246000fd5b6000600282049050600182168062000c2757607f821691505b60208210810362000c3d5762000c3c62000bdf565b5b50919050565b60008190508160005260206000209050919050565b60006020601f8301049050919050565b600082821b905092915050565b60006008830262000ca77fffffffffffffffffffffffffffffffffffffffffffffffffffffffffffffffff8262000c68565b62000cb3868362000c68565b95508019841693508086168417925050509392505050565b6000819050919050565b6000819050919050565b600062000d0062000cfa62000cf48462000ccb565b62000cd5565b62000ccb565b9050919050565b6000819050919050565b62000d1c8362000cdf565b62000d3462000d2b8262000d07565b84845462000c75565b825550505050565b600090565b62000d4b62000d3c565b62000d5881848462000d11565b505050565b5b8181101562000d805762000d7460008262000d41565b60018101905062000d5e565b5050565b601f82111562000dcf5762000d998162000c43565b62000da48462000c58565b8101602085101562000db4578190505b62000dcc62000dc38562000c58565b83018262000d5d565b50505b505050565b600082821c905092915050565b600062000df46000198460080262000dd4565b1980831691505092915050565b600062000e0f838362000de1565b9150826002028217905092915050565b62000e2a8262000bd4565b67ffffffffffffffff81111562000e465762000e45620009ae565b5b62000e52825462000c0e565b62000e5f82828562000d84565b600060209050601f83116001811462000e97576000841562000e82578287015190505b62000e8e858262000e01565b86555062000efe565b601f19841662000ea78662000c43565b60005b8281101562000ed15784890151825560018201915060208501945060208101905062000eaa565b8683101562000ef1578489015162000eed601f89168262000de1565b8355505b6001600288020188555050505b505050505050565b6000819050919050565b62000f1b8162000f06565b82525050565b62000f2c8162000ccb565b82525050565b600073ffffffffffffffffffffffffffffffffffffffff82169050919050565b600062000f5f8262000f32565b9050919050565b62000f718162000f52565b82525050565b600060a08201905062000f8e600083018862000f10565b62000f9d602083018762000f10565b62000fac604083018662000f10565b62000fbb606083018562000f21565b62000fca608083018462000f66565b9695505050505050565b600060ff82169050919050565b62000fec8162000fd4565b82525050565b600081519050919050565b600082825260208201905092915050565b60006200101b8262000ff2565b62001027818562000ffd565b93506200103981856020860162000a77565b62001044816200099d565b840191505092915050565b600060408201905062001066600083018562000fe1565b81810360208301526200107a81846200100e565b90509392505050565b6000602082840312156200109c576200109b6200098e565b5b600082015167ffffffffffffffff811115620010bd57620010bc62000993565b5b620010cb8482850162000aee565b91505092915050565b60006040820190508181036000830152620010f081856200100e565b905062001101602083018462000fe1565b9392505050565b600082825260208201905092915050565b6000620011268262000bd4565b62001132818562001108565b93506200114481856020860162000a77565b6200114f816200099d565b840191505092915050565b6000602082019050818103600083015262001176818462001119565b905092915050565b6000819050602082019050919050565b60006200119c825162000f06565b80915050919050565b6000620011b28262000ff2565b82620011be846200117e565b9050620011cb816200118e565b925060208210156200120e57620012097fffffffffffffffffffffffffffffffffffffffffffffffffffffffffffffffff8360200360080262000c68565b831692505b5050919050565b60006060820190506200122c600083018662000fe1565b81810360208301526200124081856200100e565b905081810360408301526200125681846200100e565b9050949350505050565b60805160a05160c05160e05161010051610120516101405161335c620012bb60003960006118f5015260006118ba0152600061217f0152600061215e015260006119ea01526000611a4001526000611a69015261335c6000f3fe608060405234801561001057600080fd5b50600436106101425760003560e01c80637ecebe00116100b8578063a9059cbb1161007c578063a9059cbb146103b9578063af575a00146103e9578063c4224c1914610419578063d505accf14610449578063d918156e14610465578063dd62ed3e1461049557610142565b80637ecebe00146102fb57806384b0196e1461032b5780638624a3491461034f57806395d89b411461037f5780639f284be71461039d57610142565b80633644e5151161010a5780633644e5151461020157806339c217f71461021f5780635356c4291461024f578063602772041461027f5780636e0505e1146102af57806370a08231146102cb57610142565b806306fdde0314610147578063095ea7b31461016557806318160ddd1461019557806323b872dd146101b3578063313ce567146101e3575b600080fd5b61014f6104c5565b60405161015c9190612433565b60405180910390f35b61017f600480360381019061017a91906124fd565b610557565b60405161018c9190612558565b60405180910390f35b61019d6105ab565b6040516101aa9190612582565b60405180910390f35b6101cd60048036038101906101c8919061259d565b6105bd565b6040516101da9190612558565b60405180910390f35b6101eb610692565b6040516101f8919061260c565b60405180910390f35b610209610697565b6040516102169190612640565b60405180910390f35b6102396004803603810190610234919061267f565b610729565b6040516102469190612716565b60405180910390f35b61026960048036038101906102649190612750565b61074e565b6040516102769190612433565b60405180910390f35b61029960048036038101906102949190612983565b6108bf565b6040516102a69190612433565b60405180910390f35b6102c960048036038101906102c49190612a1b565b6109ec565b005b6102e560048036038101906102e09190612a48565b610b01565b6040516102f29190612582565b60405180910390f35b61031560048036038101906103109190612a48565b610b1c565b6040516103229190612582565b60405180910390f35b610333610b37565b6040516103469796959493929190612b7d565b60405180910390f35b61036960048036038101906103649190612c01565b610be1565b6040516103769190612716565b60405180910390f35b610387610c08565b6040516103949190612433565b60405180910390f35b6103b760048036038101906103b29190612a1b565b610c9a565b005b6103d360048036038101906103ce91906124fd565b610da7565b6040516103e09190612558565b60405180910390f35b61040360048036038101906103fe9190612c9c565b610e39565b6040516104109190612716565b60405180910390f35b610433600480360381019061042e9190612cef565b61118f565b6040516104409190612716565b60405180910390f35b610463600480360381019061045e9190612d5b565b611359565b005b61047f600480360381019061047a919061267f565b6114fd565b60405161048c9190612558565b60405180910390f35b6104af60048036038101906104aa9190612dfd565b6115f5565b6040516104bc9190612582565b60405180910390f35b6060600580546104d490612e6c565b80601f016020809104026020016040519081016040528092919081815260200182805461050090612e6c565b801561054d5780601f106105225761010080835404028352916020019161054d565b820191906000526020600020905b81548152906001019060200180831161053057829003601f168201915b5050505050905090565b600082602052637f5e9f20600c5233600052816034600c205581600052602c5160601c337f8c5be1e5ebec7d5bd14f71427d1e84f3dd0314c0f7b2291e5b200ac8c7c3b92560206000a36001905092915050565b60006805345cdf77eb68f44c54905090565b60006105ca848484611615565b8360601b33602052637f5e9f208117600c526034600c20805460018101156106085780851115610602576313be252b6000526004601cfd5b84810382555b6387a211a28317600c526020600c2080548087111561062f5763f4d678b86000526004601cfd5b8681038255876000526020600c2087815401815587602052600c5160601c8660601c7fddf252ad1be2c89b69c2b068fc378daa952ba7f163c4a11628f55a4df523b3ef602080a350505050505061068784848461161a565b600190509392505050565b600090565b6000806106a261161f565b90506000801b81036106c0576106b66104c5565b8051906020012090505b6040517f8b73c3c69bb8fe3d512ecc4cf759cc79239f7b179b0ffacaa9a75d522b39400f81528160208201527fc89efdaa54c0f20c7adf612882df0950f5a951637e0307cdcb4c672f298b8bc6604082015246606082015230608082015260a081209250505090565b6000610746836107418461073c90612ef5565b611624565b61118f565b905092915050565b60608161075a90612f08565b60006107b17f6bdaeb2d29561f159c7ef98b16b27015fb2aeb87209c7ee656226d912f59927d8360000151604051602001610796929190612f1b565b6040516020818303038152906040528051906020012061163a565b905060006107c3828460200151611654565b90503373ffffffffffffffffffffffffffffffffffffffff168173ffffffffffffffffffffffffffffffffffffffff161461082a576040517f3093a27700000000000000000000000000000000000000000000000000000000815260040160405180910390fd5b6108b4600460003373ffffffffffffffffffffffffffffffffffffffff1673ffffffffffffffffffffffffffffffffffffffff16815260200190815260200160002060008873ffffffffffffffffffffffffffffffffffffffff1673ffffffffffffffffffffffffffffffffffffffff168152602001908152602001600020548660000135611680565b935050505092915050565b60608183600061091a7f6bdaeb2d29561f159c7ef98b16b27015fb2aeb87209c7ee656226d912f59927d84600001516040516020016108ff929190612f1b565b6040516020818303038152906040528051906020012061163a565b9050600061092c828560200151611654565b90508273ffffffffffffffffffffffffffffffffffffffff168173ffffffffffffffffffffffffffffffffffffffff1614610993576040517f51c65eae00000000000000000000000000000000000000000000000000000000815260040160405180910390fd5b6109e0600360008973ffffffffffffffffffffffffffffffffffffffff1673ffffffffffffffffffffffffffffffffffffffff168152602001908152602001600020548760000151611680565b94505050505092915050565b6000610a45610a008363ffffffff166116b6565b600360003373ffffffffffffffffffffffffffffffffffffffff1673ffffffffffffffffffffffffffffffffffffffff168152602001908152602001600020546116ca565b9050610a90600360003373ffffffffffffffffffffffffffffffffffffffff1673ffffffffffffffffffffffffffffffffffffffff1681526020019081526020016000205482611743565b600360003373ffffffffffffffffffffffffffffffffffffffff1673ffffffffffffffffffffffffffffffffffffffff16815260200190815260200160002081905550610adf60025482611743565b600281905550610afd33610af283611757565b63ffffffff1661181a565b5050565b60006387a211a2600c52816000526020600c20549050919050565b60006338377508600c52816000526020600c20549050919050565b600060608060008060006060610b4b6118b1565b610b536118ec565b46306000801b600067ffffffffffffffff811115610b7457610b736127b1565b5b604051908082528060200260200182016040528015610ba25781602001602082028036833780820191505090505b507f0f00000000000000000000000000000000000000000000000000000000000000959493929190965096509650965096509650965090919293949596565b6000610bff8484610bfa85610bf590612ef5565b611624565b610e39565b90509392505050565b606060068054610c1790612e6c565b80601f0160208091040260200160405190810160405280929190818152602001828054610c4390612e6c565b8015610c905780601f10610c6557610100808354040283529160200191610c90565b820191906000526020600020905b815481529060010190602001808311610c7357829003601f168201915b5050505050905090565b8063ffffffff16610caa33610b01565b1015610ce2576040517ffda7bbda00000000000000000000000000000000000000000000000000000000815260040160405180910390fd5b610cf2338263ffffffff16611927565b6000610d038263ffffffff166116b6565b9050610d4e600360003373ffffffffffffffffffffffffffffffffffffffff1673ffffffffffffffffffffffffffffffffffffffff16815260200190815260200160002054826119be565b600360003373ffffffffffffffffffffffffffffffffffffffff1673ffffffffffffffffffffffffffffffffffffffff16815260200190815260200160002081905550610d9d600254826119be565b6002819055505050565b6000610db4338484611615565b6387a211a2600c52336000526020600c20805480841115610ddd5763f4d678b86000526004601cfd5b8381038255846000526020600c2084815401815584602052600c5160601c337fddf252ad1be2c89b69c2b068fc378daa952ba7f163c4a11628f55a4df523b3ef602080a3505050610e2f33848461161a565b6001905092915050565b600080610f0a83610f05600360008973ffffffffffffffffffffffffffffffffffffffff1673ffffffffffffffffffffffffffffffffffffffff16815260200190815260200160002054600460008a73ffffffffffffffffffffffffffffffffffffffff1673ffffffffffffffffffffffffffffffffffffffff16815260200190815260200160002060003373ffffffffffffffffffffffffffffffffffffffff1673ffffffffffffffffffffffffffffffffffffffff168152602001908152602001600020546116ca565b6116ca565b9050610f92600460008773ffffffffffffffffffffffffffffffffffffffff1673ffffffffffffffffffffffffffffffffffffffff16815260200190815260200160002060003373ffffffffffffffffffffffffffffffffffffffff1673ffffffffffffffffffffffffffffffffffffffff1681526020019081526020016000205482611743565b600460008773ffffffffffffffffffffffffffffffffffffffff1673ffffffffffffffffffffffffffffffffffffffff16815260200190815260200160002060003373ffffffffffffffffffffffffffffffffffffffff1673ffffffffffffffffffffffffffffffffffffffff1681526020019081526020016000208190555061105b600360008773ffffffffffffffffffffffffffffffffffffffff1673ffffffffffffffffffffffffffffffffffffffff1681526020019081526020016000205482611743565b600360008773ffffffffffffffffffffffffffffffffffffffff1673ffffffffffffffffffffffffffffffffffffffff168152602001908152602001600020819055506110e7600360008673ffffffffffffffffffffffffffffffffffffffff1673ffffffffffffffffffffffffffffffffffffffff16815260200190815260200160002054826119be565b600360008673ffffffffffffffffffffffffffffffffffffffff1673ffffffffffffffffffffffffffffffffffffffff168152602001908152602001600020819055508373ffffffffffffffffffffffffffffffffffffffff168573ffffffffffffffffffffffffffffffffffffffff167f7612539b010127d1a2f810eeff1131de23a28ecfa8228f92a9606a879300fbb560405160405180910390a3809150509392505050565b6000806111db83600360003373ffffffffffffffffffffffffffffffffffffffff1673ffffffffffffffffffffffffffffffffffffffff168152602001908152602001600020546116ca565b9050611226600360003373ffffffffffffffffffffffffffffffffffffffff1673ffffffffffffffffffffffffffffffffffffffff1681526020019081526020016000205482611743565b600360003373ffffffffffffffffffffffffffffffffffffffff1673ffffffffffffffffffffffffffffffffffffffff168152602001908152602001600020819055506112b2600360008673ffffffffffffffffffffffffffffffffffffffff1673ffffffffffffffffffffffffffffffffffffffff16815260200190815260200160002054826119be565b600360008673ffffffffffffffffffffffffffffffffffffffff1673ffffffffffffffffffffffffffffffffffffffff168152602001908152602001600020819055508373ffffffffffffffffffffffffffffffffffffffff163373ffffffffffffffffffffffffffffffffffffffff167f7612539b010127d1a2f810eeff1131de23a28ecfa8228f92a9606a879300fbb560405160405180910390a38091505092915050565b600061136361161f565b90506000801b8103611381576113776104c5565b8051906020012090505b8442111561139757631a15a3cc6000526004601cfd5b6040518860601b60601c98508760601b60601c975065383775081901600e52886000526020600c2080547f8b73c3c69bb8fe3d512ecc4cf759cc79239f7b179b0ffacaa9a75d522b39400f83528360208401527fc89efdaa54c0f20c7adf612882df0950f5a951637e0307cdcb4c672f298b8bc6604084015246606084015230608084015260a08320602e527f6e71edae12b1b97f4d1f60370fef10105fa2faae0126114a169c64845d6126c983528a60208401528960408401528860608401528060808401528760a084015260c08320604e526042602c206000528660ff1660205285604052846060526020806080600060015afa8b3d51146114a35763ddafbaef6000526004601cfd5b80820183558a637f5e9f2060a01b17604052896034602c20558a8c7f8c5be1e5ebec7d5bd14f71427d1e84f3dd0314c0f7b2291e5b200ac8c7c3b925602060608801a3836040526000606052505050505050505050505050565b60006115118261150c90612ef5565b611624565b600460003373ffffffffffffffffffffffffffffffffffffffff1673ffffffffffffffffffffffffffffffffffffffff16815260200190815260200160002060008573ffffffffffffffffffffffffffffffffffffffff1673ffffffffffffffffffffffffffffffffffffffff168152602001908152602001600020819055508273ffffffffffffffffffffffffffffffffffffffff163373ffffffffffffffffffffffffffffffffffffffff167f46f92913a39019d68e630493d23e0cf39761bf253f7b3f8eae384b33e393ed4e60405160405180910390a36001905092915050565b600081602052637f5e9f20600c52826000526034600c2054905092915050565b505050565b505050565b600090565b600061163382600001516119d2565b9050919050565b600061164d6116476119e6565b83611a9d565b9050919050565b6000806000806116648686611ade565b9250925092506116748282611b3a565b82935050505092915050565b606061168b83611c9e565b61169c5761169960006116b6565b92505b60008390506116ad60028285611cab565b91505092915050565b60006116c3826002611d61565b9050919050565b60006116d583611c9e565b6116e6576116e360006116b6565b92505b6116ef82611c9e565b611700576116fd60006116b6565b91505b60008390506000839050600061173560028484608073ffffffffffffffffffffffffffffffffffffffff16635211c679611e03565b905080935050505092915050565b600061174f8383611e97565b905092915050565b600061176282611c9e565b6117735761177060006116b6565b91505b6000829050600061178382611f10565b90506000608073ffffffffffffffffffffffffffffffffffffffff166373cc01546002846040518363ffffffff1660e01b81526004016117c4929190612f99565b602060405180830381865afa1580156117e1573d6000803e3d6000fd5b505050506040513d601f19601f820116820180604052508101906118059190612fde565b905061181081611f6d565b9350505050919050565b61182660008383611615565b6805345cdf77eb68f44c548181018181101561184a5763e5cfe9576000526004601cfd5b806805345cdf77eb68f44c556387a211a2600c52836000526020600c2083815401815583602052600c5160601c60007fddf252ad1be2c89b69c2b068fc378daa952ba7f163c4a11628f55a4df523b3ef602080a35050506118ad6000838361161a565b5050565b60606118e760007f0000000000000000000000000000000000000000000000000000000000000000611f7790919063ffffffff16565b905090565b606061192260017f0000000000000000000000000000000000000000000000000000000000000000611f7790919063ffffffff16565b905090565b61193382600083611615565b6387a211a2600c52816000526020600c2080548083111561195c5763f4d678b86000526004601cfd5b8281038255826805345cdf77eb68f44c54036805345cdf77eb68f44c558260005260008460601b60601c7fddf252ad1be2c89b69c2b068fc378daa952ba7f163c4a11628f55a4df523b3ef60206000a350506119ba8260008361161a565b5050565b60006119ca8383612027565b905092915050565b60006119df82600261209f565b9050919050565b60007f000000000000000000000000000000000000000000000000000000000000000073ffffffffffffffffffffffffffffffffffffffff163073ffffffffffffffffffffffffffffffffffffffff16148015611a6257507f000000000000000000000000000000000000000000000000000000000000000046145b15611a8f577f00000000000000000000000000000000000000000000000000000000000000009050611a9a565b611a97612139565b90505b90565b60006040517f190100000000000000000000000000000000000000000000000000000000000081528360028201528260228201526042812091505092915050565b60008060006041845103611b235760008060006020870151925060408701519150606087015160001a9050611b15888285856121cf565b955095509550505050611b33565b60006002855160001b9250925092505b9250925092565b60006003811115611b4e57611b4d61300b565b5b826003811115611b6157611b6061300b565b5b0315611c9a5760016003811115611b7b57611b7a61300b565b5b826003811115611b8e57611b8d61300b565b5b03611bc5576040517ff645eedf00000000000000000000000000000000000000000000000000000000815260040160405180910390fd5b60026003811115611bd957611bd861300b565b5b826003811115611bec57611beb61300b565b5b03611c31578060001c6040517ffce698f7000000000000000000000000000000000000000000000000000000008152600401611c289190612582565b60405180910390fd5b600380811115611c4457611c4361300b565b5b826003811115611c5757611c5661300b565b5b03611c9957806040517fd78bce0c000000000000000000000000000000000000000000000000000000008152600401611c909190612640565b60405180910390fd5b5b5050565b6000808214159050919050565b6060608073ffffffffffffffffffffffffffffffffffffffff1663a1848ff385611cd486611f10565b85604051602001611ce5919061305b565b6040516020818303038152906040526040518463ffffffff1660e01b8152600401611d1293929190613076565b600060405180830381865afa158015611d2f573d6000803e3d6000fd5b505050506040513d6000823e3d601f19601f82011682018060405250810190611d58919061315c565b90509392505050565b60006060608073ffffffffffffffffffffffffffffffffffffffff166319e1c5c4611d8b86611f10565b856040518363ffffffff1660e01b8152600401611da99291906131a5565b600060405180830381865afa158015611dc6573d6000803e3d6000fd5b505050506040513d6000823e3d601f19601f82011682018060405250810190611def9190613245565b9050611dfa816122c3565b91505092915050565b60006060838388611e1389611f10565b611e1c89611f10565b6040518463ffffffff1660e01b8152600401611e3a93929190613076565b600060405180830381865afa158015611e57573d6000803e3d6000fd5b505050506040513d6000823e3d601f19601f82011682018060405250810190611e809190613245565b9050611e8b816122d1565b91505095945050505050565b6000611ea283611c9e565b611eb357611eb060006116b6565b92505b611ebc82611c9e565b611ecd57611eca60006116b6565b91505b600083905060008390506000611f0260028484608073ffffffffffffffffffffffffffffffffffffffff1663cc2cbeff611e03565b905080935050505092915050565b6060602067ffffffffffffffff811115611f2d57611f2c6127b1565b5b6040519080825280601f01601f191660200182016040528015611f5f5781602001600182028036833780820191505090505b509050816020820152919050565b6000819050919050565b606060ff60001b8314611f9457611f8d836122df565b9050612021565b818054611fa090612e6c565b80601f0160208091040260200160405190810160405280929190818152602001828054611fcc90612e6c565b80156120195780601f10611fee57610100808354040283529160200191612019565b820191906000526020600020905b815481529060010190602001808311611ffc57829003601f168201915b505050505090505b92915050565b600061203283611c9e565b6120435761204060006116b6565b92505b61204c82611c9e565b61205d5761205a60006116b6565b91505b60008390506000839050600061209160028484608073ffffffffffffffffffffffffffffffffffffffff16622df619611e03565b905080935050505092915050565b60006060608073ffffffffffffffffffffffffffffffffffffffff16635fa55ca784866040518363ffffffff1660e01b81526004016120df929190612f99565b600060405180830381865afa1580156120fc573d6000803e3d6000fd5b505050506040513d6000823e3d601f19601f820116820180604052508101906121259190613245565b9050612130816122c3565b91505092915050565b60007f8b73c3c69bb8fe3d512ecc4cf759cc79239f7b179b0ffacaa9a75d522b39400f7f00000000000000000000000000000000000000000000000000000000000000007f000000000000000000000000000000000000000000000000000000000000000046306040516020016121b495949392919061328e565b60405160208183030381529060405280519060200120905090565b60008060007f7fffffffffffffffffffffffffffffff5d576e7357a4501ddfe92f46681b20a08460001c111561220f5760006003859250925092506122b9565b60006001888888886040516000815260200160405260405161223494939291906132e1565b6020604051602081039080840390855afa158015612256573d6000803e3d6000fd5b505050602060405103519050600073ffffffffffffffffffffffffffffffffffffffff168173ffffffffffffffffffffffffffffffffffffffff16036122aa57600060016000801b935093509350506122b9565b8060008060001b935093509350505b9450945094915050565b600060208201519050919050565b600060208201519050919050565b606060006122ec83612353565b90506000602067ffffffffffffffff81111561230b5761230a6127b1565b5b6040519080825280601f01601f19166020018201604052801561233d5781602001600182028036833780820191505090505b5090508181528360208201528092505050919050565b60008060ff8360001c169050601f81111561239a576040517fb3512b0c00000000000000000000000000000000000000000000000000000000815260040160405180910390fd5b80915050919050565b600081519050919050565b600082825260208201905092915050565b60005b838110156123dd5780820151818401526020810190506123c2565b60008484015250505050565b6000601f19601f8301169050919050565b6000612405826123a3565b61240f81856123ae565b935061241f8185602086016123bf565b612428816123e9565b840191505092915050565b6000602082019050818103600083015261244d81846123fa565b905092915050565b6000604051905090565b600080fd5b600080fd5b600073ffffffffffffffffffffffffffffffffffffffff82169050919050565b600061249482612469565b9050919050565b6124a481612489565b81146124af57600080fd5b50565b6000813590506124c18161249b565b92915050565b6000819050919050565b6124da816124c7565b81146124e557600080fd5b50565b6000813590506124f7816124d1565b92915050565b600080604083850312156125145761251361245f565b5b6000612522858286016124b2565b9250506020612533858286016124e8565b9150509250929050565b60008115159050919050565b6125528161253d565b82525050565b600060208201905061256d6000830184612549565b92915050565b61257c816124c7565b82525050565b60006020820190506125976000830184612573565b92915050565b6000806000606084860312156125b6576125b561245f565b5b60006125c4868287016124b2565b93505060206125d5868287016124b2565b92505060406125e6868287016124e8565b9150509250925092565b600060ff82169050919050565b612606816125f0565b82525050565b600060208201905061262160008301846125fd565b92915050565b6000819050919050565b61263a81612627565b82525050565b60006020820190506126556000830184612631565b92915050565b600080fd5b6000602082840312156126765761267561265b565b5b81905092915050565b600080604083850312156126965761269561245f565b5b60006126a4858286016124b2565b925050602083013567ffffffffffffffff8111156126c5576126c4612464565b5b6126d185828601612660565b9150509250929050565b6000819050919050565b60006127006126fb6126f6846124c7565b6126db565b6124c7565b9050919050565b612710816126e5565b82525050565b600060208201905061272b6000830184612707565b92915050565b6000604082840312156127475761274661265b565b5b81905092915050565b600080604083850312156127675761276661245f565b5b6000612775858286016124b2565b925050602083013567ffffffffffffffff81111561279657612795612464565b5b6127a285828601612731565b9150509250929050565b600080fd5b7f4e487b7100000000000000000000000000000000000000000000000000000000600052604160045260246000fd5b6127e9826123e9565b810181811067ffffffffffffffff82111715612808576128076127b1565b5b80604052505050565b600061281b612455565b905061282782826127e0565b919050565b600080fd5b61283a81612627565b811461284557600080fd5b50565b60008135905061285781612831565b92915050565b600080fd5b600080fd5b600067ffffffffffffffff821115612882576128816127b1565b5b61288b826123e9565b9050602081019050919050565b82818337600083830152505050565b60006128ba6128b584612867565b612811565b9050828152602081018484840111156128d6576128d5612862565b5b6128e1848285612898565b509392505050565b600082601f8301126128fe576128fd61285d565b5b813561290e8482602086016128a7565b91505092915050565b60006040828403121561292d5761292c6127ac565b5b6129376040612811565b9050600061294784828501612848565b600083015250602082013567ffffffffffffffff81111561296b5761296a61282c565b5b612977848285016128e9565b60208301525092915050565b6000806040838503121561299a5761299961245f565b5b60006129a8858286016124b2565b925050602083013567ffffffffffffffff8111156129c9576129c8612464565b5b6129d585828601612917565b9150509250929050565b600063ffffffff82169050919050565b6129f8816129df565b8114612a0357600080fd5b50565b600081359050612a15816129ef565b92915050565b600060208284031215612a3157612a3061245f565b5b6000612a3f84828501612a06565b91505092915050565b600060208284031215612a5e57612a5d61245f565b5b6000612a6c848285016124b2565b91505092915050565b60007fff0000000000000000000000000000000000000000000000000000000000000082169050919050565b612aaa81612a75565b82525050565b612ab981612489565b82525050565b600081519050919050565b600082825260208201905092915050565b6000819050602082019050919050565b612af4816124c7565b82525050565b6000612b068383612aeb565b60208301905092915050565b6000602082019050919050565b6000612b2a82612abf565b612b348185612aca565b9350612b3f83612adb565b8060005b83811015612b70578151612b578882612afa565b9750612b6283612b12565b925050600181019050612b43565b5085935050505092915050565b600060e082019050612b92600083018a612aa1565b8181036020830152612ba481896123fa565b90508181036040830152612bb881886123fa565b9050612bc76060830187612573565b612bd46080830186612ab0565b612be160a0830185612631565b81810360c0830152612bf38184612b1f565b905098975050505050505050565b600080600060608486031215612c1a57612c1961245f565b5b6000612c28868287016124b2565b9350506020612c39868287016124b2565b925050604084013567ffffffffffffffff811115612c5a57612c59612464565b5b612c6686828701612660565b9150509250925092565b612c79816124c7565b8114612c8457600080fd5b50565b600081359050612c9681612c70565b92915050565b600080600060608486031215612cb557612cb461245f565b5b6000612cc3868287016124b2565b9350506020612cd4868287016124b2565b9250506040612ce586828701612c87565b9150509250925092565b60008060408385031215612d0657612d0561245f565b5b6000612d14858286016124b2565b9250506020612d2585828601612c87565b9150509250929050565b612d38816125f0565b8114612d4357600080fd5b50565b600081359050612d5581612d2f565b92915050565b600080600080600080600060e0888a031215612d7a57612d7961245f565b5b6000612d888a828b016124b2565b9750506020612d998a828b016124b2565b9650506040612daa8a828b016124e8565b9550506060612dbb8a828b016124e8565b9450506080612dcc8a828b01612d46565b93505060a0612ddd8a828b01612848565b92505060c0612dee8a828b01612848565b91505092959891949750929550565b60008060408385031215612e1457612e1361245f565b5b6000612e22858286016124b2565b9250506020612e33858286016124b2565b9150509250929050565b7f4e487b7100000000000000000000000000000000000000000000000000000000600052602260045260246000fd5b60006002820490506001821680612e8457607f821691505b602082108103612e9757612e96612e3d565b5b50919050565b600060208284031215612eb357612eb26127ac565b5b612ebd6020612811565b9050600082013567ffffffffffffffff811115612edd57612edc61282c565b5b612ee9848285016128e9565b60008301525092915050565b6000612f013683612e9d565b9050919050565b6000612f143683612917565b9050919050565b6000604082019050612f306000830185612631565b612f3d6020830184612631565b9392505050565b600081519050919050565b600082825260208201905092915050565b6000612f6b82612f44565b612f758185612f4f565b9350612f858185602086016123bf565b612f8e816123e9565b840191505092915050565b6000604082019050612fae60008301856125fd565b8181036020830152612fc08184612f60565b90509392505050565b600081519050612fd8816124d1565b92915050565b600060208284031215612ff457612ff361245f565b5b600061300284828501612fc9565b91505092915050565b7f4e487b7100000000000000000000000000000000000000000000000000000000600052602160045260246000fd5b6000819050919050565b61305561305082612627565b61303a565b82525050565b60006130678284613044565b60208201915081905092915050565b600060608201905061308b60008301866125fd565b818103602083015261309d8185612f60565b905081810360408301526130b18184612f60565b9050949350505050565b600067ffffffffffffffff8211156130d6576130d56127b1565b5b6130df826123e9565b9050602081019050919050565b60006130ff6130fa846130bb565b612811565b90508281526020810184848401111561311b5761311a612862565b5b6131268482856123bf565b509392505050565b600082601f8301126131435761314261285d565b5b81516131538482602086016130ec565b91505092915050565b6000602082840312156131725761317161245f565b5b600082015167ffffffffffffffff8111156131905761318f612464565b5b61319c8482850161312e565b91505092915050565b600060408201905081810360008301526131bf8185612f60565b90506131ce60208301846125fd565b9392505050565b60006131e86131e384612867565b612811565b90508281526020810184848401111561320457613203612862565b5b61320f8482856123bf565b509392505050565b600082601f83011261322c5761322b61285d565b5b815161323c8482602086016131d5565b91505092915050565b60006020828403121561325b5761325a61245f565b5b600082015167ffffffffffffffff81111561327957613278612464565b5b61328584828501613217565b91505092915050565b600060a0820190506132a36000830188612631565b6132b06020830187612631565b6132bd6040830186612631565b6132ca6060830185612573565b6132d76080830184612ab0565b9695505050505050565b60006080820190506132f66000830187612631565b61330360208301866125fd565b6133106040830185612631565b61331d6060830184612631565b9594505050505056fea264697066735822122054e0a0f4efb5c65f190b631d1807022c518b43b07919c197c9a86ff1e683e47c64736f6c63430008180033",
  "devdoc": {
    "errors": {
      "AllowanceOverflow()": [
        {
          "details": "The allowance has overflowed."
        }
      ],
      "AllowanceUnderflow()": [
        {
          "details": "The allowance has underflowed."
        }
      ],
      "ECDSAInvalidSignature()": [
        {
          "details": "The signature derives the `address(0)`."
        }
      ],
      "ECDSAInvalidSignatureLength(uint256)": [
        {
          "details": "The signature has an invalid length."
        }
      ],
      "ECDSAInvalidSignatureS(bytes32)": [
        {
          "details": "The signature has an S value that is in the upper half order."
        }
      ],
      "InsufficientAllowance()": [
        {
          "details": "Insufficient allowance."
        }
      ],
      "InsufficientBalance()": [
        {
          "details": "Insufficient balance."
        }
      ],
      "InvalidPermit()": [
        {
          "details": "The permit is invalid."
        }
      ],
      "PermitExpired()": [
        {
          "details": "The permit has expired."
        }
      ],
      "TotalSupplyOverflow()": [
        {
          "details": "The total supply has overflowed."
        }
      ]
    },
    "events": {
      "Approval(address,address,uint256)": {
        "details": "Emitted when `amount` tokens is approved by `owner` to be used by `spender`."
      },
      "ApprovalEncrypted(address,address)": {
        "details": "Emitted when the allowance of a `spender` for an `owner` is set by a call to {approveEncrypted}. `value` is the new allowance."
      },
      "EIP712DomainChanged()": {
        "details": "MAY be emitted to signal that the domain could have changed."
      },
      "Transfer(address,address,uint256)": {
        "details": "Emitted when `amount` tokens is transferred from `from` to `to`."
      },
      "TransferEncrypted(address,address)": {
        "details": "Emitted when `value` tokens are moved from one account (`from`) to another (`to`). Note that `value` may be zero."
      }
    },
    "kind": "dev",
    "methods": {
      "DOMAIN_SEPARATOR()": {
        "details": "Returns the EIP-712 domain separator for the EIP-2612 permit."
      },
      "allowance(address,address)": {
        "details": "Returns the amount of tokens that `spender` can spend on behalf of `owner`."
      },
      "allowanceEncrypted(address,(bytes32,bytes))": {
        "details": "Returns the remaining number of tokens that `spender` will be allowed to spend on behalf of `owner` through {transferFrom}. This is zero by default. This value changes when {approve} or {transferFrom} are called."
      },
      "approve(address,uint256)": {
        "details": "Sets `amount` as the allowance of `spender` over the caller's tokens. Emits a {Approval} event."
      },
      "approveEncrypted(address,(bytes))": {
        "details": "Sets a `value` amount of tokens as the allowance of `spender` over the caller's tokens. Returns a boolean value indicating whether the operation succeeded. IMPORTANT: Beware that changing an allowance with this method brings the risk that someone may use both the old and the new allowance by unfortunate transaction ordering. One possible solution to mitigate this race condition is to first reduce the spender's allowance to 0 and set the desired value afterwards: https://github.com/ethereum/EIPs/issues/20#issuecomment-263524729 Emits an {ApprovalEncrypted} event."
      },
      "balanceOf(address)": {
        "details": "Returns the amount of tokens owned by `owner`."
      },
      "balanceOfEncrypted(address,(bytes32,bytes))": {
        "details": "Returns the value of tokens owned by `account`, sealed and encrypted for the caller."
      },
      "decimals()": {
        "details": "Returns the decimals places of the token."
      },
      "eip712Domain()": {
        "details": "See {IERC-5267}."
      },
      "name()": {
        "details": "Returns the name of the token."
      },
      "nonces(address)": {
        "details": "Returns the current nonce for `owner`. This value is used to compute the signature for EIP-2612 permit."
      },
      "permit(address,address,uint256,uint256,uint8,bytes32,bytes32)": {
        "details": "Sets `value` as the allowance of `spender` over the tokens of `owner`, authorized by a signed approval by `owner`. Emits a {Approval} event."
      },
      "symbol()": {
        "details": "Returns the symbol of the token."
      },
      "totalSupply()": {
        "details": "Returns the amount of tokens in existence."
      },
      "transfer(address,uint256)": {
        "details": "Transfer `amount` tokens from the caller to `to`. Requirements: - `from` must at least have `amount`. Emits a {Transfer} event."
      },
      "transferFrom(address,address,uint256)": {
        "details": "Transfers `amount` tokens from `from` to `to`. Note: Does not update the allowance if it is the maximum uint256 value. Requirements: - `from` must at least have `amount`. - The caller must have at least `amount` of allowance to transfer the tokens of `from`. Emits a {Transfer} event."
      },
      "transferFromEncrypted(address,address,(bytes))": {
        "details": "Moves a `value` amount of tokens from `from` to `to` using the allowance mechanism. `value` is then deducted from the caller's allowance. Returns a boolean value indicating whether the operation succeeded. Emits a {TransferEncrypted} event."
      }
    },
    "version": 1
  },
  "userdoc": {
    "errors": {
      "SignerNotMessageSender()": [
        {
          "notice": "Emitted when the signer is not the message sender"
        }
      ],
      "SignerNotOwner()": [
        {
          "notice": "Emitted when the signer is not the specified owner"
        }
      ]
    },
    "kind": "user",
    "methods": {},
    "version": 1
  },
  "storageLayout": {
    "storage": [
      {
        "astId": 16568,
        "contract": "contracts/tokens/FakeFGZ.sol:FakeFGZ",
        "label": "_nameFallback",
        "offset": 0,
        "slot": "0",
        "type": "t_string_storage"
      },
      {
        "astId": 16570,
        "contract": "contracts/tokens/FakeFGZ.sol:FakeFGZ",
        "label": "_versionFallback",
        "offset": 0,
        "slot": "1",
        "type": "t_string_storage"
      },
      {
        "astId": 18126,
        "contract": "contracts/tokens/FakeFGZ.sol:FakeFGZ",
        "label": "_encTotalSupply",
        "offset": 0,
        "slot": "2",
        "type": "t_userDefinedValueType(euint32)12"
      },
      {
        "astId": 18131,
        "contract": "contracts/tokens/FakeFGZ.sol:FakeFGZ",
        "label": "_encBalanceOf",
        "offset": 0,
        "slot": "3",
        "type": "t_mapping(t_address,t_userDefinedValueType(euint32)12)"
      },
      {
        "astId": 18138,
        "contract": "contracts/tokens/FakeFGZ.sol:FakeFGZ",
        "label": "_encAllowance",
        "offset": 0,
        "slot": "4",
        "type": "t_mapping(t_address,t_mapping(t_address,t_userDefinedValueType(euint32)12))"
      },
      {
        "astId": 18140,
        "contract": "contracts/tokens/FakeFGZ.sol:FakeFGZ",
        "label": "_name",
        "offset": 0,
        "slot": "5",
        "type": "t_string_storage"
      },
      {
        "astId": 18142,
        "contract": "contracts/tokens/FakeFGZ.sol:FakeFGZ",
        "label": "_symbol",
        "offset": 0,
        "slot": "6",
        "type": "t_string_storage"
      }
    ],
    "types": {
      "t_address": {
        "encoding": "inplace",
        "label": "address",
        "numberOfBytes": "20"
      },
      "t_mapping(t_address,t_mapping(t_address,t_userDefinedValueType(euint32)12))": {
        "encoding": "mapping",
        "key": "t_address",
        "label": "mapping(address => mapping(address => euint32))",
        "numberOfBytes": "32",
        "value": "t_mapping(t_address,t_userDefinedValueType(euint32)12)"
      },
      "t_mapping(t_address,t_userDefinedValueType(euint32)12)": {
        "encoding": "mapping",
        "key": "t_address",
        "label": "mapping(address => euint32)",
        "numberOfBytes": "32",
        "value": "t_userDefinedValueType(euint32)12"
      },
      "t_string_storage": {
        "encoding": "bytes",
        "label": "string",
        "numberOfBytes": "32"
      },
      "t_userDefinedValueType(euint32)12": {
        "encoding": "inplace",
        "label": "euint32",
        "numberOfBytes": "32"
      }
    }
  }
}