{
  "address": "0x84594930a6f4aCeF92b647fc2918A740Deb44F46",
  "abi": [
    {
      "inputs": [
        {
          "components": [
            {
              "internalType": "bytes",
              "name": "data",
              "type": "bytes"
            }
          ],
          "internalType": "struct inEuint32",
          "name": "_initialSupply",
          "type": "tuple"
        }
      ],
      "stateMutability": "nonpayable",
      "type": "constructor"
    },
    {
      "inputs": [],
      "name": "AllowanceOverflow",
      "type": "error"
    },
    {
      "inputs": [],
      "name": "AllowanceUnderflow",
      "type": "error"
    },
    {
      "inputs": [],
      "name": "ECDSAInvalidSignature",
      "type": "error"
    },
    {
      "inputs": [
        {
          "internalType": "uint256",
          "name": "length",
          "type": "uint256"
        }
      ],
      "name": "ECDSAInvalidSignatureLength",
      "type": "error"
    },
    {
      "inputs": [
        {
          "internalType": "bytes32",
          "name": "s",
          "type": "bytes32"
        }
      ],
      "name": "ECDSAInvalidSignatureS",
      "type": "error"
    },
    {
      "inputs": [],
      "name": "ErrorInsufficientFunds",
      "type": "error"
    },
    {
      "inputs": [],
      "name": "InsufficientAllowance",
      "type": "error"
    },
    {
      "inputs": [],
      "name": "InsufficientBalance",
      "type": "error"
    },
    {
      "inputs": [],
      "name": "InvalidPermit",
      "type": "error"
    },
    {
      "inputs": [],
      "name": "InvalidShortString",
      "type": "error"
    },
    {
      "inputs": [],
      "name": "PermitExpired",
      "type": "error"
    },
    {
      "inputs": [],
      "name": "SignerNotMessageSender",
      "type": "error"
    },
    {
      "inputs": [],
      "name": "SignerNotOwner",
      "type": "error"
    },
    {
      "inputs": [
        {
          "internalType": "string",
          "name": "str",
          "type": "string"
        }
      ],
      "name": "StringTooLong",
      "type": "error"
    },
    {
      "inputs": [],
      "name": "TotalSupplyOverflow",
      "type": "error"
    },
    {
      "anonymous": false,
      "inputs": [
        {
          "indexed": true,
          "internalType": "address",
          "name": "owner",
          "type": "address"
        },
        {
          "indexed": true,
          "internalType": "address",
          "name": "spender",
          "type": "address"
        },
        {
          "indexed": false,
          "internalType": "uint256",
          "name": "amount",
          "type": "uint256"
        }
      ],
      "name": "Approval",
      "type": "event"
    },
    {
      "anonymous": false,
      "inputs": [
        {
          "indexed": true,
          "internalType": "address",
          "name": "owner",
          "type": "address"
        },
        {
          "indexed": true,
          "internalType": "address",
          "name": "spender",
          "type": "address"
        }
      ],
      "name": "ApprovalEncrypted",
      "type": "event"
    },
    {
      "anonymous": false,
      "inputs": [],
      "name": "EIP712DomainChanged",
      "type": "event"
    },
    {
      "anonymous": false,
      "inputs": [
        {
          "indexed": true,
          "internalType": "address",
          "name": "from",
          "type": "address"
        },
        {
          "indexed": true,
          "internalType": "address",
          "name": "to",
          "type": "address"
        },
        {
          "indexed": false,
          "internalType": "uint256",
          "name": "amount",
          "type": "uint256"
        }
      ],
      "name": "Transfer",
      "type": "event"
    },
    {
      "anonymous": false,
      "inputs": [
        {
          "indexed": true,
          "internalType": "address",
          "name": "from",
          "type": "address"
        },
        {
          "indexed": true,
          "internalType": "address",
          "name": "to",
          "type": "address"
        }
      ],
      "name": "TransferEncrypted",
      "type": "event"
    },
    {
      "inputs": [],
      "name": "DOMAIN_SEPARATOR",
      "outputs": [
        {
          "internalType": "bytes32",
          "name": "result",
          "type": "bytes32"
        }
      ],
      "stateMutability": "view",
      "type": "function"
    },
    {
      "inputs": [
        {
          "internalType": "address",
          "name": "owner",
          "type": "address"
        },
        {
          "internalType": "address",
          "name": "spender",
          "type": "address"
        }
      ],
      "name": "allowance",
      "outputs": [
        {
          "internalType": "uint256",
          "name": "result",
          "type": "uint256"
        }
      ],
      "stateMutability": "view",
      "type": "function"
    },
    {
      "inputs": [
        {
          "internalType": "address",
          "name": "spender",
          "type": "address"
        },
        {
          "components": [
            {
              "internalType": "bytes32",
              "name": "publicKey",
              "type": "bytes32"
            },
            {
              "internalType": "bytes",
              "name": "signature",
              "type": "bytes"
            }
          ],
          "internalType": "struct Permission",
          "name": "permission",
          "type": "tuple"
        }
      ],
      "name": "allowanceEncrypted",
      "outputs": [
        {
          "internalType": "string",
          "name": "",
          "type": "string"
        }
      ],
      "stateMutability": "view",
      "type": "function"
    },
    {
      "inputs": [
        {
          "internalType": "address",
          "name": "spender",
          "type": "address"
        },
        {
          "internalType": "uint256",
          "name": "amount",
          "type": "uint256"
        }
      ],
      "name": "approve",
      "outputs": [
        {
          "internalType": "bool",
          "name": "",
          "type": "bool"
        }
      ],
      "stateMutability": "nonpayable",
      "type": "function"
    },
    {
      "inputs": [
        {
          "internalType": "address",
          "name": "spender",
          "type": "address"
        },
        {
          "components": [
            {
              "internalType": "bytes",
              "name": "data",
              "type": "bytes"
            }
          ],
          "internalType": "struct inEuint32",
          "name": "value",
          "type": "tuple"
        }
      ],
      "name": "approveEncrypted",
      "outputs": [
        {
          "internalType": "bool",
          "name": "",
          "type": "bool"
        }
      ],
      "stateMutability": "nonpayable",
      "type": "function"
    },
    {
      "inputs": [
        {
          "internalType": "address",
          "name": "owner",
          "type": "address"
        }
      ],
      "name": "balanceOf",
      "outputs": [
        {
          "internalType": "uint256",
          "name": "result",
          "type": "uint256"
        }
      ],
      "stateMutability": "view",
      "type": "function"
    },
    {
      "inputs": [
        {
          "internalType": "address",
          "name": "account",
          "type": "address"
        },
        {
          "components": [
            {
              "internalType": "bytes32",
              "name": "publicKey",
              "type": "bytes32"
            },
            {
              "internalType": "bytes",
              "name": "signature",
              "type": "bytes"
            }
          ],
          "internalType": "struct Permission",
          "name": "auth",
          "type": "tuple"
        }
      ],
      "name": "balanceOfEncrypted",
      "outputs": [
        {
          "internalType": "string",
          "name": "",
          "type": "string"
        }
      ],
      "stateMutability": "view",
      "type": "function"
    },
    {
      "inputs": [],
      "name": "decimals",
      "outputs": [
        {
          "internalType": "uint8",
          "name": "",
          "type": "uint8"
        }
      ],
      "stateMutability": "pure",
      "type": "function"
    },
    {
      "inputs": [],
      "name": "eip712Domain",
      "outputs": [
        {
          "internalType": "bytes1",
          "name": "fields",
          "type": "bytes1"
        },
        {
          "internalType": "string",
          "name": "name",
          "type": "string"
        },
        {
          "internalType": "string",
          "name": "version",
          "type": "string"
        },
        {
          "internalType": "uint256",
          "name": "chainId",
          "type": "uint256"
        },
        {
          "internalType": "address",
          "name": "verifyingContract",
          "type": "address"
        },
        {
          "internalType": "bytes32",
          "name": "salt",
          "type": "bytes32"
        },
        {
          "internalType": "uint256[]",
          "name": "extensions",
          "type": "uint256[]"
        }
      ],
      "stateMutability": "view",
      "type": "function"
    },
    {
      "inputs": [],
      "name": "name",
      "outputs": [
        {
          "internalType": "string",
          "name": "",
          "type": "string"
        }
      ],
      "stateMutability": "view",
      "type": "function"
    },
    {
      "inputs": [
        {
          "internalType": "address",
          "name": "owner",
          "type": "address"
        }
      ],
      "name": "nonces",
      "outputs": [
        {
          "internalType": "uint256",
          "name": "result",
          "type": "uint256"
        }
      ],
      "stateMutability": "view",
      "type": "function"
    },
    {
      "inputs": [
        {
          "internalType": "address",
          "name": "owner",
          "type": "address"
        },
        {
          "internalType": "address",
          "name": "spender",
          "type": "address"
        },
        {
          "internalType": "uint256",
          "name": "value",
          "type": "uint256"
        },
        {
          "internalType": "uint256",
          "name": "deadline",
          "type": "uint256"
        },
        {
          "internalType": "uint8",
          "name": "v",
          "type": "uint8"
        },
        {
          "internalType": "bytes32",
          "name": "r",
          "type": "bytes32"
        },
        {
          "internalType": "bytes32",
          "name": "s",
          "type": "bytes32"
        }
      ],
      "name": "permit",
      "outputs": [],
      "stateMutability": "nonpayable",
      "type": "function"
    },
    {
      "inputs": [],
      "name": "symbol",
      "outputs": [
        {
          "internalType": "string",
          "name": "",
          "type": "string"
        }
      ],
      "stateMutability": "view",
      "type": "function"
    },
    {
      "inputs": [],
      "name": "totalSupply",
      "outputs": [
        {
          "internalType": "uint256",
          "name": "result",
          "type": "uint256"
        }
      ],
      "stateMutability": "view",
      "type": "function"
    },
    {
      "inputs": [
        {
          "internalType": "address",
          "name": "to",
          "type": "address"
        },
        {
          "internalType": "uint256",
          "name": "amount",
          "type": "uint256"
        }
      ],
      "name": "transfer",
      "outputs": [
        {
          "internalType": "bool",
          "name": "",
          "type": "bool"
        }
      ],
      "stateMutability": "nonpayable",
      "type": "function"
    },
    {
      "inputs": [
        {
          "internalType": "address",
          "name": "to",
          "type": "address"
        },
        {
          "components": [
            {
              "internalType": "bytes",
              "name": "data",
              "type": "bytes"
            }
          ],
          "internalType": "struct inEuint32",
          "name": "encryptedAmount",
          "type": "tuple"
        }
      ],
      "name": "transferEncrypted",
      "outputs": [
        {
          "internalType": "euint32",
          "name": "",
          "type": "uint256"
        }
      ],
      "stateMutability": "nonpayable",
      "type": "function"
    },
    {
      "inputs": [
        {
          "internalType": "address",
          "name": "to",
          "type": "address"
        },
        {
          "internalType": "euint32",
          "name": "amount",
          "type": "uint256"
        }
      ],
      "name": "transferEncrypted",
      "outputs": [
        {
          "internalType": "euint32",
          "name": "",
          "type": "uint256"
        }
      ],
      "stateMutability": "nonpayable",
      "type": "function"
    },
    {
      "inputs": [
        {
          "internalType": "address",
          "name": "from",
          "type": "address"
        },
        {
          "internalType": "address",
          "name": "to",
          "type": "address"
        },
        {
          "internalType": "uint256",
          "name": "amount",
          "type": "uint256"
        }
      ],
      "name": "transferFrom",
      "outputs": [
        {
          "internalType": "bool",
          "name": "",
          "type": "bool"
        }
      ],
      "stateMutability": "nonpayable",
      "type": "function"
    },
    {
      "inputs": [
        {
          "internalType": "address",
          "name": "from",
          "type": "address"
        },
        {
          "internalType": "address",
          "name": "to",
          "type": "address"
        },
        {
          "components": [
            {
              "internalType": "bytes",
              "name": "data",
              "type": "bytes"
            }
          ],
          "internalType": "struct inEuint32",
          "name": "value",
          "type": "tuple"
        }
      ],
      "name": "transferFromEncrypted",
      "outputs": [
        {
          "internalType": "euint32",
          "name": "",
          "type": "uint256"
        }
      ],
      "stateMutability": "nonpayable",
      "type": "function"
    },
    {
      "inputs": [
        {
          "internalType": "address",
          "name": "from",
          "type": "address"
        },
        {
          "internalType": "address",
          "name": "to",
          "type": "address"
        },
        {
          "internalType": "euint32",
          "name": "value",
          "type": "uint256"
        }
      ],
      "name": "transferFromEncrypted",
      "outputs": [
        {
          "internalType": "euint32",
          "name": "",
          "type": "uint256"
        }
      ],
      "stateMutability": "nonpayable",
      "type": "function"
    },
    {
      "inputs": [
        {
          "internalType": "uint32",
          "name": "amount",
          "type": "uint32"
        }
      ],
      "name": "unwrap",
      "outputs": [],
      "stateMutability": "nonpayable",
      "type": "function"
    },
    {
      "inputs": [
        {
          "internalType": "uint32",
          "name": "amount",
          "type": "uint32"
        }
      ],
      "name": "wrap",
      "outputs": [],
      "stateMutability": "nonpayable",
      "type": "function"
    }
  ],
  "transactionHash": "0x9b7ae1b73d32ecd91a375accb3a365e4e23161e052ffbdc8e0509c8869642873",
  "args": [
    {
      "data": {
        "0": 16,
        "1": 8,
        "2": 0,
        "3": 0,
        "4": 0,
        "5": 0,
        "6": 0,
        "7": 0,
        "8": 106,
        "9": 78,
        "10": 101,
        "11": 185,
        "12": 20,
        "13": 208,
        "14": 97,
        "15": 218,
        "16": 187,
        "17": 15,
        "18": 133,
        "19": 204,
        "20": 144,
        "21": 60,
        "22": 70,
        "23": 71,
        "24": 47,
        "25": 181,
        "26": 2,
        "27": 109,
        "28": 198,
        "29": 137,
        "30": 139,
        "31": 4,
        "32": 38,
        "33": 106,
        "34": 251,
        "35": 210,
        "36": 123,
        "37": 79,
        "38": 82,
        "39": 238,
        "40": 0,
        "41": 134,
        "42": 7,
        "43": 62,
        "44": 13,
        "45": 43,
        "46": 15,
        "47": 106,
        "48": 244,
        "49": 138,
        "50": 39,
        "51": 23,
        "52": 10,
        "53": 23,
        "54": 111,
        "55": 166,
        "56": 239,
        "57": 87,
        "58": 126,
        "59": 94,
        "60": 59,
        "61": 140,
        "62": 116,
        "63": 143,
        "64": 152,
        "65": 53,
        "66": 151,
        "67": 89,
        "68": 245,
        "69": 17,
        "70": 171,
        "71": 96,
        "72": 45,
        "73": 237,
        "74": 8,
        "75": 56,
        "76": 57,
        "77": 138,
        "78": 108,
        "79": 252,
        "80": 224,
        "81": 38,
        "82": 45,
        "83": 217,
        "84": 151,
        "85": 209,
        "86": 155,
        "87": 56,
        "88": 11,
        "89": 100,
        "90": 42,
        "91": 100,
        "92": 152,
        "93": 214,
        "94": 7,
        "95": 34,
        "96": 79,
        "97": 185,
        "98": 179,
        "99": 135,
        "100": 85,
        "101": 195,
        "102": 34,
        "103": 137,
        "104": 28,
        "105": 52,
        "106": 1,
        "107": 180,
        "108": 64,
        "109": 93,
        "110": 247,
        "111": 163,
        "112": 110,
        "113": 53,
        "114": 90,
        "115": 143,
        "116": 101,
        "117": 251,
        "118": 13,
        "119": 72,
        "120": 46,
        "121": 110,
        "122": 24,
        "123": 117,
        "124": 166,
        "125": 76,
        "126": 129,
        "127": 178,
        "128": 46,
        "129": 154,
        "130": 29,
        "131": 62,
        "132": 78,
        "133": 170,
        "134": 248,
        "135": 147,
        "136": 183,
        "137": 64,
        "138": 176,
        "139": 194,
        "140": 221,
        "141": 15,
        "142": 83,
        "143": 177,
        "144": 231,
        "145": 32,
        "146": 167,
        "147": 42,
        "148": 101,
        "149": 239,
        "150": 38,
        "151": 178,
        "152": 209,
        "153": 37,
        "154": 226,
        "155": 251,
        "156": 122,
        "157": 156,
        "158": 241,
        "159": 73,
        "160": 194,
        "161": 146,
        "162": 108,
        "163": 222,
        "164": 164,
        "165": 190,
        "166": 70,
        "167": 87,
        "168": 71,
        "169": 104,
        "170": 221,
        "171": 77,
        "172": 181,
        "173": 90,
        "174": 151,
        "175": 218,
        "176": 179,
        "177": 128,
        "178": 245,
        "179": 211,
        "180": 194,
        "181": 29,
        "182": 207,
        "183": 255,
        "184": 122,
        "185": 117,
        "186": 201,
        "187": 244,
        "188": 182,
        "189": 124,
        "190": 149,
        "191": 165,
        "192": 16,
        "193": 137,
        "194": 60,
        "195": 196,
        "196": 246,
        "197": 32,
        "198": 243,
        "199": 212,
        "200": 19,
        "201": 186,
        "202": 84,
        "203": 48,
        "204": 241,
        "205": 75,
        "206": 226,
        "207": 9,
        "208": 154,
        "209": 228,
        "210": 107,
        "211": 113,
        "212": 195,
        "213": 173,
        "214": 140,
        "215": 211,
        "216": 189,
        "217": 145,
        "218": 174,
        "219": 29,
        "220": 125,
        "221": 57,
        "222": 85,
        "223": 162,
        "224": 122,
        "225": 231,
        "226": 47,
        "227": 65,
        "228": 226,
        "229": 8,
        "230": 133,
        "231": 136,
        "232": 203,
        "233": 191,
        "234": 185,
        "235": 193,
        "236": 33,
        "237": 57,
        "238": 129,
        "239": 40,
        "240": 212,
        "241": 198,
        "242": 18,
        "243": 52,
        "244": 17,
        "245": 30,
        "246": 47,
        "247": 87,
        "248": 41,
        "249": 70,
        "250": 8,
        "251": 26,
        "252": 157,
        "253": 176,
        "254": 37,
        "255": 202,
        "256": 41,
        "257": 142,
        "258": 233,
        "259": 163,
        "260": 252,
        "261": 142,
        "262": 241,
        "263": 88,
        "264": 130,
        "265": 217,
        "266": 248,
        "267": 96,
        "268": 84,
        "269": 163,
        "270": 184,
        "271": 212,
        "272": 72,
        "273": 11,
        "274": 111,
        "275": 214,
        "276": 6,
        "277": 124,
        "278": 198,
        "279": 168,
        "280": 182,
        "281": 6,
        "282": 225,
        "283": 188,
        "284": 194,
        "285": 152,
        "286": 55,
        "287": 83,
        "288": 121,
        "289": 83,
        "290": 107,
        "291": 174,
        "292": 167,
        "293": 100,
        "294": 230,
        "295": 222,
        "296": 237,
        "297": 144,
        "298": 161,
        "299": 12,
        "300": 65,
        "301": 93,
        "302": 214,
        "303": 5,
        "304": 103,
        "305": 253,
        "306": 94,
        "307": 15,
        "308": 130,
        "309": 79,
        "310": 120,
        "311": 168,
        "312": 101,
        "313": 27,
        "314": 39,
        "315": 73,
        "316": 182,
        "317": 232,
        "318": 236,
        "319": 255,
        "320": 23,
        "321": 111,
        "322": 248,
        "323": 84,
        "324": 55,
        "325": 121,
        "326": 76,
        "327": 143,
        "328": 127,
        "329": 98,
        "330": 192,
        "331": 199,
        "332": 117,
        "333": 74,
        "334": 160,
        "335": 175,
        "336": 76,
        "337": 201,
        "338": 132,
        "339": 99,
        "340": 125,
        "341": 31,
        "342": 108,
        "343": 10,
        "344": 75,
        "345": 78,
        "346": 52,
        "347": 155,
        "348": 102,
        "349": 131,
        "350": 84,
        "351": 108,
        "352": 34,
        "353": 5,
        "354": 35,
        "355": 95,
        "356": 157,
        "357": 196,
        "358": 55,
        "359": 91,
        "360": 229,
        "361": 104,
        "362": 28,
        "363": 129,
        "364": 110,
        "365": 114,
        "366": 253,
        "367": 167,
        "368": 238,
        "369": 172,
        "370": 103,
        "371": 169,
        "372": 135,
        "373": 42,
        "374": 76,
        "375": 108,
        "376": 187,
        "377": 158,
        "378": 38,
        "379": 194,
        "380": 100,
        "381": 219,
        "382": 106,
        "383": 48,
        "384": 228,
        "385": 161,
        "386": 24,
        "387": 182,
        "388": 127,
        "389": 203,
        "390": 47,
        "391": 30,
        "392": 133,
        "393": 244,
        "394": 76,
        "395": 227,
        "396": 152,
        "397": 168,
        "398": 53,
        "399": 57,
        "400": 102,
        "401": 193,
        "402": 11,
        "403": 152,
        "404": 215,
        "405": 129,
        "406": 88,
        "407": 9,
        "408": 49,
        "409": 206,
        "410": 236,
        "411": 10,
        "412": 178,
        "413": 47,
        "414": 78,
        "415": 63,
        "416": 101,
        "417": 99,
        "418": 57,
        "419": 87,
        "420": 165,
        "421": 205,
        "422": 15,
        "423": 155,
        "424": 180,
        "425": 216,
        "426": 122,
        "427": 230,
        "428": 25,
        "429": 32,
        "430": 45,
        "431": 92,
        "432": 255,
        "433": 64,
        "434": 246,
        "435": 106,
        "436": 53,
        "437": 250,
        "438": 71,
        "439": 35,
        "440": 143,
        "441": 227,
        "442": 125,
        "443": 90,
        "444": 129,
        "445": 139,
        "446": 97,
        "447": 151,
        "448": 142,
        "449": 27,
        "450": 46,
        "451": 121,
        "452": 148,
        "453": 196,
        "454": 157,
        "455": 49,
        "456": 143,
        "457": 36,
        "458": 202,
        "459": 176,
        "460": 138,
        "461": 156,
        "462": 68,
        "463": 27,
        "464": 55,
        "465": 118,
        "466": 189,
        "467": 97,
        "468": 35,
        "469": 227,
        "470": 34,
        "471": 254,
        "472": 22,
        "473": 47,
        "474": 141,
        "475": 18,
        "476": 73,
        "477": 246,
        "478": 189,
        "479": 61,
        "480": 163,
        "481": 153,
        "482": 254,
        "483": 185,
        "484": 110,
        "485": 86,
        "486": 159,
        "487": 46,
        "488": 221,
        "489": 35,
        "490": 105,
        "491": 51,
        "492": 4,
        "493": 189,
        "494": 44,
        "495": 44,
        "496": 5,
        "497": 116,
        "498": 213,
        "499": 85,
        "500": 36,
        "501": 99,
        "502": 179,
        "503": 225,
        "504": 90,
        "505": 59,
        "506": 116,
        "507": 81,
        "508": 253,
        "509": 156,
        "510": 247,
        "511": 240,
        "512": 177,
        "513": 21,
        "514": 228,
        "515": 236,
        "516": 62,
        "517": 254,
        "518": 45,
        "519": 211,
        "520": 111,
        "521": 70,
        "522": 202,
        "523": 237,
        "524": 104,
        "525": 172,
        "526": 254,
        "527": 227,
        "528": 109,
        "529": 11,
        "530": 184,
        "531": 81,
        "532": 2,
        "533": 219,
        "534": 21,
        "535": 104,
        "536": 24,
        "537": 101,
        "538": 73,
        "539": 201,
        "540": 51,
        "541": 160,
        "542": 75,
        "543": 202,
        "544": 246,
        "545": 190,
        "546": 143,
        "547": 42,
        "548": 124,
        "549": 221,
        "550": 130,
        "551": 39,
        "552": 29,
        "553": 202,
        "554": 196,
        "555": 205,
        "556": 231,
        "557": 214,
        "558": 94,
        "559": 44,
        "560": 10,
        "561": 134,
        "562": 231,
        "563": 12,
        "564": 74,
        "565": 153,
        "566": 155,
        "567": 222,
        "568": 245,
        "569": 114,
        "570": 164,
        "571": 88,
        "572": 253,
        "573": 83,
        "574": 123,
        "575": 125,
        "576": 75,
        "577": 65,
        "578": 237,
        "579": 23,
        "580": 247,
        "581": 119,
        "582": 189,
        "583": 43,
        "584": 85,
        "585": 0,
        "586": 148,
        "587": 181,
        "588": 57,
        "589": 219,
        "590": 182,
        "591": 228,
        "592": 175,
        "593": 213,
        "594": 202,
        "595": 91,
        "596": 2,
        "597": 122,
        "598": 70,
        "599": 242,
        "600": 169,
        "601": 36,
        "602": 36,
        "603": 99,
        "604": 197,
        "605": 32,
        "606": 1,
        "607": 121,
        "608": 104,
        "609": 197,
        "610": 127,
        "611": 220,
        "612": 136,
        "613": 92,
        "614": 173,
        "615": 254,
        "616": 161,
        "617": 85,
        "618": 100,
        "619": 158,
        "620": 126,
        "621": 62,
        "622": 52,
        "623": 38,
        "624": 29,
        "625": 176,
        "626": 73,
        "627": 245,
        "628": 150,
        "629": 148,
        "630": 89,
        "631": 52,
        "632": 216,
        "633": 25,
        "634": 134,
        "635": 107,
        "636": 153,
        "637": 96,
        "638": 218,
        "639": 45,
        "640": 13,
        "641": 209,
        "642": 138,
        "643": 90,
        "644": 181,
        "645": 250,
        "646": 69,
        "647": 122,
        "648": 251,
        "649": 223,
        "650": 10,
        "651": 248,
        "652": 80,
        "653": 33,
        "654": 10,
        "655": 136,
        "656": 151,
        "657": 216,
        "658": 76,
        "659": 113,
        "660": 35,
        "661": 187,
        "662": 90,
        "663": 193,
        "664": 28,
        "665": 177,
        "666": 73,
        "667": 223,
        "668": 246,
        "669": 145,
        "670": 68,
        "671": 37,
        "672": 41,
        "673": 171,
        "674": 65,
        "675": 79,
        "676": 12,
        "677": 165,
        "678": 34,
        "679": 65,
        "680": 176,
        "681": 20,
        "682": 77,
        "683": 122,
        "684": 192,
        "685": 178,
        "686": 66,
        "687": 107,
        "688": 166,
        "689": 229,
        "690": 48,
        "691": 134,
        "692": 207,
        "693": 165,
        "694": 41,
        "695": 105,
        "696": 173,
        "697": 217,
        "698": 83,
        "699": 39,
        "700": 226,
        "701": 253,
        "702": 120,
        "703": 210,
        "704": 172,
        "705": 170,
        "706": 125,
        "707": 98,
        "708": 31,
        "709": 47,
        "710": 50,
        "711": 42,
        "712": 42,
        "713": 147,
        "714": 37,
        "715": 239,
        "716": 10,
        "717": 139,
        "718": 26,
        "719": 172,
        "720": 178,
        "721": 37,
        "722": 51,
        "723": 160,
        "724": 121,
        "725": 171,
        "726": 119,
        "727": 133,
        "728": 69,
        "729": 152,
        "730": 3,
        "731": 142,
        "732": 101,
        "733": 24,
        "734": 147,
        "735": 120,
        "736": 166,
        "737": 187,
        "738": 164,
        "739": 229,
        "740": 123,
        "741": 195,
        "742": 4,
        "743": 190,
        "744": 214,
        "745": 247,
        "746": 85,
        "747": 7,
        "748": 191,
        "749": 25,
        "750": 219,
        "751": 27,
        "752": 65,
        "753": 51,
        "754": 253,
        "755": 114,
        "756": 98,
        "757": 227,
        "758": 15,
        "759": 225,
        "760": 182,
        "761": 217,
        "762": 227,
        "763": 216,
        "764": 145,
        "765": 20,
        "766": 79,
        "767": 203,
        "768": 121,
        "769": 222,
        "770": 14,
        "771": 101,
        "772": 165,
        "773": 25,
        "774": 207,
        "775": 68,
        "776": 247,
        "777": 15,
        "778": 168,
        "779": 173,
        "780": 24,
        "781": 61,
        "782": 227,
        "783": 80,
        "784": 235,
        "785": 20,
        "786": 222,
        "787": 186,
        "788": 218,
        "789": 162,
        "790": 91,
        "791": 200,
        "792": 113,
        "793": 2,
        "794": 240,
        "795": 219,
        "796": 72,
        "797": 248,
        "798": 2,
        "799": 139,
        "800": 22,
        "801": 206,
        "802": 129,
        "803": 89,
        "804": 116,
        "805": 135,
        "806": 147,
        "807": 116,
        "808": 231,
        "809": 213,
        "810": 52,
        "811": 112,
        "812": 40,
        "813": 41,
        "814": 121,
        "815": 186,
        "816": 170,
        "817": 124,
        "818": 10,
        "819": 85,
        "820": 30,
        "821": 177,
        "822": 63,
        "823": 92,
        "824": 91,
        "825": 117,
        "826": 105,
        "827": 43,
        "828": 185,
        "829": 243,
        "830": 189,
        "831": 164,
        "832": 162,
        "833": 60,
        "834": 2,
        "835": 176,
        "836": 193,
        "837": 117,
        "838": 22,
        "839": 148,
        "840": 83,
        "841": 234,
        "842": 103,
        "843": 86,
        "844": 165,
        "845": 38,
        "846": 126,
        "847": 129,
        "848": 180,
        "849": 91,
        "850": 139,
        "851": 27,
        "852": 49,
        "853": 189,
        "854": 126,
        "855": 83,
        "856": 33,
        "857": 148,
        "858": 78,
        "859": 227,
        "860": 151,
        "861": 238,
        "862": 43,
        "863": 158,
        "864": 81,
        "865": 209,
        "866": 244,
        "867": 209,
        "868": 38,
        "869": 136,
        "870": 97,
        "871": 33,
        "872": 214,
        "873": 49,
        "874": 252,
        "875": 14,
        "876": 72,
        "877": 140,
        "878": 117,
        "879": 250,
        "880": 131,
        "881": 177,
        "882": 25,
        "883": 222,
        "884": 102,
        "885": 145,
        "886": 118,
        "887": 187,
        "888": 247,
        "889": 148,
        "890": 95,
        "891": 222,
        "892": 178,
        "893": 201,
        "894": 153,
        "895": 35,
        "896": 213,
        "897": 81,
        "898": 250,
        "899": 52,
        "900": 249,
        "901": 119,
        "902": 18,
        "903": 248,
        "904": 171,
        "905": 242,
        "906": 114,
        "907": 133,
        "908": 32,
        "909": 56,
        "910": 188,
        "911": 255,
        "912": 59,
        "913": 149,
        "914": 53,
        "915": 89,
        "916": 122,
        "917": 247,
        "918": 163,
        "919": 105,
        "920": 89,
        "921": 136,
        "922": 250,
        "923": 182,
        "924": 219,
        "925": 244,
        "926": 96,
        "927": 103,
        "928": 113,
        "929": 64,
        "930": 93,
        "931": 109,
        "932": 158,
        "933": 148,
        "934": 32,
        "935": 215,
        "936": 16,
        "937": 54,
        "938": 68,
        "939": 68,
        "940": 3,
        "941": 167,
        "942": 37,
        "943": 212,
        "944": 222,
        "945": 226,
        "946": 6,
        "947": 26,
        "948": 81,
        "949": 183,
        "950": 47,
        "951": 113,
        "952": 244,
        "953": 39,
        "954": 251,
        "955": 66,
        "956": 249,
        "957": 107,
        "958": 182,
        "959": 116,
        "960": 44,
        "961": 232,
        "962": 208,
        "963": 155,
        "964": 115,
        "965": 54,
        "966": 44,
        "967": 114,
        "968": 196,
        "969": 219,
        "970": 177,
        "971": 254,
        "972": 254,
        "973": 154,
        "974": 135,
        "975": 31,
        "976": 237,
        "977": 32,
        "978": 232,
        "979": 193,
        "980": 169,
        "981": 229,
        "982": 22,
        "983": 174,
        "984": 144,
        "985": 206,
        "986": 175,
        "987": 0,
        "988": 123,
        "989": 162,
        "990": 43,
        "991": 184,
        "992": 197,
        "993": 48,
        "994": 85,
        "995": 243,
        "996": 91,
        "997": 156,
        "998": 215,
        "999": 51,
        "1000": 110,
        "1001": 98,
        "1002": 222,
        "1003": 124,
        "1004": 209,
        "1005": 154,
        "1006": 231,
        "1007": 209,
        "1008": 98,
        "1009": 23,
        "1010": 12,
        "1011": 244,
        "1012": 66,
        "1013": 217,
        "1014": 212,
        "1015": 165,
        "1016": 10,
        "1017": 57,
        "1018": 24,
        "1019": 121,
        "1020": 138,
        "1021": 59,
        "1022": 179,
        "1023": 149,
        "1024": 41,
        "1025": 171,
        "1026": 166,
        "1027": 181,
        "1028": 206,
        "1029": 210,
        "1030": 18,
        "1031": 206,
        "1032": 138,
        "1033": 201,
        "1034": 245,
        "1035": 224,
        "1036": 31,
        "1037": 233,
        "1038": 64,
        "1039": 12,
        "1040": 162,
        "1041": 207,
        "1042": 34,
        "1043": 188,
        "1044": 237,
        "1045": 5,
        "1046": 75,
        "1047": 191,
        "1048": 26,
        "1049": 127,
        "1050": 172,
        "1051": 69,
        "1052": 193,
        "1053": 253,
        "1054": 76,
        "1055": 245,
        "1056": 11,
        "1057": 254,
        "1058": 159,
        "1059": 59,
        "1060": 17,
        "1061": 175,
        "1062": 36,
        "1063": 54,
        "1064": 29,
        "1065": 179,
        "1066": 163,
        "1067": 244,
        "1068": 239,
        "1069": 193,
        "1070": 138,
        "1071": 152,
        "1072": 225,
        "1073": 141,
        "1074": 212,
        "1075": 59,
        "1076": 126,
        "1077": 84,
        "1078": 46,
        "1079": 28,
        "1080": 167,
        "1081": 95,
        "1082": 90,
        "1083": 60,
        "1084": 92,
        "1085": 232,
        "1086": 145,
        "1087": 208,
        "1088": 77,
        "1089": 49,
        "1090": 52,
        "1091": 182,
        "1092": 180,
        "1093": 170,
        "1094": 164,
        "1095": 123,
        "1096": 23,
        "1097": 90,
        "1098": 224,
        "1099": 113,
        "1100": 204,
        "1101": 234,
        "1102": 11,
        "1103": 154,
        "1104": 74,
        "1105": 121,
        "1106": 219,
        "1107": 104,
        "1108": 174,
        "1109": 229,
        "1110": 12,
        "1111": 0,
        "1112": 254,
        "1113": 90,
        "1114": 185,
        "1115": 83,
        "1116": 50,
        "1117": 170,
        "1118": 145,
        "1119": 178,
        "1120": 139,
        "1121": 233,
        "1122": 55,
        "1123": 135,
        "1124": 233,
        "1125": 118,
        "1126": 226,
        "1127": 191,
        "1128": 46,
        "1129": 64,
        "1130": 243,
        "1131": 15,
        "1132": 213,
        "1133": 66,
        "1134": 61,
        "1135": 200,
        "1136": 248,
        "1137": 72,
        "1138": 17,
        "1139": 209,
        "1140": 209,
        "1141": 24,
        "1142": 22,
        "1143": 156,
        "1144": 63,
        "1145": 167,
        "1146": 28,
        "1147": 47,
        "1148": 39,
        "1149": 136,
        "1150": 3,
        "1151": 19,
        "1152": 139,
        "1153": 229,
        "1154": 30,
        "1155": 214,
        "1156": 11,
        "1157": 179,
        "1158": 234,
        "1159": 73,
        "1160": 124,
        "1161": 58,
        "1162": 248,
        "1163": 236,
        "1164": 240,
        "1165": 76,
        "1166": 39,
        "1167": 252,
        "1168": 189,
        "1169": 148,
        "1170": 223,
        "1171": 63,
        "1172": 249,
        "1173": 13,
        "1174": 223,
        "1175": 165,
        "1176": 213,
        "1177": 114,
        "1178": 14,
        "1179": 27,
        "1180": 198,
        "1181": 8,
        "1182": 79,
        "1183": 32,
        "1184": 67,
        "1185": 246,
        "1186": 222,
        "1187": 238,
        "1188": 95,
        "1189": 29,
        "1190": 220,
        "1191": 211,
        "1192": 19,
        "1193": 57,
        "1194": 46,
        "1195": 4,
        "1196": 65,
        "1197": 209,
        "1198": 24,
        "1199": 140,
        "1200": 44,
        "1201": 68,
        "1202": 201,
        "1203": 105,
        "1204": 202,
        "1205": 149,
        "1206": 79,
        "1207": 153,
        "1208": 159,
        "1209": 229,
        "1210": 40,
        "1211": 127,
        "1212": 192,
        "1213": 108,
        "1214": 144,
        "1215": 232,
        "1216": 19,
        "1217": 131,
        "1218": 56,
        "1219": 50,
        "1220": 7,
        "1221": 68,
        "1222": 184,
        "1223": 44,
        "1224": 249,
        "1225": 43,
        "1226": 126,
        "1227": 255,
        "1228": 193,
        "1229": 168,
        "1230": 46,
        "1231": 100,
        "1232": 227,
        "1233": 157,
        "1234": 92,
        "1235": 62,
        "1236": 233,
        "1237": 139,
        "1238": 16,
        "1239": 185,
        "1240": 135,
        "1241": 253,
        "1242": 196,
        "1243": 77,
        "1244": 214,
        "1245": 20,
        "1246": 61,
        "1247": 85,
        "1248": 145,
        "1249": 38,
        "1250": 192,
        "1251": 173,
        "1252": 176,
        "1253": 190,
        "1254": 78,
        "1255": 228,
        "1256": 54,
        "1257": 176,
        "1258": 177,
        "1259": 216,
        "1260": 222,
        "1261": 168,
        "1262": 37,
        "1263": 75,
        "1264": 218,
        "1265": 147,
        "1266": 117,
        "1267": 161,
        "1268": 143,
        "1269": 187,
        "1270": 188,
        "1271": 103,
        "1272": 161,
        "1273": 16,
        "1274": 83,
        "1275": 184,
        "1276": 142,
        "1277": 174,
        "1278": 143,
        "1279": 155,
        "1280": 153,
        "1281": 193,
        "1282": 181,
        "1283": 25,
        "1284": 234,
        "1285": 130,
        "1286": 177,
        "1287": 115,
        "1288": 196,
        "1289": 145,
        "1290": 12,
        "1291": 192,
        "1292": 100,
        "1293": 103,
        "1294": 81,
        "1295": 152,
        "1296": 73,
        "1297": 238,
        "1298": 3,
        "1299": 103,
        "1300": 254,
        "1301": 8,
        "1302": 185,
        "1303": 84,
        "1304": 50,
        "1305": 133,
        "1306": 142,
        "1307": 103,
        "1308": 166,
        "1309": 46,
        "1310": 236,
        "1311": 63,
        "1312": 157,
        "1313": 116,
        "1314": 76,
        "1315": 28,
        "1316": 198,
        "1317": 112,
        "1318": 26,
        "1319": 84,
        "1320": 61,
        "1321": 137,
        "1322": 70,
        "1323": 121,
        "1324": 68,
        "1325": 235,
        "1326": 158,
        "1327": 23,
        "1328": 66,
        "1329": 156,
        "1330": 71,
        "1331": 20,
        "1332": 5,
        "1333": 243,
        "1334": 19,
        "1335": 21,
        "1336": 71,
        "1337": 85,
        "1338": 230,
        "1339": 101,
        "1340": 54,
        "1341": 227,
        "1342": 75,
        "1343": 108,
        "1344": 36,
        "1345": 117,
        "1346": 206,
        "1347": 234,
        "1348": 164,
        "1349": 92,
        "1350": 159,
        "1351": 184,
        "1352": 82,
        "1353": 5,
        "1354": 218,
        "1355": 254,
        "1356": 211,
        "1357": 85,
        "1358": 132,
        "1359": 220,
        "1360": 55,
        "1361": 83,
        "1362": 188,
        "1363": 128,
        "1364": 204,
        "1365": 12,
        "1366": 179,
        "1367": 221,
        "1368": 235,
        "1369": 215,
        "1370": 4,
        "1371": 110,
        "1372": 157,
        "1373": 29,
        "1374": 248,
        "1375": 18,
        "1376": 43,
        "1377": 76,
        "1378": 150,
        "1379": 45,
        "1380": 137,
        "1381": 96,
        "1382": 125,
        "1383": 236,
        "1384": 160,
        "1385": 8,
        "1386": 135,
        "1387": 107,
        "1388": 128,
        "1389": 255,
        "1390": 30,
        "1391": 1,
        "1392": 110,
        "1393": 180,
        "1394": 34,
        "1395": 128,
        "1396": 233,
        "1397": 165,
        "1398": 242,
        "1399": 180,
        "1400": 179,
        "1401": 37,
        "1402": 237,
        "1403": 219,
        "1404": 228,
        "1405": 204,
        "1406": 169,
        "1407": 137,
        "1408": 228,
        "1409": 165,
        "1410": 93,
        "1411": 110,
        "1412": 17,
        "1413": 151,
        "1414": 120,
        "1415": 37,
        "1416": 252,
        "1417": 35,
        "1418": 62,
        "1419": 244,
        "1420": 249,
        "1421": 106,
        "1422": 127,
        "1423": 116,
        "1424": 51,
        "1425": 44,
        "1426": 219,
        "1427": 215,
        "1428": 155,
        "1429": 224,
        "1430": 219,
        "1431": 27,
        "1432": 185,
        "1433": 18,
        "1434": 42,
        "1435": 108,
        "1436": 100,
        "1437": 152,
        "1438": 215,
        "1439": 233,
        "1440": 43,
        "1441": 249,
        "1442": 51,
        "1443": 32,
        "1444": 128,
        "1445": 173,
        "1446": 8,
        "1447": 63,
        "1448": 237,
        "1449": 233,
        "1450": 2,
        "1451": 102,
        "1452": 83,
        "1453": 92,
        "1454": 33,
        "1455": 73,
        "1456": 148,
        "1457": 62,
        "1458": 110,
        "1459": 191,
        "1460": 238,
        "1461": 173,
        "1462": 173,
        "1463": 151,
        "1464": 221,
        "1465": 1,
        "1466": 162,
        "1467": 3,
        "1468": 198,
        "1469": 203,
        "1470": 141,
        "1471": 58,
        "1472": 222,
        "1473": 37,
        "1474": 117,
        "1475": 88,
        "1476": 141,
        "1477": 135,
        "1478": 36,
        "1479": 82,
        "1480": 209,
        "1481": 248,
        "1482": 118,
        "1483": 154,
        "1484": 73,
        "1485": 30,
        "1486": 195,
        "1487": 183,
        "1488": 71,
        "1489": 227,
        "1490": 189,
        "1491": 4,
        "1492": 192,
        "1493": 71,
        "1494": 30,
        "1495": 29,
        "1496": 134,
        "1497": 188,
        "1498": 123,
        "1499": 144,
        "1500": 239,
        "1501": 190,
        "1502": 120,
        "1503": 195,
        "1504": 219,
        "1505": 238,
        "1506": 56,
        "1507": 72,
        "1508": 139,
        "1509": 187,
        "1510": 164,
        "1511": 163,
        "1512": 105,
        "1513": 200,
        "1514": 140,
        "1515": 238,
        "1516": 116,
        "1517": 21,
        "1518": 168,
        "1519": 85,
        "1520": 113,
        "1521": 53,
        "1522": 102,
        "1523": 89,
        "1524": 127,
        "1525": 20,
        "1526": 69,
        "1527": 247,
        "1528": 77,
        "1529": 129,
        "1530": 249,
        "1531": 6,
        "1532": 49,
        "1533": 9,
        "1534": 224,
        "1535": 244,
        "1536": 234,
        "1537": 13,
        "1538": 128,
        "1539": 42,
        "1540": 17,
        "1541": 253,
        "1542": 56,
        "1543": 170,
        "1544": 194,
        "1545": 97,
        "1546": 217,
        "1547": 68,
        "1548": 234,
        "1549": 48,
        "1550": 128,
        "1551": 71,
        "1552": 213,
        "1553": 227,
        "1554": 164,
        "1555": 135,
        "1556": 82,
        "1557": 156,
        "1558": 41,
        "1559": 32,
        "1560": 249,
        "1561": 106,
        "1562": 197,
        "1563": 253,
        "1564": 183,
        "1565": 201,
        "1566": 83,
        "1567": 28,
        "1568": 46,
        "1569": 90,
        "1570": 3,
        "1571": 177,
        "1572": 106,
        "1573": 196,
        "1574": 128,
        "1575": 139,
        "1576": 179,
        "1577": 55,
        "1578": 13,
        "1579": 32,
        "1580": 31,
        "1581": 75,
        "1582": 237,
        "1583": 99,
        "1584": 112,
        "1585": 20,
        "1586": 88,
        "1587": 186,
        "1588": 58,
        "1589": 247,
        "1590": 47,
        "1591": 76,
        "1592": 247,
        "1593": 115,
        "1594": 166,
        "1595": 47,
        "1596": 77,
        "1597": 128,
        "1598": 253,
        "1599": 249,
        "1600": 135,
        "1601": 194,
        "1602": 113,
        "1603": 129,
        "1604": 6,
        "1605": 242,
        "1606": 249,
        "1607": 122,
        "1608": 190,
        "1609": 134,
        "1610": 170,
        "1611": 40,
        "1612": 128,
        "1613": 144,
        "1614": 17,
        "1615": 191,
        "1616": 15,
        "1617": 178,
        "1618": 253,
        "1619": 218,
        "1620": 8,
        "1621": 60,
        "1622": 200,
        "1623": 120,
        "1624": 58,
        "1625": 161,
        "1626": 166,
        "1627": 147,
        "1628": 170,
        "1629": 173,
        "1630": 246,
        "1631": 26,
        "1632": 251,
        "1633": 129,
        "1634": 7,
        "1635": 210,
        "1636": 14,
        "1637": 189,
        "1638": 176,
        "1639": 245,
        "1640": 50,
        "1641": 133,
        "1642": 109,
        "1643": 212,
        "1644": 16,
        "1645": 234,
        "1646": 126,
        "1647": 134,
        "1648": 110,
        "1649": 238,
        "1650": 33,
        "1651": 47,
        "1652": 227,
        "1653": 176,
        "1654": 154,
        "1655": 3,
        "1656": 45,
        "1657": 230,
        "1658": 5,
        "1659": 255,
        "1660": 65,
        "1661": 254,
        "1662": 120,
        "1663": 81,
        "1664": 199,
        "1665": 182,
        "1666": 199,
        "1667": 183,
        "1668": 65,
        "1669": 44,
        "1670": 197,
        "1671": 235,
        "1672": 160,
        "1673": 21,
        "1674": 101,
        "1675": 212,
        "1676": 159,
        "1677": 241,
        "1678": 90,
        "1679": 46,
        "1680": 130,
        "1681": 198,
        "1682": 203,
        "1683": 128,
        "1684": 131,
        "1685": 74,
        "1686": 16,
        "1687": 19,
        "1688": 228,
        "1689": 88,
        "1690": 60,
        "1691": 157,
        "1692": 95,
        "1693": 133,
        "1694": 152,
        "1695": 147,
        "1696": 29,
        "1697": 254,
        "1698": 44,
        "1699": 222,
        "1700": 139,
        "1701": 181,
        "1702": 10,
        "1703": 28,
        "1704": 11,
        "1705": 12,
        "1706": 222,
        "1707": 16,
        "1708": 191,
        "1709": 67,
        "1710": 220,
        "1711": 253,
        "1712": 206,
        "1713": 1,
        "1714": 222,
        "1715": 206,
        "1716": 61,
        "1717": 218,
        "1718": 16,
        "1719": 181,
        "1720": 177,
        "1721": 80,
        "1722": 158,
        "1723": 153,
        "1724": 159,
        "1725": 161,
        "1726": 193,
        "1727": 64,
        "1728": 86,
        "1729": 36,
        "1730": 155,
        "1731": 45,
        "1732": 118,
        "1733": 146,
        "1734": 72,
        "1735": 202,
        "1736": 8,
        "1737": 151,
        "1738": 200,
        "1739": 61,
        "1740": 87,
        "1741": 70,
        "1742": 142,
        "1743": 6,
        "1744": 77,
        "1745": 214,
        "1746": 1,
        "1747": 94,
        "1748": 182,
        "1749": 216,
        "1750": 124,
        "1751": 80,
        "1752": 107,
        "1753": 40,
        "1754": 159,
        "1755": 173,
        "1756": 114,
        "1757": 161,
        "1758": 124,
        "1759": 181,
        "1760": 165,
        "1761": 90,
        "1762": 193,
        "1763": 238,
        "1764": 7,
        "1765": 13,
        "1766": 242,
        "1767": 133,
        "1768": 112,
        "1769": 166,
        "1770": 27,
        "1771": 62,
        "1772": 203,
        "1773": 25,
        "1774": 183,
        "1775": 17,
        "1776": 135,
        "1777": 179,
        "1778": 221,
        "1779": 251,
        "1780": 161,
        "1781": 35,
        "1782": 39,
        "1783": 19,
        "1784": 155,
        "1785": 144,
        "1786": 157,
        "1787": 35,
        "1788": 147,
        "1789": 70,
        "1790": 1,
        "1791": 148,
        "1792": 8,
        "1793": 66,
        "1794": 104,
        "1795": 134,
        "1796": 209,
        "1797": 145,
        "1798": 96,
        "1799": 120,
        "1800": 123,
        "1801": 229,
        "1802": 247,
        "1803": 49,
        "1804": 221,
        "1805": 119,
        "1806": 201,
        "1807": 114,
        "1808": 151,
        "1809": 55,
        "1810": 212,
        "1811": 101,
        "1812": 122,
        "1813": 96,
        "1814": 13,
        "1815": 98,
        "1816": 157,
        "1817": 106,
        "1818": 207,
        "1819": 22,
        "1820": 131,
        "1821": 154,
        "1822": 159,
        "1823": 13,
        "1824": 196,
        "1825": 183,
        "1826": 76,
        "1827": 85,
        "1828": 42,
        "1829": 130,
        "1830": 123,
        "1831": 106,
        "1832": 149,
        "1833": 82,
        "1834": 145,
        "1835": 133,
        "1836": 139,
        "1837": 178,
        "1838": 231,
        "1839": 55,
        "1840": 170,
        "1841": 196,
        "1842": 201,
        "1843": 175,
        "1844": 128,
        "1845": 189,
        "1846": 191,
        "1847": 45,
        "1848": 107,
        "1849": 29,
        "1850": 65,
        "1851": 36,
        "1852": 151,
        "1853": 28,
        "1854": 95,
        "1855": 23,
        "1856": 9,
        "1857": 57,
        "1858": 89,
        "1859": 47,
        "1860": 2,
        "1861": 109,
        "1862": 35,
        "1863": 195,
        "1864": 123,
        "1865": 44,
        "1866": 95,
        "1867": 52,
        "1868": 118,
        "1869": 33,
        "1870": 17,
        "1871": 255,
        "1872": 57,
        "1873": 199,
        "1874": 243,
        "1875": 100,
        "1876": 45,
        "1877": 20,
        "1878": 139,
        "1879": 164,
        "1880": 137,
        "1881": 208,
        "1882": 35,
        "1883": 2,
        "1884": 223,
        "1885": 156,
        "1886": 165,
        "1887": 143,
        "1888": 105,
        "1889": 237,
        "1890": 23,
        "1891": 24,
        "1892": 119,
        "1893": 139,
        "1894": 244,
        "1895": 117,
        "1896": 189,
        "1897": 214,
        "1898": 60,
        "1899": 122,
        "1900": 199,
        "1901": 219,
        "1902": 142,
        "1903": 105,
        "1904": 170,
        "1905": 191,
        "1906": 96,
        "1907": 111,
        "1908": 63,
        "1909": 62,
        "1910": 5,
        "1911": 39,
        "1912": 49,
        "1913": 191,
        "1914": 226,
        "1915": 170,
        "1916": 39,
        "1917": 181,
        "1918": 29,
        "1919": 230,
        "1920": 27,
        "1921": 212,
        "1922": 182,
        "1923": 147,
        "1924": 241,
        "1925": 200,
        "1926": 182,
        "1927": 163,
        "1928": 218,
        "1929": 219,
        "1930": 154,
        "1931": 44,
        "1932": 236,
        "1933": 29,
        "1934": 18,
        "1935": 16,
        "1936": 113,
        "1937": 83,
        "1938": 252,
        "1939": 129,
        "1940": 240,
        "1941": 18,
        "1942": 139,
        "1943": 69,
        "1944": 78,
        "1945": 137,
        "1946": 11,
        "1947": 55,
        "1948": 28,
        "1949": 145,
        "1950": 250,
        "1951": 176,
        "1952": 147,
        "1953": 129,
        "1954": 129,
        "1955": 16,
        "1956": 195,
        "1957": 11,
        "1958": 220,
        "1959": 165,
        "1960": 211,
        "1961": 232,
        "1962": 252,
        "1963": 183,
        "1964": 125,
        "1965": 17,
        "1966": 184,
        "1967": 88,
        "1968": 11,
        "1969": 199,
        "1970": 221,
        "1971": 114,
        "1972": 225,
        "1973": 11,
        "1974": 106,
        "1975": 90,
        "1976": 241,
        "1977": 108,
        "1978": 48,
        "1979": 27,
        "1980": 174,
        "1981": 94,
        "1982": 211,
        "1983": 189,
        "1984": 245,
        "1985": 46,
        "1986": 71,
        "1987": 80,
        "1988": 206,
        "1989": 35,
        "1990": 15,
        "1991": 218,
        "1992": 208,
        "1993": 196,
        "1994": 130,
        "1995": 81,
        "1996": 110,
        "1997": 245,
        "1998": 208,
        "1999": 129,
        "2000": 78,
        "2001": 174,
        "2002": 97,
        "2003": 28,
        "2004": 234,
        "2005": 202,
        "2006": 124,
        "2007": 163,
        "2008": 88,
        "2009": 245,
        "2010": 172,
        "2011": 124,
        "2012": 130,
        "2013": 35,
        "2014": 17,
        "2015": 233,
        "2016": 12,
        "2017": 210,
        "2018": 98,
        "2019": 143,
        "2020": 41,
        "2021": 144,
        "2022": 17,
        "2023": 62,
        "2024": 21,
        "2025": 8,
        "2026": 117,
        "2027": 104,
        "2028": 22,
        "2029": 57,
        "2030": 238,
        "2031": 116,
        "2032": 186,
        "2033": 251,
        "2034": 235,
        "2035": 176,
        "2036": 22,
        "2037": 143,
        "2038": 2,
        "2039": 106,
        "2040": 128,
        "2041": 174,
        "2042": 244,
        "2043": 118,
        "2044": 4,
        "2045": 13,
        "2046": 2,
        "2047": 146,
        "2048": 65,
        "2049": 205,
        "2050": 48,
        "2051": 181,
        "2052": 88,
        "2053": 248,
        "2054": 72,
        "2055": 47,
        "2056": 207,
        "2057": 185,
        "2058": 149,
        "2059": 56,
        "2060": 241,
        "2061": 92,
        "2062": 68,
        "2063": 250,
        "2064": 241,
        "2065": 179,
        "2066": 26,
        "2067": 211,
        "2068": 148,
        "2069": 199,
        "2070": 23,
        "2071": 80,
        "2072": 132,
        "2073": 119,
        "2074": 127,
        "2075": 116,
        "2076": 221,
        "2077": 167,
        "2078": 107,
        "2079": 219,
        "2080": 123,
        "2081": 10,
        "2082": 132,
        "2083": 158,
        "2084": 174,
        "2085": 110,
        "2086": 109,
        "2087": 50,
        "2088": 198,
        "2089": 149,
        "2090": 234,
        "2091": 149,
        "2092": 96,
        "2093": 33,
        "2094": 212,
        "2095": 113,
        "2096": 101,
        "2097": 173,
        "2098": 240,
        "2099": 76,
        "2100": 249,
        "2101": 110,
        "2102": 18,
        "2103": 147,
        "2104": 249,
        "2105": 227,
        "2106": 54,
        "2107": 89,
        "2108": 159,
        "2109": 238,
        "2110": 64,
        "2111": 125,
        "2112": 79,
        "2113": 60,
        "2114": 92,
        "2115": 1,
        "2116": 14,
        "2117": 96,
        "2118": 163,
        "2119": 192,
        "2120": 12,
        "2121": 174,
        "2122": 128,
        "2123": 61,
        "2124": 197,
        "2125": 169,
        "2126": 121,
        "2127": 130,
        "2128": 217,
        "2129": 225,
        "2130": 252,
        "2131": 184,
        "2132": 194,
        "2133": 225,
        "2134": 210,
        "2135": 77,
        "2136": 69,
        "2137": 86,
        "2138": 96,
        "2139": 233,
        "2140": 60,
        "2141": 76,
        "2142": 85,
        "2143": 119,
        "2144": 89,
        "2145": 61,
        "2146": 8,
        "2147": 8,
        "2148": 37,
        "2149": 206,
        "2150": 250,
        "2151": 246,
        "2152": 1,
        "2153": 173,
        "2154": 223,
        "2155": 87,
        "2156": 71,
        "2157": 136,
        "2158": 126,
        "2159": 36,
        "2160": 104,
        "2161": 20,
        "2162": 171,
        "2163": 49,
        "2164": 22,
        "2165": 190,
        "2166": 147,
        "2167": 222,
        "2168": 112,
        "2169": 197,
        "2170": 73,
        "2171": 83,
        "2172": 134,
        "2173": 33,
        "2174": 14,
        "2175": 55,
        "2176": 202,
        "2177": 152,
        "2178": 233,
        "2179": 3,
        "2180": 36,
        "2181": 106,
        "2182": 83,
        "2183": 79,
        "2184": 52,
        "2185": 88,
        "2186": 159,
        "2187": 11,
        "2188": 111,
        "2189": 165,
        "2190": 24,
        "2191": 155,
        "2192": 157,
        "2193": 105,
        "2194": 63,
        "2195": 65,
        "2196": 234,
        "2197": 154,
        "2198": 241,
        "2199": 105,
        "2200": 130,
        "2201": 170,
        "2202": 61,
        "2203": 64,
        "2204": 149,
        "2205": 172,
        "2206": 227,
        "2207": 25,
        "2208": 162,
        "2209": 220,
        "2210": 160,
        "2211": 225,
        "2212": 161,
        "2213": 167,
        "2214": 97,
        "2215": 113,
        "2216": 14,
        "2217": 220,
        "2218": 29,
        "2219": 127,
        "2220": 11,
        "2221": 193,
        "2222": 95,
        "2223": 10,
        "2224": 121,
        "2225": 244,
        "2226": 75,
        "2227": 247,
        "2228": 46,
        "2229": 178,
        "2230": 209,
        "2231": 33,
        "2232": 249,
        "2233": 253,
        "2234": 121,
        "2235": 199,
        "2236": 200,
        "2237": 12,
        "2238": 236,
        "2239": 91,
        "2240": 66,
        "2241": 64,
        "2242": 32,
        "2243": 206,
        "2244": 122,
        "2245": 105,
        "2246": 43,
        "2247": 37,
        "2248": 206,
        "2249": 148,
        "2250": 66,
        "2251": 94,
        "2252": 237,
        "2253": 57,
        "2254": 17,
        "2255": 211,
        "2256": 162,
        "2257": 48,
        "2258": 165,
        "2259": 242,
        "2260": 245,
        "2261": 249,
        "2262": 217,
        "2263": 103,
        "2264": 56,
        "2265": 150,
        "2266": 97,
        "2267": 17,
        "2268": 154,
        "2269": 11,
        "2270": 107,
        "2271": 254,
        "2272": 237,
        "2273": 103,
        "2274": 155,
        "2275": 27,
        "2276": 44,
        "2277": 100,
        "2278": 97,
        "2279": 158,
        "2280": 60,
        "2281": 246,
        "2282": 179,
        "2283": 126,
        "2284": 133,
        "2285": 149,
        "2286": 233,
        "2287": 199,
        "2288": 164,
        "2289": 0,
        "2290": 64,
        "2291": 217,
        "2292": 134,
        "2293": 253,
        "2294": 112,
        "2295": 165,
        "2296": 232,
        "2297": 129,
        "2298": 95,
        "2299": 248,
        "2300": 61,
        "2301": 69,
        "2302": 112,
        "2303": 72,
        "2304": 51,
        "2305": 120,
        "2306": 182,
        "2307": 97,
        "2308": 13,
        "2309": 99,
        "2310": 248,
        "2311": 49,
        "2312": 102,
        "2313": 140,
        "2314": 252,
        "2315": 237,
        "2316": 134,
        "2317": 90,
        "2318": 209,
        "2319": 187,
        "2320": 11,
        "2321": 129,
        "2322": 118,
        "2323": 17,
        "2324": 82,
        "2325": 77,
        "2326": 191,
        "2327": 137,
        "2328": 159,
        "2329": 202,
        "2330": 116,
        "2331": 31,
        "2332": 243,
        "2333": 249,
        "2334": 7,
        "2335": 248,
        "2336": 254,
        "2337": 119,
        "2338": 15,
        "2339": 66,
        "2340": 60,
        "2341": 57,
        "2342": 221,
        "2343": 240,
        "2344": 223,
        "2345": 171,
        "2346": 157,
        "2347": 103,
        "2348": 242,
        "2349": 57,
        "2350": 60,
        "2351": 81,
        "2352": 166,
        "2353": 224,
        "2354": 171,
        "2355": 201,
        "2356": 173,
        "2357": 95,
        "2358": 36,
        "2359": 179,
        "2360": 148,
        "2361": 49,
        "2362": 149,
        "2363": 127,
        "2364": 109,
        "2365": 212,
        "2366": 74,
        "2367": 83,
        "2368": 150,
        "2369": 154,
        "2370": 230,
        "2371": 94,
        "2372": 89,
        "2373": 39,
        "2374": 12,
        "2375": 220,
        "2376": 230,
        "2377": 123,
        "2378": 223,
        "2379": 128,
        "2380": 234,
        "2381": 20,
        "2382": 57,
        "2383": 192,
        "2384": 239,
        "2385": 125,
        "2386": 119,
        "2387": 110,
        "2388": 218,
        "2389": 196,
        "2390": 113,
        "2391": 37,
        "2392": 176,
        "2393": 44,
        "2394": 92,
        "2395": 245,
        "2396": 243,
        "2397": 98,
        "2398": 22,
        "2399": 249,
        "2400": 212,
        "2401": 133,
        "2402": 32,
        "2403": 248,
        "2404": 93,
        "2405": 211,
        "2406": 114,
        "2407": 79,
        "2408": 236,
        "2409": 173,
        "2410": 37,
        "2411": 183,
        "2412": 117,
        "2413": 94,
        "2414": 167,
        "2415": 177,
        "2416": 154,
        "2417": 183,
        "2418": 170,
        "2419": 59,
        "2420": 193,
        "2421": 145,
        "2422": 42,
        "2423": 246,
        "2424": 221,
        "2425": 45,
        "2426": 142,
        "2427": 180,
        "2428": 253,
        "2429": 180,
        "2430": 113,
        "2431": 90,
        "2432": 166,
        "2433": 244,
        "2434": 144,
        "2435": 225,
        "2436": 59,
        "2437": 194,
        "2438": 188,
        "2439": 97,
        "2440": 56,
        "2441": 170,
        "2442": 151,
        "2443": 121,
        "2444": 171,
        "2445": 104,
        "2446": 225,
        "2447": 247,
        "2448": 0,
        "2449": 33,
        "2450": 129,
        "2451": 245,
        "2452": 84,
        "2453": 35,
        "2454": 192,
        "2455": 208,
        "2456": 97,
        "2457": 164,
        "2458": 50,
        "2459": 51,
        "2460": 81,
        "2461": 39,
        "2462": 140,
        "2463": 61,
        "2464": 13,
        "2465": 189,
        "2466": 0,
        "2467": 233,
        "2468": 109,
        "2469": 240,
        "2470": 104,
        "2471": 5,
        "2472": 172,
        "2473": 101,
        "2474": 243,
        "2475": 82,
        "2476": 219,
        "2477": 205,
        "2478": 49,
        "2479": 3,
        "2480": 85,
        "2481": 17,
        "2482": 97,
        "2483": 149,
        "2484": 98,
        "2485": 177,
        "2486": 185,
        "2487": 192,
        "2488": 224,
        "2489": 231,
        "2490": 208,
        "2491": 208,
        "2492": 77,
        "2493": 71,
        "2494": 93,
        "2495": 72,
        "2496": 5,
        "2497": 253,
        "2498": 200,
        "2499": 65,
        "2500": 89,
        "2501": 192,
        "2502": 152,
        "2503": 230,
        "2504": 123,
        "2505": 90,
        "2506": 42,
        "2507": 239,
        "2508": 185,
        "2509": 158,
        "2510": 41,
        "2511": 30,
        "2512": 160,
        "2513": 47,
        "2514": 101,
        "2515": 223,
        "2516": 224,
        "2517": 95,
        "2518": 240,
        "2519": 27,
        "2520": 127,
        "2521": 66,
        "2522": 213,
        "2523": 216,
        "2524": 99,
        "2525": 62,
        "2526": 150,
        "2527": 97,
        "2528": 12,
        "2529": 155,
        "2530": 151,
        "2531": 73,
        "2532": 81,
        "2533": 229,
        "2534": 238,
        "2535": 137,
        "2536": 227,
        "2537": 31,
        "2538": 131,
        "2539": 58,
        "2540": 61,
        "2541": 135,
        "2542": 34,
        "2543": 208,
        "2544": 115,
        "2545": 110,
        "2546": 179,
        "2547": 163,
        "2548": 162,
        "2549": 61,
        "2550": 243,
        "2551": 82,
        "2552": 239,
        "2553": 127,
        "2554": 75,
        "2555": 107,
        "2556": 85,
        "2557": 5,
        "2558": 86,
        "2559": 205,
        "2560": 33,
        "2561": 145,
        "2562": 24,
        "2563": 161,
        "2564": 104,
        "2565": 63,
        "2566": 88,
        "2567": 186,
        "2568": 2,
        "2569": 23,
        "2570": 63,
        "2571": 253,
        "2572": 57,
        "2573": 15,
        "2574": 105,
        "2575": 141,
        "2576": 50,
        "2577": 24,
        "2578": 28,
        "2579": 235,
        "2580": 173,
        "2581": 11,
        "2582": 108,
        "2583": 68,
        "2584": 41,
        "2585": 242,
        "2586": 71,
        "2587": 136,
        "2588": 161,
        "2589": 184,
        "2590": 19,
        "2591": 24,
        "2592": 101,
        "2593": 226,
        "2594": 107,
        "2595": 187,
        "2596": 245,
        "2597": 163,
        "2598": 254,
        "2599": 129,
        "2600": 29,
        "2601": 37,
        "2602": 93,
        "2603": 236,
        "2604": 64,
        "2605": 119,
        "2606": 125,
        "2607": 139,
        "2608": 130,
        "2609": 210,
        "2610": 228,
        "2611": 91,
        "2612": 14,
        "2613": 216,
        "2614": 74,
        "2615": 163,
        "2616": 27,
        "2617": 196,
        "2618": 146,
        "2619": 40,
        "2620": 245,
        "2621": 189,
        "2622": 110,
        "2623": 103,
        "2624": 210,
        "2625": 68,
        "2626": 100,
        "2627": 14,
        "2628": 3,
        "2629": 136,
        "2630": 249,
        "2631": 153,
        "2632": 197,
        "2633": 109,
        "2634": 95,
        "2635": 166,
        "2636": 167,
        "2637": 40,
        "2638": 224,
        "2639": 12,
        "2640": 6,
        "2641": 114,
        "2642": 3,
        "2643": 223,
        "2644": 3,
        "2645": 20,
        "2646": 192,
        "2647": 236,
        "2648": 20,
        "2649": 210,
        "2650": 131,
        "2651": 141,
        "2652": 7,
        "2653": 8,
        "2654": 20,
        "2655": 244,
        "2656": 219,
        "2657": 29,
        "2658": 38,
        "2659": 120,
        "2660": 21,
        "2661": 210,
        "2662": 121,
        "2663": 218,
        "2664": 95,
        "2665": 197,
        "2666": 69,
        "2667": 8,
        "2668": 51,
        "2669": 127,
        "2670": 232,
        "2671": 158,
        "2672": 83,
        "2673": 38,
        "2674": 255,
        "2675": 242,
        "2676": 91,
        "2677": 201,
        "2678": 163,
        "2679": 191,
        "2680": 115,
        "2681": 14,
        "2682": 181,
        "2683": 172,
        "2684": 68,
        "2685": 165,
        "2686": 160,
        "2687": 204,
        "2688": 226,
        "2689": 210,
        "2690": 11,
        "2691": 240,
        "2692": 109,
        "2693": 138,
        "2694": 237,
        "2695": 91,
        "2696": 142,
        "2697": 123,
        "2698": 70,
        "2699": 10,
        "2700": 223,
        "2701": 76,
        "2702": 19,
        "2703": 197,
        "2704": 126,
        "2705": 248,
        "2706": 61,
        "2707": 243,
        "2708": 16,
        "2709": 180,
        "2710": 20,
        "2711": 223,
        "2712": 27,
        "2713": 42,
        "2714": 170,
        "2715": 183,
        "2716": 110,
        "2717": 76,
        "2718": 158,
        "2719": 178,
        "2720": 218,
        "2721": 33,
        "2722": 37,
        "2723": 215,
        "2724": 61,
        "2725": 133,
        "2726": 245,
        "2727": 69,
        "2728": 206,
        "2729": 238,
        "2730": 224,
        "2731": 113,
        "2732": 201,
        "2733": 106,
        "2734": 130,
        "2735": 178,
        "2736": 4,
        "2737": 211,
        "2738": 20,
        "2739": 74,
        "2740": 36,
        "2741": 93,
        "2742": 208,
        "2743": 124,
        "2744": 35,
        "2745": 40,
        "2746": 87,
        "2747": 84,
        "2748": 156,
        "2749": 138,
        "2750": 234,
        "2751": 81,
        "2752": 156,
        "2753": 163,
        "2754": 170,
        "2755": 129,
        "2756": 36,
        "2757": 185,
        "2758": 254,
        "2759": 255,
        "2760": 180,
        "2761": 3,
        "2762": 207,
        "2763": 189,
        "2764": 132,
        "2765": 132,
        "2766": 100,
        "2767": 20,
        "2768": 123,
        "2769": 248,
        "2770": 19,
        "2771": 64,
        "2772": 177,
        "2773": 54,
        "2774": 190,
        "2775": 154,
        "2776": 44,
        "2777": 23,
        "2778": 65,
        "2779": 245,
        "2780": 135,
        "2781": 226,
        "2782": 148,
        "2783": 75,
        "2784": 136,
        "2785": 19,
        "2786": 61,
        "2787": 173,
        "2788": 174,
        "2789": 204,
        "2790": 182,
        "2791": 254,
        "2792": 189,
        "2793": 169,
        "2794": 78,
        "2795": 210,
        "2796": 127,
        "2797": 233,
        "2798": 244,
        "2799": 17,
        "2800": 177,
        "2801": 160,
        "2802": 127,
        "2803": 118,
        "2804": 243,
        "2805": 166,
        "2806": 132,
        "2807": 219,
        "2808": 39,
        "2809": 192,
        "2810": 200,
        "2811": 0,
        "2812": 138,
        "2813": 67,
        "2814": 13,
        "2815": 14,
        "2816": 186,
        "2817": 230,
        "2818": 145,
        "2819": 75,
        "2820": 233,
        "2821": 47,
        "2822": 250,
        "2823": 40,
        "2824": 94,
        "2825": 181,
        "2826": 87,
        "2827": 159,
        "2828": 28,
        "2829": 97,
        "2830": 95,
        "2831": 200,
        "2832": 129,
        "2833": 31,
        "2834": 178,
        "2835": 181,
        "2836": 107,
        "2837": 239,
        "2838": 148,
        "2839": 58,
        "2840": 19,
        "2841": 250,
        "2842": 245,
        "2843": 224,
        "2844": 7,
        "2845": 119,
        "2846": 216,
        "2847": 93,
        "2848": 150,
        "2849": 146,
        "2850": 18,
        "2851": 241,
        "2852": 79,
        "2853": 189,
        "2854": 194,
        "2855": 148,
        "2856": 159,
        "2857": 78,
        "2858": 208,
        "2859": 199,
        "2860": 68,
        "2861": 51,
        "2862": 89,
        "2863": 148,
        "2864": 194,
        "2865": 174,
        "2866": 104,
        "2867": 139,
        "2868": 249,
        "2869": 154,
        "2870": 96,
        "2871": 180,
        "2872": 231,
        "2873": 161,
        "2874": 17,
        "2875": 46,
        "2876": 188,
        "2877": 209,
        "2878": 102,
        "2879": 41,
        "2880": 236,
        "2881": 116,
        "2882": 247,
        "2883": 120,
        "2884": 239,
        "2885": 53,
        "2886": 44,
        "2887": 177,
        "2888": 176,
        "2889": 7,
        "2890": 180,
        "2891": 233,
        "2892": 84,
        "2893": 160,
        "2894": 120,
        "2895": 74,
        "2896": 30,
        "2897": 148,
        "2898": 214,
        "2899": 35,
        "2900": 129,
        "2901": 78,
        "2902": 221,
        "2903": 143,
        "2904": 166,
        "2905": 29,
        "2906": 33,
        "2907": 153,
        "2908": 151,
        "2909": 174,
        "2910": 208,
        "2911": 250,
        "2912": 158,
        "2913": 173,
        "2914": 12,
        "2915": 29,
        "2916": 207,
        "2917": 85,
        "2918": 60,
        "2919": 25,
        "2920": 241,
        "2921": 5,
        "2922": 95,
        "2923": 83,
        "2924": 25,
        "2925": 149,
        "2926": 155,
        "2927": 90,
        "2928": 208,
        "2929": 236,
        "2930": 140,
        "2931": 46,
        "2932": 181,
        "2933": 94,
        "2934": 167,
        "2935": 122,
        "2936": 213,
        "2937": 155,
        "2938": 178,
        "2939": 231,
        "2940": 222,
        "2941": 56,
        "2942": 221,
        "2943": 8,
        "2944": 144,
        "2945": 156,
        "2946": 146,
        "2947": 57,
        "2948": 116,
        "2949": 203,
        "2950": 13,
        "2951": 18,
        "2952": 88,
        "2953": 142,
        "2954": 97,
        "2955": 218,
        "2956": 66,
        "2957": 150,
        "2958": 224,
        "2959": 108,
        "2960": 160,
        "2961": 82,
        "2962": 204,
        "2963": 182,
        "2964": 94,
        "2965": 161,
        "2966": 121,
        "2967": 178,
        "2968": 85,
        "2969": 25,
        "2970": 155,
        "2971": 87,
        "2972": 1,
        "2973": 180,
        "2974": 185,
        "2975": 81,
        "2976": 251,
        "2977": 157,
        "2978": 186,
        "2979": 65,
        "2980": 241,
        "2981": 221,
        "2982": 176,
        "2983": 59,
        "2984": 114,
        "2985": 45,
        "2986": 104,
        "2987": 175,
        "2988": 214,
        "2989": 193,
        "2990": 127,
        "2991": 133,
        "2992": 186,
        "2993": 253,
        "2994": 135,
        "2995": 244,
        "2996": 1,
        "2997": 98,
        "2998": 130,
        "2999": 252,
        "3000": 149,
        "3001": 38,
        "3002": 78,
        "3003": 224,
        "3004": 92,
        "3005": 200,
        "3006": 91,
        "3007": 14,
        "3008": 58,
        "3009": 144,
        "3010": 172,
        "3011": 146,
        "3012": 55,
        "3013": 104,
        "3014": 236,
        "3015": 166,
        "3016": 10,
        "3017": 148,
        "3018": 9,
        "3019": 135,
        "3020": 179,
        "3021": 137,
        "3022": 165,
        "3023": 129,
        "3024": 90,
        "3025": 78,
        "3026": 87,
        "3027": 186,
        "3028": 55,
        "3029": 139,
        "3030": 206,
        "3031": 7,
        "3032": 79,
        "3033": 72,
        "3034": 114,
        "3035": 63,
        "3036": 88,
        "3037": 2,
        "3038": 50,
        "3039": 197,
        "3040": 162,
        "3041": 87,
        "3042": 55,
        "3043": 215,
        "3044": 150,
        "3045": 126,
        "3046": 220,
        "3047": 26,
        "3048": 77,
        "3049": 145,
        "3050": 8,
        "3051": 1,
        "3052": 95,
        "3053": 92,
        "3054": 218,
        "3055": 20,
        "3056": 221,
        "3057": 179,
        "3058": 24,
        "3059": 101,
        "3060": 65,
        "3061": 210,
        "3062": 103,
        "3063": 42,
        "3064": 239,
        "3065": 60,
        "3066": 11,
        "3067": 96,
        "3068": 162,
        "3069": 230,
        "3070": 32,
        "3071": 53,
        "3072": 112,
        "3073": 112,
        "3074": 44,
        "3075": 219,
        "3076": 87,
        "3077": 124,
        "3078": 162,
        "3079": 37,
        "3080": 26,
        "3081": 237,
        "3082": 192,
        "3083": 58,
        "3084": 122,
        "3085": 192,
        "3086": 117,
        "3087": 74,
        "3088": 139,
        "3089": 190,
        "3090": 73,
        "3091": 232,
        "3092": 112,
        "3093": 243,
        "3094": 160,
        "3095": 53,
        "3096": 67,
        "3097": 199,
        "3098": 107,
        "3099": 7,
        "3100": 239,
        "3101": 2,
        "3102": 181,
        "3103": 188,
        "3104": 90,
        "3105": 106,
        "3106": 123,
        "3107": 211,
        "3108": 251,
        "3109": 177,
        "3110": 155,
        "3111": 252,
        "3112": 212,
        "3113": 65,
        "3114": 60,
        "3115": 125,
        "3116": 30,
        "3117": 125,
        "3118": 201,
        "3119": 4,
        "3120": 27,
        "3121": 85,
        "3122": 15,
        "3123": 94,
        "3124": 104,
        "3125": 218,
        "3126": 85,
        "3127": 70,
        "3128": 78,
        "3129": 203,
        "3130": 61,
        "3131": 251,
        "3132": 166,
        "3133": 208,
        "3134": 120,
        "3135": 166,
        "3136": 231,
        "3137": 30,
        "3138": 91,
        "3139": 253,
        "3140": 87,
        "3141": 91,
        "3142": 46,
        "3143": 38,
        "3144": 215,
        "3145": 3,
        "3146": 201,
        "3147": 86,
        "3148": 86,
        "3149": 178,
        "3150": 59,
        "3151": 65,
        "3152": 84,
        "3153": 245,
        "3154": 192,
        "3155": 202,
        "3156": 89,
        "3157": 54,
        "3158": 199,
        "3159": 211,
        "3160": 207,
        "3161": 84,
        "3162": 169,
        "3163": 41,
        "3164": 173,
        "3165": 255,
        "3166": 140,
        "3167": 171,
        "3168": 13,
        "3169": 174,
        "3170": 172,
        "3171": 80,
        "3172": 234,
        "3173": 232,
        "3174": 214,
        "3175": 67,
        "3176": 41,
        "3177": 14,
        "3178": 102,
        "3179": 18,
        "3180": 187,
        "3181": 113,
        "3182": 202,
        "3183": 255,
        "3184": 246,
        "3185": 35,
        "3186": 77,
        "3187": 115,
        "3188": 178,
        "3189": 158,
        "3190": 74,
        "3191": 244,
        "3192": 179,
        "3193": 24,
        "3194": 102,
        "3195": 235,
        "3196": 66,
        "3197": 213,
        "3198": 160,
        "3199": 125,
        "3200": 112,
        "3201": 100,
        "3202": 221,
        "3203": 165,
        "3204": 31,
        "3205": 125,
        "3206": 41,
        "3207": 179,
        "3208": 246,
        "3209": 160,
        "3210": 43,
        "3211": 97,
        "3212": 41,
        "3213": 229,
        "3214": 4,
        "3215": 200,
        "3216": 15,
        "3217": 6,
        "3218": 244,
        "3219": 145,
        "3220": 50,
        "3221": 21,
        "3222": 44,
        "3223": 0,
        "3224": 191,
        "3225": 249,
        "3226": 153,
        "3227": 24,
        "3228": 86,
        "3229": 95,
        "3230": 238,
        "3231": 16,
        "3232": 33,
        "3233": 176,
        "3234": 97,
        "3235": 115,
        "3236": 189,
        "3237": 1,
        "3238": 219,
        "3239": 142,
        "3240": 202,
        "3241": 1,
        "3242": 190,
        "3243": 66,
        "3244": 195,
        "3245": 214,
        "3246": 40,
        "3247": 43,
        "3248": 252,
        "3249": 3,
        "3250": 44,
        "3251": 115,
        "3252": 145,
        "3253": 133,
        "3254": 153,
        "3255": 10,
        "3256": 119,
        "3257": 20,
        "3258": 42,
        "3259": 169,
        "3260": 204,
        "3261": 117,
        "3262": 61,
        "3263": 94,
        "3264": 236,
        "3265": 213,
        "3266": 136,
        "3267": 107,
        "3268": 86,
        "3269": 160,
        "3270": 190,
        "3271": 45,
        "3272": 2,
        "3273": 206,
        "3274": 158,
        "3275": 108,
        "3276": 153,
        "3277": 76,
        "3278": 228,
        "3279": 28,
        "3280": 242,
        "3281": 129,
        "3282": 78,
        "3283": 45,
        "3284": 162,
        "3285": 249,
        "3286": 244,
        "3287": 244,
        "3288": 106,
        "3289": 159,
        "3290": 211,
        "3291": 77,
        "3292": 68,
        "3293": 9,
        "3294": 66,
        "3295": 45,
        "3296": 57,
        "3297": 145,
        "3298": 62,
        "3299": 200,
        "3300": 235,
        "3301": 198,
        "3302": 92,
        "3303": 48,
        "3304": 154,
        "3305": 207,
        "3306": 120,
        "3307": 16,
        "3308": 184,
        "3309": 243,
        "3310": 77,
        "3311": 227,
        "3312": 236,
        "3313": 71,
        "3314": 168,
        "3315": 239,
        "3316": 3,
        "3317": 36,
        "3318": 140,
        "3319": 211,
        "3320": 190,
        "3321": 62,
        "3322": 0,
        "3323": 209,
        "3324": 43,
        "3325": 113,
        "3326": 183,
        "3327": 233,
        "3328": 61,
        "3329": 217,
        "3330": 252,
        "3331": 232,
        "3332": 29,
        "3333": 246,
        "3334": 164,
        "3335": 27,
        "3336": 99,
        "3337": 174,
        "3338": 15,
        "3339": 61,
        "3340": 77,
        "3341": 174,
        "3342": 92,
        "3343": 72,
        "3344": 193,
        "3345": 108,
        "3346": 243,
        "3347": 166,
        "3348": 141,
        "3349": 83,
        "3350": 136,
        "3351": 240,
        "3352": 189,
        "3353": 96,
        "3354": 102,
        "3355": 200,
        "3356": 36,
        "3357": 227,
        "3358": 113,
        "3359": 234,
        "3360": 179,
        "3361": 24,
        "3362": 253,
        "3363": 23,
        "3364": 120,
        "3365": 95,
        "3366": 236,
        "3367": 65,
        "3368": 175,
        "3369": 92,
        "3370": 188,
        "3371": 214,
        "3372": 181,
        "3373": 64,
        "3374": 218,
        "3375": 130,
        "3376": 19,
        "3377": 126,
        "3378": 184,
        "3379": 101,
        "3380": 89,
        "3381": 14,
        "3382": 63,
        "3383": 128,
        "3384": 236,
        "3385": 64,
        "3386": 183,
        "3387": 230,
        "3388": 109,
        "3389": 197,
        "3390": 11,
        "3391": 157,
        "3392": 190,
        "3393": 193,
        "3394": 164,
        "3395": 164,
        "3396": 101,
        "3397": 93,
        "3398": 3,
        "3399": 33,
        "3400": 187,
        "3401": 83,
        "3402": 216,
        "3403": 78,
        "3404": 194,
        "3405": 150,
        "3406": 52,
        "3407": 73,
        "3408": 11,
        "3409": 109,
        "3410": 150,
        "3411": 156,
        "3412": 37,
        "3413": 90,
        "3414": 36,
        "3415": 245,
        "3416": 17,
        "3417": 91,
        "3418": 254,
        "3419": 177,
        "3420": 142,
        "3421": 138,
        "3422": 137,
        "3423": 183,
        "3424": 12,
        "3425": 54,
        "3426": 190,
        "3427": 25,
        "3428": 20,
        "3429": 77,
        "3430": 237,
        "3431": 236,
        "3432": 171,
        "3433": 19,
        "3434": 115,
        "3435": 64,
        "3436": 213,
        "3437": 158,
        "3438": 143,
        "3439": 128,
        "3440": 202,
        "3441": 168,
        "3442": 155,
        "3443": 236,
        "3444": 223,
        "3445": 26,
        "3446": 130,
        "3447": 249,
        "3448": 97,
        "3449": 0,
        "3450": 138,
        "3451": 110,
        "3452": 175,
        "3453": 6,
        "3454": 154,
        "3455": 45,
        "3456": 61,
        "3457": 49,
        "3458": 40,
        "3459": 134,
        "3460": 133,
        "3461": 237,
        "3462": 81,
        "3463": 223,
        "3464": 59,
        "3465": 241,
        "3466": 136,
        "3467": 241,
        "3468": 31,
        "3469": 164,
        "3470": 19,
        "3471": 62,
        "3472": 145,
        "3473": 189,
        "3474": 175,
        "3475": 198,
        "3476": 247,
        "3477": 126,
        "3478": 124,
        "3479": 164,
        "3480": 184,
        "3481": 207,
        "3482": 129,
        "3483": 167,
        "3484": 195,
        "3485": 221,
        "3486": 66,
        "3487": 18,
        "3488": 180,
        "3489": 200,
        "3490": 66,
        "3491": 29,
        "3492": 47,
        "3493": 122,
        "3494": 101,
        "3495": 130,
        "3496": 234,
        "3497": 219,
        "3498": 16,
        "3499": 198,
        "3500": 80,
        "3501": 7,
        "3502": 2,
        "3503": 10,
        "3504": 53,
        "3505": 227,
        "3506": 85,
        "3507": 182,
        "3508": 27,
        "3509": 27,
        "3510": 184,
        "3511": 209,
        "3512": 240,
        "3513": 15,
        "3514": 18,
        "3515": 203,
        "3516": 190,
        "3517": 130,
        "3518": 85,
        "3519": 187,
        "3520": 9,
        "3521": 166,
        "3522": 104,
        "3523": 119,
        "3524": 105,
        "3525": 95,
        "3526": 129,
        "3527": 7,
        "3528": 164,
        "3529": 203,
        "3530": 7,
        "3531": 137,
        "3532": 218,
        "3533": 159,
        "3534": 40,
        "3535": 202,
        "3536": 96,
        "3537": 196,
        "3538": 157,
        "3539": 4,
        "3540": 227,
        "3541": 234,
        "3542": 10,
        "3543": 124,
        "3544": 33,
        "3545": 126,
        "3546": 47,
        "3547": 28,
        "3548": 137,
        "3549": 69,
        "3550": 2,
        "3551": 72,
        "3552": 253,
        "3553": 22,
        "3554": 104,
        "3555": 21,
        "3556": 207,
        "3557": 7,
        "3558": 233,
        "3559": 73,
        "3560": 193,
        "3561": 221,
        "3562": 158,
        "3563": 41,
        "3564": 221,
        "3565": 108,
        "3566": 13,
        "3567": 60,
        "3568": 57,
        "3569": 248,
        "3570": 56,
        "3571": 166,
        "3572": 55,
        "3573": 108,
        "3574": 68,
        "3575": 194,
        "3576": 153,
        "3577": 6,
        "3578": 203,
        "3579": 191,
        "3580": 226,
        "3581": 59,
        "3582": 92,
        "3583": 110,
        "3584": 132,
        "3585": 17,
        "3586": 136,
        "3587": 111,
        "3588": 82,
        "3589": 146,
        "3590": 138,
        "3591": 184,
        "3592": 229,
        "3593": 135,
        "3594": 236,
        "3595": 174,
        "3596": 187,
        "3597": 247,
        "3598": 238,
        "3599": 84,
        "3600": 54,
        "3601": 196,
        "3602": 77,
        "3603": 229,
        "3604": 208,
        "3605": 183,
        "3606": 142,
        "3607": 249,
        "3608": 135,
        "3609": 163,
        "3610": 119,
        "3611": 102,
        "3612": 10,
        "3613": 23,
        "3614": 110,
        "3615": 225,
        "3616": 105,
        "3617": 35,
        "3618": 128,
        "3619": 109,
        "3620": 99,
        "3621": 170,
        "3622": 96,
        "3623": 92,
        "3624": 97,
        "3625": 92,
        "3626": 241,
        "3627": 29,
        "3628": 159,
        "3629": 107,
        "3630": 46,
        "3631": 33,
        "3632": 134,
        "3633": 89,
        "3634": 112,
        "3635": 72,
        "3636": 136,
        "3637": 197,
        "3638": 95,
        "3639": 99,
        "3640": 24,
        "3641": 43,
        "3642": 1,
        "3643": 33,
        "3644": 190,
        "3645": 223,
        "3646": 191,
        "3647": 40,
        "3648": 89,
        "3649": 139,
        "3650": 217,
        "3651": 33,
        "3652": 130,
        "3653": 96,
        "3654": 219,
        "3655": 235,
        "3656": 61,
        "3657": 1,
        "3658": 252,
        "3659": 236,
        "3660": 220,
        "3661": 155,
        "3662": 80,
        "3663": 254,
        "3664": 62,
        "3665": 215,
        "3666": 26,
        "3667": 211,
        "3668": 139,
        "3669": 146,
        "3670": 28,
        "3671": 31,
        "3672": 115,
        "3673": 237,
        "3674": 3,
        "3675": 153,
        "3676": 151,
        "3677": 156,
        "3678": 105,
        "3679": 195,
        "3680": 164,
        "3681": 22,
        "3682": 67,
        "3683": 50,
        "3684": 164,
        "3685": 212,
        "3686": 146,
        "3687": 226,
        "3688": 10,
        "3689": 51,
        "3690": 244,
        "3691": 15,
        "3692": 168,
        "3693": 1,
        "3694": 111,
        "3695": 208,
        "3696": 175,
        "3697": 100,
        "3698": 135,
        "3699": 252,
        "3700": 63,
        "3701": 179,
        "3702": 2,
        "3703": 230,
        "3704": 147,
        "3705": 234,
        "3706": 54,
        "3707": 206,
        "3708": 232,
        "3709": 222,
        "3710": 162,
        "3711": 70,
        "3712": 201,
        "3713": 177,
        "3714": 133,
        "3715": 153,
        "3716": 216,
        "3717": 204,
        "3718": 86,
        "3719": 191,
        "3720": 37,
        "3721": 43,
        "3722": 4,
        "3723": 170,
        "3724": 198,
        "3725": 188,
        "3726": 102,
        "3727": 87,
        "3728": 179,
        "3729": 205,
        "3730": 122,
        "3731": 143,
        "3732": 64,
        "3733": 239,
        "3734": 199,
        "3735": 121,
        "3736": 73,
        "3737": 45,
        "3738": 112,
        "3739": 133,
        "3740": 121,
        "3741": 196,
        "3742": 224,
        "3743": 27,
        "3744": 178,
        "3745": 235,
        "3746": 158,
        "3747": 75,
        "3748": 250,
        "3749": 239,
        "3750": 75,
        "3751": 220,
        "3752": 176,
        "3753": 141,
        "3754": 221,
        "3755": 198,
        "3756": 139,
        "3757": 226,
        "3758": 214,
        "3759": 166,
        "3760": 249,
        "3761": 28,
        "3762": 123,
        "3763": 31,
        "3764": 17,
        "3765": 198,
        "3766": 165,
        "3767": 45,
        "3768": 72,
        "3769": 11,
        "3770": 221,
        "3771": 111,
        "3772": 212,
        "3773": 34,
        "3774": 101,
        "3775": 90,
        "3776": 51,
        "3777": 96,
        "3778": 83,
        "3779": 244,
        "3780": 191,
        "3781": 127,
        "3782": 238,
        "3783": 21,
        "3784": 28,
        "3785": 159,
        "3786": 223,
        "3787": 159,
        "3788": 17,
        "3789": 208,
        "3790": 94,
        "3791": 193,
        "3792": 152,
        "3793": 94,
        "3794": 108,
        "3795": 245,
        "3796": 186,
        "3797": 134,
        "3798": 210,
        "3799": 221,
        "3800": 78,
        "3801": 121,
        "3802": 250,
        "3803": 91,
        "3804": 12,
        "3805": 95,
        "3806": 79,
        "3807": 248,
        "3808": 22,
        "3809": 11,
        "3810": 62,
        "3811": 18,
        "3812": 116,
        "3813": 171,
        "3814": 106,
        "3815": 151,
        "3816": 181,
        "3817": 148,
        "3818": 40,
        "3819": 248,
        "3820": 22,
        "3821": 109,
        "3822": 107,
        "3823": 75,
        "3824": 26,
        "3825": 121,
        "3826": 166,
        "3827": 237,
        "3828": 214,
        "3829": 64,
        "3830": 127,
        "3831": 67,
        "3832": 76,
        "3833": 87,
        "3834": 49,
        "3835": 244,
        "3836": 251,
        "3837": 128,
        "3838": 77,
        "3839": 174,
        "3840": 117,
        "3841": 206,
        "3842": 215,
        "3843": 199,
        "3844": 177,
        "3845": 203,
        "3846": 28,
        "3847": 229,
        "3848": 108,
        "3849": 35,
        "3850": 25,
        "3851": 138,
        "3852": 52,
        "3853": 50,
        "3854": 151,
        "3855": 68,
        "3856": 9,
        "3857": 29,
        "3858": 221,
        "3859": 1,
        "3860": 98,
        "3861": 190,
        "3862": 177,
        "3863": 179,
        "3864": 12,
        "3865": 195,
        "3866": 196,
        "3867": 8,
        "3868": 39,
        "3869": 237,
        "3870": 107,
        "3871": 117,
        "3872": 177,
        "3873": 105,
        "3874": 30,
        "3875": 85,
        "3876": 47,
        "3877": 117,
        "3878": 216,
        "3879": 143,
        "3880": 123,
        "3881": 32,
        "3882": 255,
        "3883": 215,
        "3884": 16,
        "3885": 242,
        "3886": 49,
        "3887": 36,
        "3888": 7,
        "3889": 118,
        "3890": 10,
        "3891": 214,
        "3892": 224,
        "3893": 50,
        "3894": 100,
        "3895": 243,
        "3896": 20,
        "3897": 13,
        "3898": 152,
        "3899": 226,
        "3900": 230,
        "3901": 91,
        "3902": 252,
        "3903": 39,
        "3904": 241,
        "3905": 239,
        "3906": 249,
        "3907": 17,
        "3908": 26,
        "3909": 57,
        "3910": 247,
        "3911": 186,
        "3912": 75,
        "3913": 216,
        "3914": 103,
        "3915": 40,
        "3916": 107,
        "3917": 153,
        "3918": 205,
        "3919": 57,
        "3920": 248,
        "3921": 249,
        "3922": 52,
        "3923": 130,
        "3924": 163,
        "3925": 219,
        "3926": 218,
        "3927": 86,
        "3928": 14,
        "3929": 194,
        "3930": 174,
        "3931": 171,
        "3932": 157,
        "3933": 177,
        "3934": 94,
        "3935": 195,
        "3936": 22,
        "3937": 198,
        "3938": 52,
        "3939": 98,
        "3940": 0,
        "3941": 73,
        "3942": 35,
        "3943": 6,
        "3944": 245,
        "3945": 45,
        "3946": 210,
        "3947": 96,
        "3948": 58,
        "3949": 230,
        "3950": 51,
        "3951": 3,
        "3952": 225,
        "3953": 4,
        "3954": 40,
        "3955": 8,
        "3956": 162,
        "3957": 69,
        "3958": 51,
        "3959": 33,
        "3960": 177,
        "3961": 143,
        "3962": 65,
        "3963": 243,
        "3964": 232,
        "3965": 4,
        "3966": 199,
        "3967": 38,
        "3968": 186,
        "3969": 129,
        "3970": 0,
        "3971": 44,
        "3972": 77,
        "3973": 164,
        "3974": 165,
        "3975": 230,
        "3976": 157,
        "3977": 175,
        "3978": 237,
        "3979": 17,
        "3980": 142,
        "3981": 255,
        "3982": 61,
        "3983": 49,
        "3984": 167,
        "3985": 111,
        "3986": 207,
        "3987": 209,
        "3988": 179,
        "3989": 90,
        "3990": 138,
        "3991": 108,
        "3992": 55,
        "3993": 39,
        "3994": 189,
        "3995": 17,
        "3996": 239,
        "3997": 4,
        "3998": 5,
        "3999": 13,
        "4000": 210,
        "4001": 149,
        "4002": 116,
        "4003": 205,
        "4004": 216,
        "4005": 200,
        "4006": 86,
        "4007": 124,
        "4008": 106,
        "4009": 77,
        "4010": 180,
        "4011": 157,
        "4012": 178,
        "4013": 95,
        "4014": 52,
        "4015": 4,
        "4016": 197,
        "4017": 142,
        "4018": 220,
        "4019": 187,
        "4020": 154,
        "4021": 42,
        "4022": 191,
        "4023": 85,
        "4024": 163,
        "4025": 224,
        "4026": 40,
        "4027": 150,
        "4028": 21,
        "4029": 30,
        "4030": 22,
        "4031": 103,
        "4032": 13,
        "4033": 69,
        "4034": 180,
        "4035": 191,
        "4036": 0,
        "4037": 89,
        "4038": 223,
        "4039": 115,
        "4040": 25,
        "4041": 253,
        "4042": 12,
        "4043": 69,
        "4044": 94,
        "4045": 234,
        "4046": 101,
        "4047": 249,
        "4048": 18,
        "4049": 169,
        "4050": 152,
        "4051": 6,
        "4052": 239,
        "4053": 133,
        "4054": 24,
        "4055": 215,
        "4056": 247,
        "4057": 252,
        "4058": 56,
        "4059": 231,
        "4060": 30,
        "4061": 241,
        "4062": 170,
        "4063": 116,
        "4064": 128,
        "4065": 29,
        "4066": 107,
        "4067": 159,
        "4068": 50,
        "4069": 114,
        "4070": 28,
        "4071": 68,
        "4072": 171,
        "4073": 252,
        "4074": 139,
        "4075": 50,
        "4076": 29,
        "4077": 240,
        "4078": 1,
        "4079": 35,
        "4080": 206,
        "4081": 49,
        "4082": 101,
        "4083": 34,
        "4084": 187,
        "4085": 57,
        "4086": 253,
        "4087": 240,
        "4088": 193,
        "4089": 86,
        "4090": 232,
        "4091": 57,
        "4092": 20,
        "4093": 28,
        "4094": 221,
        "4095": 110,
        "4096": 120,
        "4097": 246,
        "4098": 93,
        "4099": 66,
        "4100": 116,
        "4101": 169,
        "4102": 18,
        "4103": 92,
        "4104": 180,
        "4105": 15,
        "4106": 157,
        "4107": 40,
        "4108": 38,
        "4109": 136,
        "4110": 51,
        "4111": 50,
        "4112": 174,
        "4113": 20,
        "4114": 198,
        "4115": 62,
        "4116": 153,
        "4117": 143,
        "4118": 84,
        "4119": 113,
        "4120": 171,
        "4121": 251,
        "4122": 56,
        "4123": 54,
        "4124": 17,
        "4125": 56,
        "4126": 74,
        "4127": 238,
        "4128": 81,
        "4129": 54,
        "4130": 54,
        "4131": 8,
        "4132": 45,
        "4133": 106,
        "4134": 40,
        "4135": 15,
        "4136": 164,
        "4137": 52,
        "4138": 16,
        "4139": 0,
        "4140": 86,
        "4141": 129,
        "4142": 105,
        "4143": 74,
        "4144": 31,
        "4145": 91,
        "4146": 152,
        "4147": 207,
        "4148": 97,
        "4149": 230,
        "4150": 68,
        "4151": 128,
        "4152": 245,
        "4153": 108,
        "4154": 188,
        "4155": 90,
        "4156": 70,
        "4157": 251,
        "4158": 96,
        "4159": 158,
        "4160": 1,
        "4161": 206,
        "4162": 221,
        "4163": 126,
        "4164": 131,
        "4165": 186,
        "4166": 64,
        "4167": 50,
        "4168": 186,
        "4169": 212,
        "4170": 81,
        "4171": 252,
        "4172": 24,
        "4173": 7,
        "4174": 173,
        "4175": 0,
        "4176": 162,
        "4177": 244,
        "4178": 246,
        "4179": 221,
        "4180": 254,
        "4181": 250,
        "4182": 153,
        "4183": 14,
        "4184": 34,
        "4185": 16,
        "4186": 64,
        "4187": 64,
        "4188": 104,
        "4189": 154,
        "4190": 184,
        "4191": 23,
        "4192": 98,
        "4193": 230,
        "4194": 206,
        "4195": 2,
        "4196": 143,
        "4197": 248,
        "4198": 107,
        "4199": 246,
        "4200": 25,
        "4201": 88,
        "4202": 237,
        "4203": 209,
        "4204": 20,
        "4205": 4,
        "4206": 201,
        "4207": 52,
        "4208": 251,
        "4209": 23,
        "4210": 62,
        "4211": 241,
        "4212": 146,
        "4213": 115,
        "4214": 255,
        "4215": 131,
        "4216": 91,
        "4217": 67,
        "4218": 169,
        "4219": 36,
        "4220": 65,
        "4221": 254,
        "4222": 9,
        "4223": 88,
        "4224": 16,
        "4225": 152,
        "4226": 201,
        "4227": 122,
        "4228": 88,
        "4229": 99,
        "4230": 118,
        "4231": 209,
        "4232": 158,
        "4233": 213,
        "4234": 99,
        "4235": 202,
        "4236": 121,
        "4237": 114,
        "4238": 29,
        "4239": 20,
        "4240": 139,
        "4241": 230,
        "4242": 243,
        "4243": 168,
        "4244": 86,
        "4245": 97,
        "4246": 151,
        "4247": 19,
        "4248": 235,
        "4249": 230,
        "4250": 150,
        "4251": 163,
        "4252": 58,
        "4253": 226,
        "4254": 71,
        "4255": 144,
        "4256": 160,
        "4257": 147,
        "4258": 47,
        "4259": 64,
        "4260": 103,
        "4261": 218,
        "4262": 60,
        "4263": 165,
        "4264": 221,
        "4265": 36,
        "4266": 22,
        "4267": 180,
        "4268": 58,
        "4269": 34,
        "4270": 251,
        "4271": 140,
        "4272": 218,
        "4273": 130,
        "4274": 187,
        "4275": 28,
        "4276": 67,
        "4277": 70,
        "4278": 196,
        "4279": 137,
        "4280": 209,
        "4281": 209,
        "4282": 136,
        "4283": 115,
        "4284": 98,
        "4285": 84,
        "4286": 146,
        "4287": 184,
        "4288": 164,
        "4289": 2,
        "4290": 246,
        "4291": 183,
        "4292": 165,
        "4293": 152,
        "4294": 83,
        "4295": 148,
        "4296": 180,
        "4297": 219,
        "4298": 18,
        "4299": 55,
        "4300": 89,
        "4301": 183,
        "4302": 27,
        "4303": 146,
        "4304": 41,
        "4305": 146,
        "4306": 75,
        "4307": 52,
        "4308": 124,
        "4309": 233,
        "4310": 158,
        "4311": 187,
        "4312": 87,
        "4313": 3,
        "4314": 99,
        "4315": 22,
        "4316": 102,
        "4317": 215,
        "4318": 66,
        "4319": 142,
        "4320": 109,
        "4321": 96,
        "4322": 70,
        "4323": 231,
        "4324": 37,
        "4325": 214,
        "4326": 66,
        "4327": 250,
        "4328": 8,
        "4329": 254,
        "4330": 58,
        "4331": 46,
        "4332": 114,
        "4333": 24,
        "4334": 46,
        "4335": 49,
        "4336": 221,
        "4337": 245,
        "4338": 34,
        "4339": 216,
        "4340": 18,
        "4341": 48,
        "4342": 233,
        "4343": 205,
        "4344": 203,
        "4345": 12,
        "4346": 180,
        "4347": 187,
        "4348": 163,
        "4349": 48,
        "4350": 170,
        "4351": 203,
        "4352": 71,
        "4353": 21,
        "4354": 215,
        "4355": 160,
        "4356": 67,
        "4357": 104,
        "4358": 207,
        "4359": 180,
        "4360": 185,
        "4361": 130,
        "4362": 119,
        "4363": 41,
        "4364": 140,
        "4365": 199,
        "4366": 92,
        "4367": 109,
        "4368": 230,
        "4369": 81,
        "4370": 119,
        "4371": 42,
        "4372": 83,
        "4373": 174,
        "4374": 172,
        "4375": 209,
        "4376": 174,
        "4377": 10,
        "4378": 50,
        "4379": 120,
        "4380": 184,
        "4381": 52,
        "4382": 49,
        "4383": 190,
        "4384": 121,
        "4385": 12,
        "4386": 175,
        "4387": 31,
        "4388": 205,
        "4389": 208,
        "4390": 12,
        "4391": 202,
        "4392": 2,
        "4393": 250,
        "4394": 132,
        "4395": 38,
        "4396": 57,
        "4397": 109,
        "4398": 72,
        "4399": 78,
        "4400": 42,
        "4401": 209,
        "4402": 231,
        "4403": 241,
        "4404": 17,
        "4405": 165,
        "4406": 39,
        "4407": 70,
        "4408": 112,
        "4409": 69,
        "4410": 95,
        "4411": 240,
        "4412": 46,
        "4413": 84,
        "4414": 188,
        "4415": 85,
        "4416": 171,
        "4417": 61,
        "4418": 83,
        "4419": 93,
        "4420": 191,
        "4421": 164,
        "4422": 138,
        "4423": 239,
        "4424": 60,
        "4425": 61,
        "4426": 34,
        "4427": 239,
        "4428": 76,
        "4429": 88,
        "4430": 32,
        "4431": 236,
        "4432": 88,
        "4433": 208,
        "4434": 24,
        "4435": 187,
        "4436": 40,
        "4437": 116,
        "4438": 82,
        "4439": 223,
        "4440": 46,
        "4441": 26,
        "4442": 204,
        "4443": 204,
        "4444": 230,
        "4445": 244,
        "4446": 76,
        "4447": 223,
        "4448": 215,
        "4449": 205,
        "4450": 193,
        "4451": 127,
        "4452": 31,
        "4453": 67,
        "4454": 106,
        "4455": 18,
        "4456": 129,
        "4457": 253,
        "4458": 163,
        "4459": 184,
        "4460": 172,
        "4461": 9,
        "4462": 167,
        "4463": 173,
        "4464": 212,
        "4465": 182,
        "4466": 19,
        "4467": 155,
        "4468": 171,
        "4469": 193,
        "4470": 252,
        "4471": 73,
        "4472": 255,
        "4473": 151,
        "4474": 101,
        "4475": 250,
        "4476": 26,
        "4477": 58,
        "4478": 207,
        "4479": 253,
        "4480": 82,
        "4481": 0,
        "4482": 43,
        "4483": 216,
        "4484": 10,
        "4485": 204,
        "4486": 160,
        "4487": 104,
        "4488": 48,
        "4489": 33,
        "4490": 45,
        "4491": 21,
        "4492": 92,
        "4493": 98,
        "4494": 129,
        "4495": 9,
        "4496": 162,
        "4497": 39,
        "4498": 188,
        "4499": 190,
        "4500": 1,
        "4501": 97,
        "4502": 182,
        "4503": 151,
        "4504": 161,
        "4505": 41,
        "4506": 101,
        "4507": 226,
        "4508": 7,
        "4509": 208,
        "4510": 62,
        "4511": 146,
        "4512": 253,
        "4513": 195,
        "4514": 50,
        "4515": 189,
        "4516": 42,
        "4517": 205,
        "4518": 215,
        "4519": 103,
        "4520": 58,
        "4521": 220,
        "4522": 56,
        "4523": 223,
        "4524": 94,
        "4525": 93,
        "4526": 208,
        "4527": 160,
        "4528": 177,
        "4529": 67,
        "4530": 160,
        "4531": 249,
        "4532": 121,
        "4533": 23,
        "4534": 152,
        "4535": 115,
        "4536": 80,
        "4537": 252,
        "4538": 52,
        "4539": 96,
        "4540": 203,
        "4541": 183,
        "4542": 79,
        "4543": 26,
        "4544": 52,
        "4545": 146,
        "4546": 239,
        "4547": 15,
        "4548": 62,
        "4549": 92,
        "4550": 219,
        "4551": 46,
        "4552": 234,
        "4553": 140,
        "4554": 180,
        "4555": 111,
        "4556": 205,
        "4557": 45,
        "4558": 209,
        "4559": 187,
        "4560": 78,
        "4561": 254,
        "4562": 253,
        "4563": 236,
        "4564": 187,
        "4565": 198,
        "4566": 160,
        "4567": 82,
        "4568": 53,
        "4569": 161,
        "4570": 242,
        "4571": 151,
        "4572": 20,
        "4573": 129,
        "4574": 152,
        "4575": 158,
        "4576": 240,
        "4577": 178,
        "4578": 7,
        "4579": 4,
        "4580": 119,
        "4581": 69,
        "4582": 94,
        "4583": 223,
        "4584": 236,
        "4585": 214,
        "4586": 243,
        "4587": 21,
        "4588": 205,
        "4589": 63,
        "4590": 175,
        "4591": 126,
        "4592": 131,
        "4593": 232,
        "4594": 81,
        "4595": 133,
        "4596": 37,
        "4597": 95,
        "4598": 159,
        "4599": 90,
        "4600": 170,
        "4601": 194,
        "4602": 25,
        "4603": 183,
        "4604": 210,
        "4605": 48,
        "4606": 77,
        "4607": 223,
        "4608": 87,
        "4609": 9,
        "4610": 216,
        "4611": 107,
        "4612": 140,
        "4613": 166,
        "4614": 219,
        "4615": 2,
        "4616": 3,
        "4617": 22,
        "4618": 4,
        "4619": 22,
        "4620": 52,
        "4621": 178,
        "4622": 243,
        "4623": 27,
        "4624": 146,
        "4625": 146,
        "4626": 31,
        "4627": 26,
        "4628": 66,
        "4629": 158,
        "4630": 193,
        "4631": 111,
        "4632": 103,
        "4633": 131,
        "4634": 220,
        "4635": 244,
        "4636": 56,
        "4637": 186,
        "4638": 186,
        "4639": 162,
        "4640": 140,
        "4641": 136,
        "4642": 79,
        "4643": 245,
        "4644": 84,
        "4645": 52,
        "4646": 88,
        "4647": 1,
        "4648": 95,
        "4649": 5,
        "4650": 87,
        "4651": 140,
        "4652": 78,
        "4653": 21,
        "4654": 76,
        "4655": 55,
        "4656": 87,
        "4657": 162,
        "4658": 115,
        "4659": 138,
        "4660": 24,
        "4661": 193,
        "4662": 210,
        "4663": 151,
        "4664": 76,
        "4665": 213,
        "4666": 52,
        "4667": 47,
        "4668": 122,
        "4669": 243,
        "4670": 191,
        "4671": 230,
        "4672": 63,
        "4673": 12,
        "4674": 213,
        "4675": 18,
        "4676": 10,
        "4677": 51,
        "4678": 184,
        "4679": 31,
        "4680": 157,
        "4681": 102,
        "4682": 66,
        "4683": 221,
        "4684": 213,
        "4685": 17,
        "4686": 227,
        "4687": 188,
        "4688": 13,
        "4689": 200,
        "4690": 149,
        "4691": 47,
        "4692": 153,
        "4693": 11,
        "4694": 117,
        "4695": 105,
        "4696": 58,
        "4697": 59,
        "4698": 134,
        "4699": 159,
        "4700": 146,
        "4701": 5,
        "4702": 56,
        "4703": 60,
        "4704": 56,
        "4705": 45,
        "4706": 224,
        "4707": 152,
        "4708": 89,
        "4709": 25,
        "4710": 207,
        "4711": 229,
        "4712": 14,
        "4713": 209,
        "4714": 90,
        "4715": 221,
        "4716": 5,
        "4717": 123,
        "4718": 161,
        "4719": 140,
        "4720": 76,
        "4721": 113,
        "4722": 158,
        "4723": 243,
        "4724": 77,
        "4725": 234,
        "4726": 210,
        "4727": 180,
        "4728": 18,
        "4729": 202,
        "4730": 73,
        "4731": 227,
        "4732": 103,
        "4733": 92,
        "4734": 187,
        "4735": 151,
        "4736": 238,
        "4737": 170,
        "4738": 108,
        "4739": 26,
        "4740": 250,
        "4741": 103,
        "4742": 168,
        "4743": 147,
        "4744": 189,
        "4745": 180,
        "4746": 145,
        "4747": 87,
        "4748": 35,
        "4749": 118,
        "4750": 63,
        "4751": 1,
        "4752": 93,
        "4753": 237,
        "4754": 78,
        "4755": 43,
        "4756": 158,
        "4757": 255,
        "4758": 91,
        "4759": 145,
        "4760": 9,
        "4761": 167,
        "4762": 98,
        "4763": 134,
        "4764": 162,
        "4765": 232,
        "4766": 98,
        "4767": 109,
        "4768": 243,
        "4769": 129,
        "4770": 39,
        "4771": 1,
        "4772": 89,
        "4773": 226,
        "4774": 8,
        "4775": 143,
        "4776": 125,
        "4777": 190,
        "4778": 118,
        "4779": 3,
        "4780": 35,
        "4781": 67,
        "4782": 232,
        "4783": 125,
        "4784": 81,
        "4785": 26,
        "4786": 209,
        "4787": 227,
        "4788": 32,
        "4789": 65,
        "4790": 206,
        "4791": 221,
        "4792": 11,
        "4793": 29,
        "4794": 160,
        "4795": 123,
        "4796": 98,
        "4797": 40,
        "4798": 91,
        "4799": 8,
        "4800": 92,
        "4801": 86,
        "4802": 209,
        "4803": 198,
        "4804": 239,
        "4805": 195,
        "4806": 17,
        "4807": 240,
        "4808": 180,
        "4809": 167,
        "4810": 158,
        "4811": 254,
        "4812": 159,
        "4813": 118,
        "4814": 60,
        "4815": 212,
        "4816": 249,
        "4817": 115,
        "4818": 103,
        "4819": 98,
        "4820": 49,
        "4821": 174,
        "4822": 88,
        "4823": 232,
        "4824": 108,
        "4825": 168,
        "4826": 36,
        "4827": 76,
        "4828": 6,
        "4829": 90,
        "4830": 46,
        "4831": 83,
        "4832": 186,
        "4833": 253,
        "4834": 101,
        "4835": 173,
        "4836": 162,
        "4837": 53,
        "4838": 213,
        "4839": 47,
        "4840": 241,
        "4841": 127,
        "4842": 52,
        "4843": 225,
        "4844": 249,
        "4845": 185,
        "4846": 94,
        "4847": 171,
        "4848": 40,
        "4849": 171,
        "4850": 251,
        "4851": 13,
        "4852": 13,
        "4853": 112,
        "4854": 100,
        "4855": 9,
        "4856": 234,
        "4857": 80,
        "4858": 214,
        "4859": 177,
        "4860": 163,
        "4861": 192,
        "4862": 89,
        "4863": 98,
        "4864": 14,
        "4865": 93,
        "4866": 26,
        "4867": 106,
        "4868": 223,
        "4869": 2,
        "4870": 23,
        "4871": 8,
        "4872": 21,
        "4873": 146,
        "4874": 53,
        "4875": 243,
        "4876": 209,
        "4877": 103,
        "4878": 54,
        "4879": 79,
        "4880": 227,
        "4881": 113,
        "4882": 172,
        "4883": 219,
        "4884": 102,
        "4885": 7,
        "4886": 126,
        "4887": 91,
        "4888": 157,
        "4889": 198,
        "4890": 34,
        "4891": 113,
        "4892": 39,
        "4893": 202,
        "4894": 251,
        "4895": 213,
        "4896": 176,
        "4897": 16,
        "4898": 139,
        "4899": 230,
        "4900": 112,
        "4901": 102,
        "4902": 82,
        "4903": 82,
        "4904": 21,
        "4905": 176,
        "4906": 245,
        "4907": 189,
        "4908": 61,
        "4909": 76,
        "4910": 119,
        "4911": 131,
        "4912": 140,
        "4913": 175,
        "4914": 221,
        "4915": 242,
        "4916": 125,
        "4917": 137,
        "4918": 25,
        "4919": 184,
        "4920": 135,
        "4921": 69,
        "4922": 204,
        "4923": 244,
        "4924": 155,
        "4925": 199,
        "4926": 255,
        "4927": 86,
        "4928": 252,
        "4929": 80,
        "4930": 117,
        "4931": 30,
        "4932": 164,
        "4933": 59,
        "4934": 226,
        "4935": 19,
        "4936": 200,
        "4937": 154,
        "4938": 245,
        "4939": 96,
        "4940": 90,
        "4941": 27,
        "4942": 247,
        "4943": 41,
        "4944": 15,
        "4945": 110,
        "4946": 96,
        "4947": 137,
        "4948": 98,
        "4949": 233,
        "4950": 20,
        "4951": 126,
        "4952": 4,
        "4953": 64,
        "4954": 236,
        "4955": 139,
        "4956": 231,
        "4957": 97,
        "4958": 163,
        "4959": 58,
        "4960": 110,
        "4961": 176,
        "4962": 88,
        "4963": 140,
        "4964": 173,
        "4965": 173,
        "4966": 177,
        "4967": 197,
        "4968": 115,
        "4969": 70,
        "4970": 195,
        "4971": 71,
        "4972": 66,
        "4973": 183,
        "4974": 224,
        "4975": 83,
        "4976": 40,
        "4977": 154,
        "4978": 64,
        "4979": 187,
        "4980": 97,
        "4981": 71,
        "4982": 71,
        "4983": 58,
        "4984": 55,
        "4985": 129,
        "4986": 97,
        "4987": 80,
        "4988": 119,
        "4989": 101,
        "4990": 114,
        "4991": 153,
        "4992": 125,
        "4993": 91,
        "4994": 125,
        "4995": 100,
        "4996": 48,
        "4997": 168,
        "4998": 200,
        "4999": 150,
        "5000": 33,
        "5001": 135,
        "5002": 24,
        "5003": 66,
        "5004": 195,
        "5005": 4,
        "5006": 41,
        "5007": 49,
        "5008": 35,
        "5009": 38,
        "5010": 169,
        "5011": 51,
        "5012": 236,
        "5013": 120,
        "5014": 218,
        "5015": 79,
        "5016": 82,
        "5017": 159,
        "5018": 251,
        "5019": 252,
        "5020": 153,
        "5021": 81,
        "5022": 35,
        "5023": 82,
        "5024": 48,
        "5025": 49,
        "5026": 112,
        "5027": 221,
        "5028": 226,
        "5029": 235,
        "5030": 143,
        "5031": 16,
        "5032": 201,
        "5033": 2,
        "5034": 202,
        "5035": 92,
        "5036": 188,
        "5037": 254,
        "5038": 156,
        "5039": 29,
        "5040": 192,
        "5041": 77,
        "5042": 175,
        "5043": 65,
        "5044": 143,
        "5045": 175,
        "5046": 66,
        "5047": 249,
        "5048": 221,
        "5049": 208,
        "5050": 239,
        "5051": 194,
        "5052": 27,
        "5053": 147,
        "5054": 66,
        "5055": 242,
        "5056": 17,
        "5057": 75,
        "5058": 82,
        "5059": 243,
        "5060": 22,
        "5061": 242,
        "5062": 219,
        "5063": 81,
        "5064": 186,
        "5065": 107,
        "5066": 65,
        "5067": 95,
        "5068": 240,
        "5069": 162,
        "5070": 158,
        "5071": 142,
        "5072": 158,
        "5073": 209,
        "5074": 210,
        "5075": 79,
        "5076": 133,
        "5077": 86,
        "5078": 171,
        "5079": 69,
        "5080": 208,
        "5081": 9,
        "5082": 26,
        "5083": 5,
        "5084": 114,
        "5085": 2,
        "5086": 73,
        "5087": 63,
        "5088": 186,
        "5089": 67,
        "5090": 196,
        "5091": 152,
        "5092": 193,
        "5093": 201,
        "5094": 120,
        "5095": 50,
        "5096": 18,
        "5097": 39,
        "5098": 1,
        "5099": 146,
        "5100": 116,
        "5101": 169,
        "5102": 40,
        "5103": 10,
        "5104": 55,
        "5105": 210,
        "5106": 109,
        "5107": 248,
        "5108": 98,
        "5109": 106,
        "5110": 248,
        "5111": 104,
        "5112": 4,
        "5113": 215,
        "5114": 166,
        "5115": 214,
        "5116": 193,
        "5117": 204,
        "5118": 146,
        "5119": 54,
        "5120": 55,
        "5121": 226,
        "5122": 19,
        "5123": 206,
        "5124": 185,
        "5125": 204,
        "5126": 62,
        "5127": 46,
        "5128": 205,
        "5129": 105,
        "5130": 191,
        "5131": 138,
        "5132": 16,
        "5133": 31,
        "5134": 97,
        "5135": 251,
        "5136": 171,
        "5137": 219,
        "5138": 163,
        "5139": 112,
        "5140": 13,
        "5141": 157,
        "5142": 85,
        "5143": 175,
        "5144": 37,
        "5145": 231,
        "5146": 153,
        "5147": 99,
        "5148": 218,
        "5149": 165,
        "5150": 10,
        "5151": 127,
        "5152": 14,
        "5153": 224,
        "5154": 6,
        "5155": 207,
        "5156": 92,
        "5157": 69,
        "5158": 34,
        "5159": 101,
        "5160": 54,
        "5161": 217,
        "5162": 60,
        "5163": 156,
        "5164": 246,
        "5165": 141,
        "5166": 195,
        "5167": 3,
        "5168": 61,
        "5169": 244,
        "5170": 130,
        "5171": 235,
        "5172": 112,
        "5173": 154,
        "5174": 142,
        "5175": 145,
        "5176": 155,
        "5177": 226,
        "5178": 113,
        "5179": 207,
        "5180": 117,
        "5181": 239,
        "5182": 187,
        "5183": 179,
        "5184": 32,
        "5185": 62,
        "5186": 206,
        "5187": 1,
        "5188": 201,
        "5189": 108,
        "5190": 125,
        "5191": 196,
        "5192": 39,
        "5193": 8,
        "5194": 31,
        "5195": 21,
        "5196": 216,
        "5197": 239,
        "5198": 40,
        "5199": 16,
        "5200": 173,
        "5201": 215,
        "5202": 143,
        "5203": 121,
        "5204": 118,
        "5205": 119,
        "5206": 161,
        "5207": 26,
        "5208": 75,
        "5209": 183,
        "5210": 184,
        "5211": 89,
        "5212": 233,
        "5213": 166,
        "5214": 242,
        "5215": 35,
        "5216": 17,
        "5217": 39,
        "5218": 95,
        "5219": 213,
        "5220": 89,
        "5221": 131,
        "5222": 239,
        "5223": 108,
        "5224": 197,
        "5225": 62,
        "5226": 228,
        "5227": 221,
        "5228": 96,
        "5229": 13,
        "5230": 28,
        "5231": 224,
        "5232": 140,
        "5233": 52,
        "5234": 34,
        "5235": 123,
        "5236": 20,
        "5237": 18,
        "5238": 19,
        "5239": 95,
        "5240": 44,
        "5241": 82,
        "5242": 252,
        "5243": 31,
        "5244": 102,
        "5245": 121,
        "5246": 224,
        "5247": 116,
        "5248": 191,
        "5249": 127,
        "5250": 153,
        "5251": 24,
        "5252": 131,
        "5253": 239,
        "5254": 33,
        "5255": 199,
        "5256": 85,
        "5257": 149,
        "5258": 168,
        "5259": 9,
        "5260": 195,
        "5261": 88,
        "5262": 64,
        "5263": 103,
        "5264": 187,
        "5265": 238,
        "5266": 91,
        "5267": 224,
        "5268": 44,
        "5269": 169,
        "5270": 235,
        "5271": 151,
        "5272": 99,
        "5273": 118,
        "5274": 59,
        "5275": 246,
        "5276": 1,
        "5277": 27,
        "5278": 28,
        "5279": 50,
        "5280": 206,
        "5281": 136,
        "5282": 95,
        "5283": 181,
        "5284": 87,
        "5285": 74,
        "5286": 191,
        "5287": 126,
        "5288": 104,
        "5289": 124,
        "5290": 90,
        "5291": 13,
        "5292": 43,
        "5293": 163,
        "5294": 5,
        "5295": 174,
        "5296": 24,
        "5297": 128,
        "5298": 59,
        "5299": 16,
        "5300": 12,
        "5301": 141,
        "5302": 101,
        "5303": 242,
        "5304": 91,
        "5305": 59,
        "5306": 21,
        "5307": 53,
        "5308": 183,
        "5309": 235,
        "5310": 65,
        "5311": 224,
        "5312": 36,
        "5313": 80,
        "5314": 154,
        "5315": 191,
        "5316": 124,
        "5317": 249,
        "5318": 152,
        "5319": 138,
        "5320": 87,
        "5321": 149,
        "5322": 17,
        "5323": 11,
        "5324": 33,
        "5325": 156,
        "5326": 85,
        "5327": 155,
        "5328": 99,
        "5329": 207,
        "5330": 131,
        "5331": 206,
        "5332": 188,
        "5333": 157,
        "5334": 72,
        "5335": 99,
        "5336": 13,
        "5337": 126,
        "5338": 121,
        "5339": 130,
        "5340": 90,
        "5341": 238,
        "5342": 211,
        "5343": 63,
        "5344": 115,
        "5345": 82,
        "5346": 165,
        "5347": 143,
        "5348": 185,
        "5349": 235,
        "5350": 129,
        "5351": 16,
        "5352": 143,
        "5353": 242,
        "5354": 239,
        "5355": 192,
        "5356": 83,
        "5357": 161,
        "5358": 13,
        "5359": 156,
        "5360": 172,
        "5361": 142,
        "5362": 159,
        "5363": 91,
        "5364": 2,
        "5365": 134,
        "5366": 123,
        "5367": 189,
        "5368": 212,
        "5369": 251,
        "5370": 81,
        "5371": 125,
        "5372": 50,
        "5373": 218,
        "5374": 82,
        "5375": 184,
        "5376": 188,
        "5377": 50,
        "5378": 4,
        "5379": 22,
        "5380": 18,
        "5381": 244,
        "5382": 184,
        "5383": 187,
        "5384": 8,
        "5385": 135,
        "5386": 178,
        "5387": 144,
        "5388": 210,
        "5389": 1,
        "5390": 204,
        "5391": 146,
        "5392": 241,
        "5393": 236,
        "5394": 5,
        "5395": 223,
        "5396": 173,
        "5397": 16,
        "5398": 111,
        "5399": 232,
        "5400": 192,
        "5401": 186,
        "5402": 83,
        "5403": 216,
        "5404": 253,
        "5405": 50,
        "5406": 57,
        "5407": 226,
        "5408": 171,
        "5409": 158,
        "5410": 71,
        "5411": 110,
        "5412": 7,
        "5413": 32,
        "5414": 224,
        "5415": 114,
        "5416": 168,
        "5417": 98,
        "5418": 170,
        "5419": 43,
        "5420": 59,
        "5421": 210,
        "5422": 86,
        "5423": 22,
        "5424": 113,
        "5425": 76,
        "5426": 147,
        "5427": 110,
        "5428": 181,
        "5429": 100,
        "5430": 38,
        "5431": 2,
        "5432": 53,
        "5433": 43,
        "5434": 30,
        "5435": 49,
        "5436": 254,
        "5437": 37,
        "5438": 8,
        "5439": 73,
        "5440": 93,
        "5441": 108,
        "5442": 123,
        "5443": 142,
        "5444": 211,
        "5445": 9,
        "5446": 86,
        "5447": 203,
        "5448": 221,
        "5449": 194,
        "5450": 213,
        "5451": 84,
        "5452": 242,
        "5453": 20,
        "5454": 53,
        "5455": 151,
        "5456": 248,
        "5457": 240,
        "5458": 176,
        "5459": 9,
        "5460": 60,
        "5461": 230,
        "5462": 68,
        "5463": 82,
        "5464": 87,
        "5465": 238,
        "5466": 150,
        "5467": 124,
        "5468": 43,
        "5469": 250,
        "5470": 241,
        "5471": 239,
        "5472": 196,
        "5473": 89,
        "5474": 11,
        "5475": 44,
        "5476": 135,
        "5477": 152,
        "5478": 35,
        "5479": 1,
        "5480": 249,
        "5481": 161,
        "5482": 204,
        "5483": 218,
        "5484": 44,
        "5485": 59,
        "5486": 131,
        "5487": 124,
        "5488": 115,
        "5489": 117,
        "5490": 99,
        "5491": 242,
        "5492": 179,
        "5493": 23,
        "5494": 188,
        "5495": 231,
        "5496": 48,
        "5497": 42,
        "5498": 29,
        "5499": 172,
        "5500": 67,
        "5501": 89,
        "5502": 8,
        "5503": 128,
        "5504": 151,
        "5505": 11,
        "5506": 55,
        "5507": 14,
        "5508": 98,
        "5509": 96,
        "5510": 108,
        "5511": 194,
        "5512": 182,
        "5513": 112,
        "5514": 58,
        "5515": 173,
        "5516": 234,
        "5517": 234,
        "5518": 183,
        "5519": 109,
        "5520": 212,
        "5521": 54,
        "5522": 230,
        "5523": 148,
        "5524": 239,
        "5525": 35,
        "5526": 170,
        "5527": 161,
        "5528": 39,
        "5529": 182,
        "5530": 182,
        "5531": 60,
        "5532": 27,
        "5533": 77,
        "5534": 131,
        "5535": 23,
        "5536": 25,
        "5537": 225,
        "5538": 180,
        "5539": 241,
        "5540": 183,
        "5541": 224,
        "5542": 86,
        "5543": 139,
        "5544": 168,
        "5545": 84,
        "5546": 58,
        "5547": 87,
        "5548": 79,
        "5549": 230,
        "5550": 79,
        "5551": 236,
        "5552": 217,
        "5553": 63,
        "5554": 115,
        "5555": 88,
        "5556": 97,
        "5557": 101,
        "5558": 240,
        "5559": 111,
        "5560": 12,
        "5561": 30,
        "5562": 70,
        "5563": 213,
        "5564": 188,
        "5565": 95,
        "5566": 85,
        "5567": 216,
        "5568": 123,
        "5569": 224,
        "5570": 9,
        "5571": 141,
        "5572": 203,
        "5573": 32,
        "5574": 227,
        "5575": 160,
        "5576": 191,
        "5577": 117,
        "5578": 212,
        "5579": 149,
        "5580": 117,
        "5581": 80,
        "5582": 92,
        "5583": 234,
        "5584": 101,
        "5585": 149,
        "5586": 81,
        "5587": 87,
        "5588": 155,
        "5589": 222,
        "5590": 84,
        "5591": 178,
        "5592": 206,
        "5593": 253,
        "5594": 193,
        "5595": 186,
        "5596": 48,
        "5597": 49,
        "5598": 248,
        "5599": 218,
        "5600": 107,
        "5601": 150,
        "5602": 227,
        "5603": 193,
        "5604": 26,
        "5605": 63,
        "5606": 236,
        "5607": 133,
        "5608": 163,
        "5609": 19,
        "5610": 30,
        "5611": 123,
        "5612": 110,
        "5613": 243,
        "5614": 114,
        "5615": 160,
        "5616": 174,
        "5617": 105,
        "5618": 104,
        "5619": 242,
        "5620": 33,
        "5621": 230,
        "5622": 195,
        "5623": 194,
        "5624": 29,
        "5625": 171,
        "5626": 91,
        "5627": 158,
        "5628": 182,
        "5629": 134,
        "5630": 22,
        "5631": 124,
        "5632": 101,
        "5633": 115,
        "5634": 109,
        "5635": 29,
        "5636": 153,
        "5637": 45,
        "5638": 74,
        "5639": 103,
        "5640": 94,
        "5641": 199,
        "5642": 135,
        "5643": 135,
        "5644": 251,
        "5645": 142,
        "5646": 254,
        "5647": 88,
        "5648": 33,
        "5649": 123,
        "5650": 168,
        "5651": 24,
        "5652": 18,
        "5653": 193,
        "5654": 89,
        "5655": 125,
        "5656": 21,
        "5657": 212,
        "5658": 72,
        "5659": 221,
        "5660": 86,
        "5661": 93,
        "5662": 83,
        "5663": 170,
        "5664": 220,
        "5665": 199,
        "5666": 111,
        "5667": 190,
        "5668": 84,
        "5669": 116,
        "5670": 108,
        "5671": 210,
        "5672": 22,
        "5673": 118,
        "5674": 149,
        "5675": 37,
        "5676": 109,
        "5677": 170,
        "5678": 114,
        "5679": 5,
        "5680": 34,
        "5681": 176,
        "5682": 71,
        "5683": 227,
        "5684": 76,
        "5685": 173,
        "5686": 182,
        "5687": 182,
        "5688": 108,
        "5689": 42,
        "5690": 220,
        "5691": 146,
        "5692": 83,
        "5693": 170,
        "5694": 132,
        "5695": 246,
        "5696": 186,
        "5697": 61,
        "5698": 50,
        "5699": 51,
        "5700": 251,
        "5701": 144,
        "5702": 237,
        "5703": 43,
        "5704": 88,
        "5705": 156,
        "5706": 191,
        "5707": 84,
        "5708": 58,
        "5709": 44,
        "5710": 4,
        "5711": 86,
        "5712": 111,
        "5713": 49,
        "5714": 65,
        "5715": 84,
        "5716": 84,
        "5717": 157,
        "5718": 11,
        "5719": 205,
        "5720": 68,
        "5721": 128,
        "5722": 211,
        "5723": 114,
        "5724": 212,
        "5725": 163,
        "5726": 244,
        "5727": 125,
        "5728": 23,
        "5729": 129,
        "5730": 215,
        "5731": 111,
        "5732": 2,
        "5733": 113,
        "5734": 58,
        "5735": 29,
        "5736": 249,
        "5737": 14,
        "5738": 136,
        "5739": 116,
        "5740": 205,
        "5741": 76,
        "5742": 215,
        "5743": 66,
        "5744": 0,
        "5745": 28,
        "5746": 142,
        "5747": 165,
        "5748": 130,
        "5749": 116,
        "5750": 156,
        "5751": 229,
        "5752": 202,
        "5753": 210,
        "5754": 69,
        "5755": 64,
        "5756": 74,
        "5757": 179,
        "5758": 67,
        "5759": 54,
        "5760": 137,
        "5761": 197,
        "5762": 8,
        "5763": 239,
        "5764": 125,
        "5765": 212,
        "5766": 57,
        "5767": 66,
        "5768": 186,
        "5769": 197,
        "5770": 163,
        "5771": 243,
        "5772": 208,
        "5773": 124,
        "5774": 125,
        "5775": 202,
        "5776": 8,
        "5777": 223,
        "5778": 3,
        "5779": 243,
        "5780": 177,
        "5781": 60,
        "5782": 152,
        "5783": 77,
        "5784": 174,
        "5785": 116,
        "5786": 169,
        "5787": 222,
        "5788": 252,
        "5789": 206,
        "5790": 55,
        "5791": 161,
        "5792": 210,
        "5793": 68,
        "5794": 37,
        "5795": 75,
        "5796": 232,
        "5797": 67,
        "5798": 150,
        "5799": 1,
        "5800": 39,
        "5801": 158,
        "5802": 107,
        "5803": 112,
        "5804": 191,
        "5805": 156,
        "5806": 252,
        "5807": 211,
        "5808": 45,
        "5809": 107,
        "5810": 136,
        "5811": 160,
        "5812": 174,
        "5813": 61,
        "5814": 192,
        "5815": 181,
        "5816": 89,
        "5817": 74,
        "5818": 178,
        "5819": 163,
        "5820": 154,
        "5821": 108,
        "5822": 206,
        "5823": 94,
        "5824": 38,
        "5825": 243,
        "5826": 251,
        "5827": 75,
        "5828": 134,
        "5829": 252,
        "5830": 127,
        "5831": 73,
        "5832": 100,
        "5833": 105,
        "5834": 18,
        "5835": 54,
        "5836": 160,
        "5837": 105,
        "5838": 231,
        "5839": 158,
        "5840": 37,
        "5841": 96,
        "5842": 195,
        "5843": 76,
        "5844": 63,
        "5845": 248,
        "5846": 97,
        "5847": 215,
        "5848": 41,
        "5849": 98,
        "5850": 207,
        "5851": 171,
        "5852": 221,
        "5853": 108,
        "5854": 248,
        "5855": 51,
        "5856": 52,
        "5857": 122,
        "5858": 116,
        "5859": 103,
        "5860": 144,
        "5861": 249,
        "5862": 228,
        "5863": 132,
        "5864": 222,
        "5865": 211,
        "5866": 223,
        "5867": 202,
        "5868": 38,
        "5869": 236,
        "5870": 128,
        "5871": 92,
        "5872": 217,
        "5873": 58,
        "5874": 196,
        "5875": 79,
        "5876": 115,
        "5877": 190,
        "5878": 232,
        "5879": 252,
        "5880": 193,
        "5881": 65,
        "5882": 90,
        "5883": 209,
        "5884": 105,
        "5885": 103,
        "5886": 139,
        "5887": 89,
        "5888": 136,
        "5889": 81,
        "5890": 176,
        "5891": 13,
        "5892": 243,
        "5893": 73,
        "5894": 93,
        "5895": 77,
        "5896": 187,
        "5897": 112,
        "5898": 114,
        "5899": 39,
        "5900": 147,
        "5901": 229,
        "5902": 192,
        "5903": 132,
        "5904": 105,
        "5905": 203,
        "5906": 254,
        "5907": 239,
        "5908": 1,
        "5909": 189,
        "5910": 76,
        "5911": 194,
        "5912": 110,
        "5913": 96,
        "5914": 63,
        "5915": 141,
        "5916": 177,
        "5917": 154,
        "5918": 162,
        "5919": 93,
        "5920": 4,
        "5921": 54,
        "5922": 100,
        "5923": 249,
        "5924": 53,
        "5925": 90,
        "5926": 212,
        "5927": 249,
        "5928": 185,
        "5929": 148,
        "5930": 152,
        "5931": 126,
        "5932": 219,
        "5933": 139,
        "5934": 196,
        "5935": 162,
        "5936": 125,
        "5937": 206,
        "5938": 245,
        "5939": 125,
        "5940": 91,
        "5941": 65,
        "5942": 252,
        "5943": 74,
        "5944": 55,
        "5945": 31,
        "5946": 77,
        "5947": 205,
        "5948": 204,
        "5949": 213,
        "5950": 191,
        "5951": 159,
        "5952": 90,
        "5953": 129,
        "5954": 244,
        "5955": 42,
        "5956": 236,
        "5957": 216,
        "5958": 91,
        "5959": 178,
        "5960": 32,
        "5961": 61,
        "5962": 119,
        "5963": 182,
        "5964": 160,
        "5965": 61,
        "5966": 80,
        "5967": 208,
        "5968": 224,
        "5969": 86,
        "5970": 224,
        "5971": 85,
        "5972": 51,
        "5973": 206,
        "5974": 202,
        "5975": 200,
        "5976": 178,
        "5977": 150,
        "5978": 87,
        "5979": 0,
        "5980": 244,
        "5981": 125,
        "5982": 56,
        "5983": 217,
        "5984": 236,
        "5985": 15,
        "5986": 242,
        "5987": 233,
        "5988": 55,
        "5989": 58,
        "5990": 48,
        "5991": 34,
        "5992": 17,
        "5993": 43,
        "5994": 155,
        "5995": 41,
        "5996": 50,
        "5997": 22,
        "5998": 251,
        "5999": 80,
        "6000": 169,
        "6001": 11,
        "6002": 251,
        "6003": 110,
        "6004": 53,
        "6005": 15,
        "6006": 243,
        "6007": 86,
        "6008": 252,
        "6009": 219,
        "6010": 46,
        "6011": 168,
        "6012": 59,
        "6013": 77,
        "6014": 192,
        "6015": 67,
        "6016": 127,
        "6017": 128,
        "6018": 231,
        "6019": 42,
        "6020": 87,
        "6021": 184,
        "6022": 45,
        "6023": 71,
        "6024": 201,
        "6025": 124,
        "6026": 18,
        "6027": 172,
        "6028": 222,
        "6029": 120,
        "6030": 14,
        "6031": 249,
        "6032": 51,
        "6033": 184,
        "6034": 172,
        "6035": 154,
        "6036": 226,
        "6037": 52,
        "6038": 113,
        "6039": 162,
        "6040": 127,
        "6041": 151,
        "6042": 66,
        "6043": 60,
        "6044": 80,
        "6045": 136,
        "6046": 249,
        "6047": 17,
        "6048": 251,
        "6049": 103,
        "6050": 90,
        "6051": 139,
        "6052": 38,
        "6053": 239,
        "6054": 169,
        "6055": 103,
        "6056": 248,
        "6057": 91,
        "6058": 165,
        "6059": 23,
        "6060": 235,
        "6061": 82,
        "6062": 154,
        "6063": 185,
        "6064": 80,
        "6065": 211,
        "6066": 241,
        "6067": 250,
        "6068": 162,
        "6069": 240,
        "6070": 38,
        "6071": 159,
        "6072": 196,
        "6073": 110,
        "6074": 126,
        "6075": 47,
        "6076": 63,
        "6077": 207,
        "6078": 0,
        "6079": 228,
        "6080": 48,
        "6081": 141,
        "6082": 106,
        "6083": 150,
        "6084": 2,
        "6085": 105,
        "6086": 75,
        "6087": 104,
        "6088": 35,
        "6089": 25,
        "6090": 196,
        "6091": 94,
        "6092": 242,
        "6093": 9,
        "6094": 1,
        "6095": 184,
        "6096": 104,
        "6097": 205,
        "6098": 125,
        "6099": 113,
        "6100": 232,
        "6101": 199,
        "6102": 149,
        "6103": 107,
        "6104": 126,
        "6105": 7,
        "6106": 5,
        "6107": 173,
        "6108": 233,
        "6109": 177,
        "6110": 85,
        "6111": 18,
        "6112": 56,
        "6113": 87,
        "6114": 242,
        "6115": 87,
        "6116": 182,
        "6117": 49,
        "6118": 201,
        "6119": 18,
        "6120": 128,
        "6121": 178,
        "6122": 14,
        "6123": 75,
        "6124": 18,
        "6125": 10,
        "6126": 175,
        "6127": 134,
        "6128": 26,
        "6129": 142,
        "6130": 141,
        "6131": 47,
        "6132": 140,
        "6133": 187,
        "6134": 232,
        "6135": 15,
        "6136": 205,
        "6137": 101,
        "6138": 94,
        "6139": 236,
        "6140": 43,
        "6141": 126,
        "6142": 195,
        "6143": 2,
        "6144": 26,
        "6145": 152,
        "6146": 156,
        "6147": 242,
        "6148": 152,
        "6149": 179,
        "6150": 70,
        "6151": 52,
        "6152": 92,
        "6153": 60,
        "6154": 169,
        "6155": 235,
        "6156": 227,
        "6157": 33,
        "6158": 251,
        "6159": 141,
        "6160": 31,
        "6161": 149,
        "6162": 136,
        "6163": 243,
        "6164": 223,
        "6165": 227,
        "6166": 223,
        "6167": 195,
        "6168": 2,
        "6169": 72,
        "6170": 20,
        "6171": 37,
        "6172": 7,
        "6173": 96,
        "6174": 105,
        "6175": 171,
        "6176": 91,
        "6177": 1,
        "6178": 238,
        "6179": 208,
        "6180": 67,
        "6181": 70,
        "6182": 250,
        "6183": 217,
        "6184": 222,
        "6185": 13,
        "6186": 255,
        "6187": 60,
        "6188": 126,
        "6189": 235,
        "6190": 105,
        "6191": 15,
        "6192": 166,
        "6193": 61,
        "6194": 246,
        "6195": 226,
        "6196": 72,
        "6197": 23,
        "6198": 35,
        "6199": 148,
        "6200": 5,
        "6201": 46,
        "6202": 147,
        "6203": 24,
        "6204": 50,
        "6205": 95,
        "6206": 128,
        "6207": 177,
        "6208": 126,
        "6209": 130,
        "6210": 135,
        "6211": 158,
        "6212": 176,
        "6213": 73,
        "6214": 38,
        "6215": 72,
        "6216": 148,
        "6217": 95,
        "6218": 228,
        "6219": 100,
        "6220": 83,
        "6221": 152,
        "6222": 59,
        "6223": 207,
        "6224": 158,
        "6225": 11,
        "6226": 98,
        "6227": 191,
        "6228": 245,
        "6229": 43,
        "6230": 177,
        "6231": 31,
        "6232": 95,
        "6233": 80,
        "6234": 81,
        "6235": 236,
        "6236": 0,
        "6237": 236,
        "6238": 18,
        "6239": 118,
        "6240": 212,
        "6241": 87,
        "6242": 35,
        "6243": 51,
        "6244": 222,
        "6245": 10,
        "6246": 245,
        "6247": 135,
        "6248": 249,
        "6249": 69,
        "6250": 230,
        "6251": 32,
        "6252": 89,
        "6253": 181,
        "6254": 155,
        "6255": 30,
        "6256": 226,
        "6257": 101,
        "6258": 71,
        "6259": 65,
        "6260": 235,
        "6261": 91,
        "6262": 99,
        "6263": 162,
        "6264": 15,
        "6265": 191,
        "6266": 193,
        "6267": 247,
        "6268": 51,
        "6269": 156,
        "6270": 251,
        "6271": 173,
        "6272": 155,
        "6273": 220,
        "6274": 69,
        "6275": 216,
        "6276": 132,
        "6277": 46,
        "6278": 191,
        "6279": 82,
        "6280": 172,
        "6281": 8,
        "6282": 3,
        "6283": 65,
        "6284": 167,
        "6285": 68,
        "6286": 116,
        "6287": 47,
        "6288": 119,
        "6289": 254,
        "6290": 209,
        "6291": 187,
        "6292": 159,
        "6293": 13,
        "6294": 61,
        "6295": 1,
        "6296": 68,
        "6297": 5,
        "6298": 75,
        "6299": 182,
        "6300": 233,
        "6301": 79,
        "6302": 0,
        "6303": 133,
        "6304": 27,
        "6305": 58,
        "6306": 216,
        "6307": 226,
        "6308": 55,
        "6309": 24,
        "6310": 27,
        "6311": 131,
        "6312": 221,
        "6313": 165,
        "6314": 49,
        "6315": 212,
        "6316": 196,
        "6317": 18,
        "6318": 176,
        "6319": 250,
        "6320": 57,
        "6321": 223,
        "6322": 18,
        "6323": 218,
        "6324": 125,
        "6325": 195,
        "6326": 92,
        "6327": 6,
        "6328": 243,
        "6329": 240,
        "6330": 197,
        "6331": 119,
        "6332": 206,
        "6333": 88,
        "6334": 101,
        "6335": 40,
        "6336": 99,
        "6337": 19,
        "6338": 216,
        "6339": 131,
        "6340": 212,
        "6341": 223,
        "6342": 98,
        "6343": 34,
        "6344": 9,
        "6345": 176,
        "6346": 2,
        "6347": 220,
        "6348": 37,
        "6349": 121,
        "6350": 200,
        "6351": 250,
        "6352": 116,
        "6353": 200,
        "6354": 80,
        "6355": 37,
        "6356": 53,
        "6357": 136,
        "6358": 168,
        "6359": 22,
        "6360": 160,
        "6361": 142,
        "6362": 239,
        "6363": 106,
        "6364": 198,
        "6365": 221,
        "6366": 156,
        "6367": 76,
        "6368": 180,
        "6369": 28,
        "6370": 58,
        "6371": 246,
        "6372": 182,
        "6373": 196,
        "6374": 226,
        "6375": 187,
        "6376": 9,
        "6377": 23,
        "6378": 128,
        "6379": 246,
        "6380": 82,
        "6381": 219,
        "6382": 241,
        "6383": 119,
        "6384": 226,
        "6385": 73,
        "6386": 77,
        "6387": 179,
        "6388": 149,
        "6389": 252,
        "6390": 72,
        "6391": 127,
        "6392": 149,
        "6393": 84,
        "6394": 121,
        "6395": 25,
        "6396": 150,
        "6397": 81,
        "6398": 92,
        "6399": 113,
        "6400": 125,
        "6401": 154,
        "6402": 75,
        "6403": 134,
        "6404": 28,
        "6405": 204,
        "6406": 85,
        "6407": 169,
        "6408": 35,
        "6409": 122,
        "6410": 96,
        "6411": 96,
        "6412": 95,
        "6413": 108,
        "6414": 43,
        "6415": 1,
        "6416": 43,
        "6417": 225,
        "6418": 226,
        "6419": 34,
        "6420": 142,
        "6421": 194,
        "6422": 194,
        "6423": 69,
        "6424": 250,
        "6425": 252,
        "6426": 93,
        "6427": 137,
        "6428": 192,
        "6429": 238,
        "6430": 61,
        "6431": 176,
        "6432": 45,
        "6433": 100,
        "6434": 103,
        "6435": 202,
        "6436": 253,
        "6437": 83,
        "6438": 99,
        "6439": 44,
        "6440": 113,
        "6441": 255,
        "6442": 144,
        "6443": 95,
        "6444": 136,
        "6445": 64,
        "6446": 142,
        "6447": 6,
        "6448": 128,
        "6449": 225,
        "6450": 14,
        "6451": 161,
        "6452": 12,
        "6453": 61,
        "6454": 4,
        "6455": 120,
        "6456": 63,
        "6457": 174,
        "6458": 200,
        "6459": 170,
        "6460": 22,
        "6461": 76,
        "6462": 105,
        "6463": 138,
        "6464": 171,
        "6465": 115,
        "6466": 187,
        "6467": 113,
        "6468": 240,
        "6469": 128,
        "6470": 0,
        "6471": 186,
        "6472": 176,
        "6473": 61,
        "6474": 29,
        "6475": 251,
        "6476": 9,
        "6477": 208,
        "6478": 181,
        "6479": 153,
        "6480": 118,
        "6481": 222,
        "6482": 187,
        "6483": 137,
        "6484": 86,
        "6485": 152,
        "6486": 189,
        "6487": 125,
        "6488": 204,
        "6489": 249,
        "6490": 214,
        "6491": 226,
        "6492": 191,
        "6493": 175,
        "6494": 149,
        "6495": 176,
        "6496": 118,
        "6497": 96,
        "6498": 122,
        "6499": 39,
        "6500": 54,
        "6501": 60,
        "6502": 246,
        "6503": 203,
        "6504": 238,
        "6505": 222,
        "6506": 1,
        "6507": 63,
        "6508": 214,
        "6509": 41,
        "6510": 74,
        "6511": 97,
        "6512": 132,
        "6513": 242,
        "6514": 222,
        "6515": 153,
        "6516": 111,
        "6517": 102,
        "6518": 199,
        "6519": 168,
        "6520": 103,
        "6521": 188,
        "6522": 209,
        "6523": 84,
        "6524": 182,
        "6525": 94,
        "6526": 229,
        "6527": 7,
        "6528": 196,
        "6529": 56,
        "6530": 233,
        "6531": 56,
        "6532": 93,
        "6533": 8,
        "6534": 62,
        "6535": 136,
        "6536": 71,
        "6537": 109,
        "6538": 89,
        "6539": 27,
        "6540": 185,
        "6541": 224,
        "6542": 38,
        "6543": 255,
        "6544": 70,
        "6545": 226,
        "6546": 66,
        "6547": 157,
        "6548": 32,
        "6549": 212,
        "6550": 28,
        "6551": 56,
        "6552": 18,
        "6553": 2,
        "6554": 84,
        "6555": 219,
        "6556": 24,
        "6557": 1,
        "6558": 23,
        "6559": 58,
        "6560": 140,
        "6561": 180,
        "6562": 191,
        "6563": 117,
        "6564": 1,
        "6565": 15,
        "6566": 194,
        "6567": 109,
        "6568": 10,
        "6569": 108,
        "6570": 136,
        "6571": 160,
        "6572": 78,
        "6573": 143,
        "6574": 198,
        "6575": 90,
        "6576": 134,
        "6577": 87,
        "6578": 190,
        "6579": 144,
        "6580": 67,
        "6581": 82,
        "6582": 73,
        "6583": 119,
        "6584": 195,
        "6585": 130,
        "6586": 158,
        "6587": 101,
        "6588": 23,
        "6589": 253,
        "6590": 111,
        "6591": 124,
        "6592": 32,
        "6593": 42,
        "6594": 67,
        "6595": 198,
        "6596": 35,
        "6597": 244,
        "6598": 68,
        "6599": 234,
        "6600": 110,
        "6601": 174,
        "6602": 95,
        "6603": 239,
        "6604": 33,
        "6605": 77,
        "6606": 49,
        "6607": 116,
        "6608": 84,
        "6609": 229,
        "6610": 4,
        "6611": 98,
        "6612": 216,
        "6613": 69,
        "6614": 235,
        "6615": 245,
        "6616": 147,
        "6617": 155,
        "6618": 86,
        "6619": 215,
        "6620": 1,
        "6621": 212,
        "6622": 182,
        "6623": 57,
        "6624": 136,
        "6625": 181,
        "6626": 68,
        "6627": 134,
        "6628": 251,
        "6629": 244,
        "6630": 182,
        "6631": 51,
        "6632": 11,
        "6633": 54,
        "6634": 78,
        "6635": 98,
        "6636": 163,
        "6637": 77,
        "6638": 117,
        "6639": 231,
        "6640": 227,
        "6641": 249,
        "6642": 58,
        "6643": 215,
        "6644": 228,
        "6645": 15,
        "6646": 60,
        "6647": 20,
        "6648": 112,
        "6649": 103,
        "6650": 211,
        "6651": 113,
        "6652": 163,
        "6653": 17,
        "6654": 201,
        "6655": 17,
        "6656": 36,
        "6657": 87,
        "6658": 60,
        "6659": 194,
        "6660": 188,
        "6661": 70,
        "6662": 38,
        "6663": 209,
        "6664": 126,
        "6665": 81,
        "6666": 84,
        "6667": 224,
        "6668": 120,
        "6669": 194,
        "6670": 17,
        "6671": 62,
        "6672": 88,
        "6673": 221,
        "6674": 132,
        "6675": 221,
        "6676": 98,
        "6677": 47,
        "6678": 76,
        "6679": 69,
        "6680": 153,
        "6681": 20,
        "6682": 188,
        "6683": 138,
        "6684": 142,
        "6685": 236,
        "6686": 151,
        "6687": 227,
        "6688": 84,
        "6689": 118,
        "6690": 99,
        "6691": 96,
        "6692": 50,
        "6693": 220,
        "6694": 4,
        "6695": 220,
        "6696": 81,
        "6697": 139,
        "6698": 91,
        "6699": 184,
        "6700": 40,
        "6701": 90,
        "6702": 182,
        "6703": 145,
        "6704": 121,
        "6705": 188,
        "6706": 160,
        "6707": 156,
        "6708": 198,
        "6709": 8,
        "6710": 75,
        "6711": 240,
        "6712": 239,
        "6713": 154,
        "6714": 128,
        "6715": 252,
        "6716": 111,
        "6717": 113,
        "6718": 141,
        "6719": 16,
        "6720": 141,
        "6721": 239,
        "6722": 152,
        "6723": 124,
        "6724": 62,
        "6725": 194,
        "6726": 192,
        "6727": 87,
        "6728": 70,
        "6729": 205,
        "6730": 164,
        "6731": 235,
        "6732": 2,
        "6733": 181,
        "6734": 178,
        "6735": 162,
        "6736": 101,
        "6737": 83,
        "6738": 3,
        "6739": 182,
        "6740": 43,
        "6741": 10,
        "6742": 17,
        "6743": 152,
        "6744": 57,
        "6745": 159,
        "6746": 241,
        "6747": 42,
        "6748": 72,
        "6749": 161,
        "6750": 51,
        "6751": 183,
        "6752": 25,
        "6753": 5,
        "6754": 242,
        "6755": 117,
        "6756": 187,
        "6757": 242,
        "6758": 135,
        "6759": 244,
        "6760": 146,
        "6761": 24,
        "6762": 101,
        "6763": 39,
        "6764": 105,
        "6765": 136,
        "6766": 84,
        "6767": 101,
        "6768": 244,
        "6769": 104,
        "6770": 186,
        "6771": 208,
        "6772": 241,
        "6773": 196,
        "6774": 249,
        "6775": 118,
        "6776": 35,
        "6777": 32,
        "6778": 77,
        "6779": 190,
        "6780": 163,
        "6781": 174,
        "6782": 84,
        "6783": 113,
        "6784": 144,
        "6785": 198,
        "6786": 223,
        "6787": 33,
        "6788": 157,
        "6789": 12,
        "6790": 92,
        "6791": 179,
        "6792": 131,
        "6793": 141,
        "6794": 62,
        "6795": 31,
        "6796": 232,
        "6797": 235,
        "6798": 169,
        "6799": 189,
        "6800": 244,
        "6801": 2,
        "6802": 236,
        "6803": 77,
        "6804": 83,
        "6805": 76,
        "6806": 112,
        "6807": 97,
        "6808": 2,
        "6809": 65,
        "6810": 90,
        "6811": 75,
        "6812": 75,
        "6813": 125,
        "6814": 71,
        "6815": 247,
        "6816": 235,
        "6817": 39,
        "6818": 193,
        "6819": 139,
        "6820": 0,
        "6821": 131,
        "6822": 138,
        "6823": 35,
        "6824": 222,
        "6825": 60,
        "6826": 73,
        "6827": 133,
        "6828": 107,
        "6829": 149,
        "6830": 34,
        "6831": 125,
        "6832": 125,
        "6833": 190,
        "6834": 131,
        "6835": 14,
        "6836": 22,
        "6837": 193,
        "6838": 28,
        "6839": 177,
        "6840": 89,
        "6841": 227,
        "6842": 173,
        "6843": 253,
        "6844": 168,
        "6845": 179,
        "6846": 44,
        "6847": 52,
        "6848": 92,
        "6849": 27,
        "6850": 54,
        "6851": 18,
        "6852": 8,
        "6853": 246,
        "6854": 184,
        "6855": 120,
        "6856": 209,
        "6857": 129,
        "6858": 123,
        "6859": 42,
        "6860": 143,
        "6861": 146,
        "6862": 168,
        "6863": 239,
        "6864": 238,
        "6865": 83,
        "6866": 126,
        "6867": 205,
        "6868": 207,
        "6869": 196,
        "6870": 20,
        "6871": 75,
        "6872": 200,
        "6873": 34,
        "6874": 201,
        "6875": 92,
        "6876": 167,
        "6877": 220,
        "6878": 22,
        "6879": 236,
        "6880": 58,
        "6881": 154,
        "6882": 67,
        "6883": 158,
        "6884": 63,
        "6885": 37,
        "6886": 207,
        "6887": 120,
        "6888": 93,
        "6889": 155,
        "6890": 102,
        "6891": 159,
        "6892": 93,
        "6893": 118,
        "6894": 199,
        "6895": 163,
        "6896": 83,
        "6897": 240,
        "6898": 134,
        "6899": 126,
        "6900": 195,
        "6901": 77,
        "6902": 67,
        "6903": 177,
        "6904": 195,
        "6905": 177,
        "6906": 111,
        "6907": 28,
        "6908": 69,
        "6909": 187,
        "6910": 224,
        "6911": 33,
        "6912": 23,
        "6913": 38,
        "6914": 195,
        "6915": 14,
        "6916": 144,
        "6917": 199,
        "6918": 0,
        "6919": 141,
        "6920": 161,
        "6921": 202,
        "6922": 237,
        "6923": 84,
        "6924": 9,
        "6925": 184,
        "6926": 127,
        "6927": 58,
        "6928": 34,
        "6929": 59,
        "6930": 205,
        "6931": 207,
        "6932": 78,
        "6933": 93,
        "6934": 16,
        "6935": 196,
        "6936": 21,
        "6937": 220,
        "6938": 52,
        "6939": 144,
        "6940": 202,
        "6941": 239,
        "6942": 141,
        "6943": 80,
        "6944": 140,
        "6945": 249,
        "6946": 54,
        "6947": 22,
        "6948": 0,
        "6949": 94,
        "6950": 117,
        "6951": 0,
        "6952": 3,
        "6953": 142,
        "6954": 204,
        "6955": 64,
        "6956": 3,
        "6957": 222,
        "6958": 34,
        "6959": 21,
        "6960": 237,
        "6961": 136,
        "6962": 37,
        "6963": 217,
        "6964": 127,
        "6965": 106,
        "6966": 18,
        "6967": 10,
        "6968": 213,
        "6969": 131,
        "6970": 20,
        "6971": 144,
        "6972": 95,
        "6973": 152,
        "6974": 197,
        "6975": 35,
        "6976": 56,
        "6977": 183,
        "6978": 70,
        "6979": 157,
        "6980": 160,
        "6981": 115,
        "6982": 194,
        "6983": 157,
        "6984": 239,
        "6985": 45,
        "6986": 220,
        "6987": 147,
        "6988": 107,
        "6989": 58,
        "6990": 16,
        "6991": 141,
        "6992": 227,
        "6993": 154,
        "6994": 119,
        "6995": 53,
        "6996": 168,
        "6997": 63,
        "6998": 171,
        "6999": 4,
        "7000": 118,
        "7001": 24,
        "7002": 82,
        "7003": 213,
        "7004": 105,
        "7005": 104,
        "7006": 78,
        "7007": 229,
        "7008": 102,
        "7009": 82,
        "7010": 55,
        "7011": 201,
        "7012": 82,
        "7013": 145,
        "7014": 205,
        "7015": 142,
        "7016": 139,
        "7017": 100,
        "7018": 2,
        "7019": 167,
        "7020": 20,
        "7021": 249,
        "7022": 170,
        "7023": 78,
        "7024": 194,
        "7025": 94,
        "7026": 93,
        "7027": 46,
        "7028": 107,
        "7029": 111,
        "7030": 103,
        "7031": 100,
        "7032": 29,
        "7033": 143,
        "7034": 82,
        "7035": 133,
        "7036": 148,
        "7037": 33,
        "7038": 11,
        "7039": 69,
        "7040": 185,
        "7041": 63,
        "7042": 189,
        "7043": 218,
        "7044": 241,
        "7045": 185,
        "7046": 165,
        "7047": 132,
        "7048": 176,
        "7049": 75,
        "7050": 213,
        "7051": 193,
        "7052": 112,
        "7053": 65,
        "7054": 19,
        "7055": 136,
        "7056": 41,
        "7057": 209,
        "7058": 244,
        "7059": 217,
        "7060": 7,
        "7061": 81,
        "7062": 73,
        "7063": 63,
        "7064": 161,
        "7065": 163,
        "7066": 3,
        "7067": 65,
        "7068": 131,
        "7069": 236,
        "7070": 175,
        "7071": 197,
        "7072": 43,
        "7073": 61,
        "7074": 121,
        "7075": 188,
        "7076": 59,
        "7077": 253,
        "7078": 211,
        "7079": 216,
        "7080": 64,
        "7081": 251,
        "7082": 190,
        "7083": 69,
        "7084": 118,
        "7085": 69,
        "7086": 136,
        "7087": 223,
        "7088": 152,
        "7089": 106,
        "7090": 38,
        "7091": 196,
        "7092": 118,
        "7093": 8,
        "7094": 191,
        "7095": 192,
        "7096": 58,
        "7097": 223,
        "7098": 97,
        "7099": 53,
        "7100": 94,
        "7101": 76,
        "7102": 225,
        "7103": 174,
        "7104": 66,
        "7105": 156,
        "7106": 156,
        "7107": 255,
        "7108": 54,
        "7109": 159,
        "7110": 193,
        "7111": 91,
        "7112": 201,
        "7113": 121,
        "7114": 186,
        "7115": 31,
        "7116": 103,
        "7117": 41,
        "7118": 28,
        "7119": 60,
        "7120": 115,
        "7121": 26,
        "7122": 137,
        "7123": 16,
        "7124": 100,
        "7125": 120,
        "7126": 205,
        "7127": 171,
        "7128": 170,
        "7129": 110,
        "7130": 43,
        "7131": 201,
        "7132": 74,
        "7133": 54,
        "7134": 172,
        "7135": 157,
        "7136": 129,
        "7137": 107,
        "7138": 2,
        "7139": 70,
        "7140": 59,
        "7141": 187,
        "7142": 149,
        "7143": 170,
        "7144": 241,
        "7145": 151,
        "7146": 224,
        "7147": 198,
        "7148": 126,
        "7149": 41,
        "7150": 220,
        "7151": 252,
        "7152": 236,
        "7153": 180,
        "7154": 99,
        "7155": 239,
        "7156": 187,
        "7157": 36,
        "7158": 132,
        "7159": 242,
        "7160": 30,
        "7161": 186,
        "7162": 87,
        "7163": 126,
        "7164": 170,
        "7165": 199,
        "7166": 60,
        "7167": 190,
        "7168": 197,
        "7169": 133,
        "7170": 166,
        "7171": 64,
        "7172": 147,
        "7173": 79,
        "7174": 228,
        "7175": 115,
        "7176": 117,
        "7177": 118,
        "7178": 37,
        "7179": 92,
        "7180": 162,
        "7181": 236,
        "7182": 93,
        "7183": 42,
        "7184": 58,
        "7185": 95,
        "7186": 178,
        "7187": 70,
        "7188": 204,
        "7189": 219,
        "7190": 99,
        "7191": 81,
        "7192": 72,
        "7193": 252,
        "7194": 43,
        "7195": 14,
        "7196": 103,
        "7197": 70,
        "7198": 107,
        "7199": 31,
        "7200": 109,
        "7201": 48,
        "7202": 242,
        "7203": 143,
        "7204": 251,
        "7205": 18,
        "7206": 208,
        "7207": 194,
        "7208": 128,
        "7209": 132,
        "7210": 111,
        "7211": 243,
        "7212": 195,
        "7213": 236,
        "7214": 229,
        "7215": 24,
        "7216": 248,
        "7217": 87,
        "7218": 66,
        "7219": 190,
        "7220": 51,
        "7221": 223,
        "7222": 179,
        "7223": 214,
        "7224": 35,
        "7225": 248,
        "7226": 230,
        "7227": 5,
        "7228": 190,
        "7229": 132,
        "7230": 150,
        "7231": 142,
        "7232": 77,
        "7233": 229,
        "7234": 211,
        "7235": 22,
        "7236": 141,
        "7237": 143,
        "7238": 240,
        "7239": 109,
        "7240": 213,
        "7241": 19,
        "7242": 242,
        "7243": 73,
        "7244": 117,
        "7245": 197,
        "7246": 155,
        "7247": 50,
        "7248": 145,
        "7249": 211,
        "7250": 131,
        "7251": 124,
        "7252": 255,
        "7253": 93,
        "7254": 152,
        "7255": 183,
        "7256": 124,
        "7257": 207,
        "7258": 14,
        "7259": 193,
        "7260": 251,
        "7261": 15,
        "7262": 71,
        "7263": 83,
        "7264": 64,
        "7265": 240,
        "7266": 15,
        "7267": 160,
        "7268": 142,
        "7269": 235,
        "7270": 117,
        "7271": 188,
        "7272": 230,
        "7273": 157,
        "7274": 251,
        "7275": 213,
        "7276": 72,
        "7277": 84,
        "7278": 11,
        "7279": 87,
        "7280": 59,
        "7281": 234,
        "7282": 253,
        "7283": 135,
        "7284": 160,
        "7285": 59,
        "7286": 135,
        "7287": 70,
        "7288": 160,
        "7289": 47,
        "7290": 41,
        "7291": 60,
        "7292": 196,
        "7293": 55,
        "7294": 81,
        "7295": 95,
        "7296": 165,
        "7297": 147,
        "7298": 60,
        "7299": 78,
        "7300": 5,
        "7301": 93,
        "7302": 110,
        "7303": 65,
        "7304": 184,
        "7305": 18,
        "7306": 135,
        "7307": 80,
        "7308": 76,
        "7309": 20,
        "7310": 39,
        "7311": 64,
        "7312": 190,
        "7313": 121,
        "7314": 22,
        "7315": 131,
        "7316": 64,
        "7317": 20,
        "7318": 35,
        "7319": 229,
        "7320": 26,
        "7321": 43,
        "7322": 51,
        "7323": 206,
        "7324": 156,
        "7325": 217,
        "7326": 135,
        "7327": 168,
        "7328": 91,
        "7329": 36,
        "7330": 169,
        "7331": 157,
        "7332": 119,
        "7333": 166,
        "7334": 156,
        "7335": 165,
        "7336": 7,
        "7337": 68,
        "7338": 3,
        "7339": 22,
        "7340": 23,
        "7341": 96,
        "7342": 220,
        "7343": 247,
        "7344": 8,
        "7345": 229,
        "7346": 123,
        "7347": 174,
        "7348": 205,
        "7349": 95,
        "7350": 180,
        "7351": 94,
        "7352": 235,
        "7353": 207,
        "7354": 207,
        "7355": 247,
        "7356": 199,
        "7357": 244,
        "7358": 243,
        "7359": 59,
        "7360": 7,
        "7361": 144,
        "7362": 131,
        "7363": 188,
        "7364": 158,
        "7365": 156,
        "7366": 60,
        "7367": 37,
        "7368": 56,
        "7369": 20,
        "7370": 206,
        "7371": 206,
        "7372": 117,
        "7373": 229,
        "7374": 156,
        "7375": 29,
        "7376": 228,
        "7377": 43,
        "7378": 131,
        "7379": 247,
        "7380": 72,
        "7381": 177,
        "7382": 252,
        "7383": 47,
        "7384": 33,
        "7385": 103,
        "7386": 229,
        "7387": 176,
        "7388": 190,
        "7389": 63,
        "7390": 70,
        "7391": 24,
        "7392": 180,
        "7393": 51,
        "7394": 117,
        "7395": 78,
        "7396": 241,
        "7397": 123,
        "7398": 26,
        "7399": 160,
        "7400": 42,
        "7401": 73,
        "7402": 195,
        "7403": 0,
        "7404": 32,
        "7405": 54,
        "7406": 166,
        "7407": 172,
        "7408": 85,
        "7409": 145,
        "7410": 213,
        "7411": 239,
        "7412": 158,
        "7413": 98,
        "7414": 199,
        "7415": 152,
        "7416": 5,
        "7417": 187,
        "7418": 139,
        "7419": 135,
        "7420": 226,
        "7421": 125,
        "7422": 144,
        "7423": 183,
        "7424": 135,
        "7425": 2,
        "7426": 61,
        "7427": 99,
        "7428": 97,
        "7429": 207,
        "7430": 86,
        "7431": 217,
        "7432": 208,
        "7433": 3,
        "7434": 137,
        "7435": 62,
        "7436": 126,
        "7437": 123,
        "7438": 182,
        "7439": 84,
        "7440": 201,
        "7441": 132,
        "7442": 244,
        "7443": 243,
        "7444": 232,
        "7445": 186,
        "7446": 172,
        "7447": 228,
        "7448": 121,
        "7449": 144,
        "7450": 190,
        "7451": 30,
        "7452": 133,
        "7453": 78,
        "7454": 194,
        "7455": 179,
        "7456": 63,
        "7457": 210,
        "7458": 254,
        "7459": 138,
        "7460": 74,
        "7461": 16,
        "7462": 3,
        "7463": 166,
        "7464": 254,
        "7465": 115,
        "7466": 115,
        "7467": 56,
        "7468": 203,
        "7469": 10,
        "7470": 153,
        "7471": 4,
        "7472": 240,
        "7473": 156,
        "7474": 77,
        "7475": 186,
        "7476": 123,
        "7477": 249,
        "7478": 84,
        "7479": 69,
        "7480": 235,
        "7481": 25,
        "7482": 180,
        "7483": 188,
        "7484": 107,
        "7485": 39,
        "7486": 40,
        "7487": 212,
        "7488": 187,
        "7489": 58,
        "7490": 83,
        "7491": 57,
        "7492": 51,
        "7493": 160,
        "7494": 238,
        "7495": 224,
        "7496": 65,
        "7497": 179,
        "7498": 135,
        "7499": 127,
        "7500": 72,
        "7501": 250,
        "7502": 112,
        "7503": 101,
        "7504": 28,
        "7505": 211,
        "7506": 36,
        "7507": 62,
        "7508": 147,
        "7509": 139,
        "7510": 189,
        "7511": 234,
        "7512": 46,
        "7513": 35,
        "7514": 31,
        "7515": 5,
        "7516": 31,
        "7517": 137,
        "7518": 121,
        "7519": 145,
        "7520": 99,
        "7521": 178,
        "7522": 86,
        "7523": 236,
        "7524": 74,
        "7525": 215,
        "7526": 251,
        "7527": 237,
        "7528": 195,
        "7529": 133,
        "7530": 96,
        "7531": 254,
        "7532": 20,
        "7533": 46,
        "7534": 202,
        "7535": 16,
        "7536": 203,
        "7537": 148,
        "7538": 189,
        "7539": 89,
        "7540": 143,
        "7541": 100,
        "7542": 22,
        "7543": 237,
        "7544": 185,
        "7545": 2,
        "7546": 248,
        "7547": 151,
        "7548": 128,
        "7549": 202,
        "7550": 115,
        "7551": 189,
        "7552": 225,
        "7553": 230,
        "7554": 251,
        "7555": 255,
        "7556": 243,
        "7557": 30,
        "7558": 211,
        "7559": 196,
        "7560": 61,
        "7561": 221,
        "7562": 194,
        "7563": 209,
        "7564": 100,
        "7565": 63,
        "7566": 154,
        "7567": 11,
        "7568": 182,
        "7569": 109,
        "7570": 60,
        "7571": 233,
        "7572": 215,
        "7573": 194,
        "7574": 25,
        "7575": 120,
        "7576": 158,
        "7577": 59,
        "7578": 152,
        "7579": 223,
        "7580": 74,
        "7581": 141,
        "7582": 132,
        "7583": 247,
        "7584": 119,
        "7585": 45,
        "7586": 48,
        "7587": 136,
        "7588": 98,
        "7589": 60,
        "7590": 0,
        "7591": 40,
        "7592": 159,
        "7593": 68,
        "7594": 172,
        "7595": 146,
        "7596": 55,
        "7597": 202,
        "7598": 247,
        "7599": 178,
        "7600": 7,
        "7601": 181,
        "7602": 126,
        "7603": 133,
        "7604": 201,
        "7605": 105,
        "7606": 203,
        "7607": 18,
        "7608": 149,
        "7609": 188,
        "7610": 129,
        "7611": 171,
        "7612": 117,
        "7613": 39,
        "7614": 58,
        "7615": 9,
        "7616": 70,
        "7617": 116,
        "7618": 107,
        "7619": 112,
        "7620": 29,
        "7621": 140,
        "7622": 102,
        "7623": 51,
        "7624": 224,
        "7625": 77,
        "7626": 143,
        "7627": 248,
        "7628": 0,
        "7629": 234,
        "7630": 115,
        "7631": 152,
        "7632": 56,
        "7633": 132,
        "7634": 12,
        "7635": 68,
        "7636": 175,
        "7637": 112,
        "7638": 176,
        "7639": 171,
        "7640": 118,
        "7641": 55,
        "7642": 169,
        "7643": 180,
        "7644": 162,
        "7645": 33,
        "7646": 167,
        "7647": 39,
        "7648": 15,
        "7649": 218,
        "7650": 93,
        "7651": 253,
        "7652": 76,
        "7653": 26,
        "7654": 74,
        "7655": 219,
        "7656": 71,
        "7657": 243,
        "7658": 68,
        "7659": 1,
        "7660": 64,
        "7661": 30,
        "7662": 86,
        "7663": 152,
        "7664": 156,
        "7665": 96,
        "7666": 79,
        "7667": 27,
        "7668": 165,
        "7669": 103,
        "7670": 233,
        "7671": 250,
        "7672": 70,
        "7673": 167,
        "7674": 175,
        "7675": 103,
        "7676": 21,
        "7677": 252,
        "7678": 245,
        "7679": 244,
        "7680": 14,
        "7681": 9,
        "7682": 151,
        "7683": 115,
        "7684": 161,
        "7685": 204,
        "7686": 84,
        "7687": 116,
        "7688": 175,
        "7689": 250,
        "7690": 56,
        "7691": 75,
        "7692": 116,
        "7693": 74,
        "7694": 164,
        "7695": 100,
        "7696": 110,
        "7697": 245,
        "7698": 60,
        "7699": 254,
        "7700": 97,
        "7701": 214,
        "7702": 252,
        "7703": 140,
        "7704": 60,
        "7705": 57,
        "7706": 75,
        "7707": 246,
        "7708": 237,
        "7709": 166,
        "7710": 243,
        "7711": 106,
        "7712": 202,
        "7713": 98,
        "7714": 184,
        "7715": 187,
        "7716": 123,
        "7717": 196,
        "7718": 137,
        "7719": 22,
        "7720": 224,
        "7721": 120,
        "7722": 7,
        "7723": 145,
        "7724": 152,
        "7725": 197,
        "7726": 105,
        "7727": 241,
        "7728": 204,
        "7729": 160,
        "7730": 116,
        "7731": 34,
        "7732": 33,
        "7733": 223,
        "7734": 72,
        "7735": 204,
        "7736": 244,
        "7737": 97,
        "7738": 167,
        "7739": 250,
        "7740": 142,
        "7741": 101,
        "7742": 48,
        "7743": 214,
        "7744": 203,
        "7745": 10,
        "7746": 125,
        "7747": 190,
        "7748": 221,
        "7749": 154,
        "7750": 215,
        "7751": 4,
        "7752": 86,
        "7753": 246,
        "7754": 148,
        "7755": 93,
        "7756": 101,
        "7757": 79,
        "7758": 42,
        "7759": 248,
        "7760": 87,
        "7761": 75,
        "7762": 106,
        "7763": 91,
        "7764": 132,
        "7765": 1,
        "7766": 179,
        "7767": 91,
        "7768": 98,
        "7769": 57,
        "7770": 106,
        "7771": 179,
        "7772": 103,
        "7773": 215,
        "7774": 184,
        "7775": 152,
        "7776": 61,
        "7777": 109,
        "7778": 132,
        "7779": 127,
        "7780": 111,
        "7781": 234,
        "7782": 68,
        "7783": 227,
        "7784": 242,
        "7785": 131,
        "7786": 42,
        "7787": 59,
        "7788": 77,
        "7789": 160,
        "7790": 107,
        "7791": 8,
        "7792": 22,
        "7793": 242,
        "7794": 158,
        "7795": 16,
        "7796": 37,
        "7797": 57,
        "7798": 189,
        "7799": 120,
        "7800": 0,
        "7801": 229,
        "7802": 29,
        "7803": 221,
        "7804": 0,
        "7805": 249,
        "7806": 196,
        "7807": 115,
        "7808": 217,
        "7809": 21,
        "7810": 6,
        "7811": 238,
        "7812": 183,
        "7813": 89,
        "7814": 120,
        "7815": 225,
        "7816": 59,
        "7817": 129,
        "7818": 226,
        "7819": 49,
        "7820": 242,
        "7821": 228,
        "7822": 15,
        "7823": 228,
        "7824": 129,
        "7825": 81,
        "7826": 141,
        "7827": 128,
        "7828": 0,
        "7829": 40,
        "7830": 66,
        "7831": 75,
        "7832": 82,
        "7833": 129,
        "7834": 90,
        "7835": 68,
        "7836": 95,
        "7837": 59,
        "7838": 9,
        "7839": 128,
        "7840": 220,
        "7841": 2,
        "7842": 222,
        "7843": 99,
        "7844": 93,
        "7845": 22,
        "7846": 58,
        "7847": 62,
        "7848": 248,
        "7849": 72,
        "7850": 160,
        "7851": 52,
        "7852": 79,
        "7853": 169,
        "7854": 86,
        "7855": 23,
        "7856": 206,
        "7857": 212,
        "7858": 170,
        "7859": 13,
        "7860": 150,
        "7861": 39,
        "7862": 139,
        "7863": 81,
        "7864": 207,
        "7865": 72,
        "7866": 242,
        "7867": 233,
        "7868": 60,
        "7869": 228,
        "7870": 181,
        "7871": 199,
        "7872": 215,
        "7873": 94,
        "7874": 20,
        "7875": 23,
        "7876": 172,
        "7877": 32,
        "7878": 43,
        "7879": 76,
        "7880": 22,
        "7881": 10,
        "7882": 248,
        "7883": 13,
        "7884": 137,
        "7885": 200,
        "7886": 101,
        "7887": 255,
        "7888": 125,
        "7889": 214,
        "7890": 157,
        "7891": 3,
        "7892": 192,
        "7893": 1,
        "7894": 222,
        "7895": 34,
        "7896": 160,
        "7897": 193,
        "7898": 48,
        "7899": 161,
        "7900": 235,
        "7901": 80,
        "7902": 141,
        "7903": 234,
        "7904": 119,
        "7905": 120,
        "7906": 28,
        "7907": 3,
        "7908": 215,
        "7909": 146,
        "7910": 231,
        "7911": 248,
        "7912": 73,
        "7913": 100,
        "7914": 91,
        "7915": 133,
        "7916": 85,
        "7917": 242,
        "7918": 37,
        "7919": 43,
        "7920": 27,
        "7921": 204,
        "7922": 15,
        "7923": 16,
        "7924": 95,
        "7925": 219,
        "7926": 191,
        "7927": 69,
        "7928": 120,
        "7929": 111,
        "7930": 36,
        "7931": 197,
        "7932": 116,
        "7933": 54,
        "7934": 94,
        "7935": 93,
        "7936": 242,
        "7937": 235,
        "7938": 133,
        "7939": 194,
        "7940": 15,
        "7941": 154,
        "7942": 251,
        "7943": 102,
        "7944": 218,
        "7945": 30,
        "7946": 31,
        "7947": 232,
        "7948": 229,
        "7949": 192,
        "7950": 59,
        "7951": 113,
        "7952": 176,
        "7953": 101,
        "7954": 234,
        "7955": 253,
        "7956": 198,
        "7957": 108,
        "7958": 194,
        "7959": 196,
        "7960": 49,
        "7961": 86,
        "7962": 209,
        "7963": 97,
        "7964": 145,
        "7965": 31,
        "7966": 81,
        "7967": 254,
        "7968": 164,
        "7969": 14,
        "7970": 78,
        "7971": 94,
        "7972": 126,
        "7973": 185,
        "7974": 200,
        "7975": 48,
        "7976": 181,
        "7977": 250,
        "7978": 85,
        "7979": 143,
        "7980": 149,
        "7981": 239,
        "7982": 103,
        "7983": 45,
        "7984": 44,
        "7985": 240,
        "7986": 200,
        "7987": 115,
        "7988": 225,
        "7989": 136,
        "7990": 80,
        "7991": 144,
        "7992": 37,
        "7993": 125,
        "7994": 174,
        "7995": 178,
        "7996": 52,
        "7997": 145,
        "7998": 55,
        "7999": 164,
        "8000": 140,
        "8001": 113,
        "8002": 104,
        "8003": 192,
        "8004": 221,
        "8005": 174,
        "8006": 200,
        "8007": 62,
        "8008": 247,
        "8009": 14,
        "8010": 61,
        "8011": 56,
        "8012": 104,
        "8013": 9,
        "8014": 14,
        "8015": 154,
        "8016": 254,
        "8017": 181,
        "8018": 177,
        "8019": 79,
        "8020": 218,
        "8021": 154,
        "8022": 187,
        "8023": 10,
        "8024": 196,
        "8025": 122,
        "8026": 41,
        "8027": 131,
        "8028": 71,
        "8029": 102,
        "8030": 56,
        "8031": 160,
        "8032": 244,
        "8033": 164,
        "8034": 61,
        "8035": 67,
        "8036": 18,
        "8037": 118,
        "8038": 123,
        "8039": 15,
        "8040": 94,
        "8041": 128,
        "8042": 242,
        "8043": 40,
        "8044": 179,
        "8045": 148,
        "8046": 33,
        "8047": 79,
        "8048": 113,
        "8049": 103,
        "8050": 34,
        "8051": 227,
        "8052": 229,
        "8053": 36,
        "8054": 36,
        "8055": 97,
        "8056": 123,
        "8057": 109,
        "8058": 234,
        "8059": 38,
        "8060": 135,
        "8061": 153,
        "8062": 220,
        "8063": 67,
        "8064": 67,
        "8065": 71,
        "8066": 175,
        "8067": 52,
        "8068": 220,
        "8069": 200,
        "8070": 247,
        "8071": 149,
        "8072": 101,
        "8073": 200,
        "8074": 34,
        "8075": 178,
        "8076": 177,
        "8077": 11,
        "8078": 188,
        "8079": 206,
        "8080": 195,
        "8081": 29,
        "8082": 136,
        "8083": 82,
        "8084": 192,
        "8085": 195,
        "8086": 172,
        "8087": 62,
        "8088": 224,
        "8089": 216,
        "8090": 221,
        "8091": 218,
        "8092": 58,
        "8093": 224,
        "8094": 214,
        "8095": 88,
        "8096": 114,
        "8097": 64,
        "8098": 113,
        "8099": 21,
        "8100": 48,
        "8101": 193,
        "8102": 178,
        "8103": 162,
        "8104": 121,
        "8105": 150,
        "8106": 153,
        "8107": 54,
        "8108": 85,
        "8109": 1,
        "8110": 226,
        "8111": 232,
        "8112": 206,
        "8113": 249,
        "8114": 115,
        "8115": 159,
        "8116": 61,
        "8117": 65,
        "8118": 147,
        "8119": 94,
        "8120": 109,
        "8121": 243,
        "8122": 59,
        "8123": 156,
        "8124": 184,
        "8125": 100,
        "8126": 84,
        "8127": 125,
        "8128": 249,
        "8129": 11,
        "8130": 84,
        "8131": 102,
        "8132": 152,
        "8133": 219,
        "8134": 196,
        "8135": 51,
        "8136": 159,
        "8137": 254,
        "8138": 173,
        "8139": 141,
        "8140": 65,
        "8141": 104,
        "8142": 248,
        "8143": 130,
        "8144": 15,
        "8145": 35,
        "8146": 125,
        "8147": 202,
        "8148": 8,
        "8149": 158,
        "8150": 32,
        "8151": 87,
        "8152": 44,
        "8153": 129,
        "8154": 206,
        "8155": 6,
        "8156": 182,
        "8157": 253,
        "8158": 1,
        "8159": 181,
        "8160": 24,
        "8161": 5,
        "8162": 21,
        "8163": 81,
        "8164": 128,
        "8165": 169,
        "8166": 184,
        "8167": 102,
        "8168": 97,
        "8169": 96,
        "8170": 95,
        "8171": 108,
        "8172": 252,
        "8173": 223,
        "8174": 166,
        "8175": 193,
        "8176": 93,
        "8177": 194,
        "8178": 232,
        "8179": 30,
        "8180": 44,
        "8181": 190,
        "8182": 149,
        "8183": 155,
        "8184": 86,
        "8185": 221,
        "8186": 250,
        "8187": 203,
        "8188": 51,
        "8189": 119,
        "8190": 142,
        "8191": 66,
        "8192": 227,
        "8193": 130,
        "8194": 163,
        "8195": 109,
        "8196": 1,
        "8197": 197,
        "8198": 105,
        "8199": 17,
        "8200": 216,
        "8201": 8,
        "8202": 42,
        "8203": 180,
        "8204": 8,
        "8205": 195,
        "8206": 19,
        "8207": 124,
        "8208": 2,
        "8209": 230,
        "8210": 0,
        "8211": 52,
        "8212": 203,
        "8213": 106,
        "8214": 47,
        "8215": 55,
        "8216": 134,
        "8217": 86,
        "8218": 31,
        "8219": 133,
        "8220": 197,
        "8221": 53,
        "8222": 83,
        "8223": 77,
        "8224": 80,
        "8225": 172,
        "8226": 9,
        "8227": 123,
        "8228": 253,
        "8229": 171,
        "8230": 111,
        "8231": 219,
        "8232": 56,
        "8233": 126,
        "8234": 74,
        "8235": 107,
        "8236": 120,
        "8237": 78,
        "8238": 209,
        "8239": 213,
        "8240": 34,
        "8241": 89,
        "8242": 62,
        "8243": 198,
        "8244": 83,
        "8245": 222,
        "8246": 111,
        "8247": 118,
        "8248": 12,
        "8249": 199,
        "8250": 117,
        "8251": 24,
        "8252": 131,
        "8253": 199,
        "8254": 235,
        "8255": 25,
        "8256": 169,
        "8257": 221,
        "8258": 162,
        "8259": 64,
        "8260": 137,
        "8261": 110,
        "8262": 140,
        "8263": 202,
        "8264": 134,
        "8265": 190,
        "8266": 190,
        "8267": 94,
        "8268": 177,
        "8269": 139,
        "8270": 117,
        "8271": 233,
        "8272": 13,
        "8273": 220,
        "8274": 93,
        "8275": 255,
        "8276": 232,
        "8277": 155,
        "8278": 24,
        "8279": 211,
        "8280": 248,
        "8281": 16,
        "8282": 226,
        "8283": 253,
        "8284": 67,
        "8285": 197,
        "8286": 219,
        "8287": 192,
        "8288": 126,
        "8289": 57,
        "8290": 114,
        "8291": 87,
        "8292": 179,
        "8293": 174,
        "8294": 136,
        "8295": 54,
        "8296": 99,
        "8297": 0,
        "8298": 118,
        "8299": 139,
        "8300": 64,
        "8301": 100,
        "8302": 226,
        "8303": 92,
        "8304": 37,
        "8305": 251,
        "8306": 50,
        "8307": 66,
        "8308": 216,
        "8309": 58,
        "8310": 34,
        "8311": 112,
        "8312": 160,
        "8313": 83,
        "8314": 32,
        "8315": 36,
        "8316": 130,
        "8317": 28,
        "8318": 20,
        "8319": 193,
        "8320": 134,
        "8321": 135,
        "8322": 42,
        "8323": 176,
        "8324": 67,
        "8325": 213,
        "8326": 41,
        "8327": 50,
        "8328": 53,
        "8329": 143,
        "8330": 153,
        "8331": 38,
        "8332": 179,
        "8333": 17,
        "8334": 120,
        "8335": 30,
        "8336": 193,
        "8337": 73,
        "8338": 104,
        "8339": 43,
        "8340": 183,
        "8341": 165,
        "8342": 137,
        "8343": 199,
        "8344": 242,
        "8345": 18,
        "8346": 216,
        "8347": 100,
        "8348": 166,
        "8349": 113,
        "8350": 112,
        "8351": 27,
        "8352": 147,
        "8353": 32,
        "8354": 223,
        "8355": 3,
        "8356": 224,
        "8357": 48,
        "8358": 255,
        "8359": 98,
        "8360": 9,
        "8361": 207,
        "8362": 85,
        "8363": 53,
        "8364": 177,
        "8365": 205,
        "8366": 231,
        "8367": 17,
        "8368": 79,
        "8369": 140,
        "8370": 52,
        "8371": 155,
        "8372": 45,
        "8373": 173,
        "8374": 43,
        "8375": 87,
        "8376": 46,
        "8377": 207,
        "8378": 158,
        "8379": 22,
        "8380": 151,
        "8381": 231,
        "8382": 203,
        "8383": 78,
        "8384": 235,
        "8385": 60,
        "8386": 28,
        "8387": 62,
        "8388": 213,
        "8389": 165,
        "8390": 0,
        "8391": 132,
        "8392": 80,
        "8393": 59,
        "8394": 76,
        "8395": 212,
        "8396": 55,
        "8397": 131,
        "8398": 133,
        "8399": 188,
        "8400": 246,
        "8401": 103,
        "8402": 84,
        "8403": 60,
        "8404": 200,
        "8405": 82,
        "8406": 155,
        "8407": 15,
        "8408": 183,
        "8409": 135,
        "8410": 67,
        "8411": 227,
        "8412": 4,
        "8413": 219,
        "8414": 138,
        "8415": 232,
        "8416": 179,
        "8417": 10,
        "8418": 197,
        "8419": 67,
        "8420": 131,
        "8421": 208,
        "8422": 139,
        "8423": 196,
        "8424": 73,
        "8425": 137,
        "8426": 205,
        "8427": 114,
        "8428": 156,
        "8429": 162,
        "8430": 37,
        "8431": 29,
        "8432": 245,
        "8433": 66,
        "8434": 93,
        "8435": 138,
        "8436": 19,
        "8437": 146,
        "8438": 186,
        "8439": 46,
        "8440": 235,
        "8441": 3,
        "8442": 50,
        "8443": 217,
        "8444": 160,
        "8445": 93,
        "8446": 83,
        "8447": 58,
        "8448": 164,
        "8449": 132,
        "8450": 169,
        "8451": 157,
        "8452": 170,
        "8453": 91,
        "8454": 64,
        "8455": 66,
        "8456": 214,
        "8457": 143,
        "8458": 1,
        "8459": 232,
        "8460": 108,
        "8461": 49,
        "8462": 2,
        "8463": 168,
        "8464": 213,
        "8465": 174,
        "8466": 227,
        "8467": 162,
        "8468": 228,
        "8469": 146,
        "8470": 38,
        "8471": 201,
        "8472": 22,
        "8473": 47,
        "8474": 236,
        "8475": 60,
        "8476": 40,
        "8477": 152,
        "8478": 121,
        "8479": 178,
        "8480": 61,
        "8481": 183,
        "8482": 200,
        "8483": 234,
        "8484": 26,
        "8485": 244,
        "8486": 8,
        "8487": 123,
        "8488": 39,
        "8489": 176,
        "8490": 32,
        "8491": 1,
        "8492": 93,
        "8493": 14,
        "8494": 19,
        "8495": 234,
        "8496": 248,
        "8497": 212,
        "8498": 144,
        "8499": 227,
        "8500": 161,
        "8501": 62,
        "8502": 57,
        "8503": 12,
        "8504": 92,
        "8505": 222,
        "8506": 104,
        "8507": 0,
        "8508": 181,
        "8509": 151,
        "8510": 99,
        "8511": 19,
        "8512": 89,
        "8513": 101,
        "8514": 65,
        "8515": 81,
        "8516": 131,
        "8517": 185,
        "8518": 36,
        "8519": 141,
        "8520": 100,
        "8521": 62,
        "8522": 134,
        "8523": 125,
        "8524": 23,
        "8525": 181,
        "8526": 64,
        "8527": 150,
        "8528": 80,
        "8529": 118,
        "8530": 172,
        "8531": 73,
        "8532": 219,
        "8533": 8,
        "8534": 134,
        "8535": 85,
        "8536": 84,
        "8537": 82,
        "8538": 111,
        "8539": 197,
        "8540": 234,
        "8541": 60,
        "8542": 5,
        "8543": 235,
        "8544": 102,
        "8545": 129,
        "8546": 229,
        "8547": 236,
        "8548": 141,
        "8549": 13,
        "8550": 252,
        "8551": 155,
        "8552": 60,
        "8553": 255,
        "8554": 177,
        "8555": 58,
        "8556": 252,
        "8557": 15,
        "8558": 164,
        "8559": 135,
        "8560": 28,
        "8561": 8,
        "8562": 29,
        "8563": 70,
        "8564": 251,
        "8565": 52,
        "8566": 15,
        "8567": 170,
        "8568": 200,
        "8569": 43,
        "8570": 56,
        "8571": 45,
        "8572": 170,
        "8573": 63,
        "8574": 144,
        "8575": 209,
        "8576": 19,
        "8577": 24,
        "8578": 148,
        "8579": 27,
        "8580": 184,
        "8581": 86,
        "8582": 74,
        "8583": 102,
        "8584": 245,
        "8585": 204,
        "8586": 66,
        "8587": 147,
        "8588": 25,
        "8589": 105,
        "8590": 147,
        "8591": 156,
        "8592": 241,
        "8593": 85,
        "8594": 11,
        "8595": 123,
        "8596": 143,
        "8597": 222,
        "8598": 33,
        "8599": 204,
        "8600": 163,
        "8601": 171,
        "8602": 26,
        "8603": 91,
        "8604": 75,
        "8605": 33,
        "8606": 25,
        "8607": 141,
        "8608": 93,
        "8609": 232,
        "8610": 85,
        "8611": 185,
        "8612": 152,
        "8613": 25,
        "8614": 6,
        "8615": 86,
        "8616": 51,
        "8617": 166,
        "8618": 20,
        "8619": 85,
        "8620": 220,
        "8621": 228,
        "8622": 182,
        "8623": 169,
        "8624": 124,
        "8625": 223,
        "8626": 32,
        "8627": 86,
        "8628": 202,
        "8629": 48,
        "8630": 93,
        "8631": 16,
        "8632": 254,
        "8633": 157,
        "8634": 234,
        "8635": 8,
        "8636": 254,
        "8637": 58,
        "8638": 221,
        "8639": 51,
        "8640": 189,
        "8641": 1,
        "8642": 210,
        "8643": 192,
        "8644": 7,
        "8645": 250,
        "8646": 150,
        "8647": 157,
        "8648": 46,
        "8649": 108,
        "8650": 238,
        "8651": 164,
        "8652": 166,
        "8653": 156,
        "8654": 168,
        "8655": 12,
        "8656": 249,
        "8657": 52,
        "8658": 84,
        "8659": 74,
        "8660": 165,
        "8661": 130,
        "8662": 236,
        "8663": 205,
        "8664": 55,
        "8665": 110,
        "8666": 9,
        "8667": 134,
        "8668": 68,
        "8669": 251,
        "8670": 64,
        "8671": 22,
        "8672": 211,
        "8673": 179,
        "8674": 236,
        "8675": 117,
        "8676": 254,
        "8677": 79,
        "8678": 99,
        "8679": 135,
        "8680": 0,
        "8681": 135,
        "8682": 136,
        "8683": 235,
        "8684": 6,
        "8685": 14,
        "8686": 25,
        "8687": 152,
        "8688": 25,
        "8689": 243,
        "8690": 163,
        "8691": 202,
        "8692": 135,
        "8693": 190,
        "8694": 108,
        "8695": 127,
        "8696": 160,
        "8697": 23,
        "8698": 194,
        "8699": 90,
        "8700": 179,
        "8701": 129,
        "8702": 214,
        "8703": 135,
        "8704": 177,
        "8705": 48,
        "8706": 159,
        "8707": 210,
        "8708": 198,
        "8709": 169,
        "8710": 83,
        "8711": 14,
        "8712": 149,
        "8713": 175,
        "8714": 219,
        "8715": 134,
        "8716": 184,
        "8717": 225,
        "8718": 200,
        "8719": 52,
        "8720": 18,
        "8721": 48,
        "8722": 157,
        "8723": 216,
        "8724": 3,
        "8725": 146,
        "8726": 78,
        "8727": 230,
        "8728": 128,
        "8729": 156,
        "8730": 197,
        "8731": 137,
        "8732": 25,
        "8733": 7,
        "8734": 172,
        "8735": 145,
        "8736": 192,
        "8737": 76,
        "8738": 224,
        "8739": 124,
        "8740": 183,
        "8741": 124,
        "8742": 76,
        "8743": 103,
        "8744": 70,
        "8745": 7,
        "8746": 184,
        "8747": 148,
        "8748": 154,
        "8749": 45,
        "8750": 134,
        "8751": 218,
        "8752": 3,
        "8753": 178,
        "8754": 239,
        "8755": 157,
        "8756": 77,
        "8757": 242,
        "8758": 190,
        "8759": 37,
        "8760": 232,
        "8761": 246,
        "8762": 10,
        "8763": 204,
        "8764": 199,
        "8765": 195,
        "8766": 180,
        "8767": 232,
        "8768": 132,
        "8769": 118,
        "8770": 124,
        "8771": 181,
        "8772": 14,
        "8773": 214,
        "8774": 252,
        "8775": 250,
        "8776": 26,
        "8777": 241,
        "8778": 217,
        "8779": 33,
        "8780": 24,
        "8781": 51,
        "8782": 26,
        "8783": 146,
        "8784": 207,
        "8785": 171,
        "8786": 161,
        "8787": 191,
        "8788": 212,
        "8789": 243,
        "8790": 167,
        "8791": 205,
        "8792": 205,
        "8793": 158,
        "8794": 73,
        "8795": 104,
        "8796": 149,
        "8797": 224,
        "8798": 10,
        "8799": 92,
        "8800": 53,
        "8801": 37,
        "8802": 163,
        "8803": 67,
        "8804": 153,
        "8805": 100,
        "8806": 175,
        "8807": 122,
        "8808": 249,
        "8809": 250,
        "8810": 99,
        "8811": 50,
        "8812": 140,
        "8813": 19,
        "8814": 80,
        "8815": 135,
        "8816": 101,
        "8817": 193,
        "8818": 240,
        "8819": 78,
        "8820": 8,
        "8821": 215,
        "8822": 164,
        "8823": 95,
        "8824": 165,
        "8825": 32,
        "8826": 201,
        "8827": 74,
        "8828": 247,
        "8829": 148,
        "8830": 150,
        "8831": 246,
        "8832": 244,
        "8833": 155,
        "8834": 218,
        "8835": 104,
        "8836": 142,
        "8837": 86,
        "8838": 82,
        "8839": 250,
        "8840": 132,
        "8841": 75,
        "8842": 86,
        "8843": 54,
        "8844": 188,
        "8845": 130,
        "8846": 82,
        "8847": 219,
        "8848": 184,
        "8849": 178,
        "8850": 131,
        "8851": 97,
        "8852": 132,
        "8853": 184,
        "8854": 42,
        "8855": 165,
        "8856": 100,
        "8857": 138,
        "8858": 151,
        "8859": 35,
        "8860": 222,
        "8861": 210,
        "8862": 154,
        "8863": 117,
        "8864": 241,
        "8865": 157,
        "8866": 61,
        "8867": 58,
        "8868": 94,
        "8869": 0,
        "8870": 205,
        "8871": 13,
        "8872": 84,
        "8873": 145,
        "8874": 227,
        "8875": 66,
        "8876": 226,
        "8877": 69,
        "8878": 147,
        "8879": 237,
        "8880": 74,
        "8881": 219,
        "8882": 75,
        "8883": 179,
        "8884": 70,
        "8885": 45,
        "8886": 4,
        "8887": 255,
        "8888": 106,
        "8889": 92,
        "8890": 146,
        "8891": 216,
        "8892": 77,
        "8893": 40,
        "8894": 207,
        "8895": 250,
        "8896": 75,
        "8897": 245,
        "8898": 81,
        "8899": 174,
        "8900": 67,
        "8901": 171,
        "8902": 175,
        "8903": 219,
        "8904": 240,
        "8905": 28,
        "8906": 222,
        "8907": 97,
        "8908": 136,
        "8909": 129,
        "8910": 91,
        "8911": 229,
        "8912": 37,
        "8913": 158,
        "8914": 100,
        "8915": 168,
        "8916": 23,
        "8917": 90,
        "8918": 89,
        "8919": 108,
        "8920": 132,
        "8921": 189,
        "8922": 145,
        "8923": 164,
        "8924": 140,
        "8925": 38,
        "8926": 2,
        "8927": 238,
        "8928": 167,
        "8929": 198,
        "8930": 0,
        "8931": 226,
        "8932": 86,
        "8933": 130,
        "8934": 214,
        "8935": 232,
        "8936": 181,
        "8937": 34,
        "8938": 59,
        "8939": 192,
        "8940": 5,
        "8941": 168,
        "8942": 163,
        "8943": 141,
        "8944": 240,
        "8945": 220,
        "8946": 12,
        "8947": 13,
        "8948": 61,
        "8949": 70,
        "8950": 202,
        "8951": 13,
        "8952": 203,
        "8953": 122,
        "8954": 152,
        "8955": 18,
        "8956": 244,
        "8957": 14,
        "8958": 0,
        "8959": 9,
        "8960": 122,
        "8961": 108,
        "8962": 53,
        "8963": 123,
        "8964": 216,
        "8965": 79,
        "8966": 217,
        "8967": 129,
        "8968": 198,
        "8969": 140,
        "8970": 112,
        "8971": 217,
        "8972": 133,
        "8973": 78,
        "8974": 92,
        "8975": 155,
        "8976": 99,
        "8977": 31,
        "8978": 110,
        "8979": 60,
        "8980": 158,
        "8981": 3,
        "8982": 101,
        "8983": 11,
        "8984": 177,
        "8985": 36,
        "8986": 225,
        "8987": 193,
        "8988": 233,
        "8989": 98,
        "8990": 228,
        "8991": 254,
        "8992": 158,
        "8993": 48,
        "8994": 226,
        "8995": 109,
        "8996": 102,
        "8997": 95,
        "8998": 125,
        "8999": 54,
        "9000": 140,
        "9001": 8,
        "9002": 96,
        "9003": 91,
        "9004": 123,
        "9005": 150,
        "9006": 154,
        "9007": 62,
        "9008": 227,
        "9009": 219,
        "9010": 26,
        "9011": 244,
        "9012": 29,
        "9013": 155,
        "9014": 191,
        "9015": 218,
        "9016": 46,
        "9017": 122,
        "9018": 184,
        "9019": 109,
        "9020": 94,
        "9021": 25,
        "9022": 81,
        "9023": 60,
        "9024": 148,
        "9025": 67,
        "9026": 109,
        "9027": 11,
        "9028": 15,
        "9029": 171,
        "9030": 48,
        "9031": 40,
        "9032": 19,
        "9033": 205,
        "9034": 42,
        "9035": 172,
        "9036": 5,
        "9037": 28,
        "9038": 245,
        "9039": 57,
        "9040": 199,
        "9041": 172,
        "9042": 2,
        "9043": 51,
        "9044": 95,
        "9045": 0,
        "9046": 83,
        "9047": 214,
        "9048": 50,
        "9049": 2,
        "9050": 16,
        "9051": 213,
        "9052": 49,
        "9053": 166,
        "9054": 201,
        "9055": 198,
        "9056": 231,
        "9057": 85,
        "9058": 65,
        "9059": 182,
        "9060": 2,
        "9061": 18,
        "9062": 148,
        "9063": 183,
        "9064": 206,
        "9065": 189,
        "9066": 88,
        "9067": 19,
        "9068": 122,
        "9069": 213,
        "9070": 77,
        "9071": 56,
        "9072": 63,
        "9073": 93,
        "9074": 227,
        "9075": 12,
        "9076": 194,
        "9077": 153,
        "9078": 254,
        "9079": 218,
        "9080": 214,
        "9081": 220,
        "9082": 91,
        "9083": 189,
        "9084": 6,
        "9085": 151,
        "9086": 198,
        "9087": 16,
        "9088": 251,
        "9089": 23,
        "9090": 99,
        "9091": 244,
        "9092": 153,
        "9093": 255,
        "9094": 254,
        "9095": 105,
        "9096": 229,
        "9097": 242,
        "9098": 103,
        "9099": 137,
        "9100": 63,
        "9101": 198,
        "9102": 241,
        "9103": 249,
        "9104": 129,
        "9105": 36,
        "9106": 107,
        "9107": 100,
        "9108": 183,
        "9109": 243,
        "9110": 171,
        "9111": 166,
        "9112": 224,
        "9113": 86,
        "9114": 213,
        "9115": 45,
        "9116": 112,
        "9117": 9,
        "9118": 206,
        "9119": 103,
        "9120": 147,
        "9121": 108,
        "9122": 204,
        "9123": 9,
        "9124": 25,
        "9125": 205,
        "9126": 149,
        "9127": 161,
        "9128": 5,
        "9129": 204,
        "9130": 155,
        "9131": 202,
        "9132": 52,
        "9133": 108,
        "9134": 93,
        "9135": 67,
        "9136": 12,
        "9137": 112,
        "9138": 45,
        "9139": 140,
        "9140": 81,
        "9141": 130,
        "9142": 110,
        "9143": 3,
        "9144": 190,
        "9145": 73,
        "9146": 82,
        "9147": 141,
        "9148": 121,
        "9149": 216,
        "9150": 176,
        "9151": 120,
        "9152": 1,
        "9153": 107,
        "9154": 148,
        "9155": 228,
        "9156": 64,
        "9157": 111,
        "9158": 126,
        "9159": 13,
        "9160": 65,
        "9161": 238,
        "9162": 112,
        "9163": 60,
        "9164": 195,
        "9165": 170,
        "9166": 201,
        "9167": 97,
        "9168": 28,
        "9169": 157,
        "9170": 159,
        "9171": 35,
        "9172": 242,
        "9173": 181,
        "9174": 120,
        "9175": 56,
        "9176": 150,
        "9177": 223,
        "9178": 32,
        "9179": 153,
        "9180": 19,
        "9181": 187,
        "9182": 121,
        "9183": 177,
        "9184": 116,
        "9185": 16,
        "9186": 238,
        "9187": 146,
        "9188": 75,
        "9189": 116,
        "9190": 165,
        "9191": 253,
        "9192": 174,
        "9193": 111,
        "9194": 189,
        "9195": 205,
        "9196": 195,
        "9197": 226,
        "9198": 83,
        "9199": 25,
        "9200": 243,
        "9201": 81,
        "9202": 252,
        "9203": 62,
        "9204": 31,
        "9205": 147,
        "9206": 243,
        "9207": 117,
        "9208": 72,
        "9209": 103,
        "9210": 24,
        "9211": 81,
        "9212": 226,
        "9213": 247,
        "9214": 157,
        "9215": 48,
        "9216": 57,
        "9217": 204,
        "9218": 236,
        "9219": 48,
        "9220": 140,
        "9221": 192,
        "9222": 164,
        "9223": 19,
        "9224": 198,
        "9225": 98,
        "9226": 0,
        "9227": 248,
        "9228": 71,
        "9229": 171,
        "9230": 152,
        "9231": 42,
        "9232": 50,
        "9233": 125,
        "9234": 169,
        "9235": 242,
        "9236": 103,
        "9237": 155,
        "9238": 59,
        "9239": 160,
        "9240": 130,
        "9241": 148,
        "9242": 247,
        "9243": 209,
        "9244": 114,
        "9245": 97,
        "9246": 252,
        "9247": 170,
        "9248": 75,
        "9249": 229,
        "9250": 12,
        "9251": 9,
        "9252": 78,
        "9253": 251,
        "9254": 131,
        "9255": 129,
        "9256": 37,
        "9257": 149,
        "9258": 195,
        "9259": 30,
        "9260": 243,
        "9261": 237,
        "9262": 208,
        "9263": 67,
        "9264": 66,
        "9265": 210,
        "9266": 132,
        "9267": 164,
        "9268": 108,
        "9269": 137,
        "9270": 213,
        "9271": 82,
        "9272": 161,
        "9273": 174,
        "9274": 113,
        "9275": 75,
        "9276": 237,
        "9277": 30,
        "9278": 110,
        "9279": 10,
        "9280": 106,
        "9281": 100,
        "9282": 251,
        "9283": 196,
        "9284": 199,
        "9285": 198,
        "9286": 138,
        "9287": 3,
        "9288": 43,
        "9289": 12,
        "9290": 85,
        "9291": 153,
        "9292": 51,
        "9293": 97,
        "9294": 37,
        "9295": 166,
        "9296": 127,
        "9297": 232,
        "9298": 102,
        "9299": 96,
        "9300": 15,
        "9301": 56,
        "9302": 244,
        "9303": 92,
        "9304": 6,
        "9305": 84,
        "9306": 184,
        "9307": 112,
        "9308": 224,
        "9309": 104,
        "9310": 102,
        "9311": 110,
        "9312": 76,
        "9313": 64,
        "9314": 74,
        "9315": 180,
        "9316": 6,
        "9317": 102,
        "9318": 136,
        "9319": 190,
        "9320": 46,
        "9321": 51,
        "9322": 96,
        "9323": 64,
        "9324": 88,
        "9325": 6,
        "9326": 55,
        "9327": 132,
        "9328": 69,
        "9329": 14,
        "9330": 120,
        "9331": 88,
        "9332": 7,
        "9333": 242,
        "9334": 131,
        "9335": 137,
        "9336": 203,
        "9337": 133,
        "9338": 199,
        "9339": 109,
        "9340": 219,
        "9341": 106,
        "9342": 232,
        "9343": 198,
        "9344": 175,
        "9345": 233,
        "9346": 176,
        "9347": 203,
        "9348": 176,
        "9349": 63,
        "9350": 152,
        "9351": 16,
        "9352": 15,
        "9353": 74,
        "9354": 224,
        "9355": 249,
        "9356": 162,
        "9357": 204,
        "9358": 81,
        "9359": 213,
        "9360": 115,
        "9361": 47,
        "9362": 189,
        "9363": 42,
        "9364": 0,
        "9365": 23,
        "9366": 128,
        "9367": 72,
        "9368": 186,
        "9369": 141,
        "9370": 93,
        "9371": 207,
        "9372": 76,
        "9373": 11,
        "9374": 143,
        "9375": 68,
        "9376": 136,
        "9377": 132,
        "9378": 158,
        "9379": 214,
        "9380": 138,
        "9381": 227,
        "9382": 140,
        "9383": 240,
        "9384": 158,
        "9385": 176,
        "9386": 80,
        "9387": 113,
        "9388": 7,
        "9389": 168,
        "9390": 138,
        "9391": 52,
        "9392": 182,
        "9393": 202,
        "9394": 179,
        "9395": 213,
        "9396": 134,
        "9397": 58,
        "9398": 108,
        "9399": 96,
        "9400": 208,
        "9401": 104,
        "9402": 107,
        "9403": 21,
        "9404": 237,
        "9405": 208,
        "9406": 249,
        "9407": 1,
        "9408": 156,
        "9409": 24,
        "9410": 99,
        "9411": 6,
        "9412": 109,
        "9413": 211,
        "9414": 155,
        "9415": 172,
        "9416": 159,
        "9417": 248,
        "9418": 238,
        "9419": 180,
        "9420": 186,
        "9421": 229,
        "9422": 33,
        "9423": 228,
        "9424": 221,
        "9425": 115,
        "9426": 128,
        "9427": 226,
        "9428": 242,
        "9429": 108,
        "9430": 59,
        "9431": 137,
        "9432": 202,
        "9433": 144,
        "9434": 199,
        "9435": 19,
        "9436": 147,
        "9437": 245,
        "9438": 247,
        "9439": 182,
        "9440": 180,
        "9441": 155,
        "9442": 207,
        "9443": 158,
        "9444": 165,
        "9445": 44,
        "9446": 102,
        "9447": 212,
        "9448": 179,
        "9449": 98,
        "9450": 79,
        "9451": 205,
        "9452": 111,
        "9453": 44,
        "9454": 173,
        "9455": 0,
        "9456": 238,
        "9457": 237,
        "9458": 31,
        "9459": 50,
        "9460": 66,
        "9461": 84,
        "9462": 142,
        "9463": 148,
        "9464": 254,
        "9465": 140,
        "9466": 27,
        "9467": 84,
        "9468": 42,
        "9469": 118,
        "9470": 254,
        "9471": 101,
        "9472": 196,
        "9473": 138,
        "9474": 216,
        "9475": 14,
        "9476": 36,
        "9477": 72,
        "9478": 68,
        "9479": 71,
        "9480": 201,
        "9481": 93,
        "9482": 116,
        "9483": 15,
        "9484": 61,
        "9485": 80,
        "9486": 31,
        "9487": 95,
        "9488": 31,
        "9489": 237,
        "9490": 220,
        "9491": 40,
        "9492": 25,
        "9493": 200,
        "9494": 102,
        "9495": 107,
        "9496": 40,
        "9497": 46,
        "9498": 241,
        "9499": 171,
        "9500": 137,
        "9501": 17,
        "9502": 117,
        "9503": 239,
        "9504": 50,
        "9505": 89,
        "9506": 119,
        "9507": 219,
        "9508": 209,
        "9509": 103,
        "9510": 152,
        "9511": 239,
        "9512": 132,
        "9513": 146,
        "9514": 182,
        "9515": 246,
        "9516": 189,
        "9517": 206,
        "9518": 148,
        "9519": 92,
        "9520": 79,
        "9521": 107,
        "9522": 246,
        "9523": 22,
        "9524": 23,
        "9525": 231,
        "9526": 117,
        "9527": 149,
        "9528": 70,
        "9529": 151,
        "9530": 19,
        "9531": 1,
        "9532": 211,
        "9533": 85,
        "9534": 33,
        "9535": 212,
        "9536": 44,
        "9537": 54,
        "9538": 85,
        "9539": 38,
        "9540": 50,
        "9541": 109,
        "9542": 83,
        "9543": 63,
        "9544": 154,
        "9545": 65,
        "9546": 117,
        "9547": 56,
        "9548": 96,
        "9549": 179,
        "9550": 92,
        "9551": 84,
        "9552": 118,
        "9553": 94,
        "9554": 0,
        "9555": 150,
        "9556": 186,
        "9557": 78,
        "9558": 0,
        "9559": 204,
        "9560": 133,
        "9561": 88,
        "9562": 253,
        "9563": 101,
        "9564": 246,
        "9565": 8,
        "9566": 74,
        "9567": 115,
        "9568": 253,
        "9569": 29,
        "9570": 7,
        "9571": 153,
        "9572": 75,
        "9573": 87,
        "9574": 20,
        "9575": 96,
        "9576": 100,
        "9577": 158,
        "9578": 242,
        "9579": 173,
        "9580": 85,
        "9581": 142,
        "9582": 87,
        "9583": 146,
        "9584": 10,
        "9585": 195,
        "9586": 128,
        "9587": 121,
        "9588": 88,
        "9589": 228,
        "9590": 240,
        "9591": 15,
        "9592": 71,
        "9593": 51,
        "9594": 113,
        "9595": 214,
        "9596": 138,
        "9597": 14,
        "9598": 97,
        "9599": 179,
        "9600": 170,
        "9601": 44,
        "9602": 137,
        "9603": 80,
        "9604": 186,
        "9605": 7,
        "9606": 250,
        "9607": 8,
        "9608": 46,
        "9609": 124,
        "9610": 30,
        "9611": 75,
        "9612": 222,
        "9613": 51,
        "9614": 159,
        "9615": 11,
        "9616": 107,
        "9617": 229,
        "9618": 224,
        "9619": 187,
        "9620": 58,
        "9621": 39,
        "9622": 118,
        "9623": 212,
        "9624": 60,
        "9625": 81,
        "9626": 182,
        "9627": 1,
        "9628": 78,
        "9629": 179,
        "9630": 157,
        "9631": 30,
        "9632": 189,
        "9633": 43,
        "9634": 30,
        "9635": 81,
        "9636": 30,
        "9637": 113,
        "9638": 105,
        "9639": 164,
        "9640": 223,
        "9641": 146,
        "9642": 126,
        "9643": 251,
        "9644": 23,
        "9645": 249,
        "9646": 226,
        "9647": 214,
        "9648": 48,
        "9649": 177,
        "9650": 51,
        "9651": 163,
        "9652": 166,
        "9653": 115,
        "9654": 29,
        "9655": 169,
        "9656": 61,
        "9657": 8,
        "9658": 23,
        "9659": 242,
        "9660": 126,
        "9661": 141,
        "9662": 191,
        "9663": 175,
        "9664": 167,
        "9665": 41,
        "9666": 39,
        "9667": 103,
        "9668": 161,
        "9669": 150,
        "9670": 249,
        "9671": 89,
        "9672": 221,
        "9673": 137,
        "9674": 18,
        "9675": 59,
        "9676": 228,
        "9677": 242,
        "9678": 181,
        "9679": 54,
        "9680": 137,
        "9681": 175,
        "9682": 246,
        "9683": 60,
        "9684": 230,
        "9685": 41,
        "9686": 85,
        "9687": 44,
        "9688": 101,
        "9689": 132,
        "9690": 192,
        "9691": 156,
        "9692": 17,
        "9693": 142,
        "9694": 123,
        "9695": 173,
        "9696": 185,
        "9697": 174,
        "9698": 123,
        "9699": 214,
        "9700": 15,
        "9701": 247,
        "9702": 23,
        "9703": 194,
        "9704": 30,
        "9705": 81,
        "9706": 109,
        "9707": 154,
        "9708": 145,
        "9709": 162,
        "9710": 240,
        "9711": 173,
        "9712": 188,
        "9713": 37,
        "9714": 185,
        "9715": 222,
        "9716": 233,
        "9717": 163,
        "9718": 175,
        "9719": 39,
        "9720": 161,
        "9721": 178,
        "9722": 10,
        "9723": 147,
        "9724": 74,
        "9725": 17,
        "9726": 73,
        "9727": 29,
        "9728": 33,
        "9729": 95,
        "9730": 4,
        "9731": 105,
        "9732": 220,
        "9733": 87,
        "9734": 91,
        "9735": 105,
        "9736": 20,
        "9737": 213,
        "9738": 79,
        "9739": 91,
        "9740": 190,
        "9741": 31,
        "9742": 220,
        "9743": 106,
        "9744": 14,
        "9745": 81,
        "9746": 143,
        "9747": 52,
        "9748": 117,
        "9749": 84,
        "9750": 162,
        "9751": 198,
        "9752": 220,
        "9753": 46,
        "9754": 190,
        "9755": 192,
        "9756": 165,
        "9757": 209,
        "9758": 220,
        "9759": 239,
        "9760": 246,
        "9761": 122,
        "9762": 176,
        "9763": 39,
        "9764": 136,
        "9765": 15,
        "9766": 115,
        "9767": 114,
        "9768": 194,
        "9769": 42,
        "9770": 80,
        "9771": 183,
        "9772": 48,
        "9773": 61,
        "9774": 246,
        "9775": 112,
        "9776": 52,
        "9777": 232,
        "9778": 230,
        "9779": 22,
        "9780": 163,
        "9781": 47,
        "9782": 241,
        "9783": 197,
        "9784": 49,
        "9785": 142,
        "9786": 25,
        "9787": 20,
        "9788": 238,
        "9789": 90,
        "9790": 54,
        "9791": 118,
        "9792": 73,
        "9793": 31,
        "9794": 82,
        "9795": 3,
        "9796": 170,
        "9797": 117,
        "9798": 180,
        "9799": 18,
        "9800": 165,
        "9801": 244,
        "9802": 5,
        "9803": 80,
        "9804": 105,
        "9805": 75,
        "9806": 68,
        "9807": 246,
        "9808": 41,
        "9809": 114,
        "9810": 135,
        "9811": 79,
        "9812": 255,
        "9813": 128,
        "9814": 127,
        "9815": 187,
        "9816": 92,
        "9817": 85,
        "9818": 92,
        "9819": 200,
        "9820": 173,
        "9821": 119,
        "9822": 242,
        "9823": 112,
        "9824": 144,
        "9825": 95,
        "9826": 177,
        "9827": 97,
        "9828": 234,
        "9829": 123,
        "9830": 7,
        "9831": 148,
        "9832": 116,
        "9833": 57,
        "9834": 35,
        "9835": 33,
        "9836": 137,
        "9837": 173,
        "9838": 121,
        "9839": 104,
        "9840": 180,
        "9841": 109,
        "9842": 14,
        "9843": 224,
        "9844": 50,
        "9845": 34,
        "9846": 145,
        "9847": 187,
        "9848": 126,
        "9849": 238,
        "9850": 224,
        "9851": 211,
        "9852": 95,
        "9853": 146,
        "9854": 166,
        "9855": 199,
        "9856": 255,
        "9857": 30,
        "9858": 61,
        "9859": 219,
        "9860": 117,
        "9861": 154,
        "9862": 26,
        "9863": 184,
        "9864": 39,
        "9865": 196,
        "9866": 221,
        "9867": 3,
        "9868": 216,
        "9869": 98,
        "9870": 75,
        "9871": 103,
        "9872": 12,
        "9873": 234,
        "9874": 133,
        "9875": 234,
        "9876": 70,
        "9877": 252,
        "9878": 28,
        "9879": 9,
        "9880": 193,
        "9881": 162,
        "9882": 140,
        "9883": 202,
        "9884": 241,
        "9885": 11,
        "9886": 224,
        "9887": 244,
        "9888": 88,
        "9889": 217,
        "9890": 105,
        "9891": 27,
        "9892": 207,
        "9893": 41,
        "9894": 174,
        "9895": 98,
        "9896": 247,
        "9897": 204,
        "9898": 220,
        "9899": 61,
        "9900": 233,
        "9901": 180,
        "9902": 23,
        "9903": 72,
        "9904": 20,
        "9905": 157,
        "9906": 52,
        "9907": 215,
        "9908": 127,
        "9909": 168,
        "9910": 197,
        "9911": 38,
        "9912": 180,
        "9913": 46,
        "9914": 71,
        "9915": 192,
        "9916": 28,
        "9917": 47,
        "9918": 208,
        "9919": 18,
        "9920": 237,
        "9921": 154,
        "9922": 115,
        "9923": 207,
        "9924": 155,
        "9925": 147,
        "9926": 107,
        "9927": 192,
        "9928": 217,
        "9929": 132,
        "9930": 23,
        "9931": 155,
        "9932": 186,
        "9933": 160,
        "9934": 140,
        "9935": 193,
        "9936": 40,
        "9937": 174,
        "9938": 137,
        "9939": 148,
        "9940": 149,
        "9941": 98,
        "9942": 117,
        "9943": 5,
        "9944": 42,
        "9945": 18,
        "9946": 102,
        "9947": 241,
        "9948": 216,
        "9949": 100,
        "9950": 138,
        "9951": 107,
        "9952": 68,
        "9953": 103,
        "9954": 14,
        "9955": 228,
        "9956": 146,
        "9957": 159,
        "9958": 183,
        "9959": 73,
        "9960": 214,
        "9961": 15,
        "9962": 109,
        "9963": 56,
        "9964": 16,
        "9965": 151,
        "9966": 179,
        "9967": 119,
        "9968": 112,
        "9969": 189,
        "9970": 121,
        "9971": 250,
        "9972": 171,
        "9973": 228,
        "9974": 243,
        "9975": 208,
        "9976": 28,
        "9977": 242,
        "9978": 103,
        "9979": 112,
        "9980": 149,
        "9981": 187,
        "9982": 199,
        "9983": 99,
        "9984": 103,
        "9985": 93,
        "9986": 182,
        "9987": 45,
        "9988": 143,
        "9989": 36,
        "9990": 162,
        "9991": 223,
        "9992": 215,
        "9993": 95,
        "9994": 61,
        "9995": 118,
        "9996": 3,
        "9997": 195,
        "9998": 126,
        "9999": 193,
        "10000": 79,
        "10001": 117,
        "10002": 35,
        "10003": 80,
        "10004": 179,
        "10005": 169,
        "10006": 22,
        "10007": 211,
        "10008": 139,
        "10009": 9,
        "10010": 214,
        "10011": 23,
        "10012": 245,
        "10013": 166,
        "10014": 23,
        "10015": 118,
        "10016": 146,
        "10017": 86,
        "10018": 39,
        "10019": 36,
        "10020": 201,
        "10021": 72,
        "10022": 95,
        "10023": 151,
        "10024": 28,
        "10025": 48,
        "10026": 189,
        "10027": 158,
        "10028": 250,
        "10029": 101,
        "10030": 155,
        "10031": 224,
        "10032": 199,
        "10033": 148,
        "10034": 72,
        "10035": 236,
        "10036": 96,
        "10037": 169,
        "10038": 188,
        "10039": 121,
        "10040": 207,
        "10041": 87,
        "10042": 30,
        "10043": 222,
        "10044": 229,
        "10045": 151,
        "10046": 237,
        "10047": 1,
        "10048": 31,
        "10049": 199,
        "10050": 153,
        "10051": 63,
        "10052": 189,
        "10053": 109,
        "10054": 93,
        "10055": 215,
        "10056": 137,
        "10057": 18,
        "10058": 250,
        "10059": 233,
        "10060": 80,
        "10061": 124,
        "10062": 22,
        "10063": 12,
        "10064": 250,
        "10065": 121,
        "10066": 73,
        "10067": 175,
        "10068": 62,
        "10069": 121,
        "10070": 56,
        "10071": 230,
        "10072": 30,
        "10073": 152,
        "10074": 239,
        "10075": 21,
        "10076": 133,
        "10077": 226,
        "10078": 101,
        "10079": 216,
        "10080": 174,
        "10081": 107,
        "10082": 83,
        "10083": 234,
        "10084": 39,
        "10085": 77,
        "10086": 78,
        "10087": 217,
        "10088": 77,
        "10089": 4,
        "10090": 49,
        "10091": 244,
        "10092": 126,
        "10093": 70,
        "10094": 171,
        "10095": 219,
        "10096": 130,
        "10097": 35,
        "10098": 245,
        "10099": 234,
        "10100": 168,
        "10101": 245,
        "10102": 59,
        "10103": 56,
        "10104": 150,
        "10105": 158,
        "10106": 199,
        "10107": 190,
        "10108": 90,
        "10109": 100,
        "10110": 92,
        "10111": 183,
        "10112": 182,
        "10113": 69,
        "10114": 32,
        "10115": 29,
        "10116": 173,
        "10117": 16,
        "10118": 126,
        "10119": 80,
        "10120": 56,
        "10121": 12,
        "10122": 73,
        "10123": 172,
        "10124": 190,
        "10125": 35,
        "10126": 55,
        "10127": 115,
        "10128": 240,
        "10129": 93,
        "10130": 14,
        "10131": 148,
        "10132": 97,
        "10133": 99,
        "10134": 72,
        "10135": 216,
        "10136": 94,
        "10137": 58,
        "10138": 219,
        "10139": 36,
        "10140": 27,
        "10141": 205,
        "10142": 251,
        "10143": 36,
        "10144": 130,
        "10145": 1,
        "10146": 29,
        "10147": 208,
        "10148": 10,
        "10149": 234,
        "10150": 111,
        "10151": 220,
        "10152": 57,
        "10153": 77,
        "10154": 243,
        "10155": 58,
        "10156": 204,
        "10157": 198,
        "10158": 34,
        "10159": 43,
        "10160": 24,
        "10161": 129,
        "10162": 35,
        "10163": 35,
        "10164": 246,
        "10165": 49,
        "10166": 189,
        "10167": 202,
        "10168": 185,
        "10169": 208,
        "10170": 235,
        "10171": 111,
        "10172": 212,
        "10173": 40,
        "10174": 184,
        "10175": 85,
        "10176": 167,
        "10177": 234,
        "10178": 205,
        "10179": 148,
        "10180": 112,
        "10181": 73,
        "10182": 125,
        "10183": 59,
        "10184": 162,
        "10185": 159,
        "10186": 209,
        "10187": 230,
        "10188": 71,
        "10189": 25,
        "10190": 53,
        "10191": 160,
        "10192": 195,
        "10193": 211,
        "10194": 155,
        "10195": 243,
        "10196": 247,
        "10197": 127,
        "10198": 18,
        "10199": 23,
        "10200": 56,
        "10201": 223,
        "10202": 195,
        "10203": 102,
        "10204": 1,
        "10205": 9,
        "10206": 150,
        "10207": 193,
        "10208": 229,
        "10209": 225,
        "10210": 139,
        "10211": 68,
        "10212": 187,
        "10213": 1,
        "10214": 86,
        "10215": 27,
        "10216": 165,
        "10217": 22,
        "10218": 135,
        "10219": 163,
        "10220": 181,
        "10221": 219,
        "10222": 4,
        "10223": 56,
        "10224": 158,
        "10225": 207,
        "10226": 250,
        "10227": 220,
        "10228": 212,
        "10229": 110,
        "10230": 229,
        "10231": 12,
        "10232": 118,
        "10233": 78,
        "10234": 68,
        "10235": 224,
        "10236": 131,
        "10237": 10,
        "10238": 42,
        "10239": 45,
        "10240": 193,
        "10241": 130,
        "10242": 123,
        "10243": 4,
        "10244": 126,
        "10245": 145,
        "10246": 116,
        "10247": 35,
        "10248": 92,
        "10249": 166,
        "10250": 32,
        "10251": 186,
        "10252": 87,
        "10253": 195,
        "10254": 39,
        "10255": 118,
        "10256": 116,
        "10257": 195,
        "10258": 96,
        "10259": 219,
        "10260": 136,
        "10261": 21,
        "10262": 41,
        "10263": 137,
        "10264": 89,
        "10265": 56,
        "10266": 168,
        "10267": 59,
        "10268": 254,
        "10269": 158,
        "10270": 135,
        "10271": 213,
        "10272": 150,
        "10273": 228,
        "10274": 87,
        "10275": 59,
        "10276": 202,
        "10277": 91,
        "10278": 176,
        "10279": 182,
        "10280": 18,
        "10281": 120,
        "10282": 209,
        "10283": 156,
        "10284": 3,
        "10285": 104,
        "10286": 38,
        "10287": 4,
        "10288": 113,
        "10289": 239,
        "10290": 102,
        "10291": 114,
        "10292": 16,
        "10293": 132,
        "10294": 251,
        "10295": 141,
        "10296": 220,
        "10297": 180,
        "10298": 176,
        "10299": 193,
        "10300": 209,
        "10301": 196,
        "10302": 47,
        "10303": 136,
        "10304": 212,
        "10305": 175,
        "10306": 213,
        "10307": 96,
        "10308": 249,
        "10309": 181,
        "10310": 174,
        "10311": 85,
        "10312": 226,
        "10313": 97,
        "10314": 196,
        "10315": 84,
        "10316": 246,
        "10317": 225,
        "10318": 252,
        "10319": 132,
        "10320": 86,
        "10321": 249,
        "10322": 16,
        "10323": 230,
        "10324": 47,
        "10325": 22,
        "10326": 122,
        "10327": 209,
        "10328": 117,
        "10329": 222,
        "10330": 139,
        "10331": 219,
        "10332": 229,
        "10333": 184,
        "10334": 89,
        "10335": 115,
        "10336": 96,
        "10337": 166,
        "10338": 60,
        "10339": 176,
        "10340": 250,
        "10341": 100,
        "10342": 81,
        "10343": 40,
        "10344": 22,
        "10345": 133,
        "10346": 64,
        "10347": 108,
        "10348": 30,
        "10349": 11,
        "10350": 76,
        "10351": 71,
        "10352": 49,
        "10353": 73,
        "10354": 46,
        "10355": 186,
        "10356": 119,
        "10357": 167,
        "10358": 217,
        "10359": 54,
        "10360": 155,
        "10361": 244,
        "10362": 115,
        "10363": 17,
        "10364": 143,
        "10365": 32,
        "10366": 104,
        "10367": 74,
        "10368": 75,
        "10369": 224,
        "10370": 197,
        "10371": 84,
        "10372": 60,
        "10373": 168,
        "10374": 130,
        "10375": 189,
        "10376": 50,
        "10377": 121,
        "10378": 2,
        "10379": 143,
        "10380": 72,
        "10381": 144,
        "10382": 147,
        "10383": 163,
        "10384": 129,
        "10385": 86,
        "10386": 25,
        "10387": 218,
        "10388": 106,
        "10389": 197,
        "10390": 216,
        "10391": 183,
        "10392": 199,
        "10393": 92,
        "10394": 78,
        "10395": 36,
        "10396": 251,
        "10397": 105,
        "10398": 68,
        "10399": 161,
        "10400": 226,
        "10401": 155,
        "10402": 54,
        "10403": 196,
        "10404": 1,
        "10405": 67,
        "10406": 15,
        "10407": 104,
        "10408": 47,
        "10409": 157,
        "10410": 28,
        "10411": 12,
        "10412": 133,
        "10413": 146,
        "10414": 217,
        "10415": 53,
        "10416": 76,
        "10417": 132,
        "10418": 218,
        "10419": 193,
        "10420": 207,
        "10421": 4,
        "10422": 255,
        "10423": 133,
        "10424": 171,
        "10425": 76,
        "10426": 159,
        "10427": 233,
        "10428": 129,
        "10429": 59,
        "10430": 102,
        "10431": 235,
        "10432": 123,
        "10433": 246,
        "10434": 243,
        "10435": 253,
        "10436": 216,
        "10437": 246,
        "10438": 30,
        "10439": 237,
        "10440": 222,
        "10441": 0,
        "10442": 206,
        "10443": 126,
        "10444": 199,
        "10445": 45,
        "10446": 98,
        "10447": 103,
        "10448": 182,
        "10449": 221,
        "10450": 92,
        "10451": 234,
        "10452": 48,
        "10453": 93,
        "10454": 237,
        "10455": 132,
        "10456": 66,
        "10457": 53,
        "10458": 4,
        "10459": 144,
        "10460": 143,
        "10461": 131,
        "10462": 198,
        "10463": 105,
        "10464": 202,
        "10465": 108,
        "10466": 72,
        "10467": 73,
        "10468": 140,
        "10469": 152,
        "10470": 159,
        "10471": 165,
        "10472": 237,
        "10473": 225,
        "10474": 1,
        "10475": 154,
        "10476": 245,
        "10477": 253,
        "10478": 89,
        "10479": 83,
        "10480": 95,
        "10481": 57,
        "10482": 189,
        "10483": 70,
        "10484": 80,
        "10485": 64,
        "10486": 234,
        "10487": 94,
        "10488": 153,
        "10489": 163,
        "10490": 43,
        "10491": 215,
        "10492": 180,
        "10493": 92,
        "10494": 27,
        "10495": 188,
        "10496": 190,
        "10497": 2,
        "10498": 81,
        "10499": 9,
        "10500": 118,
        "10501": 80,
        "10502": 172,
        "10503": 137,
        "10504": 230,
        "10505": 94,
        "10506": 185,
        "10507": 165,
        "10508": 24,
        "10509": 98,
        "10510": 150,
        "10511": 95,
        "10512": 143,
        "10513": 179,
        "10514": 153,
        "10515": 146,
        "10516": 165,
        "10517": 240,
        "10518": 142,
        "10519": 245,
        "10520": 115,
        "10521": 114,
        "10522": 79,
        "10523": 37,
        "10524": 51,
        "10525": 124,
        "10526": 1,
        "10527": 113,
        "10528": 2,
        "10529": 79,
        "10530": 76,
        "10531": 43,
        "10532": 86,
        "10533": 76,
        "10534": 184,
        "10535": 150,
        "10536": 255,
        "10537": 42,
        "10538": 254,
        "10539": 126,
        "10540": 241,
        "10541": 85,
        "10542": 159,
        "10543": 91,
        "10544": 6,
        "10545": 246,
        "10546": 114,
        "10547": 151,
        "10548": 143,
        "10549": 169,
        "10550": 243,
        "10551": 186,
        "10552": 152,
        "10553": 197,
        "10554": 185,
        "10555": 36,
        "10556": 84,
        "10557": 239,
        "10558": 39,
        "10559": 245,
        "10560": 51,
        "10561": 23,
        "10562": 213,
        "10563": 107,
        "10564": 199,
        "10565": 98,
        "10566": 14,
        "10567": 93,
        "10568": 69,
        "10569": 235,
        "10570": 94,
        "10571": 22,
        "10572": 235,
        "10573": 43,
        "10574": 93,
        "10575": 255,
        "10576": 113,
        "10577": 78,
        "10578": 191,
        "10579": 117,
        "10580": 61,
        "10581": 26,
        "10582": 35,
        "10583": 133,
        "10584": 68,
        "10585": 82,
        "10586": 62,
        "10587": 142,
        "10588": 137,
        "10589": 153,
        "10590": 172,
        "10591": 86,
        "10592": 73,
        "10593": 252,
        "10594": 73,
        "10595": 89,
        "10596": 63,
        "10597": 139,
        "10598": 61,
        "10599": 33,
        "10600": 62,
        "10601": 108,
        "10602": 136,
        "10603": 219,
        "10604": 113,
        "10605": 101,
        "10606": 185,
        "10607": 58,
        "10608": 189,
        "10609": 197,
        "10610": 179,
        "10611": 183,
        "10612": 176,
        "10613": 189,
        "10614": 244,
        "10615": 245,
        "10616": 105,
        "10617": 232,
        "10618": 209,
        "10619": 165,
        "10620": 215,
        "10621": 191,
        "10622": 142,
        "10623": 183,
        "10624": 46,
        "10625": 19,
        "10626": 69,
        "10627": 153,
        "10628": 157,
        "10629": 172,
        "10630": 53,
        "10631": 249,
        "10632": 35,
        "10633": 192,
        "10634": 183,
        "10635": 232,
        "10636": 183,
        "10637": 189,
        "10638": 76,
        "10639": 244,
        "10640": 109,
        "10641": 121,
        "10642": 50,
        "10643": 33,
        "10644": 180,
        "10645": 255,
        "10646": 124,
        "10647": 123,
        "10648": 142,
        "10649": 197,
        "10650": 235,
        "10651": 87,
        "10652": 177,
        "10653": 152,
        "10654": 243,
        "10655": 253,
        "10656": 141,
        "10657": 119,
        "10658": 165,
        "10659": 187,
        "10660": 211,
        "10661": 123,
        "10662": 177,
        "10663": 2,
        "10664": 140,
        "10665": 77,
        "10666": 32,
        "10667": 115,
        "10668": 98,
        "10669": 148,
        "10670": 83,
        "10671": 113,
        "10672": 79,
        "10673": 127,
        "10674": 136,
        "10675": 190,
        "10676": 166,
        "10677": 73,
        "10678": 216,
        "10679": 158,
        "10680": 43,
        "10681": 124,
        "10682": 63,
        "10683": 25,
        "10684": 187,
        "10685": 76,
        "10686": 123,
        "10687": 181,
        "10688": 237,
        "10689": 246,
        "10690": 127,
        "10691": 235,
        "10692": 125,
        "10693": 76,
        "10694": 193,
        "10695": 227,
        "10696": 154,
        "10697": 224,
        "10698": 117,
        "10699": 238,
        "10700": 122,
        "10701": 20,
        "10702": 18,
        "10703": 255,
        "10704": 186,
        "10705": 123,
        "10706": 107,
        "10707": 191,
        "10708": 160,
        "10709": 36,
        "10710": 237,
        "10711": 62,
        "10712": 61,
        "10713": 232,
        "10714": 91,
        "10715": 23,
        "10716": 90,
        "10717": 203,
        "10718": 221,
        "10719": 25,
        "10720": 119,
        "10721": 89,
        "10722": 4,
        "10723": 102,
        "10724": 184,
        "10725": 181,
        "10726": 123,
        "10727": 87,
        "10728": 192,
        "10729": 183,
        "10730": 135,
        "10731": 81,
        "10732": 211,
        "10733": 129,
        "10734": 101,
        "10735": 70,
        "10736": 99,
        "10737": 252,
        "10738": 5,
        "10739": 244,
        "10740": 102,
        "10741": 80,
        "10742": 44,
        "10743": 173,
        "10744": 167,
        "10745": 235,
        "10746": 194,
        "10747": 50,
        "10748": 166,
        "10749": 46,
        "10750": 59,
        "10751": 163,
        "10752": 145,
        "10753": 111,
        "10754": 41,
        "10755": 222,
        "10756": 47,
        "10757": 97,
        "10758": 117,
        "10759": 47,
        "10760": 48,
        "10761": 149,
        "10762": 126,
        "10763": 55,
        "10764": 148,
        "10765": 173,
        "10766": 167,
        "10767": 71,
        "10768": 241,
        "10769": 76,
        "10770": 207,
        "10771": 172,
        "10772": 41,
        "10773": 134,
        "10774": 168,
        "10775": 130,
        "10776": 8,
        "10777": 136,
        "10778": 253,
        "10779": 56,
        "10780": 70,
        "10781": 208,
        "10782": 158,
        "10783": 103,
        "10784": 133,
        "10785": 18,
        "10786": 43,
        "10787": 224,
        "10788": 150,
        "10789": 212,
        "10790": 162,
        "10791": 98,
        "10792": 193,
        "10793": 107,
        "10794": 16,
        "10795": 138,
        "10796": 44,
        "10797": 86,
        "10798": 135,
        "10799": 33,
        "10800": 148,
        "10801": 142,
        "10802": 86,
        "10803": 184,
        "10804": 133,
        "10805": 237,
        "10806": 167,
        "10807": 72,
        "10808": 125,
        "10809": 223,
        "10810": 125,
        "10811": 139,
        "10812": 253,
        "10813": 159,
        "10814": 183,
        "10815": 241,
        "10816": 202,
        "10817": 221,
        "10818": 119,
        "10819": 199,
        "10820": 107,
        "10821": 114,
        "10822": 192,
        "10823": 76,
        "10824": 206,
        "10825": 220,
        "10826": 102,
        "10827": 30,
        "10828": 21,
        "10829": 53,
        "10830": 64,
        "10831": 206,
        "10832": 239,
        "10833": 72,
        "10834": 2,
        "10835": 68,
        "10836": 85,
        "10837": 253,
        "10838": 152,
        "10839": 111,
        "10840": 137,
        "10841": 148,
        "10842": 227,
        "10843": 93,
        "10844": 21,
        "10845": 220,
        "10846": 94,
        "10847": 178,
        "10848": 125,
        "10849": 212,
        "10850": 171,
        "10851": 234,
        "10852": 208,
        "10853": 211,
        "10854": 195,
        "10855": 75,
        "10856": 154,
        "10857": 58,
        "10858": 61,
        "10859": 75,
        "10860": 121,
        "10861": 112,
        "10862": 83,
        "10863": 50,
        "10864": 110,
        "10865": 23,
        "10866": 154,
        "10867": 40,
        "10868": 54,
        "10869": 175,
        "10870": 167,
        "10871": 155,
        "10872": 7,
        "10873": 112,
        "10874": 179,
        "10875": 86,
        "10876": 164,
        "10877": 228,
        "10878": 132,
        "10879": 68,
        "10880": 68,
        "10881": 5,
        "10882": 173,
        "10883": 219,
        "10884": 243,
        "10885": 177,
        "10886": 122,
        "10887": 133,
        "10888": 201,
        "10889": 121,
        "10890": 250,
        "10891": 166,
        "10892": 52,
        "10893": 21,
        "10894": 69,
        "10895": 73,
        "10896": 81,
        "10897": 172,
        "10898": 110,
        "10899": 255,
        "10900": 138,
        "10901": 252,
        "10902": 207,
        "10903": 224,
        "10904": 79,
        "10905": 69,
        "10906": 212,
        "10907": 5,
        "10908": 209,
        "10909": 187,
        "10910": 63,
        "10911": 211,
        "10912": 183,
        "10913": 192,
        "10914": 71,
        "10915": 241,
        "10916": 173,
        "10917": 167,
        "10918": 171,
        "10919": 177,
        "10920": 200,
        "10921": 167,
        "10922": 60,
        "10923": 204,
        "10924": 78,
        "10925": 136,
        "10926": 214,
        "10927": 77,
        "10928": 41,
        "10929": 137,
        "10930": 144,
        "10931": 1,
        "10932": 234,
        "10933": 240,
        "10934": 142,
        "10935": 152,
        "10936": 67,
        "10937": 20,
        "10938": 236,
        "10939": 173,
        "10940": 216,
        "10941": 36,
        "10942": 212,
        "10943": 105,
        "10944": 110,
        "10945": 255,
        "10946": 12,
        "10947": 237,
        "10948": 85,
        "10949": 151,
        "10950": 2,
        "10951": 30,
        "10952": 82,
        "10953": 179,
        "10954": 235,
        "10955": 187,
        "10956": 100,
        "10957": 183,
        "10958": 106,
        "10959": 112,
        "10960": 162,
        "10961": 224,
        "10962": 6,
        "10963": 226,
        "10964": 107,
        "10965": 118,
        "10966": 153,
        "10967": 65,
        "10968": 247,
        "10969": 129,
        "10970": 128,
        "10971": 140,
        "10972": 96,
        "10973": 166,
        "10974": 36,
        "10975": 194,
        "10976": 229,
        "10977": 37,
        "10978": 41,
        "10979": 38,
        "10980": 222,
        "10981": 240,
        "10982": 160,
        "10983": 165,
        "10984": 67,
        "10985": 11,
        "10986": 41,
        "10987": 162,
        "10988": 17,
        "10989": 69,
        "10990": 45,
        "10991": 31,
        "10992": 246,
        "10993": 254,
        "10994": 188,
        "10995": 93,
        "10996": 171,
        "10997": 50,
        "10998": 234,
        "10999": 77,
        "11000": 178,
        "11001": 154,
        "11002": 104,
        "11003": 71,
        "11004": 206,
        "11005": 23,
        "11006": 210,
        "11007": 102,
        "11008": 111,
        "11009": 242,
        "11010": 139,
        "11011": 233,
        "11012": 94,
        "11013": 248,
        "11014": 183,
        "11015": 216,
        "11016": 162,
        "11017": 252,
        "11018": 173,
        "11019": 77,
        "11020": 10,
        "11021": 135,
        "11022": 179,
        "11023": 194,
        "11024": 182,
        "11025": 74,
        "11026": 203,
        "11027": 41,
        "11028": 207,
        "11029": 22,
        "11030": 82,
        "11031": 235,
        "11032": 157,
        "11033": 24,
        "11034": 150,
        "11035": 250,
        "11036": 14,
        "11037": 83,
        "11038": 23,
        "11039": 47,
        "11040": 81,
        "11041": 44,
        "11042": 147,
        "11043": 49,
        "11044": 83,
        "11045": 89,
        "11046": 72,
        "11047": 25,
        "11048": 176,
        "11049": 87,
        "11050": 91,
        "11051": 35,
        "11052": 255,
        "11053": 101,
        "11054": 147,
        "11055": 116,
        "11056": 157,
        "11057": 49,
        "11058": 107,
        "11059": 98,
        "11060": 120,
        "11061": 23,
        "11062": 26,
        "11063": 62,
        "11064": 247,
        "11065": 223,
        "11066": 56,
        "11067": 234,
        "11068": 173,
        "11069": 184,
        "11070": 164,
        "11071": 21,
        "11072": 187,
        "11073": 197,
        "11074": 112,
        "11075": 162,
        "11076": 98,
        "11077": 212,
        "11078": 48,
        "11079": 113,
        "11080": 202,
        "11081": 150,
        "11082": 223,
        "11083": 140,
        "11084": 186,
        "11085": 105,
        "11086": 201,
        "11087": 19,
        "11088": 43,
        "11089": 27,
        "11090": 79,
        "11091": 80,
        "11092": 157,
        "11093": 21,
        "11094": 45,
        "11095": 12,
        "11096": 2,
        "11097": 98,
        "11098": 173,
        "11099": 82,
        "11100": 215,
        "11101": 246,
        "11102": 5,
        "11103": 114,
        "11104": 66,
        "11105": 191,
        "11106": 108,
        "11107": 117,
        "11108": 172,
        "11109": 1,
        "11110": 75,
        "11111": 101,
        "11112": 201,
        "11113": 215,
        "11114": 173,
        "11115": 95,
        "11116": 167,
        "11117": 20,
        "11118": 10,
        "11119": 144,
        "11120": 149,
        "11121": 54,
        "11122": 88,
        "11123": 231,
        "11124": 0,
        "11125": 170,
        "11126": 253,
        "11127": 99,
        "11128": 217,
        "11129": 91,
        "11130": 129,
        "11131": 232,
        "11132": 140,
        "11133": 18,
        "11134": 53,
        "11135": 51,
        "11136": 235,
        "11137": 50,
        "11138": 209,
        "11139": 9,
        "11140": 186,
        "11141": 123,
        "11142": 77,
        "11143": 40,
        "11144": 234,
        "11145": 89,
        "11146": 33,
        "11147": 61,
        "11148": 200,
        "11149": 78,
        "11150": 246,
        "11151": 34,
        "11152": 95,
        "11153": 90,
        "11154": 41,
        "11155": 185,
        "11156": 116,
        "11157": 196,
        "11158": 245,
        "11159": 65,
        "11160": 41,
        "11161": 13,
        "11162": 141,
        "11163": 102,
        "11164": 34,
        "11165": 82,
        "11166": 127,
        "11167": 18,
        "11168": 123,
        "11169": 68,
        "11170": 46,
        "11171": 133,
        "11172": 96,
        "11173": 223,
        "11174": 199,
        "11175": 218,
        "11176": 56,
        "11177": 47,
        "11178": 214,
        "11179": 148,
        "11180": 133,
        "11181": 173,
        "11182": 246,
        "11183": 4,
        "11184": 77,
        "11185": 184,
        "11186": 140,
        "11187": 146,
        "11188": 232,
        "11189": 39,
        "11190": 205,
        "11191": 181,
        "11192": 0,
        "11193": 128,
        "11194": 113,
        "11195": 34,
        "11196": 247,
        "11197": 93,
        "11198": 48,
        "11199": 171,
        "11200": 76,
        "11201": 134,
        "11202": 134,
        "11203": 237,
        "11204": 179,
        "11205": 67,
        "11206": 241,
        "11207": 196,
        "11208": 224,
        "11209": 119,
        "11210": 221,
        "11211": 164,
        "11212": 106,
        "11213": 124,
        "11214": 223,
        "11215": 26,
        "11216": 58,
        "11217": 178,
        "11218": 127,
        "11219": 27,
        "11220": 99,
        "11221": 74,
        "11222": 14,
        "11223": 20,
        "11224": 35,
        "11225": 44,
        "11226": 197,
        "11227": 113,
        "11228": 67,
        "11229": 203,
        "11230": 57,
        "11231": 16,
        "11232": 149,
        "11233": 242,
        "11234": 224,
        "11235": 110,
        "11236": 72,
        "11237": 1,
        "11238": 76,
        "11239": 218,
        "11240": 248,
        "11241": 52,
        "11242": 226,
        "11243": 118,
        "11244": 19,
        "11245": 71,
        "11246": 10,
        "11247": 184,
        "11248": 197,
        "11249": 85,
        "11250": 205,
        "11251": 195,
        "11252": 112,
        "11253": 38,
        "11254": 114,
        "11255": 196,
        "11256": 161,
        "11257": 110,
        "11258": 139,
        "11259": 59,
        "11260": 242,
        "11261": 205,
        "11262": 193,
        "11263": 215,
        "11264": 174,
        "11265": 224,
        "11266": 225,
        "11267": 188,
        "11268": 155,
        "11269": 87,
        "11270": 133,
        "11271": 245,
        "11272": 140,
        "11273": 157,
        "11274": 9,
        "11275": 45,
        "11276": 176,
        "11277": 109,
        "11278": 162,
        "11279": 156,
        "11280": 73,
        "11281": 230,
        "11282": 170,
        "11283": 17,
        "11284": 89,
        "11285": 227,
        "11286": 142,
        "11287": 147,
        "11288": 66,
        "11289": 121,
        "11290": 85,
        "11291": 93,
        "11292": 27,
        "11293": 87,
        "11294": 156,
        "11295": 235,
        "11296": 178,
        "11297": 17,
        "11298": 186,
        "11299": 129,
        "11300": 158,
        "11301": 76,
        "11302": 180,
        "11303": 30,
        "11304": 213,
        "11305": 109,
        "11306": 160,
        "11307": 174,
        "11308": 68,
        "11309": 217,
        "11310": 51,
        "11311": 107,
        "11312": 158,
        "11313": 227,
        "11314": 165,
        "11315": 212,
        "11316": 172,
        "11317": 37,
        "11318": 250,
        "11319": 68,
        "11320": 49,
        "11321": 235,
        "11322": 219,
        "11323": 20,
        "11324": 229,
        "11325": 83,
        "11326": 35,
        "11327": 235,
        "11328": 241,
        "11329": 27,
        "11330": 210,
        "11331": 19,
        "11332": 179,
        "11333": 185,
        "11334": 239,
        "11335": 103,
        "11336": 32,
        "11337": 80,
        "11338": 90,
        "11339": 68,
        "11340": 5,
        "11341": 54,
        "11342": 183,
        "11343": 204,
        "11344": 178,
        "11345": 30,
        "11346": 92,
        "11347": 97,
        "11348": 33,
        "11349": 20,
        "11350": 212,
        "11351": 131,
        "11352": 248,
        "11353": 221,
        "11354": 4,
        "11355": 58,
        "11356": 43,
        "11357": 191,
        "11358": 135,
        "11359": 209,
        "11360": 5,
        "11361": 111,
        "11362": 27,
        "11363": 42,
        "11364": 11,
        "11365": 26,
        "11366": 131,
        "11367": 138,
        "11368": 255,
        "11369": 19,
        "11370": 12,
        "11371": 241,
        "11372": 119,
        "11373": 73,
        "11374": 154,
        "11375": 90,
        "11376": 30,
        "11377": 81,
        "11378": 149,
        "11379": 115,
        "11380": 19,
        "11381": 47,
        "11382": 49,
        "11383": 4,
        "11384": 172,
        "11385": 126,
        "11386": 100,
        "11387": 185,
        "11388": 18,
        "11389": 17,
        "11390": 86,
        "11391": 177,
        "11392": 55,
        "11393": 202,
        "11394": 129,
        "11395": 53,
        "11396": 45,
        "11397": 87,
        "11398": 121,
        "11399": 168,
        "11400": 131,
        "11401": 188,
        "11402": 226,
        "11403": 31,
        "11404": 230,
        "11405": 213,
        "11406": 93,
        "11407": 102,
        "11408": 170,
        "11409": 44,
        "11410": 227,
        "11411": 105,
        "11412": 153,
        "11413": 29,
        "11414": 199,
        "11415": 248,
        "11416": 165,
        "11417": 191,
        "11418": 211,
        "11419": 94,
        "11420": 132,
        "11421": 144,
        "11422": 93,
        "11423": 37,
        "11424": 67,
        "11425": 60,
        "11426": 174,
        "11427": 101,
        "11428": 138,
        "11429": 141,
        "11430": 103,
        "11431": 206,
        "11432": 31,
        "11433": 0,
        "11434": 162,
        "11435": 253,
        "11436": 49,
        "11437": 237,
        "11438": 26,
        "11439": 11,
        "11440": 58,
        "11441": 58,
        "11442": 77,
        "11443": 14,
        "11444": 6,
        "11445": 30,
        "11446": 2,
        "11447": 84,
        "11448": 239,
        "11449": 155,
        "11450": 58,
        "11451": 49,
        "11452": 203,
        "11453": 204,
        "11454": 58,
        "11455": 115,
        "11456": 95,
        "11457": 245,
        "11458": 234,
        "11459": 17,
        "11460": 151,
        "11461": 48,
        "11462": 184,
        "11463": 55,
        "11464": 238,
        "11465": 175,
        "11466": 172,
        "11467": 197,
        "11468": 194,
        "11469": 121,
        "11470": 170,
        "11471": 133,
        "11472": 247,
        "11473": 39,
        "11474": 101,
        "11475": 83,
        "11476": 57,
        "11477": 136,
        "11478": 204,
        "11479": 120,
        "11480": 167,
        "11481": 254,
        "11482": 74,
        "11483": 102,
        "11484": 73,
        "11485": 60,
        "11486": 10,
        "11487": 105,
        "11488": 101,
        "11489": 254,
        "11490": 48,
        "11491": 62,
        "11492": 54,
        "11493": 174,
        "11494": 8,
        "11495": 175,
        "11496": 14,
        "11497": 231,
        "11498": 97,
        "11499": 96,
        "11500": 152,
        "11501": 18,
        "11502": 135,
        "11503": 199,
        "11504": 220,
        "11505": 5,
        "11506": 59,
        "11507": 119,
        "11508": 228,
        "11509": 64,
        "11510": 79,
        "11511": 65,
        "11512": 152,
        "11513": 72,
        "11514": 212,
        "11515": 148,
        "11516": 50,
        "11517": 132,
        "11518": 218,
        "11519": 237,
        "11520": 155,
        "11521": 43,
        "11522": 180,
        "11523": 139,
        "11524": 116,
        "11525": 234,
        "11526": 232,
        "11527": 59,
        "11528": 169,
        "11529": 89,
        "11530": 253,
        "11531": 52,
        "11532": 111,
        "11533": 202,
        "11534": 130,
        "11535": 177,
        "11536": 63,
        "11537": 157,
        "11538": 66,
        "11539": 38,
        "11540": 228,
        "11541": 45,
        "11542": 72,
        "11543": 153,
        "11544": 28,
        "11545": 175,
        "11546": 101,
        "11547": 203,
        "11548": 112,
        "11549": 149,
        "11550": 160,
        "11551": 17,
        "11552": 216,
        "11553": 60,
        "11554": 80,
        "11555": 93,
        "11556": 101,
        "11557": 231,
        "11558": 68,
        "11559": 58,
        "11560": 171,
        "11561": 235,
        "11562": 3,
        "11563": 9,
        "11564": 99,
        "11565": 45,
        "11566": 42,
        "11567": 219,
        "11568": 178,
        "11569": 24,
        "11570": 206,
        "11571": 58,
        "11572": 34,
        "11573": 160,
        "11574": 67,
        "11575": 132,
        "11576": 220,
        "11577": 44,
        "11578": 238,
        "11579": 1,
        "11580": 164,
        "11581": 106,
        "11582": 154,
        "11583": 70,
        "11584": 164,
        "11585": 38,
        "11586": 10,
        "11587": 92,
        "11588": 255,
        "11589": 2,
        "11590": 219,
        "11591": 22,
        "11592": 249,
        "11593": 53,
        "11594": 227,
        "11595": 7,
        "11596": 27,
        "11597": 198,
        "11598": 30,
        "11599": 204,
        "11600": 7,
        "11601": 41,
        "11602": 174,
        "11603": 81,
        "11604": 153,
        "11605": 187,
        "11606": 245,
        "11607": 51,
        "11608": 166,
        "11609": 134,
        "11610": 12,
        "11611": 121,
        "11612": 156,
        "11613": 141,
        "11614": 178,
        "11615": 98,
        "11616": 224,
        "11617": 201,
        "11618": 234,
        "11619": 212,
        "11620": 211,
        "11621": 106,
        "11622": 157,
        "11623": 118,
        "11624": 182,
        "11625": 170,
        "11626": 170,
        "11627": 214,
        "11628": 239,
        "11629": 208,
        "11630": 5,
        "11631": 64,
        "11632": 247,
        "11633": 237,
        "11634": 179,
        "11635": 75,
        "11636": 159,
        "11637": 50,
        "11638": 185,
        "11639": 156,
        "11640": 42,
        "11641": 181,
        "11642": 113,
        "11643": 31,
        "11644": 251,
        "11645": 15,
        "11646": 206,
        "11647": 109,
        "11648": 231,
        "11649": 45,
        "11650": 166,
        "11651": 47,
        "11652": 50,
        "11653": 203,
        "11654": 84,
        "11655": 91,
        "11656": 255,
        "11657": 63,
        "11658": 32,
        "11659": 217,
        "11660": 171,
        "11661": 40,
        "11662": 247,
        "11663": 30,
        "11664": 29,
        "11665": 244,
        "11666": 166,
        "11667": 237,
        "11668": 209,
        "11669": 112,
        "11670": 37,
        "11671": 163,
        "11672": 204,
        "11673": 166,
        "11674": 31,
        "11675": 56,
        "11676": 82,
        "11677": 196,
        "11678": 235,
        "11679": 83,
        "11680": 197,
        "11681": 229,
        "11682": 15,
        "11683": 72,
        "11684": 113,
        "11685": 206,
        "11686": 200,
        "11687": 66,
        "11688": 58,
        "11689": 215,
        "11690": 181,
        "11691": 180,
        "11692": 214,
        "11693": 236,
        "11694": 116,
        "11695": 249,
        "11696": 128,
        "11697": 240,
        "11698": 235,
        "11699": 44,
        "11700": 162,
        "11701": 62,
        "11702": 27,
        "11703": 249,
        "11704": 96,
        "11705": 20,
        "11706": 133,
        "11707": 65,
        "11708": 224,
        "11709": 52,
        "11710": 196,
        "11711": 86,
        "11712": 67,
        "11713": 227,
        "11714": 206,
        "11715": 60,
        "11716": 228,
        "11717": 200,
        "11718": 119,
        "11719": 149,
        "11720": 176,
        "11721": 225,
        "11722": 191,
        "11723": 235,
        "11724": 74,
        "11725": 233,
        "11726": 91,
        "11727": 122,
        "11728": 49,
        "11729": 57,
        "11730": 170,
        "11731": 105,
        "11732": 147,
        "11733": 153,
        "11734": 46,
        "11735": 53,
        "11736": 107,
        "11737": 210,
        "11738": 117,
        "11739": 64,
        "11740": 38,
        "11741": 41,
        "11742": 87,
        "11743": 160,
        "11744": 197,
        "11745": 37,
        "11746": 168,
        "11747": 131,
        "11748": 131,
        "11749": 26,
        "11750": 136,
        "11751": 36,
        "11752": 133,
        "11753": 193,
        "11754": 102,
        "11755": 123,
        "11756": 198,
        "11757": 122,
        "11758": 186,
        "11759": 114,
        "11760": 8,
        "11761": 172,
        "11762": 210,
        "11763": 58,
        "11764": 69,
        "11765": 0,
        "11766": 176,
        "11767": 133,
        "11768": 231,
        "11769": 243,
        "11770": 144,
        "11771": 164,
        "11772": 151,
        "11773": 250,
        "11774": 206,
        "11775": 210,
        "11776": 178,
        "11777": 103,
        "11778": 133,
        "11779": 171,
        "11780": 208,
        "11781": 49,
        "11782": 17,
        "11783": 90,
        "11784": 92,
        "11785": 144,
        "11786": 165,
        "11787": 168,
        "11788": 40,
        "11789": 234,
        "11790": 123,
        "11791": 237,
        "11792": 207,
        "11793": 167,
        "11794": 82,
        "11795": 73,
        "11796": 200,
        "11797": 5,
        "11798": 156,
        "11799": 240,
        "11800": 0,
        "11801": 247,
        "11802": 103,
        "11803": 62,
        "11804": 212,
        "11805": 247,
        "11806": 26,
        "11807": 255,
        "11808": 145,
        "11809": 39,
        "11810": 121,
        "11811": 185,
        "11812": 12,
        "11813": 160,
        "11814": 90,
        "11815": 22,
        "11816": 139,
        "11817": 58,
        "11818": 142,
        "11819": 90,
        "11820": 60,
        "11821": 46,
        "11822": 106,
        "11823": 151,
        "11824": 119,
        "11825": 247,
        "11826": 78,
        "11827": 68,
        "11828": 114,
        "11829": 214,
        "11830": 174,
        "11831": 166,
        "11832": 39,
        "11833": 188,
        "11834": 18,
        "11835": 98,
        "11836": 138,
        "11837": 144,
        "11838": 13,
        "11839": 183,
        "11840": 208,
        "11841": 194,
        "11842": 107,
        "11843": 22,
        "11844": 164,
        "11845": 179,
        "11846": 191,
        "11847": 140,
        "11848": 7,
        "11849": 129,
        "11850": 7,
        "11851": 190,
        "11852": 84,
        "11853": 41,
        "11854": 24,
        "11855": 156,
        "11856": 252,
        "11857": 203,
        "11858": 129,
        "11859": 128,
        "11860": 142,
        "11861": 134,
        "11862": 138,
        "11863": 252,
        "11864": 106,
        "11865": 0,
        "11866": 129,
        "11867": 49,
        "11868": 162,
        "11869": 207,
        "11870": 106,
        "11871": 11,
        "11872": 206,
        "11873": 217,
        "11874": 108,
        "11875": 132,
        "11876": 134,
        "11877": 21,
        "11878": 29,
        "11879": 193,
        "11880": 202,
        "11881": 184,
        "11882": 13,
        "11883": 183,
        "11884": 57,
        "11885": 90,
        "11886": 230,
        "11887": 64,
        "11888": 227,
        "11889": 216,
        "11890": 13,
        "11891": 25,
        "11892": 54,
        "11893": 55,
        "11894": 247,
        "11895": 128,
        "11896": 5,
        "11897": 89,
        "11898": 141,
        "11899": 79,
        "11900": 244,
        "11901": 100,
        "11902": 14,
        "11903": 210,
        "11904": 160,
        "11905": 2,
        "11906": 93,
        "11907": 94,
        "11908": 91,
        "11909": 225,
        "11910": 155,
        "11911": 40,
        "11912": 13,
        "11913": 126,
        "11914": 152,
        "11915": 188,
        "11916": 138,
        "11917": 45,
        "11918": 91,
        "11919": 93,
        "11920": 81,
        "11921": 115,
        "11922": 32,
        "11923": 207,
        "11924": 58,
        "11925": 122,
        "11926": 109,
        "11927": 26,
        "11928": 210,
        "11929": 38,
        "11930": 65,
        "11931": 184,
        "11932": 233,
        "11933": 98,
        "11934": 150,
        "11935": 168,
        "11936": 84,
        "11937": 0,
        "11938": 249,
        "11939": 169,
        "11940": 156,
        "11941": 169,
        "11942": 48,
        "11943": 28,
        "11944": 181,
        "11945": 56,
        "11946": 163,
        "11947": 134,
        "11948": 39,
        "11949": 22,
        "11950": 206,
        "11951": 100,
        "11952": 181,
        "11953": 223,
        "11954": 103,
        "11955": 62,
        "11956": 199,
        "11957": 109,
        "11958": 217,
        "11959": 171,
        "11960": 238,
        "11961": 253,
        "11962": 99,
        "11963": 251,
        "11964": 158,
        "11965": 8,
        "11966": 104,
        "11967": 32,
        "11968": 4,
        "11969": 213,
        "11970": 30,
        "11971": 249,
        "11972": 252,
        "11973": 14,
        "11974": 232,
        "11975": 198,
        "11976": 102,
        "11977": 43,
        "11978": 46,
        "11979": 253,
        "11980": 78,
        "11981": 143,
        "11982": 219,
        "11983": 190,
        "11984": 86,
        "11985": 191,
        "11986": 166,
        "11987": 207,
        "11988": 206,
        "11989": 232,
        "11990": 31,
        "11991": 143,
        "11992": 99,
        "11993": 24,
        "11994": 225,
        "11995": 235,
        "11996": 99,
        "11997": 203,
        "11998": 110,
        "11999": 142,
        "12000": 241,
        "12001": 1,
        "12002": 147,
        "12003": 6,
        "12004": 11,
        "12005": 96,
        "12006": 250,
        "12007": 196,
        "12008": 50,
        "12009": 176,
        "12010": 38,
        "12011": 88,
        "12012": 59,
        "12013": 171,
        "12014": 240,
        "12015": 221,
        "12016": 246,
        "12017": 24,
        "12018": 109,
        "12019": 176,
        "12020": 243,
        "12021": 207,
        "12022": 212,
        "12023": 26,
        "12024": 185,
        "12025": 173,
        "12026": 36,
        "12027": 173,
        "12028": 141,
        "12029": 246,
        "12030": 70,
        "12031": 215,
        "12032": 70,
        "12033": 40,
        "12034": 143,
        "12035": 69,
        "12036": 120,
        "12037": 188,
        "12038": 37,
        "12039": 52,
        "12040": 46,
        "12041": 250,
        "12042": 179,
        "12043": 80,
        "12044": 43,
        "12045": 69,
        "12046": 127,
        "12047": 18,
        "12048": 20,
        "12049": 79,
        "12050": 214,
        "12051": 73,
        "12052": 202,
        "12053": 252,
        "12054": 159,
        "12055": 68,
        "12056": 60,
        "12057": 37,
        "12058": 53,
        "12059": 168,
        "12060": 222,
        "12061": 6,
        "12062": 153,
        "12063": 217,
        "12064": 234,
        "12065": 78,
        "12066": 156,
        "12067": 75,
        "12068": 30,
        "12069": 137,
        "12070": 160,
        "12071": 34,
        "12072": 23,
        "12073": 190,
        "12074": 174,
        "12075": 77,
        "12076": 131,
        "12077": 167,
        "12078": 103,
        "12079": 56,
        "12080": 207,
        "12081": 155,
        "12082": 69,
        "12083": 43,
        "12084": 73,
        "12085": 72,
        "12086": 27,
        "12087": 175,
        "12088": 70,
        "12089": 87,
        "12090": 213,
        "12091": 125,
        "12092": 134,
        "12093": 96,
        "12094": 68,
        "12095": 44,
        "12096": 47,
        "12097": 247,
        "12098": 153,
        "12099": 225,
        "12100": 17,
        "12101": 131,
        "12102": 83,
        "12103": 170,
        "12104": 166,
        "12105": 113,
        "12106": 6,
        "12107": 10,
        "12108": 30,
        "12109": 218,
        "12110": 15,
        "12111": 254,
        "12112": 239,
        "12113": 129,
        "12114": 216,
        "12115": 82,
        "12116": 129,
        "12117": 9,
        "12118": 141,
        "12119": 120,
        "12120": 11,
        "12121": 112,
        "12122": 206,
        "12123": 118,
        "12124": 1,
        "12125": 142,
        "12126": 87,
        "12127": 86,
        "12128": 209,
        "12129": 212,
        "12130": 89,
        "12131": 111,
        "12132": 34,
        "12133": 91,
        "12134": 144,
        "12135": 83,
        "12136": 242,
        "12137": 17,
        "12138": 125,
        "12139": 106,
        "12140": 207,
        "12141": 101,
        "12142": 26,
        "12143": 3,
        "12144": 61,
        "12145": 106,
        "12146": 126,
        "12147": 40,
        "12148": 54,
        "12149": 65,
        "12150": 49,
        "12151": 104,
        "12152": 143,
        "12153": 35,
        "12154": 20,
        "12155": 144,
        "12156": 189,
        "12157": 59,
        "12158": 33,
        "12159": 32,
        "12160": 112,
        "12161": 213,
        "12162": 150,
        "12163": 195,
        "12164": 22,
        "12165": 67,
        "12166": 53,
        "12167": 40,
        "12168": 27,
        "12169": 12,
        "12170": 239,
        "12171": 99,
        "12172": 244,
        "12173": 109,
        "12174": 154,
        "12175": 172,
        "12176": 76,
        "12177": 111,
        "12178": 242,
        "12179": 48,
        "12180": 215,
        "12181": 87,
        "12182": 108,
        "12183": 136,
        "12184": 137,
        "12185": 53,
        "12186": 200,
        "12187": 129,
        "12188": 205,
        "12189": 118,
        "12190": 159,
        "12191": 117,
        "12192": 38,
        "12193": 208,
        "12194": 33,
        "12195": 42,
        "12196": 109,
        "12197": 87,
        "12198": 106,
        "12199": 89,
        "12200": 229,
        "12201": 175,
        "12202": 93,
        "12203": 28,
        "12204": 14,
        "12205": 243,
        "12206": 197,
        "12207": 89,
        "12208": 231,
        "12209": 57,
        "12210": 133,
        "12211": 181,
        "12212": 146,
        "12213": 32,
        "12214": 19,
        "12215": 243,
        "12216": 201,
        "12217": 30,
        "12218": 142,
        "12219": 98,
        "12220": 208,
        "12221": 155,
        "12222": 232,
        "12223": 167,
        "12224": 217,
        "12225": 159,
        "12226": 174,
        "12227": 177,
        "12228": 213,
        "12229": 75,
        "12230": 171,
        "12231": 240,
        "12232": 30,
        "12233": 201,
        "12234": 81,
        "12235": 197,
        "12236": 200,
        "12237": 170,
        "12238": 147,
        "12239": 28,
        "12240": 70,
        "12241": 180,
        "12242": 113,
        "12243": 204,
        "12244": 104,
        "12245": 208,
        "12246": 191,
        "12247": 234,
        "12248": 139,
        "12249": 204,
        "12250": 175,
        "12251": 153,
        "12252": 7,
        "12253": 254,
        "12254": 219,
        "12255": 190,
        "12256": 117,
        "12257": 251,
        "12258": 249,
        "12259": 217,
        "12260": 94,
        "12261": 137,
        "12262": 8,
        "12263": 93,
        "12264": 113,
        "12265": 203,
        "12266": 48,
        "12267": 158,
        "12268": 214,
        "12269": 172,
        "12270": 77,
        "12271": 10,
        "12272": 248,
        "12273": 186,
        "12274": 73,
        "12275": 167,
        "12276": 25,
        "12277": 193,
        "12278": 83,
        "12279": 62,
        "12280": 139,
        "12281": 82,
        "12282": 205,
        "12283": 174,
        "12284": 172,
        "12285": 5,
        "12286": 10,
        "12287": 182,
        "12288": 106,
        "12289": 239,
        "12290": 4,
        "12291": 141,
        "12292": 160,
        "12293": 75,
        "12294": 100,
        "12295": 123,
        "12296": 88,
        "12297": 128,
        "12298": 74,
        "12299": 249,
        "12300": 51,
        "12301": 243,
        "12302": 229,
        "12303": 69,
        "12304": 141,
        "12305": 0,
        "12306": 66,
        "12307": 203,
        "12308": 81,
        "12309": 162,
        "12310": 151,
        "12311": 150,
        "12312": 182,
        "12313": 33,
        "12314": 193,
        "12315": 178,
        "12316": 98,
        "12317": 13,
        "12318": 171,
        "12319": 92,
        "12320": 240,
        "12321": 9,
        "12322": 153,
        "12323": 109,
        "12324": 125,
        "12325": 153,
        "12326": 12,
        "12327": 15,
        "12328": 136,
        "12329": 159,
        "12330": 167,
        "12331": 86,
        "12332": 68,
        "12333": 62,
        "12334": 246,
        "12335": 57,
        "12336": 207,
        "12337": 59,
        "12338": 133,
        "12339": 234,
        "12340": 20,
        "12341": 217,
        "12342": 101,
        "12343": 92,
        "12344": 101,
        "12345": 153,
        "12346": 37,
        "12347": 67,
        "12348": 214,
        "12349": 43,
        "12350": 165,
        "12351": 126,
        "12352": 78,
        "12353": 79,
        "12354": 197,
        "12355": 31,
        "12356": 86,
        "12357": 8,
        "12358": 63,
        "12359": 0,
        "12360": 115,
        "12361": 65,
        "12362": 61,
        "12363": 55,
        "12364": 89,
        "12365": 159,
        "12366": 5,
        "12367": 77,
        "12368": 113,
        "12369": 54,
        "12370": 124,
        "12371": 7,
        "12372": 104,
        "12373": 82,
        "12374": 118,
        "12375": 236,
        "12376": 53,
        "12377": 224,
        "12378": 195,
        "12379": 28,
        "12380": 154,
        "12381": 205,
        "12382": 52,
        "12383": 232,
        "12384": 36,
        "12385": 55,
        "12386": 143,
        "12387": 137,
        "12388": 43,
        "12389": 181,
        "12390": 31,
        "12391": 144,
        "12392": 102,
        "12393": 204,
        "12394": 200,
        "12395": 28,
        "12396": 249,
        "12397": 214,
        "12398": 30,
        "12399": 212,
        "12400": 69,
        "12401": 74,
        "12402": 8,
        "12403": 197,
        "12404": 151,
        "12405": 224,
        "12406": 18,
        "12407": 239,
        "12408": 65,
        "12409": 228,
        "12410": 199,
        "12411": 224,
        "12412": 25,
        "12413": 110,
        "12414": 89,
        "12415": 18,
        "12416": 212,
        "12417": 98,
        "12418": 35,
        "12419": 129,
        "12420": 171,
        "12421": 51,
        "12422": 240,
        "12423": 237,
        "12424": 220,
        "12425": 169,
        "12426": 103,
        "12427": 154,
        "12428": 90,
        "12429": 10,
        "12430": 255,
        "12431": 160,
        "12432": 8,
        "12433": 38,
        "12434": 209,
        "12435": 101,
        "12436": 76,
        "12437": 98,
        "12438": 38,
        "12439": 111,
        "12440": 27,
        "12441": 73,
        "12442": 24,
        "12443": 230,
        "12444": 164,
        "12445": 48,
        "12446": 133,
        "12447": 138,
        "12448": 236,
        "12449": 52,
        "12450": 183,
        "12451": 152,
        "12452": 23,
        "12453": 113,
        "12454": 144,
        "12455": 112,
        "12456": 116,
        "12457": 88,
        "12458": 200,
        "12459": 172,
        "12460": 7,
        "12461": 149,
        "12462": 189,
        "12463": 71,
        "12464": 194,
        "12465": 185,
        "12466": 88,
        "12467": 131,
        "12468": 137,
        "12469": 51,
        "12470": 143,
        "12471": 230,
        "12472": 153,
        "12473": 97,
        "12474": 29,
        "12475": 93,
        "12476": 28,
        "12477": 218,
        "12478": 34,
        "12479": 109,
        "12480": 177,
        "12481": 220,
        "12482": 216,
        "12483": 100,
        "12484": 227,
        "12485": 196,
        "12486": 73,
        "12487": 165,
        "12488": 118,
        "12489": 216,
        "12490": 26,
        "12491": 5,
        "12492": 118,
        "12493": 25,
        "12494": 87,
        "12495": 180,
        "12496": 233,
        "12497": 42,
        "12498": 219,
        "12499": 111,
        "12500": 59,
        "12501": 59,
        "12502": 47,
        "12503": 76,
        "12504": 156,
        "12505": 10,
        "12506": 34,
        "12507": 141,
        "12508": 96,
        "12509": 203,
        "12510": 46,
        "12511": 98,
        "12512": 160,
        "12513": 50,
        "12514": 228,
        "12515": 243,
        "12516": 189,
        "12517": 95,
        "12518": 64,
        "12519": 54,
        "12520": 185,
        "12521": 211,
        "12522": 61,
        "12523": 157,
        "12524": 58,
        "12525": 8,
        "12526": 218,
        "12527": 47,
        "12528": 218,
        "12529": 158,
        "12530": 247,
        "12531": 250,
        "12532": 222,
        "12533": 28,
        "12534": 169,
        "12535": 117,
        "12536": 165,
        "12537": 163,
        "12538": 175,
        "12539": 177,
        "12540": 1,
        "12541": 195,
        "12542": 54,
        "12543": 117,
        "12544": 70,
        "12545": 41,
        "12546": 143,
        "12547": 52,
        "12548": 37,
        "12549": 46,
        "12550": 193,
        "12551": 157,
        "12552": 113,
        "12553": 144,
        "12554": 136,
        "12555": 111,
        "12556": 17,
        "12557": 174,
        "12558": 189,
        "12559": 252,
        "12560": 186,
        "12561": 212,
        "12562": 146,
        "12563": 59,
        "12564": 67,
        "12565": 15,
        "12566": 102,
        "12567": 47,
        "12568": 40,
        "12569": 237,
        "12570": 239,
        "12571": 6,
        "12572": 138,
        "12573": 153,
        "12574": 26,
        "12575": 169,
        "12576": 27,
        "12577": 118,
        "12578": 194,
        "12579": 51,
        "12580": 176,
        "12581": 5,
        "12582": 110,
        "12583": 227,
        "12584": 107,
        "12585": 244,
        "12586": 80,
        "12587": 13,
        "12588": 177,
        "12589": 89,
        "12590": 18,
        "12591": 4,
        "12592": 254,
        "12593": 123,
        "12594": 226,
        "12595": 166,
        "12596": 210,
        "12597": 86,
        "12598": 248,
        "12599": 7,
        "12600": 32,
        "12601": 120,
        "12602": 0,
        "12603": 246,
        "12604": 48,
        "12605": 53,
        "12606": 166,
        "12607": 204,
        "12608": 32,
        "12609": 108,
        "12610": 85,
        "12611": 208,
        "12612": 152,
        "12613": 48,
        "12614": 182,
        "12615": 90,
        "12616": 5,
        "12617": 21,
        "12618": 222,
        "12619": 103,
        "12620": 253,
        "12621": 88,
        "12622": 207,
        "12623": 136,
        "12624": 160,
        "12625": 44,
        "12626": 232,
        "12627": 64,
        "12628": 0,
        "12629": 217,
        "12630": 194,
        "12631": 224,
        "12632": 130,
        "12633": 45,
        "12634": 46,
        "12635": 42,
        "12636": 223,
        "12637": 18,
        "12638": 127,
        "12639": 123,
        "12640": 142,
        "12641": 42,
        "12642": 75,
        "12643": 97,
        "12644": 67,
        "12645": 45,
        "12646": 26,
        "12647": 79,
        "12648": 17,
        "12649": 161,
        "12650": 194,
        "12651": 187,
        "12652": 72,
        "12653": 71,
        "12654": 30,
        "12655": 235,
        "12656": 48,
        "12657": 114,
        "12658": 128,
        "12659": 208,
        "12660": 204,
        "12661": 52,
        "12662": 246,
        "12663": 46,
        "12664": 151,
        "12665": 203,
        "12666": 99,
        "12667": 70,
        "12668": 174,
        "12669": 100,
        "12670": 152,
        "12671": 62,
        "12672": 30,
        "12673": 171,
        "12674": 223,
        "12675": 229,
        "12676": 63,
        "12677": 230,
        "12678": 217,
        "12679": 99,
        "12680": 96,
        "12681": 1,
        "12682": 96,
        "12683": 215,
        "12684": 254,
        "12685": 245,
        "12686": 140,
        "12687": 237,
        "12688": 121,
        "12689": 1,
        "12690": 94,
        "12691": 31,
        "12692": 198,
        "12693": 144,
        "12694": 243,
        "12695": 181,
        "12696": 141,
        "12697": 238,
        "12698": 74,
        "12699": 204,
        "12700": 86,
        "12701": 64,
        "12702": 239,
        "12703": 1,
        "12704": 63,
        "12705": 41,
        "12706": 145,
        "12707": 240,
        "12708": 117,
        "12709": 161,
        "12710": 169,
        "12711": 212,
        "12712": 88,
        "12713": 74,
        "12714": 175,
        "12715": 93,
        "12716": 47,
        "12717": 82,
        "12718": 67,
        "12719": 146,
        "12720": 64,
        "12721": 138,
        "12722": 126,
        "12723": 61,
        "12724": 133,
        "12725": 16,
        "12726": 236,
        "12727": 218,
        "12728": 107,
        "12729": 5,
        "12730": 176,
        "12731": 190,
        "12732": 145,
        "12733": 121,
        "12734": 41,
        "12735": 93,
        "12736": 227,
        "12737": 36,
        "12738": 111,
        "12739": 84,
        "12740": 213,
        "12741": 36,
        "12742": 168,
        "12743": 84,
        "12744": 239,
        "12745": 126,
        "12746": 252,
        "12747": 58,
        "12748": 77,
        "12749": 56,
        "12750": 86,
        "12751": 102,
        "12752": 177,
        "12753": 176,
        "12754": 213,
        "12755": 145,
        "12756": 164,
        "12757": 55,
        "12758": 86,
        "12759": 205,
        "12760": 253,
        "12761": 231,
        "12762": 252,
        "12763": 213,
        "12764": 52,
        "12765": 167,
        "12766": 181,
        "12767": 69,
        "12768": 91,
        "12769": 187,
        "12770": 211,
        "12771": 199,
        "12772": 224,
        "12773": 176,
        "12774": 63,
        "12775": 8,
        "12776": 98,
        "12777": 112,
        "12778": 180,
        "12779": 114,
        "12780": 201,
        "12781": 90,
        "12782": 253,
        "12783": 240,
        "12784": 233,
        "12785": 41,
        "12786": 173,
        "12787": 158,
        "12788": 216,
        "12789": 223,
        "12790": 230,
        "12791": 110,
        "12792": 75,
        "12793": 69,
        "12794": 5,
        "12795": 196,
        "12796": 77,
        "12797": 210,
        "12798": 56,
        "12799": 81,
        "12800": 203,
        "12801": 10,
        "12802": 235,
        "12803": 179,
        "12804": 198,
        "12805": 44,
        "12806": 59,
        "12807": 188,
        "12808": 186,
        "12809": 252,
        "12810": 182,
        "12811": 191,
        "12812": 197,
        "12813": 97,
        "12814": 24,
        "12815": 152,
        "12816": 177,
        "12817": 240,
        "12818": 67,
        "12819": 207,
        "12820": 169,
        "12821": 184,
        "12822": 22,
        "12823": 86,
        "12824": 104,
        "12825": 158,
        "12826": 252,
        "12827": 179,
        "12828": 231,
        "12829": 19,
        "12830": 16,
        "12831": 194,
        "12832": 3,
        "12833": 251,
        "12834": 152,
        "12835": 250,
        "12836": 104,
        "12837": 119,
        "12838": 28,
        "12839": 19,
        "12840": 48,
        "12841": 172,
        "12842": 31,
        "12843": 236,
        "12844": 19,
        "12845": 156,
        "12846": 215,
        "12847": 78,
        "12848": 28,
        "12849": 189,
        "12850": 23,
        "12851": 247,
        "12852": 199,
        "12853": 157,
        "12854": 216,
        "12855": 232,
        "12856": 233,
        "12857": 137,
        "12858": 2,
        "12859": 150,
        "12860": 119,
        "12861": 157,
        "12862": 151,
        "12863": 148,
        "12864": 118,
        "12865": 61,
        "12866": 102,
        "12867": 62,
        "12868": 205,
        "12869": 118,
        "12870": 254,
        "12871": 20,
        "12872": 180,
        "12873": 57,
        "12874": 221,
        "12875": 192,
        "12876": 60,
        "12877": 181,
        "12878": 71,
        "12879": 59,
        "12880": 232,
        "12881": 213,
        "12882": 248,
        "12883": 35,
        "12884": 148,
        "12885": 170,
        "12886": 7,
        "12887": 68,
        "12888": 214,
        "12889": 139,
        "12890": 190,
        "12891": 76,
        "12892": 104,
        "12893": 154,
        "12894": 199,
        "12895": 18,
        "12896": 190,
        "12897": 151,
        "12898": 66,
        "12899": 249,
        "12900": 250,
        "12901": 114,
        "12902": 197,
        "12903": 246,
        "12904": 232,
        "12905": 10,
        "12906": 232,
        "12907": 20,
        "12908": 221,
        "12909": 139,
        "12910": 4,
        "12911": 100,
        "12912": 187,
        "12913": 50,
        "12914": 6,
        "12915": 104,
        "12916": 111,
        "12917": 25,
        "12918": 194,
        "12919": 220,
        "12920": 114,
        "12921": 253,
        "12922": 123,
        "12923": 156,
        "12924": 211,
        "12925": 196,
        "12926": 207,
        "12927": 35,
        "12928": 221,
        "12929": 186,
        "12930": 46,
        "12931": 109,
        "12932": 3,
        "12933": 138,
        "12934": 100,
        "12935": 23,
        "12936": 197,
        "12937": 146,
        "12938": 197,
        "12939": 243,
        "12940": 88,
        "12941": 15,
        "12942": 183,
        "12943": 165,
        "12944": 134,
        "12945": 202,
        "12946": 236,
        "12947": 231,
        "12948": 242,
        "12949": 34,
        "12950": 108,
        "12951": 75,
        "12952": 5,
        "12953": 60,
        "12954": 214,
        "12955": 227,
        "12956": 132,
        "12957": 30,
        "12958": 124,
        "12959": 39,
        "12960": 202,
        "12961": 129,
        "12962": 62,
        "12963": 157,
        "12964": 66,
        "12965": 117,
        "12966": 233,
        "12967": 240,
        "12968": 107,
        "12969": 41,
        "12970": 101,
        "12971": 81,
        "12972": 16,
        "12973": 157,
        "12974": 63,
        "12975": 69,
        "12976": 221,
        "12977": 134,
        "12978": 213,
        "12979": 236,
        "12980": 244,
        "12981": 206,
        "12982": 83,
        "12983": 63,
        "12984": 42,
        "12985": 75,
        "12986": 249,
        "12987": 59,
        "12988": 124,
        "12989": 114,
        "12990": 61,
        "12991": 73,
        "12992": 43,
        "12993": 160,
        "12994": 218,
        "12995": 252,
        "12996": 112,
        "12997": 231,
        "12998": 124,
        "12999": 118,
        "13000": 103,
        "13001": 46,
        "13002": 164,
        "13003": 141,
        "13004": 245,
        "13005": 22,
        "13006": 38,
        "13007": 108,
        "13008": 151,
        "13009": 154,
        "13010": 244,
        "13011": 69,
        "13012": 16,
        "13013": 45,
        "13014": 1,
        "13015": 28,
        "13016": 132,
        "13017": 67,
        "13018": 224,
        "13019": 65,
        "13020": 224,
        "13021": 111,
        "13022": 229,
        "13023": 209,
        "13024": 24,
        "13025": 80,
        "13026": 150,
        "13027": 31,
        "13028": 31,
        "13029": 8,
        "13030": 238,
        "13031": 107,
        "13032": 55,
        "13033": 166,
        "13034": 221,
        "13035": 129,
        "13036": 110,
        "13037": 87,
        "13038": 172,
        "13039": 126,
        "13040": 46,
        "13041": 112,
        "13042": 165,
        "13043": 171,
        "13044": 58,
        "13045": 167,
        "13046": 99,
        "13047": 218,
        "13048": 52,
        "13049": 255,
        "13050": 211,
        "13051": 227,
        "13052": 176,
        "13053": 32,
        "13054": 247,
        "13055": 191,
        "13056": 251,
        "13057": 150,
        "13058": 227,
        "13059": 99,
        "13060": 167,
        "13061": 137,
        "13062": 252,
        "13063": 91,
        "13064": 42,
        "13065": 192,
        "13066": 189,
        "13067": 225,
        "13068": 178,
        "13069": 157,
        "13070": 150,
        "13071": 85,
        "13072": 59,
        "13073": 37,
        "13074": 43,
        "13075": 189,
        "13076": 244,
        "13077": 175,
        "13078": 14,
        "13079": 56,
        "13080": 236,
        "13081": 132,
        "13082": 139,
        "13083": 24,
        "13084": 66,
        "13085": 92,
        "13086": 170,
        "13087": 182,
        "13088": 19,
        "13089": 29,
        "13090": 255,
        "13091": 145,
        "13092": 239,
        "13093": 209,
        "13094": 140,
        "13095": 98,
        "13096": 254,
        "13097": 158,
        "13098": 17,
        "13099": 113,
        "13100": 122,
        "13101": 100,
        "13102": 228,
        "13103": 63,
        "13104": 48,
        "13105": 138,
        "13106": 165,
        "13107": 95,
        "13108": 205,
        "13109": 36,
        "13110": 110,
        "13111": 7,
        "13112": 73,
        "13113": 91,
        "13114": 22,
        "13115": 233,
        "13116": 48,
        "13117": 57,
        "13118": 26,
        "13119": 102,
        "13120": 15,
        "13121": 171,
        "13122": 109,
        "13123": 97,
        "13124": 115,
        "13125": 198,
        "13126": 89,
        "13127": 228,
        "13128": 7,
        "13129": 246,
        "13130": 45,
        "13131": 48,
        "13132": 9,
        "13133": 28,
        "13134": 32,
        "13135": 108,
        "13136": 23,
        "13137": 192,
        "13138": 104,
        "13139": 244,
        "13140": 218,
        "13141": 59,
        "13142": 50,
        "13143": 110,
        "13144": 2,
        "13145": 112,
        "13146": 147,
        "13147": 207,
        "13148": 169,
        "13149": 184,
        "13150": 104,
        "13151": 207,
        "13152": 45,
        "13153": 227,
        "13154": 138,
        "13155": 9,
        "13156": 234,
        "13157": 15,
        "13158": 73,
        "13159": 99,
        "13160": 171,
        "13161": 47,
        "13162": 92,
        "13163": 252,
        "13164": 9,
        "13165": 125,
        "13166": 199,
        "13167": 216,
        "13168": 199,
        "13169": 203,
        "13170": 161,
        "13171": 112,
        "13172": 41,
        "13173": 47,
        "13174": 163,
        "13175": 199,
        "13176": 47,
        "13177": 196,
        "13178": 178,
        "13179": 189,
        "13180": 92,
        "13181": 91,
        "13182": 201,
        "13183": 100,
        "13184": 11,
        "13185": 30,
        "13186": 116,
        "13187": 177,
        "13188": 252,
        "13189": 51,
        "13190": 76,
        "13191": 25,
        "13192": 232,
        "13193": 165,
        "13194": 54,
        "13195": 252,
        "13196": 234,
        "13197": 3,
        "13198": 113,
        "13199": 4,
        "13200": 109,
        "13201": 233,
        "13202": 182,
        "13203": 84,
        "13204": 94,
        "13205": 226,
        "13206": 49,
        "13207": 192,
        "13208": 205,
        "13209": 205,
        "13210": 191,
        "13211": 28,
        "13212": 196,
        "13213": 246,
        "13214": 218,
        "13215": 3,
        "13216": 41,
        "13217": 35,
        "13218": 99,
        "13219": 178,
        "13220": 82,
        "13221": 86,
        "13222": 232,
        "13223": 236,
        "13224": 122,
        "13225": 119,
        "13226": 154,
        "13227": 187,
        "13228": 27,
        "13229": 177,
        "13230": 7,
        "13231": 246,
        "13232": 32,
        "13233": 251,
        "13234": 250,
        "13235": 137,
        "13236": 153,
        "13237": 174,
        "13238": 216,
        "13239": 183,
        "13240": 168,
        "13241": 255,
        "13242": 140,
        "13243": 244,
        "13244": 102,
        "13245": 145,
        "13246": 205,
        "13247": 74,
        "13248": 133,
        "13249": 30,
        "13250": 173,
        "13251": 7,
        "13252": 213,
        "13253": 149,
        "13254": 18,
        "13255": 20,
        "13256": 144,
        "13257": 54,
        "13258": 202,
        "13259": 97,
        "13260": 157,
        "13261": 228,
        "13262": 50,
        "13263": 22,
        "13264": 162,
        "13265": 82,
        "13266": 126,
        "13267": 20,
        "13268": 22,
        "13269": 79,
        "13270": 2,
        "13271": 39,
        "13272": 196,
        "13273": 208,
        "13274": 155,
        "13275": 60,
        "13276": 28,
        "13277": 95,
        "13278": 86,
        "13279": 199,
        "13280": 201,
        "13281": 114,
        "13282": 38,
        "13283": 249,
        "13284": 11,
        "13285": 44,
        "13286": 180,
        "13287": 163,
        "13288": 157,
        "13289": 8,
        "13290": 39,
        "13291": 103,
        "13292": 140,
        "13293": 92,
        "13294": 229,
        "13295": 244,
        "13296": 223,
        "13297": 167,
        "13298": 109,
        "13299": 142,
        "13300": 41,
        "13301": 10,
        "13302": 251,
        "13303": 221,
        "13304": 62,
        "13305": 202,
        "13306": 247,
        "13307": 118,
        "13308": 4,
        "13309": 34,
        "13310": 59,
        "13311": 221,
        "13312": 29,
        "13313": 227,
        "13314": 179,
        "13315": 200,
        "13316": 202,
        "13317": 163,
        "13318": 58,
        "13319": 178,
        "13320": 16,
        "13321": 208,
        "13322": 34,
        "13323": 12,
        "13324": 43,
        "13325": 77,
        "13326": 98,
        "13327": 182,
        "13328": 178,
        "13329": 254,
        "13330": 67,
        "13331": 134,
        "13332": 93,
        "13333": 103,
        "13334": 131,
        "13335": 239,
        "13336": 240,
        "13337": 4,
        "13338": 45,
        "13339": 177,
        "13340": 16,
        "13341": 203,
        "13342": 138,
        "13343": 35,
        "13344": 213,
        "13345": 6,
        "13346": 137,
        "13347": 34,
        "13348": 55,
        "13349": 23,
        "13350": 7,
        "13351": 234,
        "13352": 142,
        "13353": 172,
        "13354": 53,
        "13355": 175,
        "13356": 143,
        "13357": 241,
        "13358": 236,
        "13359": 154,
        "13360": 26,
        "13361": 100,
        "13362": 22,
        "13363": 107,
        "13364": 117,
        "13365": 105,
        "13366": 82,
        "13367": 20,
        "13368": 154,
        "13369": 202,
        "13370": 18,
        "13371": 234,
        "13372": 246,
        "13373": 112,
        "13374": 155,
        "13375": 80,
        "13376": 103,
        "13377": 182,
        "13378": 125,
        "13379": 44,
        "13380": 74,
        "13381": 16,
        "13382": 55,
        "13383": 94,
        "13384": 34,
        "13385": 94,
        "13386": 211,
        "13387": 121,
        "13388": 152,
        "13389": 230,
        "13390": 152,
        "13391": 49,
        "13392": 163,
        "13393": 76,
        "13394": 142,
        "13395": 144,
        "13396": 206,
        "13397": 232,
        "13398": 242,
        "13399": 34,
        "13400": 178,
        "13401": 56,
        "13402": 171,
        "13403": 22,
        "13404": 95,
        "13405": 150,
        "13406": 64,
        "13407": 26,
        "13408": 23,
        "13409": 6,
        "13410": 33,
        "13411": 196,
        "13412": 119,
        "13413": 184,
        "13414": 14,
        "13415": 17,
        "13416": 243,
        "13417": 179,
        "13418": 100,
        "13419": 8,
        "13420": 13,
        "13421": 47,
        "13422": 221,
        "13423": 172,
        "13424": 55,
        "13425": 41,
        "13426": 37,
        "13427": 68,
        "13428": 129,
        "13429": 0,
        "13430": 182,
        "13431": 212,
        "13432": 87,
        "13433": 250,
        "13434": 147,
        "13435": 179,
        "13436": 146,
        "13437": 108,
        "13438": 241,
        "13439": 116,
        "13440": 153,
        "13441": 164,
        "13442": 92,
        "13443": 123,
        "13444": 128,
        "13445": 107,
        "13446": 16,
        "13447": 101,
        "13448": 141,
        "13449": 189,
        "13450": 99,
        "13451": 238,
        "13452": 111,
        "13453": 80,
        "13454": 115,
        "13455": 78,
        "13456": 118,
        "13457": 255,
        "13458": 31,
        "13459": 240,
        "13460": 61,
        "13461": 200,
        "13462": 242,
        "13463": 68,
        "13464": 117,
        "13465": 69,
        "13466": 213,
        "13467": 97,
        "13468": 233,
        "13469": 43,
        "13470": 60,
        "13471": 101,
        "13472": 98,
        "13473": 104,
        "13474": 121,
        "13475": 61,
        "13476": 20,
        "13477": 253,
        "13478": 179,
        "13479": 23,
        "13480": 2,
        "13481": 24,
        "13482": 226,
        "13483": 182,
        "13484": 247,
        "13485": 65,
        "13486": 213,
        "13487": 134,
        "13488": 123,
        "13489": 44,
        "13490": 65,
        "13491": 143,
        "13492": 173,
        "13493": 201,
        "13494": 20,
        "13495": 128,
        "13496": 220,
        "13497": 28,
        "13498": 98,
        "13499": 7,
        "13500": 114,
        "13501": 232,
        "13502": 130,
        "13503": 175,
        "13504": 44,
        "13505": 179,
        "13506": 51,
        "13507": 153,
        "13508": 91,
        "13509": 190,
        "13510": 8,
        "13511": 138,
        "13512": 3,
        "13513": 169,
        "13514": 53,
        "13515": 182,
        "13516": 111,
        "13517": 147,
        "13518": 144,
        "13519": 152,
        "13520": 242,
        "13521": 104,
        "13522": 191,
        "13523": 69,
        "13524": 91,
        "13525": 237,
        "13526": 15,
        "13527": 133,
        "13528": 129,
        "13529": 101,
        "13530": 197,
        "13531": 194,
        "13532": 175,
        "13533": 95,
        "13534": 233,
        "13535": 49,
        "13536": 166,
        "13537": 47,
        "13538": 113,
        "13539": 228,
        "13540": 20,
        "13541": 244,
        "13542": 228,
        "13543": 176,
        "13544": 100,
        "13545": 184,
        "13546": 69,
        "13547": 229,
        "13548": 221,
        "13549": 182,
        "13550": 255,
        "13551": 154,
        "13552": 120,
        "13553": 85,
        "13554": 214,
        "13555": 38,
        "13556": 194,
        "13557": 124,
        "13558": 205,
        "13559": 12,
        "13560": 95,
        "13561": 208,
        "13562": 14,
        "13563": 202,
        "13564": 202,
        "13565": 159,
        "13566": 121,
        "13567": 72,
        "13568": 199,
        "13569": 40,
        "13570": 87,
        "13571": 224,
        "13572": 234,
        "13573": 188,
        "13574": 143,
        "13575": 73,
        "13576": 82,
        "13577": 38,
        "13578": 6,
        "13579": 96,
        "13580": 192,
        "13581": 11,
        "13582": 90,
        "13583": 34,
        "13584": 255,
        "13585": 102,
        "13586": 9,
        "13587": 241,
        "13588": 189,
        "13589": 139,
        "13590": 204,
        "13591": 193,
        "13592": 147,
        "13593": 148,
        "13594": 41,
        "13595": 126,
        "13596": 63,
        "13597": 101,
        "13598": 94,
        "13599": 58,
        "13600": 210,
        "13601": 253,
        "13602": 193,
        "13603": 82,
        "13604": 6,
        "13605": 76,
        "13606": 16,
        "13607": 213,
        "13608": 65,
        "13609": 237,
        "13610": 154,
        "13611": 230,
        "13612": 161,
        "13613": 152,
        "13614": 93,
        "13615": 249,
        "13616": 63,
        "13617": 119,
        "13618": 218,
        "13619": 22,
        "13620": 167,
        "13621": 66,
        "13622": 102,
        "13623": 4,
        "13624": 155,
        "13625": 214,
        "13626": 20,
        "13627": 177,
        "13628": 19,
        "13629": 176,
        "13630": 200,
        "13631": 70,
        "13632": 203,
        "13633": 147,
        "13634": 242,
        "13635": 208,
        "13636": 224,
        "13637": 123,
        "13638": 195,
        "13639": 123,
        "13640": 203,
        "13641": 218,
        "13642": 177,
        "13643": 13,
        "13644": 88,
        "13645": 130,
        "13646": 36,
        "13647": 185,
        "13648": 85,
        "13649": 73,
        "13650": 247,
        "13651": 42,
        "13652": 146,
        "13653": 157,
        "13654": 237,
        "13655": 242,
        "13656": 127,
        "13657": 11,
        "13658": 174,
        "13659": 32,
        "13660": 57,
        "13661": 20,
        "13662": 86,
        "13663": 242,
        "13664": 132,
        "13665": 182,
        "13666": 105,
        "13667": 211,
        "13668": 237,
        "13669": 70,
        "13670": 113,
        "13671": 179,
        "13672": 197,
        "13673": 63,
        "13674": 191,
        "13675": 27,
        "13676": 242,
        "13677": 148,
        "13678": 30,
        "13679": 68,
        "13680": 19,
        "13681": 166,
        "13682": 209,
        "13683": 63,
        "13684": 109,
        "13685": 145,
        "13686": 51,
        "13687": 77,
        "13688": 83,
        "13689": 127,
        "13690": 191,
        "13691": 234,
        "13692": 248,
        "13693": 31,
        "13694": 133,
        "13695": 116,
        "13696": 188,
        "13697": 80,
        "13698": 171,
        "13699": 133,
        "13700": 26,
        "13701": 126,
        "13702": 22,
        "13703": 29,
        "13704": 175,
        "13705": 218,
        "13706": 24,
        "13707": 9,
        "13708": 98,
        "13709": 5,
        "13710": 49,
        "13711": 194,
        "13712": 75,
        "13713": 253,
        "13714": 162,
        "13715": 81,
        "13716": 150,
        "13717": 109,
        "13718": 135,
        "13719": 62,
        "13720": 252,
        "13721": 1,
        "13722": 105,
        "13723": 6,
        "13724": 57,
        "13725": 119,
        "13726": 242,
        "13727": 145,
        "13728": 84,
        "13729": 235,
        "13730": 39,
        "13731": 200,
        "13732": 54,
        "13733": 189,
        "13734": 58,
        "13735": 232,
        "13736": 204,
        "13737": 67,
        "13738": 15,
        "13739": 69,
        "13740": 32,
        "13741": 5,
        "13742": 217,
        "13743": 200,
        "13744": 89,
        "13745": 154,
        "13746": 25,
        "13747": 215,
        "13748": 212,
        "13749": 16,
        "13750": 206,
        "13751": 143,
        "13752": 147,
        "13753": 212,
        "13754": 97,
        "13755": 3,
        "13756": 23,
        "13757": 197,
        "13758": 232,
        "13759": 63,
        "13760": 57,
        "13761": 238,
        "13762": 125,
        "13763": 249,
        "13764": 149,
        "13765": 197,
        "13766": 222,
        "13767": 113,
        "13768": 124,
        "13769": 88,
        "13770": 46,
        "13771": 46,
        "13772": 153,
        "13773": 196,
        "13774": 90,
        "13775": 238,
        "13776": 86,
        "13777": 209,
        "13778": 13,
        "13779": 251,
        "13780": 232,
        "13781": 241,
        "13782": 88,
        "13783": 178,
        "13784": 237,
        "13785": 240,
        "13786": 41,
        "13787": 47,
        "13788": 211,
        "13789": 195,
        "13790": 39,
        "13791": 192,
        "13792": 169,
        "13793": 228,
        "13794": 206,
        "13795": 16,
        "13796": 209,
        "13797": 157,
        "13798": 13,
        "13799": 187,
        "13800": 160,
        "13801": 91,
        "13802": 190,
        "13803": 161,
        "13804": 120,
        "13805": 212,
        "13806": 67,
        "13807": 120,
        "13808": 13,
        "13809": 57,
        "13810": 201,
        "13811": 208,
        "13812": 255,
        "13813": 30,
        "13814": 189,
        "13815": 188,
        "13816": 81,
        "13817": 210,
        "13818": 130,
        "13819": 52,
        "13820": 192,
        "13821": 32,
        "13822": 167,
        "13823": 0,
        "13824": 160,
        "13825": 234,
        "13826": 85,
        "13827": 19,
        "13828": 115,
        "13829": 139,
        "13830": 76,
        "13831": 207,
        "13832": 173,
        "13833": 137,
        "13834": 97,
        "13835": 202,
        "13836": 254,
        "13837": 238,
        "13838": 226,
        "13839": 133,
        "13840": 21,
        "13841": 90,
        "13842": 99,
        "13843": 30,
        "13844": 33,
        "13845": 149,
        "13846": 150,
        "13847": 150,
        "13848": 39,
        "13849": 242,
        "13850": 144,
        "13851": 249,
        "13852": 229,
        "13853": 251,
        "13854": 48,
        "13855": 214,
        "13856": 29,
        "13857": 189,
        "13858": 210,
        "13859": 223,
        "13860": 76,
        "13861": 147,
        "13862": 181,
        "13863": 118,
        "13864": 168,
        "13865": 148,
        "13866": 7,
        "13867": 168,
        "13868": 194,
        "13869": 24,
        "13870": 36,
        "13871": 12,
        "13872": 180,
        "13873": 113,
        "13874": 241,
        "13875": 245,
        "13876": 129,
        "13877": 240,
        "13878": 11,
        "13879": 75,
        "13880": 36,
        "13881": 166,
        "13882": 241,
        "13883": 35,
        "13884": 186,
        "13885": 51,
        "13886": 150,
        "13887": 29,
        "13888": 26,
        "13889": 35,
        "13890": 49,
        "13891": 164,
        "13892": 23,
        "13893": 208,
        "13894": 6,
        "13895": 13,
        "13896": 23,
        "13897": 42,
        "13898": 204,
        "13899": 173,
        "13900": 150,
        "13901": 147,
        "13902": 57,
        "13903": 216,
        "13904": 25,
        "13905": 6,
        "13906": 97,
        "13907": 24,
        "13908": 136,
        "13909": 134,
        "13910": 135,
        "13911": 17,
        "13912": 38,
        "13913": 201,
        "13914": 117,
        "13915": 135,
        "13916": 5,
        "13917": 120,
        "13918": 137,
        "13919": 195,
        "13920": 29,
        "13921": 255,
        "13922": 174,
        "13923": 233,
        "13924": 177,
        "13925": 243,
        "13926": 205,
        "13927": 83,
        "13928": 98,
        "13929": 85,
        "13930": 217,
        "13931": 138,
        "13932": 172,
        "13933": 12,
        "13934": 60,
        "13935": 244,
        "13936": 53,
        "13937": 97,
        "13938": 12,
        "13939": 196,
        "13940": 38,
        "13941": 95,
        "13942": 152,
        "13943": 191,
        "13944": 98,
        "13945": 211,
        "13946": 236,
        "13947": 140,
        "13948": 182,
        "13949": 175,
        "13950": 144,
        "13951": 220,
        "13952": 67,
        "13953": 193,
        "13954": 132,
        "13955": 226,
        "13956": 147,
        "13957": 194,
        "13958": 53,
        "13959": 171,
        "13960": 204,
        "13961": 185,
        "13962": 43,
        "13963": 46,
        "13964": 90,
        "13965": 125,
        "13966": 154,
        "13967": 108,
        "13968": 84,
        "13969": 214,
        "13970": 238,
        "13971": 120,
        "13972": 153,
        "13973": 216,
        "13974": 83,
        "13975": 99,
        "13976": 117,
        "13977": 224,
        "13978": 29,
        "13979": 92,
        "13980": 109,
        "13981": 195,
        "13982": 162,
        "13983": 224,
        "13984": 122,
        "13985": 220,
        "13986": 34,
        "13987": 166,
        "13988": 76,
        "13989": 174,
        "13990": 226,
        "13991": 66,
        "13992": 201,
        "13993": 20,
        "13994": 169,
        "13995": 23,
        "13996": 248,
        "13997": 126,
        "13998": 4,
        "13999": 123,
        "14000": 41,
        "14001": 21,
        "14002": 96,
        "14003": 160,
        "14004": 192,
        "14005": 168,
        "14006": 19,
        "14007": 227,
        "14008": 60,
        "14009": 100,
        "14010": 214,
        "14011": 217,
        "14012": 122,
        "14013": 13,
        "14014": 183,
        "14015": 72,
        "14016": 62,
        "14017": 229,
        "14018": 124,
        "14019": 110,
        "14020": 139,
        "14021": 103,
        "14022": 103,
        "14023": 242,
        "14024": 193,
        "14025": 218,
        "14026": 226,
        "14027": 53,
        "14028": 131,
        "14029": 133,
        "14030": 174,
        "14031": 205,
        "14032": 179,
        "14033": 41,
        "14034": 48,
        "14035": 56,
        "14036": 231,
        "14037": 10,
        "14038": 121,
        "14039": 134,
        "14040": 86,
        "14041": 178,
        "14042": 171,
        "14043": 224,
        "14044": 39,
        "14045": 164,
        "14046": 184,
        "14047": 115,
        "14048": 248,
        "14049": 166,
        "14050": 101,
        "14051": 138,
        "14052": 136,
        "14053": 193,
        "14054": 125,
        "14055": 146,
        "14056": 67,
        "14057": 254,
        "14058": 32,
        "14059": 165,
        "14060": 129,
        "14061": 87,
        "14062": 41,
        "14063": 65,
        "14064": 121,
        "14065": 95,
        "14066": 25,
        "14067": 6,
        "14068": 199,
        "14069": 127,
        "14070": 92,
        "14071": 206,
        "14072": 176,
        "14073": 150,
        "14074": 206,
        "14075": 200,
        "14076": 163,
        "14077": 112,
        "14078": 195,
        "14079": 222,
        "14080": 166,
        "14081": 240,
        "14082": 217,
        "14083": 58,
        "14084": 178,
        "14085": 173,
        "14086": 163,
        "14087": 120,
        "14088": 208,
        "14089": 110,
        "14090": 98,
        "14091": 121,
        "14092": 7,
        "14093": 215,
        "14094": 111,
        "14095": 158,
        "14096": 6,
        "14097": 102,
        "14098": 212,
        "14099": 151,
        "14100": 224,
        "14101": 180,
        "14102": 10,
        "14103": 205,
        "14104": 0,
        "14105": 135,
        "14106": 234,
        "14107": 25,
        "14108": 184,
        "14109": 166,
        "14110": 77,
        "14111": 46,
        "14112": 48,
        "14113": 251,
        "14114": 102,
        "14115": 93,
        "14116": 226,
        "14117": 0,
        "14118": 46,
        "14119": 167,
        "14120": 220,
        "14121": 6,
        "14122": 217,
        "14123": 91,
        "14124": 35,
        "14125": 231,
        "14126": 95,
        "14127": 176,
        "14128": 169,
        "14129": 56,
        "14130": 34,
        "14131": 161,
        "14132": 239,
        "14133": 79,
        "14134": 121,
        "14135": 61,
        "14136": 52,
        "14137": 117,
        "14138": 79,
        "14139": 161,
        "14140": 35,
        "14141": 72,
        "14142": 80,
        "14143": 240,
        "14144": 126,
        "14145": 129,
        "14146": 220,
        "14147": 185,
        "14148": 25,
        "14149": 46,
        "14150": 172,
        "14151": 128,
        "14152": 128,
        "14153": 32,
        "14154": 43,
        "14155": 141,
        "14156": 14,
        "14157": 148,
        "14158": 86,
        "14159": 105,
        "14160": 249,
        "14161": 24,
        "14162": 117,
        "14163": 214,
        "14164": 119,
        "14165": 79,
        "14166": 144,
        "14167": 5,
        "14168": 1,
        "14169": 188,
        "14170": 71,
        "14171": 97,
        "14172": 226,
        "14173": 124,
        "14174": 162,
        "14175": 113,
        "14176": 14,
        "14177": 198,
        "14178": 121,
        "14179": 82,
        "14180": 232,
        "14181": 254,
        "14182": 97,
        "14183": 247,
        "14184": 189,
        "14185": 212,
        "14186": 135,
        "14187": 128,
        "14188": 44,
        "14189": 91,
        "14190": 114,
        "14191": 51,
        "14192": 7,
        "14193": 234,
        "14194": 81,
        "14195": 187,
        "14196": 85,
        "14197": 189,
        "14198": 131,
        "14199": 192,
        "14200": 207,
        "14201": 35,
        "14202": 17,
        "14203": 125,
        "14204": 196,
        "14205": 8,
        "14206": 86,
        "14207": 187,
        "14208": 197,
        "14209": 38,
        "14210": 105,
        "14211": 210,
        "14212": 156,
        "14213": 127,
        "14214": 50,
        "14215": 203,
        "14216": 30,
        "14217": 178,
        "14218": 243,
        "14219": 144,
        "14220": 44,
        "14221": 42,
        "14222": 73,
        "14223": 120,
        "14224": 119,
        "14225": 176,
        "14226": 201,
        "14227": 95,
        "14228": 60,
        "14229": 184,
        "14230": 69,
        "14231": 175,
        "14232": 203,
        "14233": 222,
        "14234": 34,
        "14235": 228,
        "14236": 82,
        "14237": 201,
        "14238": 10,
        "14239": 180,
        "14240": 22,
        "14241": 142,
        "14242": 174,
        "14243": 120,
        "14244": 120,
        "14245": 201,
        "14246": 123,
        "14247": 207,
        "14248": 71,
        "14249": 185,
        "14250": 194,
        "14251": 220,
        "14252": 159,
        "14253": 117,
        "14254": 13,
        "14255": 185,
        "14256": 157,
        "14257": 111,
        "14258": 192,
        "14259": 209,
        "14260": 156,
        "14261": 107,
        "14262": 11,
        "14263": 159,
        "14264": 135,
        "14265": 18,
        "14266": 112,
        "14267": 104,
        "14268": 95,
        "14269": 139,
        "14270": 200,
        "14271": 192,
        "14272": 150,
        "14273": 255,
        "14274": 18,
        "14275": 26,
        "14276": 196,
        "14277": 104,
        "14278": 175,
        "14279": 195,
        "14280": 251,
        "14281": 205,
        "14282": 45,
        "14283": 86,
        "14284": 19,
        "14285": 159,
        "14286": 39,
        "14287": 51,
        "14288": 40,
        "14289": 112,
        "14290": 21,
        "14291": 55,
        "14292": 46,
        "14293": 167,
        "14294": 120,
        "14295": 63,
        "14296": 180,
        "14297": 196,
        "14298": 71,
        "14299": 166,
        "14300": 129,
        "14301": 174,
        "14302": 64,
        "14303": 70,
        "14304": 46,
        "14305": 195,
        "14306": 26,
        "14307": 143,
        "14308": 254,
        "14309": 124,
        "14310": 20,
        "14311": 175,
        "14312": 64,
        "14313": 137,
        "14314": 32,
        "14315": 113,
        "14316": 60,
        "14317": 38,
        "14318": 119,
        "14319": 150,
        "14320": 169,
        "14321": 168,
        "14322": 57,
        "14323": 220,
        "14324": 150,
        "14325": 44,
        "14326": 14,
        "14327": 222,
        "14328": 42,
        "14329": 129,
        "14330": 71,
        "14331": 204,
        "14332": 58,
        "14333": 81,
        "14334": 85,
        "14335": 59,
        "14336": 217,
        "14337": 5,
        "14338": 204,
        "14339": 126,
        "14340": 78,
        "14341": 37,
        "14342": 179,
        "14343": 183,
        "14344": 118,
        "14345": 12,
        "14346": 108,
        "14347": 145,
        "14348": 218,
        "14349": 157,
        "14350": 90,
        "14351": 55,
        "14352": 116,
        "14353": 247,
        "14354": 183,
        "14355": 235,
        "14356": 30,
        "14357": 247,
        "14358": 224,
        "14359": 161,
        "14360": 221,
        "14361": 46,
        "14362": 29,
        "14363": 60,
        "14364": 49,
        "14365": 122,
        "14366": 188,
        "14367": 141,
        "14368": 193,
        "14369": 145,
        "14370": 193,
        "14371": 100,
        "14372": 161,
        "14373": 217,
        "14374": 152,
        "14375": 148,
        "14376": 246,
        "14377": 1,
        "14378": 208,
        "14379": 52,
        "14380": 51,
        "14381": 152,
        "14382": 14,
        "14383": 216,
        "14384": 207,
        "14385": 96,
        "14386": 110,
        "14387": 57,
        "14388": 187,
        "14389": 9,
        "14390": 15,
        "14391": 223,
        "14392": 112,
        "14393": 139,
        "14394": 117,
        "14395": 117,
        "14396": 181,
        "14397": 191,
        "14398": 133,
        "14399": 124,
        "14400": 199,
        "14401": 119,
        "14402": 241,
        "14403": 27,
        "14404": 161,
        "14405": 115,
        "14406": 149,
        "14407": 74,
        "14408": 130,
        "14409": 180,
        "14410": 22,
        "14411": 178,
        "14412": 74,
        "14413": 137,
        "14414": 171,
        "14415": 222,
        "14416": 239,
        "14417": 127,
        "14418": 131,
        "14419": 225,
        "14420": 196,
        "14421": 199,
        "14422": 170,
        "14423": 193,
        "14424": 38,
        "14425": 213,
        "14426": 99,
        "14427": 153,
        "14428": 82,
        "14429": 48,
        "14430": 76,
        "14431": 40,
        "14432": 66,
        "14433": 221,
        "14434": 220,
        "14435": 218,
        "14436": 193,
        "14437": 164,
        "14438": 3,
        "14439": 51,
        "14440": 128,
        "14441": 190,
        "14442": 121,
        "14443": 114,
        "14444": 32,
        "14445": 112,
        "14446": 87,
        "14447": 196,
        "14448": 153,
        "14449": 88,
        "14450": 73,
        "14451": 173,
        "14452": 6,
        "14453": 136,
        "14454": 83,
        "14455": 243,
        "14456": 108,
        "14457": 6,
        "14458": 42,
        "14459": 252,
        "14460": 198,
        "14461": 13,
        "14462": 226,
        "14463": 34,
        "14464": 246,
        "14465": 171,
        "14466": 160,
        "14467": 247,
        "14468": 80,
        "14469": 13,
        "14470": 151,
        "14471": 71,
        "14472": 150,
        "14473": 62,
        "14474": 13,
        "14475": 153,
        "14476": 46,
        "14477": 72,
        "14478": 147,
        "14479": 200,
        "14480": 10,
        "14481": 198,
        "14482": 238,
        "14483": 194,
        "14484": 174,
        "14485": 246,
        "14486": 255,
        "14487": 99,
        "14488": 98,
        "14489": 121,
        "14490": 34,
        "14491": 156,
        "14492": 180,
        "14493": 184,
        "14494": 192,
        "14495": 160,
        "14496": 61,
        "14497": 173,
        "14498": 244,
        "14499": 47,
        "14500": 195,
        "14501": 136,
        "14502": 178,
        "14503": 34,
        "14504": 107,
        "14505": 198,
        "14506": 233,
        "14507": 45,
        "14508": 66,
        "14509": 209,
        "14510": 176,
        "14511": 8,
        "14512": 67,
        "14513": 139,
        "14514": 27,
        "14515": 72,
        "14516": 183,
        "14517": 121,
        "14518": 148,
        "14519": 94,
        "14520": 151,
        "14521": 64,
        "14522": 133,
        "14523": 27,
        "14524": 233,
        "14525": 73,
        "14526": 242,
        "14527": 168,
        "14528": 238,
        "14529": 47,
        "14530": 76,
        "14531": 211,
        "14532": 12,
        "14533": 190,
        "14534": 123,
        "14535": 122,
        "14536": 62,
        "14537": 143,
        "14538": 172,
        "14539": 141,
        "14540": 41,
        "14541": 235,
        "14542": 233,
        "14543": 110,
        "14544": 177,
        "14545": 153,
        "14546": 124,
        "14547": 79,
        "14548": 231,
        "14549": 49,
        "14550": 151,
        "14551": 120,
        "14552": 117,
        "14553": 33,
        "14554": 241,
        "14555": 156,
        "14556": 60,
        "14557": 223,
        "14558": 156,
        "14559": 78,
        "14560": 237,
        "14561": 228,
        "14562": 157,
        "14563": 97,
        "14564": 145,
        "14565": 47,
        "14566": 43,
        "14567": 19,
        "14568": 77,
        "14569": 60,
        "14570": 79,
        "14571": 221,
        "14572": 213,
        "14573": 52,
        "14574": 200,
        "14575": 200,
        "14576": 185,
        "14577": 255,
        "14578": 63,
        "14579": 141,
        "14580": 90,
        "14581": 226,
        "14582": 109,
        "14583": 123,
        "14584": 95,
        "14585": 228,
        "14586": 97,
        "14587": 53,
        "14588": 178,
        "14589": 59,
        "14590": 94,
        "14591": 186,
        "14592": 115,
        "14593": 238,
        "14594": 53,
        "14595": 228,
        "14596": 228,
        "14597": 166,
        "14598": 34,
        "14599": 59,
        "14600": 222,
        "14601": 169,
        "14602": 24,
        "14603": 224,
        "14604": 153,
        "14605": 213,
        "14606": 32,
        "14607": 179,
        "14608": 219,
        "14609": 217,
        "14610": 18,
        "14611": 246,
        "14612": 44,
        "14613": 122,
        "14614": 86,
        "14615": 136,
        "14616": 226,
        "14617": 87,
        "14618": 183,
        "14619": 132,
        "14620": 60,
        "14621": 130,
        "14622": 242,
        "14623": 253,
        "14624": 166,
        "14625": 220,
        "14626": 13,
        "14627": 33,
        "14628": 9,
        "14629": 193,
        "14630": 139,
        "14631": 209,
        "14632": 119,
        "14633": 32,
        "14634": 82,
        "14635": 138,
        "14636": 141,
        "14637": 227,
        "14638": 196,
        "14639": 13,
        "14640": 78,
        "14641": 82,
        "14642": 193,
        "14643": 215,
        "14644": 249,
        "14645": 229,
        "14646": 106,
        "14647": 180,
        "14648": 28,
        "14649": 204,
        "14650": 224,
        "14651": 151,
        "14652": 168,
        "14653": 13,
        "14654": 156,
        "14655": 163,
        "14656": 4,
        "14657": 159,
        "14658": 135,
        "14659": 135,
        "14660": 253,
        "14661": 209,
        "14662": 67,
        "14663": 45,
        "14664": 220,
        "14665": 100,
        "14666": 173,
        "14667": 191,
        "14668": 101,
        "14669": 187,
        "14670": 34,
        "14671": 219,
        "14672": 27,
        "14673": 147,
        "14674": 64,
        "14675": 148,
        "14676": 194,
        "14677": 8,
        "14678": 244,
        "14679": 178,
        "14680": 65,
        "14681": 137,
        "14682": 83,
        "14683": 44,
        "14684": 39,
        "14685": 148,
        "14686": 100,
        "14687": 156,
        "14688": 177,
        "14689": 7,
        "14690": 177,
        "14691": 111,
        "14692": 25,
        "14693": 197,
        "14694": 38,
        "14695": 69,
        "14696": 191,
        "14697": 18,
        "14698": 13,
        "14699": 251,
        "14700": 84,
        "14701": 249,
        "14702": 254,
        "14703": 252,
        "14704": 54,
        "14705": 129,
        "14706": 27,
        "14707": 126,
        "14708": 155,
        "14709": 6,
        "14710": 24,
        "14711": 182,
        "14712": 92,
        "14713": 149,
        "14714": 4,
        "14715": 86,
        "14716": 31,
        "14717": 95,
        "14718": 191,
        "14719": 235,
        "14720": 228,
        "14721": 112,
        "14722": 110,
        "14723": 198,
        "14724": 100,
        "14725": 248,
        "14726": 59,
        "14727": 29,
        "14728": 9,
        "14729": 9,
        "14730": 104,
        "14731": 37,
        "14732": 140,
        "14733": 133,
        "14734": 180,
        "14735": 228,
        "14736": 76,
        "14737": 209,
        "14738": 25,
        "14739": 179,
        "14740": 89,
        "14741": 213,
        "14742": 76,
        "14743": 163,
        "14744": 188,
        "14745": 31,
        "14746": 70,
        "14747": 202,
        "14748": 233,
        "14749": 160,
        "14750": 112,
        "14751": 201,
        "14752": 136,
        "14753": 150,
        "14754": 220,
        "14755": 200,
        "14756": 203,
        "14757": 225,
        "14758": 179,
        "14759": 150,
        "14760": 192,
        "14761": 232,
        "14762": 145,
        "14763": 182,
        "14764": 222,
        "14765": 201,
        "14766": 194,
        "14767": 18,
        "14768": 87,
        "14769": 191,
        "14770": 196,
        "14771": 163,
        "14772": 101,
        "14773": 83,
        "14774": 82,
        "14775": 251,
        "14776": 134,
        "14777": 113,
        "14778": 113,
        "14779": 245,
        "14780": 83,
        "14781": 121,
        "14782": 14,
        "14783": 90,
        "14784": 49,
        "14785": 222,
        "14786": 55,
        "14787": 13,
        "14788": 18,
        "14789": 174,
        "14790": 141,
        "14791": 90,
        "14792": 24,
        "14793": 202,
        "14794": 191,
        "14795": 161,
        "14796": 61,
        "14797": 87,
        "14798": 13,
        "14799": 126,
        "14800": 181,
        "14801": 188,
        "14802": 13,
        "14803": 135,
        "14804": 63,
        "14805": 188,
        "14806": 96,
        "14807": 113,
        "14808": 44,
        "14809": 193,
        "14810": 134,
        "14811": 187,
        "14812": 207,
        "14813": 188,
        "14814": 58,
        "14815": 235,
        "14816": 220,
        "14817": 34,
        "14818": 37,
        "14819": 232,
        "14820": 133,
        "14821": 235,
        "14822": 207,
        "14823": 189,
        "14824": 178,
        "14825": 118,
        "14826": 9,
        "14827": 85,
        "14828": 171,
        "14829": 124,
        "14830": 97,
        "14831": 188,
        "14832": 189,
        "14833": 32,
        "14834": 79,
        "14835": 76,
        "14836": 91,
        "14837": 216,
        "14838": 207,
        "14839": 200,
        "14840": 41,
        "14841": 152,
        "14842": 67,
        "14843": 105,
        "14844": 11,
        "14845": 44,
        "14846": 204,
        "14847": 69,
        "14848": 116,
        "14849": 39,
        "14850": 75,
        "14851": 26,
        "14852": 251,
        "14853": 1,
        "14854": 224,
        "14855": 220,
        "14856": 128,
        "14857": 34,
        "14858": 120,
        "14859": 102,
        "14860": 116,
        "14861": 73,
        "14862": 107,
        "14863": 72,
        "14864": 126,
        "14865": 93,
        "14866": 119,
        "14867": 78,
        "14868": 121,
        "14869": 73,
        "14870": 41,
        "14871": 63,
        "14872": 54,
        "14873": 24,
        "14874": 3,
        "14875": 13,
        "14876": 214,
        "14877": 72,
        "14878": 210,
        "14879": 103,
        "14880": 18,
        "14881": 90,
        "14882": 57,
        "14883": 25,
        "14884": 48,
        "14885": 75,
        "14886": 156,
        "14887": 108,
        "14888": 241,
        "14889": 236,
        "14890": 217,
        "14891": 96,
        "14892": 217,
        "14893": 108,
        "14894": 188,
        "14895": 108,
        "14896": 249,
        "14897": 171,
        "14898": 232,
        "14899": 222,
        "14900": 251,
        "14901": 253,
        "14902": 56,
        "14903": 41,
        "14904": 54,
        "14905": 203,
        "14906": 120,
        "14907": 251,
        "14908": 2,
        "14909": 51,
        "14910": 198,
        "14911": 79,
        "14912": 193,
        "14913": 25,
        "14914": 189,
        "14915": 140,
        "14916": 164,
        "14917": 115,
        "14918": 247,
        "14919": 21,
        "14920": 255,
        "14921": 141,
        "14922": 25,
        "14923": 124,
        "14924": 142,
        "14925": 136,
        "14926": 91,
        "14927": 72,
        "14928": 33,
        "14929": 164,
        "14930": 145,
        "14931": 69,
        "14932": 0,
        "14933": 206,
        "14934": 217,
        "14935": 224,
        "14936": 27,
        "14937": 173,
        "14938": 134,
        "14939": 179,
        "14940": 208,
        "14941": 95,
        "14942": 226,
        "14943": 56,
        "14944": 24,
        "14945": 114,
        "14946": 57,
        "14947": 22,
        "14948": 87,
        "14949": 200,
        "14950": 185,
        "14951": 132,
        "14952": 176,
        "14953": 134,
        "14954": 39,
        "14955": 218,
        "14956": 127,
        "14957": 4,
        "14958": 112,
        "14959": 161,
        "14960": 239,
        "14961": 179,
        "14962": 85,
        "14963": 73,
        "14964": 128,
        "14965": 88,
        "14966": 26,
        "14967": 202,
        "14968": 231,
        "14969": 99,
        "14970": 219,
        "14971": 14,
        "14972": 164,
        "14973": 90,
        "14974": 196,
        "14975": 126,
        "14976": 66,
        "14977": 153,
        "14978": 211,
        "14979": 186,
        "14980": 195,
        "14981": 254,
        "14982": 25,
        "14983": 103,
        "14984": 230,
        "14985": 120,
        "14986": 65,
        "14987": 104,
        "14988": 231,
        "14989": 56,
        "14990": 118,
        "14991": 248,
        "14992": 248,
        "14993": 110,
        "14994": 172,
        "14995": 94,
        "14996": 236,
        "14997": 56,
        "14998": 180,
        "14999": 95,
        "15000": 125,
        "15001": 204,
        "15002": 254,
        "15003": 69,
        "15004": 170,
        "15005": 253,
        "15006": 45,
        "15007": 223,
        "15008": 69,
        "15009": 141,
        "15010": 106,
        "15011": 118,
        "15012": 243,
        "15013": 64,
        "15014": 227,
        "15015": 51,
        "15016": 213,
        "15017": 33,
        "15018": 191,
        "15019": 131,
        "15020": 138,
        "15021": 119,
        "15022": 13,
        "15023": 244,
        "15024": 166,
        "15025": 145,
        "15026": 6,
        "15027": 189,
        "15028": 141,
        "15029": 18,
        "15030": 185,
        "15031": 108,
        "15032": 75,
        "15033": 180,
        "15034": 253,
        "15035": 184,
        "15036": 201,
        "15037": 77,
        "15038": 6,
        "15039": 246,
        "15040": 156,
        "15041": 237,
        "15042": 44,
        "15043": 94,
        "15044": 224,
        "15045": 31,
        "15046": 166,
        "15047": 20,
        "15048": 154,
        "15049": 214,
        "15050": 140,
        "15051": 74,
        "15052": 58,
        "15053": 47,
        "15054": 150,
        "15055": 124,
        "15056": 107,
        "15057": 8,
        "15058": 96,
        "15059": 50,
        "15060": 173,
        "15061": 128,
        "15062": 132,
        "15063": 144,
        "15064": 129,
        "15065": 233,
        "15066": 33,
        "15067": 13,
        "15068": 73,
        "15069": 102,
        "15070": 10,
        "15071": 226,
        "15072": 137,
        "15073": 22,
        "15074": 176,
        "15075": 203,
        "15076": 36,
        "15077": 62,
        "15078": 83,
        "15079": 242,
        "15080": 165,
        "15081": 107,
        "15082": 62,
        "15083": 243,
        "15084": 21,
        "15085": 193,
        "15086": 132,
        "15087": 40,
        "15088": 251,
        "15089": 141,
        "15090": 189,
        "15091": 48,
        "15092": 27,
        "15093": 99,
        "15094": 57,
        "15095": 247,
        "15096": 17,
        "15097": 243,
        "15098": 236,
        "15099": 89,
        "15100": 63,
        "15101": 224,
        "15102": 156,
        "15103": 249,
        "15104": 91,
        "15105": 7,
        "15106": 75,
        "15107": 192,
        "15108": 176,
        "15109": 3,
        "15110": 167,
        "15111": 211,
        "15112": 105,
        "15113": 162,
        "15114": 239,
        "15115": 162,
        "15116": 24,
        "15117": 68,
        "15118": 244,
        "15119": 18,
        "15120": 86,
        "15121": 92,
        "15122": 241,
        "15123": 149,
        "15124": 181,
        "15125": 8,
        "15126": 184,
        "15127": 69,
        "15128": 145,
        "15129": 42,
        "15130": 131,
        "15131": 203,
        "15132": 9,
        "15133": 145,
        "15134": 244,
        "15135": 248,
        "15136": 9,
        "15137": 228,
        "15138": 223,
        "15139": 196,
        "15140": 196,
        "15141": 63,
        "15142": 171,
        "15143": 130,
        "15144": 101,
        "15145": 3,
        "15146": 109,
        "15147": 183,
        "15148": 94,
        "15149": 52,
        "15150": 206,
        "15151": 165,
        "15152": 248,
        "15153": 99,
        "15154": 91,
        "15155": 1,
        "15156": 0,
        "15157": 160,
        "15158": 172,
        "15159": 172,
        "15160": 212,
        "15161": 175,
        "15162": 51,
        "15163": 120,
        "15164": 200,
        "15165": 240,
        "15166": 98,
        "15167": 178,
        "15168": 189,
        "15169": 46,
        "15170": 255,
        "15171": 193,
        "15172": 225,
        "15173": 53,
        "15174": 138,
        "15175": 98,
        "15176": 134,
        "15177": 174,
        "15178": 218,
        "15179": 248,
        "15180": 129,
        "15181": 183,
        "15182": 103,
        "15183": 132,
        "15184": 98,
        "15185": 148,
        "15186": 24,
        "15187": 184,
        "15188": 158,
        "15189": 110,
        "15190": 53,
        "15191": 22,
        "15192": 178,
        "15193": 159,
        "15194": 170,
        "15195": 254,
        "15196": 206,
        "15197": 194,
        "15198": 114,
        "15199": 97,
        "15200": 146,
        "15201": 188,
        "15202": 221,
        "15203": 153,
        "15204": 196,
        "15205": 99,
        "15206": 33,
        "15207": 47,
        "15208": 74,
        "15209": 131,
        "15210": 252,
        "15211": 163,
        "15212": 85,
        "15213": 11,
        "15214": 129,
        "15215": 250,
        "15216": 16,
        "15217": 196,
        "15218": 190,
        "15219": 66,
        "15220": 248,
        "15221": 248,
        "15222": 8,
        "15223": 254,
        "15224": 149,
        "15225": 125,
        "15226": 208,
        "15227": 86,
        "15228": 95,
        "15229": 122,
        "15230": 158,
        "15231": 64,
        "15232": 124,
        "15233": 27,
        "15234": 119,
        "15235": 134,
        "15236": 220,
        "15237": 12,
        "15238": 10,
        "15239": 215,
        "15240": 216,
        "15241": 61,
        "15242": 35,
        "15243": 140,
        "15244": 118,
        "15245": 104,
        "15246": 64,
        "15247": 87,
        "15248": 248,
        "15249": 160,
        "15250": 214,
        "15251": 70,
        "15252": 251,
        "15253": 242,
        "15254": 65,
        "15255": 95,
        "15256": 99,
        "15257": 234,
        "15258": 11,
        "15259": 174,
        "15260": 143,
        "15261": 43,
        "15262": 144,
        "15263": 128,
        "15264": 140,
        "15265": 243,
        "15266": 78,
        "15267": 186,
        "15268": 68,
        "15269": 203,
        "15270": 7,
        "15271": 50,
        "15272": 1,
        "15273": 17,
        "15274": 3,
        "15275": 118,
        "15276": 29,
        "15277": 255,
        "15278": 2,
        "15279": 82,
        "15280": 193,
        "15281": 111,
        "15282": 62,
        "15283": 56,
        "15284": 174,
        "15285": 127,
        "15286": 38,
        "15287": 188,
        "15288": 58,
        "15289": 44,
        "15290": 243,
        "15291": 213,
        "15292": 140,
        "15293": 178,
        "15294": 78,
        "15295": 64,
        "15296": 94,
        "15297": 89,
        "15298": 127,
        "15299": 66,
        "15300": 174,
        "15301": 113,
        "15302": 166,
        "15303": 81,
        "15304": 166,
        "15305": 176,
        "15306": 93,
        "15307": 238,
        "15308": 42,
        "15309": 103,
        "15310": 237,
        "15311": 172,
        "15312": 25,
        "15313": 103,
        "15314": 184,
        "15315": 141,
        "15316": 207,
        "15317": 235,
        "15318": 28,
        "15319": 63,
        "15320": 61,
        "15321": 252,
        "15322": 124,
        "15323": 168,
        "15324": 201,
        "15325": 116,
        "15326": 233,
        "15327": 200,
        "15328": 101,
        "15329": 119,
        "15330": 9,
        "15331": 238,
        "15332": 75,
        "15333": 83,
        "15334": 10,
        "15335": 52,
        "15336": 7,
        "15337": 109,
        "15338": 205,
        "15339": 178,
        "15340": 43,
        "15341": 178,
        "15342": 3,
        "15343": 90,
        "15344": 140,
        "15345": 151,
        "15346": 0,
        "15347": 211,
        "15348": 191,
        "15349": 166,
        "15350": 124,
        "15351": 29,
        "15352": 65,
        "15353": 168,
        "15354": 137,
        "15355": 90,
        "15356": 81,
        "15357": 116,
        "15358": 173,
        "15359": 221,
        "15360": 159,
        "15361": 49,
        "15362": 200,
        "15363": 27,
        "15364": 153,
        "15365": 127,
        "15366": 97,
        "15367": 60,
        "15368": 84,
        "15369": 36,
        "15370": 51,
        "15371": 56,
        "15372": 224,
        "15373": 94,
        "15374": 12,
        "15375": 241,
        "15376": 196,
        "15377": 138,
        "15378": 246,
        "15379": 112,
        "15380": 222,
        "15381": 167,
        "15382": 201,
        "15383": 14,
        "15384": 8,
        "15385": 146,
        "15386": 183,
        "15387": 242,
        "15388": 232,
        "15389": 66,
        "15390": 110,
        "15391": 226,
        "15392": 41,
        "15393": 123,
        "15394": 205,
        "15395": 71,
        "15396": 91,
        "15397": 110,
        "15398": 92,
        "15399": 155,
        "15400": 61,
        "15401": 15,
        "15402": 153,
        "15403": 171,
        "15404": 112,
        "15405": 79,
        "15406": 4,
        "15407": 210,
        "15408": 31,
        "15409": 44,
        "15410": 59,
        "15411": 113,
        "15412": 112,
        "15413": 122,
        "15414": 237,
        "15415": 241,
        "15416": 238,
        "15417": 115,
        "15418": 88,
        "15419": 251,
        "15420": 141,
        "15421": 80,
        "15422": 235,
        "15423": 29,
        "15424": 166,
        "15425": 71,
        "15426": 210,
        "15427": 49,
        "15428": 134,
        "15429": 138,
        "15430": 201,
        "15431": 135,
        "15432": 5,
        "15433": 158,
        "15434": 97,
        "15435": 2,
        "15436": 86,
        "15437": 134,
        "15438": 8,
        "15439": 139,
        "15440": 50,
        "15441": 202,
        "15442": 200,
        "15443": 14,
        "15444": 44,
        "15445": 206,
        "15446": 19,
        "15447": 113,
        "15448": 27,
        "15449": 57,
        "15450": 242,
        "15451": 226,
        "15452": 168,
        "15453": 169,
        "15454": 49,
        "15455": 242,
        "15456": 33,
        "15457": 174,
        "15458": 249,
        "15459": 77,
        "15460": 99,
        "15461": 160,
        "15462": 237,
        "15463": 170,
        "15464": 47,
        "15465": 62,
        "15466": 109,
        "15467": 211,
        "15468": 153,
        "15469": 31,
        "15470": 255,
        "15471": 132,
        "15472": 219,
        "15473": 202,
        "15474": 59,
        "15475": 110,
        "15476": 175,
        "15477": 116,
        "15478": 245,
        "15479": 127,
        "15480": 236,
        "15481": 57,
        "15482": 133,
        "15483": 121,
        "15484": 23,
        "15485": 205,
        "15486": 34,
        "15487": 5,
        "15488": 204,
        "15489": 220,
        "15490": 234,
        "15491": 80,
        "15492": 96,
        "15493": 48,
        "15494": 129,
        "15495": 197,
        "15496": 5,
        "15497": 224,
        "15498": 152,
        "15499": 186,
        "15500": 83,
        "15501": 187,
        "15502": 226,
        "15503": 30,
        "15504": 80,
        "15505": 254,
        "15506": 127,
        "15507": 59,
        "15508": 27,
        "15509": 48,
        "15510": 76,
        "15511": 247,
        "15512": 230,
        "15513": 179,
        "15514": 142,
        "15515": 73,
        "15516": 158,
        "15517": 249,
        "15518": 142,
        "15519": 137,
        "15520": 106,
        "15521": 149,
        "15522": 201,
        "15523": 87,
        "15524": 197,
        "15525": 244,
        "15526": 221,
        "15527": 254,
        "15528": 9,
        "15529": 141,
        "15530": 116,
        "15531": 185,
        "15532": 134,
        "15533": 215,
        "15534": 24,
        "15535": 201,
        "15536": 1,
        "15537": 44,
        "15538": 18,
        "15539": 138,
        "15540": 51,
        "15541": 147,
        "15542": 3,
        "15543": 169,
        "15544": 182,
        "15545": 75,
        "15546": 27,
        "15547": 135,
        "15548": 16,
        "15549": 136,
        "15550": 1,
        "15551": 61,
        "15552": 175,
        "15553": 81,
        "15554": 120,
        "15555": 191,
        "15556": 143,
        "15557": 29,
        "15558": 92,
        "15559": 217,
        "15560": 250,
        "15561": 8,
        "15562": 151,
        "15563": 63,
        "15564": 66,
        "15565": 237,
        "15566": 93,
        "15567": 35,
        "15568": 104,
        "15569": 117,
        "15570": 231,
        "15571": 184,
        "15572": 213,
        "15573": 169,
        "15574": 93,
        "15575": 95,
        "15576": 219,
        "15577": 166,
        "15578": 56,
        "15579": 221,
        "15580": 50,
        "15581": 69,
        "15582": 171,
        "15583": 153,
        "15584": 106,
        "15585": 143,
        "15586": 74,
        "15587": 250,
        "15588": 216,
        "15589": 68,
        "15590": 106,
        "15591": 204,
        "15592": 122,
        "15593": 251,
        "15594": 20,
        "15595": 5,
        "15596": 157,
        "15597": 54,
        "15598": 204,
        "15599": 26,
        "15600": 87,
        "15601": 8,
        "15602": 121,
        "15603": 23,
        "15604": 130,
        "15605": 103,
        "15606": 201,
        "15607": 41,
        "15608": 99,
        "15609": 92,
        "15610": 85,
        "15611": 157,
        "15612": 72,
        "15613": 197,
        "15614": 120,
        "15615": 197,
        "15616": 224,
        "15617": 148,
        "15618": 214,
        "15619": 20,
        "15620": 195,
        "15621": 205,
        "15622": 134,
        "15623": 131,
        "15624": 147,
        "15625": 22,
        "15626": 20,
        "15627": 126,
        "15628": 250,
        "15629": 135,
        "15630": 94,
        "15631": 15,
        "15632": 86,
        "15633": 24,
        "15634": 146,
        "15635": 8,
        "15636": 213,
        "15637": 143,
        "15638": 34,
        "15639": 127,
        "15640": 9,
        "15641": 151,
        "15642": 224,
        "15643": 161,
        "15644": 77,
        "15645": 36,
        "15646": 223,
        "15647": 37,
        "15648": 73,
        "15649": 118,
        "15650": 121,
        "15651": 121,
        "15652": 7,
        "15653": 194,
        "15654": 83,
        "15655": 146,
        "15656": 17,
        "15657": 4,
        "15658": 182,
        "15659": 220,
        "15660": 63,
        "15661": 253,
        "15662": 185,
        "15663": 70,
        "15664": 133,
        "15665": 147,
        "15666": 10,
        "15667": 156,
        "15668": 89,
        "15669": 246,
        "15670": 70,
        "15671": 19,
        "15672": 201,
        "15673": 25,
        "15674": 218,
        "15675": 240,
        "15676": 106,
        "15677": 77,
        "15678": 133,
        "15679": 39,
        "15680": 221,
        "15681": 161,
        "15682": 9,
        "15683": 201,
        "15684": 25,
        "15685": 163,
        "15686": 83,
        "15687": 208,
        "15688": 178,
        "15689": 51,
        "15690": 110,
        "15691": 103,
        "15692": 177,
        "15693": 68,
        "15694": 111,
        "15695": 106,
        "15696": 226,
        "15697": 228,
        "15698": 87,
        "15699": 6,
        "15700": 196,
        "15701": 242,
        "15702": 49,
        "15703": 117,
        "15704": 192,
        "15705": 13,
        "15706": 57,
        "15707": 236,
        "15708": 245,
        "15709": 39,
        "15710": 38,
        "15711": 0,
        "15712": 189,
        "15713": 193,
        "15714": 4,
        "15715": 201,
        "15716": 152,
        "15717": 209,
        "15718": 218,
        "15719": 1,
        "15720": 146,
        "15721": 202,
        "15722": 73,
        "15723": 110,
        "15724": 153,
        "15725": 39,
        "15726": 72,
        "15727": 37,
        "15728": 164,
        "15729": 156,
        "15730": 10,
        "15731": 226,
        "15732": 199,
        "15733": 62,
        "15734": 185,
        "15735": 54,
        "15736": 54,
        "15737": 59,
        "15738": 238,
        "15739": 227,
        "15740": 161,
        "15741": 20,
        "15742": 104,
        "15743": 198,
        "15744": 113,
        "15745": 160,
        "15746": 161,
        "15747": 58,
        "15748": 11,
        "15749": 147,
        "15750": 95,
        "15751": 235,
        "15752": 222,
        "15753": 131,
        "15754": 74,
        "15755": 153,
        "15756": 65,
        "15757": 93,
        "15758": 32,
        "15759": 227,
        "15760": 149,
        "15761": 57,
        "15762": 173,
        "15763": 40,
        "15764": 123,
        "15765": 42,
        "15766": 225,
        "15767": 250,
        "15768": 222,
        "15769": 171,
        "15770": 119,
        "15771": 29,
        "15772": 214,
        "15773": 50,
        "15774": 198,
        "15775": 197,
        "15776": 71,
        "15777": 63,
        "15778": 212,
        "15779": 117,
        "15780": 173,
        "15781": 194,
        "15782": 239,
        "15783": 81,
        "15784": 35,
        "15785": 95,
        "15786": 255,
        "15787": 188,
        "15788": 75,
        "15789": 179,
        "15790": 235,
        "15791": 203,
        "15792": 77,
        "15793": 194,
        "15794": 29,
        "15795": 48,
        "15796": 170,
        "15797": 55,
        "15798": 232,
        "15799": 216,
        "15800": 214,
        "15801": 79,
        "15802": 31,
        "15803": 163,
        "15804": 193,
        "15805": 135,
        "15806": 253,
        "15807": 30,
        "15808": 154,
        "15809": 40,
        "15810": 197,
        "15811": 15,
        "15812": 96,
        "15813": 176,
        "15814": 119,
        "15815": 159,
        "15816": 228,
        "15817": 195,
        "15818": 149,
        "15819": 218,
        "15820": 172,
        "15821": 40,
        "15822": 215,
        "15823": 24,
        "15824": 186,
        "15825": 163,
        "15826": 131,
        "15827": 216,
        "15828": 30,
        "15829": 3,
        "15830": 232,
        "15831": 188,
        "15832": 120,
        "15833": 76,
        "15834": 171,
        "15835": 225,
        "15836": 28,
        "15837": 192,
        "15838": 62,
        "15839": 175,
        "15840": 182,
        "15841": 250,
        "15842": 109,
        "15843": 125,
        "15844": 132,
        "15845": 232,
        "15846": 84,
        "15847": 14,
        "15848": 4,
        "15849": 29,
        "15850": 26,
        "15851": 85,
        "15852": 59,
        "15853": 249,
        "15854": 94,
        "15855": 192,
        "15856": 199,
        "15857": 68,
        "15858": 65,
        "15859": 46,
        "15860": 235,
        "15861": 153,
        "15862": 133,
        "15863": 62,
        "15864": 205,
        "15865": 234,
        "15866": 125,
        "15867": 81,
        "15868": 31,
        "15869": 206,
        "15870": 190,
        "15871": 24,
        "15872": 52,
        "15873": 248,
        "15874": 25,
        "15875": 193,
        "15876": 195,
        "15877": 149,
        "15878": 85,
        "15879": 250,
        "15880": 53,
        "15881": 113,
        "15882": 200,
        "15883": 254,
        "15884": 238,
        "15885": 99,
        "15886": 7,
        "15887": 1,
        "15888": 92,
        "15889": 183,
        "15890": 142,
        "15891": 208,
        "15892": 182,
        "15893": 129,
        "15894": 102,
        "15895": 216,
        "15896": 225,
        "15897": 90,
        "15898": 47,
        "15899": 169,
        "15900": 43,
        "15901": 41,
        "15902": 149,
        "15903": 62,
        "15904": 183,
        "15905": 4,
        "15906": 107,
        "15907": 99,
        "15908": 137,
        "15909": 225,
        "15910": 240,
        "15911": 157,
        "15912": 152,
        "15913": 38,
        "15914": 26,
        "15915": 154,
        "15916": 64,
        "15917": 112,
        "15918": 86,
        "15919": 49,
        "15920": 218,
        "15921": 25,
        "15922": 26,
        "15923": 231,
        "15924": 94,
        "15925": 38,
        "15926": 250,
        "15927": 9,
        "15928": 113,
        "15929": 162,
        "15930": 62,
        "15931": 32,
        "15932": 160,
        "15933": 64,
        "15934": 237,
        "15935": 52,
        "15936": 12,
        "15937": 183,
        "15938": 171,
        "15939": 112,
        "15940": 14,
        "15941": 18,
        "15942": 81,
        "15943": 26,
        "15944": 126,
        "15945": 229,
        "15946": 152,
        "15947": 183,
        "15948": 124,
        "15949": 227,
        "15950": 246,
        "15951": 8,
        "15952": 141,
        "15953": 28,
        "15954": 66,
        "15955": 104,
        "15956": 52,
        "15957": 224,
        "15958": 121,
        "15959": 239,
        "15960": 34,
        "15961": 31,
        "15962": 39,
        "15963": 226,
        "15964": 242,
        "15965": 199,
        "15966": 218,
        "15967": 39,
        "15968": 100,
        "15969": 75,
        "15970": 69,
        "15971": 215,
        "15972": 95,
        "15973": 235,
        "15974": 43,
        "15975": 171,
        "15976": 214,
        "15977": 86,
        "15978": 28,
        "15979": 92,
        "15980": 84,
        "15981": 25,
        "15982": 204,
        "15983": 9,
        "15984": 190,
        "15985": 51,
        "15986": 143,
        "15987": 209,
        "15988": 29,
        "15989": 91,
        "15990": 168,
        "15991": 215,
        "15992": 64,
        "15993": 149,
        "15994": 122,
        "15995": 70,
        "15996": 89,
        "15997": 126,
        "15998": 107,
        "15999": 56,
        "16000": 233,
        "16001": 229,
        "16002": 3,
        "16003": 49,
        "16004": 164,
        "16005": 170,
        "16006": 42,
        "16007": 184,
        "16008": 85,
        "16009": 208,
        "16010": 249,
        "16011": 21,
        "16012": 104,
        "16013": 196,
        "16014": 168,
        "16015": 165,
        "16016": 105,
        "16017": 177,
        "16018": 19,
        "16019": 38,
        "16020": 222,
        "16021": 215,
        "16022": 130,
        "16023": 115,
        "16024": 27,
        "16025": 64,
        "16026": 201,
        "16027": 132,
        "16028": 130,
        "16029": 14,
        "16030": 22,
        "16031": 254,
        "16032": 223,
        "16033": 78,
        "16034": 59,
        "16035": 39,
        "16036": 155,
        "16037": 219,
        "16038": 110,
        "16039": 158,
        "16040": 224,
        "16041": 92,
        "16042": 232,
        "16043": 129,
        "16044": 167,
        "16045": 97,
        "16046": 246,
        "16047": 155,
        "16048": 155,
        "16049": 234,
        "16050": 179,
        "16051": 185,
        "16052": 183,
        "16053": 10,
        "16054": 128,
        "16055": 105,
        "16056": 78,
        "16057": 12,
        "16058": 166,
        "16059": 10,
        "16060": 8,
        "16061": 65,
        "16062": 86,
        "16063": 119,
        "16064": 97,
        "16065": 233,
        "16066": 14,
        "16067": 185,
        "16068": 241,
        "16069": 68,
        "16070": 188,
        "16071": 104,
        "16072": 94,
        "16073": 237,
        "16074": 159,
        "16075": 160,
        "16076": 211,
        "16077": 83,
        "16078": 204,
        "16079": 247,
        "16080": 77,
        "16081": 250,
        "16082": 250,
        "16083": 146,
        "16084": 234,
        "16085": 133,
        "16086": 179,
        "16087": 254,
        "16088": 170,
        "16089": 98,
        "16090": 179,
        "16091": 45,
        "16092": 60,
        "16093": 178,
        "16094": 219,
        "16095": 143,
        "16096": 59,
        "16097": 205,
        "16098": 201,
        "16099": 10,
        "16100": 169,
        "16101": 21,
        "16102": 52,
        "16103": 147,
        "16104": 227,
        "16105": 26,
        "16106": 91,
        "16107": 3,
        "16108": 217,
        "16109": 93,
        "16110": 176,
        "16111": 221,
        "16112": 251,
        "16113": 173,
        "16114": 224,
        "16115": 199,
        "16116": 84,
        "16117": 25,
        "16118": 3,
        "16119": 223,
        "16120": 80,
        "16121": 125,
        "16122": 74,
        "16123": 84,
        "16124": 73,
        "16125": 199,
        "16126": 59,
        "16127": 146,
        "16128": 182,
        "16129": 137,
        "16130": 32,
        "16131": 48,
        "16132": 235,
        "16133": 40,
        "16134": 7,
        "16135": 187,
        "16136": 98,
        "16137": 88,
        "16138": 85,
        "16139": 241,
        "16140": 140,
        "16141": 84,
        "16142": 24,
        "16143": 35,
        "16144": 98,
        "16145": 222,
        "16146": 129,
        "16147": 223,
        "16148": 109,
        "16149": 65,
        "16150": 253,
        "16151": 70,
        "16152": 42,
        "16153": 81,
        "16154": 115,
        "16155": 124,
        "16156": 228,
        "16157": 191,
        "16158": 186,
        "16159": 233,
        "16160": 40,
        "16161": 96,
        "16162": 199,
        "16163": 179,
        "16164": 192,
        "16165": 62,
        "16166": 252,
        "16167": 165,
        "16168": 229,
        "16169": 1,
        "16170": 135,
        "16171": 217,
        "16172": 88,
        "16173": 133,
        "16174": 205,
        "16175": 243,
        "16176": 124,
        "16177": 79,
        "16178": 225,
        "16179": 26,
        "16180": 101,
        "16181": 98,
        "16182": 158,
        "16183": 57,
        "16184": 237,
        "16185": 35,
        "16186": 232,
        "16187": 21,
        "16188": 70,
        "16189": 55,
        "16190": 19,
        "16191": 113,
        "16192": 102,
        "16193": 143,
        "16194": 30,
        "16195": 52,
        "16196": 110,
        "16197": 184,
        "16198": 17,
        "16199": 128,
        "16200": 201,
        "16201": 210,
        "16202": 71,
        "16203": 48,
        "16204": 203,
        "16205": 100,
        "16206": 163,
        "16207": 88,
        "16208": 32,
        "16209": 43,
        "16210": 204,
        "16211": 205,
        "16212": 119,
        "16213": 16,
        "16214": 130,
        "16215": 119,
        "16216": 228,
        "16217": 141,
        "16218": 112,
        "16219": 225,
        "16220": 138,
        "16221": 179,
        "16222": 117,
        "16223": 20,
        "16224": 49,
        "16225": 158,
        "16226": 100,
        "16227": 96,
        "16228": 92,
        "16229": 70,
        "16230": 167,
        "16231": 3,
        "16232": 26,
        "16233": 214,
        "16234": 211,
        "16235": 87,
        "16236": 33,
        "16237": 108,
        "16238": 139,
        "16239": 44,
        "16240": 194,
        "16241": 61,
        "16242": 36,
        "16243": 2,
        "16244": 208,
        "16245": 142,
        "16246": 192,
        "16247": 91,
        "16248": 31,
        "16249": 86,
        "16250": 188,
        "16251": 136,
        "16252": 196,
        "16253": 9,
        "16254": 165,
        "16255": 19,
        "16256": 126,
        "16257": 5,
        "16258": 241,
        "16259": 148,
        "16260": 128,
        "16261": 108,
        "16262": 82,
        "16263": 21,
        "16264": 61,
        "16265": 120,
        "16266": 252,
        "16267": 77,
        "16268": 65,
        "16269": 117,
        "16270": 137,
        "16271": 138,
        "16272": 82,
        "16273": 1,
        "16274": 191,
        "16275": 123,
        "16276": 157,
        "16277": 194,
        "16278": 88,
        "16279": 212,
        "16280": 155,
        "16281": 225,
        "16282": 190,
        "16283": 135,
        "16284": 178,
        "16285": 2,
        "16286": 172,
        "16287": 191,
        "16288": 237,
        "16289": 207,
        "16290": 54,
        "16291": 52,
        "16292": 243,
        "16293": 22,
        "16294": 190,
        "16295": 231,
        "16296": 243,
        "16297": 170,
        "16298": 172,
        "16299": 249,
        "16300": 203,
        "16301": 129,
        "16302": 1,
        "16303": 104,
        "16304": 39,
        "16305": 247,
        "16306": 73,
        "16307": 5,
        "16308": 83,
        "16309": 5,
        "16310": 83,
        "16311": 126,
        "16312": 47,
        "16313": 252,
        "16314": 2,
        "16315": 7,
        "16316": 70,
        "16317": 81,
        "16318": 35,
        "16319": 172,
        "16320": 70,
        "16321": 175,
        "16322": 172,
        "16323": 70,
        "16324": 201,
        "16325": 120,
        "16326": 80,
        "16327": 60,
        "16328": 244,
        "16329": 193,
        "16330": 57,
        "16331": 137,
        "16332": 75,
        "16333": 98,
        "16334": 199,
        "16335": 249,
        "16336": 231,
        "16337": 53,
        "16338": 53,
        "16339": 144,
        "16340": 122,
        "16341": 157,
        "16342": 231,
        "16343": 102,
        "16344": 24,
        "16345": 192,
        "16346": 180,
        "16347": 235,
        "16348": 203,
        "16349": 152,
        "16350": 132,
        "16351": 101,
        "16352": 114,
        "16353": 55,
        "16354": 182,
        "16355": 139,
        "16356": 169,
        "16357": 224,
        "16358": 134,
        "16359": 1,
        "16360": 10,
        "16361": 21,
        "16362": 201,
        "16363": 119,
        "16364": 201,
        "16365": 166,
        "16366": 177,
        "16367": 90,
        "16368": 4,
        "16369": 250,
        "16370": 193,
        "16371": 132,
        "16372": 197,
        "16373": 19,
        "16374": 148,
        "16375": 4,
        "16376": 123,
        "16377": 42,
        "16378": 36,
        "16379": 192,
        "16380": 85,
        "16381": 108,
        "16382": 44,
        "16383": 136,
        "16384": 85,
        "16385": 161,
        "16386": 95,
        "16387": 33,
        "16388": 172,
        "16389": 40,
        "16390": 188,
        "16391": 65,
        "16392": 138,
        "16393": 95,
        "16394": 190,
        "16395": 69,
        "16396": 175,
        "16397": 229,
        "16398": 169,
        "16399": 13,
        "16400": 205,
        "16401": 157,
        "16402": 20,
        "16403": 160,
        "16404": 163,
        "16405": 148,
        "16406": 238,
        "16407": 87,
        "16408": 164,
        "16409": 114,
        "16410": 232,
        "16411": 188,
        "16412": 11,
        "16413": 45,
        "16414": 135,
        "16415": 184,
        "16416": 17,
        "16417": 218,
        "16418": 17,
        "16419": 190,
        "16420": 67,
        "16421": 158,
        "16422": 218,
        "16423": 223,
        "16424": 3,
        "16425": 11,
        "16426": 127,
        "16427": 48,
        "16428": 229,
        "16429": 72,
        "16430": 84,
        "16431": 217,
        "16432": 215,
        "16433": 71,
        "16434": 253,
        "16435": 1,
        "16436": 49,
        "16437": 234,
        "16438": 75,
        "16439": 68,
        "16440": 85,
        "16441": 10,
        "16442": 78,
        "16443": 41,
        "16444": 120,
        "16445": 185,
        "16446": 78,
        "16447": 53,
        "16448": 189,
        "16449": 76,
        "16450": 40,
        "16451": 181,
        "16452": 141,
        "16453": 227,
        "16454": 85,
        "16455": 39,
        "16456": 51,
        "16457": 91,
        "16458": 109,
        "16459": 111,
        "16460": 247,
        "16461": 20,
        "16462": 95,
        "16463": 97,
        "16464": 9,
        "16465": 43,
        "16466": 230,
        "16467": 114,
        "16468": 85,
        "16469": 39,
        "16470": 66,
        "16471": 173,
        "16472": 199,
        "16473": 244,
        "16474": 109,
        "16475": 235,
        "16476": 130,
        "16477": 86,
        "16478": 163,
        "16479": 179,
        "16480": 204,
        "16481": 130,
        "16482": 76,
        "16483": 66,
        "16484": 156,
        "16485": 160,
        "16486": 111,
        "16487": 200,
        "16488": 12,
        "16489": 194,
        "16490": 112,
        "16491": 1,
        "16492": 109,
        "16493": 231,
        "16494": 247,
        "16495": 21,
        "16496": 56,
        "16497": 54,
        "16498": 214,
        "16499": 167,
        "16500": 20,
        "16501": 55,
        "16502": 169,
        "16503": 206,
        "16504": 138,
        "16505": 124,
        "16506": 70,
        "16507": 24,
        "16508": 151,
        "16509": 146,
        "16510": 111,
        "16511": 102,
        "16512": 166,
        "16513": 85,
        "16514": 123,
        "16515": 41,
        "16516": 94,
        "16517": 196,
        "16518": 226,
        "16519": 35,
        "16520": 1,
        "16521": 8,
        "16522": 0,
        "16523": 0,
        "16524": 0,
        "16525": 0,
        "16526": 0,
        "16527": 0,
        "16528": 16,
        "16529": 0,
        "16530": 0,
        "16531": 0,
        "16532": 0,
        "16533": 0,
        "16534": 0,
        "16535": 0,
        "16536": 0,
        "16537": 0,
        "16538": 0,
        "16539": 0,
        "16540": 0,
        "16541": 0,
        "16542": 0,
        "16543": 0,
        "16544": 0,
        "16545": 0,
        "16546": 0,
        "16547": 0,
        "16548": 0,
        "16549": 0,
        "16550": 0,
        "16551": 0,
        "16552": 64,
        "16553": 0,
        "16554": 0,
        "16555": 0,
        "16556": 0,
        "16557": 0,
        "16558": 0,
        "16559": 0,
        "16560": 3,
        "16561": 0,
        "16562": 0,
        "16563": 0,
        "16564": 0,
        "16565": 0,
        "16566": 0,
        "16567": 0,
        "16568": 4,
        "16569": 0,
        "16570": 0,
        "16571": 0,
        "16572": 0,
        "16573": 0,
        "16574": 0,
        "16575": 0,
        "16576": 4,
        "16577": 0,
        "16578": 0,
        "16579": 0,
        "16580": 0,
        "16581": 0,
        "16582": 0,
        "16583": 0,
        "16584": 0,
        "16585": 0,
        "16586": 0,
        "16587": 0,
        "16588": 1,
        "16589": 0,
        "16590": 0,
        "16591": 0,
        "16592": 0,
        "16593": 0,
        "16594": 0,
        "16595": 0,
        "16596": 16,
        "16597": 0,
        "16598": 0,
        "16599": 0,
        "16600": 0,
        "16601": 0,
        "16602": 0,
        "16603": 0
      }
    }
  ],
  "numDeployments": 1,
  "solcInputHash": "c0e889dcb69b76266f445d0fe3402b92",
  "bytecode": "0x6101606040526200001760006200026660201b60201c565b6002553480156200002757600080fd5b50604051620046173803806200461783398181016040528101906200004d919062000b83565b6040518060400160405280600881526020017f46616b65204555520000000000000000000000000000000000000000000000008152506040518060400160405280600481526020017f6645555200000000000000000000000000000000000000000000000000000000815250338383836040518060400160405280601181526020017f4668656e6978205065726d697373696f6e0000000000000000000000000000008152506040518060400160405280600381526020017f312e3000000000000000000000000000000000000000000000000000000000008152506200013f6000836200028260201b90919060201c565b61012081815250506200015d6001826200028260201b90919060201c565b6101408181525050818051906020012060e08181525050808051906020012061010081815250504660a081815250506200019c620002da60201b60201c565b608081815250503073ffffffffffffffffffffffffffffffffffffffff1660c08173ffffffffffffffffffffffffffffffffffffffff168152505050508160059081620001ea919062000e1f565b508060069081620001fc919062000e1f565b505050600062000212826200033760201b60201c565b9050620002486200023c8262000230617fff6200026660201b60201c565b6200035560201b60201c565b620003f860201b60201c565b6200025a8382620004cb60201b60201c565b50505050505062001260565b60006200027b8260026200057160201b60201c565b9050919050565b6000602083511015620002a857620002a0836200062860201b60201c565b9050620002d4565b82620002ba836200069560201b60201c565b6000019081620002cb919062000e1f565b5060ff60001b90505b92915050565b60007f8b73c3c69bb8fe3d512ecc4cf759cc79239f7b179b0ffacaa9a75d522b39400f60e0516101005146306040516020016200031c95949392919062000f77565b60405160208183030381529060405280519060200120905090565b60006200034e82600001516200069f60201b60201c565b9050919050565b60006200036883620006bb60201b60201c565b62000382576200037f60006200026660201b60201c565b92505b6200039382620006bb60201b60201c565b620003ad57620003aa60006200026660201b60201c565b91505b600083905060008390506000620003ea60028484608073ffffffffffffffffffffffffffffffffffffffff1663eb274b77620006c860201b60201c565b905080935050505092915050565b62000409816200077960201b60201c565b62000423576200042060006200078660201b60201c565b90505b600081905060006200043b82620007a260201b60201c565b9050608073ffffffffffffffffffffffffffffffffffffffff16637d23f1db600d836040518363ffffffff1660e01b81526004016200047c9291906200104f565b600060405180830381865afa1580156200049a573d6000803e3d6000fd5b505050506040513d6000823e3d601f19601f82011682018060405250810190620004c5919062001083565b50505050565b62000516600360008473ffffffffffffffffffffffffffffffffffffffff1673ffffffffffffffffffffffffffffffffffffffff168152602001908152602001600020548262000803565b600360008473ffffffffffffffffffffffffffffffffffffffff1673ffffffffffffffffffffffffffffffffffffffff16815260200190815260200160002081905550620005676002548262000803565b6002819055505050565b60006060608073ffffffffffffffffffffffffffffffffffffffff166319e1c5c4620005a386620007a260201b60201c565b856040518363ffffffff1660e01b8152600401620005c3929190620010d4565b600060405180830381865afa158015620005e1573d6000803e3d6000fd5b505050506040513d6000823e3d601f19601f820116820180604052508101906200060c919062001083565b90506200061f816200081f60201b60201c565b91505092915050565b600080829050601f815111156200067857826040517f305a27a90000000000000000000000000000000000000000000000000000000081526004016200066f91906200115a565b60405180910390fd5b8051816200068690620011a5565b60001c1760001b915050919050565b6000819050919050565b6000620006b48260026200082d60201b60201c565b9050919050565b6000808214159050919050565b60006060838388620006e089620007a260201b60201c565b620006f189620007a260201b60201c565b6040518463ffffffff1660e01b8152600401620007119392919062001215565b600060405180830381865afa1580156200072f573d6000803e3d6000fd5b505050506040513d6000823e3d601f19601f820116820180604052508101906200075a919062001083565b90506200076d81620008d460201b60201c565b91505095945050505050565b6000808214159050919050565b60006200079b82600d6200057160201b60201c565b9050919050565b6060602067ffffffffffffffff811115620007c257620007c1620009ae565b5b6040519080825280601f01601f191660200182016040528015620007f55781602001600182028036833780820191505090505b509050816020820152919050565b6000620008178383620008e260201b60201c565b905092915050565b600060208201519050919050565b60006060608073ffffffffffffffffffffffffffffffffffffffff16635fa55ca784866040518363ffffffff1660e01b81526004016200086f9291906200104f565b600060405180830381865afa1580156200088d573d6000803e3d6000fd5b505050506040513d6000823e3d601f19601f82011682018060405250810190620008b8919062001083565b9050620008cb816200081f60201b60201c565b91505092915050565b600060208201519050919050565b6000620008f583620006bb60201b60201c565b6200090f576200090c60006200026660201b60201c565b92505b6200092082620006bb60201b60201c565b6200093a576200093760006200026660201b60201c565b91505b6000839050600083905060006200097660028484608073ffffffffffffffffffffffffffffffffffffffff16622df619620006c860201b60201c565b905080935050505092915050565b6000604051905090565b600080fd5b600080fd5b600080fd5b6000601f19601f8301169050919050565b7f4e487b7100000000000000000000000000000000000000000000000000000000600052604160045260246000fd5b620009e8826200099d565b810181811067ffffffffffffffff8211171562000a0a5762000a09620009ae565b5b80604052505050565b600062000a1f62000984565b905062000a2d8282620009dd565b919050565b600080fd5b600080fd5b600080fd5b600067ffffffffffffffff82111562000a5f5762000a5e620009ae565b5b62000a6a826200099d565b9050602081019050919050565b60005b8381101562000a9757808201518184015260208101905062000a7a565b60008484015250505050565b600062000aba62000ab48462000a41565b62000a13565b90508281526020810184848401111562000ad95762000ad862000a3c565b5b62000ae684828562000a77565b509392505050565b600082601f83011262000b065762000b0562000a37565b5b815162000b1884826020860162000aa3565b91505092915050565b60006020828403121562000b3a5762000b3962000998565b5b62000b46602062000a13565b9050600082015167ffffffffffffffff81111562000b695762000b6862000a32565b5b62000b778482850162000aee565b60008301525092915050565b60006020828403121562000b9c5762000b9b6200098e565b5b600082015167ffffffffffffffff81111562000bbd5762000bbc62000993565b5b62000bcb8482850162000b21565b91505092915050565b600081519050919050565b7f4e487b7100000000000000000000000000000000000000000000000000000000600052602260045260246000fd5b6000600282049050600182168062000c2757607f821691505b60208210810362000c3d5762000c3c62000bdf565b5b50919050565b60008190508160005260206000209050919050565b60006020601f8301049050919050565b600082821b905092915050565b60006008830262000ca77fffffffffffffffffffffffffffffffffffffffffffffffffffffffffffffffff8262000c68565b62000cb3868362000c68565b95508019841693508086168417925050509392505050565b6000819050919050565b6000819050919050565b600062000d0062000cfa62000cf48462000ccb565b62000cd5565b62000ccb565b9050919050565b6000819050919050565b62000d1c8362000cdf565b62000d3462000d2b8262000d07565b84845462000c75565b825550505050565b600090565b62000d4b62000d3c565b62000d5881848462000d11565b505050565b5b8181101562000d805762000d7460008262000d41565b60018101905062000d5e565b5050565b601f82111562000dcf5762000d998162000c43565b62000da48462000c58565b8101602085101562000db4578190505b62000dcc62000dc38562000c58565b83018262000d5d565b50505b505050565b600082821c905092915050565b600062000df46000198460080262000dd4565b1980831691505092915050565b600062000e0f838362000de1565b9150826002028217905092915050565b62000e2a8262000bd4565b67ffffffffffffffff81111562000e465762000e45620009ae565b5b62000e52825462000c0e565b62000e5f82828562000d84565b600060209050601f83116001811462000e97576000841562000e82578287015190505b62000e8e858262000e01565b86555062000efe565b601f19841662000ea78662000c43565b60005b8281101562000ed15784890151825560018201915060208501945060208101905062000eaa565b8683101562000ef1578489015162000eed601f89168262000de1565b8355505b6001600288020188555050505b505050505050565b6000819050919050565b62000f1b8162000f06565b82525050565b62000f2c8162000ccb565b82525050565b600073ffffffffffffffffffffffffffffffffffffffff82169050919050565b600062000f5f8262000f32565b9050919050565b62000f718162000f52565b82525050565b600060a08201905062000f8e600083018862000f10565b62000f9d602083018762000f10565b62000fac604083018662000f10565b62000fbb606083018562000f21565b62000fca608083018462000f66565b9695505050505050565b600060ff82169050919050565b62000fec8162000fd4565b82525050565b600081519050919050565b600082825260208201905092915050565b60006200101b8262000ff2565b62001027818562000ffd565b93506200103981856020860162000a77565b62001044816200099d565b840191505092915050565b600060408201905062001066600083018562000fe1565b81810360208301526200107a81846200100e565b90509392505050565b6000602082840312156200109c576200109b6200098e565b5b600082015167ffffffffffffffff811115620010bd57620010bc62000993565b5b620010cb8482850162000aee565b91505092915050565b60006040820190508181036000830152620010f081856200100e565b905062001101602083018462000fe1565b9392505050565b600082825260208201905092915050565b6000620011268262000bd4565b62001132818562001108565b93506200114481856020860162000a77565b6200114f816200099d565b840191505092915050565b6000602082019050818103600083015262001176818462001119565b905092915050565b6000819050602082019050919050565b60006200119c825162000f06565b80915050919050565b6000620011b28262000ff2565b82620011be846200117e565b9050620011cb816200118e565b925060208210156200120e57620012097fffffffffffffffffffffffffffffffffffffffffffffffffffffffffffffffff8360200360080262000c68565b831692505b5050919050565b60006060820190506200122c600083018662000fe1565b81810360208301526200124081856200100e565b905081810360408301526200125681846200100e565b9050949350505050565b60805160a05160c05160e05161010051610120516101405161335c620012bb60003960006118f5015260006118ba0152600061217f0152600061215e015260006119ea01526000611a4001526000611a69015261335c6000f3fe608060405234801561001057600080fd5b50600436106101425760003560e01c80637ecebe00116100b8578063a9059cbb1161007c578063a9059cbb146103b9578063af575a00146103e9578063c4224c1914610419578063d505accf14610449578063d918156e14610465578063dd62ed3e1461049557610142565b80637ecebe00146102fb57806384b0196e1461032b5780638624a3491461034f57806395d89b411461037f5780639f284be71461039d57610142565b80633644e5151161010a5780633644e5151461020157806339c217f71461021f5780635356c4291461024f578063602772041461027f5780636e0505e1146102af57806370a08231146102cb57610142565b806306fdde0314610147578063095ea7b31461016557806318160ddd1461019557806323b872dd146101b3578063313ce567146101e3575b600080fd5b61014f6104c5565b60405161015c9190612433565b60405180910390f35b61017f600480360381019061017a91906124fd565b610557565b60405161018c9190612558565b60405180910390f35b61019d6105ab565b6040516101aa9190612582565b60405180910390f35b6101cd60048036038101906101c8919061259d565b6105bd565b6040516101da9190612558565b60405180910390f35b6101eb610692565b6040516101f8919061260c565b60405180910390f35b610209610697565b6040516102169190612640565b60405180910390f35b6102396004803603810190610234919061267f565b610729565b6040516102469190612716565b60405180910390f35b61026960048036038101906102649190612750565b61074e565b6040516102769190612433565b60405180910390f35b61029960048036038101906102949190612983565b6108bf565b6040516102a69190612433565b60405180910390f35b6102c960048036038101906102c49190612a1b565b6109ec565b005b6102e560048036038101906102e09190612a48565b610b01565b6040516102f29190612582565b60405180910390f35b61031560048036038101906103109190612a48565b610b1c565b6040516103229190612582565b60405180910390f35b610333610b37565b6040516103469796959493929190612b7d565b60405180910390f35b61036960048036038101906103649190612c01565b610be1565b6040516103769190612716565b60405180910390f35b610387610c08565b6040516103949190612433565b60405180910390f35b6103b760048036038101906103b29190612a1b565b610c9a565b005b6103d360048036038101906103ce91906124fd565b610da7565b6040516103e09190612558565b60405180910390f35b61040360048036038101906103fe9190612c9c565b610e39565b6040516104109190612716565b60405180910390f35b610433600480360381019061042e9190612cef565b61118f565b6040516104409190612716565b60405180910390f35b610463600480360381019061045e9190612d5b565b611359565b005b61047f600480360381019061047a919061267f565b6114fd565b60405161048c9190612558565b60405180910390f35b6104af60048036038101906104aa9190612dfd565b6115f5565b6040516104bc9190612582565b60405180910390f35b6060600580546104d490612e6c565b80601f016020809104026020016040519081016040528092919081815260200182805461050090612e6c565b801561054d5780601f106105225761010080835404028352916020019161054d565b820191906000526020600020905b81548152906001019060200180831161053057829003601f168201915b5050505050905090565b600082602052637f5e9f20600c5233600052816034600c205581600052602c5160601c337f8c5be1e5ebec7d5bd14f71427d1e84f3dd0314c0f7b2291e5b200ac8c7c3b92560206000a36001905092915050565b60006805345cdf77eb68f44c54905090565b60006105ca848484611615565b8360601b33602052637f5e9f208117600c526034600c20805460018101156106085780851115610602576313be252b6000526004601cfd5b84810382555b6387a211a28317600c526020600c2080548087111561062f5763f4d678b86000526004601cfd5b8681038255876000526020600c2087815401815587602052600c5160601c8660601c7fddf252ad1be2c89b69c2b068fc378daa952ba7f163c4a11628f55a4df523b3ef602080a350505050505061068784848461161a565b600190509392505050565b600090565b6000806106a261161f565b90506000801b81036106c0576106b66104c5565b8051906020012090505b6040517f8b73c3c69bb8fe3d512ecc4cf759cc79239f7b179b0ffacaa9a75d522b39400f81528160208201527fc89efdaa54c0f20c7adf612882df0950f5a951637e0307cdcb4c672f298b8bc6604082015246606082015230608082015260a081209250505090565b6000610746836107418461073c90612ef5565b611624565b61118f565b905092915050565b60608161075a90612f08565b60006107b17f6bdaeb2d29561f159c7ef98b16b27015fb2aeb87209c7ee656226d912f59927d8360000151604051602001610796929190612f1b565b6040516020818303038152906040528051906020012061163a565b905060006107c3828460200151611654565b90503373ffffffffffffffffffffffffffffffffffffffff168173ffffffffffffffffffffffffffffffffffffffff161461082a576040517f3093a27700000000000000000000000000000000000000000000000000000000815260040160405180910390fd5b6108b4600460003373ffffffffffffffffffffffffffffffffffffffff1673ffffffffffffffffffffffffffffffffffffffff16815260200190815260200160002060008873ffffffffffffffffffffffffffffffffffffffff1673ffffffffffffffffffffffffffffffffffffffff168152602001908152602001600020548660000135611680565b935050505092915050565b60608183600061091a7f6bdaeb2d29561f159c7ef98b16b27015fb2aeb87209c7ee656226d912f59927d84600001516040516020016108ff929190612f1b565b6040516020818303038152906040528051906020012061163a565b9050600061092c828560200151611654565b90508273ffffffffffffffffffffffffffffffffffffffff168173ffffffffffffffffffffffffffffffffffffffff1614610993576040517f51c65eae00000000000000000000000000000000000000000000000000000000815260040160405180910390fd5b6109e0600360008973ffffffffffffffffffffffffffffffffffffffff1673ffffffffffffffffffffffffffffffffffffffff168152602001908152602001600020548760000151611680565b94505050505092915050565b6000610a45610a008363ffffffff166116b6565b600360003373ffffffffffffffffffffffffffffffffffffffff1673ffffffffffffffffffffffffffffffffffffffff168152602001908152602001600020546116ca565b9050610a90600360003373ffffffffffffffffffffffffffffffffffffffff1673ffffffffffffffffffffffffffffffffffffffff1681526020019081526020016000205482611743565b600360003373ffffffffffffffffffffffffffffffffffffffff1673ffffffffffffffffffffffffffffffffffffffff16815260200190815260200160002081905550610adf60025482611743565b600281905550610afd33610af283611757565b63ffffffff1661181a565b5050565b60006387a211a2600c52816000526020600c20549050919050565b60006338377508600c52816000526020600c20549050919050565b600060608060008060006060610b4b6118b1565b610b536118ec565b46306000801b600067ffffffffffffffff811115610b7457610b736127b1565b5b604051908082528060200260200182016040528015610ba25781602001602082028036833780820191505090505b507f0f00000000000000000000000000000000000000000000000000000000000000959493929190965096509650965096509650965090919293949596565b6000610bff8484610bfa85610bf590612ef5565b611624565b610e39565b90509392505050565b606060068054610c1790612e6c565b80601f0160208091040260200160405190810160405280929190818152602001828054610c4390612e6c565b8015610c905780601f10610c6557610100808354040283529160200191610c90565b820191906000526020600020905b815481529060010190602001808311610c7357829003601f168201915b5050505050905090565b8063ffffffff16610caa33610b01565b1015610ce2576040517ffda7bbda00000000000000000000000000000000000000000000000000000000815260040160405180910390fd5b610cf2338263ffffffff16611927565b6000610d038263ffffffff166116b6565b9050610d4e600360003373ffffffffffffffffffffffffffffffffffffffff1673ffffffffffffffffffffffffffffffffffffffff16815260200190815260200160002054826119be565b600360003373ffffffffffffffffffffffffffffffffffffffff1673ffffffffffffffffffffffffffffffffffffffff16815260200190815260200160002081905550610d9d600254826119be565b6002819055505050565b6000610db4338484611615565b6387a211a2600c52336000526020600c20805480841115610ddd5763f4d678b86000526004601cfd5b8381038255846000526020600c2084815401815584602052600c5160601c337fddf252ad1be2c89b69c2b068fc378daa952ba7f163c4a11628f55a4df523b3ef602080a3505050610e2f33848461161a565b6001905092915050565b600080610f0a83610f05600360008973ffffffffffffffffffffffffffffffffffffffff1673ffffffffffffffffffffffffffffffffffffffff16815260200190815260200160002054600460008a73ffffffffffffffffffffffffffffffffffffffff1673ffffffffffffffffffffffffffffffffffffffff16815260200190815260200160002060003373ffffffffffffffffffffffffffffffffffffffff1673ffffffffffffffffffffffffffffffffffffffff168152602001908152602001600020546116ca565b6116ca565b9050610f92600460008773ffffffffffffffffffffffffffffffffffffffff1673ffffffffffffffffffffffffffffffffffffffff16815260200190815260200160002060003373ffffffffffffffffffffffffffffffffffffffff1673ffffffffffffffffffffffffffffffffffffffff1681526020019081526020016000205482611743565b600460008773ffffffffffffffffffffffffffffffffffffffff1673ffffffffffffffffffffffffffffffffffffffff16815260200190815260200160002060003373ffffffffffffffffffffffffffffffffffffffff1673ffffffffffffffffffffffffffffffffffffffff1681526020019081526020016000208190555061105b600360008773ffffffffffffffffffffffffffffffffffffffff1673ffffffffffffffffffffffffffffffffffffffff1681526020019081526020016000205482611743565b600360008773ffffffffffffffffffffffffffffffffffffffff1673ffffffffffffffffffffffffffffffffffffffff168152602001908152602001600020819055506110e7600360008673ffffffffffffffffffffffffffffffffffffffff1673ffffffffffffffffffffffffffffffffffffffff16815260200190815260200160002054826119be565b600360008673ffffffffffffffffffffffffffffffffffffffff1673ffffffffffffffffffffffffffffffffffffffff168152602001908152602001600020819055508373ffffffffffffffffffffffffffffffffffffffff168573ffffffffffffffffffffffffffffffffffffffff167f7612539b010127d1a2f810eeff1131de23a28ecfa8228f92a9606a879300fbb560405160405180910390a3809150509392505050565b6000806111db83600360003373ffffffffffffffffffffffffffffffffffffffff1673ffffffffffffffffffffffffffffffffffffffff168152602001908152602001600020546116ca565b9050611226600360003373ffffffffffffffffffffffffffffffffffffffff1673ffffffffffffffffffffffffffffffffffffffff1681526020019081526020016000205482611743565b600360003373ffffffffffffffffffffffffffffffffffffffff1673ffffffffffffffffffffffffffffffffffffffff168152602001908152602001600020819055506112b2600360008673ffffffffffffffffffffffffffffffffffffffff1673ffffffffffffffffffffffffffffffffffffffff16815260200190815260200160002054826119be565b600360008673ffffffffffffffffffffffffffffffffffffffff1673ffffffffffffffffffffffffffffffffffffffff168152602001908152602001600020819055508373ffffffffffffffffffffffffffffffffffffffff163373ffffffffffffffffffffffffffffffffffffffff167f7612539b010127d1a2f810eeff1131de23a28ecfa8228f92a9606a879300fbb560405160405180910390a38091505092915050565b600061136361161f565b90506000801b8103611381576113776104c5565b8051906020012090505b8442111561139757631a15a3cc6000526004601cfd5b6040518860601b60601c98508760601b60601c975065383775081901600e52886000526020600c2080547f8b73c3c69bb8fe3d512ecc4cf759cc79239f7b179b0ffacaa9a75d522b39400f83528360208401527fc89efdaa54c0f20c7adf612882df0950f5a951637e0307cdcb4c672f298b8bc6604084015246606084015230608084015260a08320602e527f6e71edae12b1b97f4d1f60370fef10105fa2faae0126114a169c64845d6126c983528a60208401528960408401528860608401528060808401528760a084015260c08320604e526042602c206000528660ff1660205285604052846060526020806080600060015afa8b3d51146114a35763ddafbaef6000526004601cfd5b80820183558a637f5e9f2060a01b17604052896034602c20558a8c7f8c5be1e5ebec7d5bd14f71427d1e84f3dd0314c0f7b2291e5b200ac8c7c3b925602060608801a3836040526000606052505050505050505050505050565b60006115118261150c90612ef5565b611624565b600460003373ffffffffffffffffffffffffffffffffffffffff1673ffffffffffffffffffffffffffffffffffffffff16815260200190815260200160002060008573ffffffffffffffffffffffffffffffffffffffff1673ffffffffffffffffffffffffffffffffffffffff168152602001908152602001600020819055508273ffffffffffffffffffffffffffffffffffffffff163373ffffffffffffffffffffffffffffffffffffffff167f46f92913a39019d68e630493d23e0cf39761bf253f7b3f8eae384b33e393ed4e60405160405180910390a36001905092915050565b600081602052637f5e9f20600c52826000526034600c2054905092915050565b505050565b505050565b600090565b600061163382600001516119d2565b9050919050565b600061164d6116476119e6565b83611a9d565b9050919050565b6000806000806116648686611ade565b9250925092506116748282611b3a565b82935050505092915050565b606061168b83611c9e565b61169c5761169960006116b6565b92505b60008390506116ad60028285611cab565b91505092915050565b60006116c3826002611d61565b9050919050565b60006116d583611c9e565b6116e6576116e360006116b6565b92505b6116ef82611c9e565b611700576116fd60006116b6565b91505b60008390506000839050600061173560028484608073ffffffffffffffffffffffffffffffffffffffff16635211c679611e03565b905080935050505092915050565b600061174f8383611e97565b905092915050565b600061176282611c9e565b6117735761177060006116b6565b91505b6000829050600061178382611f10565b90506000608073ffffffffffffffffffffffffffffffffffffffff166373cc01546002846040518363ffffffff1660e01b81526004016117c4929190612f99565b602060405180830381865afa1580156117e1573d6000803e3d6000fd5b505050506040513d601f19601f820116820180604052508101906118059190612fde565b905061181081611f6d565b9350505050919050565b61182660008383611615565b6805345cdf77eb68f44c548181018181101561184a5763e5cfe9576000526004601cfd5b806805345cdf77eb68f44c556387a211a2600c52836000526020600c2083815401815583602052600c5160601c60007fddf252ad1be2c89b69c2b068fc378daa952ba7f163c4a11628f55a4df523b3ef602080a35050506118ad6000838361161a565b5050565b60606118e760007f0000000000000000000000000000000000000000000000000000000000000000611f7790919063ffffffff16565b905090565b606061192260017f0000000000000000000000000000000000000000000000000000000000000000611f7790919063ffffffff16565b905090565b61193382600083611615565b6387a211a2600c52816000526020600c2080548083111561195c5763f4d678b86000526004601cfd5b8281038255826805345cdf77eb68f44c54036805345cdf77eb68f44c558260005260008460601b60601c7fddf252ad1be2c89b69c2b068fc378daa952ba7f163c4a11628f55a4df523b3ef60206000a350506119ba8260008361161a565b5050565b60006119ca8383612027565b905092915050565b60006119df82600261209f565b9050919050565b60007f000000000000000000000000000000000000000000000000000000000000000073ffffffffffffffffffffffffffffffffffffffff163073ffffffffffffffffffffffffffffffffffffffff16148015611a6257507f000000000000000000000000000000000000000000000000000000000000000046145b15611a8f577f00000000000000000000000000000000000000000000000000000000000000009050611a9a565b611a97612139565b90505b90565b60006040517f190100000000000000000000000000000000000000000000000000000000000081528360028201528260228201526042812091505092915050565b60008060006041845103611b235760008060006020870151925060408701519150606087015160001a9050611b15888285856121cf565b955095509550505050611b33565b60006002855160001b9250925092505b9250925092565b60006003811115611b4e57611b4d61300b565b5b826003811115611b6157611b6061300b565b5b0315611c9a5760016003811115611b7b57611b7a61300b565b5b826003811115611b8e57611b8d61300b565b5b03611bc5576040517ff645eedf00000000000000000000000000000000000000000000000000000000815260040160405180910390fd5b60026003811115611bd957611bd861300b565b5b826003811115611bec57611beb61300b565b5b03611c31578060001c6040517ffce698f7000000000000000000000000000000000000000000000000000000008152600401611c289190612582565b60405180910390fd5b600380811115611c4457611c4361300b565b5b826003811115611c5757611c5661300b565b5b03611c9957806040517fd78bce0c000000000000000000000000000000000000000000000000000000008152600401611c909190612640565b60405180910390fd5b5b5050565b6000808214159050919050565b6060608073ffffffffffffffffffffffffffffffffffffffff1663a1848ff385611cd486611f10565b85604051602001611ce5919061305b565b6040516020818303038152906040526040518463ffffffff1660e01b8152600401611d1293929190613076565b600060405180830381865afa158015611d2f573d6000803e3d6000fd5b505050506040513d6000823e3d601f19601f82011682018060405250810190611d58919061315c565b90509392505050565b60006060608073ffffffffffffffffffffffffffffffffffffffff166319e1c5c4611d8b86611f10565b856040518363ffffffff1660e01b8152600401611da99291906131a5565b600060405180830381865afa158015611dc6573d6000803e3d6000fd5b505050506040513d6000823e3d601f19601f82011682018060405250810190611def9190613245565b9050611dfa816122c3565b91505092915050565b60006060838388611e1389611f10565b611e1c89611f10565b6040518463ffffffff1660e01b8152600401611e3a93929190613076565b600060405180830381865afa158015611e57573d6000803e3d6000fd5b505050506040513d6000823e3d601f19601f82011682018060405250810190611e809190613245565b9050611e8b816122d1565b91505095945050505050565b6000611ea283611c9e565b611eb357611eb060006116b6565b92505b611ebc82611c9e565b611ecd57611eca60006116b6565b91505b600083905060008390506000611f0260028484608073ffffffffffffffffffffffffffffffffffffffff1663cc2cbeff611e03565b905080935050505092915050565b6060602067ffffffffffffffff811115611f2d57611f2c6127b1565b5b6040519080825280601f01601f191660200182016040528015611f5f5781602001600182028036833780820191505090505b509050816020820152919050565b6000819050919050565b606060ff60001b8314611f9457611f8d836122df565b9050612021565b818054611fa090612e6c565b80601f0160208091040260200160405190810160405280929190818152602001828054611fcc90612e6c565b80156120195780601f10611fee57610100808354040283529160200191612019565b820191906000526020600020905b815481529060010190602001808311611ffc57829003601f168201915b505050505090505b92915050565b600061203283611c9e565b6120435761204060006116b6565b92505b61204c82611c9e565b61205d5761205a60006116b6565b91505b60008390506000839050600061209160028484608073ffffffffffffffffffffffffffffffffffffffff16622df619611e03565b905080935050505092915050565b60006060608073ffffffffffffffffffffffffffffffffffffffff16635fa55ca784866040518363ffffffff1660e01b81526004016120df929190612f99565b600060405180830381865afa1580156120fc573d6000803e3d6000fd5b505050506040513d6000823e3d601f19601f820116820180604052508101906121259190613245565b9050612130816122c3565b91505092915050565b60007f8b73c3c69bb8fe3d512ecc4cf759cc79239f7b179b0ffacaa9a75d522b39400f7f00000000000000000000000000000000000000000000000000000000000000007f000000000000000000000000000000000000000000000000000000000000000046306040516020016121b495949392919061328e565b60405160208183030381529060405280519060200120905090565b60008060007f7fffffffffffffffffffffffffffffff5d576e7357a4501ddfe92f46681b20a08460001c111561220f5760006003859250925092506122b9565b60006001888888886040516000815260200160405260405161223494939291906132e1565b6020604051602081039080840390855afa158015612256573d6000803e3d6000fd5b505050602060405103519050600073ffffffffffffffffffffffffffffffffffffffff168173ffffffffffffffffffffffffffffffffffffffff16036122aa57600060016000801b935093509350506122b9565b8060008060001b935093509350505b9450945094915050565b600060208201519050919050565b600060208201519050919050565b606060006122ec83612353565b90506000602067ffffffffffffffff81111561230b5761230a6127b1565b5b6040519080825280601f01601f19166020018201604052801561233d5781602001600182028036833780820191505090505b5090508181528360208201528092505050919050565b60008060ff8360001c169050601f81111561239a576040517fb3512b0c00000000000000000000000000000000000000000000000000000000815260040160405180910390fd5b80915050919050565b600081519050919050565b600082825260208201905092915050565b60005b838110156123dd5780820151818401526020810190506123c2565b60008484015250505050565b6000601f19601f8301169050919050565b6000612405826123a3565b61240f81856123ae565b935061241f8185602086016123bf565b612428816123e9565b840191505092915050565b6000602082019050818103600083015261244d81846123fa565b905092915050565b6000604051905090565b600080fd5b600080fd5b600073ffffffffffffffffffffffffffffffffffffffff82169050919050565b600061249482612469565b9050919050565b6124a481612489565b81146124af57600080fd5b50565b6000813590506124c18161249b565b92915050565b6000819050919050565b6124da816124c7565b81146124e557600080fd5b50565b6000813590506124f7816124d1565b92915050565b600080604083850312156125145761251361245f565b5b6000612522858286016124b2565b9250506020612533858286016124e8565b9150509250929050565b60008115159050919050565b6125528161253d565b82525050565b600060208201905061256d6000830184612549565b92915050565b61257c816124c7565b82525050565b60006020820190506125976000830184612573565b92915050565b6000806000606084860312156125b6576125b561245f565b5b60006125c4868287016124b2565b93505060206125d5868287016124b2565b92505060406125e6868287016124e8565b9150509250925092565b600060ff82169050919050565b612606816125f0565b82525050565b600060208201905061262160008301846125fd565b92915050565b6000819050919050565b61263a81612627565b82525050565b60006020820190506126556000830184612631565b92915050565b600080fd5b6000602082840312156126765761267561265b565b5b81905092915050565b600080604083850312156126965761269561245f565b5b60006126a4858286016124b2565b925050602083013567ffffffffffffffff8111156126c5576126c4612464565b5b6126d185828601612660565b9150509250929050565b6000819050919050565b60006127006126fb6126f6846124c7565b6126db565b6124c7565b9050919050565b612710816126e5565b82525050565b600060208201905061272b6000830184612707565b92915050565b6000604082840312156127475761274661265b565b5b81905092915050565b600080604083850312156127675761276661245f565b5b6000612775858286016124b2565b925050602083013567ffffffffffffffff81111561279657612795612464565b5b6127a285828601612731565b9150509250929050565b600080fd5b7f4e487b7100000000000000000000000000000000000000000000000000000000600052604160045260246000fd5b6127e9826123e9565b810181811067ffffffffffffffff82111715612808576128076127b1565b5b80604052505050565b600061281b612455565b905061282782826127e0565b919050565b600080fd5b61283a81612627565b811461284557600080fd5b50565b60008135905061285781612831565b92915050565b600080fd5b600080fd5b600067ffffffffffffffff821115612882576128816127b1565b5b61288b826123e9565b9050602081019050919050565b82818337600083830152505050565b60006128ba6128b584612867565b612811565b9050828152602081018484840111156128d6576128d5612862565b5b6128e1848285612898565b509392505050565b600082601f8301126128fe576128fd61285d565b5b813561290e8482602086016128a7565b91505092915050565b60006040828403121561292d5761292c6127ac565b5b6129376040612811565b9050600061294784828501612848565b600083015250602082013567ffffffffffffffff81111561296b5761296a61282c565b5b612977848285016128e9565b60208301525092915050565b6000806040838503121561299a5761299961245f565b5b60006129a8858286016124b2565b925050602083013567ffffffffffffffff8111156129c9576129c8612464565b5b6129d585828601612917565b9150509250929050565b600063ffffffff82169050919050565b6129f8816129df565b8114612a0357600080fd5b50565b600081359050612a15816129ef565b92915050565b600060208284031215612a3157612a3061245f565b5b6000612a3f84828501612a06565b91505092915050565b600060208284031215612a5e57612a5d61245f565b5b6000612a6c848285016124b2565b91505092915050565b60007fff0000000000000000000000000000000000000000000000000000000000000082169050919050565b612aaa81612a75565b82525050565b612ab981612489565b82525050565b600081519050919050565b600082825260208201905092915050565b6000819050602082019050919050565b612af4816124c7565b82525050565b6000612b068383612aeb565b60208301905092915050565b6000602082019050919050565b6000612b2a82612abf565b612b348185612aca565b9350612b3f83612adb565b8060005b83811015612b70578151612b578882612afa565b9750612b6283612b12565b925050600181019050612b43565b5085935050505092915050565b600060e082019050612b92600083018a612aa1565b8181036020830152612ba481896123fa565b90508181036040830152612bb881886123fa565b9050612bc76060830187612573565b612bd46080830186612ab0565b612be160a0830185612631565b81810360c0830152612bf38184612b1f565b905098975050505050505050565b600080600060608486031215612c1a57612c1961245f565b5b6000612c28868287016124b2565b9350506020612c39868287016124b2565b925050604084013567ffffffffffffffff811115612c5a57612c59612464565b5b612c6686828701612660565b9150509250925092565b612c79816124c7565b8114612c8457600080fd5b50565b600081359050612c9681612c70565b92915050565b600080600060608486031215612cb557612cb461245f565b5b6000612cc3868287016124b2565b9350506020612cd4868287016124b2565b9250506040612ce586828701612c87565b9150509250925092565b60008060408385031215612d0657612d0561245f565b5b6000612d14858286016124b2565b9250506020612d2585828601612c87565b9150509250929050565b612d38816125f0565b8114612d4357600080fd5b50565b600081359050612d5581612d2f565b92915050565b600080600080600080600060e0888a031215612d7a57612d7961245f565b5b6000612d888a828b016124b2565b9750506020612d998a828b016124b2565b9650506040612daa8a828b016124e8565b9550506060612dbb8a828b016124e8565b9450506080612dcc8a828b01612d46565b93505060a0612ddd8a828b01612848565b92505060c0612dee8a828b01612848565b91505092959891949750929550565b60008060408385031215612e1457612e1361245f565b5b6000612e22858286016124b2565b9250506020612e33858286016124b2565b9150509250929050565b7f4e487b7100000000000000000000000000000000000000000000000000000000600052602260045260246000fd5b60006002820490506001821680612e8457607f821691505b602082108103612e9757612e96612e3d565b5b50919050565b600060208284031215612eb357612eb26127ac565b5b612ebd6020612811565b9050600082013567ffffffffffffffff811115612edd57612edc61282c565b5b612ee9848285016128e9565b60008301525092915050565b6000612f013683612e9d565b9050919050565b6000612f143683612917565b9050919050565b6000604082019050612f306000830185612631565b612f3d6020830184612631565b9392505050565b600081519050919050565b600082825260208201905092915050565b6000612f6b82612f44565b612f758185612f4f565b9350612f858185602086016123bf565b612f8e816123e9565b840191505092915050565b6000604082019050612fae60008301856125fd565b8181036020830152612fc08184612f60565b90509392505050565b600081519050612fd8816124d1565b92915050565b600060208284031215612ff457612ff361245f565b5b600061300284828501612fc9565b91505092915050565b7f4e487b7100000000000000000000000000000000000000000000000000000000600052602160045260246000fd5b6000819050919050565b61305561305082612627565b61303a565b82525050565b60006130678284613044565b60208201915081905092915050565b600060608201905061308b60008301866125fd565b818103602083015261309d8185612f60565b905081810360408301526130b18184612f60565b9050949350505050565b600067ffffffffffffffff8211156130d6576130d56127b1565b5b6130df826123e9565b9050602081019050919050565b60006130ff6130fa846130bb565b612811565b90508281526020810184848401111561311b5761311a612862565b5b6131268482856123bf565b509392505050565b600082601f8301126131435761314261285d565b5b81516131538482602086016130ec565b91505092915050565b6000602082840312156131725761317161245f565b5b600082015167ffffffffffffffff8111156131905761318f612464565b5b61319c8482850161312e565b91505092915050565b600060408201905081810360008301526131bf8185612f60565b90506131ce60208301846125fd565b9392505050565b60006131e86131e384612867565b612811565b90508281526020810184848401111561320457613203612862565b5b61320f8482856123bf565b509392505050565b600082601f83011261322c5761322b61285d565b5b815161323c8482602086016131d5565b91505092915050565b60006020828403121561325b5761325a61245f565b5b600082015167ffffffffffffffff81111561327957613278612464565b5b61328584828501613217565b91505092915050565b600060a0820190506132a36000830188612631565b6132b06020830187612631565b6132bd6040830186612631565b6132ca6060830185612573565b6132d76080830184612ab0565b9695505050505050565b60006080820190506132f66000830187612631565b61330360208301866125fd565b6133106040830185612631565b61331d6060830184612631565b9594505050505056fea2646970667358221220d2ecefabf6474a46052e52e11ab32c5139690c9cccda6a7c37d9a6911a35acc664736f6c63430008180033",
  "devdoc": {
    "errors": {
      "AllowanceOverflow()": [
        {
          "details": "The allowance has overflowed."
        }
      ],
      "AllowanceUnderflow()": [
        {
          "details": "The allowance has underflowed."
        }
      ],
      "ECDSAInvalidSignature()": [
        {
          "details": "The signature derives the `address(0)`."
        }
      ],
      "ECDSAInvalidSignatureLength(uint256)": [
        {
          "details": "The signature has an invalid length."
        }
      ],
      "ECDSAInvalidSignatureS(bytes32)": [
        {
          "details": "The signature has an S value that is in the upper half order."
        }
      ],
      "InsufficientAllowance()": [
        {
          "details": "Insufficient allowance."
        }
      ],
      "InsufficientBalance()": [
        {
          "details": "Insufficient balance."
        }
      ],
      "InvalidPermit()": [
        {
          "details": "The permit is invalid."
        }
      ],
      "PermitExpired()": [
        {
          "details": "The permit has expired."
        }
      ],
      "TotalSupplyOverflow()": [
        {
          "details": "The total supply has overflowed."
        }
      ]
    },
    "events": {
      "Approval(address,address,uint256)": {
        "details": "Emitted when `amount` tokens is approved by `owner` to be used by `spender`."
      },
      "ApprovalEncrypted(address,address)": {
        "details": "Emitted when the allowance of a `spender` for an `owner` is set by a call to {approveEncrypted}. `value` is the new allowance."
      },
      "EIP712DomainChanged()": {
        "details": "MAY be emitted to signal that the domain could have changed."
      },
      "Transfer(address,address,uint256)": {
        "details": "Emitted when `amount` tokens is transferred from `from` to `to`."
      },
      "TransferEncrypted(address,address)": {
        "details": "Emitted when `value` tokens are moved from one account (`from`) to another (`to`). Note that `value` may be zero."
      }
    },
    "kind": "dev",
    "methods": {
      "DOMAIN_SEPARATOR()": {
        "details": "Returns the EIP-712 domain separator for the EIP-2612 permit."
      },
      "allowance(address,address)": {
        "details": "Returns the amount of tokens that `spender` can spend on behalf of `owner`."
      },
      "allowanceEncrypted(address,(bytes32,bytes))": {
        "details": "Returns the remaining number of tokens that `spender` will be allowed to spend on behalf of `owner` through {transferFrom}. This is zero by default. This value changes when {approve} or {transferFrom} are called."
      },
      "approve(address,uint256)": {
        "details": "Sets `amount` as the allowance of `spender` over the caller's tokens. Emits a {Approval} event."
      },
      "approveEncrypted(address,(bytes))": {
        "details": "Sets a `value` amount of tokens as the allowance of `spender` over the caller's tokens. Returns a boolean value indicating whether the operation succeeded. IMPORTANT: Beware that changing an allowance with this method brings the risk that someone may use both the old and the new allowance by unfortunate transaction ordering. One possible solution to mitigate this race condition is to first reduce the spender's allowance to 0 and set the desired value afterwards: https://github.com/ethereum/EIPs/issues/20#issuecomment-263524729 Emits an {ApprovalEncrypted} event."
      },
      "balanceOf(address)": {
        "details": "Returns the amount of tokens owned by `owner`."
      },
      "balanceOfEncrypted(address,(bytes32,bytes))": {
        "details": "Returns the value of tokens owned by `account`, sealed and encrypted for the caller."
      },
      "decimals()": {
        "details": "Returns the decimals places of the token."
      },
      "eip712Domain()": {
        "details": "See {IERC-5267}."
      },
      "name()": {
        "details": "Returns the name of the token."
      },
      "nonces(address)": {
        "details": "Returns the current nonce for `owner`. This value is used to compute the signature for EIP-2612 permit."
      },
      "permit(address,address,uint256,uint256,uint8,bytes32,bytes32)": {
        "details": "Sets `value` as the allowance of `spender` over the tokens of `owner`, authorized by a signed approval by `owner`. Emits a {Approval} event."
      },
      "symbol()": {
        "details": "Returns the symbol of the token."
      },
      "totalSupply()": {
        "details": "Returns the amount of tokens in existence."
      },
      "transfer(address,uint256)": {
        "details": "Transfer `amount` tokens from the caller to `to`. Requirements: - `from` must at least have `amount`. Emits a {Transfer} event."
      },
      "transferFrom(address,address,uint256)": {
        "details": "Transfers `amount` tokens from `from` to `to`. Note: Does not update the allowance if it is the maximum uint256 value. Requirements: - `from` must at least have `amount`. - The caller must have at least `amount` of allowance to transfer the tokens of `from`. Emits a {Transfer} event."
      },
      "transferFromEncrypted(address,address,(bytes))": {
        "details": "Moves a `value` amount of tokens from `from` to `to` using the allowance mechanism. `value` is then deducted from the caller's allowance. Returns a boolean value indicating whether the operation succeeded. Emits a {TransferEncrypted} event."
      }
    },
    "version": 1
  },
  "userdoc": {
    "errors": {
      "SignerNotMessageSender()": [
        {
          "notice": "Emitted when the signer is not the message sender"
        }
      ],
      "SignerNotOwner()": [
        {
          "notice": "Emitted when the signer is not the specified owner"
        }
      ]
    },
    "kind": "user",
    "methods": {},
    "version": 1
  },
  "storageLayout": {
    "storage": [
      {
        "astId": 16568,
        "contract": "contracts/tokens/FakeEUR.sol:FakeEUR",
        "label": "_nameFallback",
        "offset": 0,
        "slot": "0",
        "type": "t_string_storage"
      },
      {
        "astId": 16570,
        "contract": "contracts/tokens/FakeEUR.sol:FakeEUR",
        "label": "_versionFallback",
        "offset": 0,
        "slot": "1",
        "type": "t_string_storage"
      },
      {
        "astId": 18126,
        "contract": "contracts/tokens/FakeEUR.sol:FakeEUR",
        "label": "_encTotalSupply",
        "offset": 0,
        "slot": "2",
        "type": "t_userDefinedValueType(euint32)12"
      },
      {
        "astId": 18131,
        "contract": "contracts/tokens/FakeEUR.sol:FakeEUR",
        "label": "_encBalanceOf",
        "offset": 0,
        "slot": "3",
        "type": "t_mapping(t_address,t_userDefinedValueType(euint32)12)"
      },
      {
        "astId": 18138,
        "contract": "contracts/tokens/FakeEUR.sol:FakeEUR",
        "label": "_encAllowance",
        "offset": 0,
        "slot": "4",
        "type": "t_mapping(t_address,t_mapping(t_address,t_userDefinedValueType(euint32)12))"
      },
      {
        "astId": 18140,
        "contract": "contracts/tokens/FakeEUR.sol:FakeEUR",
        "label": "_name",
        "offset": 0,
        "slot": "5",
        "type": "t_string_storage"
      },
      {
        "astId": 18142,
        "contract": "contracts/tokens/FakeEUR.sol:FakeEUR",
        "label": "_symbol",
        "offset": 0,
        "slot": "6",
        "type": "t_string_storage"
      }
    ],
    "types": {
      "t_address": {
        "encoding": "inplace",
        "label": "address",
        "numberOfBytes": "20"
      },
      "t_mapping(t_address,t_mapping(t_address,t_userDefinedValueType(euint32)12))": {
        "encoding": "mapping",
        "key": "t_address",
        "label": "mapping(address => mapping(address => euint32))",
        "numberOfBytes": "32",
        "value": "t_mapping(t_address,t_userDefinedValueType(euint32)12)"
      },
      "t_mapping(t_address,t_userDefinedValueType(euint32)12)": {
        "encoding": "mapping",
        "key": "t_address",
        "label": "mapping(address => euint32)",
        "numberOfBytes": "32",
        "value": "t_userDefinedValueType(euint32)12"
      },
      "t_string_storage": {
        "encoding": "bytes",
        "label": "string",
        "numberOfBytes": "32"
      },
      "t_userDefinedValueType(euint32)12": {
        "encoding": "inplace",
        "label": "euint32",
        "numberOfBytes": "32"
      }
    }
  }
}