{
  "address": "0x31D0D74D4a9B13c82bf9FAAAC6ED78a0c57D2Ff3",
  "abi": [
    {
      "inputs": [
        {
          "components": [
            {
              "internalType": "bytes",
              "name": "data",
              "type": "bytes"
            }
          ],
          "internalType": "struct inEuint32",
          "name": "_initialSupply",
          "type": "tuple"
        }
      ],
      "stateMutability": "nonpayable",
      "type": "constructor"
    },
    {
      "inputs": [],
      "name": "AllowanceOverflow",
      "type": "error"
    },
    {
      "inputs": [],
      "name": "AllowanceUnderflow",
      "type": "error"
    },
    {
      "inputs": [],
      "name": "ECDSAInvalidSignature",
      "type": "error"
    },
    {
      "inputs": [
        {
          "internalType": "uint256",
          "name": "length",
          "type": "uint256"
        }
      ],
      "name": "ECDSAInvalidSignatureLength",
      "type": "error"
    },
    {
      "inputs": [
        {
          "internalType": "bytes32",
          "name": "s",
          "type": "bytes32"
        }
      ],
      "name": "ECDSAInvalidSignatureS",
      "type": "error"
    },
    {
      "inputs": [],
      "name": "ErrorInsufficientFunds",
      "type": "error"
    },
    {
      "inputs": [],
      "name": "InsufficientAllowance",
      "type": "error"
    },
    {
      "inputs": [],
      "name": "InsufficientBalance",
      "type": "error"
    },
    {
      "inputs": [],
      "name": "InvalidPermit",
      "type": "error"
    },
    {
      "inputs": [],
      "name": "InvalidShortString",
      "type": "error"
    },
    {
      "inputs": [],
      "name": "PermitExpired",
      "type": "error"
    },
    {
      "inputs": [],
      "name": "SignerNotMessageSender",
      "type": "error"
    },
    {
      "inputs": [],
      "name": "SignerNotOwner",
      "type": "error"
    },
    {
      "inputs": [
        {
          "internalType": "string",
          "name": "str",
          "type": "string"
        }
      ],
      "name": "StringTooLong",
      "type": "error"
    },
    {
      "inputs": [],
      "name": "TotalSupplyOverflow",
      "type": "error"
    },
    {
      "anonymous": false,
      "inputs": [
        {
          "indexed": true,
          "internalType": "address",
          "name": "owner",
          "type": "address"
        },
        {
          "indexed": true,
          "internalType": "address",
          "name": "spender",
          "type": "address"
        },
        {
          "indexed": false,
          "internalType": "uint256",
          "name": "amount",
          "type": "uint256"
        }
      ],
      "name": "Approval",
      "type": "event"
    },
    {
      "anonymous": false,
      "inputs": [
        {
          "indexed": true,
          "internalType": "address",
          "name": "owner",
          "type": "address"
        },
        {
          "indexed": true,
          "internalType": "address",
          "name": "spender",
          "type": "address"
        }
      ],
      "name": "ApprovalEncrypted",
      "type": "event"
    },
    {
      "anonymous": false,
      "inputs": [],
      "name": "EIP712DomainChanged",
      "type": "event"
    },
    {
      "anonymous": false,
      "inputs": [
        {
          "indexed": true,
          "internalType": "address",
          "name": "from",
          "type": "address"
        },
        {
          "indexed": true,
          "internalType": "address",
          "name": "to",
          "type": "address"
        },
        {
          "indexed": false,
          "internalType": "uint256",
          "name": "amount",
          "type": "uint256"
        }
      ],
      "name": "Transfer",
      "type": "event"
    },
    {
      "anonymous": false,
      "inputs": [
        {
          "indexed": true,
          "internalType": "address",
          "name": "from",
          "type": "address"
        },
        {
          "indexed": true,
          "internalType": "address",
          "name": "to",
          "type": "address"
        }
      ],
      "name": "TransferEncrypted",
      "type": "event"
    },
    {
      "inputs": [],
      "name": "DOMAIN_SEPARATOR",
      "outputs": [
        {
          "internalType": "bytes32",
          "name": "result",
          "type": "bytes32"
        }
      ],
      "stateMutability": "view",
      "type": "function"
    },
    {
      "inputs": [
        {
          "internalType": "address",
          "name": "owner",
          "type": "address"
        },
        {
          "internalType": "address",
          "name": "spender",
          "type": "address"
        }
      ],
      "name": "allowance",
      "outputs": [
        {
          "internalType": "uint256",
          "name": "result",
          "type": "uint256"
        }
      ],
      "stateMutability": "view",
      "type": "function"
    },
    {
      "inputs": [
        {
          "internalType": "address",
          "name": "spender",
          "type": "address"
        },
        {
          "components": [
            {
              "internalType": "bytes32",
              "name": "publicKey",
              "type": "bytes32"
            },
            {
              "internalType": "bytes",
              "name": "signature",
              "type": "bytes"
            }
          ],
          "internalType": "struct Permission",
          "name": "permission",
          "type": "tuple"
        }
      ],
      "name": "allowanceEncrypted",
      "outputs": [
        {
          "internalType": "string",
          "name": "",
          "type": "string"
        }
      ],
      "stateMutability": "view",
      "type": "function"
    },
    {
      "inputs": [
        {
          "internalType": "address",
          "name": "spender",
          "type": "address"
        },
        {
          "internalType": "uint256",
          "name": "amount",
          "type": "uint256"
        }
      ],
      "name": "approve",
      "outputs": [
        {
          "internalType": "bool",
          "name": "",
          "type": "bool"
        }
      ],
      "stateMutability": "nonpayable",
      "type": "function"
    },
    {
      "inputs": [
        {
          "internalType": "address",
          "name": "spender",
          "type": "address"
        },
        {
          "components": [
            {
              "internalType": "bytes",
              "name": "data",
              "type": "bytes"
            }
          ],
          "internalType": "struct inEuint32",
          "name": "value",
          "type": "tuple"
        }
      ],
      "name": "approveEncrypted",
      "outputs": [
        {
          "internalType": "bool",
          "name": "",
          "type": "bool"
        }
      ],
      "stateMutability": "nonpayable",
      "type": "function"
    },
    {
      "inputs": [
        {
          "internalType": "address",
          "name": "owner",
          "type": "address"
        }
      ],
      "name": "balanceOf",
      "outputs": [
        {
          "internalType": "uint256",
          "name": "result",
          "type": "uint256"
        }
      ],
      "stateMutability": "view",
      "type": "function"
    },
    {
      "inputs": [
        {
          "internalType": "address",
          "name": "account",
          "type": "address"
        },
        {
          "components": [
            {
              "internalType": "bytes32",
              "name": "publicKey",
              "type": "bytes32"
            },
            {
              "internalType": "bytes",
              "name": "signature",
              "type": "bytes"
            }
          ],
          "internalType": "struct Permission",
          "name": "auth",
          "type": "tuple"
        }
      ],
      "name": "balanceOfEncrypted",
      "outputs": [
        {
          "internalType": "string",
          "name": "",
          "type": "string"
        }
      ],
      "stateMutability": "view",
      "type": "function"
    },
    {
      "inputs": [],
      "name": "decimals",
      "outputs": [
        {
          "internalType": "uint8",
          "name": "",
          "type": "uint8"
        }
      ],
      "stateMutability": "pure",
      "type": "function"
    },
    {
      "inputs": [],
      "name": "eip712Domain",
      "outputs": [
        {
          "internalType": "bytes1",
          "name": "fields",
          "type": "bytes1"
        },
        {
          "internalType": "string",
          "name": "name",
          "type": "string"
        },
        {
          "internalType": "string",
          "name": "version",
          "type": "string"
        },
        {
          "internalType": "uint256",
          "name": "chainId",
          "type": "uint256"
        },
        {
          "internalType": "address",
          "name": "verifyingContract",
          "type": "address"
        },
        {
          "internalType": "bytes32",
          "name": "salt",
          "type": "bytes32"
        },
        {
          "internalType": "uint256[]",
          "name": "extensions",
          "type": "uint256[]"
        }
      ],
      "stateMutability": "view",
      "type": "function"
    },
    {
      "inputs": [],
      "name": "name",
      "outputs": [
        {
          "internalType": "string",
          "name": "",
          "type": "string"
        }
      ],
      "stateMutability": "view",
      "type": "function"
    },
    {
      "inputs": [
        {
          "internalType": "address",
          "name": "owner",
          "type": "address"
        }
      ],
      "name": "nonces",
      "outputs": [
        {
          "internalType": "uint256",
          "name": "result",
          "type": "uint256"
        }
      ],
      "stateMutability": "view",
      "type": "function"
    },
    {
      "inputs": [
        {
          "internalType": "address",
          "name": "owner",
          "type": "address"
        },
        {
          "internalType": "address",
          "name": "spender",
          "type": "address"
        },
        {
          "internalType": "uint256",
          "name": "value",
          "type": "uint256"
        },
        {
          "internalType": "uint256",
          "name": "deadline",
          "type": "uint256"
        },
        {
          "internalType": "uint8",
          "name": "v",
          "type": "uint8"
        },
        {
          "internalType": "bytes32",
          "name": "r",
          "type": "bytes32"
        },
        {
          "internalType": "bytes32",
          "name": "s",
          "type": "bytes32"
        }
      ],
      "name": "permit",
      "outputs": [],
      "stateMutability": "nonpayable",
      "type": "function"
    },
    {
      "inputs": [],
      "name": "symbol",
      "outputs": [
        {
          "internalType": "string",
          "name": "",
          "type": "string"
        }
      ],
      "stateMutability": "view",
      "type": "function"
    },
    {
      "inputs": [],
      "name": "totalSupply",
      "outputs": [
        {
          "internalType": "uint256",
          "name": "result",
          "type": "uint256"
        }
      ],
      "stateMutability": "view",
      "type": "function"
    },
    {
      "inputs": [
        {
          "internalType": "address",
          "name": "to",
          "type": "address"
        },
        {
          "internalType": "uint256",
          "name": "amount",
          "type": "uint256"
        }
      ],
      "name": "transfer",
      "outputs": [
        {
          "internalType": "bool",
          "name": "",
          "type": "bool"
        }
      ],
      "stateMutability": "nonpayable",
      "type": "function"
    },
    {
      "inputs": [
        {
          "internalType": "address",
          "name": "to",
          "type": "address"
        },
        {
          "components": [
            {
              "internalType": "bytes",
              "name": "data",
              "type": "bytes"
            }
          ],
          "internalType": "struct inEuint32",
          "name": "encryptedAmount",
          "type": "tuple"
        }
      ],
      "name": "transferEncrypted",
      "outputs": [
        {
          "internalType": "euint32",
          "name": "",
          "type": "uint256"
        }
      ],
      "stateMutability": "nonpayable",
      "type": "function"
    },
    {
      "inputs": [
        {
          "internalType": "address",
          "name": "to",
          "type": "address"
        },
        {
          "internalType": "euint32",
          "name": "amount",
          "type": "uint256"
        }
      ],
      "name": "transferEncrypted",
      "outputs": [
        {
          "internalType": "euint32",
          "name": "",
          "type": "uint256"
        }
      ],
      "stateMutability": "nonpayable",
      "type": "function"
    },
    {
      "inputs": [
        {
          "internalType": "address",
          "name": "from",
          "type": "address"
        },
        {
          "internalType": "address",
          "name": "to",
          "type": "address"
        },
        {
          "internalType": "uint256",
          "name": "amount",
          "type": "uint256"
        }
      ],
      "name": "transferFrom",
      "outputs": [
        {
          "internalType": "bool",
          "name": "",
          "type": "bool"
        }
      ],
      "stateMutability": "nonpayable",
      "type": "function"
    },
    {
      "inputs": [
        {
          "internalType": "address",
          "name": "from",
          "type": "address"
        },
        {
          "internalType": "address",
          "name": "to",
          "type": "address"
        },
        {
          "components": [
            {
              "internalType": "bytes",
              "name": "data",
              "type": "bytes"
            }
          ],
          "internalType": "struct inEuint32",
          "name": "value",
          "type": "tuple"
        }
      ],
      "name": "transferFromEncrypted",
      "outputs": [
        {
          "internalType": "euint32",
          "name": "",
          "type": "uint256"
        }
      ],
      "stateMutability": "nonpayable",
      "type": "function"
    },
    {
      "inputs": [
        {
          "internalType": "address",
          "name": "from",
          "type": "address"
        },
        {
          "internalType": "address",
          "name": "to",
          "type": "address"
        },
        {
          "internalType": "euint32",
          "name": "value",
          "type": "uint256"
        }
      ],
      "name": "transferFromEncrypted",
      "outputs": [
        {
          "internalType": "euint32",
          "name": "",
          "type": "uint256"
        }
      ],
      "stateMutability": "nonpayable",
      "type": "function"
    },
    {
      "inputs": [
        {
          "internalType": "uint32",
          "name": "amount",
          "type": "uint32"
        }
      ],
      "name": "unwrap",
      "outputs": [],
      "stateMutability": "nonpayable",
      "type": "function"
    },
    {
      "inputs": [
        {
          "internalType": "uint32",
          "name": "amount",
          "type": "uint32"
        }
      ],
      "name": "wrap",
      "outputs": [],
      "stateMutability": "nonpayable",
      "type": "function"
    }
  ],
  "transactionHash": "0xc90babb17c8991dcd8a55bf5f088b942222da806c46b49fd10b054e3ddcc114c",
  "args": [
    {
      "data": {
        "0": 16,
        "1": 8,
        "2": 0,
        "3": 0,
        "4": 0,
        "5": 0,
        "6": 0,
        "7": 0,
        "8": 44,
        "9": 153,
        "10": 28,
        "11": 40,
        "12": 202,
        "13": 148,
        "14": 24,
        "15": 134,
        "16": 69,
        "17": 202,
        "18": 212,
        "19": 41,
        "20": 176,
        "21": 203,
        "22": 54,
        "23": 6,
        "24": 64,
        "25": 57,
        "26": 131,
        "27": 99,
        "28": 33,
        "29": 167,
        "30": 62,
        "31": 116,
        "32": 24,
        "33": 217,
        "34": 25,
        "35": 85,
        "36": 125,
        "37": 206,
        "38": 210,
        "39": 210,
        "40": 235,
        "41": 52,
        "42": 88,
        "43": 59,
        "44": 24,
        "45": 107,
        "46": 229,
        "47": 162,
        "48": 20,
        "49": 4,
        "50": 69,
        "51": 176,
        "52": 153,
        "53": 126,
        "54": 168,
        "55": 232,
        "56": 208,
        "57": 122,
        "58": 225,
        "59": 210,
        "60": 151,
        "61": 51,
        "62": 225,
        "63": 147,
        "64": 165,
        "65": 222,
        "66": 200,
        "67": 21,
        "68": 70,
        "69": 232,
        "70": 98,
        "71": 197,
        "72": 73,
        "73": 191,
        "74": 252,
        "75": 25,
        "76": 78,
        "77": 140,
        "78": 143,
        "79": 9,
        "80": 214,
        "81": 40,
        "82": 131,
        "83": 30,
        "84": 86,
        "85": 200,
        "86": 28,
        "87": 194,
        "88": 94,
        "89": 210,
        "90": 213,
        "91": 171,
        "92": 41,
        "93": 66,
        "94": 92,
        "95": 178,
        "96": 25,
        "97": 20,
        "98": 131,
        "99": 73,
        "100": 146,
        "101": 115,
        "102": 91,
        "103": 101,
        "104": 43,
        "105": 49,
        "106": 82,
        "107": 227,
        "108": 161,
        "109": 171,
        "110": 135,
        "111": 238,
        "112": 121,
        "113": 36,
        "114": 238,
        "115": 92,
        "116": 109,
        "117": 250,
        "118": 150,
        "119": 228,
        "120": 230,
        "121": 131,
        "122": 104,
        "123": 8,
        "124": 117,
        "125": 88,
        "126": 189,
        "127": 126,
        "128": 166,
        "129": 108,
        "130": 37,
        "131": 42,
        "132": 68,
        "133": 222,
        "134": 128,
        "135": 206,
        "136": 247,
        "137": 205,
        "138": 157,
        "139": 36,
        "140": 109,
        "141": 19,
        "142": 201,
        "143": 246,
        "144": 66,
        "145": 204,
        "146": 38,
        "147": 7,
        "148": 15,
        "149": 94,
        "150": 85,
        "151": 251,
        "152": 231,
        "153": 1,
        "154": 204,
        "155": 178,
        "156": 15,
        "157": 199,
        "158": 135,
        "159": 195,
        "160": 185,
        "161": 187,
        "162": 102,
        "163": 177,
        "164": 44,
        "165": 133,
        "166": 142,
        "167": 234,
        "168": 194,
        "169": 69,
        "170": 155,
        "171": 217,
        "172": 74,
        "173": 24,
        "174": 126,
        "175": 194,
        "176": 243,
        "177": 204,
        "178": 208,
        "179": 66,
        "180": 189,
        "181": 67,
        "182": 60,
        "183": 20,
        "184": 127,
        "185": 35,
        "186": 177,
        "187": 238,
        "188": 56,
        "189": 239,
        "190": 106,
        "191": 38,
        "192": 137,
        "193": 103,
        "194": 142,
        "195": 246,
        "196": 88,
        "197": 168,
        "198": 151,
        "199": 25,
        "200": 44,
        "201": 24,
        "202": 59,
        "203": 146,
        "204": 141,
        "205": 204,
        "206": 42,
        "207": 44,
        "208": 129,
        "209": 146,
        "210": 72,
        "211": 75,
        "212": 165,
        "213": 166,
        "214": 170,
        "215": 62,
        "216": 134,
        "217": 170,
        "218": 116,
        "219": 217,
        "220": 222,
        "221": 217,
        "222": 114,
        "223": 84,
        "224": 213,
        "225": 216,
        "226": 37,
        "227": 37,
        "228": 111,
        "229": 56,
        "230": 133,
        "231": 134,
        "232": 224,
        "233": 217,
        "234": 214,
        "235": 186,
        "236": 139,
        "237": 174,
        "238": 77,
        "239": 164,
        "240": 149,
        "241": 99,
        "242": 134,
        "243": 14,
        "244": 26,
        "245": 166,
        "246": 35,
        "247": 7,
        "248": 142,
        "249": 232,
        "250": 185,
        "251": 126,
        "252": 120,
        "253": 206,
        "254": 137,
        "255": 194,
        "256": 55,
        "257": 18,
        "258": 15,
        "259": 200,
        "260": 174,
        "261": 108,
        "262": 11,
        "263": 218,
        "264": 127,
        "265": 32,
        "266": 38,
        "267": 184,
        "268": 112,
        "269": 23,
        "270": 13,
        "271": 113,
        "272": 70,
        "273": 23,
        "274": 95,
        "275": 204,
        "276": 23,
        "277": 80,
        "278": 152,
        "279": 46,
        "280": 138,
        "281": 169,
        "282": 92,
        "283": 254,
        "284": 206,
        "285": 45,
        "286": 160,
        "287": 137,
        "288": 44,
        "289": 59,
        "290": 119,
        "291": 155,
        "292": 211,
        "293": 224,
        "294": 238,
        "295": 85,
        "296": 22,
        "297": 128,
        "298": 9,
        "299": 104,
        "300": 70,
        "301": 153,
        "302": 238,
        "303": 120,
        "304": 210,
        "305": 253,
        "306": 11,
        "307": 121,
        "308": 184,
        "309": 130,
        "310": 160,
        "311": 117,
        "312": 159,
        "313": 18,
        "314": 70,
        "315": 133,
        "316": 219,
        "317": 69,
        "318": 240,
        "319": 245,
        "320": 112,
        "321": 28,
        "322": 143,
        "323": 146,
        "324": 25,
        "325": 50,
        "326": 22,
        "327": 85,
        "328": 102,
        "329": 73,
        "330": 114,
        "331": 76,
        "332": 254,
        "333": 212,
        "334": 72,
        "335": 9,
        "336": 69,
        "337": 215,
        "338": 106,
        "339": 129,
        "340": 132,
        "341": 17,
        "342": 23,
        "343": 21,
        "344": 167,
        "345": 6,
        "346": 164,
        "347": 82,
        "348": 54,
        "349": 87,
        "350": 46,
        "351": 70,
        "352": 167,
        "353": 53,
        "354": 186,
        "355": 163,
        "356": 52,
        "357": 183,
        "358": 48,
        "359": 184,
        "360": 170,
        "361": 117,
        "362": 92,
        "363": 145,
        "364": 149,
        "365": 97,
        "366": 138,
        "367": 46,
        "368": 161,
        "369": 8,
        "370": 212,
        "371": 151,
        "372": 115,
        "373": 106,
        "374": 233,
        "375": 198,
        "376": 199,
        "377": 59,
        "378": 139,
        "379": 165,
        "380": 163,
        "381": 243,
        "382": 42,
        "383": 244,
        "384": 148,
        "385": 45,
        "386": 148,
        "387": 182,
        "388": 80,
        "389": 30,
        "390": 56,
        "391": 193,
        "392": 249,
        "393": 115,
        "394": 33,
        "395": 192,
        "396": 234,
        "397": 194,
        "398": 43,
        "399": 24,
        "400": 77,
        "401": 85,
        "402": 129,
        "403": 147,
        "404": 71,
        "405": 52,
        "406": 12,
        "407": 238,
        "408": 161,
        "409": 153,
        "410": 223,
        "411": 119,
        "412": 112,
        "413": 39,
        "414": 106,
        "415": 163,
        "416": 189,
        "417": 78,
        "418": 255,
        "419": 126,
        "420": 230,
        "421": 116,
        "422": 103,
        "423": 243,
        "424": 19,
        "425": 201,
        "426": 246,
        "427": 226,
        "428": 255,
        "429": 26,
        "430": 8,
        "431": 157,
        "432": 138,
        "433": 44,
        "434": 51,
        "435": 25,
        "436": 158,
        "437": 11,
        "438": 185,
        "439": 57,
        "440": 81,
        "441": 98,
        "442": 105,
        "443": 126,
        "444": 254,
        "445": 26,
        "446": 214,
        "447": 178,
        "448": 7,
        "449": 194,
        "450": 135,
        "451": 72,
        "452": 125,
        "453": 185,
        "454": 113,
        "455": 158,
        "456": 148,
        "457": 121,
        "458": 242,
        "459": 196,
        "460": 63,
        "461": 215,
        "462": 55,
        "463": 119,
        "464": 194,
        "465": 232,
        "466": 104,
        "467": 13,
        "468": 178,
        "469": 46,
        "470": 218,
        "471": 174,
        "472": 201,
        "473": 159,
        "474": 245,
        "475": 100,
        "476": 106,
        "477": 115,
        "478": 125,
        "479": 53,
        "480": 50,
        "481": 111,
        "482": 135,
        "483": 84,
        "484": 111,
        "485": 28,
        "486": 9,
        "487": 100,
        "488": 105,
        "489": 129,
        "490": 160,
        "491": 215,
        "492": 126,
        "493": 44,
        "494": 136,
        "495": 193,
        "496": 101,
        "497": 32,
        "498": 13,
        "499": 131,
        "500": 206,
        "501": 119,
        "502": 141,
        "503": 164,
        "504": 132,
        "505": 63,
        "506": 208,
        "507": 217,
        "508": 24,
        "509": 147,
        "510": 135,
        "511": 110,
        "512": 162,
        "513": 195,
        "514": 9,
        "515": 190,
        "516": 188,
        "517": 177,
        "518": 124,
        "519": 61,
        "520": 100,
        "521": 205,
        "522": 57,
        "523": 204,
        "524": 249,
        "525": 57,
        "526": 157,
        "527": 126,
        "528": 146,
        "529": 228,
        "530": 107,
        "531": 255,
        "532": 251,
        "533": 133,
        "534": 143,
        "535": 17,
        "536": 18,
        "537": 134,
        "538": 212,
        "539": 236,
        "540": 110,
        "541": 160,
        "542": 251,
        "543": 247,
        "544": 11,
        "545": 115,
        "546": 232,
        "547": 188,
        "548": 209,
        "549": 202,
        "550": 223,
        "551": 90,
        "552": 209,
        "553": 97,
        "554": 212,
        "555": 85,
        "556": 92,
        "557": 188,
        "558": 138,
        "559": 183,
        "560": 153,
        "561": 226,
        "562": 64,
        "563": 164,
        "564": 87,
        "565": 212,
        "566": 243,
        "567": 110,
        "568": 192,
        "569": 193,
        "570": 69,
        "571": 1,
        "572": 246,
        "573": 126,
        "574": 71,
        "575": 84,
        "576": 59,
        "577": 184,
        "578": 185,
        "579": 4,
        "580": 199,
        "581": 225,
        "582": 210,
        "583": 75,
        "584": 48,
        "585": 38,
        "586": 197,
        "587": 218,
        "588": 211,
        "589": 173,
        "590": 160,
        "591": 216,
        "592": 19,
        "593": 4,
        "594": 72,
        "595": 125,
        "596": 113,
        "597": 153,
        "598": 43,
        "599": 251,
        "600": 170,
        "601": 118,
        "602": 203,
        "603": 37,
        "604": 71,
        "605": 112,
        "606": 52,
        "607": 114,
        "608": 56,
        "609": 69,
        "610": 197,
        "611": 180,
        "612": 245,
        "613": 237,
        "614": 75,
        "615": 181,
        "616": 51,
        "617": 10,
        "618": 175,
        "619": 24,
        "620": 62,
        "621": 127,
        "622": 19,
        "623": 6,
        "624": 237,
        "625": 63,
        "626": 171,
        "627": 207,
        "628": 4,
        "629": 152,
        "630": 91,
        "631": 68,
        "632": 127,
        "633": 211,
        "634": 103,
        "635": 200,
        "636": 101,
        "637": 120,
        "638": 6,
        "639": 183,
        "640": 159,
        "641": 217,
        "642": 235,
        "643": 71,
        "644": 54,
        "645": 249,
        "646": 75,
        "647": 98,
        "648": 108,
        "649": 101,
        "650": 195,
        "651": 140,
        "652": 60,
        "653": 157,
        "654": 215,
        "655": 110,
        "656": 3,
        "657": 5,
        "658": 38,
        "659": 57,
        "660": 145,
        "661": 121,
        "662": 185,
        "663": 123,
        "664": 237,
        "665": 36,
        "666": 77,
        "667": 23,
        "668": 200,
        "669": 29,
        "670": 219,
        "671": 130,
        "672": 236,
        "673": 53,
        "674": 217,
        "675": 244,
        "676": 172,
        "677": 214,
        "678": 73,
        "679": 6,
        "680": 28,
        "681": 219,
        "682": 184,
        "683": 55,
        "684": 230,
        "685": 186,
        "686": 42,
        "687": 79,
        "688": 96,
        "689": 61,
        "690": 29,
        "691": 63,
        "692": 76,
        "693": 21,
        "694": 99,
        "695": 173,
        "696": 155,
        "697": 246,
        "698": 66,
        "699": 41,
        "700": 62,
        "701": 43,
        "702": 233,
        "703": 15,
        "704": 226,
        "705": 124,
        "706": 36,
        "707": 215,
        "708": 123,
        "709": 213,
        "710": 209,
        "711": 118,
        "712": 232,
        "713": 177,
        "714": 94,
        "715": 221,
        "716": 66,
        "717": 56,
        "718": 16,
        "719": 60,
        "720": 101,
        "721": 250,
        "722": 156,
        "723": 93,
        "724": 22,
        "725": 4,
        "726": 121,
        "727": 217,
        "728": 150,
        "729": 210,
        "730": 225,
        "731": 14,
        "732": 10,
        "733": 168,
        "734": 77,
        "735": 190,
        "736": 12,
        "737": 45,
        "738": 65,
        "739": 150,
        "740": 180,
        "741": 167,
        "742": 8,
        "743": 120,
        "744": 0,
        "745": 21,
        "746": 75,
        "747": 70,
        "748": 13,
        "749": 102,
        "750": 142,
        "751": 193,
        "752": 60,
        "753": 183,
        "754": 35,
        "755": 92,
        "756": 31,
        "757": 75,
        "758": 83,
        "759": 144,
        "760": 171,
        "761": 143,
        "762": 165,
        "763": 4,
        "764": 244,
        "765": 202,
        "766": 153,
        "767": 227,
        "768": 169,
        "769": 160,
        "770": 46,
        "771": 14,
        "772": 10,
        "773": 57,
        "774": 131,
        "775": 220,
        "776": 254,
        "777": 87,
        "778": 219,
        "779": 151,
        "780": 89,
        "781": 118,
        "782": 134,
        "783": 91,
        "784": 2,
        "785": 178,
        "786": 105,
        "787": 153,
        "788": 160,
        "789": 90,
        "790": 41,
        "791": 125,
        "792": 188,
        "793": 179,
        "794": 156,
        "795": 76,
        "796": 11,
        "797": 12,
        "798": 75,
        "799": 10,
        "800": 120,
        "801": 247,
        "802": 130,
        "803": 103,
        "804": 56,
        "805": 86,
        "806": 123,
        "807": 254,
        "808": 95,
        "809": 129,
        "810": 189,
        "811": 248,
        "812": 196,
        "813": 252,
        "814": 204,
        "815": 115,
        "816": 123,
        "817": 89,
        "818": 158,
        "819": 223,
        "820": 251,
        "821": 87,
        "822": 227,
        "823": 224,
        "824": 226,
        "825": 96,
        "826": 120,
        "827": 126,
        "828": 7,
        "829": 192,
        "830": 70,
        "831": 167,
        "832": 166,
        "833": 85,
        "834": 110,
        "835": 91,
        "836": 44,
        "837": 167,
        "838": 184,
        "839": 20,
        "840": 177,
        "841": 130,
        "842": 62,
        "843": 243,
        "844": 143,
        "845": 130,
        "846": 154,
        "847": 109,
        "848": 18,
        "849": 72,
        "850": 57,
        "851": 7,
        "852": 158,
        "853": 207,
        "854": 249,
        "855": 189,
        "856": 40,
        "857": 241,
        "858": 9,
        "859": 160,
        "860": 220,
        "861": 140,
        "862": 151,
        "863": 175,
        "864": 58,
        "865": 141,
        "866": 8,
        "867": 165,
        "868": 93,
        "869": 250,
        "870": 228,
        "871": 66,
        "872": 61,
        "873": 249,
        "874": 229,
        "875": 203,
        "876": 109,
        "877": 136,
        "878": 183,
        "879": 53,
        "880": 196,
        "881": 47,
        "882": 94,
        "883": 117,
        "884": 74,
        "885": 100,
        "886": 15,
        "887": 124,
        "888": 166,
        "889": 201,
        "890": 23,
        "891": 252,
        "892": 232,
        "893": 193,
        "894": 39,
        "895": 73,
        "896": 3,
        "897": 158,
        "898": 104,
        "899": 175,
        "900": 197,
        "901": 151,
        "902": 105,
        "903": 11,
        "904": 225,
        "905": 195,
        "906": 34,
        "907": 192,
        "908": 66,
        "909": 229,
        "910": 223,
        "911": 215,
        "912": 64,
        "913": 34,
        "914": 91,
        "915": 161,
        "916": 157,
        "917": 124,
        "918": 221,
        "919": 235,
        "920": 47,
        "921": 9,
        "922": 185,
        "923": 205,
        "924": 40,
        "925": 35,
        "926": 62,
        "927": 137,
        "928": 144,
        "929": 136,
        "930": 86,
        "931": 147,
        "932": 250,
        "933": 29,
        "934": 53,
        "935": 142,
        "936": 160,
        "937": 52,
        "938": 233,
        "939": 170,
        "940": 31,
        "941": 185,
        "942": 230,
        "943": 191,
        "944": 50,
        "945": 95,
        "946": 25,
        "947": 127,
        "948": 143,
        "949": 232,
        "950": 230,
        "951": 250,
        "952": 182,
        "953": 237,
        "954": 157,
        "955": 67,
        "956": 221,
        "957": 210,
        "958": 6,
        "959": 98,
        "960": 111,
        "961": 145,
        "962": 184,
        "963": 12,
        "964": 101,
        "965": 125,
        "966": 219,
        "967": 56,
        "968": 85,
        "969": 173,
        "970": 141,
        "971": 166,
        "972": 49,
        "973": 41,
        "974": 116,
        "975": 245,
        "976": 240,
        "977": 63,
        "978": 186,
        "979": 229,
        "980": 76,
        "981": 153,
        "982": 112,
        "983": 54,
        "984": 231,
        "985": 18,
        "986": 243,
        "987": 30,
        "988": 47,
        "989": 112,
        "990": 118,
        "991": 146,
        "992": 142,
        "993": 240,
        "994": 243,
        "995": 237,
        "996": 175,
        "997": 172,
        "998": 132,
        "999": 135,
        "1000": 127,
        "1001": 123,
        "1002": 70,
        "1003": 0,
        "1004": 150,
        "1005": 4,
        "1006": 60,
        "1007": 120,
        "1008": 93,
        "1009": 146,
        "1010": 48,
        "1011": 15,
        "1012": 106,
        "1013": 211,
        "1014": 253,
        "1015": 240,
        "1016": 187,
        "1017": 108,
        "1018": 168,
        "1019": 188,
        "1020": 197,
        "1021": 85,
        "1022": 199,
        "1023": 19,
        "1024": 0,
        "1025": 134,
        "1026": 255,
        "1027": 124,
        "1028": 130,
        "1029": 240,
        "1030": 81,
        "1031": 34,
        "1032": 223,
        "1033": 239,
        "1034": 89,
        "1035": 122,
        "1036": 84,
        "1037": 125,
        "1038": 146,
        "1039": 158,
        "1040": 237,
        "1041": 102,
        "1042": 167,
        "1043": 187,
        "1044": 5,
        "1045": 22,
        "1046": 89,
        "1047": 43,
        "1048": 158,
        "1049": 231,
        "1050": 69,
        "1051": 249,
        "1052": 52,
        "1053": 110,
        "1054": 192,
        "1055": 118,
        "1056": 67,
        "1057": 23,
        "1058": 251,
        "1059": 127,
        "1060": 186,
        "1061": 203,
        "1062": 38,
        "1063": 41,
        "1064": 215,
        "1065": 197,
        "1066": 170,
        "1067": 46,
        "1068": 115,
        "1069": 108,
        "1070": 213,
        "1071": 154,
        "1072": 2,
        "1073": 90,
        "1074": 146,
        "1075": 17,
        "1076": 255,
        "1077": 3,
        "1078": 224,
        "1079": 44,
        "1080": 111,
        "1081": 30,
        "1082": 19,
        "1083": 198,
        "1084": 18,
        "1085": 63,
        "1086": 18,
        "1087": 159,
        "1088": 134,
        "1089": 183,
        "1090": 246,
        "1091": 198,
        "1092": 218,
        "1093": 87,
        "1094": 162,
        "1095": 6,
        "1096": 115,
        "1097": 36,
        "1098": 40,
        "1099": 45,
        "1100": 31,
        "1101": 26,
        "1102": 81,
        "1103": 93,
        "1104": 105,
        "1105": 199,
        "1106": 246,
        "1107": 236,
        "1108": 246,
        "1109": 56,
        "1110": 59,
        "1111": 213,
        "1112": 25,
        "1113": 127,
        "1114": 59,
        "1115": 97,
        "1116": 88,
        "1117": 131,
        "1118": 246,
        "1119": 94,
        "1120": 237,
        "1121": 64,
        "1122": 23,
        "1123": 152,
        "1124": 49,
        "1125": 44,
        "1126": 211,
        "1127": 119,
        "1128": 53,
        "1129": 24,
        "1130": 138,
        "1131": 155,
        "1132": 162,
        "1133": 21,
        "1134": 195,
        "1135": 70,
        "1136": 11,
        "1137": 38,
        "1138": 185,
        "1139": 243,
        "1140": 117,
        "1141": 67,
        "1142": 147,
        "1143": 130,
        "1144": 235,
        "1145": 214,
        "1146": 188,
        "1147": 77,
        "1148": 163,
        "1149": 14,
        "1150": 75,
        "1151": 149,
        "1152": 119,
        "1153": 228,
        "1154": 194,
        "1155": 83,
        "1156": 204,
        "1157": 250,
        "1158": 167,
        "1159": 195,
        "1160": 14,
        "1161": 17,
        "1162": 9,
        "1163": 201,
        "1164": 2,
        "1165": 199,
        "1166": 24,
        "1167": 188,
        "1168": 209,
        "1169": 97,
        "1170": 230,
        "1171": 212,
        "1172": 97,
        "1173": 222,
        "1174": 157,
        "1175": 218,
        "1176": 242,
        "1177": 44,
        "1178": 55,
        "1179": 216,
        "1180": 197,
        "1181": 249,
        "1182": 42,
        "1183": 210,
        "1184": 124,
        "1185": 220,
        "1186": 122,
        "1187": 150,
        "1188": 183,
        "1189": 208,
        "1190": 0,
        "1191": 202,
        "1192": 133,
        "1193": 254,
        "1194": 233,
        "1195": 0,
        "1196": 21,
        "1197": 247,
        "1198": 141,
        "1199": 126,
        "1200": 124,
        "1201": 54,
        "1202": 110,
        "1203": 27,
        "1204": 64,
        "1205": 113,
        "1206": 103,
        "1207": 167,
        "1208": 91,
        "1209": 102,
        "1210": 233,
        "1211": 128,
        "1212": 178,
        "1213": 214,
        "1214": 96,
        "1215": 93,
        "1216": 187,
        "1217": 35,
        "1218": 116,
        "1219": 186,
        "1220": 12,
        "1221": 74,
        "1222": 43,
        "1223": 125,
        "1224": 106,
        "1225": 68,
        "1226": 249,
        "1227": 6,
        "1228": 210,
        "1229": 60,
        "1230": 58,
        "1231": 42,
        "1232": 93,
        "1233": 105,
        "1234": 76,
        "1235": 180,
        "1236": 167,
        "1237": 143,
        "1238": 230,
        "1239": 50,
        "1240": 244,
        "1241": 213,
        "1242": 56,
        "1243": 196,
        "1244": 69,
        "1245": 234,
        "1246": 154,
        "1247": 69,
        "1248": 255,
        "1249": 219,
        "1250": 43,
        "1251": 113,
        "1252": 235,
        "1253": 171,
        "1254": 85,
        "1255": 191,
        "1256": 72,
        "1257": 155,
        "1258": 183,
        "1259": 182,
        "1260": 192,
        "1261": 27,
        "1262": 60,
        "1263": 128,
        "1264": 184,
        "1265": 192,
        "1266": 44,
        "1267": 191,
        "1268": 101,
        "1269": 185,
        "1270": 20,
        "1271": 204,
        "1272": 67,
        "1273": 177,
        "1274": 202,
        "1275": 244,
        "1276": 40,
        "1277": 117,
        "1278": 89,
        "1279": 146,
        "1280": 238,
        "1281": 63,
        "1282": 98,
        "1283": 22,
        "1284": 161,
        "1285": 67,
        "1286": 82,
        "1287": 25,
        "1288": 247,
        "1289": 14,
        "1290": 46,
        "1291": 52,
        "1292": 230,
        "1293": 91,
        "1294": 127,
        "1295": 106,
        "1296": 117,
        "1297": 202,
        "1298": 241,
        "1299": 60,
        "1300": 182,
        "1301": 154,
        "1302": 1,
        "1303": 214,
        "1304": 55,
        "1305": 84,
        "1306": 233,
        "1307": 199,
        "1308": 222,
        "1309": 167,
        "1310": 81,
        "1311": 35,
        "1312": 248,
        "1313": 254,
        "1314": 219,
        "1315": 58,
        "1316": 214,
        "1317": 236,
        "1318": 206,
        "1319": 134,
        "1320": 98,
        "1321": 111,
        "1322": 119,
        "1323": 93,
        "1324": 159,
        "1325": 115,
        "1326": 116,
        "1327": 18,
        "1328": 22,
        "1329": 7,
        "1330": 53,
        "1331": 191,
        "1332": 70,
        "1333": 33,
        "1334": 40,
        "1335": 49,
        "1336": 30,
        "1337": 109,
        "1338": 118,
        "1339": 80,
        "1340": 135,
        "1341": 150,
        "1342": 80,
        "1343": 56,
        "1344": 251,
        "1345": 83,
        "1346": 238,
        "1347": 241,
        "1348": 247,
        "1349": 133,
        "1350": 76,
        "1351": 88,
        "1352": 37,
        "1353": 166,
        "1354": 76,
        "1355": 163,
        "1356": 121,
        "1357": 26,
        "1358": 33,
        "1359": 234,
        "1360": 209,
        "1361": 84,
        "1362": 86,
        "1363": 251,
        "1364": 9,
        "1365": 216,
        "1366": 22,
        "1367": 188,
        "1368": 80,
        "1369": 75,
        "1370": 123,
        "1371": 251,
        "1372": 126,
        "1373": 189,
        "1374": 254,
        "1375": 4,
        "1376": 240,
        "1377": 22,
        "1378": 122,
        "1379": 222,
        "1380": 144,
        "1381": 237,
        "1382": 117,
        "1383": 31,
        "1384": 167,
        "1385": 125,
        "1386": 60,
        "1387": 39,
        "1388": 253,
        "1389": 72,
        "1390": 104,
        "1391": 128,
        "1392": 134,
        "1393": 23,
        "1394": 100,
        "1395": 197,
        "1396": 120,
        "1397": 22,
        "1398": 105,
        "1399": 217,
        "1400": 162,
        "1401": 252,
        "1402": 189,
        "1403": 231,
        "1404": 120,
        "1405": 77,
        "1406": 71,
        "1407": 242,
        "1408": 63,
        "1409": 152,
        "1410": 20,
        "1411": 157,
        "1412": 181,
        "1413": 221,
        "1414": 188,
        "1415": 89,
        "1416": 185,
        "1417": 102,
        "1418": 215,
        "1419": 94,
        "1420": 164,
        "1421": 26,
        "1422": 199,
        "1423": 187,
        "1424": 104,
        "1425": 113,
        "1426": 39,
        "1427": 166,
        "1428": 128,
        "1429": 247,
        "1430": 192,
        "1431": 25,
        "1432": 161,
        "1433": 119,
        "1434": 217,
        "1435": 36,
        "1436": 72,
        "1437": 250,
        "1438": 74,
        "1439": 11,
        "1440": 134,
        "1441": 211,
        "1442": 206,
        "1443": 185,
        "1444": 238,
        "1445": 106,
        "1446": 73,
        "1447": 41,
        "1448": 185,
        "1449": 143,
        "1450": 71,
        "1451": 13,
        "1452": 204,
        "1453": 196,
        "1454": 243,
        "1455": 127,
        "1456": 100,
        "1457": 173,
        "1458": 35,
        "1459": 235,
        "1460": 82,
        "1461": 75,
        "1462": 106,
        "1463": 171,
        "1464": 176,
        "1465": 102,
        "1466": 244,
        "1467": 48,
        "1468": 155,
        "1469": 139,
        "1470": 242,
        "1471": 48,
        "1472": 231,
        "1473": 63,
        "1474": 216,
        "1475": 177,
        "1476": 99,
        "1477": 171,
        "1478": 197,
        "1479": 132,
        "1480": 49,
        "1481": 125,
        "1482": 119,
        "1483": 113,
        "1484": 186,
        "1485": 83,
        "1486": 4,
        "1487": 180,
        "1488": 14,
        "1489": 167,
        "1490": 69,
        "1491": 228,
        "1492": 77,
        "1493": 149,
        "1494": 197,
        "1495": 99,
        "1496": 254,
        "1497": 154,
        "1498": 205,
        "1499": 42,
        "1500": 156,
        "1501": 247,
        "1502": 64,
        "1503": 3,
        "1504": 210,
        "1505": 188,
        "1506": 6,
        "1507": 114,
        "1508": 65,
        "1509": 172,
        "1510": 8,
        "1511": 212,
        "1512": 101,
        "1513": 239,
        "1514": 60,
        "1515": 226,
        "1516": 55,
        "1517": 237,
        "1518": 132,
        "1519": 77,
        "1520": 85,
        "1521": 72,
        "1522": 161,
        "1523": 219,
        "1524": 20,
        "1525": 163,
        "1526": 107,
        "1527": 66,
        "1528": 202,
        "1529": 9,
        "1530": 151,
        "1531": 240,
        "1532": 12,
        "1533": 218,
        "1534": 64,
        "1535": 204,
        "1536": 115,
        "1537": 72,
        "1538": 20,
        "1539": 49,
        "1540": 30,
        "1541": 89,
        "1542": 126,
        "1543": 1,
        "1544": 226,
        "1545": 42,
        "1546": 57,
        "1547": 21,
        "1548": 181,
        "1549": 227,
        "1550": 170,
        "1551": 18,
        "1552": 63,
        "1553": 127,
        "1554": 174,
        "1555": 107,
        "1556": 91,
        "1557": 177,
        "1558": 210,
        "1559": 203,
        "1560": 41,
        "1561": 153,
        "1562": 105,
        "1563": 24,
        "1564": 111,
        "1565": 95,
        "1566": 23,
        "1567": 161,
        "1568": 79,
        "1569": 247,
        "1570": 130,
        "1571": 208,
        "1572": 2,
        "1573": 21,
        "1574": 67,
        "1575": 238,
        "1576": 97,
        "1577": 77,
        "1578": 200,
        "1579": 71,
        "1580": 127,
        "1581": 105,
        "1582": 94,
        "1583": 160,
        "1584": 59,
        "1585": 70,
        "1586": 43,
        "1587": 16,
        "1588": 148,
        "1589": 169,
        "1590": 175,
        "1591": 151,
        "1592": 154,
        "1593": 170,
        "1594": 246,
        "1595": 205,
        "1596": 120,
        "1597": 240,
        "1598": 89,
        "1599": 236,
        "1600": 3,
        "1601": 215,
        "1602": 100,
        "1603": 40,
        "1604": 84,
        "1605": 240,
        "1606": 89,
        "1607": 51,
        "1608": 181,
        "1609": 35,
        "1610": 207,
        "1611": 7,
        "1612": 40,
        "1613": 75,
        "1614": 189,
        "1615": 227,
        "1616": 88,
        "1617": 28,
        "1618": 152,
        "1619": 28,
        "1620": 217,
        "1621": 110,
        "1622": 106,
        "1623": 151,
        "1624": 39,
        "1625": 88,
        "1626": 205,
        "1627": 167,
        "1628": 67,
        "1629": 98,
        "1630": 104,
        "1631": 8,
        "1632": 156,
        "1633": 103,
        "1634": 184,
        "1635": 233,
        "1636": 183,
        "1637": 227,
        "1638": 202,
        "1639": 147,
        "1640": 116,
        "1641": 131,
        "1642": 251,
        "1643": 111,
        "1644": 120,
        "1645": 181,
        "1646": 137,
        "1647": 160,
        "1648": 84,
        "1649": 245,
        "1650": 159,
        "1651": 168,
        "1652": 156,
        "1653": 12,
        "1654": 65,
        "1655": 207,
        "1656": 116,
        "1657": 42,
        "1658": 179,
        "1659": 82,
        "1660": 56,
        "1661": 245,
        "1662": 157,
        "1663": 233,
        "1664": 50,
        "1665": 131,
        "1666": 123,
        "1667": 139,
        "1668": 42,
        "1669": 250,
        "1670": 100,
        "1671": 209,
        "1672": 33,
        "1673": 143,
        "1674": 77,
        "1675": 196,
        "1676": 6,
        "1677": 110,
        "1678": 21,
        "1679": 246,
        "1680": 189,
        "1681": 149,
        "1682": 29,
        "1683": 19,
        "1684": 91,
        "1685": 44,
        "1686": 109,
        "1687": 79,
        "1688": 134,
        "1689": 212,
        "1690": 227,
        "1691": 4,
        "1692": 125,
        "1693": 62,
        "1694": 54,
        "1695": 244,
        "1696": 59,
        "1697": 153,
        "1698": 251,
        "1699": 249,
        "1700": 81,
        "1701": 111,
        "1702": 117,
        "1703": 8,
        "1704": 227,
        "1705": 225,
        "1706": 142,
        "1707": 216,
        "1708": 195,
        "1709": 221,
        "1710": 74,
        "1711": 123,
        "1712": 192,
        "1713": 237,
        "1714": 134,
        "1715": 53,
        "1716": 180,
        "1717": 67,
        "1718": 216,
        "1719": 230,
        "1720": 253,
        "1721": 208,
        "1722": 112,
        "1723": 78,
        "1724": 202,
        "1725": 106,
        "1726": 14,
        "1727": 177,
        "1728": 39,
        "1729": 151,
        "1730": 92,
        "1731": 209,
        "1732": 154,
        "1733": 163,
        "1734": 23,
        "1735": 174,
        "1736": 199,
        "1737": 72,
        "1738": 53,
        "1739": 140,
        "1740": 61,
        "1741": 80,
        "1742": 13,
        "1743": 127,
        "1744": 85,
        "1745": 237,
        "1746": 157,
        "1747": 74,
        "1748": 168,
        "1749": 89,
        "1750": 21,
        "1751": 71,
        "1752": 159,
        "1753": 85,
        "1754": 42,
        "1755": 189,
        "1756": 191,
        "1757": 150,
        "1758": 38,
        "1759": 45,
        "1760": 234,
        "1761": 89,
        "1762": 104,
        "1763": 27,
        "1764": 107,
        "1765": 132,
        "1766": 140,
        "1767": 165,
        "1768": 54,
        "1769": 246,
        "1770": 152,
        "1771": 6,
        "1772": 99,
        "1773": 143,
        "1774": 53,
        "1775": 252,
        "1776": 63,
        "1777": 24,
        "1778": 137,
        "1779": 223,
        "1780": 238,
        "1781": 240,
        "1782": 108,
        "1783": 254,
        "1784": 221,
        "1785": 212,
        "1786": 91,
        "1787": 148,
        "1788": 154,
        "1789": 94,
        "1790": 116,
        "1791": 107,
        "1792": 248,
        "1793": 177,
        "1794": 108,
        "1795": 102,
        "1796": 173,
        "1797": 219,
        "1798": 135,
        "1799": 96,
        "1800": 48,
        "1801": 62,
        "1802": 95,
        "1803": 116,
        "1804": 154,
        "1805": 153,
        "1806": 97,
        "1807": 41,
        "1808": 187,
        "1809": 109,
        "1810": 157,
        "1811": 250,
        "1812": 34,
        "1813": 1,
        "1814": 3,
        "1815": 45,
        "1816": 197,
        "1817": 66,
        "1818": 43,
        "1819": 254,
        "1820": 229,
        "1821": 9,
        "1822": 178,
        "1823": 131,
        "1824": 162,
        "1825": 229,
        "1826": 200,
        "1827": 152,
        "1828": 221,
        "1829": 184,
        "1830": 199,
        "1831": 66,
        "1832": 185,
        "1833": 163,
        "1834": 16,
        "1835": 86,
        "1836": 143,
        "1837": 46,
        "1838": 152,
        "1839": 55,
        "1840": 66,
        "1841": 195,
        "1842": 203,
        "1843": 218,
        "1844": 171,
        "1845": 169,
        "1846": 217,
        "1847": 202,
        "1848": 177,
        "1849": 109,
        "1850": 161,
        "1851": 183,
        "1852": 159,
        "1853": 166,
        "1854": 141,
        "1855": 23,
        "1856": 52,
        "1857": 158,
        "1858": 216,
        "1859": 56,
        "1860": 127,
        "1861": 24,
        "1862": 172,
        "1863": 231,
        "1864": 154,
        "1865": 255,
        "1866": 35,
        "1867": 164,
        "1868": 108,
        "1869": 154,
        "1870": 89,
        "1871": 72,
        "1872": 195,
        "1873": 215,
        "1874": 178,
        "1875": 168,
        "1876": 182,
        "1877": 100,
        "1878": 30,
        "1879": 142,
        "1880": 21,
        "1881": 222,
        "1882": 137,
        "1883": 53,
        "1884": 108,
        "1885": 112,
        "1886": 96,
        "1887": 127,
        "1888": 90,
        "1889": 96,
        "1890": 75,
        "1891": 189,
        "1892": 54,
        "1893": 215,
        "1894": 147,
        "1895": 249,
        "1896": 219,
        "1897": 154,
        "1898": 109,
        "1899": 143,
        "1900": 194,
        "1901": 174,
        "1902": 220,
        "1903": 114,
        "1904": 127,
        "1905": 102,
        "1906": 111,
        "1907": 71,
        "1908": 110,
        "1909": 68,
        "1910": 139,
        "1911": 236,
        "1912": 241,
        "1913": 113,
        "1914": 59,
        "1915": 95,
        "1916": 30,
        "1917": 153,
        "1918": 183,
        "1919": 28,
        "1920": 109,
        "1921": 65,
        "1922": 216,
        "1923": 165,
        "1924": 251,
        "1925": 217,
        "1926": 131,
        "1927": 0,
        "1928": 114,
        "1929": 128,
        "1930": 54,
        "1931": 146,
        "1932": 47,
        "1933": 58,
        "1934": 183,
        "1935": 117,
        "1936": 120,
        "1937": 222,
        "1938": 12,
        "1939": 13,
        "1940": 154,
        "1941": 214,
        "1942": 23,
        "1943": 77,
        "1944": 179,
        "1945": 240,
        "1946": 243,
        "1947": 167,
        "1948": 105,
        "1949": 229,
        "1950": 14,
        "1951": 228,
        "1952": 243,
        "1953": 174,
        "1954": 11,
        "1955": 208,
        "1956": 89,
        "1957": 165,
        "1958": 164,
        "1959": 107,
        "1960": 153,
        "1961": 8,
        "1962": 174,
        "1963": 71,
        "1964": 136,
        "1965": 205,
        "1966": 70,
        "1967": 213,
        "1968": 127,
        "1969": 219,
        "1970": 151,
        "1971": 79,
        "1972": 126,
        "1973": 196,
        "1974": 61,
        "1975": 49,
        "1976": 72,
        "1977": 192,
        "1978": 84,
        "1979": 226,
        "1980": 89,
        "1981": 151,
        "1982": 165,
        "1983": 112,
        "1984": 235,
        "1985": 103,
        "1986": 134,
        "1987": 18,
        "1988": 123,
        "1989": 1,
        "1990": 130,
        "1991": 141,
        "1992": 238,
        "1993": 253,
        "1994": 112,
        "1995": 250,
        "1996": 206,
        "1997": 208,
        "1998": 197,
        "1999": 173,
        "2000": 112,
        "2001": 30,
        "2002": 192,
        "2003": 162,
        "2004": 113,
        "2005": 15,
        "2006": 160,
        "2007": 211,
        "2008": 183,
        "2009": 139,
        "2010": 133,
        "2011": 77,
        "2012": 190,
        "2013": 154,
        "2014": 131,
        "2015": 240,
        "2016": 5,
        "2017": 129,
        "2018": 100,
        "2019": 160,
        "2020": 54,
        "2021": 40,
        "2022": 113,
        "2023": 147,
        "2024": 77,
        "2025": 98,
        "2026": 250,
        "2027": 169,
        "2028": 81,
        "2029": 56,
        "2030": 37,
        "2031": 158,
        "2032": 239,
        "2033": 229,
        "2034": 154,
        "2035": 216,
        "2036": 234,
        "2037": 138,
        "2038": 93,
        "2039": 19,
        "2040": 148,
        "2041": 253,
        "2042": 7,
        "2043": 23,
        "2044": 185,
        "2045": 36,
        "2046": 28,
        "2047": 213,
        "2048": 45,
        "2049": 32,
        "2050": 209,
        "2051": 112,
        "2052": 73,
        "2053": 203,
        "2054": 35,
        "2055": 28,
        "2056": 205,
        "2057": 157,
        "2058": 1,
        "2059": 114,
        "2060": 119,
        "2061": 16,
        "2062": 81,
        "2063": 8,
        "2064": 89,
        "2065": 151,
        "2066": 142,
        "2067": 161,
        "2068": 28,
        "2069": 80,
        "2070": 7,
        "2071": 176,
        "2072": 157,
        "2073": 78,
        "2074": 3,
        "2075": 238,
        "2076": 127,
        "2077": 186,
        "2078": 20,
        "2079": 13,
        "2080": 35,
        "2081": 209,
        "2082": 194,
        "2083": 167,
        "2084": 102,
        "2085": 138,
        "2086": 160,
        "2087": 31,
        "2088": 137,
        "2089": 204,
        "2090": 109,
        "2091": 174,
        "2092": 139,
        "2093": 118,
        "2094": 157,
        "2095": 96,
        "2096": 64,
        "2097": 245,
        "2098": 10,
        "2099": 147,
        "2100": 90,
        "2101": 199,
        "2102": 59,
        "2103": 58,
        "2104": 135,
        "2105": 163,
        "2106": 110,
        "2107": 206,
        "2108": 155,
        "2109": 36,
        "2110": 4,
        "2111": 7,
        "2112": 251,
        "2113": 235,
        "2114": 53,
        "2115": 47,
        "2116": 237,
        "2117": 10,
        "2118": 26,
        "2119": 111,
        "2120": 227,
        "2121": 221,
        "2122": 48,
        "2123": 61,
        "2124": 98,
        "2125": 29,
        "2126": 191,
        "2127": 139,
        "2128": 45,
        "2129": 201,
        "2130": 50,
        "2131": 58,
        "2132": 49,
        "2133": 207,
        "2134": 143,
        "2135": 78,
        "2136": 17,
        "2137": 121,
        "2138": 170,
        "2139": 51,
        "2140": 245,
        "2141": 190,
        "2142": 156,
        "2143": 117,
        "2144": 231,
        "2145": 255,
        "2146": 13,
        "2147": 86,
        "2148": 138,
        "2149": 174,
        "2150": 228,
        "2151": 245,
        "2152": 27,
        "2153": 31,
        "2154": 108,
        "2155": 33,
        "2156": 15,
        "2157": 219,
        "2158": 27,
        "2159": 206,
        "2160": 31,
        "2161": 39,
        "2162": 127,
        "2163": 17,
        "2164": 43,
        "2165": 95,
        "2166": 248,
        "2167": 70,
        "2168": 85,
        "2169": 58,
        "2170": 23,
        "2171": 57,
        "2172": 213,
        "2173": 22,
        "2174": 122,
        "2175": 204,
        "2176": 230,
        "2177": 64,
        "2178": 192,
        "2179": 165,
        "2180": 151,
        "2181": 53,
        "2182": 189,
        "2183": 216,
        "2184": 53,
        "2185": 82,
        "2186": 152,
        "2187": 102,
        "2188": 126,
        "2189": 45,
        "2190": 86,
        "2191": 204,
        "2192": 44,
        "2193": 94,
        "2194": 79,
        "2195": 138,
        "2196": 32,
        "2197": 165,
        "2198": 42,
        "2199": 119,
        "2200": 69,
        "2201": 238,
        "2202": 37,
        "2203": 148,
        "2204": 237,
        "2205": 237,
        "2206": 183,
        "2207": 17,
        "2208": 121,
        "2209": 203,
        "2210": 77,
        "2211": 29,
        "2212": 195,
        "2213": 169,
        "2214": 142,
        "2215": 208,
        "2216": 87,
        "2217": 81,
        "2218": 243,
        "2219": 65,
        "2220": 65,
        "2221": 138,
        "2222": 77,
        "2223": 110,
        "2224": 169,
        "2225": 245,
        "2226": 51,
        "2227": 153,
        "2228": 116,
        "2229": 4,
        "2230": 200,
        "2231": 98,
        "2232": 232,
        "2233": 242,
        "2234": 9,
        "2235": 66,
        "2236": 19,
        "2237": 149,
        "2238": 101,
        "2239": 98,
        "2240": 165,
        "2241": 143,
        "2242": 250,
        "2243": 162,
        "2244": 103,
        "2245": 9,
        "2246": 25,
        "2247": 52,
        "2248": 52,
        "2249": 95,
        "2250": 165,
        "2251": 245,
        "2252": 28,
        "2253": 96,
        "2254": 144,
        "2255": 21,
        "2256": 27,
        "2257": 232,
        "2258": 76,
        "2259": 168,
        "2260": 126,
        "2261": 194,
        "2262": 220,
        "2263": 250,
        "2264": 231,
        "2265": 240,
        "2266": 83,
        "2267": 222,
        "2268": 65,
        "2269": 12,
        "2270": 86,
        "2271": 105,
        "2272": 14,
        "2273": 196,
        "2274": 90,
        "2275": 152,
        "2276": 215,
        "2277": 19,
        "2278": 119,
        "2279": 96,
        "2280": 7,
        "2281": 225,
        "2282": 7,
        "2283": 47,
        "2284": 97,
        "2285": 98,
        "2286": 125,
        "2287": 236,
        "2288": 249,
        "2289": 76,
        "2290": 43,
        "2291": 142,
        "2292": 170,
        "2293": 145,
        "2294": 210,
        "2295": 191,
        "2296": 30,
        "2297": 247,
        "2298": 174,
        "2299": 237,
        "2300": 85,
        "2301": 82,
        "2302": 67,
        "2303": 211,
        "2304": 199,
        "2305": 107,
        "2306": 205,
        "2307": 103,
        "2308": 105,
        "2309": 62,
        "2310": 192,
        "2311": 91,
        "2312": 230,
        "2313": 236,
        "2314": 55,
        "2315": 158,
        "2316": 59,
        "2317": 198,
        "2318": 40,
        "2319": 14,
        "2320": 201,
        "2321": 160,
        "2322": 50,
        "2323": 204,
        "2324": 6,
        "2325": 216,
        "2326": 245,
        "2327": 144,
        "2328": 30,
        "2329": 94,
        "2330": 219,
        "2331": 250,
        "2332": 14,
        "2333": 215,
        "2334": 10,
        "2335": 64,
        "2336": 126,
        "2337": 55,
        "2338": 178,
        "2339": 81,
        "2340": 102,
        "2341": 38,
        "2342": 35,
        "2343": 52,
        "2344": 201,
        "2345": 224,
        "2346": 215,
        "2347": 118,
        "2348": 157,
        "2349": 118,
        "2350": 234,
        "2351": 95,
        "2352": 52,
        "2353": 33,
        "2354": 43,
        "2355": 225,
        "2356": 130,
        "2357": 194,
        "2358": 103,
        "2359": 248,
        "2360": 5,
        "2361": 185,
        "2362": 161,
        "2363": 166,
        "2364": 27,
        "2365": 227,
        "2366": 252,
        "2367": 197,
        "2368": 139,
        "2369": 93,
        "2370": 169,
        "2371": 209,
        "2372": 218,
        "2373": 46,
        "2374": 84,
        "2375": 29,
        "2376": 64,
        "2377": 101,
        "2378": 241,
        "2379": 162,
        "2380": 69,
        "2381": 107,
        "2382": 1,
        "2383": 206,
        "2384": 238,
        "2385": 115,
        "2386": 189,
        "2387": 75,
        "2388": 147,
        "2389": 72,
        "2390": 87,
        "2391": 90,
        "2392": 122,
        "2393": 120,
        "2394": 86,
        "2395": 98,
        "2396": 2,
        "2397": 81,
        "2398": 35,
        "2399": 35,
        "2400": 128,
        "2401": 203,
        "2402": 53,
        "2403": 50,
        "2404": 124,
        "2405": 227,
        "2406": 238,
        "2407": 115,
        "2408": 69,
        "2409": 37,
        "2410": 77,
        "2411": 21,
        "2412": 226,
        "2413": 225,
        "2414": 157,
        "2415": 121,
        "2416": 128,
        "2417": 113,
        "2418": 253,
        "2419": 219,
        "2420": 73,
        "2421": 138,
        "2422": 236,
        "2423": 238,
        "2424": 173,
        "2425": 219,
        "2426": 140,
        "2427": 2,
        "2428": 117,
        "2429": 255,
        "2430": 124,
        "2431": 160,
        "2432": 207,
        "2433": 144,
        "2434": 86,
        "2435": 44,
        "2436": 37,
        "2437": 255,
        "2438": 189,
        "2439": 23,
        "2440": 11,
        "2441": 93,
        "2442": 55,
        "2443": 167,
        "2444": 94,
        "2445": 210,
        "2446": 28,
        "2447": 2,
        "2448": 215,
        "2449": 189,
        "2450": 246,
        "2451": 13,
        "2452": 25,
        "2453": 183,
        "2454": 27,
        "2455": 130,
        "2456": 76,
        "2457": 159,
        "2458": 225,
        "2459": 35,
        "2460": 4,
        "2461": 20,
        "2462": 209,
        "2463": 117,
        "2464": 75,
        "2465": 32,
        "2466": 33,
        "2467": 118,
        "2468": 49,
        "2469": 198,
        "2470": 85,
        "2471": 237,
        "2472": 182,
        "2473": 125,
        "2474": 239,
        "2475": 52,
        "2476": 25,
        "2477": 240,
        "2478": 111,
        "2479": 203,
        "2480": 74,
        "2481": 136,
        "2482": 30,
        "2483": 105,
        "2484": 238,
        "2485": 49,
        "2486": 44,
        "2487": 41,
        "2488": 236,
        "2489": 11,
        "2490": 103,
        "2491": 65,
        "2492": 51,
        "2493": 33,
        "2494": 50,
        "2495": 83,
        "2496": 240,
        "2497": 126,
        "2498": 112,
        "2499": 201,
        "2500": 152,
        "2501": 113,
        "2502": 28,
        "2503": 87,
        "2504": 179,
        "2505": 248,
        "2506": 52,
        "2507": 210,
        "2508": 143,
        "2509": 219,
        "2510": 178,
        "2511": 34,
        "2512": 78,
        "2513": 3,
        "2514": 14,
        "2515": 175,
        "2516": 75,
        "2517": 184,
        "2518": 179,
        "2519": 71,
        "2520": 24,
        "2521": 84,
        "2522": 36,
        "2523": 170,
        "2524": 180,
        "2525": 86,
        "2526": 204,
        "2527": 240,
        "2528": 234,
        "2529": 43,
        "2530": 107,
        "2531": 147,
        "2532": 100,
        "2533": 85,
        "2534": 227,
        "2535": 68,
        "2536": 70,
        "2537": 214,
        "2538": 122,
        "2539": 51,
        "2540": 18,
        "2541": 132,
        "2542": 12,
        "2543": 163,
        "2544": 115,
        "2545": 179,
        "2546": 136,
        "2547": 84,
        "2548": 10,
        "2549": 109,
        "2550": 26,
        "2551": 112,
        "2552": 129,
        "2553": 9,
        "2554": 178,
        "2555": 79,
        "2556": 191,
        "2557": 233,
        "2558": 22,
        "2559": 122,
        "2560": 159,
        "2561": 158,
        "2562": 36,
        "2563": 187,
        "2564": 14,
        "2565": 49,
        "2566": 75,
        "2567": 35,
        "2568": 153,
        "2569": 152,
        "2570": 54,
        "2571": 236,
        "2572": 157,
        "2573": 212,
        "2574": 72,
        "2575": 161,
        "2576": 60,
        "2577": 235,
        "2578": 214,
        "2579": 202,
        "2580": 169,
        "2581": 244,
        "2582": 127,
        "2583": 49,
        "2584": 125,
        "2585": 210,
        "2586": 186,
        "2587": 192,
        "2588": 178,
        "2589": 110,
        "2590": 88,
        "2591": 26,
        "2592": 193,
        "2593": 224,
        "2594": 183,
        "2595": 10,
        "2596": 234,
        "2597": 65,
        "2598": 149,
        "2599": 196,
        "2600": 184,
        "2601": 249,
        "2602": 158,
        "2603": 225,
        "2604": 89,
        "2605": 24,
        "2606": 76,
        "2607": 201,
        "2608": 51,
        "2609": 148,
        "2610": 53,
        "2611": 198,
        "2612": 192,
        "2613": 127,
        "2614": 24,
        "2615": 145,
        "2616": 163,
        "2617": 182,
        "2618": 61,
        "2619": 64,
        "2620": 239,
        "2621": 136,
        "2622": 37,
        "2623": 134,
        "2624": 179,
        "2625": 10,
        "2626": 218,
        "2627": 250,
        "2628": 32,
        "2629": 219,
        "2630": 63,
        "2631": 138,
        "2632": 255,
        "2633": 210,
        "2634": 147,
        "2635": 145,
        "2636": 41,
        "2637": 177,
        "2638": 149,
        "2639": 60,
        "2640": 154,
        "2641": 131,
        "2642": 74,
        "2643": 159,
        "2644": 227,
        "2645": 180,
        "2646": 200,
        "2647": 92,
        "2648": 63,
        "2649": 221,
        "2650": 210,
        "2651": 171,
        "2652": 235,
        "2653": 172,
        "2654": 246,
        "2655": 182,
        "2656": 35,
        "2657": 193,
        "2658": 241,
        "2659": 24,
        "2660": 10,
        "2661": 58,
        "2662": 165,
        "2663": 201,
        "2664": 109,
        "2665": 105,
        "2666": 8,
        "2667": 152,
        "2668": 147,
        "2669": 163,
        "2670": 125,
        "2671": 214,
        "2672": 217,
        "2673": 206,
        "2674": 93,
        "2675": 96,
        "2676": 177,
        "2677": 208,
        "2678": 129,
        "2679": 214,
        "2680": 18,
        "2681": 31,
        "2682": 181,
        "2683": 52,
        "2684": 204,
        "2685": 106,
        "2686": 144,
        "2687": 0,
        "2688": 178,
        "2689": 178,
        "2690": 25,
        "2691": 137,
        "2692": 90,
        "2693": 201,
        "2694": 147,
        "2695": 44,
        "2696": 209,
        "2697": 42,
        "2698": 192,
        "2699": 91,
        "2700": 5,
        "2701": 95,
        "2702": 221,
        "2703": 12,
        "2704": 67,
        "2705": 46,
        "2706": 22,
        "2707": 166,
        "2708": 160,
        "2709": 57,
        "2710": 51,
        "2711": 163,
        "2712": 169,
        "2713": 164,
        "2714": 200,
        "2715": 98,
        "2716": 140,
        "2717": 188,
        "2718": 186,
        "2719": 110,
        "2720": 249,
        "2721": 138,
        "2722": 8,
        "2723": 32,
        "2724": 45,
        "2725": 107,
        "2726": 245,
        "2727": 207,
        "2728": 237,
        "2729": 16,
        "2730": 210,
        "2731": 197,
        "2732": 8,
        "2733": 218,
        "2734": 22,
        "2735": 124,
        "2736": 181,
        "2737": 191,
        "2738": 144,
        "2739": 224,
        "2740": 107,
        "2741": 27,
        "2742": 253,
        "2743": 58,
        "2744": 30,
        "2745": 173,
        "2746": 205,
        "2747": 171,
        "2748": 178,
        "2749": 33,
        "2750": 54,
        "2751": 189,
        "2752": 189,
        "2753": 86,
        "2754": 234,
        "2755": 236,
        "2756": 30,
        "2757": 53,
        "2758": 143,
        "2759": 244,
        "2760": 130,
        "2761": 87,
        "2762": 235,
        "2763": 85,
        "2764": 138,
        "2765": 116,
        "2766": 200,
        "2767": 15,
        "2768": 180,
        "2769": 27,
        "2770": 139,
        "2771": 185,
        "2772": 228,
        "2773": 90,
        "2774": 227,
        "2775": 31,
        "2776": 129,
        "2777": 110,
        "2778": 36,
        "2779": 158,
        "2780": 211,
        "2781": 222,
        "2782": 39,
        "2783": 201,
        "2784": 160,
        "2785": 89,
        "2786": 60,
        "2787": 75,
        "2788": 244,
        "2789": 19,
        "2790": 136,
        "2791": 21,
        "2792": 68,
        "2793": 105,
        "2794": 49,
        "2795": 74,
        "2796": 103,
        "2797": 24,
        "2798": 166,
        "2799": 122,
        "2800": 174,
        "2801": 192,
        "2802": 144,
        "2803": 215,
        "2804": 61,
        "2805": 192,
        "2806": 217,
        "2807": 86,
        "2808": 184,
        "2809": 42,
        "2810": 65,
        "2811": 196,
        "2812": 99,
        "2813": 215,
        "2814": 79,
        "2815": 189,
        "2816": 135,
        "2817": 170,
        "2818": 184,
        "2819": 80,
        "2820": 118,
        "2821": 207,
        "2822": 49,
        "2823": 94,
        "2824": 12,
        "2825": 177,
        "2826": 16,
        "2827": 41,
        "2828": 113,
        "2829": 180,
        "2830": 104,
        "2831": 225,
        "2832": 33,
        "2833": 227,
        "2834": 83,
        "2835": 229,
        "2836": 219,
        "2837": 197,
        "2838": 120,
        "2839": 132,
        "2840": 46,
        "2841": 208,
        "2842": 214,
        "2843": 130,
        "2844": 240,
        "2845": 63,
        "2846": 230,
        "2847": 114,
        "2848": 144,
        "2849": 254,
        "2850": 184,
        "2851": 0,
        "2852": 20,
        "2853": 123,
        "2854": 155,
        "2855": 121,
        "2856": 8,
        "2857": 72,
        "2858": 62,
        "2859": 218,
        "2860": 109,
        "2861": 13,
        "2862": 117,
        "2863": 164,
        "2864": 245,
        "2865": 93,
        "2866": 146,
        "2867": 2,
        "2868": 23,
        "2869": 42,
        "2870": 129,
        "2871": 231,
        "2872": 107,
        "2873": 101,
        "2874": 141,
        "2875": 100,
        "2876": 100,
        "2877": 107,
        "2878": 134,
        "2879": 127,
        "2880": 0,
        "2881": 45,
        "2882": 38,
        "2883": 229,
        "2884": 14,
        "2885": 233,
        "2886": 121,
        "2887": 51,
        "2888": 147,
        "2889": 21,
        "2890": 219,
        "2891": 78,
        "2892": 59,
        "2893": 5,
        "2894": 102,
        "2895": 218,
        "2896": 204,
        "2897": 117,
        "2898": 3,
        "2899": 46,
        "2900": 81,
        "2901": 116,
        "2902": 53,
        "2903": 11,
        "2904": 97,
        "2905": 76,
        "2906": 58,
        "2907": 209,
        "2908": 153,
        "2909": 255,
        "2910": 47,
        "2911": 241,
        "2912": 0,
        "2913": 243,
        "2914": 6,
        "2915": 107,
        "2916": 174,
        "2917": 78,
        "2918": 133,
        "2919": 190,
        "2920": 13,
        "2921": 16,
        "2922": 155,
        "2923": 47,
        "2924": 97,
        "2925": 12,
        "2926": 90,
        "2927": 58,
        "2928": 224,
        "2929": 173,
        "2930": 224,
        "2931": 77,
        "2932": 224,
        "2933": 136,
        "2934": 95,
        "2935": 71,
        "2936": 118,
        "2937": 152,
        "2938": 106,
        "2939": 230,
        "2940": 148,
        "2941": 183,
        "2942": 2,
        "2943": 131,
        "2944": 189,
        "2945": 20,
        "2946": 4,
        "2947": 35,
        "2948": 196,
        "2949": 17,
        "2950": 73,
        "2951": 66,
        "2952": 84,
        "2953": 163,
        "2954": 232,
        "2955": 187,
        "2956": 3,
        "2957": 239,
        "2958": 155,
        "2959": 255,
        "2960": 62,
        "2961": 213,
        "2962": 1,
        "2963": 144,
        "2964": 199,
        "2965": 51,
        "2966": 25,
        "2967": 47,
        "2968": 148,
        "2969": 48,
        "2970": 101,
        "2971": 156,
        "2972": 27,
        "2973": 60,
        "2974": 45,
        "2975": 144,
        "2976": 82,
        "2977": 58,
        "2978": 243,
        "2979": 93,
        "2980": 181,
        "2981": 188,
        "2982": 183,
        "2983": 124,
        "2984": 213,
        "2985": 119,
        "2986": 206,
        "2987": 128,
        "2988": 250,
        "2989": 96,
        "2990": 96,
        "2991": 187,
        "2992": 50,
        "2993": 254,
        "2994": 97,
        "2995": 148,
        "2996": 255,
        "2997": 250,
        "2998": 6,
        "2999": 31,
        "3000": 139,
        "3001": 56,
        "3002": 63,
        "3003": 131,
        "3004": 117,
        "3005": 53,
        "3006": 25,
        "3007": 182,
        "3008": 128,
        "3009": 102,
        "3010": 42,
        "3011": 196,
        "3012": 227,
        "3013": 31,
        "3014": 31,
        "3015": 64,
        "3016": 218,
        "3017": 172,
        "3018": 15,
        "3019": 67,
        "3020": 80,
        "3021": 60,
        "3022": 32,
        "3023": 41,
        "3024": 68,
        "3025": 110,
        "3026": 19,
        "3027": 188,
        "3028": 88,
        "3029": 128,
        "3030": 63,
        "3031": 210,
        "3032": 105,
        "3033": 88,
        "3034": 159,
        "3035": 25,
        "3036": 62,
        "3037": 41,
        "3038": 29,
        "3039": 179,
        "3040": 38,
        "3041": 207,
        "3042": 176,
        "3043": 229,
        "3044": 63,
        "3045": 212,
        "3046": 255,
        "3047": 110,
        "3048": 141,
        "3049": 45,
        "3050": 57,
        "3051": 149,
        "3052": 234,
        "3053": 118,
        "3054": 0,
        "3055": 12,
        "3056": 201,
        "3057": 23,
        "3058": 137,
        "3059": 233,
        "3060": 88,
        "3061": 52,
        "3062": 36,
        "3063": 0,
        "3064": 196,
        "3065": 246,
        "3066": 45,
        "3067": 234,
        "3068": 108,
        "3069": 181,
        "3070": 124,
        "3071": 60,
        "3072": 7,
        "3073": 23,
        "3074": 107,
        "3075": 198,
        "3076": 242,
        "3077": 177,
        "3078": 29,
        "3079": 1,
        "3080": 11,
        "3081": 166,
        "3082": 178,
        "3083": 234,
        "3084": 138,
        "3085": 35,
        "3086": 173,
        "3087": 1,
        "3088": 120,
        "3089": 33,
        "3090": 61,
        "3091": 53,
        "3092": 162,
        "3093": 13,
        "3094": 5,
        "3095": 147,
        "3096": 6,
        "3097": 19,
        "3098": 215,
        "3099": 226,
        "3100": 18,
        "3101": 21,
        "3102": 18,
        "3103": 146,
        "3104": 69,
        "3105": 229,
        "3106": 233,
        "3107": 51,
        "3108": 174,
        "3109": 108,
        "3110": 100,
        "3111": 111,
        "3112": 61,
        "3113": 247,
        "3114": 133,
        "3115": 73,
        "3116": 137,
        "3117": 131,
        "3118": 26,
        "3119": 224,
        "3120": 56,
        "3121": 165,
        "3122": 197,
        "3123": 105,
        "3124": 215,
        "3125": 157,
        "3126": 222,
        "3127": 34,
        "3128": 127,
        "3129": 147,
        "3130": 62,
        "3131": 231,
        "3132": 183,
        "3133": 178,
        "3134": 55,
        "3135": 15,
        "3136": 177,
        "3137": 171,
        "3138": 151,
        "3139": 60,
        "3140": 145,
        "3141": 96,
        "3142": 207,
        "3143": 55,
        "3144": 239,
        "3145": 11,
        "3146": 78,
        "3147": 179,
        "3148": 30,
        "3149": 17,
        "3150": 186,
        "3151": 116,
        "3152": 250,
        "3153": 178,
        "3154": 170,
        "3155": 9,
        "3156": 83,
        "3157": 36,
        "3158": 59,
        "3159": 164,
        "3160": 212,
        "3161": 230,
        "3162": 139,
        "3163": 83,
        "3164": 20,
        "3165": 25,
        "3166": 231,
        "3167": 176,
        "3168": 240,
        "3169": 38,
        "3170": 40,
        "3171": 143,
        "3172": 173,
        "3173": 159,
        "3174": 1,
        "3175": 199,
        "3176": 120,
        "3177": 62,
        "3178": 43,
        "3179": 22,
        "3180": 16,
        "3181": 128,
        "3182": 15,
        "3183": 58,
        "3184": 238,
        "3185": 151,
        "3186": 56,
        "3187": 230,
        "3188": 126,
        "3189": 71,
        "3190": 92,
        "3191": 16,
        "3192": 19,
        "3193": 14,
        "3194": 203,
        "3195": 62,
        "3196": 204,
        "3197": 227,
        "3198": 74,
        "3199": 58,
        "3200": 105,
        "3201": 54,
        "3202": 125,
        "3203": 197,
        "3204": 231,
        "3205": 240,
        "3206": 8,
        "3207": 125,
        "3208": 152,
        "3209": 156,
        "3210": 234,
        "3211": 10,
        "3212": 39,
        "3213": 114,
        "3214": 49,
        "3215": 19,
        "3216": 54,
        "3217": 128,
        "3218": 45,
        "3219": 7,
        "3220": 185,
        "3221": 80,
        "3222": 111,
        "3223": 79,
        "3224": 21,
        "3225": 219,
        "3226": 148,
        "3227": 116,
        "3228": 205,
        "3229": 116,
        "3230": 183,
        "3231": 72,
        "3232": 134,
        "3233": 165,
        "3234": 178,
        "3235": 23,
        "3236": 219,
        "3237": 58,
        "3238": 129,
        "3239": 217,
        "3240": 107,
        "3241": 110,
        "3242": 243,
        "3243": 236,
        "3244": 148,
        "3245": 93,
        "3246": 142,
        "3247": 176,
        "3248": 109,
        "3249": 45,
        "3250": 8,
        "3251": 64,
        "3252": 70,
        "3253": 55,
        "3254": 215,
        "3255": 242,
        "3256": 157,
        "3257": 71,
        "3258": 141,
        "3259": 62,
        "3260": 206,
        "3261": 170,
        "3262": 182,
        "3263": 225,
        "3264": 145,
        "3265": 237,
        "3266": 32,
        "3267": 66,
        "3268": 53,
        "3269": 141,
        "3270": 15,
        "3271": 193,
        "3272": 99,
        "3273": 12,
        "3274": 16,
        "3275": 8,
        "3276": 132,
        "3277": 80,
        "3278": 58,
        "3279": 35,
        "3280": 130,
        "3281": 49,
        "3282": 178,
        "3283": 43,
        "3284": 81,
        "3285": 215,
        "3286": 34,
        "3287": 161,
        "3288": 242,
        "3289": 247,
        "3290": 81,
        "3291": 229,
        "3292": 142,
        "3293": 117,
        "3294": 145,
        "3295": 100,
        "3296": 163,
        "3297": 60,
        "3298": 30,
        "3299": 135,
        "3300": 121,
        "3301": 144,
        "3302": 162,
        "3303": 203,
        "3304": 179,
        "3305": 99,
        "3306": 139,
        "3307": 91,
        "3308": 103,
        "3309": 154,
        "3310": 251,
        "3311": 183,
        "3312": 212,
        "3313": 182,
        "3314": 17,
        "3315": 83,
        "3316": 112,
        "3317": 224,
        "3318": 252,
        "3319": 131,
        "3320": 46,
        "3321": 171,
        "3322": 36,
        "3323": 100,
        "3324": 44,
        "3325": 190,
        "3326": 147,
        "3327": 185,
        "3328": 22,
        "3329": 104,
        "3330": 143,
        "3331": 11,
        "3332": 144,
        "3333": 225,
        "3334": 209,
        "3335": 68,
        "3336": 143,
        "3337": 79,
        "3338": 176,
        "3339": 27,
        "3340": 83,
        "3341": 25,
        "3342": 8,
        "3343": 179,
        "3344": 247,
        "3345": 180,
        "3346": 239,
        "3347": 161,
        "3348": 28,
        "3349": 23,
        "3350": 134,
        "3351": 107,
        "3352": 132,
        "3353": 128,
        "3354": 154,
        "3355": 8,
        "3356": 28,
        "3357": 130,
        "3358": 181,
        "3359": 31,
        "3360": 238,
        "3361": 169,
        "3362": 165,
        "3363": 13,
        "3364": 211,
        "3365": 253,
        "3366": 218,
        "3367": 44,
        "3368": 123,
        "3369": 88,
        "3370": 118,
        "3371": 235,
        "3372": 130,
        "3373": 26,
        "3374": 195,
        "3375": 72,
        "3376": 187,
        "3377": 10,
        "3378": 79,
        "3379": 210,
        "3380": 255,
        "3381": 215,
        "3382": 75,
        "3383": 134,
        "3384": 38,
        "3385": 87,
        "3386": 41,
        "3387": 167,
        "3388": 212,
        "3389": 27,
        "3390": 112,
        "3391": 23,
        "3392": 234,
        "3393": 152,
        "3394": 148,
        "3395": 193,
        "3396": 20,
        "3397": 87,
        "3398": 185,
        "3399": 17,
        "3400": 167,
        "3401": 63,
        "3402": 61,
        "3403": 175,
        "3404": 109,
        "3405": 79,
        "3406": 95,
        "3407": 185,
        "3408": 121,
        "3409": 254,
        "3410": 34,
        "3411": 33,
        "3412": 50,
        "3413": 233,
        "3414": 62,
        "3415": 150,
        "3416": 148,
        "3417": 184,
        "3418": 54,
        "3419": 167,
        "3420": 112,
        "3421": 62,
        "3422": 231,
        "3423": 93,
        "3424": 236,
        "3425": 140,
        "3426": 248,
        "3427": 237,
        "3428": 157,
        "3429": 111,
        "3430": 39,
        "3431": 97,
        "3432": 184,
        "3433": 242,
        "3434": 18,
        "3435": 43,
        "3436": 106,
        "3437": 171,
        "3438": 82,
        "3439": 124,
        "3440": 117,
        "3441": 169,
        "3442": 116,
        "3443": 136,
        "3444": 114,
        "3445": 30,
        "3446": 209,
        "3447": 221,
        "3448": 163,
        "3449": 127,
        "3450": 39,
        "3451": 26,
        "3452": 242,
        "3453": 104,
        "3454": 150,
        "3455": 123,
        "3456": 37,
        "3457": 145,
        "3458": 152,
        "3459": 254,
        "3460": 75,
        "3461": 4,
        "3462": 36,
        "3463": 83,
        "3464": 230,
        "3465": 249,
        "3466": 157,
        "3467": 229,
        "3468": 103,
        "3469": 235,
        "3470": 200,
        "3471": 188,
        "3472": 232,
        "3473": 240,
        "3474": 153,
        "3475": 189,
        "3476": 191,
        "3477": 73,
        "3478": 159,
        "3479": 189,
        "3480": 102,
        "3481": 66,
        "3482": 146,
        "3483": 203,
        "3484": 225,
        "3485": 12,
        "3486": 15,
        "3487": 153,
        "3488": 164,
        "3489": 97,
        "3490": 164,
        "3491": 120,
        "3492": 68,
        "3493": 225,
        "3494": 169,
        "3495": 29,
        "3496": 183,
        "3497": 92,
        "3498": 73,
        "3499": 191,
        "3500": 77,
        "3501": 194,
        "3502": 1,
        "3503": 241,
        "3504": 64,
        "3505": 168,
        "3506": 190,
        "3507": 25,
        "3508": 12,
        "3509": 154,
        "3510": 101,
        "3511": 235,
        "3512": 151,
        "3513": 132,
        "3514": 85,
        "3515": 48,
        "3516": 168,
        "3517": 126,
        "3518": 159,
        "3519": 14,
        "3520": 60,
        "3521": 48,
        "3522": 118,
        "3523": 111,
        "3524": 234,
        "3525": 89,
        "3526": 173,
        "3527": 71,
        "3528": 65,
        "3529": 9,
        "3530": 57,
        "3531": 86,
        "3532": 197,
        "3533": 29,
        "3534": 219,
        "3535": 131,
        "3536": 249,
        "3537": 144,
        "3538": 14,
        "3539": 223,
        "3540": 44,
        "3541": 187,
        "3542": 215,
        "3543": 75,
        "3544": 181,
        "3545": 242,
        "3546": 210,
        "3547": 54,
        "3548": 22,
        "3549": 98,
        "3550": 246,
        "3551": 17,
        "3552": 32,
        "3553": 87,
        "3554": 6,
        "3555": 204,
        "3556": 75,
        "3557": 96,
        "3558": 172,
        "3559": 121,
        "3560": 237,
        "3561": 165,
        "3562": 187,
        "3563": 14,
        "3564": 19,
        "3565": 116,
        "3566": 229,
        "3567": 215,
        "3568": 157,
        "3569": 80,
        "3570": 91,
        "3571": 137,
        "3572": 22,
        "3573": 228,
        "3574": 212,
        "3575": 129,
        "3576": 147,
        "3577": 50,
        "3578": 238,
        "3579": 236,
        "3580": 179,
        "3581": 233,
        "3582": 15,
        "3583": 3,
        "3584": 239,
        "3585": 236,
        "3586": 187,
        "3587": 84,
        "3588": 58,
        "3589": 66,
        "3590": 111,
        "3591": 129,
        "3592": 53,
        "3593": 74,
        "3594": 8,
        "3595": 253,
        "3596": 137,
        "3597": 138,
        "3598": 193,
        "3599": 123,
        "3600": 219,
        "3601": 196,
        "3602": 177,
        "3603": 3,
        "3604": 173,
        "3605": 20,
        "3606": 175,
        "3607": 67,
        "3608": 26,
        "3609": 30,
        "3610": 226,
        "3611": 23,
        "3612": 208,
        "3613": 111,
        "3614": 182,
        "3615": 191,
        "3616": 147,
        "3617": 237,
        "3618": 59,
        "3619": 70,
        "3620": 136,
        "3621": 154,
        "3622": 133,
        "3623": 199,
        "3624": 72,
        "3625": 223,
        "3626": 97,
        "3627": 52,
        "3628": 95,
        "3629": 253,
        "3630": 198,
        "3631": 205,
        "3632": 115,
        "3633": 233,
        "3634": 236,
        "3635": 62,
        "3636": 156,
        "3637": 22,
        "3638": 239,
        "3639": 74,
        "3640": 85,
        "3641": 244,
        "3642": 155,
        "3643": 58,
        "3644": 193,
        "3645": 139,
        "3646": 254,
        "3647": 242,
        "3648": 146,
        "3649": 120,
        "3650": 137,
        "3651": 244,
        "3652": 71,
        "3653": 217,
        "3654": 46,
        "3655": 208,
        "3656": 156,
        "3657": 156,
        "3658": 167,
        "3659": 69,
        "3660": 131,
        "3661": 156,
        "3662": 2,
        "3663": 166,
        "3664": 119,
        "3665": 178,
        "3666": 194,
        "3667": 72,
        "3668": 176,
        "3669": 109,
        "3670": 250,
        "3671": 69,
        "3672": 148,
        "3673": 13,
        "3674": 156,
        "3675": 252,
        "3676": 163,
        "3677": 241,
        "3678": 1,
        "3679": 60,
        "3680": 218,
        "3681": 171,
        "3682": 4,
        "3683": 198,
        "3684": 120,
        "3685": 103,
        "3686": 77,
        "3687": 240,
        "3688": 156,
        "3689": 86,
        "3690": 137,
        "3691": 156,
        "3692": 38,
        "3693": 169,
        "3694": 218,
        "3695": 130,
        "3696": 250,
        "3697": 61,
        "3698": 209,
        "3699": 89,
        "3700": 11,
        "3701": 61,
        "3702": 93,
        "3703": 213,
        "3704": 105,
        "3705": 112,
        "3706": 206,
        "3707": 16,
        "3708": 14,
        "3709": 70,
        "3710": 131,
        "3711": 146,
        "3712": 148,
        "3713": 194,
        "3714": 155,
        "3715": 187,
        "3716": 45,
        "3717": 214,
        "3718": 98,
        "3719": 228,
        "3720": 138,
        "3721": 51,
        "3722": 129,
        "3723": 67,
        "3724": 130,
        "3725": 150,
        "3726": 86,
        "3727": 49,
        "3728": 183,
        "3729": 16,
        "3730": 127,
        "3731": 67,
        "3732": 166,
        "3733": 64,
        "3734": 47,
        "3735": 206,
        "3736": 139,
        "3737": 38,
        "3738": 72,
        "3739": 181,
        "3740": 178,
        "3741": 116,
        "3742": 99,
        "3743": 203,
        "3744": 144,
        "3745": 214,
        "3746": 42,
        "3747": 112,
        "3748": 30,
        "3749": 119,
        "3750": 50,
        "3751": 195,
        "3752": 83,
        "3753": 108,
        "3754": 53,
        "3755": 151,
        "3756": 127,
        "3757": 217,
        "3758": 66,
        "3759": 37,
        "3760": 124,
        "3761": 192,
        "3762": 155,
        "3763": 160,
        "3764": 117,
        "3765": 235,
        "3766": 91,
        "3767": 111,
        "3768": 132,
        "3769": 23,
        "3770": 125,
        "3771": 178,
        "3772": 83,
        "3773": 33,
        "3774": 156,
        "3775": 96,
        "3776": 17,
        "3777": 208,
        "3778": 11,
        "3779": 241,
        "3780": 93,
        "3781": 89,
        "3782": 129,
        "3783": 219,
        "3784": 236,
        "3785": 53,
        "3786": 15,
        "3787": 146,
        "3788": 236,
        "3789": 94,
        "3790": 206,
        "3791": 95,
        "3792": 199,
        "3793": 6,
        "3794": 250,
        "3795": 163,
        "3796": 238,
        "3797": 24,
        "3798": 75,
        "3799": 18,
        "3800": 229,
        "3801": 169,
        "3802": 138,
        "3803": 124,
        "3804": 14,
        "3805": 231,
        "3806": 183,
        "3807": 184,
        "3808": 234,
        "3809": 77,
        "3810": 140,
        "3811": 211,
        "3812": 203,
        "3813": 141,
        "3814": 237,
        "3815": 134,
        "3816": 58,
        "3817": 219,
        "3818": 24,
        "3819": 90,
        "3820": 149,
        "3821": 192,
        "3822": 167,
        "3823": 31,
        "3824": 252,
        "3825": 185,
        "3826": 120,
        "3827": 142,
        "3828": 96,
        "3829": 100,
        "3830": 245,
        "3831": 172,
        "3832": 79,
        "3833": 207,
        "3834": 245,
        "3835": 238,
        "3836": 30,
        "3837": 77,
        "3838": 122,
        "3839": 39,
        "3840": 158,
        "3841": 100,
        "3842": 111,
        "3843": 59,
        "3844": 197,
        "3845": 158,
        "3846": 31,
        "3847": 148,
        "3848": 179,
        "3849": 62,
        "3850": 106,
        "3851": 71,
        "3852": 243,
        "3853": 191,
        "3854": 105,
        "3855": 166,
        "3856": 159,
        "3857": 76,
        "3858": 188,
        "3859": 137,
        "3860": 171,
        "3861": 216,
        "3862": 81,
        "3863": 222,
        "3864": 131,
        "3865": 74,
        "3866": 49,
        "3867": 173,
        "3868": 233,
        "3869": 46,
        "3870": 250,
        "3871": 19,
        "3872": 194,
        "3873": 54,
        "3874": 44,
        "3875": 133,
        "3876": 243,
        "3877": 103,
        "3878": 223,
        "3879": 73,
        "3880": 200,
        "3881": 154,
        "3882": 55,
        "3883": 234,
        "3884": 44,
        "3885": 127,
        "3886": 199,
        "3887": 62,
        "3888": 70,
        "3889": 151,
        "3890": 148,
        "3891": 245,
        "3892": 35,
        "3893": 180,
        "3894": 155,
        "3895": 160,
        "3896": 126,
        "3897": 132,
        "3898": 237,
        "3899": 4,
        "3900": 229,
        "3901": 18,
        "3902": 169,
        "3903": 227,
        "3904": 178,
        "3905": 199,
        "3906": 220,
        "3907": 247,
        "3908": 166,
        "3909": 60,
        "3910": 88,
        "3911": 208,
        "3912": 39,
        "3913": 116,
        "3914": 174,
        "3915": 5,
        "3916": 100,
        "3917": 198,
        "3918": 76,
        "3919": 29,
        "3920": 11,
        "3921": 204,
        "3922": 139,
        "3923": 50,
        "3924": 43,
        "3925": 164,
        "3926": 121,
        "3927": 194,
        "3928": 39,
        "3929": 100,
        "3930": 99,
        "3931": 252,
        "3932": 20,
        "3933": 52,
        "3934": 232,
        "3935": 48,
        "3936": 239,
        "3937": 53,
        "3938": 166,
        "3939": 226,
        "3940": 116,
        "3941": 186,
        "3942": 159,
        "3943": 134,
        "3944": 91,
        "3945": 159,
        "3946": 122,
        "3947": 81,
        "3948": 154,
        "3949": 157,
        "3950": 240,
        "3951": 98,
        "3952": 14,
        "3953": 85,
        "3954": 197,
        "3955": 160,
        "3956": 126,
        "3957": 188,
        "3958": 165,
        "3959": 51,
        "3960": 47,
        "3961": 222,
        "3962": 45,
        "3963": 15,
        "3964": 31,
        "3965": 5,
        "3966": 92,
        "3967": 215,
        "3968": 227,
        "3969": 75,
        "3970": 54,
        "3971": 42,
        "3972": 142,
        "3973": 247,
        "3974": 164,
        "3975": 20,
        "3976": 51,
        "3977": 250,
        "3978": 108,
        "3979": 211,
        "3980": 130,
        "3981": 211,
        "3982": 27,
        "3983": 228,
        "3984": 25,
        "3985": 59,
        "3986": 13,
        "3987": 22,
        "3988": 105,
        "3989": 160,
        "3990": 150,
        "3991": 148,
        "3992": 46,
        "3993": 241,
        "3994": 20,
        "3995": 177,
        "3996": 224,
        "3997": 125,
        "3998": 170,
        "3999": 180,
        "4000": 42,
        "4001": 121,
        "4002": 205,
        "4003": 66,
        "4004": 223,
        "4005": 12,
        "4006": 152,
        "4007": 72,
        "4008": 210,
        "4009": 225,
        "4010": 67,
        "4011": 210,
        "4012": 53,
        "4013": 128,
        "4014": 232,
        "4015": 74,
        "4016": 9,
        "4017": 103,
        "4018": 127,
        "4019": 33,
        "4020": 65,
        "4021": 157,
        "4022": 220,
        "4023": 250,
        "4024": 228,
        "4025": 195,
        "4026": 98,
        "4027": 122,
        "4028": 251,
        "4029": 78,
        "4030": 226,
        "4031": 103,
        "4032": 108,
        "4033": 246,
        "4034": 41,
        "4035": 239,
        "4036": 34,
        "4037": 158,
        "4038": 191,
        "4039": 167,
        "4040": 12,
        "4041": 64,
        "4042": 160,
        "4043": 48,
        "4044": 2,
        "4045": 35,
        "4046": 100,
        "4047": 179,
        "4048": 246,
        "4049": 142,
        "4050": 193,
        "4051": 196,
        "4052": 210,
        "4053": 149,
        "4054": 114,
        "4055": 43,
        "4056": 251,
        "4057": 164,
        "4058": 95,
        "4059": 250,
        "4060": 1,
        "4061": 85,
        "4062": 158,
        "4063": 163,
        "4064": 27,
        "4065": 55,
        "4066": 6,
        "4067": 124,
        "4068": 195,
        "4069": 211,
        "4070": 115,
        "4071": 65,
        "4072": 166,
        "4073": 24,
        "4074": 34,
        "4075": 52,
        "4076": 151,
        "4077": 167,
        "4078": 243,
        "4079": 81,
        "4080": 62,
        "4081": 25,
        "4082": 12,
        "4083": 11,
        "4084": 220,
        "4085": 191,
        "4086": 106,
        "4087": 216,
        "4088": 217,
        "4089": 40,
        "4090": 18,
        "4091": 54,
        "4092": 3,
        "4093": 126,
        "4094": 178,
        "4095": 91,
        "4096": 124,
        "4097": 76,
        "4098": 59,
        "4099": 63,
        "4100": 96,
        "4101": 185,
        "4102": 56,
        "4103": 92,
        "4104": 172,
        "4105": 120,
        "4106": 88,
        "4107": 71,
        "4108": 158,
        "4109": 206,
        "4110": 192,
        "4111": 128,
        "4112": 235,
        "4113": 202,
        "4114": 228,
        "4115": 69,
        "4116": 40,
        "4117": 86,
        "4118": 227,
        "4119": 148,
        "4120": 17,
        "4121": 190,
        "4122": 69,
        "4123": 100,
        "4124": 248,
        "4125": 243,
        "4126": 212,
        "4127": 39,
        "4128": 254,
        "4129": 50,
        "4130": 42,
        "4131": 126,
        "4132": 120,
        "4133": 212,
        "4134": 119,
        "4135": 124,
        "4136": 21,
        "4137": 207,
        "4138": 98,
        "4139": 192,
        "4140": 58,
        "4141": 199,
        "4142": 69,
        "4143": 142,
        "4144": 209,
        "4145": 112,
        "4146": 174,
        "4147": 97,
        "4148": 63,
        "4149": 57,
        "4150": 247,
        "4151": 159,
        "4152": 141,
        "4153": 145,
        "4154": 237,
        "4155": 84,
        "4156": 200,
        "4157": 99,
        "4158": 70,
        "4159": 3,
        "4160": 244,
        "4161": 48,
        "4162": 144,
        "4163": 47,
        "4164": 23,
        "4165": 155,
        "4166": 134,
        "4167": 246,
        "4168": 142,
        "4169": 75,
        "4170": 43,
        "4171": 248,
        "4172": 80,
        "4173": 218,
        "4174": 177,
        "4175": 12,
        "4176": 116,
        "4177": 102,
        "4178": 48,
        "4179": 111,
        "4180": 181,
        "4181": 19,
        "4182": 248,
        "4183": 90,
        "4184": 97,
        "4185": 30,
        "4186": 55,
        "4187": 53,
        "4188": 107,
        "4189": 75,
        "4190": 114,
        "4191": 235,
        "4192": 16,
        "4193": 66,
        "4194": 115,
        "4195": 102,
        "4196": 114,
        "4197": 44,
        "4198": 5,
        "4199": 172,
        "4200": 142,
        "4201": 110,
        "4202": 230,
        "4203": 211,
        "4204": 82,
        "4205": 127,
        "4206": 109,
        "4207": 46,
        "4208": 140,
        "4209": 143,
        "4210": 146,
        "4211": 55,
        "4212": 104,
        "4213": 208,
        "4214": 42,
        "4215": 91,
        "4216": 193,
        "4217": 183,
        "4218": 54,
        "4219": 35,
        "4220": 51,
        "4221": 202,
        "4222": 163,
        "4223": 124,
        "4224": 64,
        "4225": 133,
        "4226": 210,
        "4227": 3,
        "4228": 55,
        "4229": 116,
        "4230": 132,
        "4231": 41,
        "4232": 252,
        "4233": 138,
        "4234": 149,
        "4235": 140,
        "4236": 217,
        "4237": 69,
        "4238": 171,
        "4239": 101,
        "4240": 198,
        "4241": 110,
        "4242": 67,
        "4243": 34,
        "4244": 13,
        "4245": 83,
        "4246": 168,
        "4247": 205,
        "4248": 147,
        "4249": 148,
        "4250": 158,
        "4251": 161,
        "4252": 216,
        "4253": 166,
        "4254": 77,
        "4255": 232,
        "4256": 25,
        "4257": 172,
        "4258": 221,
        "4259": 119,
        "4260": 144,
        "4261": 112,
        "4262": 243,
        "4263": 207,
        "4264": 229,
        "4265": 248,
        "4266": 117,
        "4267": 12,
        "4268": 177,
        "4269": 67,
        "4270": 136,
        "4271": 186,
        "4272": 49,
        "4273": 161,
        "4274": 153,
        "4275": 106,
        "4276": 126,
        "4277": 146,
        "4278": 79,
        "4279": 233,
        "4280": 57,
        "4281": 137,
        "4282": 94,
        "4283": 212,
        "4284": 4,
        "4285": 184,
        "4286": 10,
        "4287": 164,
        "4288": 233,
        "4289": 97,
        "4290": 13,
        "4291": 186,
        "4292": 222,
        "4293": 121,
        "4294": 104,
        "4295": 78,
        "4296": 99,
        "4297": 212,
        "4298": 251,
        "4299": 70,
        "4300": 149,
        "4301": 128,
        "4302": 0,
        "4303": 204,
        "4304": 171,
        "4305": 249,
        "4306": 204,
        "4307": 65,
        "4308": 185,
        "4309": 176,
        "4310": 195,
        "4311": 173,
        "4312": 43,
        "4313": 61,
        "4314": 121,
        "4315": 93,
        "4316": 233,
        "4317": 107,
        "4318": 96,
        "4319": 49,
        "4320": 125,
        "4321": 173,
        "4322": 66,
        "4323": 131,
        "4324": 94,
        "4325": 241,
        "4326": 61,
        "4327": 225,
        "4328": 43,
        "4329": 148,
        "4330": 187,
        "4331": 46,
        "4332": 157,
        "4333": 181,
        "4334": 194,
        "4335": 220,
        "4336": 201,
        "4337": 199,
        "4338": 61,
        "4339": 205,
        "4340": 69,
        "4341": 194,
        "4342": 232,
        "4343": 34,
        "4344": 161,
        "4345": 217,
        "4346": 178,
        "4347": 121,
        "4348": 235,
        "4349": 96,
        "4350": 18,
        "4351": 153,
        "4352": 110,
        "4353": 242,
        "4354": 110,
        "4355": 52,
        "4356": 125,
        "4357": 47,
        "4358": 62,
        "4359": 143,
        "4360": 110,
        "4361": 58,
        "4362": 223,
        "4363": 73,
        "4364": 130,
        "4365": 111,
        "4366": 132,
        "4367": 97,
        "4368": 1,
        "4369": 125,
        "4370": 159,
        "4371": 67,
        "4372": 19,
        "4373": 245,
        "4374": 245,
        "4375": 247,
        "4376": 206,
        "4377": 168,
        "4378": 237,
        "4379": 33,
        "4380": 19,
        "4381": 63,
        "4382": 130,
        "4383": 172,
        "4384": 106,
        "4385": 197,
        "4386": 141,
        "4387": 101,
        "4388": 166,
        "4389": 205,
        "4390": 233,
        "4391": 142,
        "4392": 99,
        "4393": 113,
        "4394": 24,
        "4395": 238,
        "4396": 113,
        "4397": 65,
        "4398": 102,
        "4399": 242,
        "4400": 232,
        "4401": 158,
        "4402": 183,
        "4403": 140,
        "4404": 163,
        "4405": 149,
        "4406": 160,
        "4407": 245,
        "4408": 20,
        "4409": 177,
        "4410": 225,
        "4411": 249,
        "4412": 133,
        "4413": 52,
        "4414": 4,
        "4415": 200,
        "4416": 228,
        "4417": 142,
        "4418": 147,
        "4419": 58,
        "4420": 101,
        "4421": 72,
        "4422": 215,
        "4423": 198,
        "4424": 58,
        "4425": 118,
        "4426": 186,
        "4427": 153,
        "4428": 7,
        "4429": 7,
        "4430": 147,
        "4431": 239,
        "4432": 156,
        "4433": 90,
        "4434": 95,
        "4435": 192,
        "4436": 115,
        "4437": 125,
        "4438": 133,
        "4439": 41,
        "4440": 98,
        "4441": 238,
        "4442": 56,
        "4443": 191,
        "4444": 159,
        "4445": 69,
        "4446": 178,
        "4447": 213,
        "4448": 205,
        "4449": 34,
        "4450": 23,
        "4451": 155,
        "4452": 197,
        "4453": 49,
        "4454": 19,
        "4455": 3,
        "4456": 21,
        "4457": 127,
        "4458": 68,
        "4459": 16,
        "4460": 228,
        "4461": 171,
        "4462": 95,
        "4463": 106,
        "4464": 168,
        "4465": 239,
        "4466": 91,
        "4467": 118,
        "4468": 0,
        "4469": 79,
        "4470": 181,
        "4471": 53,
        "4472": 246,
        "4473": 85,
        "4474": 17,
        "4475": 219,
        "4476": 158,
        "4477": 129,
        "4478": 154,
        "4479": 60,
        "4480": 105,
        "4481": 156,
        "4482": 77,
        "4483": 124,
        "4484": 113,
        "4485": 210,
        "4486": 241,
        "4487": 61,
        "4488": 129,
        "4489": 25,
        "4490": 17,
        "4491": 30,
        "4492": 242,
        "4493": 4,
        "4494": 69,
        "4495": 172,
        "4496": 130,
        "4497": 130,
        "4498": 204,
        "4499": 157,
        "4500": 49,
        "4501": 184,
        "4502": 209,
        "4503": 182,
        "4504": 18,
        "4505": 72,
        "4506": 58,
        "4507": 255,
        "4508": 135,
        "4509": 115,
        "4510": 252,
        "4511": 41,
        "4512": 179,
        "4513": 58,
        "4514": 125,
        "4515": 73,
        "4516": 41,
        "4517": 166,
        "4518": 168,
        "4519": 145,
        "4520": 219,
        "4521": 234,
        "4522": 93,
        "4523": 154,
        "4524": 219,
        "4525": 93,
        "4526": 24,
        "4527": 96,
        "4528": 166,
        "4529": 41,
        "4530": 64,
        "4531": 60,
        "4532": 141,
        "4533": 189,
        "4534": 224,
        "4535": 241,
        "4536": 130,
        "4537": 159,
        "4538": 155,
        "4539": 135,
        "4540": 173,
        "4541": 124,
        "4542": 171,
        "4543": 99,
        "4544": 32,
        "4545": 188,
        "4546": 230,
        "4547": 164,
        "4548": 206,
        "4549": 20,
        "4550": 196,
        "4551": 45,
        "4552": 163,
        "4553": 224,
        "4554": 183,
        "4555": 1,
        "4556": 213,
        "4557": 129,
        "4558": 152,
        "4559": 119,
        "4560": 82,
        "4561": 60,
        "4562": 68,
        "4563": 8,
        "4564": 23,
        "4565": 55,
        "4566": 85,
        "4567": 184,
        "4568": 176,
        "4569": 117,
        "4570": 200,
        "4571": 36,
        "4572": 57,
        "4573": 160,
        "4574": 125,
        "4575": 88,
        "4576": 235,
        "4577": 98,
        "4578": 86,
        "4579": 175,
        "4580": 253,
        "4581": 245,
        "4582": 60,
        "4583": 147,
        "4584": 226,
        "4585": 61,
        "4586": 0,
        "4587": 215,
        "4588": 82,
        "4589": 230,
        "4590": 101,
        "4591": 83,
        "4592": 173,
        "4593": 160,
        "4594": 8,
        "4595": 196,
        "4596": 5,
        "4597": 137,
        "4598": 6,
        "4599": 182,
        "4600": 65,
        "4601": 48,
        "4602": 19,
        "4603": 122,
        "4604": 116,
        "4605": 147,
        "4606": 74,
        "4607": 155,
        "4608": 22,
        "4609": 41,
        "4610": 109,
        "4611": 29,
        "4612": 192,
        "4613": 215,
        "4614": 111,
        "4615": 5,
        "4616": 148,
        "4617": 0,
        "4618": 195,
        "4619": 29,
        "4620": 196,
        "4621": 143,
        "4622": 141,
        "4623": 116,
        "4624": 59,
        "4625": 164,
        "4626": 124,
        "4627": 68,
        "4628": 109,
        "4629": 202,
        "4630": 14,
        "4631": 160,
        "4632": 67,
        "4633": 141,
        "4634": 144,
        "4635": 160,
        "4636": 230,
        "4637": 71,
        "4638": 206,
        "4639": 248,
        "4640": 202,
        "4641": 226,
        "4642": 231,
        "4643": 213,
        "4644": 41,
        "4645": 229,
        "4646": 69,
        "4647": 78,
        "4648": 139,
        "4649": 107,
        "4650": 83,
        "4651": 40,
        "4652": 110,
        "4653": 220,
        "4654": 138,
        "4655": 136,
        "4656": 154,
        "4657": 246,
        "4658": 250,
        "4659": 20,
        "4660": 96,
        "4661": 36,
        "4662": 6,
        "4663": 249,
        "4664": 196,
        "4665": 194,
        "4666": 79,
        "4667": 16,
        "4668": 226,
        "4669": 214,
        "4670": 145,
        "4671": 179,
        "4672": 214,
        "4673": 215,
        "4674": 213,
        "4675": 62,
        "4676": 178,
        "4677": 184,
        "4678": 213,
        "4679": 52,
        "4680": 1,
        "4681": 42,
        "4682": 205,
        "4683": 101,
        "4684": 193,
        "4685": 164,
        "4686": 240,
        "4687": 202,
        "4688": 250,
        "4689": 230,
        "4690": 210,
        "4691": 246,
        "4692": 27,
        "4693": 195,
        "4694": 31,
        "4695": 83,
        "4696": 7,
        "4697": 17,
        "4698": 7,
        "4699": 99,
        "4700": 54,
        "4701": 113,
        "4702": 140,
        "4703": 211,
        "4704": 243,
        "4705": 206,
        "4706": 62,
        "4707": 165,
        "4708": 11,
        "4709": 155,
        "4710": 77,
        "4711": 133,
        "4712": 43,
        "4713": 169,
        "4714": 188,
        "4715": 103,
        "4716": 134,
        "4717": 7,
        "4718": 144,
        "4719": 94,
        "4720": 196,
        "4721": 10,
        "4722": 96,
        "4723": 32,
        "4724": 60,
        "4725": 214,
        "4726": 234,
        "4727": 168,
        "4728": 60,
        "4729": 101,
        "4730": 123,
        "4731": 212,
        "4732": 78,
        "4733": 196,
        "4734": 72,
        "4735": 137,
        "4736": 120,
        "4737": 76,
        "4738": 85,
        "4739": 88,
        "4740": 225,
        "4741": 64,
        "4742": 221,
        "4743": 132,
        "4744": 93,
        "4745": 209,
        "4746": 86,
        "4747": 1,
        "4748": 167,
        "4749": 197,
        "4750": 197,
        "4751": 75,
        "4752": 101,
        "4753": 252,
        "4754": 228,
        "4755": 212,
        "4756": 187,
        "4757": 39,
        "4758": 126,
        "4759": 46,
        "4760": 15,
        "4761": 136,
        "4762": 111,
        "4763": 49,
        "4764": 89,
        "4765": 65,
        "4766": 222,
        "4767": 251,
        "4768": 108,
        "4769": 41,
        "4770": 56,
        "4771": 177,
        "4772": 92,
        "4773": 5,
        "4774": 83,
        "4775": 78,
        "4776": 66,
        "4777": 204,
        "4778": 35,
        "4779": 121,
        "4780": 44,
        "4781": 211,
        "4782": 75,
        "4783": 92,
        "4784": 146,
        "4785": 255,
        "4786": 134,
        "4787": 210,
        "4788": 176,
        "4789": 120,
        "4790": 64,
        "4791": 130,
        "4792": 220,
        "4793": 45,
        "4794": 202,
        "4795": 210,
        "4796": 144,
        "4797": 80,
        "4798": 239,
        "4799": 254,
        "4800": 201,
        "4801": 145,
        "4802": 51,
        "4803": 105,
        "4804": 168,
        "4805": 208,
        "4806": 210,
        "4807": 242,
        "4808": 156,
        "4809": 230,
        "4810": 31,
        "4811": 167,
        "4812": 209,
        "4813": 18,
        "4814": 56,
        "4815": 10,
        "4816": 77,
        "4817": 72,
        "4818": 155,
        "4819": 172,
        "4820": 124,
        "4821": 111,
        "4822": 78,
        "4823": 183,
        "4824": 62,
        "4825": 102,
        "4826": 227,
        "4827": 19,
        "4828": 154,
        "4829": 127,
        "4830": 62,
        "4831": 121,
        "4832": 43,
        "4833": 180,
        "4834": 4,
        "4835": 206,
        "4836": 108,
        "4837": 213,
        "4838": 146,
        "4839": 139,
        "4840": 130,
        "4841": 73,
        "4842": 129,
        "4843": 3,
        "4844": 170,
        "4845": 116,
        "4846": 120,
        "4847": 191,
        "4848": 56,
        "4849": 81,
        "4850": 47,
        "4851": 101,
        "4852": 88,
        "4853": 74,
        "4854": 88,
        "4855": 147,
        "4856": 238,
        "4857": 44,
        "4858": 113,
        "4859": 220,
        "4860": 17,
        "4861": 161,
        "4862": 136,
        "4863": 166,
        "4864": 201,
        "4865": 211,
        "4866": 251,
        "4867": 249,
        "4868": 233,
        "4869": 14,
        "4870": 2,
        "4871": 16,
        "4872": 40,
        "4873": 39,
        "4874": 16,
        "4875": 188,
        "4876": 240,
        "4877": 84,
        "4878": 231,
        "4879": 237,
        "4880": 149,
        "4881": 200,
        "4882": 64,
        "4883": 42,
        "4884": 13,
        "4885": 136,
        "4886": 89,
        "4887": 16,
        "4888": 215,
        "4889": 169,
        "4890": 202,
        "4891": 94,
        "4892": 74,
        "4893": 106,
        "4894": 252,
        "4895": 76,
        "4896": 87,
        "4897": 248,
        "4898": 153,
        "4899": 119,
        "4900": 210,
        "4901": 129,
        "4902": 188,
        "4903": 0,
        "4904": 144,
        "4905": 74,
        "4906": 251,
        "4907": 166,
        "4908": 87,
        "4909": 39,
        "4910": 48,
        "4911": 50,
        "4912": 79,
        "4913": 167,
        "4914": 248,
        "4915": 118,
        "4916": 201,
        "4917": 29,
        "4918": 152,
        "4919": 172,
        "4920": 125,
        "4921": 107,
        "4922": 178,
        "4923": 125,
        "4924": 90,
        "4925": 121,
        "4926": 43,
        "4927": 168,
        "4928": 232,
        "4929": 188,
        "4930": 198,
        "4931": 227,
        "4932": 44,
        "4933": 48,
        "4934": 241,
        "4935": 129,
        "4936": 94,
        "4937": 225,
        "4938": 197,
        "4939": 246,
        "4940": 171,
        "4941": 157,
        "4942": 223,
        "4943": 53,
        "4944": 138,
        "4945": 140,
        "4946": 42,
        "4947": 209,
        "4948": 250,
        "4949": 137,
        "4950": 68,
        "4951": 68,
        "4952": 85,
        "4953": 119,
        "4954": 188,
        "4955": 38,
        "4956": 255,
        "4957": 42,
        "4958": 192,
        "4959": 175,
        "4960": 153,
        "4961": 101,
        "4962": 79,
        "4963": 190,
        "4964": 189,
        "4965": 200,
        "4966": 154,
        "4967": 9,
        "4968": 121,
        "4969": 97,
        "4970": 125,
        "4971": 242,
        "4972": 213,
        "4973": 135,
        "4974": 137,
        "4975": 127,
        "4976": 135,
        "4977": 203,
        "4978": 63,
        "4979": 51,
        "4980": 45,
        "4981": 230,
        "4982": 131,
        "4983": 169,
        "4984": 3,
        "4985": 184,
        "4986": 99,
        "4987": 185,
        "4988": 11,
        "4989": 20,
        "4990": 123,
        "4991": 38,
        "4992": 58,
        "4993": 0,
        "4994": 74,
        "4995": 95,
        "4996": 88,
        "4997": 103,
        "4998": 230,
        "4999": 205,
        "5000": 136,
        "5001": 117,
        "5002": 6,
        "5003": 112,
        "5004": 205,
        "5005": 211,
        "5006": 190,
        "5007": 54,
        "5008": 217,
        "5009": 27,
        "5010": 113,
        "5011": 232,
        "5012": 56,
        "5013": 4,
        "5014": 239,
        "5015": 69,
        "5016": 46,
        "5017": 20,
        "5018": 146,
        "5019": 31,
        "5020": 16,
        "5021": 224,
        "5022": 77,
        "5023": 13,
        "5024": 152,
        "5025": 210,
        "5026": 39,
        "5027": 86,
        "5028": 195,
        "5029": 6,
        "5030": 249,
        "5031": 19,
        "5032": 113,
        "5033": 222,
        "5034": 137,
        "5035": 101,
        "5036": 161,
        "5037": 76,
        "5038": 246,
        "5039": 12,
        "5040": 244,
        "5041": 144,
        "5042": 85,
        "5043": 24,
        "5044": 83,
        "5045": 137,
        "5046": 179,
        "5047": 36,
        "5048": 205,
        "5049": 179,
        "5050": 169,
        "5051": 109,
        "5052": 22,
        "5053": 30,
        "5054": 127,
        "5055": 193,
        "5056": 202,
        "5057": 145,
        "5058": 176,
        "5059": 116,
        "5060": 229,
        "5061": 231,
        "5062": 224,
        "5063": 154,
        "5064": 225,
        "5065": 206,
        "5066": 66,
        "5067": 245,
        "5068": 10,
        "5069": 7,
        "5070": 33,
        "5071": 50,
        "5072": 250,
        "5073": 56,
        "5074": 73,
        "5075": 222,
        "5076": 1,
        "5077": 243,
        "5078": 254,
        "5079": 236,
        "5080": 43,
        "5081": 236,
        "5082": 125,
        "5083": 250,
        "5084": 78,
        "5085": 20,
        "5086": 183,
        "5087": 26,
        "5088": 25,
        "5089": 222,
        "5090": 152,
        "5091": 158,
        "5092": 68,
        "5093": 230,
        "5094": 103,
        "5095": 239,
        "5096": 77,
        "5097": 136,
        "5098": 136,
        "5099": 248,
        "5100": 165,
        "5101": 228,
        "5102": 64,
        "5103": 131,
        "5104": 240,
        "5105": 226,
        "5106": 46,
        "5107": 11,
        "5108": 219,
        "5109": 170,
        "5110": 31,
        "5111": 37,
        "5112": 57,
        "5113": 224,
        "5114": 25,
        "5115": 136,
        "5116": 61,
        "5117": 58,
        "5118": 230,
        "5119": 164,
        "5120": 47,
        "5121": 42,
        "5122": 34,
        "5123": 73,
        "5124": 213,
        "5125": 219,
        "5126": 95,
        "5127": 211,
        "5128": 18,
        "5129": 214,
        "5130": 207,
        "5131": 134,
        "5132": 7,
        "5133": 0,
        "5134": 3,
        "5135": 74,
        "5136": 123,
        "5137": 10,
        "5138": 116,
        "5139": 213,
        "5140": 88,
        "5141": 85,
        "5142": 249,
        "5143": 109,
        "5144": 234,
        "5145": 82,
        "5146": 31,
        "5147": 113,
        "5148": 13,
        "5149": 9,
        "5150": 161,
        "5151": 155,
        "5152": 122,
        "5153": 221,
        "5154": 162,
        "5155": 117,
        "5156": 173,
        "5157": 122,
        "5158": 11,
        "5159": 30,
        "5160": 242,
        "5161": 30,
        "5162": 45,
        "5163": 139,
        "5164": 64,
        "5165": 51,
        "5166": 244,
        "5167": 121,
        "5168": 151,
        "5169": 5,
        "5170": 182,
        "5171": 124,
        "5172": 179,
        "5173": 231,
        "5174": 30,
        "5175": 238,
        "5176": 68,
        "5177": 208,
        "5178": 239,
        "5179": 74,
        "5180": 219,
        "5181": 0,
        "5182": 112,
        "5183": 189,
        "5184": 153,
        "5185": 65,
        "5186": 196,
        "5187": 250,
        "5188": 233,
        "5189": 83,
        "5190": 227,
        "5191": 237,
        "5192": 255,
        "5193": 147,
        "5194": 6,
        "5195": 10,
        "5196": 234,
        "5197": 130,
        "5198": 184,
        "5199": 215,
        "5200": 196,
        "5201": 250,
        "5202": 40,
        "5203": 247,
        "5204": 12,
        "5205": 192,
        "5206": 81,
        "5207": 186,
        "5208": 168,
        "5209": 235,
        "5210": 169,
        "5211": 215,
        "5212": 215,
        "5213": 213,
        "5214": 64,
        "5215": 33,
        "5216": 229,
        "5217": 84,
        "5218": 84,
        "5219": 94,
        "5220": 115,
        "5221": 151,
        "5222": 238,
        "5223": 48,
        "5224": 82,
        "5225": 187,
        "5226": 218,
        "5227": 56,
        "5228": 244,
        "5229": 48,
        "5230": 81,
        "5231": 136,
        "5232": 73,
        "5233": 205,
        "5234": 108,
        "5235": 134,
        "5236": 116,
        "5237": 157,
        "5238": 85,
        "5239": 213,
        "5240": 236,
        "5241": 224,
        "5242": 80,
        "5243": 193,
        "5244": 132,
        "5245": 162,
        "5246": 53,
        "5247": 249,
        "5248": 39,
        "5249": 231,
        "5250": 153,
        "5251": 199,
        "5252": 236,
        "5253": 92,
        "5254": 127,
        "5255": 89,
        "5256": 249,
        "5257": 250,
        "5258": 101,
        "5259": 0,
        "5260": 253,
        "5261": 96,
        "5262": 224,
        "5263": 226,
        "5264": 5,
        "5265": 203,
        "5266": 129,
        "5267": 236,
        "5268": 137,
        "5269": 24,
        "5270": 45,
        "5271": 111,
        "5272": 94,
        "5273": 151,
        "5274": 71,
        "5275": 191,
        "5276": 29,
        "5277": 141,
        "5278": 28,
        "5279": 1,
        "5280": 143,
        "5281": 245,
        "5282": 72,
        "5283": 0,
        "5284": 48,
        "5285": 0,
        "5286": 224,
        "5287": 169,
        "5288": 227,
        "5289": 135,
        "5290": 253,
        "5291": 127,
        "5292": 52,
        "5293": 3,
        "5294": 11,
        "5295": 250,
        "5296": 196,
        "5297": 88,
        "5298": 200,
        "5299": 139,
        "5300": 226,
        "5301": 144,
        "5302": 146,
        "5303": 68,
        "5304": 92,
        "5305": 0,
        "5306": 57,
        "5307": 89,
        "5308": 165,
        "5309": 40,
        "5310": 163,
        "5311": 111,
        "5312": 105,
        "5313": 178,
        "5314": 140,
        "5315": 167,
        "5316": 247,
        "5317": 18,
        "5318": 83,
        "5319": 143,
        "5320": 243,
        "5321": 62,
        "5322": 118,
        "5323": 49,
        "5324": 7,
        "5325": 144,
        "5326": 45,
        "5327": 183,
        "5328": 197,
        "5329": 52,
        "5330": 85,
        "5331": 24,
        "5332": 39,
        "5333": 149,
        "5334": 112,
        "5335": 174,
        "5336": 59,
        "5337": 228,
        "5338": 153,
        "5339": 6,
        "5340": 81,
        "5341": 115,
        "5342": 162,
        "5343": 180,
        "5344": 160,
        "5345": 90,
        "5346": 163,
        "5347": 83,
        "5348": 152,
        "5349": 255,
        "5350": 129,
        "5351": 201,
        "5352": 165,
        "5353": 238,
        "5354": 236,
        "5355": 85,
        "5356": 199,
        "5357": 100,
        "5358": 39,
        "5359": 223,
        "5360": 12,
        "5361": 105,
        "5362": 3,
        "5363": 254,
        "5364": 149,
        "5365": 141,
        "5366": 224,
        "5367": 2,
        "5368": 230,
        "5369": 123,
        "5370": 140,
        "5371": 94,
        "5372": 9,
        "5373": 79,
        "5374": 2,
        "5375": 115,
        "5376": 60,
        "5377": 40,
        "5378": 245,
        "5379": 148,
        "5380": 42,
        "5381": 80,
        "5382": 67,
        "5383": 7,
        "5384": 136,
        "5385": 151,
        "5386": 67,
        "5387": 204,
        "5388": 38,
        "5389": 135,
        "5390": 145,
        "5391": 28,
        "5392": 197,
        "5393": 244,
        "5394": 43,
        "5395": 54,
        "5396": 108,
        "5397": 26,
        "5398": 126,
        "5399": 141,
        "5400": 33,
        "5401": 92,
        "5402": 129,
        "5403": 10,
        "5404": 87,
        "5405": 153,
        "5406": 93,
        "5407": 15,
        "5408": 152,
        "5409": 205,
        "5410": 91,
        "5411": 246,
        "5412": 196,
        "5413": 208,
        "5414": 194,
        "5415": 211,
        "5416": 241,
        "5417": 16,
        "5418": 136,
        "5419": 121,
        "5420": 233,
        "5421": 208,
        "5422": 153,
        "5423": 171,
        "5424": 144,
        "5425": 242,
        "5426": 42,
        "5427": 145,
        "5428": 66,
        "5429": 31,
        "5430": 241,
        "5431": 216,
        "5432": 193,
        "5433": 206,
        "5434": 106,
        "5435": 123,
        "5436": 132,
        "5437": 72,
        "5438": 6,
        "5439": 156,
        "5440": 64,
        "5441": 226,
        "5442": 31,
        "5443": 139,
        "5444": 18,
        "5445": 223,
        "5446": 202,
        "5447": 179,
        "5448": 78,
        "5449": 237,
        "5450": 179,
        "5451": 38,
        "5452": 42,
        "5453": 219,
        "5454": 203,
        "5455": 70,
        "5456": 205,
        "5457": 168,
        "5458": 56,
        "5459": 104,
        "5460": 235,
        "5461": 101,
        "5462": 3,
        "5463": 172,
        "5464": 157,
        "5465": 66,
        "5466": 39,
        "5467": 40,
        "5468": 40,
        "5469": 105,
        "5470": 205,
        "5471": 43,
        "5472": 55,
        "5473": 119,
        "5474": 44,
        "5475": 158,
        "5476": 173,
        "5477": 92,
        "5478": 240,
        "5479": 221,
        "5480": 237,
        "5481": 230,
        "5482": 58,
        "5483": 105,
        "5484": 108,
        "5485": 19,
        "5486": 65,
        "5487": 110,
        "5488": 176,
        "5489": 166,
        "5490": 149,
        "5491": 55,
        "5492": 247,
        "5493": 91,
        "5494": 14,
        "5495": 24,
        "5496": 190,
        "5497": 117,
        "5498": 166,
        "5499": 76,
        "5500": 1,
        "5501": 52,
        "5502": 145,
        "5503": 8,
        "5504": 191,
        "5505": 185,
        "5506": 214,
        "5507": 135,
        "5508": 109,
        "5509": 60,
        "5510": 130,
        "5511": 214,
        "5512": 78,
        "5513": 123,
        "5514": 108,
        "5515": 230,
        "5516": 202,
        "5517": 224,
        "5518": 143,
        "5519": 170,
        "5520": 27,
        "5521": 123,
        "5522": 81,
        "5523": 169,
        "5524": 26,
        "5525": 52,
        "5526": 170,
        "5527": 227,
        "5528": 203,
        "5529": 125,
        "5530": 250,
        "5531": 99,
        "5532": 20,
        "5533": 208,
        "5534": 11,
        "5535": 171,
        "5536": 207,
        "5537": 4,
        "5538": 21,
        "5539": 93,
        "5540": 139,
        "5541": 156,
        "5542": 13,
        "5543": 6,
        "5544": 30,
        "5545": 19,
        "5546": 242,
        "5547": 217,
        "5548": 110,
        "5549": 93,
        "5550": 105,
        "5551": 120,
        "5552": 219,
        "5553": 246,
        "5554": 49,
        "5555": 160,
        "5556": 229,
        "5557": 172,
        "5558": 244,
        "5559": 251,
        "5560": 183,
        "5561": 12,
        "5562": 77,
        "5563": 104,
        "5564": 39,
        "5565": 167,
        "5566": 159,
        "5567": 41,
        "5568": 253,
        "5569": 171,
        "5570": 124,
        "5571": 185,
        "5572": 227,
        "5573": 84,
        "5574": 215,
        "5575": 204,
        "5576": 234,
        "5577": 11,
        "5578": 57,
        "5579": 36,
        "5580": 85,
        "5581": 14,
        "5582": 81,
        "5583": 141,
        "5584": 56,
        "5585": 95,
        "5586": 51,
        "5587": 79,
        "5588": 167,
        "5589": 200,
        "5590": 146,
        "5591": 76,
        "5592": 161,
        "5593": 157,
        "5594": 124,
        "5595": 13,
        "5596": 13,
        "5597": 218,
        "5598": 177,
        "5599": 43,
        "5600": 227,
        "5601": 195,
        "5602": 30,
        "5603": 27,
        "5604": 125,
        "5605": 67,
        "5606": 175,
        "5607": 73,
        "5608": 193,
        "5609": 72,
        "5610": 209,
        "5611": 237,
        "5612": 12,
        "5613": 74,
        "5614": 78,
        "5615": 250,
        "5616": 212,
        "5617": 210,
        "5618": 117,
        "5619": 44,
        "5620": 95,
        "5621": 96,
        "5622": 243,
        "5623": 214,
        "5624": 228,
        "5625": 152,
        "5626": 148,
        "5627": 248,
        "5628": 110,
        "5629": 157,
        "5630": 152,
        "5631": 111,
        "5632": 132,
        "5633": 220,
        "5634": 213,
        "5635": 51,
        "5636": 79,
        "5637": 87,
        "5638": 14,
        "5639": 102,
        "5640": 227,
        "5641": 187,
        "5642": 168,
        "5643": 239,
        "5644": 154,
        "5645": 16,
        "5646": 5,
        "5647": 51,
        "5648": 196,
        "5649": 100,
        "5650": 159,
        "5651": 123,
        "5652": 204,
        "5653": 129,
        "5654": 29,
        "5655": 110,
        "5656": 207,
        "5657": 16,
        "5658": 145,
        "5659": 88,
        "5660": 21,
        "5661": 40,
        "5662": 114,
        "5663": 225,
        "5664": 221,
        "5665": 68,
        "5666": 106,
        "5667": 116,
        "5668": 47,
        "5669": 235,
        "5670": 108,
        "5671": 93,
        "5672": 54,
        "5673": 227,
        "5674": 118,
        "5675": 101,
        "5676": 55,
        "5677": 25,
        "5678": 122,
        "5679": 110,
        "5680": 52,
        "5681": 250,
        "5682": 63,
        "5683": 200,
        "5684": 218,
        "5685": 201,
        "5686": 187,
        "5687": 9,
        "5688": 4,
        "5689": 186,
        "5690": 23,
        "5691": 197,
        "5692": 213,
        "5693": 209,
        "5694": 91,
        "5695": 128,
        "5696": 178,
        "5697": 162,
        "5698": 134,
        "5699": 246,
        "5700": 135,
        "5701": 108,
        "5702": 211,
        "5703": 145,
        "5704": 7,
        "5705": 215,
        "5706": 255,
        "5707": 82,
        "5708": 118,
        "5709": 232,
        "5710": 42,
        "5711": 165,
        "5712": 144,
        "5713": 48,
        "5714": 229,
        "5715": 3,
        "5716": 3,
        "5717": 165,
        "5718": 49,
        "5719": 128,
        "5720": 21,
        "5721": 70,
        "5722": 100,
        "5723": 54,
        "5724": 237,
        "5725": 225,
        "5726": 151,
        "5727": 17,
        "5728": 154,
        "5729": 242,
        "5730": 49,
        "5731": 24,
        "5732": 204,
        "5733": 240,
        "5734": 77,
        "5735": 16,
        "5736": 48,
        "5737": 198,
        "5738": 234,
        "5739": 240,
        "5740": 19,
        "5741": 193,
        "5742": 204,
        "5743": 90,
        "5744": 54,
        "5745": 176,
        "5746": 191,
        "5747": 212,
        "5748": 68,
        "5749": 124,
        "5750": 66,
        "5751": 44,
        "5752": 47,
        "5753": 114,
        "5754": 245,
        "5755": 185,
        "5756": 10,
        "5757": 135,
        "5758": 188,
        "5759": 83,
        "5760": 137,
        "5761": 145,
        "5762": 6,
        "5763": 177,
        "5764": 17,
        "5765": 71,
        "5766": 27,
        "5767": 241,
        "5768": 67,
        "5769": 238,
        "5770": 196,
        "5771": 172,
        "5772": 132,
        "5773": 69,
        "5774": 184,
        "5775": 151,
        "5776": 229,
        "5777": 77,
        "5778": 3,
        "5779": 130,
        "5780": 237,
        "5781": 123,
        "5782": 86,
        "5783": 108,
        "5784": 39,
        "5785": 176,
        "5786": 114,
        "5787": 33,
        "5788": 208,
        "5789": 234,
        "5790": 202,
        "5791": 225,
        "5792": 141,
        "5793": 226,
        "5794": 245,
        "5795": 187,
        "5796": 219,
        "5797": 159,
        "5798": 228,
        "5799": 244,
        "5800": 241,
        "5801": 133,
        "5802": 122,
        "5803": 10,
        "5804": 174,
        "5805": 235,
        "5806": 135,
        "5807": 88,
        "5808": 50,
        "5809": 5,
        "5810": 38,
        "5811": 63,
        "5812": 79,
        "5813": 91,
        "5814": 248,
        "5815": 176,
        "5816": 170,
        "5817": 91,
        "5818": 156,
        "5819": 169,
        "5820": 30,
        "5821": 16,
        "5822": 24,
        "5823": 255,
        "5824": 86,
        "5825": 250,
        "5826": 152,
        "5827": 75,
        "5828": 255,
        "5829": 133,
        "5830": 26,
        "5831": 238,
        "5832": 1,
        "5833": 185,
        "5834": 244,
        "5835": 231,
        "5836": 50,
        "5837": 43,
        "5838": 157,
        "5839": 63,
        "5840": 240,
        "5841": 42,
        "5842": 195,
        "5843": 58,
        "5844": 48,
        "5845": 113,
        "5846": 129,
        "5847": 97,
        "5848": 253,
        "5849": 80,
        "5850": 210,
        "5851": 0,
        "5852": 25,
        "5853": 236,
        "5854": 102,
        "5855": 209,
        "5856": 167,
        "5857": 23,
        "5858": 250,
        "5859": 171,
        "5860": 122,
        "5861": 88,
        "5862": 7,
        "5863": 221,
        "5864": 247,
        "5865": 127,
        "5866": 235,
        "5867": 102,
        "5868": 242,
        "5869": 238,
        "5870": 83,
        "5871": 248,
        "5872": 183,
        "5873": 30,
        "5874": 160,
        "5875": 95,
        "5876": 173,
        "5877": 204,
        "5878": 210,
        "5879": 60,
        "5880": 196,
        "5881": 187,
        "5882": 134,
        "5883": 16,
        "5884": 33,
        "5885": 106,
        "5886": 141,
        "5887": 130,
        "5888": 244,
        "5889": 9,
        "5890": 154,
        "5891": 32,
        "5892": 20,
        "5893": 160,
        "5894": 84,
        "5895": 100,
        "5896": 26,
        "5897": 82,
        "5898": 128,
        "5899": 200,
        "5900": 118,
        "5901": 56,
        "5902": 255,
        "5903": 157,
        "5904": 125,
        "5905": 55,
        "5906": 125,
        "5907": 16,
        "5908": 173,
        "5909": 134,
        "5910": 242,
        "5911": 158,
        "5912": 52,
        "5913": 71,
        "5914": 202,
        "5915": 205,
        "5916": 197,
        "5917": 167,
        "5918": 170,
        "5919": 202,
        "5920": 100,
        "5921": 205,
        "5922": 77,
        "5923": 247,
        "5924": 234,
        "5925": 28,
        "5926": 86,
        "5927": 102,
        "5928": 106,
        "5929": 222,
        "5930": 118,
        "5931": 179,
        "5932": 124,
        "5933": 213,
        "5934": 166,
        "5935": 219,
        "5936": 167,
        "5937": 161,
        "5938": 70,
        "5939": 131,
        "5940": 24,
        "5941": 164,
        "5942": 251,
        "5943": 198,
        "5944": 251,
        "5945": 116,
        "5946": 47,
        "5947": 41,
        "5948": 105,
        "5949": 197,
        "5950": 153,
        "5951": 217,
        "5952": 181,
        "5953": 173,
        "5954": 32,
        "5955": 121,
        "5956": 67,
        "5957": 41,
        "5958": 103,
        "5959": 113,
        "5960": 22,
        "5961": 254,
        "5962": 19,
        "5963": 191,
        "5964": 0,
        "5965": 138,
        "5966": 236,
        "5967": 85,
        "5968": 91,
        "5969": 54,
        "5970": 33,
        "5971": 30,
        "5972": 127,
        "5973": 12,
        "5974": 237,
        "5975": 43,
        "5976": 175,
        "5977": 129,
        "5978": 249,
        "5979": 131,
        "5980": 40,
        "5981": 207,
        "5982": 195,
        "5983": 97,
        "5984": 159,
        "5985": 216,
        "5986": 198,
        "5987": 74,
        "5988": 110,
        "5989": 24,
        "5990": 6,
        "5991": 223,
        "5992": 22,
        "5993": 220,
        "5994": 197,
        "5995": 43,
        "5996": 217,
        "5997": 44,
        "5998": 207,
        "5999": 105,
        "6000": 109,
        "6001": 74,
        "6002": 134,
        "6003": 147,
        "6004": 219,
        "6005": 144,
        "6006": 101,
        "6007": 16,
        "6008": 24,
        "6009": 135,
        "6010": 11,
        "6011": 4,
        "6012": 248,
        "6013": 32,
        "6014": 81,
        "6015": 235,
        "6016": 64,
        "6017": 115,
        "6018": 79,
        "6019": 186,
        "6020": 49,
        "6021": 72,
        "6022": 180,
        "6023": 161,
        "6024": 205,
        "6025": 178,
        "6026": 20,
        "6027": 45,
        "6028": 182,
        "6029": 217,
        "6030": 50,
        "6031": 52,
        "6032": 149,
        "6033": 174,
        "6034": 171,
        "6035": 231,
        "6036": 114,
        "6037": 243,
        "6038": 134,
        "6039": 203,
        "6040": 74,
        "6041": 198,
        "6042": 59,
        "6043": 75,
        "6044": 229,
        "6045": 149,
        "6046": 79,
        "6047": 44,
        "6048": 46,
        "6049": 91,
        "6050": 92,
        "6051": 1,
        "6052": 151,
        "6053": 20,
        "6054": 27,
        "6055": 168,
        "6056": 171,
        "6057": 122,
        "6058": 18,
        "6059": 107,
        "6060": 71,
        "6061": 228,
        "6062": 222,
        "6063": 168,
        "6064": 193,
        "6065": 2,
        "6066": 59,
        "6067": 203,
        "6068": 47,
        "6069": 95,
        "6070": 99,
        "6071": 236,
        "6072": 159,
        "6073": 111,
        "6074": 244,
        "6075": 8,
        "6076": 220,
        "6077": 180,
        "6078": 21,
        "6079": 27,
        "6080": 170,
        "6081": 198,
        "6082": 155,
        "6083": 53,
        "6084": 227,
        "6085": 236,
        "6086": 213,
        "6087": 219,
        "6088": 77,
        "6089": 127,
        "6090": 147,
        "6091": 192,
        "6092": 210,
        "6093": 19,
        "6094": 156,
        "6095": 44,
        "6096": 160,
        "6097": 64,
        "6098": 139,
        "6099": 190,
        "6100": 151,
        "6101": 141,
        "6102": 98,
        "6103": 53,
        "6104": 29,
        "6105": 89,
        "6106": 63,
        "6107": 8,
        "6108": 22,
        "6109": 147,
        "6110": 172,
        "6111": 208,
        "6112": 4,
        "6113": 235,
        "6114": 148,
        "6115": 251,
        "6116": 1,
        "6117": 97,
        "6118": 92,
        "6119": 80,
        "6120": 92,
        "6121": 222,
        "6122": 211,
        "6123": 66,
        "6124": 241,
        "6125": 65,
        "6126": 99,
        "6127": 248,
        "6128": 76,
        "6129": 194,
        "6130": 33,
        "6131": 244,
        "6132": 215,
        "6133": 36,
        "6134": 200,
        "6135": 183,
        "6136": 85,
        "6137": 178,
        "6138": 62,
        "6139": 65,
        "6140": 21,
        "6141": 62,
        "6142": 6,
        "6143": 30,
        "6144": 56,
        "6145": 84,
        "6146": 19,
        "6147": 131,
        "6148": 82,
        "6149": 244,
        "6150": 182,
        "6151": 53,
        "6152": 167,
        "6153": 66,
        "6154": 10,
        "6155": 238,
        "6156": 125,
        "6157": 201,
        "6158": 200,
        "6159": 16,
        "6160": 137,
        "6161": 241,
        "6162": 159,
        "6163": 60,
        "6164": 57,
        "6165": 169,
        "6166": 94,
        "6167": 141,
        "6168": 208,
        "6169": 80,
        "6170": 175,
        "6171": 105,
        "6172": 218,
        "6173": 82,
        "6174": 100,
        "6175": 46,
        "6176": 163,
        "6177": 135,
        "6178": 12,
        "6179": 20,
        "6180": 199,
        "6181": 128,
        "6182": 162,
        "6183": 106,
        "6184": 169,
        "6185": 192,
        "6186": 36,
        "6187": 83,
        "6188": 240,
        "6189": 244,
        "6190": 205,
        "6191": 175,
        "6192": 90,
        "6193": 5,
        "6194": 191,
        "6195": 136,
        "6196": 251,
        "6197": 176,
        "6198": 30,
        "6199": 172,
        "6200": 164,
        "6201": 80,
        "6202": 229,
        "6203": 223,
        "6204": 24,
        "6205": 26,
        "6206": 14,
        "6207": 48,
        "6208": 243,
        "6209": 110,
        "6210": 244,
        "6211": 90,
        "6212": 123,
        "6213": 187,
        "6214": 83,
        "6215": 248,
        "6216": 251,
        "6217": 88,
        "6218": 40,
        "6219": 231,
        "6220": 116,
        "6221": 68,
        "6222": 215,
        "6223": 213,
        "6224": 83,
        "6225": 76,
        "6226": 118,
        "6227": 1,
        "6228": 121,
        "6229": 61,
        "6230": 220,
        "6231": 193,
        "6232": 115,
        "6233": 197,
        "6234": 235,
        "6235": 102,
        "6236": 199,
        "6237": 227,
        "6238": 160,
        "6239": 229,
        "6240": 250,
        "6241": 20,
        "6242": 117,
        "6243": 132,
        "6244": 23,
        "6245": 8,
        "6246": 143,
        "6247": 101,
        "6248": 6,
        "6249": 51,
        "6250": 233,
        "6251": 0,
        "6252": 60,
        "6253": 235,
        "6254": 233,
        "6255": 97,
        "6256": 164,
        "6257": 137,
        "6258": 8,
        "6259": 169,
        "6260": 168,
        "6261": 144,
        "6262": 177,
        "6263": 118,
        "6264": 215,
        "6265": 89,
        "6266": 175,
        "6267": 215,
        "6268": 201,
        "6269": 207,
        "6270": 245,
        "6271": 225,
        "6272": 43,
        "6273": 8,
        "6274": 191,
        "6275": 4,
        "6276": 66,
        "6277": 7,
        "6278": 98,
        "6279": 197,
        "6280": 50,
        "6281": 0,
        "6282": 253,
        "6283": 91,
        "6284": 41,
        "6285": 146,
        "6286": 117,
        "6287": 167,
        "6288": 21,
        "6289": 250,
        "6290": 205,
        "6291": 42,
        "6292": 67,
        "6293": 104,
        "6294": 234,
        "6295": 47,
        "6296": 117,
        "6297": 190,
        "6298": 166,
        "6299": 72,
        "6300": 199,
        "6301": 246,
        "6302": 148,
        "6303": 55,
        "6304": 210,
        "6305": 101,
        "6306": 174,
        "6307": 115,
        "6308": 76,
        "6309": 8,
        "6310": 129,
        "6311": 137,
        "6312": 151,
        "6313": 59,
        "6314": 251,
        "6315": 190,
        "6316": 68,
        "6317": 238,
        "6318": 86,
        "6319": 2,
        "6320": 9,
        "6321": 237,
        "6322": 2,
        "6323": 117,
        "6324": 139,
        "6325": 176,
        "6326": 201,
        "6327": 0,
        "6328": 136,
        "6329": 71,
        "6330": 104,
        "6331": 179,
        "6332": 157,
        "6333": 119,
        "6334": 154,
        "6335": 149,
        "6336": 121,
        "6337": 207,
        "6338": 45,
        "6339": 147,
        "6340": 20,
        "6341": 67,
        "6342": 93,
        "6343": 160,
        "6344": 0,
        "6345": 226,
        "6346": 130,
        "6347": 230,
        "6348": 62,
        "6349": 219,
        "6350": 31,
        "6351": 46,
        "6352": 139,
        "6353": 128,
        "6354": 139,
        "6355": 79,
        "6356": 122,
        "6357": 95,
        "6358": 132,
        "6359": 113,
        "6360": 194,
        "6361": 123,
        "6362": 227,
        "6363": 194,
        "6364": 241,
        "6365": 90,
        "6366": 4,
        "6367": 162,
        "6368": 248,
        "6369": 120,
        "6370": 55,
        "6371": 7,
        "6372": 79,
        "6373": 182,
        "6374": 110,
        "6375": 117,
        "6376": 137,
        "6377": 157,
        "6378": 188,
        "6379": 242,
        "6380": 86,
        "6381": 226,
        "6382": 229,
        "6383": 93,
        "6384": 186,
        "6385": 138,
        "6386": 21,
        "6387": 136,
        "6388": 245,
        "6389": 156,
        "6390": 243,
        "6391": 235,
        "6392": 135,
        "6393": 124,
        "6394": 60,
        "6395": 75,
        "6396": 80,
        "6397": 232,
        "6398": 71,
        "6399": 57,
        "6400": 94,
        "6401": 159,
        "6402": 249,
        "6403": 219,
        "6404": 133,
        "6405": 244,
        "6406": 30,
        "6407": 155,
        "6408": 81,
        "6409": 73,
        "6410": 165,
        "6411": 124,
        "6412": 54,
        "6413": 110,
        "6414": 233,
        "6415": 183,
        "6416": 98,
        "6417": 16,
        "6418": 171,
        "6419": 225,
        "6420": 133,
        "6421": 59,
        "6422": 242,
        "6423": 195,
        "6424": 135,
        "6425": 210,
        "6426": 166,
        "6427": 172,
        "6428": 200,
        "6429": 241,
        "6430": 46,
        "6431": 254,
        "6432": 183,
        "6433": 104,
        "6434": 36,
        "6435": 198,
        "6436": 107,
        "6437": 158,
        "6438": 160,
        "6439": 128,
        "6440": 201,
        "6441": 117,
        "6442": 9,
        "6443": 162,
        "6444": 247,
        "6445": 68,
        "6446": 131,
        "6447": 90,
        "6448": 55,
        "6449": 190,
        "6450": 211,
        "6451": 50,
        "6452": 51,
        "6453": 15,
        "6454": 105,
        "6455": 7,
        "6456": 134,
        "6457": 123,
        "6458": 217,
        "6459": 29,
        "6460": 101,
        "6461": 161,
        "6462": 106,
        "6463": 232,
        "6464": 234,
        "6465": 253,
        "6466": 173,
        "6467": 116,
        "6468": 122,
        "6469": 253,
        "6470": 104,
        "6471": 230,
        "6472": 166,
        "6473": 78,
        "6474": 250,
        "6475": 135,
        "6476": 249,
        "6477": 23,
        "6478": 215,
        "6479": 136,
        "6480": 15,
        "6481": 137,
        "6482": 204,
        "6483": 88,
        "6484": 187,
        "6485": 142,
        "6486": 143,
        "6487": 93,
        "6488": 29,
        "6489": 13,
        "6490": 37,
        "6491": 117,
        "6492": 132,
        "6493": 28,
        "6494": 13,
        "6495": 177,
        "6496": 136,
        "6497": 252,
        "6498": 137,
        "6499": 23,
        "6500": 13,
        "6501": 19,
        "6502": 223,
        "6503": 174,
        "6504": 135,
        "6505": 46,
        "6506": 61,
        "6507": 145,
        "6508": 185,
        "6509": 49,
        "6510": 78,
        "6511": 25,
        "6512": 215,
        "6513": 90,
        "6514": 25,
        "6515": 196,
        "6516": 208,
        "6517": 195,
        "6518": 111,
        "6519": 137,
        "6520": 181,
        "6521": 29,
        "6522": 97,
        "6523": 30,
        "6524": 227,
        "6525": 136,
        "6526": 93,
        "6527": 135,
        "6528": 248,
        "6529": 55,
        "6530": 72,
        "6531": 113,
        "6532": 161,
        "6533": 231,
        "6534": 4,
        "6535": 2,
        "6536": 90,
        "6537": 153,
        "6538": 254,
        "6539": 253,
        "6540": 61,
        "6541": 202,
        "6542": 218,
        "6543": 9,
        "6544": 96,
        "6545": 36,
        "6546": 229,
        "6547": 66,
        "6548": 226,
        "6549": 120,
        "6550": 190,
        "6551": 216,
        "6552": 148,
        "6553": 140,
        "6554": 178,
        "6555": 13,
        "6556": 230,
        "6557": 144,
        "6558": 176,
        "6559": 240,
        "6560": 83,
        "6561": 249,
        "6562": 216,
        "6563": 183,
        "6564": 239,
        "6565": 91,
        "6566": 217,
        "6567": 75,
        "6568": 125,
        "6569": 27,
        "6570": 179,
        "6571": 178,
        "6572": 12,
        "6573": 197,
        "6574": 212,
        "6575": 51,
        "6576": 131,
        "6577": 232,
        "6578": 150,
        "6579": 20,
        "6580": 200,
        "6581": 61,
        "6582": 212,
        "6583": 216,
        "6584": 105,
        "6585": 70,
        "6586": 176,
        "6587": 237,
        "6588": 141,
        "6589": 247,
        "6590": 26,
        "6591": 241,
        "6592": 10,
        "6593": 31,
        "6594": 37,
        "6595": 186,
        "6596": 197,
        "6597": 98,
        "6598": 84,
        "6599": 142,
        "6600": 242,
        "6601": 127,
        "6602": 210,
        "6603": 126,
        "6604": 116,
        "6605": 177,
        "6606": 126,
        "6607": 65,
        "6608": 102,
        "6609": 148,
        "6610": 63,
        "6611": 155,
        "6612": 86,
        "6613": 31,
        "6614": 101,
        "6615": 174,
        "6616": 126,
        "6617": 57,
        "6618": 88,
        "6619": 27,
        "6620": 198,
        "6621": 66,
        "6622": 255,
        "6623": 185,
        "6624": 87,
        "6625": 134,
        "6626": 48,
        "6627": 9,
        "6628": 205,
        "6629": 125,
        "6630": 173,
        "6631": 185,
        "6632": 191,
        "6633": 150,
        "6634": 132,
        "6635": 149,
        "6636": 232,
        "6637": 121,
        "6638": 94,
        "6639": 81,
        "6640": 80,
        "6641": 215,
        "6642": 170,
        "6643": 171,
        "6644": 70,
        "6645": 90,
        "6646": 10,
        "6647": 34,
        "6648": 18,
        "6649": 62,
        "6650": 58,
        "6651": 102,
        "6652": 123,
        "6653": 180,
        "6654": 48,
        "6655": 14,
        "6656": 128,
        "6657": 57,
        "6658": 52,
        "6659": 215,
        "6660": 64,
        "6661": 156,
        "6662": 218,
        "6663": 66,
        "6664": 58,
        "6665": 136,
        "6666": 184,
        "6667": 71,
        "6668": 243,
        "6669": 114,
        "6670": 59,
        "6671": 73,
        "6672": 63,
        "6673": 22,
        "6674": 18,
        "6675": 233,
        "6676": 212,
        "6677": 229,
        "6678": 59,
        "6679": 0,
        "6680": 229,
        "6681": 109,
        "6682": 76,
        "6683": 225,
        "6684": 40,
        "6685": 9,
        "6686": 248,
        "6687": 79,
        "6688": 86,
        "6689": 134,
        "6690": 208,
        "6691": 230,
        "6692": 51,
        "6693": 171,
        "6694": 149,
        "6695": 207,
        "6696": 232,
        "6697": 220,
        "6698": 176,
        "6699": 202,
        "6700": 178,
        "6701": 38,
        "6702": 6,
        "6703": 120,
        "6704": 45,
        "6705": 48,
        "6706": 43,
        "6707": 166,
        "6708": 223,
        "6709": 29,
        "6710": 223,
        "6711": 246,
        "6712": 11,
        "6713": 56,
        "6714": 231,
        "6715": 234,
        "6716": 37,
        "6717": 189,
        "6718": 196,
        "6719": 126,
        "6720": 247,
        "6721": 155,
        "6722": 95,
        "6723": 159,
        "6724": 255,
        "6725": 196,
        "6726": 158,
        "6727": 135,
        "6728": 229,
        "6729": 153,
        "6730": 130,
        "6731": 134,
        "6732": 253,
        "6733": 87,
        "6734": 134,
        "6735": 30,
        "6736": 5,
        "6737": 192,
        "6738": 94,
        "6739": 92,
        "6740": 124,
        "6741": 218,
        "6742": 149,
        "6743": 235,
        "6744": 149,
        "6745": 68,
        "6746": 250,
        "6747": 74,
        "6748": 35,
        "6749": 38,
        "6750": 184,
        "6751": 154,
        "6752": 13,
        "6753": 116,
        "6754": 6,
        "6755": 136,
        "6756": 204,
        "6757": 167,
        "6758": 103,
        "6759": 96,
        "6760": 102,
        "6761": 204,
        "6762": 41,
        "6763": 244,
        "6764": 36,
        "6765": 254,
        "6766": 150,
        "6767": 107,
        "6768": 50,
        "6769": 55,
        "6770": 109,
        "6771": 44,
        "6772": 27,
        "6773": 194,
        "6774": 9,
        "6775": 148,
        "6776": 109,
        "6777": 86,
        "6778": 166,
        "6779": 181,
        "6780": 24,
        "6781": 177,
        "6782": 71,
        "6783": 130,
        "6784": 183,
        "6785": 120,
        "6786": 91,
        "6787": 167,
        "6788": 102,
        "6789": 113,
        "6790": 197,
        "6791": 207,
        "6792": 149,
        "6793": 1,
        "6794": 195,
        "6795": 241,
        "6796": 69,
        "6797": 48,
        "6798": 126,
        "6799": 130,
        "6800": 28,
        "6801": 146,
        "6802": 142,
        "6803": 108,
        "6804": 68,
        "6805": 45,
        "6806": 223,
        "6807": 176,
        "6808": 109,
        "6809": 30,
        "6810": 220,
        "6811": 251,
        "6812": 27,
        "6813": 211,
        "6814": 248,
        "6815": 11,
        "6816": 160,
        "6817": 14,
        "6818": 205,
        "6819": 67,
        "6820": 118,
        "6821": 67,
        "6822": 22,
        "6823": 139,
        "6824": 128,
        "6825": 27,
        "6826": 175,
        "6827": 140,
        "6828": 17,
        "6829": 231,
        "6830": 39,
        "6831": 163,
        "6832": 246,
        "6833": 75,
        "6834": 155,
        "6835": 194,
        "6836": 4,
        "6837": 241,
        "6838": 241,
        "6839": 60,
        "6840": 65,
        "6841": 107,
        "6842": 126,
        "6843": 66,
        "6844": 162,
        "6845": 163,
        "6846": 141,
        "6847": 236,
        "6848": 102,
        "6849": 30,
        "6850": 202,
        "6851": 206,
        "6852": 178,
        "6853": 88,
        "6854": 67,
        "6855": 86,
        "6856": 34,
        "6857": 230,
        "6858": 119,
        "6859": 185,
        "6860": 63,
        "6861": 23,
        "6862": 69,
        "6863": 5,
        "6864": 248,
        "6865": 182,
        "6866": 194,
        "6867": 170,
        "6868": 70,
        "6869": 18,
        "6870": 204,
        "6871": 197,
        "6872": 201,
        "6873": 188,
        "6874": 112,
        "6875": 102,
        "6876": 180,
        "6877": 194,
        "6878": 67,
        "6879": 59,
        "6880": 180,
        "6881": 196,
        "6882": 189,
        "6883": 204,
        "6884": 253,
        "6885": 17,
        "6886": 156,
        "6887": 11,
        "6888": 175,
        "6889": 80,
        "6890": 146,
        "6891": 26,
        "6892": 225,
        "6893": 39,
        "6894": 243,
        "6895": 239,
        "6896": 1,
        "6897": 148,
        "6898": 237,
        "6899": 26,
        "6900": 15,
        "6901": 155,
        "6902": 202,
        "6903": 44,
        "6904": 5,
        "6905": 97,
        "6906": 173,
        "6907": 144,
        "6908": 2,
        "6909": 105,
        "6910": 221,
        "6911": 18,
        "6912": 219,
        "6913": 55,
        "6914": 166,
        "6915": 207,
        "6916": 39,
        "6917": 177,
        "6918": 198,
        "6919": 254,
        "6920": 109,
        "6921": 96,
        "6922": 45,
        "6923": 197,
        "6924": 238,
        "6925": 208,
        "6926": 68,
        "6927": 225,
        "6928": 107,
        "6929": 200,
        "6930": 47,
        "6931": 110,
        "6932": 252,
        "6933": 140,
        "6934": 160,
        "6935": 35,
        "6936": 91,
        "6937": 244,
        "6938": 199,
        "6939": 64,
        "6940": 78,
        "6941": 112,
        "6942": 134,
        "6943": 154,
        "6944": 1,
        "6945": 7,
        "6946": 96,
        "6947": 132,
        "6948": 123,
        "6949": 235,
        "6950": 96,
        "6951": 24,
        "6952": 2,
        "6953": 93,
        "6954": 90,
        "6955": 110,
        "6956": 243,
        "6957": 106,
        "6958": 123,
        "6959": 216,
        "6960": 74,
        "6961": 152,
        "6962": 57,
        "6963": 32,
        "6964": 117,
        "6965": 33,
        "6966": 32,
        "6967": 245,
        "6968": 254,
        "6969": 252,
        "6970": 46,
        "6971": 245,
        "6972": 197,
        "6973": 78,
        "6974": 231,
        "6975": 65,
        "6976": 44,
        "6977": 68,
        "6978": 252,
        "6979": 181,
        "6980": 102,
        "6981": 228,
        "6982": 104,
        "6983": 74,
        "6984": 216,
        "6985": 90,
        "6986": 125,
        "6987": 2,
        "6988": 75,
        "6989": 75,
        "6990": 14,
        "6991": 148,
        "6992": 245,
        "6993": 32,
        "6994": 78,
        "6995": 102,
        "6996": 231,
        "6997": 184,
        "6998": 32,
        "6999": 139,
        "7000": 60,
        "7001": 38,
        "7002": 199,
        "7003": 251,
        "7004": 98,
        "7005": 162,
        "7006": 142,
        "7007": 214,
        "7008": 28,
        "7009": 164,
        "7010": 168,
        "7011": 97,
        "7012": 92,
        "7013": 238,
        "7014": 231,
        "7015": 37,
        "7016": 255,
        "7017": 234,
        "7018": 162,
        "7019": 249,
        "7020": 30,
        "7021": 242,
        "7022": 136,
        "7023": 71,
        "7024": 60,
        "7025": 198,
        "7026": 13,
        "7027": 221,
        "7028": 9,
        "7029": 27,
        "7030": 24,
        "7031": 182,
        "7032": 139,
        "7033": 16,
        "7034": 218,
        "7035": 151,
        "7036": 184,
        "7037": 39,
        "7038": 95,
        "7039": 9,
        "7040": 111,
        "7041": 178,
        "7042": 112,
        "7043": 239,
        "7044": 252,
        "7045": 166,
        "7046": 112,
        "7047": 88,
        "7048": 48,
        "7049": 153,
        "7050": 236,
        "7051": 156,
        "7052": 86,
        "7053": 185,
        "7054": 56,
        "7055": 38,
        "7056": 252,
        "7057": 25,
        "7058": 168,
        "7059": 48,
        "7060": 33,
        "7061": 19,
        "7062": 231,
        "7063": 148,
        "7064": 226,
        "7065": 114,
        "7066": 217,
        "7067": 159,
        "7068": 102,
        "7069": 57,
        "7070": 54,
        "7071": 250,
        "7072": 0,
        "7073": 171,
        "7074": 166,
        "7075": 55,
        "7076": 32,
        "7077": 209,
        "7078": 160,
        "7079": 185,
        "7080": 72,
        "7081": 124,
        "7082": 227,
        "7083": 119,
        "7084": 244,
        "7085": 132,
        "7086": 146,
        "7087": 175,
        "7088": 220,
        "7089": 53,
        "7090": 198,
        "7091": 158,
        "7092": 81,
        "7093": 212,
        "7094": 158,
        "7095": 122,
        "7096": 191,
        "7097": 238,
        "7098": 231,
        "7099": 44,
        "7100": 140,
        "7101": 93,
        "7102": 202,
        "7103": 189,
        "7104": 36,
        "7105": 93,
        "7106": 227,
        "7107": 212,
        "7108": 62,
        "7109": 242,
        "7110": 90,
        "7111": 143,
        "7112": 58,
        "7113": 188,
        "7114": 224,
        "7115": 134,
        "7116": 128,
        "7117": 135,
        "7118": 195,
        "7119": 213,
        "7120": 30,
        "7121": 58,
        "7122": 5,
        "7123": 57,
        "7124": 159,
        "7125": 246,
        "7126": 183,
        "7127": 212,
        "7128": 140,
        "7129": 230,
        "7130": 210,
        "7131": 70,
        "7132": 40,
        "7133": 70,
        "7134": 206,
        "7135": 219,
        "7136": 39,
        "7137": 152,
        "7138": 45,
        "7139": 11,
        "7140": 96,
        "7141": 127,
        "7142": 159,
        "7143": 182,
        "7144": 139,
        "7145": 195,
        "7146": 74,
        "7147": 213,
        "7148": 41,
        "7149": 144,
        "7150": 104,
        "7151": 46,
        "7152": 32,
        "7153": 160,
        "7154": 61,
        "7155": 116,
        "7156": 162,
        "7157": 128,
        "7158": 14,
        "7159": 113,
        "7160": 179,
        "7161": 19,
        "7162": 73,
        "7163": 88,
        "7164": 76,
        "7165": 234,
        "7166": 237,
        "7167": 166,
        "7168": 244,
        "7169": 112,
        "7170": 44,
        "7171": 139,
        "7172": 201,
        "7173": 255,
        "7174": 56,
        "7175": 131,
        "7176": 209,
        "7177": 208,
        "7178": 240,
        "7179": 79,
        "7180": 76,
        "7181": 133,
        "7182": 63,
        "7183": 206,
        "7184": 103,
        "7185": 154,
        "7186": 87,
        "7187": 173,
        "7188": 174,
        "7189": 75,
        "7190": 249,
        "7191": 158,
        "7192": 126,
        "7193": 53,
        "7194": 149,
        "7195": 233,
        "7196": 137,
        "7197": 70,
        "7198": 82,
        "7199": 203,
        "7200": 7,
        "7201": 73,
        "7202": 0,
        "7203": 199,
        "7204": 110,
        "7205": 212,
        "7206": 94,
        "7207": 124,
        "7208": 146,
        "7209": 176,
        "7210": 64,
        "7211": 172,
        "7212": 159,
        "7213": 18,
        "7214": 206,
        "7215": 254,
        "7216": 156,
        "7217": 47,
        "7218": 106,
        "7219": 133,
        "7220": 158,
        "7221": 164,
        "7222": 164,
        "7223": 244,
        "7224": 218,
        "7225": 20,
        "7226": 26,
        "7227": 70,
        "7228": 170,
        "7229": 108,
        "7230": 169,
        "7231": 127,
        "7232": 111,
        "7233": 10,
        "7234": 33,
        "7235": 167,
        "7236": 189,
        "7237": 163,
        "7238": 0,
        "7239": 125,
        "7240": 91,
        "7241": 18,
        "7242": 9,
        "7243": 141,
        "7244": 136,
        "7245": 8,
        "7246": 229,
        "7247": 190,
        "7248": 230,
        "7249": 101,
        "7250": 238,
        "7251": 218,
        "7252": 1,
        "7253": 34,
        "7254": 59,
        "7255": 66,
        "7256": 50,
        "7257": 193,
        "7258": 25,
        "7259": 196,
        "7260": 152,
        "7261": 59,
        "7262": 145,
        "7263": 241,
        "7264": 133,
        "7265": 160,
        "7266": 199,
        "7267": 191,
        "7268": 142,
        "7269": 94,
        "7270": 247,
        "7271": 53,
        "7272": 185,
        "7273": 55,
        "7274": 48,
        "7275": 22,
        "7276": 193,
        "7277": 52,
        "7278": 168,
        "7279": 246,
        "7280": 138,
        "7281": 230,
        "7282": 167,
        "7283": 3,
        "7284": 246,
        "7285": 133,
        "7286": 24,
        "7287": 83,
        "7288": 78,
        "7289": 59,
        "7290": 155,
        "7291": 25,
        "7292": 10,
        "7293": 212,
        "7294": 166,
        "7295": 173,
        "7296": 244,
        "7297": 144,
        "7298": 67,
        "7299": 44,
        "7300": 191,
        "7301": 18,
        "7302": 140,
        "7303": 133,
        "7304": 226,
        "7305": 74,
        "7306": 90,
        "7307": 13,
        "7308": 194,
        "7309": 54,
        "7310": 93,
        "7311": 27,
        "7312": 54,
        "7313": 112,
        "7314": 25,
        "7315": 32,
        "7316": 142,
        "7317": 8,
        "7318": 191,
        "7319": 233,
        "7320": 65,
        "7321": 123,
        "7322": 97,
        "7323": 89,
        "7324": 132,
        "7325": 67,
        "7326": 55,
        "7327": 203,
        "7328": 211,
        "7329": 208,
        "7330": 58,
        "7331": 77,
        "7332": 105,
        "7333": 241,
        "7334": 99,
        "7335": 17,
        "7336": 64,
        "7337": 151,
        "7338": 31,
        "7339": 222,
        "7340": 8,
        "7341": 163,
        "7342": 240,
        "7343": 231,
        "7344": 77,
        "7345": 248,
        "7346": 75,
        "7347": 198,
        "7348": 120,
        "7349": 8,
        "7350": 117,
        "7351": 93,
        "7352": 105,
        "7353": 224,
        "7354": 145,
        "7355": 165,
        "7356": 104,
        "7357": 199,
        "7358": 189,
        "7359": 211,
        "7360": 192,
        "7361": 207,
        "7362": 217,
        "7363": 117,
        "7364": 60,
        "7365": 90,
        "7366": 150,
        "7367": 52,
        "7368": 225,
        "7369": 141,
        "7370": 99,
        "7371": 117,
        "7372": 113,
        "7373": 88,
        "7374": 155,
        "7375": 112,
        "7376": 19,
        "7377": 36,
        "7378": 119,
        "7379": 27,
        "7380": 156,
        "7381": 201,
        "7382": 93,
        "7383": 222,
        "7384": 118,
        "7385": 20,
        "7386": 63,
        "7387": 35,
        "7388": 223,
        "7389": 166,
        "7390": 129,
        "7391": 236,
        "7392": 8,
        "7393": 198,
        "7394": 74,
        "7395": 76,
        "7396": 200,
        "7397": 56,
        "7398": 87,
        "7399": 190,
        "7400": 44,
        "7401": 90,
        "7402": 198,
        "7403": 34,
        "7404": 163,
        "7405": 203,
        "7406": 97,
        "7407": 184,
        "7408": 77,
        "7409": 25,
        "7410": 220,
        "7411": 82,
        "7412": 242,
        "7413": 95,
        "7414": 60,
        "7415": 13,
        "7416": 182,
        "7417": 119,
        "7418": 18,
        "7419": 123,
        "7420": 89,
        "7421": 0,
        "7422": 145,
        "7423": 121,
        "7424": 37,
        "7425": 102,
        "7426": 123,
        "7427": 151,
        "7428": 182,
        "7429": 218,
        "7430": 221,
        "7431": 26,
        "7432": 185,
        "7433": 28,
        "7434": 34,
        "7435": 160,
        "7436": 42,
        "7437": 196,
        "7438": 223,
        "7439": 209,
        "7440": 103,
        "7441": 222,
        "7442": 156,
        "7443": 9,
        "7444": 149,
        "7445": 18,
        "7446": 41,
        "7447": 181,
        "7448": 237,
        "7449": 252,
        "7450": 91,
        "7451": 83,
        "7452": 73,
        "7453": 99,
        "7454": 57,
        "7455": 24,
        "7456": 134,
        "7457": 200,
        "7458": 69,
        "7459": 66,
        "7460": 69,
        "7461": 38,
        "7462": 108,
        "7463": 56,
        "7464": 108,
        "7465": 74,
        "7466": 46,
        "7467": 197,
        "7468": 234,
        "7469": 6,
        "7470": 68,
        "7471": 41,
        "7472": 193,
        "7473": 130,
        "7474": 194,
        "7475": 97,
        "7476": 80,
        "7477": 231,
        "7478": 136,
        "7479": 132,
        "7480": 245,
        "7481": 34,
        "7482": 36,
        "7483": 18,
        "7484": 250,
        "7485": 174,
        "7486": 252,
        "7487": 138,
        "7488": 246,
        "7489": 186,
        "7490": 49,
        "7491": 132,
        "7492": 161,
        "7493": 105,
        "7494": 86,
        "7495": 129,
        "7496": 126,
        "7497": 217,
        "7498": 123,
        "7499": 32,
        "7500": 113,
        "7501": 49,
        "7502": 89,
        "7503": 107,
        "7504": 157,
        "7505": 92,
        "7506": 100,
        "7507": 224,
        "7508": 217,
        "7509": 82,
        "7510": 94,
        "7511": 253,
        "7512": 240,
        "7513": 41,
        "7514": 156,
        "7515": 59,
        "7516": 76,
        "7517": 247,
        "7518": 191,
        "7519": 46,
        "7520": 226,
        "7521": 12,
        "7522": 3,
        "7523": 128,
        "7524": 159,
        "7525": 57,
        "7526": 59,
        "7527": 73,
        "7528": 83,
        "7529": 125,
        "7530": 246,
        "7531": 194,
        "7532": 217,
        "7533": 167,
        "7534": 71,
        "7535": 108,
        "7536": 235,
        "7537": 84,
        "7538": 63,
        "7539": 254,
        "7540": 44,
        "7541": 79,
        "7542": 89,
        "7543": 50,
        "7544": 72,
        "7545": 251,
        "7546": 174,
        "7547": 169,
        "7548": 29,
        "7549": 123,
        "7550": 160,
        "7551": 129,
        "7552": 246,
        "7553": 139,
        "7554": 223,
        "7555": 51,
        "7556": 213,
        "7557": 243,
        "7558": 26,
        "7559": 122,
        "7560": 203,
        "7561": 198,
        "7562": 136,
        "7563": 84,
        "7564": 121,
        "7565": 38,
        "7566": 172,
        "7567": 116,
        "7568": 129,
        "7569": 1,
        "7570": 253,
        "7571": 181,
        "7572": 163,
        "7573": 128,
        "7574": 126,
        "7575": 178,
        "7576": 211,
        "7577": 176,
        "7578": 199,
        "7579": 102,
        "7580": 227,
        "7581": 56,
        "7582": 53,
        "7583": 64,
        "7584": 152,
        "7585": 39,
        "7586": 173,
        "7587": 139,
        "7588": 147,
        "7589": 146,
        "7590": 83,
        "7591": 238,
        "7592": 246,
        "7593": 241,
        "7594": 188,
        "7595": 178,
        "7596": 171,
        "7597": 200,
        "7598": 13,
        "7599": 24,
        "7600": 25,
        "7601": 121,
        "7602": 145,
        "7603": 124,
        "7604": 75,
        "7605": 151,
        "7606": 101,
        "7607": 233,
        "7608": 98,
        "7609": 0,
        "7610": 221,
        "7611": 216,
        "7612": 173,
        "7613": 224,
        "7614": 3,
        "7615": 81,
        "7616": 47,
        "7617": 32,
        "7618": 76,
        "7619": 39,
        "7620": 255,
        "7621": 215,
        "7622": 173,
        "7623": 23,
        "7624": 148,
        "7625": 169,
        "7626": 17,
        "7627": 196,
        "7628": 191,
        "7629": 4,
        "7630": 223,
        "7631": 152,
        "7632": 9,
        "7633": 241,
        "7634": 212,
        "7635": 142,
        "7636": 187,
        "7637": 246,
        "7638": 61,
        "7639": 63,
        "7640": 58,
        "7641": 36,
        "7642": 42,
        "7643": 179,
        "7644": 0,
        "7645": 83,
        "7646": 199,
        "7647": 58,
        "7648": 219,
        "7649": 66,
        "7650": 178,
        "7651": 20,
        "7652": 37,
        "7653": 50,
        "7654": 119,
        "7655": 99,
        "7656": 206,
        "7657": 4,
        "7658": 79,
        "7659": 244,
        "7660": 239,
        "7661": 3,
        "7662": 193,
        "7663": 124,
        "7664": 188,
        "7665": 130,
        "7666": 64,
        "7667": 149,
        "7668": 156,
        "7669": 222,
        "7670": 100,
        "7671": 125,
        "7672": 4,
        "7673": 246,
        "7674": 246,
        "7675": 195,
        "7676": 98,
        "7677": 70,
        "7678": 157,
        "7679": 85,
        "7680": 10,
        "7681": 169,
        "7682": 250,
        "7683": 212,
        "7684": 157,
        "7685": 130,
        "7686": 55,
        "7687": 174,
        "7688": 140,
        "7689": 242,
        "7690": 183,
        "7691": 162,
        "7692": 103,
        "7693": 38,
        "7694": 246,
        "7695": 190,
        "7696": 219,
        "7697": 184,
        "7698": 175,
        "7699": 238,
        "7700": 52,
        "7701": 176,
        "7702": 230,
        "7703": 10,
        "7704": 40,
        "7705": 228,
        "7706": 9,
        "7707": 99,
        "7708": 167,
        "7709": 91,
        "7710": 45,
        "7711": 38,
        "7712": 34,
        "7713": 72,
        "7714": 39,
        "7715": 20,
        "7716": 113,
        "7717": 210,
        "7718": 197,
        "7719": 95,
        "7720": 3,
        "7721": 198,
        "7722": 99,
        "7723": 242,
        "7724": 85,
        "7725": 211,
        "7726": 208,
        "7727": 174,
        "7728": 245,
        "7729": 171,
        "7730": 208,
        "7731": 226,
        "7732": 251,
        "7733": 147,
        "7734": 8,
        "7735": 147,
        "7736": 89,
        "7737": 138,
        "7738": 60,
        "7739": 76,
        "7740": 65,
        "7741": 162,
        "7742": 160,
        "7743": 52,
        "7744": 248,
        "7745": 206,
        "7746": 87,
        "7747": 251,
        "7748": 2,
        "7749": 95,
        "7750": 207,
        "7751": 210,
        "7752": 250,
        "7753": 246,
        "7754": 60,
        "7755": 79,
        "7756": 8,
        "7757": 43,
        "7758": 57,
        "7759": 42,
        "7760": 6,
        "7761": 254,
        "7762": 165,
        "7763": 92,
        "7764": 18,
        "7765": 19,
        "7766": 183,
        "7767": 230,
        "7768": 34,
        "7769": 37,
        "7770": 64,
        "7771": 174,
        "7772": 190,
        "7773": 2,
        "7774": 19,
        "7775": 36,
        "7776": 80,
        "7777": 232,
        "7778": 215,
        "7779": 72,
        "7780": 56,
        "7781": 6,
        "7782": 245,
        "7783": 37,
        "7784": 29,
        "7785": 238,
        "7786": 149,
        "7787": 219,
        "7788": 212,
        "7789": 66,
        "7790": 149,
        "7791": 6,
        "7792": 66,
        "7793": 13,
        "7794": 64,
        "7795": 104,
        "7796": 49,
        "7797": 73,
        "7798": 252,
        "7799": 11,
        "7800": 217,
        "7801": 69,
        "7802": 174,
        "7803": 154,
        "7804": 176,
        "7805": 109,
        "7806": 79,
        "7807": 115,
        "7808": 110,
        "7809": 35,
        "7810": 142,
        "7811": 167,
        "7812": 100,
        "7813": 251,
        "7814": 6,
        "7815": 217,
        "7816": 97,
        "7817": 209,
        "7818": 74,
        "7819": 162,
        "7820": 31,
        "7821": 61,
        "7822": 85,
        "7823": 42,
        "7824": 37,
        "7825": 173,
        "7826": 229,
        "7827": 155,
        "7828": 95,
        "7829": 97,
        "7830": 83,
        "7831": 73,
        "7832": 124,
        "7833": 175,
        "7834": 241,
        "7835": 42,
        "7836": 33,
        "7837": 132,
        "7838": 12,
        "7839": 24,
        "7840": 61,
        "7841": 61,
        "7842": 42,
        "7843": 98,
        "7844": 210,
        "7845": 193,
        "7846": 167,
        "7847": 190,
        "7848": 219,
        "7849": 120,
        "7850": 145,
        "7851": 115,
        "7852": 252,
        "7853": 209,
        "7854": 4,
        "7855": 149,
        "7856": 110,
        "7857": 0,
        "7858": 241,
        "7859": 162,
        "7860": 45,
        "7861": 242,
        "7862": 255,
        "7863": 45,
        "7864": 58,
        "7865": 108,
        "7866": 178,
        "7867": 203,
        "7868": 174,
        "7869": 241,
        "7870": 123,
        "7871": 64,
        "7872": 64,
        "7873": 223,
        "7874": 136,
        "7875": 79,
        "7876": 222,
        "7877": 89,
        "7878": 155,
        "7879": 246,
        "7880": 113,
        "7881": 8,
        "7882": 24,
        "7883": 213,
        "7884": 168,
        "7885": 186,
        "7886": 191,
        "7887": 144,
        "7888": 123,
        "7889": 100,
        "7890": 41,
        "7891": 40,
        "7892": 30,
        "7893": 183,
        "7894": 194,
        "7895": 130,
        "7896": 224,
        "7897": 170,
        "7898": 238,
        "7899": 248,
        "7900": 23,
        "7901": 110,
        "7902": 174,
        "7903": 98,
        "7904": 246,
        "7905": 55,
        "7906": 46,
        "7907": 12,
        "7908": 187,
        "7909": 146,
        "7910": 127,
        "7911": 159,
        "7912": 221,
        "7913": 121,
        "7914": 28,
        "7915": 207,
        "7916": 203,
        "7917": 224,
        "7918": 88,
        "7919": 197,
        "7920": 161,
        "7921": 228,
        "7922": 35,
        "7923": 37,
        "7924": 219,
        "7925": 17,
        "7926": 232,
        "7927": 57,
        "7928": 225,
        "7929": 45,
        "7930": 253,
        "7931": 53,
        "7932": 55,
        "7933": 157,
        "7934": 55,
        "7935": 131,
        "7936": 58,
        "7937": 74,
        "7938": 133,
        "7939": 23,
        "7940": 248,
        "7941": 12,
        "7942": 116,
        "7943": 205,
        "7944": 218,
        "7945": 251,
        "7946": 180,
        "7947": 71,
        "7948": 27,
        "7949": 206,
        "7950": 227,
        "7951": 5,
        "7952": 60,
        "7953": 240,
        "7954": 31,
        "7955": 188,
        "7956": 12,
        "7957": 202,
        "7958": 201,
        "7959": 166,
        "7960": 38,
        "7961": 123,
        "7962": 92,
        "7963": 77,
        "7964": 69,
        "7965": 194,
        "7966": 28,
        "7967": 226,
        "7968": 127,
        "7969": 158,
        "7970": 184,
        "7971": 46,
        "7972": 120,
        "7973": 168,
        "7974": 14,
        "7975": 192,
        "7976": 156,
        "7977": 199,
        "7978": 174,
        "7979": 43,
        "7980": 214,
        "7981": 9,
        "7982": 135,
        "7983": 253,
        "7984": 126,
        "7985": 97,
        "7986": 45,
        "7987": 58,
        "7988": 123,
        "7989": 179,
        "7990": 83,
        "7991": 77,
        "7992": 5,
        "7993": 44,
        "7994": 97,
        "7995": 137,
        "7996": 198,
        "7997": 69,
        "7998": 68,
        "7999": 214,
        "8000": 18,
        "8001": 226,
        "8002": 146,
        "8003": 108,
        "8004": 20,
        "8005": 235,
        "8006": 111,
        "8007": 199,
        "8008": 59,
        "8009": 183,
        "8010": 75,
        "8011": 219,
        "8012": 91,
        "8013": 183,
        "8014": 205,
        "8015": 89,
        "8016": 11,
        "8017": 137,
        "8018": 235,
        "8019": 52,
        "8020": 92,
        "8021": 198,
        "8022": 47,
        "8023": 24,
        "8024": 81,
        "8025": 15,
        "8026": 53,
        "8027": 17,
        "8028": 174,
        "8029": 212,
        "8030": 92,
        "8031": 173,
        "8032": 115,
        "8033": 159,
        "8034": 234,
        "8035": 32,
        "8036": 83,
        "8037": 128,
        "8038": 184,
        "8039": 205,
        "8040": 253,
        "8041": 242,
        "8042": 62,
        "8043": 109,
        "8044": 11,
        "8045": 44,
        "8046": 104,
        "8047": 142,
        "8048": 209,
        "8049": 199,
        "8050": 46,
        "8051": 98,
        "8052": 248,
        "8053": 232,
        "8054": 185,
        "8055": 132,
        "8056": 34,
        "8057": 207,
        "8058": 95,
        "8059": 50,
        "8060": 33,
        "8061": 201,
        "8062": 126,
        "8063": 245,
        "8064": 237,
        "8065": 238,
        "8066": 180,
        "8067": 124,
        "8068": 93,
        "8069": 217,
        "8070": 80,
        "8071": 78,
        "8072": 200,
        "8073": 217,
        "8074": 140,
        "8075": 178,
        "8076": 43,
        "8077": 85,
        "8078": 156,
        "8079": 237,
        "8080": 5,
        "8081": 18,
        "8082": 154,
        "8083": 51,
        "8084": 132,
        "8085": 236,
        "8086": 227,
        "8087": 29,
        "8088": 220,
        "8089": 93,
        "8090": 151,
        "8091": 171,
        "8092": 82,
        "8093": 188,
        "8094": 116,
        "8095": 69,
        "8096": 58,
        "8097": 106,
        "8098": 70,
        "8099": 15,
        "8100": 3,
        "8101": 227,
        "8102": 79,
        "8103": 164,
        "8104": 148,
        "8105": 228,
        "8106": 25,
        "8107": 240,
        "8108": 3,
        "8109": 184,
        "8110": 217,
        "8111": 75,
        "8112": 48,
        "8113": 13,
        "8114": 196,
        "8115": 170,
        "8116": 195,
        "8117": 90,
        "8118": 208,
        "8119": 88,
        "8120": 42,
        "8121": 38,
        "8122": 138,
        "8123": 132,
        "8124": 147,
        "8125": 184,
        "8126": 1,
        "8127": 102,
        "8128": 237,
        "8129": 30,
        "8130": 110,
        "8131": 166,
        "8132": 118,
        "8133": 68,
        "8134": 59,
        "8135": 138,
        "8136": 235,
        "8137": 231,
        "8138": 30,
        "8139": 209,
        "8140": 145,
        "8141": 152,
        "8142": 97,
        "8143": 69,
        "8144": 215,
        "8145": 51,
        "8146": 10,
        "8147": 96,
        "8148": 132,
        "8149": 41,
        "8150": 249,
        "8151": 38,
        "8152": 41,
        "8153": 162,
        "8154": 237,
        "8155": 65,
        "8156": 154,
        "8157": 178,
        "8158": 191,
        "8159": 85,
        "8160": 243,
        "8161": 198,
        "8162": 63,
        "8163": 47,
        "8164": 127,
        "8165": 111,
        "8166": 173,
        "8167": 111,
        "8168": 138,
        "8169": 232,
        "8170": 187,
        "8171": 239,
        "8172": 145,
        "8173": 37,
        "8174": 77,
        "8175": 233,
        "8176": 234,
        "8177": 240,
        "8178": 133,
        "8179": 186,
        "8180": 198,
        "8181": 191,
        "8182": 42,
        "8183": 136,
        "8184": 107,
        "8185": 41,
        "8186": 178,
        "8187": 201,
        "8188": 86,
        "8189": 141,
        "8190": 186,
        "8191": 255,
        "8192": 36,
        "8193": 230,
        "8194": 28,
        "8195": 44,
        "8196": 121,
        "8197": 174,
        "8198": 170,
        "8199": 104,
        "8200": 199,
        "8201": 227,
        "8202": 253,
        "8203": 53,
        "8204": 50,
        "8205": 105,
        "8206": 144,
        "8207": 169,
        "8208": 221,
        "8209": 123,
        "8210": 117,
        "8211": 33,
        "8212": 97,
        "8213": 189,
        "8214": 7,
        "8215": 101,
        "8216": 191,
        "8217": 8,
        "8218": 60,
        "8219": 216,
        "8220": 151,
        "8221": 12,
        "8222": 29,
        "8223": 213,
        "8224": 89,
        "8225": 40,
        "8226": 243,
        "8227": 0,
        "8228": 24,
        "8229": 189,
        "8230": 107,
        "8231": 23,
        "8232": 125,
        "8233": 180,
        "8234": 239,
        "8235": 3,
        "8236": 201,
        "8237": 126,
        "8238": 61,
        "8239": 88,
        "8240": 68,
        "8241": 35,
        "8242": 255,
        "8243": 205,
        "8244": 12,
        "8245": 34,
        "8246": 25,
        "8247": 15,
        "8248": 22,
        "8249": 110,
        "8250": 14,
        "8251": 250,
        "8252": 24,
        "8253": 70,
        "8254": 25,
        "8255": 39,
        "8256": 28,
        "8257": 4,
        "8258": 198,
        "8259": 210,
        "8260": 178,
        "8261": 145,
        "8262": 84,
        "8263": 140,
        "8264": 234,
        "8265": 193,
        "8266": 1,
        "8267": 112,
        "8268": 126,
        "8269": 69,
        "8270": 236,
        "8271": 49,
        "8272": 144,
        "8273": 210,
        "8274": 20,
        "8275": 160,
        "8276": 138,
        "8277": 210,
        "8278": 229,
        "8279": 138,
        "8280": 0,
        "8281": 32,
        "8282": 68,
        "8283": 35,
        "8284": 196,
        "8285": 176,
        "8286": 46,
        "8287": 136,
        "8288": 200,
        "8289": 3,
        "8290": 198,
        "8291": 15,
        "8292": 156,
        "8293": 94,
        "8294": 111,
        "8295": 89,
        "8296": 37,
        "8297": 61,
        "8298": 206,
        "8299": 243,
        "8300": 82,
        "8301": 186,
        "8302": 254,
        "8303": 182,
        "8304": 16,
        "8305": 21,
        "8306": 11,
        "8307": 106,
        "8308": 76,
        "8309": 227,
        "8310": 169,
        "8311": 95,
        "8312": 187,
        "8313": 176,
        "8314": 241,
        "8315": 171,
        "8316": 124,
        "8317": 154,
        "8318": 95,
        "8319": 59,
        "8320": 150,
        "8321": 192,
        "8322": 42,
        "8323": 148,
        "8324": 191,
        "8325": 211,
        "8326": 103,
        "8327": 84,
        "8328": 229,
        "8329": 133,
        "8330": 212,
        "8331": 131,
        "8332": 72,
        "8333": 230,
        "8334": 122,
        "8335": 33,
        "8336": 73,
        "8337": 89,
        "8338": 83,
        "8339": 102,
        "8340": 57,
        "8341": 108,
        "8342": 243,
        "8343": 174,
        "8344": 53,
        "8345": 210,
        "8346": 69,
        "8347": 154,
        "8348": 221,
        "8349": 7,
        "8350": 255,
        "8351": 56,
        "8352": 129,
        "8353": 145,
        "8354": 201,
        "8355": 152,
        "8356": 253,
        "8357": 113,
        "8358": 227,
        "8359": 92,
        "8360": 188,
        "8361": 65,
        "8362": 181,
        "8363": 171,
        "8364": 101,
        "8365": 83,
        "8366": 236,
        "8367": 219,
        "8368": 185,
        "8369": 149,
        "8370": 134,
        "8371": 255,
        "8372": 215,
        "8373": 240,
        "8374": 71,
        "8375": 230,
        "8376": 249,
        "8377": 75,
        "8378": 6,
        "8379": 111,
        "8380": 33,
        "8381": 20,
        "8382": 24,
        "8383": 128,
        "8384": 162,
        "8385": 12,
        "8386": 216,
        "8387": 58,
        "8388": 145,
        "8389": 173,
        "8390": 126,
        "8391": 84,
        "8392": 72,
        "8393": 251,
        "8394": 56,
        "8395": 149,
        "8396": 126,
        "8397": 156,
        "8398": 38,
        "8399": 152,
        "8400": 193,
        "8401": 48,
        "8402": 206,
        "8403": 74,
        "8404": 100,
        "8405": 16,
        "8406": 137,
        "8407": 231,
        "8408": 201,
        "8409": 122,
        "8410": 180,
        "8411": 238,
        "8412": 81,
        "8413": 81,
        "8414": 10,
        "8415": 178,
        "8416": 74,
        "8417": 75,
        "8418": 131,
        "8419": 117,
        "8420": 218,
        "8421": 103,
        "8422": 4,
        "8423": 131,
        "8424": 69,
        "8425": 225,
        "8426": 235,
        "8427": 19,
        "8428": 152,
        "8429": 66,
        "8430": 13,
        "8431": 130,
        "8432": 193,
        "8433": 132,
        "8434": 26,
        "8435": 181,
        "8436": 3,
        "8437": 210,
        "8438": 130,
        "8439": 185,
        "8440": 107,
        "8441": 98,
        "8442": 6,
        "8443": 251,
        "8444": 131,
        "8445": 29,
        "8446": 169,
        "8447": 144,
        "8448": 197,
        "8449": 170,
        "8450": 165,
        "8451": 238,
        "8452": 109,
        "8453": 14,
        "8454": 79,
        "8455": 145,
        "8456": 8,
        "8457": 141,
        "8458": 78,
        "8459": 29,
        "8460": 141,
        "8461": 234,
        "8462": 79,
        "8463": 223,
        "8464": 89,
        "8465": 2,
        "8466": 73,
        "8467": 67,
        "8468": 214,
        "8469": 82,
        "8470": 184,
        "8471": 54,
        "8472": 112,
        "8473": 235,
        "8474": 116,
        "8475": 35,
        "8476": 5,
        "8477": 231,
        "8478": 210,
        "8479": 42,
        "8480": 233,
        "8481": 113,
        "8482": 79,
        "8483": 246,
        "8484": 20,
        "8485": 194,
        "8486": 161,
        "8487": 149,
        "8488": 57,
        "8489": 198,
        "8490": 251,
        "8491": 49,
        "8492": 135,
        "8493": 176,
        "8494": 209,
        "8495": 235,
        "8496": 54,
        "8497": 132,
        "8498": 99,
        "8499": 120,
        "8500": 221,
        "8501": 184,
        "8502": 113,
        "8503": 41,
        "8504": 81,
        "8505": 46,
        "8506": 67,
        "8507": 181,
        "8508": 126,
        "8509": 248,
        "8510": 17,
        "8511": 72,
        "8512": 53,
        "8513": 44,
        "8514": 208,
        "8515": 207,
        "8516": 143,
        "8517": 19,
        "8518": 127,
        "8519": 120,
        "8520": 89,
        "8521": 163,
        "8522": 53,
        "8523": 222,
        "8524": 9,
        "8525": 10,
        "8526": 147,
        "8527": 19,
        "8528": 122,
        "8529": 51,
        "8530": 244,
        "8531": 29,
        "8532": 29,
        "8533": 192,
        "8534": 109,
        "8535": 9,
        "8536": 252,
        "8537": 21,
        "8538": 191,
        "8539": 195,
        "8540": 177,
        "8541": 64,
        "8542": 36,
        "8543": 7,
        "8544": 177,
        "8545": 0,
        "8546": 40,
        "8547": 164,
        "8548": 109,
        "8549": 216,
        "8550": 246,
        "8551": 110,
        "8552": 194,
        "8553": 108,
        "8554": 25,
        "8555": 93,
        "8556": 206,
        "8557": 62,
        "8558": 237,
        "8559": 99,
        "8560": 235,
        "8561": 204,
        "8562": 186,
        "8563": 39,
        "8564": 22,
        "8565": 12,
        "8566": 219,
        "8567": 91,
        "8568": 160,
        "8569": 133,
        "8570": 120,
        "8571": 84,
        "8572": 81,
        "8573": 241,
        "8574": 7,
        "8575": 90,
        "8576": 93,
        "8577": 185,
        "8578": 138,
        "8579": 111,
        "8580": 23,
        "8581": 211,
        "8582": 51,
        "8583": 202,
        "8584": 149,
        "8585": 247,
        "8586": 186,
        "8587": 169,
        "8588": 155,
        "8589": 64,
        "8590": 46,
        "8591": 73,
        "8592": 219,
        "8593": 213,
        "8594": 145,
        "8595": 159,
        "8596": 215,
        "8597": 100,
        "8598": 124,
        "8599": 114,
        "8600": 198,
        "8601": 137,
        "8602": 95,
        "8603": 173,
        "8604": 171,
        "8605": 200,
        "8606": 227,
        "8607": 62,
        "8608": 107,
        "8609": 212,
        "8610": 80,
        "8611": 46,
        "8612": 107,
        "8613": 216,
        "8614": 135,
        "8615": 245,
        "8616": 194,
        "8617": 101,
        "8618": 67,
        "8619": 230,
        "8620": 86,
        "8621": 158,
        "8622": 128,
        "8623": 226,
        "8624": 43,
        "8625": 175,
        "8626": 235,
        "8627": 95,
        "8628": 207,
        "8629": 255,
        "8630": 161,
        "8631": 32,
        "8632": 133,
        "8633": 165,
        "8634": 122,
        "8635": 46,
        "8636": 175,
        "8637": 49,
        "8638": 40,
        "8639": 77,
        "8640": 82,
        "8641": 255,
        "8642": 150,
        "8643": 179,
        "8644": 214,
        "8645": 176,
        "8646": 0,
        "8647": 6,
        "8648": 103,
        "8649": 59,
        "8650": 6,
        "8651": 233,
        "8652": 14,
        "8653": 20,
        "8654": 46,
        "8655": 150,
        "8656": 159,
        "8657": 33,
        "8658": 150,
        "8659": 236,
        "8660": 136,
        "8661": 60,
        "8662": 187,
        "8663": 249,
        "8664": 188,
        "8665": 124,
        "8666": 220,
        "8667": 244,
        "8668": 47,
        "8669": 36,
        "8670": 23,
        "8671": 252,
        "8672": 170,
        "8673": 15,
        "8674": 12,
        "8675": 215,
        "8676": 199,
        "8677": 88,
        "8678": 252,
        "8679": 91,
        "8680": 137,
        "8681": 83,
        "8682": 48,
        "8683": 45,
        "8684": 250,
        "8685": 79,
        "8686": 212,
        "8687": 217,
        "8688": 145,
        "8689": 45,
        "8690": 71,
        "8691": 214,
        "8692": 76,
        "8693": 179,
        "8694": 161,
        "8695": 36,
        "8696": 23,
        "8697": 162,
        "8698": 254,
        "8699": 255,
        "8700": 82,
        "8701": 201,
        "8702": 248,
        "8703": 89,
        "8704": 179,
        "8705": 119,
        "8706": 245,
        "8707": 238,
        "8708": 118,
        "8709": 40,
        "8710": 204,
        "8711": 179,
        "8712": 28,
        "8713": 249,
        "8714": 211,
        "8715": 136,
        "8716": 116,
        "8717": 23,
        "8718": 144,
        "8719": 50,
        "8720": 254,
        "8721": 136,
        "8722": 34,
        "8723": 211,
        "8724": 79,
        "8725": 5,
        "8726": 85,
        "8727": 191,
        "8728": 163,
        "8729": 149,
        "8730": 213,
        "8731": 116,
        "8732": 109,
        "8733": 150,
        "8734": 201,
        "8735": 9,
        "8736": 205,
        "8737": 72,
        "8738": 57,
        "8739": 243,
        "8740": 234,
        "8741": 151,
        "8742": 165,
        "8743": 74,
        "8744": 200,
        "8745": 169,
        "8746": 15,
        "8747": 248,
        "8748": 32,
        "8749": 87,
        "8750": 33,
        "8751": 78,
        "8752": 111,
        "8753": 18,
        "8754": 195,
        "8755": 252,
        "8756": 10,
        "8757": 217,
        "8758": 166,
        "8759": 253,
        "8760": 182,
        "8761": 0,
        "8762": 239,
        "8763": 40,
        "8764": 245,
        "8765": 22,
        "8766": 188,
        "8767": 112,
        "8768": 79,
        "8769": 59,
        "8770": 246,
        "8771": 87,
        "8772": 64,
        "8773": 225,
        "8774": 48,
        "8775": 160,
        "8776": 77,
        "8777": 223,
        "8778": 145,
        "8779": 250,
        "8780": 172,
        "8781": 129,
        "8782": 209,
        "8783": 90,
        "8784": 110,
        "8785": 224,
        "8786": 217,
        "8787": 60,
        "8788": 48,
        "8789": 220,
        "8790": 190,
        "8791": 120,
        "8792": 249,
        "8793": 42,
        "8794": 249,
        "8795": 127,
        "8796": 73,
        "8797": 179,
        "8798": 31,
        "8799": 58,
        "8800": 251,
        "8801": 100,
        "8802": 1,
        "8803": 194,
        "8804": 42,
        "8805": 91,
        "8806": 45,
        "8807": 33,
        "8808": 121,
        "8809": 64,
        "8810": 116,
        "8811": 73,
        "8812": 210,
        "8813": 194,
        "8814": 218,
        "8815": 147,
        "8816": 167,
        "8817": 195,
        "8818": 3,
        "8819": 92,
        "8820": 45,
        "8821": 167,
        "8822": 7,
        "8823": 96,
        "8824": 196,
        "8825": 88,
        "8826": 223,
        "8827": 60,
        "8828": 81,
        "8829": 49,
        "8830": 43,
        "8831": 177,
        "8832": 155,
        "8833": 44,
        "8834": 148,
        "8835": 164,
        "8836": 187,
        "8837": 122,
        "8838": 9,
        "8839": 184,
        "8840": 182,
        "8841": 244,
        "8842": 86,
        "8843": 232,
        "8844": 85,
        "8845": 201,
        "8846": 180,
        "8847": 144,
        "8848": 26,
        "8849": 209,
        "8850": 184,
        "8851": 192,
        "8852": 201,
        "8853": 242,
        "8854": 80,
        "8855": 37,
        "8856": 36,
        "8857": 44,
        "8858": 163,
        "8859": 17,
        "8860": 147,
        "8861": 111,
        "8862": 79,
        "8863": 9,
        "8864": 37,
        "8865": 151,
        "8866": 252,
        "8867": 73,
        "8868": 151,
        "8869": 218,
        "8870": 95,
        "8871": 46,
        "8872": 220,
        "8873": 71,
        "8874": 144,
        "8875": 252,
        "8876": 149,
        "8877": 255,
        "8878": 60,
        "8879": 225,
        "8880": 138,
        "8881": 159,
        "8882": 117,
        "8883": 202,
        "8884": 237,
        "8885": 174,
        "8886": 116,
        "8887": 181,
        "8888": 184,
        "8889": 182,
        "8890": 144,
        "8891": 46,
        "8892": 164,
        "8893": 223,
        "8894": 216,
        "8895": 132,
        "8896": 252,
        "8897": 107,
        "8898": 208,
        "8899": 249,
        "8900": 230,
        "8901": 179,
        "8902": 127,
        "8903": 220,
        "8904": 50,
        "8905": 170,
        "8906": 179,
        "8907": 13,
        "8908": 127,
        "8909": 199,
        "8910": 149,
        "8911": 88,
        "8912": 14,
        "8913": 203,
        "8914": 161,
        "8915": 188,
        "8916": 101,
        "8917": 146,
        "8918": 150,
        "8919": 77,
        "8920": 67,
        "8921": 219,
        "8922": 126,
        "8923": 141,
        "8924": 154,
        "8925": 234,
        "8926": 85,
        "8927": 86,
        "8928": 251,
        "8929": 49,
        "8930": 163,
        "8931": 167,
        "8932": 184,
        "8933": 58,
        "8934": 84,
        "8935": 10,
        "8936": 152,
        "8937": 244,
        "8938": 214,
        "8939": 91,
        "8940": 226,
        "8941": 92,
        "8942": 33,
        "8943": 122,
        "8944": 68,
        "8945": 63,
        "8946": 232,
        "8947": 193,
        "8948": 185,
        "8949": 38,
        "8950": 71,
        "8951": 211,
        "8952": 219,
        "8953": 75,
        "8954": 148,
        "8955": 205,
        "8956": 199,
        "8957": 152,
        "8958": 136,
        "8959": 138,
        "8960": 11,
        "8961": 139,
        "8962": 245,
        "8963": 182,
        "8964": 61,
        "8965": 212,
        "8966": 49,
        "8967": 6,
        "8968": 194,
        "8969": 227,
        "8970": 135,
        "8971": 146,
        "8972": 89,
        "8973": 167,
        "8974": 193,
        "8975": 203,
        "8976": 126,
        "8977": 40,
        "8978": 175,
        "8979": 18,
        "8980": 119,
        "8981": 228,
        "8982": 150,
        "8983": 32,
        "8984": 217,
        "8985": 142,
        "8986": 39,
        "8987": 68,
        "8988": 244,
        "8989": 28,
        "8990": 44,
        "8991": 220,
        "8992": 143,
        "8993": 170,
        "8994": 135,
        "8995": 65,
        "8996": 222,
        "8997": 185,
        "8998": 223,
        "8999": 249,
        "9000": 204,
        "9001": 36,
        "9002": 204,
        "9003": 49,
        "9004": 158,
        "9005": 141,
        "9006": 165,
        "9007": 127,
        "9008": 160,
        "9009": 29,
        "9010": 117,
        "9011": 58,
        "9012": 94,
        "9013": 143,
        "9014": 228,
        "9015": 39,
        "9016": 220,
        "9017": 192,
        "9018": 96,
        "9019": 96,
        "9020": 127,
        "9021": 11,
        "9022": 213,
        "9023": 99,
        "9024": 5,
        "9025": 28,
        "9026": 248,
        "9027": 45,
        "9028": 96,
        "9029": 129,
        "9030": 255,
        "9031": 18,
        "9032": 64,
        "9033": 20,
        "9034": 211,
        "9035": 103,
        "9036": 168,
        "9037": 39,
        "9038": 36,
        "9039": 25,
        "9040": 29,
        "9041": 181,
        "9042": 223,
        "9043": 228,
        "9044": 211,
        "9045": 205,
        "9046": 126,
        "9047": 138,
        "9048": 76,
        "9049": 29,
        "9050": 178,
        "9051": 139,
        "9052": 205,
        "9053": 124,
        "9054": 124,
        "9055": 91,
        "9056": 88,
        "9057": 183,
        "9058": 149,
        "9059": 171,
        "9060": 8,
        "9061": 244,
        "9062": 78,
        "9063": 33,
        "9064": 238,
        "9065": 123,
        "9066": 114,
        "9067": 105,
        "9068": 99,
        "9069": 150,
        "9070": 145,
        "9071": 133,
        "9072": 68,
        "9073": 133,
        "9074": 59,
        "9075": 229,
        "9076": 30,
        "9077": 106,
        "9078": 39,
        "9079": 6,
        "9080": 80,
        "9081": 1,
        "9082": 28,
        "9083": 244,
        "9084": 114,
        "9085": 227,
        "9086": 253,
        "9087": 193,
        "9088": 142,
        "9089": 111,
        "9090": 167,
        "9091": 190,
        "9092": 91,
        "9093": 109,
        "9094": 22,
        "9095": 118,
        "9096": 101,
        "9097": 125,
        "9098": 216,
        "9099": 175,
        "9100": 95,
        "9101": 251,
        "9102": 208,
        "9103": 38,
        "9104": 183,
        "9105": 22,
        "9106": 213,
        "9107": 65,
        "9108": 109,
        "9109": 215,
        "9110": 154,
        "9111": 89,
        "9112": 154,
        "9113": 77,
        "9114": 138,
        "9115": 134,
        "9116": 207,
        "9117": 255,
        "9118": 187,
        "9119": 20,
        "9120": 252,
        "9121": 184,
        "9122": 212,
        "9123": 71,
        "9124": 183,
        "9125": 88,
        "9126": 73,
        "9127": 85,
        "9128": 126,
        "9129": 167,
        "9130": 89,
        "9131": 186,
        "9132": 113,
        "9133": 112,
        "9134": 210,
        "9135": 212,
        "9136": 243,
        "9137": 169,
        "9138": 192,
        "9139": 117,
        "9140": 140,
        "9141": 253,
        "9142": 58,
        "9143": 165,
        "9144": 221,
        "9145": 12,
        "9146": 192,
        "9147": 38,
        "9148": 35,
        "9149": 165,
        "9150": 8,
        "9151": 247,
        "9152": 175,
        "9153": 12,
        "9154": 149,
        "9155": 146,
        "9156": 82,
        "9157": 68,
        "9158": 244,
        "9159": 37,
        "9160": 40,
        "9161": 82,
        "9162": 159,
        "9163": 242,
        "9164": 116,
        "9165": 173,
        "9166": 1,
        "9167": 44,
        "9168": 64,
        "9169": 93,
        "9170": 49,
        "9171": 214,
        "9172": 65,
        "9173": 94,
        "9174": 117,
        "9175": 143,
        "9176": 68,
        "9177": 190,
        "9178": 141,
        "9179": 86,
        "9180": 66,
        "9181": 77,
        "9182": 64,
        "9183": 241,
        "9184": 111,
        "9185": 138,
        "9186": 150,
        "9187": 66,
        "9188": 242,
        "9189": 69,
        "9190": 165,
        "9191": 26,
        "9192": 192,
        "9193": 184,
        "9194": 209,
        "9195": 124,
        "9196": 74,
        "9197": 18,
        "9198": 91,
        "9199": 75,
        "9200": 156,
        "9201": 105,
        "9202": 99,
        "9203": 197,
        "9204": 7,
        "9205": 111,
        "9206": 67,
        "9207": 175,
        "9208": 129,
        "9209": 190,
        "9210": 240,
        "9211": 29,
        "9212": 254,
        "9213": 14,
        "9214": 239,
        "9215": 197,
        "9216": 239,
        "9217": 17,
        "9218": 165,
        "9219": 192,
        "9220": 232,
        "9221": 6,
        "9222": 66,
        "9223": 133,
        "9224": 227,
        "9225": 116,
        "9226": 28,
        "9227": 179,
        "9228": 207,
        "9229": 99,
        "9230": 8,
        "9231": 186,
        "9232": 205,
        "9233": 181,
        "9234": 250,
        "9235": 199,
        "9236": 129,
        "9237": 250,
        "9238": 70,
        "9239": 251,
        "9240": 204,
        "9241": 215,
        "9242": 71,
        "9243": 183,
        "9244": 129,
        "9245": 56,
        "9246": 210,
        "9247": 61,
        "9248": 135,
        "9249": 185,
        "9250": 138,
        "9251": 47,
        "9252": 91,
        "9253": 21,
        "9254": 106,
        "9255": 8,
        "9256": 192,
        "9257": 171,
        "9258": 47,
        "9259": 4,
        "9260": 27,
        "9261": 98,
        "9262": 175,
        "9263": 142,
        "9264": 125,
        "9265": 122,
        "9266": 240,
        "9267": 86,
        "9268": 225,
        "9269": 101,
        "9270": 157,
        "9271": 192,
        "9272": 173,
        "9273": 183,
        "9274": 124,
        "9275": 80,
        "9276": 49,
        "9277": 139,
        "9278": 87,
        "9279": 53,
        "9280": 158,
        "9281": 234,
        "9282": 34,
        "9283": 249,
        "9284": 67,
        "9285": 121,
        "9286": 188,
        "9287": 15,
        "9288": 5,
        "9289": 221,
        "9290": 240,
        "9291": 255,
        "9292": 46,
        "9293": 169,
        "9294": 240,
        "9295": 254,
        "9296": 17,
        "9297": 127,
        "9298": 248,
        "9299": 199,
        "9300": 219,
        "9301": 88,
        "9302": 154,
        "9303": 223,
        "9304": 6,
        "9305": 144,
        "9306": 189,
        "9307": 77,
        "9308": 4,
        "9309": 65,
        "9310": 65,
        "9311": 73,
        "9312": 107,
        "9313": 28,
        "9314": 217,
        "9315": 92,
        "9316": 49,
        "9317": 176,
        "9318": 237,
        "9319": 171,
        "9320": 191,
        "9321": 255,
        "9322": 13,
        "9323": 139,
        "9324": 57,
        "9325": 15,
        "9326": 107,
        "9327": 145,
        "9328": 60,
        "9329": 132,
        "9330": 7,
        "9331": 55,
        "9332": 216,
        "9333": 241,
        "9334": 140,
        "9335": 223,
        "9336": 50,
        "9337": 60,
        "9338": 159,
        "9339": 154,
        "9340": 246,
        "9341": 153,
        "9342": 253,
        "9343": 222,
        "9344": 66,
        "9345": 59,
        "9346": 185,
        "9347": 201,
        "9348": 178,
        "9349": 193,
        "9350": 149,
        "9351": 154,
        "9352": 112,
        "9353": 108,
        "9354": 109,
        "9355": 140,
        "9356": 254,
        "9357": 22,
        "9358": 76,
        "9359": 207,
        "9360": 131,
        "9361": 124,
        "9362": 38,
        "9363": 67,
        "9364": 176,
        "9365": 197,
        "9366": 156,
        "9367": 0,
        "9368": 29,
        "9369": 145,
        "9370": 173,
        "9371": 48,
        "9372": 180,
        "9373": 219,
        "9374": 175,
        "9375": 5,
        "9376": 184,
        "9377": 248,
        "9378": 85,
        "9379": 246,
        "9380": 45,
        "9381": 47,
        "9382": 4,
        "9383": 81,
        "9384": 189,
        "9385": 219,
        "9386": 104,
        "9387": 25,
        "9388": 5,
        "9389": 45,
        "9390": 43,
        "9391": 24,
        "9392": 30,
        "9393": 155,
        "9394": 51,
        "9395": 49,
        "9396": 204,
        "9397": 177,
        "9398": 10,
        "9399": 151,
        "9400": 209,
        "9401": 187,
        "9402": 61,
        "9403": 174,
        "9404": 178,
        "9405": 31,
        "9406": 160,
        "9407": 203,
        "9408": 69,
        "9409": 222,
        "9410": 14,
        "9411": 205,
        "9412": 24,
        "9413": 30,
        "9414": 0,
        "9415": 16,
        "9416": 156,
        "9417": 162,
        "9418": 111,
        "9419": 103,
        "9420": 115,
        "9421": 156,
        "9422": 72,
        "9423": 171,
        "9424": 17,
        "9425": 100,
        "9426": 22,
        "9427": 207,
        "9428": 227,
        "9429": 165,
        "9430": 115,
        "9431": 236,
        "9432": 35,
        "9433": 221,
        "9434": 2,
        "9435": 15,
        "9436": 36,
        "9437": 125,
        "9438": 227,
        "9439": 14,
        "9440": 177,
        "9441": 222,
        "9442": 245,
        "9443": 176,
        "9444": 217,
        "9445": 228,
        "9446": 83,
        "9447": 87,
        "9448": 18,
        "9449": 16,
        "9450": 132,
        "9451": 40,
        "9452": 230,
        "9453": 183,
        "9454": 103,
        "9455": 117,
        "9456": 241,
        "9457": 212,
        "9458": 182,
        "9459": 203,
        "9460": 65,
        "9461": 193,
        "9462": 194,
        "9463": 233,
        "9464": 249,
        "9465": 28,
        "9466": 10,
        "9467": 113,
        "9468": 50,
        "9469": 92,
        "9470": 78,
        "9471": 222,
        "9472": 153,
        "9473": 160,
        "9474": 107,
        "9475": 105,
        "9476": 232,
        "9477": 153,
        "9478": 68,
        "9479": 6,
        "9480": 70,
        "9481": 143,
        "9482": 52,
        "9483": 118,
        "9484": 4,
        "9485": 153,
        "9486": 92,
        "9487": 57,
        "9488": 40,
        "9489": 207,
        "9490": 231,
        "9491": 87,
        "9492": 251,
        "9493": 128,
        "9494": 24,
        "9495": 216,
        "9496": 135,
        "9497": 137,
        "9498": 187,
        "9499": 225,
        "9500": 188,
        "9501": 2,
        "9502": 51,
        "9503": 119,
        "9504": 7,
        "9505": 30,
        "9506": 155,
        "9507": 205,
        "9508": 45,
        "9509": 45,
        "9510": 28,
        "9511": 16,
        "9512": 109,
        "9513": 108,
        "9514": 240,
        "9515": 192,
        "9516": 185,
        "9517": 59,
        "9518": 167,
        "9519": 244,
        "9520": 104,
        "9521": 242,
        "9522": 136,
        "9523": 207,
        "9524": 238,
        "9525": 96,
        "9526": 133,
        "9527": 136,
        "9528": 4,
        "9529": 86,
        "9530": 154,
        "9531": 19,
        "9532": 36,
        "9533": 255,
        "9534": 121,
        "9535": 137,
        "9536": 71,
        "9537": 172,
        "9538": 205,
        "9539": 137,
        "9540": 10,
        "9541": 17,
        "9542": 131,
        "9543": 224,
        "9544": 193,
        "9545": 197,
        "9546": 81,
        "9547": 220,
        "9548": 96,
        "9549": 31,
        "9550": 244,
        "9551": 63,
        "9552": 107,
        "9553": 175,
        "9554": 2,
        "9555": 49,
        "9556": 70,
        "9557": 88,
        "9558": 77,
        "9559": 171,
        "9560": 135,
        "9561": 35,
        "9562": 78,
        "9563": 24,
        "9564": 130,
        "9565": 187,
        "9566": 130,
        "9567": 12,
        "9568": 144,
        "9569": 177,
        "9570": 74,
        "9571": 185,
        "9572": 67,
        "9573": 216,
        "9574": 188,
        "9575": 211,
        "9576": 157,
        "9577": 93,
        "9578": 156,
        "9579": 202,
        "9580": 252,
        "9581": 60,
        "9582": 146,
        "9583": 152,
        "9584": 72,
        "9585": 109,
        "9586": 207,
        "9587": 157,
        "9588": 208,
        "9589": 231,
        "9590": 68,
        "9591": 220,
        "9592": 150,
        "9593": 194,
        "9594": 109,
        "9595": 255,
        "9596": 41,
        "9597": 13,
        "9598": 59,
        "9599": 127,
        "9600": 114,
        "9601": 39,
        "9602": 213,
        "9603": 86,
        "9604": 159,
        "9605": 197,
        "9606": 22,
        "9607": 194,
        "9608": 119,
        "9609": 136,
        "9610": 97,
        "9611": 185,
        "9612": 40,
        "9613": 89,
        "9614": 161,
        "9615": 200,
        "9616": 201,
        "9617": 69,
        "9618": 138,
        "9619": 252,
        "9620": 62,
        "9621": 26,
        "9622": 23,
        "9623": 143,
        "9624": 205,
        "9625": 194,
        "9626": 25,
        "9627": 215,
        "9628": 71,
        "9629": 107,
        "9630": 23,
        "9631": 5,
        "9632": 80,
        "9633": 1,
        "9634": 165,
        "9635": 93,
        "9636": 165,
        "9637": 71,
        "9638": 156,
        "9639": 11,
        "9640": 33,
        "9641": 34,
        "9642": 104,
        "9643": 167,
        "9644": 58,
        "9645": 176,
        "9646": 66,
        "9647": 208,
        "9648": 141,
        "9649": 159,
        "9650": 89,
        "9651": 18,
        "9652": 255,
        "9653": 89,
        "9654": 12,
        "9655": 99,
        "9656": 128,
        "9657": 232,
        "9658": 214,
        "9659": 91,
        "9660": 237,
        "9661": 106,
        "9662": 217,
        "9663": 70,
        "9664": 234,
        "9665": 96,
        "9666": 207,
        "9667": 77,
        "9668": 180,
        "9669": 88,
        "9670": 200,
        "9671": 130,
        "9672": 25,
        "9673": 27,
        "9674": 157,
        "9675": 214,
        "9676": 233,
        "9677": 211,
        "9678": 22,
        "9679": 193,
        "9680": 54,
        "9681": 215,
        "9682": 31,
        "9683": 233,
        "9684": 132,
        "9685": 117,
        "9686": 169,
        "9687": 186,
        "9688": 5,
        "9689": 242,
        "9690": 24,
        "9691": 32,
        "9692": 147,
        "9693": 59,
        "9694": 73,
        "9695": 37,
        "9696": 245,
        "9697": 194,
        "9698": 192,
        "9699": 21,
        "9700": 2,
        "9701": 215,
        "9702": 204,
        "9703": 125,
        "9704": 78,
        "9705": 226,
        "9706": 240,
        "9707": 177,
        "9708": 31,
        "9709": 8,
        "9710": 92,
        "9711": 13,
        "9712": 109,
        "9713": 239,
        "9714": 79,
        "9715": 203,
        "9716": 47,
        "9717": 132,
        "9718": 229,
        "9719": 27,
        "9720": 18,
        "9721": 70,
        "9722": 1,
        "9723": 210,
        "9724": 169,
        "9725": 50,
        "9726": 88,
        "9727": 121,
        "9728": 6,
        "9729": 5,
        "9730": 32,
        "9731": 41,
        "9732": 142,
        "9733": 247,
        "9734": 215,
        "9735": 237,
        "9736": 61,
        "9737": 77,
        "9738": 158,
        "9739": 6,
        "9740": 96,
        "9741": 97,
        "9742": 131,
        "9743": 227,
        "9744": 95,
        "9745": 91,
        "9746": 247,
        "9747": 79,
        "9748": 194,
        "9749": 84,
        "9750": 198,
        "9751": 173,
        "9752": 117,
        "9753": 236,
        "9754": 159,
        "9755": 101,
        "9756": 164,
        "9757": 241,
        "9758": 53,
        "9759": 120,
        "9760": 83,
        "9761": 247,
        "9762": 137,
        "9763": 229,
        "9764": 235,
        "9765": 205,
        "9766": 149,
        "9767": 154,
        "9768": 155,
        "9769": 241,
        "9770": 222,
        "9771": 180,
        "9772": 194,
        "9773": 178,
        "9774": 39,
        "9775": 96,
        "9776": 204,
        "9777": 199,
        "9778": 130,
        "9779": 79,
        "9780": 124,
        "9781": 85,
        "9782": 99,
        "9783": 108,
        "9784": 205,
        "9785": 118,
        "9786": 218,
        "9787": 110,
        "9788": 71,
        "9789": 107,
        "9790": 114,
        "9791": 181,
        "9792": 123,
        "9793": 38,
        "9794": 212,
        "9795": 182,
        "9796": 88,
        "9797": 140,
        "9798": 42,
        "9799": 144,
        "9800": 222,
        "9801": 21,
        "9802": 1,
        "9803": 37,
        "9804": 53,
        "9805": 221,
        "9806": 173,
        "9807": 251,
        "9808": 213,
        "9809": 34,
        "9810": 179,
        "9811": 62,
        "9812": 187,
        "9813": 97,
        "9814": 239,
        "9815": 42,
        "9816": 77,
        "9817": 214,
        "9818": 169,
        "9819": 221,
        "9820": 81,
        "9821": 31,
        "9822": 82,
        "9823": 81,
        "9824": 80,
        "9825": 245,
        "9826": 46,
        "9827": 156,
        "9828": 61,
        "9829": 180,
        "9830": 6,
        "9831": 68,
        "9832": 255,
        "9833": 149,
        "9834": 142,
        "9835": 77,
        "9836": 147,
        "9837": 124,
        "9838": 241,
        "9839": 102,
        "9840": 48,
        "9841": 10,
        "9842": 163,
        "9843": 252,
        "9844": 86,
        "9845": 142,
        "9846": 222,
        "9847": 160,
        "9848": 99,
        "9849": 175,
        "9850": 67,
        "9851": 174,
        "9852": 149,
        "9853": 242,
        "9854": 58,
        "9855": 206,
        "9856": 136,
        "9857": 180,
        "9858": 66,
        "9859": 39,
        "9860": 92,
        "9861": 27,
        "9862": 173,
        "9863": 43,
        "9864": 189,
        "9865": 185,
        "9866": 235,
        "9867": 151,
        "9868": 132,
        "9869": 208,
        "9870": 216,
        "9871": 221,
        "9872": 244,
        "9873": 184,
        "9874": 253,
        "9875": 250,
        "9876": 84,
        "9877": 194,
        "9878": 168,
        "9879": 53,
        "9880": 56,
        "9881": 109,
        "9882": 93,
        "9883": 228,
        "9884": 96,
        "9885": 40,
        "9886": 14,
        "9887": 85,
        "9888": 54,
        "9889": 189,
        "9890": 115,
        "9891": 186,
        "9892": 124,
        "9893": 21,
        "9894": 169,
        "9895": 28,
        "9896": 38,
        "9897": 132,
        "9898": 67,
        "9899": 134,
        "9900": 194,
        "9901": 124,
        "9902": 153,
        "9903": 37,
        "9904": 192,
        "9905": 190,
        "9906": 98,
        "9907": 111,
        "9908": 201,
        "9909": 31,
        "9910": 48,
        "9911": 15,
        "9912": 202,
        "9913": 91,
        "9914": 69,
        "9915": 135,
        "9916": 11,
        "9917": 140,
        "9918": 15,
        "9919": 22,
        "9920": 243,
        "9921": 106,
        "9922": 115,
        "9923": 178,
        "9924": 200,
        "9925": 41,
        "9926": 78,
        "9927": 183,
        "9928": 195,
        "9929": 214,
        "9930": 240,
        "9931": 26,
        "9932": 43,
        "9933": 11,
        "9934": 28,
        "9935": 184,
        "9936": 33,
        "9937": 237,
        "9938": 30,
        "9939": 110,
        "9940": 57,
        "9941": 86,
        "9942": 144,
        "9943": 91,
        "9944": 153,
        "9945": 117,
        "9946": 24,
        "9947": 137,
        "9948": 133,
        "9949": 21,
        "9950": 151,
        "9951": 248,
        "9952": 89,
        "9953": 170,
        "9954": 25,
        "9955": 101,
        "9956": 147,
        "9957": 31,
        "9958": 46,
        "9959": 74,
        "9960": 219,
        "9961": 144,
        "9962": 149,
        "9963": 26,
        "9964": 42,
        "9965": 243,
        "9966": 26,
        "9967": 23,
        "9968": 216,
        "9969": 137,
        "9970": 49,
        "9971": 230,
        "9972": 21,
        "9973": 167,
        "9974": 224,
        "9975": 37,
        "9976": 173,
        "9977": 197,
        "9978": 89,
        "9979": 46,
        "9980": 58,
        "9981": 55,
        "9982": 58,
        "9983": 212,
        "9984": 20,
        "9985": 120,
        "9986": 38,
        "9987": 229,
        "9988": 100,
        "9989": 91,
        "9990": 225,
        "9991": 153,
        "9992": 187,
        "9993": 57,
        "9994": 10,
        "9995": 136,
        "9996": 156,
        "9997": 62,
        "9998": 179,
        "9999": 154,
        "10000": 212,
        "10001": 173,
        "10002": 138,
        "10003": 248,
        "10004": 161,
        "10005": 169,
        "10006": 132,
        "10007": 209,
        "10008": 102,
        "10009": 38,
        "10010": 29,
        "10011": 33,
        "10012": 141,
        "10013": 187,
        "10014": 176,
        "10015": 1,
        "10016": 11,
        "10017": 71,
        "10018": 3,
        "10019": 155,
        "10020": 235,
        "10021": 204,
        "10022": 50,
        "10023": 206,
        "10024": 233,
        "10025": 207,
        "10026": 182,
        "10027": 171,
        "10028": 73,
        "10029": 91,
        "10030": 183,
        "10031": 214,
        "10032": 186,
        "10033": 233,
        "10034": 113,
        "10035": 28,
        "10036": 90,
        "10037": 16,
        "10038": 207,
        "10039": 111,
        "10040": 5,
        "10041": 181,
        "10042": 62,
        "10043": 144,
        "10044": 49,
        "10045": 175,
        "10046": 2,
        "10047": 55,
        "10048": 133,
        "10049": 10,
        "10050": 57,
        "10051": 40,
        "10052": 22,
        "10053": 113,
        "10054": 8,
        "10055": 2,
        "10056": 63,
        "10057": 77,
        "10058": 102,
        "10059": 192,
        "10060": 91,
        "10061": 89,
        "10062": 64,
        "10063": 40,
        "10064": 72,
        "10065": 82,
        "10066": 123,
        "10067": 248,
        "10068": 168,
        "10069": 86,
        "10070": 199,
        "10071": 223,
        "10072": 49,
        "10073": 168,
        "10074": 254,
        "10075": 142,
        "10076": 24,
        "10077": 251,
        "10078": 126,
        "10079": 113,
        "10080": 81,
        "10081": 181,
        "10082": 107,
        "10083": 92,
        "10084": 181,
        "10085": 96,
        "10086": 178,
        "10087": 174,
        "10088": 205,
        "10089": 62,
        "10090": 215,
        "10091": 0,
        "10092": 187,
        "10093": 92,
        "10094": 47,
        "10095": 149,
        "10096": 230,
        "10097": 22,
        "10098": 231,
        "10099": 90,
        "10100": 78,
        "10101": 64,
        "10102": 73,
        "10103": 232,
        "10104": 1,
        "10105": 63,
        "10106": 253,
        "10107": 166,
        "10108": 10,
        "10109": 26,
        "10110": 152,
        "10111": 5,
        "10112": 42,
        "10113": 12,
        "10114": 41,
        "10115": 82,
        "10116": 247,
        "10117": 102,
        "10118": 72,
        "10119": 59,
        "10120": 108,
        "10121": 35,
        "10122": 150,
        "10123": 84,
        "10124": 213,
        "10125": 47,
        "10126": 2,
        "10127": 84,
        "10128": 231,
        "10129": 56,
        "10130": 202,
        "10131": 255,
        "10132": 140,
        "10133": 195,
        "10134": 84,
        "10135": 17,
        "10136": 238,
        "10137": 181,
        "10138": 190,
        "10139": 44,
        "10140": 125,
        "10141": 68,
        "10142": 193,
        "10143": 97,
        "10144": 205,
        "10145": 223,
        "10146": 165,
        "10147": 140,
        "10148": 95,
        "10149": 168,
        "10150": 40,
        "10151": 14,
        "10152": 58,
        "10153": 147,
        "10154": 201,
        "10155": 86,
        "10156": 27,
        "10157": 120,
        "10158": 137,
        "10159": 48,
        "10160": 117,
        "10161": 217,
        "10162": 116,
        "10163": 22,
        "10164": 1,
        "10165": 147,
        "10166": 59,
        "10167": 22,
        "10168": 186,
        "10169": 29,
        "10170": 23,
        "10171": 245,
        "10172": 159,
        "10173": 182,
        "10174": 252,
        "10175": 70,
        "10176": 30,
        "10177": 28,
        "10178": 166,
        "10179": 114,
        "10180": 215,
        "10181": 237,
        "10182": 231,
        "10183": 209,
        "10184": 119,
        "10185": 204,
        "10186": 18,
        "10187": 131,
        "10188": 44,
        "10189": 53,
        "10190": 67,
        "10191": 12,
        "10192": 231,
        "10193": 213,
        "10194": 168,
        "10195": 21,
        "10196": 60,
        "10197": 49,
        "10198": 237,
        "10199": 49,
        "10200": 176,
        "10201": 20,
        "10202": 197,
        "10203": 77,
        "10204": 176,
        "10205": 123,
        "10206": 160,
        "10207": 23,
        "10208": 157,
        "10209": 86,
        "10210": 108,
        "10211": 160,
        "10212": 26,
        "10213": 30,
        "10214": 250,
        "10215": 137,
        "10216": 122,
        "10217": 113,
        "10218": 235,
        "10219": 29,
        "10220": 90,
        "10221": 213,
        "10222": 139,
        "10223": 36,
        "10224": 143,
        "10225": 226,
        "10226": 110,
        "10227": 17,
        "10228": 112,
        "10229": 34,
        "10230": 215,
        "10231": 160,
        "10232": 236,
        "10233": 23,
        "10234": 136,
        "10235": 18,
        "10236": 197,
        "10237": 145,
        "10238": 58,
        "10239": 191,
        "10240": 15,
        "10241": 138,
        "10242": 49,
        "10243": 50,
        "10244": 83,
        "10245": 66,
        "10246": 83,
        "10247": 5,
        "10248": 51,
        "10249": 187,
        "10250": 173,
        "10251": 83,
        "10252": 160,
        "10253": 161,
        "10254": 33,
        "10255": 202,
        "10256": 95,
        "10257": 204,
        "10258": 59,
        "10259": 215,
        "10260": 220,
        "10261": 112,
        "10262": 159,
        "10263": 243,
        "10264": 45,
        "10265": 221,
        "10266": 107,
        "10267": 159,
        "10268": 205,
        "10269": 19,
        "10270": 10,
        "10271": 72,
        "10272": 228,
        "10273": 83,
        "10274": 187,
        "10275": 41,
        "10276": 203,
        "10277": 8,
        "10278": 119,
        "10279": 165,
        "10280": 209,
        "10281": 0,
        "10282": 31,
        "10283": 188,
        "10284": 213,
        "10285": 75,
        "10286": 115,
        "10287": 1,
        "10288": 7,
        "10289": 16,
        "10290": 136,
        "10291": 69,
        "10292": 208,
        "10293": 44,
        "10294": 41,
        "10295": 135,
        "10296": 214,
        "10297": 113,
        "10298": 152,
        "10299": 207,
        "10300": 143,
        "10301": 245,
        "10302": 189,
        "10303": 159,
        "10304": 86,
        "10305": 135,
        "10306": 100,
        "10307": 192,
        "10308": 225,
        "10309": 27,
        "10310": 197,
        "10311": 197,
        "10312": 202,
        "10313": 133,
        "10314": 78,
        "10315": 108,
        "10316": 22,
        "10317": 189,
        "10318": 144,
        "10319": 186,
        "10320": 171,
        "10321": 213,
        "10322": 96,
        "10323": 89,
        "10324": 140,
        "10325": 121,
        "10326": 170,
        "10327": 13,
        "10328": 78,
        "10329": 123,
        "10330": 165,
        "10331": 125,
        "10332": 176,
        "10333": 153,
        "10334": 26,
        "10335": 3,
        "10336": 207,
        "10337": 83,
        "10338": 193,
        "10339": 125,
        "10340": 156,
        "10341": 238,
        "10342": 90,
        "10343": 98,
        "10344": 38,
        "10345": 118,
        "10346": 83,
        "10347": 195,
        "10348": 157,
        "10349": 37,
        "10350": 71,
        "10351": 157,
        "10352": 110,
        "10353": 254,
        "10354": 129,
        "10355": 5,
        "10356": 34,
        "10357": 101,
        "10358": 124,
        "10359": 33,
        "10360": 55,
        "10361": 130,
        "10362": 118,
        "10363": 179,
        "10364": 180,
        "10365": 53,
        "10366": 98,
        "10367": 241,
        "10368": 196,
        "10369": 187,
        "10370": 231,
        "10371": 126,
        "10372": 106,
        "10373": 73,
        "10374": 236,
        "10375": 11,
        "10376": 148,
        "10377": 174,
        "10378": 14,
        "10379": 140,
        "10380": 227,
        "10381": 189,
        "10382": 162,
        "10383": 192,
        "10384": 212,
        "10385": 7,
        "10386": 15,
        "10387": 147,
        "10388": 184,
        "10389": 36,
        "10390": 6,
        "10391": 155,
        "10392": 253,
        "10393": 196,
        "10394": 26,
        "10395": 51,
        "10396": 5,
        "10397": 131,
        "10398": 87,
        "10399": 254,
        "10400": 87,
        "10401": 105,
        "10402": 22,
        "10403": 220,
        "10404": 232,
        "10405": 76,
        "10406": 4,
        "10407": 52,
        "10408": 64,
        "10409": 170,
        "10410": 199,
        "10411": 51,
        "10412": 66,
        "10413": 107,
        "10414": 175,
        "10415": 198,
        "10416": 233,
        "10417": 47,
        "10418": 77,
        "10419": 85,
        "10420": 129,
        "10421": 104,
        "10422": 135,
        "10423": 71,
        "10424": 254,
        "10425": 78,
        "10426": 139,
        "10427": 48,
        "10428": 181,
        "10429": 98,
        "10430": 79,
        "10431": 19,
        "10432": 225,
        "10433": 90,
        "10434": 93,
        "10435": 182,
        "10436": 59,
        "10437": 169,
        "10438": 193,
        "10439": 58,
        "10440": 169,
        "10441": 103,
        "10442": 236,
        "10443": 212,
        "10444": 202,
        "10445": 68,
        "10446": 75,
        "10447": 74,
        "10448": 68,
        "10449": 58,
        "10450": 85,
        "10451": 188,
        "10452": 236,
        "10453": 223,
        "10454": 213,
        "10455": 117,
        "10456": 184,
        "10457": 86,
        "10458": 72,
        "10459": 152,
        "10460": 135,
        "10461": 199,
        "10462": 188,
        "10463": 8,
        "10464": 32,
        "10465": 53,
        "10466": 48,
        "10467": 21,
        "10468": 130,
        "10469": 153,
        "10470": 114,
        "10471": 82,
        "10472": 95,
        "10473": 128,
        "10474": 92,
        "10475": 119,
        "10476": 30,
        "10477": 220,
        "10478": 165,
        "10479": 51,
        "10480": 148,
        "10481": 97,
        "10482": 162,
        "10483": 74,
        "10484": 32,
        "10485": 15,
        "10486": 153,
        "10487": 206,
        "10488": 245,
        "10489": 196,
        "10490": 89,
        "10491": 137,
        "10492": 176,
        "10493": 42,
        "10494": 68,
        "10495": 226,
        "10496": 155,
        "10497": 24,
        "10498": 50,
        "10499": 6,
        "10500": 66,
        "10501": 7,
        "10502": 108,
        "10503": 82,
        "10504": 212,
        "10505": 241,
        "10506": 30,
        "10507": 232,
        "10508": 9,
        "10509": 233,
        "10510": 204,
        "10511": 158,
        "10512": 242,
        "10513": 164,
        "10514": 87,
        "10515": 154,
        "10516": 29,
        "10517": 106,
        "10518": 102,
        "10519": 174,
        "10520": 53,
        "10521": 121,
        "10522": 201,
        "10523": 2,
        "10524": 129,
        "10525": 73,
        "10526": 43,
        "10527": 61,
        "10528": 56,
        "10529": 144,
        "10530": 35,
        "10531": 138,
        "10532": 134,
        "10533": 216,
        "10534": 208,
        "10535": 86,
        "10536": 71,
        "10537": 195,
        "10538": 14,
        "10539": 31,
        "10540": 21,
        "10541": 192,
        "10542": 124,
        "10543": 34,
        "10544": 88,
        "10545": 54,
        "10546": 133,
        "10547": 234,
        "10548": 195,
        "10549": 242,
        "10550": 227,
        "10551": 50,
        "10552": 101,
        "10553": 52,
        "10554": 167,
        "10555": 7,
        "10556": 99,
        "10557": 245,
        "10558": 169,
        "10559": 33,
        "10560": 231,
        "10561": 143,
        "10562": 136,
        "10563": 102,
        "10564": 17,
        "10565": 134,
        "10566": 150,
        "10567": 34,
        "10568": 251,
        "10569": 56,
        "10570": 213,
        "10571": 5,
        "10572": 87,
        "10573": 237,
        "10574": 236,
        "10575": 41,
        "10576": 88,
        "10577": 247,
        "10578": 30,
        "10579": 147,
        "10580": 12,
        "10581": 233,
        "10582": 218,
        "10583": 122,
        "10584": 177,
        "10585": 150,
        "10586": 234,
        "10587": 192,
        "10588": 1,
        "10589": 8,
        "10590": 13,
        "10591": 231,
        "10592": 252,
        "10593": 87,
        "10594": 16,
        "10595": 238,
        "10596": 118,
        "10597": 145,
        "10598": 249,
        "10599": 128,
        "10600": 170,
        "10601": 185,
        "10602": 91,
        "10603": 148,
        "10604": 106,
        "10605": 173,
        "10606": 62,
        "10607": 36,
        "10608": 185,
        "10609": 10,
        "10610": 235,
        "10611": 53,
        "10612": 98,
        "10613": 85,
        "10614": 186,
        "10615": 16,
        "10616": 139,
        "10617": 196,
        "10618": 175,
        "10619": 23,
        "10620": 93,
        "10621": 203,
        "10622": 123,
        "10623": 238,
        "10624": 5,
        "10625": 148,
        "10626": 146,
        "10627": 255,
        "10628": 239,
        "10629": 10,
        "10630": 110,
        "10631": 146,
        "10632": 242,
        "10633": 194,
        "10634": 211,
        "10635": 216,
        "10636": 54,
        "10637": 69,
        "10638": 26,
        "10639": 245,
        "10640": 107,
        "10641": 75,
        "10642": 255,
        "10643": 252,
        "10644": 213,
        "10645": 3,
        "10646": 186,
        "10647": 30,
        "10648": 201,
        "10649": 56,
        "10650": 198,
        "10651": 163,
        "10652": 254,
        "10653": 132,
        "10654": 135,
        "10655": 251,
        "10656": 135,
        "10657": 79,
        "10658": 243,
        "10659": 206,
        "10660": 240,
        "10661": 164,
        "10662": 119,
        "10663": 158,
        "10664": 165,
        "10665": 84,
        "10666": 128,
        "10667": 58,
        "10668": 14,
        "10669": 224,
        "10670": 222,
        "10671": 123,
        "10672": 83,
        "10673": 145,
        "10674": 108,
        "10675": 36,
        "10676": 209,
        "10677": 46,
        "10678": 191,
        "10679": 134,
        "10680": 225,
        "10681": 184,
        "10682": 204,
        "10683": 127,
        "10684": 225,
        "10685": 215,
        "10686": 120,
        "10687": 166,
        "10688": 127,
        "10689": 178,
        "10690": 9,
        "10691": 35,
        "10692": 116,
        "10693": 156,
        "10694": 231,
        "10695": 0,
        "10696": 54,
        "10697": 6,
        "10698": 249,
        "10699": 218,
        "10700": 37,
        "10701": 124,
        "10702": 164,
        "10703": 84,
        "10704": 196,
        "10705": 157,
        "10706": 208,
        "10707": 48,
        "10708": 174,
        "10709": 92,
        "10710": 96,
        "10711": 8,
        "10712": 111,
        "10713": 32,
        "10714": 23,
        "10715": 24,
        "10716": 199,
        "10717": 223,
        "10718": 209,
        "10719": 93,
        "10720": 52,
        "10721": 63,
        "10722": 18,
        "10723": 232,
        "10724": 55,
        "10725": 180,
        "10726": 145,
        "10727": 123,
        "10728": 43,
        "10729": 51,
        "10730": 69,
        "10731": 153,
        "10732": 109,
        "10733": 111,
        "10734": 88,
        "10735": 79,
        "10736": 70,
        "10737": 142,
        "10738": 68,
        "10739": 174,
        "10740": 120,
        "10741": 224,
        "10742": 69,
        "10743": 97,
        "10744": 206,
        "10745": 125,
        "10746": 191,
        "10747": 64,
        "10748": 239,
        "10749": 121,
        "10750": 128,
        "10751": 23,
        "10752": 98,
        "10753": 125,
        "10754": 252,
        "10755": 203,
        "10756": 92,
        "10757": 129,
        "10758": 99,
        "10759": 91,
        "10760": 151,
        "10761": 11,
        "10762": 222,
        "10763": 173,
        "10764": 175,
        "10765": 133,
        "10766": 246,
        "10767": 229,
        "10768": 236,
        "10769": 111,
        "10770": 176,
        "10771": 175,
        "10772": 77,
        "10773": 77,
        "10774": 250,
        "10775": 205,
        "10776": 88,
        "10777": 15,
        "10778": 56,
        "10779": 88,
        "10780": 55,
        "10781": 61,
        "10782": 199,
        "10783": 185,
        "10784": 14,
        "10785": 198,
        "10786": 109,
        "10787": 176,
        "10788": 174,
        "10789": 206,
        "10790": 126,
        "10791": 49,
        "10792": 50,
        "10793": 123,
        "10794": 85,
        "10795": 124,
        "10796": 227,
        "10797": 162,
        "10798": 78,
        "10799": 94,
        "10800": 74,
        "10801": 46,
        "10802": 203,
        "10803": 56,
        "10804": 213,
        "10805": 201,
        "10806": 98,
        "10807": 255,
        "10808": 178,
        "10809": 176,
        "10810": 87,
        "10811": 25,
        "10812": 48,
        "10813": 136,
        "10814": 0,
        "10815": 205,
        "10816": 189,
        "10817": 14,
        "10818": 139,
        "10819": 243,
        "10820": 124,
        "10821": 33,
        "10822": 15,
        "10823": 43,
        "10824": 100,
        "10825": 147,
        "10826": 212,
        "10827": 137,
        "10828": 166,
        "10829": 83,
        "10830": 164,
        "10831": 253,
        "10832": 98,
        "10833": 240,
        "10834": 167,
        "10835": 201,
        "10836": 222,
        "10837": 146,
        "10838": 7,
        "10839": 62,
        "10840": 75,
        "10841": 231,
        "10842": 209,
        "10843": 133,
        "10844": 180,
        "10845": 134,
        "10846": 188,
        "10847": 217,
        "10848": 126,
        "10849": 249,
        "10850": 205,
        "10851": 237,
        "10852": 223,
        "10853": 122,
        "10854": 176,
        "10855": 63,
        "10856": 33,
        "10857": 227,
        "10858": 97,
        "10859": 39,
        "10860": 56,
        "10861": 173,
        "10862": 12,
        "10863": 52,
        "10864": 124,
        "10865": 243,
        "10866": 93,
        "10867": 190,
        "10868": 156,
        "10869": 40,
        "10870": 82,
        "10871": 91,
        "10872": 13,
        "10873": 110,
        "10874": 142,
        "10875": 30,
        "10876": 160,
        "10877": 200,
        "10878": 77,
        "10879": 102,
        "10880": 41,
        "10881": 37,
        "10882": 106,
        "10883": 232,
        "10884": 44,
        "10885": 108,
        "10886": 111,
        "10887": 19,
        "10888": 106,
        "10889": 150,
        "10890": 242,
        "10891": 47,
        "10892": 0,
        "10893": 138,
        "10894": 209,
        "10895": 199,
        "10896": 19,
        "10897": 191,
        "10898": 142,
        "10899": 234,
        "10900": 88,
        "10901": 112,
        "10902": 21,
        "10903": 215,
        "10904": 68,
        "10905": 232,
        "10906": 131,
        "10907": 1,
        "10908": 91,
        "10909": 157,
        "10910": 101,
        "10911": 82,
        "10912": 185,
        "10913": 243,
        "10914": 118,
        "10915": 236,
        "10916": 159,
        "10917": 228,
        "10918": 93,
        "10919": 247,
        "10920": 205,
        "10921": 202,
        "10922": 160,
        "10923": 7,
        "10924": 236,
        "10925": 128,
        "10926": 22,
        "10927": 70,
        "10928": 195,
        "10929": 231,
        "10930": 190,
        "10931": 22,
        "10932": 98,
        "10933": 165,
        "10934": 14,
        "10935": 55,
        "10936": 182,
        "10937": 113,
        "10938": 165,
        "10939": 1,
        "10940": 60,
        "10941": 0,
        "10942": 27,
        "10943": 79,
        "10944": 34,
        "10945": 168,
        "10946": 237,
        "10947": 138,
        "10948": 183,
        "10949": 250,
        "10950": 73,
        "10951": 94,
        "10952": 6,
        "10953": 65,
        "10954": 203,
        "10955": 233,
        "10956": 52,
        "10957": 254,
        "10958": 121,
        "10959": 26,
        "10960": 120,
        "10961": 185,
        "10962": 245,
        "10963": 97,
        "10964": 106,
        "10965": 40,
        "10966": 7,
        "10967": 95,
        "10968": 251,
        "10969": 37,
        "10970": 75,
        "10971": 240,
        "10972": 126,
        "10973": 91,
        "10974": 81,
        "10975": 178,
        "10976": 201,
        "10977": 71,
        "10978": 242,
        "10979": 101,
        "10980": 18,
        "10981": 206,
        "10982": 227,
        "10983": 74,
        "10984": 186,
        "10985": 170,
        "10986": 103,
        "10987": 214,
        "10988": 164,
        "10989": 28,
        "10990": 187,
        "10991": 136,
        "10992": 163,
        "10993": 203,
        "10994": 204,
        "10995": 144,
        "10996": 73,
        "10997": 13,
        "10998": 87,
        "10999": 151,
        "11000": 117,
        "11001": 229,
        "11002": 5,
        "11003": 52,
        "11004": 93,
        "11005": 198,
        "11006": 59,
        "11007": 0,
        "11008": 241,
        "11009": 159,
        "11010": 50,
        "11011": 147,
        "11012": 138,
        "11013": 20,
        "11014": 41,
        "11015": 233,
        "11016": 194,
        "11017": 186,
        "11018": 121,
        "11019": 87,
        "11020": 6,
        "11021": 82,
        "11022": 68,
        "11023": 163,
        "11024": 96,
        "11025": 60,
        "11026": 141,
        "11027": 150,
        "11028": 29,
        "11029": 18,
        "11030": 25,
        "11031": 138,
        "11032": 255,
        "11033": 181,
        "11034": 174,
        "11035": 137,
        "11036": 250,
        "11037": 116,
        "11038": 22,
        "11039": 4,
        "11040": 130,
        "11041": 24,
        "11042": 166,
        "11043": 70,
        "11044": 84,
        "11045": 238,
        "11046": 2,
        "11047": 98,
        "11048": 136,
        "11049": 162,
        "11050": 10,
        "11051": 84,
        "11052": 165,
        "11053": 78,
        "11054": 130,
        "11055": 164,
        "11056": 139,
        "11057": 73,
        "11058": 28,
        "11059": 166,
        "11060": 225,
        "11061": 172,
        "11062": 17,
        "11063": 239,
        "11064": 20,
        "11065": 199,
        "11066": 159,
        "11067": 63,
        "11068": 148,
        "11069": 129,
        "11070": 110,
        "11071": 6,
        "11072": 117,
        "11073": 24,
        "11074": 195,
        "11075": 28,
        "11076": 178,
        "11077": 237,
        "11078": 150,
        "11079": 16,
        "11080": 223,
        "11081": 90,
        "11082": 143,
        "11083": 9,
        "11084": 68,
        "11085": 16,
        "11086": 51,
        "11087": 183,
        "11088": 118,
        "11089": 161,
        "11090": 221,
        "11091": 134,
        "11092": 190,
        "11093": 146,
        "11094": 121,
        "11095": 217,
        "11096": 252,
        "11097": 123,
        "11098": 150,
        "11099": 109,
        "11100": 5,
        "11101": 214,
        "11102": 254,
        "11103": 67,
        "11104": 164,
        "11105": 47,
        "11106": 144,
        "11107": 184,
        "11108": 111,
        "11109": 179,
        "11110": 168,
        "11111": 103,
        "11112": 6,
        "11113": 99,
        "11114": 128,
        "11115": 207,
        "11116": 100,
        "11117": 0,
        "11118": 232,
        "11119": 249,
        "11120": 127,
        "11121": 58,
        "11122": 23,
        "11123": 190,
        "11124": 91,
        "11125": 107,
        "11126": 22,
        "11127": 30,
        "11128": 0,
        "11129": 211,
        "11130": 236,
        "11131": 9,
        "11132": 192,
        "11133": 144,
        "11134": 141,
        "11135": 124,
        "11136": 20,
        "11137": 96,
        "11138": 135,
        "11139": 31,
        "11140": 146,
        "11141": 210,
        "11142": 195,
        "11143": 154,
        "11144": 7,
        "11145": 11,
        "11146": 171,
        "11147": 53,
        "11148": 160,
        "11149": 51,
        "11150": 129,
        "11151": 69,
        "11152": 20,
        "11153": 179,
        "11154": 26,
        "11155": 240,
        "11156": 125,
        "11157": 56,
        "11158": 113,
        "11159": 222,
        "11160": 25,
        "11161": 192,
        "11162": 172,
        "11163": 227,
        "11164": 65,
        "11165": 105,
        "11166": 248,
        "11167": 241,
        "11168": 59,
        "11169": 136,
        "11170": 18,
        "11171": 222,
        "11172": 180,
        "11173": 237,
        "11174": 43,
        "11175": 193,
        "11176": 5,
        "11177": 92,
        "11178": 253,
        "11179": 107,
        "11180": 41,
        "11181": 166,
        "11182": 164,
        "11183": 75,
        "11184": 199,
        "11185": 68,
        "11186": 107,
        "11187": 150,
        "11188": 28,
        "11189": 163,
        "11190": 152,
        "11191": 107,
        "11192": 57,
        "11193": 246,
        "11194": 16,
        "11195": 83,
        "11196": 153,
        "11197": 11,
        "11198": 150,
        "11199": 171,
        "11200": 224,
        "11201": 254,
        "11202": 12,
        "11203": 85,
        "11204": 178,
        "11205": 28,
        "11206": 95,
        "11207": 166,
        "11208": 137,
        "11209": 220,
        "11210": 151,
        "11211": 12,
        "11212": 131,
        "11213": 114,
        "11214": 30,
        "11215": 85,
        "11216": 166,
        "11217": 21,
        "11218": 108,
        "11219": 67,
        "11220": 242,
        "11221": 137,
        "11222": 135,
        "11223": 135,
        "11224": 10,
        "11225": 141,
        "11226": 169,
        "11227": 44,
        "11228": 218,
        "11229": 241,
        "11230": 41,
        "11231": 54,
        "11232": 198,
        "11233": 164,
        "11234": 168,
        "11235": 0,
        "11236": 22,
        "11237": 84,
        "11238": 145,
        "11239": 126,
        "11240": 45,
        "11241": 236,
        "11242": 38,
        "11243": 106,
        "11244": 71,
        "11245": 80,
        "11246": 218,
        "11247": 133,
        "11248": 174,
        "11249": 160,
        "11250": 232,
        "11251": 12,
        "11252": 174,
        "11253": 51,
        "11254": 185,
        "11255": 211,
        "11256": 56,
        "11257": 167,
        "11258": 165,
        "11259": 80,
        "11260": 233,
        "11261": 133,
        "11262": 139,
        "11263": 23,
        "11264": 20,
        "11265": 195,
        "11266": 203,
        "11267": 64,
        "11268": 241,
        "11269": 244,
        "11270": 34,
        "11271": 134,
        "11272": 36,
        "11273": 120,
        "11274": 103,
        "11275": 126,
        "11276": 90,
        "11277": 61,
        "11278": 6,
        "11279": 243,
        "11280": 176,
        "11281": 114,
        "11282": 32,
        "11283": 42,
        "11284": 203,
        "11285": 27,
        "11286": 6,
        "11287": 205,
        "11288": 93,
        "11289": 8,
        "11290": 55,
        "11291": 70,
        "11292": 118,
        "11293": 182,
        "11294": 249,
        "11295": 76,
        "11296": 106,
        "11297": 179,
        "11298": 141,
        "11299": 232,
        "11300": 162,
        "11301": 53,
        "11302": 21,
        "11303": 210,
        "11304": 51,
        "11305": 65,
        "11306": 108,
        "11307": 53,
        "11308": 53,
        "11309": 103,
        "11310": 84,
        "11311": 95,
        "11312": 22,
        "11313": 166,
        "11314": 95,
        "11315": 76,
        "11316": 180,
        "11317": 210,
        "11318": 151,
        "11319": 0,
        "11320": 113,
        "11321": 25,
        "11322": 172,
        "11323": 177,
        "11324": 213,
        "11325": 89,
        "11326": 185,
        "11327": 28,
        "11328": 244,
        "11329": 116,
        "11330": 252,
        "11331": 246,
        "11332": 142,
        "11333": 178,
        "11334": 22,
        "11335": 187,
        "11336": 78,
        "11337": 39,
        "11338": 67,
        "11339": 253,
        "11340": 183,
        "11341": 89,
        "11342": 0,
        "11343": 203,
        "11344": 21,
        "11345": 76,
        "11346": 150,
        "11347": 119,
        "11348": 10,
        "11349": 25,
        "11350": 168,
        "11351": 150,
        "11352": 226,
        "11353": 11,
        "11354": 56,
        "11355": 230,
        "11356": 246,
        "11357": 243,
        "11358": 146,
        "11359": 38,
        "11360": 47,
        "11361": 53,
        "11362": 2,
        "11363": 198,
        "11364": 179,
        "11365": 4,
        "11366": 48,
        "11367": 249,
        "11368": 50,
        "11369": 101,
        "11370": 75,
        "11371": 128,
        "11372": 165,
        "11373": 222,
        "11374": 24,
        "11375": 38,
        "11376": 71,
        "11377": 93,
        "11378": 171,
        "11379": 250,
        "11380": 150,
        "11381": 33,
        "11382": 241,
        "11383": 104,
        "11384": 78,
        "11385": 17,
        "11386": 162,
        "11387": 123,
        "11388": 41,
        "11389": 122,
        "11390": 46,
        "11391": 171,
        "11392": 80,
        "11393": 28,
        "11394": 18,
        "11395": 24,
        "11396": 38,
        "11397": 239,
        "11398": 187,
        "11399": 244,
        "11400": 52,
        "11401": 236,
        "11402": 37,
        "11403": 194,
        "11404": 197,
        "11405": 172,
        "11406": 19,
        "11407": 188,
        "11408": 21,
        "11409": 126,
        "11410": 213,
        "11411": 234,
        "11412": 123,
        "11413": 47,
        "11414": 82,
        "11415": 72,
        "11416": 71,
        "11417": 192,
        "11418": 110,
        "11419": 99,
        "11420": 81,
        "11421": 46,
        "11422": 137,
        "11423": 230,
        "11424": 149,
        "11425": 13,
        "11426": 11,
        "11427": 220,
        "11428": 75,
        "11429": 162,
        "11430": 63,
        "11431": 63,
        "11432": 9,
        "11433": 125,
        "11434": 13,
        "11435": 7,
        "11436": 77,
        "11437": 154,
        "11438": 151,
        "11439": 113,
        "11440": 74,
        "11441": 231,
        "11442": 33,
        "11443": 158,
        "11444": 124,
        "11445": 107,
        "11446": 221,
        "11447": 152,
        "11448": 73,
        "11449": 66,
        "11450": 168,
        "11451": 160,
        "11452": 175,
        "11453": 250,
        "11454": 57,
        "11455": 241,
        "11456": 225,
        "11457": 63,
        "11458": 9,
        "11459": 166,
        "11460": 6,
        "11461": 221,
        "11462": 6,
        "11463": 177,
        "11464": 241,
        "11465": 108,
        "11466": 194,
        "11467": 208,
        "11468": 70,
        "11469": 186,
        "11470": 207,
        "11471": 136,
        "11472": 9,
        "11473": 37,
        "11474": 139,
        "11475": 17,
        "11476": 160,
        "11477": 219,
        "11478": 251,
        "11479": 94,
        "11480": 7,
        "11481": 110,
        "11482": 250,
        "11483": 78,
        "11484": 5,
        "11485": 59,
        "11486": 163,
        "11487": 16,
        "11488": 193,
        "11489": 41,
        "11490": 246,
        "11491": 45,
        "11492": 124,
        "11493": 42,
        "11494": 171,
        "11495": 39,
        "11496": 224,
        "11497": 133,
        "11498": 142,
        "11499": 27,
        "11500": 199,
        "11501": 85,
        "11502": 250,
        "11503": 93,
        "11504": 120,
        "11505": 226,
        "11506": 199,
        "11507": 226,
        "11508": 152,
        "11509": 246,
        "11510": 81,
        "11511": 137,
        "11512": 101,
        "11513": 23,
        "11514": 250,
        "11515": 60,
        "11516": 199,
        "11517": 51,
        "11518": 172,
        "11519": 171,
        "11520": 135,
        "11521": 100,
        "11522": 184,
        "11523": 63,
        "11524": 79,
        "11525": 30,
        "11526": 149,
        "11527": 122,
        "11528": 220,
        "11529": 253,
        "11530": 9,
        "11531": 170,
        "11532": 126,
        "11533": 193,
        "11534": 25,
        "11535": 233,
        "11536": 175,
        "11537": 108,
        "11538": 36,
        "11539": 232,
        "11540": 250,
        "11541": 86,
        "11542": 134,
        "11543": 157,
        "11544": 140,
        "11545": 105,
        "11546": 254,
        "11547": 60,
        "11548": 155,
        "11549": 198,
        "11550": 119,
        "11551": 194,
        "11552": 102,
        "11553": 127,
        "11554": 149,
        "11555": 219,
        "11556": 100,
        "11557": 238,
        "11558": 75,
        "11559": 216,
        "11560": 81,
        "11561": 83,
        "11562": 113,
        "11563": 191,
        "11564": 209,
        "11565": 185,
        "11566": 110,
        "11567": 174,
        "11568": 186,
        "11569": 35,
        "11570": 184,
        "11571": 155,
        "11572": 47,
        "11573": 56,
        "11574": 47,
        "11575": 10,
        "11576": 179,
        "11577": 12,
        "11578": 208,
        "11579": 237,
        "11580": 80,
        "11581": 74,
        "11582": 185,
        "11583": 78,
        "11584": 82,
        "11585": 133,
        "11586": 61,
        "11587": 133,
        "11588": 141,
        "11589": 138,
        "11590": 84,
        "11591": 141,
        "11592": 166,
        "11593": 223,
        "11594": 66,
        "11595": 234,
        "11596": 170,
        "11597": 205,
        "11598": 96,
        "11599": 248,
        "11600": 163,
        "11601": 92,
        "11602": 90,
        "11603": 154,
        "11604": 128,
        "11605": 245,
        "11606": 83,
        "11607": 85,
        "11608": 48,
        "11609": 74,
        "11610": 145,
        "11611": 161,
        "11612": 216,
        "11613": 63,
        "11614": 203,
        "11615": 93,
        "11616": 212,
        "11617": 146,
        "11618": 106,
        "11619": 89,
        "11620": 147,
        "11621": 164,
        "11622": 18,
        "11623": 183,
        "11624": 203,
        "11625": 246,
        "11626": 231,
        "11627": 192,
        "11628": 55,
        "11629": 169,
        "11630": 190,
        "11631": 164,
        "11632": 15,
        "11633": 148,
        "11634": 210,
        "11635": 215,
        "11636": 179,
        "11637": 241,
        "11638": 227,
        "11639": 17,
        "11640": 66,
        "11641": 213,
        "11642": 198,
        "11643": 238,
        "11644": 192,
        "11645": 254,
        "11646": 97,
        "11647": 32,
        "11648": 42,
        "11649": 130,
        "11650": 141,
        "11651": 93,
        "11652": 241,
        "11653": 34,
        "11654": 182,
        "11655": 143,
        "11656": 1,
        "11657": 4,
        "11658": 21,
        "11659": 119,
        "11660": 127,
        "11661": 42,
        "11662": 219,
        "11663": 24,
        "11664": 34,
        "11665": 126,
        "11666": 147,
        "11667": 119,
        "11668": 123,
        "11669": 15,
        "11670": 11,
        "11671": 135,
        "11672": 35,
        "11673": 41,
        "11674": 108,
        "11675": 19,
        "11676": 235,
        "11677": 61,
        "11678": 25,
        "11679": 193,
        "11680": 132,
        "11681": 75,
        "11682": 253,
        "11683": 95,
        "11684": 66,
        "11685": 75,
        "11686": 63,
        "11687": 58,
        "11688": 154,
        "11689": 50,
        "11690": 87,
        "11691": 8,
        "11692": 85,
        "11693": 237,
        "11694": 222,
        "11695": 180,
        "11696": 115,
        "11697": 55,
        "11698": 202,
        "11699": 221,
        "11700": 173,
        "11701": 149,
        "11702": 193,
        "11703": 65,
        "11704": 244,
        "11705": 74,
        "11706": 86,
        "11707": 61,
        "11708": 143,
        "11709": 14,
        "11710": 186,
        "11711": 22,
        "11712": 217,
        "11713": 26,
        "11714": 12,
        "11715": 245,
        "11716": 184,
        "11717": 90,
        "11718": 237,
        "11719": 55,
        "11720": 72,
        "11721": 222,
        "11722": 180,
        "11723": 65,
        "11724": 88,
        "11725": 28,
        "11726": 217,
        "11727": 178,
        "11728": 16,
        "11729": 140,
        "11730": 229,
        "11731": 61,
        "11732": 138,
        "11733": 52,
        "11734": 78,
        "11735": 187,
        "11736": 52,
        "11737": 187,
        "11738": 144,
        "11739": 215,
        "11740": 201,
        "11741": 99,
        "11742": 106,
        "11743": 86,
        "11744": 103,
        "11745": 201,
        "11746": 226,
        "11747": 31,
        "11748": 252,
        "11749": 130,
        "11750": 251,
        "11751": 99,
        "11752": 140,
        "11753": 12,
        "11754": 99,
        "11755": 159,
        "11756": 33,
        "11757": 237,
        "11758": 120,
        "11759": 186,
        "11760": 236,
        "11761": 172,
        "11762": 162,
        "11763": 135,
        "11764": 84,
        "11765": 179,
        "11766": 244,
        "11767": 143,
        "11768": 119,
        "11769": 70,
        "11770": 91,
        "11771": 239,
        "11772": 238,
        "11773": 148,
        "11774": 145,
        "11775": 77,
        "11776": 67,
        "11777": 232,
        "11778": 233,
        "11779": 193,
        "11780": 122,
        "11781": 70,
        "11782": 170,
        "11783": 142,
        "11784": 245,
        "11785": 130,
        "11786": 19,
        "11787": 216,
        "11788": 1,
        "11789": 143,
        "11790": 190,
        "11791": 243,
        "11792": 53,
        "11793": 210,
        "11794": 195,
        "11795": 174,
        "11796": 91,
        "11797": 55,
        "11798": 166,
        "11799": 104,
        "11800": 166,
        "11801": 109,
        "11802": 129,
        "11803": 22,
        "11804": 140,
        "11805": 35,
        "11806": 107,
        "11807": 193,
        "11808": 183,
        "11809": 51,
        "11810": 165,
        "11811": 184,
        "11812": 163,
        "11813": 37,
        "11814": 183,
        "11815": 193,
        "11816": 165,
        "11817": 111,
        "11818": 14,
        "11819": 211,
        "11820": 206,
        "11821": 21,
        "11822": 41,
        "11823": 195,
        "11824": 169,
        "11825": 90,
        "11826": 244,
        "11827": 145,
        "11828": 152,
        "11829": 161,
        "11830": 141,
        "11831": 248,
        "11832": 197,
        "11833": 197,
        "11834": 135,
        "11835": 80,
        "11836": 223,
        "11837": 91,
        "11838": 60,
        "11839": 117,
        "11840": 58,
        "11841": 142,
        "11842": 167,
        "11843": 140,
        "11844": 132,
        "11845": 6,
        "11846": 46,
        "11847": 92,
        "11848": 20,
        "11849": 217,
        "11850": 244,
        "11851": 172,
        "11852": 90,
        "11853": 86,
        "11854": 227,
        "11855": 217,
        "11856": 166,
        "11857": 124,
        "11858": 169,
        "11859": 20,
        "11860": 129,
        "11861": 167,
        "11862": 181,
        "11863": 16,
        "11864": 26,
        "11865": 156,
        "11866": 96,
        "11867": 83,
        "11868": 232,
        "11869": 209,
        "11870": 189,
        "11871": 115,
        "11872": 106,
        "11873": 163,
        "11874": 89,
        "11875": 119,
        "11876": 29,
        "11877": 37,
        "11878": 48,
        "11879": 125,
        "11880": 18,
        "11881": 71,
        "11882": 174,
        "11883": 42,
        "11884": 162,
        "11885": 24,
        "11886": 222,
        "11887": 83,
        "11888": 124,
        "11889": 219,
        "11890": 34,
        "11891": 130,
        "11892": 60,
        "11893": 154,
        "11894": 166,
        "11895": 175,
        "11896": 87,
        "11897": 117,
        "11898": 2,
        "11899": 81,
        "11900": 71,
        "11901": 184,
        "11902": 16,
        "11903": 30,
        "11904": 231,
        "11905": 121,
        "11906": 54,
        "11907": 160,
        "11908": 213,
        "11909": 168,
        "11910": 229,
        "11911": 87,
        "11912": 172,
        "11913": 149,
        "11914": 4,
        "11915": 147,
        "11916": 167,
        "11917": 244,
        "11918": 77,
        "11919": 58,
        "11920": 214,
        "11921": 122,
        "11922": 226,
        "11923": 181,
        "11924": 2,
        "11925": 125,
        "11926": 230,
        "11927": 162,
        "11928": 183,
        "11929": 51,
        "11930": 44,
        "11931": 232,
        "11932": 120,
        "11933": 64,
        "11934": 86,
        "11935": 34,
        "11936": 121,
        "11937": 187,
        "11938": 177,
        "11939": 247,
        "11940": 161,
        "11941": 209,
        "11942": 52,
        "11943": 136,
        "11944": 213,
        "11945": 78,
        "11946": 252,
        "11947": 117,
        "11948": 45,
        "11949": 224,
        "11950": 106,
        "11951": 120,
        "11952": 31,
        "11953": 45,
        "11954": 254,
        "11955": 60,
        "11956": 180,
        "11957": 135,
        "11958": 189,
        "11959": 27,
        "11960": 229,
        "11961": 78,
        "11962": 169,
        "11963": 227,
        "11964": 126,
        "11965": 172,
        "11966": 230,
        "11967": 223,
        "11968": 207,
        "11969": 238,
        "11970": 188,
        "11971": 208,
        "11972": 213,
        "11973": 212,
        "11974": 198,
        "11975": 134,
        "11976": 36,
        "11977": 217,
        "11978": 179,
        "11979": 77,
        "11980": 88,
        "11981": 103,
        "11982": 117,
        "11983": 246,
        "11984": 92,
        "11985": 79,
        "11986": 49,
        "11987": 188,
        "11988": 20,
        "11989": 2,
        "11990": 241,
        "11991": 114,
        "11992": 149,
        "11993": 83,
        "11994": 11,
        "11995": 129,
        "11996": 85,
        "11997": 248,
        "11998": 183,
        "11999": 213,
        "12000": 58,
        "12001": 24,
        "12002": 132,
        "12003": 237,
        "12004": 123,
        "12005": 108,
        "12006": 184,
        "12007": 197,
        "12008": 109,
        "12009": 8,
        "12010": 122,
        "12011": 42,
        "12012": 6,
        "12013": 213,
        "12014": 112,
        "12015": 254,
        "12016": 175,
        "12017": 56,
        "12018": 42,
        "12019": 62,
        "12020": 159,
        "12021": 125,
        "12022": 134,
        "12023": 84,
        "12024": 254,
        "12025": 149,
        "12026": 145,
        "12027": 245,
        "12028": 192,
        "12029": 101,
        "12030": 48,
        "12031": 34,
        "12032": 31,
        "12033": 86,
        "12034": 138,
        "12035": 208,
        "12036": 135,
        "12037": 155,
        "12038": 76,
        "12039": 231,
        "12040": 5,
        "12041": 155,
        "12042": 153,
        "12043": 252,
        "12044": 88,
        "12045": 167,
        "12046": 67,
        "12047": 158,
        "12048": 0,
        "12049": 156,
        "12050": 207,
        "12051": 111,
        "12052": 134,
        "12053": 78,
        "12054": 112,
        "12055": 159,
        "12056": 178,
        "12057": 248,
        "12058": 95,
        "12059": 118,
        "12060": 32,
        "12061": 190,
        "12062": 218,
        "12063": 207,
        "12064": 195,
        "12065": 110,
        "12066": 16,
        "12067": 163,
        "12068": 10,
        "12069": 36,
        "12070": 127,
        "12071": 168,
        "12072": 101,
        "12073": 33,
        "12074": 36,
        "12075": 154,
        "12076": 4,
        "12077": 214,
        "12078": 97,
        "12079": 182,
        "12080": 150,
        "12081": 240,
        "12082": 129,
        "12083": 167,
        "12084": 51,
        "12085": 177,
        "12086": 195,
        "12087": 41,
        "12088": 214,
        "12089": 6,
        "12090": 148,
        "12091": 182,
        "12092": 183,
        "12093": 70,
        "12094": 232,
        "12095": 219,
        "12096": 243,
        "12097": 208,
        "12098": 207,
        "12099": 240,
        "12100": 49,
        "12101": 84,
        "12102": 35,
        "12103": 42,
        "12104": 87,
        "12105": 122,
        "12106": 210,
        "12107": 230,
        "12108": 31,
        "12109": 25,
        "12110": 26,
        "12111": 17,
        "12112": 143,
        "12113": 236,
        "12114": 42,
        "12115": 113,
        "12116": 243,
        "12117": 28,
        "12118": 10,
        "12119": 178,
        "12120": 184,
        "12121": 197,
        "12122": 10,
        "12123": 154,
        "12124": 85,
        "12125": 30,
        "12126": 63,
        "12127": 104,
        "12128": 162,
        "12129": 14,
        "12130": 237,
        "12131": 252,
        "12132": 31,
        "12133": 239,
        "12134": 110,
        "12135": 46,
        "12136": 97,
        "12137": 136,
        "12138": 37,
        "12139": 140,
        "12140": 114,
        "12141": 195,
        "12142": 147,
        "12143": 44,
        "12144": 27,
        "12145": 204,
        "12146": 211,
        "12147": 14,
        "12148": 215,
        "12149": 173,
        "12150": 110,
        "12151": 214,
        "12152": 221,
        "12153": 232,
        "12154": 135,
        "12155": 178,
        "12156": 232,
        "12157": 255,
        "12158": 60,
        "12159": 167,
        "12160": 19,
        "12161": 141,
        "12162": 190,
        "12163": 25,
        "12164": 24,
        "12165": 170,
        "12166": 216,
        "12167": 235,
        "12168": 251,
        "12169": 155,
        "12170": 212,
        "12171": 71,
        "12172": 202,
        "12173": 167,
        "12174": 233,
        "12175": 39,
        "12176": 190,
        "12177": 215,
        "12178": 49,
        "12179": 69,
        "12180": 231,
        "12181": 165,
        "12182": 103,
        "12183": 209,
        "12184": 82,
        "12185": 134,
        "12186": 244,
        "12187": 146,
        "12188": 32,
        "12189": 29,
        "12190": 254,
        "12191": 33,
        "12192": 172,
        "12193": 105,
        "12194": 224,
        "12195": 191,
        "12196": 131,
        "12197": 31,
        "12198": 254,
        "12199": 147,
        "12200": 119,
        "12201": 73,
        "12202": 171,
        "12203": 36,
        "12204": 49,
        "12205": 230,
        "12206": 90,
        "12207": 56,
        "12208": 64,
        "12209": 134,
        "12210": 215,
        "12211": 168,
        "12212": 139,
        "12213": 117,
        "12214": 196,
        "12215": 45,
        "12216": 78,
        "12217": 32,
        "12218": 230,
        "12219": 8,
        "12220": 66,
        "12221": 195,
        "12222": 87,
        "12223": 225,
        "12224": 85,
        "12225": 10,
        "12226": 129,
        "12227": 252,
        "12228": 187,
        "12229": 51,
        "12230": 218,
        "12231": 18,
        "12232": 178,
        "12233": 144,
        "12234": 151,
        "12235": 87,
        "12236": 91,
        "12237": 123,
        "12238": 143,
        "12239": 85,
        "12240": 75,
        "12241": 39,
        "12242": 222,
        "12243": 102,
        "12244": 197,
        "12245": 80,
        "12246": 16,
        "12247": 128,
        "12248": 38,
        "12249": 46,
        "12250": 35,
        "12251": 6,
        "12252": 64,
        "12253": 21,
        "12254": 68,
        "12255": 253,
        "12256": 215,
        "12257": 70,
        "12258": 171,
        "12259": 142,
        "12260": 209,
        "12261": 237,
        "12262": 177,
        "12263": 240,
        "12264": 203,
        "12265": 192,
        "12266": 10,
        "12267": 144,
        "12268": 101,
        "12269": 232,
        "12270": 18,
        "12271": 193,
        "12272": 162,
        "12273": 158,
        "12274": 197,
        "12275": 235,
        "12276": 118,
        "12277": 216,
        "12278": 103,
        "12279": 78,
        "12280": 187,
        "12281": 100,
        "12282": 190,
        "12283": 163,
        "12284": 220,
        "12285": 224,
        "12286": 213,
        "12287": 135,
        "12288": 250,
        "12289": 18,
        "12290": 179,
        "12291": 3,
        "12292": 195,
        "12293": 51,
        "12294": 57,
        "12295": 245,
        "12296": 40,
        "12297": 69,
        "12298": 168,
        "12299": 44,
        "12300": 203,
        "12301": 84,
        "12302": 73,
        "12303": 178,
        "12304": 42,
        "12305": 227,
        "12306": 45,
        "12307": 200,
        "12308": 240,
        "12309": 15,
        "12310": 105,
        "12311": 172,
        "12312": 81,
        "12313": 217,
        "12314": 142,
        "12315": 41,
        "12316": 158,
        "12317": 246,
        "12318": 184,
        "12319": 238,
        "12320": 148,
        "12321": 54,
        "12322": 105,
        "12323": 18,
        "12324": 96,
        "12325": 237,
        "12326": 254,
        "12327": 100,
        "12328": 82,
        "12329": 225,
        "12330": 88,
        "12331": 216,
        "12332": 107,
        "12333": 90,
        "12334": 127,
        "12335": 89,
        "12336": 234,
        "12337": 91,
        "12338": 142,
        "12339": 34,
        "12340": 109,
        "12341": 39,
        "12342": 10,
        "12343": 128,
        "12344": 106,
        "12345": 17,
        "12346": 135,
        "12347": 245,
        "12348": 154,
        "12349": 36,
        "12350": 128,
        "12351": 37,
        "12352": 233,
        "12353": 42,
        "12354": 147,
        "12355": 41,
        "12356": 219,
        "12357": 98,
        "12358": 85,
        "12359": 206,
        "12360": 169,
        "12361": 205,
        "12362": 75,
        "12363": 198,
        "12364": 14,
        "12365": 175,
        "12366": 126,
        "12367": 72,
        "12368": 197,
        "12369": 167,
        "12370": 77,
        "12371": 106,
        "12372": 57,
        "12373": 73,
        "12374": 24,
        "12375": 182,
        "12376": 74,
        "12377": 56,
        "12378": 104,
        "12379": 163,
        "12380": 139,
        "12381": 97,
        "12382": 196,
        "12383": 22,
        "12384": 205,
        "12385": 244,
        "12386": 30,
        "12387": 129,
        "12388": 175,
        "12389": 44,
        "12390": 125,
        "12391": 41,
        "12392": 22,
        "12393": 12,
        "12394": 206,
        "12395": 49,
        "12396": 216,
        "12397": 105,
        "12398": 222,
        "12399": 144,
        "12400": 193,
        "12401": 112,
        "12402": 179,
        "12403": 193,
        "12404": 115,
        "12405": 180,
        "12406": 22,
        "12407": 9,
        "12408": 170,
        "12409": 54,
        "12410": 108,
        "12411": 207,
        "12412": 203,
        "12413": 75,
        "12414": 174,
        "12415": 131,
        "12416": 228,
        "12417": 3,
        "12418": 247,
        "12419": 155,
        "12420": 145,
        "12421": 165,
        "12422": 73,
        "12423": 186,
        "12424": 210,
        "12425": 9,
        "12426": 184,
        "12427": 69,
        "12428": 212,
        "12429": 230,
        "12430": 227,
        "12431": 116,
        "12432": 196,
        "12433": 191,
        "12434": 162,
        "12435": 82,
        "12436": 220,
        "12437": 68,
        "12438": 249,
        "12439": 184,
        "12440": 20,
        "12441": 0,
        "12442": 253,
        "12443": 161,
        "12444": 147,
        "12445": 239,
        "12446": 237,
        "12447": 98,
        "12448": 171,
        "12449": 179,
        "12450": 0,
        "12451": 165,
        "12452": 54,
        "12453": 20,
        "12454": 230,
        "12455": 30,
        "12456": 73,
        "12457": 102,
        "12458": 86,
        "12459": 181,
        "12460": 76,
        "12461": 191,
        "12462": 2,
        "12463": 45,
        "12464": 114,
        "12465": 198,
        "12466": 116,
        "12467": 29,
        "12468": 213,
        "12469": 99,
        "12470": 51,
        "12471": 233,
        "12472": 187,
        "12473": 189,
        "12474": 2,
        "12475": 93,
        "12476": 40,
        "12477": 207,
        "12478": 89,
        "12479": 191,
        "12480": 201,
        "12481": 190,
        "12482": 162,
        "12483": 143,
        "12484": 66,
        "12485": 181,
        "12486": 90,
        "12487": 178,
        "12488": 20,
        "12489": 143,
        "12490": 64,
        "12491": 198,
        "12492": 155,
        "12493": 75,
        "12494": 50,
        "12495": 202,
        "12496": 130,
        "12497": 182,
        "12498": 94,
        "12499": 250,
        "12500": 140,
        "12501": 215,
        "12502": 97,
        "12503": 150,
        "12504": 29,
        "12505": 0,
        "12506": 200,
        "12507": 92,
        "12508": 145,
        "12509": 47,
        "12510": 50,
        "12511": 30,
        "12512": 205,
        "12513": 180,
        "12514": 21,
        "12515": 229,
        "12516": 215,
        "12517": 80,
        "12518": 113,
        "12519": 48,
        "12520": 115,
        "12521": 107,
        "12522": 78,
        "12523": 24,
        "12524": 232,
        "12525": 5,
        "12526": 104,
        "12527": 123,
        "12528": 182,
        "12529": 135,
        "12530": 249,
        "12531": 139,
        "12532": 118,
        "12533": 39,
        "12534": 192,
        "12535": 135,
        "12536": 215,
        "12537": 162,
        "12538": 231,
        "12539": 30,
        "12540": 113,
        "12541": 217,
        "12542": 60,
        "12543": 14,
        "12544": 156,
        "12545": 24,
        "12546": 228,
        "12547": 152,
        "12548": 65,
        "12549": 81,
        "12550": 54,
        "12551": 186,
        "12552": 130,
        "12553": 119,
        "12554": 44,
        "12555": 133,
        "12556": 249,
        "12557": 212,
        "12558": 88,
        "12559": 96,
        "12560": 212,
        "12561": 32,
        "12562": 190,
        "12563": 176,
        "12564": 141,
        "12565": 146,
        "12566": 222,
        "12567": 90,
        "12568": 175,
        "12569": 227,
        "12570": 163,
        "12571": 179,
        "12572": 73,
        "12573": 82,
        "12574": 137,
        "12575": 223,
        "12576": 33,
        "12577": 69,
        "12578": 155,
        "12579": 234,
        "12580": 9,
        "12581": 241,
        "12582": 109,
        "12583": 50,
        "12584": 238,
        "12585": 200,
        "12586": 92,
        "12587": 222,
        "12588": 176,
        "12589": 242,
        "12590": 45,
        "12591": 159,
        "12592": 170,
        "12593": 72,
        "12594": 112,
        "12595": 165,
        "12596": 129,
        "12597": 93,
        "12598": 12,
        "12599": 120,
        "12600": 7,
        "12601": 75,
        "12602": 27,
        "12603": 66,
        "12604": 113,
        "12605": 200,
        "12606": 81,
        "12607": 70,
        "12608": 54,
        "12609": 0,
        "12610": 33,
        "12611": 209,
        "12612": 83,
        "12613": 207,
        "12614": 154,
        "12615": 48,
        "12616": 83,
        "12617": 34,
        "12618": 208,
        "12619": 147,
        "12620": 136,
        "12621": 96,
        "12622": 210,
        "12623": 11,
        "12624": 66,
        "12625": 93,
        "12626": 197,
        "12627": 106,
        "12628": 1,
        "12629": 107,
        "12630": 190,
        "12631": 98,
        "12632": 38,
        "12633": 36,
        "12634": 232,
        "12635": 11,
        "12636": 27,
        "12637": 106,
        "12638": 178,
        "12639": 129,
        "12640": 135,
        "12641": 151,
        "12642": 227,
        "12643": 88,
        "12644": 82,
        "12645": 112,
        "12646": 235,
        "12647": 190,
        "12648": 195,
        "12649": 51,
        "12650": 246,
        "12651": 137,
        "12652": 78,
        "12653": 187,
        "12654": 181,
        "12655": 10,
        "12656": 151,
        "12657": 88,
        "12658": 75,
        "12659": 191,
        "12660": 252,
        "12661": 75,
        "12662": 193,
        "12663": 225,
        "12664": 61,
        "12665": 186,
        "12666": 232,
        "12667": 46,
        "12668": 42,
        "12669": 1,
        "12670": 93,
        "12671": 121,
        "12672": 225,
        "12673": 20,
        "12674": 185,
        "12675": 217,
        "12676": 142,
        "12677": 218,
        "12678": 63,
        "12679": 117,
        "12680": 109,
        "12681": 227,
        "12682": 197,
        "12683": 113,
        "12684": 66,
        "12685": 38,
        "12686": 97,
        "12687": 216,
        "12688": 248,
        "12689": 124,
        "12690": 195,
        "12691": 161,
        "12692": 102,
        "12693": 210,
        "12694": 110,
        "12695": 119,
        "12696": 18,
        "12697": 123,
        "12698": 96,
        "12699": 9,
        "12700": 85,
        "12701": 172,
        "12702": 67,
        "12703": 240,
        "12704": 65,
        "12705": 165,
        "12706": 29,
        "12707": 135,
        "12708": 101,
        "12709": 58,
        "12710": 97,
        "12711": 66,
        "12712": 12,
        "12713": 188,
        "12714": 180,
        "12715": 15,
        "12716": 213,
        "12717": 241,
        "12718": 170,
        "12719": 158,
        "12720": 25,
        "12721": 145,
        "12722": 176,
        "12723": 145,
        "12724": 15,
        "12725": 117,
        "12726": 164,
        "12727": 229,
        "12728": 64,
        "12729": 46,
        "12730": 192,
        "12731": 245,
        "12732": 167,
        "12733": 84,
        "12734": 196,
        "12735": 97,
        "12736": 212,
        "12737": 45,
        "12738": 226,
        "12739": 5,
        "12740": 84,
        "12741": 115,
        "12742": 88,
        "12743": 177,
        "12744": 182,
        "12745": 63,
        "12746": 146,
        "12747": 46,
        "12748": 38,
        "12749": 207,
        "12750": 156,
        "12751": 232,
        "12752": 117,
        "12753": 227,
        "12754": 18,
        "12755": 237,
        "12756": 99,
        "12757": 222,
        "12758": 67,
        "12759": 160,
        "12760": 145,
        "12761": 213,
        "12762": 186,
        "12763": 82,
        "12764": 198,
        "12765": 195,
        "12766": 74,
        "12767": 39,
        "12768": 194,
        "12769": 74,
        "12770": 174,
        "12771": 13,
        "12772": 50,
        "12773": 138,
        "12774": 31,
        "12775": 153,
        "12776": 121,
        "12777": 188,
        "12778": 66,
        "12779": 174,
        "12780": 178,
        "12781": 105,
        "12782": 174,
        "12783": 203,
        "12784": 227,
        "12785": 106,
        "12786": 95,
        "12787": 243,
        "12788": 126,
        "12789": 91,
        "12790": 111,
        "12791": 29,
        "12792": 84,
        "12793": 215,
        "12794": 164,
        "12795": 109,
        "12796": 83,
        "12797": 184,
        "12798": 99,
        "12799": 163,
        "12800": 69,
        "12801": 169,
        "12802": 230,
        "12803": 146,
        "12804": 130,
        "12805": 81,
        "12806": 39,
        "12807": 210,
        "12808": 5,
        "12809": 236,
        "12810": 0,
        "12811": 251,
        "12812": 109,
        "12813": 187,
        "12814": 13,
        "12815": 91,
        "12816": 80,
        "12817": 191,
        "12818": 136,
        "12819": 43,
        "12820": 76,
        "12821": 72,
        "12822": 222,
        "12823": 169,
        "12824": 51,
        "12825": 243,
        "12826": 142,
        "12827": 40,
        "12828": 232,
        "12829": 78,
        "12830": 252,
        "12831": 159,
        "12832": 5,
        "12833": 89,
        "12834": 93,
        "12835": 76,
        "12836": 66,
        "12837": 106,
        "12838": 98,
        "12839": 227,
        "12840": 140,
        "12841": 252,
        "12842": 58,
        "12843": 9,
        "12844": 248,
        "12845": 231,
        "12846": 246,
        "12847": 181,
        "12848": 168,
        "12849": 60,
        "12850": 7,
        "12851": 142,
        "12852": 56,
        "12853": 229,
        "12854": 147,
        "12855": 121,
        "12856": 162,
        "12857": 243,
        "12858": 177,
        "12859": 232,
        "12860": 150,
        "12861": 78,
        "12862": 187,
        "12863": 194,
        "12864": 55,
        "12865": 241,
        "12866": 25,
        "12867": 164,
        "12868": 195,
        "12869": 115,
        "12870": 244,
        "12871": 160,
        "12872": 98,
        "12873": 156,
        "12874": 61,
        "12875": 154,
        "12876": 207,
        "12877": 146,
        "12878": 194,
        "12879": 234,
        "12880": 182,
        "12881": 69,
        "12882": 66,
        "12883": 38,
        "12884": 170,
        "12885": 91,
        "12886": 201,
        "12887": 239,
        "12888": 220,
        "12889": 181,
        "12890": 18,
        "12891": 142,
        "12892": 105,
        "12893": 206,
        "12894": 93,
        "12895": 255,
        "12896": 67,
        "12897": 148,
        "12898": 154,
        "12899": 167,
        "12900": 9,
        "12901": 142,
        "12902": 120,
        "12903": 163,
        "12904": 157,
        "12905": 41,
        "12906": 163,
        "12907": 67,
        "12908": 142,
        "12909": 209,
        "12910": 164,
        "12911": 172,
        "12912": 31,
        "12913": 115,
        "12914": 233,
        "12915": 112,
        "12916": 178,
        "12917": 19,
        "12918": 32,
        "12919": 3,
        "12920": 172,
        "12921": 210,
        "12922": 136,
        "12923": 164,
        "12924": 222,
        "12925": 135,
        "12926": 190,
        "12927": 209,
        "12928": 119,
        "12929": 17,
        "12930": 154,
        "12931": 180,
        "12932": 109,
        "12933": 71,
        "12934": 4,
        "12935": 169,
        "12936": 186,
        "12937": 75,
        "12938": 148,
        "12939": 108,
        "12940": 163,
        "12941": 209,
        "12942": 234,
        "12943": 174,
        "12944": 38,
        "12945": 3,
        "12946": 35,
        "12947": 19,
        "12948": 125,
        "12949": 26,
        "12950": 30,
        "12951": 226,
        "12952": 207,
        "12953": 68,
        "12954": 1,
        "12955": 68,
        "12956": 137,
        "12957": 210,
        "12958": 87,
        "12959": 132,
        "12960": 128,
        "12961": 139,
        "12962": 56,
        "12963": 222,
        "12964": 203,
        "12965": 15,
        "12966": 5,
        "12967": 2,
        "12968": 138,
        "12969": 148,
        "12970": 176,
        "12971": 230,
        "12972": 140,
        "12973": 136,
        "12974": 16,
        "12975": 189,
        "12976": 64,
        "12977": 239,
        "12978": 88,
        "12979": 66,
        "12980": 8,
        "12981": 172,
        "12982": 179,
        "12983": 192,
        "12984": 144,
        "12985": 223,
        "12986": 101,
        "12987": 242,
        "12988": 82,
        "12989": 32,
        "12990": 184,
        "12991": 61,
        "12992": 27,
        "12993": 248,
        "12994": 201,
        "12995": 42,
        "12996": 22,
        "12997": 51,
        "12998": 204,
        "12999": 147,
        "13000": 10,
        "13001": 136,
        "13002": 127,
        "13003": 124,
        "13004": 71,
        "13005": 151,
        "13006": 72,
        "13007": 205,
        "13008": 217,
        "13009": 7,
        "13010": 14,
        "13011": 247,
        "13012": 128,
        "13013": 253,
        "13014": 150,
        "13015": 220,
        "13016": 103,
        "13017": 245,
        "13018": 74,
        "13019": 240,
        "13020": 16,
        "13021": 181,
        "13022": 225,
        "13023": 50,
        "13024": 62,
        "13025": 213,
        "13026": 42,
        "13027": 60,
        "13028": 154,
        "13029": 45,
        "13030": 221,
        "13031": 115,
        "13032": 120,
        "13033": 122,
        "13034": 147,
        "13035": 3,
        "13036": 218,
        "13037": 92,
        "13038": 70,
        "13039": 80,
        "13040": 60,
        "13041": 4,
        "13042": 91,
        "13043": 176,
        "13044": 211,
        "13045": 87,
        "13046": 4,
        "13047": 255,
        "13048": 226,
        "13049": 174,
        "13050": 201,
        "13051": 8,
        "13052": 218,
        "13053": 40,
        "13054": 125,
        "13055": 208,
        "13056": 204,
        "13057": 101,
        "13058": 47,
        "13059": 16,
        "13060": 88,
        "13061": 246,
        "13062": 48,
        "13063": 113,
        "13064": 139,
        "13065": 68,
        "13066": 45,
        "13067": 243,
        "13068": 116,
        "13069": 154,
        "13070": 127,
        "13071": 223,
        "13072": 130,
        "13073": 69,
        "13074": 45,
        "13075": 16,
        "13076": 16,
        "13077": 155,
        "13078": 248,
        "13079": 239,
        "13080": 63,
        "13081": 241,
        "13082": 219,
        "13083": 202,
        "13084": 249,
        "13085": 207,
        "13086": 234,
        "13087": 92,
        "13088": 186,
        "13089": 187,
        "13090": 218,
        "13091": 203,
        "13092": 244,
        "13093": 167,
        "13094": 76,
        "13095": 141,
        "13096": 4,
        "13097": 173,
        "13098": 172,
        "13099": 145,
        "13100": 129,
        "13101": 52,
        "13102": 182,
        "13103": 103,
        "13104": 45,
        "13105": 166,
        "13106": 38,
        "13107": 12,
        "13108": 89,
        "13109": 58,
        "13110": 236,
        "13111": 92,
        "13112": 185,
        "13113": 20,
        "13114": 179,
        "13115": 102,
        "13116": 32,
        "13117": 21,
        "13118": 187,
        "13119": 184,
        "13120": 138,
        "13121": 252,
        "13122": 42,
        "13123": 220,
        "13124": 208,
        "13125": 37,
        "13126": 68,
        "13127": 224,
        "13128": 86,
        "13129": 53,
        "13130": 110,
        "13131": 106,
        "13132": 178,
        "13133": 55,
        "13134": 233,
        "13135": 155,
        "13136": 41,
        "13137": 207,
        "13138": 218,
        "13139": 174,
        "13140": 161,
        "13141": 139,
        "13142": 238,
        "13143": 45,
        "13144": 137,
        "13145": 81,
        "13146": 13,
        "13147": 208,
        "13148": 215,
        "13149": 238,
        "13150": 37,
        "13151": 37,
        "13152": 80,
        "13153": 208,
        "13154": 69,
        "13155": 61,
        "13156": 50,
        "13157": 205,
        "13158": 133,
        "13159": 237,
        "13160": 57,
        "13161": 245,
        "13162": 42,
        "13163": 76,
        "13164": 132,
        "13165": 3,
        "13166": 75,
        "13167": 61,
        "13168": 170,
        "13169": 55,
        "13170": 83,
        "13171": 141,
        "13172": 92,
        "13173": 147,
        "13174": 0,
        "13175": 43,
        "13176": 35,
        "13177": 134,
        "13178": 169,
        "13179": 117,
        "13180": 9,
        "13181": 57,
        "13182": 180,
        "13183": 61,
        "13184": 11,
        "13185": 44,
        "13186": 70,
        "13187": 20,
        "13188": 230,
        "13189": 206,
        "13190": 245,
        "13191": 75,
        "13192": 130,
        "13193": 146,
        "13194": 234,
        "13195": 11,
        "13196": 247,
        "13197": 145,
        "13198": 144,
        "13199": 115,
        "13200": 190,
        "13201": 221,
        "13202": 213,
        "13203": 113,
        "13204": 39,
        "13205": 223,
        "13206": 175,
        "13207": 23,
        "13208": 187,
        "13209": 125,
        "13210": 16,
        "13211": 74,
        "13212": 54,
        "13213": 220,
        "13214": 120,
        "13215": 144,
        "13216": 107,
        "13217": 59,
        "13218": 73,
        "13219": 54,
        "13220": 87,
        "13221": 175,
        "13222": 61,
        "13223": 105,
        "13224": 196,
        "13225": 87,
        "13226": 49,
        "13227": 253,
        "13228": 153,
        "13229": 198,
        "13230": 213,
        "13231": 138,
        "13232": 180,
        "13233": 202,
        "13234": 81,
        "13235": 173,
        "13236": 62,
        "13237": 45,
        "13238": 98,
        "13239": 60,
        "13240": 52,
        "13241": 221,
        "13242": 158,
        "13243": 255,
        "13244": 113,
        "13245": 188,
        "13246": 45,
        "13247": 100,
        "13248": 161,
        "13249": 199,
        "13250": 177,
        "13251": 229,
        "13252": 214,
        "13253": 222,
        "13254": 124,
        "13255": 74,
        "13256": 115,
        "13257": 200,
        "13258": 203,
        "13259": 69,
        "13260": 143,
        "13261": 250,
        "13262": 159,
        "13263": 181,
        "13264": 104,
        "13265": 51,
        "13266": 168,
        "13267": 116,
        "13268": 73,
        "13269": 0,
        "13270": 15,
        "13271": 28,
        "13272": 191,
        "13273": 189,
        "13274": 56,
        "13275": 33,
        "13276": 197,
        "13277": 83,
        "13278": 139,
        "13279": 103,
        "13280": 148,
        "13281": 64,
        "13282": 65,
        "13283": 160,
        "13284": 255,
        "13285": 161,
        "13286": 66,
        "13287": 18,
        "13288": 21,
        "13289": 107,
        "13290": 41,
        "13291": 233,
        "13292": 66,
        "13293": 188,
        "13294": 27,
        "13295": 127,
        "13296": 182,
        "13297": 35,
        "13298": 120,
        "13299": 183,
        "13300": 43,
        "13301": 208,
        "13302": 169,
        "13303": 190,
        "13304": 180,
        "13305": 211,
        "13306": 134,
        "13307": 74,
        "13308": 60,
        "13309": 67,
        "13310": 6,
        "13311": 64,
        "13312": 17,
        "13313": 13,
        "13314": 165,
        "13315": 192,
        "13316": 105,
        "13317": 157,
        "13318": 190,
        "13319": 183,
        "13320": 203,
        "13321": 110,
        "13322": 131,
        "13323": 40,
        "13324": 9,
        "13325": 94,
        "13326": 232,
        "13327": 204,
        "13328": 62,
        "13329": 235,
        "13330": 37,
        "13331": 104,
        "13332": 248,
        "13333": 8,
        "13334": 251,
        "13335": 236,
        "13336": 36,
        "13337": 95,
        "13338": 133,
        "13339": 145,
        "13340": 173,
        "13341": 179,
        "13342": 18,
        "13343": 106,
        "13344": 105,
        "13345": 198,
        "13346": 243,
        "13347": 141,
        "13348": 110,
        "13349": 182,
        "13350": 250,
        "13351": 64,
        "13352": 46,
        "13353": 87,
        "13354": 229,
        "13355": 91,
        "13356": 207,
        "13357": 217,
        "13358": 130,
        "13359": 58,
        "13360": 66,
        "13361": 96,
        "13362": 14,
        "13363": 245,
        "13364": 183,
        "13365": 252,
        "13366": 242,
        "13367": 217,
        "13368": 71,
        "13369": 99,
        "13370": 54,
        "13371": 227,
        "13372": 140,
        "13373": 219,
        "13374": 254,
        "13375": 199,
        "13376": 93,
        "13377": 248,
        "13378": 211,
        "13379": 224,
        "13380": 182,
        "13381": 149,
        "13382": 85,
        "13383": 175,
        "13384": 230,
        "13385": 99,
        "13386": 249,
        "13387": 16,
        "13388": 12,
        "13389": 215,
        "13390": 69,
        "13391": 53,
        "13392": 96,
        "13393": 67,
        "13394": 57,
        "13395": 118,
        "13396": 50,
        "13397": 113,
        "13398": 18,
        "13399": 68,
        "13400": 235,
        "13401": 84,
        "13402": 117,
        "13403": 127,
        "13404": 44,
        "13405": 24,
        "13406": 175,
        "13407": 160,
        "13408": 156,
        "13409": 56,
        "13410": 232,
        "13411": 34,
        "13412": 38,
        "13413": 184,
        "13414": 175,
        "13415": 59,
        "13416": 182,
        "13417": 22,
        "13418": 207,
        "13419": 66,
        "13420": 56,
        "13421": 233,
        "13422": 205,
        "13423": 73,
        "13424": 169,
        "13425": 2,
        "13426": 134,
        "13427": 125,
        "13428": 198,
        "13429": 0,
        "13430": 33,
        "13431": 147,
        "13432": 111,
        "13433": 91,
        "13434": 213,
        "13435": 245,
        "13436": 162,
        "13437": 241,
        "13438": 44,
        "13439": 24,
        "13440": 82,
        "13441": 168,
        "13442": 65,
        "13443": 45,
        "13444": 228,
        "13445": 177,
        "13446": 171,
        "13447": 70,
        "13448": 83,
        "13449": 18,
        "13450": 129,
        "13451": 143,
        "13452": 59,
        "13453": 201,
        "13454": 67,
        "13455": 120,
        "13456": 11,
        "13457": 230,
        "13458": 251,
        "13459": 51,
        "13460": 33,
        "13461": 108,
        "13462": 192,
        "13463": 73,
        "13464": 130,
        "13465": 232,
        "13466": 192,
        "13467": 133,
        "13468": 183,
        "13469": 143,
        "13470": 58,
        "13471": 210,
        "13472": 112,
        "13473": 2,
        "13474": 161,
        "13475": 125,
        "13476": 113,
        "13477": 21,
        "13478": 136,
        "13479": 195,
        "13480": 194,
        "13481": 190,
        "13482": 90,
        "13483": 165,
        "13484": 170,
        "13485": 149,
        "13486": 140,
        "13487": 35,
        "13488": 134,
        "13489": 79,
        "13490": 166,
        "13491": 203,
        "13492": 203,
        "13493": 142,
        "13494": 53,
        "13495": 57,
        "13496": 65,
        "13497": 60,
        "13498": 45,
        "13499": 219,
        "13500": 59,
        "13501": 245,
        "13502": 121,
        "13503": 34,
        "13504": 32,
        "13505": 72,
        "13506": 148,
        "13507": 166,
        "13508": 25,
        "13509": 82,
        "13510": 19,
        "13511": 108,
        "13512": 81,
        "13513": 19,
        "13514": 55,
        "13515": 39,
        "13516": 68,
        "13517": 234,
        "13518": 225,
        "13519": 203,
        "13520": 105,
        "13521": 3,
        "13522": 252,
        "13523": 90,
        "13524": 80,
        "13525": 202,
        "13526": 226,
        "13527": 144,
        "13528": 34,
        "13529": 95,
        "13530": 186,
        "13531": 25,
        "13532": 175,
        "13533": 148,
        "13534": 10,
        "13535": 89,
        "13536": 254,
        "13537": 216,
        "13538": 164,
        "13539": 128,
        "13540": 142,
        "13541": 53,
        "13542": 234,
        "13543": 230,
        "13544": 15,
        "13545": 177,
        "13546": 51,
        "13547": 102,
        "13548": 37,
        "13549": 228,
        "13550": 251,
        "13551": 14,
        "13552": 194,
        "13553": 163,
        "13554": 251,
        "13555": 9,
        "13556": 175,
        "13557": 134,
        "13558": 56,
        "13559": 55,
        "13560": 166,
        "13561": 70,
        "13562": 67,
        "13563": 30,
        "13564": 18,
        "13565": 164,
        "13566": 3,
        "13567": 78,
        "13568": 126,
        "13569": 194,
        "13570": 242,
        "13571": 142,
        "13572": 51,
        "13573": 102,
        "13574": 206,
        "13575": 152,
        "13576": 142,
        "13577": 224,
        "13578": 191,
        "13579": 5,
        "13580": 170,
        "13581": 28,
        "13582": 147,
        "13583": 242,
        "13584": 163,
        "13585": 123,
        "13586": 145,
        "13587": 104,
        "13588": 153,
        "13589": 49,
        "13590": 244,
        "13591": 93,
        "13592": 149,
        "13593": 142,
        "13594": 139,
        "13595": 128,
        "13596": 179,
        "13597": 8,
        "13598": 82,
        "13599": 9,
        "13600": 175,
        "13601": 161,
        "13602": 150,
        "13603": 208,
        "13604": 138,
        "13605": 39,
        "13606": 23,
        "13607": 213,
        "13608": 252,
        "13609": 19,
        "13610": 179,
        "13611": 26,
        "13612": 165,
        "13613": 151,
        "13614": 162,
        "13615": 214,
        "13616": 228,
        "13617": 115,
        "13618": 239,
        "13619": 198,
        "13620": 204,
        "13621": 19,
        "13622": 104,
        "13623": 146,
        "13624": 235,
        "13625": 71,
        "13626": 180,
        "13627": 231,
        "13628": 103,
        "13629": 251,
        "13630": 74,
        "13631": 131,
        "13632": 166,
        "13633": 5,
        "13634": 81,
        "13635": 252,
        "13636": 88,
        "13637": 170,
        "13638": 118,
        "13639": 235,
        "13640": 251,
        "13641": 246,
        "13642": 101,
        "13643": 188,
        "13644": 156,
        "13645": 47,
        "13646": 107,
        "13647": 85,
        "13648": 180,
        "13649": 209,
        "13650": 48,
        "13651": 73,
        "13652": 168,
        "13653": 2,
        "13654": 49,
        "13655": 44,
        "13656": 219,
        "13657": 138,
        "13658": 236,
        "13659": 116,
        "13660": 253,
        "13661": 89,
        "13662": 129,
        "13663": 63,
        "13664": 114,
        "13665": 176,
        "13666": 160,
        "13667": 190,
        "13668": 101,
        "13669": 44,
        "13670": 226,
        "13671": 47,
        "13672": 5,
        "13673": 52,
        "13674": 248,
        "13675": 152,
        "13676": 252,
        "13677": 53,
        "13678": 224,
        "13679": 116,
        "13680": 36,
        "13681": 202,
        "13682": 229,
        "13683": 221,
        "13684": 41,
        "13685": 10,
        "13686": 53,
        "13687": 181,
        "13688": 252,
        "13689": 208,
        "13690": 131,
        "13691": 201,
        "13692": 3,
        "13693": 69,
        "13694": 81,
        "13695": 87,
        "13696": 84,
        "13697": 167,
        "13698": 236,
        "13699": 244,
        "13700": 11,
        "13701": 85,
        "13702": 242,
        "13703": 118,
        "13704": 226,
        "13705": 203,
        "13706": 196,
        "13707": 38,
        "13708": 41,
        "13709": 70,
        "13710": 189,
        "13711": 162,
        "13712": 111,
        "13713": 219,
        "13714": 87,
        "13715": 17,
        "13716": 166,
        "13717": 247,
        "13718": 133,
        "13719": 184,
        "13720": 161,
        "13721": 123,
        "13722": 221,
        "13723": 216,
        "13724": 84,
        "13725": 222,
        "13726": 115,
        "13727": 101,
        "13728": 38,
        "13729": 123,
        "13730": 127,
        "13731": 251,
        "13732": 160,
        "13733": 179,
        "13734": 72,
        "13735": 4,
        "13736": 74,
        "13737": 98,
        "13738": 93,
        "13739": 98,
        "13740": 142,
        "13741": 206,
        "13742": 73,
        "13743": 0,
        "13744": 7,
        "13745": 192,
        "13746": 244,
        "13747": 72,
        "13748": 93,
        "13749": 240,
        "13750": 192,
        "13751": 142,
        "13752": 108,
        "13753": 196,
        "13754": 123,
        "13755": 201,
        "13756": 40,
        "13757": 170,
        "13758": 82,
        "13759": 154,
        "13760": 135,
        "13761": 223,
        "13762": 92,
        "13763": 62,
        "13764": 126,
        "13765": 22,
        "13766": 145,
        "13767": 153,
        "13768": 107,
        "13769": 93,
        "13770": 170,
        "13771": 193,
        "13772": 187,
        "13773": 124,
        "13774": 131,
        "13775": 164,
        "13776": 18,
        "13777": 86,
        "13778": 99,
        "13779": 227,
        "13780": 35,
        "13781": 13,
        "13782": 51,
        "13783": 54,
        "13784": 249,
        "13785": 255,
        "13786": 38,
        "13787": 82,
        "13788": 121,
        "13789": 169,
        "13790": 116,
        "13791": 192,
        "13792": 5,
        "13793": 101,
        "13794": 88,
        "13795": 211,
        "13796": 11,
        "13797": 113,
        "13798": 116,
        "13799": 103,
        "13800": 198,
        "13801": 249,
        "13802": 151,
        "13803": 183,
        "13804": 35,
        "13805": 161,
        "13806": 235,
        "13807": 235,
        "13808": 136,
        "13809": 102,
        "13810": 226,
        "13811": 66,
        "13812": 194,
        "13813": 133,
        "13814": 142,
        "13815": 194,
        "13816": 89,
        "13817": 105,
        "13818": 174,
        "13819": 1,
        "13820": 133,
        "13821": 98,
        "13822": 178,
        "13823": 21,
        "13824": 149,
        "13825": 248,
        "13826": 77,
        "13827": 133,
        "13828": 254,
        "13829": 221,
        "13830": 175,
        "13831": 79,
        "13832": 202,
        "13833": 220,
        "13834": 6,
        "13835": 105,
        "13836": 77,
        "13837": 142,
        "13838": 254,
        "13839": 11,
        "13840": 91,
        "13841": 221,
        "13842": 197,
        "13843": 37,
        "13844": 88,
        "13845": 252,
        "13846": 245,
        "13847": 79,
        "13848": 81,
        "13849": 26,
        "13850": 102,
        "13851": 234,
        "13852": 217,
        "13853": 77,
        "13854": 221,
        "13855": 202,
        "13856": 45,
        "13857": 147,
        "13858": 151,
        "13859": 125,
        "13860": 88,
        "13861": 22,
        "13862": 53,
        "13863": 239,
        "13864": 209,
        "13865": 169,
        "13866": 220,
        "13867": 38,
        "13868": 191,
        "13869": 174,
        "13870": 86,
        "13871": 158,
        "13872": 22,
        "13873": 216,
        "13874": 198,
        "13875": 116,
        "13876": 183,
        "13877": 180,
        "13878": 234,
        "13879": 195,
        "13880": 158,
        "13881": 106,
        "13882": 163,
        "13883": 118,
        "13884": 161,
        "13885": 87,
        "13886": 250,
        "13887": 35,
        "13888": 211,
        "13889": 154,
        "13890": 224,
        "13891": 41,
        "13892": 123,
        "13893": 82,
        "13894": 93,
        "13895": 172,
        "13896": 112,
        "13897": 24,
        "13898": 217,
        "13899": 10,
        "13900": 78,
        "13901": 24,
        "13902": 45,
        "13903": 146,
        "13904": 159,
        "13905": 233,
        "13906": 187,
        "13907": 137,
        "13908": 157,
        "13909": 112,
        "13910": 164,
        "13911": 213,
        "13912": 78,
        "13913": 113,
        "13914": 58,
        "13915": 179,
        "13916": 157,
        "13917": 210,
        "13918": 139,
        "13919": 20,
        "13920": 233,
        "13921": 117,
        "13922": 181,
        "13923": 93,
        "13924": 191,
        "13925": 243,
        "13926": 76,
        "13927": 23,
        "13928": 250,
        "13929": 243,
        "13930": 84,
        "13931": 198,
        "13932": 173,
        "13933": 109,
        "13934": 128,
        "13935": 85,
        "13936": 82,
        "13937": 38,
        "13938": 150,
        "13939": 135,
        "13940": 19,
        "13941": 166,
        "13942": 201,
        "13943": 249,
        "13944": 235,
        "13945": 26,
        "13946": 162,
        "13947": 87,
        "13948": 151,
        "13949": 36,
        "13950": 16,
        "13951": 249,
        "13952": 36,
        "13953": 77,
        "13954": 14,
        "13955": 190,
        "13956": 37,
        "13957": 107,
        "13958": 129,
        "13959": 27,
        "13960": 90,
        "13961": 111,
        "13962": 110,
        "13963": 124,
        "13964": 66,
        "13965": 198,
        "13966": 80,
        "13967": 49,
        "13968": 183,
        "13969": 208,
        "13970": 7,
        "13971": 221,
        "13972": 138,
        "13973": 214,
        "13974": 47,
        "13975": 90,
        "13976": 165,
        "13977": 239,
        "13978": 198,
        "13979": 10,
        "13980": 155,
        "13981": 95,
        "13982": 67,
        "13983": 43,
        "13984": 134,
        "13985": 98,
        "13986": 194,
        "13987": 71,
        "13988": 103,
        "13989": 251,
        "13990": 40,
        "13991": 141,
        "13992": 40,
        "13993": 202,
        "13994": 78,
        "13995": 19,
        "13996": 80,
        "13997": 87,
        "13998": 208,
        "13999": 175,
        "14000": 32,
        "14001": 198,
        "14002": 59,
        "14003": 112,
        "14004": 55,
        "14005": 191,
        "14006": 88,
        "14007": 88,
        "14008": 210,
        "14009": 198,
        "14010": 219,
        "14011": 204,
        "14012": 23,
        "14013": 238,
        "14014": 222,
        "14015": 13,
        "14016": 245,
        "14017": 36,
        "14018": 56,
        "14019": 100,
        "14020": 168,
        "14021": 85,
        "14022": 3,
        "14023": 122,
        "14024": 47,
        "14025": 225,
        "14026": 147,
        "14027": 161,
        "14028": 128,
        "14029": 148,
        "14030": 116,
        "14031": 0,
        "14032": 187,
        "14033": 142,
        "14034": 197,
        "14035": 25,
        "14036": 222,
        "14037": 182,
        "14038": 191,
        "14039": 59,
        "14040": 212,
        "14041": 146,
        "14042": 20,
        "14043": 225,
        "14044": 130,
        "14045": 161,
        "14046": 99,
        "14047": 40,
        "14048": 155,
        "14049": 204,
        "14050": 56,
        "14051": 56,
        "14052": 230,
        "14053": 52,
        "14054": 5,
        "14055": 249,
        "14056": 86,
        "14057": 27,
        "14058": 224,
        "14059": 46,
        "14060": 74,
        "14061": 117,
        "14062": 90,
        "14063": 183,
        "14064": 241,
        "14065": 221,
        "14066": 206,
        "14067": 88,
        "14068": 44,
        "14069": 129,
        "14070": 54,
        "14071": 198,
        "14072": 19,
        "14073": 216,
        "14074": 7,
        "14075": 12,
        "14076": 12,
        "14077": 172,
        "14078": 160,
        "14079": 160,
        "14080": 171,
        "14081": 45,
        "14082": 193,
        "14083": 68,
        "14084": 129,
        "14085": 217,
        "14086": 12,
        "14087": 222,
        "14088": 66,
        "14089": 103,
        "14090": 200,
        "14091": 229,
        "14092": 165,
        "14093": 207,
        "14094": 86,
        "14095": 177,
        "14096": 169,
        "14097": 197,
        "14098": 189,
        "14099": 39,
        "14100": 202,
        "14101": 138,
        "14102": 194,
        "14103": 140,
        "14104": 27,
        "14105": 155,
        "14106": 78,
        "14107": 185,
        "14108": 87,
        "14109": 171,
        "14110": 202,
        "14111": 166,
        "14112": 166,
        "14113": 135,
        "14114": 83,
        "14115": 156,
        "14116": 38,
        "14117": 111,
        "14118": 123,
        "14119": 104,
        "14120": 90,
        "14121": 219,
        "14122": 107,
        "14123": 77,
        "14124": 213,
        "14125": 179,
        "14126": 169,
        "14127": 214,
        "14128": 224,
        "14129": 185,
        "14130": 214,
        "14131": 228,
        "14132": 124,
        "14133": 214,
        "14134": 117,
        "14135": 216,
        "14136": 39,
        "14137": 33,
        "14138": 141,
        "14139": 103,
        "14140": 201,
        "14141": 101,
        "14142": 126,
        "14143": 145,
        "14144": 246,
        "14145": 180,
        "14146": 201,
        "14147": 69,
        "14148": 157,
        "14149": 166,
        "14150": 157,
        "14151": 234,
        "14152": 151,
        "14153": 69,
        "14154": 251,
        "14155": 112,
        "14156": 63,
        "14157": 16,
        "14158": 9,
        "14159": 118,
        "14160": 111,
        "14161": 133,
        "14162": 57,
        "14163": 169,
        "14164": 17,
        "14165": 38,
        "14166": 142,
        "14167": 111,
        "14168": 99,
        "14169": 205,
        "14170": 130,
        "14171": 244,
        "14172": 79,
        "14173": 151,
        "14174": 189,
        "14175": 190,
        "14176": 172,
        "14177": 247,
        "14178": 91,
        "14179": 87,
        "14180": 221,
        "14181": 15,
        "14182": 15,
        "14183": 180,
        "14184": 24,
        "14185": 21,
        "14186": 108,
        "14187": 234,
        "14188": 235,
        "14189": 38,
        "14190": 205,
        "14191": 42,
        "14192": 91,
        "14193": 75,
        "14194": 119,
        "14195": 191,
        "14196": 129,
        "14197": 192,
        "14198": 218,
        "14199": 126,
        "14200": 25,
        "14201": 217,
        "14202": 78,
        "14203": 237,
        "14204": 98,
        "14205": 70,
        "14206": 197,
        "14207": 48,
        "14208": 15,
        "14209": 47,
        "14210": 94,
        "14211": 166,
        "14212": 29,
        "14213": 197,
        "14214": 239,
        "14215": 57,
        "14216": 210,
        "14217": 233,
        "14218": 33,
        "14219": 135,
        "14220": 56,
        "14221": 156,
        "14222": 212,
        "14223": 215,
        "14224": 65,
        "14225": 160,
        "14226": 40,
        "14227": 29,
        "14228": 71,
        "14229": 133,
        "14230": 68,
        "14231": 175,
        "14232": 84,
        "14233": 77,
        "14234": 38,
        "14235": 236,
        "14236": 195,
        "14237": 25,
        "14238": 109,
        "14239": 82,
        "14240": 166,
        "14241": 239,
        "14242": 35,
        "14243": 120,
        "14244": 109,
        "14245": 102,
        "14246": 146,
        "14247": 133,
        "14248": 219,
        "14249": 8,
        "14250": 132,
        "14251": 101,
        "14252": 250,
        "14253": 105,
        "14254": 151,
        "14255": 115,
        "14256": 206,
        "14257": 82,
        "14258": 131,
        "14259": 72,
        "14260": 69,
        "14261": 54,
        "14262": 189,
        "14263": 245,
        "14264": 65,
        "14265": 74,
        "14266": 28,
        "14267": 132,
        "14268": 29,
        "14269": 178,
        "14270": 206,
        "14271": 4,
        "14272": 73,
        "14273": 254,
        "14274": 206,
        "14275": 247,
        "14276": 177,
        "14277": 124,
        "14278": 62,
        "14279": 92,
        "14280": 211,
        "14281": 60,
        "14282": 220,
        "14283": 149,
        "14284": 15,
        "14285": 17,
        "14286": 99,
        "14287": 220,
        "14288": 19,
        "14289": 190,
        "14290": 245,
        "14291": 218,
        "14292": 175,
        "14293": 51,
        "14294": 208,
        "14295": 46,
        "14296": 25,
        "14297": 117,
        "14298": 153,
        "14299": 3,
        "14300": 26,
        "14301": 164,
        "14302": 237,
        "14303": 101,
        "14304": 109,
        "14305": 201,
        "14306": 42,
        "14307": 209,
        "14308": 11,
        "14309": 78,
        "14310": 12,
        "14311": 66,
        "14312": 101,
        "14313": 55,
        "14314": 206,
        "14315": 67,
        "14316": 115,
        "14317": 90,
        "14318": 175,
        "14319": 65,
        "14320": 51,
        "14321": 224,
        "14322": 169,
        "14323": 88,
        "14324": 79,
        "14325": 110,
        "14326": 43,
        "14327": 153,
        "14328": 28,
        "14329": 134,
        "14330": 200,
        "14331": 139,
        "14332": 67,
        "14333": 125,
        "14334": 210,
        "14335": 95,
        "14336": 25,
        "14337": 86,
        "14338": 172,
        "14339": 139,
        "14340": 213,
        "14341": 220,
        "14342": 224,
        "14343": 65,
        "14344": 24,
        "14345": 94,
        "14346": 245,
        "14347": 88,
        "14348": 117,
        "14349": 108,
        "14350": 27,
        "14351": 2,
        "14352": 228,
        "14353": 21,
        "14354": 167,
        "14355": 125,
        "14356": 166,
        "14357": 214,
        "14358": 70,
        "14359": 234,
        "14360": 117,
        "14361": 40,
        "14362": 229,
        "14363": 183,
        "14364": 177,
        "14365": 178,
        "14366": 169,
        "14367": 185,
        "14368": 240,
        "14369": 74,
        "14370": 132,
        "14371": 189,
        "14372": 76,
        "14373": 134,
        "14374": 74,
        "14375": 107,
        "14376": 237,
        "14377": 186,
        "14378": 171,
        "14379": 193,
        "14380": 50,
        "14381": 168,
        "14382": 35,
        "14383": 165,
        "14384": 121,
        "14385": 229,
        "14386": 190,
        "14387": 57,
        "14388": 192,
        "14389": 214,
        "14390": 81,
        "14391": 180,
        "14392": 73,
        "14393": 237,
        "14394": 82,
        "14395": 236,
        "14396": 111,
        "14397": 50,
        "14398": 161,
        "14399": 227,
        "14400": 65,
        "14401": 101,
        "14402": 42,
        "14403": 94,
        "14404": 109,
        "14405": 149,
        "14406": 239,
        "14407": 209,
        "14408": 254,
        "14409": 232,
        "14410": 99,
        "14411": 255,
        "14412": 166,
        "14413": 251,
        "14414": 164,
        "14415": 251,
        "14416": 251,
        "14417": 42,
        "14418": 205,
        "14419": 61,
        "14420": 249,
        "14421": 114,
        "14422": 236,
        "14423": 159,
        "14424": 66,
        "14425": 93,
        "14426": 23,
        "14427": 113,
        "14428": 142,
        "14429": 83,
        "14430": 93,
        "14431": 127,
        "14432": 81,
        "14433": 162,
        "14434": 49,
        "14435": 147,
        "14436": 132,
        "14437": 201,
        "14438": 249,
        "14439": 118,
        "14440": 100,
        "14441": 177,
        "14442": 0,
        "14443": 182,
        "14444": 166,
        "14445": 252,
        "14446": 2,
        "14447": 220,
        "14448": 153,
        "14449": 125,
        "14450": 133,
        "14451": 220,
        "14452": 10,
        "14453": 133,
        "14454": 201,
        "14455": 184,
        "14456": 199,
        "14457": 9,
        "14458": 18,
        "14459": 138,
        "14460": 46,
        "14461": 169,
        "14462": 183,
        "14463": 180,
        "14464": 237,
        "14465": 176,
        "14466": 149,
        "14467": 25,
        "14468": 32,
        "14469": 29,
        "14470": 132,
        "14471": 165,
        "14472": 228,
        "14473": 183,
        "14474": 155,
        "14475": 13,
        "14476": 191,
        "14477": 170,
        "14478": 143,
        "14479": 102,
        "14480": 175,
        "14481": 167,
        "14482": 233,
        "14483": 172,
        "14484": 30,
        "14485": 163,
        "14486": 112,
        "14487": 182,
        "14488": 135,
        "14489": 250,
        "14490": 196,
        "14491": 187,
        "14492": 135,
        "14493": 27,
        "14494": 105,
        "14495": 42,
        "14496": 158,
        "14497": 117,
        "14498": 225,
        "14499": 190,
        "14500": 0,
        "14501": 170,
        "14502": 65,
        "14503": 137,
        "14504": 9,
        "14505": 55,
        "14506": 30,
        "14507": 10,
        "14508": 35,
        "14509": 34,
        "14510": 105,
        "14511": 104,
        "14512": 38,
        "14513": 179,
        "14514": 12,
        "14515": 185,
        "14516": 252,
        "14517": 75,
        "14518": 196,
        "14519": 159,
        "14520": 48,
        "14521": 97,
        "14522": 74,
        "14523": 80,
        "14524": 92,
        "14525": 151,
        "14526": 253,
        "14527": 73,
        "14528": 255,
        "14529": 23,
        "14530": 206,
        "14531": 67,
        "14532": 89,
        "14533": 190,
        "14534": 165,
        "14535": 36,
        "14536": 241,
        "14537": 202,
        "14538": 189,
        "14539": 64,
        "14540": 43,
        "14541": 52,
        "14542": 48,
        "14543": 9,
        "14544": 199,
        "14545": 62,
        "14546": 20,
        "14547": 116,
        "14548": 137,
        "14549": 185,
        "14550": 19,
        "14551": 81,
        "14552": 46,
        "14553": 11,
        "14554": 188,
        "14555": 143,
        "14556": 136,
        "14557": 157,
        "14558": 141,
        "14559": 39,
        "14560": 112,
        "14561": 69,
        "14562": 85,
        "14563": 195,
        "14564": 121,
        "14565": 227,
        "14566": 44,
        "14567": 193,
        "14568": 157,
        "14569": 86,
        "14570": 138,
        "14571": 240,
        "14572": 72,
        "14573": 148,
        "14574": 179,
        "14575": 85,
        "14576": 4,
        "14577": 44,
        "14578": 96,
        "14579": 8,
        "14580": 139,
        "14581": 165,
        "14582": 87,
        "14583": 88,
        "14584": 5,
        "14585": 24,
        "14586": 41,
        "14587": 198,
        "14588": 118,
        "14589": 237,
        "14590": 239,
        "14591": 124,
        "14592": 171,
        "14593": 96,
        "14594": 229,
        "14595": 30,
        "14596": 204,
        "14597": 79,
        "14598": 25,
        "14599": 49,
        "14600": 151,
        "14601": 216,
        "14602": 13,
        "14603": 22,
        "14604": 237,
        "14605": 81,
        "14606": 3,
        "14607": 25,
        "14608": 226,
        "14609": 35,
        "14610": 244,
        "14611": 51,
        "14612": 185,
        "14613": 7,
        "14614": 68,
        "14615": 185,
        "14616": 217,
        "14617": 190,
        "14618": 84,
        "14619": 75,
        "14620": 72,
        "14621": 68,
        "14622": 241,
        "14623": 84,
        "14624": 177,
        "14625": 77,
        "14626": 182,
        "14627": 98,
        "14628": 1,
        "14629": 62,
        "14630": 4,
        "14631": 94,
        "14632": 125,
        "14633": 241,
        "14634": 77,
        "14635": 77,
        "14636": 247,
        "14637": 252,
        "14638": 210,
        "14639": 202,
        "14640": 106,
        "14641": 109,
        "14642": 161,
        "14643": 98,
        "14644": 167,
        "14645": 155,
        "14646": 194,
        "14647": 105,
        "14648": 250,
        "14649": 164,
        "14650": 40,
        "14651": 66,
        "14652": 152,
        "14653": 69,
        "14654": 220,
        "14655": 57,
        "14656": 192,
        "14657": 57,
        "14658": 136,
        "14659": 233,
        "14660": 224,
        "14661": 204,
        "14662": 166,
        "14663": 226,
        "14664": 252,
        "14665": 103,
        "14666": 187,
        "14667": 139,
        "14668": 172,
        "14669": 192,
        "14670": 150,
        "14671": 28,
        "14672": 143,
        "14673": 230,
        "14674": 108,
        "14675": 183,
        "14676": 1,
        "14677": 51,
        "14678": 23,
        "14679": 132,
        "14680": 199,
        "14681": 144,
        "14682": 80,
        "14683": 185,
        "14684": 126,
        "14685": 120,
        "14686": 199,
        "14687": 167,
        "14688": 26,
        "14689": 11,
        "14690": 172,
        "14691": 24,
        "14692": 203,
        "14693": 83,
        "14694": 185,
        "14695": 82,
        "14696": 172,
        "14697": 178,
        "14698": 108,
        "14699": 61,
        "14700": 217,
        "14701": 23,
        "14702": 32,
        "14703": 232,
        "14704": 79,
        "14705": 192,
        "14706": 150,
        "14707": 109,
        "14708": 133,
        "14709": 164,
        "14710": 178,
        "14711": 200,
        "14712": 229,
        "14713": 26,
        "14714": 81,
        "14715": 226,
        "14716": 92,
        "14717": 80,
        "14718": 134,
        "14719": 151,
        "14720": 0,
        "14721": 160,
        "14722": 10,
        "14723": 142,
        "14724": 153,
        "14725": 179,
        "14726": 161,
        "14727": 172,
        "14728": 177,
        "14729": 92,
        "14730": 25,
        "14731": 115,
        "14732": 165,
        "14733": 64,
        "14734": 152,
        "14735": 205,
        "14736": 245,
        "14737": 229,
        "14738": 174,
        "14739": 77,
        "14740": 157,
        "14741": 68,
        "14742": 176,
        "14743": 194,
        "14744": 25,
        "14745": 250,
        "14746": 233,
        "14747": 1,
        "14748": 58,
        "14749": 29,
        "14750": 129,
        "14751": 41,
        "14752": 2,
        "14753": 19,
        "14754": 56,
        "14755": 171,
        "14756": 184,
        "14757": 21,
        "14758": 252,
        "14759": 12,
        "14760": 71,
        "14761": 3,
        "14762": 67,
        "14763": 149,
        "14764": 206,
        "14765": 236,
        "14766": 73,
        "14767": 125,
        "14768": 108,
        "14769": 81,
        "14770": 176,
        "14771": 162,
        "14772": 112,
        "14773": 100,
        "14774": 174,
        "14775": 20,
        "14776": 200,
        "14777": 112,
        "14778": 231,
        "14779": 67,
        "14780": 33,
        "14781": 241,
        "14782": 46,
        "14783": 62,
        "14784": 77,
        "14785": 129,
        "14786": 182,
        "14787": 11,
        "14788": 86,
        "14789": 162,
        "14790": 166,
        "14791": 249,
        "14792": 43,
        "14793": 251,
        "14794": 128,
        "14795": 140,
        "14796": 76,
        "14797": 23,
        "14798": 122,
        "14799": 161,
        "14800": 195,
        "14801": 179,
        "14802": 154,
        "14803": 201,
        "14804": 72,
        "14805": 71,
        "14806": 213,
        "14807": 67,
        "14808": 216,
        "14809": 132,
        "14810": 195,
        "14811": 9,
        "14812": 255,
        "14813": 11,
        "14814": 18,
        "14815": 248,
        "14816": 124,
        "14817": 128,
        "14818": 143,
        "14819": 173,
        "14820": 110,
        "14821": 217,
        "14822": 219,
        "14823": 140,
        "14824": 3,
        "14825": 166,
        "14826": 97,
        "14827": 220,
        "14828": 73,
        "14829": 13,
        "14830": 20,
        "14831": 134,
        "14832": 247,
        "14833": 12,
        "14834": 144,
        "14835": 179,
        "14836": 68,
        "14837": 175,
        "14838": 107,
        "14839": 7,
        "14840": 4,
        "14841": 137,
        "14842": 145,
        "14843": 138,
        "14844": 52,
        "14845": 69,
        "14846": 161,
        "14847": 246,
        "14848": 49,
        "14849": 6,
        "14850": 58,
        "14851": 231,
        "14852": 132,
        "14853": 42,
        "14854": 230,
        "14855": 103,
        "14856": 194,
        "14857": 122,
        "14858": 107,
        "14859": 130,
        "14860": 121,
        "14861": 148,
        "14862": 209,
        "14863": 162,
        "14864": 106,
        "14865": 121,
        "14866": 205,
        "14867": 33,
        "14868": 90,
        "14869": 4,
        "14870": 167,
        "14871": 94,
        "14872": 134,
        "14873": 178,
        "14874": 154,
        "14875": 208,
        "14876": 204,
        "14877": 64,
        "14878": 176,
        "14879": 141,
        "14880": 43,
        "14881": 19,
        "14882": 144,
        "14883": 210,
        "14884": 137,
        "14885": 68,
        "14886": 148,
        "14887": 207,
        "14888": 214,
        "14889": 46,
        "14890": 229,
        "14891": 205,
        "14892": 157,
        "14893": 105,
        "14894": 51,
        "14895": 189,
        "14896": 157,
        "14897": 134,
        "14898": 238,
        "14899": 110,
        "14900": 94,
        "14901": 167,
        "14902": 134,
        "14903": 73,
        "14904": 70,
        "14905": 244,
        "14906": 103,
        "14907": 229,
        "14908": 44,
        "14909": 86,
        "14910": 26,
        "14911": 101,
        "14912": 9,
        "14913": 121,
        "14914": 123,
        "14915": 3,
        "14916": 105,
        "14917": 176,
        "14918": 38,
        "14919": 253,
        "14920": 29,
        "14921": 176,
        "14922": 247,
        "14923": 69,
        "14924": 60,
        "14925": 15,
        "14926": 238,
        "14927": 248,
        "14928": 9,
        "14929": 17,
        "14930": 78,
        "14931": 22,
        "14932": 48,
        "14933": 172,
        "14934": 174,
        "14935": 42,
        "14936": 161,
        "14937": 104,
        "14938": 3,
        "14939": 59,
        "14940": 111,
        "14941": 89,
        "14942": 168,
        "14943": 17,
        "14944": 1,
        "14945": 137,
        "14946": 110,
        "14947": 36,
        "14948": 9,
        "14949": 219,
        "14950": 27,
        "14951": 53,
        "14952": 178,
        "14953": 106,
        "14954": 254,
        "14955": 63,
        "14956": 83,
        "14957": 44,
        "14958": 79,
        "14959": 147,
        "14960": 133,
        "14961": 24,
        "14962": 75,
        "14963": 173,
        "14964": 223,
        "14965": 53,
        "14966": 28,
        "14967": 147,
        "14968": 152,
        "14969": 94,
        "14970": 100,
        "14971": 160,
        "14972": 19,
        "14973": 45,
        "14974": 187,
        "14975": 103,
        "14976": 198,
        "14977": 48,
        "14978": 170,
        "14979": 115,
        "14980": 115,
        "14981": 47,
        "14982": 91,
        "14983": 101,
        "14984": 24,
        "14985": 26,
        "14986": 219,
        "14987": 84,
        "14988": 82,
        "14989": 64,
        "14990": 196,
        "14991": 35,
        "14992": 33,
        "14993": 150,
        "14994": 215,
        "14995": 229,
        "14996": 173,
        "14997": 94,
        "14998": 12,
        "14999": 54,
        "15000": 173,
        "15001": 158,
        "15002": 54,
        "15003": 190,
        "15004": 85,
        "15005": 143,
        "15006": 233,
        "15007": 220,
        "15008": 47,
        "15009": 1,
        "15010": 52,
        "15011": 19,
        "15012": 12,
        "15013": 102,
        "15014": 135,
        "15015": 26,
        "15016": 38,
        "15017": 142,
        "15018": 127,
        "15019": 51,
        "15020": 100,
        "15021": 199,
        "15022": 58,
        "15023": 92,
        "15024": 210,
        "15025": 64,
        "15026": 147,
        "15027": 206,
        "15028": 43,
        "15029": 118,
        "15030": 73,
        "15031": 142,
        "15032": 24,
        "15033": 218,
        "15034": 134,
        "15035": 145,
        "15036": 159,
        "15037": 15,
        "15038": 129,
        "15039": 21,
        "15040": 238,
        "15041": 85,
        "15042": 209,
        "15043": 131,
        "15044": 253,
        "15045": 0,
        "15046": 57,
        "15047": 145,
        "15048": 37,
        "15049": 23,
        "15050": 149,
        "15051": 54,
        "15052": 155,
        "15053": 232,
        "15054": 42,
        "15055": 46,
        "15056": 137,
        "15057": 209,
        "15058": 28,
        "15059": 131,
        "15060": 62,
        "15061": 132,
        "15062": 244,
        "15063": 237,
        "15064": 6,
        "15065": 209,
        "15066": 148,
        "15067": 254,
        "15068": 184,
        "15069": 105,
        "15070": 134,
        "15071": 244,
        "15072": 161,
        "15073": 103,
        "15074": 228,
        "15075": 183,
        "15076": 164,
        "15077": 195,
        "15078": 242,
        "15079": 122,
        "15080": 204,
        "15081": 99,
        "15082": 156,
        "15083": 130,
        "15084": 138,
        "15085": 17,
        "15086": 211,
        "15087": 91,
        "15088": 124,
        "15089": 196,
        "15090": 191,
        "15091": 224,
        "15092": 170,
        "15093": 146,
        "15094": 85,
        "15095": 106,
        "15096": 38,
        "15097": 194,
        "15098": 250,
        "15099": 174,
        "15100": 227,
        "15101": 253,
        "15102": 244,
        "15103": 142,
        "15104": 200,
        "15105": 155,
        "15106": 160,
        "15107": 172,
        "15108": 241,
        "15109": 77,
        "15110": 98,
        "15111": 24,
        "15112": 20,
        "15113": 15,
        "15114": 234,
        "15115": 64,
        "15116": 130,
        "15117": 194,
        "15118": 198,
        "15119": 78,
        "15120": 228,
        "15121": 13,
        "15122": 189,
        "15123": 31,
        "15124": 10,
        "15125": 231,
        "15126": 50,
        "15127": 102,
        "15128": 136,
        "15129": 125,
        "15130": 210,
        "15131": 39,
        "15132": 142,
        "15133": 59,
        "15134": 158,
        "15135": 56,
        "15136": 88,
        "15137": 118,
        "15138": 230,
        "15139": 79,
        "15140": 156,
        "15141": 104,
        "15142": 181,
        "15143": 209,
        "15144": 4,
        "15145": 190,
        "15146": 230,
        "15147": 33,
        "15148": 149,
        "15149": 175,
        "15150": 50,
        "15151": 216,
        "15152": 21,
        "15153": 42,
        "15154": 43,
        "15155": 35,
        "15156": 126,
        "15157": 106,
        "15158": 228,
        "15159": 127,
        "15160": 232,
        "15161": 76,
        "15162": 224,
        "15163": 31,
        "15164": 93,
        "15165": 179,
        "15166": 0,
        "15167": 201,
        "15168": 171,
        "15169": 219,
        "15170": 120,
        "15171": 53,
        "15172": 245,
        "15173": 10,
        "15174": 24,
        "15175": 54,
        "15176": 35,
        "15177": 153,
        "15178": 54,
        "15179": 159,
        "15180": 120,
        "15181": 255,
        "15182": 245,
        "15183": 253,
        "15184": 11,
        "15185": 111,
        "15186": 17,
        "15187": 56,
        "15188": 36,
        "15189": 34,
        "15190": 179,
        "15191": 159,
        "15192": 141,
        "15193": 110,
        "15194": 146,
        "15195": 8,
        "15196": 151,
        "15197": 242,
        "15198": 109,
        "15199": 4,
        "15200": 73,
        "15201": 14,
        "15202": 81,
        "15203": 163,
        "15204": 51,
        "15205": 79,
        "15206": 82,
        "15207": 187,
        "15208": 123,
        "15209": 162,
        "15210": 233,
        "15211": 144,
        "15212": 101,
        "15213": 144,
        "15214": 29,
        "15215": 96,
        "15216": 39,
        "15217": 103,
        "15218": 109,
        "15219": 121,
        "15220": 206,
        "15221": 98,
        "15222": 144,
        "15223": 101,
        "15224": 100,
        "15225": 131,
        "15226": 99,
        "15227": 106,
        "15228": 22,
        "15229": 130,
        "15230": 63,
        "15231": 181,
        "15232": 112,
        "15233": 65,
        "15234": 14,
        "15235": 22,
        "15236": 196,
        "15237": 174,
        "15238": 55,
        "15239": 148,
        "15240": 100,
        "15241": 99,
        "15242": 252,
        "15243": 97,
        "15244": 197,
        "15245": 238,
        "15246": 64,
        "15247": 199,
        "15248": 64,
        "15249": 109,
        "15250": 52,
        "15251": 81,
        "15252": 108,
        "15253": 184,
        "15254": 158,
        "15255": 166,
        "15256": 165,
        "15257": 100,
        "15258": 171,
        "15259": 1,
        "15260": 95,
        "15261": 219,
        "15262": 77,
        "15263": 1,
        "15264": 7,
        "15265": 241,
        "15266": 96,
        "15267": 82,
        "15268": 227,
        "15269": 201,
        "15270": 35,
        "15271": 194,
        "15272": 211,
        "15273": 136,
        "15274": 160,
        "15275": 194,
        "15276": 210,
        "15277": 144,
        "15278": 2,
        "15279": 225,
        "15280": 240,
        "15281": 56,
        "15282": 20,
        "15283": 90,
        "15284": 90,
        "15285": 44,
        "15286": 164,
        "15287": 65,
        "15288": 11,
        "15289": 181,
        "15290": 138,
        "15291": 35,
        "15292": 133,
        "15293": 55,
        "15294": 33,
        "15295": 199,
        "15296": 185,
        "15297": 149,
        "15298": 237,
        "15299": 41,
        "15300": 230,
        "15301": 172,
        "15302": 67,
        "15303": 130,
        "15304": 38,
        "15305": 177,
        "15306": 72,
        "15307": 109,
        "15308": 208,
        "15309": 226,
        "15310": 22,
        "15311": 173,
        "15312": 254,
        "15313": 175,
        "15314": 17,
        "15315": 155,
        "15316": 162,
        "15317": 230,
        "15318": 247,
        "15319": 205,
        "15320": 78,
        "15321": 141,
        "15322": 248,
        "15323": 91,
        "15324": 11,
        "15325": 230,
        "15326": 14,
        "15327": 169,
        "15328": 190,
        "15329": 39,
        "15330": 2,
        "15331": 43,
        "15332": 104,
        "15333": 195,
        "15334": 169,
        "15335": 99,
        "15336": 199,
        "15337": 236,
        "15338": 61,
        "15339": 92,
        "15340": 52,
        "15341": 240,
        "15342": 84,
        "15343": 44,
        "15344": 39,
        "15345": 61,
        "15346": 148,
        "15347": 4,
        "15348": 208,
        "15349": 16,
        "15350": 141,
        "15351": 138,
        "15352": 84,
        "15353": 179,
        "15354": 52,
        "15355": 166,
        "15356": 236,
        "15357": 160,
        "15358": 45,
        "15359": 149,
        "15360": 234,
        "15361": 101,
        "15362": 83,
        "15363": 84,
        "15364": 134,
        "15365": 110,
        "15366": 143,
        "15367": 144,
        "15368": 125,
        "15369": 231,
        "15370": 98,
        "15371": 236,
        "15372": 81,
        "15373": 156,
        "15374": 120,
        "15375": 5,
        "15376": 183,
        "15377": 200,
        "15378": 130,
        "15379": 201,
        "15380": 78,
        "15381": 118,
        "15382": 76,
        "15383": 71,
        "15384": 242,
        "15385": 222,
        "15386": 117,
        "15387": 77,
        "15388": 80,
        "15389": 44,
        "15390": 56,
        "15391": 24,
        "15392": 50,
        "15393": 155,
        "15394": 68,
        "15395": 0,
        "15396": 244,
        "15397": 2,
        "15398": 167,
        "15399": 3,
        "15400": 220,
        "15401": 153,
        "15402": 173,
        "15403": 230,
        "15404": 28,
        "15405": 17,
        "15406": 139,
        "15407": 70,
        "15408": 123,
        "15409": 16,
        "15410": 243,
        "15411": 81,
        "15412": 249,
        "15413": 11,
        "15414": 178,
        "15415": 17,
        "15416": 186,
        "15417": 147,
        "15418": 122,
        "15419": 184,
        "15420": 185,
        "15421": 124,
        "15422": 31,
        "15423": 87,
        "15424": 92,
        "15425": 26,
        "15426": 168,
        "15427": 62,
        "15428": 205,
        "15429": 107,
        "15430": 33,
        "15431": 192,
        "15432": 181,
        "15433": 35,
        "15434": 4,
        "15435": 44,
        "15436": 176,
        "15437": 172,
        "15438": 44,
        "15439": 40,
        "15440": 81,
        "15441": 194,
        "15442": 160,
        "15443": 92,
        "15444": 250,
        "15445": 97,
        "15446": 119,
        "15447": 172,
        "15448": 48,
        "15449": 169,
        "15450": 59,
        "15451": 222,
        "15452": 92,
        "15453": 73,
        "15454": 123,
        "15455": 251,
        "15456": 7,
        "15457": 218,
        "15458": 172,
        "15459": 177,
        "15460": 217,
        "15461": 251,
        "15462": 6,
        "15463": 42,
        "15464": 157,
        "15465": 0,
        "15466": 72,
        "15467": 126,
        "15468": 111,
        "15469": 191,
        "15470": 203,
        "15471": 173,
        "15472": 219,
        "15473": 2,
        "15474": 190,
        "15475": 238,
        "15476": 123,
        "15477": 34,
        "15478": 190,
        "15479": 251,
        "15480": 165,
        "15481": 232,
        "15482": 175,
        "15483": 249,
        "15484": 1,
        "15485": 120,
        "15486": 84,
        "15487": 68,
        "15488": 116,
        "15489": 59,
        "15490": 90,
        "15491": 168,
        "15492": 166,
        "15493": 167,
        "15494": 108,
        "15495": 154,
        "15496": 27,
        "15497": 10,
        "15498": 235,
        "15499": 89,
        "15500": 249,
        "15501": 181,
        "15502": 232,
        "15503": 224,
        "15504": 108,
        "15505": 183,
        "15506": 108,
        "15507": 245,
        "15508": 70,
        "15509": 181,
        "15510": 19,
        "15511": 198,
        "15512": 177,
        "15513": 71,
        "15514": 21,
        "15515": 251,
        "15516": 21,
        "15517": 15,
        "15518": 18,
        "15519": 77,
        "15520": 111,
        "15521": 250,
        "15522": 109,
        "15523": 81,
        "15524": 164,
        "15525": 204,
        "15526": 173,
        "15527": 171,
        "15528": 46,
        "15529": 36,
        "15530": 137,
        "15531": 33,
        "15532": 3,
        "15533": 33,
        "15534": 203,
        "15535": 129,
        "15536": 34,
        "15537": 39,
        "15538": 107,
        "15539": 252,
        "15540": 224,
        "15541": 10,
        "15542": 55,
        "15543": 34,
        "15544": 146,
        "15545": 248,
        "15546": 63,
        "15547": 178,
        "15548": 251,
        "15549": 191,
        "15550": 248,
        "15551": 148,
        "15552": 12,
        "15553": 62,
        "15554": 136,
        "15555": 139,
        "15556": 233,
        "15557": 253,
        "15558": 54,
        "15559": 185,
        "15560": 206,
        "15561": 36,
        "15562": 100,
        "15563": 32,
        "15564": 82,
        "15565": 118,
        "15566": 174,
        "15567": 88,
        "15568": 30,
        "15569": 251,
        "15570": 31,
        "15571": 72,
        "15572": 145,
        "15573": 182,
        "15574": 155,
        "15575": 37,
        "15576": 39,
        "15577": 25,
        "15578": 134,
        "15579": 146,
        "15580": 130,
        "15581": 86,
        "15582": 143,
        "15583": 69,
        "15584": 202,
        "15585": 243,
        "15586": 168,
        "15587": 242,
        "15588": 251,
        "15589": 26,
        "15590": 1,
        "15591": 133,
        "15592": 28,
        "15593": 97,
        "15594": 1,
        "15595": 72,
        "15596": 235,
        "15597": 154,
        "15598": 183,
        "15599": 147,
        "15600": 212,
        "15601": 208,
        "15602": 116,
        "15603": 24,
        "15604": 195,
        "15605": 198,
        "15606": 105,
        "15607": 173,
        "15608": 9,
        "15609": 47,
        "15610": 20,
        "15611": 52,
        "15612": 225,
        "15613": 225,
        "15614": 82,
        "15615": 245,
        "15616": 52,
        "15617": 179,
        "15618": 99,
        "15619": 198,
        "15620": 104,
        "15621": 88,
        "15622": 139,
        "15623": 202,
        "15624": 191,
        "15625": 115,
        "15626": 67,
        "15627": 184,
        "15628": 238,
        "15629": 238,
        "15630": 220,
        "15631": 70,
        "15632": 24,
        "15633": 92,
        "15634": 202,
        "15635": 55,
        "15636": 63,
        "15637": 95,
        "15638": 136,
        "15639": 55,
        "15640": 70,
        "15641": 85,
        "15642": 113,
        "15643": 64,
        "15644": 221,
        "15645": 207,
        "15646": 29,
        "15647": 173,
        "15648": 155,
        "15649": 85,
        "15650": 46,
        "15651": 41,
        "15652": 175,
        "15653": 76,
        "15654": 206,
        "15655": 30,
        "15656": 166,
        "15657": 218,
        "15658": 3,
        "15659": 196,
        "15660": 10,
        "15661": 246,
        "15662": 58,
        "15663": 192,
        "15664": 110,
        "15665": 124,
        "15666": 255,
        "15667": 153,
        "15668": 100,
        "15669": 234,
        "15670": 173,
        "15671": 229,
        "15672": 205,
        "15673": 15,
        "15674": 180,
        "15675": 137,
        "15676": 252,
        "15677": 44,
        "15678": 228,
        "15679": 75,
        "15680": 49,
        "15681": 160,
        "15682": 7,
        "15683": 118,
        "15684": 60,
        "15685": 144,
        "15686": 192,
        "15687": 58,
        "15688": 120,
        "15689": 56,
        "15690": 46,
        "15691": 170,
        "15692": 170,
        "15693": 227,
        "15694": 182,
        "15695": 41,
        "15696": 98,
        "15697": 202,
        "15698": 178,
        "15699": 230,
        "15700": 52,
        "15701": 124,
        "15702": 83,
        "15703": 33,
        "15704": 113,
        "15705": 202,
        "15706": 193,
        "15707": 102,
        "15708": 204,
        "15709": 66,
        "15710": 196,
        "15711": 197,
        "15712": 209,
        "15713": 23,
        "15714": 125,
        "15715": 111,
        "15716": 168,
        "15717": 209,
        "15718": 123,
        "15719": 135,
        "15720": 113,
        "15721": 105,
        "15722": 175,
        "15723": 31,
        "15724": 176,
        "15725": 185,
        "15726": 181,
        "15727": 185,
        "15728": 181,
        "15729": 201,
        "15730": 217,
        "15731": 143,
        "15732": 231,
        "15733": 48,
        "15734": 126,
        "15735": 237,
        "15736": 207,
        "15737": 158,
        "15738": 158,
        "15739": 26,
        "15740": 215,
        "15741": 85,
        "15742": 247,
        "15743": 219,
        "15744": 119,
        "15745": 78,
        "15746": 154,
        "15747": 176,
        "15748": 160,
        "15749": 237,
        "15750": 162,
        "15751": 58,
        "15752": 79,
        "15753": 43,
        "15754": 212,
        "15755": 177,
        "15756": 41,
        "15757": 229,
        "15758": 61,
        "15759": 75,
        "15760": 169,
        "15761": 203,
        "15762": 68,
        "15763": 148,
        "15764": 13,
        "15765": 188,
        "15766": 176,
        "15767": 101,
        "15768": 10,
        "15769": 32,
        "15770": 72,
        "15771": 133,
        "15772": 108,
        "15773": 7,
        "15774": 69,
        "15775": 250,
        "15776": 37,
        "15777": 255,
        "15778": 138,
        "15779": 112,
        "15780": 119,
        "15781": 41,
        "15782": 137,
        "15783": 200,
        "15784": 46,
        "15785": 167,
        "15786": 110,
        "15787": 95,
        "15788": 185,
        "15789": 153,
        "15790": 184,
        "15791": 254,
        "15792": 177,
        "15793": 138,
        "15794": 3,
        "15795": 48,
        "15796": 198,
        "15797": 109,
        "15798": 167,
        "15799": 143,
        "15800": 16,
        "15801": 181,
        "15802": 60,
        "15803": 112,
        "15804": 113,
        "15805": 238,
        "15806": 5,
        "15807": 77,
        "15808": 11,
        "15809": 109,
        "15810": 209,
        "15811": 145,
        "15812": 69,
        "15813": 231,
        "15814": 42,
        "15815": 13,
        "15816": 240,
        "15817": 156,
        "15818": 212,
        "15819": 62,
        "15820": 185,
        "15821": 87,
        "15822": 249,
        "15823": 156,
        "15824": 127,
        "15825": 107,
        "15826": 202,
        "15827": 72,
        "15828": 113,
        "15829": 201,
        "15830": 22,
        "15831": 230,
        "15832": 192,
        "15833": 50,
        "15834": 238,
        "15835": 62,
        "15836": 30,
        "15837": 11,
        "15838": 3,
        "15839": 250,
        "15840": 120,
        "15841": 81,
        "15842": 185,
        "15843": 45,
        "15844": 183,
        "15845": 214,
        "15846": 253,
        "15847": 17,
        "15848": 71,
        "15849": 94,
        "15850": 102,
        "15851": 5,
        "15852": 226,
        "15853": 128,
        "15854": 237,
        "15855": 2,
        "15856": 114,
        "15857": 8,
        "15858": 51,
        "15859": 24,
        "15860": 178,
        "15861": 132,
        "15862": 41,
        "15863": 77,
        "15864": 85,
        "15865": 40,
        "15866": 172,
        "15867": 68,
        "15868": 169,
        "15869": 58,
        "15870": 21,
        "15871": 108,
        "15872": 169,
        "15873": 220,
        "15874": 129,
        "15875": 77,
        "15876": 36,
        "15877": 223,
        "15878": 166,
        "15879": 223,
        "15880": 221,
        "15881": 81,
        "15882": 227,
        "15883": 11,
        "15884": 45,
        "15885": 134,
        "15886": 200,
        "15887": 182,
        "15888": 31,
        "15889": 179,
        "15890": 65,
        "15891": 153,
        "15892": 61,
        "15893": 135,
        "15894": 123,
        "15895": 29,
        "15896": 196,
        "15897": 205,
        "15898": 102,
        "15899": 31,
        "15900": 126,
        "15901": 152,
        "15902": 235,
        "15903": 222,
        "15904": 207,
        "15905": 0,
        "15906": 177,
        "15907": 52,
        "15908": 245,
        "15909": 95,
        "15910": 13,
        "15911": 145,
        "15912": 183,
        "15913": 191,
        "15914": 222,
        "15915": 35,
        "15916": 85,
        "15917": 183,
        "15918": 214,
        "15919": 71,
        "15920": 160,
        "15921": 233,
        "15922": 135,
        "15923": 46,
        "15924": 160,
        "15925": 106,
        "15926": 254,
        "15927": 192,
        "15928": 209,
        "15929": 45,
        "15930": 48,
        "15931": 8,
        "15932": 110,
        "15933": 177,
        "15934": 71,
        "15935": 38,
        "15936": 83,
        "15937": 199,
        "15938": 104,
        "15939": 94,
        "15940": 57,
        "15941": 25,
        "15942": 154,
        "15943": 187,
        "15944": 239,
        "15945": 106,
        "15946": 223,
        "15947": 30,
        "15948": 55,
        "15949": 146,
        "15950": 11,
        "15951": 116,
        "15952": 132,
        "15953": 138,
        "15954": 113,
        "15955": 161,
        "15956": 202,
        "15957": 168,
        "15958": 114,
        "15959": 164,
        "15960": 59,
        "15961": 23,
        "15962": 222,
        "15963": 161,
        "15964": 235,
        "15965": 202,
        "15966": 79,
        "15967": 171,
        "15968": 158,
        "15969": 42,
        "15970": 224,
        "15971": 117,
        "15972": 74,
        "15973": 176,
        "15974": 24,
        "15975": 208,
        "15976": 59,
        "15977": 218,
        "15978": 252,
        "15979": 23,
        "15980": 214,
        "15981": 117,
        "15982": 215,
        "15983": 96,
        "15984": 180,
        "15985": 226,
        "15986": 224,
        "15987": 236,
        "15988": 74,
        "15989": 177,
        "15990": 101,
        "15991": 175,
        "15992": 23,
        "15993": 103,
        "15994": 183,
        "15995": 234,
        "15996": 122,
        "15997": 59,
        "15998": 51,
        "15999": 35,
        "16000": 101,
        "16001": 223,
        "16002": 172,
        "16003": 194,
        "16004": 102,
        "16005": 46,
        "16006": 31,
        "16007": 54,
        "16008": 217,
        "16009": 200,
        "16010": 8,
        "16011": 89,
        "16012": 87,
        "16013": 231,
        "16014": 26,
        "16015": 239,
        "16016": 66,
        "16017": 146,
        "16018": 78,
        "16019": 251,
        "16020": 171,
        "16021": 20,
        "16022": 242,
        "16023": 115,
        "16024": 227,
        "16025": 192,
        "16026": 175,
        "16027": 207,
        "16028": 148,
        "16029": 27,
        "16030": 53,
        "16031": 91,
        "16032": 245,
        "16033": 119,
        "16034": 186,
        "16035": 105,
        "16036": 148,
        "16037": 7,
        "16038": 177,
        "16039": 198,
        "16040": 76,
        "16041": 28,
        "16042": 181,
        "16043": 73,
        "16044": 71,
        "16045": 82,
        "16046": 139,
        "16047": 47,
        "16048": 47,
        "16049": 237,
        "16050": 119,
        "16051": 110,
        "16052": 87,
        "16053": 148,
        "16054": 16,
        "16055": 164,
        "16056": 14,
        "16057": 102,
        "16058": 172,
        "16059": 13,
        "16060": 130,
        "16061": 213,
        "16062": 57,
        "16063": 245,
        "16064": 161,
        "16065": 16,
        "16066": 79,
        "16067": 220,
        "16068": 16,
        "16069": 227,
        "16070": 195,
        "16071": 143,
        "16072": 126,
        "16073": 143,
        "16074": 211,
        "16075": 165,
        "16076": 136,
        "16077": 73,
        "16078": 221,
        "16079": 210,
        "16080": 192,
        "16081": 228,
        "16082": 153,
        "16083": 224,
        "16084": 98,
        "16085": 43,
        "16086": 59,
        "16087": 204,
        "16088": 105,
        "16089": 248,
        "16090": 149,
        "16091": 251,
        "16092": 94,
        "16093": 228,
        "16094": 74,
        "16095": 118,
        "16096": 164,
        "16097": 182,
        "16098": 218,
        "16099": 85,
        "16100": 73,
        "16101": 71,
        "16102": 25,
        "16103": 219,
        "16104": 163,
        "16105": 151,
        "16106": 250,
        "16107": 207,
        "16108": 5,
        "16109": 55,
        "16110": 146,
        "16111": 88,
        "16112": 17,
        "16113": 199,
        "16114": 173,
        "16115": 64,
        "16116": 214,
        "16117": 174,
        "16118": 142,
        "16119": 26,
        "16120": 242,
        "16121": 21,
        "16122": 197,
        "16123": 56,
        "16124": 53,
        "16125": 227,
        "16126": 106,
        "16127": 127,
        "16128": 145,
        "16129": 9,
        "16130": 98,
        "16131": 249,
        "16132": 151,
        "16133": 37,
        "16134": 147,
        "16135": 215,
        "16136": 234,
        "16137": 153,
        "16138": 240,
        "16139": 6,
        "16140": 32,
        "16141": 116,
        "16142": 169,
        "16143": 143,
        "16144": 190,
        "16145": 219,
        "16146": 164,
        "16147": 31,
        "16148": 174,
        "16149": 193,
        "16150": 206,
        "16151": 98,
        "16152": 32,
        "16153": 119,
        "16154": 144,
        "16155": 54,
        "16156": 250,
        "16157": 17,
        "16158": 2,
        "16159": 124,
        "16160": 142,
        "16161": 160,
        "16162": 154,
        "16163": 142,
        "16164": 110,
        "16165": 160,
        "16166": 107,
        "16167": 241,
        "16168": 62,
        "16169": 173,
        "16170": 140,
        "16171": 105,
        "16172": 183,
        "16173": 67,
        "16174": 28,
        "16175": 63,
        "16176": 23,
        "16177": 220,
        "16178": 183,
        "16179": 204,
        "16180": 53,
        "16181": 119,
        "16182": 202,
        "16183": 27,
        "16184": 137,
        "16185": 229,
        "16186": 170,
        "16187": 162,
        "16188": 196,
        "16189": 173,
        "16190": 12,
        "16191": 242,
        "16192": 213,
        "16193": 187,
        "16194": 37,
        "16195": 90,
        "16196": 136,
        "16197": 74,
        "16198": 197,
        "16199": 86,
        "16200": 127,
        "16201": 5,
        "16202": 14,
        "16203": 112,
        "16204": 34,
        "16205": 56,
        "16206": 111,
        "16207": 214,
        "16208": 28,
        "16209": 120,
        "16210": 250,
        "16211": 101,
        "16212": 236,
        "16213": 223,
        "16214": 144,
        "16215": 32,
        "16216": 114,
        "16217": 195,
        "16218": 215,
        "16219": 10,
        "16220": 13,
        "16221": 185,
        "16222": 161,
        "16223": 59,
        "16224": 235,
        "16225": 193,
        "16226": 140,
        "16227": 129,
        "16228": 236,
        "16229": 184,
        "16230": 103,
        "16231": 127,
        "16232": 171,
        "16233": 3,
        "16234": 236,
        "16235": 92,
        "16236": 242,
        "16237": 43,
        "16238": 203,
        "16239": 47,
        "16240": 193,
        "16241": 221,
        "16242": 57,
        "16243": 8,
        "16244": 184,
        "16245": 71,
        "16246": 94,
        "16247": 101,
        "16248": 112,
        "16249": 203,
        "16250": 82,
        "16251": 214,
        "16252": 113,
        "16253": 231,
        "16254": 15,
        "16255": 171,
        "16256": 203,
        "16257": 94,
        "16258": 131,
        "16259": 103,
        "16260": 47,
        "16261": 149,
        "16262": 150,
        "16263": 185,
        "16264": 38,
        "16265": 219,
        "16266": 134,
        "16267": 101,
        "16268": 182,
        "16269": 21,
        "16270": 169,
        "16271": 228,
        "16272": 30,
        "16273": 75,
        "16274": 32,
        "16275": 247,
        "16276": 75,
        "16277": 121,
        "16278": 174,
        "16279": 146,
        "16280": 228,
        "16281": 37,
        "16282": 33,
        "16283": 219,
        "16284": 24,
        "16285": 72,
        "16286": 221,
        "16287": 6,
        "16288": 247,
        "16289": 181,
        "16290": 210,
        "16291": 100,
        "16292": 45,
        "16293": 15,
        "16294": 199,
        "16295": 21,
        "16296": 170,
        "16297": 222,
        "16298": 23,
        "16299": 44,
        "16300": 185,
        "16301": 96,
        "16302": 67,
        "16303": 15,
        "16304": 132,
        "16305": 40,
        "16306": 37,
        "16307": 251,
        "16308": 210,
        "16309": 61,
        "16310": 56,
        "16311": 15,
        "16312": 222,
        "16313": 41,
        "16314": 203,
        "16315": 150,
        "16316": 228,
        "16317": 101,
        "16318": 173,
        "16319": 127,
        "16320": 120,
        "16321": 10,
        "16322": 198,
        "16323": 44,
        "16324": 112,
        "16325": 149,
        "16326": 97,
        "16327": 104,
        "16328": 159,
        "16329": 211,
        "16330": 240,
        "16331": 108,
        "16332": 124,
        "16333": 225,
        "16334": 37,
        "16335": 247,
        "16336": 24,
        "16337": 184,
        "16338": 145,
        "16339": 142,
        "16340": 77,
        "16341": 213,
        "16342": 185,
        "16343": 25,
        "16344": 44,
        "16345": 248,
        "16346": 235,
        "16347": 90,
        "16348": 90,
        "16349": 159,
        "16350": 169,
        "16351": 160,
        "16352": 195,
        "16353": 167,
        "16354": 185,
        "16355": 178,
        "16356": 81,
        "16357": 192,
        "16358": 195,
        "16359": 156,
        "16360": 113,
        "16361": 251,
        "16362": 201,
        "16363": 38,
        "16364": 113,
        "16365": 238,
        "16366": 97,
        "16367": 234,
        "16368": 157,
        "16369": 176,
        "16370": 74,
        "16371": 161,
        "16372": 102,
        "16373": 221,
        "16374": 169,
        "16375": 10,
        "16376": 192,
        "16377": 36,
        "16378": 175,
        "16379": 230,
        "16380": 185,
        "16381": 216,
        "16382": 91,
        "16383": 69,
        "16384": 129,
        "16385": 70,
        "16386": 122,
        "16387": 40,
        "16388": 251,
        "16389": 155,
        "16390": 126,
        "16391": 107,
        "16392": 244,
        "16393": 36,
        "16394": 7,
        "16395": 116,
        "16396": 123,
        "16397": 146,
        "16398": 211,
        "16399": 23,
        "16400": 147,
        "16401": 236,
        "16402": 215,
        "16403": 146,
        "16404": 244,
        "16405": 192,
        "16406": 155,
        "16407": 33,
        "16408": 160,
        "16409": 133,
        "16410": 240,
        "16411": 190,
        "16412": 245,
        "16413": 216,
        "16414": 155,
        "16415": 26,
        "16416": 5,
        "16417": 194,
        "16418": 85,
        "16419": 182,
        "16420": 228,
        "16421": 200,
        "16422": 115,
        "16423": 140,
        "16424": 221,
        "16425": 25,
        "16426": 127,
        "16427": 149,
        "16428": 200,
        "16429": 104,
        "16430": 125,
        "16431": 218,
        "16432": 153,
        "16433": 63,
        "16434": 23,
        "16435": 152,
        "16436": 88,
        "16437": 105,
        "16438": 63,
        "16439": 59,
        "16440": 204,
        "16441": 19,
        "16442": 181,
        "16443": 184,
        "16444": 115,
        "16445": 169,
        "16446": 169,
        "16447": 142,
        "16448": 204,
        "16449": 126,
        "16450": 26,
        "16451": 134,
        "16452": 153,
        "16453": 146,
        "16454": 9,
        "16455": 192,
        "16456": 132,
        "16457": 88,
        "16458": 68,
        "16459": 190,
        "16460": 8,
        "16461": 160,
        "16462": 234,
        "16463": 38,
        "16464": 214,
        "16465": 230,
        "16466": 83,
        "16467": 89,
        "16468": 32,
        "16469": 61,
        "16470": 54,
        "16471": 41,
        "16472": 153,
        "16473": 177,
        "16474": 168,
        "16475": 18,
        "16476": 87,
        "16477": 28,
        "16478": 216,
        "16479": 128,
        "16480": 44,
        "16481": 103,
        "16482": 36,
        "16483": 20,
        "16484": 35,
        "16485": 246,
        "16486": 129,
        "16487": 31,
        "16488": 68,
        "16489": 100,
        "16490": 50,
        "16491": 150,
        "16492": 217,
        "16493": 221,
        "16494": 166,
        "16495": 101,
        "16496": 228,
        "16497": 41,
        "16498": 31,
        "16499": 121,
        "16500": 28,
        "16501": 104,
        "16502": 213,
        "16503": 158,
        "16504": 111,
        "16505": 23,
        "16506": 126,
        "16507": 188,
        "16508": 62,
        "16509": 206,
        "16510": 114,
        "16511": 114,
        "16512": 192,
        "16513": 172,
        "16514": 64,
        "16515": 101,
        "16516": 217,
        "16517": 232,
        "16518": 173,
        "16519": 15,
        "16520": 1,
        "16521": 8,
        "16522": 0,
        "16523": 0,
        "16524": 0,
        "16525": 0,
        "16526": 0,
        "16527": 0,
        "16528": 16,
        "16529": 0,
        "16530": 0,
        "16531": 0,
        "16532": 0,
        "16533": 0,
        "16534": 0,
        "16535": 0,
        "16536": 0,
        "16537": 0,
        "16538": 0,
        "16539": 0,
        "16540": 0,
        "16541": 0,
        "16542": 0,
        "16543": 0,
        "16544": 0,
        "16545": 0,
        "16546": 0,
        "16547": 0,
        "16548": 0,
        "16549": 0,
        "16550": 0,
        "16551": 0,
        "16552": 64,
        "16553": 0,
        "16554": 0,
        "16555": 0,
        "16556": 0,
        "16557": 0,
        "16558": 0,
        "16559": 0,
        "16560": 3,
        "16561": 0,
        "16562": 0,
        "16563": 0,
        "16564": 0,
        "16565": 0,
        "16566": 0,
        "16567": 0,
        "16568": 4,
        "16569": 0,
        "16570": 0,
        "16571": 0,
        "16572": 0,
        "16573": 0,
        "16574": 0,
        "16575": 0,
        "16576": 4,
        "16577": 0,
        "16578": 0,
        "16579": 0,
        "16580": 0,
        "16581": 0,
        "16582": 0,
        "16583": 0,
        "16584": 0,
        "16585": 0,
        "16586": 0,
        "16587": 0,
        "16588": 1,
        "16589": 0,
        "16590": 0,
        "16591": 0,
        "16592": 0,
        "16593": 0,
        "16594": 0,
        "16595": 0,
        "16596": 16,
        "16597": 0,
        "16598": 0,
        "16599": 0,
        "16600": 0,
        "16601": 0,
        "16602": 0,
        "16603": 0
      }
    }
  ],
  "numDeployments": 1,
  "solcInputHash": "c0e889dcb69b76266f445d0fe3402b92",
  "bytecode": "0x6101606040526200001760006200026660201b60201c565b6002553480156200002757600080fd5b50604051620046173803806200461783398181016040528101906200004d919062000b83565b6040518060400160405280600881526020017f46616b65204555520000000000000000000000000000000000000000000000008152506040518060400160405280600481526020017f6645555200000000000000000000000000000000000000000000000000000000815250338383836040518060400160405280601181526020017f4668656e6978205065726d697373696f6e0000000000000000000000000000008152506040518060400160405280600381526020017f312e3000000000000000000000000000000000000000000000000000000000008152506200013f6000836200028260201b90919060201c565b61012081815250506200015d6001826200028260201b90919060201c565b6101408181525050818051906020012060e08181525050808051906020012061010081815250504660a081815250506200019c620002da60201b60201c565b608081815250503073ffffffffffffffffffffffffffffffffffffffff1660c08173ffffffffffffffffffffffffffffffffffffffff168152505050508160059081620001ea919062000e1f565b508060069081620001fc919062000e1f565b505050600062000212826200033760201b60201c565b9050620002486200023c8262000230617fff6200026660201b60201c565b6200035560201b60201c565b620003f860201b60201c565b6200025a8382620004cb60201b60201c565b50505050505062001260565b60006200027b8260026200057160201b60201c565b9050919050565b6000602083511015620002a857620002a0836200062860201b60201c565b9050620002d4565b82620002ba836200069560201b60201c565b6000019081620002cb919062000e1f565b5060ff60001b90505b92915050565b60007f8b73c3c69bb8fe3d512ecc4cf759cc79239f7b179b0ffacaa9a75d522b39400f60e0516101005146306040516020016200031c95949392919062000f77565b60405160208183030381529060405280519060200120905090565b60006200034e82600001516200069f60201b60201c565b9050919050565b60006200036883620006bb60201b60201c565b62000382576200037f60006200026660201b60201c565b92505b6200039382620006bb60201b60201c565b620003ad57620003aa60006200026660201b60201c565b91505b600083905060008390506000620003ea60028484608073ffffffffffffffffffffffffffffffffffffffff1663eb274b77620006c860201b60201c565b905080935050505092915050565b62000409816200077960201b60201c565b62000423576200042060006200078660201b60201c565b90505b600081905060006200043b82620007a260201b60201c565b9050608073ffffffffffffffffffffffffffffffffffffffff16637d23f1db600d836040518363ffffffff1660e01b81526004016200047c9291906200104f565b600060405180830381865afa1580156200049a573d6000803e3d6000fd5b505050506040513d6000823e3d601f19601f82011682018060405250810190620004c5919062001083565b50505050565b62000516600360008473ffffffffffffffffffffffffffffffffffffffff1673ffffffffffffffffffffffffffffffffffffffff168152602001908152602001600020548262000803565b600360008473ffffffffffffffffffffffffffffffffffffffff1673ffffffffffffffffffffffffffffffffffffffff16815260200190815260200160002081905550620005676002548262000803565b6002819055505050565b60006060608073ffffffffffffffffffffffffffffffffffffffff166319e1c5c4620005a386620007a260201b60201c565b856040518363ffffffff1660e01b8152600401620005c3929190620010d4565b600060405180830381865afa158015620005e1573d6000803e3d6000fd5b505050506040513d6000823e3d601f19601f820116820180604052508101906200060c919062001083565b90506200061f816200081f60201b60201c565b91505092915050565b600080829050601f815111156200067857826040517f305a27a90000000000000000000000000000000000000000000000000000000081526004016200066f91906200115a565b60405180910390fd5b8051816200068690620011a5565b60001c1760001b915050919050565b6000819050919050565b6000620006b48260026200082d60201b60201c565b9050919050565b6000808214159050919050565b60006060838388620006e089620007a260201b60201c565b620006f189620007a260201b60201c565b6040518463ffffffff1660e01b8152600401620007119392919062001215565b600060405180830381865afa1580156200072f573d6000803e3d6000fd5b505050506040513d6000823e3d601f19601f820116820180604052508101906200075a919062001083565b90506200076d81620008d460201b60201c565b91505095945050505050565b6000808214159050919050565b60006200079b82600d6200057160201b60201c565b9050919050565b6060602067ffffffffffffffff811115620007c257620007c1620009ae565b5b6040519080825280601f01601f191660200182016040528015620007f55781602001600182028036833780820191505090505b509050816020820152919050565b6000620008178383620008e260201b60201c565b905092915050565b600060208201519050919050565b60006060608073ffffffffffffffffffffffffffffffffffffffff16635fa55ca784866040518363ffffffff1660e01b81526004016200086f9291906200104f565b600060405180830381865afa1580156200088d573d6000803e3d6000fd5b505050506040513d6000823e3d601f19601f82011682018060405250810190620008b8919062001083565b9050620008cb816200081f60201b60201c565b91505092915050565b600060208201519050919050565b6000620008f583620006bb60201b60201c565b6200090f576200090c60006200026660201b60201c565b92505b6200092082620006bb60201b60201c565b6200093a576200093760006200026660201b60201c565b91505b6000839050600083905060006200097660028484608073ffffffffffffffffffffffffffffffffffffffff16622df619620006c860201b60201c565b905080935050505092915050565b6000604051905090565b600080fd5b600080fd5b600080fd5b6000601f19601f8301169050919050565b7f4e487b7100000000000000000000000000000000000000000000000000000000600052604160045260246000fd5b620009e8826200099d565b810181811067ffffffffffffffff8211171562000a0a5762000a09620009ae565b5b80604052505050565b600062000a1f62000984565b905062000a2d8282620009dd565b919050565b600080fd5b600080fd5b600080fd5b600067ffffffffffffffff82111562000a5f5762000a5e620009ae565b5b62000a6a826200099d565b9050602081019050919050565b60005b8381101562000a9757808201518184015260208101905062000a7a565b60008484015250505050565b600062000aba62000ab48462000a41565b62000a13565b90508281526020810184848401111562000ad95762000ad862000a3c565b5b62000ae684828562000a77565b509392505050565b600082601f83011262000b065762000b0562000a37565b5b815162000b1884826020860162000aa3565b91505092915050565b60006020828403121562000b3a5762000b3962000998565b5b62000b46602062000a13565b9050600082015167ffffffffffffffff81111562000b695762000b6862000a32565b5b62000b778482850162000aee565b60008301525092915050565b60006020828403121562000b9c5762000b9b6200098e565b5b600082015167ffffffffffffffff81111562000bbd5762000bbc62000993565b5b62000bcb8482850162000b21565b91505092915050565b600081519050919050565b7f4e487b7100000000000000000000000000000000000000000000000000000000600052602260045260246000fd5b6000600282049050600182168062000c2757607f821691505b60208210810362000c3d5762000c3c62000bdf565b5b50919050565b60008190508160005260206000209050919050565b60006020601f8301049050919050565b600082821b905092915050565b60006008830262000ca77fffffffffffffffffffffffffffffffffffffffffffffffffffffffffffffffff8262000c68565b62000cb3868362000c68565b95508019841693508086168417925050509392505050565b6000819050919050565b6000819050919050565b600062000d0062000cfa62000cf48462000ccb565b62000cd5565b62000ccb565b9050919050565b6000819050919050565b62000d1c8362000cdf565b62000d3462000d2b8262000d07565b84845462000c75565b825550505050565b600090565b62000d4b62000d3c565b62000d5881848462000d11565b505050565b5b8181101562000d805762000d7460008262000d41565b60018101905062000d5e565b5050565b601f82111562000dcf5762000d998162000c43565b62000da48462000c58565b8101602085101562000db4578190505b62000dcc62000dc38562000c58565b83018262000d5d565b50505b505050565b600082821c905092915050565b600062000df46000198460080262000dd4565b1980831691505092915050565b600062000e0f838362000de1565b9150826002028217905092915050565b62000e2a8262000bd4565b67ffffffffffffffff81111562000e465762000e45620009ae565b5b62000e52825462000c0e565b62000e5f82828562000d84565b600060209050601f83116001811462000e97576000841562000e82578287015190505b62000e8e858262000e01565b86555062000efe565b601f19841662000ea78662000c43565b60005b8281101562000ed15784890151825560018201915060208501945060208101905062000eaa565b8683101562000ef1578489015162000eed601f89168262000de1565b8355505b6001600288020188555050505b505050505050565b6000819050919050565b62000f1b8162000f06565b82525050565b62000f2c8162000ccb565b82525050565b600073ffffffffffffffffffffffffffffffffffffffff82169050919050565b600062000f5f8262000f32565b9050919050565b62000f718162000f52565b82525050565b600060a08201905062000f8e600083018862000f10565b62000f9d602083018762000f10565b62000fac604083018662000f10565b62000fbb606083018562000f21565b62000fca608083018462000f66565b9695505050505050565b600060ff82169050919050565b62000fec8162000fd4565b82525050565b600081519050919050565b600082825260208201905092915050565b60006200101b8262000ff2565b62001027818562000ffd565b93506200103981856020860162000a77565b62001044816200099d565b840191505092915050565b600060408201905062001066600083018562000fe1565b81810360208301526200107a81846200100e565b90509392505050565b6000602082840312156200109c576200109b6200098e565b5b600082015167ffffffffffffffff811115620010bd57620010bc62000993565b5b620010cb8482850162000aee565b91505092915050565b60006040820190508181036000830152620010f081856200100e565b905062001101602083018462000fe1565b9392505050565b600082825260208201905092915050565b6000620011268262000bd4565b62001132818562001108565b93506200114481856020860162000a77565b6200114f816200099d565b840191505092915050565b6000602082019050818103600083015262001176818462001119565b905092915050565b6000819050602082019050919050565b60006200119c825162000f06565b80915050919050565b6000620011b28262000ff2565b82620011be846200117e565b9050620011cb816200118e565b925060208210156200120e57620012097fffffffffffffffffffffffffffffffffffffffffffffffffffffffffffffffff8360200360080262000c68565b831692505b5050919050565b60006060820190506200122c600083018662000fe1565b81810360208301526200124081856200100e565b905081810360408301526200125681846200100e565b9050949350505050565b60805160a05160c05160e05161010051610120516101405161335c620012bb60003960006118f5015260006118ba0152600061217f0152600061215e015260006119ea01526000611a4001526000611a69015261335c6000f3fe608060405234801561001057600080fd5b50600436106101425760003560e01c80637ecebe00116100b8578063a9059cbb1161007c578063a9059cbb146103b9578063af575a00146103e9578063c4224c1914610419578063d505accf14610449578063d918156e14610465578063dd62ed3e1461049557610142565b80637ecebe00146102fb57806384b0196e1461032b5780638624a3491461034f57806395d89b411461037f5780639f284be71461039d57610142565b80633644e5151161010a5780633644e5151461020157806339c217f71461021f5780635356c4291461024f578063602772041461027f5780636e0505e1146102af57806370a08231146102cb57610142565b806306fdde0314610147578063095ea7b31461016557806318160ddd1461019557806323b872dd146101b3578063313ce567146101e3575b600080fd5b61014f6104c5565b60405161015c9190612433565b60405180910390f35b61017f600480360381019061017a91906124fd565b610557565b60405161018c9190612558565b60405180910390f35b61019d6105ab565b6040516101aa9190612582565b60405180910390f35b6101cd60048036038101906101c8919061259d565b6105bd565b6040516101da9190612558565b60405180910390f35b6101eb610692565b6040516101f8919061260c565b60405180910390f35b610209610697565b6040516102169190612640565b60405180910390f35b6102396004803603810190610234919061267f565b610729565b6040516102469190612716565b60405180910390f35b61026960048036038101906102649190612750565b61074e565b6040516102769190612433565b60405180910390f35b61029960048036038101906102949190612983565b6108bf565b6040516102a69190612433565b60405180910390f35b6102c960048036038101906102c49190612a1b565b6109ec565b005b6102e560048036038101906102e09190612a48565b610b01565b6040516102f29190612582565b60405180910390f35b61031560048036038101906103109190612a48565b610b1c565b6040516103229190612582565b60405180910390f35b610333610b37565b6040516103469796959493929190612b7d565b60405180910390f35b61036960048036038101906103649190612c01565b610be1565b6040516103769190612716565b60405180910390f35b610387610c08565b6040516103949190612433565b60405180910390f35b6103b760048036038101906103b29190612a1b565b610c9a565b005b6103d360048036038101906103ce91906124fd565b610da7565b6040516103e09190612558565b60405180910390f35b61040360048036038101906103fe9190612c9c565b610e39565b6040516104109190612716565b60405180910390f35b610433600480360381019061042e9190612cef565b61118f565b6040516104409190612716565b60405180910390f35b610463600480360381019061045e9190612d5b565b611359565b005b61047f600480360381019061047a919061267f565b6114fd565b60405161048c9190612558565b60405180910390f35b6104af60048036038101906104aa9190612dfd565b6115f5565b6040516104bc9190612582565b60405180910390f35b6060600580546104d490612e6c565b80601f016020809104026020016040519081016040528092919081815260200182805461050090612e6c565b801561054d5780601f106105225761010080835404028352916020019161054d565b820191906000526020600020905b81548152906001019060200180831161053057829003601f168201915b5050505050905090565b600082602052637f5e9f20600c5233600052816034600c205581600052602c5160601c337f8c5be1e5ebec7d5bd14f71427d1e84f3dd0314c0f7b2291e5b200ac8c7c3b92560206000a36001905092915050565b60006805345cdf77eb68f44c54905090565b60006105ca848484611615565b8360601b33602052637f5e9f208117600c526034600c20805460018101156106085780851115610602576313be252b6000526004601cfd5b84810382555b6387a211a28317600c526020600c2080548087111561062f5763f4d678b86000526004601cfd5b8681038255876000526020600c2087815401815587602052600c5160601c8660601c7fddf252ad1be2c89b69c2b068fc378daa952ba7f163c4a11628f55a4df523b3ef602080a350505050505061068784848461161a565b600190509392505050565b600090565b6000806106a261161f565b90506000801b81036106c0576106b66104c5565b8051906020012090505b6040517f8b73c3c69bb8fe3d512ecc4cf759cc79239f7b179b0ffacaa9a75d522b39400f81528160208201527fc89efdaa54c0f20c7adf612882df0950f5a951637e0307cdcb4c672f298b8bc6604082015246606082015230608082015260a081209250505090565b6000610746836107418461073c90612ef5565b611624565b61118f565b905092915050565b60608161075a90612f08565b60006107b17f6bdaeb2d29561f159c7ef98b16b27015fb2aeb87209c7ee656226d912f59927d8360000151604051602001610796929190612f1b565b6040516020818303038152906040528051906020012061163a565b905060006107c3828460200151611654565b90503373ffffffffffffffffffffffffffffffffffffffff168173ffffffffffffffffffffffffffffffffffffffff161461082a576040517f3093a27700000000000000000000000000000000000000000000000000000000815260040160405180910390fd5b6108b4600460003373ffffffffffffffffffffffffffffffffffffffff1673ffffffffffffffffffffffffffffffffffffffff16815260200190815260200160002060008873ffffffffffffffffffffffffffffffffffffffff1673ffffffffffffffffffffffffffffffffffffffff168152602001908152602001600020548660000135611680565b935050505092915050565b60608183600061091a7f6bdaeb2d29561f159c7ef98b16b27015fb2aeb87209c7ee656226d912f59927d84600001516040516020016108ff929190612f1b565b6040516020818303038152906040528051906020012061163a565b9050600061092c828560200151611654565b90508273ffffffffffffffffffffffffffffffffffffffff168173ffffffffffffffffffffffffffffffffffffffff1614610993576040517f51c65eae00000000000000000000000000000000000000000000000000000000815260040160405180910390fd5b6109e0600360008973ffffffffffffffffffffffffffffffffffffffff1673ffffffffffffffffffffffffffffffffffffffff168152602001908152602001600020548760000151611680565b94505050505092915050565b6000610a45610a008363ffffffff166116b6565b600360003373ffffffffffffffffffffffffffffffffffffffff1673ffffffffffffffffffffffffffffffffffffffff168152602001908152602001600020546116ca565b9050610a90600360003373ffffffffffffffffffffffffffffffffffffffff1673ffffffffffffffffffffffffffffffffffffffff1681526020019081526020016000205482611743565b600360003373ffffffffffffffffffffffffffffffffffffffff1673ffffffffffffffffffffffffffffffffffffffff16815260200190815260200160002081905550610adf60025482611743565b600281905550610afd33610af283611757565b63ffffffff1661181a565b5050565b60006387a211a2600c52816000526020600c20549050919050565b60006338377508600c52816000526020600c20549050919050565b600060608060008060006060610b4b6118b1565b610b536118ec565b46306000801b600067ffffffffffffffff811115610b7457610b736127b1565b5b604051908082528060200260200182016040528015610ba25781602001602082028036833780820191505090505b507f0f00000000000000000000000000000000000000000000000000000000000000959493929190965096509650965096509650965090919293949596565b6000610bff8484610bfa85610bf590612ef5565b611624565b610e39565b90509392505050565b606060068054610c1790612e6c565b80601f0160208091040260200160405190810160405280929190818152602001828054610c4390612e6c565b8015610c905780601f10610c6557610100808354040283529160200191610c90565b820191906000526020600020905b815481529060010190602001808311610c7357829003601f168201915b5050505050905090565b8063ffffffff16610caa33610b01565b1015610ce2576040517ffda7bbda00000000000000000000000000000000000000000000000000000000815260040160405180910390fd5b610cf2338263ffffffff16611927565b6000610d038263ffffffff166116b6565b9050610d4e600360003373ffffffffffffffffffffffffffffffffffffffff1673ffffffffffffffffffffffffffffffffffffffff16815260200190815260200160002054826119be565b600360003373ffffffffffffffffffffffffffffffffffffffff1673ffffffffffffffffffffffffffffffffffffffff16815260200190815260200160002081905550610d9d600254826119be565b6002819055505050565b6000610db4338484611615565b6387a211a2600c52336000526020600c20805480841115610ddd5763f4d678b86000526004601cfd5b8381038255846000526020600c2084815401815584602052600c5160601c337fddf252ad1be2c89b69c2b068fc378daa952ba7f163c4a11628f55a4df523b3ef602080a3505050610e2f33848461161a565b6001905092915050565b600080610f0a83610f05600360008973ffffffffffffffffffffffffffffffffffffffff1673ffffffffffffffffffffffffffffffffffffffff16815260200190815260200160002054600460008a73ffffffffffffffffffffffffffffffffffffffff1673ffffffffffffffffffffffffffffffffffffffff16815260200190815260200160002060003373ffffffffffffffffffffffffffffffffffffffff1673ffffffffffffffffffffffffffffffffffffffff168152602001908152602001600020546116ca565b6116ca565b9050610f92600460008773ffffffffffffffffffffffffffffffffffffffff1673ffffffffffffffffffffffffffffffffffffffff16815260200190815260200160002060003373ffffffffffffffffffffffffffffffffffffffff1673ffffffffffffffffffffffffffffffffffffffff1681526020019081526020016000205482611743565b600460008773ffffffffffffffffffffffffffffffffffffffff1673ffffffffffffffffffffffffffffffffffffffff16815260200190815260200160002060003373ffffffffffffffffffffffffffffffffffffffff1673ffffffffffffffffffffffffffffffffffffffff1681526020019081526020016000208190555061105b600360008773ffffffffffffffffffffffffffffffffffffffff1673ffffffffffffffffffffffffffffffffffffffff1681526020019081526020016000205482611743565b600360008773ffffffffffffffffffffffffffffffffffffffff1673ffffffffffffffffffffffffffffffffffffffff168152602001908152602001600020819055506110e7600360008673ffffffffffffffffffffffffffffffffffffffff1673ffffffffffffffffffffffffffffffffffffffff16815260200190815260200160002054826119be565b600360008673ffffffffffffffffffffffffffffffffffffffff1673ffffffffffffffffffffffffffffffffffffffff168152602001908152602001600020819055508373ffffffffffffffffffffffffffffffffffffffff168573ffffffffffffffffffffffffffffffffffffffff167f7612539b010127d1a2f810eeff1131de23a28ecfa8228f92a9606a879300fbb560405160405180910390a3809150509392505050565b6000806111db83600360003373ffffffffffffffffffffffffffffffffffffffff1673ffffffffffffffffffffffffffffffffffffffff168152602001908152602001600020546116ca565b9050611226600360003373ffffffffffffffffffffffffffffffffffffffff1673ffffffffffffffffffffffffffffffffffffffff1681526020019081526020016000205482611743565b600360003373ffffffffffffffffffffffffffffffffffffffff1673ffffffffffffffffffffffffffffffffffffffff168152602001908152602001600020819055506112b2600360008673ffffffffffffffffffffffffffffffffffffffff1673ffffffffffffffffffffffffffffffffffffffff16815260200190815260200160002054826119be565b600360008673ffffffffffffffffffffffffffffffffffffffff1673ffffffffffffffffffffffffffffffffffffffff168152602001908152602001600020819055508373ffffffffffffffffffffffffffffffffffffffff163373ffffffffffffffffffffffffffffffffffffffff167f7612539b010127d1a2f810eeff1131de23a28ecfa8228f92a9606a879300fbb560405160405180910390a38091505092915050565b600061136361161f565b90506000801b8103611381576113776104c5565b8051906020012090505b8442111561139757631a15a3cc6000526004601cfd5b6040518860601b60601c98508760601b60601c975065383775081901600e52886000526020600c2080547f8b73c3c69bb8fe3d512ecc4cf759cc79239f7b179b0ffacaa9a75d522b39400f83528360208401527fc89efdaa54c0f20c7adf612882df0950f5a951637e0307cdcb4c672f298b8bc6604084015246606084015230608084015260a08320602e527f6e71edae12b1b97f4d1f60370fef10105fa2faae0126114a169c64845d6126c983528a60208401528960408401528860608401528060808401528760a084015260c08320604e526042602c206000528660ff1660205285604052846060526020806080600060015afa8b3d51146114a35763ddafbaef6000526004601cfd5b80820183558a637f5e9f2060a01b17604052896034602c20558a8c7f8c5be1e5ebec7d5bd14f71427d1e84f3dd0314c0f7b2291e5b200ac8c7c3b925602060608801a3836040526000606052505050505050505050505050565b60006115118261150c90612ef5565b611624565b600460003373ffffffffffffffffffffffffffffffffffffffff1673ffffffffffffffffffffffffffffffffffffffff16815260200190815260200160002060008573ffffffffffffffffffffffffffffffffffffffff1673ffffffffffffffffffffffffffffffffffffffff168152602001908152602001600020819055508273ffffffffffffffffffffffffffffffffffffffff163373ffffffffffffffffffffffffffffffffffffffff167f46f92913a39019d68e630493d23e0cf39761bf253f7b3f8eae384b33e393ed4e60405160405180910390a36001905092915050565b600081602052637f5e9f20600c52826000526034600c2054905092915050565b505050565b505050565b600090565b600061163382600001516119d2565b9050919050565b600061164d6116476119e6565b83611a9d565b9050919050565b6000806000806116648686611ade565b9250925092506116748282611b3a565b82935050505092915050565b606061168b83611c9e565b61169c5761169960006116b6565b92505b60008390506116ad60028285611cab565b91505092915050565b60006116c3826002611d61565b9050919050565b60006116d583611c9e565b6116e6576116e360006116b6565b92505b6116ef82611c9e565b611700576116fd60006116b6565b91505b60008390506000839050600061173560028484608073ffffffffffffffffffffffffffffffffffffffff16635211c679611e03565b905080935050505092915050565b600061174f8383611e97565b905092915050565b600061176282611c9e565b6117735761177060006116b6565b91505b6000829050600061178382611f10565b90506000608073ffffffffffffffffffffffffffffffffffffffff166373cc01546002846040518363ffffffff1660e01b81526004016117c4929190612f99565b602060405180830381865afa1580156117e1573d6000803e3d6000fd5b505050506040513d601f19601f820116820180604052508101906118059190612fde565b905061181081611f6d565b9350505050919050565b61182660008383611615565b6805345cdf77eb68f44c548181018181101561184a5763e5cfe9576000526004601cfd5b806805345cdf77eb68f44c556387a211a2600c52836000526020600c2083815401815583602052600c5160601c60007fddf252ad1be2c89b69c2b068fc378daa952ba7f163c4a11628f55a4df523b3ef602080a35050506118ad6000838361161a565b5050565b60606118e760007f0000000000000000000000000000000000000000000000000000000000000000611f7790919063ffffffff16565b905090565b606061192260017f0000000000000000000000000000000000000000000000000000000000000000611f7790919063ffffffff16565b905090565b61193382600083611615565b6387a211a2600c52816000526020600c2080548083111561195c5763f4d678b86000526004601cfd5b8281038255826805345cdf77eb68f44c54036805345cdf77eb68f44c558260005260008460601b60601c7fddf252ad1be2c89b69c2b068fc378daa952ba7f163c4a11628f55a4df523b3ef60206000a350506119ba8260008361161a565b5050565b60006119ca8383612027565b905092915050565b60006119df82600261209f565b9050919050565b60007f000000000000000000000000000000000000000000000000000000000000000073ffffffffffffffffffffffffffffffffffffffff163073ffffffffffffffffffffffffffffffffffffffff16148015611a6257507f000000000000000000000000000000000000000000000000000000000000000046145b15611a8f577f00000000000000000000000000000000000000000000000000000000000000009050611a9a565b611a97612139565b90505b90565b60006040517f190100000000000000000000000000000000000000000000000000000000000081528360028201528260228201526042812091505092915050565b60008060006041845103611b235760008060006020870151925060408701519150606087015160001a9050611b15888285856121cf565b955095509550505050611b33565b60006002855160001b9250925092505b9250925092565b60006003811115611b4e57611b4d61300b565b5b826003811115611b6157611b6061300b565b5b0315611c9a5760016003811115611b7b57611b7a61300b565b5b826003811115611b8e57611b8d61300b565b5b03611bc5576040517ff645eedf00000000000000000000000000000000000000000000000000000000815260040160405180910390fd5b60026003811115611bd957611bd861300b565b5b826003811115611bec57611beb61300b565b5b03611c31578060001c6040517ffce698f7000000000000000000000000000000000000000000000000000000008152600401611c289190612582565b60405180910390fd5b600380811115611c4457611c4361300b565b5b826003811115611c5757611c5661300b565b5b03611c9957806040517fd78bce0c000000000000000000000000000000000000000000000000000000008152600401611c909190612640565b60405180910390fd5b5b5050565b6000808214159050919050565b6060608073ffffffffffffffffffffffffffffffffffffffff1663a1848ff385611cd486611f10565b85604051602001611ce5919061305b565b6040516020818303038152906040526040518463ffffffff1660e01b8152600401611d1293929190613076565b600060405180830381865afa158015611d2f573d6000803e3d6000fd5b505050506040513d6000823e3d601f19601f82011682018060405250810190611d58919061315c565b90509392505050565b60006060608073ffffffffffffffffffffffffffffffffffffffff166319e1c5c4611d8b86611f10565b856040518363ffffffff1660e01b8152600401611da99291906131a5565b600060405180830381865afa158015611dc6573d6000803e3d6000fd5b505050506040513d6000823e3d601f19601f82011682018060405250810190611def9190613245565b9050611dfa816122c3565b91505092915050565b60006060838388611e1389611f10565b611e1c89611f10565b6040518463ffffffff1660e01b8152600401611e3a93929190613076565b600060405180830381865afa158015611e57573d6000803e3d6000fd5b505050506040513d6000823e3d601f19601f82011682018060405250810190611e809190613245565b9050611e8b816122d1565b91505095945050505050565b6000611ea283611c9e565b611eb357611eb060006116b6565b92505b611ebc82611c9e565b611ecd57611eca60006116b6565b91505b600083905060008390506000611f0260028484608073ffffffffffffffffffffffffffffffffffffffff1663cc2cbeff611e03565b905080935050505092915050565b6060602067ffffffffffffffff811115611f2d57611f2c6127b1565b5b6040519080825280601f01601f191660200182016040528015611f5f5781602001600182028036833780820191505090505b509050816020820152919050565b6000819050919050565b606060ff60001b8314611f9457611f8d836122df565b9050612021565b818054611fa090612e6c565b80601f0160208091040260200160405190810160405280929190818152602001828054611fcc90612e6c565b80156120195780601f10611fee57610100808354040283529160200191612019565b820191906000526020600020905b815481529060010190602001808311611ffc57829003601f168201915b505050505090505b92915050565b600061203283611c9e565b6120435761204060006116b6565b92505b61204c82611c9e565b61205d5761205a60006116b6565b91505b60008390506000839050600061209160028484608073ffffffffffffffffffffffffffffffffffffffff16622df619611e03565b905080935050505092915050565b60006060608073ffffffffffffffffffffffffffffffffffffffff16635fa55ca784866040518363ffffffff1660e01b81526004016120df929190612f99565b600060405180830381865afa1580156120fc573d6000803e3d6000fd5b505050506040513d6000823e3d601f19601f820116820180604052508101906121259190613245565b9050612130816122c3565b91505092915050565b60007f8b73c3c69bb8fe3d512ecc4cf759cc79239f7b179b0ffacaa9a75d522b39400f7f00000000000000000000000000000000000000000000000000000000000000007f000000000000000000000000000000000000000000000000000000000000000046306040516020016121b495949392919061328e565b60405160208183030381529060405280519060200120905090565b60008060007f7fffffffffffffffffffffffffffffff5d576e7357a4501ddfe92f46681b20a08460001c111561220f5760006003859250925092506122b9565b60006001888888886040516000815260200160405260405161223494939291906132e1565b6020604051602081039080840390855afa158015612256573d6000803e3d6000fd5b505050602060405103519050600073ffffffffffffffffffffffffffffffffffffffff168173ffffffffffffffffffffffffffffffffffffffff16036122aa57600060016000801b935093509350506122b9565b8060008060001b935093509350505b9450945094915050565b600060208201519050919050565b600060208201519050919050565b606060006122ec83612353565b90506000602067ffffffffffffffff81111561230b5761230a6127b1565b5b6040519080825280601f01601f19166020018201604052801561233d5781602001600182028036833780820191505090505b5090508181528360208201528092505050919050565b60008060ff8360001c169050601f81111561239a576040517fb3512b0c00000000000000000000000000000000000000000000000000000000815260040160405180910390fd5b80915050919050565b600081519050919050565b600082825260208201905092915050565b60005b838110156123dd5780820151818401526020810190506123c2565b60008484015250505050565b6000601f19601f8301169050919050565b6000612405826123a3565b61240f81856123ae565b935061241f8185602086016123bf565b612428816123e9565b840191505092915050565b6000602082019050818103600083015261244d81846123fa565b905092915050565b6000604051905090565b600080fd5b600080fd5b600073ffffffffffffffffffffffffffffffffffffffff82169050919050565b600061249482612469565b9050919050565b6124a481612489565b81146124af57600080fd5b50565b6000813590506124c18161249b565b92915050565b6000819050919050565b6124da816124c7565b81146124e557600080fd5b50565b6000813590506124f7816124d1565b92915050565b600080604083850312156125145761251361245f565b5b6000612522858286016124b2565b9250506020612533858286016124e8565b9150509250929050565b60008115159050919050565b6125528161253d565b82525050565b600060208201905061256d6000830184612549565b92915050565b61257c816124c7565b82525050565b60006020820190506125976000830184612573565b92915050565b6000806000606084860312156125b6576125b561245f565b5b60006125c4868287016124b2565b93505060206125d5868287016124b2565b92505060406125e6868287016124e8565b9150509250925092565b600060ff82169050919050565b612606816125f0565b82525050565b600060208201905061262160008301846125fd565b92915050565b6000819050919050565b61263a81612627565b82525050565b60006020820190506126556000830184612631565b92915050565b600080fd5b6000602082840312156126765761267561265b565b5b81905092915050565b600080604083850312156126965761269561245f565b5b60006126a4858286016124b2565b925050602083013567ffffffffffffffff8111156126c5576126c4612464565b5b6126d185828601612660565b9150509250929050565b6000819050919050565b60006127006126fb6126f6846124c7565b6126db565b6124c7565b9050919050565b612710816126e5565b82525050565b600060208201905061272b6000830184612707565b92915050565b6000604082840312156127475761274661265b565b5b81905092915050565b600080604083850312156127675761276661245f565b5b6000612775858286016124b2565b925050602083013567ffffffffffffffff81111561279657612795612464565b5b6127a285828601612731565b9150509250929050565b600080fd5b7f4e487b7100000000000000000000000000000000000000000000000000000000600052604160045260246000fd5b6127e9826123e9565b810181811067ffffffffffffffff82111715612808576128076127b1565b5b80604052505050565b600061281b612455565b905061282782826127e0565b919050565b600080fd5b61283a81612627565b811461284557600080fd5b50565b60008135905061285781612831565b92915050565b600080fd5b600080fd5b600067ffffffffffffffff821115612882576128816127b1565b5b61288b826123e9565b9050602081019050919050565b82818337600083830152505050565b60006128ba6128b584612867565b612811565b9050828152602081018484840111156128d6576128d5612862565b5b6128e1848285612898565b509392505050565b600082601f8301126128fe576128fd61285d565b5b813561290e8482602086016128a7565b91505092915050565b60006040828403121561292d5761292c6127ac565b5b6129376040612811565b9050600061294784828501612848565b600083015250602082013567ffffffffffffffff81111561296b5761296a61282c565b5b612977848285016128e9565b60208301525092915050565b6000806040838503121561299a5761299961245f565b5b60006129a8858286016124b2565b925050602083013567ffffffffffffffff8111156129c9576129c8612464565b5b6129d585828601612917565b9150509250929050565b600063ffffffff82169050919050565b6129f8816129df565b8114612a0357600080fd5b50565b600081359050612a15816129ef565b92915050565b600060208284031215612a3157612a3061245f565b5b6000612a3f84828501612a06565b91505092915050565b600060208284031215612a5e57612a5d61245f565b5b6000612a6c848285016124b2565b91505092915050565b60007fff0000000000000000000000000000000000000000000000000000000000000082169050919050565b612aaa81612a75565b82525050565b612ab981612489565b82525050565b600081519050919050565b600082825260208201905092915050565b6000819050602082019050919050565b612af4816124c7565b82525050565b6000612b068383612aeb565b60208301905092915050565b6000602082019050919050565b6000612b2a82612abf565b612b348185612aca565b9350612b3f83612adb565b8060005b83811015612b70578151612b578882612afa565b9750612b6283612b12565b925050600181019050612b43565b5085935050505092915050565b600060e082019050612b92600083018a612aa1565b8181036020830152612ba481896123fa565b90508181036040830152612bb881886123fa565b9050612bc76060830187612573565b612bd46080830186612ab0565b612be160a0830185612631565b81810360c0830152612bf38184612b1f565b905098975050505050505050565b600080600060608486031215612c1a57612c1961245f565b5b6000612c28868287016124b2565b9350506020612c39868287016124b2565b925050604084013567ffffffffffffffff811115612c5a57612c59612464565b5b612c6686828701612660565b9150509250925092565b612c79816124c7565b8114612c8457600080fd5b50565b600081359050612c9681612c70565b92915050565b600080600060608486031215612cb557612cb461245f565b5b6000612cc3868287016124b2565b9350506020612cd4868287016124b2565b9250506040612ce586828701612c87565b9150509250925092565b60008060408385031215612d0657612d0561245f565b5b6000612d14858286016124b2565b9250506020612d2585828601612c87565b9150509250929050565b612d38816125f0565b8114612d4357600080fd5b50565b600081359050612d5581612d2f565b92915050565b600080600080600080600060e0888a031215612d7a57612d7961245f565b5b6000612d888a828b016124b2565b9750506020612d998a828b016124b2565b9650506040612daa8a828b016124e8565b9550506060612dbb8a828b016124e8565b9450506080612dcc8a828b01612d46565b93505060a0612ddd8a828b01612848565b92505060c0612dee8a828b01612848565b91505092959891949750929550565b60008060408385031215612e1457612e1361245f565b5b6000612e22858286016124b2565b9250506020612e33858286016124b2565b9150509250929050565b7f4e487b7100000000000000000000000000000000000000000000000000000000600052602260045260246000fd5b60006002820490506001821680612e8457607f821691505b602082108103612e9757612e96612e3d565b5b50919050565b600060208284031215612eb357612eb26127ac565b5b612ebd6020612811565b9050600082013567ffffffffffffffff811115612edd57612edc61282c565b5b612ee9848285016128e9565b60008301525092915050565b6000612f013683612e9d565b9050919050565b6000612f143683612917565b9050919050565b6000604082019050612f306000830185612631565b612f3d6020830184612631565b9392505050565b600081519050919050565b600082825260208201905092915050565b6000612f6b82612f44565b612f758185612f4f565b9350612f858185602086016123bf565b612f8e816123e9565b840191505092915050565b6000604082019050612fae60008301856125fd565b8181036020830152612fc08184612f60565b90509392505050565b600081519050612fd8816124d1565b92915050565b600060208284031215612ff457612ff361245f565b5b600061300284828501612fc9565b91505092915050565b7f4e487b7100000000000000000000000000000000000000000000000000000000600052602160045260246000fd5b6000819050919050565b61305561305082612627565b61303a565b82525050565b60006130678284613044565b60208201915081905092915050565b600060608201905061308b60008301866125fd565b818103602083015261309d8185612f60565b905081810360408301526130b18184612f60565b9050949350505050565b600067ffffffffffffffff8211156130d6576130d56127b1565b5b6130df826123e9565b9050602081019050919050565b60006130ff6130fa846130bb565b612811565b90508281526020810184848401111561311b5761311a612862565b5b6131268482856123bf565b509392505050565b600082601f8301126131435761314261285d565b5b81516131538482602086016130ec565b91505092915050565b6000602082840312156131725761317161245f565b5b600082015167ffffffffffffffff8111156131905761318f612464565b5b61319c8482850161312e565b91505092915050565b600060408201905081810360008301526131bf8185612f60565b90506131ce60208301846125fd565b9392505050565b60006131e86131e384612867565b612811565b90508281526020810184848401111561320457613203612862565b5b61320f8482856123bf565b509392505050565b600082601f83011261322c5761322b61285d565b5b815161323c8482602086016131d5565b91505092915050565b60006020828403121561325b5761325a61245f565b5b600082015167ffffffffffffffff81111561327957613278612464565b5b61328584828501613217565b91505092915050565b600060a0820190506132a36000830188612631565b6132b06020830187612631565b6132bd6040830186612631565b6132ca6060830185612573565b6132d76080830184612ab0565b9695505050505050565b60006080820190506132f66000830187612631565b61330360208301866125fd565b6133106040830185612631565b61331d6060830184612631565b9594505050505056fea2646970667358221220d2ecefabf6474a46052e52e11ab32c5139690c9cccda6a7c37d9a6911a35acc664736f6c63430008180033",
  "devdoc": {
    "errors": {
      "AllowanceOverflow()": [
        {
          "details": "The allowance has overflowed."
        }
      ],
      "AllowanceUnderflow()": [
        {
          "details": "The allowance has underflowed."
        }
      ],
      "ECDSAInvalidSignature()": [
        {
          "details": "The signature derives the `address(0)`."
        }
      ],
      "ECDSAInvalidSignatureLength(uint256)": [
        {
          "details": "The signature has an invalid length."
        }
      ],
      "ECDSAInvalidSignatureS(bytes32)": [
        {
          "details": "The signature has an S value that is in the upper half order."
        }
      ],
      "InsufficientAllowance()": [
        {
          "details": "Insufficient allowance."
        }
      ],
      "InsufficientBalance()": [
        {
          "details": "Insufficient balance."
        }
      ],
      "InvalidPermit()": [
        {
          "details": "The permit is invalid."
        }
      ],
      "PermitExpired()": [
        {
          "details": "The permit has expired."
        }
      ],
      "TotalSupplyOverflow()": [
        {
          "details": "The total supply has overflowed."
        }
      ]
    },
    "events": {
      "Approval(address,address,uint256)": {
        "details": "Emitted when `amount` tokens is approved by `owner` to be used by `spender`."
      },
      "ApprovalEncrypted(address,address)": {
        "details": "Emitted when the allowance of a `spender` for an `owner` is set by a call to {approveEncrypted}. `value` is the new allowance."
      },
      "EIP712DomainChanged()": {
        "details": "MAY be emitted to signal that the domain could have changed."
      },
      "Transfer(address,address,uint256)": {
        "details": "Emitted when `amount` tokens is transferred from `from` to `to`."
      },
      "TransferEncrypted(address,address)": {
        "details": "Emitted when `value` tokens are moved from one account (`from`) to another (`to`). Note that `value` may be zero."
      }
    },
    "kind": "dev",
    "methods": {
      "DOMAIN_SEPARATOR()": {
        "details": "Returns the EIP-712 domain separator for the EIP-2612 permit."
      },
      "allowance(address,address)": {
        "details": "Returns the amount of tokens that `spender` can spend on behalf of `owner`."
      },
      "allowanceEncrypted(address,(bytes32,bytes))": {
        "details": "Returns the remaining number of tokens that `spender` will be allowed to spend on behalf of `owner` through {transferFrom}. This is zero by default. This value changes when {approve} or {transferFrom} are called."
      },
      "approve(address,uint256)": {
        "details": "Sets `amount` as the allowance of `spender` over the caller's tokens. Emits a {Approval} event."
      },
      "approveEncrypted(address,(bytes))": {
        "details": "Sets a `value` amount of tokens as the allowance of `spender` over the caller's tokens. Returns a boolean value indicating whether the operation succeeded. IMPORTANT: Beware that changing an allowance with this method brings the risk that someone may use both the old and the new allowance by unfortunate transaction ordering. One possible solution to mitigate this race condition is to first reduce the spender's allowance to 0 and set the desired value afterwards: https://github.com/ethereum/EIPs/issues/20#issuecomment-263524729 Emits an {ApprovalEncrypted} event."
      },
      "balanceOf(address)": {
        "details": "Returns the amount of tokens owned by `owner`."
      },
      "balanceOfEncrypted(address,(bytes32,bytes))": {
        "details": "Returns the value of tokens owned by `account`, sealed and encrypted for the caller."
      },
      "decimals()": {
        "details": "Returns the decimals places of the token."
      },
      "eip712Domain()": {
        "details": "See {IERC-5267}."
      },
      "name()": {
        "details": "Returns the name of the token."
      },
      "nonces(address)": {
        "details": "Returns the current nonce for `owner`. This value is used to compute the signature for EIP-2612 permit."
      },
      "permit(address,address,uint256,uint256,uint8,bytes32,bytes32)": {
        "details": "Sets `value` as the allowance of `spender` over the tokens of `owner`, authorized by a signed approval by `owner`. Emits a {Approval} event."
      },
      "symbol()": {
        "details": "Returns the symbol of the token."
      },
      "totalSupply()": {
        "details": "Returns the amount of tokens in existence."
      },
      "transfer(address,uint256)": {
        "details": "Transfer `amount` tokens from the caller to `to`. Requirements: - `from` must at least have `amount`. Emits a {Transfer} event."
      },
      "transferFrom(address,address,uint256)": {
        "details": "Transfers `amount` tokens from `from` to `to`. Note: Does not update the allowance if it is the maximum uint256 value. Requirements: - `from` must at least have `amount`. - The caller must have at least `amount` of allowance to transfer the tokens of `from`. Emits a {Transfer} event."
      },
      "transferFromEncrypted(address,address,(bytes))": {
        "details": "Moves a `value` amount of tokens from `from` to `to` using the allowance mechanism. `value` is then deducted from the caller's allowance. Returns a boolean value indicating whether the operation succeeded. Emits a {TransferEncrypted} event."
      }
    },
    "version": 1
  },
  "userdoc": {
    "errors": {
      "SignerNotMessageSender()": [
        {
          "notice": "Emitted when the signer is not the message sender"
        }
      ],
      "SignerNotOwner()": [
        {
          "notice": "Emitted when the signer is not the specified owner"
        }
      ]
    },
    "kind": "user",
    "methods": {},
    "version": 1
  },
  "storageLayout": {
    "storage": [
      {
        "astId": 16568,
        "contract": "contracts/tokens/FakeEUR.sol:FakeEUR",
        "label": "_nameFallback",
        "offset": 0,
        "slot": "0",
        "type": "t_string_storage"
      },
      {
        "astId": 16570,
        "contract": "contracts/tokens/FakeEUR.sol:FakeEUR",
        "label": "_versionFallback",
        "offset": 0,
        "slot": "1",
        "type": "t_string_storage"
      },
      {
        "astId": 18126,
        "contract": "contracts/tokens/FakeEUR.sol:FakeEUR",
        "label": "_encTotalSupply",
        "offset": 0,
        "slot": "2",
        "type": "t_userDefinedValueType(euint32)12"
      },
      {
        "astId": 18131,
        "contract": "contracts/tokens/FakeEUR.sol:FakeEUR",
        "label": "_encBalanceOf",
        "offset": 0,
        "slot": "3",
        "type": "t_mapping(t_address,t_userDefinedValueType(euint32)12)"
      },
      {
        "astId": 18138,
        "contract": "contracts/tokens/FakeEUR.sol:FakeEUR",
        "label": "_encAllowance",
        "offset": 0,
        "slot": "4",
        "type": "t_mapping(t_address,t_mapping(t_address,t_userDefinedValueType(euint32)12))"
      },
      {
        "astId": 18140,
        "contract": "contracts/tokens/FakeEUR.sol:FakeEUR",
        "label": "_name",
        "offset": 0,
        "slot": "5",
        "type": "t_string_storage"
      },
      {
        "astId": 18142,
        "contract": "contracts/tokens/FakeEUR.sol:FakeEUR",
        "label": "_symbol",
        "offset": 0,
        "slot": "6",
        "type": "t_string_storage"
      }
    ],
    "types": {
      "t_address": {
        "encoding": "inplace",
        "label": "address",
        "numberOfBytes": "20"
      },
      "t_mapping(t_address,t_mapping(t_address,t_userDefinedValueType(euint32)12))": {
        "encoding": "mapping",
        "key": "t_address",
        "label": "mapping(address => mapping(address => euint32))",
        "numberOfBytes": "32",
        "value": "t_mapping(t_address,t_userDefinedValueType(euint32)12)"
      },
      "t_mapping(t_address,t_userDefinedValueType(euint32)12)": {
        "encoding": "mapping",
        "key": "t_address",
        "label": "mapping(address => euint32)",
        "numberOfBytes": "32",
        "value": "t_userDefinedValueType(euint32)12"
      },
      "t_string_storage": {
        "encoding": "bytes",
        "label": "string",
        "numberOfBytes": "32"
      },
      "t_userDefinedValueType(euint32)12": {
        "encoding": "inplace",
        "label": "euint32",
        "numberOfBytes": "32"
      }
    }
  }
}