{
  "address": "0x543E6DD9a2965c133b68a7F4420aa2A25B1D0888",
  "abi": [
    {
      "inputs": [
        {
          "components": [
            {
              "internalType": "bytes",
              "name": "data",
              "type": "bytes"
            }
          ],
          "internalType": "struct inEuint32",
          "name": "_initialSupply",
          "type": "tuple"
        }
      ],
      "stateMutability": "nonpayable",
      "type": "constructor"
    },
    {
      "inputs": [],
      "name": "AllowanceOverflow",
      "type": "error"
    },
    {
      "inputs": [],
      "name": "AllowanceUnderflow",
      "type": "error"
    },
    {
      "inputs": [],
      "name": "ECDSAInvalidSignature",
      "type": "error"
    },
    {
      "inputs": [
        {
          "internalType": "uint256",
          "name": "length",
          "type": "uint256"
        }
      ],
      "name": "ECDSAInvalidSignatureLength",
      "type": "error"
    },
    {
      "inputs": [
        {
          "internalType": "bytes32",
          "name": "s",
          "type": "bytes32"
        }
      ],
      "name": "ECDSAInvalidSignatureS",
      "type": "error"
    },
    {
      "inputs": [],
      "name": "ErrorInsufficientFunds",
      "type": "error"
    },
    {
      "inputs": [],
      "name": "InsufficientAllowance",
      "type": "error"
    },
    {
      "inputs": [],
      "name": "InsufficientBalance",
      "type": "error"
    },
    {
      "inputs": [],
      "name": "InvalidPermit",
      "type": "error"
    },
    {
      "inputs": [],
      "name": "InvalidShortString",
      "type": "error"
    },
    {
      "inputs": [],
      "name": "PermitExpired",
      "type": "error"
    },
    {
      "inputs": [],
      "name": "SignerNotMessageSender",
      "type": "error"
    },
    {
      "inputs": [],
      "name": "SignerNotOwner",
      "type": "error"
    },
    {
      "inputs": [
        {
          "internalType": "string",
          "name": "str",
          "type": "string"
        }
      ],
      "name": "StringTooLong",
      "type": "error"
    },
    {
      "inputs": [],
      "name": "TotalSupplyOverflow",
      "type": "error"
    },
    {
      "anonymous": false,
      "inputs": [
        {
          "indexed": true,
          "internalType": "address",
          "name": "owner",
          "type": "address"
        },
        {
          "indexed": true,
          "internalType": "address",
          "name": "spender",
          "type": "address"
        },
        {
          "indexed": false,
          "internalType": "uint256",
          "name": "amount",
          "type": "uint256"
        }
      ],
      "name": "Approval",
      "type": "event"
    },
    {
      "anonymous": false,
      "inputs": [
        {
          "indexed": true,
          "internalType": "address",
          "name": "owner",
          "type": "address"
        },
        {
          "indexed": true,
          "internalType": "address",
          "name": "spender",
          "type": "address"
        }
      ],
      "name": "ApprovalEncrypted",
      "type": "event"
    },
    {
      "anonymous": false,
      "inputs": [],
      "name": "EIP712DomainChanged",
      "type": "event"
    },
    {
      "anonymous": false,
      "inputs": [
        {
          "indexed": true,
          "internalType": "address",
          "name": "from",
          "type": "address"
        },
        {
          "indexed": true,
          "internalType": "address",
          "name": "to",
          "type": "address"
        },
        {
          "indexed": false,
          "internalType": "uint256",
          "name": "amount",
          "type": "uint256"
        }
      ],
      "name": "Transfer",
      "type": "event"
    },
    {
      "anonymous": false,
      "inputs": [
        {
          "indexed": true,
          "internalType": "address",
          "name": "from",
          "type": "address"
        },
        {
          "indexed": true,
          "internalType": "address",
          "name": "to",
          "type": "address"
        }
      ],
      "name": "TransferEncrypted",
      "type": "event"
    },
    {
      "inputs": [],
      "name": "DOMAIN_SEPARATOR",
      "outputs": [
        {
          "internalType": "bytes32",
          "name": "result",
          "type": "bytes32"
        }
      ],
      "stateMutability": "view",
      "type": "function"
    },
    {
      "inputs": [
        {
          "internalType": "address",
          "name": "owner",
          "type": "address"
        },
        {
          "internalType": "address",
          "name": "spender",
          "type": "address"
        }
      ],
      "name": "allowance",
      "outputs": [
        {
          "internalType": "uint256",
          "name": "result",
          "type": "uint256"
        }
      ],
      "stateMutability": "view",
      "type": "function"
    },
    {
      "inputs": [
        {
          "internalType": "address",
          "name": "spender",
          "type": "address"
        },
        {
          "components": [
            {
              "internalType": "bytes32",
              "name": "publicKey",
              "type": "bytes32"
            },
            {
              "internalType": "bytes",
              "name": "signature",
              "type": "bytes"
            }
          ],
          "internalType": "struct Permission",
          "name": "permission",
          "type": "tuple"
        }
      ],
      "name": "allowanceEncrypted",
      "outputs": [
        {
          "internalType": "string",
          "name": "",
          "type": "string"
        }
      ],
      "stateMutability": "view",
      "type": "function"
    },
    {
      "inputs": [
        {
          "internalType": "address",
          "name": "spender",
          "type": "address"
        },
        {
          "internalType": "uint256",
          "name": "amount",
          "type": "uint256"
        }
      ],
      "name": "approve",
      "outputs": [
        {
          "internalType": "bool",
          "name": "",
          "type": "bool"
        }
      ],
      "stateMutability": "nonpayable",
      "type": "function"
    },
    {
      "inputs": [
        {
          "internalType": "address",
          "name": "spender",
          "type": "address"
        },
        {
          "components": [
            {
              "internalType": "bytes",
              "name": "data",
              "type": "bytes"
            }
          ],
          "internalType": "struct inEuint32",
          "name": "value",
          "type": "tuple"
        }
      ],
      "name": "approveEncrypted",
      "outputs": [
        {
          "internalType": "bool",
          "name": "",
          "type": "bool"
        }
      ],
      "stateMutability": "nonpayable",
      "type": "function"
    },
    {
      "inputs": [
        {
          "internalType": "address",
          "name": "owner",
          "type": "address"
        }
      ],
      "name": "balanceOf",
      "outputs": [
        {
          "internalType": "uint256",
          "name": "result",
          "type": "uint256"
        }
      ],
      "stateMutability": "view",
      "type": "function"
    },
    {
      "inputs": [
        {
          "internalType": "address",
          "name": "account",
          "type": "address"
        },
        {
          "components": [
            {
              "internalType": "bytes32",
              "name": "publicKey",
              "type": "bytes32"
            },
            {
              "internalType": "bytes",
              "name": "signature",
              "type": "bytes"
            }
          ],
          "internalType": "struct Permission",
          "name": "auth",
          "type": "tuple"
        }
      ],
      "name": "balanceOfEncrypted",
      "outputs": [
        {
          "internalType": "string",
          "name": "",
          "type": "string"
        }
      ],
      "stateMutability": "view",
      "type": "function"
    },
    {
      "inputs": [],
      "name": "decimals",
      "outputs": [
        {
          "internalType": "uint8",
          "name": "",
          "type": "uint8"
        }
      ],
      "stateMutability": "pure",
      "type": "function"
    },
    {
      "inputs": [],
      "name": "eip712Domain",
      "outputs": [
        {
          "internalType": "bytes1",
          "name": "fields",
          "type": "bytes1"
        },
        {
          "internalType": "string",
          "name": "name",
          "type": "string"
        },
        {
          "internalType": "string",
          "name": "version",
          "type": "string"
        },
        {
          "internalType": "uint256",
          "name": "chainId",
          "type": "uint256"
        },
        {
          "internalType": "address",
          "name": "verifyingContract",
          "type": "address"
        },
        {
          "internalType": "bytes32",
          "name": "salt",
          "type": "bytes32"
        },
        {
          "internalType": "uint256[]",
          "name": "extensions",
          "type": "uint256[]"
        }
      ],
      "stateMutability": "view",
      "type": "function"
    },
    {
      "inputs": [],
      "name": "name",
      "outputs": [
        {
          "internalType": "string",
          "name": "",
          "type": "string"
        }
      ],
      "stateMutability": "view",
      "type": "function"
    },
    {
      "inputs": [
        {
          "internalType": "address",
          "name": "owner",
          "type": "address"
        }
      ],
      "name": "nonces",
      "outputs": [
        {
          "internalType": "uint256",
          "name": "result",
          "type": "uint256"
        }
      ],
      "stateMutability": "view",
      "type": "function"
    },
    {
      "inputs": [
        {
          "internalType": "address",
          "name": "owner",
          "type": "address"
        },
        {
          "internalType": "address",
          "name": "spender",
          "type": "address"
        },
        {
          "internalType": "uint256",
          "name": "value",
          "type": "uint256"
        },
        {
          "internalType": "uint256",
          "name": "deadline",
          "type": "uint256"
        },
        {
          "internalType": "uint8",
          "name": "v",
          "type": "uint8"
        },
        {
          "internalType": "bytes32",
          "name": "r",
          "type": "bytes32"
        },
        {
          "internalType": "bytes32",
          "name": "s",
          "type": "bytes32"
        }
      ],
      "name": "permit",
      "outputs": [],
      "stateMutability": "nonpayable",
      "type": "function"
    },
    {
      "inputs": [],
      "name": "symbol",
      "outputs": [
        {
          "internalType": "string",
          "name": "",
          "type": "string"
        }
      ],
      "stateMutability": "view",
      "type": "function"
    },
    {
      "inputs": [],
      "name": "totalSupply",
      "outputs": [
        {
          "internalType": "uint256",
          "name": "result",
          "type": "uint256"
        }
      ],
      "stateMutability": "view",
      "type": "function"
    },
    {
      "inputs": [
        {
          "internalType": "address",
          "name": "to",
          "type": "address"
        },
        {
          "internalType": "uint256",
          "name": "amount",
          "type": "uint256"
        }
      ],
      "name": "transfer",
      "outputs": [
        {
          "internalType": "bool",
          "name": "",
          "type": "bool"
        }
      ],
      "stateMutability": "nonpayable",
      "type": "function"
    },
    {
      "inputs": [
        {
          "internalType": "address",
          "name": "to",
          "type": "address"
        },
        {
          "components": [
            {
              "internalType": "bytes",
              "name": "data",
              "type": "bytes"
            }
          ],
          "internalType": "struct inEuint32",
          "name": "encryptedAmount",
          "type": "tuple"
        }
      ],
      "name": "transferEncrypted",
      "outputs": [
        {
          "internalType": "euint32",
          "name": "",
          "type": "uint256"
        }
      ],
      "stateMutability": "nonpayable",
      "type": "function"
    },
    {
      "inputs": [
        {
          "internalType": "address",
          "name": "to",
          "type": "address"
        },
        {
          "internalType": "euint32",
          "name": "amount",
          "type": "uint256"
        }
      ],
      "name": "transferEncrypted",
      "outputs": [
        {
          "internalType": "euint32",
          "name": "",
          "type": "uint256"
        }
      ],
      "stateMutability": "nonpayable",
      "type": "function"
    },
    {
      "inputs": [
        {
          "internalType": "address",
          "name": "from",
          "type": "address"
        },
        {
          "internalType": "address",
          "name": "to",
          "type": "address"
        },
        {
          "internalType": "uint256",
          "name": "amount",
          "type": "uint256"
        }
      ],
      "name": "transferFrom",
      "outputs": [
        {
          "internalType": "bool",
          "name": "",
          "type": "bool"
        }
      ],
      "stateMutability": "nonpayable",
      "type": "function"
    },
    {
      "inputs": [
        {
          "internalType": "address",
          "name": "from",
          "type": "address"
        },
        {
          "internalType": "address",
          "name": "to",
          "type": "address"
        },
        {
          "components": [
            {
              "internalType": "bytes",
              "name": "data",
              "type": "bytes"
            }
          ],
          "internalType": "struct inEuint32",
          "name": "value",
          "type": "tuple"
        }
      ],
      "name": "transferFromEncrypted",
      "outputs": [
        {
          "internalType": "euint32",
          "name": "",
          "type": "uint256"
        }
      ],
      "stateMutability": "nonpayable",
      "type": "function"
    },
    {
      "inputs": [
        {
          "internalType": "address",
          "name": "from",
          "type": "address"
        },
        {
          "internalType": "address",
          "name": "to",
          "type": "address"
        },
        {
          "internalType": "euint32",
          "name": "value",
          "type": "uint256"
        }
      ],
      "name": "transferFromEncrypted",
      "outputs": [
        {
          "internalType": "euint32",
          "name": "",
          "type": "uint256"
        }
      ],
      "stateMutability": "nonpayable",
      "type": "function"
    },
    {
      "inputs": [
        {
          "internalType": "uint32",
          "name": "amount",
          "type": "uint32"
        }
      ],
      "name": "unwrap",
      "outputs": [],
      "stateMutability": "nonpayable",
      "type": "function"
    },
    {
      "inputs": [
        {
          "internalType": "uint32",
          "name": "amount",
          "type": "uint32"
        }
      ],
      "name": "wrap",
      "outputs": [],
      "stateMutability": "nonpayable",
      "type": "function"
    }
  ],
  "transactionHash": "0xdc30051859adbd801cab079acd4ba41d7714159155cb5d9aa41b29500d0862dd",
  "args": [
    {
      "data": {
        "0": 16,
        "1": 8,
        "2": 0,
        "3": 0,
        "4": 0,
        "5": 0,
        "6": 0,
        "7": 0,
        "8": 164,
        "9": 86,
        "10": 196,
        "11": 2,
        "12": 242,
        "13": 126,
        "14": 53,
        "15": 246,
        "16": 201,
        "17": 79,
        "18": 40,
        "19": 215,
        "20": 226,
        "21": 206,
        "22": 125,
        "23": 88,
        "24": 15,
        "25": 81,
        "26": 115,
        "27": 50,
        "28": 184,
        "29": 21,
        "30": 180,
        "31": 130,
        "32": 56,
        "33": 170,
        "34": 185,
        "35": 88,
        "36": 188,
        "37": 189,
        "38": 161,
        "39": 119,
        "40": 91,
        "41": 41,
        "42": 207,
        "43": 216,
        "44": 75,
        "45": 51,
        "46": 236,
        "47": 150,
        "48": 125,
        "49": 153,
        "50": 146,
        "51": 42,
        "52": 191,
        "53": 91,
        "54": 13,
        "55": 189,
        "56": 254,
        "57": 187,
        "58": 53,
        "59": 104,
        "60": 237,
        "61": 89,
        "62": 79,
        "63": 32,
        "64": 66,
        "65": 195,
        "66": 170,
        "67": 68,
        "68": 202,
        "69": 101,
        "70": 68,
        "71": 55,
        "72": 49,
        "73": 189,
        "74": 50,
        "75": 217,
        "76": 138,
        "77": 171,
        "78": 147,
        "79": 10,
        "80": 24,
        "81": 72,
        "82": 128,
        "83": 45,
        "84": 144,
        "85": 134,
        "86": 237,
        "87": 94,
        "88": 128,
        "89": 41,
        "90": 92,
        "91": 114,
        "92": 158,
        "93": 235,
        "94": 71,
        "95": 9,
        "96": 67,
        "97": 250,
        "98": 94,
        "99": 101,
        "100": 248,
        "101": 27,
        "102": 222,
        "103": 121,
        "104": 207,
        "105": 139,
        "106": 177,
        "107": 242,
        "108": 1,
        "109": 252,
        "110": 254,
        "111": 39,
        "112": 242,
        "113": 145,
        "114": 77,
        "115": 71,
        "116": 18,
        "117": 22,
        "118": 100,
        "119": 16,
        "120": 230,
        "121": 13,
        "122": 79,
        "123": 119,
        "124": 204,
        "125": 138,
        "126": 125,
        "127": 81,
        "128": 217,
        "129": 1,
        "130": 179,
        "131": 12,
        "132": 247,
        "133": 107,
        "134": 221,
        "135": 117,
        "136": 169,
        "137": 7,
        "138": 153,
        "139": 150,
        "140": 252,
        "141": 79,
        "142": 12,
        "143": 179,
        "144": 238,
        "145": 122,
        "146": 206,
        "147": 236,
        "148": 127,
        "149": 91,
        "150": 188,
        "151": 150,
        "152": 37,
        "153": 80,
        "154": 18,
        "155": 86,
        "156": 254,
        "157": 238,
        "158": 156,
        "159": 212,
        "160": 46,
        "161": 183,
        "162": 140,
        "163": 95,
        "164": 82,
        "165": 76,
        "166": 190,
        "167": 125,
        "168": 228,
        "169": 234,
        "170": 42,
        "171": 179,
        "172": 74,
        "173": 79,
        "174": 242,
        "175": 214,
        "176": 1,
        "177": 217,
        "178": 157,
        "179": 211,
        "180": 208,
        "181": 130,
        "182": 136,
        "183": 119,
        "184": 19,
        "185": 69,
        "186": 93,
        "187": 165,
        "188": 153,
        "189": 251,
        "190": 200,
        "191": 1,
        "192": 43,
        "193": 109,
        "194": 124,
        "195": 192,
        "196": 240,
        "197": 160,
        "198": 42,
        "199": 236,
        "200": 152,
        "201": 66,
        "202": 243,
        "203": 201,
        "204": 178,
        "205": 83,
        "206": 144,
        "207": 210,
        "208": 102,
        "209": 110,
        "210": 116,
        "211": 243,
        "212": 21,
        "213": 200,
        "214": 226,
        "215": 119,
        "216": 82,
        "217": 55,
        "218": 201,
        "219": 120,
        "220": 255,
        "221": 97,
        "222": 167,
        "223": 246,
        "224": 21,
        "225": 15,
        "226": 127,
        "227": 96,
        "228": 1,
        "229": 13,
        "230": 81,
        "231": 36,
        "232": 105,
        "233": 76,
        "234": 142,
        "235": 213,
        "236": 92,
        "237": 166,
        "238": 157,
        "239": 178,
        "240": 116,
        "241": 45,
        "242": 153,
        "243": 14,
        "244": 68,
        "245": 32,
        "246": 136,
        "247": 169,
        "248": 41,
        "249": 231,
        "250": 129,
        "251": 28,
        "252": 55,
        "253": 69,
        "254": 207,
        "255": 158,
        "256": 244,
        "257": 236,
        "258": 68,
        "259": 37,
        "260": 55,
        "261": 214,
        "262": 241,
        "263": 12,
        "264": 93,
        "265": 179,
        "266": 27,
        "267": 78,
        "268": 98,
        "269": 64,
        "270": 131,
        "271": 18,
        "272": 103,
        "273": 31,
        "274": 105,
        "275": 127,
        "276": 139,
        "277": 78,
        "278": 73,
        "279": 83,
        "280": 107,
        "281": 76,
        "282": 223,
        "283": 153,
        "284": 216,
        "285": 72,
        "286": 66,
        "287": 44,
        "288": 115,
        "289": 226,
        "290": 112,
        "291": 137,
        "292": 219,
        "293": 113,
        "294": 104,
        "295": 147,
        "296": 134,
        "297": 181,
        "298": 1,
        "299": 235,
        "300": 252,
        "301": 174,
        "302": 136,
        "303": 83,
        "304": 96,
        "305": 28,
        "306": 24,
        "307": 66,
        "308": 235,
        "309": 202,
        "310": 244,
        "311": 85,
        "312": 73,
        "313": 171,
        "314": 11,
        "315": 231,
        "316": 79,
        "317": 160,
        "318": 80,
        "319": 251,
        "320": 167,
        "321": 152,
        "322": 112,
        "323": 209,
        "324": 28,
        "325": 147,
        "326": 220,
        "327": 96,
        "328": 0,
        "329": 101,
        "330": 114,
        "331": 10,
        "332": 174,
        "333": 119,
        "334": 127,
        "335": 190,
        "336": 71,
        "337": 157,
        "338": 160,
        "339": 24,
        "340": 83,
        "341": 3,
        "342": 120,
        "343": 21,
        "344": 7,
        "345": 211,
        "346": 105,
        "347": 66,
        "348": 79,
        "349": 184,
        "350": 185,
        "351": 165,
        "352": 68,
        "353": 123,
        "354": 161,
        "355": 158,
        "356": 178,
        "357": 223,
        "358": 6,
        "359": 135,
        "360": 102,
        "361": 153,
        "362": 81,
        "363": 109,
        "364": 198,
        "365": 150,
        "366": 48,
        "367": 80,
        "368": 210,
        "369": 165,
        "370": 6,
        "371": 0,
        "372": 103,
        "373": 85,
        "374": 146,
        "375": 67,
        "376": 41,
        "377": 13,
        "378": 23,
        "379": 110,
        "380": 183,
        "381": 220,
        "382": 1,
        "383": 165,
        "384": 223,
        "385": 177,
        "386": 204,
        "387": 104,
        "388": 199,
        "389": 254,
        "390": 87,
        "391": 42,
        "392": 235,
        "393": 109,
        "394": 223,
        "395": 237,
        "396": 203,
        "397": 250,
        "398": 38,
        "399": 99,
        "400": 128,
        "401": 21,
        "402": 217,
        "403": 84,
        "404": 99,
        "405": 207,
        "406": 18,
        "407": 167,
        "408": 138,
        "409": 137,
        "410": 210,
        "411": 155,
        "412": 203,
        "413": 217,
        "414": 59,
        "415": 147,
        "416": 133,
        "417": 81,
        "418": 204,
        "419": 74,
        "420": 192,
        "421": 166,
        "422": 103,
        "423": 250,
        "424": 88,
        "425": 0,
        "426": 166,
        "427": 203,
        "428": 119,
        "429": 173,
        "430": 64,
        "431": 195,
        "432": 223,
        "433": 251,
        "434": 29,
        "435": 254,
        "436": 196,
        "437": 221,
        "438": 60,
        "439": 108,
        "440": 104,
        "441": 237,
        "442": 191,
        "443": 213,
        "444": 209,
        "445": 230,
        "446": 10,
        "447": 56,
        "448": 71,
        "449": 164,
        "450": 8,
        "451": 93,
        "452": 155,
        "453": 139,
        "454": 71,
        "455": 34,
        "456": 122,
        "457": 65,
        "458": 40,
        "459": 12,
        "460": 181,
        "461": 57,
        "462": 163,
        "463": 7,
        "464": 176,
        "465": 47,
        "466": 117,
        "467": 162,
        "468": 71,
        "469": 158,
        "470": 215,
        "471": 177,
        "472": 204,
        "473": 241,
        "474": 35,
        "475": 15,
        "476": 87,
        "477": 133,
        "478": 227,
        "479": 79,
        "480": 31,
        "481": 215,
        "482": 177,
        "483": 173,
        "484": 29,
        "485": 143,
        "486": 56,
        "487": 159,
        "488": 106,
        "489": 139,
        "490": 206,
        "491": 7,
        "492": 206,
        "493": 211,
        "494": 174,
        "495": 231,
        "496": 34,
        "497": 177,
        "498": 38,
        "499": 205,
        "500": 62,
        "501": 230,
        "502": 144,
        "503": 198,
        "504": 94,
        "505": 178,
        "506": 133,
        "507": 182,
        "508": 225,
        "509": 104,
        "510": 13,
        "511": 187,
        "512": 229,
        "513": 250,
        "514": 11,
        "515": 42,
        "516": 140,
        "517": 127,
        "518": 76,
        "519": 110,
        "520": 252,
        "521": 97,
        "522": 214,
        "523": 165,
        "524": 125,
        "525": 182,
        "526": 53,
        "527": 23,
        "528": 175,
        "529": 15,
        "530": 240,
        "531": 223,
        "532": 62,
        "533": 121,
        "534": 246,
        "535": 190,
        "536": 104,
        "537": 118,
        "538": 5,
        "539": 158,
        "540": 48,
        "541": 122,
        "542": 10,
        "543": 94,
        "544": 54,
        "545": 3,
        "546": 43,
        "547": 10,
        "548": 25,
        "549": 61,
        "550": 237,
        "551": 167,
        "552": 17,
        "553": 219,
        "554": 176,
        "555": 92,
        "556": 34,
        "557": 160,
        "558": 33,
        "559": 6,
        "560": 80,
        "561": 237,
        "562": 186,
        "563": 1,
        "564": 157,
        "565": 250,
        "566": 1,
        "567": 185,
        "568": 217,
        "569": 68,
        "570": 204,
        "571": 13,
        "572": 164,
        "573": 52,
        "574": 129,
        "575": 231,
        "576": 138,
        "577": 123,
        "578": 160,
        "579": 183,
        "580": 111,
        "581": 185,
        "582": 151,
        "583": 215,
        "584": 121,
        "585": 225,
        "586": 211,
        "587": 181,
        "588": 88,
        "589": 244,
        "590": 234,
        "591": 156,
        "592": 145,
        "593": 174,
        "594": 65,
        "595": 229,
        "596": 5,
        "597": 40,
        "598": 208,
        "599": 217,
        "600": 138,
        "601": 7,
        "602": 145,
        "603": 13,
        "604": 94,
        "605": 215,
        "606": 86,
        "607": 227,
        "608": 51,
        "609": 60,
        "610": 72,
        "611": 98,
        "612": 76,
        "613": 91,
        "614": 48,
        "615": 196,
        "616": 81,
        "617": 12,
        "618": 231,
        "619": 160,
        "620": 187,
        "621": 103,
        "622": 240,
        "623": 200,
        "624": 142,
        "625": 237,
        "626": 251,
        "627": 193,
        "628": 21,
        "629": 150,
        "630": 119,
        "631": 201,
        "632": 219,
        "633": 103,
        "634": 101,
        "635": 126,
        "636": 36,
        "637": 72,
        "638": 195,
        "639": 54,
        "640": 159,
        "641": 179,
        "642": 20,
        "643": 29,
        "644": 160,
        "645": 192,
        "646": 235,
        "647": 94,
        "648": 43,
        "649": 89,
        "650": 140,
        "651": 34,
        "652": 94,
        "653": 182,
        "654": 203,
        "655": 53,
        "656": 66,
        "657": 82,
        "658": 176,
        "659": 27,
        "660": 208,
        "661": 187,
        "662": 164,
        "663": 177,
        "664": 49,
        "665": 250,
        "666": 149,
        "667": 250,
        "668": 190,
        "669": 116,
        "670": 95,
        "671": 26,
        "672": 114,
        "673": 81,
        "674": 114,
        "675": 158,
        "676": 207,
        "677": 83,
        "678": 244,
        "679": 76,
        "680": 58,
        "681": 140,
        "682": 65,
        "683": 250,
        "684": 18,
        "685": 97,
        "686": 37,
        "687": 121,
        "688": 99,
        "689": 215,
        "690": 97,
        "691": 90,
        "692": 222,
        "693": 250,
        "694": 58,
        "695": 188,
        "696": 195,
        "697": 239,
        "698": 200,
        "699": 202,
        "700": 219,
        "701": 211,
        "702": 187,
        "703": 242,
        "704": 226,
        "705": 84,
        "706": 221,
        "707": 4,
        "708": 237,
        "709": 153,
        "710": 40,
        "711": 236,
        "712": 219,
        "713": 210,
        "714": 89,
        "715": 133,
        "716": 184,
        "717": 232,
        "718": 13,
        "719": 27,
        "720": 197,
        "721": 37,
        "722": 196,
        "723": 203,
        "724": 237,
        "725": 213,
        "726": 57,
        "727": 251,
        "728": 157,
        "729": 142,
        "730": 11,
        "731": 169,
        "732": 100,
        "733": 251,
        "734": 93,
        "735": 44,
        "736": 58,
        "737": 226,
        "738": 56,
        "739": 185,
        "740": 157,
        "741": 246,
        "742": 124,
        "743": 12,
        "744": 91,
        "745": 92,
        "746": 231,
        "747": 86,
        "748": 7,
        "749": 79,
        "750": 81,
        "751": 130,
        "752": 215,
        "753": 0,
        "754": 185,
        "755": 182,
        "756": 235,
        "757": 126,
        "758": 6,
        "759": 200,
        "760": 163,
        "761": 52,
        "762": 234,
        "763": 141,
        "764": 201,
        "765": 128,
        "766": 194,
        "767": 141,
        "768": 129,
        "769": 107,
        "770": 210,
        "771": 172,
        "772": 62,
        "773": 156,
        "774": 63,
        "775": 146,
        "776": 196,
        "777": 177,
        "778": 123,
        "779": 187,
        "780": 31,
        "781": 197,
        "782": 118,
        "783": 129,
        "784": 235,
        "785": 109,
        "786": 204,
        "787": 68,
        "788": 152,
        "789": 158,
        "790": 156,
        "791": 63,
        "792": 227,
        "793": 199,
        "794": 107,
        "795": 216,
        "796": 176,
        "797": 109,
        "798": 103,
        "799": 48,
        "800": 156,
        "801": 223,
        "802": 200,
        "803": 57,
        "804": 140,
        "805": 149,
        "806": 103,
        "807": 64,
        "808": 101,
        "809": 97,
        "810": 114,
        "811": 33,
        "812": 45,
        "813": 239,
        "814": 135,
        "815": 128,
        "816": 127,
        "817": 84,
        "818": 60,
        "819": 55,
        "820": 201,
        "821": 36,
        "822": 146,
        "823": 169,
        "824": 84,
        "825": 57,
        "826": 197,
        "827": 205,
        "828": 55,
        "829": 43,
        "830": 232,
        "831": 59,
        "832": 6,
        "833": 84,
        "834": 217,
        "835": 122,
        "836": 211,
        "837": 15,
        "838": 96,
        "839": 162,
        "840": 12,
        "841": 195,
        "842": 3,
        "843": 68,
        "844": 170,
        "845": 157,
        "846": 148,
        "847": 251,
        "848": 43,
        "849": 148,
        "850": 37,
        "851": 139,
        "852": 226,
        "853": 219,
        "854": 177,
        "855": 188,
        "856": 247,
        "857": 67,
        "858": 106,
        "859": 5,
        "860": 100,
        "861": 134,
        "862": 44,
        "863": 109,
        "864": 90,
        "865": 186,
        "866": 78,
        "867": 206,
        "868": 158,
        "869": 207,
        "870": 186,
        "871": 159,
        "872": 36,
        "873": 150,
        "874": 104,
        "875": 180,
        "876": 18,
        "877": 3,
        "878": 182,
        "879": 163,
        "880": 79,
        "881": 174,
        "882": 150,
        "883": 133,
        "884": 238,
        "885": 79,
        "886": 131,
        "887": 27,
        "888": 34,
        "889": 90,
        "890": 51,
        "891": 44,
        "892": 111,
        "893": 7,
        "894": 149,
        "895": 97,
        "896": 61,
        "897": 208,
        "898": 214,
        "899": 41,
        "900": 143,
        "901": 192,
        "902": 153,
        "903": 0,
        "904": 0,
        "905": 26,
        "906": 136,
        "907": 181,
        "908": 142,
        "909": 149,
        "910": 205,
        "911": 148,
        "912": 131,
        "913": 5,
        "914": 101,
        "915": 43,
        "916": 250,
        "917": 21,
        "918": 125,
        "919": 109,
        "920": 215,
        "921": 152,
        "922": 163,
        "923": 152,
        "924": 84,
        "925": 17,
        "926": 118,
        "927": 14,
        "928": 248,
        "929": 41,
        "930": 129,
        "931": 111,
        "932": 168,
        "933": 197,
        "934": 214,
        "935": 207,
        "936": 23,
        "937": 44,
        "938": 111,
        "939": 210,
        "940": 162,
        "941": 229,
        "942": 164,
        "943": 103,
        "944": 192,
        "945": 7,
        "946": 4,
        "947": 57,
        "948": 92,
        "949": 67,
        "950": 179,
        "951": 27,
        "952": 82,
        "953": 30,
        "954": 197,
        "955": 62,
        "956": 181,
        "957": 131,
        "958": 207,
        "959": 247,
        "960": 39,
        "961": 16,
        "962": 46,
        "963": 196,
        "964": 224,
        "965": 112,
        "966": 62,
        "967": 203,
        "968": 135,
        "969": 55,
        "970": 60,
        "971": 184,
        "972": 138,
        "973": 182,
        "974": 248,
        "975": 22,
        "976": 215,
        "977": 243,
        "978": 89,
        "979": 32,
        "980": 100,
        "981": 35,
        "982": 84,
        "983": 158,
        "984": 230,
        "985": 133,
        "986": 74,
        "987": 159,
        "988": 146,
        "989": 78,
        "990": 193,
        "991": 26,
        "992": 111,
        "993": 102,
        "994": 99,
        "995": 236,
        "996": 192,
        "997": 167,
        "998": 223,
        "999": 120,
        "1000": 223,
        "1001": 183,
        "1002": 180,
        "1003": 117,
        "1004": 184,
        "1005": 239,
        "1006": 97,
        "1007": 207,
        "1008": 200,
        "1009": 183,
        "1010": 101,
        "1011": 23,
        "1012": 1,
        "1013": 229,
        "1014": 87,
        "1015": 31,
        "1016": 74,
        "1017": 68,
        "1018": 181,
        "1019": 137,
        "1020": 238,
        "1021": 82,
        "1022": 13,
        "1023": 186,
        "1024": 88,
        "1025": 164,
        "1026": 113,
        "1027": 210,
        "1028": 72,
        "1029": 37,
        "1030": 39,
        "1031": 12,
        "1032": 55,
        "1033": 255,
        "1034": 96,
        "1035": 105,
        "1036": 32,
        "1037": 41,
        "1038": 32,
        "1039": 222,
        "1040": 3,
        "1041": 62,
        "1042": 244,
        "1043": 142,
        "1044": 88,
        "1045": 55,
        "1046": 49,
        "1047": 18,
        "1048": 4,
        "1049": 229,
        "1050": 229,
        "1051": 109,
        "1052": 119,
        "1053": 172,
        "1054": 85,
        "1055": 245,
        "1056": 133,
        "1057": 221,
        "1058": 123,
        "1059": 150,
        "1060": 204,
        "1061": 113,
        "1062": 16,
        "1063": 229,
        "1064": 180,
        "1065": 188,
        "1066": 56,
        "1067": 161,
        "1068": 107,
        "1069": 150,
        "1070": 82,
        "1071": 255,
        "1072": 63,
        "1073": 148,
        "1074": 188,
        "1075": 112,
        "1076": 213,
        "1077": 108,
        "1078": 230,
        "1079": 92,
        "1080": 38,
        "1081": 77,
        "1082": 192,
        "1083": 6,
        "1084": 99,
        "1085": 25,
        "1086": 88,
        "1087": 25,
        "1088": 209,
        "1089": 251,
        "1090": 123,
        "1091": 31,
        "1092": 43,
        "1093": 201,
        "1094": 201,
        "1095": 112,
        "1096": 72,
        "1097": 202,
        "1098": 141,
        "1099": 59,
        "1100": 136,
        "1101": 21,
        "1102": 127,
        "1103": 206,
        "1104": 202,
        "1105": 122,
        "1106": 215,
        "1107": 190,
        "1108": 15,
        "1109": 104,
        "1110": 177,
        "1111": 170,
        "1112": 201,
        "1113": 17,
        "1114": 65,
        "1115": 223,
        "1116": 102,
        "1117": 246,
        "1118": 247,
        "1119": 70,
        "1120": 141,
        "1121": 160,
        "1122": 237,
        "1123": 37,
        "1124": 97,
        "1125": 199,
        "1126": 157,
        "1127": 39,
        "1128": 216,
        "1129": 89,
        "1130": 199,
        "1131": 156,
        "1132": 208,
        "1133": 138,
        "1134": 133,
        "1135": 114,
        "1136": 55,
        "1137": 253,
        "1138": 162,
        "1139": 233,
        "1140": 162,
        "1141": 166,
        "1142": 90,
        "1143": 41,
        "1144": 204,
        "1145": 153,
        "1146": 135,
        "1147": 149,
        "1148": 74,
        "1149": 250,
        "1150": 172,
        "1151": 168,
        "1152": 105,
        "1153": 109,
        "1154": 88,
        "1155": 54,
        "1156": 76,
        "1157": 139,
        "1158": 78,
        "1159": 151,
        "1160": 191,
        "1161": 21,
        "1162": 7,
        "1163": 36,
        "1164": 128,
        "1165": 179,
        "1166": 239,
        "1167": 71,
        "1168": 178,
        "1169": 187,
        "1170": 145,
        "1171": 169,
        "1172": 226,
        "1173": 32,
        "1174": 122,
        "1175": 53,
        "1176": 24,
        "1177": 7,
        "1178": 57,
        "1179": 118,
        "1180": 16,
        "1181": 230,
        "1182": 158,
        "1183": 164,
        "1184": 65,
        "1185": 11,
        "1186": 61,
        "1187": 22,
        "1188": 52,
        "1189": 98,
        "1190": 230,
        "1191": 167,
        "1192": 175,
        "1193": 74,
        "1194": 71,
        "1195": 228,
        "1196": 17,
        "1197": 95,
        "1198": 111,
        "1199": 205,
        "1200": 81,
        "1201": 220,
        "1202": 173,
        "1203": 98,
        "1204": 42,
        "1205": 188,
        "1206": 247,
        "1207": 149,
        "1208": 23,
        "1209": 5,
        "1210": 82,
        "1211": 126,
        "1212": 201,
        "1213": 201,
        "1214": 137,
        "1215": 203,
        "1216": 125,
        "1217": 234,
        "1218": 4,
        "1219": 84,
        "1220": 49,
        "1221": 36,
        "1222": 187,
        "1223": 156,
        "1224": 251,
        "1225": 139,
        "1226": 84,
        "1227": 173,
        "1228": 127,
        "1229": 25,
        "1230": 78,
        "1231": 179,
        "1232": 179,
        "1233": 199,
        "1234": 177,
        "1235": 222,
        "1236": 98,
        "1237": 183,
        "1238": 176,
        "1239": 247,
        "1240": 243,
        "1241": 168,
        "1242": 151,
        "1243": 252,
        "1244": 251,
        "1245": 136,
        "1246": 89,
        "1247": 130,
        "1248": 180,
        "1249": 6,
        "1250": 18,
        "1251": 22,
        "1252": 91,
        "1253": 99,
        "1254": 187,
        "1255": 216,
        "1256": 84,
        "1257": 126,
        "1258": 211,
        "1259": 174,
        "1260": 85,
        "1261": 125,
        "1262": 184,
        "1263": 99,
        "1264": 42,
        "1265": 116,
        "1266": 221,
        "1267": 167,
        "1268": 110,
        "1269": 120,
        "1270": 49,
        "1271": 223,
        "1272": 214,
        "1273": 226,
        "1274": 161,
        "1275": 215,
        "1276": 17,
        "1277": 225,
        "1278": 189,
        "1279": 70,
        "1280": 11,
        "1281": 138,
        "1282": 114,
        "1283": 105,
        "1284": 73,
        "1285": 116,
        "1286": 50,
        "1287": 71,
        "1288": 74,
        "1289": 21,
        "1290": 79,
        "1291": 121,
        "1292": 252,
        "1293": 48,
        "1294": 55,
        "1295": 9,
        "1296": 138,
        "1297": 124,
        "1298": 41,
        "1299": 189,
        "1300": 111,
        "1301": 5,
        "1302": 2,
        "1303": 100,
        "1304": 233,
        "1305": 205,
        "1306": 168,
        "1307": 129,
        "1308": 50,
        "1309": 179,
        "1310": 240,
        "1311": 99,
        "1312": 149,
        "1313": 75,
        "1314": 108,
        "1315": 153,
        "1316": 252,
        "1317": 195,
        "1318": 22,
        "1319": 158,
        "1320": 147,
        "1321": 180,
        "1322": 53,
        "1323": 150,
        "1324": 38,
        "1325": 149,
        "1326": 178,
        "1327": 64,
        "1328": 6,
        "1329": 113,
        "1330": 165,
        "1331": 240,
        "1332": 205,
        "1333": 46,
        "1334": 94,
        "1335": 178,
        "1336": 186,
        "1337": 110,
        "1338": 244,
        "1339": 85,
        "1340": 190,
        "1341": 76,
        "1342": 119,
        "1343": 244,
        "1344": 54,
        "1345": 66,
        "1346": 114,
        "1347": 83,
        "1348": 228,
        "1349": 185,
        "1350": 1,
        "1351": 229,
        "1352": 38,
        "1353": 45,
        "1354": 191,
        "1355": 207,
        "1356": 16,
        "1357": 73,
        "1358": 13,
        "1359": 64,
        "1360": 41,
        "1361": 36,
        "1362": 51,
        "1363": 164,
        "1364": 41,
        "1365": 117,
        "1366": 20,
        "1367": 101,
        "1368": 141,
        "1369": 168,
        "1370": 32,
        "1371": 179,
        "1372": 242,
        "1373": 146,
        "1374": 208,
        "1375": 227,
        "1376": 158,
        "1377": 153,
        "1378": 230,
        "1379": 71,
        "1380": 35,
        "1381": 171,
        "1382": 116,
        "1383": 245,
        "1384": 174,
        "1385": 20,
        "1386": 218,
        "1387": 132,
        "1388": 190,
        "1389": 136,
        "1390": 79,
        "1391": 178,
        "1392": 98,
        "1393": 58,
        "1394": 81,
        "1395": 231,
        "1396": 108,
        "1397": 245,
        "1398": 77,
        "1399": 159,
        "1400": 227,
        "1401": 134,
        "1402": 55,
        "1403": 132,
        "1404": 217,
        "1405": 127,
        "1406": 116,
        "1407": 160,
        "1408": 36,
        "1409": 63,
        "1410": 63,
        "1411": 35,
        "1412": 4,
        "1413": 65,
        "1414": 228,
        "1415": 244,
        "1416": 169,
        "1417": 237,
        "1418": 93,
        "1419": 103,
        "1420": 171,
        "1421": 88,
        "1422": 165,
        "1423": 49,
        "1424": 121,
        "1425": 226,
        "1426": 253,
        "1427": 219,
        "1428": 146,
        "1429": 38,
        "1430": 247,
        "1431": 48,
        "1432": 185,
        "1433": 204,
        "1434": 221,
        "1435": 220,
        "1436": 194,
        "1437": 199,
        "1438": 120,
        "1439": 192,
        "1440": 141,
        "1441": 206,
        "1442": 87,
        "1443": 153,
        "1444": 202,
        "1445": 89,
        "1446": 158,
        "1447": 26,
        "1448": 40,
        "1449": 211,
        "1450": 47,
        "1451": 162,
        "1452": 169,
        "1453": 255,
        "1454": 63,
        "1455": 231,
        "1456": 169,
        "1457": 136,
        "1458": 44,
        "1459": 173,
        "1460": 166,
        "1461": 204,
        "1462": 173,
        "1463": 6,
        "1464": 127,
        "1465": 30,
        "1466": 213,
        "1467": 238,
        "1468": 209,
        "1469": 140,
        "1470": 85,
        "1471": 128,
        "1472": 209,
        "1473": 15,
        "1474": 130,
        "1475": 71,
        "1476": 226,
        "1477": 148,
        "1478": 153,
        "1479": 35,
        "1480": 92,
        "1481": 66,
        "1482": 69,
        "1483": 127,
        "1484": 133,
        "1485": 90,
        "1486": 75,
        "1487": 134,
        "1488": 210,
        "1489": 101,
        "1490": 172,
        "1491": 203,
        "1492": 236,
        "1493": 206,
        "1494": 213,
        "1495": 165,
        "1496": 41,
        "1497": 20,
        "1498": 8,
        "1499": 246,
        "1500": 63,
        "1501": 118,
        "1502": 222,
        "1503": 213,
        "1504": 166,
        "1505": 123,
        "1506": 19,
        "1507": 164,
        "1508": 246,
        "1509": 108,
        "1510": 130,
        "1511": 103,
        "1512": 120,
        "1513": 60,
        "1514": 205,
        "1515": 60,
        "1516": 73,
        "1517": 205,
        "1518": 58,
        "1519": 244,
        "1520": 127,
        "1521": 159,
        "1522": 48,
        "1523": 58,
        "1524": 18,
        "1525": 84,
        "1526": 78,
        "1527": 51,
        "1528": 94,
        "1529": 128,
        "1530": 95,
        "1531": 11,
        "1532": 124,
        "1533": 242,
        "1534": 82,
        "1535": 66,
        "1536": 63,
        "1537": 121,
        "1538": 132,
        "1539": 221,
        "1540": 251,
        "1541": 33,
        "1542": 164,
        "1543": 72,
        "1544": 43,
        "1545": 18,
        "1546": 102,
        "1547": 25,
        "1548": 208,
        "1549": 9,
        "1550": 194,
        "1551": 29,
        "1552": 168,
        "1553": 214,
        "1554": 11,
        "1555": 191,
        "1556": 46,
        "1557": 24,
        "1558": 81,
        "1559": 224,
        "1560": 40,
        "1561": 153,
        "1562": 169,
        "1563": 42,
        "1564": 134,
        "1565": 123,
        "1566": 100,
        "1567": 108,
        "1568": 153,
        "1569": 140,
        "1570": 251,
        "1571": 239,
        "1572": 57,
        "1573": 233,
        "1574": 192,
        "1575": 76,
        "1576": 226,
        "1577": 113,
        "1578": 147,
        "1579": 189,
        "1580": 138,
        "1581": 7,
        "1582": 59,
        "1583": 137,
        "1584": 90,
        "1585": 159,
        "1586": 122,
        "1587": 200,
        "1588": 44,
        "1589": 247,
        "1590": 152,
        "1591": 42,
        "1592": 46,
        "1593": 242,
        "1594": 119,
        "1595": 162,
        "1596": 134,
        "1597": 9,
        "1598": 46,
        "1599": 73,
        "1600": 239,
        "1601": 21,
        "1602": 170,
        "1603": 59,
        "1604": 177,
        "1605": 46,
        "1606": 197,
        "1607": 222,
        "1608": 162,
        "1609": 81,
        "1610": 27,
        "1611": 241,
        "1612": 49,
        "1613": 7,
        "1614": 151,
        "1615": 133,
        "1616": 114,
        "1617": 247,
        "1618": 61,
        "1619": 141,
        "1620": 49,
        "1621": 58,
        "1622": 146,
        "1623": 196,
        "1624": 167,
        "1625": 251,
        "1626": 182,
        "1627": 69,
        "1628": 4,
        "1629": 173,
        "1630": 69,
        "1631": 105,
        "1632": 185,
        "1633": 115,
        "1634": 184,
        "1635": 199,
        "1636": 223,
        "1637": 202,
        "1638": 56,
        "1639": 20,
        "1640": 238,
        "1641": 232,
        "1642": 116,
        "1643": 0,
        "1644": 103,
        "1645": 237,
        "1646": 178,
        "1647": 248,
        "1648": 40,
        "1649": 123,
        "1650": 61,
        "1651": 151,
        "1652": 89,
        "1653": 98,
        "1654": 245,
        "1655": 106,
        "1656": 136,
        "1657": 185,
        "1658": 150,
        "1659": 236,
        "1660": 38,
        "1661": 103,
        "1662": 120,
        "1663": 90,
        "1664": 233,
        "1665": 223,
        "1666": 224,
        "1667": 151,
        "1668": 197,
        "1669": 200,
        "1670": 25,
        "1671": 131,
        "1672": 65,
        "1673": 93,
        "1674": 163,
        "1675": 145,
        "1676": 77,
        "1677": 14,
        "1678": 130,
        "1679": 61,
        "1680": 178,
        "1681": 90,
        "1682": 42,
        "1683": 124,
        "1684": 234,
        "1685": 96,
        "1686": 74,
        "1687": 105,
        "1688": 123,
        "1689": 244,
        "1690": 30,
        "1691": 136,
        "1692": 136,
        "1693": 248,
        "1694": 168,
        "1695": 221,
        "1696": 8,
        "1697": 235,
        "1698": 212,
        "1699": 64,
        "1700": 115,
        "1701": 211,
        "1702": 159,
        "1703": 26,
        "1704": 151,
        "1705": 29,
        "1706": 38,
        "1707": 41,
        "1708": 235,
        "1709": 48,
        "1710": 126,
        "1711": 167,
        "1712": 172,
        "1713": 168,
        "1714": 195,
        "1715": 30,
        "1716": 140,
        "1717": 82,
        "1718": 48,
        "1719": 128,
        "1720": 234,
        "1721": 158,
        "1722": 37,
        "1723": 116,
        "1724": 171,
        "1725": 207,
        "1726": 32,
        "1727": 237,
        "1728": 68,
        "1729": 53,
        "1730": 144,
        "1731": 255,
        "1732": 8,
        "1733": 225,
        "1734": 19,
        "1735": 91,
        "1736": 62,
        "1737": 135,
        "1738": 41,
        "1739": 69,
        "1740": 244,
        "1741": 211,
        "1742": 39,
        "1743": 161,
        "1744": 44,
        "1745": 39,
        "1746": 46,
        "1747": 84,
        "1748": 59,
        "1749": 209,
        "1750": 254,
        "1751": 215,
        "1752": 204,
        "1753": 27,
        "1754": 113,
        "1755": 175,
        "1756": 126,
        "1757": 220,
        "1758": 146,
        "1759": 134,
        "1760": 132,
        "1761": 36,
        "1762": 151,
        "1763": 213,
        "1764": 215,
        "1765": 146,
        "1766": 45,
        "1767": 244,
        "1768": 50,
        "1769": 210,
        "1770": 134,
        "1771": 43,
        "1772": 160,
        "1773": 139,
        "1774": 253,
        "1775": 70,
        "1776": 193,
        "1777": 173,
        "1778": 203,
        "1779": 145,
        "1780": 184,
        "1781": 179,
        "1782": 250,
        "1783": 112,
        "1784": 227,
        "1785": 197,
        "1786": 111,
        "1787": 213,
        "1788": 204,
        "1789": 14,
        "1790": 65,
        "1791": 98,
        "1792": 129,
        "1793": 145,
        "1794": 72,
        "1795": 62,
        "1796": 44,
        "1797": 108,
        "1798": 234,
        "1799": 7,
        "1800": 101,
        "1801": 83,
        "1802": 44,
        "1803": 237,
        "1804": 37,
        "1805": 246,
        "1806": 50,
        "1807": 121,
        "1808": 112,
        "1809": 221,
        "1810": 203,
        "1811": 145,
        "1812": 186,
        "1813": 189,
        "1814": 111,
        "1815": 66,
        "1816": 113,
        "1817": 86,
        "1818": 120,
        "1819": 110,
        "1820": 147,
        "1821": 130,
        "1822": 228,
        "1823": 195,
        "1824": 135,
        "1825": 183,
        "1826": 33,
        "1827": 254,
        "1828": 195,
        "1829": 235,
        "1830": 38,
        "1831": 108,
        "1832": 46,
        "1833": 4,
        "1834": 5,
        "1835": 91,
        "1836": 243,
        "1837": 103,
        "1838": 241,
        "1839": 68,
        "1840": 191,
        "1841": 26,
        "1842": 174,
        "1843": 21,
        "1844": 143,
        "1845": 142,
        "1846": 234,
        "1847": 116,
        "1848": 23,
        "1849": 116,
        "1850": 156,
        "1851": 179,
        "1852": 149,
        "1853": 215,
        "1854": 52,
        "1855": 66,
        "1856": 162,
        "1857": 151,
        "1858": 221,
        "1859": 31,
        "1860": 67,
        "1861": 18,
        "1862": 140,
        "1863": 162,
        "1864": 252,
        "1865": 162,
        "1866": 168,
        "1867": 20,
        "1868": 93,
        "1869": 163,
        "1870": 69,
        "1871": 210,
        "1872": 78,
        "1873": 74,
        "1874": 65,
        "1875": 44,
        "1876": 16,
        "1877": 219,
        "1878": 159,
        "1879": 46,
        "1880": 254,
        "1881": 165,
        "1882": 243,
        "1883": 241,
        "1884": 42,
        "1885": 170,
        "1886": 169,
        "1887": 113,
        "1888": 63,
        "1889": 159,
        "1890": 10,
        "1891": 181,
        "1892": 84,
        "1893": 191,
        "1894": 100,
        "1895": 107,
        "1896": 12,
        "1897": 228,
        "1898": 203,
        "1899": 168,
        "1900": 17,
        "1901": 245,
        "1902": 237,
        "1903": 15,
        "1904": 164,
        "1905": 113,
        "1906": 227,
        "1907": 117,
        "1908": 2,
        "1909": 126,
        "1910": 255,
        "1911": 249,
        "1912": 245,
        "1913": 194,
        "1914": 2,
        "1915": 167,
        "1916": 225,
        "1917": 97,
        "1918": 9,
        "1919": 140,
        "1920": 159,
        "1921": 220,
        "1922": 46,
        "1923": 101,
        "1924": 146,
        "1925": 160,
        "1926": 121,
        "1927": 240,
        "1928": 83,
        "1929": 160,
        "1930": 169,
        "1931": 239,
        "1932": 22,
        "1933": 210,
        "1934": 113,
        "1935": 243,
        "1936": 190,
        "1937": 183,
        "1938": 57,
        "1939": 175,
        "1940": 84,
        "1941": 192,
        "1942": 136,
        "1943": 63,
        "1944": 72,
        "1945": 161,
        "1946": 24,
        "1947": 218,
        "1948": 241,
        "1949": 233,
        "1950": 67,
        "1951": 230,
        "1952": 103,
        "1953": 81,
        "1954": 27,
        "1955": 52,
        "1956": 93,
        "1957": 196,
        "1958": 15,
        "1959": 4,
        "1960": 136,
        "1961": 97,
        "1962": 113,
        "1963": 185,
        "1964": 82,
        "1965": 229,
        "1966": 29,
        "1967": 20,
        "1968": 117,
        "1969": 19,
        "1970": 57,
        "1971": 107,
        "1972": 0,
        "1973": 74,
        "1974": 72,
        "1975": 207,
        "1976": 182,
        "1977": 242,
        "1978": 228,
        "1979": 144,
        "1980": 143,
        "1981": 81,
        "1982": 187,
        "1983": 130,
        "1984": 116,
        "1985": 249,
        "1986": 46,
        "1987": 135,
        "1988": 117,
        "1989": 159,
        "1990": 22,
        "1991": 64,
        "1992": 156,
        "1993": 57,
        "1994": 203,
        "1995": 237,
        "1996": 119,
        "1997": 78,
        "1998": 8,
        "1999": 65,
        "2000": 180,
        "2001": 91,
        "2002": 206,
        "2003": 218,
        "2004": 211,
        "2005": 165,
        "2006": 81,
        "2007": 94,
        "2008": 109,
        "2009": 179,
        "2010": 245,
        "2011": 127,
        "2012": 236,
        "2013": 140,
        "2014": 199,
        "2015": 36,
        "2016": 150,
        "2017": 160,
        "2018": 28,
        "2019": 67,
        "2020": 243,
        "2021": 99,
        "2022": 60,
        "2023": 12,
        "2024": 216,
        "2025": 246,
        "2026": 30,
        "2027": 0,
        "2028": 207,
        "2029": 47,
        "2030": 255,
        "2031": 232,
        "2032": 186,
        "2033": 108,
        "2034": 113,
        "2035": 21,
        "2036": 189,
        "2037": 47,
        "2038": 68,
        "2039": 139,
        "2040": 167,
        "2041": 89,
        "2042": 128,
        "2043": 83,
        "2044": 93,
        "2045": 217,
        "2046": 165,
        "2047": 234,
        "2048": 232,
        "2049": 231,
        "2050": 14,
        "2051": 159,
        "2052": 165,
        "2053": 173,
        "2054": 239,
        "2055": 234,
        "2056": 116,
        "2057": 92,
        "2058": 199,
        "2059": 215,
        "2060": 28,
        "2061": 186,
        "2062": 81,
        "2063": 13,
        "2064": 92,
        "2065": 70,
        "2066": 112,
        "2067": 83,
        "2068": 215,
        "2069": 54,
        "2070": 30,
        "2071": 206,
        "2072": 223,
        "2073": 135,
        "2074": 149,
        "2075": 50,
        "2076": 179,
        "2077": 154,
        "2078": 7,
        "2079": 116,
        "2080": 32,
        "2081": 211,
        "2082": 142,
        "2083": 43,
        "2084": 50,
        "2085": 72,
        "2086": 93,
        "2087": 133,
        "2088": 57,
        "2089": 132,
        "2090": 151,
        "2091": 136,
        "2092": 250,
        "2093": 65,
        "2094": 177,
        "2095": 196,
        "2096": 41,
        "2097": 193,
        "2098": 167,
        "2099": 229,
        "2100": 46,
        "2101": 142,
        "2102": 90,
        "2103": 136,
        "2104": 138,
        "2105": 185,
        "2106": 76,
        "2107": 204,
        "2108": 8,
        "2109": 181,
        "2110": 40,
        "2111": 53,
        "2112": 178,
        "2113": 177,
        "2114": 97,
        "2115": 244,
        "2116": 88,
        "2117": 71,
        "2118": 104,
        "2119": 71,
        "2120": 202,
        "2121": 147,
        "2122": 254,
        "2123": 253,
        "2124": 191,
        "2125": 30,
        "2126": 18,
        "2127": 173,
        "2128": 142,
        "2129": 166,
        "2130": 38,
        "2131": 76,
        "2132": 132,
        "2133": 47,
        "2134": 255,
        "2135": 172,
        "2136": 123,
        "2137": 18,
        "2138": 33,
        "2139": 228,
        "2140": 143,
        "2141": 202,
        "2142": 58,
        "2143": 207,
        "2144": 65,
        "2145": 58,
        "2146": 157,
        "2147": 37,
        "2148": 245,
        "2149": 137,
        "2150": 241,
        "2151": 198,
        "2152": 2,
        "2153": 66,
        "2154": 78,
        "2155": 35,
        "2156": 160,
        "2157": 107,
        "2158": 170,
        "2159": 72,
        "2160": 14,
        "2161": 133,
        "2162": 218,
        "2163": 223,
        "2164": 5,
        "2165": 106,
        "2166": 139,
        "2167": 58,
        "2168": 220,
        "2169": 246,
        "2170": 24,
        "2171": 16,
        "2172": 110,
        "2173": 133,
        "2174": 23,
        "2175": 20,
        "2176": 135,
        "2177": 0,
        "2178": 82,
        "2179": 114,
        "2180": 255,
        "2181": 127,
        "2182": 220,
        "2183": 49,
        "2184": 30,
        "2185": 172,
        "2186": 155,
        "2187": 118,
        "2188": 56,
        "2189": 76,
        "2190": 160,
        "2191": 91,
        "2192": 87,
        "2193": 186,
        "2194": 112,
        "2195": 170,
        "2196": 109,
        "2197": 95,
        "2198": 151,
        "2199": 121,
        "2200": 152,
        "2201": 250,
        "2202": 48,
        "2203": 71,
        "2204": 72,
        "2205": 98,
        "2206": 67,
        "2207": 78,
        "2208": 254,
        "2209": 28,
        "2210": 101,
        "2211": 173,
        "2212": 198,
        "2213": 41,
        "2214": 45,
        "2215": 251,
        "2216": 114,
        "2217": 68,
        "2218": 96,
        "2219": 140,
        "2220": 132,
        "2221": 143,
        "2222": 47,
        "2223": 117,
        "2224": 233,
        "2225": 139,
        "2226": 1,
        "2227": 195,
        "2228": 84,
        "2229": 174,
        "2230": 91,
        "2231": 81,
        "2232": 69,
        "2233": 193,
        "2234": 229,
        "2235": 11,
        "2236": 168,
        "2237": 3,
        "2238": 36,
        "2239": 224,
        "2240": 238,
        "2241": 154,
        "2242": 242,
        "2243": 144,
        "2244": 111,
        "2245": 39,
        "2246": 64,
        "2247": 130,
        "2248": 40,
        "2249": 63,
        "2250": 139,
        "2251": 250,
        "2252": 77,
        "2253": 146,
        "2254": 155,
        "2255": 63,
        "2256": 219,
        "2257": 36,
        "2258": 168,
        "2259": 34,
        "2260": 75,
        "2261": 217,
        "2262": 166,
        "2263": 77,
        "2264": 12,
        "2265": 178,
        "2266": 14,
        "2267": 217,
        "2268": 142,
        "2269": 162,
        "2270": 218,
        "2271": 219,
        "2272": 52,
        "2273": 87,
        "2274": 230,
        "2275": 43,
        "2276": 61,
        "2277": 79,
        "2278": 200,
        "2279": 4,
        "2280": 229,
        "2281": 51,
        "2282": 206,
        "2283": 207,
        "2284": 3,
        "2285": 151,
        "2286": 133,
        "2287": 205,
        "2288": 23,
        "2289": 87,
        "2290": 99,
        "2291": 125,
        "2292": 47,
        "2293": 82,
        "2294": 47,
        "2295": 11,
        "2296": 100,
        "2297": 39,
        "2298": 137,
        "2299": 12,
        "2300": 69,
        "2301": 199,
        "2302": 3,
        "2303": 109,
        "2304": 139,
        "2305": 188,
        "2306": 228,
        "2307": 235,
        "2308": 205,
        "2309": 105,
        "2310": 222,
        "2311": 14,
        "2312": 176,
        "2313": 36,
        "2314": 193,
        "2315": 166,
        "2316": 201,
        "2317": 242,
        "2318": 131,
        "2319": 56,
        "2320": 138,
        "2321": 220,
        "2322": 242,
        "2323": 46,
        "2324": 91,
        "2325": 123,
        "2326": 140,
        "2327": 1,
        "2328": 57,
        "2329": 220,
        "2330": 219,
        "2331": 152,
        "2332": 13,
        "2333": 235,
        "2334": 246,
        "2335": 200,
        "2336": 72,
        "2337": 88,
        "2338": 31,
        "2339": 187,
        "2340": 65,
        "2341": 49,
        "2342": 176,
        "2343": 231,
        "2344": 131,
        "2345": 25,
        "2346": 234,
        "2347": 49,
        "2348": 182,
        "2349": 116,
        "2350": 132,
        "2351": 168,
        "2352": 148,
        "2353": 165,
        "2354": 181,
        "2355": 9,
        "2356": 217,
        "2357": 148,
        "2358": 228,
        "2359": 215,
        "2360": 133,
        "2361": 226,
        "2362": 109,
        "2363": 143,
        "2364": 0,
        "2365": 1,
        "2366": 207,
        "2367": 114,
        "2368": 109,
        "2369": 133,
        "2370": 185,
        "2371": 243,
        "2372": 51,
        "2373": 99,
        "2374": 111,
        "2375": 233,
        "2376": 52,
        "2377": 15,
        "2378": 84,
        "2379": 236,
        "2380": 17,
        "2381": 90,
        "2382": 49,
        "2383": 81,
        "2384": 192,
        "2385": 75,
        "2386": 77,
        "2387": 87,
        "2388": 73,
        "2389": 196,
        "2390": 27,
        "2391": 18,
        "2392": 221,
        "2393": 179,
        "2394": 118,
        "2395": 14,
        "2396": 94,
        "2397": 97,
        "2398": 31,
        "2399": 126,
        "2400": 226,
        "2401": 104,
        "2402": 222,
        "2403": 226,
        "2404": 183,
        "2405": 112,
        "2406": 65,
        "2407": 135,
        "2408": 98,
        "2409": 201,
        "2410": 157,
        "2411": 43,
        "2412": 180,
        "2413": 135,
        "2414": 178,
        "2415": 127,
        "2416": 205,
        "2417": 21,
        "2418": 88,
        "2419": 93,
        "2420": 8,
        "2421": 242,
        "2422": 77,
        "2423": 53,
        "2424": 239,
        "2425": 73,
        "2426": 245,
        "2427": 44,
        "2428": 4,
        "2429": 84,
        "2430": 72,
        "2431": 91,
        "2432": 103,
        "2433": 63,
        "2434": 220,
        "2435": 65,
        "2436": 107,
        "2437": 184,
        "2438": 249,
        "2439": 38,
        "2440": 222,
        "2441": 234,
        "2442": 65,
        "2443": 184,
        "2444": 174,
        "2445": 181,
        "2446": 141,
        "2447": 167,
        "2448": 175,
        "2449": 12,
        "2450": 130,
        "2451": 207,
        "2452": 42,
        "2453": 57,
        "2454": 157,
        "2455": 165,
        "2456": 237,
        "2457": 224,
        "2458": 195,
        "2459": 201,
        "2460": 144,
        "2461": 108,
        "2462": 165,
        "2463": 37,
        "2464": 137,
        "2465": 104,
        "2466": 8,
        "2467": 96,
        "2468": 150,
        "2469": 192,
        "2470": 6,
        "2471": 124,
        "2472": 100,
        "2473": 84,
        "2474": 190,
        "2475": 3,
        "2476": 144,
        "2477": 233,
        "2478": 110,
        "2479": 81,
        "2480": 244,
        "2481": 59,
        "2482": 138,
        "2483": 69,
        "2484": 50,
        "2485": 185,
        "2486": 55,
        "2487": 253,
        "2488": 209,
        "2489": 219,
        "2490": 124,
        "2491": 127,
        "2492": 240,
        "2493": 61,
        "2494": 202,
        "2495": 48,
        "2496": 174,
        "2497": 205,
        "2498": 7,
        "2499": 95,
        "2500": 77,
        "2501": 113,
        "2502": 114,
        "2503": 181,
        "2504": 156,
        "2505": 246,
        "2506": 170,
        "2507": 14,
        "2508": 105,
        "2509": 248,
        "2510": 123,
        "2511": 149,
        "2512": 70,
        "2513": 97,
        "2514": 99,
        "2515": 38,
        "2516": 56,
        "2517": 247,
        "2518": 232,
        "2519": 148,
        "2520": 253,
        "2521": 62,
        "2522": 30,
        "2523": 182,
        "2524": 77,
        "2525": 253,
        "2526": 177,
        "2527": 82,
        "2528": 189,
        "2529": 150,
        "2530": 35,
        "2531": 112,
        "2532": 214,
        "2533": 119,
        "2534": 86,
        "2535": 214,
        "2536": 33,
        "2537": 192,
        "2538": 85,
        "2539": 5,
        "2540": 238,
        "2541": 135,
        "2542": 20,
        "2543": 11,
        "2544": 201,
        "2545": 241,
        "2546": 242,
        "2547": 49,
        "2548": 32,
        "2549": 130,
        "2550": 49,
        "2551": 34,
        "2552": 5,
        "2553": 154,
        "2554": 197,
        "2555": 39,
        "2556": 49,
        "2557": 107,
        "2558": 127,
        "2559": 136,
        "2560": 40,
        "2561": 186,
        "2562": 157,
        "2563": 114,
        "2564": 234,
        "2565": 181,
        "2566": 181,
        "2567": 86,
        "2568": 250,
        "2569": 117,
        "2570": 42,
        "2571": 137,
        "2572": 105,
        "2573": 11,
        "2574": 30,
        "2575": 180,
        "2576": 244,
        "2577": 179,
        "2578": 158,
        "2579": 161,
        "2580": 62,
        "2581": 77,
        "2582": 223,
        "2583": 95,
        "2584": 169,
        "2585": 115,
        "2586": 234,
        "2587": 1,
        "2588": 120,
        "2589": 115,
        "2590": 139,
        "2591": 97,
        "2592": 190,
        "2593": 23,
        "2594": 188,
        "2595": 158,
        "2596": 209,
        "2597": 105,
        "2598": 40,
        "2599": 60,
        "2600": 240,
        "2601": 20,
        "2602": 163,
        "2603": 214,
        "2604": 207,
        "2605": 179,
        "2606": 15,
        "2607": 176,
        "2608": 3,
        "2609": 162,
        "2610": 244,
        "2611": 167,
        "2612": 38,
        "2613": 20,
        "2614": 85,
        "2615": 175,
        "2616": 102,
        "2617": 35,
        "2618": 189,
        "2619": 221,
        "2620": 193,
        "2621": 117,
        "2622": 19,
        "2623": 92,
        "2624": 253,
        "2625": 207,
        "2626": 102,
        "2627": 154,
        "2628": 85,
        "2629": 114,
        "2630": 46,
        "2631": 251,
        "2632": 128,
        "2633": 69,
        "2634": 7,
        "2635": 155,
        "2636": 33,
        "2637": 64,
        "2638": 122,
        "2639": 127,
        "2640": 163,
        "2641": 47,
        "2642": 150,
        "2643": 182,
        "2644": 102,
        "2645": 22,
        "2646": 95,
        "2647": 183,
        "2648": 127,
        "2649": 119,
        "2650": 74,
        "2651": 78,
        "2652": 21,
        "2653": 245,
        "2654": 86,
        "2655": 199,
        "2656": 113,
        "2657": 41,
        "2658": 145,
        "2659": 1,
        "2660": 127,
        "2661": 107,
        "2662": 93,
        "2663": 178,
        "2664": 175,
        "2665": 82,
        "2666": 53,
        "2667": 50,
        "2668": 239,
        "2669": 223,
        "2670": 253,
        "2671": 53,
        "2672": 204,
        "2673": 122,
        "2674": 221,
        "2675": 152,
        "2676": 84,
        "2677": 53,
        "2678": 248,
        "2679": 63,
        "2680": 18,
        "2681": 246,
        "2682": 181,
        "2683": 248,
        "2684": 208,
        "2685": 203,
        "2686": 31,
        "2687": 161,
        "2688": 45,
        "2689": 246,
        "2690": 62,
        "2691": 251,
        "2692": 140,
        "2693": 204,
        "2694": 89,
        "2695": 125,
        "2696": 176,
        "2697": 244,
        "2698": 4,
        "2699": 15,
        "2700": 29,
        "2701": 167,
        "2702": 60,
        "2703": 134,
        "2704": 194,
        "2705": 129,
        "2706": 196,
        "2707": 187,
        "2708": 17,
        "2709": 147,
        "2710": 115,
        "2711": 87,
        "2712": 252,
        "2713": 66,
        "2714": 241,
        "2715": 217,
        "2716": 226,
        "2717": 101,
        "2718": 137,
        "2719": 112,
        "2720": 248,
        "2721": 207,
        "2722": 117,
        "2723": 88,
        "2724": 15,
        "2725": 198,
        "2726": 29,
        "2727": 185,
        "2728": 183,
        "2729": 46,
        "2730": 93,
        "2731": 214,
        "2732": 194,
        "2733": 153,
        "2734": 120,
        "2735": 43,
        "2736": 229,
        "2737": 130,
        "2738": 185,
        "2739": 176,
        "2740": 192,
        "2741": 240,
        "2742": 114,
        "2743": 208,
        "2744": 92,
        "2745": 34,
        "2746": 122,
        "2747": 63,
        "2748": 133,
        "2749": 163,
        "2750": 209,
        "2751": 240,
        "2752": 6,
        "2753": 141,
        "2754": 41,
        "2755": 95,
        "2756": 182,
        "2757": 51,
        "2758": 181,
        "2759": 169,
        "2760": 130,
        "2761": 53,
        "2762": 199,
        "2763": 236,
        "2764": 148,
        "2765": 93,
        "2766": 163,
        "2767": 147,
        "2768": 32,
        "2769": 162,
        "2770": 46,
        "2771": 249,
        "2772": 236,
        "2773": 55,
        "2774": 142,
        "2775": 91,
        "2776": 51,
        "2777": 195,
        "2778": 96,
        "2779": 156,
        "2780": 242,
        "2781": 157,
        "2782": 44,
        "2783": 135,
        "2784": 86,
        "2785": 115,
        "2786": 154,
        "2787": 71,
        "2788": 10,
        "2789": 105,
        "2790": 204,
        "2791": 34,
        "2792": 38,
        "2793": 199,
        "2794": 3,
        "2795": 93,
        "2796": 75,
        "2797": 174,
        "2798": 202,
        "2799": 38,
        "2800": 108,
        "2801": 25,
        "2802": 36,
        "2803": 88,
        "2804": 164,
        "2805": 153,
        "2806": 71,
        "2807": 4,
        "2808": 57,
        "2809": 58,
        "2810": 228,
        "2811": 96,
        "2812": 22,
        "2813": 243,
        "2814": 244,
        "2815": 153,
        "2816": 202,
        "2817": 185,
        "2818": 192,
        "2819": 168,
        "2820": 29,
        "2821": 154,
        "2822": 173,
        "2823": 85,
        "2824": 35,
        "2825": 138,
        "2826": 220,
        "2827": 119,
        "2828": 38,
        "2829": 198,
        "2830": 97,
        "2831": 3,
        "2832": 125,
        "2833": 216,
        "2834": 221,
        "2835": 54,
        "2836": 22,
        "2837": 39,
        "2838": 61,
        "2839": 159,
        "2840": 221,
        "2841": 128,
        "2842": 49,
        "2843": 173,
        "2844": 17,
        "2845": 207,
        "2846": 146,
        "2847": 13,
        "2848": 141,
        "2849": 50,
        "2850": 213,
        "2851": 187,
        "2852": 102,
        "2853": 160,
        "2854": 55,
        "2855": 112,
        "2856": 170,
        "2857": 193,
        "2858": 134,
        "2859": 113,
        "2860": 109,
        "2861": 184,
        "2862": 189,
        "2863": 117,
        "2864": 71,
        "2865": 14,
        "2866": 57,
        "2867": 121,
        "2868": 163,
        "2869": 123,
        "2870": 102,
        "2871": 58,
        "2872": 236,
        "2873": 233,
        "2874": 218,
        "2875": 38,
        "2876": 166,
        "2877": 224,
        "2878": 16,
        "2879": 81,
        "2880": 195,
        "2881": 72,
        "2882": 108,
        "2883": 215,
        "2884": 10,
        "2885": 186,
        "2886": 116,
        "2887": 85,
        "2888": 238,
        "2889": 203,
        "2890": 186,
        "2891": 110,
        "2892": 245,
        "2893": 211,
        "2894": 29,
        "2895": 86,
        "2896": 55,
        "2897": 189,
        "2898": 165,
        "2899": 202,
        "2900": 61,
        "2901": 68,
        "2902": 10,
        "2903": 127,
        "2904": 24,
        "2905": 249,
        "2906": 98,
        "2907": 191,
        "2908": 190,
        "2909": 107,
        "2910": 92,
        "2911": 154,
        "2912": 209,
        "2913": 162,
        "2914": 218,
        "2915": 21,
        "2916": 77,
        "2917": 77,
        "2918": 9,
        "2919": 236,
        "2920": 17,
        "2921": 142,
        "2922": 214,
        "2923": 234,
        "2924": 64,
        "2925": 20,
        "2926": 16,
        "2927": 91,
        "2928": 119,
        "2929": 189,
        "2930": 158,
        "2931": 13,
        "2932": 19,
        "2933": 114,
        "2934": 248,
        "2935": 236,
        "2936": 153,
        "2937": 3,
        "2938": 236,
        "2939": 167,
        "2940": 86,
        "2941": 232,
        "2942": 73,
        "2943": 206,
        "2944": 155,
        "2945": 168,
        "2946": 67,
        "2947": 116,
        "2948": 91,
        "2949": 161,
        "2950": 207,
        "2951": 43,
        "2952": 99,
        "2953": 237,
        "2954": 2,
        "2955": 235,
        "2956": 21,
        "2957": 138,
        "2958": 103,
        "2959": 176,
        "2960": 225,
        "2961": 65,
        "2962": 59,
        "2963": 75,
        "2964": 174,
        "2965": 167,
        "2966": 1,
        "2967": 136,
        "2968": 171,
        "2969": 165,
        "2970": 169,
        "2971": 45,
        "2972": 145,
        "2973": 224,
        "2974": 171,
        "2975": 135,
        "2976": 80,
        "2977": 170,
        "2978": 157,
        "2979": 186,
        "2980": 125,
        "2981": 87,
        "2982": 74,
        "2983": 115,
        "2984": 212,
        "2985": 146,
        "2986": 159,
        "2987": 211,
        "2988": 170,
        "2989": 1,
        "2990": 68,
        "2991": 226,
        "2992": 159,
        "2993": 144,
        "2994": 61,
        "2995": 42,
        "2996": 200,
        "2997": 13,
        "2998": 151,
        "2999": 100,
        "3000": 15,
        "3001": 189,
        "3002": 226,
        "3003": 120,
        "3004": 14,
        "3005": 188,
        "3006": 197,
        "3007": 245,
        "3008": 131,
        "3009": 32,
        "3010": 9,
        "3011": 78,
        "3012": 132,
        "3013": 86,
        "3014": 236,
        "3015": 82,
        "3016": 93,
        "3017": 254,
        "3018": 143,
        "3019": 108,
        "3020": 133,
        "3021": 58,
        "3022": 232,
        "3023": 198,
        "3024": 51,
        "3025": 217,
        "3026": 29,
        "3027": 205,
        "3028": 139,
        "3029": 174,
        "3030": 101,
        "3031": 109,
        "3032": 243,
        "3033": 64,
        "3034": 89,
        "3035": 166,
        "3036": 135,
        "3037": 177,
        "3038": 124,
        "3039": 89,
        "3040": 220,
        "3041": 106,
        "3042": 155,
        "3043": 16,
        "3044": 252,
        "3045": 13,
        "3046": 191,
        "3047": 194,
        "3048": 194,
        "3049": 47,
        "3050": 179,
        "3051": 175,
        "3052": 68,
        "3053": 238,
        "3054": 149,
        "3055": 40,
        "3056": 77,
        "3057": 153,
        "3058": 54,
        "3059": 19,
        "3060": 1,
        "3061": 1,
        "3062": 53,
        "3063": 44,
        "3064": 109,
        "3065": 164,
        "3066": 205,
        "3067": 125,
        "3068": 58,
        "3069": 68,
        "3070": 209,
        "3071": 135,
        "3072": 35,
        "3073": 212,
        "3074": 90,
        "3075": 208,
        "3076": 211,
        "3077": 236,
        "3078": 93,
        "3079": 27,
        "3080": 40,
        "3081": 225,
        "3082": 235,
        "3083": 149,
        "3084": 210,
        "3085": 93,
        "3086": 90,
        "3087": 78,
        "3088": 66,
        "3089": 135,
        "3090": 100,
        "3091": 127,
        "3092": 95,
        "3093": 176,
        "3094": 110,
        "3095": 250,
        "3096": 163,
        "3097": 63,
        "3098": 71,
        "3099": 249,
        "3100": 53,
        "3101": 12,
        "3102": 22,
        "3103": 36,
        "3104": 116,
        "3105": 26,
        "3106": 239,
        "3107": 248,
        "3108": 208,
        "3109": 23,
        "3110": 249,
        "3111": 10,
        "3112": 213,
        "3113": 240,
        "3114": 182,
        "3115": 188,
        "3116": 5,
        "3117": 147,
        "3118": 79,
        "3119": 55,
        "3120": 243,
        "3121": 181,
        "3122": 243,
        "3123": 157,
        "3124": 156,
        "3125": 53,
        "3126": 206,
        "3127": 87,
        "3128": 248,
        "3129": 170,
        "3130": 71,
        "3131": 139,
        "3132": 225,
        "3133": 205,
        "3134": 10,
        "3135": 12,
        "3136": 152,
        "3137": 68,
        "3138": 11,
        "3139": 180,
        "3140": 15,
        "3141": 194,
        "3142": 87,
        "3143": 123,
        "3144": 133,
        "3145": 116,
        "3146": 95,
        "3147": 12,
        "3148": 231,
        "3149": 103,
        "3150": 33,
        "3151": 49,
        "3152": 230,
        "3153": 242,
        "3154": 253,
        "3155": 228,
        "3156": 74,
        "3157": 9,
        "3158": 177,
        "3159": 37,
        "3160": 84,
        "3161": 172,
        "3162": 206,
        "3163": 120,
        "3164": 141,
        "3165": 62,
        "3166": 63,
        "3167": 241,
        "3168": 237,
        "3169": 179,
        "3170": 229,
        "3171": 132,
        "3172": 144,
        "3173": 192,
        "3174": 184,
        "3175": 145,
        "3176": 104,
        "3177": 255,
        "3178": 240,
        "3179": 115,
        "3180": 116,
        "3181": 69,
        "3182": 98,
        "3183": 52,
        "3184": 117,
        "3185": 111,
        "3186": 94,
        "3187": 65,
        "3188": 15,
        "3189": 124,
        "3190": 255,
        "3191": 196,
        "3192": 150,
        "3193": 212,
        "3194": 12,
        "3195": 84,
        "3196": 85,
        "3197": 172,
        "3198": 242,
        "3199": 160,
        "3200": 221,
        "3201": 166,
        "3202": 205,
        "3203": 9,
        "3204": 82,
        "3205": 255,
        "3206": 195,
        "3207": 48,
        "3208": 102,
        "3209": 99,
        "3210": 57,
        "3211": 147,
        "3212": 132,
        "3213": 151,
        "3214": 158,
        "3215": 179,
        "3216": 181,
        "3217": 217,
        "3218": 177,
        "3219": 82,
        "3220": 119,
        "3221": 205,
        "3222": 48,
        "3223": 109,
        "3224": 137,
        "3225": 37,
        "3226": 41,
        "3227": 101,
        "3228": 156,
        "3229": 188,
        "3230": 255,
        "3231": 100,
        "3232": 128,
        "3233": 107,
        "3234": 109,
        "3235": 38,
        "3236": 182,
        "3237": 63,
        "3238": 123,
        "3239": 22,
        "3240": 205,
        "3241": 217,
        "3242": 112,
        "3243": 181,
        "3244": 21,
        "3245": 57,
        "3246": 69,
        "3247": 109,
        "3248": 35,
        "3249": 210,
        "3250": 83,
        "3251": 98,
        "3252": 178,
        "3253": 90,
        "3254": 91,
        "3255": 239,
        "3256": 128,
        "3257": 24,
        "3258": 178,
        "3259": 7,
        "3260": 166,
        "3261": 5,
        "3262": 177,
        "3263": 80,
        "3264": 58,
        "3265": 202,
        "3266": 29,
        "3267": 4,
        "3268": 26,
        "3269": 230,
        "3270": 11,
        "3271": 2,
        "3272": 47,
        "3273": 169,
        "3274": 71,
        "3275": 233,
        "3276": 100,
        "3277": 143,
        "3278": 103,
        "3279": 85,
        "3280": 58,
        "3281": 142,
        "3282": 108,
        "3283": 250,
        "3284": 107,
        "3285": 212,
        "3286": 23,
        "3287": 43,
        "3288": 50,
        "3289": 118,
        "3290": 101,
        "3291": 124,
        "3292": 172,
        "3293": 182,
        "3294": 45,
        "3295": 111,
        "3296": 110,
        "3297": 249,
        "3298": 20,
        "3299": 26,
        "3300": 20,
        "3301": 90,
        "3302": 95,
        "3303": 247,
        "3304": 181,
        "3305": 106,
        "3306": 153,
        "3307": 32,
        "3308": 217,
        "3309": 157,
        "3310": 110,
        "3311": 219,
        "3312": 98,
        "3313": 201,
        "3314": 220,
        "3315": 192,
        "3316": 188,
        "3317": 50,
        "3318": 250,
        "3319": 49,
        "3320": 135,
        "3321": 57,
        "3322": 204,
        "3323": 192,
        "3324": 91,
        "3325": 151,
        "3326": 242,
        "3327": 252,
        "3328": 158,
        "3329": 195,
        "3330": 239,
        "3331": 239,
        "3332": 167,
        "3333": 30,
        "3334": 216,
        "3335": 55,
        "3336": 245,
        "3337": 25,
        "3338": 21,
        "3339": 158,
        "3340": 157,
        "3341": 192,
        "3342": 217,
        "3343": 55,
        "3344": 97,
        "3345": 81,
        "3346": 69,
        "3347": 128,
        "3348": 167,
        "3349": 58,
        "3350": 207,
        "3351": 183,
        "3352": 131,
        "3353": 72,
        "3354": 164,
        "3355": 60,
        "3356": 199,
        "3357": 33,
        "3358": 251,
        "3359": 93,
        "3360": 107,
        "3361": 85,
        "3362": 203,
        "3363": 249,
        "3364": 119,
        "3365": 231,
        "3366": 88,
        "3367": 140,
        "3368": 186,
        "3369": 140,
        "3370": 140,
        "3371": 97,
        "3372": 156,
        "3373": 235,
        "3374": 154,
        "3375": 22,
        "3376": 230,
        "3377": 178,
        "3378": 95,
        "3379": 72,
        "3380": 227,
        "3381": 217,
        "3382": 62,
        "3383": 254,
        "3384": 246,
        "3385": 43,
        "3386": 31,
        "3387": 215,
        "3388": 238,
        "3389": 100,
        "3390": 53,
        "3391": 135,
        "3392": 55,
        "3393": 90,
        "3394": 55,
        "3395": 100,
        "3396": 108,
        "3397": 251,
        "3398": 22,
        "3399": 26,
        "3400": 124,
        "3401": 23,
        "3402": 241,
        "3403": 121,
        "3404": 203,
        "3405": 208,
        "3406": 200,
        "3407": 199,
        "3408": 172,
        "3409": 145,
        "3410": 209,
        "3411": 220,
        "3412": 80,
        "3413": 96,
        "3414": 185,
        "3415": 163,
        "3416": 103,
        "3417": 72,
        "3418": 194,
        "3419": 32,
        "3420": 133,
        "3421": 143,
        "3422": 96,
        "3423": 134,
        "3424": 70,
        "3425": 13,
        "3426": 10,
        "3427": 214,
        "3428": 31,
        "3429": 95,
        "3430": 70,
        "3431": 1,
        "3432": 25,
        "3433": 114,
        "3434": 137,
        "3435": 59,
        "3436": 140,
        "3437": 147,
        "3438": 119,
        "3439": 143,
        "3440": 229,
        "3441": 85,
        "3442": 209,
        "3443": 216,
        "3444": 94,
        "3445": 7,
        "3446": 147,
        "3447": 171,
        "3448": 31,
        "3449": 111,
        "3450": 167,
        "3451": 8,
        "3452": 221,
        "3453": 150,
        "3454": 100,
        "3455": 93,
        "3456": 177,
        "3457": 154,
        "3458": 102,
        "3459": 14,
        "3460": 210,
        "3461": 210,
        "3462": 114,
        "3463": 50,
        "3464": 249,
        "3465": 162,
        "3466": 93,
        "3467": 15,
        "3468": 112,
        "3469": 89,
        "3470": 70,
        "3471": 79,
        "3472": 20,
        "3473": 146,
        "3474": 33,
        "3475": 177,
        "3476": 59,
        "3477": 162,
        "3478": 243,
        "3479": 222,
        "3480": 168,
        "3481": 123,
        "3482": 250,
        "3483": 187,
        "3484": 195,
        "3485": 132,
        "3486": 216,
        "3487": 100,
        "3488": 132,
        "3489": 39,
        "3490": 175,
        "3491": 131,
        "3492": 95,
        "3493": 95,
        "3494": 27,
        "3495": 193,
        "3496": 141,
        "3497": 59,
        "3498": 144,
        "3499": 108,
        "3500": 225,
        "3501": 15,
        "3502": 69,
        "3503": 254,
        "3504": 242,
        "3505": 211,
        "3506": 205,
        "3507": 51,
        "3508": 204,
        "3509": 138,
        "3510": 16,
        "3511": 123,
        "3512": 107,
        "3513": 254,
        "3514": 111,
        "3515": 127,
        "3516": 18,
        "3517": 114,
        "3518": 74,
        "3519": 246,
        "3520": 70,
        "3521": 71,
        "3522": 26,
        "3523": 15,
        "3524": 140,
        "3525": 205,
        "3526": 158,
        "3527": 228,
        "3528": 17,
        "3529": 208,
        "3530": 60,
        "3531": 237,
        "3532": 58,
        "3533": 159,
        "3534": 198,
        "3535": 255,
        "3536": 87,
        "3537": 173,
        "3538": 5,
        "3539": 236,
        "3540": 186,
        "3541": 93,
        "3542": 108,
        "3543": 221,
        "3544": 38,
        "3545": 240,
        "3546": 60,
        "3547": 235,
        "3548": 176,
        "3549": 62,
        "3550": 137,
        "3551": 210,
        "3552": 189,
        "3553": 206,
        "3554": 215,
        "3555": 215,
        "3556": 243,
        "3557": 135,
        "3558": 124,
        "3559": 105,
        "3560": 71,
        "3561": 112,
        "3562": 238,
        "3563": 241,
        "3564": 157,
        "3565": 153,
        "3566": 224,
        "3567": 189,
        "3568": 80,
        "3569": 7,
        "3570": 53,
        "3571": 32,
        "3572": 49,
        "3573": 102,
        "3574": 241,
        "3575": 193,
        "3576": 20,
        "3577": 210,
        "3578": 8,
        "3579": 203,
        "3580": 242,
        "3581": 120,
        "3582": 58,
        "3583": 194,
        "3584": 186,
        "3585": 72,
        "3586": 236,
        "3587": 102,
        "3588": 176,
        "3589": 81,
        "3590": 57,
        "3591": 212,
        "3592": 3,
        "3593": 26,
        "3594": 179,
        "3595": 232,
        "3596": 206,
        "3597": 171,
        "3598": 67,
        "3599": 255,
        "3600": 70,
        "3601": 117,
        "3602": 63,
        "3603": 101,
        "3604": 92,
        "3605": 80,
        "3606": 16,
        "3607": 159,
        "3608": 135,
        "3609": 36,
        "3610": 225,
        "3611": 76,
        "3612": 154,
        "3613": 40,
        "3614": 235,
        "3615": 229,
        "3616": 145,
        "3617": 56,
        "3618": 206,
        "3619": 72,
        "3620": 249,
        "3621": 112,
        "3622": 45,
        "3623": 15,
        "3624": 232,
        "3625": 16,
        "3626": 39,
        "3627": 16,
        "3628": 241,
        "3629": 65,
        "3630": 165,
        "3631": 44,
        "3632": 29,
        "3633": 45,
        "3634": 4,
        "3635": 251,
        "3636": 241,
        "3637": 226,
        "3638": 178,
        "3639": 96,
        "3640": 23,
        "3641": 251,
        "3642": 227,
        "3643": 42,
        "3644": 51,
        "3645": 216,
        "3646": 122,
        "3647": 238,
        "3648": 194,
        "3649": 171,
        "3650": 39,
        "3651": 24,
        "3652": 198,
        "3653": 76,
        "3654": 208,
        "3655": 28,
        "3656": 131,
        "3657": 172,
        "3658": 33,
        "3659": 41,
        "3660": 16,
        "3661": 182,
        "3662": 87,
        "3663": 234,
        "3664": 218,
        "3665": 204,
        "3666": 187,
        "3667": 74,
        "3668": 114,
        "3669": 195,
        "3670": 193,
        "3671": 147,
        "3672": 75,
        "3673": 21,
        "3674": 32,
        "3675": 221,
        "3676": 175,
        "3677": 35,
        "3678": 200,
        "3679": 21,
        "3680": 74,
        "3681": 139,
        "3682": 159,
        "3683": 244,
        "3684": 172,
        "3685": 59,
        "3686": 14,
        "3687": 212,
        "3688": 33,
        "3689": 15,
        "3690": 155,
        "3691": 22,
        "3692": 72,
        "3693": 227,
        "3694": 64,
        "3695": 253,
        "3696": 74,
        "3697": 112,
        "3698": 180,
        "3699": 138,
        "3700": 229,
        "3701": 134,
        "3702": 132,
        "3703": 46,
        "3704": 130,
        "3705": 0,
        "3706": 188,
        "3707": 11,
        "3708": 209,
        "3709": 232,
        "3710": 241,
        "3711": 128,
        "3712": 246,
        "3713": 102,
        "3714": 103,
        "3715": 49,
        "3716": 150,
        "3717": 116,
        "3718": 244,
        "3719": 196,
        "3720": 215,
        "3721": 32,
        "3722": 94,
        "3723": 140,
        "3724": 191,
        "3725": 164,
        "3726": 120,
        "3727": 200,
        "3728": 252,
        "3729": 135,
        "3730": 15,
        "3731": 35,
        "3732": 193,
        "3733": 132,
        "3734": 92,
        "3735": 22,
        "3736": 118,
        "3737": 64,
        "3738": 160,
        "3739": 201,
        "3740": 83,
        "3741": 255,
        "3742": 36,
        "3743": 143,
        "3744": 130,
        "3745": 72,
        "3746": 33,
        "3747": 135,
        "3748": 235,
        "3749": 44,
        "3750": 87,
        "3751": 14,
        "3752": 215,
        "3753": 80,
        "3754": 69,
        "3755": 31,
        "3756": 68,
        "3757": 18,
        "3758": 56,
        "3759": 76,
        "3760": 247,
        "3761": 38,
        "3762": 69,
        "3763": 117,
        "3764": 193,
        "3765": 30,
        "3766": 237,
        "3767": 38,
        "3768": 43,
        "3769": 70,
        "3770": 251,
        "3771": 100,
        "3772": 1,
        "3773": 107,
        "3774": 80,
        "3775": 157,
        "3776": 195,
        "3777": 111,
        "3778": 176,
        "3779": 68,
        "3780": 106,
        "3781": 113,
        "3782": 1,
        "3783": 26,
        "3784": 107,
        "3785": 71,
        "3786": 100,
        "3787": 127,
        "3788": 64,
        "3789": 109,
        "3790": 217,
        "3791": 136,
        "3792": 251,
        "3793": 173,
        "3794": 250,
        "3795": 35,
        "3796": 127,
        "3797": 76,
        "3798": 201,
        "3799": 75,
        "3800": 192,
        "3801": 86,
        "3802": 25,
        "3803": 184,
        "3804": 202,
        "3805": 26,
        "3806": 139,
        "3807": 36,
        "3808": 115,
        "3809": 180,
        "3810": 72,
        "3811": 245,
        "3812": 13,
        "3813": 160,
        "3814": 5,
        "3815": 118,
        "3816": 44,
        "3817": 113,
        "3818": 227,
        "3819": 5,
        "3820": 44,
        "3821": 127,
        "3822": 57,
        "3823": 38,
        "3824": 148,
        "3825": 55,
        "3826": 53,
        "3827": 242,
        "3828": 132,
        "3829": 135,
        "3830": 208,
        "3831": 228,
        "3832": 31,
        "3833": 100,
        "3834": 223,
        "3835": 245,
        "3836": 114,
        "3837": 148,
        "3838": 92,
        "3839": 120,
        "3840": 15,
        "3841": 168,
        "3842": 206,
        "3843": 168,
        "3844": 20,
        "3845": 31,
        "3846": 188,
        "3847": 219,
        "3848": 180,
        "3849": 248,
        "3850": 103,
        "3851": 247,
        "3852": 165,
        "3853": 63,
        "3854": 25,
        "3855": 15,
        "3856": 66,
        "3857": 91,
        "3858": 218,
        "3859": 191,
        "3860": 245,
        "3861": 20,
        "3862": 19,
        "3863": 180,
        "3864": 72,
        "3865": 26,
        "3866": 93,
        "3867": 82,
        "3868": 37,
        "3869": 226,
        "3870": 78,
        "3871": 133,
        "3872": 70,
        "3873": 172,
        "3874": 0,
        "3875": 246,
        "3876": 131,
        "3877": 212,
        "3878": 130,
        "3879": 104,
        "3880": 168,
        "3881": 107,
        "3882": 183,
        "3883": 191,
        "3884": 185,
        "3885": 78,
        "3886": 180,
        "3887": 39,
        "3888": 213,
        "3889": 117,
        "3890": 235,
        "3891": 27,
        "3892": 117,
        "3893": 175,
        "3894": 49,
        "3895": 192,
        "3896": 93,
        "3897": 90,
        "3898": 39,
        "3899": 139,
        "3900": 172,
        "3901": 250,
        "3902": 83,
        "3903": 4,
        "3904": 104,
        "3905": 23,
        "3906": 44,
        "3907": 69,
        "3908": 181,
        "3909": 226,
        "3910": 222,
        "3911": 85,
        "3912": 97,
        "3913": 75,
        "3914": 100,
        "3915": 210,
        "3916": 39,
        "3917": 120,
        "3918": 97,
        "3919": 176,
        "3920": 93,
        "3921": 109,
        "3922": 133,
        "3923": 178,
        "3924": 160,
        "3925": 163,
        "3926": 142,
        "3927": 48,
        "3928": 38,
        "3929": 39,
        "3930": 83,
        "3931": 165,
        "3932": 193,
        "3933": 126,
        "3934": 53,
        "3935": 183,
        "3936": 175,
        "3937": 90,
        "3938": 137,
        "3939": 91,
        "3940": 254,
        "3941": 96,
        "3942": 149,
        "3943": 152,
        "3944": 174,
        "3945": 19,
        "3946": 131,
        "3947": 70,
        "3948": 109,
        "3949": 244,
        "3950": 130,
        "3951": 159,
        "3952": 40,
        "3953": 99,
        "3954": 77,
        "3955": 177,
        "3956": 209,
        "3957": 88,
        "3958": 136,
        "3959": 128,
        "3960": 245,
        "3961": 74,
        "3962": 125,
        "3963": 115,
        "3964": 133,
        "3965": 241,
        "3966": 164,
        "3967": 190,
        "3968": 143,
        "3969": 230,
        "3970": 117,
        "3971": 30,
        "3972": 117,
        "3973": 62,
        "3974": 66,
        "3975": 117,
        "3976": 153,
        "3977": 179,
        "3978": 134,
        "3979": 57,
        "3980": 63,
        "3981": 113,
        "3982": 72,
        "3983": 228,
        "3984": 151,
        "3985": 50,
        "3986": 201,
        "3987": 165,
        "3988": 33,
        "3989": 221,
        "3990": 104,
        "3991": 7,
        "3992": 192,
        "3993": 237,
        "3994": 127,
        "3995": 213,
        "3996": 122,
        "3997": 142,
        "3998": 113,
        "3999": 5,
        "4000": 201,
        "4001": 146,
        "4002": 243,
        "4003": 212,
        "4004": 250,
        "4005": 5,
        "4006": 103,
        "4007": 187,
        "4008": 88,
        "4009": 199,
        "4010": 107,
        "4011": 74,
        "4012": 237,
        "4013": 255,
        "4014": 255,
        "4015": 228,
        "4016": 249,
        "4017": 7,
        "4018": 215,
        "4019": 232,
        "4020": 79,
        "4021": 13,
        "4022": 130,
        "4023": 166,
        "4024": 86,
        "4025": 157,
        "4026": 158,
        "4027": 34,
        "4028": 13,
        "4029": 114,
        "4030": 55,
        "4031": 37,
        "4032": 117,
        "4033": 42,
        "4034": 218,
        "4035": 197,
        "4036": 227,
        "4037": 205,
        "4038": 111,
        "4039": 154,
        "4040": 21,
        "4041": 165,
        "4042": 71,
        "4043": 93,
        "4044": 35,
        "4045": 28,
        "4046": 111,
        "4047": 233,
        "4048": 65,
        "4049": 76,
        "4050": 149,
        "4051": 41,
        "4052": 191,
        "4053": 239,
        "4054": 207,
        "4055": 13,
        "4056": 64,
        "4057": 113,
        "4058": 124,
        "4059": 21,
        "4060": 179,
        "4061": 226,
        "4062": 27,
        "4063": 1,
        "4064": 243,
        "4065": 140,
        "4066": 233,
        "4067": 142,
        "4068": 139,
        "4069": 195,
        "4070": 43,
        "4071": 234,
        "4072": 40,
        "4073": 101,
        "4074": 151,
        "4075": 250,
        "4076": 190,
        "4077": 250,
        "4078": 185,
        "4079": 2,
        "4080": 0,
        "4081": 88,
        "4082": 106,
        "4083": 96,
        "4084": 181,
        "4085": 45,
        "4086": 20,
        "4087": 245,
        "4088": 228,
        "4089": 26,
        "4090": 106,
        "4091": 91,
        "4092": 32,
        "4093": 205,
        "4094": 246,
        "4095": 45,
        "4096": 199,
        "4097": 52,
        "4098": 69,
        "4099": 173,
        "4100": 172,
        "4101": 88,
        "4102": 232,
        "4103": 252,
        "4104": 110,
        "4105": 252,
        "4106": 72,
        "4107": 238,
        "4108": 69,
        "4109": 230,
        "4110": 148,
        "4111": 207,
        "4112": 30,
        "4113": 215,
        "4114": 209,
        "4115": 212,
        "4116": 145,
        "4117": 217,
        "4118": 240,
        "4119": 203,
        "4120": 227,
        "4121": 219,
        "4122": 124,
        "4123": 125,
        "4124": 253,
        "4125": 70,
        "4126": 172,
        "4127": 69,
        "4128": 164,
        "4129": 26,
        "4130": 26,
        "4131": 78,
        "4132": 219,
        "4133": 237,
        "4134": 93,
        "4135": 245,
        "4136": 117,
        "4137": 171,
        "4138": 71,
        "4139": 83,
        "4140": 16,
        "4141": 203,
        "4142": 214,
        "4143": 122,
        "4144": 91,
        "4145": 25,
        "4146": 122,
        "4147": 219,
        "4148": 147,
        "4149": 104,
        "4150": 113,
        "4151": 6,
        "4152": 254,
        "4153": 199,
        "4154": 91,
        "4155": 191,
        "4156": 220,
        "4157": 168,
        "4158": 183,
        "4159": 177,
        "4160": 206,
        "4161": 169,
        "4162": 98,
        "4163": 226,
        "4164": 75,
        "4165": 119,
        "4166": 8,
        "4167": 50,
        "4168": 54,
        "4169": 170,
        "4170": 240,
        "4171": 125,
        "4172": 4,
        "4173": 116,
        "4174": 97,
        "4175": 87,
        "4176": 81,
        "4177": 143,
        "4178": 233,
        "4179": 240,
        "4180": 177,
        "4181": 142,
        "4182": 37,
        "4183": 92,
        "4184": 24,
        "4185": 188,
        "4186": 76,
        "4187": 16,
        "4188": 200,
        "4189": 230,
        "4190": 9,
        "4191": 170,
        "4192": 3,
        "4193": 130,
        "4194": 164,
        "4195": 227,
        "4196": 61,
        "4197": 106,
        "4198": 81,
        "4199": 223,
        "4200": 226,
        "4201": 15,
        "4202": 34,
        "4203": 25,
        "4204": 246,
        "4205": 240,
        "4206": 158,
        "4207": 154,
        "4208": 159,
        "4209": 98,
        "4210": 254,
        "4211": 220,
        "4212": 255,
        "4213": 140,
        "4214": 37,
        "4215": 88,
        "4216": 32,
        "4217": 251,
        "4218": 245,
        "4219": 13,
        "4220": 215,
        "4221": 228,
        "4222": 192,
        "4223": 53,
        "4224": 56,
        "4225": 114,
        "4226": 62,
        "4227": 251,
        "4228": 182,
        "4229": 121,
        "4230": 52,
        "4231": 161,
        "4232": 186,
        "4233": 250,
        "4234": 174,
        "4235": 32,
        "4236": 240,
        "4237": 225,
        "4238": 209,
        "4239": 62,
        "4240": 154,
        "4241": 65,
        "4242": 105,
        "4243": 120,
        "4244": 6,
        "4245": 235,
        "4246": 218,
        "4247": 169,
        "4248": 28,
        "4249": 10,
        "4250": 16,
        "4251": 13,
        "4252": 89,
        "4253": 248,
        "4254": 239,
        "4255": 63,
        "4256": 63,
        "4257": 163,
        "4258": 59,
        "4259": 23,
        "4260": 138,
        "4261": 86,
        "4262": 186,
        "4263": 92,
        "4264": 165,
        "4265": 216,
        "4266": 116,
        "4267": 45,
        "4268": 150,
        "4269": 234,
        "4270": 151,
        "4271": 166,
        "4272": 176,
        "4273": 50,
        "4274": 221,
        "4275": 48,
        "4276": 59,
        "4277": 120,
        "4278": 243,
        "4279": 6,
        "4280": 113,
        "4281": 195,
        "4282": 236,
        "4283": 149,
        "4284": 196,
        "4285": 191,
        "4286": 222,
        "4287": 1,
        "4288": 197,
        "4289": 182,
        "4290": 101,
        "4291": 90,
        "4292": 75,
        "4293": 56,
        "4294": 161,
        "4295": 85,
        "4296": 7,
        "4297": 109,
        "4298": 193,
        "4299": 54,
        "4300": 112,
        "4301": 205,
        "4302": 107,
        "4303": 64,
        "4304": 163,
        "4305": 33,
        "4306": 192,
        "4307": 166,
        "4308": 224,
        "4309": 243,
        "4310": 17,
        "4311": 160,
        "4312": 245,
        "4313": 116,
        "4314": 106,
        "4315": 142,
        "4316": 210,
        "4317": 248,
        "4318": 52,
        "4319": 158,
        "4320": 0,
        "4321": 227,
        "4322": 62,
        "4323": 18,
        "4324": 7,
        "4325": 24,
        "4326": 30,
        "4327": 53,
        "4328": 54,
        "4329": 228,
        "4330": 100,
        "4331": 148,
        "4332": 3,
        "4333": 108,
        "4334": 63,
        "4335": 47,
        "4336": 5,
        "4337": 151,
        "4338": 173,
        "4339": 110,
        "4340": 206,
        "4341": 86,
        "4342": 68,
        "4343": 0,
        "4344": 96,
        "4345": 2,
        "4346": 184,
        "4347": 67,
        "4348": 119,
        "4349": 87,
        "4350": 252,
        "4351": 77,
        "4352": 207,
        "4353": 151,
        "4354": 73,
        "4355": 145,
        "4356": 44,
        "4357": 200,
        "4358": 226,
        "4359": 117,
        "4360": 62,
        "4361": 64,
        "4362": 224,
        "4363": 140,
        "4364": 220,
        "4365": 119,
        "4366": 46,
        "4367": 83,
        "4368": 161,
        "4369": 3,
        "4370": 164,
        "4371": 223,
        "4372": 152,
        "4373": 16,
        "4374": 35,
        "4375": 14,
        "4376": 2,
        "4377": 157,
        "4378": 35,
        "4379": 194,
        "4380": 24,
        "4381": 216,
        "4382": 24,
        "4383": 254,
        "4384": 75,
        "4385": 209,
        "4386": 61,
        "4387": 167,
        "4388": 119,
        "4389": 65,
        "4390": 207,
        "4391": 252,
        "4392": 225,
        "4393": 72,
        "4394": 86,
        "4395": 173,
        "4396": 74,
        "4397": 187,
        "4398": 44,
        "4399": 180,
        "4400": 97,
        "4401": 106,
        "4402": 87,
        "4403": 187,
        "4404": 13,
        "4405": 250,
        "4406": 11,
        "4407": 134,
        "4408": 137,
        "4409": 112,
        "4410": 72,
        "4411": 73,
        "4412": 135,
        "4413": 239,
        "4414": 183,
        "4415": 75,
        "4416": 155,
        "4417": 167,
        "4418": 189,
        "4419": 136,
        "4420": 120,
        "4421": 54,
        "4422": 163,
        "4423": 59,
        "4424": 0,
        "4425": 44,
        "4426": 210,
        "4427": 179,
        "4428": 223,
        "4429": 148,
        "4430": 234,
        "4431": 169,
        "4432": 148,
        "4433": 252,
        "4434": 76,
        "4435": 76,
        "4436": 103,
        "4437": 171,
        "4438": 215,
        "4439": 208,
        "4440": 211,
        "4441": 255,
        "4442": 215,
        "4443": 71,
        "4444": 223,
        "4445": 63,
        "4446": 192,
        "4447": 68,
        "4448": 177,
        "4449": 75,
        "4450": 229,
        "4451": 133,
        "4452": 118,
        "4453": 22,
        "4454": 213,
        "4455": 148,
        "4456": 9,
        "4457": 85,
        "4458": 155,
        "4459": 231,
        "4460": 59,
        "4461": 72,
        "4462": 160,
        "4463": 198,
        "4464": 113,
        "4465": 115,
        "4466": 79,
        "4467": 147,
        "4468": 93,
        "4469": 182,
        "4470": 76,
        "4471": 165,
        "4472": 69,
        "4473": 188,
        "4474": 156,
        "4475": 131,
        "4476": 30,
        "4477": 21,
        "4478": 87,
        "4479": 10,
        "4480": 167,
        "4481": 225,
        "4482": 6,
        "4483": 187,
        "4484": 199,
        "4485": 235,
        "4486": 17,
        "4487": 227,
        "4488": 186,
        "4489": 187,
        "4490": 20,
        "4491": 73,
        "4492": 225,
        "4493": 192,
        "4494": 163,
        "4495": 203,
        "4496": 203,
        "4497": 129,
        "4498": 44,
        "4499": 145,
        "4500": 84,
        "4501": 135,
        "4502": 136,
        "4503": 42,
        "4504": 129,
        "4505": 117,
        "4506": 231,
        "4507": 220,
        "4508": 32,
        "4509": 4,
        "4510": 20,
        "4511": 129,
        "4512": 213,
        "4513": 177,
        "4514": 89,
        "4515": 129,
        "4516": 55,
        "4517": 240,
        "4518": 131,
        "4519": 93,
        "4520": 206,
        "4521": 240,
        "4522": 65,
        "4523": 90,
        "4524": 211,
        "4525": 144,
        "4526": 229,
        "4527": 194,
        "4528": 28,
        "4529": 200,
        "4530": 111,
        "4531": 112,
        "4532": 195,
        "4533": 102,
        "4534": 204,
        "4535": 59,
        "4536": 86,
        "4537": 80,
        "4538": 33,
        "4539": 171,
        "4540": 80,
        "4541": 188,
        "4542": 172,
        "4543": 208,
        "4544": 28,
        "4545": 218,
        "4546": 61,
        "4547": 14,
        "4548": 188,
        "4549": 250,
        "4550": 66,
        "4551": 92,
        "4552": 68,
        "4553": 57,
        "4554": 201,
        "4555": 64,
        "4556": 219,
        "4557": 25,
        "4558": 4,
        "4559": 96,
        "4560": 1,
        "4561": 66,
        "4562": 255,
        "4563": 211,
        "4564": 52,
        "4565": 13,
        "4566": 2,
        "4567": 184,
        "4568": 139,
        "4569": 213,
        "4570": 226,
        "4571": 249,
        "4572": 98,
        "4573": 119,
        "4574": 242,
        "4575": 198,
        "4576": 183,
        "4577": 107,
        "4578": 83,
        "4579": 223,
        "4580": 194,
        "4581": 231,
        "4582": 191,
        "4583": 189,
        "4584": 115,
        "4585": 171,
        "4586": 135,
        "4587": 221,
        "4588": 183,
        "4589": 243,
        "4590": 34,
        "4591": 25,
        "4592": 88,
        "4593": 11,
        "4594": 137,
        "4595": 227,
        "4596": 81,
        "4597": 244,
        "4598": 146,
        "4599": 143,
        "4600": 233,
        "4601": 12,
        "4602": 157,
        "4603": 100,
        "4604": 215,
        "4605": 7,
        "4606": 51,
        "4607": 61,
        "4608": 160,
        "4609": 89,
        "4610": 24,
        "4611": 201,
        "4612": 155,
        "4613": 11,
        "4614": 85,
        "4615": 227,
        "4616": 39,
        "4617": 208,
        "4618": 137,
        "4619": 128,
        "4620": 134,
        "4621": 108,
        "4622": 201,
        "4623": 195,
        "4624": 101,
        "4625": 73,
        "4626": 92,
        "4627": 38,
        "4628": 2,
        "4629": 8,
        "4630": 169,
        "4631": 151,
        "4632": 39,
        "4633": 20,
        "4634": 14,
        "4635": 220,
        "4636": 46,
        "4637": 161,
        "4638": 72,
        "4639": 41,
        "4640": 47,
        "4641": 110,
        "4642": 174,
        "4643": 35,
        "4644": 132,
        "4645": 5,
        "4646": 203,
        "4647": 181,
        "4648": 101,
        "4649": 226,
        "4650": 11,
        "4651": 74,
        "4652": 159,
        "4653": 194,
        "4654": 219,
        "4655": 68,
        "4656": 14,
        "4657": 230,
        "4658": 238,
        "4659": 165,
        "4660": 15,
        "4661": 92,
        "4662": 7,
        "4663": 104,
        "4664": 12,
        "4665": 210,
        "4666": 67,
        "4667": 94,
        "4668": 182,
        "4669": 151,
        "4670": 105,
        "4671": 208,
        "4672": 76,
        "4673": 34,
        "4674": 130,
        "4675": 31,
        "4676": 216,
        "4677": 127,
        "4678": 132,
        "4679": 87,
        "4680": 41,
        "4681": 63,
        "4682": 73,
        "4683": 88,
        "4684": 17,
        "4685": 250,
        "4686": 142,
        "4687": 248,
        "4688": 190,
        "4689": 181,
        "4690": 221,
        "4691": 123,
        "4692": 114,
        "4693": 17,
        "4694": 165,
        "4695": 196,
        "4696": 210,
        "4697": 201,
        "4698": 25,
        "4699": 83,
        "4700": 129,
        "4701": 224,
        "4702": 105,
        "4703": 52,
        "4704": 234,
        "4705": 247,
        "4706": 143,
        "4707": 118,
        "4708": 20,
        "4709": 87,
        "4710": 65,
        "4711": 35,
        "4712": 67,
        "4713": 224,
        "4714": 44,
        "4715": 218,
        "4716": 182,
        "4717": 2,
        "4718": 90,
        "4719": 139,
        "4720": 100,
        "4721": 197,
        "4722": 106,
        "4723": 186,
        "4724": 143,
        "4725": 178,
        "4726": 215,
        "4727": 92,
        "4728": 68,
        "4729": 194,
        "4730": 83,
        "4731": 197,
        "4732": 60,
        "4733": 74,
        "4734": 69,
        "4735": 154,
        "4736": 240,
        "4737": 198,
        "4738": 252,
        "4739": 103,
        "4740": 184,
        "4741": 157,
        "4742": 72,
        "4743": 138,
        "4744": 101,
        "4745": 25,
        "4746": 53,
        "4747": 98,
        "4748": 249,
        "4749": 99,
        "4750": 217,
        "4751": 232,
        "4752": 29,
        "4753": 45,
        "4754": 187,
        "4755": 139,
        "4756": 113,
        "4757": 230,
        "4758": 10,
        "4759": 95,
        "4760": 163,
        "4761": 108,
        "4762": 217,
        "4763": 182,
        "4764": 173,
        "4765": 248,
        "4766": 1,
        "4767": 220,
        "4768": 248,
        "4769": 246,
        "4770": 106,
        "4771": 218,
        "4772": 227,
        "4773": 49,
        "4774": 68,
        "4775": 89,
        "4776": 76,
        "4777": 44,
        "4778": 117,
        "4779": 60,
        "4780": 140,
        "4781": 11,
        "4782": 165,
        "4783": 160,
        "4784": 251,
        "4785": 63,
        "4786": 196,
        "4787": 148,
        "4788": 6,
        "4789": 21,
        "4790": 215,
        "4791": 8,
        "4792": 37,
        "4793": 14,
        "4794": 2,
        "4795": 52,
        "4796": 23,
        "4797": 59,
        "4798": 18,
        "4799": 80,
        "4800": 236,
        "4801": 77,
        "4802": 28,
        "4803": 26,
        "4804": 36,
        "4805": 179,
        "4806": 105,
        "4807": 33,
        "4808": 14,
        "4809": 137,
        "4810": 219,
        "4811": 214,
        "4812": 129,
        "4813": 142,
        "4814": 153,
        "4815": 89,
        "4816": 222,
        "4817": 195,
        "4818": 243,
        "4819": 104,
        "4820": 230,
        "4821": 94,
        "4822": 193,
        "4823": 99,
        "4824": 42,
        "4825": 64,
        "4826": 125,
        "4827": 89,
        "4828": 215,
        "4829": 49,
        "4830": 125,
        "4831": 159,
        "4832": 0,
        "4833": 195,
        "4834": 198,
        "4835": 44,
        "4836": 86,
        "4837": 230,
        "4838": 32,
        "4839": 250,
        "4840": 7,
        "4841": 64,
        "4842": 161,
        "4843": 115,
        "4844": 53,
        "4845": 207,
        "4846": 162,
        "4847": 105,
        "4848": 94,
        "4849": 114,
        "4850": 113,
        "4851": 187,
        "4852": 4,
        "4853": 115,
        "4854": 166,
        "4855": 233,
        "4856": 158,
        "4857": 148,
        "4858": 222,
        "4859": 6,
        "4860": 39,
        "4861": 17,
        "4862": 194,
        "4863": 248,
        "4864": 150,
        "4865": 254,
        "4866": 34,
        "4867": 40,
        "4868": 234,
        "4869": 214,
        "4870": 201,
        "4871": 234,
        "4872": 47,
        "4873": 199,
        "4874": 163,
        "4875": 3,
        "4876": 152,
        "4877": 47,
        "4878": 238,
        "4879": 50,
        "4880": 254,
        "4881": 59,
        "4882": 140,
        "4883": 160,
        "4884": 2,
        "4885": 135,
        "4886": 43,
        "4887": 39,
        "4888": 169,
        "4889": 251,
        "4890": 104,
        "4891": 0,
        "4892": 243,
        "4893": 47,
        "4894": 19,
        "4895": 20,
        "4896": 91,
        "4897": 106,
        "4898": 254,
        "4899": 96,
        "4900": 189,
        "4901": 92,
        "4902": 81,
        "4903": 204,
        "4904": 70,
        "4905": 255,
        "4906": 49,
        "4907": 187,
        "4908": 95,
        "4909": 63,
        "4910": 19,
        "4911": 164,
        "4912": 161,
        "4913": 188,
        "4914": 216,
        "4915": 159,
        "4916": 184,
        "4917": 165,
        "4918": 252,
        "4919": 157,
        "4920": 54,
        "4921": 184,
        "4922": 173,
        "4923": 140,
        "4924": 103,
        "4925": 60,
        "4926": 16,
        "4927": 130,
        "4928": 89,
        "4929": 76,
        "4930": 63,
        "4931": 203,
        "4932": 101,
        "4933": 194,
        "4934": 94,
        "4935": 239,
        "4936": 121,
        "4937": 243,
        "4938": 171,
        "4939": 178,
        "4940": 245,
        "4941": 207,
        "4942": 135,
        "4943": 204,
        "4944": 245,
        "4945": 18,
        "4946": 246,
        "4947": 72,
        "4948": 26,
        "4949": 188,
        "4950": 202,
        "4951": 69,
        "4952": 182,
        "4953": 79,
        "4954": 6,
        "4955": 233,
        "4956": 26,
        "4957": 185,
        "4958": 172,
        "4959": 162,
        "4960": 84,
        "4961": 95,
        "4962": 138,
        "4963": 213,
        "4964": 94,
        "4965": 181,
        "4966": 178,
        "4967": 147,
        "4968": 84,
        "4969": 172,
        "4970": 166,
        "4971": 135,
        "4972": 176,
        "4973": 108,
        "4974": 176,
        "4975": 0,
        "4976": 76,
        "4977": 7,
        "4978": 91,
        "4979": 206,
        "4980": 205,
        "4981": 234,
        "4982": 27,
        "4983": 14,
        "4984": 124,
        "4985": 196,
        "4986": 111,
        "4987": 218,
        "4988": 42,
        "4989": 111,
        "4990": 196,
        "4991": 240,
        "4992": 22,
        "4993": 65,
        "4994": 53,
        "4995": 71,
        "4996": 184,
        "4997": 166,
        "4998": 26,
        "4999": 131,
        "5000": 161,
        "5001": 249,
        "5002": 16,
        "5003": 230,
        "5004": 127,
        "5005": 242,
        "5006": 57,
        "5007": 113,
        "5008": 181,
        "5009": 84,
        "5010": 110,
        "5011": 154,
        "5012": 105,
        "5013": 239,
        "5014": 81,
        "5015": 57,
        "5016": 41,
        "5017": 13,
        "5018": 55,
        "5019": 46,
        "5020": 145,
        "5021": 37,
        "5022": 88,
        "5023": 182,
        "5024": 118,
        "5025": 22,
        "5026": 84,
        "5027": 245,
        "5028": 124,
        "5029": 37,
        "5030": 156,
        "5031": 50,
        "5032": 141,
        "5033": 3,
        "5034": 220,
        "5035": 20,
        "5036": 117,
        "5037": 57,
        "5038": 239,
        "5039": 194,
        "5040": 138,
        "5041": 252,
        "5042": 125,
        "5043": 9,
        "5044": 212,
        "5045": 221,
        "5046": 188,
        "5047": 60,
        "5048": 251,
        "5049": 177,
        "5050": 0,
        "5051": 169,
        "5052": 199,
        "5053": 89,
        "5054": 32,
        "5055": 101,
        "5056": 141,
        "5057": 9,
        "5058": 12,
        "5059": 184,
        "5060": 176,
        "5061": 181,
        "5062": 214,
        "5063": 28,
        "5064": 87,
        "5065": 188,
        "5066": 190,
        "5067": 115,
        "5068": 204,
        "5069": 161,
        "5070": 188,
        "5071": 113,
        "5072": 136,
        "5073": 127,
        "5074": 111,
        "5075": 86,
        "5076": 114,
        "5077": 159,
        "5078": 111,
        "5079": 88,
        "5080": 225,
        "5081": 154,
        "5082": 2,
        "5083": 103,
        "5084": 178,
        "5085": 51,
        "5086": 133,
        "5087": 28,
        "5088": 195,
        "5089": 111,
        "5090": 67,
        "5091": 82,
        "5092": 38,
        "5093": 136,
        "5094": 165,
        "5095": 7,
        "5096": 63,
        "5097": 158,
        "5098": 133,
        "5099": 1,
        "5100": 47,
        "5101": 177,
        "5102": 58,
        "5103": 248,
        "5104": 251,
        "5105": 157,
        "5106": 210,
        "5107": 55,
        "5108": 131,
        "5109": 18,
        "5110": 65,
        "5111": 59,
        "5112": 36,
        "5113": 99,
        "5114": 175,
        "5115": 29,
        "5116": 111,
        "5117": 183,
        "5118": 62,
        "5119": 28,
        "5120": 18,
        "5121": 195,
        "5122": 225,
        "5123": 1,
        "5124": 166,
        "5125": 24,
        "5126": 99,
        "5127": 76,
        "5128": 227,
        "5129": 63,
        "5130": 105,
        "5131": 99,
        "5132": 110,
        "5133": 249,
        "5134": 59,
        "5135": 8,
        "5136": 86,
        "5137": 15,
        "5138": 244,
        "5139": 152,
        "5140": 0,
        "5141": 33,
        "5142": 9,
        "5143": 234,
        "5144": 144,
        "5145": 2,
        "5146": 201,
        "5147": 48,
        "5148": 123,
        "5149": 157,
        "5150": 146,
        "5151": 238,
        "5152": 29,
        "5153": 185,
        "5154": 65,
        "5155": 76,
        "5156": 187,
        "5157": 151,
        "5158": 108,
        "5159": 61,
        "5160": 215,
        "5161": 204,
        "5162": 149,
        "5163": 207,
        "5164": 62,
        "5165": 73,
        "5166": 141,
        "5167": 180,
        "5168": 115,
        "5169": 159,
        "5170": 229,
        "5171": 35,
        "5172": 107,
        "5173": 49,
        "5174": 71,
        "5175": 62,
        "5176": 190,
        "5177": 6,
        "5178": 129,
        "5179": 166,
        "5180": 163,
        "5181": 193,
        "5182": 116,
        "5183": 134,
        "5184": 46,
        "5185": 43,
        "5186": 45,
        "5187": 123,
        "5188": 113,
        "5189": 189,
        "5190": 53,
        "5191": 182,
        "5192": 114,
        "5193": 154,
        "5194": 212,
        "5195": 77,
        "5196": 183,
        "5197": 24,
        "5198": 232,
        "5199": 196,
        "5200": 93,
        "5201": 245,
        "5202": 32,
        "5203": 172,
        "5204": 65,
        "5205": 181,
        "5206": 113,
        "5207": 209,
        "5208": 185,
        "5209": 216,
        "5210": 162,
        "5211": 30,
        "5212": 49,
        "5213": 165,
        "5214": 73,
        "5215": 72,
        "5216": 182,
        "5217": 121,
        "5218": 179,
        "5219": 160,
        "5220": 250,
        "5221": 175,
        "5222": 62,
        "5223": 23,
        "5224": 85,
        "5225": 181,
        "5226": 157,
        "5227": 206,
        "5228": 134,
        "5229": 94,
        "5230": 126,
        "5231": 38,
        "5232": 160,
        "5233": 198,
        "5234": 183,
        "5235": 40,
        "5236": 127,
        "5237": 99,
        "5238": 130,
        "5239": 14,
        "5240": 172,
        "5241": 129,
        "5242": 40,
        "5243": 189,
        "5244": 178,
        "5245": 164,
        "5246": 130,
        "5247": 255,
        "5248": 13,
        "5249": 161,
        "5250": 92,
        "5251": 209,
        "5252": 160,
        "5253": 92,
        "5254": 202,
        "5255": 207,
        "5256": 20,
        "5257": 8,
        "5258": 0,
        "5259": 74,
        "5260": 234,
        "5261": 189,
        "5262": 82,
        "5263": 165,
        "5264": 225,
        "5265": 141,
        "5266": 160,
        "5267": 157,
        "5268": 115,
        "5269": 220,
        "5270": 234,
        "5271": 225,
        "5272": 243,
        "5273": 212,
        "5274": 196,
        "5275": 223,
        "5276": 232,
        "5277": 13,
        "5278": 176,
        "5279": 240,
        "5280": 49,
        "5281": 63,
        "5282": 108,
        "5283": 82,
        "5284": 114,
        "5285": 193,
        "5286": 233,
        "5287": 223,
        "5288": 15,
        "5289": 251,
        "5290": 29,
        "5291": 64,
        "5292": 22,
        "5293": 216,
        "5294": 26,
        "5295": 95,
        "5296": 137,
        "5297": 146,
        "5298": 106,
        "5299": 232,
        "5300": 167,
        "5301": 57,
        "5302": 231,
        "5303": 202,
        "5304": 173,
        "5305": 192,
        "5306": 183,
        "5307": 121,
        "5308": 64,
        "5309": 93,
        "5310": 211,
        "5311": 186,
        "5312": 109,
        "5313": 92,
        "5314": 147,
        "5315": 238,
        "5316": 252,
        "5317": 14,
        "5318": 112,
        "5319": 174,
        "5320": 92,
        "5321": 64,
        "5322": 164,
        "5323": 12,
        "5324": 151,
        "5325": 54,
        "5326": 75,
        "5327": 191,
        "5328": 218,
        "5329": 219,
        "5330": 233,
        "5331": 15,
        "5332": 118,
        "5333": 67,
        "5334": 104,
        "5335": 112,
        "5336": 197,
        "5337": 254,
        "5338": 188,
        "5339": 69,
        "5340": 134,
        "5341": 188,
        "5342": 82,
        "5343": 60,
        "5344": 113,
        "5345": 25,
        "5346": 1,
        "5347": 96,
        "5348": 223,
        "5349": 244,
        "5350": 248,
        "5351": 206,
        "5352": 119,
        "5353": 21,
        "5354": 174,
        "5355": 94,
        "5356": 135,
        "5357": 64,
        "5358": 207,
        "5359": 68,
        "5360": 51,
        "5361": 57,
        "5362": 101,
        "5363": 82,
        "5364": 101,
        "5365": 215,
        "5366": 90,
        "5367": 119,
        "5368": 93,
        "5369": 86,
        "5370": 155,
        "5371": 169,
        "5372": 25,
        "5373": 78,
        "5374": 222,
        "5375": 117,
        "5376": 201,
        "5377": 253,
        "5378": 200,
        "5379": 227,
        "5380": 84,
        "5381": 125,
        "5382": 32,
        "5383": 234,
        "5384": 1,
        "5385": 8,
        "5386": 68,
        "5387": 31,
        "5388": 237,
        "5389": 206,
        "5390": 9,
        "5391": 145,
        "5392": 110,
        "5393": 185,
        "5394": 56,
        "5395": 24,
        "5396": 117,
        "5397": 48,
        "5398": 143,
        "5399": 12,
        "5400": 59,
        "5401": 101,
        "5402": 232,
        "5403": 239,
        "5404": 175,
        "5405": 133,
        "5406": 120,
        "5407": 45,
        "5408": 100,
        "5409": 37,
        "5410": 35,
        "5411": 39,
        "5412": 148,
        "5413": 217,
        "5414": 238,
        "5415": 2,
        "5416": 192,
        "5417": 143,
        "5418": 99,
        "5419": 63,
        "5420": 254,
        "5421": 123,
        "5422": 211,
        "5423": 176,
        "5424": 26,
        "5425": 215,
        "5426": 159,
        "5427": 143,
        "5428": 241,
        "5429": 209,
        "5430": 25,
        "5431": 77,
        "5432": 219,
        "5433": 226,
        "5434": 236,
        "5435": 157,
        "5436": 29,
        "5437": 70,
        "5438": 9,
        "5439": 215,
        "5440": 105,
        "5441": 22,
        "5442": 134,
        "5443": 196,
        "5444": 183,
        "5445": 73,
        "5446": 154,
        "5447": 109,
        "5448": 126,
        "5449": 39,
        "5450": 26,
        "5451": 50,
        "5452": 67,
        "5453": 78,
        "5454": 8,
        "5455": 213,
        "5456": 123,
        "5457": 165,
        "5458": 177,
        "5459": 27,
        "5460": 202,
        "5461": 18,
        "5462": 11,
        "5463": 49,
        "5464": 74,
        "5465": 233,
        "5466": 169,
        "5467": 62,
        "5468": 76,
        "5469": 98,
        "5470": 11,
        "5471": 56,
        "5472": 162,
        "5473": 240,
        "5474": 219,
        "5475": 2,
        "5476": 34,
        "5477": 182,
        "5478": 19,
        "5479": 173,
        "5480": 251,
        "5481": 11,
        "5482": 64,
        "5483": 121,
        "5484": 229,
        "5485": 249,
        "5486": 193,
        "5487": 252,
        "5488": 188,
        "5489": 159,
        "5490": 125,
        "5491": 161,
        "5492": 69,
        "5493": 128,
        "5494": 229,
        "5495": 255,
        "5496": 141,
        "5497": 254,
        "5498": 215,
        "5499": 96,
        "5500": 144,
        "5501": 178,
        "5502": 29,
        "5503": 159,
        "5504": 189,
        "5505": 97,
        "5506": 188,
        "5507": 159,
        "5508": 219,
        "5509": 118,
        "5510": 129,
        "5511": 231,
        "5512": 121,
        "5513": 135,
        "5514": 22,
        "5515": 97,
        "5516": 215,
        "5517": 54,
        "5518": 217,
        "5519": 158,
        "5520": 196,
        "5521": 243,
        "5522": 103,
        "5523": 3,
        "5524": 7,
        "5525": 55,
        "5526": 52,
        "5527": 109,
        "5528": 139,
        "5529": 9,
        "5530": 153,
        "5531": 62,
        "5532": 85,
        "5533": 84,
        "5534": 46,
        "5535": 189,
        "5536": 247,
        "5537": 104,
        "5538": 92,
        "5539": 220,
        "5540": 241,
        "5541": 57,
        "5542": 45,
        "5543": 63,
        "5544": 96,
        "5545": 25,
        "5546": 205,
        "5547": 14,
        "5548": 80,
        "5549": 16,
        "5550": 83,
        "5551": 129,
        "5552": 33,
        "5553": 168,
        "5554": 69,
        "5555": 139,
        "5556": 129,
        "5557": 72,
        "5558": 248,
        "5559": 201,
        "5560": 172,
        "5561": 70,
        "5562": 92,
        "5563": 104,
        "5564": 222,
        "5565": 24,
        "5566": 32,
        "5567": 122,
        "5568": 226,
        "5569": 87,
        "5570": 54,
        "5571": 101,
        "5572": 181,
        "5573": 155,
        "5574": 129,
        "5575": 31,
        "5576": 209,
        "5577": 18,
        "5578": 45,
        "5579": 62,
        "5580": 241,
        "5581": 106,
        "5582": 115,
        "5583": 154,
        "5584": 246,
        "5585": 152,
        "5586": 64,
        "5587": 45,
        "5588": 37,
        "5589": 26,
        "5590": 139,
        "5591": 139,
        "5592": 66,
        "5593": 49,
        "5594": 186,
        "5595": 65,
        "5596": 94,
        "5597": 114,
        "5598": 180,
        "5599": 56,
        "5600": 79,
        "5601": 32,
        "5602": 5,
        "5603": 98,
        "5604": 210,
        "5605": 77,
        "5606": 187,
        "5607": 12,
        "5608": 106,
        "5609": 160,
        "5610": 152,
        "5611": 132,
        "5612": 132,
        "5613": 140,
        "5614": 45,
        "5615": 18,
        "5616": 101,
        "5617": 109,
        "5618": 85,
        "5619": 49,
        "5620": 244,
        "5621": 15,
        "5622": 210,
        "5623": 152,
        "5624": 68,
        "5625": 156,
        "5626": 177,
        "5627": 22,
        "5628": 186,
        "5629": 241,
        "5630": 85,
        "5631": 11,
        "5632": 84,
        "5633": 242,
        "5634": 82,
        "5635": 59,
        "5636": 224,
        "5637": 247,
        "5638": 139,
        "5639": 141,
        "5640": 33,
        "5641": 254,
        "5642": 136,
        "5643": 192,
        "5644": 158,
        "5645": 64,
        "5646": 235,
        "5647": 229,
        "5648": 36,
        "5649": 167,
        "5650": 249,
        "5651": 35,
        "5652": 36,
        "5653": 189,
        "5654": 133,
        "5655": 101,
        "5656": 218,
        "5657": 162,
        "5658": 203,
        "5659": 23,
        "5660": 206,
        "5661": 35,
        "5662": 194,
        "5663": 87,
        "5664": 239,
        "5665": 228,
        "5666": 189,
        "5667": 110,
        "5668": 236,
        "5669": 67,
        "5670": 11,
        "5671": 169,
        "5672": 99,
        "5673": 172,
        "5674": 211,
        "5675": 108,
        "5676": 211,
        "5677": 155,
        "5678": 33,
        "5679": 220,
        "5680": 56,
        "5681": 108,
        "5682": 126,
        "5683": 129,
        "5684": 90,
        "5685": 219,
        "5686": 180,
        "5687": 134,
        "5688": 105,
        "5689": 56,
        "5690": 155,
        "5691": 17,
        "5692": 175,
        "5693": 54,
        "5694": 114,
        "5695": 90,
        "5696": 192,
        "5697": 98,
        "5698": 87,
        "5699": 99,
        "5700": 223,
        "5701": 194,
        "5702": 13,
        "5703": 179,
        "5704": 117,
        "5705": 105,
        "5706": 238,
        "5707": 142,
        "5708": 99,
        "5709": 170,
        "5710": 173,
        "5711": 165,
        "5712": 190,
        "5713": 95,
        "5714": 50,
        "5715": 159,
        "5716": 210,
        "5717": 52,
        "5718": 5,
        "5719": 178,
        "5720": 2,
        "5721": 125,
        "5722": 102,
        "5723": 11,
        "5724": 122,
        "5725": 123,
        "5726": 155,
        "5727": 149,
        "5728": 52,
        "5729": 243,
        "5730": 253,
        "5731": 179,
        "5732": 198,
        "5733": 79,
        "5734": 116,
        "5735": 32,
        "5736": 192,
        "5737": 43,
        "5738": 58,
        "5739": 123,
        "5740": 19,
        "5741": 188,
        "5742": 106,
        "5743": 159,
        "5744": 239,
        "5745": 141,
        "5746": 23,
        "5747": 132,
        "5748": 56,
        "5749": 211,
        "5750": 108,
        "5751": 137,
        "5752": 250,
        "5753": 122,
        "5754": 10,
        "5755": 96,
        "5756": 172,
        "5757": 222,
        "5758": 38,
        "5759": 230,
        "5760": 29,
        "5761": 208,
        "5762": 184,
        "5763": 173,
        "5764": 165,
        "5765": 190,
        "5766": 237,
        "5767": 204,
        "5768": 1,
        "5769": 157,
        "5770": 92,
        "5771": 149,
        "5772": 23,
        "5773": 173,
        "5774": 198,
        "5775": 53,
        "5776": 41,
        "5777": 161,
        "5778": 55,
        "5779": 170,
        "5780": 140,
        "5781": 188,
        "5782": 215,
        "5783": 147,
        "5784": 156,
        "5785": 117,
        "5786": 157,
        "5787": 159,
        "5788": 47,
        "5789": 135,
        "5790": 152,
        "5791": 32,
        "5792": 40,
        "5793": 102,
        "5794": 173,
        "5795": 14,
        "5796": 151,
        "5797": 134,
        "5798": 219,
        "5799": 113,
        "5800": 133,
        "5801": 38,
        "5802": 0,
        "5803": 68,
        "5804": 93,
        "5805": 47,
        "5806": 29,
        "5807": 193,
        "5808": 29,
        "5809": 177,
        "5810": 215,
        "5811": 25,
        "5812": 118,
        "5813": 139,
        "5814": 30,
        "5815": 23,
        "5816": 246,
        "5817": 108,
        "5818": 23,
        "5819": 34,
        "5820": 160,
        "5821": 103,
        "5822": 79,
        "5823": 211,
        "5824": 2,
        "5825": 134,
        "5826": 239,
        "5827": 54,
        "5828": 175,
        "5829": 64,
        "5830": 233,
        "5831": 86,
        "5832": 90,
        "5833": 188,
        "5834": 204,
        "5835": 49,
        "5836": 167,
        "5837": 103,
        "5838": 51,
        "5839": 78,
        "5840": 25,
        "5841": 94,
        "5842": 70,
        "5843": 196,
        "5844": 155,
        "5845": 112,
        "5846": 234,
        "5847": 107,
        "5848": 196,
        "5849": 227,
        "5850": 195,
        "5851": 174,
        "5852": 236,
        "5853": 140,
        "5854": 176,
        "5855": 220,
        "5856": 150,
        "5857": 93,
        "5858": 222,
        "5859": 92,
        "5860": 116,
        "5861": 24,
        "5862": 190,
        "5863": 252,
        "5864": 147,
        "5865": 220,
        "5866": 94,
        "5867": 166,
        "5868": 136,
        "5869": 172,
        "5870": 28,
        "5871": 227,
        "5872": 69,
        "5873": 79,
        "5874": 248,
        "5875": 244,
        "5876": 102,
        "5877": 12,
        "5878": 226,
        "5879": 57,
        "5880": 177,
        "5881": 36,
        "5882": 149,
        "5883": 167,
        "5884": 128,
        "5885": 206,
        "5886": 104,
        "5887": 74,
        "5888": 243,
        "5889": 122,
        "5890": 241,
        "5891": 81,
        "5892": 190,
        "5893": 190,
        "5894": 43,
        "5895": 63,
        "5896": 100,
        "5897": 172,
        "5898": 120,
        "5899": 208,
        "5900": 79,
        "5901": 99,
        "5902": 55,
        "5903": 107,
        "5904": 30,
        "5905": 203,
        "5906": 196,
        "5907": 156,
        "5908": 71,
        "5909": 18,
        "5910": 36,
        "5911": 14,
        "5912": 233,
        "5913": 93,
        "5914": 227,
        "5915": 84,
        "5916": 244,
        "5917": 38,
        "5918": 13,
        "5919": 22,
        "5920": 66,
        "5921": 227,
        "5922": 101,
        "5923": 189,
        "5924": 91,
        "5925": 64,
        "5926": 252,
        "5927": 133,
        "5928": 160,
        "5929": 69,
        "5930": 137,
        "5931": 234,
        "5932": 170,
        "5933": 18,
        "5934": 123,
        "5935": 231,
        "5936": 171,
        "5937": 137,
        "5938": 21,
        "5939": 33,
        "5940": 143,
        "5941": 174,
        "5942": 172,
        "5943": 247,
        "5944": 24,
        "5945": 167,
        "5946": 129,
        "5947": 39,
        "5948": 199,
        "5949": 164,
        "5950": 155,
        "5951": 240,
        "5952": 127,
        "5953": 109,
        "5954": 213,
        "5955": 170,
        "5956": 178,
        "5957": 212,
        "5958": 130,
        "5959": 247,
        "5960": 2,
        "5961": 245,
        "5962": 161,
        "5963": 158,
        "5964": 99,
        "5965": 226,
        "5966": 145,
        "5967": 107,
        "5968": 36,
        "5969": 55,
        "5970": 127,
        "5971": 235,
        "5972": 54,
        "5973": 71,
        "5974": 78,
        "5975": 85,
        "5976": 243,
        "5977": 168,
        "5978": 215,
        "5979": 50,
        "5980": 175,
        "5981": 109,
        "5982": 9,
        "5983": 145,
        "5984": 123,
        "5985": 247,
        "5986": 141,
        "5987": 224,
        "5988": 44,
        "5989": 96,
        "5990": 207,
        "5991": 103,
        "5992": 107,
        "5993": 159,
        "5994": 244,
        "5995": 175,
        "5996": 194,
        "5997": 3,
        "5998": 29,
        "5999": 139,
        "6000": 230,
        "6001": 223,
        "6002": 123,
        "6003": 202,
        "6004": 40,
        "6005": 33,
        "6006": 103,
        "6007": 62,
        "6008": 174,
        "6009": 206,
        "6010": 194,
        "6011": 173,
        "6012": 18,
        "6013": 177,
        "6014": 129,
        "6015": 80,
        "6016": 205,
        "6017": 77,
        "6018": 60,
        "6019": 154,
        "6020": 39,
        "6021": 162,
        "6022": 132,
        "6023": 8,
        "6024": 115,
        "6025": 30,
        "6026": 180,
        "6027": 121,
        "6028": 20,
        "6029": 33,
        "6030": 128,
        "6031": 184,
        "6032": 237,
        "6033": 1,
        "6034": 169,
        "6035": 102,
        "6036": 90,
        "6037": 229,
        "6038": 57,
        "6039": 10,
        "6040": 65,
        "6041": 60,
        "6042": 167,
        "6043": 6,
        "6044": 7,
        "6045": 17,
        "6046": 190,
        "6047": 25,
        "6048": 151,
        "6049": 234,
        "6050": 69,
        "6051": 221,
        "6052": 37,
        "6053": 198,
        "6054": 221,
        "6055": 252,
        "6056": 115,
        "6057": 79,
        "6058": 118,
        "6059": 90,
        "6060": 115,
        "6061": 176,
        "6062": 241,
        "6063": 40,
        "6064": 32,
        "6065": 64,
        "6066": 206,
        "6067": 151,
        "6068": 208,
        "6069": 242,
        "6070": 137,
        "6071": 73,
        "6072": 65,
        "6073": 48,
        "6074": 110,
        "6075": 132,
        "6076": 80,
        "6077": 188,
        "6078": 195,
        "6079": 142,
        "6080": 144,
        "6081": 124,
        "6082": 238,
        "6083": 17,
        "6084": 23,
        "6085": 66,
        "6086": 85,
        "6087": 19,
        "6088": 118,
        "6089": 219,
        "6090": 210,
        "6091": 56,
        "6092": 178,
        "6093": 59,
        "6094": 96,
        "6095": 186,
        "6096": 6,
        "6097": 171,
        "6098": 98,
        "6099": 2,
        "6100": 219,
        "6101": 149,
        "6102": 159,
        "6103": 169,
        "6104": 95,
        "6105": 211,
        "6106": 233,
        "6107": 130,
        "6108": 216,
        "6109": 77,
        "6110": 51,
        "6111": 202,
        "6112": 169,
        "6113": 166,
        "6114": 230,
        "6115": 34,
        "6116": 152,
        "6117": 134,
        "6118": 86,
        "6119": 193,
        "6120": 135,
        "6121": 92,
        "6122": 241,
        "6123": 255,
        "6124": 58,
        "6125": 153,
        "6126": 223,
        "6127": 35,
        "6128": 67,
        "6129": 101,
        "6130": 112,
        "6131": 241,
        "6132": 68,
        "6133": 183,
        "6134": 84,
        "6135": 15,
        "6136": 237,
        "6137": 137,
        "6138": 31,
        "6139": 133,
        "6140": 44,
        "6141": 93,
        "6142": 242,
        "6143": 184,
        "6144": 239,
        "6145": 91,
        "6146": 195,
        "6147": 156,
        "6148": 75,
        "6149": 136,
        "6150": 172,
        "6151": 19,
        "6152": 83,
        "6153": 91,
        "6154": 213,
        "6155": 68,
        "6156": 47,
        "6157": 155,
        "6158": 93,
        "6159": 87,
        "6160": 200,
        "6161": 134,
        "6162": 200,
        "6163": 246,
        "6164": 48,
        "6165": 125,
        "6166": 31,
        "6167": 54,
        "6168": 74,
        "6169": 162,
        "6170": 27,
        "6171": 162,
        "6172": 193,
        "6173": 64,
        "6174": 74,
        "6175": 23,
        "6176": 104,
        "6177": 115,
        "6178": 190,
        "6179": 3,
        "6180": 229,
        "6181": 14,
        "6182": 131,
        "6183": 236,
        "6184": 115,
        "6185": 71,
        "6186": 61,
        "6187": 206,
        "6188": 86,
        "6189": 75,
        "6190": 37,
        "6191": 122,
        "6192": 56,
        "6193": 67,
        "6194": 15,
        "6195": 101,
        "6196": 145,
        "6197": 71,
        "6198": 118,
        "6199": 212,
        "6200": 22,
        "6201": 208,
        "6202": 187,
        "6203": 94,
        "6204": 66,
        "6205": 141,
        "6206": 72,
        "6207": 36,
        "6208": 18,
        "6209": 204,
        "6210": 216,
        "6211": 163,
        "6212": 236,
        "6213": 213,
        "6214": 228,
        "6215": 174,
        "6216": 191,
        "6217": 250,
        "6218": 141,
        "6219": 174,
        "6220": 197,
        "6221": 127,
        "6222": 111,
        "6223": 158,
        "6224": 88,
        "6225": 87,
        "6226": 23,
        "6227": 224,
        "6228": 198,
        "6229": 223,
        "6230": 201,
        "6231": 127,
        "6232": 5,
        "6233": 252,
        "6234": 201,
        "6235": 95,
        "6236": 129,
        "6237": 111,
        "6238": 143,
        "6239": 245,
        "6240": 178,
        "6241": 30,
        "6242": 11,
        "6243": 26,
        "6244": 145,
        "6245": 236,
        "6246": 161,
        "6247": 106,
        "6248": 126,
        "6249": 59,
        "6250": 10,
        "6251": 27,
        "6252": 232,
        "6253": 16,
        "6254": 150,
        "6255": 94,
        "6256": 3,
        "6257": 24,
        "6258": 157,
        "6259": 59,
        "6260": 118,
        "6261": 102,
        "6262": 163,
        "6263": 243,
        "6264": 181,
        "6265": 18,
        "6266": 185,
        "6267": 183,
        "6268": 8,
        "6269": 232,
        "6270": 86,
        "6271": 129,
        "6272": 195,
        "6273": 180,
        "6274": 228,
        "6275": 215,
        "6276": 175,
        "6277": 7,
        "6278": 77,
        "6279": 208,
        "6280": 43,
        "6281": 212,
        "6282": 174,
        "6283": 7,
        "6284": 161,
        "6285": 204,
        "6286": 41,
        "6287": 156,
        "6288": 127,
        "6289": 247,
        "6290": 73,
        "6291": 61,
        "6292": 116,
        "6293": 192,
        "6294": 242,
        "6295": 12,
        "6296": 55,
        "6297": 221,
        "6298": 64,
        "6299": 37,
        "6300": 171,
        "6301": 41,
        "6302": 83,
        "6303": 8,
        "6304": 187,
        "6305": 97,
        "6306": 147,
        "6307": 89,
        "6308": 200,
        "6309": 254,
        "6310": 199,
        "6311": 107,
        "6312": 17,
        "6313": 238,
        "6314": 200,
        "6315": 249,
        "6316": 17,
        "6317": 204,
        "6318": 17,
        "6319": 209,
        "6320": 56,
        "6321": 131,
        "6322": 244,
        "6323": 1,
        "6324": 46,
        "6325": 88,
        "6326": 152,
        "6327": 144,
        "6328": 248,
        "6329": 139,
        "6330": 73,
        "6331": 157,
        "6332": 137,
        "6333": 84,
        "6334": 40,
        "6335": 141,
        "6336": 68,
        "6337": 108,
        "6338": 14,
        "6339": 56,
        "6340": 142,
        "6341": 152,
        "6342": 250,
        "6343": 39,
        "6344": 31,
        "6345": 16,
        "6346": 77,
        "6347": 174,
        "6348": 118,
        "6349": 107,
        "6350": 109,
        "6351": 85,
        "6352": 63,
        "6353": 45,
        "6354": 241,
        "6355": 6,
        "6356": 138,
        "6357": 163,
        "6358": 41,
        "6359": 14,
        "6360": 196,
        "6361": 248,
        "6362": 17,
        "6363": 218,
        "6364": 94,
        "6365": 121,
        "6366": 149,
        "6367": 188,
        "6368": 181,
        "6369": 43,
        "6370": 8,
        "6371": 52,
        "6372": 219,
        "6373": 157,
        "6374": 85,
        "6375": 42,
        "6376": 222,
        "6377": 44,
        "6378": 185,
        "6379": 43,
        "6380": 193,
        "6381": 7,
        "6382": 236,
        "6383": 146,
        "6384": 205,
        "6385": 36,
        "6386": 109,
        "6387": 180,
        "6388": 165,
        "6389": 35,
        "6390": 109,
        "6391": 221,
        "6392": 185,
        "6393": 60,
        "6394": 11,
        "6395": 78,
        "6396": 22,
        "6397": 232,
        "6398": 102,
        "6399": 231,
        "6400": 240,
        "6401": 46,
        "6402": 205,
        "6403": 233,
        "6404": 111,
        "6405": 71,
        "6406": 211,
        "6407": 152,
        "6408": 59,
        "6409": 103,
        "6410": 238,
        "6411": 162,
        "6412": 239,
        "6413": 110,
        "6414": 50,
        "6415": 10,
        "6416": 86,
        "6417": 124,
        "6418": 93,
        "6419": 226,
        "6420": 43,
        "6421": 79,
        "6422": 197,
        "6423": 216,
        "6424": 238,
        "6425": 134,
        "6426": 250,
        "6427": 194,
        "6428": 114,
        "6429": 87,
        "6430": 164,
        "6431": 207,
        "6432": 104,
        "6433": 108,
        "6434": 235,
        "6435": 226,
        "6436": 95,
        "6437": 207,
        "6438": 75,
        "6439": 56,
        "6440": 145,
        "6441": 181,
        "6442": 250,
        "6443": 245,
        "6444": 184,
        "6445": 44,
        "6446": 30,
        "6447": 212,
        "6448": 72,
        "6449": 43,
        "6450": 179,
        "6451": 7,
        "6452": 254,
        "6453": 186,
        "6454": 26,
        "6455": 203,
        "6456": 195,
        "6457": 116,
        "6458": 143,
        "6459": 86,
        "6460": 234,
        "6461": 200,
        "6462": 203,
        "6463": 214,
        "6464": 84,
        "6465": 183,
        "6466": 15,
        "6467": 123,
        "6468": 89,
        "6469": 231,
        "6470": 194,
        "6471": 162,
        "6472": 103,
        "6473": 191,
        "6474": 154,
        "6475": 64,
        "6476": 194,
        "6477": 170,
        "6478": 135,
        "6479": 229,
        "6480": 19,
        "6481": 1,
        "6482": 215,
        "6483": 17,
        "6484": 151,
        "6485": 10,
        "6486": 180,
        "6487": 79,
        "6488": 176,
        "6489": 155,
        "6490": 63,
        "6491": 49,
        "6492": 142,
        "6493": 46,
        "6494": 34,
        "6495": 223,
        "6496": 187,
        "6497": 46,
        "6498": 236,
        "6499": 101,
        "6500": 145,
        "6501": 238,
        "6502": 195,
        "6503": 29,
        "6504": 0,
        "6505": 125,
        "6506": 190,
        "6507": 211,
        "6508": 173,
        "6509": 61,
        "6510": 146,
        "6511": 49,
        "6512": 185,
        "6513": 85,
        "6514": 224,
        "6515": 230,
        "6516": 89,
        "6517": 202,
        "6518": 245,
        "6519": 231,
        "6520": 218,
        "6521": 64,
        "6522": 233,
        "6523": 213,
        "6524": 48,
        "6525": 133,
        "6526": 133,
        "6527": 33,
        "6528": 35,
        "6529": 206,
        "6530": 115,
        "6531": 6,
        "6532": 96,
        "6533": 233,
        "6534": 140,
        "6535": 117,
        "6536": 119,
        "6537": 246,
        "6538": 199,
        "6539": 245,
        "6540": 34,
        "6541": 108,
        "6542": 85,
        "6543": 16,
        "6544": 2,
        "6545": 114,
        "6546": 95,
        "6547": 80,
        "6548": 27,
        "6549": 248,
        "6550": 59,
        "6551": 11,
        "6552": 225,
        "6553": 126,
        "6554": 101,
        "6555": 104,
        "6556": 218,
        "6557": 133,
        "6558": 69,
        "6559": 143,
        "6560": 37,
        "6561": 143,
        "6562": 102,
        "6563": 92,
        "6564": 141,
        "6565": 226,
        "6566": 62,
        "6567": 103,
        "6568": 121,
        "6569": 4,
        "6570": 170,
        "6571": 131,
        "6572": 22,
        "6573": 61,
        "6574": 183,
        "6575": 35,
        "6576": 43,
        "6577": 233,
        "6578": 189,
        "6579": 155,
        "6580": 51,
        "6581": 193,
        "6582": 196,
        "6583": 132,
        "6584": 137,
        "6585": 30,
        "6586": 60,
        "6587": 140,
        "6588": 68,
        "6589": 112,
        "6590": 208,
        "6591": 93,
        "6592": 65,
        "6593": 179,
        "6594": 147,
        "6595": 244,
        "6596": 225,
        "6597": 158,
        "6598": 2,
        "6599": 66,
        "6600": 57,
        "6601": 12,
        "6602": 151,
        "6603": 189,
        "6604": 229,
        "6605": 175,
        "6606": 112,
        "6607": 235,
        "6608": 66,
        "6609": 81,
        "6610": 220,
        "6611": 73,
        "6612": 163,
        "6613": 48,
        "6614": 139,
        "6615": 89,
        "6616": 48,
        "6617": 201,
        "6618": 208,
        "6619": 49,
        "6620": 193,
        "6621": 105,
        "6622": 34,
        "6623": 160,
        "6624": 134,
        "6625": 40,
        "6626": 54,
        "6627": 24,
        "6628": 83,
        "6629": 30,
        "6630": 254,
        "6631": 215,
        "6632": 216,
        "6633": 156,
        "6634": 74,
        "6635": 68,
        "6636": 73,
        "6637": 61,
        "6638": 21,
        "6639": 21,
        "6640": 81,
        "6641": 141,
        "6642": 128,
        "6643": 69,
        "6644": 232,
        "6645": 71,
        "6646": 65,
        "6647": 205,
        "6648": 29,
        "6649": 13,
        "6650": 120,
        "6651": 7,
        "6652": 117,
        "6653": 51,
        "6654": 154,
        "6655": 110,
        "6656": 51,
        "6657": 164,
        "6658": 114,
        "6659": 213,
        "6660": 195,
        "6661": 244,
        "6662": 255,
        "6663": 150,
        "6664": 129,
        "6665": 32,
        "6666": 173,
        "6667": 85,
        "6668": 78,
        "6669": 27,
        "6670": 167,
        "6671": 55,
        "6672": 227,
        "6673": 249,
        "6674": 55,
        "6675": 177,
        "6676": 85,
        "6677": 23,
        "6678": 14,
        "6679": 19,
        "6680": 134,
        "6681": 83,
        "6682": 162,
        "6683": 100,
        "6684": 14,
        "6685": 123,
        "6686": 125,
        "6687": 91,
        "6688": 63,
        "6689": 41,
        "6690": 247,
        "6691": 19,
        "6692": 237,
        "6693": 205,
        "6694": 140,
        "6695": 251,
        "6696": 219,
        "6697": 111,
        "6698": 140,
        "6699": 232,
        "6700": 5,
        "6701": 9,
        "6702": 255,
        "6703": 224,
        "6704": 198,
        "6705": 129,
        "6706": 156,
        "6707": 40,
        "6708": 123,
        "6709": 8,
        "6710": 131,
        "6711": 232,
        "6712": 242,
        "6713": 192,
        "6714": 120,
        "6715": 121,
        "6716": 151,
        "6717": 67,
        "6718": 96,
        "6719": 87,
        "6720": 176,
        "6721": 138,
        "6722": 31,
        "6723": 124,
        "6724": 41,
        "6725": 157,
        "6726": 255,
        "6727": 68,
        "6728": 54,
        "6729": 80,
        "6730": 15,
        "6731": 222,
        "6732": 37,
        "6733": 7,
        "6734": 107,
        "6735": 244,
        "6736": 42,
        "6737": 97,
        "6738": 197,
        "6739": 133,
        "6740": 251,
        "6741": 43,
        "6742": 137,
        "6743": 197,
        "6744": 152,
        "6745": 223,
        "6746": 206,
        "6747": 178,
        "6748": 173,
        "6749": 251,
        "6750": 204,
        "6751": 19,
        "6752": 158,
        "6753": 227,
        "6754": 252,
        "6755": 60,
        "6756": 63,
        "6757": 122,
        "6758": 243,
        "6759": 92,
        "6760": 192,
        "6761": 60,
        "6762": 255,
        "6763": 14,
        "6764": 62,
        "6765": 237,
        "6766": 8,
        "6767": 142,
        "6768": 169,
        "6769": 9,
        "6770": 204,
        "6771": 0,
        "6772": 134,
        "6773": 251,
        "6774": 101,
        "6775": 248,
        "6776": 89,
        "6777": 21,
        "6778": 57,
        "6779": 215,
        "6780": 185,
        "6781": 123,
        "6782": 32,
        "6783": 227,
        "6784": 71,
        "6785": 73,
        "6786": 123,
        "6787": 27,
        "6788": 162,
        "6789": 58,
        "6790": 110,
        "6791": 226,
        "6792": 32,
        "6793": 205,
        "6794": 126,
        "6795": 147,
        "6796": 47,
        "6797": 11,
        "6798": 249,
        "6799": 246,
        "6800": 225,
        "6801": 180,
        "6802": 160,
        "6803": 45,
        "6804": 57,
        "6805": 89,
        "6806": 223,
        "6807": 3,
        "6808": 7,
        "6809": 182,
        "6810": 74,
        "6811": 207,
        "6812": 68,
        "6813": 18,
        "6814": 139,
        "6815": 4,
        "6816": 67,
        "6817": 13,
        "6818": 184,
        "6819": 16,
        "6820": 105,
        "6821": 231,
        "6822": 83,
        "6823": 161,
        "6824": 36,
        "6825": 121,
        "6826": 48,
        "6827": 122,
        "6828": 147,
        "6829": 93,
        "6830": 21,
        "6831": 162,
        "6832": 76,
        "6833": 237,
        "6834": 161,
        "6835": 194,
        "6836": 8,
        "6837": 170,
        "6838": 183,
        "6839": 128,
        "6840": 189,
        "6841": 147,
        "6842": 108,
        "6843": 136,
        "6844": 205,
        "6845": 30,
        "6846": 38,
        "6847": 212,
        "6848": 44,
        "6849": 234,
        "6850": 59,
        "6851": 251,
        "6852": 179,
        "6853": 119,
        "6854": 8,
        "6855": 38,
        "6856": 153,
        "6857": 176,
        "6858": 206,
        "6859": 142,
        "6860": 58,
        "6861": 78,
        "6862": 96,
        "6863": 229,
        "6864": 50,
        "6865": 177,
        "6866": 124,
        "6867": 11,
        "6868": 57,
        "6869": 97,
        "6870": 152,
        "6871": 82,
        "6872": 128,
        "6873": 220,
        "6874": 139,
        "6875": 179,
        "6876": 97,
        "6877": 209,
        "6878": 99,
        "6879": 150,
        "6880": 152,
        "6881": 207,
        "6882": 166,
        "6883": 31,
        "6884": 89,
        "6885": 29,
        "6886": 252,
        "6887": 20,
        "6888": 31,
        "6889": 63,
        "6890": 241,
        "6891": 249,
        "6892": 94,
        "6893": 109,
        "6894": 151,
        "6895": 97,
        "6896": 0,
        "6897": 125,
        "6898": 30,
        "6899": 157,
        "6900": 105,
        "6901": 180,
        "6902": 77,
        "6903": 185,
        "6904": 237,
        "6905": 204,
        "6906": 157,
        "6907": 52,
        "6908": 165,
        "6909": 246,
        "6910": 133,
        "6911": 245,
        "6912": 56,
        "6913": 199,
        "6914": 192,
        "6915": 175,
        "6916": 221,
        "6917": 140,
        "6918": 252,
        "6919": 178,
        "6920": 254,
        "6921": 124,
        "6922": 69,
        "6923": 246,
        "6924": 98,
        "6925": 182,
        "6926": 78,
        "6927": 146,
        "6928": 94,
        "6929": 6,
        "6930": 168,
        "6931": 255,
        "6932": 132,
        "6933": 246,
        "6934": 176,
        "6935": 12,
        "6936": 123,
        "6937": 180,
        "6938": 86,
        "6939": 186,
        "6940": 150,
        "6941": 221,
        "6942": 23,
        "6943": 150,
        "6944": 250,
        "6945": 14,
        "6946": 136,
        "6947": 146,
        "6948": 177,
        "6949": 210,
        "6950": 159,
        "6951": 195,
        "6952": 59,
        "6953": 164,
        "6954": 190,
        "6955": 37,
        "6956": 80,
        "6957": 35,
        "6958": 98,
        "6959": 175,
        "6960": 128,
        "6961": 225,
        "6962": 175,
        "6963": 86,
        "6964": 160,
        "6965": 74,
        "6966": 218,
        "6967": 5,
        "6968": 238,
        "6969": 113,
        "6970": 48,
        "6971": 250,
        "6972": 230,
        "6973": 114,
        "6974": 36,
        "6975": 70,
        "6976": 53,
        "6977": 19,
        "6978": 21,
        "6979": 48,
        "6980": 24,
        "6981": 104,
        "6982": 17,
        "6983": 180,
        "6984": 210,
        "6985": 42,
        "6986": 80,
        "6987": 107,
        "6988": 10,
        "6989": 170,
        "6990": 109,
        "6991": 112,
        "6992": 165,
        "6993": 26,
        "6994": 81,
        "6995": 23,
        "6996": 131,
        "6997": 61,
        "6998": 138,
        "6999": 64,
        "7000": 211,
        "7001": 163,
        "7002": 34,
        "7003": 195,
        "7004": 232,
        "7005": 110,
        "7006": 146,
        "7007": 237,
        "7008": 58,
        "7009": 84,
        "7010": 208,
        "7011": 240,
        "7012": 120,
        "7013": 88,
        "7014": 240,
        "7015": 39,
        "7016": 244,
        "7017": 94,
        "7018": 147,
        "7019": 94,
        "7020": 251,
        "7021": 63,
        "7022": 154,
        "7023": 165,
        "7024": 15,
        "7025": 121,
        "7026": 117,
        "7027": 101,
        "7028": 111,
        "7029": 52,
        "7030": 56,
        "7031": 116,
        "7032": 122,
        "7033": 4,
        "7034": 166,
        "7035": 253,
        "7036": 90,
        "7037": 182,
        "7038": 132,
        "7039": 121,
        "7040": 230,
        "7041": 249,
        "7042": 152,
        "7043": 186,
        "7044": 241,
        "7045": 250,
        "7046": 200,
        "7047": 40,
        "7048": 27,
        "7049": 211,
        "7050": 190,
        "7051": 79,
        "7052": 112,
        "7053": 12,
        "7054": 89,
        "7055": 195,
        "7056": 151,
        "7057": 195,
        "7058": 116,
        "7059": 241,
        "7060": 31,
        "7061": 245,
        "7062": 40,
        "7063": 36,
        "7064": 225,
        "7065": 49,
        "7066": 99,
        "7067": 26,
        "7068": 33,
        "7069": 102,
        "7070": 37,
        "7071": 158,
        "7072": 139,
        "7073": 165,
        "7074": 56,
        "7075": 137,
        "7076": 244,
        "7077": 62,
        "7078": 100,
        "7079": 164,
        "7080": 5,
        "7081": 152,
        "7082": 137,
        "7083": 199,
        "7084": 221,
        "7085": 47,
        "7086": 199,
        "7087": 151,
        "7088": 189,
        "7089": 62,
        "7090": 93,
        "7091": 187,
        "7092": 106,
        "7093": 15,
        "7094": 86,
        "7095": 204,
        "7096": 53,
        "7097": 243,
        "7098": 153,
        "7099": 243,
        "7100": 239,
        "7101": 120,
        "7102": 146,
        "7103": 104,
        "7104": 132,
        "7105": 182,
        "7106": 48,
        "7107": 130,
        "7108": 207,
        "7109": 153,
        "7110": 84,
        "7111": 69,
        "7112": 31,
        "7113": 221,
        "7114": 189,
        "7115": 177,
        "7116": 19,
        "7117": 148,
        "7118": 108,
        "7119": 169,
        "7120": 185,
        "7121": 140,
        "7122": 106,
        "7123": 0,
        "7124": 126,
        "7125": 17,
        "7126": 155,
        "7127": 101,
        "7128": 24,
        "7129": 100,
        "7130": 47,
        "7131": 7,
        "7132": 10,
        "7133": 175,
        "7134": 65,
        "7135": 231,
        "7136": 129,
        "7137": 66,
        "7138": 90,
        "7139": 185,
        "7140": 155,
        "7141": 117,
        "7142": 139,
        "7143": 13,
        "7144": 86,
        "7145": 198,
        "7146": 44,
        "7147": 175,
        "7148": 227,
        "7149": 124,
        "7150": 134,
        "7151": 61,
        "7152": 209,
        "7153": 186,
        "7154": 234,
        "7155": 5,
        "7156": 119,
        "7157": 59,
        "7158": 22,
        "7159": 252,
        "7160": 121,
        "7161": 182,
        "7162": 44,
        "7163": 34,
        "7164": 81,
        "7165": 69,
        "7166": 250,
        "7167": 5,
        "7168": 164,
        "7169": 76,
        "7170": 86,
        "7171": 34,
        "7172": 27,
        "7173": 186,
        "7174": 157,
        "7175": 54,
        "7176": 43,
        "7177": 51,
        "7178": 148,
        "7179": 139,
        "7180": 202,
        "7181": 64,
        "7182": 91,
        "7183": 62,
        "7184": 172,
        "7185": 62,
        "7186": 29,
        "7187": 0,
        "7188": 44,
        "7189": 93,
        "7190": 172,
        "7191": 76,
        "7192": 88,
        "7193": 162,
        "7194": 241,
        "7195": 192,
        "7196": 69,
        "7197": 187,
        "7198": 227,
        "7199": 192,
        "7200": 216,
        "7201": 8,
        "7202": 121,
        "7203": 17,
        "7204": 136,
        "7205": 84,
        "7206": 129,
        "7207": 126,
        "7208": 102,
        "7209": 22,
        "7210": 131,
        "7211": 86,
        "7212": 186,
        "7213": 160,
        "7214": 59,
        "7215": 105,
        "7216": 32,
        "7217": 249,
        "7218": 48,
        "7219": 54,
        "7220": 110,
        "7221": 57,
        "7222": 114,
        "7223": 19,
        "7224": 202,
        "7225": 181,
        "7226": 217,
        "7227": 211,
        "7228": 83,
        "7229": 182,
        "7230": 27,
        "7231": 72,
        "7232": 96,
        "7233": 75,
        "7234": 167,
        "7235": 23,
        "7236": 252,
        "7237": 147,
        "7238": 96,
        "7239": 93,
        "7240": 198,
        "7241": 172,
        "7242": 212,
        "7243": 125,
        "7244": 231,
        "7245": 157,
        "7246": 135,
        "7247": 220,
        "7248": 247,
        "7249": 98,
        "7250": 122,
        "7251": 170,
        "7252": 6,
        "7253": 233,
        "7254": 233,
        "7255": 88,
        "7256": 82,
        "7257": 221,
        "7258": 193,
        "7259": 242,
        "7260": 244,
        "7261": 246,
        "7262": 142,
        "7263": 200,
        "7264": 222,
        "7265": 119,
        "7266": 248,
        "7267": 30,
        "7268": 163,
        "7269": 181,
        "7270": 144,
        "7271": 193,
        "7272": 249,
        "7273": 154,
        "7274": 255,
        "7275": 21,
        "7276": 23,
        "7277": 173,
        "7278": 108,
        "7279": 127,
        "7280": 209,
        "7281": 77,
        "7282": 102,
        "7283": 95,
        "7284": 78,
        "7285": 236,
        "7286": 161,
        "7287": 162,
        "7288": 37,
        "7289": 58,
        "7290": 172,
        "7291": 88,
        "7292": 232,
        "7293": 247,
        "7294": 57,
        "7295": 59,
        "7296": 242,
        "7297": 165,
        "7298": 110,
        "7299": 39,
        "7300": 248,
        "7301": 249,
        "7302": 245,
        "7303": 26,
        "7304": 134,
        "7305": 0,
        "7306": 248,
        "7307": 99,
        "7308": 94,
        "7309": 104,
        "7310": 110,
        "7311": 219,
        "7312": 80,
        "7313": 207,
        "7314": 224,
        "7315": 246,
        "7316": 240,
        "7317": 99,
        "7318": 27,
        "7319": 76,
        "7320": 60,
        "7321": 204,
        "7322": 175,
        "7323": 222,
        "7324": 250,
        "7325": 199,
        "7326": 116,
        "7327": 50,
        "7328": 81,
        "7329": 64,
        "7330": 112,
        "7331": 66,
        "7332": 83,
        "7333": 123,
        "7334": 201,
        "7335": 42,
        "7336": 235,
        "7337": 248,
        "7338": 74,
        "7339": 190,
        "7340": 50,
        "7341": 35,
        "7342": 18,
        "7343": 161,
        "7344": 134,
        "7345": 235,
        "7346": 246,
        "7347": 250,
        "7348": 71,
        "7349": 16,
        "7350": 16,
        "7351": 93,
        "7352": 65,
        "7353": 134,
        "7354": 45,
        "7355": 132,
        "7356": 190,
        "7357": 200,
        "7358": 42,
        "7359": 126,
        "7360": 70,
        "7361": 23,
        "7362": 50,
        "7363": 110,
        "7364": 54,
        "7365": 74,
        "7366": 28,
        "7367": 189,
        "7368": 81,
        "7369": 128,
        "7370": 27,
        "7371": 36,
        "7372": 119,
        "7373": 253,
        "7374": 230,
        "7375": 117,
        "7376": 44,
        "7377": 5,
        "7378": 121,
        "7379": 195,
        "7380": 75,
        "7381": 101,
        "7382": 27,
        "7383": 242,
        "7384": 211,
        "7385": 209,
        "7386": 75,
        "7387": 59,
        "7388": 160,
        "7389": 114,
        "7390": 95,
        "7391": 107,
        "7392": 117,
        "7393": 140,
        "7394": 104,
        "7395": 76,
        "7396": 6,
        "7397": 198,
        "7398": 12,
        "7399": 165,
        "7400": 224,
        "7401": 206,
        "7402": 93,
        "7403": 189,
        "7404": 21,
        "7405": 180,
        "7406": 226,
        "7407": 86,
        "7408": 246,
        "7409": 142,
        "7410": 119,
        "7411": 94,
        "7412": 86,
        "7413": 246,
        "7414": 139,
        "7415": 89,
        "7416": 58,
        "7417": 113,
        "7418": 120,
        "7419": 160,
        "7420": 14,
        "7421": 9,
        "7422": 126,
        "7423": 12,
        "7424": 215,
        "7425": 100,
        "7426": 26,
        "7427": 72,
        "7428": 86,
        "7429": 221,
        "7430": 121,
        "7431": 138,
        "7432": 226,
        "7433": 253,
        "7434": 72,
        "7435": 55,
        "7436": 107,
        "7437": 200,
        "7438": 147,
        "7439": 55,
        "7440": 161,
        "7441": 46,
        "7442": 3,
        "7443": 37,
        "7444": 86,
        "7445": 151,
        "7446": 197,
        "7447": 94,
        "7448": 68,
        "7449": 119,
        "7450": 155,
        "7451": 8,
        "7452": 106,
        "7453": 115,
        "7454": 252,
        "7455": 123,
        "7456": 79,
        "7457": 101,
        "7458": 217,
        "7459": 142,
        "7460": 135,
        "7461": 231,
        "7462": 143,
        "7463": 209,
        "7464": 118,
        "7465": 1,
        "7466": 167,
        "7467": 1,
        "7468": 90,
        "7469": 8,
        "7470": 54,
        "7471": 70,
        "7472": 161,
        "7473": 198,
        "7474": 224,
        "7475": 48,
        "7476": 251,
        "7477": 165,
        "7478": 45,
        "7479": 222,
        "7480": 50,
        "7481": 148,
        "7482": 226,
        "7483": 68,
        "7484": 123,
        "7485": 131,
        "7486": 166,
        "7487": 105,
        "7488": 213,
        "7489": 196,
        "7490": 191,
        "7491": 227,
        "7492": 0,
        "7493": 104,
        "7494": 244,
        "7495": 117,
        "7496": 43,
        "7497": 132,
        "7498": 253,
        "7499": 205,
        "7500": 246,
        "7501": 114,
        "7502": 146,
        "7503": 40,
        "7504": 94,
        "7505": 126,
        "7506": 38,
        "7507": 121,
        "7508": 41,
        "7509": 126,
        "7510": 193,
        "7511": 39,
        "7512": 191,
        "7513": 75,
        "7514": 54,
        "7515": 192,
        "7516": 119,
        "7517": 2,
        "7518": 198,
        "7519": 248,
        "7520": 205,
        "7521": 189,
        "7522": 249,
        "7523": 195,
        "7524": 153,
        "7525": 218,
        "7526": 158,
        "7527": 0,
        "7528": 26,
        "7529": 64,
        "7530": 137,
        "7531": 161,
        "7532": 2,
        "7533": 129,
        "7534": 143,
        "7535": 17,
        "7536": 198,
        "7537": 176,
        "7538": 235,
        "7539": 66,
        "7540": 195,
        "7541": 246,
        "7542": 164,
        "7543": 38,
        "7544": 104,
        "7545": 13,
        "7546": 100,
        "7547": 151,
        "7548": 4,
        "7549": 221,
        "7550": 202,
        "7551": 206,
        "7552": 210,
        "7553": 70,
        "7554": 95,
        "7555": 45,
        "7556": 22,
        "7557": 209,
        "7558": 2,
        "7559": 18,
        "7560": 180,
        "7561": 244,
        "7562": 22,
        "7563": 164,
        "7564": 230,
        "7565": 73,
        "7566": 140,
        "7567": 75,
        "7568": 20,
        "7569": 52,
        "7570": 64,
        "7571": 78,
        "7572": 120,
        "7573": 6,
        "7574": 162,
        "7575": 17,
        "7576": 232,
        "7577": 149,
        "7578": 119,
        "7579": 67,
        "7580": 221,
        "7581": 63,
        "7582": 176,
        "7583": 65,
        "7584": 219,
        "7585": 183,
        "7586": 135,
        "7587": 192,
        "7588": 235,
        "7589": 82,
        "7590": 4,
        "7591": 40,
        "7592": 24,
        "7593": 32,
        "7594": 176,
        "7595": 124,
        "7596": 52,
        "7597": 56,
        "7598": 125,
        "7599": 48,
        "7600": 164,
        "7601": 154,
        "7602": 116,
        "7603": 60,
        "7604": 15,
        "7605": 6,
        "7606": 230,
        "7607": 156,
        "7608": 80,
        "7609": 46,
        "7610": 59,
        "7611": 38,
        "7612": 186,
        "7613": 157,
        "7614": 72,
        "7615": 250,
        "7616": 60,
        "7617": 76,
        "7618": 103,
        "7619": 159,
        "7620": 195,
        "7621": 83,
        "7622": 252,
        "7623": 224,
        "7624": 155,
        "7625": 169,
        "7626": 10,
        "7627": 35,
        "7628": 36,
        "7629": 202,
        "7630": 152,
        "7631": 180,
        "7632": 128,
        "7633": 147,
        "7634": 146,
        "7635": 23,
        "7636": 205,
        "7637": 3,
        "7638": 1,
        "7639": 78,
        "7640": 97,
        "7641": 167,
        "7642": 17,
        "7643": 64,
        "7644": 56,
        "7645": 81,
        "7646": 197,
        "7647": 89,
        "7648": 186,
        "7649": 60,
        "7650": 70,
        "7651": 233,
        "7652": 97,
        "7653": 83,
        "7654": 40,
        "7655": 235,
        "7656": 233,
        "7657": 137,
        "7658": 175,
        "7659": 121,
        "7660": 160,
        "7661": 43,
        "7662": 248,
        "7663": 212,
        "7664": 89,
        "7665": 6,
        "7666": 49,
        "7667": 12,
        "7668": 208,
        "7669": 64,
        "7670": 23,
        "7671": 246,
        "7672": 77,
        "7673": 94,
        "7674": 205,
        "7675": 74,
        "7676": 95,
        "7677": 51,
        "7678": 99,
        "7679": 102,
        "7680": 42,
        "7681": 153,
        "7682": 0,
        "7683": 91,
        "7684": 38,
        "7685": 41,
        "7686": 213,
        "7687": 97,
        "7688": 69,
        "7689": 112,
        "7690": 111,
        "7691": 77,
        "7692": 36,
        "7693": 5,
        "7694": 207,
        "7695": 148,
        "7696": 54,
        "7697": 234,
        "7698": 172,
        "7699": 61,
        "7700": 83,
        "7701": 136,
        "7702": 63,
        "7703": 0,
        "7704": 42,
        "7705": 148,
        "7706": 169,
        "7707": 203,
        "7708": 189,
        "7709": 79,
        "7710": 173,
        "7711": 123,
        "7712": 105,
        "7713": 127,
        "7714": 83,
        "7715": 159,
        "7716": 119,
        "7717": 211,
        "7718": 213,
        "7719": 20,
        "7720": 3,
        "7721": 90,
        "7722": 81,
        "7723": 127,
        "7724": 134,
        "7725": 224,
        "7726": 21,
        "7727": 150,
        "7728": 149,
        "7729": 197,
        "7730": 138,
        "7731": 89,
        "7732": 211,
        "7733": 102,
        "7734": 82,
        "7735": 31,
        "7736": 180,
        "7737": 57,
        "7738": 147,
        "7739": 8,
        "7740": 156,
        "7741": 194,
        "7742": 102,
        "7743": 148,
        "7744": 140,
        "7745": 228,
        "7746": 117,
        "7747": 35,
        "7748": 42,
        "7749": 79,
        "7750": 235,
        "7751": 147,
        "7752": 78,
        "7753": 64,
        "7754": 118,
        "7755": 126,
        "7756": 47,
        "7757": 160,
        "7758": 154,
        "7759": 235,
        "7760": 160,
        "7761": 244,
        "7762": 186,
        "7763": 87,
        "7764": 160,
        "7765": 53,
        "7766": 80,
        "7767": 134,
        "7768": 15,
        "7769": 235,
        "7770": 213,
        "7771": 170,
        "7772": 244,
        "7773": 47,
        "7774": 30,
        "7775": 40,
        "7776": 126,
        "7777": 26,
        "7778": 246,
        "7779": 194,
        "7780": 150,
        "7781": 26,
        "7782": 232,
        "7783": 120,
        "7784": 187,
        "7785": 219,
        "7786": 84,
        "7787": 119,
        "7788": 40,
        "7789": 202,
        "7790": 224,
        "7791": 249,
        "7792": 171,
        "7793": 203,
        "7794": 211,
        "7795": 54,
        "7796": 240,
        "7797": 175,
        "7798": 106,
        "7799": 154,
        "7800": 104,
        "7801": 177,
        "7802": 6,
        "7803": 44,
        "7804": 95,
        "7805": 90,
        "7806": 30,
        "7807": 239,
        "7808": 239,
        "7809": 6,
        "7810": 120,
        "7811": 227,
        "7812": 71,
        "7813": 28,
        "7814": 221,
        "7815": 124,
        "7816": 231,
        "7817": 65,
        "7818": 52,
        "7819": 22,
        "7820": 192,
        "7821": 242,
        "7822": 47,
        "7823": 38,
        "7824": 41,
        "7825": 52,
        "7826": 216,
        "7827": 209,
        "7828": 235,
        "7829": 53,
        "7830": 198,
        "7831": 29,
        "7832": 113,
        "7833": 253,
        "7834": 94,
        "7835": 183,
        "7836": 164,
        "7837": 146,
        "7838": 167,
        "7839": 13,
        "7840": 39,
        "7841": 151,
        "7842": 129,
        "7843": 127,
        "7844": 170,
        "7845": 42,
        "7846": 179,
        "7847": 40,
        "7848": 106,
        "7849": 168,
        "7850": 238,
        "7851": 68,
        "7852": 183,
        "7853": 237,
        "7854": 138,
        "7855": 130,
        "7856": 235,
        "7857": 137,
        "7858": 87,
        "7859": 39,
        "7860": 240,
        "7861": 200,
        "7862": 133,
        "7863": 7,
        "7864": 241,
        "7865": 55,
        "7866": 203,
        "7867": 151,
        "7868": 135,
        "7869": 72,
        "7870": 38,
        "7871": 203,
        "7872": 154,
        "7873": 110,
        "7874": 18,
        "7875": 13,
        "7876": 91,
        "7877": 140,
        "7878": 159,
        "7879": 154,
        "7880": 127,
        "7881": 144,
        "7882": 129,
        "7883": 159,
        "7884": 117,
        "7885": 230,
        "7886": 156,
        "7887": 121,
        "7888": 197,
        "7889": 67,
        "7890": 76,
        "7891": 14,
        "7892": 27,
        "7893": 190,
        "7894": 27,
        "7895": 133,
        "7896": 184,
        "7897": 25,
        "7898": 56,
        "7899": 112,
        "7900": 16,
        "7901": 99,
        "7902": 101,
        "7903": 38,
        "7904": 201,
        "7905": 211,
        "7906": 63,
        "7907": 174,
        "7908": 146,
        "7909": 45,
        "7910": 68,
        "7911": 91,
        "7912": 243,
        "7913": 64,
        "7914": 236,
        "7915": 153,
        "7916": 227,
        "7917": 230,
        "7918": 214,
        "7919": 149,
        "7920": 0,
        "7921": 95,
        "7922": 215,
        "7923": 115,
        "7924": 35,
        "7925": 69,
        "7926": 244,
        "7927": 57,
        "7928": 157,
        "7929": 173,
        "7930": 163,
        "7931": 13,
        "7932": 107,
        "7933": 160,
        "7934": 223,
        "7935": 233,
        "7936": 51,
        "7937": 52,
        "7938": 114,
        "7939": 182,
        "7940": 247,
        "7941": 51,
        "7942": 236,
        "7943": 101,
        "7944": 164,
        "7945": 114,
        "7946": 120,
        "7947": 255,
        "7948": 192,
        "7949": 147,
        "7950": 78,
        "7951": 73,
        "7952": 71,
        "7953": 246,
        "7954": 36,
        "7955": 200,
        "7956": 41,
        "7957": 221,
        "7958": 6,
        "7959": 1,
        "7960": 131,
        "7961": 69,
        "7962": 211,
        "7963": 155,
        "7964": 240,
        "7965": 45,
        "7966": 220,
        "7967": 199,
        "7968": 156,
        "7969": 67,
        "7970": 177,
        "7971": 111,
        "7972": 189,
        "7973": 254,
        "7974": 162,
        "7975": 182,
        "7976": 229,
        "7977": 162,
        "7978": 220,
        "7979": 117,
        "7980": 75,
        "7981": 131,
        "7982": 116,
        "7983": 128,
        "7984": 162,
        "7985": 171,
        "7986": 215,
        "7987": 184,
        "7988": 4,
        "7989": 244,
        "7990": 80,
        "7991": 243,
        "7992": 146,
        "7993": 181,
        "7994": 187,
        "7995": 109,
        "7996": 56,
        "7997": 165,
        "7998": 124,
        "7999": 218,
        "8000": 147,
        "8001": 176,
        "8002": 228,
        "8003": 221,
        "8004": 67,
        "8005": 23,
        "8006": 179,
        "8007": 102,
        "8008": 250,
        "8009": 28,
        "8010": 106,
        "8011": 29,
        "8012": 199,
        "8013": 67,
        "8014": 142,
        "8015": 90,
        "8016": 227,
        "8017": 137,
        "8018": 171,
        "8019": 195,
        "8020": 149,
        "8021": 38,
        "8022": 244,
        "8023": 181,
        "8024": 141,
        "8025": 97,
        "8026": 14,
        "8027": 38,
        "8028": 193,
        "8029": 251,
        "8030": 86,
        "8031": 74,
        "8032": 223,
        "8033": 206,
        "8034": 160,
        "8035": 118,
        "8036": 114,
        "8037": 229,
        "8038": 26,
        "8039": 168,
        "8040": 31,
        "8041": 227,
        "8042": 67,
        "8043": 182,
        "8044": 106,
        "8045": 110,
        "8046": 151,
        "8047": 60,
        "8048": 79,
        "8049": 175,
        "8050": 233,
        "8051": 153,
        "8052": 90,
        "8053": 212,
        "8054": 224,
        "8055": 147,
        "8056": 156,
        "8057": 213,
        "8058": 182,
        "8059": 192,
        "8060": 236,
        "8061": 209,
        "8062": 90,
        "8063": 137,
        "8064": 134,
        "8065": 9,
        "8066": 115,
        "8067": 5,
        "8068": 203,
        "8069": 255,
        "8070": 238,
        "8071": 211,
        "8072": 166,
        "8073": 24,
        "8074": 71,
        "8075": 93,
        "8076": 6,
        "8077": 47,
        "8078": 36,
        "8079": 137,
        "8080": 248,
        "8081": 62,
        "8082": 126,
        "8083": 232,
        "8084": 255,
        "8085": 169,
        "8086": 226,
        "8087": 142,
        "8088": 98,
        "8089": 96,
        "8090": 57,
        "8091": 200,
        "8092": 70,
        "8093": 34,
        "8094": 45,
        "8095": 252,
        "8096": 119,
        "8097": 40,
        "8098": 193,
        "8099": 153,
        "8100": 223,
        "8101": 205,
        "8102": 130,
        "8103": 72,
        "8104": 75,
        "8105": 76,
        "8106": 135,
        "8107": 230,
        "8108": 26,
        "8109": 220,
        "8110": 232,
        "8111": 243,
        "8112": 27,
        "8113": 34,
        "8114": 45,
        "8115": 201,
        "8116": 252,
        "8117": 221,
        "8118": 186,
        "8119": 87,
        "8120": 119,
        "8121": 155,
        "8122": 11,
        "8123": 250,
        "8124": 116,
        "8125": 87,
        "8126": 55,
        "8127": 53,
        "8128": 63,
        "8129": 73,
        "8130": 83,
        "8131": 28,
        "8132": 202,
        "8133": 121,
        "8134": 159,
        "8135": 154,
        "8136": 177,
        "8137": 239,
        "8138": 211,
        "8139": 141,
        "8140": 232,
        "8141": 39,
        "8142": 12,
        "8143": 97,
        "8144": 117,
        "8145": 96,
        "8146": 62,
        "8147": 48,
        "8148": 12,
        "8149": 140,
        "8150": 86,
        "8151": 254,
        "8152": 22,
        "8153": 94,
        "8154": 181,
        "8155": 27,
        "8156": 78,
        "8157": 182,
        "8158": 161,
        "8159": 152,
        "8160": 246,
        "8161": 150,
        "8162": 171,
        "8163": 181,
        "8164": 124,
        "8165": 69,
        "8166": 249,
        "8167": 85,
        "8168": 252,
        "8169": 31,
        "8170": 53,
        "8171": 71,
        "8172": 51,
        "8173": 131,
        "8174": 55,
        "8175": 63,
        "8176": 66,
        "8177": 26,
        "8178": 42,
        "8179": 161,
        "8180": 215,
        "8181": 90,
        "8182": 196,
        "8183": 7,
        "8184": 188,
        "8185": 249,
        "8186": 203,
        "8187": 72,
        "8188": 115,
        "8189": 227,
        "8190": 119,
        "8191": 98,
        "8192": 95,
        "8193": 88,
        "8194": 63,
        "8195": 193,
        "8196": 213,
        "8197": 115,
        "8198": 173,
        "8199": 156,
        "8200": 183,
        "8201": 141,
        "8202": 26,
        "8203": 92,
        "8204": 31,
        "8205": 253,
        "8206": 4,
        "8207": 217,
        "8208": 74,
        "8209": 201,
        "8210": 175,
        "8211": 218,
        "8212": 221,
        "8213": 52,
        "8214": 101,
        "8215": 26,
        "8216": 171,
        "8217": 46,
        "8218": 33,
        "8219": 106,
        "8220": 111,
        "8221": 197,
        "8222": 25,
        "8223": 110,
        "8224": 215,
        "8225": 168,
        "8226": 69,
        "8227": 231,
        "8228": 181,
        "8229": 31,
        "8230": 121,
        "8231": 116,
        "8232": 19,
        "8233": 50,
        "8234": 126,
        "8235": 23,
        "8236": 13,
        "8237": 95,
        "8238": 151,
        "8239": 163,
        "8240": 55,
        "8241": 215,
        "8242": 31,
        "8243": 29,
        "8244": 157,
        "8245": 98,
        "8246": 245,
        "8247": 62,
        "8248": 74,
        "8249": 13,
        "8250": 107,
        "8251": 222,
        "8252": 232,
        "8253": 17,
        "8254": 1,
        "8255": 12,
        "8256": 119,
        "8257": 140,
        "8258": 222,
        "8259": 41,
        "8260": 80,
        "8261": 139,
        "8262": 80,
        "8263": 195,
        "8264": 35,
        "8265": 81,
        "8266": 3,
        "8267": 21,
        "8268": 136,
        "8269": 144,
        "8270": 82,
        "8271": 116,
        "8272": 92,
        "8273": 215,
        "8274": 207,
        "8275": 180,
        "8276": 72,
        "8277": 59,
        "8278": 241,
        "8279": 179,
        "8280": 129,
        "8281": 234,
        "8282": 3,
        "8283": 216,
        "8284": 81,
        "8285": 118,
        "8286": 21,
        "8287": 98,
        "8288": 140,
        "8289": 204,
        "8290": 140,
        "8291": 6,
        "8292": 239,
        "8293": 152,
        "8294": 127,
        "8295": 24,
        "8296": 3,
        "8297": 90,
        "8298": 212,
        "8299": 108,
        "8300": 21,
        "8301": 183,
        "8302": 132,
        "8303": 199,
        "8304": 90,
        "8305": 120,
        "8306": 175,
        "8307": 175,
        "8308": 71,
        "8309": 107,
        "8310": 64,
        "8311": 29,
        "8312": 3,
        "8313": 62,
        "8314": 216,
        "8315": 60,
        "8316": 71,
        "8317": 186,
        "8318": 147,
        "8319": 50,
        "8320": 194,
        "8321": 88,
        "8322": 92,
        "8323": 204,
        "8324": 92,
        "8325": 47,
        "8326": 221,
        "8327": 186,
        "8328": 114,
        "8329": 219,
        "8330": 215,
        "8331": 242,
        "8332": 112,
        "8333": 65,
        "8334": 124,
        "8335": 255,
        "8336": 107,
        "8337": 91,
        "8338": 54,
        "8339": 20,
        "8340": 68,
        "8341": 43,
        "8342": 158,
        "8343": 36,
        "8344": 243,
        "8345": 186,
        "8346": 1,
        "8347": 201,
        "8348": 183,
        "8349": 83,
        "8350": 102,
        "8351": 229,
        "8352": 50,
        "8353": 238,
        "8354": 73,
        "8355": 83,
        "8356": 35,
        "8357": 170,
        "8358": 139,
        "8359": 141,
        "8360": 104,
        "8361": 65,
        "8362": 25,
        "8363": 162,
        "8364": 162,
        "8365": 70,
        "8366": 96,
        "8367": 124,
        "8368": 200,
        "8369": 86,
        "8370": 60,
        "8371": 84,
        "8372": 100,
        "8373": 176,
        "8374": 64,
        "8375": 59,
        "8376": 179,
        "8377": 60,
        "8378": 206,
        "8379": 113,
        "8380": 136,
        "8381": 112,
        "8382": 250,
        "8383": 199,
        "8384": 98,
        "8385": 30,
        "8386": 73,
        "8387": 253,
        "8388": 105,
        "8389": 227,
        "8390": 145,
        "8391": 75,
        "8392": 27,
        "8393": 252,
        "8394": 152,
        "8395": 91,
        "8396": 204,
        "8397": 235,
        "8398": 70,
        "8399": 213,
        "8400": 140,
        "8401": 90,
        "8402": 207,
        "8403": 221,
        "8404": 133,
        "8405": 3,
        "8406": 49,
        "8407": 59,
        "8408": 122,
        "8409": 149,
        "8410": 116,
        "8411": 100,
        "8412": 27,
        "8413": 122,
        "8414": 238,
        "8415": 39,
        "8416": 124,
        "8417": 253,
        "8418": 96,
        "8419": 4,
        "8420": 54,
        "8421": 211,
        "8422": 142,
        "8423": 43,
        "8424": 84,
        "8425": 172,
        "8426": 76,
        "8427": 62,
        "8428": 88,
        "8429": 28,
        "8430": 114,
        "8431": 246,
        "8432": 147,
        "8433": 151,
        "8434": 13,
        "8435": 138,
        "8436": 231,
        "8437": 127,
        "8438": 157,
        "8439": 220,
        "8440": 109,
        "8441": 3,
        "8442": 121,
        "8443": 119,
        "8444": 157,
        "8445": 77,
        "8446": 139,
        "8447": 239,
        "8448": 137,
        "8449": 180,
        "8450": 119,
        "8451": 186,
        "8452": 86,
        "8453": 127,
        "8454": 195,
        "8455": 104,
        "8456": 164,
        "8457": 198,
        "8458": 177,
        "8459": 87,
        "8460": 213,
        "8461": 253,
        "8462": 135,
        "8463": 66,
        "8464": 31,
        "8465": 4,
        "8466": 177,
        "8467": 229,
        "8468": 222,
        "8469": 207,
        "8470": 6,
        "8471": 65,
        "8472": 164,
        "8473": 154,
        "8474": 135,
        "8475": 107,
        "8476": 35,
        "8477": 12,
        "8478": 90,
        "8479": 55,
        "8480": 220,
        "8481": 140,
        "8482": 161,
        "8483": 134,
        "8484": 132,
        "8485": 110,
        "8486": 201,
        "8487": 102,
        "8488": 38,
        "8489": 194,
        "8490": 46,
        "8491": 29,
        "8492": 54,
        "8493": 185,
        "8494": 234,
        "8495": 112,
        "8496": 243,
        "8497": 19,
        "8498": 81,
        "8499": 216,
        "8500": 241,
        "8501": 116,
        "8502": 204,
        "8503": 221,
        "8504": 111,
        "8505": 123,
        "8506": 49,
        "8507": 196,
        "8508": 154,
        "8509": 144,
        "8510": 85,
        "8511": 39,
        "8512": 12,
        "8513": 228,
        "8514": 179,
        "8515": 157,
        "8516": 227,
        "8517": 141,
        "8518": 100,
        "8519": 73,
        "8520": 70,
        "8521": 108,
        "8522": 180,
        "8523": 231,
        "8524": 165,
        "8525": 104,
        "8526": 48,
        "8527": 249,
        "8528": 48,
        "8529": 28,
        "8530": 160,
        "8531": 227,
        "8532": 143,
        "8533": 196,
        "8534": 173,
        "8535": 224,
        "8536": 88,
        "8537": 132,
        "8538": 189,
        "8539": 97,
        "8540": 111,
        "8541": 224,
        "8542": 50,
        "8543": 88,
        "8544": 230,
        "8545": 246,
        "8546": 112,
        "8547": 109,
        "8548": 67,
        "8549": 17,
        "8550": 81,
        "8551": 187,
        "8552": 70,
        "8553": 8,
        "8554": 102,
        "8555": 80,
        "8556": 28,
        "8557": 76,
        "8558": 197,
        "8559": 106,
        "8560": 181,
        "8561": 65,
        "8562": 97,
        "8563": 39,
        "8564": 238,
        "8565": 99,
        "8566": 171,
        "8567": 115,
        "8568": 145,
        "8569": 198,
        "8570": 170,
        "8571": 191,
        "8572": 250,
        "8573": 100,
        "8574": 6,
        "8575": 243,
        "8576": 95,
        "8577": 59,
        "8578": 19,
        "8579": 145,
        "8580": 48,
        "8581": 249,
        "8582": 197,
        "8583": 163,
        "8584": 54,
        "8585": 10,
        "8586": 118,
        "8587": 18,
        "8588": 87,
        "8589": 67,
        "8590": 153,
        "8591": 241,
        "8592": 104,
        "8593": 119,
        "8594": 191,
        "8595": 11,
        "8596": 73,
        "8597": 107,
        "8598": 233,
        "8599": 252,
        "8600": 146,
        "8601": 56,
        "8602": 74,
        "8603": 28,
        "8604": 8,
        "8605": 2,
        "8606": 205,
        "8607": 29,
        "8608": 151,
        "8609": 83,
        "8610": 37,
        "8611": 231,
        "8612": 154,
        "8613": 168,
        "8614": 60,
        "8615": 75,
        "8616": 146,
        "8617": 50,
        "8618": 169,
        "8619": 61,
        "8620": 106,
        "8621": 193,
        "8622": 0,
        "8623": 63,
        "8624": 38,
        "8625": 73,
        "8626": 112,
        "8627": 119,
        "8628": 109,
        "8629": 121,
        "8630": 133,
        "8631": 224,
        "8632": 182,
        "8633": 214,
        "8634": 183,
        "8635": 233,
        "8636": 242,
        "8637": 103,
        "8638": 225,
        "8639": 187,
        "8640": 146,
        "8641": 6,
        "8642": 57,
        "8643": 186,
        "8644": 149,
        "8645": 43,
        "8646": 254,
        "8647": 175,
        "8648": 199,
        "8649": 91,
        "8650": 30,
        "8651": 80,
        "8652": 174,
        "8653": 178,
        "8654": 18,
        "8655": 241,
        "8656": 158,
        "8657": 216,
        "8658": 198,
        "8659": 206,
        "8660": 194,
        "8661": 241,
        "8662": 123,
        "8663": 186,
        "8664": 200,
        "8665": 189,
        "8666": 13,
        "8667": 250,
        "8668": 104,
        "8669": 138,
        "8670": 241,
        "8671": 39,
        "8672": 98,
        "8673": 131,
        "8674": 162,
        "8675": 189,
        "8676": 16,
        "8677": 188,
        "8678": 158,
        "8679": 167,
        "8680": 128,
        "8681": 68,
        "8682": 151,
        "8683": 162,
        "8684": 20,
        "8685": 246,
        "8686": 182,
        "8687": 87,
        "8688": 180,
        "8689": 54,
        "8690": 179,
        "8691": 7,
        "8692": 115,
        "8693": 121,
        "8694": 40,
        "8695": 168,
        "8696": 47,
        "8697": 26,
        "8698": 243,
        "8699": 163,
        "8700": 89,
        "8701": 207,
        "8702": 176,
        "8703": 188,
        "8704": 108,
        "8705": 199,
        "8706": 157,
        "8707": 76,
        "8708": 216,
        "8709": 18,
        "8710": 88,
        "8711": 186,
        "8712": 223,
        "8713": 177,
        "8714": 185,
        "8715": 255,
        "8716": 202,
        "8717": 125,
        "8718": 120,
        "8719": 16,
        "8720": 2,
        "8721": 145,
        "8722": 131,
        "8723": 29,
        "8724": 46,
        "8725": 192,
        "8726": 253,
        "8727": 146,
        "8728": 107,
        "8729": 184,
        "8730": 172,
        "8731": 31,
        "8732": 73,
        "8733": 116,
        "8734": 42,
        "8735": 29,
        "8736": 185,
        "8737": 65,
        "8738": 246,
        "8739": 139,
        "8740": 133,
        "8741": 194,
        "8742": 94,
        "8743": 169,
        "8744": 161,
        "8745": 32,
        "8746": 169,
        "8747": 79,
        "8748": 253,
        "8749": 113,
        "8750": 161,
        "8751": 48,
        "8752": 51,
        "8753": 14,
        "8754": 24,
        "8755": 234,
        "8756": 43,
        "8757": 222,
        "8758": 159,
        "8759": 77,
        "8760": 123,
        "8761": 123,
        "8762": 69,
        "8763": 62,
        "8764": 96,
        "8765": 167,
        "8766": 228,
        "8767": 144,
        "8768": 117,
        "8769": 93,
        "8770": 191,
        "8771": 226,
        "8772": 223,
        "8773": 91,
        "8774": 183,
        "8775": 52,
        "8776": 141,
        "8777": 35,
        "8778": 101,
        "8779": 82,
        "8780": 68,
        "8781": 193,
        "8782": 32,
        "8783": 51,
        "8784": 196,
        "8785": 84,
        "8786": 86,
        "8787": 143,
        "8788": 192,
        "8789": 190,
        "8790": 164,
        "8791": 79,
        "8792": 167,
        "8793": 152,
        "8794": 118,
        "8795": 71,
        "8796": 219,
        "8797": 25,
        "8798": 18,
        "8799": 18,
        "8800": 232,
        "8801": 84,
        "8802": 34,
        "8803": 86,
        "8804": 97,
        "8805": 60,
        "8806": 211,
        "8807": 88,
        "8808": 108,
        "8809": 7,
        "8810": 106,
        "8811": 69,
        "8812": 245,
        "8813": 32,
        "8814": 171,
        "8815": 63,
        "8816": 249,
        "8817": 197,
        "8818": 219,
        "8819": 99,
        "8820": 195,
        "8821": 239,
        "8822": 198,
        "8823": 227,
        "8824": 85,
        "8825": 112,
        "8826": 125,
        "8827": 177,
        "8828": 61,
        "8829": 239,
        "8830": 138,
        "8831": 34,
        "8832": 134,
        "8833": 166,
        "8834": 165,
        "8835": 160,
        "8836": 137,
        "8837": 204,
        "8838": 128,
        "8839": 89,
        "8840": 126,
        "8841": 99,
        "8842": 229,
        "8843": 184,
        "8844": 223,
        "8845": 234,
        "8846": 182,
        "8847": 228,
        "8848": 127,
        "8849": 144,
        "8850": 248,
        "8851": 144,
        "8852": 32,
        "8853": 3,
        "8854": 68,
        "8855": 45,
        "8856": 28,
        "8857": 8,
        "8858": 186,
        "8859": 179,
        "8860": 120,
        "8861": 129,
        "8862": 209,
        "8863": 60,
        "8864": 227,
        "8865": 50,
        "8866": 63,
        "8867": 143,
        "8868": 100,
        "8869": 209,
        "8870": 20,
        "8871": 54,
        "8872": 241,
        "8873": 7,
        "8874": 120,
        "8875": 152,
        "8876": 185,
        "8877": 137,
        "8878": 44,
        "8879": 89,
        "8880": 41,
        "8881": 188,
        "8882": 102,
        "8883": 166,
        "8884": 79,
        "8885": 143,
        "8886": 92,
        "8887": 87,
        "8888": 116,
        "8889": 162,
        "8890": 180,
        "8891": 231,
        "8892": 178,
        "8893": 170,
        "8894": 238,
        "8895": 168,
        "8896": 145,
        "8897": 196,
        "8898": 37,
        "8899": 105,
        "8900": 135,
        "8901": 55,
        "8902": 244,
        "8903": 147,
        "8904": 242,
        "8905": 66,
        "8906": 67,
        "8907": 60,
        "8908": 173,
        "8909": 167,
        "8910": 190,
        "8911": 72,
        "8912": 1,
        "8913": 185,
        "8914": 196,
        "8915": 161,
        "8916": 144,
        "8917": 21,
        "8918": 105,
        "8919": 51,
        "8920": 39,
        "8921": 202,
        "8922": 33,
        "8923": 42,
        "8924": 219,
        "8925": 133,
        "8926": 166,
        "8927": 172,
        "8928": 104,
        "8929": 69,
        "8930": 123,
        "8931": 251,
        "8932": 34,
        "8933": 140,
        "8934": 11,
        "8935": 244,
        "8936": 57,
        "8937": 210,
        "8938": 45,
        "8939": 161,
        "8940": 73,
        "8941": 178,
        "8942": 245,
        "8943": 130,
        "8944": 131,
        "8945": 180,
        "8946": 104,
        "8947": 137,
        "8948": 62,
        "8949": 83,
        "8950": 186,
        "8951": 238,
        "8952": 80,
        "8953": 29,
        "8954": 157,
        "8955": 113,
        "8956": 172,
        "8957": 128,
        "8958": 44,
        "8959": 13,
        "8960": 4,
        "8961": 144,
        "8962": 145,
        "8963": 109,
        "8964": 147,
        "8965": 7,
        "8966": 189,
        "8967": 226,
        "8968": 219,
        "8969": 98,
        "8970": 246,
        "8971": 240,
        "8972": 203,
        "8973": 134,
        "8974": 230,
        "8975": 149,
        "8976": 150,
        "8977": 94,
        "8978": 201,
        "8979": 80,
        "8980": 60,
        "8981": 18,
        "8982": 180,
        "8983": 133,
        "8984": 208,
        "8985": 201,
        "8986": 67,
        "8987": 160,
        "8988": 65,
        "8989": 244,
        "8990": 229,
        "8991": 210,
        "8992": 205,
        "8993": 229,
        "8994": 176,
        "8995": 185,
        "8996": 153,
        "8997": 88,
        "8998": 84,
        "8999": 196,
        "9000": 38,
        "9001": 144,
        "9002": 157,
        "9003": 209,
        "9004": 183,
        "9005": 130,
        "9006": 30,
        "9007": 223,
        "9008": 238,
        "9009": 231,
        "9010": 46,
        "9011": 248,
        "9012": 113,
        "9013": 27,
        "9014": 118,
        "9015": 173,
        "9016": 171,
        "9017": 183,
        "9018": 220,
        "9019": 83,
        "9020": 156,
        "9021": 55,
        "9022": 169,
        "9023": 113,
        "9024": 181,
        "9025": 74,
        "9026": 92,
        "9027": 210,
        "9028": 180,
        "9029": 148,
        "9030": 198,
        "9031": 153,
        "9032": 97,
        "9033": 160,
        "9034": 196,
        "9035": 223,
        "9036": 138,
        "9037": 100,
        "9038": 142,
        "9039": 74,
        "9040": 233,
        "9041": 120,
        "9042": 139,
        "9043": 166,
        "9044": 207,
        "9045": 19,
        "9046": 151,
        "9047": 240,
        "9048": 15,
        "9049": 35,
        "9050": 98,
        "9051": 234,
        "9052": 218,
        "9053": 194,
        "9054": 24,
        "9055": 72,
        "9056": 141,
        "9057": 104,
        "9058": 100,
        "9059": 83,
        "9060": 97,
        "9061": 183,
        "9062": 203,
        "9063": 96,
        "9064": 231,
        "9065": 203,
        "9066": 181,
        "9067": 112,
        "9068": 41,
        "9069": 167,
        "9070": 101,
        "9071": 129,
        "9072": 220,
        "9073": 109,
        "9074": 112,
        "9075": 51,
        "9076": 77,
        "9077": 247,
        "9078": 69,
        "9079": 32,
        "9080": 177,
        "9081": 183,
        "9082": 173,
        "9083": 87,
        "9084": 51,
        "9085": 85,
        "9086": 135,
        "9087": 188,
        "9088": 232,
        "9089": 140,
        "9090": 149,
        "9091": 234,
        "9092": 202,
        "9093": 19,
        "9094": 7,
        "9095": 32,
        "9096": 246,
        "9097": 6,
        "9098": 212,
        "9099": 179,
        "9100": 128,
        "9101": 122,
        "9102": 166,
        "9103": 62,
        "9104": 190,
        "9105": 19,
        "9106": 181,
        "9107": 221,
        "9108": 233,
        "9109": 173,
        "9110": 110,
        "9111": 43,
        "9112": 195,
        "9113": 4,
        "9114": 66,
        "9115": 131,
        "9116": 246,
        "9117": 34,
        "9118": 253,
        "9119": 134,
        "9120": 84,
        "9121": 92,
        "9122": 50,
        "9123": 212,
        "9124": 131,
        "9125": 19,
        "9126": 232,
        "9127": 226,
        "9128": 135,
        "9129": 50,
        "9130": 254,
        "9131": 21,
        "9132": 82,
        "9133": 136,
        "9134": 163,
        "9135": 119,
        "9136": 177,
        "9137": 162,
        "9138": 205,
        "9139": 56,
        "9140": 237,
        "9141": 152,
        "9142": 153,
        "9143": 110,
        "9144": 204,
        "9145": 83,
        "9146": 59,
        "9147": 129,
        "9148": 194,
        "9149": 241,
        "9150": 18,
        "9151": 172,
        "9152": 106,
        "9153": 156,
        "9154": 116,
        "9155": 171,
        "9156": 207,
        "9157": 153,
        "9158": 159,
        "9159": 109,
        "9160": 11,
        "9161": 158,
        "9162": 167,
        "9163": 223,
        "9164": 182,
        "9165": 77,
        "9166": 27,
        "9167": 27,
        "9168": 156,
        "9169": 116,
        "9170": 96,
        "9171": 47,
        "9172": 202,
        "9173": 24,
        "9174": 21,
        "9175": 167,
        "9176": 159,
        "9177": 127,
        "9178": 129,
        "9179": 31,
        "9180": 142,
        "9181": 178,
        "9182": 255,
        "9183": 125,
        "9184": 168,
        "9185": 137,
        "9186": 243,
        "9187": 74,
        "9188": 255,
        "9189": 118,
        "9190": 9,
        "9191": 205,
        "9192": 215,
        "9193": 4,
        "9194": 236,
        "9195": 234,
        "9196": 108,
        "9197": 193,
        "9198": 83,
        "9199": 251,
        "9200": 221,
        "9201": 114,
        "9202": 242,
        "9203": 209,
        "9204": 232,
        "9205": 68,
        "9206": 59,
        "9207": 13,
        "9208": 181,
        "9209": 188,
        "9210": 191,
        "9211": 153,
        "9212": 205,
        "9213": 205,
        "9214": 188,
        "9215": 52,
        "9216": 192,
        "9217": 171,
        "9218": 46,
        "9219": 199,
        "9220": 35,
        "9221": 215,
        "9222": 228,
        "9223": 17,
        "9224": 48,
        "9225": 187,
        "9226": 8,
        "9227": 126,
        "9228": 218,
        "9229": 100,
        "9230": 235,
        "9231": 48,
        "9232": 169,
        "9233": 54,
        "9234": 207,
        "9235": 201,
        "9236": 79,
        "9237": 110,
        "9238": 138,
        "9239": 213,
        "9240": 196,
        "9241": 73,
        "9242": 124,
        "9243": 157,
        "9244": 226,
        "9245": 182,
        "9246": 104,
        "9247": 65,
        "9248": 213,
        "9249": 191,
        "9250": 35,
        "9251": 162,
        "9252": 16,
        "9253": 29,
        "9254": 37,
        "9255": 231,
        "9256": 16,
        "9257": 27,
        "9258": 151,
        "9259": 133,
        "9260": 216,
        "9261": 235,
        "9262": 113,
        "9263": 208,
        "9264": 110,
        "9265": 192,
        "9266": 105,
        "9267": 145,
        "9268": 53,
        "9269": 249,
        "9270": 29,
        "9271": 15,
        "9272": 123,
        "9273": 172,
        "9274": 8,
        "9275": 177,
        "9276": 215,
        "9277": 239,
        "9278": 23,
        "9279": 62,
        "9280": 175,
        "9281": 80,
        "9282": 8,
        "9283": 143,
        "9284": 159,
        "9285": 50,
        "9286": 251,
        "9287": 143,
        "9288": 6,
        "9289": 249,
        "9290": 78,
        "9291": 209,
        "9292": 237,
        "9293": 198,
        "9294": 168,
        "9295": 185,
        "9296": 254,
        "9297": 151,
        "9298": 45,
        "9299": 180,
        "9300": 87,
        "9301": 8,
        "9302": 165,
        "9303": 26,
        "9304": 128,
        "9305": 96,
        "9306": 81,
        "9307": 159,
        "9308": 164,
        "9309": 117,
        "9310": 92,
        "9311": 1,
        "9312": 102,
        "9313": 105,
        "9314": 165,
        "9315": 214,
        "9316": 27,
        "9317": 228,
        "9318": 69,
        "9319": 238,
        "9320": 38,
        "9321": 62,
        "9322": 93,
        "9323": 97,
        "9324": 76,
        "9325": 188,
        "9326": 103,
        "9327": 114,
        "9328": 90,
        "9329": 41,
        "9330": 164,
        "9331": 148,
        "9332": 66,
        "9333": 134,
        "9334": 51,
        "9335": 113,
        "9336": 171,
        "9337": 31,
        "9338": 15,
        "9339": 135,
        "9340": 57,
        "9341": 44,
        "9342": 145,
        "9343": 49,
        "9344": 161,
        "9345": 218,
        "9346": 132,
        "9347": 11,
        "9348": 103,
        "9349": 39,
        "9350": 135,
        "9351": 237,
        "9352": 255,
        "9353": 212,
        "9354": 29,
        "9355": 234,
        "9356": 81,
        "9357": 58,
        "9358": 128,
        "9359": 157,
        "9360": 162,
        "9361": 38,
        "9362": 85,
        "9363": 113,
        "9364": 158,
        "9365": 43,
        "9366": 196,
        "9367": 66,
        "9368": 221,
        "9369": 245,
        "9370": 211,
        "9371": 121,
        "9372": 89,
        "9373": 176,
        "9374": 135,
        "9375": 212,
        "9376": 19,
        "9377": 187,
        "9378": 223,
        "9379": 128,
        "9380": 100,
        "9381": 195,
        "9382": 242,
        "9383": 182,
        "9384": 61,
        "9385": 79,
        "9386": 228,
        "9387": 120,
        "9388": 97,
        "9389": 104,
        "9390": 215,
        "9391": 90,
        "9392": 67,
        "9393": 6,
        "9394": 193,
        "9395": 150,
        "9396": 94,
        "9397": 14,
        "9398": 145,
        "9399": 145,
        "9400": 58,
        "9401": 237,
        "9402": 243,
        "9403": 28,
        "9404": 241,
        "9405": 107,
        "9406": 31,
        "9407": 108,
        "9408": 129,
        "9409": 180,
        "9410": 204,
        "9411": 102,
        "9412": 142,
        "9413": 91,
        "9414": 193,
        "9415": 141,
        "9416": 124,
        "9417": 180,
        "9418": 123,
        "9419": 159,
        "9420": 79,
        "9421": 196,
        "9422": 103,
        "9423": 116,
        "9424": 236,
        "9425": 14,
        "9426": 194,
        "9427": 91,
        "9428": 70,
        "9429": 103,
        "9430": 97,
        "9431": 207,
        "9432": 21,
        "9433": 187,
        "9434": 233,
        "9435": 21,
        "9436": 60,
        "9437": 35,
        "9438": 45,
        "9439": 33,
        "9440": 59,
        "9441": 60,
        "9442": 9,
        "9443": 208,
        "9444": 98,
        "9445": 100,
        "9446": 205,
        "9447": 84,
        "9448": 230,
        "9449": 41,
        "9450": 149,
        "9451": 222,
        "9452": 30,
        "9453": 59,
        "9454": 184,
        "9455": 73,
        "9456": 121,
        "9457": 34,
        "9458": 251,
        "9459": 93,
        "9460": 17,
        "9461": 143,
        "9462": 19,
        "9463": 78,
        "9464": 238,
        "9465": 10,
        "9466": 147,
        "9467": 113,
        "9468": 237,
        "9469": 187,
        "9470": 165,
        "9471": 174,
        "9472": 90,
        "9473": 117,
        "9474": 202,
        "9475": 25,
        "9476": 4,
        "9477": 99,
        "9478": 216,
        "9479": 163,
        "9480": 94,
        "9481": 68,
        "9482": 31,
        "9483": 6,
        "9484": 48,
        "9485": 91,
        "9486": 115,
        "9487": 68,
        "9488": 33,
        "9489": 130,
        "9490": 74,
        "9491": 255,
        "9492": 19,
        "9493": 4,
        "9494": 84,
        "9495": 93,
        "9496": 15,
        "9497": 224,
        "9498": 186,
        "9499": 5,
        "9500": 22,
        "9501": 80,
        "9502": 235,
        "9503": 178,
        "9504": 97,
        "9505": 76,
        "9506": 67,
        "9507": 118,
        "9508": 204,
        "9509": 169,
        "9510": 93,
        "9511": 101,
        "9512": 103,
        "9513": 107,
        "9514": 158,
        "9515": 27,
        "9516": 85,
        "9517": 223,
        "9518": 123,
        "9519": 133,
        "9520": 12,
        "9521": 67,
        "9522": 41,
        "9523": 89,
        "9524": 18,
        "9525": 5,
        "9526": 179,
        "9527": 187,
        "9528": 1,
        "9529": 91,
        "9530": 102,
        "9531": 171,
        "9532": 74,
        "9533": 134,
        "9534": 159,
        "9535": 54,
        "9536": 241,
        "9537": 171,
        "9538": 153,
        "9539": 146,
        "9540": 133,
        "9541": 196,
        "9542": 38,
        "9543": 30,
        "9544": 48,
        "9545": 149,
        "9546": 104,
        "9547": 12,
        "9548": 168,
        "9549": 116,
        "9550": 166,
        "9551": 16,
        "9552": 136,
        "9553": 138,
        "9554": 141,
        "9555": 178,
        "9556": 52,
        "9557": 67,
        "9558": 33,
        "9559": 94,
        "9560": 66,
        "9561": 197,
        "9562": 194,
        "9563": 242,
        "9564": 216,
        "9565": 62,
        "9566": 235,
        "9567": 111,
        "9568": 47,
        "9569": 84,
        "9570": 207,
        "9571": 132,
        "9572": 228,
        "9573": 96,
        "9574": 79,
        "9575": 186,
        "9576": 66,
        "9577": 159,
        "9578": 23,
        "9579": 251,
        "9580": 171,
        "9581": 6,
        "9582": 160,
        "9583": 253,
        "9584": 169,
        "9585": 79,
        "9586": 153,
        "9587": 151,
        "9588": 226,
        "9589": 189,
        "9590": 66,
        "9591": 173,
        "9592": 145,
        "9593": 45,
        "9594": 76,
        "9595": 241,
        "9596": 56,
        "9597": 249,
        "9598": 241,
        "9599": 225,
        "9600": 111,
        "9601": 202,
        "9602": 44,
        "9603": 243,
        "9604": 30,
        "9605": 173,
        "9606": 204,
        "9607": 110,
        "9608": 150,
        "9609": 63,
        "9610": 49,
        "9611": 163,
        "9612": 218,
        "9613": 62,
        "9614": 220,
        "9615": 111,
        "9616": 119,
        "9617": 72,
        "9618": 63,
        "9619": 89,
        "9620": 74,
        "9621": 149,
        "9622": 212,
        "9623": 64,
        "9624": 220,
        "9625": 160,
        "9626": 146,
        "9627": 83,
        "9628": 84,
        "9629": 110,
        "9630": 150,
        "9631": 90,
        "9632": 137,
        "9633": 210,
        "9634": 245,
        "9635": 253,
        "9636": 254,
        "9637": 21,
        "9638": 202,
        "9639": 39,
        "9640": 134,
        "9641": 111,
        "9642": 254,
        "9643": 70,
        "9644": 52,
        "9645": 242,
        "9646": 120,
        "9647": 67,
        "9648": 232,
        "9649": 11,
        "9650": 246,
        "9651": 170,
        "9652": 6,
        "9653": 125,
        "9654": 150,
        "9655": 70,
        "9656": 206,
        "9657": 38,
        "9658": 215,
        "9659": 236,
        "9660": 213,
        "9661": 28,
        "9662": 232,
        "9663": 250,
        "9664": 41,
        "9665": 60,
        "9666": 14,
        "9667": 167,
        "9668": 228,
        "9669": 10,
        "9670": 19,
        "9671": 144,
        "9672": 119,
        "9673": 162,
        "9674": 148,
        "9675": 156,
        "9676": 228,
        "9677": 156,
        "9678": 133,
        "9679": 36,
        "9680": 50,
        "9681": 115,
        "9682": 109,
        "9683": 18,
        "9684": 156,
        "9685": 51,
        "9686": 13,
        "9687": 18,
        "9688": 192,
        "9689": 251,
        "9690": 29,
        "9691": 59,
        "9692": 204,
        "9693": 156,
        "9694": 130,
        "9695": 98,
        "9696": 0,
        "9697": 117,
        "9698": 146,
        "9699": 237,
        "9700": 217,
        "9701": 120,
        "9702": 43,
        "9703": 123,
        "9704": 96,
        "9705": 110,
        "9706": 137,
        "9707": 58,
        "9708": 163,
        "9709": 135,
        "9710": 74,
        "9711": 34,
        "9712": 202,
        "9713": 16,
        "9714": 244,
        "9715": 180,
        "9716": 70,
        "9717": 89,
        "9718": 182,
        "9719": 112,
        "9720": 206,
        "9721": 249,
        "9722": 108,
        "9723": 92,
        "9724": 194,
        "9725": 24,
        "9726": 206,
        "9727": 168,
        "9728": 103,
        "9729": 241,
        "9730": 169,
        "9731": 20,
        "9732": 35,
        "9733": 49,
        "9734": 151,
        "9735": 74,
        "9736": 157,
        "9737": 101,
        "9738": 105,
        "9739": 233,
        "9740": 225,
        "9741": 27,
        "9742": 24,
        "9743": 252,
        "9744": 172,
        "9745": 4,
        "9746": 180,
        "9747": 116,
        "9748": 126,
        "9749": 36,
        "9750": 34,
        "9751": 207,
        "9752": 166,
        "9753": 234,
        "9754": 41,
        "9755": 22,
        "9756": 4,
        "9757": 18,
        "9758": 204,
        "9759": 26,
        "9760": 130,
        "9761": 115,
        "9762": 92,
        "9763": 233,
        "9764": 211,
        "9765": 137,
        "9766": 75,
        "9767": 201,
        "9768": 22,
        "9769": 76,
        "9770": 128,
        "9771": 156,
        "9772": 41,
        "9773": 185,
        "9774": 45,
        "9775": 254,
        "9776": 195,
        "9777": 20,
        "9778": 240,
        "9779": 30,
        "9780": 231,
        "9781": 82,
        "9782": 184,
        "9783": 73,
        "9784": 144,
        "9785": 224,
        "9786": 42,
        "9787": 206,
        "9788": 209,
        "9789": 12,
        "9790": 68,
        "9791": 182,
        "9792": 193,
        "9793": 204,
        "9794": 120,
        "9795": 201,
        "9796": 99,
        "9797": 40,
        "9798": 108,
        "9799": 231,
        "9800": 179,
        "9801": 168,
        "9802": 134,
        "9803": 44,
        "9804": 215,
        "9805": 232,
        "9806": 25,
        "9807": 119,
        "9808": 47,
        "9809": 59,
        "9810": 125,
        "9811": 133,
        "9812": 199,
        "9813": 171,
        "9814": 107,
        "9815": 19,
        "9816": 221,
        "9817": 129,
        "9818": 100,
        "9819": 68,
        "9820": 79,
        "9821": 239,
        "9822": 247,
        "9823": 237,
        "9824": 109,
        "9825": 31,
        "9826": 74,
        "9827": 139,
        "9828": 51,
        "9829": 177,
        "9830": 77,
        "9831": 157,
        "9832": 104,
        "9833": 169,
        "9834": 0,
        "9835": 253,
        "9836": 65,
        "9837": 133,
        "9838": 248,
        "9839": 112,
        "9840": 211,
        "9841": 22,
        "9842": 93,
        "9843": 31,
        "9844": 123,
        "9845": 169,
        "9846": 234,
        "9847": 16,
        "9848": 126,
        "9849": 63,
        "9850": 42,
        "9851": 112,
        "9852": 246,
        "9853": 225,
        "9854": 51,
        "9855": 183,
        "9856": 76,
        "9857": 45,
        "9858": 4,
        "9859": 190,
        "9860": 97,
        "9861": 182,
        "9862": 246,
        "9863": 68,
        "9864": 227,
        "9865": 172,
        "9866": 70,
        "9867": 34,
        "9868": 174,
        "9869": 31,
        "9870": 167,
        "9871": 37,
        "9872": 20,
        "9873": 65,
        "9874": 222,
        "9875": 25,
        "9876": 239,
        "9877": 126,
        "9878": 29,
        "9879": 88,
        "9880": 152,
        "9881": 92,
        "9882": 15,
        "9883": 99,
        "9884": 49,
        "9885": 84,
        "9886": 25,
        "9887": 78,
        "9888": 35,
        "9889": 149,
        "9890": 197,
        "9891": 162,
        "9892": 227,
        "9893": 68,
        "9894": 36,
        "9895": 173,
        "9896": 63,
        "9897": 141,
        "9898": 42,
        "9899": 10,
        "9900": 202,
        "9901": 155,
        "9902": 229,
        "9903": 203,
        "9904": 172,
        "9905": 77,
        "9906": 31,
        "9907": 45,
        "9908": 203,
        "9909": 206,
        "9910": 67,
        "9911": 249,
        "9912": 204,
        "9913": 108,
        "9914": 123,
        "9915": 198,
        "9916": 9,
        "9917": 170,
        "9918": 121,
        "9919": 214,
        "9920": 211,
        "9921": 29,
        "9922": 33,
        "9923": 206,
        "9924": 6,
        "9925": 182,
        "9926": 217,
        "9927": 196,
        "9928": 239,
        "9929": 94,
        "9930": 94,
        "9931": 27,
        "9932": 75,
        "9933": 41,
        "9934": 192,
        "9935": 122,
        "9936": 191,
        "9937": 39,
        "9938": 181,
        "9939": 160,
        "9940": 60,
        "9941": 171,
        "9942": 30,
        "9943": 243,
        "9944": 121,
        "9945": 137,
        "9946": 56,
        "9947": 134,
        "9948": 122,
        "9949": 23,
        "9950": 36,
        "9951": 143,
        "9952": 35,
        "9953": 114,
        "9954": 250,
        "9955": 142,
        "9956": 110,
        "9957": 146,
        "9958": 207,
        "9959": 236,
        "9960": 31,
        "9961": 24,
        "9962": 192,
        "9963": 234,
        "9964": 177,
        "9965": 9,
        "9966": 154,
        "9967": 19,
        "9968": 236,
        "9969": 101,
        "9970": 214,
        "9971": 160,
        "9972": 249,
        "9973": 20,
        "9974": 223,
        "9975": 162,
        "9976": 223,
        "9977": 104,
        "9978": 130,
        "9979": 186,
        "9980": 229,
        "9981": 200,
        "9982": 62,
        "9983": 85,
        "9984": 197,
        "9985": 106,
        "9986": 159,
        "9987": 189,
        "9988": 205,
        "9989": 73,
        "9990": 184,
        "9991": 135,
        "9992": 179,
        "9993": 149,
        "9994": 237,
        "9995": 69,
        "9996": 161,
        "9997": 181,
        "9998": 183,
        "9999": 57,
        "10000": 26,
        "10001": 252,
        "10002": 65,
        "10003": 151,
        "10004": 4,
        "10005": 43,
        "10006": 254,
        "10007": 160,
        "10008": 8,
        "10009": 98,
        "10010": 251,
        "10011": 156,
        "10012": 198,
        "10013": 210,
        "10014": 191,
        "10015": 190,
        "10016": 236,
        "10017": 104,
        "10018": 243,
        "10019": 164,
        "10020": 96,
        "10021": 172,
        "10022": 136,
        "10023": 163,
        "10024": 39,
        "10025": 167,
        "10026": 2,
        "10027": 206,
        "10028": 59,
        "10029": 94,
        "10030": 122,
        "10031": 27,
        "10032": 88,
        "10033": 20,
        "10034": 49,
        "10035": 242,
        "10036": 35,
        "10037": 29,
        "10038": 10,
        "10039": 52,
        "10040": 121,
        "10041": 44,
        "10042": 67,
        "10043": 96,
        "10044": 193,
        "10045": 134,
        "10046": 13,
        "10047": 169,
        "10048": 65,
        "10049": 187,
        "10050": 176,
        "10051": 93,
        "10052": 147,
        "10053": 36,
        "10054": 218,
        "10055": 22,
        "10056": 167,
        "10057": 220,
        "10058": 138,
        "10059": 148,
        "10060": 48,
        "10061": 206,
        "10062": 232,
        "10063": 99,
        "10064": 46,
        "10065": 88,
        "10066": 187,
        "10067": 70,
        "10068": 72,
        "10069": 40,
        "10070": 207,
        "10071": 138,
        "10072": 242,
        "10073": 148,
        "10074": 136,
        "10075": 122,
        "10076": 49,
        "10077": 54,
        "10078": 195,
        "10079": 108,
        "10080": 185,
        "10081": 236,
        "10082": 74,
        "10083": 158,
        "10084": 250,
        "10085": 104,
        "10086": 88,
        "10087": 8,
        "10088": 45,
        "10089": 62,
        "10090": 189,
        "10091": 195,
        "10092": 128,
        "10093": 3,
        "10094": 129,
        "10095": 246,
        "10096": 181,
        "10097": 191,
        "10098": 215,
        "10099": 191,
        "10100": 73,
        "10101": 197,
        "10102": 133,
        "10103": 35,
        "10104": 142,
        "10105": 99,
        "10106": 216,
        "10107": 236,
        "10108": 60,
        "10109": 30,
        "10110": 105,
        "10111": 221,
        "10112": 125,
        "10113": 151,
        "10114": 254,
        "10115": 71,
        "10116": 164,
        "10117": 15,
        "10118": 210,
        "10119": 160,
        "10120": 58,
        "10121": 197,
        "10122": 102,
        "10123": 146,
        "10124": 92,
        "10125": 182,
        "10126": 14,
        "10127": 132,
        "10128": 240,
        "10129": 194,
        "10130": 224,
        "10131": 199,
        "10132": 143,
        "10133": 195,
        "10134": 159,
        "10135": 160,
        "10136": 62,
        "10137": 110,
        "10138": 188,
        "10139": 53,
        "10140": 65,
        "10141": 240,
        "10142": 132,
        "10143": 97,
        "10144": 101,
        "10145": 31,
        "10146": 67,
        "10147": 96,
        "10148": 119,
        "10149": 46,
        "10150": 33,
        "10151": 202,
        "10152": 247,
        "10153": 117,
        "10154": 154,
        "10155": 241,
        "10156": 4,
        "10157": 232,
        "10158": 105,
        "10159": 33,
        "10160": 100,
        "10161": 208,
        "10162": 106,
        "10163": 7,
        "10164": 226,
        "10165": 145,
        "10166": 85,
        "10167": 184,
        "10168": 127,
        "10169": 73,
        "10170": 21,
        "10171": 150,
        "10172": 8,
        "10173": 95,
        "10174": 153,
        "10175": 135,
        "10176": 114,
        "10177": 145,
        "10178": 19,
        "10179": 64,
        "10180": 21,
        "10181": 198,
        "10182": 20,
        "10183": 65,
        "10184": 251,
        "10185": 221,
        "10186": 201,
        "10187": 235,
        "10188": 1,
        "10189": 135,
        "10190": 61,
        "10191": 139,
        "10192": 87,
        "10193": 170,
        "10194": 151,
        "10195": 126,
        "10196": 133,
        "10197": 91,
        "10198": 222,
        "10199": 49,
        "10200": 85,
        "10201": 97,
        "10202": 85,
        "10203": 162,
        "10204": 232,
        "10205": 224,
        "10206": 118,
        "10207": 142,
        "10208": 80,
        "10209": 243,
        "10210": 40,
        "10211": 207,
        "10212": 79,
        "10213": 213,
        "10214": 163,
        "10215": 138,
        "10216": 20,
        "10217": 151,
        "10218": 145,
        "10219": 231,
        "10220": 111,
        "10221": 87,
        "10222": 9,
        "10223": 129,
        "10224": 196,
        "10225": 33,
        "10226": 29,
        "10227": 237,
        "10228": 85,
        "10229": 247,
        "10230": 247,
        "10231": 117,
        "10232": 70,
        "10233": 150,
        "10234": 176,
        "10235": 46,
        "10236": 164,
        "10237": 53,
        "10238": 246,
        "10239": 37,
        "10240": 195,
        "10241": 135,
        "10242": 209,
        "10243": 106,
        "10244": 136,
        "10245": 36,
        "10246": 136,
        "10247": 124,
        "10248": 236,
        "10249": 188,
        "10250": 12,
        "10251": 30,
        "10252": 109,
        "10253": 20,
        "10254": 255,
        "10255": 131,
        "10256": 174,
        "10257": 196,
        "10258": 240,
        "10259": 73,
        "10260": 61,
        "10261": 196,
        "10262": 180,
        "10263": 223,
        "10264": 253,
        "10265": 69,
        "10266": 108,
        "10267": 175,
        "10268": 20,
        "10269": 72,
        "10270": 21,
        "10271": 144,
        "10272": 36,
        "10273": 210,
        "10274": 107,
        "10275": 133,
        "10276": 60,
        "10277": 237,
        "10278": 233,
        "10279": 61,
        "10280": 90,
        "10281": 31,
        "10282": 59,
        "10283": 148,
        "10284": 13,
        "10285": 189,
        "10286": 148,
        "10287": 224,
        "10288": 106,
        "10289": 161,
        "10290": 159,
        "10291": 44,
        "10292": 238,
        "10293": 44,
        "10294": 145,
        "10295": 60,
        "10296": 201,
        "10297": 36,
        "10298": 42,
        "10299": 108,
        "10300": 18,
        "10301": 92,
        "10302": 77,
        "10303": 231,
        "10304": 64,
        "10305": 113,
        "10306": 14,
        "10307": 56,
        "10308": 216,
        "10309": 145,
        "10310": 223,
        "10311": 141,
        "10312": 63,
        "10313": 183,
        "10314": 82,
        "10315": 142,
        "10316": 28,
        "10317": 96,
        "10318": 125,
        "10319": 28,
        "10320": 38,
        "10321": 15,
        "10322": 132,
        "10323": 210,
        "10324": 203,
        "10325": 132,
        "10326": 64,
        "10327": 39,
        "10328": 59,
        "10329": 149,
        "10330": 43,
        "10331": 53,
        "10332": 96,
        "10333": 240,
        "10334": 215,
        "10335": 164,
        "10336": 145,
        "10337": 176,
        "10338": 139,
        "10339": 34,
        "10340": 61,
        "10341": 54,
        "10342": 191,
        "10343": 229,
        "10344": 97,
        "10345": 228,
        "10346": 193,
        "10347": 125,
        "10348": 35,
        "10349": 191,
        "10350": 163,
        "10351": 96,
        "10352": 52,
        "10353": 128,
        "10354": 70,
        "10355": 70,
        "10356": 250,
        "10357": 180,
        "10358": 20,
        "10359": 83,
        "10360": 185,
        "10361": 172,
        "10362": 108,
        "10363": 135,
        "10364": 120,
        "10365": 168,
        "10366": 247,
        "10367": 51,
        "10368": 215,
        "10369": 161,
        "10370": 179,
        "10371": 138,
        "10372": 197,
        "10373": 72,
        "10374": 165,
        "10375": 17,
        "10376": 185,
        "10377": 89,
        "10378": 88,
        "10379": 147,
        "10380": 138,
        "10381": 116,
        "10382": 163,
        "10383": 152,
        "10384": 194,
        "10385": 157,
        "10386": 99,
        "10387": 124,
        "10388": 27,
        "10389": 251,
        "10390": 233,
        "10391": 90,
        "10392": 178,
        "10393": 167,
        "10394": 50,
        "10395": 143,
        "10396": 89,
        "10397": 180,
        "10398": 102,
        "10399": 82,
        "10400": 160,
        "10401": 249,
        "10402": 226,
        "10403": 177,
        "10404": 102,
        "10405": 89,
        "10406": 254,
        "10407": 75,
        "10408": 214,
        "10409": 193,
        "10410": 84,
        "10411": 243,
        "10412": 111,
        "10413": 177,
        "10414": 191,
        "10415": 116,
        "10416": 234,
        "10417": 135,
        "10418": 167,
        "10419": 23,
        "10420": 201,
        "10421": 98,
        "10422": 208,
        "10423": 175,
        "10424": 200,
        "10425": 18,
        "10426": 45,
        "10427": 191,
        "10428": 101,
        "10429": 75,
        "10430": 209,
        "10431": 201,
        "10432": 250,
        "10433": 243,
        "10434": 60,
        "10435": 217,
        "10436": 205,
        "10437": 165,
        "10438": 54,
        "10439": 22,
        "10440": 244,
        "10441": 174,
        "10442": 67,
        "10443": 67,
        "10444": 159,
        "10445": 82,
        "10446": 123,
        "10447": 27,
        "10448": 246,
        "10449": 78,
        "10450": 146,
        "10451": 196,
        "10452": 97,
        "10453": 103,
        "10454": 47,
        "10455": 156,
        "10456": 25,
        "10457": 43,
        "10458": 78,
        "10459": 80,
        "10460": 200,
        "10461": 221,
        "10462": 129,
        "10463": 211,
        "10464": 153,
        "10465": 37,
        "10466": 70,
        "10467": 45,
        "10468": 43,
        "10469": 85,
        "10470": 24,
        "10471": 131,
        "10472": 78,
        "10473": 161,
        "10474": 66,
        "10475": 4,
        "10476": 249,
        "10477": 42,
        "10478": 209,
        "10479": 103,
        "10480": 42,
        "10481": 242,
        "10482": 52,
        "10483": 72,
        "10484": 180,
        "10485": 82,
        "10486": 254,
        "10487": 174,
        "10488": 164,
        "10489": 193,
        "10490": 128,
        "10491": 43,
        "10492": 209,
        "10493": 22,
        "10494": 186,
        "10495": 33,
        "10496": 189,
        "10497": 60,
        "10498": 197,
        "10499": 209,
        "10500": 192,
        "10501": 174,
        "10502": 225,
        "10503": 29,
        "10504": 141,
        "10505": 222,
        "10506": 123,
        "10507": 136,
        "10508": 219,
        "10509": 251,
        "10510": 1,
        "10511": 207,
        "10512": 31,
        "10513": 24,
        "10514": 246,
        "10515": 42,
        "10516": 13,
        "10517": 79,
        "10518": 97,
        "10519": 218,
        "10520": 195,
        "10521": 79,
        "10522": 71,
        "10523": 170,
        "10524": 239,
        "10525": 21,
        "10526": 128,
        "10527": 146,
        "10528": 210,
        "10529": 112,
        "10530": 196,
        "10531": 214,
        "10532": 80,
        "10533": 57,
        "10534": 212,
        "10535": 22,
        "10536": 91,
        "10537": 189,
        "10538": 241,
        "10539": 188,
        "10540": 20,
        "10541": 82,
        "10542": 141,
        "10543": 49,
        "10544": 247,
        "10545": 100,
        "10546": 24,
        "10547": 87,
        "10548": 48,
        "10549": 140,
        "10550": 22,
        "10551": 61,
        "10552": 55,
        "10553": 86,
        "10554": 86,
        "10555": 255,
        "10556": 78,
        "10557": 17,
        "10558": 47,
        "10559": 26,
        "10560": 209,
        "10561": 141,
        "10562": 84,
        "10563": 251,
        "10564": 189,
        "10565": 76,
        "10566": 113,
        "10567": 199,
        "10568": 89,
        "10569": 157,
        "10570": 157,
        "10571": 93,
        "10572": 76,
        "10573": 160,
        "10574": 22,
        "10575": 124,
        "10576": 34,
        "10577": 24,
        "10578": 129,
        "10579": 187,
        "10580": 118,
        "10581": 174,
        "10582": 210,
        "10583": 50,
        "10584": 6,
        "10585": 199,
        "10586": 82,
        "10587": 96,
        "10588": 14,
        "10589": 28,
        "10590": 168,
        "10591": 219,
        "10592": 141,
        "10593": 227,
        "10594": 157,
        "10595": 179,
        "10596": 5,
        "10597": 227,
        "10598": 248,
        "10599": 17,
        "10600": 186,
        "10601": 207,
        "10602": 200,
        "10603": 113,
        "10604": 29,
        "10605": 71,
        "10606": 159,
        "10607": 173,
        "10608": 174,
        "10609": 104,
        "10610": 103,
        "10611": 201,
        "10612": 246,
        "10613": 154,
        "10614": 165,
        "10615": 193,
        "10616": 136,
        "10617": 137,
        "10618": 120,
        "10619": 196,
        "10620": 67,
        "10621": 111,
        "10622": 59,
        "10623": 39,
        "10624": 60,
        "10625": 250,
        "10626": 248,
        "10627": 248,
        "10628": 215,
        "10629": 124,
        "10630": 27,
        "10631": 84,
        "10632": 19,
        "10633": 185,
        "10634": 34,
        "10635": 249,
        "10636": 230,
        "10637": 204,
        "10638": 63,
        "10639": 181,
        "10640": 48,
        "10641": 40,
        "10642": 22,
        "10643": 61,
        "10644": 179,
        "10645": 137,
        "10646": 189,
        "10647": 13,
        "10648": 238,
        "10649": 143,
        "10650": 19,
        "10651": 252,
        "10652": 89,
        "10653": 15,
        "10654": 9,
        "10655": 140,
        "10656": 121,
        "10657": 19,
        "10658": 189,
        "10659": 62,
        "10660": 75,
        "10661": 114,
        "10662": 208,
        "10663": 234,
        "10664": 65,
        "10665": 94,
        "10666": 252,
        "10667": 211,
        "10668": 17,
        "10669": 251,
        "10670": 191,
        "10671": 96,
        "10672": 124,
        "10673": 244,
        "10674": 230,
        "10675": 22,
        "10676": 117,
        "10677": 60,
        "10678": 141,
        "10679": 47,
        "10680": 220,
        "10681": 122,
        "10682": 200,
        "10683": 230,
        "10684": 86,
        "10685": 57,
        "10686": 18,
        "10687": 187,
        "10688": 108,
        "10689": 197,
        "10690": 126,
        "10691": 79,
        "10692": 31,
        "10693": 149,
        "10694": 71,
        "10695": 108,
        "10696": 27,
        "10697": 178,
        "10698": 210,
        "10699": 230,
        "10700": 48,
        "10701": 3,
        "10702": 47,
        "10703": 187,
        "10704": 6,
        "10705": 211,
        "10706": 203,
        "10707": 130,
        "10708": 147,
        "10709": 64,
        "10710": 187,
        "10711": 34,
        "10712": 117,
        "10713": 189,
        "10714": 232,
        "10715": 220,
        "10716": 190,
        "10717": 129,
        "10718": 194,
        "10719": 10,
        "10720": 188,
        "10721": 0,
        "10722": 118,
        "10723": 105,
        "10724": 116,
        "10725": 15,
        "10726": 120,
        "10727": 215,
        "10728": 219,
        "10729": 167,
        "10730": 118,
        "10731": 157,
        "10732": 79,
        "10733": 25,
        "10734": 210,
        "10735": 26,
        "10736": 147,
        "10737": 184,
        "10738": 153,
        "10739": 54,
        "10740": 44,
        "10741": 13,
        "10742": 16,
        "10743": 135,
        "10744": 121,
        "10745": 108,
        "10746": 73,
        "10747": 155,
        "10748": 233,
        "10749": 154,
        "10750": 48,
        "10751": 244,
        "10752": 84,
        "10753": 59,
        "10754": 174,
        "10755": 112,
        "10756": 255,
        "10757": 155,
        "10758": 212,
        "10759": 3,
        "10760": 255,
        "10761": 130,
        "10762": 35,
        "10763": 113,
        "10764": 3,
        "10765": 244,
        "10766": 169,
        "10767": 160,
        "10768": 5,
        "10769": 120,
        "10770": 220,
        "10771": 80,
        "10772": 74,
        "10773": 170,
        "10774": 233,
        "10775": 153,
        "10776": 99,
        "10777": 244,
        "10778": 50,
        "10779": 139,
        "10780": 44,
        "10781": 157,
        "10782": 26,
        "10783": 77,
        "10784": 164,
        "10785": 222,
        "10786": 192,
        "10787": 189,
        "10788": 183,
        "10789": 63,
        "10790": 18,
        "10791": 93,
        "10792": 84,
        "10793": 110,
        "10794": 91,
        "10795": 25,
        "10796": 57,
        "10797": 239,
        "10798": 14,
        "10799": 179,
        "10800": 178,
        "10801": 84,
        "10802": 248,
        "10803": 136,
        "10804": 14,
        "10805": 183,
        "10806": 154,
        "10807": 152,
        "10808": 242,
        "10809": 120,
        "10810": 58,
        "10811": 181,
        "10812": 60,
        "10813": 38,
        "10814": 136,
        "10815": 222,
        "10816": 89,
        "10817": 121,
        "10818": 163,
        "10819": 225,
        "10820": 123,
        "10821": 154,
        "10822": 67,
        "10823": 188,
        "10824": 238,
        "10825": 107,
        "10826": 229,
        "10827": 160,
        "10828": 223,
        "10829": 104,
        "10830": 44,
        "10831": 200,
        "10832": 138,
        "10833": 59,
        "10834": 174,
        "10835": 87,
        "10836": 211,
        "10837": 144,
        "10838": 56,
        "10839": 194,
        "10840": 170,
        "10841": 130,
        "10842": 196,
        "10843": 138,
        "10844": 115,
        "10845": 9,
        "10846": 42,
        "10847": 14,
        "10848": 120,
        "10849": 50,
        "10850": 100,
        "10851": 135,
        "10852": 61,
        "10853": 172,
        "10854": 56,
        "10855": 197,
        "10856": 132,
        "10857": 108,
        "10858": 235,
        "10859": 227,
        "10860": 141,
        "10861": 150,
        "10862": 240,
        "10863": 248,
        "10864": 149,
        "10865": 212,
        "10866": 32,
        "10867": 151,
        "10868": 90,
        "10869": 3,
        "10870": 49,
        "10871": 252,
        "10872": 12,
        "10873": 6,
        "10874": 152,
        "10875": 176,
        "10876": 167,
        "10877": 197,
        "10878": 100,
        "10879": 74,
        "10880": 143,
        "10881": 66,
        "10882": 190,
        "10883": 255,
        "10884": 227,
        "10885": 118,
        "10886": 54,
        "10887": 214,
        "10888": 103,
        "10889": 46,
        "10890": 14,
        "10891": 112,
        "10892": 141,
        "10893": 182,
        "10894": 235,
        "10895": 136,
        "10896": 116,
        "10897": 197,
        "10898": 245,
        "10899": 63,
        "10900": 155,
        "10901": 42,
        "10902": 64,
        "10903": 234,
        "10904": 194,
        "10905": 50,
        "10906": 48,
        "10907": 180,
        "10908": 47,
        "10909": 141,
        "10910": 86,
        "10911": 230,
        "10912": 134,
        "10913": 91,
        "10914": 106,
        "10915": 159,
        "10916": 6,
        "10917": 33,
        "10918": 115,
        "10919": 250,
        "10920": 188,
        "10921": 139,
        "10922": 93,
        "10923": 82,
        "10924": 11,
        "10925": 31,
        "10926": 0,
        "10927": 59,
        "10928": 58,
        "10929": 202,
        "10930": 25,
        "10931": 24,
        "10932": 250,
        "10933": 114,
        "10934": 176,
        "10935": 200,
        "10936": 234,
        "10937": 158,
        "10938": 18,
        "10939": 71,
        "10940": 108,
        "10941": 174,
        "10942": 161,
        "10943": 27,
        "10944": 205,
        "10945": 216,
        "10946": 109,
        "10947": 186,
        "10948": 83,
        "10949": 80,
        "10950": 159,
        "10951": 19,
        "10952": 178,
        "10953": 7,
        "10954": 4,
        "10955": 162,
        "10956": 67,
        "10957": 33,
        "10958": 48,
        "10959": 139,
        "10960": 56,
        "10961": 227,
        "10962": 113,
        "10963": 132,
        "10964": 183,
        "10965": 187,
        "10966": 221,
        "10967": 239,
        "10968": 242,
        "10969": 118,
        "10970": 25,
        "10971": 97,
        "10972": 163,
        "10973": 168,
        "10974": 84,
        "10975": 227,
        "10976": 8,
        "10977": 10,
        "10978": 245,
        "10979": 195,
        "10980": 222,
        "10981": 207,
        "10982": 233,
        "10983": 229,
        "10984": 131,
        "10985": 161,
        "10986": 80,
        "10987": 118,
        "10988": 241,
        "10989": 158,
        "10990": 61,
        "10991": 9,
        "10992": 239,
        "10993": 237,
        "10994": 152,
        "10995": 148,
        "10996": 15,
        "10997": 25,
        "10998": 249,
        "10999": 135,
        "11000": 55,
        "11001": 156,
        "11002": 140,
        "11003": 75,
        "11004": 25,
        "11005": 122,
        "11006": 47,
        "11007": 220,
        "11008": 68,
        "11009": 177,
        "11010": 131,
        "11011": 135,
        "11012": 103,
        "11013": 109,
        "11014": 110,
        "11015": 198,
        "11016": 219,
        "11017": 0,
        "11018": 76,
        "11019": 150,
        "11020": 152,
        "11021": 254,
        "11022": 135,
        "11023": 182,
        "11024": 61,
        "11025": 86,
        "11026": 42,
        "11027": 224,
        "11028": 114,
        "11029": 131,
        "11030": 106,
        "11031": 99,
        "11032": 173,
        "11033": 21,
        "11034": 90,
        "11035": 101,
        "11036": 64,
        "11037": 57,
        "11038": 89,
        "11039": 17,
        "11040": 172,
        "11041": 145,
        "11042": 118,
        "11043": 122,
        "11044": 113,
        "11045": 204,
        "11046": 215,
        "11047": 90,
        "11048": 69,
        "11049": 98,
        "11050": 134,
        "11051": 235,
        "11052": 46,
        "11053": 94,
        "11054": 218,
        "11055": 131,
        "11056": 169,
        "11057": 154,
        "11058": 182,
        "11059": 223,
        "11060": 64,
        "11061": 183,
        "11062": 66,
        "11063": 243,
        "11064": 191,
        "11065": 212,
        "11066": 229,
        "11067": 59,
        "11068": 37,
        "11069": 132,
        "11070": 140,
        "11071": 173,
        "11072": 40,
        "11073": 179,
        "11074": 49,
        "11075": 96,
        "11076": 37,
        "11077": 167,
        "11078": 217,
        "11079": 40,
        "11080": 120,
        "11081": 203,
        "11082": 110,
        "11083": 207,
        "11084": 21,
        "11085": 18,
        "11086": 39,
        "11087": 208,
        "11088": 222,
        "11089": 248,
        "11090": 23,
        "11091": 59,
        "11092": 247,
        "11093": 99,
        "11094": 10,
        "11095": 171,
        "11096": 178,
        "11097": 183,
        "11098": 57,
        "11099": 172,
        "11100": 235,
        "11101": 166,
        "11102": 239,
        "11103": 24,
        "11104": 227,
        "11105": 147,
        "11106": 198,
        "11107": 49,
        "11108": 188,
        "11109": 177,
        "11110": 225,
        "11111": 170,
        "11112": 192,
        "11113": 198,
        "11114": 91,
        "11115": 214,
        "11116": 226,
        "11117": 72,
        "11118": 126,
        "11119": 126,
        "11120": 37,
        "11121": 182,
        "11122": 60,
        "11123": 34,
        "11124": 22,
        "11125": 178,
        "11126": 211,
        "11127": 16,
        "11128": 126,
        "11129": 169,
        "11130": 119,
        "11131": 198,
        "11132": 236,
        "11133": 148,
        "11134": 141,
        "11135": 147,
        "11136": 183,
        "11137": 228,
        "11138": 48,
        "11139": 53,
        "11140": 152,
        "11141": 46,
        "11142": 128,
        "11143": 203,
        "11144": 123,
        "11145": 154,
        "11146": 57,
        "11147": 63,
        "11148": 186,
        "11149": 109,
        "11150": 129,
        "11151": 174,
        "11152": 49,
        "11153": 190,
        "11154": 52,
        "11155": 162,
        "11156": 158,
        "11157": 76,
        "11158": 140,
        "11159": 17,
        "11160": 250,
        "11161": 163,
        "11162": 245,
        "11163": 45,
        "11164": 242,
        "11165": 117,
        "11166": 140,
        "11167": 8,
        "11168": 159,
        "11169": 95,
        "11170": 224,
        "11171": 87,
        "11172": 148,
        "11173": 136,
        "11174": 36,
        "11175": 192,
        "11176": 195,
        "11177": 70,
        "11178": 41,
        "11179": 83,
        "11180": 9,
        "11181": 150,
        "11182": 173,
        "11183": 162,
        "11184": 84,
        "11185": 91,
        "11186": 240,
        "11187": 253,
        "11188": 12,
        "11189": 187,
        "11190": 38,
        "11191": 243,
        "11192": 159,
        "11193": 192,
        "11194": 40,
        "11195": 63,
        "11196": 62,
        "11197": 105,
        "11198": 46,
        "11199": 249,
        "11200": 11,
        "11201": 106,
        "11202": 155,
        "11203": 88,
        "11204": 214,
        "11205": 159,
        "11206": 178,
        "11207": 66,
        "11208": 120,
        "11209": 51,
        "11210": 51,
        "11211": 150,
        "11212": 195,
        "11213": 133,
        "11214": 66,
        "11215": 40,
        "11216": 254,
        "11217": 198,
        "11218": 5,
        "11219": 8,
        "11220": 217,
        "11221": 114,
        "11222": 220,
        "11223": 182,
        "11224": 154,
        "11225": 20,
        "11226": 188,
        "11227": 167,
        "11228": 77,
        "11229": 111,
        "11230": 80,
        "11231": 1,
        "11232": 78,
        "11233": 37,
        "11234": 82,
        "11235": 252,
        "11236": 124,
        "11237": 83,
        "11238": 121,
        "11239": 44,
        "11240": 238,
        "11241": 118,
        "11242": 91,
        "11243": 139,
        "11244": 201,
        "11245": 40,
        "11246": 165,
        "11247": 252,
        "11248": 225,
        "11249": 8,
        "11250": 29,
        "11251": 228,
        "11252": 114,
        "11253": 34,
        "11254": 40,
        "11255": 17,
        "11256": 11,
        "11257": 80,
        "11258": 43,
        "11259": 146,
        "11260": 189,
        "11261": 168,
        "11262": 45,
        "11263": 43,
        "11264": 144,
        "11265": 34,
        "11266": 222,
        "11267": 192,
        "11268": 235,
        "11269": 61,
        "11270": 84,
        "11271": 111,
        "11272": 119,
        "11273": 80,
        "11274": 165,
        "11275": 93,
        "11276": 115,
        "11277": 245,
        "11278": 191,
        "11279": 192,
        "11280": 191,
        "11281": 125,
        "11282": 38,
        "11283": 131,
        "11284": 39,
        "11285": 56,
        "11286": 164,
        "11287": 120,
        "11288": 154,
        "11289": 3,
        "11290": 184,
        "11291": 246,
        "11292": 202,
        "11293": 25,
        "11294": 143,
        "11295": 90,
        "11296": 28,
        "11297": 23,
        "11298": 169,
        "11299": 179,
        "11300": 109,
        "11301": 222,
        "11302": 141,
        "11303": 227,
        "11304": 193,
        "11305": 136,
        "11306": 26,
        "11307": 152,
        "11308": 23,
        "11309": 18,
        "11310": 130,
        "11311": 43,
        "11312": 11,
        "11313": 53,
        "11314": 110,
        "11315": 247,
        "11316": 213,
        "11317": 50,
        "11318": 235,
        "11319": 10,
        "11320": 218,
        "11321": 26,
        "11322": 134,
        "11323": 232,
        "11324": 147,
        "11325": 172,
        "11326": 189,
        "11327": 127,
        "11328": 188,
        "11329": 204,
        "11330": 211,
        "11331": 166,
        "11332": 31,
        "11333": 187,
        "11334": 193,
        "11335": 16,
        "11336": 253,
        "11337": 202,
        "11338": 200,
        "11339": 219,
        "11340": 111,
        "11341": 230,
        "11342": 186,
        "11343": 205,
        "11344": 245,
        "11345": 254,
        "11346": 197,
        "11347": 10,
        "11348": 246,
        "11349": 228,
        "11350": 101,
        "11351": 159,
        "11352": 133,
        "11353": 56,
        "11354": 156,
        "11355": 103,
        "11356": 91,
        "11357": 252,
        "11358": 204,
        "11359": 35,
        "11360": 5,
        "11361": 206,
        "11362": 27,
        "11363": 247,
        "11364": 202,
        "11365": 13,
        "11366": 105,
        "11367": 125,
        "11368": 224,
        "11369": 155,
        "11370": 203,
        "11371": 185,
        "11372": 220,
        "11373": 231,
        "11374": 7,
        "11375": 118,
        "11376": 187,
        "11377": 10,
        "11378": 20,
        "11379": 66,
        "11380": 193,
        "11381": 40,
        "11382": 196,
        "11383": 168,
        "11384": 207,
        "11385": 205,
        "11386": 66,
        "11387": 243,
        "11388": 188,
        "11389": 198,
        "11390": 240,
        "11391": 229,
        "11392": 80,
        "11393": 44,
        "11394": 160,
        "11395": 216,
        "11396": 144,
        "11397": 90,
        "11398": 225,
        "11399": 78,
        "11400": 68,
        "11401": 135,
        "11402": 47,
        "11403": 50,
        "11404": 203,
        "11405": 42,
        "11406": 81,
        "11407": 210,
        "11408": 162,
        "11409": 78,
        "11410": 87,
        "11411": 173,
        "11412": 151,
        "11413": 94,
        "11414": 177,
        "11415": 148,
        "11416": 147,
        "11417": 36,
        "11418": 166,
        "11419": 197,
        "11420": 67,
        "11421": 184,
        "11422": 79,
        "11423": 180,
        "11424": 15,
        "11425": 160,
        "11426": 203,
        "11427": 152,
        "11428": 97,
        "11429": 59,
        "11430": 84,
        "11431": 8,
        "11432": 226,
        "11433": 211,
        "11434": 154,
        "11435": 62,
        "11436": 143,
        "11437": 14,
        "11438": 212,
        "11439": 63,
        "11440": 25,
        "11441": 161,
        "11442": 27,
        "11443": 188,
        "11444": 138,
        "11445": 97,
        "11446": 173,
        "11447": 63,
        "11448": 112,
        "11449": 188,
        "11450": 177,
        "11451": 20,
        "11452": 54,
        "11453": 204,
        "11454": 92,
        "11455": 216,
        "11456": 212,
        "11457": 176,
        "11458": 144,
        "11459": 77,
        "11460": 113,
        "11461": 249,
        "11462": 148,
        "11463": 92,
        "11464": 76,
        "11465": 11,
        "11466": 5,
        "11467": 117,
        "11468": 27,
        "11469": 107,
        "11470": 24,
        "11471": 83,
        "11472": 155,
        "11473": 182,
        "11474": 174,
        "11475": 202,
        "11476": 121,
        "11477": 36,
        "11478": 29,
        "11479": 36,
        "11480": 66,
        "11481": 142,
        "11482": 66,
        "11483": 101,
        "11484": 35,
        "11485": 27,
        "11486": 197,
        "11487": 52,
        "11488": 210,
        "11489": 159,
        "11490": 165,
        "11491": 89,
        "11492": 127,
        "11493": 153,
        "11494": 209,
        "11495": 12,
        "11496": 164,
        "11497": 6,
        "11498": 38,
        "11499": 175,
        "11500": 63,
        "11501": 191,
        "11502": 68,
        "11503": 31,
        "11504": 23,
        "11505": 188,
        "11506": 203,
        "11507": 164,
        "11508": 161,
        "11509": 224,
        "11510": 7,
        "11511": 199,
        "11512": 71,
        "11513": 123,
        "11514": 153,
        "11515": 215,
        "11516": 253,
        "11517": 69,
        "11518": 91,
        "11519": 149,
        "11520": 53,
        "11521": 167,
        "11522": 63,
        "11523": 3,
        "11524": 87,
        "11525": 20,
        "11526": 1,
        "11527": 13,
        "11528": 3,
        "11529": 1,
        "11530": 149,
        "11531": 214,
        "11532": 183,
        "11533": 1,
        "11534": 219,
        "11535": 155,
        "11536": 41,
        "11537": 134,
        "11538": 236,
        "11539": 37,
        "11540": 187,
        "11541": 117,
        "11542": 229,
        "11543": 2,
        "11544": 5,
        "11545": 220,
        "11546": 115,
        "11547": 154,
        "11548": 11,
        "11549": 80,
        "11550": 59,
        "11551": 168,
        "11552": 137,
        "11553": 72,
        "11554": 53,
        "11555": 105,
        "11556": 146,
        "11557": 250,
        "11558": 192,
        "11559": 8,
        "11560": 208,
        "11561": 19,
        "11562": 240,
        "11563": 200,
        "11564": 220,
        "11565": 77,
        "11566": 251,
        "11567": 181,
        "11568": 48,
        "11569": 90,
        "11570": 103,
        "11571": 16,
        "11572": 155,
        "11573": 243,
        "11574": 141,
        "11575": 62,
        "11576": 154,
        "11577": 190,
        "11578": 226,
        "11579": 7,
        "11580": 204,
        "11581": 115,
        "11582": 134,
        "11583": 119,
        "11584": 40,
        "11585": 180,
        "11586": 50,
        "11587": 213,
        "11588": 14,
        "11589": 235,
        "11590": 162,
        "11591": 30,
        "11592": 178,
        "11593": 14,
        "11594": 112,
        "11595": 115,
        "11596": 220,
        "11597": 26,
        "11598": 99,
        "11599": 101,
        "11600": 81,
        "11601": 102,
        "11602": 167,
        "11603": 92,
        "11604": 223,
        "11605": 92,
        "11606": 15,
        "11607": 244,
        "11608": 69,
        "11609": 249,
        "11610": 42,
        "11611": 98,
        "11612": 157,
        "11613": 61,
        "11614": 111,
        "11615": 244,
        "11616": 69,
        "11617": 100,
        "11618": 176,
        "11619": 219,
        "11620": 67,
        "11621": 189,
        "11622": 89,
        "11623": 209,
        "11624": 140,
        "11625": 19,
        "11626": 142,
        "11627": 167,
        "11628": 85,
        "11629": 19,
        "11630": 37,
        "11631": 227,
        "11632": 174,
        "11633": 57,
        "11634": 11,
        "11635": 233,
        "11636": 41,
        "11637": 77,
        "11638": 104,
        "11639": 55,
        "11640": 0,
        "11641": 247,
        "11642": 17,
        "11643": 227,
        "11644": 9,
        "11645": 235,
        "11646": 62,
        "11647": 250,
        "11648": 156,
        "11649": 17,
        "11650": 225,
        "11651": 248,
        "11652": 76,
        "11653": 222,
        "11654": 90,
        "11655": 185,
        "11656": 155,
        "11657": 152,
        "11658": 27,
        "11659": 205,
        "11660": 248,
        "11661": 247,
        "11662": 206,
        "11663": 150,
        "11664": 235,
        "11665": 251,
        "11666": 35,
        "11667": 94,
        "11668": 92,
        "11669": 208,
        "11670": 46,
        "11671": 204,
        "11672": 71,
        "11673": 152,
        "11674": 63,
        "11675": 188,
        "11676": 167,
        "11677": 146,
        "11678": 70,
        "11679": 195,
        "11680": 15,
        "11681": 169,
        "11682": 226,
        "11683": 226,
        "11684": 208,
        "11685": 21,
        "11686": 147,
        "11687": 55,
        "11688": 101,
        "11689": 252,
        "11690": 113,
        "11691": 22,
        "11692": 149,
        "11693": 36,
        "11694": 187,
        "11695": 156,
        "11696": 43,
        "11697": 165,
        "11698": 25,
        "11699": 23,
        "11700": 248,
        "11701": 85,
        "11702": 169,
        "11703": 167,
        "11704": 22,
        "11705": 33,
        "11706": 191,
        "11707": 23,
        "11708": 217,
        "11709": 84,
        "11710": 33,
        "11711": 215,
        "11712": 71,
        "11713": 250,
        "11714": 45,
        "11715": 0,
        "11716": 55,
        "11717": 223,
        "11718": 235,
        "11719": 186,
        "11720": 18,
        "11721": 95,
        "11722": 254,
        "11723": 86,
        "11724": 39,
        "11725": 90,
        "11726": 245,
        "11727": 2,
        "11728": 128,
        "11729": 59,
        "11730": 8,
        "11731": 92,
        "11732": 198,
        "11733": 81,
        "11734": 68,
        "11735": 120,
        "11736": 5,
        "11737": 101,
        "11738": 45,
        "11739": 105,
        "11740": 134,
        "11741": 53,
        "11742": 211,
        "11743": 202,
        "11744": 226,
        "11745": 29,
        "11746": 236,
        "11747": 125,
        "11748": 112,
        "11749": 107,
        "11750": 37,
        "11751": 200,
        "11752": 1,
        "11753": 27,
        "11754": 162,
        "11755": 165,
        "11756": 96,
        "11757": 243,
        "11758": 137,
        "11759": 106,
        "11760": 240,
        "11761": 250,
        "11762": 33,
        "11763": 24,
        "11764": 141,
        "11765": 158,
        "11766": 41,
        "11767": 125,
        "11768": 114,
        "11769": 139,
        "11770": 140,
        "11771": 39,
        "11772": 244,
        "11773": 66,
        "11774": 59,
        "11775": 137,
        "11776": 156,
        "11777": 200,
        "11778": 89,
        "11779": 198,
        "11780": 90,
        "11781": 53,
        "11782": 167,
        "11783": 195,
        "11784": 125,
        "11785": 243,
        "11786": 166,
        "11787": 77,
        "11788": 46,
        "11789": 192,
        "11790": 209,
        "11791": 169,
        "11792": 177,
        "11793": 185,
        "11794": 95,
        "11795": 239,
        "11796": 168,
        "11797": 170,
        "11798": 139,
        "11799": 15,
        "11800": 234,
        "11801": 68,
        "11802": 204,
        "11803": 182,
        "11804": 155,
        "11805": 130,
        "11806": 212,
        "11807": 153,
        "11808": 186,
        "11809": 229,
        "11810": 233,
        "11811": 143,
        "11812": 152,
        "11813": 8,
        "11814": 17,
        "11815": 238,
        "11816": 174,
        "11817": 13,
        "11818": 11,
        "11819": 96,
        "11820": 16,
        "11821": 211,
        "11822": 250,
        "11823": 216,
        "11824": 182,
        "11825": 246,
        "11826": 103,
        "11827": 157,
        "11828": 51,
        "11829": 201,
        "11830": 65,
        "11831": 38,
        "11832": 51,
        "11833": 206,
        "11834": 82,
        "11835": 63,
        "11836": 164,
        "11837": 101,
        "11838": 172,
        "11839": 139,
        "11840": 228,
        "11841": 241,
        "11842": 254,
        "11843": 213,
        "11844": 105,
        "11845": 219,
        "11846": 6,
        "11847": 80,
        "11848": 226,
        "11849": 114,
        "11850": 237,
        "11851": 151,
        "11852": 183,
        "11853": 57,
        "11854": 127,
        "11855": 121,
        "11856": 162,
        "11857": 11,
        "11858": 35,
        "11859": 219,
        "11860": 39,
        "11861": 167,
        "11862": 195,
        "11863": 73,
        "11864": 188,
        "11865": 189,
        "11866": 113,
        "11867": 226,
        "11868": 88,
        "11869": 244,
        "11870": 244,
        "11871": 120,
        "11872": 19,
        "11873": 60,
        "11874": 55,
        "11875": 238,
        "11876": 240,
        "11877": 25,
        "11878": 164,
        "11879": 191,
        "11880": 101,
        "11881": 67,
        "11882": 34,
        "11883": 207,
        "11884": 216,
        "11885": 194,
        "11886": 168,
        "11887": 19,
        "11888": 205,
        "11889": 236,
        "11890": 86,
        "11891": 207,
        "11892": 101,
        "11893": 202,
        "11894": 75,
        "11895": 17,
        "11896": 151,
        "11897": 213,
        "11898": 236,
        "11899": 222,
        "11900": 177,
        "11901": 243,
        "11902": 160,
        "11903": 230,
        "11904": 141,
        "11905": 212,
        "11906": 193,
        "11907": 230,
        "11908": 244,
        "11909": 124,
        "11910": 22,
        "11911": 245,
        "11912": 221,
        "11913": 108,
        "11914": 224,
        "11915": 104,
        "11916": 6,
        "11917": 246,
        "11918": 216,
        "11919": 118,
        "11920": 14,
        "11921": 210,
        "11922": 170,
        "11923": 20,
        "11924": 81,
        "11925": 203,
        "11926": 136,
        "11927": 16,
        "11928": 146,
        "11929": 2,
        "11930": 53,
        "11931": 216,
        "11932": 92,
        "11933": 143,
        "11934": 145,
        "11935": 150,
        "11936": 214,
        "11937": 155,
        "11938": 180,
        "11939": 157,
        "11940": 119,
        "11941": 180,
        "11942": 12,
        "11943": 144,
        "11944": 30,
        "11945": 212,
        "11946": 208,
        "11947": 94,
        "11948": 132,
        "11949": 179,
        "11950": 36,
        "11951": 179,
        "11952": 35,
        "11953": 98,
        "11954": 51,
        "11955": 220,
        "11956": 238,
        "11957": 36,
        "11958": 246,
        "11959": 43,
        "11960": 205,
        "11961": 74,
        "11962": 57,
        "11963": 46,
        "11964": 120,
        "11965": 34,
        "11966": 164,
        "11967": 78,
        "11968": 39,
        "11969": 182,
        "11970": 16,
        "11971": 7,
        "11972": 216,
        "11973": 87,
        "11974": 208,
        "11975": 242,
        "11976": 154,
        "11977": 173,
        "11978": 250,
        "11979": 7,
        "11980": 40,
        "11981": 201,
        "11982": 252,
        "11983": 226,
        "11984": 168,
        "11985": 192,
        "11986": 93,
        "11987": 167,
        "11988": 193,
        "11989": 212,
        "11990": 214,
        "11991": 30,
        "11992": 143,
        "11993": 118,
        "11994": 52,
        "11995": 118,
        "11996": 35,
        "11997": 10,
        "11998": 20,
        "11999": 241,
        "12000": 139,
        "12001": 15,
        "12002": 235,
        "12003": 190,
        "12004": 93,
        "12005": 155,
        "12006": 81,
        "12007": 226,
        "12008": 4,
        "12009": 34,
        "12010": 190,
        "12011": 244,
        "12012": 251,
        "12013": 209,
        "12014": 222,
        "12015": 40,
        "12016": 208,
        "12017": 71,
        "12018": 233,
        "12019": 144,
        "12020": 114,
        "12021": 219,
        "12022": 127,
        "12023": 208,
        "12024": 118,
        "12025": 21,
        "12026": 17,
        "12027": 13,
        "12028": 176,
        "12029": 112,
        "12030": 31,
        "12031": 194,
        "12032": 238,
        "12033": 214,
        "12034": 115,
        "12035": 122,
        "12036": 160,
        "12037": 206,
        "12038": 191,
        "12039": 160,
        "12040": 207,
        "12041": 38,
        "12042": 237,
        "12043": 246,
        "12044": 70,
        "12045": 48,
        "12046": 157,
        "12047": 23,
        "12048": 100,
        "12049": 45,
        "12050": 156,
        "12051": 167,
        "12052": 120,
        "12053": 51,
        "12054": 98,
        "12055": 188,
        "12056": 221,
        "12057": 49,
        "12058": 5,
        "12059": 201,
        "12060": 240,
        "12061": 118,
        "12062": 135,
        "12063": 239,
        "12064": 148,
        "12065": 118,
        "12066": 157,
        "12067": 147,
        "12068": 10,
        "12069": 3,
        "12070": 160,
        "12071": 114,
        "12072": 27,
        "12073": 201,
        "12074": 153,
        "12075": 81,
        "12076": 235,
        "12077": 42,
        "12078": 221,
        "12079": 61,
        "12080": 174,
        "12081": 100,
        "12082": 248,
        "12083": 232,
        "12084": 9,
        "12085": 123,
        "12086": 155,
        "12087": 182,
        "12088": 139,
        "12089": 98,
        "12090": 93,
        "12091": 142,
        "12092": 27,
        "12093": 222,
        "12094": 60,
        "12095": 43,
        "12096": 109,
        "12097": 255,
        "12098": 155,
        "12099": 66,
        "12100": 91,
        "12101": 148,
        "12102": 49,
        "12103": 167,
        "12104": 145,
        "12105": 59,
        "12106": 220,
        "12107": 207,
        "12108": 125,
        "12109": 42,
        "12110": 64,
        "12111": 24,
        "12112": 148,
        "12113": 141,
        "12114": 83,
        "12115": 114,
        "12116": 171,
        "12117": 16,
        "12118": 178,
        "12119": 193,
        "12120": 20,
        "12121": 11,
        "12122": 46,
        "12123": 83,
        "12124": 229,
        "12125": 67,
        "12126": 146,
        "12127": 20,
        "12128": 39,
        "12129": 39,
        "12130": 171,
        "12131": 34,
        "12132": 34,
        "12133": 211,
        "12134": 101,
        "12135": 195,
        "12136": 48,
        "12137": 7,
        "12138": 74,
        "12139": 210,
        "12140": 118,
        "12141": 53,
        "12142": 223,
        "12143": 111,
        "12144": 41,
        "12145": 92,
        "12146": 6,
        "12147": 109,
        "12148": 138,
        "12149": 28,
        "12150": 154,
        "12151": 75,
        "12152": 17,
        "12153": 170,
        "12154": 88,
        "12155": 20,
        "12156": 11,
        "12157": 186,
        "12158": 90,
        "12159": 238,
        "12160": 155,
        "12161": 221,
        "12162": 84,
        "12163": 26,
        "12164": 149,
        "12165": 112,
        "12166": 48,
        "12167": 204,
        "12168": 119,
        "12169": 67,
        "12170": 190,
        "12171": 48,
        "12172": 231,
        "12173": 7,
        "12174": 58,
        "12175": 209,
        "12176": 88,
        "12177": 184,
        "12178": 177,
        "12179": 185,
        "12180": 205,
        "12181": 222,
        "12182": 242,
        "12183": 118,
        "12184": 18,
        "12185": 181,
        "12186": 160,
        "12187": 64,
        "12188": 53,
        "12189": 215,
        "12190": 56,
        "12191": 4,
        "12192": 150,
        "12193": 245,
        "12194": 15,
        "12195": 184,
        "12196": 210,
        "12197": 184,
        "12198": 26,
        "12199": 238,
        "12200": 197,
        "12201": 75,
        "12202": 124,
        "12203": 11,
        "12204": 10,
        "12205": 165,
        "12206": 183,
        "12207": 199,
        "12208": 115,
        "12209": 171,
        "12210": 218,
        "12211": 229,
        "12212": 253,
        "12213": 250,
        "12214": 200,
        "12215": 155,
        "12216": 190,
        "12217": 224,
        "12218": 223,
        "12219": 117,
        "12220": 71,
        "12221": 58,
        "12222": 220,
        "12223": 168,
        "12224": 157,
        "12225": 200,
        "12226": 136,
        "12227": 13,
        "12228": 73,
        "12229": 64,
        "12230": 96,
        "12231": 61,
        "12232": 124,
        "12233": 55,
        "12234": 124,
        "12235": 71,
        "12236": 189,
        "12237": 72,
        "12238": 83,
        "12239": 67,
        "12240": 22,
        "12241": 7,
        "12242": 177,
        "12243": 77,
        "12244": 167,
        "12245": 8,
        "12246": 247,
        "12247": 233,
        "12248": 18,
        "12249": 84,
        "12250": 218,
        "12251": 120,
        "12252": 146,
        "12253": 234,
        "12254": 193,
        "12255": 107,
        "12256": 177,
        "12257": 22,
        "12258": 63,
        "12259": 245,
        "12260": 199,
        "12261": 18,
        "12262": 123,
        "12263": 203,
        "12264": 242,
        "12265": 17,
        "12266": 70,
        "12267": 61,
        "12268": 78,
        "12269": 155,
        "12270": 11,
        "12271": 141,
        "12272": 139,
        "12273": 91,
        "12274": 0,
        "12275": 5,
        "12276": 230,
        "12277": 63,
        "12278": 211,
        "12279": 226,
        "12280": 160,
        "12281": 248,
        "12282": 232,
        "12283": 103,
        "12284": 59,
        "12285": 173,
        "12286": 119,
        "12287": 229,
        "12288": 190,
        "12289": 40,
        "12290": 168,
        "12291": 192,
        "12292": 179,
        "12293": 76,
        "12294": 53,
        "12295": 59,
        "12296": 194,
        "12297": 241,
        "12298": 75,
        "12299": 159,
        "12300": 106,
        "12301": 158,
        "12302": 55,
        "12303": 77,
        "12304": 97,
        "12305": 230,
        "12306": 255,
        "12307": 213,
        "12308": 139,
        "12309": 22,
        "12310": 249,
        "12311": 247,
        "12312": 179,
        "12313": 77,
        "12314": 243,
        "12315": 69,
        "12316": 82,
        "12317": 188,
        "12318": 159,
        "12319": 235,
        "12320": 243,
        "12321": 40,
        "12322": 58,
        "12323": 91,
        "12324": 134,
        "12325": 219,
        "12326": 187,
        "12327": 70,
        "12328": 113,
        "12329": 219,
        "12330": 140,
        "12331": 93,
        "12332": 176,
        "12333": 64,
        "12334": 36,
        "12335": 106,
        "12336": 93,
        "12337": 85,
        "12338": 107,
        "12339": 88,
        "12340": 255,
        "12341": 57,
        "12342": 198,
        "12343": 98,
        "12344": 188,
        "12345": 178,
        "12346": 250,
        "12347": 74,
        "12348": 57,
        "12349": 146,
        "12350": 43,
        "12351": 121,
        "12352": 120,
        "12353": 81,
        "12354": 6,
        "12355": 215,
        "12356": 109,
        "12357": 109,
        "12358": 185,
        "12359": 21,
        "12360": 87,
        "12361": 80,
        "12362": 153,
        "12363": 11,
        "12364": 40,
        "12365": 64,
        "12366": 97,
        "12367": 234,
        "12368": 41,
        "12369": 222,
        "12370": 129,
        "12371": 206,
        "12372": 215,
        "12373": 178,
        "12374": 145,
        "12375": 64,
        "12376": 235,
        "12377": 27,
        "12378": 180,
        "12379": 63,
        "12380": 252,
        "12381": 71,
        "12382": 18,
        "12383": 207,
        "12384": 68,
        "12385": 171,
        "12386": 198,
        "12387": 220,
        "12388": 74,
        "12389": 184,
        "12390": 50,
        "12391": 123,
        "12392": 159,
        "12393": 85,
        "12394": 216,
        "12395": 153,
        "12396": 187,
        "12397": 28,
        "12398": 179,
        "12399": 76,
        "12400": 197,
        "12401": 217,
        "12402": 191,
        "12403": 190,
        "12404": 227,
        "12405": 233,
        "12406": 46,
        "12407": 215,
        "12408": 173,
        "12409": 135,
        "12410": 88,
        "12411": 226,
        "12412": 45,
        "12413": 220,
        "12414": 226,
        "12415": 17,
        "12416": 118,
        "12417": 30,
        "12418": 6,
        "12419": 111,
        "12420": 20,
        "12421": 192,
        "12422": 239,
        "12423": 56,
        "12424": 99,
        "12425": 185,
        "12426": 165,
        "12427": 47,
        "12428": 82,
        "12429": 122,
        "12430": 26,
        "12431": 102,
        "12432": 150,
        "12433": 162,
        "12434": 16,
        "12435": 107,
        "12436": 95,
        "12437": 43,
        "12438": 120,
        "12439": 147,
        "12440": 13,
        "12441": 38,
        "12442": 8,
        "12443": 156,
        "12444": 196,
        "12445": 116,
        "12446": 43,
        "12447": 14,
        "12448": 232,
        "12449": 42,
        "12450": 210,
        "12451": 212,
        "12452": 112,
        "12453": 246,
        "12454": 32,
        "12455": 50,
        "12456": 214,
        "12457": 237,
        "12458": 61,
        "12459": 170,
        "12460": 73,
        "12461": 202,
        "12462": 64,
        "12463": 38,
        "12464": 111,
        "12465": 197,
        "12466": 154,
        "12467": 83,
        "12468": 240,
        "12469": 41,
        "12470": 225,
        "12471": 50,
        "12472": 175,
        "12473": 197,
        "12474": 183,
        "12475": 62,
        "12476": 106,
        "12477": 138,
        "12478": 134,
        "12479": 48,
        "12480": 207,
        "12481": 66,
        "12482": 141,
        "12483": 147,
        "12484": 54,
        "12485": 25,
        "12486": 75,
        "12487": 73,
        "12488": 226,
        "12489": 161,
        "12490": 166,
        "12491": 197,
        "12492": 7,
        "12493": 139,
        "12494": 248,
        "12495": 224,
        "12496": 135,
        "12497": 61,
        "12498": 96,
        "12499": 185,
        "12500": 255,
        "12501": 3,
        "12502": 20,
        "12503": 121,
        "12504": 26,
        "12505": 90,
        "12506": 66,
        "12507": 44,
        "12508": 16,
        "12509": 47,
        "12510": 125,
        "12511": 63,
        "12512": 72,
        "12513": 207,
        "12514": 232,
        "12515": 52,
        "12516": 196,
        "12517": 200,
        "12518": 87,
        "12519": 146,
        "12520": 217,
        "12521": 224,
        "12522": 215,
        "12523": 91,
        "12524": 105,
        "12525": 232,
        "12526": 35,
        "12527": 152,
        "12528": 98,
        "12529": 244,
        "12530": 8,
        "12531": 16,
        "12532": 204,
        "12533": 61,
        "12534": 85,
        "12535": 134,
        "12536": 255,
        "12537": 24,
        "12538": 228,
        "12539": 88,
        "12540": 106,
        "12541": 153,
        "12542": 33,
        "12543": 103,
        "12544": 116,
        "12545": 81,
        "12546": 170,
        "12547": 175,
        "12548": 7,
        "12549": 109,
        "12550": 243,
        "12551": 105,
        "12552": 241,
        "12553": 112,
        "12554": 12,
        "12555": 82,
        "12556": 69,
        "12557": 212,
        "12558": 58,
        "12559": 246,
        "12560": 224,
        "12561": 110,
        "12562": 198,
        "12563": 14,
        "12564": 251,
        "12565": 141,
        "12566": 246,
        "12567": 63,
        "12568": 88,
        "12569": 65,
        "12570": 20,
        "12571": 53,
        "12572": 157,
        "12573": 165,
        "12574": 117,
        "12575": 41,
        "12576": 225,
        "12577": 88,
        "12578": 185,
        "12579": 85,
        "12580": 38,
        "12581": 227,
        "12582": 75,
        "12583": 240,
        "12584": 250,
        "12585": 154,
        "12586": 225,
        "12587": 248,
        "12588": 31,
        "12589": 117,
        "12590": 158,
        "12591": 157,
        "12592": 248,
        "12593": 102,
        "12594": 165,
        "12595": 242,
        "12596": 194,
        "12597": 0,
        "12598": 47,
        "12599": 178,
        "12600": 224,
        "12601": 113,
        "12602": 71,
        "12603": 253,
        "12604": 47,
        "12605": 206,
        "12606": 176,
        "12607": 2,
        "12608": 37,
        "12609": 238,
        "12610": 9,
        "12611": 170,
        "12612": 198,
        "12613": 203,
        "12614": 162,
        "12615": 44,
        "12616": 241,
        "12617": 239,
        "12618": 81,
        "12619": 13,
        "12620": 204,
        "12621": 62,
        "12622": 85,
        "12623": 149,
        "12624": 228,
        "12625": 15,
        "12626": 38,
        "12627": 100,
        "12628": 202,
        "12629": 252,
        "12630": 113,
        "12631": 161,
        "12632": 251,
        "12633": 198,
        "12634": 153,
        "12635": 250,
        "12636": 60,
        "12637": 45,
        "12638": 18,
        "12639": 43,
        "12640": 111,
        "12641": 99,
        "12642": 13,
        "12643": 199,
        "12644": 133,
        "12645": 113,
        "12646": 4,
        "12647": 99,
        "12648": 97,
        "12649": 227,
        "12650": 210,
        "12651": 39,
        "12652": 200,
        "12653": 15,
        "12654": 97,
        "12655": 225,
        "12656": 170,
        "12657": 27,
        "12658": 82,
        "12659": 79,
        "12660": 129,
        "12661": 3,
        "12662": 93,
        "12663": 223,
        "12664": 47,
        "12665": 234,
        "12666": 126,
        "12667": 132,
        "12668": 218,
        "12669": 184,
        "12670": 150,
        "12671": 203,
        "12672": 223,
        "12673": 2,
        "12674": 111,
        "12675": 163,
        "12676": 12,
        "12677": 42,
        "12678": 69,
        "12679": 69,
        "12680": 223,
        "12681": 179,
        "12682": 150,
        "12683": 189,
        "12684": 151,
        "12685": 226,
        "12686": 255,
        "12687": 206,
        "12688": 217,
        "12689": 207,
        "12690": 90,
        "12691": 229,
        "12692": 16,
        "12693": 108,
        "12694": 189,
        "12695": 240,
        "12696": 177,
        "12697": 70,
        "12698": 246,
        "12699": 101,
        "12700": 23,
        "12701": 212,
        "12702": 183,
        "12703": 17,
        "12704": 255,
        "12705": 151,
        "12706": 171,
        "12707": 229,
        "12708": 25,
        "12709": 61,
        "12710": 89,
        "12711": 71,
        "12712": 21,
        "12713": 129,
        "12714": 130,
        "12715": 20,
        "12716": 165,
        "12717": 6,
        "12718": 165,
        "12719": 41,
        "12720": 133,
        "12721": 132,
        "12722": 55,
        "12723": 182,
        "12724": 147,
        "12725": 48,
        "12726": 230,
        "12727": 110,
        "12728": 11,
        "12729": 83,
        "12730": 114,
        "12731": 169,
        "12732": 68,
        "12733": 224,
        "12734": 40,
        "12735": 246,
        "12736": 71,
        "12737": 89,
        "12738": 194,
        "12739": 140,
        "12740": 20,
        "12741": 39,
        "12742": 101,
        "12743": 26,
        "12744": 182,
        "12745": 246,
        "12746": 51,
        "12747": 34,
        "12748": 174,
        "12749": 230,
        "12750": 144,
        "12751": 232,
        "12752": 99,
        "12753": 167,
        "12754": 175,
        "12755": 130,
        "12756": 39,
        "12757": 203,
        "12758": 20,
        "12759": 96,
        "12760": 255,
        "12761": 241,
        "12762": 208,
        "12763": 213,
        "12764": 98,
        "12765": 154,
        "12766": 39,
        "12767": 35,
        "12768": 130,
        "12769": 114,
        "12770": 163,
        "12771": 117,
        "12772": 241,
        "12773": 131,
        "12774": 174,
        "12775": 83,
        "12776": 216,
        "12777": 193,
        "12778": 190,
        "12779": 133,
        "12780": 75,
        "12781": 149,
        "12782": 60,
        "12783": 37,
        "12784": 171,
        "12785": 100,
        "12786": 243,
        "12787": 200,
        "12788": 209,
        "12789": 165,
        "12790": 198,
        "12791": 70,
        "12792": 6,
        "12793": 66,
        "12794": 45,
        "12795": 233,
        "12796": 117,
        "12797": 2,
        "12798": 249,
        "12799": 172,
        "12800": 159,
        "12801": 92,
        "12802": 239,
        "12803": 211,
        "12804": 48,
        "12805": 165,
        "12806": 101,
        "12807": 11,
        "12808": 129,
        "12809": 26,
        "12810": 87,
        "12811": 25,
        "12812": 12,
        "12813": 105,
        "12814": 217,
        "12815": 48,
        "12816": 96,
        "12817": 178,
        "12818": 34,
        "12819": 79,
        "12820": 18,
        "12821": 59,
        "12822": 107,
        "12823": 14,
        "12824": 242,
        "12825": 178,
        "12826": 35,
        "12827": 218,
        "12828": 181,
        "12829": 121,
        "12830": 33,
        "12831": 48,
        "12832": 95,
        "12833": 204,
        "12834": 67,
        "12835": 162,
        "12836": 93,
        "12837": 208,
        "12838": 181,
        "12839": 253,
        "12840": 61,
        "12841": 96,
        "12842": 119,
        "12843": 167,
        "12844": 193,
        "12845": 100,
        "12846": 210,
        "12847": 251,
        "12848": 252,
        "12849": 85,
        "12850": 48,
        "12851": 237,
        "12852": 143,
        "12853": 186,
        "12854": 243,
        "12855": 221,
        "12856": 77,
        "12857": 137,
        "12858": 255,
        "12859": 242,
        "12860": 95,
        "12861": 233,
        "12862": 29,
        "12863": 128,
        "12864": 221,
        "12865": 220,
        "12866": 17,
        "12867": 111,
        "12868": 77,
        "12869": 12,
        "12870": 77,
        "12871": 176,
        "12872": 187,
        "12873": 199,
        "12874": 229,
        "12875": 116,
        "12876": 118,
        "12877": 144,
        "12878": 27,
        "12879": 112,
        "12880": 228,
        "12881": 84,
        "12882": 127,
        "12883": 173,
        "12884": 123,
        "12885": 167,
        "12886": 211,
        "12887": 62,
        "12888": 95,
        "12889": 150,
        "12890": 192,
        "12891": 174,
        "12892": 160,
        "12893": 49,
        "12894": 67,
        "12895": 188,
        "12896": 86,
        "12897": 22,
        "12898": 81,
        "12899": 241,
        "12900": 78,
        "12901": 18,
        "12902": 163,
        "12903": 140,
        "12904": 245,
        "12905": 179,
        "12906": 134,
        "12907": 7,
        "12908": 91,
        "12909": 52,
        "12910": 82,
        "12911": 90,
        "12912": 92,
        "12913": 208,
        "12914": 179,
        "12915": 97,
        "12916": 27,
        "12917": 93,
        "12918": 59,
        "12919": 106,
        "12920": 130,
        "12921": 57,
        "12922": 6,
        "12923": 46,
        "12924": 105,
        "12925": 181,
        "12926": 230,
        "12927": 7,
        "12928": 7,
        "12929": 188,
        "12930": 105,
        "12931": 215,
        "12932": 162,
        "12933": 188,
        "12934": 166,
        "12935": 159,
        "12936": 189,
        "12937": 208,
        "12938": 226,
        "12939": 215,
        "12940": 233,
        "12941": 148,
        "12942": 17,
        "12943": 46,
        "12944": 18,
        "12945": 218,
        "12946": 84,
        "12947": 212,
        "12948": 132,
        "12949": 217,
        "12950": 193,
        "12951": 54,
        "12952": 49,
        "12953": 236,
        "12954": 196,
        "12955": 163,
        "12956": 83,
        "12957": 18,
        "12958": 229,
        "12959": 137,
        "12960": 209,
        "12961": 47,
        "12962": 121,
        "12963": 42,
        "12964": 72,
        "12965": 113,
        "12966": 64,
        "12967": 244,
        "12968": 117,
        "12969": 232,
        "12970": 33,
        "12971": 153,
        "12972": 5,
        "12973": 148,
        "12974": 255,
        "12975": 176,
        "12976": 112,
        "12977": 9,
        "12978": 134,
        "12979": 62,
        "12980": 86,
        "12981": 232,
        "12982": 150,
        "12983": 185,
        "12984": 76,
        "12985": 199,
        "12986": 224,
        "12987": 63,
        "12988": 174,
        "12989": 152,
        "12990": 217,
        "12991": 35,
        "12992": 249,
        "12993": 66,
        "12994": 32,
        "12995": 73,
        "12996": 65,
        "12997": 106,
        "12998": 137,
        "12999": 214,
        "13000": 122,
        "13001": 227,
        "13002": 204,
        "13003": 116,
        "13004": 114,
        "13005": 47,
        "13006": 246,
        "13007": 171,
        "13008": 94,
        "13009": 194,
        "13010": 74,
        "13011": 152,
        "13012": 39,
        "13013": 248,
        "13014": 37,
        "13015": 241,
        "13016": 26,
        "13017": 205,
        "13018": 104,
        "13019": 125,
        "13020": 98,
        "13021": 143,
        "13022": 244,
        "13023": 133,
        "13024": 171,
        "13025": 233,
        "13026": 91,
        "13027": 193,
        "13028": 250,
        "13029": 243,
        "13030": 207,
        "13031": 192,
        "13032": 208,
        "13033": 102,
        "13034": 138,
        "13035": 126,
        "13036": 255,
        "13037": 39,
        "13038": 139,
        "13039": 180,
        "13040": 106,
        "13041": 138,
        "13042": 76,
        "13043": 252,
        "13044": 86,
        "13045": 63,
        "13046": 110,
        "13047": 51,
        "13048": 126,
        "13049": 118,
        "13050": 22,
        "13051": 19,
        "13052": 137,
        "13053": 206,
        "13054": 180,
        "13055": 187,
        "13056": 123,
        "13057": 144,
        "13058": 170,
        "13059": 26,
        "13060": 21,
        "13061": 45,
        "13062": 80,
        "13063": 123,
        "13064": 45,
        "13065": 228,
        "13066": 54,
        "13067": 166,
        "13068": 61,
        "13069": 225,
        "13070": 217,
        "13071": 119,
        "13072": 175,
        "13073": 89,
        "13074": 90,
        "13075": 142,
        "13076": 24,
        "13077": 87,
        "13078": 30,
        "13079": 149,
        "13080": 106,
        "13081": 111,
        "13082": 11,
        "13083": 139,
        "13084": 112,
        "13085": 1,
        "13086": 159,
        "13087": 78,
        "13088": 247,
        "13089": 253,
        "13090": 68,
        "13091": 116,
        "13092": 248,
        "13093": 84,
        "13094": 103,
        "13095": 118,
        "13096": 128,
        "13097": 126,
        "13098": 235,
        "13099": 50,
        "13100": 72,
        "13101": 92,
        "13102": 77,
        "13103": 136,
        "13104": 112,
        "13105": 210,
        "13106": 91,
        "13107": 60,
        "13108": 244,
        "13109": 241,
        "13110": 181,
        "13111": 66,
        "13112": 19,
        "13113": 78,
        "13114": 247,
        "13115": 125,
        "13116": 157,
        "13117": 112,
        "13118": 198,
        "13119": 88,
        "13120": 139,
        "13121": 73,
        "13122": 178,
        "13123": 127,
        "13124": 176,
        "13125": 99,
        "13126": 26,
        "13127": 100,
        "13128": 231,
        "13129": 23,
        "13130": 246,
        "13131": 134,
        "13132": 164,
        "13133": 161,
        "13134": 0,
        "13135": 184,
        "13136": 223,
        "13137": 61,
        "13138": 217,
        "13139": 240,
        "13140": 158,
        "13141": 173,
        "13142": 78,
        "13143": 147,
        "13144": 191,
        "13145": 48,
        "13146": 29,
        "13147": 177,
        "13148": 25,
        "13149": 224,
        "13150": 37,
        "13151": 10,
        "13152": 47,
        "13153": 159,
        "13154": 236,
        "13155": 127,
        "13156": 38,
        "13157": 140,
        "13158": 152,
        "13159": 119,
        "13160": 113,
        "13161": 146,
        "13162": 247,
        "13163": 50,
        "13164": 32,
        "13165": 52,
        "13166": 114,
        "13167": 159,
        "13168": 13,
        "13169": 105,
        "13170": 89,
        "13171": 155,
        "13172": 95,
        "13173": 192,
        "13174": 38,
        "13175": 29,
        "13176": 37,
        "13177": 8,
        "13178": 108,
        "13179": 11,
        "13180": 96,
        "13181": 177,
        "13182": 83,
        "13183": 2,
        "13184": 212,
        "13185": 80,
        "13186": 104,
        "13187": 144,
        "13188": 36,
        "13189": 46,
        "13190": 166,
        "13191": 78,
        "13192": 124,
        "13193": 190,
        "13194": 135,
        "13195": 188,
        "13196": 170,
        "13197": 58,
        "13198": 86,
        "13199": 158,
        "13200": 20,
        "13201": 110,
        "13202": 62,
        "13203": 155,
        "13204": 228,
        "13205": 190,
        "13206": 139,
        "13207": 119,
        "13208": 247,
        "13209": 106,
        "13210": 50,
        "13211": 151,
        "13212": 151,
        "13213": 35,
        "13214": 0,
        "13215": 24,
        "13216": 121,
        "13217": 253,
        "13218": 103,
        "13219": 158,
        "13220": 225,
        "13221": 139,
        "13222": 204,
        "13223": 61,
        "13224": 207,
        "13225": 67,
        "13226": 159,
        "13227": 32,
        "13228": 58,
        "13229": 213,
        "13230": 112,
        "13231": 103,
        "13232": 202,
        "13233": 141,
        "13234": 55,
        "13235": 244,
        "13236": 163,
        "13237": 209,
        "13238": 114,
        "13239": 39,
        "13240": 223,
        "13241": 23,
        "13242": 232,
        "13243": 203,
        "13244": 96,
        "13245": 189,
        "13246": 46,
        "13247": 48,
        "13248": 104,
        "13249": 88,
        "13250": 113,
        "13251": 1,
        "13252": 185,
        "13253": 0,
        "13254": 244,
        "13255": 175,
        "13256": 140,
        "13257": 17,
        "13258": 79,
        "13259": 39,
        "13260": 248,
        "13261": 33,
        "13262": 190,
        "13263": 24,
        "13264": 171,
        "13265": 38,
        "13266": 158,
        "13267": 5,
        "13268": 54,
        "13269": 173,
        "13270": 182,
        "13271": 25,
        "13272": 149,
        "13273": 9,
        "13274": 167,
        "13275": 119,
        "13276": 112,
        "13277": 181,
        "13278": 134,
        "13279": 120,
        "13280": 10,
        "13281": 149,
        "13282": 68,
        "13283": 173,
        "13284": 217,
        "13285": 35,
        "13286": 112,
        "13287": 229,
        "13288": 146,
        "13289": 170,
        "13290": 221,
        "13291": 230,
        "13292": 79,
        "13293": 203,
        "13294": 180,
        "13295": 247,
        "13296": 185,
        "13297": 83,
        "13298": 18,
        "13299": 203,
        "13300": 44,
        "13301": 194,
        "13302": 188,
        "13303": 172,
        "13304": 70,
        "13305": 240,
        "13306": 29,
        "13307": 154,
        "13308": 79,
        "13309": 169,
        "13310": 223,
        "13311": 215,
        "13312": 204,
        "13313": 221,
        "13314": 107,
        "13315": 167,
        "13316": 116,
        "13317": 131,
        "13318": 213,
        "13319": 94,
        "13320": 219,
        "13321": 175,
        "13322": 26,
        "13323": 162,
        "13324": 58,
        "13325": 155,
        "13326": 254,
        "13327": 30,
        "13328": 124,
        "13329": 7,
        "13330": 227,
        "13331": 97,
        "13332": 96,
        "13333": 13,
        "13334": 219,
        "13335": 163,
        "13336": 57,
        "13337": 105,
        "13338": 159,
        "13339": 137,
        "13340": 192,
        "13341": 194,
        "13342": 235,
        "13343": 171,
        "13344": 106,
        "13345": 85,
        "13346": 180,
        "13347": 68,
        "13348": 168,
        "13349": 41,
        "13350": 231,
        "13351": 74,
        "13352": 110,
        "13353": 208,
        "13354": 10,
        "13355": 21,
        "13356": 251,
        "13357": 85,
        "13358": 207,
        "13359": 146,
        "13360": 75,
        "13361": 32,
        "13362": 246,
        "13363": 108,
        "13364": 22,
        "13365": 158,
        "13366": 173,
        "13367": 100,
        "13368": 102,
        "13369": 144,
        "13370": 253,
        "13371": 74,
        "13372": 91,
        "13373": 196,
        "13374": 36,
        "13375": 208,
        "13376": 136,
        "13377": 113,
        "13378": 68,
        "13379": 195,
        "13380": 104,
        "13381": 138,
        "13382": 232,
        "13383": 110,
        "13384": 111,
        "13385": 252,
        "13386": 3,
        "13387": 170,
        "13388": 208,
        "13389": 160,
        "13390": 76,
        "13391": 80,
        "13392": 127,
        "13393": 54,
        "13394": 77,
        "13395": 24,
        "13396": 50,
        "13397": 159,
        "13398": 160,
        "13399": 106,
        "13400": 215,
        "13401": 89,
        "13402": 169,
        "13403": 84,
        "13404": 174,
        "13405": 124,
        "13406": 241,
        "13407": 121,
        "13408": 178,
        "13409": 228,
        "13410": 210,
        "13411": 119,
        "13412": 31,
        "13413": 199,
        "13414": 31,
        "13415": 14,
        "13416": 150,
        "13417": 106,
        "13418": 68,
        "13419": 153,
        "13420": 28,
        "13421": 5,
        "13422": 126,
        "13423": 18,
        "13424": 155,
        "13425": 199,
        "13426": 150,
        "13427": 27,
        "13428": 209,
        "13429": 128,
        "13430": 160,
        "13431": 75,
        "13432": 191,
        "13433": 199,
        "13434": 185,
        "13435": 202,
        "13436": 90,
        "13437": 149,
        "13438": 170,
        "13439": 38,
        "13440": 21,
        "13441": 96,
        "13442": 188,
        "13443": 242,
        "13444": 170,
        "13445": 120,
        "13446": 173,
        "13447": 119,
        "13448": 250,
        "13449": 8,
        "13450": 67,
        "13451": 224,
        "13452": 99,
        "13453": 6,
        "13454": 237,
        "13455": 65,
        "13456": 148,
        "13457": 62,
        "13458": 160,
        "13459": 165,
        "13460": 244,
        "13461": 224,
        "13462": 175,
        "13463": 245,
        "13464": 25,
        "13465": 126,
        "13466": 232,
        "13467": 139,
        "13468": 210,
        "13469": 118,
        "13470": 133,
        "13471": 210,
        "13472": 179,
        "13473": 78,
        "13474": 199,
        "13475": 34,
        "13476": 185,
        "13477": 180,
        "13478": 209,
        "13479": 136,
        "13480": 19,
        "13481": 19,
        "13482": 139,
        "13483": 221,
        "13484": 58,
        "13485": 86,
        "13486": 172,
        "13487": 67,
        "13488": 57,
        "13489": 26,
        "13490": 254,
        "13491": 174,
        "13492": 42,
        "13493": 181,
        "13494": 32,
        "13495": 237,
        "13496": 54,
        "13497": 80,
        "13498": 101,
        "13499": 143,
        "13500": 105,
        "13501": 158,
        "13502": 20,
        "13503": 79,
        "13504": 149,
        "13505": 159,
        "13506": 65,
        "13507": 86,
        "13508": 79,
        "13509": 79,
        "13510": 113,
        "13511": 245,
        "13512": 163,
        "13513": 250,
        "13514": 178,
        "13515": 157,
        "13516": 202,
        "13517": 161,
        "13518": 142,
        "13519": 225,
        "13520": 170,
        "13521": 175,
        "13522": 227,
        "13523": 107,
        "13524": 220,
        "13525": 146,
        "13526": 255,
        "13527": 126,
        "13528": 28,
        "13529": 254,
        "13530": 20,
        "13531": 160,
        "13532": 26,
        "13533": 239,
        "13534": 149,
        "13535": 216,
        "13536": 31,
        "13537": 252,
        "13538": 195,
        "13539": 215,
        "13540": 164,
        "13541": 105,
        "13542": 138,
        "13543": 158,
        "13544": 217,
        "13545": 16,
        "13546": 12,
        "13547": 167,
        "13548": 183,
        "13549": 152,
        "13550": 38,
        "13551": 149,
        "13552": 250,
        "13553": 90,
        "13554": 202,
        "13555": 197,
        "13556": 28,
        "13557": 246,
        "13558": 190,
        "13559": 142,
        "13560": 216,
        "13561": 184,
        "13562": 41,
        "13563": 202,
        "13564": 83,
        "13565": 103,
        "13566": 155,
        "13567": 89,
        "13568": 128,
        "13569": 231,
        "13570": 193,
        "13571": 18,
        "13572": 72,
        "13573": 146,
        "13574": 92,
        "13575": 185,
        "13576": 246,
        "13577": 107,
        "13578": 196,
        "13579": 101,
        "13580": 42,
        "13581": 241,
        "13582": 110,
        "13583": 113,
        "13584": 141,
        "13585": 82,
        "13586": 207,
        "13587": 142,
        "13588": 155,
        "13589": 186,
        "13590": 238,
        "13591": 47,
        "13592": 231,
        "13593": 66,
        "13594": 47,
        "13595": 23,
        "13596": 194,
        "13597": 4,
        "13598": 46,
        "13599": 175,
        "13600": 248,
        "13601": 148,
        "13602": 187,
        "13603": 100,
        "13604": 187,
        "13605": 178,
        "13606": 75,
        "13607": 189,
        "13608": 32,
        "13609": 55,
        "13610": 118,
        "13611": 224,
        "13612": 149,
        "13613": 189,
        "13614": 3,
        "13615": 143,
        "13616": 244,
        "13617": 196,
        "13618": 37,
        "13619": 87,
        "13620": 66,
        "13621": 112,
        "13622": 58,
        "13623": 96,
        "13624": 145,
        "13625": 168,
        "13626": 155,
        "13627": 142,
        "13628": 5,
        "13629": 91,
        "13630": 228,
        "13631": 63,
        "13632": 80,
        "13633": 177,
        "13634": 17,
        "13635": 156,
        "13636": 183,
        "13637": 195,
        "13638": 194,
        "13639": 25,
        "13640": 19,
        "13641": 111,
        "13642": 156,
        "13643": 11,
        "13644": 129,
        "13645": 232,
        "13646": 52,
        "13647": 103,
        "13648": 20,
        "13649": 47,
        "13650": 195,
        "13651": 179,
        "13652": 81,
        "13653": 56,
        "13654": 38,
        "13655": 64,
        "13656": 56,
        "13657": 245,
        "13658": 8,
        "13659": 204,
        "13660": 75,
        "13661": 159,
        "13662": 205,
        "13663": 179,
        "13664": 114,
        "13665": 57,
        "13666": 191,
        "13667": 150,
        "13668": 0,
        "13669": 247,
        "13670": 48,
        "13671": 187,
        "13672": 174,
        "13673": 35,
        "13674": 240,
        "13675": 31,
        "13676": 159,
        "13677": 144,
        "13678": 240,
        "13679": 19,
        "13680": 5,
        "13681": 255,
        "13682": 143,
        "13683": 55,
        "13684": 50,
        "13685": 49,
        "13686": 30,
        "13687": 171,
        "13688": 193,
        "13689": 198,
        "13690": 110,
        "13691": 108,
        "13692": 236,
        "13693": 246,
        "13694": 20,
        "13695": 192,
        "13696": 88,
        "13697": 248,
        "13698": 221,
        "13699": 129,
        "13700": 50,
        "13701": 24,
        "13702": 22,
        "13703": 138,
        "13704": 255,
        "13705": 28,
        "13706": 229,
        "13707": 46,
        "13708": 49,
        "13709": 212,
        "13710": 65,
        "13711": 251,
        "13712": 10,
        "13713": 131,
        "13714": 99,
        "13715": 88,
        "13716": 107,
        "13717": 141,
        "13718": 31,
        "13719": 250,
        "13720": 202,
        "13721": 166,
        "13722": 103,
        "13723": 81,
        "13724": 23,
        "13725": 235,
        "13726": 115,
        "13727": 145,
        "13728": 166,
        "13729": 211,
        "13730": 26,
        "13731": 233,
        "13732": 184,
        "13733": 225,
        "13734": 59,
        "13735": 39,
        "13736": 35,
        "13737": 35,
        "13738": 55,
        "13739": 198,
        "13740": 98,
        "13741": 62,
        "13742": 206,
        "13743": 198,
        "13744": 65,
        "13745": 221,
        "13746": 151,
        "13747": 105,
        "13748": 116,
        "13749": 87,
        "13750": 185,
        "13751": 95,
        "13752": 27,
        "13753": 143,
        "13754": 79,
        "13755": 93,
        "13756": 31,
        "13757": 96,
        "13758": 165,
        "13759": 69,
        "13760": 162,
        "13761": 4,
        "13762": 171,
        "13763": 191,
        "13764": 34,
        "13765": 128,
        "13766": 136,
        "13767": 194,
        "13768": 146,
        "13769": 130,
        "13770": 75,
        "13771": 228,
        "13772": 131,
        "13773": 62,
        "13774": 149,
        "13775": 74,
        "13776": 14,
        "13777": 133,
        "13778": 169,
        "13779": 142,
        "13780": 202,
        "13781": 183,
        "13782": 242,
        "13783": 12,
        "13784": 240,
        "13785": 86,
        "13786": 145,
        "13787": 221,
        "13788": 66,
        "13789": 242,
        "13790": 97,
        "13791": 18,
        "13792": 150,
        "13793": 32,
        "13794": 52,
        "13795": 79,
        "13796": 51,
        "13797": 245,
        "13798": 246,
        "13799": 212,
        "13800": 13,
        "13801": 136,
        "13802": 201,
        "13803": 103,
        "13804": 221,
        "13805": 58,
        "13806": 96,
        "13807": 163,
        "13808": 112,
        "13809": 12,
        "13810": 218,
        "13811": 21,
        "13812": 68,
        "13813": 193,
        "13814": 36,
        "13815": 200,
        "13816": 29,
        "13817": 28,
        "13818": 210,
        "13819": 217,
        "13820": 137,
        "13821": 128,
        "13822": 97,
        "13823": 211,
        "13824": 26,
        "13825": 170,
        "13826": 213,
        "13827": 227,
        "13828": 179,
        "13829": 218,
        "13830": 138,
        "13831": 223,
        "13832": 63,
        "13833": 118,
        "13834": 24,
        "13835": 245,
        "13836": 45,
        "13837": 96,
        "13838": 117,
        "13839": 111,
        "13840": 151,
        "13841": 135,
        "13842": 161,
        "13843": 12,
        "13844": 43,
        "13845": 252,
        "13846": 238,
        "13847": 225,
        "13848": 231,
        "13849": 188,
        "13850": 218,
        "13851": 183,
        "13852": 164,
        "13853": 40,
        "13854": 2,
        "13855": 98,
        "13856": 79,
        "13857": 55,
        "13858": 219,
        "13859": 9,
        "13860": 174,
        "13861": 9,
        "13862": 210,
        "13863": 241,
        "13864": 191,
        "13865": 183,
        "13866": 96,
        "13867": 183,
        "13868": 17,
        "13869": 122,
        "13870": 24,
        "13871": 255,
        "13872": 191,
        "13873": 69,
        "13874": 73,
        "13875": 33,
        "13876": 187,
        "13877": 182,
        "13878": 80,
        "13879": 14,
        "13880": 15,
        "13881": 136,
        "13882": 189,
        "13883": 67,
        "13884": 177,
        "13885": 70,
        "13886": 173,
        "13887": 173,
        "13888": 75,
        "13889": 189,
        "13890": 115,
        "13891": 33,
        "13892": 179,
        "13893": 186,
        "13894": 12,
        "13895": 149,
        "13896": 154,
        "13897": 177,
        "13898": 160,
        "13899": 2,
        "13900": 169,
        "13901": 17,
        "13902": 196,
        "13903": 32,
        "13904": 31,
        "13905": 140,
        "13906": 151,
        "13907": 197,
        "13908": 155,
        "13909": 84,
        "13910": 123,
        "13911": 169,
        "13912": 119,
        "13913": 149,
        "13914": 137,
        "13915": 84,
        "13916": 61,
        "13917": 184,
        "13918": 72,
        "13919": 177,
        "13920": 150,
        "13921": 253,
        "13922": 90,
        "13923": 93,
        "13924": 139,
        "13925": 218,
        "13926": 110,
        "13927": 115,
        "13928": 146,
        "13929": 127,
        "13930": 177,
        "13931": 94,
        "13932": 249,
        "13933": 86,
        "13934": 89,
        "13935": 25,
        "13936": 233,
        "13937": 173,
        "13938": 115,
        "13939": 216,
        "13940": 242,
        "13941": 102,
        "13942": 125,
        "13943": 8,
        "13944": 153,
        "13945": 237,
        "13946": 35,
        "13947": 195,
        "13948": 49,
        "13949": 239,
        "13950": 200,
        "13951": 124,
        "13952": 165,
        "13953": 117,
        "13954": 100,
        "13955": 161,
        "13956": 113,
        "13957": 2,
        "13958": 97,
        "13959": 128,
        "13960": 103,
        "13961": 79,
        "13962": 139,
        "13963": 118,
        "13964": 82,
        "13965": 216,
        "13966": 206,
        "13967": 5,
        "13968": 27,
        "13969": 231,
        "13970": 138,
        "13971": 204,
        "13972": 248,
        "13973": 30,
        "13974": 35,
        "13975": 106,
        "13976": 8,
        "13977": 1,
        "13978": 7,
        "13979": 171,
        "13980": 50,
        "13981": 5,
        "13982": 85,
        "13983": 23,
        "13984": 100,
        "13985": 137,
        "13986": 241,
        "13987": 21,
        "13988": 236,
        "13989": 23,
        "13990": 251,
        "13991": 69,
        "13992": 146,
        "13993": 173,
        "13994": 237,
        "13995": 36,
        "13996": 9,
        "13997": 69,
        "13998": 212,
        "13999": 140,
        "14000": 183,
        "14001": 221,
        "14002": 200,
        "14003": 44,
        "14004": 114,
        "14005": 66,
        "14006": 105,
        "14007": 18,
        "14008": 22,
        "14009": 119,
        "14010": 237,
        "14011": 215,
        "14012": 45,
        "14013": 32,
        "14014": 255,
        "14015": 26,
        "14016": 70,
        "14017": 55,
        "14018": 50,
        "14019": 21,
        "14020": 28,
        "14021": 241,
        "14022": 152,
        "14023": 36,
        "14024": 95,
        "14025": 52,
        "14026": 132,
        "14027": 31,
        "14028": 97,
        "14029": 237,
        "14030": 21,
        "14031": 97,
        "14032": 163,
        "14033": 224,
        "14034": 97,
        "14035": 181,
        "14036": 81,
        "14037": 206,
        "14038": 143,
        "14039": 62,
        "14040": 121,
        "14041": 129,
        "14042": 183,
        "14043": 227,
        "14044": 227,
        "14045": 174,
        "14046": 180,
        "14047": 120,
        "14048": 131,
        "14049": 19,
        "14050": 70,
        "14051": 6,
        "14052": 236,
        "14053": 116,
        "14054": 225,
        "14055": 22,
        "14056": 73,
        "14057": 231,
        "14058": 238,
        "14059": 195,
        "14060": 16,
        "14061": 10,
        "14062": 1,
        "14063": 235,
        "14064": 247,
        "14065": 134,
        "14066": 115,
        "14067": 245,
        "14068": 187,
        "14069": 63,
        "14070": 55,
        "14071": 0,
        "14072": 145,
        "14073": 231,
        "14074": 70,
        "14075": 206,
        "14076": 16,
        "14077": 241,
        "14078": 21,
        "14079": 12,
        "14080": 171,
        "14081": 202,
        "14082": 125,
        "14083": 3,
        "14084": 53,
        "14085": 104,
        "14086": 35,
        "14087": 250,
        "14088": 192,
        "14089": 191,
        "14090": 34,
        "14091": 129,
        "14092": 12,
        "14093": 118,
        "14094": 33,
        "14095": 122,
        "14096": 143,
        "14097": 209,
        "14098": 216,
        "14099": 251,
        "14100": 253,
        "14101": 30,
        "14102": 139,
        "14103": 169,
        "14104": 249,
        "14105": 230,
        "14106": 121,
        "14107": 231,
        "14108": 16,
        "14109": 195,
        "14110": 61,
        "14111": 241,
        "14112": 209,
        "14113": 206,
        "14114": 0,
        "14115": 24,
        "14116": 121,
        "14117": 28,
        "14118": 0,
        "14119": 191,
        "14120": 113,
        "14121": 110,
        "14122": 14,
        "14123": 131,
        "14124": 118,
        "14125": 80,
        "14126": 253,
        "14127": 214,
        "14128": 143,
        "14129": 24,
        "14130": 49,
        "14131": 167,
        "14132": 0,
        "14133": 222,
        "14134": 36,
        "14135": 242,
        "14136": 112,
        "14137": 127,
        "14138": 111,
        "14139": 208,
        "14140": 118,
        "14141": 162,
        "14142": 76,
        "14143": 182,
        "14144": 238,
        "14145": 170,
        "14146": 72,
        "14147": 138,
        "14148": 182,
        "14149": 164,
        "14150": 186,
        "14151": 198,
        "14152": 221,
        "14153": 17,
        "14154": 53,
        "14155": 179,
        "14156": 88,
        "14157": 210,
        "14158": 5,
        "14159": 178,
        "14160": 77,
        "14161": 217,
        "14162": 232,
        "14163": 33,
        "14164": 209,
        "14165": 175,
        "14166": 133,
        "14167": 203,
        "14168": 107,
        "14169": 201,
        "14170": 189,
        "14171": 199,
        "14172": 85,
        "14173": 131,
        "14174": 19,
        "14175": 195,
        "14176": 69,
        "14177": 219,
        "14178": 54,
        "14179": 192,
        "14180": 191,
        "14181": 210,
        "14182": 166,
        "14183": 133,
        "14184": 132,
        "14185": 225,
        "14186": 215,
        "14187": 27,
        "14188": 29,
        "14189": 112,
        "14190": 183,
        "14191": 83,
        "14192": 83,
        "14193": 247,
        "14194": 137,
        "14195": 161,
        "14196": 142,
        "14197": 28,
        "14198": 121,
        "14199": 48,
        "14200": 50,
        "14201": 45,
        "14202": 48,
        "14203": 32,
        "14204": 150,
        "14205": 191,
        "14206": 195,
        "14207": 57,
        "14208": 219,
        "14209": 248,
        "14210": 57,
        "14211": 0,
        "14212": 75,
        "14213": 12,
        "14214": 94,
        "14215": 223,
        "14216": 56,
        "14217": 6,
        "14218": 167,
        "14219": 235,
        "14220": 195,
        "14221": 131,
        "14222": 208,
        "14223": 229,
        "14224": 87,
        "14225": 246,
        "14226": 220,
        "14227": 181,
        "14228": 204,
        "14229": 60,
        "14230": 113,
        "14231": 222,
        "14232": 159,
        "14233": 85,
        "14234": 51,
        "14235": 109,
        "14236": 84,
        "14237": 109,
        "14238": 76,
        "14239": 80,
        "14240": 82,
        "14241": 29,
        "14242": 154,
        "14243": 154,
        "14244": 231,
        "14245": 96,
        "14246": 248,
        "14247": 97,
        "14248": 166,
        "14249": 144,
        "14250": 188,
        "14251": 217,
        "14252": 225,
        "14253": 21,
        "14254": 30,
        "14255": 67,
        "14256": 218,
        "14257": 118,
        "14258": 237,
        "14259": 249,
        "14260": 12,
        "14261": 183,
        "14262": 237,
        "14263": 7,
        "14264": 95,
        "14265": 153,
        "14266": 228,
        "14267": 24,
        "14268": 83,
        "14269": 205,
        "14270": 100,
        "14271": 45,
        "14272": 242,
        "14273": 202,
        "14274": 163,
        "14275": 174,
        "14276": 159,
        "14277": 121,
        "14278": 110,
        "14279": 196,
        "14280": 52,
        "14281": 163,
        "14282": 96,
        "14283": 93,
        "14284": 222,
        "14285": 82,
        "14286": 29,
        "14287": 200,
        "14288": 136,
        "14289": 101,
        "14290": 142,
        "14291": 101,
        "14292": 89,
        "14293": 209,
        "14294": 99,
        "14295": 36,
        "14296": 243,
        "14297": 251,
        "14298": 154,
        "14299": 141,
        "14300": 34,
        "14301": 102,
        "14302": 15,
        "14303": 190,
        "14304": 94,
        "14305": 164,
        "14306": 178,
        "14307": 16,
        "14308": 2,
        "14309": 186,
        "14310": 236,
        "14311": 161,
        "14312": 34,
        "14313": 175,
        "14314": 166,
        "14315": 216,
        "14316": 181,
        "14317": 232,
        "14318": 95,
        "14319": 130,
        "14320": 88,
        "14321": 249,
        "14322": 194,
        "14323": 3,
        "14324": 26,
        "14325": 59,
        "14326": 118,
        "14327": 41,
        "14328": 98,
        "14329": 3,
        "14330": 169,
        "14331": 39,
        "14332": 137,
        "14333": 88,
        "14334": 72,
        "14335": 158,
        "14336": 242,
        "14337": 239,
        "14338": 240,
        "14339": 133,
        "14340": 121,
        "14341": 206,
        "14342": 41,
        "14343": 138,
        "14344": 201,
        "14345": 128,
        "14346": 236,
        "14347": 90,
        "14348": 106,
        "14349": 145,
        "14350": 146,
        "14351": 146,
        "14352": 48,
        "14353": 12,
        "14354": 248,
        "14355": 14,
        "14356": 223,
        "14357": 35,
        "14358": 154,
        "14359": 233,
        "14360": 85,
        "14361": 60,
        "14362": 5,
        "14363": 125,
        "14364": 52,
        "14365": 112,
        "14366": 237,
        "14367": 8,
        "14368": 133,
        "14369": 154,
        "14370": 182,
        "14371": 115,
        "14372": 85,
        "14373": 230,
        "14374": 118,
        "14375": 245,
        "14376": 5,
        "14377": 155,
        "14378": 206,
        "14379": 20,
        "14380": 112,
        "14381": 110,
        "14382": 63,
        "14383": 234,
        "14384": 127,
        "14385": 151,
        "14386": 146,
        "14387": 16,
        "14388": 170,
        "14389": 21,
        "14390": 43,
        "14391": 233,
        "14392": 204,
        "14393": 157,
        "14394": 100,
        "14395": 197,
        "14396": 129,
        "14397": 185,
        "14398": 0,
        "14399": 28,
        "14400": 183,
        "14401": 15,
        "14402": 219,
        "14403": 175,
        "14404": 5,
        "14405": 166,
        "14406": 202,
        "14407": 182,
        "14408": 162,
        "14409": 206,
        "14410": 208,
        "14411": 216,
        "14412": 248,
        "14413": 140,
        "14414": 24,
        "14415": 125,
        "14416": 151,
        "14417": 63,
        "14418": 75,
        "14419": 252,
        "14420": 50,
        "14421": 81,
        "14422": 43,
        "14423": 34,
        "14424": 229,
        "14425": 6,
        "14426": 39,
        "14427": 156,
        "14428": 238,
        "14429": 237,
        "14430": 152,
        "14431": 159,
        "14432": 53,
        "14433": 238,
        "14434": 30,
        "14435": 114,
        "14436": 238,
        "14437": 212,
        "14438": 109,
        "14439": 211,
        "14440": 195,
        "14441": 189,
        "14442": 80,
        "14443": 138,
        "14444": 99,
        "14445": 80,
        "14446": 223,
        "14447": 80,
        "14448": 33,
        "14449": 151,
        "14450": 187,
        "14451": 238,
        "14452": 98,
        "14453": 28,
        "14454": 232,
        "14455": 52,
        "14456": 52,
        "14457": 205,
        "14458": 4,
        "14459": 118,
        "14460": 229,
        "14461": 206,
        "14462": 27,
        "14463": 244,
        "14464": 251,
        "14465": 115,
        "14466": 165,
        "14467": 165,
        "14468": 151,
        "14469": 237,
        "14470": 175,
        "14471": 127,
        "14472": 107,
        "14473": 222,
        "14474": 53,
        "14475": 44,
        "14476": 219,
        "14477": 60,
        "14478": 211,
        "14479": 121,
        "14480": 214,
        "14481": 144,
        "14482": 208,
        "14483": 112,
        "14484": 89,
        "14485": 185,
        "14486": 14,
        "14487": 2,
        "14488": 0,
        "14489": 187,
        "14490": 100,
        "14491": 189,
        "14492": 33,
        "14493": 43,
        "14494": 232,
        "14495": 66,
        "14496": 99,
        "14497": 146,
        "14498": 32,
        "14499": 77,
        "14500": 213,
        "14501": 134,
        "14502": 94,
        "14503": 195,
        "14504": 151,
        "14505": 236,
        "14506": 98,
        "14507": 54,
        "14508": 89,
        "14509": 135,
        "14510": 116,
        "14511": 54,
        "14512": 196,
        "14513": 173,
        "14514": 110,
        "14515": 140,
        "14516": 118,
        "14517": 32,
        "14518": 56,
        "14519": 111,
        "14520": 34,
        "14521": 227,
        "14522": 83,
        "14523": 169,
        "14524": 14,
        "14525": 123,
        "14526": 79,
        "14527": 96,
        "14528": 238,
        "14529": 72,
        "14530": 168,
        "14531": 22,
        "14532": 158,
        "14533": 233,
        "14534": 38,
        "14535": 186,
        "14536": 136,
        "14537": 208,
        "14538": 145,
        "14539": 35,
        "14540": 114,
        "14541": 111,
        "14542": 152,
        "14543": 1,
        "14544": 120,
        "14545": 172,
        "14546": 38,
        "14547": 157,
        "14548": 112,
        "14549": 149,
        "14550": 33,
        "14551": 155,
        "14552": 252,
        "14553": 211,
        "14554": 201,
        "14555": 92,
        "14556": 245,
        "14557": 222,
        "14558": 46,
        "14559": 230,
        "14560": 203,
        "14561": 180,
        "14562": 42,
        "14563": 167,
        "14564": 73,
        "14565": 209,
        "14566": 133,
        "14567": 110,
        "14568": 155,
        "14569": 227,
        "14570": 179,
        "14571": 233,
        "14572": 40,
        "14573": 196,
        "14574": 47,
        "14575": 89,
        "14576": 102,
        "14577": 222,
        "14578": 175,
        "14579": 165,
        "14580": 120,
        "14581": 146,
        "14582": 51,
        "14583": 152,
        "14584": 168,
        "14585": 137,
        "14586": 114,
        "14587": 186,
        "14588": 206,
        "14589": 214,
        "14590": 56,
        "14591": 90,
        "14592": 165,
        "14593": 136,
        "14594": 200,
        "14595": 31,
        "14596": 48,
        "14597": 87,
        "14598": 154,
        "14599": 157,
        "14600": 93,
        "14601": 138,
        "14602": 196,
        "14603": 228,
        "14604": 39,
        "14605": 142,
        "14606": 185,
        "14607": 194,
        "14608": 87,
        "14609": 63,
        "14610": 174,
        "14611": 231,
        "14612": 146,
        "14613": 215,
        "14614": 227,
        "14615": 71,
        "14616": 147,
        "14617": 121,
        "14618": 73,
        "14619": 141,
        "14620": 177,
        "14621": 200,
        "14622": 233,
        "14623": 238,
        "14624": 235,
        "14625": 103,
        "14626": 168,
        "14627": 228,
        "14628": 123,
        "14629": 4,
        "14630": 137,
        "14631": 54,
        "14632": 116,
        "14633": 137,
        "14634": 160,
        "14635": 26,
        "14636": 109,
        "14637": 226,
        "14638": 210,
        "14639": 192,
        "14640": 13,
        "14641": 158,
        "14642": 20,
        "14643": 125,
        "14644": 238,
        "14645": 199,
        "14646": 224,
        "14647": 53,
        "14648": 214,
        "14649": 193,
        "14650": 3,
        "14651": 140,
        "14652": 193,
        "14653": 142,
        "14654": 6,
        "14655": 200,
        "14656": 173,
        "14657": 240,
        "14658": 169,
        "14659": 75,
        "14660": 22,
        "14661": 46,
        "14662": 147,
        "14663": 43,
        "14664": 88,
        "14665": 91,
        "14666": 75,
        "14667": 81,
        "14668": 28,
        "14669": 227,
        "14670": 21,
        "14671": 173,
        "14672": 127,
        "14673": 19,
        "14674": 86,
        "14675": 14,
        "14676": 152,
        "14677": 20,
        "14678": 226,
        "14679": 212,
        "14680": 97,
        "14681": 200,
        "14682": 160,
        "14683": 210,
        "14684": 55,
        "14685": 213,
        "14686": 203,
        "14687": 17,
        "14688": 232,
        "14689": 57,
        "14690": 246,
        "14691": 172,
        "14692": 44,
        "14693": 8,
        "14694": 187,
        "14695": 21,
        "14696": 239,
        "14697": 40,
        "14698": 234,
        "14699": 162,
        "14700": 244,
        "14701": 154,
        "14702": 36,
        "14703": 126,
        "14704": 35,
        "14705": 115,
        "14706": 24,
        "14707": 35,
        "14708": 141,
        "14709": 230,
        "14710": 72,
        "14711": 13,
        "14712": 22,
        "14713": 221,
        "14714": 17,
        "14715": 144,
        "14716": 49,
        "14717": 76,
        "14718": 62,
        "14719": 77,
        "14720": 13,
        "14721": 156,
        "14722": 82,
        "14723": 239,
        "14724": 152,
        "14725": 242,
        "14726": 32,
        "14727": 67,
        "14728": 25,
        "14729": 122,
        "14730": 86,
        "14731": 108,
        "14732": 241,
        "14733": 45,
        "14734": 164,
        "14735": 2,
        "14736": 244,
        "14737": 199,
        "14738": 190,
        "14739": 16,
        "14740": 175,
        "14741": 16,
        "14742": 174,
        "14743": 196,
        "14744": 12,
        "14745": 228,
        "14746": 120,
        "14747": 101,
        "14748": 90,
        "14749": 246,
        "14750": 123,
        "14751": 54,
        "14752": 58,
        "14753": 95,
        "14754": 85,
        "14755": 114,
        "14756": 54,
        "14757": 35,
        "14758": 207,
        "14759": 165,
        "14760": 21,
        "14761": 119,
        "14762": 81,
        "14763": 84,
        "14764": 102,
        "14765": 32,
        "14766": 115,
        "14767": 238,
        "14768": 122,
        "14769": 222,
        "14770": 109,
        "14771": 237,
        "14772": 95,
        "14773": 220,
        "14774": 235,
        "14775": 209,
        "14776": 144,
        "14777": 179,
        "14778": 171,
        "14779": 194,
        "14780": 155,
        "14781": 253,
        "14782": 115,
        "14783": 236,
        "14784": 137,
        "14785": 174,
        "14786": 68,
        "14787": 147,
        "14788": 105,
        "14789": 122,
        "14790": 88,
        "14791": 94,
        "14792": 216,
        "14793": 101,
        "14794": 191,
        "14795": 2,
        "14796": 204,
        "14797": 191,
        "14798": 13,
        "14799": 72,
        "14800": 226,
        "14801": 217,
        "14802": 222,
        "14803": 167,
        "14804": 121,
        "14805": 110,
        "14806": 87,
        "14807": 227,
        "14808": 210,
        "14809": 226,
        "14810": 154,
        "14811": 43,
        "14812": 169,
        "14813": 126,
        "14814": 36,
        "14815": 90,
        "14816": 34,
        "14817": 174,
        "14818": 21,
        "14819": 66,
        "14820": 29,
        "14821": 71,
        "14822": 108,
        "14823": 114,
        "14824": 145,
        "14825": 35,
        "14826": 20,
        "14827": 28,
        "14828": 112,
        "14829": 228,
        "14830": 167,
        "14831": 133,
        "14832": 210,
        "14833": 195,
        "14834": 39,
        "14835": 88,
        "14836": 49,
        "14837": 208,
        "14838": 28,
        "14839": 200,
        "14840": 38,
        "14841": 234,
        "14842": 218,
        "14843": 133,
        "14844": 254,
        "14845": 57,
        "14846": 223,
        "14847": 61,
        "14848": 126,
        "14849": 69,
        "14850": 233,
        "14851": 218,
        "14852": 154,
        "14853": 70,
        "14854": 109,
        "14855": 254,
        "14856": 22,
        "14857": 217,
        "14858": 40,
        "14859": 161,
        "14860": 38,
        "14861": 147,
        "14862": 247,
        "14863": 127,
        "14864": 18,
        "14865": 113,
        "14866": 10,
        "14867": 236,
        "14868": 160,
        "14869": 140,
        "14870": 45,
        "14871": 104,
        "14872": 8,
        "14873": 186,
        "14874": 17,
        "14875": 53,
        "14876": 87,
        "14877": 31,
        "14878": 30,
        "14879": 212,
        "14880": 4,
        "14881": 14,
        "14882": 14,
        "14883": 169,
        "14884": 198,
        "14885": 39,
        "14886": 148,
        "14887": 136,
        "14888": 3,
        "14889": 174,
        "14890": 196,
        "14891": 251,
        "14892": 87,
        "14893": 31,
        "14894": 63,
        "14895": 110,
        "14896": 104,
        "14897": 26,
        "14898": 216,
        "14899": 233,
        "14900": 97,
        "14901": 42,
        "14902": 84,
        "14903": 159,
        "14904": 162,
        "14905": 192,
        "14906": 209,
        "14907": 129,
        "14908": 117,
        "14909": 115,
        "14910": 34,
        "14911": 221,
        "14912": 244,
        "14913": 4,
        "14914": 77,
        "14915": 191,
        "14916": 132,
        "14917": 84,
        "14918": 18,
        "14919": 148,
        "14920": 73,
        "14921": 234,
        "14922": 56,
        "14923": 1,
        "14924": 33,
        "14925": 179,
        "14926": 191,
        "14927": 190,
        "14928": 29,
        "14929": 84,
        "14930": 211,
        "14931": 152,
        "14932": 239,
        "14933": 180,
        "14934": 245,
        "14935": 79,
        "14936": 108,
        "14937": 68,
        "14938": 112,
        "14939": 67,
        "14940": 93,
        "14941": 189,
        "14942": 173,
        "14943": 93,
        "14944": 174,
        "14945": 179,
        "14946": 254,
        "14947": 200,
        "14948": 90,
        "14949": 245,
        "14950": 67,
        "14951": 171,
        "14952": 233,
        "14953": 206,
        "14954": 113,
        "14955": 93,
        "14956": 100,
        "14957": 143,
        "14958": 23,
        "14959": 115,
        "14960": 30,
        "14961": 224,
        "14962": 74,
        "14963": 3,
        "14964": 249,
        "14965": 216,
        "14966": 245,
        "14967": 134,
        "14968": 116,
        "14969": 30,
        "14970": 47,
        "14971": 175,
        "14972": 102,
        "14973": 45,
        "14974": 57,
        "14975": 76,
        "14976": 88,
        "14977": 20,
        "14978": 93,
        "14979": 143,
        "14980": 51,
        "14981": 157,
        "14982": 177,
        "14983": 95,
        "14984": 213,
        "14985": 166,
        "14986": 11,
        "14987": 234,
        "14988": 6,
        "14989": 193,
        "14990": 170,
        "14991": 150,
        "14992": 77,
        "14993": 120,
        "14994": 253,
        "14995": 39,
        "14996": 56,
        "14997": 46,
        "14998": 57,
        "14999": 182,
        "15000": 120,
        "15001": 26,
        "15002": 112,
        "15003": 238,
        "15004": 26,
        "15005": 166,
        "15006": 164,
        "15007": 242,
        "15008": 238,
        "15009": 138,
        "15010": 7,
        "15011": 240,
        "15012": 200,
        "15013": 91,
        "15014": 169,
        "15015": 125,
        "15016": 26,
        "15017": 8,
        "15018": 138,
        "15019": 146,
        "15020": 138,
        "15021": 227,
        "15022": 203,
        "15023": 40,
        "15024": 233,
        "15025": 229,
        "15026": 104,
        "15027": 174,
        "15028": 69,
        "15029": 136,
        "15030": 170,
        "15031": 131,
        "15032": 161,
        "15033": 141,
        "15034": 150,
        "15035": 215,
        "15036": 193,
        "15037": 115,
        "15038": 248,
        "15039": 71,
        "15040": 192,
        "15041": 45,
        "15042": 75,
        "15043": 53,
        "15044": 83,
        "15045": 50,
        "15046": 20,
        "15047": 180,
        "15048": 209,
        "15049": 248,
        "15050": 252,
        "15051": 68,
        "15052": 46,
        "15053": 153,
        "15054": 48,
        "15055": 34,
        "15056": 50,
        "15057": 167,
        "15058": 60,
        "15059": 216,
        "15060": 49,
        "15061": 135,
        "15062": 92,
        "15063": 30,
        "15064": 32,
        "15065": 176,
        "15066": 87,
        "15067": 18,
        "15068": 242,
        "15069": 142,
        "15070": 251,
        "15071": 217,
        "15072": 193,
        "15073": 37,
        "15074": 92,
        "15075": 34,
        "15076": 216,
        "15077": 130,
        "15078": 55,
        "15079": 128,
        "15080": 14,
        "15081": 4,
        "15082": 94,
        "15083": 174,
        "15084": 96,
        "15085": 152,
        "15086": 34,
        "15087": 64,
        "15088": 209,
        "15089": 20,
        "15090": 208,
        "15091": 5,
        "15092": 213,
        "15093": 143,
        "15094": 47,
        "15095": 63,
        "15096": 222,
        "15097": 244,
        "15098": 190,
        "15099": 176,
        "15100": 170,
        "15101": 167,
        "15102": 164,
        "15103": 38,
        "15104": 44,
        "15105": 13,
        "15106": 70,
        "15107": 91,
        "15108": 132,
        "15109": 88,
        "15110": 223,
        "15111": 39,
        "15112": 98,
        "15113": 180,
        "15114": 165,
        "15115": 124,
        "15116": 77,
        "15117": 240,
        "15118": 209,
        "15119": 148,
        "15120": 51,
        "15121": 95,
        "15122": 73,
        "15123": 232,
        "15124": 199,
        "15125": 100,
        "15126": 239,
        "15127": 163,
        "15128": 123,
        "15129": 145,
        "15130": 208,
        "15131": 167,
        "15132": 204,
        "15133": 0,
        "15134": 77,
        "15135": 45,
        "15136": 97,
        "15137": 76,
        "15138": 155,
        "15139": 180,
        "15140": 23,
        "15141": 128,
        "15142": 168,
        "15143": 231,
        "15144": 142,
        "15145": 143,
        "15146": 201,
        "15147": 210,
        "15148": 120,
        "15149": 91,
        "15150": 24,
        "15151": 238,
        "15152": 174,
        "15153": 179,
        "15154": 130,
        "15155": 157,
        "15156": 100,
        "15157": 25,
        "15158": 93,
        "15159": 131,
        "15160": 221,
        "15161": 45,
        "15162": 11,
        "15163": 96,
        "15164": 186,
        "15165": 174,
        "15166": 230,
        "15167": 158,
        "15168": 15,
        "15169": 180,
        "15170": 159,
        "15171": 42,
        "15172": 196,
        "15173": 250,
        "15174": 129,
        "15175": 13,
        "15176": 253,
        "15177": 211,
        "15178": 185,
        "15179": 120,
        "15180": 49,
        "15181": 208,
        "15182": 211,
        "15183": 212,
        "15184": 196,
        "15185": 137,
        "15186": 135,
        "15187": 72,
        "15188": 153,
        "15189": 159,
        "15190": 60,
        "15191": 38,
        "15192": 193,
        "15193": 250,
        "15194": 91,
        "15195": 157,
        "15196": 3,
        "15197": 100,
        "15198": 19,
        "15199": 205,
        "15200": 244,
        "15201": 234,
        "15202": 110,
        "15203": 86,
        "15204": 47,
        "15205": 10,
        "15206": 88,
        "15207": 40,
        "15208": 232,
        "15209": 184,
        "15210": 72,
        "15211": 189,
        "15212": 140,
        "15213": 205,
        "15214": 26,
        "15215": 96,
        "15216": 193,
        "15217": 83,
        "15218": 172,
        "15219": 197,
        "15220": 126,
        "15221": 91,
        "15222": 175,
        "15223": 72,
        "15224": 186,
        "15225": 130,
        "15226": 233,
        "15227": 49,
        "15228": 102,
        "15229": 76,
        "15230": 208,
        "15231": 39,
        "15232": 23,
        "15233": 34,
        "15234": 98,
        "15235": 96,
        "15236": 225,
        "15237": 43,
        "15238": 111,
        "15239": 1,
        "15240": 90,
        "15241": 163,
        "15242": 193,
        "15243": 123,
        "15244": 161,
        "15245": 217,
        "15246": 188,
        "15247": 28,
        "15248": 150,
        "15249": 191,
        "15250": 180,
        "15251": 185,
        "15252": 226,
        "15253": 174,
        "15254": 45,
        "15255": 121,
        "15256": 220,
        "15257": 171,
        "15258": 20,
        "15259": 24,
        "15260": 66,
        "15261": 88,
        "15262": 113,
        "15263": 122,
        "15264": 41,
        "15265": 144,
        "15266": 97,
        "15267": 101,
        "15268": 246,
        "15269": 109,
        "15270": 216,
        "15271": 164,
        "15272": 61,
        "15273": 192,
        "15274": 24,
        "15275": 90,
        "15276": 140,
        "15277": 239,
        "15278": 164,
        "15279": 168,
        "15280": 115,
        "15281": 227,
        "15282": 76,
        "15283": 107,
        "15284": 162,
        "15285": 37,
        "15286": 148,
        "15287": 215,
        "15288": 151,
        "15289": 206,
        "15290": 157,
        "15291": 174,
        "15292": 161,
        "15293": 28,
        "15294": 198,
        "15295": 198,
        "15296": 177,
        "15297": 41,
        "15298": 69,
        "15299": 34,
        "15300": 6,
        "15301": 103,
        "15302": 141,
        "15303": 45,
        "15304": 4,
        "15305": 45,
        "15306": 240,
        "15307": 65,
        "15308": 204,
        "15309": 110,
        "15310": 253,
        "15311": 18,
        "15312": 249,
        "15313": 236,
        "15314": 33,
        "15315": 146,
        "15316": 198,
        "15317": 69,
        "15318": 145,
        "15319": 223,
        "15320": 218,
        "15321": 43,
        "15322": 150,
        "15323": 45,
        "15324": 174,
        "15325": 47,
        "15326": 115,
        "15327": 220,
        "15328": 144,
        "15329": 232,
        "15330": 238,
        "15331": 219,
        "15332": 91,
        "15333": 3,
        "15334": 148,
        "15335": 178,
        "15336": 137,
        "15337": 210,
        "15338": 150,
        "15339": 50,
        "15340": 124,
        "15341": 35,
        "15342": 251,
        "15343": 84,
        "15344": 68,
        "15345": 146,
        "15346": 85,
        "15347": 31,
        "15348": 29,
        "15349": 252,
        "15350": 33,
        "15351": 193,
        "15352": 54,
        "15353": 35,
        "15354": 208,
        "15355": 206,
        "15356": 190,
        "15357": 99,
        "15358": 22,
        "15359": 71,
        "15360": 153,
        "15361": 144,
        "15362": 29,
        "15363": 215,
        "15364": 138,
        "15365": 40,
        "15366": 38,
        "15367": 235,
        "15368": 244,
        "15369": 137,
        "15370": 129,
        "15371": 235,
        "15372": 178,
        "15373": 22,
        "15374": 143,
        "15375": 97,
        "15376": 123,
        "15377": 112,
        "15378": 2,
        "15379": 199,
        "15380": 150,
        "15381": 42,
        "15382": 21,
        "15383": 219,
        "15384": 220,
        "15385": 154,
        "15386": 244,
        "15387": 144,
        "15388": 161,
        "15389": 195,
        "15390": 121,
        "15391": 135,
        "15392": 253,
        "15393": 231,
        "15394": 173,
        "15395": 7,
        "15396": 153,
        "15397": 164,
        "15398": 141,
        "15399": 151,
        "15400": 249,
        "15401": 90,
        "15402": 71,
        "15403": 139,
        "15404": 206,
        "15405": 13,
        "15406": 181,
        "15407": 110,
        "15408": 72,
        "15409": 245,
        "15410": 157,
        "15411": 103,
        "15412": 157,
        "15413": 250,
        "15414": 76,
        "15415": 42,
        "15416": 76,
        "15417": 138,
        "15418": 255,
        "15419": 66,
        "15420": 234,
        "15421": 103,
        "15422": 88,
        "15423": 203,
        "15424": 178,
        "15425": 88,
        "15426": 37,
        "15427": 100,
        "15428": 6,
        "15429": 53,
        "15430": 255,
        "15431": 204,
        "15432": 185,
        "15433": 109,
        "15434": 232,
        "15435": 233,
        "15436": 109,
        "15437": 11,
        "15438": 106,
        "15439": 6,
        "15440": 142,
        "15441": 8,
        "15442": 186,
        "15443": 159,
        "15444": 206,
        "15445": 130,
        "15446": 61,
        "15447": 5,
        "15448": 57,
        "15449": 72,
        "15450": 161,
        "15451": 209,
        "15452": 223,
        "15453": 64,
        "15454": 251,
        "15455": 122,
        "15456": 215,
        "15457": 125,
        "15458": 29,
        "15459": 160,
        "15460": 254,
        "15461": 230,
        "15462": 156,
        "15463": 1,
        "15464": 248,
        "15465": 250,
        "15466": 95,
        "15467": 46,
        "15468": 237,
        "15469": 129,
        "15470": 11,
        "15471": 235,
        "15472": 7,
        "15473": 103,
        "15474": 192,
        "15475": 252,
        "15476": 141,
        "15477": 22,
        "15478": 166,
        "15479": 180,
        "15480": 47,
        "15481": 162,
        "15482": 12,
        "15483": 227,
        "15484": 2,
        "15485": 123,
        "15486": 165,
        "15487": 27,
        "15488": 63,
        "15489": 21,
        "15490": 129,
        "15491": 53,
        "15492": 173,
        "15493": 159,
        "15494": 113,
        "15495": 35,
        "15496": 194,
        "15497": 42,
        "15498": 106,
        "15499": 61,
        "15500": 198,
        "15501": 97,
        "15502": 92,
        "15503": 41,
        "15504": 132,
        "15505": 113,
        "15506": 63,
        "15507": 12,
        "15508": 23,
        "15509": 4,
        "15510": 150,
        "15511": 198,
        "15512": 172,
        "15513": 199,
        "15514": 110,
        "15515": 128,
        "15516": 152,
        "15517": 31,
        "15518": 21,
        "15519": 119,
        "15520": 14,
        "15521": 255,
        "15522": 14,
        "15523": 67,
        "15524": 41,
        "15525": 60,
        "15526": 77,
        "15527": 110,
        "15528": 21,
        "15529": 107,
        "15530": 95,
        "15531": 245,
        "15532": 215,
        "15533": 195,
        "15534": 135,
        "15535": 97,
        "15536": 253,
        "15537": 137,
        "15538": 46,
        "15539": 134,
        "15540": 180,
        "15541": 57,
        "15542": 124,
        "15543": 127,
        "15544": 49,
        "15545": 223,
        "15546": 74,
        "15547": 20,
        "15548": 21,
        "15549": 8,
        "15550": 188,
        "15551": 164,
        "15552": 86,
        "15553": 222,
        "15554": 38,
        "15555": 75,
        "15556": 181,
        "15557": 76,
        "15558": 23,
        "15559": 210,
        "15560": 10,
        "15561": 25,
        "15562": 69,
        "15563": 155,
        "15564": 8,
        "15565": 72,
        "15566": 122,
        "15567": 126,
        "15568": 51,
        "15569": 46,
        "15570": 108,
        "15571": 173,
        "15572": 180,
        "15573": 111,
        "15574": 73,
        "15575": 155,
        "15576": 56,
        "15577": 109,
        "15578": 250,
        "15579": 156,
        "15580": 77,
        "15581": 87,
        "15582": 211,
        "15583": 201,
        "15584": 10,
        "15585": 255,
        "15586": 194,
        "15587": 79,
        "15588": 178,
        "15589": 190,
        "15590": 161,
        "15591": 150,
        "15592": 236,
        "15593": 1,
        "15594": 190,
        "15595": 99,
        "15596": 240,
        "15597": 62,
        "15598": 3,
        "15599": 230,
        "15600": 0,
        "15601": 6,
        "15602": 147,
        "15603": 165,
        "15604": 177,
        "15605": 231,
        "15606": 12,
        "15607": 62,
        "15608": 114,
        "15609": 214,
        "15610": 41,
        "15611": 167,
        "15612": 163,
        "15613": 170,
        "15614": 189,
        "15615": 47,
        "15616": 63,
        "15617": 130,
        "15618": 183,
        "15619": 136,
        "15620": 94,
        "15621": 233,
        "15622": 240,
        "15623": 228,
        "15624": 174,
        "15625": 44,
        "15626": 255,
        "15627": 246,
        "15628": 140,
        "15629": 103,
        "15630": 43,
        "15631": 223,
        "15632": 230,
        "15633": 218,
        "15634": 14,
        "15635": 72,
        "15636": 235,
        "15637": 136,
        "15638": 183,
        "15639": 166,
        "15640": 34,
        "15641": 183,
        "15642": 22,
        "15643": 58,
        "15644": 16,
        "15645": 93,
        "15646": 28,
        "15647": 82,
        "15648": 24,
        "15649": 164,
        "15650": 49,
        "15651": 234,
        "15652": 55,
        "15653": 133,
        "15654": 0,
        "15655": 202,
        "15656": 118,
        "15657": 183,
        "15658": 241,
        "15659": 27,
        "15660": 254,
        "15661": 98,
        "15662": 41,
        "15663": 131,
        "15664": 149,
        "15665": 223,
        "15666": 115,
        "15667": 66,
        "15668": 229,
        "15669": 221,
        "15670": 40,
        "15671": 237,
        "15672": 230,
        "15673": 143,
        "15674": 61,
        "15675": 20,
        "15676": 127,
        "15677": 121,
        "15678": 130,
        "15679": 42,
        "15680": 63,
        "15681": 64,
        "15682": 151,
        "15683": 212,
        "15684": 246,
        "15685": 124,
        "15686": 52,
        "15687": 193,
        "15688": 145,
        "15689": 158,
        "15690": 222,
        "15691": 247,
        "15692": 193,
        "15693": 201,
        "15694": 22,
        "15695": 158,
        "15696": 250,
        "15697": 121,
        "15698": 188,
        "15699": 7,
        "15700": 120,
        "15701": 85,
        "15702": 130,
        "15703": 103,
        "15704": 7,
        "15705": 9,
        "15706": 194,
        "15707": 216,
        "15708": 29,
        "15709": 62,
        "15710": 112,
        "15711": 82,
        "15712": 108,
        "15713": 153,
        "15714": 179,
        "15715": 87,
        "15716": 34,
        "15717": 221,
        "15718": 4,
        "15719": 110,
        "15720": 76,
        "15721": 252,
        "15722": 11,
        "15723": 158,
        "15724": 60,
        "15725": 177,
        "15726": 133,
        "15727": 240,
        "15728": 38,
        "15729": 69,
        "15730": 104,
        "15731": 46,
        "15732": 71,
        "15733": 143,
        "15734": 79,
        "15735": 2,
        "15736": 108,
        "15737": 183,
        "15738": 178,
        "15739": 132,
        "15740": 62,
        "15741": 223,
        "15742": 101,
        "15743": 154,
        "15744": 98,
        "15745": 158,
        "15746": 225,
        "15747": 208,
        "15748": 168,
        "15749": 159,
        "15750": 21,
        "15751": 35,
        "15752": 159,
        "15753": 250,
        "15754": 16,
        "15755": 193,
        "15756": 106,
        "15757": 191,
        "15758": 69,
        "15759": 189,
        "15760": 70,
        "15761": 64,
        "15762": 84,
        "15763": 116,
        "15764": 104,
        "15765": 136,
        "15766": 40,
        "15767": 193,
        "15768": 84,
        "15769": 29,
        "15770": 47,
        "15771": 189,
        "15772": 0,
        "15773": 251,
        "15774": 48,
        "15775": 33,
        "15776": 180,
        "15777": 165,
        "15778": 61,
        "15779": 3,
        "15780": 74,
        "15781": 169,
        "15782": 214,
        "15783": 94,
        "15784": 4,
        "15785": 25,
        "15786": 43,
        "15787": 88,
        "15788": 102,
        "15789": 61,
        "15790": 50,
        "15791": 235,
        "15792": 71,
        "15793": 90,
        "15794": 56,
        "15795": 214,
        "15796": 238,
        "15797": 168,
        "15798": 167,
        "15799": 199,
        "15800": 54,
        "15801": 49,
        "15802": 251,
        "15803": 238,
        "15804": 195,
        "15805": 45,
        "15806": 191,
        "15807": 102,
        "15808": 50,
        "15809": 243,
        "15810": 132,
        "15811": 130,
        "15812": 187,
        "15813": 219,
        "15814": 250,
        "15815": 185,
        "15816": 184,
        "15817": 245,
        "15818": 227,
        "15819": 139,
        "15820": 149,
        "15821": 139,
        "15822": 233,
        "15823": 203,
        "15824": 28,
        "15825": 245,
        "15826": 97,
        "15827": 129,
        "15828": 85,
        "15829": 36,
        "15830": 191,
        "15831": 19,
        "15832": 230,
        "15833": 214,
        "15834": 246,
        "15835": 76,
        "15836": 56,
        "15837": 50,
        "15838": 255,
        "15839": 247,
        "15840": 6,
        "15841": 212,
        "15842": 132,
        "15843": 193,
        "15844": 227,
        "15845": 105,
        "15846": 215,
        "15847": 244,
        "15848": 216,
        "15849": 44,
        "15850": 105,
        "15851": 230,
        "15852": 69,
        "15853": 180,
        "15854": 68,
        "15855": 160,
        "15856": 160,
        "15857": 55,
        "15858": 44,
        "15859": 237,
        "15860": 241,
        "15861": 71,
        "15862": 128,
        "15863": 39,
        "15864": 158,
        "15865": 177,
        "15866": 182,
        "15867": 239,
        "15868": 102,
        "15869": 224,
        "15870": 100,
        "15871": 39,
        "15872": 36,
        "15873": 180,
        "15874": 81,
        "15875": 206,
        "15876": 120,
        "15877": 240,
        "15878": 8,
        "15879": 57,
        "15880": 233,
        "15881": 149,
        "15882": 224,
        "15883": 227,
        "15884": 254,
        "15885": 70,
        "15886": 60,
        "15887": 31,
        "15888": 125,
        "15889": 88,
        "15890": 179,
        "15891": 194,
        "15892": 41,
        "15893": 221,
        "15894": 253,
        "15895": 237,
        "15896": 184,
        "15897": 109,
        "15898": 246,
        "15899": 50,
        "15900": 20,
        "15901": 255,
        "15902": 54,
        "15903": 201,
        "15904": 237,
        "15905": 238,
        "15906": 42,
        "15907": 65,
        "15908": 112,
        "15909": 110,
        "15910": 69,
        "15911": 5,
        "15912": 29,
        "15913": 7,
        "15914": 91,
        "15915": 226,
        "15916": 136,
        "15917": 154,
        "15918": 130,
        "15919": 6,
        "15920": 65,
        "15921": 253,
        "15922": 83,
        "15923": 200,
        "15924": 76,
        "15925": 87,
        "15926": 214,
        "15927": 50,
        "15928": 161,
        "15929": 206,
        "15930": 112,
        "15931": 247,
        "15932": 8,
        "15933": 19,
        "15934": 186,
        "15935": 131,
        "15936": 184,
        "15937": 219,
        "15938": 10,
        "15939": 110,
        "15940": 232,
        "15941": 224,
        "15942": 177,
        "15943": 36,
        "15944": 61,
        "15945": 76,
        "15946": 178,
        "15947": 210,
        "15948": 251,
        "15949": 24,
        "15950": 8,
        "15951": 67,
        "15952": 156,
        "15953": 198,
        "15954": 46,
        "15955": 36,
        "15956": 250,
        "15957": 220,
        "15958": 87,
        "15959": 108,
        "15960": 230,
        "15961": 247,
        "15962": 246,
        "15963": 200,
        "15964": 247,
        "15965": 92,
        "15966": 166,
        "15967": 111,
        "15968": 155,
        "15969": 195,
        "15970": 17,
        "15971": 209,
        "15972": 176,
        "15973": 211,
        "15974": 108,
        "15975": 101,
        "15976": 108,
        "15977": 220,
        "15978": 113,
        "15979": 123,
        "15980": 196,
        "15981": 254,
        "15982": 152,
        "15983": 191,
        "15984": 244,
        "15985": 172,
        "15986": 108,
        "15987": 112,
        "15988": 235,
        "15989": 110,
        "15990": 186,
        "15991": 128,
        "15992": 234,
        "15993": 8,
        "15994": 251,
        "15995": 172,
        "15996": 28,
        "15997": 125,
        "15998": 227,
        "15999": 58,
        "16000": 70,
        "16001": 207,
        "16002": 174,
        "16003": 35,
        "16004": 221,
        "16005": 188,
        "16006": 84,
        "16007": 202,
        "16008": 44,
        "16009": 108,
        "16010": 175,
        "16011": 121,
        "16012": 220,
        "16013": 23,
        "16014": 178,
        "16015": 155,
        "16016": 196,
        "16017": 0,
        "16018": 1,
        "16019": 244,
        "16020": 216,
        "16021": 96,
        "16022": 158,
        "16023": 24,
        "16024": 241,
        "16025": 208,
        "16026": 1,
        "16027": 193,
        "16028": 236,
        "16029": 113,
        "16030": 151,
        "16031": 78,
        "16032": 133,
        "16033": 209,
        "16034": 222,
        "16035": 94,
        "16036": 187,
        "16037": 141,
        "16038": 131,
        "16039": 163,
        "16040": 172,
        "16041": 102,
        "16042": 40,
        "16043": 243,
        "16044": 162,
        "16045": 233,
        "16046": 78,
        "16047": 185,
        "16048": 87,
        "16049": 126,
        "16050": 198,
        "16051": 251,
        "16052": 102,
        "16053": 12,
        "16054": 151,
        "16055": 62,
        "16056": 21,
        "16057": 226,
        "16058": 228,
        "16059": 156,
        "16060": 203,
        "16061": 89,
        "16062": 166,
        "16063": 17,
        "16064": 139,
        "16065": 10,
        "16066": 242,
        "16067": 186,
        "16068": 32,
        "16069": 165,
        "16070": 106,
        "16071": 87,
        "16072": 147,
        "16073": 180,
        "16074": 23,
        "16075": 98,
        "16076": 243,
        "16077": 247,
        "16078": 83,
        "16079": 169,
        "16080": 28,
        "16081": 65,
        "16082": 217,
        "16083": 108,
        "16084": 123,
        "16085": 36,
        "16086": 184,
        "16087": 228,
        "16088": 137,
        "16089": 212,
        "16090": 83,
        "16091": 67,
        "16092": 174,
        "16093": 68,
        "16094": 196,
        "16095": 23,
        "16096": 147,
        "16097": 252,
        "16098": 29,
        "16099": 250,
        "16100": 88,
        "16101": 230,
        "16102": 95,
        "16103": 249,
        "16104": 254,
        "16105": 24,
        "16106": 222,
        "16107": 200,
        "16108": 124,
        "16109": 13,
        "16110": 87,
        "16111": 179,
        "16112": 218,
        "16113": 9,
        "16114": 162,
        "16115": 105,
        "16116": 74,
        "16117": 237,
        "16118": 126,
        "16119": 50,
        "16120": 7,
        "16121": 84,
        "16122": 70,
        "16123": 97,
        "16124": 82,
        "16125": 69,
        "16126": 144,
        "16127": 144,
        "16128": 154,
        "16129": 193,
        "16130": 234,
        "16131": 34,
        "16132": 90,
        "16133": 204,
        "16134": 110,
        "16135": 133,
        "16136": 168,
        "16137": 178,
        "16138": 122,
        "16139": 49,
        "16140": 155,
        "16141": 92,
        "16142": 119,
        "16143": 244,
        "16144": 244,
        "16145": 7,
        "16146": 247,
        "16147": 169,
        "16148": 108,
        "16149": 110,
        "16150": 241,
        "16151": 168,
        "16152": 31,
        "16153": 62,
        "16154": 210,
        "16155": 193,
        "16156": 59,
        "16157": 254,
        "16158": 188,
        "16159": 177,
        "16160": 245,
        "16161": 66,
        "16162": 160,
        "16163": 183,
        "16164": 15,
        "16165": 14,
        "16166": 134,
        "16167": 32,
        "16168": 42,
        "16169": 102,
        "16170": 36,
        "16171": 36,
        "16172": 159,
        "16173": 21,
        "16174": 248,
        "16175": 142,
        "16176": 30,
        "16177": 182,
        "16178": 137,
        "16179": 215,
        "16180": 54,
        "16181": 48,
        "16182": 23,
        "16183": 156,
        "16184": 250,
        "16185": 158,
        "16186": 1,
        "16187": 195,
        "16188": 240,
        "16189": 248,
        "16190": 18,
        "16191": 224,
        "16192": 33,
        "16193": 192,
        "16194": 159,
        "16195": 220,
        "16196": 23,
        "16197": 126,
        "16198": 105,
        "16199": 232,
        "16200": 78,
        "16201": 157,
        "16202": 67,
        "16203": 162,
        "16204": 153,
        "16205": 36,
        "16206": 172,
        "16207": 249,
        "16208": 148,
        "16209": 203,
        "16210": 43,
        "16211": 158,
        "16212": 191,
        "16213": 238,
        "16214": 162,
        "16215": 91,
        "16216": 164,
        "16217": 115,
        "16218": 169,
        "16219": 55,
        "16220": 12,
        "16221": 163,
        "16222": 30,
        "16223": 168,
        "16224": 88,
        "16225": 69,
        "16226": 24,
        "16227": 70,
        "16228": 77,
        "16229": 87,
        "16230": 148,
        "16231": 175,
        "16232": 106,
        "16233": 99,
        "16234": 160,
        "16235": 114,
        "16236": 218,
        "16237": 81,
        "16238": 66,
        "16239": 49,
        "16240": 215,
        "16241": 140,
        "16242": 53,
        "16243": 139,
        "16244": 22,
        "16245": 162,
        "16246": 62,
        "16247": 30,
        "16248": 182,
        "16249": 14,
        "16250": 89,
        "16251": 62,
        "16252": 99,
        "16253": 133,
        "16254": 150,
        "16255": 252,
        "16256": 38,
        "16257": 55,
        "16258": 162,
        "16259": 134,
        "16260": 249,
        "16261": 15,
        "16262": 147,
        "16263": 58,
        "16264": 228,
        "16265": 145,
        "16266": 250,
        "16267": 193,
        "16268": 244,
        "16269": 160,
        "16270": 134,
        "16271": 126,
        "16272": 140,
        "16273": 147,
        "16274": 232,
        "16275": 121,
        "16276": 153,
        "16277": 0,
        "16278": 168,
        "16279": 38,
        "16280": 74,
        "16281": 53,
        "16282": 227,
        "16283": 115,
        "16284": 64,
        "16285": 155,
        "16286": 187,
        "16287": 242,
        "16288": 202,
        "16289": 5,
        "16290": 222,
        "16291": 71,
        "16292": 9,
        "16293": 139,
        "16294": 178,
        "16295": 90,
        "16296": 64,
        "16297": 191,
        "16298": 73,
        "16299": 22,
        "16300": 108,
        "16301": 55,
        "16302": 175,
        "16303": 84,
        "16304": 89,
        "16305": 162,
        "16306": 95,
        "16307": 165,
        "16308": 6,
        "16309": 197,
        "16310": 154,
        "16311": 104,
        "16312": 115,
        "16313": 116,
        "16314": 198,
        "16315": 205,
        "16316": 77,
        "16317": 4,
        "16318": 113,
        "16319": 232,
        "16320": 163,
        "16321": 168,
        "16322": 13,
        "16323": 123,
        "16324": 198,
        "16325": 150,
        "16326": 69,
        "16327": 49,
        "16328": 111,
        "16329": 157,
        "16330": 45,
        "16331": 0,
        "16332": 7,
        "16333": 5,
        "16334": 198,
        "16335": 250,
        "16336": 108,
        "16337": 188,
        "16338": 126,
        "16339": 250,
        "16340": 164,
        "16341": 145,
        "16342": 115,
        "16343": 177,
        "16344": 66,
        "16345": 43,
        "16346": 112,
        "16347": 140,
        "16348": 31,
        "16349": 169,
        "16350": 161,
        "16351": 97,
        "16352": 197,
        "16353": 174,
        "16354": 9,
        "16355": 1,
        "16356": 70,
        "16357": 69,
        "16358": 11,
        "16359": 29,
        "16360": 18,
        "16361": 241,
        "16362": 207,
        "16363": 177,
        "16364": 42,
        "16365": 225,
        "16366": 66,
        "16367": 69,
        "16368": 46,
        "16369": 166,
        "16370": 85,
        "16371": 48,
        "16372": 124,
        "16373": 236,
        "16374": 239,
        "16375": 235,
        "16376": 255,
        "16377": 53,
        "16378": 83,
        "16379": 151,
        "16380": 116,
        "16381": 151,
        "16382": 169,
        "16383": 25,
        "16384": 198,
        "16385": 108,
        "16386": 14,
        "16387": 228,
        "16388": 148,
        "16389": 39,
        "16390": 251,
        "16391": 43,
        "16392": 152,
        "16393": 134,
        "16394": 84,
        "16395": 38,
        "16396": 51,
        "16397": 3,
        "16398": 85,
        "16399": 89,
        "16400": 68,
        "16401": 10,
        "16402": 248,
        "16403": 193,
        "16404": 239,
        "16405": 169,
        "16406": 72,
        "16407": 136,
        "16408": 58,
        "16409": 183,
        "16410": 14,
        "16411": 120,
        "16412": 62,
        "16413": 158,
        "16414": 74,
        "16415": 112,
        "16416": 85,
        "16417": 20,
        "16418": 240,
        "16419": 200,
        "16420": 155,
        "16421": 158,
        "16422": 227,
        "16423": 138,
        "16424": 221,
        "16425": 149,
        "16426": 210,
        "16427": 140,
        "16428": 188,
        "16429": 40,
        "16430": 102,
        "16431": 195,
        "16432": 191,
        "16433": 65,
        "16434": 34,
        "16435": 190,
        "16436": 202,
        "16437": 149,
        "16438": 16,
        "16439": 215,
        "16440": 92,
        "16441": 174,
        "16442": 198,
        "16443": 111,
        "16444": 86,
        "16445": 117,
        "16446": 217,
        "16447": 73,
        "16448": 212,
        "16449": 188,
        "16450": 85,
        "16451": 214,
        "16452": 146,
        "16453": 124,
        "16454": 138,
        "16455": 160,
        "16456": 89,
        "16457": 74,
        "16458": 253,
        "16459": 150,
        "16460": 237,
        "16461": 20,
        "16462": 116,
        "16463": 221,
        "16464": 21,
        "16465": 48,
        "16466": 170,
        "16467": 194,
        "16468": 41,
        "16469": 153,
        "16470": 238,
        "16471": 88,
        "16472": 162,
        "16473": 239,
        "16474": 58,
        "16475": 42,
        "16476": 81,
        "16477": 195,
        "16478": 170,
        "16479": 77,
        "16480": 216,
        "16481": 10,
        "16482": 234,
        "16483": 199,
        "16484": 83,
        "16485": 168,
        "16486": 1,
        "16487": 131,
        "16488": 44,
        "16489": 10,
        "16490": 237,
        "16491": 82,
        "16492": 5,
        "16493": 91,
        "16494": 133,
        "16495": 15,
        "16496": 118,
        "16497": 172,
        "16498": 106,
        "16499": 186,
        "16500": 35,
        "16501": 22,
        "16502": 184,
        "16503": 116,
        "16504": 104,
        "16505": 98,
        "16506": 181,
        "16507": 26,
        "16508": 157,
        "16509": 95,
        "16510": 99,
        "16511": 160,
        "16512": 183,
        "16513": 187,
        "16514": 55,
        "16515": 212,
        "16516": 136,
        "16517": 184,
        "16518": 200,
        "16519": 95,
        "16520": 1,
        "16521": 8,
        "16522": 0,
        "16523": 0,
        "16524": 0,
        "16525": 0,
        "16526": 0,
        "16527": 0,
        "16528": 16,
        "16529": 0,
        "16530": 0,
        "16531": 0,
        "16532": 0,
        "16533": 0,
        "16534": 0,
        "16535": 0,
        "16536": 0,
        "16537": 0,
        "16538": 0,
        "16539": 0,
        "16540": 0,
        "16541": 0,
        "16542": 0,
        "16543": 0,
        "16544": 0,
        "16545": 0,
        "16546": 0,
        "16547": 0,
        "16548": 0,
        "16549": 0,
        "16550": 0,
        "16551": 0,
        "16552": 64,
        "16553": 0,
        "16554": 0,
        "16555": 0,
        "16556": 0,
        "16557": 0,
        "16558": 0,
        "16559": 0,
        "16560": 3,
        "16561": 0,
        "16562": 0,
        "16563": 0,
        "16564": 0,
        "16565": 0,
        "16566": 0,
        "16567": 0,
        "16568": 4,
        "16569": 0,
        "16570": 0,
        "16571": 0,
        "16572": 0,
        "16573": 0,
        "16574": 0,
        "16575": 0,
        "16576": 4,
        "16577": 0,
        "16578": 0,
        "16579": 0,
        "16580": 0,
        "16581": 0,
        "16582": 0,
        "16583": 0,
        "16584": 0,
        "16585": 0,
        "16586": 0,
        "16587": 0,
        "16588": 1,
        "16589": 0,
        "16590": 0,
        "16591": 0,
        "16592": 0,
        "16593": 0,
        "16594": 0,
        "16595": 0,
        "16596": 16,
        "16597": 0,
        "16598": 0,
        "16599": 0,
        "16600": 0,
        "16601": 0,
        "16602": 0,
        "16603": 0
      }
    }
  ],
  "numDeployments": 2,
  "solcInputHash": "c0e889dcb69b76266f445d0fe3402b92",
  "bytecode": "0x6101606040526200001760006200026660201b60201c565b6002553480156200002757600080fd5b50604051620046173803806200461783398181016040528101906200004d919062000b83565b6040518060400160405280600881526020017f46616b652046475a0000000000000000000000000000000000000000000000008152506040518060400160405280600481526020017f6646475a00000000000000000000000000000000000000000000000000000000815250338383836040518060400160405280601181526020017f4668656e6978205065726d697373696f6e0000000000000000000000000000008152506040518060400160405280600381526020017f312e3000000000000000000000000000000000000000000000000000000000008152506200013f6000836200028260201b90919060201c565b61012081815250506200015d6001826200028260201b90919060201c565b6101408181525050818051906020012060e08181525050808051906020012061010081815250504660a081815250506200019c620002da60201b60201c565b608081815250503073ffffffffffffffffffffffffffffffffffffffff1660c08173ffffffffffffffffffffffffffffffffffffffff168152505050508160059081620001ea919062000e1f565b508060069081620001fc919062000e1f565b505050600062000212826200033760201b60201c565b9050620002486200023c8262000230617fff6200026660201b60201c565b6200035560201b60201c565b620003f860201b60201c565b6200025a8382620004cb60201b60201c565b50505050505062001260565b60006200027b8260026200057160201b60201c565b9050919050565b6000602083511015620002a857620002a0836200062860201b60201c565b9050620002d4565b82620002ba836200069560201b60201c565b6000019081620002cb919062000e1f565b5060ff60001b90505b92915050565b60007f8b73c3c69bb8fe3d512ecc4cf759cc79239f7b179b0ffacaa9a75d522b39400f60e0516101005146306040516020016200031c95949392919062000f77565b60405160208183030381529060405280519060200120905090565b60006200034e82600001516200069f60201b60201c565b9050919050565b60006200036883620006bb60201b60201c565b62000382576200037f60006200026660201b60201c565b92505b6200039382620006bb60201b60201c565b620003ad57620003aa60006200026660201b60201c565b91505b600083905060008390506000620003ea60028484608073ffffffffffffffffffffffffffffffffffffffff1663eb274b77620006c860201b60201c565b905080935050505092915050565b62000409816200077960201b60201c565b62000423576200042060006200078660201b60201c565b90505b600081905060006200043b82620007a260201b60201c565b9050608073ffffffffffffffffffffffffffffffffffffffff16637d23f1db600d836040518363ffffffff1660e01b81526004016200047c9291906200104f565b600060405180830381865afa1580156200049a573d6000803e3d6000fd5b505050506040513d6000823e3d601f19601f82011682018060405250810190620004c5919062001083565b50505050565b62000516600360008473ffffffffffffffffffffffffffffffffffffffff1673ffffffffffffffffffffffffffffffffffffffff168152602001908152602001600020548262000803565b600360008473ffffffffffffffffffffffffffffffffffffffff1673ffffffffffffffffffffffffffffffffffffffff16815260200190815260200160002081905550620005676002548262000803565b6002819055505050565b60006060608073ffffffffffffffffffffffffffffffffffffffff166319e1c5c4620005a386620007a260201b60201c565b856040518363ffffffff1660e01b8152600401620005c3929190620010d4565b600060405180830381865afa158015620005e1573d6000803e3d6000fd5b505050506040513d6000823e3d601f19601f820116820180604052508101906200060c919062001083565b90506200061f816200081f60201b60201c565b91505092915050565b600080829050601f815111156200067857826040517f305a27a90000000000000000000000000000000000000000000000000000000081526004016200066f91906200115a565b60405180910390fd5b8051816200068690620011a5565b60001c1760001b915050919050565b6000819050919050565b6000620006b48260026200082d60201b60201c565b9050919050565b6000808214159050919050565b60006060838388620006e089620007a260201b60201c565b620006f189620007a260201b60201c565b6040518463ffffffff1660e01b8152600401620007119392919062001215565b600060405180830381865afa1580156200072f573d6000803e3d6000fd5b505050506040513d6000823e3d601f19601f820116820180604052508101906200075a919062001083565b90506200076d81620008d460201b60201c565b91505095945050505050565b6000808214159050919050565b60006200079b82600d6200057160201b60201c565b9050919050565b6060602067ffffffffffffffff811115620007c257620007c1620009ae565b5b6040519080825280601f01601f191660200182016040528015620007f55781602001600182028036833780820191505090505b509050816020820152919050565b6000620008178383620008e260201b60201c565b905092915050565b600060208201519050919050565b60006060608073ffffffffffffffffffffffffffffffffffffffff16635fa55ca784866040518363ffffffff1660e01b81526004016200086f9291906200104f565b600060405180830381865afa1580156200088d573d6000803e3d6000fd5b505050506040513d6000823e3d601f19601f82011682018060405250810190620008b8919062001083565b9050620008cb816200081f60201b60201c565b91505092915050565b600060208201519050919050565b6000620008f583620006bb60201b60201c565b6200090f576200090c60006200026660201b60201c565b92505b6200092082620006bb60201b60201c565b6200093a576200093760006200026660201b60201c565b91505b6000839050600083905060006200097660028484608073ffffffffffffffffffffffffffffffffffffffff16622df619620006c860201b60201c565b905080935050505092915050565b6000604051905090565b600080fd5b600080fd5b600080fd5b6000601f19601f8301169050919050565b7f4e487b7100000000000000000000000000000000000000000000000000000000600052604160045260246000fd5b620009e8826200099d565b810181811067ffffffffffffffff8211171562000a0a5762000a09620009ae565b5b80604052505050565b600062000a1f62000984565b905062000a2d8282620009dd565b919050565b600080fd5b600080fd5b600080fd5b600067ffffffffffffffff82111562000a5f5762000a5e620009ae565b5b62000a6a826200099d565b9050602081019050919050565b60005b8381101562000a9757808201518184015260208101905062000a7a565b60008484015250505050565b600062000aba62000ab48462000a41565b62000a13565b90508281526020810184848401111562000ad95762000ad862000a3c565b5b62000ae684828562000a77565b509392505050565b600082601f83011262000b065762000b0562000a37565b5b815162000b1884826020860162000aa3565b91505092915050565b60006020828403121562000b3a5762000b3962000998565b5b62000b46602062000a13565b9050600082015167ffffffffffffffff81111562000b695762000b6862000a32565b5b62000b778482850162000aee565b60008301525092915050565b60006020828403121562000b9c5762000b9b6200098e565b5b600082015167ffffffffffffffff81111562000bbd5762000bbc62000993565b5b62000bcb8482850162000b21565b91505092915050565b600081519050919050565b7f4e487b7100000000000000000000000000000000000000000000000000000000600052602260045260246000fd5b6000600282049050600182168062000c2757607f821691505b60208210810362000c3d5762000c3c62000bdf565b5b50919050565b60008190508160005260206000209050919050565b60006020601f8301049050919050565b600082821b905092915050565b60006008830262000ca77fffffffffffffffffffffffffffffffffffffffffffffffffffffffffffffffff8262000c68565b62000cb3868362000c68565b95508019841693508086168417925050509392505050565b6000819050919050565b6000819050919050565b600062000d0062000cfa62000cf48462000ccb565b62000cd5565b62000ccb565b9050919050565b6000819050919050565b62000d1c8362000cdf565b62000d3462000d2b8262000d07565b84845462000c75565b825550505050565b600090565b62000d4b62000d3c565b62000d5881848462000d11565b505050565b5b8181101562000d805762000d7460008262000d41565b60018101905062000d5e565b5050565b601f82111562000dcf5762000d998162000c43565b62000da48462000c58565b8101602085101562000db4578190505b62000dcc62000dc38562000c58565b83018262000d5d565b50505b505050565b600082821c905092915050565b600062000df46000198460080262000dd4565b1980831691505092915050565b600062000e0f838362000de1565b9150826002028217905092915050565b62000e2a8262000bd4565b67ffffffffffffffff81111562000e465762000e45620009ae565b5b62000e52825462000c0e565b62000e5f82828562000d84565b600060209050601f83116001811462000e97576000841562000e82578287015190505b62000e8e858262000e01565b86555062000efe565b601f19841662000ea78662000c43565b60005b8281101562000ed15784890151825560018201915060208501945060208101905062000eaa565b8683101562000ef1578489015162000eed601f89168262000de1565b8355505b6001600288020188555050505b505050505050565b6000819050919050565b62000f1b8162000f06565b82525050565b62000f2c8162000ccb565b82525050565b600073ffffffffffffffffffffffffffffffffffffffff82169050919050565b600062000f5f8262000f32565b9050919050565b62000f718162000f52565b82525050565b600060a08201905062000f8e600083018862000f10565b62000f9d602083018762000f10565b62000fac604083018662000f10565b62000fbb606083018562000f21565b62000fca608083018462000f66565b9695505050505050565b600060ff82169050919050565b62000fec8162000fd4565b82525050565b600081519050919050565b600082825260208201905092915050565b60006200101b8262000ff2565b62001027818562000ffd565b93506200103981856020860162000a77565b62001044816200099d565b840191505092915050565b600060408201905062001066600083018562000fe1565b81810360208301526200107a81846200100e565b90509392505050565b6000602082840312156200109c576200109b6200098e565b5b600082015167ffffffffffffffff811115620010bd57620010bc62000993565b5b620010cb8482850162000aee565b91505092915050565b60006040820190508181036000830152620010f081856200100e565b905062001101602083018462000fe1565b9392505050565b600082825260208201905092915050565b6000620011268262000bd4565b62001132818562001108565b93506200114481856020860162000a77565b6200114f816200099d565b840191505092915050565b6000602082019050818103600083015262001176818462001119565b905092915050565b6000819050602082019050919050565b60006200119c825162000f06565b80915050919050565b6000620011b28262000ff2565b82620011be846200117e565b9050620011cb816200118e565b925060208210156200120e57620012097fffffffffffffffffffffffffffffffffffffffffffffffffffffffffffffffff8360200360080262000c68565b831692505b5050919050565b60006060820190506200122c600083018662000fe1565b81810360208301526200124081856200100e565b905081810360408301526200125681846200100e565b9050949350505050565b60805160a05160c05160e05161010051610120516101405161335c620012bb60003960006118f5015260006118ba0152600061217f0152600061215e015260006119ea01526000611a4001526000611a69015261335c6000f3fe608060405234801561001057600080fd5b50600436106101425760003560e01c80637ecebe00116100b8578063a9059cbb1161007c578063a9059cbb146103b9578063af575a00146103e9578063c4224c1914610419578063d505accf14610449578063d918156e14610465578063dd62ed3e1461049557610142565b80637ecebe00146102fb57806384b0196e1461032b5780638624a3491461034f57806395d89b411461037f5780639f284be71461039d57610142565b80633644e5151161010a5780633644e5151461020157806339c217f71461021f5780635356c4291461024f578063602772041461027f5780636e0505e1146102af57806370a08231146102cb57610142565b806306fdde0314610147578063095ea7b31461016557806318160ddd1461019557806323b872dd146101b3578063313ce567146101e3575b600080fd5b61014f6104c5565b60405161015c9190612433565b60405180910390f35b61017f600480360381019061017a91906124fd565b610557565b60405161018c9190612558565b60405180910390f35b61019d6105ab565b6040516101aa9190612582565b60405180910390f35b6101cd60048036038101906101c8919061259d565b6105bd565b6040516101da9190612558565b60405180910390f35b6101eb610692565b6040516101f8919061260c565b60405180910390f35b610209610697565b6040516102169190612640565b60405180910390f35b6102396004803603810190610234919061267f565b610729565b6040516102469190612716565b60405180910390f35b61026960048036038101906102649190612750565b61074e565b6040516102769190612433565b60405180910390f35b61029960048036038101906102949190612983565b6108bf565b6040516102a69190612433565b60405180910390f35b6102c960048036038101906102c49190612a1b565b6109ec565b005b6102e560048036038101906102e09190612a48565b610b01565b6040516102f29190612582565b60405180910390f35b61031560048036038101906103109190612a48565b610b1c565b6040516103229190612582565b60405180910390f35b610333610b37565b6040516103469796959493929190612b7d565b60405180910390f35b61036960048036038101906103649190612c01565b610be1565b6040516103769190612716565b60405180910390f35b610387610c08565b6040516103949190612433565b60405180910390f35b6103b760048036038101906103b29190612a1b565b610c9a565b005b6103d360048036038101906103ce91906124fd565b610da7565b6040516103e09190612558565b60405180910390f35b61040360048036038101906103fe9190612c9c565b610e39565b6040516104109190612716565b60405180910390f35b610433600480360381019061042e9190612cef565b61118f565b6040516104409190612716565b60405180910390f35b610463600480360381019061045e9190612d5b565b611359565b005b61047f600480360381019061047a919061267f565b6114fd565b60405161048c9190612558565b60405180910390f35b6104af60048036038101906104aa9190612dfd565b6115f5565b6040516104bc9190612582565b60405180910390f35b6060600580546104d490612e6c565b80601f016020809104026020016040519081016040528092919081815260200182805461050090612e6c565b801561054d5780601f106105225761010080835404028352916020019161054d565b820191906000526020600020905b81548152906001019060200180831161053057829003601f168201915b5050505050905090565b600082602052637f5e9f20600c5233600052816034600c205581600052602c5160601c337f8c5be1e5ebec7d5bd14f71427d1e84f3dd0314c0f7b2291e5b200ac8c7c3b92560206000a36001905092915050565b60006805345cdf77eb68f44c54905090565b60006105ca848484611615565b8360601b33602052637f5e9f208117600c526034600c20805460018101156106085780851115610602576313be252b6000526004601cfd5b84810382555b6387a211a28317600c526020600c2080548087111561062f5763f4d678b86000526004601cfd5b8681038255876000526020600c2087815401815587602052600c5160601c8660601c7fddf252ad1be2c89b69c2b068fc378daa952ba7f163c4a11628f55a4df523b3ef602080a350505050505061068784848461161a565b600190509392505050565b600090565b6000806106a261161f565b90506000801b81036106c0576106b66104c5565b8051906020012090505b6040517f8b73c3c69bb8fe3d512ecc4cf759cc79239f7b179b0ffacaa9a75d522b39400f81528160208201527fc89efdaa54c0f20c7adf612882df0950f5a951637e0307cdcb4c672f298b8bc6604082015246606082015230608082015260a081209250505090565b6000610746836107418461073c90612ef5565b611624565b61118f565b905092915050565b60608161075a90612f08565b60006107b17f6bdaeb2d29561f159c7ef98b16b27015fb2aeb87209c7ee656226d912f59927d8360000151604051602001610796929190612f1b565b6040516020818303038152906040528051906020012061163a565b905060006107c3828460200151611654565b90503373ffffffffffffffffffffffffffffffffffffffff168173ffffffffffffffffffffffffffffffffffffffff161461082a576040517f3093a27700000000000000000000000000000000000000000000000000000000815260040160405180910390fd5b6108b4600460003373ffffffffffffffffffffffffffffffffffffffff1673ffffffffffffffffffffffffffffffffffffffff16815260200190815260200160002060008873ffffffffffffffffffffffffffffffffffffffff1673ffffffffffffffffffffffffffffffffffffffff168152602001908152602001600020548660000135611680565b935050505092915050565b60608183600061091a7f6bdaeb2d29561f159c7ef98b16b27015fb2aeb87209c7ee656226d912f59927d84600001516040516020016108ff929190612f1b565b6040516020818303038152906040528051906020012061163a565b9050600061092c828560200151611654565b90508273ffffffffffffffffffffffffffffffffffffffff168173ffffffffffffffffffffffffffffffffffffffff1614610993576040517f51c65eae00000000000000000000000000000000000000000000000000000000815260040160405180910390fd5b6109e0600360008973ffffffffffffffffffffffffffffffffffffffff1673ffffffffffffffffffffffffffffffffffffffff168152602001908152602001600020548760000151611680565b94505050505092915050565b6000610a45610a008363ffffffff166116b6565b600360003373ffffffffffffffffffffffffffffffffffffffff1673ffffffffffffffffffffffffffffffffffffffff168152602001908152602001600020546116ca565b9050610a90600360003373ffffffffffffffffffffffffffffffffffffffff1673ffffffffffffffffffffffffffffffffffffffff1681526020019081526020016000205482611743565b600360003373ffffffffffffffffffffffffffffffffffffffff1673ffffffffffffffffffffffffffffffffffffffff16815260200190815260200160002081905550610adf60025482611743565b600281905550610afd33610af283611757565b63ffffffff1661181a565b5050565b60006387a211a2600c52816000526020600c20549050919050565b60006338377508600c52816000526020600c20549050919050565b600060608060008060006060610b4b6118b1565b610b536118ec565b46306000801b600067ffffffffffffffff811115610b7457610b736127b1565b5b604051908082528060200260200182016040528015610ba25781602001602082028036833780820191505090505b507f0f00000000000000000000000000000000000000000000000000000000000000959493929190965096509650965096509650965090919293949596565b6000610bff8484610bfa85610bf590612ef5565b611624565b610e39565b90509392505050565b606060068054610c1790612e6c565b80601f0160208091040260200160405190810160405280929190818152602001828054610c4390612e6c565b8015610c905780601f10610c6557610100808354040283529160200191610c90565b820191906000526020600020905b815481529060010190602001808311610c7357829003601f168201915b5050505050905090565b8063ffffffff16610caa33610b01565b1015610ce2576040517ffda7bbda00000000000000000000000000000000000000000000000000000000815260040160405180910390fd5b610cf2338263ffffffff16611927565b6000610d038263ffffffff166116b6565b9050610d4e600360003373ffffffffffffffffffffffffffffffffffffffff1673ffffffffffffffffffffffffffffffffffffffff16815260200190815260200160002054826119be565b600360003373ffffffffffffffffffffffffffffffffffffffff1673ffffffffffffffffffffffffffffffffffffffff16815260200190815260200160002081905550610d9d600254826119be565b6002819055505050565b6000610db4338484611615565b6387a211a2600c52336000526020600c20805480841115610ddd5763f4d678b86000526004601cfd5b8381038255846000526020600c2084815401815584602052600c5160601c337fddf252ad1be2c89b69c2b068fc378daa952ba7f163c4a11628f55a4df523b3ef602080a3505050610e2f33848461161a565b6001905092915050565b600080610f0a83610f05600360008973ffffffffffffffffffffffffffffffffffffffff1673ffffffffffffffffffffffffffffffffffffffff16815260200190815260200160002054600460008a73ffffffffffffffffffffffffffffffffffffffff1673ffffffffffffffffffffffffffffffffffffffff16815260200190815260200160002060003373ffffffffffffffffffffffffffffffffffffffff1673ffffffffffffffffffffffffffffffffffffffff168152602001908152602001600020546116ca565b6116ca565b9050610f92600460008773ffffffffffffffffffffffffffffffffffffffff1673ffffffffffffffffffffffffffffffffffffffff16815260200190815260200160002060003373ffffffffffffffffffffffffffffffffffffffff1673ffffffffffffffffffffffffffffffffffffffff1681526020019081526020016000205482611743565b600460008773ffffffffffffffffffffffffffffffffffffffff1673ffffffffffffffffffffffffffffffffffffffff16815260200190815260200160002060003373ffffffffffffffffffffffffffffffffffffffff1673ffffffffffffffffffffffffffffffffffffffff1681526020019081526020016000208190555061105b600360008773ffffffffffffffffffffffffffffffffffffffff1673ffffffffffffffffffffffffffffffffffffffff1681526020019081526020016000205482611743565b600360008773ffffffffffffffffffffffffffffffffffffffff1673ffffffffffffffffffffffffffffffffffffffff168152602001908152602001600020819055506110e7600360008673ffffffffffffffffffffffffffffffffffffffff1673ffffffffffffffffffffffffffffffffffffffff16815260200190815260200160002054826119be565b600360008673ffffffffffffffffffffffffffffffffffffffff1673ffffffffffffffffffffffffffffffffffffffff168152602001908152602001600020819055508373ffffffffffffffffffffffffffffffffffffffff168573ffffffffffffffffffffffffffffffffffffffff167f7612539b010127d1a2f810eeff1131de23a28ecfa8228f92a9606a879300fbb560405160405180910390a3809150509392505050565b6000806111db83600360003373ffffffffffffffffffffffffffffffffffffffff1673ffffffffffffffffffffffffffffffffffffffff168152602001908152602001600020546116ca565b9050611226600360003373ffffffffffffffffffffffffffffffffffffffff1673ffffffffffffffffffffffffffffffffffffffff1681526020019081526020016000205482611743565b600360003373ffffffffffffffffffffffffffffffffffffffff1673ffffffffffffffffffffffffffffffffffffffff168152602001908152602001600020819055506112b2600360008673ffffffffffffffffffffffffffffffffffffffff1673ffffffffffffffffffffffffffffffffffffffff16815260200190815260200160002054826119be565b600360008673ffffffffffffffffffffffffffffffffffffffff1673ffffffffffffffffffffffffffffffffffffffff168152602001908152602001600020819055508373ffffffffffffffffffffffffffffffffffffffff163373ffffffffffffffffffffffffffffffffffffffff167f7612539b010127d1a2f810eeff1131de23a28ecfa8228f92a9606a879300fbb560405160405180910390a38091505092915050565b600061136361161f565b90506000801b8103611381576113776104c5565b8051906020012090505b8442111561139757631a15a3cc6000526004601cfd5b6040518860601b60601c98508760601b60601c975065383775081901600e52886000526020600c2080547f8b73c3c69bb8fe3d512ecc4cf759cc79239f7b179b0ffacaa9a75d522b39400f83528360208401527fc89efdaa54c0f20c7adf612882df0950f5a951637e0307cdcb4c672f298b8bc6604084015246606084015230608084015260a08320602e527f6e71edae12b1b97f4d1f60370fef10105fa2faae0126114a169c64845d6126c983528a60208401528960408401528860608401528060808401528760a084015260c08320604e526042602c206000528660ff1660205285604052846060526020806080600060015afa8b3d51146114a35763ddafbaef6000526004601cfd5b80820183558a637f5e9f2060a01b17604052896034602c20558a8c7f8c5be1e5ebec7d5bd14f71427d1e84f3dd0314c0f7b2291e5b200ac8c7c3b925602060608801a3836040526000606052505050505050505050505050565b60006115118261150c90612ef5565b611624565b600460003373ffffffffffffffffffffffffffffffffffffffff1673ffffffffffffffffffffffffffffffffffffffff16815260200190815260200160002060008573ffffffffffffffffffffffffffffffffffffffff1673ffffffffffffffffffffffffffffffffffffffff168152602001908152602001600020819055508273ffffffffffffffffffffffffffffffffffffffff163373ffffffffffffffffffffffffffffffffffffffff167f46f92913a39019d68e630493d23e0cf39761bf253f7b3f8eae384b33e393ed4e60405160405180910390a36001905092915050565b600081602052637f5e9f20600c52826000526034600c2054905092915050565b505050565b505050565b600090565b600061163382600001516119d2565b9050919050565b600061164d6116476119e6565b83611a9d565b9050919050565b6000806000806116648686611ade565b9250925092506116748282611b3a565b82935050505092915050565b606061168b83611c9e565b61169c5761169960006116b6565b92505b60008390506116ad60028285611cab565b91505092915050565b60006116c3826002611d61565b9050919050565b60006116d583611c9e565b6116e6576116e360006116b6565b92505b6116ef82611c9e565b611700576116fd60006116b6565b91505b60008390506000839050600061173560028484608073ffffffffffffffffffffffffffffffffffffffff16635211c679611e03565b905080935050505092915050565b600061174f8383611e97565b905092915050565b600061176282611c9e565b6117735761177060006116b6565b91505b6000829050600061178382611f10565b90506000608073ffffffffffffffffffffffffffffffffffffffff166373cc01546002846040518363ffffffff1660e01b81526004016117c4929190612f99565b602060405180830381865afa1580156117e1573d6000803e3d6000fd5b505050506040513d601f19601f820116820180604052508101906118059190612fde565b905061181081611f6d565b9350505050919050565b61182660008383611615565b6805345cdf77eb68f44c548181018181101561184a5763e5cfe9576000526004601cfd5b806805345cdf77eb68f44c556387a211a2600c52836000526020600c2083815401815583602052600c5160601c60007fddf252ad1be2c89b69c2b068fc378daa952ba7f163c4a11628f55a4df523b3ef602080a35050506118ad6000838361161a565b5050565b60606118e760007f0000000000000000000000000000000000000000000000000000000000000000611f7790919063ffffffff16565b905090565b606061192260017f0000000000000000000000000000000000000000000000000000000000000000611f7790919063ffffffff16565b905090565b61193382600083611615565b6387a211a2600c52816000526020600c2080548083111561195c5763f4d678b86000526004601cfd5b8281038255826805345cdf77eb68f44c54036805345cdf77eb68f44c558260005260008460601b60601c7fddf252ad1be2c89b69c2b068fc378daa952ba7f163c4a11628f55a4df523b3ef60206000a350506119ba8260008361161a565b5050565b60006119ca8383612027565b905092915050565b60006119df82600261209f565b9050919050565b60007f000000000000000000000000000000000000000000000000000000000000000073ffffffffffffffffffffffffffffffffffffffff163073ffffffffffffffffffffffffffffffffffffffff16148015611a6257507f000000000000000000000000000000000000000000000000000000000000000046145b15611a8f577f00000000000000000000000000000000000000000000000000000000000000009050611a9a565b611a97612139565b90505b90565b60006040517f190100000000000000000000000000000000000000000000000000000000000081528360028201528260228201526042812091505092915050565b60008060006041845103611b235760008060006020870151925060408701519150606087015160001a9050611b15888285856121cf565b955095509550505050611b33565b60006002855160001b9250925092505b9250925092565b60006003811115611b4e57611b4d61300b565b5b826003811115611b6157611b6061300b565b5b0315611c9a5760016003811115611b7b57611b7a61300b565b5b826003811115611b8e57611b8d61300b565b5b03611bc5576040517ff645eedf00000000000000000000000000000000000000000000000000000000815260040160405180910390fd5b60026003811115611bd957611bd861300b565b5b826003811115611bec57611beb61300b565b5b03611c31578060001c6040517ffce698f7000000000000000000000000000000000000000000000000000000008152600401611c289190612582565b60405180910390fd5b600380811115611c4457611c4361300b565b5b826003811115611c5757611c5661300b565b5b03611c9957806040517fd78bce0c000000000000000000000000000000000000000000000000000000008152600401611c909190612640565b60405180910390fd5b5b5050565b6000808214159050919050565b6060608073ffffffffffffffffffffffffffffffffffffffff1663a1848ff385611cd486611f10565b85604051602001611ce5919061305b565b6040516020818303038152906040526040518463ffffffff1660e01b8152600401611d1293929190613076565b600060405180830381865afa158015611d2f573d6000803e3d6000fd5b505050506040513d6000823e3d601f19601f82011682018060405250810190611d58919061315c565b90509392505050565b60006060608073ffffffffffffffffffffffffffffffffffffffff166319e1c5c4611d8b86611f10565b856040518363ffffffff1660e01b8152600401611da99291906131a5565b600060405180830381865afa158015611dc6573d6000803e3d6000fd5b505050506040513d6000823e3d601f19601f82011682018060405250810190611def9190613245565b9050611dfa816122c3565b91505092915050565b60006060838388611e1389611f10565b611e1c89611f10565b6040518463ffffffff1660e01b8152600401611e3a93929190613076565b600060405180830381865afa158015611e57573d6000803e3d6000fd5b505050506040513d6000823e3d601f19601f82011682018060405250810190611e809190613245565b9050611e8b816122d1565b91505095945050505050565b6000611ea283611c9e565b611eb357611eb060006116b6565b92505b611ebc82611c9e565b611ecd57611eca60006116b6565b91505b600083905060008390506000611f0260028484608073ffffffffffffffffffffffffffffffffffffffff1663cc2cbeff611e03565b905080935050505092915050565b6060602067ffffffffffffffff811115611f2d57611f2c6127b1565b5b6040519080825280601f01601f191660200182016040528015611f5f5781602001600182028036833780820191505090505b509050816020820152919050565b6000819050919050565b606060ff60001b8314611f9457611f8d836122df565b9050612021565b818054611fa090612e6c565b80601f0160208091040260200160405190810160405280929190818152602001828054611fcc90612e6c565b80156120195780601f10611fee57610100808354040283529160200191612019565b820191906000526020600020905b815481529060010190602001808311611ffc57829003601f168201915b505050505090505b92915050565b600061203283611c9e565b6120435761204060006116b6565b92505b61204c82611c9e565b61205d5761205a60006116b6565b91505b60008390506000839050600061209160028484608073ffffffffffffffffffffffffffffffffffffffff16622df619611e03565b905080935050505092915050565b60006060608073ffffffffffffffffffffffffffffffffffffffff16635fa55ca784866040518363ffffffff1660e01b81526004016120df929190612f99565b600060405180830381865afa1580156120fc573d6000803e3d6000fd5b505050506040513d6000823e3d601f19601f820116820180604052508101906121259190613245565b9050612130816122c3565b91505092915050565b60007f8b73c3c69bb8fe3d512ecc4cf759cc79239f7b179b0ffacaa9a75d522b39400f7f00000000000000000000000000000000000000000000000000000000000000007f000000000000000000000000000000000000000000000000000000000000000046306040516020016121b495949392919061328e565b60405160208183030381529060405280519060200120905090565b60008060007f7fffffffffffffffffffffffffffffff5d576e7357a4501ddfe92f46681b20a08460001c111561220f5760006003859250925092506122b9565b60006001888888886040516000815260200160405260405161223494939291906132e1565b6020604051602081039080840390855afa158015612256573d6000803e3d6000fd5b505050602060405103519050600073ffffffffffffffffffffffffffffffffffffffff168173ffffffffffffffffffffffffffffffffffffffff16036122aa57600060016000801b935093509350506122b9565b8060008060001b935093509350505b9450945094915050565b600060208201519050919050565b600060208201519050919050565b606060006122ec83612353565b90506000602067ffffffffffffffff81111561230b5761230a6127b1565b5b6040519080825280601f01601f19166020018201604052801561233d5781602001600182028036833780820191505090505b5090508181528360208201528092505050919050565b60008060ff8360001c169050601f81111561239a576040517fb3512b0c00000000000000000000000000000000000000000000000000000000815260040160405180910390fd5b80915050919050565b600081519050919050565b600082825260208201905092915050565b60005b838110156123dd5780820151818401526020810190506123c2565b60008484015250505050565b6000601f19601f8301169050919050565b6000612405826123a3565b61240f81856123ae565b935061241f8185602086016123bf565b612428816123e9565b840191505092915050565b6000602082019050818103600083015261244d81846123fa565b905092915050565b6000604051905090565b600080fd5b600080fd5b600073ffffffffffffffffffffffffffffffffffffffff82169050919050565b600061249482612469565b9050919050565b6124a481612489565b81146124af57600080fd5b50565b6000813590506124c18161249b565b92915050565b6000819050919050565b6124da816124c7565b81146124e557600080fd5b50565b6000813590506124f7816124d1565b92915050565b600080604083850312156125145761251361245f565b5b6000612522858286016124b2565b9250506020612533858286016124e8565b9150509250929050565b60008115159050919050565b6125528161253d565b82525050565b600060208201905061256d6000830184612549565b92915050565b61257c816124c7565b82525050565b60006020820190506125976000830184612573565b92915050565b6000806000606084860312156125b6576125b561245f565b5b60006125c4868287016124b2565b93505060206125d5868287016124b2565b92505060406125e6868287016124e8565b9150509250925092565b600060ff82169050919050565b612606816125f0565b82525050565b600060208201905061262160008301846125fd565b92915050565b6000819050919050565b61263a81612627565b82525050565b60006020820190506126556000830184612631565b92915050565b600080fd5b6000602082840312156126765761267561265b565b5b81905092915050565b600080604083850312156126965761269561245f565b5b60006126a4858286016124b2565b925050602083013567ffffffffffffffff8111156126c5576126c4612464565b5b6126d185828601612660565b9150509250929050565b6000819050919050565b60006127006126fb6126f6846124c7565b6126db565b6124c7565b9050919050565b612710816126e5565b82525050565b600060208201905061272b6000830184612707565b92915050565b6000604082840312156127475761274661265b565b5b81905092915050565b600080604083850312156127675761276661245f565b5b6000612775858286016124b2565b925050602083013567ffffffffffffffff81111561279657612795612464565b5b6127a285828601612731565b9150509250929050565b600080fd5b7f4e487b7100000000000000000000000000000000000000000000000000000000600052604160045260246000fd5b6127e9826123e9565b810181811067ffffffffffffffff82111715612808576128076127b1565b5b80604052505050565b600061281b612455565b905061282782826127e0565b919050565b600080fd5b61283a81612627565b811461284557600080fd5b50565b60008135905061285781612831565b92915050565b600080fd5b600080fd5b600067ffffffffffffffff821115612882576128816127b1565b5b61288b826123e9565b9050602081019050919050565b82818337600083830152505050565b60006128ba6128b584612867565b612811565b9050828152602081018484840111156128d6576128d5612862565b5b6128e1848285612898565b509392505050565b600082601f8301126128fe576128fd61285d565b5b813561290e8482602086016128a7565b91505092915050565b60006040828403121561292d5761292c6127ac565b5b6129376040612811565b9050600061294784828501612848565b600083015250602082013567ffffffffffffffff81111561296b5761296a61282c565b5b612977848285016128e9565b60208301525092915050565b6000806040838503121561299a5761299961245f565b5b60006129a8858286016124b2565b925050602083013567ffffffffffffffff8111156129c9576129c8612464565b5b6129d585828601612917565b9150509250929050565b600063ffffffff82169050919050565b6129f8816129df565b8114612a0357600080fd5b50565b600081359050612a15816129ef565b92915050565b600060208284031215612a3157612a3061245f565b5b6000612a3f84828501612a06565b91505092915050565b600060208284031215612a5e57612a5d61245f565b5b6000612a6c848285016124b2565b91505092915050565b60007fff0000000000000000000000000000000000000000000000000000000000000082169050919050565b612aaa81612a75565b82525050565b612ab981612489565b82525050565b600081519050919050565b600082825260208201905092915050565b6000819050602082019050919050565b612af4816124c7565b82525050565b6000612b068383612aeb565b60208301905092915050565b6000602082019050919050565b6000612b2a82612abf565b612b348185612aca565b9350612b3f83612adb565b8060005b83811015612b70578151612b578882612afa565b9750612b6283612b12565b925050600181019050612b43565b5085935050505092915050565b600060e082019050612b92600083018a612aa1565b8181036020830152612ba481896123fa565b90508181036040830152612bb881886123fa565b9050612bc76060830187612573565b612bd46080830186612ab0565b612be160a0830185612631565b81810360c0830152612bf38184612b1f565b905098975050505050505050565b600080600060608486031215612c1a57612c1961245f565b5b6000612c28868287016124b2565b9350506020612c39868287016124b2565b925050604084013567ffffffffffffffff811115612c5a57612c59612464565b5b612c6686828701612660565b9150509250925092565b612c79816124c7565b8114612c8457600080fd5b50565b600081359050612c9681612c70565b92915050565b600080600060608486031215612cb557612cb461245f565b5b6000612cc3868287016124b2565b9350506020612cd4868287016124b2565b9250506040612ce586828701612c87565b9150509250925092565b60008060408385031215612d0657612d0561245f565b5b6000612d14858286016124b2565b9250506020612d2585828601612c87565b9150509250929050565b612d38816125f0565b8114612d4357600080fd5b50565b600081359050612d5581612d2f565b92915050565b600080600080600080600060e0888a031215612d7a57612d7961245f565b5b6000612d888a828b016124b2565b9750506020612d998a828b016124b2565b9650506040612daa8a828b016124e8565b9550506060612dbb8a828b016124e8565b9450506080612dcc8a828b01612d46565b93505060a0612ddd8a828b01612848565b92505060c0612dee8a828b01612848565b91505092959891949750929550565b60008060408385031215612e1457612e1361245f565b5b6000612e22858286016124b2565b9250506020612e33858286016124b2565b9150509250929050565b7f4e487b7100000000000000000000000000000000000000000000000000000000600052602260045260246000fd5b60006002820490506001821680612e8457607f821691505b602082108103612e9757612e96612e3d565b5b50919050565b600060208284031215612eb357612eb26127ac565b5b612ebd6020612811565b9050600082013567ffffffffffffffff811115612edd57612edc61282c565b5b612ee9848285016128e9565b60008301525092915050565b6000612f013683612e9d565b9050919050565b6000612f143683612917565b9050919050565b6000604082019050612f306000830185612631565b612f3d6020830184612631565b9392505050565b600081519050919050565b600082825260208201905092915050565b6000612f6b82612f44565b612f758185612f4f565b9350612f858185602086016123bf565b612f8e816123e9565b840191505092915050565b6000604082019050612fae60008301856125fd565b8181036020830152612fc08184612f60565b90509392505050565b600081519050612fd8816124d1565b92915050565b600060208284031215612ff457612ff361245f565b5b600061300284828501612fc9565b91505092915050565b7f4e487b7100000000000000000000000000000000000000000000000000000000600052602160045260246000fd5b6000819050919050565b61305561305082612627565b61303a565b82525050565b60006130678284613044565b60208201915081905092915050565b600060608201905061308b60008301866125fd565b818103602083015261309d8185612f60565b905081810360408301526130b18184612f60565b9050949350505050565b600067ffffffffffffffff8211156130d6576130d56127b1565b5b6130df826123e9565b9050602081019050919050565b60006130ff6130fa846130bb565b612811565b90508281526020810184848401111561311b5761311a612862565b5b6131268482856123bf565b509392505050565b600082601f8301126131435761314261285d565b5b81516131538482602086016130ec565b91505092915050565b6000602082840312156131725761317161245f565b5b600082015167ffffffffffffffff8111156131905761318f612464565b5b61319c8482850161312e565b91505092915050565b600060408201905081810360008301526131bf8185612f60565b90506131ce60208301846125fd565b9392505050565b60006131e86131e384612867565b612811565b90508281526020810184848401111561320457613203612862565b5b61320f8482856123bf565b509392505050565b600082601f83011261322c5761322b61285d565b5b815161323c8482602086016131d5565b91505092915050565b60006020828403121561325b5761325a61245f565b5b600082015167ffffffffffffffff81111561327957613278612464565b5b61328584828501613217565b91505092915050565b600060a0820190506132a36000830188612631565b6132b06020830187612631565b6132bd6040830186612631565b6132ca6060830185612573565b6132d76080830184612ab0565b9695505050505050565b60006080820190506132f66000830187612631565b61330360208301866125fd565b6133106040830185612631565b61331d6060830184612631565b9594505050505056fea264697066735822122054e0a0f4efb5c65f190b631d1807022c518b43b07919c197c9a86ff1e683e47c64736f6c63430008180033",
  "devdoc": {
    "errors": {
      "AllowanceOverflow()": [
        {
          "details": "The allowance has overflowed."
        }
      ],
      "AllowanceUnderflow()": [
        {
          "details": "The allowance has underflowed."
        }
      ],
      "ECDSAInvalidSignature()": [
        {
          "details": "The signature derives the `address(0)`."
        }
      ],
      "ECDSAInvalidSignatureLength(uint256)": [
        {
          "details": "The signature has an invalid length."
        }
      ],
      "ECDSAInvalidSignatureS(bytes32)": [
        {
          "details": "The signature has an S value that is in the upper half order."
        }
      ],
      "InsufficientAllowance()": [
        {
          "details": "Insufficient allowance."
        }
      ],
      "InsufficientBalance()": [
        {
          "details": "Insufficient balance."
        }
      ],
      "InvalidPermit()": [
        {
          "details": "The permit is invalid."
        }
      ],
      "PermitExpired()": [
        {
          "details": "The permit has expired."
        }
      ],
      "TotalSupplyOverflow()": [
        {
          "details": "The total supply has overflowed."
        }
      ]
    },
    "events": {
      "Approval(address,address,uint256)": {
        "details": "Emitted when `amount` tokens is approved by `owner` to be used by `spender`."
      },
      "ApprovalEncrypted(address,address)": {
        "details": "Emitted when the allowance of a `spender` for an `owner` is set by a call to {approveEncrypted}. `value` is the new allowance."
      },
      "EIP712DomainChanged()": {
        "details": "MAY be emitted to signal that the domain could have changed."
      },
      "Transfer(address,address,uint256)": {
        "details": "Emitted when `amount` tokens is transferred from `from` to `to`."
      },
      "TransferEncrypted(address,address)": {
        "details": "Emitted when `value` tokens are moved from one account (`from`) to another (`to`). Note that `value` may be zero."
      }
    },
    "kind": "dev",
    "methods": {
      "DOMAIN_SEPARATOR()": {
        "details": "Returns the EIP-712 domain separator for the EIP-2612 permit."
      },
      "allowance(address,address)": {
        "details": "Returns the amount of tokens that `spender` can spend on behalf of `owner`."
      },
      "allowanceEncrypted(address,(bytes32,bytes))": {
        "details": "Returns the remaining number of tokens that `spender` will be allowed to spend on behalf of `owner` through {transferFrom}. This is zero by default. This value changes when {approve} or {transferFrom} are called."
      },
      "approve(address,uint256)": {
        "details": "Sets `amount` as the allowance of `spender` over the caller's tokens. Emits a {Approval} event."
      },
      "approveEncrypted(address,(bytes))": {
        "details": "Sets a `value` amount of tokens as the allowance of `spender` over the caller's tokens. Returns a boolean value indicating whether the operation succeeded. IMPORTANT: Beware that changing an allowance with this method brings the risk that someone may use both the old and the new allowance by unfortunate transaction ordering. One possible solution to mitigate this race condition is to first reduce the spender's allowance to 0 and set the desired value afterwards: https://github.com/ethereum/EIPs/issues/20#issuecomment-263524729 Emits an {ApprovalEncrypted} event."
      },
      "balanceOf(address)": {
        "details": "Returns the amount of tokens owned by `owner`."
      },
      "balanceOfEncrypted(address,(bytes32,bytes))": {
        "details": "Returns the value of tokens owned by `account`, sealed and encrypted for the caller."
      },
      "decimals()": {
        "details": "Returns the decimals places of the token."
      },
      "eip712Domain()": {
        "details": "See {IERC-5267}."
      },
      "name()": {
        "details": "Returns the name of the token."
      },
      "nonces(address)": {
        "details": "Returns the current nonce for `owner`. This value is used to compute the signature for EIP-2612 permit."
      },
      "permit(address,address,uint256,uint256,uint8,bytes32,bytes32)": {
        "details": "Sets `value` as the allowance of `spender` over the tokens of `owner`, authorized by a signed approval by `owner`. Emits a {Approval} event."
      },
      "symbol()": {
        "details": "Returns the symbol of the token."
      },
      "totalSupply()": {
        "details": "Returns the amount of tokens in existence."
      },
      "transfer(address,uint256)": {
        "details": "Transfer `amount` tokens from the caller to `to`. Requirements: - `from` must at least have `amount`. Emits a {Transfer} event."
      },
      "transferFrom(address,address,uint256)": {
        "details": "Transfers `amount` tokens from `from` to `to`. Note: Does not update the allowance if it is the maximum uint256 value. Requirements: - `from` must at least have `amount`. - The caller must have at least `amount` of allowance to transfer the tokens of `from`. Emits a {Transfer} event."
      },
      "transferFromEncrypted(address,address,(bytes))": {
        "details": "Moves a `value` amount of tokens from `from` to `to` using the allowance mechanism. `value` is then deducted from the caller's allowance. Returns a boolean value indicating whether the operation succeeded. Emits a {TransferEncrypted} event."
      }
    },
    "version": 1
  },
  "userdoc": {
    "errors": {
      "SignerNotMessageSender()": [
        {
          "notice": "Emitted when the signer is not the message sender"
        }
      ],
      "SignerNotOwner()": [
        {
          "notice": "Emitted when the signer is not the specified owner"
        }
      ]
    },
    "kind": "user",
    "methods": {},
    "version": 1
  },
  "storageLayout": {
    "storage": [
      {
        "astId": 16568,
        "contract": "contracts/tokens/FakeFGZ.sol:FakeFGZ",
        "label": "_nameFallback",
        "offset": 0,
        "slot": "0",
        "type": "t_string_storage"
      },
      {
        "astId": 16570,
        "contract": "contracts/tokens/FakeFGZ.sol:FakeFGZ",
        "label": "_versionFallback",
        "offset": 0,
        "slot": "1",
        "type": "t_string_storage"
      },
      {
        "astId": 18126,
        "contract": "contracts/tokens/FakeFGZ.sol:FakeFGZ",
        "label": "_encTotalSupply",
        "offset": 0,
        "slot": "2",
        "type": "t_userDefinedValueType(euint32)12"
      },
      {
        "astId": 18131,
        "contract": "contracts/tokens/FakeFGZ.sol:FakeFGZ",
        "label": "_encBalanceOf",
        "offset": 0,
        "slot": "3",
        "type": "t_mapping(t_address,t_userDefinedValueType(euint32)12)"
      },
      {
        "astId": 18138,
        "contract": "contracts/tokens/FakeFGZ.sol:FakeFGZ",
        "label": "_encAllowance",
        "offset": 0,
        "slot": "4",
        "type": "t_mapping(t_address,t_mapping(t_address,t_userDefinedValueType(euint32)12))"
      },
      {
        "astId": 18140,
        "contract": "contracts/tokens/FakeFGZ.sol:FakeFGZ",
        "label": "_name",
        "offset": 0,
        "slot": "5",
        "type": "t_string_storage"
      },
      {
        "astId": 18142,
        "contract": "contracts/tokens/FakeFGZ.sol:FakeFGZ",
        "label": "_symbol",
        "offset": 0,
        "slot": "6",
        "type": "t_string_storage"
      }
    ],
    "types": {
      "t_address": {
        "encoding": "inplace",
        "label": "address",
        "numberOfBytes": "20"
      },
      "t_mapping(t_address,t_mapping(t_address,t_userDefinedValueType(euint32)12))": {
        "encoding": "mapping",
        "key": "t_address",
        "label": "mapping(address => mapping(address => euint32))",
        "numberOfBytes": "32",
        "value": "t_mapping(t_address,t_userDefinedValueType(euint32)12)"
      },
      "t_mapping(t_address,t_userDefinedValueType(euint32)12)": {
        "encoding": "mapping",
        "key": "t_address",
        "label": "mapping(address => euint32)",
        "numberOfBytes": "32",
        "value": "t_userDefinedValueType(euint32)12"
      },
      "t_string_storage": {
        "encoding": "bytes",
        "label": "string",
        "numberOfBytes": "32"
      },
      "t_userDefinedValueType(euint32)12": {
        "encoding": "inplace",
        "label": "euint32",
        "numberOfBytes": "32"
      }
    }
  }
}