{
  "address": "0x0580DDc8E4472786717d0b3dB37DA769EEb7F8Be",
  "abi": [
    {
      "inputs": [
        {
          "components": [
            {
              "internalType": "bytes",
              "name": "data",
              "type": "bytes"
            }
          ],
          "internalType": "struct inEuint32",
          "name": "_initialSupply",
          "type": "tuple"
        }
      ],
      "stateMutability": "nonpayable",
      "type": "constructor"
    },
    {
      "inputs": [],
      "name": "AllowanceOverflow",
      "type": "error"
    },
    {
      "inputs": [],
      "name": "AllowanceUnderflow",
      "type": "error"
    },
    {
      "inputs": [],
      "name": "ECDSAInvalidSignature",
      "type": "error"
    },
    {
      "inputs": [
        {
          "internalType": "uint256",
          "name": "length",
          "type": "uint256"
        }
      ],
      "name": "ECDSAInvalidSignatureLength",
      "type": "error"
    },
    {
      "inputs": [
        {
          "internalType": "bytes32",
          "name": "s",
          "type": "bytes32"
        }
      ],
      "name": "ECDSAInvalidSignatureS",
      "type": "error"
    },
    {
      "inputs": [],
      "name": "ErrorInsufficientFunds",
      "type": "error"
    },
    {
      "inputs": [],
      "name": "InsufficientAllowance",
      "type": "error"
    },
    {
      "inputs": [],
      "name": "InsufficientBalance",
      "type": "error"
    },
    {
      "inputs": [],
      "name": "InvalidPermit",
      "type": "error"
    },
    {
      "inputs": [],
      "name": "InvalidShortString",
      "type": "error"
    },
    {
      "inputs": [],
      "name": "PermitExpired",
      "type": "error"
    },
    {
      "inputs": [],
      "name": "SignerNotMessageSender",
      "type": "error"
    },
    {
      "inputs": [],
      "name": "SignerNotOwner",
      "type": "error"
    },
    {
      "inputs": [
        {
          "internalType": "string",
          "name": "str",
          "type": "string"
        }
      ],
      "name": "StringTooLong",
      "type": "error"
    },
    {
      "inputs": [],
      "name": "TotalSupplyOverflow",
      "type": "error"
    },
    {
      "anonymous": false,
      "inputs": [
        {
          "indexed": true,
          "internalType": "address",
          "name": "owner",
          "type": "address"
        },
        {
          "indexed": true,
          "internalType": "address",
          "name": "spender",
          "type": "address"
        },
        {
          "indexed": false,
          "internalType": "uint256",
          "name": "amount",
          "type": "uint256"
        }
      ],
      "name": "Approval",
      "type": "event"
    },
    {
      "anonymous": false,
      "inputs": [
        {
          "indexed": true,
          "internalType": "address",
          "name": "owner",
          "type": "address"
        },
        {
          "indexed": true,
          "internalType": "address",
          "name": "spender",
          "type": "address"
        }
      ],
      "name": "ApprovalEncrypted",
      "type": "event"
    },
    {
      "anonymous": false,
      "inputs": [],
      "name": "EIP712DomainChanged",
      "type": "event"
    },
    {
      "anonymous": false,
      "inputs": [
        {
          "indexed": true,
          "internalType": "address",
          "name": "from",
          "type": "address"
        },
        {
          "indexed": true,
          "internalType": "address",
          "name": "to",
          "type": "address"
        },
        {
          "indexed": false,
          "internalType": "uint256",
          "name": "amount",
          "type": "uint256"
        }
      ],
      "name": "Transfer",
      "type": "event"
    },
    {
      "anonymous": false,
      "inputs": [
        {
          "indexed": true,
          "internalType": "address",
          "name": "from",
          "type": "address"
        },
        {
          "indexed": true,
          "internalType": "address",
          "name": "to",
          "type": "address"
        }
      ],
      "name": "TransferEncrypted",
      "type": "event"
    },
    {
      "inputs": [],
      "name": "DOMAIN_SEPARATOR",
      "outputs": [
        {
          "internalType": "bytes32",
          "name": "result",
          "type": "bytes32"
        }
      ],
      "stateMutability": "view",
      "type": "function"
    },
    {
      "inputs": [
        {
          "internalType": "address",
          "name": "owner",
          "type": "address"
        },
        {
          "internalType": "address",
          "name": "spender",
          "type": "address"
        }
      ],
      "name": "allowance",
      "outputs": [
        {
          "internalType": "uint256",
          "name": "result",
          "type": "uint256"
        }
      ],
      "stateMutability": "view",
      "type": "function"
    },
    {
      "inputs": [
        {
          "internalType": "address",
          "name": "spender",
          "type": "address"
        },
        {
          "components": [
            {
              "internalType": "bytes32",
              "name": "publicKey",
              "type": "bytes32"
            },
            {
              "internalType": "bytes",
              "name": "signature",
              "type": "bytes"
            }
          ],
          "internalType": "struct Permission",
          "name": "permission",
          "type": "tuple"
        }
      ],
      "name": "allowanceEncrypted",
      "outputs": [
        {
          "internalType": "string",
          "name": "",
          "type": "string"
        }
      ],
      "stateMutability": "view",
      "type": "function"
    },
    {
      "inputs": [
        {
          "internalType": "address",
          "name": "spender",
          "type": "address"
        },
        {
          "internalType": "uint256",
          "name": "amount",
          "type": "uint256"
        }
      ],
      "name": "approve",
      "outputs": [
        {
          "internalType": "bool",
          "name": "",
          "type": "bool"
        }
      ],
      "stateMutability": "nonpayable",
      "type": "function"
    },
    {
      "inputs": [
        {
          "internalType": "address",
          "name": "spender",
          "type": "address"
        },
        {
          "components": [
            {
              "internalType": "bytes",
              "name": "data",
              "type": "bytes"
            }
          ],
          "internalType": "struct inEuint32",
          "name": "value",
          "type": "tuple"
        }
      ],
      "name": "approveEncrypted",
      "outputs": [
        {
          "internalType": "bool",
          "name": "",
          "type": "bool"
        }
      ],
      "stateMutability": "nonpayable",
      "type": "function"
    },
    {
      "inputs": [
        {
          "internalType": "address",
          "name": "owner",
          "type": "address"
        }
      ],
      "name": "balanceOf",
      "outputs": [
        {
          "internalType": "uint256",
          "name": "result",
          "type": "uint256"
        }
      ],
      "stateMutability": "view",
      "type": "function"
    },
    {
      "inputs": [
        {
          "internalType": "address",
          "name": "account",
          "type": "address"
        },
        {
          "components": [
            {
              "internalType": "bytes32",
              "name": "publicKey",
              "type": "bytes32"
            },
            {
              "internalType": "bytes",
              "name": "signature",
              "type": "bytes"
            }
          ],
          "internalType": "struct Permission",
          "name": "auth",
          "type": "tuple"
        }
      ],
      "name": "balanceOfEncrypted",
      "outputs": [
        {
          "internalType": "string",
          "name": "",
          "type": "string"
        }
      ],
      "stateMutability": "view",
      "type": "function"
    },
    {
      "inputs": [],
      "name": "decimals",
      "outputs": [
        {
          "internalType": "uint8",
          "name": "",
          "type": "uint8"
        }
      ],
      "stateMutability": "pure",
      "type": "function"
    },
    {
      "inputs": [],
      "name": "eip712Domain",
      "outputs": [
        {
          "internalType": "bytes1",
          "name": "fields",
          "type": "bytes1"
        },
        {
          "internalType": "string",
          "name": "name",
          "type": "string"
        },
        {
          "internalType": "string",
          "name": "version",
          "type": "string"
        },
        {
          "internalType": "uint256",
          "name": "chainId",
          "type": "uint256"
        },
        {
          "internalType": "address",
          "name": "verifyingContract",
          "type": "address"
        },
        {
          "internalType": "bytes32",
          "name": "salt",
          "type": "bytes32"
        },
        {
          "internalType": "uint256[]",
          "name": "extensions",
          "type": "uint256[]"
        }
      ],
      "stateMutability": "view",
      "type": "function"
    },
    {
      "inputs": [],
      "name": "name",
      "outputs": [
        {
          "internalType": "string",
          "name": "",
          "type": "string"
        }
      ],
      "stateMutability": "view",
      "type": "function"
    },
    {
      "inputs": [
        {
          "internalType": "address",
          "name": "owner",
          "type": "address"
        }
      ],
      "name": "nonces",
      "outputs": [
        {
          "internalType": "uint256",
          "name": "result",
          "type": "uint256"
        }
      ],
      "stateMutability": "view",
      "type": "function"
    },
    {
      "inputs": [
        {
          "internalType": "address",
          "name": "owner",
          "type": "address"
        },
        {
          "internalType": "address",
          "name": "spender",
          "type": "address"
        },
        {
          "internalType": "uint256",
          "name": "value",
          "type": "uint256"
        },
        {
          "internalType": "uint256",
          "name": "deadline",
          "type": "uint256"
        },
        {
          "internalType": "uint8",
          "name": "v",
          "type": "uint8"
        },
        {
          "internalType": "bytes32",
          "name": "r",
          "type": "bytes32"
        },
        {
          "internalType": "bytes32",
          "name": "s",
          "type": "bytes32"
        }
      ],
      "name": "permit",
      "outputs": [],
      "stateMutability": "nonpayable",
      "type": "function"
    },
    {
      "inputs": [],
      "name": "symbol",
      "outputs": [
        {
          "internalType": "string",
          "name": "",
          "type": "string"
        }
      ],
      "stateMutability": "view",
      "type": "function"
    },
    {
      "inputs": [],
      "name": "totalSupply",
      "outputs": [
        {
          "internalType": "uint256",
          "name": "result",
          "type": "uint256"
        }
      ],
      "stateMutability": "view",
      "type": "function"
    },
    {
      "inputs": [
        {
          "internalType": "address",
          "name": "to",
          "type": "address"
        },
        {
          "internalType": "uint256",
          "name": "amount",
          "type": "uint256"
        }
      ],
      "name": "transfer",
      "outputs": [
        {
          "internalType": "bool",
          "name": "",
          "type": "bool"
        }
      ],
      "stateMutability": "nonpayable",
      "type": "function"
    },
    {
      "inputs": [
        {
          "internalType": "address",
          "name": "to",
          "type": "address"
        },
        {
          "components": [
            {
              "internalType": "bytes",
              "name": "data",
              "type": "bytes"
            }
          ],
          "internalType": "struct inEuint32",
          "name": "encryptedAmount",
          "type": "tuple"
        }
      ],
      "name": "transferEncrypted",
      "outputs": [
        {
          "internalType": "euint32",
          "name": "",
          "type": "uint256"
        }
      ],
      "stateMutability": "nonpayable",
      "type": "function"
    },
    {
      "inputs": [
        {
          "internalType": "address",
          "name": "to",
          "type": "address"
        },
        {
          "internalType": "euint32",
          "name": "amount",
          "type": "uint256"
        }
      ],
      "name": "transferEncrypted",
      "outputs": [
        {
          "internalType": "euint32",
          "name": "",
          "type": "uint256"
        }
      ],
      "stateMutability": "nonpayable",
      "type": "function"
    },
    {
      "inputs": [
        {
          "internalType": "address",
          "name": "from",
          "type": "address"
        },
        {
          "internalType": "address",
          "name": "to",
          "type": "address"
        },
        {
          "internalType": "uint256",
          "name": "amount",
          "type": "uint256"
        }
      ],
      "name": "transferFrom",
      "outputs": [
        {
          "internalType": "bool",
          "name": "",
          "type": "bool"
        }
      ],
      "stateMutability": "nonpayable",
      "type": "function"
    },
    {
      "inputs": [
        {
          "internalType": "address",
          "name": "from",
          "type": "address"
        },
        {
          "internalType": "address",
          "name": "to",
          "type": "address"
        },
        {
          "components": [
            {
              "internalType": "bytes",
              "name": "data",
              "type": "bytes"
            }
          ],
          "internalType": "struct inEuint32",
          "name": "value",
          "type": "tuple"
        }
      ],
      "name": "transferFromEncrypted",
      "outputs": [
        {
          "internalType": "euint32",
          "name": "",
          "type": "uint256"
        }
      ],
      "stateMutability": "nonpayable",
      "type": "function"
    },
    {
      "inputs": [
        {
          "internalType": "address",
          "name": "from",
          "type": "address"
        },
        {
          "internalType": "address",
          "name": "to",
          "type": "address"
        },
        {
          "internalType": "euint32",
          "name": "value",
          "type": "uint256"
        }
      ],
      "name": "transferFromEncrypted",
      "outputs": [
        {
          "internalType": "euint32",
          "name": "",
          "type": "uint256"
        }
      ],
      "stateMutability": "nonpayable",
      "type": "function"
    },
    {
      "inputs": [
        {
          "internalType": "uint32",
          "name": "amount",
          "type": "uint32"
        }
      ],
      "name": "unwrap",
      "outputs": [],
      "stateMutability": "nonpayable",
      "type": "function"
    },
    {
      "inputs": [
        {
          "internalType": "uint32",
          "name": "amount",
          "type": "uint32"
        }
      ],
      "name": "wrap",
      "outputs": [],
      "stateMutability": "nonpayable",
      "type": "function"
    }
  ],
  "transactionHash": "0x91173c5a6672341633954c30fd5d7c6ba6cf289e30f14003bd005f3c998c30c3",
  "args": [
    {
      "data": {
        "0": 16,
        "1": 8,
        "2": 0,
        "3": 0,
        "4": 0,
        "5": 0,
        "6": 0,
        "7": 0,
        "8": 143,
        "9": 84,
        "10": 144,
        "11": 78,
        "12": 99,
        "13": 99,
        "14": 187,
        "15": 154,
        "16": 16,
        "17": 9,
        "18": 107,
        "19": 41,
        "20": 60,
        "21": 113,
        "22": 108,
        "23": 195,
        "24": 163,
        "25": 212,
        "26": 113,
        "27": 6,
        "28": 60,
        "29": 29,
        "30": 59,
        "31": 86,
        "32": 239,
        "33": 34,
        "34": 53,
        "35": 160,
        "36": 136,
        "37": 46,
        "38": 217,
        "39": 217,
        "40": 11,
        "41": 177,
        "42": 28,
        "43": 138,
        "44": 15,
        "45": 199,
        "46": 190,
        "47": 92,
        "48": 153,
        "49": 191,
        "50": 60,
        "51": 30,
        "52": 221,
        "53": 123,
        "54": 26,
        "55": 117,
        "56": 151,
        "57": 0,
        "58": 212,
        "59": 3,
        "60": 243,
        "61": 187,
        "62": 32,
        "63": 24,
        "64": 227,
        "65": 233,
        "66": 27,
        "67": 50,
        "68": 171,
        "69": 49,
        "70": 122,
        "71": 99,
        "72": 82,
        "73": 253,
        "74": 5,
        "75": 129,
        "76": 29,
        "77": 213,
        "78": 7,
        "79": 141,
        "80": 169,
        "81": 57,
        "82": 41,
        "83": 182,
        "84": 219,
        "85": 141,
        "86": 238,
        "87": 214,
        "88": 26,
        "89": 159,
        "90": 103,
        "91": 201,
        "92": 35,
        "93": 127,
        "94": 86,
        "95": 233,
        "96": 157,
        "97": 247,
        "98": 27,
        "99": 158,
        "100": 232,
        "101": 132,
        "102": 82,
        "103": 237,
        "104": 213,
        "105": 32,
        "106": 107,
        "107": 65,
        "108": 66,
        "109": 68,
        "110": 224,
        "111": 212,
        "112": 170,
        "113": 141,
        "114": 10,
        "115": 206,
        "116": 51,
        "117": 238,
        "118": 178,
        "119": 27,
        "120": 250,
        "121": 244,
        "122": 92,
        "123": 231,
        "124": 228,
        "125": 96,
        "126": 116,
        "127": 30,
        "128": 60,
        "129": 122,
        "130": 213,
        "131": 4,
        "132": 27,
        "133": 53,
        "134": 104,
        "135": 149,
        "136": 150,
        "137": 226,
        "138": 147,
        "139": 71,
        "140": 180,
        "141": 74,
        "142": 192,
        "143": 36,
        "144": 167,
        "145": 14,
        "146": 240,
        "147": 221,
        "148": 165,
        "149": 60,
        "150": 31,
        "151": 243,
        "152": 66,
        "153": 235,
        "154": 192,
        "155": 198,
        "156": 201,
        "157": 104,
        "158": 111,
        "159": 252,
        "160": 86,
        "161": 101,
        "162": 1,
        "163": 34,
        "164": 239,
        "165": 31,
        "166": 241,
        "167": 163,
        "168": 94,
        "169": 174,
        "170": 191,
        "171": 213,
        "172": 228,
        "173": 88,
        "174": 243,
        "175": 2,
        "176": 41,
        "177": 160,
        "178": 227,
        "179": 113,
        "180": 232,
        "181": 176,
        "182": 253,
        "183": 151,
        "184": 21,
        "185": 214,
        "186": 231,
        "187": 27,
        "188": 180,
        "189": 179,
        "190": 48,
        "191": 13,
        "192": 18,
        "193": 184,
        "194": 129,
        "195": 7,
        "196": 222,
        "197": 148,
        "198": 241,
        "199": 3,
        "200": 212,
        "201": 52,
        "202": 208,
        "203": 25,
        "204": 205,
        "205": 252,
        "206": 152,
        "207": 67,
        "208": 74,
        "209": 158,
        "210": 86,
        "211": 137,
        "212": 122,
        "213": 211,
        "214": 245,
        "215": 250,
        "216": 250,
        "217": 121,
        "218": 177,
        "219": 99,
        "220": 196,
        "221": 203,
        "222": 248,
        "223": 84,
        "224": 195,
        "225": 6,
        "226": 50,
        "227": 209,
        "228": 137,
        "229": 134,
        "230": 71,
        "231": 167,
        "232": 179,
        "233": 29,
        "234": 99,
        "235": 102,
        "236": 252,
        "237": 199,
        "238": 251,
        "239": 125,
        "240": 56,
        "241": 75,
        "242": 148,
        "243": 225,
        "244": 171,
        "245": 17,
        "246": 102,
        "247": 93,
        "248": 66,
        "249": 202,
        "250": 57,
        "251": 183,
        "252": 197,
        "253": 71,
        "254": 133,
        "255": 116,
        "256": 73,
        "257": 86,
        "258": 164,
        "259": 117,
        "260": 164,
        "261": 199,
        "262": 210,
        "263": 51,
        "264": 54,
        "265": 169,
        "266": 249,
        "267": 53,
        "268": 96,
        "269": 123,
        "270": 131,
        "271": 212,
        "272": 29,
        "273": 99,
        "274": 38,
        "275": 59,
        "276": 38,
        "277": 166,
        "278": 4,
        "279": 74,
        "280": 214,
        "281": 37,
        "282": 172,
        "283": 130,
        "284": 122,
        "285": 247,
        "286": 110,
        "287": 90,
        "288": 73,
        "289": 12,
        "290": 1,
        "291": 193,
        "292": 12,
        "293": 107,
        "294": 116,
        "295": 30,
        "296": 73,
        "297": 178,
        "298": 229,
        "299": 230,
        "300": 78,
        "301": 137,
        "302": 7,
        "303": 74,
        "304": 216,
        "305": 180,
        "306": 153,
        "307": 54,
        "308": 128,
        "309": 14,
        "310": 155,
        "311": 170,
        "312": 45,
        "313": 209,
        "314": 9,
        "315": 58,
        "316": 36,
        "317": 58,
        "318": 122,
        "319": 194,
        "320": 228,
        "321": 61,
        "322": 244,
        "323": 157,
        "324": 148,
        "325": 162,
        "326": 96,
        "327": 179,
        "328": 53,
        "329": 179,
        "330": 188,
        "331": 78,
        "332": 211,
        "333": 186,
        "334": 232,
        "335": 65,
        "336": 215,
        "337": 14,
        "338": 250,
        "339": 1,
        "340": 190,
        "341": 138,
        "342": 94,
        "343": 85,
        "344": 155,
        "345": 142,
        "346": 11,
        "347": 216,
        "348": 241,
        "349": 203,
        "350": 87,
        "351": 27,
        "352": 41,
        "353": 154,
        "354": 227,
        "355": 150,
        "356": 2,
        "357": 203,
        "358": 183,
        "359": 227,
        "360": 41,
        "361": 244,
        "362": 190,
        "363": 129,
        "364": 143,
        "365": 216,
        "366": 171,
        "367": 222,
        "368": 106,
        "369": 199,
        "370": 126,
        "371": 0,
        "372": 131,
        "373": 130,
        "374": 142,
        "375": 57,
        "376": 254,
        "377": 0,
        "378": 248,
        "379": 174,
        "380": 236,
        "381": 32,
        "382": 142,
        "383": 59,
        "384": 20,
        "385": 54,
        "386": 198,
        "387": 154,
        "388": 23,
        "389": 135,
        "390": 237,
        "391": 105,
        "392": 22,
        "393": 150,
        "394": 62,
        "395": 196,
        "396": 131,
        "397": 40,
        "398": 104,
        "399": 27,
        "400": 54,
        "401": 214,
        "402": 67,
        "403": 1,
        "404": 231,
        "405": 200,
        "406": 121,
        "407": 93,
        "408": 185,
        "409": 173,
        "410": 100,
        "411": 34,
        "412": 203,
        "413": 4,
        "414": 162,
        "415": 44,
        "416": 184,
        "417": 154,
        "418": 3,
        "419": 65,
        "420": 203,
        "421": 254,
        "422": 125,
        "423": 176,
        "424": 146,
        "425": 90,
        "426": 160,
        "427": 143,
        "428": 152,
        "429": 138,
        "430": 116,
        "431": 1,
        "432": 3,
        "433": 221,
        "434": 93,
        "435": 173,
        "436": 143,
        "437": 17,
        "438": 6,
        "439": 64,
        "440": 178,
        "441": 144,
        "442": 248,
        "443": 47,
        "444": 249,
        "445": 247,
        "446": 200,
        "447": 9,
        "448": 158,
        "449": 255,
        "450": 135,
        "451": 91,
        "452": 169,
        "453": 217,
        "454": 153,
        "455": 23,
        "456": 235,
        "457": 218,
        "458": 138,
        "459": 206,
        "460": 92,
        "461": 103,
        "462": 101,
        "463": 36,
        "464": 237,
        "465": 144,
        "466": 236,
        "467": 185,
        "468": 33,
        "469": 199,
        "470": 67,
        "471": 167,
        "472": 222,
        "473": 189,
        "474": 255,
        "475": 26,
        "476": 196,
        "477": 83,
        "478": 193,
        "479": 24,
        "480": 114,
        "481": 104,
        "482": 231,
        "483": 183,
        "484": 69,
        "485": 188,
        "486": 57,
        "487": 89,
        "488": 241,
        "489": 226,
        "490": 216,
        "491": 151,
        "492": 34,
        "493": 20,
        "494": 140,
        "495": 188,
        "496": 189,
        "497": 225,
        "498": 209,
        "499": 62,
        "500": 95,
        "501": 145,
        "502": 2,
        "503": 236,
        "504": 72,
        "505": 114,
        "506": 53,
        "507": 137,
        "508": 78,
        "509": 207,
        "510": 116,
        "511": 147,
        "512": 135,
        "513": 57,
        "514": 106,
        "515": 0,
        "516": 123,
        "517": 36,
        "518": 64,
        "519": 250,
        "520": 244,
        "521": 77,
        "522": 114,
        "523": 183,
        "524": 18,
        "525": 38,
        "526": 114,
        "527": 143,
        "528": 175,
        "529": 57,
        "530": 250,
        "531": 212,
        "532": 71,
        "533": 249,
        "534": 163,
        "535": 215,
        "536": 144,
        "537": 29,
        "538": 110,
        "539": 145,
        "540": 56,
        "541": 112,
        "542": 249,
        "543": 27,
        "544": 101,
        "545": 44,
        "546": 96,
        "547": 171,
        "548": 157,
        "549": 232,
        "550": 97,
        "551": 196,
        "552": 172,
        "553": 28,
        "554": 118,
        "555": 195,
        "556": 109,
        "557": 15,
        "558": 186,
        "559": 108,
        "560": 54,
        "561": 154,
        "562": 46,
        "563": 167,
        "564": 219,
        "565": 234,
        "566": 115,
        "567": 22,
        "568": 81,
        "569": 26,
        "570": 12,
        "571": 100,
        "572": 65,
        "573": 238,
        "574": 214,
        "575": 26,
        "576": 5,
        "577": 78,
        "578": 214,
        "579": 255,
        "580": 177,
        "581": 239,
        "582": 3,
        "583": 69,
        "584": 122,
        "585": 63,
        "586": 55,
        "587": 43,
        "588": 38,
        "589": 210,
        "590": 140,
        "591": 52,
        "592": 55,
        "593": 165,
        "594": 202,
        "595": 155,
        "596": 230,
        "597": 140,
        "598": 113,
        "599": 126,
        "600": 193,
        "601": 186,
        "602": 173,
        "603": 188,
        "604": 232,
        "605": 187,
        "606": 48,
        "607": 80,
        "608": 181,
        "609": 164,
        "610": 225,
        "611": 201,
        "612": 15,
        "613": 169,
        "614": 167,
        "615": 39,
        "616": 128,
        "617": 159,
        "618": 235,
        "619": 227,
        "620": 63,
        "621": 6,
        "622": 190,
        "623": 93,
        "624": 126,
        "625": 215,
        "626": 68,
        "627": 6,
        "628": 74,
        "629": 135,
        "630": 42,
        "631": 17,
        "632": 105,
        "633": 4,
        "634": 17,
        "635": 185,
        "636": 224,
        "637": 163,
        "638": 251,
        "639": 68,
        "640": 157,
        "641": 204,
        "642": 114,
        "643": 17,
        "644": 232,
        "645": 249,
        "646": 241,
        "647": 48,
        "648": 179,
        "649": 229,
        "650": 120,
        "651": 175,
        "652": 137,
        "653": 6,
        "654": 254,
        "655": 168,
        "656": 177,
        "657": 130,
        "658": 105,
        "659": 184,
        "660": 23,
        "661": 129,
        "662": 96,
        "663": 209,
        "664": 22,
        "665": 152,
        "666": 67,
        "667": 183,
        "668": 149,
        "669": 229,
        "670": 69,
        "671": 122,
        "672": 137,
        "673": 91,
        "674": 139,
        "675": 244,
        "676": 79,
        "677": 202,
        "678": 197,
        "679": 182,
        "680": 125,
        "681": 42,
        "682": 124,
        "683": 230,
        "684": 130,
        "685": 83,
        "686": 103,
        "687": 81,
        "688": 147,
        "689": 124,
        "690": 125,
        "691": 198,
        "692": 244,
        "693": 206,
        "694": 20,
        "695": 202,
        "696": 121,
        "697": 36,
        "698": 17,
        "699": 151,
        "700": 164,
        "701": 179,
        "702": 248,
        "703": 21,
        "704": 61,
        "705": 152,
        "706": 101,
        "707": 137,
        "708": 251,
        "709": 168,
        "710": 76,
        "711": 79,
        "712": 46,
        "713": 55,
        "714": 94,
        "715": 27,
        "716": 243,
        "717": 146,
        "718": 115,
        "719": 250,
        "720": 4,
        "721": 175,
        "722": 87,
        "723": 175,
        "724": 240,
        "725": 230,
        "726": 164,
        "727": 205,
        "728": 54,
        "729": 191,
        "730": 229,
        "731": 155,
        "732": 99,
        "733": 126,
        "734": 208,
        "735": 42,
        "736": 234,
        "737": 254,
        "738": 148,
        "739": 63,
        "740": 118,
        "741": 165,
        "742": 106,
        "743": 220,
        "744": 100,
        "745": 200,
        "746": 150,
        "747": 124,
        "748": 111,
        "749": 222,
        "750": 104,
        "751": 237,
        "752": 98,
        "753": 83,
        "754": 71,
        "755": 4,
        "756": 111,
        "757": 109,
        "758": 172,
        "759": 154,
        "760": 221,
        "761": 28,
        "762": 252,
        "763": 93,
        "764": 208,
        "765": 125,
        "766": 211,
        "767": 43,
        "768": 221,
        "769": 18,
        "770": 56,
        "771": 37,
        "772": 80,
        "773": 104,
        "774": 2,
        "775": 111,
        "776": 80,
        "777": 75,
        "778": 184,
        "779": 44,
        "780": 88,
        "781": 104,
        "782": 11,
        "783": 140,
        "784": 110,
        "785": 39,
        "786": 142,
        "787": 214,
        "788": 13,
        "789": 54,
        "790": 233,
        "791": 227,
        "792": 176,
        "793": 252,
        "794": 17,
        "795": 151,
        "796": 64,
        "797": 55,
        "798": 159,
        "799": 31,
        "800": 145,
        "801": 4,
        "802": 101,
        "803": 90,
        "804": 215,
        "805": 174,
        "806": 230,
        "807": 221,
        "808": 218,
        "809": 215,
        "810": 159,
        "811": 3,
        "812": 172,
        "813": 181,
        "814": 22,
        "815": 160,
        "816": 145,
        "817": 254,
        "818": 230,
        "819": 148,
        "820": 107,
        "821": 33,
        "822": 144,
        "823": 227,
        "824": 110,
        "825": 232,
        "826": 178,
        "827": 87,
        "828": 2,
        "829": 100,
        "830": 132,
        "831": 187,
        "832": 142,
        "833": 69,
        "834": 25,
        "835": 120,
        "836": 96,
        "837": 5,
        "838": 208,
        "839": 126,
        "840": 58,
        "841": 191,
        "842": 221,
        "843": 66,
        "844": 98,
        "845": 66,
        "846": 152,
        "847": 114,
        "848": 65,
        "849": 139,
        "850": 12,
        "851": 140,
        "852": 207,
        "853": 184,
        "854": 227,
        "855": 144,
        "856": 53,
        "857": 63,
        "858": 181,
        "859": 221,
        "860": 162,
        "861": 23,
        "862": 9,
        "863": 122,
        "864": 64,
        "865": 141,
        "866": 86,
        "867": 25,
        "868": 165,
        "869": 30,
        "870": 119,
        "871": 169,
        "872": 20,
        "873": 253,
        "874": 108,
        "875": 68,
        "876": 50,
        "877": 178,
        "878": 92,
        "879": 224,
        "880": 21,
        "881": 16,
        "882": 227,
        "883": 196,
        "884": 124,
        "885": 170,
        "886": 145,
        "887": 22,
        "888": 166,
        "889": 204,
        "890": 236,
        "891": 80,
        "892": 61,
        "893": 23,
        "894": 136,
        "895": 56,
        "896": 131,
        "897": 74,
        "898": 183,
        "899": 192,
        "900": 41,
        "901": 230,
        "902": 1,
        "903": 42,
        "904": 226,
        "905": 225,
        "906": 146,
        "907": 11,
        "908": 205,
        "909": 2,
        "910": 84,
        "911": 112,
        "912": 216,
        "913": 118,
        "914": 252,
        "915": 93,
        "916": 87,
        "917": 246,
        "918": 231,
        "919": 172,
        "920": 70,
        "921": 253,
        "922": 118,
        "923": 173,
        "924": 81,
        "925": 122,
        "926": 252,
        "927": 105,
        "928": 243,
        "929": 152,
        "930": 228,
        "931": 215,
        "932": 236,
        "933": 102,
        "934": 8,
        "935": 11,
        "936": 102,
        "937": 79,
        "938": 159,
        "939": 242,
        "940": 219,
        "941": 40,
        "942": 1,
        "943": 236,
        "944": 41,
        "945": 222,
        "946": 207,
        "947": 5,
        "948": 176,
        "949": 96,
        "950": 56,
        "951": 209,
        "952": 157,
        "953": 83,
        "954": 124,
        "955": 60,
        "956": 32,
        "957": 1,
        "958": 68,
        "959": 133,
        "960": 204,
        "961": 245,
        "962": 79,
        "963": 69,
        "964": 221,
        "965": 189,
        "966": 169,
        "967": 241,
        "968": 204,
        "969": 166,
        "970": 249,
        "971": 45,
        "972": 188,
        "973": 5,
        "974": 146,
        "975": 50,
        "976": 173,
        "977": 25,
        "978": 132,
        "979": 173,
        "980": 101,
        "981": 132,
        "982": 162,
        "983": 129,
        "984": 213,
        "985": 149,
        "986": 149,
        "987": 8,
        "988": 87,
        "989": 195,
        "990": 34,
        "991": 136,
        "992": 126,
        "993": 94,
        "994": 237,
        "995": 208,
        "996": 167,
        "997": 209,
        "998": 10,
        "999": 238,
        "1000": 164,
        "1001": 40,
        "1002": 152,
        "1003": 14,
        "1004": 49,
        "1005": 39,
        "1006": 150,
        "1007": 32,
        "1008": 15,
        "1009": 129,
        "1010": 119,
        "1011": 56,
        "1012": 119,
        "1013": 37,
        "1014": 49,
        "1015": 120,
        "1016": 55,
        "1017": 86,
        "1018": 22,
        "1019": 229,
        "1020": 106,
        "1021": 57,
        "1022": 40,
        "1023": 53,
        "1024": 88,
        "1025": 229,
        "1026": 73,
        "1027": 80,
        "1028": 201,
        "1029": 85,
        "1030": 92,
        "1031": 243,
        "1032": 5,
        "1033": 22,
        "1034": 245,
        "1035": 209,
        "1036": 3,
        "1037": 184,
        "1038": 34,
        "1039": 130,
        "1040": 178,
        "1041": 136,
        "1042": 188,
        "1043": 215,
        "1044": 104,
        "1045": 207,
        "1046": 86,
        "1047": 79,
        "1048": 112,
        "1049": 73,
        "1050": 152,
        "1051": 179,
        "1052": 70,
        "1053": 194,
        "1054": 70,
        "1055": 53,
        "1056": 40,
        "1057": 7,
        "1058": 156,
        "1059": 99,
        "1060": 126,
        "1061": 110,
        "1062": 160,
        "1063": 13,
        "1064": 159,
        "1065": 119,
        "1066": 168,
        "1067": 242,
        "1068": 202,
        "1069": 102,
        "1070": 116,
        "1071": 192,
        "1072": 207,
        "1073": 122,
        "1074": 120,
        "1075": 109,
        "1076": 184,
        "1077": 93,
        "1078": 5,
        "1079": 254,
        "1080": 83,
        "1081": 9,
        "1082": 60,
        "1083": 234,
        "1084": 13,
        "1085": 202,
        "1086": 127,
        "1087": 72,
        "1088": 103,
        "1089": 85,
        "1090": 252,
        "1091": 209,
        "1092": 83,
        "1093": 219,
        "1094": 213,
        "1095": 112,
        "1096": 106,
        "1097": 230,
        "1098": 220,
        "1099": 53,
        "1100": 2,
        "1101": 185,
        "1102": 125,
        "1103": 41,
        "1104": 28,
        "1105": 247,
        "1106": 161,
        "1107": 98,
        "1108": 2,
        "1109": 145,
        "1110": 113,
        "1111": 176,
        "1112": 97,
        "1113": 184,
        "1114": 132,
        "1115": 40,
        "1116": 2,
        "1117": 121,
        "1118": 232,
        "1119": 206,
        "1120": 97,
        "1121": 215,
        "1122": 11,
        "1123": 254,
        "1124": 153,
        "1125": 75,
        "1126": 5,
        "1127": 32,
        "1128": 92,
        "1129": 163,
        "1130": 248,
        "1131": 88,
        "1132": 6,
        "1133": 170,
        "1134": 198,
        "1135": 131,
        "1136": 151,
        "1137": 199,
        "1138": 178,
        "1139": 52,
        "1140": 242,
        "1141": 212,
        "1142": 71,
        "1143": 244,
        "1144": 137,
        "1145": 213,
        "1146": 116,
        "1147": 83,
        "1148": 232,
        "1149": 155,
        "1150": 170,
        "1151": 119,
        "1152": 30,
        "1153": 220,
        "1154": 171,
        "1155": 5,
        "1156": 129,
        "1157": 87,
        "1158": 246,
        "1159": 208,
        "1160": 203,
        "1161": 185,
        "1162": 186,
        "1163": 95,
        "1164": 143,
        "1165": 151,
        "1166": 56,
        "1167": 234,
        "1168": 17,
        "1169": 212,
        "1170": 17,
        "1171": 114,
        "1172": 164,
        "1173": 71,
        "1174": 24,
        "1175": 228,
        "1176": 106,
        "1177": 60,
        "1178": 140,
        "1179": 166,
        "1180": 246,
        "1181": 120,
        "1182": 175,
        "1183": 17,
        "1184": 152,
        "1185": 16,
        "1186": 15,
        "1187": 2,
        "1188": 211,
        "1189": 180,
        "1190": 173,
        "1191": 114,
        "1192": 154,
        "1193": 156,
        "1194": 167,
        "1195": 46,
        "1196": 185,
        "1197": 35,
        "1198": 107,
        "1199": 120,
        "1200": 100,
        "1201": 75,
        "1202": 130,
        "1203": 138,
        "1204": 81,
        "1205": 172,
        "1206": 204,
        "1207": 235,
        "1208": 204,
        "1209": 196,
        "1210": 86,
        "1211": 120,
        "1212": 150,
        "1213": 92,
        "1214": 243,
        "1215": 60,
        "1216": 2,
        "1217": 12,
        "1218": 183,
        "1219": 89,
        "1220": 42,
        "1221": 63,
        "1222": 241,
        "1223": 217,
        "1224": 124,
        "1225": 61,
        "1226": 117,
        "1227": 232,
        "1228": 191,
        "1229": 21,
        "1230": 5,
        "1231": 74,
        "1232": 66,
        "1233": 230,
        "1234": 173,
        "1235": 163,
        "1236": 49,
        "1237": 59,
        "1238": 215,
        "1239": 179,
        "1240": 135,
        "1241": 9,
        "1242": 163,
        "1243": 194,
        "1244": 59,
        "1245": 190,
        "1246": 19,
        "1247": 26,
        "1248": 194,
        "1249": 5,
        "1250": 30,
        "1251": 9,
        "1252": 179,
        "1253": 156,
        "1254": 190,
        "1255": 143,
        "1256": 7,
        "1257": 49,
        "1258": 22,
        "1259": 52,
        "1260": 91,
        "1261": 153,
        "1262": 238,
        "1263": 66,
        "1264": 111,
        "1265": 244,
        "1266": 43,
        "1267": 43,
        "1268": 94,
        "1269": 218,
        "1270": 86,
        "1271": 210,
        "1272": 44,
        "1273": 117,
        "1274": 211,
        "1275": 87,
        "1276": 77,
        "1277": 70,
        "1278": 62,
        "1279": 51,
        "1280": 157,
        "1281": 68,
        "1282": 103,
        "1283": 22,
        "1284": 223,
        "1285": 238,
        "1286": 51,
        "1287": 120,
        "1288": 183,
        "1289": 221,
        "1290": 245,
        "1291": 218,
        "1292": 186,
        "1293": 147,
        "1294": 77,
        "1295": 20,
        "1296": 233,
        "1297": 169,
        "1298": 13,
        "1299": 159,
        "1300": 56,
        "1301": 2,
        "1302": 58,
        "1303": 212,
        "1304": 85,
        "1305": 188,
        "1306": 215,
        "1307": 79,
        "1308": 233,
        "1309": 221,
        "1310": 105,
        "1311": 120,
        "1312": 105,
        "1313": 169,
        "1314": 147,
        "1315": 197,
        "1316": 88,
        "1317": 155,
        "1318": 237,
        "1319": 46,
        "1320": 73,
        "1321": 4,
        "1322": 192,
        "1323": 105,
        "1324": 158,
        "1325": 216,
        "1326": 78,
        "1327": 146,
        "1328": 147,
        "1329": 130,
        "1330": 246,
        "1331": 103,
        "1332": 177,
        "1333": 253,
        "1334": 15,
        "1335": 80,
        "1336": 28,
        "1337": 13,
        "1338": 183,
        "1339": 128,
        "1340": 250,
        "1341": 144,
        "1342": 120,
        "1343": 6,
        "1344": 51,
        "1345": 200,
        "1346": 186,
        "1347": 37,
        "1348": 74,
        "1349": 36,
        "1350": 58,
        "1351": 251,
        "1352": 165,
        "1353": 138,
        "1354": 10,
        "1355": 176,
        "1356": 65,
        "1357": 115,
        "1358": 206,
        "1359": 35,
        "1360": 40,
        "1361": 88,
        "1362": 38,
        "1363": 75,
        "1364": 123,
        "1365": 159,
        "1366": 242,
        "1367": 16,
        "1368": 215,
        "1369": 31,
        "1370": 4,
        "1371": 101,
        "1372": 119,
        "1373": 19,
        "1374": 26,
        "1375": 48,
        "1376": 126,
        "1377": 136,
        "1378": 156,
        "1379": 31,
        "1380": 134,
        "1381": 211,
        "1382": 53,
        "1383": 104,
        "1384": 128,
        "1385": 130,
        "1386": 156,
        "1387": 147,
        "1388": 230,
        "1389": 92,
        "1390": 90,
        "1391": 192,
        "1392": 245,
        "1393": 207,
        "1394": 148,
        "1395": 30,
        "1396": 75,
        "1397": 189,
        "1398": 223,
        "1399": 127,
        "1400": 92,
        "1401": 67,
        "1402": 23,
        "1403": 48,
        "1404": 184,
        "1405": 80,
        "1406": 178,
        "1407": 84,
        "1408": 206,
        "1409": 180,
        "1410": 54,
        "1411": 17,
        "1412": 195,
        "1413": 229,
        "1414": 45,
        "1415": 229,
        "1416": 110,
        "1417": 91,
        "1418": 33,
        "1419": 138,
        "1420": 107,
        "1421": 253,
        "1422": 10,
        "1423": 90,
        "1424": 156,
        "1425": 176,
        "1426": 0,
        "1427": 47,
        "1428": 128,
        "1429": 113,
        "1430": 217,
        "1431": 49,
        "1432": 253,
        "1433": 91,
        "1434": 141,
        "1435": 195,
        "1436": 175,
        "1437": 138,
        "1438": 142,
        "1439": 139,
        "1440": 23,
        "1441": 26,
        "1442": 7,
        "1443": 96,
        "1444": 228,
        "1445": 203,
        "1446": 226,
        "1447": 95,
        "1448": 248,
        "1449": 0,
        "1450": 112,
        "1451": 52,
        "1452": 212,
        "1453": 94,
        "1454": 87,
        "1455": 114,
        "1456": 34,
        "1457": 143,
        "1458": 23,
        "1459": 187,
        "1460": 21,
        "1461": 86,
        "1462": 234,
        "1463": 175,
        "1464": 222,
        "1465": 236,
        "1466": 6,
        "1467": 79,
        "1468": 177,
        "1469": 109,
        "1470": 185,
        "1471": 154,
        "1472": 33,
        "1473": 193,
        "1474": 38,
        "1475": 7,
        "1476": 172,
        "1477": 153,
        "1478": 252,
        "1479": 107,
        "1480": 109,
        "1481": 33,
        "1482": 67,
        "1483": 187,
        "1484": 221,
        "1485": 13,
        "1486": 26,
        "1487": 17,
        "1488": 175,
        "1489": 187,
        "1490": 192,
        "1491": 68,
        "1492": 114,
        "1493": 82,
        "1494": 179,
        "1495": 154,
        "1496": 65,
        "1497": 251,
        "1498": 18,
        "1499": 247,
        "1500": 127,
        "1501": 100,
        "1502": 249,
        "1503": 5,
        "1504": 167,
        "1505": 92,
        "1506": 8,
        "1507": 225,
        "1508": 220,
        "1509": 169,
        "1510": 82,
        "1511": 101,
        "1512": 9,
        "1513": 131,
        "1514": 244,
        "1515": 64,
        "1516": 78,
        "1517": 177,
        "1518": 136,
        "1519": 4,
        "1520": 193,
        "1521": 42,
        "1522": 91,
        "1523": 179,
        "1524": 38,
        "1525": 216,
        "1526": 109,
        "1527": 229,
        "1528": 248,
        "1529": 93,
        "1530": 159,
        "1531": 73,
        "1532": 90,
        "1533": 97,
        "1534": 235,
        "1535": 121,
        "1536": 197,
        "1537": 213,
        "1538": 126,
        "1539": 87,
        "1540": 27,
        "1541": 52,
        "1542": 124,
        "1543": 251,
        "1544": 145,
        "1545": 249,
        "1546": 237,
        "1547": 118,
        "1548": 142,
        "1549": 230,
        "1550": 243,
        "1551": 206,
        "1552": 35,
        "1553": 181,
        "1554": 27,
        "1555": 66,
        "1556": 210,
        "1557": 222,
        "1558": 223,
        "1559": 149,
        "1560": 224,
        "1561": 245,
        "1562": 229,
        "1563": 45,
        "1564": 191,
        "1565": 66,
        "1566": 125,
        "1567": 116,
        "1568": 120,
        "1569": 145,
        "1570": 100,
        "1571": 19,
        "1572": 69,
        "1573": 153,
        "1574": 86,
        "1575": 149,
        "1576": 218,
        "1577": 84,
        "1578": 114,
        "1579": 53,
        "1580": 136,
        "1581": 208,
        "1582": 153,
        "1583": 245,
        "1584": 38,
        "1585": 174,
        "1586": 166,
        "1587": 24,
        "1588": 160,
        "1589": 25,
        "1590": 246,
        "1591": 251,
        "1592": 242,
        "1593": 15,
        "1594": 249,
        "1595": 143,
        "1596": 138,
        "1597": 29,
        "1598": 239,
        "1599": 188,
        "1600": 43,
        "1601": 41,
        "1602": 65,
        "1603": 115,
        "1604": 133,
        "1605": 85,
        "1606": 214,
        "1607": 226,
        "1608": 243,
        "1609": 232,
        "1610": 11,
        "1611": 201,
        "1612": 89,
        "1613": 234,
        "1614": 195,
        "1615": 198,
        "1616": 13,
        "1617": 118,
        "1618": 226,
        "1619": 185,
        "1620": 121,
        "1621": 28,
        "1622": 176,
        "1623": 121,
        "1624": 160,
        "1625": 190,
        "1626": 14,
        "1627": 101,
        "1628": 3,
        "1629": 166,
        "1630": 167,
        "1631": 137,
        "1632": 110,
        "1633": 124,
        "1634": 209,
        "1635": 151,
        "1636": 248,
        "1637": 126,
        "1638": 117,
        "1639": 76,
        "1640": 234,
        "1641": 107,
        "1642": 150,
        "1643": 255,
        "1644": 152,
        "1645": 103,
        "1646": 105,
        "1647": 9,
        "1648": 81,
        "1649": 227,
        "1650": 166,
        "1651": 48,
        "1652": 74,
        "1653": 105,
        "1654": 177,
        "1655": 105,
        "1656": 198,
        "1657": 214,
        "1658": 188,
        "1659": 193,
        "1660": 151,
        "1661": 189,
        "1662": 6,
        "1663": 43,
        "1664": 98,
        "1665": 58,
        "1666": 136,
        "1667": 62,
        "1668": 143,
        "1669": 251,
        "1670": 227,
        "1671": 127,
        "1672": 35,
        "1673": 14,
        "1674": 205,
        "1675": 39,
        "1676": 107,
        "1677": 236,
        "1678": 199,
        "1679": 136,
        "1680": 169,
        "1681": 153,
        "1682": 255,
        "1683": 249,
        "1684": 246,
        "1685": 247,
        "1686": 7,
        "1687": 64,
        "1688": 204,
        "1689": 211,
        "1690": 18,
        "1691": 104,
        "1692": 59,
        "1693": 96,
        "1694": 255,
        "1695": 28,
        "1696": 211,
        "1697": 104,
        "1698": 213,
        "1699": 136,
        "1700": 199,
        "1701": 14,
        "1702": 108,
        "1703": 114,
        "1704": 241,
        "1705": 105,
        "1706": 212,
        "1707": 78,
        "1708": 220,
        "1709": 243,
        "1710": 68,
        "1711": 113,
        "1712": 13,
        "1713": 160,
        "1714": 35,
        "1715": 9,
        "1716": 127,
        "1717": 105,
        "1718": 57,
        "1719": 32,
        "1720": 8,
        "1721": 58,
        "1722": 79,
        "1723": 20,
        "1724": 218,
        "1725": 135,
        "1726": 126,
        "1727": 46,
        "1728": 222,
        "1729": 173,
        "1730": 42,
        "1731": 70,
        "1732": 24,
        "1733": 240,
        "1734": 244,
        "1735": 10,
        "1736": 189,
        "1737": 152,
        "1738": 15,
        "1739": 134,
        "1740": 37,
        "1741": 53,
        "1742": 169,
        "1743": 116,
        "1744": 56,
        "1745": 92,
        "1746": 8,
        "1747": 63,
        "1748": 37,
        "1749": 98,
        "1750": 235,
        "1751": 4,
        "1752": 30,
        "1753": 100,
        "1754": 34,
        "1755": 174,
        "1756": 67,
        "1757": 253,
        "1758": 45,
        "1759": 136,
        "1760": 225,
        "1761": 74,
        "1762": 228,
        "1763": 46,
        "1764": 109,
        "1765": 117,
        "1766": 89,
        "1767": 240,
        "1768": 227,
        "1769": 57,
        "1770": 201,
        "1771": 42,
        "1772": 107,
        "1773": 189,
        "1774": 67,
        "1775": 11,
        "1776": 7,
        "1777": 39,
        "1778": 182,
        "1779": 143,
        "1780": 75,
        "1781": 15,
        "1782": 69,
        "1783": 7,
        "1784": 82,
        "1785": 249,
        "1786": 79,
        "1787": 185,
        "1788": 233,
        "1789": 42,
        "1790": 222,
        "1791": 111,
        "1792": 252,
        "1793": 148,
        "1794": 132,
        "1795": 40,
        "1796": 74,
        "1797": 51,
        "1798": 86,
        "1799": 76,
        "1800": 132,
        "1801": 1,
        "1802": 44,
        "1803": 234,
        "1804": 12,
        "1805": 159,
        "1806": 160,
        "1807": 69,
        "1808": 201,
        "1809": 0,
        "1810": 147,
        "1811": 107,
        "1812": 119,
        "1813": 15,
        "1814": 35,
        "1815": 19,
        "1816": 207,
        "1817": 162,
        "1818": 166,
        "1819": 227,
        "1820": 87,
        "1821": 239,
        "1822": 101,
        "1823": 130,
        "1824": 27,
        "1825": 84,
        "1826": 195,
        "1827": 203,
        "1828": 166,
        "1829": 246,
        "1830": 135,
        "1831": 195,
        "1832": 150,
        "1833": 199,
        "1834": 54,
        "1835": 160,
        "1836": 135,
        "1837": 252,
        "1838": 240,
        "1839": 135,
        "1840": 168,
        "1841": 105,
        "1842": 67,
        "1843": 24,
        "1844": 244,
        "1845": 137,
        "1846": 173,
        "1847": 57,
        "1848": 109,
        "1849": 190,
        "1850": 148,
        "1851": 218,
        "1852": 73,
        "1853": 83,
        "1854": 60,
        "1855": 140,
        "1856": 250,
        "1857": 204,
        "1858": 229,
        "1859": 248,
        "1860": 216,
        "1861": 81,
        "1862": 253,
        "1863": 112,
        "1864": 190,
        "1865": 127,
        "1866": 12,
        "1867": 22,
        "1868": 85,
        "1869": 190,
        "1870": 44,
        "1871": 246,
        "1872": 80,
        "1873": 160,
        "1874": 21,
        "1875": 145,
        "1876": 80,
        "1877": 16,
        "1878": 151,
        "1879": 67,
        "1880": 88,
        "1881": 240,
        "1882": 85,
        "1883": 240,
        "1884": 248,
        "1885": 183,
        "1886": 248,
        "1887": 51,
        "1888": 51,
        "1889": 189,
        "1890": 92,
        "1891": 248,
        "1892": 104,
        "1893": 134,
        "1894": 57,
        "1895": 30,
        "1896": 190,
        "1897": 0,
        "1898": 78,
        "1899": 168,
        "1900": 97,
        "1901": 153,
        "1902": 62,
        "1903": 183,
        "1904": 130,
        "1905": 178,
        "1906": 108,
        "1907": 180,
        "1908": 154,
        "1909": 235,
        "1910": 103,
        "1911": 66,
        "1912": 176,
        "1913": 38,
        "1914": 26,
        "1915": 20,
        "1916": 229,
        "1917": 199,
        "1918": 49,
        "1919": 29,
        "1920": 241,
        "1921": 35,
        "1922": 42,
        "1923": 177,
        "1924": 240,
        "1925": 212,
        "1926": 151,
        "1927": 155,
        "1928": 196,
        "1929": 170,
        "1930": 176,
        "1931": 120,
        "1932": 154,
        "1933": 131,
        "1934": 244,
        "1935": 144,
        "1936": 24,
        "1937": 13,
        "1938": 13,
        "1939": 232,
        "1940": 60,
        "1941": 79,
        "1942": 133,
        "1943": 43,
        "1944": 38,
        "1945": 23,
        "1946": 21,
        "1947": 80,
        "1948": 75,
        "1949": 76,
        "1950": 152,
        "1951": 140,
        "1952": 164,
        "1953": 122,
        "1954": 59,
        "1955": 141,
        "1956": 109,
        "1957": 69,
        "1958": 146,
        "1959": 137,
        "1960": 4,
        "1961": 232,
        "1962": 22,
        "1963": 28,
        "1964": 79,
        "1965": 51,
        "1966": 133,
        "1967": 89,
        "1968": 86,
        "1969": 234,
        "1970": 12,
        "1971": 28,
        "1972": 234,
        "1973": 17,
        "1974": 242,
        "1975": 198,
        "1976": 157,
        "1977": 188,
        "1978": 39,
        "1979": 104,
        "1980": 229,
        "1981": 96,
        "1982": 212,
        "1983": 150,
        "1984": 167,
        "1985": 160,
        "1986": 143,
        "1987": 195,
        "1988": 226,
        "1989": 24,
        "1990": 27,
        "1991": 136,
        "1992": 222,
        "1993": 0,
        "1994": 211,
        "1995": 174,
        "1996": 240,
        "1997": 90,
        "1998": 79,
        "1999": 59,
        "2000": 92,
        "2001": 76,
        "2002": 132,
        "2003": 209,
        "2004": 107,
        "2005": 194,
        "2006": 14,
        "2007": 67,
        "2008": 211,
        "2009": 149,
        "2010": 164,
        "2011": 151,
        "2012": 63,
        "2013": 251,
        "2014": 61,
        "2015": 26,
        "2016": 23,
        "2017": 84,
        "2018": 3,
        "2019": 105,
        "2020": 245,
        "2021": 35,
        "2022": 241,
        "2023": 199,
        "2024": 62,
        "2025": 85,
        "2026": 22,
        "2027": 151,
        "2028": 168,
        "2029": 39,
        "2030": 1,
        "2031": 50,
        "2032": 62,
        "2033": 5,
        "2034": 38,
        "2035": 219,
        "2036": 255,
        "2037": 141,
        "2038": 17,
        "2039": 227,
        "2040": 53,
        "2041": 155,
        "2042": 126,
        "2043": 109,
        "2044": 147,
        "2045": 249,
        "2046": 56,
        "2047": 141,
        "2048": 190,
        "2049": 63,
        "2050": 25,
        "2051": 18,
        "2052": 59,
        "2053": 18,
        "2054": 161,
        "2055": 197,
        "2056": 190,
        "2057": 184,
        "2058": 242,
        "2059": 44,
        "2060": 79,
        "2061": 169,
        "2062": 221,
        "2063": 226,
        "2064": 5,
        "2065": 201,
        "2066": 190,
        "2067": 167,
        "2068": 17,
        "2069": 106,
        "2070": 233,
        "2071": 94,
        "2072": 46,
        "2073": 63,
        "2074": 10,
        "2075": 104,
        "2076": 149,
        "2077": 132,
        "2078": 184,
        "2079": 82,
        "2080": 0,
        "2081": 166,
        "2082": 245,
        "2083": 90,
        "2084": 16,
        "2085": 36,
        "2086": 230,
        "2087": 45,
        "2088": 190,
        "2089": 208,
        "2090": 148,
        "2091": 148,
        "2092": 142,
        "2093": 167,
        "2094": 181,
        "2095": 106,
        "2096": 140,
        "2097": 8,
        "2098": 80,
        "2099": 15,
        "2100": 46,
        "2101": 143,
        "2102": 126,
        "2103": 66,
        "2104": 249,
        "2105": 19,
        "2106": 140,
        "2107": 163,
        "2108": 129,
        "2109": 88,
        "2110": 151,
        "2111": 129,
        "2112": 3,
        "2113": 251,
        "2114": 166,
        "2115": 53,
        "2116": 159,
        "2117": 210,
        "2118": 94,
        "2119": 42,
        "2120": 139,
        "2121": 0,
        "2122": 21,
        "2123": 165,
        "2124": 19,
        "2125": 223,
        "2126": 207,
        "2127": 156,
        "2128": 227,
        "2129": 62,
        "2130": 134,
        "2131": 42,
        "2132": 179,
        "2133": 139,
        "2134": 71,
        "2135": 122,
        "2136": 49,
        "2137": 179,
        "2138": 5,
        "2139": 181,
        "2140": 98,
        "2141": 21,
        "2142": 119,
        "2143": 79,
        "2144": 79,
        "2145": 156,
        "2146": 116,
        "2147": 217,
        "2148": 201,
        "2149": 32,
        "2150": 179,
        "2151": 120,
        "2152": 147,
        "2153": 216,
        "2154": 251,
        "2155": 253,
        "2156": 41,
        "2157": 129,
        "2158": 41,
        "2159": 133,
        "2160": 132,
        "2161": 159,
        "2162": 215,
        "2163": 97,
        "2164": 46,
        "2165": 46,
        "2166": 126,
        "2167": 130,
        "2168": 255,
        "2169": 183,
        "2170": 166,
        "2171": 34,
        "2172": 163,
        "2173": 88,
        "2174": 226,
        "2175": 49,
        "2176": 253,
        "2177": 159,
        "2178": 69,
        "2179": 187,
        "2180": 15,
        "2181": 157,
        "2182": 233,
        "2183": 99,
        "2184": 157,
        "2185": 22,
        "2186": 183,
        "2187": 220,
        "2188": 241,
        "2189": 220,
        "2190": 20,
        "2191": 95,
        "2192": 114,
        "2193": 142,
        "2194": 199,
        "2195": 192,
        "2196": 235,
        "2197": 88,
        "2198": 232,
        "2199": 85,
        "2200": 223,
        "2201": 42,
        "2202": 233,
        "2203": 58,
        "2204": 86,
        "2205": 13,
        "2206": 121,
        "2207": 24,
        "2208": 176,
        "2209": 135,
        "2210": 148,
        "2211": 194,
        "2212": 154,
        "2213": 145,
        "2214": 4,
        "2215": 61,
        "2216": 25,
        "2217": 168,
        "2218": 8,
        "2219": 53,
        "2220": 15,
        "2221": 84,
        "2222": 169,
        "2223": 248,
        "2224": 103,
        "2225": 77,
        "2226": 16,
        "2227": 55,
        "2228": 242,
        "2229": 253,
        "2230": 55,
        "2231": 240,
        "2232": 95,
        "2233": 35,
        "2234": 97,
        "2235": 221,
        "2236": 101,
        "2237": 142,
        "2238": 8,
        "2239": 15,
        "2240": 60,
        "2241": 170,
        "2242": 188,
        "2243": 230,
        "2244": 186,
        "2245": 207,
        "2246": 99,
        "2247": 98,
        "2248": 67,
        "2249": 5,
        "2250": 8,
        "2251": 139,
        "2252": 205,
        "2253": 179,
        "2254": 246,
        "2255": 138,
        "2256": 113,
        "2257": 48,
        "2258": 106,
        "2259": 100,
        "2260": 55,
        "2261": 176,
        "2262": 113,
        "2263": 175,
        "2264": 155,
        "2265": 162,
        "2266": 113,
        "2267": 157,
        "2268": 199,
        "2269": 104,
        "2270": 120,
        "2271": 139,
        "2272": 1,
        "2273": 164,
        "2274": 146,
        "2275": 213,
        "2276": 127,
        "2277": 11,
        "2278": 52,
        "2279": 144,
        "2280": 60,
        "2281": 77,
        "2282": 111,
        "2283": 26,
        "2284": 198,
        "2285": 25,
        "2286": 211,
        "2287": 195,
        "2288": 18,
        "2289": 195,
        "2290": 146,
        "2291": 185,
        "2292": 22,
        "2293": 46,
        "2294": 245,
        "2295": 165,
        "2296": 5,
        "2297": 169,
        "2298": 54,
        "2299": 2,
        "2300": 71,
        "2301": 34,
        "2302": 230,
        "2303": 127,
        "2304": 118,
        "2305": 245,
        "2306": 151,
        "2307": 72,
        "2308": 230,
        "2309": 204,
        "2310": 20,
        "2311": 1,
        "2312": 160,
        "2313": 151,
        "2314": 14,
        "2315": 202,
        "2316": 230,
        "2317": 102,
        "2318": 9,
        "2319": 136,
        "2320": 11,
        "2321": 69,
        "2322": 195,
        "2323": 23,
        "2324": 122,
        "2325": 224,
        "2326": 121,
        "2327": 163,
        "2328": 168,
        "2329": 78,
        "2330": 0,
        "2331": 70,
        "2332": 241,
        "2333": 187,
        "2334": 72,
        "2335": 209,
        "2336": 97,
        "2337": 47,
        "2338": 93,
        "2339": 68,
        "2340": 40,
        "2341": 143,
        "2342": 229,
        "2343": 51,
        "2344": 197,
        "2345": 246,
        "2346": 222,
        "2347": 66,
        "2348": 164,
        "2349": 192,
        "2350": 253,
        "2351": 93,
        "2352": 124,
        "2353": 208,
        "2354": 106,
        "2355": 70,
        "2356": 20,
        "2357": 171,
        "2358": 85,
        "2359": 5,
        "2360": 219,
        "2361": 78,
        "2362": 26,
        "2363": 133,
        "2364": 197,
        "2365": 214,
        "2366": 197,
        "2367": 7,
        "2368": 32,
        "2369": 145,
        "2370": 71,
        "2371": 59,
        "2372": 25,
        "2373": 4,
        "2374": 26,
        "2375": 37,
        "2376": 131,
        "2377": 186,
        "2378": 193,
        "2379": 214,
        "2380": 160,
        "2381": 180,
        "2382": 186,
        "2383": 75,
        "2384": 246,
        "2385": 53,
        "2386": 83,
        "2387": 112,
        "2388": 79,
        "2389": 14,
        "2390": 65,
        "2391": 248,
        "2392": 90,
        "2393": 68,
        "2394": 122,
        "2395": 113,
        "2396": 86,
        "2397": 203,
        "2398": 108,
        "2399": 250,
        "2400": 164,
        "2401": 115,
        "2402": 220,
        "2403": 118,
        "2404": 238,
        "2405": 220,
        "2406": 231,
        "2407": 109,
        "2408": 176,
        "2409": 250,
        "2410": 67,
        "2411": 59,
        "2412": 175,
        "2413": 6,
        "2414": 193,
        "2415": 116,
        "2416": 117,
        "2417": 196,
        "2418": 254,
        "2419": 111,
        "2420": 52,
        "2421": 83,
        "2422": 15,
        "2423": 159,
        "2424": 139,
        "2425": 44,
        "2426": 213,
        "2427": 61,
        "2428": 53,
        "2429": 246,
        "2430": 10,
        "2431": 41,
        "2432": 142,
        "2433": 30,
        "2434": 192,
        "2435": 32,
        "2436": 210,
        "2437": 44,
        "2438": 246,
        "2439": 245,
        "2440": 245,
        "2441": 16,
        "2442": 86,
        "2443": 142,
        "2444": 67,
        "2445": 245,
        "2446": 253,
        "2447": 160,
        "2448": 248,
        "2449": 163,
        "2450": 65,
        "2451": 7,
        "2452": 8,
        "2453": 241,
        "2454": 148,
        "2455": 13,
        "2456": 237,
        "2457": 173,
        "2458": 29,
        "2459": 55,
        "2460": 68,
        "2461": 252,
        "2462": 192,
        "2463": 182,
        "2464": 107,
        "2465": 55,
        "2466": 241,
        "2467": 135,
        "2468": 119,
        "2469": 75,
        "2470": 179,
        "2471": 173,
        "2472": 131,
        "2473": 180,
        "2474": 177,
        "2475": 116,
        "2476": 178,
        "2477": 76,
        "2478": 32,
        "2479": 51,
        "2480": 209,
        "2481": 48,
        "2482": 10,
        "2483": 93,
        "2484": 154,
        "2485": 84,
        "2486": 98,
        "2487": 203,
        "2488": 92,
        "2489": 214,
        "2490": 140,
        "2491": 205,
        "2492": 203,
        "2493": 81,
        "2494": 56,
        "2495": 168,
        "2496": 144,
        "2497": 166,
        "2498": 104,
        "2499": 18,
        "2500": 158,
        "2501": 90,
        "2502": 55,
        "2503": 173,
        "2504": 113,
        "2505": 17,
        "2506": 123,
        "2507": 42,
        "2508": 84,
        "2509": 122,
        "2510": 242,
        "2511": 174,
        "2512": 109,
        "2513": 125,
        "2514": 252,
        "2515": 115,
        "2516": 153,
        "2517": 130,
        "2518": 109,
        "2519": 216,
        "2520": 69,
        "2521": 154,
        "2522": 95,
        "2523": 136,
        "2524": 12,
        "2525": 139,
        "2526": 48,
        "2527": 141,
        "2528": 125,
        "2529": 66,
        "2530": 93,
        "2531": 3,
        "2532": 1,
        "2533": 253,
        "2534": 121,
        "2535": 255,
        "2536": 40,
        "2537": 32,
        "2538": 225,
        "2539": 156,
        "2540": 177,
        "2541": 209,
        "2542": 167,
        "2543": 237,
        "2544": 40,
        "2545": 247,
        "2546": 89,
        "2547": 46,
        "2548": 162,
        "2549": 7,
        "2550": 195,
        "2551": 22,
        "2552": 205,
        "2553": 159,
        "2554": 154,
        "2555": 230,
        "2556": 35,
        "2557": 174,
        "2558": 15,
        "2559": 66,
        "2560": 161,
        "2561": 229,
        "2562": 18,
        "2563": 229,
        "2564": 97,
        "2565": 192,
        "2566": 236,
        "2567": 90,
        "2568": 184,
        "2569": 189,
        "2570": 39,
        "2571": 203,
        "2572": 255,
        "2573": 122,
        "2574": 122,
        "2575": 180,
        "2576": 205,
        "2577": 209,
        "2578": 189,
        "2579": 63,
        "2580": 161,
        "2581": 208,
        "2582": 11,
        "2583": 201,
        "2584": 185,
        "2585": 235,
        "2586": 250,
        "2587": 233,
        "2588": 163,
        "2589": 208,
        "2590": 180,
        "2591": 58,
        "2592": 224,
        "2593": 43,
        "2594": 207,
        "2595": 255,
        "2596": 62,
        "2597": 70,
        "2598": 151,
        "2599": 192,
        "2600": 15,
        "2601": 151,
        "2602": 228,
        "2603": 179,
        "2604": 74,
        "2605": 139,
        "2606": 235,
        "2607": 139,
        "2608": 188,
        "2609": 93,
        "2610": 210,
        "2611": 39,
        "2612": 105,
        "2613": 159,
        "2614": 138,
        "2615": 233,
        "2616": 186,
        "2617": 79,
        "2618": 162,
        "2619": 26,
        "2620": 211,
        "2621": 79,
        "2622": 139,
        "2623": 162,
        "2624": 157,
        "2625": 226,
        "2626": 170,
        "2627": 175,
        "2628": 124,
        "2629": 22,
        "2630": 198,
        "2631": 144,
        "2632": 131,
        "2633": 165,
        "2634": 177,
        "2635": 254,
        "2636": 221,
        "2637": 147,
        "2638": 97,
        "2639": 71,
        "2640": 161,
        "2641": 193,
        "2642": 159,
        "2643": 137,
        "2644": 83,
        "2645": 128,
        "2646": 16,
        "2647": 141,
        "2648": 12,
        "2649": 195,
        "2650": 119,
        "2651": 150,
        "2652": 10,
        "2653": 15,
        "2654": 117,
        "2655": 181,
        "2656": 136,
        "2657": 42,
        "2658": 76,
        "2659": 230,
        "2660": 214,
        "2661": 129,
        "2662": 110,
        "2663": 242,
        "2664": 73,
        "2665": 209,
        "2666": 208,
        "2667": 123,
        "2668": 171,
        "2669": 72,
        "2670": 50,
        "2671": 35,
        "2672": 206,
        "2673": 23,
        "2674": 222,
        "2675": 120,
        "2676": 125,
        "2677": 148,
        "2678": 87,
        "2679": 207,
        "2680": 60,
        "2681": 173,
        "2682": 18,
        "2683": 238,
        "2684": 150,
        "2685": 41,
        "2686": 79,
        "2687": 113,
        "2688": 127,
        "2689": 170,
        "2690": 79,
        "2691": 216,
        "2692": 34,
        "2693": 200,
        "2694": 195,
        "2695": 243,
        "2696": 80,
        "2697": 233,
        "2698": 170,
        "2699": 230,
        "2700": 236,
        "2701": 209,
        "2702": 25,
        "2703": 65,
        "2704": 119,
        "2705": 192,
        "2706": 54,
        "2707": 85,
        "2708": 10,
        "2709": 15,
        "2710": 137,
        "2711": 95,
        "2712": 5,
        "2713": 131,
        "2714": 230,
        "2715": 208,
        "2716": 33,
        "2717": 247,
        "2718": 166,
        "2719": 233,
        "2720": 227,
        "2721": 33,
        "2722": 21,
        "2723": 220,
        "2724": 214,
        "2725": 220,
        "2726": 56,
        "2727": 78,
        "2728": 251,
        "2729": 211,
        "2730": 163,
        "2731": 228,
        "2732": 180,
        "2733": 252,
        "2734": 94,
        "2735": 226,
        "2736": 171,
        "2737": 242,
        "2738": 164,
        "2739": 58,
        "2740": 150,
        "2741": 46,
        "2742": 150,
        "2743": 144,
        "2744": 49,
        "2745": 11,
        "2746": 119,
        "2747": 164,
        "2748": 192,
        "2749": 67,
        "2750": 217,
        "2751": 211,
        "2752": 204,
        "2753": 119,
        "2754": 241,
        "2755": 85,
        "2756": 168,
        "2757": 37,
        "2758": 215,
        "2759": 122,
        "2760": 235,
        "2761": 220,
        "2762": 63,
        "2763": 132,
        "2764": 72,
        "2765": 111,
        "2766": 129,
        "2767": 56,
        "2768": 10,
        "2769": 64,
        "2770": 0,
        "2771": 27,
        "2772": 205,
        "2773": 213,
        "2774": 226,
        "2775": 193,
        "2776": 231,
        "2777": 104,
        "2778": 250,
        "2779": 139,
        "2780": 37,
        "2781": 59,
        "2782": 68,
        "2783": 114,
        "2784": 194,
        "2785": 140,
        "2786": 162,
        "2787": 1,
        "2788": 228,
        "2789": 65,
        "2790": 169,
        "2791": 119,
        "2792": 47,
        "2793": 164,
        "2794": 196,
        "2795": 62,
        "2796": 126,
        "2797": 120,
        "2798": 243,
        "2799": 96,
        "2800": 87,
        "2801": 112,
        "2802": 81,
        "2803": 158,
        "2804": 221,
        "2805": 143,
        "2806": 128,
        "2807": 180,
        "2808": 139,
        "2809": 116,
        "2810": 99,
        "2811": 156,
        "2812": 2,
        "2813": 90,
        "2814": 67,
        "2815": 99,
        "2816": 245,
        "2817": 48,
        "2818": 42,
        "2819": 18,
        "2820": 70,
        "2821": 180,
        "2822": 39,
        "2823": 224,
        "2824": 183,
        "2825": 195,
        "2826": 192,
        "2827": 144,
        "2828": 196,
        "2829": 101,
        "2830": 16,
        "2831": 209,
        "2832": 65,
        "2833": 54,
        "2834": 215,
        "2835": 181,
        "2836": 11,
        "2837": 148,
        "2838": 136,
        "2839": 26,
        "2840": 143,
        "2841": 146,
        "2842": 251,
        "2843": 154,
        "2844": 73,
        "2845": 246,
        "2846": 63,
        "2847": 164,
        "2848": 169,
        "2849": 250,
        "2850": 209,
        "2851": 223,
        "2852": 241,
        "2853": 234,
        "2854": 4,
        "2855": 234,
        "2856": 176,
        "2857": 255,
        "2858": 66,
        "2859": 239,
        "2860": 169,
        "2861": 184,
        "2862": 60,
        "2863": 171,
        "2864": 74,
        "2865": 172,
        "2866": 51,
        "2867": 29,
        "2868": 8,
        "2869": 93,
        "2870": 112,
        "2871": 166,
        "2872": 147,
        "2873": 253,
        "2874": 241,
        "2875": 67,
        "2876": 107,
        "2877": 38,
        "2878": 57,
        "2879": 156,
        "2880": 231,
        "2881": 77,
        "2882": 157,
        "2883": 155,
        "2884": 243,
        "2885": 152,
        "2886": 165,
        "2887": 197,
        "2888": 219,
        "2889": 130,
        "2890": 143,
        "2891": 24,
        "2892": 178,
        "2893": 113,
        "2894": 181,
        "2895": 152,
        "2896": 78,
        "2897": 210,
        "2898": 199,
        "2899": 91,
        "2900": 51,
        "2901": 103,
        "2902": 245,
        "2903": 6,
        "2904": 114,
        "2905": 9,
        "2906": 60,
        "2907": 123,
        "2908": 177,
        "2909": 242,
        "2910": 44,
        "2911": 129,
        "2912": 116,
        "2913": 55,
        "2914": 207,
        "2915": 162,
        "2916": 74,
        "2917": 98,
        "2918": 96,
        "2919": 186,
        "2920": 118,
        "2921": 233,
        "2922": 161,
        "2923": 225,
        "2924": 27,
        "2925": 109,
        "2926": 47,
        "2927": 239,
        "2928": 47,
        "2929": 105,
        "2930": 20,
        "2931": 71,
        "2932": 238,
        "2933": 226,
        "2934": 225,
        "2935": 151,
        "2936": 59,
        "2937": 134,
        "2938": 148,
        "2939": 56,
        "2940": 184,
        "2941": 155,
        "2942": 183,
        "2943": 71,
        "2944": 87,
        "2945": 200,
        "2946": 150,
        "2947": 145,
        "2948": 159,
        "2949": 46,
        "2950": 201,
        "2951": 64,
        "2952": 96,
        "2953": 233,
        "2954": 198,
        "2955": 28,
        "2956": 13,
        "2957": 241,
        "2958": 64,
        "2959": 1,
        "2960": 97,
        "2961": 41,
        "2962": 251,
        "2963": 227,
        "2964": 123,
        "2965": 59,
        "2966": 222,
        "2967": 36,
        "2968": 109,
        "2969": 30,
        "2970": 162,
        "2971": 228,
        "2972": 179,
        "2973": 65,
        "2974": 116,
        "2975": 102,
        "2976": 46,
        "2977": 123,
        "2978": 8,
        "2979": 183,
        "2980": 162,
        "2981": 26,
        "2982": 139,
        "2983": 23,
        "2984": 169,
        "2985": 156,
        "2986": 254,
        "2987": 27,
        "2988": 215,
        "2989": 250,
        "2990": 242,
        "2991": 248,
        "2992": 59,
        "2993": 105,
        "2994": 238,
        "2995": 196,
        "2996": 69,
        "2997": 70,
        "2998": 194,
        "2999": 236,
        "3000": 138,
        "3001": 183,
        "3002": 194,
        "3003": 109,
        "3004": 69,
        "3005": 114,
        "3006": 199,
        "3007": 183,
        "3008": 195,
        "3009": 198,
        "3010": 87,
        "3011": 188,
        "3012": 98,
        "3013": 128,
        "3014": 69,
        "3015": 249,
        "3016": 43,
        "3017": 22,
        "3018": 90,
        "3019": 13,
        "3020": 137,
        "3021": 219,
        "3022": 127,
        "3023": 86,
        "3024": 140,
        "3025": 7,
        "3026": 133,
        "3027": 146,
        "3028": 9,
        "3029": 171,
        "3030": 168,
        "3031": 33,
        "3032": 93,
        "3033": 92,
        "3034": 38,
        "3035": 216,
        "3036": 179,
        "3037": 132,
        "3038": 173,
        "3039": 94,
        "3040": 185,
        "3041": 230,
        "3042": 210,
        "3043": 25,
        "3044": 163,
        "3045": 12,
        "3046": 176,
        "3047": 89,
        "3048": 248,
        "3049": 49,
        "3050": 156,
        "3051": 153,
        "3052": 211,
        "3053": 106,
        "3054": 111,
        "3055": 143,
        "3056": 222,
        "3057": 247,
        "3058": 234,
        "3059": 182,
        "3060": 176,
        "3061": 205,
        "3062": 202,
        "3063": 21,
        "3064": 79,
        "3065": 30,
        "3066": 175,
        "3067": 220,
        "3068": 205,
        "3069": 93,
        "3070": 29,
        "3071": 149,
        "3072": 108,
        "3073": 117,
        "3074": 105,
        "3075": 145,
        "3076": 219,
        "3077": 219,
        "3078": 224,
        "3079": 183,
        "3080": 73,
        "3081": 196,
        "3082": 93,
        "3083": 134,
        "3084": 47,
        "3085": 56,
        "3086": 29,
        "3087": 133,
        "3088": 46,
        "3089": 41,
        "3090": 140,
        "3091": 150,
        "3092": 135,
        "3093": 86,
        "3094": 84,
        "3095": 129,
        "3096": 167,
        "3097": 161,
        "3098": 97,
        "3099": 189,
        "3100": 177,
        "3101": 24,
        "3102": 108,
        "3103": 119,
        "3104": 135,
        "3105": 53,
        "3106": 167,
        "3107": 237,
        "3108": 192,
        "3109": 150,
        "3110": 158,
        "3111": 231,
        "3112": 186,
        "3113": 195,
        "3114": 86,
        "3115": 216,
        "3116": 92,
        "3117": 137,
        "3118": 57,
        "3119": 238,
        "3120": 163,
        "3121": 103,
        "3122": 147,
        "3123": 235,
        "3124": 148,
        "3125": 189,
        "3126": 178,
        "3127": 180,
        "3128": 62,
        "3129": 169,
        "3130": 73,
        "3131": 13,
        "3132": 234,
        "3133": 226,
        "3134": 106,
        "3135": 67,
        "3136": 44,
        "3137": 144,
        "3138": 110,
        "3139": 175,
        "3140": 109,
        "3141": 74,
        "3142": 167,
        "3143": 102,
        "3144": 171,
        "3145": 53,
        "3146": 222,
        "3147": 57,
        "3148": 174,
        "3149": 64,
        "3150": 116,
        "3151": 42,
        "3152": 147,
        "3153": 35,
        "3154": 220,
        "3155": 36,
        "3156": 71,
        "3157": 204,
        "3158": 6,
        "3159": 131,
        "3160": 165,
        "3161": 12,
        "3162": 145,
        "3163": 143,
        "3164": 128,
        "3165": 122,
        "3166": 61,
        "3167": 170,
        "3168": 119,
        "3169": 92,
        "3170": 61,
        "3171": 158,
        "3172": 76,
        "3173": 17,
        "3174": 252,
        "3175": 12,
        "3176": 150,
        "3177": 150,
        "3178": 73,
        "3179": 87,
        "3180": 134,
        "3181": 98,
        "3182": 88,
        "3183": 151,
        "3184": 208,
        "3185": 220,
        "3186": 132,
        "3187": 116,
        "3188": 13,
        "3189": 105,
        "3190": 20,
        "3191": 150,
        "3192": 2,
        "3193": 87,
        "3194": 126,
        "3195": 69,
        "3196": 240,
        "3197": 217,
        "3198": 194,
        "3199": 53,
        "3200": 98,
        "3201": 140,
        "3202": 14,
        "3203": 130,
        "3204": 91,
        "3205": 118,
        "3206": 98,
        "3207": 103,
        "3208": 170,
        "3209": 26,
        "3210": 105,
        "3211": 78,
        "3212": 218,
        "3213": 81,
        "3214": 3,
        "3215": 139,
        "3216": 160,
        "3217": 78,
        "3218": 82,
        "3219": 76,
        "3220": 213,
        "3221": 241,
        "3222": 133,
        "3223": 146,
        "3224": 55,
        "3225": 137,
        "3226": 235,
        "3227": 102,
        "3228": 97,
        "3229": 67,
        "3230": 166,
        "3231": 56,
        "3232": 118,
        "3233": 55,
        "3234": 160,
        "3235": 110,
        "3236": 148,
        "3237": 231,
        "3238": 72,
        "3239": 164,
        "3240": 185,
        "3241": 92,
        "3242": 29,
        "3243": 153,
        "3244": 141,
        "3245": 135,
        "3246": 244,
        "3247": 19,
        "3248": 206,
        "3249": 126,
        "3250": 147,
        "3251": 148,
        "3252": 56,
        "3253": 21,
        "3254": 102,
        "3255": 27,
        "3256": 52,
        "3257": 66,
        "3258": 226,
        "3259": 103,
        "3260": 31,
        "3261": 184,
        "3262": 64,
        "3263": 155,
        "3264": 185,
        "3265": 93,
        "3266": 140,
        "3267": 233,
        "3268": 19,
        "3269": 109,
        "3270": 31,
        "3271": 7,
        "3272": 230,
        "3273": 64,
        "3274": 156,
        "3275": 29,
        "3276": 245,
        "3277": 65,
        "3278": 169,
        "3279": 130,
        "3280": 136,
        "3281": 146,
        "3282": 61,
        "3283": 238,
        "3284": 109,
        "3285": 60,
        "3286": 91,
        "3287": 27,
        "3288": 54,
        "3289": 234,
        "3290": 43,
        "3291": 95,
        "3292": 128,
        "3293": 65,
        "3294": 137,
        "3295": 73,
        "3296": 240,
        "3297": 208,
        "3298": 86,
        "3299": 118,
        "3300": 79,
        "3301": 29,
        "3302": 62,
        "3303": 15,
        "3304": 174,
        "3305": 168,
        "3306": 44,
        "3307": 47,
        "3308": 217,
        "3309": 164,
        "3310": 85,
        "3311": 111,
        "3312": 186,
        "3313": 247,
        "3314": 238,
        "3315": 38,
        "3316": 251,
        "3317": 242,
        "3318": 176,
        "3319": 185,
        "3320": 172,
        "3321": 171,
        "3322": 192,
        "3323": 202,
        "3324": 193,
        "3325": 2,
        "3326": 80,
        "3327": 146,
        "3328": 240,
        "3329": 147,
        "3330": 54,
        "3331": 96,
        "3332": 108,
        "3333": 245,
        "3334": 71,
        "3335": 123,
        "3336": 116,
        "3337": 68,
        "3338": 147,
        "3339": 21,
        "3340": 203,
        "3341": 18,
        "3342": 66,
        "3343": 46,
        "3344": 176,
        "3345": 65,
        "3346": 128,
        "3347": 39,
        "3348": 59,
        "3349": 49,
        "3350": 153,
        "3351": 11,
        "3352": 173,
        "3353": 24,
        "3354": 43,
        "3355": 159,
        "3356": 236,
        "3357": 77,
        "3358": 153,
        "3359": 166,
        "3360": 111,
        "3361": 66,
        "3362": 220,
        "3363": 28,
        "3364": 188,
        "3365": 200,
        "3366": 253,
        "3367": 81,
        "3368": 57,
        "3369": 205,
        "3370": 103,
        "3371": 214,
        "3372": 236,
        "3373": 124,
        "3374": 53,
        "3375": 87,
        "3376": 182,
        "3377": 97,
        "3378": 42,
        "3379": 184,
        "3380": 169,
        "3381": 120,
        "3382": 66,
        "3383": 33,
        "3384": 80,
        "3385": 86,
        "3386": 186,
        "3387": 42,
        "3388": 28,
        "3389": 125,
        "3390": 158,
        "3391": 191,
        "3392": 170,
        "3393": 222,
        "3394": 109,
        "3395": 122,
        "3396": 158,
        "3397": 217,
        "3398": 215,
        "3399": 132,
        "3400": 51,
        "3401": 112,
        "3402": 213,
        "3403": 113,
        "3404": 115,
        "3405": 237,
        "3406": 232,
        "3407": 119,
        "3408": 206,
        "3409": 118,
        "3410": 189,
        "3411": 178,
        "3412": 163,
        "3413": 206,
        "3414": 18,
        "3415": 212,
        "3416": 0,
        "3417": 233,
        "3418": 145,
        "3419": 250,
        "3420": 33,
        "3421": 240,
        "3422": 53,
        "3423": 61,
        "3424": 122,
        "3425": 101,
        "3426": 188,
        "3427": 184,
        "3428": 173,
        "3429": 220,
        "3430": 199,
        "3431": 163,
        "3432": 240,
        "3433": 169,
        "3434": 94,
        "3435": 180,
        "3436": 99,
        "3437": 10,
        "3438": 216,
        "3439": 28,
        "3440": 61,
        "3441": 38,
        "3442": 112,
        "3443": 148,
        "3444": 0,
        "3445": 6,
        "3446": 87,
        "3447": 113,
        "3448": 59,
        "3449": 188,
        "3450": 150,
        "3451": 61,
        "3452": 31,
        "3453": 80,
        "3454": 109,
        "3455": 226,
        "3456": 197,
        "3457": 11,
        "3458": 114,
        "3459": 225,
        "3460": 167,
        "3461": 244,
        "3462": 206,
        "3463": 81,
        "3464": 154,
        "3465": 187,
        "3466": 212,
        "3467": 149,
        "3468": 87,
        "3469": 228,
        "3470": 149,
        "3471": 207,
        "3472": 125,
        "3473": 129,
        "3474": 161,
        "3475": 38,
        "3476": 68,
        "3477": 126,
        "3478": 35,
        "3479": 165,
        "3480": 224,
        "3481": 248,
        "3482": 48,
        "3483": 38,
        "3484": 104,
        "3485": 251,
        "3486": 195,
        "3487": 195,
        "3488": 31,
        "3489": 249,
        "3490": 202,
        "3491": 193,
        "3492": 199,
        "3493": 162,
        "3494": 221,
        "3495": 65,
        "3496": 30,
        "3497": 135,
        "3498": 179,
        "3499": 165,
        "3500": 188,
        "3501": 172,
        "3502": 227,
        "3503": 181,
        "3504": 196,
        "3505": 11,
        "3506": 92,
        "3507": 22,
        "3508": 200,
        "3509": 154,
        "3510": 200,
        "3511": 232,
        "3512": 254,
        "3513": 199,
        "3514": 240,
        "3515": 51,
        "3516": 109,
        "3517": 194,
        "3518": 96,
        "3519": 158,
        "3520": 206,
        "3521": 203,
        "3522": 241,
        "3523": 21,
        "3524": 7,
        "3525": 252,
        "3526": 68,
        "3527": 241,
        "3528": 169,
        "3529": 109,
        "3530": 143,
        "3531": 74,
        "3532": 158,
        "3533": 187,
        "3534": 134,
        "3535": 27,
        "3536": 243,
        "3537": 32,
        "3538": 124,
        "3539": 16,
        "3540": 133,
        "3541": 168,
        "3542": 18,
        "3543": 151,
        "3544": 158,
        "3545": 166,
        "3546": 225,
        "3547": 230,
        "3548": 158,
        "3549": 55,
        "3550": 239,
        "3551": 252,
        "3552": 44,
        "3553": 159,
        "3554": 219,
        "3555": 115,
        "3556": 204,
        "3557": 246,
        "3558": 34,
        "3559": 170,
        "3560": 126,
        "3561": 124,
        "3562": 242,
        "3563": 146,
        "3564": 56,
        "3565": 149,
        "3566": 56,
        "3567": 218,
        "3568": 240,
        "3569": 174,
        "3570": 242,
        "3571": 162,
        "3572": 130,
        "3573": 179,
        "3574": 103,
        "3575": 67,
        "3576": 238,
        "3577": 164,
        "3578": 136,
        "3579": 93,
        "3580": 209,
        "3581": 109,
        "3582": 39,
        "3583": 117,
        "3584": 130,
        "3585": 134,
        "3586": 196,
        "3587": 137,
        "3588": 84,
        "3589": 199,
        "3590": 207,
        "3591": 218,
        "3592": 102,
        "3593": 71,
        "3594": 170,
        "3595": 5,
        "3596": 163,
        "3597": 122,
        "3598": 210,
        "3599": 193,
        "3600": 28,
        "3601": 47,
        "3602": 247,
        "3603": 144,
        "3604": 250,
        "3605": 214,
        "3606": 177,
        "3607": 159,
        "3608": 116,
        "3609": 162,
        "3610": 21,
        "3611": 110,
        "3612": 154,
        "3613": 166,
        "3614": 27,
        "3615": 104,
        "3616": 106,
        "3617": 5,
        "3618": 71,
        "3619": 148,
        "3620": 14,
        "3621": 244,
        "3622": 52,
        "3623": 106,
        "3624": 152,
        "3625": 23,
        "3626": 194,
        "3627": 123,
        "3628": 92,
        "3629": 59,
        "3630": 187,
        "3631": 153,
        "3632": 1,
        "3633": 246,
        "3634": 67,
        "3635": 199,
        "3636": 206,
        "3637": 212,
        "3638": 3,
        "3639": 222,
        "3640": 33,
        "3641": 217,
        "3642": 12,
        "3643": 63,
        "3644": 221,
        "3645": 130,
        "3646": 182,
        "3647": 82,
        "3648": 53,
        "3649": 63,
        "3650": 89,
        "3651": 191,
        "3652": 193,
        "3653": 233,
        "3654": 222,
        "3655": 234,
        "3656": 248,
        "3657": 86,
        "3658": 13,
        "3659": 106,
        "3660": 110,
        "3661": 222,
        "3662": 226,
        "3663": 129,
        "3664": 202,
        "3665": 234,
        "3666": 0,
        "3667": 211,
        "3668": 104,
        "3669": 176,
        "3670": 114,
        "3671": 252,
        "3672": 125,
        "3673": 202,
        "3674": 214,
        "3675": 221,
        "3676": 45,
        "3677": 217,
        "3678": 204,
        "3679": 158,
        "3680": 140,
        "3681": 200,
        "3682": 10,
        "3683": 28,
        "3684": 16,
        "3685": 249,
        "3686": 42,
        "3687": 20,
        "3688": 154,
        "3689": 169,
        "3690": 20,
        "3691": 113,
        "3692": 14,
        "3693": 250,
        "3694": 30,
        "3695": 252,
        "3696": 119,
        "3697": 67,
        "3698": 206,
        "3699": 21,
        "3700": 136,
        "3701": 127,
        "3702": 128,
        "3703": 125,
        "3704": 3,
        "3705": 97,
        "3706": 128,
        "3707": 171,
        "3708": 235,
        "3709": 91,
        "3710": 2,
        "3711": 185,
        "3712": 45,
        "3713": 159,
        "3714": 126,
        "3715": 223,
        "3716": 50,
        "3717": 148,
        "3718": 198,
        "3719": 35,
        "3720": 168,
        "3721": 112,
        "3722": 53,
        "3723": 62,
        "3724": 3,
        "3725": 57,
        "3726": 119,
        "3727": 247,
        "3728": 66,
        "3729": 13,
        "3730": 45,
        "3731": 96,
        "3732": 150,
        "3733": 254,
        "3734": 160,
        "3735": 189,
        "3736": 194,
        "3737": 255,
        "3738": 251,
        "3739": 80,
        "3740": 237,
        "3741": 102,
        "3742": 34,
        "3743": 47,
        "3744": 217,
        "3745": 221,
        "3746": 226,
        "3747": 100,
        "3748": 13,
        "3749": 224,
        "3750": 158,
        "3751": 28,
        "3752": 5,
        "3753": 74,
        "3754": 175,
        "3755": 6,
        "3756": 196,
        "3757": 149,
        "3758": 14,
        "3759": 18,
        "3760": 211,
        "3761": 22,
        "3762": 199,
        "3763": 108,
        "3764": 43,
        "3765": 216,
        "3766": 105,
        "3767": 243,
        "3768": 157,
        "3769": 234,
        "3770": 3,
        "3771": 85,
        "3772": 53,
        "3773": 168,
        "3774": 134,
        "3775": 211,
        "3776": 168,
        "3777": 193,
        "3778": 19,
        "3779": 229,
        "3780": 238,
        "3781": 193,
        "3782": 62,
        "3783": 181,
        "3784": 86,
        "3785": 101,
        "3786": 151,
        "3787": 59,
        "3788": 102,
        "3789": 59,
        "3790": 135,
        "3791": 129,
        "3792": 56,
        "3793": 118,
        "3794": 15,
        "3795": 116,
        "3796": 100,
        "3797": 61,
        "3798": 180,
        "3799": 187,
        "3800": 42,
        "3801": 200,
        "3802": 188,
        "3803": 201,
        "3804": 187,
        "3805": 69,
        "3806": 34,
        "3807": 54,
        "3808": 161,
        "3809": 48,
        "3810": 117,
        "3811": 88,
        "3812": 105,
        "3813": 65,
        "3814": 56,
        "3815": 168,
        "3816": 188,
        "3817": 198,
        "3818": 216,
        "3819": 64,
        "3820": 57,
        "3821": 13,
        "3822": 197,
        "3823": 65,
        "3824": 226,
        "3825": 63,
        "3826": 183,
        "3827": 141,
        "3828": 44,
        "3829": 194,
        "3830": 113,
        "3831": 225,
        "3832": 163,
        "3833": 223,
        "3834": 36,
        "3835": 235,
        "3836": 242,
        "3837": 205,
        "3838": 90,
        "3839": 31,
        "3840": 126,
        "3841": 185,
        "3842": 86,
        "3843": 55,
        "3844": 141,
        "3845": 196,
        "3846": 47,
        "3847": 190,
        "3848": 164,
        "3849": 255,
        "3850": 249,
        "3851": 57,
        "3852": 36,
        "3853": 60,
        "3854": 217,
        "3855": 132,
        "3856": 149,
        "3857": 45,
        "3858": 171,
        "3859": 64,
        "3860": 18,
        "3861": 155,
        "3862": 151,
        "3863": 213,
        "3864": 150,
        "3865": 93,
        "3866": 56,
        "3867": 144,
        "3868": 73,
        "3869": 249,
        "3870": 248,
        "3871": 130,
        "3872": 53,
        "3873": 106,
        "3874": 160,
        "3875": 77,
        "3876": 39,
        "3877": 75,
        "3878": 173,
        "3879": 216,
        "3880": 125,
        "3881": 51,
        "3882": 205,
        "3883": 8,
        "3884": 46,
        "3885": 192,
        "3886": 182,
        "3887": 248,
        "3888": 66,
        "3889": 118,
        "3890": 62,
        "3891": 247,
        "3892": 158,
        "3893": 125,
        "3894": 160,
        "3895": 52,
        "3896": 96,
        "3897": 181,
        "3898": 216,
        "3899": 50,
        "3900": 104,
        "3901": 207,
        "3902": 242,
        "3903": 114,
        "3904": 40,
        "3905": 211,
        "3906": 103,
        "3907": 136,
        "3908": 105,
        "3909": 172,
        "3910": 196,
        "3911": 199,
        "3912": 2,
        "3913": 145,
        "3914": 39,
        "3915": 45,
        "3916": 206,
        "3917": 250,
        "3918": 185,
        "3919": 147,
        "3920": 6,
        "3921": 185,
        "3922": 115,
        "3923": 31,
        "3924": 236,
        "3925": 18,
        "3926": 152,
        "3927": 98,
        "3928": 193,
        "3929": 28,
        "3930": 66,
        "3931": 123,
        "3932": 241,
        "3933": 122,
        "3934": 50,
        "3935": 51,
        "3936": 152,
        "3937": 123,
        "3938": 46,
        "3939": 71,
        "3940": 98,
        "3941": 5,
        "3942": 137,
        "3943": 233,
        "3944": 32,
        "3945": 59,
        "3946": 53,
        "3947": 37,
        "3948": 9,
        "3949": 48,
        "3950": 17,
        "3951": 188,
        "3952": 153,
        "3953": 4,
        "3954": 234,
        "3955": 230,
        "3956": 104,
        "3957": 70,
        "3958": 118,
        "3959": 205,
        "3960": 147,
        "3961": 180,
        "3962": 248,
        "3963": 19,
        "3964": 126,
        "3965": 198,
        "3966": 164,
        "3967": 50,
        "3968": 152,
        "3969": 104,
        "3970": 250,
        "3971": 84,
        "3972": 157,
        "3973": 100,
        "3974": 168,
        "3975": 0,
        "3976": 191,
        "3977": 136,
        "3978": 37,
        "3979": 207,
        "3980": 133,
        "3981": 190,
        "3982": 143,
        "3983": 145,
        "3984": 130,
        "3985": 194,
        "3986": 247,
        "3987": 102,
        "3988": 13,
        "3989": 129,
        "3990": 45,
        "3991": 44,
        "3992": 173,
        "3993": 4,
        "3994": 214,
        "3995": 195,
        "3996": 121,
        "3997": 243,
        "3998": 210,
        "3999": 137,
        "4000": 14,
        "4001": 52,
        "4002": 139,
        "4003": 115,
        "4004": 19,
        "4005": 173,
        "4006": 224,
        "4007": 221,
        "4008": 58,
        "4009": 206,
        "4010": 205,
        "4011": 178,
        "4012": 109,
        "4013": 94,
        "4014": 129,
        "4015": 12,
        "4016": 219,
        "4017": 28,
        "4018": 27,
        "4019": 79,
        "4020": 241,
        "4021": 218,
        "4022": 184,
        "4023": 62,
        "4024": 15,
        "4025": 246,
        "4026": 13,
        "4027": 214,
        "4028": 0,
        "4029": 231,
        "4030": 147,
        "4031": 233,
        "4032": 74,
        "4033": 35,
        "4034": 189,
        "4035": 40,
        "4036": 5,
        "4037": 205,
        "4038": 31,
        "4039": 123,
        "4040": 57,
        "4041": 45,
        "4042": 62,
        "4043": 19,
        "4044": 147,
        "4045": 65,
        "4046": 29,
        "4047": 77,
        "4048": 6,
        "4049": 119,
        "4050": 1,
        "4051": 25,
        "4052": 138,
        "4053": 63,
        "4054": 2,
        "4055": 96,
        "4056": 178,
        "4057": 49,
        "4058": 178,
        "4059": 120,
        "4060": 75,
        "4061": 57,
        "4062": 76,
        "4063": 136,
        "4064": 176,
        "4065": 184,
        "4066": 196,
        "4067": 214,
        "4068": 23,
        "4069": 6,
        "4070": 201,
        "4071": 178,
        "4072": 120,
        "4073": 87,
        "4074": 194,
        "4075": 212,
        "4076": 146,
        "4077": 52,
        "4078": 102,
        "4079": 252,
        "4080": 165,
        "4081": 207,
        "4082": 8,
        "4083": 17,
        "4084": 176,
        "4085": 24,
        "4086": 31,
        "4087": 198,
        "4088": 118,
        "4089": 116,
        "4090": 145,
        "4091": 246,
        "4092": 86,
        "4093": 228,
        "4094": 183,
        "4095": 207,
        "4096": 7,
        "4097": 97,
        "4098": 252,
        "4099": 16,
        "4100": 245,
        "4101": 2,
        "4102": 178,
        "4103": 174,
        "4104": 8,
        "4105": 190,
        "4106": 16,
        "4107": 80,
        "4108": 89,
        "4109": 183,
        "4110": 69,
        "4111": 123,
        "4112": 41,
        "4113": 140,
        "4114": 54,
        "4115": 37,
        "4116": 52,
        "4117": 100,
        "4118": 0,
        "4119": 238,
        "4120": 204,
        "4121": 216,
        "4122": 171,
        "4123": 234,
        "4124": 108,
        "4125": 48,
        "4126": 213,
        "4127": 133,
        "4128": 251,
        "4129": 96,
        "4130": 20,
        "4131": 23,
        "4132": 243,
        "4133": 187,
        "4134": 249,
        "4135": 176,
        "4136": 143,
        "4137": 159,
        "4138": 66,
        "4139": 34,
        "4140": 198,
        "4141": 199,
        "4142": 142,
        "4143": 87,
        "4144": 90,
        "4145": 207,
        "4146": 22,
        "4147": 1,
        "4148": 32,
        "4149": 71,
        "4150": 180,
        "4151": 80,
        "4152": 132,
        "4153": 87,
        "4154": 208,
        "4155": 214,
        "4156": 55,
        "4157": 234,
        "4158": 215,
        "4159": 240,
        "4160": 215,
        "4161": 82,
        "4162": 27,
        "4163": 31,
        "4164": 216,
        "4165": 32,
        "4166": 83,
        "4167": 52,
        "4168": 178,
        "4169": 233,
        "4170": 191,
        "4171": 16,
        "4172": 84,
        "4173": 139,
        "4174": 163,
        "4175": 172,
        "4176": 11,
        "4177": 23,
        "4178": 243,
        "4179": 58,
        "4180": 234,
        "4181": 188,
        "4182": 255,
        "4183": 205,
        "4184": 68,
        "4185": 240,
        "4186": 244,
        "4187": 208,
        "4188": 144,
        "4189": 4,
        "4190": 116,
        "4191": 72,
        "4192": 126,
        "4193": 224,
        "4194": 218,
        "4195": 198,
        "4196": 58,
        "4197": 77,
        "4198": 164,
        "4199": 83,
        "4200": 152,
        "4201": 213,
        "4202": 58,
        "4203": 51,
        "4204": 180,
        "4205": 111,
        "4206": 195,
        "4207": 200,
        "4208": 106,
        "4209": 230,
        "4210": 140,
        "4211": 61,
        "4212": 158,
        "4213": 5,
        "4214": 2,
        "4215": 183,
        "4216": 17,
        "4217": 222,
        "4218": 111,
        "4219": 124,
        "4220": 211,
        "4221": 212,
        "4222": 84,
        "4223": 131,
        "4224": 118,
        "4225": 224,
        "4226": 156,
        "4227": 220,
        "4228": 5,
        "4229": 94,
        "4230": 150,
        "4231": 227,
        "4232": 178,
        "4233": 90,
        "4234": 173,
        "4235": 44,
        "4236": 134,
        "4237": 151,
        "4238": 166,
        "4239": 74,
        "4240": 27,
        "4241": 242,
        "4242": 70,
        "4243": 102,
        "4244": 157,
        "4245": 137,
        "4246": 162,
        "4247": 127,
        "4248": 31,
        "4249": 43,
        "4250": 73,
        "4251": 223,
        "4252": 66,
        "4253": 203,
        "4254": 25,
        "4255": 154,
        "4256": 243,
        "4257": 50,
        "4258": 237,
        "4259": 130,
        "4260": 170,
        "4261": 67,
        "4262": 2,
        "4263": 141,
        "4264": 132,
        "4265": 41,
        "4266": 230,
        "4267": 106,
        "4268": 43,
        "4269": 28,
        "4270": 9,
        "4271": 114,
        "4272": 23,
        "4273": 144,
        "4274": 121,
        "4275": 116,
        "4276": 224,
        "4277": 57,
        "4278": 52,
        "4279": 123,
        "4280": 217,
        "4281": 142,
        "4282": 20,
        "4283": 18,
        "4284": 54,
        "4285": 123,
        "4286": 198,
        "4287": 66,
        "4288": 213,
        "4289": 224,
        "4290": 108,
        "4291": 125,
        "4292": 247,
        "4293": 141,
        "4294": 193,
        "4295": 212,
        "4296": 205,
        "4297": 43,
        "4298": 27,
        "4299": 241,
        "4300": 93,
        "4301": 197,
        "4302": 100,
        "4303": 75,
        "4304": 131,
        "4305": 42,
        "4306": 143,
        "4307": 222,
        "4308": 158,
        "4309": 24,
        "4310": 70,
        "4311": 122,
        "4312": 96,
        "4313": 234,
        "4314": 157,
        "4315": 167,
        "4316": 156,
        "4317": 42,
        "4318": 42,
        "4319": 162,
        "4320": 243,
        "4321": 110,
        "4322": 221,
        "4323": 179,
        "4324": 24,
        "4325": 134,
        "4326": 88,
        "4327": 243,
        "4328": 3,
        "4329": 186,
        "4330": 244,
        "4331": 183,
        "4332": 32,
        "4333": 200,
        "4334": 227,
        "4335": 198,
        "4336": 177,
        "4337": 251,
        "4338": 232,
        "4339": 70,
        "4340": 51,
        "4341": 228,
        "4342": 167,
        "4343": 44,
        "4344": 55,
        "4345": 27,
        "4346": 138,
        "4347": 125,
        "4348": 132,
        "4349": 157,
        "4350": 115,
        "4351": 124,
        "4352": 13,
        "4353": 69,
        "4354": 71,
        "4355": 50,
        "4356": 190,
        "4357": 82,
        "4358": 51,
        "4359": 26,
        "4360": 207,
        "4361": 56,
        "4362": 37,
        "4363": 197,
        "4364": 48,
        "4365": 198,
        "4366": 50,
        "4367": 73,
        "4368": 237,
        "4369": 250,
        "4370": 8,
        "4371": 162,
        "4372": 78,
        "4373": 198,
        "4374": 191,
        "4375": 91,
        "4376": 158,
        "4377": 218,
        "4378": 224,
        "4379": 91,
        "4380": 237,
        "4381": 113,
        "4382": 106,
        "4383": 212,
        "4384": 207,
        "4385": 253,
        "4386": 107,
        "4387": 105,
        "4388": 117,
        "4389": 153,
        "4390": 160,
        "4391": 109,
        "4392": 193,
        "4393": 17,
        "4394": 77,
        "4395": 108,
        "4396": 5,
        "4397": 9,
        "4398": 241,
        "4399": 150,
        "4400": 81,
        "4401": 52,
        "4402": 12,
        "4403": 216,
        "4404": 147,
        "4405": 153,
        "4406": 11,
        "4407": 29,
        "4408": 131,
        "4409": 236,
        "4410": 54,
        "4411": 144,
        "4412": 68,
        "4413": 217,
        "4414": 24,
        "4415": 43,
        "4416": 56,
        "4417": 29,
        "4418": 196,
        "4419": 112,
        "4420": 142,
        "4421": 40,
        "4422": 126,
        "4423": 176,
        "4424": 199,
        "4425": 86,
        "4426": 164,
        "4427": 81,
        "4428": 212,
        "4429": 120,
        "4430": 83,
        "4431": 184,
        "4432": 177,
        "4433": 197,
        "4434": 19,
        "4435": 95,
        "4436": 207,
        "4437": 184,
        "4438": 252,
        "4439": 178,
        "4440": 181,
        "4441": 71,
        "4442": 38,
        "4443": 232,
        "4444": 116,
        "4445": 197,
        "4446": 155,
        "4447": 44,
        "4448": 40,
        "4449": 71,
        "4450": 40,
        "4451": 234,
        "4452": 131,
        "4453": 59,
        "4454": 148,
        "4455": 251,
        "4456": 226,
        "4457": 235,
        "4458": 238,
        "4459": 159,
        "4460": 144,
        "4461": 9,
        "4462": 102,
        "4463": 58,
        "4464": 87,
        "4465": 93,
        "4466": 8,
        "4467": 189,
        "4468": 34,
        "4469": 149,
        "4470": 8,
        "4471": 221,
        "4472": 62,
        "4473": 86,
        "4474": 187,
        "4475": 210,
        "4476": 214,
        "4477": 92,
        "4478": 20,
        "4479": 54,
        "4480": 143,
        "4481": 224,
        "4482": 159,
        "4483": 73,
        "4484": 126,
        "4485": 118,
        "4486": 89,
        "4487": 46,
        "4488": 173,
        "4489": 218,
        "4490": 222,
        "4491": 107,
        "4492": 207,
        "4493": 252,
        "4494": 4,
        "4495": 155,
        "4496": 244,
        "4497": 68,
        "4498": 109,
        "4499": 122,
        "4500": 116,
        "4501": 41,
        "4502": 75,
        "4503": 234,
        "4504": 18,
        "4505": 71,
        "4506": 88,
        "4507": 36,
        "4508": 55,
        "4509": 144,
        "4510": 140,
        "4511": 94,
        "4512": 3,
        "4513": 196,
        "4514": 251,
        "4515": 251,
        "4516": 149,
        "4517": 99,
        "4518": 188,
        "4519": 127,
        "4520": 201,
        "4521": 146,
        "4522": 188,
        "4523": 168,
        "4524": 104,
        "4525": 49,
        "4526": 128,
        "4527": 182,
        "4528": 233,
        "4529": 246,
        "4530": 121,
        "4531": 227,
        "4532": 183,
        "4533": 235,
        "4534": 224,
        "4535": 132,
        "4536": 52,
        "4537": 154,
        "4538": 62,
        "4539": 143,
        "4540": 61,
        "4541": 155,
        "4542": 82,
        "4543": 5,
        "4544": 53,
        "4545": 129,
        "4546": 120,
        "4547": 66,
        "4548": 142,
        "4549": 174,
        "4550": 86,
        "4551": 73,
        "4552": 169,
        "4553": 47,
        "4554": 239,
        "4555": 39,
        "4556": 205,
        "4557": 145,
        "4558": 104,
        "4559": 77,
        "4560": 83,
        "4561": 83,
        "4562": 156,
        "4563": 166,
        "4564": 255,
        "4565": 84,
        "4566": 40,
        "4567": 146,
        "4568": 87,
        "4569": 162,
        "4570": 162,
        "4571": 55,
        "4572": 132,
        "4573": 158,
        "4574": 155,
        "4575": 212,
        "4576": 251,
        "4577": 176,
        "4578": 64,
        "4579": 173,
        "4580": 251,
        "4581": 156,
        "4582": 228,
        "4583": 253,
        "4584": 196,
        "4585": 56,
        "4586": 234,
        "4587": 17,
        "4588": 222,
        "4589": 162,
        "4590": 169,
        "4591": 154,
        "4592": 44,
        "4593": 109,
        "4594": 35,
        "4595": 174,
        "4596": 62,
        "4597": 111,
        "4598": 159,
        "4599": 162,
        "4600": 148,
        "4601": 115,
        "4602": 41,
        "4603": 34,
        "4604": 158,
        "4605": 151,
        "4606": 145,
        "4607": 57,
        "4608": 230,
        "4609": 54,
        "4610": 14,
        "4611": 33,
        "4612": 157,
        "4613": 173,
        "4614": 90,
        "4615": 223,
        "4616": 251,
        "4617": 225,
        "4618": 150,
        "4619": 9,
        "4620": 71,
        "4621": 151,
        "4622": 50,
        "4623": 138,
        "4624": 19,
        "4625": 165,
        "4626": 134,
        "4627": 220,
        "4628": 26,
        "4629": 191,
        "4630": 226,
        "4631": 15,
        "4632": 141,
        "4633": 51,
        "4634": 62,
        "4635": 158,
        "4636": 16,
        "4637": 228,
        "4638": 204,
        "4639": 7,
        "4640": 87,
        "4641": 12,
        "4642": 216,
        "4643": 1,
        "4644": 221,
        "4645": 230,
        "4646": 159,
        "4647": 35,
        "4648": 73,
        "4649": 165,
        "4650": 118,
        "4651": 24,
        "4652": 196,
        "4653": 6,
        "4654": 16,
        "4655": 218,
        "4656": 70,
        "4657": 187,
        "4658": 148,
        "4659": 193,
        "4660": 39,
        "4661": 253,
        "4662": 69,
        "4663": 137,
        "4664": 255,
        "4665": 141,
        "4666": 142,
        "4667": 66,
        "4668": 107,
        "4669": 81,
        "4670": 155,
        "4671": 5,
        "4672": 22,
        "4673": 0,
        "4674": 153,
        "4675": 86,
        "4676": 98,
        "4677": 122,
        "4678": 153,
        "4679": 150,
        "4680": 130,
        "4681": 239,
        "4682": 37,
        "4683": 0,
        "4684": 242,
        "4685": 133,
        "4686": 1,
        "4687": 3,
        "4688": 175,
        "4689": 183,
        "4690": 57,
        "4691": 243,
        "4692": 62,
        "4693": 21,
        "4694": 181,
        "4695": 21,
        "4696": 251,
        "4697": 204,
        "4698": 198,
        "4699": 195,
        "4700": 198,
        "4701": 10,
        "4702": 138,
        "4703": 47,
        "4704": 232,
        "4705": 239,
        "4706": 76,
        "4707": 144,
        "4708": 155,
        "4709": 226,
        "4710": 176,
        "4711": 226,
        "4712": 66,
        "4713": 164,
        "4714": 233,
        "4715": 65,
        "4716": 166,
        "4717": 46,
        "4718": 94,
        "4719": 65,
        "4720": 16,
        "4721": 33,
        "4722": 60,
        "4723": 179,
        "4724": 109,
        "4725": 186,
        "4726": 159,
        "4727": 200,
        "4728": 71,
        "4729": 81,
        "4730": 120,
        "4731": 159,
        "4732": 138,
        "4733": 134,
        "4734": 184,
        "4735": 224,
        "4736": 144,
        "4737": 162,
        "4738": 177,
        "4739": 146,
        "4740": 195,
        "4741": 48,
        "4742": 218,
        "4743": 183,
        "4744": 231,
        "4745": 149,
        "4746": 227,
        "4747": 146,
        "4748": 36,
        "4749": 92,
        "4750": 221,
        "4751": 132,
        "4752": 248,
        "4753": 246,
        "4754": 74,
        "4755": 77,
        "4756": 73,
        "4757": 223,
        "4758": 28,
        "4759": 92,
        "4760": 96,
        "4761": 121,
        "4762": 4,
        "4763": 244,
        "4764": 195,
        "4765": 36,
        "4766": 142,
        "4767": 57,
        "4768": 51,
        "4769": 59,
        "4770": 123,
        "4771": 122,
        "4772": 192,
        "4773": 229,
        "4774": 21,
        "4775": 78,
        "4776": 43,
        "4777": 80,
        "4778": 120,
        "4779": 134,
        "4780": 23,
        "4781": 162,
        "4782": 255,
        "4783": 66,
        "4784": 95,
        "4785": 245,
        "4786": 58,
        "4787": 96,
        "4788": 104,
        "4789": 126,
        "4790": 202,
        "4791": 219,
        "4792": 100,
        "4793": 53,
        "4794": 36,
        "4795": 137,
        "4796": 234,
        "4797": 90,
        "4798": 221,
        "4799": 74,
        "4800": 246,
        "4801": 31,
        "4802": 134,
        "4803": 155,
        "4804": 22,
        "4805": 240,
        "4806": 49,
        "4807": 102,
        "4808": 129,
        "4809": 178,
        "4810": 124,
        "4811": 91,
        "4812": 254,
        "4813": 213,
        "4814": 60,
        "4815": 90,
        "4816": 123,
        "4817": 30,
        "4818": 28,
        "4819": 171,
        "4820": 177,
        "4821": 199,
        "4822": 184,
        "4823": 191,
        "4824": 74,
        "4825": 67,
        "4826": 8,
        "4827": 135,
        "4828": 71,
        "4829": 181,
        "4830": 239,
        "4831": 130,
        "4832": 115,
        "4833": 240,
        "4834": 224,
        "4835": 165,
        "4836": 100,
        "4837": 126,
        "4838": 111,
        "4839": 28,
        "4840": 31,
        "4841": 45,
        "4842": 115,
        "4843": 163,
        "4844": 157,
        "4845": 7,
        "4846": 202,
        "4847": 150,
        "4848": 21,
        "4849": 218,
        "4850": 163,
        "4851": 106,
        "4852": 227,
        "4853": 36,
        "4854": 48,
        "4855": 71,
        "4856": 245,
        "4857": 231,
        "4858": 6,
        "4859": 27,
        "4860": 227,
        "4861": 214,
        "4862": 33,
        "4863": 88,
        "4864": 189,
        "4865": 39,
        "4866": 166,
        "4867": 207,
        "4868": 216,
        "4869": 11,
        "4870": 208,
        "4871": 47,
        "4872": 58,
        "4873": 168,
        "4874": 72,
        "4875": 156,
        "4876": 155,
        "4877": 186,
        "4878": 125,
        "4879": 77,
        "4880": 46,
        "4881": 116,
        "4882": 79,
        "4883": 74,
        "4884": 54,
        "4885": 213,
        "4886": 98,
        "4887": 104,
        "4888": 106,
        "4889": 0,
        "4890": 34,
        "4891": 66,
        "4892": 150,
        "4893": 232,
        "4894": 224,
        "4895": 220,
        "4896": 183,
        "4897": 63,
        "4898": 174,
        "4899": 101,
        "4900": 169,
        "4901": 125,
        "4902": 37,
        "4903": 115,
        "4904": 94,
        "4905": 255,
        "4906": 120,
        "4907": 89,
        "4908": 156,
        "4909": 20,
        "4910": 169,
        "4911": 243,
        "4912": 114,
        "4913": 144,
        "4914": 96,
        "4915": 130,
        "4916": 2,
        "4917": 60,
        "4918": 38,
        "4919": 23,
        "4920": 73,
        "4921": 114,
        "4922": 3,
        "4923": 241,
        "4924": 197,
        "4925": 60,
        "4926": 177,
        "4927": 142,
        "4928": 224,
        "4929": 96,
        "4930": 204,
        "4931": 17,
        "4932": 99,
        "4933": 155,
        "4934": 33,
        "4935": 12,
        "4936": 213,
        "4937": 108,
        "4938": 197,
        "4939": 212,
        "4940": 65,
        "4941": 122,
        "4942": 196,
        "4943": 173,
        "4944": 187,
        "4945": 234,
        "4946": 127,
        "4947": 107,
        "4948": 196,
        "4949": 201,
        "4950": 26,
        "4951": 25,
        "4952": 35,
        "4953": 165,
        "4954": 96,
        "4955": 247,
        "4956": 51,
        "4957": 145,
        "4958": 143,
        "4959": 253,
        "4960": 242,
        "4961": 138,
        "4962": 241,
        "4963": 83,
        "4964": 156,
        "4965": 195,
        "4966": 161,
        "4967": 36,
        "4968": 206,
        "4969": 134,
        "4970": 26,
        "4971": 134,
        "4972": 123,
        "4973": 238,
        "4974": 51,
        "4975": 235,
        "4976": 137,
        "4977": 94,
        "4978": 67,
        "4979": 66,
        "4980": 195,
        "4981": 84,
        "4982": 97,
        "4983": 123,
        "4984": 2,
        "4985": 7,
        "4986": 227,
        "4987": 178,
        "4988": 153,
        "4989": 82,
        "4990": 134,
        "4991": 243,
        "4992": 12,
        "4993": 128,
        "4994": 200,
        "4995": 79,
        "4996": 165,
        "4997": 39,
        "4998": 130,
        "4999": 224,
        "5000": 151,
        "5001": 247,
        "5002": 45,
        "5003": 137,
        "5004": 3,
        "5005": 129,
        "5006": 6,
        "5007": 70,
        "5008": 36,
        "5009": 218,
        "5010": 124,
        "5011": 0,
        "5012": 204,
        "5013": 47,
        "5014": 54,
        "5015": 140,
        "5016": 67,
        "5017": 201,
        "5018": 56,
        "5019": 223,
        "5020": 142,
        "5021": 33,
        "5022": 99,
        "5023": 105,
        "5024": 42,
        "5025": 146,
        "5026": 12,
        "5027": 202,
        "5028": 214,
        "5029": 123,
        "5030": 150,
        "5031": 214,
        "5032": 41,
        "5033": 230,
        "5034": 247,
        "5035": 246,
        "5036": 213,
        "5037": 150,
        "5038": 66,
        "5039": 24,
        "5040": 237,
        "5041": 146,
        "5042": 200,
        "5043": 224,
        "5044": 208,
        "5045": 39,
        "5046": 74,
        "5047": 17,
        "5048": 194,
        "5049": 137,
        "5050": 81,
        "5051": 136,
        "5052": 145,
        "5053": 50,
        "5054": 174,
        "5055": 213,
        "5056": 159,
        "5057": 231,
        "5058": 125,
        "5059": 9,
        "5060": 33,
        "5061": 245,
        "5062": 121,
        "5063": 164,
        "5064": 10,
        "5065": 70,
        "5066": 138,
        "5067": 155,
        "5068": 33,
        "5069": 75,
        "5070": 142,
        "5071": 198,
        "5072": 11,
        "5073": 139,
        "5074": 16,
        "5075": 124,
        "5076": 35,
        "5077": 202,
        "5078": 209,
        "5079": 84,
        "5080": 8,
        "5081": 29,
        "5082": 163,
        "5083": 171,
        "5084": 236,
        "5085": 17,
        "5086": 180,
        "5087": 247,
        "5088": 72,
        "5089": 135,
        "5090": 70,
        "5091": 255,
        "5092": 204,
        "5093": 162,
        "5094": 180,
        "5095": 190,
        "5096": 73,
        "5097": 98,
        "5098": 240,
        "5099": 253,
        "5100": 165,
        "5101": 149,
        "5102": 171,
        "5103": 81,
        "5104": 139,
        "5105": 95,
        "5106": 51,
        "5107": 131,
        "5108": 24,
        "5109": 55,
        "5110": 173,
        "5111": 239,
        "5112": 227,
        "5113": 46,
        "5114": 55,
        "5115": 210,
        "5116": 130,
        "5117": 140,
        "5118": 238,
        "5119": 226,
        "5120": 196,
        "5121": 88,
        "5122": 219,
        "5123": 84,
        "5124": 15,
        "5125": 121,
        "5126": 189,
        "5127": 120,
        "5128": 180,
        "5129": 227,
        "5130": 225,
        "5131": 107,
        "5132": 165,
        "5133": 68,
        "5134": 185,
        "5135": 200,
        "5136": 54,
        "5137": 163,
        "5138": 86,
        "5139": 130,
        "5140": 191,
        "5141": 7,
        "5142": 65,
        "5143": 173,
        "5144": 162,
        "5145": 115,
        "5146": 38,
        "5147": 24,
        "5148": 11,
        "5149": 28,
        "5150": 240,
        "5151": 121,
        "5152": 189,
        "5153": 103,
        "5154": 65,
        "5155": 116,
        "5156": 104,
        "5157": 9,
        "5158": 148,
        "5159": 146,
        "5160": 197,
        "5161": 163,
        "5162": 249,
        "5163": 135,
        "5164": 179,
        "5165": 156,
        "5166": 54,
        "5167": 13,
        "5168": 88,
        "5169": 75,
        "5170": 199,
        "5171": 157,
        "5172": 79,
        "5173": 116,
        "5174": 18,
        "5175": 235,
        "5176": 128,
        "5177": 183,
        "5178": 210,
        "5179": 184,
        "5180": 204,
        "5181": 153,
        "5182": 150,
        "5183": 69,
        "5184": 17,
        "5185": 104,
        "5186": 84,
        "5187": 46,
        "5188": 41,
        "5189": 131,
        "5190": 168,
        "5191": 95,
        "5192": 196,
        "5193": 124,
        "5194": 48,
        "5195": 151,
        "5196": 16,
        "5197": 205,
        "5198": 200,
        "5199": 16,
        "5200": 12,
        "5201": 57,
        "5202": 177,
        "5203": 124,
        "5204": 160,
        "5205": 138,
        "5206": 224,
        "5207": 128,
        "5208": 114,
        "5209": 66,
        "5210": 66,
        "5211": 233,
        "5212": 33,
        "5213": 84,
        "5214": 8,
        "5215": 223,
        "5216": 204,
        "5217": 192,
        "5218": 4,
        "5219": 10,
        "5220": 168,
        "5221": 125,
        "5222": 174,
        "5223": 29,
        "5224": 145,
        "5225": 142,
        "5226": 62,
        "5227": 92,
        "5228": 121,
        "5229": 59,
        "5230": 214,
        "5231": 142,
        "5232": 233,
        "5233": 20,
        "5234": 161,
        "5235": 164,
        "5236": 73,
        "5237": 33,
        "5238": 103,
        "5239": 110,
        "5240": 67,
        "5241": 50,
        "5242": 170,
        "5243": 229,
        "5244": 119,
        "5245": 154,
        "5246": 173,
        "5247": 118,
        "5248": 61,
        "5249": 221,
        "5250": 185,
        "5251": 42,
        "5252": 73,
        "5253": 209,
        "5254": 214,
        "5255": 244,
        "5256": 187,
        "5257": 167,
        "5258": 166,
        "5259": 255,
        "5260": 102,
        "5261": 141,
        "5262": 76,
        "5263": 217,
        "5264": 88,
        "5265": 73,
        "5266": 227,
        "5267": 105,
        "5268": 177,
        "5269": 235,
        "5270": 8,
        "5271": 207,
        "5272": 252,
        "5273": 156,
        "5274": 245,
        "5275": 53,
        "5276": 24,
        "5277": 48,
        "5278": 181,
        "5279": 110,
        "5280": 103,
        "5281": 209,
        "5282": 185,
        "5283": 25,
        "5284": 238,
        "5285": 67,
        "5286": 156,
        "5287": 233,
        "5288": 125,
        "5289": 240,
        "5290": 38,
        "5291": 140,
        "5292": 122,
        "5293": 149,
        "5294": 129,
        "5295": 13,
        "5296": 137,
        "5297": 22,
        "5298": 118,
        "5299": 115,
        "5300": 213,
        "5301": 95,
        "5302": 240,
        "5303": 76,
        "5304": 53,
        "5305": 71,
        "5306": 51,
        "5307": 152,
        "5308": 161,
        "5309": 210,
        "5310": 248,
        "5311": 110,
        "5312": 77,
        "5313": 103,
        "5314": 21,
        "5315": 199,
        "5316": 85,
        "5317": 104,
        "5318": 254,
        "5319": 8,
        "5320": 101,
        "5321": 53,
        "5322": 244,
        "5323": 227,
        "5324": 84,
        "5325": 80,
        "5326": 241,
        "5327": 20,
        "5328": 224,
        "5329": 209,
        "5330": 119,
        "5331": 171,
        "5332": 190,
        "5333": 191,
        "5334": 180,
        "5335": 151,
        "5336": 3,
        "5337": 30,
        "5338": 21,
        "5339": 153,
        "5340": 61,
        "5341": 240,
        "5342": 203,
        "5343": 42,
        "5344": 175,
        "5345": 17,
        "5346": 241,
        "5347": 242,
        "5348": 238,
        "5349": 220,
        "5350": 154,
        "5351": 215,
        "5352": 221,
        "5353": 1,
        "5354": 241,
        "5355": 22,
        "5356": 160,
        "5357": 209,
        "5358": 87,
        "5359": 51,
        "5360": 205,
        "5361": 50,
        "5362": 113,
        "5363": 107,
        "5364": 233,
        "5365": 203,
        "5366": 0,
        "5367": 164,
        "5368": 9,
        "5369": 248,
        "5370": 100,
        "5371": 113,
        "5372": 16,
        "5373": 254,
        "5374": 167,
        "5375": 161,
        "5376": 217,
        "5377": 198,
        "5378": 77,
        "5379": 165,
        "5380": 115,
        "5381": 110,
        "5382": 220,
        "5383": 236,
        "5384": 179,
        "5385": 132,
        "5386": 128,
        "5387": 213,
        "5388": 227,
        "5389": 148,
        "5390": 61,
        "5391": 95,
        "5392": 242,
        "5393": 14,
        "5394": 28,
        "5395": 139,
        "5396": 10,
        "5397": 114,
        "5398": 43,
        "5399": 8,
        "5400": 175,
        "5401": 84,
        "5402": 232,
        "5403": 219,
        "5404": 18,
        "5405": 58,
        "5406": 168,
        "5407": 54,
        "5408": 39,
        "5409": 144,
        "5410": 42,
        "5411": 18,
        "5412": 195,
        "5413": 69,
        "5414": 15,
        "5415": 121,
        "5416": 72,
        "5417": 28,
        "5418": 27,
        "5419": 24,
        "5420": 147,
        "5421": 247,
        "5422": 87,
        "5423": 172,
        "5424": 14,
        "5425": 58,
        "5426": 31,
        "5427": 29,
        "5428": 12,
        "5429": 166,
        "5430": 67,
        "5431": 219,
        "5432": 38,
        "5433": 37,
        "5434": 5,
        "5435": 23,
        "5436": 59,
        "5437": 159,
        "5438": 120,
        "5439": 99,
        "5440": 225,
        "5441": 137,
        "5442": 19,
        "5443": 208,
        "5444": 110,
        "5445": 195,
        "5446": 255,
        "5447": 224,
        "5448": 32,
        "5449": 224,
        "5450": 230,
        "5451": 88,
        "5452": 13,
        "5453": 74,
        "5454": 46,
        "5455": 109,
        "5456": 247,
        "5457": 35,
        "5458": 98,
        "5459": 232,
        "5460": 145,
        "5461": 87,
        "5462": 110,
        "5463": 96,
        "5464": 15,
        "5465": 152,
        "5466": 64,
        "5467": 206,
        "5468": 138,
        "5469": 124,
        "5470": 100,
        "5471": 216,
        "5472": 15,
        "5473": 21,
        "5474": 148,
        "5475": 147,
        "5476": 100,
        "5477": 5,
        "5478": 18,
        "5479": 50,
        "5480": 89,
        "5481": 69,
        "5482": 199,
        "5483": 195,
        "5484": 12,
        "5485": 16,
        "5486": 161,
        "5487": 139,
        "5488": 147,
        "5489": 95,
        "5490": 35,
        "5491": 11,
        "5492": 9,
        "5493": 97,
        "5494": 197,
        "5495": 197,
        "5496": 141,
        "5497": 125,
        "5498": 79,
        "5499": 73,
        "5500": 189,
        "5501": 9,
        "5502": 14,
        "5503": 125,
        "5504": 146,
        "5505": 162,
        "5506": 144,
        "5507": 10,
        "5508": 152,
        "5509": 200,
        "5510": 105,
        "5511": 71,
        "5512": 110,
        "5513": 118,
        "5514": 6,
        "5515": 151,
        "5516": 244,
        "5517": 108,
        "5518": 39,
        "5519": 174,
        "5520": 31,
        "5521": 225,
        "5522": 93,
        "5523": 114,
        "5524": 79,
        "5525": 242,
        "5526": 166,
        "5527": 102,
        "5528": 134,
        "5529": 245,
        "5530": 11,
        "5531": 168,
        "5532": 216,
        "5533": 113,
        "5534": 219,
        "5535": 84,
        "5536": 106,
        "5537": 133,
        "5538": 63,
        "5539": 43,
        "5540": 25,
        "5541": 115,
        "5542": 51,
        "5543": 220,
        "5544": 86,
        "5545": 35,
        "5546": 33,
        "5547": 156,
        "5548": 228,
        "5549": 90,
        "5550": 240,
        "5551": 93,
        "5552": 18,
        "5553": 159,
        "5554": 170,
        "5555": 91,
        "5556": 183,
        "5557": 251,
        "5558": 108,
        "5559": 1,
        "5560": 30,
        "5561": 155,
        "5562": 100,
        "5563": 233,
        "5564": 156,
        "5565": 117,
        "5566": 238,
        "5567": 143,
        "5568": 254,
        "5569": 146,
        "5570": 51,
        "5571": 74,
        "5572": 160,
        "5573": 146,
        "5574": 65,
        "5575": 216,
        "5576": 50,
        "5577": 166,
        "5578": 223,
        "5579": 10,
        "5580": 242,
        "5581": 95,
        "5582": 78,
        "5583": 29,
        "5584": 62,
        "5585": 50,
        "5586": 5,
        "5587": 223,
        "5588": 106,
        "5589": 253,
        "5590": 45,
        "5591": 142,
        "5592": 117,
        "5593": 131,
        "5594": 154,
        "5595": 250,
        "5596": 140,
        "5597": 126,
        "5598": 77,
        "5599": 137,
        "5600": 20,
        "5601": 90,
        "5602": 20,
        "5603": 70,
        "5604": 139,
        "5605": 29,
        "5606": 75,
        "5607": 9,
        "5608": 243,
        "5609": 135,
        "5610": 3,
        "5611": 12,
        "5612": 122,
        "5613": 202,
        "5614": 246,
        "5615": 62,
        "5616": 141,
        "5617": 165,
        "5618": 119,
        "5619": 28,
        "5620": 88,
        "5621": 63,
        "5622": 65,
        "5623": 78,
        "5624": 172,
        "5625": 162,
        "5626": 101,
        "5627": 117,
        "5628": 108,
        "5629": 202,
        "5630": 190,
        "5631": 131,
        "5632": 37,
        "5633": 176,
        "5634": 92,
        "5635": 87,
        "5636": 230,
        "5637": 255,
        "5638": 119,
        "5639": 27,
        "5640": 146,
        "5641": 31,
        "5642": 17,
        "5643": 186,
        "5644": 219,
        "5645": 26,
        "5646": 127,
        "5647": 137,
        "5648": 198,
        "5649": 171,
        "5650": 243,
        "5651": 28,
        "5652": 24,
        "5653": 133,
        "5654": 88,
        "5655": 97,
        "5656": 199,
        "5657": 241,
        "5658": 62,
        "5659": 168,
        "5660": 247,
        "5661": 75,
        "5662": 217,
        "5663": 192,
        "5664": 54,
        "5665": 39,
        "5666": 98,
        "5667": 220,
        "5668": 208,
        "5669": 19,
        "5670": 31,
        "5671": 130,
        "5672": 46,
        "5673": 246,
        "5674": 1,
        "5675": 231,
        "5676": 25,
        "5677": 243,
        "5678": 141,
        "5679": 241,
        "5680": 108,
        "5681": 127,
        "5682": 2,
        "5683": 243,
        "5684": 41,
        "5685": 176,
        "5686": 126,
        "5687": 103,
        "5688": 137,
        "5689": 223,
        "5690": 251,
        "5691": 174,
        "5692": 124,
        "5693": 18,
        "5694": 60,
        "5695": 189,
        "5696": 58,
        "5697": 215,
        "5698": 223,
        "5699": 175,
        "5700": 103,
        "5701": 2,
        "5702": 39,
        "5703": 21,
        "5704": 20,
        "5705": 8,
        "5706": 207,
        "5707": 4,
        "5708": 255,
        "5709": 115,
        "5710": 237,
        "5711": 55,
        "5712": 140,
        "5713": 141,
        "5714": 171,
        "5715": 184,
        "5716": 66,
        "5717": 55,
        "5718": 138,
        "5719": 25,
        "5720": 22,
        "5721": 234,
        "5722": 189,
        "5723": 21,
        "5724": 80,
        "5725": 79,
        "5726": 229,
        "5727": 48,
        "5728": 81,
        "5729": 81,
        "5730": 43,
        "5731": 119,
        "5732": 103,
        "5733": 200,
        "5734": 172,
        "5735": 251,
        "5736": 168,
        "5737": 128,
        "5738": 29,
        "5739": 246,
        "5740": 28,
        "5741": 78,
        "5742": 28,
        "5743": 137,
        "5744": 11,
        "5745": 65,
        "5746": 225,
        "5747": 228,
        "5748": 52,
        "5749": 81,
        "5750": 219,
        "5751": 201,
        "5752": 139,
        "5753": 172,
        "5754": 163,
        "5755": 38,
        "5756": 9,
        "5757": 164,
        "5758": 209,
        "5759": 139,
        "5760": 243,
        "5761": 138,
        "5762": 116,
        "5763": 42,
        "5764": 40,
        "5765": 17,
        "5766": 145,
        "5767": 222,
        "5768": 245,
        "5769": 142,
        "5770": 56,
        "5771": 249,
        "5772": 196,
        "5773": 174,
        "5774": 112,
        "5775": 219,
        "5776": 98,
        "5777": 27,
        "5778": 111,
        "5779": 167,
        "5780": 160,
        "5781": 226,
        "5782": 34,
        "5783": 248,
        "5784": 75,
        "5785": 72,
        "5786": 188,
        "5787": 81,
        "5788": 11,
        "5789": 26,
        "5790": 203,
        "5791": 144,
        "5792": 186,
        "5793": 10,
        "5794": 136,
        "5795": 254,
        "5796": 164,
        "5797": 146,
        "5798": 39,
        "5799": 78,
        "5800": 81,
        "5801": 38,
        "5802": 74,
        "5803": 56,
        "5804": 30,
        "5805": 250,
        "5806": 189,
        "5807": 10,
        "5808": 2,
        "5809": 41,
        "5810": 6,
        "5811": 171,
        "5812": 134,
        "5813": 78,
        "5814": 181,
        "5815": 69,
        "5816": 4,
        "5817": 129,
        "5818": 90,
        "5819": 61,
        "5820": 52,
        "5821": 81,
        "5822": 222,
        "5823": 111,
        "5824": 64,
        "5825": 88,
        "5826": 97,
        "5827": 242,
        "5828": 245,
        "5829": 235,
        "5830": 140,
        "5831": 198,
        "5832": 227,
        "5833": 94,
        "5834": 184,
        "5835": 251,
        "5836": 18,
        "5837": 169,
        "5838": 218,
        "5839": 203,
        "5840": 77,
        "5841": 143,
        "5842": 78,
        "5843": 127,
        "5844": 162,
        "5845": 46,
        "5846": 137,
        "5847": 67,
        "5848": 128,
        "5849": 123,
        "5850": 237,
        "5851": 8,
        "5852": 29,
        "5853": 188,
        "5854": 118,
        "5855": 32,
        "5856": 77,
        "5857": 183,
        "5858": 142,
        "5859": 190,
        "5860": 152,
        "5861": 103,
        "5862": 244,
        "5863": 52,
        "5864": 103,
        "5865": 213,
        "5866": 60,
        "5867": 210,
        "5868": 56,
        "5869": 163,
        "5870": 240,
        "5871": 112,
        "5872": 199,
        "5873": 137,
        "5874": 221,
        "5875": 82,
        "5876": 181,
        "5877": 153,
        "5878": 76,
        "5879": 52,
        "5880": 191,
        "5881": 84,
        "5882": 184,
        "5883": 122,
        "5884": 227,
        "5885": 110,
        "5886": 165,
        "5887": 91,
        "5888": 92,
        "5889": 24,
        "5890": 54,
        "5891": 127,
        "5892": 122,
        "5893": 3,
        "5894": 206,
        "5895": 43,
        "5896": 193,
        "5897": 136,
        "5898": 136,
        "5899": 97,
        "5900": 134,
        "5901": 239,
        "5902": 64,
        "5903": 238,
        "5904": 26,
        "5905": 78,
        "5906": 172,
        "5907": 85,
        "5908": 40,
        "5909": 67,
        "5910": 183,
        "5911": 113,
        "5912": 33,
        "5913": 131,
        "5914": 112,
        "5915": 241,
        "5916": 223,
        "5917": 210,
        "5918": 114,
        "5919": 157,
        "5920": 13,
        "5921": 120,
        "5922": 181,
        "5923": 171,
        "5924": 10,
        "5925": 224,
        "5926": 67,
        "5927": 70,
        "5928": 59,
        "5929": 186,
        "5930": 166,
        "5931": 138,
        "5932": 12,
        "5933": 165,
        "5934": 229,
        "5935": 152,
        "5936": 82,
        "5937": 48,
        "5938": 172,
        "5939": 255,
        "5940": 199,
        "5941": 155,
        "5942": 32,
        "5943": 35,
        "5944": 250,
        "5945": 244,
        "5946": 164,
        "5947": 82,
        "5948": 207,
        "5949": 249,
        "5950": 12,
        "5951": 0,
        "5952": 43,
        "5953": 71,
        "5954": 197,
        "5955": 246,
        "5956": 116,
        "5957": 138,
        "5958": 64,
        "5959": 239,
        "5960": 193,
        "5961": 167,
        "5962": 230,
        "5963": 109,
        "5964": 198,
        "5965": 245,
        "5966": 186,
        "5967": 55,
        "5968": 242,
        "5969": 217,
        "5970": 151,
        "5971": 199,
        "5972": 153,
        "5973": 34,
        "5974": 174,
        "5975": 141,
        "5976": 51,
        "5977": 233,
        "5978": 136,
        "5979": 124,
        "5980": 76,
        "5981": 81,
        "5982": 51,
        "5983": 176,
        "5984": 152,
        "5985": 175,
        "5986": 49,
        "5987": 127,
        "5988": 74,
        "5989": 51,
        "5990": 233,
        "5991": 59,
        "5992": 216,
        "5993": 29,
        "5994": 30,
        "5995": 154,
        "5996": 246,
        "5997": 199,
        "5998": 165,
        "5999": 8,
        "6000": 237,
        "6001": 64,
        "6002": 160,
        "6003": 250,
        "6004": 245,
        "6005": 252,
        "6006": 143,
        "6007": 161,
        "6008": 20,
        "6009": 246,
        "6010": 8,
        "6011": 111,
        "6012": 250,
        "6013": 172,
        "6014": 84,
        "6015": 72,
        "6016": 178,
        "6017": 146,
        "6018": 88,
        "6019": 157,
        "6020": 86,
        "6021": 117,
        "6022": 113,
        "6023": 144,
        "6024": 71,
        "6025": 33,
        "6026": 227,
        "6027": 221,
        "6028": 182,
        "6029": 151,
        "6030": 231,
        "6031": 6,
        "6032": 17,
        "6033": 102,
        "6034": 64,
        "6035": 94,
        "6036": 30,
        "6037": 204,
        "6038": 117,
        "6039": 216,
        "6040": 153,
        "6041": 51,
        "6042": 79,
        "6043": 249,
        "6044": 149,
        "6045": 245,
        "6046": 8,
        "6047": 114,
        "6048": 24,
        "6049": 61,
        "6050": 106,
        "6051": 72,
        "6052": 117,
        "6053": 151,
        "6054": 128,
        "6055": 79,
        "6056": 7,
        "6057": 113,
        "6058": 231,
        "6059": 174,
        "6060": 29,
        "6061": 18,
        "6062": 220,
        "6063": 194,
        "6064": 100,
        "6065": 169,
        "6066": 70,
        "6067": 133,
        "6068": 81,
        "6069": 8,
        "6070": 245,
        "6071": 91,
        "6072": 215,
        "6073": 15,
        "6074": 220,
        "6075": 56,
        "6076": 16,
        "6077": 154,
        "6078": 9,
        "6079": 173,
        "6080": 114,
        "6081": 217,
        "6082": 29,
        "6083": 209,
        "6084": 192,
        "6085": 248,
        "6086": 21,
        "6087": 13,
        "6088": 157,
        "6089": 215,
        "6090": 95,
        "6091": 138,
        "6092": 118,
        "6093": 172,
        "6094": 202,
        "6095": 3,
        "6096": 149,
        "6097": 206,
        "6098": 128,
        "6099": 180,
        "6100": 10,
        "6101": 239,
        "6102": 54,
        "6103": 50,
        "6104": 109,
        "6105": 163,
        "6106": 59,
        "6107": 4,
        "6108": 203,
        "6109": 116,
        "6110": 170,
        "6111": 175,
        "6112": 79,
        "6113": 100,
        "6114": 214,
        "6115": 95,
        "6116": 121,
        "6117": 135,
        "6118": 137,
        "6119": 27,
        "6120": 57,
        "6121": 28,
        "6122": 44,
        "6123": 40,
        "6124": 122,
        "6125": 62,
        "6126": 205,
        "6127": 66,
        "6128": 128,
        "6129": 205,
        "6130": 210,
        "6131": 90,
        "6132": 161,
        "6133": 112,
        "6134": 50,
        "6135": 17,
        "6136": 222,
        "6137": 186,
        "6138": 115,
        "6139": 143,
        "6140": 119,
        "6141": 72,
        "6142": 30,
        "6143": 247,
        "6144": 25,
        "6145": 179,
        "6146": 45,
        "6147": 195,
        "6148": 173,
        "6149": 118,
        "6150": 100,
        "6151": 11,
        "6152": 198,
        "6153": 145,
        "6154": 248,
        "6155": 78,
        "6156": 144,
        "6157": 194,
        "6158": 159,
        "6159": 183,
        "6160": 238,
        "6161": 204,
        "6162": 189,
        "6163": 195,
        "6164": 221,
        "6165": 214,
        "6166": 70,
        "6167": 197,
        "6168": 57,
        "6169": 153,
        "6170": 71,
        "6171": 195,
        "6172": 156,
        "6173": 44,
        "6174": 238,
        "6175": 74,
        "6176": 67,
        "6177": 39,
        "6178": 95,
        "6179": 29,
        "6180": 163,
        "6181": 209,
        "6182": 147,
        "6183": 125,
        "6184": 246,
        "6185": 201,
        "6186": 151,
        "6187": 130,
        "6188": 120,
        "6189": 192,
        "6190": 233,
        "6191": 192,
        "6192": 18,
        "6193": 188,
        "6194": 79,
        "6195": 140,
        "6196": 165,
        "6197": 103,
        "6198": 85,
        "6199": 54,
        "6200": 70,
        "6201": 82,
        "6202": 104,
        "6203": 206,
        "6204": 204,
        "6205": 113,
        "6206": 206,
        "6207": 46,
        "6208": 206,
        "6209": 148,
        "6210": 160,
        "6211": 237,
        "6212": 196,
        "6213": 251,
        "6214": 56,
        "6215": 188,
        "6216": 124,
        "6217": 12,
        "6218": 11,
        "6219": 46,
        "6220": 215,
        "6221": 92,
        "6222": 88,
        "6223": 146,
        "6224": 3,
        "6225": 22,
        "6226": 50,
        "6227": 2,
        "6228": 155,
        "6229": 11,
        "6230": 85,
        "6231": 213,
        "6232": 88,
        "6233": 186,
        "6234": 100,
        "6235": 3,
        "6236": 171,
        "6237": 79,
        "6238": 128,
        "6239": 176,
        "6240": 94,
        "6241": 193,
        "6242": 247,
        "6243": 225,
        "6244": 181,
        "6245": 163,
        "6246": 43,
        "6247": 56,
        "6248": 252,
        "6249": 146,
        "6250": 120,
        "6251": 87,
        "6252": 144,
        "6253": 118,
        "6254": 100,
        "6255": 168,
        "6256": 24,
        "6257": 19,
        "6258": 106,
        "6259": 2,
        "6260": 140,
        "6261": 28,
        "6262": 94,
        "6263": 120,
        "6264": 103,
        "6265": 250,
        "6266": 86,
        "6267": 172,
        "6268": 144,
        "6269": 208,
        "6270": 18,
        "6271": 5,
        "6272": 230,
        "6273": 51,
        "6274": 177,
        "6275": 177,
        "6276": 24,
        "6277": 17,
        "6278": 121,
        "6279": 90,
        "6280": 113,
        "6281": 215,
        "6282": 67,
        "6283": 3,
        "6284": 55,
        "6285": 165,
        "6286": 100,
        "6287": 18,
        "6288": 88,
        "6289": 23,
        "6290": 127,
        "6291": 89,
        "6292": 137,
        "6293": 197,
        "6294": 193,
        "6295": 197,
        "6296": 48,
        "6297": 243,
        "6298": 38,
        "6299": 35,
        "6300": 128,
        "6301": 202,
        "6302": 225,
        "6303": 245,
        "6304": 74,
        "6305": 13,
        "6306": 92,
        "6307": 202,
        "6308": 31,
        "6309": 110,
        "6310": 56,
        "6311": 20,
        "6312": 37,
        "6313": 103,
        "6314": 102,
        "6315": 51,
        "6316": 212,
        "6317": 165,
        "6318": 162,
        "6319": 0,
        "6320": 72,
        "6321": 188,
        "6322": 229,
        "6323": 104,
        "6324": 50,
        "6325": 33,
        "6326": 54,
        "6327": 157,
        "6328": 111,
        "6329": 108,
        "6330": 65,
        "6331": 171,
        "6332": 157,
        "6333": 152,
        "6334": 17,
        "6335": 74,
        "6336": 203,
        "6337": 19,
        "6338": 96,
        "6339": 223,
        "6340": 124,
        "6341": 100,
        "6342": 25,
        "6343": 166,
        "6344": 66,
        "6345": 224,
        "6346": 104,
        "6347": 31,
        "6348": 155,
        "6349": 156,
        "6350": 173,
        "6351": 190,
        "6352": 157,
        "6353": 179,
        "6354": 45,
        "6355": 45,
        "6356": 234,
        "6357": 116,
        "6358": 146,
        "6359": 89,
        "6360": 197,
        "6361": 198,
        "6362": 211,
        "6363": 175,
        "6364": 183,
        "6365": 33,
        "6366": 164,
        "6367": 61,
        "6368": 93,
        "6369": 4,
        "6370": 18,
        "6371": 124,
        "6372": 194,
        "6373": 242,
        "6374": 171,
        "6375": 10,
        "6376": 245,
        "6377": 37,
        "6378": 172,
        "6379": 7,
        "6380": 159,
        "6381": 189,
        "6382": 69,
        "6383": 113,
        "6384": 107,
        "6385": 190,
        "6386": 74,
        "6387": 67,
        "6388": 214,
        "6389": 186,
        "6390": 106,
        "6391": 100,
        "6392": 146,
        "6393": 137,
        "6394": 228,
        "6395": 69,
        "6396": 9,
        "6397": 246,
        "6398": 19,
        "6399": 113,
        "6400": 89,
        "6401": 199,
        "6402": 231,
        "6403": 112,
        "6404": 124,
        "6405": 169,
        "6406": 184,
        "6407": 45,
        "6408": 171,
        "6409": 57,
        "6410": 177,
        "6411": 163,
        "6412": 20,
        "6413": 134,
        "6414": 222,
        "6415": 144,
        "6416": 204,
        "6417": 146,
        "6418": 103,
        "6419": 52,
        "6420": 118,
        "6421": 203,
        "6422": 230,
        "6423": 254,
        "6424": 224,
        "6425": 212,
        "6426": 26,
        "6427": 206,
        "6428": 86,
        "6429": 144,
        "6430": 199,
        "6431": 0,
        "6432": 202,
        "6433": 172,
        "6434": 24,
        "6435": 12,
        "6436": 74,
        "6437": 60,
        "6438": 216,
        "6439": 8,
        "6440": 217,
        "6441": 164,
        "6442": 82,
        "6443": 162,
        "6444": 129,
        "6445": 37,
        "6446": 133,
        "6447": 58,
        "6448": 103,
        "6449": 149,
        "6450": 65,
        "6451": 81,
        "6452": 63,
        "6453": 129,
        "6454": 219,
        "6455": 180,
        "6456": 53,
        "6457": 61,
        "6458": 216,
        "6459": 62,
        "6460": 104,
        "6461": 4,
        "6462": 221,
        "6463": 102,
        "6464": 59,
        "6465": 155,
        "6466": 242,
        "6467": 79,
        "6468": 188,
        "6469": 48,
        "6470": 123,
        "6471": 182,
        "6472": 102,
        "6473": 221,
        "6474": 105,
        "6475": 162,
        "6476": 40,
        "6477": 34,
        "6478": 103,
        "6479": 230,
        "6480": 191,
        "6481": 181,
        "6482": 96,
        "6483": 146,
        "6484": 245,
        "6485": 195,
        "6486": 114,
        "6487": 81,
        "6488": 28,
        "6489": 80,
        "6490": 23,
        "6491": 162,
        "6492": 221,
        "6493": 183,
        "6494": 81,
        "6495": 80,
        "6496": 10,
        "6497": 6,
        "6498": 237,
        "6499": 255,
        "6500": 176,
        "6501": 233,
        "6502": 143,
        "6503": 154,
        "6504": 79,
        "6505": 120,
        "6506": 126,
        "6507": 80,
        "6508": 122,
        "6509": 21,
        "6510": 22,
        "6511": 231,
        "6512": 125,
        "6513": 80,
        "6514": 3,
        "6515": 233,
        "6516": 211,
        "6517": 218,
        "6518": 196,
        "6519": 122,
        "6520": 154,
        "6521": 168,
        "6522": 137,
        "6523": 63,
        "6524": 228,
        "6525": 180,
        "6526": 214,
        "6527": 168,
        "6528": 89,
        "6529": 215,
        "6530": 127,
        "6531": 248,
        "6532": 152,
        "6533": 195,
        "6534": 25,
        "6535": 90,
        "6536": 48,
        "6537": 224,
        "6538": 210,
        "6539": 124,
        "6540": 119,
        "6541": 13,
        "6542": 38,
        "6543": 78,
        "6544": 22,
        "6545": 72,
        "6546": 246,
        "6547": 2,
        "6548": 46,
        "6549": 53,
        "6550": 253,
        "6551": 17,
        "6552": 76,
        "6553": 146,
        "6554": 50,
        "6555": 29,
        "6556": 116,
        "6557": 67,
        "6558": 32,
        "6559": 226,
        "6560": 117,
        "6561": 118,
        "6562": 0,
        "6563": 6,
        "6564": 48,
        "6565": 194,
        "6566": 190,
        "6567": 29,
        "6568": 42,
        "6569": 48,
        "6570": 223,
        "6571": 4,
        "6572": 44,
        "6573": 231,
        "6574": 220,
        "6575": 225,
        "6576": 97,
        "6577": 6,
        "6578": 72,
        "6579": 220,
        "6580": 252,
        "6581": 253,
        "6582": 23,
        "6583": 65,
        "6584": 205,
        "6585": 71,
        "6586": 251,
        "6587": 157,
        "6588": 177,
        "6589": 187,
        "6590": 228,
        "6591": 55,
        "6592": 172,
        "6593": 84,
        "6594": 40,
        "6595": 187,
        "6596": 184,
        "6597": 89,
        "6598": 8,
        "6599": 51,
        "6600": 251,
        "6601": 130,
        "6602": 40,
        "6603": 165,
        "6604": 142,
        "6605": 0,
        "6606": 123,
        "6607": 151,
        "6608": 153,
        "6609": 18,
        "6610": 6,
        "6611": 79,
        "6612": 16,
        "6613": 7,
        "6614": 174,
        "6615": 192,
        "6616": 216,
        "6617": 252,
        "6618": 29,
        "6619": 39,
        "6620": 145,
        "6621": 230,
        "6622": 66,
        "6623": 77,
        "6624": 3,
        "6625": 170,
        "6626": 53,
        "6627": 242,
        "6628": 42,
        "6629": 22,
        "6630": 2,
        "6631": 102,
        "6632": 213,
        "6633": 50,
        "6634": 202,
        "6635": 55,
        "6636": 222,
        "6637": 192,
        "6638": 221,
        "6639": 150,
        "6640": 114,
        "6641": 220,
        "6642": 188,
        "6643": 119,
        "6644": 251,
        "6645": 108,
        "6646": 224,
        "6647": 46,
        "6648": 234,
        "6649": 45,
        "6650": 12,
        "6651": 92,
        "6652": 157,
        "6653": 231,
        "6654": 126,
        "6655": 197,
        "6656": 173,
        "6657": 154,
        "6658": 101,
        "6659": 249,
        "6660": 12,
        "6661": 205,
        "6662": 212,
        "6663": 200,
        "6664": 226,
        "6665": 158,
        "6666": 51,
        "6667": 156,
        "6668": 152,
        "6669": 117,
        "6670": 169,
        "6671": 132,
        "6672": 166,
        "6673": 178,
        "6674": 173,
        "6675": 29,
        "6676": 50,
        "6677": 153,
        "6678": 188,
        "6679": 92,
        "6680": 97,
        "6681": 58,
        "6682": 237,
        "6683": 65,
        "6684": 125,
        "6685": 239,
        "6686": 238,
        "6687": 177,
        "6688": 205,
        "6689": 182,
        "6690": 74,
        "6691": 145,
        "6692": 249,
        "6693": 228,
        "6694": 9,
        "6695": 160,
        "6696": 136,
        "6697": 52,
        "6698": 91,
        "6699": 91,
        "6700": 35,
        "6701": 247,
        "6702": 214,
        "6703": 152,
        "6704": 181,
        "6705": 179,
        "6706": 158,
        "6707": 225,
        "6708": 129,
        "6709": 108,
        "6710": 140,
        "6711": 227,
        "6712": 55,
        "6713": 169,
        "6714": 48,
        "6715": 132,
        "6716": 167,
        "6717": 134,
        "6718": 7,
        "6719": 21,
        "6720": 231,
        "6721": 44,
        "6722": 141,
        "6723": 135,
        "6724": 167,
        "6725": 186,
        "6726": 230,
        "6727": 60,
        "6728": 53,
        "6729": 153,
        "6730": 44,
        "6731": 162,
        "6732": 163,
        "6733": 130,
        "6734": 160,
        "6735": 247,
        "6736": 247,
        "6737": 38,
        "6738": 232,
        "6739": 229,
        "6740": 14,
        "6741": 40,
        "6742": 138,
        "6743": 67,
        "6744": 81,
        "6745": 92,
        "6746": 8,
        "6747": 82,
        "6748": 71,
        "6749": 225,
        "6750": 124,
        "6751": 152,
        "6752": 172,
        "6753": 114,
        "6754": 114,
        "6755": 179,
        "6756": 235,
        "6757": 146,
        "6758": 195,
        "6759": 197,
        "6760": 8,
        "6761": 131,
        "6762": 58,
        "6763": 156,
        "6764": 120,
        "6765": 98,
        "6766": 135,
        "6767": 160,
        "6768": 0,
        "6769": 226,
        "6770": 142,
        "6771": 60,
        "6772": 203,
        "6773": 134,
        "6774": 32,
        "6775": 56,
        "6776": 204,
        "6777": 223,
        "6778": 110,
        "6779": 239,
        "6780": 210,
        "6781": 34,
        "6782": 95,
        "6783": 1,
        "6784": 221,
        "6785": 59,
        "6786": 193,
        "6787": 166,
        "6788": 9,
        "6789": 177,
        "6790": 208,
        "6791": 99,
        "6792": 31,
        "6793": 120,
        "6794": 205,
        "6795": 56,
        "6796": 109,
        "6797": 59,
        "6798": 78,
        "6799": 58,
        "6800": 217,
        "6801": 207,
        "6802": 208,
        "6803": 211,
        "6804": 60,
        "6805": 83,
        "6806": 235,
        "6807": 75,
        "6808": 142,
        "6809": 152,
        "6810": 56,
        "6811": 153,
        "6812": 229,
        "6813": 224,
        "6814": 76,
        "6815": 80,
        "6816": 30,
        "6817": 191,
        "6818": 60,
        "6819": 48,
        "6820": 206,
        "6821": 32,
        "6822": 148,
        "6823": 22,
        "6824": 220,
        "6825": 155,
        "6826": 97,
        "6827": 48,
        "6828": 60,
        "6829": 170,
        "6830": 179,
        "6831": 61,
        "6832": 232,
        "6833": 116,
        "6834": 228,
        "6835": 81,
        "6836": 170,
        "6837": 246,
        "6838": 167,
        "6839": 250,
        "6840": 167,
        "6841": 166,
        "6842": 163,
        "6843": 225,
        "6844": 163,
        "6845": 107,
        "6846": 79,
        "6847": 93,
        "6848": 156,
        "6849": 162,
        "6850": 89,
        "6851": 49,
        "6852": 217,
        "6853": 112,
        "6854": 76,
        "6855": 61,
        "6856": 241,
        "6857": 32,
        "6858": 79,
        "6859": 129,
        "6860": 226,
        "6861": 193,
        "6862": 95,
        "6863": 190,
        "6864": 207,
        "6865": 210,
        "6866": 5,
        "6867": 188,
        "6868": 192,
        "6869": 205,
        "6870": 254,
        "6871": 75,
        "6872": 173,
        "6873": 227,
        "6874": 225,
        "6875": 169,
        "6876": 200,
        "6877": 157,
        "6878": 205,
        "6879": 247,
        "6880": 170,
        "6881": 63,
        "6882": 182,
        "6883": 141,
        "6884": 16,
        "6885": 104,
        "6886": 178,
        "6887": 179,
        "6888": 222,
        "6889": 213,
        "6890": 181,
        "6891": 222,
        "6892": 90,
        "6893": 48,
        "6894": 89,
        "6895": 209,
        "6896": 1,
        "6897": 58,
        "6898": 130,
        "6899": 52,
        "6900": 20,
        "6901": 2,
        "6902": 11,
        "6903": 9,
        "6904": 64,
        "6905": 47,
        "6906": 124,
        "6907": 205,
        "6908": 86,
        "6909": 49,
        "6910": 117,
        "6911": 129,
        "6912": 80,
        "6913": 121,
        "6914": 78,
        "6915": 187,
        "6916": 118,
        "6917": 50,
        "6918": 29,
        "6919": 92,
        "6920": 175,
        "6921": 248,
        "6922": 185,
        "6923": 73,
        "6924": 109,
        "6925": 21,
        "6926": 247,
        "6927": 65,
        "6928": 22,
        "6929": 110,
        "6930": 189,
        "6931": 8,
        "6932": 211,
        "6933": 190,
        "6934": 111,
        "6935": 238,
        "6936": 95,
        "6937": 210,
        "6938": 169,
        "6939": 172,
        "6940": 62,
        "6941": 117,
        "6942": 112,
        "6943": 137,
        "6944": 0,
        "6945": 80,
        "6946": 43,
        "6947": 180,
        "6948": 153,
        "6949": 226,
        "6950": 8,
        "6951": 57,
        "6952": 139,
        "6953": 23,
        "6954": 62,
        "6955": 51,
        "6956": 236,
        "6957": 98,
        "6958": 227,
        "6959": 149,
        "6960": 65,
        "6961": 232,
        "6962": 95,
        "6963": 216,
        "6964": 185,
        "6965": 32,
        "6966": 168,
        "6967": 231,
        "6968": 48,
        "6969": 244,
        "6970": 197,
        "6971": 179,
        "6972": 22,
        "6973": 30,
        "6974": 233,
        "6975": 42,
        "6976": 7,
        "6977": 222,
        "6978": 8,
        "6979": 165,
        "6980": 13,
        "6981": 137,
        "6982": 133,
        "6983": 235,
        "6984": 58,
        "6985": 112,
        "6986": 69,
        "6987": 58,
        "6988": 111,
        "6989": 7,
        "6990": 105,
        "6991": 79,
        "6992": 124,
        "6993": 88,
        "6994": 225,
        "6995": 248,
        "6996": 21,
        "6997": 95,
        "6998": 136,
        "6999": 98,
        "7000": 215,
        "7001": 245,
        "7002": 5,
        "7003": 238,
        "7004": 81,
        "7005": 218,
        "7006": 72,
        "7007": 64,
        "7008": 206,
        "7009": 65,
        "7010": 124,
        "7011": 138,
        "7012": 149,
        "7013": 210,
        "7014": 99,
        "7015": 89,
        "7016": 174,
        "7017": 61,
        "7018": 215,
        "7019": 149,
        "7020": 135,
        "7021": 169,
        "7022": 149,
        "7023": 188,
        "7024": 196,
        "7025": 240,
        "7026": 211,
        "7027": 125,
        "7028": 227,
        "7029": 121,
        "7030": 88,
        "7031": 95,
        "7032": 64,
        "7033": 9,
        "7034": 104,
        "7035": 91,
        "7036": 254,
        "7037": 242,
        "7038": 130,
        "7039": 230,
        "7040": 193,
        "7041": 200,
        "7042": 201,
        "7043": 100,
        "7044": 85,
        "7045": 77,
        "7046": 37,
        "7047": 177,
        "7048": 23,
        "7049": 52,
        "7050": 156,
        "7051": 150,
        "7052": 8,
        "7053": 56,
        "7054": 222,
        "7055": 186,
        "7056": 143,
        "7057": 252,
        "7058": 95,
        "7059": 176,
        "7060": 116,
        "7061": 35,
        "7062": 160,
        "7063": 255,
        "7064": 248,
        "7065": 25,
        "7066": 204,
        "7067": 77,
        "7068": 59,
        "7069": 174,
        "7070": 17,
        "7071": 197,
        "7072": 89,
        "7073": 47,
        "7074": 49,
        "7075": 133,
        "7076": 30,
        "7077": 201,
        "7078": 240,
        "7079": 105,
        "7080": 61,
        "7081": 129,
        "7082": 151,
        "7083": 29,
        "7084": 177,
        "7085": 147,
        "7086": 198,
        "7087": 169,
        "7088": 62,
        "7089": 176,
        "7090": 29,
        "7091": 228,
        "7092": 189,
        "7093": 229,
        "7094": 213,
        "7095": 39,
        "7096": 133,
        "7097": 15,
        "7098": 52,
        "7099": 129,
        "7100": 204,
        "7101": 26,
        "7102": 86,
        "7103": 81,
        "7104": 118,
        "7105": 62,
        "7106": 181,
        "7107": 171,
        "7108": 187,
        "7109": 72,
        "7110": 170,
        "7111": 252,
        "7112": 224,
        "7113": 222,
        "7114": 246,
        "7115": 59,
        "7116": 214,
        "7117": 157,
        "7118": 230,
        "7119": 34,
        "7120": 251,
        "7121": 91,
        "7122": 228,
        "7123": 236,
        "7124": 5,
        "7125": 179,
        "7126": 37,
        "7127": 137,
        "7128": 218,
        "7129": 4,
        "7130": 218,
        "7131": 48,
        "7132": 193,
        "7133": 180,
        "7134": 218,
        "7135": 37,
        "7136": 19,
        "7137": 170,
        "7138": 35,
        "7139": 49,
        "7140": 242,
        "7141": 13,
        "7142": 180,
        "7143": 128,
        "7144": 216,
        "7145": 2,
        "7146": 80,
        "7147": 169,
        "7148": 196,
        "7149": 174,
        "7150": 189,
        "7151": 179,
        "7152": 31,
        "7153": 181,
        "7154": 53,
        "7155": 190,
        "7156": 96,
        "7157": 230,
        "7158": 207,
        "7159": 186,
        "7160": 82,
        "7161": 206,
        "7162": 31,
        "7163": 8,
        "7164": 7,
        "7165": 195,
        "7166": 134,
        "7167": 92,
        "7168": 162,
        "7169": 24,
        "7170": 200,
        "7171": 12,
        "7172": 116,
        "7173": 197,
        "7174": 118,
        "7175": 227,
        "7176": 214,
        "7177": 100,
        "7178": 169,
        "7179": 111,
        "7180": 238,
        "7181": 218,
        "7182": 91,
        "7183": 203,
        "7184": 87,
        "7185": 164,
        "7186": 49,
        "7187": 63,
        "7188": 137,
        "7189": 232,
        "7190": 226,
        "7191": 41,
        "7192": 213,
        "7193": 151,
        "7194": 128,
        "7195": 217,
        "7196": 134,
        "7197": 199,
        "7198": 170,
        "7199": 165,
        "7200": 247,
        "7201": 75,
        "7202": 215,
        "7203": 185,
        "7204": 111,
        "7205": 126,
        "7206": 52,
        "7207": 44,
        "7208": 229,
        "7209": 10,
        "7210": 173,
        "7211": 1,
        "7212": 187,
        "7213": 189,
        "7214": 189,
        "7215": 79,
        "7216": 127,
        "7217": 54,
        "7218": 98,
        "7219": 196,
        "7220": 48,
        "7221": 127,
        "7222": 236,
        "7223": 219,
        "7224": 100,
        "7225": 77,
        "7226": 39,
        "7227": 192,
        "7228": 130,
        "7229": 214,
        "7230": 185,
        "7231": 153,
        "7232": 65,
        "7233": 47,
        "7234": 24,
        "7235": 50,
        "7236": 126,
        "7237": 157,
        "7238": 17,
        "7239": 210,
        "7240": 199,
        "7241": 28,
        "7242": 57,
        "7243": 103,
        "7244": 107,
        "7245": 49,
        "7246": 6,
        "7247": 120,
        "7248": 37,
        "7249": 169,
        "7250": 120,
        "7251": 206,
        "7252": 173,
        "7253": 86,
        "7254": 209,
        "7255": 199,
        "7256": 212,
        "7257": 68,
        "7258": 124,
        "7259": 133,
        "7260": 217,
        "7261": 173,
        "7262": 58,
        "7263": 11,
        "7264": 105,
        "7265": 234,
        "7266": 82,
        "7267": 194,
        "7268": 87,
        "7269": 243,
        "7270": 181,
        "7271": 135,
        "7272": 167,
        "7273": 197,
        "7274": 228,
        "7275": 118,
        "7276": 226,
        "7277": 11,
        "7278": 220,
        "7279": 13,
        "7280": 211,
        "7281": 119,
        "7282": 209,
        "7283": 255,
        "7284": 214,
        "7285": 92,
        "7286": 188,
        "7287": 78,
        "7288": 2,
        "7289": 235,
        "7290": 123,
        "7291": 62,
        "7292": 248,
        "7293": 134,
        "7294": 183,
        "7295": 212,
        "7296": 181,
        "7297": 148,
        "7298": 83,
        "7299": 238,
        "7300": 185,
        "7301": 25,
        "7302": 169,
        "7303": 132,
        "7304": 25,
        "7305": 222,
        "7306": 223,
        "7307": 149,
        "7308": 54,
        "7309": 164,
        "7310": 126,
        "7311": 85,
        "7312": 41,
        "7313": 173,
        "7314": 178,
        "7315": 33,
        "7316": 150,
        "7317": 82,
        "7318": 177,
        "7319": 229,
        "7320": 133,
        "7321": 227,
        "7322": 106,
        "7323": 128,
        "7324": 193,
        "7325": 250,
        "7326": 115,
        "7327": 234,
        "7328": 200,
        "7329": 4,
        "7330": 9,
        "7331": 49,
        "7332": 109,
        "7333": 128,
        "7334": 197,
        "7335": 41,
        "7336": 66,
        "7337": 22,
        "7338": 222,
        "7339": 41,
        "7340": 111,
        "7341": 47,
        "7342": 215,
        "7343": 93,
        "7344": 64,
        "7345": 24,
        "7346": 1,
        "7347": 207,
        "7348": 242,
        "7349": 22,
        "7350": 43,
        "7351": 73,
        "7352": 182,
        "7353": 130,
        "7354": 51,
        "7355": 115,
        "7356": 185,
        "7357": 2,
        "7358": 18,
        "7359": 37,
        "7360": 31,
        "7361": 35,
        "7362": 131,
        "7363": 142,
        "7364": 25,
        "7365": 137,
        "7366": 117,
        "7367": 164,
        "7368": 231,
        "7369": 250,
        "7370": 206,
        "7371": 58,
        "7372": 67,
        "7373": 204,
        "7374": 144,
        "7375": 169,
        "7376": 20,
        "7377": 73,
        "7378": 86,
        "7379": 246,
        "7380": 131,
        "7381": 148,
        "7382": 72,
        "7383": 85,
        "7384": 124,
        "7385": 12,
        "7386": 112,
        "7387": 239,
        "7388": 180,
        "7389": 17,
        "7390": 62,
        "7391": 149,
        "7392": 171,
        "7393": 199,
        "7394": 174,
        "7395": 252,
        "7396": 252,
        "7397": 21,
        "7398": 133,
        "7399": 22,
        "7400": 110,
        "7401": 39,
        "7402": 50,
        "7403": 49,
        "7404": 251,
        "7405": 237,
        "7406": 13,
        "7407": 25,
        "7408": 116,
        "7409": 4,
        "7410": 30,
        "7411": 210,
        "7412": 27,
        "7413": 55,
        "7414": 141,
        "7415": 120,
        "7416": 47,
        "7417": 220,
        "7418": 223,
        "7419": 58,
        "7420": 162,
        "7421": 68,
        "7422": 189,
        "7423": 27,
        "7424": 34,
        "7425": 186,
        "7426": 147,
        "7427": 140,
        "7428": 10,
        "7429": 137,
        "7430": 129,
        "7431": 137,
        "7432": 64,
        "7433": 42,
        "7434": 206,
        "7435": 77,
        "7436": 29,
        "7437": 245,
        "7438": 34,
        "7439": 16,
        "7440": 57,
        "7441": 177,
        "7442": 201,
        "7443": 14,
        "7444": 52,
        "7445": 185,
        "7446": 26,
        "7447": 224,
        "7448": 215,
        "7449": 33,
        "7450": 206,
        "7451": 133,
        "7452": 160,
        "7453": 165,
        "7454": 106,
        "7455": 115,
        "7456": 229,
        "7457": 255,
        "7458": 42,
        "7459": 68,
        "7460": 30,
        "7461": 234,
        "7462": 27,
        "7463": 240,
        "7464": 142,
        "7465": 214,
        "7466": 248,
        "7467": 36,
        "7468": 177,
        "7469": 14,
        "7470": 156,
        "7471": 14,
        "7472": 207,
        "7473": 237,
        "7474": 131,
        "7475": 229,
        "7476": 138,
        "7477": 174,
        "7478": 52,
        "7479": 161,
        "7480": 149,
        "7481": 130,
        "7482": 242,
        "7483": 198,
        "7484": 125,
        "7485": 69,
        "7486": 141,
        "7487": 209,
        "7488": 251,
        "7489": 98,
        "7490": 56,
        "7491": 151,
        "7492": 44,
        "7493": 25,
        "7494": 122,
        "7495": 79,
        "7496": 95,
        "7497": 103,
        "7498": 218,
        "7499": 98,
        "7500": 200,
        "7501": 115,
        "7502": 63,
        "7503": 73,
        "7504": 180,
        "7505": 210,
        "7506": 39,
        "7507": 43,
        "7508": 218,
        "7509": 141,
        "7510": 234,
        "7511": 21,
        "7512": 106,
        "7513": 233,
        "7514": 143,
        "7515": 74,
        "7516": 175,
        "7517": 252,
        "7518": 89,
        "7519": 53,
        "7520": 105,
        "7521": 120,
        "7522": 43,
        "7523": 93,
        "7524": 220,
        "7525": 222,
        "7526": 90,
        "7527": 86,
        "7528": 36,
        "7529": 193,
        "7530": 137,
        "7531": 102,
        "7532": 31,
        "7533": 187,
        "7534": 146,
        "7535": 95,
        "7536": 118,
        "7537": 70,
        "7538": 144,
        "7539": 108,
        "7540": 128,
        "7541": 224,
        "7542": 149,
        "7543": 222,
        "7544": 5,
        "7545": 136,
        "7546": 148,
        "7547": 133,
        "7548": 91,
        "7549": 109,
        "7550": 37,
        "7551": 157,
        "7552": 222,
        "7553": 51,
        "7554": 200,
        "7555": 247,
        "7556": 211,
        "7557": 92,
        "7558": 32,
        "7559": 194,
        "7560": 82,
        "7561": 113,
        "7562": 176,
        "7563": 105,
        "7564": 123,
        "7565": 79,
        "7566": 199,
        "7567": 214,
        "7568": 11,
        "7569": 19,
        "7570": 136,
        "7571": 112,
        "7572": 207,
        "7573": 153,
        "7574": 17,
        "7575": 99,
        "7576": 86,
        "7577": 134,
        "7578": 164,
        "7579": 110,
        "7580": 180,
        "7581": 236,
        "7582": 34,
        "7583": 89,
        "7584": 144,
        "7585": 104,
        "7586": 176,
        "7587": 210,
        "7588": 130,
        "7589": 96,
        "7590": 249,
        "7591": 103,
        "7592": 23,
        "7593": 196,
        "7594": 83,
        "7595": 92,
        "7596": 158,
        "7597": 232,
        "7598": 250,
        "7599": 26,
        "7600": 130,
        "7601": 243,
        "7602": 170,
        "7603": 161,
        "7604": 87,
        "7605": 250,
        "7606": 85,
        "7607": 135,
        "7608": 7,
        "7609": 18,
        "7610": 248,
        "7611": 207,
        "7612": 255,
        "7613": 194,
        "7614": 129,
        "7615": 5,
        "7616": 227,
        "7617": 221,
        "7618": 156,
        "7619": 201,
        "7620": 50,
        "7621": 1,
        "7622": 204,
        "7623": 184,
        "7624": 66,
        "7625": 249,
        "7626": 2,
        "7627": 15,
        "7628": 75,
        "7629": 232,
        "7630": 118,
        "7631": 31,
        "7632": 24,
        "7633": 150,
        "7634": 185,
        "7635": 152,
        "7636": 237,
        "7637": 61,
        "7638": 131,
        "7639": 95,
        "7640": 73,
        "7641": 11,
        "7642": 115,
        "7643": 143,
        "7644": 244,
        "7645": 238,
        "7646": 212,
        "7647": 57,
        "7648": 90,
        "7649": 26,
        "7650": 129,
        "7651": 149,
        "7652": 239,
        "7653": 61,
        "7654": 119,
        "7655": 36,
        "7656": 229,
        "7657": 86,
        "7658": 145,
        "7659": 16,
        "7660": 114,
        "7661": 235,
        "7662": 176,
        "7663": 185,
        "7664": 199,
        "7665": 151,
        "7666": 100,
        "7667": 157,
        "7668": 137,
        "7669": 230,
        "7670": 196,
        "7671": 36,
        "7672": 187,
        "7673": 121,
        "7674": 157,
        "7675": 220,
        "7676": 192,
        "7677": 97,
        "7678": 180,
        "7679": 73,
        "7680": 177,
        "7681": 100,
        "7682": 42,
        "7683": 232,
        "7684": 233,
        "7685": 124,
        "7686": 80,
        "7687": 75,
        "7688": 77,
        "7689": 182,
        "7690": 128,
        "7691": 223,
        "7692": 227,
        "7693": 24,
        "7694": 184,
        "7695": 2,
        "7696": 159,
        "7697": 229,
        "7698": 15,
        "7699": 218,
        "7700": 164,
        "7701": 250,
        "7702": 231,
        "7703": 19,
        "7704": 66,
        "7705": 146,
        "7706": 240,
        "7707": 145,
        "7708": 213,
        "7709": 138,
        "7710": 143,
        "7711": 10,
        "7712": 144,
        "7713": 129,
        "7714": 216,
        "7715": 62,
        "7716": 223,
        "7717": 232,
        "7718": 226,
        "7719": 193,
        "7720": 216,
        "7721": 0,
        "7722": 240,
        "7723": 79,
        "7724": 45,
        "7725": 123,
        "7726": 233,
        "7727": 139,
        "7728": 184,
        "7729": 199,
        "7730": 168,
        "7731": 150,
        "7732": 137,
        "7733": 82,
        "7734": 66,
        "7735": 183,
        "7736": 128,
        "7737": 113,
        "7738": 200,
        "7739": 73,
        "7740": 175,
        "7741": 107,
        "7742": 105,
        "7743": 227,
        "7744": 97,
        "7745": 226,
        "7746": 5,
        "7747": 229,
        "7748": 49,
        "7749": 119,
        "7750": 235,
        "7751": 251,
        "7752": 188,
        "7753": 252,
        "7754": 244,
        "7755": 216,
        "7756": 183,
        "7757": 154,
        "7758": 183,
        "7759": 21,
        "7760": 21,
        "7761": 142,
        "7762": 90,
        "7763": 192,
        "7764": 112,
        "7765": 1,
        "7766": 105,
        "7767": 147,
        "7768": 218,
        "7769": 247,
        "7770": 229,
        "7771": 233,
        "7772": 99,
        "7773": 83,
        "7774": 66,
        "7775": 183,
        "7776": 138,
        "7777": 74,
        "7778": 242,
        "7779": 67,
        "7780": 123,
        "7781": 146,
        "7782": 54,
        "7783": 194,
        "7784": 114,
        "7785": 102,
        "7786": 81,
        "7787": 28,
        "7788": 9,
        "7789": 73,
        "7790": 45,
        "7791": 177,
        "7792": 55,
        "7793": 84,
        "7794": 48,
        "7795": 154,
        "7796": 178,
        "7797": 175,
        "7798": 158,
        "7799": 93,
        "7800": 129,
        "7801": 6,
        "7802": 85,
        "7803": 66,
        "7804": 15,
        "7805": 238,
        "7806": 60,
        "7807": 75,
        "7808": 21,
        "7809": 42,
        "7810": 15,
        "7811": 235,
        "7812": 55,
        "7813": 171,
        "7814": 8,
        "7815": 16,
        "7816": 4,
        "7817": 212,
        "7818": 57,
        "7819": 1,
        "7820": 199,
        "7821": 49,
        "7822": 152,
        "7823": 139,
        "7824": 190,
        "7825": 110,
        "7826": 166,
        "7827": 172,
        "7828": 29,
        "7829": 103,
        "7830": 70,
        "7831": 107,
        "7832": 143,
        "7833": 252,
        "7834": 212,
        "7835": 238,
        "7836": 136,
        "7837": 19,
        "7838": 250,
        "7839": 176,
        "7840": 31,
        "7841": 157,
        "7842": 229,
        "7843": 99,
        "7844": 117,
        "7845": 243,
        "7846": 59,
        "7847": 153,
        "7848": 7,
        "7849": 68,
        "7850": 44,
        "7851": 39,
        "7852": 189,
        "7853": 187,
        "7854": 159,
        "7855": 48,
        "7856": 244,
        "7857": 220,
        "7858": 212,
        "7859": 136,
        "7860": 89,
        "7861": 131,
        "7862": 148,
        "7863": 242,
        "7864": 156,
        "7865": 53,
        "7866": 36,
        "7867": 151,
        "7868": 227,
        "7869": 203,
        "7870": 218,
        "7871": 129,
        "7872": 28,
        "7873": 99,
        "7874": 243,
        "7875": 50,
        "7876": 32,
        "7877": 44,
        "7878": 131,
        "7879": 239,
        "7880": 109,
        "7881": 86,
        "7882": 202,
        "7883": 72,
        "7884": 233,
        "7885": 196,
        "7886": 169,
        "7887": 160,
        "7888": 244,
        "7889": 85,
        "7890": 57,
        "7891": 6,
        "7892": 47,
        "7893": 179,
        "7894": 54,
        "7895": 139,
        "7896": 158,
        "7897": 50,
        "7898": 190,
        "7899": 32,
        "7900": 94,
        "7901": 255,
        "7902": 89,
        "7903": 202,
        "7904": 149,
        "7905": 195,
        "7906": 249,
        "7907": 83,
        "7908": 56,
        "7909": 44,
        "7910": 130,
        "7911": 53,
        "7912": 147,
        "7913": 68,
        "7914": 70,
        "7915": 144,
        "7916": 152,
        "7917": 111,
        "7918": 28,
        "7919": 158,
        "7920": 184,
        "7921": 172,
        "7922": 189,
        "7923": 131,
        "7924": 79,
        "7925": 173,
        "7926": 109,
        "7927": 131,
        "7928": 114,
        "7929": 231,
        "7930": 19,
        "7931": 46,
        "7932": 71,
        "7933": 222,
        "7934": 65,
        "7935": 125,
        "7936": 56,
        "7937": 87,
        "7938": 61,
        "7939": 233,
        "7940": 187,
        "7941": 237,
        "7942": 20,
        "7943": 197,
        "7944": 111,
        "7945": 190,
        "7946": 130,
        "7947": 5,
        "7948": 36,
        "7949": 90,
        "7950": 181,
        "7951": 184,
        "7952": 55,
        "7953": 125,
        "7954": 248,
        "7955": 57,
        "7956": 125,
        "7957": 58,
        "7958": 224,
        "7959": 117,
        "7960": 66,
        "7961": 13,
        "7962": 175,
        "7963": 151,
        "7964": 111,
        "7965": 24,
        "7966": 73,
        "7967": 0,
        "7968": 181,
        "7969": 233,
        "7970": 153,
        "7971": 184,
        "7972": 68,
        "7973": 229,
        "7974": 83,
        "7975": 46,
        "7976": 192,
        "7977": 181,
        "7978": 101,
        "7979": 244,
        "7980": 64,
        "7981": 255,
        "7982": 254,
        "7983": 20,
        "7984": 228,
        "7985": 249,
        "7986": 171,
        "7987": 198,
        "7988": 159,
        "7989": 191,
        "7990": 168,
        "7991": 116,
        "7992": 105,
        "7993": 220,
        "7994": 211,
        "7995": 210,
        "7996": 164,
        "7997": 132,
        "7998": 34,
        "7999": 182,
        "8000": 253,
        "8001": 177,
        "8002": 16,
        "8003": 220,
        "8004": 159,
        "8005": 82,
        "8006": 130,
        "8007": 72,
        "8008": 213,
        "8009": 186,
        "8010": 103,
        "8011": 18,
        "8012": 248,
        "8013": 194,
        "8014": 87,
        "8015": 99,
        "8016": 195,
        "8017": 153,
        "8018": 150,
        "8019": 230,
        "8020": 227,
        "8021": 117,
        "8022": 153,
        "8023": 226,
        "8024": 251,
        "8025": 140,
        "8026": 102,
        "8027": 223,
        "8028": 255,
        "8029": 12,
        "8030": 210,
        "8031": 7,
        "8032": 238,
        "8033": 109,
        "8034": 211,
        "8035": 218,
        "8036": 121,
        "8037": 46,
        "8038": 167,
        "8039": 235,
        "8040": 162,
        "8041": 31,
        "8042": 248,
        "8043": 187,
        "8044": 233,
        "8045": 53,
        "8046": 227,
        "8047": 133,
        "8048": 208,
        "8049": 173,
        "8050": 41,
        "8051": 54,
        "8052": 197,
        "8053": 110,
        "8054": 224,
        "8055": 51,
        "8056": 28,
        "8057": 84,
        "8058": 158,
        "8059": 44,
        "8060": 170,
        "8061": 201,
        "8062": 4,
        "8063": 250,
        "8064": 29,
        "8065": 0,
        "8066": 115,
        "8067": 188,
        "8068": 135,
        "8069": 111,
        "8070": 25,
        "8071": 14,
        "8072": 96,
        "8073": 188,
        "8074": 11,
        "8075": 28,
        "8076": 106,
        "8077": 247,
        "8078": 255,
        "8079": 46,
        "8080": 252,
        "8081": 252,
        "8082": 203,
        "8083": 146,
        "8084": 126,
        "8085": 4,
        "8086": 234,
        "8087": 161,
        "8088": 129,
        "8089": 40,
        "8090": 187,
        "8091": 231,
        "8092": 13,
        "8093": 28,
        "8094": 177,
        "8095": 37,
        "8096": 112,
        "8097": 231,
        "8098": 36,
        "8099": 28,
        "8100": 197,
        "8101": 38,
        "8102": 229,
        "8103": 28,
        "8104": 71,
        "8105": 105,
        "8106": 99,
        "8107": 163,
        "8108": 226,
        "8109": 81,
        "8110": 124,
        "8111": 55,
        "8112": 63,
        "8113": 92,
        "8114": 201,
        "8115": 188,
        "8116": 40,
        "8117": 226,
        "8118": 90,
        "8119": 151,
        "8120": 31,
        "8121": 87,
        "8122": 116,
        "8123": 102,
        "8124": 19,
        "8125": 38,
        "8126": 226,
        "8127": 219,
        "8128": 4,
        "8129": 23,
        "8130": 53,
        "8131": 60,
        "8132": 65,
        "8133": 181,
        "8134": 228,
        "8135": 170,
        "8136": 46,
        "8137": 229,
        "8138": 150,
        "8139": 79,
        "8140": 232,
        "8141": 179,
        "8142": 207,
        "8143": 192,
        "8144": 246,
        "8145": 215,
        "8146": 96,
        "8147": 213,
        "8148": 185,
        "8149": 16,
        "8150": 74,
        "8151": 187,
        "8152": 243,
        "8153": 143,
        "8154": 34,
        "8155": 236,
        "8156": 160,
        "8157": 18,
        "8158": 88,
        "8159": 134,
        "8160": 225,
        "8161": 243,
        "8162": 222,
        "8163": 85,
        "8164": 253,
        "8165": 190,
        "8166": 8,
        "8167": 42,
        "8168": 182,
        "8169": 86,
        "8170": 139,
        "8171": 121,
        "8172": 108,
        "8173": 228,
        "8174": 113,
        "8175": 228,
        "8176": 109,
        "8177": 99,
        "8178": 128,
        "8179": 190,
        "8180": 195,
        "8181": 165,
        "8182": 46,
        "8183": 86,
        "8184": 122,
        "8185": 218,
        "8186": 12,
        "8187": 197,
        "8188": 185,
        "8189": 99,
        "8190": 96,
        "8191": 63,
        "8192": 107,
        "8193": 85,
        "8194": 42,
        "8195": 237,
        "8196": 248,
        "8197": 246,
        "8198": 178,
        "8199": 62,
        "8200": 101,
        "8201": 30,
        "8202": 15,
        "8203": 1,
        "8204": 1,
        "8205": 234,
        "8206": 122,
        "8207": 72,
        "8208": 0,
        "8209": 187,
        "8210": 89,
        "8211": 192,
        "8212": 98,
        "8213": 65,
        "8214": 234,
        "8215": 250,
        "8216": 231,
        "8217": 132,
        "8218": 227,
        "8219": 252,
        "8220": 3,
        "8221": 94,
        "8222": 35,
        "8223": 223,
        "8224": 95,
        "8225": 213,
        "8226": 78,
        "8227": 15,
        "8228": 118,
        "8229": 0,
        "8230": 174,
        "8231": 223,
        "8232": 8,
        "8233": 152,
        "8234": 225,
        "8235": 250,
        "8236": 10,
        "8237": 118,
        "8238": 221,
        "8239": 52,
        "8240": 207,
        "8241": 22,
        "8242": 141,
        "8243": 166,
        "8244": 247,
        "8245": 43,
        "8246": 255,
        "8247": 175,
        "8248": 83,
        "8249": 123,
        "8250": 230,
        "8251": 55,
        "8252": 196,
        "8253": 135,
        "8254": 107,
        "8255": 164,
        "8256": 124,
        "8257": 124,
        "8258": 108,
        "8259": 30,
        "8260": 174,
        "8261": 69,
        "8262": 70,
        "8263": 83,
        "8264": 248,
        "8265": 160,
        "8266": 143,
        "8267": 61,
        "8268": 230,
        "8269": 23,
        "8270": 58,
        "8271": 38,
        "8272": 231,
        "8273": 243,
        "8274": 119,
        "8275": 82,
        "8276": 73,
        "8277": 129,
        "8278": 197,
        "8279": 198,
        "8280": 79,
        "8281": 154,
        "8282": 140,
        "8283": 117,
        "8284": 230,
        "8285": 172,
        "8286": 221,
        "8287": 131,
        "8288": 153,
        "8289": 12,
        "8290": 76,
        "8291": 6,
        "8292": 134,
        "8293": 168,
        "8294": 106,
        "8295": 207,
        "8296": 117,
        "8297": 53,
        "8298": 151,
        "8299": 191,
        "8300": 63,
        "8301": 169,
        "8302": 134,
        "8303": 126,
        "8304": 81,
        "8305": 139,
        "8306": 202,
        "8307": 64,
        "8308": 183,
        "8309": 50,
        "8310": 192,
        "8311": 68,
        "8312": 33,
        "8313": 179,
        "8314": 224,
        "8315": 234,
        "8316": 158,
        "8317": 233,
        "8318": 152,
        "8319": 202,
        "8320": 26,
        "8321": 221,
        "8322": 172,
        "8323": 76,
        "8324": 50,
        "8325": 69,
        "8326": 70,
        "8327": 131,
        "8328": 214,
        "8329": 243,
        "8330": 152,
        "8331": 69,
        "8332": 239,
        "8333": 100,
        "8334": 35,
        "8335": 82,
        "8336": 99,
        "8337": 127,
        "8338": 240,
        "8339": 45,
        "8340": 57,
        "8341": 200,
        "8342": 171,
        "8343": 78,
        "8344": 97,
        "8345": 216,
        "8346": 213,
        "8347": 151,
        "8348": 158,
        "8349": 136,
        "8350": 180,
        "8351": 89,
        "8352": 42,
        "8353": 79,
        "8354": 74,
        "8355": 69,
        "8356": 48,
        "8357": 50,
        "8358": 224,
        "8359": 185,
        "8360": 213,
        "8361": 60,
        "8362": 133,
        "8363": 160,
        "8364": 185,
        "8365": 118,
        "8366": 66,
        "8367": 33,
        "8368": 43,
        "8369": 199,
        "8370": 136,
        "8371": 108,
        "8372": 13,
        "8373": 154,
        "8374": 26,
        "8375": 213,
        "8376": 53,
        "8377": 223,
        "8378": 129,
        "8379": 74,
        "8380": 130,
        "8381": 45,
        "8382": 234,
        "8383": 43,
        "8384": 170,
        "8385": 203,
        "8386": 123,
        "8387": 73,
        "8388": 145,
        "8389": 220,
        "8390": 251,
        "8391": 203,
        "8392": 215,
        "8393": 177,
        "8394": 160,
        "8395": 232,
        "8396": 46,
        "8397": 4,
        "8398": 55,
        "8399": 230,
        "8400": 226,
        "8401": 245,
        "8402": 156,
        "8403": 0,
        "8404": 220,
        "8405": 154,
        "8406": 64,
        "8407": 89,
        "8408": 184,
        "8409": 156,
        "8410": 209,
        "8411": 197,
        "8412": 234,
        "8413": 160,
        "8414": 39,
        "8415": 160,
        "8416": 173,
        "8417": 234,
        "8418": 52,
        "8419": 224,
        "8420": 35,
        "8421": 134,
        "8422": 184,
        "8423": 195,
        "8424": 228,
        "8425": 85,
        "8426": 241,
        "8427": 139,
        "8428": 104,
        "8429": 79,
        "8430": 220,
        "8431": 111,
        "8432": 150,
        "8433": 113,
        "8434": 247,
        "8435": 36,
        "8436": 176,
        "8437": 141,
        "8438": 42,
        "8439": 69,
        "8440": 238,
        "8441": 8,
        "8442": 158,
        "8443": 52,
        "8444": 32,
        "8445": 61,
        "8446": 1,
        "8447": 52,
        "8448": 35,
        "8449": 165,
        "8450": 38,
        "8451": 59,
        "8452": 240,
        "8453": 1,
        "8454": 177,
        "8455": 176,
        "8456": 79,
        "8457": 19,
        "8458": 229,
        "8459": 127,
        "8460": 193,
        "8461": 9,
        "8462": 54,
        "8463": 70,
        "8464": 226,
        "8465": 163,
        "8466": 249,
        "8467": 79,
        "8468": 135,
        "8469": 166,
        "8470": 55,
        "8471": 93,
        "8472": 65,
        "8473": 253,
        "8474": 144,
        "8475": 49,
        "8476": 169,
        "8477": 244,
        "8478": 116,
        "8479": 59,
        "8480": 155,
        "8481": 103,
        "8482": 244,
        "8483": 64,
        "8484": 90,
        "8485": 52,
        "8486": 223,
        "8487": 80,
        "8488": 31,
        "8489": 131,
        "8490": 185,
        "8491": 96,
        "8492": 7,
        "8493": 88,
        "8494": 123,
        "8495": 229,
        "8496": 15,
        "8497": 165,
        "8498": 2,
        "8499": 208,
        "8500": 61,
        "8501": 242,
        "8502": 226,
        "8503": 253,
        "8504": 32,
        "8505": 149,
        "8506": 252,
        "8507": 78,
        "8508": 170,
        "8509": 204,
        "8510": 217,
        "8511": 67,
        "8512": 138,
        "8513": 154,
        "8514": 107,
        "8515": 159,
        "8516": 254,
        "8517": 157,
        "8518": 69,
        "8519": 5,
        "8520": 15,
        "8521": 129,
        "8522": 86,
        "8523": 62,
        "8524": 144,
        "8525": 117,
        "8526": 147,
        "8527": 152,
        "8528": 11,
        "8529": 24,
        "8530": 242,
        "8531": 96,
        "8532": 249,
        "8533": 65,
        "8534": 31,
        "8535": 66,
        "8536": 120,
        "8537": 19,
        "8538": 169,
        "8539": 66,
        "8540": 61,
        "8541": 247,
        "8542": 198,
        "8543": 202,
        "8544": 130,
        "8545": 254,
        "8546": 69,
        "8547": 184,
        "8548": 16,
        "8549": 165,
        "8550": 249,
        "8551": 174,
        "8552": 126,
        "8553": 222,
        "8554": 28,
        "8555": 57,
        "8556": 114,
        "8557": 105,
        "8558": 81,
        "8559": 38,
        "8560": 170,
        "8561": 219,
        "8562": 157,
        "8563": 37,
        "8564": 193,
        "8565": 45,
        "8566": 24,
        "8567": 105,
        "8568": 71,
        "8569": 173,
        "8570": 6,
        "8571": 118,
        "8572": 58,
        "8573": 183,
        "8574": 146,
        "8575": 0,
        "8576": 253,
        "8577": 149,
        "8578": 74,
        "8579": 131,
        "8580": 67,
        "8581": 172,
        "8582": 106,
        "8583": 57,
        "8584": 131,
        "8585": 192,
        "8586": 149,
        "8587": 12,
        "8588": 7,
        "8589": 225,
        "8590": 1,
        "8591": 73,
        "8592": 211,
        "8593": 111,
        "8594": 17,
        "8595": 233,
        "8596": 144,
        "8597": 78,
        "8598": 198,
        "8599": 169,
        "8600": 124,
        "8601": 157,
        "8602": 99,
        "8603": 108,
        "8604": 88,
        "8605": 76,
        "8606": 161,
        "8607": 246,
        "8608": 111,
        "8609": 121,
        "8610": 205,
        "8611": 83,
        "8612": 40,
        "8613": 122,
        "8614": 224,
        "8615": 173,
        "8616": 92,
        "8617": 15,
        "8618": 101,
        "8619": 201,
        "8620": 143,
        "8621": 160,
        "8622": 223,
        "8623": 54,
        "8624": 248,
        "8625": 39,
        "8626": 247,
        "8627": 158,
        "8628": 7,
        "8629": 48,
        "8630": 181,
        "8631": 13,
        "8632": 235,
        "8633": 158,
        "8634": 161,
        "8635": 240,
        "8636": 175,
        "8637": 56,
        "8638": 15,
        "8639": 127,
        "8640": 26,
        "8641": 228,
        "8642": 53,
        "8643": 47,
        "8644": 242,
        "8645": 60,
        "8646": 155,
        "8647": 152,
        "8648": 123,
        "8649": 35,
        "8650": 73,
        "8651": 193,
        "8652": 194,
        "8653": 53,
        "8654": 249,
        "8655": 154,
        "8656": 204,
        "8657": 89,
        "8658": 26,
        "8659": 213,
        "8660": 37,
        "8661": 178,
        "8662": 213,
        "8663": 190,
        "8664": 187,
        "8665": 203,
        "8666": 57,
        "8667": 36,
        "8668": 168,
        "8669": 25,
        "8670": 6,
        "8671": 150,
        "8672": 87,
        "8673": 81,
        "8674": 128,
        "8675": 58,
        "8676": 218,
        "8677": 214,
        "8678": 178,
        "8679": 111,
        "8680": 57,
        "8681": 226,
        "8682": 97,
        "8683": 36,
        "8684": 180,
        "8685": 226,
        "8686": 104,
        "8687": 186,
        "8688": 62,
        "8689": 139,
        "8690": 15,
        "8691": 63,
        "8692": 208,
        "8693": 201,
        "8694": 52,
        "8695": 170,
        "8696": 90,
        "8697": 11,
        "8698": 18,
        "8699": 89,
        "8700": 152,
        "8701": 104,
        "8702": 106,
        "8703": 117,
        "8704": 120,
        "8705": 25,
        "8706": 254,
        "8707": 95,
        "8708": 39,
        "8709": 72,
        "8710": 214,
        "8711": 203,
        "8712": 227,
        "8713": 210,
        "8714": 121,
        "8715": 240,
        "8716": 187,
        "8717": 236,
        "8718": 197,
        "8719": 138,
        "8720": 139,
        "8721": 123,
        "8722": 122,
        "8723": 72,
        "8724": 151,
        "8725": 112,
        "8726": 25,
        "8727": 21,
        "8728": 243,
        "8729": 57,
        "8730": 42,
        "8731": 231,
        "8732": 90,
        "8733": 170,
        "8734": 252,
        "8735": 204,
        "8736": 12,
        "8737": 43,
        "8738": 36,
        "8739": 37,
        "8740": 180,
        "8741": 8,
        "8742": 69,
        "8743": 93,
        "8744": 120,
        "8745": 120,
        "8746": 233,
        "8747": 19,
        "8748": 156,
        "8749": 219,
        "8750": 169,
        "8751": 22,
        "8752": 29,
        "8753": 213,
        "8754": 122,
        "8755": 33,
        "8756": 144,
        "8757": 24,
        "8758": 112,
        "8759": 58,
        "8760": 230,
        "8761": 171,
        "8762": 189,
        "8763": 87,
        "8764": 3,
        "8765": 54,
        "8766": 196,
        "8767": 102,
        "8768": 82,
        "8769": 13,
        "8770": 14,
        "8771": 61,
        "8772": 2,
        "8773": 5,
        "8774": 167,
        "8775": 203,
        "8776": 74,
        "8777": 57,
        "8778": 15,
        "8779": 106,
        "8780": 52,
        "8781": 194,
        "8782": 16,
        "8783": 196,
        "8784": 110,
        "8785": 187,
        "8786": 61,
        "8787": 127,
        "8788": 46,
        "8789": 249,
        "8790": 153,
        "8791": 202,
        "8792": 3,
        "8793": 91,
        "8794": 71,
        "8795": 55,
        "8796": 38,
        "8797": 56,
        "8798": 45,
        "8799": 124,
        "8800": 85,
        "8801": 13,
        "8802": 212,
        "8803": 18,
        "8804": 138,
        "8805": 1,
        "8806": 200,
        "8807": 158,
        "8808": 93,
        "8809": 181,
        "8810": 208,
        "8811": 185,
        "8812": 8,
        "8813": 194,
        "8814": 131,
        "8815": 18,
        "8816": 249,
        "8817": 39,
        "8818": 237,
        "8819": 172,
        "8820": 137,
        "8821": 43,
        "8822": 130,
        "8823": 248,
        "8824": 143,
        "8825": 117,
        "8826": 73,
        "8827": 134,
        "8828": 156,
        "8829": 4,
        "8830": 71,
        "8831": 136,
        "8832": 123,
        "8833": 106,
        "8834": 51,
        "8835": 54,
        "8836": 5,
        "8837": 239,
        "8838": 138,
        "8839": 188,
        "8840": 232,
        "8841": 103,
        "8842": 89,
        "8843": 207,
        "8844": 175,
        "8845": 177,
        "8846": 44,
        "8847": 27,
        "8848": 237,
        "8849": 22,
        "8850": 150,
        "8851": 155,
        "8852": 21,
        "8853": 253,
        "8854": 194,
        "8855": 151,
        "8856": 114,
        "8857": 214,
        "8858": 107,
        "8859": 28,
        "8860": 228,
        "8861": 126,
        "8862": 205,
        "8863": 73,
        "8864": 219,
        "8865": 227,
        "8866": 137,
        "8867": 209,
        "8868": 164,
        "8869": 31,
        "8870": 68,
        "8871": 202,
        "8872": 70,
        "8873": 77,
        "8874": 102,
        "8875": 55,
        "8876": 22,
        "8877": 69,
        "8878": 151,
        "8879": 186,
        "8880": 147,
        "8881": 10,
        "8882": 163,
        "8883": 201,
        "8884": 55,
        "8885": 136,
        "8886": 80,
        "8887": 121,
        "8888": 224,
        "8889": 146,
        "8890": 245,
        "8891": 182,
        "8892": 107,
        "8893": 205,
        "8894": 129,
        "8895": 2,
        "8896": 126,
        "8897": 119,
        "8898": 239,
        "8899": 178,
        "8900": 122,
        "8901": 211,
        "8902": 46,
        "8903": 43,
        "8904": 132,
        "8905": 234,
        "8906": 75,
        "8907": 203,
        "8908": 145,
        "8909": 180,
        "8910": 252,
        "8911": 255,
        "8912": 252,
        "8913": 161,
        "8914": 87,
        "8915": 205,
        "8916": 248,
        "8917": 105,
        "8918": 46,
        "8919": 35,
        "8920": 172,
        "8921": 105,
        "8922": 222,
        "8923": 247,
        "8924": 163,
        "8925": 249,
        "8926": 142,
        "8927": 4,
        "8928": 20,
        "8929": 216,
        "8930": 134,
        "8931": 127,
        "8932": 251,
        "8933": 154,
        "8934": 25,
        "8935": 33,
        "8936": 188,
        "8937": 194,
        "8938": 229,
        "8939": 3,
        "8940": 214,
        "8941": 93,
        "8942": 224,
        "8943": 106,
        "8944": 31,
        "8945": 231,
        "8946": 146,
        "8947": 222,
        "8948": 226,
        "8949": 124,
        "8950": 202,
        "8951": 205,
        "8952": 162,
        "8953": 111,
        "8954": 217,
        "8955": 26,
        "8956": 132,
        "8957": 167,
        "8958": 131,
        "8959": 238,
        "8960": 147,
        "8961": 88,
        "8962": 202,
        "8963": 148,
        "8964": 68,
        "8965": 69,
        "8966": 45,
        "8967": 225,
        "8968": 51,
        "8969": 121,
        "8970": 89,
        "8971": 153,
        "8972": 52,
        "8973": 209,
        "8974": 151,
        "8975": 11,
        "8976": 223,
        "8977": 20,
        "8978": 240,
        "8979": 100,
        "8980": 67,
        "8981": 181,
        "8982": 7,
        "8983": 145,
        "8984": 174,
        "8985": 72,
        "8986": 13,
        "8987": 107,
        "8988": 255,
        "8989": 96,
        "8990": 160,
        "8991": 87,
        "8992": 13,
        "8993": 28,
        "8994": 248,
        "8995": 245,
        "8996": 44,
        "8997": 12,
        "8998": 54,
        "8999": 14,
        "9000": 227,
        "9001": 226,
        "9002": 53,
        "9003": 176,
        "9004": 245,
        "9005": 49,
        "9006": 15,
        "9007": 182,
        "9008": 199,
        "9009": 202,
        "9010": 42,
        "9011": 188,
        "9012": 228,
        "9013": 200,
        "9014": 216,
        "9015": 37,
        "9016": 106,
        "9017": 58,
        "9018": 6,
        "9019": 112,
        "9020": 72,
        "9021": 128,
        "9022": 77,
        "9023": 200,
        "9024": 205,
        "9025": 211,
        "9026": 254,
        "9027": 66,
        "9028": 180,
        "9029": 119,
        "9030": 240,
        "9031": 156,
        "9032": 25,
        "9033": 106,
        "9034": 141,
        "9035": 48,
        "9036": 192,
        "9037": 67,
        "9038": 164,
        "9039": 119,
        "9040": 132,
        "9041": 212,
        "9042": 107,
        "9043": 203,
        "9044": 58,
        "9045": 201,
        "9046": 127,
        "9047": 104,
        "9048": 152,
        "9049": 51,
        "9050": 34,
        "9051": 89,
        "9052": 117,
        "9053": 89,
        "9054": 231,
        "9055": 205,
        "9056": 98,
        "9057": 193,
        "9058": 89,
        "9059": 52,
        "9060": 244,
        "9061": 215,
        "9062": 32,
        "9063": 204,
        "9064": 104,
        "9065": 250,
        "9066": 9,
        "9067": 231,
        "9068": 84,
        "9069": 164,
        "9070": 189,
        "9071": 95,
        "9072": 156,
        "9073": 162,
        "9074": 141,
        "9075": 205,
        "9076": 17,
        "9077": 179,
        "9078": 49,
        "9079": 228,
        "9080": 215,
        "9081": 185,
        "9082": 208,
        "9083": 81,
        "9084": 188,
        "9085": 248,
        "9086": 103,
        "9087": 110,
        "9088": 89,
        "9089": 159,
        "9090": 238,
        "9091": 182,
        "9092": 188,
        "9093": 94,
        "9094": 235,
        "9095": 63,
        "9096": 168,
        "9097": 193,
        "9098": 70,
        "9099": 169,
        "9100": 112,
        "9101": 108,
        "9102": 234,
        "9103": 231,
        "9104": 44,
        "9105": 44,
        "9106": 78,
        "9107": 220,
        "9108": 193,
        "9109": 180,
        "9110": 230,
        "9111": 153,
        "9112": 16,
        "9113": 81,
        "9114": 167,
        "9115": 8,
        "9116": 26,
        "9117": 130,
        "9118": 157,
        "9119": 12,
        "9120": 58,
        "9121": 144,
        "9122": 199,
        "9123": 110,
        "9124": 51,
        "9125": 83,
        "9126": 32,
        "9127": 192,
        "9128": 60,
        "9129": 7,
        "9130": 230,
        "9131": 25,
        "9132": 23,
        "9133": 39,
        "9134": 110,
        "9135": 98,
        "9136": 165,
        "9137": 149,
        "9138": 157,
        "9139": 161,
        "9140": 153,
        "9141": 75,
        "9142": 12,
        "9143": 206,
        "9144": 9,
        "9145": 57,
        "9146": 44,
        "9147": 58,
        "9148": 62,
        "9149": 162,
        "9150": 32,
        "9151": 220,
        "9152": 1,
        "9153": 121,
        "9154": 205,
        "9155": 236,
        "9156": 246,
        "9157": 81,
        "9158": 242,
        "9159": 195,
        "9160": 119,
        "9161": 254,
        "9162": 114,
        "9163": 114,
        "9164": 189,
        "9165": 215,
        "9166": 62,
        "9167": 150,
        "9168": 146,
        "9169": 251,
        "9170": 191,
        "9171": 185,
        "9172": 14,
        "9173": 165,
        "9174": 251,
        "9175": 32,
        "9176": 97,
        "9177": 179,
        "9178": 71,
        "9179": 176,
        "9180": 141,
        "9181": 220,
        "9182": 58,
        "9183": 248,
        "9184": 188,
        "9185": 185,
        "9186": 127,
        "9187": 114,
        "9188": 154,
        "9189": 140,
        "9190": 107,
        "9191": 84,
        "9192": 88,
        "9193": 34,
        "9194": 102,
        "9195": 56,
        "9196": 130,
        "9197": 127,
        "9198": 112,
        "9199": 204,
        "9200": 163,
        "9201": 8,
        "9202": 116,
        "9203": 147,
        "9204": 237,
        "9205": 39,
        "9206": 60,
        "9207": 65,
        "9208": 77,
        "9209": 140,
        "9210": 113,
        "9211": 245,
        "9212": 27,
        "9213": 253,
        "9214": 188,
        "9215": 131,
        "9216": 47,
        "9217": 79,
        "9218": 79,
        "9219": 117,
        "9220": 12,
        "9221": 136,
        "9222": 124,
        "9223": 134,
        "9224": 168,
        "9225": 246,
        "9226": 113,
        "9227": 116,
        "9228": 83,
        "9229": 166,
        "9230": 99,
        "9231": 151,
        "9232": 140,
        "9233": 163,
        "9234": 20,
        "9235": 113,
        "9236": 79,
        "9237": 1,
        "9238": 137,
        "9239": 227,
        "9240": 238,
        "9241": 157,
        "9242": 35,
        "9243": 137,
        "9244": 41,
        "9245": 236,
        "9246": 234,
        "9247": 2,
        "9248": 167,
        "9249": 112,
        "9250": 229,
        "9251": 10,
        "9252": 93,
        "9253": 108,
        "9254": 136,
        "9255": 155,
        "9256": 178,
        "9257": 92,
        "9258": 107,
        "9259": 198,
        "9260": 149,
        "9261": 108,
        "9262": 122,
        "9263": 9,
        "9264": 223,
        "9265": 86,
        "9266": 80,
        "9267": 205,
        "9268": 140,
        "9269": 49,
        "9270": 137,
        "9271": 186,
        "9272": 0,
        "9273": 24,
        "9274": 85,
        "9275": 18,
        "9276": 17,
        "9277": 185,
        "9278": 187,
        "9279": 225,
        "9280": 57,
        "9281": 94,
        "9282": 116,
        "9283": 227,
        "9284": 106,
        "9285": 201,
        "9286": 240,
        "9287": 67,
        "9288": 253,
        "9289": 55,
        "9290": 51,
        "9291": 153,
        "9292": 45,
        "9293": 185,
        "9294": 86,
        "9295": 148,
        "9296": 207,
        "9297": 88,
        "9298": 245,
        "9299": 109,
        "9300": 131,
        "9301": 181,
        "9302": 49,
        "9303": 140,
        "9304": 31,
        "9305": 112,
        "9306": 241,
        "9307": 238,
        "9308": 54,
        "9309": 0,
        "9310": 171,
        "9311": 211,
        "9312": 155,
        "9313": 168,
        "9314": 49,
        "9315": 60,
        "9316": 53,
        "9317": 99,
        "9318": 92,
        "9319": 203,
        "9320": 226,
        "9321": 86,
        "9322": 0,
        "9323": 182,
        "9324": 190,
        "9325": 192,
        "9326": 102,
        "9327": 222,
        "9328": 156,
        "9329": 82,
        "9330": 7,
        "9331": 13,
        "9332": 188,
        "9333": 26,
        "9334": 128,
        "9335": 19,
        "9336": 87,
        "9337": 40,
        "9338": 219,
        "9339": 117,
        "9340": 72,
        "9341": 141,
        "9342": 37,
        "9343": 210,
        "9344": 106,
        "9345": 79,
        "9346": 104,
        "9347": 161,
        "9348": 91,
        "9349": 13,
        "9350": 193,
        "9351": 98,
        "9352": 146,
        "9353": 106,
        "9354": 70,
        "9355": 233,
        "9356": 248,
        "9357": 186,
        "9358": 65,
        "9359": 173,
        "9360": 218,
        "9361": 240,
        "9362": 64,
        "9363": 2,
        "9364": 40,
        "9365": 234,
        "9366": 48,
        "9367": 64,
        "9368": 197,
        "9369": 111,
        "9370": 50,
        "9371": 48,
        "9372": 25,
        "9373": 0,
        "9374": 134,
        "9375": 21,
        "9376": 17,
        "9377": 63,
        "9378": 232,
        "9379": 68,
        "9380": 51,
        "9381": 76,
        "9382": 8,
        "9383": 57,
        "9384": 43,
        "9385": 73,
        "9386": 97,
        "9387": 220,
        "9388": 80,
        "9389": 61,
        "9390": 43,
        "9391": 143,
        "9392": 137,
        "9393": 37,
        "9394": 64,
        "9395": 136,
        "9396": 134,
        "9397": 150,
        "9398": 182,
        "9399": 230,
        "9400": 138,
        "9401": 35,
        "9402": 25,
        "9403": 54,
        "9404": 182,
        "9405": 240,
        "9406": 44,
        "9407": 253,
        "9408": 71,
        "9409": 96,
        "9410": 60,
        "9411": 214,
        "9412": 118,
        "9413": 232,
        "9414": 128,
        "9415": 47,
        "9416": 230,
        "9417": 69,
        "9418": 230,
        "9419": 187,
        "9420": 150,
        "9421": 55,
        "9422": 78,
        "9423": 121,
        "9424": 172,
        "9425": 247,
        "9426": 143,
        "9427": 194,
        "9428": 166,
        "9429": 190,
        "9430": 6,
        "9431": 60,
        "9432": 15,
        "9433": 244,
        "9434": 206,
        "9435": 195,
        "9436": 245,
        "9437": 75,
        "9438": 145,
        "9439": 25,
        "9440": 62,
        "9441": 149,
        "9442": 185,
        "9443": 64,
        "9444": 102,
        "9445": 249,
        "9446": 206,
        "9447": 19,
        "9448": 94,
        "9449": 96,
        "9450": 88,
        "9451": 141,
        "9452": 230,
        "9453": 250,
        "9454": 242,
        "9455": 106,
        "9456": 41,
        "9457": 34,
        "9458": 96,
        "9459": 248,
        "9460": 159,
        "9461": 116,
        "9462": 123,
        "9463": 89,
        "9464": 94,
        "9465": 133,
        "9466": 185,
        "9467": 160,
        "9468": 234,
        "9469": 73,
        "9470": 103,
        "9471": 100,
        "9472": 185,
        "9473": 173,
        "9474": 113,
        "9475": 129,
        "9476": 237,
        "9477": 60,
        "9478": 198,
        "9479": 99,
        "9480": 210,
        "9481": 140,
        "9482": 238,
        "9483": 73,
        "9484": 115,
        "9485": 49,
        "9486": 13,
        "9487": 248,
        "9488": 7,
        "9489": 12,
        "9490": 19,
        "9491": 71,
        "9492": 250,
        "9493": 108,
        "9494": 166,
        "9495": 220,
        "9496": 123,
        "9497": 154,
        "9498": 107,
        "9499": 226,
        "9500": 97,
        "9501": 189,
        "9502": 113,
        "9503": 14,
        "9504": 54,
        "9505": 252,
        "9506": 165,
        "9507": 150,
        "9508": 50,
        "9509": 195,
        "9510": 246,
        "9511": 107,
        "9512": 195,
        "9513": 221,
        "9514": 132,
        "9515": 187,
        "9516": 186,
        "9517": 251,
        "9518": 211,
        "9519": 148,
        "9520": 172,
        "9521": 215,
        "9522": 170,
        "9523": 120,
        "9524": 43,
        "9525": 114,
        "9526": 82,
        "9527": 102,
        "9528": 184,
        "9529": 171,
        "9530": 116,
        "9531": 231,
        "9532": 169,
        "9533": 40,
        "9534": 238,
        "9535": 75,
        "9536": 20,
        "9537": 121,
        "9538": 77,
        "9539": 16,
        "9540": 209,
        "9541": 55,
        "9542": 124,
        "9543": 139,
        "9544": 116,
        "9545": 199,
        "9546": 196,
        "9547": 188,
        "9548": 29,
        "9549": 43,
        "9550": 38,
        "9551": 177,
        "9552": 196,
        "9553": 5,
        "9554": 203,
        "9555": 245,
        "9556": 161,
        "9557": 203,
        "9558": 238,
        "9559": 203,
        "9560": 46,
        "9561": 119,
        "9562": 217,
        "9563": 159,
        "9564": 130,
        "9565": 100,
        "9566": 19,
        "9567": 213,
        "9568": 58,
        "9569": 217,
        "9570": 9,
        "9571": 75,
        "9572": 120,
        "9573": 49,
        "9574": 144,
        "9575": 94,
        "9576": 255,
        "9577": 243,
        "9578": 19,
        "9579": 91,
        "9580": 241,
        "9581": 148,
        "9582": 15,
        "9583": 210,
        "9584": 160,
        "9585": 87,
        "9586": 255,
        "9587": 64,
        "9588": 36,
        "9589": 116,
        "9590": 167,
        "9591": 18,
        "9592": 90,
        "9593": 66,
        "9594": 253,
        "9595": 110,
        "9596": 255,
        "9597": 60,
        "9598": 122,
        "9599": 35,
        "9600": 21,
        "9601": 5,
        "9602": 129,
        "9603": 253,
        "9604": 255,
        "9605": 37,
        "9606": 66,
        "9607": 162,
        "9608": 103,
        "9609": 5,
        "9610": 176,
        "9611": 161,
        "9612": 105,
        "9613": 231,
        "9614": 136,
        "9615": 91,
        "9616": 230,
        "9617": 49,
        "9618": 32,
        "9619": 88,
        "9620": 57,
        "9621": 168,
        "9622": 64,
        "9623": 36,
        "9624": 13,
        "9625": 181,
        "9626": 237,
        "9627": 205,
        "9628": 204,
        "9629": 219,
        "9630": 239,
        "9631": 40,
        "9632": 72,
        "9633": 65,
        "9634": 5,
        "9635": 73,
        "9636": 201,
        "9637": 254,
        "9638": 224,
        "9639": 27,
        "9640": 249,
        "9641": 82,
        "9642": 234,
        "9643": 128,
        "9644": 230,
        "9645": 216,
        "9646": 222,
        "9647": 98,
        "9648": 217,
        "9649": 199,
        "9650": 47,
        "9651": 94,
        "9652": 85,
        "9653": 223,
        "9654": 13,
        "9655": 203,
        "9656": 187,
        "9657": 36,
        "9658": 39,
        "9659": 118,
        "9660": 57,
        "9661": 182,
        "9662": 165,
        "9663": 159,
        "9664": 21,
        "9665": 110,
        "9666": 165,
        "9667": 122,
        "9668": 253,
        "9669": 252,
        "9670": 161,
        "9671": 215,
        "9672": 133,
        "9673": 224,
        "9674": 76,
        "9675": 62,
        "9676": 48,
        "9677": 160,
        "9678": 230,
        "9679": 250,
        "9680": 213,
        "9681": 116,
        "9682": 134,
        "9683": 243,
        "9684": 140,
        "9685": 96,
        "9686": 222,
        "9687": 108,
        "9688": 201,
        "9689": 211,
        "9690": 14,
        "9691": 232,
        "9692": 132,
        "9693": 146,
        "9694": 90,
        "9695": 101,
        "9696": 127,
        "9697": 68,
        "9698": 187,
        "9699": 190,
        "9700": 242,
        "9701": 191,
        "9702": 45,
        "9703": 128,
        "9704": 102,
        "9705": 166,
        "9706": 139,
        "9707": 213,
        "9708": 0,
        "9709": 96,
        "9710": 88,
        "9711": 88,
        "9712": 4,
        "9713": 70,
        "9714": 145,
        "9715": 73,
        "9716": 23,
        "9717": 144,
        "9718": 232,
        "9719": 146,
        "9720": 84,
        "9721": 15,
        "9722": 5,
        "9723": 232,
        "9724": 250,
        "9725": 219,
        "9726": 228,
        "9727": 0,
        "9728": 21,
        "9729": 124,
        "9730": 150,
        "9731": 59,
        "9732": 51,
        "9733": 37,
        "9734": 214,
        "9735": 62,
        "9736": 154,
        "9737": 195,
        "9738": 85,
        "9739": 171,
        "9740": 3,
        "9741": 19,
        "9742": 61,
        "9743": 172,
        "9744": 221,
        "9745": 4,
        "9746": 78,
        "9747": 217,
        "9748": 82,
        "9749": 78,
        "9750": 54,
        "9751": 168,
        "9752": 56,
        "9753": 29,
        "9754": 249,
        "9755": 226,
        "9756": 195,
        "9757": 110,
        "9758": 91,
        "9759": 250,
        "9760": 251,
        "9761": 186,
        "9762": 151,
        "9763": 75,
        "9764": 245,
        "9765": 93,
        "9766": 17,
        "9767": 230,
        "9768": 20,
        "9769": 51,
        "9770": 38,
        "9771": 147,
        "9772": 237,
        "9773": 49,
        "9774": 76,
        "9775": 244,
        "9776": 10,
        "9777": 34,
        "9778": 110,
        "9779": 56,
        "9780": 17,
        "9781": 110,
        "9782": 16,
        "9783": 125,
        "9784": 25,
        "9785": 246,
        "9786": 223,
        "9787": 33,
        "9788": 145,
        "9789": 66,
        "9790": 99,
        "9791": 185,
        "9792": 18,
        "9793": 108,
        "9794": 33,
        "9795": 212,
        "9796": 119,
        "9797": 1,
        "9798": 247,
        "9799": 255,
        "9800": 80,
        "9801": 146,
        "9802": 9,
        "9803": 27,
        "9804": 167,
        "9805": 138,
        "9806": 155,
        "9807": 112,
        "9808": 211,
        "9809": 75,
        "9810": 140,
        "9811": 161,
        "9812": 69,
        "9813": 206,
        "9814": 48,
        "9815": 87,
        "9816": 145,
        "9817": 231,
        "9818": 55,
        "9819": 111,
        "9820": 166,
        "9821": 110,
        "9822": 26,
        "9823": 247,
        "9824": 79,
        "9825": 159,
        "9826": 235,
        "9827": 200,
        "9828": 163,
        "9829": 91,
        "9830": 192,
        "9831": 166,
        "9832": 242,
        "9833": 24,
        "9834": 125,
        "9835": 243,
        "9836": 249,
        "9837": 63,
        "9838": 11,
        "9839": 121,
        "9840": 220,
        "9841": 222,
        "9842": 109,
        "9843": 74,
        "9844": 64,
        "9845": 6,
        "9846": 25,
        "9847": 149,
        "9848": 221,
        "9849": 31,
        "9850": 22,
        "9851": 114,
        "9852": 63,
        "9853": 76,
        "9854": 35,
        "9855": 31,
        "9856": 180,
        "9857": 160,
        "9858": 54,
        "9859": 48,
        "9860": 188,
        "9861": 65,
        "9862": 219,
        "9863": 192,
        "9864": 164,
        "9865": 79,
        "9866": 136,
        "9867": 189,
        "9868": 214,
        "9869": 174,
        "9870": 134,
        "9871": 113,
        "9872": 187,
        "9873": 175,
        "9874": 74,
        "9875": 93,
        "9876": 47,
        "9877": 189,
        "9878": 5,
        "9879": 73,
        "9880": 53,
        "9881": 158,
        "9882": 31,
        "9883": 239,
        "9884": 32,
        "9885": 153,
        "9886": 127,
        "9887": 127,
        "9888": 162,
        "9889": 103,
        "9890": 205,
        "9891": 5,
        "9892": 138,
        "9893": 235,
        "9894": 194,
        "9895": 87,
        "9896": 235,
        "9897": 60,
        "9898": 224,
        "9899": 34,
        "9900": 74,
        "9901": 35,
        "9902": 193,
        "9903": 176,
        "9904": 80,
        "9905": 158,
        "9906": 245,
        "9907": 150,
        "9908": 234,
        "9909": 100,
        "9910": 90,
        "9911": 229,
        "9912": 81,
        "9913": 82,
        "9914": 197,
        "9915": 236,
        "9916": 166,
        "9917": 55,
        "9918": 7,
        "9919": 51,
        "9920": 96,
        "9921": 187,
        "9922": 104,
        "9923": 52,
        "9924": 37,
        "9925": 219,
        "9926": 252,
        "9927": 213,
        "9928": 3,
        "9929": 32,
        "9930": 115,
        "9931": 27,
        "9932": 121,
        "9933": 177,
        "9934": 147,
        "9935": 67,
        "9936": 125,
        "9937": 135,
        "9938": 22,
        "9939": 65,
        "9940": 56,
        "9941": 175,
        "9942": 11,
        "9943": 224,
        "9944": 46,
        "9945": 124,
        "9946": 84,
        "9947": 53,
        "9948": 163,
        "9949": 70,
        "9950": 33,
        "9951": 16,
        "9952": 74,
        "9953": 52,
        "9954": 212,
        "9955": 128,
        "9956": 146,
        "9957": 241,
        "9958": 21,
        "9959": 253,
        "9960": 232,
        "9961": 55,
        "9962": 230,
        "9963": 213,
        "9964": 44,
        "9965": 91,
        "9966": 119,
        "9967": 219,
        "9968": 244,
        "9969": 253,
        "9970": 126,
        "9971": 224,
        "9972": 225,
        "9973": 52,
        "9974": 72,
        "9975": 70,
        "9976": 46,
        "9977": 140,
        "9978": 61,
        "9979": 214,
        "9980": 16,
        "9981": 175,
        "9982": 245,
        "9983": 55,
        "9984": 27,
        "9985": 215,
        "9986": 176,
        "9987": 37,
        "9988": 215,
        "9989": 63,
        "9990": 75,
        "9991": 96,
        "9992": 219,
        "9993": 210,
        "9994": 172,
        "9995": 149,
        "9996": 203,
        "9997": 11,
        "9998": 9,
        "9999": 162,
        "10000": 62,
        "10001": 7,
        "10002": 157,
        "10003": 96,
        "10004": 217,
        "10005": 118,
        "10006": 90,
        "10007": 97,
        "10008": 191,
        "10009": 3,
        "10010": 65,
        "10011": 31,
        "10012": 214,
        "10013": 238,
        "10014": 52,
        "10015": 51,
        "10016": 195,
        "10017": 24,
        "10018": 19,
        "10019": 117,
        "10020": 137,
        "10021": 234,
        "10022": 226,
        "10023": 89,
        "10024": 236,
        "10025": 20,
        "10026": 174,
        "10027": 6,
        "10028": 123,
        "10029": 239,
        "10030": 171,
        "10031": 117,
        "10032": 120,
        "10033": 152,
        "10034": 169,
        "10035": 19,
        "10036": 229,
        "10037": 143,
        "10038": 179,
        "10039": 26,
        "10040": 186,
        "10041": 118,
        "10042": 238,
        "10043": 188,
        "10044": 151,
        "10045": 8,
        "10046": 45,
        "10047": 215,
        "10048": 242,
        "10049": 237,
        "10050": 42,
        "10051": 105,
        "10052": 182,
        "10053": 181,
        "10054": 135,
        "10055": 50,
        "10056": 235,
        "10057": 171,
        "10058": 58,
        "10059": 88,
        "10060": 105,
        "10061": 106,
        "10062": 10,
        "10063": 183,
        "10064": 11,
        "10065": 145,
        "10066": 206,
        "10067": 239,
        "10068": 82,
        "10069": 41,
        "10070": 105,
        "10071": 218,
        "10072": 216,
        "10073": 100,
        "10074": 32,
        "10075": 193,
        "10076": 220,
        "10077": 150,
        "10078": 168,
        "10079": 211,
        "10080": 206,
        "10081": 54,
        "10082": 151,
        "10083": 224,
        "10084": 101,
        "10085": 118,
        "10086": 173,
        "10087": 53,
        "10088": 216,
        "10089": 79,
        "10090": 253,
        "10091": 225,
        "10092": 75,
        "10093": 99,
        "10094": 25,
        "10095": 117,
        "10096": 71,
        "10097": 90,
        "10098": 137,
        "10099": 24,
        "10100": 155,
        "10101": 201,
        "10102": 29,
        "10103": 106,
        "10104": 43,
        "10105": 176,
        "10106": 219,
        "10107": 65,
        "10108": 166,
        "10109": 211,
        "10110": 84,
        "10111": 151,
        "10112": 83,
        "10113": 187,
        "10114": 141,
        "10115": 180,
        "10116": 188,
        "10117": 180,
        "10118": 129,
        "10119": 43,
        "10120": 30,
        "10121": 227,
        "10122": 57,
        "10123": 184,
        "10124": 229,
        "10125": 223,
        "10126": 219,
        "10127": 105,
        "10128": 253,
        "10129": 107,
        "10130": 47,
        "10131": 138,
        "10132": 104,
        "10133": 38,
        "10134": 50,
        "10135": 152,
        "10136": 14,
        "10137": 196,
        "10138": 152,
        "10139": 191,
        "10140": 133,
        "10141": 244,
        "10142": 122,
        "10143": 188,
        "10144": 195,
        "10145": 7,
        "10146": 120,
        "10147": 255,
        "10148": 148,
        "10149": 143,
        "10150": 60,
        "10151": 255,
        "10152": 136,
        "10153": 102,
        "10154": 135,
        "10155": 60,
        "10156": 233,
        "10157": 57,
        "10158": 247,
        "10159": 172,
        "10160": 205,
        "10161": 185,
        "10162": 210,
        "10163": 37,
        "10164": 57,
        "10165": 82,
        "10166": 31,
        "10167": 48,
        "10168": 216,
        "10169": 224,
        "10170": 24,
        "10171": 211,
        "10172": 194,
        "10173": 29,
        "10174": 182,
        "10175": 169,
        "10176": 239,
        "10177": 231,
        "10178": 232,
        "10179": 28,
        "10180": 203,
        "10181": 12,
        "10182": 10,
        "10183": 58,
        "10184": 158,
        "10185": 230,
        "10186": 9,
        "10187": 20,
        "10188": 193,
        "10189": 213,
        "10190": 106,
        "10191": 15,
        "10192": 69,
        "10193": 74,
        "10194": 27,
        "10195": 174,
        "10196": 160,
        "10197": 140,
        "10198": 64,
        "10199": 248,
        "10200": 12,
        "10201": 109,
        "10202": 142,
        "10203": 234,
        "10204": 244,
        "10205": 163,
        "10206": 4,
        "10207": 21,
        "10208": 146,
        "10209": 215,
        "10210": 221,
        "10211": 43,
        "10212": 247,
        "10213": 195,
        "10214": 119,
        "10215": 214,
        "10216": 197,
        "10217": 202,
        "10218": 172,
        "10219": 219,
        "10220": 90,
        "10221": 68,
        "10222": 170,
        "10223": 59,
        "10224": 69,
        "10225": 89,
        "10226": 173,
        "10227": 62,
        "10228": 194,
        "10229": 58,
        "10230": 230,
        "10231": 99,
        "10232": 243,
        "10233": 88,
        "10234": 30,
        "10235": 171,
        "10236": 159,
        "10237": 105,
        "10238": 82,
        "10239": 128,
        "10240": 241,
        "10241": 190,
        "10242": 233,
        "10243": 163,
        "10244": 163,
        "10245": 83,
        "10246": 126,
        "10247": 89,
        "10248": 223,
        "10249": 179,
        "10250": 175,
        "10251": 235,
        "10252": 157,
        "10253": 245,
        "10254": 228,
        "10255": 240,
        "10256": 90,
        "10257": 21,
        "10258": 103,
        "10259": 59,
        "10260": 43,
        "10261": 159,
        "10262": 159,
        "10263": 141,
        "10264": 193,
        "10265": 230,
        "10266": 10,
        "10267": 67,
        "10268": 101,
        "10269": 95,
        "10270": 186,
        "10271": 89,
        "10272": 245,
        "10273": 158,
        "10274": 241,
        "10275": 20,
        "10276": 168,
        "10277": 89,
        "10278": 99,
        "10279": 59,
        "10280": 114,
        "10281": 27,
        "10282": 39,
        "10283": 149,
        "10284": 215,
        "10285": 250,
        "10286": 13,
        "10287": 17,
        "10288": 206,
        "10289": 18,
        "10290": 189,
        "10291": 237,
        "10292": 172,
        "10293": 136,
        "10294": 55,
        "10295": 230,
        "10296": 250,
        "10297": 225,
        "10298": 178,
        "10299": 2,
        "10300": 206,
        "10301": 216,
        "10302": 236,
        "10303": 250,
        "10304": 244,
        "10305": 76,
        "10306": 237,
        "10307": 30,
        "10308": 245,
        "10309": 203,
        "10310": 213,
        "10311": 164,
        "10312": 239,
        "10313": 41,
        "10314": 104,
        "10315": 122,
        "10316": 98,
        "10317": 164,
        "10318": 64,
        "10319": 181,
        "10320": 238,
        "10321": 184,
        "10322": 163,
        "10323": 246,
        "10324": 35,
        "10325": 52,
        "10326": 4,
        "10327": 186,
        "10328": 220,
        "10329": 53,
        "10330": 53,
        "10331": 99,
        "10332": 235,
        "10333": 231,
        "10334": 232,
        "10335": 238,
        "10336": 231,
        "10337": 239,
        "10338": 53,
        "10339": 221,
        "10340": 14,
        "10341": 133,
        "10342": 32,
        "10343": 160,
        "10344": 183,
        "10345": 26,
        "10346": 158,
        "10347": 13,
        "10348": 114,
        "10349": 122,
        "10350": 84,
        "10351": 117,
        "10352": 169,
        "10353": 28,
        "10354": 144,
        "10355": 129,
        "10356": 166,
        "10357": 225,
        "10358": 254,
        "10359": 136,
        "10360": 146,
        "10361": 27,
        "10362": 63,
        "10363": 67,
        "10364": 130,
        "10365": 128,
        "10366": 196,
        "10367": 120,
        "10368": 136,
        "10369": 213,
        "10370": 57,
        "10371": 0,
        "10372": 168,
        "10373": 116,
        "10374": 109,
        "10375": 26,
        "10376": 82,
        "10377": 20,
        "10378": 91,
        "10379": 69,
        "10380": 22,
        "10381": 151,
        "10382": 161,
        "10383": 164,
        "10384": 106,
        "10385": 135,
        "10386": 2,
        "10387": 39,
        "10388": 128,
        "10389": 142,
        "10390": 161,
        "10391": 212,
        "10392": 57,
        "10393": 163,
        "10394": 80,
        "10395": 171,
        "10396": 177,
        "10397": 233,
        "10398": 36,
        "10399": 29,
        "10400": 66,
        "10401": 55,
        "10402": 14,
        "10403": 20,
        "10404": 3,
        "10405": 243,
        "10406": 45,
        "10407": 174,
        "10408": 11,
        "10409": 108,
        "10410": 46,
        "10411": 31,
        "10412": 189,
        "10413": 114,
        "10414": 186,
        "10415": 5,
        "10416": 255,
        "10417": 96,
        "10418": 234,
        "10419": 96,
        "10420": 199,
        "10421": 30,
        "10422": 31,
        "10423": 67,
        "10424": 252,
        "10425": 248,
        "10426": 55,
        "10427": 212,
        "10428": 42,
        "10429": 127,
        "10430": 233,
        "10431": 144,
        "10432": 238,
        "10433": 197,
        "10434": 34,
        "10435": 199,
        "10436": 127,
        "10437": 72,
        "10438": 216,
        "10439": 14,
        "10440": 130,
        "10441": 222,
        "10442": 88,
        "10443": 63,
        "10444": 195,
        "10445": 70,
        "10446": 143,
        "10447": 238,
        "10448": 155,
        "10449": 154,
        "10450": 76,
        "10451": 253,
        "10452": 188,
        "10453": 79,
        "10454": 36,
        "10455": 119,
        "10456": 7,
        "10457": 63,
        "10458": 60,
        "10459": 186,
        "10460": 41,
        "10461": 249,
        "10462": 69,
        "10463": 101,
        "10464": 107,
        "10465": 100,
        "10466": 66,
        "10467": 75,
        "10468": 223,
        "10469": 183,
        "10470": 197,
        "10471": 177,
        "10472": 22,
        "10473": 78,
        "10474": 82,
        "10475": 247,
        "10476": 249,
        "10477": 79,
        "10478": 33,
        "10479": 172,
        "10480": 158,
        "10481": 99,
        "10482": 111,
        "10483": 201,
        "10484": 30,
        "10485": 121,
        "10486": 173,
        "10487": 1,
        "10488": 160,
        "10489": 48,
        "10490": 242,
        "10491": 24,
        "10492": 106,
        "10493": 122,
        "10494": 244,
        "10495": 57,
        "10496": 250,
        "10497": 229,
        "10498": 213,
        "10499": 41,
        "10500": 179,
        "10501": 124,
        "10502": 109,
        "10503": 15,
        "10504": 89,
        "10505": 65,
        "10506": 190,
        "10507": 225,
        "10508": 81,
        "10509": 57,
        "10510": 240,
        "10511": 39,
        "10512": 91,
        "10513": 50,
        "10514": 214,
        "10515": 65,
        "10516": 142,
        "10517": 243,
        "10518": 102,
        "10519": 39,
        "10520": 57,
        "10521": 253,
        "10522": 33,
        "10523": 112,
        "10524": 1,
        "10525": 253,
        "10526": 189,
        "10527": 124,
        "10528": 101,
        "10529": 100,
        "10530": 30,
        "10531": 163,
        "10532": 199,
        "10533": 137,
        "10534": 88,
        "10535": 179,
        "10536": 2,
        "10537": 40,
        "10538": 185,
        "10539": 191,
        "10540": 116,
        "10541": 109,
        "10542": 37,
        "10543": 208,
        "10544": 35,
        "10545": 165,
        "10546": 173,
        "10547": 150,
        "10548": 207,
        "10549": 231,
        "10550": 82,
        "10551": 81,
        "10552": 243,
        "10553": 230,
        "10554": 24,
        "10555": 187,
        "10556": 208,
        "10557": 31,
        "10558": 104,
        "10559": 12,
        "10560": 178,
        "10561": 78,
        "10562": 59,
        "10563": 175,
        "10564": 142,
        "10565": 151,
        "10566": 223,
        "10567": 193,
        "10568": 167,
        "10569": 18,
        "10570": 2,
        "10571": 45,
        "10572": 229,
        "10573": 150,
        "10574": 145,
        "10575": 171,
        "10576": 123,
        "10577": 168,
        "10578": 113,
        "10579": 172,
        "10580": 59,
        "10581": 9,
        "10582": 170,
        "10583": 83,
        "10584": 213,
        "10585": 227,
        "10586": 16,
        "10587": 112,
        "10588": 128,
        "10589": 69,
        "10590": 163,
        "10591": 152,
        "10592": 203,
        "10593": 10,
        "10594": 50,
        "10595": 224,
        "10596": 79,
        "10597": 253,
        "10598": 50,
        "10599": 229,
        "10600": 65,
        "10601": 54,
        "10602": 190,
        "10603": 32,
        "10604": 222,
        "10605": 253,
        "10606": 174,
        "10607": 169,
        "10608": 50,
        "10609": 67,
        "10610": 2,
        "10611": 208,
        "10612": 48,
        "10613": 244,
        "10614": 27,
        "10615": 244,
        "10616": 142,
        "10617": 207,
        "10618": 218,
        "10619": 238,
        "10620": 5,
        "10621": 83,
        "10622": 204,
        "10623": 180,
        "10624": 202,
        "10625": 191,
        "10626": 167,
        "10627": 229,
        "10628": 157,
        "10629": 204,
        "10630": 38,
        "10631": 126,
        "10632": 170,
        "10633": 44,
        "10634": 18,
        "10635": 191,
        "10636": 39,
        "10637": 79,
        "10638": 178,
        "10639": 252,
        "10640": 191,
        "10641": 173,
        "10642": 164,
        "10643": 122,
        "10644": 97,
        "10645": 40,
        "10646": 31,
        "10647": 50,
        "10648": 237,
        "10649": 64,
        "10650": 240,
        "10651": 97,
        "10652": 31,
        "10653": 130,
        "10654": 255,
        "10655": 221,
        "10656": 99,
        "10657": 168,
        "10658": 29,
        "10659": 111,
        "10660": 253,
        "10661": 158,
        "10662": 218,
        "10663": 220,
        "10664": 249,
        "10665": 73,
        "10666": 34,
        "10667": 108,
        "10668": 255,
        "10669": 112,
        "10670": 211,
        "10671": 80,
        "10672": 220,
        "10673": 122,
        "10674": 38,
        "10675": 227,
        "10676": 168,
        "10677": 155,
        "10678": 41,
        "10679": 131,
        "10680": 147,
        "10681": 17,
        "10682": 119,
        "10683": 185,
        "10684": 140,
        "10685": 242,
        "10686": 134,
        "10687": 118,
        "10688": 80,
        "10689": 243,
        "10690": 34,
        "10691": 77,
        "10692": 193,
        "10693": 227,
        "10694": 182,
        "10695": 254,
        "10696": 43,
        "10697": 123,
        "10698": 135,
        "10699": 174,
        "10700": 41,
        "10701": 106,
        "10702": 118,
        "10703": 228,
        "10704": 126,
        "10705": 48,
        "10706": 226,
        "10707": 88,
        "10708": 168,
        "10709": 101,
        "10710": 131,
        "10711": 180,
        "10712": 39,
        "10713": 189,
        "10714": 15,
        "10715": 185,
        "10716": 22,
        "10717": 144,
        "10718": 188,
        "10719": 227,
        "10720": 31,
        "10721": 37,
        "10722": 68,
        "10723": 235,
        "10724": 222,
        "10725": 243,
        "10726": 177,
        "10727": 222,
        "10728": 52,
        "10729": 217,
        "10730": 167,
        "10731": 20,
        "10732": 141,
        "10733": 141,
        "10734": 98,
        "10735": 138,
        "10736": 78,
        "10737": 75,
        "10738": 203,
        "10739": 129,
        "10740": 26,
        "10741": 159,
        "10742": 6,
        "10743": 15,
        "10744": 212,
        "10745": 215,
        "10746": 255,
        "10747": 122,
        "10748": 97,
        "10749": 40,
        "10750": 1,
        "10751": 202,
        "10752": 191,
        "10753": 1,
        "10754": 16,
        "10755": 114,
        "10756": 230,
        "10757": 180,
        "10758": 245,
        "10759": 205,
        "10760": 224,
        "10761": 8,
        "10762": 125,
        "10763": 254,
        "10764": 89,
        "10765": 171,
        "10766": 73,
        "10767": 45,
        "10768": 181,
        "10769": 162,
        "10770": 15,
        "10771": 51,
        "10772": 123,
        "10773": 59,
        "10774": 4,
        "10775": 5,
        "10776": 139,
        "10777": 87,
        "10778": 44,
        "10779": 95,
        "10780": 114,
        "10781": 30,
        "10782": 13,
        "10783": 36,
        "10784": 123,
        "10785": 37,
        "10786": 117,
        "10787": 60,
        "10788": 79,
        "10789": 59,
        "10790": 176,
        "10791": 187,
        "10792": 125,
        "10793": 141,
        "10794": 226,
        "10795": 246,
        "10796": 22,
        "10797": 5,
        "10798": 176,
        "10799": 199,
        "10800": 150,
        "10801": 235,
        "10802": 183,
        "10803": 48,
        "10804": 125,
        "10805": 154,
        "10806": 76,
        "10807": 70,
        "10808": 41,
        "10809": 0,
        "10810": 87,
        "10811": 195,
        "10812": 143,
        "10813": 115,
        "10814": 199,
        "10815": 145,
        "10816": 205,
        "10817": 74,
        "10818": 200,
        "10819": 128,
        "10820": 172,
        "10821": 114,
        "10822": 75,
        "10823": 251,
        "10824": 195,
        "10825": 255,
        "10826": 167,
        "10827": 0,
        "10828": 100,
        "10829": 210,
        "10830": 21,
        "10831": 187,
        "10832": 210,
        "10833": 183,
        "10834": 23,
        "10835": 121,
        "10836": 227,
        "10837": 26,
        "10838": 120,
        "10839": 27,
        "10840": 47,
        "10841": 29,
        "10842": 232,
        "10843": 71,
        "10844": 60,
        "10845": 143,
        "10846": 32,
        "10847": 59,
        "10848": 178,
        "10849": 205,
        "10850": 26,
        "10851": 59,
        "10852": 69,
        "10853": 231,
        "10854": 173,
        "10855": 162,
        "10856": 43,
        "10857": 56,
        "10858": 184,
        "10859": 15,
        "10860": 66,
        "10861": 141,
        "10862": 129,
        "10863": 87,
        "10864": 23,
        "10865": 105,
        "10866": 34,
        "10867": 6,
        "10868": 155,
        "10869": 84,
        "10870": 200,
        "10871": 200,
        "10872": 178,
        "10873": 49,
        "10874": 125,
        "10875": 254,
        "10876": 55,
        "10877": 167,
        "10878": 21,
        "10879": 176,
        "10880": 125,
        "10881": 210,
        "10882": 254,
        "10883": 211,
        "10884": 197,
        "10885": 151,
        "10886": 34,
        "10887": 47,
        "10888": 252,
        "10889": 129,
        "10890": 192,
        "10891": 213,
        "10892": 192,
        "10893": 253,
        "10894": 72,
        "10895": 82,
        "10896": 153,
        "10897": 188,
        "10898": 106,
        "10899": 60,
        "10900": 206,
        "10901": 120,
        "10902": 81,
        "10903": 82,
        "10904": 131,
        "10905": 13,
        "10906": 99,
        "10907": 102,
        "10908": 108,
        "10909": 49,
        "10910": 42,
        "10911": 211,
        "10912": 75,
        "10913": 171,
        "10914": 106,
        "10915": 17,
        "10916": 251,
        "10917": 35,
        "10918": 30,
        "10919": 74,
        "10920": 226,
        "10921": 226,
        "10922": 90,
        "10923": 111,
        "10924": 115,
        "10925": 9,
        "10926": 253,
        "10927": 190,
        "10928": 190,
        "10929": 130,
        "10930": 157,
        "10931": 33,
        "10932": 79,
        "10933": 212,
        "10934": 191,
        "10935": 110,
        "10936": 175,
        "10937": 158,
        "10938": 168,
        "10939": 20,
        "10940": 5,
        "10941": 149,
        "10942": 163,
        "10943": 201,
        "10944": 135,
        "10945": 147,
        "10946": 147,
        "10947": 5,
        "10948": 129,
        "10949": 227,
        "10950": 164,
        "10951": 154,
        "10952": 163,
        "10953": 187,
        "10954": 11,
        "10955": 199,
        "10956": 56,
        "10957": 242,
        "10958": 33,
        "10959": 107,
        "10960": 64,
        "10961": 161,
        "10962": 92,
        "10963": 57,
        "10964": 226,
        "10965": 194,
        "10966": 184,
        "10967": 201,
        "10968": 203,
        "10969": 234,
        "10970": 152,
        "10971": 151,
        "10972": 63,
        "10973": 160,
        "10974": 209,
        "10975": 143,
        "10976": 150,
        "10977": 113,
        "10978": 10,
        "10979": 8,
        "10980": 50,
        "10981": 224,
        "10982": 36,
        "10983": 222,
        "10984": 120,
        "10985": 114,
        "10986": 251,
        "10987": 251,
        "10988": 18,
        "10989": 152,
        "10990": 134,
        "10991": 76,
        "10992": 20,
        "10993": 70,
        "10994": 222,
        "10995": 0,
        "10996": 218,
        "10997": 62,
        "10998": 60,
        "10999": 78,
        "11000": 164,
        "11001": 52,
        "11002": 133,
        "11003": 149,
        "11004": 229,
        "11005": 32,
        "11006": 12,
        "11007": 214,
        "11008": 167,
        "11009": 123,
        "11010": 56,
        "11011": 205,
        "11012": 115,
        "11013": 151,
        "11014": 107,
        "11015": 208,
        "11016": 215,
        "11017": 130,
        "11018": 62,
        "11019": 169,
        "11020": 248,
        "11021": 173,
        "11022": 129,
        "11023": 64,
        "11024": 124,
        "11025": 57,
        "11026": 219,
        "11027": 100,
        "11028": 23,
        "11029": 29,
        "11030": 179,
        "11031": 177,
        "11032": 79,
        "11033": 235,
        "11034": 251,
        "11035": 248,
        "11036": 193,
        "11037": 255,
        "11038": 76,
        "11039": 97,
        "11040": 204,
        "11041": 196,
        "11042": 62,
        "11043": 238,
        "11044": 147,
        "11045": 37,
        "11046": 135,
        "11047": 15,
        "11048": 128,
        "11049": 139,
        "11050": 19,
        "11051": 241,
        "11052": 45,
        "11053": 223,
        "11054": 2,
        "11055": 212,
        "11056": 169,
        "11057": 252,
        "11058": 254,
        "11059": 173,
        "11060": 206,
        "11061": 137,
        "11062": 65,
        "11063": 103,
        "11064": 210,
        "11065": 208,
        "11066": 202,
        "11067": 187,
        "11068": 39,
        "11069": 253,
        "11070": 90,
        "11071": 9,
        "11072": 10,
        "11073": 238,
        "11074": 83,
        "11075": 223,
        "11076": 2,
        "11077": 103,
        "11078": 223,
        "11079": 107,
        "11080": 76,
        "11081": 48,
        "11082": 168,
        "11083": 73,
        "11084": 15,
        "11085": 226,
        "11086": 224,
        "11087": 195,
        "11088": 102,
        "11089": 236,
        "11090": 221,
        "11091": 184,
        "11092": 175,
        "11093": 96,
        "11094": 151,
        "11095": 131,
        "11096": 253,
        "11097": 238,
        "11098": 211,
        "11099": 226,
        "11100": 98,
        "11101": 248,
        "11102": 94,
        "11103": 137,
        "11104": 10,
        "11105": 29,
        "11106": 81,
        "11107": 129,
        "11108": 97,
        "11109": 235,
        "11110": 250,
        "11111": 92,
        "11112": 221,
        "11113": 57,
        "11114": 6,
        "11115": 20,
        "11116": 126,
        "11117": 45,
        "11118": 19,
        "11119": 239,
        "11120": 193,
        "11121": 67,
        "11122": 76,
        "11123": 96,
        "11124": 114,
        "11125": 75,
        "11126": 124,
        "11127": 221,
        "11128": 165,
        "11129": 155,
        "11130": 5,
        "11131": 192,
        "11132": 108,
        "11133": 47,
        "11134": 224,
        "11135": 128,
        "11136": 40,
        "11137": 151,
        "11138": 254,
        "11139": 81,
        "11140": 184,
        "11141": 96,
        "11142": 192,
        "11143": 161,
        "11144": 163,
        "11145": 72,
        "11146": 214,
        "11147": 192,
        "11148": 181,
        "11149": 67,
        "11150": 76,
        "11151": 147,
        "11152": 73,
        "11153": 49,
        "11154": 11,
        "11155": 145,
        "11156": 132,
        "11157": 214,
        "11158": 40,
        "11159": 165,
        "11160": 159,
        "11161": 72,
        "11162": 89,
        "11163": 111,
        "11164": 118,
        "11165": 203,
        "11166": 72,
        "11167": 96,
        "11168": 199,
        "11169": 92,
        "11170": 159,
        "11171": 102,
        "11172": 106,
        "11173": 4,
        "11174": 39,
        "11175": 206,
        "11176": 78,
        "11177": 226,
        "11178": 198,
        "11179": 144,
        "11180": 146,
        "11181": 227,
        "11182": 197,
        "11183": 75,
        "11184": 68,
        "11185": 169,
        "11186": 247,
        "11187": 9,
        "11188": 78,
        "11189": 99,
        "11190": 255,
        "11191": 173,
        "11192": 83,
        "11193": 210,
        "11194": 68,
        "11195": 235,
        "11196": 78,
        "11197": 120,
        "11198": 104,
        "11199": 76,
        "11200": 94,
        "11201": 71,
        "11202": 137,
        "11203": 41,
        "11204": 116,
        "11205": 236,
        "11206": 114,
        "11207": 209,
        "11208": 182,
        "11209": 34,
        "11210": 116,
        "11211": 200,
        "11212": 51,
        "11213": 228,
        "11214": 217,
        "11215": 53,
        "11216": 25,
        "11217": 151,
        "11218": 199,
        "11219": 233,
        "11220": 38,
        "11221": 88,
        "11222": 195,
        "11223": 64,
        "11224": 99,
        "11225": 9,
        "11226": 52,
        "11227": 214,
        "11228": 12,
        "11229": 204,
        "11230": 229,
        "11231": 43,
        "11232": 25,
        "11233": 91,
        "11234": 110,
        "11235": 46,
        "11236": 11,
        "11237": 183,
        "11238": 42,
        "11239": 0,
        "11240": 28,
        "11241": 247,
        "11242": 22,
        "11243": 75,
        "11244": 112,
        "11245": 216,
        "11246": 247,
        "11247": 77,
        "11248": 212,
        "11249": 178,
        "11250": 105,
        "11251": 202,
        "11252": 232,
        "11253": 176,
        "11254": 90,
        "11255": 250,
        "11256": 183,
        "11257": 189,
        "11258": 217,
        "11259": 172,
        "11260": 125,
        "11261": 84,
        "11262": 239,
        "11263": 181,
        "11264": 184,
        "11265": 133,
        "11266": 153,
        "11267": 251,
        "11268": 37,
        "11269": 221,
        "11270": 226,
        "11271": 248,
        "11272": 57,
        "11273": 4,
        "11274": 85,
        "11275": 87,
        "11276": 52,
        "11277": 119,
        "11278": 212,
        "11279": 154,
        "11280": 132,
        "11281": 107,
        "11282": 225,
        "11283": 206,
        "11284": 127,
        "11285": 7,
        "11286": 183,
        "11287": 189,
        "11288": 187,
        "11289": 53,
        "11290": 218,
        "11291": 22,
        "11292": 8,
        "11293": 222,
        "11294": 252,
        "11295": 153,
        "11296": 52,
        "11297": 51,
        "11298": 86,
        "11299": 215,
        "11300": 124,
        "11301": 128,
        "11302": 132,
        "11303": 79,
        "11304": 163,
        "11305": 153,
        "11306": 94,
        "11307": 26,
        "11308": 146,
        "11309": 239,
        "11310": 33,
        "11311": 134,
        "11312": 210,
        "11313": 127,
        "11314": 129,
        "11315": 156,
        "11316": 236,
        "11317": 249,
        "11318": 172,
        "11319": 129,
        "11320": 201,
        "11321": 217,
        "11322": 83,
        "11323": 225,
        "11324": 80,
        "11325": 181,
        "11326": 114,
        "11327": 36,
        "11328": 107,
        "11329": 240,
        "11330": 62,
        "11331": 194,
        "11332": 192,
        "11333": 230,
        "11334": 75,
        "11335": 12,
        "11336": 97,
        "11337": 121,
        "11338": 231,
        "11339": 174,
        "11340": 238,
        "11341": 158,
        "11342": 148,
        "11343": 58,
        "11344": 175,
        "11345": 33,
        "11346": 160,
        "11347": 63,
        "11348": 203,
        "11349": 14,
        "11350": 80,
        "11351": 247,
        "11352": 248,
        "11353": 87,
        "11354": 161,
        "11355": 37,
        "11356": 145,
        "11357": 157,
        "11358": 138,
        "11359": 24,
        "11360": 134,
        "11361": 38,
        "11362": 169,
        "11363": 158,
        "11364": 247,
        "11365": 112,
        "11366": 211,
        "11367": 25,
        "11368": 225,
        "11369": 32,
        "11370": 189,
        "11371": 224,
        "11372": 73,
        "11373": 200,
        "11374": 105,
        "11375": 31,
        "11376": 50,
        "11377": 52,
        "11378": 46,
        "11379": 30,
        "11380": 14,
        "11381": 236,
        "11382": 195,
        "11383": 1,
        "11384": 57,
        "11385": 95,
        "11386": 254,
        "11387": 20,
        "11388": 48,
        "11389": 8,
        "11390": 95,
        "11391": 157,
        "11392": 67,
        "11393": 118,
        "11394": 126,
        "11395": 77,
        "11396": 169,
        "11397": 156,
        "11398": 251,
        "11399": 166,
        "11400": 202,
        "11401": 141,
        "11402": 10,
        "11403": 247,
        "11404": 94,
        "11405": 90,
        "11406": 172,
        "11407": 192,
        "11408": 148,
        "11409": 136,
        "11410": 180,
        "11411": 78,
        "11412": 200,
        "11413": 47,
        "11414": 165,
        "11415": 85,
        "11416": 153,
        "11417": 20,
        "11418": 141,
        "11419": 36,
        "11420": 104,
        "11421": 148,
        "11422": 43,
        "11423": 202,
        "11424": 138,
        "11425": 148,
        "11426": 212,
        "11427": 173,
        "11428": 230,
        "11429": 217,
        "11430": 159,
        "11431": 108,
        "11432": 142,
        "11433": 164,
        "11434": 165,
        "11435": 109,
        "11436": 238,
        "11437": 119,
        "11438": 242,
        "11439": 106,
        "11440": 155,
        "11441": 151,
        "11442": 72,
        "11443": 170,
        "11444": 85,
        "11445": 67,
        "11446": 39,
        "11447": 127,
        "11448": 24,
        "11449": 25,
        "11450": 220,
        "11451": 72,
        "11452": 27,
        "11453": 24,
        "11454": 16,
        "11455": 10,
        "11456": 6,
        "11457": 39,
        "11458": 14,
        "11459": 145,
        "11460": 121,
        "11461": 19,
        "11462": 173,
        "11463": 1,
        "11464": 47,
        "11465": 168,
        "11466": 4,
        "11467": 212,
        "11468": 148,
        "11469": 30,
        "11470": 196,
        "11471": 210,
        "11472": 31,
        "11473": 7,
        "11474": 165,
        "11475": 153,
        "11476": 116,
        "11477": 218,
        "11478": 30,
        "11479": 200,
        "11480": 28,
        "11481": 32,
        "11482": 22,
        "11483": 75,
        "11484": 66,
        "11485": 114,
        "11486": 163,
        "11487": 119,
        "11488": 62,
        "11489": 112,
        "11490": 35,
        "11491": 231,
        "11492": 119,
        "11493": 154,
        "11494": 88,
        "11495": 129,
        "11496": 241,
        "11497": 226,
        "11498": 230,
        "11499": 243,
        "11500": 55,
        "11501": 48,
        "11502": 243,
        "11503": 80,
        "11504": 30,
        "11505": 140,
        "11506": 31,
        "11507": 143,
        "11508": 68,
        "11509": 190,
        "11510": 15,
        "11511": 210,
        "11512": 71,
        "11513": 238,
        "11514": 202,
        "11515": 143,
        "11516": 177,
        "11517": 253,
        "11518": 178,
        "11519": 253,
        "11520": 105,
        "11521": 164,
        "11522": 87,
        "11523": 133,
        "11524": 72,
        "11525": 211,
        "11526": 148,
        "11527": 162,
        "11528": 53,
        "11529": 220,
        "11530": 45,
        "11531": 96,
        "11532": 210,
        "11533": 169,
        "11534": 183,
        "11535": 39,
        "11536": 200,
        "11537": 207,
        "11538": 248,
        "11539": 42,
        "11540": 247,
        "11541": 177,
        "11542": 103,
        "11543": 126,
        "11544": 101,
        "11545": 189,
        "11546": 252,
        "11547": 234,
        "11548": 232,
        "11549": 139,
        "11550": 127,
        "11551": 72,
        "11552": 36,
        "11553": 193,
        "11554": 200,
        "11555": 165,
        "11556": 123,
        "11557": 164,
        "11558": 183,
        "11559": 127,
        "11560": 195,
        "11561": 221,
        "11562": 151,
        "11563": 162,
        "11564": 13,
        "11565": 156,
        "11566": 177,
        "11567": 114,
        "11568": 204,
        "11569": 150,
        "11570": 10,
        "11571": 225,
        "11572": 196,
        "11573": 130,
        "11574": 189,
        "11575": 249,
        "11576": 79,
        "11577": 122,
        "11578": 248,
        "11579": 112,
        "11580": 9,
        "11581": 225,
        "11582": 176,
        "11583": 40,
        "11584": 224,
        "11585": 232,
        "11586": 160,
        "11587": 160,
        "11588": 155,
        "11589": 146,
        "11590": 9,
        "11591": 184,
        "11592": 42,
        "11593": 109,
        "11594": 155,
        "11595": 57,
        "11596": 236,
        "11597": 145,
        "11598": 176,
        "11599": 167,
        "11600": 211,
        "11601": 222,
        "11602": 85,
        "11603": 92,
        "11604": 61,
        "11605": 97,
        "11606": 62,
        "11607": 241,
        "11608": 232,
        "11609": 128,
        "11610": 124,
        "11611": 147,
        "11612": 2,
        "11613": 201,
        "11614": 153,
        "11615": 54,
        "11616": 164,
        "11617": 11,
        "11618": 116,
        "11619": 131,
        "11620": 94,
        "11621": 232,
        "11622": 114,
        "11623": 39,
        "11624": 226,
        "11625": 79,
        "11626": 182,
        "11627": 233,
        "11628": 58,
        "11629": 33,
        "11630": 221,
        "11631": 149,
        "11632": 251,
        "11633": 181,
        "11634": 227,
        "11635": 232,
        "11636": 172,
        "11637": 180,
        "11638": 71,
        "11639": 115,
        "11640": 32,
        "11641": 10,
        "11642": 91,
        "11643": 68,
        "11644": 166,
        "11645": 162,
        "11646": 154,
        "11647": 34,
        "11648": 17,
        "11649": 129,
        "11650": 93,
        "11651": 32,
        "11652": 83,
        "11653": 129,
        "11654": 250,
        "11655": 236,
        "11656": 255,
        "11657": 90,
        "11658": 156,
        "11659": 189,
        "11660": 113,
        "11661": 119,
        "11662": 5,
        "11663": 60,
        "11664": 246,
        "11665": 2,
        "11666": 154,
        "11667": 101,
        "11668": 161,
        "11669": 199,
        "11670": 175,
        "11671": 76,
        "11672": 6,
        "11673": 228,
        "11674": 80,
        "11675": 36,
        "11676": 248,
        "11677": 84,
        "11678": 64,
        "11679": 107,
        "11680": 111,
        "11681": 98,
        "11682": 203,
        "11683": 238,
        "11684": 54,
        "11685": 174,
        "11686": 252,
        "11687": 73,
        "11688": 121,
        "11689": 32,
        "11690": 198,
        "11691": 120,
        "11692": 75,
        "11693": 37,
        "11694": 45,
        "11695": 91,
        "11696": 176,
        "11697": 110,
        "11698": 111,
        "11699": 5,
        "11700": 119,
        "11701": 236,
        "11702": 34,
        "11703": 194,
        "11704": 61,
        "11705": 89,
        "11706": 149,
        "11707": 215,
        "11708": 77,
        "11709": 139,
        "11710": 215,
        "11711": 3,
        "11712": 56,
        "11713": 234,
        "11714": 147,
        "11715": 57,
        "11716": 183,
        "11717": 31,
        "11718": 21,
        "11719": 161,
        "11720": 186,
        "11721": 141,
        "11722": 245,
        "11723": 58,
        "11724": 148,
        "11725": 115,
        "11726": 227,
        "11727": 222,
        "11728": 32,
        "11729": 75,
        "11730": 97,
        "11731": 9,
        "11732": 144,
        "11733": 189,
        "11734": 216,
        "11735": 165,
        "11736": 251,
        "11737": 154,
        "11738": 56,
        "11739": 233,
        "11740": 234,
        "11741": 206,
        "11742": 124,
        "11743": 241,
        "11744": 227,
        "11745": 3,
        "11746": 217,
        "11747": 223,
        "11748": 5,
        "11749": 28,
        "11750": 55,
        "11751": 231,
        "11752": 77,
        "11753": 125,
        "11754": 59,
        "11755": 248,
        "11756": 46,
        "11757": 50,
        "11758": 117,
        "11759": 169,
        "11760": 162,
        "11761": 196,
        "11762": 248,
        "11763": 250,
        "11764": 32,
        "11765": 117,
        "11766": 168,
        "11767": 88,
        "11768": 70,
        "11769": 187,
        "11770": 228,
        "11771": 219,
        "11772": 165,
        "11773": 71,
        "11774": 47,
        "11775": 35,
        "11776": 49,
        "11777": 194,
        "11778": 16,
        "11779": 254,
        "11780": 250,
        "11781": 210,
        "11782": 55,
        "11783": 2,
        "11784": 30,
        "11785": 70,
        "11786": 221,
        "11787": 157,
        "11788": 127,
        "11789": 56,
        "11790": 90,
        "11791": 153,
        "11792": 246,
        "11793": 211,
        "11794": 240,
        "11795": 23,
        "11796": 203,
        "11797": 105,
        "11798": 165,
        "11799": 19,
        "11800": 28,
        "11801": 190,
        "11802": 10,
        "11803": 145,
        "11804": 50,
        "11805": 91,
        "11806": 219,
        "11807": 110,
        "11808": 27,
        "11809": 245,
        "11810": 21,
        "11811": 44,
        "11812": 131,
        "11813": 38,
        "11814": 128,
        "11815": 45,
        "11816": 212,
        "11817": 107,
        "11818": 177,
        "11819": 241,
        "11820": 159,
        "11821": 106,
        "11822": 233,
        "11823": 232,
        "11824": 40,
        "11825": 6,
        "11826": 172,
        "11827": 241,
        "11828": 219,
        "11829": 125,
        "11830": 68,
        "11831": 112,
        "11832": 241,
        "11833": 117,
        "11834": 129,
        "11835": 52,
        "11836": 11,
        "11837": 203,
        "11838": 164,
        "11839": 134,
        "11840": 51,
        "11841": 91,
        "11842": 231,
        "11843": 237,
        "11844": 16,
        "11845": 234,
        "11846": 252,
        "11847": 245,
        "11848": 173,
        "11849": 108,
        "11850": 204,
        "11851": 137,
        "11852": 112,
        "11853": 102,
        "11854": 236,
        "11855": 192,
        "11856": 201,
        "11857": 134,
        "11858": 156,
        "11859": 102,
        "11860": 141,
        "11861": 96,
        "11862": 37,
        "11863": 170,
        "11864": 63,
        "11865": 214,
        "11866": 186,
        "11867": 12,
        "11868": 202,
        "11869": 221,
        "11870": 70,
        "11871": 246,
        "11872": 40,
        "11873": 136,
        "11874": 150,
        "11875": 102,
        "11876": 156,
        "11877": 143,
        "11878": 232,
        "11879": 116,
        "11880": 128,
        "11881": 64,
        "11882": 9,
        "11883": 79,
        "11884": 39,
        "11885": 77,
        "11886": 3,
        "11887": 15,
        "11888": 166,
        "11889": 103,
        "11890": 85,
        "11891": 239,
        "11892": 185,
        "11893": 254,
        "11894": 138,
        "11895": 249,
        "11896": 115,
        "11897": 129,
        "11898": 141,
        "11899": 102,
        "11900": 81,
        "11901": 163,
        "11902": 179,
        "11903": 92,
        "11904": 12,
        "11905": 99,
        "11906": 147,
        "11907": 210,
        "11908": 78,
        "11909": 42,
        "11910": 149,
        "11911": 130,
        "11912": 193,
        "11913": 151,
        "11914": 170,
        "11915": 46,
        "11916": 56,
        "11917": 125,
        "11918": 210,
        "11919": 129,
        "11920": 237,
        "11921": 89,
        "11922": 189,
        "11923": 72,
        "11924": 28,
        "11925": 118,
        "11926": 119,
        "11927": 158,
        "11928": 9,
        "11929": 132,
        "11930": 144,
        "11931": 185,
        "11932": 157,
        "11933": 151,
        "11934": 100,
        "11935": 226,
        "11936": 173,
        "11937": 174,
        "11938": 212,
        "11939": 221,
        "11940": 149,
        "11941": 82,
        "11942": 0,
        "11943": 201,
        "11944": 177,
        "11945": 73,
        "11946": 26,
        "11947": 13,
        "11948": 120,
        "11949": 238,
        "11950": 188,
        "11951": 153,
        "11952": 71,
        "11953": 32,
        "11954": 194,
        "11955": 20,
        "11956": 132,
        "11957": 211,
        "11958": 47,
        "11959": 72,
        "11960": 16,
        "11961": 66,
        "11962": 145,
        "11963": 46,
        "11964": 222,
        "11965": 171,
        "11966": 234,
        "11967": 152,
        "11968": 101,
        "11969": 103,
        "11970": 92,
        "11971": 39,
        "11972": 28,
        "11973": 141,
        "11974": 56,
        "11975": 250,
        "11976": 89,
        "11977": 24,
        "11978": 252,
        "11979": 96,
        "11980": 111,
        "11981": 122,
        "11982": 157,
        "11983": 173,
        "11984": 224,
        "11985": 126,
        "11986": 191,
        "11987": 77,
        "11988": 6,
        "11989": 149,
        "11990": 140,
        "11991": 152,
        "11992": 44,
        "11993": 22,
        "11994": 228,
        "11995": 203,
        "11996": 63,
        "11997": 233,
        "11998": 115,
        "11999": 179,
        "12000": 109,
        "12001": 192,
        "12002": 153,
        "12003": 30,
        "12004": 92,
        "12005": 181,
        "12006": 68,
        "12007": 90,
        "12008": 241,
        "12009": 99,
        "12010": 57,
        "12011": 176,
        "12012": 33,
        "12013": 13,
        "12014": 236,
        "12015": 154,
        "12016": 79,
        "12017": 207,
        "12018": 181,
        "12019": 243,
        "12020": 163,
        "12021": 18,
        "12022": 111,
        "12023": 92,
        "12024": 224,
        "12025": 38,
        "12026": 40,
        "12027": 133,
        "12028": 195,
        "12029": 176,
        "12030": 109,
        "12031": 189,
        "12032": 195,
        "12033": 40,
        "12034": 229,
        "12035": 117,
        "12036": 43,
        "12037": 118,
        "12038": 155,
        "12039": 88,
        "12040": 96,
        "12041": 254,
        "12042": 161,
        "12043": 28,
        "12044": 196,
        "12045": 139,
        "12046": 18,
        "12047": 8,
        "12048": 134,
        "12049": 137,
        "12050": 231,
        "12051": 43,
        "12052": 61,
        "12053": 19,
        "12054": 79,
        "12055": 205,
        "12056": 44,
        "12057": 14,
        "12058": 51,
        "12059": 65,
        "12060": 236,
        "12061": 70,
        "12062": 8,
        "12063": 127,
        "12064": 169,
        "12065": 13,
        "12066": 120,
        "12067": 201,
        "12068": 188,
        "12069": 44,
        "12070": 105,
        "12071": 200,
        "12072": 174,
        "12073": 115,
        "12074": 42,
        "12075": 108,
        "12076": 229,
        "12077": 172,
        "12078": 17,
        "12079": 109,
        "12080": 199,
        "12081": 21,
        "12082": 98,
        "12083": 152,
        "12084": 82,
        "12085": 85,
        "12086": 164,
        "12087": 16,
        "12088": 1,
        "12089": 165,
        "12090": 121,
        "12091": 206,
        "12092": 129,
        "12093": 124,
        "12094": 103,
        "12095": 181,
        "12096": 96,
        "12097": 183,
        "12098": 187,
        "12099": 204,
        "12100": 121,
        "12101": 121,
        "12102": 136,
        "12103": 61,
        "12104": 89,
        "12105": 61,
        "12106": 128,
        "12107": 86,
        "12108": 47,
        "12109": 144,
        "12110": 33,
        "12111": 169,
        "12112": 206,
        "12113": 52,
        "12114": 90,
        "12115": 223,
        "12116": 233,
        "12117": 96,
        "12118": 155,
        "12119": 160,
        "12120": 239,
        "12121": 130,
        "12122": 2,
        "12123": 186,
        "12124": 11,
        "12125": 143,
        "12126": 127,
        "12127": 253,
        "12128": 48,
        "12129": 188,
        "12130": 211,
        "12131": 231,
        "12132": 74,
        "12133": 192,
        "12134": 67,
        "12135": 172,
        "12136": 43,
        "12137": 83,
        "12138": 248,
        "12139": 188,
        "12140": 1,
        "12141": 25,
        "12142": 173,
        "12143": 70,
        "12144": 68,
        "12145": 251,
        "12146": 95,
        "12147": 206,
        "12148": 24,
        "12149": 2,
        "12150": 149,
        "12151": 45,
        "12152": 72,
        "12153": 136,
        "12154": 5,
        "12155": 160,
        "12156": 239,
        "12157": 248,
        "12158": 244,
        "12159": 132,
        "12160": 56,
        "12161": 190,
        "12162": 96,
        "12163": 174,
        "12164": 56,
        "12165": 180,
        "12166": 196,
        "12167": 111,
        "12168": 45,
        "12169": 227,
        "12170": 195,
        "12171": 146,
        "12172": 86,
        "12173": 207,
        "12174": 234,
        "12175": 13,
        "12176": 241,
        "12177": 199,
        "12178": 88,
        "12179": 239,
        "12180": 134,
        "12181": 240,
        "12182": 71,
        "12183": 243,
        "12184": 209,
        "12185": 249,
        "12186": 238,
        "12187": 18,
        "12188": 88,
        "12189": 87,
        "12190": 41,
        "12191": 42,
        "12192": 164,
        "12193": 205,
        "12194": 246,
        "12195": 206,
        "12196": 200,
        "12197": 125,
        "12198": 251,
        "12199": 237,
        "12200": 59,
        "12201": 59,
        "12202": 53,
        "12203": 73,
        "12204": 205,
        "12205": 15,
        "12206": 164,
        "12207": 33,
        "12208": 98,
        "12209": 139,
        "12210": 47,
        "12211": 65,
        "12212": 87,
        "12213": 116,
        "12214": 98,
        "12215": 230,
        "12216": 238,
        "12217": 126,
        "12218": 51,
        "12219": 207,
        "12220": 16,
        "12221": 231,
        "12222": 254,
        "12223": 27,
        "12224": 124,
        "12225": 23,
        "12226": 79,
        "12227": 55,
        "12228": 204,
        "12229": 93,
        "12230": 20,
        "12231": 20,
        "12232": 106,
        "12233": 92,
        "12234": 210,
        "12235": 208,
        "12236": 94,
        "12237": 38,
        "12238": 213,
        "12239": 167,
        "12240": 95,
        "12241": 90,
        "12242": 8,
        "12243": 234,
        "12244": 199,
        "12245": 133,
        "12246": 82,
        "12247": 102,
        "12248": 53,
        "12249": 195,
        "12250": 175,
        "12251": 117,
        "12252": 12,
        "12253": 186,
        "12254": 114,
        "12255": 201,
        "12256": 23,
        "12257": 252,
        "12258": 195,
        "12259": 137,
        "12260": 23,
        "12261": 191,
        "12262": 105,
        "12263": 168,
        "12264": 98,
        "12265": 181,
        "12266": 82,
        "12267": 218,
        "12268": 247,
        "12269": 222,
        "12270": 131,
        "12271": 68,
        "12272": 123,
        "12273": 131,
        "12274": 240,
        "12275": 223,
        "12276": 253,
        "12277": 248,
        "12278": 152,
        "12279": 115,
        "12280": 195,
        "12281": 159,
        "12282": 143,
        "12283": 145,
        "12284": 151,
        "12285": 146,
        "12286": 198,
        "12287": 185,
        "12288": 104,
        "12289": 108,
        "12290": 30,
        "12291": 106,
        "12292": 33,
        "12293": 218,
        "12294": 24,
        "12295": 83,
        "12296": 53,
        "12297": 115,
        "12298": 105,
        "12299": 58,
        "12300": 85,
        "12301": 107,
        "12302": 111,
        "12303": 141,
        "12304": 251,
        "12305": 83,
        "12306": 13,
        "12307": 94,
        "12308": 204,
        "12309": 56,
        "12310": 223,
        "12311": 161,
        "12312": 194,
        "12313": 76,
        "12314": 255,
        "12315": 157,
        "12316": 241,
        "12317": 1,
        "12318": 22,
        "12319": 187,
        "12320": 49,
        "12321": 62,
        "12322": 177,
        "12323": 198,
        "12324": 186,
        "12325": 13,
        "12326": 30,
        "12327": 255,
        "12328": 191,
        "12329": 188,
        "12330": 22,
        "12331": 74,
        "12332": 130,
        "12333": 236,
        "12334": 147,
        "12335": 167,
        "12336": 238,
        "12337": 61,
        "12338": 219,
        "12339": 222,
        "12340": 163,
        "12341": 215,
        "12342": 11,
        "12343": 9,
        "12344": 129,
        "12345": 250,
        "12346": 54,
        "12347": 207,
        "12348": 235,
        "12349": 159,
        "12350": 175,
        "12351": 106,
        "12352": 128,
        "12353": 239,
        "12354": 254,
        "12355": 251,
        "12356": 239,
        "12357": 31,
        "12358": 180,
        "12359": 57,
        "12360": 151,
        "12361": 100,
        "12362": 212,
        "12363": 134,
        "12364": 62,
        "12365": 106,
        "12366": 131,
        "12367": 28,
        "12368": 106,
        "12369": 6,
        "12370": 25,
        "12371": 143,
        "12372": 57,
        "12373": 140,
        "12374": 253,
        "12375": 148,
        "12376": 247,
        "12377": 162,
        "12378": 184,
        "12379": 133,
        "12380": 199,
        "12381": 54,
        "12382": 179,
        "12383": 106,
        "12384": 113,
        "12385": 218,
        "12386": 1,
        "12387": 162,
        "12388": 209,
        "12389": 49,
        "12390": 234,
        "12391": 227,
        "12392": 12,
        "12393": 58,
        "12394": 244,
        "12395": 170,
        "12396": 114,
        "12397": 129,
        "12398": 146,
        "12399": 14,
        "12400": 171,
        "12401": 116,
        "12402": 224,
        "12403": 241,
        "12404": 131,
        "12405": 42,
        "12406": 11,
        "12407": 202,
        "12408": 43,
        "12409": 125,
        "12410": 10,
        "12411": 85,
        "12412": 154,
        "12413": 114,
        "12414": 130,
        "12415": 183,
        "12416": 246,
        "12417": 145,
        "12418": 174,
        "12419": 193,
        "12420": 175,
        "12421": 56,
        "12422": 234,
        "12423": 196,
        "12424": 210,
        "12425": 191,
        "12426": 108,
        "12427": 239,
        "12428": 29,
        "12429": 1,
        "12430": 211,
        "12431": 56,
        "12432": 165,
        "12433": 254,
        "12434": 24,
        "12435": 81,
        "12436": 248,
        "12437": 81,
        "12438": 58,
        "12439": 110,
        "12440": 29,
        "12441": 21,
        "12442": 225,
        "12443": 20,
        "12444": 203,
        "12445": 136,
        "12446": 128,
        "12447": 246,
        "12448": 222,
        "12449": 210,
        "12450": 240,
        "12451": 3,
        "12452": 59,
        "12453": 165,
        "12454": 12,
        "12455": 80,
        "12456": 111,
        "12457": 20,
        "12458": 33,
        "12459": 73,
        "12460": 11,
        "12461": 149,
        "12462": 158,
        "12463": 45,
        "12464": 200,
        "12465": 26,
        "12466": 2,
        "12467": 22,
        "12468": 204,
        "12469": 244,
        "12470": 116,
        "12471": 103,
        "12472": 222,
        "12473": 148,
        "12474": 27,
        "12475": 4,
        "12476": 71,
        "12477": 94,
        "12478": 3,
        "12479": 73,
        "12480": 49,
        "12481": 54,
        "12482": 98,
        "12483": 76,
        "12484": 73,
        "12485": 61,
        "12486": 181,
        "12487": 112,
        "12488": 199,
        "12489": 223,
        "12490": 242,
        "12491": 74,
        "12492": 36,
        "12493": 133,
        "12494": 106,
        "12495": 240,
        "12496": 250,
        "12497": 54,
        "12498": 217,
        "12499": 194,
        "12500": 125,
        "12501": 41,
        "12502": 185,
        "12503": 50,
        "12504": 80,
        "12505": 169,
        "12506": 54,
        "12507": 242,
        "12508": 216,
        "12509": 161,
        "12510": 45,
        "12511": 43,
        "12512": 178,
        "12513": 103,
        "12514": 89,
        "12515": 17,
        "12516": 135,
        "12517": 32,
        "12518": 36,
        "12519": 214,
        "12520": 218,
        "12521": 182,
        "12522": 121,
        "12523": 32,
        "12524": 115,
        "12525": 90,
        "12526": 182,
        "12527": 121,
        "12528": 66,
        "12529": 65,
        "12530": 54,
        "12531": 44,
        "12532": 204,
        "12533": 201,
        "12534": 177,
        "12535": 7,
        "12536": 26,
        "12537": 8,
        "12538": 192,
        "12539": 105,
        "12540": 127,
        "12541": 53,
        "12542": 239,
        "12543": 61,
        "12544": 199,
        "12545": 155,
        "12546": 37,
        "12547": 245,
        "12548": 37,
        "12549": 50,
        "12550": 206,
        "12551": 240,
        "12552": 39,
        "12553": 89,
        "12554": 231,
        "12555": 28,
        "12556": 25,
        "12557": 229,
        "12558": 74,
        "12559": 138,
        "12560": 250,
        "12561": 254,
        "12562": 11,
        "12563": 142,
        "12564": 183,
        "12565": 167,
        "12566": 145,
        "12567": 252,
        "12568": 68,
        "12569": 186,
        "12570": 139,
        "12571": 171,
        "12572": 185,
        "12573": 37,
        "12574": 201,
        "12575": 254,
        "12576": 244,
        "12577": 109,
        "12578": 220,
        "12579": 67,
        "12580": 216,
        "12581": 49,
        "12582": 130,
        "12583": 132,
        "12584": 68,
        "12585": 243,
        "12586": 177,
        "12587": 33,
        "12588": 149,
        "12589": 59,
        "12590": 228,
        "12591": 124,
        "12592": 234,
        "12593": 215,
        "12594": 142,
        "12595": 127,
        "12596": 106,
        "12597": 63,
        "12598": 27,
        "12599": 181,
        "12600": 13,
        "12601": 28,
        "12602": 49,
        "12603": 253,
        "12604": 148,
        "12605": 197,
        "12606": 104,
        "12607": 132,
        "12608": 154,
        "12609": 103,
        "12610": 20,
        "12611": 220,
        "12612": 207,
        "12613": 196,
        "12614": 98,
        "12615": 1,
        "12616": 91,
        "12617": 91,
        "12618": 213,
        "12619": 192,
        "12620": 37,
        "12621": 140,
        "12622": 101,
        "12623": 211,
        "12624": 112,
        "12625": 167,
        "12626": 245,
        "12627": 145,
        "12628": 199,
        "12629": 65,
        "12630": 138,
        "12631": 152,
        "12632": 10,
        "12633": 23,
        "12634": 48,
        "12635": 219,
        "12636": 139,
        "12637": 68,
        "12638": 49,
        "12639": 90,
        "12640": 62,
        "12641": 18,
        "12642": 19,
        "12643": 231,
        "12644": 40,
        "12645": 34,
        "12646": 2,
        "12647": 239,
        "12648": 197,
        "12649": 219,
        "12650": 234,
        "12651": 229,
        "12652": 151,
        "12653": 150,
        "12654": 216,
        "12655": 145,
        "12656": 36,
        "12657": 22,
        "12658": 37,
        "12659": 239,
        "12660": 56,
        "12661": 36,
        "12662": 160,
        "12663": 58,
        "12664": 139,
        "12665": 230,
        "12666": 13,
        "12667": 253,
        "12668": 118,
        "12669": 228,
        "12670": 127,
        "12671": 195,
        "12672": 21,
        "12673": 253,
        "12674": 125,
        "12675": 162,
        "12676": 212,
        "12677": 140,
        "12678": 97,
        "12679": 115,
        "12680": 93,
        "12681": 210,
        "12682": 28,
        "12683": 69,
        "12684": 9,
        "12685": 79,
        "12686": 170,
        "12687": 241,
        "12688": 108,
        "12689": 225,
        "12690": 59,
        "12691": 18,
        "12692": 90,
        "12693": 222,
        "12694": 23,
        "12695": 40,
        "12696": 117,
        "12697": 136,
        "12698": 150,
        "12699": 189,
        "12700": 126,
        "12701": 106,
        "12702": 231,
        "12703": 201,
        "12704": 69,
        "12705": 190,
        "12706": 62,
        "12707": 186,
        "12708": 72,
        "12709": 30,
        "12710": 105,
        "12711": 134,
        "12712": 103,
        "12713": 163,
        "12714": 33,
        "12715": 134,
        "12716": 227,
        "12717": 198,
        "12718": 106,
        "12719": 13,
        "12720": 68,
        "12721": 149,
        "12722": 226,
        "12723": 245,
        "12724": 71,
        "12725": 102,
        "12726": 234,
        "12727": 254,
        "12728": 44,
        "12729": 188,
        "12730": 18,
        "12731": 119,
        "12732": 168,
        "12733": 25,
        "12734": 7,
        "12735": 100,
        "12736": 204,
        "12737": 230,
        "12738": 168,
        "12739": 147,
        "12740": 112,
        "12741": 5,
        "12742": 35,
        "12743": 64,
        "12744": 17,
        "12745": 34,
        "12746": 18,
        "12747": 222,
        "12748": 214,
        "12749": 94,
        "12750": 110,
        "12751": 60,
        "12752": 24,
        "12753": 236,
        "12754": 93,
        "12755": 230,
        "12756": 156,
        "12757": 68,
        "12758": 3,
        "12759": 40,
        "12760": 63,
        "12761": 209,
        "12762": 174,
        "12763": 90,
        "12764": 169,
        "12765": 172,
        "12766": 96,
        "12767": 203,
        "12768": 76,
        "12769": 132,
        "12770": 233,
        "12771": 201,
        "12772": 119,
        "12773": 23,
        "12774": 217,
        "12775": 115,
        "12776": 114,
        "12777": 115,
        "12778": 90,
        "12779": 229,
        "12780": 214,
        "12781": 194,
        "12782": 122,
        "12783": 233,
        "12784": 97,
        "12785": 64,
        "12786": 104,
        "12787": 203,
        "12788": 61,
        "12789": 214,
        "12790": 89,
        "12791": 222,
        "12792": 182,
        "12793": 81,
        "12794": 111,
        "12795": 143,
        "12796": 232,
        "12797": 61,
        "12798": 213,
        "12799": 117,
        "12800": 36,
        "12801": 20,
        "12802": 248,
        "12803": 130,
        "12804": 226,
        "12805": 243,
        "12806": 117,
        "12807": 231,
        "12808": 55,
        "12809": 96,
        "12810": 140,
        "12811": 180,
        "12812": 227,
        "12813": 225,
        "12814": 45,
        "12815": 57,
        "12816": 241,
        "12817": 125,
        "12818": 186,
        "12819": 174,
        "12820": 157,
        "12821": 27,
        "12822": 48,
        "12823": 134,
        "12824": 13,
        "12825": 214,
        "12826": 97,
        "12827": 195,
        "12828": 87,
        "12829": 122,
        "12830": 192,
        "12831": 227,
        "12832": 206,
        "12833": 191,
        "12834": 99,
        "12835": 11,
        "12836": 169,
        "12837": 190,
        "12838": 113,
        "12839": 2,
        "12840": 14,
        "12841": 130,
        "12842": 163,
        "12843": 152,
        "12844": 65,
        "12845": 214,
        "12846": 193,
        "12847": 19,
        "12848": 174,
        "12849": 16,
        "12850": 194,
        "12851": 5,
        "12852": 156,
        "12853": 38,
        "12854": 12,
        "12855": 164,
        "12856": 154,
        "12857": 89,
        "12858": 122,
        "12859": 76,
        "12860": 85,
        "12861": 51,
        "12862": 203,
        "12863": 175,
        "12864": 159,
        "12865": 240,
        "12866": 167,
        "12867": 119,
        "12868": 100,
        "12869": 185,
        "12870": 148,
        "12871": 181,
        "12872": 111,
        "12873": 27,
        "12874": 199,
        "12875": 1,
        "12876": 137,
        "12877": 230,
        "12878": 50,
        "12879": 73,
        "12880": 212,
        "12881": 225,
        "12882": 128,
        "12883": 121,
        "12884": 122,
        "12885": 133,
        "12886": 57,
        "12887": 163,
        "12888": 66,
        "12889": 113,
        "12890": 185,
        "12891": 207,
        "12892": 39,
        "12893": 139,
        "12894": 207,
        "12895": 44,
        "12896": 164,
        "12897": 117,
        "12898": 178,
        "12899": 178,
        "12900": 223,
        "12901": 222,
        "12902": 221,
        "12903": 85,
        "12904": 171,
        "12905": 4,
        "12906": 158,
        "12907": 212,
        "12908": 122,
        "12909": 121,
        "12910": 170,
        "12911": 26,
        "12912": 180,
        "12913": 123,
        "12914": 171,
        "12915": 106,
        "12916": 183,
        "12917": 116,
        "12918": 91,
        "12919": 195,
        "12920": 196,
        "12921": 206,
        "12922": 181,
        "12923": 32,
        "12924": 219,
        "12925": 40,
        "12926": 107,
        "12927": 43,
        "12928": 198,
        "12929": 177,
        "12930": 82,
        "12931": 206,
        "12932": 239,
        "12933": 214,
        "12934": 42,
        "12935": 86,
        "12936": 161,
        "12937": 156,
        "12938": 176,
        "12939": 18,
        "12940": 156,
        "12941": 10,
        "12942": 113,
        "12943": 52,
        "12944": 250,
        "12945": 220,
        "12946": 217,
        "12947": 92,
        "12948": 4,
        "12949": 131,
        "12950": 234,
        "12951": 52,
        "12952": 90,
        "12953": 77,
        "12954": 99,
        "12955": 16,
        "12956": 253,
        "12957": 123,
        "12958": 131,
        "12959": 248,
        "12960": 101,
        "12961": 96,
        "12962": 244,
        "12963": 48,
        "12964": 151,
        "12965": 127,
        "12966": 130,
        "12967": 230,
        "12968": 246,
        "12969": 111,
        "12970": 56,
        "12971": 151,
        "12972": 250,
        "12973": 189,
        "12974": 190,
        "12975": 125,
        "12976": 189,
        "12977": 9,
        "12978": 35,
        "12979": 244,
        "12980": 224,
        "12981": 82,
        "12982": 26,
        "12983": 95,
        "12984": 94,
        "12985": 2,
        "12986": 135,
        "12987": 113,
        "12988": 147,
        "12989": 56,
        "12990": 60,
        "12991": 34,
        "12992": 30,
        "12993": 199,
        "12994": 89,
        "12995": 165,
        "12996": 35,
        "12997": 136,
        "12998": 94,
        "12999": 209,
        "13000": 221,
        "13001": 43,
        "13002": 65,
        "13003": 164,
        "13004": 97,
        "13005": 92,
        "13006": 37,
        "13007": 12,
        "13008": 108,
        "13009": 70,
        "13010": 223,
        "13011": 198,
        "13012": 15,
        "13013": 127,
        "13014": 163,
        "13015": 231,
        "13016": 150,
        "13017": 22,
        "13018": 169,
        "13019": 203,
        "13020": 117,
        "13021": 200,
        "13022": 9,
        "13023": 120,
        "13024": 19,
        "13025": 224,
        "13026": 53,
        "13027": 181,
        "13028": 255,
        "13029": 234,
        "13030": 199,
        "13031": 184,
        "13032": 1,
        "13033": 17,
        "13034": 88,
        "13035": 123,
        "13036": 190,
        "13037": 47,
        "13038": 23,
        "13039": 6,
        "13040": 147,
        "13041": 114,
        "13042": 8,
        "13043": 197,
        "13044": 132,
        "13045": 200,
        "13046": 23,
        "13047": 72,
        "13048": 145,
        "13049": 167,
        "13050": 146,
        "13051": 166,
        "13052": 109,
        "13053": 253,
        "13054": 108,
        "13055": 86,
        "13056": 96,
        "13057": 43,
        "13058": 199,
        "13059": 224,
        "13060": 183,
        "13061": 232,
        "13062": 69,
        "13063": 96,
        "13064": 198,
        "13065": 104,
        "13066": 18,
        "13067": 234,
        "13068": 77,
        "13069": 124,
        "13070": 52,
        "13071": 13,
        "13072": 54,
        "13073": 4,
        "13074": 171,
        "13075": 88,
        "13076": 106,
        "13077": 226,
        "13078": 135,
        "13079": 188,
        "13080": 125,
        "13081": 157,
        "13082": 162,
        "13083": 41,
        "13084": 78,
        "13085": 75,
        "13086": 216,
        "13087": 56,
        "13088": 43,
        "13089": 12,
        "13090": 115,
        "13091": 42,
        "13092": 3,
        "13093": 186,
        "13094": 214,
        "13095": 58,
        "13096": 224,
        "13097": 241,
        "13098": 36,
        "13099": 195,
        "13100": 80,
        "13101": 210,
        "13102": 206,
        "13103": 56,
        "13104": 249,
        "13105": 202,
        "13106": 60,
        "13107": 187,
        "13108": 203,
        "13109": 45,
        "13110": 5,
        "13111": 167,
        "13112": 173,
        "13113": 20,
        "13114": 215,
        "13115": 190,
        "13116": 73,
        "13117": 225,
        "13118": 162,
        "13119": 62,
        "13120": 30,
        "13121": 105,
        "13122": 46,
        "13123": 212,
        "13124": 33,
        "13125": 73,
        "13126": 32,
        "13127": 4,
        "13128": 46,
        "13129": 78,
        "13130": 234,
        "13131": 36,
        "13132": 3,
        "13133": 249,
        "13134": 133,
        "13135": 81,
        "13136": 220,
        "13137": 85,
        "13138": 84,
        "13139": 116,
        "13140": 205,
        "13141": 110,
        "13142": 234,
        "13143": 214,
        "13144": 60,
        "13145": 80,
        "13146": 102,
        "13147": 47,
        "13148": 118,
        "13149": 76,
        "13150": 114,
        "13151": 200,
        "13152": 193,
        "13153": 134,
        "13154": 243,
        "13155": 169,
        "13156": 242,
        "13157": 236,
        "13158": 171,
        "13159": 233,
        "13160": 1,
        "13161": 79,
        "13162": 188,
        "13163": 59,
        "13164": 149,
        "13165": 154,
        "13166": 150,
        "13167": 208,
        "13168": 181,
        "13169": 172,
        "13170": 207,
        "13171": 215,
        "13172": 173,
        "13173": 153,
        "13174": 242,
        "13175": 145,
        "13176": 175,
        "13177": 64,
        "13178": 144,
        "13179": 49,
        "13180": 141,
        "13181": 124,
        "13182": 193,
        "13183": 89,
        "13184": 95,
        "13185": 63,
        "13186": 191,
        "13187": 46,
        "13188": 91,
        "13189": 232,
        "13190": 211,
        "13191": 26,
        "13192": 73,
        "13193": 156,
        "13194": 103,
        "13195": 89,
        "13196": 221,
        "13197": 130,
        "13198": 240,
        "13199": 39,
        "13200": 178,
        "13201": 2,
        "13202": 208,
        "13203": 100,
        "13204": 210,
        "13205": 15,
        "13206": 108,
        "13207": 1,
        "13208": 196,
        "13209": 193,
        "13210": 16,
        "13211": 106,
        "13212": 180,
        "13213": 207,
        "13214": 12,
        "13215": 220,
        "13216": 255,
        "13217": 23,
        "13218": 160,
        "13219": 47,
        "13220": 67,
        "13221": 184,
        "13222": 140,
        "13223": 25,
        "13224": 210,
        "13225": 171,
        "13226": 110,
        "13227": 75,
        "13228": 220,
        "13229": 69,
        "13230": 135,
        "13231": 93,
        "13232": 140,
        "13233": 183,
        "13234": 43,
        "13235": 183,
        "13236": 110,
        "13237": 46,
        "13238": 229,
        "13239": 180,
        "13240": 62,
        "13241": 106,
        "13242": 181,
        "13243": 60,
        "13244": 192,
        "13245": 79,
        "13246": 41,
        "13247": 192,
        "13248": 44,
        "13249": 127,
        "13250": 105,
        "13251": 15,
        "13252": 56,
        "13253": 106,
        "13254": 186,
        "13255": 69,
        "13256": 222,
        "13257": 201,
        "13258": 18,
        "13259": 52,
        "13260": 141,
        "13261": 251,
        "13262": 82,
        "13263": 214,
        "13264": 199,
        "13265": 186,
        "13266": 113,
        "13267": 36,
        "13268": 25,
        "13269": 239,
        "13270": 96,
        "13271": 25,
        "13272": 91,
        "13273": 207,
        "13274": 98,
        "13275": 130,
        "13276": 0,
        "13277": 22,
        "13278": 41,
        "13279": 116,
        "13280": 71,
        "13281": 13,
        "13282": 215,
        "13283": 128,
        "13284": 149,
        "13285": 191,
        "13286": 26,
        "13287": 198,
        "13288": 114,
        "13289": 213,
        "13290": 168,
        "13291": 80,
        "13292": 53,
        "13293": 135,
        "13294": 84,
        "13295": 174,
        "13296": 66,
        "13297": 23,
        "13298": 36,
        "13299": 61,
        "13300": 72,
        "13301": 162,
        "13302": 58,
        "13303": 80,
        "13304": 67,
        "13305": 235,
        "13306": 248,
        "13307": 210,
        "13308": 34,
        "13309": 45,
        "13310": 131,
        "13311": 235,
        "13312": 139,
        "13313": 124,
        "13314": 41,
        "13315": 163,
        "13316": 247,
        "13317": 193,
        "13318": 69,
        "13319": 204,
        "13320": 147,
        "13321": 26,
        "13322": 19,
        "13323": 39,
        "13324": 212,
        "13325": 0,
        "13326": 109,
        "13327": 46,
        "13328": 102,
        "13329": 210,
        "13330": 89,
        "13331": 143,
        "13332": 111,
        "13333": 173,
        "13334": 118,
        "13335": 87,
        "13336": 199,
        "13337": 71,
        "13338": 23,
        "13339": 207,
        "13340": 150,
        "13341": 170,
        "13342": 61,
        "13343": 208,
        "13344": 215,
        "13345": 24,
        "13346": 105,
        "13347": 247,
        "13348": 200,
        "13349": 244,
        "13350": 246,
        "13351": 34,
        "13352": 18,
        "13353": 197,
        "13354": 58,
        "13355": 9,
        "13356": 142,
        "13357": 87,
        "13358": 174,
        "13359": 240,
        "13360": 208,
        "13361": 88,
        "13362": 109,
        "13363": 9,
        "13364": 115,
        "13365": 243,
        "13366": 38,
        "13367": 61,
        "13368": 193,
        "13369": 71,
        "13370": 7,
        "13371": 103,
        "13372": 138,
        "13373": 175,
        "13374": 45,
        "13375": 60,
        "13376": 244,
        "13377": 5,
        "13378": 74,
        "13379": 104,
        "13380": 209,
        "13381": 103,
        "13382": 65,
        "13383": 147,
        "13384": 248,
        "13385": 144,
        "13386": 185,
        "13387": 121,
        "13388": 193,
        "13389": 223,
        "13390": 86,
        "13391": 40,
        "13392": 80,
        "13393": 118,
        "13394": 253,
        "13395": 96,
        "13396": 14,
        "13397": 244,
        "13398": 251,
        "13399": 115,
        "13400": 131,
        "13401": 42,
        "13402": 128,
        "13403": 244,
        "13404": 169,
        "13405": 238,
        "13406": 69,
        "13407": 30,
        "13408": 95,
        "13409": 37,
        "13410": 209,
        "13411": 113,
        "13412": 235,
        "13413": 231,
        "13414": 42,
        "13415": 231,
        "13416": 32,
        "13417": 57,
        "13418": 251,
        "13419": 186,
        "13420": 14,
        "13421": 240,
        "13422": 200,
        "13423": 107,
        "13424": 95,
        "13425": 210,
        "13426": 100,
        "13427": 79,
        "13428": 83,
        "13429": 239,
        "13430": 182,
        "13431": 169,
        "13432": 137,
        "13433": 250,
        "13434": 40,
        "13435": 56,
        "13436": 57,
        "13437": 134,
        "13438": 94,
        "13439": 185,
        "13440": 186,
        "13441": 237,
        "13442": 51,
        "13443": 194,
        "13444": 104,
        "13445": 82,
        "13446": 8,
        "13447": 104,
        "13448": 175,
        "13449": 31,
        "13450": 17,
        "13451": 207,
        "13452": 202,
        "13453": 70,
        "13454": 74,
        "13455": 250,
        "13456": 209,
        "13457": 122,
        "13458": 140,
        "13459": 206,
        "13460": 3,
        "13461": 247,
        "13462": 42,
        "13463": 229,
        "13464": 9,
        "13465": 10,
        "13466": 34,
        "13467": 211,
        "13468": 114,
        "13469": 231,
        "13470": 162,
        "13471": 179,
        "13472": 168,
        "13473": 95,
        "13474": 26,
        "13475": 252,
        "13476": 134,
        "13477": 151,
        "13478": 135,
        "13479": 148,
        "13480": 170,
        "13481": 244,
        "13482": 206,
        "13483": 126,
        "13484": 224,
        "13485": 178,
        "13486": 154,
        "13487": 48,
        "13488": 48,
        "13489": 183,
        "13490": 208,
        "13491": 140,
        "13492": 149,
        "13493": 41,
        "13494": 175,
        "13495": 70,
        "13496": 112,
        "13497": 133,
        "13498": 124,
        "13499": 52,
        "13500": 250,
        "13501": 219,
        "13502": 67,
        "13503": 55,
        "13504": 242,
        "13505": 47,
        "13506": 68,
        "13507": 48,
        "13508": 247,
        "13509": 254,
        "13510": 143,
        "13511": 12,
        "13512": 202,
        "13513": 214,
        "13514": 59,
        "13515": 147,
        "13516": 197,
        "13517": 41,
        "13518": 124,
        "13519": 120,
        "13520": 100,
        "13521": 114,
        "13522": 110,
        "13523": 199,
        "13524": 27,
        "13525": 158,
        "13526": 209,
        "13527": 144,
        "13528": 47,
        "13529": 167,
        "13530": 31,
        "13531": 176,
        "13532": 168,
        "13533": 210,
        "13534": 41,
        "13535": 214,
        "13536": 93,
        "13537": 12,
        "13538": 195,
        "13539": 193,
        "13540": 254,
        "13541": 243,
        "13542": 12,
        "13543": 59,
        "13544": 199,
        "13545": 1,
        "13546": 146,
        "13547": 115,
        "13548": 177,
        "13549": 247,
        "13550": 150,
        "13551": 84,
        "13552": 178,
        "13553": 242,
        "13554": 31,
        "13555": 162,
        "13556": 193,
        "13557": 130,
        "13558": 233,
        "13559": 237,
        "13560": 126,
        "13561": 184,
        "13562": 222,
        "13563": 36,
        "13564": 91,
        "13565": 215,
        "13566": 42,
        "13567": 210,
        "13568": 1,
        "13569": 151,
        "13570": 117,
        "13571": 244,
        "13572": 137,
        "13573": 241,
        "13574": 23,
        "13575": 84,
        "13576": 65,
        "13577": 194,
        "13578": 40,
        "13579": 170,
        "13580": 185,
        "13581": 205,
        "13582": 165,
        "13583": 102,
        "13584": 102,
        "13585": 105,
        "13586": 195,
        "13587": 218,
        "13588": 224,
        "13589": 114,
        "13590": 60,
        "13591": 131,
        "13592": 151,
        "13593": 121,
        "13594": 67,
        "13595": 201,
        "13596": 87,
        "13597": 70,
        "13598": 11,
        "13599": 128,
        "13600": 55,
        "13601": 142,
        "13602": 186,
        "13603": 222,
        "13604": 129,
        "13605": 121,
        "13606": 79,
        "13607": 199,
        "13608": 13,
        "13609": 177,
        "13610": 92,
        "13611": 111,
        "13612": 8,
        "13613": 205,
        "13614": 225,
        "13615": 218,
        "13616": 176,
        "13617": 214,
        "13618": 19,
        "13619": 224,
        "13620": 253,
        "13621": 43,
        "13622": 159,
        "13623": 144,
        "13624": 213,
        "13625": 245,
        "13626": 84,
        "13627": 58,
        "13628": 46,
        "13629": 74,
        "13630": 141,
        "13631": 48,
        "13632": 70,
        "13633": 143,
        "13634": 212,
        "13635": 208,
        "13636": 145,
        "13637": 84,
        "13638": 149,
        "13639": 213,
        "13640": 121,
        "13641": 43,
        "13642": 104,
        "13643": 207,
        "13644": 141,
        "13645": 47,
        "13646": 130,
        "13647": 73,
        "13648": 222,
        "13649": 129,
        "13650": 91,
        "13651": 127,
        "13652": 122,
        "13653": 104,
        "13654": 142,
        "13655": 12,
        "13656": 212,
        "13657": 210,
        "13658": 30,
        "13659": 181,
        "13660": 17,
        "13661": 188,
        "13662": 59,
        "13663": 92,
        "13664": 189,
        "13665": 15,
        "13666": 55,
        "13667": 160,
        "13668": 153,
        "13669": 137,
        "13670": 41,
        "13671": 246,
        "13672": 93,
        "13673": 11,
        "13674": 110,
        "13675": 108,
        "13676": 71,
        "13677": 141,
        "13678": 170,
        "13679": 0,
        "13680": 204,
        "13681": 64,
        "13682": 104,
        "13683": 233,
        "13684": 206,
        "13685": 155,
        "13686": 179,
        "13687": 7,
        "13688": 166,
        "13689": 72,
        "13690": 63,
        "13691": 117,
        "13692": 25,
        "13693": 182,
        "13694": 147,
        "13695": 68,
        "13696": 123,
        "13697": 36,
        "13698": 71,
        "13699": 204,
        "13700": 85,
        "13701": 17,
        "13702": 223,
        "13703": 205,
        "13704": 0,
        "13705": 122,
        "13706": 173,
        "13707": 62,
        "13708": 190,
        "13709": 233,
        "13710": 5,
        "13711": 244,
        "13712": 59,
        "13713": 142,
        "13714": 105,
        "13715": 217,
        "13716": 56,
        "13717": 178,
        "13718": 198,
        "13719": 236,
        "13720": 43,
        "13721": 222,
        "13722": 181,
        "13723": 117,
        "13724": 189,
        "13725": 206,
        "13726": 147,
        "13727": 246,
        "13728": 11,
        "13729": 183,
        "13730": 54,
        "13731": 45,
        "13732": 200,
        "13733": 139,
        "13734": 57,
        "13735": 238,
        "13736": 159,
        "13737": 247,
        "13738": 231,
        "13739": 216,
        "13740": 87,
        "13741": 199,
        "13742": 10,
        "13743": 67,
        "13744": 234,
        "13745": 251,
        "13746": 255,
        "13747": 116,
        "13748": 75,
        "13749": 109,
        "13750": 243,
        "13751": 45,
        "13752": 183,
        "13753": 160,
        "13754": 200,
        "13755": 147,
        "13756": 214,
        "13757": 141,
        "13758": 203,
        "13759": 11,
        "13760": 28,
        "13761": 11,
        "13762": 6,
        "13763": 64,
        "13764": 68,
        "13765": 150,
        "13766": 243,
        "13767": 42,
        "13768": 102,
        "13769": 162,
        "13770": 40,
        "13771": 207,
        "13772": 144,
        "13773": 56,
        "13774": 199,
        "13775": 82,
        "13776": 161,
        "13777": 244,
        "13778": 102,
        "13779": 145,
        "13780": 42,
        "13781": 101,
        "13782": 96,
        "13783": 120,
        "13784": 226,
        "13785": 1,
        "13786": 156,
        "13787": 48,
        "13788": 55,
        "13789": 64,
        "13790": 101,
        "13791": 202,
        "13792": 48,
        "13793": 107,
        "13794": 32,
        "13795": 175,
        "13796": 188,
        "13797": 131,
        "13798": 109,
        "13799": 12,
        "13800": 192,
        "13801": 8,
        "13802": 77,
        "13803": 225,
        "13804": 146,
        "13805": 62,
        "13806": 22,
        "13807": 45,
        "13808": 242,
        "13809": 217,
        "13810": 194,
        "13811": 53,
        "13812": 231,
        "13813": 96,
        "13814": 138,
        "13815": 155,
        "13816": 129,
        "13817": 248,
        "13818": 138,
        "13819": 182,
        "13820": 40,
        "13821": 172,
        "13822": 213,
        "13823": 190,
        "13824": 187,
        "13825": 212,
        "13826": 49,
        "13827": 148,
        "13828": 212,
        "13829": 140,
        "13830": 85,
        "13831": 121,
        "13832": 33,
        "13833": 91,
        "13834": 52,
        "13835": 225,
        "13836": 165,
        "13837": 130,
        "13838": 128,
        "13839": 157,
        "13840": 3,
        "13841": 128,
        "13842": 87,
        "13843": 175,
        "13844": 152,
        "13845": 87,
        "13846": 2,
        "13847": 249,
        "13848": 202,
        "13849": 189,
        "13850": 177,
        "13851": 211,
        "13852": 21,
        "13853": 164,
        "13854": 32,
        "13855": 152,
        "13856": 221,
        "13857": 196,
        "13858": 23,
        "13859": 56,
        "13860": 14,
        "13861": 91,
        "13862": 206,
        "13863": 205,
        "13864": 150,
        "13865": 232,
        "13866": 246,
        "13867": 222,
        "13868": 145,
        "13869": 217,
        "13870": 101,
        "13871": 240,
        "13872": 66,
        "13873": 178,
        "13874": 51,
        "13875": 53,
        "13876": 21,
        "13877": 82,
        "13878": 97,
        "13879": 139,
        "13880": 160,
        "13881": 133,
        "13882": 35,
        "13883": 254,
        "13884": 50,
        "13885": 56,
        "13886": 108,
        "13887": 63,
        "13888": 196,
        "13889": 64,
        "13890": 194,
        "13891": 132,
        "13892": 4,
        "13893": 189,
        "13894": 80,
        "13895": 144,
        "13896": 24,
        "13897": 196,
        "13898": 236,
        "13899": 100,
        "13900": 231,
        "13901": 121,
        "13902": 202,
        "13903": 58,
        "13904": 151,
        "13905": 102,
        "13906": 210,
        "13907": 123,
        "13908": 77,
        "13909": 145,
        "13910": 110,
        "13911": 3,
        "13912": 29,
        "13913": 221,
        "13914": 243,
        "13915": 58,
        "13916": 227,
        "13917": 110,
        "13918": 141,
        "13919": 148,
        "13920": 82,
        "13921": 52,
        "13922": 136,
        "13923": 138,
        "13924": 54,
        "13925": 32,
        "13926": 137,
        "13927": 131,
        "13928": 221,
        "13929": 238,
        "13930": 150,
        "13931": 213,
        "13932": 39,
        "13933": 151,
        "13934": 243,
        "13935": 25,
        "13936": 63,
        "13937": 251,
        "13938": 99,
        "13939": 51,
        "13940": 184,
        "13941": 127,
        "13942": 83,
        "13943": 207,
        "13944": 246,
        "13945": 81,
        "13946": 204,
        "13947": 38,
        "13948": 252,
        "13949": 165,
        "13950": 224,
        "13951": 42,
        "13952": 151,
        "13953": 172,
        "13954": 172,
        "13955": 186,
        "13956": 146,
        "13957": 244,
        "13958": 3,
        "13959": 10,
        "13960": 25,
        "13961": 228,
        "13962": 192,
        "13963": 63,
        "13964": 174,
        "13965": 96,
        "13966": 173,
        "13967": 27,
        "13968": 227,
        "13969": 239,
        "13970": 157,
        "13971": 93,
        "13972": 79,
        "13973": 62,
        "13974": 8,
        "13975": 104,
        "13976": 40,
        "13977": 101,
        "13978": 166,
        "13979": 251,
        "13980": 227,
        "13981": 191,
        "13982": 243,
        "13983": 134,
        "13984": 117,
        "13985": 14,
        "13986": 247,
        "13987": 91,
        "13988": 235,
        "13989": 237,
        "13990": 9,
        "13991": 191,
        "13992": 135,
        "13993": 93,
        "13994": 211,
        "13995": 169,
        "13996": 30,
        "13997": 8,
        "13998": 214,
        "13999": 14,
        "14000": 152,
        "14001": 170,
        "14002": 127,
        "14003": 212,
        "14004": 154,
        "14005": 233,
        "14006": 242,
        "14007": 205,
        "14008": 27,
        "14009": 136,
        "14010": 15,
        "14011": 191,
        "14012": 253,
        "14013": 205,
        "14014": 15,
        "14015": 29,
        "14016": 59,
        "14017": 87,
        "14018": 114,
        "14019": 18,
        "14020": 205,
        "14021": 166,
        "14022": 240,
        "14023": 133,
        "14024": 183,
        "14025": 227,
        "14026": 203,
        "14027": 184,
        "14028": 204,
        "14029": 248,
        "14030": 109,
        "14031": 84,
        "14032": 141,
        "14033": 186,
        "14034": 173,
        "14035": 97,
        "14036": 8,
        "14037": 130,
        "14038": 132,
        "14039": 34,
        "14040": 184,
        "14041": 66,
        "14042": 167,
        "14043": 47,
        "14044": 247,
        "14045": 30,
        "14046": 232,
        "14047": 24,
        "14048": 187,
        "14049": 203,
        "14050": 228,
        "14051": 249,
        "14052": 53,
        "14053": 88,
        "14054": 201,
        "14055": 44,
        "14056": 72,
        "14057": 58,
        "14058": 206,
        "14059": 16,
        "14060": 74,
        "14061": 191,
        "14062": 75,
        "14063": 144,
        "14064": 32,
        "14065": 38,
        "14066": 134,
        "14067": 221,
        "14068": 39,
        "14069": 101,
        "14070": 247,
        "14071": 217,
        "14072": 202,
        "14073": 76,
        "14074": 246,
        "14075": 221,
        "14076": 122,
        "14077": 180,
        "14078": 169,
        "14079": 122,
        "14080": 3,
        "14081": 80,
        "14082": 225,
        "14083": 189,
        "14084": 67,
        "14085": 197,
        "14086": 86,
        "14087": 124,
        "14088": 108,
        "14089": 170,
        "14090": 36,
        "14091": 10,
        "14092": 182,
        "14093": 224,
        "14094": 255,
        "14095": 201,
        "14096": 234,
        "14097": 28,
        "14098": 210,
        "14099": 90,
        "14100": 186,
        "14101": 51,
        "14102": 82,
        "14103": 205,
        "14104": 13,
        "14105": 72,
        "14106": 8,
        "14107": 152,
        "14108": 116,
        "14109": 25,
        "14110": 123,
        "14111": 28,
        "14112": 182,
        "14113": 35,
        "14114": 203,
        "14115": 238,
        "14116": 209,
        "14117": 142,
        "14118": 106,
        "14119": 142,
        "14120": 246,
        "14121": 209,
        "14122": 210,
        "14123": 145,
        "14124": 137,
        "14125": 217,
        "14126": 53,
        "14127": 5,
        "14128": 157,
        "14129": 150,
        "14130": 38,
        "14131": 245,
        "14132": 20,
        "14133": 168,
        "14134": 161,
        "14135": 187,
        "14136": 44,
        "14137": 253,
        "14138": 136,
        "14139": 0,
        "14140": 54,
        "14141": 169,
        "14142": 27,
        "14143": 119,
        "14144": 224,
        "14145": 83,
        "14146": 38,
        "14147": 140,
        "14148": 47,
        "14149": 49,
        "14150": 101,
        "14151": 15,
        "14152": 118,
        "14153": 52,
        "14154": 48,
        "14155": 101,
        "14156": 173,
        "14157": 208,
        "14158": 170,
        "14159": 69,
        "14160": 96,
        "14161": 200,
        "14162": 248,
        "14163": 230,
        "14164": 250,
        "14165": 127,
        "14166": 169,
        "14167": 115,
        "14168": 199,
        "14169": 192,
        "14170": 219,
        "14171": 150,
        "14172": 65,
        "14173": 97,
        "14174": 254,
        "14175": 69,
        "14176": 51,
        "14177": 226,
        "14178": 186,
        "14179": 102,
        "14180": 30,
        "14181": 188,
        "14182": 142,
        "14183": 22,
        "14184": 3,
        "14185": 61,
        "14186": 134,
        "14187": 111,
        "14188": 45,
        "14189": 43,
        "14190": 160,
        "14191": 144,
        "14192": 7,
        "14193": 113,
        "14194": 64,
        "14195": 153,
        "14196": 228,
        "14197": 228,
        "14198": 202,
        "14199": 243,
        "14200": 184,
        "14201": 143,
        "14202": 165,
        "14203": 115,
        "14204": 238,
        "14205": 100,
        "14206": 53,
        "14207": 52,
        "14208": 42,
        "14209": 63,
        "14210": 67,
        "14211": 68,
        "14212": 92,
        "14213": 201,
        "14214": 198,
        "14215": 238,
        "14216": 229,
        "14217": 9,
        "14218": 158,
        "14219": 175,
        "14220": 79,
        "14221": 173,
        "14222": 173,
        "14223": 181,
        "14224": 246,
        "14225": 99,
        "14226": 142,
        "14227": 142,
        "14228": 49,
        "14229": 185,
        "14230": 31,
        "14231": 178,
        "14232": 211,
        "14233": 164,
        "14234": 172,
        "14235": 234,
        "14236": 199,
        "14237": 14,
        "14238": 57,
        "14239": 222,
        "14240": 69,
        "14241": 239,
        "14242": 97,
        "14243": 134,
        "14244": 58,
        "14245": 132,
        "14246": 159,
        "14247": 222,
        "14248": 38,
        "14249": 237,
        "14250": 59,
        "14251": 231,
        "14252": 34,
        "14253": 123,
        "14254": 59,
        "14255": 213,
        "14256": 223,
        "14257": 116,
        "14258": 48,
        "14259": 26,
        "14260": 244,
        "14261": 60,
        "14262": 83,
        "14263": 7,
        "14264": 35,
        "14265": 191,
        "14266": 84,
        "14267": 96,
        "14268": 31,
        "14269": 237,
        "14270": 107,
        "14271": 9,
        "14272": 221,
        "14273": 46,
        "14274": 254,
        "14275": 245,
        "14276": 152,
        "14277": 119,
        "14278": 196,
        "14279": 167,
        "14280": 235,
        "14281": 202,
        "14282": 170,
        "14283": 192,
        "14284": 94,
        "14285": 218,
        "14286": 146,
        "14287": 196,
        "14288": 244,
        "14289": 111,
        "14290": 180,
        "14291": 77,
        "14292": 54,
        "14293": 134,
        "14294": 155,
        "14295": 6,
        "14296": 138,
        "14297": 113,
        "14298": 162,
        "14299": 66,
        "14300": 147,
        "14301": 141,
        "14302": 130,
        "14303": 55,
        "14304": 117,
        "14305": 107,
        "14306": 235,
        "14307": 255,
        "14308": 84,
        "14309": 229,
        "14310": 71,
        "14311": 231,
        "14312": 111,
        "14313": 221,
        "14314": 161,
        "14315": 247,
        "14316": 107,
        "14317": 92,
        "14318": 114,
        "14319": 97,
        "14320": 223,
        "14321": 7,
        "14322": 157,
        "14323": 160,
        "14324": 162,
        "14325": 88,
        "14326": 255,
        "14327": 62,
        "14328": 65,
        "14329": 187,
        "14330": 170,
        "14331": 230,
        "14332": 164,
        "14333": 132,
        "14334": 222,
        "14335": 76,
        "14336": 172,
        "14337": 128,
        "14338": 71,
        "14339": 176,
        "14340": 209,
        "14341": 47,
        "14342": 62,
        "14343": 81,
        "14344": 137,
        "14345": 230,
        "14346": 226,
        "14347": 217,
        "14348": 88,
        "14349": 90,
        "14350": 226,
        "14351": 110,
        "14352": 47,
        "14353": 65,
        "14354": 125,
        "14355": 55,
        "14356": 225,
        "14357": 239,
        "14358": 126,
        "14359": 131,
        "14360": 80,
        "14361": 145,
        "14362": 6,
        "14363": 100,
        "14364": 185,
        "14365": 10,
        "14366": 43,
        "14367": 221,
        "14368": 229,
        "14369": 242,
        "14370": 132,
        "14371": 152,
        "14372": 222,
        "14373": 207,
        "14374": 97,
        "14375": 125,
        "14376": 196,
        "14377": 185,
        "14378": 106,
        "14379": 7,
        "14380": 106,
        "14381": 226,
        "14382": 214,
        "14383": 45,
        "14384": 5,
        "14385": 80,
        "14386": 237,
        "14387": 124,
        "14388": 123,
        "14389": 107,
        "14390": 67,
        "14391": 187,
        "14392": 68,
        "14393": 232,
        "14394": 0,
        "14395": 62,
        "14396": 16,
        "14397": 126,
        "14398": 213,
        "14399": 22,
        "14400": 248,
        "14401": 197,
        "14402": 208,
        "14403": 99,
        "14404": 97,
        "14405": 36,
        "14406": 222,
        "14407": 55,
        "14408": 129,
        "14409": 234,
        "14410": 28,
        "14411": 246,
        "14412": 225,
        "14413": 214,
        "14414": 195,
        "14415": 213,
        "14416": 238,
        "14417": 237,
        "14418": 34,
        "14419": 121,
        "14420": 123,
        "14421": 40,
        "14422": 61,
        "14423": 207,
        "14424": 138,
        "14425": 225,
        "14426": 192,
        "14427": 1,
        "14428": 34,
        "14429": 91,
        "14430": 219,
        "14431": 177,
        "14432": 159,
        "14433": 230,
        "14434": 79,
        "14435": 242,
        "14436": 96,
        "14437": 221,
        "14438": 105,
        "14439": 221,
        "14440": 39,
        "14441": 17,
        "14442": 92,
        "14443": 239,
        "14444": 129,
        "14445": 40,
        "14446": 131,
        "14447": 50,
        "14448": 53,
        "14449": 116,
        "14450": 126,
        "14451": 70,
        "14452": 42,
        "14453": 144,
        "14454": 234,
        "14455": 154,
        "14456": 176,
        "14457": 241,
        "14458": 252,
        "14459": 212,
        "14460": 49,
        "14461": 99,
        "14462": 33,
        "14463": 217,
        "14464": 183,
        "14465": 210,
        "14466": 11,
        "14467": 139,
        "14468": 92,
        "14469": 113,
        "14470": 53,
        "14471": 187,
        "14472": 156,
        "14473": 201,
        "14474": 239,
        "14475": 20,
        "14476": 57,
        "14477": 99,
        "14478": 59,
        "14479": 249,
        "14480": 247,
        "14481": 207,
        "14482": 61,
        "14483": 182,
        "14484": 152,
        "14485": 53,
        "14486": 181,
        "14487": 65,
        "14488": 103,
        "14489": 180,
        "14490": 53,
        "14491": 191,
        "14492": 159,
        "14493": 251,
        "14494": 83,
        "14495": 228,
        "14496": 90,
        "14497": 62,
        "14498": 114,
        "14499": 0,
        "14500": 152,
        "14501": 157,
        "14502": 65,
        "14503": 4,
        "14504": 221,
        "14505": 124,
        "14506": 97,
        "14507": 24,
        "14508": 41,
        "14509": 154,
        "14510": 103,
        "14511": 96,
        "14512": 180,
        "14513": 191,
        "14514": 60,
        "14515": 0,
        "14516": 80,
        "14517": 27,
        "14518": 190,
        "14519": 233,
        "14520": 153,
        "14521": 30,
        "14522": 104,
        "14523": 237,
        "14524": 64,
        "14525": 101,
        "14526": 24,
        "14527": 103,
        "14528": 155,
        "14529": 244,
        "14530": 148,
        "14531": 75,
        "14532": 128,
        "14533": 1,
        "14534": 213,
        "14535": 78,
        "14536": 150,
        "14537": 13,
        "14538": 132,
        "14539": 205,
        "14540": 95,
        "14541": 74,
        "14542": 2,
        "14543": 137,
        "14544": 127,
        "14545": 108,
        "14546": 56,
        "14547": 119,
        "14548": 201,
        "14549": 191,
        "14550": 217,
        "14551": 17,
        "14552": 106,
        "14553": 195,
        "14554": 143,
        "14555": 171,
        "14556": 150,
        "14557": 48,
        "14558": 210,
        "14559": 253,
        "14560": 24,
        "14561": 87,
        "14562": 171,
        "14563": 209,
        "14564": 200,
        "14565": 199,
        "14566": 66,
        "14567": 141,
        "14568": 64,
        "14569": 168,
        "14570": 244,
        "14571": 84,
        "14572": 181,
        "14573": 224,
        "14574": 181,
        "14575": 197,
        "14576": 254,
        "14577": 94,
        "14578": 121,
        "14579": 131,
        "14580": 224,
        "14581": 37,
        "14582": 227,
        "14583": 230,
        "14584": 46,
        "14585": 251,
        "14586": 205,
        "14587": 157,
        "14588": 254,
        "14589": 154,
        "14590": 141,
        "14591": 92,
        "14592": 164,
        "14593": 197,
        "14594": 31,
        "14595": 137,
        "14596": 54,
        "14597": 24,
        "14598": 79,
        "14599": 218,
        "14600": 123,
        "14601": 161,
        "14602": 85,
        "14603": 89,
        "14604": 86,
        "14605": 158,
        "14606": 141,
        "14607": 181,
        "14608": 243,
        "14609": 251,
        "14610": 180,
        "14611": 18,
        "14612": 72,
        "14613": 185,
        "14614": 48,
        "14615": 171,
        "14616": 69,
        "14617": 104,
        "14618": 154,
        "14619": 238,
        "14620": 41,
        "14621": 168,
        "14622": 60,
        "14623": 88,
        "14624": 6,
        "14625": 68,
        "14626": 107,
        "14627": 66,
        "14628": 97,
        "14629": 170,
        "14630": 115,
        "14631": 94,
        "14632": 76,
        "14633": 192,
        "14634": 174,
        "14635": 129,
        "14636": 105,
        "14637": 98,
        "14638": 124,
        "14639": 74,
        "14640": 248,
        "14641": 130,
        "14642": 86,
        "14643": 221,
        "14644": 46,
        "14645": 57,
        "14646": 239,
        "14647": 245,
        "14648": 87,
        "14649": 232,
        "14650": 166,
        "14651": 57,
        "14652": 77,
        "14653": 104,
        "14654": 71,
        "14655": 195,
        "14656": 68,
        "14657": 40,
        "14658": 112,
        "14659": 101,
        "14660": 170,
        "14661": 181,
        "14662": 127,
        "14663": 90,
        "14664": 25,
        "14665": 163,
        "14666": 11,
        "14667": 10,
        "14668": 127,
        "14669": 106,
        "14670": 197,
        "14671": 147,
        "14672": 222,
        "14673": 197,
        "14674": 169,
        "14675": 247,
        "14676": 238,
        "14677": 41,
        "14678": 21,
        "14679": 33,
        "14680": 63,
        "14681": 148,
        "14682": 78,
        "14683": 242,
        "14684": 68,
        "14685": 127,
        "14686": 28,
        "14687": 195,
        "14688": 243,
        "14689": 178,
        "14690": 33,
        "14691": 161,
        "14692": 128,
        "14693": 84,
        "14694": 35,
        "14695": 85,
        "14696": 152,
        "14697": 44,
        "14698": 0,
        "14699": 214,
        "14700": 177,
        "14701": 25,
        "14702": 108,
        "14703": 131,
        "14704": 18,
        "14705": 10,
        "14706": 3,
        "14707": 152,
        "14708": 33,
        "14709": 37,
        "14710": 229,
        "14711": 179,
        "14712": 29,
        "14713": 150,
        "14714": 213,
        "14715": 3,
        "14716": 59,
        "14717": 225,
        "14718": 105,
        "14719": 235,
        "14720": 1,
        "14721": 20,
        "14722": 118,
        "14723": 251,
        "14724": 7,
        "14725": 250,
        "14726": 18,
        "14727": 101,
        "14728": 211,
        "14729": 141,
        "14730": 184,
        "14731": 171,
        "14732": 141,
        "14733": 25,
        "14734": 96,
        "14735": 129,
        "14736": 120,
        "14737": 39,
        "14738": 86,
        "14739": 146,
        "14740": 44,
        "14741": 213,
        "14742": 141,
        "14743": 137,
        "14744": 168,
        "14745": 46,
        "14746": 252,
        "14747": 28,
        "14748": 252,
        "14749": 200,
        "14750": 18,
        "14751": 29,
        "14752": 189,
        "14753": 129,
        "14754": 64,
        "14755": 104,
        "14756": 221,
        "14757": 237,
        "14758": 194,
        "14759": 195,
        "14760": 11,
        "14761": 179,
        "14762": 187,
        "14763": 135,
        "14764": 231,
        "14765": 118,
        "14766": 136,
        "14767": 248,
        "14768": 11,
        "14769": 109,
        "14770": 26,
        "14771": 148,
        "14772": 200,
        "14773": 177,
        "14774": 157,
        "14775": 82,
        "14776": 195,
        "14777": 107,
        "14778": 118,
        "14779": 171,
        "14780": 175,
        "14781": 19,
        "14782": 97,
        "14783": 15,
        "14784": 19,
        "14785": 70,
        "14786": 152,
        "14787": 208,
        "14788": 172,
        "14789": 252,
        "14790": 220,
        "14791": 222,
        "14792": 22,
        "14793": 245,
        "14794": 102,
        "14795": 132,
        "14796": 220,
        "14797": 60,
        "14798": 126,
        "14799": 252,
        "14800": 37,
        "14801": 234,
        "14802": 226,
        "14803": 99,
        "14804": 154,
        "14805": 165,
        "14806": 14,
        "14807": 65,
        "14808": 88,
        "14809": 147,
        "14810": 133,
        "14811": 200,
        "14812": 57,
        "14813": 201,
        "14814": 0,
        "14815": 139,
        "14816": 65,
        "14817": 101,
        "14818": 231,
        "14819": 178,
        "14820": 51,
        "14821": 136,
        "14822": 142,
        "14823": 71,
        "14824": 234,
        "14825": 56,
        "14826": 49,
        "14827": 174,
        "14828": 63,
        "14829": 162,
        "14830": 88,
        "14831": 114,
        "14832": 202,
        "14833": 160,
        "14834": 234,
        "14835": 65,
        "14836": 49,
        "14837": 76,
        "14838": 220,
        "14839": 147,
        "14840": 209,
        "14841": 75,
        "14842": 123,
        "14843": 221,
        "14844": 129,
        "14845": 69,
        "14846": 126,
        "14847": 49,
        "14848": 74,
        "14849": 75,
        "14850": 163,
        "14851": 243,
        "14852": 28,
        "14853": 148,
        "14854": 189,
        "14855": 84,
        "14856": 239,
        "14857": 75,
        "14858": 115,
        "14859": 206,
        "14860": 226,
        "14861": 58,
        "14862": 142,
        "14863": 27,
        "14864": 240,
        "14865": 30,
        "14866": 226,
        "14867": 18,
        "14868": 10,
        "14869": 4,
        "14870": 231,
        "14871": 140,
        "14872": 214,
        "14873": 30,
        "14874": 205,
        "14875": 72,
        "14876": 85,
        "14877": 212,
        "14878": 141,
        "14879": 147,
        "14880": 221,
        "14881": 223,
        "14882": 132,
        "14883": 55,
        "14884": 172,
        "14885": 156,
        "14886": 28,
        "14887": 125,
        "14888": 183,
        "14889": 52,
        "14890": 12,
        "14891": 139,
        "14892": 40,
        "14893": 137,
        "14894": 141,
        "14895": 243,
        "14896": 136,
        "14897": 131,
        "14898": 22,
        "14899": 92,
        "14900": 191,
        "14901": 240,
        "14902": 56,
        "14903": 82,
        "14904": 171,
        "14905": 35,
        "14906": 67,
        "14907": 177,
        "14908": 69,
        "14909": 79,
        "14910": 129,
        "14911": 158,
        "14912": 125,
        "14913": 103,
        "14914": 249,
        "14915": 245,
        "14916": 101,
        "14917": 117,
        "14918": 225,
        "14919": 187,
        "14920": 165,
        "14921": 199,
        "14922": 173,
        "14923": 230,
        "14924": 112,
        "14925": 2,
        "14926": 172,
        "14927": 159,
        "14928": 170,
        "14929": 179,
        "14930": 255,
        "14931": 249,
        "14932": 212,
        "14933": 250,
        "14934": 215,
        "14935": 79,
        "14936": 40,
        "14937": 35,
        "14938": 28,
        "14939": 147,
        "14940": 100,
        "14941": 56,
        "14942": 165,
        "14943": 239,
        "14944": 92,
        "14945": 106,
        "14946": 17,
        "14947": 159,
        "14948": 98,
        "14949": 188,
        "14950": 154,
        "14951": 14,
        "14952": 15,
        "14953": 199,
        "14954": 90,
        "14955": 136,
        "14956": 215,
        "14957": 173,
        "14958": 10,
        "14959": 206,
        "14960": 144,
        "14961": 212,
        "14962": 9,
        "14963": 76,
        "14964": 108,
        "14965": 93,
        "14966": 236,
        "14967": 231,
        "14968": 197,
        "14969": 179,
        "14970": 171,
        "14971": 91,
        "14972": 22,
        "14973": 10,
        "14974": 80,
        "14975": 157,
        "14976": 157,
        "14977": 138,
        "14978": 45,
        "14979": 68,
        "14980": 15,
        "14981": 228,
        "14982": 171,
        "14983": 50,
        "14984": 122,
        "14985": 45,
        "14986": 206,
        "14987": 29,
        "14988": 40,
        "14989": 7,
        "14990": 209,
        "14991": 69,
        "14992": 46,
        "14993": 39,
        "14994": 40,
        "14995": 160,
        "14996": 197,
        "14997": 110,
        "14998": 211,
        "14999": 219,
        "15000": 13,
        "15001": 56,
        "15002": 1,
        "15003": 10,
        "15004": 17,
        "15005": 102,
        "15006": 147,
        "15007": 91,
        "15008": 74,
        "15009": 216,
        "15010": 31,
        "15011": 202,
        "15012": 33,
        "15013": 53,
        "15014": 165,
        "15015": 20,
        "15016": 145,
        "15017": 137,
        "15018": 247,
        "15019": 137,
        "15020": 221,
        "15021": 135,
        "15022": 200,
        "15023": 254,
        "15024": 93,
        "15025": 254,
        "15026": 193,
        "15027": 162,
        "15028": 47,
        "15029": 194,
        "15030": 125,
        "15031": 190,
        "15032": 82,
        "15033": 133,
        "15034": 20,
        "15035": 109,
        "15036": 138,
        "15037": 124,
        "15038": 89,
        "15039": 209,
        "15040": 107,
        "15041": 151,
        "15042": 136,
        "15043": 80,
        "15044": 202,
        "15045": 238,
        "15046": 180,
        "15047": 198,
        "15048": 59,
        "15049": 18,
        "15050": 248,
        "15051": 47,
        "15052": 161,
        "15053": 251,
        "15054": 190,
        "15055": 239,
        "15056": 67,
        "15057": 205,
        "15058": 144,
        "15059": 94,
        "15060": 0,
        "15061": 230,
        "15062": 131,
        "15063": 193,
        "15064": 181,
        "15065": 137,
        "15066": 170,
        "15067": 68,
        "15068": 28,
        "15069": 217,
        "15070": 11,
        "15071": 236,
        "15072": 236,
        "15073": 221,
        "15074": 172,
        "15075": 177,
        "15076": 192,
        "15077": 193,
        "15078": 94,
        "15079": 245,
        "15080": 128,
        "15081": 223,
        "15082": 182,
        "15083": 93,
        "15084": 114,
        "15085": 137,
        "15086": 65,
        "15087": 243,
        "15088": 64,
        "15089": 67,
        "15090": 43,
        "15091": 87,
        "15092": 10,
        "15093": 167,
        "15094": 167,
        "15095": 212,
        "15096": 127,
        "15097": 34,
        "15098": 179,
        "15099": 141,
        "15100": 5,
        "15101": 177,
        "15102": 136,
        "15103": 90,
        "15104": 59,
        "15105": 205,
        "15106": 8,
        "15107": 35,
        "15108": 124,
        "15109": 80,
        "15110": 95,
        "15111": 204,
        "15112": 45,
        "15113": 141,
        "15114": 238,
        "15115": 24,
        "15116": 82,
        "15117": 120,
        "15118": 153,
        "15119": 126,
        "15120": 119,
        "15121": 124,
        "15122": 218,
        "15123": 146,
        "15124": 150,
        "15125": 8,
        "15126": 87,
        "15127": 32,
        "15128": 33,
        "15129": 114,
        "15130": 214,
        "15131": 22,
        "15132": 0,
        "15133": 25,
        "15134": 40,
        "15135": 91,
        "15136": 169,
        "15137": 112,
        "15138": 105,
        "15139": 75,
        "15140": 128,
        "15141": 75,
        "15142": 158,
        "15143": 121,
        "15144": 76,
        "15145": 6,
        "15146": 104,
        "15147": 255,
        "15148": 201,
        "15149": 142,
        "15150": 107,
        "15151": 118,
        "15152": 195,
        "15153": 113,
        "15154": 220,
        "15155": 49,
        "15156": 112,
        "15157": 102,
        "15158": 10,
        "15159": 83,
        "15160": 23,
        "15161": 199,
        "15162": 164,
        "15163": 74,
        "15164": 55,
        "15165": 81,
        "15166": 18,
        "15167": 89,
        "15168": 30,
        "15169": 169,
        "15170": 101,
        "15171": 123,
        "15172": 231,
        "15173": 30,
        "15174": 94,
        "15175": 46,
        "15176": 99,
        "15177": 230,
        "15178": 72,
        "15179": 136,
        "15180": 96,
        "15181": 63,
        "15182": 124,
        "15183": 245,
        "15184": 143,
        "15185": 244,
        "15186": 202,
        "15187": 242,
        "15188": 87,
        "15189": 67,
        "15190": 207,
        "15191": 231,
        "15192": 205,
        "15193": 120,
        "15194": 174,
        "15195": 43,
        "15196": 30,
        "15197": 252,
        "15198": 120,
        "15199": 14,
        "15200": 227,
        "15201": 81,
        "15202": 152,
        "15203": 173,
        "15204": 176,
        "15205": 183,
        "15206": 61,
        "15207": 189,
        "15208": 146,
        "15209": 89,
        "15210": 88,
        "15211": 148,
        "15212": 185,
        "15213": 133,
        "15214": 156,
        "15215": 84,
        "15216": 149,
        "15217": 84,
        "15218": 101,
        "15219": 28,
        "15220": 187,
        "15221": 91,
        "15222": 202,
        "15223": 29,
        "15224": 55,
        "15225": 3,
        "15226": 194,
        "15227": 158,
        "15228": 208,
        "15229": 108,
        "15230": 216,
        "15231": 33,
        "15232": 112,
        "15233": 8,
        "15234": 192,
        "15235": 44,
        "15236": 158,
        "15237": 173,
        "15238": 19,
        "15239": 114,
        "15240": 90,
        "15241": 120,
        "15242": 12,
        "15243": 113,
        "15244": 124,
        "15245": 130,
        "15246": 183,
        "15247": 23,
        "15248": 94,
        "15249": 32,
        "15250": 167,
        "15251": 215,
        "15252": 15,
        "15253": 191,
        "15254": 132,
        "15255": 183,
        "15256": 165,
        "15257": 252,
        "15258": 53,
        "15259": 120,
        "15260": 140,
        "15261": 75,
        "15262": 155,
        "15263": 218,
        "15264": 191,
        "15265": 10,
        "15266": 131,
        "15267": 115,
        "15268": 137,
        "15269": 148,
        "15270": 140,
        "15271": 147,
        "15272": 10,
        "15273": 27,
        "15274": 122,
        "15275": 235,
        "15276": 108,
        "15277": 65,
        "15278": 151,
        "15279": 199,
        "15280": 134,
        "15281": 12,
        "15282": 5,
        "15283": 168,
        "15284": 214,
        "15285": 249,
        "15286": 31,
        "15287": 186,
        "15288": 195,
        "15289": 169,
        "15290": 234,
        "15291": 255,
        "15292": 62,
        "15293": 247,
        "15294": 103,
        "15295": 1,
        "15296": 55,
        "15297": 193,
        "15298": 233,
        "15299": 107,
        "15300": 110,
        "15301": 24,
        "15302": 47,
        "15303": 23,
        "15304": 85,
        "15305": 228,
        "15306": 60,
        "15307": 147,
        "15308": 218,
        "15309": 249,
        "15310": 250,
        "15311": 230,
        "15312": 174,
        "15313": 5,
        "15314": 78,
        "15315": 5,
        "15316": 225,
        "15317": 50,
        "15318": 47,
        "15319": 191,
        "15320": 67,
        "15321": 79,
        "15322": 251,
        "15323": 91,
        "15324": 104,
        "15325": 216,
        "15326": 160,
        "15327": 49,
        "15328": 223,
        "15329": 230,
        "15330": 197,
        "15331": 99,
        "15332": 227,
        "15333": 71,
        "15334": 37,
        "15335": 95,
        "15336": 106,
        "15337": 39,
        "15338": 3,
        "15339": 65,
        "15340": 202,
        "15341": 97,
        "15342": 119,
        "15343": 36,
        "15344": 89,
        "15345": 74,
        "15346": 166,
        "15347": 84,
        "15348": 142,
        "15349": 140,
        "15350": 89,
        "15351": 195,
        "15352": 172,
        "15353": 175,
        "15354": 95,
        "15355": 55,
        "15356": 107,
        "15357": 73,
        "15358": 76,
        "15359": 3,
        "15360": 15,
        "15361": 98,
        "15362": 181,
        "15363": 118,
        "15364": 56,
        "15365": 162,
        "15366": 114,
        "15367": 47,
        "15368": 229,
        "15369": 243,
        "15370": 230,
        "15371": 143,
        "15372": 198,
        "15373": 147,
        "15374": 213,
        "15375": 122,
        "15376": 62,
        "15377": 18,
        "15378": 19,
        "15379": 7,
        "15380": 93,
        "15381": 205,
        "15382": 113,
        "15383": 110,
        "15384": 171,
        "15385": 0,
        "15386": 136,
        "15387": 72,
        "15388": 54,
        "15389": 224,
        "15390": 107,
        "15391": 109,
        "15392": 82,
        "15393": 151,
        "15394": 216,
        "15395": 156,
        "15396": 185,
        "15397": 234,
        "15398": 161,
        "15399": 196,
        "15400": 22,
        "15401": 23,
        "15402": 85,
        "15403": 74,
        "15404": 187,
        "15405": 2,
        "15406": 80,
        "15407": 168,
        "15408": 145,
        "15409": 245,
        "15410": 31,
        "15411": 102,
        "15412": 241,
        "15413": 226,
        "15414": 95,
        "15415": 58,
        "15416": 103,
        "15417": 161,
        "15418": 255,
        "15419": 194,
        "15420": 8,
        "15421": 203,
        "15422": 186,
        "15423": 206,
        "15424": 85,
        "15425": 4,
        "15426": 88,
        "15427": 162,
        "15428": 135,
        "15429": 187,
        "15430": 214,
        "15431": 73,
        "15432": 192,
        "15433": 165,
        "15434": 112,
        "15435": 125,
        "15436": 43,
        "15437": 18,
        "15438": 182,
        "15439": 9,
        "15440": 115,
        "15441": 152,
        "15442": 239,
        "15443": 243,
        "15444": 255,
        "15445": 227,
        "15446": 131,
        "15447": 238,
        "15448": 250,
        "15449": 242,
        "15450": 121,
        "15451": 72,
        "15452": 255,
        "15453": 201,
        "15454": 88,
        "15455": 61,
        "15456": 109,
        "15457": 111,
        "15458": 124,
        "15459": 185,
        "15460": 117,
        "15461": 67,
        "15462": 145,
        "15463": 104,
        "15464": 237,
        "15465": 153,
        "15466": 12,
        "15467": 67,
        "15468": 59,
        "15469": 240,
        "15470": 48,
        "15471": 109,
        "15472": 217,
        "15473": 51,
        "15474": 5,
        "15475": 100,
        "15476": 56,
        "15477": 136,
        "15478": 90,
        "15479": 32,
        "15480": 0,
        "15481": 119,
        "15482": 54,
        "15483": 78,
        "15484": 54,
        "15485": 135,
        "15486": 127,
        "15487": 29,
        "15488": 22,
        "15489": 140,
        "15490": 153,
        "15491": 136,
        "15492": 45,
        "15493": 88,
        "15494": 187,
        "15495": 191,
        "15496": 168,
        "15497": 251,
        "15498": 18,
        "15499": 63,
        "15500": 147,
        "15501": 230,
        "15502": 15,
        "15503": 59,
        "15504": 11,
        "15505": 26,
        "15506": 166,
        "15507": 223,
        "15508": 130,
        "15509": 65,
        "15510": 211,
        "15511": 94,
        "15512": 43,
        "15513": 152,
        "15514": 49,
        "15515": 12,
        "15516": 39,
        "15517": 75,
        "15518": 60,
        "15519": 84,
        "15520": 103,
        "15521": 203,
        "15522": 160,
        "15523": 52,
        "15524": 4,
        "15525": 155,
        "15526": 122,
        "15527": 70,
        "15528": 187,
        "15529": 213,
        "15530": 3,
        "15531": 217,
        "15532": 222,
        "15533": 144,
        "15534": 34,
        "15535": 227,
        "15536": 193,
        "15537": 172,
        "15538": 185,
        "15539": 123,
        "15540": 235,
        "15541": 77,
        "15542": 33,
        "15543": 134,
        "15544": 90,
        "15545": 34,
        "15546": 233,
        "15547": 43,
        "15548": 35,
        "15549": 171,
        "15550": 163,
        "15551": 209,
        "15552": 127,
        "15553": 108,
        "15554": 56,
        "15555": 233,
        "15556": 18,
        "15557": 199,
        "15558": 174,
        "15559": 99,
        "15560": 117,
        "15561": 207,
        "15562": 126,
        "15563": 26,
        "15564": 247,
        "15565": 184,
        "15566": 62,
        "15567": 186,
        "15568": 6,
        "15569": 93,
        "15570": 190,
        "15571": 248,
        "15572": 212,
        "15573": 58,
        "15574": 244,
        "15575": 205,
        "15576": 52,
        "15577": 161,
        "15578": 205,
        "15579": 74,
        "15580": 0,
        "15581": 18,
        "15582": 23,
        "15583": 140,
        "15584": 12,
        "15585": 32,
        "15586": 109,
        "15587": 86,
        "15588": 246,
        "15589": 223,
        "15590": 109,
        "15591": 101,
        "15592": 67,
        "15593": 100,
        "15594": 198,
        "15595": 111,
        "15596": 90,
        "15597": 51,
        "15598": 55,
        "15599": 171,
        "15600": 183,
        "15601": 91,
        "15602": 198,
        "15603": 198,
        "15604": 17,
        "15605": 132,
        "15606": 19,
        "15607": 197,
        "15608": 171,
        "15609": 127,
        "15610": 18,
        "15611": 24,
        "15612": 73,
        "15613": 197,
        "15614": 183,
        "15615": 21,
        "15616": 127,
        "15617": 21,
        "15618": 100,
        "15619": 141,
        "15620": 42,
        "15621": 234,
        "15622": 164,
        "15623": 9,
        "15624": 199,
        "15625": 191,
        "15626": 121,
        "15627": 98,
        "15628": 37,
        "15629": 39,
        "15630": 228,
        "15631": 162,
        "15632": 89,
        "15633": 41,
        "15634": 229,
        "15635": 212,
        "15636": 200,
        "15637": 244,
        "15638": 109,
        "15639": 38,
        "15640": 36,
        "15641": 42,
        "15642": 103,
        "15643": 105,
        "15644": 213,
        "15645": 255,
        "15646": 63,
        "15647": 36,
        "15648": 95,
        "15649": 124,
        "15650": 151,
        "15651": 69,
        "15652": 120,
        "15653": 52,
        "15654": 109,
        "15655": 200,
        "15656": 13,
        "15657": 158,
        "15658": 5,
        "15659": 96,
        "15660": 130,
        "15661": 7,
        "15662": 244,
        "15663": 105,
        "15664": 91,
        "15665": 164,
        "15666": 107,
        "15667": 234,
        "15668": 44,
        "15669": 1,
        "15670": 3,
        "15671": 131,
        "15672": 182,
        "15673": 196,
        "15674": 121,
        "15675": 85,
        "15676": 62,
        "15677": 29,
        "15678": 102,
        "15679": 38,
        "15680": 237,
        "15681": 241,
        "15682": 21,
        "15683": 15,
        "15684": 110,
        "15685": 147,
        "15686": 96,
        "15687": 213,
        "15688": 4,
        "15689": 4,
        "15690": 39,
        "15691": 97,
        "15692": 238,
        "15693": 25,
        "15694": 24,
        "15695": 157,
        "15696": 174,
        "15697": 110,
        "15698": 23,
        "15699": 255,
        "15700": 18,
        "15701": 229,
        "15702": 68,
        "15703": 28,
        "15704": 131,
        "15705": 49,
        "15706": 133,
        "15707": 71,
        "15708": 251,
        "15709": 165,
        "15710": 69,
        "15711": 205,
        "15712": 242,
        "15713": 14,
        "15714": 216,
        "15715": 188,
        "15716": 236,
        "15717": 0,
        "15718": 234,
        "15719": 1,
        "15720": 165,
        "15721": 135,
        "15722": 200,
        "15723": 52,
        "15724": 250,
        "15725": 33,
        "15726": 79,
        "15727": 55,
        "15728": 55,
        "15729": 24,
        "15730": 30,
        "15731": 163,
        "15732": 159,
        "15733": 31,
        "15734": 136,
        "15735": 130,
        "15736": 139,
        "15737": 43,
        "15738": 59,
        "15739": 13,
        "15740": 162,
        "15741": 185,
        "15742": 138,
        "15743": 69,
        "15744": 140,
        "15745": 241,
        "15746": 45,
        "15747": 255,
        "15748": 230,
        "15749": 234,
        "15750": 43,
        "15751": 163,
        "15752": 22,
        "15753": 182,
        "15754": 193,
        "15755": 113,
        "15756": 76,
        "15757": 155,
        "15758": 184,
        "15759": 222,
        "15760": 168,
        "15761": 169,
        "15762": 33,
        "15763": 187,
        "15764": 151,
        "15765": 16,
        "15766": 248,
        "15767": 175,
        "15768": 218,
        "15769": 161,
        "15770": 238,
        "15771": 172,
        "15772": 218,
        "15773": 158,
        "15774": 25,
        "15775": 154,
        "15776": 37,
        "15777": 245,
        "15778": 114,
        "15779": 87,
        "15780": 155,
        "15781": 60,
        "15782": 246,
        "15783": 70,
        "15784": 75,
        "15785": 243,
        "15786": 102,
        "15787": 245,
        "15788": 83,
        "15789": 163,
        "15790": 4,
        "15791": 178,
        "15792": 173,
        "15793": 90,
        "15794": 234,
        "15795": 90,
        "15796": 142,
        "15797": 7,
        "15798": 252,
        "15799": 13,
        "15800": 75,
        "15801": 200,
        "15802": 199,
        "15803": 168,
        "15804": 184,
        "15805": 67,
        "15806": 199,
        "15807": 16,
        "15808": 184,
        "15809": 34,
        "15810": 167,
        "15811": 112,
        "15812": 216,
        "15813": 87,
        "15814": 144,
        "15815": 149,
        "15816": 157,
        "15817": 100,
        "15818": 166,
        "15819": 49,
        "15820": 151,
        "15821": 100,
        "15822": 106,
        "15823": 43,
        "15824": 255,
        "15825": 166,
        "15826": 64,
        "15827": 14,
        "15828": 157,
        "15829": 187,
        "15830": 137,
        "15831": 68,
        "15832": 125,
        "15833": 165,
        "15834": 131,
        "15835": 82,
        "15836": 115,
        "15837": 3,
        "15838": 204,
        "15839": 91,
        "15840": 70,
        "15841": 162,
        "15842": 172,
        "15843": 211,
        "15844": 220,
        "15845": 50,
        "15846": 129,
        "15847": 11,
        "15848": 140,
        "15849": 47,
        "15850": 108,
        "15851": 153,
        "15852": 71,
        "15853": 195,
        "15854": 42,
        "15855": 103,
        "15856": 65,
        "15857": 247,
        "15858": 72,
        "15859": 200,
        "15860": 119,
        "15861": 74,
        "15862": 219,
        "15863": 255,
        "15864": 10,
        "15865": 184,
        "15866": 169,
        "15867": 19,
        "15868": 169,
        "15869": 204,
        "15870": 167,
        "15871": 75,
        "15872": 232,
        "15873": 181,
        "15874": 176,
        "15875": 121,
        "15876": 157,
        "15877": 1,
        "15878": 176,
        "15879": 112,
        "15880": 254,
        "15881": 62,
        "15882": 178,
        "15883": 129,
        "15884": 49,
        "15885": 195,
        "15886": 28,
        "15887": 47,
        "15888": 166,
        "15889": 164,
        "15890": 174,
        "15891": 144,
        "15892": 40,
        "15893": 141,
        "15894": 253,
        "15895": 110,
        "15896": 111,
        "15897": 225,
        "15898": 253,
        "15899": 77,
        "15900": 75,
        "15901": 40,
        "15902": 119,
        "15903": 122,
        "15904": 198,
        "15905": 107,
        "15906": 188,
        "15907": 127,
        "15908": 139,
        "15909": 152,
        "15910": 247,
        "15911": 147,
        "15912": 39,
        "15913": 74,
        "15914": 65,
        "15915": 74,
        "15916": 56,
        "15917": 133,
        "15918": 25,
        "15919": 60,
        "15920": 215,
        "15921": 77,
        "15922": 195,
        "15923": 230,
        "15924": 147,
        "15925": 131,
        "15926": 167,
        "15927": 137,
        "15928": 130,
        "15929": 19,
        "15930": 149,
        "15931": 249,
        "15932": 114,
        "15933": 235,
        "15934": 223,
        "15935": 140,
        "15936": 87,
        "15937": 76,
        "15938": 8,
        "15939": 81,
        "15940": 234,
        "15941": 37,
        "15942": 114,
        "15943": 58,
        "15944": 25,
        "15945": 236,
        "15946": 144,
        "15947": 245,
        "15948": 242,
        "15949": 34,
        "15950": 237,
        "15951": 182,
        "15952": 240,
        "15953": 216,
        "15954": 25,
        "15955": 37,
        "15956": 200,
        "15957": 213,
        "15958": 34,
        "15959": 197,
        "15960": 27,
        "15961": 186,
        "15962": 9,
        "15963": 221,
        "15964": 132,
        "15965": 253,
        "15966": 141,
        "15967": 127,
        "15968": 185,
        "15969": 15,
        "15970": 177,
        "15971": 122,
        "15972": 86,
        "15973": 119,
        "15974": 30,
        "15975": 59,
        "15976": 59,
        "15977": 30,
        "15978": 191,
        "15979": 105,
        "15980": 208,
        "15981": 45,
        "15982": 230,
        "15983": 150,
        "15984": 53,
        "15985": 148,
        "15986": 131,
        "15987": 61,
        "15988": 170,
        "15989": 103,
        "15990": 177,
        "15991": 5,
        "15992": 67,
        "15993": 159,
        "15994": 40,
        "15995": 241,
        "15996": 228,
        "15997": 207,
        "15998": 127,
        "15999": 58,
        "16000": 154,
        "16001": 186,
        "16002": 76,
        "16003": 3,
        "16004": 78,
        "16005": 252,
        "16006": 127,
        "16007": 51,
        "16008": 221,
        "16009": 164,
        "16010": 74,
        "16011": 131,
        "16012": 103,
        "16013": 30,
        "16014": 254,
        "16015": 103,
        "16016": 177,
        "16017": 166,
        "16018": 15,
        "16019": 60,
        "16020": 210,
        "16021": 224,
        "16022": 96,
        "16023": 84,
        "16024": 248,
        "16025": 232,
        "16026": 55,
        "16027": 88,
        "16028": 229,
        "16029": 254,
        "16030": 201,
        "16031": 218,
        "16032": 247,
        "16033": 55,
        "16034": 225,
        "16035": 249,
        "16036": 209,
        "16037": 50,
        "16038": 156,
        "16039": 5,
        "16040": 12,
        "16041": 9,
        "16042": 33,
        "16043": 143,
        "16044": 41,
        "16045": 234,
        "16046": 122,
        "16047": 104,
        "16048": 226,
        "16049": 71,
        "16050": 113,
        "16051": 76,
        "16052": 199,
        "16053": 126,
        "16054": 224,
        "16055": 240,
        "16056": 110,
        "16057": 76,
        "16058": 123,
        "16059": 233,
        "16060": 67,
        "16061": 155,
        "16062": 167,
        "16063": 149,
        "16064": 57,
        "16065": 143,
        "16066": 226,
        "16067": 252,
        "16068": 252,
        "16069": 229,
        "16070": 234,
        "16071": 97,
        "16072": 1,
        "16073": 156,
        "16074": 100,
        "16075": 163,
        "16076": 49,
        "16077": 50,
        "16078": 201,
        "16079": 50,
        "16080": 129,
        "16081": 42,
        "16082": 102,
        "16083": 85,
        "16084": 165,
        "16085": 56,
        "16086": 190,
        "16087": 12,
        "16088": 76,
        "16089": 195,
        "16090": 78,
        "16091": 110,
        "16092": 32,
        "16093": 5,
        "16094": 229,
        "16095": 30,
        "16096": 86,
        "16097": 204,
        "16098": 49,
        "16099": 29,
        "16100": 100,
        "16101": 191,
        "16102": 80,
        "16103": 165,
        "16104": 27,
        "16105": 12,
        "16106": 208,
        "16107": 155,
        "16108": 55,
        "16109": 129,
        "16110": 18,
        "16111": 109,
        "16112": 163,
        "16113": 21,
        "16114": 140,
        "16115": 198,
        "16116": 48,
        "16117": 197,
        "16118": 12,
        "16119": 190,
        "16120": 116,
        "16121": 158,
        "16122": 153,
        "16123": 61,
        "16124": 35,
        "16125": 127,
        "16126": 66,
        "16127": 205,
        "16128": 192,
        "16129": 49,
        "16130": 176,
        "16131": 152,
        "16132": 74,
        "16133": 102,
        "16134": 128,
        "16135": 215,
        "16136": 180,
        "16137": 111,
        "16138": 59,
        "16139": 231,
        "16140": 110,
        "16141": 53,
        "16142": 140,
        "16143": 30,
        "16144": 25,
        "16145": 205,
        "16146": 2,
        "16147": 98,
        "16148": 136,
        "16149": 51,
        "16150": 176,
        "16151": 10,
        "16152": 170,
        "16153": 43,
        "16154": 139,
        "16155": 57,
        "16156": 16,
        "16157": 42,
        "16158": 104,
        "16159": 83,
        "16160": 1,
        "16161": 249,
        "16162": 196,
        "16163": 141,
        "16164": 31,
        "16165": 125,
        "16166": 119,
        "16167": 34,
        "16168": 203,
        "16169": 74,
        "16170": 140,
        "16171": 244,
        "16172": 106,
        "16173": 217,
        "16174": 240,
        "16175": 76,
        "16176": 254,
        "16177": 253,
        "16178": 178,
        "16179": 40,
        "16180": 120,
        "16181": 126,
        "16182": 98,
        "16183": 88,
        "16184": 2,
        "16185": 197,
        "16186": 87,
        "16187": 139,
        "16188": 70,
        "16189": 240,
        "16190": 48,
        "16191": 63,
        "16192": 203,
        "16193": 149,
        "16194": 204,
        "16195": 211,
        "16196": 69,
        "16197": 15,
        "16198": 14,
        "16199": 198,
        "16200": 21,
        "16201": 122,
        "16202": 104,
        "16203": 14,
        "16204": 131,
        "16205": 95,
        "16206": 165,
        "16207": 2,
        "16208": 158,
        "16209": 174,
        "16210": 246,
        "16211": 205,
        "16212": 107,
        "16213": 155,
        "16214": 173,
        "16215": 10,
        "16216": 27,
        "16217": 12,
        "16218": 61,
        "16219": 193,
        "16220": 51,
        "16221": 10,
        "16222": 232,
        "16223": 246,
        "16224": 166,
        "16225": 3,
        "16226": 4,
        "16227": 102,
        "16228": 249,
        "16229": 113,
        "16230": 240,
        "16231": 207,
        "16232": 35,
        "16233": 155,
        "16234": 156,
        "16235": 223,
        "16236": 226,
        "16237": 171,
        "16238": 103,
        "16239": 165,
        "16240": 163,
        "16241": 159,
        "16242": 47,
        "16243": 215,
        "16244": 52,
        "16245": 58,
        "16246": 6,
        "16247": 201,
        "16248": 6,
        "16249": 104,
        "16250": 246,
        "16251": 54,
        "16252": 1,
        "16253": 31,
        "16254": 146,
        "16255": 216,
        "16256": 207,
        "16257": 7,
        "16258": 115,
        "16259": 58,
        "16260": 176,
        "16261": 77,
        "16262": 217,
        "16263": 117,
        "16264": 16,
        "16265": 160,
        "16266": 195,
        "16267": 238,
        "16268": 20,
        "16269": 159,
        "16270": 2,
        "16271": 145,
        "16272": 125,
        "16273": 49,
        "16274": 151,
        "16275": 223,
        "16276": 80,
        "16277": 92,
        "16278": 225,
        "16279": 47,
        "16280": 174,
        "16281": 201,
        "16282": 163,
        "16283": 232,
        "16284": 66,
        "16285": 230,
        "16286": 189,
        "16287": 183,
        "16288": 250,
        "16289": 87,
        "16290": 174,
        "16291": 24,
        "16292": 111,
        "16293": 247,
        "16294": 14,
        "16295": 223,
        "16296": 48,
        "16297": 102,
        "16298": 181,
        "16299": 45,
        "16300": 103,
        "16301": 179,
        "16302": 164,
        "16303": 67,
        "16304": 83,
        "16305": 129,
        "16306": 243,
        "16307": 26,
        "16308": 200,
        "16309": 138,
        "16310": 148,
        "16311": 123,
        "16312": 162,
        "16313": 208,
        "16314": 126,
        "16315": 214,
        "16316": 222,
        "16317": 100,
        "16318": 158,
        "16319": 50,
        "16320": 85,
        "16321": 124,
        "16322": 148,
        "16323": 17,
        "16324": 42,
        "16325": 27,
        "16326": 73,
        "16327": 182,
        "16328": 222,
        "16329": 49,
        "16330": 5,
        "16331": 23,
        "16332": 9,
        "16333": 188,
        "16334": 162,
        "16335": 66,
        "16336": 152,
        "16337": 195,
        "16338": 92,
        "16339": 224,
        "16340": 156,
        "16341": 238,
        "16342": 84,
        "16343": 86,
        "16344": 153,
        "16345": 53,
        "16346": 240,
        "16347": 71,
        "16348": 113,
        "16349": 182,
        "16350": 30,
        "16351": 233,
        "16352": 221,
        "16353": 182,
        "16354": 83,
        "16355": 201,
        "16356": 33,
        "16357": 226,
        "16358": 143,
        "16359": 121,
        "16360": 160,
        "16361": 178,
        "16362": 243,
        "16363": 133,
        "16364": 47,
        "16365": 4,
        "16366": 45,
        "16367": 36,
        "16368": 118,
        "16369": 139,
        "16370": 224,
        "16371": 56,
        "16372": 221,
        "16373": 45,
        "16374": 77,
        "16375": 244,
        "16376": 197,
        "16377": 34,
        "16378": 15,
        "16379": 139,
        "16380": 35,
        "16381": 82,
        "16382": 86,
        "16383": 225,
        "16384": 116,
        "16385": 141,
        "16386": 145,
        "16387": 225,
        "16388": 75,
        "16389": 112,
        "16390": 121,
        "16391": 237,
        "16392": 99,
        "16393": 206,
        "16394": 96,
        "16395": 198,
        "16396": 62,
        "16397": 233,
        "16398": 232,
        "16399": 57,
        "16400": 27,
        "16401": 83,
        "16402": 175,
        "16403": 203,
        "16404": 230,
        "16405": 96,
        "16406": 129,
        "16407": 213,
        "16408": 13,
        "16409": 147,
        "16410": 52,
        "16411": 143,
        "16412": 197,
        "16413": 98,
        "16414": 89,
        "16415": 152,
        "16416": 93,
        "16417": 80,
        "16418": 137,
        "16419": 40,
        "16420": 241,
        "16421": 187,
        "16422": 78,
        "16423": 146,
        "16424": 122,
        "16425": 60,
        "16426": 223,
        "16427": 48,
        "16428": 63,
        "16429": 212,
        "16430": 95,
        "16431": 66,
        "16432": 208,
        "16433": 133,
        "16434": 63,
        "16435": 98,
        "16436": 210,
        "16437": 50,
        "16438": 143,
        "16439": 216,
        "16440": 168,
        "16441": 209,
        "16442": 63,
        "16443": 145,
        "16444": 131,
        "16445": 108,
        "16446": 152,
        "16447": 253,
        "16448": 175,
        "16449": 49,
        "16450": 171,
        "16451": 193,
        "16452": 198,
        "16453": 34,
        "16454": 226,
        "16455": 25,
        "16456": 136,
        "16457": 108,
        "16458": 177,
        "16459": 251,
        "16460": 26,
        "16461": 216,
        "16462": 215,
        "16463": 88,
        "16464": 156,
        "16465": 137,
        "16466": 108,
        "16467": 97,
        "16468": 124,
        "16469": 10,
        "16470": 227,
        "16471": 35,
        "16472": 96,
        "16473": 41,
        "16474": 92,
        "16475": 228,
        "16476": 124,
        "16477": 135,
        "16478": 149,
        "16479": 22,
        "16480": 128,
        "16481": 197,
        "16482": 254,
        "16483": 122,
        "16484": 204,
        "16485": 50,
        "16486": 162,
        "16487": 221,
        "16488": 11,
        "16489": 185,
        "16490": 254,
        "16491": 39,
        "16492": 174,
        "16493": 231,
        "16494": 53,
        "16495": 95,
        "16496": 76,
        "16497": 245,
        "16498": 136,
        "16499": 167,
        "16500": 222,
        "16501": 150,
        "16502": 146,
        "16503": 49,
        "16504": 229,
        "16505": 40,
        "16506": 210,
        "16507": 72,
        "16508": 35,
        "16509": 181,
        "16510": 74,
        "16511": 56,
        "16512": 44,
        "16513": 116,
        "16514": 236,
        "16515": 147,
        "16516": 75,
        "16517": 127,
        "16518": 94,
        "16519": 65,
        "16520": 1,
        "16521": 8,
        "16522": 0,
        "16523": 0,
        "16524": 0,
        "16525": 0,
        "16526": 0,
        "16527": 0,
        "16528": 16,
        "16529": 0,
        "16530": 0,
        "16531": 0,
        "16532": 0,
        "16533": 0,
        "16534": 0,
        "16535": 0,
        "16536": 0,
        "16537": 0,
        "16538": 0,
        "16539": 0,
        "16540": 0,
        "16541": 0,
        "16542": 0,
        "16543": 0,
        "16544": 0,
        "16545": 0,
        "16546": 0,
        "16547": 0,
        "16548": 0,
        "16549": 0,
        "16550": 0,
        "16551": 0,
        "16552": 64,
        "16553": 0,
        "16554": 0,
        "16555": 0,
        "16556": 0,
        "16557": 0,
        "16558": 0,
        "16559": 0,
        "16560": 3,
        "16561": 0,
        "16562": 0,
        "16563": 0,
        "16564": 0,
        "16565": 0,
        "16566": 0,
        "16567": 0,
        "16568": 4,
        "16569": 0,
        "16570": 0,
        "16571": 0,
        "16572": 0,
        "16573": 0,
        "16574": 0,
        "16575": 0,
        "16576": 4,
        "16577": 0,
        "16578": 0,
        "16579": 0,
        "16580": 0,
        "16581": 0,
        "16582": 0,
        "16583": 0,
        "16584": 0,
        "16585": 0,
        "16586": 0,
        "16587": 0,
        "16588": 1,
        "16589": 0,
        "16590": 0,
        "16591": 0,
        "16592": 0,
        "16593": 0,
        "16594": 0,
        "16595": 0,
        "16596": 16,
        "16597": 0,
        "16598": 0,
        "16599": 0,
        "16600": 0,
        "16601": 0,
        "16602": 0,
        "16603": 0
      }
    }
  ],
  "numDeployments": 1,
  "solcInputHash": "c0e889dcb69b76266f445d0fe3402b92",
  "bytecode": "0x6101606040526200001760006200026660201b60201c565b6002553480156200002757600080fd5b50604051620046173803806200461783398181016040528101906200004d919062000b83565b6040518060400160405280600881526020017f46616b65204555520000000000000000000000000000000000000000000000008152506040518060400160405280600481526020017f6645555200000000000000000000000000000000000000000000000000000000815250338383836040518060400160405280601181526020017f4668656e6978205065726d697373696f6e0000000000000000000000000000008152506040518060400160405280600381526020017f312e3000000000000000000000000000000000000000000000000000000000008152506200013f6000836200028260201b90919060201c565b61012081815250506200015d6001826200028260201b90919060201c565b6101408181525050818051906020012060e08181525050808051906020012061010081815250504660a081815250506200019c620002da60201b60201c565b608081815250503073ffffffffffffffffffffffffffffffffffffffff1660c08173ffffffffffffffffffffffffffffffffffffffff168152505050508160059081620001ea919062000e1f565b508060069081620001fc919062000e1f565b505050600062000212826200033760201b60201c565b9050620002486200023c8262000230617fff6200026660201b60201c565b6200035560201b60201c565b620003f860201b60201c565b6200025a8382620004cb60201b60201c565b50505050505062001260565b60006200027b8260026200057160201b60201c565b9050919050565b6000602083511015620002a857620002a0836200062860201b60201c565b9050620002d4565b82620002ba836200069560201b60201c565b6000019081620002cb919062000e1f565b5060ff60001b90505b92915050565b60007f8b73c3c69bb8fe3d512ecc4cf759cc79239f7b179b0ffacaa9a75d522b39400f60e0516101005146306040516020016200031c95949392919062000f77565b60405160208183030381529060405280519060200120905090565b60006200034e82600001516200069f60201b60201c565b9050919050565b60006200036883620006bb60201b60201c565b62000382576200037f60006200026660201b60201c565b92505b6200039382620006bb60201b60201c565b620003ad57620003aa60006200026660201b60201c565b91505b600083905060008390506000620003ea60028484608073ffffffffffffffffffffffffffffffffffffffff1663eb274b77620006c860201b60201c565b905080935050505092915050565b62000409816200077960201b60201c565b62000423576200042060006200078660201b60201c565b90505b600081905060006200043b82620007a260201b60201c565b9050608073ffffffffffffffffffffffffffffffffffffffff16637d23f1db600d836040518363ffffffff1660e01b81526004016200047c9291906200104f565b600060405180830381865afa1580156200049a573d6000803e3d6000fd5b505050506040513d6000823e3d601f19601f82011682018060405250810190620004c5919062001083565b50505050565b62000516600360008473ffffffffffffffffffffffffffffffffffffffff1673ffffffffffffffffffffffffffffffffffffffff168152602001908152602001600020548262000803565b600360008473ffffffffffffffffffffffffffffffffffffffff1673ffffffffffffffffffffffffffffffffffffffff16815260200190815260200160002081905550620005676002548262000803565b6002819055505050565b60006060608073ffffffffffffffffffffffffffffffffffffffff166319e1c5c4620005a386620007a260201b60201c565b856040518363ffffffff1660e01b8152600401620005c3929190620010d4565b600060405180830381865afa158015620005e1573d6000803e3d6000fd5b505050506040513d6000823e3d601f19601f820116820180604052508101906200060c919062001083565b90506200061f816200081f60201b60201c565b91505092915050565b600080829050601f815111156200067857826040517f305a27a90000000000000000000000000000000000000000000000000000000081526004016200066f91906200115a565b60405180910390fd5b8051816200068690620011a5565b60001c1760001b915050919050565b6000819050919050565b6000620006b48260026200082d60201b60201c565b9050919050565b6000808214159050919050565b60006060838388620006e089620007a260201b60201c565b620006f189620007a260201b60201c565b6040518463ffffffff1660e01b8152600401620007119392919062001215565b600060405180830381865afa1580156200072f573d6000803e3d6000fd5b505050506040513d6000823e3d601f19601f820116820180604052508101906200075a919062001083565b90506200076d81620008d460201b60201c565b91505095945050505050565b6000808214159050919050565b60006200079b82600d6200057160201b60201c565b9050919050565b6060602067ffffffffffffffff811115620007c257620007c1620009ae565b5b6040519080825280601f01601f191660200182016040528015620007f55781602001600182028036833780820191505090505b509050816020820152919050565b6000620008178383620008e260201b60201c565b905092915050565b600060208201519050919050565b60006060608073ffffffffffffffffffffffffffffffffffffffff16635fa55ca784866040518363ffffffff1660e01b81526004016200086f9291906200104f565b600060405180830381865afa1580156200088d573d6000803e3d6000fd5b505050506040513d6000823e3d601f19601f82011682018060405250810190620008b8919062001083565b9050620008cb816200081f60201b60201c565b91505092915050565b600060208201519050919050565b6000620008f583620006bb60201b60201c565b6200090f576200090c60006200026660201b60201c565b92505b6200092082620006bb60201b60201c565b6200093a576200093760006200026660201b60201c565b91505b6000839050600083905060006200097660028484608073ffffffffffffffffffffffffffffffffffffffff16622df619620006c860201b60201c565b905080935050505092915050565b6000604051905090565b600080fd5b600080fd5b600080fd5b6000601f19601f8301169050919050565b7f4e487b7100000000000000000000000000000000000000000000000000000000600052604160045260246000fd5b620009e8826200099d565b810181811067ffffffffffffffff8211171562000a0a5762000a09620009ae565b5b80604052505050565b600062000a1f62000984565b905062000a2d8282620009dd565b919050565b600080fd5b600080fd5b600080fd5b600067ffffffffffffffff82111562000a5f5762000a5e620009ae565b5b62000a6a826200099d565b9050602081019050919050565b60005b8381101562000a9757808201518184015260208101905062000a7a565b60008484015250505050565b600062000aba62000ab48462000a41565b62000a13565b90508281526020810184848401111562000ad95762000ad862000a3c565b5b62000ae684828562000a77565b509392505050565b600082601f83011262000b065762000b0562000a37565b5b815162000b1884826020860162000aa3565b91505092915050565b60006020828403121562000b3a5762000b3962000998565b5b62000b46602062000a13565b9050600082015167ffffffffffffffff81111562000b695762000b6862000a32565b5b62000b778482850162000aee565b60008301525092915050565b60006020828403121562000b9c5762000b9b6200098e565b5b600082015167ffffffffffffffff81111562000bbd5762000bbc62000993565b5b62000bcb8482850162000b21565b91505092915050565b600081519050919050565b7f4e487b7100000000000000000000000000000000000000000000000000000000600052602260045260246000fd5b6000600282049050600182168062000c2757607f821691505b60208210810362000c3d5762000c3c62000bdf565b5b50919050565b60008190508160005260206000209050919050565b60006020601f8301049050919050565b600082821b905092915050565b60006008830262000ca77fffffffffffffffffffffffffffffffffffffffffffffffffffffffffffffffff8262000c68565b62000cb3868362000c68565b95508019841693508086168417925050509392505050565b6000819050919050565b6000819050919050565b600062000d0062000cfa62000cf48462000ccb565b62000cd5565b62000ccb565b9050919050565b6000819050919050565b62000d1c8362000cdf565b62000d3462000d2b8262000d07565b84845462000c75565b825550505050565b600090565b62000d4b62000d3c565b62000d5881848462000d11565b505050565b5b8181101562000d805762000d7460008262000d41565b60018101905062000d5e565b5050565b601f82111562000dcf5762000d998162000c43565b62000da48462000c58565b8101602085101562000db4578190505b62000dcc62000dc38562000c58565b83018262000d5d565b50505b505050565b600082821c905092915050565b600062000df46000198460080262000dd4565b1980831691505092915050565b600062000e0f838362000de1565b9150826002028217905092915050565b62000e2a8262000bd4565b67ffffffffffffffff81111562000e465762000e45620009ae565b5b62000e52825462000c0e565b62000e5f82828562000d84565b600060209050601f83116001811462000e97576000841562000e82578287015190505b62000e8e858262000e01565b86555062000efe565b601f19841662000ea78662000c43565b60005b8281101562000ed15784890151825560018201915060208501945060208101905062000eaa565b8683101562000ef1578489015162000eed601f89168262000de1565b8355505b6001600288020188555050505b505050505050565b6000819050919050565b62000f1b8162000f06565b82525050565b62000f2c8162000ccb565b82525050565b600073ffffffffffffffffffffffffffffffffffffffff82169050919050565b600062000f5f8262000f32565b9050919050565b62000f718162000f52565b82525050565b600060a08201905062000f8e600083018862000f10565b62000f9d602083018762000f10565b62000fac604083018662000f10565b62000fbb606083018562000f21565b62000fca608083018462000f66565b9695505050505050565b600060ff82169050919050565b62000fec8162000fd4565b82525050565b600081519050919050565b600082825260208201905092915050565b60006200101b8262000ff2565b62001027818562000ffd565b93506200103981856020860162000a77565b62001044816200099d565b840191505092915050565b600060408201905062001066600083018562000fe1565b81810360208301526200107a81846200100e565b90509392505050565b6000602082840312156200109c576200109b6200098e565b5b600082015167ffffffffffffffff811115620010bd57620010bc62000993565b5b620010cb8482850162000aee565b91505092915050565b60006040820190508181036000830152620010f081856200100e565b905062001101602083018462000fe1565b9392505050565b600082825260208201905092915050565b6000620011268262000bd4565b62001132818562001108565b93506200114481856020860162000a77565b6200114f816200099d565b840191505092915050565b6000602082019050818103600083015262001176818462001119565b905092915050565b6000819050602082019050919050565b60006200119c825162000f06565b80915050919050565b6000620011b28262000ff2565b82620011be846200117e565b9050620011cb816200118e565b925060208210156200120e57620012097fffffffffffffffffffffffffffffffffffffffffffffffffffffffffffffffff8360200360080262000c68565b831692505b5050919050565b60006060820190506200122c600083018662000fe1565b81810360208301526200124081856200100e565b905081810360408301526200125681846200100e565b9050949350505050565b60805160a05160c05160e05161010051610120516101405161335c620012bb60003960006118f5015260006118ba0152600061217f0152600061215e015260006119ea01526000611a4001526000611a69015261335c6000f3fe608060405234801561001057600080fd5b50600436106101425760003560e01c80637ecebe00116100b8578063a9059cbb1161007c578063a9059cbb146103b9578063af575a00146103e9578063c4224c1914610419578063d505accf14610449578063d918156e14610465578063dd62ed3e1461049557610142565b80637ecebe00146102fb57806384b0196e1461032b5780638624a3491461034f57806395d89b411461037f5780639f284be71461039d57610142565b80633644e5151161010a5780633644e5151461020157806339c217f71461021f5780635356c4291461024f578063602772041461027f5780636e0505e1146102af57806370a08231146102cb57610142565b806306fdde0314610147578063095ea7b31461016557806318160ddd1461019557806323b872dd146101b3578063313ce567146101e3575b600080fd5b61014f6104c5565b60405161015c9190612433565b60405180910390f35b61017f600480360381019061017a91906124fd565b610557565b60405161018c9190612558565b60405180910390f35b61019d6105ab565b6040516101aa9190612582565b60405180910390f35b6101cd60048036038101906101c8919061259d565b6105bd565b6040516101da9190612558565b60405180910390f35b6101eb610692565b6040516101f8919061260c565b60405180910390f35b610209610697565b6040516102169190612640565b60405180910390f35b6102396004803603810190610234919061267f565b610729565b6040516102469190612716565b60405180910390f35b61026960048036038101906102649190612750565b61074e565b6040516102769190612433565b60405180910390f35b61029960048036038101906102949190612983565b6108bf565b6040516102a69190612433565b60405180910390f35b6102c960048036038101906102c49190612a1b565b6109ec565b005b6102e560048036038101906102e09190612a48565b610b01565b6040516102f29190612582565b60405180910390f35b61031560048036038101906103109190612a48565b610b1c565b6040516103229190612582565b60405180910390f35b610333610b37565b6040516103469796959493929190612b7d565b60405180910390f35b61036960048036038101906103649190612c01565b610be1565b6040516103769190612716565b60405180910390f35b610387610c08565b6040516103949190612433565b60405180910390f35b6103b760048036038101906103b29190612a1b565b610c9a565b005b6103d360048036038101906103ce91906124fd565b610da7565b6040516103e09190612558565b60405180910390f35b61040360048036038101906103fe9190612c9c565b610e39565b6040516104109190612716565b60405180910390f35b610433600480360381019061042e9190612cef565b61118f565b6040516104409190612716565b60405180910390f35b610463600480360381019061045e9190612d5b565b611359565b005b61047f600480360381019061047a919061267f565b6114fd565b60405161048c9190612558565b60405180910390f35b6104af60048036038101906104aa9190612dfd565b6115f5565b6040516104bc9190612582565b60405180910390f35b6060600580546104d490612e6c565b80601f016020809104026020016040519081016040528092919081815260200182805461050090612e6c565b801561054d5780601f106105225761010080835404028352916020019161054d565b820191906000526020600020905b81548152906001019060200180831161053057829003601f168201915b5050505050905090565b600082602052637f5e9f20600c5233600052816034600c205581600052602c5160601c337f8c5be1e5ebec7d5bd14f71427d1e84f3dd0314c0f7b2291e5b200ac8c7c3b92560206000a36001905092915050565b60006805345cdf77eb68f44c54905090565b60006105ca848484611615565b8360601b33602052637f5e9f208117600c526034600c20805460018101156106085780851115610602576313be252b6000526004601cfd5b84810382555b6387a211a28317600c526020600c2080548087111561062f5763f4d678b86000526004601cfd5b8681038255876000526020600c2087815401815587602052600c5160601c8660601c7fddf252ad1be2c89b69c2b068fc378daa952ba7f163c4a11628f55a4df523b3ef602080a350505050505061068784848461161a565b600190509392505050565b600090565b6000806106a261161f565b90506000801b81036106c0576106b66104c5565b8051906020012090505b6040517f8b73c3c69bb8fe3d512ecc4cf759cc79239f7b179b0ffacaa9a75d522b39400f81528160208201527fc89efdaa54c0f20c7adf612882df0950f5a951637e0307cdcb4c672f298b8bc6604082015246606082015230608082015260a081209250505090565b6000610746836107418461073c90612ef5565b611624565b61118f565b905092915050565b60608161075a90612f08565b60006107b17f6bdaeb2d29561f159c7ef98b16b27015fb2aeb87209c7ee656226d912f59927d8360000151604051602001610796929190612f1b565b6040516020818303038152906040528051906020012061163a565b905060006107c3828460200151611654565b90503373ffffffffffffffffffffffffffffffffffffffff168173ffffffffffffffffffffffffffffffffffffffff161461082a576040517f3093a27700000000000000000000000000000000000000000000000000000000815260040160405180910390fd5b6108b4600460003373ffffffffffffffffffffffffffffffffffffffff1673ffffffffffffffffffffffffffffffffffffffff16815260200190815260200160002060008873ffffffffffffffffffffffffffffffffffffffff1673ffffffffffffffffffffffffffffffffffffffff168152602001908152602001600020548660000135611680565b935050505092915050565b60608183600061091a7f6bdaeb2d29561f159c7ef98b16b27015fb2aeb87209c7ee656226d912f59927d84600001516040516020016108ff929190612f1b565b6040516020818303038152906040528051906020012061163a565b9050600061092c828560200151611654565b90508273ffffffffffffffffffffffffffffffffffffffff168173ffffffffffffffffffffffffffffffffffffffff1614610993576040517f51c65eae00000000000000000000000000000000000000000000000000000000815260040160405180910390fd5b6109e0600360008973ffffffffffffffffffffffffffffffffffffffff1673ffffffffffffffffffffffffffffffffffffffff168152602001908152602001600020548760000151611680565b94505050505092915050565b6000610a45610a008363ffffffff166116b6565b600360003373ffffffffffffffffffffffffffffffffffffffff1673ffffffffffffffffffffffffffffffffffffffff168152602001908152602001600020546116ca565b9050610a90600360003373ffffffffffffffffffffffffffffffffffffffff1673ffffffffffffffffffffffffffffffffffffffff1681526020019081526020016000205482611743565b600360003373ffffffffffffffffffffffffffffffffffffffff1673ffffffffffffffffffffffffffffffffffffffff16815260200190815260200160002081905550610adf60025482611743565b600281905550610afd33610af283611757565b63ffffffff1661181a565b5050565b60006387a211a2600c52816000526020600c20549050919050565b60006338377508600c52816000526020600c20549050919050565b600060608060008060006060610b4b6118b1565b610b536118ec565b46306000801b600067ffffffffffffffff811115610b7457610b736127b1565b5b604051908082528060200260200182016040528015610ba25781602001602082028036833780820191505090505b507f0f00000000000000000000000000000000000000000000000000000000000000959493929190965096509650965096509650965090919293949596565b6000610bff8484610bfa85610bf590612ef5565b611624565b610e39565b90509392505050565b606060068054610c1790612e6c565b80601f0160208091040260200160405190810160405280929190818152602001828054610c4390612e6c565b8015610c905780601f10610c6557610100808354040283529160200191610c90565b820191906000526020600020905b815481529060010190602001808311610c7357829003601f168201915b5050505050905090565b8063ffffffff16610caa33610b01565b1015610ce2576040517ffda7bbda00000000000000000000000000000000000000000000000000000000815260040160405180910390fd5b610cf2338263ffffffff16611927565b6000610d038263ffffffff166116b6565b9050610d4e600360003373ffffffffffffffffffffffffffffffffffffffff1673ffffffffffffffffffffffffffffffffffffffff16815260200190815260200160002054826119be565b600360003373ffffffffffffffffffffffffffffffffffffffff1673ffffffffffffffffffffffffffffffffffffffff16815260200190815260200160002081905550610d9d600254826119be565b6002819055505050565b6000610db4338484611615565b6387a211a2600c52336000526020600c20805480841115610ddd5763f4d678b86000526004601cfd5b8381038255846000526020600c2084815401815584602052600c5160601c337fddf252ad1be2c89b69c2b068fc378daa952ba7f163c4a11628f55a4df523b3ef602080a3505050610e2f33848461161a565b6001905092915050565b600080610f0a83610f05600360008973ffffffffffffffffffffffffffffffffffffffff1673ffffffffffffffffffffffffffffffffffffffff16815260200190815260200160002054600460008a73ffffffffffffffffffffffffffffffffffffffff1673ffffffffffffffffffffffffffffffffffffffff16815260200190815260200160002060003373ffffffffffffffffffffffffffffffffffffffff1673ffffffffffffffffffffffffffffffffffffffff168152602001908152602001600020546116ca565b6116ca565b9050610f92600460008773ffffffffffffffffffffffffffffffffffffffff1673ffffffffffffffffffffffffffffffffffffffff16815260200190815260200160002060003373ffffffffffffffffffffffffffffffffffffffff1673ffffffffffffffffffffffffffffffffffffffff1681526020019081526020016000205482611743565b600460008773ffffffffffffffffffffffffffffffffffffffff1673ffffffffffffffffffffffffffffffffffffffff16815260200190815260200160002060003373ffffffffffffffffffffffffffffffffffffffff1673ffffffffffffffffffffffffffffffffffffffff1681526020019081526020016000208190555061105b600360008773ffffffffffffffffffffffffffffffffffffffff1673ffffffffffffffffffffffffffffffffffffffff1681526020019081526020016000205482611743565b600360008773ffffffffffffffffffffffffffffffffffffffff1673ffffffffffffffffffffffffffffffffffffffff168152602001908152602001600020819055506110e7600360008673ffffffffffffffffffffffffffffffffffffffff1673ffffffffffffffffffffffffffffffffffffffff16815260200190815260200160002054826119be565b600360008673ffffffffffffffffffffffffffffffffffffffff1673ffffffffffffffffffffffffffffffffffffffff168152602001908152602001600020819055508373ffffffffffffffffffffffffffffffffffffffff168573ffffffffffffffffffffffffffffffffffffffff167f7612539b010127d1a2f810eeff1131de23a28ecfa8228f92a9606a879300fbb560405160405180910390a3809150509392505050565b6000806111db83600360003373ffffffffffffffffffffffffffffffffffffffff1673ffffffffffffffffffffffffffffffffffffffff168152602001908152602001600020546116ca565b9050611226600360003373ffffffffffffffffffffffffffffffffffffffff1673ffffffffffffffffffffffffffffffffffffffff1681526020019081526020016000205482611743565b600360003373ffffffffffffffffffffffffffffffffffffffff1673ffffffffffffffffffffffffffffffffffffffff168152602001908152602001600020819055506112b2600360008673ffffffffffffffffffffffffffffffffffffffff1673ffffffffffffffffffffffffffffffffffffffff16815260200190815260200160002054826119be565b600360008673ffffffffffffffffffffffffffffffffffffffff1673ffffffffffffffffffffffffffffffffffffffff168152602001908152602001600020819055508373ffffffffffffffffffffffffffffffffffffffff163373ffffffffffffffffffffffffffffffffffffffff167f7612539b010127d1a2f810eeff1131de23a28ecfa8228f92a9606a879300fbb560405160405180910390a38091505092915050565b600061136361161f565b90506000801b8103611381576113776104c5565b8051906020012090505b8442111561139757631a15a3cc6000526004601cfd5b6040518860601b60601c98508760601b60601c975065383775081901600e52886000526020600c2080547f8b73c3c69bb8fe3d512ecc4cf759cc79239f7b179b0ffacaa9a75d522b39400f83528360208401527fc89efdaa54c0f20c7adf612882df0950f5a951637e0307cdcb4c672f298b8bc6604084015246606084015230608084015260a08320602e527f6e71edae12b1b97f4d1f60370fef10105fa2faae0126114a169c64845d6126c983528a60208401528960408401528860608401528060808401528760a084015260c08320604e526042602c206000528660ff1660205285604052846060526020806080600060015afa8b3d51146114a35763ddafbaef6000526004601cfd5b80820183558a637f5e9f2060a01b17604052896034602c20558a8c7f8c5be1e5ebec7d5bd14f71427d1e84f3dd0314c0f7b2291e5b200ac8c7c3b925602060608801a3836040526000606052505050505050505050505050565b60006115118261150c90612ef5565b611624565b600460003373ffffffffffffffffffffffffffffffffffffffff1673ffffffffffffffffffffffffffffffffffffffff16815260200190815260200160002060008573ffffffffffffffffffffffffffffffffffffffff1673ffffffffffffffffffffffffffffffffffffffff168152602001908152602001600020819055508273ffffffffffffffffffffffffffffffffffffffff163373ffffffffffffffffffffffffffffffffffffffff167f46f92913a39019d68e630493d23e0cf39761bf253f7b3f8eae384b33e393ed4e60405160405180910390a36001905092915050565b600081602052637f5e9f20600c52826000526034600c2054905092915050565b505050565b505050565b600090565b600061163382600001516119d2565b9050919050565b600061164d6116476119e6565b83611a9d565b9050919050565b6000806000806116648686611ade565b9250925092506116748282611b3a565b82935050505092915050565b606061168b83611c9e565b61169c5761169960006116b6565b92505b60008390506116ad60028285611cab565b91505092915050565b60006116c3826002611d61565b9050919050565b60006116d583611c9e565b6116e6576116e360006116b6565b92505b6116ef82611c9e565b611700576116fd60006116b6565b91505b60008390506000839050600061173560028484608073ffffffffffffffffffffffffffffffffffffffff16635211c679611e03565b905080935050505092915050565b600061174f8383611e97565b905092915050565b600061176282611c9e565b6117735761177060006116b6565b91505b6000829050600061178382611f10565b90506000608073ffffffffffffffffffffffffffffffffffffffff166373cc01546002846040518363ffffffff1660e01b81526004016117c4929190612f99565b602060405180830381865afa1580156117e1573d6000803e3d6000fd5b505050506040513d601f19601f820116820180604052508101906118059190612fde565b905061181081611f6d565b9350505050919050565b61182660008383611615565b6805345cdf77eb68f44c548181018181101561184a5763e5cfe9576000526004601cfd5b806805345cdf77eb68f44c556387a211a2600c52836000526020600c2083815401815583602052600c5160601c60007fddf252ad1be2c89b69c2b068fc378daa952ba7f163c4a11628f55a4df523b3ef602080a35050506118ad6000838361161a565b5050565b60606118e760007f0000000000000000000000000000000000000000000000000000000000000000611f7790919063ffffffff16565b905090565b606061192260017f0000000000000000000000000000000000000000000000000000000000000000611f7790919063ffffffff16565b905090565b61193382600083611615565b6387a211a2600c52816000526020600c2080548083111561195c5763f4d678b86000526004601cfd5b8281038255826805345cdf77eb68f44c54036805345cdf77eb68f44c558260005260008460601b60601c7fddf252ad1be2c89b69c2b068fc378daa952ba7f163c4a11628f55a4df523b3ef60206000a350506119ba8260008361161a565b5050565b60006119ca8383612027565b905092915050565b60006119df82600261209f565b9050919050565b60007f000000000000000000000000000000000000000000000000000000000000000073ffffffffffffffffffffffffffffffffffffffff163073ffffffffffffffffffffffffffffffffffffffff16148015611a6257507f000000000000000000000000000000000000000000000000000000000000000046145b15611a8f577f00000000000000000000000000000000000000000000000000000000000000009050611a9a565b611a97612139565b90505b90565b60006040517f190100000000000000000000000000000000000000000000000000000000000081528360028201528260228201526042812091505092915050565b60008060006041845103611b235760008060006020870151925060408701519150606087015160001a9050611b15888285856121cf565b955095509550505050611b33565b60006002855160001b9250925092505b9250925092565b60006003811115611b4e57611b4d61300b565b5b826003811115611b6157611b6061300b565b5b0315611c9a5760016003811115611b7b57611b7a61300b565b5b826003811115611b8e57611b8d61300b565b5b03611bc5576040517ff645eedf00000000000000000000000000000000000000000000000000000000815260040160405180910390fd5b60026003811115611bd957611bd861300b565b5b826003811115611bec57611beb61300b565b5b03611c31578060001c6040517ffce698f7000000000000000000000000000000000000000000000000000000008152600401611c289190612582565b60405180910390fd5b600380811115611c4457611c4361300b565b5b826003811115611c5757611c5661300b565b5b03611c9957806040517fd78bce0c000000000000000000000000000000000000000000000000000000008152600401611c909190612640565b60405180910390fd5b5b5050565b6000808214159050919050565b6060608073ffffffffffffffffffffffffffffffffffffffff1663a1848ff385611cd486611f10565b85604051602001611ce5919061305b565b6040516020818303038152906040526040518463ffffffff1660e01b8152600401611d1293929190613076565b600060405180830381865afa158015611d2f573d6000803e3d6000fd5b505050506040513d6000823e3d601f19601f82011682018060405250810190611d58919061315c565b90509392505050565b60006060608073ffffffffffffffffffffffffffffffffffffffff166319e1c5c4611d8b86611f10565b856040518363ffffffff1660e01b8152600401611da99291906131a5565b600060405180830381865afa158015611dc6573d6000803e3d6000fd5b505050506040513d6000823e3d601f19601f82011682018060405250810190611def9190613245565b9050611dfa816122c3565b91505092915050565b60006060838388611e1389611f10565b611e1c89611f10565b6040518463ffffffff1660e01b8152600401611e3a93929190613076565b600060405180830381865afa158015611e57573d6000803e3d6000fd5b505050506040513d6000823e3d601f19601f82011682018060405250810190611e809190613245565b9050611e8b816122d1565b91505095945050505050565b6000611ea283611c9e565b611eb357611eb060006116b6565b92505b611ebc82611c9e565b611ecd57611eca60006116b6565b91505b600083905060008390506000611f0260028484608073ffffffffffffffffffffffffffffffffffffffff1663cc2cbeff611e03565b905080935050505092915050565b6060602067ffffffffffffffff811115611f2d57611f2c6127b1565b5b6040519080825280601f01601f191660200182016040528015611f5f5781602001600182028036833780820191505090505b509050816020820152919050565b6000819050919050565b606060ff60001b8314611f9457611f8d836122df565b9050612021565b818054611fa090612e6c565b80601f0160208091040260200160405190810160405280929190818152602001828054611fcc90612e6c565b80156120195780601f10611fee57610100808354040283529160200191612019565b820191906000526020600020905b815481529060010190602001808311611ffc57829003601f168201915b505050505090505b92915050565b600061203283611c9e565b6120435761204060006116b6565b92505b61204c82611c9e565b61205d5761205a60006116b6565b91505b60008390506000839050600061209160028484608073ffffffffffffffffffffffffffffffffffffffff16622df619611e03565b905080935050505092915050565b60006060608073ffffffffffffffffffffffffffffffffffffffff16635fa55ca784866040518363ffffffff1660e01b81526004016120df929190612f99565b600060405180830381865afa1580156120fc573d6000803e3d6000fd5b505050506040513d6000823e3d601f19601f820116820180604052508101906121259190613245565b9050612130816122c3565b91505092915050565b60007f8b73c3c69bb8fe3d512ecc4cf759cc79239f7b179b0ffacaa9a75d522b39400f7f00000000000000000000000000000000000000000000000000000000000000007f000000000000000000000000000000000000000000000000000000000000000046306040516020016121b495949392919061328e565b60405160208183030381529060405280519060200120905090565b60008060007f7fffffffffffffffffffffffffffffff5d576e7357a4501ddfe92f46681b20a08460001c111561220f5760006003859250925092506122b9565b60006001888888886040516000815260200160405260405161223494939291906132e1565b6020604051602081039080840390855afa158015612256573d6000803e3d6000fd5b505050602060405103519050600073ffffffffffffffffffffffffffffffffffffffff168173ffffffffffffffffffffffffffffffffffffffff16036122aa57600060016000801b935093509350506122b9565b8060008060001b935093509350505b9450945094915050565b600060208201519050919050565b600060208201519050919050565b606060006122ec83612353565b90506000602067ffffffffffffffff81111561230b5761230a6127b1565b5b6040519080825280601f01601f19166020018201604052801561233d5781602001600182028036833780820191505090505b5090508181528360208201528092505050919050565b60008060ff8360001c169050601f81111561239a576040517fb3512b0c00000000000000000000000000000000000000000000000000000000815260040160405180910390fd5b80915050919050565b600081519050919050565b600082825260208201905092915050565b60005b838110156123dd5780820151818401526020810190506123c2565b60008484015250505050565b6000601f19601f8301169050919050565b6000612405826123a3565b61240f81856123ae565b935061241f8185602086016123bf565b612428816123e9565b840191505092915050565b6000602082019050818103600083015261244d81846123fa565b905092915050565b6000604051905090565b600080fd5b600080fd5b600073ffffffffffffffffffffffffffffffffffffffff82169050919050565b600061249482612469565b9050919050565b6124a481612489565b81146124af57600080fd5b50565b6000813590506124c18161249b565b92915050565b6000819050919050565b6124da816124c7565b81146124e557600080fd5b50565b6000813590506124f7816124d1565b92915050565b600080604083850312156125145761251361245f565b5b6000612522858286016124b2565b9250506020612533858286016124e8565b9150509250929050565b60008115159050919050565b6125528161253d565b82525050565b600060208201905061256d6000830184612549565b92915050565b61257c816124c7565b82525050565b60006020820190506125976000830184612573565b92915050565b6000806000606084860312156125b6576125b561245f565b5b60006125c4868287016124b2565b93505060206125d5868287016124b2565b92505060406125e6868287016124e8565b9150509250925092565b600060ff82169050919050565b612606816125f0565b82525050565b600060208201905061262160008301846125fd565b92915050565b6000819050919050565b61263a81612627565b82525050565b60006020820190506126556000830184612631565b92915050565b600080fd5b6000602082840312156126765761267561265b565b5b81905092915050565b600080604083850312156126965761269561245f565b5b60006126a4858286016124b2565b925050602083013567ffffffffffffffff8111156126c5576126c4612464565b5b6126d185828601612660565b9150509250929050565b6000819050919050565b60006127006126fb6126f6846124c7565b6126db565b6124c7565b9050919050565b612710816126e5565b82525050565b600060208201905061272b6000830184612707565b92915050565b6000604082840312156127475761274661265b565b5b81905092915050565b600080604083850312156127675761276661245f565b5b6000612775858286016124b2565b925050602083013567ffffffffffffffff81111561279657612795612464565b5b6127a285828601612731565b9150509250929050565b600080fd5b7f4e487b7100000000000000000000000000000000000000000000000000000000600052604160045260246000fd5b6127e9826123e9565b810181811067ffffffffffffffff82111715612808576128076127b1565b5b80604052505050565b600061281b612455565b905061282782826127e0565b919050565b600080fd5b61283a81612627565b811461284557600080fd5b50565b60008135905061285781612831565b92915050565b600080fd5b600080fd5b600067ffffffffffffffff821115612882576128816127b1565b5b61288b826123e9565b9050602081019050919050565b82818337600083830152505050565b60006128ba6128b584612867565b612811565b9050828152602081018484840111156128d6576128d5612862565b5b6128e1848285612898565b509392505050565b600082601f8301126128fe576128fd61285d565b5b813561290e8482602086016128a7565b91505092915050565b60006040828403121561292d5761292c6127ac565b5b6129376040612811565b9050600061294784828501612848565b600083015250602082013567ffffffffffffffff81111561296b5761296a61282c565b5b612977848285016128e9565b60208301525092915050565b6000806040838503121561299a5761299961245f565b5b60006129a8858286016124b2565b925050602083013567ffffffffffffffff8111156129c9576129c8612464565b5b6129d585828601612917565b9150509250929050565b600063ffffffff82169050919050565b6129f8816129df565b8114612a0357600080fd5b50565b600081359050612a15816129ef565b92915050565b600060208284031215612a3157612a3061245f565b5b6000612a3f84828501612a06565b91505092915050565b600060208284031215612a5e57612a5d61245f565b5b6000612a6c848285016124b2565b91505092915050565b60007fff0000000000000000000000000000000000000000000000000000000000000082169050919050565b612aaa81612a75565b82525050565b612ab981612489565b82525050565b600081519050919050565b600082825260208201905092915050565b6000819050602082019050919050565b612af4816124c7565b82525050565b6000612b068383612aeb565b60208301905092915050565b6000602082019050919050565b6000612b2a82612abf565b612b348185612aca565b9350612b3f83612adb565b8060005b83811015612b70578151612b578882612afa565b9750612b6283612b12565b925050600181019050612b43565b5085935050505092915050565b600060e082019050612b92600083018a612aa1565b8181036020830152612ba481896123fa565b90508181036040830152612bb881886123fa565b9050612bc76060830187612573565b612bd46080830186612ab0565b612be160a0830185612631565b81810360c0830152612bf38184612b1f565b905098975050505050505050565b600080600060608486031215612c1a57612c1961245f565b5b6000612c28868287016124b2565b9350506020612c39868287016124b2565b925050604084013567ffffffffffffffff811115612c5a57612c59612464565b5b612c6686828701612660565b9150509250925092565b612c79816124c7565b8114612c8457600080fd5b50565b600081359050612c9681612c70565b92915050565b600080600060608486031215612cb557612cb461245f565b5b6000612cc3868287016124b2565b9350506020612cd4868287016124b2565b9250506040612ce586828701612c87565b9150509250925092565b60008060408385031215612d0657612d0561245f565b5b6000612d14858286016124b2565b9250506020612d2585828601612c87565b9150509250929050565b612d38816125f0565b8114612d4357600080fd5b50565b600081359050612d5581612d2f565b92915050565b600080600080600080600060e0888a031215612d7a57612d7961245f565b5b6000612d888a828b016124b2565b9750506020612d998a828b016124b2565b9650506040612daa8a828b016124e8565b9550506060612dbb8a828b016124e8565b9450506080612dcc8a828b01612d46565b93505060a0612ddd8a828b01612848565b92505060c0612dee8a828b01612848565b91505092959891949750929550565b60008060408385031215612e1457612e1361245f565b5b6000612e22858286016124b2565b9250506020612e33858286016124b2565b9150509250929050565b7f4e487b7100000000000000000000000000000000000000000000000000000000600052602260045260246000fd5b60006002820490506001821680612e8457607f821691505b602082108103612e9757612e96612e3d565b5b50919050565b600060208284031215612eb357612eb26127ac565b5b612ebd6020612811565b9050600082013567ffffffffffffffff811115612edd57612edc61282c565b5b612ee9848285016128e9565b60008301525092915050565b6000612f013683612e9d565b9050919050565b6000612f143683612917565b9050919050565b6000604082019050612f306000830185612631565b612f3d6020830184612631565b9392505050565b600081519050919050565b600082825260208201905092915050565b6000612f6b82612f44565b612f758185612f4f565b9350612f858185602086016123bf565b612f8e816123e9565b840191505092915050565b6000604082019050612fae60008301856125fd565b8181036020830152612fc08184612f60565b90509392505050565b600081519050612fd8816124d1565b92915050565b600060208284031215612ff457612ff361245f565b5b600061300284828501612fc9565b91505092915050565b7f4e487b7100000000000000000000000000000000000000000000000000000000600052602160045260246000fd5b6000819050919050565b61305561305082612627565b61303a565b82525050565b60006130678284613044565b60208201915081905092915050565b600060608201905061308b60008301866125fd565b818103602083015261309d8185612f60565b905081810360408301526130b18184612f60565b9050949350505050565b600067ffffffffffffffff8211156130d6576130d56127b1565b5b6130df826123e9565b9050602081019050919050565b60006130ff6130fa846130bb565b612811565b90508281526020810184848401111561311b5761311a612862565b5b6131268482856123bf565b509392505050565b600082601f8301126131435761314261285d565b5b81516131538482602086016130ec565b91505092915050565b6000602082840312156131725761317161245f565b5b600082015167ffffffffffffffff8111156131905761318f612464565b5b61319c8482850161312e565b91505092915050565b600060408201905081810360008301526131bf8185612f60565b90506131ce60208301846125fd565b9392505050565b60006131e86131e384612867565b612811565b90508281526020810184848401111561320457613203612862565b5b61320f8482856123bf565b509392505050565b600082601f83011261322c5761322b61285d565b5b815161323c8482602086016131d5565b91505092915050565b60006020828403121561325b5761325a61245f565b5b600082015167ffffffffffffffff81111561327957613278612464565b5b61328584828501613217565b91505092915050565b600060a0820190506132a36000830188612631565b6132b06020830187612631565b6132bd6040830186612631565b6132ca6060830185612573565b6132d76080830184612ab0565b9695505050505050565b60006080820190506132f66000830187612631565b61330360208301866125fd565b6133106040830185612631565b61331d6060830184612631565b9594505050505056fea2646970667358221220d2ecefabf6474a46052e52e11ab32c5139690c9cccda6a7c37d9a6911a35acc664736f6c63430008180033",
  "devdoc": {
    "errors": {
      "AllowanceOverflow()": [
        {
          "details": "The allowance has overflowed."
        }
      ],
      "AllowanceUnderflow()": [
        {
          "details": "The allowance has underflowed."
        }
      ],
      "ECDSAInvalidSignature()": [
        {
          "details": "The signature derives the `address(0)`."
        }
      ],
      "ECDSAInvalidSignatureLength(uint256)": [
        {
          "details": "The signature has an invalid length."
        }
      ],
      "ECDSAInvalidSignatureS(bytes32)": [
        {
          "details": "The signature has an S value that is in the upper half order."
        }
      ],
      "InsufficientAllowance()": [
        {
          "details": "Insufficient allowance."
        }
      ],
      "InsufficientBalance()": [
        {
          "details": "Insufficient balance."
        }
      ],
      "InvalidPermit()": [
        {
          "details": "The permit is invalid."
        }
      ],
      "PermitExpired()": [
        {
          "details": "The permit has expired."
        }
      ],
      "TotalSupplyOverflow()": [
        {
          "details": "The total supply has overflowed."
        }
      ]
    },
    "events": {
      "Approval(address,address,uint256)": {
        "details": "Emitted when `amount` tokens is approved by `owner` to be used by `spender`."
      },
      "ApprovalEncrypted(address,address)": {
        "details": "Emitted when the allowance of a `spender` for an `owner` is set by a call to {approveEncrypted}. `value` is the new allowance."
      },
      "EIP712DomainChanged()": {
        "details": "MAY be emitted to signal that the domain could have changed."
      },
      "Transfer(address,address,uint256)": {
        "details": "Emitted when `amount` tokens is transferred from `from` to `to`."
      },
      "TransferEncrypted(address,address)": {
        "details": "Emitted when `value` tokens are moved from one account (`from`) to another (`to`). Note that `value` may be zero."
      }
    },
    "kind": "dev",
    "methods": {
      "DOMAIN_SEPARATOR()": {
        "details": "Returns the EIP-712 domain separator for the EIP-2612 permit."
      },
      "allowance(address,address)": {
        "details": "Returns the amount of tokens that `spender` can spend on behalf of `owner`."
      },
      "allowanceEncrypted(address,(bytes32,bytes))": {
        "details": "Returns the remaining number of tokens that `spender` will be allowed to spend on behalf of `owner` through {transferFrom}. This is zero by default. This value changes when {approve} or {transferFrom} are called."
      },
      "approve(address,uint256)": {
        "details": "Sets `amount` as the allowance of `spender` over the caller's tokens. Emits a {Approval} event."
      },
      "approveEncrypted(address,(bytes))": {
        "details": "Sets a `value` amount of tokens as the allowance of `spender` over the caller's tokens. Returns a boolean value indicating whether the operation succeeded. IMPORTANT: Beware that changing an allowance with this method brings the risk that someone may use both the old and the new allowance by unfortunate transaction ordering. One possible solution to mitigate this race condition is to first reduce the spender's allowance to 0 and set the desired value afterwards: https://github.com/ethereum/EIPs/issues/20#issuecomment-263524729 Emits an {ApprovalEncrypted} event."
      },
      "balanceOf(address)": {
        "details": "Returns the amount of tokens owned by `owner`."
      },
      "balanceOfEncrypted(address,(bytes32,bytes))": {
        "details": "Returns the value of tokens owned by `account`, sealed and encrypted for the caller."
      },
      "decimals()": {
        "details": "Returns the decimals places of the token."
      },
      "eip712Domain()": {
        "details": "See {IERC-5267}."
      },
      "name()": {
        "details": "Returns the name of the token."
      },
      "nonces(address)": {
        "details": "Returns the current nonce for `owner`. This value is used to compute the signature for EIP-2612 permit."
      },
      "permit(address,address,uint256,uint256,uint8,bytes32,bytes32)": {
        "details": "Sets `value` as the allowance of `spender` over the tokens of `owner`, authorized by a signed approval by `owner`. Emits a {Approval} event."
      },
      "symbol()": {
        "details": "Returns the symbol of the token."
      },
      "totalSupply()": {
        "details": "Returns the amount of tokens in existence."
      },
      "transfer(address,uint256)": {
        "details": "Transfer `amount` tokens from the caller to `to`. Requirements: - `from` must at least have `amount`. Emits a {Transfer} event."
      },
      "transferFrom(address,address,uint256)": {
        "details": "Transfers `amount` tokens from `from` to `to`. Note: Does not update the allowance if it is the maximum uint256 value. Requirements: - `from` must at least have `amount`. - The caller must have at least `amount` of allowance to transfer the tokens of `from`. Emits a {Transfer} event."
      },
      "transferFromEncrypted(address,address,(bytes))": {
        "details": "Moves a `value` amount of tokens from `from` to `to` using the allowance mechanism. `value` is then deducted from the caller's allowance. Returns a boolean value indicating whether the operation succeeded. Emits a {TransferEncrypted} event."
      }
    },
    "version": 1
  },
  "userdoc": {
    "errors": {
      "SignerNotMessageSender()": [
        {
          "notice": "Emitted when the signer is not the message sender"
        }
      ],
      "SignerNotOwner()": [
        {
          "notice": "Emitted when the signer is not the specified owner"
        }
      ]
    },
    "kind": "user",
    "methods": {},
    "version": 1
  },
  "storageLayout": {
    "storage": [
      {
        "astId": 16568,
        "contract": "contracts/tokens/FakeEUR.sol:FakeEUR",
        "label": "_nameFallback",
        "offset": 0,
        "slot": "0",
        "type": "t_string_storage"
      },
      {
        "astId": 16570,
        "contract": "contracts/tokens/FakeEUR.sol:FakeEUR",
        "label": "_versionFallback",
        "offset": 0,
        "slot": "1",
        "type": "t_string_storage"
      },
      {
        "astId": 18126,
        "contract": "contracts/tokens/FakeEUR.sol:FakeEUR",
        "label": "_encTotalSupply",
        "offset": 0,
        "slot": "2",
        "type": "t_userDefinedValueType(euint32)12"
      },
      {
        "astId": 18131,
        "contract": "contracts/tokens/FakeEUR.sol:FakeEUR",
        "label": "_encBalanceOf",
        "offset": 0,
        "slot": "3",
        "type": "t_mapping(t_address,t_userDefinedValueType(euint32)12)"
      },
      {
        "astId": 18138,
        "contract": "contracts/tokens/FakeEUR.sol:FakeEUR",
        "label": "_encAllowance",
        "offset": 0,
        "slot": "4",
        "type": "t_mapping(t_address,t_mapping(t_address,t_userDefinedValueType(euint32)12))"
      },
      {
        "astId": 18140,
        "contract": "contracts/tokens/FakeEUR.sol:FakeEUR",
        "label": "_name",
        "offset": 0,
        "slot": "5",
        "type": "t_string_storage"
      },
      {
        "astId": 18142,
        "contract": "contracts/tokens/FakeEUR.sol:FakeEUR",
        "label": "_symbol",
        "offset": 0,
        "slot": "6",
        "type": "t_string_storage"
      }
    ],
    "types": {
      "t_address": {
        "encoding": "inplace",
        "label": "address",
        "numberOfBytes": "20"
      },
      "t_mapping(t_address,t_mapping(t_address,t_userDefinedValueType(euint32)12))": {
        "encoding": "mapping",
        "key": "t_address",
        "label": "mapping(address => mapping(address => euint32))",
        "numberOfBytes": "32",
        "value": "t_mapping(t_address,t_userDefinedValueType(euint32)12)"
      },
      "t_mapping(t_address,t_userDefinedValueType(euint32)12)": {
        "encoding": "mapping",
        "key": "t_address",
        "label": "mapping(address => euint32)",
        "numberOfBytes": "32",
        "value": "t_userDefinedValueType(euint32)12"
      },
      "t_string_storage": {
        "encoding": "bytes",
        "label": "string",
        "numberOfBytes": "32"
      },
      "t_userDefinedValueType(euint32)12": {
        "encoding": "inplace",
        "label": "euint32",
        "numberOfBytes": "32"
      }
    }
  }
}