{
  "address": "0x74A58Bd814e3997B10b204ba4F526305c1458ff4",
  "abi": [
    {
      "inputs": [
        {
          "components": [
            {
              "internalType": "bytes",
              "name": "data",
              "type": "bytes"
            }
          ],
          "internalType": "struct inEuint32",
          "name": "_initialSupply",
          "type": "tuple"
        }
      ],
      "stateMutability": "nonpayable",
      "type": "constructor"
    },
    {
      "inputs": [],
      "name": "AllowanceOverflow",
      "type": "error"
    },
    {
      "inputs": [],
      "name": "AllowanceUnderflow",
      "type": "error"
    },
    {
      "inputs": [],
      "name": "ECDSAInvalidSignature",
      "type": "error"
    },
    {
      "inputs": [
        {
          "internalType": "uint256",
          "name": "length",
          "type": "uint256"
        }
      ],
      "name": "ECDSAInvalidSignatureLength",
      "type": "error"
    },
    {
      "inputs": [
        {
          "internalType": "bytes32",
          "name": "s",
          "type": "bytes32"
        }
      ],
      "name": "ECDSAInvalidSignatureS",
      "type": "error"
    },
    {
      "inputs": [],
      "name": "ErrorInsufficientFunds",
      "type": "error"
    },
    {
      "inputs": [],
      "name": "InsufficientAllowance",
      "type": "error"
    },
    {
      "inputs": [],
      "name": "InsufficientBalance",
      "type": "error"
    },
    {
      "inputs": [],
      "name": "InvalidPermit",
      "type": "error"
    },
    {
      "inputs": [],
      "name": "InvalidShortString",
      "type": "error"
    },
    {
      "inputs": [],
      "name": "PermitExpired",
      "type": "error"
    },
    {
      "inputs": [],
      "name": "SignerNotMessageSender",
      "type": "error"
    },
    {
      "inputs": [],
      "name": "SignerNotOwner",
      "type": "error"
    },
    {
      "inputs": [
        {
          "internalType": "string",
          "name": "str",
          "type": "string"
        }
      ],
      "name": "StringTooLong",
      "type": "error"
    },
    {
      "inputs": [],
      "name": "TotalSupplyOverflow",
      "type": "error"
    },
    {
      "anonymous": false,
      "inputs": [
        {
          "indexed": true,
          "internalType": "address",
          "name": "owner",
          "type": "address"
        },
        {
          "indexed": true,
          "internalType": "address",
          "name": "spender",
          "type": "address"
        },
        {
          "indexed": false,
          "internalType": "uint256",
          "name": "amount",
          "type": "uint256"
        }
      ],
      "name": "Approval",
      "type": "event"
    },
    {
      "anonymous": false,
      "inputs": [
        {
          "indexed": true,
          "internalType": "address",
          "name": "owner",
          "type": "address"
        },
        {
          "indexed": true,
          "internalType": "address",
          "name": "spender",
          "type": "address"
        }
      ],
      "name": "ApprovalEncrypted",
      "type": "event"
    },
    {
      "anonymous": false,
      "inputs": [],
      "name": "EIP712DomainChanged",
      "type": "event"
    },
    {
      "anonymous": false,
      "inputs": [
        {
          "indexed": true,
          "internalType": "address",
          "name": "from",
          "type": "address"
        },
        {
          "indexed": true,
          "internalType": "address",
          "name": "to",
          "type": "address"
        },
        {
          "indexed": false,
          "internalType": "uint256",
          "name": "amount",
          "type": "uint256"
        }
      ],
      "name": "Transfer",
      "type": "event"
    },
    {
      "anonymous": false,
      "inputs": [
        {
          "indexed": true,
          "internalType": "address",
          "name": "from",
          "type": "address"
        },
        {
          "indexed": true,
          "internalType": "address",
          "name": "to",
          "type": "address"
        }
      ],
      "name": "TransferEncrypted",
      "type": "event"
    },
    {
      "inputs": [],
      "name": "DOMAIN_SEPARATOR",
      "outputs": [
        {
          "internalType": "bytes32",
          "name": "result",
          "type": "bytes32"
        }
      ],
      "stateMutability": "view",
      "type": "function"
    },
    {
      "inputs": [
        {
          "internalType": "address",
          "name": "owner",
          "type": "address"
        },
        {
          "internalType": "address",
          "name": "spender",
          "type": "address"
        }
      ],
      "name": "allowance",
      "outputs": [
        {
          "internalType": "uint256",
          "name": "result",
          "type": "uint256"
        }
      ],
      "stateMutability": "view",
      "type": "function"
    },
    {
      "inputs": [
        {
          "internalType": "address",
          "name": "spender",
          "type": "address"
        },
        {
          "components": [
            {
              "internalType": "bytes32",
              "name": "publicKey",
              "type": "bytes32"
            },
            {
              "internalType": "bytes",
              "name": "signature",
              "type": "bytes"
            }
          ],
          "internalType": "struct Permission",
          "name": "permission",
          "type": "tuple"
        }
      ],
      "name": "allowanceEncrypted",
      "outputs": [
        {
          "internalType": "string",
          "name": "",
          "type": "string"
        }
      ],
      "stateMutability": "view",
      "type": "function"
    },
    {
      "inputs": [
        {
          "internalType": "address",
          "name": "spender",
          "type": "address"
        },
        {
          "internalType": "uint256",
          "name": "amount",
          "type": "uint256"
        }
      ],
      "name": "approve",
      "outputs": [
        {
          "internalType": "bool",
          "name": "",
          "type": "bool"
        }
      ],
      "stateMutability": "nonpayable",
      "type": "function"
    },
    {
      "inputs": [
        {
          "internalType": "address",
          "name": "spender",
          "type": "address"
        },
        {
          "components": [
            {
              "internalType": "bytes",
              "name": "data",
              "type": "bytes"
            }
          ],
          "internalType": "struct inEuint32",
          "name": "value",
          "type": "tuple"
        }
      ],
      "name": "approveEncrypted",
      "outputs": [
        {
          "internalType": "bool",
          "name": "",
          "type": "bool"
        }
      ],
      "stateMutability": "nonpayable",
      "type": "function"
    },
    {
      "inputs": [
        {
          "internalType": "address",
          "name": "owner",
          "type": "address"
        }
      ],
      "name": "balanceOf",
      "outputs": [
        {
          "internalType": "uint256",
          "name": "result",
          "type": "uint256"
        }
      ],
      "stateMutability": "view",
      "type": "function"
    },
    {
      "inputs": [
        {
          "internalType": "address",
          "name": "account",
          "type": "address"
        },
        {
          "components": [
            {
              "internalType": "bytes32",
              "name": "publicKey",
              "type": "bytes32"
            },
            {
              "internalType": "bytes",
              "name": "signature",
              "type": "bytes"
            }
          ],
          "internalType": "struct Permission",
          "name": "auth",
          "type": "tuple"
        }
      ],
      "name": "balanceOfEncrypted",
      "outputs": [
        {
          "internalType": "string",
          "name": "",
          "type": "string"
        }
      ],
      "stateMutability": "view",
      "type": "function"
    },
    {
      "inputs": [],
      "name": "decimals",
      "outputs": [
        {
          "internalType": "uint8",
          "name": "",
          "type": "uint8"
        }
      ],
      "stateMutability": "pure",
      "type": "function"
    },
    {
      "inputs": [],
      "name": "eip712Domain",
      "outputs": [
        {
          "internalType": "bytes1",
          "name": "fields",
          "type": "bytes1"
        },
        {
          "internalType": "string",
          "name": "name",
          "type": "string"
        },
        {
          "internalType": "string",
          "name": "version",
          "type": "string"
        },
        {
          "internalType": "uint256",
          "name": "chainId",
          "type": "uint256"
        },
        {
          "internalType": "address",
          "name": "verifyingContract",
          "type": "address"
        },
        {
          "internalType": "bytes32",
          "name": "salt",
          "type": "bytes32"
        },
        {
          "internalType": "uint256[]",
          "name": "extensions",
          "type": "uint256[]"
        }
      ],
      "stateMutability": "view",
      "type": "function"
    },
    {
      "inputs": [],
      "name": "name",
      "outputs": [
        {
          "internalType": "string",
          "name": "",
          "type": "string"
        }
      ],
      "stateMutability": "view",
      "type": "function"
    },
    {
      "inputs": [
        {
          "internalType": "address",
          "name": "owner",
          "type": "address"
        }
      ],
      "name": "nonces",
      "outputs": [
        {
          "internalType": "uint256",
          "name": "result",
          "type": "uint256"
        }
      ],
      "stateMutability": "view",
      "type": "function"
    },
    {
      "inputs": [
        {
          "internalType": "address",
          "name": "owner",
          "type": "address"
        },
        {
          "internalType": "address",
          "name": "spender",
          "type": "address"
        },
        {
          "internalType": "uint256",
          "name": "value",
          "type": "uint256"
        },
        {
          "internalType": "uint256",
          "name": "deadline",
          "type": "uint256"
        },
        {
          "internalType": "uint8",
          "name": "v",
          "type": "uint8"
        },
        {
          "internalType": "bytes32",
          "name": "r",
          "type": "bytes32"
        },
        {
          "internalType": "bytes32",
          "name": "s",
          "type": "bytes32"
        }
      ],
      "name": "permit",
      "outputs": [],
      "stateMutability": "nonpayable",
      "type": "function"
    },
    {
      "inputs": [],
      "name": "symbol",
      "outputs": [
        {
          "internalType": "string",
          "name": "",
          "type": "string"
        }
      ],
      "stateMutability": "view",
      "type": "function"
    },
    {
      "inputs": [],
      "name": "totalSupply",
      "outputs": [
        {
          "internalType": "uint256",
          "name": "result",
          "type": "uint256"
        }
      ],
      "stateMutability": "view",
      "type": "function"
    },
    {
      "inputs": [
        {
          "internalType": "address",
          "name": "to",
          "type": "address"
        },
        {
          "internalType": "uint256",
          "name": "amount",
          "type": "uint256"
        }
      ],
      "name": "transfer",
      "outputs": [
        {
          "internalType": "bool",
          "name": "",
          "type": "bool"
        }
      ],
      "stateMutability": "nonpayable",
      "type": "function"
    },
    {
      "inputs": [
        {
          "internalType": "address",
          "name": "to",
          "type": "address"
        },
        {
          "components": [
            {
              "internalType": "bytes",
              "name": "data",
              "type": "bytes"
            }
          ],
          "internalType": "struct inEuint32",
          "name": "encryptedAmount",
          "type": "tuple"
        }
      ],
      "name": "transferEncrypted",
      "outputs": [
        {
          "internalType": "euint32",
          "name": "",
          "type": "uint256"
        }
      ],
      "stateMutability": "nonpayable",
      "type": "function"
    },
    {
      "inputs": [
        {
          "internalType": "address",
          "name": "to",
          "type": "address"
        },
        {
          "internalType": "euint32",
          "name": "amount",
          "type": "uint256"
        }
      ],
      "name": "transferEncrypted",
      "outputs": [
        {
          "internalType": "euint32",
          "name": "",
          "type": "uint256"
        }
      ],
      "stateMutability": "nonpayable",
      "type": "function"
    },
    {
      "inputs": [
        {
          "internalType": "address",
          "name": "from",
          "type": "address"
        },
        {
          "internalType": "address",
          "name": "to",
          "type": "address"
        },
        {
          "internalType": "uint256",
          "name": "amount",
          "type": "uint256"
        }
      ],
      "name": "transferFrom",
      "outputs": [
        {
          "internalType": "bool",
          "name": "",
          "type": "bool"
        }
      ],
      "stateMutability": "nonpayable",
      "type": "function"
    },
    {
      "inputs": [
        {
          "internalType": "address",
          "name": "from",
          "type": "address"
        },
        {
          "internalType": "address",
          "name": "to",
          "type": "address"
        },
        {
          "components": [
            {
              "internalType": "bytes",
              "name": "data",
              "type": "bytes"
            }
          ],
          "internalType": "struct inEuint32",
          "name": "value",
          "type": "tuple"
        }
      ],
      "name": "transferFromEncrypted",
      "outputs": [
        {
          "internalType": "euint32",
          "name": "",
          "type": "uint256"
        }
      ],
      "stateMutability": "nonpayable",
      "type": "function"
    },
    {
      "inputs": [
        {
          "internalType": "address",
          "name": "from",
          "type": "address"
        },
        {
          "internalType": "address",
          "name": "to",
          "type": "address"
        },
        {
          "internalType": "euint32",
          "name": "value",
          "type": "uint256"
        }
      ],
      "name": "transferFromEncrypted",
      "outputs": [
        {
          "internalType": "euint32",
          "name": "",
          "type": "uint256"
        }
      ],
      "stateMutability": "nonpayable",
      "type": "function"
    },
    {
      "inputs": [
        {
          "internalType": "uint32",
          "name": "amount",
          "type": "uint32"
        }
      ],
      "name": "unwrap",
      "outputs": [],
      "stateMutability": "nonpayable",
      "type": "function"
    },
    {
      "inputs": [
        {
          "internalType": "uint32",
          "name": "amount",
          "type": "uint32"
        }
      ],
      "name": "wrap",
      "outputs": [],
      "stateMutability": "nonpayable",
      "type": "function"
    }
  ],
  "transactionHash": "0x6a03a2ba24c94362d94c1b1a8c96dad68d4c6811fd8707106bcc56df7b0e6bd2",
  "args": [
    {
      "data": {
        "0": 16,
        "1": 8,
        "2": 0,
        "3": 0,
        "4": 0,
        "5": 0,
        "6": 0,
        "7": 0,
        "8": 71,
        "9": 67,
        "10": 118,
        "11": 156,
        "12": 60,
        "13": 123,
        "14": 193,
        "15": 153,
        "16": 93,
        "17": 71,
        "18": 184,
        "19": 92,
        "20": 82,
        "21": 184,
        "22": 154,
        "23": 42,
        "24": 46,
        "25": 138,
        "26": 183,
        "27": 185,
        "28": 219,
        "29": 35,
        "30": 70,
        "31": 129,
        "32": 56,
        "33": 164,
        "34": 229,
        "35": 121,
        "36": 99,
        "37": 247,
        "38": 31,
        "39": 174,
        "40": 117,
        "41": 215,
        "42": 92,
        "43": 49,
        "44": 48,
        "45": 116,
        "46": 169,
        "47": 173,
        "48": 228,
        "49": 21,
        "50": 13,
        "51": 246,
        "52": 243,
        "53": 20,
        "54": 133,
        "55": 35,
        "56": 55,
        "57": 18,
        "58": 194,
        "59": 55,
        "60": 120,
        "61": 241,
        "62": 155,
        "63": 138,
        "64": 119,
        "65": 0,
        "66": 23,
        "67": 158,
        "68": 61,
        "69": 121,
        "70": 191,
        "71": 211,
        "72": 29,
        "73": 221,
        "74": 48,
        "75": 159,
        "76": 144,
        "77": 29,
        "78": 168,
        "79": 31,
        "80": 71,
        "81": 237,
        "82": 218,
        "83": 131,
        "84": 86,
        "85": 4,
        "86": 8,
        "87": 205,
        "88": 196,
        "89": 114,
        "90": 86,
        "91": 63,
        "92": 132,
        "93": 151,
        "94": 75,
        "95": 220,
        "96": 175,
        "97": 48,
        "98": 237,
        "99": 163,
        "100": 209,
        "101": 237,
        "102": 80,
        "103": 96,
        "104": 211,
        "105": 232,
        "106": 183,
        "107": 8,
        "108": 115,
        "109": 78,
        "110": 176,
        "111": 156,
        "112": 226,
        "113": 251,
        "114": 78,
        "115": 234,
        "116": 250,
        "117": 174,
        "118": 21,
        "119": 189,
        "120": 16,
        "121": 79,
        "122": 82,
        "123": 71,
        "124": 111,
        "125": 66,
        "126": 10,
        "127": 13,
        "128": 123,
        "129": 2,
        "130": 200,
        "131": 155,
        "132": 46,
        "133": 146,
        "134": 54,
        "135": 243,
        "136": 143,
        "137": 55,
        "138": 209,
        "139": 20,
        "140": 143,
        "141": 222,
        "142": 84,
        "143": 160,
        "144": 135,
        "145": 171,
        "146": 75,
        "147": 20,
        "148": 104,
        "149": 37,
        "150": 134,
        "151": 113,
        "152": 35,
        "153": 97,
        "154": 7,
        "155": 63,
        "156": 72,
        "157": 43,
        "158": 154,
        "159": 225,
        "160": 234,
        "161": 188,
        "162": 84,
        "163": 192,
        "164": 27,
        "165": 196,
        "166": 22,
        "167": 184,
        "168": 9,
        "169": 179,
        "170": 139,
        "171": 204,
        "172": 122,
        "173": 230,
        "174": 143,
        "175": 206,
        "176": 44,
        "177": 145,
        "178": 250,
        "179": 68,
        "180": 109,
        "181": 52,
        "182": 167,
        "183": 178,
        "184": 83,
        "185": 143,
        "186": 232,
        "187": 46,
        "188": 169,
        "189": 162,
        "190": 240,
        "191": 54,
        "192": 232,
        "193": 14,
        "194": 168,
        "195": 191,
        "196": 135,
        "197": 36,
        "198": 113,
        "199": 161,
        "200": 228,
        "201": 154,
        "202": 132,
        "203": 1,
        "204": 158,
        "205": 244,
        "206": 213,
        "207": 211,
        "208": 89,
        "209": 210,
        "210": 9,
        "211": 53,
        "212": 182,
        "213": 199,
        "214": 22,
        "215": 79,
        "216": 77,
        "217": 46,
        "218": 137,
        "219": 94,
        "220": 220,
        "221": 144,
        "222": 33,
        "223": 71,
        "224": 34,
        "225": 29,
        "226": 60,
        "227": 29,
        "228": 98,
        "229": 173,
        "230": 111,
        "231": 239,
        "232": 142,
        "233": 10,
        "234": 1,
        "235": 25,
        "236": 96,
        "237": 135,
        "238": 0,
        "239": 109,
        "240": 210,
        "241": 111,
        "242": 233,
        "243": 235,
        "244": 223,
        "245": 9,
        "246": 43,
        "247": 157,
        "248": 50,
        "249": 14,
        "250": 121,
        "251": 3,
        "252": 67,
        "253": 63,
        "254": 183,
        "255": 128,
        "256": 92,
        "257": 75,
        "258": 104,
        "259": 206,
        "260": 250,
        "261": 204,
        "262": 54,
        "263": 168,
        "264": 235,
        "265": 153,
        "266": 241,
        "267": 85,
        "268": 242,
        "269": 89,
        "270": 131,
        "271": 116,
        "272": 193,
        "273": 252,
        "274": 175,
        "275": 164,
        "276": 171,
        "277": 174,
        "278": 148,
        "279": 195,
        "280": 222,
        "281": 79,
        "282": 162,
        "283": 43,
        "284": 1,
        "285": 189,
        "286": 2,
        "287": 201,
        "288": 191,
        "289": 51,
        "290": 200,
        "291": 126,
        "292": 46,
        "293": 124,
        "294": 37,
        "295": 39,
        "296": 203,
        "297": 158,
        "298": 35,
        "299": 132,
        "300": 137,
        "301": 52,
        "302": 84,
        "303": 157,
        "304": 115,
        "305": 49,
        "306": 156,
        "307": 118,
        "308": 76,
        "309": 237,
        "310": 233,
        "311": 82,
        "312": 65,
        "313": 78,
        "314": 6,
        "315": 17,
        "316": 2,
        "317": 62,
        "318": 66,
        "319": 208,
        "320": 226,
        "321": 254,
        "322": 116,
        "323": 16,
        "324": 181,
        "325": 164,
        "326": 123,
        "327": 19,
        "328": 198,
        "329": 63,
        "330": 252,
        "331": 178,
        "332": 152,
        "333": 255,
        "334": 89,
        "335": 208,
        "336": 240,
        "337": 110,
        "338": 111,
        "339": 199,
        "340": 84,
        "341": 111,
        "342": 194,
        "343": 49,
        "344": 70,
        "345": 83,
        "346": 211,
        "347": 200,
        "348": 173,
        "349": 175,
        "350": 155,
        "351": 162,
        "352": 4,
        "353": 75,
        "354": 103,
        "355": 169,
        "356": 41,
        "357": 123,
        "358": 44,
        "359": 34,
        "360": 235,
        "361": 205,
        "362": 252,
        "363": 9,
        "364": 167,
        "365": 76,
        "366": 70,
        "367": 231,
        "368": 4,
        "369": 110,
        "370": 135,
        "371": 59,
        "372": 26,
        "373": 159,
        "374": 173,
        "375": 187,
        "376": 89,
        "377": 175,
        "378": 162,
        "379": 167,
        "380": 128,
        "381": 7,
        "382": 241,
        "383": 194,
        "384": 129,
        "385": 134,
        "386": 175,
        "387": 75,
        "388": 13,
        "389": 230,
        "390": 111,
        "391": 186,
        "392": 41,
        "393": 251,
        "394": 98,
        "395": 220,
        "396": 109,
        "397": 166,
        "398": 98,
        "399": 238,
        "400": 101,
        "401": 152,
        "402": 142,
        "403": 87,
        "404": 175,
        "405": 150,
        "406": 7,
        "407": 152,
        "408": 12,
        "409": 203,
        "410": 13,
        "411": 216,
        "412": 201,
        "413": 241,
        "414": 240,
        "415": 24,
        "416": 13,
        "417": 92,
        "418": 100,
        "419": 97,
        "420": 136,
        "421": 16,
        "422": 35,
        "423": 153,
        "424": 18,
        "425": 245,
        "426": 79,
        "427": 199,
        "428": 229,
        "429": 39,
        "430": 69,
        "431": 82,
        "432": 233,
        "433": 21,
        "434": 183,
        "435": 220,
        "436": 54,
        "437": 76,
        "438": 181,
        "439": 116,
        "440": 83,
        "441": 126,
        "442": 51,
        "443": 188,
        "444": 61,
        "445": 80,
        "446": 98,
        "447": 210,
        "448": 118,
        "449": 100,
        "450": 218,
        "451": 178,
        "452": 176,
        "453": 143,
        "454": 163,
        "455": 211,
        "456": 83,
        "457": 85,
        "458": 194,
        "459": 191,
        "460": 0,
        "461": 199,
        "462": 81,
        "463": 194,
        "464": 61,
        "465": 40,
        "466": 172,
        "467": 227,
        "468": 198,
        "469": 71,
        "470": 103,
        "471": 186,
        "472": 174,
        "473": 201,
        "474": 103,
        "475": 61,
        "476": 180,
        "477": 120,
        "478": 101,
        "479": 203,
        "480": 204,
        "481": 198,
        "482": 86,
        "483": 197,
        "484": 124,
        "485": 101,
        "486": 40,
        "487": 241,
        "488": 190,
        "489": 48,
        "490": 57,
        "491": 48,
        "492": 33,
        "493": 149,
        "494": 163,
        "495": 188,
        "496": 238,
        "497": 91,
        "498": 64,
        "499": 190,
        "500": 145,
        "501": 57,
        "502": 74,
        "503": 61,
        "504": 0,
        "505": 178,
        "506": 26,
        "507": 248,
        "508": 98,
        "509": 215,
        "510": 160,
        "511": 187,
        "512": 253,
        "513": 88,
        "514": 128,
        "515": 219,
        "516": 78,
        "517": 176,
        "518": 78,
        "519": 122,
        "520": 82,
        "521": 39,
        "522": 32,
        "523": 162,
        "524": 43,
        "525": 2,
        "526": 45,
        "527": 119,
        "528": 219,
        "529": 109,
        "530": 234,
        "531": 120,
        "532": 155,
        "533": 133,
        "534": 14,
        "535": 214,
        "536": 100,
        "537": 154,
        "538": 56,
        "539": 174,
        "540": 179,
        "541": 209,
        "542": 50,
        "543": 67,
        "544": 189,
        "545": 49,
        "546": 223,
        "547": 153,
        "548": 176,
        "549": 201,
        "550": 102,
        "551": 198,
        "552": 161,
        "553": 54,
        "554": 189,
        "555": 76,
        "556": 101,
        "557": 122,
        "558": 196,
        "559": 24,
        "560": 233,
        "561": 178,
        "562": 20,
        "563": 27,
        "564": 169,
        "565": 129,
        "566": 167,
        "567": 134,
        "568": 146,
        "569": 72,
        "570": 116,
        "571": 87,
        "572": 204,
        "573": 59,
        "574": 59,
        "575": 135,
        "576": 114,
        "577": 125,
        "578": 150,
        "579": 15,
        "580": 198,
        "581": 43,
        "582": 5,
        "583": 220,
        "584": 192,
        "585": 20,
        "586": 0,
        "587": 50,
        "588": 22,
        "589": 108,
        "590": 232,
        "591": 119,
        "592": 237,
        "593": 3,
        "594": 173,
        "595": 236,
        "596": 10,
        "597": 227,
        "598": 3,
        "599": 134,
        "600": 128,
        "601": 170,
        "602": 46,
        "603": 215,
        "604": 158,
        "605": 27,
        "606": 228,
        "607": 223,
        "608": 77,
        "609": 189,
        "610": 218,
        "611": 11,
        "612": 61,
        "613": 236,
        "614": 143,
        "615": 239,
        "616": 218,
        "617": 41,
        "618": 134,
        "619": 225,
        "620": 110,
        "621": 118,
        "622": 183,
        "623": 47,
        "624": 228,
        "625": 206,
        "626": 31,
        "627": 125,
        "628": 227,
        "629": 133,
        "630": 172,
        "631": 61,
        "632": 78,
        "633": 121,
        "634": 208,
        "635": 8,
        "636": 120,
        "637": 66,
        "638": 144,
        "639": 50,
        "640": 68,
        "641": 227,
        "642": 3,
        "643": 158,
        "644": 207,
        "645": 165,
        "646": 22,
        "647": 57,
        "648": 83,
        "649": 20,
        "650": 130,
        "651": 20,
        "652": 128,
        "653": 232,
        "654": 238,
        "655": 173,
        "656": 29,
        "657": 221,
        "658": 108,
        "659": 174,
        "660": 234,
        "661": 44,
        "662": 129,
        "663": 78,
        "664": 2,
        "665": 150,
        "666": 208,
        "667": 30,
        "668": 126,
        "669": 11,
        "670": 43,
        "671": 61,
        "672": 16,
        "673": 32,
        "674": 95,
        "675": 114,
        "676": 65,
        "677": 20,
        "678": 53,
        "679": 232,
        "680": 45,
        "681": 76,
        "682": 183,
        "683": 45,
        "684": 239,
        "685": 46,
        "686": 17,
        "687": 71,
        "688": 204,
        "689": 82,
        "690": 104,
        "691": 187,
        "692": 23,
        "693": 191,
        "694": 182,
        "695": 201,
        "696": 142,
        "697": 69,
        "698": 143,
        "699": 109,
        "700": 62,
        "701": 29,
        "702": 139,
        "703": 20,
        "704": 63,
        "705": 248,
        "706": 114,
        "707": 211,
        "708": 111,
        "709": 201,
        "710": 164,
        "711": 101,
        "712": 78,
        "713": 173,
        "714": 216,
        "715": 221,
        "716": 72,
        "717": 131,
        "718": 195,
        "719": 211,
        "720": 92,
        "721": 189,
        "722": 36,
        "723": 202,
        "724": 141,
        "725": 1,
        "726": 221,
        "727": 105,
        "728": 57,
        "729": 90,
        "730": 144,
        "731": 55,
        "732": 31,
        "733": 147,
        "734": 107,
        "735": 8,
        "736": 206,
        "737": 196,
        "738": 75,
        "739": 230,
        "740": 154,
        "741": 238,
        "742": 133,
        "743": 47,
        "744": 146,
        "745": 170,
        "746": 246,
        "747": 115,
        "748": 79,
        "749": 248,
        "750": 117,
        "751": 128,
        "752": 191,
        "753": 135,
        "754": 222,
        "755": 174,
        "756": 171,
        "757": 126,
        "758": 254,
        "759": 248,
        "760": 6,
        "761": 6,
        "762": 15,
        "763": 160,
        "764": 232,
        "765": 163,
        "766": 188,
        "767": 98,
        "768": 49,
        "769": 174,
        "770": 93,
        "771": 92,
        "772": 42,
        "773": 33,
        "774": 132,
        "775": 214,
        "776": 119,
        "777": 206,
        "778": 168,
        "779": 186,
        "780": 179,
        "781": 223,
        "782": 97,
        "783": 114,
        "784": 165,
        "785": 190,
        "786": 33,
        "787": 217,
        "788": 227,
        "789": 22,
        "790": 101,
        "791": 22,
        "792": 56,
        "793": 22,
        "794": 69,
        "795": 244,
        "796": 179,
        "797": 164,
        "798": 163,
        "799": 89,
        "800": 9,
        "801": 194,
        "802": 99,
        "803": 99,
        "804": 205,
        "805": 1,
        "806": 123,
        "807": 162,
        "808": 31,
        "809": 242,
        "810": 228,
        "811": 76,
        "812": 2,
        "813": 246,
        "814": 150,
        "815": 176,
        "816": 12,
        "817": 226,
        "818": 92,
        "819": 225,
        "820": 89,
        "821": 169,
        "822": 45,
        "823": 36,
        "824": 131,
        "825": 122,
        "826": 7,
        "827": 156,
        "828": 138,
        "829": 101,
        "830": 136,
        "831": 253,
        "832": 138,
        "833": 77,
        "834": 12,
        "835": 168,
        "836": 33,
        "837": 6,
        "838": 36,
        "839": 22,
        "840": 47,
        "841": 175,
        "842": 65,
        "843": 45,
        "844": 121,
        "845": 82,
        "846": 27,
        "847": 64,
        "848": 58,
        "849": 13,
        "850": 245,
        "851": 153,
        "852": 87,
        "853": 243,
        "854": 104,
        "855": 212,
        "856": 119,
        "857": 76,
        "858": 62,
        "859": 54,
        "860": 252,
        "861": 139,
        "862": 236,
        "863": 73,
        "864": 13,
        "865": 142,
        "866": 197,
        "867": 49,
        "868": 238,
        "869": 136,
        "870": 85,
        "871": 238,
        "872": 151,
        "873": 17,
        "874": 57,
        "875": 146,
        "876": 245,
        "877": 148,
        "878": 71,
        "879": 145,
        "880": 145,
        "881": 35,
        "882": 17,
        "883": 1,
        "884": 14,
        "885": 11,
        "886": 182,
        "887": 235,
        "888": 210,
        "889": 15,
        "890": 171,
        "891": 59,
        "892": 72,
        "893": 26,
        "894": 108,
        "895": 207,
        "896": 122,
        "897": 155,
        "898": 159,
        "899": 85,
        "900": 130,
        "901": 86,
        "902": 152,
        "903": 46,
        "904": 77,
        "905": 49,
        "906": 166,
        "907": 106,
        "908": 18,
        "909": 59,
        "910": 208,
        "911": 41,
        "912": 153,
        "913": 190,
        "914": 209,
        "915": 143,
        "916": 196,
        "917": 207,
        "918": 169,
        "919": 36,
        "920": 48,
        "921": 252,
        "922": 57,
        "923": 199,
        "924": 228,
        "925": 125,
        "926": 213,
        "927": 253,
        "928": 116,
        "929": 193,
        "930": 46,
        "931": 44,
        "932": 89,
        "933": 10,
        "934": 248,
        "935": 174,
        "936": 189,
        "937": 149,
        "938": 50,
        "939": 214,
        "940": 164,
        "941": 124,
        "942": 130,
        "943": 66,
        "944": 151,
        "945": 72,
        "946": 159,
        "947": 82,
        "948": 183,
        "949": 154,
        "950": 102,
        "951": 50,
        "952": 34,
        "953": 152,
        "954": 235,
        "955": 47,
        "956": 157,
        "957": 157,
        "958": 24,
        "959": 22,
        "960": 8,
        "961": 65,
        "962": 121,
        "963": 195,
        "964": 199,
        "965": 98,
        "966": 4,
        "967": 65,
        "968": 180,
        "969": 156,
        "970": 200,
        "971": 233,
        "972": 239,
        "973": 62,
        "974": 26,
        "975": 212,
        "976": 231,
        "977": 67,
        "978": 198,
        "979": 134,
        "980": 155,
        "981": 212,
        "982": 84,
        "983": 70,
        "984": 167,
        "985": 139,
        "986": 53,
        "987": 35,
        "988": 192,
        "989": 243,
        "990": 150,
        "991": 107,
        "992": 218,
        "993": 31,
        "994": 202,
        "995": 196,
        "996": 168,
        "997": 214,
        "998": 20,
        "999": 229,
        "1000": 139,
        "1001": 74,
        "1002": 163,
        "1003": 232,
        "1004": 68,
        "1005": 41,
        "1006": 216,
        "1007": 243,
        "1008": 148,
        "1009": 215,
        "1010": 130,
        "1011": 93,
        "1012": 192,
        "1013": 54,
        "1014": 173,
        "1015": 2,
        "1016": 142,
        "1017": 31,
        "1018": 249,
        "1019": 25,
        "1020": 145,
        "1021": 84,
        "1022": 170,
        "1023": 243,
        "1024": 95,
        "1025": 240,
        "1026": 23,
        "1027": 6,
        "1028": 81,
        "1029": 24,
        "1030": 93,
        "1031": 101,
        "1032": 254,
        "1033": 106,
        "1034": 163,
        "1035": 165,
        "1036": 230,
        "1037": 177,
        "1038": 108,
        "1039": 161,
        "1040": 177,
        "1041": 8,
        "1042": 173,
        "1043": 134,
        "1044": 147,
        "1045": 156,
        "1046": 145,
        "1047": 157,
        "1048": 98,
        "1049": 200,
        "1050": 60,
        "1051": 16,
        "1052": 131,
        "1053": 137,
        "1054": 160,
        "1055": 221,
        "1056": 215,
        "1057": 19,
        "1058": 86,
        "1059": 51,
        "1060": 233,
        "1061": 240,
        "1062": 120,
        "1063": 206,
        "1064": 163,
        "1065": 234,
        "1066": 67,
        "1067": 105,
        "1068": 90,
        "1069": 169,
        "1070": 157,
        "1071": 216,
        "1072": 55,
        "1073": 15,
        "1074": 80,
        "1075": 0,
        "1076": 240,
        "1077": 166,
        "1078": 198,
        "1079": 8,
        "1080": 152,
        "1081": 88,
        "1082": 37,
        "1083": 238,
        "1084": 188,
        "1085": 134,
        "1086": 198,
        "1087": 224,
        "1088": 141,
        "1089": 203,
        "1090": 223,
        "1091": 45,
        "1092": 152,
        "1093": 24,
        "1094": 65,
        "1095": 115,
        "1096": 222,
        "1097": 243,
        "1098": 216,
        "1099": 0,
        "1100": 169,
        "1101": 51,
        "1102": 121,
        "1103": 211,
        "1104": 52,
        "1105": 152,
        "1106": 236,
        "1107": 50,
        "1108": 194,
        "1109": 27,
        "1110": 124,
        "1111": 233,
        "1112": 86,
        "1113": 161,
        "1114": 194,
        "1115": 208,
        "1116": 77,
        "1117": 167,
        "1118": 64,
        "1119": 251,
        "1120": 182,
        "1121": 231,
        "1122": 49,
        "1123": 35,
        "1124": 102,
        "1125": 84,
        "1126": 196,
        "1127": 114,
        "1128": 251,
        "1129": 144,
        "1130": 118,
        "1131": 215,
        "1132": 32,
        "1133": 0,
        "1134": 245,
        "1135": 112,
        "1136": 9,
        "1137": 123,
        "1138": 121,
        "1139": 124,
        "1140": 176,
        "1141": 162,
        "1142": 204,
        "1143": 135,
        "1144": 244,
        "1145": 108,
        "1146": 153,
        "1147": 169,
        "1148": 247,
        "1149": 44,
        "1150": 181,
        "1151": 211,
        "1152": 56,
        "1153": 103,
        "1154": 174,
        "1155": 63,
        "1156": 78,
        "1157": 95,
        "1158": 237,
        "1159": 57,
        "1160": 151,
        "1161": 63,
        "1162": 238,
        "1163": 124,
        "1164": 244,
        "1165": 19,
        "1166": 158,
        "1167": 250,
        "1168": 93,
        "1169": 189,
        "1170": 67,
        "1171": 197,
        "1172": 9,
        "1173": 39,
        "1174": 251,
        "1175": 163,
        "1176": 59,
        "1177": 120,
        "1178": 83,
        "1179": 79,
        "1180": 219,
        "1181": 93,
        "1182": 13,
        "1183": 206,
        "1184": 93,
        "1185": 86,
        "1186": 49,
        "1187": 156,
        "1188": 194,
        "1189": 223,
        "1190": 77,
        "1191": 228,
        "1192": 146,
        "1193": 164,
        "1194": 89,
        "1195": 235,
        "1196": 97,
        "1197": 43,
        "1198": 18,
        "1199": 48,
        "1200": 146,
        "1201": 166,
        "1202": 249,
        "1203": 9,
        "1204": 41,
        "1205": 7,
        "1206": 97,
        "1207": 71,
        "1208": 173,
        "1209": 101,
        "1210": 120,
        "1211": 154,
        "1212": 186,
        "1213": 18,
        "1214": 176,
        "1215": 143,
        "1216": 57,
        "1217": 195,
        "1218": 246,
        "1219": 25,
        "1220": 103,
        "1221": 170,
        "1222": 182,
        "1223": 232,
        "1224": 80,
        "1225": 191,
        "1226": 68,
        "1227": 200,
        "1228": 233,
        "1229": 79,
        "1230": 42,
        "1231": 202,
        "1232": 111,
        "1233": 239,
        "1234": 10,
        "1235": 76,
        "1236": 196,
        "1237": 25,
        "1238": 179,
        "1239": 227,
        "1240": 211,
        "1241": 63,
        "1242": 211,
        "1243": 74,
        "1244": 217,
        "1245": 41,
        "1246": 238,
        "1247": 76,
        "1248": 210,
        "1249": 154,
        "1250": 255,
        "1251": 106,
        "1252": 237,
        "1253": 161,
        "1254": 110,
        "1255": 249,
        "1256": 19,
        "1257": 60,
        "1258": 53,
        "1259": 241,
        "1260": 28,
        "1261": 210,
        "1262": 10,
        "1263": 146,
        "1264": 228,
        "1265": 110,
        "1266": 229,
        "1267": 42,
        "1268": 192,
        "1269": 190,
        "1270": 9,
        "1271": 29,
        "1272": 54,
        "1273": 75,
        "1274": 206,
        "1275": 134,
        "1276": 249,
        "1277": 43,
        "1278": 198,
        "1279": 146,
        "1280": 70,
        "1281": 148,
        "1282": 177,
        "1283": 115,
        "1284": 199,
        "1285": 94,
        "1286": 84,
        "1287": 39,
        "1288": 143,
        "1289": 216,
        "1290": 63,
        "1291": 104,
        "1292": 227,
        "1293": 47,
        "1294": 238,
        "1295": 245,
        "1296": 94,
        "1297": 209,
        "1298": 154,
        "1299": 203,
        "1300": 127,
        "1301": 245,
        "1302": 130,
        "1303": 253,
        "1304": 64,
        "1305": 204,
        "1306": 178,
        "1307": 81,
        "1308": 250,
        "1309": 207,
        "1310": 129,
        "1311": 248,
        "1312": 105,
        "1313": 232,
        "1314": 60,
        "1315": 12,
        "1316": 52,
        "1317": 189,
        "1318": 87,
        "1319": 57,
        "1320": 149,
        "1321": 211,
        "1322": 235,
        "1323": 57,
        "1324": 193,
        "1325": 30,
        "1326": 197,
        "1327": 166,
        "1328": 131,
        "1329": 115,
        "1330": 59,
        "1331": 235,
        "1332": 196,
        "1333": 107,
        "1334": 200,
        "1335": 122,
        "1336": 210,
        "1337": 130,
        "1338": 188,
        "1339": 93,
        "1340": 148,
        "1341": 32,
        "1342": 97,
        "1343": 140,
        "1344": 119,
        "1345": 202,
        "1346": 22,
        "1347": 95,
        "1348": 148,
        "1349": 233,
        "1350": 117,
        "1351": 226,
        "1352": 187,
        "1353": 192,
        "1354": 137,
        "1355": 47,
        "1356": 69,
        "1357": 59,
        "1358": 1,
        "1359": 170,
        "1360": 7,
        "1361": 153,
        "1362": 128,
        "1363": 159,
        "1364": 173,
        "1365": 53,
        "1366": 144,
        "1367": 101,
        "1368": 248,
        "1369": 86,
        "1370": 179,
        "1371": 4,
        "1372": 3,
        "1373": 7,
        "1374": 2,
        "1375": 27,
        "1376": 243,
        "1377": 156,
        "1378": 101,
        "1379": 41,
        "1380": 54,
        "1381": 46,
        "1382": 125,
        "1383": 147,
        "1384": 200,
        "1385": 17,
        "1386": 122,
        "1387": 31,
        "1388": 218,
        "1389": 241,
        "1390": 107,
        "1391": 135,
        "1392": 132,
        "1393": 254,
        "1394": 90,
        "1395": 236,
        "1396": 140,
        "1397": 6,
        "1398": 194,
        "1399": 89,
        "1400": 168,
        "1401": 18,
        "1402": 116,
        "1403": 208,
        "1404": 167,
        "1405": 208,
        "1406": 133,
        "1407": 7,
        "1408": 127,
        "1409": 91,
        "1410": 200,
        "1411": 152,
        "1412": 168,
        "1413": 60,
        "1414": 137,
        "1415": 40,
        "1416": 69,
        "1417": 82,
        "1418": 130,
        "1419": 225,
        "1420": 204,
        "1421": 49,
        "1422": 233,
        "1423": 103,
        "1424": 99,
        "1425": 112,
        "1426": 210,
        "1427": 29,
        "1428": 76,
        "1429": 90,
        "1430": 167,
        "1431": 4,
        "1432": 3,
        "1433": 146,
        "1434": 137,
        "1435": 115,
        "1436": 96,
        "1437": 83,
        "1438": 185,
        "1439": 109,
        "1440": 204,
        "1441": 155,
        "1442": 179,
        "1443": 96,
        "1444": 19,
        "1445": 98,
        "1446": 211,
        "1447": 238,
        "1448": 143,
        "1449": 164,
        "1450": 14,
        "1451": 152,
        "1452": 13,
        "1453": 102,
        "1454": 246,
        "1455": 18,
        "1456": 182,
        "1457": 95,
        "1458": 67,
        "1459": 245,
        "1460": 227,
        "1461": 169,
        "1462": 76,
        "1463": 153,
        "1464": 63,
        "1465": 133,
        "1466": 19,
        "1467": 250,
        "1468": 137,
        "1469": 159,
        "1470": 229,
        "1471": 156,
        "1472": 209,
        "1473": 155,
        "1474": 80,
        "1475": 63,
        "1476": 169,
        "1477": 179,
        "1478": 150,
        "1479": 111,
        "1480": 123,
        "1481": 95,
        "1482": 19,
        "1483": 122,
        "1484": 167,
        "1485": 171,
        "1486": 17,
        "1487": 226,
        "1488": 78,
        "1489": 221,
        "1490": 103,
        "1491": 14,
        "1492": 56,
        "1493": 135,
        "1494": 103,
        "1495": 244,
        "1496": 111,
        "1497": 97,
        "1498": 148,
        "1499": 14,
        "1500": 60,
        "1501": 206,
        "1502": 19,
        "1503": 251,
        "1504": 162,
        "1505": 46,
        "1506": 252,
        "1507": 61,
        "1508": 103,
        "1509": 202,
        "1510": 207,
        "1511": 226,
        "1512": 58,
        "1513": 100,
        "1514": 149,
        "1515": 246,
        "1516": 58,
        "1517": 183,
        "1518": 254,
        "1519": 76,
        "1520": 206,
        "1521": 35,
        "1522": 240,
        "1523": 215,
        "1524": 19,
        "1525": 88,
        "1526": 117,
        "1527": 203,
        "1528": 70,
        "1529": 14,
        "1530": 62,
        "1531": 207,
        "1532": 138,
        "1533": 236,
        "1534": 114,
        "1535": 100,
        "1536": 232,
        "1537": 152,
        "1538": 176,
        "1539": 146,
        "1540": 242,
        "1541": 60,
        "1542": 194,
        "1543": 176,
        "1544": 70,
        "1545": 191,
        "1546": 59,
        "1547": 239,
        "1548": 99,
        "1549": 249,
        "1550": 180,
        "1551": 83,
        "1552": 135,
        "1553": 59,
        "1554": 23,
        "1555": 132,
        "1556": 163,
        "1557": 193,
        "1558": 23,
        "1559": 123,
        "1560": 25,
        "1561": 111,
        "1562": 250,
        "1563": 106,
        "1564": 202,
        "1565": 166,
        "1566": 141,
        "1567": 252,
        "1568": 85,
        "1569": 145,
        "1570": 61,
        "1571": 74,
        "1572": 12,
        "1573": 251,
        "1574": 85,
        "1575": 250,
        "1576": 59,
        "1577": 230,
        "1578": 231,
        "1579": 120,
        "1580": 227,
        "1581": 38,
        "1582": 204,
        "1583": 53,
        "1584": 227,
        "1585": 118,
        "1586": 4,
        "1587": 132,
        "1588": 238,
        "1589": 7,
        "1590": 225,
        "1591": 184,
        "1592": 146,
        "1593": 50,
        "1594": 146,
        "1595": 102,
        "1596": 40,
        "1597": 4,
        "1598": 208,
        "1599": 11,
        "1600": 42,
        "1601": 181,
        "1602": 152,
        "1603": 212,
        "1604": 175,
        "1605": 135,
        "1606": 237,
        "1607": 156,
        "1608": 35,
        "1609": 226,
        "1610": 227,
        "1611": 9,
        "1612": 34,
        "1613": 9,
        "1614": 174,
        "1615": 132,
        "1616": 55,
        "1617": 122,
        "1618": 114,
        "1619": 84,
        "1620": 203,
        "1621": 165,
        "1622": 36,
        "1623": 52,
        "1624": 240,
        "1625": 213,
        "1626": 37,
        "1627": 221,
        "1628": 35,
        "1629": 183,
        "1630": 102,
        "1631": 146,
        "1632": 140,
        "1633": 114,
        "1634": 132,
        "1635": 43,
        "1636": 120,
        "1637": 96,
        "1638": 106,
        "1639": 90,
        "1640": 111,
        "1641": 58,
        "1642": 227,
        "1643": 239,
        "1644": 100,
        "1645": 69,
        "1646": 12,
        "1647": 72,
        "1648": 28,
        "1649": 141,
        "1650": 101,
        "1651": 80,
        "1652": 35,
        "1653": 9,
        "1654": 60,
        "1655": 92,
        "1656": 244,
        "1657": 36,
        "1658": 118,
        "1659": 8,
        "1660": 128,
        "1661": 37,
        "1662": 218,
        "1663": 247,
        "1664": 100,
        "1665": 168,
        "1666": 165,
        "1667": 10,
        "1668": 189,
        "1669": 115,
        "1670": 75,
        "1671": 165,
        "1672": 107,
        "1673": 132,
        "1674": 21,
        "1675": 77,
        "1676": 53,
        "1677": 37,
        "1678": 237,
        "1679": 93,
        "1680": 110,
        "1681": 43,
        "1682": 69,
        "1683": 7,
        "1684": 205,
        "1685": 30,
        "1686": 24,
        "1687": 223,
        "1688": 136,
        "1689": 236,
        "1690": 41,
        "1691": 37,
        "1692": 242,
        "1693": 210,
        "1694": 237,
        "1695": 45,
        "1696": 172,
        "1697": 125,
        "1698": 29,
        "1699": 250,
        "1700": 79,
        "1701": 197,
        "1702": 154,
        "1703": 230,
        "1704": 91,
        "1705": 118,
        "1706": 59,
        "1707": 196,
        "1708": 198,
        "1709": 74,
        "1710": 225,
        "1711": 16,
        "1712": 234,
        "1713": 66,
        "1714": 24,
        "1715": 70,
        "1716": 146,
        "1717": 226,
        "1718": 138,
        "1719": 4,
        "1720": 151,
        "1721": 225,
        "1722": 47,
        "1723": 157,
        "1724": 6,
        "1725": 47,
        "1726": 235,
        "1727": 66,
        "1728": 25,
        "1729": 227,
        "1730": 192,
        "1731": 157,
        "1732": 57,
        "1733": 206,
        "1734": 86,
        "1735": 66,
        "1736": 206,
        "1737": 42,
        "1738": 119,
        "1739": 115,
        "1740": 171,
        "1741": 137,
        "1742": 199,
        "1743": 233,
        "1744": 154,
        "1745": 200,
        "1746": 203,
        "1747": 112,
        "1748": 206,
        "1749": 202,
        "1750": 123,
        "1751": 142,
        "1752": 4,
        "1753": 57,
        "1754": 35,
        "1755": 1,
        "1756": 224,
        "1757": 194,
        "1758": 55,
        "1759": 211,
        "1760": 186,
        "1761": 84,
        "1762": 141,
        "1763": 229,
        "1764": 73,
        "1765": 44,
        "1766": 222,
        "1767": 220,
        "1768": 162,
        "1769": 78,
        "1770": 3,
        "1771": 110,
        "1772": 12,
        "1773": 6,
        "1774": 133,
        "1775": 208,
        "1776": 205,
        "1777": 180,
        "1778": 130,
        "1779": 129,
        "1780": 85,
        "1781": 183,
        "1782": 33,
        "1783": 147,
        "1784": 81,
        "1785": 240,
        "1786": 181,
        "1787": 16,
        "1788": 76,
        "1789": 75,
        "1790": 117,
        "1791": 102,
        "1792": 187,
        "1793": 62,
        "1794": 99,
        "1795": 188,
        "1796": 21,
        "1797": 194,
        "1798": 31,
        "1799": 189,
        "1800": 68,
        "1801": 191,
        "1802": 48,
        "1803": 192,
        "1804": 110,
        "1805": 8,
        "1806": 131,
        "1807": 174,
        "1808": 124,
        "1809": 61,
        "1810": 30,
        "1811": 191,
        "1812": 108,
        "1813": 246,
        "1814": 135,
        "1815": 228,
        "1816": 150,
        "1817": 153,
        "1818": 52,
        "1819": 244,
        "1820": 216,
        "1821": 205,
        "1822": 161,
        "1823": 227,
        "1824": 230,
        "1825": 181,
        "1826": 185,
        "1827": 197,
        "1828": 78,
        "1829": 115,
        "1830": 237,
        "1831": 68,
        "1832": 54,
        "1833": 137,
        "1834": 14,
        "1835": 50,
        "1836": 69,
        "1837": 146,
        "1838": 93,
        "1839": 57,
        "1840": 31,
        "1841": 61,
        "1842": 225,
        "1843": 225,
        "1844": 149,
        "1845": 62,
        "1846": 86,
        "1847": 105,
        "1848": 21,
        "1849": 165,
        "1850": 113,
        "1851": 144,
        "1852": 0,
        "1853": 153,
        "1854": 35,
        "1855": 166,
        "1856": 42,
        "1857": 98,
        "1858": 33,
        "1859": 91,
        "1860": 125,
        "1861": 6,
        "1862": 167,
        "1863": 218,
        "1864": 57,
        "1865": 127,
        "1866": 110,
        "1867": 18,
        "1868": 33,
        "1869": 232,
        "1870": 180,
        "1871": 97,
        "1872": 242,
        "1873": 53,
        "1874": 239,
        "1875": 133,
        "1876": 207,
        "1877": 119,
        "1878": 119,
        "1879": 126,
        "1880": 178,
        "1881": 90,
        "1882": 19,
        "1883": 59,
        "1884": 209,
        "1885": 118,
        "1886": 217,
        "1887": 4,
        "1888": 113,
        "1889": 178,
        "1890": 21,
        "1891": 185,
        "1892": 219,
        "1893": 174,
        "1894": 138,
        "1895": 112,
        "1896": 56,
        "1897": 173,
        "1898": 128,
        "1899": 172,
        "1900": 240,
        "1901": 3,
        "1902": 159,
        "1903": 70,
        "1904": 250,
        "1905": 14,
        "1906": 26,
        "1907": 159,
        "1908": 34,
        "1909": 123,
        "1910": 169,
        "1911": 24,
        "1912": 189,
        "1913": 173,
        "1914": 178,
        "1915": 139,
        "1916": 126,
        "1917": 127,
        "1918": 127,
        "1919": 40,
        "1920": 64,
        "1921": 200,
        "1922": 64,
        "1923": 203,
        "1924": 15,
        "1925": 64,
        "1926": 49,
        "1927": 141,
        "1928": 132,
        "1929": 103,
        "1930": 57,
        "1931": 172,
        "1932": 146,
        "1933": 7,
        "1934": 25,
        "1935": 4,
        "1936": 83,
        "1937": 159,
        "1938": 79,
        "1939": 94,
        "1940": 18,
        "1941": 225,
        "1942": 245,
        "1943": 239,
        "1944": 44,
        "1945": 166,
        "1946": 4,
        "1947": 159,
        "1948": 45,
        "1949": 16,
        "1950": 218,
        "1951": 193,
        "1952": 165,
        "1953": 106,
        "1954": 142,
        "1955": 1,
        "1956": 2,
        "1957": 43,
        "1958": 0,
        "1959": 110,
        "1960": 232,
        "1961": 18,
        "1962": 134,
        "1963": 54,
        "1964": 217,
        "1965": 71,
        "1966": 192,
        "1967": 203,
        "1968": 139,
        "1969": 171,
        "1970": 82,
        "1971": 58,
        "1972": 187,
        "1973": 42,
        "1974": 230,
        "1975": 198,
        "1976": 20,
        "1977": 123,
        "1978": 223,
        "1979": 80,
        "1980": 108,
        "1981": 156,
        "1982": 145,
        "1983": 132,
        "1984": 175,
        "1985": 222,
        "1986": 212,
        "1987": 239,
        "1988": 78,
        "1989": 214,
        "1990": 44,
        "1991": 138,
        "1992": 204,
        "1993": 68,
        "1994": 220,
        "1995": 224,
        "1996": 29,
        "1997": 173,
        "1998": 112,
        "1999": 77,
        "2000": 49,
        "2001": 34,
        "2002": 228,
        "2003": 228,
        "2004": 88,
        "2005": 26,
        "2006": 38,
        "2007": 135,
        "2008": 0,
        "2009": 84,
        "2010": 27,
        "2011": 22,
        "2012": 24,
        "2013": 196,
        "2014": 14,
        "2015": 254,
        "2016": 30,
        "2017": 110,
        "2018": 26,
        "2019": 71,
        "2020": 94,
        "2021": 242,
        "2022": 231,
        "2023": 6,
        "2024": 61,
        "2025": 123,
        "2026": 188,
        "2027": 46,
        "2028": 27,
        "2029": 122,
        "2030": 105,
        "2031": 51,
        "2032": 216,
        "2033": 52,
        "2034": 98,
        "2035": 66,
        "2036": 126,
        "2037": 30,
        "2038": 33,
        "2039": 90,
        "2040": 141,
        "2041": 37,
        "2042": 223,
        "2043": 140,
        "2044": 77,
        "2045": 23,
        "2046": 208,
        "2047": 55,
        "2048": 180,
        "2049": 94,
        "2050": 177,
        "2051": 145,
        "2052": 84,
        "2053": 79,
        "2054": 91,
        "2055": 70,
        "2056": 151,
        "2057": 18,
        "2058": 67,
        "2059": 200,
        "2060": 72,
        "2061": 95,
        "2062": 114,
        "2063": 180,
        "2064": 186,
        "2065": 46,
        "2066": 231,
        "2067": 201,
        "2068": 165,
        "2069": 136,
        "2070": 67,
        "2071": 203,
        "2072": 154,
        "2073": 134,
        "2074": 10,
        "2075": 76,
        "2076": 69,
        "2077": 49,
        "2078": 132,
        "2079": 31,
        "2080": 253,
        "2081": 33,
        "2082": 227,
        "2083": 58,
        "2084": 81,
        "2085": 172,
        "2086": 131,
        "2087": 93,
        "2088": 224,
        "2089": 56,
        "2090": 32,
        "2091": 39,
        "2092": 21,
        "2093": 229,
        "2094": 46,
        "2095": 0,
        "2096": 117,
        "2097": 153,
        "2098": 3,
        "2099": 225,
        "2100": 94,
        "2101": 11,
        "2102": 168,
        "2103": 184,
        "2104": 166,
        "2105": 196,
        "2106": 77,
        "2107": 104,
        "2108": 27,
        "2109": 118,
        "2110": 22,
        "2111": 45,
        "2112": 11,
        "2113": 159,
        "2114": 67,
        "2115": 15,
        "2116": 165,
        "2117": 184,
        "2118": 155,
        "2119": 187,
        "2120": 83,
        "2121": 179,
        "2122": 74,
        "2123": 146,
        "2124": 126,
        "2125": 178,
        "2126": 68,
        "2127": 106,
        "2128": 10,
        "2129": 240,
        "2130": 109,
        "2131": 96,
        "2132": 88,
        "2133": 217,
        "2134": 198,
        "2135": 169,
        "2136": 77,
        "2137": 25,
        "2138": 211,
        "2139": 52,
        "2140": 76,
        "2141": 173,
        "2142": 109,
        "2143": 101,
        "2144": 40,
        "2145": 27,
        "2146": 49,
        "2147": 20,
        "2148": 220,
        "2149": 10,
        "2150": 67,
        "2151": 252,
        "2152": 15,
        "2153": 79,
        "2154": 250,
        "2155": 62,
        "2156": 176,
        "2157": 33,
        "2158": 35,
        "2159": 151,
        "2160": 225,
        "2161": 180,
        "2162": 162,
        "2163": 21,
        "2164": 218,
        "2165": 179,
        "2166": 194,
        "2167": 38,
        "2168": 214,
        "2169": 120,
        "2170": 140,
        "2171": 245,
        "2172": 141,
        "2173": 24,
        "2174": 68,
        "2175": 63,
        "2176": 201,
        "2177": 139,
        "2178": 136,
        "2179": 255,
        "2180": 92,
        "2181": 204,
        "2182": 235,
        "2183": 97,
        "2184": 79,
        "2185": 3,
        "2186": 50,
        "2187": 223,
        "2188": 193,
        "2189": 229,
        "2190": 11,
        "2191": 213,
        "2192": 169,
        "2193": 60,
        "2194": 224,
        "2195": 140,
        "2196": 114,
        "2197": 251,
        "2198": 231,
        "2199": 54,
        "2200": 45,
        "2201": 10,
        "2202": 114,
        "2203": 50,
        "2204": 65,
        "2205": 238,
        "2206": 213,
        "2207": 96,
        "2208": 247,
        "2209": 232,
        "2210": 35,
        "2211": 231,
        "2212": 34,
        "2213": 218,
        "2214": 31,
        "2215": 148,
        "2216": 246,
        "2217": 210,
        "2218": 95,
        "2219": 175,
        "2220": 250,
        "2221": 20,
        "2222": 142,
        "2223": 49,
        "2224": 60,
        "2225": 249,
        "2226": 179,
        "2227": 181,
        "2228": 101,
        "2229": 21,
        "2230": 209,
        "2231": 217,
        "2232": 76,
        "2233": 181,
        "2234": 192,
        "2235": 135,
        "2236": 249,
        "2237": 147,
        "2238": 62,
        "2239": 220,
        "2240": 62,
        "2241": 90,
        "2242": 151,
        "2243": 49,
        "2244": 173,
        "2245": 209,
        "2246": 202,
        "2247": 202,
        "2248": 164,
        "2249": 186,
        "2250": 116,
        "2251": 57,
        "2252": 243,
        "2253": 178,
        "2254": 197,
        "2255": 2,
        "2256": 49,
        "2257": 30,
        "2258": 126,
        "2259": 170,
        "2260": 61,
        "2261": 29,
        "2262": 95,
        "2263": 160,
        "2264": 237,
        "2265": 165,
        "2266": 167,
        "2267": 106,
        "2268": 165,
        "2269": 42,
        "2270": 149,
        "2271": 159,
        "2272": 84,
        "2273": 103,
        "2274": 184,
        "2275": 176,
        "2276": 14,
        "2277": 86,
        "2278": 112,
        "2279": 94,
        "2280": 246,
        "2281": 69,
        "2282": 104,
        "2283": 29,
        "2284": 43,
        "2285": 196,
        "2286": 62,
        "2287": 186,
        "2288": 109,
        "2289": 196,
        "2290": 55,
        "2291": 41,
        "2292": 18,
        "2293": 1,
        "2294": 193,
        "2295": 235,
        "2296": 169,
        "2297": 30,
        "2298": 191,
        "2299": 164,
        "2300": 61,
        "2301": 188,
        "2302": 10,
        "2303": 226,
        "2304": 195,
        "2305": 154,
        "2306": 27,
        "2307": 108,
        "2308": 178,
        "2309": 163,
        "2310": 180,
        "2311": 113,
        "2312": 129,
        "2313": 164,
        "2314": 27,
        "2315": 124,
        "2316": 215,
        "2317": 203,
        "2318": 137,
        "2319": 231,
        "2320": 134,
        "2321": 171,
        "2322": 207,
        "2323": 162,
        "2324": 74,
        "2325": 195,
        "2326": 158,
        "2327": 169,
        "2328": 231,
        "2329": 20,
        "2330": 191,
        "2331": 234,
        "2332": 7,
        "2333": 239,
        "2334": 17,
        "2335": 159,
        "2336": 37,
        "2337": 17,
        "2338": 68,
        "2339": 224,
        "2340": 60,
        "2341": 92,
        "2342": 217,
        "2343": 57,
        "2344": 228,
        "2345": 59,
        "2346": 119,
        "2347": 48,
        "2348": 192,
        "2349": 166,
        "2350": 182,
        "2351": 220,
        "2352": 180,
        "2353": 102,
        "2354": 219,
        "2355": 20,
        "2356": 20,
        "2357": 26,
        "2358": 197,
        "2359": 10,
        "2360": 251,
        "2361": 150,
        "2362": 3,
        "2363": 232,
        "2364": 64,
        "2365": 179,
        "2366": 11,
        "2367": 154,
        "2368": 201,
        "2369": 215,
        "2370": 234,
        "2371": 73,
        "2372": 17,
        "2373": 23,
        "2374": 158,
        "2375": 121,
        "2376": 101,
        "2377": 163,
        "2378": 165,
        "2379": 126,
        "2380": 181,
        "2381": 212,
        "2382": 197,
        "2383": 198,
        "2384": 33,
        "2385": 40,
        "2386": 146,
        "2387": 21,
        "2388": 191,
        "2389": 125,
        "2390": 119,
        "2391": 159,
        "2392": 26,
        "2393": 127,
        "2394": 70,
        "2395": 78,
        "2396": 53,
        "2397": 245,
        "2398": 242,
        "2399": 200,
        "2400": 191,
        "2401": 196,
        "2402": 66,
        "2403": 40,
        "2404": 37,
        "2405": 2,
        "2406": 44,
        "2407": 165,
        "2408": 95,
        "2409": 216,
        "2410": 70,
        "2411": 114,
        "2412": 149,
        "2413": 79,
        "2414": 158,
        "2415": 238,
        "2416": 197,
        "2417": 206,
        "2418": 64,
        "2419": 117,
        "2420": 150,
        "2421": 191,
        "2422": 208,
        "2423": 40,
        "2424": 5,
        "2425": 82,
        "2426": 231,
        "2427": 88,
        "2428": 152,
        "2429": 82,
        "2430": 139,
        "2431": 197,
        "2432": 208,
        "2433": 128,
        "2434": 34,
        "2435": 192,
        "2436": 181,
        "2437": 76,
        "2438": 177,
        "2439": 37,
        "2440": 191,
        "2441": 248,
        "2442": 100,
        "2443": 241,
        "2444": 234,
        "2445": 39,
        "2446": 223,
        "2447": 52,
        "2448": 182,
        "2449": 185,
        "2450": 128,
        "2451": 219,
        "2452": 195,
        "2453": 101,
        "2454": 235,
        "2455": 191,
        "2456": 133,
        "2457": 82,
        "2458": 192,
        "2459": 186,
        "2460": 51,
        "2461": 130,
        "2462": 28,
        "2463": 109,
        "2464": 218,
        "2465": 199,
        "2466": 237,
        "2467": 198,
        "2468": 155,
        "2469": 218,
        "2470": 150,
        "2471": 144,
        "2472": 48,
        "2473": 0,
        "2474": 125,
        "2475": 119,
        "2476": 199,
        "2477": 155,
        "2478": 106,
        "2479": 41,
        "2480": 210,
        "2481": 69,
        "2482": 81,
        "2483": 37,
        "2484": 228,
        "2485": 152,
        "2486": 55,
        "2487": 101,
        "2488": 142,
        "2489": 129,
        "2490": 226,
        "2491": 131,
        "2492": 186,
        "2493": 123,
        "2494": 79,
        "2495": 234,
        "2496": 73,
        "2497": 221,
        "2498": 247,
        "2499": 218,
        "2500": 130,
        "2501": 90,
        "2502": 153,
        "2503": 65,
        "2504": 234,
        "2505": 98,
        "2506": 58,
        "2507": 89,
        "2508": 196,
        "2509": 131,
        "2510": 220,
        "2511": 227,
        "2512": 228,
        "2513": 72,
        "2514": 182,
        "2515": 22,
        "2516": 21,
        "2517": 176,
        "2518": 32,
        "2519": 152,
        "2520": 216,
        "2521": 162,
        "2522": 151,
        "2523": 38,
        "2524": 33,
        "2525": 244,
        "2526": 121,
        "2527": 249,
        "2528": 35,
        "2529": 30,
        "2530": 7,
        "2531": 182,
        "2532": 120,
        "2533": 103,
        "2534": 102,
        "2535": 163,
        "2536": 63,
        "2537": 149,
        "2538": 155,
        "2539": 230,
        "2540": 64,
        "2541": 44,
        "2542": 138,
        "2543": 37,
        "2544": 125,
        "2545": 212,
        "2546": 186,
        "2547": 25,
        "2548": 21,
        "2549": 235,
        "2550": 101,
        "2551": 44,
        "2552": 10,
        "2553": 88,
        "2554": 97,
        "2555": 242,
        "2556": 69,
        "2557": 19,
        "2558": 2,
        "2559": 232,
        "2560": 58,
        "2561": 48,
        "2562": 167,
        "2563": 40,
        "2564": 193,
        "2565": 184,
        "2566": 48,
        "2567": 248,
        "2568": 217,
        "2569": 228,
        "2570": 98,
        "2571": 228,
        "2572": 35,
        "2573": 37,
        "2574": 211,
        "2575": 184,
        "2576": 26,
        "2577": 53,
        "2578": 254,
        "2579": 115,
        "2580": 117,
        "2581": 195,
        "2582": 195,
        "2583": 18,
        "2584": 137,
        "2585": 147,
        "2586": 38,
        "2587": 243,
        "2588": 187,
        "2589": 91,
        "2590": 186,
        "2591": 71,
        "2592": 35,
        "2593": 19,
        "2594": 39,
        "2595": 27,
        "2596": 177,
        "2597": 193,
        "2598": 253,
        "2599": 146,
        "2600": 204,
        "2601": 49,
        "2602": 17,
        "2603": 40,
        "2604": 231,
        "2605": 16,
        "2606": 24,
        "2607": 124,
        "2608": 136,
        "2609": 172,
        "2610": 203,
        "2611": 202,
        "2612": 247,
        "2613": 151,
        "2614": 133,
        "2615": 2,
        "2616": 183,
        "2617": 162,
        "2618": 64,
        "2619": 81,
        "2620": 156,
        "2621": 228,
        "2622": 190,
        "2623": 133,
        "2624": 207,
        "2625": 19,
        "2626": 161,
        "2627": 148,
        "2628": 77,
        "2629": 74,
        "2630": 224,
        "2631": 160,
        "2632": 116,
        "2633": 57,
        "2634": 143,
        "2635": 226,
        "2636": 150,
        "2637": 243,
        "2638": 104,
        "2639": 114,
        "2640": 58,
        "2641": 181,
        "2642": 247,
        "2643": 140,
        "2644": 75,
        "2645": 77,
        "2646": 40,
        "2647": 179,
        "2648": 189,
        "2649": 140,
        "2650": 252,
        "2651": 57,
        "2652": 5,
        "2653": 12,
        "2654": 211,
        "2655": 233,
        "2656": 112,
        "2657": 35,
        "2658": 78,
        "2659": 250,
        "2660": 156,
        "2661": 160,
        "2662": 198,
        "2663": 224,
        "2664": 50,
        "2665": 130,
        "2666": 192,
        "2667": 47,
        "2668": 89,
        "2669": 70,
        "2670": 234,
        "2671": 193,
        "2672": 17,
        "2673": 194,
        "2674": 211,
        "2675": 236,
        "2676": 29,
        "2677": 65,
        "2678": 247,
        "2679": 107,
        "2680": 19,
        "2681": 30,
        "2682": 12,
        "2683": 155,
        "2684": 42,
        "2685": 140,
        "2686": 147,
        "2687": 112,
        "2688": 101,
        "2689": 124,
        "2690": 249,
        "2691": 194,
        "2692": 235,
        "2693": 92,
        "2694": 248,
        "2695": 218,
        "2696": 104,
        "2697": 31,
        "2698": 250,
        "2699": 150,
        "2700": 8,
        "2701": 182,
        "2702": 229,
        "2703": 216,
        "2704": 9,
        "2705": 69,
        "2706": 198,
        "2707": 224,
        "2708": 211,
        "2709": 28,
        "2710": 195,
        "2711": 47,
        "2712": 157,
        "2713": 6,
        "2714": 205,
        "2715": 169,
        "2716": 209,
        "2717": 153,
        "2718": 200,
        "2719": 140,
        "2720": 56,
        "2721": 199,
        "2722": 197,
        "2723": 223,
        "2724": 179,
        "2725": 181,
        "2726": 9,
        "2727": 48,
        "2728": 220,
        "2729": 135,
        "2730": 4,
        "2731": 36,
        "2732": 122,
        "2733": 129,
        "2734": 85,
        "2735": 172,
        "2736": 234,
        "2737": 205,
        "2738": 222,
        "2739": 192,
        "2740": 187,
        "2741": 157,
        "2742": 186,
        "2743": 240,
        "2744": 91,
        "2745": 5,
        "2746": 58,
        "2747": 70,
        "2748": 105,
        "2749": 122,
        "2750": 128,
        "2751": 90,
        "2752": 251,
        "2753": 17,
        "2754": 94,
        "2755": 128,
        "2756": 10,
        "2757": 226,
        "2758": 250,
        "2759": 196,
        "2760": 20,
        "2761": 95,
        "2762": 225,
        "2763": 178,
        "2764": 188,
        "2765": 79,
        "2766": 48,
        "2767": 68,
        "2768": 218,
        "2769": 121,
        "2770": 106,
        "2771": 120,
        "2772": 225,
        "2773": 193,
        "2774": 110,
        "2775": 251,
        "2776": 192,
        "2777": 253,
        "2778": 140,
        "2779": 165,
        "2780": 163,
        "2781": 226,
        "2782": 107,
        "2783": 132,
        "2784": 86,
        "2785": 216,
        "2786": 25,
        "2787": 129,
        "2788": 12,
        "2789": 222,
        "2790": 19,
        "2791": 57,
        "2792": 39,
        "2793": 210,
        "2794": 80,
        "2795": 166,
        "2796": 12,
        "2797": 197,
        "2798": 154,
        "2799": 8,
        "2800": 195,
        "2801": 96,
        "2802": 252,
        "2803": 47,
        "2804": 218,
        "2805": 2,
        "2806": 52,
        "2807": 170,
        "2808": 85,
        "2809": 133,
        "2810": 93,
        "2811": 6,
        "2812": 15,
        "2813": 104,
        "2814": 97,
        "2815": 29,
        "2816": 45,
        "2817": 228,
        "2818": 122,
        "2819": 189,
        "2820": 186,
        "2821": 91,
        "2822": 43,
        "2823": 128,
        "2824": 245,
        "2825": 55,
        "2826": 179,
        "2827": 149,
        "2828": 28,
        "2829": 60,
        "2830": 128,
        "2831": 126,
        "2832": 100,
        "2833": 177,
        "2834": 166,
        "2835": 124,
        "2836": 242,
        "2837": 4,
        "2838": 232,
        "2839": 213,
        "2840": 157,
        "2841": 233,
        "2842": 97,
        "2843": 63,
        "2844": 46,
        "2845": 9,
        "2846": 59,
        "2847": 205,
        "2848": 11,
        "2849": 67,
        "2850": 33,
        "2851": 98,
        "2852": 111,
        "2853": 65,
        "2854": 240,
        "2855": 173,
        "2856": 78,
        "2857": 241,
        "2858": 164,
        "2859": 192,
        "2860": 49,
        "2861": 111,
        "2862": 164,
        "2863": 154,
        "2864": 151,
        "2865": 114,
        "2866": 40,
        "2867": 180,
        "2868": 91,
        "2869": 94,
        "2870": 197,
        "2871": 107,
        "2872": 231,
        "2873": 229,
        "2874": 89,
        "2875": 13,
        "2876": 100,
        "2877": 137,
        "2878": 151,
        "2879": 63,
        "2880": 245,
        "2881": 121,
        "2882": 188,
        "2883": 67,
        "2884": 253,
        "2885": 137,
        "2886": 197,
        "2887": 119,
        "2888": 66,
        "2889": 7,
        "2890": 90,
        "2891": 105,
        "2892": 3,
        "2893": 34,
        "2894": 148,
        "2895": 98,
        "2896": 71,
        "2897": 112,
        "2898": 239,
        "2899": 182,
        "2900": 31,
        "2901": 85,
        "2902": 92,
        "2903": 77,
        "2904": 219,
        "2905": 220,
        "2906": 27,
        "2907": 23,
        "2908": 145,
        "2909": 111,
        "2910": 99,
        "2911": 106,
        "2912": 81,
        "2913": 125,
        "2914": 162,
        "2915": 193,
        "2916": 122,
        "2917": 230,
        "2918": 100,
        "2919": 52,
        "2920": 137,
        "2921": 54,
        "2922": 6,
        "2923": 0,
        "2924": 137,
        "2925": 217,
        "2926": 54,
        "2927": 246,
        "2928": 29,
        "2929": 240,
        "2930": 129,
        "2931": 249,
        "2932": 31,
        "2933": 233,
        "2934": 28,
        "2935": 131,
        "2936": 44,
        "2937": 220,
        "2938": 149,
        "2939": 109,
        "2940": 2,
        "2941": 81,
        "2942": 154,
        "2943": 30,
        "2944": 129,
        "2945": 36,
        "2946": 38,
        "2947": 1,
        "2948": 237,
        "2949": 200,
        "2950": 32,
        "2951": 147,
        "2952": 218,
        "2953": 188,
        "2954": 54,
        "2955": 153,
        "2956": 78,
        "2957": 251,
        "2958": 50,
        "2959": 83,
        "2960": 157,
        "2961": 54,
        "2962": 117,
        "2963": 198,
        "2964": 244,
        "2965": 112,
        "2966": 181,
        "2967": 24,
        "2968": 78,
        "2969": 154,
        "2970": 197,
        "2971": 51,
        "2972": 83,
        "2973": 82,
        "2974": 89,
        "2975": 150,
        "2976": 138,
        "2977": 94,
        "2978": 162,
        "2979": 57,
        "2980": 201,
        "2981": 57,
        "2982": 9,
        "2983": 99,
        "2984": 23,
        "2985": 206,
        "2986": 218,
        "2987": 122,
        "2988": 250,
        "2989": 55,
        "2990": 83,
        "2991": 218,
        "2992": 26,
        "2993": 227,
        "2994": 32,
        "2995": 52,
        "2996": 18,
        "2997": 84,
        "2998": 57,
        "2999": 200,
        "3000": 213,
        "3001": 10,
        "3002": 62,
        "3003": 16,
        "3004": 25,
        "3005": 36,
        "3006": 185,
        "3007": 236,
        "3008": 222,
        "3009": 141,
        "3010": 105,
        "3011": 42,
        "3012": 172,
        "3013": 228,
        "3014": 157,
        "3015": 217,
        "3016": 73,
        "3017": 142,
        "3018": 243,
        "3019": 27,
        "3020": 49,
        "3021": 228,
        "3022": 148,
        "3023": 67,
        "3024": 148,
        "3025": 178,
        "3026": 80,
        "3027": 129,
        "3028": 132,
        "3029": 143,
        "3030": 74,
        "3031": 152,
        "3032": 254,
        "3033": 202,
        "3034": 178,
        "3035": 192,
        "3036": 218,
        "3037": 57,
        "3038": 92,
        "3039": 135,
        "3040": 185,
        "3041": 227,
        "3042": 110,
        "3043": 85,
        "3044": 200,
        "3045": 192,
        "3046": 38,
        "3047": 122,
        "3048": 121,
        "3049": 24,
        "3050": 104,
        "3051": 11,
        "3052": 199,
        "3053": 49,
        "3054": 53,
        "3055": 150,
        "3056": 88,
        "3057": 89,
        "3058": 85,
        "3059": 168,
        "3060": 213,
        "3061": 143,
        "3062": 171,
        "3063": 166,
        "3064": 59,
        "3065": 221,
        "3066": 59,
        "3067": 55,
        "3068": 145,
        "3069": 187,
        "3070": 1,
        "3071": 194,
        "3072": 180,
        "3073": 93,
        "3074": 146,
        "3075": 226,
        "3076": 224,
        "3077": 147,
        "3078": 180,
        "3079": 171,
        "3080": 8,
        "3081": 102,
        "3082": 72,
        "3083": 52,
        "3084": 68,
        "3085": 244,
        "3086": 54,
        "3087": 15,
        "3088": 208,
        "3089": 95,
        "3090": 123,
        "3091": 181,
        "3092": 87,
        "3093": 157,
        "3094": 195,
        "3095": 253,
        "3096": 13,
        "3097": 254,
        "3098": 233,
        "3099": 109,
        "3100": 233,
        "3101": 160,
        "3102": 207,
        "3103": 143,
        "3104": 222,
        "3105": 161,
        "3106": 125,
        "3107": 77,
        "3108": 161,
        "3109": 184,
        "3110": 89,
        "3111": 24,
        "3112": 113,
        "3113": 50,
        "3114": 182,
        "3115": 75,
        "3116": 185,
        "3117": 174,
        "3118": 120,
        "3119": 243,
        "3120": 135,
        "3121": 145,
        "3122": 246,
        "3123": 237,
        "3124": 51,
        "3125": 207,
        "3126": 108,
        "3127": 18,
        "3128": 241,
        "3129": 224,
        "3130": 12,
        "3131": 26,
        "3132": 162,
        "3133": 183,
        "3134": 11,
        "3135": 145,
        "3136": 125,
        "3137": 133,
        "3138": 125,
        "3139": 160,
        "3140": 10,
        "3141": 55,
        "3142": 184,
        "3143": 144,
        "3144": 123,
        "3145": 21,
        "3146": 233,
        "3147": 17,
        "3148": 164,
        "3149": 9,
        "3150": 208,
        "3151": 147,
        "3152": 157,
        "3153": 251,
        "3154": 139,
        "3155": 120,
        "3156": 84,
        "3157": 29,
        "3158": 130,
        "3159": 142,
        "3160": 122,
        "3161": 167,
        "3162": 251,
        "3163": 195,
        "3164": 123,
        "3165": 62,
        "3166": 141,
        "3167": 222,
        "3168": 187,
        "3169": 66,
        "3170": 188,
        "3171": 193,
        "3172": 123,
        "3173": 133,
        "3174": 230,
        "3175": 74,
        "3176": 28,
        "3177": 205,
        "3178": 155,
        "3179": 139,
        "3180": 217,
        "3181": 117,
        "3182": 165,
        "3183": 82,
        "3184": 206,
        "3185": 121,
        "3186": 154,
        "3187": 16,
        "3188": 149,
        "3189": 139,
        "3190": 169,
        "3191": 128,
        "3192": 18,
        "3193": 187,
        "3194": 173,
        "3195": 51,
        "3196": 189,
        "3197": 8,
        "3198": 127,
        "3199": 170,
        "3200": 13,
        "3201": 96,
        "3202": 74,
        "3203": 130,
        "3204": 168,
        "3205": 34,
        "3206": 162,
        "3207": 137,
        "3208": 207,
        "3209": 135,
        "3210": 143,
        "3211": 200,
        "3212": 65,
        "3213": 54,
        "3214": 185,
        "3215": 58,
        "3216": 32,
        "3217": 58,
        "3218": 121,
        "3219": 105,
        "3220": 188,
        "3221": 197,
        "3222": 115,
        "3223": 249,
        "3224": 200,
        "3225": 140,
        "3226": 211,
        "3227": 16,
        "3228": 82,
        "3229": 69,
        "3230": 44,
        "3231": 94,
        "3232": 133,
        "3233": 224,
        "3234": 76,
        "3235": 2,
        "3236": 40,
        "3237": 201,
        "3238": 137,
        "3239": 198,
        "3240": 62,
        "3241": 222,
        "3242": 227,
        "3243": 25,
        "3244": 126,
        "3245": 56,
        "3246": 92,
        "3247": 42,
        "3248": 10,
        "3249": 154,
        "3250": 12,
        "3251": 95,
        "3252": 28,
        "3253": 66,
        "3254": 200,
        "3255": 237,
        "3256": 61,
        "3257": 89,
        "3258": 72,
        "3259": 190,
        "3260": 18,
        "3261": 177,
        "3262": 211,
        "3263": 36,
        "3264": 249,
        "3265": 53,
        "3266": 12,
        "3267": 183,
        "3268": 50,
        "3269": 31,
        "3270": 79,
        "3271": 185,
        "3272": 236,
        "3273": 205,
        "3274": 60,
        "3275": 7,
        "3276": 21,
        "3277": 141,
        "3278": 32,
        "3279": 96,
        "3280": 6,
        "3281": 123,
        "3282": 224,
        "3283": 79,
        "3284": 162,
        "3285": 141,
        "3286": 97,
        "3287": 2,
        "3288": 124,
        "3289": 130,
        "3290": 63,
        "3291": 246,
        "3292": 158,
        "3293": 29,
        "3294": 36,
        "3295": 95,
        "3296": 125,
        "3297": 41,
        "3298": 170,
        "3299": 197,
        "3300": 188,
        "3301": 77,
        "3302": 211,
        "3303": 46,
        "3304": 180,
        "3305": 250,
        "3306": 79,
        "3307": 43,
        "3308": 135,
        "3309": 61,
        "3310": 76,
        "3311": 87,
        "3312": 86,
        "3313": 241,
        "3314": 154,
        "3315": 87,
        "3316": 138,
        "3317": 144,
        "3318": 184,
        "3319": 93,
        "3320": 198,
        "3321": 128,
        "3322": 209,
        "3323": 50,
        "3324": 198,
        "3325": 194,
        "3326": 213,
        "3327": 126,
        "3328": 108,
        "3329": 27,
        "3330": 12,
        "3331": 198,
        "3332": 13,
        "3333": 71,
        "3334": 20,
        "3335": 170,
        "3336": 23,
        "3337": 222,
        "3338": 228,
        "3339": 239,
        "3340": 20,
        "3341": 95,
        "3342": 122,
        "3343": 177,
        "3344": 182,
        "3345": 69,
        "3346": 116,
        "3347": 227,
        "3348": 60,
        "3349": 133,
        "3350": 57,
        "3351": 146,
        "3352": 36,
        "3353": 87,
        "3354": 141,
        "3355": 115,
        "3356": 195,
        "3357": 244,
        "3358": 168,
        "3359": 176,
        "3360": 36,
        "3361": 147,
        "3362": 166,
        "3363": 23,
        "3364": 110,
        "3365": 154,
        "3366": 114,
        "3367": 93,
        "3368": 206,
        "3369": 231,
        "3370": 58,
        "3371": 114,
        "3372": 69,
        "3373": 146,
        "3374": 74,
        "3375": 218,
        "3376": 27,
        "3377": 136,
        "3378": 107,
        "3379": 246,
        "3380": 56,
        "3381": 150,
        "3382": 243,
        "3383": 126,
        "3384": 39,
        "3385": 198,
        "3386": 106,
        "3387": 189,
        "3388": 73,
        "3389": 60,
        "3390": 24,
        "3391": 44,
        "3392": 227,
        "3393": 215,
        "3394": 151,
        "3395": 104,
        "3396": 208,
        "3397": 51,
        "3398": 216,
        "3399": 123,
        "3400": 187,
        "3401": 184,
        "3402": 65,
        "3403": 4,
        "3404": 235,
        "3405": 116,
        "3406": 215,
        "3407": 192,
        "3408": 34,
        "3409": 71,
        "3410": 44,
        "3411": 11,
        "3412": 14,
        "3413": 243,
        "3414": 10,
        "3415": 32,
        "3416": 86,
        "3417": 126,
        "3418": 60,
        "3419": 53,
        "3420": 90,
        "3421": 220,
        "3422": 110,
        "3423": 244,
        "3424": 237,
        "3425": 170,
        "3426": 90,
        "3427": 94,
        "3428": 165,
        "3429": 199,
        "3430": 100,
        "3431": 145,
        "3432": 155,
        "3433": 45,
        "3434": 188,
        "3435": 231,
        "3436": 192,
        "3437": 199,
        "3438": 160,
        "3439": 185,
        "3440": 45,
        "3441": 24,
        "3442": 191,
        "3443": 16,
        "3444": 53,
        "3445": 148,
        "3446": 231,
        "3447": 181,
        "3448": 73,
        "3449": 155,
        "3450": 104,
        "3451": 13,
        "3452": 11,
        "3453": 88,
        "3454": 124,
        "3455": 221,
        "3456": 247,
        "3457": 205,
        "3458": 112,
        "3459": 180,
        "3460": 17,
        "3461": 41,
        "3462": 85,
        "3463": 160,
        "3464": 1,
        "3465": 145,
        "3466": 190,
        "3467": 97,
        "3468": 17,
        "3469": 32,
        "3470": 215,
        "3471": 67,
        "3472": 171,
        "3473": 35,
        "3474": 5,
        "3475": 169,
        "3476": 162,
        "3477": 139,
        "3478": 91,
        "3479": 102,
        "3480": 211,
        "3481": 136,
        "3482": 198,
        "3483": 77,
        "3484": 140,
        "3485": 42,
        "3486": 36,
        "3487": 205,
        "3488": 43,
        "3489": 120,
        "3490": 42,
        "3491": 153,
        "3492": 191,
        "3493": 205,
        "3494": 179,
        "3495": 186,
        "3496": 105,
        "3497": 254,
        "3498": 223,
        "3499": 244,
        "3500": 250,
        "3501": 46,
        "3502": 100,
        "3503": 170,
        "3504": 129,
        "3505": 147,
        "3506": 189,
        "3507": 149,
        "3508": 181,
        "3509": 225,
        "3510": 228,
        "3511": 69,
        "3512": 80,
        "3513": 65,
        "3514": 123,
        "3515": 69,
        "3516": 220,
        "3517": 170,
        "3518": 254,
        "3519": 75,
        "3520": 175,
        "3521": 150,
        "3522": 174,
        "3523": 25,
        "3524": 35,
        "3525": 4,
        "3526": 20,
        "3527": 247,
        "3528": 108,
        "3529": 74,
        "3530": 232,
        "3531": 233,
        "3532": 53,
        "3533": 143,
        "3534": 214,
        "3535": 108,
        "3536": 238,
        "3537": 249,
        "3538": 119,
        "3539": 56,
        "3540": 69,
        "3541": 94,
        "3542": 99,
        "3543": 222,
        "3544": 32,
        "3545": 54,
        "3546": 209,
        "3547": 163,
        "3548": 123,
        "3549": 137,
        "3550": 97,
        "3551": 129,
        "3552": 110,
        "3553": 64,
        "3554": 56,
        "3555": 16,
        "3556": 2,
        "3557": 44,
        "3558": 91,
        "3559": 140,
        "3560": 60,
        "3561": 108,
        "3562": 184,
        "3563": 158,
        "3564": 78,
        "3565": 206,
        "3566": 217,
        "3567": 242,
        "3568": 95,
        "3569": 235,
        "3570": 42,
        "3571": 255,
        "3572": 40,
        "3573": 78,
        "3574": 91,
        "3575": 254,
        "3576": 136,
        "3577": 209,
        "3578": 45,
        "3579": 194,
        "3580": 235,
        "3581": 210,
        "3582": 197,
        "3583": 20,
        "3584": 183,
        "3585": 213,
        "3586": 178,
        "3587": 163,
        "3588": 175,
        "3589": 239,
        "3590": 18,
        "3591": 119,
        "3592": 71,
        "3593": 228,
        "3594": 129,
        "3595": 20,
        "3596": 199,
        "3597": 174,
        "3598": 54,
        "3599": 175,
        "3600": 147,
        "3601": 126,
        "3602": 117,
        "3603": 170,
        "3604": 238,
        "3605": 121,
        "3606": 128,
        "3607": 250,
        "3608": 237,
        "3609": 89,
        "3610": 230,
        "3611": 116,
        "3612": 188,
        "3613": 169,
        "3614": 7,
        "3615": 31,
        "3616": 57,
        "3617": 215,
        "3618": 239,
        "3619": 209,
        "3620": 2,
        "3621": 101,
        "3622": 219,
        "3623": 243,
        "3624": 63,
        "3625": 152,
        "3626": 117,
        "3627": 209,
        "3628": 2,
        "3629": 212,
        "3630": 220,
        "3631": 19,
        "3632": 10,
        "3633": 249,
        "3634": 13,
        "3635": 178,
        "3636": 62,
        "3637": 229,
        "3638": 192,
        "3639": 188,
        "3640": 22,
        "3641": 83,
        "3642": 144,
        "3643": 102,
        "3644": 72,
        "3645": 175,
        "3646": 159,
        "3647": 107,
        "3648": 179,
        "3649": 95,
        "3650": 251,
        "3651": 195,
        "3652": 139,
        "3653": 130,
        "3654": 55,
        "3655": 130,
        "3656": 189,
        "3657": 25,
        "3658": 98,
        "3659": 38,
        "3660": 211,
        "3661": 8,
        "3662": 125,
        "3663": 244,
        "3664": 158,
        "3665": 61,
        "3666": 125,
        "3667": 35,
        "3668": 105,
        "3669": 121,
        "3670": 31,
        "3671": 149,
        "3672": 122,
        "3673": 62,
        "3674": 190,
        "3675": 7,
        "3676": 218,
        "3677": 0,
        "3678": 131,
        "3679": 58,
        "3680": 92,
        "3681": 141,
        "3682": 73,
        "3683": 170,
        "3684": 250,
        "3685": 77,
        "3686": 26,
        "3687": 141,
        "3688": 126,
        "3689": 173,
        "3690": 143,
        "3691": 216,
        "3692": 27,
        "3693": 46,
        "3694": 142,
        "3695": 202,
        "3696": 74,
        "3697": 80,
        "3698": 19,
        "3699": 84,
        "3700": 33,
        "3701": 216,
        "3702": 197,
        "3703": 1,
        "3704": 156,
        "3705": 219,
        "3706": 241,
        "3707": 244,
        "3708": 24,
        "3709": 202,
        "3710": 4,
        "3711": 124,
        "3712": 200,
        "3713": 195,
        "3714": 121,
        "3715": 161,
        "3716": 101,
        "3717": 101,
        "3718": 8,
        "3719": 59,
        "3720": 13,
        "3721": 0,
        "3722": 122,
        "3723": 148,
        "3724": 184,
        "3725": 204,
        "3726": 71,
        "3727": 7,
        "3728": 176,
        "3729": 71,
        "3730": 129,
        "3731": 58,
        "3732": 182,
        "3733": 60,
        "3734": 237,
        "3735": 127,
        "3736": 133,
        "3737": 225,
        "3738": 141,
        "3739": 39,
        "3740": 23,
        "3741": 147,
        "3742": 99,
        "3743": 200,
        "3744": 14,
        "3745": 221,
        "3746": 25,
        "3747": 11,
        "3748": 113,
        "3749": 159,
        "3750": 85,
        "3751": 214,
        "3752": 201,
        "3753": 68,
        "3754": 140,
        "3755": 193,
        "3756": 84,
        "3757": 129,
        "3758": 38,
        "3759": 106,
        "3760": 103,
        "3761": 49,
        "3762": 228,
        "3763": 158,
        "3764": 12,
        "3765": 93,
        "3766": 160,
        "3767": 177,
        "3768": 82,
        "3769": 110,
        "3770": 163,
        "3771": 41,
        "3772": 86,
        "3773": 38,
        "3774": 31,
        "3775": 61,
        "3776": 122,
        "3777": 147,
        "3778": 213,
        "3779": 83,
        "3780": 206,
        "3781": 102,
        "3782": 11,
        "3783": 134,
        "3784": 215,
        "3785": 131,
        "3786": 178,
        "3787": 146,
        "3788": 92,
        "3789": 118,
        "3790": 25,
        "3791": 7,
        "3792": 237,
        "3793": 2,
        "3794": 168,
        "3795": 39,
        "3796": 91,
        "3797": 111,
        "3798": 173,
        "3799": 72,
        "3800": 161,
        "3801": 130,
        "3802": 57,
        "3803": 237,
        "3804": 249,
        "3805": 111,
        "3806": 170,
        "3807": 234,
        "3808": 128,
        "3809": 90,
        "3810": 67,
        "3811": 123,
        "3812": 102,
        "3813": 54,
        "3814": 41,
        "3815": 226,
        "3816": 103,
        "3817": 232,
        "3818": 20,
        "3819": 229,
        "3820": 244,
        "3821": 47,
        "3822": 198,
        "3823": 196,
        "3824": 46,
        "3825": 195,
        "3826": 31,
        "3827": 114,
        "3828": 22,
        "3829": 75,
        "3830": 36,
        "3831": 157,
        "3832": 114,
        "3833": 188,
        "3834": 95,
        "3835": 220,
        "3836": 96,
        "3837": 255,
        "3838": 252,
        "3839": 229,
        "3840": 6,
        "3841": 190,
        "3842": 110,
        "3843": 117,
        "3844": 227,
        "3845": 139,
        "3846": 34,
        "3847": 151,
        "3848": 147,
        "3849": 142,
        "3850": 154,
        "3851": 64,
        "3852": 219,
        "3853": 252,
        "3854": 145,
        "3855": 185,
        "3856": 4,
        "3857": 99,
        "3858": 92,
        "3859": 154,
        "3860": 155,
        "3861": 17,
        "3862": 203,
        "3863": 235,
        "3864": 13,
        "3865": 150,
        "3866": 12,
        "3867": 165,
        "3868": 218,
        "3869": 220,
        "3870": 136,
        "3871": 182,
        "3872": 80,
        "3873": 90,
        "3874": 250,
        "3875": 206,
        "3876": 243,
        "3877": 207,
        "3878": 163,
        "3879": 107,
        "3880": 109,
        "3881": 3,
        "3882": 194,
        "3883": 114,
        "3884": 177,
        "3885": 32,
        "3886": 8,
        "3887": 7,
        "3888": 132,
        "3889": 27,
        "3890": 71,
        "3891": 50,
        "3892": 241,
        "3893": 109,
        "3894": 236,
        "3895": 138,
        "3896": 229,
        "3897": 72,
        "3898": 218,
        "3899": 197,
        "3900": 21,
        "3901": 157,
        "3902": 45,
        "3903": 114,
        "3904": 33,
        "3905": 91,
        "3906": 240,
        "3907": 132,
        "3908": 76,
        "3909": 242,
        "3910": 238,
        "3911": 114,
        "3912": 69,
        "3913": 144,
        "3914": 211,
        "3915": 39,
        "3916": 221,
        "3917": 168,
        "3918": 44,
        "3919": 125,
        "3920": 248,
        "3921": 170,
        "3922": 161,
        "3923": 220,
        "3924": 137,
        "3925": 141,
        "3926": 2,
        "3927": 227,
        "3928": 0,
        "3929": 54,
        "3930": 90,
        "3931": 210,
        "3932": 41,
        "3933": 5,
        "3934": 9,
        "3935": 99,
        "3936": 200,
        "3937": 254,
        "3938": 144,
        "3939": 20,
        "3940": 61,
        "3941": 106,
        "3942": 218,
        "3943": 109,
        "3944": 50,
        "3945": 207,
        "3946": 239,
        "3947": 162,
        "3948": 107,
        "3949": 185,
        "3950": 52,
        "3951": 224,
        "3952": 38,
        "3953": 215,
        "3954": 132,
        "3955": 115,
        "3956": 38,
        "3957": 233,
        "3958": 75,
        "3959": 238,
        "3960": 174,
        "3961": 209,
        "3962": 163,
        "3963": 84,
        "3964": 50,
        "3965": 21,
        "3966": 93,
        "3967": 61,
        "3968": 80,
        "3969": 89,
        "3970": 78,
        "3971": 86,
        "3972": 106,
        "3973": 98,
        "3974": 106,
        "3975": 36,
        "3976": 6,
        "3977": 53,
        "3978": 143,
        "3979": 180,
        "3980": 231,
        "3981": 204,
        "3982": 125,
        "3983": 57,
        "3984": 248,
        "3985": 179,
        "3986": 246,
        "3987": 181,
        "3988": 161,
        "3989": 49,
        "3990": 69,
        "3991": 188,
        "3992": 2,
        "3993": 67,
        "3994": 87,
        "3995": 181,
        "3996": 189,
        "3997": 67,
        "3998": 44,
        "3999": 26,
        "4000": 120,
        "4001": 52,
        "4002": 191,
        "4003": 197,
        "4004": 255,
        "4005": 210,
        "4006": 71,
        "4007": 102,
        "4008": 70,
        "4009": 80,
        "4010": 63,
        "4011": 175,
        "4012": 117,
        "4013": 71,
        "4014": 217,
        "4015": 244,
        "4016": 102,
        "4017": 7,
        "4018": 80,
        "4019": 186,
        "4020": 91,
        "4021": 154,
        "4022": 232,
        "4023": 20,
        "4024": 74,
        "4025": 41,
        "4026": 33,
        "4027": 239,
        "4028": 167,
        "4029": 123,
        "4030": 130,
        "4031": 51,
        "4032": 68,
        "4033": 23,
        "4034": 206,
        "4035": 89,
        "4036": 234,
        "4037": 94,
        "4038": 206,
        "4039": 108,
        "4040": 71,
        "4041": 78,
        "4042": 97,
        "4043": 221,
        "4044": 115,
        "4045": 214,
        "4046": 89,
        "4047": 155,
        "4048": 11,
        "4049": 173,
        "4050": 86,
        "4051": 215,
        "4052": 137,
        "4053": 107,
        "4054": 119,
        "4055": 245,
        "4056": 155,
        "4057": 222,
        "4058": 238,
        "4059": 132,
        "4060": 141,
        "4061": 227,
        "4062": 65,
        "4063": 91,
        "4064": 158,
        "4065": 176,
        "4066": 117,
        "4067": 89,
        "4068": 29,
        "4069": 41,
        "4070": 104,
        "4071": 139,
        "4072": 232,
        "4073": 227,
        "4074": 159,
        "4075": 75,
        "4076": 82,
        "4077": 252,
        "4078": 186,
        "4079": 198,
        "4080": 69,
        "4081": 244,
        "4082": 146,
        "4083": 45,
        "4084": 160,
        "4085": 146,
        "4086": 64,
        "4087": 180,
        "4088": 118,
        "4089": 23,
        "4090": 121,
        "4091": 62,
        "4092": 143,
        "4093": 224,
        "4094": 247,
        "4095": 206,
        "4096": 30,
        "4097": 190,
        "4098": 122,
        "4099": 102,
        "4100": 194,
        "4101": 15,
        "4102": 74,
        "4103": 188,
        "4104": 165,
        "4105": 145,
        "4106": 10,
        "4107": 233,
        "4108": 2,
        "4109": 51,
        "4110": 217,
        "4111": 243,
        "4112": 243,
        "4113": 160,
        "4114": 71,
        "4115": 18,
        "4116": 17,
        "4117": 152,
        "4118": 208,
        "4119": 34,
        "4120": 100,
        "4121": 74,
        "4122": 205,
        "4123": 60,
        "4124": 158,
        "4125": 26,
        "4126": 127,
        "4127": 254,
        "4128": 29,
        "4129": 213,
        "4130": 211,
        "4131": 79,
        "4132": 167,
        "4133": 112,
        "4134": 152,
        "4135": 21,
        "4136": 93,
        "4137": 134,
        "4138": 113,
        "4139": 48,
        "4140": 167,
        "4141": 71,
        "4142": 6,
        "4143": 68,
        "4144": 175,
        "4145": 209,
        "4146": 35,
        "4147": 246,
        "4148": 159,
        "4149": 43,
        "4150": 68,
        "4151": 5,
        "4152": 185,
        "4153": 212,
        "4154": 165,
        "4155": 180,
        "4156": 79,
        "4157": 133,
        "4158": 0,
        "4159": 230,
        "4160": 58,
        "4161": 134,
        "4162": 7,
        "4163": 188,
        "4164": 230,
        "4165": 80,
        "4166": 16,
        "4167": 2,
        "4168": 88,
        "4169": 121,
        "4170": 221,
        "4171": 47,
        "4172": 193,
        "4173": 175,
        "4174": 145,
        "4175": 8,
        "4176": 187,
        "4177": 171,
        "4178": 95,
        "4179": 10,
        "4180": 32,
        "4181": 193,
        "4182": 102,
        "4183": 72,
        "4184": 206,
        "4185": 226,
        "4186": 161,
        "4187": 197,
        "4188": 99,
        "4189": 224,
        "4190": 243,
        "4191": 210,
        "4192": 120,
        "4193": 236,
        "4194": 124,
        "4195": 197,
        "4196": 226,
        "4197": 139,
        "4198": 45,
        "4199": 163,
        "4200": 65,
        "4201": 175,
        "4202": 225,
        "4203": 16,
        "4204": 92,
        "4205": 175,
        "4206": 12,
        "4207": 211,
        "4208": 35,
        "4209": 50,
        "4210": 76,
        "4211": 158,
        "4212": 178,
        "4213": 56,
        "4214": 226,
        "4215": 178,
        "4216": 185,
        "4217": 81,
        "4218": 25,
        "4219": 167,
        "4220": 24,
        "4221": 42,
        "4222": 231,
        "4223": 104,
        "4224": 245,
        "4225": 87,
        "4226": 63,
        "4227": 207,
        "4228": 121,
        "4229": 52,
        "4230": 52,
        "4231": 182,
        "4232": 255,
        "4233": 34,
        "4234": 5,
        "4235": 35,
        "4236": 67,
        "4237": 65,
        "4238": 90,
        "4239": 204,
        "4240": 67,
        "4241": 208,
        "4242": 64,
        "4243": 236,
        "4244": 136,
        "4245": 28,
        "4246": 70,
        "4247": 169,
        "4248": 230,
        "4249": 211,
        "4250": 165,
        "4251": 223,
        "4252": 159,
        "4253": 145,
        "4254": 87,
        "4255": 241,
        "4256": 1,
        "4257": 201,
        "4258": 12,
        "4259": 108,
        "4260": 207,
        "4261": 20,
        "4262": 219,
        "4263": 233,
        "4264": 250,
        "4265": 154,
        "4266": 59,
        "4267": 85,
        "4268": 105,
        "4269": 177,
        "4270": 73,
        "4271": 49,
        "4272": 229,
        "4273": 93,
        "4274": 146,
        "4275": 61,
        "4276": 177,
        "4277": 198,
        "4278": 15,
        "4279": 43,
        "4280": 148,
        "4281": 59,
        "4282": 223,
        "4283": 81,
        "4284": 236,
        "4285": 24,
        "4286": 73,
        "4287": 218,
        "4288": 112,
        "4289": 31,
        "4290": 154,
        "4291": 61,
        "4292": 244,
        "4293": 1,
        "4294": 53,
        "4295": 219,
        "4296": 55,
        "4297": 173,
        "4298": 79,
        "4299": 174,
        "4300": 91,
        "4301": 52,
        "4302": 67,
        "4303": 83,
        "4304": 16,
        "4305": 66,
        "4306": 114,
        "4307": 86,
        "4308": 243,
        "4309": 85,
        "4310": 188,
        "4311": 115,
        "4312": 225,
        "4313": 100,
        "4314": 254,
        "4315": 95,
        "4316": 148,
        "4317": 122,
        "4318": 193,
        "4319": 34,
        "4320": 133,
        "4321": 243,
        "4322": 147,
        "4323": 86,
        "4324": 21,
        "4325": 230,
        "4326": 240,
        "4327": 226,
        "4328": 82,
        "4329": 250,
        "4330": 29,
        "4331": 106,
        "4332": 243,
        "4333": 181,
        "4334": 64,
        "4335": 117,
        "4336": 148,
        "4337": 179,
        "4338": 161,
        "4339": 240,
        "4340": 245,
        "4341": 1,
        "4342": 185,
        "4343": 27,
        "4344": 70,
        "4345": 249,
        "4346": 180,
        "4347": 99,
        "4348": 107,
        "4349": 186,
        "4350": 135,
        "4351": 44,
        "4352": 252,
        "4353": 190,
        "4354": 130,
        "4355": 148,
        "4356": 78,
        "4357": 46,
        "4358": 10,
        "4359": 119,
        "4360": 132,
        "4361": 81,
        "4362": 245,
        "4363": 176,
        "4364": 72,
        "4365": 98,
        "4366": 154,
        "4367": 99,
        "4368": 194,
        "4369": 178,
        "4370": 194,
        "4371": 120,
        "4372": 32,
        "4373": 113,
        "4374": 168,
        "4375": 118,
        "4376": 7,
        "4377": 164,
        "4378": 123,
        "4379": 254,
        "4380": 13,
        "4381": 205,
        "4382": 201,
        "4383": 76,
        "4384": 37,
        "4385": 54,
        "4386": 240,
        "4387": 157,
        "4388": 207,
        "4389": 127,
        "4390": 253,
        "4391": 231,
        "4392": 35,
        "4393": 198,
        "4394": 49,
        "4395": 204,
        "4396": 60,
        "4397": 59,
        "4398": 86,
        "4399": 232,
        "4400": 23,
        "4401": 42,
        "4402": 171,
        "4403": 200,
        "4404": 49,
        "4405": 206,
        "4406": 201,
        "4407": 204,
        "4408": 121,
        "4409": 187,
        "4410": 64,
        "4411": 172,
        "4412": 126,
        "4413": 83,
        "4414": 67,
        "4415": 38,
        "4416": 118,
        "4417": 72,
        "4418": 163,
        "4419": 168,
        "4420": 254,
        "4421": 199,
        "4422": 251,
        "4423": 143,
        "4424": 234,
        "4425": 216,
        "4426": 141,
        "4427": 152,
        "4428": 197,
        "4429": 114,
        "4430": 85,
        "4431": 14,
        "4432": 247,
        "4433": 82,
        "4434": 225,
        "4435": 139,
        "4436": 88,
        "4437": 11,
        "4438": 233,
        "4439": 23,
        "4440": 78,
        "4441": 113,
        "4442": 0,
        "4443": 252,
        "4444": 12,
        "4445": 81,
        "4446": 49,
        "4447": 145,
        "4448": 158,
        "4449": 206,
        "4450": 148,
        "4451": 118,
        "4452": 22,
        "4453": 41,
        "4454": 53,
        "4455": 213,
        "4456": 73,
        "4457": 29,
        "4458": 20,
        "4459": 155,
        "4460": 47,
        "4461": 225,
        "4462": 98,
        "4463": 206,
        "4464": 143,
        "4465": 205,
        "4466": 73,
        "4467": 228,
        "4468": 205,
        "4469": 206,
        "4470": 225,
        "4471": 84,
        "4472": 214,
        "4473": 114,
        "4474": 120,
        "4475": 151,
        "4476": 251,
        "4477": 217,
        "4478": 254,
        "4479": 238,
        "4480": 189,
        "4481": 102,
        "4482": 111,
        "4483": 147,
        "4484": 48,
        "4485": 72,
        "4486": 245,
        "4487": 93,
        "4488": 84,
        "4489": 114,
        "4490": 81,
        "4491": 3,
        "4492": 95,
        "4493": 205,
        "4494": 120,
        "4495": 22,
        "4496": 154,
        "4497": 105,
        "4498": 106,
        "4499": 222,
        "4500": 53,
        "4501": 61,
        "4502": 97,
        "4503": 30,
        "4504": 209,
        "4505": 112,
        "4506": 69,
        "4507": 254,
        "4508": 134,
        "4509": 206,
        "4510": 235,
        "4511": 210,
        "4512": 79,
        "4513": 252,
        "4514": 247,
        "4515": 57,
        "4516": 253,
        "4517": 178,
        "4518": 31,
        "4519": 166,
        "4520": 197,
        "4521": 232,
        "4522": 164,
        "4523": 146,
        "4524": 10,
        "4525": 65,
        "4526": 202,
        "4527": 19,
        "4528": 194,
        "4529": 60,
        "4530": 65,
        "4531": 184,
        "4532": 221,
        "4533": 172,
        "4534": 207,
        "4535": 171,
        "4536": 90,
        "4537": 93,
        "4538": 195,
        "4539": 4,
        "4540": 99,
        "4541": 122,
        "4542": 106,
        "4543": 90,
        "4544": 48,
        "4545": 21,
        "4546": 135,
        "4547": 113,
        "4548": 194,
        "4549": 102,
        "4550": 85,
        "4551": 163,
        "4552": 225,
        "4553": 159,
        "4554": 130,
        "4555": 225,
        "4556": 34,
        "4557": 145,
        "4558": 201,
        "4559": 51,
        "4560": 209,
        "4561": 131,
        "4562": 100,
        "4563": 146,
        "4564": 231,
        "4565": 90,
        "4566": 102,
        "4567": 153,
        "4568": 208,
        "4569": 215,
        "4570": 34,
        "4571": 213,
        "4572": 50,
        "4573": 169,
        "4574": 27,
        "4575": 17,
        "4576": 66,
        "4577": 247,
        "4578": 137,
        "4579": 164,
        "4580": 26,
        "4581": 23,
        "4582": 157,
        "4583": 253,
        "4584": 211,
        "4585": 58,
        "4586": 2,
        "4587": 146,
        "4588": 193,
        "4589": 203,
        "4590": 68,
        "4591": 210,
        "4592": 159,
        "4593": 112,
        "4594": 96,
        "4595": 222,
        "4596": 169,
        "4597": 226,
        "4598": 52,
        "4599": 39,
        "4600": 240,
        "4601": 234,
        "4602": 184,
        "4603": 37,
        "4604": 232,
        "4605": 51,
        "4606": 178,
        "4607": 119,
        "4608": 74,
        "4609": 113,
        "4610": 200,
        "4611": 169,
        "4612": 146,
        "4613": 0,
        "4614": 249,
        "4615": 131,
        "4616": 115,
        "4617": 58,
        "4618": 231,
        "4619": 88,
        "4620": 228,
        "4621": 80,
        "4622": 37,
        "4623": 127,
        "4624": 184,
        "4625": 126,
        "4626": 195,
        "4627": 226,
        "4628": 74,
        "4629": 241,
        "4630": 1,
        "4631": 71,
        "4632": 238,
        "4633": 71,
        "4634": 106,
        "4635": 236,
        "4636": 157,
        "4637": 194,
        "4638": 1,
        "4639": 233,
        "4640": 160,
        "4641": 158,
        "4642": 61,
        "4643": 64,
        "4644": 34,
        "4645": 178,
        "4646": 58,
        "4647": 144,
        "4648": 171,
        "4649": 191,
        "4650": 6,
        "4651": 189,
        "4652": 174,
        "4653": 64,
        "4654": 191,
        "4655": 31,
        "4656": 5,
        "4657": 0,
        "4658": 215,
        "4659": 87,
        "4660": 235,
        "4661": 122,
        "4662": 112,
        "4663": 232,
        "4664": 250,
        "4665": 61,
        "4666": 188,
        "4667": 31,
        "4668": 189,
        "4669": 188,
        "4670": 93,
        "4671": 39,
        "4672": 149,
        "4673": 243,
        "4674": 31,
        "4675": 52,
        "4676": 18,
        "4677": 241,
        "4678": 157,
        "4679": 237,
        "4680": 218,
        "4681": 249,
        "4682": 109,
        "4683": 99,
        "4684": 125,
        "4685": 84,
        "4686": 79,
        "4687": 95,
        "4688": 192,
        "4689": 60,
        "4690": 64,
        "4691": 24,
        "4692": 245,
        "4693": 141,
        "4694": 139,
        "4695": 98,
        "4696": 205,
        "4697": 137,
        "4698": 150,
        "4699": 21,
        "4700": 69,
        "4701": 41,
        "4702": 228,
        "4703": 165,
        "4704": 84,
        "4705": 178,
        "4706": 89,
        "4707": 130,
        "4708": 138,
        "4709": 230,
        "4710": 187,
        "4711": 239,
        "4712": 210,
        "4713": 230,
        "4714": 43,
        "4715": 111,
        "4716": 68,
        "4717": 128,
        "4718": 98,
        "4719": 197,
        "4720": 149,
        "4721": 231,
        "4722": 3,
        "4723": 123,
        "4724": 182,
        "4725": 142,
        "4726": 151,
        "4727": 151,
        "4728": 222,
        "4729": 175,
        "4730": 39,
        "4731": 138,
        "4732": 132,
        "4733": 2,
        "4734": 225,
        "4735": 201,
        "4736": 130,
        "4737": 159,
        "4738": 35,
        "4739": 77,
        "4740": 93,
        "4741": 3,
        "4742": 233,
        "4743": 81,
        "4744": 158,
        "4745": 156,
        "4746": 170,
        "4747": 190,
        "4748": 48,
        "4749": 93,
        "4750": 101,
        "4751": 55,
        "4752": 19,
        "4753": 176,
        "4754": 25,
        "4755": 158,
        "4756": 188,
        "4757": 22,
        "4758": 67,
        "4759": 183,
        "4760": 249,
        "4761": 82,
        "4762": 116,
        "4763": 205,
        "4764": 207,
        "4765": 81,
        "4766": 106,
        "4767": 206,
        "4768": 35,
        "4769": 156,
        "4770": 104,
        "4771": 148,
        "4772": 165,
        "4773": 171,
        "4774": 53,
        "4775": 98,
        "4776": 205,
        "4777": 156,
        "4778": 164,
        "4779": 104,
        "4780": 170,
        "4781": 218,
        "4782": 119,
        "4783": 108,
        "4784": 68,
        "4785": 72,
        "4786": 36,
        "4787": 109,
        "4788": 49,
        "4789": 41,
        "4790": 193,
        "4791": 22,
        "4792": 229,
        "4793": 76,
        "4794": 168,
        "4795": 24,
        "4796": 0,
        "4797": 10,
        "4798": 91,
        "4799": 105,
        "4800": 55,
        "4801": 1,
        "4802": 99,
        "4803": 205,
        "4804": 121,
        "4805": 54,
        "4806": 65,
        "4807": 217,
        "4808": 36,
        "4809": 153,
        "4810": 68,
        "4811": 181,
        "4812": 80,
        "4813": 197,
        "4814": 126,
        "4815": 151,
        "4816": 201,
        "4817": 30,
        "4818": 232,
        "4819": 48,
        "4820": 155,
        "4821": 250,
        "4822": 121,
        "4823": 128,
        "4824": 222,
        "4825": 201,
        "4826": 94,
        "4827": 218,
        "4828": 58,
        "4829": 152,
        "4830": 1,
        "4831": 106,
        "4832": 160,
        "4833": 33,
        "4834": 14,
        "4835": 58,
        "4836": 200,
        "4837": 84,
        "4838": 99,
        "4839": 33,
        "4840": 34,
        "4841": 186,
        "4842": 138,
        "4843": 183,
        "4844": 254,
        "4845": 84,
        "4846": 175,
        "4847": 5,
        "4848": 51,
        "4849": 3,
        "4850": 149,
        "4851": 180,
        "4852": 234,
        "4853": 110,
        "4854": 44,
        "4855": 141,
        "4856": 103,
        "4857": 96,
        "4858": 227,
        "4859": 57,
        "4860": 248,
        "4861": 133,
        "4862": 122,
        "4863": 12,
        "4864": 87,
        "4865": 3,
        "4866": 56,
        "4867": 56,
        "4868": 84,
        "4869": 71,
        "4870": 149,
        "4871": 88,
        "4872": 68,
        "4873": 99,
        "4874": 221,
        "4875": 196,
        "4876": 160,
        "4877": 174,
        "4878": 50,
        "4879": 217,
        "4880": 229,
        "4881": 222,
        "4882": 149,
        "4883": 245,
        "4884": 232,
        "4885": 230,
        "4886": 185,
        "4887": 105,
        "4888": 83,
        "4889": 99,
        "4890": 131,
        "4891": 255,
        "4892": 113,
        "4893": 160,
        "4894": 106,
        "4895": 72,
        "4896": 166,
        "4897": 60,
        "4898": 248,
        "4899": 48,
        "4900": 105,
        "4901": 67,
        "4902": 137,
        "4903": 254,
        "4904": 26,
        "4905": 149,
        "4906": 247,
        "4907": 198,
        "4908": 200,
        "4909": 173,
        "4910": 166,
        "4911": 196,
        "4912": 196,
        "4913": 215,
        "4914": 191,
        "4915": 149,
        "4916": 214,
        "4917": 112,
        "4918": 236,
        "4919": 239,
        "4920": 23,
        "4921": 181,
        "4922": 82,
        "4923": 172,
        "4924": 145,
        "4925": 211,
        "4926": 184,
        "4927": 165,
        "4928": 108,
        "4929": 144,
        "4930": 46,
        "4931": 227,
        "4932": 212,
        "4933": 146,
        "4934": 232,
        "4935": 111,
        "4936": 27,
        "4937": 154,
        "4938": 214,
        "4939": 14,
        "4940": 111,
        "4941": 0,
        "4942": 198,
        "4943": 207,
        "4944": 249,
        "4945": 39,
        "4946": 247,
        "4947": 106,
        "4948": 99,
        "4949": 245,
        "4950": 66,
        "4951": 50,
        "4952": 12,
        "4953": 212,
        "4954": 231,
        "4955": 107,
        "4956": 230,
        "4957": 245,
        "4958": 215,
        "4959": 244,
        "4960": 107,
        "4961": 37,
        "4962": 165,
        "4963": 204,
        "4964": 23,
        "4965": 166,
        "4966": 92,
        "4967": 214,
        "4968": 251,
        "4969": 25,
        "4970": 189,
        "4971": 59,
        "4972": 230,
        "4973": 207,
        "4974": 127,
        "4975": 251,
        "4976": 127,
        "4977": 167,
        "4978": 79,
        "4979": 253,
        "4980": 204,
        "4981": 70,
        "4982": 169,
        "4983": 31,
        "4984": 75,
        "4985": 124,
        "4986": 75,
        "4987": 172,
        "4988": 67,
        "4989": 204,
        "4990": 158,
        "4991": 61,
        "4992": 119,
        "4993": 206,
        "4994": 94,
        "4995": 99,
        "4996": 171,
        "4997": 66,
        "4998": 238,
        "4999": 103,
        "5000": 222,
        "5001": 101,
        "5002": 205,
        "5003": 123,
        "5004": 216,
        "5005": 129,
        "5006": 46,
        "5007": 138,
        "5008": 166,
        "5009": 1,
        "5010": 198,
        "5011": 149,
        "5012": 208,
        "5013": 125,
        "5014": 19,
        "5015": 14,
        "5016": 203,
        "5017": 115,
        "5018": 230,
        "5019": 209,
        "5020": 112,
        "5021": 86,
        "5022": 11,
        "5023": 94,
        "5024": 95,
        "5025": 71,
        "5026": 64,
        "5027": 210,
        "5028": 192,
        "5029": 53,
        "5030": 140,
        "5031": 110,
        "5032": 162,
        "5033": 88,
        "5034": 108,
        "5035": 233,
        "5036": 139,
        "5037": 14,
        "5038": 70,
        "5039": 243,
        "5040": 222,
        "5041": 103,
        "5042": 91,
        "5043": 110,
        "5044": 244,
        "5045": 129,
        "5046": 129,
        "5047": 74,
        "5048": 19,
        "5049": 215,
        "5050": 79,
        "5051": 41,
        "5052": 215,
        "5053": 90,
        "5054": 146,
        "5055": 141,
        "5056": 224,
        "5057": 133,
        "5058": 251,
        "5059": 142,
        "5060": 146,
        "5061": 195,
        "5062": 187,
        "5063": 21,
        "5064": 157,
        "5065": 171,
        "5066": 166,
        "5067": 1,
        "5068": 115,
        "5069": 53,
        "5070": 169,
        "5071": 56,
        "5072": 5,
        "5073": 208,
        "5074": 159,
        "5075": 18,
        "5076": 52,
        "5077": 132,
        "5078": 181,
        "5079": 19,
        "5080": 45,
        "5081": 184,
        "5082": 106,
        "5083": 50,
        "5084": 26,
        "5085": 76,
        "5086": 158,
        "5087": 219,
        "5088": 201,
        "5089": 196,
        "5090": 109,
        "5091": 61,
        "5092": 251,
        "5093": 23,
        "5094": 206,
        "5095": 13,
        "5096": 82,
        "5097": 145,
        "5098": 170,
        "5099": 18,
        "5100": 225,
        "5101": 63,
        "5102": 130,
        "5103": 202,
        "5104": 95,
        "5105": 28,
        "5106": 139,
        "5107": 102,
        "5108": 106,
        "5109": 101,
        "5110": 101,
        "5111": 56,
        "5112": 119,
        "5113": 176,
        "5114": 36,
        "5115": 75,
        "5116": 199,
        "5117": 93,
        "5118": 92,
        "5119": 35,
        "5120": 248,
        "5121": 50,
        "5122": 97,
        "5123": 71,
        "5124": 113,
        "5125": 180,
        "5126": 72,
        "5127": 67,
        "5128": 143,
        "5129": 238,
        "5130": 237,
        "5131": 12,
        "5132": 93,
        "5133": 221,
        "5134": 146,
        "5135": 93,
        "5136": 26,
        "5137": 59,
        "5138": 48,
        "5139": 100,
        "5140": 180,
        "5141": 241,
        "5142": 237,
        "5143": 208,
        "5144": 76,
        "5145": 215,
        "5146": 64,
        "5147": 99,
        "5148": 6,
        "5149": 81,
        "5150": 31,
        "5151": 101,
        "5152": 188,
        "5153": 174,
        "5154": 114,
        "5155": 130,
        "5156": 18,
        "5157": 200,
        "5158": 236,
        "5159": 90,
        "5160": 196,
        "5161": 207,
        "5162": 43,
        "5163": 201,
        "5164": 169,
        "5165": 232,
        "5166": 60,
        "5167": 134,
        "5168": 169,
        "5169": 85,
        "5170": 163,
        "5171": 97,
        "5172": 243,
        "5173": 95,
        "5174": 54,
        "5175": 25,
        "5176": 71,
        "5177": 190,
        "5178": 235,
        "5179": 61,
        "5180": 102,
        "5181": 54,
        "5182": 133,
        "5183": 59,
        "5184": 9,
        "5185": 115,
        "5186": 195,
        "5187": 25,
        "5188": 192,
        "5189": 106,
        "5190": 39,
        "5191": 34,
        "5192": 113,
        "5193": 223,
        "5194": 97,
        "5195": 79,
        "5196": 63,
        "5197": 113,
        "5198": 130,
        "5199": 237,
        "5200": 154,
        "5201": 133,
        "5202": 167,
        "5203": 164,
        "5204": 20,
        "5205": 186,
        "5206": 255,
        "5207": 207,
        "5208": 140,
        "5209": 220,
        "5210": 36,
        "5211": 175,
        "5212": 220,
        "5213": 97,
        "5214": 211,
        "5215": 108,
        "5216": 20,
        "5217": 29,
        "5218": 144,
        "5219": 235,
        "5220": 240,
        "5221": 25,
        "5222": 215,
        "5223": 42,
        "5224": 43,
        "5225": 54,
        "5226": 111,
        "5227": 58,
        "5228": 74,
        "5229": 106,
        "5230": 213,
        "5231": 177,
        "5232": 164,
        "5233": 179,
        "5234": 103,
        "5235": 91,
        "5236": 173,
        "5237": 74,
        "5238": 78,
        "5239": 3,
        "5240": 131,
        "5241": 158,
        "5242": 16,
        "5243": 74,
        "5244": 143,
        "5245": 46,
        "5246": 6,
        "5247": 178,
        "5248": 48,
        "5249": 200,
        "5250": 17,
        "5251": 98,
        "5252": 82,
        "5253": 177,
        "5254": 90,
        "5255": 220,
        "5256": 109,
        "5257": 13,
        "5258": 138,
        "5259": 156,
        "5260": 90,
        "5261": 166,
        "5262": 67,
        "5263": 77,
        "5264": 172,
        "5265": 17,
        "5266": 220,
        "5267": 88,
        "5268": 216,
        "5269": 9,
        "5270": 31,
        "5271": 188,
        "5272": 78,
        "5273": 196,
        "5274": 151,
        "5275": 113,
        "5276": 249,
        "5277": 24,
        "5278": 217,
        "5279": 0,
        "5280": 35,
        "5281": 233,
        "5282": 106,
        "5283": 47,
        "5284": 90,
        "5285": 113,
        "5286": 140,
        "5287": 13,
        "5288": 95,
        "5289": 206,
        "5290": 144,
        "5291": 64,
        "5292": 94,
        "5293": 245,
        "5294": 35,
        "5295": 230,
        "5296": 190,
        "5297": 240,
        "5298": 92,
        "5299": 152,
        "5300": 207,
        "5301": 151,
        "5302": 200,
        "5303": 86,
        "5304": 177,
        "5305": 222,
        "5306": 147,
        "5307": 32,
        "5308": 201,
        "5309": 193,
        "5310": 58,
        "5311": 83,
        "5312": 181,
        "5313": 127,
        "5314": 62,
        "5315": 212,
        "5316": 38,
        "5317": 252,
        "5318": 47,
        "5319": 16,
        "5320": 92,
        "5321": 77,
        "5322": 167,
        "5323": 39,
        "5324": 55,
        "5325": 9,
        "5326": 127,
        "5327": 22,
        "5328": 220,
        "5329": 54,
        "5330": 166,
        "5331": 239,
        "5332": 114,
        "5333": 149,
        "5334": 68,
        "5335": 229,
        "5336": 0,
        "5337": 241,
        "5338": 43,
        "5339": 171,
        "5340": 74,
        "5341": 199,
        "5342": 60,
        "5343": 128,
        "5344": 228,
        "5345": 32,
        "5346": 33,
        "5347": 200,
        "5348": 135,
        "5349": 9,
        "5350": 4,
        "5351": 92,
        "5352": 206,
        "5353": 93,
        "5354": 113,
        "5355": 194,
        "5356": 188,
        "5357": 188,
        "5358": 1,
        "5359": 201,
        "5360": 53,
        "5361": 225,
        "5362": 234,
        "5363": 173,
        "5364": 167,
        "5365": 45,
        "5366": 250,
        "5367": 26,
        "5368": 4,
        "5369": 155,
        "5370": 85,
        "5371": 86,
        "5372": 140,
        "5373": 38,
        "5374": 28,
        "5375": 123,
        "5376": 246,
        "5377": 245,
        "5378": 189,
        "5379": 87,
        "5380": 94,
        "5381": 132,
        "5382": 144,
        "5383": 80,
        "5384": 141,
        "5385": 251,
        "5386": 166,
        "5387": 221,
        "5388": 28,
        "5389": 170,
        "5390": 243,
        "5391": 77,
        "5392": 255,
        "5393": 157,
        "5394": 227,
        "5395": 221,
        "5396": 116,
        "5397": 148,
        "5398": 213,
        "5399": 195,
        "5400": 151,
        "5401": 152,
        "5402": 53,
        "5403": 251,
        "5404": 95,
        "5405": 107,
        "5406": 108,
        "5407": 94,
        "5408": 74,
        "5409": 145,
        "5410": 98,
        "5411": 156,
        "5412": 18,
        "5413": 74,
        "5414": 53,
        "5415": 109,
        "5416": 10,
        "5417": 252,
        "5418": 2,
        "5419": 22,
        "5420": 139,
        "5421": 223,
        "5422": 84,
        "5423": 235,
        "5424": 247,
        "5425": 63,
        "5426": 112,
        "5427": 182,
        "5428": 60,
        "5429": 150,
        "5430": 213,
        "5431": 106,
        "5432": 141,
        "5433": 42,
        "5434": 232,
        "5435": 81,
        "5436": 161,
        "5437": 187,
        "5438": 156,
        "5439": 46,
        "5440": 214,
        "5441": 251,
        "5442": 161,
        "5443": 133,
        "5444": 177,
        "5445": 136,
        "5446": 42,
        "5447": 92,
        "5448": 95,
        "5449": 190,
        "5450": 149,
        "5451": 161,
        "5452": 192,
        "5453": 24,
        "5454": 122,
        "5455": 131,
        "5456": 73,
        "5457": 159,
        "5458": 76,
        "5459": 22,
        "5460": 44,
        "5461": 240,
        "5462": 171,
        "5463": 43,
        "5464": 23,
        "5465": 146,
        "5466": 2,
        "5467": 29,
        "5468": 206,
        "5469": 15,
        "5470": 17,
        "5471": 194,
        "5472": 22,
        "5473": 7,
        "5474": 73,
        "5475": 16,
        "5476": 203,
        "5477": 253,
        "5478": 181,
        "5479": 94,
        "5480": 4,
        "5481": 4,
        "5482": 170,
        "5483": 74,
        "5484": 251,
        "5485": 64,
        "5486": 188,
        "5487": 184,
        "5488": 240,
        "5489": 73,
        "5490": 20,
        "5491": 99,
        "5492": 221,
        "5493": 56,
        "5494": 127,
        "5495": 109,
        "5496": 8,
        "5497": 232,
        "5498": 178,
        "5499": 193,
        "5500": 111,
        "5501": 165,
        "5502": 79,
        "5503": 77,
        "5504": 197,
        "5505": 177,
        "5506": 164,
        "5507": 12,
        "5508": 213,
        "5509": 139,
        "5510": 204,
        "5511": 66,
        "5512": 47,
        "5513": 114,
        "5514": 226,
        "5515": 57,
        "5516": 77,
        "5517": 204,
        "5518": 7,
        "5519": 157,
        "5520": 75,
        "5521": 162,
        "5522": 5,
        "5523": 141,
        "5524": 253,
        "5525": 75,
        "5526": 218,
        "5527": 52,
        "5528": 121,
        "5529": 212,
        "5530": 18,
        "5531": 54,
        "5532": 185,
        "5533": 52,
        "5534": 175,
        "5535": 166,
        "5536": 214,
        "5537": 41,
        "5538": 205,
        "5539": 12,
        "5540": 143,
        "5541": 248,
        "5542": 28,
        "5543": 18,
        "5544": 194,
        "5545": 47,
        "5546": 57,
        "5547": 159,
        "5548": 214,
        "5549": 139,
        "5550": 178,
        "5551": 245,
        "5552": 124,
        "5553": 61,
        "5554": 63,
        "5555": 7,
        "5556": 168,
        "5557": 59,
        "5558": 88,
        "5559": 35,
        "5560": 20,
        "5561": 211,
        "5562": 89,
        "5563": 143,
        "5564": 78,
        "5565": 67,
        "5566": 156,
        "5567": 232,
        "5568": 8,
        "5569": 8,
        "5570": 201,
        "5571": 188,
        "5572": 144,
        "5573": 185,
        "5574": 89,
        "5575": 123,
        "5576": 131,
        "5577": 122,
        "5578": 167,
        "5579": 10,
        "5580": 115,
        "5581": 135,
        "5582": 135,
        "5583": 249,
        "5584": 231,
        "5585": 149,
        "5586": 48,
        "5587": 162,
        "5588": 183,
        "5589": 27,
        "5590": 175,
        "5591": 83,
        "5592": 164,
        "5593": 26,
        "5594": 79,
        "5595": 218,
        "5596": 31,
        "5597": 14,
        "5598": 122,
        "5599": 94,
        "5600": 92,
        "5601": 127,
        "5602": 205,
        "5603": 141,
        "5604": 238,
        "5605": 194,
        "5606": 34,
        "5607": 153,
        "5608": 134,
        "5609": 56,
        "5610": 192,
        "5611": 34,
        "5612": 12,
        "5613": 75,
        "5614": 31,
        "5615": 115,
        "5616": 131,
        "5617": 180,
        "5618": 7,
        "5619": 132,
        "5620": 235,
        "5621": 232,
        "5622": 167,
        "5623": 27,
        "5624": 95,
        "5625": 177,
        "5626": 5,
        "5627": 179,
        "5628": 39,
        "5629": 144,
        "5630": 122,
        "5631": 155,
        "5632": 114,
        "5633": 171,
        "5634": 5,
        "5635": 55,
        "5636": 50,
        "5637": 222,
        "5638": 125,
        "5639": 255,
        "5640": 181,
        "5641": 92,
        "5642": 168,
        "5643": 120,
        "5644": 3,
        "5645": 153,
        "5646": 106,
        "5647": 139,
        "5648": 223,
        "5649": 250,
        "5650": 57,
        "5651": 155,
        "5652": 227,
        "5653": 5,
        "5654": 106,
        "5655": 127,
        "5656": 9,
        "5657": 130,
        "5658": 166,
        "5659": 115,
        "5660": 151,
        "5661": 61,
        "5662": 133,
        "5663": 63,
        "5664": 99,
        "5665": 5,
        "5666": 255,
        "5667": 163,
        "5668": 27,
        "5669": 161,
        "5670": 174,
        "5671": 187,
        "5672": 55,
        "5673": 187,
        "5674": 217,
        "5675": 35,
        "5676": 70,
        "5677": 97,
        "5678": 9,
        "5679": 144,
        "5680": 128,
        "5681": 224,
        "5682": 175,
        "5683": 75,
        "5684": 16,
        "5685": 56,
        "5686": 97,
        "5687": 73,
        "5688": 195,
        "5689": 208,
        "5690": 0,
        "5691": 155,
        "5692": 124,
        "5693": 41,
        "5694": 17,
        "5695": 129,
        "5696": 59,
        "5697": 8,
        "5698": 17,
        "5699": 127,
        "5700": 86,
        "5701": 68,
        "5702": 62,
        "5703": 223,
        "5704": 90,
        "5705": 68,
        "5706": 155,
        "5707": 188,
        "5708": 54,
        "5709": 211,
        "5710": 78,
        "5711": 76,
        "5712": 190,
        "5713": 155,
        "5714": 154,
        "5715": 84,
        "5716": 117,
        "5717": 79,
        "5718": 230,
        "5719": 65,
        "5720": 138,
        "5721": 99,
        "5722": 239,
        "5723": 211,
        "5724": 214,
        "5725": 77,
        "5726": 246,
        "5727": 237,
        "5728": 119,
        "5729": 233,
        "5730": 141,
        "5731": 61,
        "5732": 249,
        "5733": 21,
        "5734": 225,
        "5735": 119,
        "5736": 60,
        "5737": 104,
        "5738": 100,
        "5739": 179,
        "5740": 175,
        "5741": 84,
        "5742": 114,
        "5743": 221,
        "5744": 207,
        "5745": 110,
        "5746": 0,
        "5747": 12,
        "5748": 178,
        "5749": 197,
        "5750": 200,
        "5751": 203,
        "5752": 95,
        "5753": 119,
        "5754": 148,
        "5755": 102,
        "5756": 44,
        "5757": 52,
        "5758": 238,
        "5759": 46,
        "5760": 145,
        "5761": 123,
        "5762": 135,
        "5763": 26,
        "5764": 52,
        "5765": 22,
        "5766": 223,
        "5767": 35,
        "5768": 4,
        "5769": 231,
        "5770": 33,
        "5771": 215,
        "5772": 118,
        "5773": 57,
        "5774": 92,
        "5775": 131,
        "5776": 245,
        "5777": 23,
        "5778": 127,
        "5779": 228,
        "5780": 86,
        "5781": 21,
        "5782": 145,
        "5783": 4,
        "5784": 177,
        "5785": 201,
        "5786": 227,
        "5787": 38,
        "5788": 90,
        "5789": 10,
        "5790": 101,
        "5791": 18,
        "5792": 85,
        "5793": 173,
        "5794": 4,
        "5795": 30,
        "5796": 232,
        "5797": 8,
        "5798": 146,
        "5799": 252,
        "5800": 75,
        "5801": 131,
        "5802": 205,
        "5803": 111,
        "5804": 59,
        "5805": 197,
        "5806": 124,
        "5807": 49,
        "5808": 1,
        "5809": 205,
        "5810": 16,
        "5811": 68,
        "5812": 216,
        "5813": 1,
        "5814": 51,
        "5815": 56,
        "5816": 22,
        "5817": 203,
        "5818": 173,
        "5819": 72,
        "5820": 199,
        "5821": 140,
        "5822": 85,
        "5823": 124,
        "5824": 49,
        "5825": 152,
        "5826": 216,
        "5827": 37,
        "5828": 184,
        "5829": 242,
        "5830": 160,
        "5831": 194,
        "5832": 120,
        "5833": 230,
        "5834": 199,
        "5835": 62,
        "5836": 54,
        "5837": 216,
        "5838": 56,
        "5839": 222,
        "5840": 99,
        "5841": 187,
        "5842": 57,
        "5843": 207,
        "5844": 35,
        "5845": 209,
        "5846": 83,
        "5847": 25,
        "5848": 243,
        "5849": 6,
        "5850": 228,
        "5851": 204,
        "5852": 226,
        "5853": 64,
        "5854": 53,
        "5855": 81,
        "5856": 23,
        "5857": 215,
        "5858": 113,
        "5859": 42,
        "5860": 10,
        "5861": 196,
        "5862": 178,
        "5863": 48,
        "5864": 78,
        "5865": 215,
        "5866": 255,
        "5867": 183,
        "5868": 146,
        "5869": 27,
        "5870": 248,
        "5871": 64,
        "5872": 73,
        "5873": 195,
        "5874": 44,
        "5875": 83,
        "5876": 80,
        "5877": 198,
        "5878": 64,
        "5879": 72,
        "5880": 207,
        "5881": 242,
        "5882": 223,
        "5883": 4,
        "5884": 62,
        "5885": 123,
        "5886": 163,
        "5887": 198,
        "5888": 148,
        "5889": 41,
        "5890": 175,
        "5891": 17,
        "5892": 192,
        "5893": 1,
        "5894": 57,
        "5895": 187,
        "5896": 218,
        "5897": 218,
        "5898": 170,
        "5899": 126,
        "5900": 224,
        "5901": 15,
        "5902": 169,
        "5903": 255,
        "5904": 81,
        "5905": 190,
        "5906": 3,
        "5907": 160,
        "5908": 117,
        "5909": 236,
        "5910": 190,
        "5911": 124,
        "5912": 157,
        "5913": 207,
        "5914": 254,
        "5915": 9,
        "5916": 205,
        "5917": 159,
        "5918": 63,
        "5919": 110,
        "5920": 54,
        "5921": 234,
        "5922": 236,
        "5923": 172,
        "5924": 170,
        "5925": 98,
        "5926": 147,
        "5927": 131,
        "5928": 92,
        "5929": 169,
        "5930": 183,
        "5931": 126,
        "5932": 103,
        "5933": 65,
        "5934": 134,
        "5935": 53,
        "5936": 190,
        "5937": 192,
        "5938": 189,
        "5939": 185,
        "5940": 186,
        "5941": 43,
        "5942": 149,
        "5943": 149,
        "5944": 174,
        "5945": 190,
        "5946": 146,
        "5947": 208,
        "5948": 26,
        "5949": 120,
        "5950": 197,
        "5951": 62,
        "5952": 243,
        "5953": 71,
        "5954": 37,
        "5955": 228,
        "5956": 73,
        "5957": 87,
        "5958": 156,
        "5959": 226,
        "5960": 163,
        "5961": 238,
        "5962": 75,
        "5963": 43,
        "5964": 33,
        "5965": 171,
        "5966": 181,
        "5967": 232,
        "5968": 6,
        "5969": 93,
        "5970": 73,
        "5971": 156,
        "5972": 195,
        "5973": 57,
        "5974": 95,
        "5975": 195,
        "5976": 135,
        "5977": 216,
        "5978": 248,
        "5979": 243,
        "5980": 151,
        "5981": 230,
        "5982": 155,
        "5983": 204,
        "5984": 215,
        "5985": 178,
        "5986": 100,
        "5987": 175,
        "5988": 11,
        "5989": 148,
        "5990": 240,
        "5991": 146,
        "5992": 69,
        "5993": 237,
        "5994": 14,
        "5995": 153,
        "5996": 85,
        "5997": 179,
        "5998": 162,
        "5999": 147,
        "6000": 146,
        "6001": 116,
        "6002": 16,
        "6003": 243,
        "6004": 83,
        "6005": 28,
        "6006": 104,
        "6007": 147,
        "6008": 216,
        "6009": 58,
        "6010": 82,
        "6011": 80,
        "6012": 55,
        "6013": 140,
        "6014": 146,
        "6015": 144,
        "6016": 40,
        "6017": 21,
        "6018": 246,
        "6019": 232,
        "6020": 95,
        "6021": 174,
        "6022": 222,
        "6023": 218,
        "6024": 53,
        "6025": 213,
        "6026": 127,
        "6027": 189,
        "6028": 88,
        "6029": 179,
        "6030": 32,
        "6031": 235,
        "6032": 138,
        "6033": 146,
        "6034": 136,
        "6035": 69,
        "6036": 12,
        "6037": 95,
        "6038": 69,
        "6039": 73,
        "6040": 193,
        "6041": 158,
        "6042": 26,
        "6043": 203,
        "6044": 21,
        "6045": 147,
        "6046": 147,
        "6047": 8,
        "6048": 200,
        "6049": 204,
        "6050": 9,
        "6051": 84,
        "6052": 236,
        "6053": 198,
        "6054": 27,
        "6055": 81,
        "6056": 225,
        "6057": 70,
        "6058": 199,
        "6059": 206,
        "6060": 50,
        "6061": 165,
        "6062": 33,
        "6063": 53,
        "6064": 17,
        "6065": 45,
        "6066": 233,
        "6067": 166,
        "6068": 165,
        "6069": 111,
        "6070": 91,
        "6071": 36,
        "6072": 143,
        "6073": 102,
        "6074": 169,
        "6075": 63,
        "6076": 239,
        "6077": 217,
        "6078": 144,
        "6079": 116,
        "6080": 58,
        "6081": 240,
        "6082": 216,
        "6083": 16,
        "6084": 141,
        "6085": 13,
        "6086": 160,
        "6087": 121,
        "6088": 10,
        "6089": 184,
        "6090": 14,
        "6091": 205,
        "6092": 23,
        "6093": 213,
        "6094": 70,
        "6095": 12,
        "6096": 168,
        "6097": 44,
        "6098": 208,
        "6099": 102,
        "6100": 108,
        "6101": 238,
        "6102": 65,
        "6103": 127,
        "6104": 255,
        "6105": 189,
        "6106": 197,
        "6107": 43,
        "6108": 58,
        "6109": 229,
        "6110": 247,
        "6111": 75,
        "6112": 89,
        "6113": 94,
        "6114": 113,
        "6115": 204,
        "6116": 187,
        "6117": 47,
        "6118": 136,
        "6119": 0,
        "6120": 122,
        "6121": 49,
        "6122": 217,
        "6123": 90,
        "6124": 44,
        "6125": 205,
        "6126": 61,
        "6127": 219,
        "6128": 142,
        "6129": 4,
        "6130": 229,
        "6131": 199,
        "6132": 192,
        "6133": 64,
        "6134": 182,
        "6135": 13,
        "6136": 128,
        "6137": 95,
        "6138": 157,
        "6139": 190,
        "6140": 227,
        "6141": 75,
        "6142": 49,
        "6143": 113,
        "6144": 23,
        "6145": 190,
        "6146": 213,
        "6147": 199,
        "6148": 123,
        "6149": 193,
        "6150": 39,
        "6151": 232,
        "6152": 83,
        "6153": 245,
        "6154": 206,
        "6155": 143,
        "6156": 172,
        "6157": 230,
        "6158": 180,
        "6159": 144,
        "6160": 25,
        "6161": 19,
        "6162": 25,
        "6163": 229,
        "6164": 211,
        "6165": 121,
        "6166": 57,
        "6167": 97,
        "6168": 16,
        "6169": 241,
        "6170": 31,
        "6171": 146,
        "6172": 175,
        "6173": 88,
        "6174": 248,
        "6175": 237,
        "6176": 151,
        "6177": 56,
        "6178": 193,
        "6179": 42,
        "6180": 5,
        "6181": 238,
        "6182": 45,
        "6183": 220,
        "6184": 22,
        "6185": 72,
        "6186": 121,
        "6187": 22,
        "6188": 163,
        "6189": 81,
        "6190": 224,
        "6191": 81,
        "6192": 23,
        "6193": 123,
        "6194": 243,
        "6195": 17,
        "6196": 251,
        "6197": 243,
        "6198": 221,
        "6199": 66,
        "6200": 244,
        "6201": 2,
        "6202": 225,
        "6203": 150,
        "6204": 95,
        "6205": 35,
        "6206": 187,
        "6207": 80,
        "6208": 116,
        "6209": 57,
        "6210": 202,
        "6211": 148,
        "6212": 38,
        "6213": 157,
        "6214": 4,
        "6215": 140,
        "6216": 203,
        "6217": 149,
        "6218": 241,
        "6219": 16,
        "6220": 253,
        "6221": 177,
        "6222": 227,
        "6223": 33,
        "6224": 143,
        "6225": 224,
        "6226": 39,
        "6227": 136,
        "6228": 188,
        "6229": 130,
        "6230": 255,
        "6231": 197,
        "6232": 19,
        "6233": 54,
        "6234": 51,
        "6235": 15,
        "6236": 241,
        "6237": 144,
        "6238": 6,
        "6239": 170,
        "6240": 71,
        "6241": 10,
        "6242": 33,
        "6243": 124,
        "6244": 165,
        "6245": 72,
        "6246": 248,
        "6247": 28,
        "6248": 170,
        "6249": 177,
        "6250": 68,
        "6251": 134,
        "6252": 38,
        "6253": 36,
        "6254": 224,
        "6255": 99,
        "6256": 181,
        "6257": 6,
        "6258": 31,
        "6259": 125,
        "6260": 62,
        "6261": 216,
        "6262": 15,
        "6263": 100,
        "6264": 6,
        "6265": 207,
        "6266": 236,
        "6267": 228,
        "6268": 227,
        "6269": 144,
        "6270": 252,
        "6271": 21,
        "6272": 86,
        "6273": 53,
        "6274": 26,
        "6275": 157,
        "6276": 130,
        "6277": 203,
        "6278": 181,
        "6279": 147,
        "6280": 138,
        "6281": 158,
        "6282": 59,
        "6283": 21,
        "6284": 197,
        "6285": 40,
        "6286": 6,
        "6287": 125,
        "6288": 174,
        "6289": 5,
        "6290": 207,
        "6291": 139,
        "6292": 232,
        "6293": 139,
        "6294": 24,
        "6295": 239,
        "6296": 12,
        "6297": 161,
        "6298": 189,
        "6299": 212,
        "6300": 134,
        "6301": 221,
        "6302": 55,
        "6303": 12,
        "6304": 178,
        "6305": 12,
        "6306": 48,
        "6307": 16,
        "6308": 132,
        "6309": 142,
        "6310": 212,
        "6311": 80,
        "6312": 57,
        "6313": 144,
        "6314": 189,
        "6315": 236,
        "6316": 90,
        "6317": 213,
        "6318": 183,
        "6319": 239,
        "6320": 97,
        "6321": 109,
        "6322": 243,
        "6323": 149,
        "6324": 251,
        "6325": 161,
        "6326": 239,
        "6327": 71,
        "6328": 168,
        "6329": 115,
        "6330": 44,
        "6331": 93,
        "6332": 9,
        "6333": 107,
        "6334": 86,
        "6335": 118,
        "6336": 29,
        "6337": 99,
        "6338": 118,
        "6339": 179,
        "6340": 244,
        "6341": 150,
        "6342": 67,
        "6343": 84,
        "6344": 240,
        "6345": 10,
        "6346": 111,
        "6347": 37,
        "6348": 129,
        "6349": 166,
        "6350": 92,
        "6351": 242,
        "6352": 75,
        "6353": 2,
        "6354": 45,
        "6355": 209,
        "6356": 51,
        "6357": 239,
        "6358": 165,
        "6359": 218,
        "6360": 88,
        "6361": 42,
        "6362": 220,
        "6363": 108,
        "6364": 81,
        "6365": 188,
        "6366": 106,
        "6367": 108,
        "6368": 252,
        "6369": 214,
        "6370": 35,
        "6371": 197,
        "6372": 183,
        "6373": 134,
        "6374": 120,
        "6375": 79,
        "6376": 123,
        "6377": 14,
        "6378": 232,
        "6379": 235,
        "6380": 204,
        "6381": 68,
        "6382": 89,
        "6383": 159,
        "6384": 17,
        "6385": 48,
        "6386": 102,
        "6387": 170,
        "6388": 146,
        "6389": 238,
        "6390": 251,
        "6391": 78,
        "6392": 168,
        "6393": 89,
        "6394": 13,
        "6395": 220,
        "6396": 229,
        "6397": 30,
        "6398": 192,
        "6399": 96,
        "6400": 41,
        "6401": 236,
        "6402": 11,
        "6403": 15,
        "6404": 197,
        "6405": 188,
        "6406": 175,
        "6407": 111,
        "6408": 203,
        "6409": 88,
        "6410": 44,
        "6411": 229,
        "6412": 250,
        "6413": 21,
        "6414": 107,
        "6415": 20,
        "6416": 138,
        "6417": 98,
        "6418": 78,
        "6419": 29,
        "6420": 65,
        "6421": 215,
        "6422": 15,
        "6423": 154,
        "6424": 193,
        "6425": 171,
        "6426": 79,
        "6427": 94,
        "6428": 104,
        "6429": 119,
        "6430": 115,
        "6431": 127,
        "6432": 216,
        "6433": 30,
        "6434": 79,
        "6435": 38,
        "6436": 140,
        "6437": 168,
        "6438": 246,
        "6439": 229,
        "6440": 196,
        "6441": 24,
        "6442": 23,
        "6443": 212,
        "6444": 32,
        "6445": 211,
        "6446": 227,
        "6447": 117,
        "6448": 91,
        "6449": 42,
        "6450": 246,
        "6451": 85,
        "6452": 195,
        "6453": 70,
        "6454": 15,
        "6455": 62,
        "6456": 93,
        "6457": 1,
        "6458": 179,
        "6459": 159,
        "6460": 56,
        "6461": 18,
        "6462": 161,
        "6463": 42,
        "6464": 17,
        "6465": 102,
        "6466": 24,
        "6467": 65,
        "6468": 30,
        "6469": 204,
        "6470": 49,
        "6471": 35,
        "6472": 75,
        "6473": 94,
        "6474": 96,
        "6475": 96,
        "6476": 161,
        "6477": 172,
        "6478": 39,
        "6479": 25,
        "6480": 2,
        "6481": 188,
        "6482": 17,
        "6483": 219,
        "6484": 18,
        "6485": 45,
        "6486": 34,
        "6487": 110,
        "6488": 233,
        "6489": 68,
        "6490": 117,
        "6491": 212,
        "6492": 215,
        "6493": 61,
        "6494": 39,
        "6495": 145,
        "6496": 128,
        "6497": 244,
        "6498": 26,
        "6499": 5,
        "6500": 129,
        "6501": 101,
        "6502": 174,
        "6503": 47,
        "6504": 205,
        "6505": 188,
        "6506": 50,
        "6507": 88,
        "6508": 3,
        "6509": 111,
        "6510": 176,
        "6511": 120,
        "6512": 200,
        "6513": 161,
        "6514": 142,
        "6515": 49,
        "6516": 96,
        "6517": 245,
        "6518": 228,
        "6519": 102,
        "6520": 28,
        "6521": 117,
        "6522": 28,
        "6523": 27,
        "6524": 252,
        "6525": 91,
        "6526": 140,
        "6527": 133,
        "6528": 85,
        "6529": 147,
        "6530": 221,
        "6531": 177,
        "6532": 209,
        "6533": 54,
        "6534": 212,
        "6535": 120,
        "6536": 63,
        "6537": 56,
        "6538": 219,
        "6539": 245,
        "6540": 28,
        "6541": 224,
        "6542": 255,
        "6543": 59,
        "6544": 215,
        "6545": 141,
        "6546": 127,
        "6547": 36,
        "6548": 216,
        "6549": 29,
        "6550": 249,
        "6551": 191,
        "6552": 245,
        "6553": 242,
        "6554": 62,
        "6555": 253,
        "6556": 183,
        "6557": 209,
        "6558": 178,
        "6559": 192,
        "6560": 233,
        "6561": 76,
        "6562": 234,
        "6563": 237,
        "6564": 174,
        "6565": 195,
        "6566": 104,
        "6567": 100,
        "6568": 180,
        "6569": 81,
        "6570": 220,
        "6571": 64,
        "6572": 119,
        "6573": 86,
        "6574": 10,
        "6575": 188,
        "6576": 156,
        "6577": 107,
        "6578": 43,
        "6579": 101,
        "6580": 47,
        "6581": 8,
        "6582": 182,
        "6583": 248,
        "6584": 98,
        "6585": 98,
        "6586": 44,
        "6587": 151,
        "6588": 167,
        "6589": 253,
        "6590": 244,
        "6591": 249,
        "6592": 172,
        "6593": 243,
        "6594": 243,
        "6595": 227,
        "6596": 220,
        "6597": 145,
        "6598": 0,
        "6599": 243,
        "6600": 168,
        "6601": 155,
        "6602": 58,
        "6603": 19,
        "6604": 154,
        "6605": 154,
        "6606": 93,
        "6607": 72,
        "6608": 14,
        "6609": 117,
        "6610": 206,
        "6611": 96,
        "6612": 245,
        "6613": 179,
        "6614": 12,
        "6615": 233,
        "6616": 186,
        "6617": 95,
        "6618": 156,
        "6619": 186,
        "6620": 121,
        "6621": 82,
        "6622": 100,
        "6623": 106,
        "6624": 97,
        "6625": 172,
        "6626": 77,
        "6627": 248,
        "6628": 202,
        "6629": 72,
        "6630": 47,
        "6631": 148,
        "6632": 214,
        "6633": 130,
        "6634": 56,
        "6635": 155,
        "6636": 15,
        "6637": 91,
        "6638": 30,
        "6639": 213,
        "6640": 44,
        "6641": 254,
        "6642": 73,
        "6643": 83,
        "6644": 192,
        "6645": 56,
        "6646": 38,
        "6647": 50,
        "6648": 10,
        "6649": 178,
        "6650": 186,
        "6651": 69,
        "6652": 201,
        "6653": 167,
        "6654": 0,
        "6655": 81,
        "6656": 131,
        "6657": 141,
        "6658": 93,
        "6659": 97,
        "6660": 58,
        "6661": 16,
        "6662": 140,
        "6663": 16,
        "6664": 199,
        "6665": 43,
        "6666": 243,
        "6667": 230,
        "6668": 199,
        "6669": 234,
        "6670": 219,
        "6671": 23,
        "6672": 16,
        "6673": 86,
        "6674": 49,
        "6675": 69,
        "6676": 108,
        "6677": 254,
        "6678": 155,
        "6679": 45,
        "6680": 109,
        "6681": 88,
        "6682": 174,
        "6683": 129,
        "6684": 17,
        "6685": 41,
        "6686": 205,
        "6687": 105,
        "6688": 105,
        "6689": 91,
        "6690": 173,
        "6691": 189,
        "6692": 104,
        "6693": 46,
        "6694": 137,
        "6695": 78,
        "6696": 127,
        "6697": 194,
        "6698": 252,
        "6699": 198,
        "6700": 101,
        "6701": 3,
        "6702": 37,
        "6703": 97,
        "6704": 238,
        "6705": 218,
        "6706": 102,
        "6707": 207,
        "6708": 211,
        "6709": 237,
        "6710": 209,
        "6711": 103,
        "6712": 222,
        "6713": 109,
        "6714": 212,
        "6715": 205,
        "6716": 213,
        "6717": 29,
        "6718": 5,
        "6719": 198,
        "6720": 105,
        "6721": 234,
        "6722": 23,
        "6723": 186,
        "6724": 211,
        "6725": 145,
        "6726": 132,
        "6727": 154,
        "6728": 91,
        "6729": 18,
        "6730": 11,
        "6731": 16,
        "6732": 127,
        "6733": 203,
        "6734": 195,
        "6735": 208,
        "6736": 15,
        "6737": 184,
        "6738": 79,
        "6739": 149,
        "6740": 58,
        "6741": 58,
        "6742": 35,
        "6743": 48,
        "6744": 243,
        "6745": 64,
        "6746": 224,
        "6747": 240,
        "6748": 170,
        "6749": 161,
        "6750": 50,
        "6751": 97,
        "6752": 158,
        "6753": 201,
        "6754": 169,
        "6755": 19,
        "6756": 64,
        "6757": 88,
        "6758": 74,
        "6759": 211,
        "6760": 190,
        "6761": 83,
        "6762": 200,
        "6763": 127,
        "6764": 137,
        "6765": 181,
        "6766": 91,
        "6767": 158,
        "6768": 8,
        "6769": 70,
        "6770": 195,
        "6771": 147,
        "6772": 108,
        "6773": 150,
        "6774": 86,
        "6775": 31,
        "6776": 207,
        "6777": 88,
        "6778": 189,
        "6779": 203,
        "6780": 40,
        "6781": 35,
        "6782": 254,
        "6783": 218,
        "6784": 127,
        "6785": 174,
        "6786": 83,
        "6787": 51,
        "6788": 141,
        "6789": 230,
        "6790": 235,
        "6791": 118,
        "6792": 27,
        "6793": 193,
        "6794": 121,
        "6795": 200,
        "6796": 103,
        "6797": 190,
        "6798": 53,
        "6799": 73,
        "6800": 238,
        "6801": 141,
        "6802": 93,
        "6803": 227,
        "6804": 118,
        "6805": 47,
        "6806": 172,
        "6807": 160,
        "6808": 203,
        "6809": 100,
        "6810": 215,
        "6811": 54,
        "6812": 23,
        "6813": 90,
        "6814": 192,
        "6815": 229,
        "6816": 250,
        "6817": 70,
        "6818": 192,
        "6819": 119,
        "6820": 197,
        "6821": 255,
        "6822": 215,
        "6823": 120,
        "6824": 211,
        "6825": 162,
        "6826": 173,
        "6827": 57,
        "6828": 1,
        "6829": 146,
        "6830": 244,
        "6831": 175,
        "6832": 195,
        "6833": 70,
        "6834": 103,
        "6835": 96,
        "6836": 169,
        "6837": 189,
        "6838": 161,
        "6839": 239,
        "6840": 239,
        "6841": 244,
        "6842": 232,
        "6843": 186,
        "6844": 153,
        "6845": 51,
        "6846": 19,
        "6847": 206,
        "6848": 117,
        "6849": 112,
        "6850": 16,
        "6851": 123,
        "6852": 22,
        "6853": 64,
        "6854": 187,
        "6855": 162,
        "6856": 240,
        "6857": 16,
        "6858": 177,
        "6859": 178,
        "6860": 248,
        "6861": 196,
        "6862": 82,
        "6863": 210,
        "6864": 225,
        "6865": 244,
        "6866": 208,
        "6867": 177,
        "6868": 183,
        "6869": 171,
        "6870": 160,
        "6871": 218,
        "6872": 219,
        "6873": 68,
        "6874": 32,
        "6875": 73,
        "6876": 121,
        "6877": 149,
        "6878": 150,
        "6879": 104,
        "6880": 48,
        "6881": 55,
        "6882": 46,
        "6883": 176,
        "6884": 235,
        "6885": 227,
        "6886": 110,
        "6887": 120,
        "6888": 11,
        "6889": 120,
        "6890": 76,
        "6891": 226,
        "6892": 60,
        "6893": 156,
        "6894": 149,
        "6895": 127,
        "6896": 155,
        "6897": 35,
        "6898": 33,
        "6899": 201,
        "6900": 184,
        "6901": 30,
        "6902": 211,
        "6903": 192,
        "6904": 153,
        "6905": 234,
        "6906": 227,
        "6907": 246,
        "6908": 9,
        "6909": 21,
        "6910": 170,
        "6911": 90,
        "6912": 160,
        "6913": 109,
        "6914": 143,
        "6915": 197,
        "6916": 164,
        "6917": 83,
        "6918": 253,
        "6919": 80,
        "6920": 75,
        "6921": 133,
        "6922": 86,
        "6923": 83,
        "6924": 37,
        "6925": 7,
        "6926": 116,
        "6927": 125,
        "6928": 99,
        "6929": 145,
        "6930": 178,
        "6931": 143,
        "6932": 39,
        "6933": 198,
        "6934": 23,
        "6935": 178,
        "6936": 15,
        "6937": 139,
        "6938": 179,
        "6939": 251,
        "6940": 190,
        "6941": 36,
        "6942": 137,
        "6943": 210,
        "6944": 180,
        "6945": 204,
        "6946": 98,
        "6947": 104,
        "6948": 236,
        "6949": 162,
        "6950": 195,
        "6951": 151,
        "6952": 149,
        "6953": 151,
        "6954": 253,
        "6955": 243,
        "6956": 119,
        "6957": 144,
        "6958": 12,
        "6959": 178,
        "6960": 104,
        "6961": 169,
        "6962": 31,
        "6963": 72,
        "6964": 23,
        "6965": 4,
        "6966": 122,
        "6967": 24,
        "6968": 69,
        "6969": 125,
        "6970": 217,
        "6971": 79,
        "6972": 227,
        "6973": 182,
        "6974": 192,
        "6975": 126,
        "6976": 124,
        "6977": 52,
        "6978": 119,
        "6979": 85,
        "6980": 119,
        "6981": 97,
        "6982": 165,
        "6983": 24,
        "6984": 147,
        "6985": 165,
        "6986": 85,
        "6987": 73,
        "6988": 12,
        "6989": 189,
        "6990": 145,
        "6991": 90,
        "6992": 250,
        "6993": 62,
        "6994": 87,
        "6995": 247,
        "6996": 148,
        "6997": 121,
        "6998": 149,
        "6999": 20,
        "7000": 190,
        "7001": 131,
        "7002": 52,
        "7003": 153,
        "7004": 227,
        "7005": 0,
        "7006": 144,
        "7007": 196,
        "7008": 195,
        "7009": 162,
        "7010": 128,
        "7011": 183,
        "7012": 227,
        "7013": 133,
        "7014": 155,
        "7015": 145,
        "7016": 70,
        "7017": 211,
        "7018": 241,
        "7019": 173,
        "7020": 198,
        "7021": 249,
        "7022": 144,
        "7023": 182,
        "7024": 157,
        "7025": 40,
        "7026": 139,
        "7027": 173,
        "7028": 196,
        "7029": 141,
        "7030": 64,
        "7031": 175,
        "7032": 133,
        "7033": 109,
        "7034": 252,
        "7035": 203,
        "7036": 119,
        "7037": 230,
        "7038": 78,
        "7039": 119,
        "7040": 180,
        "7041": 124,
        "7042": 81,
        "7043": 81,
        "7044": 61,
        "7045": 165,
        "7046": 243,
        "7047": 235,
        "7048": 29,
        "7049": 18,
        "7050": 45,
        "7051": 209,
        "7052": 217,
        "7053": 36,
        "7054": 109,
        "7055": 120,
        "7056": 181,
        "7057": 235,
        "7058": 70,
        "7059": 240,
        "7060": 177,
        "7061": 28,
        "7062": 167,
        "7063": 21,
        "7064": 171,
        "7065": 121,
        "7066": 244,
        "7067": 42,
        "7068": 3,
        "7069": 1,
        "7070": 250,
        "7071": 156,
        "7072": 44,
        "7073": 15,
        "7074": 178,
        "7075": 8,
        "7076": 93,
        "7077": 246,
        "7078": 118,
        "7079": 82,
        "7080": 114,
        "7081": 96,
        "7082": 127,
        "7083": 203,
        "7084": 25,
        "7085": 206,
        "7086": 131,
        "7087": 242,
        "7088": 189,
        "7089": 47,
        "7090": 38,
        "7091": 30,
        "7092": 77,
        "7093": 104,
        "7094": 113,
        "7095": 106,
        "7096": 126,
        "7097": 96,
        "7098": 103,
        "7099": 33,
        "7100": 55,
        "7101": 3,
        "7102": 171,
        "7103": 254,
        "7104": 14,
        "7105": 55,
        "7106": 231,
        "7107": 38,
        "7108": 195,
        "7109": 72,
        "7110": 218,
        "7111": 168,
        "7112": 235,
        "7113": 2,
        "7114": 46,
        "7115": 19,
        "7116": 53,
        "7117": 213,
        "7118": 14,
        "7119": 204,
        "7120": 97,
        "7121": 209,
        "7122": 133,
        "7123": 154,
        "7124": 90,
        "7125": 80,
        "7126": 147,
        "7127": 150,
        "7128": 48,
        "7129": 117,
        "7130": 90,
        "7131": 53,
        "7132": 203,
        "7133": 206,
        "7134": 218,
        "7135": 99,
        "7136": 181,
        "7137": 221,
        "7138": 153,
        "7139": 236,
        "7140": 42,
        "7141": 37,
        "7142": 98,
        "7143": 85,
        "7144": 235,
        "7145": 142,
        "7146": 212,
        "7147": 78,
        "7148": 94,
        "7149": 248,
        "7150": 26,
        "7151": 89,
        "7152": 101,
        "7153": 177,
        "7154": 38,
        "7155": 75,
        "7156": 49,
        "7157": 1,
        "7158": 175,
        "7159": 135,
        "7160": 10,
        "7161": 66,
        "7162": 82,
        "7163": 89,
        "7164": 157,
        "7165": 137,
        "7166": 129,
        "7167": 229,
        "7168": 104,
        "7169": 92,
        "7170": 97,
        "7171": 12,
        "7172": 229,
        "7173": 46,
        "7174": 165,
        "7175": 10,
        "7176": 157,
        "7177": 170,
        "7178": 97,
        "7179": 108,
        "7180": 161,
        "7181": 137,
        "7182": 16,
        "7183": 48,
        "7184": 25,
        "7185": 53,
        "7186": 236,
        "7187": 16,
        "7188": 242,
        "7189": 241,
        "7190": 246,
        "7191": 236,
        "7192": 109,
        "7193": 244,
        "7194": 131,
        "7195": 243,
        "7196": 204,
        "7197": 81,
        "7198": 54,
        "7199": 226,
        "7200": 187,
        "7201": 187,
        "7202": 203,
        "7203": 185,
        "7204": 126,
        "7205": 219,
        "7206": 3,
        "7207": 216,
        "7208": 150,
        "7209": 177,
        "7210": 148,
        "7211": 54,
        "7212": 103,
        "7213": 105,
        "7214": 173,
        "7215": 27,
        "7216": 195,
        "7217": 80,
        "7218": 101,
        "7219": 76,
        "7220": 18,
        "7221": 60,
        "7222": 214,
        "7223": 176,
        "7224": 126,
        "7225": 41,
        "7226": 80,
        "7227": 48,
        "7228": 136,
        "7229": 189,
        "7230": 186,
        "7231": 109,
        "7232": 129,
        "7233": 228,
        "7234": 214,
        "7235": 152,
        "7236": 219,
        "7237": 160,
        "7238": 126,
        "7239": 254,
        "7240": 226,
        "7241": 152,
        "7242": 173,
        "7243": 15,
        "7244": 187,
        "7245": 84,
        "7246": 70,
        "7247": 86,
        "7248": 130,
        "7249": 159,
        "7250": 51,
        "7251": 169,
        "7252": 137,
        "7253": 128,
        "7254": 229,
        "7255": 82,
        "7256": 73,
        "7257": 235,
        "7258": 37,
        "7259": 114,
        "7260": 58,
        "7261": 157,
        "7262": 203,
        "7263": 130,
        "7264": 192,
        "7265": 37,
        "7266": 171,
        "7267": 77,
        "7268": 62,
        "7269": 108,
        "7270": 175,
        "7271": 138,
        "7272": 171,
        "7273": 199,
        "7274": 142,
        "7275": 110,
        "7276": 151,
        "7277": 93,
        "7278": 193,
        "7279": 67,
        "7280": 51,
        "7281": 161,
        "7282": 67,
        "7283": 57,
        "7284": 219,
        "7285": 207,
        "7286": 120,
        "7287": 114,
        "7288": 143,
        "7289": 220,
        "7290": 29,
        "7291": 177,
        "7292": 228,
        "7293": 215,
        "7294": 25,
        "7295": 243,
        "7296": 119,
        "7297": 111,
        "7298": 77,
        "7299": 38,
        "7300": 210,
        "7301": 61,
        "7302": 29,
        "7303": 242,
        "7304": 82,
        "7305": 8,
        "7306": 23,
        "7307": 86,
        "7308": 114,
        "7309": 161,
        "7310": 223,
        "7311": 201,
        "7312": 64,
        "7313": 32,
        "7314": 35,
        "7315": 107,
        "7316": 220,
        "7317": 154,
        "7318": 206,
        "7319": 71,
        "7320": 62,
        "7321": 125,
        "7322": 13,
        "7323": 250,
        "7324": 180,
        "7325": 117,
        "7326": 29,
        "7327": 51,
        "7328": 255,
        "7329": 217,
        "7330": 63,
        "7331": 25,
        "7332": 172,
        "7333": 34,
        "7334": 130,
        "7335": 130,
        "7336": 117,
        "7337": 160,
        "7338": 195,
        "7339": 100,
        "7340": 85,
        "7341": 173,
        "7342": 162,
        "7343": 126,
        "7344": 126,
        "7345": 149,
        "7346": 64,
        "7347": 31,
        "7348": 153,
        "7349": 221,
        "7350": 251,
        "7351": 55,
        "7352": 56,
        "7353": 140,
        "7354": 88,
        "7355": 105,
        "7356": 108,
        "7357": 71,
        "7358": 155,
        "7359": 216,
        "7360": 228,
        "7361": 160,
        "7362": 91,
        "7363": 175,
        "7364": 132,
        "7365": 249,
        "7366": 145,
        "7367": 51,
        "7368": 98,
        "7369": 160,
        "7370": 136,
        "7371": 13,
        "7372": 43,
        "7373": 23,
        "7374": 191,
        "7375": 185,
        "7376": 108,
        "7377": 49,
        "7378": 215,
        "7379": 197,
        "7380": 181,
        "7381": 186,
        "7382": 138,
        "7383": 160,
        "7384": 204,
        "7385": 51,
        "7386": 254,
        "7387": 236,
        "7388": 170,
        "7389": 60,
        "7390": 53,
        "7391": 228,
        "7392": 245,
        "7393": 124,
        "7394": 42,
        "7395": 199,
        "7396": 206,
        "7397": 34,
        "7398": 221,
        "7399": 217,
        "7400": 195,
        "7401": 226,
        "7402": 61,
        "7403": 198,
        "7404": 131,
        "7405": 223,
        "7406": 54,
        "7407": 111,
        "7408": 124,
        "7409": 129,
        "7410": 165,
        "7411": 0,
        "7412": 69,
        "7413": 243,
        "7414": 234,
        "7415": 172,
        "7416": 218,
        "7417": 42,
        "7418": 73,
        "7419": 26,
        "7420": 5,
        "7421": 237,
        "7422": 63,
        "7423": 23,
        "7424": 233,
        "7425": 145,
        "7426": 16,
        "7427": 144,
        "7428": 128,
        "7429": 121,
        "7430": 190,
        "7431": 62,
        "7432": 56,
        "7433": 223,
        "7434": 100,
        "7435": 164,
        "7436": 101,
        "7437": 219,
        "7438": 122,
        "7439": 197,
        "7440": 219,
        "7441": 166,
        "7442": 57,
        "7443": 172,
        "7444": 181,
        "7445": 148,
        "7446": 207,
        "7447": 101,
        "7448": 49,
        "7449": 198,
        "7450": 73,
        "7451": 43,
        "7452": 246,
        "7453": 89,
        "7454": 50,
        "7455": 250,
        "7456": 230,
        "7457": 111,
        "7458": 136,
        "7459": 10,
        "7460": 234,
        "7461": 2,
        "7462": 33,
        "7463": 196,
        "7464": 46,
        "7465": 96,
        "7466": 147,
        "7467": 149,
        "7468": 203,
        "7469": 136,
        "7470": 172,
        "7471": 204,
        "7472": 51,
        "7473": 104,
        "7474": 167,
        "7475": 173,
        "7476": 53,
        "7477": 205,
        "7478": 61,
        "7479": 163,
        "7480": 82,
        "7481": 150,
        "7482": 55,
        "7483": 34,
        "7484": 74,
        "7485": 185,
        "7486": 181,
        "7487": 29,
        "7488": 143,
        "7489": 70,
        "7490": 206,
        "7491": 188,
        "7492": 168,
        "7493": 52,
        "7494": 6,
        "7495": 197,
        "7496": 180,
        "7497": 235,
        "7498": 78,
        "7499": 210,
        "7500": 30,
        "7501": 14,
        "7502": 127,
        "7503": 181,
        "7504": 59,
        "7505": 169,
        "7506": 134,
        "7507": 11,
        "7508": 169,
        "7509": 11,
        "7510": 176,
        "7511": 185,
        "7512": 43,
        "7513": 240,
        "7514": 86,
        "7515": 25,
        "7516": 63,
        "7517": 91,
        "7518": 189,
        "7519": 209,
        "7520": 222,
        "7521": 79,
        "7522": 95,
        "7523": 199,
        "7524": 26,
        "7525": 8,
        "7526": 193,
        "7527": 237,
        "7528": 199,
        "7529": 56,
        "7530": 111,
        "7531": 131,
        "7532": 185,
        "7533": 121,
        "7534": 158,
        "7535": 11,
        "7536": 23,
        "7537": 92,
        "7538": 185,
        "7539": 189,
        "7540": 141,
        "7541": 255,
        "7542": 177,
        "7543": 202,
        "7544": 138,
        "7545": 119,
        "7546": 80,
        "7547": 143,
        "7548": 40,
        "7549": 241,
        "7550": 217,
        "7551": 202,
        "7552": 87,
        "7553": 220,
        "7554": 56,
        "7555": 160,
        "7556": 206,
        "7557": 234,
        "7558": 83,
        "7559": 126,
        "7560": 117,
        "7561": 173,
        "7562": 157,
        "7563": 197,
        "7564": 41,
        "7565": 17,
        "7566": 250,
        "7567": 91,
        "7568": 67,
        "7569": 9,
        "7570": 104,
        "7571": 118,
        "7572": 36,
        "7573": 126,
        "7574": 230,
        "7575": 242,
        "7576": 163,
        "7577": 39,
        "7578": 102,
        "7579": 163,
        "7580": 235,
        "7581": 239,
        "7582": 195,
        "7583": 133,
        "7584": 94,
        "7585": 133,
        "7586": 144,
        "7587": 147,
        "7588": 203,
        "7589": 26,
        "7590": 167,
        "7591": 190,
        "7592": 7,
        "7593": 153,
        "7594": 186,
        "7595": 169,
        "7596": 216,
        "7597": 217,
        "7598": 207,
        "7599": 154,
        "7600": 254,
        "7601": 44,
        "7602": 248,
        "7603": 137,
        "7604": 15,
        "7605": 230,
        "7606": 56,
        "7607": 2,
        "7608": 250,
        "7609": 62,
        "7610": 219,
        "7611": 44,
        "7612": 206,
        "7613": 236,
        "7614": 128,
        "7615": 7,
        "7616": 65,
        "7617": 79,
        "7618": 63,
        "7619": 202,
        "7620": 119,
        "7621": 122,
        "7622": 66,
        "7623": 46,
        "7624": 146,
        "7625": 4,
        "7626": 141,
        "7627": 80,
        "7628": 84,
        "7629": 244,
        "7630": 93,
        "7631": 186,
        "7632": 151,
        "7633": 191,
        "7634": 73,
        "7635": 70,
        "7636": 16,
        "7637": 199,
        "7638": 57,
        "7639": 28,
        "7640": 46,
        "7641": 94,
        "7642": 186,
        "7643": 48,
        "7644": 21,
        "7645": 249,
        "7646": 106,
        "7647": 147,
        "7648": 131,
        "7649": 177,
        "7650": 163,
        "7651": 181,
        "7652": 169,
        "7653": 132,
        "7654": 136,
        "7655": 61,
        "7656": 153,
        "7657": 22,
        "7658": 119,
        "7659": 159,
        "7660": 249,
        "7661": 3,
        "7662": 72,
        "7663": 147,
        "7664": 43,
        "7665": 117,
        "7666": 78,
        "7667": 130,
        "7668": 229,
        "7669": 1,
        "7670": 77,
        "7671": 254,
        "7672": 200,
        "7673": 166,
        "7674": 49,
        "7675": 142,
        "7676": 140,
        "7677": 16,
        "7678": 202,
        "7679": 122,
        "7680": 106,
        "7681": 9,
        "7682": 106,
        "7683": 153,
        "7684": 177,
        "7685": 151,
        "7686": 184,
        "7687": 59,
        "7688": 160,
        "7689": 156,
        "7690": 102,
        "7691": 165,
        "7692": 158,
        "7693": 75,
        "7694": 53,
        "7695": 190,
        "7696": 180,
        "7697": 177,
        "7698": 83,
        "7699": 56,
        "7700": 164,
        "7701": 67,
        "7702": 186,
        "7703": 212,
        "7704": 219,
        "7705": 154,
        "7706": 114,
        "7707": 78,
        "7708": 210,
        "7709": 164,
        "7710": 198,
        "7711": 118,
        "7712": 123,
        "7713": 95,
        "7714": 138,
        "7715": 1,
        "7716": 118,
        "7717": 157,
        "7718": 150,
        "7719": 104,
        "7720": 90,
        "7721": 131,
        "7722": 77,
        "7723": 183,
        "7724": 237,
        "7725": 136,
        "7726": 239,
        "7727": 45,
        "7728": 85,
        "7729": 77,
        "7730": 89,
        "7731": 35,
        "7732": 246,
        "7733": 141,
        "7734": 151,
        "7735": 168,
        "7736": 215,
        "7737": 115,
        "7738": 218,
        "7739": 228,
        "7740": 33,
        "7741": 40,
        "7742": 201,
        "7743": 59,
        "7744": 122,
        "7745": 27,
        "7746": 200,
        "7747": 134,
        "7748": 235,
        "7749": 199,
        "7750": 126,
        "7751": 87,
        "7752": 243,
        "7753": 45,
        "7754": 84,
        "7755": 202,
        "7756": 246,
        "7757": 120,
        "7758": 127,
        "7759": 92,
        "7760": 80,
        "7761": 128,
        "7762": 89,
        "7763": 96,
        "7764": 245,
        "7765": 242,
        "7766": 157,
        "7767": 25,
        "7768": 217,
        "7769": 156,
        "7770": 45,
        "7771": 7,
        "7772": 48,
        "7773": 175,
        "7774": 96,
        "7775": 226,
        "7776": 68,
        "7777": 234,
        "7778": 85,
        "7779": 147,
        "7780": 139,
        "7781": 30,
        "7782": 133,
        "7783": 125,
        "7784": 222,
        "7785": 220,
        "7786": 211,
        "7787": 236,
        "7788": 40,
        "7789": 59,
        "7790": 211,
        "7791": 158,
        "7792": 173,
        "7793": 24,
        "7794": 253,
        "7795": 210,
        "7796": 243,
        "7797": 120,
        "7798": 84,
        "7799": 61,
        "7800": 213,
        "7801": 115,
        "7802": 103,
        "7803": 170,
        "7804": 16,
        "7805": 98,
        "7806": 171,
        "7807": 50,
        "7808": 250,
        "7809": 248,
        "7810": 108,
        "7811": 216,
        "7812": 240,
        "7813": 122,
        "7814": 210,
        "7815": 9,
        "7816": 55,
        "7817": 193,
        "7818": 204,
        "7819": 215,
        "7820": 58,
        "7821": 209,
        "7822": 202,
        "7823": 136,
        "7824": 143,
        "7825": 28,
        "7826": 47,
        "7827": 203,
        "7828": 233,
        "7829": 234,
        "7830": 146,
        "7831": 106,
        "7832": 188,
        "7833": 236,
        "7834": 84,
        "7835": 192,
        "7836": 129,
        "7837": 134,
        "7838": 92,
        "7839": 104,
        "7840": 246,
        "7841": 14,
        "7842": 242,
        "7843": 53,
        "7844": 246,
        "7845": 248,
        "7846": 137,
        "7847": 81,
        "7848": 170,
        "7849": 120,
        "7850": 87,
        "7851": 20,
        "7852": 215,
        "7853": 227,
        "7854": 238,
        "7855": 39,
        "7856": 60,
        "7857": 253,
        "7858": 59,
        "7859": 251,
        "7860": 235,
        "7861": 144,
        "7862": 220,
        "7863": 235,
        "7864": 6,
        "7865": 63,
        "7866": 23,
        "7867": 19,
        "7868": 69,
        "7869": 90,
        "7870": 115,
        "7871": 46,
        "7872": 202,
        "7873": 131,
        "7874": 77,
        "7875": 195,
        "7876": 217,
        "7877": 32,
        "7878": 255,
        "7879": 229,
        "7880": 203,
        "7881": 135,
        "7882": 108,
        "7883": 90,
        "7884": 112,
        "7885": 88,
        "7886": 49,
        "7887": 143,
        "7888": 180,
        "7889": 61,
        "7890": 248,
        "7891": 176,
        "7892": 144,
        "7893": 130,
        "7894": 166,
        "7895": 242,
        "7896": 28,
        "7897": 185,
        "7898": 66,
        "7899": 141,
        "7900": 208,
        "7901": 19,
        "7902": 181,
        "7903": 80,
        "7904": 70,
        "7905": 84,
        "7906": 12,
        "7907": 67,
        "7908": 171,
        "7909": 241,
        "7910": 61,
        "7911": 50,
        "7912": 138,
        "7913": 36,
        "7914": 216,
        "7915": 212,
        "7916": 248,
        "7917": 209,
        "7918": 52,
        "7919": 96,
        "7920": 227,
        "7921": 58,
        "7922": 246,
        "7923": 196,
        "7924": 25,
        "7925": 126,
        "7926": 70,
        "7927": 233,
        "7928": 30,
        "7929": 223,
        "7930": 186,
        "7931": 245,
        "7932": 55,
        "7933": 196,
        "7934": 94,
        "7935": 158,
        "7936": 98,
        "7937": 255,
        "7938": 149,
        "7939": 229,
        "7940": 100,
        "7941": 176,
        "7942": 222,
        "7943": 210,
        "7944": 238,
        "7945": 95,
        "7946": 124,
        "7947": 16,
        "7948": 116,
        "7949": 221,
        "7950": 113,
        "7951": 222,
        "7952": 188,
        "7953": 87,
        "7954": 30,
        "7955": 122,
        "7956": 90,
        "7957": 94,
        "7958": 249,
        "7959": 220,
        "7960": 84,
        "7961": 10,
        "7962": 211,
        "7963": 251,
        "7964": 210,
        "7965": 5,
        "7966": 77,
        "7967": 204,
        "7968": 130,
        "7969": 223,
        "7970": 199,
        "7971": 8,
        "7972": 148,
        "7973": 164,
        "7974": 0,
        "7975": 254,
        "7976": 50,
        "7977": 27,
        "7978": 139,
        "7979": 248,
        "7980": 200,
        "7981": 26,
        "7982": 11,
        "7983": 12,
        "7984": 167,
        "7985": 143,
        "7986": 35,
        "7987": 138,
        "7988": 16,
        "7989": 28,
        "7990": 66,
        "7991": 233,
        "7992": 142,
        "7993": 19,
        "7994": 1,
        "7995": 198,
        "7996": 168,
        "7997": 71,
        "7998": 208,
        "7999": 254,
        "8000": 231,
        "8001": 183,
        "8002": 94,
        "8003": 180,
        "8004": 54,
        "8005": 64,
        "8006": 89,
        "8007": 195,
        "8008": 108,
        "8009": 199,
        "8010": 26,
        "8011": 12,
        "8012": 50,
        "8013": 120,
        "8014": 2,
        "8015": 61,
        "8016": 249,
        "8017": 249,
        "8018": 110,
        "8019": 177,
        "8020": 58,
        "8021": 139,
        "8022": 38,
        "8023": 237,
        "8024": 207,
        "8025": 168,
        "8026": 229,
        "8027": 8,
        "8028": 113,
        "8029": 111,
        "8030": 181,
        "8031": 113,
        "8032": 192,
        "8033": 146,
        "8034": 66,
        "8035": 200,
        "8036": 11,
        "8037": 72,
        "8038": 208,
        "8039": 93,
        "8040": 149,
        "8041": 53,
        "8042": 135,
        "8043": 217,
        "8044": 240,
        "8045": 210,
        "8046": 170,
        "8047": 220,
        "8048": 182,
        "8049": 123,
        "8050": 95,
        "8051": 94,
        "8052": 188,
        "8053": 6,
        "8054": 34,
        "8055": 150,
        "8056": 4,
        "8057": 225,
        "8058": 207,
        "8059": 174,
        "8060": 33,
        "8061": 128,
        "8062": 124,
        "8063": 85,
        "8064": 157,
        "8065": 166,
        "8066": 52,
        "8067": 255,
        "8068": 145,
        "8069": 32,
        "8070": 3,
        "8071": 47,
        "8072": 139,
        "8073": 158,
        "8074": 167,
        "8075": 82,
        "8076": 156,
        "8077": 161,
        "8078": 48,
        "8079": 17,
        "8080": 17,
        "8081": 48,
        "8082": 187,
        "8083": 127,
        "8084": 169,
        "8085": 3,
        "8086": 128,
        "8087": 172,
        "8088": 64,
        "8089": 26,
        "8090": 216,
        "8091": 146,
        "8092": 82,
        "8093": 76,
        "8094": 96,
        "8095": 171,
        "8096": 138,
        "8097": 207,
        "8098": 177,
        "8099": 164,
        "8100": 32,
        "8101": 165,
        "8102": 188,
        "8103": 68,
        "8104": 99,
        "8105": 3,
        "8106": 127,
        "8107": 129,
        "8108": 191,
        "8109": 129,
        "8110": 204,
        "8111": 76,
        "8112": 138,
        "8113": 138,
        "8114": 28,
        "8115": 47,
        "8116": 178,
        "8117": 192,
        "8118": 231,
        "8119": 107,
        "8120": 241,
        "8121": 197,
        "8122": 12,
        "8123": 150,
        "8124": 221,
        "8125": 116,
        "8126": 235,
        "8127": 239,
        "8128": 59,
        "8129": 124,
        "8130": 159,
        "8131": 151,
        "8132": 244,
        "8133": 33,
        "8134": 198,
        "8135": 39,
        "8136": 59,
        "8137": 29,
        "8138": 35,
        "8139": 92,
        "8140": 184,
        "8141": 102,
        "8142": 65,
        "8143": 16,
        "8144": 155,
        "8145": 251,
        "8146": 112,
        "8147": 74,
        "8148": 153,
        "8149": 244,
        "8150": 233,
        "8151": 55,
        "8152": 3,
        "8153": 237,
        "8154": 243,
        "8155": 130,
        "8156": 71,
        "8157": 224,
        "8158": 177,
        "8159": 50,
        "8160": 224,
        "8161": 153,
        "8162": 80,
        "8163": 51,
        "8164": 63,
        "8165": 144,
        "8166": 64,
        "8167": 133,
        "8168": 217,
        "8169": 18,
        "8170": 160,
        "8171": 195,
        "8172": 52,
        "8173": 166,
        "8174": 41,
        "8175": 33,
        "8176": 168,
        "8177": 205,
        "8178": 181,
        "8179": 169,
        "8180": 18,
        "8181": 171,
        "8182": 182,
        "8183": 22,
        "8184": 210,
        "8185": 137,
        "8186": 197,
        "8187": 238,
        "8188": 205,
        "8189": 146,
        "8190": 109,
        "8191": 105,
        "8192": 91,
        "8193": 196,
        "8194": 135,
        "8195": 171,
        "8196": 115,
        "8197": 254,
        "8198": 237,
        "8199": 18,
        "8200": 19,
        "8201": 215,
        "8202": 41,
        "8203": 5,
        "8204": 220,
        "8205": 233,
        "8206": 227,
        "8207": 94,
        "8208": 82,
        "8209": 113,
        "8210": 177,
        "8211": 0,
        "8212": 13,
        "8213": 127,
        "8214": 54,
        "8215": 93,
        "8216": 67,
        "8217": 218,
        "8218": 4,
        "8219": 199,
        "8220": 153,
        "8221": 184,
        "8222": 126,
        "8223": 126,
        "8224": 226,
        "8225": 39,
        "8226": 186,
        "8227": 44,
        "8228": 65,
        "8229": 16,
        "8230": 66,
        "8231": 20,
        "8232": 249,
        "8233": 228,
        "8234": 36,
        "8235": 119,
        "8236": 139,
        "8237": 5,
        "8238": 241,
        "8239": 223,
        "8240": 197,
        "8241": 244,
        "8242": 186,
        "8243": 119,
        "8244": 15,
        "8245": 16,
        "8246": 174,
        "8247": 22,
        "8248": 57,
        "8249": 191,
        "8250": 3,
        "8251": 11,
        "8252": 63,
        "8253": 5,
        "8254": 17,
        "8255": 244,
        "8256": 222,
        "8257": 186,
        "8258": 7,
        "8259": 145,
        "8260": 189,
        "8261": 96,
        "8262": 45,
        "8263": 20,
        "8264": 199,
        "8265": 30,
        "8266": 31,
        "8267": 76,
        "8268": 127,
        "8269": 148,
        "8270": 150,
        "8271": 86,
        "8272": 180,
        "8273": 125,
        "8274": 186,
        "8275": 111,
        "8276": 161,
        "8277": 44,
        "8278": 211,
        "8279": 17,
        "8280": 94,
        "8281": 155,
        "8282": 147,
        "8283": 114,
        "8284": 96,
        "8285": 205,
        "8286": 136,
        "8287": 177,
        "8288": 173,
        "8289": 58,
        "8290": 35,
        "8291": 82,
        "8292": 7,
        "8293": 119,
        "8294": 93,
        "8295": 104,
        "8296": 150,
        "8297": 195,
        "8298": 250,
        "8299": 83,
        "8300": 230,
        "8301": 195,
        "8302": 215,
        "8303": 195,
        "8304": 146,
        "8305": 243,
        "8306": 128,
        "8307": 195,
        "8308": 87,
        "8309": 221,
        "8310": 53,
        "8311": 215,
        "8312": 43,
        "8313": 72,
        "8314": 184,
        "8315": 167,
        "8316": 3,
        "8317": 123,
        "8318": 1,
        "8319": 216,
        "8320": 40,
        "8321": 129,
        "8322": 200,
        "8323": 33,
        "8324": 12,
        "8325": 240,
        "8326": 125,
        "8327": 170,
        "8328": 26,
        "8329": 20,
        "8330": 235,
        "8331": 0,
        "8332": 84,
        "8333": 97,
        "8334": 74,
        "8335": 252,
        "8336": 208,
        "8337": 215,
        "8338": 38,
        "8339": 6,
        "8340": 103,
        "8341": 132,
        "8342": 228,
        "8343": 243,
        "8344": 149,
        "8345": 99,
        "8346": 118,
        "8347": 15,
        "8348": 104,
        "8349": 112,
        "8350": 137,
        "8351": 161,
        "8352": 174,
        "8353": 53,
        "8354": 19,
        "8355": 104,
        "8356": 75,
        "8357": 11,
        "8358": 50,
        "8359": 165,
        "8360": 216,
        "8361": 14,
        "8362": 98,
        "8363": 210,
        "8364": 6,
        "8365": 117,
        "8366": 146,
        "8367": 239,
        "8368": 65,
        "8369": 76,
        "8370": 66,
        "8371": 245,
        "8372": 119,
        "8373": 169,
        "8374": 185,
        "8375": 241,
        "8376": 181,
        "8377": 203,
        "8378": 138,
        "8379": 193,
        "8380": 12,
        "8381": 53,
        "8382": 230,
        "8383": 43,
        "8384": 176,
        "8385": 167,
        "8386": 190,
        "8387": 216,
        "8388": 126,
        "8389": 209,
        "8390": 251,
        "8391": 92,
        "8392": 172,
        "8393": 64,
        "8394": 83,
        "8395": 30,
        "8396": 113,
        "8397": 58,
        "8398": 143,
        "8399": 176,
        "8400": 236,
        "8401": 207,
        "8402": 246,
        "8403": 192,
        "8404": 60,
        "8405": 54,
        "8406": 197,
        "8407": 182,
        "8408": 101,
        "8409": 155,
        "8410": 89,
        "8411": 42,
        "8412": 150,
        "8413": 91,
        "8414": 117,
        "8415": 146,
        "8416": 128,
        "8417": 131,
        "8418": 117,
        "8419": 120,
        "8420": 47,
        "8421": 116,
        "8422": 240,
        "8423": 81,
        "8424": 165,
        "8425": 133,
        "8426": 240,
        "8427": 180,
        "8428": 254,
        "8429": 89,
        "8430": 87,
        "8431": 135,
        "8432": 224,
        "8433": 192,
        "8434": 174,
        "8435": 196,
        "8436": 27,
        "8437": 128,
        "8438": 125,
        "8439": 226,
        "8440": 90,
        "8441": 116,
        "8442": 148,
        "8443": 187,
        "8444": 174,
        "8445": 221,
        "8446": 79,
        "8447": 172,
        "8448": 183,
        "8449": 245,
        "8450": 202,
        "8451": 197,
        "8452": 189,
        "8453": 211,
        "8454": 104,
        "8455": 185,
        "8456": 72,
        "8457": 165,
        "8458": 120,
        "8459": 132,
        "8460": 209,
        "8461": 24,
        "8462": 194,
        "8463": 108,
        "8464": 192,
        "8465": 62,
        "8466": 142,
        "8467": 174,
        "8468": 163,
        "8469": 23,
        "8470": 111,
        "8471": 12,
        "8472": 140,
        "8473": 27,
        "8474": 65,
        "8475": 37,
        "8476": 130,
        "8477": 255,
        "8478": 136,
        "8479": 216,
        "8480": 90,
        "8481": 188,
        "8482": 204,
        "8483": 210,
        "8484": 235,
        "8485": 254,
        "8486": 222,
        "8487": 29,
        "8488": 191,
        "8489": 162,
        "8490": 31,
        "8491": 110,
        "8492": 210,
        "8493": 182,
        "8494": 95,
        "8495": 79,
        "8496": 46,
        "8497": 27,
        "8498": 91,
        "8499": 171,
        "8500": 160,
        "8501": 176,
        "8502": 132,
        "8503": 65,
        "8504": 32,
        "8505": 134,
        "8506": 39,
        "8507": 140,
        "8508": 237,
        "8509": 97,
        "8510": 33,
        "8511": 105,
        "8512": 46,
        "8513": 178,
        "8514": 211,
        "8515": 227,
        "8516": 82,
        "8517": 208,
        "8518": 64,
        "8519": 82,
        "8520": 86,
        "8521": 60,
        "8522": 33,
        "8523": 152,
        "8524": 30,
        "8525": 158,
        "8526": 141,
        "8527": 229,
        "8528": 139,
        "8529": 157,
        "8530": 250,
        "8531": 136,
        "8532": 161,
        "8533": 137,
        "8534": 113,
        "8535": 91,
        "8536": 223,
        "8537": 60,
        "8538": 60,
        "8539": 104,
        "8540": 56,
        "8541": 142,
        "8542": 232,
        "8543": 115,
        "8544": 80,
        "8545": 238,
        "8546": 58,
        "8547": 242,
        "8548": 213,
        "8549": 201,
        "8550": 49,
        "8551": 219,
        "8552": 26,
        "8553": 207,
        "8554": 33,
        "8555": 0,
        "8556": 85,
        "8557": 25,
        "8558": 193,
        "8559": 183,
        "8560": 74,
        "8561": 211,
        "8562": 220,
        "8563": 249,
        "8564": 168,
        "8565": 47,
        "8566": 95,
        "8567": 91,
        "8568": 117,
        "8569": 80,
        "8570": 159,
        "8571": 97,
        "8572": 180,
        "8573": 222,
        "8574": 44,
        "8575": 9,
        "8576": 249,
        "8577": 64,
        "8578": 25,
        "8579": 72,
        "8580": 56,
        "8581": 58,
        "8582": 47,
        "8583": 191,
        "8584": 98,
        "8585": 73,
        "8586": 185,
        "8587": 20,
        "8588": 97,
        "8589": 225,
        "8590": 220,
        "8591": 108,
        "8592": 138,
        "8593": 152,
        "8594": 19,
        "8595": 253,
        "8596": 182,
        "8597": 136,
        "8598": 183,
        "8599": 24,
        "8600": 191,
        "8601": 193,
        "8602": 69,
        "8603": 98,
        "8604": 232,
        "8605": 91,
        "8606": 24,
        "8607": 53,
        "8608": 98,
        "8609": 15,
        "8610": 49,
        "8611": 10,
        "8612": 220,
        "8613": 100,
        "8614": 3,
        "8615": 106,
        "8616": 21,
        "8617": 226,
        "8618": 158,
        "8619": 203,
        "8620": 23,
        "8621": 113,
        "8622": 40,
        "8623": 205,
        "8624": 238,
        "8625": 203,
        "8626": 195,
        "8627": 17,
        "8628": 105,
        "8629": 107,
        "8630": 80,
        "8631": 23,
        "8632": 57,
        "8633": 13,
        "8634": 174,
        "8635": 15,
        "8636": 236,
        "8637": 137,
        "8638": 229,
        "8639": 135,
        "8640": 214,
        "8641": 77,
        "8642": 44,
        "8643": 164,
        "8644": 158,
        "8645": 189,
        "8646": 171,
        "8647": 32,
        "8648": 167,
        "8649": 121,
        "8650": 109,
        "8651": 194,
        "8652": 32,
        "8653": 95,
        "8654": 214,
        "8655": 129,
        "8656": 255,
        "8657": 90,
        "8658": 127,
        "8659": 57,
        "8660": 25,
        "8661": 3,
        "8662": 81,
        "8663": 234,
        "8664": 41,
        "8665": 153,
        "8666": 176,
        "8667": 72,
        "8668": 158,
        "8669": 34,
        "8670": 37,
        "8671": 191,
        "8672": 150,
        "8673": 111,
        "8674": 35,
        "8675": 173,
        "8676": 37,
        "8677": 7,
        "8678": 156,
        "8679": 39,
        "8680": 10,
        "8681": 175,
        "8682": 98,
        "8683": 243,
        "8684": 160,
        "8685": 17,
        "8686": 70,
        "8687": 174,
        "8688": 208,
        "8689": 215,
        "8690": 183,
        "8691": 237,
        "8692": 159,
        "8693": 152,
        "8694": 9,
        "8695": 114,
        "8696": 157,
        "8697": 193,
        "8698": 244,
        "8699": 178,
        "8700": 59,
        "8701": 127,
        "8702": 201,
        "8703": 90,
        "8704": 215,
        "8705": 204,
        "8706": 228,
        "8707": 53,
        "8708": 189,
        "8709": 167,
        "8710": 80,
        "8711": 241,
        "8712": 210,
        "8713": 34,
        "8714": 127,
        "8715": 9,
        "8716": 176,
        "8717": 143,
        "8718": 117,
        "8719": 102,
        "8720": 92,
        "8721": 82,
        "8722": 60,
        "8723": 142,
        "8724": 241,
        "8725": 208,
        "8726": 55,
        "8727": 59,
        "8728": 197,
        "8729": 196,
        "8730": 209,
        "8731": 79,
        "8732": 175,
        "8733": 196,
        "8734": 11,
        "8735": 107,
        "8736": 44,
        "8737": 46,
        "8738": 124,
        "8739": 15,
        "8740": 184,
        "8741": 213,
        "8742": 204,
        "8743": 175,
        "8744": 201,
        "8745": 137,
        "8746": 178,
        "8747": 61,
        "8748": 206,
        "8749": 40,
        "8750": 21,
        "8751": 97,
        "8752": 151,
        "8753": 32,
        "8754": 14,
        "8755": 21,
        "8756": 154,
        "8757": 4,
        "8758": 54,
        "8759": 141,
        "8760": 22,
        "8761": 181,
        "8762": 66,
        "8763": 105,
        "8764": 129,
        "8765": 110,
        "8766": 27,
        "8767": 44,
        "8768": 239,
        "8769": 255,
        "8770": 48,
        "8771": 182,
        "8772": 4,
        "8773": 2,
        "8774": 166,
        "8775": 11,
        "8776": 47,
        "8777": 25,
        "8778": 249,
        "8779": 204,
        "8780": 63,
        "8781": 75,
        "8782": 252,
        "8783": 180,
        "8784": 36,
        "8785": 229,
        "8786": 141,
        "8787": 210,
        "8788": 194,
        "8789": 148,
        "8790": 5,
        "8791": 205,
        "8792": 124,
        "8793": 197,
        "8794": 91,
        "8795": 253,
        "8796": 12,
        "8797": 218,
        "8798": 169,
        "8799": 127,
        "8800": 106,
        "8801": 37,
        "8802": 200,
        "8803": 116,
        "8804": 148,
        "8805": 160,
        "8806": 144,
        "8807": 128,
        "8808": 165,
        "8809": 250,
        "8810": 180,
        "8811": 244,
        "8812": 180,
        "8813": 131,
        "8814": 137,
        "8815": 205,
        "8816": 225,
        "8817": 132,
        "8818": 104,
        "8819": 19,
        "8820": 162,
        "8821": 252,
        "8822": 136,
        "8823": 84,
        "8824": 139,
        "8825": 120,
        "8826": 138,
        "8827": 53,
        "8828": 149,
        "8829": 64,
        "8830": 29,
        "8831": 182,
        "8832": 186,
        "8833": 187,
        "8834": 103,
        "8835": 118,
        "8836": 51,
        "8837": 223,
        "8838": 173,
        "8839": 74,
        "8840": 200,
        "8841": 216,
        "8842": 126,
        "8843": 184,
        "8844": 235,
        "8845": 24,
        "8846": 254,
        "8847": 169,
        "8848": 187,
        "8849": 1,
        "8850": 47,
        "8851": 5,
        "8852": 5,
        "8853": 209,
        "8854": 124,
        "8855": 29,
        "8856": 25,
        "8857": 34,
        "8858": 89,
        "8859": 68,
        "8860": 69,
        "8861": 118,
        "8862": 48,
        "8863": 132,
        "8864": 206,
        "8865": 106,
        "8866": 235,
        "8867": 10,
        "8868": 112,
        "8869": 112,
        "8870": 52,
        "8871": 32,
        "8872": 71,
        "8873": 247,
        "8874": 129,
        "8875": 204,
        "8876": 227,
        "8877": 128,
        "8878": 56,
        "8879": 68,
        "8880": 153,
        "8881": 196,
        "8882": 192,
        "8883": 116,
        "8884": 240,
        "8885": 192,
        "8886": 17,
        "8887": 141,
        "8888": 108,
        "8889": 249,
        "8890": 4,
        "8891": 3,
        "8892": 154,
        "8893": 243,
        "8894": 153,
        "8895": 252,
        "8896": 145,
        "8897": 122,
        "8898": 80,
        "8899": 154,
        "8900": 17,
        "8901": 151,
        "8902": 185,
        "8903": 240,
        "8904": 218,
        "8905": 16,
        "8906": 110,
        "8907": 228,
        "8908": 72,
        "8909": 148,
        "8910": 191,
        "8911": 38,
        "8912": 215,
        "8913": 93,
        "8914": 55,
        "8915": 53,
        "8916": 83,
        "8917": 236,
        "8918": 61,
        "8919": 146,
        "8920": 142,
        "8921": 116,
        "8922": 36,
        "8923": 218,
        "8924": 41,
        "8925": 27,
        "8926": 190,
        "8927": 240,
        "8928": 41,
        "8929": 42,
        "8930": 55,
        "8931": 129,
        "8932": 185,
        "8933": 27,
        "8934": 172,
        "8935": 236,
        "8936": 44,
        "8937": 45,
        "8938": 210,
        "8939": 26,
        "8940": 166,
        "8941": 63,
        "8942": 187,
        "8943": 190,
        "8944": 39,
        "8945": 202,
        "8946": 139,
        "8947": 190,
        "8948": 48,
        "8949": 199,
        "8950": 179,
        "8951": 154,
        "8952": 132,
        "8953": 11,
        "8954": 129,
        "8955": 226,
        "8956": 215,
        "8957": 79,
        "8958": 2,
        "8959": 192,
        "8960": 36,
        "8961": 50,
        "8962": 37,
        "8963": 57,
        "8964": 180,
        "8965": 75,
        "8966": 23,
        "8967": 16,
        "8968": 253,
        "8969": 85,
        "8970": 20,
        "8971": 111,
        "8972": 106,
        "8973": 157,
        "8974": 159,
        "8975": 121,
        "8976": 8,
        "8977": 208,
        "8978": 232,
        "8979": 209,
        "8980": 41,
        "8981": 208,
        "8982": 220,
        "8983": 40,
        "8984": 142,
        "8985": 164,
        "8986": 59,
        "8987": 127,
        "8988": 71,
        "8989": 28,
        "8990": 112,
        "8991": 149,
        "8992": 16,
        "8993": 150,
        "8994": 49,
        "8995": 172,
        "8996": 217,
        "8997": 196,
        "8998": 151,
        "8999": 132,
        "9000": 244,
        "9001": 42,
        "9002": 32,
        "9003": 73,
        "9004": 245,
        "9005": 26,
        "9006": 14,
        "9007": 194,
        "9008": 90,
        "9009": 34,
        "9010": 239,
        "9011": 193,
        "9012": 96,
        "9013": 244,
        "9014": 166,
        "9015": 6,
        "9016": 93,
        "9017": 251,
        "9018": 34,
        "9019": 172,
        "9020": 61,
        "9021": 3,
        "9022": 87,
        "9023": 146,
        "9024": 27,
        "9025": 4,
        "9026": 134,
        "9027": 182,
        "9028": 227,
        "9029": 60,
        "9030": 50,
        "9031": 137,
        "9032": 175,
        "9033": 46,
        "9034": 6,
        "9035": 252,
        "9036": 98,
        "9037": 219,
        "9038": 125,
        "9039": 193,
        "9040": 15,
        "9041": 2,
        "9042": 251,
        "9043": 119,
        "9044": 63,
        "9045": 18,
        "9046": 188,
        "9047": 208,
        "9048": 48,
        "9049": 51,
        "9050": 125,
        "9051": 136,
        "9052": 28,
        "9053": 122,
        "9054": 68,
        "9055": 188,
        "9056": 179,
        "9057": 222,
        "9058": 87,
        "9059": 217,
        "9060": 45,
        "9061": 28,
        "9062": 40,
        "9063": 86,
        "9064": 12,
        "9065": 251,
        "9066": 57,
        "9067": 96,
        "9068": 173,
        "9069": 182,
        "9070": 90,
        "9071": 208,
        "9072": 233,
        "9073": 89,
        "9074": 30,
        "9075": 68,
        "9076": 52,
        "9077": 141,
        "9078": 16,
        "9079": 162,
        "9080": 238,
        "9081": 120,
        "9082": 57,
        "9083": 54,
        "9084": 31,
        "9085": 198,
        "9086": 138,
        "9087": 68,
        "9088": 111,
        "9089": 9,
        "9090": 186,
        "9091": 72,
        "9092": 15,
        "9093": 238,
        "9094": 49,
        "9095": 232,
        "9096": 31,
        "9097": 157,
        "9098": 197,
        "9099": 226,
        "9100": 122,
        "9101": 155,
        "9102": 156,
        "9103": 163,
        "9104": 234,
        "9105": 216,
        "9106": 35,
        "9107": 67,
        "9108": 142,
        "9109": 66,
        "9110": 70,
        "9111": 74,
        "9112": 32,
        "9113": 54,
        "9114": 233,
        "9115": 41,
        "9116": 28,
        "9117": 206,
        "9118": 77,
        "9119": 25,
        "9120": 118,
        "9121": 76,
        "9122": 120,
        "9123": 216,
        "9124": 165,
        "9125": 92,
        "9126": 222,
        "9127": 28,
        "9128": 96,
        "9129": 163,
        "9130": 11,
        "9131": 215,
        "9132": 162,
        "9133": 5,
        "9134": 23,
        "9135": 8,
        "9136": 27,
        "9137": 219,
        "9138": 110,
        "9139": 31,
        "9140": 18,
        "9141": 242,
        "9142": 103,
        "9143": 201,
        "9144": 169,
        "9145": 110,
        "9146": 158,
        "9147": 148,
        "9148": 175,
        "9149": 80,
        "9150": 176,
        "9151": 19,
        "9152": 51,
        "9153": 60,
        "9154": 251,
        "9155": 230,
        "9156": 124,
        "9157": 186,
        "9158": 209,
        "9159": 167,
        "9160": 121,
        "9161": 255,
        "9162": 98,
        "9163": 131,
        "9164": 105,
        "9165": 18,
        "9166": 228,
        "9167": 34,
        "9168": 34,
        "9169": 99,
        "9170": 145,
        "9171": 70,
        "9172": 241,
        "9173": 89,
        "9174": 96,
        "9175": 251,
        "9176": 162,
        "9177": 229,
        "9178": 29,
        "9179": 211,
        "9180": 207,
        "9181": 139,
        "9182": 206,
        "9183": 174,
        "9184": 103,
        "9185": 156,
        "9186": 161,
        "9187": 203,
        "9188": 172,
        "9189": 250,
        "9190": 98,
        "9191": 90,
        "9192": 68,
        "9193": 62,
        "9194": 169,
        "9195": 218,
        "9196": 14,
        "9197": 80,
        "9198": 170,
        "9199": 46,
        "9200": 10,
        "9201": 178,
        "9202": 152,
        "9203": 1,
        "9204": 213,
        "9205": 217,
        "9206": 17,
        "9207": 61,
        "9208": 116,
        "9209": 53,
        "9210": 107,
        "9211": 122,
        "9212": 75,
        "9213": 186,
        "9214": 214,
        "9215": 69,
        "9216": 135,
        "9217": 195,
        "9218": 185,
        "9219": 251,
        "9220": 20,
        "9221": 83,
        "9222": 178,
        "9223": 143,
        "9224": 40,
        "9225": 133,
        "9226": 88,
        "9227": 190,
        "9228": 189,
        "9229": 6,
        "9230": 108,
        "9231": 148,
        "9232": 92,
        "9233": 192,
        "9234": 22,
        "9235": 136,
        "9236": 252,
        "9237": 218,
        "9238": 13,
        "9239": 210,
        "9240": 62,
        "9241": 89,
        "9242": 180,
        "9243": 78,
        "9244": 190,
        "9245": 77,
        "9246": 232,
        "9247": 82,
        "9248": 46,
        "9249": 106,
        "9250": 77,
        "9251": 69,
        "9252": 238,
        "9253": 100,
        "9254": 169,
        "9255": 120,
        "9256": 56,
        "9257": 240,
        "9258": 31,
        "9259": 53,
        "9260": 199,
        "9261": 56,
        "9262": 238,
        "9263": 89,
        "9264": 89,
        "9265": 156,
        "9266": 25,
        "9267": 143,
        "9268": 0,
        "9269": 195,
        "9270": 206,
        "9271": 122,
        "9272": 73,
        "9273": 60,
        "9274": 182,
        "9275": 13,
        "9276": 185,
        "9277": 173,
        "9278": 182,
        "9279": 1,
        "9280": 202,
        "9281": 64,
        "9282": 3,
        "9283": 30,
        "9284": 205,
        "9285": 188,
        "9286": 58,
        "9287": 197,
        "9288": 33,
        "9289": 107,
        "9290": 147,
        "9291": 23,
        "9292": 141,
        "9293": 25,
        "9294": 231,
        "9295": 12,
        "9296": 9,
        "9297": 236,
        "9298": 212,
        "9299": 117,
        "9300": 89,
        "9301": 142,
        "9302": 5,
        "9303": 105,
        "9304": 196,
        "9305": 70,
        "9306": 177,
        "9307": 150,
        "9308": 221,
        "9309": 89,
        "9310": 26,
        "9311": 233,
        "9312": 119,
        "9313": 2,
        "9314": 116,
        "9315": 137,
        "9316": 24,
        "9317": 182,
        "9318": 52,
        "9319": 107,
        "9320": 8,
        "9321": 14,
        "9322": 127,
        "9323": 64,
        "9324": 5,
        "9325": 197,
        "9326": 83,
        "9327": 236,
        "9328": 8,
        "9329": 180,
        "9330": 201,
        "9331": 20,
        "9332": 12,
        "9333": 14,
        "9334": 222,
        "9335": 141,
        "9336": 43,
        "9337": 184,
        "9338": 166,
        "9339": 244,
        "9340": 158,
        "9341": 214,
        "9342": 249,
        "9343": 185,
        "9344": 145,
        "9345": 232,
        "9346": 64,
        "9347": 245,
        "9348": 142,
        "9349": 157,
        "9350": 229,
        "9351": 157,
        "9352": 47,
        "9353": 97,
        "9354": 135,
        "9355": 171,
        "9356": 123,
        "9357": 110,
        "9358": 43,
        "9359": 220,
        "9360": 91,
        "9361": 239,
        "9362": 122,
        "9363": 253,
        "9364": 69,
        "9365": 93,
        "9366": 180,
        "9367": 100,
        "9368": 167,
        "9369": 63,
        "9370": 111,
        "9371": 43,
        "9372": 125,
        "9373": 162,
        "9374": 39,
        "9375": 135,
        "9376": 10,
        "9377": 57,
        "9378": 186,
        "9379": 246,
        "9380": 20,
        "9381": 80,
        "9382": 86,
        "9383": 218,
        "9384": 208,
        "9385": 108,
        "9386": 14,
        "9387": 202,
        "9388": 89,
        "9389": 181,
        "9390": 228,
        "9391": 88,
        "9392": 59,
        "9393": 169,
        "9394": 80,
        "9395": 27,
        "9396": 22,
        "9397": 187,
        "9398": 57,
        "9399": 42,
        "9400": 112,
        "9401": 96,
        "9402": 114,
        "9403": 212,
        "9404": 12,
        "9405": 216,
        "9406": 120,
        "9407": 195,
        "9408": 14,
        "9409": 72,
        "9410": 35,
        "9411": 212,
        "9412": 94,
        "9413": 42,
        "9414": 100,
        "9415": 196,
        "9416": 78,
        "9417": 163,
        "9418": 115,
        "9419": 65,
        "9420": 106,
        "9421": 151,
        "9422": 246,
        "9423": 42,
        "9424": 69,
        "9425": 195,
        "9426": 205,
        "9427": 126,
        "9428": 207,
        "9429": 199,
        "9430": 212,
        "9431": 156,
        "9432": 1,
        "9433": 38,
        "9434": 72,
        "9435": 30,
        "9436": 98,
        "9437": 108,
        "9438": 172,
        "9439": 246,
        "9440": 3,
        "9441": 218,
        "9442": 196,
        "9443": 219,
        "9444": 11,
        "9445": 205,
        "9446": 252,
        "9447": 52,
        "9448": 139,
        "9449": 207,
        "9450": 10,
        "9451": 72,
        "9452": 187,
        "9453": 89,
        "9454": 255,
        "9455": 188,
        "9456": 101,
        "9457": 91,
        "9458": 19,
        "9459": 128,
        "9460": 148,
        "9461": 172,
        "9462": 208,
        "9463": 87,
        "9464": 218,
        "9465": 175,
        "9466": 17,
        "9467": 185,
        "9468": 175,
        "9469": 63,
        "9470": 143,
        "9471": 219,
        "9472": 51,
        "9473": 141,
        "9474": 241,
        "9475": 207,
        "9476": 210,
        "9477": 103,
        "9478": 5,
        "9479": 77,
        "9480": 127,
        "9481": 164,
        "9482": 253,
        "9483": 111,
        "9484": 168,
        "9485": 49,
        "9486": 218,
        "9487": 229,
        "9488": 55,
        "9489": 83,
        "9490": 73,
        "9491": 249,
        "9492": 31,
        "9493": 100,
        "9494": 156,
        "9495": 82,
        "9496": 1,
        "9497": 107,
        "9498": 83,
        "9499": 133,
        "9500": 202,
        "9501": 33,
        "9502": 25,
        "9503": 194,
        "9504": 77,
        "9505": 207,
        "9506": 181,
        "9507": 215,
        "9508": 0,
        "9509": 94,
        "9510": 240,
        "9511": 192,
        "9512": 192,
        "9513": 250,
        "9514": 178,
        "9515": 147,
        "9516": 23,
        "9517": 188,
        "9518": 53,
        "9519": 132,
        "9520": 37,
        "9521": 156,
        "9522": 181,
        "9523": 99,
        "9524": 143,
        "9525": 3,
        "9526": 4,
        "9527": 21,
        "9528": 101,
        "9529": 6,
        "9530": 225,
        "9531": 209,
        "9532": 81,
        "9533": 96,
        "9534": 171,
        "9535": 108,
        "9536": 50,
        "9537": 160,
        "9538": 32,
        "9539": 199,
        "9540": 171,
        "9541": 59,
        "9542": 190,
        "9543": 6,
        "9544": 35,
        "9545": 54,
        "9546": 147,
        "9547": 151,
        "9548": 168,
        "9549": 167,
        "9550": 96,
        "9551": 79,
        "9552": 125,
        "9553": 93,
        "9554": 111,
        "9555": 133,
        "9556": 246,
        "9557": 246,
        "9558": 231,
        "9559": 76,
        "9560": 73,
        "9561": 246,
        "9562": 166,
        "9563": 165,
        "9564": 73,
        "9565": 29,
        "9566": 42,
        "9567": 157,
        "9568": 99,
        "9569": 171,
        "9570": 219,
        "9571": 10,
        "9572": 200,
        "9573": 143,
        "9574": 97,
        "9575": 243,
        "9576": 242,
        "9577": 156,
        "9578": 84,
        "9579": 133,
        "9580": 160,
        "9581": 162,
        "9582": 221,
        "9583": 27,
        "9584": 52,
        "9585": 29,
        "9586": 109,
        "9587": 219,
        "9588": 7,
        "9589": 141,
        "9590": 178,
        "9591": 22,
        "9592": 21,
        "9593": 138,
        "9594": 248,
        "9595": 112,
        "9596": 198,
        "9597": 0,
        "9598": 124,
        "9599": 34,
        "9600": 159,
        "9601": 181,
        "9602": 74,
        "9603": 212,
        "9604": 117,
        "9605": 49,
        "9606": 19,
        "9607": 145,
        "9608": 250,
        "9609": 190,
        "9610": 54,
        "9611": 130,
        "9612": 6,
        "9613": 240,
        "9614": 179,
        "9615": 78,
        "9616": 128,
        "9617": 51,
        "9618": 58,
        "9619": 72,
        "9620": 29,
        "9621": 155,
        "9622": 24,
        "9623": 128,
        "9624": 100,
        "9625": 137,
        "9626": 62,
        "9627": 131,
        "9628": 145,
        "9629": 12,
        "9630": 138,
        "9631": 13,
        "9632": 107,
        "9633": 185,
        "9634": 210,
        "9635": 205,
        "9636": 118,
        "9637": 4,
        "9638": 139,
        "9639": 72,
        "9640": 39,
        "9641": 121,
        "9642": 80,
        "9643": 7,
        "9644": 53,
        "9645": 207,
        "9646": 9,
        "9647": 63,
        "9648": 91,
        "9649": 33,
        "9650": 99,
        "9651": 60,
        "9652": 52,
        "9653": 198,
        "9654": 30,
        "9655": 27,
        "9656": 60,
        "9657": 253,
        "9658": 244,
        "9659": 243,
        "9660": 138,
        "9661": 62,
        "9662": 48,
        "9663": 121,
        "9664": 56,
        "9665": 238,
        "9666": 1,
        "9667": 227,
        "9668": 194,
        "9669": 143,
        "9670": 180,
        "9671": 252,
        "9672": 94,
        "9673": 186,
        "9674": 185,
        "9675": 73,
        "9676": 157,
        "9677": 24,
        "9678": 14,
        "9679": 33,
        "9680": 86,
        "9681": 84,
        "9682": 222,
        "9683": 58,
        "9684": 49,
        "9685": 54,
        "9686": 66,
        "9687": 220,
        "9688": 233,
        "9689": 85,
        "9690": 57,
        "9691": 60,
        "9692": 124,
        "9693": 126,
        "9694": 15,
        "9695": 157,
        "9696": 244,
        "9697": 205,
        "9698": 85,
        "9699": 169,
        "9700": 18,
        "9701": 155,
        "9702": 22,
        "9703": 218,
        "9704": 238,
        "9705": 47,
        "9706": 211,
        "9707": 172,
        "9708": 229,
        "9709": 142,
        "9710": 160,
        "9711": 190,
        "9712": 183,
        "9713": 221,
        "9714": 195,
        "9715": 206,
        "9716": 147,
        "9717": 137,
        "9718": 220,
        "9719": 236,
        "9720": 116,
        "9721": 57,
        "9722": 169,
        "9723": 34,
        "9724": 169,
        "9725": 221,
        "9726": 66,
        "9727": 164,
        "9728": 140,
        "9729": 169,
        "9730": 64,
        "9731": 82,
        "9732": 232,
        "9733": 150,
        "9734": 146,
        "9735": 135,
        "9736": 139,
        "9737": 91,
        "9738": 178,
        "9739": 185,
        "9740": 3,
        "9741": 200,
        "9742": 120,
        "9743": 173,
        "9744": 169,
        "9745": 58,
        "9746": 200,
        "9747": 188,
        "9748": 191,
        "9749": 36,
        "9750": 45,
        "9751": 208,
        "9752": 248,
        "9753": 93,
        "9754": 213,
        "9755": 82,
        "9756": 101,
        "9757": 146,
        "9758": 21,
        "9759": 10,
        "9760": 107,
        "9761": 178,
        "9762": 64,
        "9763": 143,
        "9764": 195,
        "9765": 3,
        "9766": 72,
        "9767": 73,
        "9768": 52,
        "9769": 141,
        "9770": 232,
        "9771": 151,
        "9772": 118,
        "9773": 12,
        "9774": 155,
        "9775": 171,
        "9776": 146,
        "9777": 227,
        "9778": 34,
        "9779": 203,
        "9780": 144,
        "9781": 50,
        "9782": 236,
        "9783": 200,
        "9784": 193,
        "9785": 249,
        "9786": 219,
        "9787": 157,
        "9788": 174,
        "9789": 117,
        "9790": 19,
        "9791": 27,
        "9792": 54,
        "9793": 123,
        "9794": 151,
        "9795": 37,
        "9796": 188,
        "9797": 204,
        "9798": 112,
        "9799": 61,
        "9800": 5,
        "9801": 155,
        "9802": 242,
        "9803": 133,
        "9804": 40,
        "9805": 36,
        "9806": 152,
        "9807": 213,
        "9808": 151,
        "9809": 214,
        "9810": 206,
        "9811": 40,
        "9812": 200,
        "9813": 240,
        "9814": 175,
        "9815": 66,
        "9816": 238,
        "9817": 52,
        "9818": 202,
        "9819": 1,
        "9820": 97,
        "9821": 26,
        "9822": 53,
        "9823": 171,
        "9824": 98,
        "9825": 186,
        "9826": 66,
        "9827": 60,
        "9828": 244,
        "9829": 142,
        "9830": 31,
        "9831": 168,
        "9832": 58,
        "9833": 19,
        "9834": 236,
        "9835": 171,
        "9836": 46,
        "9837": 38,
        "9838": 96,
        "9839": 9,
        "9840": 225,
        "9841": 94,
        "9842": 188,
        "9843": 180,
        "9844": 133,
        "9845": 167,
        "9846": 180,
        "9847": 61,
        "9848": 184,
        "9849": 154,
        "9850": 173,
        "9851": 208,
        "9852": 198,
        "9853": 61,
        "9854": 196,
        "9855": 179,
        "9856": 109,
        "9857": 58,
        "9858": 66,
        "9859": 34,
        "9860": 20,
        "9861": 166,
        "9862": 131,
        "9863": 15,
        "9864": 95,
        "9865": 145,
        "9866": 132,
        "9867": 209,
        "9868": 6,
        "9869": 135,
        "9870": 4,
        "9871": 160,
        "9872": 137,
        "9873": 225,
        "9874": 57,
        "9875": 102,
        "9876": 226,
        "9877": 221,
        "9878": 55,
        "9879": 255,
        "9880": 133,
        "9881": 76,
        "9882": 23,
        "9883": 27,
        "9884": 247,
        "9885": 138,
        "9886": 255,
        "9887": 227,
        "9888": 155,
        "9889": 11,
        "9890": 183,
        "9891": 32,
        "9892": 51,
        "9893": 65,
        "9894": 243,
        "9895": 238,
        "9896": 12,
        "9897": 85,
        "9898": 83,
        "9899": 136,
        "9900": 71,
        "9901": 100,
        "9902": 150,
        "9903": 83,
        "9904": 136,
        "9905": 240,
        "9906": 156,
        "9907": 30,
        "9908": 35,
        "9909": 105,
        "9910": 85,
        "9911": 250,
        "9912": 32,
        "9913": 87,
        "9914": 250,
        "9915": 27,
        "9916": 193,
        "9917": 218,
        "9918": 102,
        "9919": 251,
        "9920": 50,
        "9921": 39,
        "9922": 119,
        "9923": 184,
        "9924": 90,
        "9925": 172,
        "9926": 126,
        "9927": 67,
        "9928": 222,
        "9929": 63,
        "9930": 95,
        "9931": 226,
        "9932": 7,
        "9933": 117,
        "9934": 76,
        "9935": 21,
        "9936": 217,
        "9937": 20,
        "9938": 253,
        "9939": 138,
        "9940": 19,
        "9941": 9,
        "9942": 51,
        "9943": 42,
        "9944": 125,
        "9945": 232,
        "9946": 255,
        "9947": 178,
        "9948": 9,
        "9949": 29,
        "9950": 104,
        "9951": 170,
        "9952": 233,
        "9953": 165,
        "9954": 104,
        "9955": 221,
        "9956": 3,
        "9957": 193,
        "9958": 122,
        "9959": 93,
        "9960": 29,
        "9961": 252,
        "9962": 250,
        "9963": 105,
        "9964": 203,
        "9965": 151,
        "9966": 74,
        "9967": 152,
        "9968": 52,
        "9969": 214,
        "9970": 215,
        "9971": 91,
        "9972": 29,
        "9973": 246,
        "9974": 146,
        "9975": 195,
        "9976": 161,
        "9977": 103,
        "9978": 99,
        "9979": 7,
        "9980": 217,
        "9981": 100,
        "9982": 175,
        "9983": 155,
        "9984": 250,
        "9985": 200,
        "9986": 189,
        "9987": 78,
        "9988": 71,
        "9989": 225,
        "9990": 137,
        "9991": 37,
        "9992": 102,
        "9993": 19,
        "9994": 46,
        "9995": 87,
        "9996": 229,
        "9997": 242,
        "9998": 9,
        "9999": 22,
        "10000": 244,
        "10001": 81,
        "10002": 119,
        "10003": 199,
        "10004": 239,
        "10005": 70,
        "10006": 245,
        "10007": 176,
        "10008": 162,
        "10009": 210,
        "10010": 35,
        "10011": 123,
        "10012": 37,
        "10013": 218,
        "10014": 181,
        "10015": 167,
        "10016": 9,
        "10017": 5,
        "10018": 246,
        "10019": 144,
        "10020": 167,
        "10021": 249,
        "10022": 87,
        "10023": 112,
        "10024": 200,
        "10025": 229,
        "10026": 5,
        "10027": 112,
        "10028": 108,
        "10029": 230,
        "10030": 20,
        "10031": 246,
        "10032": 202,
        "10033": 248,
        "10034": 33,
        "10035": 16,
        "10036": 186,
        "10037": 220,
        "10038": 4,
        "10039": 212,
        "10040": 55,
        "10041": 117,
        "10042": 5,
        "10043": 145,
        "10044": 100,
        "10045": 183,
        "10046": 172,
        "10047": 8,
        "10048": 39,
        "10049": 1,
        "10050": 44,
        "10051": 123,
        "10052": 61,
        "10053": 99,
        "10054": 161,
        "10055": 167,
        "10056": 253,
        "10057": 104,
        "10058": 234,
        "10059": 177,
        "10060": 45,
        "10061": 137,
        "10062": 241,
        "10063": 133,
        "10064": 205,
        "10065": 231,
        "10066": 121,
        "10067": 10,
        "10068": 133,
        "10069": 198,
        "10070": 240,
        "10071": 133,
        "10072": 203,
        "10073": 203,
        "10074": 212,
        "10075": 200,
        "10076": 204,
        "10077": 249,
        "10078": 190,
        "10079": 110,
        "10080": 110,
        "10081": 155,
        "10082": 120,
        "10083": 40,
        "10084": 16,
        "10085": 100,
        "10086": 215,
        "10087": 146,
        "10088": 100,
        "10089": 54,
        "10090": 84,
        "10091": 196,
        "10092": 48,
        "10093": 26,
        "10094": 189,
        "10095": 236,
        "10096": 108,
        "10097": 41,
        "10098": 37,
        "10099": 41,
        "10100": 216,
        "10101": 150,
        "10102": 66,
        "10103": 112,
        "10104": 203,
        "10105": 239,
        "10106": 238,
        "10107": 189,
        "10108": 161,
        "10109": 250,
        "10110": 218,
        "10111": 120,
        "10112": 18,
        "10113": 173,
        "10114": 112,
        "10115": 120,
        "10116": 196,
        "10117": 240,
        "10118": 187,
        "10119": 54,
        "10120": 18,
        "10121": 202,
        "10122": 81,
        "10123": 89,
        "10124": 131,
        "10125": 104,
        "10126": 85,
        "10127": 64,
        "10128": 72,
        "10129": 55,
        "10130": 182,
        "10131": 101,
        "10132": 54,
        "10133": 34,
        "10134": 238,
        "10135": 139,
        "10136": 29,
        "10137": 42,
        "10138": 92,
        "10139": 85,
        "10140": 2,
        "10141": 70,
        "10142": 196,
        "10143": 130,
        "10144": 174,
        "10145": 29,
        "10146": 97,
        "10147": 120,
        "10148": 197,
        "10149": 200,
        "10150": 82,
        "10151": 98,
        "10152": 130,
        "10153": 213,
        "10154": 123,
        "10155": 176,
        "10156": 214,
        "10157": 11,
        "10158": 243,
        "10159": 33,
        "10160": 199,
        "10161": 151,
        "10162": 244,
        "10163": 159,
        "10164": 54,
        "10165": 105,
        "10166": 28,
        "10167": 123,
        "10168": 26,
        "10169": 178,
        "10170": 238,
        "10171": 116,
        "10172": 0,
        "10173": 63,
        "10174": 153,
        "10175": 180,
        "10176": 216,
        "10177": 104,
        "10178": 223,
        "10179": 181,
        "10180": 79,
        "10181": 241,
        "10182": 185,
        "10183": 152,
        "10184": 204,
        "10185": 171,
        "10186": 29,
        "10187": 36,
        "10188": 253,
        "10189": 153,
        "10190": 177,
        "10191": 45,
        "10192": 146,
        "10193": 167,
        "10194": 114,
        "10195": 148,
        "10196": 200,
        "10197": 40,
        "10198": 37,
        "10199": 154,
        "10200": 242,
        "10201": 75,
        "10202": 250,
        "10203": 223,
        "10204": 123,
        "10205": 170,
        "10206": 165,
        "10207": 161,
        "10208": 193,
        "10209": 246,
        "10210": 36,
        "10211": 53,
        "10212": 74,
        "10213": 86,
        "10214": 67,
        "10215": 158,
        "10216": 38,
        "10217": 116,
        "10218": 225,
        "10219": 142,
        "10220": 5,
        "10221": 0,
        "10222": 69,
        "10223": 31,
        "10224": 198,
        "10225": 249,
        "10226": 165,
        "10227": 31,
        "10228": 128,
        "10229": 88,
        "10230": 129,
        "10231": 6,
        "10232": 162,
        "10233": 165,
        "10234": 159,
        "10235": 94,
        "10236": 236,
        "10237": 17,
        "10238": 105,
        "10239": 119,
        "10240": 157,
        "10241": 105,
        "10242": 36,
        "10243": 87,
        "10244": 15,
        "10245": 225,
        "10246": 248,
        "10247": 75,
        "10248": 145,
        "10249": 14,
        "10250": 133,
        "10251": 146,
        "10252": 11,
        "10253": 135,
        "10254": 134,
        "10255": 16,
        "10256": 103,
        "10257": 211,
        "10258": 216,
        "10259": 197,
        "10260": 76,
        "10261": 244,
        "10262": 218,
        "10263": 82,
        "10264": 80,
        "10265": 166,
        "10266": 55,
        "10267": 219,
        "10268": 152,
        "10269": 170,
        "10270": 24,
        "10271": 48,
        "10272": 136,
        "10273": 210,
        "10274": 109,
        "10275": 197,
        "10276": 81,
        "10277": 127,
        "10278": 100,
        "10279": 83,
        "10280": 142,
        "10281": 56,
        "10282": 11,
        "10283": 87,
        "10284": 240,
        "10285": 151,
        "10286": 208,
        "10287": 44,
        "10288": 53,
        "10289": 44,
        "10290": 40,
        "10291": 229,
        "10292": 46,
        "10293": 13,
        "10294": 110,
        "10295": 204,
        "10296": 176,
        "10297": 76,
        "10298": 55,
        "10299": 196,
        "10300": 48,
        "10301": 211,
        "10302": 204,
        "10303": 251,
        "10304": 219,
        "10305": 53,
        "10306": 168,
        "10307": 199,
        "10308": 93,
        "10309": 164,
        "10310": 38,
        "10311": 98,
        "10312": 241,
        "10313": 97,
        "10314": 104,
        "10315": 124,
        "10316": 109,
        "10317": 231,
        "10318": 251,
        "10319": 214,
        "10320": 149,
        "10321": 253,
        "10322": 83,
        "10323": 96,
        "10324": 133,
        "10325": 126,
        "10326": 159,
        "10327": 13,
        "10328": 222,
        "10329": 122,
        "10330": 47,
        "10331": 119,
        "10332": 21,
        "10333": 215,
        "10334": 255,
        "10335": 230,
        "10336": 4,
        "10337": 181,
        "10338": 161,
        "10339": 34,
        "10340": 206,
        "10341": 29,
        "10342": 53,
        "10343": 42,
        "10344": 226,
        "10345": 102,
        "10346": 86,
        "10347": 224,
        "10348": 178,
        "10349": 145,
        "10350": 22,
        "10351": 166,
        "10352": 62,
        "10353": 98,
        "10354": 154,
        "10355": 216,
        "10356": 236,
        "10357": 199,
        "10358": 66,
        "10359": 236,
        "10360": 18,
        "10361": 202,
        "10362": 42,
        "10363": 207,
        "10364": 146,
        "10365": 186,
        "10366": 14,
        "10367": 111,
        "10368": 244,
        "10369": 200,
        "10370": 97,
        "10371": 32,
        "10372": 159,
        "10373": 28,
        "10374": 120,
        "10375": 101,
        "10376": 158,
        "10377": 211,
        "10378": 226,
        "10379": 23,
        "10380": 5,
        "10381": 29,
        "10382": 87,
        "10383": 198,
        "10384": 99,
        "10385": 2,
        "10386": 216,
        "10387": 13,
        "10388": 238,
        "10389": 89,
        "10390": 73,
        "10391": 152,
        "10392": 236,
        "10393": 202,
        "10394": 197,
        "10395": 140,
        "10396": 187,
        "10397": 95,
        "10398": 55,
        "10399": 116,
        "10400": 10,
        "10401": 19,
        "10402": 228,
        "10403": 200,
        "10404": 117,
        "10405": 15,
        "10406": 162,
        "10407": 133,
        "10408": 0,
        "10409": 80,
        "10410": 167,
        "10411": 202,
        "10412": 200,
        "10413": 203,
        "10414": 66,
        "10415": 210,
        "10416": 237,
        "10417": 221,
        "10418": 240,
        "10419": 110,
        "10420": 41,
        "10421": 207,
        "10422": 218,
        "10423": 15,
        "10424": 34,
        "10425": 199,
        "10426": 156,
        "10427": 110,
        "10428": 223,
        "10429": 220,
        "10430": 45,
        "10431": 87,
        "10432": 21,
        "10433": 51,
        "10434": 32,
        "10435": 212,
        "10436": 10,
        "10437": 105,
        "10438": 12,
        "10439": 205,
        "10440": 26,
        "10441": 176,
        "10442": 4,
        "10443": 134,
        "10444": 131,
        "10445": 212,
        "10446": 99,
        "10447": 111,
        "10448": 46,
        "10449": 247,
        "10450": 12,
        "10451": 14,
        "10452": 224,
        "10453": 23,
        "10454": 250,
        "10455": 220,
        "10456": 2,
        "10457": 219,
        "10458": 74,
        "10459": 152,
        "10460": 181,
        "10461": 166,
        "10462": 45,
        "10463": 179,
        "10464": 153,
        "10465": 135,
        "10466": 33,
        "10467": 127,
        "10468": 153,
        "10469": 203,
        "10470": 85,
        "10471": 73,
        "10472": 249,
        "10473": 47,
        "10474": 173,
        "10475": 141,
        "10476": 11,
        "10477": 149,
        "10478": 160,
        "10479": 213,
        "10480": 34,
        "10481": 156,
        "10482": 28,
        "10483": 99,
        "10484": 15,
        "10485": 130,
        "10486": 242,
        "10487": 114,
        "10488": 211,
        "10489": 231,
        "10490": 231,
        "10491": 254,
        "10492": 68,
        "10493": 164,
        "10494": 240,
        "10495": 209,
        "10496": 253,
        "10497": 7,
        "10498": 255,
        "10499": 243,
        "10500": 2,
        "10501": 163,
        "10502": 13,
        "10503": 152,
        "10504": 166,
        "10505": 102,
        "10506": 221,
        "10507": 0,
        "10508": 207,
        "10509": 185,
        "10510": 24,
        "10511": 123,
        "10512": 167,
        "10513": 116,
        "10514": 75,
        "10515": 200,
        "10516": 224,
        "10517": 118,
        "10518": 234,
        "10519": 41,
        "10520": 188,
        "10521": 16,
        "10522": 59,
        "10523": 27,
        "10524": 137,
        "10525": 228,
        "10526": 43,
        "10527": 190,
        "10528": 98,
        "10529": 126,
        "10530": 110,
        "10531": 26,
        "10532": 135,
        "10533": 112,
        "10534": 91,
        "10535": 9,
        "10536": 88,
        "10537": 59,
        "10538": 233,
        "10539": 246,
        "10540": 186,
        "10541": 122,
        "10542": 26,
        "10543": 128,
        "10544": 186,
        "10545": 204,
        "10546": 20,
        "10547": 107,
        "10548": 200,
        "10549": 237,
        "10550": 82,
        "10551": 209,
        "10552": 139,
        "10553": 59,
        "10554": 118,
        "10555": 223,
        "10556": 51,
        "10557": 80,
        "10558": 222,
        "10559": 25,
        "10560": 208,
        "10561": 255,
        "10562": 53,
        "10563": 175,
        "10564": 196,
        "10565": 73,
        "10566": 248,
        "10567": 15,
        "10568": 206,
        "10569": 124,
        "10570": 142,
        "10571": 76,
        "10572": 132,
        "10573": 175,
        "10574": 56,
        "10575": 214,
        "10576": 166,
        "10577": 182,
        "10578": 149,
        "10579": 241,
        "10580": 117,
        "10581": 46,
        "10582": 56,
        "10583": 11,
        "10584": 78,
        "10585": 55,
        "10586": 167,
        "10587": 144,
        "10588": 213,
        "10589": 179,
        "10590": 88,
        "10591": 168,
        "10592": 143,
        "10593": 94,
        "10594": 197,
        "10595": 151,
        "10596": 53,
        "10597": 247,
        "10598": 223,
        "10599": 253,
        "10600": 199,
        "10601": 21,
        "10602": 181,
        "10603": 112,
        "10604": 172,
        "10605": 85,
        "10606": 234,
        "10607": 178,
        "10608": 168,
        "10609": 92,
        "10610": 106,
        "10611": 49,
        "10612": 161,
        "10613": 170,
        "10614": 154,
        "10615": 225,
        "10616": 225,
        "10617": 68,
        "10618": 6,
        "10619": 249,
        "10620": 211,
        "10621": 207,
        "10622": 99,
        "10623": 133,
        "10624": 85,
        "10625": 39,
        "10626": 240,
        "10627": 15,
        "10628": 73,
        "10629": 23,
        "10630": 6,
        "10631": 125,
        "10632": 138,
        "10633": 180,
        "10634": 16,
        "10635": 75,
        "10636": 145,
        "10637": 219,
        "10638": 23,
        "10639": 121,
        "10640": 33,
        "10641": 241,
        "10642": 8,
        "10643": 58,
        "10644": 2,
        "10645": 127,
        "10646": 238,
        "10647": 69,
        "10648": 68,
        "10649": 212,
        "10650": 196,
        "10651": 226,
        "10652": 126,
        "10653": 18,
        "10654": 162,
        "10655": 173,
        "10656": 91,
        "10657": 137,
        "10658": 73,
        "10659": 107,
        "10660": 153,
        "10661": 145,
        "10662": 217,
        "10663": 132,
        "10664": 195,
        "10665": 128,
        "10666": 194,
        "10667": 136,
        "10668": 43,
        "10669": 173,
        "10670": 190,
        "10671": 222,
        "10672": 102,
        "10673": 91,
        "10674": 154,
        "10675": 92,
        "10676": 152,
        "10677": 238,
        "10678": 198,
        "10679": 76,
        "10680": 20,
        "10681": 106,
        "10682": 223,
        "10683": 72,
        "10684": 194,
        "10685": 186,
        "10686": 126,
        "10687": 235,
        "10688": 172,
        "10689": 205,
        "10690": 135,
        "10691": 255,
        "10692": 176,
        "10693": 217,
        "10694": 28,
        "10695": 210,
        "10696": 134,
        "10697": 77,
        "10698": 199,
        "10699": 70,
        "10700": 20,
        "10701": 87,
        "10702": 130,
        "10703": 199,
        "10704": 254,
        "10705": 252,
        "10706": 51,
        "10707": 40,
        "10708": 155,
        "10709": 104,
        "10710": 186,
        "10711": 49,
        "10712": 98,
        "10713": 63,
        "10714": 213,
        "10715": 176,
        "10716": 186,
        "10717": 62,
        "10718": 178,
        "10719": 81,
        "10720": 26,
        "10721": 27,
        "10722": 231,
        "10723": 184,
        "10724": 45,
        "10725": 39,
        "10726": 167,
        "10727": 184,
        "10728": 251,
        "10729": 106,
        "10730": 62,
        "10731": 140,
        "10732": 61,
        "10733": 109,
        "10734": 168,
        "10735": 135,
        "10736": 88,
        "10737": 76,
        "10738": 210,
        "10739": 133,
        "10740": 150,
        "10741": 145,
        "10742": 81,
        "10743": 93,
        "10744": 248,
        "10745": 23,
        "10746": 16,
        "10747": 145,
        "10748": 255,
        "10749": 255,
        "10750": 72,
        "10751": 36,
        "10752": 3,
        "10753": 210,
        "10754": 184,
        "10755": 69,
        "10756": 184,
        "10757": 70,
        "10758": 183,
        "10759": 47,
        "10760": 181,
        "10761": 97,
        "10762": 133,
        "10763": 120,
        "10764": 182,
        "10765": 142,
        "10766": 96,
        "10767": 174,
        "10768": 157,
        "10769": 120,
        "10770": 253,
        "10771": 145,
        "10772": 23,
        "10773": 81,
        "10774": 115,
        "10775": 104,
        "10776": 12,
        "10777": 98,
        "10778": 68,
        "10779": 27,
        "10780": 162,
        "10781": 215,
        "10782": 75,
        "10783": 214,
        "10784": 184,
        "10785": 182,
        "10786": 101,
        "10787": 196,
        "10788": 161,
        "10789": 25,
        "10790": 66,
        "10791": 19,
        "10792": 95,
        "10793": 113,
        "10794": 65,
        "10795": 35,
        "10796": 178,
        "10797": 246,
        "10798": 161,
        "10799": 150,
        "10800": 182,
        "10801": 18,
        "10802": 247,
        "10803": 130,
        "10804": 182,
        "10805": 82,
        "10806": 147,
        "10807": 201,
        "10808": 16,
        "10809": 174,
        "10810": 37,
        "10811": 199,
        "10812": 75,
        "10813": 101,
        "10814": 107,
        "10815": 215,
        "10816": 12,
        "10817": 131,
        "10818": 54,
        "10819": 76,
        "10820": 79,
        "10821": 13,
        "10822": 66,
        "10823": 240,
        "10824": 233,
        "10825": 255,
        "10826": 108,
        "10827": 9,
        "10828": 108,
        "10829": 128,
        "10830": 176,
        "10831": 41,
        "10832": 41,
        "10833": 249,
        "10834": 5,
        "10835": 58,
        "10836": 121,
        "10837": 212,
        "10838": 48,
        "10839": 58,
        "10840": 101,
        "10841": 198,
        "10842": 59,
        "10843": 92,
        "10844": 250,
        "10845": 224,
        "10846": 101,
        "10847": 145,
        "10848": 98,
        "10849": 190,
        "10850": 136,
        "10851": 104,
        "10852": 190,
        "10853": 27,
        "10854": 95,
        "10855": 246,
        "10856": 142,
        "10857": 12,
        "10858": 52,
        "10859": 148,
        "10860": 193,
        "10861": 41,
        "10862": 120,
        "10863": 67,
        "10864": 85,
        "10865": 60,
        "10866": 252,
        "10867": 168,
        "10868": 179,
        "10869": 62,
        "10870": 194,
        "10871": 238,
        "10872": 194,
        "10873": 205,
        "10874": 2,
        "10875": 80,
        "10876": 94,
        "10877": 25,
        "10878": 11,
        "10879": 79,
        "10880": 138,
        "10881": 253,
        "10882": 252,
        "10883": 9,
        "10884": 207,
        "10885": 106,
        "10886": 246,
        "10887": 171,
        "10888": 157,
        "10889": 83,
        "10890": 170,
        "10891": 228,
        "10892": 159,
        "10893": 49,
        "10894": 88,
        "10895": 127,
        "10896": 249,
        "10897": 250,
        "10898": 13,
        "10899": 142,
        "10900": 173,
        "10901": 189,
        "10902": 166,
        "10903": 18,
        "10904": 135,
        "10905": 49,
        "10906": 57,
        "10907": 213,
        "10908": 68,
        "10909": 24,
        "10910": 222,
        "10911": 8,
        "10912": 67,
        "10913": 112,
        "10914": 148,
        "10915": 219,
        "10916": 37,
        "10917": 159,
        "10918": 18,
        "10919": 78,
        "10920": 95,
        "10921": 96,
        "10922": 55,
        "10923": 5,
        "10924": 22,
        "10925": 131,
        "10926": 250,
        "10927": 138,
        "10928": 223,
        "10929": 139,
        "10930": 39,
        "10931": 188,
        "10932": 182,
        "10933": 180,
        "10934": 242,
        "10935": 158,
        "10936": 12,
        "10937": 118,
        "10938": 112,
        "10939": 34,
        "10940": 224,
        "10941": 176,
        "10942": 245,
        "10943": 239,
        "10944": 45,
        "10945": 70,
        "10946": 147,
        "10947": 166,
        "10948": 57,
        "10949": 115,
        "10950": 60,
        "10951": 239,
        "10952": 63,
        "10953": 217,
        "10954": 59,
        "10955": 20,
        "10956": 51,
        "10957": 245,
        "10958": 120,
        "10959": 195,
        "10960": 5,
        "10961": 144,
        "10962": 224,
        "10963": 109,
        "10964": 49,
        "10965": 59,
        "10966": 240,
        "10967": 138,
        "10968": 62,
        "10969": 131,
        "10970": 144,
        "10971": 117,
        "10972": 52,
        "10973": 164,
        "10974": 154,
        "10975": 84,
        "10976": 219,
        "10977": 113,
        "10978": 163,
        "10979": 155,
        "10980": 137,
        "10981": 171,
        "10982": 188,
        "10983": 188,
        "10984": 226,
        "10985": 42,
        "10986": 208,
        "10987": 23,
        "10988": 162,
        "10989": 159,
        "10990": 255,
        "10991": 125,
        "10992": 46,
        "10993": 123,
        "10994": 241,
        "10995": 186,
        "10996": 61,
        "10997": 30,
        "10998": 187,
        "10999": 130,
        "11000": 217,
        "11001": 90,
        "11002": 96,
        "11003": 217,
        "11004": 31,
        "11005": 62,
        "11006": 151,
        "11007": 178,
        "11008": 18,
        "11009": 38,
        "11010": 16,
        "11011": 221,
        "11012": 151,
        "11013": 91,
        "11014": 87,
        "11015": 72,
        "11016": 220,
        "11017": 184,
        "11018": 171,
        "11019": 84,
        "11020": 101,
        "11021": 250,
        "11022": 228,
        "11023": 52,
        "11024": 92,
        "11025": 56,
        "11026": 70,
        "11027": 189,
        "11028": 221,
        "11029": 174,
        "11030": 213,
        "11031": 161,
        "11032": 229,
        "11033": 214,
        "11034": 139,
        "11035": 61,
        "11036": 170,
        "11037": 164,
        "11038": 219,
        "11039": 53,
        "11040": 64,
        "11041": 44,
        "11042": 135,
        "11043": 232,
        "11044": 62,
        "11045": 143,
        "11046": 82,
        "11047": 27,
        "11048": 143,
        "11049": 34,
        "11050": 187,
        "11051": 138,
        "11052": 124,
        "11053": 63,
        "11054": 62,
        "11055": 213,
        "11056": 255,
        "11057": 0,
        "11058": 67,
        "11059": 217,
        "11060": 66,
        "11061": 213,
        "11062": 180,
        "11063": 33,
        "11064": 33,
        "11065": 247,
        "11066": 37,
        "11067": 32,
        "11068": 104,
        "11069": 5,
        "11070": 95,
        "11071": 170,
        "11072": 113,
        "11073": 3,
        "11074": 252,
        "11075": 61,
        "11076": 97,
        "11077": 57,
        "11078": 42,
        "11079": 141,
        "11080": 11,
        "11081": 54,
        "11082": 138,
        "11083": 228,
        "11084": 232,
        "11085": 183,
        "11086": 107,
        "11087": 98,
        "11088": 168,
        "11089": 241,
        "11090": 164,
        "11091": 140,
        "11092": 128,
        "11093": 173,
        "11094": 74,
        "11095": 239,
        "11096": 97,
        "11097": 25,
        "11098": 73,
        "11099": 214,
        "11100": 49,
        "11101": 36,
        "11102": 201,
        "11103": 139,
        "11104": 250,
        "11105": 182,
        "11106": 31,
        "11107": 136,
        "11108": 142,
        "11109": 38,
        "11110": 225,
        "11111": 168,
        "11112": 63,
        "11113": 0,
        "11114": 179,
        "11115": 198,
        "11116": 146,
        "11117": 214,
        "11118": 45,
        "11119": 49,
        "11120": 164,
        "11121": 69,
        "11122": 247,
        "11123": 133,
        "11124": 207,
        "11125": 198,
        "11126": 30,
        "11127": 27,
        "11128": 187,
        "11129": 80,
        "11130": 58,
        "11131": 129,
        "11132": 24,
        "11133": 18,
        "11134": 117,
        "11135": 0,
        "11136": 127,
        "11137": 238,
        "11138": 58,
        "11139": 42,
        "11140": 240,
        "11141": 84,
        "11142": 193,
        "11143": 59,
        "11144": 237,
        "11145": 255,
        "11146": 141,
        "11147": 19,
        "11148": 248,
        "11149": 17,
        "11150": 34,
        "11151": 15,
        "11152": 15,
        "11153": 114,
        "11154": 209,
        "11155": 115,
        "11156": 28,
        "11157": 148,
        "11158": 74,
        "11159": 41,
        "11160": 97,
        "11161": 75,
        "11162": 129,
        "11163": 148,
        "11164": 151,
        "11165": 65,
        "11166": 159,
        "11167": 101,
        "11168": 216,
        "11169": 105,
        "11170": 50,
        "11171": 29,
        "11172": 30,
        "11173": 211,
        "11174": 50,
        "11175": 166,
        "11176": 85,
        "11177": 92,
        "11178": 54,
        "11179": 31,
        "11180": 131,
        "11181": 195,
        "11182": 87,
        "11183": 181,
        "11184": 103,
        "11185": 164,
        "11186": 216,
        "11187": 29,
        "11188": 231,
        "11189": 50,
        "11190": 144,
        "11191": 118,
        "11192": 4,
        "11193": 141,
        "11194": 72,
        "11195": 198,
        "11196": 71,
        "11197": 6,
        "11198": 244,
        "11199": 47,
        "11200": 66,
        "11201": 79,
        "11202": 226,
        "11203": 84,
        "11204": 243,
        "11205": 53,
        "11206": 218,
        "11207": 43,
        "11208": 157,
        "11209": 235,
        "11210": 234,
        "11211": 45,
        "11212": 173,
        "11213": 23,
        "11214": 58,
        "11215": 182,
        "11216": 64,
        "11217": 33,
        "11218": 156,
        "11219": 55,
        "11220": 132,
        "11221": 104,
        "11222": 0,
        "11223": 167,
        "11224": 24,
        "11225": 62,
        "11226": 81,
        "11227": 110,
        "11228": 53,
        "11229": 111,
        "11230": 197,
        "11231": 110,
        "11232": 230,
        "11233": 245,
        "11234": 177,
        "11235": 201,
        "11236": 110,
        "11237": 113,
        "11238": 196,
        "11239": 179,
        "11240": 159,
        "11241": 131,
        "11242": 137,
        "11243": 47,
        "11244": 72,
        "11245": 144,
        "11246": 10,
        "11247": 92,
        "11248": 209,
        "11249": 152,
        "11250": 70,
        "11251": 75,
        "11252": 64,
        "11253": 27,
        "11254": 11,
        "11255": 231,
        "11256": 28,
        "11257": 46,
        "11258": 238,
        "11259": 108,
        "11260": 24,
        "11261": 176,
        "11262": 125,
        "11263": 57,
        "11264": 66,
        "11265": 92,
        "11266": 203,
        "11267": 77,
        "11268": 129,
        "11269": 247,
        "11270": 149,
        "11271": 168,
        "11272": 232,
        "11273": 95,
        "11274": 125,
        "11275": 179,
        "11276": 121,
        "11277": 8,
        "11278": 61,
        "11279": 233,
        "11280": 228,
        "11281": 213,
        "11282": 17,
        "11283": 31,
        "11284": 1,
        "11285": 74,
        "11286": 13,
        "11287": 8,
        "11288": 25,
        "11289": 84,
        "11290": 224,
        "11291": 48,
        "11292": 245,
        "11293": 209,
        "11294": 111,
        "11295": 84,
        "11296": 73,
        "11297": 219,
        "11298": 14,
        "11299": 230,
        "11300": 107,
        "11301": 250,
        "11302": 182,
        "11303": 161,
        "11304": 225,
        "11305": 49,
        "11306": 137,
        "11307": 180,
        "11308": 252,
        "11309": 208,
        "11310": 88,
        "11311": 155,
        "11312": 111,
        "11313": 92,
        "11314": 137,
        "11315": 19,
        "11316": 3,
        "11317": 189,
        "11318": 197,
        "11319": 237,
        "11320": 223,
        "11321": 234,
        "11322": 129,
        "11323": 253,
        "11324": 13,
        "11325": 155,
        "11326": 29,
        "11327": 116,
        "11328": 93,
        "11329": 112,
        "11330": 13,
        "11331": 255,
        "11332": 39,
        "11333": 250,
        "11334": 132,
        "11335": 21,
        "11336": 110,
        "11337": 252,
        "11338": 208,
        "11339": 51,
        "11340": 169,
        "11341": 124,
        "11342": 113,
        "11343": 8,
        "11344": 214,
        "11345": 79,
        "11346": 198,
        "11347": 242,
        "11348": 69,
        "11349": 91,
        "11350": 81,
        "11351": 156,
        "11352": 84,
        "11353": 110,
        "11354": 192,
        "11355": 148,
        "11356": 214,
        "11357": 172,
        "11358": 233,
        "11359": 99,
        "11360": 224,
        "11361": 199,
        "11362": 180,
        "11363": 139,
        "11364": 30,
        "11365": 185,
        "11366": 182,
        "11367": 19,
        "11368": 196,
        "11369": 112,
        "11370": 132,
        "11371": 135,
        "11372": 58,
        "11373": 117,
        "11374": 114,
        "11375": 18,
        "11376": 134,
        "11377": 44,
        "11378": 141,
        "11379": 37,
        "11380": 182,
        "11381": 105,
        "11382": 16,
        "11383": 210,
        "11384": 143,
        "11385": 113,
        "11386": 164,
        "11387": 163,
        "11388": 109,
        "11389": 148,
        "11390": 44,
        "11391": 158,
        "11392": 88,
        "11393": 151,
        "11394": 51,
        "11395": 153,
        "11396": 8,
        "11397": 107,
        "11398": 89,
        "11399": 96,
        "11400": 241,
        "11401": 192,
        "11402": 33,
        "11403": 8,
        "11404": 5,
        "11405": 213,
        "11406": 12,
        "11407": 26,
        "11408": 163,
        "11409": 13,
        "11410": 135,
        "11411": 79,
        "11412": 60,
        "11413": 213,
        "11414": 8,
        "11415": 70,
        "11416": 209,
        "11417": 98,
        "11418": 105,
        "11419": 255,
        "11420": 131,
        "11421": 248,
        "11422": 237,
        "11423": 80,
        "11424": 245,
        "11425": 70,
        "11426": 49,
        "11427": 117,
        "11428": 8,
        "11429": 228,
        "11430": 160,
        "11431": 214,
        "11432": 141,
        "11433": 89,
        "11434": 169,
        "11435": 122,
        "11436": 242,
        "11437": 37,
        "11438": 251,
        "11439": 217,
        "11440": 172,
        "11441": 219,
        "11442": 149,
        "11443": 110,
        "11444": 221,
        "11445": 6,
        "11446": 176,
        "11447": 158,
        "11448": 233,
        "11449": 16,
        "11450": 244,
        "11451": 200,
        "11452": 158,
        "11453": 47,
        "11454": 80,
        "11455": 169,
        "11456": 3,
        "11457": 96,
        "11458": 71,
        "11459": 112,
        "11460": 180,
        "11461": 175,
        "11462": 171,
        "11463": 53,
        "11464": 77,
        "11465": 167,
        "11466": 63,
        "11467": 63,
        "11468": 80,
        "11469": 152,
        "11470": 13,
        "11471": 249,
        "11472": 240,
        "11473": 192,
        "11474": 240,
        "11475": 95,
        "11476": 16,
        "11477": 201,
        "11478": 182,
        "11479": 135,
        "11480": 183,
        "11481": 133,
        "11482": 31,
        "11483": 179,
        "11484": 131,
        "11485": 86,
        "11486": 236,
        "11487": 152,
        "11488": 32,
        "11489": 65,
        "11490": 148,
        "11491": 231,
        "11492": 237,
        "11493": 10,
        "11494": 44,
        "11495": 244,
        "11496": 66,
        "11497": 182,
        "11498": 216,
        "11499": 196,
        "11500": 50,
        "11501": 207,
        "11502": 205,
        "11503": 104,
        "11504": 212,
        "11505": 64,
        "11506": 72,
        "11507": 43,
        "11508": 171,
        "11509": 221,
        "11510": 77,
        "11511": 180,
        "11512": 24,
        "11513": 95,
        "11514": 229,
        "11515": 114,
        "11516": 193,
        "11517": 78,
        "11518": 48,
        "11519": 207,
        "11520": 161,
        "11521": 177,
        "11522": 202,
        "11523": 133,
        "11524": 181,
        "11525": 69,
        "11526": 81,
        "11527": 148,
        "11528": 201,
        "11529": 242,
        "11530": 165,
        "11531": 126,
        "11532": 149,
        "11533": 212,
        "11534": 185,
        "11535": 178,
        "11536": 94,
        "11537": 170,
        "11538": 10,
        "11539": 154,
        "11540": 51,
        "11541": 68,
        "11542": 223,
        "11543": 36,
        "11544": 77,
        "11545": 172,
        "11546": 63,
        "11547": 229,
        "11548": 137,
        "11549": 31,
        "11550": 246,
        "11551": 111,
        "11552": 89,
        "11553": 96,
        "11554": 53,
        "11555": 105,
        "11556": 89,
        "11557": 182,
        "11558": 143,
        "11559": 114,
        "11560": 145,
        "11561": 16,
        "11562": 108,
        "11563": 101,
        "11564": 17,
        "11565": 252,
        "11566": 16,
        "11567": 7,
        "11568": 70,
        "11569": 66,
        "11570": 23,
        "11571": 107,
        "11572": 38,
        "11573": 131,
        "11574": 92,
        "11575": 165,
        "11576": 234,
        "11577": 65,
        "11578": 213,
        "11579": 91,
        "11580": 243,
        "11581": 1,
        "11582": 102,
        "11583": 157,
        "11584": 39,
        "11585": 244,
        "11586": 197,
        "11587": 233,
        "11588": 254,
        "11589": 3,
        "11590": 67,
        "11591": 175,
        "11592": 18,
        "11593": 180,
        "11594": 36,
        "11595": 15,
        "11596": 162,
        "11597": 92,
        "11598": 144,
        "11599": 193,
        "11600": 248,
        "11601": 233,
        "11602": 164,
        "11603": 3,
        "11604": 41,
        "11605": 173,
        "11606": 185,
        "11607": 195,
        "11608": 232,
        "11609": 18,
        "11610": 74,
        "11611": 140,
        "11612": 122,
        "11613": 121,
        "11614": 97,
        "11615": 189,
        "11616": 88,
        "11617": 16,
        "11618": 251,
        "11619": 182,
        "11620": 238,
        "11621": 233,
        "11622": 183,
        "11623": 80,
        "11624": 158,
        "11625": 242,
        "11626": 221,
        "11627": 174,
        "11628": 137,
        "11629": 17,
        "11630": 143,
        "11631": 210,
        "11632": 117,
        "11633": 19,
        "11634": 12,
        "11635": 105,
        "11636": 123,
        "11637": 163,
        "11638": 37,
        "11639": 199,
        "11640": 159,
        "11641": 69,
        "11642": 215,
        "11643": 226,
        "11644": 205,
        "11645": 171,
        "11646": 203,
        "11647": 186,
        "11648": 87,
        "11649": 254,
        "11650": 53,
        "11651": 188,
        "11652": 209,
        "11653": 157,
        "11654": 61,
        "11655": 179,
        "11656": 89,
        "11657": 151,
        "11658": 253,
        "11659": 164,
        "11660": 120,
        "11661": 131,
        "11662": 51,
        "11663": 233,
        "11664": 159,
        "11665": 190,
        "11666": 156,
        "11667": 0,
        "11668": 55,
        "11669": 118,
        "11670": 50,
        "11671": 102,
        "11672": 83,
        "11673": 181,
        "11674": 111,
        "11675": 112,
        "11676": 186,
        "11677": 210,
        "11678": 119,
        "11679": 214,
        "11680": 101,
        "11681": 194,
        "11682": 182,
        "11683": 185,
        "11684": 44,
        "11685": 96,
        "11686": 227,
        "11687": 253,
        "11688": 12,
        "11689": 175,
        "11690": 174,
        "11691": 212,
        "11692": 228,
        "11693": 72,
        "11694": 96,
        "11695": 108,
        "11696": 149,
        "11697": 0,
        "11698": 113,
        "11699": 80,
        "11700": 178,
        "11701": 47,
        "11702": 12,
        "11703": 173,
        "11704": 235,
        "11705": 145,
        "11706": 78,
        "11707": 128,
        "11708": 45,
        "11709": 64,
        "11710": 232,
        "11711": 45,
        "11712": 216,
        "11713": 21,
        "11714": 90,
        "11715": 34,
        "11716": 109,
        "11717": 73,
        "11718": 115,
        "11719": 59,
        "11720": 180,
        "11721": 103,
        "11722": 198,
        "11723": 77,
        "11724": 141,
        "11725": 33,
        "11726": 187,
        "11727": 95,
        "11728": 205,
        "11729": 235,
        "11730": 207,
        "11731": 225,
        "11732": 236,
        "11733": 5,
        "11734": 104,
        "11735": 230,
        "11736": 214,
        "11737": 105,
        "11738": 214,
        "11739": 83,
        "11740": 95,
        "11741": 124,
        "11742": 137,
        "11743": 67,
        "11744": 194,
        "11745": 216,
        "11746": 63,
        "11747": 196,
        "11748": 213,
        "11749": 180,
        "11750": 216,
        "11751": 46,
        "11752": 57,
        "11753": 94,
        "11754": 160,
        "11755": 34,
        "11756": 21,
        "11757": 5,
        "11758": 128,
        "11759": 166,
        "11760": 8,
        "11761": 239,
        "11762": 2,
        "11763": 124,
        "11764": 103,
        "11765": 142,
        "11766": 89,
        "11767": 162,
        "11768": 191,
        "11769": 200,
        "11770": 154,
        "11771": 167,
        "11772": 228,
        "11773": 44,
        "11774": 17,
        "11775": 124,
        "11776": 238,
        "11777": 68,
        "11778": 70,
        "11779": 236,
        "11780": 77,
        "11781": 211,
        "11782": 157,
        "11783": 228,
        "11784": 38,
        "11785": 162,
        "11786": 196,
        "11787": 217,
        "11788": 212,
        "11789": 210,
        "11790": 21,
        "11791": 52,
        "11792": 148,
        "11793": 135,
        "11794": 42,
        "11795": 125,
        "11796": 83,
        "11797": 217,
        "11798": 29,
        "11799": 244,
        "11800": 224,
        "11801": 97,
        "11802": 38,
        "11803": 247,
        "11804": 74,
        "11805": 132,
        "11806": 111,
        "11807": 104,
        "11808": 209,
        "11809": 61,
        "11810": 139,
        "11811": 54,
        "11812": 58,
        "11813": 134,
        "11814": 160,
        "11815": 207,
        "11816": 239,
        "11817": 208,
        "11818": 72,
        "11819": 199,
        "11820": 10,
        "11821": 214,
        "11822": 85,
        "11823": 65,
        "11824": 77,
        "11825": 221,
        "11826": 120,
        "11827": 117,
        "11828": 244,
        "11829": 87,
        "11830": 211,
        "11831": 89,
        "11832": 244,
        "11833": 42,
        "11834": 180,
        "11835": 48,
        "11836": 145,
        "11837": 63,
        "11838": 224,
        "11839": 77,
        "11840": 47,
        "11841": 13,
        "11842": 254,
        "11843": 75,
        "11844": 12,
        "11845": 144,
        "11846": 138,
        "11847": 71,
        "11848": 33,
        "11849": 201,
        "11850": 104,
        "11851": 169,
        "11852": 3,
        "11853": 72,
        "11854": 17,
        "11855": 113,
        "11856": 66,
        "11857": 206,
        "11858": 130,
        "11859": 150,
        "11860": 234,
        "11861": 127,
        "11862": 170,
        "11863": 23,
        "11864": 250,
        "11865": 115,
        "11866": 132,
        "11867": 255,
        "11868": 180,
        "11869": 192,
        "11870": 33,
        "11871": 157,
        "11872": 144,
        "11873": 251,
        "11874": 86,
        "11875": 141,
        "11876": 194,
        "11877": 138,
        "11878": 178,
        "11879": 10,
        "11880": 230,
        "11881": 19,
        "11882": 174,
        "11883": 218,
        "11884": 10,
        "11885": 219,
        "11886": 60,
        "11887": 59,
        "11888": 253,
        "11889": 48,
        "11890": 151,
        "11891": 210,
        "11892": 70,
        "11893": 79,
        "11894": 157,
        "11895": 250,
        "11896": 35,
        "11897": 115,
        "11898": 49,
        "11899": 70,
        "11900": 166,
        "11901": 41,
        "11902": 73,
        "11903": 210,
        "11904": 65,
        "11905": 191,
        "11906": 21,
        "11907": 52,
        "11908": 175,
        "11909": 116,
        "11910": 68,
        "11911": 129,
        "11912": 57,
        "11913": 12,
        "11914": 35,
        "11915": 244,
        "11916": 28,
        "11917": 170,
        "11918": 69,
        "11919": 44,
        "11920": 198,
        "11921": 151,
        "11922": 206,
        "11923": 189,
        "11924": 62,
        "11925": 115,
        "11926": 107,
        "11927": 102,
        "11928": 121,
        "11929": 215,
        "11930": 114,
        "11931": 137,
        "11932": 129,
        "11933": 58,
        "11934": 21,
        "11935": 59,
        "11936": 151,
        "11937": 116,
        "11938": 246,
        "11939": 230,
        "11940": 59,
        "11941": 179,
        "11942": 11,
        "11943": 211,
        "11944": 238,
        "11945": 58,
        "11946": 130,
        "11947": 52,
        "11948": 58,
        "11949": 52,
        "11950": 216,
        "11951": 26,
        "11952": 232,
        "11953": 97,
        "11954": 1,
        "11955": 218,
        "11956": 239,
        "11957": 135,
        "11958": 222,
        "11959": 171,
        "11960": 166,
        "11961": 128,
        "11962": 97,
        "11963": 236,
        "11964": 102,
        "11965": 47,
        "11966": 219,
        "11967": 155,
        "11968": 71,
        "11969": 107,
        "11970": 147,
        "11971": 62,
        "11972": 26,
        "11973": 238,
        "11974": 150,
        "11975": 131,
        "11976": 29,
        "11977": 230,
        "11978": 59,
        "11979": 202,
        "11980": 122,
        "11981": 198,
        "11982": 48,
        "11983": 112,
        "11984": 39,
        "11985": 138,
        "11986": 94,
        "11987": 65,
        "11988": 80,
        "11989": 230,
        "11990": 37,
        "11991": 116,
        "11992": 101,
        "11993": 141,
        "11994": 168,
        "11995": 129,
        "11996": 231,
        "11997": 244,
        "11998": 132,
        "11999": 214,
        "12000": 189,
        "12001": 175,
        "12002": 82,
        "12003": 65,
        "12004": 140,
        "12005": 216,
        "12006": 48,
        "12007": 218,
        "12008": 45,
        "12009": 2,
        "12010": 100,
        "12011": 161,
        "12012": 191,
        "12013": 174,
        "12014": 118,
        "12015": 58,
        "12016": 127,
        "12017": 13,
        "12018": 182,
        "12019": 200,
        "12020": 249,
        "12021": 144,
        "12022": 57,
        "12023": 212,
        "12024": 119,
        "12025": 195,
        "12026": 169,
        "12027": 40,
        "12028": 216,
        "12029": 90,
        "12030": 107,
        "12031": 181,
        "12032": 105,
        "12033": 214,
        "12034": 159,
        "12035": 15,
        "12036": 188,
        "12037": 36,
        "12038": 195,
        "12039": 52,
        "12040": 173,
        "12041": 89,
        "12042": 73,
        "12043": 149,
        "12044": 187,
        "12045": 17,
        "12046": 5,
        "12047": 223,
        "12048": 87,
        "12049": 66,
        "12050": 180,
        "12051": 33,
        "12052": 147,
        "12053": 71,
        "12054": 217,
        "12055": 237,
        "12056": 153,
        "12057": 219,
        "12058": 108,
        "12059": 22,
        "12060": 81,
        "12061": 86,
        "12062": 106,
        "12063": 68,
        "12064": 5,
        "12065": 53,
        "12066": 184,
        "12067": 11,
        "12068": 160,
        "12069": 30,
        "12070": 211,
        "12071": 134,
        "12072": 113,
        "12073": 200,
        "12074": 160,
        "12075": 196,
        "12076": 17,
        "12077": 113,
        "12078": 249,
        "12079": 34,
        "12080": 185,
        "12081": 153,
        "12082": 213,
        "12083": 70,
        "12084": 253,
        "12085": 191,
        "12086": 21,
        "12087": 149,
        "12088": 239,
        "12089": 86,
        "12090": 33,
        "12091": 145,
        "12092": 56,
        "12093": 39,
        "12094": 243,
        "12095": 44,
        "12096": 79,
        "12097": 179,
        "12098": 194,
        "12099": 56,
        "12100": 204,
        "12101": 211,
        "12102": 92,
        "12103": 160,
        "12104": 73,
        "12105": 7,
        "12106": 233,
        "12107": 203,
        "12108": 57,
        "12109": 230,
        "12110": 215,
        "12111": 89,
        "12112": 151,
        "12113": 78,
        "12114": 33,
        "12115": 218,
        "12116": 191,
        "12117": 191,
        "12118": 100,
        "12119": 130,
        "12120": 243,
        "12121": 80,
        "12122": 26,
        "12123": 73,
        "12124": 22,
        "12125": 111,
        "12126": 41,
        "12127": 240,
        "12128": 208,
        "12129": 42,
        "12130": 103,
        "12131": 235,
        "12132": 243,
        "12133": 95,
        "12134": 4,
        "12135": 85,
        "12136": 174,
        "12137": 175,
        "12138": 37,
        "12139": 180,
        "12140": 177,
        "12141": 51,
        "12142": 145,
        "12143": 152,
        "12144": 129,
        "12145": 207,
        "12146": 151,
        "12147": 107,
        "12148": 168,
        "12149": 93,
        "12150": 232,
        "12151": 183,
        "12152": 149,
        "12153": 171,
        "12154": 59,
        "12155": 107,
        "12156": 158,
        "12157": 89,
        "12158": 164,
        "12159": 101,
        "12160": 68,
        "12161": 7,
        "12162": 93,
        "12163": 162,
        "12164": 252,
        "12165": 58,
        "12166": 219,
        "12167": 178,
        "12168": 182,
        "12169": 221,
        "12170": 45,
        "12171": 204,
        "12172": 222,
        "12173": 34,
        "12174": 190,
        "12175": 138,
        "12176": 193,
        "12177": 172,
        "12178": 47,
        "12179": 82,
        "12180": 226,
        "12181": 152,
        "12182": 251,
        "12183": 130,
        "12184": 35,
        "12185": 106,
        "12186": 233,
        "12187": 136,
        "12188": 167,
        "12189": 41,
        "12190": 77,
        "12191": 228,
        "12192": 91,
        "12193": 176,
        "12194": 216,
        "12195": 72,
        "12196": 242,
        "12197": 236,
        "12198": 80,
        "12199": 7,
        "12200": 204,
        "12201": 218,
        "12202": 28,
        "12203": 233,
        "12204": 182,
        "12205": 175,
        "12206": 7,
        "12207": 75,
        "12208": 108,
        "12209": 189,
        "12210": 103,
        "12211": 250,
        "12212": 80,
        "12213": 244,
        "12214": 166,
        "12215": 95,
        "12216": 109,
        "12217": 254,
        "12218": 109,
        "12219": 148,
        "12220": 231,
        "12221": 108,
        "12222": 62,
        "12223": 0,
        "12224": 13,
        "12225": 242,
        "12226": 33,
        "12227": 70,
        "12228": 153,
        "12229": 122,
        "12230": 64,
        "12231": 145,
        "12232": 229,
        "12233": 59,
        "12234": 152,
        "12235": 162,
        "12236": 172,
        "12237": 247,
        "12238": 254,
        "12239": 20,
        "12240": 135,
        "12241": 242,
        "12242": 104,
        "12243": 248,
        "12244": 178,
        "12245": 22,
        "12246": 82,
        "12247": 95,
        "12248": 56,
        "12249": 108,
        "12250": 228,
        "12251": 220,
        "12252": 41,
        "12253": 174,
        "12254": 10,
        "12255": 244,
        "12256": 177,
        "12257": 37,
        "12258": 231,
        "12259": 246,
        "12260": 158,
        "12261": 79,
        "12262": 99,
        "12263": 153,
        "12264": 236,
        "12265": 244,
        "12266": 171,
        "12267": 216,
        "12268": 171,
        "12269": 224,
        "12270": 28,
        "12271": 58,
        "12272": 81,
        "12273": 2,
        "12274": 5,
        "12275": 14,
        "12276": 66,
        "12277": 48,
        "12278": 244,
        "12279": 241,
        "12280": 109,
        "12281": 222,
        "12282": 234,
        "12283": 175,
        "12284": 11,
        "12285": 84,
        "12286": 122,
        "12287": 129,
        "12288": 234,
        "12289": 218,
        "12290": 64,
        "12291": 192,
        "12292": 135,
        "12293": 176,
        "12294": 29,
        "12295": 164,
        "12296": 230,
        "12297": 232,
        "12298": 94,
        "12299": 23,
        "12300": 132,
        "12301": 215,
        "12302": 186,
        "12303": 54,
        "12304": 226,
        "12305": 238,
        "12306": 68,
        "12307": 36,
        "12308": 115,
        "12309": 251,
        "12310": 194,
        "12311": 203,
        "12312": 233,
        "12313": 134,
        "12314": 170,
        "12315": 25,
        "12316": 10,
        "12317": 97,
        "12318": 221,
        "12319": 38,
        "12320": 100,
        "12321": 249,
        "12322": 220,
        "12323": 252,
        "12324": 178,
        "12325": 32,
        "12326": 242,
        "12327": 138,
        "12328": 228,
        "12329": 87,
        "12330": 115,
        "12331": 135,
        "12332": 128,
        "12333": 218,
        "12334": 211,
        "12335": 247,
        "12336": 175,
        "12337": 156,
        "12338": 150,
        "12339": 113,
        "12340": 13,
        "12341": 40,
        "12342": 245,
        "12343": 21,
        "12344": 86,
        "12345": 247,
        "12346": 153,
        "12347": 189,
        "12348": 137,
        "12349": 88,
        "12350": 75,
        "12351": 82,
        "12352": 132,
        "12353": 246,
        "12354": 69,
        "12355": 59,
        "12356": 16,
        "12357": 12,
        "12358": 190,
        "12359": 63,
        "12360": 232,
        "12361": 100,
        "12362": 79,
        "12363": 45,
        "12364": 112,
        "12365": 166,
        "12366": 120,
        "12367": 41,
        "12368": 208,
        "12369": 180,
        "12370": 164,
        "12371": 75,
        "12372": 10,
        "12373": 173,
        "12374": 237,
        "12375": 33,
        "12376": 62,
        "12377": 166,
        "12378": 247,
        "12379": 211,
        "12380": 193,
        "12381": 199,
        "12382": 224,
        "12383": 204,
        "12384": 80,
        "12385": 111,
        "12386": 26,
        "12387": 5,
        "12388": 133,
        "12389": 24,
        "12390": 61,
        "12391": 131,
        "12392": 9,
        "12393": 162,
        "12394": 160,
        "12395": 22,
        "12396": 84,
        "12397": 168,
        "12398": 46,
        "12399": 58,
        "12400": 102,
        "12401": 195,
        "12402": 92,
        "12403": 187,
        "12404": 4,
        "12405": 255,
        "12406": 113,
        "12407": 85,
        "12408": 170,
        "12409": 239,
        "12410": 145,
        "12411": 7,
        "12412": 166,
        "12413": 39,
        "12414": 145,
        "12415": 5,
        "12416": 217,
        "12417": 96,
        "12418": 152,
        "12419": 245,
        "12420": 169,
        "12421": 197,
        "12422": 105,
        "12423": 114,
        "12424": 89,
        "12425": 12,
        "12426": 105,
        "12427": 101,
        "12428": 162,
        "12429": 106,
        "12430": 28,
        "12431": 143,
        "12432": 13,
        "12433": 158,
        "12434": 108,
        "12435": 113,
        "12436": 155,
        "12437": 159,
        "12438": 39,
        "12439": 165,
        "12440": 184,
        "12441": 107,
        "12442": 169,
        "12443": 224,
        "12444": 60,
        "12445": 109,
        "12446": 255,
        "12447": 116,
        "12448": 4,
        "12449": 5,
        "12450": 118,
        "12451": 110,
        "12452": 139,
        "12453": 158,
        "12454": 240,
        "12455": 228,
        "12456": 77,
        "12457": 184,
        "12458": 66,
        "12459": 147,
        "12460": 208,
        "12461": 93,
        "12462": 4,
        "12463": 79,
        "12464": 212,
        "12465": 129,
        "12466": 183,
        "12467": 94,
        "12468": 238,
        "12469": 249,
        "12470": 81,
        "12471": 141,
        "12472": 220,
        "12473": 50,
        "12474": 157,
        "12475": 207,
        "12476": 220,
        "12477": 81,
        "12478": 217,
        "12479": 103,
        "12480": 251,
        "12481": 142,
        "12482": 35,
        "12483": 77,
        "12484": 14,
        "12485": 159,
        "12486": 13,
        "12487": 238,
        "12488": 109,
        "12489": 87,
        "12490": 32,
        "12491": 54,
        "12492": 226,
        "12493": 115,
        "12494": 250,
        "12495": 78,
        "12496": 17,
        "12497": 118,
        "12498": 163,
        "12499": 132,
        "12500": 155,
        "12501": 36,
        "12502": 129,
        "12503": 200,
        "12504": 140,
        "12505": 111,
        "12506": 110,
        "12507": 37,
        "12508": 12,
        "12509": 64,
        "12510": 224,
        "12511": 175,
        "12512": 247,
        "12513": 103,
        "12514": 99,
        "12515": 193,
        "12516": 146,
        "12517": 190,
        "12518": 244,
        "12519": 94,
        "12520": 104,
        "12521": 120,
        "12522": 159,
        "12523": 63,
        "12524": 62,
        "12525": 20,
        "12526": 81,
        "12527": 170,
        "12528": 133,
        "12529": 92,
        "12530": 64,
        "12531": 180,
        "12532": 148,
        "12533": 140,
        "12534": 55,
        "12535": 2,
        "12536": 114,
        "12537": 48,
        "12538": 176,
        "12539": 42,
        "12540": 255,
        "12541": 246,
        "12542": 106,
        "12543": 113,
        "12544": 180,
        "12545": 215,
        "12546": 15,
        "12547": 84,
        "12548": 192,
        "12549": 216,
        "12550": 108,
        "12551": 198,
        "12552": 54,
        "12553": 162,
        "12554": 94,
        "12555": 244,
        "12556": 41,
        "12557": 1,
        "12558": 162,
        "12559": 193,
        "12560": 12,
        "12561": 102,
        "12562": 189,
        "12563": 169,
        "12564": 242,
        "12565": 82,
        "12566": 66,
        "12567": 144,
        "12568": 164,
        "12569": 86,
        "12570": 255,
        "12571": 26,
        "12572": 68,
        "12573": 207,
        "12574": 117,
        "12575": 15,
        "12576": 68,
        "12577": 223,
        "12578": 41,
        "12579": 220,
        "12580": 155,
        "12581": 190,
        "12582": 228,
        "12583": 236,
        "12584": 54,
        "12585": 106,
        "12586": 237,
        "12587": 102,
        "12588": 130,
        "12589": 150,
        "12590": 169,
        "12591": 69,
        "12592": 184,
        "12593": 228,
        "12594": 64,
        "12595": 16,
        "12596": 68,
        "12597": 108,
        "12598": 102,
        "12599": 81,
        "12600": 215,
        "12601": 173,
        "12602": 138,
        "12603": 90,
        "12604": 87,
        "12605": 28,
        "12606": 29,
        "12607": 245,
        "12608": 126,
        "12609": 185,
        "12610": 112,
        "12611": 199,
        "12612": 158,
        "12613": 35,
        "12614": 102,
        "12615": 135,
        "12616": 253,
        "12617": 238,
        "12618": 42,
        "12619": 27,
        "12620": 41,
        "12621": 150,
        "12622": 50,
        "12623": 221,
        "12624": 163,
        "12625": 15,
        "12626": 179,
        "12627": 50,
        "12628": 108,
        "12629": 60,
        "12630": 102,
        "12631": 43,
        "12632": 186,
        "12633": 118,
        "12634": 184,
        "12635": 253,
        "12636": 37,
        "12637": 60,
        "12638": 180,
        "12639": 228,
        "12640": 140,
        "12641": 34,
        "12642": 117,
        "12643": 51,
        "12644": 15,
        "12645": 189,
        "12646": 192,
        "12647": 92,
        "12648": 152,
        "12649": 6,
        "12650": 58,
        "12651": 53,
        "12652": 176,
        "12653": 187,
        "12654": 80,
        "12655": 142,
        "12656": 6,
        "12657": 248,
        "12658": 46,
        "12659": 2,
        "12660": 51,
        "12661": 105,
        "12662": 116,
        "12663": 197,
        "12664": 210,
        "12665": 114,
        "12666": 228,
        "12667": 122,
        "12668": 81,
        "12669": 76,
        "12670": 124,
        "12671": 186,
        "12672": 37,
        "12673": 2,
        "12674": 232,
        "12675": 142,
        "12676": 155,
        "12677": 73,
        "12678": 150,
        "12679": 2,
        "12680": 232,
        "12681": 208,
        "12682": 63,
        "12683": 217,
        "12684": 254,
        "12685": 177,
        "12686": 252,
        "12687": 228,
        "12688": 233,
        "12689": 74,
        "12690": 158,
        "12691": 18,
        "12692": 71,
        "12693": 42,
        "12694": 28,
        "12695": 17,
        "12696": 136,
        "12697": 243,
        "12698": 120,
        "12699": 215,
        "12700": 255,
        "12701": 166,
        "12702": 197,
        "12703": 152,
        "12704": 35,
        "12705": 200,
        "12706": 250,
        "12707": 122,
        "12708": 195,
        "12709": 222,
        "12710": 246,
        "12711": 229,
        "12712": 45,
        "12713": 132,
        "12714": 172,
        "12715": 118,
        "12716": 182,
        "12717": 162,
        "12718": 97,
        "12719": 119,
        "12720": 159,
        "12721": 106,
        "12722": 182,
        "12723": 196,
        "12724": 154,
        "12725": 106,
        "12726": 222,
        "12727": 59,
        "12728": 234,
        "12729": 144,
        "12730": 67,
        "12731": 146,
        "12732": 65,
        "12733": 0,
        "12734": 161,
        "12735": 246,
        "12736": 166,
        "12737": 3,
        "12738": 131,
        "12739": 40,
        "12740": 16,
        "12741": 185,
        "12742": 159,
        "12743": 119,
        "12744": 195,
        "12745": 2,
        "12746": 168,
        "12747": 54,
        "12748": 114,
        "12749": 6,
        "12750": 15,
        "12751": 122,
        "12752": 190,
        "12753": 219,
        "12754": 209,
        "12755": 101,
        "12756": 205,
        "12757": 182,
        "12758": 10,
        "12759": 85,
        "12760": 167,
        "12761": 0,
        "12762": 133,
        "12763": 165,
        "12764": 146,
        "12765": 94,
        "12766": 10,
        "12767": 236,
        "12768": 124,
        "12769": 52,
        "12770": 54,
        "12771": 141,
        "12772": 228,
        "12773": 156,
        "12774": 165,
        "12775": 197,
        "12776": 77,
        "12777": 83,
        "12778": 40,
        "12779": 110,
        "12780": 248,
        "12781": 174,
        "12782": 156,
        "12783": 59,
        "12784": 127,
        "12785": 201,
        "12786": 136,
        "12787": 178,
        "12788": 200,
        "12789": 70,
        "12790": 28,
        "12791": 180,
        "12792": 91,
        "12793": 233,
        "12794": 111,
        "12795": 188,
        "12796": 14,
        "12797": 199,
        "12798": 86,
        "12799": 58,
        "12800": 113,
        "12801": 234,
        "12802": 159,
        "12803": 206,
        "12804": 92,
        "12805": 155,
        "12806": 172,
        "12807": 156,
        "12808": 165,
        "12809": 24,
        "12810": 82,
        "12811": 185,
        "12812": 246,
        "12813": 191,
        "12814": 104,
        "12815": 115,
        "12816": 73,
        "12817": 26,
        "12818": 201,
        "12819": 56,
        "12820": 193,
        "12821": 241,
        "12822": 226,
        "12823": 250,
        "12824": 240,
        "12825": 248,
        "12826": 197,
        "12827": 203,
        "12828": 182,
        "12829": 113,
        "12830": 194,
        "12831": 90,
        "12832": 132,
        "12833": 31,
        "12834": 161,
        "12835": 94,
        "12836": 112,
        "12837": 106,
        "12838": 41,
        "12839": 171,
        "12840": 77,
        "12841": 250,
        "12842": 150,
        "12843": 229,
        "12844": 17,
        "12845": 127,
        "12846": 48,
        "12847": 201,
        "12848": 22,
        "12849": 241,
        "12850": 99,
        "12851": 129,
        "12852": 215,
        "12853": 211,
        "12854": 188,
        "12855": 143,
        "12856": 27,
        "12857": 76,
        "12858": 142,
        "12859": 24,
        "12860": 57,
        "12861": 161,
        "12862": 76,
        "12863": 186,
        "12864": 94,
        "12865": 64,
        "12866": 97,
        "12867": 240,
        "12868": 145,
        "12869": 173,
        "12870": 109,
        "12871": 44,
        "12872": 17,
        "12873": 176,
        "12874": 63,
        "12875": 146,
        "12876": 136,
        "12877": 216,
        "12878": 74,
        "12879": 62,
        "12880": 42,
        "12881": 132,
        "12882": 239,
        "12883": 9,
        "12884": 173,
        "12885": 211,
        "12886": 3,
        "12887": 214,
        "12888": 152,
        "12889": 50,
        "12890": 149,
        "12891": 225,
        "12892": 152,
        "12893": 145,
        "12894": 189,
        "12895": 146,
        "12896": 250,
        "12897": 195,
        "12898": 88,
        "12899": 20,
        "12900": 114,
        "12901": 180,
        "12902": 125,
        "12903": 115,
        "12904": 225,
        "12905": 242,
        "12906": 85,
        "12907": 27,
        "12908": 221,
        "12909": 124,
        "12910": 157,
        "12911": 7,
        "12912": 67,
        "12913": 132,
        "12914": 88,
        "12915": 113,
        "12916": 35,
        "12917": 245,
        "12918": 129,
        "12919": 197,
        "12920": 142,
        "12921": 128,
        "12922": 43,
        "12923": 42,
        "12924": 143,
        "12925": 196,
        "12926": 148,
        "12927": 106,
        "12928": 14,
        "12929": 198,
        "12930": 157,
        "12931": 89,
        "12932": 108,
        "12933": 81,
        "12934": 108,
        "12935": 138,
        "12936": 70,
        "12937": 81,
        "12938": 174,
        "12939": 149,
        "12940": 67,
        "12941": 9,
        "12942": 137,
        "12943": 79,
        "12944": 30,
        "12945": 67,
        "12946": 30,
        "12947": 138,
        "12948": 173,
        "12949": 161,
        "12950": 190,
        "12951": 198,
        "12952": 150,
        "12953": 198,
        "12954": 62,
        "12955": 118,
        "12956": 46,
        "12957": 132,
        "12958": 190,
        "12959": 181,
        "12960": 45,
        "12961": 190,
        "12962": 135,
        "12963": 77,
        "12964": 223,
        "12965": 61,
        "12966": 113,
        "12967": 200,
        "12968": 66,
        "12969": 222,
        "12970": 241,
        "12971": 127,
        "12972": 187,
        "12973": 198,
        "12974": 78,
        "12975": 200,
        "12976": 80,
        "12977": 137,
        "12978": 41,
        "12979": 254,
        "12980": 137,
        "12981": 144,
        "12982": 83,
        "12983": 162,
        "12984": 110,
        "12985": 89,
        "12986": 8,
        "12987": 16,
        "12988": 213,
        "12989": 24,
        "12990": 216,
        "12991": 246,
        "12992": 198,
        "12993": 225,
        "12994": 178,
        "12995": 211,
        "12996": 74,
        "12997": 232,
        "12998": 158,
        "12999": 34,
        "13000": 129,
        "13001": 143,
        "13002": 50,
        "13003": 140,
        "13004": 45,
        "13005": 73,
        "13006": 198,
        "13007": 245,
        "13008": 32,
        "13009": 126,
        "13010": 114,
        "13011": 249,
        "13012": 115,
        "13013": 86,
        "13014": 183,
        "13015": 152,
        "13016": 20,
        "13017": 251,
        "13018": 78,
        "13019": 212,
        "13020": 41,
        "13021": 98,
        "13022": 108,
        "13023": 255,
        "13024": 222,
        "13025": 29,
        "13026": 141,
        "13027": 144,
        "13028": 199,
        "13029": 163,
        "13030": 201,
        "13031": 111,
        "13032": 13,
        "13033": 221,
        "13034": 240,
        "13035": 225,
        "13036": 54,
        "13037": 255,
        "13038": 148,
        "13039": 229,
        "13040": 63,
        "13041": 238,
        "13042": 142,
        "13043": 161,
        "13044": 144,
        "13045": 226,
        "13046": 102,
        "13047": 60,
        "13048": 221,
        "13049": 21,
        "13050": 153,
        "13051": 99,
        "13052": 255,
        "13053": 240,
        "13054": 11,
        "13055": 118,
        "13056": 55,
        "13057": 230,
        "13058": 141,
        "13059": 12,
        "13060": 199,
        "13061": 183,
        "13062": 56,
        "13063": 210,
        "13064": 220,
        "13065": 249,
        "13066": 255,
        "13067": 232,
        "13068": 56,
        "13069": 165,
        "13070": 44,
        "13071": 148,
        "13072": 215,
        "13073": 98,
        "13074": 101,
        "13075": 11,
        "13076": 158,
        "13077": 242,
        "13078": 199,
        "13079": 134,
        "13080": 69,
        "13081": 212,
        "13082": 15,
        "13083": 127,
        "13084": 124,
        "13085": 113,
        "13086": 102,
        "13087": 31,
        "13088": 130,
        "13089": 57,
        "13090": 73,
        "13091": 154,
        "13092": 177,
        "13093": 106,
        "13094": 189,
        "13095": 87,
        "13096": 70,
        "13097": 253,
        "13098": 236,
        "13099": 56,
        "13100": 201,
        "13101": 205,
        "13102": 29,
        "13103": 69,
        "13104": 180,
        "13105": 114,
        "13106": 207,
        "13107": 207,
        "13108": 179,
        "13109": 17,
        "13110": 87,
        "13111": 59,
        "13112": 131,
        "13113": 127,
        "13114": 64,
        "13115": 5,
        "13116": 138,
        "13117": 230,
        "13118": 173,
        "13119": 67,
        "13120": 152,
        "13121": 148,
        "13122": 197,
        "13123": 135,
        "13124": 56,
        "13125": 10,
        "13126": 248,
        "13127": 103,
        "13128": 36,
        "13129": 246,
        "13130": 11,
        "13131": 251,
        "13132": 92,
        "13133": 242,
        "13134": 219,
        "13135": 211,
        "13136": 75,
        "13137": 187,
        "13138": 6,
        "13139": 40,
        "13140": 107,
        "13141": 60,
        "13142": 86,
        "13143": 202,
        "13144": 190,
        "13145": 108,
        "13146": 161,
        "13147": 235,
        "13148": 120,
        "13149": 219,
        "13150": 12,
        "13151": 12,
        "13152": 24,
        "13153": 152,
        "13154": 156,
        "13155": 97,
        "13156": 215,
        "13157": 188,
        "13158": 216,
        "13159": 203,
        "13160": 106,
        "13161": 28,
        "13162": 145,
        "13163": 100,
        "13164": 224,
        "13165": 3,
        "13166": 231,
        "13167": 182,
        "13168": 22,
        "13169": 223,
        "13170": 114,
        "13171": 136,
        "13172": 2,
        "13173": 125,
        "13174": 160,
        "13175": 139,
        "13176": 138,
        "13177": 31,
        "13178": 189,
        "13179": 78,
        "13180": 211,
        "13181": 87,
        "13182": 180,
        "13183": 201,
        "13184": 173,
        "13185": 64,
        "13186": 207,
        "13187": 247,
        "13188": 146,
        "13189": 188,
        "13190": 218,
        "13191": 92,
        "13192": 167,
        "13193": 82,
        "13194": 127,
        "13195": 245,
        "13196": 239,
        "13197": 250,
        "13198": 195,
        "13199": 3,
        "13200": 151,
        "13201": 129,
        "13202": 254,
        "13203": 109,
        "13204": 226,
        "13205": 119,
        "13206": 28,
        "13207": 221,
        "13208": 181,
        "13209": 118,
        "13210": 233,
        "13211": 63,
        "13212": 40,
        "13213": 74,
        "13214": 103,
        "13215": 228,
        "13216": 106,
        "13217": 163,
        "13218": 91,
        "13219": 233,
        "13220": 148,
        "13221": 129,
        "13222": 125,
        "13223": 171,
        "13224": 2,
        "13225": 179,
        "13226": 66,
        "13227": 202,
        "13228": 130,
        "13229": 231,
        "13230": 196,
        "13231": 28,
        "13232": 194,
        "13233": 239,
        "13234": 149,
        "13235": 150,
        "13236": 82,
        "13237": 108,
        "13238": 248,
        "13239": 176,
        "13240": 255,
        "13241": 198,
        "13242": 67,
        "13243": 100,
        "13244": 56,
        "13245": 199,
        "13246": 9,
        "13247": 44,
        "13248": 12,
        "13249": 103,
        "13250": 216,
        "13251": 109,
        "13252": 35,
        "13253": 121,
        "13254": 227,
        "13255": 124,
        "13256": 199,
        "13257": 91,
        "13258": 144,
        "13259": 177,
        "13260": 129,
        "13261": 211,
        "13262": 39,
        "13263": 192,
        "13264": 145,
        "13265": 235,
        "13266": 40,
        "13267": 232,
        "13268": 16,
        "13269": 142,
        "13270": 138,
        "13271": 57,
        "13272": 248,
        "13273": 175,
        "13274": 49,
        "13275": 68,
        "13276": 184,
        "13277": 210,
        "13278": 89,
        "13279": 140,
        "13280": 111,
        "13281": 129,
        "13282": 31,
        "13283": 182,
        "13284": 226,
        "13285": 229,
        "13286": 103,
        "13287": 199,
        "13288": 72,
        "13289": 15,
        "13290": 50,
        "13291": 80,
        "13292": 183,
        "13293": 134,
        "13294": 174,
        "13295": 128,
        "13296": 189,
        "13297": 78,
        "13298": 164,
        "13299": 76,
        "13300": 142,
        "13301": 9,
        "13302": 130,
        "13303": 83,
        "13304": 180,
        "13305": 126,
        "13306": 24,
        "13307": 148,
        "13308": 68,
        "13309": 148,
        "13310": 23,
        "13311": 203,
        "13312": 217,
        "13313": 115,
        "13314": 68,
        "13315": 80,
        "13316": 54,
        "13317": 56,
        "13318": 118,
        "13319": 94,
        "13320": 227,
        "13321": 108,
        "13322": 248,
        "13323": 217,
        "13324": 168,
        "13325": 30,
        "13326": 27,
        "13327": 64,
        "13328": 247,
        "13329": 173,
        "13330": 94,
        "13331": 131,
        "13332": 35,
        "13333": 151,
        "13334": 123,
        "13335": 118,
        "13336": 203,
        "13337": 77,
        "13338": 78,
        "13339": 92,
        "13340": 201,
        "13341": 204,
        "13342": 16,
        "13343": 21,
        "13344": 4,
        "13345": 10,
        "13346": 115,
        "13347": 156,
        "13348": 176,
        "13349": 155,
        "13350": 67,
        "13351": 31,
        "13352": 67,
        "13353": 213,
        "13354": 75,
        "13355": 151,
        "13356": 249,
        "13357": 244,
        "13358": 226,
        "13359": 159,
        "13360": 50,
        "13361": 137,
        "13362": 117,
        "13363": 6,
        "13364": 198,
        "13365": 26,
        "13366": 131,
        "13367": 84,
        "13368": 43,
        "13369": 15,
        "13370": 97,
        "13371": 101,
        "13372": 165,
        "13373": 203,
        "13374": 213,
        "13375": 123,
        "13376": 132,
        "13377": 251,
        "13378": 194,
        "13379": 150,
        "13380": 227,
        "13381": 162,
        "13382": 151,
        "13383": 242,
        "13384": 170,
        "13385": 76,
        "13386": 65,
        "13387": 89,
        "13388": 136,
        "13389": 21,
        "13390": 48,
        "13391": 216,
        "13392": 193,
        "13393": 102,
        "13394": 226,
        "13395": 216,
        "13396": 201,
        "13397": 94,
        "13398": 159,
        "13399": 189,
        "13400": 54,
        "13401": 229,
        "13402": 161,
        "13403": 255,
        "13404": 229,
        "13405": 100,
        "13406": 216,
        "13407": 16,
        "13408": 232,
        "13409": 9,
        "13410": 87,
        "13411": 191,
        "13412": 240,
        "13413": 233,
        "13414": 56,
        "13415": 77,
        "13416": 48,
        "13417": 78,
        "13418": 202,
        "13419": 123,
        "13420": 97,
        "13421": 80,
        "13422": 251,
        "13423": 53,
        "13424": 6,
        "13425": 222,
        "13426": 97,
        "13427": 81,
        "13428": 231,
        "13429": 175,
        "13430": 0,
        "13431": 107,
        "13432": 78,
        "13433": 128,
        "13434": 160,
        "13435": 93,
        "13436": 86,
        "13437": 85,
        "13438": 156,
        "13439": 124,
        "13440": 26,
        "13441": 131,
        "13442": 191,
        "13443": 24,
        "13444": 146,
        "13445": 139,
        "13446": 232,
        "13447": 119,
        "13448": 19,
        "13449": 192,
        "13450": 148,
        "13451": 160,
        "13452": 129,
        "13453": 89,
        "13454": 161,
        "13455": 183,
        "13456": 103,
        "13457": 205,
        "13458": 128,
        "13459": 39,
        "13460": 81,
        "13461": 11,
        "13462": 254,
        "13463": 94,
        "13464": 1,
        "13465": 164,
        "13466": 189,
        "13467": 51,
        "13468": 221,
        "13469": 127,
        "13470": 100,
        "13471": 143,
        "13472": 92,
        "13473": 86,
        "13474": 240,
        "13475": 231,
        "13476": 248,
        "13477": 98,
        "13478": 152,
        "13479": 204,
        "13480": 40,
        "13481": 5,
        "13482": 173,
        "13483": 155,
        "13484": 189,
        "13485": 248,
        "13486": 204,
        "13487": 80,
        "13488": 145,
        "13489": 198,
        "13490": 242,
        "13491": 141,
        "13492": 227,
        "13493": 134,
        "13494": 1,
        "13495": 158,
        "13496": 236,
        "13497": 83,
        "13498": 74,
        "13499": 18,
        "13500": 69,
        "13501": 0,
        "13502": 24,
        "13503": 106,
        "13504": 93,
        "13505": 178,
        "13506": 121,
        "13507": 17,
        "13508": 49,
        "13509": 146,
        "13510": 103,
        "13511": 182,
        "13512": 161,
        "13513": 86,
        "13514": 169,
        "13515": 23,
        "13516": 161,
        "13517": 249,
        "13518": 238,
        "13519": 212,
        "13520": 89,
        "13521": 207,
        "13522": 6,
        "13523": 15,
        "13524": 215,
        "13525": 58,
        "13526": 32,
        "13527": 61,
        "13528": 178,
        "13529": 117,
        "13530": 233,
        "13531": 199,
        "13532": 242,
        "13533": 116,
        "13534": 175,
        "13535": 68,
        "13536": 249,
        "13537": 190,
        "13538": 72,
        "13539": 122,
        "13540": 192,
        "13541": 59,
        "13542": 161,
        "13543": 157,
        "13544": 140,
        "13545": 56,
        "13546": 110,
        "13547": 187,
        "13548": 152,
        "13549": 82,
        "13550": 176,
        "13551": 64,
        "13552": 68,
        "13553": 96,
        "13554": 203,
        "13555": 67,
        "13556": 100,
        "13557": 16,
        "13558": 114,
        "13559": 131,
        "13560": 167,
        "13561": 111,
        "13562": 120,
        "13563": 19,
        "13564": 167,
        "13565": 103,
        "13566": 73,
        "13567": 37,
        "13568": 210,
        "13569": 3,
        "13570": 235,
        "13571": 31,
        "13572": 42,
        "13573": 151,
        "13574": 69,
        "13575": 205,
        "13576": 193,
        "13577": 40,
        "13578": 92,
        "13579": 163,
        "13580": 168,
        "13581": 67,
        "13582": 124,
        "13583": 233,
        "13584": 130,
        "13585": 141,
        "13586": 172,
        "13587": 231,
        "13588": 221,
        "13589": 123,
        "13590": 193,
        "13591": 89,
        "13592": 98,
        "13593": 79,
        "13594": 212,
        "13595": 87,
        "13596": 145,
        "13597": 122,
        "13598": 117,
        "13599": 3,
        "13600": 55,
        "13601": 38,
        "13602": 205,
        "13603": 94,
        "13604": 62,
        "13605": 83,
        "13606": 226,
        "13607": 35,
        "13608": 183,
        "13609": 219,
        "13610": 14,
        "13611": 80,
        "13612": 153,
        "13613": 181,
        "13614": 78,
        "13615": 206,
        "13616": 193,
        "13617": 203,
        "13618": 10,
        "13619": 47,
        "13620": 242,
        "13621": 157,
        "13622": 43,
        "13623": 103,
        "13624": 121,
        "13625": 48,
        "13626": 162,
        "13627": 89,
        "13628": 194,
        "13629": 45,
        "13630": 165,
        "13631": 196,
        "13632": 137,
        "13633": 252,
        "13634": 248,
        "13635": 164,
        "13636": 206,
        "13637": 143,
        "13638": 83,
        "13639": 69,
        "13640": 119,
        "13641": 162,
        "13642": 22,
        "13643": 231,
        "13644": 4,
        "13645": 142,
        "13646": 96,
        "13647": 185,
        "13648": 41,
        "13649": 112,
        "13650": 246,
        "13651": 110,
        "13652": 149,
        "13653": 1,
        "13654": 249,
        "13655": 236,
        "13656": 33,
        "13657": 180,
        "13658": 133,
        "13659": 137,
        "13660": 243,
        "13661": 46,
        "13662": 204,
        "13663": 97,
        "13664": 83,
        "13665": 101,
        "13666": 184,
        "13667": 55,
        "13668": 103,
        "13669": 127,
        "13670": 35,
        "13671": 48,
        "13672": 232,
        "13673": 131,
        "13674": 160,
        "13675": 234,
        "13676": 164,
        "13677": 174,
        "13678": 8,
        "13679": 97,
        "13680": 74,
        "13681": 199,
        "13682": 104,
        "13683": 102,
        "13684": 222,
        "13685": 74,
        "13686": 52,
        "13687": 138,
        "13688": 200,
        "13689": 223,
        "13690": 159,
        "13691": 121,
        "13692": 184,
        "13693": 68,
        "13694": 161,
        "13695": 238,
        "13696": 39,
        "13697": 168,
        "13698": 24,
        "13699": 89,
        "13700": 145,
        "13701": 19,
        "13702": 167,
        "13703": 58,
        "13704": 104,
        "13705": 48,
        "13706": 230,
        "13707": 174,
        "13708": 103,
        "13709": 77,
        "13710": 128,
        "13711": 248,
        "13712": 227,
        "13713": 39,
        "13714": 187,
        "13715": 59,
        "13716": 168,
        "13717": 203,
        "13718": 211,
        "13719": 177,
        "13720": 16,
        "13721": 30,
        "13722": 146,
        "13723": 45,
        "13724": 188,
        "13725": 193,
        "13726": 59,
        "13727": 148,
        "13728": 29,
        "13729": 55,
        "13730": 179,
        "13731": 39,
        "13732": 195,
        "13733": 132,
        "13734": 48,
        "13735": 204,
        "13736": 145,
        "13737": 37,
        "13738": 47,
        "13739": 53,
        "13740": 103,
        "13741": 202,
        "13742": 129,
        "13743": 181,
        "13744": 120,
        "13745": 232,
        "13746": 190,
        "13747": 218,
        "13748": 193,
        "13749": 74,
        "13750": 203,
        "13751": 192,
        "13752": 142,
        "13753": 36,
        "13754": 218,
        "13755": 50,
        "13756": 23,
        "13757": 135,
        "13758": 123,
        "13759": 133,
        "13760": 79,
        "13761": 247,
        "13762": 165,
        "13763": 189,
        "13764": 158,
        "13765": 60,
        "13766": 198,
        "13767": 98,
        "13768": 254,
        "13769": 51,
        "13770": 49,
        "13771": 100,
        "13772": 254,
        "13773": 183,
        "13774": 48,
        "13775": 212,
        "13776": 8,
        "13777": 159,
        "13778": 245,
        "13779": 134,
        "13780": 116,
        "13781": 65,
        "13782": 22,
        "13783": 207,
        "13784": 230,
        "13785": 141,
        "13786": 211,
        "13787": 114,
        "13788": 82,
        "13789": 92,
        "13790": 231,
        "13791": 79,
        "13792": 73,
        "13793": 22,
        "13794": 229,
        "13795": 232,
        "13796": 94,
        "13797": 56,
        "13798": 213,
        "13799": 152,
        "13800": 153,
        "13801": 127,
        "13802": 221,
        "13803": 230,
        "13804": 203,
        "13805": 206,
        "13806": 180,
        "13807": 86,
        "13808": 193,
        "13809": 92,
        "13810": 76,
        "13811": 234,
        "13812": 65,
        "13813": 31,
        "13814": 184,
        "13815": 193,
        "13816": 118,
        "13817": 20,
        "13818": 210,
        "13819": 149,
        "13820": 89,
        "13821": 240,
        "13822": 11,
        "13823": 55,
        "13824": 70,
        "13825": 10,
        "13826": 250,
        "13827": 70,
        "13828": 24,
        "13829": 166,
        "13830": 1,
        "13831": 165,
        "13832": 55,
        "13833": 8,
        "13834": 100,
        "13835": 119,
        "13836": 120,
        "13837": 100,
        "13838": 235,
        "13839": 175,
        "13840": 241,
        "13841": 148,
        "13842": 148,
        "13843": 71,
        "13844": 195,
        "13845": 184,
        "13846": 236,
        "13847": 141,
        "13848": 209,
        "13849": 157,
        "13850": 86,
        "13851": 150,
        "13852": 55,
        "13853": 19,
        "13854": 253,
        "13855": 153,
        "13856": 234,
        "13857": 65,
        "13858": 59,
        "13859": 249,
        "13860": 237,
        "13861": 161,
        "13862": 95,
        "13863": 206,
        "13864": 60,
        "13865": 246,
        "13866": 18,
        "13867": 143,
        "13868": 229,
        "13869": 32,
        "13870": 246,
        "13871": 45,
        "13872": 13,
        "13873": 87,
        "13874": 123,
        "13875": 226,
        "13876": 48,
        "13877": 104,
        "13878": 74,
        "13879": 58,
        "13880": 74,
        "13881": 219,
        "13882": 8,
        "13883": 66,
        "13884": 86,
        "13885": 129,
        "13886": 55,
        "13887": 107,
        "13888": 96,
        "13889": 3,
        "13890": 91,
        "13891": 245,
        "13892": 33,
        "13893": 46,
        "13894": 28,
        "13895": 151,
        "13896": 56,
        "13897": 87,
        "13898": 22,
        "13899": 22,
        "13900": 95,
        "13901": 230,
        "13902": 30,
        "13903": 29,
        "13904": 9,
        "13905": 95,
        "13906": 238,
        "13907": 0,
        "13908": 181,
        "13909": 15,
        "13910": 170,
        "13911": 181,
        "13912": 18,
        "13913": 96,
        "13914": 21,
        "13915": 1,
        "13916": 67,
        "13917": 15,
        "13918": 163,
        "13919": 156,
        "13920": 129,
        "13921": 6,
        "13922": 105,
        "13923": 148,
        "13924": 247,
        "13925": 114,
        "13926": 196,
        "13927": 81,
        "13928": 126,
        "13929": 83,
        "13930": 207,
        "13931": 68,
        "13932": 60,
        "13933": 226,
        "13934": 231,
        "13935": 60,
        "13936": 170,
        "13937": 86,
        "13938": 225,
        "13939": 72,
        "13940": 66,
        "13941": 252,
        "13942": 174,
        "13943": 189,
        "13944": 51,
        "13945": 84,
        "13946": 187,
        "13947": 239,
        "13948": 236,
        "13949": 194,
        "13950": 170,
        "13951": 15,
        "13952": 76,
        "13953": 187,
        "13954": 117,
        "13955": 225,
        "13956": 9,
        "13957": 108,
        "13958": 90,
        "13959": 146,
        "13960": 167,
        "13961": 11,
        "13962": 55,
        "13963": 201,
        "13964": 183,
        "13965": 144,
        "13966": 4,
        "13967": 126,
        "13968": 167,
        "13969": 17,
        "13970": 207,
        "13971": 249,
        "13972": 79,
        "13973": 112,
        "13974": 4,
        "13975": 135,
        "13976": 139,
        "13977": 111,
        "13978": 246,
        "13979": 144,
        "13980": 202,
        "13981": 237,
        "13982": 100,
        "13983": 109,
        "13984": 80,
        "13985": 14,
        "13986": 90,
        "13987": 20,
        "13988": 77,
        "13989": 56,
        "13990": 91,
        "13991": 90,
        "13992": 50,
        "13993": 55,
        "13994": 173,
        "13995": 93,
        "13996": 73,
        "13997": 50,
        "13998": 63,
        "13999": 21,
        "14000": 104,
        "14001": 3,
        "14002": 205,
        "14003": 86,
        "14004": 215,
        "14005": 196,
        "14006": 5,
        "14007": 240,
        "14008": 134,
        "14009": 17,
        "14010": 94,
        "14011": 147,
        "14012": 34,
        "14013": 77,
        "14014": 134,
        "14015": 234,
        "14016": 53,
        "14017": 85,
        "14018": 19,
        "14019": 51,
        "14020": 240,
        "14021": 159,
        "14022": 239,
        "14023": 71,
        "14024": 205,
        "14025": 216,
        "14026": 215,
        "14027": 204,
        "14028": 210,
        "14029": 130,
        "14030": 185,
        "14031": 73,
        "14032": 36,
        "14033": 231,
        "14034": 200,
        "14035": 81,
        "14036": 120,
        "14037": 62,
        "14038": 49,
        "14039": 32,
        "14040": 63,
        "14041": 197,
        "14042": 212,
        "14043": 0,
        "14044": 251,
        "14045": 245,
        "14046": 53,
        "14047": 111,
        "14048": 109,
        "14049": 233,
        "14050": 87,
        "14051": 104,
        "14052": 18,
        "14053": 71,
        "14054": 96,
        "14055": 95,
        "14056": 192,
        "14057": 151,
        "14058": 242,
        "14059": 111,
        "14060": 255,
        "14061": 13,
        "14062": 77,
        "14063": 60,
        "14064": 202,
        "14065": 23,
        "14066": 163,
        "14067": 7,
        "14068": 75,
        "14069": 99,
        "14070": 40,
        "14071": 7,
        "14072": 114,
        "14073": 100,
        "14074": 145,
        "14075": 237,
        "14076": 45,
        "14077": 28,
        "14078": 193,
        "14079": 44,
        "14080": 129,
        "14081": 248,
        "14082": 195,
        "14083": 248,
        "14084": 210,
        "14085": 5,
        "14086": 121,
        "14087": 10,
        "14088": 149,
        "14089": 116,
        "14090": 55,
        "14091": 59,
        "14092": 26,
        "14093": 212,
        "14094": 233,
        "14095": 51,
        "14096": 187,
        "14097": 63,
        "14098": 173,
        "14099": 68,
        "14100": 243,
        "14101": 106,
        "14102": 45,
        "14103": 122,
        "14104": 125,
        "14105": 47,
        "14106": 80,
        "14107": 31,
        "14108": 167,
        "14109": 51,
        "14110": 237,
        "14111": 48,
        "14112": 116,
        "14113": 125,
        "14114": 200,
        "14115": 126,
        "14116": 34,
        "14117": 247,
        "14118": 120,
        "14119": 3,
        "14120": 182,
        "14121": 200,
        "14122": 189,
        "14123": 34,
        "14124": 167,
        "14125": 85,
        "14126": 209,
        "14127": 97,
        "14128": 28,
        "14129": 53,
        "14130": 165,
        "14131": 216,
        "14132": 161,
        "14133": 104,
        "14134": 88,
        "14135": 44,
        "14136": 139,
        "14137": 102,
        "14138": 151,
        "14139": 19,
        "14140": 15,
        "14141": 64,
        "14142": 27,
        "14143": 6,
        "14144": 126,
        "14145": 35,
        "14146": 187,
        "14147": 95,
        "14148": 75,
        "14149": 227,
        "14150": 199,
        "14151": 62,
        "14152": 124,
        "14153": 80,
        "14154": 249,
        "14155": 224,
        "14156": 30,
        "14157": 127,
        "14158": 166,
        "14159": 63,
        "14160": 46,
        "14161": 140,
        "14162": 102,
        "14163": 96,
        "14164": 103,
        "14165": 211,
        "14166": 209,
        "14167": 213,
        "14168": 108,
        "14169": 251,
        "14170": 143,
        "14171": 139,
        "14172": 93,
        "14173": 48,
        "14174": 5,
        "14175": 77,
        "14176": 130,
        "14177": 147,
        "14178": 179,
        "14179": 101,
        "14180": 152,
        "14181": 0,
        "14182": 207,
        "14183": 238,
        "14184": 221,
        "14185": 191,
        "14186": 56,
        "14187": 16,
        "14188": 214,
        "14189": 134,
        "14190": 142,
        "14191": 7,
        "14192": 48,
        "14193": 56,
        "14194": 194,
        "14195": 112,
        "14196": 34,
        "14197": 32,
        "14198": 173,
        "14199": 37,
        "14200": 104,
        "14201": 231,
        "14202": 160,
        "14203": 89,
        "14204": 8,
        "14205": 207,
        "14206": 204,
        "14207": 42,
        "14208": 88,
        "14209": 134,
        "14210": 254,
        "14211": 160,
        "14212": 201,
        "14213": 227,
        "14214": 66,
        "14215": 32,
        "14216": 77,
        "14217": 227,
        "14218": 246,
        "14219": 42,
        "14220": 7,
        "14221": 215,
        "14222": 1,
        "14223": 224,
        "14224": 201,
        "14225": 254,
        "14226": 31,
        "14227": 6,
        "14228": 163,
        "14229": 65,
        "14230": 127,
        "14231": 2,
        "14232": 88,
        "14233": 239,
        "14234": 145,
        "14235": 149,
        "14236": 204,
        "14237": 43,
        "14238": 172,
        "14239": 106,
        "14240": 142,
        "14241": 149,
        "14242": 152,
        "14243": 120,
        "14244": 148,
        "14245": 35,
        "14246": 37,
        "14247": 215,
        "14248": 27,
        "14249": 215,
        "14250": 78,
        "14251": 104,
        "14252": 56,
        "14253": 111,
        "14254": 171,
        "14255": 28,
        "14256": 82,
        "14257": 144,
        "14258": 180,
        "14259": 79,
        "14260": 2,
        "14261": 38,
        "14262": 191,
        "14263": 146,
        "14264": 121,
        "14265": 230,
        "14266": 203,
        "14267": 27,
        "14268": 231,
        "14269": 235,
        "14270": 50,
        "14271": 149,
        "14272": 5,
        "14273": 253,
        "14274": 204,
        "14275": 219,
        "14276": 49,
        "14277": 72,
        "14278": 23,
        "14279": 95,
        "14280": 45,
        "14281": 42,
        "14282": 113,
        "14283": 147,
        "14284": 122,
        "14285": 225,
        "14286": 246,
        "14287": 172,
        "14288": 198,
        "14289": 146,
        "14290": 10,
        "14291": 4,
        "14292": 146,
        "14293": 163,
        "14294": 12,
        "14295": 1,
        "14296": 140,
        "14297": 50,
        "14298": 121,
        "14299": 107,
        "14300": 89,
        "14301": 71,
        "14302": 24,
        "14303": 68,
        "14304": 189,
        "14305": 35,
        "14306": 207,
        "14307": 202,
        "14308": 227,
        "14309": 56,
        "14310": 167,
        "14311": 61,
        "14312": 164,
        "14313": 209,
        "14314": 249,
        "14315": 92,
        "14316": 187,
        "14317": 94,
        "14318": 160,
        "14319": 134,
        "14320": 191,
        "14321": 193,
        "14322": 73,
        "14323": 150,
        "14324": 164,
        "14325": 239,
        "14326": 69,
        "14327": 110,
        "14328": 160,
        "14329": 33,
        "14330": 246,
        "14331": 175,
        "14332": 234,
        "14333": 78,
        "14334": 202,
        "14335": 55,
        "14336": 108,
        "14337": 16,
        "14338": 161,
        "14339": 241,
        "14340": 2,
        "14341": 135,
        "14342": 174,
        "14343": 247,
        "14344": 38,
        "14345": 6,
        "14346": 87,
        "14347": 3,
        "14348": 43,
        "14349": 47,
        "14350": 24,
        "14351": 176,
        "14352": 239,
        "14353": 211,
        "14354": 87,
        "14355": 8,
        "14356": 217,
        "14357": 189,
        "14358": 82,
        "14359": 98,
        "14360": 49,
        "14361": 21,
        "14362": 81,
        "14363": 131,
        "14364": 131,
        "14365": 124,
        "14366": 95,
        "14367": 110,
        "14368": 253,
        "14369": 58,
        "14370": 230,
        "14371": 185,
        "14372": 14,
        "14373": 222,
        "14374": 156,
        "14375": 197,
        "14376": 18,
        "14377": 73,
        "14378": 141,
        "14379": 134,
        "14380": 64,
        "14381": 79,
        "14382": 92,
        "14383": 45,
        "14384": 20,
        "14385": 141,
        "14386": 166,
        "14387": 211,
        "14388": 30,
        "14389": 229,
        "14390": 97,
        "14391": 9,
        "14392": 212,
        "14393": 88,
        "14394": 194,
        "14395": 251,
        "14396": 193,
        "14397": 107,
        "14398": 146,
        "14399": 65,
        "14400": 163,
        "14401": 243,
        "14402": 139,
        "14403": 47,
        "14404": 210,
        "14405": 64,
        "14406": 151,
        "14407": 93,
        "14408": 110,
        "14409": 219,
        "14410": 119,
        "14411": 182,
        "14412": 84,
        "14413": 14,
        "14414": 35,
        "14415": 7,
        "14416": 248,
        "14417": 155,
        "14418": 31,
        "14419": 75,
        "14420": 211,
        "14421": 144,
        "14422": 161,
        "14423": 169,
        "14424": 96,
        "14425": 4,
        "14426": 152,
        "14427": 75,
        "14428": 192,
        "14429": 186,
        "14430": 211,
        "14431": 244,
        "14432": 222,
        "14433": 164,
        "14434": 100,
        "14435": 234,
        "14436": 252,
        "14437": 118,
        "14438": 92,
        "14439": 139,
        "14440": 71,
        "14441": 246,
        "14442": 3,
        "14443": 146,
        "14444": 142,
        "14445": 73,
        "14446": 18,
        "14447": 197,
        "14448": 228,
        "14449": 65,
        "14450": 93,
        "14451": 107,
        "14452": 55,
        "14453": 4,
        "14454": 179,
        "14455": 170,
        "14456": 105,
        "14457": 159,
        "14458": 230,
        "14459": 67,
        "14460": 182,
        "14461": 218,
        "14462": 15,
        "14463": 137,
        "14464": 90,
        "14465": 25,
        "14466": 194,
        "14467": 243,
        "14468": 206,
        "14469": 27,
        "14470": 107,
        "14471": 71,
        "14472": 214,
        "14473": 64,
        "14474": 14,
        "14475": 208,
        "14476": 172,
        "14477": 121,
        "14478": 27,
        "14479": 171,
        "14480": 27,
        "14481": 105,
        "14482": 111,
        "14483": 172,
        "14484": 142,
        "14485": 232,
        "14486": 233,
        "14487": 212,
        "14488": 106,
        "14489": 171,
        "14490": 11,
        "14491": 35,
        "14492": 173,
        "14493": 135,
        "14494": 150,
        "14495": 246,
        "14496": 131,
        "14497": 165,
        "14498": 179,
        "14499": 230,
        "14500": 249,
        "14501": 164,
        "14502": 34,
        "14503": 134,
        "14504": 179,
        "14505": 29,
        "14506": 128,
        "14507": 207,
        "14508": 119,
        "14509": 67,
        "14510": 240,
        "14511": 190,
        "14512": 152,
        "14513": 213,
        "14514": 240,
        "14515": 214,
        "14516": 203,
        "14517": 188,
        "14518": 89,
        "14519": 213,
        "14520": 95,
        "14521": 139,
        "14522": 133,
        "14523": 124,
        "14524": 160,
        "14525": 122,
        "14526": 124,
        "14527": 33,
        "14528": 113,
        "14529": 143,
        "14530": 218,
        "14531": 201,
        "14532": 3,
        "14533": 146,
        "14534": 73,
        "14535": 0,
        "14536": 115,
        "14537": 94,
        "14538": 81,
        "14539": 176,
        "14540": 84,
        "14541": 194,
        "14542": 19,
        "14543": 74,
        "14544": 215,
        "14545": 3,
        "14546": 181,
        "14547": 16,
        "14548": 239,
        "14549": 178,
        "14550": 167,
        "14551": 177,
        "14552": 169,
        "14553": 209,
        "14554": 197,
        "14555": 40,
        "14556": 46,
        "14557": 234,
        "14558": 82,
        "14559": 49,
        "14560": 208,
        "14561": 130,
        "14562": 226,
        "14563": 36,
        "14564": 31,
        "14565": 212,
        "14566": 172,
        "14567": 27,
        "14568": 124,
        "14569": 37,
        "14570": 246,
        "14571": 34,
        "14572": 150,
        "14573": 46,
        "14574": 24,
        "14575": 2,
        "14576": 86,
        "14577": 144,
        "14578": 105,
        "14579": 58,
        "14580": 168,
        "14581": 209,
        "14582": 197,
        "14583": 32,
        "14584": 153,
        "14585": 147,
        "14586": 135,
        "14587": 108,
        "14588": 85,
        "14589": 11,
        "14590": 41,
        "14591": 153,
        "14592": 42,
        "14593": 211,
        "14594": 105,
        "14595": 135,
        "14596": 204,
        "14597": 70,
        "14598": 247,
        "14599": 51,
        "14600": 52,
        "14601": 248,
        "14602": 118,
        "14603": 6,
        "14604": 20,
        "14605": 212,
        "14606": 10,
        "14607": 138,
        "14608": 51,
        "14609": 7,
        "14610": 239,
        "14611": 87,
        "14612": 134,
        "14613": 192,
        "14614": 59,
        "14615": 148,
        "14616": 68,
        "14617": 249,
        "14618": 64,
        "14619": 57,
        "14620": 228,
        "14621": 119,
        "14622": 39,
        "14623": 86,
        "14624": 107,
        "14625": 232,
        "14626": 44,
        "14627": 14,
        "14628": 239,
        "14629": 143,
        "14630": 63,
        "14631": 143,
        "14632": 48,
        "14633": 12,
        "14634": 164,
        "14635": 149,
        "14636": 235,
        "14637": 126,
        "14638": 24,
        "14639": 165,
        "14640": 8,
        "14641": 240,
        "14642": 36,
        "14643": 64,
        "14644": 36,
        "14645": 230,
        "14646": 244,
        "14647": 237,
        "14648": 230,
        "14649": 189,
        "14650": 86,
        "14651": 122,
        "14652": 26,
        "14653": 179,
        "14654": 70,
        "14655": 173,
        "14656": 170,
        "14657": 48,
        "14658": 160,
        "14659": 251,
        "14660": 199,
        "14661": 60,
        "14662": 6,
        "14663": 214,
        "14664": 47,
        "14665": 221,
        "14666": 23,
        "14667": 9,
        "14668": 165,
        "14669": 12,
        "14670": 13,
        "14671": 37,
        "14672": 156,
        "14673": 215,
        "14674": 204,
        "14675": 3,
        "14676": 235,
        "14677": 254,
        "14678": 117,
        "14679": 173,
        "14680": 245,
        "14681": 227,
        "14682": 68,
        "14683": 137,
        "14684": 235,
        "14685": 72,
        "14686": 124,
        "14687": 107,
        "14688": 40,
        "14689": 103,
        "14690": 44,
        "14691": 240,
        "14692": 40,
        "14693": 188,
        "14694": 25,
        "14695": 5,
        "14696": 188,
        "14697": 253,
        "14698": 127,
        "14699": 179,
        "14700": 159,
        "14701": 108,
        "14702": 210,
        "14703": 51,
        "14704": 172,
        "14705": 7,
        "14706": 166,
        "14707": 58,
        "14708": 226,
        "14709": 249,
        "14710": 222,
        "14711": 31,
        "14712": 211,
        "14713": 42,
        "14714": 177,
        "14715": 68,
        "14716": 105,
        "14717": 34,
        "14718": 217,
        "14719": 169,
        "14720": 105,
        "14721": 231,
        "14722": 117,
        "14723": 99,
        "14724": 172,
        "14725": 114,
        "14726": 100,
        "14727": 35,
        "14728": 104,
        "14729": 119,
        "14730": 130,
        "14731": 145,
        "14732": 50,
        "14733": 42,
        "14734": 18,
        "14735": 87,
        "14736": 10,
        "14737": 230,
        "14738": 211,
        "14739": 191,
        "14740": 47,
        "14741": 245,
        "14742": 164,
        "14743": 117,
        "14744": 199,
        "14745": 158,
        "14746": 99,
        "14747": 138,
        "14748": 106,
        "14749": 146,
        "14750": 191,
        "14751": 6,
        "14752": 138,
        "14753": 140,
        "14754": 216,
        "14755": 63,
        "14756": 143,
        "14757": 17,
        "14758": 2,
        "14759": 55,
        "14760": 22,
        "14761": 162,
        "14762": 95,
        "14763": 194,
        "14764": 240,
        "14765": 126,
        "14766": 203,
        "14767": 7,
        "14768": 69,
        "14769": 86,
        "14770": 108,
        "14771": 155,
        "14772": 226,
        "14773": 83,
        "14774": 109,
        "14775": 159,
        "14776": 117,
        "14777": 242,
        "14778": 250,
        "14779": 186,
        "14780": 200,
        "14781": 41,
        "14782": 59,
        "14783": 76,
        "14784": 174,
        "14785": 205,
        "14786": 251,
        "14787": 194,
        "14788": 86,
        "14789": 49,
        "14790": 83,
        "14791": 118,
        "14792": 34,
        "14793": 47,
        "14794": 56,
        "14795": 247,
        "14796": 156,
        "14797": 71,
        "14798": 136,
        "14799": 132,
        "14800": 102,
        "14801": 2,
        "14802": 170,
        "14803": 104,
        "14804": 46,
        "14805": 229,
        "14806": 73,
        "14807": 154,
        "14808": 65,
        "14809": 225,
        "14810": 168,
        "14811": 180,
        "14812": 181,
        "14813": 158,
        "14814": 84,
        "14815": 138,
        "14816": 244,
        "14817": 213,
        "14818": 67,
        "14819": 39,
        "14820": 145,
        "14821": 196,
        "14822": 50,
        "14823": 49,
        "14824": 218,
        "14825": 151,
        "14826": 183,
        "14827": 146,
        "14828": 183,
        "14829": 53,
        "14830": 14,
        "14831": 138,
        "14832": 5,
        "14833": 118,
        "14834": 43,
        "14835": 12,
        "14836": 229,
        "14837": 25,
        "14838": 217,
        "14839": 169,
        "14840": 123,
        "14841": 159,
        "14842": 167,
        "14843": 126,
        "14844": 215,
        "14845": 231,
        "14846": 163,
        "14847": 15,
        "14848": 13,
        "14849": 187,
        "14850": 228,
        "14851": 7,
        "14852": 92,
        "14853": 93,
        "14854": 73,
        "14855": 171,
        "14856": 153,
        "14857": 39,
        "14858": 174,
        "14859": 199,
        "14860": 48,
        "14861": 163,
        "14862": 177,
        "14863": 31,
        "14864": 219,
        "14865": 142,
        "14866": 118,
        "14867": 166,
        "14868": 225,
        "14869": 152,
        "14870": 240,
        "14871": 76,
        "14872": 144,
        "14873": 97,
        "14874": 212,
        "14875": 173,
        "14876": 139,
        "14877": 119,
        "14878": 149,
        "14879": 49,
        "14880": 204,
        "14881": 98,
        "14882": 5,
        "14883": 82,
        "14884": 79,
        "14885": 174,
        "14886": 243,
        "14887": 12,
        "14888": 145,
        "14889": 10,
        "14890": 56,
        "14891": 98,
        "14892": 176,
        "14893": 193,
        "14894": 36,
        "14895": 78,
        "14896": 239,
        "14897": 147,
        "14898": 194,
        "14899": 97,
        "14900": 222,
        "14901": 180,
        "14902": 195,
        "14903": 197,
        "14904": 58,
        "14905": 236,
        "14906": 166,
        "14907": 122,
        "14908": 39,
        "14909": 59,
        "14910": 253,
        "14911": 16,
        "14912": 7,
        "14913": 108,
        "14914": 9,
        "14915": 251,
        "14916": 166,
        "14917": 39,
        "14918": 201,
        "14919": 219,
        "14920": 254,
        "14921": 192,
        "14922": 69,
        "14923": 135,
        "14924": 243,
        "14925": 22,
        "14926": 223,
        "14927": 31,
        "14928": 69,
        "14929": 160,
        "14930": 254,
        "14931": 158,
        "14932": 196,
        "14933": 47,
        "14934": 234,
        "14935": 75,
        "14936": 15,
        "14937": 21,
        "14938": 28,
        "14939": 94,
        "14940": 109,
        "14941": 171,
        "14942": 229,
        "14943": 50,
        "14944": 216,
        "14945": 160,
        "14946": 123,
        "14947": 71,
        "14948": 8,
        "14949": 103,
        "14950": 70,
        "14951": 60,
        "14952": 57,
        "14953": 145,
        "14954": 78,
        "14955": 54,
        "14956": 3,
        "14957": 149,
        "14958": 167,
        "14959": 55,
        "14960": 244,
        "14961": 171,
        "14962": 243,
        "14963": 247,
        "14964": 175,
        "14965": 236,
        "14966": 125,
        "14967": 51,
        "14968": 242,
        "14969": 116,
        "14970": 249,
        "14971": 81,
        "14972": 139,
        "14973": 46,
        "14974": 26,
        "14975": 76,
        "14976": 83,
        "14977": 97,
        "14978": 239,
        "14979": 128,
        "14980": 34,
        "14981": 76,
        "14982": 83,
        "14983": 113,
        "14984": 122,
        "14985": 53,
        "14986": 29,
        "14987": 57,
        "14988": 196,
        "14989": 36,
        "14990": 71,
        "14991": 242,
        "14992": 241,
        "14993": 242,
        "14994": 24,
        "14995": 210,
        "14996": 64,
        "14997": 51,
        "14998": 16,
        "14999": 194,
        "15000": 73,
        "15001": 4,
        "15002": 99,
        "15003": 197,
        "15004": 142,
        "15005": 137,
        "15006": 246,
        "15007": 13,
        "15008": 88,
        "15009": 139,
        "15010": 115,
        "15011": 230,
        "15012": 25,
        "15013": 217,
        "15014": 8,
        "15015": 154,
        "15016": 233,
        "15017": 204,
        "15018": 14,
        "15019": 4,
        "15020": 29,
        "15021": 29,
        "15022": 20,
        "15023": 184,
        "15024": 170,
        "15025": 102,
        "15026": 25,
        "15027": 189,
        "15028": 63,
        "15029": 229,
        "15030": 190,
        "15031": 41,
        "15032": 152,
        "15033": 149,
        "15034": 19,
        "15035": 0,
        "15036": 144,
        "15037": 9,
        "15038": 32,
        "15039": 41,
        "15040": 71,
        "15041": 103,
        "15042": 92,
        "15043": 94,
        "15044": 119,
        "15045": 101,
        "15046": 110,
        "15047": 57,
        "15048": 231,
        "15049": 140,
        "15050": 25,
        "15051": 39,
        "15052": 236,
        "15053": 162,
        "15054": 122,
        "15055": 164,
        "15056": 124,
        "15057": 94,
        "15058": 223,
        "15059": 232,
        "15060": 211,
        "15061": 77,
        "15062": 236,
        "15063": 231,
        "15064": 248,
        "15065": 32,
        "15066": 187,
        "15067": 43,
        "15068": 86,
        "15069": 241,
        "15070": 222,
        "15071": 185,
        "15072": 49,
        "15073": 178,
        "15074": 12,
        "15075": 249,
        "15076": 119,
        "15077": 24,
        "15078": 46,
        "15079": 106,
        "15080": 224,
        "15081": 160,
        "15082": 62,
        "15083": 198,
        "15084": 59,
        "15085": 125,
        "15086": 40,
        "15087": 136,
        "15088": 109,
        "15089": 87,
        "15090": 149,
        "15091": 225,
        "15092": 43,
        "15093": 32,
        "15094": 150,
        "15095": 149,
        "15096": 46,
        "15097": 95,
        "15098": 45,
        "15099": 61,
        "15100": 188,
        "15101": 19,
        "15102": 239,
        "15103": 66,
        "15104": 151,
        "15105": 201,
        "15106": 32,
        "15107": 166,
        "15108": 11,
        "15109": 23,
        "15110": 128,
        "15111": 63,
        "15112": 65,
        "15113": 173,
        "15114": 146,
        "15115": 109,
        "15116": 66,
        "15117": 109,
        "15118": 252,
        "15119": 19,
        "15120": 7,
        "15121": 40,
        "15122": 155,
        "15123": 124,
        "15124": 225,
        "15125": 184,
        "15126": 187,
        "15127": 174,
        "15128": 9,
        "15129": 4,
        "15130": 68,
        "15131": 195,
        "15132": 209,
        "15133": 63,
        "15134": 2,
        "15135": 186,
        "15136": 99,
        "15137": 55,
        "15138": 190,
        "15139": 42,
        "15140": 64,
        "15141": 40,
        "15142": 166,
        "15143": 189,
        "15144": 190,
        "15145": 200,
        "15146": 122,
        "15147": 221,
        "15148": 179,
        "15149": 162,
        "15150": 202,
        "15151": 107,
        "15152": 18,
        "15153": 159,
        "15154": 191,
        "15155": 225,
        "15156": 129,
        "15157": 121,
        "15158": 126,
        "15159": 25,
        "15160": 109,
        "15161": 31,
        "15162": 109,
        "15163": 194,
        "15164": 214,
        "15165": 123,
        "15166": 196,
        "15167": 83,
        "15168": 232,
        "15169": 136,
        "15170": 175,
        "15171": 96,
        "15172": 180,
        "15173": 142,
        "15174": 241,
        "15175": 251,
        "15176": 13,
        "15177": 73,
        "15178": 67,
        "15179": 99,
        "15180": 85,
        "15181": 40,
        "15182": 144,
        "15183": 22,
        "15184": 213,
        "15185": 148,
        "15186": 42,
        "15187": 68,
        "15188": 80,
        "15189": 96,
        "15190": 145,
        "15191": 254,
        "15192": 160,
        "15193": 232,
        "15194": 228,
        "15195": 248,
        "15196": 27,
        "15197": 160,
        "15198": 178,
        "15199": 167,
        "15200": 52,
        "15201": 134,
        "15202": 56,
        "15203": 38,
        "15204": 74,
        "15205": 149,
        "15206": 136,
        "15207": 118,
        "15208": 219,
        "15209": 29,
        "15210": 40,
        "15211": 130,
        "15212": 173,
        "15213": 207,
        "15214": 130,
        "15215": 82,
        "15216": 132,
        "15217": 41,
        "15218": 115,
        "15219": 209,
        "15220": 226,
        "15221": 247,
        "15222": 56,
        "15223": 59,
        "15224": 63,
        "15225": 248,
        "15226": 84,
        "15227": 219,
        "15228": 169,
        "15229": 242,
        "15230": 61,
        "15231": 42,
        "15232": 164,
        "15233": 184,
        "15234": 251,
        "15235": 203,
        "15236": 121,
        "15237": 51,
        "15238": 60,
        "15239": 179,
        "15240": 168,
        "15241": 23,
        "15242": 133,
        "15243": 150,
        "15244": 92,
        "15245": 125,
        "15246": 39,
        "15247": 87,
        "15248": 90,
        "15249": 225,
        "15250": 241,
        "15251": 43,
        "15252": 82,
        "15253": 139,
        "15254": 161,
        "15255": 204,
        "15256": 182,
        "15257": 222,
        "15258": 227,
        "15259": 63,
        "15260": 137,
        "15261": 222,
        "15262": 129,
        "15263": 47,
        "15264": 181,
        "15265": 247,
        "15266": 232,
        "15267": 205,
        "15268": 98,
        "15269": 184,
        "15270": 150,
        "15271": 33,
        "15272": 173,
        "15273": 37,
        "15274": 113,
        "15275": 79,
        "15276": 39,
        "15277": 186,
        "15278": 106,
        "15279": 234,
        "15280": 49,
        "15281": 149,
        "15282": 104,
        "15283": 51,
        "15284": 154,
        "15285": 35,
        "15286": 21,
        "15287": 41,
        "15288": 54,
        "15289": 69,
        "15290": 25,
        "15291": 63,
        "15292": 136,
        "15293": 143,
        "15294": 133,
        "15295": 204,
        "15296": 214,
        "15297": 128,
        "15298": 196,
        "15299": 72,
        "15300": 53,
        "15301": 126,
        "15302": 87,
        "15303": 182,
        "15304": 197,
        "15305": 250,
        "15306": 161,
        "15307": 251,
        "15308": 168,
        "15309": 68,
        "15310": 4,
        "15311": 217,
        "15312": 130,
        "15313": 57,
        "15314": 103,
        "15315": 121,
        "15316": 54,
        "15317": 189,
        "15318": 59,
        "15319": 147,
        "15320": 103,
        "15321": 103,
        "15322": 208,
        "15323": 234,
        "15324": 238,
        "15325": 201,
        "15326": 76,
        "15327": 37,
        "15328": 239,
        "15329": 17,
        "15330": 103,
        "15331": 129,
        "15332": 43,
        "15333": 244,
        "15334": 65,
        "15335": 223,
        "15336": 65,
        "15337": 18,
        "15338": 244,
        "15339": 252,
        "15340": 239,
        "15341": 200,
        "15342": 155,
        "15343": 18,
        "15344": 220,
        "15345": 136,
        "15346": 160,
        "15347": 185,
        "15348": 241,
        "15349": 99,
        "15350": 145,
        "15351": 0,
        "15352": 160,
        "15353": 223,
        "15354": 103,
        "15355": 33,
        "15356": 119,
        "15357": 191,
        "15358": 212,
        "15359": 245,
        "15360": 99,
        "15361": 127,
        "15362": 142,
        "15363": 180,
        "15364": 164,
        "15365": 151,
        "15366": 61,
        "15367": 56,
        "15368": 251,
        "15369": 11,
        "15370": 158,
        "15371": 174,
        "15372": 57,
        "15373": 183,
        "15374": 73,
        "15375": 111,
        "15376": 30,
        "15377": 219,
        "15378": 104,
        "15379": 139,
        "15380": 29,
        "15381": 48,
        "15382": 3,
        "15383": 56,
        "15384": 171,
        "15385": 144,
        "15386": 192,
        "15387": 12,
        "15388": 192,
        "15389": 194,
        "15390": 171,
        "15391": 200,
        "15392": 2,
        "15393": 112,
        "15394": 45,
        "15395": 150,
        "15396": 50,
        "15397": 251,
        "15398": 106,
        "15399": 50,
        "15400": 33,
        "15401": 107,
        "15402": 248,
        "15403": 99,
        "15404": 58,
        "15405": 149,
        "15406": 13,
        "15407": 247,
        "15408": 59,
        "15409": 178,
        "15410": 111,
        "15411": 25,
        "15412": 153,
        "15413": 137,
        "15414": 165,
        "15415": 11,
        "15416": 46,
        "15417": 121,
        "15418": 201,
        "15419": 37,
        "15420": 122,
        "15421": 237,
        "15422": 238,
        "15423": 28,
        "15424": 66,
        "15425": 98,
        "15426": 13,
        "15427": 206,
        "15428": 25,
        "15429": 218,
        "15430": 72,
        "15431": 231,
        "15432": 10,
        "15433": 172,
        "15434": 34,
        "15435": 221,
        "15436": 37,
        "15437": 53,
        "15438": 231,
        "15439": 94,
        "15440": 97,
        "15441": 152,
        "15442": 167,
        "15443": 34,
        "15444": 120,
        "15445": 187,
        "15446": 183,
        "15447": 38,
        "15448": 151,
        "15449": 249,
        "15450": 137,
        "15451": 5,
        "15452": 174,
        "15453": 147,
        "15454": 64,
        "15455": 9,
        "15456": 131,
        "15457": 99,
        "15458": 196,
        "15459": 90,
        "15460": 88,
        "15461": 229,
        "15462": 193,
        "15463": 153,
        "15464": 226,
        "15465": 161,
        "15466": 123,
        "15467": 35,
        "15468": 87,
        "15469": 165,
        "15470": 237,
        "15471": 6,
        "15472": 168,
        "15473": 106,
        "15474": 66,
        "15475": 72,
        "15476": 224,
        "15477": 198,
        "15478": 141,
        "15479": 64,
        "15480": 233,
        "15481": 65,
        "15482": 116,
        "15483": 165,
        "15484": 30,
        "15485": 218,
        "15486": 203,
        "15487": 57,
        "15488": 176,
        "15489": 132,
        "15490": 81,
        "15491": 129,
        "15492": 48,
        "15493": 180,
        "15494": 101,
        "15495": 125,
        "15496": 122,
        "15497": 115,
        "15498": 189,
        "15499": 122,
        "15500": 110,
        "15501": 115,
        "15502": 172,
        "15503": 208,
        "15504": 54,
        "15505": 251,
        "15506": 88,
        "15507": 55,
        "15508": 202,
        "15509": 147,
        "15510": 78,
        "15511": 148,
        "15512": 16,
        "15513": 164,
        "15514": 47,
        "15515": 88,
        "15516": 27,
        "15517": 169,
        "15518": 130,
        "15519": 156,
        "15520": 59,
        "15521": 98,
        "15522": 21,
        "15523": 5,
        "15524": 1,
        "15525": 27,
        "15526": 85,
        "15527": 244,
        "15528": 36,
        "15529": 245,
        "15530": 8,
        "15531": 203,
        "15532": 200,
        "15533": 41,
        "15534": 94,
        "15535": 56,
        "15536": 206,
        "15537": 5,
        "15538": 188,
        "15539": 59,
        "15540": 99,
        "15541": 77,
        "15542": 64,
        "15543": 138,
        "15544": 85,
        "15545": 189,
        "15546": 49,
        "15547": 58,
        "15548": 9,
        "15549": 4,
        "15550": 4,
        "15551": 222,
        "15552": 37,
        "15553": 181,
        "15554": 180,
        "15555": 32,
        "15556": 125,
        "15557": 154,
        "15558": 77,
        "15559": 0,
        "15560": 119,
        "15561": 6,
        "15562": 231,
        "15563": 8,
        "15564": 79,
        "15565": 119,
        "15566": 173,
        "15567": 79,
        "15568": 223,
        "15569": 197,
        "15570": 3,
        "15571": 2,
        "15572": 166,
        "15573": 154,
        "15574": 245,
        "15575": 51,
        "15576": 95,
        "15577": 203,
        "15578": 125,
        "15579": 22,
        "15580": 43,
        "15581": 171,
        "15582": 140,
        "15583": 28,
        "15584": 206,
        "15585": 105,
        "15586": 21,
        "15587": 238,
        "15588": 142,
        "15589": 3,
        "15590": 51,
        "15591": 132,
        "15592": 32,
        "15593": 64,
        "15594": 139,
        "15595": 1,
        "15596": 213,
        "15597": 174,
        "15598": 121,
        "15599": 249,
        "15600": 251,
        "15601": 175,
        "15602": 30,
        "15603": 222,
        "15604": 158,
        "15605": 131,
        "15606": 23,
        "15607": 171,
        "15608": 99,
        "15609": 70,
        "15610": 20,
        "15611": 6,
        "15612": 249,
        "15613": 253,
        "15614": 90,
        "15615": 102,
        "15616": 214,
        "15617": 26,
        "15618": 166,
        "15619": 95,
        "15620": 137,
        "15621": 207,
        "15622": 228,
        "15623": 192,
        "15624": 80,
        "15625": 168,
        "15626": 217,
        "15627": 90,
        "15628": 69,
        "15629": 235,
        "15630": 72,
        "15631": 86,
        "15632": 211,
        "15633": 19,
        "15634": 16,
        "15635": 89,
        "15636": 224,
        "15637": 232,
        "15638": 25,
        "15639": 81,
        "15640": 157,
        "15641": 240,
        "15642": 253,
        "15643": 238,
        "15644": 65,
        "15645": 162,
        "15646": 123,
        "15647": 113,
        "15648": 203,
        "15649": 230,
        "15650": 24,
        "15651": 81,
        "15652": 227,
        "15653": 84,
        "15654": 23,
        "15655": 18,
        "15656": 107,
        "15657": 42,
        "15658": 217,
        "15659": 119,
        "15660": 133,
        "15661": 153,
        "15662": 249,
        "15663": 170,
        "15664": 233,
        "15665": 59,
        "15666": 35,
        "15667": 155,
        "15668": 12,
        "15669": 124,
        "15670": 99,
        "15671": 104,
        "15672": 30,
        "15673": 247,
        "15674": 148,
        "15675": 119,
        "15676": 224,
        "15677": 146,
        "15678": 3,
        "15679": 42,
        "15680": 253,
        "15681": 217,
        "15682": 216,
        "15683": 223,
        "15684": 86,
        "15685": 33,
        "15686": 81,
        "15687": 121,
        "15688": 218,
        "15689": 52,
        "15690": 38,
        "15691": 60,
        "15692": 122,
        "15693": 16,
        "15694": 251,
        "15695": 157,
        "15696": 164,
        "15697": 251,
        "15698": 214,
        "15699": 48,
        "15700": 161,
        "15701": 212,
        "15702": 11,
        "15703": 253,
        "15704": 243,
        "15705": 186,
        "15706": 188,
        "15707": 231,
        "15708": 112,
        "15709": 157,
        "15710": 223,
        "15711": 25,
        "15712": 165,
        "15713": 194,
        "15714": 129,
        "15715": 8,
        "15716": 136,
        "15717": 168,
        "15718": 192,
        "15719": 13,
        "15720": 104,
        "15721": 165,
        "15722": 69,
        "15723": 169,
        "15724": 118,
        "15725": 101,
        "15726": 57,
        "15727": 241,
        "15728": 117,
        "15729": 165,
        "15730": 74,
        "15731": 198,
        "15732": 123,
        "15733": 123,
        "15734": 194,
        "15735": 212,
        "15736": 173,
        "15737": 150,
        "15738": 4,
        "15739": 64,
        "15740": 50,
        "15741": 175,
        "15742": 135,
        "15743": 76,
        "15744": 207,
        "15745": 101,
        "15746": 168,
        "15747": 202,
        "15748": 242,
        "15749": 193,
        "15750": 91,
        "15751": 86,
        "15752": 79,
        "15753": 37,
        "15754": 0,
        "15755": 179,
        "15756": 204,
        "15757": 222,
        "15758": 170,
        "15759": 60,
        "15760": 80,
        "15761": 242,
        "15762": 174,
        "15763": 82,
        "15764": 74,
        "15765": 18,
        "15766": 58,
        "15767": 98,
        "15768": 38,
        "15769": 135,
        "15770": 156,
        "15771": 238,
        "15772": 70,
        "15773": 89,
        "15774": 255,
        "15775": 121,
        "15776": 151,
        "15777": 116,
        "15778": 75,
        "15779": 216,
        "15780": 252,
        "15781": 165,
        "15782": 33,
        "15783": 128,
        "15784": 201,
        "15785": 77,
        "15786": 64,
        "15787": 44,
        "15788": 67,
        "15789": 172,
        "15790": 15,
        "15791": 60,
        "15792": 208,
        "15793": 168,
        "15794": 218,
        "15795": 18,
        "15796": 203,
        "15797": 162,
        "15798": 105,
        "15799": 187,
        "15800": 99,
        "15801": 240,
        "15802": 22,
        "15803": 187,
        "15804": 55,
        "15805": 217,
        "15806": 25,
        "15807": 144,
        "15808": 109,
        "15809": 238,
        "15810": 69,
        "15811": 99,
        "15812": 12,
        "15813": 141,
        "15814": 190,
        "15815": 118,
        "15816": 236,
        "15817": 128,
        "15818": 204,
        "15819": 93,
        "15820": 114,
        "15821": 42,
        "15822": 189,
        "15823": 46,
        "15824": 43,
        "15825": 106,
        "15826": 169,
        "15827": 59,
        "15828": 83,
        "15829": 231,
        "15830": 98,
        "15831": 131,
        "15832": 6,
        "15833": 139,
        "15834": 102,
        "15835": 104,
        "15836": 133,
        "15837": 122,
        "15838": 7,
        "15839": 37,
        "15840": 55,
        "15841": 188,
        "15842": 88,
        "15843": 139,
        "15844": 152,
        "15845": 38,
        "15846": 18,
        "15847": 95,
        "15848": 53,
        "15849": 136,
        "15850": 172,
        "15851": 101,
        "15852": 237,
        "15853": 125,
        "15854": 81,
        "15855": 120,
        "15856": 216,
        "15857": 6,
        "15858": 29,
        "15859": 163,
        "15860": 162,
        "15861": 35,
        "15862": 174,
        "15863": 133,
        "15864": 183,
        "15865": 20,
        "15866": 242,
        "15867": 152,
        "15868": 113,
        "15869": 112,
        "15870": 9,
        "15871": 236,
        "15872": 146,
        "15873": 90,
        "15874": 52,
        "15875": 72,
        "15876": 191,
        "15877": 126,
        "15878": 15,
        "15879": 160,
        "15880": 11,
        "15881": 125,
        "15882": 122,
        "15883": 156,
        "15884": 133,
        "15885": 42,
        "15886": 92,
        "15887": 17,
        "15888": 123,
        "15889": 40,
        "15890": 72,
        "15891": 231,
        "15892": 35,
        "15893": 37,
        "15894": 227,
        "15895": 140,
        "15896": 9,
        "15897": 162,
        "15898": 89,
        "15899": 15,
        "15900": 254,
        "15901": 173,
        "15902": 199,
        "15903": 58,
        "15904": 21,
        "15905": 242,
        "15906": 216,
        "15907": 239,
        "15908": 186,
        "15909": 199,
        "15910": 5,
        "15911": 97,
        "15912": 200,
        "15913": 188,
        "15914": 246,
        "15915": 67,
        "15916": 85,
        "15917": 247,
        "15918": 144,
        "15919": 245,
        "15920": 38,
        "15921": 16,
        "15922": 58,
        "15923": 226,
        "15924": 214,
        "15925": 232,
        "15926": 148,
        "15927": 29,
        "15928": 169,
        "15929": 209,
        "15930": 208,
        "15931": 174,
        "15932": 202,
        "15933": 151,
        "15934": 230,
        "15935": 148,
        "15936": 201,
        "15937": 5,
        "15938": 1,
        "15939": 189,
        "15940": 33,
        "15941": 183,
        "15942": 21,
        "15943": 226,
        "15944": 207,
        "15945": 53,
        "15946": 236,
        "15947": 151,
        "15948": 209,
        "15949": 169,
        "15950": 185,
        "15951": 44,
        "15952": 204,
        "15953": 73,
        "15954": 119,
        "15955": 97,
        "15956": 250,
        "15957": 52,
        "15958": 141,
        "15959": 235,
        "15960": 73,
        "15961": 134,
        "15962": 164,
        "15963": 9,
        "15964": 15,
        "15965": 175,
        "15966": 40,
        "15967": 185,
        "15968": 34,
        "15969": 67,
        "15970": 21,
        "15971": 110,
        "15972": 18,
        "15973": 135,
        "15974": 252,
        "15975": 132,
        "15976": 208,
        "15977": 138,
        "15978": 44,
        "15979": 198,
        "15980": 92,
        "15981": 137,
        "15982": 146,
        "15983": 129,
        "15984": 95,
        "15985": 138,
        "15986": 52,
        "15987": 65,
        "15988": 127,
        "15989": 79,
        "15990": 217,
        "15991": 255,
        "15992": 15,
        "15993": 76,
        "15994": 83,
        "15995": 254,
        "15996": 218,
        "15997": 163,
        "15998": 43,
        "15999": 244,
        "16000": 105,
        "16001": 46,
        "16002": 90,
        "16003": 190,
        "16004": 121,
        "16005": 38,
        "16006": 38,
        "16007": 93,
        "16008": 121,
        "16009": 236,
        "16010": 200,
        "16011": 27,
        "16012": 218,
        "16013": 231,
        "16014": 55,
        "16015": 72,
        "16016": 141,
        "16017": 163,
        "16018": 116,
        "16019": 54,
        "16020": 203,
        "16021": 214,
        "16022": 165,
        "16023": 104,
        "16024": 64,
        "16025": 73,
        "16026": 34,
        "16027": 70,
        "16028": 233,
        "16029": 61,
        "16030": 61,
        "16031": 61,
        "16032": 166,
        "16033": 156,
        "16034": 57,
        "16035": 122,
        "16036": 47,
        "16037": 3,
        "16038": 135,
        "16039": 66,
        "16040": 105,
        "16041": 205,
        "16042": 90,
        "16043": 48,
        "16044": 169,
        "16045": 12,
        "16046": 101,
        "16047": 147,
        "16048": 164,
        "16049": 217,
        "16050": 156,
        "16051": 237,
        "16052": 124,
        "16053": 183,
        "16054": 245,
        "16055": 164,
        "16056": 185,
        "16057": 173,
        "16058": 219,
        "16059": 173,
        "16060": 105,
        "16061": 231,
        "16062": 77,
        "16063": 181,
        "16064": 59,
        "16065": 35,
        "16066": 150,
        "16067": 49,
        "16068": 232,
        "16069": 188,
        "16070": 107,
        "16071": 53,
        "16072": 180,
        "16073": 80,
        "16074": 211,
        "16075": 175,
        "16076": 136,
        "16077": 183,
        "16078": 130,
        "16079": 120,
        "16080": 11,
        "16081": 44,
        "16082": 76,
        "16083": 75,
        "16084": 23,
        "16085": 123,
        "16086": 191,
        "16087": 199,
        "16088": 47,
        "16089": 192,
        "16090": 109,
        "16091": 21,
        "16092": 64,
        "16093": 165,
        "16094": 80,
        "16095": 136,
        "16096": 39,
        "16097": 99,
        "16098": 215,
        "16099": 122,
        "16100": 255,
        "16101": 64,
        "16102": 13,
        "16103": 232,
        "16104": 201,
        "16105": 113,
        "16106": 215,
        "16107": 44,
        "16108": 192,
        "16109": 41,
        "16110": 144,
        "16111": 133,
        "16112": 174,
        "16113": 79,
        "16114": 25,
        "16115": 79,
        "16116": 87,
        "16117": 104,
        "16118": 193,
        "16119": 79,
        "16120": 84,
        "16121": 43,
        "16122": 2,
        "16123": 0,
        "16124": 47,
        "16125": 238,
        "16126": 196,
        "16127": 199,
        "16128": 27,
        "16129": 243,
        "16130": 199,
        "16131": 226,
        "16132": 84,
        "16133": 22,
        "16134": 27,
        "16135": 207,
        "16136": 249,
        "16137": 69,
        "16138": 244,
        "16139": 162,
        "16140": 190,
        "16141": 161,
        "16142": 67,
        "16143": 65,
        "16144": 235,
        "16145": 135,
        "16146": 221,
        "16147": 135,
        "16148": 158,
        "16149": 222,
        "16150": 14,
        "16151": 41,
        "16152": 73,
        "16153": 104,
        "16154": 101,
        "16155": 161,
        "16156": 234,
        "16157": 197,
        "16158": 138,
        "16159": 189,
        "16160": 160,
        "16161": 3,
        "16162": 40,
        "16163": 67,
        "16164": 143,
        "16165": 228,
        "16166": 192,
        "16167": 89,
        "16168": 143,
        "16169": 140,
        "16170": 179,
        "16171": 162,
        "16172": 63,
        "16173": 143,
        "16174": 23,
        "16175": 28,
        "16176": 239,
        "16177": 151,
        "16178": 128,
        "16179": 218,
        "16180": 241,
        "16181": 113,
        "16182": 192,
        "16183": 39,
        "16184": 10,
        "16185": 42,
        "16186": 4,
        "16187": 170,
        "16188": 14,
        "16189": 217,
        "16190": 113,
        "16191": 50,
        "16192": 29,
        "16193": 10,
        "16194": 0,
        "16195": 158,
        "16196": 176,
        "16197": 164,
        "16198": 104,
        "16199": 28,
        "16200": 199,
        "16201": 228,
        "16202": 117,
        "16203": 78,
        "16204": 25,
        "16205": 45,
        "16206": 30,
        "16207": 200,
        "16208": 77,
        "16209": 175,
        "16210": 107,
        "16211": 182,
        "16212": 55,
        "16213": 160,
        "16214": 242,
        "16215": 99,
        "16216": 122,
        "16217": 80,
        "16218": 128,
        "16219": 24,
        "16220": 94,
        "16221": 132,
        "16222": 71,
        "16223": 212,
        "16224": 78,
        "16225": 238,
        "16226": 6,
        "16227": 191,
        "16228": 50,
        "16229": 179,
        "16230": 229,
        "16231": 213,
        "16232": 216,
        "16233": 192,
        "16234": 135,
        "16235": 187,
        "16236": 71,
        "16237": 129,
        "16238": 161,
        "16239": 234,
        "16240": 73,
        "16241": 136,
        "16242": 102,
        "16243": 11,
        "16244": 22,
        "16245": 10,
        "16246": 135,
        "16247": 117,
        "16248": 216,
        "16249": 20,
        "16250": 242,
        "16251": 74,
        "16252": 172,
        "16253": 120,
        "16254": 119,
        "16255": 150,
        "16256": 246,
        "16257": 215,
        "16258": 99,
        "16259": 59,
        "16260": 68,
        "16261": 253,
        "16262": 0,
        "16263": 122,
        "16264": 87,
        "16265": 33,
        "16266": 126,
        "16267": 93,
        "16268": 143,
        "16269": 203,
        "16270": 83,
        "16271": 232,
        "16272": 198,
        "16273": 114,
        "16274": 125,
        "16275": 193,
        "16276": 87,
        "16277": 46,
        "16278": 131,
        "16279": 241,
        "16280": 22,
        "16281": 96,
        "16282": 238,
        "16283": 179,
        "16284": 194,
        "16285": 205,
        "16286": 139,
        "16287": 173,
        "16288": 92,
        "16289": 168,
        "16290": 236,
        "16291": 178,
        "16292": 234,
        "16293": 70,
        "16294": 63,
        "16295": 106,
        "16296": 245,
        "16297": 106,
        "16298": 225,
        "16299": 56,
        "16300": 111,
        "16301": 147,
        "16302": 77,
        "16303": 181,
        "16304": 131,
        "16305": 104,
        "16306": 24,
        "16307": 128,
        "16308": 125,
        "16309": 171,
        "16310": 67,
        "16311": 231,
        "16312": 8,
        "16313": 49,
        "16314": 64,
        "16315": 225,
        "16316": 217,
        "16317": 43,
        "16318": 215,
        "16319": 5,
        "16320": 203,
        "16321": 209,
        "16322": 101,
        "16323": 167,
        "16324": 122,
        "16325": 219,
        "16326": 54,
        "16327": 237,
        "16328": 164,
        "16329": 161,
        "16330": 173,
        "16331": 134,
        "16332": 179,
        "16333": 13,
        "16334": 226,
        "16335": 212,
        "16336": 157,
        "16337": 16,
        "16338": 83,
        "16339": 17,
        "16340": 255,
        "16341": 219,
        "16342": 72,
        "16343": 68,
        "16344": 71,
        "16345": 242,
        "16346": 144,
        "16347": 131,
        "16348": 128,
        "16349": 0,
        "16350": 41,
        "16351": 43,
        "16352": 136,
        "16353": 233,
        "16354": 6,
        "16355": 38,
        "16356": 143,
        "16357": 13,
        "16358": 221,
        "16359": 108,
        "16360": 99,
        "16361": 198,
        "16362": 33,
        "16363": 151,
        "16364": 82,
        "16365": 51,
        "16366": 215,
        "16367": 246,
        "16368": 139,
        "16369": 212,
        "16370": 188,
        "16371": 206,
        "16372": 134,
        "16373": 84,
        "16374": 131,
        "16375": 180,
        "16376": 80,
        "16377": 149,
        "16378": 82,
        "16379": 214,
        "16380": 11,
        "16381": 53,
        "16382": 215,
        "16383": 34,
        "16384": 148,
        "16385": 170,
        "16386": 96,
        "16387": 61,
        "16388": 88,
        "16389": 39,
        "16390": 143,
        "16391": 14,
        "16392": 184,
        "16393": 143,
        "16394": 34,
        "16395": 249,
        "16396": 110,
        "16397": 64,
        "16398": 207,
        "16399": 95,
        "16400": 93,
        "16401": 21,
        "16402": 182,
        "16403": 165,
        "16404": 71,
        "16405": 251,
        "16406": 198,
        "16407": 46,
        "16408": 107,
        "16409": 63,
        "16410": 224,
        "16411": 42,
        "16412": 68,
        "16413": 225,
        "16414": 82,
        "16415": 181,
        "16416": 91,
        "16417": 119,
        "16418": 23,
        "16419": 76,
        "16420": 216,
        "16421": 202,
        "16422": 159,
        "16423": 182,
        "16424": 23,
        "16425": 145,
        "16426": 119,
        "16427": 38,
        "16428": 211,
        "16429": 254,
        "16430": 30,
        "16431": 189,
        "16432": 55,
        "16433": 220,
        "16434": 200,
        "16435": 155,
        "16436": 36,
        "16437": 197,
        "16438": 52,
        "16439": 32,
        "16440": 217,
        "16441": 96,
        "16442": 208,
        "16443": 41,
        "16444": 216,
        "16445": 102,
        "16446": 185,
        "16447": 237,
        "16448": 26,
        "16449": 227,
        "16450": 245,
        "16451": 164,
        "16452": 83,
        "16453": 249,
        "16454": 188,
        "16455": 208,
        "16456": 93,
        "16457": 171,
        "16458": 100,
        "16459": 180,
        "16460": 218,
        "16461": 10,
        "16462": 108,
        "16463": 183,
        "16464": 153,
        "16465": 201,
        "16466": 17,
        "16467": 65,
        "16468": 142,
        "16469": 44,
        "16470": 97,
        "16471": 220,
        "16472": 110,
        "16473": 220,
        "16474": 39,
        "16475": 32,
        "16476": 203,
        "16477": 32,
        "16478": 166,
        "16479": 77,
        "16480": 247,
        "16481": 70,
        "16482": 229,
        "16483": 83,
        "16484": 4,
        "16485": 140,
        "16486": 54,
        "16487": 165,
        "16488": 127,
        "16489": 124,
        "16490": 37,
        "16491": 21,
        "16492": 9,
        "16493": 68,
        "16494": 107,
        "16495": 175,
        "16496": 38,
        "16497": 203,
        "16498": 201,
        "16499": 114,
        "16500": 227,
        "16501": 48,
        "16502": 43,
        "16503": 17,
        "16504": 40,
        "16505": 17,
        "16506": 203,
        "16507": 159,
        "16508": 139,
        "16509": 168,
        "16510": 57,
        "16511": 113,
        "16512": 113,
        "16513": 175,
        "16514": 225,
        "16515": 157,
        "16516": 55,
        "16517": 203,
        "16518": 226,
        "16519": 254,
        "16520": 1,
        "16521": 8,
        "16522": 0,
        "16523": 0,
        "16524": 0,
        "16525": 0,
        "16526": 0,
        "16527": 0,
        "16528": 16,
        "16529": 0,
        "16530": 0,
        "16531": 0,
        "16532": 0,
        "16533": 0,
        "16534": 0,
        "16535": 0,
        "16536": 0,
        "16537": 0,
        "16538": 0,
        "16539": 0,
        "16540": 0,
        "16541": 0,
        "16542": 0,
        "16543": 0,
        "16544": 0,
        "16545": 0,
        "16546": 0,
        "16547": 0,
        "16548": 0,
        "16549": 0,
        "16550": 0,
        "16551": 0,
        "16552": 64,
        "16553": 0,
        "16554": 0,
        "16555": 0,
        "16556": 0,
        "16557": 0,
        "16558": 0,
        "16559": 0,
        "16560": 3,
        "16561": 0,
        "16562": 0,
        "16563": 0,
        "16564": 0,
        "16565": 0,
        "16566": 0,
        "16567": 0,
        "16568": 4,
        "16569": 0,
        "16570": 0,
        "16571": 0,
        "16572": 0,
        "16573": 0,
        "16574": 0,
        "16575": 0,
        "16576": 4,
        "16577": 0,
        "16578": 0,
        "16579": 0,
        "16580": 0,
        "16581": 0,
        "16582": 0,
        "16583": 0,
        "16584": 0,
        "16585": 0,
        "16586": 0,
        "16587": 0,
        "16588": 1,
        "16589": 0,
        "16590": 0,
        "16591": 0,
        "16592": 0,
        "16593": 0,
        "16594": 0,
        "16595": 0,
        "16596": 16,
        "16597": 0,
        "16598": 0,
        "16599": 0,
        "16600": 0,
        "16601": 0,
        "16602": 0,
        "16603": 0
      }
    }
  ],
  "numDeployments": 1,
  "solcInputHash": "c0e889dcb69b76266f445d0fe3402b92",
  "bytecode": "0x6101606040526200001760006200026660201b60201c565b6002553480156200002757600080fd5b50604051620046173803806200461783398181016040528101906200004d919062000b83565b6040518060400160405280600881526020017f46616b652046475a0000000000000000000000000000000000000000000000008152506040518060400160405280600481526020017f6646475a00000000000000000000000000000000000000000000000000000000815250338383836040518060400160405280601181526020017f4668656e6978205065726d697373696f6e0000000000000000000000000000008152506040518060400160405280600381526020017f312e3000000000000000000000000000000000000000000000000000000000008152506200013f6000836200028260201b90919060201c565b61012081815250506200015d6001826200028260201b90919060201c565b6101408181525050818051906020012060e08181525050808051906020012061010081815250504660a081815250506200019c620002da60201b60201c565b608081815250503073ffffffffffffffffffffffffffffffffffffffff1660c08173ffffffffffffffffffffffffffffffffffffffff168152505050508160059081620001ea919062000e1f565b508060069081620001fc919062000e1f565b505050600062000212826200033760201b60201c565b9050620002486200023c8262000230617fff6200026660201b60201c565b6200035560201b60201c565b620003f860201b60201c565b6200025a8382620004cb60201b60201c565b50505050505062001260565b60006200027b8260026200057160201b60201c565b9050919050565b6000602083511015620002a857620002a0836200062860201b60201c565b9050620002d4565b82620002ba836200069560201b60201c565b6000019081620002cb919062000e1f565b5060ff60001b90505b92915050565b60007f8b73c3c69bb8fe3d512ecc4cf759cc79239f7b179b0ffacaa9a75d522b39400f60e0516101005146306040516020016200031c95949392919062000f77565b60405160208183030381529060405280519060200120905090565b60006200034e82600001516200069f60201b60201c565b9050919050565b60006200036883620006bb60201b60201c565b62000382576200037f60006200026660201b60201c565b92505b6200039382620006bb60201b60201c565b620003ad57620003aa60006200026660201b60201c565b91505b600083905060008390506000620003ea60028484608073ffffffffffffffffffffffffffffffffffffffff1663eb274b77620006c860201b60201c565b905080935050505092915050565b62000409816200077960201b60201c565b62000423576200042060006200078660201b60201c565b90505b600081905060006200043b82620007a260201b60201c565b9050608073ffffffffffffffffffffffffffffffffffffffff16637d23f1db600d836040518363ffffffff1660e01b81526004016200047c9291906200104f565b600060405180830381865afa1580156200049a573d6000803e3d6000fd5b505050506040513d6000823e3d601f19601f82011682018060405250810190620004c5919062001083565b50505050565b62000516600360008473ffffffffffffffffffffffffffffffffffffffff1673ffffffffffffffffffffffffffffffffffffffff168152602001908152602001600020548262000803565b600360008473ffffffffffffffffffffffffffffffffffffffff1673ffffffffffffffffffffffffffffffffffffffff16815260200190815260200160002081905550620005676002548262000803565b6002819055505050565b60006060608073ffffffffffffffffffffffffffffffffffffffff166319e1c5c4620005a386620007a260201b60201c565b856040518363ffffffff1660e01b8152600401620005c3929190620010d4565b600060405180830381865afa158015620005e1573d6000803e3d6000fd5b505050506040513d6000823e3d601f19601f820116820180604052508101906200060c919062001083565b90506200061f816200081f60201b60201c565b91505092915050565b600080829050601f815111156200067857826040517f305a27a90000000000000000000000000000000000000000000000000000000081526004016200066f91906200115a565b60405180910390fd5b8051816200068690620011a5565b60001c1760001b915050919050565b6000819050919050565b6000620006b48260026200082d60201b60201c565b9050919050565b6000808214159050919050565b60006060838388620006e089620007a260201b60201c565b620006f189620007a260201b60201c565b6040518463ffffffff1660e01b8152600401620007119392919062001215565b600060405180830381865afa1580156200072f573d6000803e3d6000fd5b505050506040513d6000823e3d601f19601f820116820180604052508101906200075a919062001083565b90506200076d81620008d460201b60201c565b91505095945050505050565b6000808214159050919050565b60006200079b82600d6200057160201b60201c565b9050919050565b6060602067ffffffffffffffff811115620007c257620007c1620009ae565b5b6040519080825280601f01601f191660200182016040528015620007f55781602001600182028036833780820191505090505b509050816020820152919050565b6000620008178383620008e260201b60201c565b905092915050565b600060208201519050919050565b60006060608073ffffffffffffffffffffffffffffffffffffffff16635fa55ca784866040518363ffffffff1660e01b81526004016200086f9291906200104f565b600060405180830381865afa1580156200088d573d6000803e3d6000fd5b505050506040513d6000823e3d601f19601f82011682018060405250810190620008b8919062001083565b9050620008cb816200081f60201b60201c565b91505092915050565b600060208201519050919050565b6000620008f583620006bb60201b60201c565b6200090f576200090c60006200026660201b60201c565b92505b6200092082620006bb60201b60201c565b6200093a576200093760006200026660201b60201c565b91505b6000839050600083905060006200097660028484608073ffffffffffffffffffffffffffffffffffffffff16622df619620006c860201b60201c565b905080935050505092915050565b6000604051905090565b600080fd5b600080fd5b600080fd5b6000601f19601f8301169050919050565b7f4e487b7100000000000000000000000000000000000000000000000000000000600052604160045260246000fd5b620009e8826200099d565b810181811067ffffffffffffffff8211171562000a0a5762000a09620009ae565b5b80604052505050565b600062000a1f62000984565b905062000a2d8282620009dd565b919050565b600080fd5b600080fd5b600080fd5b600067ffffffffffffffff82111562000a5f5762000a5e620009ae565b5b62000a6a826200099d565b9050602081019050919050565b60005b8381101562000a9757808201518184015260208101905062000a7a565b60008484015250505050565b600062000aba62000ab48462000a41565b62000a13565b90508281526020810184848401111562000ad95762000ad862000a3c565b5b62000ae684828562000a77565b509392505050565b600082601f83011262000b065762000b0562000a37565b5b815162000b1884826020860162000aa3565b91505092915050565b60006020828403121562000b3a5762000b3962000998565b5b62000b46602062000a13565b9050600082015167ffffffffffffffff81111562000b695762000b6862000a32565b5b62000b778482850162000aee565b60008301525092915050565b60006020828403121562000b9c5762000b9b6200098e565b5b600082015167ffffffffffffffff81111562000bbd5762000bbc62000993565b5b62000bcb8482850162000b21565b91505092915050565b600081519050919050565b7f4e487b7100000000000000000000000000000000000000000000000000000000600052602260045260246000fd5b6000600282049050600182168062000c2757607f821691505b60208210810362000c3d5762000c3c62000bdf565b5b50919050565b60008190508160005260206000209050919050565b60006020601f8301049050919050565b600082821b905092915050565b60006008830262000ca77fffffffffffffffffffffffffffffffffffffffffffffffffffffffffffffffff8262000c68565b62000cb3868362000c68565b95508019841693508086168417925050509392505050565b6000819050919050565b6000819050919050565b600062000d0062000cfa62000cf48462000ccb565b62000cd5565b62000ccb565b9050919050565b6000819050919050565b62000d1c8362000cdf565b62000d3462000d2b8262000d07565b84845462000c75565b825550505050565b600090565b62000d4b62000d3c565b62000d5881848462000d11565b505050565b5b8181101562000d805762000d7460008262000d41565b60018101905062000d5e565b5050565b601f82111562000dcf5762000d998162000c43565b62000da48462000c58565b8101602085101562000db4578190505b62000dcc62000dc38562000c58565b83018262000d5d565b50505b505050565b600082821c905092915050565b600062000df46000198460080262000dd4565b1980831691505092915050565b600062000e0f838362000de1565b9150826002028217905092915050565b62000e2a8262000bd4565b67ffffffffffffffff81111562000e465762000e45620009ae565b5b62000e52825462000c0e565b62000e5f82828562000d84565b600060209050601f83116001811462000e97576000841562000e82578287015190505b62000e8e858262000e01565b86555062000efe565b601f19841662000ea78662000c43565b60005b8281101562000ed15784890151825560018201915060208501945060208101905062000eaa565b8683101562000ef1578489015162000eed601f89168262000de1565b8355505b6001600288020188555050505b505050505050565b6000819050919050565b62000f1b8162000f06565b82525050565b62000f2c8162000ccb565b82525050565b600073ffffffffffffffffffffffffffffffffffffffff82169050919050565b600062000f5f8262000f32565b9050919050565b62000f718162000f52565b82525050565b600060a08201905062000f8e600083018862000f10565b62000f9d602083018762000f10565b62000fac604083018662000f10565b62000fbb606083018562000f21565b62000fca608083018462000f66565b9695505050505050565b600060ff82169050919050565b62000fec8162000fd4565b82525050565b600081519050919050565b600082825260208201905092915050565b60006200101b8262000ff2565b62001027818562000ffd565b93506200103981856020860162000a77565b62001044816200099d565b840191505092915050565b600060408201905062001066600083018562000fe1565b81810360208301526200107a81846200100e565b90509392505050565b6000602082840312156200109c576200109b6200098e565b5b600082015167ffffffffffffffff811115620010bd57620010bc62000993565b5b620010cb8482850162000aee565b91505092915050565b60006040820190508181036000830152620010f081856200100e565b905062001101602083018462000fe1565b9392505050565b600082825260208201905092915050565b6000620011268262000bd4565b62001132818562001108565b93506200114481856020860162000a77565b6200114f816200099d565b840191505092915050565b6000602082019050818103600083015262001176818462001119565b905092915050565b6000819050602082019050919050565b60006200119c825162000f06565b80915050919050565b6000620011b28262000ff2565b82620011be846200117e565b9050620011cb816200118e565b925060208210156200120e57620012097fffffffffffffffffffffffffffffffffffffffffffffffffffffffffffffffff8360200360080262000c68565b831692505b5050919050565b60006060820190506200122c600083018662000fe1565b81810360208301526200124081856200100e565b905081810360408301526200125681846200100e565b9050949350505050565b60805160a05160c05160e05161010051610120516101405161335c620012bb60003960006118f5015260006118ba0152600061217f0152600061215e015260006119ea01526000611a4001526000611a69015261335c6000f3fe608060405234801561001057600080fd5b50600436106101425760003560e01c80637ecebe00116100b8578063a9059cbb1161007c578063a9059cbb146103b9578063af575a00146103e9578063c4224c1914610419578063d505accf14610449578063d918156e14610465578063dd62ed3e1461049557610142565b80637ecebe00146102fb57806384b0196e1461032b5780638624a3491461034f57806395d89b411461037f5780639f284be71461039d57610142565b80633644e5151161010a5780633644e5151461020157806339c217f71461021f5780635356c4291461024f578063602772041461027f5780636e0505e1146102af57806370a08231146102cb57610142565b806306fdde0314610147578063095ea7b31461016557806318160ddd1461019557806323b872dd146101b3578063313ce567146101e3575b600080fd5b61014f6104c5565b60405161015c9190612433565b60405180910390f35b61017f600480360381019061017a91906124fd565b610557565b60405161018c9190612558565b60405180910390f35b61019d6105ab565b6040516101aa9190612582565b60405180910390f35b6101cd60048036038101906101c8919061259d565b6105bd565b6040516101da9190612558565b60405180910390f35b6101eb610692565b6040516101f8919061260c565b60405180910390f35b610209610697565b6040516102169190612640565b60405180910390f35b6102396004803603810190610234919061267f565b610729565b6040516102469190612716565b60405180910390f35b61026960048036038101906102649190612750565b61074e565b6040516102769190612433565b60405180910390f35b61029960048036038101906102949190612983565b6108bf565b6040516102a69190612433565b60405180910390f35b6102c960048036038101906102c49190612a1b565b6109ec565b005b6102e560048036038101906102e09190612a48565b610b01565b6040516102f29190612582565b60405180910390f35b61031560048036038101906103109190612a48565b610b1c565b6040516103229190612582565b60405180910390f35b610333610b37565b6040516103469796959493929190612b7d565b60405180910390f35b61036960048036038101906103649190612c01565b610be1565b6040516103769190612716565b60405180910390f35b610387610c08565b6040516103949190612433565b60405180910390f35b6103b760048036038101906103b29190612a1b565b610c9a565b005b6103d360048036038101906103ce91906124fd565b610da7565b6040516103e09190612558565b60405180910390f35b61040360048036038101906103fe9190612c9c565b610e39565b6040516104109190612716565b60405180910390f35b610433600480360381019061042e9190612cef565b61118f565b6040516104409190612716565b60405180910390f35b610463600480360381019061045e9190612d5b565b611359565b005b61047f600480360381019061047a919061267f565b6114fd565b60405161048c9190612558565b60405180910390f35b6104af60048036038101906104aa9190612dfd565b6115f5565b6040516104bc9190612582565b60405180910390f35b6060600580546104d490612e6c565b80601f016020809104026020016040519081016040528092919081815260200182805461050090612e6c565b801561054d5780601f106105225761010080835404028352916020019161054d565b820191906000526020600020905b81548152906001019060200180831161053057829003601f168201915b5050505050905090565b600082602052637f5e9f20600c5233600052816034600c205581600052602c5160601c337f8c5be1e5ebec7d5bd14f71427d1e84f3dd0314c0f7b2291e5b200ac8c7c3b92560206000a36001905092915050565b60006805345cdf77eb68f44c54905090565b60006105ca848484611615565b8360601b33602052637f5e9f208117600c526034600c20805460018101156106085780851115610602576313be252b6000526004601cfd5b84810382555b6387a211a28317600c526020600c2080548087111561062f5763f4d678b86000526004601cfd5b8681038255876000526020600c2087815401815587602052600c5160601c8660601c7fddf252ad1be2c89b69c2b068fc378daa952ba7f163c4a11628f55a4df523b3ef602080a350505050505061068784848461161a565b600190509392505050565b600090565b6000806106a261161f565b90506000801b81036106c0576106b66104c5565b8051906020012090505b6040517f8b73c3c69bb8fe3d512ecc4cf759cc79239f7b179b0ffacaa9a75d522b39400f81528160208201527fc89efdaa54c0f20c7adf612882df0950f5a951637e0307cdcb4c672f298b8bc6604082015246606082015230608082015260a081209250505090565b6000610746836107418461073c90612ef5565b611624565b61118f565b905092915050565b60608161075a90612f08565b60006107b17f6bdaeb2d29561f159c7ef98b16b27015fb2aeb87209c7ee656226d912f59927d8360000151604051602001610796929190612f1b565b6040516020818303038152906040528051906020012061163a565b905060006107c3828460200151611654565b90503373ffffffffffffffffffffffffffffffffffffffff168173ffffffffffffffffffffffffffffffffffffffff161461082a576040517f3093a27700000000000000000000000000000000000000000000000000000000815260040160405180910390fd5b6108b4600460003373ffffffffffffffffffffffffffffffffffffffff1673ffffffffffffffffffffffffffffffffffffffff16815260200190815260200160002060008873ffffffffffffffffffffffffffffffffffffffff1673ffffffffffffffffffffffffffffffffffffffff168152602001908152602001600020548660000135611680565b935050505092915050565b60608183600061091a7f6bdaeb2d29561f159c7ef98b16b27015fb2aeb87209c7ee656226d912f59927d84600001516040516020016108ff929190612f1b565b6040516020818303038152906040528051906020012061163a565b9050600061092c828560200151611654565b90508273ffffffffffffffffffffffffffffffffffffffff168173ffffffffffffffffffffffffffffffffffffffff1614610993576040517f51c65eae00000000000000000000000000000000000000000000000000000000815260040160405180910390fd5b6109e0600360008973ffffffffffffffffffffffffffffffffffffffff1673ffffffffffffffffffffffffffffffffffffffff168152602001908152602001600020548760000151611680565b94505050505092915050565b6000610a45610a008363ffffffff166116b6565b600360003373ffffffffffffffffffffffffffffffffffffffff1673ffffffffffffffffffffffffffffffffffffffff168152602001908152602001600020546116ca565b9050610a90600360003373ffffffffffffffffffffffffffffffffffffffff1673ffffffffffffffffffffffffffffffffffffffff1681526020019081526020016000205482611743565b600360003373ffffffffffffffffffffffffffffffffffffffff1673ffffffffffffffffffffffffffffffffffffffff16815260200190815260200160002081905550610adf60025482611743565b600281905550610afd33610af283611757565b63ffffffff1661181a565b5050565b60006387a211a2600c52816000526020600c20549050919050565b60006338377508600c52816000526020600c20549050919050565b600060608060008060006060610b4b6118b1565b610b536118ec565b46306000801b600067ffffffffffffffff811115610b7457610b736127b1565b5b604051908082528060200260200182016040528015610ba25781602001602082028036833780820191505090505b507f0f00000000000000000000000000000000000000000000000000000000000000959493929190965096509650965096509650965090919293949596565b6000610bff8484610bfa85610bf590612ef5565b611624565b610e39565b90509392505050565b606060068054610c1790612e6c565b80601f0160208091040260200160405190810160405280929190818152602001828054610c4390612e6c565b8015610c905780601f10610c6557610100808354040283529160200191610c90565b820191906000526020600020905b815481529060010190602001808311610c7357829003601f168201915b5050505050905090565b8063ffffffff16610caa33610b01565b1015610ce2576040517ffda7bbda00000000000000000000000000000000000000000000000000000000815260040160405180910390fd5b610cf2338263ffffffff16611927565b6000610d038263ffffffff166116b6565b9050610d4e600360003373ffffffffffffffffffffffffffffffffffffffff1673ffffffffffffffffffffffffffffffffffffffff16815260200190815260200160002054826119be565b600360003373ffffffffffffffffffffffffffffffffffffffff1673ffffffffffffffffffffffffffffffffffffffff16815260200190815260200160002081905550610d9d600254826119be565b6002819055505050565b6000610db4338484611615565b6387a211a2600c52336000526020600c20805480841115610ddd5763f4d678b86000526004601cfd5b8381038255846000526020600c2084815401815584602052600c5160601c337fddf252ad1be2c89b69c2b068fc378daa952ba7f163c4a11628f55a4df523b3ef602080a3505050610e2f33848461161a565b6001905092915050565b600080610f0a83610f05600360008973ffffffffffffffffffffffffffffffffffffffff1673ffffffffffffffffffffffffffffffffffffffff16815260200190815260200160002054600460008a73ffffffffffffffffffffffffffffffffffffffff1673ffffffffffffffffffffffffffffffffffffffff16815260200190815260200160002060003373ffffffffffffffffffffffffffffffffffffffff1673ffffffffffffffffffffffffffffffffffffffff168152602001908152602001600020546116ca565b6116ca565b9050610f92600460008773ffffffffffffffffffffffffffffffffffffffff1673ffffffffffffffffffffffffffffffffffffffff16815260200190815260200160002060003373ffffffffffffffffffffffffffffffffffffffff1673ffffffffffffffffffffffffffffffffffffffff1681526020019081526020016000205482611743565b600460008773ffffffffffffffffffffffffffffffffffffffff1673ffffffffffffffffffffffffffffffffffffffff16815260200190815260200160002060003373ffffffffffffffffffffffffffffffffffffffff1673ffffffffffffffffffffffffffffffffffffffff1681526020019081526020016000208190555061105b600360008773ffffffffffffffffffffffffffffffffffffffff1673ffffffffffffffffffffffffffffffffffffffff1681526020019081526020016000205482611743565b600360008773ffffffffffffffffffffffffffffffffffffffff1673ffffffffffffffffffffffffffffffffffffffff168152602001908152602001600020819055506110e7600360008673ffffffffffffffffffffffffffffffffffffffff1673ffffffffffffffffffffffffffffffffffffffff16815260200190815260200160002054826119be565b600360008673ffffffffffffffffffffffffffffffffffffffff1673ffffffffffffffffffffffffffffffffffffffff168152602001908152602001600020819055508373ffffffffffffffffffffffffffffffffffffffff168573ffffffffffffffffffffffffffffffffffffffff167f7612539b010127d1a2f810eeff1131de23a28ecfa8228f92a9606a879300fbb560405160405180910390a3809150509392505050565b6000806111db83600360003373ffffffffffffffffffffffffffffffffffffffff1673ffffffffffffffffffffffffffffffffffffffff168152602001908152602001600020546116ca565b9050611226600360003373ffffffffffffffffffffffffffffffffffffffff1673ffffffffffffffffffffffffffffffffffffffff1681526020019081526020016000205482611743565b600360003373ffffffffffffffffffffffffffffffffffffffff1673ffffffffffffffffffffffffffffffffffffffff168152602001908152602001600020819055506112b2600360008673ffffffffffffffffffffffffffffffffffffffff1673ffffffffffffffffffffffffffffffffffffffff16815260200190815260200160002054826119be565b600360008673ffffffffffffffffffffffffffffffffffffffff1673ffffffffffffffffffffffffffffffffffffffff168152602001908152602001600020819055508373ffffffffffffffffffffffffffffffffffffffff163373ffffffffffffffffffffffffffffffffffffffff167f7612539b010127d1a2f810eeff1131de23a28ecfa8228f92a9606a879300fbb560405160405180910390a38091505092915050565b600061136361161f565b90506000801b8103611381576113776104c5565b8051906020012090505b8442111561139757631a15a3cc6000526004601cfd5b6040518860601b60601c98508760601b60601c975065383775081901600e52886000526020600c2080547f8b73c3c69bb8fe3d512ecc4cf759cc79239f7b179b0ffacaa9a75d522b39400f83528360208401527fc89efdaa54c0f20c7adf612882df0950f5a951637e0307cdcb4c672f298b8bc6604084015246606084015230608084015260a08320602e527f6e71edae12b1b97f4d1f60370fef10105fa2faae0126114a169c64845d6126c983528a60208401528960408401528860608401528060808401528760a084015260c08320604e526042602c206000528660ff1660205285604052846060526020806080600060015afa8b3d51146114a35763ddafbaef6000526004601cfd5b80820183558a637f5e9f2060a01b17604052896034602c20558a8c7f8c5be1e5ebec7d5bd14f71427d1e84f3dd0314c0f7b2291e5b200ac8c7c3b925602060608801a3836040526000606052505050505050505050505050565b60006115118261150c90612ef5565b611624565b600460003373ffffffffffffffffffffffffffffffffffffffff1673ffffffffffffffffffffffffffffffffffffffff16815260200190815260200160002060008573ffffffffffffffffffffffffffffffffffffffff1673ffffffffffffffffffffffffffffffffffffffff168152602001908152602001600020819055508273ffffffffffffffffffffffffffffffffffffffff163373ffffffffffffffffffffffffffffffffffffffff167f46f92913a39019d68e630493d23e0cf39761bf253f7b3f8eae384b33e393ed4e60405160405180910390a36001905092915050565b600081602052637f5e9f20600c52826000526034600c2054905092915050565b505050565b505050565b600090565b600061163382600001516119d2565b9050919050565b600061164d6116476119e6565b83611a9d565b9050919050565b6000806000806116648686611ade565b9250925092506116748282611b3a565b82935050505092915050565b606061168b83611c9e565b61169c5761169960006116b6565b92505b60008390506116ad60028285611cab565b91505092915050565b60006116c3826002611d61565b9050919050565b60006116d583611c9e565b6116e6576116e360006116b6565b92505b6116ef82611c9e565b611700576116fd60006116b6565b91505b60008390506000839050600061173560028484608073ffffffffffffffffffffffffffffffffffffffff16635211c679611e03565b905080935050505092915050565b600061174f8383611e97565b905092915050565b600061176282611c9e565b6117735761177060006116b6565b91505b6000829050600061178382611f10565b90506000608073ffffffffffffffffffffffffffffffffffffffff166373cc01546002846040518363ffffffff1660e01b81526004016117c4929190612f99565b602060405180830381865afa1580156117e1573d6000803e3d6000fd5b505050506040513d601f19601f820116820180604052508101906118059190612fde565b905061181081611f6d565b9350505050919050565b61182660008383611615565b6805345cdf77eb68f44c548181018181101561184a5763e5cfe9576000526004601cfd5b806805345cdf77eb68f44c556387a211a2600c52836000526020600c2083815401815583602052600c5160601c60007fddf252ad1be2c89b69c2b068fc378daa952ba7f163c4a11628f55a4df523b3ef602080a35050506118ad6000838361161a565b5050565b60606118e760007f0000000000000000000000000000000000000000000000000000000000000000611f7790919063ffffffff16565b905090565b606061192260017f0000000000000000000000000000000000000000000000000000000000000000611f7790919063ffffffff16565b905090565b61193382600083611615565b6387a211a2600c52816000526020600c2080548083111561195c5763f4d678b86000526004601cfd5b8281038255826805345cdf77eb68f44c54036805345cdf77eb68f44c558260005260008460601b60601c7fddf252ad1be2c89b69c2b068fc378daa952ba7f163c4a11628f55a4df523b3ef60206000a350506119ba8260008361161a565b5050565b60006119ca8383612027565b905092915050565b60006119df82600261209f565b9050919050565b60007f000000000000000000000000000000000000000000000000000000000000000073ffffffffffffffffffffffffffffffffffffffff163073ffffffffffffffffffffffffffffffffffffffff16148015611a6257507f000000000000000000000000000000000000000000000000000000000000000046145b15611a8f577f00000000000000000000000000000000000000000000000000000000000000009050611a9a565b611a97612139565b90505b90565b60006040517f190100000000000000000000000000000000000000000000000000000000000081528360028201528260228201526042812091505092915050565b60008060006041845103611b235760008060006020870151925060408701519150606087015160001a9050611b15888285856121cf565b955095509550505050611b33565b60006002855160001b9250925092505b9250925092565b60006003811115611b4e57611b4d61300b565b5b826003811115611b6157611b6061300b565b5b0315611c9a5760016003811115611b7b57611b7a61300b565b5b826003811115611b8e57611b8d61300b565b5b03611bc5576040517ff645eedf00000000000000000000000000000000000000000000000000000000815260040160405180910390fd5b60026003811115611bd957611bd861300b565b5b826003811115611bec57611beb61300b565b5b03611c31578060001c6040517ffce698f7000000000000000000000000000000000000000000000000000000008152600401611c289190612582565b60405180910390fd5b600380811115611c4457611c4361300b565b5b826003811115611c5757611c5661300b565b5b03611c9957806040517fd78bce0c000000000000000000000000000000000000000000000000000000008152600401611c909190612640565b60405180910390fd5b5b5050565b6000808214159050919050565b6060608073ffffffffffffffffffffffffffffffffffffffff1663a1848ff385611cd486611f10565b85604051602001611ce5919061305b565b6040516020818303038152906040526040518463ffffffff1660e01b8152600401611d1293929190613076565b600060405180830381865afa158015611d2f573d6000803e3d6000fd5b505050506040513d6000823e3d601f19601f82011682018060405250810190611d58919061315c565b90509392505050565b60006060608073ffffffffffffffffffffffffffffffffffffffff166319e1c5c4611d8b86611f10565b856040518363ffffffff1660e01b8152600401611da99291906131a5565b600060405180830381865afa158015611dc6573d6000803e3d6000fd5b505050506040513d6000823e3d601f19601f82011682018060405250810190611def9190613245565b9050611dfa816122c3565b91505092915050565b60006060838388611e1389611f10565b611e1c89611f10565b6040518463ffffffff1660e01b8152600401611e3a93929190613076565b600060405180830381865afa158015611e57573d6000803e3d6000fd5b505050506040513d6000823e3d601f19601f82011682018060405250810190611e809190613245565b9050611e8b816122d1565b91505095945050505050565b6000611ea283611c9e565b611eb357611eb060006116b6565b92505b611ebc82611c9e565b611ecd57611eca60006116b6565b91505b600083905060008390506000611f0260028484608073ffffffffffffffffffffffffffffffffffffffff1663cc2cbeff611e03565b905080935050505092915050565b6060602067ffffffffffffffff811115611f2d57611f2c6127b1565b5b6040519080825280601f01601f191660200182016040528015611f5f5781602001600182028036833780820191505090505b509050816020820152919050565b6000819050919050565b606060ff60001b8314611f9457611f8d836122df565b9050612021565b818054611fa090612e6c565b80601f0160208091040260200160405190810160405280929190818152602001828054611fcc90612e6c565b80156120195780601f10611fee57610100808354040283529160200191612019565b820191906000526020600020905b815481529060010190602001808311611ffc57829003601f168201915b505050505090505b92915050565b600061203283611c9e565b6120435761204060006116b6565b92505b61204c82611c9e565b61205d5761205a60006116b6565b91505b60008390506000839050600061209160028484608073ffffffffffffffffffffffffffffffffffffffff16622df619611e03565b905080935050505092915050565b60006060608073ffffffffffffffffffffffffffffffffffffffff16635fa55ca784866040518363ffffffff1660e01b81526004016120df929190612f99565b600060405180830381865afa1580156120fc573d6000803e3d6000fd5b505050506040513d6000823e3d601f19601f820116820180604052508101906121259190613245565b9050612130816122c3565b91505092915050565b60007f8b73c3c69bb8fe3d512ecc4cf759cc79239f7b179b0ffacaa9a75d522b39400f7f00000000000000000000000000000000000000000000000000000000000000007f000000000000000000000000000000000000000000000000000000000000000046306040516020016121b495949392919061328e565b60405160208183030381529060405280519060200120905090565b60008060007f7fffffffffffffffffffffffffffffff5d576e7357a4501ddfe92f46681b20a08460001c111561220f5760006003859250925092506122b9565b60006001888888886040516000815260200160405260405161223494939291906132e1565b6020604051602081039080840390855afa158015612256573d6000803e3d6000fd5b505050602060405103519050600073ffffffffffffffffffffffffffffffffffffffff168173ffffffffffffffffffffffffffffffffffffffff16036122aa57600060016000801b935093509350506122b9565b8060008060001b935093509350505b9450945094915050565b600060208201519050919050565b600060208201519050919050565b606060006122ec83612353565b90506000602067ffffffffffffffff81111561230b5761230a6127b1565b5b6040519080825280601f01601f19166020018201604052801561233d5781602001600182028036833780820191505090505b5090508181528360208201528092505050919050565b60008060ff8360001c169050601f81111561239a576040517fb3512b0c00000000000000000000000000000000000000000000000000000000815260040160405180910390fd5b80915050919050565b600081519050919050565b600082825260208201905092915050565b60005b838110156123dd5780820151818401526020810190506123c2565b60008484015250505050565b6000601f19601f8301169050919050565b6000612405826123a3565b61240f81856123ae565b935061241f8185602086016123bf565b612428816123e9565b840191505092915050565b6000602082019050818103600083015261244d81846123fa565b905092915050565b6000604051905090565b600080fd5b600080fd5b600073ffffffffffffffffffffffffffffffffffffffff82169050919050565b600061249482612469565b9050919050565b6124a481612489565b81146124af57600080fd5b50565b6000813590506124c18161249b565b92915050565b6000819050919050565b6124da816124c7565b81146124e557600080fd5b50565b6000813590506124f7816124d1565b92915050565b600080604083850312156125145761251361245f565b5b6000612522858286016124b2565b9250506020612533858286016124e8565b9150509250929050565b60008115159050919050565b6125528161253d565b82525050565b600060208201905061256d6000830184612549565b92915050565b61257c816124c7565b82525050565b60006020820190506125976000830184612573565b92915050565b6000806000606084860312156125b6576125b561245f565b5b60006125c4868287016124b2565b93505060206125d5868287016124b2565b92505060406125e6868287016124e8565b9150509250925092565b600060ff82169050919050565b612606816125f0565b82525050565b600060208201905061262160008301846125fd565b92915050565b6000819050919050565b61263a81612627565b82525050565b60006020820190506126556000830184612631565b92915050565b600080fd5b6000602082840312156126765761267561265b565b5b81905092915050565b600080604083850312156126965761269561245f565b5b60006126a4858286016124b2565b925050602083013567ffffffffffffffff8111156126c5576126c4612464565b5b6126d185828601612660565b9150509250929050565b6000819050919050565b60006127006126fb6126f6846124c7565b6126db565b6124c7565b9050919050565b612710816126e5565b82525050565b600060208201905061272b6000830184612707565b92915050565b6000604082840312156127475761274661265b565b5b81905092915050565b600080604083850312156127675761276661245f565b5b6000612775858286016124b2565b925050602083013567ffffffffffffffff81111561279657612795612464565b5b6127a285828601612731565b9150509250929050565b600080fd5b7f4e487b7100000000000000000000000000000000000000000000000000000000600052604160045260246000fd5b6127e9826123e9565b810181811067ffffffffffffffff82111715612808576128076127b1565b5b80604052505050565b600061281b612455565b905061282782826127e0565b919050565b600080fd5b61283a81612627565b811461284557600080fd5b50565b60008135905061285781612831565b92915050565b600080fd5b600080fd5b600067ffffffffffffffff821115612882576128816127b1565b5b61288b826123e9565b9050602081019050919050565b82818337600083830152505050565b60006128ba6128b584612867565b612811565b9050828152602081018484840111156128d6576128d5612862565b5b6128e1848285612898565b509392505050565b600082601f8301126128fe576128fd61285d565b5b813561290e8482602086016128a7565b91505092915050565b60006040828403121561292d5761292c6127ac565b5b6129376040612811565b9050600061294784828501612848565b600083015250602082013567ffffffffffffffff81111561296b5761296a61282c565b5b612977848285016128e9565b60208301525092915050565b6000806040838503121561299a5761299961245f565b5b60006129a8858286016124b2565b925050602083013567ffffffffffffffff8111156129c9576129c8612464565b5b6129d585828601612917565b9150509250929050565b600063ffffffff82169050919050565b6129f8816129df565b8114612a0357600080fd5b50565b600081359050612a15816129ef565b92915050565b600060208284031215612a3157612a3061245f565b5b6000612a3f84828501612a06565b91505092915050565b600060208284031215612a5e57612a5d61245f565b5b6000612a6c848285016124b2565b91505092915050565b60007fff0000000000000000000000000000000000000000000000000000000000000082169050919050565b612aaa81612a75565b82525050565b612ab981612489565b82525050565b600081519050919050565b600082825260208201905092915050565b6000819050602082019050919050565b612af4816124c7565b82525050565b6000612b068383612aeb565b60208301905092915050565b6000602082019050919050565b6000612b2a82612abf565b612b348185612aca565b9350612b3f83612adb565b8060005b83811015612b70578151612b578882612afa565b9750612b6283612b12565b925050600181019050612b43565b5085935050505092915050565b600060e082019050612b92600083018a612aa1565b8181036020830152612ba481896123fa565b90508181036040830152612bb881886123fa565b9050612bc76060830187612573565b612bd46080830186612ab0565b612be160a0830185612631565b81810360c0830152612bf38184612b1f565b905098975050505050505050565b600080600060608486031215612c1a57612c1961245f565b5b6000612c28868287016124b2565b9350506020612c39868287016124b2565b925050604084013567ffffffffffffffff811115612c5a57612c59612464565b5b612c6686828701612660565b9150509250925092565b612c79816124c7565b8114612c8457600080fd5b50565b600081359050612c9681612c70565b92915050565b600080600060608486031215612cb557612cb461245f565b5b6000612cc3868287016124b2565b9350506020612cd4868287016124b2565b9250506040612ce586828701612c87565b9150509250925092565b60008060408385031215612d0657612d0561245f565b5b6000612d14858286016124b2565b9250506020612d2585828601612c87565b9150509250929050565b612d38816125f0565b8114612d4357600080fd5b50565b600081359050612d5581612d2f565b92915050565b600080600080600080600060e0888a031215612d7a57612d7961245f565b5b6000612d888a828b016124b2565b9750506020612d998a828b016124b2565b9650506040612daa8a828b016124e8565b9550506060612dbb8a828b016124e8565b9450506080612dcc8a828b01612d46565b93505060a0612ddd8a828b01612848565b92505060c0612dee8a828b01612848565b91505092959891949750929550565b60008060408385031215612e1457612e1361245f565b5b6000612e22858286016124b2565b9250506020612e33858286016124b2565b9150509250929050565b7f4e487b7100000000000000000000000000000000000000000000000000000000600052602260045260246000fd5b60006002820490506001821680612e8457607f821691505b602082108103612e9757612e96612e3d565b5b50919050565b600060208284031215612eb357612eb26127ac565b5b612ebd6020612811565b9050600082013567ffffffffffffffff811115612edd57612edc61282c565b5b612ee9848285016128e9565b60008301525092915050565b6000612f013683612e9d565b9050919050565b6000612f143683612917565b9050919050565b6000604082019050612f306000830185612631565b612f3d6020830184612631565b9392505050565b600081519050919050565b600082825260208201905092915050565b6000612f6b82612f44565b612f758185612f4f565b9350612f858185602086016123bf565b612f8e816123e9565b840191505092915050565b6000604082019050612fae60008301856125fd565b8181036020830152612fc08184612f60565b90509392505050565b600081519050612fd8816124d1565b92915050565b600060208284031215612ff457612ff361245f565b5b600061300284828501612fc9565b91505092915050565b7f4e487b7100000000000000000000000000000000000000000000000000000000600052602160045260246000fd5b6000819050919050565b61305561305082612627565b61303a565b82525050565b60006130678284613044565b60208201915081905092915050565b600060608201905061308b60008301866125fd565b818103602083015261309d8185612f60565b905081810360408301526130b18184612f60565b9050949350505050565b600067ffffffffffffffff8211156130d6576130d56127b1565b5b6130df826123e9565b9050602081019050919050565b60006130ff6130fa846130bb565b612811565b90508281526020810184848401111561311b5761311a612862565b5b6131268482856123bf565b509392505050565b600082601f8301126131435761314261285d565b5b81516131538482602086016130ec565b91505092915050565b6000602082840312156131725761317161245f565b5b600082015167ffffffffffffffff8111156131905761318f612464565b5b61319c8482850161312e565b91505092915050565b600060408201905081810360008301526131bf8185612f60565b90506131ce60208301846125fd565b9392505050565b60006131e86131e384612867565b612811565b90508281526020810184848401111561320457613203612862565b5b61320f8482856123bf565b509392505050565b600082601f83011261322c5761322b61285d565b5b815161323c8482602086016131d5565b91505092915050565b60006020828403121561325b5761325a61245f565b5b600082015167ffffffffffffffff81111561327957613278612464565b5b61328584828501613217565b91505092915050565b600060a0820190506132a36000830188612631565b6132b06020830187612631565b6132bd6040830186612631565b6132ca6060830185612573565b6132d76080830184612ab0565b9695505050505050565b60006080820190506132f66000830187612631565b61330360208301866125fd565b6133106040830185612631565b61331d6060830184612631565b9594505050505056fea264697066735822122054e0a0f4efb5c65f190b631d1807022c518b43b07919c197c9a86ff1e683e47c64736f6c63430008180033",
  "devdoc": {
    "errors": {
      "AllowanceOverflow()": [
        {
          "details": "The allowance has overflowed."
        }
      ],
      "AllowanceUnderflow()": [
        {
          "details": "The allowance has underflowed."
        }
      ],
      "ECDSAInvalidSignature()": [
        {
          "details": "The signature derives the `address(0)`."
        }
      ],
      "ECDSAInvalidSignatureLength(uint256)": [
        {
          "details": "The signature has an invalid length."
        }
      ],
      "ECDSAInvalidSignatureS(bytes32)": [
        {
          "details": "The signature has an S value that is in the upper half order."
        }
      ],
      "InsufficientAllowance()": [
        {
          "details": "Insufficient allowance."
        }
      ],
      "InsufficientBalance()": [
        {
          "details": "Insufficient balance."
        }
      ],
      "InvalidPermit()": [
        {
          "details": "The permit is invalid."
        }
      ],
      "PermitExpired()": [
        {
          "details": "The permit has expired."
        }
      ],
      "TotalSupplyOverflow()": [
        {
          "details": "The total supply has overflowed."
        }
      ]
    },
    "events": {
      "Approval(address,address,uint256)": {
        "details": "Emitted when `amount` tokens is approved by `owner` to be used by `spender`."
      },
      "ApprovalEncrypted(address,address)": {
        "details": "Emitted when the allowance of a `spender` for an `owner` is set by a call to {approveEncrypted}. `value` is the new allowance."
      },
      "EIP712DomainChanged()": {
        "details": "MAY be emitted to signal that the domain could have changed."
      },
      "Transfer(address,address,uint256)": {
        "details": "Emitted when `amount` tokens is transferred from `from` to `to`."
      },
      "TransferEncrypted(address,address)": {
        "details": "Emitted when `value` tokens are moved from one account (`from`) to another (`to`). Note that `value` may be zero."
      }
    },
    "kind": "dev",
    "methods": {
      "DOMAIN_SEPARATOR()": {
        "details": "Returns the EIP-712 domain separator for the EIP-2612 permit."
      },
      "allowance(address,address)": {
        "details": "Returns the amount of tokens that `spender` can spend on behalf of `owner`."
      },
      "allowanceEncrypted(address,(bytes32,bytes))": {
        "details": "Returns the remaining number of tokens that `spender` will be allowed to spend on behalf of `owner` through {transferFrom}. This is zero by default. This value changes when {approve} or {transferFrom} are called."
      },
      "approve(address,uint256)": {
        "details": "Sets `amount` as the allowance of `spender` over the caller's tokens. Emits a {Approval} event."
      },
      "approveEncrypted(address,(bytes))": {
        "details": "Sets a `value` amount of tokens as the allowance of `spender` over the caller's tokens. Returns a boolean value indicating whether the operation succeeded. IMPORTANT: Beware that changing an allowance with this method brings the risk that someone may use both the old and the new allowance by unfortunate transaction ordering. One possible solution to mitigate this race condition is to first reduce the spender's allowance to 0 and set the desired value afterwards: https://github.com/ethereum/EIPs/issues/20#issuecomment-263524729 Emits an {ApprovalEncrypted} event."
      },
      "balanceOf(address)": {
        "details": "Returns the amount of tokens owned by `owner`."
      },
      "balanceOfEncrypted(address,(bytes32,bytes))": {
        "details": "Returns the value of tokens owned by `account`, sealed and encrypted for the caller."
      },
      "decimals()": {
        "details": "Returns the decimals places of the token."
      },
      "eip712Domain()": {
        "details": "See {IERC-5267}."
      },
      "name()": {
        "details": "Returns the name of the token."
      },
      "nonces(address)": {
        "details": "Returns the current nonce for `owner`. This value is used to compute the signature for EIP-2612 permit."
      },
      "permit(address,address,uint256,uint256,uint8,bytes32,bytes32)": {
        "details": "Sets `value` as the allowance of `spender` over the tokens of `owner`, authorized by a signed approval by `owner`. Emits a {Approval} event."
      },
      "symbol()": {
        "details": "Returns the symbol of the token."
      },
      "totalSupply()": {
        "details": "Returns the amount of tokens in existence."
      },
      "transfer(address,uint256)": {
        "details": "Transfer `amount` tokens from the caller to `to`. Requirements: - `from` must at least have `amount`. Emits a {Transfer} event."
      },
      "transferFrom(address,address,uint256)": {
        "details": "Transfers `amount` tokens from `from` to `to`. Note: Does not update the allowance if it is the maximum uint256 value. Requirements: - `from` must at least have `amount`. - The caller must have at least `amount` of allowance to transfer the tokens of `from`. Emits a {Transfer} event."
      },
      "transferFromEncrypted(address,address,(bytes))": {
        "details": "Moves a `value` amount of tokens from `from` to `to` using the allowance mechanism. `value` is then deducted from the caller's allowance. Returns a boolean value indicating whether the operation succeeded. Emits a {TransferEncrypted} event."
      }
    },
    "version": 1
  },
  "userdoc": {
    "errors": {
      "SignerNotMessageSender()": [
        {
          "notice": "Emitted when the signer is not the message sender"
        }
      ],
      "SignerNotOwner()": [
        {
          "notice": "Emitted when the signer is not the specified owner"
        }
      ]
    },
    "kind": "user",
    "methods": {},
    "version": 1
  },
  "storageLayout": {
    "storage": [
      {
        "astId": 16568,
        "contract": "contracts/tokens/FakeFGZ.sol:FakeFGZ",
        "label": "_nameFallback",
        "offset": 0,
        "slot": "0",
        "type": "t_string_storage"
      },
      {
        "astId": 16570,
        "contract": "contracts/tokens/FakeFGZ.sol:FakeFGZ",
        "label": "_versionFallback",
        "offset": 0,
        "slot": "1",
        "type": "t_string_storage"
      },
      {
        "astId": 18126,
        "contract": "contracts/tokens/FakeFGZ.sol:FakeFGZ",
        "label": "_encTotalSupply",
        "offset": 0,
        "slot": "2",
        "type": "t_userDefinedValueType(euint32)12"
      },
      {
        "astId": 18131,
        "contract": "contracts/tokens/FakeFGZ.sol:FakeFGZ",
        "label": "_encBalanceOf",
        "offset": 0,
        "slot": "3",
        "type": "t_mapping(t_address,t_userDefinedValueType(euint32)12)"
      },
      {
        "astId": 18138,
        "contract": "contracts/tokens/FakeFGZ.sol:FakeFGZ",
        "label": "_encAllowance",
        "offset": 0,
        "slot": "4",
        "type": "t_mapping(t_address,t_mapping(t_address,t_userDefinedValueType(euint32)12))"
      },
      {
        "astId": 18140,
        "contract": "contracts/tokens/FakeFGZ.sol:FakeFGZ",
        "label": "_name",
        "offset": 0,
        "slot": "5",
        "type": "t_string_storage"
      },
      {
        "astId": 18142,
        "contract": "contracts/tokens/FakeFGZ.sol:FakeFGZ",
        "label": "_symbol",
        "offset": 0,
        "slot": "6",
        "type": "t_string_storage"
      }
    ],
    "types": {
      "t_address": {
        "encoding": "inplace",
        "label": "address",
        "numberOfBytes": "20"
      },
      "t_mapping(t_address,t_mapping(t_address,t_userDefinedValueType(euint32)12))": {
        "encoding": "mapping",
        "key": "t_address",
        "label": "mapping(address => mapping(address => euint32))",
        "numberOfBytes": "32",
        "value": "t_mapping(t_address,t_userDefinedValueType(euint32)12)"
      },
      "t_mapping(t_address,t_userDefinedValueType(euint32)12)": {
        "encoding": "mapping",
        "key": "t_address",
        "label": "mapping(address => euint32)",
        "numberOfBytes": "32",
        "value": "t_userDefinedValueType(euint32)12"
      },
      "t_string_storage": {
        "encoding": "bytes",
        "label": "string",
        "numberOfBytes": "32"
      },
      "t_userDefinedValueType(euint32)12": {
        "encoding": "inplace",
        "label": "euint32",
        "numberOfBytes": "32"
      }
    }
  }
}