{
  "address": "0x1B3024677412242F6474Ac241a334A5f40b2e1ff",
  "abi": [
    {
      "inputs": [
        {
          "components": [
            {
              "internalType": "bytes",
              "name": "data",
              "type": "bytes"
            }
          ],
          "internalType": "struct inEuint32",
          "name": "_initialSupply",
          "type": "tuple"
        }
      ],
      "stateMutability": "nonpayable",
      "type": "constructor"
    },
    {
      "inputs": [],
      "name": "AllowanceOverflow",
      "type": "error"
    },
    {
      "inputs": [],
      "name": "AllowanceUnderflow",
      "type": "error"
    },
    {
      "inputs": [],
      "name": "ECDSAInvalidSignature",
      "type": "error"
    },
    {
      "inputs": [
        {
          "internalType": "uint256",
          "name": "length",
          "type": "uint256"
        }
      ],
      "name": "ECDSAInvalidSignatureLength",
      "type": "error"
    },
    {
      "inputs": [
        {
          "internalType": "bytes32",
          "name": "s",
          "type": "bytes32"
        }
      ],
      "name": "ECDSAInvalidSignatureS",
      "type": "error"
    },
    {
      "inputs": [],
      "name": "ErrorInsufficientFunds",
      "type": "error"
    },
    {
      "inputs": [],
      "name": "InsufficientAllowance",
      "type": "error"
    },
    {
      "inputs": [],
      "name": "InsufficientBalance",
      "type": "error"
    },
    {
      "inputs": [],
      "name": "InvalidPermit",
      "type": "error"
    },
    {
      "inputs": [],
      "name": "InvalidShortString",
      "type": "error"
    },
    {
      "inputs": [],
      "name": "PermitExpired",
      "type": "error"
    },
    {
      "inputs": [],
      "name": "SignerNotMessageSender",
      "type": "error"
    },
    {
      "inputs": [],
      "name": "SignerNotOwner",
      "type": "error"
    },
    {
      "inputs": [
        {
          "internalType": "string",
          "name": "str",
          "type": "string"
        }
      ],
      "name": "StringTooLong",
      "type": "error"
    },
    {
      "inputs": [],
      "name": "TotalSupplyOverflow",
      "type": "error"
    },
    {
      "anonymous": false,
      "inputs": [
        {
          "indexed": true,
          "internalType": "address",
          "name": "owner",
          "type": "address"
        },
        {
          "indexed": true,
          "internalType": "address",
          "name": "spender",
          "type": "address"
        },
        {
          "indexed": false,
          "internalType": "uint256",
          "name": "amount",
          "type": "uint256"
        }
      ],
      "name": "Approval",
      "type": "event"
    },
    {
      "anonymous": false,
      "inputs": [
        {
          "indexed": true,
          "internalType": "address",
          "name": "owner",
          "type": "address"
        },
        {
          "indexed": true,
          "internalType": "address",
          "name": "spender",
          "type": "address"
        }
      ],
      "name": "ApprovalEncrypted",
      "type": "event"
    },
    {
      "anonymous": false,
      "inputs": [],
      "name": "EIP712DomainChanged",
      "type": "event"
    },
    {
      "anonymous": false,
      "inputs": [
        {
          "indexed": true,
          "internalType": "address",
          "name": "from",
          "type": "address"
        },
        {
          "indexed": true,
          "internalType": "address",
          "name": "to",
          "type": "address"
        },
        {
          "indexed": false,
          "internalType": "uint256",
          "name": "amount",
          "type": "uint256"
        }
      ],
      "name": "Transfer",
      "type": "event"
    },
    {
      "anonymous": false,
      "inputs": [
        {
          "indexed": true,
          "internalType": "address",
          "name": "from",
          "type": "address"
        },
        {
          "indexed": true,
          "internalType": "address",
          "name": "to",
          "type": "address"
        }
      ],
      "name": "TransferEncrypted",
      "type": "event"
    },
    {
      "inputs": [],
      "name": "DOMAIN_SEPARATOR",
      "outputs": [
        {
          "internalType": "bytes32",
          "name": "result",
          "type": "bytes32"
        }
      ],
      "stateMutability": "view",
      "type": "function"
    },
    {
      "inputs": [
        {
          "internalType": "address",
          "name": "owner",
          "type": "address"
        },
        {
          "internalType": "address",
          "name": "spender",
          "type": "address"
        }
      ],
      "name": "allowance",
      "outputs": [
        {
          "internalType": "uint256",
          "name": "result",
          "type": "uint256"
        }
      ],
      "stateMutability": "view",
      "type": "function"
    },
    {
      "inputs": [
        {
          "internalType": "address",
          "name": "spender",
          "type": "address"
        },
        {
          "components": [
            {
              "internalType": "bytes32",
              "name": "publicKey",
              "type": "bytes32"
            },
            {
              "internalType": "bytes",
              "name": "signature",
              "type": "bytes"
            }
          ],
          "internalType": "struct Permission",
          "name": "permission",
          "type": "tuple"
        }
      ],
      "name": "allowanceEncrypted",
      "outputs": [
        {
          "internalType": "string",
          "name": "",
          "type": "string"
        }
      ],
      "stateMutability": "view",
      "type": "function"
    },
    {
      "inputs": [
        {
          "internalType": "address",
          "name": "spender",
          "type": "address"
        },
        {
          "internalType": "uint256",
          "name": "amount",
          "type": "uint256"
        }
      ],
      "name": "approve",
      "outputs": [
        {
          "internalType": "bool",
          "name": "",
          "type": "bool"
        }
      ],
      "stateMutability": "nonpayable",
      "type": "function"
    },
    {
      "inputs": [
        {
          "internalType": "address",
          "name": "spender",
          "type": "address"
        },
        {
          "components": [
            {
              "internalType": "bytes",
              "name": "data",
              "type": "bytes"
            }
          ],
          "internalType": "struct inEuint32",
          "name": "value",
          "type": "tuple"
        }
      ],
      "name": "approveEncrypted",
      "outputs": [
        {
          "internalType": "bool",
          "name": "",
          "type": "bool"
        }
      ],
      "stateMutability": "nonpayable",
      "type": "function"
    },
    {
      "inputs": [
        {
          "internalType": "address",
          "name": "owner",
          "type": "address"
        }
      ],
      "name": "balanceOf",
      "outputs": [
        {
          "internalType": "uint256",
          "name": "result",
          "type": "uint256"
        }
      ],
      "stateMutability": "view",
      "type": "function"
    },
    {
      "inputs": [
        {
          "internalType": "address",
          "name": "account",
          "type": "address"
        },
        {
          "components": [
            {
              "internalType": "bytes32",
              "name": "publicKey",
              "type": "bytes32"
            },
            {
              "internalType": "bytes",
              "name": "signature",
              "type": "bytes"
            }
          ],
          "internalType": "struct Permission",
          "name": "auth",
          "type": "tuple"
        }
      ],
      "name": "balanceOfEncrypted",
      "outputs": [
        {
          "internalType": "string",
          "name": "",
          "type": "string"
        }
      ],
      "stateMutability": "view",
      "type": "function"
    },
    {
      "inputs": [],
      "name": "decimals",
      "outputs": [
        {
          "internalType": "uint8",
          "name": "",
          "type": "uint8"
        }
      ],
      "stateMutability": "pure",
      "type": "function"
    },
    {
      "inputs": [],
      "name": "eip712Domain",
      "outputs": [
        {
          "internalType": "bytes1",
          "name": "fields",
          "type": "bytes1"
        },
        {
          "internalType": "string",
          "name": "name",
          "type": "string"
        },
        {
          "internalType": "string",
          "name": "version",
          "type": "string"
        },
        {
          "internalType": "uint256",
          "name": "chainId",
          "type": "uint256"
        },
        {
          "internalType": "address",
          "name": "verifyingContract",
          "type": "address"
        },
        {
          "internalType": "bytes32",
          "name": "salt",
          "type": "bytes32"
        },
        {
          "internalType": "uint256[]",
          "name": "extensions",
          "type": "uint256[]"
        }
      ],
      "stateMutability": "view",
      "type": "function"
    },
    {
      "inputs": [],
      "name": "name",
      "outputs": [
        {
          "internalType": "string",
          "name": "",
          "type": "string"
        }
      ],
      "stateMutability": "view",
      "type": "function"
    },
    {
      "inputs": [
        {
          "internalType": "address",
          "name": "owner",
          "type": "address"
        }
      ],
      "name": "nonces",
      "outputs": [
        {
          "internalType": "uint256",
          "name": "result",
          "type": "uint256"
        }
      ],
      "stateMutability": "view",
      "type": "function"
    },
    {
      "inputs": [
        {
          "internalType": "address",
          "name": "owner",
          "type": "address"
        },
        {
          "internalType": "address",
          "name": "spender",
          "type": "address"
        },
        {
          "internalType": "uint256",
          "name": "value",
          "type": "uint256"
        },
        {
          "internalType": "uint256",
          "name": "deadline",
          "type": "uint256"
        },
        {
          "internalType": "uint8",
          "name": "v",
          "type": "uint8"
        },
        {
          "internalType": "bytes32",
          "name": "r",
          "type": "bytes32"
        },
        {
          "internalType": "bytes32",
          "name": "s",
          "type": "bytes32"
        }
      ],
      "name": "permit",
      "outputs": [],
      "stateMutability": "nonpayable",
      "type": "function"
    },
    {
      "inputs": [],
      "name": "symbol",
      "outputs": [
        {
          "internalType": "string",
          "name": "",
          "type": "string"
        }
      ],
      "stateMutability": "view",
      "type": "function"
    },
    {
      "inputs": [],
      "name": "totalSupply",
      "outputs": [
        {
          "internalType": "uint256",
          "name": "result",
          "type": "uint256"
        }
      ],
      "stateMutability": "view",
      "type": "function"
    },
    {
      "inputs": [
        {
          "internalType": "address",
          "name": "to",
          "type": "address"
        },
        {
          "internalType": "uint256",
          "name": "amount",
          "type": "uint256"
        }
      ],
      "name": "transfer",
      "outputs": [
        {
          "internalType": "bool",
          "name": "",
          "type": "bool"
        }
      ],
      "stateMutability": "nonpayable",
      "type": "function"
    },
    {
      "inputs": [
        {
          "internalType": "address",
          "name": "to",
          "type": "address"
        },
        {
          "components": [
            {
              "internalType": "bytes",
              "name": "data",
              "type": "bytes"
            }
          ],
          "internalType": "struct inEuint32",
          "name": "encryptedAmount",
          "type": "tuple"
        }
      ],
      "name": "transferEncrypted",
      "outputs": [
        {
          "internalType": "euint32",
          "name": "",
          "type": "uint256"
        }
      ],
      "stateMutability": "nonpayable",
      "type": "function"
    },
    {
      "inputs": [
        {
          "internalType": "address",
          "name": "to",
          "type": "address"
        },
        {
          "internalType": "euint32",
          "name": "amount",
          "type": "uint256"
        }
      ],
      "name": "transferEncrypted",
      "outputs": [
        {
          "internalType": "euint32",
          "name": "",
          "type": "uint256"
        }
      ],
      "stateMutability": "nonpayable",
      "type": "function"
    },
    {
      "inputs": [
        {
          "internalType": "address",
          "name": "from",
          "type": "address"
        },
        {
          "internalType": "address",
          "name": "to",
          "type": "address"
        },
        {
          "internalType": "uint256",
          "name": "amount",
          "type": "uint256"
        }
      ],
      "name": "transferFrom",
      "outputs": [
        {
          "internalType": "bool",
          "name": "",
          "type": "bool"
        }
      ],
      "stateMutability": "nonpayable",
      "type": "function"
    },
    {
      "inputs": [
        {
          "internalType": "address",
          "name": "from",
          "type": "address"
        },
        {
          "internalType": "address",
          "name": "to",
          "type": "address"
        },
        {
          "components": [
            {
              "internalType": "bytes",
              "name": "data",
              "type": "bytes"
            }
          ],
          "internalType": "struct inEuint32",
          "name": "value",
          "type": "tuple"
        }
      ],
      "name": "transferFromEncrypted",
      "outputs": [
        {
          "internalType": "euint32",
          "name": "",
          "type": "uint256"
        }
      ],
      "stateMutability": "nonpayable",
      "type": "function"
    },
    {
      "inputs": [
        {
          "internalType": "address",
          "name": "from",
          "type": "address"
        },
        {
          "internalType": "address",
          "name": "to",
          "type": "address"
        },
        {
          "internalType": "euint32",
          "name": "value",
          "type": "uint256"
        }
      ],
      "name": "transferFromEncrypted",
      "outputs": [
        {
          "internalType": "euint32",
          "name": "",
          "type": "uint256"
        }
      ],
      "stateMutability": "nonpayable",
      "type": "function"
    },
    {
      "inputs": [
        {
          "internalType": "uint32",
          "name": "amount",
          "type": "uint32"
        }
      ],
      "name": "unwrap",
      "outputs": [],
      "stateMutability": "nonpayable",
      "type": "function"
    },
    {
      "inputs": [
        {
          "internalType": "uint32",
          "name": "amount",
          "type": "uint32"
        }
      ],
      "name": "wrap",
      "outputs": [],
      "stateMutability": "nonpayable",
      "type": "function"
    }
  ],
  "transactionHash": "0xdee588064c4112cd378caa9c04a779469058035cd70f4d2dd2121364bb56aebb",
  "args": [
    {
      "data": {
        "0": 16,
        "1": 8,
        "2": 0,
        "3": 0,
        "4": 0,
        "5": 0,
        "6": 0,
        "7": 0,
        "8": 95,
        "9": 190,
        "10": 23,
        "11": 12,
        "12": 212,
        "13": 66,
        "14": 142,
        "15": 72,
        "16": 17,
        "17": 148,
        "18": 59,
        "19": 231,
        "20": 6,
        "21": 204,
        "22": 137,
        "23": 129,
        "24": 44,
        "25": 15,
        "26": 237,
        "27": 19,
        "28": 35,
        "29": 188,
        "30": 53,
        "31": 23,
        "32": 219,
        "33": 135,
        "34": 90,
        "35": 153,
        "36": 63,
        "37": 186,
        "38": 95,
        "39": 176,
        "40": 52,
        "41": 200,
        "42": 230,
        "43": 127,
        "44": 121,
        "45": 134,
        "46": 176,
        "47": 98,
        "48": 252,
        "49": 93,
        "50": 150,
        "51": 85,
        "52": 145,
        "53": 3,
        "54": 185,
        "55": 72,
        "56": 78,
        "57": 21,
        "58": 175,
        "59": 143,
        "60": 168,
        "61": 72,
        "62": 250,
        "63": 41,
        "64": 214,
        "65": 182,
        "66": 232,
        "67": 205,
        "68": 58,
        "69": 221,
        "70": 81,
        "71": 65,
        "72": 220,
        "73": 200,
        "74": 73,
        "75": 29,
        "76": 123,
        "77": 71,
        "78": 65,
        "79": 175,
        "80": 227,
        "81": 149,
        "82": 172,
        "83": 196,
        "84": 55,
        "85": 83,
        "86": 33,
        "87": 139,
        "88": 208,
        "89": 60,
        "90": 202,
        "91": 34,
        "92": 132,
        "93": 43,
        "94": 128,
        "95": 99,
        "96": 190,
        "97": 87,
        "98": 224,
        "99": 16,
        "100": 91,
        "101": 28,
        "102": 18,
        "103": 153,
        "104": 119,
        "105": 253,
        "106": 18,
        "107": 118,
        "108": 41,
        "109": 52,
        "110": 187,
        "111": 62,
        "112": 91,
        "113": 158,
        "114": 192,
        "115": 156,
        "116": 57,
        "117": 225,
        "118": 96,
        "119": 193,
        "120": 27,
        "121": 0,
        "122": 160,
        "123": 63,
        "124": 126,
        "125": 127,
        "126": 119,
        "127": 145,
        "128": 214,
        "129": 231,
        "130": 78,
        "131": 234,
        "132": 180,
        "133": 140,
        "134": 185,
        "135": 11,
        "136": 203,
        "137": 95,
        "138": 247,
        "139": 180,
        "140": 166,
        "141": 255,
        "142": 52,
        "143": 93,
        "144": 18,
        "145": 247,
        "146": 208,
        "147": 250,
        "148": 185,
        "149": 106,
        "150": 173,
        "151": 48,
        "152": 218,
        "153": 138,
        "154": 84,
        "155": 45,
        "156": 36,
        "157": 112,
        "158": 32,
        "159": 107,
        "160": 57,
        "161": 0,
        "162": 49,
        "163": 126,
        "164": 253,
        "165": 9,
        "166": 19,
        "167": 167,
        "168": 124,
        "169": 162,
        "170": 217,
        "171": 7,
        "172": 49,
        "173": 211,
        "174": 70,
        "175": 121,
        "176": 154,
        "177": 81,
        "178": 2,
        "179": 100,
        "180": 38,
        "181": 192,
        "182": 165,
        "183": 58,
        "184": 110,
        "185": 12,
        "186": 179,
        "187": 241,
        "188": 157,
        "189": 8,
        "190": 251,
        "191": 69,
        "192": 172,
        "193": 80,
        "194": 220,
        "195": 139,
        "196": 227,
        "197": 169,
        "198": 165,
        "199": 193,
        "200": 57,
        "201": 139,
        "202": 229,
        "203": 136,
        "204": 147,
        "205": 78,
        "206": 34,
        "207": 191,
        "208": 85,
        "209": 25,
        "210": 189,
        "211": 139,
        "212": 78,
        "213": 73,
        "214": 45,
        "215": 233,
        "216": 212,
        "217": 227,
        "218": 107,
        "219": 190,
        "220": 17,
        "221": 64,
        "222": 254,
        "223": 17,
        "224": 45,
        "225": 91,
        "226": 166,
        "227": 36,
        "228": 118,
        "229": 213,
        "230": 247,
        "231": 80,
        "232": 3,
        "233": 64,
        "234": 73,
        "235": 245,
        "236": 134,
        "237": 0,
        "238": 221,
        "239": 122,
        "240": 55,
        "241": 79,
        "242": 185,
        "243": 19,
        "244": 112,
        "245": 54,
        "246": 39,
        "247": 103,
        "248": 86,
        "249": 107,
        "250": 119,
        "251": 119,
        "252": 174,
        "253": 233,
        "254": 157,
        "255": 150,
        "256": 234,
        "257": 4,
        "258": 12,
        "259": 22,
        "260": 223,
        "261": 214,
        "262": 195,
        "263": 238,
        "264": 15,
        "265": 124,
        "266": 212,
        "267": 238,
        "268": 40,
        "269": 53,
        "270": 81,
        "271": 33,
        "272": 211,
        "273": 88,
        "274": 56,
        "275": 139,
        "276": 161,
        "277": 87,
        "278": 190,
        "279": 3,
        "280": 105,
        "281": 142,
        "282": 47,
        "283": 30,
        "284": 91,
        "285": 100,
        "286": 90,
        "287": 18,
        "288": 125,
        "289": 37,
        "290": 122,
        "291": 0,
        "292": 128,
        "293": 101,
        "294": 171,
        "295": 50,
        "296": 204,
        "297": 88,
        "298": 209,
        "299": 28,
        "300": 165,
        "301": 93,
        "302": 89,
        "303": 122,
        "304": 253,
        "305": 134,
        "306": 206,
        "307": 146,
        "308": 255,
        "309": 2,
        "310": 5,
        "311": 31,
        "312": 136,
        "313": 180,
        "314": 139,
        "315": 209,
        "316": 228,
        "317": 132,
        "318": 0,
        "319": 130,
        "320": 145,
        "321": 191,
        "322": 227,
        "323": 15,
        "324": 242,
        "325": 8,
        "326": 244,
        "327": 73,
        "328": 82,
        "329": 44,
        "330": 104,
        "331": 246,
        "332": 233,
        "333": 135,
        "334": 36,
        "335": 96,
        "336": 8,
        "337": 148,
        "338": 32,
        "339": 237,
        "340": 193,
        "341": 218,
        "342": 65,
        "343": 141,
        "344": 92,
        "345": 217,
        "346": 220,
        "347": 48,
        "348": 248,
        "349": 119,
        "350": 155,
        "351": 190,
        "352": 180,
        "353": 251,
        "354": 16,
        "355": 113,
        "356": 114,
        "357": 80,
        "358": 96,
        "359": 212,
        "360": 154,
        "361": 41,
        "362": 133,
        "363": 197,
        "364": 88,
        "365": 88,
        "366": 222,
        "367": 104,
        "368": 25,
        "369": 101,
        "370": 166,
        "371": 213,
        "372": 150,
        "373": 18,
        "374": 58,
        "375": 139,
        "376": 118,
        "377": 99,
        "378": 84,
        "379": 234,
        "380": 67,
        "381": 75,
        "382": 80,
        "383": 51,
        "384": 55,
        "385": 70,
        "386": 20,
        "387": 32,
        "388": 166,
        "389": 146,
        "390": 254,
        "391": 68,
        "392": 171,
        "393": 0,
        "394": 95,
        "395": 76,
        "396": 43,
        "397": 37,
        "398": 172,
        "399": 165,
        "400": 123,
        "401": 77,
        "402": 116,
        "403": 173,
        "404": 52,
        "405": 124,
        "406": 97,
        "407": 39,
        "408": 66,
        "409": 36,
        "410": 56,
        "411": 161,
        "412": 207,
        "413": 13,
        "414": 103,
        "415": 144,
        "416": 147,
        "417": 54,
        "418": 104,
        "419": 233,
        "420": 11,
        "421": 142,
        "422": 32,
        "423": 81,
        "424": 103,
        "425": 33,
        "426": 115,
        "427": 59,
        "428": 221,
        "429": 94,
        "430": 106,
        "431": 61,
        "432": 239,
        "433": 58,
        "434": 224,
        "435": 133,
        "436": 252,
        "437": 0,
        "438": 172,
        "439": 22,
        "440": 44,
        "441": 189,
        "442": 52,
        "443": 239,
        "444": 192,
        "445": 152,
        "446": 45,
        "447": 213,
        "448": 227,
        "449": 107,
        "450": 62,
        "451": 13,
        "452": 19,
        "453": 22,
        "454": 23,
        "455": 211,
        "456": 60,
        "457": 241,
        "458": 106,
        "459": 224,
        "460": 121,
        "461": 212,
        "462": 76,
        "463": 200,
        "464": 172,
        "465": 200,
        "466": 79,
        "467": 67,
        "468": 103,
        "469": 231,
        "470": 91,
        "471": 214,
        "472": 174,
        "473": 245,
        "474": 61,
        "475": 130,
        "476": 41,
        "477": 192,
        "478": 159,
        "479": 77,
        "480": 183,
        "481": 24,
        "482": 95,
        "483": 217,
        "484": 109,
        "485": 235,
        "486": 88,
        "487": 142,
        "488": 209,
        "489": 101,
        "490": 199,
        "491": 4,
        "492": 114,
        "493": 251,
        "494": 182,
        "495": 154,
        "496": 227,
        "497": 165,
        "498": 155,
        "499": 174,
        "500": 222,
        "501": 210,
        "502": 157,
        "503": 71,
        "504": 180,
        "505": 37,
        "506": 105,
        "507": 69,
        "508": 190,
        "509": 120,
        "510": 86,
        "511": 182,
        "512": 226,
        "513": 45,
        "514": 230,
        "515": 108,
        "516": 9,
        "517": 196,
        "518": 249,
        "519": 61,
        "520": 24,
        "521": 253,
        "522": 249,
        "523": 212,
        "524": 43,
        "525": 221,
        "526": 64,
        "527": 230,
        "528": 139,
        "529": 27,
        "530": 130,
        "531": 114,
        "532": 141,
        "533": 114,
        "534": 48,
        "535": 182,
        "536": 176,
        "537": 203,
        "538": 229,
        "539": 69,
        "540": 179,
        "541": 233,
        "542": 134,
        "543": 118,
        "544": 31,
        "545": 88,
        "546": 8,
        "547": 183,
        "548": 212,
        "549": 246,
        "550": 241,
        "551": 3,
        "552": 101,
        "553": 199,
        "554": 61,
        "555": 37,
        "556": 168,
        "557": 56,
        "558": 136,
        "559": 23,
        "560": 30,
        "561": 143,
        "562": 101,
        "563": 0,
        "564": 180,
        "565": 123,
        "566": 132,
        "567": 165,
        "568": 229,
        "569": 123,
        "570": 73,
        "571": 116,
        "572": 233,
        "573": 222,
        "574": 178,
        "575": 248,
        "576": 16,
        "577": 17,
        "578": 147,
        "579": 140,
        "580": 157,
        "581": 191,
        "582": 74,
        "583": 20,
        "584": 235,
        "585": 89,
        "586": 37,
        "587": 73,
        "588": 119,
        "589": 25,
        "590": 178,
        "591": 251,
        "592": 39,
        "593": 49,
        "594": 154,
        "595": 248,
        "596": 238,
        "597": 39,
        "598": 169,
        "599": 236,
        "600": 174,
        "601": 2,
        "602": 222,
        "603": 89,
        "604": 88,
        "605": 175,
        "606": 88,
        "607": 92,
        "608": 36,
        "609": 117,
        "610": 14,
        "611": 43,
        "612": 201,
        "613": 190,
        "614": 16,
        "615": 108,
        "616": 243,
        "617": 154,
        "618": 104,
        "619": 176,
        "620": 195,
        "621": 92,
        "622": 182,
        "623": 59,
        "624": 88,
        "625": 11,
        "626": 231,
        "627": 162,
        "628": 230,
        "629": 83,
        "630": 135,
        "631": 4,
        "632": 230,
        "633": 203,
        "634": 126,
        "635": 161,
        "636": 98,
        "637": 163,
        "638": 239,
        "639": 228,
        "640": 109,
        "641": 213,
        "642": 249,
        "643": 81,
        "644": 146,
        "645": 64,
        "646": 162,
        "647": 217,
        "648": 225,
        "649": 213,
        "650": 242,
        "651": 62,
        "652": 165,
        "653": 9,
        "654": 231,
        "655": 59,
        "656": 55,
        "657": 248,
        "658": 175,
        "659": 210,
        "660": 226,
        "661": 218,
        "662": 176,
        "663": 103,
        "664": 89,
        "665": 40,
        "666": 193,
        "667": 140,
        "668": 235,
        "669": 72,
        "670": 124,
        "671": 0,
        "672": 156,
        "673": 251,
        "674": 39,
        "675": 230,
        "676": 238,
        "677": 1,
        "678": 172,
        "679": 143,
        "680": 160,
        "681": 83,
        "682": 69,
        "683": 28,
        "684": 188,
        "685": 194,
        "686": 93,
        "687": 225,
        "688": 72,
        "689": 49,
        "690": 243,
        "691": 115,
        "692": 166,
        "693": 93,
        "694": 54,
        "695": 171,
        "696": 109,
        "697": 56,
        "698": 170,
        "699": 4,
        "700": 70,
        "701": 77,
        "702": 253,
        "703": 198,
        "704": 225,
        "705": 209,
        "706": 51,
        "707": 37,
        "708": 250,
        "709": 144,
        "710": 202,
        "711": 208,
        "712": 202,
        "713": 252,
        "714": 206,
        "715": 9,
        "716": 137,
        "717": 255,
        "718": 211,
        "719": 73,
        "720": 175,
        "721": 254,
        "722": 7,
        "723": 121,
        "724": 244,
        "725": 172,
        "726": 34,
        "727": 89,
        "728": 243,
        "729": 244,
        "730": 178,
        "731": 42,
        "732": 93,
        "733": 27,
        "734": 229,
        "735": 28,
        "736": 253,
        "737": 67,
        "738": 237,
        "739": 110,
        "740": 67,
        "741": 147,
        "742": 103,
        "743": 240,
        "744": 17,
        "745": 175,
        "746": 204,
        "747": 146,
        "748": 64,
        "749": 114,
        "750": 106,
        "751": 161,
        "752": 70,
        "753": 236,
        "754": 31,
        "755": 111,
        "756": 47,
        "757": 176,
        "758": 139,
        "759": 105,
        "760": 170,
        "761": 94,
        "762": 55,
        "763": 180,
        "764": 86,
        "765": 54,
        "766": 172,
        "767": 1,
        "768": 206,
        "769": 19,
        "770": 253,
        "771": 32,
        "772": 75,
        "773": 55,
        "774": 118,
        "775": 151,
        "776": 221,
        "777": 59,
        "778": 173,
        "779": 148,
        "780": 19,
        "781": 72,
        "782": 113,
        "783": 127,
        "784": 254,
        "785": 114,
        "786": 40,
        "787": 232,
        "788": 75,
        "789": 195,
        "790": 80,
        "791": 78,
        "792": 163,
        "793": 86,
        "794": 167,
        "795": 39,
        "796": 54,
        "797": 245,
        "798": 47,
        "799": 5,
        "800": 214,
        "801": 228,
        "802": 14,
        "803": 176,
        "804": 11,
        "805": 109,
        "806": 143,
        "807": 217,
        "808": 76,
        "809": 170,
        "810": 35,
        "811": 57,
        "812": 120,
        "813": 225,
        "814": 40,
        "815": 94,
        "816": 226,
        "817": 91,
        "818": 155,
        "819": 85,
        "820": 91,
        "821": 149,
        "822": 136,
        "823": 36,
        "824": 141,
        "825": 191,
        "826": 21,
        "827": 133,
        "828": 38,
        "829": 5,
        "830": 198,
        "831": 60,
        "832": 203,
        "833": 134,
        "834": 232,
        "835": 122,
        "836": 179,
        "837": 65,
        "838": 107,
        "839": 1,
        "840": 197,
        "841": 37,
        "842": 29,
        "843": 89,
        "844": 170,
        "845": 242,
        "846": 238,
        "847": 51,
        "848": 126,
        "849": 38,
        "850": 31,
        "851": 6,
        "852": 4,
        "853": 245,
        "854": 108,
        "855": 91,
        "856": 178,
        "857": 18,
        "858": 129,
        "859": 42,
        "860": 3,
        "861": 250,
        "862": 242,
        "863": 227,
        "864": 51,
        "865": 221,
        "866": 103,
        "867": 8,
        "868": 36,
        "869": 138,
        "870": 184,
        "871": 202,
        "872": 107,
        "873": 208,
        "874": 233,
        "875": 147,
        "876": 145,
        "877": 200,
        "878": 43,
        "879": 209,
        "880": 2,
        "881": 159,
        "882": 104,
        "883": 218,
        "884": 10,
        "885": 63,
        "886": 197,
        "887": 76,
        "888": 124,
        "889": 99,
        "890": 133,
        "891": 34,
        "892": 102,
        "893": 14,
        "894": 99,
        "895": 83,
        "896": 19,
        "897": 226,
        "898": 194,
        "899": 121,
        "900": 159,
        "901": 29,
        "902": 49,
        "903": 237,
        "904": 53,
        "905": 43,
        "906": 22,
        "907": 36,
        "908": 27,
        "909": 115,
        "910": 96,
        "911": 182,
        "912": 113,
        "913": 128,
        "914": 158,
        "915": 13,
        "916": 71,
        "917": 84,
        "918": 56,
        "919": 195,
        "920": 156,
        "921": 236,
        "922": 5,
        "923": 29,
        "924": 145,
        "925": 253,
        "926": 206,
        "927": 66,
        "928": 23,
        "929": 31,
        "930": 247,
        "931": 132,
        "932": 206,
        "933": 168,
        "934": 169,
        "935": 242,
        "936": 208,
        "937": 129,
        "938": 25,
        "939": 247,
        "940": 209,
        "941": 36,
        "942": 76,
        "943": 63,
        "944": 218,
        "945": 188,
        "946": 64,
        "947": 164,
        "948": 220,
        "949": 0,
        "950": 1,
        "951": 83,
        "952": 2,
        "953": 209,
        "954": 16,
        "955": 132,
        "956": 145,
        "957": 143,
        "958": 228,
        "959": 70,
        "960": 255,
        "961": 10,
        "962": 166,
        "963": 114,
        "964": 71,
        "965": 86,
        "966": 214,
        "967": 156,
        "968": 97,
        "969": 11,
        "970": 18,
        "971": 110,
        "972": 169,
        "973": 232,
        "974": 30,
        "975": 193,
        "976": 208,
        "977": 22,
        "978": 119,
        "979": 161,
        "980": 121,
        "981": 188,
        "982": 196,
        "983": 116,
        "984": 21,
        "985": 61,
        "986": 6,
        "987": 35,
        "988": 253,
        "989": 45,
        "990": 239,
        "991": 238,
        "992": 94,
        "993": 48,
        "994": 113,
        "995": 21,
        "996": 250,
        "997": 124,
        "998": 193,
        "999": 188,
        "1000": 110,
        "1001": 125,
        "1002": 121,
        "1003": 78,
        "1004": 17,
        "1005": 110,
        "1006": 16,
        "1007": 170,
        "1008": 19,
        "1009": 100,
        "1010": 2,
        "1011": 236,
        "1012": 196,
        "1013": 186,
        "1014": 128,
        "1015": 175,
        "1016": 147,
        "1017": 30,
        "1018": 217,
        "1019": 165,
        "1020": 244,
        "1021": 14,
        "1022": 159,
        "1023": 220,
        "1024": 137,
        "1025": 205,
        "1026": 134,
        "1027": 44,
        "1028": 168,
        "1029": 164,
        "1030": 115,
        "1031": 151,
        "1032": 36,
        "1033": 144,
        "1034": 119,
        "1035": 40,
        "1036": 23,
        "1037": 121,
        "1038": 23,
        "1039": 234,
        "1040": 119,
        "1041": 168,
        "1042": 81,
        "1043": 0,
        "1044": 27,
        "1045": 47,
        "1046": 7,
        "1047": 23,
        "1048": 56,
        "1049": 37,
        "1050": 81,
        "1051": 78,
        "1052": 230,
        "1053": 237,
        "1054": 174,
        "1055": 29,
        "1056": 250,
        "1057": 100,
        "1058": 230,
        "1059": 219,
        "1060": 184,
        "1061": 189,
        "1062": 163,
        "1063": 79,
        "1064": 14,
        "1065": 71,
        "1066": 213,
        "1067": 233,
        "1068": 214,
        "1069": 143,
        "1070": 35,
        "1071": 123,
        "1072": 121,
        "1073": 53,
        "1074": 121,
        "1075": 162,
        "1076": 30,
        "1077": 180,
        "1078": 83,
        "1079": 224,
        "1080": 233,
        "1081": 170,
        "1082": 22,
        "1083": 230,
        "1084": 148,
        "1085": 174,
        "1086": 53,
        "1087": 36,
        "1088": 167,
        "1089": 174,
        "1090": 41,
        "1091": 135,
        "1092": 63,
        "1093": 249,
        "1094": 98,
        "1095": 46,
        "1096": 61,
        "1097": 161,
        "1098": 226,
        "1099": 167,
        "1100": 211,
        "1101": 174,
        "1102": 156,
        "1103": 23,
        "1104": 37,
        "1105": 71,
        "1106": 232,
        "1107": 25,
        "1108": 199,
        "1109": 233,
        "1110": 9,
        "1111": 98,
        "1112": 197,
        "1113": 80,
        "1114": 132,
        "1115": 216,
        "1116": 133,
        "1117": 13,
        "1118": 230,
        "1119": 193,
        "1120": 15,
        "1121": 78,
        "1122": 255,
        "1123": 64,
        "1124": 176,
        "1125": 235,
        "1126": 139,
        "1127": 24,
        "1128": 102,
        "1129": 156,
        "1130": 120,
        "1131": 136,
        "1132": 200,
        "1133": 128,
        "1134": 211,
        "1135": 234,
        "1136": 116,
        "1137": 152,
        "1138": 16,
        "1139": 119,
        "1140": 26,
        "1141": 53,
        "1142": 252,
        "1143": 105,
        "1144": 190,
        "1145": 9,
        "1146": 240,
        "1147": 28,
        "1148": 65,
        "1149": 187,
        "1150": 64,
        "1151": 60,
        "1152": 184,
        "1153": 187,
        "1154": 34,
        "1155": 133,
        "1156": 72,
        "1157": 164,
        "1158": 91,
        "1159": 246,
        "1160": 254,
        "1161": 63,
        "1162": 223,
        "1163": 176,
        "1164": 30,
        "1165": 81,
        "1166": 46,
        "1167": 69,
        "1168": 206,
        "1169": 150,
        "1170": 254,
        "1171": 193,
        "1172": 69,
        "1173": 158,
        "1174": 38,
        "1175": 88,
        "1176": 208,
        "1177": 147,
        "1178": 145,
        "1179": 187,
        "1180": 169,
        "1181": 253,
        "1182": 141,
        "1183": 237,
        "1184": 32,
        "1185": 180,
        "1186": 111,
        "1187": 53,
        "1188": 123,
        "1189": 233,
        "1190": 141,
        "1191": 52,
        "1192": 27,
        "1193": 140,
        "1194": 62,
        "1195": 203,
        "1196": 237,
        "1197": 230,
        "1198": 173,
        "1199": 68,
        "1200": 9,
        "1201": 222,
        "1202": 0,
        "1203": 249,
        "1204": 250,
        "1205": 179,
        "1206": 231,
        "1207": 29,
        "1208": 92,
        "1209": 37,
        "1210": 152,
        "1211": 69,
        "1212": 219,
        "1213": 180,
        "1214": 50,
        "1215": 119,
        "1216": 117,
        "1217": 31,
        "1218": 140,
        "1219": 77,
        "1220": 59,
        "1221": 17,
        "1222": 44,
        "1223": 52,
        "1224": 201,
        "1225": 200,
        "1226": 80,
        "1227": 28,
        "1228": 18,
        "1229": 70,
        "1230": 24,
        "1231": 208,
        "1232": 112,
        "1233": 135,
        "1234": 86,
        "1235": 26,
        "1236": 193,
        "1237": 60,
        "1238": 56,
        "1239": 84,
        "1240": 166,
        "1241": 36,
        "1242": 177,
        "1243": 154,
        "1244": 110,
        "1245": 213,
        "1246": 241,
        "1247": 2,
        "1248": 46,
        "1249": 93,
        "1250": 117,
        "1251": 93,
        "1252": 50,
        "1253": 232,
        "1254": 212,
        "1255": 87,
        "1256": 182,
        "1257": 190,
        "1258": 163,
        "1259": 149,
        "1260": 250,
        "1261": 60,
        "1262": 56,
        "1263": 173,
        "1264": 196,
        "1265": 40,
        "1266": 198,
        "1267": 101,
        "1268": 83,
        "1269": 102,
        "1270": 17,
        "1271": 188,
        "1272": 178,
        "1273": 2,
        "1274": 196,
        "1275": 147,
        "1276": 199,
        "1277": 120,
        "1278": 4,
        "1279": 30,
        "1280": 142,
        "1281": 149,
        "1282": 99,
        "1283": 165,
        "1284": 26,
        "1285": 100,
        "1286": 89,
        "1287": 206,
        "1288": 251,
        "1289": 14,
        "1290": 171,
        "1291": 86,
        "1292": 67,
        "1293": 37,
        "1294": 133,
        "1295": 15,
        "1296": 240,
        "1297": 41,
        "1298": 102,
        "1299": 237,
        "1300": 69,
        "1301": 147,
        "1302": 135,
        "1303": 162,
        "1304": 18,
        "1305": 182,
        "1306": 19,
        "1307": 124,
        "1308": 172,
        "1309": 89,
        "1310": 95,
        "1311": 168,
        "1312": 173,
        "1313": 230,
        "1314": 222,
        "1315": 203,
        "1316": 246,
        "1317": 227,
        "1318": 132,
        "1319": 175,
        "1320": 250,
        "1321": 56,
        "1322": 207,
        "1323": 112,
        "1324": 225,
        "1325": 154,
        "1326": 68,
        "1327": 115,
        "1328": 238,
        "1329": 2,
        "1330": 203,
        "1331": 9,
        "1332": 53,
        "1333": 116,
        "1334": 58,
        "1335": 146,
        "1336": 189,
        "1337": 24,
        "1338": 72,
        "1339": 77,
        "1340": 123,
        "1341": 234,
        "1342": 144,
        "1343": 234,
        "1344": 50,
        "1345": 236,
        "1346": 128,
        "1347": 112,
        "1348": 177,
        "1349": 153,
        "1350": 112,
        "1351": 151,
        "1352": 206,
        "1353": 234,
        "1354": 193,
        "1355": 165,
        "1356": 25,
        "1357": 242,
        "1358": 239,
        "1359": 200,
        "1360": 206,
        "1361": 189,
        "1362": 86,
        "1363": 104,
        "1364": 160,
        "1365": 121,
        "1366": 35,
        "1367": 233,
        "1368": 223,
        "1369": 69,
        "1370": 125,
        "1371": 34,
        "1372": 120,
        "1373": 228,
        "1374": 215,
        "1375": 30,
        "1376": 59,
        "1377": 139,
        "1378": 224,
        "1379": 231,
        "1380": 77,
        "1381": 244,
        "1382": 201,
        "1383": 18,
        "1384": 198,
        "1385": 76,
        "1386": 120,
        "1387": 57,
        "1388": 247,
        "1389": 154,
        "1390": 136,
        "1391": 157,
        "1392": 117,
        "1393": 144,
        "1394": 79,
        "1395": 90,
        "1396": 203,
        "1397": 132,
        "1398": 253,
        "1399": 30,
        "1400": 255,
        "1401": 88,
        "1402": 253,
        "1403": 246,
        "1404": 86,
        "1405": 120,
        "1406": 153,
        "1407": 239,
        "1408": 137,
        "1409": 199,
        "1410": 44,
        "1411": 51,
        "1412": 144,
        "1413": 46,
        "1414": 154,
        "1415": 81,
        "1416": 32,
        "1417": 158,
        "1418": 154,
        "1419": 162,
        "1420": 232,
        "1421": 202,
        "1422": 58,
        "1423": 196,
        "1424": 184,
        "1425": 25,
        "1426": 40,
        "1427": 9,
        "1428": 103,
        "1429": 38,
        "1430": 173,
        "1431": 220,
        "1432": 136,
        "1433": 244,
        "1434": 114,
        "1435": 65,
        "1436": 184,
        "1437": 171,
        "1438": 123,
        "1439": 134,
        "1440": 180,
        "1441": 245,
        "1442": 119,
        "1443": 127,
        "1444": 247,
        "1445": 144,
        "1446": 20,
        "1447": 211,
        "1448": 81,
        "1449": 9,
        "1450": 13,
        "1451": 81,
        "1452": 217,
        "1453": 174,
        "1454": 43,
        "1455": 70,
        "1456": 44,
        "1457": 207,
        "1458": 248,
        "1459": 84,
        "1460": 8,
        "1461": 89,
        "1462": 55,
        "1463": 56,
        "1464": 6,
        "1465": 238,
        "1466": 114,
        "1467": 170,
        "1468": 140,
        "1469": 155,
        "1470": 145,
        "1471": 203,
        "1472": 123,
        "1473": 47,
        "1474": 240,
        "1475": 97,
        "1476": 72,
        "1477": 129,
        "1478": 13,
        "1479": 33,
        "1480": 174,
        "1481": 237,
        "1482": 73,
        "1483": 30,
        "1484": 91,
        "1485": 16,
        "1486": 24,
        "1487": 119,
        "1488": 208,
        "1489": 7,
        "1490": 139,
        "1491": 232,
        "1492": 203,
        "1493": 49,
        "1494": 36,
        "1495": 17,
        "1496": 99,
        "1497": 191,
        "1498": 29,
        "1499": 244,
        "1500": 71,
        "1501": 49,
        "1502": 160,
        "1503": 129,
        "1504": 187,
        "1505": 243,
        "1506": 220,
        "1507": 33,
        "1508": 230,
        "1509": 170,
        "1510": 113,
        "1511": 181,
        "1512": 234,
        "1513": 152,
        "1514": 117,
        "1515": 14,
        "1516": 235,
        "1517": 250,
        "1518": 79,
        "1519": 34,
        "1520": 39,
        "1521": 136,
        "1522": 226,
        "1523": 40,
        "1524": 92,
        "1525": 30,
        "1526": 220,
        "1527": 61,
        "1528": 128,
        "1529": 55,
        "1530": 176,
        "1531": 28,
        "1532": 211,
        "1533": 195,
        "1534": 49,
        "1535": 47,
        "1536": 200,
        "1537": 146,
        "1538": 224,
        "1539": 230,
        "1540": 125,
        "1541": 144,
        "1542": 48,
        "1543": 216,
        "1544": 135,
        "1545": 109,
        "1546": 99,
        "1547": 139,
        "1548": 64,
        "1549": 252,
        "1550": 69,
        "1551": 5,
        "1552": 98,
        "1553": 56,
        "1554": 219,
        "1555": 157,
        "1556": 160,
        "1557": 235,
        "1558": 238,
        "1559": 152,
        "1560": 121,
        "1561": 133,
        "1562": 106,
        "1563": 135,
        "1564": 162,
        "1565": 74,
        "1566": 143,
        "1567": 93,
        "1568": 246,
        "1569": 51,
        "1570": 172,
        "1571": 142,
        "1572": 33,
        "1573": 198,
        "1574": 142,
        "1575": 220,
        "1576": 116,
        "1577": 130,
        "1578": 155,
        "1579": 193,
        "1580": 43,
        "1581": 81,
        "1582": 78,
        "1583": 149,
        "1584": 17,
        "1585": 166,
        "1586": 162,
        "1587": 241,
        "1588": 88,
        "1589": 12,
        "1590": 145,
        "1591": 45,
        "1592": 158,
        "1593": 58,
        "1594": 152,
        "1595": 234,
        "1596": 197,
        "1597": 155,
        "1598": 208,
        "1599": 70,
        "1600": 219,
        "1601": 78,
        "1602": 120,
        "1603": 44,
        "1604": 115,
        "1605": 144,
        "1606": 164,
        "1607": 58,
        "1608": 14,
        "1609": 45,
        "1610": 133,
        "1611": 93,
        "1612": 120,
        "1613": 172,
        "1614": 200,
        "1615": 185,
        "1616": 118,
        "1617": 61,
        "1618": 41,
        "1619": 78,
        "1620": 236,
        "1621": 254,
        "1622": 125,
        "1623": 142,
        "1624": 85,
        "1625": 95,
        "1626": 220,
        "1627": 154,
        "1628": 39,
        "1629": 247,
        "1630": 166,
        "1631": 217,
        "1632": 54,
        "1633": 11,
        "1634": 169,
        "1635": 20,
        "1636": 44,
        "1637": 58,
        "1638": 254,
        "1639": 9,
        "1640": 153,
        "1641": 180,
        "1642": 83,
        "1643": 58,
        "1644": 234,
        "1645": 210,
        "1646": 109,
        "1647": 44,
        "1648": 188,
        "1649": 221,
        "1650": 45,
        "1651": 243,
        "1652": 13,
        "1653": 165,
        "1654": 40,
        "1655": 197,
        "1656": 38,
        "1657": 179,
        "1658": 196,
        "1659": 103,
        "1660": 59,
        "1661": 200,
        "1662": 154,
        "1663": 170,
        "1664": 132,
        "1665": 241,
        "1666": 8,
        "1667": 108,
        "1668": 22,
        "1669": 96,
        "1670": 62,
        "1671": 108,
        "1672": 251,
        "1673": 122,
        "1674": 234,
        "1675": 3,
        "1676": 214,
        "1677": 107,
        "1678": 81,
        "1679": 88,
        "1680": 137,
        "1681": 62,
        "1682": 115,
        "1683": 222,
        "1684": 216,
        "1685": 17,
        "1686": 232,
        "1687": 93,
        "1688": 100,
        "1689": 15,
        "1690": 25,
        "1691": 158,
        "1692": 131,
        "1693": 58,
        "1694": 96,
        "1695": 238,
        "1696": 97,
        "1697": 117,
        "1698": 58,
        "1699": 208,
        "1700": 1,
        "1701": 151,
        "1702": 13,
        "1703": 219,
        "1704": 45,
        "1705": 117,
        "1706": 77,
        "1707": 83,
        "1708": 49,
        "1709": 40,
        "1710": 187,
        "1711": 208,
        "1712": 181,
        "1713": 32,
        "1714": 186,
        "1715": 152,
        "1716": 244,
        "1717": 61,
        "1718": 254,
        "1719": 100,
        "1720": 68,
        "1721": 155,
        "1722": 58,
        "1723": 105,
        "1724": 55,
        "1725": 145,
        "1726": 78,
        "1727": 207,
        "1728": 57,
        "1729": 221,
        "1730": 67,
        "1731": 98,
        "1732": 2,
        "1733": 142,
        "1734": 153,
        "1735": 50,
        "1736": 127,
        "1737": 239,
        "1738": 6,
        "1739": 223,
        "1740": 135,
        "1741": 69,
        "1742": 232,
        "1743": 252,
        "1744": 175,
        "1745": 177,
        "1746": 149,
        "1747": 82,
        "1748": 220,
        "1749": 148,
        "1750": 68,
        "1751": 171,
        "1752": 7,
        "1753": 38,
        "1754": 121,
        "1755": 201,
        "1756": 241,
        "1757": 157,
        "1758": 94,
        "1759": 84,
        "1760": 36,
        "1761": 143,
        "1762": 214,
        "1763": 252,
        "1764": 71,
        "1765": 151,
        "1766": 109,
        "1767": 198,
        "1768": 199,
        "1769": 255,
        "1770": 177,
        "1771": 36,
        "1772": 111,
        "1773": 155,
        "1774": 219,
        "1775": 226,
        "1776": 21,
        "1777": 198,
        "1778": 202,
        "1779": 2,
        "1780": 229,
        "1781": 49,
        "1782": 214,
        "1783": 13,
        "1784": 48,
        "1785": 130,
        "1786": 110,
        "1787": 6,
        "1788": 170,
        "1789": 120,
        "1790": 96,
        "1791": 206,
        "1792": 229,
        "1793": 27,
        "1794": 20,
        "1795": 24,
        "1796": 90,
        "1797": 47,
        "1798": 201,
        "1799": 76,
        "1800": 169,
        "1801": 239,
        "1802": 73,
        "1803": 29,
        "1804": 70,
        "1805": 57,
        "1806": 194,
        "1807": 110,
        "1808": 112,
        "1809": 54,
        "1810": 125,
        "1811": 28,
        "1812": 55,
        "1813": 115,
        "1814": 49,
        "1815": 221,
        "1816": 130,
        "1817": 250,
        "1818": 229,
        "1819": 30,
        "1820": 93,
        "1821": 0,
        "1822": 203,
        "1823": 161,
        "1824": 163,
        "1825": 113,
        "1826": 52,
        "1827": 42,
        "1828": 190,
        "1829": 154,
        "1830": 110,
        "1831": 154,
        "1832": 212,
        "1833": 67,
        "1834": 8,
        "1835": 175,
        "1836": 151,
        "1837": 31,
        "1838": 124,
        "1839": 222,
        "1840": 161,
        "1841": 226,
        "1842": 207,
        "1843": 110,
        "1844": 48,
        "1845": 175,
        "1846": 48,
        "1847": 73,
        "1848": 79,
        "1849": 234,
        "1850": 160,
        "1851": 5,
        "1852": 50,
        "1853": 52,
        "1854": 199,
        "1855": 126,
        "1856": 85,
        "1857": 163,
        "1858": 54,
        "1859": 221,
        "1860": 193,
        "1861": 151,
        "1862": 50,
        "1863": 63,
        "1864": 178,
        "1865": 60,
        "1866": 187,
        "1867": 202,
        "1868": 173,
        "1869": 98,
        "1870": 176,
        "1871": 83,
        "1872": 197,
        "1873": 112,
        "1874": 138,
        "1875": 149,
        "1876": 118,
        "1877": 230,
        "1878": 191,
        "1879": 110,
        "1880": 226,
        "1881": 156,
        "1882": 97,
        "1883": 14,
        "1884": 111,
        "1885": 17,
        "1886": 18,
        "1887": 10,
        "1888": 44,
        "1889": 201,
        "1890": 56,
        "1891": 118,
        "1892": 81,
        "1893": 167,
        "1894": 69,
        "1895": 225,
        "1896": 18,
        "1897": 184,
        "1898": 27,
        "1899": 220,
        "1900": 81,
        "1901": 70,
        "1902": 181,
        "1903": 214,
        "1904": 40,
        "1905": 166,
        "1906": 45,
        "1907": 212,
        "1908": 182,
        "1909": 94,
        "1910": 71,
        "1911": 175,
        "1912": 33,
        "1913": 123,
        "1914": 238,
        "1915": 125,
        "1916": 21,
        "1917": 252,
        "1918": 21,
        "1919": 219,
        "1920": 58,
        "1921": 181,
        "1922": 106,
        "1923": 242,
        "1924": 232,
        "1925": 52,
        "1926": 247,
        "1927": 97,
        "1928": 75,
        "1929": 130,
        "1930": 77,
        "1931": 183,
        "1932": 248,
        "1933": 174,
        "1934": 214,
        "1935": 151,
        "1936": 5,
        "1937": 202,
        "1938": 91,
        "1939": 186,
        "1940": 138,
        "1941": 168,
        "1942": 142,
        "1943": 70,
        "1944": 188,
        "1945": 16,
        "1946": 161,
        "1947": 31,
        "1948": 6,
        "1949": 93,
        "1950": 151,
        "1951": 42,
        "1952": 204,
        "1953": 13,
        "1954": 216,
        "1955": 6,
        "1956": 188,
        "1957": 180,
        "1958": 25,
        "1959": 64,
        "1960": 190,
        "1961": 13,
        "1962": 230,
        "1963": 138,
        "1964": 167,
        "1965": 242,
        "1966": 23,
        "1967": 32,
        "1968": 93,
        "1969": 154,
        "1970": 9,
        "1971": 78,
        "1972": 147,
        "1973": 180,
        "1974": 155,
        "1975": 63,
        "1976": 47,
        "1977": 206,
        "1978": 71,
        "1979": 93,
        "1980": 97,
        "1981": 30,
        "1982": 79,
        "1983": 177,
        "1984": 154,
        "1985": 122,
        "1986": 217,
        "1987": 41,
        "1988": 86,
        "1989": 171,
        "1990": 120,
        "1991": 54,
        "1992": 0,
        "1993": 37,
        "1994": 169,
        "1995": 249,
        "1996": 145,
        "1997": 155,
        "1998": 174,
        "1999": 152,
        "2000": 175,
        "2001": 165,
        "2002": 183,
        "2003": 86,
        "2004": 2,
        "2005": 93,
        "2006": 185,
        "2007": 50,
        "2008": 231,
        "2009": 140,
        "2010": 235,
        "2011": 60,
        "2012": 221,
        "2013": 44,
        "2014": 116,
        "2015": 193,
        "2016": 78,
        "2017": 126,
        "2018": 92,
        "2019": 25,
        "2020": 85,
        "2021": 204,
        "2022": 221,
        "2023": 250,
        "2024": 127,
        "2025": 28,
        "2026": 131,
        "2027": 253,
        "2028": 195,
        "2029": 101,
        "2030": 219,
        "2031": 49,
        "2032": 213,
        "2033": 148,
        "2034": 198,
        "2035": 66,
        "2036": 234,
        "2037": 10,
        "2038": 206,
        "2039": 244,
        "2040": 57,
        "2041": 254,
        "2042": 102,
        "2043": 55,
        "2044": 57,
        "2045": 31,
        "2046": 61,
        "2047": 125,
        "2048": 210,
        "2049": 93,
        "2050": 93,
        "2051": 237,
        "2052": 109,
        "2053": 253,
        "2054": 83,
        "2055": 173,
        "2056": 8,
        "2057": 146,
        "2058": 119,
        "2059": 163,
        "2060": 19,
        "2061": 230,
        "2062": 165,
        "2063": 224,
        "2064": 241,
        "2065": 96,
        "2066": 166,
        "2067": 96,
        "2068": 250,
        "2069": 96,
        "2070": 12,
        "2071": 189,
        "2072": 168,
        "2073": 158,
        "2074": 91,
        "2075": 113,
        "2076": 119,
        "2077": 63,
        "2078": 151,
        "2079": 238,
        "2080": 233,
        "2081": 100,
        "2082": 43,
        "2083": 37,
        "2084": 136,
        "2085": 226,
        "2086": 128,
        "2087": 46,
        "2088": 182,
        "2089": 105,
        "2090": 57,
        "2091": 117,
        "2092": 178,
        "2093": 130,
        "2094": 133,
        "2095": 139,
        "2096": 9,
        "2097": 126,
        "2098": 88,
        "2099": 174,
        "2100": 121,
        "2101": 23,
        "2102": 184,
        "2103": 221,
        "2104": 227,
        "2105": 194,
        "2106": 146,
        "2107": 174,
        "2108": 121,
        "2109": 234,
        "2110": 28,
        "2111": 26,
        "2112": 89,
        "2113": 10,
        "2114": 149,
        "2115": 173,
        "2116": 161,
        "2117": 162,
        "2118": 129,
        "2119": 139,
        "2120": 67,
        "2121": 254,
        "2122": 132,
        "2123": 251,
        "2124": 121,
        "2125": 177,
        "2126": 22,
        "2127": 58,
        "2128": 10,
        "2129": 168,
        "2130": 3,
        "2131": 43,
        "2132": 34,
        "2133": 197,
        "2134": 246,
        "2135": 132,
        "2136": 135,
        "2137": 183,
        "2138": 221,
        "2139": 184,
        "2140": 141,
        "2141": 139,
        "2142": 32,
        "2143": 69,
        "2144": 195,
        "2145": 48,
        "2146": 152,
        "2147": 54,
        "2148": 122,
        "2149": 145,
        "2150": 158,
        "2151": 21,
        "2152": 110,
        "2153": 251,
        "2154": 28,
        "2155": 238,
        "2156": 135,
        "2157": 164,
        "2158": 39,
        "2159": 133,
        "2160": 152,
        "2161": 85,
        "2162": 82,
        "2163": 77,
        "2164": 117,
        "2165": 140,
        "2166": 170,
        "2167": 159,
        "2168": 246,
        "2169": 7,
        "2170": 180,
        "2171": 122,
        "2172": 178,
        "2173": 39,
        "2174": 216,
        "2175": 142,
        "2176": 91,
        "2177": 203,
        "2178": 242,
        "2179": 18,
        "2180": 133,
        "2181": 118,
        "2182": 139,
        "2183": 162,
        "2184": 77,
        "2185": 171,
        "2186": 5,
        "2187": 138,
        "2188": 163,
        "2189": 8,
        "2190": 149,
        "2191": 146,
        "2192": 63,
        "2193": 61,
        "2194": 44,
        "2195": 149,
        "2196": 247,
        "2197": 37,
        "2198": 219,
        "2199": 186,
        "2200": 129,
        "2201": 196,
        "2202": 201,
        "2203": 182,
        "2204": 117,
        "2205": 107,
        "2206": 237,
        "2207": 233,
        "2208": 211,
        "2209": 115,
        "2210": 115,
        "2211": 13,
        "2212": 143,
        "2213": 93,
        "2214": 159,
        "2215": 12,
        "2216": 212,
        "2217": 51,
        "2218": 57,
        "2219": 128,
        "2220": 80,
        "2221": 27,
        "2222": 77,
        "2223": 35,
        "2224": 22,
        "2225": 89,
        "2226": 30,
        "2227": 63,
        "2228": 137,
        "2229": 87,
        "2230": 6,
        "2231": 142,
        "2232": 70,
        "2233": 196,
        "2234": 108,
        "2235": 123,
        "2236": 226,
        "2237": 115,
        "2238": 129,
        "2239": 88,
        "2240": 108,
        "2241": 189,
        "2242": 1,
        "2243": 229,
        "2244": 192,
        "2245": 58,
        "2246": 207,
        "2247": 118,
        "2248": 63,
        "2249": 168,
        "2250": 231,
        "2251": 71,
        "2252": 57,
        "2253": 67,
        "2254": 40,
        "2255": 52,
        "2256": 186,
        "2257": 182,
        "2258": 164,
        "2259": 122,
        "2260": 238,
        "2261": 16,
        "2262": 189,
        "2263": 80,
        "2264": 46,
        "2265": 251,
        "2266": 58,
        "2267": 80,
        "2268": 87,
        "2269": 174,
        "2270": 88,
        "2271": 91,
        "2272": 177,
        "2273": 235,
        "2274": 23,
        "2275": 168,
        "2276": 164,
        "2277": 129,
        "2278": 209,
        "2279": 136,
        "2280": 205,
        "2281": 103,
        "2282": 232,
        "2283": 157,
        "2284": 183,
        "2285": 243,
        "2286": 32,
        "2287": 194,
        "2288": 1,
        "2289": 162,
        "2290": 6,
        "2291": 34,
        "2292": 220,
        "2293": 10,
        "2294": 167,
        "2295": 235,
        "2296": 114,
        "2297": 40,
        "2298": 195,
        "2299": 152,
        "2300": 179,
        "2301": 223,
        "2302": 192,
        "2303": 162,
        "2304": 147,
        "2305": 9,
        "2306": 64,
        "2307": 10,
        "2308": 86,
        "2309": 128,
        "2310": 84,
        "2311": 56,
        "2312": 25,
        "2313": 39,
        "2314": 152,
        "2315": 57,
        "2316": 76,
        "2317": 187,
        "2318": 121,
        "2319": 227,
        "2320": 126,
        "2321": 229,
        "2322": 84,
        "2323": 168,
        "2324": 194,
        "2325": 80,
        "2326": 245,
        "2327": 246,
        "2328": 26,
        "2329": 186,
        "2330": 251,
        "2331": 170,
        "2332": 198,
        "2333": 3,
        "2334": 141,
        "2335": 233,
        "2336": 69,
        "2337": 247,
        "2338": 20,
        "2339": 82,
        "2340": 2,
        "2341": 20,
        "2342": 234,
        "2343": 143,
        "2344": 182,
        "2345": 220,
        "2346": 85,
        "2347": 76,
        "2348": 192,
        "2349": 204,
        "2350": 242,
        "2351": 117,
        "2352": 169,
        "2353": 229,
        "2354": 79,
        "2355": 242,
        "2356": 102,
        "2357": 135,
        "2358": 226,
        "2359": 89,
        "2360": 167,
        "2361": 145,
        "2362": 172,
        "2363": 33,
        "2364": 101,
        "2365": 121,
        "2366": 8,
        "2367": 132,
        "2368": 149,
        "2369": 96,
        "2370": 160,
        "2371": 87,
        "2372": 122,
        "2373": 108,
        "2374": 122,
        "2375": 30,
        "2376": 58,
        "2377": 212,
        "2378": 88,
        "2379": 120,
        "2380": 151,
        "2381": 73,
        "2382": 217,
        "2383": 95,
        "2384": 30,
        "2385": 128,
        "2386": 236,
        "2387": 62,
        "2388": 41,
        "2389": 33,
        "2390": 199,
        "2391": 35,
        "2392": 236,
        "2393": 141,
        "2394": 202,
        "2395": 195,
        "2396": 228,
        "2397": 79,
        "2398": 34,
        "2399": 183,
        "2400": 95,
        "2401": 210,
        "2402": 57,
        "2403": 238,
        "2404": 27,
        "2405": 101,
        "2406": 124,
        "2407": 139,
        "2408": 207,
        "2409": 202,
        "2410": 170,
        "2411": 124,
        "2412": 113,
        "2413": 11,
        "2414": 205,
        "2415": 45,
        "2416": 65,
        "2417": 128,
        "2418": 8,
        "2419": 219,
        "2420": 180,
        "2421": 200,
        "2422": 139,
        "2423": 80,
        "2424": 228,
        "2425": 254,
        "2426": 173,
        "2427": 220,
        "2428": 155,
        "2429": 243,
        "2430": 188,
        "2431": 179,
        "2432": 237,
        "2433": 19,
        "2434": 46,
        "2435": 187,
        "2436": 190,
        "2437": 17,
        "2438": 173,
        "2439": 43,
        "2440": 237,
        "2441": 58,
        "2442": 73,
        "2443": 249,
        "2444": 168,
        "2445": 176,
        "2446": 188,
        "2447": 172,
        "2448": 113,
        "2449": 200,
        "2450": 189,
        "2451": 211,
        "2452": 116,
        "2453": 167,
        "2454": 107,
        "2455": 103,
        "2456": 118,
        "2457": 16,
        "2458": 172,
        "2459": 115,
        "2460": 45,
        "2461": 5,
        "2462": 171,
        "2463": 47,
        "2464": 14,
        "2465": 217,
        "2466": 40,
        "2467": 148,
        "2468": 48,
        "2469": 27,
        "2470": 221,
        "2471": 115,
        "2472": 220,
        "2473": 138,
        "2474": 229,
        "2475": 245,
        "2476": 19,
        "2477": 223,
        "2478": 48,
        "2479": 20,
        "2480": 63,
        "2481": 249,
        "2482": 168,
        "2483": 136,
        "2484": 175,
        "2485": 41,
        "2486": 229,
        "2487": 129,
        "2488": 118,
        "2489": 230,
        "2490": 205,
        "2491": 89,
        "2492": 108,
        "2493": 27,
        "2494": 88,
        "2495": 95,
        "2496": 50,
        "2497": 144,
        "2498": 83,
        "2499": 35,
        "2500": 119,
        "2501": 40,
        "2502": 75,
        "2503": 153,
        "2504": 159,
        "2505": 216,
        "2506": 213,
        "2507": 61,
        "2508": 150,
        "2509": 211,
        "2510": 56,
        "2511": 67,
        "2512": 218,
        "2513": 33,
        "2514": 236,
        "2515": 2,
        "2516": 152,
        "2517": 251,
        "2518": 57,
        "2519": 107,
        "2520": 242,
        "2521": 220,
        "2522": 128,
        "2523": 174,
        "2524": 230,
        "2525": 0,
        "2526": 224,
        "2527": 45,
        "2528": 34,
        "2529": 152,
        "2530": 181,
        "2531": 224,
        "2532": 134,
        "2533": 109,
        "2534": 255,
        "2535": 236,
        "2536": 92,
        "2537": 36,
        "2538": 126,
        "2539": 246,
        "2540": 98,
        "2541": 232,
        "2542": 21,
        "2543": 134,
        "2544": 140,
        "2545": 123,
        "2546": 241,
        "2547": 35,
        "2548": 136,
        "2549": 131,
        "2550": 51,
        "2551": 3,
        "2552": 37,
        "2553": 144,
        "2554": 33,
        "2555": 213,
        "2556": 104,
        "2557": 187,
        "2558": 131,
        "2559": 193,
        "2560": 248,
        "2561": 21,
        "2562": 48,
        "2563": 218,
        "2564": 78,
        "2565": 228,
        "2566": 84,
        "2567": 49,
        "2568": 169,
        "2569": 196,
        "2570": 170,
        "2571": 1,
        "2572": 150,
        "2573": 78,
        "2574": 103,
        "2575": 238,
        "2576": 106,
        "2577": 213,
        "2578": 34,
        "2579": 52,
        "2580": 148,
        "2581": 138,
        "2582": 239,
        "2583": 11,
        "2584": 113,
        "2585": 112,
        "2586": 194,
        "2587": 141,
        "2588": 244,
        "2589": 0,
        "2590": 142,
        "2591": 36,
        "2592": 88,
        "2593": 255,
        "2594": 179,
        "2595": 186,
        "2596": 125,
        "2597": 185,
        "2598": 34,
        "2599": 178,
        "2600": 31,
        "2601": 240,
        "2602": 12,
        "2603": 129,
        "2604": 0,
        "2605": 213,
        "2606": 144,
        "2607": 98,
        "2608": 85,
        "2609": 76,
        "2610": 251,
        "2611": 71,
        "2612": 5,
        "2613": 8,
        "2614": 111,
        "2615": 140,
        "2616": 78,
        "2617": 7,
        "2618": 197,
        "2619": 68,
        "2620": 201,
        "2621": 118,
        "2622": 133,
        "2623": 79,
        "2624": 200,
        "2625": 168,
        "2626": 247,
        "2627": 80,
        "2628": 205,
        "2629": 198,
        "2630": 31,
        "2631": 1,
        "2632": 240,
        "2633": 125,
        "2634": 29,
        "2635": 175,
        "2636": 168,
        "2637": 65,
        "2638": 213,
        "2639": 139,
        "2640": 255,
        "2641": 169,
        "2642": 130,
        "2643": 41,
        "2644": 229,
        "2645": 201,
        "2646": 220,
        "2647": 82,
        "2648": 198,
        "2649": 37,
        "2650": 253,
        "2651": 1,
        "2652": 20,
        "2653": 157,
        "2654": 236,
        "2655": 52,
        "2656": 227,
        "2657": 171,
        "2658": 242,
        "2659": 130,
        "2660": 115,
        "2661": 221,
        "2662": 77,
        "2663": 152,
        "2664": 170,
        "2665": 47,
        "2666": 94,
        "2667": 207,
        "2668": 112,
        "2669": 58,
        "2670": 85,
        "2671": 82,
        "2672": 233,
        "2673": 35,
        "2674": 62,
        "2675": 19,
        "2676": 59,
        "2677": 151,
        "2678": 88,
        "2679": 175,
        "2680": 91,
        "2681": 13,
        "2682": 86,
        "2683": 46,
        "2684": 238,
        "2685": 20,
        "2686": 146,
        "2687": 156,
        "2688": 176,
        "2689": 211,
        "2690": 93,
        "2691": 181,
        "2692": 179,
        "2693": 27,
        "2694": 226,
        "2695": 212,
        "2696": 161,
        "2697": 177,
        "2698": 158,
        "2699": 235,
        "2700": 39,
        "2701": 35,
        "2702": 19,
        "2703": 253,
        "2704": 51,
        "2705": 7,
        "2706": 253,
        "2707": 224,
        "2708": 147,
        "2709": 159,
        "2710": 237,
        "2711": 36,
        "2712": 238,
        "2713": 122,
        "2714": 196,
        "2715": 141,
        "2716": 15,
        "2717": 14,
        "2718": 105,
        "2719": 154,
        "2720": 228,
        "2721": 101,
        "2722": 191,
        "2723": 155,
        "2724": 212,
        "2725": 35,
        "2726": 77,
        "2727": 70,
        "2728": 27,
        "2729": 138,
        "2730": 2,
        "2731": 170,
        "2732": 38,
        "2733": 113,
        "2734": 65,
        "2735": 139,
        "2736": 143,
        "2737": 252,
        "2738": 242,
        "2739": 200,
        "2740": 145,
        "2741": 239,
        "2742": 202,
        "2743": 86,
        "2744": 197,
        "2745": 91,
        "2746": 12,
        "2747": 34,
        "2748": 118,
        "2749": 48,
        "2750": 25,
        "2751": 115,
        "2752": 36,
        "2753": 201,
        "2754": 183,
        "2755": 10,
        "2756": 57,
        "2757": 194,
        "2758": 252,
        "2759": 71,
        "2760": 189,
        "2761": 28,
        "2762": 81,
        "2763": 136,
        "2764": 53,
        "2765": 27,
        "2766": 152,
        "2767": 10,
        "2768": 212,
        "2769": 34,
        "2770": 155,
        "2771": 98,
        "2772": 176,
        "2773": 173,
        "2774": 61,
        "2775": 140,
        "2776": 249,
        "2777": 247,
        "2778": 79,
        "2779": 18,
        "2780": 146,
        "2781": 138,
        "2782": 250,
        "2783": 163,
        "2784": 75,
        "2785": 160,
        "2786": 91,
        "2787": 53,
        "2788": 135,
        "2789": 89,
        "2790": 45,
        "2791": 98,
        "2792": 46,
        "2793": 237,
        "2794": 186,
        "2795": 251,
        "2796": 85,
        "2797": 224,
        "2798": 78,
        "2799": 215,
        "2800": 245,
        "2801": 200,
        "2802": 218,
        "2803": 99,
        "2804": 17,
        "2805": 214,
        "2806": 86,
        "2807": 105,
        "2808": 14,
        "2809": 108,
        "2810": 220,
        "2811": 126,
        "2812": 222,
        "2813": 131,
        "2814": 94,
        "2815": 202,
        "2816": 194,
        "2817": 252,
        "2818": 168,
        "2819": 223,
        "2820": 212,
        "2821": 223,
        "2822": 196,
        "2823": 59,
        "2824": 55,
        "2825": 253,
        "2826": 74,
        "2827": 40,
        "2828": 150,
        "2829": 211,
        "2830": 163,
        "2831": 25,
        "2832": 189,
        "2833": 229,
        "2834": 185,
        "2835": 1,
        "2836": 208,
        "2837": 18,
        "2838": 44,
        "2839": 69,
        "2840": 96,
        "2841": 132,
        "2842": 236,
        "2843": 106,
        "2844": 69,
        "2845": 149,
        "2846": 40,
        "2847": 8,
        "2848": 110,
        "2849": 217,
        "2850": 144,
        "2851": 81,
        "2852": 39,
        "2853": 199,
        "2854": 171,
        "2855": 129,
        "2856": 213,
        "2857": 45,
        "2858": 156,
        "2859": 175,
        "2860": 1,
        "2861": 129,
        "2862": 61,
        "2863": 199,
        "2864": 72,
        "2865": 45,
        "2866": 25,
        "2867": 163,
        "2868": 42,
        "2869": 181,
        "2870": 72,
        "2871": 226,
        "2872": 67,
        "2873": 138,
        "2874": 81,
        "2875": 223,
        "2876": 233,
        "2877": 243,
        "2878": 63,
        "2879": 113,
        "2880": 56,
        "2881": 129,
        "2882": 93,
        "2883": 214,
        "2884": 140,
        "2885": 96,
        "2886": 90,
        "2887": 91,
        "2888": 175,
        "2889": 146,
        "2890": 55,
        "2891": 89,
        "2892": 57,
        "2893": 95,
        "2894": 164,
        "2895": 135,
        "2896": 104,
        "2897": 5,
        "2898": 80,
        "2899": 165,
        "2900": 126,
        "2901": 45,
        "2902": 214,
        "2903": 167,
        "2904": 147,
        "2905": 245,
        "2906": 91,
        "2907": 73,
        "2908": 246,
        "2909": 144,
        "2910": 100,
        "2911": 63,
        "2912": 103,
        "2913": 208,
        "2914": 165,
        "2915": 243,
        "2916": 71,
        "2917": 171,
        "2918": 180,
        "2919": 20,
        "2920": 194,
        "2921": 29,
        "2922": 222,
        "2923": 110,
        "2924": 31,
        "2925": 28,
        "2926": 195,
        "2927": 159,
        "2928": 183,
        "2929": 119,
        "2930": 239,
        "2931": 47,
        "2932": 73,
        "2933": 76,
        "2934": 215,
        "2935": 85,
        "2936": 46,
        "2937": 91,
        "2938": 240,
        "2939": 194,
        "2940": 162,
        "2941": 153,
        "2942": 51,
        "2943": 34,
        "2944": 34,
        "2945": 222,
        "2946": 153,
        "2947": 108,
        "2948": 84,
        "2949": 54,
        "2950": 29,
        "2951": 241,
        "2952": 17,
        "2953": 129,
        "2954": 63,
        "2955": 24,
        "2956": 71,
        "2957": 79,
        "2958": 18,
        "2959": 159,
        "2960": 180,
        "2961": 178,
        "2962": 80,
        "2963": 25,
        "2964": 81,
        "2965": 14,
        "2966": 115,
        "2967": 67,
        "2968": 153,
        "2969": 7,
        "2970": 239,
        "2971": 135,
        "2972": 91,
        "2973": 132,
        "2974": 147,
        "2975": 20,
        "2976": 109,
        "2977": 169,
        "2978": 82,
        "2979": 134,
        "2980": 29,
        "2981": 252,
        "2982": 239,
        "2983": 142,
        "2984": 197,
        "2985": 54,
        "2986": 139,
        "2987": 93,
        "2988": 132,
        "2989": 203,
        "2990": 194,
        "2991": 252,
        "2992": 174,
        "2993": 129,
        "2994": 104,
        "2995": 123,
        "2996": 238,
        "2997": 130,
        "2998": 72,
        "2999": 96,
        "3000": 8,
        "3001": 192,
        "3002": 184,
        "3003": 231,
        "3004": 71,
        "3005": 113,
        "3006": 59,
        "3007": 233,
        "3008": 127,
        "3009": 190,
        "3010": 231,
        "3011": 183,
        "3012": 136,
        "3013": 7,
        "3014": 109,
        "3015": 157,
        "3016": 71,
        "3017": 58,
        "3018": 134,
        "3019": 236,
        "3020": 179,
        "3021": 230,
        "3022": 16,
        "3023": 22,
        "3024": 87,
        "3025": 83,
        "3026": 173,
        "3027": 24,
        "3028": 103,
        "3029": 137,
        "3030": 81,
        "3031": 19,
        "3032": 26,
        "3033": 62,
        "3034": 238,
        "3035": 103,
        "3036": 68,
        "3037": 171,
        "3038": 189,
        "3039": 201,
        "3040": 68,
        "3041": 190,
        "3042": 36,
        "3043": 132,
        "3044": 230,
        "3045": 114,
        "3046": 197,
        "3047": 249,
        "3048": 155,
        "3049": 132,
        "3050": 208,
        "3051": 181,
        "3052": 30,
        "3053": 3,
        "3054": 200,
        "3055": 142,
        "3056": 100,
        "3057": 240,
        "3058": 92,
        "3059": 228,
        "3060": 161,
        "3061": 196,
        "3062": 160,
        "3063": 151,
        "3064": 22,
        "3065": 235,
        "3066": 76,
        "3067": 178,
        "3068": 76,
        "3069": 30,
        "3070": 208,
        "3071": 98,
        "3072": 167,
        "3073": 128,
        "3074": 171,
        "3075": 79,
        "3076": 231,
        "3077": 199,
        "3078": 24,
        "3079": 247,
        "3080": 203,
        "3081": 63,
        "3082": 172,
        "3083": 89,
        "3084": 41,
        "3085": 75,
        "3086": 174,
        "3087": 1,
        "3088": 81,
        "3089": 255,
        "3090": 211,
        "3091": 66,
        "3092": 11,
        "3093": 243,
        "3094": 118,
        "3095": 213,
        "3096": 94,
        "3097": 226,
        "3098": 107,
        "3099": 251,
        "3100": 151,
        "3101": 21,
        "3102": 116,
        "3103": 246,
        "3104": 109,
        "3105": 208,
        "3106": 39,
        "3107": 189,
        "3108": 111,
        "3109": 108,
        "3110": 212,
        "3111": 17,
        "3112": 182,
        "3113": 162,
        "3114": 224,
        "3115": 48,
        "3116": 66,
        "3117": 40,
        "3118": 62,
        "3119": 50,
        "3120": 150,
        "3121": 174,
        "3122": 37,
        "3123": 84,
        "3124": 16,
        "3125": 208,
        "3126": 139,
        "3127": 70,
        "3128": 245,
        "3129": 29,
        "3130": 139,
        "3131": 142,
        "3132": 193,
        "3133": 113,
        "3134": 110,
        "3135": 148,
        "3136": 100,
        "3137": 56,
        "3138": 161,
        "3139": 42,
        "3140": 234,
        "3141": 112,
        "3142": 251,
        "3143": 122,
        "3144": 203,
        "3145": 155,
        "3146": 32,
        "3147": 198,
        "3148": 183,
        "3149": 13,
        "3150": 230,
        "3151": 42,
        "3152": 94,
        "3153": 120,
        "3154": 80,
        "3155": 213,
        "3156": 241,
        "3157": 74,
        "3158": 9,
        "3159": 114,
        "3160": 202,
        "3161": 224,
        "3162": 187,
        "3163": 175,
        "3164": 171,
        "3165": 134,
        "3166": 21,
        "3167": 190,
        "3168": 164,
        "3169": 184,
        "3170": 182,
        "3171": 128,
        "3172": 21,
        "3173": 133,
        "3174": 251,
        "3175": 235,
        "3176": 97,
        "3177": 0,
        "3178": 156,
        "3179": 191,
        "3180": 214,
        "3181": 208,
        "3182": 85,
        "3183": 131,
        "3184": 83,
        "3185": 220,
        "3186": 157,
        "3187": 6,
        "3188": 35,
        "3189": 129,
        "3190": 38,
        "3191": 189,
        "3192": 153,
        "3193": 175,
        "3194": 203,
        "3195": 70,
        "3196": 218,
        "3197": 114,
        "3198": 53,
        "3199": 51,
        "3200": 4,
        "3201": 55,
        "3202": 28,
        "3203": 127,
        "3204": 17,
        "3205": 50,
        "3206": 211,
        "3207": 55,
        "3208": 146,
        "3209": 29,
        "3210": 165,
        "3211": 212,
        "3212": 168,
        "3213": 80,
        "3214": 33,
        "3215": 143,
        "3216": 105,
        "3217": 94,
        "3218": 144,
        "3219": 132,
        "3220": 98,
        "3221": 186,
        "3222": 113,
        "3223": 68,
        "3224": 101,
        "3225": 28,
        "3226": 60,
        "3227": 113,
        "3228": 247,
        "3229": 38,
        "3230": 59,
        "3231": 26,
        "3232": 215,
        "3233": 198,
        "3234": 47,
        "3235": 233,
        "3236": 1,
        "3237": 149,
        "3238": 38,
        "3239": 72,
        "3240": 209,
        "3241": 64,
        "3242": 72,
        "3243": 213,
        "3244": 72,
        "3245": 229,
        "3246": 98,
        "3247": 144,
        "3248": 19,
        "3249": 238,
        "3250": 117,
        "3251": 29,
        "3252": 201,
        "3253": 204,
        "3254": 60,
        "3255": 104,
        "3256": 238,
        "3257": 94,
        "3258": 95,
        "3259": 228,
        "3260": 233,
        "3261": 204,
        "3262": 208,
        "3263": 219,
        "3264": 42,
        "3265": 234,
        "3266": 162,
        "3267": 235,
        "3268": 46,
        "3269": 87,
        "3270": 64,
        "3271": 141,
        "3272": 53,
        "3273": 217,
        "3274": 222,
        "3275": 69,
        "3276": 101,
        "3277": 244,
        "3278": 213,
        "3279": 171,
        "3280": 50,
        "3281": 70,
        "3282": 10,
        "3283": 217,
        "3284": 117,
        "3285": 65,
        "3286": 104,
        "3287": 252,
        "3288": 161,
        "3289": 174,
        "3290": 20,
        "3291": 206,
        "3292": 17,
        "3293": 74,
        "3294": 161,
        "3295": 63,
        "3296": 247,
        "3297": 70,
        "3298": 98,
        "3299": 99,
        "3300": 194,
        "3301": 21,
        "3302": 195,
        "3303": 22,
        "3304": 204,
        "3305": 255,
        "3306": 122,
        "3307": 29,
        "3308": 196,
        "3309": 163,
        "3310": 203,
        "3311": 188,
        "3312": 45,
        "3313": 149,
        "3314": 2,
        "3315": 140,
        "3316": 105,
        "3317": 215,
        "3318": 77,
        "3319": 143,
        "3320": 239,
        "3321": 72,
        "3322": 128,
        "3323": 45,
        "3324": 220,
        "3325": 106,
        "3326": 174,
        "3327": 242,
        "3328": 53,
        "3329": 42,
        "3330": 106,
        "3331": 20,
        "3332": 218,
        "3333": 229,
        "3334": 223,
        "3335": 169,
        "3336": 162,
        "3337": 68,
        "3338": 165,
        "3339": 44,
        "3340": 103,
        "3341": 4,
        "3342": 133,
        "3343": 18,
        "3344": 95,
        "3345": 130,
        "3346": 109,
        "3347": 241,
        "3348": 0,
        "3349": 72,
        "3350": 242,
        "3351": 78,
        "3352": 249,
        "3353": 68,
        "3354": 141,
        "3355": 94,
        "3356": 236,
        "3357": 34,
        "3358": 167,
        "3359": 163,
        "3360": 13,
        "3361": 87,
        "3362": 21,
        "3363": 160,
        "3364": 4,
        "3365": 18,
        "3366": 30,
        "3367": 208,
        "3368": 27,
        "3369": 43,
        "3370": 13,
        "3371": 86,
        "3372": 252,
        "3373": 238,
        "3374": 159,
        "3375": 147,
        "3376": 152,
        "3377": 249,
        "3378": 128,
        "3379": 84,
        "3380": 29,
        "3381": 0,
        "3382": 98,
        "3383": 24,
        "3384": 244,
        "3385": 71,
        "3386": 84,
        "3387": 33,
        "3388": 43,
        "3389": 143,
        "3390": 196,
        "3391": 181,
        "3392": 126,
        "3393": 213,
        "3394": 251,
        "3395": 128,
        "3396": 145,
        "3397": 234,
        "3398": 56,
        "3399": 228,
        "3400": 150,
        "3401": 50,
        "3402": 68,
        "3403": 39,
        "3404": 0,
        "3405": 232,
        "3406": 93,
        "3407": 76,
        "3408": 10,
        "3409": 227,
        "3410": 68,
        "3411": 221,
        "3412": 49,
        "3413": 167,
        "3414": 59,
        "3415": 189,
        "3416": 11,
        "3417": 216,
        "3418": 91,
        "3419": 23,
        "3420": 219,
        "3421": 141,
        "3422": 5,
        "3423": 55,
        "3424": 148,
        "3425": 13,
        "3426": 208,
        "3427": 176,
        "3428": 40,
        "3429": 50,
        "3430": 22,
        "3431": 164,
        "3432": 65,
        "3433": 7,
        "3434": 124,
        "3435": 188,
        "3436": 84,
        "3437": 78,
        "3438": 52,
        "3439": 52,
        "3440": 30,
        "3441": 255,
        "3442": 151,
        "3443": 24,
        "3444": 149,
        "3445": 194,
        "3446": 243,
        "3447": 66,
        "3448": 77,
        "3449": 198,
        "3450": 242,
        "3451": 130,
        "3452": 60,
        "3453": 110,
        "3454": 68,
        "3455": 126,
        "3456": 70,
        "3457": 8,
        "3458": 126,
        "3459": 164,
        "3460": 60,
        "3461": 237,
        "3462": 127,
        "3463": 69,
        "3464": 98,
        "3465": 255,
        "3466": 87,
        "3467": 179,
        "3468": 161,
        "3469": 250,
        "3470": 202,
        "3471": 255,
        "3472": 204,
        "3473": 78,
        "3474": 166,
        "3475": 25,
        "3476": 38,
        "3477": 215,
        "3478": 135,
        "3479": 55,
        "3480": 58,
        "3481": 74,
        "3482": 236,
        "3483": 129,
        "3484": 212,
        "3485": 240,
        "3486": 3,
        "3487": 45,
        "3488": 174,
        "3489": 107,
        "3490": 56,
        "3491": 49,
        "3492": 127,
        "3493": 72,
        "3494": 21,
        "3495": 71,
        "3496": 170,
        "3497": 148,
        "3498": 45,
        "3499": 110,
        "3500": 180,
        "3501": 168,
        "3502": 195,
        "3503": 51,
        "3504": 158,
        "3505": 134,
        "3506": 22,
        "3507": 231,
        "3508": 133,
        "3509": 133,
        "3510": 236,
        "3511": 89,
        "3512": 131,
        "3513": 190,
        "3514": 102,
        "3515": 107,
        "3516": 129,
        "3517": 73,
        "3518": 89,
        "3519": 208,
        "3520": 225,
        "3521": 224,
        "3522": 109,
        "3523": 95,
        "3524": 59,
        "3525": 156,
        "3526": 125,
        "3527": 166,
        "3528": 222,
        "3529": 124,
        "3530": 154,
        "3531": 192,
        "3532": 178,
        "3533": 185,
        "3534": 151,
        "3535": 135,
        "3536": 106,
        "3537": 164,
        "3538": 237,
        "3539": 93,
        "3540": 53,
        "3541": 7,
        "3542": 89,
        "3543": 194,
        "3544": 210,
        "3545": 22,
        "3546": 143,
        "3547": 71,
        "3548": 74,
        "3549": 177,
        "3550": 95,
        "3551": 52,
        "3552": 60,
        "3553": 196,
        "3554": 239,
        "3555": 109,
        "3556": 14,
        "3557": 57,
        "3558": 223,
        "3559": 121,
        "3560": 134,
        "3561": 191,
        "3562": 80,
        "3563": 235,
        "3564": 242,
        "3565": 173,
        "3566": 209,
        "3567": 13,
        "3568": 32,
        "3569": 33,
        "3570": 165,
        "3571": 233,
        "3572": 152,
        "3573": 177,
        "3574": 186,
        "3575": 105,
        "3576": 217,
        "3577": 83,
        "3578": 162,
        "3579": 234,
        "3580": 130,
        "3581": 198,
        "3582": 219,
        "3583": 246,
        "3584": 154,
        "3585": 199,
        "3586": 240,
        "3587": 73,
        "3588": 128,
        "3589": 3,
        "3590": 104,
        "3591": 168,
        "3592": 17,
        "3593": 115,
        "3594": 125,
        "3595": 250,
        "3596": 146,
        "3597": 8,
        "3598": 28,
        "3599": 250,
        "3600": 86,
        "3601": 206,
        "3602": 142,
        "3603": 242,
        "3604": 11,
        "3605": 153,
        "3606": 215,
        "3607": 233,
        "3608": 236,
        "3609": 166,
        "3610": 35,
        "3611": 93,
        "3612": 162,
        "3613": 246,
        "3614": 67,
        "3615": 95,
        "3616": 166,
        "3617": 36,
        "3618": 80,
        "3619": 10,
        "3620": 118,
        "3621": 87,
        "3622": 190,
        "3623": 55,
        "3624": 245,
        "3625": 1,
        "3626": 248,
        "3627": 140,
        "3628": 83,
        "3629": 210,
        "3630": 139,
        "3631": 169,
        "3632": 242,
        "3633": 136,
        "3634": 2,
        "3635": 167,
        "3636": 12,
        "3637": 152,
        "3638": 101,
        "3639": 4,
        "3640": 248,
        "3641": 164,
        "3642": 136,
        "3643": 73,
        "3644": 99,
        "3645": 49,
        "3646": 130,
        "3647": 147,
        "3648": 240,
        "3649": 245,
        "3650": 185,
        "3651": 11,
        "3652": 21,
        "3653": 121,
        "3654": 127,
        "3655": 211,
        "3656": 156,
        "3657": 197,
        "3658": 160,
        "3659": 248,
        "3660": 249,
        "3661": 153,
        "3662": 179,
        "3663": 40,
        "3664": 7,
        "3665": 16,
        "3666": 203,
        "3667": 4,
        "3668": 83,
        "3669": 223,
        "3670": 82,
        "3671": 47,
        "3672": 46,
        "3673": 139,
        "3674": 17,
        "3675": 166,
        "3676": 196,
        "3677": 99,
        "3678": 205,
        "3679": 104,
        "3680": 96,
        "3681": 225,
        "3682": 14,
        "3683": 76,
        "3684": 221,
        "3685": 91,
        "3686": 116,
        "3687": 185,
        "3688": 67,
        "3689": 10,
        "3690": 213,
        "3691": 35,
        "3692": 174,
        "3693": 196,
        "3694": 22,
        "3695": 204,
        "3696": 203,
        "3697": 34,
        "3698": 20,
        "3699": 203,
        "3700": 25,
        "3701": 119,
        "3702": 199,
        "3703": 104,
        "3704": 7,
        "3705": 73,
        "3706": 117,
        "3707": 50,
        "3708": 33,
        "3709": 88,
        "3710": 182,
        "3711": 171,
        "3712": 71,
        "3713": 71,
        "3714": 109,
        "3715": 14,
        "3716": 140,
        "3717": 6,
        "3718": 252,
        "3719": 49,
        "3720": 172,
        "3721": 184,
        "3722": 75,
        "3723": 83,
        "3724": 58,
        "3725": 114,
        "3726": 240,
        "3727": 105,
        "3728": 138,
        "3729": 43,
        "3730": 26,
        "3731": 6,
        "3732": 84,
        "3733": 236,
        "3734": 13,
        "3735": 72,
        "3736": 51,
        "3737": 98,
        "3738": 38,
        "3739": 224,
        "3740": 79,
        "3741": 80,
        "3742": 54,
        "3743": 120,
        "3744": 0,
        "3745": 236,
        "3746": 26,
        "3747": 59,
        "3748": 235,
        "3749": 106,
        "3750": 169,
        "3751": 190,
        "3752": 240,
        "3753": 134,
        "3754": 231,
        "3755": 76,
        "3756": 65,
        "3757": 196,
        "3758": 63,
        "3759": 109,
        "3760": 182,
        "3761": 90,
        "3762": 144,
        "3763": 220,
        "3764": 66,
        "3765": 166,
        "3766": 1,
        "3767": 237,
        "3768": 69,
        "3769": 41,
        "3770": 134,
        "3771": 70,
        "3772": 178,
        "3773": 39,
        "3774": 147,
        "3775": 157,
        "3776": 36,
        "3777": 7,
        "3778": 151,
        "3779": 158,
        "3780": 254,
        "3781": 238,
        "3782": 137,
        "3783": 147,
        "3784": 128,
        "3785": 144,
        "3786": 172,
        "3787": 32,
        "3788": 0,
        "3789": 93,
        "3790": 73,
        "3791": 108,
        "3792": 15,
        "3793": 15,
        "3794": 85,
        "3795": 144,
        "3796": 207,
        "3797": 80,
        "3798": 206,
        "3799": 76,
        "3800": 97,
        "3801": 64,
        "3802": 64,
        "3803": 212,
        "3804": 184,
        "3805": 132,
        "3806": 172,
        "3807": 16,
        "3808": 138,
        "3809": 184,
        "3810": 9,
        "3811": 17,
        "3812": 70,
        "3813": 57,
        "3814": 80,
        "3815": 59,
        "3816": 109,
        "3817": 218,
        "3818": 201,
        "3819": 164,
        "3820": 43,
        "3821": 226,
        "3822": 121,
        "3823": 94,
        "3824": 35,
        "3825": 237,
        "3826": 192,
        "3827": 245,
        "3828": 139,
        "3829": 113,
        "3830": 81,
        "3831": 39,
        "3832": 129,
        "3833": 53,
        "3834": 62,
        "3835": 175,
        "3836": 243,
        "3837": 141,
        "3838": 45,
        "3839": 79,
        "3840": 243,
        "3841": 194,
        "3842": 77,
        "3843": 207,
        "3844": 138,
        "3845": 90,
        "3846": 71,
        "3847": 75,
        "3848": 9,
        "3849": 5,
        "3850": 30,
        "3851": 26,
        "3852": 208,
        "3853": 122,
        "3854": 91,
        "3855": 49,
        "3856": 112,
        "3857": 40,
        "3858": 142,
        "3859": 201,
        "3860": 218,
        "3861": 154,
        "3862": 145,
        "3863": 66,
        "3864": 107,
        "3865": 129,
        "3866": 48,
        "3867": 235,
        "3868": 115,
        "3869": 89,
        "3870": 120,
        "3871": 149,
        "3872": 41,
        "3873": 42,
        "3874": 184,
        "3875": 121,
        "3876": 9,
        "3877": 27,
        "3878": 237,
        "3879": 44,
        "3880": 10,
        "3881": 90,
        "3882": 175,
        "3883": 2,
        "3884": 165,
        "3885": 31,
        "3886": 12,
        "3887": 192,
        "3888": 23,
        "3889": 170,
        "3890": 173,
        "3891": 33,
        "3892": 11,
        "3893": 200,
        "3894": 0,
        "3895": 14,
        "3896": 160,
        "3897": 129,
        "3898": 204,
        "3899": 53,
        "3900": 218,
        "3901": 6,
        "3902": 19,
        "3903": 120,
        "3904": 122,
        "3905": 109,
        "3906": 211,
        "3907": 33,
        "3908": 128,
        "3909": 245,
        "3910": 175,
        "3911": 174,
        "3912": 86,
        "3913": 134,
        "3914": 156,
        "3915": 83,
        "3916": 44,
        "3917": 108,
        "3918": 86,
        "3919": 22,
        "3920": 108,
        "3921": 162,
        "3922": 64,
        "3923": 25,
        "3924": 179,
        "3925": 109,
        "3926": 49,
        "3927": 113,
        "3928": 83,
        "3929": 68,
        "3930": 26,
        "3931": 19,
        "3932": 189,
        "3933": 69,
        "3934": 225,
        "3935": 170,
        "3936": 170,
        "3937": 176,
        "3938": 213,
        "3939": 199,
        "3940": 110,
        "3941": 251,
        "3942": 167,
        "3943": 162,
        "3944": 0,
        "3945": 33,
        "3946": 1,
        "3947": 54,
        "3948": 96,
        "3949": 206,
        "3950": 114,
        "3951": 215,
        "3952": 117,
        "3953": 105,
        "3954": 6,
        "3955": 223,
        "3956": 157,
        "3957": 19,
        "3958": 253,
        "3959": 176,
        "3960": 175,
        "3961": 150,
        "3962": 189,
        "3963": 19,
        "3964": 1,
        "3965": 209,
        "3966": 85,
        "3967": 67,
        "3968": 23,
        "3969": 89,
        "3970": 139,
        "3971": 38,
        "3972": 242,
        "3973": 253,
        "3974": 69,
        "3975": 151,
        "3976": 51,
        "3977": 23,
        "3978": 232,
        "3979": 184,
        "3980": 1,
        "3981": 172,
        "3982": 94,
        "3983": 181,
        "3984": 18,
        "3985": 151,
        "3986": 60,
        "3987": 64,
        "3988": 43,
        "3989": 60,
        "3990": 207,
        "3991": 21,
        "3992": 91,
        "3993": 137,
        "3994": 201,
        "3995": 33,
        "3996": 236,
        "3997": 18,
        "3998": 167,
        "3999": 13,
        "4000": 0,
        "4001": 245,
        "4002": 242,
        "4003": 64,
        "4004": 160,
        "4005": 79,
        "4006": 37,
        "4007": 152,
        "4008": 59,
        "4009": 201,
        "4010": 51,
        "4011": 26,
        "4012": 244,
        "4013": 100,
        "4014": 17,
        "4015": 106,
        "4016": 209,
        "4017": 160,
        "4018": 239,
        "4019": 112,
        "4020": 23,
        "4021": 44,
        "4022": 32,
        "4023": 144,
        "4024": 114,
        "4025": 202,
        "4026": 187,
        "4027": 82,
        "4028": 57,
        "4029": 31,
        "4030": 254,
        "4031": 230,
        "4032": 183,
        "4033": 79,
        "4034": 247,
        "4035": 142,
        "4036": 101,
        "4037": 149,
        "4038": 19,
        "4039": 160,
        "4040": 222,
        "4041": 30,
        "4042": 140,
        "4043": 12,
        "4044": 199,
        "4045": 92,
        "4046": 212,
        "4047": 52,
        "4048": 21,
        "4049": 28,
        "4050": 242,
        "4051": 238,
        "4052": 63,
        "4053": 162,
        "4054": 0,
        "4055": 65,
        "4056": 89,
        "4057": 112,
        "4058": 238,
        "4059": 126,
        "4060": 102,
        "4061": 14,
        "4062": 240,
        "4063": 60,
        "4064": 49,
        "4065": 90,
        "4066": 123,
        "4067": 251,
        "4068": 253,
        "4069": 19,
        "4070": 72,
        "4071": 217,
        "4072": 196,
        "4073": 44,
        "4074": 140,
        "4075": 146,
        "4076": 63,
        "4077": 218,
        "4078": 191,
        "4079": 22,
        "4080": 56,
        "4081": 202,
        "4082": 104,
        "4083": 167,
        "4084": 33,
        "4085": 153,
        "4086": 239,
        "4087": 128,
        "4088": 25,
        "4089": 2,
        "4090": 21,
        "4091": 227,
        "4092": 64,
        "4093": 96,
        "4094": 213,
        "4095": 209,
        "4096": 53,
        "4097": 82,
        "4098": 246,
        "4099": 10,
        "4100": 27,
        "4101": 182,
        "4102": 113,
        "4103": 110,
        "4104": 36,
        "4105": 9,
        "4106": 112,
        "4107": 164,
        "4108": 70,
        "4109": 140,
        "4110": 89,
        "4111": 113,
        "4112": 225,
        "4113": 160,
        "4114": 144,
        "4115": 123,
        "4116": 57,
        "4117": 114,
        "4118": 211,
        "4119": 129,
        "4120": 145,
        "4121": 83,
        "4122": 215,
        "4123": 214,
        "4124": 114,
        "4125": 253,
        "4126": 53,
        "4127": 141,
        "4128": 51,
        "4129": 49,
        "4130": 99,
        "4131": 225,
        "4132": 243,
        "4133": 94,
        "4134": 155,
        "4135": 36,
        "4136": 23,
        "4137": 236,
        "4138": 138,
        "4139": 254,
        "4140": 82,
        "4141": 71,
        "4142": 144,
        "4143": 211,
        "4144": 53,
        "4145": 114,
        "4146": 237,
        "4147": 175,
        "4148": 11,
        "4149": 22,
        "4150": 106,
        "4151": 80,
        "4152": 14,
        "4153": 191,
        "4154": 107,
        "4155": 226,
        "4156": 86,
        "4157": 101,
        "4158": 202,
        "4159": 110,
        "4160": 8,
        "4161": 66,
        "4162": 89,
        "4163": 217,
        "4164": 195,
        "4165": 250,
        "4166": 132,
        "4167": 240,
        "4168": 81,
        "4169": 174,
        "4170": 78,
        "4171": 164,
        "4172": 185,
        "4173": 181,
        "4174": 125,
        "4175": 12,
        "4176": 255,
        "4177": 20,
        "4178": 123,
        "4179": 59,
        "4180": 49,
        "4181": 123,
        "4182": 74,
        "4183": 5,
        "4184": 125,
        "4185": 44,
        "4186": 218,
        "4187": 189,
        "4188": 241,
        "4189": 146,
        "4190": 117,
        "4191": 0,
        "4192": 120,
        "4193": 22,
        "4194": 232,
        "4195": 208,
        "4196": 56,
        "4197": 246,
        "4198": 191,
        "4199": 212,
        "4200": 83,
        "4201": 29,
        "4202": 72,
        "4203": 94,
        "4204": 89,
        "4205": 183,
        "4206": 112,
        "4207": 11,
        "4208": 151,
        "4209": 191,
        "4210": 236,
        "4211": 109,
        "4212": 46,
        "4213": 41,
        "4214": 204,
        "4215": 5,
        "4216": 115,
        "4217": 237,
        "4218": 182,
        "4219": 237,
        "4220": 41,
        "4221": 75,
        "4222": 43,
        "4223": 113,
        "4224": 234,
        "4225": 158,
        "4226": 114,
        "4227": 117,
        "4228": 59,
        "4229": 235,
        "4230": 88,
        "4231": 11,
        "4232": 93,
        "4233": 99,
        "4234": 118,
        "4235": 122,
        "4236": 238,
        "4237": 242,
        "4238": 119,
        "4239": 211,
        "4240": 238,
        "4241": 102,
        "4242": 103,
        "4243": 134,
        "4244": 224,
        "4245": 160,
        "4246": 124,
        "4247": 200,
        "4248": 254,
        "4249": 99,
        "4250": 114,
        "4251": 245,
        "4252": 126,
        "4253": 150,
        "4254": 207,
        "4255": 135,
        "4256": 201,
        "4257": 239,
        "4258": 53,
        "4259": 168,
        "4260": 15,
        "4261": 230,
        "4262": 96,
        "4263": 239,
        "4264": 152,
        "4265": 74,
        "4266": 67,
        "4267": 165,
        "4268": 215,
        "4269": 24,
        "4270": 128,
        "4271": 146,
        "4272": 57,
        "4273": 50,
        "4274": 45,
        "4275": 180,
        "4276": 254,
        "4277": 94,
        "4278": 104,
        "4279": 129,
        "4280": 15,
        "4281": 22,
        "4282": 222,
        "4283": 223,
        "4284": 236,
        "4285": 81,
        "4286": 238,
        "4287": 80,
        "4288": 99,
        "4289": 47,
        "4290": 102,
        "4291": 189,
        "4292": 188,
        "4293": 167,
        "4294": 51,
        "4295": 175,
        "4296": 144,
        "4297": 25,
        "4298": 138,
        "4299": 111,
        "4300": 74,
        "4301": 131,
        "4302": 30,
        "4303": 247,
        "4304": 139,
        "4305": 65,
        "4306": 190,
        "4307": 79,
        "4308": 79,
        "4309": 171,
        "4310": 252,
        "4311": 227,
        "4312": 143,
        "4313": 169,
        "4314": 117,
        "4315": 74,
        "4316": 125,
        "4317": 126,
        "4318": 46,
        "4319": 151,
        "4320": 29,
        "4321": 53,
        "4322": 241,
        "4323": 167,
        "4324": 22,
        "4325": 168,
        "4326": 76,
        "4327": 37,
        "4328": 35,
        "4329": 30,
        "4330": 27,
        "4331": 254,
        "4332": 167,
        "4333": 132,
        "4334": 53,
        "4335": 247,
        "4336": 168,
        "4337": 235,
        "4338": 244,
        "4339": 41,
        "4340": 77,
        "4341": 143,
        "4342": 6,
        "4343": 184,
        "4344": 136,
        "4345": 246,
        "4346": 245,
        "4347": 143,
        "4348": 221,
        "4349": 253,
        "4350": 217,
        "4351": 15,
        "4352": 112,
        "4353": 234,
        "4354": 80,
        "4355": 221,
        "4356": 241,
        "4357": 207,
        "4358": 82,
        "4359": 134,
        "4360": 237,
        "4361": 165,
        "4362": 150,
        "4363": 13,
        "4364": 203,
        "4365": 252,
        "4366": 94,
        "4367": 164,
        "4368": 9,
        "4369": 251,
        "4370": 54,
        "4371": 178,
        "4372": 95,
        "4373": 169,
        "4374": 205,
        "4375": 219,
        "4376": 105,
        "4377": 30,
        "4378": 149,
        "4379": 240,
        "4380": 50,
        "4381": 109,
        "4382": 197,
        "4383": 192,
        "4384": 25,
        "4385": 86,
        "4386": 250,
        "4387": 53,
        "4388": 133,
        "4389": 145,
        "4390": 93,
        "4391": 56,
        "4392": 30,
        "4393": 180,
        "4394": 11,
        "4395": 154,
        "4396": 53,
        "4397": 120,
        "4398": 26,
        "4399": 165,
        "4400": 84,
        "4401": 31,
        "4402": 34,
        "4403": 142,
        "4404": 130,
        "4405": 198,
        "4406": 202,
        "4407": 162,
        "4408": 214,
        "4409": 216,
        "4410": 159,
        "4411": 147,
        "4412": 67,
        "4413": 142,
        "4414": 222,
        "4415": 63,
        "4416": 37,
        "4417": 182,
        "4418": 131,
        "4419": 62,
        "4420": 196,
        "4421": 192,
        "4422": 126,
        "4423": 53,
        "4424": 66,
        "4425": 26,
        "4426": 249,
        "4427": 82,
        "4428": 198,
        "4429": 187,
        "4430": 9,
        "4431": 182,
        "4432": 167,
        "4433": 196,
        "4434": 108,
        "4435": 208,
        "4436": 165,
        "4437": 97,
        "4438": 132,
        "4439": 64,
        "4440": 53,
        "4441": 175,
        "4442": 87,
        "4443": 74,
        "4444": 203,
        "4445": 64,
        "4446": 91,
        "4447": 223,
        "4448": 36,
        "4449": 237,
        "4450": 107,
        "4451": 77,
        "4452": 166,
        "4453": 179,
        "4454": 170,
        "4455": 83,
        "4456": 23,
        "4457": 132,
        "4458": 240,
        "4459": 232,
        "4460": 43,
        "4461": 210,
        "4462": 7,
        "4463": 89,
        "4464": 248,
        "4465": 96,
        "4466": 23,
        "4467": 10,
        "4468": 198,
        "4469": 183,
        "4470": 187,
        "4471": 224,
        "4472": 224,
        "4473": 122,
        "4474": 47,
        "4475": 60,
        "4476": 121,
        "4477": 26,
        "4478": 80,
        "4479": 75,
        "4480": 153,
        "4481": 194,
        "4482": 112,
        "4483": 71,
        "4484": 137,
        "4485": 60,
        "4486": 204,
        "4487": 44,
        "4488": 55,
        "4489": 2,
        "4490": 38,
        "4491": 64,
        "4492": 138,
        "4493": 186,
        "4494": 120,
        "4495": 143,
        "4496": 137,
        "4497": 116,
        "4498": 93,
        "4499": 98,
        "4500": 163,
        "4501": 162,
        "4502": 78,
        "4503": 39,
        "4504": 246,
        "4505": 153,
        "4506": 173,
        "4507": 220,
        "4508": 255,
        "4509": 64,
        "4510": 200,
        "4511": 254,
        "4512": 176,
        "4513": 211,
        "4514": 44,
        "4515": 19,
        "4516": 30,
        "4517": 37,
        "4518": 73,
        "4519": 193,
        "4520": 250,
        "4521": 155,
        "4522": 216,
        "4523": 14,
        "4524": 108,
        "4525": 26,
        "4526": 246,
        "4527": 226,
        "4528": 52,
        "4529": 172,
        "4530": 13,
        "4531": 223,
        "4532": 185,
        "4533": 153,
        "4534": 85,
        "4535": 20,
        "4536": 105,
        "4537": 185,
        "4538": 3,
        "4539": 144,
        "4540": 36,
        "4541": 127,
        "4542": 169,
        "4543": 70,
        "4544": 59,
        "4545": 181,
        "4546": 243,
        "4547": 133,
        "4548": 93,
        "4549": 171,
        "4550": 62,
        "4551": 234,
        "4552": 135,
        "4553": 135,
        "4554": 111,
        "4555": 106,
        "4556": 211,
        "4557": 2,
        "4558": 219,
        "4559": 68,
        "4560": 157,
        "4561": 149,
        "4562": 51,
        "4563": 43,
        "4564": 29,
        "4565": 26,
        "4566": 251,
        "4567": 80,
        "4568": 67,
        "4569": 94,
        "4570": 36,
        "4571": 192,
        "4572": 244,
        "4573": 240,
        "4574": 14,
        "4575": 62,
        "4576": 242,
        "4577": 44,
        "4578": 217,
        "4579": 55,
        "4580": 102,
        "4581": 177,
        "4582": 231,
        "4583": 121,
        "4584": 101,
        "4585": 52,
        "4586": 243,
        "4587": 57,
        "4588": 36,
        "4589": 227,
        "4590": 83,
        "4591": 127,
        "4592": 26,
        "4593": 100,
        "4594": 214,
        "4595": 101,
        "4596": 232,
        "4597": 173,
        "4598": 229,
        "4599": 119,
        "4600": 50,
        "4601": 242,
        "4602": 107,
        "4603": 122,
        "4604": 195,
        "4605": 25,
        "4606": 56,
        "4607": 58,
        "4608": 225,
        "4609": 92,
        "4610": 172,
        "4611": 37,
        "4612": 71,
        "4613": 47,
        "4614": 56,
        "4615": 168,
        "4616": 71,
        "4617": 89,
        "4618": 89,
        "4619": 0,
        "4620": 246,
        "4621": 250,
        "4622": 249,
        "4623": 199,
        "4624": 154,
        "4625": 135,
        "4626": 155,
        "4627": 83,
        "4628": 185,
        "4629": 60,
        "4630": 228,
        "4631": 111,
        "4632": 62,
        "4633": 71,
        "4634": 233,
        "4635": 148,
        "4636": 172,
        "4637": 102,
        "4638": 90,
        "4639": 75,
        "4640": 138,
        "4641": 23,
        "4642": 1,
        "4643": 90,
        "4644": 77,
        "4645": 125,
        "4646": 64,
        "4647": 162,
        "4648": 90,
        "4649": 237,
        "4650": 224,
        "4651": 64,
        "4652": 210,
        "4653": 21,
        "4654": 212,
        "4655": 179,
        "4656": 211,
        "4657": 65,
        "4658": 133,
        "4659": 109,
        "4660": 213,
        "4661": 14,
        "4662": 50,
        "4663": 171,
        "4664": 168,
        "4665": 189,
        "4666": 147,
        "4667": 3,
        "4668": 213,
        "4669": 16,
        "4670": 249,
        "4671": 203,
        "4672": 113,
        "4673": 172,
        "4674": 20,
        "4675": 161,
        "4676": 200,
        "4677": 91,
        "4678": 56,
        "4679": 184,
        "4680": 101,
        "4681": 112,
        "4682": 141,
        "4683": 84,
        "4684": 160,
        "4685": 52,
        "4686": 167,
        "4687": 12,
        "4688": 54,
        "4689": 144,
        "4690": 220,
        "4691": 246,
        "4692": 123,
        "4693": 65,
        "4694": 163,
        "4695": 86,
        "4696": 229,
        "4697": 165,
        "4698": 34,
        "4699": 120,
        "4700": 84,
        "4701": 241,
        "4702": 140,
        "4703": 117,
        "4704": 185,
        "4705": 251,
        "4706": 96,
        "4707": 81,
        "4708": 83,
        "4709": 48,
        "4710": 88,
        "4711": 53,
        "4712": 166,
        "4713": 209,
        "4714": 244,
        "4715": 31,
        "4716": 222,
        "4717": 252,
        "4718": 249,
        "4719": 140,
        "4720": 147,
        "4721": 172,
        "4722": 255,
        "4723": 196,
        "4724": 70,
        "4725": 191,
        "4726": 205,
        "4727": 9,
        "4728": 39,
        "4729": 91,
        "4730": 109,
        "4731": 72,
        "4732": 159,
        "4733": 38,
        "4734": 48,
        "4735": 63,
        "4736": 75,
        "4737": 219,
        "4738": 23,
        "4739": 12,
        "4740": 4,
        "4741": 80,
        "4742": 181,
        "4743": 250,
        "4744": 182,
        "4745": 210,
        "4746": 128,
        "4747": 189,
        "4748": 191,
        "4749": 187,
        "4750": 225,
        "4751": 156,
        "4752": 157,
        "4753": 91,
        "4754": 153,
        "4755": 248,
        "4756": 200,
        "4757": 232,
        "4758": 145,
        "4759": 116,
        "4760": 94,
        "4761": 231,
        "4762": 10,
        "4763": 239,
        "4764": 129,
        "4765": 56,
        "4766": 248,
        "4767": 3,
        "4768": 213,
        "4769": 221,
        "4770": 65,
        "4771": 50,
        "4772": 101,
        "4773": 87,
        "4774": 10,
        "4775": 211,
        "4776": 9,
        "4777": 6,
        "4778": 74,
        "4779": 109,
        "4780": 110,
        "4781": 170,
        "4782": 122,
        "4783": 248,
        "4784": 246,
        "4785": 98,
        "4786": 84,
        "4787": 3,
        "4788": 52,
        "4789": 96,
        "4790": 222,
        "4791": 220,
        "4792": 16,
        "4793": 66,
        "4794": 238,
        "4795": 193,
        "4796": 226,
        "4797": 125,
        "4798": 25,
        "4799": 12,
        "4800": 129,
        "4801": 187,
        "4802": 22,
        "4803": 241,
        "4804": 73,
        "4805": 31,
        "4806": 180,
        "4807": 188,
        "4808": 237,
        "4809": 196,
        "4810": 74,
        "4811": 198,
        "4812": 35,
        "4813": 142,
        "4814": 17,
        "4815": 234,
        "4816": 40,
        "4817": 1,
        "4818": 179,
        "4819": 13,
        "4820": 158,
        "4821": 143,
        "4822": 169,
        "4823": 203,
        "4824": 43,
        "4825": 153,
        "4826": 84,
        "4827": 127,
        "4828": 120,
        "4829": 244,
        "4830": 5,
        "4831": 41,
        "4832": 172,
        "4833": 78,
        "4834": 33,
        "4835": 181,
        "4836": 120,
        "4837": 18,
        "4838": 54,
        "4839": 230,
        "4840": 99,
        "4841": 91,
        "4842": 107,
        "4843": 195,
        "4844": 191,
        "4845": 67,
        "4846": 129,
        "4847": 22,
        "4848": 30,
        "4849": 63,
        "4850": 78,
        "4851": 142,
        "4852": 203,
        "4853": 228,
        "4854": 12,
        "4855": 196,
        "4856": 3,
        "4857": 189,
        "4858": 126,
        "4859": 61,
        "4860": 61,
        "4861": 10,
        "4862": 32,
        "4863": 237,
        "4864": 91,
        "4865": 110,
        "4866": 179,
        "4867": 54,
        "4868": 97,
        "4869": 155,
        "4870": 13,
        "4871": 135,
        "4872": 171,
        "4873": 226,
        "4874": 212,
        "4875": 114,
        "4876": 200,
        "4877": 213,
        "4878": 198,
        "4879": 73,
        "4880": 28,
        "4881": 251,
        "4882": 24,
        "4883": 187,
        "4884": 224,
        "4885": 79,
        "4886": 78,
        "4887": 253,
        "4888": 96,
        "4889": 32,
        "4890": 123,
        "4891": 130,
        "4892": 26,
        "4893": 247,
        "4894": 57,
        "4895": 84,
        "4896": 155,
        "4897": 136,
        "4898": 8,
        "4899": 141,
        "4900": 175,
        "4901": 50,
        "4902": 210,
        "4903": 189,
        "4904": 47,
        "4905": 100,
        "4906": 241,
        "4907": 85,
        "4908": 234,
        "4909": 41,
        "4910": 183,
        "4911": 72,
        "4912": 16,
        "4913": 90,
        "4914": 244,
        "4915": 2,
        "4916": 154,
        "4917": 5,
        "4918": 108,
        "4919": 158,
        "4920": 135,
        "4921": 110,
        "4922": 150,
        "4923": 60,
        "4924": 34,
        "4925": 22,
        "4926": 43,
        "4927": 26,
        "4928": 148,
        "4929": 158,
        "4930": 77,
        "4931": 175,
        "4932": 248,
        "4933": 103,
        "4934": 95,
        "4935": 16,
        "4936": 24,
        "4937": 135,
        "4938": 210,
        "4939": 252,
        "4940": 55,
        "4941": 39,
        "4942": 3,
        "4943": 233,
        "4944": 70,
        "4945": 14,
        "4946": 202,
        "4947": 202,
        "4948": 236,
        "4949": 43,
        "4950": 30,
        "4951": 166,
        "4952": 145,
        "4953": 196,
        "4954": 39,
        "4955": 177,
        "4956": 213,
        "4957": 59,
        "4958": 212,
        "4959": 81,
        "4960": 47,
        "4961": 12,
        "4962": 117,
        "4963": 210,
        "4964": 122,
        "4965": 120,
        "4966": 20,
        "4967": 100,
        "4968": 236,
        "4969": 91,
        "4970": 170,
        "4971": 107,
        "4972": 71,
        "4973": 74,
        "4974": 185,
        "4975": 55,
        "4976": 158,
        "4977": 99,
        "4978": 160,
        "4979": 116,
        "4980": 94,
        "4981": 117,
        "4982": 132,
        "4983": 188,
        "4984": 112,
        "4985": 170,
        "4986": 127,
        "4987": 237,
        "4988": 199,
        "4989": 226,
        "4990": 222,
        "4991": 211,
        "4992": 116,
        "4993": 239,
        "4994": 253,
        "4995": 77,
        "4996": 215,
        "4997": 79,
        "4998": 44,
        "4999": 42,
        "5000": 106,
        "5001": 63,
        "5002": 162,
        "5003": 171,
        "5004": 47,
        "5005": 231,
        "5006": 120,
        "5007": 255,
        "5008": 164,
        "5009": 53,
        "5010": 112,
        "5011": 233,
        "5012": 70,
        "5013": 5,
        "5014": 151,
        "5015": 126,
        "5016": 26,
        "5017": 193,
        "5018": 91,
        "5019": 103,
        "5020": 201,
        "5021": 199,
        "5022": 50,
        "5023": 128,
        "5024": 86,
        "5025": 11,
        "5026": 229,
        "5027": 16,
        "5028": 4,
        "5029": 113,
        "5030": 184,
        "5031": 119,
        "5032": 116,
        "5033": 86,
        "5034": 109,
        "5035": 141,
        "5036": 131,
        "5037": 233,
        "5038": 30,
        "5039": 198,
        "5040": 1,
        "5041": 51,
        "5042": 132,
        "5043": 83,
        "5044": 60,
        "5045": 8,
        "5046": 149,
        "5047": 119,
        "5048": 29,
        "5049": 249,
        "5050": 53,
        "5051": 9,
        "5052": 61,
        "5053": 255,
        "5054": 113,
        "5055": 79,
        "5056": 46,
        "5057": 52,
        "5058": 19,
        "5059": 90,
        "5060": 195,
        "5061": 115,
        "5062": 196,
        "5063": 219,
        "5064": 145,
        "5065": 166,
        "5066": 76,
        "5067": 219,
        "5068": 241,
        "5069": 33,
        "5070": 72,
        "5071": 20,
        "5072": 210,
        "5073": 65,
        "5074": 225,
        "5075": 22,
        "5076": 247,
        "5077": 108,
        "5078": 239,
        "5079": 113,
        "5080": 145,
        "5081": 83,
        "5082": 111,
        "5083": 6,
        "5084": 236,
        "5085": 89,
        "5086": 189,
        "5087": 80,
        "5088": 136,
        "5089": 194,
        "5090": 9,
        "5091": 33,
        "5092": 167,
        "5093": 111,
        "5094": 219,
        "5095": 212,
        "5096": 0,
        "5097": 76,
        "5098": 143,
        "5099": 82,
        "5100": 191,
        "5101": 158,
        "5102": 159,
        "5103": 96,
        "5104": 22,
        "5105": 104,
        "5106": 110,
        "5107": 15,
        "5108": 157,
        "5109": 168,
        "5110": 198,
        "5111": 230,
        "5112": 148,
        "5113": 131,
        "5114": 71,
        "5115": 214,
        "5116": 98,
        "5117": 193,
        "5118": 91,
        "5119": 36,
        "5120": 161,
        "5121": 6,
        "5122": 169,
        "5123": 49,
        "5124": 221,
        "5125": 73,
        "5126": 184,
        "5127": 38,
        "5128": 11,
        "5129": 26,
        "5130": 205,
        "5131": 173,
        "5132": 75,
        "5133": 246,
        "5134": 215,
        "5135": 133,
        "5136": 11,
        "5137": 126,
        "5138": 112,
        "5139": 106,
        "5140": 89,
        "5141": 95,
        "5142": 240,
        "5143": 159,
        "5144": 160,
        "5145": 69,
        "5146": 231,
        "5147": 184,
        "5148": 208,
        "5149": 212,
        "5150": 181,
        "5151": 35,
        "5152": 246,
        "5153": 192,
        "5154": 48,
        "5155": 75,
        "5156": 168,
        "5157": 187,
        "5158": 221,
        "5159": 166,
        "5160": 49,
        "5161": 193,
        "5162": 0,
        "5163": 200,
        "5164": 2,
        "5165": 224,
        "5166": 23,
        "5167": 11,
        "5168": 214,
        "5169": 105,
        "5170": 186,
        "5171": 169,
        "5172": 77,
        "5173": 235,
        "5174": 81,
        "5175": 176,
        "5176": 217,
        "5177": 54,
        "5178": 117,
        "5179": 188,
        "5180": 87,
        "5181": 120,
        "5182": 83,
        "5183": 49,
        "5184": 247,
        "5185": 242,
        "5186": 188,
        "5187": 39,
        "5188": 123,
        "5189": 76,
        "5190": 168,
        "5191": 74,
        "5192": 192,
        "5193": 95,
        "5194": 115,
        "5195": 124,
        "5196": 76,
        "5197": 96,
        "5198": 142,
        "5199": 114,
        "5200": 45,
        "5201": 230,
        "5202": 122,
        "5203": 76,
        "5204": 52,
        "5205": 237,
        "5206": 77,
        "5207": 145,
        "5208": 48,
        "5209": 11,
        "5210": 227,
        "5211": 118,
        "5212": 83,
        "5213": 179,
        "5214": 42,
        "5215": 47,
        "5216": 173,
        "5217": 80,
        "5218": 66,
        "5219": 80,
        "5220": 117,
        "5221": 128,
        "5222": 48,
        "5223": 52,
        "5224": 184,
        "5225": 70,
        "5226": 177,
        "5227": 132,
        "5228": 55,
        "5229": 235,
        "5230": 16,
        "5231": 135,
        "5232": 74,
        "5233": 242,
        "5234": 35,
        "5235": 250,
        "5236": 1,
        "5237": 36,
        "5238": 189,
        "5239": 147,
        "5240": 95,
        "5241": 126,
        "5242": 12,
        "5243": 15,
        "5244": 122,
        "5245": 24,
        "5246": 248,
        "5247": 22,
        "5248": 9,
        "5249": 20,
        "5250": 87,
        "5251": 118,
        "5252": 122,
        "5253": 189,
        "5254": 193,
        "5255": 243,
        "5256": 33,
        "5257": 151,
        "5258": 194,
        "5259": 20,
        "5260": 58,
        "5261": 140,
        "5262": 164,
        "5263": 150,
        "5264": 195,
        "5265": 243,
        "5266": 238,
        "5267": 229,
        "5268": 10,
        "5269": 56,
        "5270": 249,
        "5271": 165,
        "5272": 236,
        "5273": 248,
        "5274": 151,
        "5275": 157,
        "5276": 121,
        "5277": 73,
        "5278": 194,
        "5279": 56,
        "5280": 210,
        "5281": 187,
        "5282": 172,
        "5283": 76,
        "5284": 65,
        "5285": 152,
        "5286": 62,
        "5287": 114,
        "5288": 122,
        "5289": 227,
        "5290": 225,
        "5291": 71,
        "5292": 140,
        "5293": 213,
        "5294": 250,
        "5295": 235,
        "5296": 47,
        "5297": 197,
        "5298": 7,
        "5299": 246,
        "5300": 134,
        "5301": 9,
        "5302": 197,
        "5303": 144,
        "5304": 172,
        "5305": 139,
        "5306": 2,
        "5307": 217,
        "5308": 175,
        "5309": 168,
        "5310": 123,
        "5311": 14,
        "5312": 179,
        "5313": 218,
        "5314": 243,
        "5315": 217,
        "5316": 53,
        "5317": 211,
        "5318": 250,
        "5319": 14,
        "5320": 125,
        "5321": 239,
        "5322": 124,
        "5323": 127,
        "5324": 174,
        "5325": 17,
        "5326": 109,
        "5327": 220,
        "5328": 209,
        "5329": 89,
        "5330": 233,
        "5331": 231,
        "5332": 249,
        "5333": 140,
        "5334": 177,
        "5335": 30,
        "5336": 199,
        "5337": 211,
        "5338": 196,
        "5339": 20,
        "5340": 17,
        "5341": 109,
        "5342": 231,
        "5343": 95,
        "5344": 244,
        "5345": 52,
        "5346": 2,
        "5347": 166,
        "5348": 50,
        "5349": 88,
        "5350": 205,
        "5351": 52,
        "5352": 223,
        "5353": 37,
        "5354": 210,
        "5355": 44,
        "5356": 82,
        "5357": 144,
        "5358": 84,
        "5359": 148,
        "5360": 68,
        "5361": 173,
        "5362": 70,
        "5363": 141,
        "5364": 157,
        "5365": 243,
        "5366": 184,
        "5367": 230,
        "5368": 123,
        "5369": 66,
        "5370": 27,
        "5371": 117,
        "5372": 238,
        "5373": 13,
        "5374": 44,
        "5375": 49,
        "5376": 114,
        "5377": 53,
        "5378": 165,
        "5379": 78,
        "5380": 182,
        "5381": 39,
        "5382": 117,
        "5383": 201,
        "5384": 131,
        "5385": 187,
        "5386": 179,
        "5387": 143,
        "5388": 186,
        "5389": 64,
        "5390": 180,
        "5391": 221,
        "5392": 79,
        "5393": 75,
        "5394": 184,
        "5395": 173,
        "5396": 144,
        "5397": 45,
        "5398": 40,
        "5399": 117,
        "5400": 183,
        "5401": 105,
        "5402": 27,
        "5403": 0,
        "5404": 16,
        "5405": 98,
        "5406": 132,
        "5407": 96,
        "5408": 0,
        "5409": 218,
        "5410": 28,
        "5411": 14,
        "5412": 114,
        "5413": 30,
        "5414": 81,
        "5415": 103,
        "5416": 127,
        "5417": 22,
        "5418": 195,
        "5419": 95,
        "5420": 95,
        "5421": 107,
        "5422": 13,
        "5423": 63,
        "5424": 139,
        "5425": 141,
        "5426": 208,
        "5427": 165,
        "5428": 208,
        "5429": 169,
        "5430": 176,
        "5431": 90,
        "5432": 187,
        "5433": 7,
        "5434": 9,
        "5435": 166,
        "5436": 183,
        "5437": 207,
        "5438": 123,
        "5439": 45,
        "5440": 35,
        "5441": 20,
        "5442": 155,
        "5443": 61,
        "5444": 166,
        "5445": 205,
        "5446": 136,
        "5447": 17,
        "5448": 96,
        "5449": 55,
        "5450": 55,
        "5451": 17,
        "5452": 225,
        "5453": 81,
        "5454": 133,
        "5455": 69,
        "5456": 254,
        "5457": 121,
        "5458": 85,
        "5459": 26,
        "5460": 15,
        "5461": 138,
        "5462": 224,
        "5463": 116,
        "5464": 153,
        "5465": 69,
        "5466": 225,
        "5467": 255,
        "5468": 15,
        "5469": 240,
        "5470": 131,
        "5471": 136,
        "5472": 163,
        "5473": 164,
        "5474": 231,
        "5475": 234,
        "5476": 168,
        "5477": 30,
        "5478": 162,
        "5479": 195,
        "5480": 233,
        "5481": 120,
        "5482": 99,
        "5483": 149,
        "5484": 72,
        "5485": 157,
        "5486": 120,
        "5487": 200,
        "5488": 249,
        "5489": 236,
        "5490": 141,
        "5491": 212,
        "5492": 22,
        "5493": 140,
        "5494": 115,
        "5495": 90,
        "5496": 197,
        "5497": 199,
        "5498": 81,
        "5499": 57,
        "5500": 100,
        "5501": 76,
        "5502": 186,
        "5503": 199,
        "5504": 167,
        "5505": 195,
        "5506": 243,
        "5507": 210,
        "5508": 195,
        "5509": 217,
        "5510": 186,
        "5511": 197,
        "5512": 17,
        "5513": 45,
        "5514": 25,
        "5515": 47,
        "5516": 135,
        "5517": 82,
        "5518": 155,
        "5519": 6,
        "5520": 10,
        "5521": 64,
        "5522": 89,
        "5523": 56,
        "5524": 42,
        "5525": 14,
        "5526": 158,
        "5527": 60,
        "5528": 98,
        "5529": 167,
        "5530": 82,
        "5531": 26,
        "5532": 92,
        "5533": 231,
        "5534": 154,
        "5535": 143,
        "5536": 42,
        "5537": 215,
        "5538": 26,
        "5539": 57,
        "5540": 208,
        "5541": 197,
        "5542": 2,
        "5543": 13,
        "5544": 115,
        "5545": 207,
        "5546": 113,
        "5547": 31,
        "5548": 206,
        "5549": 40,
        "5550": 121,
        "5551": 174,
        "5552": 142,
        "5553": 249,
        "5554": 240,
        "5555": 131,
        "5556": 131,
        "5557": 107,
        "5558": 246,
        "5559": 219,
        "5560": 92,
        "5561": 38,
        "5562": 118,
        "5563": 0,
        "5564": 87,
        "5565": 112,
        "5566": 151,
        "5567": 35,
        "5568": 69,
        "5569": 131,
        "5570": 18,
        "5571": 251,
        "5572": 146,
        "5573": 48,
        "5574": 162,
        "5575": 255,
        "5576": 236,
        "5577": 244,
        "5578": 31,
        "5579": 251,
        "5580": 178,
        "5581": 108,
        "5582": 63,
        "5583": 254,
        "5584": 236,
        "5585": 204,
        "5586": 38,
        "5587": 222,
        "5588": 222,
        "5589": 162,
        "5590": 49,
        "5591": 29,
        "5592": 125,
        "5593": 231,
        "5594": 249,
        "5595": 165,
        "5596": 116,
        "5597": 184,
        "5598": 93,
        "5599": 6,
        "5600": 176,
        "5601": 101,
        "5602": 71,
        "5603": 121,
        "5604": 211,
        "5605": 155,
        "5606": 33,
        "5607": 252,
        "5608": 150,
        "5609": 249,
        "5610": 36,
        "5611": 198,
        "5612": 225,
        "5613": 51,
        "5614": 229,
        "5615": 63,
        "5616": 181,
        "5617": 216,
        "5618": 113,
        "5619": 4,
        "5620": 69,
        "5621": 247,
        "5622": 195,
        "5623": 33,
        "5624": 44,
        "5625": 66,
        "5626": 173,
        "5627": 106,
        "5628": 192,
        "5629": 143,
        "5630": 112,
        "5631": 47,
        "5632": 132,
        "5633": 121,
        "5634": 76,
        "5635": 56,
        "5636": 101,
        "5637": 113,
        "5638": 54,
        "5639": 230,
        "5640": 100,
        "5641": 145,
        "5642": 30,
        "5643": 253,
        "5644": 117,
        "5645": 243,
        "5646": 196,
        "5647": 19,
        "5648": 40,
        "5649": 198,
        "5650": 180,
        "5651": 202,
        "5652": 51,
        "5653": 78,
        "5654": 54,
        "5655": 132,
        "5656": 18,
        "5657": 206,
        "5658": 49,
        "5659": 201,
        "5660": 218,
        "5661": 113,
        "5662": 80,
        "5663": 121,
        "5664": 243,
        "5665": 182,
        "5666": 137,
        "5667": 203,
        "5668": 3,
        "5669": 250,
        "5670": 223,
        "5671": 49,
        "5672": 243,
        "5673": 50,
        "5674": 228,
        "5675": 242,
        "5676": 11,
        "5677": 234,
        "5678": 214,
        "5679": 36,
        "5680": 121,
        "5681": 117,
        "5682": 127,
        "5683": 32,
        "5684": 98,
        "5685": 181,
        "5686": 68,
        "5687": 195,
        "5688": 168,
        "5689": 56,
        "5690": 134,
        "5691": 67,
        "5692": 79,
        "5693": 158,
        "5694": 2,
        "5695": 113,
        "5696": 216,
        "5697": 234,
        "5698": 177,
        "5699": 12,
        "5700": 230,
        "5701": 208,
        "5702": 244,
        "5703": 248,
        "5704": 176,
        "5705": 181,
        "5706": 207,
        "5707": 195,
        "5708": 23,
        "5709": 104,
        "5710": 227,
        "5711": 4,
        "5712": 144,
        "5713": 134,
        "5714": 175,
        "5715": 109,
        "5716": 138,
        "5717": 181,
        "5718": 209,
        "5719": 193,
        "5720": 195,
        "5721": 45,
        "5722": 219,
        "5723": 79,
        "5724": 107,
        "5725": 106,
        "5726": 60,
        "5727": 218,
        "5728": 96,
        "5729": 53,
        "5730": 82,
        "5731": 137,
        "5732": 144,
        "5733": 160,
        "5734": 93,
        "5735": 134,
        "5736": 63,
        "5737": 97,
        "5738": 176,
        "5739": 232,
        "5740": 231,
        "5741": 170,
        "5742": 148,
        "5743": 159,
        "5744": 240,
        "5745": 5,
        "5746": 251,
        "5747": 128,
        "5748": 219,
        "5749": 64,
        "5750": 104,
        "5751": 100,
        "5752": 210,
        "5753": 218,
        "5754": 166,
        "5755": 106,
        "5756": 190,
        "5757": 4,
        "5758": 223,
        "5759": 16,
        "5760": 12,
        "5761": 249,
        "5762": 102,
        "5763": 140,
        "5764": 49,
        "5765": 158,
        "5766": 90,
        "5767": 127,
        "5768": 4,
        "5769": 223,
        "5770": 178,
        "5771": 153,
        "5772": 181,
        "5773": 242,
        "5774": 0,
        "5775": 199,
        "5776": 19,
        "5777": 13,
        "5778": 182,
        "5779": 223,
        "5780": 253,
        "5781": 237,
        "5782": 185,
        "5783": 70,
        "5784": 1,
        "5785": 156,
        "5786": 23,
        "5787": 241,
        "5788": 5,
        "5789": 229,
        "5790": 189,
        "5791": 144,
        "5792": 90,
        "5793": 10,
        "5794": 56,
        "5795": 47,
        "5796": 234,
        "5797": 175,
        "5798": 158,
        "5799": 8,
        "5800": 63,
        "5801": 99,
        "5802": 35,
        "5803": 20,
        "5804": 47,
        "5805": 76,
        "5806": 60,
        "5807": 159,
        "5808": 234,
        "5809": 65,
        "5810": 4,
        "5811": 42,
        "5812": 175,
        "5813": 248,
        "5814": 59,
        "5815": 25,
        "5816": 6,
        "5817": 182,
        "5818": 120,
        "5819": 235,
        "5820": 139,
        "5821": 234,
        "5822": 211,
        "5823": 228,
        "5824": 48,
        "5825": 53,
        "5826": 187,
        "5827": 94,
        "5828": 211,
        "5829": 133,
        "5830": 210,
        "5831": 181,
        "5832": 137,
        "5833": 6,
        "5834": 46,
        "5835": 175,
        "5836": 91,
        "5837": 188,
        "5838": 64,
        "5839": 191,
        "5840": 3,
        "5841": 241,
        "5842": 84,
        "5843": 194,
        "5844": 231,
        "5845": 183,
        "5846": 69,
        "5847": 201,
        "5848": 133,
        "5849": 52,
        "5850": 89,
        "5851": 173,
        "5852": 208,
        "5853": 117,
        "5854": 172,
        "5855": 202,
        "5856": 99,
        "5857": 148,
        "5858": 176,
        "5859": 195,
        "5860": 56,
        "5861": 37,
        "5862": 24,
        "5863": 53,
        "5864": 111,
        "5865": 183,
        "5866": 67,
        "5867": 58,
        "5868": 250,
        "5869": 62,
        "5870": 47,
        "5871": 0,
        "5872": 73,
        "5873": 57,
        "5874": 219,
        "5875": 176,
        "5876": 179,
        "5877": 124,
        "5878": 111,
        "5879": 143,
        "5880": 201,
        "5881": 109,
        "5882": 182,
        "5883": 118,
        "5884": 46,
        "5885": 89,
        "5886": 181,
        "5887": 78,
        "5888": 90,
        "5889": 115,
        "5890": 11,
        "5891": 157,
        "5892": 229,
        "5893": 14,
        "5894": 22,
        "5895": 53,
        "5896": 211,
        "5897": 31,
        "5898": 129,
        "5899": 159,
        "5900": 69,
        "5901": 77,
        "5902": 162,
        "5903": 145,
        "5904": 125,
        "5905": 107,
        "5906": 20,
        "5907": 108,
        "5908": 149,
        "5909": 178,
        "5910": 240,
        "5911": 200,
        "5912": 57,
        "5913": 234,
        "5914": 7,
        "5915": 222,
        "5916": 89,
        "5917": 34,
        "5918": 250,
        "5919": 42,
        "5920": 162,
        "5921": 21,
        "5922": 123,
        "5923": 174,
        "5924": 80,
        "5925": 44,
        "5926": 90,
        "5927": 167,
        "5928": 47,
        "5929": 81,
        "5930": 5,
        "5931": 138,
        "5932": 122,
        "5933": 145,
        "5934": 17,
        "5935": 165,
        "5936": 207,
        "5937": 214,
        "5938": 159,
        "5939": 190,
        "5940": 144,
        "5941": 46,
        "5942": 214,
        "5943": 213,
        "5944": 204,
        "5945": 28,
        "5946": 124,
        "5947": 23,
        "5948": 221,
        "5949": 200,
        "5950": 183,
        "5951": 5,
        "5952": 213,
        "5953": 236,
        "5954": 172,
        "5955": 163,
        "5956": 94,
        "5957": 146,
        "5958": 164,
        "5959": 178,
        "5960": 200,
        "5961": 213,
        "5962": 176,
        "5963": 17,
        "5964": 101,
        "5965": 98,
        "5966": 148,
        "5967": 134,
        "5968": 206,
        "5969": 155,
        "5970": 4,
        "5971": 206,
        "5972": 213,
        "5973": 103,
        "5974": 59,
        "5975": 239,
        "5976": 109,
        "5977": 91,
        "5978": 197,
        "5979": 161,
        "5980": 46,
        "5981": 166,
        "5982": 234,
        "5983": 77,
        "5984": 70,
        "5985": 177,
        "5986": 35,
        "5987": 42,
        "5988": 147,
        "5989": 113,
        "5990": 91,
        "5991": 80,
        "5992": 33,
        "5993": 241,
        "5994": 73,
        "5995": 122,
        "5996": 48,
        "5997": 132,
        "5998": 199,
        "5999": 207,
        "6000": 197,
        "6001": 163,
        "6002": 3,
        "6003": 72,
        "6004": 184,
        "6005": 101,
        "6006": 57,
        "6007": 39,
        "6008": 125,
        "6009": 85,
        "6010": 16,
        "6011": 135,
        "6012": 67,
        "6013": 185,
        "6014": 215,
        "6015": 54,
        "6016": 196,
        "6017": 201,
        "6018": 82,
        "6019": 47,
        "6020": 150,
        "6021": 220,
        "6022": 30,
        "6023": 183,
        "6024": 95,
        "6025": 205,
        "6026": 98,
        "6027": 75,
        "6028": 195,
        "6029": 213,
        "6030": 65,
        "6031": 49,
        "6032": 232,
        "6033": 137,
        "6034": 74,
        "6035": 230,
        "6036": 21,
        "6037": 209,
        "6038": 135,
        "6039": 1,
        "6040": 201,
        "6041": 147,
        "6042": 18,
        "6043": 120,
        "6044": 66,
        "6045": 14,
        "6046": 34,
        "6047": 182,
        "6048": 237,
        "6049": 182,
        "6050": 169,
        "6051": 182,
        "6052": 241,
        "6053": 127,
        "6054": 35,
        "6055": 234,
        "6056": 88,
        "6057": 138,
        "6058": 223,
        "6059": 197,
        "6060": 77,
        "6061": 128,
        "6062": 155,
        "6063": 144,
        "6064": 200,
        "6065": 247,
        "6066": 200,
        "6067": 92,
        "6068": 89,
        "6069": 150,
        "6070": 62,
        "6071": 249,
        "6072": 247,
        "6073": 131,
        "6074": 142,
        "6075": 160,
        "6076": 174,
        "6077": 40,
        "6078": 64,
        "6079": 25,
        "6080": 8,
        "6081": 5,
        "6082": 83,
        "6083": 130,
        "6084": 214,
        "6085": 46,
        "6086": 238,
        "6087": 99,
        "6088": 190,
        "6089": 44,
        "6090": 79,
        "6091": 39,
        "6092": 19,
        "6093": 72,
        "6094": 144,
        "6095": 156,
        "6096": 15,
        "6097": 108,
        "6098": 246,
        "6099": 32,
        "6100": 13,
        "6101": 219,
        "6102": 152,
        "6103": 216,
        "6104": 17,
        "6105": 88,
        "6106": 26,
        "6107": 159,
        "6108": 22,
        "6109": 143,
        "6110": 255,
        "6111": 44,
        "6112": 147,
        "6113": 204,
        "6114": 166,
        "6115": 216,
        "6116": 95,
        "6117": 200,
        "6118": 139,
        "6119": 13,
        "6120": 55,
        "6121": 210,
        "6122": 236,
        "6123": 131,
        "6124": 131,
        "6125": 73,
        "6126": 173,
        "6127": 91,
        "6128": 20,
        "6129": 219,
        "6130": 45,
        "6131": 203,
        "6132": 233,
        "6133": 50,
        "6134": 45,
        "6135": 59,
        "6136": 14,
        "6137": 189,
        "6138": 226,
        "6139": 159,
        "6140": 76,
        "6141": 251,
        "6142": 61,
        "6143": 128,
        "6144": 79,
        "6145": 6,
        "6146": 193,
        "6147": 101,
        "6148": 207,
        "6149": 35,
        "6150": 61,
        "6151": 19,
        "6152": 4,
        "6153": 47,
        "6154": 144,
        "6155": 231,
        "6156": 58,
        "6157": 43,
        "6158": 25,
        "6159": 171,
        "6160": 245,
        "6161": 93,
        "6162": 106,
        "6163": 245,
        "6164": 43,
        "6165": 208,
        "6166": 25,
        "6167": 30,
        "6168": 180,
        "6169": 183,
        "6170": 123,
        "6171": 171,
        "6172": 76,
        "6173": 172,
        "6174": 203,
        "6175": 237,
        "6176": 175,
        "6177": 161,
        "6178": 200,
        "6179": 179,
        "6180": 83,
        "6181": 205,
        "6182": 11,
        "6183": 117,
        "6184": 0,
        "6185": 114,
        "6186": 92,
        "6187": 134,
        "6188": 162,
        "6189": 140,
        "6190": 226,
        "6191": 97,
        "6192": 206,
        "6193": 174,
        "6194": 226,
        "6195": 235,
        "6196": 45,
        "6197": 26,
        "6198": 69,
        "6199": 213,
        "6200": 27,
        "6201": 111,
        "6202": 237,
        "6203": 122,
        "6204": 80,
        "6205": 229,
        "6206": 251,
        "6207": 205,
        "6208": 85,
        "6209": 127,
        "6210": 72,
        "6211": 38,
        "6212": 97,
        "6213": 235,
        "6214": 201,
        "6215": 94,
        "6216": 9,
        "6217": 161,
        "6218": 189,
        "6219": 240,
        "6220": 240,
        "6221": 75,
        "6222": 135,
        "6223": 62,
        "6224": 137,
        "6225": 250,
        "6226": 136,
        "6227": 65,
        "6228": 98,
        "6229": 95,
        "6230": 122,
        "6231": 227,
        "6232": 210,
        "6233": 35,
        "6234": 224,
        "6235": 95,
        "6236": 222,
        "6237": 200,
        "6238": 99,
        "6239": 68,
        "6240": 13,
        "6241": 189,
        "6242": 220,
        "6243": 84,
        "6244": 84,
        "6245": 55,
        "6246": 107,
        "6247": 237,
        "6248": 147,
        "6249": 78,
        "6250": 17,
        "6251": 28,
        "6252": 151,
        "6253": 125,
        "6254": 137,
        "6255": 156,
        "6256": 88,
        "6257": 156,
        "6258": 215,
        "6259": 165,
        "6260": 44,
        "6261": 214,
        "6262": 87,
        "6263": 145,
        "6264": 148,
        "6265": 60,
        "6266": 38,
        "6267": 214,
        "6268": 142,
        "6269": 51,
        "6270": 83,
        "6271": 142,
        "6272": 32,
        "6273": 223,
        "6274": 148,
        "6275": 59,
        "6276": 251,
        "6277": 239,
        "6278": 203,
        "6279": 176,
        "6280": 145,
        "6281": 38,
        "6282": 251,
        "6283": 207,
        "6284": 9,
        "6285": 136,
        "6286": 177,
        "6287": 108,
        "6288": 150,
        "6289": 152,
        "6290": 85,
        "6291": 195,
        "6292": 214,
        "6293": 128,
        "6294": 145,
        "6295": 118,
        "6296": 230,
        "6297": 209,
        "6298": 239,
        "6299": 115,
        "6300": 116,
        "6301": 95,
        "6302": 197,
        "6303": 234,
        "6304": 1,
        "6305": 178,
        "6306": 98,
        "6307": 194,
        "6308": 81,
        "6309": 225,
        "6310": 39,
        "6311": 119,
        "6312": 108,
        "6313": 200,
        "6314": 103,
        "6315": 196,
        "6316": 212,
        "6317": 195,
        "6318": 71,
        "6319": 224,
        "6320": 23,
        "6321": 169,
        "6322": 98,
        "6323": 90,
        "6324": 86,
        "6325": 44,
        "6326": 149,
        "6327": 132,
        "6328": 40,
        "6329": 166,
        "6330": 135,
        "6331": 55,
        "6332": 111,
        "6333": 227,
        "6334": 191,
        "6335": 5,
        "6336": 102,
        "6337": 35,
        "6338": 79,
        "6339": 4,
        "6340": 163,
        "6341": 9,
        "6342": 233,
        "6343": 116,
        "6344": 204,
        "6345": 128,
        "6346": 211,
        "6347": 63,
        "6348": 5,
        "6349": 123,
        "6350": 126,
        "6351": 118,
        "6352": 76,
        "6353": 179,
        "6354": 38,
        "6355": 175,
        "6356": 44,
        "6357": 79,
        "6358": 1,
        "6359": 32,
        "6360": 253,
        "6361": 193,
        "6362": 84,
        "6363": 165,
        "6364": 128,
        "6365": 39,
        "6366": 184,
        "6367": 236,
        "6368": 190,
        "6369": 103,
        "6370": 104,
        "6371": 54,
        "6372": 142,
        "6373": 103,
        "6374": 111,
        "6375": 247,
        "6376": 91,
        "6377": 55,
        "6378": 6,
        "6379": 76,
        "6380": 59,
        "6381": 145,
        "6382": 198,
        "6383": 97,
        "6384": 121,
        "6385": 67,
        "6386": 137,
        "6387": 199,
        "6388": 3,
        "6389": 5,
        "6390": 22,
        "6391": 62,
        "6392": 204,
        "6393": 198,
        "6394": 114,
        "6395": 16,
        "6396": 44,
        "6397": 209,
        "6398": 241,
        "6399": 131,
        "6400": 123,
        "6401": 7,
        "6402": 222,
        "6403": 99,
        "6404": 247,
        "6405": 126,
        "6406": 246,
        "6407": 194,
        "6408": 5,
        "6409": 170,
        "6410": 189,
        "6411": 133,
        "6412": 39,
        "6413": 146,
        "6414": 156,
        "6415": 250,
        "6416": 241,
        "6417": 81,
        "6418": 144,
        "6419": 149,
        "6420": 151,
        "6421": 74,
        "6422": 121,
        "6423": 119,
        "6424": 241,
        "6425": 5,
        "6426": 217,
        "6427": 185,
        "6428": 241,
        "6429": 243,
        "6430": 234,
        "6431": 48,
        "6432": 62,
        "6433": 108,
        "6434": 235,
        "6435": 114,
        "6436": 49,
        "6437": 104,
        "6438": 48,
        "6439": 167,
        "6440": 91,
        "6441": 176,
        "6442": 7,
        "6443": 36,
        "6444": 61,
        "6445": 97,
        "6446": 145,
        "6447": 34,
        "6448": 218,
        "6449": 234,
        "6450": 204,
        "6451": 33,
        "6452": 67,
        "6453": 1,
        "6454": 77,
        "6455": 165,
        "6456": 235,
        "6457": 9,
        "6458": 209,
        "6459": 56,
        "6460": 114,
        "6461": 59,
        "6462": 91,
        "6463": 194,
        "6464": 232,
        "6465": 45,
        "6466": 92,
        "6467": 135,
        "6468": 201,
        "6469": 85,
        "6470": 89,
        "6471": 190,
        "6472": 225,
        "6473": 202,
        "6474": 192,
        "6475": 167,
        "6476": 179,
        "6477": 76,
        "6478": 124,
        "6479": 206,
        "6480": 190,
        "6481": 217,
        "6482": 106,
        "6483": 242,
        "6484": 8,
        "6485": 250,
        "6486": 42,
        "6487": 168,
        "6488": 4,
        "6489": 223,
        "6490": 48,
        "6491": 99,
        "6492": 26,
        "6493": 13,
        "6494": 48,
        "6495": 13,
        "6496": 105,
        "6497": 106,
        "6498": 24,
        "6499": 180,
        "6500": 200,
        "6501": 135,
        "6502": 51,
        "6503": 101,
        "6504": 119,
        "6505": 199,
        "6506": 230,
        "6507": 199,
        "6508": 24,
        "6509": 139,
        "6510": 109,
        "6511": 151,
        "6512": 195,
        "6513": 233,
        "6514": 237,
        "6515": 66,
        "6516": 211,
        "6517": 151,
        "6518": 171,
        "6519": 123,
        "6520": 68,
        "6521": 38,
        "6522": 119,
        "6523": 138,
        "6524": 14,
        "6525": 142,
        "6526": 216,
        "6527": 46,
        "6528": 235,
        "6529": 91,
        "6530": 171,
        "6531": 33,
        "6532": 170,
        "6533": 88,
        "6534": 187,
        "6535": 53,
        "6536": 79,
        "6537": 92,
        "6538": 190,
        "6539": 110,
        "6540": 46,
        "6541": 52,
        "6542": 91,
        "6543": 112,
        "6544": 119,
        "6545": 235,
        "6546": 112,
        "6547": 175,
        "6548": 241,
        "6549": 159,
        "6550": 145,
        "6551": 227,
        "6552": 129,
        "6553": 223,
        "6554": 221,
        "6555": 177,
        "6556": 86,
        "6557": 27,
        "6558": 188,
        "6559": 165,
        "6560": 58,
        "6561": 227,
        "6562": 115,
        "6563": 132,
        "6564": 122,
        "6565": 234,
        "6566": 198,
        "6567": 171,
        "6568": 230,
        "6569": 26,
        "6570": 199,
        "6571": 123,
        "6572": 52,
        "6573": 98,
        "6574": 8,
        "6575": 163,
        "6576": 192,
        "6577": 19,
        "6578": 193,
        "6579": 102,
        "6580": 245,
        "6581": 254,
        "6582": 203,
        "6583": 117,
        "6584": 155,
        "6585": 103,
        "6586": 112,
        "6587": 179,
        "6588": 231,
        "6589": 175,
        "6590": 55,
        "6591": 167,
        "6592": 204,
        "6593": 173,
        "6594": 172,
        "6595": 206,
        "6596": 6,
        "6597": 123,
        "6598": 95,
        "6599": 119,
        "6600": 102,
        "6601": 167,
        "6602": 59,
        "6603": 95,
        "6604": 66,
        "6605": 139,
        "6606": 25,
        "6607": 120,
        "6608": 143,
        "6609": 254,
        "6610": 105,
        "6611": 198,
        "6612": 106,
        "6613": 90,
        "6614": 24,
        "6615": 114,
        "6616": 148,
        "6617": 104,
        "6618": 239,
        "6619": 208,
        "6620": 144,
        "6621": 91,
        "6622": 203,
        "6623": 181,
        "6624": 2,
        "6625": 201,
        "6626": 235,
        "6627": 78,
        "6628": 244,
        "6629": 92,
        "6630": 246,
        "6631": 174,
        "6632": 62,
        "6633": 253,
        "6634": 98,
        "6635": 230,
        "6636": 131,
        "6637": 93,
        "6638": 224,
        "6639": 248,
        "6640": 107,
        "6641": 171,
        "6642": 85,
        "6643": 62,
        "6644": 121,
        "6645": 82,
        "6646": 7,
        "6647": 43,
        "6648": 78,
        "6649": 43,
        "6650": 187,
        "6651": 189,
        "6652": 241,
        "6653": 13,
        "6654": 117,
        "6655": 127,
        "6656": 113,
        "6657": 63,
        "6658": 147,
        "6659": 120,
        "6660": 192,
        "6661": 43,
        "6662": 205,
        "6663": 9,
        "6664": 80,
        "6665": 52,
        "6666": 250,
        "6667": 122,
        "6668": 225,
        "6669": 148,
        "6670": 71,
        "6671": 134,
        "6672": 175,
        "6673": 52,
        "6674": 25,
        "6675": 181,
        "6676": 236,
        "6677": 89,
        "6678": 219,
        "6679": 28,
        "6680": 115,
        "6681": 44,
        "6682": 65,
        "6683": 151,
        "6684": 111,
        "6685": 142,
        "6686": 144,
        "6687": 172,
        "6688": 111,
        "6689": 105,
        "6690": 90,
        "6691": 145,
        "6692": 174,
        "6693": 248,
        "6694": 78,
        "6695": 33,
        "6696": 12,
        "6697": 155,
        "6698": 126,
        "6699": 40,
        "6700": 16,
        "6701": 161,
        "6702": 243,
        "6703": 62,
        "6704": 30,
        "6705": 41,
        "6706": 254,
        "6707": 210,
        "6708": 134,
        "6709": 84,
        "6710": 145,
        "6711": 69,
        "6712": 39,
        "6713": 134,
        "6714": 58,
        "6715": 69,
        "6716": 116,
        "6717": 24,
        "6718": 63,
        "6719": 194,
        "6720": 50,
        "6721": 185,
        "6722": 243,
        "6723": 172,
        "6724": 71,
        "6725": 9,
        "6726": 78,
        "6727": 191,
        "6728": 169,
        "6729": 130,
        "6730": 148,
        "6731": 174,
        "6732": 33,
        "6733": 209,
        "6734": 54,
        "6735": 246,
        "6736": 245,
        "6737": 87,
        "6738": 241,
        "6739": 194,
        "6740": 59,
        "6741": 51,
        "6742": 82,
        "6743": 77,
        "6744": 18,
        "6745": 4,
        "6746": 173,
        "6747": 176,
        "6748": 16,
        "6749": 197,
        "6750": 11,
        "6751": 240,
        "6752": 147,
        "6753": 46,
        "6754": 17,
        "6755": 231,
        "6756": 97,
        "6757": 12,
        "6758": 71,
        "6759": 66,
        "6760": 181,
        "6761": 17,
        "6762": 220,
        "6763": 69,
        "6764": 149,
        "6765": 130,
        "6766": 4,
        "6767": 56,
        "6768": 65,
        "6769": 106,
        "6770": 70,
        "6771": 179,
        "6772": 93,
        "6773": 54,
        "6774": 20,
        "6775": 98,
        "6776": 223,
        "6777": 66,
        "6778": 62,
        "6779": 74,
        "6780": 129,
        "6781": 45,
        "6782": 36,
        "6783": 251,
        "6784": 245,
        "6785": 97,
        "6786": 228,
        "6787": 249,
        "6788": 152,
        "6789": 15,
        "6790": 199,
        "6791": 86,
        "6792": 146,
        "6793": 37,
        "6794": 84,
        "6795": 24,
        "6796": 194,
        "6797": 19,
        "6798": 213,
        "6799": 35,
        "6800": 194,
        "6801": 188,
        "6802": 133,
        "6803": 65,
        "6804": 160,
        "6805": 36,
        "6806": 246,
        "6807": 163,
        "6808": 94,
        "6809": 44,
        "6810": 68,
        "6811": 197,
        "6812": 159,
        "6813": 224,
        "6814": 97,
        "6815": 62,
        "6816": 23,
        "6817": 193,
        "6818": 113,
        "6819": 245,
        "6820": 30,
        "6821": 150,
        "6822": 97,
        "6823": 222,
        "6824": 171,
        "6825": 209,
        "6826": 77,
        "6827": 15,
        "6828": 217,
        "6829": 26,
        "6830": 161,
        "6831": 130,
        "6832": 232,
        "6833": 3,
        "6834": 169,
        "6835": 150,
        "6836": 236,
        "6837": 133,
        "6838": 32,
        "6839": 157,
        "6840": 190,
        "6841": 106,
        "6842": 159,
        "6843": 246,
        "6844": 206,
        "6845": 196,
        "6846": 44,
        "6847": 126,
        "6848": 35,
        "6849": 186,
        "6850": 230,
        "6851": 112,
        "6852": 73,
        "6853": 16,
        "6854": 109,
        "6855": 12,
        "6856": 107,
        "6857": 205,
        "6858": 248,
        "6859": 107,
        "6860": 208,
        "6861": 198,
        "6862": 114,
        "6863": 45,
        "6864": 13,
        "6865": 242,
        "6866": 57,
        "6867": 211,
        "6868": 201,
        "6869": 223,
        "6870": 173,
        "6871": 66,
        "6872": 219,
        "6873": 235,
        "6874": 11,
        "6875": 7,
        "6876": 131,
        "6877": 168,
        "6878": 35,
        "6879": 209,
        "6880": 230,
        "6881": 156,
        "6882": 40,
        "6883": 186,
        "6884": 121,
        "6885": 131,
        "6886": 248,
        "6887": 165,
        "6888": 104,
        "6889": 209,
        "6890": 201,
        "6891": 222,
        "6892": 185,
        "6893": 0,
        "6894": 75,
        "6895": 173,
        "6896": 196,
        "6897": 118,
        "6898": 176,
        "6899": 50,
        "6900": 106,
        "6901": 23,
        "6902": 116,
        "6903": 56,
        "6904": 171,
        "6905": 10,
        "6906": 53,
        "6907": 113,
        "6908": 139,
        "6909": 27,
        "6910": 229,
        "6911": 208,
        "6912": 68,
        "6913": 218,
        "6914": 88,
        "6915": 132,
        "6916": 158,
        "6917": 36,
        "6918": 82,
        "6919": 239,
        "6920": 189,
        "6921": 224,
        "6922": 139,
        "6923": 102,
        "6924": 2,
        "6925": 154,
        "6926": 38,
        "6927": 174,
        "6928": 91,
        "6929": 99,
        "6930": 156,
        "6931": 32,
        "6932": 93,
        "6933": 154,
        "6934": 18,
        "6935": 15,
        "6936": 165,
        "6937": 233,
        "6938": 229,
        "6939": 149,
        "6940": 189,
        "6941": 27,
        "6942": 171,
        "6943": 109,
        "6944": 27,
        "6945": 38,
        "6946": 83,
        "6947": 191,
        "6948": 120,
        "6949": 16,
        "6950": 126,
        "6951": 93,
        "6952": 153,
        "6953": 234,
        "6954": 209,
        "6955": 83,
        "6956": 27,
        "6957": 200,
        "6958": 9,
        "6959": 126,
        "6960": 30,
        "6961": 213,
        "6962": 44,
        "6963": 240,
        "6964": 203,
        "6965": 32,
        "6966": 24,
        "6967": 203,
        "6968": 254,
        "6969": 254,
        "6970": 184,
        "6971": 198,
        "6972": 181,
        "6973": 4,
        "6974": 123,
        "6975": 250,
        "6976": 90,
        "6977": 126,
        "6978": 82,
        "6979": 85,
        "6980": 35,
        "6981": 80,
        "6982": 249,
        "6983": 46,
        "6984": 103,
        "6985": 16,
        "6986": 135,
        "6987": 220,
        "6988": 170,
        "6989": 75,
        "6990": 247,
        "6991": 49,
        "6992": 142,
        "6993": 220,
        "6994": 82,
        "6995": 190,
        "6996": 235,
        "6997": 66,
        "6998": 129,
        "6999": 82,
        "7000": 97,
        "7001": 144,
        "7002": 160,
        "7003": 79,
        "7004": 137,
        "7005": 180,
        "7006": 179,
        "7007": 170,
        "7008": 163,
        "7009": 161,
        "7010": 144,
        "7011": 104,
        "7012": 29,
        "7013": 165,
        "7014": 90,
        "7015": 148,
        "7016": 142,
        "7017": 201,
        "7018": 34,
        "7019": 112,
        "7020": 141,
        "7021": 77,
        "7022": 218,
        "7023": 199,
        "7024": 16,
        "7025": 15,
        "7026": 223,
        "7027": 172,
        "7028": 133,
        "7029": 123,
        "7030": 28,
        "7031": 148,
        "7032": 120,
        "7033": 197,
        "7034": 0,
        "7035": 63,
        "7036": 49,
        "7037": 89,
        "7038": 239,
        "7039": 83,
        "7040": 237,
        "7041": 175,
        "7042": 209,
        "7043": 24,
        "7044": 62,
        "7045": 17,
        "7046": 122,
        "7047": 17,
        "7048": 160,
        "7049": 184,
        "7050": 6,
        "7051": 178,
        "7052": 221,
        "7053": 144,
        "7054": 183,
        "7055": 81,
        "7056": 199,
        "7057": 214,
        "7058": 72,
        "7059": 185,
        "7060": 104,
        "7061": 211,
        "7062": 54,
        "7063": 21,
        "7064": 61,
        "7065": 55,
        "7066": 176,
        "7067": 76,
        "7068": 38,
        "7069": 248,
        "7070": 160,
        "7071": 204,
        "7072": 82,
        "7073": 34,
        "7074": 138,
        "7075": 163,
        "7076": 14,
        "7077": 161,
        "7078": 109,
        "7079": 63,
        "7080": 17,
        "7081": 212,
        "7082": 129,
        "7083": 18,
        "7084": 252,
        "7085": 13,
        "7086": 46,
        "7087": 190,
        "7088": 172,
        "7089": 248,
        "7090": 176,
        "7091": 142,
        "7092": 112,
        "7093": 252,
        "7094": 101,
        "7095": 85,
        "7096": 49,
        "7097": 177,
        "7098": 237,
        "7099": 72,
        "7100": 5,
        "7101": 127,
        "7102": 39,
        "7103": 54,
        "7104": 92,
        "7105": 166,
        "7106": 151,
        "7107": 248,
        "7108": 231,
        "7109": 165,
        "7110": 205,
        "7111": 56,
        "7112": 221,
        "7113": 244,
        "7114": 243,
        "7115": 94,
        "7116": 253,
        "7117": 51,
        "7118": 253,
        "7119": 210,
        "7120": 7,
        "7121": 79,
        "7122": 184,
        "7123": 165,
        "7124": 183,
        "7125": 192,
        "7126": 240,
        "7127": 125,
        "7128": 9,
        "7129": 157,
        "7130": 91,
        "7131": 3,
        "7132": 31,
        "7133": 77,
        "7134": 64,
        "7135": 213,
        "7136": 175,
        "7137": 3,
        "7138": 48,
        "7139": 237,
        "7140": 51,
        "7141": 190,
        "7142": 191,
        "7143": 111,
        "7144": 39,
        "7145": 221,
        "7146": 126,
        "7147": 223,
        "7148": 201,
        "7149": 88,
        "7150": 227,
        "7151": 119,
        "7152": 112,
        "7153": 9,
        "7154": 120,
        "7155": 68,
        "7156": 168,
        "7157": 116,
        "7158": 200,
        "7159": 41,
        "7160": 111,
        "7161": 83,
        "7162": 150,
        "7163": 189,
        "7164": 246,
        "7165": 29,
        "7166": 40,
        "7167": 174,
        "7168": 193,
        "7169": 90,
        "7170": 127,
        "7171": 66,
        "7172": 202,
        "7173": 223,
        "7174": 59,
        "7175": 82,
        "7176": 214,
        "7177": 194,
        "7178": 34,
        "7179": 201,
        "7180": 107,
        "7181": 82,
        "7182": 9,
        "7183": 122,
        "7184": 187,
        "7185": 73,
        "7186": 211,
        "7187": 36,
        "7188": 56,
        "7189": 84,
        "7190": 106,
        "7191": 32,
        "7192": 104,
        "7193": 170,
        "7194": 77,
        "7195": 251,
        "7196": 21,
        "7197": 238,
        "7198": 8,
        "7199": 36,
        "7200": 34,
        "7201": 80,
        "7202": 60,
        "7203": 181,
        "7204": 32,
        "7205": 60,
        "7206": 63,
        "7207": 132,
        "7208": 11,
        "7209": 237,
        "7210": 145,
        "7211": 251,
        "7212": 242,
        "7213": 96,
        "7214": 54,
        "7215": 30,
        "7216": 136,
        "7217": 9,
        "7218": 15,
        "7219": 22,
        "7220": 226,
        "7221": 124,
        "7222": 19,
        "7223": 250,
        "7224": 51,
        "7225": 134,
        "7226": 218,
        "7227": 50,
        "7228": 83,
        "7229": 248,
        "7230": 94,
        "7231": 48,
        "7232": 91,
        "7233": 172,
        "7234": 255,
        "7235": 10,
        "7236": 154,
        "7237": 4,
        "7238": 3,
        "7239": 105,
        "7240": 87,
        "7241": 134,
        "7242": 202,
        "7243": 70,
        "7244": 126,
        "7245": 20,
        "7246": 54,
        "7247": 84,
        "7248": 137,
        "7249": 232,
        "7250": 48,
        "7251": 132,
        "7252": 158,
        "7253": 78,
        "7254": 88,
        "7255": 129,
        "7256": 255,
        "7257": 80,
        "7258": 151,
        "7259": 105,
        "7260": 180,
        "7261": 244,
        "7262": 90,
        "7263": 242,
        "7264": 186,
        "7265": 111,
        "7266": 140,
        "7267": 79,
        "7268": 50,
        "7269": 206,
        "7270": 0,
        "7271": 239,
        "7272": 7,
        "7273": 140,
        "7274": 132,
        "7275": 131,
        "7276": 215,
        "7277": 91,
        "7278": 146,
        "7279": 241,
        "7280": 98,
        "7281": 34,
        "7282": 225,
        "7283": 224,
        "7284": 209,
        "7285": 177,
        "7286": 208,
        "7287": 196,
        "7288": 156,
        "7289": 32,
        "7290": 21,
        "7291": 229,
        "7292": 139,
        "7293": 228,
        "7294": 248,
        "7295": 50,
        "7296": 94,
        "7297": 97,
        "7298": 213,
        "7299": 206,
        "7300": 175,
        "7301": 43,
        "7302": 72,
        "7303": 100,
        "7304": 219,
        "7305": 214,
        "7306": 158,
        "7307": 154,
        "7308": 225,
        "7309": 241,
        "7310": 205,
        "7311": 48,
        "7312": 191,
        "7313": 39,
        "7314": 224,
        "7315": 75,
        "7316": 95,
        "7317": 100,
        "7318": 39,
        "7319": 189,
        "7320": 111,
        "7321": 100,
        "7322": 247,
        "7323": 26,
        "7324": 90,
        "7325": 87,
        "7326": 242,
        "7327": 174,
        "7328": 162,
        "7329": 43,
        "7330": 215,
        "7331": 106,
        "7332": 102,
        "7333": 54,
        "7334": 58,
        "7335": 204,
        "7336": 201,
        "7337": 47,
        "7338": 52,
        "7339": 208,
        "7340": 37,
        "7341": 163,
        "7342": 104,
        "7343": 239,
        "7344": 24,
        "7345": 6,
        "7346": 229,
        "7347": 148,
        "7348": 134,
        "7349": 23,
        "7350": 144,
        "7351": 244,
        "7352": 165,
        "7353": 130,
        "7354": 151,
        "7355": 228,
        "7356": 254,
        "7357": 101,
        "7358": 74,
        "7359": 16,
        "7360": 166,
        "7361": 159,
        "7362": 205,
        "7363": 22,
        "7364": 233,
        "7365": 6,
        "7366": 37,
        "7367": 68,
        "7368": 98,
        "7369": 58,
        "7370": 20,
        "7371": 237,
        "7372": 91,
        "7373": 183,
        "7374": 93,
        "7375": 217,
        "7376": 122,
        "7377": 151,
        "7378": 167,
        "7379": 137,
        "7380": 193,
        "7381": 144,
        "7382": 3,
        "7383": 158,
        "7384": 104,
        "7385": 70,
        "7386": 185,
        "7387": 254,
        "7388": 167,
        "7389": 245,
        "7390": 243,
        "7391": 185,
        "7392": 213,
        "7393": 77,
        "7394": 179,
        "7395": 126,
        "7396": 47,
        "7397": 21,
        "7398": 196,
        "7399": 153,
        "7400": 74,
        "7401": 219,
        "7402": 30,
        "7403": 32,
        "7404": 98,
        "7405": 20,
        "7406": 56,
        "7407": 6,
        "7408": 149,
        "7409": 143,
        "7410": 31,
        "7411": 189,
        "7412": 50,
        "7413": 134,
        "7414": 67,
        "7415": 128,
        "7416": 72,
        "7417": 244,
        "7418": 96,
        "7419": 188,
        "7420": 185,
        "7421": 72,
        "7422": 104,
        "7423": 228,
        "7424": 112,
        "7425": 56,
        "7426": 46,
        "7427": 165,
        "7428": 170,
        "7429": 201,
        "7430": 39,
        "7431": 217,
        "7432": 72,
        "7433": 56,
        "7434": 198,
        "7435": 46,
        "7436": 108,
        "7437": 111,
        "7438": 104,
        "7439": 77,
        "7440": 74,
        "7441": 70,
        "7442": 140,
        "7443": 184,
        "7444": 106,
        "7445": 133,
        "7446": 216,
        "7447": 175,
        "7448": 208,
        "7449": 90,
        "7450": 213,
        "7451": 5,
        "7452": 80,
        "7453": 28,
        "7454": 218,
        "7455": 129,
        "7456": 218,
        "7457": 114,
        "7458": 234,
        "7459": 115,
        "7460": 248,
        "7461": 137,
        "7462": 41,
        "7463": 201,
        "7464": 248,
        "7465": 213,
        "7466": 68,
        "7467": 36,
        "7468": 175,
        "7469": 111,
        "7470": 120,
        "7471": 30,
        "7472": 121,
        "7473": 9,
        "7474": 221,
        "7475": 35,
        "7476": 176,
        "7477": 108,
        "7478": 71,
        "7479": 92,
        "7480": 149,
        "7481": 122,
        "7482": 244,
        "7483": 3,
        "7484": 59,
        "7485": 16,
        "7486": 35,
        "7487": 161,
        "7488": 91,
        "7489": 188,
        "7490": 21,
        "7491": 154,
        "7492": 52,
        "7493": 47,
        "7494": 80,
        "7495": 30,
        "7496": 87,
        "7497": 192,
        "7498": 192,
        "7499": 118,
        "7500": 237,
        "7501": 175,
        "7502": 122,
        "7503": 249,
        "7504": 148,
        "7505": 100,
        "7506": 72,
        "7507": 108,
        "7508": 133,
        "7509": 158,
        "7510": 15,
        "7511": 10,
        "7512": 68,
        "7513": 184,
        "7514": 116,
        "7515": 200,
        "7516": 98,
        "7517": 201,
        "7518": 12,
        "7519": 211,
        "7520": 51,
        "7521": 236,
        "7522": 71,
        "7523": 219,
        "7524": 155,
        "7525": 205,
        "7526": 59,
        "7527": 38,
        "7528": 40,
        "7529": 160,
        "7530": 72,
        "7531": 226,
        "7532": 42,
        "7533": 177,
        "7534": 50,
        "7535": 225,
        "7536": 129,
        "7537": 4,
        "7538": 31,
        "7539": 90,
        "7540": 0,
        "7541": 215,
        "7542": 161,
        "7543": 81,
        "7544": 56,
        "7545": 27,
        "7546": 237,
        "7547": 128,
        "7548": 3,
        "7549": 169,
        "7550": 181,
        "7551": 199,
        "7552": 137,
        "7553": 228,
        "7554": 121,
        "7555": 154,
        "7556": 21,
        "7557": 170,
        "7558": 5,
        "7559": 26,
        "7560": 232,
        "7561": 188,
        "7562": 58,
        "7563": 238,
        "7564": 228,
        "7565": 78,
        "7566": 153,
        "7567": 253,
        "7568": 251,
        "7569": 108,
        "7570": 153,
        "7571": 123,
        "7572": 203,
        "7573": 231,
        "7574": 139,
        "7575": 83,
        "7576": 60,
        "7577": 207,
        "7578": 247,
        "7579": 161,
        "7580": 152,
        "7581": 35,
        "7582": 102,
        "7583": 234,
        "7584": 205,
        "7585": 44,
        "7586": 147,
        "7587": 13,
        "7588": 89,
        "7589": 83,
        "7590": 111,
        "7591": 10,
        "7592": 207,
        "7593": 128,
        "7594": 199,
        "7595": 209,
        "7596": 176,
        "7597": 76,
        "7598": 93,
        "7599": 53,
        "7600": 132,
        "7601": 82,
        "7602": 132,
        "7603": 142,
        "7604": 61,
        "7605": 14,
        "7606": 212,
        "7607": 12,
        "7608": 62,
        "7609": 245,
        "7610": 96,
        "7611": 155,
        "7612": 221,
        "7613": 0,
        "7614": 119,
        "7615": 150,
        "7616": 99,
        "7617": 130,
        "7618": 184,
        "7619": 138,
        "7620": 193,
        "7621": 114,
        "7622": 67,
        "7623": 255,
        "7624": 136,
        "7625": 220,
        "7626": 41,
        "7627": 187,
        "7628": 187,
        "7629": 193,
        "7630": 60,
        "7631": 144,
        "7632": 76,
        "7633": 60,
        "7634": 241,
        "7635": 42,
        "7636": 88,
        "7637": 139,
        "7638": 92,
        "7639": 100,
        "7640": 109,
        "7641": 196,
        "7642": 26,
        "7643": 24,
        "7644": 15,
        "7645": 57,
        "7646": 51,
        "7647": 113,
        "7648": 170,
        "7649": 41,
        "7650": 229,
        "7651": 117,
        "7652": 57,
        "7653": 242,
        "7654": 228,
        "7655": 173,
        "7656": 251,
        "7657": 163,
        "7658": 206,
        "7659": 220,
        "7660": 12,
        "7661": 177,
        "7662": 5,
        "7663": 107,
        "7664": 89,
        "7665": 131,
        "7666": 146,
        "7667": 111,
        "7668": 192,
        "7669": 106,
        "7670": 235,
        "7671": 119,
        "7672": 28,
        "7673": 205,
        "7674": 116,
        "7675": 147,
        "7676": 86,
        "7677": 36,
        "7678": 97,
        "7679": 206,
        "7680": 23,
        "7681": 168,
        "7682": 26,
        "7683": 95,
        "7684": 151,
        "7685": 100,
        "7686": 203,
        "7687": 147,
        "7688": 119,
        "7689": 84,
        "7690": 148,
        "7691": 56,
        "7692": 21,
        "7693": 85,
        "7694": 155,
        "7695": 233,
        "7696": 237,
        "7697": 234,
        "7698": 82,
        "7699": 204,
        "7700": 104,
        "7701": 143,
        "7702": 64,
        "7703": 177,
        "7704": 25,
        "7705": 53,
        "7706": 203,
        "7707": 115,
        "7708": 145,
        "7709": 214,
        "7710": 20,
        "7711": 175,
        "7712": 122,
        "7713": 100,
        "7714": 242,
        "7715": 57,
        "7716": 120,
        "7717": 154,
        "7718": 213,
        "7719": 32,
        "7720": 243,
        "7721": 58,
        "7722": 71,
        "7723": 100,
        "7724": 95,
        "7725": 149,
        "7726": 219,
        "7727": 53,
        "7728": 65,
        "7729": 33,
        "7730": 80,
        "7731": 31,
        "7732": 225,
        "7733": 11,
        "7734": 164,
        "7735": 227,
        "7736": 29,
        "7737": 233,
        "7738": 108,
        "7739": 2,
        "7740": 55,
        "7741": 142,
        "7742": 214,
        "7743": 174,
        "7744": 55,
        "7745": 46,
        "7746": 127,
        "7747": 77,
        "7748": 94,
        "7749": 154,
        "7750": 15,
        "7751": 45,
        "7752": 151,
        "7753": 23,
        "7754": 110,
        "7755": 91,
        "7756": 144,
        "7757": 106,
        "7758": 110,
        "7759": 115,
        "7760": 53,
        "7761": 31,
        "7762": 17,
        "7763": 227,
        "7764": 98,
        "7765": 167,
        "7766": 243,
        "7767": 90,
        "7768": 53,
        "7769": 98,
        "7770": 219,
        "7771": 136,
        "7772": 190,
        "7773": 61,
        "7774": 22,
        "7775": 129,
        "7776": 38,
        "7777": 191,
        "7778": 236,
        "7779": 64,
        "7780": 186,
        "7781": 151,
        "7782": 110,
        "7783": 203,
        "7784": 209,
        "7785": 121,
        "7786": 218,
        "7787": 194,
        "7788": 173,
        "7789": 174,
        "7790": 216,
        "7791": 232,
        "7792": 16,
        "7793": 146,
        "7794": 211,
        "7795": 25,
        "7796": 227,
        "7797": 114,
        "7798": 46,
        "7799": 232,
        "7800": 135,
        "7801": 207,
        "7802": 108,
        "7803": 96,
        "7804": 187,
        "7805": 124,
        "7806": 125,
        "7807": 52,
        "7808": 68,
        "7809": 28,
        "7810": 186,
        "7811": 159,
        "7812": 187,
        "7813": 86,
        "7814": 18,
        "7815": 69,
        "7816": 58,
        "7817": 134,
        "7818": 67,
        "7819": 78,
        "7820": 162,
        "7821": 164,
        "7822": 60,
        "7823": 102,
        "7824": 18,
        "7825": 77,
        "7826": 156,
        "7827": 236,
        "7828": 77,
        "7829": 33,
        "7830": 180,
        "7831": 41,
        "7832": 173,
        "7833": 106,
        "7834": 173,
        "7835": 7,
        "7836": 57,
        "7837": 148,
        "7838": 80,
        "7839": 157,
        "7840": 193,
        "7841": 251,
        "7842": 55,
        "7843": 29,
        "7844": 196,
        "7845": 107,
        "7846": 95,
        "7847": 1,
        "7848": 186,
        "7849": 159,
        "7850": 232,
        "7851": 236,
        "7852": 14,
        "7853": 68,
        "7854": 88,
        "7855": 246,
        "7856": 241,
        "7857": 200,
        "7858": 113,
        "7859": 122,
        "7860": 128,
        "7861": 46,
        "7862": 4,
        "7863": 6,
        "7864": 196,
        "7865": 223,
        "7866": 216,
        "7867": 163,
        "7868": 70,
        "7869": 245,
        "7870": 226,
        "7871": 173,
        "7872": 162,
        "7873": 126,
        "7874": 130,
        "7875": 193,
        "7876": 129,
        "7877": 50,
        "7878": 212,
        "7879": 128,
        "7880": 128,
        "7881": 147,
        "7882": 54,
        "7883": 158,
        "7884": 89,
        "7885": 232,
        "7886": 49,
        "7887": 96,
        "7888": 219,
        "7889": 10,
        "7890": 70,
        "7891": 101,
        "7892": 150,
        "7893": 246,
        "7894": 201,
        "7895": 146,
        "7896": 88,
        "7897": 176,
        "7898": 236,
        "7899": 166,
        "7900": 96,
        "7901": 223,
        "7902": 103,
        "7903": 228,
        "7904": 230,
        "7905": 49,
        "7906": 178,
        "7907": 152,
        "7908": 196,
        "7909": 194,
        "7910": 230,
        "7911": 148,
        "7912": 223,
        "7913": 87,
        "7914": 21,
        "7915": 237,
        "7916": 234,
        "7917": 93,
        "7918": 121,
        "7919": 221,
        "7920": 240,
        "7921": 149,
        "7922": 52,
        "7923": 187,
        "7924": 14,
        "7925": 203,
        "7926": 190,
        "7927": 67,
        "7928": 31,
        "7929": 162,
        "7930": 180,
        "7931": 111,
        "7932": 86,
        "7933": 81,
        "7934": 114,
        "7935": 130,
        "7936": 194,
        "7937": 105,
        "7938": 191,
        "7939": 233,
        "7940": 184,
        "7941": 101,
        "7942": 237,
        "7943": 64,
        "7944": 102,
        "7945": 122,
        "7946": 86,
        "7947": 247,
        "7948": 250,
        "7949": 218,
        "7950": 244,
        "7951": 71,
        "7952": 75,
        "7953": 133,
        "7954": 189,
        "7955": 53,
        "7956": 175,
        "7957": 129,
        "7958": 39,
        "7959": 213,
        "7960": 120,
        "7961": 163,
        "7962": 228,
        "7963": 113,
        "7964": 71,
        "7965": 93,
        "7966": 228,
        "7967": 241,
        "7968": 219,
        "7969": 50,
        "7970": 46,
        "7971": 217,
        "7972": 182,
        "7973": 15,
        "7974": 123,
        "7975": 8,
        "7976": 251,
        "7977": 139,
        "7978": 221,
        "7979": 234,
        "7980": 117,
        "7981": 76,
        "7982": 44,
        "7983": 100,
        "7984": 164,
        "7985": 168,
        "7986": 55,
        "7987": 132,
        "7988": 46,
        "7989": 85,
        "7990": 253,
        "7991": 41,
        "7992": 70,
        "7993": 242,
        "7994": 100,
        "7995": 241,
        "7996": 66,
        "7997": 8,
        "7998": 227,
        "7999": 17,
        "8000": 32,
        "8001": 137,
        "8002": 165,
        "8003": 77,
        "8004": 182,
        "8005": 102,
        "8006": 243,
        "8007": 95,
        "8008": 68,
        "8009": 187,
        "8010": 194,
        "8011": 97,
        "8012": 175,
        "8013": 92,
        "8014": 58,
        "8015": 220,
        "8016": 189,
        "8017": 76,
        "8018": 169,
        "8019": 60,
        "8020": 107,
        "8021": 68,
        "8022": 164,
        "8023": 105,
        "8024": 113,
        "8025": 224,
        "8026": 134,
        "8027": 218,
        "8028": 44,
        "8029": 201,
        "8030": 36,
        "8031": 227,
        "8032": 240,
        "8033": 16,
        "8034": 254,
        "8035": 115,
        "8036": 67,
        "8037": 119,
        "8038": 125,
        "8039": 66,
        "8040": 82,
        "8041": 217,
        "8042": 35,
        "8043": 166,
        "8044": 122,
        "8045": 161,
        "8046": 25,
        "8047": 14,
        "8048": 148,
        "8049": 72,
        "8050": 34,
        "8051": 26,
        "8052": 174,
        "8053": 87,
        "8054": 170,
        "8055": 165,
        "8056": 71,
        "8057": 156,
        "8058": 63,
        "8059": 162,
        "8060": 31,
        "8061": 153,
        "8062": 245,
        "8063": 124,
        "8064": 98,
        "8065": 238,
        "8066": 183,
        "8067": 226,
        "8068": 86,
        "8069": 182,
        "8070": 74,
        "8071": 68,
        "8072": 138,
        "8073": 30,
        "8074": 154,
        "8075": 201,
        "8076": 22,
        "8077": 92,
        "8078": 202,
        "8079": 83,
        "8080": 209,
        "8081": 236,
        "8082": 85,
        "8083": 185,
        "8084": 28,
        "8085": 17,
        "8086": 68,
        "8087": 253,
        "8088": 181,
        "8089": 133,
        "8090": 255,
        "8091": 181,
        "8092": 6,
        "8093": 78,
        "8094": 31,
        "8095": 146,
        "8096": 41,
        "8097": 89,
        "8098": 146,
        "8099": 160,
        "8100": 56,
        "8101": 65,
        "8102": 8,
        "8103": 46,
        "8104": 65,
        "8105": 235,
        "8106": 9,
        "8107": 185,
        "8108": 173,
        "8109": 229,
        "8110": 194,
        "8111": 251,
        "8112": 0,
        "8113": 3,
        "8114": 144,
        "8115": 78,
        "8116": 28,
        "8117": 9,
        "8118": 178,
        "8119": 53,
        "8120": 102,
        "8121": 20,
        "8122": 63,
        "8123": 141,
        "8124": 65,
        "8125": 225,
        "8126": 73,
        "8127": 73,
        "8128": 182,
        "8129": 207,
        "8130": 222,
        "8131": 213,
        "8132": 210,
        "8133": 79,
        "8134": 60,
        "8135": 107,
        "8136": 225,
        "8137": 10,
        "8138": 3,
        "8139": 45,
        "8140": 1,
        "8141": 118,
        "8142": 43,
        "8143": 112,
        "8144": 96,
        "8145": 175,
        "8146": 27,
        "8147": 83,
        "8148": 26,
        "8149": 212,
        "8150": 121,
        "8151": 245,
        "8152": 124,
        "8153": 5,
        "8154": 15,
        "8155": 41,
        "8156": 182,
        "8157": 69,
        "8158": 157,
        "8159": 11,
        "8160": 181,
        "8161": 75,
        "8162": 21,
        "8163": 198,
        "8164": 231,
        "8165": 62,
        "8166": 209,
        "8167": 91,
        "8168": 203,
        "8169": 150,
        "8170": 38,
        "8171": 235,
        "8172": 170,
        "8173": 122,
        "8174": 22,
        "8175": 167,
        "8176": 40,
        "8177": 74,
        "8178": 43,
        "8179": 60,
        "8180": 88,
        "8181": 139,
        "8182": 141,
        "8183": 133,
        "8184": 119,
        "8185": 107,
        "8186": 99,
        "8187": 19,
        "8188": 239,
        "8189": 242,
        "8190": 230,
        "8191": 120,
        "8192": 216,
        "8193": 75,
        "8194": 60,
        "8195": 84,
        "8196": 36,
        "8197": 137,
        "8198": 55,
        "8199": 146,
        "8200": 153,
        "8201": 134,
        "8202": 217,
        "8203": 15,
        "8204": 91,
        "8205": 145,
        "8206": 151,
        "8207": 112,
        "8208": 106,
        "8209": 63,
        "8210": 31,
        "8211": 191,
        "8212": 67,
        "8213": 76,
        "8214": 110,
        "8215": 1,
        "8216": 132,
        "8217": 102,
        "8218": 0,
        "8219": 140,
        "8220": 39,
        "8221": 118,
        "8222": 232,
        "8223": 70,
        "8224": 181,
        "8225": 56,
        "8226": 177,
        "8227": 223,
        "8228": 252,
        "8229": 178,
        "8230": 191,
        "8231": 247,
        "8232": 99,
        "8233": 84,
        "8234": 220,
        "8235": 225,
        "8236": 103,
        "8237": 238,
        "8238": 35,
        "8239": 45,
        "8240": 93,
        "8241": 208,
        "8242": 100,
        "8243": 158,
        "8244": 52,
        "8245": 37,
        "8246": 234,
        "8247": 96,
        "8248": 244,
        "8249": 54,
        "8250": 197,
        "8251": 249,
        "8252": 3,
        "8253": 191,
        "8254": 146,
        "8255": 99,
        "8256": 153,
        "8257": 81,
        "8258": 244,
        "8259": 239,
        "8260": 32,
        "8261": 70,
        "8262": 216,
        "8263": 112,
        "8264": 238,
        "8265": 55,
        "8266": 49,
        "8267": 50,
        "8268": 125,
        "8269": 11,
        "8270": 142,
        "8271": 198,
        "8272": 194,
        "8273": 116,
        "8274": 17,
        "8275": 183,
        "8276": 167,
        "8277": 3,
        "8278": 217,
        "8279": 24,
        "8280": 20,
        "8281": 148,
        "8282": 127,
        "8283": 81,
        "8284": 197,
        "8285": 235,
        "8286": 191,
        "8287": 197,
        "8288": 86,
        "8289": 224,
        "8290": 157,
        "8291": 74,
        "8292": 234,
        "8293": 162,
        "8294": 91,
        "8295": 84,
        "8296": 52,
        "8297": 181,
        "8298": 231,
        "8299": 187,
        "8300": 131,
        "8301": 208,
        "8302": 23,
        "8303": 48,
        "8304": 242,
        "8305": 177,
        "8306": 209,
        "8307": 248,
        "8308": 8,
        "8309": 2,
        "8310": 25,
        "8311": 228,
        "8312": 14,
        "8313": 188,
        "8314": 166,
        "8315": 212,
        "8316": 208,
        "8317": 129,
        "8318": 122,
        "8319": 25,
        "8320": 125,
        "8321": 144,
        "8322": 237,
        "8323": 8,
        "8324": 175,
        "8325": 22,
        "8326": 152,
        "8327": 61,
        "8328": 200,
        "8329": 75,
        "8330": 209,
        "8331": 76,
        "8332": 3,
        "8333": 152,
        "8334": 89,
        "8335": 173,
        "8336": 84,
        "8337": 42,
        "8338": 53,
        "8339": 131,
        "8340": 252,
        "8341": 100,
        "8342": 157,
        "8343": 180,
        "8344": 124,
        "8345": 15,
        "8346": 152,
        "8347": 150,
        "8348": 244,
        "8349": 192,
        "8350": 123,
        "8351": 29,
        "8352": 109,
        "8353": 230,
        "8354": 180,
        "8355": 93,
        "8356": 96,
        "8357": 151,
        "8358": 242,
        "8359": 4,
        "8360": 67,
        "8361": 26,
        "8362": 139,
        "8363": 203,
        "8364": 80,
        "8365": 236,
        "8366": 108,
        "8367": 201,
        "8368": 183,
        "8369": 28,
        "8370": 102,
        "8371": 28,
        "8372": 63,
        "8373": 101,
        "8374": 233,
        "8375": 100,
        "8376": 180,
        "8377": 96,
        "8378": 18,
        "8379": 113,
        "8380": 175,
        "8381": 193,
        "8382": 82,
        "8383": 44,
        "8384": 226,
        "8385": 5,
        "8386": 165,
        "8387": 135,
        "8388": 56,
        "8389": 62,
        "8390": 193,
        "8391": 120,
        "8392": 100,
        "8393": 225,
        "8394": 212,
        "8395": 193,
        "8396": 255,
        "8397": 115,
        "8398": 162,
        "8399": 99,
        "8400": 194,
        "8401": 66,
        "8402": 133,
        "8403": 102,
        "8404": 126,
        "8405": 156,
        "8406": 48,
        "8407": 43,
        "8408": 153,
        "8409": 239,
        "8410": 119,
        "8411": 62,
        "8412": 72,
        "8413": 7,
        "8414": 58,
        "8415": 111,
        "8416": 252,
        "8417": 209,
        "8418": 95,
        "8419": 35,
        "8420": 30,
        "8421": 68,
        "8422": 181,
        "8423": 253,
        "8424": 255,
        "8425": 4,
        "8426": 11,
        "8427": 57,
        "8428": 166,
        "8429": 163,
        "8430": 240,
        "8431": 11,
        "8432": 117,
        "8433": 17,
        "8434": 78,
        "8435": 39,
        "8436": 223,
        "8437": 171,
        "8438": 33,
        "8439": 53,
        "8440": 6,
        "8441": 193,
        "8442": 4,
        "8443": 127,
        "8444": 176,
        "8445": 214,
        "8446": 90,
        "8447": 170,
        "8448": 230,
        "8449": 104,
        "8450": 93,
        "8451": 136,
        "8452": 16,
        "8453": 139,
        "8454": 167,
        "8455": 146,
        "8456": 81,
        "8457": 204,
        "8458": 83,
        "8459": 23,
        "8460": 161,
        "8461": 178,
        "8462": 68,
        "8463": 128,
        "8464": 244,
        "8465": 157,
        "8466": 43,
        "8467": 146,
        "8468": 162,
        "8469": 171,
        "8470": 139,
        "8471": 150,
        "8472": 188,
        "8473": 131,
        "8474": 44,
        "8475": 2,
        "8476": 29,
        "8477": 227,
        "8478": 172,
        "8479": 141,
        "8480": 38,
        "8481": 103,
        "8482": 1,
        "8483": 195,
        "8484": 76,
        "8485": 4,
        "8486": 235,
        "8487": 95,
        "8488": 162,
        "8489": 226,
        "8490": 125,
        "8491": 157,
        "8492": 1,
        "8493": 170,
        "8494": 201,
        "8495": 123,
        "8496": 65,
        "8497": 222,
        "8498": 77,
        "8499": 118,
        "8500": 175,
        "8501": 189,
        "8502": 120,
        "8503": 48,
        "8504": 159,
        "8505": 216,
        "8506": 19,
        "8507": 127,
        "8508": 226,
        "8509": 206,
        "8510": 31,
        "8511": 219,
        "8512": 28,
        "8513": 41,
        "8514": 166,
        "8515": 53,
        "8516": 145,
        "8517": 198,
        "8518": 22,
        "8519": 125,
        "8520": 159,
        "8521": 45,
        "8522": 34,
        "8523": 93,
        "8524": 130,
        "8525": 204,
        "8526": 63,
        "8527": 73,
        "8528": 139,
        "8529": 53,
        "8530": 184,
        "8531": 140,
        "8532": 249,
        "8533": 153,
        "8534": 151,
        "8535": 130,
        "8536": 6,
        "8537": 187,
        "8538": 235,
        "8539": 26,
        "8540": 108,
        "8541": 249,
        "8542": 169,
        "8543": 110,
        "8544": 238,
        "8545": 13,
        "8546": 46,
        "8547": 184,
        "8548": 52,
        "8549": 61,
        "8550": 178,
        "8551": 24,
        "8552": 43,
        "8553": 47,
        "8554": 173,
        "8555": 187,
        "8556": 189,
        "8557": 215,
        "8558": 181,
        "8559": 56,
        "8560": 100,
        "8561": 104,
        "8562": 60,
        "8563": 126,
        "8564": 116,
        "8565": 209,
        "8566": 149,
        "8567": 34,
        "8568": 112,
        "8569": 7,
        "8570": 241,
        "8571": 141,
        "8572": 90,
        "8573": 162,
        "8574": 83,
        "8575": 152,
        "8576": 222,
        "8577": 12,
        "8578": 247,
        "8579": 133,
        "8580": 8,
        "8581": 195,
        "8582": 72,
        "8583": 178,
        "8584": 123,
        "8585": 118,
        "8586": 194,
        "8587": 125,
        "8588": 76,
        "8589": 96,
        "8590": 190,
        "8591": 8,
        "8592": 254,
        "8593": 46,
        "8594": 156,
        "8595": 198,
        "8596": 29,
        "8597": 141,
        "8598": 204,
        "8599": 36,
        "8600": 201,
        "8601": 88,
        "8602": 12,
        "8603": 209,
        "8604": 109,
        "8605": 33,
        "8606": 170,
        "8607": 115,
        "8608": 151,
        "8609": 218,
        "8610": 174,
        "8611": 228,
        "8612": 176,
        "8613": 171,
        "8614": 89,
        "8615": 19,
        "8616": 169,
        "8617": 54,
        "8618": 126,
        "8619": 135,
        "8620": 89,
        "8621": 21,
        "8622": 171,
        "8623": 94,
        "8624": 53,
        "8625": 32,
        "8626": 163,
        "8627": 21,
        "8628": 212,
        "8629": 46,
        "8630": 138,
        "8631": 79,
        "8632": 193,
        "8633": 42,
        "8634": 12,
        "8635": 106,
        "8636": 209,
        "8637": 91,
        "8638": 37,
        "8639": 212,
        "8640": 90,
        "8641": 239,
        "8642": 171,
        "8643": 99,
        "8644": 3,
        "8645": 35,
        "8646": 192,
        "8647": 231,
        "8648": 246,
        "8649": 3,
        "8650": 42,
        "8651": 238,
        "8652": 206,
        "8653": 92,
        "8654": 247,
        "8655": 223,
        "8656": 80,
        "8657": 84,
        "8658": 41,
        "8659": 12,
        "8660": 108,
        "8661": 44,
        "8662": 64,
        "8663": 108,
        "8664": 95,
        "8665": 45,
        "8666": 45,
        "8667": 66,
        "8668": 77,
        "8669": 86,
        "8670": 193,
        "8671": 13,
        "8672": 237,
        "8673": 73,
        "8674": 73,
        "8675": 53,
        "8676": 32,
        "8677": 213,
        "8678": 188,
        "8679": 37,
        "8680": 174,
        "8681": 114,
        "8682": 130,
        "8683": 119,
        "8684": 169,
        "8685": 227,
        "8686": 240,
        "8687": 6,
        "8688": 157,
        "8689": 241,
        "8690": 178,
        "8691": 181,
        "8692": 224,
        "8693": 52,
        "8694": 222,
        "8695": 96,
        "8696": 238,
        "8697": 232,
        "8698": 63,
        "8699": 252,
        "8700": 112,
        "8701": 139,
        "8702": 95,
        "8703": 160,
        "8704": 105,
        "8705": 111,
        "8706": 205,
        "8707": 188,
        "8708": 250,
        "8709": 120,
        "8710": 152,
        "8711": 249,
        "8712": 164,
        "8713": 66,
        "8714": 12,
        "8715": 25,
        "8716": 114,
        "8717": 205,
        "8718": 199,
        "8719": 169,
        "8720": 80,
        "8721": 250,
        "8722": 166,
        "8723": 49,
        "8724": 131,
        "8725": 230,
        "8726": 105,
        "8727": 155,
        "8728": 181,
        "8729": 200,
        "8730": 110,
        "8731": 62,
        "8732": 153,
        "8733": 20,
        "8734": 175,
        "8735": 8,
        "8736": 59,
        "8737": 196,
        "8738": 121,
        "8739": 122,
        "8740": 125,
        "8741": 209,
        "8742": 35,
        "8743": 185,
        "8744": 8,
        "8745": 231,
        "8746": 12,
        "8747": 105,
        "8748": 253,
        "8749": 185,
        "8750": 95,
        "8751": 247,
        "8752": 42,
        "8753": 134,
        "8754": 56,
        "8755": 17,
        "8756": 138,
        "8757": 224,
        "8758": 178,
        "8759": 233,
        "8760": 146,
        "8761": 49,
        "8762": 179,
        "8763": 194,
        "8764": 149,
        "8765": 238,
        "8766": 90,
        "8767": 51,
        "8768": 58,
        "8769": 144,
        "8770": 120,
        "8771": 154,
        "8772": 69,
        "8773": 77,
        "8774": 180,
        "8775": 79,
        "8776": 77,
        "8777": 234,
        "8778": 123,
        "8779": 96,
        "8780": 100,
        "8781": 108,
        "8782": 36,
        "8783": 163,
        "8784": 9,
        "8785": 184,
        "8786": 162,
        "8787": 50,
        "8788": 41,
        "8789": 88,
        "8790": 223,
        "8791": 138,
        "8792": 193,
        "8793": 112,
        "8794": 253,
        "8795": 243,
        "8796": 15,
        "8797": 85,
        "8798": 145,
        "8799": 4,
        "8800": 206,
        "8801": 83,
        "8802": 80,
        "8803": 134,
        "8804": 203,
        "8805": 58,
        "8806": 101,
        "8807": 253,
        "8808": 235,
        "8809": 165,
        "8810": 231,
        "8811": 236,
        "8812": 194,
        "8813": 150,
        "8814": 9,
        "8815": 199,
        "8816": 52,
        "8817": 188,
        "8818": 98,
        "8819": 58,
        "8820": 85,
        "8821": 127,
        "8822": 68,
        "8823": 39,
        "8824": 66,
        "8825": 208,
        "8826": 254,
        "8827": 164,
        "8828": 245,
        "8829": 7,
        "8830": 23,
        "8831": 157,
        "8832": 248,
        "8833": 141,
        "8834": 91,
        "8835": 163,
        "8836": 42,
        "8837": 22,
        "8838": 126,
        "8839": 89,
        "8840": 161,
        "8841": 130,
        "8842": 60,
        "8843": 223,
        "8844": 72,
        "8845": 96,
        "8846": 199,
        "8847": 139,
        "8848": 53,
        "8849": 42,
        "8850": 77,
        "8851": 69,
        "8852": 127,
        "8853": 83,
        "8854": 4,
        "8855": 179,
        "8856": 69,
        "8857": 57,
        "8858": 13,
        "8859": 164,
        "8860": 167,
        "8861": 65,
        "8862": 154,
        "8863": 56,
        "8864": 16,
        "8865": 206,
        "8866": 101,
        "8867": 252,
        "8868": 6,
        "8869": 200,
        "8870": 68,
        "8871": 130,
        "8872": 213,
        "8873": 14,
        "8874": 3,
        "8875": 204,
        "8876": 199,
        "8877": 46,
        "8878": 64,
        "8879": 85,
        "8880": 22,
        "8881": 246,
        "8882": 248,
        "8883": 115,
        "8884": 185,
        "8885": 207,
        "8886": 221,
        "8887": 238,
        "8888": 218,
        "8889": 66,
        "8890": 130,
        "8891": 118,
        "8892": 132,
        "8893": 91,
        "8894": 229,
        "8895": 218,
        "8896": 35,
        "8897": 191,
        "8898": 215,
        "8899": 165,
        "8900": 147,
        "8901": 57,
        "8902": 119,
        "8903": 163,
        "8904": 111,
        "8905": 41,
        "8906": 38,
        "8907": 8,
        "8908": 229,
        "8909": 182,
        "8910": 225,
        "8911": 40,
        "8912": 36,
        "8913": 46,
        "8914": 71,
        "8915": 2,
        "8916": 204,
        "8917": 242,
        "8918": 35,
        "8919": 29,
        "8920": 246,
        "8921": 119,
        "8922": 72,
        "8923": 66,
        "8924": 217,
        "8925": 232,
        "8926": 116,
        "8927": 45,
        "8928": 228,
        "8929": 24,
        "8930": 70,
        "8931": 171,
        "8932": 80,
        "8933": 15,
        "8934": 102,
        "8935": 86,
        "8936": 100,
        "8937": 100,
        "8938": 20,
        "8939": 84,
        "8940": 133,
        "8941": 111,
        "8942": 83,
        "8943": 214,
        "8944": 25,
        "8945": 64,
        "8946": 196,
        "8947": 97,
        "8948": 78,
        "8949": 88,
        "8950": 185,
        "8951": 152,
        "8952": 191,
        "8953": 141,
        "8954": 109,
        "8955": 50,
        "8956": 149,
        "8957": 1,
        "8958": 213,
        "8959": 82,
        "8960": 119,
        "8961": 76,
        "8962": 150,
        "8963": 149,
        "8964": 220,
        "8965": 109,
        "8966": 236,
        "8967": 62,
        "8968": 91,
        "8969": 207,
        "8970": 186,
        "8971": 173,
        "8972": 238,
        "8973": 118,
        "8974": 126,
        "8975": 249,
        "8976": 158,
        "8977": 66,
        "8978": 79,
        "8979": 181,
        "8980": 64,
        "8981": 130,
        "8982": 120,
        "8983": 63,
        "8984": 127,
        "8985": 69,
        "8986": 160,
        "8987": 198,
        "8988": 164,
        "8989": 251,
        "8990": 122,
        "8991": 26,
        "8992": 239,
        "8993": 154,
        "8994": 153,
        "8995": 90,
        "8996": 248,
        "8997": 82,
        "8998": 70,
        "8999": 53,
        "9000": 190,
        "9001": 73,
        "9002": 86,
        "9003": 116,
        "9004": 180,
        "9005": 22,
        "9006": 239,
        "9007": 236,
        "9008": 225,
        "9009": 134,
        "9010": 174,
        "9011": 145,
        "9012": 244,
        "9013": 249,
        "9014": 124,
        "9015": 220,
        "9016": 3,
        "9017": 27,
        "9018": 177,
        "9019": 169,
        "9020": 148,
        "9021": 225,
        "9022": 215,
        "9023": 207,
        "9024": 217,
        "9025": 43,
        "9026": 132,
        "9027": 138,
        "9028": 79,
        "9029": 152,
        "9030": 163,
        "9031": 148,
        "9032": 192,
        "9033": 225,
        "9034": 142,
        "9035": 221,
        "9036": 188,
        "9037": 129,
        "9038": 93,
        "9039": 126,
        "9040": 114,
        "9041": 117,
        "9042": 187,
        "9043": 2,
        "9044": 40,
        "9045": 22,
        "9046": 239,
        "9047": 110,
        "9048": 114,
        "9049": 216,
        "9050": 60,
        "9051": 207,
        "9052": 201,
        "9053": 45,
        "9054": 244,
        "9055": 159,
        "9056": 177,
        "9057": 106,
        "9058": 204,
        "9059": 151,
        "9060": 56,
        "9061": 58,
        "9062": 8,
        "9063": 60,
        "9064": 175,
        "9065": 127,
        "9066": 147,
        "9067": 167,
        "9068": 10,
        "9069": 127,
        "9070": 118,
        "9071": 125,
        "9072": 58,
        "9073": 83,
        "9074": 61,
        "9075": 105,
        "9076": 110,
        "9077": 107,
        "9078": 236,
        "9079": 214,
        "9080": 25,
        "9081": 16,
        "9082": 89,
        "9083": 145,
        "9084": 137,
        "9085": 189,
        "9086": 215,
        "9087": 200,
        "9088": 34,
        "9089": 23,
        "9090": 175,
        "9091": 226,
        "9092": 145,
        "9093": 183,
        "9094": 134,
        "9095": 198,
        "9096": 31,
        "9097": 78,
        "9098": 35,
        "9099": 35,
        "9100": 202,
        "9101": 27,
        "9102": 180,
        "9103": 125,
        "9104": 186,
        "9105": 78,
        "9106": 60,
        "9107": 231,
        "9108": 250,
        "9109": 8,
        "9110": 47,
        "9111": 1,
        "9112": 113,
        "9113": 142,
        "9114": 115,
        "9115": 30,
        "9116": 219,
        "9117": 84,
        "9118": 196,
        "9119": 112,
        "9120": 70,
        "9121": 179,
        "9122": 58,
        "9123": 125,
        "9124": 224,
        "9125": 63,
        "9126": 213,
        "9127": 77,
        "9128": 116,
        "9129": 159,
        "9130": 86,
        "9131": 19,
        "9132": 145,
        "9133": 251,
        "9134": 247,
        "9135": 7,
        "9136": 77,
        "9137": 242,
        "9138": 235,
        "9139": 124,
        "9140": 86,
        "9141": 196,
        "9142": 35,
        "9143": 155,
        "9144": 38,
        "9145": 129,
        "9146": 101,
        "9147": 230,
        "9148": 60,
        "9149": 192,
        "9150": 200,
        "9151": 116,
        "9152": 135,
        "9153": 205,
        "9154": 139,
        "9155": 124,
        "9156": 230,
        "9157": 84,
        "9158": 162,
        "9159": 55,
        "9160": 62,
        "9161": 95,
        "9162": 123,
        "9163": 63,
        "9164": 164,
        "9165": 88,
        "9166": 111,
        "9167": 64,
        "9168": 59,
        "9169": 4,
        "9170": 9,
        "9171": 35,
        "9172": 162,
        "9173": 209,
        "9174": 121,
        "9175": 127,
        "9176": 118,
        "9177": 151,
        "9178": 149,
        "9179": 219,
        "9180": 209,
        "9181": 81,
        "9182": 193,
        "9183": 87,
        "9184": 96,
        "9185": 241,
        "9186": 250,
        "9187": 107,
        "9188": 199,
        "9189": 218,
        "9190": 184,
        "9191": 90,
        "9192": 163,
        "9193": 148,
        "9194": 234,
        "9195": 254,
        "9196": 225,
        "9197": 18,
        "9198": 231,
        "9199": 119,
        "9200": 144,
        "9201": 56,
        "9202": 2,
        "9203": 251,
        "9204": 232,
        "9205": 246,
        "9206": 223,
        "9207": 124,
        "9208": 235,
        "9209": 245,
        "9210": 244,
        "9211": 156,
        "9212": 129,
        "9213": 124,
        "9214": 82,
        "9215": 204,
        "9216": 221,
        "9217": 115,
        "9218": 216,
        "9219": 166,
        "9220": 188,
        "9221": 239,
        "9222": 85,
        "9223": 245,
        "9224": 115,
        "9225": 54,
        "9226": 164,
        "9227": 148,
        "9228": 41,
        "9229": 246,
        "9230": 248,
        "9231": 157,
        "9232": 173,
        "9233": 97,
        "9234": 53,
        "9235": 45,
        "9236": 171,
        "9237": 15,
        "9238": 222,
        "9239": 138,
        "9240": 17,
        "9241": 214,
        "9242": 96,
        "9243": 184,
        "9244": 191,
        "9245": 92,
        "9246": 164,
        "9247": 252,
        "9248": 195,
        "9249": 26,
        "9250": 68,
        "9251": 243,
        "9252": 33,
        "9253": 95,
        "9254": 135,
        "9255": 182,
        "9256": 19,
        "9257": 66,
        "9258": 196,
        "9259": 182,
        "9260": 169,
        "9261": 142,
        "9262": 6,
        "9263": 42,
        "9264": 111,
        "9265": 91,
        "9266": 139,
        "9267": 173,
        "9268": 48,
        "9269": 63,
        "9270": 151,
        "9271": 86,
        "9272": 130,
        "9273": 72,
        "9274": 213,
        "9275": 116,
        "9276": 18,
        "9277": 215,
        "9278": 37,
        "9279": 244,
        "9280": 4,
        "9281": 218,
        "9282": 224,
        "9283": 163,
        "9284": 7,
        "9285": 83,
        "9286": 236,
        "9287": 165,
        "9288": 252,
        "9289": 119,
        "9290": 255,
        "9291": 99,
        "9292": 67,
        "9293": 5,
        "9294": 246,
        "9295": 81,
        "9296": 153,
        "9297": 210,
        "9298": 5,
        "9299": 69,
        "9300": 173,
        "9301": 136,
        "9302": 183,
        "9303": 24,
        "9304": 204,
        "9305": 237,
        "9306": 239,
        "9307": 246,
        "9308": 0,
        "9309": 45,
        "9310": 2,
        "9311": 130,
        "9312": 47,
        "9313": 200,
        "9314": 98,
        "9315": 69,
        "9316": 19,
        "9317": 253,
        "9318": 192,
        "9319": 241,
        "9320": 92,
        "9321": 175,
        "9322": 55,
        "9323": 100,
        "9324": 164,
        "9325": 191,
        "9326": 51,
        "9327": 222,
        "9328": 133,
        "9329": 157,
        "9330": 17,
        "9331": 75,
        "9332": 55,
        "9333": 165,
        "9334": 2,
        "9335": 5,
        "9336": 13,
        "9337": 161,
        "9338": 140,
        "9339": 242,
        "9340": 101,
        "9341": 174,
        "9342": 58,
        "9343": 82,
        "9344": 124,
        "9345": 25,
        "9346": 159,
        "9347": 250,
        "9348": 187,
        "9349": 12,
        "9350": 230,
        "9351": 111,
        "9352": 56,
        "9353": 79,
        "9354": 147,
        "9355": 221,
        "9356": 218,
        "9357": 60,
        "9358": 55,
        "9359": 120,
        "9360": 30,
        "9361": 1,
        "9362": 24,
        "9363": 110,
        "9364": 14,
        "9365": 96,
        "9366": 251,
        "9367": 115,
        "9368": 96,
        "9369": 57,
        "9370": 244,
        "9371": 79,
        "9372": 188,
        "9373": 213,
        "9374": 188,
        "9375": 0,
        "9376": 145,
        "9377": 113,
        "9378": 1,
        "9379": 183,
        "9380": 210,
        "9381": 114,
        "9382": 65,
        "9383": 96,
        "9384": 31,
        "9385": 247,
        "9386": 89,
        "9387": 252,
        "9388": 33,
        "9389": 242,
        "9390": 125,
        "9391": 147,
        "9392": 255,
        "9393": 16,
        "9394": 45,
        "9395": 173,
        "9396": 191,
        "9397": 255,
        "9398": 85,
        "9399": 143,
        "9400": 1,
        "9401": 247,
        "9402": 66,
        "9403": 37,
        "9404": 103,
        "9405": 213,
        "9406": 142,
        "9407": 58,
        "9408": 134,
        "9409": 179,
        "9410": 107,
        "9411": 90,
        "9412": 137,
        "9413": 47,
        "9414": 119,
        "9415": 140,
        "9416": 112,
        "9417": 161,
        "9418": 111,
        "9419": 40,
        "9420": 246,
        "9421": 201,
        "9422": 100,
        "9423": 45,
        "9424": 167,
        "9425": 10,
        "9426": 82,
        "9427": 202,
        "9428": 77,
        "9429": 35,
        "9430": 5,
        "9431": 5,
        "9432": 205,
        "9433": 68,
        "9434": 50,
        "9435": 55,
        "9436": 96,
        "9437": 40,
        "9438": 51,
        "9439": 208,
        "9440": 41,
        "9441": 171,
        "9442": 57,
        "9443": 168,
        "9444": 242,
        "9445": 51,
        "9446": 199,
        "9447": 185,
        "9448": 203,
        "9449": 252,
        "9450": 222,
        "9451": 135,
        "9452": 51,
        "9453": 34,
        "9454": 149,
        "9455": 81,
        "9456": 178,
        "9457": 116,
        "9458": 46,
        "9459": 136,
        "9460": 119,
        "9461": 21,
        "9462": 6,
        "9463": 222,
        "9464": 81,
        "9465": 105,
        "9466": 53,
        "9467": 22,
        "9468": 101,
        "9469": 232,
        "9470": 80,
        "9471": 239,
        "9472": 115,
        "9473": 21,
        "9474": 100,
        "9475": 41,
        "9476": 25,
        "9477": 178,
        "9478": 161,
        "9479": 201,
        "9480": 122,
        "9481": 125,
        "9482": 194,
        "9483": 118,
        "9484": 58,
        "9485": 145,
        "9486": 244,
        "9487": 253,
        "9488": 174,
        "9489": 182,
        "9490": 24,
        "9491": 44,
        "9492": 84,
        "9493": 189,
        "9494": 130,
        "9495": 225,
        "9496": 42,
        "9497": 70,
        "9498": 83,
        "9499": 104,
        "9500": 41,
        "9501": 245,
        "9502": 181,
        "9503": 218,
        "9504": 93,
        "9505": 152,
        "9506": 235,
        "9507": 186,
        "9508": 2,
        "9509": 169,
        "9510": 99,
        "9511": 241,
        "9512": 35,
        "9513": 0,
        "9514": 50,
        "9515": 219,
        "9516": 68,
        "9517": 20,
        "9518": 86,
        "9519": 183,
        "9520": 179,
        "9521": 132,
        "9522": 101,
        "9523": 93,
        "9524": 172,
        "9525": 35,
        "9526": 190,
        "9527": 202,
        "9528": 242,
        "9529": 45,
        "9530": 147,
        "9531": 143,
        "9532": 14,
        "9533": 248,
        "9534": 106,
        "9535": 203,
        "9536": 14,
        "9537": 58,
        "9538": 205,
        "9539": 89,
        "9540": 223,
        "9541": 234,
        "9542": 83,
        "9543": 207,
        "9544": 59,
        "9545": 27,
        "9546": 34,
        "9547": 73,
        "9548": 77,
        "9549": 183,
        "9550": 183,
        "9551": 36,
        "9552": 113,
        "9553": 237,
        "9554": 43,
        "9555": 126,
        "9556": 233,
        "9557": 33,
        "9558": 66,
        "9559": 63,
        "9560": 32,
        "9561": 43,
        "9562": 44,
        "9563": 37,
        "9564": 35,
        "9565": 152,
        "9566": 227,
        "9567": 223,
        "9568": 192,
        "9569": 199,
        "9570": 113,
        "9571": 165,
        "9572": 128,
        "9573": 164,
        "9574": 213,
        "9575": 92,
        "9576": 248,
        "9577": 157,
        "9578": 241,
        "9579": 174,
        "9580": 127,
        "9581": 244,
        "9582": 44,
        "9583": 32,
        "9584": 194,
        "9585": 196,
        "9586": 127,
        "9587": 85,
        "9588": 44,
        "9589": 151,
        "9590": 104,
        "9591": 214,
        "9592": 159,
        "9593": 143,
        "9594": 172,
        "9595": 16,
        "9596": 59,
        "9597": 220,
        "9598": 22,
        "9599": 117,
        "9600": 181,
        "9601": 86,
        "9602": 186,
        "9603": 133,
        "9604": 155,
        "9605": 67,
        "9606": 170,
        "9607": 194,
        "9608": 97,
        "9609": 1,
        "9610": 68,
        "9611": 198,
        "9612": 37,
        "9613": 208,
        "9614": 242,
        "9615": 209,
        "9616": 16,
        "9617": 194,
        "9618": 246,
        "9619": 65,
        "9620": 51,
        "9621": 225,
        "9622": 92,
        "9623": 236,
        "9624": 240,
        "9625": 59,
        "9626": 81,
        "9627": 218,
        "9628": 229,
        "9629": 188,
        "9630": 64,
        "9631": 46,
        "9632": 239,
        "9633": 44,
        "9634": 114,
        "9635": 181,
        "9636": 20,
        "9637": 168,
        "9638": 236,
        "9639": 4,
        "9640": 78,
        "9641": 7,
        "9642": 248,
        "9643": 0,
        "9644": 23,
        "9645": 107,
        "9646": 162,
        "9647": 32,
        "9648": 51,
        "9649": 95,
        "9650": 202,
        "9651": 171,
        "9652": 246,
        "9653": 156,
        "9654": 227,
        "9655": 137,
        "9656": 212,
        "9657": 89,
        "9658": 173,
        "9659": 143,
        "9660": 133,
        "9661": 65,
        "9662": 90,
        "9663": 191,
        "9664": 163,
        "9665": 131,
        "9666": 144,
        "9667": 206,
        "9668": 101,
        "9669": 228,
        "9670": 176,
        "9671": 142,
        "9672": 147,
        "9673": 184,
        "9674": 131,
        "9675": 17,
        "9676": 118,
        "9677": 207,
        "9678": 54,
        "9679": 162,
        "9680": 149,
        "9681": 90,
        "9682": 134,
        "9683": 20,
        "9684": 86,
        "9685": 116,
        "9686": 31,
        "9687": 229,
        "9688": 144,
        "9689": 220,
        "9690": 244,
        "9691": 193,
        "9692": 30,
        "9693": 133,
        "9694": 50,
        "9695": 128,
        "9696": 2,
        "9697": 33,
        "9698": 28,
        "9699": 211,
        "9700": 92,
        "9701": 218,
        "9702": 122,
        "9703": 204,
        "9704": 173,
        "9705": 185,
        "9706": 226,
        "9707": 71,
        "9708": 121,
        "9709": 232,
        "9710": 119,
        "9711": 122,
        "9712": 175,
        "9713": 158,
        "9714": 230,
        "9715": 127,
        "9716": 244,
        "9717": 158,
        "9718": 18,
        "9719": 113,
        "9720": 55,
        "9721": 240,
        "9722": 251,
        "9723": 5,
        "9724": 46,
        "9725": 203,
        "9726": 239,
        "9727": 36,
        "9728": 56,
        "9729": 151,
        "9730": 176,
        "9731": 235,
        "9732": 202,
        "9733": 38,
        "9734": 177,
        "9735": 78,
        "9736": 0,
        "9737": 48,
        "9738": 162,
        "9739": 106,
        "9740": 14,
        "9741": 116,
        "9742": 7,
        "9743": 86,
        "9744": 172,
        "9745": 182,
        "9746": 165,
        "9747": 20,
        "9748": 23,
        "9749": 105,
        "9750": 240,
        "9751": 230,
        "9752": 71,
        "9753": 126,
        "9754": 195,
        "9755": 157,
        "9756": 96,
        "9757": 108,
        "9758": 165,
        "9759": 53,
        "9760": 185,
        "9761": 69,
        "9762": 16,
        "9763": 253,
        "9764": 107,
        "9765": 94,
        "9766": 178,
        "9767": 98,
        "9768": 159,
        "9769": 83,
        "9770": 20,
        "9771": 195,
        "9772": 18,
        "9773": 193,
        "9774": 133,
        "9775": 195,
        "9776": 180,
        "9777": 172,
        "9778": 1,
        "9779": 169,
        "9780": 56,
        "9781": 30,
        "9782": 140,
        "9783": 5,
        "9784": 125,
        "9785": 221,
        "9786": 6,
        "9787": 54,
        "9788": 179,
        "9789": 5,
        "9790": 74,
        "9791": 90,
        "9792": 135,
        "9793": 1,
        "9794": 174,
        "9795": 92,
        "9796": 211,
        "9797": 0,
        "9798": 130,
        "9799": 102,
        "9800": 218,
        "9801": 32,
        "9802": 228,
        "9803": 49,
        "9804": 95,
        "9805": 86,
        "9806": 180,
        "9807": 135,
        "9808": 43,
        "9809": 201,
        "9810": 69,
        "9811": 23,
        "9812": 68,
        "9813": 48,
        "9814": 146,
        "9815": 5,
        "9816": 181,
        "9817": 211,
        "9818": 57,
        "9819": 155,
        "9820": 23,
        "9821": 57,
        "9822": 144,
        "9823": 68,
        "9824": 157,
        "9825": 122,
        "9826": 122,
        "9827": 63,
        "9828": 197,
        "9829": 78,
        "9830": 69,
        "9831": 190,
        "9832": 116,
        "9833": 223,
        "9834": 17,
        "9835": 58,
        "9836": 224,
        "9837": 193,
        "9838": 219,
        "9839": 4,
        "9840": 57,
        "9841": 77,
        "9842": 103,
        "9843": 107,
        "9844": 15,
        "9845": 18,
        "9846": 80,
        "9847": 101,
        "9848": 233,
        "9849": 43,
        "9850": 181,
        "9851": 168,
        "9852": 243,
        "9853": 231,
        "9854": 108,
        "9855": 67,
        "9856": 224,
        "9857": 29,
        "9858": 176,
        "9859": 81,
        "9860": 211,
        "9861": 138,
        "9862": 232,
        "9863": 127,
        "9864": 149,
        "9865": 251,
        "9866": 195,
        "9867": 80,
        "9868": 200,
        "9869": 206,
        "9870": 91,
        "9871": 162,
        "9872": 163,
        "9873": 233,
        "9874": 171,
        "9875": 30,
        "9876": 178,
        "9877": 217,
        "9878": 130,
        "9879": 71,
        "9880": 125,
        "9881": 126,
        "9882": 133,
        "9883": 142,
        "9884": 248,
        "9885": 3,
        "9886": 114,
        "9887": 187,
        "9888": 94,
        "9889": 242,
        "9890": 9,
        "9891": 72,
        "9892": 49,
        "9893": 167,
        "9894": 243,
        "9895": 223,
        "9896": 74,
        "9897": 186,
        "9898": 190,
        "9899": 148,
        "9900": 123,
        "9901": 200,
        "9902": 77,
        "9903": 233,
        "9904": 62,
        "9905": 254,
        "9906": 215,
        "9907": 102,
        "9908": 120,
        "9909": 78,
        "9910": 13,
        "9911": 57,
        "9912": 232,
        "9913": 33,
        "9914": 144,
        "9915": 64,
        "9916": 40,
        "9917": 174,
        "9918": 131,
        "9919": 34,
        "9920": 19,
        "9921": 197,
        "9922": 169,
        "9923": 34,
        "9924": 49,
        "9925": 8,
        "9926": 36,
        "9927": 2,
        "9928": 87,
        "9929": 79,
        "9930": 249,
        "9931": 225,
        "9932": 163,
        "9933": 6,
        "9934": 157,
        "9935": 106,
        "9936": 179,
        "9937": 214,
        "9938": 114,
        "9939": 1,
        "9940": 69,
        "9941": 186,
        "9942": 120,
        "9943": 99,
        "9944": 46,
        "9945": 200,
        "9946": 183,
        "9947": 235,
        "9948": 139,
        "9949": 182,
        "9950": 244,
        "9951": 39,
        "9952": 4,
        "9953": 5,
        "9954": 58,
        "9955": 171,
        "9956": 236,
        "9957": 102,
        "9958": 42,
        "9959": 57,
        "9960": 202,
        "9961": 92,
        "9962": 239,
        "9963": 69,
        "9964": 138,
        "9965": 109,
        "9966": 161,
        "9967": 191,
        "9968": 218,
        "9969": 4,
        "9970": 222,
        "9971": 136,
        "9972": 127,
        "9973": 246,
        "9974": 206,
        "9975": 177,
        "9976": 41,
        "9977": 55,
        "9978": 108,
        "9979": 51,
        "9980": 74,
        "9981": 142,
        "9982": 58,
        "9983": 170,
        "9984": 130,
        "9985": 18,
        "9986": 195,
        "9987": 46,
        "9988": 158,
        "9989": 94,
        "9990": 168,
        "9991": 178,
        "9992": 98,
        "9993": 176,
        "9994": 62,
        "9995": 219,
        "9996": 195,
        "9997": 26,
        "9998": 164,
        "9999": 247,
        "10000": 112,
        "10001": 163,
        "10002": 169,
        "10003": 196,
        "10004": 183,
        "10005": 236,
        "10006": 161,
        "10007": 112,
        "10008": 61,
        "10009": 176,
        "10010": 179,
        "10011": 56,
        "10012": 61,
        "10013": 109,
        "10014": 70,
        "10015": 167,
        "10016": 35,
        "10017": 255,
        "10018": 91,
        "10019": 138,
        "10020": 218,
        "10021": 6,
        "10022": 203,
        "10023": 78,
        "10024": 77,
        "10025": 190,
        "10026": 157,
        "10027": 17,
        "10028": 116,
        "10029": 157,
        "10030": 138,
        "10031": 219,
        "10032": 102,
        "10033": 178,
        "10034": 177,
        "10035": 17,
        "10036": 44,
        "10037": 112,
        "10038": 140,
        "10039": 160,
        "10040": 201,
        "10041": 236,
        "10042": 79,
        "10043": 25,
        "10044": 92,
        "10045": 152,
        "10046": 96,
        "10047": 149,
        "10048": 134,
        "10049": 41,
        "10050": 208,
        "10051": 205,
        "10052": 248,
        "10053": 212,
        "10054": 90,
        "10055": 146,
        "10056": 171,
        "10057": 35,
        "10058": 55,
        "10059": 101,
        "10060": 49,
        "10061": 144,
        "10062": 112,
        "10063": 214,
        "10064": 234,
        "10065": 23,
        "10066": 171,
        "10067": 18,
        "10068": 214,
        "10069": 224,
        "10070": 42,
        "10071": 116,
        "10072": 205,
        "10073": 81,
        "10074": 108,
        "10075": 151,
        "10076": 63,
        "10077": 95,
        "10078": 38,
        "10079": 236,
        "10080": 110,
        "10081": 135,
        "10082": 37,
        "10083": 163,
        "10084": 53,
        "10085": 227,
        "10086": 170,
        "10087": 193,
        "10088": 6,
        "10089": 159,
        "10090": 1,
        "10091": 102,
        "10092": 201,
        "10093": 248,
        "10094": 106,
        "10095": 110,
        "10096": 47,
        "10097": 44,
        "10098": 74,
        "10099": 198,
        "10100": 76,
        "10101": 101,
        "10102": 78,
        "10103": 170,
        "10104": 186,
        "10105": 180,
        "10106": 69,
        "10107": 141,
        "10108": 147,
        "10109": 211,
        "10110": 137,
        "10111": 236,
        "10112": 15,
        "10113": 113,
        "10114": 243,
        "10115": 7,
        "10116": 112,
        "10117": 57,
        "10118": 177,
        "10119": 212,
        "10120": 229,
        "10121": 219,
        "10122": 44,
        "10123": 22,
        "10124": 67,
        "10125": 136,
        "10126": 230,
        "10127": 23,
        "10128": 201,
        "10129": 78,
        "10130": 253,
        "10131": 178,
        "10132": 144,
        "10133": 46,
        "10134": 37,
        "10135": 182,
        "10136": 119,
        "10137": 94,
        "10138": 17,
        "10139": 35,
        "10140": 87,
        "10141": 164,
        "10142": 211,
        "10143": 149,
        "10144": 222,
        "10145": 225,
        "10146": 117,
        "10147": 213,
        "10148": 5,
        "10149": 175,
        "10150": 35,
        "10151": 190,
        "10152": 222,
        "10153": 194,
        "10154": 128,
        "10155": 149,
        "10156": 166,
        "10157": 59,
        "10158": 53,
        "10159": 114,
        "10160": 231,
        "10161": 244,
        "10162": 11,
        "10163": 124,
        "10164": 109,
        "10165": 246,
        "10166": 226,
        "10167": 87,
        "10168": 94,
        "10169": 215,
        "10170": 189,
        "10171": 198,
        "10172": 134,
        "10173": 10,
        "10174": 56,
        "10175": 21,
        "10176": 66,
        "10177": 193,
        "10178": 246,
        "10179": 234,
        "10180": 100,
        "10181": 63,
        "10182": 73,
        "10183": 62,
        "10184": 2,
        "10185": 189,
        "10186": 116,
        "10187": 70,
        "10188": 253,
        "10189": 181,
        "10190": 1,
        "10191": 168,
        "10192": 36,
        "10193": 21,
        "10194": 123,
        "10195": 1,
        "10196": 151,
        "10197": 122,
        "10198": 25,
        "10199": 16,
        "10200": 218,
        "10201": 4,
        "10202": 196,
        "10203": 245,
        "10204": 247,
        "10205": 155,
        "10206": 182,
        "10207": 89,
        "10208": 85,
        "10209": 171,
        "10210": 134,
        "10211": 121,
        "10212": 215,
        "10213": 80,
        "10214": 13,
        "10215": 168,
        "10216": 33,
        "10217": 171,
        "10218": 154,
        "10219": 205,
        "10220": 26,
        "10221": 36,
        "10222": 202,
        "10223": 237,
        "10224": 96,
        "10225": 7,
        "10226": 164,
        "10227": 13,
        "10228": 224,
        "10229": 27,
        "10230": 77,
        "10231": 31,
        "10232": 219,
        "10233": 20,
        "10234": 1,
        "10235": 195,
        "10236": 83,
        "10237": 179,
        "10238": 171,
        "10239": 85,
        "10240": 6,
        "10241": 62,
        "10242": 163,
        "10243": 241,
        "10244": 68,
        "10245": 123,
        "10246": 172,
        "10247": 163,
        "10248": 200,
        "10249": 214,
        "10250": 192,
        "10251": 50,
        "10252": 234,
        "10253": 122,
        "10254": 90,
        "10255": 118,
        "10256": 125,
        "10257": 43,
        "10258": 108,
        "10259": 112,
        "10260": 233,
        "10261": 61,
        "10262": 238,
        "10263": 205,
        "10264": 106,
        "10265": 197,
        "10266": 216,
        "10267": 131,
        "10268": 188,
        "10269": 215,
        "10270": 26,
        "10271": 8,
        "10272": 70,
        "10273": 222,
        "10274": 219,
        "10275": 248,
        "10276": 62,
        "10277": 234,
        "10278": 34,
        "10279": 41,
        "10280": 51,
        "10281": 143,
        "10282": 216,
        "10283": 216,
        "10284": 22,
        "10285": 17,
        "10286": 231,
        "10287": 138,
        "10288": 105,
        "10289": 106,
        "10290": 51,
        "10291": 169,
        "10292": 77,
        "10293": 47,
        "10294": 94,
        "10295": 219,
        "10296": 10,
        "10297": 164,
        "10298": 147,
        "10299": 192,
        "10300": 137,
        "10301": 255,
        "10302": 182,
        "10303": 234,
        "10304": 48,
        "10305": 98,
        "10306": 195,
        "10307": 137,
        "10308": 35,
        "10309": 0,
        "10310": 236,
        "10311": 159,
        "10312": 76,
        "10313": 96,
        "10314": 153,
        "10315": 196,
        "10316": 162,
        "10317": 5,
        "10318": 246,
        "10319": 115,
        "10320": 146,
        "10321": 135,
        "10322": 9,
        "10323": 27,
        "10324": 43,
        "10325": 79,
        "10326": 151,
        "10327": 30,
        "10328": 70,
        "10329": 180,
        "10330": 70,
        "10331": 44,
        "10332": 30,
        "10333": 29,
        "10334": 172,
        "10335": 182,
        "10336": 66,
        "10337": 109,
        "10338": 217,
        "10339": 62,
        "10340": 188,
        "10341": 154,
        "10342": 175,
        "10343": 131,
        "10344": 163,
        "10345": 190,
        "10346": 252,
        "10347": 99,
        "10348": 90,
        "10349": 211,
        "10350": 104,
        "10351": 178,
        "10352": 46,
        "10353": 48,
        "10354": 12,
        "10355": 22,
        "10356": 3,
        "10357": 61,
        "10358": 47,
        "10359": 57,
        "10360": 53,
        "10361": 61,
        "10362": 197,
        "10363": 132,
        "10364": 73,
        "10365": 221,
        "10366": 145,
        "10367": 47,
        "10368": 232,
        "10369": 61,
        "10370": 101,
        "10371": 235,
        "10372": 61,
        "10373": 18,
        "10374": 146,
        "10375": 18,
        "10376": 188,
        "10377": 104,
        "10378": 238,
        "10379": 226,
        "10380": 4,
        "10381": 157,
        "10382": 132,
        "10383": 16,
        "10384": 132,
        "10385": 153,
        "10386": 127,
        "10387": 75,
        "10388": 134,
        "10389": 215,
        "10390": 22,
        "10391": 195,
        "10392": 134,
        "10393": 56,
        "10394": 95,
        "10395": 143,
        "10396": 201,
        "10397": 20,
        "10398": 67,
        "10399": 16,
        "10400": 90,
        "10401": 233,
        "10402": 89,
        "10403": 230,
        "10404": 144,
        "10405": 218,
        "10406": 127,
        "10407": 202,
        "10408": 225,
        "10409": 199,
        "10410": 170,
        "10411": 144,
        "10412": 126,
        "10413": 132,
        "10414": 154,
        "10415": 124,
        "10416": 164,
        "10417": 203,
        "10418": 232,
        "10419": 174,
        "10420": 110,
        "10421": 64,
        "10422": 133,
        "10423": 175,
        "10424": 191,
        "10425": 166,
        "10426": 160,
        "10427": 214,
        "10428": 2,
        "10429": 40,
        "10430": 46,
        "10431": 222,
        "10432": 166,
        "10433": 171,
        "10434": 109,
        "10435": 73,
        "10436": 160,
        "10437": 173,
        "10438": 159,
        "10439": 94,
        "10440": 9,
        "10441": 211,
        "10442": 170,
        "10443": 168,
        "10444": 169,
        "10445": 223,
        "10446": 131,
        "10447": 252,
        "10448": 155,
        "10449": 129,
        "10450": 1,
        "10451": 59,
        "10452": 180,
        "10453": 27,
        "10454": 239,
        "10455": 209,
        "10456": 225,
        "10457": 106,
        "10458": 22,
        "10459": 126,
        "10460": 107,
        "10461": 36,
        "10462": 210,
        "10463": 241,
        "10464": 204,
        "10465": 132,
        "10466": 40,
        "10467": 44,
        "10468": 234,
        "10469": 49,
        "10470": 193,
        "10471": 79,
        "10472": 153,
        "10473": 174,
        "10474": 189,
        "10475": 78,
        "10476": 77,
        "10477": 210,
        "10478": 196,
        "10479": 33,
        "10480": 126,
        "10481": 72,
        "10482": 108,
        "10483": 149,
        "10484": 15,
        "10485": 24,
        "10486": 25,
        "10487": 164,
        "10488": 105,
        "10489": 153,
        "10490": 108,
        "10491": 228,
        "10492": 117,
        "10493": 2,
        "10494": 107,
        "10495": 250,
        "10496": 215,
        "10497": 241,
        "10498": 122,
        "10499": 139,
        "10500": 148,
        "10501": 19,
        "10502": 158,
        "10503": 183,
        "10504": 223,
        "10505": 148,
        "10506": 135,
        "10507": 244,
        "10508": 222,
        "10509": 29,
        "10510": 59,
        "10511": 66,
        "10512": 4,
        "10513": 22,
        "10514": 168,
        "10515": 235,
        "10516": 138,
        "10517": 157,
        "10518": 25,
        "10519": 43,
        "10520": 7,
        "10521": 0,
        "10522": 8,
        "10523": 93,
        "10524": 115,
        "10525": 253,
        "10526": 114,
        "10527": 60,
        "10528": 32,
        "10529": 118,
        "10530": 104,
        "10531": 125,
        "10532": 183,
        "10533": 43,
        "10534": 37,
        "10535": 156,
        "10536": 188,
        "10537": 105,
        "10538": 76,
        "10539": 121,
        "10540": 80,
        "10541": 28,
        "10542": 220,
        "10543": 76,
        "10544": 80,
        "10545": 81,
        "10546": 151,
        "10547": 32,
        "10548": 200,
        "10549": 246,
        "10550": 223,
        "10551": 184,
        "10552": 72,
        "10553": 31,
        "10554": 10,
        "10555": 21,
        "10556": 149,
        "10557": 99,
        "10558": 36,
        "10559": 152,
        "10560": 130,
        "10561": 194,
        "10562": 158,
        "10563": 245,
        "10564": 87,
        "10565": 85,
        "10566": 44,
        "10567": 0,
        "10568": 203,
        "10569": 171,
        "10570": 17,
        "10571": 122,
        "10572": 215,
        "10573": 235,
        "10574": 145,
        "10575": 51,
        "10576": 196,
        "10577": 173,
        "10578": 188,
        "10579": 55,
        "10580": 249,
        "10581": 92,
        "10582": 184,
        "10583": 66,
        "10584": 245,
        "10585": 216,
        "10586": 135,
        "10587": 19,
        "10588": 40,
        "10589": 25,
        "10590": 250,
        "10591": 163,
        "10592": 61,
        "10593": 161,
        "10594": 114,
        "10595": 41,
        "10596": 241,
        "10597": 244,
        "10598": 153,
        "10599": 105,
        "10600": 186,
        "10601": 231,
        "10602": 120,
        "10603": 91,
        "10604": 253,
        "10605": 219,
        "10606": 226,
        "10607": 38,
        "10608": 199,
        "10609": 33,
        "10610": 160,
        "10611": 95,
        "10612": 74,
        "10613": 4,
        "10614": 73,
        "10615": 139,
        "10616": 145,
        "10617": 204,
        "10618": 217,
        "10619": 235,
        "10620": 239,
        "10621": 110,
        "10622": 217,
        "10623": 150,
        "10624": 210,
        "10625": 171,
        "10626": 74,
        "10627": 55,
        "10628": 209,
        "10629": 117,
        "10630": 230,
        "10631": 132,
        "10632": 32,
        "10633": 27,
        "10634": 35,
        "10635": 134,
        "10636": 203,
        "10637": 1,
        "10638": 141,
        "10639": 253,
        "10640": 48,
        "10641": 137,
        "10642": 131,
        "10643": 228,
        "10644": 63,
        "10645": 10,
        "10646": 33,
        "10647": 177,
        "10648": 147,
        "10649": 142,
        "10650": 167,
        "10651": 168,
        "10652": 21,
        "10653": 115,
        "10654": 68,
        "10655": 56,
        "10656": 226,
        "10657": 89,
        "10658": 131,
        "10659": 255,
        "10660": 124,
        "10661": 181,
        "10662": 7,
        "10663": 125,
        "10664": 29,
        "10665": 162,
        "10666": 173,
        "10667": 22,
        "10668": 157,
        "10669": 87,
        "10670": 245,
        "10671": 230,
        "10672": 191,
        "10673": 249,
        "10674": 13,
        "10675": 18,
        "10676": 237,
        "10677": 170,
        "10678": 29,
        "10679": 48,
        "10680": 196,
        "10681": 27,
        "10682": 26,
        "10683": 195,
        "10684": 122,
        "10685": 128,
        "10686": 243,
        "10687": 96,
        "10688": 212,
        "10689": 241,
        "10690": 227,
        "10691": 198,
        "10692": 201,
        "10693": 22,
        "10694": 107,
        "10695": 95,
        "10696": 46,
        "10697": 107,
        "10698": 143,
        "10699": 180,
        "10700": 13,
        "10701": 127,
        "10702": 174,
        "10703": 127,
        "10704": 187,
        "10705": 80,
        "10706": 141,
        "10707": 86,
        "10708": 125,
        "10709": 0,
        "10710": 145,
        "10711": 80,
        "10712": 77,
        "10713": 145,
        "10714": 115,
        "10715": 130,
        "10716": 126,
        "10717": 158,
        "10718": 155,
        "10719": 2,
        "10720": 5,
        "10721": 41,
        "10722": 225,
        "10723": 183,
        "10724": 47,
        "10725": 165,
        "10726": 144,
        "10727": 183,
        "10728": 75,
        "10729": 81,
        "10730": 45,
        "10731": 30,
        "10732": 249,
        "10733": 229,
        "10734": 221,
        "10735": 119,
        "10736": 216,
        "10737": 158,
        "10738": 162,
        "10739": 131,
        "10740": 187,
        "10741": 250,
        "10742": 36,
        "10743": 183,
        "10744": 140,
        "10745": 26,
        "10746": 14,
        "10747": 33,
        "10748": 9,
        "10749": 2,
        "10750": 10,
        "10751": 218,
        "10752": 228,
        "10753": 111,
        "10754": 4,
        "10755": 85,
        "10756": 180,
        "10757": 193,
        "10758": 203,
        "10759": 0,
        "10760": 90,
        "10761": 67,
        "10762": 246,
        "10763": 89,
        "10764": 120,
        "10765": 89,
        "10766": 70,
        "10767": 206,
        "10768": 94,
        "10769": 22,
        "10770": 93,
        "10771": 183,
        "10772": 73,
        "10773": 6,
        "10774": 163,
        "10775": 202,
        "10776": 28,
        "10777": 20,
        "10778": 138,
        "10779": 195,
        "10780": 66,
        "10781": 213,
        "10782": 53,
        "10783": 185,
        "10784": 158,
        "10785": 137,
        "10786": 177,
        "10787": 184,
        "10788": 229,
        "10789": 65,
        "10790": 203,
        "10791": 62,
        "10792": 39,
        "10793": 33,
        "10794": 110,
        "10795": 87,
        "10796": 253,
        "10797": 94,
        "10798": 128,
        "10799": 157,
        "10800": 232,
        "10801": 0,
        "10802": 41,
        "10803": 151,
        "10804": 222,
        "10805": 20,
        "10806": 110,
        "10807": 246,
        "10808": 163,
        "10809": 187,
        "10810": 117,
        "10811": 41,
        "10812": 232,
        "10813": 251,
        "10814": 216,
        "10815": 220,
        "10816": 34,
        "10817": 222,
        "10818": 173,
        "10819": 164,
        "10820": 146,
        "10821": 69,
        "10822": 156,
        "10823": 62,
        "10824": 93,
        "10825": 102,
        "10826": 32,
        "10827": 127,
        "10828": 6,
        "10829": 213,
        "10830": 13,
        "10831": 141,
        "10832": 163,
        "10833": 181,
        "10834": 201,
        "10835": 119,
        "10836": 182,
        "10837": 28,
        "10838": 91,
        "10839": 64,
        "10840": 24,
        "10841": 117,
        "10842": 188,
        "10843": 53,
        "10844": 27,
        "10845": 190,
        "10846": 153,
        "10847": 238,
        "10848": 110,
        "10849": 53,
        "10850": 173,
        "10851": 222,
        "10852": 152,
        "10853": 250,
        "10854": 173,
        "10855": 171,
        "10856": 236,
        "10857": 206,
        "10858": 96,
        "10859": 238,
        "10860": 125,
        "10861": 45,
        "10862": 83,
        "10863": 84,
        "10864": 121,
        "10865": 237,
        "10866": 138,
        "10867": 132,
        "10868": 148,
        "10869": 143,
        "10870": 103,
        "10871": 120,
        "10872": 73,
        "10873": 206,
        "10874": 209,
        "10875": 46,
        "10876": 79,
        "10877": 112,
        "10878": 120,
        "10879": 169,
        "10880": 53,
        "10881": 141,
        "10882": 18,
        "10883": 60,
        "10884": 24,
        "10885": 158,
        "10886": 230,
        "10887": 250,
        "10888": 100,
        "10889": 151,
        "10890": 200,
        "10891": 60,
        "10892": 189,
        "10893": 80,
        "10894": 73,
        "10895": 58,
        "10896": 23,
        "10897": 163,
        "10898": 222,
        "10899": 240,
        "10900": 52,
        "10901": 202,
        "10902": 104,
        "10903": 221,
        "10904": 90,
        "10905": 249,
        "10906": 127,
        "10907": 114,
        "10908": 59,
        "10909": 229,
        "10910": 14,
        "10911": 148,
        "10912": 71,
        "10913": 118,
        "10914": 82,
        "10915": 20,
        "10916": 237,
        "10917": 15,
        "10918": 50,
        "10919": 162,
        "10920": 166,
        "10921": 108,
        "10922": 201,
        "10923": 105,
        "10924": 85,
        "10925": 9,
        "10926": 6,
        "10927": 27,
        "10928": 96,
        "10929": 69,
        "10930": 186,
        "10931": 239,
        "10932": 140,
        "10933": 131,
        "10934": 88,
        "10935": 115,
        "10936": 38,
        "10937": 83,
        "10938": 87,
        "10939": 200,
        "10940": 126,
        "10941": 139,
        "10942": 95,
        "10943": 112,
        "10944": 45,
        "10945": 103,
        "10946": 165,
        "10947": 8,
        "10948": 222,
        "10949": 218,
        "10950": 213,
        "10951": 162,
        "10952": 165,
        "10953": 112,
        "10954": 32,
        "10955": 203,
        "10956": 242,
        "10957": 204,
        "10958": 23,
        "10959": 254,
        "10960": 9,
        "10961": 206,
        "10962": 160,
        "10963": 192,
        "10964": 157,
        "10965": 232,
        "10966": 191,
        "10967": 120,
        "10968": 19,
        "10969": 133,
        "10970": 226,
        "10971": 20,
        "10972": 206,
        "10973": 4,
        "10974": 130,
        "10975": 200,
        "10976": 107,
        "10977": 83,
        "10978": 114,
        "10979": 20,
        "10980": 117,
        "10981": 251,
        "10982": 230,
        "10983": 98,
        "10984": 26,
        "10985": 136,
        "10986": 107,
        "10987": 214,
        "10988": 244,
        "10989": 234,
        "10990": 54,
        "10991": 165,
        "10992": 114,
        "10993": 228,
        "10994": 145,
        "10995": 9,
        "10996": 86,
        "10997": 16,
        "10998": 111,
        "10999": 49,
        "11000": 201,
        "11001": 149,
        "11002": 76,
        "11003": 25,
        "11004": 162,
        "11005": 142,
        "11006": 160,
        "11007": 243,
        "11008": 251,
        "11009": 134,
        "11010": 201,
        "11011": 103,
        "11012": 125,
        "11013": 164,
        "11014": 21,
        "11015": 36,
        "11016": 121,
        "11017": 61,
        "11018": 199,
        "11019": 0,
        "11020": 174,
        "11021": 105,
        "11022": 84,
        "11023": 71,
        "11024": 0,
        "11025": 213,
        "11026": 137,
        "11027": 100,
        "11028": 224,
        "11029": 12,
        "11030": 152,
        "11031": 123,
        "11032": 250,
        "11033": 39,
        "11034": 232,
        "11035": 175,
        "11036": 168,
        "11037": 213,
        "11038": 45,
        "11039": 207,
        "11040": 77,
        "11041": 17,
        "11042": 55,
        "11043": 70,
        "11044": 139,
        "11045": 217,
        "11046": 247,
        "11047": 10,
        "11048": 192,
        "11049": 255,
        "11050": 102,
        "11051": 57,
        "11052": 206,
        "11053": 45,
        "11054": 222,
        "11055": 168,
        "11056": 240,
        "11057": 63,
        "11058": 180,
        "11059": 66,
        "11060": 177,
        "11061": 133,
        "11062": 96,
        "11063": 76,
        "11064": 20,
        "11065": 2,
        "11066": 251,
        "11067": 179,
        "11068": 254,
        "11069": 85,
        "11070": 10,
        "11071": 208,
        "11072": 190,
        "11073": 155,
        "11074": 189,
        "11075": 178,
        "11076": 145,
        "11077": 220,
        "11078": 35,
        "11079": 101,
        "11080": 186,
        "11081": 74,
        "11082": 122,
        "11083": 59,
        "11084": 65,
        "11085": 143,
        "11086": 46,
        "11087": 113,
        "11088": 61,
        "11089": 219,
        "11090": 207,
        "11091": 234,
        "11092": 114,
        "11093": 15,
        "11094": 251,
        "11095": 178,
        "11096": 71,
        "11097": 157,
        "11098": 176,
        "11099": 46,
        "11100": 131,
        "11101": 0,
        "11102": 108,
        "11103": 50,
        "11104": 64,
        "11105": 178,
        "11106": 215,
        "11107": 85,
        "11108": 202,
        "11109": 209,
        "11110": 51,
        "11111": 148,
        "11112": 6,
        "11113": 73,
        "11114": 181,
        "11115": 219,
        "11116": 212,
        "11117": 155,
        "11118": 165,
        "11119": 96,
        "11120": 159,
        "11121": 202,
        "11122": 119,
        "11123": 26,
        "11124": 132,
        "11125": 194,
        "11126": 60,
        "11127": 81,
        "11128": 59,
        "11129": 31,
        "11130": 105,
        "11131": 33,
        "11132": 208,
        "11133": 54,
        "11134": 14,
        "11135": 119,
        "11136": 255,
        "11137": 207,
        "11138": 146,
        "11139": 51,
        "11140": 156,
        "11141": 73,
        "11142": 109,
        "11143": 23,
        "11144": 65,
        "11145": 51,
        "11146": 3,
        "11147": 192,
        "11148": 205,
        "11149": 177,
        "11150": 31,
        "11151": 184,
        "11152": 176,
        "11153": 29,
        "11154": 14,
        "11155": 197,
        "11156": 213,
        "11157": 139,
        "11158": 133,
        "11159": 204,
        "11160": 45,
        "11161": 242,
        "11162": 91,
        "11163": 202,
        "11164": 59,
        "11165": 153,
        "11166": 216,
        "11167": 80,
        "11168": 215,
        "11169": 74,
        "11170": 8,
        "11171": 155,
        "11172": 175,
        "11173": 125,
        "11174": 107,
        "11175": 171,
        "11176": 216,
        "11177": 54,
        "11178": 31,
        "11179": 207,
        "11180": 196,
        "11181": 119,
        "11182": 252,
        "11183": 116,
        "11184": 232,
        "11185": 252,
        "11186": 156,
        "11187": 15,
        "11188": 130,
        "11189": 123,
        "11190": 212,
        "11191": 45,
        "11192": 107,
        "11193": 128,
        "11194": 10,
        "11195": 203,
        "11196": 64,
        "11197": 64,
        "11198": 83,
        "11199": 87,
        "11200": 102,
        "11201": 59,
        "11202": 96,
        "11203": 16,
        "11204": 227,
        "11205": 228,
        "11206": 60,
        "11207": 114,
        "11208": 135,
        "11209": 13,
        "11210": 45,
        "11211": 191,
        "11212": 252,
        "11213": 78,
        "11214": 11,
        "11215": 86,
        "11216": 208,
        "11217": 128,
        "11218": 92,
        "11219": 203,
        "11220": 3,
        "11221": 170,
        "11222": 223,
        "11223": 173,
        "11224": 246,
        "11225": 196,
        "11226": 148,
        "11227": 148,
        "11228": 171,
        "11229": 225,
        "11230": 255,
        "11231": 189,
        "11232": 36,
        "11233": 155,
        "11234": 131,
        "11235": 53,
        "11236": 0,
        "11237": 37,
        "11238": 153,
        "11239": 237,
        "11240": 88,
        "11241": 90,
        "11242": 3,
        "11243": 92,
        "11244": 25,
        "11245": 57,
        "11246": 146,
        "11247": 77,
        "11248": 22,
        "11249": 215,
        "11250": 110,
        "11251": 198,
        "11252": 173,
        "11253": 242,
        "11254": 157,
        "11255": 49,
        "11256": 7,
        "11257": 140,
        "11258": 26,
        "11259": 237,
        "11260": 228,
        "11261": 161,
        "11262": 13,
        "11263": 196,
        "11264": 231,
        "11265": 37,
        "11266": 121,
        "11267": 88,
        "11268": 66,
        "11269": 248,
        "11270": 86,
        "11271": 255,
        "11272": 215,
        "11273": 225,
        "11274": 159,
        "11275": 128,
        "11276": 234,
        "11277": 43,
        "11278": 144,
        "11279": 61,
        "11280": 239,
        "11281": 150,
        "11282": 161,
        "11283": 32,
        "11284": 243,
        "11285": 115,
        "11286": 25,
        "11287": 167,
        "11288": 75,
        "11289": 226,
        "11290": 250,
        "11291": 50,
        "11292": 117,
        "11293": 151,
        "11294": 98,
        "11295": 195,
        "11296": 19,
        "11297": 214,
        "11298": 218,
        "11299": 221,
        "11300": 36,
        "11301": 190,
        "11302": 37,
        "11303": 22,
        "11304": 51,
        "11305": 99,
        "11306": 74,
        "11307": 149,
        "11308": 169,
        "11309": 238,
        "11310": 80,
        "11311": 15,
        "11312": 77,
        "11313": 36,
        "11314": 162,
        "11315": 143,
        "11316": 165,
        "11317": 224,
        "11318": 176,
        "11319": 7,
        "11320": 144,
        "11321": 151,
        "11322": 207,
        "11323": 239,
        "11324": 234,
        "11325": 13,
        "11326": 119,
        "11327": 88,
        "11328": 63,
        "11329": 216,
        "11330": 27,
        "11331": 183,
        "11332": 235,
        "11333": 103,
        "11334": 163,
        "11335": 175,
        "11336": 130,
        "11337": 107,
        "11338": 243,
        "11339": 84,
        "11340": 158,
        "11341": 75,
        "11342": 179,
        "11343": 33,
        "11344": 216,
        "11345": 54,
        "11346": 72,
        "11347": 86,
        "11348": 67,
        "11349": 190,
        "11350": 123,
        "11351": 150,
        "11352": 97,
        "11353": 98,
        "11354": 249,
        "11355": 69,
        "11356": 104,
        "11357": 5,
        "11358": 76,
        "11359": 47,
        "11360": 25,
        "11361": 5,
        "11362": 142,
        "11363": 163,
        "11364": 160,
        "11365": 187,
        "11366": 196,
        "11367": 218,
        "11368": 196,
        "11369": 27,
        "11370": 27,
        "11371": 76,
        "11372": 179,
        "11373": 125,
        "11374": 54,
        "11375": 140,
        "11376": 129,
        "11377": 225,
        "11378": 142,
        "11379": 169,
        "11380": 25,
        "11381": 32,
        "11382": 65,
        "11383": 96,
        "11384": 169,
        "11385": 156,
        "11386": 254,
        "11387": 171,
        "11388": 94,
        "11389": 120,
        "11390": 81,
        "11391": 245,
        "11392": 45,
        "11393": 173,
        "11394": 206,
        "11395": 76,
        "11396": 28,
        "11397": 1,
        "11398": 55,
        "11399": 27,
        "11400": 79,
        "11401": 161,
        "11402": 4,
        "11403": 68,
        "11404": 121,
        "11405": 95,
        "11406": 186,
        "11407": 188,
        "11408": 185,
        "11409": 76,
        "11410": 193,
        "11411": 29,
        "11412": 102,
        "11413": 93,
        "11414": 191,
        "11415": 158,
        "11416": 7,
        "11417": 1,
        "11418": 171,
        "11419": 6,
        "11420": 66,
        "11421": 209,
        "11422": 164,
        "11423": 139,
        "11424": 76,
        "11425": 144,
        "11426": 95,
        "11427": 181,
        "11428": 33,
        "11429": 152,
        "11430": 150,
        "11431": 228,
        "11432": 191,
        "11433": 101,
        "11434": 90,
        "11435": 87,
        "11436": 10,
        "11437": 137,
        "11438": 137,
        "11439": 97,
        "11440": 145,
        "11441": 253,
        "11442": 86,
        "11443": 153,
        "11444": 9,
        "11445": 10,
        "11446": 143,
        "11447": 21,
        "11448": 233,
        "11449": 175,
        "11450": 74,
        "11451": 178,
        "11452": 49,
        "11453": 162,
        "11454": 10,
        "11455": 98,
        "11456": 170,
        "11457": 245,
        "11458": 25,
        "11459": 128,
        "11460": 58,
        "11461": 127,
        "11462": 150,
        "11463": 14,
        "11464": 112,
        "11465": 214,
        "11466": 96,
        "11467": 165,
        "11468": 172,
        "11469": 209,
        "11470": 16,
        "11471": 185,
        "11472": 250,
        "11473": 101,
        "11474": 246,
        "11475": 208,
        "11476": 32,
        "11477": 61,
        "11478": 146,
        "11479": 179,
        "11480": 119,
        "11481": 187,
        "11482": 88,
        "11483": 208,
        "11484": 66,
        "11485": 250,
        "11486": 249,
        "11487": 98,
        "11488": 37,
        "11489": 185,
        "11490": 17,
        "11491": 136,
        "11492": 132,
        "11493": 239,
        "11494": 95,
        "11495": 133,
        "11496": 240,
        "11497": 65,
        "11498": 163,
        "11499": 83,
        "11500": 107,
        "11501": 155,
        "11502": 231,
        "11503": 167,
        "11504": 112,
        "11505": 65,
        "11506": 231,
        "11507": 197,
        "11508": 24,
        "11509": 69,
        "11510": 67,
        "11511": 67,
        "11512": 179,
        "11513": 4,
        "11514": 139,
        "11515": 201,
        "11516": 126,
        "11517": 138,
        "11518": 172,
        "11519": 168,
        "11520": 176,
        "11521": 38,
        "11522": 110,
        "11523": 232,
        "11524": 224,
        "11525": 118,
        "11526": 31,
        "11527": 70,
        "11528": 228,
        "11529": 190,
        "11530": 135,
        "11531": 60,
        "11532": 141,
        "11533": 201,
        "11534": 216,
        "11535": 45,
        "11536": 10,
        "11537": 149,
        "11538": 221,
        "11539": 138,
        "11540": 216,
        "11541": 60,
        "11542": 249,
        "11543": 182,
        "11544": 100,
        "11545": 71,
        "11546": 72,
        "11547": 226,
        "11548": 213,
        "11549": 78,
        "11550": 69,
        "11551": 120,
        "11552": 29,
        "11553": 64,
        "11554": 182,
        "11555": 246,
        "11556": 79,
        "11557": 95,
        "11558": 172,
        "11559": 164,
        "11560": 218,
        "11561": 24,
        "11562": 181,
        "11563": 94,
        "11564": 91,
        "11565": 113,
        "11566": 3,
        "11567": 137,
        "11568": 98,
        "11569": 37,
        "11570": 124,
        "11571": 101,
        "11572": 121,
        "11573": 116,
        "11574": 245,
        "11575": 41,
        "11576": 88,
        "11577": 252,
        "11578": 89,
        "11579": 90,
        "11580": 128,
        "11581": 64,
        "11582": 36,
        "11583": 180,
        "11584": 27,
        "11585": 167,
        "11586": 152,
        "11587": 70,
        "11588": 145,
        "11589": 73,
        "11590": 72,
        "11591": 137,
        "11592": 134,
        "11593": 40,
        "11594": 130,
        "11595": 241,
        "11596": 133,
        "11597": 189,
        "11598": 21,
        "11599": 141,
        "11600": 206,
        "11601": 117,
        "11602": 176,
        "11603": 160,
        "11604": 34,
        "11605": 68,
        "11606": 139,
        "11607": 244,
        "11608": 63,
        "11609": 42,
        "11610": 41,
        "11611": 148,
        "11612": 205,
        "11613": 219,
        "11614": 45,
        "11615": 130,
        "11616": 150,
        "11617": 142,
        "11618": 82,
        "11619": 8,
        "11620": 44,
        "11621": 186,
        "11622": 205,
        "11623": 106,
        "11624": 253,
        "11625": 162,
        "11626": 209,
        "11627": 106,
        "11628": 105,
        "11629": 35,
        "11630": 167,
        "11631": 200,
        "11632": 163,
        "11633": 20,
        "11634": 115,
        "11635": 246,
        "11636": 163,
        "11637": 7,
        "11638": 203,
        "11639": 171,
        "11640": 179,
        "11641": 104,
        "11642": 156,
        "11643": 152,
        "11644": 130,
        "11645": 252,
        "11646": 24,
        "11647": 89,
        "11648": 175,
        "11649": 90,
        "11650": 22,
        "11651": 65,
        "11652": 236,
        "11653": 26,
        "11654": 237,
        "11655": 69,
        "11656": 12,
        "11657": 212,
        "11658": 72,
        "11659": 180,
        "11660": 91,
        "11661": 231,
        "11662": 69,
        "11663": 28,
        "11664": 207,
        "11665": 83,
        "11666": 26,
        "11667": 149,
        "11668": 60,
        "11669": 182,
        "11670": 238,
        "11671": 148,
        "11672": 186,
        "11673": 143,
        "11674": 221,
        "11675": 234,
        "11676": 120,
        "11677": 222,
        "11678": 147,
        "11679": 181,
        "11680": 216,
        "11681": 202,
        "11682": 232,
        "11683": 171,
        "11684": 34,
        "11685": 83,
        "11686": 37,
        "11687": 83,
        "11688": 84,
        "11689": 24,
        "11690": 51,
        "11691": 30,
        "11692": 192,
        "11693": 167,
        "11694": 192,
        "11695": 190,
        "11696": 20,
        "11697": 81,
        "11698": 160,
        "11699": 63,
        "11700": 232,
        "11701": 6,
        "11702": 103,
        "11703": 132,
        "11704": 238,
        "11705": 220,
        "11706": 176,
        "11707": 176,
        "11708": 181,
        "11709": 184,
        "11710": 58,
        "11711": 71,
        "11712": 184,
        "11713": 203,
        "11714": 185,
        "11715": 114,
        "11716": 125,
        "11717": 160,
        "11718": 197,
        "11719": 217,
        "11720": 193,
        "11721": 183,
        "11722": 172,
        "11723": 154,
        "11724": 46,
        "11725": 113,
        "11726": 234,
        "11727": 75,
        "11728": 221,
        "11729": 189,
        "11730": 163,
        "11731": 213,
        "11732": 94,
        "11733": 91,
        "11734": 125,
        "11735": 56,
        "11736": 229,
        "11737": 201,
        "11738": 45,
        "11739": 79,
        "11740": 73,
        "11741": 162,
        "11742": 32,
        "11743": 250,
        "11744": 242,
        "11745": 44,
        "11746": 178,
        "11747": 41,
        "11748": 113,
        "11749": 162,
        "11750": 34,
        "11751": 36,
        "11752": 120,
        "11753": 242,
        "11754": 210,
        "11755": 167,
        "11756": 147,
        "11757": 242,
        "11758": 252,
        "11759": 239,
        "11760": 122,
        "11761": 222,
        "11762": 4,
        "11763": 34,
        "11764": 225,
        "11765": 172,
        "11766": 62,
        "11767": 223,
        "11768": 56,
        "11769": 9,
        "11770": 172,
        "11771": 33,
        "11772": 50,
        "11773": 54,
        "11774": 78,
        "11775": 184,
        "11776": 238,
        "11777": 239,
        "11778": 97,
        "11779": 59,
        "11780": 11,
        "11781": 249,
        "11782": 163,
        "11783": 110,
        "11784": 130,
        "11785": 189,
        "11786": 46,
        "11787": 92,
        "11788": 209,
        "11789": 217,
        "11790": 216,
        "11791": 28,
        "11792": 146,
        "11793": 25,
        "11794": 31,
        "11795": 26,
        "11796": 112,
        "11797": 176,
        "11798": 38,
        "11799": 224,
        "11800": 208,
        "11801": 246,
        "11802": 63,
        "11803": 167,
        "11804": 242,
        "11805": 90,
        "11806": 213,
        "11807": 196,
        "11808": 121,
        "11809": 177,
        "11810": 25,
        "11811": 156,
        "11812": 45,
        "11813": 117,
        "11814": 211,
        "11815": 231,
        "11816": 26,
        "11817": 79,
        "11818": 167,
        "11819": 111,
        "11820": 48,
        "11821": 225,
        "11822": 134,
        "11823": 77,
        "11824": 232,
        "11825": 103,
        "11826": 238,
        "11827": 30,
        "11828": 76,
        "11829": 131,
        "11830": 99,
        "11831": 162,
        "11832": 4,
        "11833": 213,
        "11834": 53,
        "11835": 64,
        "11836": 15,
        "11837": 204,
        "11838": 219,
        "11839": 36,
        "11840": 195,
        "11841": 193,
        "11842": 169,
        "11843": 227,
        "11844": 109,
        "11845": 106,
        "11846": 98,
        "11847": 54,
        "11848": 253,
        "11849": 235,
        "11850": 190,
        "11851": 254,
        "11852": 198,
        "11853": 213,
        "11854": 173,
        "11855": 230,
        "11856": 198,
        "11857": 244,
        "11858": 2,
        "11859": 3,
        "11860": 199,
        "11861": 5,
        "11862": 254,
        "11863": 78,
        "11864": 4,
        "11865": 90,
        "11866": 46,
        "11867": 86,
        "11868": 189,
        "11869": 215,
        "11870": 254,
        "11871": 223,
        "11872": 42,
        "11873": 93,
        "11874": 22,
        "11875": 48,
        "11876": 87,
        "11877": 176,
        "11878": 149,
        "11879": 125,
        "11880": 206,
        "11881": 118,
        "11882": 130,
        "11883": 46,
        "11884": 209,
        "11885": 102,
        "11886": 122,
        "11887": 74,
        "11888": 77,
        "11889": 39,
        "11890": 235,
        "11891": 205,
        "11892": 223,
        "11893": 38,
        "11894": 18,
        "11895": 72,
        "11896": 0,
        "11897": 64,
        "11898": 169,
        "11899": 29,
        "11900": 176,
        "11901": 141,
        "11902": 101,
        "11903": 49,
        "11904": 187,
        "11905": 54,
        "11906": 208,
        "11907": 161,
        "11908": 15,
        "11909": 79,
        "11910": 225,
        "11911": 70,
        "11912": 47,
        "11913": 65,
        "11914": 77,
        "11915": 89,
        "11916": 128,
        "11917": 127,
        "11918": 46,
        "11919": 176,
        "11920": 34,
        "11921": 98,
        "11922": 239,
        "11923": 167,
        "11924": 225,
        "11925": 214,
        "11926": 138,
        "11927": 91,
        "11928": 185,
        "11929": 104,
        "11930": 117,
        "11931": 167,
        "11932": 159,
        "11933": 28,
        "11934": 126,
        "11935": 83,
        "11936": 245,
        "11937": 208,
        "11938": 67,
        "11939": 145,
        "11940": 9,
        "11941": 102,
        "11942": 210,
        "11943": 131,
        "11944": 192,
        "11945": 12,
        "11946": 144,
        "11947": 194,
        "11948": 179,
        "11949": 149,
        "11950": 149,
        "11951": 147,
        "11952": 177,
        "11953": 85,
        "11954": 59,
        "11955": 124,
        "11956": 42,
        "11957": 30,
        "11958": 28,
        "11959": 75,
        "11960": 217,
        "11961": 189,
        "11962": 247,
        "11963": 134,
        "11964": 119,
        "11965": 20,
        "11966": 223,
        "11967": 245,
        "11968": 134,
        "11969": 159,
        "11970": 164,
        "11971": 58,
        "11972": 77,
        "11973": 4,
        "11974": 249,
        "11975": 144,
        "11976": 161,
        "11977": 234,
        "11978": 199,
        "11979": 110,
        "11980": 233,
        "11981": 252,
        "11982": 194,
        "11983": 43,
        "11984": 87,
        "11985": 93,
        "11986": 251,
        "11987": 223,
        "11988": 254,
        "11989": 118,
        "11990": 208,
        "11991": 82,
        "11992": 245,
        "11993": 67,
        "11994": 61,
        "11995": 244,
        "11996": 237,
        "11997": 81,
        "11998": 233,
        "11999": 169,
        "12000": 71,
        "12001": 159,
        "12002": 130,
        "12003": 120,
        "12004": 169,
        "12005": 33,
        "12006": 96,
        "12007": 147,
        "12008": 115,
        "12009": 54,
        "12010": 120,
        "12011": 121,
        "12012": 132,
        "12013": 204,
        "12014": 215,
        "12015": 240,
        "12016": 152,
        "12017": 151,
        "12018": 14,
        "12019": 120,
        "12020": 207,
        "12021": 26,
        "12022": 41,
        "12023": 167,
        "12024": 214,
        "12025": 63,
        "12026": 32,
        "12027": 157,
        "12028": 251,
        "12029": 178,
        "12030": 79,
        "12031": 117,
        "12032": 109,
        "12033": 92,
        "12034": 79,
        "12035": 89,
        "12036": 167,
        "12037": 92,
        "12038": 122,
        "12039": 176,
        "12040": 58,
        "12041": 62,
        "12042": 87,
        "12043": 175,
        "12044": 160,
        "12045": 161,
        "12046": 56,
        "12047": 2,
        "12048": 145,
        "12049": 188,
        "12050": 10,
        "12051": 112,
        "12052": 178,
        "12053": 103,
        "12054": 254,
        "12055": 38,
        "12056": 211,
        "12057": 130,
        "12058": 64,
        "12059": 174,
        "12060": 45,
        "12061": 131,
        "12062": 7,
        "12063": 99,
        "12064": 207,
        "12065": 97,
        "12066": 8,
        "12067": 160,
        "12068": 177,
        "12069": 147,
        "12070": 97,
        "12071": 251,
        "12072": 206,
        "12073": 32,
        "12074": 240,
        "12075": 188,
        "12076": 201,
        "12077": 174,
        "12078": 13,
        "12079": 111,
        "12080": 90,
        "12081": 67,
        "12082": 249,
        "12083": 136,
        "12084": 20,
        "12085": 205,
        "12086": 120,
        "12087": 88,
        "12088": 103,
        "12089": 24,
        "12090": 224,
        "12091": 186,
        "12092": 196,
        "12093": 1,
        "12094": 24,
        "12095": 116,
        "12096": 85,
        "12097": 192,
        "12098": 253,
        "12099": 80,
        "12100": 156,
        "12101": 138,
        "12102": 13,
        "12103": 184,
        "12104": 83,
        "12105": 254,
        "12106": 46,
        "12107": 111,
        "12108": 68,
        "12109": 63,
        "12110": 70,
        "12111": 191,
        "12112": 74,
        "12113": 235,
        "12114": 220,
        "12115": 182,
        "12116": 240,
        "12117": 92,
        "12118": 57,
        "12119": 251,
        "12120": 197,
        "12121": 151,
        "12122": 34,
        "12123": 18,
        "12124": 167,
        "12125": 9,
        "12126": 54,
        "12127": 108,
        "12128": 77,
        "12129": 185,
        "12130": 229,
        "12131": 99,
        "12132": 173,
        "12133": 124,
        "12134": 162,
        "12135": 96,
        "12136": 154,
        "12137": 43,
        "12138": 208,
        "12139": 181,
        "12140": 225,
        "12141": 23,
        "12142": 192,
        "12143": 29,
        "12144": 79,
        "12145": 58,
        "12146": 67,
        "12147": 81,
        "12148": 32,
        "12149": 110,
        "12150": 33,
        "12151": 120,
        "12152": 224,
        "12153": 52,
        "12154": 167,
        "12155": 32,
        "12156": 150,
        "12157": 51,
        "12158": 88,
        "12159": 104,
        "12160": 0,
        "12161": 191,
        "12162": 55,
        "12163": 56,
        "12164": 194,
        "12165": 96,
        "12166": 14,
        "12167": 124,
        "12168": 202,
        "12169": 57,
        "12170": 20,
        "12171": 175,
        "12172": 96,
        "12173": 59,
        "12174": 149,
        "12175": 151,
        "12176": 112,
        "12177": 157,
        "12178": 81,
        "12179": 114,
        "12180": 126,
        "12181": 188,
        "12182": 143,
        "12183": 154,
        "12184": 243,
        "12185": 27,
        "12186": 55,
        "12187": 136,
        "12188": 124,
        "12189": 55,
        "12190": 5,
        "12191": 35,
        "12192": 43,
        "12193": 196,
        "12194": 89,
        "12195": 51,
        "12196": 234,
        "12197": 188,
        "12198": 81,
        "12199": 208,
        "12200": 49,
        "12201": 186,
        "12202": 167,
        "12203": 248,
        "12204": 194,
        "12205": 117,
        "12206": 147,
        "12207": 211,
        "12208": 208,
        "12209": 91,
        "12210": 6,
        "12211": 74,
        "12212": 233,
        "12213": 58,
        "12214": 244,
        "12215": 103,
        "12216": 243,
        "12217": 183,
        "12218": 159,
        "12219": 92,
        "12220": 75,
        "12221": 237,
        "12222": 236,
        "12223": 74,
        "12224": 127,
        "12225": 33,
        "12226": 159,
        "12227": 21,
        "12228": 244,
        "12229": 23,
        "12230": 74,
        "12231": 233,
        "12232": 134,
        "12233": 36,
        "12234": 168,
        "12235": 63,
        "12236": 112,
        "12237": 249,
        "12238": 229,
        "12239": 81,
        "12240": 238,
        "12241": 90,
        "12242": 205,
        "12243": 192,
        "12244": 163,
        "12245": 80,
        "12246": 84,
        "12247": 197,
        "12248": 62,
        "12249": 69,
        "12250": 2,
        "12251": 203,
        "12252": 19,
        "12253": 248,
        "12254": 178,
        "12255": 34,
        "12256": 237,
        "12257": 235,
        "12258": 143,
        "12259": 147,
        "12260": 124,
        "12261": 215,
        "12262": 61,
        "12263": 136,
        "12264": 103,
        "12265": 148,
        "12266": 138,
        "12267": 149,
        "12268": 89,
        "12269": 149,
        "12270": 133,
        "12271": 47,
        "12272": 39,
        "12273": 59,
        "12274": 67,
        "12275": 63,
        "12276": 197,
        "12277": 58,
        "12278": 169,
        "12279": 80,
        "12280": 225,
        "12281": 181,
        "12282": 42,
        "12283": 3,
        "12284": 23,
        "12285": 244,
        "12286": 78,
        "12287": 46,
        "12288": 224,
        "12289": 128,
        "12290": 144,
        "12291": 198,
        "12292": 60,
        "12293": 0,
        "12294": 241,
        "12295": 218,
        "12296": 159,
        "12297": 206,
        "12298": 15,
        "12299": 84,
        "12300": 228,
        "12301": 246,
        "12302": 14,
        "12303": 175,
        "12304": 216,
        "12305": 59,
        "12306": 62,
        "12307": 14,
        "12308": 188,
        "12309": 72,
        "12310": 212,
        "12311": 15,
        "12312": 55,
        "12313": 55,
        "12314": 199,
        "12315": 168,
        "12316": 31,
        "12317": 221,
        "12318": 19,
        "12319": 144,
        "12320": 113,
        "12321": 248,
        "12322": 231,
        "12323": 66,
        "12324": 98,
        "12325": 96,
        "12326": 184,
        "12327": 125,
        "12328": 124,
        "12329": 143,
        "12330": 22,
        "12331": 202,
        "12332": 79,
        "12333": 183,
        "12334": 219,
        "12335": 211,
        "12336": 156,
        "12337": 107,
        "12338": 189,
        "12339": 234,
        "12340": 199,
        "12341": 87,
        "12342": 66,
        "12343": 190,
        "12344": 188,
        "12345": 141,
        "12346": 166,
        "12347": 154,
        "12348": 76,
        "12349": 13,
        "12350": 62,
        "12351": 141,
        "12352": 186,
        "12353": 237,
        "12354": 23,
        "12355": 180,
        "12356": 36,
        "12357": 210,
        "12358": 251,
        "12359": 32,
        "12360": 192,
        "12361": 152,
        "12362": 8,
        "12363": 188,
        "12364": 216,
        "12365": 16,
        "12366": 67,
        "12367": 130,
        "12368": 24,
        "12369": 47,
        "12370": 31,
        "12371": 13,
        "12372": 68,
        "12373": 176,
        "12374": 237,
        "12375": 42,
        "12376": 136,
        "12377": 50,
        "12378": 22,
        "12379": 82,
        "12380": 143,
        "12381": 139,
        "12382": 50,
        "12383": 68,
        "12384": 180,
        "12385": 134,
        "12386": 40,
        "12387": 134,
        "12388": 128,
        "12389": 140,
        "12390": 219,
        "12391": 73,
        "12392": 206,
        "12393": 28,
        "12394": 48,
        "12395": 24,
        "12396": 134,
        "12397": 142,
        "12398": 27,
        "12399": 190,
        "12400": 118,
        "12401": 8,
        "12402": 94,
        "12403": 49,
        "12404": 227,
        "12405": 249,
        "12406": 31,
        "12407": 188,
        "12408": 121,
        "12409": 219,
        "12410": 21,
        "12411": 101,
        "12412": 78,
        "12413": 131,
        "12414": 113,
        "12415": 20,
        "12416": 202,
        "12417": 106,
        "12418": 30,
        "12419": 33,
        "12420": 156,
        "12421": 16,
        "12422": 26,
        "12423": 197,
        "12424": 183,
        "12425": 53,
        "12426": 135,
        "12427": 97,
        "12428": 66,
        "12429": 53,
        "12430": 42,
        "12431": 189,
        "12432": 147,
        "12433": 193,
        "12434": 26,
        "12435": 133,
        "12436": 86,
        "12437": 211,
        "12438": 248,
        "12439": 31,
        "12440": 40,
        "12441": 15,
        "12442": 97,
        "12443": 95,
        "12444": 36,
        "12445": 11,
        "12446": 34,
        "12447": 22,
        "12448": 207,
        "12449": 156,
        "12450": 65,
        "12451": 149,
        "12452": 219,
        "12453": 51,
        "12454": 165,
        "12455": 57,
        "12456": 4,
        "12457": 12,
        "12458": 111,
        "12459": 35,
        "12460": 135,
        "12461": 82,
        "12462": 168,
        "12463": 36,
        "12464": 152,
        "12465": 22,
        "12466": 101,
        "12467": 148,
        "12468": 14,
        "12469": 246,
        "12470": 188,
        "12471": 50,
        "12472": 159,
        "12473": 104,
        "12474": 221,
        "12475": 151,
        "12476": 125,
        "12477": 55,
        "12478": 230,
        "12479": 217,
        "12480": 251,
        "12481": 185,
        "12482": 162,
        "12483": 129,
        "12484": 177,
        "12485": 249,
        "12486": 239,
        "12487": 168,
        "12488": 33,
        "12489": 234,
        "12490": 20,
        "12491": 13,
        "12492": 65,
        "12493": 218,
        "12494": 103,
        "12495": 67,
        "12496": 239,
        "12497": 4,
        "12498": 32,
        "12499": 238,
        "12500": 13,
        "12501": 98,
        "12502": 6,
        "12503": 163,
        "12504": 105,
        "12505": 183,
        "12506": 218,
        "12507": 114,
        "12508": 24,
        "12509": 202,
        "12510": 129,
        "12511": 207,
        "12512": 72,
        "12513": 56,
        "12514": 77,
        "12515": 178,
        "12516": 63,
        "12517": 208,
        "12518": 194,
        "12519": 104,
        "12520": 41,
        "12521": 223,
        "12522": 233,
        "12523": 235,
        "12524": 208,
        "12525": 63,
        "12526": 57,
        "12527": 119,
        "12528": 48,
        "12529": 8,
        "12530": 96,
        "12531": 171,
        "12532": 124,
        "12533": 130,
        "12534": 208,
        "12535": 111,
        "12536": 153,
        "12537": 161,
        "12538": 95,
        "12539": 208,
        "12540": 88,
        "12541": 199,
        "12542": 255,
        "12543": 61,
        "12544": 177,
        "12545": 138,
        "12546": 128,
        "12547": 32,
        "12548": 209,
        "12549": 13,
        "12550": 74,
        "12551": 44,
        "12552": 205,
        "12553": 171,
        "12554": 196,
        "12555": 254,
        "12556": 54,
        "12557": 254,
        "12558": 12,
        "12559": 57,
        "12560": 80,
        "12561": 10,
        "12562": 113,
        "12563": 130,
        "12564": 136,
        "12565": 248,
        "12566": 229,
        "12567": 66,
        "12568": 236,
        "12569": 19,
        "12570": 223,
        "12571": 86,
        "12572": 106,
        "12573": 0,
        "12574": 14,
        "12575": 46,
        "12576": 15,
        "12577": 235,
        "12578": 227,
        "12579": 254,
        "12580": 69,
        "12581": 56,
        "12582": 51,
        "12583": 68,
        "12584": 182,
        "12585": 66,
        "12586": 176,
        "12587": 31,
        "12588": 20,
        "12589": 85,
        "12590": 10,
        "12591": 113,
        "12592": 18,
        "12593": 215,
        "12594": 58,
        "12595": 147,
        "12596": 199,
        "12597": 114,
        "12598": 101,
        "12599": 162,
        "12600": 61,
        "12601": 54,
        "12602": 84,
        "12603": 83,
        "12604": 230,
        "12605": 73,
        "12606": 230,
        "12607": 26,
        "12608": 90,
        "12609": 18,
        "12610": 250,
        "12611": 100,
        "12612": 147,
        "12613": 181,
        "12614": 231,
        "12615": 130,
        "12616": 205,
        "12617": 48,
        "12618": 83,
        "12619": 201,
        "12620": 227,
        "12621": 238,
        "12622": 80,
        "12623": 119,
        "12624": 117,
        "12625": 187,
        "12626": 27,
        "12627": 133,
        "12628": 130,
        "12629": 83,
        "12630": 55,
        "12631": 83,
        "12632": 83,
        "12633": 195,
        "12634": 244,
        "12635": 130,
        "12636": 253,
        "12637": 225,
        "12638": 145,
        "12639": 34,
        "12640": 123,
        "12641": 25,
        "12642": 66,
        "12643": 124,
        "12644": 71,
        "12645": 89,
        "12646": 8,
        "12647": 166,
        "12648": 49,
        "12649": 73,
        "12650": 195,
        "12651": 63,
        "12652": 156,
        "12653": 33,
        "12654": 244,
        "12655": 231,
        "12656": 29,
        "12657": 110,
        "12658": 74,
        "12659": 16,
        "12660": 209,
        "12661": 99,
        "12662": 255,
        "12663": 57,
        "12664": 69,
        "12665": 186,
        "12666": 151,
        "12667": 77,
        "12668": 33,
        "12669": 236,
        "12670": 123,
        "12671": 23,
        "12672": 4,
        "12673": 223,
        "12674": 74,
        "12675": 34,
        "12676": 93,
        "12677": 54,
        "12678": 183,
        "12679": 101,
        "12680": 57,
        "12681": 217,
        "12682": 148,
        "12683": 179,
        "12684": 46,
        "12685": 50,
        "12686": 202,
        "12687": 150,
        "12688": 199,
        "12689": 48,
        "12690": 38,
        "12691": 164,
        "12692": 3,
        "12693": 57,
        "12694": 186,
        "12695": 53,
        "12696": 208,
        "12697": 187,
        "12698": 144,
        "12699": 76,
        "12700": 84,
        "12701": 230,
        "12702": 106,
        "12703": 45,
        "12704": 9,
        "12705": 10,
        "12706": 252,
        "12707": 125,
        "12708": 189,
        "12709": 166,
        "12710": 55,
        "12711": 29,
        "12712": 223,
        "12713": 20,
        "12714": 175,
        "12715": 21,
        "12716": 252,
        "12717": 174,
        "12718": 13,
        "12719": 60,
        "12720": 156,
        "12721": 39,
        "12722": 37,
        "12723": 235,
        "12724": 213,
        "12725": 17,
        "12726": 74,
        "12727": 109,
        "12728": 61,
        "12729": 163,
        "12730": 217,
        "12731": 105,
        "12732": 209,
        "12733": 99,
        "12734": 26,
        "12735": 245,
        "12736": 115,
        "12737": 91,
        "12738": 28,
        "12739": 47,
        "12740": 22,
        "12741": 247,
        "12742": 66,
        "12743": 129,
        "12744": 28,
        "12745": 40,
        "12746": 182,
        "12747": 93,
        "12748": 11,
        "12749": 21,
        "12750": 188,
        "12751": 208,
        "12752": 77,
        "12753": 118,
        "12754": 68,
        "12755": 47,
        "12756": 224,
        "12757": 179,
        "12758": 103,
        "12759": 152,
        "12760": 120,
        "12761": 232,
        "12762": 228,
        "12763": 201,
        "12764": 155,
        "12765": 252,
        "12766": 93,
        "12767": 189,
        "12768": 93,
        "12769": 24,
        "12770": 216,
        "12771": 88,
        "12772": 6,
        "12773": 146,
        "12774": 95,
        "12775": 12,
        "12776": 52,
        "12777": 254,
        "12778": 190,
        "12779": 141,
        "12780": 114,
        "12781": 10,
        "12782": 212,
        "12783": 76,
        "12784": 30,
        "12785": 5,
        "12786": 139,
        "12787": 215,
        "12788": 220,
        "12789": 70,
        "12790": 235,
        "12791": 173,
        "12792": 105,
        "12793": 210,
        "12794": 100,
        "12795": 246,
        "12796": 180,
        "12797": 144,
        "12798": 185,
        "12799": 234,
        "12800": 53,
        "12801": 163,
        "12802": 152,
        "12803": 160,
        "12804": 237,
        "12805": 102,
        "12806": 86,
        "12807": 168,
        "12808": 55,
        "12809": 98,
        "12810": 216,
        "12811": 190,
        "12812": 119,
        "12813": 141,
        "12814": 209,
        "12815": 214,
        "12816": 150,
        "12817": 22,
        "12818": 221,
        "12819": 238,
        "12820": 112,
        "12821": 167,
        "12822": 197,
        "12823": 187,
        "12824": 12,
        "12825": 226,
        "12826": 11,
        "12827": 158,
        "12828": 104,
        "12829": 104,
        "12830": 41,
        "12831": 220,
        "12832": 91,
        "12833": 200,
        "12834": 1,
        "12835": 185,
        "12836": 34,
        "12837": 81,
        "12838": 143,
        "12839": 10,
        "12840": 66,
        "12841": 250,
        "12842": 140,
        "12843": 245,
        "12844": 194,
        "12845": 8,
        "12846": 67,
        "12847": 201,
        "12848": 86,
        "12849": 51,
        "12850": 247,
        "12851": 7,
        "12852": 213,
        "12853": 21,
        "12854": 231,
        "12855": 4,
        "12856": 251,
        "12857": 27,
        "12858": 191,
        "12859": 239,
        "12860": 19,
        "12861": 11,
        "12862": 111,
        "12863": 182,
        "12864": 144,
        "12865": 192,
        "12866": 254,
        "12867": 120,
        "12868": 207,
        "12869": 229,
        "12870": 28,
        "12871": 44,
        "12872": 219,
        "12873": 34,
        "12874": 45,
        "12875": 55,
        "12876": 25,
        "12877": 76,
        "12878": 218,
        "12879": 133,
        "12880": 250,
        "12881": 215,
        "12882": 49,
        "12883": 136,
        "12884": 47,
        "12885": 210,
        "12886": 215,
        "12887": 149,
        "12888": 222,
        "12889": 88,
        "12890": 99,
        "12891": 10,
        "12892": 242,
        "12893": 36,
        "12894": 126,
        "12895": 131,
        "12896": 233,
        "12897": 77,
        "12898": 247,
        "12899": 114,
        "12900": 229,
        "12901": 199,
        "12902": 96,
        "12903": 32,
        "12904": 239,
        "12905": 212,
        "12906": 188,
        "12907": 234,
        "12908": 188,
        "12909": 127,
        "12910": 118,
        "12911": 30,
        "12912": 195,
        "12913": 209,
        "12914": 19,
        "12915": 200,
        "12916": 149,
        "12917": 28,
        "12918": 215,
        "12919": 80,
        "12920": 14,
        "12921": 33,
        "12922": 114,
        "12923": 233,
        "12924": 190,
        "12925": 214,
        "12926": 91,
        "12927": 112,
        "12928": 17,
        "12929": 161,
        "12930": 71,
        "12931": 129,
        "12932": 88,
        "12933": 129,
        "12934": 16,
        "12935": 7,
        "12936": 136,
        "12937": 29,
        "12938": 166,
        "12939": 97,
        "12940": 131,
        "12941": 58,
        "12942": 131,
        "12943": 75,
        "12944": 86,
        "12945": 66,
        "12946": 124,
        "12947": 149,
        "12948": 226,
        "12949": 183,
        "12950": 95,
        "12951": 38,
        "12952": 68,
        "12953": 111,
        "12954": 191,
        "12955": 90,
        "12956": 63,
        "12957": 239,
        "12958": 104,
        "12959": 59,
        "12960": 63,
        "12961": 31,
        "12962": 92,
        "12963": 91,
        "12964": 188,
        "12965": 202,
        "12966": 199,
        "12967": 28,
        "12968": 49,
        "12969": 79,
        "12970": 238,
        "12971": 26,
        "12972": 26,
        "12973": 154,
        "12974": 164,
        "12975": 25,
        "12976": 7,
        "12977": 150,
        "12978": 202,
        "12979": 222,
        "12980": 77,
        "12981": 232,
        "12982": 118,
        "12983": 206,
        "12984": 238,
        "12985": 15,
        "12986": 13,
        "12987": 221,
        "12988": 74,
        "12989": 50,
        "12990": 51,
        "12991": 221,
        "12992": 113,
        "12993": 251,
        "12994": 24,
        "12995": 59,
        "12996": 228,
        "12997": 40,
        "12998": 46,
        "12999": 143,
        "13000": 131,
        "13001": 203,
        "13002": 65,
        "13003": 209,
        "13004": 14,
        "13005": 102,
        "13006": 112,
        "13007": 158,
        "13008": 153,
        "13009": 179,
        "13010": 29,
        "13011": 6,
        "13012": 113,
        "13013": 185,
        "13014": 90,
        "13015": 19,
        "13016": 110,
        "13017": 147,
        "13018": 101,
        "13019": 99,
        "13020": 215,
        "13021": 161,
        "13022": 168,
        "13023": 6,
        "13024": 97,
        "13025": 107,
        "13026": 227,
        "13027": 234,
        "13028": 210,
        "13029": 29,
        "13030": 193,
        "13031": 131,
        "13032": 183,
        "13033": 164,
        "13034": 147,
        "13035": 161,
        "13036": 113,
        "13037": 96,
        "13038": 187,
        "13039": 108,
        "13040": 129,
        "13041": 54,
        "13042": 151,
        "13043": 105,
        "13044": 162,
        "13045": 170,
        "13046": 146,
        "13047": 210,
        "13048": 179,
        "13049": 188,
        "13050": 72,
        "13051": 172,
        "13052": 128,
        "13053": 96,
        "13054": 222,
        "13055": 4,
        "13056": 52,
        "13057": 17,
        "13058": 252,
        "13059": 183,
        "13060": 70,
        "13061": 164,
        "13062": 13,
        "13063": 1,
        "13064": 246,
        "13065": 189,
        "13066": 161,
        "13067": 204,
        "13068": 110,
        "13069": 101,
        "13070": 19,
        "13071": 156,
        "13072": 239,
        "13073": 191,
        "13074": 98,
        "13075": 121,
        "13076": 32,
        "13077": 100,
        "13078": 218,
        "13079": 112,
        "13080": 190,
        "13081": 97,
        "13082": 62,
        "13083": 68,
        "13084": 26,
        "13085": 75,
        "13086": 14,
        "13087": 247,
        "13088": 155,
        "13089": 31,
        "13090": 120,
        "13091": 216,
        "13092": 242,
        "13093": 46,
        "13094": 169,
        "13095": 42,
        "13096": 49,
        "13097": 76,
        "13098": 82,
        "13099": 75,
        "13100": 102,
        "13101": 2,
        "13102": 42,
        "13103": 90,
        "13104": 125,
        "13105": 36,
        "13106": 148,
        "13107": 175,
        "13108": 7,
        "13109": 206,
        "13110": 126,
        "13111": 50,
        "13112": 235,
        "13113": 175,
        "13114": 211,
        "13115": 180,
        "13116": 143,
        "13117": 107,
        "13118": 210,
        "13119": 109,
        "13120": 162,
        "13121": 172,
        "13122": 188,
        "13123": 3,
        "13124": 98,
        "13125": 24,
        "13126": 194,
        "13127": 108,
        "13128": 175,
        "13129": 194,
        "13130": 78,
        "13131": 218,
        "13132": 47,
        "13133": 178,
        "13134": 118,
        "13135": 76,
        "13136": 24,
        "13137": 130,
        "13138": 94,
        "13139": 219,
        "13140": 192,
        "13141": 62,
        "13142": 89,
        "13143": 39,
        "13144": 156,
        "13145": 210,
        "13146": 72,
        "13147": 142,
        "13148": 20,
        "13149": 23,
        "13150": 225,
        "13151": 103,
        "13152": 10,
        "13153": 57,
        "13154": 64,
        "13155": 124,
        "13156": 65,
        "13157": 121,
        "13158": 120,
        "13159": 199,
        "13160": 5,
        "13161": 123,
        "13162": 159,
        "13163": 2,
        "13164": 74,
        "13165": 124,
        "13166": 105,
        "13167": 105,
        "13168": 142,
        "13169": 79,
        "13170": 159,
        "13171": 106,
        "13172": 229,
        "13173": 123,
        "13174": 57,
        "13175": 47,
        "13176": 115,
        "13177": 110,
        "13178": 130,
        "13179": 180,
        "13180": 34,
        "13181": 183,
        "13182": 81,
        "13183": 209,
        "13184": 104,
        "13185": 60,
        "13186": 35,
        "13187": 239,
        "13188": 222,
        "13189": 134,
        "13190": 118,
        "13191": 65,
        "13192": 242,
        "13193": 144,
        "13194": 56,
        "13195": 18,
        "13196": 96,
        "13197": 161,
        "13198": 85,
        "13199": 154,
        "13200": 238,
        "13201": 59,
        "13202": 184,
        "13203": 41,
        "13204": 134,
        "13205": 84,
        "13206": 80,
        "13207": 171,
        "13208": 135,
        "13209": 122,
        "13210": 124,
        "13211": 150,
        "13212": 124,
        "13213": 126,
        "13214": 208,
        "13215": 131,
        "13216": 121,
        "13217": 181,
        "13218": 71,
        "13219": 199,
        "13220": 40,
        "13221": 187,
        "13222": 156,
        "13223": 8,
        "13224": 75,
        "13225": 226,
        "13226": 4,
        "13227": 144,
        "13228": 80,
        "13229": 147,
        "13230": 11,
        "13231": 22,
        "13232": 139,
        "13233": 201,
        "13234": 252,
        "13235": 66,
        "13236": 227,
        "13237": 32,
        "13238": 180,
        "13239": 224,
        "13240": 212,
        "13241": 251,
        "13242": 223,
        "13243": 204,
        "13244": 146,
        "13245": 219,
        "13246": 176,
        "13247": 32,
        "13248": 248,
        "13249": 104,
        "13250": 181,
        "13251": 42,
        "13252": 9,
        "13253": 193,
        "13254": 27,
        "13255": 201,
        "13256": 91,
        "13257": 29,
        "13258": 168,
        "13259": 68,
        "13260": 7,
        "13261": 235,
        "13262": 68,
        "13263": 236,
        "13264": 68,
        "13265": 201,
        "13266": 221,
        "13267": 159,
        "13268": 169,
        "13269": 162,
        "13270": 217,
        "13271": 252,
        "13272": 208,
        "13273": 194,
        "13274": 120,
        "13275": 104,
        "13276": 100,
        "13277": 101,
        "13278": 233,
        "13279": 20,
        "13280": 120,
        "13281": 204,
        "13282": 127,
        "13283": 98,
        "13284": 36,
        "13285": 82,
        "13286": 50,
        "13287": 34,
        "13288": 222,
        "13289": 181,
        "13290": 185,
        "13291": 136,
        "13292": 61,
        "13293": 28,
        "13294": 112,
        "13295": 143,
        "13296": 67,
        "13297": 98,
        "13298": 37,
        "13299": 130,
        "13300": 192,
        "13301": 254,
        "13302": 195,
        "13303": 26,
        "13304": 133,
        "13305": 105,
        "13306": 31,
        "13307": 212,
        "13308": 245,
        "13309": 236,
        "13310": 55,
        "13311": 25,
        "13312": 36,
        "13313": 87,
        "13314": 212,
        "13315": 47,
        "13316": 205,
        "13317": 100,
        "13318": 141,
        "13319": 129,
        "13320": 216,
        "13321": 49,
        "13322": 118,
        "13323": 90,
        "13324": 175,
        "13325": 85,
        "13326": 80,
        "13327": 56,
        "13328": 167,
        "13329": 156,
        "13330": 113,
        "13331": 121,
        "13332": 79,
        "13333": 201,
        "13334": 214,
        "13335": 137,
        "13336": 253,
        "13337": 195,
        "13338": 101,
        "13339": 97,
        "13340": 66,
        "13341": 73,
        "13342": 235,
        "13343": 140,
        "13344": 78,
        "13345": 125,
        "13346": 26,
        "13347": 229,
        "13348": 255,
        "13349": 181,
        "13350": 12,
        "13351": 128,
        "13352": 234,
        "13353": 216,
        "13354": 172,
        "13355": 208,
        "13356": 24,
        "13357": 147,
        "13358": 153,
        "13359": 39,
        "13360": 104,
        "13361": 185,
        "13362": 239,
        "13363": 196,
        "13364": 154,
        "13365": 88,
        "13366": 45,
        "13367": 45,
        "13368": 94,
        "13369": 147,
        "13370": 171,
        "13371": 191,
        "13372": 80,
        "13373": 11,
        "13374": 1,
        "13375": 245,
        "13376": 123,
        "13377": 156,
        "13378": 32,
        "13379": 160,
        "13380": 150,
        "13381": 179,
        "13382": 80,
        "13383": 235,
        "13384": 78,
        "13385": 99,
        "13386": 117,
        "13387": 127,
        "13388": 132,
        "13389": 0,
        "13390": 233,
        "13391": 226,
        "13392": 108,
        "13393": 163,
        "13394": 29,
        "13395": 86,
        "13396": 196,
        "13397": 124,
        "13398": 200,
        "13399": 195,
        "13400": 145,
        "13401": 21,
        "13402": 225,
        "13403": 233,
        "13404": 94,
        "13405": 231,
        "13406": 151,
        "13407": 176,
        "13408": 102,
        "13409": 90,
        "13410": 145,
        "13411": 187,
        "13412": 11,
        "13413": 214,
        "13414": 74,
        "13415": 80,
        "13416": 56,
        "13417": 61,
        "13418": 97,
        "13419": 240,
        "13420": 112,
        "13421": 246,
        "13422": 15,
        "13423": 132,
        "13424": 7,
        "13425": 29,
        "13426": 49,
        "13427": 15,
        "13428": 201,
        "13429": 196,
        "13430": 97,
        "13431": 155,
        "13432": 150,
        "13433": 249,
        "13434": 78,
        "13435": 61,
        "13436": 176,
        "13437": 81,
        "13438": 141,
        "13439": 62,
        "13440": 160,
        "13441": 204,
        "13442": 116,
        "13443": 0,
        "13444": 162,
        "13445": 235,
        "13446": 2,
        "13447": 48,
        "13448": 67,
        "13449": 5,
        "13450": 63,
        "13451": 249,
        "13452": 228,
        "13453": 52,
        "13454": 71,
        "13455": 122,
        "13456": 181,
        "13457": 89,
        "13458": 101,
        "13459": 175,
        "13460": 41,
        "13461": 196,
        "13462": 210,
        "13463": 177,
        "13464": 230,
        "13465": 68,
        "13466": 167,
        "13467": 153,
        "13468": 133,
        "13469": 243,
        "13470": 236,
        "13471": 239,
        "13472": 60,
        "13473": 8,
        "13474": 48,
        "13475": 222,
        "13476": 101,
        "13477": 35,
        "13478": 48,
        "13479": 64,
        "13480": 244,
        "13481": 139,
        "13482": 157,
        "13483": 249,
        "13484": 199,
        "13485": 108,
        "13486": 78,
        "13487": 206,
        "13488": 135,
        "13489": 203,
        "13490": 8,
        "13491": 230,
        "13492": 253,
        "13493": 78,
        "13494": 207,
        "13495": 148,
        "13496": 172,
        "13497": 173,
        "13498": 98,
        "13499": 29,
        "13500": 84,
        "13501": 187,
        "13502": 53,
        "13503": 61,
        "13504": 159,
        "13505": 179,
        "13506": 36,
        "13507": 70,
        "13508": 125,
        "13509": 222,
        "13510": 151,
        "13511": 25,
        "13512": 148,
        "13513": 7,
        "13514": 153,
        "13515": 203,
        "13516": 171,
        "13517": 223,
        "13518": 92,
        "13519": 1,
        "13520": 245,
        "13521": 241,
        "13522": 71,
        "13523": 231,
        "13524": 70,
        "13525": 105,
        "13526": 161,
        "13527": 214,
        "13528": 166,
        "13529": 4,
        "13530": 179,
        "13531": 255,
        "13532": 241,
        "13533": 75,
        "13534": 65,
        "13535": 147,
        "13536": 114,
        "13537": 197,
        "13538": 114,
        "13539": 16,
        "13540": 91,
        "13541": 69,
        "13542": 155,
        "13543": 31,
        "13544": 152,
        "13545": 184,
        "13546": 90,
        "13547": 147,
        "13548": 177,
        "13549": 249,
        "13550": 71,
        "13551": 18,
        "13552": 208,
        "13553": 126,
        "13554": 250,
        "13555": 169,
        "13556": 109,
        "13557": 230,
        "13558": 217,
        "13559": 8,
        "13560": 65,
        "13561": 160,
        "13562": 31,
        "13563": 136,
        "13564": 231,
        "13565": 0,
        "13566": 15,
        "13567": 133,
        "13568": 21,
        "13569": 140,
        "13570": 27,
        "13571": 187,
        "13572": 138,
        "13573": 227,
        "13574": 113,
        "13575": 131,
        "13576": 82,
        "13577": 149,
        "13578": 164,
        "13579": 248,
        "13580": 245,
        "13581": 32,
        "13582": 106,
        "13583": 16,
        "13584": 168,
        "13585": 220,
        "13586": 184,
        "13587": 186,
        "13588": 118,
        "13589": 106,
        "13590": 8,
        "13591": 223,
        "13592": 217,
        "13593": 57,
        "13594": 176,
        "13595": 117,
        "13596": 70,
        "13597": 67,
        "13598": 180,
        "13599": 170,
        "13600": 204,
        "13601": 53,
        "13602": 9,
        "13603": 221,
        "13604": 203,
        "13605": 23,
        "13606": 2,
        "13607": 98,
        "13608": 165,
        "13609": 74,
        "13610": 37,
        "13611": 71,
        "13612": 98,
        "13613": 253,
        "13614": 218,
        "13615": 241,
        "13616": 13,
        "13617": 219,
        "13618": 145,
        "13619": 138,
        "13620": 223,
        "13621": 239,
        "13622": 82,
        "13623": 57,
        "13624": 39,
        "13625": 180,
        "13626": 227,
        "13627": 61,
        "13628": 202,
        "13629": 241,
        "13630": 85,
        "13631": 169,
        "13632": 92,
        "13633": 250,
        "13634": 25,
        "13635": 132,
        "13636": 68,
        "13637": 139,
        "13638": 16,
        "13639": 206,
        "13640": 177,
        "13641": 7,
        "13642": 3,
        "13643": 223,
        "13644": 204,
        "13645": 108,
        "13646": 214,
        "13647": 242,
        "13648": 17,
        "13649": 77,
        "13650": 59,
        "13651": 212,
        "13652": 250,
        "13653": 47,
        "13654": 202,
        "13655": 25,
        "13656": 210,
        "13657": 42,
        "13658": 139,
        "13659": 186,
        "13660": 30,
        "13661": 190,
        "13662": 28,
        "13663": 171,
        "13664": 219,
        "13665": 215,
        "13666": 80,
        "13667": 127,
        "13668": 71,
        "13669": 199,
        "13670": 195,
        "13671": 84,
        "13672": 9,
        "13673": 34,
        "13674": 22,
        "13675": 186,
        "13676": 177,
        "13677": 227,
        "13678": 210,
        "13679": 105,
        "13680": 199,
        "13681": 182,
        "13682": 199,
        "13683": 193,
        "13684": 37,
        "13685": 152,
        "13686": 48,
        "13687": 103,
        "13688": 61,
        "13689": 203,
        "13690": 147,
        "13691": 4,
        "13692": 145,
        "13693": 152,
        "13694": 97,
        "13695": 147,
        "13696": 76,
        "13697": 74,
        "13698": 165,
        "13699": 187,
        "13700": 11,
        "13701": 198,
        "13702": 255,
        "13703": 186,
        "13704": 206,
        "13705": 139,
        "13706": 34,
        "13707": 218,
        "13708": 201,
        "13709": 234,
        "13710": 166,
        "13711": 251,
        "13712": 79,
        "13713": 39,
        "13714": 147,
        "13715": 239,
        "13716": 91,
        "13717": 96,
        "13718": 249,
        "13719": 19,
        "13720": 43,
        "13721": 249,
        "13722": 129,
        "13723": 96,
        "13724": 157,
        "13725": 122,
        "13726": 254,
        "13727": 169,
        "13728": 59,
        "13729": 42,
        "13730": 201,
        "13731": 69,
        "13732": 217,
        "13733": 11,
        "13734": 22,
        "13735": 88,
        "13736": 192,
        "13737": 226,
        "13738": 191,
        "13739": 243,
        "13740": 49,
        "13741": 117,
        "13742": 22,
        "13743": 110,
        "13744": 5,
        "13745": 58,
        "13746": 101,
        "13747": 103,
        "13748": 116,
        "13749": 25,
        "13750": 219,
        "13751": 103,
        "13752": 241,
        "13753": 143,
        "13754": 217,
        "13755": 242,
        "13756": 14,
        "13757": 150,
        "13758": 104,
        "13759": 110,
        "13760": 92,
        "13761": 49,
        "13762": 34,
        "13763": 133,
        "13764": 8,
        "13765": 255,
        "13766": 211,
        "13767": 242,
        "13768": 224,
        "13769": 94,
        "13770": 169,
        "13771": 145,
        "13772": 191,
        "13773": 24,
        "13774": 21,
        "13775": 88,
        "13776": 245,
        "13777": 36,
        "13778": 16,
        "13779": 231,
        "13780": 61,
        "13781": 207,
        "13782": 157,
        "13783": 186,
        "13784": 151,
        "13785": 203,
        "13786": 189,
        "13787": 105,
        "13788": 108,
        "13789": 202,
        "13790": 214,
        "13791": 11,
        "13792": 240,
        "13793": 85,
        "13794": 152,
        "13795": 186,
        "13796": 19,
        "13797": 184,
        "13798": 74,
        "13799": 87,
        "13800": 64,
        "13801": 137,
        "13802": 161,
        "13803": 226,
        "13804": 54,
        "13805": 165,
        "13806": 165,
        "13807": 238,
        "13808": 55,
        "13809": 227,
        "13810": 62,
        "13811": 165,
        "13812": 190,
        "13813": 165,
        "13814": 59,
        "13815": 82,
        "13816": 112,
        "13817": 249,
        "13818": 15,
        "13819": 107,
        "13820": 198,
        "13821": 214,
        "13822": 248,
        "13823": 251,
        "13824": 98,
        "13825": 239,
        "13826": 217,
        "13827": 70,
        "13828": 50,
        "13829": 89,
        "13830": 249,
        "13831": 137,
        "13832": 50,
        "13833": 40,
        "13834": 99,
        "13835": 139,
        "13836": 149,
        "13837": 168,
        "13838": 183,
        "13839": 82,
        "13840": 1,
        "13841": 87,
        "13842": 155,
        "13843": 39,
        "13844": 31,
        "13845": 249,
        "13846": 194,
        "13847": 210,
        "13848": 129,
        "13849": 140,
        "13850": 250,
        "13851": 105,
        "13852": 16,
        "13853": 50,
        "13854": 190,
        "13855": 45,
        "13856": 197,
        "13857": 75,
        "13858": 138,
        "13859": 84,
        "13860": 173,
        "13861": 47,
        "13862": 87,
        "13863": 151,
        "13864": 37,
        "13865": 137,
        "13866": 204,
        "13867": 87,
        "13868": 235,
        "13869": 169,
        "13870": 73,
        "13871": 42,
        "13872": 254,
        "13873": 89,
        "13874": 126,
        "13875": 58,
        "13876": 194,
        "13877": 96,
        "13878": 30,
        "13879": 139,
        "13880": 138,
        "13881": 212,
        "13882": 10,
        "13883": 241,
        "13884": 207,
        "13885": 64,
        "13886": 232,
        "13887": 155,
        "13888": 130,
        "13889": 163,
        "13890": 136,
        "13891": 244,
        "13892": 242,
        "13893": 135,
        "13894": 100,
        "13895": 201,
        "13896": 148,
        "13897": 87,
        "13898": 198,
        "13899": 163,
        "13900": 7,
        "13901": 50,
        "13902": 251,
        "13903": 26,
        "13904": 150,
        "13905": 65,
        "13906": 195,
        "13907": 20,
        "13908": 191,
        "13909": 55,
        "13910": 119,
        "13911": 188,
        "13912": 132,
        "13913": 6,
        "13914": 119,
        "13915": 11,
        "13916": 133,
        "13917": 200,
        "13918": 170,
        "13919": 152,
        "13920": 199,
        "13921": 172,
        "13922": 112,
        "13923": 182,
        "13924": 9,
        "13925": 232,
        "13926": 200,
        "13927": 107,
        "13928": 140,
        "13929": 24,
        "13930": 231,
        "13931": 136,
        "13932": 209,
        "13933": 129,
        "13934": 146,
        "13935": 50,
        "13936": 132,
        "13937": 50,
        "13938": 35,
        "13939": 185,
        "13940": 140,
        "13941": 162,
        "13942": 70,
        "13943": 190,
        "13944": 254,
        "13945": 238,
        "13946": 83,
        "13947": 220,
        "13948": 169,
        "13949": 29,
        "13950": 41,
        "13951": 26,
        "13952": 145,
        "13953": 2,
        "13954": 15,
        "13955": 51,
        "13956": 124,
        "13957": 112,
        "13958": 30,
        "13959": 103,
        "13960": 249,
        "13961": 178,
        "13962": 147,
        "13963": 153,
        "13964": 31,
        "13965": 185,
        "13966": 206,
        "13967": 125,
        "13968": 32,
        "13969": 51,
        "13970": 48,
        "13971": 31,
        "13972": 138,
        "13973": 235,
        "13974": 129,
        "13975": 190,
        "13976": 45,
        "13977": 220,
        "13978": 240,
        "13979": 33,
        "13980": 246,
        "13981": 178,
        "13982": 24,
        "13983": 181,
        "13984": 55,
        "13985": 121,
        "13986": 139,
        "13987": 114,
        "13988": 137,
        "13989": 202,
        "13990": 20,
        "13991": 42,
        "13992": 152,
        "13993": 217,
        "13994": 251,
        "13995": 44,
        "13996": 241,
        "13997": 252,
        "13998": 117,
        "13999": 100,
        "14000": 126,
        "14001": 147,
        "14002": 170,
        "14003": 225,
        "14004": 164,
        "14005": 197,
        "14006": 105,
        "14007": 197,
        "14008": 226,
        "14009": 78,
        "14010": 110,
        "14011": 101,
        "14012": 200,
        "14013": 12,
        "14014": 107,
        "14015": 255,
        "14016": 120,
        "14017": 106,
        "14018": 164,
        "14019": 216,
        "14020": 51,
        "14021": 143,
        "14022": 129,
        "14023": 11,
        "14024": 7,
        "14025": 139,
        "14026": 216,
        "14027": 249,
        "14028": 186,
        "14029": 217,
        "14030": 242,
        "14031": 102,
        "14032": 72,
        "14033": 243,
        "14034": 45,
        "14035": 172,
        "14036": 42,
        "14037": 200,
        "14038": 79,
        "14039": 108,
        "14040": 136,
        "14041": 113,
        "14042": 189,
        "14043": 220,
        "14044": 37,
        "14045": 117,
        "14046": 102,
        "14047": 19,
        "14048": 64,
        "14049": 177,
        "14050": 111,
        "14051": 210,
        "14052": 63,
        "14053": 189,
        "14054": 205,
        "14055": 1,
        "14056": 171,
        "14057": 200,
        "14058": 104,
        "14059": 143,
        "14060": 219,
        "14061": 132,
        "14062": 80,
        "14063": 166,
        "14064": 55,
        "14065": 140,
        "14066": 127,
        "14067": 37,
        "14068": 124,
        "14069": 27,
        "14070": 250,
        "14071": 135,
        "14072": 229,
        "14073": 207,
        "14074": 82,
        "14075": 103,
        "14076": 235,
        "14077": 185,
        "14078": 20,
        "14079": 161,
        "14080": 221,
        "14081": 220,
        "14082": 85,
        "14083": 103,
        "14084": 84,
        "14085": 56,
        "14086": 167,
        "14087": 27,
        "14088": 160,
        "14089": 155,
        "14090": 198,
        "14091": 155,
        "14092": 149,
        "14093": 153,
        "14094": 151,
        "14095": 125,
        "14096": 239,
        "14097": 140,
        "14098": 69,
        "14099": 145,
        "14100": 76,
        "14101": 59,
        "14102": 39,
        "14103": 229,
        "14104": 100,
        "14105": 232,
        "14106": 10,
        "14107": 138,
        "14108": 93,
        "14109": 35,
        "14110": 115,
        "14111": 103,
        "14112": 231,
        "14113": 85,
        "14114": 223,
        "14115": 154,
        "14116": 4,
        "14117": 208,
        "14118": 118,
        "14119": 81,
        "14120": 224,
        "14121": 35,
        "14122": 56,
        "14123": 56,
        "14124": 0,
        "14125": 196,
        "14126": 203,
        "14127": 63,
        "14128": 146,
        "14129": 46,
        "14130": 61,
        "14131": 166,
        "14132": 4,
        "14133": 234,
        "14134": 111,
        "14135": 221,
        "14136": 214,
        "14137": 178,
        "14138": 54,
        "14139": 51,
        "14140": 69,
        "14141": 109,
        "14142": 109,
        "14143": 183,
        "14144": 50,
        "14145": 70,
        "14146": 96,
        "14147": 163,
        "14148": 197,
        "14149": 45,
        "14150": 251,
        "14151": 225,
        "14152": 187,
        "14153": 108,
        "14154": 145,
        "14155": 51,
        "14156": 231,
        "14157": 43,
        "14158": 68,
        "14159": 149,
        "14160": 2,
        "14161": 183,
        "14162": 66,
        "14163": 105,
        "14164": 18,
        "14165": 48,
        "14166": 47,
        "14167": 228,
        "14168": 208,
        "14169": 248,
        "14170": 115,
        "14171": 51,
        "14172": 254,
        "14173": 66,
        "14174": 13,
        "14175": 160,
        "14176": 174,
        "14177": 221,
        "14178": 8,
        "14179": 182,
        "14180": 114,
        "14181": 108,
        "14182": 18,
        "14183": 171,
        "14184": 70,
        "14185": 144,
        "14186": 26,
        "14187": 2,
        "14188": 91,
        "14189": 101,
        "14190": 225,
        "14191": 183,
        "14192": 208,
        "14193": 229,
        "14194": 97,
        "14195": 188,
        "14196": 220,
        "14197": 19,
        "14198": 128,
        "14199": 193,
        "14200": 48,
        "14201": 189,
        "14202": 216,
        "14203": 28,
        "14204": 132,
        "14205": 83,
        "14206": 243,
        "14207": 56,
        "14208": 181,
        "14209": 165,
        "14210": 49,
        "14211": 8,
        "14212": 156,
        "14213": 171,
        "14214": 12,
        "14215": 153,
        "14216": 191,
        "14217": 98,
        "14218": 193,
        "14219": 5,
        "14220": 44,
        "14221": 126,
        "14222": 129,
        "14223": 9,
        "14224": 30,
        "14225": 129,
        "14226": 131,
        "14227": 95,
        "14228": 209,
        "14229": 54,
        "14230": 255,
        "14231": 150,
        "14232": 140,
        "14233": 158,
        "14234": 5,
        "14235": 184,
        "14236": 15,
        "14237": 31,
        "14238": 236,
        "14239": 130,
        "14240": 146,
        "14241": 7,
        "14242": 89,
        "14243": 133,
        "14244": 45,
        "14245": 79,
        "14246": 221,
        "14247": 113,
        "14248": 167,
        "14249": 98,
        "14250": 11,
        "14251": 24,
        "14252": 14,
        "14253": 200,
        "14254": 126,
        "14255": 191,
        "14256": 220,
        "14257": 196,
        "14258": 172,
        "14259": 59,
        "14260": 180,
        "14261": 64,
        "14262": 85,
        "14263": 221,
        "14264": 203,
        "14265": 113,
        "14266": 184,
        "14267": 72,
        "14268": 166,
        "14269": 197,
        "14270": 220,
        "14271": 22,
        "14272": 210,
        "14273": 183,
        "14274": 14,
        "14275": 175,
        "14276": 114,
        "14277": 77,
        "14278": 97,
        "14279": 62,
        "14280": 213,
        "14281": 145,
        "14282": 14,
        "14283": 254,
        "14284": 23,
        "14285": 217,
        "14286": 75,
        "14287": 111,
        "14288": 23,
        "14289": 215,
        "14290": 145,
        "14291": 134,
        "14292": 187,
        "14293": 8,
        "14294": 166,
        "14295": 90,
        "14296": 155,
        "14297": 204,
        "14298": 160,
        "14299": 92,
        "14300": 157,
        "14301": 252,
        "14302": 85,
        "14303": 96,
        "14304": 22,
        "14305": 205,
        "14306": 250,
        "14307": 146,
        "14308": 199,
        "14309": 212,
        "14310": 15,
        "14311": 144,
        "14312": 7,
        "14313": 27,
        "14314": 27,
        "14315": 50,
        "14316": 217,
        "14317": 219,
        "14318": 57,
        "14319": 231,
        "14320": 125,
        "14321": 198,
        "14322": 168,
        "14323": 164,
        "14324": 200,
        "14325": 248,
        "14326": 202,
        "14327": 135,
        "14328": 129,
        "14329": 62,
        "14330": 48,
        "14331": 188,
        "14332": 19,
        "14333": 246,
        "14334": 155,
        "14335": 89,
        "14336": 227,
        "14337": 111,
        "14338": 150,
        "14339": 164,
        "14340": 33,
        "14341": 217,
        "14342": 180,
        "14343": 182,
        "14344": 238,
        "14345": 75,
        "14346": 55,
        "14347": 199,
        "14348": 133,
        "14349": 198,
        "14350": 2,
        "14351": 167,
        "14352": 155,
        "14353": 229,
        "14354": 206,
        "14355": 20,
        "14356": 239,
        "14357": 165,
        "14358": 251,
        "14359": 179,
        "14360": 102,
        "14361": 216,
        "14362": 187,
        "14363": 100,
        "14364": 100,
        "14365": 40,
        "14366": 133,
        "14367": 171,
        "14368": 95,
        "14369": 40,
        "14370": 226,
        "14371": 255,
        "14372": 144,
        "14373": 245,
        "14374": 45,
        "14375": 126,
        "14376": 173,
        "14377": 89,
        "14378": 108,
        "14379": 125,
        "14380": 10,
        "14381": 164,
        "14382": 30,
        "14383": 93,
        "14384": 174,
        "14385": 79,
        "14386": 51,
        "14387": 108,
        "14388": 145,
        "14389": 188,
        "14390": 143,
        "14391": 130,
        "14392": 172,
        "14393": 188,
        "14394": 197,
        "14395": 5,
        "14396": 21,
        "14397": 99,
        "14398": 25,
        "14399": 210,
        "14400": 178,
        "14401": 31,
        "14402": 119,
        "14403": 85,
        "14404": 117,
        "14405": 240,
        "14406": 144,
        "14407": 57,
        "14408": 166,
        "14409": 3,
        "14410": 6,
        "14411": 176,
        "14412": 3,
        "14413": 216,
        "14414": 59,
        "14415": 42,
        "14416": 25,
        "14417": 22,
        "14418": 90,
        "14419": 161,
        "14420": 4,
        "14421": 212,
        "14422": 146,
        "14423": 199,
        "14424": 71,
        "14425": 229,
        "14426": 77,
        "14427": 95,
        "14428": 58,
        "14429": 59,
        "14430": 128,
        "14431": 134,
        "14432": 127,
        "14433": 246,
        "14434": 91,
        "14435": 16,
        "14436": 198,
        "14437": 153,
        "14438": 245,
        "14439": 172,
        "14440": 205,
        "14441": 185,
        "14442": 152,
        "14443": 86,
        "14444": 95,
        "14445": 180,
        "14446": 246,
        "14447": 90,
        "14448": 110,
        "14449": 91,
        "14450": 246,
        "14451": 27,
        "14452": 184,
        "14453": 110,
        "14454": 226,
        "14455": 83,
        "14456": 88,
        "14457": 2,
        "14458": 161,
        "14459": 160,
        "14460": 202,
        "14461": 237,
        "14462": 38,
        "14463": 53,
        "14464": 177,
        "14465": 141,
        "14466": 104,
        "14467": 158,
        "14468": 123,
        "14469": 9,
        "14470": 87,
        "14471": 231,
        "14472": 10,
        "14473": 89,
        "14474": 251,
        "14475": 74,
        "14476": 40,
        "14477": 38,
        "14478": 126,
        "14479": 133,
        "14480": 189,
        "14481": 144,
        "14482": 93,
        "14483": 115,
        "14484": 21,
        "14485": 144,
        "14486": 245,
        "14487": 126,
        "14488": 118,
        "14489": 210,
        "14490": 253,
        "14491": 124,
        "14492": 41,
        "14493": 51,
        "14494": 22,
        "14495": 90,
        "14496": 198,
        "14497": 100,
        "14498": 88,
        "14499": 249,
        "14500": 169,
        "14501": 192,
        "14502": 170,
        "14503": 17,
        "14504": 57,
        "14505": 157,
        "14506": 34,
        "14507": 188,
        "14508": 151,
        "14509": 31,
        "14510": 187,
        "14511": 42,
        "14512": 224,
        "14513": 45,
        "14514": 105,
        "14515": 229,
        "14516": 177,
        "14517": 138,
        "14518": 49,
        "14519": 224,
        "14520": 91,
        "14521": 106,
        "14522": 97,
        "14523": 134,
        "14524": 30,
        "14525": 93,
        "14526": 163,
        "14527": 107,
        "14528": 175,
        "14529": 239,
        "14530": 238,
        "14531": 24,
        "14532": 83,
        "14533": 158,
        "14534": 162,
        "14535": 141,
        "14536": 82,
        "14537": 13,
        "14538": 175,
        "14539": 159,
        "14540": 101,
        "14541": 129,
        "14542": 189,
        "14543": 175,
        "14544": 234,
        "14545": 24,
        "14546": 175,
        "14547": 40,
        "14548": 119,
        "14549": 186,
        "14550": 137,
        "14551": 176,
        "14552": 223,
        "14553": 238,
        "14554": 252,
        "14555": 145,
        "14556": 58,
        "14557": 28,
        "14558": 80,
        "14559": 135,
        "14560": 62,
        "14561": 179,
        "14562": 32,
        "14563": 202,
        "14564": 162,
        "14565": 61,
        "14566": 178,
        "14567": 193,
        "14568": 156,
        "14569": 198,
        "14570": 27,
        "14571": 72,
        "14572": 61,
        "14573": 110,
        "14574": 234,
        "14575": 170,
        "14576": 9,
        "14577": 216,
        "14578": 76,
        "14579": 82,
        "14580": 16,
        "14581": 155,
        "14582": 218,
        "14583": 240,
        "14584": 111,
        "14585": 49,
        "14586": 247,
        "14587": 236,
        "14588": 102,
        "14589": 245,
        "14590": 197,
        "14591": 146,
        "14592": 70,
        "14593": 110,
        "14594": 108,
        "14595": 198,
        "14596": 6,
        "14597": 150,
        "14598": 24,
        "14599": 150,
        "14600": 224,
        "14601": 17,
        "14602": 10,
        "14603": 112,
        "14604": 239,
        "14605": 246,
        "14606": 107,
        "14607": 121,
        "14608": 170,
        "14609": 57,
        "14610": 39,
        "14611": 133,
        "14612": 227,
        "14613": 125,
        "14614": 202,
        "14615": 78,
        "14616": 89,
        "14617": 76,
        "14618": 134,
        "14619": 53,
        "14620": 230,
        "14621": 171,
        "14622": 1,
        "14623": 0,
        "14624": 70,
        "14625": 11,
        "14626": 196,
        "14627": 114,
        "14628": 159,
        "14629": 141,
        "14630": 2,
        "14631": 247,
        "14632": 69,
        "14633": 135,
        "14634": 79,
        "14635": 196,
        "14636": 212,
        "14637": 81,
        "14638": 195,
        "14639": 229,
        "14640": 81,
        "14641": 239,
        "14642": 145,
        "14643": 126,
        "14644": 132,
        "14645": 29,
        "14646": 51,
        "14647": 215,
        "14648": 138,
        "14649": 169,
        "14650": 163,
        "14651": 155,
        "14652": 101,
        "14653": 143,
        "14654": 95,
        "14655": 113,
        "14656": 89,
        "14657": 40,
        "14658": 85,
        "14659": 187,
        "14660": 183,
        "14661": 133,
        "14662": 21,
        "14663": 156,
        "14664": 211,
        "14665": 114,
        "14666": 225,
        "14667": 124,
        "14668": 170,
        "14669": 190,
        "14670": 9,
        "14671": 208,
        "14672": 227,
        "14673": 194,
        "14674": 221,
        "14675": 18,
        "14676": 144,
        "14677": 139,
        "14678": 210,
        "14679": 137,
        "14680": 203,
        "14681": 64,
        "14682": 67,
        "14683": 177,
        "14684": 129,
        "14685": 156,
        "14686": 94,
        "14687": 216,
        "14688": 184,
        "14689": 91,
        "14690": 58,
        "14691": 32,
        "14692": 227,
        "14693": 162,
        "14694": 183,
        "14695": 110,
        "14696": 104,
        "14697": 143,
        "14698": 117,
        "14699": 231,
        "14700": 165,
        "14701": 20,
        "14702": 68,
        "14703": 247,
        "14704": 210,
        "14705": 247,
        "14706": 250,
        "14707": 120,
        "14708": 173,
        "14709": 61,
        "14710": 47,
        "14711": 4,
        "14712": 234,
        "14713": 139,
        "14714": 145,
        "14715": 191,
        "14716": 153,
        "14717": 7,
        "14718": 249,
        "14719": 52,
        "14720": 105,
        "14721": 132,
        "14722": 202,
        "14723": 171,
        "14724": 185,
        "14725": 244,
        "14726": 55,
        "14727": 180,
        "14728": 173,
        "14729": 142,
        "14730": 28,
        "14731": 254,
        "14732": 216,
        "14733": 230,
        "14734": 171,
        "14735": 157,
        "14736": 141,
        "14737": 160,
        "14738": 136,
        "14739": 200,
        "14740": 2,
        "14741": 225,
        "14742": 42,
        "14743": 35,
        "14744": 219,
        "14745": 71,
        "14746": 85,
        "14747": 192,
        "14748": 244,
        "14749": 115,
        "14750": 76,
        "14751": 167,
        "14752": 57,
        "14753": 162,
        "14754": 184,
        "14755": 199,
        "14756": 59,
        "14757": 207,
        "14758": 26,
        "14759": 215,
        "14760": 239,
        "14761": 132,
        "14762": 2,
        "14763": 148,
        "14764": 99,
        "14765": 15,
        "14766": 133,
        "14767": 49,
        "14768": 62,
        "14769": 19,
        "14770": 252,
        "14771": 92,
        "14772": 180,
        "14773": 140,
        "14774": 152,
        "14775": 217,
        "14776": 76,
        "14777": 32,
        "14778": 249,
        "14779": 22,
        "14780": 90,
        "14781": 173,
        "14782": 98,
        "14783": 15,
        "14784": 227,
        "14785": 40,
        "14786": 239,
        "14787": 76,
        "14788": 42,
        "14789": 122,
        "14790": 91,
        "14791": 103,
        "14792": 65,
        "14793": 40,
        "14794": 237,
        "14795": 37,
        "14796": 226,
        "14797": 11,
        "14798": 61,
        "14799": 103,
        "14800": 112,
        "14801": 1,
        "14802": 19,
        "14803": 57,
        "14804": 138,
        "14805": 103,
        "14806": 24,
        "14807": 20,
        "14808": 148,
        "14809": 139,
        "14810": 233,
        "14811": 127,
        "14812": 225,
        "14813": 204,
        "14814": 176,
        "14815": 215,
        "14816": 47,
        "14817": 237,
        "14818": 112,
        "14819": 164,
        "14820": 11,
        "14821": 88,
        "14822": 146,
        "14823": 214,
        "14824": 101,
        "14825": 166,
        "14826": 90,
        "14827": 79,
        "14828": 72,
        "14829": 202,
        "14830": 247,
        "14831": 135,
        "14832": 48,
        "14833": 33,
        "14834": 233,
        "14835": 38,
        "14836": 189,
        "14837": 53,
        "14838": 52,
        "14839": 79,
        "14840": 70,
        "14841": 251,
        "14842": 109,
        "14843": 187,
        "14844": 169,
        "14845": 253,
        "14846": 141,
        "14847": 55,
        "14848": 47,
        "14849": 87,
        "14850": 191,
        "14851": 204,
        "14852": 187,
        "14853": 181,
        "14854": 19,
        "14855": 41,
        "14856": 49,
        "14857": 2,
        "14858": 135,
        "14859": 59,
        "14860": 226,
        "14861": 142,
        "14862": 34,
        "14863": 136,
        "14864": 77,
        "14865": 134,
        "14866": 156,
        "14867": 51,
        "14868": 173,
        "14869": 26,
        "14870": 151,
        "14871": 148,
        "14872": 98,
        "14873": 81,
        "14874": 243,
        "14875": 154,
        "14876": 174,
        "14877": 255,
        "14878": 75,
        "14879": 122,
        "14880": 97,
        "14881": 245,
        "14882": 176,
        "14883": 206,
        "14884": 137,
        "14885": 122,
        "14886": 121,
        "14887": 44,
        "14888": 120,
        "14889": 126,
        "14890": 85,
        "14891": 114,
        "14892": 129,
        "14893": 49,
        "14894": 155,
        "14895": 166,
        "14896": 39,
        "14897": 249,
        "14898": 97,
        "14899": 112,
        "14900": 141,
        "14901": 129,
        "14902": 90,
        "14903": 1,
        "14904": 21,
        "14905": 16,
        "14906": 79,
        "14907": 251,
        "14908": 203,
        "14909": 29,
        "14910": 30,
        "14911": 36,
        "14912": 138,
        "14913": 38,
        "14914": 143,
        "14915": 194,
        "14916": 191,
        "14917": 146,
        "14918": 212,
        "14919": 204,
        "14920": 89,
        "14921": 188,
        "14922": 245,
        "14923": 126,
        "14924": 164,
        "14925": 145,
        "14926": 20,
        "14927": 162,
        "14928": 202,
        "14929": 67,
        "14930": 222,
        "14931": 149,
        "14932": 251,
        "14933": 201,
        "14934": 160,
        "14935": 237,
        "14936": 48,
        "14937": 172,
        "14938": 223,
        "14939": 234,
        "14940": 234,
        "14941": 100,
        "14942": 202,
        "14943": 142,
        "14944": 11,
        "14945": 54,
        "14946": 247,
        "14947": 144,
        "14948": 65,
        "14949": 69,
        "14950": 154,
        "14951": 179,
        "14952": 80,
        "14953": 126,
        "14954": 253,
        "14955": 140,
        "14956": 57,
        "14957": 208,
        "14958": 225,
        "14959": 53,
        "14960": 107,
        "14961": 38,
        "14962": 9,
        "14963": 244,
        "14964": 65,
        "14965": 79,
        "14966": 16,
        "14967": 77,
        "14968": 2,
        "14969": 124,
        "14970": 81,
        "14971": 96,
        "14972": 87,
        "14973": 240,
        "14974": 28,
        "14975": 217,
        "14976": 132,
        "14977": 168,
        "14978": 22,
        "14979": 190,
        "14980": 61,
        "14981": 32,
        "14982": 179,
        "14983": 163,
        "14984": 48,
        "14985": 237,
        "14986": 180,
        "14987": 205,
        "14988": 224,
        "14989": 165,
        "14990": 242,
        "14991": 138,
        "14992": 90,
        "14993": 215,
        "14994": 138,
        "14995": 49,
        "14996": 132,
        "14997": 85,
        "14998": 39,
        "14999": 172,
        "15000": 8,
        "15001": 69,
        "15002": 188,
        "15003": 155,
        "15004": 196,
        "15005": 66,
        "15006": 213,
        "15007": 34,
        "15008": 55,
        "15009": 190,
        "15010": 200,
        "15011": 160,
        "15012": 210,
        "15013": 144,
        "15014": 236,
        "15015": 29,
        "15016": 108,
        "15017": 2,
        "15018": 104,
        "15019": 185,
        "15020": 202,
        "15021": 12,
        "15022": 89,
        "15023": 225,
        "15024": 220,
        "15025": 101,
        "15026": 233,
        "15027": 144,
        "15028": 14,
        "15029": 165,
        "15030": 183,
        "15031": 84,
        "15032": 119,
        "15033": 54,
        "15034": 243,
        "15035": 164,
        "15036": 89,
        "15037": 170,
        "15038": 180,
        "15039": 2,
        "15040": 135,
        "15041": 24,
        "15042": 169,
        "15043": 221,
        "15044": 89,
        "15045": 195,
        "15046": 250,
        "15047": 135,
        "15048": 184,
        "15049": 133,
        "15050": 128,
        "15051": 40,
        "15052": 23,
        "15053": 61,
        "15054": 152,
        "15055": 7,
        "15056": 81,
        "15057": 5,
        "15058": 122,
        "15059": 128,
        "15060": 10,
        "15061": 227,
        "15062": 101,
        "15063": 165,
        "15064": 75,
        "15065": 248,
        "15066": 42,
        "15067": 130,
        "15068": 153,
        "15069": 233,
        "15070": 200,
        "15071": 3,
        "15072": 153,
        "15073": 34,
        "15074": 232,
        "15075": 9,
        "15076": 186,
        "15077": 217,
        "15078": 75,
        "15079": 132,
        "15080": 172,
        "15081": 144,
        "15082": 43,
        "15083": 235,
        "15084": 188,
        "15085": 169,
        "15086": 238,
        "15087": 252,
        "15088": 120,
        "15089": 25,
        "15090": 13,
        "15091": 47,
        "15092": 116,
        "15093": 6,
        "15094": 20,
        "15095": 213,
        "15096": 141,
        "15097": 162,
        "15098": 76,
        "15099": 133,
        "15100": 58,
        "15101": 182,
        "15102": 115,
        "15103": 248,
        "15104": 254,
        "15105": 173,
        "15106": 84,
        "15107": 159,
        "15108": 43,
        "15109": 218,
        "15110": 82,
        "15111": 126,
        "15112": 212,
        "15113": 246,
        "15114": 213,
        "15115": 217,
        "15116": 187,
        "15117": 56,
        "15118": 159,
        "15119": 128,
        "15120": 14,
        "15121": 24,
        "15122": 254,
        "15123": 141,
        "15124": 120,
        "15125": 120,
        "15126": 170,
        "15127": 109,
        "15128": 60,
        "15129": 137,
        "15130": 26,
        "15131": 219,
        "15132": 75,
        "15133": 79,
        "15134": 201,
        "15135": 238,
        "15136": 163,
        "15137": 167,
        "15138": 151,
        "15139": 75,
        "15140": 23,
        "15141": 167,
        "15142": 39,
        "15143": 253,
        "15144": 188,
        "15145": 23,
        "15146": 91,
        "15147": 248,
        "15148": 254,
        "15149": 108,
        "15150": 180,
        "15151": 241,
        "15152": 9,
        "15153": 202,
        "15154": 46,
        "15155": 46,
        "15156": 26,
        "15157": 195,
        "15158": 144,
        "15159": 46,
        "15160": 31,
        "15161": 34,
        "15162": 239,
        "15163": 248,
        "15164": 244,
        "15165": 45,
        "15166": 38,
        "15167": 44,
        "15168": 233,
        "15169": 69,
        "15170": 176,
        "15171": 42,
        "15172": 42,
        "15173": 92,
        "15174": 113,
        "15175": 168,
        "15176": 65,
        "15177": 24,
        "15178": 4,
        "15179": 146,
        "15180": 40,
        "15181": 123,
        "15182": 167,
        "15183": 3,
        "15184": 65,
        "15185": 30,
        "15186": 49,
        "15187": 76,
        "15188": 193,
        "15189": 158,
        "15190": 226,
        "15191": 123,
        "15192": 159,
        "15193": 1,
        "15194": 24,
        "15195": 223,
        "15196": 11,
        "15197": 125,
        "15198": 166,
        "15199": 187,
        "15200": 110,
        "15201": 80,
        "15202": 232,
        "15203": 170,
        "15204": 176,
        "15205": 248,
        "15206": 232,
        "15207": 28,
        "15208": 38,
        "15209": 17,
        "15210": 183,
        "15211": 229,
        "15212": 104,
        "15213": 116,
        "15214": 217,
        "15215": 87,
        "15216": 5,
        "15217": 198,
        "15218": 33,
        "15219": 211,
        "15220": 45,
        "15221": 141,
        "15222": 219,
        "15223": 68,
        "15224": 54,
        "15225": 132,
        "15226": 70,
        "15227": 144,
        "15228": 222,
        "15229": 201,
        "15230": 108,
        "15231": 113,
        "15232": 139,
        "15233": 13,
        "15234": 221,
        "15235": 171,
        "15236": 196,
        "15237": 234,
        "15238": 97,
        "15239": 34,
        "15240": 179,
        "15241": 5,
        "15242": 236,
        "15243": 234,
        "15244": 148,
        "15245": 214,
        "15246": 0,
        "15247": 64,
        "15248": 32,
        "15249": 144,
        "15250": 244,
        "15251": 165,
        "15252": 187,
        "15253": 0,
        "15254": 68,
        "15255": 89,
        "15256": 157,
        "15257": 7,
        "15258": 140,
        "15259": 113,
        "15260": 204,
        "15261": 199,
        "15262": 181,
        "15263": 232,
        "15264": 172,
        "15265": 94,
        "15266": 210,
        "15267": 187,
        "15268": 49,
        "15269": 86,
        "15270": 226,
        "15271": 0,
        "15272": 198,
        "15273": 170,
        "15274": 164,
        "15275": 87,
        "15276": 7,
        "15277": 246,
        "15278": 48,
        "15279": 64,
        "15280": 105,
        "15281": 96,
        "15282": 188,
        "15283": 193,
        "15284": 189,
        "15285": 94,
        "15286": 37,
        "15287": 90,
        "15288": 211,
        "15289": 181,
        "15290": 112,
        "15291": 1,
        "15292": 150,
        "15293": 38,
        "15294": 98,
        "15295": 109,
        "15296": 103,
        "15297": 136,
        "15298": 18,
        "15299": 165,
        "15300": 237,
        "15301": 181,
        "15302": 8,
        "15303": 131,
        "15304": 216,
        "15305": 110,
        "15306": 189,
        "15307": 100,
        "15308": 185,
        "15309": 137,
        "15310": 93,
        "15311": 4,
        "15312": 86,
        "15313": 179,
        "15314": 127,
        "15315": 220,
        "15316": 133,
        "15317": 213,
        "15318": 212,
        "15319": 57,
        "15320": 56,
        "15321": 226,
        "15322": 11,
        "15323": 126,
        "15324": 83,
        "15325": 121,
        "15326": 33,
        "15327": 51,
        "15328": 78,
        "15329": 8,
        "15330": 165,
        "15331": 56,
        "15332": 123,
        "15333": 164,
        "15334": 171,
        "15335": 74,
        "15336": 66,
        "15337": 170,
        "15338": 6,
        "15339": 196,
        "15340": 83,
        "15341": 46,
        "15342": 79,
        "15343": 22,
        "15344": 184,
        "15345": 32,
        "15346": 177,
        "15347": 187,
        "15348": 52,
        "15349": 136,
        "15350": 70,
        "15351": 22,
        "15352": 155,
        "15353": 145,
        "15354": 208,
        "15355": 246,
        "15356": 196,
        "15357": 158,
        "15358": 129,
        "15359": 26,
        "15360": 4,
        "15361": 142,
        "15362": 135,
        "15363": 150,
        "15364": 43,
        "15365": 190,
        "15366": 90,
        "15367": 82,
        "15368": 231,
        "15369": 207,
        "15370": 211,
        "15371": 188,
        "15372": 198,
        "15373": 77,
        "15374": 155,
        "15375": 30,
        "15376": 11,
        "15377": 109,
        "15378": 141,
        "15379": 132,
        "15380": 139,
        "15381": 56,
        "15382": 173,
        "15383": 39,
        "15384": 152,
        "15385": 70,
        "15386": 113,
        "15387": 240,
        "15388": 190,
        "15389": 96,
        "15390": 184,
        "15391": 188,
        "15392": 209,
        "15393": 103,
        "15394": 254,
        "15395": 37,
        "15396": 145,
        "15397": 103,
        "15398": 178,
        "15399": 217,
        "15400": 124,
        "15401": 25,
        "15402": 43,
        "15403": 177,
        "15404": 208,
        "15405": 238,
        "15406": 3,
        "15407": 238,
        "15408": 55,
        "15409": 44,
        "15410": 32,
        "15411": 76,
        "15412": 126,
        "15413": 11,
        "15414": 212,
        "15415": 104,
        "15416": 91,
        "15417": 233,
        "15418": 242,
        "15419": 26,
        "15420": 183,
        "15421": 23,
        "15422": 14,
        "15423": 144,
        "15424": 100,
        "15425": 77,
        "15426": 193,
        "15427": 168,
        "15428": 40,
        "15429": 57,
        "15430": 135,
        "15431": 248,
        "15432": 235,
        "15433": 56,
        "15434": 3,
        "15435": 105,
        "15436": 19,
        "15437": 254,
        "15438": 5,
        "15439": 99,
        "15440": 162,
        "15441": 27,
        "15442": 74,
        "15443": 24,
        "15444": 157,
        "15445": 254,
        "15446": 161,
        "15447": 58,
        "15448": 221,
        "15449": 99,
        "15450": 61,
        "15451": 211,
        "15452": 87,
        "15453": 33,
        "15454": 250,
        "15455": 196,
        "15456": 185,
        "15457": 192,
        "15458": 200,
        "15459": 72,
        "15460": 203,
        "15461": 58,
        "15462": 3,
        "15463": 120,
        "15464": 40,
        "15465": 237,
        "15466": 215,
        "15467": 128,
        "15468": 127,
        "15469": 141,
        "15470": 115,
        "15471": 60,
        "15472": 165,
        "15473": 250,
        "15474": 194,
        "15475": 96,
        "15476": 160,
        "15477": 249,
        "15478": 113,
        "15479": 132,
        "15480": 2,
        "15481": 35,
        "15482": 236,
        "15483": 43,
        "15484": 236,
        "15485": 158,
        "15486": 243,
        "15487": 201,
        "15488": 126,
        "15489": 87,
        "15490": 42,
        "15491": 123,
        "15492": 204,
        "15493": 13,
        "15494": 200,
        "15495": 100,
        "15496": 213,
        "15497": 108,
        "15498": 215,
        "15499": 69,
        "15500": 12,
        "15501": 23,
        "15502": 66,
        "15503": 242,
        "15504": 190,
        "15505": 144,
        "15506": 192,
        "15507": 28,
        "15508": 108,
        "15509": 254,
        "15510": 156,
        "15511": 17,
        "15512": 127,
        "15513": 19,
        "15514": 202,
        "15515": 131,
        "15516": 219,
        "15517": 85,
        "15518": 129,
        "15519": 47,
        "15520": 102,
        "15521": 239,
        "15522": 42,
        "15523": 122,
        "15524": 161,
        "15525": 9,
        "15526": 91,
        "15527": 108,
        "15528": 199,
        "15529": 150,
        "15530": 215,
        "15531": 12,
        "15532": 71,
        "15533": 116,
        "15534": 166,
        "15535": 216,
        "15536": 222,
        "15537": 154,
        "15538": 38,
        "15539": 37,
        "15540": 213,
        "15541": 39,
        "15542": 216,
        "15543": 44,
        "15544": 219,
        "15545": 97,
        "15546": 85,
        "15547": 200,
        "15548": 133,
        "15549": 80,
        "15550": 170,
        "15551": 89,
        "15552": 162,
        "15553": 237,
        "15554": 211,
        "15555": 64,
        "15556": 123,
        "15557": 135,
        "15558": 22,
        "15559": 142,
        "15560": 209,
        "15561": 239,
        "15562": 131,
        "15563": 23,
        "15564": 232,
        "15565": 131,
        "15566": 183,
        "15567": 198,
        "15568": 116,
        "15569": 147,
        "15570": 17,
        "15571": 235,
        "15572": 6,
        "15573": 25,
        "15574": 214,
        "15575": 65,
        "15576": 60,
        "15577": 175,
        "15578": 140,
        "15579": 191,
        "15580": 135,
        "15581": 85,
        "15582": 186,
        "15583": 10,
        "15584": 112,
        "15585": 123,
        "15586": 64,
        "15587": 49,
        "15588": 216,
        "15589": 192,
        "15590": 179,
        "15591": 8,
        "15592": 187,
        "15593": 83,
        "15594": 165,
        "15595": 21,
        "15596": 138,
        "15597": 177,
        "15598": 61,
        "15599": 168,
        "15600": 119,
        "15601": 165,
        "15602": 26,
        "15603": 130,
        "15604": 219,
        "15605": 167,
        "15606": 204,
        "15607": 92,
        "15608": 151,
        "15609": 207,
        "15610": 202,
        "15611": 135,
        "15612": 232,
        "15613": 8,
        "15614": 247,
        "15615": 238,
        "15616": 41,
        "15617": 181,
        "15618": 127,
        "15619": 134,
        "15620": 81,
        "15621": 11,
        "15622": 126,
        "15623": 144,
        "15624": 186,
        "15625": 19,
        "15626": 7,
        "15627": 124,
        "15628": 235,
        "15629": 168,
        "15630": 95,
        "15631": 244,
        "15632": 162,
        "15633": 229,
        "15634": 132,
        "15635": 163,
        "15636": 93,
        "15637": 195,
        "15638": 121,
        "15639": 222,
        "15640": 212,
        "15641": 154,
        "15642": 167,
        "15643": 18,
        "15644": 69,
        "15645": 116,
        "15646": 199,
        "15647": 124,
        "15648": 154,
        "15649": 1,
        "15650": 13,
        "15651": 99,
        "15652": 17,
        "15653": 48,
        "15654": 137,
        "15655": 164,
        "15656": 166,
        "15657": 129,
        "15658": 56,
        "15659": 111,
        "15660": 8,
        "15661": 66,
        "15662": 35,
        "15663": 97,
        "15664": 81,
        "15665": 57,
        "15666": 195,
        "15667": 94,
        "15668": 176,
        "15669": 232,
        "15670": 55,
        "15671": 148,
        "15672": 182,
        "15673": 229,
        "15674": 154,
        "15675": 61,
        "15676": 24,
        "15677": 100,
        "15678": 154,
        "15679": 92,
        "15680": 126,
        "15681": 53,
        "15682": 224,
        "15683": 27,
        "15684": 7,
        "15685": 224,
        "15686": 17,
        "15687": 65,
        "15688": 43,
        "15689": 193,
        "15690": 150,
        "15691": 199,
        "15692": 47,
        "15693": 43,
        "15694": 17,
        "15695": 240,
        "15696": 138,
        "15697": 251,
        "15698": 160,
        "15699": 20,
        "15700": 89,
        "15701": 118,
        "15702": 150,
        "15703": 124,
        "15704": 149,
        "15705": 156,
        "15706": 145,
        "15707": 35,
        "15708": 252,
        "15709": 82,
        "15710": 140,
        "15711": 179,
        "15712": 53,
        "15713": 79,
        "15714": 170,
        "15715": 206,
        "15716": 53,
        "15717": 121,
        "15718": 195,
        "15719": 236,
        "15720": 53,
        "15721": 28,
        "15722": 21,
        "15723": 209,
        "15724": 149,
        "15725": 117,
        "15726": 212,
        "15727": 226,
        "15728": 14,
        "15729": 80,
        "15730": 244,
        "15731": 66,
        "15732": 75,
        "15733": 65,
        "15734": 122,
        "15735": 41,
        "15736": 229,
        "15737": 196,
        "15738": 43,
        "15739": 9,
        "15740": 109,
        "15741": 143,
        "15742": 53,
        "15743": 103,
        "15744": 116,
        "15745": 203,
        "15746": 1,
        "15747": 124,
        "15748": 127,
        "15749": 159,
        "15750": 110,
        "15751": 209,
        "15752": 97,
        "15753": 185,
        "15754": 189,
        "15755": 222,
        "15756": 78,
        "15757": 117,
        "15758": 116,
        "15759": 123,
        "15760": 86,
        "15761": 209,
        "15762": 6,
        "15763": 120,
        "15764": 171,
        "15765": 18,
        "15766": 67,
        "15767": 246,
        "15768": 165,
        "15769": 148,
        "15770": 244,
        "15771": 120,
        "15772": 227,
        "15773": 63,
        "15774": 112,
        "15775": 130,
        "15776": 21,
        "15777": 113,
        "15778": 68,
        "15779": 66,
        "15780": 44,
        "15781": 99,
        "15782": 83,
        "15783": 68,
        "15784": 96,
        "15785": 67,
        "15786": 147,
        "15787": 241,
        "15788": 23,
        "15789": 180,
        "15790": 143,
        "15791": 144,
        "15792": 98,
        "15793": 224,
        "15794": 126,
        "15795": 187,
        "15796": 248,
        "15797": 98,
        "15798": 116,
        "15799": 57,
        "15800": 118,
        "15801": 31,
        "15802": 254,
        "15803": 228,
        "15804": 137,
        "15805": 219,
        "15806": 235,
        "15807": 196,
        "15808": 247,
        "15809": 184,
        "15810": 36,
        "15811": 119,
        "15812": 109,
        "15813": 138,
        "15814": 86,
        "15815": 29,
        "15816": 189,
        "15817": 142,
        "15818": 115,
        "15819": 71,
        "15820": 255,
        "15821": 158,
        "15822": 126,
        "15823": 65,
        "15824": 253,
        "15825": 81,
        "15826": 178,
        "15827": 197,
        "15828": 254,
        "15829": 235,
        "15830": 10,
        "15831": 237,
        "15832": 65,
        "15833": 52,
        "15834": 140,
        "15835": 120,
        "15836": 242,
        "15837": 241,
        "15838": 218,
        "15839": 208,
        "15840": 79,
        "15841": 113,
        "15842": 159,
        "15843": 201,
        "15844": 35,
        "15845": 126,
        "15846": 136,
        "15847": 22,
        "15848": 238,
        "15849": 59,
        "15850": 14,
        "15851": 1,
        "15852": 146,
        "15853": 205,
        "15854": 51,
        "15855": 54,
        "15856": 119,
        "15857": 251,
        "15858": 33,
        "15859": 65,
        "15860": 155,
        "15861": 172,
        "15862": 5,
        "15863": 252,
        "15864": 231,
        "15865": 124,
        "15866": 94,
        "15867": 149,
        "15868": 70,
        "15869": 236,
        "15870": 65,
        "15871": 185,
        "15872": 5,
        "15873": 84,
        "15874": 97,
        "15875": 255,
        "15876": 123,
        "15877": 144,
        "15878": 120,
        "15879": 162,
        "15880": 40,
        "15881": 122,
        "15882": 36,
        "15883": 25,
        "15884": 241,
        "15885": 81,
        "15886": 71,
        "15887": 136,
        "15888": 103,
        "15889": 209,
        "15890": 223,
        "15891": 211,
        "15892": 119,
        "15893": 66,
        "15894": 232,
        "15895": 139,
        "15896": 69,
        "15897": 81,
        "15898": 34,
        "15899": 9,
        "15900": 219,
        "15901": 143,
        "15902": 148,
        "15903": 68,
        "15904": 222,
        "15905": 214,
        "15906": 46,
        "15907": 135,
        "15908": 186,
        "15909": 119,
        "15910": 225,
        "15911": 157,
        "15912": 141,
        "15913": 236,
        "15914": 88,
        "15915": 214,
        "15916": 96,
        "15917": 244,
        "15918": 152,
        "15919": 91,
        "15920": 211,
        "15921": 229,
        "15922": 43,
        "15923": 226,
        "15924": 237,
        "15925": 121,
        "15926": 184,
        "15927": 240,
        "15928": 134,
        "15929": 94,
        "15930": 127,
        "15931": 39,
        "15932": 211,
        "15933": 48,
        "15934": 184,
        "15935": 111,
        "15936": 49,
        "15937": 43,
        "15938": 248,
        "15939": 173,
        "15940": 229,
        "15941": 111,
        "15942": 2,
        "15943": 128,
        "15944": 116,
        "15945": 146,
        "15946": 248,
        "15947": 33,
        "15948": 217,
        "15949": 163,
        "15950": 172,
        "15951": 32,
        "15952": 81,
        "15953": 36,
        "15954": 179,
        "15955": 22,
        "15956": 152,
        "15957": 38,
        "15958": 193,
        "15959": 135,
        "15960": 137,
        "15961": 248,
        "15962": 94,
        "15963": 251,
        "15964": 133,
        "15965": 103,
        "15966": 178,
        "15967": 218,
        "15968": 76,
        "15969": 110,
        "15970": 242,
        "15971": 88,
        "15972": 30,
        "15973": 77,
        "15974": 15,
        "15975": 59,
        "15976": 58,
        "15977": 196,
        "15978": 194,
        "15979": 73,
        "15980": 214,
        "15981": 55,
        "15982": 138,
        "15983": 134,
        "15984": 189,
        "15985": 46,
        "15986": 67,
        "15987": 102,
        "15988": 213,
        "15989": 31,
        "15990": 187,
        "15991": 176,
        "15992": 200,
        "15993": 44,
        "15994": 44,
        "15995": 38,
        "15996": 15,
        "15997": 71,
        "15998": 65,
        "15999": 223,
        "16000": 25,
        "16001": 102,
        "16002": 33,
        "16003": 133,
        "16004": 92,
        "16005": 116,
        "16006": 223,
        "16007": 175,
        "16008": 223,
        "16009": 183,
        "16010": 156,
        "16011": 21,
        "16012": 177,
        "16013": 179,
        "16014": 11,
        "16015": 57,
        "16016": 33,
        "16017": 163,
        "16018": 172,
        "16019": 212,
        "16020": 175,
        "16021": 230,
        "16022": 228,
        "16023": 171,
        "16024": 181,
        "16025": 91,
        "16026": 194,
        "16027": 239,
        "16028": 122,
        "16029": 252,
        "16030": 223,
        "16031": 12,
        "16032": 103,
        "16033": 199,
        "16034": 169,
        "16035": 77,
        "16036": 44,
        "16037": 58,
        "16038": 233,
        "16039": 211,
        "16040": 252,
        "16041": 8,
        "16042": 84,
        "16043": 181,
        "16044": 204,
        "16045": 106,
        "16046": 151,
        "16047": 67,
        "16048": 237,
        "16049": 177,
        "16050": 98,
        "16051": 28,
        "16052": 110,
        "16053": 92,
        "16054": 211,
        "16055": 42,
        "16056": 151,
        "16057": 198,
        "16058": 41,
        "16059": 91,
        "16060": 192,
        "16061": 82,
        "16062": 5,
        "16063": 113,
        "16064": 174,
        "16065": 82,
        "16066": 59,
        "16067": 47,
        "16068": 51,
        "16069": 115,
        "16070": 35,
        "16071": 3,
        "16072": 160,
        "16073": 131,
        "16074": 157,
        "16075": 230,
        "16076": 125,
        "16077": 199,
        "16078": 205,
        "16079": 208,
        "16080": 21,
        "16081": 49,
        "16082": 144,
        "16083": 9,
        "16084": 84,
        "16085": 8,
        "16086": 250,
        "16087": 217,
        "16088": 67,
        "16089": 251,
        "16090": 204,
        "16091": 214,
        "16092": 128,
        "16093": 137,
        "16094": 46,
        "16095": 154,
        "16096": 219,
        "16097": 172,
        "16098": 253,
        "16099": 155,
        "16100": 134,
        "16101": 9,
        "16102": 242,
        "16103": 15,
        "16104": 154,
        "16105": 139,
        "16106": 36,
        "16107": 221,
        "16108": 92,
        "16109": 84,
        "16110": 47,
        "16111": 120,
        "16112": 25,
        "16113": 236,
        "16114": 249,
        "16115": 203,
        "16116": 32,
        "16117": 49,
        "16118": 216,
        "16119": 158,
        "16120": 176,
        "16121": 197,
        "16122": 180,
        "16123": 72,
        "16124": 59,
        "16125": 245,
        "16126": 222,
        "16127": 126,
        "16128": 206,
        "16129": 232,
        "16130": 211,
        "16131": 217,
        "16132": 83,
        "16133": 98,
        "16134": 236,
        "16135": 92,
        "16136": 58,
        "16137": 135,
        "16138": 55,
        "16139": 55,
        "16140": 97,
        "16141": 91,
        "16142": 37,
        "16143": 234,
        "16144": 47,
        "16145": 214,
        "16146": 11,
        "16147": 99,
        "16148": 97,
        "16149": 211,
        "16150": 127,
        "16151": 246,
        "16152": 46,
        "16153": 196,
        "16154": 115,
        "16155": 93,
        "16156": 43,
        "16157": 58,
        "16158": 91,
        "16159": 153,
        "16160": 99,
        "16161": 97,
        "16162": 128,
        "16163": 43,
        "16164": 79,
        "16165": 105,
        "16166": 70,
        "16167": 60,
        "16168": 160,
        "16169": 129,
        "16170": 165,
        "16171": 120,
        "16172": 75,
        "16173": 131,
        "16174": 168,
        "16175": 131,
        "16176": 195,
        "16177": 255,
        "16178": 5,
        "16179": 35,
        "16180": 92,
        "16181": 10,
        "16182": 23,
        "16183": 125,
        "16184": 152,
        "16185": 21,
        "16186": 17,
        "16187": 195,
        "16188": 94,
        "16189": 98,
        "16190": 139,
        "16191": 227,
        "16192": 134,
        "16193": 53,
        "16194": 161,
        "16195": 187,
        "16196": 242,
        "16197": 95,
        "16198": 27,
        "16199": 177,
        "16200": 140,
        "16201": 19,
        "16202": 8,
        "16203": 199,
        "16204": 21,
        "16205": 150,
        "16206": 47,
        "16207": 109,
        "16208": 214,
        "16209": 166,
        "16210": 62,
        "16211": 48,
        "16212": 10,
        "16213": 92,
        "16214": 43,
        "16215": 49,
        "16216": 114,
        "16217": 201,
        "16218": 134,
        "16219": 3,
        "16220": 154,
        "16221": 141,
        "16222": 199,
        "16223": 180,
        "16224": 28,
        "16225": 128,
        "16226": 192,
        "16227": 63,
        "16228": 109,
        "16229": 171,
        "16230": 95,
        "16231": 203,
        "16232": 140,
        "16233": 173,
        "16234": 241,
        "16235": 134,
        "16236": 55,
        "16237": 164,
        "16238": 70,
        "16239": 172,
        "16240": 77,
        "16241": 71,
        "16242": 145,
        "16243": 167,
        "16244": 122,
        "16245": 214,
        "16246": 85,
        "16247": 143,
        "16248": 187,
        "16249": 98,
        "16250": 149,
        "16251": 151,
        "16252": 4,
        "16253": 226,
        "16254": 5,
        "16255": 42,
        "16256": 96,
        "16257": 192,
        "16258": 193,
        "16259": 174,
        "16260": 50,
        "16261": 236,
        "16262": 32,
        "16263": 193,
        "16264": 70,
        "16265": 142,
        "16266": 125,
        "16267": 136,
        "16268": 220,
        "16269": 11,
        "16270": 146,
        "16271": 246,
        "16272": 226,
        "16273": 88,
        "16274": 37,
        "16275": 69,
        "16276": 190,
        "16277": 250,
        "16278": 207,
        "16279": 2,
        "16280": 252,
        "16281": 117,
        "16282": 95,
        "16283": 29,
        "16284": 110,
        "16285": 217,
        "16286": 210,
        "16287": 236,
        "16288": 254,
        "16289": 85,
        "16290": 252,
        "16291": 78,
        "16292": 139,
        "16293": 91,
        "16294": 238,
        "16295": 198,
        "16296": 38,
        "16297": 66,
        "16298": 41,
        "16299": 246,
        "16300": 156,
        "16301": 233,
        "16302": 104,
        "16303": 68,
        "16304": 199,
        "16305": 144,
        "16306": 251,
        "16307": 4,
        "16308": 244,
        "16309": 186,
        "16310": 239,
        "16311": 119,
        "16312": 221,
        "16313": 209,
        "16314": 83,
        "16315": 85,
        "16316": 13,
        "16317": 163,
        "16318": 113,
        "16319": 253,
        "16320": 135,
        "16321": 208,
        "16322": 190,
        "16323": 123,
        "16324": 203,
        "16325": 49,
        "16326": 192,
        "16327": 158,
        "16328": 117,
        "16329": 0,
        "16330": 5,
        "16331": 118,
        "16332": 122,
        "16333": 103,
        "16334": 16,
        "16335": 12,
        "16336": 204,
        "16337": 194,
        "16338": 127,
        "16339": 50,
        "16340": 203,
        "16341": 41,
        "16342": 0,
        "16343": 106,
        "16344": 55,
        "16345": 6,
        "16346": 194,
        "16347": 80,
        "16348": 222,
        "16349": 93,
        "16350": 133,
        "16351": 170,
        "16352": 16,
        "16353": 231,
        "16354": 243,
        "16355": 128,
        "16356": 194,
        "16357": 43,
        "16358": 54,
        "16359": 21,
        "16360": 206,
        "16361": 225,
        "16362": 125,
        "16363": 211,
        "16364": 7,
        "16365": 125,
        "16366": 216,
        "16367": 114,
        "16368": 228,
        "16369": 230,
        "16370": 43,
        "16371": 243,
        "16372": 249,
        "16373": 122,
        "16374": 63,
        "16375": 215,
        "16376": 187,
        "16377": 207,
        "16378": 168,
        "16379": 250,
        "16380": 241,
        "16381": 150,
        "16382": 42,
        "16383": 204,
        "16384": 28,
        "16385": 227,
        "16386": 236,
        "16387": 146,
        "16388": 212,
        "16389": 50,
        "16390": 148,
        "16391": 136,
        "16392": 215,
        "16393": 66,
        "16394": 91,
        "16395": 37,
        "16396": 248,
        "16397": 82,
        "16398": 121,
        "16399": 206,
        "16400": 117,
        "16401": 29,
        "16402": 186,
        "16403": 78,
        "16404": 47,
        "16405": 202,
        "16406": 109,
        "16407": 88,
        "16408": 195,
        "16409": 105,
        "16410": 174,
        "16411": 84,
        "16412": 144,
        "16413": 186,
        "16414": 176,
        "16415": 34,
        "16416": 55,
        "16417": 84,
        "16418": 22,
        "16419": 90,
        "16420": 221,
        "16421": 176,
        "16422": 101,
        "16423": 86,
        "16424": 163,
        "16425": 74,
        "16426": 47,
        "16427": 110,
        "16428": 214,
        "16429": 94,
        "16430": 164,
        "16431": 234,
        "16432": 252,
        "16433": 255,
        "16434": 231,
        "16435": 55,
        "16436": 110,
        "16437": 50,
        "16438": 105,
        "16439": 3,
        "16440": 66,
        "16441": 97,
        "16442": 24,
        "16443": 85,
        "16444": 130,
        "16445": 226,
        "16446": 239,
        "16447": 163,
        "16448": 132,
        "16449": 67,
        "16450": 155,
        "16451": 244,
        "16452": 129,
        "16453": 219,
        "16454": 36,
        "16455": 134,
        "16456": 234,
        "16457": 51,
        "16458": 146,
        "16459": 11,
        "16460": 199,
        "16461": 118,
        "16462": 150,
        "16463": 190,
        "16464": 63,
        "16465": 56,
        "16466": 221,
        "16467": 232,
        "16468": 42,
        "16469": 35,
        "16470": 160,
        "16471": 164,
        "16472": 184,
        "16473": 41,
        "16474": 5,
        "16475": 28,
        "16476": 31,
        "16477": 255,
        "16478": 127,
        "16479": 240,
        "16480": 46,
        "16481": 177,
        "16482": 93,
        "16483": 8,
        "16484": 77,
        "16485": 198,
        "16486": 5,
        "16487": 59,
        "16488": 25,
        "16489": 0,
        "16490": 114,
        "16491": 236,
        "16492": 238,
        "16493": 154,
        "16494": 173,
        "16495": 45,
        "16496": 46,
        "16497": 162,
        "16498": 240,
        "16499": 247,
        "16500": 198,
        "16501": 180,
        "16502": 8,
        "16503": 58,
        "16504": 251,
        "16505": 212,
        "16506": 219,
        "16507": 255,
        "16508": 46,
        "16509": 130,
        "16510": 120,
        "16511": 228,
        "16512": 107,
        "16513": 167,
        "16514": 123,
        "16515": 84,
        "16516": 13,
        "16517": 255,
        "16518": 186,
        "16519": 176,
        "16520": 1,
        "16521": 8,
        "16522": 0,
        "16523": 0,
        "16524": 0,
        "16525": 0,
        "16526": 0,
        "16527": 0,
        "16528": 16,
        "16529": 0,
        "16530": 0,
        "16531": 0,
        "16532": 0,
        "16533": 0,
        "16534": 0,
        "16535": 0,
        "16536": 0,
        "16537": 0,
        "16538": 0,
        "16539": 0,
        "16540": 0,
        "16541": 0,
        "16542": 0,
        "16543": 0,
        "16544": 0,
        "16545": 0,
        "16546": 0,
        "16547": 0,
        "16548": 0,
        "16549": 0,
        "16550": 0,
        "16551": 0,
        "16552": 64,
        "16553": 0,
        "16554": 0,
        "16555": 0,
        "16556": 0,
        "16557": 0,
        "16558": 0,
        "16559": 0,
        "16560": 3,
        "16561": 0,
        "16562": 0,
        "16563": 0,
        "16564": 0,
        "16565": 0,
        "16566": 0,
        "16567": 0,
        "16568": 4,
        "16569": 0,
        "16570": 0,
        "16571": 0,
        "16572": 0,
        "16573": 0,
        "16574": 0,
        "16575": 0,
        "16576": 4,
        "16577": 0,
        "16578": 0,
        "16579": 0,
        "16580": 0,
        "16581": 0,
        "16582": 0,
        "16583": 0,
        "16584": 0,
        "16585": 0,
        "16586": 0,
        "16587": 0,
        "16588": 1,
        "16589": 0,
        "16590": 0,
        "16591": 0,
        "16592": 0,
        "16593": 0,
        "16594": 0,
        "16595": 0,
        "16596": 16,
        "16597": 0,
        "16598": 0,
        "16599": 0,
        "16600": 0,
        "16601": 0,
        "16602": 0,
        "16603": 0
      }
    }
  ],
  "numDeployments": 1,
  "solcInputHash": "c0e889dcb69b76266f445d0fe3402b92",
  "bytecode": "0x6101606040526200001760006200026660201b60201c565b6002553480156200002757600080fd5b50604051620046173803806200461783398181016040528101906200004d919062000b83565b6040518060400160405280600881526020017f46616b652046475a0000000000000000000000000000000000000000000000008152506040518060400160405280600481526020017f6646475a00000000000000000000000000000000000000000000000000000000815250338383836040518060400160405280601181526020017f4668656e6978205065726d697373696f6e0000000000000000000000000000008152506040518060400160405280600381526020017f312e3000000000000000000000000000000000000000000000000000000000008152506200013f6000836200028260201b90919060201c565b61012081815250506200015d6001826200028260201b90919060201c565b6101408181525050818051906020012060e08181525050808051906020012061010081815250504660a081815250506200019c620002da60201b60201c565b608081815250503073ffffffffffffffffffffffffffffffffffffffff1660c08173ffffffffffffffffffffffffffffffffffffffff168152505050508160059081620001ea919062000e1f565b508060069081620001fc919062000e1f565b505050600062000212826200033760201b60201c565b9050620002486200023c8262000230617fff6200026660201b60201c565b6200035560201b60201c565b620003f860201b60201c565b6200025a8382620004cb60201b60201c565b50505050505062001260565b60006200027b8260026200057160201b60201c565b9050919050565b6000602083511015620002a857620002a0836200062860201b60201c565b9050620002d4565b82620002ba836200069560201b60201c565b6000019081620002cb919062000e1f565b5060ff60001b90505b92915050565b60007f8b73c3c69bb8fe3d512ecc4cf759cc79239f7b179b0ffacaa9a75d522b39400f60e0516101005146306040516020016200031c95949392919062000f77565b60405160208183030381529060405280519060200120905090565b60006200034e82600001516200069f60201b60201c565b9050919050565b60006200036883620006bb60201b60201c565b62000382576200037f60006200026660201b60201c565b92505b6200039382620006bb60201b60201c565b620003ad57620003aa60006200026660201b60201c565b91505b600083905060008390506000620003ea60028484608073ffffffffffffffffffffffffffffffffffffffff1663eb274b77620006c860201b60201c565b905080935050505092915050565b62000409816200077960201b60201c565b62000423576200042060006200078660201b60201c565b90505b600081905060006200043b82620007a260201b60201c565b9050608073ffffffffffffffffffffffffffffffffffffffff16637d23f1db600d836040518363ffffffff1660e01b81526004016200047c9291906200104f565b600060405180830381865afa1580156200049a573d6000803e3d6000fd5b505050506040513d6000823e3d601f19601f82011682018060405250810190620004c5919062001083565b50505050565b62000516600360008473ffffffffffffffffffffffffffffffffffffffff1673ffffffffffffffffffffffffffffffffffffffff168152602001908152602001600020548262000803565b600360008473ffffffffffffffffffffffffffffffffffffffff1673ffffffffffffffffffffffffffffffffffffffff16815260200190815260200160002081905550620005676002548262000803565b6002819055505050565b60006060608073ffffffffffffffffffffffffffffffffffffffff166319e1c5c4620005a386620007a260201b60201c565b856040518363ffffffff1660e01b8152600401620005c3929190620010d4565b600060405180830381865afa158015620005e1573d6000803e3d6000fd5b505050506040513d6000823e3d601f19601f820116820180604052508101906200060c919062001083565b90506200061f816200081f60201b60201c565b91505092915050565b600080829050601f815111156200067857826040517f305a27a90000000000000000000000000000000000000000000000000000000081526004016200066f91906200115a565b60405180910390fd5b8051816200068690620011a5565b60001c1760001b915050919050565b6000819050919050565b6000620006b48260026200082d60201b60201c565b9050919050565b6000808214159050919050565b60006060838388620006e089620007a260201b60201c565b620006f189620007a260201b60201c565b6040518463ffffffff1660e01b8152600401620007119392919062001215565b600060405180830381865afa1580156200072f573d6000803e3d6000fd5b505050506040513d6000823e3d601f19601f820116820180604052508101906200075a919062001083565b90506200076d81620008d460201b60201c565b91505095945050505050565b6000808214159050919050565b60006200079b82600d6200057160201b60201c565b9050919050565b6060602067ffffffffffffffff811115620007c257620007c1620009ae565b5b6040519080825280601f01601f191660200182016040528015620007f55781602001600182028036833780820191505090505b509050816020820152919050565b6000620008178383620008e260201b60201c565b905092915050565b600060208201519050919050565b60006060608073ffffffffffffffffffffffffffffffffffffffff16635fa55ca784866040518363ffffffff1660e01b81526004016200086f9291906200104f565b600060405180830381865afa1580156200088d573d6000803e3d6000fd5b505050506040513d6000823e3d601f19601f82011682018060405250810190620008b8919062001083565b9050620008cb816200081f60201b60201c565b91505092915050565b600060208201519050919050565b6000620008f583620006bb60201b60201c565b6200090f576200090c60006200026660201b60201c565b92505b6200092082620006bb60201b60201c565b6200093a576200093760006200026660201b60201c565b91505b6000839050600083905060006200097660028484608073ffffffffffffffffffffffffffffffffffffffff16622df619620006c860201b60201c565b905080935050505092915050565b6000604051905090565b600080fd5b600080fd5b600080fd5b6000601f19601f8301169050919050565b7f4e487b7100000000000000000000000000000000000000000000000000000000600052604160045260246000fd5b620009e8826200099d565b810181811067ffffffffffffffff8211171562000a0a5762000a09620009ae565b5b80604052505050565b600062000a1f62000984565b905062000a2d8282620009dd565b919050565b600080fd5b600080fd5b600080fd5b600067ffffffffffffffff82111562000a5f5762000a5e620009ae565b5b62000a6a826200099d565b9050602081019050919050565b60005b8381101562000a9757808201518184015260208101905062000a7a565b60008484015250505050565b600062000aba62000ab48462000a41565b62000a13565b90508281526020810184848401111562000ad95762000ad862000a3c565b5b62000ae684828562000a77565b509392505050565b600082601f83011262000b065762000b0562000a37565b5b815162000b1884826020860162000aa3565b91505092915050565b60006020828403121562000b3a5762000b3962000998565b5b62000b46602062000a13565b9050600082015167ffffffffffffffff81111562000b695762000b6862000a32565b5b62000b778482850162000aee565b60008301525092915050565b60006020828403121562000b9c5762000b9b6200098e565b5b600082015167ffffffffffffffff81111562000bbd5762000bbc62000993565b5b62000bcb8482850162000b21565b91505092915050565b600081519050919050565b7f4e487b7100000000000000000000000000000000000000000000000000000000600052602260045260246000fd5b6000600282049050600182168062000c2757607f821691505b60208210810362000c3d5762000c3c62000bdf565b5b50919050565b60008190508160005260206000209050919050565b60006020601f8301049050919050565b600082821b905092915050565b60006008830262000ca77fffffffffffffffffffffffffffffffffffffffffffffffffffffffffffffffff8262000c68565b62000cb3868362000c68565b95508019841693508086168417925050509392505050565b6000819050919050565b6000819050919050565b600062000d0062000cfa62000cf48462000ccb565b62000cd5565b62000ccb565b9050919050565b6000819050919050565b62000d1c8362000cdf565b62000d3462000d2b8262000d07565b84845462000c75565b825550505050565b600090565b62000d4b62000d3c565b62000d5881848462000d11565b505050565b5b8181101562000d805762000d7460008262000d41565b60018101905062000d5e565b5050565b601f82111562000dcf5762000d998162000c43565b62000da48462000c58565b8101602085101562000db4578190505b62000dcc62000dc38562000c58565b83018262000d5d565b50505b505050565b600082821c905092915050565b600062000df46000198460080262000dd4565b1980831691505092915050565b600062000e0f838362000de1565b9150826002028217905092915050565b62000e2a8262000bd4565b67ffffffffffffffff81111562000e465762000e45620009ae565b5b62000e52825462000c0e565b62000e5f82828562000d84565b600060209050601f83116001811462000e97576000841562000e82578287015190505b62000e8e858262000e01565b86555062000efe565b601f19841662000ea78662000c43565b60005b8281101562000ed15784890151825560018201915060208501945060208101905062000eaa565b8683101562000ef1578489015162000eed601f89168262000de1565b8355505b6001600288020188555050505b505050505050565b6000819050919050565b62000f1b8162000f06565b82525050565b62000f2c8162000ccb565b82525050565b600073ffffffffffffffffffffffffffffffffffffffff82169050919050565b600062000f5f8262000f32565b9050919050565b62000f718162000f52565b82525050565b600060a08201905062000f8e600083018862000f10565b62000f9d602083018762000f10565b62000fac604083018662000f10565b62000fbb606083018562000f21565b62000fca608083018462000f66565b9695505050505050565b600060ff82169050919050565b62000fec8162000fd4565b82525050565b600081519050919050565b600082825260208201905092915050565b60006200101b8262000ff2565b62001027818562000ffd565b93506200103981856020860162000a77565b62001044816200099d565b840191505092915050565b600060408201905062001066600083018562000fe1565b81810360208301526200107a81846200100e565b90509392505050565b6000602082840312156200109c576200109b6200098e565b5b600082015167ffffffffffffffff811115620010bd57620010bc62000993565b5b620010cb8482850162000aee565b91505092915050565b60006040820190508181036000830152620010f081856200100e565b905062001101602083018462000fe1565b9392505050565b600082825260208201905092915050565b6000620011268262000bd4565b62001132818562001108565b93506200114481856020860162000a77565b6200114f816200099d565b840191505092915050565b6000602082019050818103600083015262001176818462001119565b905092915050565b6000819050602082019050919050565b60006200119c825162000f06565b80915050919050565b6000620011b28262000ff2565b82620011be846200117e565b9050620011cb816200118e565b925060208210156200120e57620012097fffffffffffffffffffffffffffffffffffffffffffffffffffffffffffffffff8360200360080262000c68565b831692505b5050919050565b60006060820190506200122c600083018662000fe1565b81810360208301526200124081856200100e565b905081810360408301526200125681846200100e565b9050949350505050565b60805160a05160c05160e05161010051610120516101405161335c620012bb60003960006118f5015260006118ba0152600061217f0152600061215e015260006119ea01526000611a4001526000611a69015261335c6000f3fe608060405234801561001057600080fd5b50600436106101425760003560e01c80637ecebe00116100b8578063a9059cbb1161007c578063a9059cbb146103b9578063af575a00146103e9578063c4224c1914610419578063d505accf14610449578063d918156e14610465578063dd62ed3e1461049557610142565b80637ecebe00146102fb57806384b0196e1461032b5780638624a3491461034f57806395d89b411461037f5780639f284be71461039d57610142565b80633644e5151161010a5780633644e5151461020157806339c217f71461021f5780635356c4291461024f578063602772041461027f5780636e0505e1146102af57806370a08231146102cb57610142565b806306fdde0314610147578063095ea7b31461016557806318160ddd1461019557806323b872dd146101b3578063313ce567146101e3575b600080fd5b61014f6104c5565b60405161015c9190612433565b60405180910390f35b61017f600480360381019061017a91906124fd565b610557565b60405161018c9190612558565b60405180910390f35b61019d6105ab565b6040516101aa9190612582565b60405180910390f35b6101cd60048036038101906101c8919061259d565b6105bd565b6040516101da9190612558565b60405180910390f35b6101eb610692565b6040516101f8919061260c565b60405180910390f35b610209610697565b6040516102169190612640565b60405180910390f35b6102396004803603810190610234919061267f565b610729565b6040516102469190612716565b60405180910390f35b61026960048036038101906102649190612750565b61074e565b6040516102769190612433565b60405180910390f35b61029960048036038101906102949190612983565b6108bf565b6040516102a69190612433565b60405180910390f35b6102c960048036038101906102c49190612a1b565b6109ec565b005b6102e560048036038101906102e09190612a48565b610b01565b6040516102f29190612582565b60405180910390f35b61031560048036038101906103109190612a48565b610b1c565b6040516103229190612582565b60405180910390f35b610333610b37565b6040516103469796959493929190612b7d565b60405180910390f35b61036960048036038101906103649190612c01565b610be1565b6040516103769190612716565b60405180910390f35b610387610c08565b6040516103949190612433565b60405180910390f35b6103b760048036038101906103b29190612a1b565b610c9a565b005b6103d360048036038101906103ce91906124fd565b610da7565b6040516103e09190612558565b60405180910390f35b61040360048036038101906103fe9190612c9c565b610e39565b6040516104109190612716565b60405180910390f35b610433600480360381019061042e9190612cef565b61118f565b6040516104409190612716565b60405180910390f35b610463600480360381019061045e9190612d5b565b611359565b005b61047f600480360381019061047a919061267f565b6114fd565b60405161048c9190612558565b60405180910390f35b6104af60048036038101906104aa9190612dfd565b6115f5565b6040516104bc9190612582565b60405180910390f35b6060600580546104d490612e6c565b80601f016020809104026020016040519081016040528092919081815260200182805461050090612e6c565b801561054d5780601f106105225761010080835404028352916020019161054d565b820191906000526020600020905b81548152906001019060200180831161053057829003601f168201915b5050505050905090565b600082602052637f5e9f20600c5233600052816034600c205581600052602c5160601c337f8c5be1e5ebec7d5bd14f71427d1e84f3dd0314c0f7b2291e5b200ac8c7c3b92560206000a36001905092915050565b60006805345cdf77eb68f44c54905090565b60006105ca848484611615565b8360601b33602052637f5e9f208117600c526034600c20805460018101156106085780851115610602576313be252b6000526004601cfd5b84810382555b6387a211a28317600c526020600c2080548087111561062f5763f4d678b86000526004601cfd5b8681038255876000526020600c2087815401815587602052600c5160601c8660601c7fddf252ad1be2c89b69c2b068fc378daa952ba7f163c4a11628f55a4df523b3ef602080a350505050505061068784848461161a565b600190509392505050565b600090565b6000806106a261161f565b90506000801b81036106c0576106b66104c5565b8051906020012090505b6040517f8b73c3c69bb8fe3d512ecc4cf759cc79239f7b179b0ffacaa9a75d522b39400f81528160208201527fc89efdaa54c0f20c7adf612882df0950f5a951637e0307cdcb4c672f298b8bc6604082015246606082015230608082015260a081209250505090565b6000610746836107418461073c90612ef5565b611624565b61118f565b905092915050565b60608161075a90612f08565b60006107b17f6bdaeb2d29561f159c7ef98b16b27015fb2aeb87209c7ee656226d912f59927d8360000151604051602001610796929190612f1b565b6040516020818303038152906040528051906020012061163a565b905060006107c3828460200151611654565b90503373ffffffffffffffffffffffffffffffffffffffff168173ffffffffffffffffffffffffffffffffffffffff161461082a576040517f3093a27700000000000000000000000000000000000000000000000000000000815260040160405180910390fd5b6108b4600460003373ffffffffffffffffffffffffffffffffffffffff1673ffffffffffffffffffffffffffffffffffffffff16815260200190815260200160002060008873ffffffffffffffffffffffffffffffffffffffff1673ffffffffffffffffffffffffffffffffffffffff168152602001908152602001600020548660000135611680565b935050505092915050565b60608183600061091a7f6bdaeb2d29561f159c7ef98b16b27015fb2aeb87209c7ee656226d912f59927d84600001516040516020016108ff929190612f1b565b6040516020818303038152906040528051906020012061163a565b9050600061092c828560200151611654565b90508273ffffffffffffffffffffffffffffffffffffffff168173ffffffffffffffffffffffffffffffffffffffff1614610993576040517f51c65eae00000000000000000000000000000000000000000000000000000000815260040160405180910390fd5b6109e0600360008973ffffffffffffffffffffffffffffffffffffffff1673ffffffffffffffffffffffffffffffffffffffff168152602001908152602001600020548760000151611680565b94505050505092915050565b6000610a45610a008363ffffffff166116b6565b600360003373ffffffffffffffffffffffffffffffffffffffff1673ffffffffffffffffffffffffffffffffffffffff168152602001908152602001600020546116ca565b9050610a90600360003373ffffffffffffffffffffffffffffffffffffffff1673ffffffffffffffffffffffffffffffffffffffff1681526020019081526020016000205482611743565b600360003373ffffffffffffffffffffffffffffffffffffffff1673ffffffffffffffffffffffffffffffffffffffff16815260200190815260200160002081905550610adf60025482611743565b600281905550610afd33610af283611757565b63ffffffff1661181a565b5050565b60006387a211a2600c52816000526020600c20549050919050565b60006338377508600c52816000526020600c20549050919050565b600060608060008060006060610b4b6118b1565b610b536118ec565b46306000801b600067ffffffffffffffff811115610b7457610b736127b1565b5b604051908082528060200260200182016040528015610ba25781602001602082028036833780820191505090505b507f0f00000000000000000000000000000000000000000000000000000000000000959493929190965096509650965096509650965090919293949596565b6000610bff8484610bfa85610bf590612ef5565b611624565b610e39565b90509392505050565b606060068054610c1790612e6c565b80601f0160208091040260200160405190810160405280929190818152602001828054610c4390612e6c565b8015610c905780601f10610c6557610100808354040283529160200191610c90565b820191906000526020600020905b815481529060010190602001808311610c7357829003601f168201915b5050505050905090565b8063ffffffff16610caa33610b01565b1015610ce2576040517ffda7bbda00000000000000000000000000000000000000000000000000000000815260040160405180910390fd5b610cf2338263ffffffff16611927565b6000610d038263ffffffff166116b6565b9050610d4e600360003373ffffffffffffffffffffffffffffffffffffffff1673ffffffffffffffffffffffffffffffffffffffff16815260200190815260200160002054826119be565b600360003373ffffffffffffffffffffffffffffffffffffffff1673ffffffffffffffffffffffffffffffffffffffff16815260200190815260200160002081905550610d9d600254826119be565b6002819055505050565b6000610db4338484611615565b6387a211a2600c52336000526020600c20805480841115610ddd5763f4d678b86000526004601cfd5b8381038255846000526020600c2084815401815584602052600c5160601c337fddf252ad1be2c89b69c2b068fc378daa952ba7f163c4a11628f55a4df523b3ef602080a3505050610e2f33848461161a565b6001905092915050565b600080610f0a83610f05600360008973ffffffffffffffffffffffffffffffffffffffff1673ffffffffffffffffffffffffffffffffffffffff16815260200190815260200160002054600460008a73ffffffffffffffffffffffffffffffffffffffff1673ffffffffffffffffffffffffffffffffffffffff16815260200190815260200160002060003373ffffffffffffffffffffffffffffffffffffffff1673ffffffffffffffffffffffffffffffffffffffff168152602001908152602001600020546116ca565b6116ca565b9050610f92600460008773ffffffffffffffffffffffffffffffffffffffff1673ffffffffffffffffffffffffffffffffffffffff16815260200190815260200160002060003373ffffffffffffffffffffffffffffffffffffffff1673ffffffffffffffffffffffffffffffffffffffff1681526020019081526020016000205482611743565b600460008773ffffffffffffffffffffffffffffffffffffffff1673ffffffffffffffffffffffffffffffffffffffff16815260200190815260200160002060003373ffffffffffffffffffffffffffffffffffffffff1673ffffffffffffffffffffffffffffffffffffffff1681526020019081526020016000208190555061105b600360008773ffffffffffffffffffffffffffffffffffffffff1673ffffffffffffffffffffffffffffffffffffffff1681526020019081526020016000205482611743565b600360008773ffffffffffffffffffffffffffffffffffffffff1673ffffffffffffffffffffffffffffffffffffffff168152602001908152602001600020819055506110e7600360008673ffffffffffffffffffffffffffffffffffffffff1673ffffffffffffffffffffffffffffffffffffffff16815260200190815260200160002054826119be565b600360008673ffffffffffffffffffffffffffffffffffffffff1673ffffffffffffffffffffffffffffffffffffffff168152602001908152602001600020819055508373ffffffffffffffffffffffffffffffffffffffff168573ffffffffffffffffffffffffffffffffffffffff167f7612539b010127d1a2f810eeff1131de23a28ecfa8228f92a9606a879300fbb560405160405180910390a3809150509392505050565b6000806111db83600360003373ffffffffffffffffffffffffffffffffffffffff1673ffffffffffffffffffffffffffffffffffffffff168152602001908152602001600020546116ca565b9050611226600360003373ffffffffffffffffffffffffffffffffffffffff1673ffffffffffffffffffffffffffffffffffffffff1681526020019081526020016000205482611743565b600360003373ffffffffffffffffffffffffffffffffffffffff1673ffffffffffffffffffffffffffffffffffffffff168152602001908152602001600020819055506112b2600360008673ffffffffffffffffffffffffffffffffffffffff1673ffffffffffffffffffffffffffffffffffffffff16815260200190815260200160002054826119be565b600360008673ffffffffffffffffffffffffffffffffffffffff1673ffffffffffffffffffffffffffffffffffffffff168152602001908152602001600020819055508373ffffffffffffffffffffffffffffffffffffffff163373ffffffffffffffffffffffffffffffffffffffff167f7612539b010127d1a2f810eeff1131de23a28ecfa8228f92a9606a879300fbb560405160405180910390a38091505092915050565b600061136361161f565b90506000801b8103611381576113776104c5565b8051906020012090505b8442111561139757631a15a3cc6000526004601cfd5b6040518860601b60601c98508760601b60601c975065383775081901600e52886000526020600c2080547f8b73c3c69bb8fe3d512ecc4cf759cc79239f7b179b0ffacaa9a75d522b39400f83528360208401527fc89efdaa54c0f20c7adf612882df0950f5a951637e0307cdcb4c672f298b8bc6604084015246606084015230608084015260a08320602e527f6e71edae12b1b97f4d1f60370fef10105fa2faae0126114a169c64845d6126c983528a60208401528960408401528860608401528060808401528760a084015260c08320604e526042602c206000528660ff1660205285604052846060526020806080600060015afa8b3d51146114a35763ddafbaef6000526004601cfd5b80820183558a637f5e9f2060a01b17604052896034602c20558a8c7f8c5be1e5ebec7d5bd14f71427d1e84f3dd0314c0f7b2291e5b200ac8c7c3b925602060608801a3836040526000606052505050505050505050505050565b60006115118261150c90612ef5565b611624565b600460003373ffffffffffffffffffffffffffffffffffffffff1673ffffffffffffffffffffffffffffffffffffffff16815260200190815260200160002060008573ffffffffffffffffffffffffffffffffffffffff1673ffffffffffffffffffffffffffffffffffffffff168152602001908152602001600020819055508273ffffffffffffffffffffffffffffffffffffffff163373ffffffffffffffffffffffffffffffffffffffff167f46f92913a39019d68e630493d23e0cf39761bf253f7b3f8eae384b33e393ed4e60405160405180910390a36001905092915050565b600081602052637f5e9f20600c52826000526034600c2054905092915050565b505050565b505050565b600090565b600061163382600001516119d2565b9050919050565b600061164d6116476119e6565b83611a9d565b9050919050565b6000806000806116648686611ade565b9250925092506116748282611b3a565b82935050505092915050565b606061168b83611c9e565b61169c5761169960006116b6565b92505b60008390506116ad60028285611cab565b91505092915050565b60006116c3826002611d61565b9050919050565b60006116d583611c9e565b6116e6576116e360006116b6565b92505b6116ef82611c9e565b611700576116fd60006116b6565b91505b60008390506000839050600061173560028484608073ffffffffffffffffffffffffffffffffffffffff16635211c679611e03565b905080935050505092915050565b600061174f8383611e97565b905092915050565b600061176282611c9e565b6117735761177060006116b6565b91505b6000829050600061178382611f10565b90506000608073ffffffffffffffffffffffffffffffffffffffff166373cc01546002846040518363ffffffff1660e01b81526004016117c4929190612f99565b602060405180830381865afa1580156117e1573d6000803e3d6000fd5b505050506040513d601f19601f820116820180604052508101906118059190612fde565b905061181081611f6d565b9350505050919050565b61182660008383611615565b6805345cdf77eb68f44c548181018181101561184a5763e5cfe9576000526004601cfd5b806805345cdf77eb68f44c556387a211a2600c52836000526020600c2083815401815583602052600c5160601c60007fddf252ad1be2c89b69c2b068fc378daa952ba7f163c4a11628f55a4df523b3ef602080a35050506118ad6000838361161a565b5050565b60606118e760007f0000000000000000000000000000000000000000000000000000000000000000611f7790919063ffffffff16565b905090565b606061192260017f0000000000000000000000000000000000000000000000000000000000000000611f7790919063ffffffff16565b905090565b61193382600083611615565b6387a211a2600c52816000526020600c2080548083111561195c5763f4d678b86000526004601cfd5b8281038255826805345cdf77eb68f44c54036805345cdf77eb68f44c558260005260008460601b60601c7fddf252ad1be2c89b69c2b068fc378daa952ba7f163c4a11628f55a4df523b3ef60206000a350506119ba8260008361161a565b5050565b60006119ca8383612027565b905092915050565b60006119df82600261209f565b9050919050565b60007f000000000000000000000000000000000000000000000000000000000000000073ffffffffffffffffffffffffffffffffffffffff163073ffffffffffffffffffffffffffffffffffffffff16148015611a6257507f000000000000000000000000000000000000000000000000000000000000000046145b15611a8f577f00000000000000000000000000000000000000000000000000000000000000009050611a9a565b611a97612139565b90505b90565b60006040517f190100000000000000000000000000000000000000000000000000000000000081528360028201528260228201526042812091505092915050565b60008060006041845103611b235760008060006020870151925060408701519150606087015160001a9050611b15888285856121cf565b955095509550505050611b33565b60006002855160001b9250925092505b9250925092565b60006003811115611b4e57611b4d61300b565b5b826003811115611b6157611b6061300b565b5b0315611c9a5760016003811115611b7b57611b7a61300b565b5b826003811115611b8e57611b8d61300b565b5b03611bc5576040517ff645eedf00000000000000000000000000000000000000000000000000000000815260040160405180910390fd5b60026003811115611bd957611bd861300b565b5b826003811115611bec57611beb61300b565b5b03611c31578060001c6040517ffce698f7000000000000000000000000000000000000000000000000000000008152600401611c289190612582565b60405180910390fd5b600380811115611c4457611c4361300b565b5b826003811115611c5757611c5661300b565b5b03611c9957806040517fd78bce0c000000000000000000000000000000000000000000000000000000008152600401611c909190612640565b60405180910390fd5b5b5050565b6000808214159050919050565b6060608073ffffffffffffffffffffffffffffffffffffffff1663a1848ff385611cd486611f10565b85604051602001611ce5919061305b565b6040516020818303038152906040526040518463ffffffff1660e01b8152600401611d1293929190613076565b600060405180830381865afa158015611d2f573d6000803e3d6000fd5b505050506040513d6000823e3d601f19601f82011682018060405250810190611d58919061315c565b90509392505050565b60006060608073ffffffffffffffffffffffffffffffffffffffff166319e1c5c4611d8b86611f10565b856040518363ffffffff1660e01b8152600401611da99291906131a5565b600060405180830381865afa158015611dc6573d6000803e3d6000fd5b505050506040513d6000823e3d601f19601f82011682018060405250810190611def9190613245565b9050611dfa816122c3565b91505092915050565b60006060838388611e1389611f10565b611e1c89611f10565b6040518463ffffffff1660e01b8152600401611e3a93929190613076565b600060405180830381865afa158015611e57573d6000803e3d6000fd5b505050506040513d6000823e3d601f19601f82011682018060405250810190611e809190613245565b9050611e8b816122d1565b91505095945050505050565b6000611ea283611c9e565b611eb357611eb060006116b6565b92505b611ebc82611c9e565b611ecd57611eca60006116b6565b91505b600083905060008390506000611f0260028484608073ffffffffffffffffffffffffffffffffffffffff1663cc2cbeff611e03565b905080935050505092915050565b6060602067ffffffffffffffff811115611f2d57611f2c6127b1565b5b6040519080825280601f01601f191660200182016040528015611f5f5781602001600182028036833780820191505090505b509050816020820152919050565b6000819050919050565b606060ff60001b8314611f9457611f8d836122df565b9050612021565b818054611fa090612e6c565b80601f0160208091040260200160405190810160405280929190818152602001828054611fcc90612e6c565b80156120195780601f10611fee57610100808354040283529160200191612019565b820191906000526020600020905b815481529060010190602001808311611ffc57829003601f168201915b505050505090505b92915050565b600061203283611c9e565b6120435761204060006116b6565b92505b61204c82611c9e565b61205d5761205a60006116b6565b91505b60008390506000839050600061209160028484608073ffffffffffffffffffffffffffffffffffffffff16622df619611e03565b905080935050505092915050565b60006060608073ffffffffffffffffffffffffffffffffffffffff16635fa55ca784866040518363ffffffff1660e01b81526004016120df929190612f99565b600060405180830381865afa1580156120fc573d6000803e3d6000fd5b505050506040513d6000823e3d601f19601f820116820180604052508101906121259190613245565b9050612130816122c3565b91505092915050565b60007f8b73c3c69bb8fe3d512ecc4cf759cc79239f7b179b0ffacaa9a75d522b39400f7f00000000000000000000000000000000000000000000000000000000000000007f000000000000000000000000000000000000000000000000000000000000000046306040516020016121b495949392919061328e565b60405160208183030381529060405280519060200120905090565b60008060007f7fffffffffffffffffffffffffffffff5d576e7357a4501ddfe92f46681b20a08460001c111561220f5760006003859250925092506122b9565b60006001888888886040516000815260200160405260405161223494939291906132e1565b6020604051602081039080840390855afa158015612256573d6000803e3d6000fd5b505050602060405103519050600073ffffffffffffffffffffffffffffffffffffffff168173ffffffffffffffffffffffffffffffffffffffff16036122aa57600060016000801b935093509350506122b9565b8060008060001b935093509350505b9450945094915050565b600060208201519050919050565b600060208201519050919050565b606060006122ec83612353565b90506000602067ffffffffffffffff81111561230b5761230a6127b1565b5b6040519080825280601f01601f19166020018201604052801561233d5781602001600182028036833780820191505090505b5090508181528360208201528092505050919050565b60008060ff8360001c169050601f81111561239a576040517fb3512b0c00000000000000000000000000000000000000000000000000000000815260040160405180910390fd5b80915050919050565b600081519050919050565b600082825260208201905092915050565b60005b838110156123dd5780820151818401526020810190506123c2565b60008484015250505050565b6000601f19601f8301169050919050565b6000612405826123a3565b61240f81856123ae565b935061241f8185602086016123bf565b612428816123e9565b840191505092915050565b6000602082019050818103600083015261244d81846123fa565b905092915050565b6000604051905090565b600080fd5b600080fd5b600073ffffffffffffffffffffffffffffffffffffffff82169050919050565b600061249482612469565b9050919050565b6124a481612489565b81146124af57600080fd5b50565b6000813590506124c18161249b565b92915050565b6000819050919050565b6124da816124c7565b81146124e557600080fd5b50565b6000813590506124f7816124d1565b92915050565b600080604083850312156125145761251361245f565b5b6000612522858286016124b2565b9250506020612533858286016124e8565b9150509250929050565b60008115159050919050565b6125528161253d565b82525050565b600060208201905061256d6000830184612549565b92915050565b61257c816124c7565b82525050565b60006020820190506125976000830184612573565b92915050565b6000806000606084860312156125b6576125b561245f565b5b60006125c4868287016124b2565b93505060206125d5868287016124b2565b92505060406125e6868287016124e8565b9150509250925092565b600060ff82169050919050565b612606816125f0565b82525050565b600060208201905061262160008301846125fd565b92915050565b6000819050919050565b61263a81612627565b82525050565b60006020820190506126556000830184612631565b92915050565b600080fd5b6000602082840312156126765761267561265b565b5b81905092915050565b600080604083850312156126965761269561245f565b5b60006126a4858286016124b2565b925050602083013567ffffffffffffffff8111156126c5576126c4612464565b5b6126d185828601612660565b9150509250929050565b6000819050919050565b60006127006126fb6126f6846124c7565b6126db565b6124c7565b9050919050565b612710816126e5565b82525050565b600060208201905061272b6000830184612707565b92915050565b6000604082840312156127475761274661265b565b5b81905092915050565b600080604083850312156127675761276661245f565b5b6000612775858286016124b2565b925050602083013567ffffffffffffffff81111561279657612795612464565b5b6127a285828601612731565b9150509250929050565b600080fd5b7f4e487b7100000000000000000000000000000000000000000000000000000000600052604160045260246000fd5b6127e9826123e9565b810181811067ffffffffffffffff82111715612808576128076127b1565b5b80604052505050565b600061281b612455565b905061282782826127e0565b919050565b600080fd5b61283a81612627565b811461284557600080fd5b50565b60008135905061285781612831565b92915050565b600080fd5b600080fd5b600067ffffffffffffffff821115612882576128816127b1565b5b61288b826123e9565b9050602081019050919050565b82818337600083830152505050565b60006128ba6128b584612867565b612811565b9050828152602081018484840111156128d6576128d5612862565b5b6128e1848285612898565b509392505050565b600082601f8301126128fe576128fd61285d565b5b813561290e8482602086016128a7565b91505092915050565b60006040828403121561292d5761292c6127ac565b5b6129376040612811565b9050600061294784828501612848565b600083015250602082013567ffffffffffffffff81111561296b5761296a61282c565b5b612977848285016128e9565b60208301525092915050565b6000806040838503121561299a5761299961245f565b5b60006129a8858286016124b2565b925050602083013567ffffffffffffffff8111156129c9576129c8612464565b5b6129d585828601612917565b9150509250929050565b600063ffffffff82169050919050565b6129f8816129df565b8114612a0357600080fd5b50565b600081359050612a15816129ef565b92915050565b600060208284031215612a3157612a3061245f565b5b6000612a3f84828501612a06565b91505092915050565b600060208284031215612a5e57612a5d61245f565b5b6000612a6c848285016124b2565b91505092915050565b60007fff0000000000000000000000000000000000000000000000000000000000000082169050919050565b612aaa81612a75565b82525050565b612ab981612489565b82525050565b600081519050919050565b600082825260208201905092915050565b6000819050602082019050919050565b612af4816124c7565b82525050565b6000612b068383612aeb565b60208301905092915050565b6000602082019050919050565b6000612b2a82612abf565b612b348185612aca565b9350612b3f83612adb565b8060005b83811015612b70578151612b578882612afa565b9750612b6283612b12565b925050600181019050612b43565b5085935050505092915050565b600060e082019050612b92600083018a612aa1565b8181036020830152612ba481896123fa565b90508181036040830152612bb881886123fa565b9050612bc76060830187612573565b612bd46080830186612ab0565b612be160a0830185612631565b81810360c0830152612bf38184612b1f565b905098975050505050505050565b600080600060608486031215612c1a57612c1961245f565b5b6000612c28868287016124b2565b9350506020612c39868287016124b2565b925050604084013567ffffffffffffffff811115612c5a57612c59612464565b5b612c6686828701612660565b9150509250925092565b612c79816124c7565b8114612c8457600080fd5b50565b600081359050612c9681612c70565b92915050565b600080600060608486031215612cb557612cb461245f565b5b6000612cc3868287016124b2565b9350506020612cd4868287016124b2565b9250506040612ce586828701612c87565b9150509250925092565b60008060408385031215612d0657612d0561245f565b5b6000612d14858286016124b2565b9250506020612d2585828601612c87565b9150509250929050565b612d38816125f0565b8114612d4357600080fd5b50565b600081359050612d5581612d2f565b92915050565b600080600080600080600060e0888a031215612d7a57612d7961245f565b5b6000612d888a828b016124b2565b9750506020612d998a828b016124b2565b9650506040612daa8a828b016124e8565b9550506060612dbb8a828b016124e8565b9450506080612dcc8a828b01612d46565b93505060a0612ddd8a828b01612848565b92505060c0612dee8a828b01612848565b91505092959891949750929550565b60008060408385031215612e1457612e1361245f565b5b6000612e22858286016124b2565b9250506020612e33858286016124b2565b9150509250929050565b7f4e487b7100000000000000000000000000000000000000000000000000000000600052602260045260246000fd5b60006002820490506001821680612e8457607f821691505b602082108103612e9757612e96612e3d565b5b50919050565b600060208284031215612eb357612eb26127ac565b5b612ebd6020612811565b9050600082013567ffffffffffffffff811115612edd57612edc61282c565b5b612ee9848285016128e9565b60008301525092915050565b6000612f013683612e9d565b9050919050565b6000612f143683612917565b9050919050565b6000604082019050612f306000830185612631565b612f3d6020830184612631565b9392505050565b600081519050919050565b600082825260208201905092915050565b6000612f6b82612f44565b612f758185612f4f565b9350612f858185602086016123bf565b612f8e816123e9565b840191505092915050565b6000604082019050612fae60008301856125fd565b8181036020830152612fc08184612f60565b90509392505050565b600081519050612fd8816124d1565b92915050565b600060208284031215612ff457612ff361245f565b5b600061300284828501612fc9565b91505092915050565b7f4e487b7100000000000000000000000000000000000000000000000000000000600052602160045260246000fd5b6000819050919050565b61305561305082612627565b61303a565b82525050565b60006130678284613044565b60208201915081905092915050565b600060608201905061308b60008301866125fd565b818103602083015261309d8185612f60565b905081810360408301526130b18184612f60565b9050949350505050565b600067ffffffffffffffff8211156130d6576130d56127b1565b5b6130df826123e9565b9050602081019050919050565b60006130ff6130fa846130bb565b612811565b90508281526020810184848401111561311b5761311a612862565b5b6131268482856123bf565b509392505050565b600082601f8301126131435761314261285d565b5b81516131538482602086016130ec565b91505092915050565b6000602082840312156131725761317161245f565b5b600082015167ffffffffffffffff8111156131905761318f612464565b5b61319c8482850161312e565b91505092915050565b600060408201905081810360008301526131bf8185612f60565b90506131ce60208301846125fd565b9392505050565b60006131e86131e384612867565b612811565b90508281526020810184848401111561320457613203612862565b5b61320f8482856123bf565b509392505050565b600082601f83011261322c5761322b61285d565b5b815161323c8482602086016131d5565b91505092915050565b60006020828403121561325b5761325a61245f565b5b600082015167ffffffffffffffff81111561327957613278612464565b5b61328584828501613217565b91505092915050565b600060a0820190506132a36000830188612631565b6132b06020830187612631565b6132bd6040830186612631565b6132ca6060830185612573565b6132d76080830184612ab0565b9695505050505050565b60006080820190506132f66000830187612631565b61330360208301866125fd565b6133106040830185612631565b61331d6060830184612631565b9594505050505056fea264697066735822122054e0a0f4efb5c65f190b631d1807022c518b43b07919c197c9a86ff1e683e47c64736f6c63430008180033",
  "devdoc": {
    "errors": {
      "AllowanceOverflow()": [
        {
          "details": "The allowance has overflowed."
        }
      ],
      "AllowanceUnderflow()": [
        {
          "details": "The allowance has underflowed."
        }
      ],
      "ECDSAInvalidSignature()": [
        {
          "details": "The signature derives the `address(0)`."
        }
      ],
      "ECDSAInvalidSignatureLength(uint256)": [
        {
          "details": "The signature has an invalid length."
        }
      ],
      "ECDSAInvalidSignatureS(bytes32)": [
        {
          "details": "The signature has an S value that is in the upper half order."
        }
      ],
      "InsufficientAllowance()": [
        {
          "details": "Insufficient allowance."
        }
      ],
      "InsufficientBalance()": [
        {
          "details": "Insufficient balance."
        }
      ],
      "InvalidPermit()": [
        {
          "details": "The permit is invalid."
        }
      ],
      "PermitExpired()": [
        {
          "details": "The permit has expired."
        }
      ],
      "TotalSupplyOverflow()": [
        {
          "details": "The total supply has overflowed."
        }
      ]
    },
    "events": {
      "Approval(address,address,uint256)": {
        "details": "Emitted when `amount` tokens is approved by `owner` to be used by `spender`."
      },
      "ApprovalEncrypted(address,address)": {
        "details": "Emitted when the allowance of a `spender` for an `owner` is set by a call to {approveEncrypted}. `value` is the new allowance."
      },
      "EIP712DomainChanged()": {
        "details": "MAY be emitted to signal that the domain could have changed."
      },
      "Transfer(address,address,uint256)": {
        "details": "Emitted when `amount` tokens is transferred from `from` to `to`."
      },
      "TransferEncrypted(address,address)": {
        "details": "Emitted when `value` tokens are moved from one account (`from`) to another (`to`). Note that `value` may be zero."
      }
    },
    "kind": "dev",
    "methods": {
      "DOMAIN_SEPARATOR()": {
        "details": "Returns the EIP-712 domain separator for the EIP-2612 permit."
      },
      "allowance(address,address)": {
        "details": "Returns the amount of tokens that `spender` can spend on behalf of `owner`."
      },
      "allowanceEncrypted(address,(bytes32,bytes))": {
        "details": "Returns the remaining number of tokens that `spender` will be allowed to spend on behalf of `owner` through {transferFrom}. This is zero by default. This value changes when {approve} or {transferFrom} are called."
      },
      "approve(address,uint256)": {
        "details": "Sets `amount` as the allowance of `spender` over the caller's tokens. Emits a {Approval} event."
      },
      "approveEncrypted(address,(bytes))": {
        "details": "Sets a `value` amount of tokens as the allowance of `spender` over the caller's tokens. Returns a boolean value indicating whether the operation succeeded. IMPORTANT: Beware that changing an allowance with this method brings the risk that someone may use both the old and the new allowance by unfortunate transaction ordering. One possible solution to mitigate this race condition is to first reduce the spender's allowance to 0 and set the desired value afterwards: https://github.com/ethereum/EIPs/issues/20#issuecomment-263524729 Emits an {ApprovalEncrypted} event."
      },
      "balanceOf(address)": {
        "details": "Returns the amount of tokens owned by `owner`."
      },
      "balanceOfEncrypted(address,(bytes32,bytes))": {
        "details": "Returns the value of tokens owned by `account`, sealed and encrypted for the caller."
      },
      "decimals()": {
        "details": "Returns the decimals places of the token."
      },
      "eip712Domain()": {
        "details": "See {IERC-5267}."
      },
      "name()": {
        "details": "Returns the name of the token."
      },
      "nonces(address)": {
        "details": "Returns the current nonce for `owner`. This value is used to compute the signature for EIP-2612 permit."
      },
      "permit(address,address,uint256,uint256,uint8,bytes32,bytes32)": {
        "details": "Sets `value` as the allowance of `spender` over the tokens of `owner`, authorized by a signed approval by `owner`. Emits a {Approval} event."
      },
      "symbol()": {
        "details": "Returns the symbol of the token."
      },
      "totalSupply()": {
        "details": "Returns the amount of tokens in existence."
      },
      "transfer(address,uint256)": {
        "details": "Transfer `amount` tokens from the caller to `to`. Requirements: - `from` must at least have `amount`. Emits a {Transfer} event."
      },
      "transferFrom(address,address,uint256)": {
        "details": "Transfers `amount` tokens from `from` to `to`. Note: Does not update the allowance if it is the maximum uint256 value. Requirements: - `from` must at least have `amount`. - The caller must have at least `amount` of allowance to transfer the tokens of `from`. Emits a {Transfer} event."
      },
      "transferFromEncrypted(address,address,(bytes))": {
        "details": "Moves a `value` amount of tokens from `from` to `to` using the allowance mechanism. `value` is then deducted from the caller's allowance. Returns a boolean value indicating whether the operation succeeded. Emits a {TransferEncrypted} event."
      }
    },
    "version": 1
  },
  "userdoc": {
    "errors": {
      "SignerNotMessageSender()": [
        {
          "notice": "Emitted when the signer is not the message sender"
        }
      ],
      "SignerNotOwner()": [
        {
          "notice": "Emitted when the signer is not the specified owner"
        }
      ]
    },
    "kind": "user",
    "methods": {},
    "version": 1
  },
  "storageLayout": {
    "storage": [
      {
        "astId": 16568,
        "contract": "contracts/tokens/FakeFGZ.sol:FakeFGZ",
        "label": "_nameFallback",
        "offset": 0,
        "slot": "0",
        "type": "t_string_storage"
      },
      {
        "astId": 16570,
        "contract": "contracts/tokens/FakeFGZ.sol:FakeFGZ",
        "label": "_versionFallback",
        "offset": 0,
        "slot": "1",
        "type": "t_string_storage"
      },
      {
        "astId": 18126,
        "contract": "contracts/tokens/FakeFGZ.sol:FakeFGZ",
        "label": "_encTotalSupply",
        "offset": 0,
        "slot": "2",
        "type": "t_userDefinedValueType(euint32)12"
      },
      {
        "astId": 18131,
        "contract": "contracts/tokens/FakeFGZ.sol:FakeFGZ",
        "label": "_encBalanceOf",
        "offset": 0,
        "slot": "3",
        "type": "t_mapping(t_address,t_userDefinedValueType(euint32)12)"
      },
      {
        "astId": 18138,
        "contract": "contracts/tokens/FakeFGZ.sol:FakeFGZ",
        "label": "_encAllowance",
        "offset": 0,
        "slot": "4",
        "type": "t_mapping(t_address,t_mapping(t_address,t_userDefinedValueType(euint32)12))"
      },
      {
        "astId": 18140,
        "contract": "contracts/tokens/FakeFGZ.sol:FakeFGZ",
        "label": "_name",
        "offset": 0,
        "slot": "5",
        "type": "t_string_storage"
      },
      {
        "astId": 18142,
        "contract": "contracts/tokens/FakeFGZ.sol:FakeFGZ",
        "label": "_symbol",
        "offset": 0,
        "slot": "6",
        "type": "t_string_storage"
      }
    ],
    "types": {
      "t_address": {
        "encoding": "inplace",
        "label": "address",
        "numberOfBytes": "20"
      },
      "t_mapping(t_address,t_mapping(t_address,t_userDefinedValueType(euint32)12))": {
        "encoding": "mapping",
        "key": "t_address",
        "label": "mapping(address => mapping(address => euint32))",
        "numberOfBytes": "32",
        "value": "t_mapping(t_address,t_userDefinedValueType(euint32)12)"
      },
      "t_mapping(t_address,t_userDefinedValueType(euint32)12)": {
        "encoding": "mapping",
        "key": "t_address",
        "label": "mapping(address => euint32)",
        "numberOfBytes": "32",
        "value": "t_userDefinedValueType(euint32)12"
      },
      "t_string_storage": {
        "encoding": "bytes",
        "label": "string",
        "numberOfBytes": "32"
      },
      "t_userDefinedValueType(euint32)12": {
        "encoding": "inplace",
        "label": "euint32",
        "numberOfBytes": "32"
      }
    }
  }
}