{
  "address": "0x5208a10C53BAadc187D4750d3ac2465B583Dd299",
  "abi": [
    {
      "inputs": [
        {
          "components": [
            {
              "internalType": "bytes",
              "name": "data",
              "type": "bytes"
            }
          ],
          "internalType": "struct inEuint32",
          "name": "_initialSupply",
          "type": "tuple"
        }
      ],
      "stateMutability": "nonpayable",
      "type": "constructor"
    },
    {
      "inputs": [],
      "name": "AllowanceOverflow",
      "type": "error"
    },
    {
      "inputs": [],
      "name": "AllowanceUnderflow",
      "type": "error"
    },
    {
      "inputs": [],
      "name": "ECDSAInvalidSignature",
      "type": "error"
    },
    {
      "inputs": [
        {
          "internalType": "uint256",
          "name": "length",
          "type": "uint256"
        }
      ],
      "name": "ECDSAInvalidSignatureLength",
      "type": "error"
    },
    {
      "inputs": [
        {
          "internalType": "bytes32",
          "name": "s",
          "type": "bytes32"
        }
      ],
      "name": "ECDSAInvalidSignatureS",
      "type": "error"
    },
    {
      "inputs": [],
      "name": "ErrorInsufficientFunds",
      "type": "error"
    },
    {
      "inputs": [],
      "name": "InsufficientAllowance",
      "type": "error"
    },
    {
      "inputs": [],
      "name": "InsufficientBalance",
      "type": "error"
    },
    {
      "inputs": [],
      "name": "InvalidPermit",
      "type": "error"
    },
    {
      "inputs": [],
      "name": "InvalidShortString",
      "type": "error"
    },
    {
      "inputs": [],
      "name": "PermitExpired",
      "type": "error"
    },
    {
      "inputs": [],
      "name": "SignerNotMessageSender",
      "type": "error"
    },
    {
      "inputs": [],
      "name": "SignerNotOwner",
      "type": "error"
    },
    {
      "inputs": [
        {
          "internalType": "string",
          "name": "str",
          "type": "string"
        }
      ],
      "name": "StringTooLong",
      "type": "error"
    },
    {
      "inputs": [],
      "name": "TotalSupplyOverflow",
      "type": "error"
    },
    {
      "anonymous": false,
      "inputs": [
        {
          "indexed": true,
          "internalType": "address",
          "name": "owner",
          "type": "address"
        },
        {
          "indexed": true,
          "internalType": "address",
          "name": "spender",
          "type": "address"
        },
        {
          "indexed": false,
          "internalType": "uint256",
          "name": "amount",
          "type": "uint256"
        }
      ],
      "name": "Approval",
      "type": "event"
    },
    {
      "anonymous": false,
      "inputs": [
        {
          "indexed": true,
          "internalType": "address",
          "name": "owner",
          "type": "address"
        },
        {
          "indexed": true,
          "internalType": "address",
          "name": "spender",
          "type": "address"
        }
      ],
      "name": "ApprovalEncrypted",
      "type": "event"
    },
    {
      "anonymous": false,
      "inputs": [],
      "name": "EIP712DomainChanged",
      "type": "event"
    },
    {
      "anonymous": false,
      "inputs": [
        {
          "indexed": true,
          "internalType": "address",
          "name": "from",
          "type": "address"
        },
        {
          "indexed": true,
          "internalType": "address",
          "name": "to",
          "type": "address"
        },
        {
          "indexed": false,
          "internalType": "uint256",
          "name": "amount",
          "type": "uint256"
        }
      ],
      "name": "Transfer",
      "type": "event"
    },
    {
      "anonymous": false,
      "inputs": [
        {
          "indexed": true,
          "internalType": "address",
          "name": "from",
          "type": "address"
        },
        {
          "indexed": true,
          "internalType": "address",
          "name": "to",
          "type": "address"
        }
      ],
      "name": "TransferEncrypted",
      "type": "event"
    },
    {
      "inputs": [],
      "name": "DOMAIN_SEPARATOR",
      "outputs": [
        {
          "internalType": "bytes32",
          "name": "result",
          "type": "bytes32"
        }
      ],
      "stateMutability": "view",
      "type": "function"
    },
    {
      "inputs": [
        {
          "internalType": "address",
          "name": "owner",
          "type": "address"
        },
        {
          "internalType": "address",
          "name": "spender",
          "type": "address"
        }
      ],
      "name": "allowance",
      "outputs": [
        {
          "internalType": "uint256",
          "name": "result",
          "type": "uint256"
        }
      ],
      "stateMutability": "view",
      "type": "function"
    },
    {
      "inputs": [
        {
          "internalType": "address",
          "name": "spender",
          "type": "address"
        },
        {
          "components": [
            {
              "internalType": "bytes32",
              "name": "publicKey",
              "type": "bytes32"
            },
            {
              "internalType": "bytes",
              "name": "signature",
              "type": "bytes"
            }
          ],
          "internalType": "struct Permission",
          "name": "permission",
          "type": "tuple"
        }
      ],
      "name": "allowanceEncrypted",
      "outputs": [
        {
          "internalType": "string",
          "name": "",
          "type": "string"
        }
      ],
      "stateMutability": "view",
      "type": "function"
    },
    {
      "inputs": [
        {
          "internalType": "address",
          "name": "spender",
          "type": "address"
        },
        {
          "internalType": "uint256",
          "name": "amount",
          "type": "uint256"
        }
      ],
      "name": "approve",
      "outputs": [
        {
          "internalType": "bool",
          "name": "",
          "type": "bool"
        }
      ],
      "stateMutability": "nonpayable",
      "type": "function"
    },
    {
      "inputs": [
        {
          "internalType": "address",
          "name": "spender",
          "type": "address"
        },
        {
          "components": [
            {
              "internalType": "bytes",
              "name": "data",
              "type": "bytes"
            }
          ],
          "internalType": "struct inEuint32",
          "name": "value",
          "type": "tuple"
        }
      ],
      "name": "approveEncrypted",
      "outputs": [
        {
          "internalType": "bool",
          "name": "",
          "type": "bool"
        }
      ],
      "stateMutability": "nonpayable",
      "type": "function"
    },
    {
      "inputs": [
        {
          "internalType": "address",
          "name": "owner",
          "type": "address"
        }
      ],
      "name": "balanceOf",
      "outputs": [
        {
          "internalType": "uint256",
          "name": "result",
          "type": "uint256"
        }
      ],
      "stateMutability": "view",
      "type": "function"
    },
    {
      "inputs": [
        {
          "internalType": "address",
          "name": "account",
          "type": "address"
        },
        {
          "components": [
            {
              "internalType": "bytes32",
              "name": "publicKey",
              "type": "bytes32"
            },
            {
              "internalType": "bytes",
              "name": "signature",
              "type": "bytes"
            }
          ],
          "internalType": "struct Permission",
          "name": "auth",
          "type": "tuple"
        }
      ],
      "name": "balanceOfEncrypted",
      "outputs": [
        {
          "internalType": "string",
          "name": "",
          "type": "string"
        }
      ],
      "stateMutability": "view",
      "type": "function"
    },
    {
      "inputs": [],
      "name": "decimals",
      "outputs": [
        {
          "internalType": "uint8",
          "name": "",
          "type": "uint8"
        }
      ],
      "stateMutability": "pure",
      "type": "function"
    },
    {
      "inputs": [],
      "name": "eip712Domain",
      "outputs": [
        {
          "internalType": "bytes1",
          "name": "fields",
          "type": "bytes1"
        },
        {
          "internalType": "string",
          "name": "name",
          "type": "string"
        },
        {
          "internalType": "string",
          "name": "version",
          "type": "string"
        },
        {
          "internalType": "uint256",
          "name": "chainId",
          "type": "uint256"
        },
        {
          "internalType": "address",
          "name": "verifyingContract",
          "type": "address"
        },
        {
          "internalType": "bytes32",
          "name": "salt",
          "type": "bytes32"
        },
        {
          "internalType": "uint256[]",
          "name": "extensions",
          "type": "uint256[]"
        }
      ],
      "stateMutability": "view",
      "type": "function"
    },
    {
      "inputs": [],
      "name": "name",
      "outputs": [
        {
          "internalType": "string",
          "name": "",
          "type": "string"
        }
      ],
      "stateMutability": "view",
      "type": "function"
    },
    {
      "inputs": [
        {
          "internalType": "address",
          "name": "owner",
          "type": "address"
        }
      ],
      "name": "nonces",
      "outputs": [
        {
          "internalType": "uint256",
          "name": "result",
          "type": "uint256"
        }
      ],
      "stateMutability": "view",
      "type": "function"
    },
    {
      "inputs": [
        {
          "internalType": "address",
          "name": "owner",
          "type": "address"
        },
        {
          "internalType": "address",
          "name": "spender",
          "type": "address"
        },
        {
          "internalType": "uint256",
          "name": "value",
          "type": "uint256"
        },
        {
          "internalType": "uint256",
          "name": "deadline",
          "type": "uint256"
        },
        {
          "internalType": "uint8",
          "name": "v",
          "type": "uint8"
        },
        {
          "internalType": "bytes32",
          "name": "r",
          "type": "bytes32"
        },
        {
          "internalType": "bytes32",
          "name": "s",
          "type": "bytes32"
        }
      ],
      "name": "permit",
      "outputs": [],
      "stateMutability": "nonpayable",
      "type": "function"
    },
    {
      "inputs": [],
      "name": "symbol",
      "outputs": [
        {
          "internalType": "string",
          "name": "",
          "type": "string"
        }
      ],
      "stateMutability": "view",
      "type": "function"
    },
    {
      "inputs": [],
      "name": "totalSupply",
      "outputs": [
        {
          "internalType": "uint256",
          "name": "result",
          "type": "uint256"
        }
      ],
      "stateMutability": "view",
      "type": "function"
    },
    {
      "inputs": [
        {
          "internalType": "address",
          "name": "to",
          "type": "address"
        },
        {
          "internalType": "uint256",
          "name": "amount",
          "type": "uint256"
        }
      ],
      "name": "transfer",
      "outputs": [
        {
          "internalType": "bool",
          "name": "",
          "type": "bool"
        }
      ],
      "stateMutability": "nonpayable",
      "type": "function"
    },
    {
      "inputs": [
        {
          "internalType": "address",
          "name": "to",
          "type": "address"
        },
        {
          "components": [
            {
              "internalType": "bytes",
              "name": "data",
              "type": "bytes"
            }
          ],
          "internalType": "struct inEuint32",
          "name": "encryptedAmount",
          "type": "tuple"
        }
      ],
      "name": "transferEncrypted",
      "outputs": [
        {
          "internalType": "euint32",
          "name": "",
          "type": "uint256"
        }
      ],
      "stateMutability": "nonpayable",
      "type": "function"
    },
    {
      "inputs": [
        {
          "internalType": "address",
          "name": "to",
          "type": "address"
        },
        {
          "internalType": "euint32",
          "name": "amount",
          "type": "uint256"
        }
      ],
      "name": "transferEncrypted",
      "outputs": [
        {
          "internalType": "euint32",
          "name": "",
          "type": "uint256"
        }
      ],
      "stateMutability": "nonpayable",
      "type": "function"
    },
    {
      "inputs": [
        {
          "internalType": "address",
          "name": "from",
          "type": "address"
        },
        {
          "internalType": "address",
          "name": "to",
          "type": "address"
        },
        {
          "internalType": "uint256",
          "name": "amount",
          "type": "uint256"
        }
      ],
      "name": "transferFrom",
      "outputs": [
        {
          "internalType": "bool",
          "name": "",
          "type": "bool"
        }
      ],
      "stateMutability": "nonpayable",
      "type": "function"
    },
    {
      "inputs": [
        {
          "internalType": "address",
          "name": "from",
          "type": "address"
        },
        {
          "internalType": "address",
          "name": "to",
          "type": "address"
        },
        {
          "components": [
            {
              "internalType": "bytes",
              "name": "data",
              "type": "bytes"
            }
          ],
          "internalType": "struct inEuint32",
          "name": "value",
          "type": "tuple"
        }
      ],
      "name": "transferFromEncrypted",
      "outputs": [
        {
          "internalType": "euint32",
          "name": "",
          "type": "uint256"
        }
      ],
      "stateMutability": "nonpayable",
      "type": "function"
    },
    {
      "inputs": [
        {
          "internalType": "address",
          "name": "from",
          "type": "address"
        },
        {
          "internalType": "address",
          "name": "to",
          "type": "address"
        },
        {
          "internalType": "euint32",
          "name": "value",
          "type": "uint256"
        }
      ],
      "name": "transferFromEncrypted",
      "outputs": [
        {
          "internalType": "euint32",
          "name": "",
          "type": "uint256"
        }
      ],
      "stateMutability": "nonpayable",
      "type": "function"
    },
    {
      "inputs": [
        {
          "internalType": "uint32",
          "name": "amount",
          "type": "uint32"
        }
      ],
      "name": "unwrap",
      "outputs": [],
      "stateMutability": "nonpayable",
      "type": "function"
    },
    {
      "inputs": [
        {
          "internalType": "uint32",
          "name": "amount",
          "type": "uint32"
        }
      ],
      "name": "wrap",
      "outputs": [],
      "stateMutability": "nonpayable",
      "type": "function"
    }
  ],
  "transactionHash": "0x6c4dc45e8d2f0c4897c9415e2ec9e3361ca0cf10eb9bde353ca5f2957de17f9d",
  "args": [
    {
      "data": {
        "0": 16,
        "1": 8,
        "2": 0,
        "3": 0,
        "4": 0,
        "5": 0,
        "6": 0,
        "7": 0,
        "8": 42,
        "9": 171,
        "10": 221,
        "11": 253,
        "12": 202,
        "13": 202,
        "14": 171,
        "15": 209,
        "16": 148,
        "17": 33,
        "18": 121,
        "19": 149,
        "20": 215,
        "21": 236,
        "22": 123,
        "23": 200,
        "24": 19,
        "25": 209,
        "26": 134,
        "27": 204,
        "28": 100,
        "29": 248,
        "30": 240,
        "31": 65,
        "32": 51,
        "33": 106,
        "34": 153,
        "35": 136,
        "36": 195,
        "37": 5,
        "38": 101,
        "39": 255,
        "40": 138,
        "41": 226,
        "42": 31,
        "43": 232,
        "44": 230,
        "45": 13,
        "46": 252,
        "47": 199,
        "48": 28,
        "49": 198,
        "50": 97,
        "51": 158,
        "52": 143,
        "53": 48,
        "54": 1,
        "55": 137,
        "56": 11,
        "57": 174,
        "58": 209,
        "59": 129,
        "60": 207,
        "61": 46,
        "62": 174,
        "63": 159,
        "64": 43,
        "65": 202,
        "66": 17,
        "67": 195,
        "68": 72,
        "69": 226,
        "70": 202,
        "71": 205,
        "72": 244,
        "73": 2,
        "74": 2,
        "75": 0,
        "76": 37,
        "77": 71,
        "78": 86,
        "79": 178,
        "80": 1,
        "81": 100,
        "82": 7,
        "83": 39,
        "84": 84,
        "85": 101,
        "86": 13,
        "87": 222,
        "88": 33,
        "89": 169,
        "90": 41,
        "91": 247,
        "92": 101,
        "93": 75,
        "94": 33,
        "95": 25,
        "96": 230,
        "97": 106,
        "98": 58,
        "99": 53,
        "100": 136,
        "101": 60,
        "102": 249,
        "103": 220,
        "104": 167,
        "105": 92,
        "106": 237,
        "107": 193,
        "108": 104,
        "109": 96,
        "110": 222,
        "111": 28,
        "112": 129,
        "113": 157,
        "114": 197,
        "115": 243,
        "116": 235,
        "117": 114,
        "118": 195,
        "119": 47,
        "120": 172,
        "121": 193,
        "122": 67,
        "123": 228,
        "124": 233,
        "125": 243,
        "126": 28,
        "127": 241,
        "128": 49,
        "129": 174,
        "130": 52,
        "131": 58,
        "132": 63,
        "133": 101,
        "134": 92,
        "135": 105,
        "136": 240,
        "137": 135,
        "138": 9,
        "139": 217,
        "140": 225,
        "141": 154,
        "142": 118,
        "143": 30,
        "144": 136,
        "145": 234,
        "146": 68,
        "147": 135,
        "148": 177,
        "149": 46,
        "150": 145,
        "151": 45,
        "152": 39,
        "153": 129,
        "154": 137,
        "155": 5,
        "156": 254,
        "157": 232,
        "158": 219,
        "159": 104,
        "160": 38,
        "161": 233,
        "162": 164,
        "163": 3,
        "164": 213,
        "165": 183,
        "166": 116,
        "167": 42,
        "168": 19,
        "169": 127,
        "170": 77,
        "171": 14,
        "172": 208,
        "173": 105,
        "174": 245,
        "175": 183,
        "176": 136,
        "177": 146,
        "178": 178,
        "179": 83,
        "180": 4,
        "181": 54,
        "182": 153,
        "183": 50,
        "184": 56,
        "185": 175,
        "186": 124,
        "187": 224,
        "188": 60,
        "189": 115,
        "190": 86,
        "191": 97,
        "192": 90,
        "193": 189,
        "194": 146,
        "195": 24,
        "196": 132,
        "197": 216,
        "198": 157,
        "199": 180,
        "200": 107,
        "201": 80,
        "202": 205,
        "203": 219,
        "204": 31,
        "205": 108,
        "206": 71,
        "207": 231,
        "208": 247,
        "209": 57,
        "210": 132,
        "211": 245,
        "212": 205,
        "213": 110,
        "214": 130,
        "215": 228,
        "216": 206,
        "217": 149,
        "218": 132,
        "219": 128,
        "220": 6,
        "221": 14,
        "222": 2,
        "223": 4,
        "224": 127,
        "225": 13,
        "226": 65,
        "227": 212,
        "228": 244,
        "229": 50,
        "230": 180,
        "231": 196,
        "232": 6,
        "233": 56,
        "234": 249,
        "235": 229,
        "236": 17,
        "237": 52,
        "238": 237,
        "239": 182,
        "240": 199,
        "241": 52,
        "242": 218,
        "243": 11,
        "244": 71,
        "245": 242,
        "246": 49,
        "247": 162,
        "248": 95,
        "249": 158,
        "250": 128,
        "251": 165,
        "252": 15,
        "253": 104,
        "254": 234,
        "255": 20,
        "256": 178,
        "257": 109,
        "258": 175,
        "259": 245,
        "260": 163,
        "261": 114,
        "262": 104,
        "263": 59,
        "264": 180,
        "265": 33,
        "266": 31,
        "267": 239,
        "268": 74,
        "269": 187,
        "270": 243,
        "271": 57,
        "272": 252,
        "273": 181,
        "274": 204,
        "275": 127,
        "276": 60,
        "277": 212,
        "278": 220,
        "279": 48,
        "280": 39,
        "281": 105,
        "282": 190,
        "283": 153,
        "284": 201,
        "285": 91,
        "286": 239,
        "287": 246,
        "288": 61,
        "289": 2,
        "290": 208,
        "291": 53,
        "292": 225,
        "293": 177,
        "294": 224,
        "295": 55,
        "296": 166,
        "297": 41,
        "298": 187,
        "299": 139,
        "300": 144,
        "301": 67,
        "302": 68,
        "303": 245,
        "304": 25,
        "305": 128,
        "306": 91,
        "307": 249,
        "308": 250,
        "309": 6,
        "310": 45,
        "311": 10,
        "312": 243,
        "313": 198,
        "314": 190,
        "315": 10,
        "316": 124,
        "317": 131,
        "318": 193,
        "319": 221,
        "320": 180,
        "321": 64,
        "322": 146,
        "323": 156,
        "324": 227,
        "325": 206,
        "326": 122,
        "327": 72,
        "328": 19,
        "329": 119,
        "330": 165,
        "331": 198,
        "332": 211,
        "333": 211,
        "334": 99,
        "335": 106,
        "336": 98,
        "337": 158,
        "338": 231,
        "339": 60,
        "340": 151,
        "341": 231,
        "342": 71,
        "343": 178,
        "344": 211,
        "345": 100,
        "346": 232,
        "347": 130,
        "348": 177,
        "349": 82,
        "350": 126,
        "351": 210,
        "352": 110,
        "353": 241,
        "354": 199,
        "355": 234,
        "356": 128,
        "357": 88,
        "358": 183,
        "359": 26,
        "360": 240,
        "361": 1,
        "362": 116,
        "363": 41,
        "364": 74,
        "365": 192,
        "366": 78,
        "367": 78,
        "368": 228,
        "369": 98,
        "370": 63,
        "371": 46,
        "372": 183,
        "373": 162,
        "374": 81,
        "375": 84,
        "376": 101,
        "377": 84,
        "378": 21,
        "379": 220,
        "380": 255,
        "381": 208,
        "382": 151,
        "383": 128,
        "384": 209,
        "385": 153,
        "386": 175,
        "387": 170,
        "388": 19,
        "389": 188,
        "390": 178,
        "391": 34,
        "392": 80,
        "393": 51,
        "394": 1,
        "395": 167,
        "396": 120,
        "397": 48,
        "398": 126,
        "399": 209,
        "400": 62,
        "401": 117,
        "402": 115,
        "403": 22,
        "404": 252,
        "405": 201,
        "406": 21,
        "407": 39,
        "408": 176,
        "409": 123,
        "410": 145,
        "411": 13,
        "412": 136,
        "413": 50,
        "414": 219,
        "415": 98,
        "416": 222,
        "417": 213,
        "418": 112,
        "419": 220,
        "420": 200,
        "421": 162,
        "422": 196,
        "423": 136,
        "424": 30,
        "425": 160,
        "426": 18,
        "427": 242,
        "428": 137,
        "429": 44,
        "430": 173,
        "431": 182,
        "432": 170,
        "433": 179,
        "434": 240,
        "435": 47,
        "436": 51,
        "437": 44,
        "438": 215,
        "439": 108,
        "440": 65,
        "441": 181,
        "442": 131,
        "443": 52,
        "444": 243,
        "445": 203,
        "446": 64,
        "447": 59,
        "448": 75,
        "449": 65,
        "450": 245,
        "451": 128,
        "452": 71,
        "453": 10,
        "454": 9,
        "455": 250,
        "456": 132,
        "457": 132,
        "458": 201,
        "459": 164,
        "460": 48,
        "461": 44,
        "462": 98,
        "463": 80,
        "464": 251,
        "465": 142,
        "466": 96,
        "467": 80,
        "468": 193,
        "469": 38,
        "470": 163,
        "471": 95,
        "472": 125,
        "473": 175,
        "474": 95,
        "475": 100,
        "476": 74,
        "477": 233,
        "478": 135,
        "479": 104,
        "480": 113,
        "481": 2,
        "482": 127,
        "483": 196,
        "484": 182,
        "485": 88,
        "486": 205,
        "487": 58,
        "488": 168,
        "489": 9,
        "490": 163,
        "491": 71,
        "492": 58,
        "493": 120,
        "494": 118,
        "495": 110,
        "496": 127,
        "497": 50,
        "498": 103,
        "499": 36,
        "500": 207,
        "501": 31,
        "502": 141,
        "503": 233,
        "504": 97,
        "505": 105,
        "506": 165,
        "507": 20,
        "508": 195,
        "509": 237,
        "510": 34,
        "511": 206,
        "512": 84,
        "513": 7,
        "514": 146,
        "515": 138,
        "516": 172,
        "517": 51,
        "518": 138,
        "519": 230,
        "520": 179,
        "521": 5,
        "522": 57,
        "523": 57,
        "524": 86,
        "525": 170,
        "526": 95,
        "527": 180,
        "528": 91,
        "529": 161,
        "530": 186,
        "531": 3,
        "532": 59,
        "533": 147,
        "534": 116,
        "535": 101,
        "536": 172,
        "537": 229,
        "538": 97,
        "539": 168,
        "540": 99,
        "541": 110,
        "542": 26,
        "543": 217,
        "544": 241,
        "545": 153,
        "546": 99,
        "547": 246,
        "548": 150,
        "549": 146,
        "550": 135,
        "551": 37,
        "552": 219,
        "553": 163,
        "554": 84,
        "555": 210,
        "556": 92,
        "557": 127,
        "558": 111,
        "559": 133,
        "560": 19,
        "561": 207,
        "562": 205,
        "563": 92,
        "564": 211,
        "565": 74,
        "566": 178,
        "567": 87,
        "568": 39,
        "569": 147,
        "570": 232,
        "571": 109,
        "572": 88,
        "573": 48,
        "574": 126,
        "575": 22,
        "576": 168,
        "577": 70,
        "578": 185,
        "579": 231,
        "580": 196,
        "581": 117,
        "582": 24,
        "583": 182,
        "584": 117,
        "585": 8,
        "586": 196,
        "587": 20,
        "588": 228,
        "589": 50,
        "590": 150,
        "591": 82,
        "592": 214,
        "593": 57,
        "594": 141,
        "595": 249,
        "596": 74,
        "597": 219,
        "598": 230,
        "599": 147,
        "600": 192,
        "601": 182,
        "602": 95,
        "603": 77,
        "604": 102,
        "605": 21,
        "606": 181,
        "607": 136,
        "608": 120,
        "609": 30,
        "610": 144,
        "611": 254,
        "612": 187,
        "613": 25,
        "614": 25,
        "615": 253,
        "616": 172,
        "617": 78,
        "618": 57,
        "619": 163,
        "620": 165,
        "621": 13,
        "622": 186,
        "623": 1,
        "624": 21,
        "625": 94,
        "626": 50,
        "627": 54,
        "628": 106,
        "629": 175,
        "630": 221,
        "631": 25,
        "632": 182,
        "633": 71,
        "634": 203,
        "635": 237,
        "636": 202,
        "637": 242,
        "638": 98,
        "639": 182,
        "640": 10,
        "641": 119,
        "642": 148,
        "643": 88,
        "644": 236,
        "645": 16,
        "646": 156,
        "647": 44,
        "648": 168,
        "649": 156,
        "650": 204,
        "651": 100,
        "652": 84,
        "653": 108,
        "654": 136,
        "655": 99,
        "656": 35,
        "657": 108,
        "658": 252,
        "659": 211,
        "660": 69,
        "661": 201,
        "662": 93,
        "663": 64,
        "664": 163,
        "665": 173,
        "666": 127,
        "667": 140,
        "668": 131,
        "669": 175,
        "670": 171,
        "671": 89,
        "672": 160,
        "673": 5,
        "674": 221,
        "675": 138,
        "676": 163,
        "677": 34,
        "678": 50,
        "679": 224,
        "680": 43,
        "681": 72,
        "682": 111,
        "683": 41,
        "684": 66,
        "685": 115,
        "686": 77,
        "687": 251,
        "688": 169,
        "689": 107,
        "690": 23,
        "691": 127,
        "692": 62,
        "693": 143,
        "694": 42,
        "695": 134,
        "696": 145,
        "697": 63,
        "698": 125,
        "699": 4,
        "700": 161,
        "701": 155,
        "702": 230,
        "703": 34,
        "704": 239,
        "705": 131,
        "706": 98,
        "707": 197,
        "708": 128,
        "709": 62,
        "710": 149,
        "711": 52,
        "712": 49,
        "713": 84,
        "714": 201,
        "715": 103,
        "716": 232,
        "717": 90,
        "718": 166,
        "719": 136,
        "720": 245,
        "721": 195,
        "722": 105,
        "723": 223,
        "724": 228,
        "725": 35,
        "726": 138,
        "727": 177,
        "728": 55,
        "729": 46,
        "730": 82,
        "731": 163,
        "732": 205,
        "733": 81,
        "734": 174,
        "735": 242,
        "736": 133,
        "737": 107,
        "738": 109,
        "739": 245,
        "740": 18,
        "741": 94,
        "742": 71,
        "743": 30,
        "744": 224,
        "745": 117,
        "746": 36,
        "747": 44,
        "748": 206,
        "749": 67,
        "750": 156,
        "751": 94,
        "752": 43,
        "753": 66,
        "754": 55,
        "755": 168,
        "756": 119,
        "757": 12,
        "758": 90,
        "759": 64,
        "760": 158,
        "761": 5,
        "762": 31,
        "763": 161,
        "764": 0,
        "765": 252,
        "766": 124,
        "767": 153,
        "768": 65,
        "769": 206,
        "770": 180,
        "771": 189,
        "772": 165,
        "773": 187,
        "774": 226,
        "775": 123,
        "776": 197,
        "777": 138,
        "778": 112,
        "779": 49,
        "780": 124,
        "781": 15,
        "782": 116,
        "783": 201,
        "784": 176,
        "785": 3,
        "786": 158,
        "787": 141,
        "788": 60,
        "789": 233,
        "790": 111,
        "791": 249,
        "792": 120,
        "793": 235,
        "794": 108,
        "795": 120,
        "796": 80,
        "797": 22,
        "798": 12,
        "799": 7,
        "800": 210,
        "801": 246,
        "802": 95,
        "803": 212,
        "804": 215,
        "805": 248,
        "806": 192,
        "807": 82,
        "808": 173,
        "809": 2,
        "810": 68,
        "811": 179,
        "812": 175,
        "813": 171,
        "814": 113,
        "815": 119,
        "816": 56,
        "817": 1,
        "818": 28,
        "819": 156,
        "820": 23,
        "821": 252,
        "822": 41,
        "823": 149,
        "824": 90,
        "825": 99,
        "826": 161,
        "827": 253,
        "828": 185,
        "829": 131,
        "830": 208,
        "831": 50,
        "832": 95,
        "833": 186,
        "834": 72,
        "835": 180,
        "836": 78,
        "837": 122,
        "838": 79,
        "839": 206,
        "840": 22,
        "841": 164,
        "842": 5,
        "843": 228,
        "844": 16,
        "845": 98,
        "846": 98,
        "847": 231,
        "848": 126,
        "849": 175,
        "850": 57,
        "851": 183,
        "852": 223,
        "853": 122,
        "854": 10,
        "855": 106,
        "856": 100,
        "857": 41,
        "858": 238,
        "859": 222,
        "860": 250,
        "861": 37,
        "862": 172,
        "863": 239,
        "864": 51,
        "865": 177,
        "866": 59,
        "867": 234,
        "868": 39,
        "869": 32,
        "870": 145,
        "871": 177,
        "872": 112,
        "873": 126,
        "874": 176,
        "875": 106,
        "876": 19,
        "877": 189,
        "878": 183,
        "879": 39,
        "880": 4,
        "881": 220,
        "882": 80,
        "883": 80,
        "884": 64,
        "885": 67,
        "886": 120,
        "887": 16,
        "888": 42,
        "889": 195,
        "890": 121,
        "891": 63,
        "892": 200,
        "893": 132,
        "894": 80,
        "895": 76,
        "896": 167,
        "897": 139,
        "898": 76,
        "899": 59,
        "900": 28,
        "901": 44,
        "902": 58,
        "903": 121,
        "904": 253,
        "905": 117,
        "906": 44,
        "907": 188,
        "908": 143,
        "909": 245,
        "910": 219,
        "911": 11,
        "912": 215,
        "913": 24,
        "914": 34,
        "915": 220,
        "916": 224,
        "917": 172,
        "918": 241,
        "919": 181,
        "920": 194,
        "921": 121,
        "922": 224,
        "923": 21,
        "924": 33,
        "925": 44,
        "926": 179,
        "927": 35,
        "928": 144,
        "929": 199,
        "930": 36,
        "931": 97,
        "932": 176,
        "933": 147,
        "934": 199,
        "935": 253,
        "936": 22,
        "937": 161,
        "938": 195,
        "939": 169,
        "940": 164,
        "941": 5,
        "942": 199,
        "943": 125,
        "944": 170,
        "945": 134,
        "946": 42,
        "947": 218,
        "948": 49,
        "949": 134,
        "950": 200,
        "951": 56,
        "952": 254,
        "953": 21,
        "954": 116,
        "955": 127,
        "956": 17,
        "957": 171,
        "958": 201,
        "959": 172,
        "960": 177,
        "961": 118,
        "962": 51,
        "963": 105,
        "964": 175,
        "965": 238,
        "966": 198,
        "967": 146,
        "968": 212,
        "969": 26,
        "970": 121,
        "971": 200,
        "972": 209,
        "973": 90,
        "974": 247,
        "975": 62,
        "976": 241,
        "977": 168,
        "978": 144,
        "979": 150,
        "980": 251,
        "981": 200,
        "982": 169,
        "983": 159,
        "984": 250,
        "985": 5,
        "986": 214,
        "987": 21,
        "988": 225,
        "989": 36,
        "990": 46,
        "991": 36,
        "992": 71,
        "993": 218,
        "994": 183,
        "995": 195,
        "996": 23,
        "997": 171,
        "998": 247,
        "999": 149,
        "1000": 226,
        "1001": 128,
        "1002": 180,
        "1003": 57,
        "1004": 188,
        "1005": 134,
        "1006": 203,
        "1007": 162,
        "1008": 61,
        "1009": 37,
        "1010": 133,
        "1011": 181,
        "1012": 1,
        "1013": 48,
        "1014": 44,
        "1015": 73,
        "1016": 238,
        "1017": 69,
        "1018": 192,
        "1019": 0,
        "1020": 110,
        "1021": 28,
        "1022": 225,
        "1023": 201,
        "1024": 72,
        "1025": 142,
        "1026": 7,
        "1027": 25,
        "1028": 12,
        "1029": 141,
        "1030": 223,
        "1031": 231,
        "1032": 218,
        "1033": 167,
        "1034": 20,
        "1035": 102,
        "1036": 162,
        "1037": 109,
        "1038": 74,
        "1039": 72,
        "1040": 93,
        "1041": 188,
        "1042": 104,
        "1043": 253,
        "1044": 138,
        "1045": 214,
        "1046": 112,
        "1047": 225,
        "1048": 228,
        "1049": 201,
        "1050": 139,
        "1051": 176,
        "1052": 162,
        "1053": 81,
        "1054": 18,
        "1055": 73,
        "1056": 128,
        "1057": 114,
        "1058": 112,
        "1059": 35,
        "1060": 198,
        "1061": 64,
        "1062": 123,
        "1063": 148,
        "1064": 83,
        "1065": 79,
        "1066": 250,
        "1067": 108,
        "1068": 207,
        "1069": 90,
        "1070": 203,
        "1071": 251,
        "1072": 214,
        "1073": 245,
        "1074": 189,
        "1075": 82,
        "1076": 171,
        "1077": 174,
        "1078": 240,
        "1079": 82,
        "1080": 192,
        "1081": 75,
        "1082": 53,
        "1083": 48,
        "1084": 205,
        "1085": 219,
        "1086": 207,
        "1087": 102,
        "1088": 142,
        "1089": 143,
        "1090": 169,
        "1091": 165,
        "1092": 124,
        "1093": 232,
        "1094": 91,
        "1095": 61,
        "1096": 252,
        "1097": 151,
        "1098": 44,
        "1099": 12,
        "1100": 3,
        "1101": 205,
        "1102": 130,
        "1103": 32,
        "1104": 215,
        "1105": 82,
        "1106": 173,
        "1107": 28,
        "1108": 99,
        "1109": 37,
        "1110": 117,
        "1111": 49,
        "1112": 156,
        "1113": 74,
        "1114": 81,
        "1115": 142,
        "1116": 156,
        "1117": 190,
        "1118": 45,
        "1119": 42,
        "1120": 101,
        "1121": 177,
        "1122": 51,
        "1123": 42,
        "1124": 67,
        "1125": 239,
        "1126": 110,
        "1127": 250,
        "1128": 18,
        "1129": 155,
        "1130": 86,
        "1131": 49,
        "1132": 179,
        "1133": 128,
        "1134": 132,
        "1135": 42,
        "1136": 226,
        "1137": 164,
        "1138": 23,
        "1139": 248,
        "1140": 1,
        "1141": 114,
        "1142": 31,
        "1143": 187,
        "1144": 124,
        "1145": 46,
        "1146": 43,
        "1147": 222,
        "1148": 250,
        "1149": 64,
        "1150": 4,
        "1151": 85,
        "1152": 68,
        "1153": 106,
        "1154": 22,
        "1155": 204,
        "1156": 253,
        "1157": 208,
        "1158": 173,
        "1159": 136,
        "1160": 100,
        "1161": 31,
        "1162": 16,
        "1163": 91,
        "1164": 19,
        "1165": 196,
        "1166": 160,
        "1167": 110,
        "1168": 52,
        "1169": 47,
        "1170": 30,
        "1171": 126,
        "1172": 229,
        "1173": 247,
        "1174": 135,
        "1175": 113,
        "1176": 47,
        "1177": 197,
        "1178": 67,
        "1179": 1,
        "1180": 234,
        "1181": 222,
        "1182": 131,
        "1183": 156,
        "1184": 219,
        "1185": 187,
        "1186": 110,
        "1187": 180,
        "1188": 24,
        "1189": 45,
        "1190": 3,
        "1191": 215,
        "1192": 73,
        "1193": 5,
        "1194": 67,
        "1195": 241,
        "1196": 203,
        "1197": 70,
        "1198": 40,
        "1199": 239,
        "1200": 226,
        "1201": 253,
        "1202": 11,
        "1203": 68,
        "1204": 164,
        "1205": 172,
        "1206": 178,
        "1207": 74,
        "1208": 118,
        "1209": 224,
        "1210": 222,
        "1211": 147,
        "1212": 199,
        "1213": 30,
        "1214": 87,
        "1215": 233,
        "1216": 114,
        "1217": 14,
        "1218": 110,
        "1219": 66,
        "1220": 238,
        "1221": 6,
        "1222": 152,
        "1223": 198,
        "1224": 25,
        "1225": 228,
        "1226": 168,
        "1227": 52,
        "1228": 142,
        "1229": 241,
        "1230": 236,
        "1231": 158,
        "1232": 251,
        "1233": 58,
        "1234": 109,
        "1235": 134,
        "1236": 141,
        "1237": 75,
        "1238": 142,
        "1239": 242,
        "1240": 102,
        "1241": 209,
        "1242": 4,
        "1243": 5,
        "1244": 45,
        "1245": 39,
        "1246": 111,
        "1247": 112,
        "1248": 91,
        "1249": 29,
        "1250": 70,
        "1251": 114,
        "1252": 112,
        "1253": 171,
        "1254": 0,
        "1255": 38,
        "1256": 60,
        "1257": 59,
        "1258": 116,
        "1259": 223,
        "1260": 207,
        "1261": 213,
        "1262": 173,
        "1263": 48,
        "1264": 118,
        "1265": 142,
        "1266": 36,
        "1267": 123,
        "1268": 176,
        "1269": 8,
        "1270": 19,
        "1271": 227,
        "1272": 245,
        "1273": 81,
        "1274": 71,
        "1275": 129,
        "1276": 118,
        "1277": 178,
        "1278": 13,
        "1279": 222,
        "1280": 254,
        "1281": 116,
        "1282": 115,
        "1283": 182,
        "1284": 69,
        "1285": 83,
        "1286": 68,
        "1287": 72,
        "1288": 173,
        "1289": 151,
        "1290": 13,
        "1291": 124,
        "1292": 185,
        "1293": 221,
        "1294": 88,
        "1295": 119,
        "1296": 215,
        "1297": 250,
        "1298": 117,
        "1299": 235,
        "1300": 209,
        "1301": 145,
        "1302": 50,
        "1303": 168,
        "1304": 189,
        "1305": 56,
        "1306": 96,
        "1307": 56,
        "1308": 202,
        "1309": 112,
        "1310": 150,
        "1311": 241,
        "1312": 4,
        "1313": 160,
        "1314": 251,
        "1315": 226,
        "1316": 15,
        "1317": 35,
        "1318": 149,
        "1319": 129,
        "1320": 47,
        "1321": 106,
        "1322": 80,
        "1323": 213,
        "1324": 136,
        "1325": 246,
        "1326": 57,
        "1327": 237,
        "1328": 244,
        "1329": 246,
        "1330": 189,
        "1331": 202,
        "1332": 110,
        "1333": 95,
        "1334": 93,
        "1335": 51,
        "1336": 162,
        "1337": 72,
        "1338": 141,
        "1339": 52,
        "1340": 10,
        "1341": 82,
        "1342": 73,
        "1343": 26,
        "1344": 27,
        "1345": 69,
        "1346": 105,
        "1347": 124,
        "1348": 78,
        "1349": 15,
        "1350": 44,
        "1351": 219,
        "1352": 20,
        "1353": 143,
        "1354": 79,
        "1355": 63,
        "1356": 251,
        "1357": 194,
        "1358": 118,
        "1359": 139,
        "1360": 186,
        "1361": 12,
        "1362": 243,
        "1363": 83,
        "1364": 75,
        "1365": 10,
        "1366": 96,
        "1367": 7,
        "1368": 154,
        "1369": 79,
        "1370": 124,
        "1371": 102,
        "1372": 226,
        "1373": 238,
        "1374": 171,
        "1375": 159,
        "1376": 148,
        "1377": 123,
        "1378": 59,
        "1379": 140,
        "1380": 8,
        "1381": 5,
        "1382": 223,
        "1383": 196,
        "1384": 219,
        "1385": 208,
        "1386": 21,
        "1387": 140,
        "1388": 217,
        "1389": 175,
        "1390": 232,
        "1391": 154,
        "1392": 48,
        "1393": 46,
        "1394": 121,
        "1395": 159,
        "1396": 104,
        "1397": 33,
        "1398": 51,
        "1399": 94,
        "1400": 202,
        "1401": 29,
        "1402": 29,
        "1403": 43,
        "1404": 135,
        "1405": 41,
        "1406": 12,
        "1407": 154,
        "1408": 235,
        "1409": 135,
        "1410": 179,
        "1411": 206,
        "1412": 56,
        "1413": 209,
        "1414": 201,
        "1415": 190,
        "1416": 57,
        "1417": 238,
        "1418": 50,
        "1419": 180,
        "1420": 14,
        "1421": 190,
        "1422": 84,
        "1423": 161,
        "1424": 217,
        "1425": 80,
        "1426": 12,
        "1427": 115,
        "1428": 178,
        "1429": 13,
        "1430": 220,
        "1431": 105,
        "1432": 201,
        "1433": 201,
        "1434": 66,
        "1435": 117,
        "1436": 21,
        "1437": 13,
        "1438": 157,
        "1439": 225,
        "1440": 174,
        "1441": 48,
        "1442": 94,
        "1443": 115,
        "1444": 43,
        "1445": 199,
        "1446": 40,
        "1447": 162,
        "1448": 21,
        "1449": 61,
        "1450": 193,
        "1451": 61,
        "1452": 85,
        "1453": 10,
        "1454": 43,
        "1455": 61,
        "1456": 24,
        "1457": 104,
        "1458": 28,
        "1459": 142,
        "1460": 233,
        "1461": 105,
        "1462": 212,
        "1463": 58,
        "1464": 191,
        "1465": 53,
        "1466": 91,
        "1467": 127,
        "1468": 180,
        "1469": 105,
        "1470": 214,
        "1471": 31,
        "1472": 232,
        "1473": 151,
        "1474": 73,
        "1475": 19,
        "1476": 161,
        "1477": 111,
        "1478": 44,
        "1479": 160,
        "1480": 124,
        "1481": 131,
        "1482": 158,
        "1483": 187,
        "1484": 122,
        "1485": 20,
        "1486": 147,
        "1487": 190,
        "1488": 230,
        "1489": 177,
        "1490": 224,
        "1491": 199,
        "1492": 41,
        "1493": 238,
        "1494": 150,
        "1495": 109,
        "1496": 222,
        "1497": 89,
        "1498": 71,
        "1499": 147,
        "1500": 212,
        "1501": 62,
        "1502": 132,
        "1503": 40,
        "1504": 42,
        "1505": 211,
        "1506": 84,
        "1507": 220,
        "1508": 0,
        "1509": 16,
        "1510": 135,
        "1511": 123,
        "1512": 62,
        "1513": 205,
        "1514": 9,
        "1515": 59,
        "1516": 158,
        "1517": 135,
        "1518": 208,
        "1519": 176,
        "1520": 163,
        "1521": 210,
        "1522": 205,
        "1523": 144,
        "1524": 58,
        "1525": 128,
        "1526": 213,
        "1527": 55,
        "1528": 186,
        "1529": 70,
        "1530": 81,
        "1531": 109,
        "1532": 48,
        "1533": 226,
        "1534": 83,
        "1535": 89,
        "1536": 250,
        "1537": 142,
        "1538": 70,
        "1539": 171,
        "1540": 190,
        "1541": 247,
        "1542": 253,
        "1543": 153,
        "1544": 179,
        "1545": 74,
        "1546": 247,
        "1547": 99,
        "1548": 171,
        "1549": 30,
        "1550": 0,
        "1551": 85,
        "1552": 127,
        "1553": 230,
        "1554": 32,
        "1555": 55,
        "1556": 114,
        "1557": 73,
        "1558": 20,
        "1559": 77,
        "1560": 64,
        "1561": 54,
        "1562": 175,
        "1563": 17,
        "1564": 214,
        "1565": 149,
        "1566": 78,
        "1567": 106,
        "1568": 153,
        "1569": 80,
        "1570": 113,
        "1571": 76,
        "1572": 23,
        "1573": 151,
        "1574": 163,
        "1575": 169,
        "1576": 79,
        "1577": 205,
        "1578": 253,
        "1579": 152,
        "1580": 139,
        "1581": 195,
        "1582": 4,
        "1583": 26,
        "1584": 253,
        "1585": 128,
        "1586": 235,
        "1587": 135,
        "1588": 243,
        "1589": 78,
        "1590": 144,
        "1591": 24,
        "1592": 114,
        "1593": 241,
        "1594": 135,
        "1595": 184,
        "1596": 251,
        "1597": 41,
        "1598": 133,
        "1599": 41,
        "1600": 181,
        "1601": 99,
        "1602": 174,
        "1603": 86,
        "1604": 250,
        "1605": 93,
        "1606": 134,
        "1607": 173,
        "1608": 208,
        "1609": 233,
        "1610": 113,
        "1611": 15,
        "1612": 229,
        "1613": 131,
        "1614": 181,
        "1615": 123,
        "1616": 108,
        "1617": 60,
        "1618": 110,
        "1619": 6,
        "1620": 4,
        "1621": 89,
        "1622": 205,
        "1623": 178,
        "1624": 63,
        "1625": 93,
        "1626": 59,
        "1627": 108,
        "1628": 5,
        "1629": 170,
        "1630": 94,
        "1631": 107,
        "1632": 170,
        "1633": 170,
        "1634": 151,
        "1635": 86,
        "1636": 22,
        "1637": 93,
        "1638": 248,
        "1639": 148,
        "1640": 22,
        "1641": 45,
        "1642": 109,
        "1643": 239,
        "1644": 130,
        "1645": 41,
        "1646": 14,
        "1647": 123,
        "1648": 93,
        "1649": 241,
        "1650": 189,
        "1651": 46,
        "1652": 15,
        "1653": 131,
        "1654": 13,
        "1655": 184,
        "1656": 156,
        "1657": 141,
        "1658": 66,
        "1659": 250,
        "1660": 127,
        "1661": 17,
        "1662": 253,
        "1663": 2,
        "1664": 103,
        "1665": 113,
        "1666": 246,
        "1667": 135,
        "1668": 211,
        "1669": 254,
        "1670": 46,
        "1671": 110,
        "1672": 57,
        "1673": 137,
        "1674": 213,
        "1675": 222,
        "1676": 66,
        "1677": 63,
        "1678": 146,
        "1679": 157,
        "1680": 238,
        "1681": 149,
        "1682": 114,
        "1683": 157,
        "1684": 205,
        "1685": 212,
        "1686": 129,
        "1687": 40,
        "1688": 137,
        "1689": 140,
        "1690": 25,
        "1691": 136,
        "1692": 38,
        "1693": 109,
        "1694": 209,
        "1695": 164,
        "1696": 144,
        "1697": 199,
        "1698": 65,
        "1699": 42,
        "1700": 254,
        "1701": 247,
        "1702": 88,
        "1703": 16,
        "1704": 79,
        "1705": 249,
        "1706": 76,
        "1707": 76,
        "1708": 231,
        "1709": 153,
        "1710": 174,
        "1711": 232,
        "1712": 12,
        "1713": 138,
        "1714": 74,
        "1715": 89,
        "1716": 29,
        "1717": 87,
        "1718": 34,
        "1719": 207,
        "1720": 168,
        "1721": 92,
        "1722": 253,
        "1723": 184,
        "1724": 86,
        "1725": 88,
        "1726": 177,
        "1727": 55,
        "1728": 41,
        "1729": 4,
        "1730": 176,
        "1731": 33,
        "1732": 217,
        "1733": 179,
        "1734": 40,
        "1735": 46,
        "1736": 163,
        "1737": 213,
        "1738": 208,
        "1739": 217,
        "1740": 142,
        "1741": 180,
        "1742": 192,
        "1743": 58,
        "1744": 177,
        "1745": 103,
        "1746": 238,
        "1747": 41,
        "1748": 154,
        "1749": 17,
        "1750": 203,
        "1751": 99,
        "1752": 16,
        "1753": 179,
        "1754": 64,
        "1755": 33,
        "1756": 66,
        "1757": 126,
        "1758": 113,
        "1759": 81,
        "1760": 72,
        "1761": 137,
        "1762": 40,
        "1763": 175,
        "1764": 1,
        "1765": 251,
        "1766": 229,
        "1767": 95,
        "1768": 26,
        "1769": 232,
        "1770": 216,
        "1771": 142,
        "1772": 32,
        "1773": 84,
        "1774": 148,
        "1775": 102,
        "1776": 250,
        "1777": 94,
        "1778": 43,
        "1779": 28,
        "1780": 150,
        "1781": 68,
        "1782": 110,
        "1783": 239,
        "1784": 43,
        "1785": 193,
        "1786": 133,
        "1787": 164,
        "1788": 73,
        "1789": 143,
        "1790": 253,
        "1791": 156,
        "1792": 234,
        "1793": 210,
        "1794": 39,
        "1795": 123,
        "1796": 245,
        "1797": 112,
        "1798": 115,
        "1799": 0,
        "1800": 81,
        "1801": 110,
        "1802": 40,
        "1803": 47,
        "1804": 38,
        "1805": 62,
        "1806": 241,
        "1807": 88,
        "1808": 124,
        "1809": 252,
        "1810": 223,
        "1811": 126,
        "1812": 90,
        "1813": 227,
        "1814": 98,
        "1815": 95,
        "1816": 250,
        "1817": 66,
        "1818": 232,
        "1819": 106,
        "1820": 35,
        "1821": 167,
        "1822": 103,
        "1823": 59,
        "1824": 67,
        "1825": 27,
        "1826": 203,
        "1827": 113,
        "1828": 39,
        "1829": 152,
        "1830": 200,
        "1831": 244,
        "1832": 78,
        "1833": 129,
        "1834": 114,
        "1835": 170,
        "1836": 213,
        "1837": 219,
        "1838": 121,
        "1839": 118,
        "1840": 146,
        "1841": 200,
        "1842": 166,
        "1843": 236,
        "1844": 45,
        "1845": 183,
        "1846": 26,
        "1847": 187,
        "1848": 109,
        "1849": 27,
        "1850": 164,
        "1851": 229,
        "1852": 158,
        "1853": 48,
        "1854": 178,
        "1855": 34,
        "1856": 200,
        "1857": 126,
        "1858": 221,
        "1859": 79,
        "1860": 219,
        "1861": 26,
        "1862": 17,
        "1863": 132,
        "1864": 10,
        "1865": 163,
        "1866": 106,
        "1867": 197,
        "1868": 133,
        "1869": 213,
        "1870": 121,
        "1871": 43,
        "1872": 149,
        "1873": 203,
        "1874": 133,
        "1875": 37,
        "1876": 31,
        "1877": 207,
        "1878": 210,
        "1879": 254,
        "1880": 61,
        "1881": 128,
        "1882": 149,
        "1883": 82,
        "1884": 49,
        "1885": 98,
        "1886": 227,
        "1887": 155,
        "1888": 124,
        "1889": 40,
        "1890": 46,
        "1891": 169,
        "1892": 239,
        "1893": 78,
        "1894": 209,
        "1895": 166,
        "1896": 87,
        "1897": 151,
        "1898": 192,
        "1899": 63,
        "1900": 99,
        "1901": 84,
        "1902": 197,
        "1903": 49,
        "1904": 187,
        "1905": 113,
        "1906": 178,
        "1907": 83,
        "1908": 151,
        "1909": 230,
        "1910": 118,
        "1911": 99,
        "1912": 247,
        "1913": 190,
        "1914": 40,
        "1915": 190,
        "1916": 67,
        "1917": 28,
        "1918": 207,
        "1919": 210,
        "1920": 24,
        "1921": 95,
        "1922": 226,
        "1923": 228,
        "1924": 116,
        "1925": 124,
        "1926": 222,
        "1927": 147,
        "1928": 148,
        "1929": 23,
        "1930": 137,
        "1931": 247,
        "1932": 11,
        "1933": 138,
        "1934": 12,
        "1935": 34,
        "1936": 22,
        "1937": 74,
        "1938": 210,
        "1939": 250,
        "1940": 99,
        "1941": 25,
        "1942": 66,
        "1943": 100,
        "1944": 150,
        "1945": 4,
        "1946": 113,
        "1947": 72,
        "1948": 69,
        "1949": 239,
        "1950": 237,
        "1951": 127,
        "1952": 144,
        "1953": 230,
        "1954": 79,
        "1955": 245,
        "1956": 43,
        "1957": 248,
        "1958": 161,
        "1959": 255,
        "1960": 197,
        "1961": 115,
        "1962": 102,
        "1963": 157,
        "1964": 0,
        "1965": 97,
        "1966": 192,
        "1967": 193,
        "1968": 136,
        "1969": 241,
        "1970": 208,
        "1971": 182,
        "1972": 198,
        "1973": 113,
        "1974": 208,
        "1975": 165,
        "1976": 46,
        "1977": 50,
        "1978": 247,
        "1979": 24,
        "1980": 93,
        "1981": 39,
        "1982": 104,
        "1983": 111,
        "1984": 239,
        "1985": 227,
        "1986": 75,
        "1987": 19,
        "1988": 76,
        "1989": 190,
        "1990": 123,
        "1991": 126,
        "1992": 183,
        "1993": 70,
        "1994": 163,
        "1995": 53,
        "1996": 0,
        "1997": 92,
        "1998": 58,
        "1999": 26,
        "2000": 75,
        "2001": 73,
        "2002": 25,
        "2003": 106,
        "2004": 228,
        "2005": 145,
        "2006": 223,
        "2007": 184,
        "2008": 113,
        "2009": 105,
        "2010": 196,
        "2011": 73,
        "2012": 79,
        "2013": 107,
        "2014": 196,
        "2015": 124,
        "2016": 245,
        "2017": 248,
        "2018": 103,
        "2019": 199,
        "2020": 18,
        "2021": 78,
        "2022": 63,
        "2023": 167,
        "2024": 136,
        "2025": 220,
        "2026": 30,
        "2027": 226,
        "2028": 145,
        "2029": 194,
        "2030": 178,
        "2031": 150,
        "2032": 32,
        "2033": 241,
        "2034": 27,
        "2035": 39,
        "2036": 48,
        "2037": 214,
        "2038": 57,
        "2039": 174,
        "2040": 162,
        "2041": 137,
        "2042": 109,
        "2043": 67,
        "2044": 18,
        "2045": 21,
        "2046": 51,
        "2047": 252,
        "2048": 197,
        "2049": 203,
        "2050": 238,
        "2051": 117,
        "2052": 164,
        "2053": 202,
        "2054": 223,
        "2055": 162,
        "2056": 100,
        "2057": 35,
        "2058": 243,
        "2059": 99,
        "2060": 94,
        "2061": 233,
        "2062": 89,
        "2063": 41,
        "2064": 72,
        "2065": 253,
        "2066": 180,
        "2067": 174,
        "2068": 172,
        "2069": 130,
        "2070": 145,
        "2071": 172,
        "2072": 249,
        "2073": 157,
        "2074": 108,
        "2075": 166,
        "2076": 38,
        "2077": 154,
        "2078": 76,
        "2079": 43,
        "2080": 69,
        "2081": 71,
        "2082": 181,
        "2083": 3,
        "2084": 41,
        "2085": 250,
        "2086": 44,
        "2087": 68,
        "2088": 112,
        "2089": 167,
        "2090": 41,
        "2091": 221,
        "2092": 30,
        "2093": 19,
        "2094": 253,
        "2095": 161,
        "2096": 120,
        "2097": 90,
        "2098": 180,
        "2099": 58,
        "2100": 125,
        "2101": 93,
        "2102": 132,
        "2103": 169,
        "2104": 33,
        "2105": 177,
        "2106": 227,
        "2107": 215,
        "2108": 213,
        "2109": 138,
        "2110": 83,
        "2111": 90,
        "2112": 72,
        "2113": 118,
        "2114": 128,
        "2115": 193,
        "2116": 235,
        "2117": 255,
        "2118": 103,
        "2119": 178,
        "2120": 44,
        "2121": 95,
        "2122": 13,
        "2123": 44,
        "2124": 218,
        "2125": 174,
        "2126": 181,
        "2127": 110,
        "2128": 231,
        "2129": 14,
        "2130": 175,
        "2131": 81,
        "2132": 221,
        "2133": 231,
        "2134": 171,
        "2135": 200,
        "2136": 77,
        "2137": 135,
        "2138": 102,
        "2139": 115,
        "2140": 13,
        "2141": 80,
        "2142": 13,
        "2143": 66,
        "2144": 99,
        "2145": 176,
        "2146": 100,
        "2147": 203,
        "2148": 3,
        "2149": 209,
        "2150": 165,
        "2151": 87,
        "2152": 107,
        "2153": 87,
        "2154": 60,
        "2155": 250,
        "2156": 39,
        "2157": 229,
        "2158": 36,
        "2159": 103,
        "2160": 182,
        "2161": 208,
        "2162": 194,
        "2163": 21,
        "2164": 208,
        "2165": 17,
        "2166": 53,
        "2167": 64,
        "2168": 76,
        "2169": 245,
        "2170": 52,
        "2171": 209,
        "2172": 18,
        "2173": 50,
        "2174": 66,
        "2175": 63,
        "2176": 22,
        "2177": 21,
        "2178": 61,
        "2179": 210,
        "2180": 9,
        "2181": 135,
        "2182": 63,
        "2183": 24,
        "2184": 187,
        "2185": 196,
        "2186": 154,
        "2187": 64,
        "2188": 21,
        "2189": 131,
        "2190": 188,
        "2191": 2,
        "2192": 200,
        "2193": 82,
        "2194": 143,
        "2195": 239,
        "2196": 90,
        "2197": 96,
        "2198": 55,
        "2199": 217,
        "2200": 150,
        "2201": 213,
        "2202": 87,
        "2203": 16,
        "2204": 111,
        "2205": 133,
        "2206": 29,
        "2207": 202,
        "2208": 147,
        "2209": 58,
        "2210": 49,
        "2211": 189,
        "2212": 90,
        "2213": 228,
        "2214": 186,
        "2215": 15,
        "2216": 76,
        "2217": 145,
        "2218": 152,
        "2219": 253,
        "2220": 95,
        "2221": 247,
        "2222": 146,
        "2223": 147,
        "2224": 164,
        "2225": 75,
        "2226": 104,
        "2227": 116,
        "2228": 143,
        "2229": 42,
        "2230": 195,
        "2231": 104,
        "2232": 43,
        "2233": 78,
        "2234": 111,
        "2235": 72,
        "2236": 26,
        "2237": 28,
        "2238": 193,
        "2239": 144,
        "2240": 134,
        "2241": 172,
        "2242": 42,
        "2243": 43,
        "2244": 237,
        "2245": 215,
        "2246": 144,
        "2247": 119,
        "2248": 80,
        "2249": 66,
        "2250": 78,
        "2251": 213,
        "2252": 204,
        "2253": 123,
        "2254": 247,
        "2255": 182,
        "2256": 74,
        "2257": 229,
        "2258": 223,
        "2259": 9,
        "2260": 173,
        "2261": 76,
        "2262": 139,
        "2263": 207,
        "2264": 120,
        "2265": 101,
        "2266": 17,
        "2267": 224,
        "2268": 235,
        "2269": 226,
        "2270": 58,
        "2271": 136,
        "2272": 43,
        "2273": 78,
        "2274": 190,
        "2275": 119,
        "2276": 9,
        "2277": 31,
        "2278": 6,
        "2279": 158,
        "2280": 216,
        "2281": 27,
        "2282": 207,
        "2283": 211,
        "2284": 105,
        "2285": 182,
        "2286": 60,
        "2287": 76,
        "2288": 138,
        "2289": 54,
        "2290": 22,
        "2291": 197,
        "2292": 121,
        "2293": 19,
        "2294": 234,
        "2295": 46,
        "2296": 0,
        "2297": 120,
        "2298": 242,
        "2299": 104,
        "2300": 227,
        "2301": 48,
        "2302": 35,
        "2303": 133,
        "2304": 225,
        "2305": 223,
        "2306": 14,
        "2307": 244,
        "2308": 154,
        "2309": 111,
        "2310": 171,
        "2311": 187,
        "2312": 114,
        "2313": 187,
        "2314": 227,
        "2315": 71,
        "2316": 38,
        "2317": 103,
        "2318": 113,
        "2319": 114,
        "2320": 198,
        "2321": 191,
        "2322": 123,
        "2323": 161,
        "2324": 250,
        "2325": 118,
        "2326": 203,
        "2327": 213,
        "2328": 106,
        "2329": 110,
        "2330": 188,
        "2331": 73,
        "2332": 9,
        "2333": 73,
        "2334": 192,
        "2335": 124,
        "2336": 68,
        "2337": 81,
        "2338": 171,
        "2339": 57,
        "2340": 86,
        "2341": 184,
        "2342": 72,
        "2343": 123,
        "2344": 111,
        "2345": 12,
        "2346": 165,
        "2347": 171,
        "2348": 241,
        "2349": 157,
        "2350": 140,
        "2351": 234,
        "2352": 211,
        "2353": 250,
        "2354": 186,
        "2355": 252,
        "2356": 248,
        "2357": 244,
        "2358": 2,
        "2359": 56,
        "2360": 111,
        "2361": 33,
        "2362": 49,
        "2363": 99,
        "2364": 197,
        "2365": 200,
        "2366": 79,
        "2367": 217,
        "2368": 152,
        "2369": 214,
        "2370": 48,
        "2371": 106,
        "2372": 8,
        "2373": 172,
        "2374": 55,
        "2375": 156,
        "2376": 49,
        "2377": 110,
        "2378": 18,
        "2379": 197,
        "2380": 155,
        "2381": 32,
        "2382": 34,
        "2383": 182,
        "2384": 140,
        "2385": 182,
        "2386": 26,
        "2387": 67,
        "2388": 172,
        "2389": 250,
        "2390": 147,
        "2391": 231,
        "2392": 237,
        "2393": 191,
        "2394": 133,
        "2395": 235,
        "2396": 245,
        "2397": 12,
        "2398": 50,
        "2399": 172,
        "2400": 244,
        "2401": 244,
        "2402": 33,
        "2403": 34,
        "2404": 75,
        "2405": 165,
        "2406": 174,
        "2407": 178,
        "2408": 146,
        "2409": 202,
        "2410": 13,
        "2411": 254,
        "2412": 199,
        "2413": 171,
        "2414": 172,
        "2415": 17,
        "2416": 161,
        "2417": 189,
        "2418": 7,
        "2419": 236,
        "2420": 56,
        "2421": 196,
        "2422": 181,
        "2423": 29,
        "2424": 16,
        "2425": 7,
        "2426": 134,
        "2427": 204,
        "2428": 4,
        "2429": 91,
        "2430": 17,
        "2431": 242,
        "2432": 251,
        "2433": 235,
        "2434": 214,
        "2435": 47,
        "2436": 6,
        "2437": 151,
        "2438": 128,
        "2439": 22,
        "2440": 20,
        "2441": 21,
        "2442": 103,
        "2443": 181,
        "2444": 114,
        "2445": 26,
        "2446": 51,
        "2447": 97,
        "2448": 78,
        "2449": 77,
        "2450": 103,
        "2451": 134,
        "2452": 146,
        "2453": 128,
        "2454": 45,
        "2455": 113,
        "2456": 157,
        "2457": 180,
        "2458": 207,
        "2459": 109,
        "2460": 135,
        "2461": 219,
        "2462": 51,
        "2463": 112,
        "2464": 65,
        "2465": 159,
        "2466": 86,
        "2467": 144,
        "2468": 28,
        "2469": 127,
        "2470": 137,
        "2471": 112,
        "2472": 251,
        "2473": 40,
        "2474": 125,
        "2475": 25,
        "2476": 105,
        "2477": 116,
        "2478": 96,
        "2479": 233,
        "2480": 244,
        "2481": 87,
        "2482": 169,
        "2483": 84,
        "2484": 46,
        "2485": 222,
        "2486": 26,
        "2487": 228,
        "2488": 243,
        "2489": 253,
        "2490": 173,
        "2491": 38,
        "2492": 66,
        "2493": 235,
        "2494": 58,
        "2495": 232,
        "2496": 100,
        "2497": 158,
        "2498": 6,
        "2499": 220,
        "2500": 219,
        "2501": 234,
        "2502": 252,
        "2503": 156,
        "2504": 90,
        "2505": 86,
        "2506": 95,
        "2507": 126,
        "2508": 28,
        "2509": 100,
        "2510": 204,
        "2511": 62,
        "2512": 85,
        "2513": 67,
        "2514": 45,
        "2515": 127,
        "2516": 248,
        "2517": 77,
        "2518": 36,
        "2519": 33,
        "2520": 59,
        "2521": 153,
        "2522": 121,
        "2523": 130,
        "2524": 61,
        "2525": 243,
        "2526": 46,
        "2527": 143,
        "2528": 151,
        "2529": 240,
        "2530": 21,
        "2531": 172,
        "2532": 179,
        "2533": 101,
        "2534": 57,
        "2535": 135,
        "2536": 223,
        "2537": 134,
        "2538": 201,
        "2539": 248,
        "2540": 34,
        "2541": 82,
        "2542": 102,
        "2543": 101,
        "2544": 1,
        "2545": 202,
        "2546": 14,
        "2547": 141,
        "2548": 88,
        "2549": 181,
        "2550": 205,
        "2551": 58,
        "2552": 161,
        "2553": 232,
        "2554": 133,
        "2555": 37,
        "2556": 163,
        "2557": 18,
        "2558": 181,
        "2559": 101,
        "2560": 130,
        "2561": 246,
        "2562": 124,
        "2563": 175,
        "2564": 118,
        "2565": 202,
        "2566": 51,
        "2567": 177,
        "2568": 85,
        "2569": 110,
        "2570": 166,
        "2571": 223,
        "2572": 49,
        "2573": 246,
        "2574": 81,
        "2575": 24,
        "2576": 90,
        "2577": 119,
        "2578": 25,
        "2579": 167,
        "2580": 10,
        "2581": 219,
        "2582": 168,
        "2583": 123,
        "2584": 184,
        "2585": 161,
        "2586": 158,
        "2587": 116,
        "2588": 87,
        "2589": 225,
        "2590": 220,
        "2591": 106,
        "2592": 168,
        "2593": 176,
        "2594": 169,
        "2595": 36,
        "2596": 135,
        "2597": 244,
        "2598": 95,
        "2599": 65,
        "2600": 158,
        "2601": 111,
        "2602": 21,
        "2603": 72,
        "2604": 89,
        "2605": 231,
        "2606": 102,
        "2607": 19,
        "2608": 102,
        "2609": 190,
        "2610": 59,
        "2611": 240,
        "2612": 164,
        "2613": 153,
        "2614": 55,
        "2615": 30,
        "2616": 191,
        "2617": 39,
        "2618": 248,
        "2619": 198,
        "2620": 230,
        "2621": 206,
        "2622": 3,
        "2623": 104,
        "2624": 4,
        "2625": 221,
        "2626": 14,
        "2627": 181,
        "2628": 174,
        "2629": 205,
        "2630": 199,
        "2631": 186,
        "2632": 135,
        "2633": 243,
        "2634": 7,
        "2635": 33,
        "2636": 138,
        "2637": 221,
        "2638": 223,
        "2639": 58,
        "2640": 254,
        "2641": 15,
        "2642": 60,
        "2643": 41,
        "2644": 193,
        "2645": 251,
        "2646": 215,
        "2647": 39,
        "2648": 242,
        "2649": 218,
        "2650": 106,
        "2651": 143,
        "2652": 39,
        "2653": 214,
        "2654": 247,
        "2655": 3,
        "2656": 13,
        "2657": 229,
        "2658": 24,
        "2659": 169,
        "2660": 130,
        "2661": 115,
        "2662": 204,
        "2663": 251,
        "2664": 148,
        "2665": 18,
        "2666": 33,
        "2667": 145,
        "2668": 146,
        "2669": 59,
        "2670": 70,
        "2671": 83,
        "2672": 138,
        "2673": 196,
        "2674": 165,
        "2675": 221,
        "2676": 111,
        "2677": 147,
        "2678": 160,
        "2679": 182,
        "2680": 193,
        "2681": 103,
        "2682": 12,
        "2683": 200,
        "2684": 217,
        "2685": 38,
        "2686": 60,
        "2687": 225,
        "2688": 156,
        "2689": 69,
        "2690": 57,
        "2691": 165,
        "2692": 31,
        "2693": 12,
        "2694": 152,
        "2695": 241,
        "2696": 253,
        "2697": 154,
        "2698": 10,
        "2699": 198,
        "2700": 186,
        "2701": 92,
        "2702": 147,
        "2703": 255,
        "2704": 44,
        "2705": 165,
        "2706": 127,
        "2707": 110,
        "2708": 1,
        "2709": 159,
        "2710": 14,
        "2711": 106,
        "2712": 127,
        "2713": 171,
        "2714": 232,
        "2715": 129,
        "2716": 5,
        "2717": 86,
        "2718": 103,
        "2719": 140,
        "2720": 220,
        "2721": 69,
        "2722": 4,
        "2723": 230,
        "2724": 129,
        "2725": 71,
        "2726": 154,
        "2727": 230,
        "2728": 13,
        "2729": 74,
        "2730": 219,
        "2731": 23,
        "2732": 133,
        "2733": 156,
        "2734": 254,
        "2735": 57,
        "2736": 72,
        "2737": 244,
        "2738": 224,
        "2739": 111,
        "2740": 156,
        "2741": 228,
        "2742": 64,
        "2743": 98,
        "2744": 121,
        "2745": 200,
        "2746": 90,
        "2747": 211,
        "2748": 84,
        "2749": 176,
        "2750": 190,
        "2751": 143,
        "2752": 191,
        "2753": 15,
        "2754": 164,
        "2755": 114,
        "2756": 34,
        "2757": 4,
        "2758": 107,
        "2759": 57,
        "2760": 227,
        "2761": 60,
        "2762": 214,
        "2763": 244,
        "2764": 154,
        "2765": 249,
        "2766": 190,
        "2767": 63,
        "2768": 55,
        "2769": 125,
        "2770": 239,
        "2771": 86,
        "2772": 48,
        "2773": 27,
        "2774": 49,
        "2775": 127,
        "2776": 45,
        "2777": 242,
        "2778": 81,
        "2779": 44,
        "2780": 230,
        "2781": 147,
        "2782": 93,
        "2783": 220,
        "2784": 247,
        "2785": 93,
        "2786": 51,
        "2787": 157,
        "2788": 88,
        "2789": 87,
        "2790": 5,
        "2791": 176,
        "2792": 36,
        "2793": 202,
        "2794": 89,
        "2795": 111,
        "2796": 13,
        "2797": 86,
        "2798": 23,
        "2799": 22,
        "2800": 194,
        "2801": 48,
        "2802": 152,
        "2803": 200,
        "2804": 5,
        "2805": 5,
        "2806": 215,
        "2807": 221,
        "2808": 141,
        "2809": 27,
        "2810": 217,
        "2811": 28,
        "2812": 29,
        "2813": 172,
        "2814": 249,
        "2815": 243,
        "2816": 107,
        "2817": 107,
        "2818": 138,
        "2819": 241,
        "2820": 182,
        "2821": 226,
        "2822": 0,
        "2823": 27,
        "2824": 51,
        "2825": 157,
        "2826": 90,
        "2827": 82,
        "2828": 210,
        "2829": 173,
        "2830": 20,
        "2831": 164,
        "2832": 182,
        "2833": 201,
        "2834": 239,
        "2835": 253,
        "2836": 55,
        "2837": 175,
        "2838": 166,
        "2839": 225,
        "2840": 186,
        "2841": 179,
        "2842": 213,
        "2843": 201,
        "2844": 220,
        "2845": 165,
        "2846": 160,
        "2847": 106,
        "2848": 180,
        "2849": 135,
        "2850": 9,
        "2851": 200,
        "2852": 175,
        "2853": 8,
        "2854": 161,
        "2855": 151,
        "2856": 76,
        "2857": 166,
        "2858": 67,
        "2859": 38,
        "2860": 81,
        "2861": 48,
        "2862": 206,
        "2863": 169,
        "2864": 71,
        "2865": 170,
        "2866": 134,
        "2867": 90,
        "2868": 230,
        "2869": 196,
        "2870": 15,
        "2871": 165,
        "2872": 231,
        "2873": 92,
        "2874": 36,
        "2875": 12,
        "2876": 232,
        "2877": 245,
        "2878": 55,
        "2879": 90,
        "2880": 63,
        "2881": 3,
        "2882": 236,
        "2883": 176,
        "2884": 251,
        "2885": 151,
        "2886": 131,
        "2887": 64,
        "2888": 145,
        "2889": 161,
        "2890": 158,
        "2891": 66,
        "2892": 118,
        "2893": 223,
        "2894": 107,
        "2895": 200,
        "2896": 105,
        "2897": 166,
        "2898": 235,
        "2899": 129,
        "2900": 8,
        "2901": 24,
        "2902": 125,
        "2903": 205,
        "2904": 223,
        "2905": 212,
        "2906": 242,
        "2907": 43,
        "2908": 72,
        "2909": 118,
        "2910": 247,
        "2911": 162,
        "2912": 58,
        "2913": 88,
        "2914": 81,
        "2915": 164,
        "2916": 211,
        "2917": 136,
        "2918": 238,
        "2919": 203,
        "2920": 167,
        "2921": 95,
        "2922": 210,
        "2923": 250,
        "2924": 109,
        "2925": 20,
        "2926": 225,
        "2927": 84,
        "2928": 145,
        "2929": 152,
        "2930": 52,
        "2931": 3,
        "2932": 244,
        "2933": 123,
        "2934": 60,
        "2935": 166,
        "2936": 246,
        "2937": 91,
        "2938": 92,
        "2939": 227,
        "2940": 1,
        "2941": 191,
        "2942": 47,
        "2943": 189,
        "2944": 191,
        "2945": 177,
        "2946": 93,
        "2947": 162,
        "2948": 198,
        "2949": 42,
        "2950": 207,
        "2951": 37,
        "2952": 22,
        "2953": 52,
        "2954": 153,
        "2955": 38,
        "2956": 87,
        "2957": 232,
        "2958": 66,
        "2959": 101,
        "2960": 101,
        "2961": 246,
        "2962": 82,
        "2963": 220,
        "2964": 208,
        "2965": 193,
        "2966": 78,
        "2967": 71,
        "2968": 158,
        "2969": 193,
        "2970": 150,
        "2971": 106,
        "2972": 226,
        "2973": 109,
        "2974": 126,
        "2975": 222,
        "2976": 245,
        "2977": 54,
        "2978": 86,
        "2979": 223,
        "2980": 145,
        "2981": 20,
        "2982": 4,
        "2983": 220,
        "2984": 171,
        "2985": 137,
        "2986": 123,
        "2987": 212,
        "2988": 228,
        "2989": 172,
        "2990": 20,
        "2991": 216,
        "2992": 43,
        "2993": 165,
        "2994": 209,
        "2995": 193,
        "2996": 5,
        "2997": 155,
        "2998": 154,
        "2999": 202,
        "3000": 129,
        "3001": 139,
        "3002": 74,
        "3003": 121,
        "3004": 199,
        "3005": 174,
        "3006": 73,
        "3007": 144,
        "3008": 201,
        "3009": 63,
        "3010": 173,
        "3011": 241,
        "3012": 65,
        "3013": 222,
        "3014": 10,
        "3015": 197,
        "3016": 136,
        "3017": 46,
        "3018": 176,
        "3019": 101,
        "3020": 199,
        "3021": 166,
        "3022": 213,
        "3023": 139,
        "3024": 213,
        "3025": 211,
        "3026": 179,
        "3027": 66,
        "3028": 191,
        "3029": 169,
        "3030": 126,
        "3031": 197,
        "3032": 227,
        "3033": 166,
        "3034": 96,
        "3035": 93,
        "3036": 249,
        "3037": 139,
        "3038": 10,
        "3039": 27,
        "3040": 113,
        "3041": 103,
        "3042": 219,
        "3043": 94,
        "3044": 247,
        "3045": 220,
        "3046": 171,
        "3047": 85,
        "3048": 108,
        "3049": 74,
        "3050": 79,
        "3051": 159,
        "3052": 139,
        "3053": 35,
        "3054": 192,
        "3055": 224,
        "3056": 15,
        "3057": 120,
        "3058": 165,
        "3059": 116,
        "3060": 56,
        "3061": 150,
        "3062": 237,
        "3063": 248,
        "3064": 36,
        "3065": 211,
        "3066": 34,
        "3067": 236,
        "3068": 189,
        "3069": 45,
        "3070": 136,
        "3071": 15,
        "3072": 123,
        "3073": 137,
        "3074": 141,
        "3075": 206,
        "3076": 133,
        "3077": 94,
        "3078": 177,
        "3079": 164,
        "3080": 210,
        "3081": 4,
        "3082": 84,
        "3083": 89,
        "3084": 21,
        "3085": 225,
        "3086": 60,
        "3087": 195,
        "3088": 175,
        "3089": 251,
        "3090": 98,
        "3091": 189,
        "3092": 178,
        "3093": 29,
        "3094": 205,
        "3095": 139,
        "3096": 80,
        "3097": 19,
        "3098": 37,
        "3099": 188,
        "3100": 225,
        "3101": 209,
        "3102": 231,
        "3103": 229,
        "3104": 79,
        "3105": 174,
        "3106": 10,
        "3107": 200,
        "3108": 111,
        "3109": 89,
        "3110": 77,
        "3111": 130,
        "3112": 254,
        "3113": 100,
        "3114": 194,
        "3115": 68,
        "3116": 148,
        "3117": 50,
        "3118": 8,
        "3119": 57,
        "3120": 220,
        "3121": 229,
        "3122": 83,
        "3123": 149,
        "3124": 123,
        "3125": 199,
        "3126": 91,
        "3127": 154,
        "3128": 35,
        "3129": 6,
        "3130": 153,
        "3131": 103,
        "3132": 248,
        "3133": 231,
        "3134": 101,
        "3135": 31,
        "3136": 66,
        "3137": 251,
        "3138": 219,
        "3139": 71,
        "3140": 10,
        "3141": 40,
        "3142": 255,
        "3143": 198,
        "3144": 49,
        "3145": 121,
        "3146": 36,
        "3147": 14,
        "3148": 8,
        "3149": 200,
        "3150": 93,
        "3151": 211,
        "3152": 178,
        "3153": 235,
        "3154": 87,
        "3155": 100,
        "3156": 30,
        "3157": 84,
        "3158": 80,
        "3159": 0,
        "3160": 193,
        "3161": 136,
        "3162": 121,
        "3163": 168,
        "3164": 182,
        "3165": 97,
        "3166": 220,
        "3167": 3,
        "3168": 79,
        "3169": 73,
        "3170": 255,
        "3171": 171,
        "3172": 181,
        "3173": 92,
        "3174": 7,
        "3175": 130,
        "3176": 103,
        "3177": 8,
        "3178": 143,
        "3179": 254,
        "3180": 98,
        "3181": 221,
        "3182": 196,
        "3183": 8,
        "3184": 28,
        "3185": 250,
        "3186": 151,
        "3187": 137,
        "3188": 197,
        "3189": 144,
        "3190": 64,
        "3191": 34,
        "3192": 74,
        "3193": 27,
        "3194": 93,
        "3195": 38,
        "3196": 209,
        "3197": 136,
        "3198": 104,
        "3199": 235,
        "3200": 142,
        "3201": 170,
        "3202": 247,
        "3203": 80,
        "3204": 245,
        "3205": 114,
        "3206": 192,
        "3207": 83,
        "3208": 169,
        "3209": 244,
        "3210": 48,
        "3211": 215,
        "3212": 70,
        "3213": 170,
        "3214": 117,
        "3215": 26,
        "3216": 198,
        "3217": 87,
        "3218": 48,
        "3219": 227,
        "3220": 1,
        "3221": 139,
        "3222": 56,
        "3223": 239,
        "3224": 119,
        "3225": 238,
        "3226": 73,
        "3227": 142,
        "3228": 173,
        "3229": 68,
        "3230": 125,
        "3231": 139,
        "3232": 130,
        "3233": 107,
        "3234": 135,
        "3235": 175,
        "3236": 37,
        "3237": 96,
        "3238": 73,
        "3239": 52,
        "3240": 174,
        "3241": 199,
        "3242": 144,
        "3243": 16,
        "3244": 38,
        "3245": 32,
        "3246": 81,
        "3247": 154,
        "3248": 35,
        "3249": 83,
        "3250": 159,
        "3251": 90,
        "3252": 6,
        "3253": 98,
        "3254": 192,
        "3255": 136,
        "3256": 79,
        "3257": 250,
        "3258": 63,
        "3259": 185,
        "3260": 148,
        "3261": 163,
        "3262": 36,
        "3263": 224,
        "3264": 133,
        "3265": 165,
        "3266": 242,
        "3267": 21,
        "3268": 69,
        "3269": 222,
        "3270": 46,
        "3271": 250,
        "3272": 165,
        "3273": 2,
        "3274": 249,
        "3275": 26,
        "3276": 15,
        "3277": 130,
        "3278": 44,
        "3279": 44,
        "3280": 205,
        "3281": 101,
        "3282": 144,
        "3283": 58,
        "3284": 135,
        "3285": 244,
        "3286": 152,
        "3287": 167,
        "3288": 4,
        "3289": 43,
        "3290": 180,
        "3291": 96,
        "3292": 220,
        "3293": 121,
        "3294": 225,
        "3295": 1,
        "3296": 180,
        "3297": 205,
        "3298": 209,
        "3299": 124,
        "3300": 50,
        "3301": 213,
        "3302": 194,
        "3303": 247,
        "3304": 164,
        "3305": 236,
        "3306": 174,
        "3307": 229,
        "3308": 30,
        "3309": 187,
        "3310": 30,
        "3311": 237,
        "3312": 18,
        "3313": 19,
        "3314": 27,
        "3315": 73,
        "3316": 4,
        "3317": 53,
        "3318": 18,
        "3319": 192,
        "3320": 166,
        "3321": 123,
        "3322": 212,
        "3323": 234,
        "3324": 66,
        "3325": 107,
        "3326": 210,
        "3327": 166,
        "3328": 121,
        "3329": 182,
        "3330": 52,
        "3331": 253,
        "3332": 187,
        "3333": 107,
        "3334": 5,
        "3335": 27,
        "3336": 242,
        "3337": 25,
        "3338": 0,
        "3339": 54,
        "3340": 159,
        "3341": 67,
        "3342": 51,
        "3343": 118,
        "3344": 21,
        "3345": 112,
        "3346": 64,
        "3347": 139,
        "3348": 102,
        "3349": 85,
        "3350": 76,
        "3351": 92,
        "3352": 216,
        "3353": 190,
        "3354": 141,
        "3355": 65,
        "3356": 248,
        "3357": 188,
        "3358": 249,
        "3359": 120,
        "3360": 132,
        "3361": 26,
        "3362": 73,
        "3363": 102,
        "3364": 143,
        "3365": 127,
        "3366": 208,
        "3367": 61,
        "3368": 228,
        "3369": 100,
        "3370": 161,
        "3371": 13,
        "3372": 238,
        "3373": 234,
        "3374": 33,
        "3375": 61,
        "3376": 67,
        "3377": 22,
        "3378": 140,
        "3379": 34,
        "3380": 51,
        "3381": 219,
        "3382": 80,
        "3383": 2,
        "3384": 47,
        "3385": 139,
        "3386": 101,
        "3387": 20,
        "3388": 18,
        "3389": 60,
        "3390": 69,
        "3391": 170,
        "3392": 24,
        "3393": 220,
        "3394": 84,
        "3395": 130,
        "3396": 152,
        "3397": 104,
        "3398": 148,
        "3399": 39,
        "3400": 73,
        "3401": 58,
        "3402": 236,
        "3403": 148,
        "3404": 250,
        "3405": 64,
        "3406": 25,
        "3407": 112,
        "3408": 253,
        "3409": 225,
        "3410": 120,
        "3411": 138,
        "3412": 175,
        "3413": 202,
        "3414": 178,
        "3415": 203,
        "3416": 174,
        "3417": 7,
        "3418": 51,
        "3419": 197,
        "3420": 32,
        "3421": 49,
        "3422": 84,
        "3423": 211,
        "3424": 108,
        "3425": 68,
        "3426": 248,
        "3427": 177,
        "3428": 86,
        "3429": 38,
        "3430": 68,
        "3431": 225,
        "3432": 6,
        "3433": 239,
        "3434": 73,
        "3435": 182,
        "3436": 218,
        "3437": 239,
        "3438": 105,
        "3439": 205,
        "3440": 194,
        "3441": 131,
        "3442": 254,
        "3443": 159,
        "3444": 88,
        "3445": 72,
        "3446": 18,
        "3447": 106,
        "3448": 139,
        "3449": 36,
        "3450": 168,
        "3451": 36,
        "3452": 97,
        "3453": 241,
        "3454": 253,
        "3455": 34,
        "3456": 147,
        "3457": 98,
        "3458": 127,
        "3459": 121,
        "3460": 160,
        "3461": 86,
        "3462": 122,
        "3463": 29,
        "3464": 211,
        "3465": 234,
        "3466": 235,
        "3467": 215,
        "3468": 9,
        "3469": 176,
        "3470": 159,
        "3471": 74,
        "3472": 176,
        "3473": 67,
        "3474": 229,
        "3475": 224,
        "3476": 98,
        "3477": 127,
        "3478": 5,
        "3479": 174,
        "3480": 77,
        "3481": 6,
        "3482": 183,
        "3483": 125,
        "3484": 54,
        "3485": 22,
        "3486": 205,
        "3487": 188,
        "3488": 174,
        "3489": 89,
        "3490": 81,
        "3491": 180,
        "3492": 18,
        "3493": 227,
        "3494": 212,
        "3495": 40,
        "3496": 175,
        "3497": 204,
        "3498": 105,
        "3499": 69,
        "3500": 77,
        "3501": 178,
        "3502": 92,
        "3503": 237,
        "3504": 158,
        "3505": 91,
        "3506": 30,
        "3507": 129,
        "3508": 236,
        "3509": 159,
        "3510": 91,
        "3511": 21,
        "3512": 168,
        "3513": 28,
        "3514": 69,
        "3515": 209,
        "3516": 183,
        "3517": 99,
        "3518": 100,
        "3519": 116,
        "3520": 34,
        "3521": 171,
        "3522": 128,
        "3523": 254,
        "3524": 208,
        "3525": 234,
        "3526": 28,
        "3527": 32,
        "3528": 129,
        "3529": 86,
        "3530": 18,
        "3531": 104,
        "3532": 39,
        "3533": 19,
        "3534": 212,
        "3535": 112,
        "3536": 1,
        "3537": 29,
        "3538": 105,
        "3539": 225,
        "3540": 110,
        "3541": 165,
        "3542": 198,
        "3543": 247,
        "3544": 19,
        "3545": 218,
        "3546": 27,
        "3547": 70,
        "3548": 169,
        "3549": 255,
        "3550": 156,
        "3551": 179,
        "3552": 53,
        "3553": 216,
        "3554": 100,
        "3555": 242,
        "3556": 54,
        "3557": 93,
        "3558": 88,
        "3559": 22,
        "3560": 33,
        "3561": 181,
        "3562": 92,
        "3563": 105,
        "3564": 103,
        "3565": 168,
        "3566": 195,
        "3567": 192,
        "3568": 235,
        "3569": 57,
        "3570": 238,
        "3571": 13,
        "3572": 170,
        "3573": 37,
        "3574": 149,
        "3575": 13,
        "3576": 45,
        "3577": 227,
        "3578": 176,
        "3579": 195,
        "3580": 30,
        "3581": 137,
        "3582": 97,
        "3583": 137,
        "3584": 95,
        "3585": 250,
        "3586": 231,
        "3587": 130,
        "3588": 79,
        "3589": 142,
        "3590": 231,
        "3591": 121,
        "3592": 100,
        "3593": 114,
        "3594": 165,
        "3595": 171,
        "3596": 33,
        "3597": 10,
        "3598": 21,
        "3599": 147,
        "3600": 126,
        "3601": 83,
        "3602": 137,
        "3603": 89,
        "3604": 180,
        "3605": 130,
        "3606": 75,
        "3607": 173,
        "3608": 20,
        "3609": 40,
        "3610": 63,
        "3611": 117,
        "3612": 192,
        "3613": 194,
        "3614": 19,
        "3615": 208,
        "3616": 152,
        "3617": 85,
        "3618": 141,
        "3619": 231,
        "3620": 205,
        "3621": 198,
        "3622": 121,
        "3623": 231,
        "3624": 102,
        "3625": 7,
        "3626": 236,
        "3627": 150,
        "3628": 15,
        "3629": 149,
        "3630": 244,
        "3631": 40,
        "3632": 208,
        "3633": 116,
        "3634": 151,
        "3635": 42,
        "3636": 18,
        "3637": 221,
        "3638": 188,
        "3639": 133,
        "3640": 72,
        "3641": 122,
        "3642": 205,
        "3643": 26,
        "3644": 160,
        "3645": 86,
        "3646": 61,
        "3647": 248,
        "3648": 107,
        "3649": 140,
        "3650": 22,
        "3651": 142,
        "3652": 7,
        "3653": 189,
        "3654": 240,
        "3655": 227,
        "3656": 127,
        "3657": 4,
        "3658": 164,
        "3659": 153,
        "3660": 85,
        "3661": 214,
        "3662": 103,
        "3663": 165,
        "3664": 149,
        "3665": 134,
        "3666": 81,
        "3667": 143,
        "3668": 113,
        "3669": 150,
        "3670": 148,
        "3671": 24,
        "3672": 92,
        "3673": 85,
        "3674": 25,
        "3675": 7,
        "3676": 114,
        "3677": 247,
        "3678": 56,
        "3679": 57,
        "3680": 29,
        "3681": 202,
        "3682": 56,
        "3683": 49,
        "3684": 22,
        "3685": 82,
        "3686": 115,
        "3687": 95,
        "3688": 227,
        "3689": 85,
        "3690": 137,
        "3691": 213,
        "3692": 123,
        "3693": 69,
        "3694": 156,
        "3695": 27,
        "3696": 110,
        "3697": 175,
        "3698": 170,
        "3699": 84,
        "3700": 33,
        "3701": 138,
        "3702": 23,
        "3703": 245,
        "3704": 17,
        "3705": 221,
        "3706": 62,
        "3707": 18,
        "3708": 251,
        "3709": 38,
        "3710": 206,
        "3711": 37,
        "3712": 199,
        "3713": 184,
        "3714": 20,
        "3715": 77,
        "3716": 30,
        "3717": 228,
        "3718": 43,
        "3719": 38,
        "3720": 184,
        "3721": 137,
        "3722": 19,
        "3723": 154,
        "3724": 224,
        "3725": 53,
        "3726": 93,
        "3727": 136,
        "3728": 180,
        "3729": 118,
        "3730": 109,
        "3731": 40,
        "3732": 214,
        "3733": 140,
        "3734": 45,
        "3735": 5,
        "3736": 154,
        "3737": 190,
        "3738": 98,
        "3739": 121,
        "3740": 96,
        "3741": 212,
        "3742": 0,
        "3743": 70,
        "3744": 193,
        "3745": 12,
        "3746": 142,
        "3747": 188,
        "3748": 145,
        "3749": 175,
        "3750": 129,
        "3751": 58,
        "3752": 172,
        "3753": 33,
        "3754": 116,
        "3755": 59,
        "3756": 92,
        "3757": 198,
        "3758": 122,
        "3759": 129,
        "3760": 111,
        "3761": 233,
        "3762": 126,
        "3763": 194,
        "3764": 4,
        "3765": 24,
        "3766": 176,
        "3767": 222,
        "3768": 51,
        "3769": 216,
        "3770": 98,
        "3771": 136,
        "3772": 82,
        "3773": 159,
        "3774": 139,
        "3775": 55,
        "3776": 182,
        "3777": 32,
        "3778": 202,
        "3779": 130,
        "3780": 228,
        "3781": 37,
        "3782": 230,
        "3783": 129,
        "3784": 22,
        "3785": 231,
        "3786": 158,
        "3787": 93,
        "3788": 67,
        "3789": 246,
        "3790": 228,
        "3791": 96,
        "3792": 88,
        "3793": 178,
        "3794": 247,
        "3795": 58,
        "3796": 147,
        "3797": 170,
        "3798": 70,
        "3799": 94,
        "3800": 34,
        "3801": 8,
        "3802": 41,
        "3803": 113,
        "3804": 3,
        "3805": 245,
        "3806": 127,
        "3807": 40,
        "3808": 218,
        "3809": 116,
        "3810": 114,
        "3811": 119,
        "3812": 174,
        "3813": 213,
        "3814": 20,
        "3815": 57,
        "3816": 145,
        "3817": 152,
        "3818": 204,
        "3819": 115,
        "3820": 99,
        "3821": 134,
        "3822": 133,
        "3823": 109,
        "3824": 31,
        "3825": 124,
        "3826": 79,
        "3827": 46,
        "3828": 241,
        "3829": 142,
        "3830": 72,
        "3831": 253,
        "3832": 160,
        "3833": 53,
        "3834": 177,
        "3835": 8,
        "3836": 203,
        "3837": 103,
        "3838": 183,
        "3839": 224,
        "3840": 150,
        "3841": 94,
        "3842": 142,
        "3843": 143,
        "3844": 40,
        "3845": 176,
        "3846": 250,
        "3847": 128,
        "3848": 0,
        "3849": 218,
        "3850": 215,
        "3851": 9,
        "3852": 79,
        "3853": 183,
        "3854": 174,
        "3855": 47,
        "3856": 104,
        "3857": 133,
        "3858": 28,
        "3859": 58,
        "3860": 251,
        "3861": 225,
        "3862": 213,
        "3863": 156,
        "3864": 212,
        "3865": 150,
        "3866": 145,
        "3867": 147,
        "3868": 121,
        "3869": 191,
        "3870": 51,
        "3871": 135,
        "3872": 168,
        "3873": 123,
        "3874": 153,
        "3875": 218,
        "3876": 136,
        "3877": 26,
        "3878": 61,
        "3879": 145,
        "3880": 193,
        "3881": 3,
        "3882": 181,
        "3883": 4,
        "3884": 215,
        "3885": 219,
        "3886": 2,
        "3887": 24,
        "3888": 53,
        "3889": 176,
        "3890": 161,
        "3891": 131,
        "3892": 69,
        "3893": 122,
        "3894": 101,
        "3895": 126,
        "3896": 148,
        "3897": 67,
        "3898": 12,
        "3899": 230,
        "3900": 123,
        "3901": 182,
        "3902": 54,
        "3903": 173,
        "3904": 185,
        "3905": 178,
        "3906": 69,
        "3907": 64,
        "3908": 31,
        "3909": 5,
        "3910": 243,
        "3911": 3,
        "3912": 10,
        "3913": 139,
        "3914": 22,
        "3915": 130,
        "3916": 226,
        "3917": 211,
        "3918": 7,
        "3919": 174,
        "3920": 245,
        "3921": 81,
        "3922": 53,
        "3923": 82,
        "3924": 153,
        "3925": 182,
        "3926": 80,
        "3927": 22,
        "3928": 156,
        "3929": 30,
        "3930": 102,
        "3931": 188,
        "3932": 167,
        "3933": 69,
        "3934": 249,
        "3935": 0,
        "3936": 238,
        "3937": 212,
        "3938": 221,
        "3939": 21,
        "3940": 29,
        "3941": 215,
        "3942": 127,
        "3943": 110,
        "3944": 42,
        "3945": 213,
        "3946": 222,
        "3947": 174,
        "3948": 115,
        "3949": 132,
        "3950": 177,
        "3951": 242,
        "3952": 141,
        "3953": 88,
        "3954": 7,
        "3955": 36,
        "3956": 237,
        "3957": 63,
        "3958": 86,
        "3959": 14,
        "3960": 28,
        "3961": 100,
        "3962": 102,
        "3963": 104,
        "3964": 28,
        "3965": 151,
        "3966": 8,
        "3967": 97,
        "3968": 90,
        "3969": 176,
        "3970": 58,
        "3971": 143,
        "3972": 144,
        "3973": 56,
        "3974": 134,
        "3975": 76,
        "3976": 63,
        "3977": 137,
        "3978": 198,
        "3979": 36,
        "3980": 7,
        "3981": 184,
        "3982": 165,
        "3983": 6,
        "3984": 121,
        "3985": 60,
        "3986": 59,
        "3987": 118,
        "3988": 62,
        "3989": 198,
        "3990": 189,
        "3991": 195,
        "3992": 18,
        "3993": 253,
        "3994": 245,
        "3995": 210,
        "3996": 44,
        "3997": 221,
        "3998": 23,
        "3999": 49,
        "4000": 245,
        "4001": 159,
        "4002": 225,
        "4003": 57,
        "4004": 109,
        "4005": 53,
        "4006": 182,
        "4007": 228,
        "4008": 45,
        "4009": 173,
        "4010": 198,
        "4011": 215,
        "4012": 179,
        "4013": 90,
        "4014": 37,
        "4015": 214,
        "4016": 215,
        "4017": 232,
        "4018": 233,
        "4019": 184,
        "4020": 48,
        "4021": 147,
        "4022": 252,
        "4023": 75,
        "4024": 131,
        "4025": 123,
        "4026": 58,
        "4027": 121,
        "4028": 102,
        "4029": 201,
        "4030": 39,
        "4031": 68,
        "4032": 134,
        "4033": 178,
        "4034": 242,
        "4035": 178,
        "4036": 2,
        "4037": 14,
        "4038": 40,
        "4039": 236,
        "4040": 97,
        "4041": 10,
        "4042": 78,
        "4043": 68,
        "4044": 78,
        "4045": 49,
        "4046": 66,
        "4047": 91,
        "4048": 203,
        "4049": 103,
        "4050": 41,
        "4051": 59,
        "4052": 117,
        "4053": 7,
        "4054": 206,
        "4055": 90,
        "4056": 145,
        "4057": 193,
        "4058": 41,
        "4059": 251,
        "4060": 147,
        "4061": 134,
        "4062": 137,
        "4063": 114,
        "4064": 42,
        "4065": 102,
        "4066": 166,
        "4067": 106,
        "4068": 74,
        "4069": 17,
        "4070": 141,
        "4071": 88,
        "4072": 105,
        "4073": 226,
        "4074": 62,
        "4075": 221,
        "4076": 155,
        "4077": 81,
        "4078": 143,
        "4079": 199,
        "4080": 162,
        "4081": 32,
        "4082": 16,
        "4083": 142,
        "4084": 7,
        "4085": 250,
        "4086": 163,
        "4087": 179,
        "4088": 243,
        "4089": 251,
        "4090": 222,
        "4091": 112,
        "4092": 165,
        "4093": 100,
        "4094": 80,
        "4095": 128,
        "4096": 251,
        "4097": 241,
        "4098": 170,
        "4099": 244,
        "4100": 124,
        "4101": 0,
        "4102": 227,
        "4103": 113,
        "4104": 158,
        "4105": 215,
        "4106": 29,
        "4107": 10,
        "4108": 208,
        "4109": 33,
        "4110": 12,
        "4111": 32,
        "4112": 52,
        "4113": 206,
        "4114": 45,
        "4115": 58,
        "4116": 128,
        "4117": 184,
        "4118": 183,
        "4119": 202,
        "4120": 84,
        "4121": 0,
        "4122": 223,
        "4123": 13,
        "4124": 165,
        "4125": 147,
        "4126": 146,
        "4127": 221,
        "4128": 162,
        "4129": 152,
        "4130": 40,
        "4131": 25,
        "4132": 140,
        "4133": 108,
        "4134": 237,
        "4135": 229,
        "4136": 122,
        "4137": 160,
        "4138": 131,
        "4139": 166,
        "4140": 195,
        "4141": 133,
        "4142": 193,
        "4143": 14,
        "4144": 134,
        "4145": 108,
        "4146": 228,
        "4147": 225,
        "4148": 107,
        "4149": 90,
        "4150": 67,
        "4151": 127,
        "4152": 158,
        "4153": 19,
        "4154": 243,
        "4155": 34,
        "4156": 34,
        "4157": 136,
        "4158": 166,
        "4159": 63,
        "4160": 249,
        "4161": 4,
        "4162": 65,
        "4163": 75,
        "4164": 223,
        "4165": 96,
        "4166": 72,
        "4167": 113,
        "4168": 186,
        "4169": 176,
        "4170": 214,
        "4171": 143,
        "4172": 19,
        "4173": 133,
        "4174": 88,
        "4175": 11,
        "4176": 171,
        "4177": 183,
        "4178": 116,
        "4179": 121,
        "4180": 105,
        "4181": 152,
        "4182": 155,
        "4183": 82,
        "4184": 104,
        "4185": 223,
        "4186": 198,
        "4187": 160,
        "4188": 225,
        "4189": 65,
        "4190": 124,
        "4191": 48,
        "4192": 104,
        "4193": 145,
        "4194": 26,
        "4195": 224,
        "4196": 249,
        "4197": 73,
        "4198": 150,
        "4199": 165,
        "4200": 39,
        "4201": 94,
        "4202": 1,
        "4203": 214,
        "4204": 59,
        "4205": 27,
        "4206": 216,
        "4207": 89,
        "4208": 6,
        "4209": 212,
        "4210": 16,
        "4211": 35,
        "4212": 118,
        "4213": 81,
        "4214": 128,
        "4215": 93,
        "4216": 162,
        "4217": 46,
        "4218": 153,
        "4219": 176,
        "4220": 39,
        "4221": 202,
        "4222": 138,
        "4223": 0,
        "4224": 51,
        "4225": 20,
        "4226": 118,
        "4227": 29,
        "4228": 82,
        "4229": 206,
        "4230": 39,
        "4231": 145,
        "4232": 102,
        "4233": 205,
        "4234": 233,
        "4235": 106,
        "4236": 81,
        "4237": 24,
        "4238": 53,
        "4239": 164,
        "4240": 102,
        "4241": 252,
        "4242": 204,
        "4243": 93,
        "4244": 188,
        "4245": 37,
        "4246": 178,
        "4247": 5,
        "4248": 36,
        "4249": 185,
        "4250": 220,
        "4251": 141,
        "4252": 228,
        "4253": 138,
        "4254": 26,
        "4255": 41,
        "4256": 82,
        "4257": 98,
        "4258": 228,
        "4259": 179,
        "4260": 92,
        "4261": 195,
        "4262": 46,
        "4263": 139,
        "4264": 7,
        "4265": 179,
        "4266": 199,
        "4267": 122,
        "4268": 13,
        "4269": 71,
        "4270": 159,
        "4271": 56,
        "4272": 222,
        "4273": 77,
        "4274": 237,
        "4275": 145,
        "4276": 13,
        "4277": 196,
        "4278": 65,
        "4279": 29,
        "4280": 42,
        "4281": 151,
        "4282": 151,
        "4283": 169,
        "4284": 86,
        "4285": 84,
        "4286": 7,
        "4287": 10,
        "4288": 249,
        "4289": 23,
        "4290": 231,
        "4291": 28,
        "4292": 190,
        "4293": 186,
        "4294": 21,
        "4295": 45,
        "4296": 139,
        "4297": 211,
        "4298": 12,
        "4299": 146,
        "4300": 17,
        "4301": 140,
        "4302": 34,
        "4303": 216,
        "4304": 163,
        "4305": 227,
        "4306": 108,
        "4307": 107,
        "4308": 20,
        "4309": 183,
        "4310": 27,
        "4311": 252,
        "4312": 232,
        "4313": 123,
        "4314": 205,
        "4315": 206,
        "4316": 34,
        "4317": 124,
        "4318": 123,
        "4319": 221,
        "4320": 28,
        "4321": 134,
        "4322": 165,
        "4323": 128,
        "4324": 216,
        "4325": 251,
        "4326": 227,
        "4327": 47,
        "4328": 48,
        "4329": 47,
        "4330": 177,
        "4331": 110,
        "4332": 171,
        "4333": 141,
        "4334": 90,
        "4335": 100,
        "4336": 7,
        "4337": 214,
        "4338": 57,
        "4339": 125,
        "4340": 249,
        "4341": 203,
        "4342": 155,
        "4343": 159,
        "4344": 237,
        "4345": 123,
        "4346": 190,
        "4347": 5,
        "4348": 86,
        "4349": 135,
        "4350": 138,
        "4351": 139,
        "4352": 66,
        "4353": 100,
        "4354": 107,
        "4355": 138,
        "4356": 158,
        "4357": 24,
        "4358": 61,
        "4359": 13,
        "4360": 48,
        "4361": 17,
        "4362": 157,
        "4363": 236,
        "4364": 119,
        "4365": 86,
        "4366": 28,
        "4367": 213,
        "4368": 137,
        "4369": 85,
        "4370": 80,
        "4371": 229,
        "4372": 169,
        "4373": 87,
        "4374": 120,
        "4375": 162,
        "4376": 249,
        "4377": 185,
        "4378": 238,
        "4379": 75,
        "4380": 39,
        "4381": 192,
        "4382": 228,
        "4383": 115,
        "4384": 23,
        "4385": 70,
        "4386": 246,
        "4387": 186,
        "4388": 62,
        "4389": 56,
        "4390": 171,
        "4391": 146,
        "4392": 172,
        "4393": 160,
        "4394": 245,
        "4395": 163,
        "4396": 124,
        "4397": 207,
        "4398": 84,
        "4399": 254,
        "4400": 7,
        "4401": 80,
        "4402": 95,
        "4403": 224,
        "4404": 136,
        "4405": 68,
        "4406": 185,
        "4407": 105,
        "4408": 38,
        "4409": 82,
        "4410": 15,
        "4411": 9,
        "4412": 181,
        "4413": 244,
        "4414": 177,
        "4415": 86,
        "4416": 20,
        "4417": 104,
        "4418": 199,
        "4419": 111,
        "4420": 182,
        "4421": 252,
        "4422": 246,
        "4423": 208,
        "4424": 124,
        "4425": 148,
        "4426": 237,
        "4427": 135,
        "4428": 215,
        "4429": 51,
        "4430": 129,
        "4431": 4,
        "4432": 42,
        "4433": 85,
        "4434": 100,
        "4435": 173,
        "4436": 124,
        "4437": 17,
        "4438": 54,
        "4439": 78,
        "4440": 72,
        "4441": 34,
        "4442": 10,
        "4443": 34,
        "4444": 67,
        "4445": 227,
        "4446": 193,
        "4447": 236,
        "4448": 243,
        "4449": 114,
        "4450": 71,
        "4451": 242,
        "4452": 108,
        "4453": 100,
        "4454": 90,
        "4455": 113,
        "4456": 53,
        "4457": 139,
        "4458": 70,
        "4459": 72,
        "4460": 22,
        "4461": 196,
        "4462": 161,
        "4463": 87,
        "4464": 53,
        "4465": 185,
        "4466": 106,
        "4467": 46,
        "4468": 135,
        "4469": 203,
        "4470": 179,
        "4471": 70,
        "4472": 234,
        "4473": 178,
        "4474": 235,
        "4475": 13,
        "4476": 188,
        "4477": 160,
        "4478": 120,
        "4479": 243,
        "4480": 225,
        "4481": 141,
        "4482": 164,
        "4483": 76,
        "4484": 174,
        "4485": 201,
        "4486": 163,
        "4487": 135,
        "4488": 118,
        "4489": 83,
        "4490": 86,
        "4491": 62,
        "4492": 159,
        "4493": 93,
        "4494": 186,
        "4495": 210,
        "4496": 0,
        "4497": 230,
        "4498": 192,
        "4499": 119,
        "4500": 106,
        "4501": 65,
        "4502": 64,
        "4503": 14,
        "4504": 203,
        "4505": 10,
        "4506": 111,
        "4507": 18,
        "4508": 109,
        "4509": 27,
        "4510": 254,
        "4511": 115,
        "4512": 25,
        "4513": 134,
        "4514": 194,
        "4515": 253,
        "4516": 107,
        "4517": 6,
        "4518": 69,
        "4519": 125,
        "4520": 33,
        "4521": 186,
        "4522": 253,
        "4523": 67,
        "4524": 240,
        "4525": 118,
        "4526": 64,
        "4527": 19,
        "4528": 3,
        "4529": 44,
        "4530": 233,
        "4531": 128,
        "4532": 210,
        "4533": 183,
        "4534": 140,
        "4535": 20,
        "4536": 157,
        "4537": 128,
        "4538": 80,
        "4539": 52,
        "4540": 118,
        "4541": 146,
        "4542": 68,
        "4543": 157,
        "4544": 90,
        "4545": 59,
        "4546": 169,
        "4547": 188,
        "4548": 84,
        "4549": 198,
        "4550": 94,
        "4551": 181,
        "4552": 222,
        "4553": 19,
        "4554": 244,
        "4555": 67,
        "4556": 195,
        "4557": 132,
        "4558": 48,
        "4559": 109,
        "4560": 48,
        "4561": 98,
        "4562": 106,
        "4563": 179,
        "4564": 158,
        "4565": 139,
        "4566": 65,
        "4567": 239,
        "4568": 168,
        "4569": 37,
        "4570": 142,
        "4571": 56,
        "4572": 222,
        "4573": 114,
        "4574": 143,
        "4575": 15,
        "4576": 172,
        "4577": 243,
        "4578": 26,
        "4579": 76,
        "4580": 106,
        "4581": 201,
        "4582": 91,
        "4583": 228,
        "4584": 59,
        "4585": 223,
        "4586": 22,
        "4587": 192,
        "4588": 55,
        "4589": 163,
        "4590": 231,
        "4591": 122,
        "4592": 248,
        "4593": 15,
        "4594": 205,
        "4595": 119,
        "4596": 121,
        "4597": 38,
        "4598": 8,
        "4599": 133,
        "4600": 39,
        "4601": 88,
        "4602": 41,
        "4603": 218,
        "4604": 77,
        "4605": 206,
        "4606": 84,
        "4607": 185,
        "4608": 230,
        "4609": 153,
        "4610": 204,
        "4611": 248,
        "4612": 27,
        "4613": 190,
        "4614": 197,
        "4615": 207,
        "4616": 58,
        "4617": 247,
        "4618": 91,
        "4619": 178,
        "4620": 61,
        "4621": 229,
        "4622": 85,
        "4623": 132,
        "4624": 195,
        "4625": 110,
        "4626": 253,
        "4627": 92,
        "4628": 102,
        "4629": 10,
        "4630": 139,
        "4631": 110,
        "4632": 9,
        "4633": 115,
        "4634": 195,
        "4635": 26,
        "4636": 227,
        "4637": 245,
        "4638": 164,
        "4639": 90,
        "4640": 83,
        "4641": 19,
        "4642": 129,
        "4643": 99,
        "4644": 190,
        "4645": 163,
        "4646": 199,
        "4647": 67,
        "4648": 124,
        "4649": 75,
        "4650": 87,
        "4651": 223,
        "4652": 233,
        "4653": 7,
        "4654": 238,
        "4655": 169,
        "4656": 184,
        "4657": 245,
        "4658": 62,
        "4659": 190,
        "4660": 105,
        "4661": 199,
        "4662": 155,
        "4663": 204,
        "4664": 243,
        "4665": 200,
        "4666": 92,
        "4667": 107,
        "4668": 71,
        "4669": 101,
        "4670": 40,
        "4671": 99,
        "4672": 111,
        "4673": 82,
        "4674": 76,
        "4675": 247,
        "4676": 60,
        "4677": 178,
        "4678": 39,
        "4679": 85,
        "4680": 182,
        "4681": 216,
        "4682": 226,
        "4683": 47,
        "4684": 218,
        "4685": 10,
        "4686": 181,
        "4687": 101,
        "4688": 36,
        "4689": 162,
        "4690": 69,
        "4691": 192,
        "4692": 205,
        "4693": 195,
        "4694": 253,
        "4695": 7,
        "4696": 170,
        "4697": 224,
        "4698": 163,
        "4699": 175,
        "4700": 190,
        "4701": 102,
        "4702": 119,
        "4703": 32,
        "4704": 224,
        "4705": 97,
        "4706": 76,
        "4707": 192,
        "4708": 244,
        "4709": 3,
        "4710": 204,
        "4711": 65,
        "4712": 162,
        "4713": 9,
        "4714": 150,
        "4715": 203,
        "4716": 108,
        "4717": 216,
        "4718": 135,
        "4719": 96,
        "4720": 65,
        "4721": 61,
        "4722": 173,
        "4723": 23,
        "4724": 180,
        "4725": 217,
        "4726": 39,
        "4727": 165,
        "4728": 112,
        "4729": 235,
        "4730": 71,
        "4731": 134,
        "4732": 172,
        "4733": 126,
        "4734": 89,
        "4735": 253,
        "4736": 132,
        "4737": 37,
        "4738": 62,
        "4739": 0,
        "4740": 109,
        "4741": 41,
        "4742": 195,
        "4743": 243,
        "4744": 2,
        "4745": 141,
        "4746": 90,
        "4747": 58,
        "4748": 25,
        "4749": 130,
        "4750": 151,
        "4751": 43,
        "4752": 45,
        "4753": 29,
        "4754": 36,
        "4755": 166,
        "4756": 63,
        "4757": 118,
        "4758": 106,
        "4759": 212,
        "4760": 234,
        "4761": 0,
        "4762": 93,
        "4763": 167,
        "4764": 33,
        "4765": 161,
        "4766": 105,
        "4767": 17,
        "4768": 147,
        "4769": 251,
        "4770": 38,
        "4771": 61,
        "4772": 141,
        "4773": 42,
        "4774": 238,
        "4775": 3,
        "4776": 192,
        "4777": 181,
        "4778": 139,
        "4779": 109,
        "4780": 83,
        "4781": 85,
        "4782": 217,
        "4783": 98,
        "4784": 115,
        "4785": 76,
        "4786": 36,
        "4787": 233,
        "4788": 238,
        "4789": 25,
        "4790": 238,
        "4791": 23,
        "4792": 9,
        "4793": 153,
        "4794": 123,
        "4795": 40,
        "4796": 9,
        "4797": 9,
        "4798": 141,
        "4799": 182,
        "4800": 44,
        "4801": 8,
        "4802": 247,
        "4803": 187,
        "4804": 186,
        "4805": 178,
        "4806": 162,
        "4807": 158,
        "4808": 103,
        "4809": 134,
        "4810": 95,
        "4811": 33,
        "4812": 180,
        "4813": 111,
        "4814": 86,
        "4815": 219,
        "4816": 245,
        "4817": 15,
        "4818": 146,
        "4819": 61,
        "4820": 208,
        "4821": 95,
        "4822": 23,
        "4823": 86,
        "4824": 224,
        "4825": 6,
        "4826": 89,
        "4827": 86,
        "4828": 124,
        "4829": 65,
        "4830": 45,
        "4831": 250,
        "4832": 201,
        "4833": 207,
        "4834": 255,
        "4835": 9,
        "4836": 253,
        "4837": 138,
        "4838": 114,
        "4839": 222,
        "4840": 182,
        "4841": 180,
        "4842": 182,
        "4843": 242,
        "4844": 201,
        "4845": 104,
        "4846": 77,
        "4847": 16,
        "4848": 4,
        "4849": 237,
        "4850": 49,
        "4851": 185,
        "4852": 168,
        "4853": 184,
        "4854": 77,
        "4855": 110,
        "4856": 99,
        "4857": 157,
        "4858": 47,
        "4859": 48,
        "4860": 213,
        "4861": 214,
        "4862": 82,
        "4863": 205,
        "4864": 102,
        "4865": 196,
        "4866": 104,
        "4867": 188,
        "4868": 168,
        "4869": 221,
        "4870": 115,
        "4871": 131,
        "4872": 128,
        "4873": 33,
        "4874": 25,
        "4875": 199,
        "4876": 149,
        "4877": 209,
        "4878": 36,
        "4879": 181,
        "4880": 207,
        "4881": 101,
        "4882": 103,
        "4883": 175,
        "4884": 19,
        "4885": 205,
        "4886": 230,
        "4887": 126,
        "4888": 51,
        "4889": 39,
        "4890": 59,
        "4891": 80,
        "4892": 16,
        "4893": 124,
        "4894": 127,
        "4895": 239,
        "4896": 110,
        "4897": 29,
        "4898": 31,
        "4899": 198,
        "4900": 10,
        "4901": 37,
        "4902": 101,
        "4903": 144,
        "4904": 107,
        "4905": 181,
        "4906": 215,
        "4907": 11,
        "4908": 162,
        "4909": 161,
        "4910": 85,
        "4911": 77,
        "4912": 235,
        "4913": 83,
        "4914": 168,
        "4915": 56,
        "4916": 0,
        "4917": 67,
        "4918": 61,
        "4919": 141,
        "4920": 113,
        "4921": 231,
        "4922": 55,
        "4923": 236,
        "4924": 20,
        "4925": 127,
        "4926": 214,
        "4927": 255,
        "4928": 125,
        "4929": 46,
        "4930": 210,
        "4931": 44,
        "4932": 141,
        "4933": 65,
        "4934": 34,
        "4935": 56,
        "4936": 48,
        "4937": 149,
        "4938": 214,
        "4939": 209,
        "4940": 60,
        "4941": 231,
        "4942": 248,
        "4943": 242,
        "4944": 161,
        "4945": 136,
        "4946": 212,
        "4947": 10,
        "4948": 49,
        "4949": 82,
        "4950": 248,
        "4951": 42,
        "4952": 193,
        "4953": 165,
        "4954": 13,
        "4955": 166,
        "4956": 58,
        "4957": 231,
        "4958": 194,
        "4959": 102,
        "4960": 24,
        "4961": 184,
        "4962": 169,
        "4963": 225,
        "4964": 126,
        "4965": 81,
        "4966": 117,
        "4967": 54,
        "4968": 151,
        "4969": 213,
        "4970": 106,
        "4971": 255,
        "4972": 104,
        "4973": 77,
        "4974": 53,
        "4975": 255,
        "4976": 251,
        "4977": 49,
        "4978": 25,
        "4979": 146,
        "4980": 4,
        "4981": 228,
        "4982": 218,
        "4983": 131,
        "4984": 149,
        "4985": 254,
        "4986": 19,
        "4987": 116,
        "4988": 153,
        "4989": 45,
        "4990": 29,
        "4991": 128,
        "4992": 189,
        "4993": 172,
        "4994": 61,
        "4995": 177,
        "4996": 215,
        "4997": 241,
        "4998": 179,
        "4999": 219,
        "5000": 195,
        "5001": 131,
        "5002": 3,
        "5003": 113,
        "5004": 35,
        "5005": 18,
        "5006": 102,
        "5007": 13,
        "5008": 171,
        "5009": 247,
        "5010": 194,
        "5011": 141,
        "5012": 119,
        "5013": 32,
        "5014": 224,
        "5015": 109,
        "5016": 73,
        "5017": 254,
        "5018": 69,
        "5019": 129,
        "5020": 167,
        "5021": 144,
        "5022": 189,
        "5023": 141,
        "5024": 147,
        "5025": 117,
        "5026": 229,
        "5027": 222,
        "5028": 88,
        "5029": 86,
        "5030": 193,
        "5031": 134,
        "5032": 23,
        "5033": 118,
        "5034": 73,
        "5035": 150,
        "5036": 125,
        "5037": 109,
        "5038": 198,
        "5039": 146,
        "5040": 215,
        "5041": 107,
        "5042": 125,
        "5043": 25,
        "5044": 166,
        "5045": 110,
        "5046": 41,
        "5047": 142,
        "5048": 241,
        "5049": 191,
        "5050": 206,
        "5051": 0,
        "5052": 16,
        "5053": 216,
        "5054": 139,
        "5055": 200,
        "5056": 128,
        "5057": 142,
        "5058": 222,
        "5059": 195,
        "5060": 128,
        "5061": 209,
        "5062": 100,
        "5063": 147,
        "5064": 113,
        "5065": 201,
        "5066": 171,
        "5067": 65,
        "5068": 56,
        "5069": 29,
        "5070": 206,
        "5071": 197,
        "5072": 230,
        "5073": 177,
        "5074": 96,
        "5075": 125,
        "5076": 129,
        "5077": 205,
        "5078": 210,
        "5079": 43,
        "5080": 142,
        "5081": 136,
        "5082": 163,
        "5083": 97,
        "5084": 183,
        "5085": 81,
        "5086": 16,
        "5087": 173,
        "5088": 243,
        "5089": 213,
        "5090": 254,
        "5091": 161,
        "5092": 166,
        "5093": 248,
        "5094": 208,
        "5095": 196,
        "5096": 74,
        "5097": 160,
        "5098": 55,
        "5099": 155,
        "5100": 166,
        "5101": 151,
        "5102": 192,
        "5103": 56,
        "5104": 5,
        "5105": 63,
        "5106": 220,
        "5107": 47,
        "5108": 135,
        "5109": 225,
        "5110": 81,
        "5111": 229,
        "5112": 51,
        "5113": 162,
        "5114": 110,
        "5115": 178,
        "5116": 248,
        "5117": 218,
        "5118": 25,
        "5119": 129,
        "5120": 65,
        "5121": 118,
        "5122": 208,
        "5123": 198,
        "5124": 138,
        "5125": 43,
        "5126": 33,
        "5127": 191,
        "5128": 245,
        "5129": 174,
        "5130": 143,
        "5131": 205,
        "5132": 156,
        "5133": 217,
        "5134": 41,
        "5135": 0,
        "5136": 67,
        "5137": 1,
        "5138": 145,
        "5139": 80,
        "5140": 64,
        "5141": 56,
        "5142": 52,
        "5143": 45,
        "5144": 40,
        "5145": 6,
        "5146": 118,
        "5147": 209,
        "5148": 226,
        "5149": 118,
        "5150": 243,
        "5151": 150,
        "5152": 69,
        "5153": 178,
        "5154": 211,
        "5155": 198,
        "5156": 175,
        "5157": 18,
        "5158": 162,
        "5159": 138,
        "5160": 55,
        "5161": 148,
        "5162": 112,
        "5163": 164,
        "5164": 150,
        "5165": 150,
        "5166": 104,
        "5167": 239,
        "5168": 195,
        "5169": 250,
        "5170": 40,
        "5171": 56,
        "5172": 69,
        "5173": 143,
        "5174": 103,
        "5175": 173,
        "5176": 36,
        "5177": 69,
        "5178": 114,
        "5179": 176,
        "5180": 18,
        "5181": 79,
        "5182": 110,
        "5183": 163,
        "5184": 253,
        "5185": 128,
        "5186": 40,
        "5187": 236,
        "5188": 207,
        "5189": 125,
        "5190": 164,
        "5191": 39,
        "5192": 175,
        "5193": 63,
        "5194": 24,
        "5195": 148,
        "5196": 62,
        "5197": 241,
        "5198": 64,
        "5199": 103,
        "5200": 234,
        "5201": 16,
        "5202": 97,
        "5203": 137,
        "5204": 247,
        "5205": 118,
        "5206": 23,
        "5207": 117,
        "5208": 29,
        "5209": 47,
        "5210": 252,
        "5211": 208,
        "5212": 148,
        "5213": 181,
        "5214": 64,
        "5215": 51,
        "5216": 228,
        "5217": 1,
        "5218": 90,
        "5219": 136,
        "5220": 250,
        "5221": 234,
        "5222": 96,
        "5223": 132,
        "5224": 180,
        "5225": 29,
        "5226": 245,
        "5227": 246,
        "5228": 15,
        "5229": 137,
        "5230": 141,
        "5231": 242,
        "5232": 217,
        "5233": 216,
        "5234": 172,
        "5235": 224,
        "5236": 234,
        "5237": 216,
        "5238": 19,
        "5239": 234,
        "5240": 152,
        "5241": 5,
        "5242": 144,
        "5243": 160,
        "5244": 177,
        "5245": 191,
        "5246": 52,
        "5247": 113,
        "5248": 44,
        "5249": 182,
        "5250": 74,
        "5251": 165,
        "5252": 122,
        "5253": 68,
        "5254": 182,
        "5255": 129,
        "5256": 56,
        "5257": 10,
        "5258": 233,
        "5259": 59,
        "5260": 2,
        "5261": 198,
        "5262": 40,
        "5263": 231,
        "5264": 198,
        "5265": 15,
        "5266": 177,
        "5267": 235,
        "5268": 51,
        "5269": 211,
        "5270": 8,
        "5271": 132,
        "5272": 210,
        "5273": 33,
        "5274": 120,
        "5275": 191,
        "5276": 54,
        "5277": 110,
        "5278": 20,
        "5279": 144,
        "5280": 110,
        "5281": 115,
        "5282": 46,
        "5283": 103,
        "5284": 174,
        "5285": 123,
        "5286": 101,
        "5287": 193,
        "5288": 52,
        "5289": 235,
        "5290": 15,
        "5291": 159,
        "5292": 64,
        "5293": 238,
        "5294": 153,
        "5295": 17,
        "5296": 136,
        "5297": 152,
        "5298": 222,
        "5299": 116,
        "5300": 178,
        "5301": 51,
        "5302": 120,
        "5303": 193,
        "5304": 213,
        "5305": 167,
        "5306": 214,
        "5307": 7,
        "5308": 17,
        "5309": 79,
        "5310": 73,
        "5311": 159,
        "5312": 66,
        "5313": 123,
        "5314": 192,
        "5315": 34,
        "5316": 69,
        "5317": 186,
        "5318": 217,
        "5319": 252,
        "5320": 87,
        "5321": 199,
        "5322": 92,
        "5323": 67,
        "5324": 225,
        "5325": 238,
        "5326": 221,
        "5327": 180,
        "5328": 193,
        "5329": 226,
        "5330": 6,
        "5331": 180,
        "5332": 81,
        "5333": 165,
        "5334": 218,
        "5335": 174,
        "5336": 209,
        "5337": 204,
        "5338": 7,
        "5339": 129,
        "5340": 240,
        "5341": 247,
        "5342": 255,
        "5343": 21,
        "5344": 2,
        "5345": 3,
        "5346": 126,
        "5347": 8,
        "5348": 58,
        "5349": 91,
        "5350": 205,
        "5351": 123,
        "5352": 104,
        "5353": 27,
        "5354": 82,
        "5355": 65,
        "5356": 130,
        "5357": 21,
        "5358": 155,
        "5359": 238,
        "5360": 233,
        "5361": 30,
        "5362": 127,
        "5363": 75,
        "5364": 202,
        "5365": 153,
        "5366": 86,
        "5367": 138,
        "5368": 37,
        "5369": 227,
        "5370": 128,
        "5371": 113,
        "5372": 183,
        "5373": 253,
        "5374": 39,
        "5375": 116,
        "5376": 13,
        "5377": 237,
        "5378": 67,
        "5379": 177,
        "5380": 40,
        "5381": 72,
        "5382": 245,
        "5383": 219,
        "5384": 243,
        "5385": 99,
        "5386": 40,
        "5387": 24,
        "5388": 126,
        "5389": 36,
        "5390": 28,
        "5391": 169,
        "5392": 167,
        "5393": 73,
        "5394": 35,
        "5395": 66,
        "5396": 4,
        "5397": 11,
        "5398": 176,
        "5399": 79,
        "5400": 108,
        "5401": 111,
        "5402": 144,
        "5403": 28,
        "5404": 101,
        "5405": 219,
        "5406": 22,
        "5407": 117,
        "5408": 107,
        "5409": 228,
        "5410": 26,
        "5411": 4,
        "5412": 75,
        "5413": 36,
        "5414": 91,
        "5415": 124,
        "5416": 71,
        "5417": 44,
        "5418": 46,
        "5419": 46,
        "5420": 65,
        "5421": 118,
        "5422": 220,
        "5423": 139,
        "5424": 62,
        "5425": 150,
        "5426": 24,
        "5427": 190,
        "5428": 12,
        "5429": 54,
        "5430": 176,
        "5431": 157,
        "5432": 237,
        "5433": 42,
        "5434": 250,
        "5435": 64,
        "5436": 42,
        "5437": 24,
        "5438": 213,
        "5439": 25,
        "5440": 227,
        "5441": 100,
        "5442": 141,
        "5443": 208,
        "5444": 177,
        "5445": 95,
        "5446": 42,
        "5447": 153,
        "5448": 164,
        "5449": 62,
        "5450": 50,
        "5451": 160,
        "5452": 15,
        "5453": 212,
        "5454": 2,
        "5455": 255,
        "5456": 28,
        "5457": 184,
        "5458": 11,
        "5459": 44,
        "5460": 46,
        "5461": 211,
        "5462": 139,
        "5463": 156,
        "5464": 234,
        "5465": 178,
        "5466": 3,
        "5467": 202,
        "5468": 245,
        "5469": 121,
        "5470": 185,
        "5471": 154,
        "5472": 248,
        "5473": 151,
        "5474": 126,
        "5475": 166,
        "5476": 137,
        "5477": 26,
        "5478": 37,
        "5479": 150,
        "5480": 204,
        "5481": 23,
        "5482": 178,
        "5483": 74,
        "5484": 46,
        "5485": 185,
        "5486": 198,
        "5487": 184,
        "5488": 52,
        "5489": 204,
        "5490": 94,
        "5491": 168,
        "5492": 187,
        "5493": 53,
        "5494": 144,
        "5495": 68,
        "5496": 162,
        "5497": 205,
        "5498": 193,
        "5499": 52,
        "5500": 25,
        "5501": 234,
        "5502": 92,
        "5503": 247,
        "5504": 192,
        "5505": 134,
        "5506": 112,
        "5507": 68,
        "5508": 157,
        "5509": 179,
        "5510": 234,
        "5511": 7,
        "5512": 90,
        "5513": 106,
        "5514": 78,
        "5515": 222,
        "5516": 59,
        "5517": 234,
        "5518": 25,
        "5519": 104,
        "5520": 221,
        "5521": 253,
        "5522": 246,
        "5523": 91,
        "5524": 27,
        "5525": 97,
        "5526": 132,
        "5527": 106,
        "5528": 207,
        "5529": 76,
        "5530": 105,
        "5531": 187,
        "5532": 35,
        "5533": 35,
        "5534": 89,
        "5535": 134,
        "5536": 15,
        "5537": 208,
        "5538": 105,
        "5539": 129,
        "5540": 193,
        "5541": 124,
        "5542": 135,
        "5543": 173,
        "5544": 253,
        "5545": 104,
        "5546": 202,
        "5547": 125,
        "5548": 46,
        "5549": 74,
        "5550": 160,
        "5551": 108,
        "5552": 90,
        "5553": 150,
        "5554": 75,
        "5555": 244,
        "5556": 220,
        "5557": 244,
        "5558": 241,
        "5559": 138,
        "5560": 173,
        "5561": 187,
        "5562": 247,
        "5563": 86,
        "5564": 86,
        "5565": 179,
        "5566": 77,
        "5567": 136,
        "5568": 210,
        "5569": 148,
        "5570": 77,
        "5571": 14,
        "5572": 19,
        "5573": 245,
        "5574": 109,
        "5575": 208,
        "5576": 168,
        "5577": 2,
        "5578": 223,
        "5579": 25,
        "5580": 145,
        "5581": 32,
        "5582": 194,
        "5583": 21,
        "5584": 61,
        "5585": 134,
        "5586": 174,
        "5587": 177,
        "5588": 49,
        "5589": 76,
        "5590": 170,
        "5591": 94,
        "5592": 253,
        "5593": 186,
        "5594": 210,
        "5595": 30,
        "5596": 241,
        "5597": 8,
        "5598": 220,
        "5599": 98,
        "5600": 200,
        "5601": 232,
        "5602": 51,
        "5603": 211,
        "5604": 211,
        "5605": 158,
        "5606": 212,
        "5607": 170,
        "5608": 74,
        "5609": 218,
        "5610": 168,
        "5611": 143,
        "5612": 126,
        "5613": 245,
        "5614": 38,
        "5615": 54,
        "5616": 243,
        "5617": 218,
        "5618": 106,
        "5619": 97,
        "5620": 123,
        "5621": 144,
        "5622": 249,
        "5623": 157,
        "5624": 121,
        "5625": 60,
        "5626": 78,
        "5627": 94,
        "5628": 52,
        "5629": 116,
        "5630": 224,
        "5631": 217,
        "5632": 137,
        "5633": 250,
        "5634": 185,
        "5635": 127,
        "5636": 219,
        "5637": 6,
        "5638": 175,
        "5639": 220,
        "5640": 53,
        "5641": 128,
        "5642": 168,
        "5643": 149,
        "5644": 141,
        "5645": 81,
        "5646": 230,
        "5647": 18,
        "5648": 76,
        "5649": 186,
        "5650": 193,
        "5651": 27,
        "5652": 51,
        "5653": 98,
        "5654": 87,
        "5655": 116,
        "5656": 31,
        "5657": 104,
        "5658": 194,
        "5659": 53,
        "5660": 112,
        "5661": 97,
        "5662": 195,
        "5663": 63,
        "5664": 79,
        "5665": 202,
        "5666": 227,
        "5667": 52,
        "5668": 172,
        "5669": 45,
        "5670": 13,
        "5671": 157,
        "5672": 208,
        "5673": 141,
        "5674": 183,
        "5675": 153,
        "5676": 18,
        "5677": 123,
        "5678": 167,
        "5679": 12,
        "5680": 212,
        "5681": 17,
        "5682": 81,
        "5683": 93,
        "5684": 86,
        "5685": 105,
        "5686": 4,
        "5687": 85,
        "5688": 182,
        "5689": 60,
        "5690": 119,
        "5691": 234,
        "5692": 130,
        "5693": 61,
        "5694": 81,
        "5695": 218,
        "5696": 71,
        "5697": 137,
        "5698": 175,
        "5699": 128,
        "5700": 185,
        "5701": 132,
        "5702": 162,
        "5703": 244,
        "5704": 106,
        "5705": 117,
        "5706": 162,
        "5707": 174,
        "5708": 207,
        "5709": 202,
        "5710": 229,
        "5711": 51,
        "5712": 211,
        "5713": 3,
        "5714": 90,
        "5715": 4,
        "5716": 45,
        "5717": 207,
        "5718": 142,
        "5719": 255,
        "5720": 191,
        "5721": 219,
        "5722": 153,
        "5723": 225,
        "5724": 243,
        "5725": 157,
        "5726": 241,
        "5727": 182,
        "5728": 58,
        "5729": 0,
        "5730": 86,
        "5731": 165,
        "5732": 124,
        "5733": 115,
        "5734": 91,
        "5735": 186,
        "5736": 88,
        "5737": 153,
        "5738": 185,
        "5739": 1,
        "5740": 143,
        "5741": 111,
        "5742": 47,
        "5743": 170,
        "5744": 167,
        "5745": 55,
        "5746": 63,
        "5747": 250,
        "5748": 60,
        "5749": 142,
        "5750": 233,
        "5751": 216,
        "5752": 13,
        "5753": 111,
        "5754": 31,
        "5755": 157,
        "5756": 204,
        "5757": 95,
        "5758": 167,
        "5759": 28,
        "5760": 72,
        "5761": 253,
        "5762": 38,
        "5763": 142,
        "5764": 75,
        "5765": 205,
        "5766": 81,
        "5767": 248,
        "5768": 37,
        "5769": 134,
        "5770": 143,
        "5771": 29,
        "5772": 236,
        "5773": 41,
        "5774": 29,
        "5775": 122,
        "5776": 23,
        "5777": 175,
        "5778": 237,
        "5779": 74,
        "5780": 251,
        "5781": 216,
        "5782": 91,
        "5783": 36,
        "5784": 103,
        "5785": 58,
        "5786": 191,
        "5787": 192,
        "5788": 70,
        "5789": 22,
        "5790": 188,
        "5791": 190,
        "5792": 211,
        "5793": 190,
        "5794": 248,
        "5795": 67,
        "5796": 156,
        "5797": 173,
        "5798": 236,
        "5799": 206,
        "5800": 120,
        "5801": 80,
        "5802": 67,
        "5803": 33,
        "5804": 76,
        "5805": 209,
        "5806": 4,
        "5807": 122,
        "5808": 88,
        "5809": 201,
        "5810": 215,
        "5811": 183,
        "5812": 248,
        "5813": 160,
        "5814": 35,
        "5815": 90,
        "5816": 33,
        "5817": 194,
        "5818": 215,
        "5819": 237,
        "5820": 64,
        "5821": 108,
        "5822": 59,
        "5823": 70,
        "5824": 187,
        "5825": 222,
        "5826": 130,
        "5827": 250,
        "5828": 109,
        "5829": 78,
        "5830": 170,
        "5831": 151,
        "5832": 4,
        "5833": 245,
        "5834": 95,
        "5835": 251,
        "5836": 15,
        "5837": 186,
        "5838": 67,
        "5839": 107,
        "5840": 158,
        "5841": 133,
        "5842": 124,
        "5843": 254,
        "5844": 66,
        "5845": 185,
        "5846": 62,
        "5847": 241,
        "5848": 141,
        "5849": 92,
        "5850": 103,
        "5851": 34,
        "5852": 123,
        "5853": 178,
        "5854": 171,
        "5855": 100,
        "5856": 157,
        "5857": 104,
        "5858": 1,
        "5859": 223,
        "5860": 37,
        "5861": 39,
        "5862": 119,
        "5863": 107,
        "5864": 93,
        "5865": 164,
        "5866": 155,
        "5867": 61,
        "5868": 93,
        "5869": 234,
        "5870": 220,
        "5871": 228,
        "5872": 30,
        "5873": 215,
        "5874": 35,
        "5875": 171,
        "5876": 160,
        "5877": 233,
        "5878": 159,
        "5879": 129,
        "5880": 21,
        "5881": 120,
        "5882": 137,
        "5883": 234,
        "5884": 83,
        "5885": 252,
        "5886": 204,
        "5887": 80,
        "5888": 238,
        "5889": 135,
        "5890": 91,
        "5891": 168,
        "5892": 41,
        "5893": 117,
        "5894": 14,
        "5895": 66,
        "5896": 44,
        "5897": 85,
        "5898": 86,
        "5899": 139,
        "5900": 47,
        "5901": 108,
        "5902": 253,
        "5903": 187,
        "5904": 137,
        "5905": 32,
        "5906": 237,
        "5907": 251,
        "5908": 144,
        "5909": 60,
        "5910": 168,
        "5911": 180,
        "5912": 93,
        "5913": 93,
        "5914": 188,
        "5915": 239,
        "5916": 10,
        "5917": 172,
        "5918": 251,
        "5919": 78,
        "5920": 109,
        "5921": 151,
        "5922": 47,
        "5923": 43,
        "5924": 68,
        "5925": 87,
        "5926": 42,
        "5927": 252,
        "5928": 244,
        "5929": 27,
        "5930": 21,
        "5931": 11,
        "5932": 242,
        "5933": 252,
        "5934": 18,
        "5935": 87,
        "5936": 154,
        "5937": 15,
        "5938": 108,
        "5939": 68,
        "5940": 210,
        "5941": 105,
        "5942": 182,
        "5943": 187,
        "5944": 226,
        "5945": 174,
        "5946": 33,
        "5947": 175,
        "5948": 65,
        "5949": 195,
        "5950": 183,
        "5951": 61,
        "5952": 241,
        "5953": 52,
        "5954": 252,
        "5955": 66,
        "5956": 165,
        "5957": 19,
        "5958": 184,
        "5959": 165,
        "5960": 143,
        "5961": 34,
        "5962": 119,
        "5963": 237,
        "5964": 180,
        "5965": 206,
        "5966": 205,
        "5967": 56,
        "5968": 157,
        "5969": 143,
        "5970": 52,
        "5971": 19,
        "5972": 136,
        "5973": 130,
        "5974": 48,
        "5975": 231,
        "5976": 166,
        "5977": 111,
        "5978": 212,
        "5979": 141,
        "5980": 59,
        "5981": 116,
        "5982": 72,
        "5983": 247,
        "5984": 116,
        "5985": 80,
        "5986": 61,
        "5987": 53,
        "5988": 63,
        "5989": 214,
        "5990": 170,
        "5991": 231,
        "5992": 226,
        "5993": 89,
        "5994": 82,
        "5995": 180,
        "5996": 185,
        "5997": 81,
        "5998": 14,
        "5999": 105,
        "6000": 216,
        "6001": 41,
        "6002": 248,
        "6003": 199,
        "6004": 244,
        "6005": 156,
        "6006": 43,
        "6007": 9,
        "6008": 198,
        "6009": 112,
        "6010": 229,
        "6011": 176,
        "6012": 7,
        "6013": 54,
        "6014": 225,
        "6015": 7,
        "6016": 147,
        "6017": 246,
        "6018": 49,
        "6019": 108,
        "6020": 16,
        "6021": 123,
        "6022": 155,
        "6023": 136,
        "6024": 223,
        "6025": 2,
        "6026": 75,
        "6027": 223,
        "6028": 198,
        "6029": 130,
        "6030": 91,
        "6031": 23,
        "6032": 3,
        "6033": 220,
        "6034": 249,
        "6035": 31,
        "6036": 8,
        "6037": 179,
        "6038": 180,
        "6039": 233,
        "6040": 199,
        "6041": 83,
        "6042": 45,
        "6043": 246,
        "6044": 166,
        "6045": 17,
        "6046": 94,
        "6047": 227,
        "6048": 212,
        "6049": 109,
        "6050": 114,
        "6051": 10,
        "6052": 216,
        "6053": 226,
        "6054": 186,
        "6055": 213,
        "6056": 85,
        "6057": 111,
        "6058": 16,
        "6059": 66,
        "6060": 117,
        "6061": 107,
        "6062": 164,
        "6063": 93,
        "6064": 67,
        "6065": 127,
        "6066": 230,
        "6067": 241,
        "6068": 22,
        "6069": 36,
        "6070": 22,
        "6071": 215,
        "6072": 72,
        "6073": 34,
        "6074": 93,
        "6075": 239,
        "6076": 151,
        "6077": 172,
        "6078": 37,
        "6079": 180,
        "6080": 12,
        "6081": 6,
        "6082": 145,
        "6083": 31,
        "6084": 66,
        "6085": 241,
        "6086": 148,
        "6087": 105,
        "6088": 251,
        "6089": 89,
        "6090": 107,
        "6091": 65,
        "6092": 248,
        "6093": 171,
        "6094": 149,
        "6095": 78,
        "6096": 246,
        "6097": 164,
        "6098": 114,
        "6099": 100,
        "6100": 201,
        "6101": 246,
        "6102": 100,
        "6103": 191,
        "6104": 1,
        "6105": 40,
        "6106": 76,
        "6107": 246,
        "6108": 129,
        "6109": 248,
        "6110": 147,
        "6111": 7,
        "6112": 125,
        "6113": 94,
        "6114": 110,
        "6115": 86,
        "6116": 184,
        "6117": 123,
        "6118": 118,
        "6119": 60,
        "6120": 222,
        "6121": 22,
        "6122": 52,
        "6123": 195,
        "6124": 77,
        "6125": 46,
        "6126": 73,
        "6127": 69,
        "6128": 177,
        "6129": 217,
        "6130": 233,
        "6131": 11,
        "6132": 134,
        "6133": 208,
        "6134": 18,
        "6135": 24,
        "6136": 227,
        "6137": 197,
        "6138": 188,
        "6139": 162,
        "6140": 122,
        "6141": 8,
        "6142": 64,
        "6143": 205,
        "6144": 222,
        "6145": 152,
        "6146": 67,
        "6147": 32,
        "6148": 17,
        "6149": 137,
        "6150": 104,
        "6151": 127,
        "6152": 165,
        "6153": 102,
        "6154": 230,
        "6155": 72,
        "6156": 26,
        "6157": 101,
        "6158": 46,
        "6159": 192,
        "6160": 193,
        "6161": 244,
        "6162": 209,
        "6163": 215,
        "6164": 141,
        "6165": 148,
        "6166": 90,
        "6167": 171,
        "6168": 180,
        "6169": 61,
        "6170": 127,
        "6171": 101,
        "6172": 10,
        "6173": 216,
        "6174": 53,
        "6175": 99,
        "6176": 240,
        "6177": 78,
        "6178": 157,
        "6179": 92,
        "6180": 92,
        "6181": 166,
        "6182": 204,
        "6183": 81,
        "6184": 102,
        "6185": 106,
        "6186": 103,
        "6187": 69,
        "6188": 47,
        "6189": 102,
        "6190": 28,
        "6191": 105,
        "6192": 217,
        "6193": 119,
        "6194": 76,
        "6195": 203,
        "6196": 220,
        "6197": 48,
        "6198": 181,
        "6199": 35,
        "6200": 218,
        "6201": 76,
        "6202": 122,
        "6203": 166,
        "6204": 218,
        "6205": 133,
        "6206": 72,
        "6207": 39,
        "6208": 54,
        "6209": 160,
        "6210": 171,
        "6211": 214,
        "6212": 149,
        "6213": 23,
        "6214": 200,
        "6215": 159,
        "6216": 58,
        "6217": 47,
        "6218": 13,
        "6219": 188,
        "6220": 195,
        "6221": 30,
        "6222": 179,
        "6223": 191,
        "6224": 116,
        "6225": 91,
        "6226": 104,
        "6227": 192,
        "6228": 208,
        "6229": 162,
        "6230": 46,
        "6231": 180,
        "6232": 17,
        "6233": 4,
        "6234": 42,
        "6235": 12,
        "6236": 50,
        "6237": 129,
        "6238": 152,
        "6239": 166,
        "6240": 67,
        "6241": 63,
        "6242": 171,
        "6243": 30,
        "6244": 155,
        "6245": 204,
        "6246": 143,
        "6247": 38,
        "6248": 3,
        "6249": 89,
        "6250": 98,
        "6251": 178,
        "6252": 3,
        "6253": 171,
        "6254": 23,
        "6255": 156,
        "6256": 227,
        "6257": 222,
        "6258": 210,
        "6259": 223,
        "6260": 73,
        "6261": 188,
        "6262": 11,
        "6263": 231,
        "6264": 96,
        "6265": 154,
        "6266": 238,
        "6267": 207,
        "6268": 168,
        "6269": 132,
        "6270": 254,
        "6271": 29,
        "6272": 45,
        "6273": 176,
        "6274": 142,
        "6275": 241,
        "6276": 140,
        "6277": 9,
        "6278": 111,
        "6279": 164,
        "6280": 156,
        "6281": 168,
        "6282": 28,
        "6283": 224,
        "6284": 83,
        "6285": 135,
        "6286": 190,
        "6287": 44,
        "6288": 80,
        "6289": 1,
        "6290": 100,
        "6291": 173,
        "6292": 170,
        "6293": 248,
        "6294": 59,
        "6295": 192,
        "6296": 56,
        "6297": 124,
        "6298": 147,
        "6299": 132,
        "6300": 29,
        "6301": 99,
        "6302": 183,
        "6303": 118,
        "6304": 40,
        "6305": 137,
        "6306": 78,
        "6307": 239,
        "6308": 231,
        "6309": 184,
        "6310": 177,
        "6311": 200,
        "6312": 156,
        "6313": 12,
        "6314": 168,
        "6315": 169,
        "6316": 68,
        "6317": 115,
        "6318": 196,
        "6319": 141,
        "6320": 177,
        "6321": 22,
        "6322": 228,
        "6323": 242,
        "6324": 214,
        "6325": 55,
        "6326": 142,
        "6327": 154,
        "6328": 89,
        "6329": 197,
        "6330": 249,
        "6331": 89,
        "6332": 37,
        "6333": 160,
        "6334": 195,
        "6335": 82,
        "6336": 213,
        "6337": 173,
        "6338": 48,
        "6339": 194,
        "6340": 116,
        "6341": 100,
        "6342": 106,
        "6343": 86,
        "6344": 20,
        "6345": 68,
        "6346": 27,
        "6347": 243,
        "6348": 187,
        "6349": 83,
        "6350": 210,
        "6351": 240,
        "6352": 76,
        "6353": 154,
        "6354": 242,
        "6355": 159,
        "6356": 62,
        "6357": 226,
        "6358": 158,
        "6359": 217,
        "6360": 40,
        "6361": 188,
        "6362": 157,
        "6363": 250,
        "6364": 14,
        "6365": 17,
        "6366": 90,
        "6367": 192,
        "6368": 250,
        "6369": 237,
        "6370": 198,
        "6371": 174,
        "6372": 175,
        "6373": 49,
        "6374": 247,
        "6375": 187,
        "6376": 98,
        "6377": 159,
        "6378": 8,
        "6379": 238,
        "6380": 2,
        "6381": 157,
        "6382": 150,
        "6383": 77,
        "6384": 94,
        "6385": 20,
        "6386": 144,
        "6387": 121,
        "6388": 183,
        "6389": 234,
        "6390": 66,
        "6391": 248,
        "6392": 232,
        "6393": 231,
        "6394": 86,
        "6395": 131,
        "6396": 164,
        "6397": 98,
        "6398": 98,
        "6399": 77,
        "6400": 18,
        "6401": 185,
        "6402": 120,
        "6403": 144,
        "6404": 88,
        "6405": 125,
        "6406": 212,
        "6407": 138,
        "6408": 44,
        "6409": 9,
        "6410": 226,
        "6411": 214,
        "6412": 2,
        "6413": 8,
        "6414": 130,
        "6415": 166,
        "6416": 209,
        "6417": 237,
        "6418": 65,
        "6419": 243,
        "6420": 221,
        "6421": 247,
        "6422": 52,
        "6423": 0,
        "6424": 140,
        "6425": 14,
        "6426": 197,
        "6427": 226,
        "6428": 254,
        "6429": 138,
        "6430": 101,
        "6431": 19,
        "6432": 16,
        "6433": 178,
        "6434": 49,
        "6435": 215,
        "6436": 19,
        "6437": 87,
        "6438": 22,
        "6439": 218,
        "6440": 153,
        "6441": 207,
        "6442": 202,
        "6443": 244,
        "6444": 26,
        "6445": 128,
        "6446": 15,
        "6447": 34,
        "6448": 208,
        "6449": 59,
        "6450": 225,
        "6451": 221,
        "6452": 124,
        "6453": 159,
        "6454": 12,
        "6455": 59,
        "6456": 207,
        "6457": 109,
        "6458": 228,
        "6459": 28,
        "6460": 255,
        "6461": 72,
        "6462": 92,
        "6463": 243,
        "6464": 5,
        "6465": 97,
        "6466": 143,
        "6467": 13,
        "6468": 101,
        "6469": 23,
        "6470": 220,
        "6471": 145,
        "6472": 82,
        "6473": 134,
        "6474": 19,
        "6475": 117,
        "6476": 146,
        "6477": 82,
        "6478": 6,
        "6479": 34,
        "6480": 55,
        "6481": 248,
        "6482": 136,
        "6483": 165,
        "6484": 117,
        "6485": 109,
        "6486": 174,
        "6487": 255,
        "6488": 202,
        "6489": 93,
        "6490": 44,
        "6491": 30,
        "6492": 223,
        "6493": 165,
        "6494": 73,
        "6495": 238,
        "6496": 138,
        "6497": 237,
        "6498": 21,
        "6499": 17,
        "6500": 80,
        "6501": 78,
        "6502": 106,
        "6503": 241,
        "6504": 187,
        "6505": 154,
        "6506": 132,
        "6507": 44,
        "6508": 37,
        "6509": 241,
        "6510": 173,
        "6511": 112,
        "6512": 165,
        "6513": 238,
        "6514": 2,
        "6515": 46,
        "6516": 113,
        "6517": 237,
        "6518": 233,
        "6519": 234,
        "6520": 83,
        "6521": 137,
        "6522": 4,
        "6523": 242,
        "6524": 199,
        "6525": 246,
        "6526": 140,
        "6527": 54,
        "6528": 37,
        "6529": 228,
        "6530": 167,
        "6531": 17,
        "6532": 85,
        "6533": 3,
        "6534": 108,
        "6535": 101,
        "6536": 83,
        "6537": 205,
        "6538": 169,
        "6539": 217,
        "6540": 221,
        "6541": 244,
        "6542": 155,
        "6543": 128,
        "6544": 177,
        "6545": 4,
        "6546": 63,
        "6547": 207,
        "6548": 111,
        "6549": 190,
        "6550": 147,
        "6551": 34,
        "6552": 216,
        "6553": 173,
        "6554": 137,
        "6555": 202,
        "6556": 2,
        "6557": 254,
        "6558": 44,
        "6559": 193,
        "6560": 118,
        "6561": 84,
        "6562": 227,
        "6563": 82,
        "6564": 207,
        "6565": 64,
        "6566": 103,
        "6567": 3,
        "6568": 3,
        "6569": 182,
        "6570": 23,
        "6571": 56,
        "6572": 84,
        "6573": 238,
        "6574": 5,
        "6575": 173,
        "6576": 124,
        "6577": 233,
        "6578": 64,
        "6579": 61,
        "6580": 82,
        "6581": 75,
        "6582": 243,
        "6583": 232,
        "6584": 215,
        "6585": 20,
        "6586": 111,
        "6587": 93,
        "6588": 34,
        "6589": 238,
        "6590": 145,
        "6591": 204,
        "6592": 81,
        "6593": 145,
        "6594": 229,
        "6595": 107,
        "6596": 25,
        "6597": 150,
        "6598": 162,
        "6599": 171,
        "6600": 66,
        "6601": 211,
        "6602": 235,
        "6603": 151,
        "6604": 14,
        "6605": 115,
        "6606": 148,
        "6607": 72,
        "6608": 147,
        "6609": 40,
        "6610": 190,
        "6611": 6,
        "6612": 190,
        "6613": 10,
        "6614": 239,
        "6615": 69,
        "6616": 207,
        "6617": 248,
        "6618": 197,
        "6619": 13,
        "6620": 165,
        "6621": 99,
        "6622": 87,
        "6623": 39,
        "6624": 95,
        "6625": 112,
        "6626": 172,
        "6627": 28,
        "6628": 54,
        "6629": 90,
        "6630": 62,
        "6631": 145,
        "6632": 81,
        "6633": 154,
        "6634": 104,
        "6635": 137,
        "6636": 6,
        "6637": 40,
        "6638": 81,
        "6639": 191,
        "6640": 181,
        "6641": 200,
        "6642": 13,
        "6643": 148,
        "6644": 114,
        "6645": 16,
        "6646": 43,
        "6647": 74,
        "6648": 67,
        "6649": 183,
        "6650": 115,
        "6651": 111,
        "6652": 208,
        "6653": 36,
        "6654": 195,
        "6655": 117,
        "6656": 151,
        "6657": 139,
        "6658": 162,
        "6659": 94,
        "6660": 141,
        "6661": 8,
        "6662": 131,
        "6663": 129,
        "6664": 81,
        "6665": 121,
        "6666": 230,
        "6667": 54,
        "6668": 45,
        "6669": 231,
        "6670": 56,
        "6671": 97,
        "6672": 197,
        "6673": 134,
        "6674": 115,
        "6675": 36,
        "6676": 248,
        "6677": 74,
        "6678": 237,
        "6679": 1,
        "6680": 249,
        "6681": 179,
        "6682": 75,
        "6683": 155,
        "6684": 150,
        "6685": 26,
        "6686": 41,
        "6687": 78,
        "6688": 157,
        "6689": 57,
        "6690": 176,
        "6691": 217,
        "6692": 78,
        "6693": 250,
        "6694": 76,
        "6695": 87,
        "6696": 163,
        "6697": 175,
        "6698": 180,
        "6699": 19,
        "6700": 240,
        "6701": 118,
        "6702": 203,
        "6703": 50,
        "6704": 21,
        "6705": 139,
        "6706": 85,
        "6707": 16,
        "6708": 221,
        "6709": 171,
        "6710": 198,
        "6711": 28,
        "6712": 229,
        "6713": 2,
        "6714": 187,
        "6715": 176,
        "6716": 82,
        "6717": 152,
        "6718": 238,
        "6719": 13,
        "6720": 168,
        "6721": 68,
        "6722": 131,
        "6723": 244,
        "6724": 13,
        "6725": 112,
        "6726": 163,
        "6727": 135,
        "6728": 142,
        "6729": 78,
        "6730": 154,
        "6731": 253,
        "6732": 92,
        "6733": 58,
        "6734": 84,
        "6735": 45,
        "6736": 192,
        "6737": 23,
        "6738": 197,
        "6739": 106,
        "6740": 124,
        "6741": 41,
        "6742": 156,
        "6743": 246,
        "6744": 58,
        "6745": 53,
        "6746": 97,
        "6747": 84,
        "6748": 148,
        "6749": 74,
        "6750": 92,
        "6751": 56,
        "6752": 47,
        "6753": 73,
        "6754": 240,
        "6755": 237,
        "6756": 46,
        "6757": 152,
        "6758": 212,
        "6759": 96,
        "6760": 2,
        "6761": 148,
        "6762": 125,
        "6763": 193,
        "6764": 30,
        "6765": 243,
        "6766": 212,
        "6767": 100,
        "6768": 53,
        "6769": 86,
        "6770": 69,
        "6771": 211,
        "6772": 248,
        "6773": 134,
        "6774": 17,
        "6775": 35,
        "6776": 40,
        "6777": 113,
        "6778": 128,
        "6779": 206,
        "6780": 159,
        "6781": 204,
        "6782": 28,
        "6783": 246,
        "6784": 163,
        "6785": 106,
        "6786": 106,
        "6787": 38,
        "6788": 155,
        "6789": 205,
        "6790": 151,
        "6791": 42,
        "6792": 173,
        "6793": 152,
        "6794": 166,
        "6795": 54,
        "6796": 68,
        "6797": 191,
        "6798": 154,
        "6799": 185,
        "6800": 97,
        "6801": 162,
        "6802": 28,
        "6803": 222,
        "6804": 76,
        "6805": 110,
        "6806": 12,
        "6807": 77,
        "6808": 7,
        "6809": 168,
        "6810": 159,
        "6811": 183,
        "6812": 99,
        "6813": 112,
        "6814": 226,
        "6815": 243,
        "6816": 141,
        "6817": 118,
        "6818": 172,
        "6819": 171,
        "6820": 147,
        "6821": 6,
        "6822": 133,
        "6823": 79,
        "6824": 8,
        "6825": 193,
        "6826": 254,
        "6827": 166,
        "6828": 101,
        "6829": 8,
        "6830": 62,
        "6831": 73,
        "6832": 101,
        "6833": 74,
        "6834": 194,
        "6835": 124,
        "6836": 20,
        "6837": 78,
        "6838": 99,
        "6839": 206,
        "6840": 143,
        "6841": 163,
        "6842": 138,
        "6843": 1,
        "6844": 219,
        "6845": 58,
        "6846": 162,
        "6847": 75,
        "6848": 40,
        "6849": 150,
        "6850": 7,
        "6851": 82,
        "6852": 208,
        "6853": 59,
        "6854": 38,
        "6855": 215,
        "6856": 253,
        "6857": 31,
        "6858": 231,
        "6859": 55,
        "6860": 142,
        "6861": 193,
        "6862": 131,
        "6863": 237,
        "6864": 75,
        "6865": 45,
        "6866": 132,
        "6867": 139,
        "6868": 219,
        "6869": 163,
        "6870": 10,
        "6871": 188,
        "6872": 223,
        "6873": 27,
        "6874": 140,
        "6875": 43,
        "6876": 114,
        "6877": 102,
        "6878": 141,
        "6879": 179,
        "6880": 75,
        "6881": 18,
        "6882": 63,
        "6883": 243,
        "6884": 185,
        "6885": 192,
        "6886": 127,
        "6887": 68,
        "6888": 238,
        "6889": 133,
        "6890": 60,
        "6891": 229,
        "6892": 159,
        "6893": 113,
        "6894": 248,
        "6895": 60,
        "6896": 158,
        "6897": 94,
        "6898": 63,
        "6899": 174,
        "6900": 145,
        "6901": 83,
        "6902": 96,
        "6903": 217,
        "6904": 219,
        "6905": 170,
        "6906": 113,
        "6907": 74,
        "6908": 208,
        "6909": 131,
        "6910": 248,
        "6911": 121,
        "6912": 48,
        "6913": 38,
        "6914": 28,
        "6915": 87,
        "6916": 198,
        "6917": 184,
        "6918": 41,
        "6919": 10,
        "6920": 217,
        "6921": 22,
        "6922": 237,
        "6923": 120,
        "6924": 14,
        "6925": 155,
        "6926": 69,
        "6927": 61,
        "6928": 235,
        "6929": 55,
        "6930": 90,
        "6931": 4,
        "6932": 34,
        "6933": 229,
        "6934": 150,
        "6935": 21,
        "6936": 239,
        "6937": 50,
        "6938": 255,
        "6939": 179,
        "6940": 203,
        "6941": 113,
        "6942": 32,
        "6943": 194,
        "6944": 168,
        "6945": 220,
        "6946": 95,
        "6947": 70,
        "6948": 131,
        "6949": 115,
        "6950": 51,
        "6951": 160,
        "6952": 246,
        "6953": 136,
        "6954": 196,
        "6955": 143,
        "6956": 219,
        "6957": 150,
        "6958": 207,
        "6959": 0,
        "6960": 53,
        "6961": 164,
        "6962": 189,
        "6963": 251,
        "6964": 215,
        "6965": 28,
        "6966": 181,
        "6967": 213,
        "6968": 153,
        "6969": 187,
        "6970": 250,
        "6971": 182,
        "6972": 82,
        "6973": 155,
        "6974": 166,
        "6975": 69,
        "6976": 56,
        "6977": 201,
        "6978": 172,
        "6979": 207,
        "6980": 160,
        "6981": 162,
        "6982": 102,
        "6983": 35,
        "6984": 164,
        "6985": 34,
        "6986": 245,
        "6987": 133,
        "6988": 96,
        "6989": 197,
        "6990": 84,
        "6991": 99,
        "6992": 24,
        "6993": 137,
        "6994": 57,
        "6995": 202,
        "6996": 100,
        "6997": 52,
        "6998": 46,
        "6999": 150,
        "7000": 141,
        "7001": 219,
        "7002": 33,
        "7003": 173,
        "7004": 189,
        "7005": 249,
        "7006": 65,
        "7007": 157,
        "7008": 179,
        "7009": 9,
        "7010": 0,
        "7011": 28,
        "7012": 197,
        "7013": 127,
        "7014": 130,
        "7015": 86,
        "7016": 151,
        "7017": 179,
        "7018": 65,
        "7019": 71,
        "7020": 139,
        "7021": 224,
        "7022": 179,
        "7023": 44,
        "7024": 90,
        "7025": 69,
        "7026": 11,
        "7027": 165,
        "7028": 108,
        "7029": 87,
        "7030": 58,
        "7031": 47,
        "7032": 94,
        "7033": 63,
        "7034": 63,
        "7035": 248,
        "7036": 26,
        "7037": 82,
        "7038": 187,
        "7039": 76,
        "7040": 166,
        "7041": 243,
        "7042": 28,
        "7043": 117,
        "7044": 6,
        "7045": 206,
        "7046": 118,
        "7047": 169,
        "7048": 181,
        "7049": 214,
        "7050": 82,
        "7051": 233,
        "7052": 163,
        "7053": 149,
        "7054": 217,
        "7055": 5,
        "7056": 40,
        "7057": 60,
        "7058": 86,
        "7059": 8,
        "7060": 159,
        "7061": 249,
        "7062": 1,
        "7063": 138,
        "7064": 93,
        "7065": 203,
        "7066": 2,
        "7067": 226,
        "7068": 167,
        "7069": 106,
        "7070": 139,
        "7071": 211,
        "7072": 109,
        "7073": 26,
        "7074": 221,
        "7075": 148,
        "7076": 9,
        "7077": 109,
        "7078": 211,
        "7079": 117,
        "7080": 79,
        "7081": 64,
        "7082": 102,
        "7083": 104,
        "7084": 33,
        "7085": 244,
        "7086": 36,
        "7087": 15,
        "7088": 26,
        "7089": 186,
        "7090": 238,
        "7091": 11,
        "7092": 154,
        "7093": 17,
        "7094": 214,
        "7095": 2,
        "7096": 118,
        "7097": 15,
        "7098": 129,
        "7099": 35,
        "7100": 215,
        "7101": 182,
        "7102": 116,
        "7103": 164,
        "7104": 209,
        "7105": 243,
        "7106": 40,
        "7107": 52,
        "7108": 41,
        "7109": 33,
        "7110": 56,
        "7111": 66,
        "7112": 161,
        "7113": 104,
        "7114": 191,
        "7115": 183,
        "7116": 219,
        "7117": 242,
        "7118": 245,
        "7119": 95,
        "7120": 44,
        "7121": 84,
        "7122": 176,
        "7123": 18,
        "7124": 92,
        "7125": 70,
        "7126": 98,
        "7127": 150,
        "7128": 96,
        "7129": 186,
        "7130": 169,
        "7131": 146,
        "7132": 168,
        "7133": 227,
        "7134": 86,
        "7135": 160,
        "7136": 69,
        "7137": 149,
        "7138": 176,
        "7139": 223,
        "7140": 83,
        "7141": 169,
        "7142": 210,
        "7143": 75,
        "7144": 185,
        "7145": 231,
        "7146": 150,
        "7147": 47,
        "7148": 232,
        "7149": 34,
        "7150": 110,
        "7151": 90,
        "7152": 139,
        "7153": 111,
        "7154": 15,
        "7155": 117,
        "7156": 224,
        "7157": 218,
        "7158": 15,
        "7159": 187,
        "7160": 3,
        "7161": 184,
        "7162": 212,
        "7163": 88,
        "7164": 152,
        "7165": 218,
        "7166": 242,
        "7167": 209,
        "7168": 85,
        "7169": 49,
        "7170": 63,
        "7171": 224,
        "7172": 29,
        "7173": 117,
        "7174": 134,
        "7175": 82,
        "7176": 225,
        "7177": 99,
        "7178": 80,
        "7179": 144,
        "7180": 70,
        "7181": 137,
        "7182": 108,
        "7183": 134,
        "7184": 248,
        "7185": 4,
        "7186": 4,
        "7187": 122,
        "7188": 242,
        "7189": 172,
        "7190": 216,
        "7191": 8,
        "7192": 3,
        "7193": 195,
        "7194": 32,
        "7195": 173,
        "7196": 146,
        "7197": 94,
        "7198": 165,
        "7199": 247,
        "7200": 55,
        "7201": 85,
        "7202": 1,
        "7203": 1,
        "7204": 26,
        "7205": 27,
        "7206": 139,
        "7207": 145,
        "7208": 158,
        "7209": 161,
        "7210": 172,
        "7211": 7,
        "7212": 47,
        "7213": 234,
        "7214": 181,
        "7215": 150,
        "7216": 225,
        "7217": 131,
        "7218": 121,
        "7219": 23,
        "7220": 57,
        "7221": 131,
        "7222": 43,
        "7223": 240,
        "7224": 36,
        "7225": 240,
        "7226": 126,
        "7227": 130,
        "7228": 161,
        "7229": 9,
        "7230": 246,
        "7231": 49,
        "7232": 66,
        "7233": 171,
        "7234": 164,
        "7235": 81,
        "7236": 167,
        "7237": 219,
        "7238": 35,
        "7239": 115,
        "7240": 50,
        "7241": 244,
        "7242": 169,
        "7243": 98,
        "7244": 179,
        "7245": 118,
        "7246": 84,
        "7247": 156,
        "7248": 214,
        "7249": 69,
        "7250": 178,
        "7251": 127,
        "7252": 44,
        "7253": 66,
        "7254": 163,
        "7255": 140,
        "7256": 186,
        "7257": 149,
        "7258": 116,
        "7259": 145,
        "7260": 168,
        "7261": 10,
        "7262": 93,
        "7263": 190,
        "7264": 222,
        "7265": 249,
        "7266": 33,
        "7267": 199,
        "7268": 20,
        "7269": 186,
        "7270": 63,
        "7271": 186,
        "7272": 145,
        "7273": 23,
        "7274": 127,
        "7275": 16,
        "7276": 167,
        "7277": 199,
        "7278": 108,
        "7279": 217,
        "7280": 37,
        "7281": 254,
        "7282": 189,
        "7283": 161,
        "7284": 144,
        "7285": 20,
        "7286": 247,
        "7287": 54,
        "7288": 90,
        "7289": 246,
        "7290": 60,
        "7291": 132,
        "7292": 92,
        "7293": 230,
        "7294": 197,
        "7295": 19,
        "7296": 121,
        "7297": 247,
        "7298": 167,
        "7299": 161,
        "7300": 12,
        "7301": 5,
        "7302": 231,
        "7303": 206,
        "7304": 215,
        "7305": 34,
        "7306": 180,
        "7307": 207,
        "7308": 23,
        "7309": 140,
        "7310": 185,
        "7311": 129,
        "7312": 116,
        "7313": 255,
        "7314": 66,
        "7315": 249,
        "7316": 46,
        "7317": 236,
        "7318": 239,
        "7319": 215,
        "7320": 112,
        "7321": 245,
        "7322": 73,
        "7323": 131,
        "7324": 65,
        "7325": 189,
        "7326": 219,
        "7327": 157,
        "7328": 125,
        "7329": 58,
        "7330": 133,
        "7331": 201,
        "7332": 190,
        "7333": 185,
        "7334": 129,
        "7335": 255,
        "7336": 206,
        "7337": 64,
        "7338": 221,
        "7339": 42,
        "7340": 180,
        "7341": 147,
        "7342": 54,
        "7343": 104,
        "7344": 55,
        "7345": 186,
        "7346": 181,
        "7347": 109,
        "7348": 131,
        "7349": 219,
        "7350": 59,
        "7351": 77,
        "7352": 230,
        "7353": 254,
        "7354": 201,
        "7355": 204,
        "7356": 243,
        "7357": 201,
        "7358": 122,
        "7359": 97,
        "7360": 155,
        "7361": 118,
        "7362": 70,
        "7363": 128,
        "7364": 170,
        "7365": 71,
        "7366": 1,
        "7367": 128,
        "7368": 97,
        "7369": 38,
        "7370": 123,
        "7371": 136,
        "7372": 78,
        "7373": 66,
        "7374": 172,
        "7375": 222,
        "7376": 102,
        "7377": 232,
        "7378": 69,
        "7379": 174,
        "7380": 242,
        "7381": 108,
        "7382": 140,
        "7383": 95,
        "7384": 108,
        "7385": 17,
        "7386": 64,
        "7387": 11,
        "7388": 138,
        "7389": 213,
        "7390": 224,
        "7391": 146,
        "7392": 15,
        "7393": 99,
        "7394": 34,
        "7395": 22,
        "7396": 147,
        "7397": 188,
        "7398": 41,
        "7399": 39,
        "7400": 122,
        "7401": 28,
        "7402": 73,
        "7403": 136,
        "7404": 167,
        "7405": 225,
        "7406": 238,
        "7407": 135,
        "7408": 122,
        "7409": 127,
        "7410": 102,
        "7411": 213,
        "7412": 83,
        "7413": 26,
        "7414": 49,
        "7415": 194,
        "7416": 56,
        "7417": 209,
        "7418": 116,
        "7419": 38,
        "7420": 9,
        "7421": 3,
        "7422": 55,
        "7423": 63,
        "7424": 185,
        "7425": 241,
        "7426": 12,
        "7427": 15,
        "7428": 180,
        "7429": 157,
        "7430": 86,
        "7431": 50,
        "7432": 188,
        "7433": 228,
        "7434": 77,
        "7435": 204,
        "7436": 139,
        "7437": 76,
        "7438": 63,
        "7439": 1,
        "7440": 251,
        "7441": 244,
        "7442": 50,
        "7443": 254,
        "7444": 3,
        "7445": 250,
        "7446": 115,
        "7447": 102,
        "7448": 78,
        "7449": 202,
        "7450": 67,
        "7451": 238,
        "7452": 83,
        "7453": 26,
        "7454": 137,
        "7455": 62,
        "7456": 129,
        "7457": 171,
        "7458": 195,
        "7459": 43,
        "7460": 170,
        "7461": 137,
        "7462": 233,
        "7463": 221,
        "7464": 52,
        "7465": 76,
        "7466": 172,
        "7467": 230,
        "7468": 69,
        "7469": 213,
        "7470": 11,
        "7471": 149,
        "7472": 63,
        "7473": 95,
        "7474": 173,
        "7475": 13,
        "7476": 2,
        "7477": 240,
        "7478": 20,
        "7479": 116,
        "7480": 247,
        "7481": 209,
        "7482": 18,
        "7483": 255,
        "7484": 198,
        "7485": 119,
        "7486": 198,
        "7487": 248,
        "7488": 179,
        "7489": 234,
        "7490": 61,
        "7491": 252,
        "7492": 239,
        "7493": 167,
        "7494": 122,
        "7495": 200,
        "7496": 153,
        "7497": 92,
        "7498": 116,
        "7499": 151,
        "7500": 133,
        "7501": 21,
        "7502": 61,
        "7503": 181,
        "7504": 219,
        "7505": 221,
        "7506": 160,
        "7507": 212,
        "7508": 24,
        "7509": 56,
        "7510": 96,
        "7511": 225,
        "7512": 114,
        "7513": 207,
        "7514": 11,
        "7515": 113,
        "7516": 233,
        "7517": 198,
        "7518": 116,
        "7519": 44,
        "7520": 190,
        "7521": 122,
        "7522": 10,
        "7523": 63,
        "7524": 159,
        "7525": 204,
        "7526": 242,
        "7527": 46,
        "7528": 214,
        "7529": 100,
        "7530": 71,
        "7531": 44,
        "7532": 80,
        "7533": 80,
        "7534": 50,
        "7535": 198,
        "7536": 189,
        "7537": 158,
        "7538": 59,
        "7539": 217,
        "7540": 55,
        "7541": 254,
        "7542": 60,
        "7543": 216,
        "7544": 21,
        "7545": 214,
        "7546": 216,
        "7547": 129,
        "7548": 151,
        "7549": 165,
        "7550": 177,
        "7551": 48,
        "7552": 106,
        "7553": 57,
        "7554": 182,
        "7555": 111,
        "7556": 27,
        "7557": 165,
        "7558": 162,
        "7559": 182,
        "7560": 9,
        "7561": 238,
        "7562": 233,
        "7563": 215,
        "7564": 239,
        "7565": 135,
        "7566": 17,
        "7567": 109,
        "7568": 239,
        "7569": 55,
        "7570": 128,
        "7571": 75,
        "7572": 161,
        "7573": 195,
        "7574": 240,
        "7575": 142,
        "7576": 114,
        "7577": 183,
        "7578": 101,
        "7579": 174,
        "7580": 119,
        "7581": 83,
        "7582": 205,
        "7583": 133,
        "7584": 178,
        "7585": 50,
        "7586": 139,
        "7587": 134,
        "7588": 98,
        "7589": 102,
        "7590": 246,
        "7591": 118,
        "7592": 53,
        "7593": 175,
        "7594": 79,
        "7595": 2,
        "7596": 201,
        "7597": 56,
        "7598": 66,
        "7599": 247,
        "7600": 247,
        "7601": 184,
        "7602": 22,
        "7603": 81,
        "7604": 128,
        "7605": 94,
        "7606": 228,
        "7607": 8,
        "7608": 58,
        "7609": 63,
        "7610": 80,
        "7611": 144,
        "7612": 182,
        "7613": 87,
        "7614": 219,
        "7615": 201,
        "7616": 142,
        "7617": 243,
        "7618": 41,
        "7619": 86,
        "7620": 191,
        "7621": 134,
        "7622": 12,
        "7623": 183,
        "7624": 1,
        "7625": 85,
        "7626": 179,
        "7627": 239,
        "7628": 126,
        "7629": 100,
        "7630": 244,
        "7631": 182,
        "7632": 27,
        "7633": 76,
        "7634": 97,
        "7635": 97,
        "7636": 102,
        "7637": 147,
        "7638": 225,
        "7639": 249,
        "7640": 161,
        "7641": 18,
        "7642": 86,
        "7643": 60,
        "7644": 11,
        "7645": 61,
        "7646": 73,
        "7647": 215,
        "7648": 86,
        "7649": 206,
        "7650": 107,
        "7651": 23,
        "7652": 176,
        "7653": 8,
        "7654": 161,
        "7655": 245,
        "7656": 233,
        "7657": 97,
        "7658": 249,
        "7659": 74,
        "7660": 36,
        "7661": 69,
        "7662": 23,
        "7663": 32,
        "7664": 109,
        "7665": 237,
        "7666": 251,
        "7667": 170,
        "7668": 146,
        "7669": 49,
        "7670": 21,
        "7671": 116,
        "7672": 202,
        "7673": 229,
        "7674": 75,
        "7675": 48,
        "7676": 106,
        "7677": 72,
        "7678": 44,
        "7679": 176,
        "7680": 106,
        "7681": 63,
        "7682": 123,
        "7683": 143,
        "7684": 234,
        "7685": 114,
        "7686": 167,
        "7687": 199,
        "7688": 171,
        "7689": 95,
        "7690": 240,
        "7691": 231,
        "7692": 81,
        "7693": 247,
        "7694": 10,
        "7695": 65,
        "7696": 141,
        "7697": 67,
        "7698": 68,
        "7699": 86,
        "7700": 121,
        "7701": 47,
        "7702": 165,
        "7703": 170,
        "7704": 115,
        "7705": 234,
        "7706": 147,
        "7707": 116,
        "7708": 214,
        "7709": 160,
        "7710": 215,
        "7711": 172,
        "7712": 141,
        "7713": 132,
        "7714": 39,
        "7715": 135,
        "7716": 21,
        "7717": 96,
        "7718": 189,
        "7719": 153,
        "7720": 154,
        "7721": 139,
        "7722": 193,
        "7723": 251,
        "7724": 149,
        "7725": 226,
        "7726": 158,
        "7727": 49,
        "7728": 53,
        "7729": 209,
        "7730": 148,
        "7731": 7,
        "7732": 171,
        "7733": 128,
        "7734": 122,
        "7735": 149,
        "7736": 149,
        "7737": 75,
        "7738": 244,
        "7739": 94,
        "7740": 70,
        "7741": 66,
        "7742": 73,
        "7743": 136,
        "7744": 117,
        "7745": 121,
        "7746": 253,
        "7747": 164,
        "7748": 68,
        "7749": 57,
        "7750": 155,
        "7751": 10,
        "7752": 185,
        "7753": 237,
        "7754": 156,
        "7755": 186,
        "7756": 119,
        "7757": 112,
        "7758": 142,
        "7759": 198,
        "7760": 138,
        "7761": 226,
        "7762": 66,
        "7763": 99,
        "7764": 78,
        "7765": 252,
        "7766": 124,
        "7767": 112,
        "7768": 82,
        "7769": 180,
        "7770": 179,
        "7771": 185,
        "7772": 61,
        "7773": 85,
        "7774": 60,
        "7775": 61,
        "7776": 213,
        "7777": 127,
        "7778": 192,
        "7779": 128,
        "7780": 69,
        "7781": 39,
        "7782": 16,
        "7783": 119,
        "7784": 179,
        "7785": 211,
        "7786": 35,
        "7787": 82,
        "7788": 33,
        "7789": 128,
        "7790": 127,
        "7791": 212,
        "7792": 9,
        "7793": 79,
        "7794": 76,
        "7795": 173,
        "7796": 82,
        "7797": 251,
        "7798": 15,
        "7799": 120,
        "7800": 174,
        "7801": 16,
        "7802": 191,
        "7803": 191,
        "7804": 144,
        "7805": 215,
        "7806": 164,
        "7807": 111,
        "7808": 5,
        "7809": 191,
        "7810": 86,
        "7811": 2,
        "7812": 62,
        "7813": 221,
        "7814": 28,
        "7815": 208,
        "7816": 225,
        "7817": 247,
        "7818": 57,
        "7819": 167,
        "7820": 170,
        "7821": 105,
        "7822": 9,
        "7823": 154,
        "7824": 5,
        "7825": 219,
        "7826": 163,
        "7827": 67,
        "7828": 117,
        "7829": 78,
        "7830": 5,
        "7831": 233,
        "7832": 183,
        "7833": 49,
        "7834": 152,
        "7835": 227,
        "7836": 79,
        "7837": 209,
        "7838": 213,
        "7839": 113,
        "7840": 29,
        "7841": 128,
        "7842": 243,
        "7843": 123,
        "7844": 155,
        "7845": 121,
        "7846": 107,
        "7847": 226,
        "7848": 112,
        "7849": 222,
        "7850": 180,
        "7851": 87,
        "7852": 156,
        "7853": 23,
        "7854": 132,
        "7855": 166,
        "7856": 68,
        "7857": 230,
        "7858": 83,
        "7859": 131,
        "7860": 116,
        "7861": 108,
        "7862": 250,
        "7863": 34,
        "7864": 245,
        "7865": 127,
        "7866": 200,
        "7867": 89,
        "7868": 249,
        "7869": 144,
        "7870": 44,
        "7871": 113,
        "7872": 37,
        "7873": 200,
        "7874": 211,
        "7875": 229,
        "7876": 65,
        "7877": 241,
        "7878": 122,
        "7879": 106,
        "7880": 2,
        "7881": 8,
        "7882": 25,
        "7883": 237,
        "7884": 196,
        "7885": 255,
        "7886": 155,
        "7887": 37,
        "7888": 21,
        "7889": 98,
        "7890": 27,
        "7891": 48,
        "7892": 144,
        "7893": 188,
        "7894": 50,
        "7895": 148,
        "7896": 146,
        "7897": 93,
        "7898": 227,
        "7899": 224,
        "7900": 186,
        "7901": 13,
        "7902": 224,
        "7903": 52,
        "7904": 91,
        "7905": 3,
        "7906": 215,
        "7907": 236,
        "7908": 67,
        "7909": 120,
        "7910": 126,
        "7911": 215,
        "7912": 208,
        "7913": 160,
        "7914": 118,
        "7915": 124,
        "7916": 126,
        "7917": 183,
        "7918": 85,
        "7919": 245,
        "7920": 203,
        "7921": 70,
        "7922": 249,
        "7923": 81,
        "7924": 89,
        "7925": 185,
        "7926": 147,
        "7927": 251,
        "7928": 130,
        "7929": 92,
        "7930": 183,
        "7931": 38,
        "7932": 136,
        "7933": 173,
        "7934": 149,
        "7935": 186,
        "7936": 111,
        "7937": 74,
        "7938": 209,
        "7939": 12,
        "7940": 131,
        "7941": 218,
        "7942": 66,
        "7943": 54,
        "7944": 168,
        "7945": 147,
        "7946": 134,
        "7947": 35,
        "7948": 34,
        "7949": 90,
        "7950": 209,
        "7951": 77,
        "7952": 103,
        "7953": 8,
        "7954": 136,
        "7955": 32,
        "7956": 97,
        "7957": 255,
        "7958": 175,
        "7959": 160,
        "7960": 200,
        "7961": 152,
        "7962": 17,
        "7963": 169,
        "7964": 193,
        "7965": 84,
        "7966": 168,
        "7967": 11,
        "7968": 229,
        "7969": 123,
        "7970": 54,
        "7971": 240,
        "7972": 180,
        "7973": 120,
        "7974": 77,
        "7975": 89,
        "7976": 245,
        "7977": 255,
        "7978": 165,
        "7979": 212,
        "7980": 108,
        "7981": 98,
        "7982": 167,
        "7983": 176,
        "7984": 27,
        "7985": 183,
        "7986": 234,
        "7987": 78,
        "7988": 185,
        "7989": 233,
        "7990": 63,
        "7991": 81,
        "7992": 191,
        "7993": 56,
        "7994": 216,
        "7995": 72,
        "7996": 203,
        "7997": 141,
        "7998": 53,
        "7999": 140,
        "8000": 110,
        "8001": 181,
        "8002": 4,
        "8003": 167,
        "8004": 106,
        "8005": 254,
        "8006": 59,
        "8007": 168,
        "8008": 99,
        "8009": 187,
        "8010": 232,
        "8011": 225,
        "8012": 175,
        "8013": 183,
        "8014": 118,
        "8015": 163,
        "8016": 21,
        "8017": 110,
        "8018": 138,
        "8019": 69,
        "8020": 0,
        "8021": 191,
        "8022": 159,
        "8023": 191,
        "8024": 15,
        "8025": 46,
        "8026": 39,
        "8027": 131,
        "8028": 160,
        "8029": 226,
        "8030": 7,
        "8031": 21,
        "8032": 237,
        "8033": 98,
        "8034": 9,
        "8035": 46,
        "8036": 95,
        "8037": 75,
        "8038": 161,
        "8039": 98,
        "8040": 246,
        "8041": 28,
        "8042": 198,
        "8043": 14,
        "8044": 29,
        "8045": 165,
        "8046": 143,
        "8047": 76,
        "8048": 225,
        "8049": 94,
        "8050": 171,
        "8051": 220,
        "8052": 23,
        "8053": 6,
        "8054": 223,
        "8055": 241,
        "8056": 52,
        "8057": 198,
        "8058": 39,
        "8059": 140,
        "8060": 214,
        "8061": 86,
        "8062": 231,
        "8063": 165,
        "8064": 72,
        "8065": 32,
        "8066": 0,
        "8067": 127,
        "8068": 183,
        "8069": 139,
        "8070": 85,
        "8071": 96,
        "8072": 40,
        "8073": 172,
        "8074": 110,
        "8075": 133,
        "8076": 8,
        "8077": 205,
        "8078": 40,
        "8079": 230,
        "8080": 114,
        "8081": 67,
        "8082": 97,
        "8083": 201,
        "8084": 161,
        "8085": 191,
        "8086": 31,
        "8087": 130,
        "8088": 219,
        "8089": 156,
        "8090": 214,
        "8091": 245,
        "8092": 11,
        "8093": 194,
        "8094": 12,
        "8095": 136,
        "8096": 199,
        "8097": 253,
        "8098": 61,
        "8099": 44,
        "8100": 177,
        "8101": 88,
        "8102": 35,
        "8103": 188,
        "8104": 75,
        "8105": 119,
        "8106": 238,
        "8107": 34,
        "8108": 67,
        "8109": 39,
        "8110": 191,
        "8111": 115,
        "8112": 39,
        "8113": 209,
        "8114": 198,
        "8115": 180,
        "8116": 245,
        "8117": 24,
        "8118": 111,
        "8119": 20,
        "8120": 5,
        "8121": 174,
        "8122": 187,
        "8123": 158,
        "8124": 27,
        "8125": 196,
        "8126": 228,
        "8127": 27,
        "8128": 137,
        "8129": 9,
        "8130": 51,
        "8131": 164,
        "8132": 137,
        "8133": 142,
        "8134": 71,
        "8135": 108,
        "8136": 93,
        "8137": 127,
        "8138": 247,
        "8139": 133,
        "8140": 253,
        "8141": 181,
        "8142": 100,
        "8143": 116,
        "8144": 209,
        "8145": 81,
        "8146": 122,
        "8147": 65,
        "8148": 169,
        "8149": 53,
        "8150": 115,
        "8151": 167,
        "8152": 250,
        "8153": 60,
        "8154": 104,
        "8155": 87,
        "8156": 138,
        "8157": 164,
        "8158": 27,
        "8159": 34,
        "8160": 170,
        "8161": 226,
        "8162": 218,
        "8163": 236,
        "8164": 34,
        "8165": 33,
        "8166": 21,
        "8167": 190,
        "8168": 229,
        "8169": 137,
        "8170": 244,
        "8171": 98,
        "8172": 192,
        "8173": 46,
        "8174": 109,
        "8175": 132,
        "8176": 39,
        "8177": 205,
        "8178": 44,
        "8179": 181,
        "8180": 207,
        "8181": 223,
        "8182": 5,
        "8183": 39,
        "8184": 65,
        "8185": 12,
        "8186": 55,
        "8187": 117,
        "8188": 228,
        "8189": 34,
        "8190": 136,
        "8191": 120,
        "8192": 3,
        "8193": 193,
        "8194": 45,
        "8195": 118,
        "8196": 92,
        "8197": 140,
        "8198": 205,
        "8199": 112,
        "8200": 188,
        "8201": 133,
        "8202": 177,
        "8203": 244,
        "8204": 49,
        "8205": 84,
        "8206": 247,
        "8207": 231,
        "8208": 136,
        "8209": 236,
        "8210": 68,
        "8211": 20,
        "8212": 104,
        "8213": 155,
        "8214": 51,
        "8215": 155,
        "8216": 163,
        "8217": 143,
        "8218": 247,
        "8219": 65,
        "8220": 128,
        "8221": 155,
        "8222": 50,
        "8223": 230,
        "8224": 113,
        "8225": 91,
        "8226": 142,
        "8227": 34,
        "8228": 73,
        "8229": 250,
        "8230": 5,
        "8231": 61,
        "8232": 253,
        "8233": 63,
        "8234": 185,
        "8235": 15,
        "8236": 78,
        "8237": 219,
        "8238": 215,
        "8239": 185,
        "8240": 46,
        "8241": 30,
        "8242": 148,
        "8243": 137,
        "8244": 141,
        "8245": 195,
        "8246": 41,
        "8247": 7,
        "8248": 107,
        "8249": 205,
        "8250": 63,
        "8251": 91,
        "8252": 185,
        "8253": 79,
        "8254": 189,
        "8255": 236,
        "8256": 240,
        "8257": 210,
        "8258": 92,
        "8259": 14,
        "8260": 192,
        "8261": 97,
        "8262": 172,
        "8263": 49,
        "8264": 89,
        "8265": 137,
        "8266": 1,
        "8267": 24,
        "8268": 40,
        "8269": 106,
        "8270": 168,
        "8271": 33,
        "8272": 213,
        "8273": 165,
        "8274": 246,
        "8275": 196,
        "8276": 179,
        "8277": 69,
        "8278": 157,
        "8279": 23,
        "8280": 202,
        "8281": 29,
        "8282": 157,
        "8283": 228,
        "8284": 212,
        "8285": 209,
        "8286": 14,
        "8287": 52,
        "8288": 94,
        "8289": 208,
        "8290": 116,
        "8291": 53,
        "8292": 18,
        "8293": 32,
        "8294": 129,
        "8295": 205,
        "8296": 232,
        "8297": 46,
        "8298": 110,
        "8299": 42,
        "8300": 224,
        "8301": 55,
        "8302": 183,
        "8303": 96,
        "8304": 74,
        "8305": 159,
        "8306": 240,
        "8307": 132,
        "8308": 221,
        "8309": 222,
        "8310": 9,
        "8311": 135,
        "8312": 119,
        "8313": 103,
        "8314": 91,
        "8315": 28,
        "8316": 95,
        "8317": 107,
        "8318": 109,
        "8319": 243,
        "8320": 175,
        "8321": 76,
        "8322": 169,
        "8323": 229,
        "8324": 216,
        "8325": 126,
        "8326": 4,
        "8327": 4,
        "8328": 110,
        "8329": 125,
        "8330": 11,
        "8331": 230,
        "8332": 96,
        "8333": 28,
        "8334": 255,
        "8335": 230,
        "8336": 70,
        "8337": 82,
        "8338": 247,
        "8339": 50,
        "8340": 22,
        "8341": 110,
        "8342": 201,
        "8343": 219,
        "8344": 78,
        "8345": 3,
        "8346": 163,
        "8347": 51,
        "8348": 234,
        "8349": 76,
        "8350": 198,
        "8351": 76,
        "8352": 163,
        "8353": 149,
        "8354": 49,
        "8355": 106,
        "8356": 175,
        "8357": 175,
        "8358": 187,
        "8359": 217,
        "8360": 187,
        "8361": 124,
        "8362": 248,
        "8363": 49,
        "8364": 86,
        "8365": 146,
        "8366": 201,
        "8367": 33,
        "8368": 22,
        "8369": 4,
        "8370": 141,
        "8371": 238,
        "8372": 204,
        "8373": 253,
        "8374": 89,
        "8375": 14,
        "8376": 243,
        "8377": 160,
        "8378": 101,
        "8379": 132,
        "8380": 16,
        "8381": 66,
        "8382": 176,
        "8383": 84,
        "8384": 132,
        "8385": 219,
        "8386": 163,
        "8387": 136,
        "8388": 201,
        "8389": 114,
        "8390": 16,
        "8391": 195,
        "8392": 199,
        "8393": 178,
        "8394": 161,
        "8395": 220,
        "8396": 222,
        "8397": 113,
        "8398": 91,
        "8399": 196,
        "8400": 165,
        "8401": 204,
        "8402": 194,
        "8403": 148,
        "8404": 182,
        "8405": 214,
        "8406": 134,
        "8407": 207,
        "8408": 193,
        "8409": 29,
        "8410": 102,
        "8411": 113,
        "8412": 253,
        "8413": 155,
        "8414": 246,
        "8415": 76,
        "8416": 171,
        "8417": 13,
        "8418": 64,
        "8419": 119,
        "8420": 157,
        "8421": 3,
        "8422": 230,
        "8423": 255,
        "8424": 146,
        "8425": 88,
        "8426": 13,
        "8427": 127,
        "8428": 135,
        "8429": 42,
        "8430": 11,
        "8431": 143,
        "8432": 248,
        "8433": 21,
        "8434": 142,
        "8435": 63,
        "8436": 22,
        "8437": 255,
        "8438": 29,
        "8439": 56,
        "8440": 151,
        "8441": 110,
        "8442": 249,
        "8443": 217,
        "8444": 139,
        "8445": 208,
        "8446": 131,
        "8447": 143,
        "8448": 83,
        "8449": 214,
        "8450": 218,
        "8451": 121,
        "8452": 216,
        "8453": 34,
        "8454": 133,
        "8455": 61,
        "8456": 172,
        "8457": 213,
        "8458": 218,
        "8459": 225,
        "8460": 81,
        "8461": 3,
        "8462": 201,
        "8463": 253,
        "8464": 149,
        "8465": 123,
        "8466": 114,
        "8467": 126,
        "8468": 46,
        "8469": 108,
        "8470": 212,
        "8471": 90,
        "8472": 202,
        "8473": 78,
        "8474": 70,
        "8475": 227,
        "8476": 181,
        "8477": 117,
        "8478": 175,
        "8479": 25,
        "8480": 4,
        "8481": 167,
        "8482": 115,
        "8483": 217,
        "8484": 150,
        "8485": 36,
        "8486": 208,
        "8487": 218,
        "8488": 149,
        "8489": 112,
        "8490": 62,
        "8491": 144,
        "8492": 97,
        "8493": 239,
        "8494": 39,
        "8495": 8,
        "8496": 95,
        "8497": 110,
        "8498": 85,
        "8499": 18,
        "8500": 165,
        "8501": 23,
        "8502": 219,
        "8503": 153,
        "8504": 202,
        "8505": 135,
        "8506": 232,
        "8507": 24,
        "8508": 198,
        "8509": 72,
        "8510": 129,
        "8511": 89,
        "8512": 88,
        "8513": 45,
        "8514": 85,
        "8515": 169,
        "8516": 255,
        "8517": 87,
        "8518": 212,
        "8519": 200,
        "8520": 36,
        "8521": 60,
        "8522": 61,
        "8523": 15,
        "8524": 231,
        "8525": 81,
        "8526": 148,
        "8527": 37,
        "8528": 81,
        "8529": 138,
        "8530": 226,
        "8531": 153,
        "8532": 94,
        "8533": 5,
        "8534": 31,
        "8535": 123,
        "8536": 235,
        "8537": 91,
        "8538": 85,
        "8539": 172,
        "8540": 29,
        "8541": 20,
        "8542": 14,
        "8543": 234,
        "8544": 170,
        "8545": 142,
        "8546": 240,
        "8547": 231,
        "8548": 148,
        "8549": 28,
        "8550": 176,
        "8551": 26,
        "8552": 64,
        "8553": 133,
        "8554": 23,
        "8555": 140,
        "8556": 125,
        "8557": 71,
        "8558": 52,
        "8559": 177,
        "8560": 64,
        "8561": 66,
        "8562": 148,
        "8563": 18,
        "8564": 165,
        "8565": 159,
        "8566": 224,
        "8567": 44,
        "8568": 246,
        "8569": 75,
        "8570": 62,
        "8571": 50,
        "8572": 50,
        "8573": 29,
        "8574": 208,
        "8575": 138,
        "8576": 178,
        "8577": 197,
        "8578": 194,
        "8579": 167,
        "8580": 143,
        "8581": 81,
        "8582": 97,
        "8583": 130,
        "8584": 242,
        "8585": 127,
        "8586": 127,
        "8587": 164,
        "8588": 46,
        "8589": 76,
        "8590": 250,
        "8591": 218,
        "8592": 21,
        "8593": 165,
        "8594": 150,
        "8595": 46,
        "8596": 75,
        "8597": 183,
        "8598": 35,
        "8599": 47,
        "8600": 219,
        "8601": 68,
        "8602": 162,
        "8603": 54,
        "8604": 65,
        "8605": 129,
        "8606": 254,
        "8607": 247,
        "8608": 104,
        "8609": 29,
        "8610": 93,
        "8611": 93,
        "8612": 48,
        "8613": 201,
        "8614": 241,
        "8615": 107,
        "8616": 135,
        "8617": 213,
        "8618": 69,
        "8619": 24,
        "8620": 255,
        "8621": 245,
        "8622": 109,
        "8623": 74,
        "8624": 7,
        "8625": 172,
        "8626": 190,
        "8627": 76,
        "8628": 131,
        "8629": 50,
        "8630": 230,
        "8631": 78,
        "8632": 233,
        "8633": 196,
        "8634": 173,
        "8635": 40,
        "8636": 77,
        "8637": 193,
        "8638": 157,
        "8639": 96,
        "8640": 69,
        "8641": 233,
        "8642": 225,
        "8643": 251,
        "8644": 252,
        "8645": 85,
        "8646": 111,
        "8647": 61,
        "8648": 60,
        "8649": 206,
        "8650": 155,
        "8651": 97,
        "8652": 149,
        "8653": 234,
        "8654": 63,
        "8655": 231,
        "8656": 73,
        "8657": 157,
        "8658": 56,
        "8659": 199,
        "8660": 10,
        "8661": 45,
        "8662": 227,
        "8663": 117,
        "8664": 157,
        "8665": 151,
        "8666": 105,
        "8667": 175,
        "8668": 75,
        "8669": 193,
        "8670": 202,
        "8671": 90,
        "8672": 71,
        "8673": 211,
        "8674": 104,
        "8675": 64,
        "8676": 49,
        "8677": 201,
        "8678": 101,
        "8679": 108,
        "8680": 182,
        "8681": 110,
        "8682": 0,
        "8683": 145,
        "8684": 219,
        "8685": 46,
        "8686": 33,
        "8687": 125,
        "8688": 30,
        "8689": 125,
        "8690": 5,
        "8691": 6,
        "8692": 161,
        "8693": 18,
        "8694": 122,
        "8695": 66,
        "8696": 50,
        "8697": 251,
        "8698": 157,
        "8699": 207,
        "8700": 21,
        "8701": 177,
        "8702": 2,
        "8703": 78,
        "8704": 86,
        "8705": 193,
        "8706": 110,
        "8707": 198,
        "8708": 219,
        "8709": 143,
        "8710": 184,
        "8711": 113,
        "8712": 202,
        "8713": 147,
        "8714": 156,
        "8715": 124,
        "8716": 190,
        "8717": 121,
        "8718": 193,
        "8719": 2,
        "8720": 47,
        "8721": 234,
        "8722": 211,
        "8723": 83,
        "8724": 117,
        "8725": 213,
        "8726": 231,
        "8727": 237,
        "8728": 255,
        "8729": 121,
        "8730": 71,
        "8731": 117,
        "8732": 67,
        "8733": 205,
        "8734": 107,
        "8735": 85,
        "8736": 24,
        "8737": 121,
        "8738": 106,
        "8739": 210,
        "8740": 126,
        "8741": 133,
        "8742": 116,
        "8743": 85,
        "8744": 78,
        "8745": 181,
        "8746": 188,
        "8747": 141,
        "8748": 105,
        "8749": 147,
        "8750": 105,
        "8751": 247,
        "8752": 148,
        "8753": 183,
        "8754": 121,
        "8755": 145,
        "8756": 53,
        "8757": 52,
        "8758": 228,
        "8759": 247,
        "8760": 20,
        "8761": 81,
        "8762": 201,
        "8763": 225,
        "8764": 189,
        "8765": 124,
        "8766": 42,
        "8767": 75,
        "8768": 96,
        "8769": 197,
        "8770": 120,
        "8771": 25,
        "8772": 133,
        "8773": 94,
        "8774": 185,
        "8775": 198,
        "8776": 86,
        "8777": 145,
        "8778": 67,
        "8779": 222,
        "8780": 42,
        "8781": 112,
        "8782": 57,
        "8783": 210,
        "8784": 78,
        "8785": 83,
        "8786": 74,
        "8787": 13,
        "8788": 236,
        "8789": 42,
        "8790": 185,
        "8791": 101,
        "8792": 95,
        "8793": 74,
        "8794": 156,
        "8795": 128,
        "8796": 75,
        "8797": 212,
        "8798": 106,
        "8799": 37,
        "8800": 43,
        "8801": 148,
        "8802": 108,
        "8803": 172,
        "8804": 114,
        "8805": 142,
        "8806": 98,
        "8807": 132,
        "8808": 248,
        "8809": 131,
        "8810": 220,
        "8811": 175,
        "8812": 168,
        "8813": 98,
        "8814": 248,
        "8815": 204,
        "8816": 245,
        "8817": 170,
        "8818": 6,
        "8819": 2,
        "8820": 226,
        "8821": 174,
        "8822": 154,
        "8823": 53,
        "8824": 229,
        "8825": 144,
        "8826": 198,
        "8827": 101,
        "8828": 94,
        "8829": 129,
        "8830": 53,
        "8831": 67,
        "8832": 14,
        "8833": 245,
        "8834": 234,
        "8835": 221,
        "8836": 234,
        "8837": 200,
        "8838": 58,
        "8839": 63,
        "8840": 3,
        "8841": 229,
        "8842": 179,
        "8843": 94,
        "8844": 226,
        "8845": 251,
        "8846": 243,
        "8847": 45,
        "8848": 97,
        "8849": 110,
        "8850": 229,
        "8851": 196,
        "8852": 45,
        "8853": 44,
        "8854": 124,
        "8855": 224,
        "8856": 74,
        "8857": 158,
        "8858": 108,
        "8859": 93,
        "8860": 56,
        "8861": 126,
        "8862": 208,
        "8863": 179,
        "8864": 228,
        "8865": 166,
        "8866": 114,
        "8867": 53,
        "8868": 73,
        "8869": 47,
        "8870": 250,
        "8871": 106,
        "8872": 53,
        "8873": 205,
        "8874": 157,
        "8875": 217,
        "8876": 83,
        "8877": 227,
        "8878": 152,
        "8879": 76,
        "8880": 32,
        "8881": 167,
        "8882": 254,
        "8883": 76,
        "8884": 19,
        "8885": 119,
        "8886": 85,
        "8887": 123,
        "8888": 177,
        "8889": 152,
        "8890": 1,
        "8891": 28,
        "8892": 110,
        "8893": 80,
        "8894": 124,
        "8895": 53,
        "8896": 121,
        "8897": 227,
        "8898": 161,
        "8899": 94,
        "8900": 161,
        "8901": 229,
        "8902": 31,
        "8903": 56,
        "8904": 103,
        "8905": 36,
        "8906": 161,
        "8907": 20,
        "8908": 191,
        "8909": 127,
        "8910": 196,
        "8911": 193,
        "8912": 53,
        "8913": 8,
        "8914": 30,
        "8915": 1,
        "8916": 198,
        "8917": 124,
        "8918": 242,
        "8919": 175,
        "8920": 187,
        "8921": 131,
        "8922": 74,
        "8923": 137,
        "8924": 254,
        "8925": 101,
        "8926": 107,
        "8927": 87,
        "8928": 240,
        "8929": 83,
        "8930": 42,
        "8931": 113,
        "8932": 78,
        "8933": 167,
        "8934": 151,
        "8935": 9,
        "8936": 41,
        "8937": 237,
        "8938": 44,
        "8939": 252,
        "8940": 83,
        "8941": 104,
        "8942": 100,
        "8943": 77,
        "8944": 49,
        "8945": 37,
        "8946": 114,
        "8947": 196,
        "8948": 30,
        "8949": 22,
        "8950": 52,
        "8951": 86,
        "8952": 77,
        "8953": 212,
        "8954": 236,
        "8955": 243,
        "8956": 33,
        "8957": 32,
        "8958": 209,
        "8959": 170,
        "8960": 53,
        "8961": 243,
        "8962": 120,
        "8963": 132,
        "8964": 139,
        "8965": 208,
        "8966": 35,
        "8967": 186,
        "8968": 204,
        "8969": 6,
        "8970": 221,
        "8971": 197,
        "8972": 53,
        "8973": 176,
        "8974": 238,
        "8975": 86,
        "8976": 222,
        "8977": 78,
        "8978": 241,
        "8979": 204,
        "8980": 122,
        "8981": 117,
        "8982": 229,
        "8983": 32,
        "8984": 96,
        "8985": 21,
        "8986": 118,
        "8987": 102,
        "8988": 135,
        "8989": 62,
        "8990": 139,
        "8991": 177,
        "8992": 20,
        "8993": 252,
        "8994": 114,
        "8995": 220,
        "8996": 153,
        "8997": 0,
        "8998": 168,
        "8999": 146,
        "9000": 86,
        "9001": 201,
        "9002": 28,
        "9003": 49,
        "9004": 111,
        "9005": 218,
        "9006": 181,
        "9007": 166,
        "9008": 82,
        "9009": 128,
        "9010": 254,
        "9011": 10,
        "9012": 207,
        "9013": 161,
        "9014": 16,
        "9015": 188,
        "9016": 188,
        "9017": 150,
        "9018": 50,
        "9019": 142,
        "9020": 156,
        "9021": 124,
        "9022": 83,
        "9023": 248,
        "9024": 183,
        "9025": 143,
        "9026": 157,
        "9027": 231,
        "9028": 34,
        "9029": 245,
        "9030": 186,
        "9031": 247,
        "9032": 87,
        "9033": 191,
        "9034": 114,
        "9035": 129,
        "9036": 36,
        "9037": 198,
        "9038": 188,
        "9039": 11,
        "9040": 54,
        "9041": 172,
        "9042": 247,
        "9043": 70,
        "9044": 107,
        "9045": 207,
        "9046": 102,
        "9047": 255,
        "9048": 223,
        "9049": 80,
        "9050": 114,
        "9051": 226,
        "9052": 226,
        "9053": 65,
        "9054": 82,
        "9055": 73,
        "9056": 114,
        "9057": 101,
        "9058": 78,
        "9059": 218,
        "9060": 91,
        "9061": 162,
        "9062": 28,
        "9063": 239,
        "9064": 120,
        "9065": 229,
        "9066": 232,
        "9067": 144,
        "9068": 20,
        "9069": 54,
        "9070": 120,
        "9071": 30,
        "9072": 48,
        "9073": 250,
        "9074": 38,
        "9075": 154,
        "9076": 45,
        "9077": 114,
        "9078": 52,
        "9079": 249,
        "9080": 209,
        "9081": 106,
        "9082": 6,
        "9083": 108,
        "9084": 243,
        "9085": 232,
        "9086": 227,
        "9087": 33,
        "9088": 195,
        "9089": 4,
        "9090": 93,
        "9091": 210,
        "9092": 236,
        "9093": 218,
        "9094": 253,
        "9095": 135,
        "9096": 175,
        "9097": 146,
        "9098": 43,
        "9099": 97,
        "9100": 128,
        "9101": 247,
        "9102": 134,
        "9103": 29,
        "9104": 175,
        "9105": 116,
        "9106": 118,
        "9107": 139,
        "9108": 82,
        "9109": 73,
        "9110": 181,
        "9111": 6,
        "9112": 114,
        "9113": 234,
        "9114": 90,
        "9115": 26,
        "9116": 82,
        "9117": 89,
        "9118": 157,
        "9119": 114,
        "9120": 2,
        "9121": 87,
        "9122": 131,
        "9123": 25,
        "9124": 206,
        "9125": 110,
        "9126": 88,
        "9127": 5,
        "9128": 196,
        "9129": 29,
        "9130": 212,
        "9131": 6,
        "9132": 42,
        "9133": 85,
        "9134": 113,
        "9135": 21,
        "9136": 135,
        "9137": 83,
        "9138": 84,
        "9139": 6,
        "9140": 244,
        "9141": 118,
        "9142": 25,
        "9143": 31,
        "9144": 219,
        "9145": 254,
        "9146": 38,
        "9147": 243,
        "9148": 218,
        "9149": 28,
        "9150": 119,
        "9151": 9,
        "9152": 72,
        "9153": 114,
        "9154": 133,
        "9155": 4,
        "9156": 48,
        "9157": 90,
        "9158": 91,
        "9159": 164,
        "9160": 225,
        "9161": 122,
        "9162": 253,
        "9163": 162,
        "9164": 248,
        "9165": 183,
        "9166": 147,
        "9167": 30,
        "9168": 148,
        "9169": 5,
        "9170": 187,
        "9171": 176,
        "9172": 1,
        "9173": 254,
        "9174": 116,
        "9175": 63,
        "9176": 76,
        "9177": 61,
        "9178": 179,
        "9179": 25,
        "9180": 158,
        "9181": 158,
        "9182": 71,
        "9183": 173,
        "9184": 238,
        "9185": 186,
        "9186": 130,
        "9187": 154,
        "9188": 183,
        "9189": 125,
        "9190": 215,
        "9191": 183,
        "9192": 148,
        "9193": 132,
        "9194": 162,
        "9195": 86,
        "9196": 42,
        "9197": 183,
        "9198": 243,
        "9199": 25,
        "9200": 125,
        "9201": 187,
        "9202": 23,
        "9203": 188,
        "9204": 12,
        "9205": 137,
        "9206": 185,
        "9207": 176,
        "9208": 207,
        "9209": 215,
        "9210": 236,
        "9211": 87,
        "9212": 149,
        "9213": 34,
        "9214": 134,
        "9215": 156,
        "9216": 62,
        "9217": 82,
        "9218": 53,
        "9219": 110,
        "9220": 229,
        "9221": 11,
        "9222": 162,
        "9223": 191,
        "9224": 14,
        "9225": 24,
        "9226": 75,
        "9227": 163,
        "9228": 111,
        "9229": 130,
        "9230": 170,
        "9231": 81,
        "9232": 109,
        "9233": 85,
        "9234": 130,
        "9235": 134,
        "9236": 175,
        "9237": 40,
        "9238": 237,
        "9239": 166,
        "9240": 197,
        "9241": 173,
        "9242": 196,
        "9243": 111,
        "9244": 237,
        "9245": 88,
        "9246": 167,
        "9247": 41,
        "9248": 119,
        "9249": 116,
        "9250": 238,
        "9251": 171,
        "9252": 1,
        "9253": 100,
        "9254": 225,
        "9255": 104,
        "9256": 83,
        "9257": 111,
        "9258": 134,
        "9259": 49,
        "9260": 144,
        "9261": 241,
        "9262": 132,
        "9263": 94,
        "9264": 63,
        "9265": 25,
        "9266": 151,
        "9267": 66,
        "9268": 132,
        "9269": 65,
        "9270": 56,
        "9271": 212,
        "9272": 63,
        "9273": 191,
        "9274": 242,
        "9275": 172,
        "9276": 164,
        "9277": 120,
        "9278": 243,
        "9279": 14,
        "9280": 132,
        "9281": 214,
        "9282": 161,
        "9283": 25,
        "9284": 222,
        "9285": 168,
        "9286": 109,
        "9287": 189,
        "9288": 122,
        "9289": 153,
        "9290": 79,
        "9291": 90,
        "9292": 92,
        "9293": 167,
        "9294": 101,
        "9295": 113,
        "9296": 251,
        "9297": 28,
        "9298": 134,
        "9299": 224,
        "9300": 116,
        "9301": 177,
        "9302": 171,
        "9303": 243,
        "9304": 76,
        "9305": 118,
        "9306": 121,
        "9307": 202,
        "9308": 61,
        "9309": 101,
        "9310": 34,
        "9311": 200,
        "9312": 115,
        "9313": 83,
        "9314": 223,
        "9315": 23,
        "9316": 98,
        "9317": 75,
        "9318": 167,
        "9319": 124,
        "9320": 251,
        "9321": 63,
        "9322": 156,
        "9323": 224,
        "9324": 126,
        "9325": 3,
        "9326": 111,
        "9327": 154,
        "9328": 174,
        "9329": 254,
        "9330": 101,
        "9331": 100,
        "9332": 251,
        "9333": 230,
        "9334": 155,
        "9335": 85,
        "9336": 169,
        "9337": 229,
        "9338": 141,
        "9339": 66,
        "9340": 132,
        "9341": 44,
        "9342": 11,
        "9343": 189,
        "9344": 76,
        "9345": 123,
        "9346": 75,
        "9347": 12,
        "9348": 93,
        "9349": 159,
        "9350": 166,
        "9351": 240,
        "9352": 168,
        "9353": 37,
        "9354": 19,
        "9355": 117,
        "9356": 52,
        "9357": 125,
        "9358": 164,
        "9359": 233,
        "9360": 44,
        "9361": 84,
        "9362": 189,
        "9363": 19,
        "9364": 66,
        "9365": 232,
        "9366": 42,
        "9367": 114,
        "9368": 238,
        "9369": 210,
        "9370": 187,
        "9371": 238,
        "9372": 111,
        "9373": 150,
        "9374": 250,
        "9375": 153,
        "9376": 229,
        "9377": 183,
        "9378": 217,
        "9379": 243,
        "9380": 191,
        "9381": 174,
        "9382": 191,
        "9383": 38,
        "9384": 163,
        "9385": 49,
        "9386": 60,
        "9387": 232,
        "9388": 156,
        "9389": 74,
        "9390": 55,
        "9391": 70,
        "9392": 253,
        "9393": 228,
        "9394": 174,
        "9395": 247,
        "9396": 169,
        "9397": 230,
        "9398": 173,
        "9399": 253,
        "9400": 224,
        "9401": 47,
        "9402": 41,
        "9403": 208,
        "9404": 226,
        "9405": 2,
        "9406": 235,
        "9407": 210,
        "9408": 18,
        "9409": 63,
        "9410": 38,
        "9411": 225,
        "9412": 94,
        "9413": 166,
        "9414": 53,
        "9415": 8,
        "9416": 156,
        "9417": 133,
        "9418": 106,
        "9419": 81,
        "9420": 137,
        "9421": 139,
        "9422": 174,
        "9423": 137,
        "9424": 218,
        "9425": 182,
        "9426": 83,
        "9427": 31,
        "9428": 68,
        "9429": 32,
        "9430": 138,
        "9431": 197,
        "9432": 101,
        "9433": 147,
        "9434": 104,
        "9435": 18,
        "9436": 28,
        "9437": 117,
        "9438": 74,
        "9439": 145,
        "9440": 38,
        "9441": 103,
        "9442": 254,
        "9443": 125,
        "9444": 64,
        "9445": 189,
        "9446": 186,
        "9447": 104,
        "9448": 217,
        "9449": 53,
        "9450": 67,
        "9451": 85,
        "9452": 133,
        "9453": 169,
        "9454": 49,
        "9455": 189,
        "9456": 166,
        "9457": 5,
        "9458": 176,
        "9459": 110,
        "9460": 199,
        "9461": 114,
        "9462": 41,
        "9463": 47,
        "9464": 204,
        "9465": 224,
        "9466": 196,
        "9467": 146,
        "9468": 39,
        "9469": 124,
        "9470": 183,
        "9471": 194,
        "9472": 135,
        "9473": 45,
        "9474": 144,
        "9475": 25,
        "9476": 78,
        "9477": 162,
        "9478": 211,
        "9479": 141,
        "9480": 100,
        "9481": 89,
        "9482": 168,
        "9483": 15,
        "9484": 206,
        "9485": 155,
        "9486": 122,
        "9487": 129,
        "9488": 152,
        "9489": 198,
        "9490": 249,
        "9491": 7,
        "9492": 141,
        "9493": 153,
        "9494": 193,
        "9495": 48,
        "9496": 147,
        "9497": 127,
        "9498": 239,
        "9499": 204,
        "9500": 213,
        "9501": 252,
        "9502": 148,
        "9503": 90,
        "9504": 135,
        "9505": 224,
        "9506": 200,
        "9507": 193,
        "9508": 35,
        "9509": 166,
        "9510": 34,
        "9511": 156,
        "9512": 199,
        "9513": 211,
        "9514": 196,
        "9515": 229,
        "9516": 209,
        "9517": 213,
        "9518": 236,
        "9519": 200,
        "9520": 119,
        "9521": 73,
        "9522": 66,
        "9523": 128,
        "9524": 221,
        "9525": 87,
        "9526": 90,
        "9527": 80,
        "9528": 75,
        "9529": 83,
        "9530": 196,
        "9531": 68,
        "9532": 88,
        "9533": 101,
        "9534": 137,
        "9535": 132,
        "9536": 47,
        "9537": 163,
        "9538": 41,
        "9539": 110,
        "9540": 250,
        "9541": 200,
        "9542": 233,
        "9543": 48,
        "9544": 59,
        "9545": 17,
        "9546": 241,
        "9547": 189,
        "9548": 156,
        "9549": 211,
        "9550": 218,
        "9551": 101,
        "9552": 41,
        "9553": 82,
        "9554": 55,
        "9555": 96,
        "9556": 124,
        "9557": 88,
        "9558": 27,
        "9559": 32,
        "9560": 95,
        "9561": 229,
        "9562": 47,
        "9563": 48,
        "9564": 191,
        "9565": 161,
        "9566": 121,
        "9567": 199,
        "9568": 169,
        "9569": 255,
        "9570": 186,
        "9571": 138,
        "9572": 67,
        "9573": 173,
        "9574": 72,
        "9575": 120,
        "9576": 43,
        "9577": 7,
        "9578": 23,
        "9579": 245,
        "9580": 1,
        "9581": 44,
        "9582": 143,
        "9583": 146,
        "9584": 95,
        "9585": 127,
        "9586": 170,
        "9587": 226,
        "9588": 173,
        "9589": 42,
        "9590": 185,
        "9591": 140,
        "9592": 76,
        "9593": 19,
        "9594": 152,
        "9595": 0,
        "9596": 205,
        "9597": 255,
        "9598": 94,
        "9599": 77,
        "9600": 54,
        "9601": 194,
        "9602": 27,
        "9603": 160,
        "9604": 211,
        "9605": 249,
        "9606": 179,
        "9607": 236,
        "9608": 214,
        "9609": 95,
        "9610": 70,
        "9611": 184,
        "9612": 178,
        "9613": 221,
        "9614": 76,
        "9615": 187,
        "9616": 189,
        "9617": 23,
        "9618": 25,
        "9619": 134,
        "9620": 254,
        "9621": 33,
        "9622": 54,
        "9623": 135,
        "9624": 177,
        "9625": 106,
        "9626": 208,
        "9627": 179,
        "9628": 74,
        "9629": 45,
        "9630": 61,
        "9631": 96,
        "9632": 40,
        "9633": 226,
        "9634": 111,
        "9635": 31,
        "9636": 117,
        "9637": 1,
        "9638": 207,
        "9639": 134,
        "9640": 127,
        "9641": 240,
        "9642": 143,
        "9643": 85,
        "9644": 47,
        "9645": 48,
        "9646": 89,
        "9647": 219,
        "9648": 219,
        "9649": 243,
        "9650": 73,
        "9651": 16,
        "9652": 82,
        "9653": 198,
        "9654": 167,
        "9655": 157,
        "9656": 16,
        "9657": 151,
        "9658": 173,
        "9659": 213,
        "9660": 59,
        "9661": 157,
        "9662": 147,
        "9663": 79,
        "9664": 99,
        "9665": 55,
        "9666": 149,
        "9667": 38,
        "9668": 112,
        "9669": 171,
        "9670": 201,
        "9671": 26,
        "9672": 160,
        "9673": 211,
        "9674": 158,
        "9675": 94,
        "9676": 5,
        "9677": 181,
        "9678": 192,
        "9679": 125,
        "9680": 222,
        "9681": 74,
        "9682": 139,
        "9683": 149,
        "9684": 44,
        "9685": 47,
        "9686": 47,
        "9687": 76,
        "9688": 87,
        "9689": 179,
        "9690": 88,
        "9691": 87,
        "9692": 147,
        "9693": 62,
        "9694": 78,
        "9695": 80,
        "9696": 54,
        "9697": 170,
        "9698": 110,
        "9699": 200,
        "9700": 222,
        "9701": 108,
        "9702": 126,
        "9703": 82,
        "9704": 107,
        "9705": 150,
        "9706": 237,
        "9707": 139,
        "9708": 75,
        "9709": 134,
        "9710": 50,
        "9711": 120,
        "9712": 231,
        "9713": 10,
        "9714": 135,
        "9715": 48,
        "9716": 63,
        "9717": 149,
        "9718": 84,
        "9719": 252,
        "9720": 100,
        "9721": 214,
        "9722": 191,
        "9723": 81,
        "9724": 10,
        "9725": 89,
        "9726": 179,
        "9727": 57,
        "9728": 99,
        "9729": 107,
        "9730": 94,
        "9731": 133,
        "9732": 137,
        "9733": 194,
        "9734": 224,
        "9735": 174,
        "9736": 32,
        "9737": 244,
        "9738": 69,
        "9739": 221,
        "9740": 185,
        "9741": 3,
        "9742": 182,
        "9743": 214,
        "9744": 76,
        "9745": 119,
        "9746": 70,
        "9747": 173,
        "9748": 117,
        "9749": 35,
        "9750": 113,
        "9751": 138,
        "9752": 154,
        "9753": 248,
        "9754": 29,
        "9755": 84,
        "9756": 39,
        "9757": 117,
        "9758": 9,
        "9759": 64,
        "9760": 94,
        "9761": 208,
        "9762": 12,
        "9763": 90,
        "9764": 9,
        "9765": 74,
        "9766": 121,
        "9767": 224,
        "9768": 202,
        "9769": 97,
        "9770": 120,
        "9771": 55,
        "9772": 102,
        "9773": 251,
        "9774": 94,
        "9775": 33,
        "9776": 30,
        "9777": 173,
        "9778": 204,
        "9779": 200,
        "9780": 87,
        "9781": 112,
        "9782": 241,
        "9783": 171,
        "9784": 114,
        "9785": 238,
        "9786": 139,
        "9787": 24,
        "9788": 88,
        "9789": 159,
        "9790": 137,
        "9791": 248,
        "9792": 196,
        "9793": 184,
        "9794": 56,
        "9795": 97,
        "9796": 57,
        "9797": 126,
        "9798": 194,
        "9799": 165,
        "9800": 72,
        "9801": 244,
        "9802": 126,
        "9803": 105,
        "9804": 26,
        "9805": 155,
        "9806": 139,
        "9807": 215,
        "9808": 83,
        "9809": 92,
        "9810": 241,
        "9811": 20,
        "9812": 238,
        "9813": 75,
        "9814": 147,
        "9815": 172,
        "9816": 244,
        "9817": 162,
        "9818": 51,
        "9819": 106,
        "9820": 143,
        "9821": 166,
        "9822": 91,
        "9823": 147,
        "9824": 20,
        "9825": 102,
        "9826": 68,
        "9827": 252,
        "9828": 149,
        "9829": 248,
        "9830": 147,
        "9831": 107,
        "9832": 116,
        "9833": 12,
        "9834": 236,
        "9835": 138,
        "9836": 138,
        "9837": 185,
        "9838": 62,
        "9839": 254,
        "9840": 34,
        "9841": 3,
        "9842": 44,
        "9843": 176,
        "9844": 223,
        "9845": 47,
        "9846": 90,
        "9847": 116,
        "9848": 150,
        "9849": 3,
        "9850": 110,
        "9851": 6,
        "9852": 182,
        "9853": 15,
        "9854": 121,
        "9855": 103,
        "9856": 179,
        "9857": 154,
        "9858": 222,
        "9859": 208,
        "9860": 55,
        "9861": 139,
        "9862": 238,
        "9863": 33,
        "9864": 85,
        "9865": 144,
        "9866": 180,
        "9867": 46,
        "9868": 14,
        "9869": 162,
        "9870": 251,
        "9871": 11,
        "9872": 72,
        "9873": 169,
        "9874": 19,
        "9875": 197,
        "9876": 115,
        "9877": 131,
        "9878": 186,
        "9879": 121,
        "9880": 64,
        "9881": 173,
        "9882": 89,
        "9883": 96,
        "9884": 191,
        "9885": 164,
        "9886": 10,
        "9887": 116,
        "9888": 161,
        "9889": 242,
        "9890": 15,
        "9891": 17,
        "9892": 244,
        "9893": 23,
        "9894": 252,
        "9895": 23,
        "9896": 33,
        "9897": 77,
        "9898": 159,
        "9899": 54,
        "9900": 217,
        "9901": 196,
        "9902": 237,
        "9903": 208,
        "9904": 204,
        "9905": 94,
        "9906": 68,
        "9907": 67,
        "9908": 174,
        "9909": 144,
        "9910": 161,
        "9911": 23,
        "9912": 95,
        "9913": 206,
        "9914": 126,
        "9915": 201,
        "9916": 133,
        "9917": 199,
        "9918": 238,
        "9919": 28,
        "9920": 38,
        "9921": 165,
        "9922": 233,
        "9923": 243,
        "9924": 54,
        "9925": 109,
        "9926": 106,
        "9927": 81,
        "9928": 249,
        "9929": 138,
        "9930": 195,
        "9931": 16,
        "9932": 133,
        "9933": 155,
        "9934": 196,
        "9935": 90,
        "9936": 230,
        "9937": 111,
        "9938": 109,
        "9939": 37,
        "9940": 171,
        "9941": 79,
        "9942": 136,
        "9943": 176,
        "9944": 255,
        "9945": 123,
        "9946": 185,
        "9947": 127,
        "9948": 59,
        "9949": 247,
        "9950": 136,
        "9951": 113,
        "9952": 193,
        "9953": 191,
        "9954": 52,
        "9955": 54,
        "9956": 239,
        "9957": 28,
        "9958": 189,
        "9959": 235,
        "9960": 206,
        "9961": 98,
        "9962": 74,
        "9963": 222,
        "9964": 235,
        "9965": 106,
        "9966": 148,
        "9967": 253,
        "9968": 223,
        "9969": 111,
        "9970": 61,
        "9971": 173,
        "9972": 88,
        "9973": 53,
        "9974": 70,
        "9975": 148,
        "9976": 43,
        "9977": 232,
        "9978": 35,
        "9979": 8,
        "9980": 87,
        "9981": 149,
        "9982": 95,
        "9983": 14,
        "9984": 82,
        "9985": 77,
        "9986": 39,
        "9987": 211,
        "9988": 47,
        "9989": 206,
        "9990": 144,
        "9991": 121,
        "9992": 32,
        "9993": 89,
        "9994": 10,
        "9995": 68,
        "9996": 65,
        "9997": 139,
        "9998": 127,
        "9999": 12,
        "10000": 23,
        "10001": 231,
        "10002": 240,
        "10003": 125,
        "10004": 41,
        "10005": 221,
        "10006": 126,
        "10007": 253,
        "10008": 233,
        "10009": 208,
        "10010": 251,
        "10011": 120,
        "10012": 144,
        "10013": 119,
        "10014": 112,
        "10015": 251,
        "10016": 181,
        "10017": 100,
        "10018": 139,
        "10019": 33,
        "10020": 2,
        "10021": 154,
        "10022": 100,
        "10023": 8,
        "10024": 247,
        "10025": 102,
        "10026": 102,
        "10027": 89,
        "10028": 226,
        "10029": 248,
        "10030": 103,
        "10031": 66,
        "10032": 9,
        "10033": 176,
        "10034": 187,
        "10035": 240,
        "10036": 58,
        "10037": 237,
        "10038": 40,
        "10039": 193,
        "10040": 14,
        "10041": 136,
        "10042": 98,
        "10043": 16,
        "10044": 54,
        "10045": 13,
        "10046": 229,
        "10047": 178,
        "10048": 36,
        "10049": 16,
        "10050": 247,
        "10051": 23,
        "10052": 153,
        "10053": 141,
        "10054": 40,
        "10055": 182,
        "10056": 189,
        "10057": 134,
        "10058": 91,
        "10059": 174,
        "10060": 66,
        "10061": 62,
        "10062": 9,
        "10063": 47,
        "10064": 213,
        "10065": 167,
        "10066": 38,
        "10067": 0,
        "10068": 91,
        "10069": 142,
        "10070": 82,
        "10071": 239,
        "10072": 65,
        "10073": 219,
        "10074": 31,
        "10075": 113,
        "10076": 151,
        "10077": 88,
        "10078": 166,
        "10079": 148,
        "10080": 49,
        "10081": 171,
        "10082": 179,
        "10083": 32,
        "10084": 75,
        "10085": 20,
        "10086": 79,
        "10087": 251,
        "10088": 146,
        "10089": 128,
        "10090": 126,
        "10091": 254,
        "10092": 70,
        "10093": 145,
        "10094": 222,
        "10095": 216,
        "10096": 178,
        "10097": 172,
        "10098": 178,
        "10099": 7,
        "10100": 243,
        "10101": 123,
        "10102": 70,
        "10103": 255,
        "10104": 139,
        "10105": 200,
        "10106": 59,
        "10107": 220,
        "10108": 137,
        "10109": 249,
        "10110": 69,
        "10111": 228,
        "10112": 16,
        "10113": 189,
        "10114": 211,
        "10115": 226,
        "10116": 74,
        "10117": 175,
        "10118": 43,
        "10119": 45,
        "10120": 61,
        "10121": 52,
        "10122": 119,
        "10123": 192,
        "10124": 50,
        "10125": 58,
        "10126": 16,
        "10127": 151,
        "10128": 236,
        "10129": 175,
        "10130": 107,
        "10131": 142,
        "10132": 50,
        "10133": 204,
        "10134": 255,
        "10135": 167,
        "10136": 4,
        "10137": 204,
        "10138": 121,
        "10139": 228,
        "10140": 96,
        "10141": 235,
        "10142": 163,
        "10143": 246,
        "10144": 164,
        "10145": 209,
        "10146": 70,
        "10147": 242,
        "10148": 3,
        "10149": 116,
        "10150": 89,
        "10151": 74,
        "10152": 184,
        "10153": 35,
        "10154": 196,
        "10155": 29,
        "10156": 164,
        "10157": 93,
        "10158": 2,
        "10159": 22,
        "10160": 195,
        "10161": 138,
        "10162": 56,
        "10163": 200,
        "10164": 15,
        "10165": 154,
        "10166": 37,
        "10167": 137,
        "10168": 11,
        "10169": 30,
        "10170": 40,
        "10171": 221,
        "10172": 117,
        "10173": 213,
        "10174": 230,
        "10175": 176,
        "10176": 6,
        "10177": 79,
        "10178": 94,
        "10179": 23,
        "10180": 240,
        "10181": 76,
        "10182": 43,
        "10183": 220,
        "10184": 248,
        "10185": 254,
        "10186": 87,
        "10187": 39,
        "10188": 227,
        "10189": 38,
        "10190": 231,
        "10191": 34,
        "10192": 93,
        "10193": 77,
        "10194": 222,
        "10195": 159,
        "10196": 247,
        "10197": 233,
        "10198": 152,
        "10199": 180,
        "10200": 241,
        "10201": 209,
        "10202": 160,
        "10203": 102,
        "10204": 56,
        "10205": 208,
        "10206": 194,
        "10207": 150,
        "10208": 71,
        "10209": 40,
        "10210": 59,
        "10211": 71,
        "10212": 244,
        "10213": 216,
        "10214": 45,
        "10215": 36,
        "10216": 244,
        "10217": 253,
        "10218": 253,
        "10219": 127,
        "10220": 30,
        "10221": 119,
        "10222": 136,
        "10223": 223,
        "10224": 115,
        "10225": 206,
        "10226": 57,
        "10227": 6,
        "10228": 33,
        "10229": 169,
        "10230": 9,
        "10231": 37,
        "10232": 110,
        "10233": 224,
        "10234": 155,
        "10235": 148,
        "10236": 106,
        "10237": 205,
        "10238": 170,
        "10239": 224,
        "10240": 115,
        "10241": 218,
        "10242": 116,
        "10243": 51,
        "10244": 245,
        "10245": 247,
        "10246": 118,
        "10247": 91,
        "10248": 8,
        "10249": 107,
        "10250": 82,
        "10251": 192,
        "10252": 251,
        "10253": 12,
        "10254": 143,
        "10255": 67,
        "10256": 105,
        "10257": 206,
        "10258": 77,
        "10259": 141,
        "10260": 136,
        "10261": 195,
        "10262": 6,
        "10263": 118,
        "10264": 55,
        "10265": 50,
        "10266": 33,
        "10267": 73,
        "10268": 193,
        "10269": 178,
        "10270": 234,
        "10271": 206,
        "10272": 176,
        "10273": 14,
        "10274": 100,
        "10275": 110,
        "10276": 253,
        "10277": 113,
        "10278": 214,
        "10279": 143,
        "10280": 125,
        "10281": 65,
        "10282": 101,
        "10283": 122,
        "10284": 3,
        "10285": 72,
        "10286": 223,
        "10287": 187,
        "10288": 212,
        "10289": 64,
        "10290": 189,
        "10291": 97,
        "10292": 118,
        "10293": 232,
        "10294": 9,
        "10295": 105,
        "10296": 78,
        "10297": 185,
        "10298": 172,
        "10299": 75,
        "10300": 123,
        "10301": 116,
        "10302": 39,
        "10303": 64,
        "10304": 236,
        "10305": 192,
        "10306": 104,
        "10307": 178,
        "10308": 163,
        "10309": 66,
        "10310": 218,
        "10311": 181,
        "10312": 134,
        "10313": 54,
        "10314": 214,
        "10315": 234,
        "10316": 42,
        "10317": 107,
        "10318": 120,
        "10319": 199,
        "10320": 87,
        "10321": 148,
        "10322": 235,
        "10323": 143,
        "10324": 218,
        "10325": 254,
        "10326": 53,
        "10327": 204,
        "10328": 69,
        "10329": 254,
        "10330": 233,
        "10331": 9,
        "10332": 177,
        "10333": 65,
        "10334": 163,
        "10335": 203,
        "10336": 14,
        "10337": 219,
        "10338": 103,
        "10339": 31,
        "10340": 69,
        "10341": 43,
        "10342": 65,
        "10343": 121,
        "10344": 28,
        "10345": 5,
        "10346": 133,
        "10347": 47,
        "10348": 245,
        "10349": 160,
        "10350": 118,
        "10351": 118,
        "10352": 194,
        "10353": 118,
        "10354": 249,
        "10355": 215,
        "10356": 0,
        "10357": 209,
        "10358": 244,
        "10359": 14,
        "10360": 241,
        "10361": 156,
        "10362": 129,
        "10363": 78,
        "10364": 174,
        "10365": 3,
        "10366": 25,
        "10367": 182,
        "10368": 197,
        "10369": 27,
        "10370": 204,
        "10371": 193,
        "10372": 123,
        "10373": 77,
        "10374": 88,
        "10375": 28,
        "10376": 221,
        "10377": 75,
        "10378": 119,
        "10379": 88,
        "10380": 39,
        "10381": 133,
        "10382": 235,
        "10383": 114,
        "10384": 218,
        "10385": 78,
        "10386": 238,
        "10387": 181,
        "10388": 254,
        "10389": 48,
        "10390": 81,
        "10391": 141,
        "10392": 118,
        "10393": 75,
        "10394": 69,
        "10395": 105,
        "10396": 117,
        "10397": 103,
        "10398": 167,
        "10399": 62,
        "10400": 45,
        "10401": 33,
        "10402": 5,
        "10403": 226,
        "10404": 117,
        "10405": 132,
        "10406": 87,
        "10407": 128,
        "10408": 44,
        "10409": 118,
        "10410": 110,
        "10411": 33,
        "10412": 6,
        "10413": 107,
        "10414": 5,
        "10415": 67,
        "10416": 169,
        "10417": 25,
        "10418": 252,
        "10419": 187,
        "10420": 156,
        "10421": 21,
        "10422": 168,
        "10423": 158,
        "10424": 67,
        "10425": 215,
        "10426": 140,
        "10427": 32,
        "10428": 96,
        "10429": 88,
        "10430": 10,
        "10431": 253,
        "10432": 248,
        "10433": 162,
        "10434": 112,
        "10435": 231,
        "10436": 167,
        "10437": 38,
        "10438": 152,
        "10439": 31,
        "10440": 14,
        "10441": 148,
        "10442": 220,
        "10443": 233,
        "10444": 240,
        "10445": 2,
        "10446": 39,
        "10447": 70,
        "10448": 49,
        "10449": 184,
        "10450": 65,
        "10451": 17,
        "10452": 170,
        "10453": 63,
        "10454": 147,
        "10455": 247,
        "10456": 44,
        "10457": 39,
        "10458": 233,
        "10459": 209,
        "10460": 33,
        "10461": 235,
        "10462": 149,
        "10463": 217,
        "10464": 224,
        "10465": 248,
        "10466": 195,
        "10467": 241,
        "10468": 121,
        "10469": 98,
        "10470": 131,
        "10471": 46,
        "10472": 15,
        "10473": 25,
        "10474": 233,
        "10475": 206,
        "10476": 69,
        "10477": 221,
        "10478": 17,
        "10479": 225,
        "10480": 236,
        "10481": 61,
        "10482": 66,
        "10483": 106,
        "10484": 118,
        "10485": 177,
        "10486": 140,
        "10487": 103,
        "10488": 66,
        "10489": 32,
        "10490": 234,
        "10491": 110,
        "10492": 71,
        "10493": 163,
        "10494": 160,
        "10495": 216,
        "10496": 137,
        "10497": 127,
        "10498": 128,
        "10499": 218,
        "10500": 3,
        "10501": 96,
        "10502": 46,
        "10503": 135,
        "10504": 160,
        "10505": 37,
        "10506": 105,
        "10507": 11,
        "10508": 129,
        "10509": 66,
        "10510": 17,
        "10511": 106,
        "10512": 172,
        "10513": 239,
        "10514": 212,
        "10515": 143,
        "10516": 115,
        "10517": 104,
        "10518": 31,
        "10519": 47,
        "10520": 114,
        "10521": 128,
        "10522": 206,
        "10523": 209,
        "10524": 245,
        "10525": 137,
        "10526": 94,
        "10527": 73,
        "10528": 158,
        "10529": 82,
        "10530": 4,
        "10531": 128,
        "10532": 58,
        "10533": 167,
        "10534": 125,
        "10535": 67,
        "10536": 156,
        "10537": 182,
        "10538": 76,
        "10539": 85,
        "10540": 241,
        "10541": 3,
        "10542": 21,
        "10543": 19,
        "10544": 68,
        "10545": 127,
        "10546": 92,
        "10547": 187,
        "10548": 136,
        "10549": 28,
        "10550": 61,
        "10551": 39,
        "10552": 137,
        "10553": 51,
        "10554": 222,
        "10555": 131,
        "10556": 228,
        "10557": 53,
        "10558": 117,
        "10559": 80,
        "10560": 223,
        "10561": 177,
        "10562": 31,
        "10563": 71,
        "10564": 123,
        "10565": 200,
        "10566": 12,
        "10567": 164,
        "10568": 24,
        "10569": 198,
        "10570": 60,
        "10571": 1,
        "10572": 76,
        "10573": 165,
        "10574": 41,
        "10575": 36,
        "10576": 251,
        "10577": 96,
        "10578": 18,
        "10579": 5,
        "10580": 190,
        "10581": 227,
        "10582": 217,
        "10583": 154,
        "10584": 168,
        "10585": 96,
        "10586": 234,
        "10587": 174,
        "10588": 46,
        "10589": 89,
        "10590": 227,
        "10591": 162,
        "10592": 27,
        "10593": 104,
        "10594": 91,
        "10595": 193,
        "10596": 103,
        "10597": 19,
        "10598": 231,
        "10599": 215,
        "10600": 14,
        "10601": 128,
        "10602": 100,
        "10603": 151,
        "10604": 10,
        "10605": 201,
        "10606": 113,
        "10607": 35,
        "10608": 76,
        "10609": 73,
        "10610": 187,
        "10611": 139,
        "10612": 46,
        "10613": 33,
        "10614": 1,
        "10615": 77,
        "10616": 56,
        "10617": 72,
        "10618": 139,
        "10619": 125,
        "10620": 224,
        "10621": 58,
        "10622": 98,
        "10623": 152,
        "10624": 93,
        "10625": 82,
        "10626": 226,
        "10627": 64,
        "10628": 132,
        "10629": 224,
        "10630": 163,
        "10631": 141,
        "10632": 223,
        "10633": 213,
        "10634": 173,
        "10635": 131,
        "10636": 10,
        "10637": 241,
        "10638": 143,
        "10639": 210,
        "10640": 212,
        "10641": 229,
        "10642": 140,
        "10643": 181,
        "10644": 213,
        "10645": 125,
        "10646": 19,
        "10647": 225,
        "10648": 177,
        "10649": 101,
        "10650": 167,
        "10651": 126,
        "10652": 159,
        "10653": 37,
        "10654": 140,
        "10655": 152,
        "10656": 176,
        "10657": 163,
        "10658": 224,
        "10659": 6,
        "10660": 9,
        "10661": 27,
        "10662": 125,
        "10663": 32,
        "10664": 155,
        "10665": 145,
        "10666": 26,
        "10667": 95,
        "10668": 166,
        "10669": 58,
        "10670": 137,
        "10671": 11,
        "10672": 181,
        "10673": 118,
        "10674": 27,
        "10675": 139,
        "10676": 16,
        "10677": 9,
        "10678": 169,
        "10679": 29,
        "10680": 133,
        "10681": 136,
        "10682": 106,
        "10683": 52,
        "10684": 208,
        "10685": 148,
        "10686": 12,
        "10687": 81,
        "10688": 188,
        "10689": 198,
        "10690": 72,
        "10691": 238,
        "10692": 194,
        "10693": 139,
        "10694": 235,
        "10695": 2,
        "10696": 66,
        "10697": 10,
        "10698": 21,
        "10699": 170,
        "10700": 37,
        "10701": 208,
        "10702": 89,
        "10703": 250,
        "10704": 10,
        "10705": 197,
        "10706": 166,
        "10707": 199,
        "10708": 219,
        "10709": 114,
        "10710": 63,
        "10711": 116,
        "10712": 166,
        "10713": 249,
        "10714": 21,
        "10715": 25,
        "10716": 231,
        "10717": 107,
        "10718": 230,
        "10719": 89,
        "10720": 83,
        "10721": 132,
        "10722": 91,
        "10723": 114,
        "10724": 191,
        "10725": 57,
        "10726": 145,
        "10727": 36,
        "10728": 69,
        "10729": 129,
        "10730": 232,
        "10731": 86,
        "10732": 249,
        "10733": 144,
        "10734": 142,
        "10735": 91,
        "10736": 156,
        "10737": 55,
        "10738": 201,
        "10739": 22,
        "10740": 135,
        "10741": 163,
        "10742": 250,
        "10743": 165,
        "10744": 21,
        "10745": 126,
        "10746": 242,
        "10747": 32,
        "10748": 17,
        "10749": 54,
        "10750": 55,
        "10751": 42,
        "10752": 62,
        "10753": 55,
        "10754": 99,
        "10755": 171,
        "10756": 65,
        "10757": 36,
        "10758": 110,
        "10759": 223,
        "10760": 211,
        "10761": 57,
        "10762": 152,
        "10763": 70,
        "10764": 100,
        "10765": 18,
        "10766": 11,
        "10767": 235,
        "10768": 229,
        "10769": 164,
        "10770": 116,
        "10771": 5,
        "10772": 222,
        "10773": 159,
        "10774": 8,
        "10775": 195,
        "10776": 85,
        "10777": 135,
        "10778": 83,
        "10779": 172,
        "10780": 117,
        "10781": 219,
        "10782": 92,
        "10783": 85,
        "10784": 124,
        "10785": 72,
        "10786": 104,
        "10787": 115,
        "10788": 72,
        "10789": 29,
        "10790": 98,
        "10791": 98,
        "10792": 70,
        "10793": 151,
        "10794": 214,
        "10795": 42,
        "10796": 33,
        "10797": 129,
        "10798": 34,
        "10799": 133,
        "10800": 209,
        "10801": 204,
        "10802": 161,
        "10803": 229,
        "10804": 183,
        "10805": 127,
        "10806": 97,
        "10807": 94,
        "10808": 247,
        "10809": 240,
        "10810": 87,
        "10811": 127,
        "10812": 209,
        "10813": 252,
        "10814": 211,
        "10815": 109,
        "10816": 106,
        "10817": 124,
        "10818": 241,
        "10819": 110,
        "10820": 203,
        "10821": 92,
        "10822": 42,
        "10823": 186,
        "10824": 153,
        "10825": 245,
        "10826": 44,
        "10827": 249,
        "10828": 234,
        "10829": 145,
        "10830": 37,
        "10831": 219,
        "10832": 63,
        "10833": 145,
        "10834": 75,
        "10835": 65,
        "10836": 232,
        "10837": 185,
        "10838": 84,
        "10839": 210,
        "10840": 18,
        "10841": 112,
        "10842": 179,
        "10843": 82,
        "10844": 60,
        "10845": 184,
        "10846": 136,
        "10847": 220,
        "10848": 72,
        "10849": 215,
        "10850": 1,
        "10851": 161,
        "10852": 90,
        "10853": 87,
        "10854": 208,
        "10855": 141,
        "10856": 160,
        "10857": 242,
        "10858": 22,
        "10859": 228,
        "10860": 25,
        "10861": 1,
        "10862": 48,
        "10863": 223,
        "10864": 226,
        "10865": 132,
        "10866": 63,
        "10867": 69,
        "10868": 182,
        "10869": 175,
        "10870": 168,
        "10871": 174,
        "10872": 95,
        "10873": 205,
        "10874": 89,
        "10875": 71,
        "10876": 190,
        "10877": 171,
        "10878": 242,
        "10879": 74,
        "10880": 169,
        "10881": 76,
        "10882": 197,
        "10883": 172,
        "10884": 6,
        "10885": 44,
        "10886": 106,
        "10887": 125,
        "10888": 111,
        "10889": 29,
        "10890": 244,
        "10891": 32,
        "10892": 245,
        "10893": 113,
        "10894": 112,
        "10895": 177,
        "10896": 255,
        "10897": 99,
        "10898": 220,
        "10899": 28,
        "10900": 243,
        "10901": 120,
        "10902": 15,
        "10903": 65,
        "10904": 47,
        "10905": 149,
        "10906": 81,
        "10907": 51,
        "10908": 45,
        "10909": 246,
        "10910": 184,
        "10911": 157,
        "10912": 254,
        "10913": 227,
        "10914": 93,
        "10915": 141,
        "10916": 63,
        "10917": 234,
        "10918": 75,
        "10919": 81,
        "10920": 138,
        "10921": 172,
        "10922": 197,
        "10923": 88,
        "10924": 132,
        "10925": 100,
        "10926": 86,
        "10927": 220,
        "10928": 61,
        "10929": 43,
        "10930": 154,
        "10931": 60,
        "10932": 167,
        "10933": 64,
        "10934": 38,
        "10935": 185,
        "10936": 44,
        "10937": 34,
        "10938": 251,
        "10939": 56,
        "10940": 19,
        "10941": 211,
        "10942": 85,
        "10943": 103,
        "10944": 82,
        "10945": 134,
        "10946": 60,
        "10947": 151,
        "10948": 26,
        "10949": 62,
        "10950": 217,
        "10951": 210,
        "10952": 200,
        "10953": 10,
        "10954": 136,
        "10955": 108,
        "10956": 16,
        "10957": 178,
        "10958": 4,
        "10959": 164,
        "10960": 196,
        "10961": 48,
        "10962": 119,
        "10963": 235,
        "10964": 253,
        "10965": 122,
        "10966": 99,
        "10967": 36,
        "10968": 214,
        "10969": 21,
        "10970": 230,
        "10971": 163,
        "10972": 179,
        "10973": 157,
        "10974": 229,
        "10975": 225,
        "10976": 166,
        "10977": 226,
        "10978": 64,
        "10979": 157,
        "10980": 150,
        "10981": 190,
        "10982": 38,
        "10983": 49,
        "10984": 195,
        "10985": 76,
        "10986": 212,
        "10987": 110,
        "10988": 218,
        "10989": 212,
        "10990": 32,
        "10991": 110,
        "10992": 37,
        "10993": 36,
        "10994": 15,
        "10995": 45,
        "10996": 213,
        "10997": 227,
        "10998": 68,
        "10999": 215,
        "11000": 105,
        "11001": 169,
        "11002": 202,
        "11003": 229,
        "11004": 87,
        "11005": 181,
        "11006": 172,
        "11007": 5,
        "11008": 153,
        "11009": 77,
        "11010": 112,
        "11011": 240,
        "11012": 103,
        "11013": 227,
        "11014": 168,
        "11015": 13,
        "11016": 12,
        "11017": 75,
        "11018": 128,
        "11019": 251,
        "11020": 30,
        "11021": 79,
        "11022": 113,
        "11023": 239,
        "11024": 38,
        "11025": 43,
        "11026": 187,
        "11027": 242,
        "11028": 94,
        "11029": 215,
        "11030": 176,
        "11031": 111,
        "11032": 56,
        "11033": 152,
        "11034": 110,
        "11035": 84,
        "11036": 89,
        "11037": 5,
        "11038": 60,
        "11039": 42,
        "11040": 147,
        "11041": 58,
        "11042": 213,
        "11043": 59,
        "11044": 47,
        "11045": 105,
        "11046": 196,
        "11047": 252,
        "11048": 135,
        "11049": 6,
        "11050": 169,
        "11051": 69,
        "11052": 46,
        "11053": 58,
        "11054": 0,
        "11055": 89,
        "11056": 206,
        "11057": 229,
        "11058": 134,
        "11059": 37,
        "11060": 59,
        "11061": 247,
        "11062": 35,
        "11063": 178,
        "11064": 214,
        "11065": 9,
        "11066": 179,
        "11067": 117,
        "11068": 179,
        "11069": 138,
        "11070": 216,
        "11071": 191,
        "11072": 15,
        "11073": 203,
        "11074": 2,
        "11075": 195,
        "11076": 144,
        "11077": 146,
        "11078": 23,
        "11079": 151,
        "11080": 163,
        "11081": 70,
        "11082": 148,
        "11083": 88,
        "11084": 19,
        "11085": 31,
        "11086": 128,
        "11087": 14,
        "11088": 63,
        "11089": 75,
        "11090": 5,
        "11091": 173,
        "11092": 29,
        "11093": 77,
        "11094": 222,
        "11095": 113,
        "11096": 39,
        "11097": 239,
        "11098": 130,
        "11099": 136,
        "11100": 197,
        "11101": 231,
        "11102": 110,
        "11103": 73,
        "11104": 121,
        "11105": 8,
        "11106": 197,
        "11107": 105,
        "11108": 91,
        "11109": 238,
        "11110": 72,
        "11111": 185,
        "11112": 104,
        "11113": 92,
        "11114": 167,
        "11115": 235,
        "11116": 179,
        "11117": 51,
        "11118": 32,
        "11119": 212,
        "11120": 210,
        "11121": 9,
        "11122": 118,
        "11123": 98,
        "11124": 171,
        "11125": 90,
        "11126": 237,
        "11127": 0,
        "11128": 212,
        "11129": 173,
        "11130": 202,
        "11131": 103,
        "11132": 20,
        "11133": 241,
        "11134": 105,
        "11135": 79,
        "11136": 215,
        "11137": 215,
        "11138": 2,
        "11139": 78,
        "11140": 51,
        "11141": 137,
        "11142": 238,
        "11143": 113,
        "11144": 35,
        "11145": 194,
        "11146": 44,
        "11147": 18,
        "11148": 112,
        "11149": 188,
        "11150": 38,
        "11151": 144,
        "11152": 36,
        "11153": 72,
        "11154": 103,
        "11155": 7,
        "11156": 74,
        "11157": 62,
        "11158": 78,
        "11159": 93,
        "11160": 57,
        "11161": 208,
        "11162": 160,
        "11163": 255,
        "11164": 100,
        "11165": 119,
        "11166": 98,
        "11167": 45,
        "11168": 117,
        "11169": 253,
        "11170": 194,
        "11171": 95,
        "11172": 247,
        "11173": 74,
        "11174": 206,
        "11175": 200,
        "11176": 125,
        "11177": 57,
        "11178": 152,
        "11179": 3,
        "11180": 156,
        "11181": 248,
        "11182": 61,
        "11183": 86,
        "11184": 49,
        "11185": 181,
        "11186": 3,
        "11187": 75,
        "11188": 156,
        "11189": 35,
        "11190": 9,
        "11191": 52,
        "11192": 105,
        "11193": 26,
        "11194": 16,
        "11195": 85,
        "11196": 175,
        "11197": 206,
        "11198": 145,
        "11199": 1,
        "11200": 195,
        "11201": 143,
        "11202": 49,
        "11203": 121,
        "11204": 228,
        "11205": 81,
        "11206": 241,
        "11207": 161,
        "11208": 245,
        "11209": 228,
        "11210": 238,
        "11211": 153,
        "11212": 167,
        "11213": 194,
        "11214": 184,
        "11215": 194,
        "11216": 181,
        "11217": 49,
        "11218": 72,
        "11219": 105,
        "11220": 44,
        "11221": 109,
        "11222": 87,
        "11223": 163,
        "11224": 156,
        "11225": 149,
        "11226": 163,
        "11227": 250,
        "11228": 106,
        "11229": 8,
        "11230": 0,
        "11231": 138,
        "11232": 69,
        "11233": 238,
        "11234": 246,
        "11235": 200,
        "11236": 201,
        "11237": 50,
        "11238": 114,
        "11239": 227,
        "11240": 31,
        "11241": 214,
        "11242": 142,
        "11243": 151,
        "11244": 131,
        "11245": 2,
        "11246": 157,
        "11247": 152,
        "11248": 125,
        "11249": 255,
        "11250": 5,
        "11251": 227,
        "11252": 68,
        "11253": 9,
        "11254": 233,
        "11255": 145,
        "11256": 112,
        "11257": 133,
        "11258": 31,
        "11259": 74,
        "11260": 239,
        "11261": 152,
        "11262": 237,
        "11263": 114,
        "11264": 120,
        "11265": 154,
        "11266": 199,
        "11267": 104,
        "11268": 91,
        "11269": 92,
        "11270": 123,
        "11271": 4,
        "11272": 193,
        "11273": 37,
        "11274": 54,
        "11275": 232,
        "11276": 150,
        "11277": 179,
        "11278": 153,
        "11279": 171,
        "11280": 29,
        "11281": 227,
        "11282": 254,
        "11283": 16,
        "11284": 203,
        "11285": 124,
        "11286": 236,
        "11287": 67,
        "11288": 86,
        "11289": 196,
        "11290": 78,
        "11291": 93,
        "11292": 160,
        "11293": 81,
        "11294": 95,
        "11295": 238,
        "11296": 237,
        "11297": 192,
        "11298": 56,
        "11299": 133,
        "11300": 109,
        "11301": 88,
        "11302": 69,
        "11303": 88,
        "11304": 64,
        "11305": 121,
        "11306": 140,
        "11307": 76,
        "11308": 48,
        "11309": 182,
        "11310": 55,
        "11311": 7,
        "11312": 112,
        "11313": 221,
        "11314": 216,
        "11315": 136,
        "11316": 237,
        "11317": 22,
        "11318": 76,
        "11319": 99,
        "11320": 131,
        "11321": 71,
        "11322": 164,
        "11323": 150,
        "11324": 38,
        "11325": 188,
        "11326": 151,
        "11327": 251,
        "11328": 149,
        "11329": 207,
        "11330": 109,
        "11331": 146,
        "11332": 121,
        "11333": 88,
        "11334": 78,
        "11335": 206,
        "11336": 68,
        "11337": 96,
        "11338": 194,
        "11339": 208,
        "11340": 173,
        "11341": 100,
        "11342": 203,
        "11343": 216,
        "11344": 104,
        "11345": 44,
        "11346": 175,
        "11347": 46,
        "11348": 221,
        "11349": 116,
        "11350": 255,
        "11351": 189,
        "11352": 26,
        "11353": 17,
        "11354": 207,
        "11355": 202,
        "11356": 129,
        "11357": 11,
        "11358": 94,
        "11359": 137,
        "11360": 148,
        "11361": 53,
        "11362": 141,
        "11363": 223,
        "11364": 106,
        "11365": 140,
        "11366": 23,
        "11367": 50,
        "11368": 59,
        "11369": 177,
        "11370": 144,
        "11371": 253,
        "11372": 158,
        "11373": 58,
        "11374": 250,
        "11375": 142,
        "11376": 72,
        "11377": 168,
        "11378": 210,
        "11379": 200,
        "11380": 25,
        "11381": 94,
        "11382": 190,
        "11383": 253,
        "11384": 102,
        "11385": 7,
        "11386": 56,
        "11387": 97,
        "11388": 207,
        "11389": 45,
        "11390": 107,
        "11391": 114,
        "11392": 186,
        "11393": 250,
        "11394": 40,
        "11395": 229,
        "11396": 214,
        "11397": 18,
        "11398": 123,
        "11399": 72,
        "11400": 245,
        "11401": 46,
        "11402": 59,
        "11403": 60,
        "11404": 155,
        "11405": 247,
        "11406": 148,
        "11407": 17,
        "11408": 29,
        "11409": 17,
        "11410": 65,
        "11411": 235,
        "11412": 184,
        "11413": 181,
        "11414": 176,
        "11415": 9,
        "11416": 158,
        "11417": 179,
        "11418": 205,
        "11419": 103,
        "11420": 89,
        "11421": 133,
        "11422": 22,
        "11423": 135,
        "11424": 250,
        "11425": 101,
        "11426": 105,
        "11427": 218,
        "11428": 158,
        "11429": 24,
        "11430": 36,
        "11431": 104,
        "11432": 88,
        "11433": 164,
        "11434": 28,
        "11435": 152,
        "11436": 139,
        "11437": 15,
        "11438": 26,
        "11439": 251,
        "11440": 6,
        "11441": 232,
        "11442": 164,
        "11443": 126,
        "11444": 157,
        "11445": 31,
        "11446": 90,
        "11447": 140,
        "11448": 205,
        "11449": 128,
        "11450": 221,
        "11451": 49,
        "11452": 98,
        "11453": 100,
        "11454": 134,
        "11455": 97,
        "11456": 17,
        "11457": 97,
        "11458": 124,
        "11459": 181,
        "11460": 70,
        "11461": 124,
        "11462": 153,
        "11463": 46,
        "11464": 21,
        "11465": 164,
        "11466": 212,
        "11467": 110,
        "11468": 36,
        "11469": 102,
        "11470": 150,
        "11471": 182,
        "11472": 104,
        "11473": 187,
        "11474": 39,
        "11475": 16,
        "11476": 197,
        "11477": 61,
        "11478": 129,
        "11479": 144,
        "11480": 121,
        "11481": 134,
        "11482": 222,
        "11483": 178,
        "11484": 105,
        "11485": 202,
        "11486": 81,
        "11487": 214,
        "11488": 33,
        "11489": 83,
        "11490": 142,
        "11491": 186,
        "11492": 53,
        "11493": 71,
        "11494": 173,
        "11495": 66,
        "11496": 200,
        "11497": 251,
        "11498": 110,
        "11499": 43,
        "11500": 150,
        "11501": 26,
        "11502": 158,
        "11503": 87,
        "11504": 79,
        "11505": 171,
        "11506": 111,
        "11507": 6,
        "11508": 255,
        "11509": 202,
        "11510": 161,
        "11511": 84,
        "11512": 154,
        "11513": 195,
        "11514": 62,
        "11515": 169,
        "11516": 222,
        "11517": 173,
        "11518": 47,
        "11519": 189,
        "11520": 67,
        "11521": 163,
        "11522": 167,
        "11523": 160,
        "11524": 154,
        "11525": 239,
        "11526": 6,
        "11527": 134,
        "11528": 217,
        "11529": 242,
        "11530": 227,
        "11531": 252,
        "11532": 58,
        "11533": 218,
        "11534": 188,
        "11535": 70,
        "11536": 25,
        "11537": 211,
        "11538": 10,
        "11539": 190,
        "11540": 170,
        "11541": 193,
        "11542": 53,
        "11543": 137,
        "11544": 159,
        "11545": 226,
        "11546": 10,
        "11547": 53,
        "11548": 3,
        "11549": 111,
        "11550": 181,
        "11551": 171,
        "11552": 193,
        "11553": 72,
        "11554": 98,
        "11555": 74,
        "11556": 230,
        "11557": 16,
        "11558": 139,
        "11559": 65,
        "11560": 213,
        "11561": 190,
        "11562": 22,
        "11563": 246,
        "11564": 91,
        "11565": 78,
        "11566": 40,
        "11567": 137,
        "11568": 154,
        "11569": 176,
        "11570": 199,
        "11571": 47,
        "11572": 182,
        "11573": 78,
        "11574": 32,
        "11575": 103,
        "11576": 188,
        "11577": 140,
        "11578": 66,
        "11579": 66,
        "11580": 150,
        "11581": 176,
        "11582": 122,
        "11583": 215,
        "11584": 36,
        "11585": 42,
        "11586": 150,
        "11587": 145,
        "11588": 247,
        "11589": 216,
        "11590": 193,
        "11591": 39,
        "11592": 24,
        "11593": 202,
        "11594": 153,
        "11595": 41,
        "11596": 152,
        "11597": 34,
        "11598": 14,
        "11599": 94,
        "11600": 29,
        "11601": 170,
        "11602": 74,
        "11603": 75,
        "11604": 238,
        "11605": 201,
        "11606": 31,
        "11607": 213,
        "11608": 248,
        "11609": 9,
        "11610": 151,
        "11611": 29,
        "11612": 24,
        "11613": 244,
        "11614": 250,
        "11615": 172,
        "11616": 69,
        "11617": 37,
        "11618": 26,
        "11619": 17,
        "11620": 243,
        "11621": 91,
        "11622": 20,
        "11623": 94,
        "11624": 85,
        "11625": 52,
        "11626": 119,
        "11627": 156,
        "11628": 173,
        "11629": 127,
        "11630": 232,
        "11631": 248,
        "11632": 85,
        "11633": 102,
        "11634": 16,
        "11635": 160,
        "11636": 11,
        "11637": 128,
        "11638": 60,
        "11639": 70,
        "11640": 118,
        "11641": 160,
        "11642": 40,
        "11643": 202,
        "11644": 206,
        "11645": 128,
        "11646": 33,
        "11647": 25,
        "11648": 176,
        "11649": 45,
        "11650": 43,
        "11651": 174,
        "11652": 208,
        "11653": 174,
        "11654": 112,
        "11655": 143,
        "11656": 125,
        "11657": 131,
        "11658": 63,
        "11659": 87,
        "11660": 33,
        "11661": 220,
        "11662": 166,
        "11663": 239,
        "11664": 203,
        "11665": 186,
        "11666": 228,
        "11667": 31,
        "11668": 123,
        "11669": 40,
        "11670": 129,
        "11671": 207,
        "11672": 221,
        "11673": 153,
        "11674": 74,
        "11675": 210,
        "11676": 48,
        "11677": 176,
        "11678": 217,
        "11679": 127,
        "11680": 134,
        "11681": 99,
        "11682": 120,
        "11683": 255,
        "11684": 191,
        "11685": 28,
        "11686": 209,
        "11687": 90,
        "11688": 203,
        "11689": 65,
        "11690": 212,
        "11691": 8,
        "11692": 217,
        "11693": 200,
        "11694": 207,
        "11695": 205,
        "11696": 126,
        "11697": 30,
        "11698": 76,
        "11699": 36,
        "11700": 152,
        "11701": 48,
        "11702": 106,
        "11703": 13,
        "11704": 33,
        "11705": 185,
        "11706": 49,
        "11707": 159,
        "11708": 147,
        "11709": 87,
        "11710": 196,
        "11711": 177,
        "11712": 92,
        "11713": 198,
        "11714": 9,
        "11715": 186,
        "11716": 129,
        "11717": 226,
        "11718": 156,
        "11719": 18,
        "11720": 188,
        "11721": 250,
        "11722": 176,
        "11723": 201,
        "11724": 56,
        "11725": 16,
        "11726": 34,
        "11727": 85,
        "11728": 210,
        "11729": 122,
        "11730": 125,
        "11731": 137,
        "11732": 131,
        "11733": 58,
        "11734": 219,
        "11735": 138,
        "11736": 112,
        "11737": 106,
        "11738": 252,
        "11739": 30,
        "11740": 191,
        "11741": 107,
        "11742": 212,
        "11743": 61,
        "11744": 154,
        "11745": 240,
        "11746": 251,
        "11747": 115,
        "11748": 58,
        "11749": 52,
        "11750": 29,
        "11751": 43,
        "11752": 1,
        "11753": 119,
        "11754": 213,
        "11755": 112,
        "11756": 98,
        "11757": 202,
        "11758": 206,
        "11759": 76,
        "11760": 130,
        "11761": 199,
        "11762": 216,
        "11763": 71,
        "11764": 6,
        "11765": 60,
        "11766": 51,
        "11767": 145,
        "11768": 38,
        "11769": 175,
        "11770": 76,
        "11771": 234,
        "11772": 112,
        "11773": 170,
        "11774": 163,
        "11775": 135,
        "11776": 5,
        "11777": 74,
        "11778": 171,
        "11779": 169,
        "11780": 72,
        "11781": 235,
        "11782": 7,
        "11783": 62,
        "11784": 41,
        "11785": 67,
        "11786": 158,
        "11787": 6,
        "11788": 239,
        "11789": 44,
        "11790": 176,
        "11791": 94,
        "11792": 238,
        "11793": 128,
        "11794": 160,
        "11795": 85,
        "11796": 16,
        "11797": 221,
        "11798": 109,
        "11799": 236,
        "11800": 171,
        "11801": 14,
        "11802": 202,
        "11803": 91,
        "11804": 87,
        "11805": 68,
        "11806": 138,
        "11807": 205,
        "11808": 87,
        "11809": 31,
        "11810": 242,
        "11811": 132,
        "11812": 22,
        "11813": 114,
        "11814": 117,
        "11815": 87,
        "11816": 132,
        "11817": 150,
        "11818": 9,
        "11819": 218,
        "11820": 24,
        "11821": 201,
        "11822": 212,
        "11823": 96,
        "11824": 74,
        "11825": 45,
        "11826": 205,
        "11827": 72,
        "11828": 0,
        "11829": 110,
        "11830": 187,
        "11831": 89,
        "11832": 121,
        "11833": 161,
        "11834": 161,
        "11835": 177,
        "11836": 50,
        "11837": 219,
        "11838": 103,
        "11839": 51,
        "11840": 47,
        "11841": 152,
        "11842": 123,
        "11843": 34,
        "11844": 170,
        "11845": 197,
        "11846": 60,
        "11847": 60,
        "11848": 174,
        "11849": 182,
        "11850": 251,
        "11851": 223,
        "11852": 27,
        "11853": 188,
        "11854": 240,
        "11855": 189,
        "11856": 114,
        "11857": 27,
        "11858": 115,
        "11859": 92,
        "11860": 81,
        "11861": 26,
        "11862": 240,
        "11863": 174,
        "11864": 225,
        "11865": 122,
        "11866": 228,
        "11867": 189,
        "11868": 78,
        "11869": 79,
        "11870": 243,
        "11871": 8,
        "11872": 206,
        "11873": 143,
        "11874": 63,
        "11875": 248,
        "11876": 90,
        "11877": 103,
        "11878": 244,
        "11879": 199,
        "11880": 77,
        "11881": 39,
        "11882": 14,
        "11883": 24,
        "11884": 170,
        "11885": 18,
        "11886": 64,
        "11887": 169,
        "11888": 6,
        "11889": 122,
        "11890": 15,
        "11891": 117,
        "11892": 85,
        "11893": 159,
        "11894": 205,
        "11895": 98,
        "11896": 70,
        "11897": 236,
        "11898": 46,
        "11899": 162,
        "11900": 65,
        "11901": 161,
        "11902": 210,
        "11903": 162,
        "11904": 10,
        "11905": 36,
        "11906": 26,
        "11907": 48,
        "11908": 7,
        "11909": 36,
        "11910": 210,
        "11911": 6,
        "11912": 197,
        "11913": 203,
        "11914": 245,
        "11915": 15,
        "11916": 32,
        "11917": 114,
        "11918": 68,
        "11919": 191,
        "11920": 38,
        "11921": 241,
        "11922": 142,
        "11923": 181,
        "11924": 249,
        "11925": 28,
        "11926": 101,
        "11927": 224,
        "11928": 190,
        "11929": 59,
        "11930": 152,
        "11931": 27,
        "11932": 82,
        "11933": 255,
        "11934": 20,
        "11935": 161,
        "11936": 224,
        "11937": 102,
        "11938": 137,
        "11939": 63,
        "11940": 17,
        "11941": 178,
        "11942": 249,
        "11943": 252,
        "11944": 15,
        "11945": 73,
        "11946": 211,
        "11947": 54,
        "11948": 90,
        "11949": 5,
        "11950": 164,
        "11951": 125,
        "11952": 161,
        "11953": 6,
        "11954": 240,
        "11955": 120,
        "11956": 127,
        "11957": 178,
        "11958": 240,
        "11959": 206,
        "11960": 234,
        "11961": 132,
        "11962": 6,
        "11963": 0,
        "11964": 144,
        "11965": 46,
        "11966": 138,
        "11967": 188,
        "11968": 125,
        "11969": 82,
        "11970": 41,
        "11971": 65,
        "11972": 55,
        "11973": 243,
        "11974": 20,
        "11975": 39,
        "11976": 164,
        "11977": 186,
        "11978": 132,
        "11979": 195,
        "11980": 163,
        "11981": 202,
        "11982": 147,
        "11983": 122,
        "11984": 51,
        "11985": 255,
        "11986": 47,
        "11987": 173,
        "11988": 150,
        "11989": 195,
        "11990": 144,
        "11991": 140,
        "11992": 253,
        "11993": 182,
        "11994": 78,
        "11995": 94,
        "11996": 139,
        "11997": 121,
        "11998": 126,
        "11999": 213,
        "12000": 91,
        "12001": 17,
        "12002": 79,
        "12003": 161,
        "12004": 122,
        "12005": 230,
        "12006": 203,
        "12007": 224,
        "12008": 187,
        "12009": 84,
        "12010": 9,
        "12011": 213,
        "12012": 12,
        "12013": 202,
        "12014": 134,
        "12015": 183,
        "12016": 58,
        "12017": 52,
        "12018": 140,
        "12019": 248,
        "12020": 27,
        "12021": 241,
        "12022": 143,
        "12023": 241,
        "12024": 56,
        "12025": 52,
        "12026": 207,
        "12027": 111,
        "12028": 236,
        "12029": 97,
        "12030": 148,
        "12031": 115,
        "12032": 182,
        "12033": 174,
        "12034": 184,
        "12035": 25,
        "12036": 135,
        "12037": 223,
        "12038": 100,
        "12039": 235,
        "12040": 40,
        "12041": 166,
        "12042": 231,
        "12043": 10,
        "12044": 234,
        "12045": 56,
        "12046": 0,
        "12047": 247,
        "12048": 199,
        "12049": 90,
        "12050": 251,
        "12051": 81,
        "12052": 65,
        "12053": 214,
        "12054": 6,
        "12055": 236,
        "12056": 209,
        "12057": 52,
        "12058": 71,
        "12059": 249,
        "12060": 159,
        "12061": 73,
        "12062": 152,
        "12063": 131,
        "12064": 23,
        "12065": 167,
        "12066": 52,
        "12067": 48,
        "12068": 156,
        "12069": 107,
        "12070": 107,
        "12071": 211,
        "12072": 197,
        "12073": 36,
        "12074": 246,
        "12075": 59,
        "12076": 222,
        "12077": 199,
        "12078": 57,
        "12079": 137,
        "12080": 142,
        "12081": 35,
        "12082": 7,
        "12083": 75,
        "12084": 196,
        "12085": 92,
        "12086": 100,
        "12087": 177,
        "12088": 137,
        "12089": 46,
        "12090": 132,
        "12091": 35,
        "12092": 222,
        "12093": 207,
        "12094": 49,
        "12095": 114,
        "12096": 134,
        "12097": 10,
        "12098": 190,
        "12099": 235,
        "12100": 69,
        "12101": 180,
        "12102": 244,
        "12103": 126,
        "12104": 20,
        "12105": 89,
        "12106": 29,
        "12107": 233,
        "12108": 130,
        "12109": 60,
        "12110": 235,
        "12111": 175,
        "12112": 1,
        "12113": 123,
        "12114": 151,
        "12115": 248,
        "12116": 179,
        "12117": 7,
        "12118": 19,
        "12119": 105,
        "12120": 78,
        "12121": 63,
        "12122": 220,
        "12123": 44,
        "12124": 130,
        "12125": 154,
        "12126": 121,
        "12127": 62,
        "12128": 103,
        "12129": 105,
        "12130": 143,
        "12131": 211,
        "12132": 33,
        "12133": 114,
        "12134": 75,
        "12135": 88,
        "12136": 254,
        "12137": 60,
        "12138": 105,
        "12139": 191,
        "12140": 174,
        "12141": 164,
        "12142": 150,
        "12143": 120,
        "12144": 232,
        "12145": 97,
        "12146": 73,
        "12147": 147,
        "12148": 85,
        "12149": 27,
        "12150": 145,
        "12151": 96,
        "12152": 208,
        "12153": 171,
        "12154": 77,
        "12155": 244,
        "12156": 233,
        "12157": 247,
        "12158": 55,
        "12159": 202,
        "12160": 184,
        "12161": 217,
        "12162": 14,
        "12163": 93,
        "12164": 243,
        "12165": 33,
        "12166": 201,
        "12167": 231,
        "12168": 225,
        "12169": 101,
        "12170": 140,
        "12171": 42,
        "12172": 148,
        "12173": 126,
        "12174": 150,
        "12175": 196,
        "12176": 50,
        "12177": 236,
        "12178": 33,
        "12179": 24,
        "12180": 147,
        "12181": 64,
        "12182": 138,
        "12183": 197,
        "12184": 248,
        "12185": 121,
        "12186": 88,
        "12187": 19,
        "12188": 159,
        "12189": 194,
        "12190": 18,
        "12191": 180,
        "12192": 18,
        "12193": 227,
        "12194": 216,
        "12195": 238,
        "12196": 76,
        "12197": 162,
        "12198": 74,
        "12199": 47,
        "12200": 165,
        "12201": 105,
        "12202": 17,
        "12203": 183,
        "12204": 218,
        "12205": 20,
        "12206": 123,
        "12207": 123,
        "12208": 124,
        "12209": 179,
        "12210": 191,
        "12211": 195,
        "12212": 107,
        "12213": 211,
        "12214": 16,
        "12215": 56,
        "12216": 114,
        "12217": 70,
        "12218": 184,
        "12219": 18,
        "12220": 182,
        "12221": 48,
        "12222": 174,
        "12223": 21,
        "12224": 216,
        "12225": 151,
        "12226": 122,
        "12227": 98,
        "12228": 29,
        "12229": 191,
        "12230": 16,
        "12231": 189,
        "12232": 185,
        "12233": 11,
        "12234": 7,
        "12235": 78,
        "12236": 246,
        "12237": 7,
        "12238": 27,
        "12239": 150,
        "12240": 183,
        "12241": 246,
        "12242": 138,
        "12243": 231,
        "12244": 36,
        "12245": 231,
        "12246": 12,
        "12247": 141,
        "12248": 70,
        "12249": 169,
        "12250": 16,
        "12251": 239,
        "12252": 131,
        "12253": 137,
        "12254": 92,
        "12255": 57,
        "12256": 132,
        "12257": 79,
        "12258": 149,
        "12259": 234,
        "12260": 97,
        "12261": 104,
        "12262": 244,
        "12263": 249,
        "12264": 109,
        "12265": 2,
        "12266": 115,
        "12267": 21,
        "12268": 169,
        "12269": 157,
        "12270": 75,
        "12271": 157,
        "12272": 159,
        "12273": 146,
        "12274": 196,
        "12275": 84,
        "12276": 183,
        "12277": 207,
        "12278": 29,
        "12279": 113,
        "12280": 33,
        "12281": 89,
        "12282": 116,
        "12283": 235,
        "12284": 253,
        "12285": 6,
        "12286": 114,
        "12287": 87,
        "12288": 132,
        "12289": 3,
        "12290": 12,
        "12291": 127,
        "12292": 223,
        "12293": 165,
        "12294": 199,
        "12295": 227,
        "12296": 70,
        "12297": 24,
        "12298": 191,
        "12299": 169,
        "12300": 236,
        "12301": 139,
        "12302": 150,
        "12303": 61,
        "12304": 27,
        "12305": 216,
        "12306": 195,
        "12307": 56,
        "12308": 32,
        "12309": 76,
        "12310": 210,
        "12311": 58,
        "12312": 221,
        "12313": 230,
        "12314": 117,
        "12315": 185,
        "12316": 245,
        "12317": 45,
        "12318": 111,
        "12319": 175,
        "12320": 110,
        "12321": 170,
        "12322": 111,
        "12323": 249,
        "12324": 205,
        "12325": 168,
        "12326": 36,
        "12327": 57,
        "12328": 103,
        "12329": 57,
        "12330": 58,
        "12331": 246,
        "12332": 194,
        "12333": 243,
        "12334": 12,
        "12335": 158,
        "12336": 255,
        "12337": 140,
        "12338": 66,
        "12339": 103,
        "12340": 17,
        "12341": 218,
        "12342": 45,
        "12343": 236,
        "12344": 137,
        "12345": 197,
        "12346": 195,
        "12347": 174,
        "12348": 207,
        "12349": 66,
        "12350": 0,
        "12351": 196,
        "12352": 127,
        "12353": 63,
        "12354": 42,
        "12355": 25,
        "12356": 0,
        "12357": 119,
        "12358": 35,
        "12359": 2,
        "12360": 74,
        "12361": 246,
        "12362": 255,
        "12363": 205,
        "12364": 76,
        "12365": 239,
        "12366": 150,
        "12367": 71,
        "12368": 36,
        "12369": 27,
        "12370": 136,
        "12371": 226,
        "12372": 190,
        "12373": 78,
        "12374": 52,
        "12375": 165,
        "12376": 109,
        "12377": 45,
        "12378": 75,
        "12379": 160,
        "12380": 80,
        "12381": 244,
        "12382": 140,
        "12383": 118,
        "12384": 206,
        "12385": 15,
        "12386": 222,
        "12387": 253,
        "12388": 44,
        "12389": 204,
        "12390": 146,
        "12391": 145,
        "12392": 16,
        "12393": 223,
        "12394": 170,
        "12395": 65,
        "12396": 2,
        "12397": 194,
        "12398": 139,
        "12399": 211,
        "12400": 170,
        "12401": 237,
        "12402": 86,
        "12403": 135,
        "12404": 75,
        "12405": 248,
        "12406": 113,
        "12407": 127,
        "12408": 214,
        "12409": 77,
        "12410": 10,
        "12411": 198,
        "12412": 203,
        "12413": 102,
        "12414": 62,
        "12415": 50,
        "12416": 10,
        "12417": 176,
        "12418": 88,
        "12419": 182,
        "12420": 0,
        "12421": 212,
        "12422": 61,
        "12423": 155,
        "12424": 69,
        "12425": 225,
        "12426": 176,
        "12427": 149,
        "12428": 209,
        "12429": 177,
        "12430": 191,
        "12431": 35,
        "12432": 35,
        "12433": 26,
        "12434": 180,
        "12435": 62,
        "12436": 190,
        "12437": 190,
        "12438": 31,
        "12439": 255,
        "12440": 136,
        "12441": 58,
        "12442": 119,
        "12443": 217,
        "12444": 210,
        "12445": 54,
        "12446": 141,
        "12447": 29,
        "12448": 254,
        "12449": 133,
        "12450": 240,
        "12451": 169,
        "12452": 238,
        "12453": 211,
        "12454": 244,
        "12455": 60,
        "12456": 112,
        "12457": 105,
        "12458": 91,
        "12459": 233,
        "12460": 118,
        "12461": 2,
        "12462": 129,
        "12463": 70,
        "12464": 105,
        "12465": 17,
        "12466": 93,
        "12467": 244,
        "12468": 159,
        "12469": 52,
        "12470": 218,
        "12471": 216,
        "12472": 18,
        "12473": 199,
        "12474": 58,
        "12475": 237,
        "12476": 151,
        "12477": 1,
        "12478": 78,
        "12479": 216,
        "12480": 97,
        "12481": 34,
        "12482": 163,
        "12483": 35,
        "12484": 222,
        "12485": 91,
        "12486": 5,
        "12487": 167,
        "12488": 145,
        "12489": 217,
        "12490": 25,
        "12491": 98,
        "12492": 177,
        "12493": 126,
        "12494": 168,
        "12495": 147,
        "12496": 184,
        "12497": 112,
        "12498": 108,
        "12499": 42,
        "12500": 24,
        "12501": 117,
        "12502": 239,
        "12503": 243,
        "12504": 215,
        "12505": 119,
        "12506": 230,
        "12507": 145,
        "12508": 89,
        "12509": 178,
        "12510": 78,
        "12511": 16,
        "12512": 104,
        "12513": 154,
        "12514": 213,
        "12515": 253,
        "12516": 130,
        "12517": 100,
        "12518": 126,
        "12519": 175,
        "12520": 65,
        "12521": 169,
        "12522": 222,
        "12523": 154,
        "12524": 114,
        "12525": 199,
        "12526": 51,
        "12527": 83,
        "12528": 104,
        "12529": 137,
        "12530": 228,
        "12531": 175,
        "12532": 96,
        "12533": 160,
        "12534": 204,
        "12535": 235,
        "12536": 216,
        "12537": 201,
        "12538": 17,
        "12539": 39,
        "12540": 124,
        "12541": 127,
        "12542": 141,
        "12543": 18,
        "12544": 225,
        "12545": 232,
        "12546": 82,
        "12547": 154,
        "12548": 129,
        "12549": 51,
        "12550": 240,
        "12551": 158,
        "12552": 76,
        "12553": 147,
        "12554": 114,
        "12555": 170,
        "12556": 243,
        "12557": 212,
        "12558": 144,
        "12559": 208,
        "12560": 142,
        "12561": 131,
        "12562": 155,
        "12563": 129,
        "12564": 250,
        "12565": 13,
        "12566": 210,
        "12567": 41,
        "12568": 101,
        "12569": 249,
        "12570": 251,
        "12571": 83,
        "12572": 48,
        "12573": 207,
        "12574": 234,
        "12575": 2,
        "12576": 71,
        "12577": 35,
        "12578": 58,
        "12579": 97,
        "12580": 179,
        "12581": 4,
        "12582": 128,
        "12583": 45,
        "12584": 151,
        "12585": 253,
        "12586": 167,
        "12587": 210,
        "12588": 138,
        "12589": 192,
        "12590": 47,
        "12591": 14,
        "12592": 191,
        "12593": 22,
        "12594": 105,
        "12595": 96,
        "12596": 107,
        "12597": 64,
        "12598": 24,
        "12599": 223,
        "12600": 11,
        "12601": 148,
        "12602": 30,
        "12603": 59,
        "12604": 120,
        "12605": 222,
        "12606": 73,
        "12607": 67,
        "12608": 113,
        "12609": 1,
        "12610": 114,
        "12611": 45,
        "12612": 76,
        "12613": 13,
        "12614": 63,
        "12615": 182,
        "12616": 245,
        "12617": 245,
        "12618": 200,
        "12619": 232,
        "12620": 225,
        "12621": 222,
        "12622": 155,
        "12623": 114,
        "12624": 175,
        "12625": 17,
        "12626": 49,
        "12627": 203,
        "12628": 41,
        "12629": 157,
        "12630": 128,
        "12631": 84,
        "12632": 233,
        "12633": 54,
        "12634": 0,
        "12635": 108,
        "12636": 106,
        "12637": 219,
        "12638": 237,
        "12639": 94,
        "12640": 77,
        "12641": 218,
        "12642": 22,
        "12643": 253,
        "12644": 138,
        "12645": 95,
        "12646": 163,
        "12647": 185,
        "12648": 203,
        "12649": 94,
        "12650": 38,
        "12651": 242,
        "12652": 221,
        "12653": 237,
        "12654": 97,
        "12655": 163,
        "12656": 220,
        "12657": 206,
        "12658": 192,
        "12659": 211,
        "12660": 237,
        "12661": 105,
        "12662": 77,
        "12663": 120,
        "12664": 24,
        "12665": 166,
        "12666": 135,
        "12667": 77,
        "12668": 151,
        "12669": 224,
        "12670": 248,
        "12671": 149,
        "12672": 188,
        "12673": 214,
        "12674": 181,
        "12675": 255,
        "12676": 155,
        "12677": 118,
        "12678": 152,
        "12679": 222,
        "12680": 215,
        "12681": 234,
        "12682": 140,
        "12683": 248,
        "12684": 106,
        "12685": 192,
        "12686": 207,
        "12687": 194,
        "12688": 235,
        "12689": 81,
        "12690": 211,
        "12691": 31,
        "12692": 130,
        "12693": 87,
        "12694": 100,
        "12695": 27,
        "12696": 128,
        "12697": 51,
        "12698": 224,
        "12699": 200,
        "12700": 138,
        "12701": 173,
        "12702": 217,
        "12703": 31,
        "12704": 186,
        "12705": 160,
        "12706": 55,
        "12707": 166,
        "12708": 45,
        "12709": 72,
        "12710": 75,
        "12711": 41,
        "12712": 155,
        "12713": 204,
        "12714": 105,
        "12715": 77,
        "12716": 213,
        "12717": 30,
        "12718": 19,
        "12719": 102,
        "12720": 134,
        "12721": 98,
        "12722": 168,
        "12723": 94,
        "12724": 196,
        "12725": 46,
        "12726": 233,
        "12727": 67,
        "12728": 95,
        "12729": 111,
        "12730": 152,
        "12731": 151,
        "12732": 242,
        "12733": 247,
        "12734": 147,
        "12735": 36,
        "12736": 65,
        "12737": 4,
        "12738": 150,
        "12739": 98,
        "12740": 178,
        "12741": 183,
        "12742": 142,
        "12743": 210,
        "12744": 99,
        "12745": 147,
        "12746": 70,
        "12747": 171,
        "12748": 47,
        "12749": 171,
        "12750": 239,
        "12751": 79,
        "12752": 209,
        "12753": 241,
        "12754": 242,
        "12755": 100,
        "12756": 93,
        "12757": 174,
        "12758": 151,
        "12759": 74,
        "12760": 127,
        "12761": 53,
        "12762": 19,
        "12763": 57,
        "12764": 115,
        "12765": 242,
        "12766": 225,
        "12767": 208,
        "12768": 119,
        "12769": 200,
        "12770": 247,
        "12771": 11,
        "12772": 98,
        "12773": 149,
        "12774": 252,
        "12775": 155,
        "12776": 93,
        "12777": 209,
        "12778": 120,
        "12779": 207,
        "12780": 227,
        "12781": 146,
        "12782": 45,
        "12783": 18,
        "12784": 58,
        "12785": 169,
        "12786": 162,
        "12787": 116,
        "12788": 74,
        "12789": 218,
        "12790": 207,
        "12791": 253,
        "12792": 232,
        "12793": 30,
        "12794": 203,
        "12795": 239,
        "12796": 22,
        "12797": 249,
        "12798": 200,
        "12799": 52,
        "12800": 165,
        "12801": 29,
        "12802": 49,
        "12803": 177,
        "12804": 22,
        "12805": 5,
        "12806": 99,
        "12807": 252,
        "12808": 212,
        "12809": 125,
        "12810": 55,
        "12811": 186,
        "12812": 93,
        "12813": 83,
        "12814": 162,
        "12815": 166,
        "12816": 217,
        "12817": 246,
        "12818": 59,
        "12819": 248,
        "12820": 190,
        "12821": 195,
        "12822": 210,
        "12823": 29,
        "12824": 60,
        "12825": 34,
        "12826": 234,
        "12827": 6,
        "12828": 248,
        "12829": 19,
        "12830": 24,
        "12831": 55,
        "12832": 247,
        "12833": 65,
        "12834": 41,
        "12835": 245,
        "12836": 162,
        "12837": 206,
        "12838": 222,
        "12839": 159,
        "12840": 197,
        "12841": 47,
        "12842": 19,
        "12843": 107,
        "12844": 97,
        "12845": 133,
        "12846": 80,
        "12847": 59,
        "12848": 134,
        "12849": 151,
        "12850": 43,
        "12851": 49,
        "12852": 204,
        "12853": 187,
        "12854": 207,
        "12855": 96,
        "12856": 111,
        "12857": 108,
        "12858": 131,
        "12859": 233,
        "12860": 54,
        "12861": 195,
        "12862": 136,
        "12863": 172,
        "12864": 172,
        "12865": 145,
        "12866": 206,
        "12867": 196,
        "12868": 196,
        "12869": 77,
        "12870": 156,
        "12871": 144,
        "12872": 13,
        "12873": 234,
        "12874": 182,
        "12875": 20,
        "12876": 51,
        "12877": 202,
        "12878": 73,
        "12879": 171,
        "12880": 114,
        "12881": 139,
        "12882": 236,
        "12883": 92,
        "12884": 139,
        "12885": 112,
        "12886": 78,
        "12887": 5,
        "12888": 70,
        "12889": 91,
        "12890": 164,
        "12891": 51,
        "12892": 19,
        "12893": 234,
        "12894": 187,
        "12895": 132,
        "12896": 113,
        "12897": 187,
        "12898": 218,
        "12899": 156,
        "12900": 212,
        "12901": 210,
        "12902": 157,
        "12903": 3,
        "12904": 15,
        "12905": 220,
        "12906": 187,
        "12907": 179,
        "12908": 105,
        "12909": 75,
        "12910": 85,
        "12911": 1,
        "12912": 94,
        "12913": 85,
        "12914": 57,
        "12915": 243,
        "12916": 94,
        "12917": 194,
        "12918": 194,
        "12919": 11,
        "12920": 21,
        "12921": 243,
        "12922": 9,
        "12923": 40,
        "12924": 208,
        "12925": 45,
        "12926": 109,
        "12927": 251,
        "12928": 59,
        "12929": 78,
        "12930": 44,
        "12931": 24,
        "12932": 48,
        "12933": 89,
        "12934": 132,
        "12935": 114,
        "12936": 153,
        "12937": 154,
        "12938": 5,
        "12939": 106,
        "12940": 82,
        "12941": 13,
        "12942": 73,
        "12943": 48,
        "12944": 36,
        "12945": 60,
        "12946": 77,
        "12947": 207,
        "12948": 106,
        "12949": 130,
        "12950": 220,
        "12951": 188,
        "12952": 77,
        "12953": 69,
        "12954": 98,
        "12955": 99,
        "12956": 223,
        "12957": 116,
        "12958": 246,
        "12959": 171,
        "12960": 227,
        "12961": 220,
        "12962": 125,
        "12963": 20,
        "12964": 83,
        "12965": 198,
        "12966": 164,
        "12967": 47,
        "12968": 42,
        "12969": 94,
        "12970": 91,
        "12971": 171,
        "12972": 189,
        "12973": 86,
        "12974": 246,
        "12975": 168,
        "12976": 152,
        "12977": 156,
        "12978": 8,
        "12979": 216,
        "12980": 211,
        "12981": 132,
        "12982": 179,
        "12983": 149,
        "12984": 138,
        "12985": 105,
        "12986": 22,
        "12987": 188,
        "12988": 104,
        "12989": 12,
        "12990": 217,
        "12991": 193,
        "12992": 211,
        "12993": 125,
        "12994": 7,
        "12995": 165,
        "12996": 0,
        "12997": 71,
        "12998": 252,
        "12999": 230,
        "13000": 165,
        "13001": 11,
        "13002": 95,
        "13003": 38,
        "13004": 249,
        "13005": 18,
        "13006": 155,
        "13007": 75,
        "13008": 115,
        "13009": 229,
        "13010": 220,
        "13011": 142,
        "13012": 13,
        "13013": 211,
        "13014": 192,
        "13015": 193,
        "13016": 197,
        "13017": 215,
        "13018": 20,
        "13019": 222,
        "13020": 193,
        "13021": 7,
        "13022": 167,
        "13023": 17,
        "13024": 115,
        "13025": 127,
        "13026": 144,
        "13027": 26,
        "13028": 114,
        "13029": 153,
        "13030": 8,
        "13031": 143,
        "13032": 176,
        "13033": 250,
        "13034": 10,
        "13035": 169,
        "13036": 21,
        "13037": 82,
        "13038": 49,
        "13039": 70,
        "13040": 135,
        "13041": 24,
        "13042": 130,
        "13043": 110,
        "13044": 2,
        "13045": 67,
        "13046": 112,
        "13047": 111,
        "13048": 96,
        "13049": 226,
        "13050": 161,
        "13051": 252,
        "13052": 140,
        "13053": 229,
        "13054": 203,
        "13055": 33,
        "13056": 41,
        "13057": 249,
        "13058": 131,
        "13059": 186,
        "13060": 223,
        "13061": 153,
        "13062": 139,
        "13063": 217,
        "13064": 197,
        "13065": 80,
        "13066": 68,
        "13067": 147,
        "13068": 127,
        "13069": 120,
        "13070": 88,
        "13071": 6,
        "13072": 137,
        "13073": 160,
        "13074": 129,
        "13075": 45,
        "13076": 226,
        "13077": 26,
        "13078": 6,
        "13079": 209,
        "13080": 69,
        "13081": 82,
        "13082": 54,
        "13083": 92,
        "13084": 99,
        "13085": 247,
        "13086": 24,
        "13087": 229,
        "13088": 94,
        "13089": 41,
        "13090": 138,
        "13091": 217,
        "13092": 90,
        "13093": 156,
        "13094": 93,
        "13095": 145,
        "13096": 188,
        "13097": 31,
        "13098": 21,
        "13099": 139,
        "13100": 48,
        "13101": 169,
        "13102": 167,
        "13103": 204,
        "13104": 63,
        "13105": 173,
        "13106": 52,
        "13107": 177,
        "13108": 33,
        "13109": 112,
        "13110": 41,
        "13111": 60,
        "13112": 251,
        "13113": 82,
        "13114": 103,
        "13115": 42,
        "13116": 78,
        "13117": 223,
        "13118": 181,
        "13119": 139,
        "13120": 164,
        "13121": 14,
        "13122": 237,
        "13123": 23,
        "13124": 137,
        "13125": 43,
        "13126": 142,
        "13127": 250,
        "13128": 133,
        "13129": 26,
        "13130": 182,
        "13131": 115,
        "13132": 171,
        "13133": 20,
        "13134": 82,
        "13135": 20,
        "13136": 84,
        "13137": 103,
        "13138": 98,
        "13139": 90,
        "13140": 182,
        "13141": 100,
        "13142": 112,
        "13143": 83,
        "13144": 121,
        "13145": 185,
        "13146": 27,
        "13147": 198,
        "13148": 49,
        "13149": 227,
        "13150": 138,
        "13151": 204,
        "13152": 153,
        "13153": 133,
        "13154": 194,
        "13155": 188,
        "13156": 30,
        "13157": 47,
        "13158": 45,
        "13159": 79,
        "13160": 96,
        "13161": 11,
        "13162": 246,
        "13163": 61,
        "13164": 236,
        "13165": 142,
        "13166": 126,
        "13167": 175,
        "13168": 204,
        "13169": 160,
        "13170": 163,
        "13171": 114,
        "13172": 17,
        "13173": 225,
        "13174": 211,
        "13175": 13,
        "13176": 200,
        "13177": 91,
        "13178": 48,
        "13179": 225,
        "13180": 43,
        "13181": 41,
        "13182": 227,
        "13183": 210,
        "13184": 249,
        "13185": 180,
        "13186": 103,
        "13187": 87,
        "13188": 37,
        "13189": 19,
        "13190": 196,
        "13191": 69,
        "13192": 227,
        "13193": 156,
        "13194": 153,
        "13195": 160,
        "13196": 12,
        "13197": 177,
        "13198": 66,
        "13199": 243,
        "13200": 221,
        "13201": 182,
        "13202": 202,
        "13203": 64,
        "13204": 59,
        "13205": 178,
        "13206": 22,
        "13207": 203,
        "13208": 3,
        "13209": 65,
        "13210": 197,
        "13211": 53,
        "13212": 36,
        "13213": 248,
        "13214": 104,
        "13215": 212,
        "13216": 204,
        "13217": 111,
        "13218": 22,
        "13219": 116,
        "13220": 122,
        "13221": 118,
        "13222": 68,
        "13223": 115,
        "13224": 231,
        "13225": 163,
        "13226": 185,
        "13227": 135,
        "13228": 115,
        "13229": 185,
        "13230": 69,
        "13231": 241,
        "13232": 5,
        "13233": 83,
        "13234": 70,
        "13235": 17,
        "13236": 139,
        "13237": 41,
        "13238": 167,
        "13239": 198,
        "13240": 138,
        "13241": 171,
        "13242": 197,
        "13243": 210,
        "13244": 224,
        "13245": 87,
        "13246": 54,
        "13247": 27,
        "13248": 196,
        "13249": 58,
        "13250": 77,
        "13251": 190,
        "13252": 206,
        "13253": 237,
        "13254": 62,
        "13255": 139,
        "13256": 49,
        "13257": 209,
        "13258": 200,
        "13259": 250,
        "13260": 136,
        "13261": 200,
        "13262": 12,
        "13263": 236,
        "13264": 107,
        "13265": 129,
        "13266": 33,
        "13267": 201,
        "13268": 26,
        "13269": 244,
        "13270": 22,
        "13271": 217,
        "13272": 114,
        "13273": 162,
        "13274": 245,
        "13275": 68,
        "13276": 155,
        "13277": 93,
        "13278": 54,
        "13279": 140,
        "13280": 239,
        "13281": 196,
        "13282": 234,
        "13283": 250,
        "13284": 31,
        "13285": 199,
        "13286": 97,
        "13287": 127,
        "13288": 149,
        "13289": 19,
        "13290": 222,
        "13291": 18,
        "13292": 46,
        "13293": 44,
        "13294": 208,
        "13295": 33,
        "13296": 48,
        "13297": 121,
        "13298": 150,
        "13299": 169,
        "13300": 127,
        "13301": 255,
        "13302": 166,
        "13303": 64,
        "13304": 108,
        "13305": 231,
        "13306": 3,
        "13307": 49,
        "13308": 77,
        "13309": 221,
        "13310": 239,
        "13311": 224,
        "13312": 95,
        "13313": 176,
        "13314": 121,
        "13315": 62,
        "13316": 129,
        "13317": 38,
        "13318": 141,
        "13319": 99,
        "13320": 209,
        "13321": 11,
        "13322": 37,
        "13323": 30,
        "13324": 122,
        "13325": 109,
        "13326": 94,
        "13327": 3,
        "13328": 87,
        "13329": 176,
        "13330": 54,
        "13331": 210,
        "13332": 177,
        "13333": 226,
        "13334": 65,
        "13335": 247,
        "13336": 196,
        "13337": 175,
        "13338": 163,
        "13339": 195,
        "13340": 115,
        "13341": 101,
        "13342": 241,
        "13343": 2,
        "13344": 94,
        "13345": 8,
        "13346": 190,
        "13347": 113,
        "13348": 89,
        "13349": 204,
        "13350": 197,
        "13351": 107,
        "13352": 173,
        "13353": 39,
        "13354": 157,
        "13355": 56,
        "13356": 1,
        "13357": 46,
        "13358": 178,
        "13359": 131,
        "13360": 246,
        "13361": 187,
        "13362": 53,
        "13363": 34,
        "13364": 226,
        "13365": 51,
        "13366": 40,
        "13367": 144,
        "13368": 206,
        "13369": 91,
        "13370": 201,
        "13371": 94,
        "13372": 109,
        "13373": 58,
        "13374": 120,
        "13375": 31,
        "13376": 47,
        "13377": 199,
        "13378": 100,
        "13379": 146,
        "13380": 221,
        "13381": 196,
        "13382": 94,
        "13383": 7,
        "13384": 38,
        "13385": 94,
        "13386": 59,
        "13387": 41,
        "13388": 213,
        "13389": 235,
        "13390": 32,
        "13391": 142,
        "13392": 236,
        "13393": 190,
        "13394": 141,
        "13395": 67,
        "13396": 123,
        "13397": 11,
        "13398": 247,
        "13399": 76,
        "13400": 236,
        "13401": 180,
        "13402": 191,
        "13403": 194,
        "13404": 160,
        "13405": 101,
        "13406": 232,
        "13407": 229,
        "13408": 15,
        "13409": 193,
        "13410": 161,
        "13411": 47,
        "13412": 153,
        "13413": 206,
        "13414": 63,
        "13415": 131,
        "13416": 35,
        "13417": 209,
        "13418": 244,
        "13419": 184,
        "13420": 164,
        "13421": 165,
        "13422": 219,
        "13423": 221,
        "13424": 29,
        "13425": 175,
        "13426": 113,
        "13427": 102,
        "13428": 15,
        "13429": 152,
        "13430": 47,
        "13431": 156,
        "13432": 20,
        "13433": 81,
        "13434": 161,
        "13435": 66,
        "13436": 13,
        "13437": 5,
        "13438": 32,
        "13439": 163,
        "13440": 80,
        "13441": 202,
        "13442": 216,
        "13443": 98,
        "13444": 212,
        "13445": 207,
        "13446": 101,
        "13447": 22,
        "13448": 210,
        "13449": 239,
        "13450": 36,
        "13451": 180,
        "13452": 101,
        "13453": 221,
        "13454": 22,
        "13455": 241,
        "13456": 234,
        "13457": 148,
        "13458": 79,
        "13459": 103,
        "13460": 62,
        "13461": 187,
        "13462": 128,
        "13463": 85,
        "13464": 140,
        "13465": 49,
        "13466": 215,
        "13467": 185,
        "13468": 214,
        "13469": 172,
        "13470": 183,
        "13471": 158,
        "13472": 33,
        "13473": 125,
        "13474": 240,
        "13475": 35,
        "13476": 215,
        "13477": 234,
        "13478": 114,
        "13479": 237,
        "13480": 89,
        "13481": 49,
        "13482": 253,
        "13483": 123,
        "13484": 94,
        "13485": 241,
        "13486": 136,
        "13487": 39,
        "13488": 221,
        "13489": 240,
        "13490": 136,
        "13491": 107,
        "13492": 29,
        "13493": 174,
        "13494": 116,
        "13495": 196,
        "13496": 91,
        "13497": 7,
        "13498": 170,
        "13499": 170,
        "13500": 56,
        "13501": 86,
        "13502": 172,
        "13503": 187,
        "13504": 184,
        "13505": 234,
        "13506": 235,
        "13507": 213,
        "13508": 233,
        "13509": 75,
        "13510": 181,
        "13511": 72,
        "13512": 47,
        "13513": 242,
        "13514": 241,
        "13515": 138,
        "13516": 169,
        "13517": 148,
        "13518": 15,
        "13519": 183,
        "13520": 126,
        "13521": 206,
        "13522": 70,
        "13523": 33,
        "13524": 251,
        "13525": 144,
        "13526": 119,
        "13527": 125,
        "13528": 196,
        "13529": 245,
        "13530": 89,
        "13531": 250,
        "13532": 74,
        "13533": 104,
        "13534": 161,
        "13535": 148,
        "13536": 106,
        "13537": 29,
        "13538": 246,
        "13539": 71,
        "13540": 238,
        "13541": 81,
        "13542": 212,
        "13543": 44,
        "13544": 167,
        "13545": 117,
        "13546": 143,
        "13547": 216,
        "13548": 120,
        "13549": 78,
        "13550": 186,
        "13551": 12,
        "13552": 81,
        "13553": 240,
        "13554": 118,
        "13555": 46,
        "13556": 89,
        "13557": 72,
        "13558": 237,
        "13559": 189,
        "13560": 244,
        "13561": 233,
        "13562": 91,
        "13563": 130,
        "13564": 44,
        "13565": 50,
        "13566": 163,
        "13567": 152,
        "13568": 73,
        "13569": 244,
        "13570": 247,
        "13571": 57,
        "13572": 231,
        "13573": 150,
        "13574": 220,
        "13575": 191,
        "13576": 62,
        "13577": 159,
        "13578": 134,
        "13579": 209,
        "13580": 33,
        "13581": 16,
        "13582": 19,
        "13583": 221,
        "13584": 30,
        "13585": 41,
        "13586": 253,
        "13587": 88,
        "13588": 111,
        "13589": 180,
        "13590": 184,
        "13591": 178,
        "13592": 15,
        "13593": 44,
        "13594": 247,
        "13595": 26,
        "13596": 231,
        "13597": 60,
        "13598": 31,
        "13599": 137,
        "13600": 79,
        "13601": 232,
        "13602": 190,
        "13603": 35,
        "13604": 150,
        "13605": 135,
        "13606": 118,
        "13607": 13,
        "13608": 156,
        "13609": 190,
        "13610": 134,
        "13611": 104,
        "13612": 145,
        "13613": 20,
        "13614": 138,
        "13615": 89,
        "13616": 112,
        "13617": 255,
        "13618": 126,
        "13619": 146,
        "13620": 46,
        "13621": 147,
        "13622": 243,
        "13623": 251,
        "13624": 36,
        "13625": 21,
        "13626": 241,
        "13627": 86,
        "13628": 175,
        "13629": 50,
        "13630": 146,
        "13631": 199,
        "13632": 244,
        "13633": 57,
        "13634": 193,
        "13635": 94,
        "13636": 189,
        "13637": 66,
        "13638": 230,
        "13639": 225,
        "13640": 10,
        "13641": 3,
        "13642": 190,
        "13643": 33,
        "13644": 192,
        "13645": 67,
        "13646": 235,
        "13647": 227,
        "13648": 197,
        "13649": 97,
        "13650": 171,
        "13651": 60,
        "13652": 53,
        "13653": 231,
        "13654": 178,
        "13655": 237,
        "13656": 30,
        "13657": 47,
        "13658": 148,
        "13659": 176,
        "13660": 229,
        "13661": 253,
        "13662": 150,
        "13663": 54,
        "13664": 14,
        "13665": 36,
        "13666": 28,
        "13667": 52,
        "13668": 2,
        "13669": 196,
        "13670": 35,
        "13671": 201,
        "13672": 118,
        "13673": 237,
        "13674": 241,
        "13675": 91,
        "13676": 99,
        "13677": 242,
        "13678": 65,
        "13679": 24,
        "13680": 16,
        "13681": 177,
        "13682": 71,
        "13683": 3,
        "13684": 51,
        "13685": 93,
        "13686": 212,
        "13687": 171,
        "13688": 239,
        "13689": 25,
        "13690": 189,
        "13691": 160,
        "13692": 70,
        "13693": 35,
        "13694": 47,
        "13695": 129,
        "13696": 195,
        "13697": 169,
        "13698": 110,
        "13699": 169,
        "13700": 158,
        "13701": 51,
        "13702": 217,
        "13703": 37,
        "13704": 46,
        "13705": 149,
        "13706": 9,
        "13707": 170,
        "13708": 219,
        "13709": 199,
        "13710": 226,
        "13711": 71,
        "13712": 205,
        "13713": 214,
        "13714": 59,
        "13715": 16,
        "13716": 21,
        "13717": 67,
        "13718": 86,
        "13719": 236,
        "13720": 135,
        "13721": 57,
        "13722": 4,
        "13723": 236,
        "13724": 17,
        "13725": 69,
        "13726": 203,
        "13727": 238,
        "13728": 82,
        "13729": 225,
        "13730": 13,
        "13731": 189,
        "13732": 177,
        "13733": 235,
        "13734": 93,
        "13735": 157,
        "13736": 163,
        "13737": 253,
        "13738": 122,
        "13739": 130,
        "13740": 69,
        "13741": 115,
        "13742": 62,
        "13743": 178,
        "13744": 239,
        "13745": 157,
        "13746": 54,
        "13747": 149,
        "13748": 10,
        "13749": 196,
        "13750": 110,
        "13751": 176,
        "13752": 116,
        "13753": 77,
        "13754": 23,
        "13755": 161,
        "13756": 0,
        "13757": 173,
        "13758": 238,
        "13759": 38,
        "13760": 109,
        "13761": 109,
        "13762": 197,
        "13763": 152,
        "13764": 239,
        "13765": 221,
        "13766": 6,
        "13767": 110,
        "13768": 174,
        "13769": 71,
        "13770": 154,
        "13771": 232,
        "13772": 201,
        "13773": 56,
        "13774": 214,
        "13775": 96,
        "13776": 143,
        "13777": 17,
        "13778": 101,
        "13779": 46,
        "13780": 69,
        "13781": 68,
        "13782": 214,
        "13783": 219,
        "13784": 133,
        "13785": 56,
        "13786": 174,
        "13787": 195,
        "13788": 206,
        "13789": 167,
        "13790": 21,
        "13791": 114,
        "13792": 55,
        "13793": 188,
        "13794": 237,
        "13795": 54,
        "13796": 153,
        "13797": 199,
        "13798": 76,
        "13799": 46,
        "13800": 97,
        "13801": 112,
        "13802": 11,
        "13803": 147,
        "13804": 81,
        "13805": 76,
        "13806": 136,
        "13807": 130,
        "13808": 144,
        "13809": 14,
        "13810": 29,
        "13811": 54,
        "13812": 185,
        "13813": 105,
        "13814": 157,
        "13815": 176,
        "13816": 182,
        "13817": 22,
        "13818": 63,
        "13819": 113,
        "13820": 71,
        "13821": 232,
        "13822": 192,
        "13823": 122,
        "13824": 180,
        "13825": 83,
        "13826": 101,
        "13827": 97,
        "13828": 215,
        "13829": 98,
        "13830": 147,
        "13831": 127,
        "13832": 149,
        "13833": 100,
        "13834": 217,
        "13835": 98,
        "13836": 210,
        "13837": 142,
        "13838": 218,
        "13839": 137,
        "13840": 171,
        "13841": 130,
        "13842": 216,
        "13843": 114,
        "13844": 138,
        "13845": 230,
        "13846": 108,
        "13847": 248,
        "13848": 202,
        "13849": 94,
        "13850": 66,
        "13851": 114,
        "13852": 222,
        "13853": 86,
        "13854": 117,
        "13855": 76,
        "13856": 24,
        "13857": 209,
        "13858": 112,
        "13859": 233,
        "13860": 22,
        "13861": 7,
        "13862": 207,
        "13863": 9,
        "13864": 182,
        "13865": 53,
        "13866": 246,
        "13867": 106,
        "13868": 144,
        "13869": 185,
        "13870": 89,
        "13871": 215,
        "13872": 158,
        "13873": 233,
        "13874": 245,
        "13875": 76,
        "13876": 164,
        "13877": 93,
        "13878": 71,
        "13879": 83,
        "13880": 72,
        "13881": 134,
        "13882": 192,
        "13883": 198,
        "13884": 211,
        "13885": 24,
        "13886": 0,
        "13887": 67,
        "13888": 68,
        "13889": 102,
        "13890": 124,
        "13891": 37,
        "13892": 131,
        "13893": 76,
        "13894": 123,
        "13895": 200,
        "13896": 158,
        "13897": 222,
        "13898": 245,
        "13899": 182,
        "13900": 135,
        "13901": 109,
        "13902": 166,
        "13903": 60,
        "13904": 36,
        "13905": 193,
        "13906": 158,
        "13907": 157,
        "13908": 232,
        "13909": 163,
        "13910": 94,
        "13911": 235,
        "13912": 93,
        "13913": 1,
        "13914": 97,
        "13915": 181,
        "13916": 100,
        "13917": 99,
        "13918": 244,
        "13919": 136,
        "13920": 158,
        "13921": 153,
        "13922": 206,
        "13923": 116,
        "13924": 86,
        "13925": 247,
        "13926": 180,
        "13927": 114,
        "13928": 48,
        "13929": 5,
        "13930": 172,
        "13931": 137,
        "13932": 187,
        "13933": 29,
        "13934": 250,
        "13935": 249,
        "13936": 34,
        "13937": 27,
        "13938": 255,
        "13939": 43,
        "13940": 98,
        "13941": 154,
        "13942": 55,
        "13943": 184,
        "13944": 248,
        "13945": 45,
        "13946": 41,
        "13947": 184,
        "13948": 242,
        "13949": 122,
        "13950": 26,
        "13951": 255,
        "13952": 3,
        "13953": 191,
        "13954": 195,
        "13955": 149,
        "13956": 26,
        "13957": 87,
        "13958": 223,
        "13959": 212,
        "13960": 142,
        "13961": 23,
        "13962": 152,
        "13963": 209,
        "13964": 157,
        "13965": 204,
        "13966": 112,
        "13967": 252,
        "13968": 103,
        "13969": 192,
        "13970": 102,
        "13971": 90,
        "13972": 133,
        "13973": 121,
        "13974": 192,
        "13975": 133,
        "13976": 220,
        "13977": 229,
        "13978": 8,
        "13979": 220,
        "13980": 55,
        "13981": 114,
        "13982": 185,
        "13983": 196,
        "13984": 89,
        "13985": 192,
        "13986": 174,
        "13987": 247,
        "13988": 21,
        "13989": 13,
        "13990": 16,
        "13991": 118,
        "13992": 2,
        "13993": 164,
        "13994": 61,
        "13995": 199,
        "13996": 250,
        "13997": 118,
        "13998": 24,
        "13999": 66,
        "14000": 240,
        "14001": 81,
        "14002": 195,
        "14003": 185,
        "14004": 212,
        "14005": 163,
        "14006": 179,
        "14007": 170,
        "14008": 165,
        "14009": 224,
        "14010": 122,
        "14011": 139,
        "14012": 95,
        "14013": 83,
        "14014": 64,
        "14015": 183,
        "14016": 234,
        "14017": 44,
        "14018": 123,
        "14019": 192,
        "14020": 71,
        "14021": 187,
        "14022": 0,
        "14023": 78,
        "14024": 172,
        "14025": 56,
        "14026": 56,
        "14027": 166,
        "14028": 68,
        "14029": 4,
        "14030": 91,
        "14031": 197,
        "14032": 198,
        "14033": 8,
        "14034": 217,
        "14035": 135,
        "14036": 56,
        "14037": 142,
        "14038": 155,
        "14039": 9,
        "14040": 34,
        "14041": 13,
        "14042": 237,
        "14043": 123,
        "14044": 187,
        "14045": 86,
        "14046": 95,
        "14047": 175,
        "14048": 46,
        "14049": 66,
        "14050": 38,
        "14051": 92,
        "14052": 110,
        "14053": 169,
        "14054": 181,
        "14055": 233,
        "14056": 32,
        "14057": 111,
        "14058": 137,
        "14059": 27,
        "14060": 215,
        "14061": 215,
        "14062": 16,
        "14063": 181,
        "14064": 84,
        "14065": 166,
        "14066": 164,
        "14067": 119,
        "14068": 111,
        "14069": 37,
        "14070": 145,
        "14071": 97,
        "14072": 62,
        "14073": 61,
        "14074": 45,
        "14075": 92,
        "14076": 210,
        "14077": 12,
        "14078": 90,
        "14079": 60,
        "14080": 152,
        "14081": 73,
        "14082": 36,
        "14083": 215,
        "14084": 234,
        "14085": 119,
        "14086": 9,
        "14087": 61,
        "14088": 222,
        "14089": 176,
        "14090": 106,
        "14091": 32,
        "14092": 29,
        "14093": 249,
        "14094": 235,
        "14095": 70,
        "14096": 107,
        "14097": 139,
        "14098": 103,
        "14099": 20,
        "14100": 4,
        "14101": 166,
        "14102": 130,
        "14103": 95,
        "14104": 248,
        "14105": 146,
        "14106": 24,
        "14107": 189,
        "14108": 250,
        "14109": 142,
        "14110": 70,
        "14111": 93,
        "14112": 177,
        "14113": 92,
        "14114": 2,
        "14115": 190,
        "14116": 227,
        "14117": 71,
        "14118": 159,
        "14119": 16,
        "14120": 129,
        "14121": 171,
        "14122": 144,
        "14123": 106,
        "14124": 189,
        "14125": 229,
        "14126": 115,
        "14127": 9,
        "14128": 95,
        "14129": 97,
        "14130": 104,
        "14131": 59,
        "14132": 246,
        "14133": 158,
        "14134": 48,
        "14135": 210,
        "14136": 52,
        "14137": 75,
        "14138": 77,
        "14139": 106,
        "14140": 45,
        "14141": 108,
        "14142": 181,
        "14143": 110,
        "14144": 234,
        "14145": 100,
        "14146": 154,
        "14147": 0,
        "14148": 205,
        "14149": 168,
        "14150": 233,
        "14151": 57,
        "14152": 252,
        "14153": 91,
        "14154": 141,
        "14155": 255,
        "14156": 125,
        "14157": 102,
        "14158": 222,
        "14159": 109,
        "14160": 111,
        "14161": 16,
        "14162": 51,
        "14163": 170,
        "14164": 202,
        "14165": 118,
        "14166": 200,
        "14167": 103,
        "14168": 132,
        "14169": 198,
        "14170": 77,
        "14171": 136,
        "14172": 147,
        "14173": 68,
        "14174": 247,
        "14175": 224,
        "14176": 247,
        "14177": 125,
        "14178": 45,
        "14179": 95,
        "14180": 240,
        "14181": 62,
        "14182": 139,
        "14183": 190,
        "14184": 75,
        "14185": 39,
        "14186": 248,
        "14187": 216,
        "14188": 96,
        "14189": 217,
        "14190": 254,
        "14191": 57,
        "14192": 149,
        "14193": 199,
        "14194": 88,
        "14195": 74,
        "14196": 163,
        "14197": 5,
        "14198": 231,
        "14199": 32,
        "14200": 148,
        "14201": 6,
        "14202": 41,
        "14203": 132,
        "14204": 65,
        "14205": 86,
        "14206": 7,
        "14207": 90,
        "14208": 217,
        "14209": 155,
        "14210": 23,
        "14211": 30,
        "14212": 137,
        "14213": 143,
        "14214": 89,
        "14215": 180,
        "14216": 65,
        "14217": 21,
        "14218": 182,
        "14219": 146,
        "14220": 140,
        "14221": 133,
        "14222": 90,
        "14223": 109,
        "14224": 198,
        "14225": 251,
        "14226": 154,
        "14227": 87,
        "14228": 209,
        "14229": 190,
        "14230": 109,
        "14231": 211,
        "14232": 157,
        "14233": 80,
        "14234": 191,
        "14235": 177,
        "14236": 249,
        "14237": 213,
        "14238": 78,
        "14239": 223,
        "14240": 184,
        "14241": 194,
        "14242": 105,
        "14243": 219,
        "14244": 195,
        "14245": 196,
        "14246": 13,
        "14247": 74,
        "14248": 60,
        "14249": 199,
        "14250": 107,
        "14251": 242,
        "14252": 22,
        "14253": 43,
        "14254": 199,
        "14255": 47,
        "14256": 41,
        "14257": 167,
        "14258": 176,
        "14259": 25,
        "14260": 122,
        "14261": 133,
        "14262": 75,
        "14263": 153,
        "14264": 253,
        "14265": 28,
        "14266": 225,
        "14267": 166,
        "14268": 135,
        "14269": 180,
        "14270": 28,
        "14271": 246,
        "14272": 152,
        "14273": 194,
        "14274": 254,
        "14275": 214,
        "14276": 167,
        "14277": 65,
        "14278": 222,
        "14279": 205,
        "14280": 236,
        "14281": 244,
        "14282": 163,
        "14283": 238,
        "14284": 191,
        "14285": 121,
        "14286": 158,
        "14287": 216,
        "14288": 25,
        "14289": 217,
        "14290": 164,
        "14291": 152,
        "14292": 230,
        "14293": 86,
        "14294": 123,
        "14295": 234,
        "14296": 189,
        "14297": 14,
        "14298": 236,
        "14299": 75,
        "14300": 64,
        "14301": 0,
        "14302": 33,
        "14303": 10,
        "14304": 37,
        "14305": 181,
        "14306": 18,
        "14307": 125,
        "14308": 182,
        "14309": 170,
        "14310": 55,
        "14311": 61,
        "14312": 84,
        "14313": 35,
        "14314": 249,
        "14315": 154,
        "14316": 122,
        "14317": 233,
        "14318": 104,
        "14319": 204,
        "14320": 169,
        "14321": 136,
        "14322": 72,
        "14323": 175,
        "14324": 137,
        "14325": 37,
        "14326": 226,
        "14327": 253,
        "14328": 54,
        "14329": 28,
        "14330": 47,
        "14331": 149,
        "14332": 249,
        "14333": 42,
        "14334": 157,
        "14335": 198,
        "14336": 85,
        "14337": 38,
        "14338": 161,
        "14339": 134,
        "14340": 238,
        "14341": 0,
        "14342": 95,
        "14343": 5,
        "14344": 50,
        "14345": 126,
        "14346": 24,
        "14347": 176,
        "14348": 143,
        "14349": 21,
        "14350": 245,
        "14351": 190,
        "14352": 118,
        "14353": 227,
        "14354": 249,
        "14355": 100,
        "14356": 54,
        "14357": 60,
        "14358": 65,
        "14359": 5,
        "14360": 180,
        "14361": 107,
        "14362": 253,
        "14363": 131,
        "14364": 156,
        "14365": 128,
        "14366": 208,
        "14367": 201,
        "14368": 140,
        "14369": 137,
        "14370": 72,
        "14371": 29,
        "14372": 58,
        "14373": 230,
        "14374": 243,
        "14375": 50,
        "14376": 89,
        "14377": 143,
        "14378": 135,
        "14379": 249,
        "14380": 197,
        "14381": 228,
        "14382": 215,
        "14383": 113,
        "14384": 147,
        "14385": 106,
        "14386": 9,
        "14387": 232,
        "14388": 205,
        "14389": 120,
        "14390": 225,
        "14391": 5,
        "14392": 239,
        "14393": 227,
        "14394": 153,
        "14395": 53,
        "14396": 228,
        "14397": 151,
        "14398": 15,
        "14399": 96,
        "14400": 21,
        "14401": 187,
        "14402": 250,
        "14403": 88,
        "14404": 173,
        "14405": 52,
        "14406": 86,
        "14407": 48,
        "14408": 50,
        "14409": 150,
        "14410": 82,
        "14411": 149,
        "14412": 38,
        "14413": 30,
        "14414": 115,
        "14415": 193,
        "14416": 157,
        "14417": 204,
        "14418": 181,
        "14419": 199,
        "14420": 215,
        "14421": 114,
        "14422": 170,
        "14423": 232,
        "14424": 37,
        "14425": 248,
        "14426": 32,
        "14427": 255,
        "14428": 235,
        "14429": 83,
        "14430": 91,
        "14431": 119,
        "14432": 202,
        "14433": 186,
        "14434": 186,
        "14435": 116,
        "14436": 159,
        "14437": 197,
        "14438": 10,
        "14439": 153,
        "14440": 67,
        "14441": 19,
        "14442": 199,
        "14443": 104,
        "14444": 211,
        "14445": 98,
        "14446": 46,
        "14447": 110,
        "14448": 14,
        "14449": 84,
        "14450": 254,
        "14451": 111,
        "14452": 78,
        "14453": 249,
        "14454": 89,
        "14455": 78,
        "14456": 125,
        "14457": 139,
        "14458": 221,
        "14459": 20,
        "14460": 79,
        "14461": 114,
        "14462": 211,
        "14463": 158,
        "14464": 241,
        "14465": 226,
        "14466": 127,
        "14467": 203,
        "14468": 10,
        "14469": 88,
        "14470": 236,
        "14471": 49,
        "14472": 98,
        "14473": 183,
        "14474": 209,
        "14475": 103,
        "14476": 51,
        "14477": 12,
        "14478": 251,
        "14479": 192,
        "14480": 121,
        "14481": 94,
        "14482": 17,
        "14483": 9,
        "14484": 210,
        "14485": 184,
        "14486": 76,
        "14487": 246,
        "14488": 195,
        "14489": 21,
        "14490": 145,
        "14491": 127,
        "14492": 187,
        "14493": 131,
        "14494": 158,
        "14495": 132,
        "14496": 217,
        "14497": 223,
        "14498": 146,
        "14499": 64,
        "14500": 133,
        "14501": 171,
        "14502": 235,
        "14503": 243,
        "14504": 175,
        "14505": 196,
        "14506": 128,
        "14507": 10,
        "14508": 22,
        "14509": 157,
        "14510": 233,
        "14511": 193,
        "14512": 40,
        "14513": 156,
        "14514": 64,
        "14515": 129,
        "14516": 226,
        "14517": 128,
        "14518": 246,
        "14519": 237,
        "14520": 108,
        "14521": 216,
        "14522": 115,
        "14523": 29,
        "14524": 32,
        "14525": 45,
        "14526": 214,
        "14527": 196,
        "14528": 249,
        "14529": 25,
        "14530": 243,
        "14531": 67,
        "14532": 230,
        "14533": 16,
        "14534": 20,
        "14535": 211,
        "14536": 16,
        "14537": 245,
        "14538": 112,
        "14539": 66,
        "14540": 254,
        "14541": 213,
        "14542": 160,
        "14543": 222,
        "14544": 59,
        "14545": 11,
        "14546": 201,
        "14547": 36,
        "14548": 34,
        "14549": 104,
        "14550": 44,
        "14551": 124,
        "14552": 242,
        "14553": 182,
        "14554": 223,
        "14555": 29,
        "14556": 111,
        "14557": 92,
        "14558": 135,
        "14559": 78,
        "14560": 124,
        "14561": 113,
        "14562": 134,
        "14563": 113,
        "14564": 118,
        "14565": 28,
        "14566": 87,
        "14567": 12,
        "14568": 51,
        "14569": 23,
        "14570": 154,
        "14571": 75,
        "14572": 194,
        "14573": 187,
        "14574": 238,
        "14575": 183,
        "14576": 218,
        "14577": 150,
        "14578": 44,
        "14579": 251,
        "14580": 235,
        "14581": 208,
        "14582": 178,
        "14583": 149,
        "14584": 137,
        "14585": 185,
        "14586": 124,
        "14587": 196,
        "14588": 5,
        "14589": 85,
        "14590": 78,
        "14591": 13,
        "14592": 167,
        "14593": 150,
        "14594": 193,
        "14595": 80,
        "14596": 162,
        "14597": 120,
        "14598": 149,
        "14599": 114,
        "14600": 120,
        "14601": 90,
        "14602": 161,
        "14603": 75,
        "14604": 228,
        "14605": 248,
        "14606": 226,
        "14607": 237,
        "14608": 47,
        "14609": 109,
        "14610": 250,
        "14611": 127,
        "14612": 116,
        "14613": 34,
        "14614": 204,
        "14615": 38,
        "14616": 15,
        "14617": 50,
        "14618": 235,
        "14619": 212,
        "14620": 138,
        "14621": 55,
        "14622": 176,
        "14623": 138,
        "14624": 117,
        "14625": 156,
        "14626": 136,
        "14627": 186,
        "14628": 173,
        "14629": 18,
        "14630": 195,
        "14631": 77,
        "14632": 163,
        "14633": 187,
        "14634": 51,
        "14635": 221,
        "14636": 49,
        "14637": 10,
        "14638": 135,
        "14639": 111,
        "14640": 210,
        "14641": 132,
        "14642": 48,
        "14643": 92,
        "14644": 159,
        "14645": 21,
        "14646": 215,
        "14647": 113,
        "14648": 153,
        "14649": 98,
        "14650": 6,
        "14651": 143,
        "14652": 254,
        "14653": 170,
        "14654": 123,
        "14655": 182,
        "14656": 23,
        "14657": 48,
        "14658": 82,
        "14659": 139,
        "14660": 16,
        "14661": 1,
        "14662": 52,
        "14663": 101,
        "14664": 13,
        "14665": 210,
        "14666": 87,
        "14667": 241,
        "14668": 217,
        "14669": 173,
        "14670": 76,
        "14671": 99,
        "14672": 193,
        "14673": 123,
        "14674": 76,
        "14675": 108,
        "14676": 129,
        "14677": 116,
        "14678": 9,
        "14679": 22,
        "14680": 236,
        "14681": 255,
        "14682": 135,
        "14683": 169,
        "14684": 238,
        "14685": 157,
        "14686": 66,
        "14687": 2,
        "14688": 234,
        "14689": 56,
        "14690": 27,
        "14691": 129,
        "14692": 216,
        "14693": 202,
        "14694": 21,
        "14695": 238,
        "14696": 198,
        "14697": 237,
        "14698": 44,
        "14699": 18,
        "14700": 15,
        "14701": 112,
        "14702": 114,
        "14703": 110,
        "14704": 39,
        "14705": 108,
        "14706": 51,
        "14707": 92,
        "14708": 22,
        "14709": 244,
        "14710": 102,
        "14711": 162,
        "14712": 160,
        "14713": 250,
        "14714": 85,
        "14715": 21,
        "14716": 205,
        "14717": 91,
        "14718": 160,
        "14719": 44,
        "14720": 111,
        "14721": 70,
        "14722": 227,
        "14723": 115,
        "14724": 216,
        "14725": 216,
        "14726": 4,
        "14727": 229,
        "14728": 123,
        "14729": 25,
        "14730": 48,
        "14731": 22,
        "14732": 230,
        "14733": 236,
        "14734": 31,
        "14735": 3,
        "14736": 48,
        "14737": 243,
        "14738": 174,
        "14739": 119,
        "14740": 48,
        "14741": 204,
        "14742": 189,
        "14743": 31,
        "14744": 87,
        "14745": 171,
        "14746": 12,
        "14747": 80,
        "14748": 100,
        "14749": 201,
        "14750": 199,
        "14751": 183,
        "14752": 224,
        "14753": 77,
        "14754": 214,
        "14755": 87,
        "14756": 228,
        "14757": 94,
        "14758": 85,
        "14759": 12,
        "14760": 236,
        "14761": 226,
        "14762": 106,
        "14763": 63,
        "14764": 197,
        "14765": 212,
        "14766": 184,
        "14767": 54,
        "14768": 162,
        "14769": 185,
        "14770": 15,
        "14771": 58,
        "14772": 239,
        "14773": 196,
        "14774": 110,
        "14775": 25,
        "14776": 5,
        "14777": 33,
        "14778": 125,
        "14779": 13,
        "14780": 227,
        "14781": 198,
        "14782": 77,
        "14783": 116,
        "14784": 197,
        "14785": 108,
        "14786": 23,
        "14787": 115,
        "14788": 63,
        "14789": 223,
        "14790": 20,
        "14791": 245,
        "14792": 186,
        "14793": 182,
        "14794": 249,
        "14795": 212,
        "14796": 77,
        "14797": 140,
        "14798": 191,
        "14799": 3,
        "14800": 69,
        "14801": 153,
        "14802": 105,
        "14803": 46,
        "14804": 38,
        "14805": 212,
        "14806": 41,
        "14807": 31,
        "14808": 154,
        "14809": 93,
        "14810": 9,
        "14811": 132,
        "14812": 202,
        "14813": 69,
        "14814": 150,
        "14815": 223,
        "14816": 222,
        "14817": 66,
        "14818": 168,
        "14819": 230,
        "14820": 38,
        "14821": 219,
        "14822": 65,
        "14823": 142,
        "14824": 6,
        "14825": 251,
        "14826": 125,
        "14827": 164,
        "14828": 143,
        "14829": 92,
        "14830": 229,
        "14831": 32,
        "14832": 113,
        "14833": 234,
        "14834": 35,
        "14835": 116,
        "14836": 105,
        "14837": 41,
        "14838": 217,
        "14839": 138,
        "14840": 85,
        "14841": 35,
        "14842": 215,
        "14843": 248,
        "14844": 141,
        "14845": 21,
        "14846": 145,
        "14847": 37,
        "14848": 122,
        "14849": 153,
        "14850": 6,
        "14851": 74,
        "14852": 44,
        "14853": 51,
        "14854": 87,
        "14855": 238,
        "14856": 31,
        "14857": 231,
        "14858": 36,
        "14859": 87,
        "14860": 3,
        "14861": 98,
        "14862": 96,
        "14863": 219,
        "14864": 159,
        "14865": 216,
        "14866": 129,
        "14867": 149,
        "14868": 86,
        "14869": 194,
        "14870": 135,
        "14871": 34,
        "14872": 213,
        "14873": 177,
        "14874": 93,
        "14875": 74,
        "14876": 22,
        "14877": 50,
        "14878": 179,
        "14879": 29,
        "14880": 149,
        "14881": 36,
        "14882": 136,
        "14883": 218,
        "14884": 195,
        "14885": 12,
        "14886": 132,
        "14887": 5,
        "14888": 112,
        "14889": 206,
        "14890": 99,
        "14891": 153,
        "14892": 123,
        "14893": 158,
        "14894": 24,
        "14895": 70,
        "14896": 34,
        "14897": 215,
        "14898": 254,
        "14899": 245,
        "14900": 125,
        "14901": 131,
        "14902": 245,
        "14903": 200,
        "14904": 175,
        "14905": 228,
        "14906": 240,
        "14907": 104,
        "14908": 14,
        "14909": 170,
        "14910": 248,
        "14911": 87,
        "14912": 153,
        "14913": 161,
        "14914": 129,
        "14915": 172,
        "14916": 54,
        "14917": 109,
        "14918": 31,
        "14919": 54,
        "14920": 76,
        "14921": 76,
        "14922": 119,
        "14923": 41,
        "14924": 82,
        "14925": 135,
        "14926": 94,
        "14927": 77,
        "14928": 231,
        "14929": 147,
        "14930": 117,
        "14931": 249,
        "14932": 236,
        "14933": 114,
        "14934": 238,
        "14935": 117,
        "14936": 155,
        "14937": 156,
        "14938": 62,
        "14939": 29,
        "14940": 182,
        "14941": 96,
        "14942": 80,
        "14943": 69,
        "14944": 214,
        "14945": 134,
        "14946": 234,
        "14947": 158,
        "14948": 138,
        "14949": 129,
        "14950": 76,
        "14951": 136,
        "14952": 206,
        "14953": 148,
        "14954": 141,
        "14955": 56,
        "14956": 125,
        "14957": 61,
        "14958": 253,
        "14959": 194,
        "14960": 148,
        "14961": 211,
        "14962": 183,
        "14963": 2,
        "14964": 25,
        "14965": 120,
        "14966": 0,
        "14967": 45,
        "14968": 229,
        "14969": 142,
        "14970": 89,
        "14971": 130,
        "14972": 36,
        "14973": 112,
        "14974": 202,
        "14975": 84,
        "14976": 27,
        "14977": 93,
        "14978": 89,
        "14979": 107,
        "14980": 175,
        "14981": 172,
        "14982": 209,
        "14983": 124,
        "14984": 68,
        "14985": 247,
        "14986": 228,
        "14987": 166,
        "14988": 128,
        "14989": 91,
        "14990": 24,
        "14991": 199,
        "14992": 205,
        "14993": 63,
        "14994": 154,
        "14995": 252,
        "14996": 140,
        "14997": 137,
        "14998": 241,
        "14999": 61,
        "15000": 198,
        "15001": 69,
        "15002": 65,
        "15003": 172,
        "15004": 153,
        "15005": 122,
        "15006": 251,
        "15007": 199,
        "15008": 174,
        "15009": 105,
        "15010": 220,
        "15011": 174,
        "15012": 144,
        "15013": 32,
        "15014": 19,
        "15015": 76,
        "15016": 88,
        "15017": 50,
        "15018": 249,
        "15019": 187,
        "15020": 215,
        "15021": 244,
        "15022": 33,
        "15023": 198,
        "15024": 130,
        "15025": 206,
        "15026": 189,
        "15027": 214,
        "15028": 103,
        "15029": 31,
        "15030": 204,
        "15031": 118,
        "15032": 236,
        "15033": 56,
        "15034": 247,
        "15035": 90,
        "15036": 215,
        "15037": 99,
        "15038": 215,
        "15039": 211,
        "15040": 61,
        "15041": 214,
        "15042": 152,
        "15043": 240,
        "15044": 15,
        "15045": 128,
        "15046": 98,
        "15047": 182,
        "15048": 130,
        "15049": 57,
        "15050": 207,
        "15051": 39,
        "15052": 162,
        "15053": 13,
        "15054": 74,
        "15055": 62,
        "15056": 82,
        "15057": 239,
        "15058": 83,
        "15059": 88,
        "15060": 22,
        "15061": 172,
        "15062": 99,
        "15063": 136,
        "15064": 74,
        "15065": 191,
        "15066": 100,
        "15067": 189,
        "15068": 24,
        "15069": 197,
        "15070": 168,
        "15071": 159,
        "15072": 193,
        "15073": 114,
        "15074": 183,
        "15075": 18,
        "15076": 127,
        "15077": 5,
        "15078": 183,
        "15079": 172,
        "15080": 160,
        "15081": 109,
        "15082": 120,
        "15083": 94,
        "15084": 88,
        "15085": 49,
        "15086": 245,
        "15087": 214,
        "15088": 169,
        "15089": 252,
        "15090": 51,
        "15091": 219,
        "15092": 115,
        "15093": 61,
        "15094": 147,
        "15095": 254,
        "15096": 48,
        "15097": 238,
        "15098": 193,
        "15099": 238,
        "15100": 120,
        "15101": 227,
        "15102": 115,
        "15103": 113,
        "15104": 119,
        "15105": 55,
        "15106": 105,
        "15107": 68,
        "15108": 144,
        "15109": 125,
        "15110": 165,
        "15111": 186,
        "15112": 57,
        "15113": 123,
        "15114": 227,
        "15115": 200,
        "15116": 95,
        "15117": 99,
        "15118": 115,
        "15119": 62,
        "15120": 239,
        "15121": 19,
        "15122": 0,
        "15123": 139,
        "15124": 143,
        "15125": 143,
        "15126": 123,
        "15127": 165,
        "15128": 61,
        "15129": 81,
        "15130": 94,
        "15131": 85,
        "15132": 180,
        "15133": 173,
        "15134": 93,
        "15135": 12,
        "15136": 154,
        "15137": 188,
        "15138": 164,
        "15139": 115,
        "15140": 12,
        "15141": 186,
        "15142": 226,
        "15143": 104,
        "15144": 238,
        "15145": 149,
        "15146": 69,
        "15147": 19,
        "15148": 9,
        "15149": 146,
        "15150": 180,
        "15151": 147,
        "15152": 141,
        "15153": 72,
        "15154": 59,
        "15155": 237,
        "15156": 36,
        "15157": 4,
        "15158": 45,
        "15159": 241,
        "15160": 86,
        "15161": 106,
        "15162": 113,
        "15163": 190,
        "15164": 178,
        "15165": 171,
        "15166": 41,
        "15167": 129,
        "15168": 117,
        "15169": 19,
        "15170": 134,
        "15171": 203,
        "15172": 142,
        "15173": 146,
        "15174": 124,
        "15175": 187,
        "15176": 91,
        "15177": 249,
        "15178": 89,
        "15179": 65,
        "15180": 155,
        "15181": 51,
        "15182": 85,
        "15183": 213,
        "15184": 166,
        "15185": 140,
        "15186": 122,
        "15187": 138,
        "15188": 32,
        "15189": 210,
        "15190": 18,
        "15191": 35,
        "15192": 144,
        "15193": 186,
        "15194": 59,
        "15195": 83,
        "15196": 35,
        "15197": 151,
        "15198": 66,
        "15199": 92,
        "15200": 151,
        "15201": 236,
        "15202": 213,
        "15203": 205,
        "15204": 184,
        "15205": 12,
        "15206": 24,
        "15207": 118,
        "15208": 223,
        "15209": 97,
        "15210": 32,
        "15211": 187,
        "15212": 127,
        "15213": 150,
        "15214": 58,
        "15215": 72,
        "15216": 245,
        "15217": 248,
        "15218": 119,
        "15219": 143,
        "15220": 9,
        "15221": 159,
        "15222": 121,
        "15223": 182,
        "15224": 201,
        "15225": 141,
        "15226": 194,
        "15227": 114,
        "15228": 184,
        "15229": 5,
        "15230": 242,
        "15231": 108,
        "15232": 157,
        "15233": 53,
        "15234": 177,
        "15235": 227,
        "15236": 142,
        "15237": 8,
        "15238": 132,
        "15239": 205,
        "15240": 73,
        "15241": 174,
        "15242": 71,
        "15243": 117,
        "15244": 65,
        "15245": 192,
        "15246": 125,
        "15247": 71,
        "15248": 140,
        "15249": 36,
        "15250": 0,
        "15251": 88,
        "15252": 171,
        "15253": 96,
        "15254": 14,
        "15255": 226,
        "15256": 59,
        "15257": 194,
        "15258": 229,
        "15259": 134,
        "15260": 153,
        "15261": 240,
        "15262": 49,
        "15263": 148,
        "15264": 191,
        "15265": 137,
        "15266": 226,
        "15267": 29,
        "15268": 3,
        "15269": 153,
        "15270": 135,
        "15271": 13,
        "15272": 208,
        "15273": 120,
        "15274": 247,
        "15275": 114,
        "15276": 211,
        "15277": 175,
        "15278": 138,
        "15279": 149,
        "15280": 201,
        "15281": 147,
        "15282": 39,
        "15283": 102,
        "15284": 235,
        "15285": 77,
        "15286": 192,
        "15287": 76,
        "15288": 155,
        "15289": 203,
        "15290": 131,
        "15291": 70,
        "15292": 232,
        "15293": 214,
        "15294": 140,
        "15295": 195,
        "15296": 195,
        "15297": 77,
        "15298": 13,
        "15299": 109,
        "15300": 244,
        "15301": 96,
        "15302": 26,
        "15303": 145,
        "15304": 132,
        "15305": 2,
        "15306": 182,
        "15307": 166,
        "15308": 131,
        "15309": 16,
        "15310": 240,
        "15311": 168,
        "15312": 164,
        "15313": 251,
        "15314": 113,
        "15315": 29,
        "15316": 20,
        "15317": 141,
        "15318": 86,
        "15319": 35,
        "15320": 173,
        "15321": 254,
        "15322": 182,
        "15323": 242,
        "15324": 101,
        "15325": 44,
        "15326": 188,
        "15327": 21,
        "15328": 61,
        "15329": 68,
        "15330": 142,
        "15331": 75,
        "15332": 155,
        "15333": 213,
        "15334": 24,
        "15335": 32,
        "15336": 65,
        "15337": 150,
        "15338": 227,
        "15339": 245,
        "15340": 45,
        "15341": 116,
        "15342": 164,
        "15343": 102,
        "15344": 72,
        "15345": 146,
        "15346": 160,
        "15347": 6,
        "15348": 119,
        "15349": 162,
        "15350": 156,
        "15351": 180,
        "15352": 191,
        "15353": 237,
        "15354": 66,
        "15355": 76,
        "15356": 86,
        "15357": 173,
        "15358": 70,
        "15359": 243,
        "15360": 36,
        "15361": 56,
        "15362": 107,
        "15363": 206,
        "15364": 61,
        "15365": 206,
        "15366": 56,
        "15367": 87,
        "15368": 209,
        "15369": 81,
        "15370": 56,
        "15371": 68,
        "15372": 210,
        "15373": 134,
        "15374": 55,
        "15375": 120,
        "15376": 201,
        "15377": 113,
        "15378": 85,
        "15379": 140,
        "15380": 13,
        "15381": 108,
        "15382": 112,
        "15383": 231,
        "15384": 132,
        "15385": 40,
        "15386": 254,
        "15387": 20,
        "15388": 108,
        "15389": 115,
        "15390": 246,
        "15391": 49,
        "15392": 215,
        "15393": 135,
        "15394": 142,
        "15395": 10,
        "15396": 40,
        "15397": 47,
        "15398": 181,
        "15399": 18,
        "15400": 181,
        "15401": 216,
        "15402": 119,
        "15403": 14,
        "15404": 32,
        "15405": 167,
        "15406": 198,
        "15407": 216,
        "15408": 28,
        "15409": 175,
        "15410": 252,
        "15411": 170,
        "15412": 143,
        "15413": 177,
        "15414": 218,
        "15415": 208,
        "15416": 0,
        "15417": 70,
        "15418": 127,
        "15419": 89,
        "15420": 12,
        "15421": 213,
        "15422": 228,
        "15423": 215,
        "15424": 9,
        "15425": 123,
        "15426": 54,
        "15427": 32,
        "15428": 48,
        "15429": 235,
        "15430": 25,
        "15431": 88,
        "15432": 229,
        "15433": 31,
        "15434": 157,
        "15435": 80,
        "15436": 173,
        "15437": 5,
        "15438": 30,
        "15439": 106,
        "15440": 42,
        "15441": 22,
        "15442": 33,
        "15443": 94,
        "15444": 91,
        "15445": 253,
        "15446": 197,
        "15447": 214,
        "15448": 253,
        "15449": 181,
        "15450": 93,
        "15451": 1,
        "15452": 174,
        "15453": 212,
        "15454": 215,
        "15455": 239,
        "15456": 255,
        "15457": 254,
        "15458": 213,
        "15459": 151,
        "15460": 94,
        "15461": 52,
        "15462": 128,
        "15463": 110,
        "15464": 6,
        "15465": 165,
        "15466": 228,
        "15467": 167,
        "15468": 213,
        "15469": 91,
        "15470": 43,
        "15471": 81,
        "15472": 58,
        "15473": 215,
        "15474": 18,
        "15475": 55,
        "15476": 99,
        "15477": 128,
        "15478": 208,
        "15479": 233,
        "15480": 96,
        "15481": 143,
        "15482": 164,
        "15483": 208,
        "15484": 191,
        "15485": 192,
        "15486": 200,
        "15487": 162,
        "15488": 183,
        "15489": 194,
        "15490": 149,
        "15491": 108,
        "15492": 198,
        "15493": 60,
        "15494": 144,
        "15495": 79,
        "15496": 178,
        "15497": 146,
        "15498": 33,
        "15499": 238,
        "15500": 75,
        "15501": 233,
        "15502": 192,
        "15503": 145,
        "15504": 100,
        "15505": 185,
        "15506": 5,
        "15507": 65,
        "15508": 144,
        "15509": 128,
        "15510": 37,
        "15511": 175,
        "15512": 148,
        "15513": 67,
        "15514": 218,
        "15515": 230,
        "15516": 29,
        "15517": 26,
        "15518": 171,
        "15519": 32,
        "15520": 208,
        "15521": 184,
        "15522": 126,
        "15523": 71,
        "15524": 139,
        "15525": 25,
        "15526": 97,
        "15527": 227,
        "15528": 149,
        "15529": 249,
        "15530": 203,
        "15531": 96,
        "15532": 177,
        "15533": 194,
        "15534": 140,
        "15535": 106,
        "15536": 172,
        "15537": 71,
        "15538": 132,
        "15539": 167,
        "15540": 238,
        "15541": 226,
        "15542": 42,
        "15543": 142,
        "15544": 93,
        "15545": 56,
        "15546": 178,
        "15547": 114,
        "15548": 171,
        "15549": 209,
        "15550": 163,
        "15551": 53,
        "15552": 241,
        "15553": 113,
        "15554": 51,
        "15555": 169,
        "15556": 195,
        "15557": 129,
        "15558": 14,
        "15559": 223,
        "15560": 75,
        "15561": 101,
        "15562": 223,
        "15563": 154,
        "15564": 224,
        "15565": 87,
        "15566": 110,
        "15567": 55,
        "15568": 142,
        "15569": 84,
        "15570": 56,
        "15571": 12,
        "15572": 111,
        "15573": 253,
        "15574": 55,
        "15575": 242,
        "15576": 93,
        "15577": 13,
        "15578": 110,
        "15579": 174,
        "15580": 33,
        "15581": 63,
        "15582": 136,
        "15583": 247,
        "15584": 152,
        "15585": 165,
        "15586": 38,
        "15587": 196,
        "15588": 226,
        "15589": 116,
        "15590": 8,
        "15591": 15,
        "15592": 132,
        "15593": 232,
        "15594": 227,
        "15595": 44,
        "15596": 148,
        "15597": 12,
        "15598": 72,
        "15599": 66,
        "15600": 101,
        "15601": 51,
        "15602": 108,
        "15603": 65,
        "15604": 58,
        "15605": 246,
        "15606": 95,
        "15607": 89,
        "15608": 86,
        "15609": 185,
        "15610": 64,
        "15611": 224,
        "15612": 59,
        "15613": 13,
        "15614": 195,
        "15615": 232,
        "15616": 168,
        "15617": 235,
        "15618": 253,
        "15619": 219,
        "15620": 188,
        "15621": 144,
        "15622": 135,
        "15623": 202,
        "15624": 229,
        "15625": 174,
        "15626": 113,
        "15627": 109,
        "15628": 10,
        "15629": 194,
        "15630": 210,
        "15631": 49,
        "15632": 136,
        "15633": 31,
        "15634": 210,
        "15635": 79,
        "15636": 50,
        "15637": 252,
        "15638": 1,
        "15639": 88,
        "15640": 192,
        "15641": 162,
        "15642": 116,
        "15643": 34,
        "15644": 179,
        "15645": 185,
        "15646": 19,
        "15647": 5,
        "15648": 236,
        "15649": 79,
        "15650": 67,
        "15651": 29,
        "15652": 252,
        "15653": 240,
        "15654": 186,
        "15655": 212,
        "15656": 100,
        "15657": 115,
        "15658": 151,
        "15659": 100,
        "15660": 181,
        "15661": 213,
        "15662": 134,
        "15663": 43,
        "15664": 96,
        "15665": 151,
        "15666": 128,
        "15667": 145,
        "15668": 140,
        "15669": 105,
        "15670": 232,
        "15671": 12,
        "15672": 233,
        "15673": 127,
        "15674": 214,
        "15675": 108,
        "15676": 208,
        "15677": 246,
        "15678": 251,
        "15679": 205,
        "15680": 121,
        "15681": 199,
        "15682": 42,
        "15683": 114,
        "15684": 251,
        "15685": 144,
        "15686": 205,
        "15687": 124,
        "15688": 116,
        "15689": 209,
        "15690": 232,
        "15691": 125,
        "15692": 44,
        "15693": 154,
        "15694": 91,
        "15695": 145,
        "15696": 28,
        "15697": 182,
        "15698": 149,
        "15699": 107,
        "15700": 94,
        "15701": 96,
        "15702": 175,
        "15703": 35,
        "15704": 68,
        "15705": 141,
        "15706": 52,
        "15707": 238,
        "15708": 129,
        "15709": 188,
        "15710": 103,
        "15711": 115,
        "15712": 55,
        "15713": 147,
        "15714": 46,
        "15715": 109,
        "15716": 175,
        "15717": 37,
        "15718": 52,
        "15719": 129,
        "15720": 233,
        "15721": 53,
        "15722": 170,
        "15723": 114,
        "15724": 229,
        "15725": 175,
        "15726": 171,
        "15727": 3,
        "15728": 36,
        "15729": 24,
        "15730": 241,
        "15731": 123,
        "15732": 112,
        "15733": 122,
        "15734": 195,
        "15735": 241,
        "15736": 141,
        "15737": 239,
        "15738": 178,
        "15739": 173,
        "15740": 210,
        "15741": 241,
        "15742": 92,
        "15743": 83,
        "15744": 174,
        "15745": 242,
        "15746": 251,
        "15747": 158,
        "15748": 17,
        "15749": 201,
        "15750": 224,
        "15751": 144,
        "15752": 224,
        "15753": 143,
        "15754": 7,
        "15755": 37,
        "15756": 243,
        "15757": 185,
        "15758": 179,
        "15759": 17,
        "15760": 38,
        "15761": 151,
        "15762": 194,
        "15763": 49,
        "15764": 178,
        "15765": 220,
        "15766": 206,
        "15767": 134,
        "15768": 130,
        "15769": 217,
        "15770": 214,
        "15771": 220,
        "15772": 227,
        "15773": 190,
        "15774": 102,
        "15775": 204,
        "15776": 166,
        "15777": 14,
        "15778": 132,
        "15779": 181,
        "15780": 32,
        "15781": 152,
        "15782": 102,
        "15783": 108,
        "15784": 137,
        "15785": 7,
        "15786": 26,
        "15787": 202,
        "15788": 159,
        "15789": 150,
        "15790": 234,
        "15791": 184,
        "15792": 59,
        "15793": 186,
        "15794": 63,
        "15795": 83,
        "15796": 135,
        "15797": 93,
        "15798": 121,
        "15799": 77,
        "15800": 38,
        "15801": 19,
        "15802": 33,
        "15803": 24,
        "15804": 165,
        "15805": 144,
        "15806": 189,
        "15807": 213,
        "15808": 198,
        "15809": 183,
        "15810": 212,
        "15811": 210,
        "15812": 88,
        "15813": 3,
        "15814": 46,
        "15815": 221,
        "15816": 198,
        "15817": 67,
        "15818": 173,
        "15819": 174,
        "15820": 15,
        "15821": 26,
        "15822": 221,
        "15823": 220,
        "15824": 216,
        "15825": 148,
        "15826": 126,
        "15827": 82,
        "15828": 74,
        "15829": 143,
        "15830": 9,
        "15831": 250,
        "15832": 255,
        "15833": 253,
        "15834": 120,
        "15835": 234,
        "15836": 225,
        "15837": 236,
        "15838": 175,
        "15839": 2,
        "15840": 79,
        "15841": 206,
        "15842": 5,
        "15843": 64,
        "15844": 172,
        "15845": 226,
        "15846": 39,
        "15847": 17,
        "15848": 230,
        "15849": 51,
        "15850": 145,
        "15851": 77,
        "15852": 186,
        "15853": 104,
        "15854": 83,
        "15855": 200,
        "15856": 80,
        "15857": 103,
        "15858": 149,
        "15859": 33,
        "15860": 93,
        "15861": 249,
        "15862": 15,
        "15863": 175,
        "15864": 5,
        "15865": 158,
        "15866": 19,
        "15867": 93,
        "15868": 170,
        "15869": 207,
        "15870": 186,
        "15871": 87,
        "15872": 160,
        "15873": 114,
        "15874": 107,
        "15875": 15,
        "15876": 38,
        "15877": 166,
        "15878": 147,
        "15879": 158,
        "15880": 72,
        "15881": 57,
        "15882": 76,
        "15883": 207,
        "15884": 214,
        "15885": 14,
        "15886": 204,
        "15887": 249,
        "15888": 208,
        "15889": 8,
        "15890": 27,
        "15891": 172,
        "15892": 241,
        "15893": 216,
        "15894": 173,
        "15895": 230,
        "15896": 51,
        "15897": 244,
        "15898": 113,
        "15899": 235,
        "15900": 240,
        "15901": 246,
        "15902": 222,
        "15903": 40,
        "15904": 241,
        "15905": 213,
        "15906": 127,
        "15907": 46,
        "15908": 202,
        "15909": 74,
        "15910": 212,
        "15911": 8,
        "15912": 190,
        "15913": 44,
        "15914": 2,
        "15915": 84,
        "15916": 197,
        "15917": 158,
        "15918": 103,
        "15919": 0,
        "15920": 228,
        "15921": 123,
        "15922": 228,
        "15923": 164,
        "15924": 1,
        "15925": 116,
        "15926": 69,
        "15927": 130,
        "15928": 249,
        "15929": 115,
        "15930": 199,
        "15931": 181,
        "15932": 201,
        "15933": 229,
        "15934": 58,
        "15935": 20,
        "15936": 14,
        "15937": 204,
        "15938": 108,
        "15939": 104,
        "15940": 61,
        "15941": 247,
        "15942": 160,
        "15943": 241,
        "15944": 143,
        "15945": 229,
        "15946": 34,
        "15947": 123,
        "15948": 199,
        "15949": 35,
        "15950": 84,
        "15951": 243,
        "15952": 215,
        "15953": 34,
        "15954": 155,
        "15955": 125,
        "15956": 45,
        "15957": 69,
        "15958": 152,
        "15959": 153,
        "15960": 229,
        "15961": 19,
        "15962": 208,
        "15963": 205,
        "15964": 22,
        "15965": 36,
        "15966": 89,
        "15967": 251,
        "15968": 192,
        "15969": 2,
        "15970": 197,
        "15971": 138,
        "15972": 242,
        "15973": 44,
        "15974": 146,
        "15975": 207,
        "15976": 149,
        "15977": 34,
        "15978": 47,
        "15979": 115,
        "15980": 197,
        "15981": 246,
        "15982": 96,
        "15983": 44,
        "15984": 131,
        "15985": 189,
        "15986": 7,
        "15987": 216,
        "15988": 128,
        "15989": 255,
        "15990": 92,
        "15991": 251,
        "15992": 202,
        "15993": 237,
        "15994": 251,
        "15995": 44,
        "15996": 181,
        "15997": 236,
        "15998": 187,
        "15999": 18,
        "16000": 214,
        "16001": 222,
        "16002": 243,
        "16003": 205,
        "16004": 224,
        "16005": 73,
        "16006": 170,
        "16007": 182,
        "16008": 67,
        "16009": 99,
        "16010": 46,
        "16011": 246,
        "16012": 218,
        "16013": 84,
        "16014": 136,
        "16015": 37,
        "16016": 65,
        "16017": 134,
        "16018": 191,
        "16019": 236,
        "16020": 205,
        "16021": 163,
        "16022": 25,
        "16023": 178,
        "16024": 247,
        "16025": 72,
        "16026": 155,
        "16027": 110,
        "16028": 50,
        "16029": 233,
        "16030": 79,
        "16031": 211,
        "16032": 91,
        "16033": 67,
        "16034": 250,
        "16035": 102,
        "16036": 159,
        "16037": 78,
        "16038": 2,
        "16039": 12,
        "16040": 7,
        "16041": 119,
        "16042": 135,
        "16043": 71,
        "16044": 196,
        "16045": 191,
        "16046": 64,
        "16047": 116,
        "16048": 81,
        "16049": 103,
        "16050": 122,
        "16051": 98,
        "16052": 61,
        "16053": 195,
        "16054": 150,
        "16055": 35,
        "16056": 62,
        "16057": 226,
        "16058": 246,
        "16059": 22,
        "16060": 178,
        "16061": 150,
        "16062": 178,
        "16063": 254,
        "16064": 245,
        "16065": 114,
        "16066": 177,
        "16067": 240,
        "16068": 102,
        "16069": 219,
        "16070": 92,
        "16071": 73,
        "16072": 52,
        "16073": 160,
        "16074": 99,
        "16075": 142,
        "16076": 15,
        "16077": 45,
        "16078": 183,
        "16079": 166,
        "16080": 43,
        "16081": 97,
        "16082": 191,
        "16083": 227,
        "16084": 27,
        "16085": 76,
        "16086": 83,
        "16087": 101,
        "16088": 37,
        "16089": 121,
        "16090": 125,
        "16091": 170,
        "16092": 178,
        "16093": 37,
        "16094": 226,
        "16095": 111,
        "16096": 140,
        "16097": 142,
        "16098": 66,
        "16099": 205,
        "16100": 215,
        "16101": 180,
        "16102": 220,
        "16103": 36,
        "16104": 97,
        "16105": 248,
        "16106": 49,
        "16107": 155,
        "16108": 120,
        "16109": 134,
        "16110": 44,
        "16111": 130,
        "16112": 53,
        "16113": 53,
        "16114": 88,
        "16115": 88,
        "16116": 63,
        "16117": 231,
        "16118": 175,
        "16119": 183,
        "16120": 28,
        "16121": 244,
        "16122": 34,
        "16123": 61,
        "16124": 113,
        "16125": 251,
        "16126": 187,
        "16127": 46,
        "16128": 43,
        "16129": 200,
        "16130": 2,
        "16131": 143,
        "16132": 106,
        "16133": 57,
        "16134": 204,
        "16135": 209,
        "16136": 252,
        "16137": 254,
        "16138": 252,
        "16139": 71,
        "16140": 153,
        "16141": 7,
        "16142": 38,
        "16143": 103,
        "16144": 32,
        "16145": 203,
        "16146": 235,
        "16147": 2,
        "16148": 194,
        "16149": 31,
        "16150": 140,
        "16151": 10,
        "16152": 83,
        "16153": 239,
        "16154": 104,
        "16155": 49,
        "16156": 148,
        "16157": 33,
        "16158": 226,
        "16159": 107,
        "16160": 1,
        "16161": 247,
        "16162": 237,
        "16163": 156,
        "16164": 234,
        "16165": 82,
        "16166": 167,
        "16167": 130,
        "16168": 173,
        "16169": 154,
        "16170": 113,
        "16171": 179,
        "16172": 22,
        "16173": 41,
        "16174": 56,
        "16175": 202,
        "16176": 172,
        "16177": 178,
        "16178": 59,
        "16179": 63,
        "16180": 166,
        "16181": 88,
        "16182": 237,
        "16183": 154,
        "16184": 87,
        "16185": 232,
        "16186": 184,
        "16187": 140,
        "16188": 138,
        "16189": 236,
        "16190": 148,
        "16191": 94,
        "16192": 224,
        "16193": 193,
        "16194": 201,
        "16195": 10,
        "16196": 6,
        "16197": 23,
        "16198": 231,
        "16199": 12,
        "16200": 220,
        "16201": 131,
        "16202": 157,
        "16203": 97,
        "16204": 104,
        "16205": 222,
        "16206": 54,
        "16207": 225,
        "16208": 205,
        "16209": 54,
        "16210": 5,
        "16211": 28,
        "16212": 24,
        "16213": 249,
        "16214": 8,
        "16215": 55,
        "16216": 140,
        "16217": 142,
        "16218": 45,
        "16219": 96,
        "16220": 222,
        "16221": 249,
        "16222": 151,
        "16223": 55,
        "16224": 101,
        "16225": 73,
        "16226": 225,
        "16227": 47,
        "16228": 241,
        "16229": 8,
        "16230": 61,
        "16231": 13,
        "16232": 233,
        "16233": 7,
        "16234": 183,
        "16235": 71,
        "16236": 186,
        "16237": 196,
        "16238": 228,
        "16239": 194,
        "16240": 189,
        "16241": 97,
        "16242": 187,
        "16243": 173,
        "16244": 47,
        "16245": 245,
        "16246": 144,
        "16247": 220,
        "16248": 4,
        "16249": 205,
        "16250": 69,
        "16251": 187,
        "16252": 178,
        "16253": 183,
        "16254": 34,
        "16255": 182,
        "16256": 160,
        "16257": 71,
        "16258": 119,
        "16259": 66,
        "16260": 149,
        "16261": 156,
        "16262": 18,
        "16263": 22,
        "16264": 23,
        "16265": 254,
        "16266": 96,
        "16267": 157,
        "16268": 227,
        "16269": 80,
        "16270": 142,
        "16271": 133,
        "16272": 194,
        "16273": 228,
        "16274": 179,
        "16275": 1,
        "16276": 251,
        "16277": 1,
        "16278": 169,
        "16279": 201,
        "16280": 50,
        "16281": 120,
        "16282": 195,
        "16283": 136,
        "16284": 107,
        "16285": 164,
        "16286": 17,
        "16287": 225,
        "16288": 115,
        "16289": 187,
        "16290": 168,
        "16291": 199,
        "16292": 44,
        "16293": 31,
        "16294": 19,
        "16295": 83,
        "16296": 107,
        "16297": 196,
        "16298": 122,
        "16299": 144,
        "16300": 57,
        "16301": 129,
        "16302": 32,
        "16303": 242,
        "16304": 11,
        "16305": 111,
        "16306": 80,
        "16307": 153,
        "16308": 72,
        "16309": 40,
        "16310": 210,
        "16311": 230,
        "16312": 182,
        "16313": 123,
        "16314": 111,
        "16315": 134,
        "16316": 255,
        "16317": 55,
        "16318": 236,
        "16319": 81,
        "16320": 171,
        "16321": 179,
        "16322": 201,
        "16323": 174,
        "16324": 70,
        "16325": 204,
        "16326": 135,
        "16327": 228,
        "16328": 194,
        "16329": 87,
        "16330": 103,
        "16331": 163,
        "16332": 18,
        "16333": 22,
        "16334": 25,
        "16335": 81,
        "16336": 179,
        "16337": 232,
        "16338": 143,
        "16339": 4,
        "16340": 213,
        "16341": 217,
        "16342": 133,
        "16343": 45,
        "16344": 22,
        "16345": 108,
        "16346": 254,
        "16347": 23,
        "16348": 159,
        "16349": 81,
        "16350": 74,
        "16351": 55,
        "16352": 229,
        "16353": 129,
        "16354": 71,
        "16355": 211,
        "16356": 16,
        "16357": 19,
        "16358": 194,
        "16359": 100,
        "16360": 71,
        "16361": 187,
        "16362": 212,
        "16363": 198,
        "16364": 109,
        "16365": 98,
        "16366": 53,
        "16367": 35,
        "16368": 62,
        "16369": 74,
        "16370": 129,
        "16371": 111,
        "16372": 168,
        "16373": 31,
        "16374": 150,
        "16375": 51,
        "16376": 15,
        "16377": 44,
        "16378": 28,
        "16379": 68,
        "16380": 94,
        "16381": 34,
        "16382": 225,
        "16383": 141,
        "16384": 193,
        "16385": 198,
        "16386": 217,
        "16387": 36,
        "16388": 181,
        "16389": 16,
        "16390": 217,
        "16391": 74,
        "16392": 102,
        "16393": 106,
        "16394": 255,
        "16395": 79,
        "16396": 76,
        "16397": 251,
        "16398": 163,
        "16399": 52,
        "16400": 175,
        "16401": 137,
        "16402": 223,
        "16403": 3,
        "16404": 117,
        "16405": 60,
        "16406": 245,
        "16407": 107,
        "16408": 46,
        "16409": 45,
        "16410": 86,
        "16411": 201,
        "16412": 157,
        "16413": 237,
        "16414": 32,
        "16415": 242,
        "16416": 188,
        "16417": 134,
        "16418": 121,
        "16419": 80,
        "16420": 102,
        "16421": 163,
        "16422": 73,
        "16423": 8,
        "16424": 89,
        "16425": 41,
        "16426": 125,
        "16427": 79,
        "16428": 88,
        "16429": 187,
        "16430": 68,
        "16431": 255,
        "16432": 235,
        "16433": 150,
        "16434": 169,
        "16435": 100,
        "16436": 201,
        "16437": 246,
        "16438": 35,
        "16439": 177,
        "16440": 213,
        "16441": 97,
        "16442": 36,
        "16443": 180,
        "16444": 246,
        "16445": 186,
        "16446": 178,
        "16447": 153,
        "16448": 211,
        "16449": 194,
        "16450": 178,
        "16451": 121,
        "16452": 146,
        "16453": 121,
        "16454": 36,
        "16455": 147,
        "16456": 2,
        "16457": 153,
        "16458": 201,
        "16459": 35,
        "16460": 219,
        "16461": 59,
        "16462": 37,
        "16463": 190,
        "16464": 251,
        "16465": 192,
        "16466": 181,
        "16467": 185,
        "16468": 27,
        "16469": 241,
        "16470": 160,
        "16471": 113,
        "16472": 250,
        "16473": 28,
        "16474": 239,
        "16475": 52,
        "16476": 203,
        "16477": 48,
        "16478": 235,
        "16479": 33,
        "16480": 186,
        "16481": 130,
        "16482": 1,
        "16483": 69,
        "16484": 96,
        "16485": 106,
        "16486": 11,
        "16487": 226,
        "16488": 68,
        "16489": 110,
        "16490": 98,
        "16491": 44,
        "16492": 9,
        "16493": 136,
        "16494": 217,
        "16495": 110,
        "16496": 129,
        "16497": 230,
        "16498": 191,
        "16499": 187,
        "16500": 212,
        "16501": 130,
        "16502": 92,
        "16503": 135,
        "16504": 218,
        "16505": 71,
        "16506": 73,
        "16507": 231,
        "16508": 184,
        "16509": 242,
        "16510": 203,
        "16511": 94,
        "16512": 96,
        "16513": 77,
        "16514": 170,
        "16515": 209,
        "16516": 205,
        "16517": 15,
        "16518": 226,
        "16519": 53,
        "16520": 1,
        "16521": 8,
        "16522": 0,
        "16523": 0,
        "16524": 0,
        "16525": 0,
        "16526": 0,
        "16527": 0,
        "16528": 16,
        "16529": 0,
        "16530": 0,
        "16531": 0,
        "16532": 0,
        "16533": 0,
        "16534": 0,
        "16535": 0,
        "16536": 0,
        "16537": 0,
        "16538": 0,
        "16539": 0,
        "16540": 0,
        "16541": 0,
        "16542": 0,
        "16543": 0,
        "16544": 0,
        "16545": 0,
        "16546": 0,
        "16547": 0,
        "16548": 0,
        "16549": 0,
        "16550": 0,
        "16551": 0,
        "16552": 64,
        "16553": 0,
        "16554": 0,
        "16555": 0,
        "16556": 0,
        "16557": 0,
        "16558": 0,
        "16559": 0,
        "16560": 3,
        "16561": 0,
        "16562": 0,
        "16563": 0,
        "16564": 0,
        "16565": 0,
        "16566": 0,
        "16567": 0,
        "16568": 4,
        "16569": 0,
        "16570": 0,
        "16571": 0,
        "16572": 0,
        "16573": 0,
        "16574": 0,
        "16575": 0,
        "16576": 4,
        "16577": 0,
        "16578": 0,
        "16579": 0,
        "16580": 0,
        "16581": 0,
        "16582": 0,
        "16583": 0,
        "16584": 0,
        "16585": 0,
        "16586": 0,
        "16587": 0,
        "16588": 1,
        "16589": 0,
        "16590": 0,
        "16591": 0,
        "16592": 0,
        "16593": 0,
        "16594": 0,
        "16595": 0,
        "16596": 16,
        "16597": 0,
        "16598": 0,
        "16599": 0,
        "16600": 0,
        "16601": 0,
        "16602": 0,
        "16603": 0
      }
    }
  ],
  "numDeployments": 1,
  "solcInputHash": "c0e889dcb69b76266f445d0fe3402b92",
  "bytecode": "0x6101606040526200001760006200026660201b60201c565b6002553480156200002757600080fd5b50604051620046173803806200461783398181016040528101906200004d919062000b83565b6040518060400160405280600881526020017f46616b65205553440000000000000000000000000000000000000000000000008152506040518060400160405280600481526020017f6655534400000000000000000000000000000000000000000000000000000000815250338383836040518060400160405280601181526020017f4668656e6978205065726d697373696f6e0000000000000000000000000000008152506040518060400160405280600381526020017f312e3000000000000000000000000000000000000000000000000000000000008152506200013f6000836200028260201b90919060201c565b61012081815250506200015d6001826200028260201b90919060201c565b6101408181525050818051906020012060e08181525050808051906020012061010081815250504660a081815250506200019c620002da60201b60201c565b608081815250503073ffffffffffffffffffffffffffffffffffffffff1660c08173ffffffffffffffffffffffffffffffffffffffff168152505050508160059081620001ea919062000e1f565b508060069081620001fc919062000e1f565b505050600062000212826200033760201b60201c565b9050620002486200023c8262000230617fff6200026660201b60201c565b6200035560201b60201c565b620003f860201b60201c565b6200025a8382620004cb60201b60201c565b50505050505062001260565b60006200027b8260026200057160201b60201c565b9050919050565b6000602083511015620002a857620002a0836200062860201b60201c565b9050620002d4565b82620002ba836200069560201b60201c565b6000019081620002cb919062000e1f565b5060ff60001b90505b92915050565b60007f8b73c3c69bb8fe3d512ecc4cf759cc79239f7b179b0ffacaa9a75d522b39400f60e0516101005146306040516020016200031c95949392919062000f77565b60405160208183030381529060405280519060200120905090565b60006200034e82600001516200069f60201b60201c565b9050919050565b60006200036883620006bb60201b60201c565b62000382576200037f60006200026660201b60201c565b92505b6200039382620006bb60201b60201c565b620003ad57620003aa60006200026660201b60201c565b91505b600083905060008390506000620003ea60028484608073ffffffffffffffffffffffffffffffffffffffff1663eb274b77620006c860201b60201c565b905080935050505092915050565b62000409816200077960201b60201c565b62000423576200042060006200078660201b60201c565b90505b600081905060006200043b82620007a260201b60201c565b9050608073ffffffffffffffffffffffffffffffffffffffff16637d23f1db600d836040518363ffffffff1660e01b81526004016200047c9291906200104f565b600060405180830381865afa1580156200049a573d6000803e3d6000fd5b505050506040513d6000823e3d601f19601f82011682018060405250810190620004c5919062001083565b50505050565b62000516600360008473ffffffffffffffffffffffffffffffffffffffff1673ffffffffffffffffffffffffffffffffffffffff168152602001908152602001600020548262000803565b600360008473ffffffffffffffffffffffffffffffffffffffff1673ffffffffffffffffffffffffffffffffffffffff16815260200190815260200160002081905550620005676002548262000803565b6002819055505050565b60006060608073ffffffffffffffffffffffffffffffffffffffff166319e1c5c4620005a386620007a260201b60201c565b856040518363ffffffff1660e01b8152600401620005c3929190620010d4565b600060405180830381865afa158015620005e1573d6000803e3d6000fd5b505050506040513d6000823e3d601f19601f820116820180604052508101906200060c919062001083565b90506200061f816200081f60201b60201c565b91505092915050565b600080829050601f815111156200067857826040517f305a27a90000000000000000000000000000000000000000000000000000000081526004016200066f91906200115a565b60405180910390fd5b8051816200068690620011a5565b60001c1760001b915050919050565b6000819050919050565b6000620006b48260026200082d60201b60201c565b9050919050565b6000808214159050919050565b60006060838388620006e089620007a260201b60201c565b620006f189620007a260201b60201c565b6040518463ffffffff1660e01b8152600401620007119392919062001215565b600060405180830381865afa1580156200072f573d6000803e3d6000fd5b505050506040513d6000823e3d601f19601f820116820180604052508101906200075a919062001083565b90506200076d81620008d460201b60201c565b91505095945050505050565b6000808214159050919050565b60006200079b82600d6200057160201b60201c565b9050919050565b6060602067ffffffffffffffff811115620007c257620007c1620009ae565b5b6040519080825280601f01601f191660200182016040528015620007f55781602001600182028036833780820191505090505b509050816020820152919050565b6000620008178383620008e260201b60201c565b905092915050565b600060208201519050919050565b60006060608073ffffffffffffffffffffffffffffffffffffffff16635fa55ca784866040518363ffffffff1660e01b81526004016200086f9291906200104f565b600060405180830381865afa1580156200088d573d6000803e3d6000fd5b505050506040513d6000823e3d601f19601f82011682018060405250810190620008b8919062001083565b9050620008cb816200081f60201b60201c565b91505092915050565b600060208201519050919050565b6000620008f583620006bb60201b60201c565b6200090f576200090c60006200026660201b60201c565b92505b6200092082620006bb60201b60201c565b6200093a576200093760006200026660201b60201c565b91505b6000839050600083905060006200097660028484608073ffffffffffffffffffffffffffffffffffffffff16622df619620006c860201b60201c565b905080935050505092915050565b6000604051905090565b600080fd5b600080fd5b600080fd5b6000601f19601f8301169050919050565b7f4e487b7100000000000000000000000000000000000000000000000000000000600052604160045260246000fd5b620009e8826200099d565b810181811067ffffffffffffffff8211171562000a0a5762000a09620009ae565b5b80604052505050565b600062000a1f62000984565b905062000a2d8282620009dd565b919050565b600080fd5b600080fd5b600080fd5b600067ffffffffffffffff82111562000a5f5762000a5e620009ae565b5b62000a6a826200099d565b9050602081019050919050565b60005b8381101562000a9757808201518184015260208101905062000a7a565b60008484015250505050565b600062000aba62000ab48462000a41565b62000a13565b90508281526020810184848401111562000ad95762000ad862000a3c565b5b62000ae684828562000a77565b509392505050565b600082601f83011262000b065762000b0562000a37565b5b815162000b1884826020860162000aa3565b91505092915050565b60006020828403121562000b3a5762000b3962000998565b5b62000b46602062000a13565b9050600082015167ffffffffffffffff81111562000b695762000b6862000a32565b5b62000b778482850162000aee565b60008301525092915050565b60006020828403121562000b9c5762000b9b6200098e565b5b600082015167ffffffffffffffff81111562000bbd5762000bbc62000993565b5b62000bcb8482850162000b21565b91505092915050565b600081519050919050565b7f4e487b7100000000000000000000000000000000000000000000000000000000600052602260045260246000fd5b6000600282049050600182168062000c2757607f821691505b60208210810362000c3d5762000c3c62000bdf565b5b50919050565b60008190508160005260206000209050919050565b60006020601f8301049050919050565b600082821b905092915050565b60006008830262000ca77fffffffffffffffffffffffffffffffffffffffffffffffffffffffffffffffff8262000c68565b62000cb3868362000c68565b95508019841693508086168417925050509392505050565b6000819050919050565b6000819050919050565b600062000d0062000cfa62000cf48462000ccb565b62000cd5565b62000ccb565b9050919050565b6000819050919050565b62000d1c8362000cdf565b62000d3462000d2b8262000d07565b84845462000c75565b825550505050565b600090565b62000d4b62000d3c565b62000d5881848462000d11565b505050565b5b8181101562000d805762000d7460008262000d41565b60018101905062000d5e565b5050565b601f82111562000dcf5762000d998162000c43565b62000da48462000c58565b8101602085101562000db4578190505b62000dcc62000dc38562000c58565b83018262000d5d565b50505b505050565b600082821c905092915050565b600062000df46000198460080262000dd4565b1980831691505092915050565b600062000e0f838362000de1565b9150826002028217905092915050565b62000e2a8262000bd4565b67ffffffffffffffff81111562000e465762000e45620009ae565b5b62000e52825462000c0e565b62000e5f82828562000d84565b600060209050601f83116001811462000e97576000841562000e82578287015190505b62000e8e858262000e01565b86555062000efe565b601f19841662000ea78662000c43565b60005b8281101562000ed15784890151825560018201915060208501945060208101905062000eaa565b8683101562000ef1578489015162000eed601f89168262000de1565b8355505b6001600288020188555050505b505050505050565b6000819050919050565b62000f1b8162000f06565b82525050565b62000f2c8162000ccb565b82525050565b600073ffffffffffffffffffffffffffffffffffffffff82169050919050565b600062000f5f8262000f32565b9050919050565b62000f718162000f52565b82525050565b600060a08201905062000f8e600083018862000f10565b62000f9d602083018762000f10565b62000fac604083018662000f10565b62000fbb606083018562000f21565b62000fca608083018462000f66565b9695505050505050565b600060ff82169050919050565b62000fec8162000fd4565b82525050565b600081519050919050565b600082825260208201905092915050565b60006200101b8262000ff2565b62001027818562000ffd565b93506200103981856020860162000a77565b62001044816200099d565b840191505092915050565b600060408201905062001066600083018562000fe1565b81810360208301526200107a81846200100e565b90509392505050565b6000602082840312156200109c576200109b6200098e565b5b600082015167ffffffffffffffff811115620010bd57620010bc62000993565b5b620010cb8482850162000aee565b91505092915050565b60006040820190508181036000830152620010f081856200100e565b905062001101602083018462000fe1565b9392505050565b600082825260208201905092915050565b6000620011268262000bd4565b62001132818562001108565b93506200114481856020860162000a77565b6200114f816200099d565b840191505092915050565b6000602082019050818103600083015262001176818462001119565b905092915050565b6000819050602082019050919050565b60006200119c825162000f06565b80915050919050565b6000620011b28262000ff2565b82620011be846200117e565b9050620011cb816200118e565b925060208210156200120e57620012097fffffffffffffffffffffffffffffffffffffffffffffffffffffffffffffffff8360200360080262000c68565b831692505b5050919050565b60006060820190506200122c600083018662000fe1565b81810360208301526200124081856200100e565b905081810360408301526200125681846200100e565b9050949350505050565b60805160a05160c05160e05161010051610120516101405161335c620012bb60003960006118f5015260006118ba0152600061217f0152600061215e015260006119ea01526000611a4001526000611a69015261335c6000f3fe608060405234801561001057600080fd5b50600436106101425760003560e01c80637ecebe00116100b8578063a9059cbb1161007c578063a9059cbb146103b9578063af575a00146103e9578063c4224c1914610419578063d505accf14610449578063d918156e14610465578063dd62ed3e1461049557610142565b80637ecebe00146102fb57806384b0196e1461032b5780638624a3491461034f57806395d89b411461037f5780639f284be71461039d57610142565b80633644e5151161010a5780633644e5151461020157806339c217f71461021f5780635356c4291461024f578063602772041461027f5780636e0505e1146102af57806370a08231146102cb57610142565b806306fdde0314610147578063095ea7b31461016557806318160ddd1461019557806323b872dd146101b3578063313ce567146101e3575b600080fd5b61014f6104c5565b60405161015c9190612433565b60405180910390f35b61017f600480360381019061017a91906124fd565b610557565b60405161018c9190612558565b60405180910390f35b61019d6105ab565b6040516101aa9190612582565b60405180910390f35b6101cd60048036038101906101c8919061259d565b6105bd565b6040516101da9190612558565b60405180910390f35b6101eb610692565b6040516101f8919061260c565b60405180910390f35b610209610697565b6040516102169190612640565b60405180910390f35b6102396004803603810190610234919061267f565b610729565b6040516102469190612716565b60405180910390f35b61026960048036038101906102649190612750565b61074e565b6040516102769190612433565b60405180910390f35b61029960048036038101906102949190612983565b6108bf565b6040516102a69190612433565b60405180910390f35b6102c960048036038101906102c49190612a1b565b6109ec565b005b6102e560048036038101906102e09190612a48565b610b01565b6040516102f29190612582565b60405180910390f35b61031560048036038101906103109190612a48565b610b1c565b6040516103229190612582565b60405180910390f35b610333610b37565b6040516103469796959493929190612b7d565b60405180910390f35b61036960048036038101906103649190612c01565b610be1565b6040516103769190612716565b60405180910390f35b610387610c08565b6040516103949190612433565b60405180910390f35b6103b760048036038101906103b29190612a1b565b610c9a565b005b6103d360048036038101906103ce91906124fd565b610da7565b6040516103e09190612558565b60405180910390f35b61040360048036038101906103fe9190612c9c565b610e39565b6040516104109190612716565b60405180910390f35b610433600480360381019061042e9190612cef565b61118f565b6040516104409190612716565b60405180910390f35b610463600480360381019061045e9190612d5b565b611359565b005b61047f600480360381019061047a919061267f565b6114fd565b60405161048c9190612558565b60405180910390f35b6104af60048036038101906104aa9190612dfd565b6115f5565b6040516104bc9190612582565b60405180910390f35b6060600580546104d490612e6c565b80601f016020809104026020016040519081016040528092919081815260200182805461050090612e6c565b801561054d5780601f106105225761010080835404028352916020019161054d565b820191906000526020600020905b81548152906001019060200180831161053057829003601f168201915b5050505050905090565b600082602052637f5e9f20600c5233600052816034600c205581600052602c5160601c337f8c5be1e5ebec7d5bd14f71427d1e84f3dd0314c0f7b2291e5b200ac8c7c3b92560206000a36001905092915050565b60006805345cdf77eb68f44c54905090565b60006105ca848484611615565b8360601b33602052637f5e9f208117600c526034600c20805460018101156106085780851115610602576313be252b6000526004601cfd5b84810382555b6387a211a28317600c526020600c2080548087111561062f5763f4d678b86000526004601cfd5b8681038255876000526020600c2087815401815587602052600c5160601c8660601c7fddf252ad1be2c89b69c2b068fc378daa952ba7f163c4a11628f55a4df523b3ef602080a350505050505061068784848461161a565b600190509392505050565b600090565b6000806106a261161f565b90506000801b81036106c0576106b66104c5565b8051906020012090505b6040517f8b73c3c69bb8fe3d512ecc4cf759cc79239f7b179b0ffacaa9a75d522b39400f81528160208201527fc89efdaa54c0f20c7adf612882df0950f5a951637e0307cdcb4c672f298b8bc6604082015246606082015230608082015260a081209250505090565b6000610746836107418461073c90612ef5565b611624565b61118f565b905092915050565b60608161075a90612f08565b60006107b17f6bdaeb2d29561f159c7ef98b16b27015fb2aeb87209c7ee656226d912f59927d8360000151604051602001610796929190612f1b565b6040516020818303038152906040528051906020012061163a565b905060006107c3828460200151611654565b90503373ffffffffffffffffffffffffffffffffffffffff168173ffffffffffffffffffffffffffffffffffffffff161461082a576040517f3093a27700000000000000000000000000000000000000000000000000000000815260040160405180910390fd5b6108b4600460003373ffffffffffffffffffffffffffffffffffffffff1673ffffffffffffffffffffffffffffffffffffffff16815260200190815260200160002060008873ffffffffffffffffffffffffffffffffffffffff1673ffffffffffffffffffffffffffffffffffffffff168152602001908152602001600020548660000135611680565b935050505092915050565b60608183600061091a7f6bdaeb2d29561f159c7ef98b16b27015fb2aeb87209c7ee656226d912f59927d84600001516040516020016108ff929190612f1b565b6040516020818303038152906040528051906020012061163a565b9050600061092c828560200151611654565b90508273ffffffffffffffffffffffffffffffffffffffff168173ffffffffffffffffffffffffffffffffffffffff1614610993576040517f51c65eae00000000000000000000000000000000000000000000000000000000815260040160405180910390fd5b6109e0600360008973ffffffffffffffffffffffffffffffffffffffff1673ffffffffffffffffffffffffffffffffffffffff168152602001908152602001600020548760000151611680565b94505050505092915050565b6000610a45610a008363ffffffff166116b6565b600360003373ffffffffffffffffffffffffffffffffffffffff1673ffffffffffffffffffffffffffffffffffffffff168152602001908152602001600020546116ca565b9050610a90600360003373ffffffffffffffffffffffffffffffffffffffff1673ffffffffffffffffffffffffffffffffffffffff1681526020019081526020016000205482611743565b600360003373ffffffffffffffffffffffffffffffffffffffff1673ffffffffffffffffffffffffffffffffffffffff16815260200190815260200160002081905550610adf60025482611743565b600281905550610afd33610af283611757565b63ffffffff1661181a565b5050565b60006387a211a2600c52816000526020600c20549050919050565b60006338377508600c52816000526020600c20549050919050565b600060608060008060006060610b4b6118b1565b610b536118ec565b46306000801b600067ffffffffffffffff811115610b7457610b736127b1565b5b604051908082528060200260200182016040528015610ba25781602001602082028036833780820191505090505b507f0f00000000000000000000000000000000000000000000000000000000000000959493929190965096509650965096509650965090919293949596565b6000610bff8484610bfa85610bf590612ef5565b611624565b610e39565b90509392505050565b606060068054610c1790612e6c565b80601f0160208091040260200160405190810160405280929190818152602001828054610c4390612e6c565b8015610c905780601f10610c6557610100808354040283529160200191610c90565b820191906000526020600020905b815481529060010190602001808311610c7357829003601f168201915b5050505050905090565b8063ffffffff16610caa33610b01565b1015610ce2576040517ffda7bbda00000000000000000000000000000000000000000000000000000000815260040160405180910390fd5b610cf2338263ffffffff16611927565b6000610d038263ffffffff166116b6565b9050610d4e600360003373ffffffffffffffffffffffffffffffffffffffff1673ffffffffffffffffffffffffffffffffffffffff16815260200190815260200160002054826119be565b600360003373ffffffffffffffffffffffffffffffffffffffff1673ffffffffffffffffffffffffffffffffffffffff16815260200190815260200160002081905550610d9d600254826119be565b6002819055505050565b6000610db4338484611615565b6387a211a2600c52336000526020600c20805480841115610ddd5763f4d678b86000526004601cfd5b8381038255846000526020600c2084815401815584602052600c5160601c337fddf252ad1be2c89b69c2b068fc378daa952ba7f163c4a11628f55a4df523b3ef602080a3505050610e2f33848461161a565b6001905092915050565b600080610f0a83610f05600360008973ffffffffffffffffffffffffffffffffffffffff1673ffffffffffffffffffffffffffffffffffffffff16815260200190815260200160002054600460008a73ffffffffffffffffffffffffffffffffffffffff1673ffffffffffffffffffffffffffffffffffffffff16815260200190815260200160002060003373ffffffffffffffffffffffffffffffffffffffff1673ffffffffffffffffffffffffffffffffffffffff168152602001908152602001600020546116ca565b6116ca565b9050610f92600460008773ffffffffffffffffffffffffffffffffffffffff1673ffffffffffffffffffffffffffffffffffffffff16815260200190815260200160002060003373ffffffffffffffffffffffffffffffffffffffff1673ffffffffffffffffffffffffffffffffffffffff1681526020019081526020016000205482611743565b600460008773ffffffffffffffffffffffffffffffffffffffff1673ffffffffffffffffffffffffffffffffffffffff16815260200190815260200160002060003373ffffffffffffffffffffffffffffffffffffffff1673ffffffffffffffffffffffffffffffffffffffff1681526020019081526020016000208190555061105b600360008773ffffffffffffffffffffffffffffffffffffffff1673ffffffffffffffffffffffffffffffffffffffff1681526020019081526020016000205482611743565b600360008773ffffffffffffffffffffffffffffffffffffffff1673ffffffffffffffffffffffffffffffffffffffff168152602001908152602001600020819055506110e7600360008673ffffffffffffffffffffffffffffffffffffffff1673ffffffffffffffffffffffffffffffffffffffff16815260200190815260200160002054826119be565b600360008673ffffffffffffffffffffffffffffffffffffffff1673ffffffffffffffffffffffffffffffffffffffff168152602001908152602001600020819055508373ffffffffffffffffffffffffffffffffffffffff168573ffffffffffffffffffffffffffffffffffffffff167f7612539b010127d1a2f810eeff1131de23a28ecfa8228f92a9606a879300fbb560405160405180910390a3809150509392505050565b6000806111db83600360003373ffffffffffffffffffffffffffffffffffffffff1673ffffffffffffffffffffffffffffffffffffffff168152602001908152602001600020546116ca565b9050611226600360003373ffffffffffffffffffffffffffffffffffffffff1673ffffffffffffffffffffffffffffffffffffffff1681526020019081526020016000205482611743565b600360003373ffffffffffffffffffffffffffffffffffffffff1673ffffffffffffffffffffffffffffffffffffffff168152602001908152602001600020819055506112b2600360008673ffffffffffffffffffffffffffffffffffffffff1673ffffffffffffffffffffffffffffffffffffffff16815260200190815260200160002054826119be565b600360008673ffffffffffffffffffffffffffffffffffffffff1673ffffffffffffffffffffffffffffffffffffffff168152602001908152602001600020819055508373ffffffffffffffffffffffffffffffffffffffff163373ffffffffffffffffffffffffffffffffffffffff167f7612539b010127d1a2f810eeff1131de23a28ecfa8228f92a9606a879300fbb560405160405180910390a38091505092915050565b600061136361161f565b90506000801b8103611381576113776104c5565b8051906020012090505b8442111561139757631a15a3cc6000526004601cfd5b6040518860601b60601c98508760601b60601c975065383775081901600e52886000526020600c2080547f8b73c3c69bb8fe3d512ecc4cf759cc79239f7b179b0ffacaa9a75d522b39400f83528360208401527fc89efdaa54c0f20c7adf612882df0950f5a951637e0307cdcb4c672f298b8bc6604084015246606084015230608084015260a08320602e527f6e71edae12b1b97f4d1f60370fef10105fa2faae0126114a169c64845d6126c983528a60208401528960408401528860608401528060808401528760a084015260c08320604e526042602c206000528660ff1660205285604052846060526020806080600060015afa8b3d51146114a35763ddafbaef6000526004601cfd5b80820183558a637f5e9f2060a01b17604052896034602c20558a8c7f8c5be1e5ebec7d5bd14f71427d1e84f3dd0314c0f7b2291e5b200ac8c7c3b925602060608801a3836040526000606052505050505050505050505050565b60006115118261150c90612ef5565b611624565b600460003373ffffffffffffffffffffffffffffffffffffffff1673ffffffffffffffffffffffffffffffffffffffff16815260200190815260200160002060008573ffffffffffffffffffffffffffffffffffffffff1673ffffffffffffffffffffffffffffffffffffffff168152602001908152602001600020819055508273ffffffffffffffffffffffffffffffffffffffff163373ffffffffffffffffffffffffffffffffffffffff167f46f92913a39019d68e630493d23e0cf39761bf253f7b3f8eae384b33e393ed4e60405160405180910390a36001905092915050565b600081602052637f5e9f20600c52826000526034600c2054905092915050565b505050565b505050565b600090565b600061163382600001516119d2565b9050919050565b600061164d6116476119e6565b83611a9d565b9050919050565b6000806000806116648686611ade565b9250925092506116748282611b3a565b82935050505092915050565b606061168b83611c9e565b61169c5761169960006116b6565b92505b60008390506116ad60028285611cab565b91505092915050565b60006116c3826002611d61565b9050919050565b60006116d583611c9e565b6116e6576116e360006116b6565b92505b6116ef82611c9e565b611700576116fd60006116b6565b91505b60008390506000839050600061173560028484608073ffffffffffffffffffffffffffffffffffffffff16635211c679611e03565b905080935050505092915050565b600061174f8383611e97565b905092915050565b600061176282611c9e565b6117735761177060006116b6565b91505b6000829050600061178382611f10565b90506000608073ffffffffffffffffffffffffffffffffffffffff166373cc01546002846040518363ffffffff1660e01b81526004016117c4929190612f99565b602060405180830381865afa1580156117e1573d6000803e3d6000fd5b505050506040513d601f19601f820116820180604052508101906118059190612fde565b905061181081611f6d565b9350505050919050565b61182660008383611615565b6805345cdf77eb68f44c548181018181101561184a5763e5cfe9576000526004601cfd5b806805345cdf77eb68f44c556387a211a2600c52836000526020600c2083815401815583602052600c5160601c60007fddf252ad1be2c89b69c2b068fc378daa952ba7f163c4a11628f55a4df523b3ef602080a35050506118ad6000838361161a565b5050565b60606118e760007f0000000000000000000000000000000000000000000000000000000000000000611f7790919063ffffffff16565b905090565b606061192260017f0000000000000000000000000000000000000000000000000000000000000000611f7790919063ffffffff16565b905090565b61193382600083611615565b6387a211a2600c52816000526020600c2080548083111561195c5763f4d678b86000526004601cfd5b8281038255826805345cdf77eb68f44c54036805345cdf77eb68f44c558260005260008460601b60601c7fddf252ad1be2c89b69c2b068fc378daa952ba7f163c4a11628f55a4df523b3ef60206000a350506119ba8260008361161a565b5050565b60006119ca8383612027565b905092915050565b60006119df82600261209f565b9050919050565b60007f000000000000000000000000000000000000000000000000000000000000000073ffffffffffffffffffffffffffffffffffffffff163073ffffffffffffffffffffffffffffffffffffffff16148015611a6257507f000000000000000000000000000000000000000000000000000000000000000046145b15611a8f577f00000000000000000000000000000000000000000000000000000000000000009050611a9a565b611a97612139565b90505b90565b60006040517f190100000000000000000000000000000000000000000000000000000000000081528360028201528260228201526042812091505092915050565b60008060006041845103611b235760008060006020870151925060408701519150606087015160001a9050611b15888285856121cf565b955095509550505050611b33565b60006002855160001b9250925092505b9250925092565b60006003811115611b4e57611b4d61300b565b5b826003811115611b6157611b6061300b565b5b0315611c9a5760016003811115611b7b57611b7a61300b565b5b826003811115611b8e57611b8d61300b565b5b03611bc5576040517ff645eedf00000000000000000000000000000000000000000000000000000000815260040160405180910390fd5b60026003811115611bd957611bd861300b565b5b826003811115611bec57611beb61300b565b5b03611c31578060001c6040517ffce698f7000000000000000000000000000000000000000000000000000000008152600401611c289190612582565b60405180910390fd5b600380811115611c4457611c4361300b565b5b826003811115611c5757611c5661300b565b5b03611c9957806040517fd78bce0c000000000000000000000000000000000000000000000000000000008152600401611c909190612640565b60405180910390fd5b5b5050565b6000808214159050919050565b6060608073ffffffffffffffffffffffffffffffffffffffff1663a1848ff385611cd486611f10565b85604051602001611ce5919061305b565b6040516020818303038152906040526040518463ffffffff1660e01b8152600401611d1293929190613076565b600060405180830381865afa158015611d2f573d6000803e3d6000fd5b505050506040513d6000823e3d601f19601f82011682018060405250810190611d58919061315c565b90509392505050565b60006060608073ffffffffffffffffffffffffffffffffffffffff166319e1c5c4611d8b86611f10565b856040518363ffffffff1660e01b8152600401611da99291906131a5565b600060405180830381865afa158015611dc6573d6000803e3d6000fd5b505050506040513d6000823e3d601f19601f82011682018060405250810190611def9190613245565b9050611dfa816122c3565b91505092915050565b60006060838388611e1389611f10565b611e1c89611f10565b6040518463ffffffff1660e01b8152600401611e3a93929190613076565b600060405180830381865afa158015611e57573d6000803e3d6000fd5b505050506040513d6000823e3d601f19601f82011682018060405250810190611e809190613245565b9050611e8b816122d1565b91505095945050505050565b6000611ea283611c9e565b611eb357611eb060006116b6565b92505b611ebc82611c9e565b611ecd57611eca60006116b6565b91505b600083905060008390506000611f0260028484608073ffffffffffffffffffffffffffffffffffffffff1663cc2cbeff611e03565b905080935050505092915050565b6060602067ffffffffffffffff811115611f2d57611f2c6127b1565b5b6040519080825280601f01601f191660200182016040528015611f5f5781602001600182028036833780820191505090505b509050816020820152919050565b6000819050919050565b606060ff60001b8314611f9457611f8d836122df565b9050612021565b818054611fa090612e6c565b80601f0160208091040260200160405190810160405280929190818152602001828054611fcc90612e6c565b80156120195780601f10611fee57610100808354040283529160200191612019565b820191906000526020600020905b815481529060010190602001808311611ffc57829003601f168201915b505050505090505b92915050565b600061203283611c9e565b6120435761204060006116b6565b92505b61204c82611c9e565b61205d5761205a60006116b6565b91505b60008390506000839050600061209160028484608073ffffffffffffffffffffffffffffffffffffffff16622df619611e03565b905080935050505092915050565b60006060608073ffffffffffffffffffffffffffffffffffffffff16635fa55ca784866040518363ffffffff1660e01b81526004016120df929190612f99565b600060405180830381865afa1580156120fc573d6000803e3d6000fd5b505050506040513d6000823e3d601f19601f820116820180604052508101906121259190613245565b9050612130816122c3565b91505092915050565b60007f8b73c3c69bb8fe3d512ecc4cf759cc79239f7b179b0ffacaa9a75d522b39400f7f00000000000000000000000000000000000000000000000000000000000000007f000000000000000000000000000000000000000000000000000000000000000046306040516020016121b495949392919061328e565b60405160208183030381529060405280519060200120905090565b60008060007f7fffffffffffffffffffffffffffffff5d576e7357a4501ddfe92f46681b20a08460001c111561220f5760006003859250925092506122b9565b60006001888888886040516000815260200160405260405161223494939291906132e1565b6020604051602081039080840390855afa158015612256573d6000803e3d6000fd5b505050602060405103519050600073ffffffffffffffffffffffffffffffffffffffff168173ffffffffffffffffffffffffffffffffffffffff16036122aa57600060016000801b935093509350506122b9565b8060008060001b935093509350505b9450945094915050565b600060208201519050919050565b600060208201519050919050565b606060006122ec83612353565b90506000602067ffffffffffffffff81111561230b5761230a6127b1565b5b6040519080825280601f01601f19166020018201604052801561233d5781602001600182028036833780820191505090505b5090508181528360208201528092505050919050565b60008060ff8360001c169050601f81111561239a576040517fb3512b0c00000000000000000000000000000000000000000000000000000000815260040160405180910390fd5b80915050919050565b600081519050919050565b600082825260208201905092915050565b60005b838110156123dd5780820151818401526020810190506123c2565b60008484015250505050565b6000601f19601f8301169050919050565b6000612405826123a3565b61240f81856123ae565b935061241f8185602086016123bf565b612428816123e9565b840191505092915050565b6000602082019050818103600083015261244d81846123fa565b905092915050565b6000604051905090565b600080fd5b600080fd5b600073ffffffffffffffffffffffffffffffffffffffff82169050919050565b600061249482612469565b9050919050565b6124a481612489565b81146124af57600080fd5b50565b6000813590506124c18161249b565b92915050565b6000819050919050565b6124da816124c7565b81146124e557600080fd5b50565b6000813590506124f7816124d1565b92915050565b600080604083850312156125145761251361245f565b5b6000612522858286016124b2565b9250506020612533858286016124e8565b9150509250929050565b60008115159050919050565b6125528161253d565b82525050565b600060208201905061256d6000830184612549565b92915050565b61257c816124c7565b82525050565b60006020820190506125976000830184612573565b92915050565b6000806000606084860312156125b6576125b561245f565b5b60006125c4868287016124b2565b93505060206125d5868287016124b2565b92505060406125e6868287016124e8565b9150509250925092565b600060ff82169050919050565b612606816125f0565b82525050565b600060208201905061262160008301846125fd565b92915050565b6000819050919050565b61263a81612627565b82525050565b60006020820190506126556000830184612631565b92915050565b600080fd5b6000602082840312156126765761267561265b565b5b81905092915050565b600080604083850312156126965761269561245f565b5b60006126a4858286016124b2565b925050602083013567ffffffffffffffff8111156126c5576126c4612464565b5b6126d185828601612660565b9150509250929050565b6000819050919050565b60006127006126fb6126f6846124c7565b6126db565b6124c7565b9050919050565b612710816126e5565b82525050565b600060208201905061272b6000830184612707565b92915050565b6000604082840312156127475761274661265b565b5b81905092915050565b600080604083850312156127675761276661245f565b5b6000612775858286016124b2565b925050602083013567ffffffffffffffff81111561279657612795612464565b5b6127a285828601612731565b9150509250929050565b600080fd5b7f4e487b7100000000000000000000000000000000000000000000000000000000600052604160045260246000fd5b6127e9826123e9565b810181811067ffffffffffffffff82111715612808576128076127b1565b5b80604052505050565b600061281b612455565b905061282782826127e0565b919050565b600080fd5b61283a81612627565b811461284557600080fd5b50565b60008135905061285781612831565b92915050565b600080fd5b600080fd5b600067ffffffffffffffff821115612882576128816127b1565b5b61288b826123e9565b9050602081019050919050565b82818337600083830152505050565b60006128ba6128b584612867565b612811565b9050828152602081018484840111156128d6576128d5612862565b5b6128e1848285612898565b509392505050565b600082601f8301126128fe576128fd61285d565b5b813561290e8482602086016128a7565b91505092915050565b60006040828403121561292d5761292c6127ac565b5b6129376040612811565b9050600061294784828501612848565b600083015250602082013567ffffffffffffffff81111561296b5761296a61282c565b5b612977848285016128e9565b60208301525092915050565b6000806040838503121561299a5761299961245f565b5b60006129a8858286016124b2565b925050602083013567ffffffffffffffff8111156129c9576129c8612464565b5b6129d585828601612917565b9150509250929050565b600063ffffffff82169050919050565b6129f8816129df565b8114612a0357600080fd5b50565b600081359050612a15816129ef565b92915050565b600060208284031215612a3157612a3061245f565b5b6000612a3f84828501612a06565b91505092915050565b600060208284031215612a5e57612a5d61245f565b5b6000612a6c848285016124b2565b91505092915050565b60007fff0000000000000000000000000000000000000000000000000000000000000082169050919050565b612aaa81612a75565b82525050565b612ab981612489565b82525050565b600081519050919050565b600082825260208201905092915050565b6000819050602082019050919050565b612af4816124c7565b82525050565b6000612b068383612aeb565b60208301905092915050565b6000602082019050919050565b6000612b2a82612abf565b612b348185612aca565b9350612b3f83612adb565b8060005b83811015612b70578151612b578882612afa565b9750612b6283612b12565b925050600181019050612b43565b5085935050505092915050565b600060e082019050612b92600083018a612aa1565b8181036020830152612ba481896123fa565b90508181036040830152612bb881886123fa565b9050612bc76060830187612573565b612bd46080830186612ab0565b612be160a0830185612631565b81810360c0830152612bf38184612b1f565b905098975050505050505050565b600080600060608486031215612c1a57612c1961245f565b5b6000612c28868287016124b2565b9350506020612c39868287016124b2565b925050604084013567ffffffffffffffff811115612c5a57612c59612464565b5b612c6686828701612660565b9150509250925092565b612c79816124c7565b8114612c8457600080fd5b50565b600081359050612c9681612c70565b92915050565b600080600060608486031215612cb557612cb461245f565b5b6000612cc3868287016124b2565b9350506020612cd4868287016124b2565b9250506040612ce586828701612c87565b9150509250925092565b60008060408385031215612d0657612d0561245f565b5b6000612d14858286016124b2565b9250506020612d2585828601612c87565b9150509250929050565b612d38816125f0565b8114612d4357600080fd5b50565b600081359050612d5581612d2f565b92915050565b600080600080600080600060e0888a031215612d7a57612d7961245f565b5b6000612d888a828b016124b2565b9750506020612d998a828b016124b2565b9650506040612daa8a828b016124e8565b9550506060612dbb8a828b016124e8565b9450506080612dcc8a828b01612d46565b93505060a0612ddd8a828b01612848565b92505060c0612dee8a828b01612848565b91505092959891949750929550565b60008060408385031215612e1457612e1361245f565b5b6000612e22858286016124b2565b9250506020612e33858286016124b2565b9150509250929050565b7f4e487b7100000000000000000000000000000000000000000000000000000000600052602260045260246000fd5b60006002820490506001821680612e8457607f821691505b602082108103612e9757612e96612e3d565b5b50919050565b600060208284031215612eb357612eb26127ac565b5b612ebd6020612811565b9050600082013567ffffffffffffffff811115612edd57612edc61282c565b5b612ee9848285016128e9565b60008301525092915050565b6000612f013683612e9d565b9050919050565b6000612f143683612917565b9050919050565b6000604082019050612f306000830185612631565b612f3d6020830184612631565b9392505050565b600081519050919050565b600082825260208201905092915050565b6000612f6b82612f44565b612f758185612f4f565b9350612f858185602086016123bf565b612f8e816123e9565b840191505092915050565b6000604082019050612fae60008301856125fd565b8181036020830152612fc08184612f60565b90509392505050565b600081519050612fd8816124d1565b92915050565b600060208284031215612ff457612ff361245f565b5b600061300284828501612fc9565b91505092915050565b7f4e487b7100000000000000000000000000000000000000000000000000000000600052602160045260246000fd5b6000819050919050565b61305561305082612627565b61303a565b82525050565b60006130678284613044565b60208201915081905092915050565b600060608201905061308b60008301866125fd565b818103602083015261309d8185612f60565b905081810360408301526130b18184612f60565b9050949350505050565b600067ffffffffffffffff8211156130d6576130d56127b1565b5b6130df826123e9565b9050602081019050919050565b60006130ff6130fa846130bb565b612811565b90508281526020810184848401111561311b5761311a612862565b5b6131268482856123bf565b509392505050565b600082601f8301126131435761314261285d565b5b81516131538482602086016130ec565b91505092915050565b6000602082840312156131725761317161245f565b5b600082015167ffffffffffffffff8111156131905761318f612464565b5b61319c8482850161312e565b91505092915050565b600060408201905081810360008301526131bf8185612f60565b90506131ce60208301846125fd565b9392505050565b60006131e86131e384612867565b612811565b90508281526020810184848401111561320457613203612862565b5b61320f8482856123bf565b509392505050565b600082601f83011261322c5761322b61285d565b5b815161323c8482602086016131d5565b91505092915050565b60006020828403121561325b5761325a61245f565b5b600082015167ffffffffffffffff81111561327957613278612464565b5b61328584828501613217565b91505092915050565b600060a0820190506132a36000830188612631565b6132b06020830187612631565b6132bd6040830186612631565b6132ca6060830185612573565b6132d76080830184612ab0565b9695505050505050565b60006080820190506132f66000830187612631565b61330360208301866125fd565b6133106040830185612631565b61331d6060830184612631565b9594505050505056fea264697066735822122058197cac2b77cb9bd316ff9903122d58cec9c086f803140087396e89c46f21c964736f6c63430008180033",
  "devdoc": {
    "errors": {
      "AllowanceOverflow()": [
        {
          "details": "The allowance has overflowed."
        }
      ],
      "AllowanceUnderflow()": [
        {
          "details": "The allowance has underflowed."
        }
      ],
      "ECDSAInvalidSignature()": [
        {
          "details": "The signature derives the `address(0)`."
        }
      ],
      "ECDSAInvalidSignatureLength(uint256)": [
        {
          "details": "The signature has an invalid length."
        }
      ],
      "ECDSAInvalidSignatureS(bytes32)": [
        {
          "details": "The signature has an S value that is in the upper half order."
        }
      ],
      "InsufficientAllowance()": [
        {
          "details": "Insufficient allowance."
        }
      ],
      "InsufficientBalance()": [
        {
          "details": "Insufficient balance."
        }
      ],
      "InvalidPermit()": [
        {
          "details": "The permit is invalid."
        }
      ],
      "PermitExpired()": [
        {
          "details": "The permit has expired."
        }
      ],
      "TotalSupplyOverflow()": [
        {
          "details": "The total supply has overflowed."
        }
      ]
    },
    "events": {
      "Approval(address,address,uint256)": {
        "details": "Emitted when `amount` tokens is approved by `owner` to be used by `spender`."
      },
      "ApprovalEncrypted(address,address)": {
        "details": "Emitted when the allowance of a `spender` for an `owner` is set by a call to {approveEncrypted}. `value` is the new allowance."
      },
      "EIP712DomainChanged()": {
        "details": "MAY be emitted to signal that the domain could have changed."
      },
      "Transfer(address,address,uint256)": {
        "details": "Emitted when `amount` tokens is transferred from `from` to `to`."
      },
      "TransferEncrypted(address,address)": {
        "details": "Emitted when `value` tokens are moved from one account (`from`) to another (`to`). Note that `value` may be zero."
      }
    },
    "kind": "dev",
    "methods": {
      "DOMAIN_SEPARATOR()": {
        "details": "Returns the EIP-712 domain separator for the EIP-2612 permit."
      },
      "allowance(address,address)": {
        "details": "Returns the amount of tokens that `spender` can spend on behalf of `owner`."
      },
      "allowanceEncrypted(address,(bytes32,bytes))": {
        "details": "Returns the remaining number of tokens that `spender` will be allowed to spend on behalf of `owner` through {transferFrom}. This is zero by default. This value changes when {approve} or {transferFrom} are called."
      },
      "approve(address,uint256)": {
        "details": "Sets `amount` as the allowance of `spender` over the caller's tokens. Emits a {Approval} event."
      },
      "approveEncrypted(address,(bytes))": {
        "details": "Sets a `value` amount of tokens as the allowance of `spender` over the caller's tokens. Returns a boolean value indicating whether the operation succeeded. IMPORTANT: Beware that changing an allowance with this method brings the risk that someone may use both the old and the new allowance by unfortunate transaction ordering. One possible solution to mitigate this race condition is to first reduce the spender's allowance to 0 and set the desired value afterwards: https://github.com/ethereum/EIPs/issues/20#issuecomment-263524729 Emits an {ApprovalEncrypted} event."
      },
      "balanceOf(address)": {
        "details": "Returns the amount of tokens owned by `owner`."
      },
      "balanceOfEncrypted(address,(bytes32,bytes))": {
        "details": "Returns the value of tokens owned by `account`, sealed and encrypted for the caller."
      },
      "decimals()": {
        "details": "Returns the decimals places of the token."
      },
      "eip712Domain()": {
        "details": "See {IERC-5267}."
      },
      "name()": {
        "details": "Returns the name of the token."
      },
      "nonces(address)": {
        "details": "Returns the current nonce for `owner`. This value is used to compute the signature for EIP-2612 permit."
      },
      "permit(address,address,uint256,uint256,uint8,bytes32,bytes32)": {
        "details": "Sets `value` as the allowance of `spender` over the tokens of `owner`, authorized by a signed approval by `owner`. Emits a {Approval} event."
      },
      "symbol()": {
        "details": "Returns the symbol of the token."
      },
      "totalSupply()": {
        "details": "Returns the amount of tokens in existence."
      },
      "transfer(address,uint256)": {
        "details": "Transfer `amount` tokens from the caller to `to`. Requirements: - `from` must at least have `amount`. Emits a {Transfer} event."
      },
      "transferFrom(address,address,uint256)": {
        "details": "Transfers `amount` tokens from `from` to `to`. Note: Does not update the allowance if it is the maximum uint256 value. Requirements: - `from` must at least have `amount`. - The caller must have at least `amount` of allowance to transfer the tokens of `from`. Emits a {Transfer} event."
      },
      "transferFromEncrypted(address,address,(bytes))": {
        "details": "Moves a `value` amount of tokens from `from` to `to` using the allowance mechanism. `value` is then deducted from the caller's allowance. Returns a boolean value indicating whether the operation succeeded. Emits a {TransferEncrypted} event."
      }
    },
    "version": 1
  },
  "userdoc": {
    "errors": {
      "SignerNotMessageSender()": [
        {
          "notice": "Emitted when the signer is not the message sender"
        }
      ],
      "SignerNotOwner()": [
        {
          "notice": "Emitted when the signer is not the specified owner"
        }
      ]
    },
    "kind": "user",
    "methods": {},
    "version": 1
  },
  "storageLayout": {
    "storage": [
      {
        "astId": 16568,
        "contract": "contracts/tokens/FakeUSD.sol:FakeUSD",
        "label": "_nameFallback",
        "offset": 0,
        "slot": "0",
        "type": "t_string_storage"
      },
      {
        "astId": 16570,
        "contract": "contracts/tokens/FakeUSD.sol:FakeUSD",
        "label": "_versionFallback",
        "offset": 0,
        "slot": "1",
        "type": "t_string_storage"
      },
      {
        "astId": 18126,
        "contract": "contracts/tokens/FakeUSD.sol:FakeUSD",
        "label": "_encTotalSupply",
        "offset": 0,
        "slot": "2",
        "type": "t_userDefinedValueType(euint32)12"
      },
      {
        "astId": 18131,
        "contract": "contracts/tokens/FakeUSD.sol:FakeUSD",
        "label": "_encBalanceOf",
        "offset": 0,
        "slot": "3",
        "type": "t_mapping(t_address,t_userDefinedValueType(euint32)12)"
      },
      {
        "astId": 18138,
        "contract": "contracts/tokens/FakeUSD.sol:FakeUSD",
        "label": "_encAllowance",
        "offset": 0,
        "slot": "4",
        "type": "t_mapping(t_address,t_mapping(t_address,t_userDefinedValueType(euint32)12))"
      },
      {
        "astId": 18140,
        "contract": "contracts/tokens/FakeUSD.sol:FakeUSD",
        "label": "_name",
        "offset": 0,
        "slot": "5",
        "type": "t_string_storage"
      },
      {
        "astId": 18142,
        "contract": "contracts/tokens/FakeUSD.sol:FakeUSD",
        "label": "_symbol",
        "offset": 0,
        "slot": "6",
        "type": "t_string_storage"
      }
    ],
    "types": {
      "t_address": {
        "encoding": "inplace",
        "label": "address",
        "numberOfBytes": "20"
      },
      "t_mapping(t_address,t_mapping(t_address,t_userDefinedValueType(euint32)12))": {
        "encoding": "mapping",
        "key": "t_address",
        "label": "mapping(address => mapping(address => euint32))",
        "numberOfBytes": "32",
        "value": "t_mapping(t_address,t_userDefinedValueType(euint32)12)"
      },
      "t_mapping(t_address,t_userDefinedValueType(euint32)12)": {
        "encoding": "mapping",
        "key": "t_address",
        "label": "mapping(address => euint32)",
        "numberOfBytes": "32",
        "value": "t_userDefinedValueType(euint32)12"
      },
      "t_string_storage": {
        "encoding": "bytes",
        "label": "string",
        "numberOfBytes": "32"
      },
      "t_userDefinedValueType(euint32)12": {
        "encoding": "inplace",
        "label": "euint32",
        "numberOfBytes": "32"
      }
    }
  }
}