{
  "address": "0x1D6836C145b86D07A3C40d63E9b56f8f8098088e",
  "abi": [
    {
      "inputs": [
        {
          "components": [
            {
              "internalType": "bytes",
              "name": "data",
              "type": "bytes"
            }
          ],
          "internalType": "struct inEuint32",
          "name": "_initialSupply",
          "type": "tuple"
        }
      ],
      "stateMutability": "nonpayable",
      "type": "constructor"
    },
    {
      "inputs": [],
      "name": "AllowanceOverflow",
      "type": "error"
    },
    {
      "inputs": [],
      "name": "AllowanceUnderflow",
      "type": "error"
    },
    {
      "inputs": [],
      "name": "ECDSAInvalidSignature",
      "type": "error"
    },
    {
      "inputs": [
        {
          "internalType": "uint256",
          "name": "length",
          "type": "uint256"
        }
      ],
      "name": "ECDSAInvalidSignatureLength",
      "type": "error"
    },
    {
      "inputs": [
        {
          "internalType": "bytes32",
          "name": "s",
          "type": "bytes32"
        }
      ],
      "name": "ECDSAInvalidSignatureS",
      "type": "error"
    },
    {
      "inputs": [],
      "name": "ErrorInsufficientFunds",
      "type": "error"
    },
    {
      "inputs": [],
      "name": "InsufficientAllowance",
      "type": "error"
    },
    {
      "inputs": [],
      "name": "InsufficientBalance",
      "type": "error"
    },
    {
      "inputs": [],
      "name": "InvalidPermit",
      "type": "error"
    },
    {
      "inputs": [],
      "name": "InvalidShortString",
      "type": "error"
    },
    {
      "inputs": [],
      "name": "PermitExpired",
      "type": "error"
    },
    {
      "inputs": [],
      "name": "SignerNotMessageSender",
      "type": "error"
    },
    {
      "inputs": [],
      "name": "SignerNotOwner",
      "type": "error"
    },
    {
      "inputs": [
        {
          "internalType": "string",
          "name": "str",
          "type": "string"
        }
      ],
      "name": "StringTooLong",
      "type": "error"
    },
    {
      "inputs": [],
      "name": "TotalSupplyOverflow",
      "type": "error"
    },
    {
      "anonymous": false,
      "inputs": [
        {
          "indexed": true,
          "internalType": "address",
          "name": "owner",
          "type": "address"
        },
        {
          "indexed": true,
          "internalType": "address",
          "name": "spender",
          "type": "address"
        },
        {
          "indexed": false,
          "internalType": "uint256",
          "name": "amount",
          "type": "uint256"
        }
      ],
      "name": "Approval",
      "type": "event"
    },
    {
      "anonymous": false,
      "inputs": [
        {
          "indexed": true,
          "internalType": "address",
          "name": "owner",
          "type": "address"
        },
        {
          "indexed": true,
          "internalType": "address",
          "name": "spender",
          "type": "address"
        }
      ],
      "name": "ApprovalEncrypted",
      "type": "event"
    },
    {
      "anonymous": false,
      "inputs": [],
      "name": "EIP712DomainChanged",
      "type": "event"
    },
    {
      "anonymous": false,
      "inputs": [
        {
          "indexed": true,
          "internalType": "address",
          "name": "from",
          "type": "address"
        },
        {
          "indexed": true,
          "internalType": "address",
          "name": "to",
          "type": "address"
        },
        {
          "indexed": false,
          "internalType": "uint256",
          "name": "amount",
          "type": "uint256"
        }
      ],
      "name": "Transfer",
      "type": "event"
    },
    {
      "anonymous": false,
      "inputs": [
        {
          "indexed": true,
          "internalType": "address",
          "name": "from",
          "type": "address"
        },
        {
          "indexed": true,
          "internalType": "address",
          "name": "to",
          "type": "address"
        }
      ],
      "name": "TransferEncrypted",
      "type": "event"
    },
    {
      "inputs": [],
      "name": "DOMAIN_SEPARATOR",
      "outputs": [
        {
          "internalType": "bytes32",
          "name": "result",
          "type": "bytes32"
        }
      ],
      "stateMutability": "view",
      "type": "function"
    },
    {
      "inputs": [
        {
          "internalType": "address",
          "name": "owner",
          "type": "address"
        },
        {
          "internalType": "address",
          "name": "spender",
          "type": "address"
        }
      ],
      "name": "allowance",
      "outputs": [
        {
          "internalType": "uint256",
          "name": "result",
          "type": "uint256"
        }
      ],
      "stateMutability": "view",
      "type": "function"
    },
    {
      "inputs": [
        {
          "internalType": "address",
          "name": "spender",
          "type": "address"
        },
        {
          "components": [
            {
              "internalType": "bytes32",
              "name": "publicKey",
              "type": "bytes32"
            },
            {
              "internalType": "bytes",
              "name": "signature",
              "type": "bytes"
            }
          ],
          "internalType": "struct Permission",
          "name": "permission",
          "type": "tuple"
        }
      ],
      "name": "allowanceEncrypted",
      "outputs": [
        {
          "internalType": "string",
          "name": "",
          "type": "string"
        }
      ],
      "stateMutability": "view",
      "type": "function"
    },
    {
      "inputs": [
        {
          "internalType": "address",
          "name": "spender",
          "type": "address"
        },
        {
          "internalType": "uint256",
          "name": "amount",
          "type": "uint256"
        }
      ],
      "name": "approve",
      "outputs": [
        {
          "internalType": "bool",
          "name": "",
          "type": "bool"
        }
      ],
      "stateMutability": "nonpayable",
      "type": "function"
    },
    {
      "inputs": [
        {
          "internalType": "address",
          "name": "spender",
          "type": "address"
        },
        {
          "components": [
            {
              "internalType": "bytes",
              "name": "data",
              "type": "bytes"
            }
          ],
          "internalType": "struct inEuint32",
          "name": "value",
          "type": "tuple"
        }
      ],
      "name": "approveEncrypted",
      "outputs": [
        {
          "internalType": "bool",
          "name": "",
          "type": "bool"
        }
      ],
      "stateMutability": "nonpayable",
      "type": "function"
    },
    {
      "inputs": [
        {
          "internalType": "address",
          "name": "owner",
          "type": "address"
        }
      ],
      "name": "balanceOf",
      "outputs": [
        {
          "internalType": "uint256",
          "name": "result",
          "type": "uint256"
        }
      ],
      "stateMutability": "view",
      "type": "function"
    },
    {
      "inputs": [
        {
          "internalType": "address",
          "name": "account",
          "type": "address"
        },
        {
          "components": [
            {
              "internalType": "bytes32",
              "name": "publicKey",
              "type": "bytes32"
            },
            {
              "internalType": "bytes",
              "name": "signature",
              "type": "bytes"
            }
          ],
          "internalType": "struct Permission",
          "name": "auth",
          "type": "tuple"
        }
      ],
      "name": "balanceOfEncrypted",
      "outputs": [
        {
          "internalType": "string",
          "name": "",
          "type": "string"
        }
      ],
      "stateMutability": "view",
      "type": "function"
    },
    {
      "inputs": [],
      "name": "decimals",
      "outputs": [
        {
          "internalType": "uint8",
          "name": "",
          "type": "uint8"
        }
      ],
      "stateMutability": "pure",
      "type": "function"
    },
    {
      "inputs": [],
      "name": "eip712Domain",
      "outputs": [
        {
          "internalType": "bytes1",
          "name": "fields",
          "type": "bytes1"
        },
        {
          "internalType": "string",
          "name": "name",
          "type": "string"
        },
        {
          "internalType": "string",
          "name": "version",
          "type": "string"
        },
        {
          "internalType": "uint256",
          "name": "chainId",
          "type": "uint256"
        },
        {
          "internalType": "address",
          "name": "verifyingContract",
          "type": "address"
        },
        {
          "internalType": "bytes32",
          "name": "salt",
          "type": "bytes32"
        },
        {
          "internalType": "uint256[]",
          "name": "extensions",
          "type": "uint256[]"
        }
      ],
      "stateMutability": "view",
      "type": "function"
    },
    {
      "inputs": [],
      "name": "name",
      "outputs": [
        {
          "internalType": "string",
          "name": "",
          "type": "string"
        }
      ],
      "stateMutability": "view",
      "type": "function"
    },
    {
      "inputs": [
        {
          "internalType": "address",
          "name": "owner",
          "type": "address"
        }
      ],
      "name": "nonces",
      "outputs": [
        {
          "internalType": "uint256",
          "name": "result",
          "type": "uint256"
        }
      ],
      "stateMutability": "view",
      "type": "function"
    },
    {
      "inputs": [
        {
          "internalType": "address",
          "name": "owner",
          "type": "address"
        },
        {
          "internalType": "address",
          "name": "spender",
          "type": "address"
        },
        {
          "internalType": "uint256",
          "name": "value",
          "type": "uint256"
        },
        {
          "internalType": "uint256",
          "name": "deadline",
          "type": "uint256"
        },
        {
          "internalType": "uint8",
          "name": "v",
          "type": "uint8"
        },
        {
          "internalType": "bytes32",
          "name": "r",
          "type": "bytes32"
        },
        {
          "internalType": "bytes32",
          "name": "s",
          "type": "bytes32"
        }
      ],
      "name": "permit",
      "outputs": [],
      "stateMutability": "nonpayable",
      "type": "function"
    },
    {
      "inputs": [],
      "name": "symbol",
      "outputs": [
        {
          "internalType": "string",
          "name": "",
          "type": "string"
        }
      ],
      "stateMutability": "view",
      "type": "function"
    },
    {
      "inputs": [],
      "name": "totalSupply",
      "outputs": [
        {
          "internalType": "uint256",
          "name": "result",
          "type": "uint256"
        }
      ],
      "stateMutability": "view",
      "type": "function"
    },
    {
      "inputs": [
        {
          "internalType": "address",
          "name": "to",
          "type": "address"
        },
        {
          "internalType": "uint256",
          "name": "amount",
          "type": "uint256"
        }
      ],
      "name": "transfer",
      "outputs": [
        {
          "internalType": "bool",
          "name": "",
          "type": "bool"
        }
      ],
      "stateMutability": "nonpayable",
      "type": "function"
    },
    {
      "inputs": [
        {
          "internalType": "address",
          "name": "to",
          "type": "address"
        },
        {
          "components": [
            {
              "internalType": "bytes",
              "name": "data",
              "type": "bytes"
            }
          ],
          "internalType": "struct inEuint32",
          "name": "encryptedAmount",
          "type": "tuple"
        }
      ],
      "name": "transferEncrypted",
      "outputs": [
        {
          "internalType": "euint32",
          "name": "",
          "type": "uint256"
        }
      ],
      "stateMutability": "nonpayable",
      "type": "function"
    },
    {
      "inputs": [
        {
          "internalType": "address",
          "name": "to",
          "type": "address"
        },
        {
          "internalType": "euint32",
          "name": "amount",
          "type": "uint256"
        }
      ],
      "name": "transferEncrypted",
      "outputs": [
        {
          "internalType": "euint32",
          "name": "",
          "type": "uint256"
        }
      ],
      "stateMutability": "nonpayable",
      "type": "function"
    },
    {
      "inputs": [
        {
          "internalType": "address",
          "name": "from",
          "type": "address"
        },
        {
          "internalType": "address",
          "name": "to",
          "type": "address"
        },
        {
          "internalType": "uint256",
          "name": "amount",
          "type": "uint256"
        }
      ],
      "name": "transferFrom",
      "outputs": [
        {
          "internalType": "bool",
          "name": "",
          "type": "bool"
        }
      ],
      "stateMutability": "nonpayable",
      "type": "function"
    },
    {
      "inputs": [
        {
          "internalType": "address",
          "name": "from",
          "type": "address"
        },
        {
          "internalType": "address",
          "name": "to",
          "type": "address"
        },
        {
          "components": [
            {
              "internalType": "bytes",
              "name": "data",
              "type": "bytes"
            }
          ],
          "internalType": "struct inEuint32",
          "name": "value",
          "type": "tuple"
        }
      ],
      "name": "transferFromEncrypted",
      "outputs": [
        {
          "internalType": "euint32",
          "name": "",
          "type": "uint256"
        }
      ],
      "stateMutability": "nonpayable",
      "type": "function"
    },
    {
      "inputs": [
        {
          "internalType": "address",
          "name": "from",
          "type": "address"
        },
        {
          "internalType": "address",
          "name": "to",
          "type": "address"
        },
        {
          "internalType": "euint32",
          "name": "value",
          "type": "uint256"
        }
      ],
      "name": "transferFromEncrypted",
      "outputs": [
        {
          "internalType": "euint32",
          "name": "",
          "type": "uint256"
        }
      ],
      "stateMutability": "nonpayable",
      "type": "function"
    },
    {
      "inputs": [
        {
          "internalType": "uint32",
          "name": "amount",
          "type": "uint32"
        }
      ],
      "name": "unwrap",
      "outputs": [],
      "stateMutability": "nonpayable",
      "type": "function"
    },
    {
      "inputs": [
        {
          "internalType": "uint32",
          "name": "amount",
          "type": "uint32"
        }
      ],
      "name": "wrap",
      "outputs": [],
      "stateMutability": "nonpayable",
      "type": "function"
    }
  ],
  "transactionHash": "0x72dbcc0efa2793dc980fa33a59f8b30f19871c1bd7dce2fcf340a59f7e99a04c",
  "args": [
    {
      "data": {
        "0": 16,
        "1": 8,
        "2": 0,
        "3": 0,
        "4": 0,
        "5": 0,
        "6": 0,
        "7": 0,
        "8": 156,
        "9": 26,
        "10": 189,
        "11": 102,
        "12": 214,
        "13": 129,
        "14": 211,
        "15": 136,
        "16": 20,
        "17": 19,
        "18": 188,
        "19": 239,
        "20": 1,
        "21": 254,
        "22": 138,
        "23": 233,
        "24": 4,
        "25": 237,
        "26": 238,
        "27": 190,
        "28": 63,
        "29": 115,
        "30": 70,
        "31": 87,
        "32": 124,
        "33": 121,
        "34": 238,
        "35": 4,
        "36": 40,
        "37": 91,
        "38": 59,
        "39": 163,
        "40": 226,
        "41": 99,
        "42": 39,
        "43": 106,
        "44": 99,
        "45": 101,
        "46": 16,
        "47": 146,
        "48": 131,
        "49": 179,
        "50": 156,
        "51": 230,
        "52": 169,
        "53": 205,
        "54": 161,
        "55": 158,
        "56": 129,
        "57": 64,
        "58": 152,
        "59": 95,
        "60": 227,
        "61": 30,
        "62": 94,
        "63": 13,
        "64": 66,
        "65": 206,
        "66": 140,
        "67": 77,
        "68": 129,
        "69": 30,
        "70": 12,
        "71": 253,
        "72": 167,
        "73": 214,
        "74": 171,
        "75": 205,
        "76": 149,
        "77": 215,
        "78": 196,
        "79": 210,
        "80": 119,
        "81": 45,
        "82": 169,
        "83": 206,
        "84": 179,
        "85": 166,
        "86": 74,
        "87": 46,
        "88": 120,
        "89": 124,
        "90": 135,
        "91": 52,
        "92": 144,
        "93": 122,
        "94": 86,
        "95": 19,
        "96": 190,
        "97": 39,
        "98": 30,
        "99": 149,
        "100": 137,
        "101": 42,
        "102": 18,
        "103": 121,
        "104": 121,
        "105": 179,
        "106": 121,
        "107": 22,
        "108": 107,
        "109": 42,
        "110": 108,
        "111": 104,
        "112": 27,
        "113": 109,
        "114": 44,
        "115": 61,
        "116": 211,
        "117": 92,
        "118": 90,
        "119": 176,
        "120": 210,
        "121": 161,
        "122": 241,
        "123": 51,
        "124": 151,
        "125": 216,
        "126": 133,
        "127": 128,
        "128": 47,
        "129": 71,
        "130": 174,
        "131": 68,
        "132": 7,
        "133": 87,
        "134": 125,
        "135": 223,
        "136": 163,
        "137": 182,
        "138": 7,
        "139": 202,
        "140": 7,
        "141": 222,
        "142": 1,
        "143": 139,
        "144": 183,
        "145": 110,
        "146": 213,
        "147": 47,
        "148": 58,
        "149": 176,
        "150": 120,
        "151": 131,
        "152": 131,
        "153": 130,
        "154": 93,
        "155": 93,
        "156": 26,
        "157": 159,
        "158": 205,
        "159": 95,
        "160": 220,
        "161": 141,
        "162": 173,
        "163": 181,
        "164": 69,
        "165": 12,
        "166": 39,
        "167": 105,
        "168": 40,
        "169": 166,
        "170": 165,
        "171": 165,
        "172": 81,
        "173": 96,
        "174": 12,
        "175": 157,
        "176": 43,
        "177": 51,
        "178": 167,
        "179": 69,
        "180": 233,
        "181": 178,
        "182": 136,
        "183": 145,
        "184": 112,
        "185": 231,
        "186": 211,
        "187": 144,
        "188": 250,
        "189": 33,
        "190": 4,
        "191": 136,
        "192": 220,
        "193": 178,
        "194": 200,
        "195": 237,
        "196": 181,
        "197": 232,
        "198": 48,
        "199": 207,
        "200": 216,
        "201": 105,
        "202": 153,
        "203": 183,
        "204": 178,
        "205": 82,
        "206": 168,
        "207": 158,
        "208": 112,
        "209": 122,
        "210": 79,
        "211": 198,
        "212": 33,
        "213": 199,
        "214": 159,
        "215": 180,
        "216": 177,
        "217": 228,
        "218": 244,
        "219": 58,
        "220": 224,
        "221": 132,
        "222": 160,
        "223": 228,
        "224": 126,
        "225": 43,
        "226": 243,
        "227": 101,
        "228": 73,
        "229": 84,
        "230": 23,
        "231": 226,
        "232": 168,
        "233": 134,
        "234": 197,
        "235": 173,
        "236": 164,
        "237": 149,
        "238": 10,
        "239": 216,
        "240": 176,
        "241": 253,
        "242": 223,
        "243": 44,
        "244": 139,
        "245": 179,
        "246": 33,
        "247": 36,
        "248": 83,
        "249": 15,
        "250": 207,
        "251": 77,
        "252": 179,
        "253": 84,
        "254": 246,
        "255": 202,
        "256": 194,
        "257": 1,
        "258": 163,
        "259": 229,
        "260": 164,
        "261": 103,
        "262": 168,
        "263": 100,
        "264": 113,
        "265": 210,
        "266": 15,
        "267": 21,
        "268": 212,
        "269": 229,
        "270": 27,
        "271": 51,
        "272": 24,
        "273": 211,
        "274": 32,
        "275": 112,
        "276": 41,
        "277": 77,
        "278": 145,
        "279": 200,
        "280": 208,
        "281": 32,
        "282": 33,
        "283": 40,
        "284": 243,
        "285": 102,
        "286": 241,
        "287": 115,
        "288": 153,
        "289": 144,
        "290": 171,
        "291": 224,
        "292": 205,
        "293": 183,
        "294": 159,
        "295": 4,
        "296": 38,
        "297": 253,
        "298": 117,
        "299": 75,
        "300": 144,
        "301": 219,
        "302": 79,
        "303": 234,
        "304": 186,
        "305": 237,
        "306": 32,
        "307": 130,
        "308": 118,
        "309": 210,
        "310": 31,
        "311": 130,
        "312": 39,
        "313": 83,
        "314": 28,
        "315": 53,
        "316": 188,
        "317": 45,
        "318": 10,
        "319": 118,
        "320": 216,
        "321": 96,
        "322": 126,
        "323": 88,
        "324": 45,
        "325": 65,
        "326": 42,
        "327": 212,
        "328": 1,
        "329": 49,
        "330": 111,
        "331": 58,
        "332": 43,
        "333": 214,
        "334": 82,
        "335": 92,
        "336": 9,
        "337": 93,
        "338": 158,
        "339": 9,
        "340": 136,
        "341": 231,
        "342": 155,
        "343": 223,
        "344": 218,
        "345": 123,
        "346": 28,
        "347": 156,
        "348": 25,
        "349": 44,
        "350": 58,
        "351": 85,
        "352": 103,
        "353": 150,
        "354": 220,
        "355": 45,
        "356": 21,
        "357": 82,
        "358": 214,
        "359": 106,
        "360": 237,
        "361": 15,
        "362": 101,
        "363": 20,
        "364": 53,
        "365": 77,
        "366": 64,
        "367": 223,
        "368": 64,
        "369": 111,
        "370": 216,
        "371": 172,
        "372": 116,
        "373": 219,
        "374": 198,
        "375": 32,
        "376": 213,
        "377": 0,
        "378": 2,
        "379": 127,
        "380": 19,
        "381": 68,
        "382": 4,
        "383": 52,
        "384": 247,
        "385": 123,
        "386": 56,
        "387": 39,
        "388": 227,
        "389": 192,
        "390": 35,
        "391": 243,
        "392": 107,
        "393": 51,
        "394": 175,
        "395": 194,
        "396": 125,
        "397": 51,
        "398": 165,
        "399": 77,
        "400": 12,
        "401": 153,
        "402": 149,
        "403": 18,
        "404": 245,
        "405": 171,
        "406": 142,
        "407": 154,
        "408": 187,
        "409": 178,
        "410": 153,
        "411": 51,
        "412": 84,
        "413": 212,
        "414": 179,
        "415": 72,
        "416": 228,
        "417": 42,
        "418": 49,
        "419": 5,
        "420": 27,
        "421": 169,
        "422": 52,
        "423": 22,
        "424": 161,
        "425": 167,
        "426": 139,
        "427": 153,
        "428": 63,
        "429": 195,
        "430": 17,
        "431": 147,
        "432": 43,
        "433": 163,
        "434": 17,
        "435": 171,
        "436": 27,
        "437": 26,
        "438": 231,
        "439": 28,
        "440": 126,
        "441": 27,
        "442": 136,
        "443": 2,
        "444": 37,
        "445": 95,
        "446": 109,
        "447": 8,
        "448": 228,
        "449": 80,
        "450": 88,
        "451": 235,
        "452": 204,
        "453": 253,
        "454": 204,
        "455": 184,
        "456": 156,
        "457": 113,
        "458": 173,
        "459": 225,
        "460": 237,
        "461": 76,
        "462": 155,
        "463": 154,
        "464": 204,
        "465": 83,
        "466": 44,
        "467": 98,
        "468": 27,
        "469": 245,
        "470": 233,
        "471": 107,
        "472": 181,
        "473": 233,
        "474": 80,
        "475": 7,
        "476": 213,
        "477": 163,
        "478": 174,
        "479": 29,
        "480": 203,
        "481": 194,
        "482": 98,
        "483": 104,
        "484": 73,
        "485": 138,
        "486": 238,
        "487": 213,
        "488": 50,
        "489": 186,
        "490": 20,
        "491": 91,
        "492": 112,
        "493": 252,
        "494": 137,
        "495": 21,
        "496": 98,
        "497": 0,
        "498": 60,
        "499": 145,
        "500": 200,
        "501": 216,
        "502": 221,
        "503": 94,
        "504": 237,
        "505": 9,
        "506": 22,
        "507": 6,
        "508": 202,
        "509": 47,
        "510": 153,
        "511": 106,
        "512": 142,
        "513": 148,
        "514": 113,
        "515": 199,
        "516": 218,
        "517": 72,
        "518": 240,
        "519": 86,
        "520": 26,
        "521": 160,
        "522": 7,
        "523": 180,
        "524": 23,
        "525": 154,
        "526": 66,
        "527": 214,
        "528": 10,
        "529": 183,
        "530": 111,
        "531": 99,
        "532": 70,
        "533": 108,
        "534": 231,
        "535": 217,
        "536": 124,
        "537": 135,
        "538": 65,
        "539": 34,
        "540": 135,
        "541": 86,
        "542": 177,
        "543": 195,
        "544": 68,
        "545": 216,
        "546": 11,
        "547": 20,
        "548": 91,
        "549": 197,
        "550": 138,
        "551": 66,
        "552": 88,
        "553": 182,
        "554": 185,
        "555": 230,
        "556": 136,
        "557": 29,
        "558": 200,
        "559": 143,
        "560": 1,
        "561": 75,
        "562": 143,
        "563": 96,
        "564": 226,
        "565": 20,
        "566": 112,
        "567": 38,
        "568": 236,
        "569": 155,
        "570": 40,
        "571": 184,
        "572": 52,
        "573": 42,
        "574": 148,
        "575": 211,
        "576": 86,
        "577": 97,
        "578": 193,
        "579": 47,
        "580": 10,
        "581": 228,
        "582": 78,
        "583": 179,
        "584": 20,
        "585": 161,
        "586": 73,
        "587": 188,
        "588": 230,
        "589": 185,
        "590": 42,
        "591": 162,
        "592": 52,
        "593": 100,
        "594": 139,
        "595": 103,
        "596": 38,
        "597": 46,
        "598": 191,
        "599": 139,
        "600": 33,
        "601": 77,
        "602": 156,
        "603": 193,
        "604": 19,
        "605": 166,
        "606": 123,
        "607": 66,
        "608": 23,
        "609": 155,
        "610": 179,
        "611": 18,
        "612": 73,
        "613": 137,
        "614": 14,
        "615": 192,
        "616": 245,
        "617": 198,
        "618": 193,
        "619": 119,
        "620": 188,
        "621": 23,
        "622": 84,
        "623": 206,
        "624": 160,
        "625": 48,
        "626": 108,
        "627": 53,
        "628": 114,
        "629": 243,
        "630": 231,
        "631": 63,
        "632": 209,
        "633": 184,
        "634": 227,
        "635": 157,
        "636": 232,
        "637": 134,
        "638": 140,
        "639": 10,
        "640": 200,
        "641": 191,
        "642": 131,
        "643": 76,
        "644": 107,
        "645": 190,
        "646": 192,
        "647": 132,
        "648": 245,
        "649": 25,
        "650": 125,
        "651": 171,
        "652": 135,
        "653": 18,
        "654": 156,
        "655": 31,
        "656": 156,
        "657": 182,
        "658": 6,
        "659": 96,
        "660": 2,
        "661": 235,
        "662": 166,
        "663": 43,
        "664": 251,
        "665": 5,
        "666": 102,
        "667": 137,
        "668": 41,
        "669": 148,
        "670": 44,
        "671": 77,
        "672": 90,
        "673": 135,
        "674": 32,
        "675": 254,
        "676": 27,
        "677": 13,
        "678": 197,
        "679": 233,
        "680": 183,
        "681": 1,
        "682": 110,
        "683": 215,
        "684": 137,
        "685": 137,
        "686": 50,
        "687": 70,
        "688": 84,
        "689": 34,
        "690": 199,
        "691": 40,
        "692": 71,
        "693": 114,
        "694": 37,
        "695": 19,
        "696": 65,
        "697": 180,
        "698": 200,
        "699": 98,
        "700": 7,
        "701": 26,
        "702": 16,
        "703": 223,
        "704": 33,
        "705": 185,
        "706": 238,
        "707": 202,
        "708": 244,
        "709": 244,
        "710": 106,
        "711": 50,
        "712": 9,
        "713": 88,
        "714": 0,
        "715": 50,
        "716": 129,
        "717": 166,
        "718": 235,
        "719": 211,
        "720": 221,
        "721": 214,
        "722": 118,
        "723": 64,
        "724": 233,
        "725": 29,
        "726": 109,
        "727": 188,
        "728": 132,
        "729": 76,
        "730": 189,
        "731": 188,
        "732": 31,
        "733": 78,
        "734": 189,
        "735": 118,
        "736": 148,
        "737": 80,
        "738": 224,
        "739": 131,
        "740": 31,
        "741": 86,
        "742": 65,
        "743": 114,
        "744": 117,
        "745": 84,
        "746": 106,
        "747": 227,
        "748": 225,
        "749": 193,
        "750": 94,
        "751": 76,
        "752": 181,
        "753": 177,
        "754": 136,
        "755": 172,
        "756": 167,
        "757": 138,
        "758": 249,
        "759": 129,
        "760": 127,
        "761": 90,
        "762": 36,
        "763": 45,
        "764": 181,
        "765": 51,
        "766": 145,
        "767": 23,
        "768": 21,
        "769": 4,
        "770": 233,
        "771": 175,
        "772": 136,
        "773": 79,
        "774": 233,
        "775": 165,
        "776": 36,
        "777": 222,
        "778": 109,
        "779": 231,
        "780": 202,
        "781": 97,
        "782": 163,
        "783": 25,
        "784": 174,
        "785": 124,
        "786": 16,
        "787": 82,
        "788": 220,
        "789": 26,
        "790": 104,
        "791": 94,
        "792": 63,
        "793": 60,
        "794": 7,
        "795": 129,
        "796": 14,
        "797": 174,
        "798": 99,
        "799": 211,
        "800": 174,
        "801": 241,
        "802": 128,
        "803": 5,
        "804": 251,
        "805": 72,
        "806": 17,
        "807": 230,
        "808": 96,
        "809": 228,
        "810": 139,
        "811": 243,
        "812": 106,
        "813": 224,
        "814": 232,
        "815": 15,
        "816": 65,
        "817": 87,
        "818": 92,
        "819": 145,
        "820": 70,
        "821": 161,
        "822": 119,
        "823": 18,
        "824": 223,
        "825": 175,
        "826": 148,
        "827": 220,
        "828": 2,
        "829": 96,
        "830": 171,
        "831": 22,
        "832": 197,
        "833": 114,
        "834": 145,
        "835": 73,
        "836": 5,
        "837": 31,
        "838": 142,
        "839": 86,
        "840": 201,
        "841": 20,
        "842": 22,
        "843": 222,
        "844": 168,
        "845": 236,
        "846": 189,
        "847": 71,
        "848": 172,
        "849": 33,
        "850": 216,
        "851": 178,
        "852": 70,
        "853": 238,
        "854": 102,
        "855": 137,
        "856": 51,
        "857": 126,
        "858": 83,
        "859": 66,
        "860": 224,
        "861": 79,
        "862": 129,
        "863": 78,
        "864": 219,
        "865": 139,
        "866": 60,
        "867": 161,
        "868": 176,
        "869": 84,
        "870": 219,
        "871": 20,
        "872": 155,
        "873": 183,
        "874": 241,
        "875": 194,
        "876": 240,
        "877": 100,
        "878": 105,
        "879": 1,
        "880": 86,
        "881": 74,
        "882": 216,
        "883": 190,
        "884": 178,
        "885": 198,
        "886": 122,
        "887": 179,
        "888": 237,
        "889": 18,
        "890": 161,
        "891": 160,
        "892": 95,
        "893": 84,
        "894": 232,
        "895": 247,
        "896": 188,
        "897": 78,
        "898": 226,
        "899": 170,
        "900": 123,
        "901": 232,
        "902": 217,
        "903": 182,
        "904": 94,
        "905": 68,
        "906": 71,
        "907": 7,
        "908": 241,
        "909": 28,
        "910": 167,
        "911": 26,
        "912": 231,
        "913": 172,
        "914": 188,
        "915": 8,
        "916": 95,
        "917": 249,
        "918": 236,
        "919": 241,
        "920": 254,
        "921": 169,
        "922": 176,
        "923": 6,
        "924": 203,
        "925": 204,
        "926": 200,
        "927": 100,
        "928": 201,
        "929": 83,
        "930": 180,
        "931": 215,
        "932": 251,
        "933": 109,
        "934": 117,
        "935": 220,
        "936": 18,
        "937": 157,
        "938": 8,
        "939": 74,
        "940": 165,
        "941": 21,
        "942": 239,
        "943": 57,
        "944": 133,
        "945": 188,
        "946": 13,
        "947": 150,
        "948": 156,
        "949": 120,
        "950": 95,
        "951": 160,
        "952": 55,
        "953": 252,
        "954": 206,
        "955": 189,
        "956": 108,
        "957": 38,
        "958": 74,
        "959": 246,
        "960": 136,
        "961": 176,
        "962": 156,
        "963": 230,
        "964": 43,
        "965": 204,
        "966": 39,
        "967": 29,
        "968": 117,
        "969": 219,
        "970": 255,
        "971": 150,
        "972": 229,
        "973": 181,
        "974": 34,
        "975": 52,
        "976": 115,
        "977": 214,
        "978": 212,
        "979": 178,
        "980": 96,
        "981": 207,
        "982": 64,
        "983": 28,
        "984": 5,
        "985": 164,
        "986": 55,
        "987": 154,
        "988": 47,
        "989": 122,
        "990": 60,
        "991": 61,
        "992": 52,
        "993": 4,
        "994": 173,
        "995": 148,
        "996": 113,
        "997": 65,
        "998": 167,
        "999": 136,
        "1000": 194,
        "1001": 62,
        "1002": 159,
        "1003": 133,
        "1004": 82,
        "1005": 29,
        "1006": 100,
        "1007": 205,
        "1008": 56,
        "1009": 185,
        "1010": 217,
        "1011": 181,
        "1012": 2,
        "1013": 175,
        "1014": 120,
        "1015": 54,
        "1016": 121,
        "1017": 55,
        "1018": 52,
        "1019": 102,
        "1020": 30,
        "1021": 103,
        "1022": 233,
        "1023": 102,
        "1024": 245,
        "1025": 199,
        "1026": 198,
        "1027": 130,
        "1028": 215,
        "1029": 69,
        "1030": 135,
        "1031": 59,
        "1032": 114,
        "1033": 42,
        "1034": 80,
        "1035": 59,
        "1036": 128,
        "1037": 193,
        "1038": 255,
        "1039": 113,
        "1040": 193,
        "1041": 49,
        "1042": 244,
        "1043": 201,
        "1044": 153,
        "1045": 215,
        "1046": 176,
        "1047": 219,
        "1048": 155,
        "1049": 201,
        "1050": 7,
        "1051": 155,
        "1052": 159,
        "1053": 123,
        "1054": 116,
        "1055": 213,
        "1056": 177,
        "1057": 189,
        "1058": 51,
        "1059": 233,
        "1060": 60,
        "1061": 20,
        "1062": 238,
        "1063": 143,
        "1064": 141,
        "1065": 213,
        "1066": 26,
        "1067": 119,
        "1068": 79,
        "1069": 141,
        "1070": 83,
        "1071": 62,
        "1072": 47,
        "1073": 154,
        "1074": 69,
        "1075": 158,
        "1076": 182,
        "1077": 9,
        "1078": 79,
        "1079": 12,
        "1080": 162,
        "1081": 191,
        "1082": 34,
        "1083": 62,
        "1084": 206,
        "1085": 208,
        "1086": 158,
        "1087": 126,
        "1088": 123,
        "1089": 48,
        "1090": 84,
        "1091": 29,
        "1092": 223,
        "1093": 61,
        "1094": 3,
        "1095": 147,
        "1096": 175,
        "1097": 67,
        "1098": 225,
        "1099": 140,
        "1100": 110,
        "1101": 182,
        "1102": 161,
        "1103": 164,
        "1104": 121,
        "1105": 172,
        "1106": 189,
        "1107": 157,
        "1108": 4,
        "1109": 44,
        "1110": 170,
        "1111": 192,
        "1112": 168,
        "1113": 252,
        "1114": 102,
        "1115": 157,
        "1116": 143,
        "1117": 250,
        "1118": 206,
        "1119": 114,
        "1120": 177,
        "1121": 30,
        "1122": 196,
        "1123": 69,
        "1124": 223,
        "1125": 32,
        "1126": 53,
        "1127": 87,
        "1128": 97,
        "1129": 240,
        "1130": 25,
        "1131": 39,
        "1132": 168,
        "1133": 190,
        "1134": 151,
        "1135": 254,
        "1136": 179,
        "1137": 199,
        "1138": 114,
        "1139": 126,
        "1140": 85,
        "1141": 66,
        "1142": 89,
        "1143": 27,
        "1144": 1,
        "1145": 53,
        "1146": 232,
        "1147": 95,
        "1148": 86,
        "1149": 197,
        "1150": 44,
        "1151": 125,
        "1152": 18,
        "1153": 215,
        "1154": 127,
        "1155": 112,
        "1156": 241,
        "1157": 207,
        "1158": 250,
        "1159": 76,
        "1160": 46,
        "1161": 31,
        "1162": 10,
        "1163": 32,
        "1164": 206,
        "1165": 79,
        "1166": 196,
        "1167": 70,
        "1168": 90,
        "1169": 24,
        "1170": 122,
        "1171": 152,
        "1172": 190,
        "1173": 192,
        "1174": 17,
        "1175": 126,
        "1176": 232,
        "1177": 7,
        "1178": 180,
        "1179": 16,
        "1180": 242,
        "1181": 108,
        "1182": 131,
        "1183": 177,
        "1184": 236,
        "1185": 142,
        "1186": 119,
        "1187": 45,
        "1188": 58,
        "1189": 153,
        "1190": 191,
        "1191": 163,
        "1192": 25,
        "1193": 53,
        "1194": 193,
        "1195": 162,
        "1196": 69,
        "1197": 107,
        "1198": 114,
        "1199": 204,
        "1200": 176,
        "1201": 14,
        "1202": 129,
        "1203": 189,
        "1204": 192,
        "1205": 51,
        "1206": 19,
        "1207": 120,
        "1208": 246,
        "1209": 244,
        "1210": 83,
        "1211": 197,
        "1212": 204,
        "1213": 244,
        "1214": 66,
        "1215": 18,
        "1216": 252,
        "1217": 116,
        "1218": 181,
        "1219": 203,
        "1220": 97,
        "1221": 215,
        "1222": 209,
        "1223": 113,
        "1224": 96,
        "1225": 82,
        "1226": 204,
        "1227": 38,
        "1228": 7,
        "1229": 114,
        "1230": 192,
        "1231": 234,
        "1232": 36,
        "1233": 231,
        "1234": 75,
        "1235": 227,
        "1236": 192,
        "1237": 12,
        "1238": 225,
        "1239": 34,
        "1240": 55,
        "1241": 126,
        "1242": 202,
        "1243": 141,
        "1244": 30,
        "1245": 73,
        "1246": 197,
        "1247": 97,
        "1248": 174,
        "1249": 170,
        "1250": 92,
        "1251": 177,
        "1252": 213,
        "1253": 18,
        "1254": 71,
        "1255": 207,
        "1256": 186,
        "1257": 66,
        "1258": 249,
        "1259": 251,
        "1260": 224,
        "1261": 91,
        "1262": 236,
        "1263": 83,
        "1264": 248,
        "1265": 133,
        "1266": 247,
        "1267": 101,
        "1268": 179,
        "1269": 181,
        "1270": 253,
        "1271": 140,
        "1272": 168,
        "1273": 213,
        "1274": 207,
        "1275": 117,
        "1276": 194,
        "1277": 67,
        "1278": 68,
        "1279": 13,
        "1280": 111,
        "1281": 34,
        "1282": 78,
        "1283": 240,
        "1284": 164,
        "1285": 224,
        "1286": 13,
        "1287": 74,
        "1288": 153,
        "1289": 143,
        "1290": 123,
        "1291": 218,
        "1292": 90,
        "1293": 160,
        "1294": 31,
        "1295": 99,
        "1296": 21,
        "1297": 2,
        "1298": 243,
        "1299": 120,
        "1300": 92,
        "1301": 180,
        "1302": 225,
        "1303": 114,
        "1304": 136,
        "1305": 10,
        "1306": 54,
        "1307": 52,
        "1308": 249,
        "1309": 215,
        "1310": 40,
        "1311": 64,
        "1312": 4,
        "1313": 144,
        "1314": 133,
        "1315": 174,
        "1316": 135,
        "1317": 184,
        "1318": 23,
        "1319": 157,
        "1320": 254,
        "1321": 162,
        "1322": 197,
        "1323": 14,
        "1324": 32,
        "1325": 6,
        "1326": 123,
        "1327": 237,
        "1328": 232,
        "1329": 16,
        "1330": 108,
        "1331": 213,
        "1332": 248,
        "1333": 236,
        "1334": 67,
        "1335": 79,
        "1336": 242,
        "1337": 60,
        "1338": 23,
        "1339": 78,
        "1340": 148,
        "1341": 121,
        "1342": 143,
        "1343": 238,
        "1344": 182,
        "1345": 205,
        "1346": 124,
        "1347": 138,
        "1348": 231,
        "1349": 23,
        "1350": 211,
        "1351": 210,
        "1352": 15,
        "1353": 112,
        "1354": 113,
        "1355": 202,
        "1356": 22,
        "1357": 84,
        "1358": 240,
        "1359": 136,
        "1360": 73,
        "1361": 79,
        "1362": 138,
        "1363": 229,
        "1364": 14,
        "1365": 45,
        "1366": 81,
        "1367": 201,
        "1368": 228,
        "1369": 190,
        "1370": 193,
        "1371": 216,
        "1372": 102,
        "1373": 200,
        "1374": 238,
        "1375": 214,
        "1376": 155,
        "1377": 64,
        "1378": 253,
        "1379": 152,
        "1380": 115,
        "1381": 125,
        "1382": 19,
        "1383": 90,
        "1384": 223,
        "1385": 13,
        "1386": 243,
        "1387": 39,
        "1388": 195,
        "1389": 39,
        "1390": 22,
        "1391": 35,
        "1392": 223,
        "1393": 59,
        "1394": 77,
        "1395": 208,
        "1396": 71,
        "1397": 183,
        "1398": 38,
        "1399": 192,
        "1400": 203,
        "1401": 228,
        "1402": 188,
        "1403": 39,
        "1404": 117,
        "1405": 162,
        "1406": 197,
        "1407": 165,
        "1408": 72,
        "1409": 9,
        "1410": 185,
        "1411": 52,
        "1412": 14,
        "1413": 62,
        "1414": 154,
        "1415": 27,
        "1416": 217,
        "1417": 59,
        "1418": 163,
        "1419": 101,
        "1420": 25,
        "1421": 39,
        "1422": 154,
        "1423": 133,
        "1424": 149,
        "1425": 235,
        "1426": 107,
        "1427": 251,
        "1428": 81,
        "1429": 149,
        "1430": 54,
        "1431": 143,
        "1432": 137,
        "1433": 217,
        "1434": 202,
        "1435": 219,
        "1436": 224,
        "1437": 79,
        "1438": 41,
        "1439": 227,
        "1440": 101,
        "1441": 20,
        "1442": 94,
        "1443": 124,
        "1444": 171,
        "1445": 28,
        "1446": 177,
        "1447": 197,
        "1448": 253,
        "1449": 236,
        "1450": 138,
        "1451": 58,
        "1452": 166,
        "1453": 127,
        "1454": 7,
        "1455": 76,
        "1456": 38,
        "1457": 1,
        "1458": 232,
        "1459": 198,
        "1460": 253,
        "1461": 209,
        "1462": 61,
        "1463": 66,
        "1464": 71,
        "1465": 65,
        "1466": 162,
        "1467": 17,
        "1468": 191,
        "1469": 69,
        "1470": 234,
        "1471": 120,
        "1472": 105,
        "1473": 228,
        "1474": 245,
        "1475": 251,
        "1476": 215,
        "1477": 169,
        "1478": 172,
        "1479": 131,
        "1480": 206,
        "1481": 1,
        "1482": 165,
        "1483": 153,
        "1484": 80,
        "1485": 58,
        "1486": 232,
        "1487": 245,
        "1488": 33,
        "1489": 139,
        "1490": 113,
        "1491": 242,
        "1492": 18,
        "1493": 156,
        "1494": 97,
        "1495": 221,
        "1496": 138,
        "1497": 79,
        "1498": 106,
        "1499": 143,
        "1500": 109,
        "1501": 74,
        "1502": 28,
        "1503": 59,
        "1504": 33,
        "1505": 154,
        "1506": 204,
        "1507": 102,
        "1508": 233,
        "1509": 181,
        "1510": 146,
        "1511": 109,
        "1512": 47,
        "1513": 23,
        "1514": 54,
        "1515": 248,
        "1516": 191,
        "1517": 58,
        "1518": 236,
        "1519": 117,
        "1520": 113,
        "1521": 94,
        "1522": 167,
        "1523": 77,
        "1524": 189,
        "1525": 213,
        "1526": 42,
        "1527": 134,
        "1528": 222,
        "1529": 160,
        "1530": 19,
        "1531": 110,
        "1532": 238,
        "1533": 9,
        "1534": 48,
        "1535": 16,
        "1536": 53,
        "1537": 216,
        "1538": 123,
        "1539": 75,
        "1540": 101,
        "1541": 73,
        "1542": 165,
        "1543": 134,
        "1544": 67,
        "1545": 63,
        "1546": 232,
        "1547": 8,
        "1548": 109,
        "1549": 157,
        "1550": 170,
        "1551": 244,
        "1552": 30,
        "1553": 66,
        "1554": 146,
        "1555": 135,
        "1556": 17,
        "1557": 153,
        "1558": 115,
        "1559": 27,
        "1560": 182,
        "1561": 78,
        "1562": 193,
        "1563": 167,
        "1564": 184,
        "1565": 254,
        "1566": 9,
        "1567": 152,
        "1568": 59,
        "1569": 210,
        "1570": 105,
        "1571": 75,
        "1572": 93,
        "1573": 38,
        "1574": 190,
        "1575": 30,
        "1576": 255,
        "1577": 132,
        "1578": 8,
        "1579": 211,
        "1580": 43,
        "1581": 4,
        "1582": 198,
        "1583": 142,
        "1584": 192,
        "1585": 246,
        "1586": 114,
        "1587": 191,
        "1588": 36,
        "1589": 31,
        "1590": 123,
        "1591": 206,
        "1592": 224,
        "1593": 229,
        "1594": 177,
        "1595": 1,
        "1596": 78,
        "1597": 93,
        "1598": 192,
        "1599": 185,
        "1600": 141,
        "1601": 71,
        "1602": 125,
        "1603": 196,
        "1604": 159,
        "1605": 137,
        "1606": 74,
        "1607": 111,
        "1608": 237,
        "1609": 162,
        "1610": 85,
        "1611": 20,
        "1612": 204,
        "1613": 58,
        "1614": 63,
        "1615": 74,
        "1616": 6,
        "1617": 195,
        "1618": 52,
        "1619": 45,
        "1620": 161,
        "1621": 108,
        "1622": 65,
        "1623": 118,
        "1624": 101,
        "1625": 168,
        "1626": 121,
        "1627": 175,
        "1628": 156,
        "1629": 203,
        "1630": 40,
        "1631": 101,
        "1632": 255,
        "1633": 20,
        "1634": 3,
        "1635": 204,
        "1636": 146,
        "1637": 136,
        "1638": 189,
        "1639": 109,
        "1640": 194,
        "1641": 16,
        "1642": 136,
        "1643": 10,
        "1644": 56,
        "1645": 192,
        "1646": 85,
        "1647": 135,
        "1648": 181,
        "1649": 102,
        "1650": 157,
        "1651": 92,
        "1652": 86,
        "1653": 201,
        "1654": 141,
        "1655": 135,
        "1656": 56,
        "1657": 224,
        "1658": 240,
        "1659": 125,
        "1660": 166,
        "1661": 174,
        "1662": 75,
        "1663": 80,
        "1664": 242,
        "1665": 161,
        "1666": 189,
        "1667": 219,
        "1668": 98,
        "1669": 136,
        "1670": 204,
        "1671": 169,
        "1672": 171,
        "1673": 205,
        "1674": 182,
        "1675": 134,
        "1676": 39,
        "1677": 243,
        "1678": 248,
        "1679": 0,
        "1680": 220,
        "1681": 21,
        "1682": 182,
        "1683": 247,
        "1684": 186,
        "1685": 150,
        "1686": 144,
        "1687": 88,
        "1688": 220,
        "1689": 130,
        "1690": 147,
        "1691": 132,
        "1692": 227,
        "1693": 241,
        "1694": 212,
        "1695": 163,
        "1696": 115,
        "1697": 64,
        "1698": 173,
        "1699": 140,
        "1700": 121,
        "1701": 177,
        "1702": 79,
        "1703": 213,
        "1704": 54,
        "1705": 93,
        "1706": 64,
        "1707": 19,
        "1708": 28,
        "1709": 119,
        "1710": 115,
        "1711": 49,
        "1712": 230,
        "1713": 131,
        "1714": 89,
        "1715": 199,
        "1716": 113,
        "1717": 167,
        "1718": 151,
        "1719": 115,
        "1720": 60,
        "1721": 71,
        "1722": 146,
        "1723": 136,
        "1724": 67,
        "1725": 212,
        "1726": 51,
        "1727": 216,
        "1728": 20,
        "1729": 186,
        "1730": 61,
        "1731": 101,
        "1732": 137,
        "1733": 43,
        "1734": 178,
        "1735": 0,
        "1736": 91,
        "1737": 61,
        "1738": 38,
        "1739": 9,
        "1740": 12,
        "1741": 57,
        "1742": 180,
        "1743": 57,
        "1744": 35,
        "1745": 95,
        "1746": 142,
        "1747": 57,
        "1748": 82,
        "1749": 191,
        "1750": 185,
        "1751": 100,
        "1752": 219,
        "1753": 58,
        "1754": 114,
        "1755": 105,
        "1756": 1,
        "1757": 48,
        "1758": 77,
        "1759": 75,
        "1760": 71,
        "1761": 74,
        "1762": 156,
        "1763": 125,
        "1764": 30,
        "1765": 130,
        "1766": 114,
        "1767": 122,
        "1768": 53,
        "1769": 82,
        "1770": 42,
        "1771": 139,
        "1772": 56,
        "1773": 100,
        "1774": 132,
        "1775": 201,
        "1776": 245,
        "1777": 250,
        "1778": 25,
        "1779": 108,
        "1780": 159,
        "1781": 226,
        "1782": 65,
        "1783": 79,
        "1784": 207,
        "1785": 52,
        "1786": 39,
        "1787": 192,
        "1788": 105,
        "1789": 27,
        "1790": 221,
        "1791": 94,
        "1792": 218,
        "1793": 134,
        "1794": 84,
        "1795": 218,
        "1796": 112,
        "1797": 11,
        "1798": 59,
        "1799": 210,
        "1800": 60,
        "1801": 20,
        "1802": 221,
        "1803": 189,
        "1804": 15,
        "1805": 41,
        "1806": 213,
        "1807": 113,
        "1808": 107,
        "1809": 123,
        "1810": 130,
        "1811": 28,
        "1812": 125,
        "1813": 138,
        "1814": 80,
        "1815": 127,
        "1816": 71,
        "1817": 116,
        "1818": 245,
        "1819": 66,
        "1820": 237,
        "1821": 41,
        "1822": 253,
        "1823": 4,
        "1824": 26,
        "1825": 158,
        "1826": 96,
        "1827": 24,
        "1828": 153,
        "1829": 214,
        "1830": 222,
        "1831": 64,
        "1832": 63,
        "1833": 85,
        "1834": 48,
        "1835": 234,
        "1836": 93,
        "1837": 8,
        "1838": 235,
        "1839": 208,
        "1840": 140,
        "1841": 170,
        "1842": 179,
        "1843": 177,
        "1844": 149,
        "1845": 255,
        "1846": 51,
        "1847": 102,
        "1848": 107,
        "1849": 133,
        "1850": 176,
        "1851": 22,
        "1852": 109,
        "1853": 161,
        "1854": 228,
        "1855": 9,
        "1856": 207,
        "1857": 219,
        "1858": 81,
        "1859": 57,
        "1860": 215,
        "1861": 35,
        "1862": 233,
        "1863": 232,
        "1864": 222,
        "1865": 12,
        "1866": 167,
        "1867": 99,
        "1868": 254,
        "1869": 185,
        "1870": 107,
        "1871": 189,
        "1872": 227,
        "1873": 66,
        "1874": 132,
        "1875": 96,
        "1876": 81,
        "1877": 116,
        "1878": 84,
        "1879": 111,
        "1880": 0,
        "1881": 183,
        "1882": 190,
        "1883": 59,
        "1884": 164,
        "1885": 236,
        "1886": 52,
        "1887": 58,
        "1888": 208,
        "1889": 167,
        "1890": 122,
        "1891": 152,
        "1892": 34,
        "1893": 75,
        "1894": 30,
        "1895": 16,
        "1896": 126,
        "1897": 160,
        "1898": 191,
        "1899": 241,
        "1900": 16,
        "1901": 144,
        "1902": 4,
        "1903": 131,
        "1904": 103,
        "1905": 232,
        "1906": 241,
        "1907": 16,
        "1908": 9,
        "1909": 158,
        "1910": 119,
        "1911": 133,
        "1912": 244,
        "1913": 127,
        "1914": 50,
        "1915": 89,
        "1916": 20,
        "1917": 88,
        "1918": 202,
        "1919": 5,
        "1920": 211,
        "1921": 150,
        "1922": 0,
        "1923": 184,
        "1924": 176,
        "1925": 189,
        "1926": 238,
        "1927": 13,
        "1928": 254,
        "1929": 60,
        "1930": 135,
        "1931": 121,
        "1932": 28,
        "1933": 156,
        "1934": 163,
        "1935": 192,
        "1936": 17,
        "1937": 81,
        "1938": 189,
        "1939": 227,
        "1940": 123,
        "1941": 186,
        "1942": 208,
        "1943": 135,
        "1944": 33,
        "1945": 22,
        "1946": 9,
        "1947": 22,
        "1948": 242,
        "1949": 2,
        "1950": 107,
        "1951": 184,
        "1952": 255,
        "1953": 206,
        "1954": 33,
        "1955": 196,
        "1956": 78,
        "1957": 123,
        "1958": 185,
        "1959": 28,
        "1960": 27,
        "1961": 216,
        "1962": 230,
        "1963": 214,
        "1964": 228,
        "1965": 154,
        "1966": 214,
        "1967": 32,
        "1968": 177,
        "1969": 106,
        "1970": 19,
        "1971": 198,
        "1972": 146,
        "1973": 210,
        "1974": 151,
        "1975": 173,
        "1976": 132,
        "1977": 132,
        "1978": 212,
        "1979": 16,
        "1980": 85,
        "1981": 194,
        "1982": 111,
        "1983": 159,
        "1984": 17,
        "1985": 100,
        "1986": 21,
        "1987": 74,
        "1988": 147,
        "1989": 102,
        "1990": 152,
        "1991": 41,
        "1992": 2,
        "1993": 147,
        "1994": 32,
        "1995": 214,
        "1996": 117,
        "1997": 162,
        "1998": 131,
        "1999": 215,
        "2000": 114,
        "2001": 245,
        "2002": 149,
        "2003": 122,
        "2004": 219,
        "2005": 190,
        "2006": 234,
        "2007": 212,
        "2008": 44,
        "2009": 15,
        "2010": 199,
        "2011": 63,
        "2012": 202,
        "2013": 38,
        "2014": 57,
        "2015": 148,
        "2016": 113,
        "2017": 69,
        "2018": 193,
        "2019": 253,
        "2020": 9,
        "2021": 145,
        "2022": 241,
        "2023": 30,
        "2024": 71,
        "2025": 250,
        "2026": 52,
        "2027": 177,
        "2028": 150,
        "2029": 236,
        "2030": 97,
        "2031": 213,
        "2032": 84,
        "2033": 148,
        "2034": 254,
        "2035": 211,
        "2036": 211,
        "2037": 112,
        "2038": 110,
        "2039": 217,
        "2040": 28,
        "2041": 193,
        "2042": 186,
        "2043": 149,
        "2044": 182,
        "2045": 108,
        "2046": 9,
        "2047": 119,
        "2048": 238,
        "2049": 211,
        "2050": 119,
        "2051": 77,
        "2052": 115,
        "2053": 194,
        "2054": 85,
        "2055": 31,
        "2056": 127,
        "2057": 30,
        "2058": 251,
        "2059": 198,
        "2060": 41,
        "2061": 233,
        "2062": 88,
        "2063": 47,
        "2064": 169,
        "2065": 161,
        "2066": 233,
        "2067": 168,
        "2068": 225,
        "2069": 237,
        "2070": 10,
        "2071": 242,
        "2072": 78,
        "2073": 205,
        "2074": 206,
        "2075": 213,
        "2076": 138,
        "2077": 51,
        "2078": 101,
        "2079": 238,
        "2080": 199,
        "2081": 96,
        "2082": 204,
        "2083": 108,
        "2084": 20,
        "2085": 232,
        "2086": 184,
        "2087": 103,
        "2088": 157,
        "2089": 66,
        "2090": 187,
        "2091": 226,
        "2092": 99,
        "2093": 176,
        "2094": 140,
        "2095": 140,
        "2096": 46,
        "2097": 242,
        "2098": 176,
        "2099": 230,
        "2100": 142,
        "2101": 64,
        "2102": 132,
        "2103": 14,
        "2104": 156,
        "2105": 40,
        "2106": 15,
        "2107": 139,
        "2108": 64,
        "2109": 155,
        "2110": 161,
        "2111": 236,
        "2112": 0,
        "2113": 8,
        "2114": 85,
        "2115": 0,
        "2116": 148,
        "2117": 66,
        "2118": 129,
        "2119": 36,
        "2120": 10,
        "2121": 87,
        "2122": 104,
        "2123": 43,
        "2124": 2,
        "2125": 119,
        "2126": 205,
        "2127": 197,
        "2128": 92,
        "2129": 192,
        "2130": 208,
        "2131": 117,
        "2132": 48,
        "2133": 115,
        "2134": 119,
        "2135": 38,
        "2136": 203,
        "2137": 237,
        "2138": 73,
        "2139": 208,
        "2140": 82,
        "2141": 219,
        "2142": 195,
        "2143": 77,
        "2144": 198,
        "2145": 2,
        "2146": 21,
        "2147": 154,
        "2148": 78,
        "2149": 101,
        "2150": 43,
        "2151": 144,
        "2152": 126,
        "2153": 87,
        "2154": 203,
        "2155": 109,
        "2156": 36,
        "2157": 250,
        "2158": 152,
        "2159": 58,
        "2160": 67,
        "2161": 2,
        "2162": 52,
        "2163": 77,
        "2164": 56,
        "2165": 39,
        "2166": 131,
        "2167": 62,
        "2168": 67,
        "2169": 241,
        "2170": 26,
        "2171": 142,
        "2172": 94,
        "2173": 38,
        "2174": 131,
        "2175": 20,
        "2176": 118,
        "2177": 44,
        "2178": 67,
        "2179": 43,
        "2180": 89,
        "2181": 20,
        "2182": 2,
        "2183": 245,
        "2184": 163,
        "2185": 55,
        "2186": 134,
        "2187": 43,
        "2188": 18,
        "2189": 19,
        "2190": 237,
        "2191": 10,
        "2192": 181,
        "2193": 113,
        "2194": 34,
        "2195": 75,
        "2196": 194,
        "2197": 20,
        "2198": 87,
        "2199": 2,
        "2200": 49,
        "2201": 190,
        "2202": 112,
        "2203": 67,
        "2204": 38,
        "2205": 0,
        "2206": 42,
        "2207": 220,
        "2208": 240,
        "2209": 35,
        "2210": 87,
        "2211": 42,
        "2212": 193,
        "2213": 123,
        "2214": 158,
        "2215": 105,
        "2216": 168,
        "2217": 84,
        "2218": 202,
        "2219": 218,
        "2220": 177,
        "2221": 127,
        "2222": 235,
        "2223": 137,
        "2224": 80,
        "2225": 173,
        "2226": 150,
        "2227": 223,
        "2228": 91,
        "2229": 124,
        "2230": 66,
        "2231": 169,
        "2232": 85,
        "2233": 121,
        "2234": 92,
        "2235": 114,
        "2236": 138,
        "2237": 252,
        "2238": 92,
        "2239": 8,
        "2240": 46,
        "2241": 233,
        "2242": 14,
        "2243": 50,
        "2244": 114,
        "2245": 79,
        "2246": 52,
        "2247": 249,
        "2248": 114,
        "2249": 136,
        "2250": 185,
        "2251": 222,
        "2252": 40,
        "2253": 127,
        "2254": 234,
        "2255": 125,
        "2256": 84,
        "2257": 128,
        "2258": 104,
        "2259": 163,
        "2260": 106,
        "2261": 101,
        "2262": 238,
        "2263": 30,
        "2264": 119,
        "2265": 75,
        "2266": 43,
        "2267": 145,
        "2268": 116,
        "2269": 131,
        "2270": 241,
        "2271": 125,
        "2272": 97,
        "2273": 188,
        "2274": 128,
        "2275": 69,
        "2276": 178,
        "2277": 3,
        "2278": 194,
        "2279": 249,
        "2280": 210,
        "2281": 136,
        "2282": 16,
        "2283": 193,
        "2284": 142,
        "2285": 192,
        "2286": 186,
        "2287": 55,
        "2288": 2,
        "2289": 134,
        "2290": 158,
        "2291": 161,
        "2292": 133,
        "2293": 73,
        "2294": 168,
        "2295": 246,
        "2296": 163,
        "2297": 247,
        "2298": 204,
        "2299": 223,
        "2300": 135,
        "2301": 55,
        "2302": 55,
        "2303": 222,
        "2304": 204,
        "2305": 20,
        "2306": 37,
        "2307": 175,
        "2308": 152,
        "2309": 232,
        "2310": 131,
        "2311": 41,
        "2312": 174,
        "2313": 132,
        "2314": 26,
        "2315": 149,
        "2316": 210,
        "2317": 55,
        "2318": 9,
        "2319": 12,
        "2320": 149,
        "2321": 84,
        "2322": 155,
        "2323": 61,
        "2324": 10,
        "2325": 230,
        "2326": 144,
        "2327": 16,
        "2328": 124,
        "2329": 91,
        "2330": 51,
        "2331": 91,
        "2332": 25,
        "2333": 252,
        "2334": 111,
        "2335": 89,
        "2336": 25,
        "2337": 191,
        "2338": 77,
        "2339": 112,
        "2340": 178,
        "2341": 1,
        "2342": 75,
        "2343": 69,
        "2344": 25,
        "2345": 133,
        "2346": 254,
        "2347": 88,
        "2348": 188,
        "2349": 115,
        "2350": 149,
        "2351": 171,
        "2352": 221,
        "2353": 252,
        "2354": 52,
        "2355": 198,
        "2356": 211,
        "2357": 51,
        "2358": 150,
        "2359": 162,
        "2360": 187,
        "2361": 87,
        "2362": 158,
        "2363": 83,
        "2364": 78,
        "2365": 88,
        "2366": 0,
        "2367": 172,
        "2368": 219,
        "2369": 217,
        "2370": 95,
        "2371": 210,
        "2372": 112,
        "2373": 29,
        "2374": 23,
        "2375": 161,
        "2376": 50,
        "2377": 220,
        "2378": 126,
        "2379": 1,
        "2380": 242,
        "2381": 89,
        "2382": 228,
        "2383": 116,
        "2384": 63,
        "2385": 113,
        "2386": 9,
        "2387": 192,
        "2388": 243,
        "2389": 124,
        "2390": 228,
        "2391": 79,
        "2392": 207,
        "2393": 54,
        "2394": 215,
        "2395": 24,
        "2396": 164,
        "2397": 2,
        "2398": 180,
        "2399": 121,
        "2400": 247,
        "2401": 229,
        "2402": 176,
        "2403": 95,
        "2404": 175,
        "2405": 175,
        "2406": 194,
        "2407": 155,
        "2408": 197,
        "2409": 88,
        "2410": 14,
        "2411": 81,
        "2412": 80,
        "2413": 201,
        "2414": 238,
        "2415": 167,
        "2416": 106,
        "2417": 152,
        "2418": 38,
        "2419": 81,
        "2420": 107,
        "2421": 119,
        "2422": 9,
        "2423": 155,
        "2424": 93,
        "2425": 231,
        "2426": 127,
        "2427": 215,
        "2428": 165,
        "2429": 233,
        "2430": 60,
        "2431": 44,
        "2432": 89,
        "2433": 199,
        "2434": 201,
        "2435": 177,
        "2436": 8,
        "2437": 89,
        "2438": 17,
        "2439": 191,
        "2440": 132,
        "2441": 67,
        "2442": 65,
        "2443": 253,
        "2444": 190,
        "2445": 98,
        "2446": 176,
        "2447": 27,
        "2448": 155,
        "2449": 24,
        "2450": 160,
        "2451": 69,
        "2452": 162,
        "2453": 90,
        "2454": 239,
        "2455": 161,
        "2456": 37,
        "2457": 129,
        "2458": 3,
        "2459": 103,
        "2460": 190,
        "2461": 148,
        "2462": 147,
        "2463": 204,
        "2464": 9,
        "2465": 173,
        "2466": 133,
        "2467": 50,
        "2468": 61,
        "2469": 197,
        "2470": 83,
        "2471": 133,
        "2472": 242,
        "2473": 115,
        "2474": 206,
        "2475": 166,
        "2476": 3,
        "2477": 5,
        "2478": 12,
        "2479": 103,
        "2480": 22,
        "2481": 108,
        "2482": 110,
        "2483": 41,
        "2484": 89,
        "2485": 133,
        "2486": 0,
        "2487": 126,
        "2488": 54,
        "2489": 202,
        "2490": 224,
        "2491": 236,
        "2492": 28,
        "2493": 110,
        "2494": 244,
        "2495": 232,
        "2496": 187,
        "2497": 19,
        "2498": 77,
        "2499": 171,
        "2500": 207,
        "2501": 103,
        "2502": 1,
        "2503": 158,
        "2504": 4,
        "2505": 221,
        "2506": 165,
        "2507": 10,
        "2508": 230,
        "2509": 58,
        "2510": 156,
        "2511": 29,
        "2512": 133,
        "2513": 254,
        "2514": 81,
        "2515": 207,
        "2516": 145,
        "2517": 61,
        "2518": 20,
        "2519": 72,
        "2520": 7,
        "2521": 115,
        "2522": 64,
        "2523": 59,
        "2524": 242,
        "2525": 250,
        "2526": 68,
        "2527": 7,
        "2528": 84,
        "2529": 102,
        "2530": 126,
        "2531": 230,
        "2532": 250,
        "2533": 213,
        "2534": 119,
        "2535": 192,
        "2536": 208,
        "2537": 216,
        "2538": 87,
        "2539": 135,
        "2540": 251,
        "2541": 121,
        "2542": 157,
        "2543": 183,
        "2544": 69,
        "2545": 121,
        "2546": 141,
        "2547": 157,
        "2548": 164,
        "2549": 233,
        "2550": 169,
        "2551": 151,
        "2552": 147,
        "2553": 76,
        "2554": 154,
        "2555": 116,
        "2556": 6,
        "2557": 44,
        "2558": 86,
        "2559": 207,
        "2560": 216,
        "2561": 109,
        "2562": 73,
        "2563": 74,
        "2564": 120,
        "2565": 182,
        "2566": 11,
        "2567": 109,
        "2568": 185,
        "2569": 68,
        "2570": 244,
        "2571": 5,
        "2572": 190,
        "2573": 171,
        "2574": 87,
        "2575": 67,
        "2576": 58,
        "2577": 238,
        "2578": 208,
        "2579": 34,
        "2580": 60,
        "2581": 53,
        "2582": 90,
        "2583": 40,
        "2584": 192,
        "2585": 229,
        "2586": 35,
        "2587": 248,
        "2588": 193,
        "2589": 229,
        "2590": 11,
        "2591": 42,
        "2592": 207,
        "2593": 214,
        "2594": 127,
        "2595": 144,
        "2596": 210,
        "2597": 216,
        "2598": 67,
        "2599": 2,
        "2600": 46,
        "2601": 49,
        "2602": 238,
        "2603": 141,
        "2604": 26,
        "2605": 41,
        "2606": 249,
        "2607": 7,
        "2608": 207,
        "2609": 255,
        "2610": 220,
        "2611": 121,
        "2612": 218,
        "2613": 191,
        "2614": 112,
        "2615": 24,
        "2616": 81,
        "2617": 222,
        "2618": 66,
        "2619": 11,
        "2620": 96,
        "2621": 80,
        "2622": 151,
        "2623": 246,
        "2624": 180,
        "2625": 110,
        "2626": 73,
        "2627": 118,
        "2628": 249,
        "2629": 131,
        "2630": 223,
        "2631": 19,
        "2632": 0,
        "2633": 67,
        "2634": 117,
        "2635": 83,
        "2636": 190,
        "2637": 138,
        "2638": 113,
        "2639": 110,
        "2640": 220,
        "2641": 94,
        "2642": 142,
        "2643": 232,
        "2644": 36,
        "2645": 51,
        "2646": 131,
        "2647": 233,
        "2648": 199,
        "2649": 232,
        "2650": 144,
        "2651": 61,
        "2652": 127,
        "2653": 132,
        "2654": 99,
        "2655": 6,
        "2656": 149,
        "2657": 48,
        "2658": 114,
        "2659": 128,
        "2660": 109,
        "2661": 125,
        "2662": 163,
        "2663": 216,
        "2664": 116,
        "2665": 56,
        "2666": 212,
        "2667": 38,
        "2668": 103,
        "2669": 105,
        "2670": 215,
        "2671": 41,
        "2672": 145,
        "2673": 120,
        "2674": 178,
        "2675": 223,
        "2676": 205,
        "2677": 12,
        "2678": 198,
        "2679": 157,
        "2680": 137,
        "2681": 8,
        "2682": 103,
        "2683": 104,
        "2684": 208,
        "2685": 135,
        "2686": 230,
        "2687": 25,
        "2688": 80,
        "2689": 202,
        "2690": 178,
        "2691": 122,
        "2692": 132,
        "2693": 96,
        "2694": 50,
        "2695": 191,
        "2696": 236,
        "2697": 233,
        "2698": 88,
        "2699": 103,
        "2700": 211,
        "2701": 254,
        "2702": 79,
        "2703": 171,
        "2704": 96,
        "2705": 65,
        "2706": 238,
        "2707": 60,
        "2708": 1,
        "2709": 28,
        "2710": 246,
        "2711": 10,
        "2712": 222,
        "2713": 183,
        "2714": 218,
        "2715": 157,
        "2716": 179,
        "2717": 65,
        "2718": 10,
        "2719": 182,
        "2720": 248,
        "2721": 142,
        "2722": 49,
        "2723": 163,
        "2724": 114,
        "2725": 106,
        "2726": 3,
        "2727": 235,
        "2728": 71,
        "2729": 184,
        "2730": 53,
        "2731": 143,
        "2732": 79,
        "2733": 159,
        "2734": 54,
        "2735": 33,
        "2736": 216,
        "2737": 217,
        "2738": 92,
        "2739": 139,
        "2740": 112,
        "2741": 199,
        "2742": 78,
        "2743": 186,
        "2744": 252,
        "2745": 193,
        "2746": 242,
        "2747": 107,
        "2748": 243,
        "2749": 25,
        "2750": 206,
        "2751": 174,
        "2752": 129,
        "2753": 167,
        "2754": 187,
        "2755": 178,
        "2756": 5,
        "2757": 189,
        "2758": 139,
        "2759": 6,
        "2760": 135,
        "2761": 155,
        "2762": 104,
        "2763": 72,
        "2764": 43,
        "2765": 51,
        "2766": 15,
        "2767": 140,
        "2768": 224,
        "2769": 57,
        "2770": 56,
        "2771": 164,
        "2772": 154,
        "2773": 16,
        "2774": 132,
        "2775": 180,
        "2776": 166,
        "2777": 194,
        "2778": 255,
        "2779": 183,
        "2780": 64,
        "2781": 77,
        "2782": 250,
        "2783": 223,
        "2784": 221,
        "2785": 111,
        "2786": 5,
        "2787": 71,
        "2788": 203,
        "2789": 248,
        "2790": 157,
        "2791": 8,
        "2792": 244,
        "2793": 25,
        "2794": 209,
        "2795": 26,
        "2796": 174,
        "2797": 198,
        "2798": 143,
        "2799": 105,
        "2800": 150,
        "2801": 243,
        "2802": 32,
        "2803": 171,
        "2804": 226,
        "2805": 244,
        "2806": 222,
        "2807": 201,
        "2808": 72,
        "2809": 26,
        "2810": 238,
        "2811": 208,
        "2812": 100,
        "2813": 191,
        "2814": 20,
        "2815": 255,
        "2816": 183,
        "2817": 214,
        "2818": 253,
        "2819": 67,
        "2820": 241,
        "2821": 194,
        "2822": 165,
        "2823": 137,
        "2824": 236,
        "2825": 34,
        "2826": 1,
        "2827": 192,
        "2828": 60,
        "2829": 60,
        "2830": 94,
        "2831": 154,
        "2832": 110,
        "2833": 206,
        "2834": 40,
        "2835": 185,
        "2836": 138,
        "2837": 28,
        "2838": 163,
        "2839": 243,
        "2840": 172,
        "2841": 78,
        "2842": 181,
        "2843": 142,
        "2844": 30,
        "2845": 138,
        "2846": 40,
        "2847": 23,
        "2848": 17,
        "2849": 166,
        "2850": 71,
        "2851": 247,
        "2852": 218,
        "2853": 227,
        "2854": 174,
        "2855": 203,
        "2856": 243,
        "2857": 218,
        "2858": 58,
        "2859": 212,
        "2860": 122,
        "2861": 9,
        "2862": 57,
        "2863": 0,
        "2864": 69,
        "2865": 148,
        "2866": 73,
        "2867": 221,
        "2868": 190,
        "2869": 39,
        "2870": 246,
        "2871": 253,
        "2872": 198,
        "2873": 64,
        "2874": 160,
        "2875": 19,
        "2876": 55,
        "2877": 91,
        "2878": 25,
        "2879": 226,
        "2880": 145,
        "2881": 177,
        "2882": 12,
        "2883": 18,
        "2884": 248,
        "2885": 221,
        "2886": 15,
        "2887": 158,
        "2888": 67,
        "2889": 149,
        "2890": 11,
        "2891": 75,
        "2892": 215,
        "2893": 228,
        "2894": 146,
        "2895": 65,
        "2896": 59,
        "2897": 180,
        "2898": 214,
        "2899": 187,
        "2900": 198,
        "2901": 126,
        "2902": 120,
        "2903": 74,
        "2904": 95,
        "2905": 153,
        "2906": 235,
        "2907": 223,
        "2908": 168,
        "2909": 172,
        "2910": 11,
        "2911": 122,
        "2912": 44,
        "2913": 105,
        "2914": 212,
        "2915": 157,
        "2916": 124,
        "2917": 65,
        "2918": 87,
        "2919": 91,
        "2920": 163,
        "2921": 11,
        "2922": 85,
        "2923": 11,
        "2924": 190,
        "2925": 101,
        "2926": 228,
        "2927": 212,
        "2928": 77,
        "2929": 250,
        "2930": 219,
        "2931": 96,
        "2932": 53,
        "2933": 65,
        "2934": 137,
        "2935": 230,
        "2936": 108,
        "2937": 224,
        "2938": 70,
        "2939": 70,
        "2940": 75,
        "2941": 218,
        "2942": 61,
        "2943": 38,
        "2944": 202,
        "2945": 74,
        "2946": 0,
        "2947": 161,
        "2948": 202,
        "2949": 114,
        "2950": 124,
        "2951": 104,
        "2952": 240,
        "2953": 163,
        "2954": 36,
        "2955": 127,
        "2956": 93,
        "2957": 203,
        "2958": 10,
        "2959": 48,
        "2960": 165,
        "2961": 168,
        "2962": 171,
        "2963": 245,
        "2964": 93,
        "2965": 209,
        "2966": 61,
        "2967": 57,
        "2968": 237,
        "2969": 183,
        "2970": 115,
        "2971": 108,
        "2972": 1,
        "2973": 73,
        "2974": 104,
        "2975": 126,
        "2976": 32,
        "2977": 107,
        "2978": 75,
        "2979": 141,
        "2980": 25,
        "2981": 129,
        "2982": 175,
        "2983": 84,
        "2984": 211,
        "2985": 164,
        "2986": 115,
        "2987": 34,
        "2988": 64,
        "2989": 233,
        "2990": 234,
        "2991": 210,
        "2992": 86,
        "2993": 8,
        "2994": 95,
        "2995": 115,
        "2996": 240,
        "2997": 142,
        "2998": 35,
        "2999": 35,
        "3000": 1,
        "3001": 178,
        "3002": 42,
        "3003": 95,
        "3004": 143,
        "3005": 177,
        "3006": 96,
        "3007": 223,
        "3008": 228,
        "3009": 118,
        "3010": 162,
        "3011": 109,
        "3012": 34,
        "3013": 3,
        "3014": 221,
        "3015": 170,
        "3016": 219,
        "3017": 209,
        "3018": 52,
        "3019": 35,
        "3020": 5,
        "3021": 21,
        "3022": 5,
        "3023": 181,
        "3024": 150,
        "3025": 29,
        "3026": 163,
        "3027": 84,
        "3028": 149,
        "3029": 246,
        "3030": 220,
        "3031": 226,
        "3032": 89,
        "3033": 194,
        "3034": 48,
        "3035": 28,
        "3036": 83,
        "3037": 192,
        "3038": 153,
        "3039": 87,
        "3040": 212,
        "3041": 50,
        "3042": 132,
        "3043": 11,
        "3044": 56,
        "3045": 168,
        "3046": 188,
        "3047": 72,
        "3048": 107,
        "3049": 255,
        "3050": 253,
        "3051": 158,
        "3052": 217,
        "3053": 211,
        "3054": 160,
        "3055": 244,
        "3056": 207,
        "3057": 216,
        "3058": 70,
        "3059": 20,
        "3060": 103,
        "3061": 250,
        "3062": 238,
        "3063": 167,
        "3064": 12,
        "3065": 104,
        "3066": 43,
        "3067": 194,
        "3068": 88,
        "3069": 14,
        "3070": 34,
        "3071": 230,
        "3072": 157,
        "3073": 124,
        "3074": 40,
        "3075": 218,
        "3076": 208,
        "3077": 201,
        "3078": 38,
        "3079": 235,
        "3080": 39,
        "3081": 96,
        "3082": 185,
        "3083": 249,
        "3084": 122,
        "3085": 74,
        "3086": 240,
        "3087": 232,
        "3088": 202,
        "3089": 245,
        "3090": 225,
        "3091": 124,
        "3092": 203,
        "3093": 15,
        "3094": 187,
        "3095": 47,
        "3096": 65,
        "3097": 214,
        "3098": 202,
        "3099": 33,
        "3100": 188,
        "3101": 85,
        "3102": 227,
        "3103": 38,
        "3104": 137,
        "3105": 58,
        "3106": 33,
        "3107": 242,
        "3108": 115,
        "3109": 122,
        "3110": 234,
        "3111": 231,
        "3112": 77,
        "3113": 242,
        "3114": 241,
        "3115": 153,
        "3116": 204,
        "3117": 201,
        "3118": 126,
        "3119": 19,
        "3120": 251,
        "3121": 93,
        "3122": 144,
        "3123": 126,
        "3124": 248,
        "3125": 220,
        "3126": 75,
        "3127": 190,
        "3128": 159,
        "3129": 72,
        "3130": 7,
        "3131": 247,
        "3132": 98,
        "3133": 203,
        "3134": 139,
        "3135": 103,
        "3136": 218,
        "3137": 210,
        "3138": 190,
        "3139": 150,
        "3140": 61,
        "3141": 235,
        "3142": 218,
        "3143": 133,
        "3144": 91,
        "3145": 95,
        "3146": 10,
        "3147": 87,
        "3148": 40,
        "3149": 98,
        "3150": 29,
        "3151": 229,
        "3152": 85,
        "3153": 69,
        "3154": 53,
        "3155": 67,
        "3156": 4,
        "3157": 37,
        "3158": 27,
        "3159": 165,
        "3160": 116,
        "3161": 27,
        "3162": 168,
        "3163": 186,
        "3164": 240,
        "3165": 203,
        "3166": 82,
        "3167": 217,
        "3168": 244,
        "3169": 41,
        "3170": 225,
        "3171": 150,
        "3172": 8,
        "3173": 43,
        "3174": 132,
        "3175": 41,
        "3176": 15,
        "3177": 233,
        "3178": 242,
        "3179": 226,
        "3180": 104,
        "3181": 171,
        "3182": 58,
        "3183": 40,
        "3184": 104,
        "3185": 166,
        "3186": 235,
        "3187": 198,
        "3188": 214,
        "3189": 157,
        "3190": 238,
        "3191": 92,
        "3192": 235,
        "3193": 128,
        "3194": 208,
        "3195": 79,
        "3196": 9,
        "3197": 187,
        "3198": 120,
        "3199": 173,
        "3200": 117,
        "3201": 53,
        "3202": 2,
        "3203": 131,
        "3204": 157,
        "3205": 127,
        "3206": 35,
        "3207": 169,
        "3208": 101,
        "3209": 194,
        "3210": 57,
        "3211": 63,
        "3212": 95,
        "3213": 165,
        "3214": 200,
        "3215": 78,
        "3216": 211,
        "3217": 237,
        "3218": 137,
        "3219": 236,
        "3220": 206,
        "3221": 77,
        "3222": 95,
        "3223": 154,
        "3224": 235,
        "3225": 11,
        "3226": 44,
        "3227": 38,
        "3228": 10,
        "3229": 159,
        "3230": 252,
        "3231": 90,
        "3232": 192,
        "3233": 84,
        "3234": 165,
        "3235": 175,
        "3236": 83,
        "3237": 96,
        "3238": 162,
        "3239": 47,
        "3240": 180,
        "3241": 12,
        "3242": 43,
        "3243": 196,
        "3244": 66,
        "3245": 227,
        "3246": 95,
        "3247": 62,
        "3248": 162,
        "3249": 161,
        "3250": 189,
        "3251": 77,
        "3252": 29,
        "3253": 105,
        "3254": 108,
        "3255": 154,
        "3256": 199,
        "3257": 189,
        "3258": 57,
        "3259": 204,
        "3260": 53,
        "3261": 74,
        "3262": 131,
        "3263": 136,
        "3264": 53,
        "3265": 216,
        "3266": 154,
        "3267": 4,
        "3268": 23,
        "3269": 95,
        "3270": 59,
        "3271": 207,
        "3272": 214,
        "3273": 48,
        "3274": 36,
        "3275": 127,
        "3276": 65,
        "3277": 49,
        "3278": 242,
        "3279": 210,
        "3280": 146,
        "3281": 89,
        "3282": 142,
        "3283": 213,
        "3284": 214,
        "3285": 47,
        "3286": 131,
        "3287": 42,
        "3288": 250,
        "3289": 130,
        "3290": 209,
        "3291": 83,
        "3292": 175,
        "3293": 203,
        "3294": 65,
        "3295": 146,
        "3296": 154,
        "3297": 125,
        "3298": 51,
        "3299": 127,
        "3300": 148,
        "3301": 75,
        "3302": 11,
        "3303": 109,
        "3304": 221,
        "3305": 64,
        "3306": 219,
        "3307": 160,
        "3308": 174,
        "3309": 236,
        "3310": 231,
        "3311": 105,
        "3312": 241,
        "3313": 99,
        "3314": 181,
        "3315": 0,
        "3316": 148,
        "3317": 109,
        "3318": 244,
        "3319": 156,
        "3320": 82,
        "3321": 244,
        "3322": 160,
        "3323": 192,
        "3324": 34,
        "3325": 15,
        "3326": 92,
        "3327": 255,
        "3328": 15,
        "3329": 74,
        "3330": 218,
        "3331": 17,
        "3332": 133,
        "3333": 167,
        "3334": 139,
        "3335": 193,
        "3336": 125,
        "3337": 139,
        "3338": 119,
        "3339": 162,
        "3340": 93,
        "3341": 229,
        "3342": 242,
        "3343": 1,
        "3344": 73,
        "3345": 217,
        "3346": 124,
        "3347": 44,
        "3348": 82,
        "3349": 178,
        "3350": 179,
        "3351": 132,
        "3352": 237,
        "3353": 7,
        "3354": 133,
        "3355": 140,
        "3356": 164,
        "3357": 30,
        "3358": 195,
        "3359": 138,
        "3360": 31,
        "3361": 248,
        "3362": 230,
        "3363": 236,
        "3364": 166,
        "3365": 203,
        "3366": 57,
        "3367": 137,
        "3368": 248,
        "3369": 97,
        "3370": 238,
        "3371": 88,
        "3372": 226,
        "3373": 41,
        "3374": 108,
        "3375": 175,
        "3376": 2,
        "3377": 92,
        "3378": 46,
        "3379": 67,
        "3380": 24,
        "3381": 224,
        "3382": 36,
        "3383": 142,
        "3384": 247,
        "3385": 251,
        "3386": 132,
        "3387": 88,
        "3388": 236,
        "3389": 178,
        "3390": 112,
        "3391": 122,
        "3392": 142,
        "3393": 222,
        "3394": 134,
        "3395": 183,
        "3396": 5,
        "3397": 174,
        "3398": 243,
        "3399": 62,
        "3400": 121,
        "3401": 198,
        "3402": 56,
        "3403": 181,
        "3404": 132,
        "3405": 183,
        "3406": 76,
        "3407": 196,
        "3408": 103,
        "3409": 246,
        "3410": 106,
        "3411": 27,
        "3412": 143,
        "3413": 118,
        "3414": 108,
        "3415": 222,
        "3416": 242,
        "3417": 211,
        "3418": 163,
        "3419": 21,
        "3420": 157,
        "3421": 55,
        "3422": 168,
        "3423": 182,
        "3424": 217,
        "3425": 230,
        "3426": 33,
        "3427": 108,
        "3428": 187,
        "3429": 171,
        "3430": 115,
        "3431": 3,
        "3432": 228,
        "3433": 0,
        "3434": 247,
        "3435": 181,
        "3436": 35,
        "3437": 201,
        "3438": 58,
        "3439": 142,
        "3440": 42,
        "3441": 5,
        "3442": 124,
        "3443": 21,
        "3444": 164,
        "3445": 73,
        "3446": 211,
        "3447": 2,
        "3448": 197,
        "3449": 232,
        "3450": 246,
        "3451": 27,
        "3452": 110,
        "3453": 171,
        "3454": 128,
        "3455": 112,
        "3456": 98,
        "3457": 158,
        "3458": 48,
        "3459": 132,
        "3460": 170,
        "3461": 91,
        "3462": 101,
        "3463": 190,
        "3464": 97,
        "3465": 113,
        "3466": 12,
        "3467": 36,
        "3468": 200,
        "3469": 61,
        "3470": 192,
        "3471": 243,
        "3472": 202,
        "3473": 191,
        "3474": 134,
        "3475": 63,
        "3476": 127,
        "3477": 183,
        "3478": 55,
        "3479": 214,
        "3480": 249,
        "3481": 36,
        "3482": 170,
        "3483": 142,
        "3484": 212,
        "3485": 131,
        "3486": 221,
        "3487": 200,
        "3488": 79,
        "3489": 80,
        "3490": 206,
        "3491": 62,
        "3492": 11,
        "3493": 181,
        "3494": 194,
        "3495": 156,
        "3496": 47,
        "3497": 5,
        "3498": 142,
        "3499": 38,
        "3500": 153,
        "3501": 121,
        "3502": 244,
        "3503": 59,
        "3504": 137,
        "3505": 227,
        "3506": 43,
        "3507": 63,
        "3508": 41,
        "3509": 31,
        "3510": 23,
        "3511": 161,
        "3512": 157,
        "3513": 65,
        "3514": 137,
        "3515": 130,
        "3516": 120,
        "3517": 94,
        "3518": 46,
        "3519": 46,
        "3520": 17,
        "3521": 129,
        "3522": 128,
        "3523": 244,
        "3524": 135,
        "3525": 20,
        "3526": 32,
        "3527": 142,
        "3528": 223,
        "3529": 121,
        "3530": 235,
        "3531": 35,
        "3532": 71,
        "3533": 160,
        "3534": 170,
        "3535": 181,
        "3536": 137,
        "3537": 137,
        "3538": 220,
        "3539": 176,
        "3540": 162,
        "3541": 7,
        "3542": 28,
        "3543": 120,
        "3544": 241,
        "3545": 146,
        "3546": 129,
        "3547": 32,
        "3548": 107,
        "3549": 30,
        "3550": 247,
        "3551": 160,
        "3552": 247,
        "3553": 173,
        "3554": 179,
        "3555": 174,
        "3556": 231,
        "3557": 65,
        "3558": 122,
        "3559": 74,
        "3560": 191,
        "3561": 176,
        "3562": 122,
        "3563": 60,
        "3564": 214,
        "3565": 54,
        "3566": 107,
        "3567": 207,
        "3568": 58,
        "3569": 222,
        "3570": 89,
        "3571": 92,
        "3572": 206,
        "3573": 186,
        "3574": 17,
        "3575": 57,
        "3576": 159,
        "3577": 32,
        "3578": 191,
        "3579": 5,
        "3580": 35,
        "3581": 36,
        "3582": 72,
        "3583": 154,
        "3584": 90,
        "3585": 92,
        "3586": 66,
        "3587": 63,
        "3588": 103,
        "3589": 100,
        "3590": 94,
        "3591": 83,
        "3592": 199,
        "3593": 230,
        "3594": 184,
        "3595": 95,
        "3596": 29,
        "3597": 82,
        "3598": 238,
        "3599": 68,
        "3600": 248,
        "3601": 248,
        "3602": 86,
        "3603": 76,
        "3604": 139,
        "3605": 42,
        "3606": 208,
        "3607": 251,
        "3608": 90,
        "3609": 137,
        "3610": 247,
        "3611": 174,
        "3612": 17,
        "3613": 157,
        "3614": 190,
        "3615": 208,
        "3616": 119,
        "3617": 236,
        "3618": 231,
        "3619": 136,
        "3620": 254,
        "3621": 249,
        "3622": 48,
        "3623": 82,
        "3624": 37,
        "3625": 116,
        "3626": 188,
        "3627": 246,
        "3628": 78,
        "3629": 56,
        "3630": 117,
        "3631": 77,
        "3632": 170,
        "3633": 12,
        "3634": 108,
        "3635": 33,
        "3636": 192,
        "3637": 51,
        "3638": 162,
        "3639": 175,
        "3640": 17,
        "3641": 209,
        "3642": 91,
        "3643": 207,
        "3644": 83,
        "3645": 200,
        "3646": 163,
        "3647": 225,
        "3648": 157,
        "3649": 68,
        "3650": 105,
        "3651": 123,
        "3652": 103,
        "3653": 71,
        "3654": 197,
        "3655": 249,
        "3656": 127,
        "3657": 104,
        "3658": 240,
        "3659": 236,
        "3660": 84,
        "3661": 173,
        "3662": 182,
        "3663": 87,
        "3664": 34,
        "3665": 158,
        "3666": 245,
        "3667": 58,
        "3668": 102,
        "3669": 94,
        "3670": 129,
        "3671": 96,
        "3672": 161,
        "3673": 73,
        "3674": 100,
        "3675": 214,
        "3676": 158,
        "3677": 228,
        "3678": 41,
        "3679": 7,
        "3680": 62,
        "3681": 99,
        "3682": 10,
        "3683": 246,
        "3684": 87,
        "3685": 237,
        "3686": 130,
        "3687": 119,
        "3688": 193,
        "3689": 7,
        "3690": 191,
        "3691": 194,
        "3692": 164,
        "3693": 136,
        "3694": 159,
        "3695": 82,
        "3696": 84,
        "3697": 18,
        "3698": 197,
        "3699": 17,
        "3700": 209,
        "3701": 3,
        "3702": 100,
        "3703": 104,
        "3704": 238,
        "3705": 135,
        "3706": 145,
        "3707": 177,
        "3708": 207,
        "3709": 228,
        "3710": 124,
        "3711": 134,
        "3712": 78,
        "3713": 143,
        "3714": 119,
        "3715": 136,
        "3716": 212,
        "3717": 245,
        "3718": 194,
        "3719": 180,
        "3720": 128,
        "3721": 48,
        "3722": 162,
        "3723": 236,
        "3724": 211,
        "3725": 233,
        "3726": 178,
        "3727": 250,
        "3728": 243,
        "3729": 217,
        "3730": 12,
        "3731": 214,
        "3732": 52,
        "3733": 7,
        "3734": 147,
        "3735": 247,
        "3736": 94,
        "3737": 102,
        "3738": 92,
        "3739": 112,
        "3740": 198,
        "3741": 154,
        "3742": 102,
        "3743": 30,
        "3744": 97,
        "3745": 235,
        "3746": 244,
        "3747": 116,
        "3748": 135,
        "3749": 225,
        "3750": 205,
        "3751": 121,
        "3752": 217,
        "3753": 186,
        "3754": 132,
        "3755": 157,
        "3756": 195,
        "3757": 106,
        "3758": 83,
        "3759": 73,
        "3760": 140,
        "3761": 235,
        "3762": 203,
        "3763": 75,
        "3764": 34,
        "3765": 170,
        "3766": 1,
        "3767": 48,
        "3768": 229,
        "3769": 191,
        "3770": 90,
        "3771": 202,
        "3772": 37,
        "3773": 216,
        "3774": 223,
        "3775": 100,
        "3776": 55,
        "3777": 195,
        "3778": 164,
        "3779": 92,
        "3780": 136,
        "3781": 101,
        "3782": 129,
        "3783": 10,
        "3784": 9,
        "3785": 204,
        "3786": 241,
        "3787": 23,
        "3788": 21,
        "3789": 215,
        "3790": 249,
        "3791": 206,
        "3792": 217,
        "3793": 244,
        "3794": 24,
        "3795": 32,
        "3796": 241,
        "3797": 56,
        "3798": 243,
        "3799": 89,
        "3800": 164,
        "3801": 0,
        "3802": 163,
        "3803": 199,
        "3804": 83,
        "3805": 18,
        "3806": 60,
        "3807": 45,
        "3808": 160,
        "3809": 58,
        "3810": 16,
        "3811": 72,
        "3812": 219,
        "3813": 25,
        "3814": 194,
        "3815": 33,
        "3816": 117,
        "3817": 177,
        "3818": 59,
        "3819": 6,
        "3820": 68,
        "3821": 215,
        "3822": 177,
        "3823": 194,
        "3824": 111,
        "3825": 158,
        "3826": 219,
        "3827": 14,
        "3828": 116,
        "3829": 190,
        "3830": 240,
        "3831": 77,
        "3832": 77,
        "3833": 45,
        "3834": 171,
        "3835": 30,
        "3836": 218,
        "3837": 29,
        "3838": 102,
        "3839": 54,
        "3840": 135,
        "3841": 148,
        "3842": 176,
        "3843": 88,
        "3844": 229,
        "3845": 117,
        "3846": 217,
        "3847": 121,
        "3848": 82,
        "3849": 203,
        "3850": 148,
        "3851": 134,
        "3852": 179,
        "3853": 186,
        "3854": 149,
        "3855": 40,
        "3856": 99,
        "3857": 57,
        "3858": 111,
        "3859": 175,
        "3860": 220,
        "3861": 60,
        "3862": 61,
        "3863": 9,
        "3864": 167,
        "3865": 222,
        "3866": 115,
        "3867": 237,
        "3868": 195,
        "3869": 142,
        "3870": 233,
        "3871": 67,
        "3872": 53,
        "3873": 197,
        "3874": 119,
        "3875": 4,
        "3876": 58,
        "3877": 146,
        "3878": 206,
        "3879": 253,
        "3880": 20,
        "3881": 245,
        "3882": 237,
        "3883": 176,
        "3884": 136,
        "3885": 109,
        "3886": 139,
        "3887": 238,
        "3888": 155,
        "3889": 154,
        "3890": 146,
        "3891": 107,
        "3892": 166,
        "3893": 121,
        "3894": 135,
        "3895": 183,
        "3896": 141,
        "3897": 157,
        "3898": 0,
        "3899": 138,
        "3900": 240,
        "3901": 4,
        "3902": 117,
        "3903": 111,
        "3904": 76,
        "3905": 120,
        "3906": 157,
        "3907": 39,
        "3908": 217,
        "3909": 1,
        "3910": 76,
        "3911": 56,
        "3912": 54,
        "3913": 159,
        "3914": 5,
        "3915": 244,
        "3916": 159,
        "3917": 1,
        "3918": 30,
        "3919": 67,
        "3920": 4,
        "3921": 148,
        "3922": 143,
        "3923": 0,
        "3924": 188,
        "3925": 7,
        "3926": 71,
        "3927": 50,
        "3928": 167,
        "3929": 67,
        "3930": 148,
        "3931": 67,
        "3932": 174,
        "3933": 3,
        "3934": 133,
        "3935": 0,
        "3936": 25,
        "3937": 146,
        "3938": 155,
        "3939": 14,
        "3940": 24,
        "3941": 37,
        "3942": 108,
        "3943": 60,
        "3944": 165,
        "3945": 98,
        "3946": 157,
        "3947": 162,
        "3948": 86,
        "3949": 163,
        "3950": 208,
        "3951": 0,
        "3952": 144,
        "3953": 234,
        "3954": 75,
        "3955": 32,
        "3956": 142,
        "3957": 179,
        "3958": 25,
        "3959": 141,
        "3960": 174,
        "3961": 197,
        "3962": 44,
        "3963": 5,
        "3964": 84,
        "3965": 112,
        "3966": 24,
        "3967": 99,
        "3968": 63,
        "3969": 213,
        "3970": 178,
        "3971": 123,
        "3972": 186,
        "3973": 122,
        "3974": 130,
        "3975": 31,
        "3976": 241,
        "3977": 86,
        "3978": 181,
        "3979": 1,
        "3980": 78,
        "3981": 191,
        "3982": 4,
        "3983": 217,
        "3984": 183,
        "3985": 4,
        "3986": 165,
        "3987": 235,
        "3988": 38,
        "3989": 185,
        "3990": 234,
        "3991": 171,
        "3992": 128,
        "3993": 238,
        "3994": 185,
        "3995": 94,
        "3996": 49,
        "3997": 77,
        "3998": 131,
        "3999": 135,
        "4000": 172,
        "4001": 105,
        "4002": 113,
        "4003": 63,
        "4004": 4,
        "4005": 217,
        "4006": 226,
        "4007": 12,
        "4008": 11,
        "4009": 45,
        "4010": 92,
        "4011": 114,
        "4012": 152,
        "4013": 179,
        "4014": 0,
        "4015": 57,
        "4016": 15,
        "4017": 251,
        "4018": 180,
        "4019": 190,
        "4020": 49,
        "4021": 156,
        "4022": 228,
        "4023": 71,
        "4024": 135,
        "4025": 214,
        "4026": 144,
        "4027": 95,
        "4028": 197,
        "4029": 66,
        "4030": 126,
        "4031": 94,
        "4032": 59,
        "4033": 248,
        "4034": 239,
        "4035": 129,
        "4036": 133,
        "4037": 116,
        "4038": 178,
        "4039": 210,
        "4040": 97,
        "4041": 153,
        "4042": 184,
        "4043": 2,
        "4044": 99,
        "4045": 123,
        "4046": 240,
        "4047": 104,
        "4048": 35,
        "4049": 25,
        "4050": 55,
        "4051": 159,
        "4052": 60,
        "4053": 19,
        "4054": 204,
        "4055": 28,
        "4056": 163,
        "4057": 15,
        "4058": 76,
        "4059": 51,
        "4060": 200,
        "4061": 151,
        "4062": 225,
        "4063": 113,
        "4064": 178,
        "4065": 75,
        "4066": 75,
        "4067": 13,
        "4068": 99,
        "4069": 49,
        "4070": 185,
        "4071": 143,
        "4072": 235,
        "4073": 40,
        "4074": 92,
        "4075": 23,
        "4076": 184,
        "4077": 82,
        "4078": 170,
        "4079": 254,
        "4080": 72,
        "4081": 224,
        "4082": 197,
        "4083": 133,
        "4084": 193,
        "4085": 53,
        "4086": 42,
        "4087": 226,
        "4088": 75,
        "4089": 70,
        "4090": 170,
        "4091": 255,
        "4092": 22,
        "4093": 111,
        "4094": 119,
        "4095": 209,
        "4096": 15,
        "4097": 89,
        "4098": 186,
        "4099": 143,
        "4100": 247,
        "4101": 235,
        "4102": 230,
        "4103": 149,
        "4104": 219,
        "4105": 181,
        "4106": 55,
        "4107": 237,
        "4108": 101,
        "4109": 131,
        "4110": 41,
        "4111": 189,
        "4112": 157,
        "4113": 120,
        "4114": 140,
        "4115": 114,
        "4116": 134,
        "4117": 216,
        "4118": 82,
        "4119": 114,
        "4120": 156,
        "4121": 82,
        "4122": 150,
        "4123": 249,
        "4124": 205,
        "4125": 181,
        "4126": 138,
        "4127": 21,
        "4128": 151,
        "4129": 233,
        "4130": 157,
        "4131": 46,
        "4132": 223,
        "4133": 178,
        "4134": 117,
        "4135": 22,
        "4136": 93,
        "4137": 69,
        "4138": 197,
        "4139": 81,
        "4140": 59,
        "4141": 238,
        "4142": 174,
        "4143": 65,
        "4144": 64,
        "4145": 211,
        "4146": 214,
        "4147": 172,
        "4148": 25,
        "4149": 191,
        "4150": 77,
        "4151": 128,
        "4152": 133,
        "4153": 188,
        "4154": 141,
        "4155": 92,
        "4156": 197,
        "4157": 50,
        "4158": 153,
        "4159": 238,
        "4160": 91,
        "4161": 216,
        "4162": 100,
        "4163": 46,
        "4164": 13,
        "4165": 154,
        "4166": 35,
        "4167": 17,
        "4168": 50,
        "4169": 75,
        "4170": 213,
        "4171": 241,
        "4172": 64,
        "4173": 23,
        "4174": 77,
        "4175": 234,
        "4176": 36,
        "4177": 179,
        "4178": 117,
        "4179": 36,
        "4180": 68,
        "4181": 93,
        "4182": 203,
        "4183": 135,
        "4184": 17,
        "4185": 101,
        "4186": 37,
        "4187": 16,
        "4188": 164,
        "4189": 36,
        "4190": 94,
        "4191": 177,
        "4192": 77,
        "4193": 187,
        "4194": 105,
        "4195": 173,
        "4196": 149,
        "4197": 156,
        "4198": 22,
        "4199": 219,
        "4200": 154,
        "4201": 40,
        "4202": 39,
        "4203": 33,
        "4204": 120,
        "4205": 242,
        "4206": 60,
        "4207": 208,
        "4208": 44,
        "4209": 41,
        "4210": 26,
        "4211": 166,
        "4212": 3,
        "4213": 42,
        "4214": 248,
        "4215": 34,
        "4216": 162,
        "4217": 96,
        "4218": 55,
        "4219": 178,
        "4220": 107,
        "4221": 6,
        "4222": 99,
        "4223": 15,
        "4224": 93,
        "4225": 169,
        "4226": 233,
        "4227": 25,
        "4228": 164,
        "4229": 49,
        "4230": 159,
        "4231": 38,
        "4232": 123,
        "4233": 204,
        "4234": 108,
        "4235": 182,
        "4236": 146,
        "4237": 146,
        "4238": 201,
        "4239": 203,
        "4240": 75,
        "4241": 112,
        "4242": 79,
        "4243": 26,
        "4244": 188,
        "4245": 148,
        "4246": 117,
        "4247": 57,
        "4248": 227,
        "4249": 160,
        "4250": 17,
        "4251": 53,
        "4252": 252,
        "4253": 84,
        "4254": 86,
        "4255": 36,
        "4256": 5,
        "4257": 124,
        "4258": 106,
        "4259": 73,
        "4260": 46,
        "4261": 187,
        "4262": 76,
        "4263": 86,
        "4264": 167,
        "4265": 117,
        "4266": 199,
        "4267": 104,
        "4268": 3,
        "4269": 76,
        "4270": 123,
        "4271": 71,
        "4272": 168,
        "4273": 46,
        "4274": 45,
        "4275": 178,
        "4276": 182,
        "4277": 237,
        "4278": 108,
        "4279": 245,
        "4280": 214,
        "4281": 43,
        "4282": 94,
        "4283": 237,
        "4284": 238,
        "4285": 21,
        "4286": 81,
        "4287": 173,
        "4288": 84,
        "4289": 21,
        "4290": 116,
        "4291": 135,
        "4292": 96,
        "4293": 44,
        "4294": 123,
        "4295": 113,
        "4296": 45,
        "4297": 185,
        "4298": 157,
        "4299": 184,
        "4300": 180,
        "4301": 157,
        "4302": 218,
        "4303": 124,
        "4304": 219,
        "4305": 239,
        "4306": 101,
        "4307": 175,
        "4308": 132,
        "4309": 132,
        "4310": 63,
        "4311": 156,
        "4312": 161,
        "4313": 164,
        "4314": 244,
        "4315": 176,
        "4316": 148,
        "4317": 106,
        "4318": 175,
        "4319": 219,
        "4320": 83,
        "4321": 134,
        "4322": 192,
        "4323": 47,
        "4324": 164,
        "4325": 197,
        "4326": 94,
        "4327": 155,
        "4328": 250,
        "4329": 162,
        "4330": 134,
        "4331": 7,
        "4332": 24,
        "4333": 112,
        "4334": 133,
        "4335": 126,
        "4336": 134,
        "4337": 39,
        "4338": 176,
        "4339": 64,
        "4340": 247,
        "4341": 81,
        "4342": 240,
        "4343": 105,
        "4344": 96,
        "4345": 225,
        "4346": 121,
        "4347": 119,
        "4348": 204,
        "4349": 218,
        "4350": 228,
        "4351": 118,
        "4352": 233,
        "4353": 134,
        "4354": 127,
        "4355": 147,
        "4356": 55,
        "4357": 7,
        "4358": 215,
        "4359": 124,
        "4360": 224,
        "4361": 96,
        "4362": 165,
        "4363": 127,
        "4364": 91,
        "4365": 197,
        "4366": 177,
        "4367": 51,
        "4368": 94,
        "4369": 229,
        "4370": 168,
        "4371": 154,
        "4372": 22,
        "4373": 83,
        "4374": 164,
        "4375": 233,
        "4376": 134,
        "4377": 3,
        "4378": 197,
        "4379": 66,
        "4380": 226,
        "4381": 198,
        "4382": 223,
        "4383": 229,
        "4384": 121,
        "4385": 4,
        "4386": 75,
        "4387": 165,
        "4388": 171,
        "4389": 44,
        "4390": 131,
        "4391": 179,
        "4392": 235,
        "4393": 155,
        "4394": 200,
        "4395": 172,
        "4396": 77,
        "4397": 12,
        "4398": 120,
        "4399": 187,
        "4400": 250,
        "4401": 31,
        "4402": 87,
        "4403": 197,
        "4404": 197,
        "4405": 10,
        "4406": 85,
        "4407": 87,
        "4408": 69,
        "4409": 14,
        "4410": 244,
        "4411": 85,
        "4412": 25,
        "4413": 30,
        "4414": 169,
        "4415": 160,
        "4416": 77,
        "4417": 139,
        "4418": 225,
        "4419": 147,
        "4420": 42,
        "4421": 13,
        "4422": 32,
        "4423": 110,
        "4424": 21,
        "4425": 40,
        "4426": 106,
        "4427": 242,
        "4428": 119,
        "4429": 218,
        "4430": 8,
        "4431": 180,
        "4432": 147,
        "4433": 59,
        "4434": 127,
        "4435": 14,
        "4436": 28,
        "4437": 76,
        "4438": 223,
        "4439": 13,
        "4440": 100,
        "4441": 48,
        "4442": 103,
        "4443": 88,
        "4444": 85,
        "4445": 196,
        "4446": 239,
        "4447": 73,
        "4448": 213,
        "4449": 16,
        "4450": 216,
        "4451": 167,
        "4452": 37,
        "4453": 36,
        "4454": 111,
        "4455": 254,
        "4456": 128,
        "4457": 70,
        "4458": 180,
        "4459": 189,
        "4460": 6,
        "4461": 205,
        "4462": 174,
        "4463": 193,
        "4464": 103,
        "4465": 241,
        "4466": 101,
        "4467": 146,
        "4468": 102,
        "4469": 222,
        "4470": 110,
        "4471": 59,
        "4472": 206,
        "4473": 55,
        "4474": 160,
        "4475": 45,
        "4476": 195,
        "4477": 2,
        "4478": 89,
        "4479": 159,
        "4480": 76,
        "4481": 33,
        "4482": 237,
        "4483": 128,
        "4484": 158,
        "4485": 15,
        "4486": 143,
        "4487": 60,
        "4488": 76,
        "4489": 138,
        "4490": 127,
        "4491": 239,
        "4492": 226,
        "4493": 217,
        "4494": 185,
        "4495": 244,
        "4496": 190,
        "4497": 39,
        "4498": 218,
        "4499": 18,
        "4500": 43,
        "4501": 157,
        "4502": 138,
        "4503": 57,
        "4504": 119,
        "4505": 231,
        "4506": 8,
        "4507": 157,
        "4508": 4,
        "4509": 224,
        "4510": 54,
        "4511": 12,
        "4512": 70,
        "4513": 48,
        "4514": 155,
        "4515": 65,
        "4516": 28,
        "4517": 226,
        "4518": 193,
        "4519": 31,
        "4520": 97,
        "4521": 155,
        "4522": 1,
        "4523": 76,
        "4524": 117,
        "4525": 60,
        "4526": 214,
        "4527": 108,
        "4528": 227,
        "4529": 112,
        "4530": 46,
        "4531": 53,
        "4532": 96,
        "4533": 209,
        "4534": 71,
        "4535": 165,
        "4536": 165,
        "4537": 23,
        "4538": 167,
        "4539": 104,
        "4540": 123,
        "4541": 143,
        "4542": 129,
        "4543": 228,
        "4544": 49,
        "4545": 149,
        "4546": 133,
        "4547": 86,
        "4548": 154,
        "4549": 201,
        "4550": 112,
        "4551": 248,
        "4552": 120,
        "4553": 114,
        "4554": 21,
        "4555": 117,
        "4556": 196,
        "4557": 202,
        "4558": 253,
        "4559": 147,
        "4560": 217,
        "4561": 241,
        "4562": 82,
        "4563": 144,
        "4564": 174,
        "4565": 183,
        "4566": 72,
        "4567": 54,
        "4568": 211,
        "4569": 245,
        "4570": 173,
        "4571": 172,
        "4572": 219,
        "4573": 31,
        "4574": 131,
        "4575": 181,
        "4576": 109,
        "4577": 172,
        "4578": 200,
        "4579": 12,
        "4580": 226,
        "4581": 37,
        "4582": 138,
        "4583": 12,
        "4584": 160,
        "4585": 135,
        "4586": 39,
        "4587": 33,
        "4588": 80,
        "4589": 190,
        "4590": 224,
        "4591": 154,
        "4592": 9,
        "4593": 180,
        "4594": 143,
        "4595": 68,
        "4596": 37,
        "4597": 76,
        "4598": 128,
        "4599": 74,
        "4600": 159,
        "4601": 130,
        "4602": 169,
        "4603": 216,
        "4604": 13,
        "4605": 121,
        "4606": 137,
        "4607": 107,
        "4608": 240,
        "4609": 23,
        "4610": 183,
        "4611": 56,
        "4612": 132,
        "4613": 250,
        "4614": 252,
        "4615": 244,
        "4616": 191,
        "4617": 50,
        "4618": 211,
        "4619": 46,
        "4620": 155,
        "4621": 51,
        "4622": 171,
        "4623": 123,
        "4624": 46,
        "4625": 173,
        "4626": 204,
        "4627": 201,
        "4628": 22,
        "4629": 166,
        "4630": 38,
        "4631": 149,
        "4632": 140,
        "4633": 205,
        "4634": 204,
        "4635": 10,
        "4636": 79,
        "4637": 77,
        "4638": 255,
        "4639": 95,
        "4640": 180,
        "4641": 68,
        "4642": 170,
        "4643": 85,
        "4644": 62,
        "4645": 195,
        "4646": 27,
        "4647": 156,
        "4648": 119,
        "4649": 196,
        "4650": 97,
        "4651": 129,
        "4652": 38,
        "4653": 60,
        "4654": 3,
        "4655": 47,
        "4656": 77,
        "4657": 130,
        "4658": 10,
        "4659": 233,
        "4660": 247,
        "4661": 36,
        "4662": 221,
        "4663": 12,
        "4664": 204,
        "4665": 161,
        "4666": 200,
        "4667": 21,
        "4668": 1,
        "4669": 31,
        "4670": 94,
        "4671": 246,
        "4672": 87,
        "4673": 147,
        "4674": 20,
        "4675": 120,
        "4676": 17,
        "4677": 20,
        "4678": 50,
        "4679": 90,
        "4680": 191,
        "4681": 57,
        "4682": 127,
        "4683": 158,
        "4684": 124,
        "4685": 140,
        "4686": 201,
        "4687": 221,
        "4688": 206,
        "4689": 3,
        "4690": 235,
        "4691": 100,
        "4692": 91,
        "4693": 118,
        "4694": 18,
        "4695": 141,
        "4696": 99,
        "4697": 194,
        "4698": 101,
        "4699": 113,
        "4700": 47,
        "4701": 14,
        "4702": 86,
        "4703": 69,
        "4704": 133,
        "4705": 1,
        "4706": 171,
        "4707": 201,
        "4708": 11,
        "4709": 135,
        "4710": 49,
        "4711": 124,
        "4712": 221,
        "4713": 201,
        "4714": 14,
        "4715": 65,
        "4716": 172,
        "4717": 1,
        "4718": 67,
        "4719": 182,
        "4720": 116,
        "4721": 18,
        "4722": 60,
        "4723": 96,
        "4724": 77,
        "4725": 245,
        "4726": 229,
        "4727": 7,
        "4728": 105,
        "4729": 65,
        "4730": 208,
        "4731": 179,
        "4732": 212,
        "4733": 111,
        "4734": 137,
        "4735": 26,
        "4736": 96,
        "4737": 214,
        "4738": 86,
        "4739": 231,
        "4740": 75,
        "4741": 11,
        "4742": 103,
        "4743": 239,
        "4744": 206,
        "4745": 7,
        "4746": 201,
        "4747": 55,
        "4748": 245,
        "4749": 61,
        "4750": 28,
        "4751": 37,
        "4752": 199,
        "4753": 126,
        "4754": 139,
        "4755": 75,
        "4756": 71,
        "4757": 130,
        "4758": 110,
        "4759": 34,
        "4760": 229,
        "4761": 205,
        "4762": 39,
        "4763": 125,
        "4764": 236,
        "4765": 193,
        "4766": 252,
        "4767": 107,
        "4768": 246,
        "4769": 31,
        "4770": 254,
        "4771": 73,
        "4772": 80,
        "4773": 118,
        "4774": 116,
        "4775": 12,
        "4776": 209,
        "4777": 166,
        "4778": 94,
        "4779": 243,
        "4780": 180,
        "4781": 105,
        "4782": 151,
        "4783": 186,
        "4784": 58,
        "4785": 83,
        "4786": 189,
        "4787": 47,
        "4788": 149,
        "4789": 118,
        "4790": 128,
        "4791": 8,
        "4792": 239,
        "4793": 242,
        "4794": 151,
        "4795": 50,
        "4796": 65,
        "4797": 229,
        "4798": 155,
        "4799": 149,
        "4800": 128,
        "4801": 194,
        "4802": 116,
        "4803": 196,
        "4804": 193,
        "4805": 19,
        "4806": 246,
        "4807": 156,
        "4808": 213,
        "4809": 5,
        "4810": 218,
        "4811": 75,
        "4812": 31,
        "4813": 206,
        "4814": 114,
        "4815": 140,
        "4816": 145,
        "4817": 105,
        "4818": 227,
        "4819": 92,
        "4820": 225,
        "4821": 109,
        "4822": 153,
        "4823": 189,
        "4824": 203,
        "4825": 3,
        "4826": 80,
        "4827": 43,
        "4828": 98,
        "4829": 1,
        "4830": 45,
        "4831": 114,
        "4832": 151,
        "4833": 228,
        "4834": 121,
        "4835": 93,
        "4836": 215,
        "4837": 71,
        "4838": 184,
        "4839": 60,
        "4840": 51,
        "4841": 25,
        "4842": 55,
        "4843": 54,
        "4844": 49,
        "4845": 238,
        "4846": 168,
        "4847": 159,
        "4848": 160,
        "4849": 111,
        "4850": 105,
        "4851": 165,
        "4852": 204,
        "4853": 239,
        "4854": 240,
        "4855": 223,
        "4856": 205,
        "4857": 174,
        "4858": 44,
        "4859": 67,
        "4860": 56,
        "4861": 134,
        "4862": 0,
        "4863": 254,
        "4864": 59,
        "4865": 175,
        "4866": 237,
        "4867": 131,
        "4868": 85,
        "4869": 20,
        "4870": 73,
        "4871": 57,
        "4872": 166,
        "4873": 157,
        "4874": 249,
        "4875": 243,
        "4876": 145,
        "4877": 185,
        "4878": 134,
        "4879": 47,
        "4880": 228,
        "4881": 218,
        "4882": 103,
        "4883": 99,
        "4884": 16,
        "4885": 241,
        "4886": 33,
        "4887": 237,
        "4888": 193,
        "4889": 7,
        "4890": 234,
        "4891": 252,
        "4892": 52,
        "4893": 123,
        "4894": 8,
        "4895": 28,
        "4896": 140,
        "4897": 182,
        "4898": 215,
        "4899": 209,
        "4900": 46,
        "4901": 140,
        "4902": 227,
        "4903": 57,
        "4904": 163,
        "4905": 197,
        "4906": 220,
        "4907": 139,
        "4908": 127,
        "4909": 240,
        "4910": 155,
        "4911": 170,
        "4912": 173,
        "4913": 203,
        "4914": 183,
        "4915": 134,
        "4916": 201,
        "4917": 124,
        "4918": 216,
        "4919": 149,
        "4920": 149,
        "4921": 199,
        "4922": 185,
        "4923": 167,
        "4924": 66,
        "4925": 253,
        "4926": 56,
        "4927": 152,
        "4928": 222,
        "4929": 122,
        "4930": 181,
        "4931": 144,
        "4932": 102,
        "4933": 191,
        "4934": 40,
        "4935": 47,
        "4936": 248,
        "4937": 237,
        "4938": 64,
        "4939": 250,
        "4940": 104,
        "4941": 218,
        "4942": 243,
        "4943": 191,
        "4944": 38,
        "4945": 220,
        "4946": 142,
        "4947": 34,
        "4948": 143,
        "4949": 108,
        "4950": 136,
        "4951": 24,
        "4952": 57,
        "4953": 55,
        "4954": 180,
        "4955": 242,
        "4956": 228,
        "4957": 126,
        "4958": 97,
        "4959": 73,
        "4960": 251,
        "4961": 10,
        "4962": 186,
        "4963": 8,
        "4964": 160,
        "4965": 33,
        "4966": 86,
        "4967": 210,
        "4968": 187,
        "4969": 66,
        "4970": 13,
        "4971": 148,
        "4972": 81,
        "4973": 53,
        "4974": 202,
        "4975": 197,
        "4976": 124,
        "4977": 218,
        "4978": 196,
        "4979": 248,
        "4980": 208,
        "4981": 102,
        "4982": 157,
        "4983": 72,
        "4984": 58,
        "4985": 133,
        "4986": 201,
        "4987": 40,
        "4988": 238,
        "4989": 104,
        "4990": 90,
        "4991": 166,
        "4992": 23,
        "4993": 67,
        "4994": 164,
        "4995": 116,
        "4996": 224,
        "4997": 52,
        "4998": 64,
        "4999": 84,
        "5000": 235,
        "5001": 207,
        "5002": 98,
        "5003": 107,
        "5004": 106,
        "5005": 242,
        "5006": 164,
        "5007": 185,
        "5008": 193,
        "5009": 171,
        "5010": 236,
        "5011": 94,
        "5012": 69,
        "5013": 175,
        "5014": 151,
        "5015": 48,
        "5016": 231,
        "5017": 3,
        "5018": 213,
        "5019": 205,
        "5020": 199,
        "5021": 190,
        "5022": 132,
        "5023": 218,
        "5024": 140,
        "5025": 97,
        "5026": 16,
        "5027": 237,
        "5028": 226,
        "5029": 103,
        "5030": 119,
        "5031": 37,
        "5032": 139,
        "5033": 176,
        "5034": 204,
        "5035": 114,
        "5036": 206,
        "5037": 210,
        "5038": 196,
        "5039": 202,
        "5040": 138,
        "5041": 73,
        "5042": 190,
        "5043": 134,
        "5044": 34,
        "5045": 102,
        "5046": 205,
        "5047": 194,
        "5048": 198,
        "5049": 201,
        "5050": 38,
        "5051": 84,
        "5052": 180,
        "5053": 158,
        "5054": 166,
        "5055": 153,
        "5056": 13,
        "5057": 230,
        "5058": 92,
        "5059": 42,
        "5060": 187,
        "5061": 233,
        "5062": 103,
        "5063": 84,
        "5064": 48,
        "5065": 142,
        "5066": 179,
        "5067": 116,
        "5068": 97,
        "5069": 198,
        "5070": 217,
        "5071": 19,
        "5072": 137,
        "5073": 29,
        "5074": 43,
        "5075": 31,
        "5076": 209,
        "5077": 98,
        "5078": 166,
        "5079": 168,
        "5080": 169,
        "5081": 240,
        "5082": 2,
        "5083": 8,
        "5084": 81,
        "5085": 206,
        "5086": 50,
        "5087": 105,
        "5088": 190,
        "5089": 19,
        "5090": 200,
        "5091": 1,
        "5092": 17,
        "5093": 124,
        "5094": 194,
        "5095": 28,
        "5096": 205,
        "5097": 44,
        "5098": 98,
        "5099": 186,
        "5100": 13,
        "5101": 203,
        "5102": 71,
        "5103": 117,
        "5104": 122,
        "5105": 120,
        "5106": 36,
        "5107": 27,
        "5108": 224,
        "5109": 73,
        "5110": 3,
        "5111": 36,
        "5112": 195,
        "5113": 234,
        "5114": 160,
        "5115": 69,
        "5116": 8,
        "5117": 167,
        "5118": 86,
        "5119": 8,
        "5120": 39,
        "5121": 152,
        "5122": 101,
        "5123": 178,
        "5124": 78,
        "5125": 28,
        "5126": 108,
        "5127": 204,
        "5128": 132,
        "5129": 53,
        "5130": 50,
        "5131": 90,
        "5132": 159,
        "5133": 206,
        "5134": 208,
        "5135": 7,
        "5136": 177,
        "5137": 189,
        "5138": 203,
        "5139": 182,
        "5140": 42,
        "5141": 207,
        "5142": 191,
        "5143": 10,
        "5144": 100,
        "5145": 35,
        "5146": 156,
        "5147": 65,
        "5148": 226,
        "5149": 95,
        "5150": 29,
        "5151": 45,
        "5152": 93,
        "5153": 146,
        "5154": 74,
        "5155": 110,
        "5156": 43,
        "5157": 208,
        "5158": 139,
        "5159": 65,
        "5160": 223,
        "5161": 69,
        "5162": 207,
        "5163": 190,
        "5164": 149,
        "5165": 26,
        "5166": 172,
        "5167": 185,
        "5168": 30,
        "5169": 85,
        "5170": 168,
        "5171": 53,
        "5172": 206,
        "5173": 141,
        "5174": 208,
        "5175": 57,
        "5176": 169,
        "5177": 83,
        "5178": 200,
        "5179": 155,
        "5180": 169,
        "5181": 86,
        "5182": 133,
        "5183": 162,
        "5184": 184,
        "5185": 4,
        "5186": 43,
        "5187": 33,
        "5188": 17,
        "5189": 229,
        "5190": 165,
        "5191": 203,
        "5192": 27,
        "5193": 11,
        "5194": 174,
        "5195": 205,
        "5196": 167,
        "5197": 196,
        "5198": 89,
        "5199": 178,
        "5200": 79,
        "5201": 111,
        "5202": 130,
        "5203": 3,
        "5204": 11,
        "5205": 128,
        "5206": 148,
        "5207": 119,
        "5208": 222,
        "5209": 15,
        "5210": 44,
        "5211": 112,
        "5212": 222,
        "5213": 221,
        "5214": 98,
        "5215": 106,
        "5216": 136,
        "5217": 242,
        "5218": 252,
        "5219": 231,
        "5220": 168,
        "5221": 79,
        "5222": 211,
        "5223": 165,
        "5224": 102,
        "5225": 141,
        "5226": 171,
        "5227": 98,
        "5228": 208,
        "5229": 192,
        "5230": 52,
        "5231": 36,
        "5232": 150,
        "5233": 222,
        "5234": 238,
        "5235": 190,
        "5236": 255,
        "5237": 152,
        "5238": 231,
        "5239": 186,
        "5240": 35,
        "5241": 78,
        "5242": 199,
        "5243": 72,
        "5244": 69,
        "5245": 222,
        "5246": 200,
        "5247": 217,
        "5248": 0,
        "5249": 1,
        "5250": 149,
        "5251": 177,
        "5252": 171,
        "5253": 163,
        "5254": 42,
        "5255": 111,
        "5256": 109,
        "5257": 53,
        "5258": 22,
        "5259": 106,
        "5260": 194,
        "5261": 177,
        "5262": 205,
        "5263": 150,
        "5264": 63,
        "5265": 211,
        "5266": 15,
        "5267": 206,
        "5268": 16,
        "5269": 126,
        "5270": 218,
        "5271": 13,
        "5272": 34,
        "5273": 155,
        "5274": 39,
        "5275": 160,
        "5276": 120,
        "5277": 203,
        "5278": 206,
        "5279": 177,
        "5280": 87,
        "5281": 151,
        "5282": 128,
        "5283": 84,
        "5284": 255,
        "5285": 139,
        "5286": 85,
        "5287": 16,
        "5288": 11,
        "5289": 13,
        "5290": 205,
        "5291": 219,
        "5292": 183,
        "5293": 123,
        "5294": 8,
        "5295": 120,
        "5296": 112,
        "5297": 98,
        "5298": 149,
        "5299": 144,
        "5300": 147,
        "5301": 24,
        "5302": 0,
        "5303": 61,
        "5304": 38,
        "5305": 34,
        "5306": 180,
        "5307": 237,
        "5308": 105,
        "5309": 14,
        "5310": 43,
        "5311": 78,
        "5312": 159,
        "5313": 62,
        "5314": 140,
        "5315": 37,
        "5316": 162,
        "5317": 210,
        "5318": 152,
        "5319": 210,
        "5320": 190,
        "5321": 134,
        "5322": 101,
        "5323": 118,
        "5324": 6,
        "5325": 53,
        "5326": 232,
        "5327": 116,
        "5328": 210,
        "5329": 103,
        "5330": 88,
        "5331": 33,
        "5332": 228,
        "5333": 54,
        "5334": 154,
        "5335": 81,
        "5336": 16,
        "5337": 184,
        "5338": 21,
        "5339": 46,
        "5340": 162,
        "5341": 235,
        "5342": 199,
        "5343": 33,
        "5344": 107,
        "5345": 88,
        "5346": 88,
        "5347": 44,
        "5348": 202,
        "5349": 77,
        "5350": 116,
        "5351": 98,
        "5352": 153,
        "5353": 251,
        "5354": 155,
        "5355": 25,
        "5356": 217,
        "5357": 122,
        "5358": 67,
        "5359": 1,
        "5360": 86,
        "5361": 189,
        "5362": 45,
        "5363": 106,
        "5364": 77,
        "5365": 93,
        "5366": 202,
        "5367": 123,
        "5368": 80,
        "5369": 49,
        "5370": 129,
        "5371": 82,
        "5372": 228,
        "5373": 232,
        "5374": 140,
        "5375": 153,
        "5376": 21,
        "5377": 146,
        "5378": 43,
        "5379": 40,
        "5380": 19,
        "5381": 182,
        "5382": 44,
        "5383": 170,
        "5384": 26,
        "5385": 212,
        "5386": 109,
        "5387": 23,
        "5388": 80,
        "5389": 38,
        "5390": 153,
        "5391": 1,
        "5392": 241,
        "5393": 86,
        "5394": 66,
        "5395": 112,
        "5396": 109,
        "5397": 90,
        "5398": 239,
        "5399": 153,
        "5400": 167,
        "5401": 15,
        "5402": 59,
        "5403": 72,
        "5404": 39,
        "5405": 70,
        "5406": 91,
        "5407": 51,
        "5408": 244,
        "5409": 38,
        "5410": 25,
        "5411": 16,
        "5412": 51,
        "5413": 10,
        "5414": 187,
        "5415": 12,
        "5416": 221,
        "5417": 72,
        "5418": 120,
        "5419": 226,
        "5420": 108,
        "5421": 107,
        "5422": 119,
        "5423": 40,
        "5424": 44,
        "5425": 73,
        "5426": 197,
        "5427": 206,
        "5428": 26,
        "5429": 203,
        "5430": 222,
        "5431": 187,
        "5432": 92,
        "5433": 54,
        "5434": 1,
        "5435": 194,
        "5436": 172,
        "5437": 245,
        "5438": 48,
        "5439": 22,
        "5440": 156,
        "5441": 68,
        "5442": 90,
        "5443": 89,
        "5444": 195,
        "5445": 55,
        "5446": 120,
        "5447": 242,
        "5448": 205,
        "5449": 32,
        "5450": 128,
        "5451": 69,
        "5452": 220,
        "5453": 44,
        "5454": 44,
        "5455": 228,
        "5456": 112,
        "5457": 181,
        "5458": 105,
        "5459": 195,
        "5460": 131,
        "5461": 33,
        "5462": 50,
        "5463": 66,
        "5464": 117,
        "5465": 222,
        "5466": 69,
        "5467": 86,
        "5468": 27,
        "5469": 208,
        "5470": 22,
        "5471": 69,
        "5472": 234,
        "5473": 162,
        "5474": 64,
        "5475": 197,
        "5476": 228,
        "5477": 253,
        "5478": 24,
        "5479": 251,
        "5480": 123,
        "5481": 113,
        "5482": 42,
        "5483": 10,
        "5484": 33,
        "5485": 98,
        "5486": 159,
        "5487": 198,
        "5488": 14,
        "5489": 130,
        "5490": 174,
        "5491": 234,
        "5492": 60,
        "5493": 21,
        "5494": 190,
        "5495": 33,
        "5496": 53,
        "5497": 192,
        "5498": 36,
        "5499": 41,
        "5500": 154,
        "5501": 166,
        "5502": 10,
        "5503": 68,
        "5504": 239,
        "5505": 57,
        "5506": 49,
        "5507": 80,
        "5508": 15,
        "5509": 158,
        "5510": 237,
        "5511": 146,
        "5512": 233,
        "5513": 64,
        "5514": 229,
        "5515": 74,
        "5516": 20,
        "5517": 249,
        "5518": 99,
        "5519": 230,
        "5520": 166,
        "5521": 27,
        "5522": 174,
        "5523": 23,
        "5524": 16,
        "5525": 158,
        "5526": 34,
        "5527": 49,
        "5528": 35,
        "5529": 119,
        "5530": 130,
        "5531": 207,
        "5532": 199,
        "5533": 188,
        "5534": 71,
        "5535": 82,
        "5536": 223,
        "5537": 254,
        "5538": 16,
        "5539": 205,
        "5540": 96,
        "5541": 71,
        "5542": 92,
        "5543": 78,
        "5544": 192,
        "5545": 86,
        "5546": 72,
        "5547": 70,
        "5548": 43,
        "5549": 33,
        "5550": 222,
        "5551": 149,
        "5552": 242,
        "5553": 217,
        "5554": 120,
        "5555": 70,
        "5556": 233,
        "5557": 126,
        "5558": 194,
        "5559": 51,
        "5560": 80,
        "5561": 168,
        "5562": 245,
        "5563": 92,
        "5564": 165,
        "5565": 32,
        "5566": 242,
        "5567": 7,
        "5568": 180,
        "5569": 253,
        "5570": 249,
        "5571": 41,
        "5572": 109,
        "5573": 17,
        "5574": 131,
        "5575": 210,
        "5576": 111,
        "5577": 150,
        "5578": 229,
        "5579": 240,
        "5580": 73,
        "5581": 71,
        "5582": 207,
        "5583": 163,
        "5584": 97,
        "5585": 143,
        "5586": 242,
        "5587": 243,
        "5588": 196,
        "5589": 147,
        "5590": 247,
        "5591": 21,
        "5592": 102,
        "5593": 134,
        "5594": 62,
        "5595": 60,
        "5596": 167,
        "5597": 74,
        "5598": 204,
        "5599": 76,
        "5600": 102,
        "5601": 146,
        "5602": 202,
        "5603": 250,
        "5604": 236,
        "5605": 147,
        "5606": 251,
        "5607": 205,
        "5608": 95,
        "5609": 181,
        "5610": 147,
        "5611": 78,
        "5612": 201,
        "5613": 162,
        "5614": 218,
        "5615": 21,
        "5616": 154,
        "5617": 181,
        "5618": 1,
        "5619": 53,
        "5620": 187,
        "5621": 194,
        "5622": 81,
        "5623": 3,
        "5624": 9,
        "5625": 10,
        "5626": 209,
        "5627": 88,
        "5628": 78,
        "5629": 195,
        "5630": 206,
        "5631": 65,
        "5632": 88,
        "5633": 75,
        "5634": 11,
        "5635": 105,
        "5636": 194,
        "5637": 213,
        "5638": 169,
        "5639": 4,
        "5640": 81,
        "5641": 37,
        "5642": 68,
        "5643": 88,
        "5644": 201,
        "5645": 160,
        "5646": 6,
        "5647": 199,
        "5648": 148,
        "5649": 189,
        "5650": 167,
        "5651": 184,
        "5652": 18,
        "5653": 34,
        "5654": 253,
        "5655": 114,
        "5656": 21,
        "5657": 63,
        "5658": 17,
        "5659": 150,
        "5660": 238,
        "5661": 58,
        "5662": 186,
        "5663": 183,
        "5664": 127,
        "5665": 197,
        "5666": 106,
        "5667": 206,
        "5668": 97,
        "5669": 119,
        "5670": 0,
        "5671": 209,
        "5672": 121,
        "5673": 66,
        "5674": 197,
        "5675": 114,
        "5676": 101,
        "5677": 222,
        "5678": 166,
        "5679": 58,
        "5680": 114,
        "5681": 65,
        "5682": 196,
        "5683": 135,
        "5684": 13,
        "5685": 15,
        "5686": 129,
        "5687": 139,
        "5688": 253,
        "5689": 19,
        "5690": 114,
        "5691": 82,
        "5692": 43,
        "5693": 62,
        "5694": 119,
        "5695": 15,
        "5696": 217,
        "5697": 197,
        "5698": 69,
        "5699": 187,
        "5700": 254,
        "5701": 238,
        "5702": 151,
        "5703": 251,
        "5704": 117,
        "5705": 46,
        "5706": 29,
        "5707": 220,
        "5708": 0,
        "5709": 2,
        "5710": 119,
        "5711": 84,
        "5712": 51,
        "5713": 230,
        "5714": 143,
        "5715": 231,
        "5716": 148,
        "5717": 46,
        "5718": 197,
        "5719": 104,
        "5720": 18,
        "5721": 228,
        "5722": 26,
        "5723": 112,
        "5724": 143,
        "5725": 153,
        "5726": 188,
        "5727": 142,
        "5728": 132,
        "5729": 71,
        "5730": 215,
        "5731": 13,
        "5732": 198,
        "5733": 186,
        "5734": 4,
        "5735": 214,
        "5736": 188,
        "5737": 33,
        "5738": 79,
        "5739": 89,
        "5740": 87,
        "5741": 62,
        "5742": 170,
        "5743": 24,
        "5744": 216,
        "5745": 123,
        "5746": 111,
        "5747": 102,
        "5748": 135,
        "5749": 217,
        "5750": 173,
        "5751": 243,
        "5752": 221,
        "5753": 33,
        "5754": 211,
        "5755": 134,
        "5756": 147,
        "5757": 136,
        "5758": 235,
        "5759": 165,
        "5760": 219,
        "5761": 245,
        "5762": 71,
        "5763": 210,
        "5764": 76,
        "5765": 144,
        "5766": 119,
        "5767": 255,
        "5768": 85,
        "5769": 134,
        "5770": 102,
        "5771": 113,
        "5772": 252,
        "5773": 209,
        "5774": 41,
        "5775": 21,
        "5776": 141,
        "5777": 161,
        "5778": 66,
        "5779": 200,
        "5780": 75,
        "5781": 166,
        "5782": 153,
        "5783": 65,
        "5784": 49,
        "5785": 124,
        "5786": 81,
        "5787": 142,
        "5788": 127,
        "5789": 104,
        "5790": 14,
        "5791": 50,
        "5792": 178,
        "5793": 214,
        "5794": 62,
        "5795": 197,
        "5796": 155,
        "5797": 174,
        "5798": 213,
        "5799": 236,
        "5800": 76,
        "5801": 214,
        "5802": 140,
        "5803": 226,
        "5804": 123,
        "5805": 237,
        "5806": 69,
        "5807": 77,
        "5808": 41,
        "5809": 149,
        "5810": 149,
        "5811": 22,
        "5812": 112,
        "5813": 224,
        "5814": 45,
        "5815": 80,
        "5816": 5,
        "5817": 191,
        "5818": 43,
        "5819": 198,
        "5820": 233,
        "5821": 64,
        "5822": 130,
        "5823": 229,
        "5824": 175,
        "5825": 58,
        "5826": 159,
        "5827": 35,
        "5828": 210,
        "5829": 253,
        "5830": 112,
        "5831": 17,
        "5832": 223,
        "5833": 254,
        "5834": 180,
        "5835": 84,
        "5836": 67,
        "5837": 193,
        "5838": 255,
        "5839": 107,
        "5840": 233,
        "5841": 78,
        "5842": 49,
        "5843": 44,
        "5844": 48,
        "5845": 132,
        "5846": 230,
        "5847": 62,
        "5848": 141,
        "5849": 221,
        "5850": 199,
        "5851": 64,
        "5852": 91,
        "5853": 206,
        "5854": 57,
        "5855": 216,
        "5856": 187,
        "5857": 250,
        "5858": 78,
        "5859": 146,
        "5860": 151,
        "5861": 34,
        "5862": 71,
        "5863": 28,
        "5864": 110,
        "5865": 234,
        "5866": 216,
        "5867": 194,
        "5868": 138,
        "5869": 44,
        "5870": 98,
        "5871": 86,
        "5872": 180,
        "5873": 199,
        "5874": 143,
        "5875": 111,
        "5876": 8,
        "5877": 8,
        "5878": 193,
        "5879": 216,
        "5880": 87,
        "5881": 202,
        "5882": 149,
        "5883": 88,
        "5884": 233,
        "5885": 193,
        "5886": 238,
        "5887": 7,
        "5888": 215,
        "5889": 60,
        "5890": 61,
        "5891": 135,
        "5892": 171,
        "5893": 154,
        "5894": 154,
        "5895": 132,
        "5896": 195,
        "5897": 237,
        "5898": 200,
        "5899": 106,
        "5900": 63,
        "5901": 22,
        "5902": 12,
        "5903": 39,
        "5904": 225,
        "5905": 51,
        "5906": 187,
        "5907": 5,
        "5908": 76,
        "5909": 2,
        "5910": 60,
        "5911": 127,
        "5912": 121,
        "5913": 170,
        "5914": 9,
        "5915": 20,
        "5916": 125,
        "5917": 93,
        "5918": 135,
        "5919": 63,
        "5920": 125,
        "5921": 108,
        "5922": 65,
        "5923": 200,
        "5924": 196,
        "5925": 48,
        "5926": 244,
        "5927": 128,
        "5928": 137,
        "5929": 87,
        "5930": 40,
        "5931": 159,
        "5932": 37,
        "5933": 110,
        "5934": 191,
        "5935": 232,
        "5936": 120,
        "5937": 6,
        "5938": 253,
        "5939": 85,
        "5940": 173,
        "5941": 14,
        "5942": 70,
        "5943": 92,
        "5944": 231,
        "5945": 93,
        "5946": 224,
        "5947": 172,
        "5948": 240,
        "5949": 3,
        "5950": 36,
        "5951": 36,
        "5952": 146,
        "5953": 124,
        "5954": 104,
        "5955": 66,
        "5956": 149,
        "5957": 134,
        "5958": 96,
        "5959": 221,
        "5960": 88,
        "5961": 16,
        "5962": 163,
        "5963": 180,
        "5964": 103,
        "5965": 7,
        "5966": 5,
        "5967": 56,
        "5968": 88,
        "5969": 211,
        "5970": 50,
        "5971": 150,
        "5972": 24,
        "5973": 95,
        "5974": 48,
        "5975": 63,
        "5976": 65,
        "5977": 1,
        "5978": 194,
        "5979": 225,
        "5980": 31,
        "5981": 25,
        "5982": 107,
        "5983": 176,
        "5984": 24,
        "5985": 121,
        "5986": 233,
        "5987": 26,
        "5988": 154,
        "5989": 110,
        "5990": 234,
        "5991": 252,
        "5992": 90,
        "5993": 50,
        "5994": 215,
        "5995": 84,
        "5996": 205,
        "5997": 147,
        "5998": 120,
        "5999": 220,
        "6000": 17,
        "6001": 229,
        "6002": 14,
        "6003": 82,
        "6004": 232,
        "6005": 154,
        "6006": 38,
        "6007": 136,
        "6008": 184,
        "6009": 119,
        "6010": 239,
        "6011": 145,
        "6012": 58,
        "6013": 128,
        "6014": 79,
        "6015": 34,
        "6016": 96,
        "6017": 91,
        "6018": 105,
        "6019": 97,
        "6020": 17,
        "6021": 52,
        "6022": 230,
        "6023": 45,
        "6024": 47,
        "6025": 1,
        "6026": 61,
        "6027": 14,
        "6028": 206,
        "6029": 8,
        "6030": 7,
        "6031": 255,
        "6032": 54,
        "6033": 132,
        "6034": 13,
        "6035": 188,
        "6036": 147,
        "6037": 191,
        "6038": 202,
        "6039": 138,
        "6040": 34,
        "6041": 206,
        "6042": 31,
        "6043": 233,
        "6044": 126,
        "6045": 185,
        "6046": 243,
        "6047": 183,
        "6048": 102,
        "6049": 205,
        "6050": 17,
        "6051": 248,
        "6052": 29,
        "6053": 88,
        "6054": 120,
        "6055": 83,
        "6056": 68,
        "6057": 59,
        "6058": 24,
        "6059": 82,
        "6060": 24,
        "6061": 67,
        "6062": 53,
        "6063": 42,
        "6064": 16,
        "6065": 201,
        "6066": 231,
        "6067": 14,
        "6068": 37,
        "6069": 31,
        "6070": 1,
        "6071": 244,
        "6072": 121,
        "6073": 110,
        "6074": 43,
        "6075": 19,
        "6076": 74,
        "6077": 52,
        "6078": 113,
        "6079": 63,
        "6080": 247,
        "6081": 69,
        "6082": 10,
        "6083": 144,
        "6084": 152,
        "6085": 12,
        "6086": 140,
        "6087": 103,
        "6088": 164,
        "6089": 160,
        "6090": 127,
        "6091": 182,
        "6092": 190,
        "6093": 181,
        "6094": 101,
        "6095": 185,
        "6096": 30,
        "6097": 131,
        "6098": 212,
        "6099": 75,
        "6100": 130,
        "6101": 109,
        "6102": 145,
        "6103": 99,
        "6104": 218,
        "6105": 47,
        "6106": 190,
        "6107": 212,
        "6108": 216,
        "6109": 79,
        "6110": 32,
        "6111": 232,
        "6112": 213,
        "6113": 236,
        "6114": 123,
        "6115": 40,
        "6116": 229,
        "6117": 102,
        "6118": 29,
        "6119": 228,
        "6120": 128,
        "6121": 89,
        "6122": 187,
        "6123": 214,
        "6124": 236,
        "6125": 192,
        "6126": 48,
        "6127": 125,
        "6128": 115,
        "6129": 5,
        "6130": 220,
        "6131": 82,
        "6132": 101,
        "6133": 226,
        "6134": 245,
        "6135": 121,
        "6136": 172,
        "6137": 54,
        "6138": 189,
        "6139": 200,
        "6140": 224,
        "6141": 16,
        "6142": 8,
        "6143": 25,
        "6144": 133,
        "6145": 157,
        "6146": 242,
        "6147": 168,
        "6148": 94,
        "6149": 43,
        "6150": 255,
        "6151": 196,
        "6152": 10,
        "6153": 34,
        "6154": 23,
        "6155": 139,
        "6156": 97,
        "6157": 232,
        "6158": 246,
        "6159": 165,
        "6160": 58,
        "6161": 51,
        "6162": 218,
        "6163": 232,
        "6164": 43,
        "6165": 239,
        "6166": 208,
        "6167": 117,
        "6168": 26,
        "6169": 89,
        "6170": 68,
        "6171": 97,
        "6172": 58,
        "6173": 107,
        "6174": 3,
        "6175": 45,
        "6176": 186,
        "6177": 215,
        "6178": 244,
        "6179": 230,
        "6180": 33,
        "6181": 218,
        "6182": 5,
        "6183": 51,
        "6184": 166,
        "6185": 126,
        "6186": 233,
        "6187": 133,
        "6188": 70,
        "6189": 106,
        "6190": 255,
        "6191": 252,
        "6192": 213,
        "6193": 134,
        "6194": 253,
        "6195": 184,
        "6196": 83,
        "6197": 147,
        "6198": 39,
        "6199": 119,
        "6200": 197,
        "6201": 57,
        "6202": 223,
        "6203": 27,
        "6204": 78,
        "6205": 97,
        "6206": 79,
        "6207": 171,
        "6208": 105,
        "6209": 242,
        "6210": 157,
        "6211": 61,
        "6212": 233,
        "6213": 88,
        "6214": 137,
        "6215": 120,
        "6216": 216,
        "6217": 104,
        "6218": 213,
        "6219": 58,
        "6220": 104,
        "6221": 211,
        "6222": 85,
        "6223": 122,
        "6224": 236,
        "6225": 24,
        "6226": 127,
        "6227": 254,
        "6228": 254,
        "6229": 6,
        "6230": 150,
        "6231": 136,
        "6232": 60,
        "6233": 74,
        "6234": 189,
        "6235": 107,
        "6236": 148,
        "6237": 144,
        "6238": 241,
        "6239": 81,
        "6240": 112,
        "6241": 213,
        "6242": 202,
        "6243": 17,
        "6244": 92,
        "6245": 116,
        "6246": 208,
        "6247": 42,
        "6248": 249,
        "6249": 189,
        "6250": 187,
        "6251": 45,
        "6252": 247,
        "6253": 110,
        "6254": 51,
        "6255": 244,
        "6256": 192,
        "6257": 232,
        "6258": 143,
        "6259": 136,
        "6260": 71,
        "6261": 217,
        "6262": 100,
        "6263": 191,
        "6264": 19,
        "6265": 149,
        "6266": 46,
        "6267": 87,
        "6268": 208,
        "6269": 234,
        "6270": 209,
        "6271": 53,
        "6272": 246,
        "6273": 221,
        "6274": 116,
        "6275": 43,
        "6276": 228,
        "6277": 6,
        "6278": 84,
        "6279": 178,
        "6280": 29,
        "6281": 250,
        "6282": 152,
        "6283": 174,
        "6284": 21,
        "6285": 115,
        "6286": 180,
        "6287": 217,
        "6288": 137,
        "6289": 185,
        "6290": 7,
        "6291": 241,
        "6292": 201,
        "6293": 173,
        "6294": 84,
        "6295": 51,
        "6296": 28,
        "6297": 90,
        "6298": 186,
        "6299": 27,
        "6300": 131,
        "6301": 5,
        "6302": 95,
        "6303": 154,
        "6304": 207,
        "6305": 206,
        "6306": 223,
        "6307": 8,
        "6308": 19,
        "6309": 121,
        "6310": 157,
        "6311": 72,
        "6312": 150,
        "6313": 229,
        "6314": 54,
        "6315": 227,
        "6316": 114,
        "6317": 54,
        "6318": 25,
        "6319": 132,
        "6320": 72,
        "6321": 105,
        "6322": 107,
        "6323": 238,
        "6324": 25,
        "6325": 222,
        "6326": 36,
        "6327": 105,
        "6328": 47,
        "6329": 103,
        "6330": 15,
        "6331": 229,
        "6332": 28,
        "6333": 157,
        "6334": 12,
        "6335": 163,
        "6336": 213,
        "6337": 160,
        "6338": 34,
        "6339": 14,
        "6340": 12,
        "6341": 243,
        "6342": 172,
        "6343": 191,
        "6344": 5,
        "6345": 60,
        "6346": 32,
        "6347": 38,
        "6348": 40,
        "6349": 73,
        "6350": 120,
        "6351": 10,
        "6352": 104,
        "6353": 215,
        "6354": 85,
        "6355": 33,
        "6356": 217,
        "6357": 37,
        "6358": 236,
        "6359": 73,
        "6360": 214,
        "6361": 169,
        "6362": 13,
        "6363": 164,
        "6364": 135,
        "6365": 119,
        "6366": 68,
        "6367": 194,
        "6368": 57,
        "6369": 208,
        "6370": 136,
        "6371": 23,
        "6372": 217,
        "6373": 128,
        "6374": 217,
        "6375": 86,
        "6376": 129,
        "6377": 126,
        "6378": 129,
        "6379": 48,
        "6380": 211,
        "6381": 224,
        "6382": 157,
        "6383": 248,
        "6384": 205,
        "6385": 34,
        "6386": 13,
        "6387": 30,
        "6388": 73,
        "6389": 28,
        "6390": 170,
        "6391": 224,
        "6392": 142,
        "6393": 94,
        "6394": 207,
        "6395": 45,
        "6396": 37,
        "6397": 200,
        "6398": 195,
        "6399": 158,
        "6400": 103,
        "6401": 136,
        "6402": 39,
        "6403": 162,
        "6404": 96,
        "6405": 26,
        "6406": 98,
        "6407": 157,
        "6408": 130,
        "6409": 8,
        "6410": 15,
        "6411": 26,
        "6412": 75,
        "6413": 220,
        "6414": 14,
        "6415": 174,
        "6416": 23,
        "6417": 98,
        "6418": 249,
        "6419": 125,
        "6420": 105,
        "6421": 94,
        "6422": 241,
        "6423": 165,
        "6424": 225,
        "6425": 62,
        "6426": 53,
        "6427": 74,
        "6428": 211,
        "6429": 4,
        "6430": 137,
        "6431": 49,
        "6432": 179,
        "6433": 3,
        "6434": 143,
        "6435": 119,
        "6436": 161,
        "6437": 15,
        "6438": 240,
        "6439": 202,
        "6440": 142,
        "6441": 235,
        "6442": 96,
        "6443": 246,
        "6444": 175,
        "6445": 146,
        "6446": 32,
        "6447": 140,
        "6448": 185,
        "6449": 163,
        "6450": 209,
        "6451": 2,
        "6452": 191,
        "6453": 56,
        "6454": 27,
        "6455": 3,
        "6456": 117,
        "6457": 31,
        "6458": 124,
        "6459": 93,
        "6460": 48,
        "6461": 44,
        "6462": 150,
        "6463": 235,
        "6464": 79,
        "6465": 177,
        "6466": 20,
        "6467": 238,
        "6468": 165,
        "6469": 30,
        "6470": 96,
        "6471": 25,
        "6472": 89,
        "6473": 77,
        "6474": 254,
        "6475": 9,
        "6476": 114,
        "6477": 183,
        "6478": 148,
        "6479": 239,
        "6480": 69,
        "6481": 51,
        "6482": 88,
        "6483": 47,
        "6484": 59,
        "6485": 132,
        "6486": 165,
        "6487": 193,
        "6488": 121,
        "6489": 36,
        "6490": 243,
        "6491": 207,
        "6492": 246,
        "6493": 96,
        "6494": 70,
        "6495": 1,
        "6496": 165,
        "6497": 229,
        "6498": 40,
        "6499": 78,
        "6500": 12,
        "6501": 67,
        "6502": 201,
        "6503": 20,
        "6504": 234,
        "6505": 238,
        "6506": 205,
        "6507": 227,
        "6508": 134,
        "6509": 201,
        "6510": 101,
        "6511": 143,
        "6512": 163,
        "6513": 31,
        "6514": 170,
        "6515": 90,
        "6516": 121,
        "6517": 153,
        "6518": 206,
        "6519": 52,
        "6520": 15,
        "6521": 42,
        "6522": 94,
        "6523": 2,
        "6524": 6,
        "6525": 111,
        "6526": 244,
        "6527": 91,
        "6528": 142,
        "6529": 159,
        "6530": 168,
        "6531": 87,
        "6532": 215,
        "6533": 91,
        "6534": 235,
        "6535": 111,
        "6536": 112,
        "6537": 235,
        "6538": 136,
        "6539": 214,
        "6540": 240,
        "6541": 202,
        "6542": 204,
        "6543": 78,
        "6544": 13,
        "6545": 65,
        "6546": 166,
        "6547": 123,
        "6548": 251,
        "6549": 189,
        "6550": 41,
        "6551": 114,
        "6552": 255,
        "6553": 103,
        "6554": 18,
        "6555": 85,
        "6556": 151,
        "6557": 28,
        "6558": 83,
        "6559": 28,
        "6560": 8,
        "6561": 61,
        "6562": 164,
        "6563": 114,
        "6564": 150,
        "6565": 250,
        "6566": 47,
        "6567": 156,
        "6568": 29,
        "6569": 23,
        "6570": 228,
        "6571": 94,
        "6572": 90,
        "6573": 94,
        "6574": 159,
        "6575": 91,
        "6576": 159,
        "6577": 236,
        "6578": 67,
        "6579": 195,
        "6580": 29,
        "6581": 107,
        "6582": 14,
        "6583": 98,
        "6584": 95,
        "6585": 123,
        "6586": 78,
        "6587": 29,
        "6588": 206,
        "6589": 147,
        "6590": 37,
        "6591": 137,
        "6592": 127,
        "6593": 43,
        "6594": 238,
        "6595": 55,
        "6596": 200,
        "6597": 120,
        "6598": 171,
        "6599": 255,
        "6600": 95,
        "6601": 225,
        "6602": 164,
        "6603": 182,
        "6604": 18,
        "6605": 47,
        "6606": 201,
        "6607": 48,
        "6608": 223,
        "6609": 165,
        "6610": 34,
        "6611": 226,
        "6612": 204,
        "6613": 41,
        "6614": 197,
        "6615": 162,
        "6616": 90,
        "6617": 33,
        "6618": 137,
        "6619": 118,
        "6620": 236,
        "6621": 87,
        "6622": 139,
        "6623": 182,
        "6624": 244,
        "6625": 133,
        "6626": 233,
        "6627": 247,
        "6628": 21,
        "6629": 137,
        "6630": 215,
        "6631": 84,
        "6632": 21,
        "6633": 137,
        "6634": 136,
        "6635": 28,
        "6636": 62,
        "6637": 117,
        "6638": 82,
        "6639": 184,
        "6640": 234,
        "6641": 227,
        "6642": 108,
        "6643": 75,
        "6644": 167,
        "6645": 104,
        "6646": 16,
        "6647": 152,
        "6648": 192,
        "6649": 246,
        "6650": 206,
        "6651": 95,
        "6652": 61,
        "6653": 93,
        "6654": 240,
        "6655": 200,
        "6656": 85,
        "6657": 42,
        "6658": 210,
        "6659": 240,
        "6660": 20,
        "6661": 193,
        "6662": 87,
        "6663": 48,
        "6664": 237,
        "6665": 111,
        "6666": 102,
        "6667": 135,
        "6668": 221,
        "6669": 22,
        "6670": 26,
        "6671": 89,
        "6672": 95,
        "6673": 48,
        "6674": 0,
        "6675": 25,
        "6676": 244,
        "6677": 162,
        "6678": 182,
        "6679": 84,
        "6680": 241,
        "6681": 115,
        "6682": 40,
        "6683": 81,
        "6684": 39,
        "6685": 243,
        "6686": 65,
        "6687": 239,
        "6688": 183,
        "6689": 89,
        "6690": 57,
        "6691": 143,
        "6692": 160,
        "6693": 189,
        "6694": 147,
        "6695": 239,
        "6696": 164,
        "6697": 87,
        "6698": 86,
        "6699": 42,
        "6700": 70,
        "6701": 15,
        "6702": 247,
        "6703": 39,
        "6704": 85,
        "6705": 120,
        "6706": 40,
        "6707": 92,
        "6708": 0,
        "6709": 233,
        "6710": 254,
        "6711": 51,
        "6712": 49,
        "6713": 137,
        "6714": 198,
        "6715": 182,
        "6716": 185,
        "6717": 146,
        "6718": 244,
        "6719": 212,
        "6720": 154,
        "6721": 146,
        "6722": 173,
        "6723": 144,
        "6724": 235,
        "6725": 69,
        "6726": 130,
        "6727": 4,
        "6728": 20,
        "6729": 224,
        "6730": 63,
        "6731": 81,
        "6732": 119,
        "6733": 104,
        "6734": 193,
        "6735": 103,
        "6736": 244,
        "6737": 65,
        "6738": 54,
        "6739": 173,
        "6740": 38,
        "6741": 117,
        "6742": 53,
        "6743": 46,
        "6744": 89,
        "6745": 120,
        "6746": 47,
        "6747": 9,
        "6748": 36,
        "6749": 23,
        "6750": 204,
        "6751": 51,
        "6752": 180,
        "6753": 227,
        "6754": 71,
        "6755": 198,
        "6756": 99,
        "6757": 45,
        "6758": 179,
        "6759": 108,
        "6760": 176,
        "6761": 183,
        "6762": 49,
        "6763": 136,
        "6764": 157,
        "6765": 48,
        "6766": 169,
        "6767": 68,
        "6768": 119,
        "6769": 21,
        "6770": 73,
        "6771": 65,
        "6772": 131,
        "6773": 26,
        "6774": 239,
        "6775": 166,
        "6776": 72,
        "6777": 17,
        "6778": 243,
        "6779": 106,
        "6780": 25,
        "6781": 230,
        "6782": 216,
        "6783": 58,
        "6784": 152,
        "6785": 213,
        "6786": 104,
        "6787": 17,
        "6788": 59,
        "6789": 218,
        "6790": 144,
        "6791": 55,
        "6792": 46,
        "6793": 100,
        "6794": 34,
        "6795": 83,
        "6796": 150,
        "6797": 69,
        "6798": 46,
        "6799": 25,
        "6800": 77,
        "6801": 3,
        "6802": 165,
        "6803": 240,
        "6804": 27,
        "6805": 71,
        "6806": 43,
        "6807": 3,
        "6808": 55,
        "6809": 55,
        "6810": 242,
        "6811": 24,
        "6812": 211,
        "6813": 84,
        "6814": 31,
        "6815": 199,
        "6816": 162,
        "6817": 136,
        "6818": 180,
        "6819": 175,
        "6820": 102,
        "6821": 106,
        "6822": 140,
        "6823": 37,
        "6824": 117,
        "6825": 214,
        "6826": 250,
        "6827": 31,
        "6828": 232,
        "6829": 214,
        "6830": 134,
        "6831": 112,
        "6832": 188,
        "6833": 255,
        "6834": 158,
        "6835": 49,
        "6836": 235,
        "6837": 151,
        "6838": 4,
        "6839": 94,
        "6840": 54,
        "6841": 135,
        "6842": 158,
        "6843": 234,
        "6844": 81,
        "6845": 154,
        "6846": 118,
        "6847": 94,
        "6848": 241,
        "6849": 75,
        "6850": 138,
        "6851": 109,
        "6852": 250,
        "6853": 112,
        "6854": 58,
        "6855": 182,
        "6856": 47,
        "6857": 77,
        "6858": 184,
        "6859": 71,
        "6860": 99,
        "6861": 143,
        "6862": 72,
        "6863": 142,
        "6864": 217,
        "6865": 175,
        "6866": 164,
        "6867": 28,
        "6868": 75,
        "6869": 237,
        "6870": 74,
        "6871": 132,
        "6872": 203,
        "6873": 60,
        "6874": 9,
        "6875": 7,
        "6876": 52,
        "6877": 202,
        "6878": 105,
        "6879": 173,
        "6880": 43,
        "6881": 10,
        "6882": 94,
        "6883": 137,
        "6884": 81,
        "6885": 120,
        "6886": 34,
        "6887": 76,
        "6888": 174,
        "6889": 234,
        "6890": 214,
        "6891": 100,
        "6892": 44,
        "6893": 80,
        "6894": 227,
        "6895": 14,
        "6896": 244,
        "6897": 201,
        "6898": 24,
        "6899": 198,
        "6900": 29,
        "6901": 216,
        "6902": 222,
        "6903": 36,
        "6904": 235,
        "6905": 197,
        "6906": 72,
        "6907": 134,
        "6908": 239,
        "6909": 207,
        "6910": 152,
        "6911": 9,
        "6912": 4,
        "6913": 159,
        "6914": 93,
        "6915": 16,
        "6916": 214,
        "6917": 98,
        "6918": 85,
        "6919": 75,
        "6920": 66,
        "6921": 206,
        "6922": 126,
        "6923": 59,
        "6924": 188,
        "6925": 200,
        "6926": 131,
        "6927": 42,
        "6928": 225,
        "6929": 229,
        "6930": 182,
        "6931": 209,
        "6932": 190,
        "6933": 96,
        "6934": 88,
        "6935": 25,
        "6936": 53,
        "6937": 76,
        "6938": 184,
        "6939": 29,
        "6940": 246,
        "6941": 46,
        "6942": 20,
        "6943": 76,
        "6944": 38,
        "6945": 100,
        "6946": 114,
        "6947": 58,
        "6948": 191,
        "6949": 125,
        "6950": 143,
        "6951": 245,
        "6952": 60,
        "6953": 46,
        "6954": 50,
        "6955": 159,
        "6956": 167,
        "6957": 99,
        "6958": 169,
        "6959": 19,
        "6960": 186,
        "6961": 94,
        "6962": 146,
        "6963": 206,
        "6964": 243,
        "6965": 195,
        "6966": 222,
        "6967": 97,
        "6968": 72,
        "6969": 98,
        "6970": 168,
        "6971": 252,
        "6972": 146,
        "6973": 192,
        "6974": 125,
        "6975": 98,
        "6976": 229,
        "6977": 69,
        "6978": 212,
        "6979": 68,
        "6980": 24,
        "6981": 67,
        "6982": 207,
        "6983": 236,
        "6984": 249,
        "6985": 193,
        "6986": 27,
        "6987": 191,
        "6988": 37,
        "6989": 55,
        "6990": 128,
        "6991": 7,
        "6992": 9,
        "6993": 11,
        "6994": 92,
        "6995": 88,
        "6996": 185,
        "6997": 242,
        "6998": 132,
        "6999": 188,
        "7000": 78,
        "7001": 205,
        "7002": 111,
        "7003": 162,
        "7004": 58,
        "7005": 95,
        "7006": 130,
        "7007": 29,
        "7008": 48,
        "7009": 57,
        "7010": 57,
        "7011": 66,
        "7012": 228,
        "7013": 217,
        "7014": 120,
        "7015": 163,
        "7016": 221,
        "7017": 221,
        "7018": 60,
        "7019": 243,
        "7020": 181,
        "7021": 224,
        "7022": 80,
        "7023": 11,
        "7024": 8,
        "7025": 215,
        "7026": 13,
        "7027": 83,
        "7028": 92,
        "7029": 152,
        "7030": 189,
        "7031": 16,
        "7032": 240,
        "7033": 19,
        "7034": 36,
        "7035": 45,
        "7036": 187,
        "7037": 219,
        "7038": 199,
        "7039": 217,
        "7040": 78,
        "7041": 224,
        "7042": 18,
        "7043": 109,
        "7044": 156,
        "7045": 32,
        "7046": 221,
        "7047": 157,
        "7048": 10,
        "7049": 24,
        "7050": 97,
        "7051": 191,
        "7052": 49,
        "7053": 13,
        "7054": 148,
        "7055": 7,
        "7056": 72,
        "7057": 174,
        "7058": 214,
        "7059": 89,
        "7060": 115,
        "7061": 147,
        "7062": 88,
        "7063": 184,
        "7064": 188,
        "7065": 218,
        "7066": 30,
        "7067": 145,
        "7068": 22,
        "7069": 6,
        "7070": 140,
        "7071": 108,
        "7072": 91,
        "7073": 106,
        "7074": 187,
        "7075": 160,
        "7076": 235,
        "7077": 103,
        "7078": 21,
        "7079": 76,
        "7080": 49,
        "7081": 24,
        "7082": 119,
        "7083": 138,
        "7084": 237,
        "7085": 212,
        "7086": 196,
        "7087": 209,
        "7088": 48,
        "7089": 199,
        "7090": 20,
        "7091": 13,
        "7092": 188,
        "7093": 232,
        "7094": 127,
        "7095": 196,
        "7096": 140,
        "7097": 178,
        "7098": 196,
        "7099": 192,
        "7100": 166,
        "7101": 180,
        "7102": 132,
        "7103": 169,
        "7104": 112,
        "7105": 45,
        "7106": 79,
        "7107": 197,
        "7108": 30,
        "7109": 101,
        "7110": 13,
        "7111": 123,
        "7112": 188,
        "7113": 132,
        "7114": 157,
        "7115": 252,
        "7116": 36,
        "7117": 76,
        "7118": 110,
        "7119": 222,
        "7120": 205,
        "7121": 99,
        "7122": 193,
        "7123": 216,
        "7124": 189,
        "7125": 180,
        "7126": 76,
        "7127": 124,
        "7128": 31,
        "7129": 146,
        "7130": 52,
        "7131": 185,
        "7132": 118,
        "7133": 70,
        "7134": 207,
        "7135": 9,
        "7136": 192,
        "7137": 218,
        "7138": 24,
        "7139": 222,
        "7140": 12,
        "7141": 199,
        "7142": 75,
        "7143": 62,
        "7144": 46,
        "7145": 87,
        "7146": 110,
        "7147": 247,
        "7148": 22,
        "7149": 220,
        "7150": 151,
        "7151": 137,
        "7152": 138,
        "7153": 203,
        "7154": 10,
        "7155": 110,
        "7156": 29,
        "7157": 199,
        "7158": 88,
        "7159": 55,
        "7160": 211,
        "7161": 158,
        "7162": 228,
        "7163": 162,
        "7164": 234,
        "7165": 82,
        "7166": 128,
        "7167": 67,
        "7168": 197,
        "7169": 202,
        "7170": 79,
        "7171": 250,
        "7172": 190,
        "7173": 104,
        "7174": 1,
        "7175": 240,
        "7176": 3,
        "7177": 100,
        "7178": 168,
        "7179": 122,
        "7180": 255,
        "7181": 181,
        "7182": 150,
        "7183": 216,
        "7184": 158,
        "7185": 221,
        "7186": 35,
        "7187": 137,
        "7188": 207,
        "7189": 140,
        "7190": 199,
        "7191": 3,
        "7192": 181,
        "7193": 75,
        "7194": 9,
        "7195": 142,
        "7196": 39,
        "7197": 102,
        "7198": 201,
        "7199": 112,
        "7200": 23,
        "7201": 60,
        "7202": 115,
        "7203": 207,
        "7204": 57,
        "7205": 150,
        "7206": 81,
        "7207": 241,
        "7208": 44,
        "7209": 185,
        "7210": 23,
        "7211": 114,
        "7212": 135,
        "7213": 140,
        "7214": 38,
        "7215": 250,
        "7216": 145,
        "7217": 117,
        "7218": 109,
        "7219": 145,
        "7220": 254,
        "7221": 120,
        "7222": 238,
        "7223": 212,
        "7224": 10,
        "7225": 250,
        "7226": 230,
        "7227": 144,
        "7228": 239,
        "7229": 49,
        "7230": 123,
        "7231": 6,
        "7232": 69,
        "7233": 161,
        "7234": 76,
        "7235": 133,
        "7236": 182,
        "7237": 132,
        "7238": 88,
        "7239": 193,
        "7240": 61,
        "7241": 7,
        "7242": 124,
        "7243": 229,
        "7244": 31,
        "7245": 164,
        "7246": 51,
        "7247": 1,
        "7248": 28,
        "7249": 247,
        "7250": 70,
        "7251": 32,
        "7252": 9,
        "7253": 26,
        "7254": 57,
        "7255": 2,
        "7256": 82,
        "7257": 152,
        "7258": 30,
        "7259": 123,
        "7260": 41,
        "7261": 216,
        "7262": 238,
        "7263": 29,
        "7264": 142,
        "7265": 219,
        "7266": 153,
        "7267": 71,
        "7268": 114,
        "7269": 128,
        "7270": 175,
        "7271": 221,
        "7272": 76,
        "7273": 173,
        "7274": 213,
        "7275": 115,
        "7276": 189,
        "7277": 1,
        "7278": 122,
        "7279": 160,
        "7280": 92,
        "7281": 84,
        "7282": 146,
        "7283": 204,
        "7284": 16,
        "7285": 161,
        "7286": 118,
        "7287": 186,
        "7288": 118,
        "7289": 6,
        "7290": 130,
        "7291": 198,
        "7292": 255,
        "7293": 98,
        "7294": 56,
        "7295": 242,
        "7296": 66,
        "7297": 37,
        "7298": 203,
        "7299": 150,
        "7300": 149,
        "7301": 36,
        "7302": 188,
        "7303": 118,
        "7304": 147,
        "7305": 124,
        "7306": 235,
        "7307": 43,
        "7308": 56,
        "7309": 184,
        "7310": 85,
        "7311": 75,
        "7312": 138,
        "7313": 168,
        "7314": 124,
        "7315": 153,
        "7316": 209,
        "7317": 110,
        "7318": 112,
        "7319": 87,
        "7320": 106,
        "7321": 185,
        "7322": 14,
        "7323": 62,
        "7324": 133,
        "7325": 219,
        "7326": 201,
        "7327": 6,
        "7328": 100,
        "7329": 236,
        "7330": 93,
        "7331": 96,
        "7332": 47,
        "7333": 221,
        "7334": 60,
        "7335": 41,
        "7336": 114,
        "7337": 10,
        "7338": 139,
        "7339": 157,
        "7340": 167,
        "7341": 165,
        "7342": 160,
        "7343": 26,
        "7344": 182,
        "7345": 226,
        "7346": 203,
        "7347": 110,
        "7348": 248,
        "7349": 127,
        "7350": 181,
        "7351": 171,
        "7352": 255,
        "7353": 138,
        "7354": 48,
        "7355": 243,
        "7356": 69,
        "7357": 20,
        "7358": 79,
        "7359": 40,
        "7360": 38,
        "7361": 58,
        "7362": 228,
        "7363": 204,
        "7364": 244,
        "7365": 57,
        "7366": 46,
        "7367": 11,
        "7368": 173,
        "7369": 135,
        "7370": 183,
        "7371": 64,
        "7372": 191,
        "7373": 192,
        "7374": 156,
        "7375": 251,
        "7376": 61,
        "7377": 117,
        "7378": 198,
        "7379": 121,
        "7380": 51,
        "7381": 160,
        "7382": 238,
        "7383": 61,
        "7384": 171,
        "7385": 163,
        "7386": 189,
        "7387": 95,
        "7388": 190,
        "7389": 172,
        "7390": 228,
        "7391": 164,
        "7392": 145,
        "7393": 231,
        "7394": 34,
        "7395": 84,
        "7396": 165,
        "7397": 126,
        "7398": 191,
        "7399": 202,
        "7400": 12,
        "7401": 74,
        "7402": 210,
        "7403": 206,
        "7404": 248,
        "7405": 97,
        "7406": 51,
        "7407": 12,
        "7408": 227,
        "7409": 113,
        "7410": 96,
        "7411": 221,
        "7412": 83,
        "7413": 112,
        "7414": 65,
        "7415": 86,
        "7416": 36,
        "7417": 196,
        "7418": 155,
        "7419": 214,
        "7420": 18,
        "7421": 91,
        "7422": 122,
        "7423": 4,
        "7424": 43,
        "7425": 255,
        "7426": 135,
        "7427": 248,
        "7428": 82,
        "7429": 164,
        "7430": 241,
        "7431": 217,
        "7432": 39,
        "7433": 89,
        "7434": 57,
        "7435": 5,
        "7436": 86,
        "7437": 93,
        "7438": 174,
        "7439": 150,
        "7440": 146,
        "7441": 102,
        "7442": 130,
        "7443": 110,
        "7444": 59,
        "7445": 86,
        "7446": 144,
        "7447": 248,
        "7448": 144,
        "7449": 59,
        "7450": 162,
        "7451": 188,
        "7452": 54,
        "7453": 230,
        "7454": 77,
        "7455": 109,
        "7456": 195,
        "7457": 145,
        "7458": 215,
        "7459": 50,
        "7460": 101,
        "7461": 251,
        "7462": 73,
        "7463": 110,
        "7464": 244,
        "7465": 188,
        "7466": 223,
        "7467": 87,
        "7468": 54,
        "7469": 34,
        "7470": 186,
        "7471": 59,
        "7472": 75,
        "7473": 150,
        "7474": 198,
        "7475": 151,
        "7476": 215,
        "7477": 124,
        "7478": 173,
        "7479": 52,
        "7480": 180,
        "7481": 92,
        "7482": 25,
        "7483": 146,
        "7484": 25,
        "7485": 30,
        "7486": 251,
        "7487": 85,
        "7488": 227,
        "7489": 144,
        "7490": 103,
        "7491": 59,
        "7492": 120,
        "7493": 120,
        "7494": 69,
        "7495": 37,
        "7496": 237,
        "7497": 74,
        "7498": 238,
        "7499": 176,
        "7500": 150,
        "7501": 132,
        "7502": 129,
        "7503": 179,
        "7504": 5,
        "7505": 190,
        "7506": 150,
        "7507": 186,
        "7508": 201,
        "7509": 109,
        "7510": 198,
        "7511": 104,
        "7512": 186,
        "7513": 10,
        "7514": 120,
        "7515": 31,
        "7516": 196,
        "7517": 73,
        "7518": 114,
        "7519": 67,
        "7520": 95,
        "7521": 11,
        "7522": 212,
        "7523": 254,
        "7524": 128,
        "7525": 81,
        "7526": 199,
        "7527": 139,
        "7528": 181,
        "7529": 82,
        "7530": 152,
        "7531": 194,
        "7532": 53,
        "7533": 248,
        "7534": 89,
        "7535": 29,
        "7536": 67,
        "7537": 222,
        "7538": 54,
        "7539": 60,
        "7540": 54,
        "7541": 255,
        "7542": 4,
        "7543": 41,
        "7544": 97,
        "7545": 93,
        "7546": 102,
        "7547": 90,
        "7548": 164,
        "7549": 214,
        "7550": 195,
        "7551": 125,
        "7552": 67,
        "7553": 217,
        "7554": 249,
        "7555": 224,
        "7556": 182,
        "7557": 243,
        "7558": 73,
        "7559": 36,
        "7560": 154,
        "7561": 189,
        "7562": 28,
        "7563": 137,
        "7564": 219,
        "7565": 59,
        "7566": 182,
        "7567": 214,
        "7568": 54,
        "7569": 253,
        "7570": 131,
        "7571": 173,
        "7572": 58,
        "7573": 28,
        "7574": 216,
        "7575": 186,
        "7576": 83,
        "7577": 227,
        "7578": 205,
        "7579": 255,
        "7580": 61,
        "7581": 52,
        "7582": 83,
        "7583": 234,
        "7584": 194,
        "7585": 65,
        "7586": 179,
        "7587": 92,
        "7588": 154,
        "7589": 242,
        "7590": 57,
        "7591": 119,
        "7592": 144,
        "7593": 52,
        "7594": 45,
        "7595": 177,
        "7596": 41,
        "7597": 139,
        "7598": 178,
        "7599": 113,
        "7600": 112,
        "7601": 151,
        "7602": 23,
        "7603": 230,
        "7604": 28,
        "7605": 227,
        "7606": 126,
        "7607": 76,
        "7608": 74,
        "7609": 254,
        "7610": 205,
        "7611": 155,
        "7612": 109,
        "7613": 28,
        "7614": 253,
        "7615": 179,
        "7616": 253,
        "7617": 3,
        "7618": 120,
        "7619": 67,
        "7620": 190,
        "7621": 195,
        "7622": 6,
        "7623": 168,
        "7624": 225,
        "7625": 163,
        "7626": 233,
        "7627": 236,
        "7628": 13,
        "7629": 196,
        "7630": 243,
        "7631": 124,
        "7632": 102,
        "7633": 42,
        "7634": 117,
        "7635": 83,
        "7636": 5,
        "7637": 56,
        "7638": 2,
        "7639": 80,
        "7640": 242,
        "7641": 131,
        "7642": 164,
        "7643": 149,
        "7644": 91,
        "7645": 202,
        "7646": 29,
        "7647": 113,
        "7648": 117,
        "7649": 29,
        "7650": 208,
        "7651": 21,
        "7652": 220,
        "7653": 130,
        "7654": 118,
        "7655": 82,
        "7656": 140,
        "7657": 70,
        "7658": 223,
        "7659": 149,
        "7660": 163,
        "7661": 12,
        "7662": 222,
        "7663": 46,
        "7664": 244,
        "7665": 160,
        "7666": 85,
        "7667": 251,
        "7668": 78,
        "7669": 200,
        "7670": 76,
        "7671": 131,
        "7672": 80,
        "7673": 0,
        "7674": 76,
        "7675": 94,
        "7676": 1,
        "7677": 132,
        "7678": 125,
        "7679": 15,
        "7680": 163,
        "7681": 215,
        "7682": 11,
        "7683": 99,
        "7684": 51,
        "7685": 100,
        "7686": 226,
        "7687": 18,
        "7688": 232,
        "7689": 79,
        "7690": 41,
        "7691": 233,
        "7692": 47,
        "7693": 138,
        "7694": 44,
        "7695": 60,
        "7696": 161,
        "7697": 149,
        "7698": 5,
        "7699": 118,
        "7700": 140,
        "7701": 19,
        "7702": 199,
        "7703": 220,
        "7704": 241,
        "7705": 249,
        "7706": 178,
        "7707": 254,
        "7708": 247,
        "7709": 208,
        "7710": 143,
        "7711": 76,
        "7712": 175,
        "7713": 45,
        "7714": 203,
        "7715": 246,
        "7716": 42,
        "7717": 41,
        "7718": 119,
        "7719": 109,
        "7720": 202,
        "7721": 48,
        "7722": 248,
        "7723": 112,
        "7724": 139,
        "7725": 82,
        "7726": 134,
        "7727": 109,
        "7728": 172,
        "7729": 173,
        "7730": 169,
        "7731": 148,
        "7732": 170,
        "7733": 206,
        "7734": 237,
        "7735": 89,
        "7736": 246,
        "7737": 241,
        "7738": 85,
        "7739": 11,
        "7740": 166,
        "7741": 184,
        "7742": 45,
        "7743": 186,
        "7744": 126,
        "7745": 21,
        "7746": 150,
        "7747": 112,
        "7748": 56,
        "7749": 215,
        "7750": 98,
        "7751": 57,
        "7752": 96,
        "7753": 172,
        "7754": 29,
        "7755": 240,
        "7756": 253,
        "7757": 167,
        "7758": 194,
        "7759": 180,
        "7760": 153,
        "7761": 83,
        "7762": 201,
        "7763": 1,
        "7764": 62,
        "7765": 241,
        "7766": 238,
        "7767": 239,
        "7768": 45,
        "7769": 189,
        "7770": 216,
        "7771": 167,
        "7772": 14,
        "7773": 227,
        "7774": 224,
        "7775": 43,
        "7776": 87,
        "7777": 226,
        "7778": 65,
        "7779": 74,
        "7780": 174,
        "7781": 199,
        "7782": 58,
        "7783": 32,
        "7784": 230,
        "7785": 218,
        "7786": 14,
        "7787": 162,
        "7788": 190,
        "7789": 54,
        "7790": 88,
        "7791": 6,
        "7792": 34,
        "7793": 127,
        "7794": 28,
        "7795": 21,
        "7796": 164,
        "7797": 142,
        "7798": 157,
        "7799": 113,
        "7800": 14,
        "7801": 84,
        "7802": 132,
        "7803": 87,
        "7804": 91,
        "7805": 133,
        "7806": 224,
        "7807": 14,
        "7808": 251,
        "7809": 175,
        "7810": 232,
        "7811": 37,
        "7812": 17,
        "7813": 105,
        "7814": 251,
        "7815": 93,
        "7816": 127,
        "7817": 213,
        "7818": 149,
        "7819": 124,
        "7820": 183,
        "7821": 29,
        "7822": 114,
        "7823": 201,
        "7824": 202,
        "7825": 169,
        "7826": 18,
        "7827": 110,
        "7828": 148,
        "7829": 75,
        "7830": 211,
        "7831": 86,
        "7832": 138,
        "7833": 148,
        "7834": 136,
        "7835": 87,
        "7836": 70,
        "7837": 60,
        "7838": 184,
        "7839": 45,
        "7840": 87,
        "7841": 149,
        "7842": 48,
        "7843": 90,
        "7844": 35,
        "7845": 114,
        "7846": 157,
        "7847": 166,
        "7848": 105,
        "7849": 61,
        "7850": 92,
        "7851": 124,
        "7852": 250,
        "7853": 29,
        "7854": 13,
        "7855": 53,
        "7856": 243,
        "7857": 145,
        "7858": 159,
        "7859": 136,
        "7860": 254,
        "7861": 103,
        "7862": 244,
        "7863": 85,
        "7864": 179,
        "7865": 118,
        "7866": 221,
        "7867": 54,
        "7868": 26,
        "7869": 239,
        "7870": 190,
        "7871": 34,
        "7872": 12,
        "7873": 67,
        "7874": 191,
        "7875": 10,
        "7876": 100,
        "7877": 137,
        "7878": 109,
        "7879": 59,
        "7880": 131,
        "7881": 22,
        "7882": 65,
        "7883": 187,
        "7884": 79,
        "7885": 37,
        "7886": 178,
        "7887": 14,
        "7888": 69,
        "7889": 190,
        "7890": 197,
        "7891": 112,
        "7892": 34,
        "7893": 42,
        "7894": 242,
        "7895": 47,
        "7896": 224,
        "7897": 82,
        "7898": 44,
        "7899": 248,
        "7900": 135,
        "7901": 52,
        "7902": 110,
        "7903": 135,
        "7904": 112,
        "7905": 220,
        "7906": 53,
        "7907": 128,
        "7908": 185,
        "7909": 193,
        "7910": 244,
        "7911": 63,
        "7912": 70,
        "7913": 156,
        "7914": 122,
        "7915": 249,
        "7916": 47,
        "7917": 216,
        "7918": 54,
        "7919": 128,
        "7920": 161,
        "7921": 34,
        "7922": 112,
        "7923": 34,
        "7924": 122,
        "7925": 30,
        "7926": 142,
        "7927": 19,
        "7928": 182,
        "7929": 85,
        "7930": 254,
        "7931": 178,
        "7932": 213,
        "7933": 209,
        "7934": 58,
        "7935": 243,
        "7936": 101,
        "7937": 223,
        "7938": 143,
        "7939": 173,
        "7940": 135,
        "7941": 84,
        "7942": 163,
        "7943": 114,
        "7944": 204,
        "7945": 183,
        "7946": 73,
        "7947": 252,
        "7948": 52,
        "7949": 108,
        "7950": 218,
        "7951": 163,
        "7952": 146,
        "7953": 229,
        "7954": 245,
        "7955": 236,
        "7956": 45,
        "7957": 37,
        "7958": 110,
        "7959": 240,
        "7960": 125,
        "7961": 93,
        "7962": 172,
        "7963": 161,
        "7964": 178,
        "7965": 71,
        "7966": 184,
        "7967": 123,
        "7968": 255,
        "7969": 150,
        "7970": 79,
        "7971": 194,
        "7972": 210,
        "7973": 123,
        "7974": 0,
        "7975": 91,
        "7976": 46,
        "7977": 10,
        "7978": 134,
        "7979": 159,
        "7980": 10,
        "7981": 213,
        "7982": 170,
        "7983": 136,
        "7984": 3,
        "7985": 133,
        "7986": 165,
        "7987": 128,
        "7988": 183,
        "7989": 122,
        "7990": 60,
        "7991": 7,
        "7992": 86,
        "7993": 26,
        "7994": 13,
        "7995": 0,
        "7996": 227,
        "7997": 194,
        "7998": 8,
        "7999": 118,
        "8000": 173,
        "8001": 226,
        "8002": 194,
        "8003": 155,
        "8004": 54,
        "8005": 1,
        "8006": 210,
        "8007": 199,
        "8008": 168,
        "8009": 217,
        "8010": 7,
        "8011": 234,
        "8012": 154,
        "8013": 133,
        "8014": 168,
        "8015": 26,
        "8016": 211,
        "8017": 93,
        "8018": 243,
        "8019": 192,
        "8020": 72,
        "8021": 216,
        "8022": 18,
        "8023": 142,
        "8024": 210,
        "8025": 193,
        "8026": 128,
        "8027": 3,
        "8028": 157,
        "8029": 67,
        "8030": 178,
        "8031": 87,
        "8032": 27,
        "8033": 213,
        "8034": 237,
        "8035": 253,
        "8036": 173,
        "8037": 159,
        "8038": 12,
        "8039": 112,
        "8040": 248,
        "8041": 52,
        "8042": 43,
        "8043": 92,
        "8044": 78,
        "8045": 71,
        "8046": 64,
        "8047": 239,
        "8048": 147,
        "8049": 20,
        "8050": 15,
        "8051": 128,
        "8052": 42,
        "8053": 76,
        "8054": 133,
        "8055": 126,
        "8056": 96,
        "8057": 167,
        "8058": 154,
        "8059": 76,
        "8060": 188,
        "8061": 93,
        "8062": 75,
        "8063": 218,
        "8064": 210,
        "8065": 0,
        "8066": 206,
        "8067": 10,
        "8068": 54,
        "8069": 135,
        "8070": 176,
        "8071": 209,
        "8072": 229,
        "8073": 213,
        "8074": 63,
        "8075": 8,
        "8076": 234,
        "8077": 116,
        "8078": 132,
        "8079": 28,
        "8080": 237,
        "8081": 159,
        "8082": 165,
        "8083": 154,
        "8084": 64,
        "8085": 254,
        "8086": 55,
        "8087": 69,
        "8088": 192,
        "8089": 1,
        "8090": 180,
        "8091": 20,
        "8092": 67,
        "8093": 28,
        "8094": 233,
        "8095": 5,
        "8096": 67,
        "8097": 221,
        "8098": 255,
        "8099": 241,
        "8100": 117,
        "8101": 23,
        "8102": 77,
        "8103": 48,
        "8104": 212,
        "8105": 66,
        "8106": 47,
        "8107": 178,
        "8108": 22,
        "8109": 218,
        "8110": 82,
        "8111": 74,
        "8112": 197,
        "8113": 140,
        "8114": 73,
        "8115": 34,
        "8116": 29,
        "8117": 89,
        "8118": 206,
        "8119": 170,
        "8120": 210,
        "8121": 80,
        "8122": 23,
        "8123": 32,
        "8124": 151,
        "8125": 19,
        "8126": 44,
        "8127": 101,
        "8128": 149,
        "8129": 205,
        "8130": 130,
        "8131": 156,
        "8132": 101,
        "8133": 83,
        "8134": 231,
        "8135": 65,
        "8136": 199,
        "8137": 157,
        "8138": 6,
        "8139": 117,
        "8140": 71,
        "8141": 220,
        "8142": 114,
        "8143": 139,
        "8144": 248,
        "8145": 131,
        "8146": 48,
        "8147": 204,
        "8148": 164,
        "8149": 196,
        "8150": 217,
        "8151": 13,
        "8152": 97,
        "8153": 104,
        "8154": 15,
        "8155": 161,
        "8156": 245,
        "8157": 204,
        "8158": 88,
        "8159": 252,
        "8160": 35,
        "8161": 193,
        "8162": 248,
        "8163": 44,
        "8164": 230,
        "8165": 116,
        "8166": 185,
        "8167": 73,
        "8168": 157,
        "8169": 102,
        "8170": 33,
        "8171": 183,
        "8172": 45,
        "8173": 220,
        "8174": 103,
        "8175": 160,
        "8176": 153,
        "8177": 203,
        "8178": 192,
        "8179": 140,
        "8180": 37,
        "8181": 212,
        "8182": 66,
        "8183": 99,
        "8184": 185,
        "8185": 93,
        "8186": 162,
        "8187": 1,
        "8188": 99,
        "8189": 223,
        "8190": 28,
        "8191": 133,
        "8192": 251,
        "8193": 251,
        "8194": 24,
        "8195": 125,
        "8196": 122,
        "8197": 98,
        "8198": 68,
        "8199": 215,
        "8200": 63,
        "8201": 107,
        "8202": 177,
        "8203": 96,
        "8204": 84,
        "8205": 205,
        "8206": 253,
        "8207": 160,
        "8208": 62,
        "8209": 18,
        "8210": 187,
        "8211": 17,
        "8212": 38,
        "8213": 13,
        "8214": 68,
        "8215": 92,
        "8216": 110,
        "8217": 119,
        "8218": 28,
        "8219": 130,
        "8220": 67,
        "8221": 221,
        "8222": 145,
        "8223": 155,
        "8224": 45,
        "8225": 20,
        "8226": 227,
        "8227": 32,
        "8228": 123,
        "8229": 107,
        "8230": 215,
        "8231": 15,
        "8232": 63,
        "8233": 224,
        "8234": 202,
        "8235": 32,
        "8236": 129,
        "8237": 42,
        "8238": 119,
        "8239": 201,
        "8240": 213,
        "8241": 62,
        "8242": 171,
        "8243": 40,
        "8244": 180,
        "8245": 33,
        "8246": 1,
        "8247": 61,
        "8248": 26,
        "8249": 45,
        "8250": 163,
        "8251": 132,
        "8252": 131,
        "8253": 65,
        "8254": 188,
        "8255": 37,
        "8256": 184,
        "8257": 206,
        "8258": 248,
        "8259": 212,
        "8260": 167,
        "8261": 184,
        "8262": 209,
        "8263": 44,
        "8264": 0,
        "8265": 124,
        "8266": 174,
        "8267": 123,
        "8268": 21,
        "8269": 247,
        "8270": 13,
        "8271": 72,
        "8272": 234,
        "8273": 185,
        "8274": 117,
        "8275": 217,
        "8276": 120,
        "8277": 6,
        "8278": 177,
        "8279": 189,
        "8280": 4,
        "8281": 100,
        "8282": 110,
        "8283": 7,
        "8284": 242,
        "8285": 84,
        "8286": 45,
        "8287": 14,
        "8288": 141,
        "8289": 99,
        "8290": 231,
        "8291": 168,
        "8292": 197,
        "8293": 114,
        "8294": 78,
        "8295": 143,
        "8296": 104,
        "8297": 150,
        "8298": 247,
        "8299": 19,
        "8300": 237,
        "8301": 39,
        "8302": 97,
        "8303": 16,
        "8304": 94,
        "8305": 251,
        "8306": 79,
        "8307": 157,
        "8308": 130,
        "8309": 139,
        "8310": 73,
        "8311": 202,
        "8312": 116,
        "8313": 199,
        "8314": 190,
        "8315": 181,
        "8316": 51,
        "8317": 181,
        "8318": 65,
        "8319": 29,
        "8320": 202,
        "8321": 77,
        "8322": 169,
        "8323": 72,
        "8324": 105,
        "8325": 160,
        "8326": 103,
        "8327": 33,
        "8328": 93,
        "8329": 113,
        "8330": 115,
        "8331": 96,
        "8332": 188,
        "8333": 21,
        "8334": 214,
        "8335": 7,
        "8336": 135,
        "8337": 33,
        "8338": 255,
        "8339": 86,
        "8340": 88,
        "8341": 66,
        "8342": 161,
        "8343": 129,
        "8344": 230,
        "8345": 159,
        "8346": 40,
        "8347": 185,
        "8348": 241,
        "8349": 24,
        "8350": 233,
        "8351": 212,
        "8352": 200,
        "8353": 26,
        "8354": 138,
        "8355": 28,
        "8356": 117,
        "8357": 136,
        "8358": 232,
        "8359": 52,
        "8360": 136,
        "8361": 236,
        "8362": 30,
        "8363": 203,
        "8364": 37,
        "8365": 183,
        "8366": 35,
        "8367": 225,
        "8368": 248,
        "8369": 139,
        "8370": 87,
        "8371": 251,
        "8372": 179,
        "8373": 14,
        "8374": 110,
        "8375": 65,
        "8376": 79,
        "8377": 64,
        "8378": 245,
        "8379": 85,
        "8380": 62,
        "8381": 86,
        "8382": 195,
        "8383": 99,
        "8384": 106,
        "8385": 48,
        "8386": 224,
        "8387": 129,
        "8388": 229,
        "8389": 66,
        "8390": 232,
        "8391": 246,
        "8392": 84,
        "8393": 143,
        "8394": 196,
        "8395": 50,
        "8396": 184,
        "8397": 247,
        "8398": 125,
        "8399": 41,
        "8400": 222,
        "8401": 140,
        "8402": 25,
        "8403": 97,
        "8404": 111,
        "8405": 161,
        "8406": 185,
        "8407": 155,
        "8408": 230,
        "8409": 72,
        "8410": 253,
        "8411": 58,
        "8412": 154,
        "8413": 198,
        "8414": 0,
        "8415": 163,
        "8416": 214,
        "8417": 27,
        "8418": 131,
        "8419": 169,
        "8420": 7,
        "8421": 19,
        "8422": 16,
        "8423": 114,
        "8424": 28,
        "8425": 36,
        "8426": 125,
        "8427": 87,
        "8428": 14,
        "8429": 68,
        "8430": 145,
        "8431": 7,
        "8432": 110,
        "8433": 249,
        "8434": 50,
        "8435": 254,
        "8436": 70,
        "8437": 58,
        "8438": 172,
        "8439": 198,
        "8440": 182,
        "8441": 39,
        "8442": 227,
        "8443": 244,
        "8444": 153,
        "8445": 93,
        "8446": 201,
        "8447": 195,
        "8448": 217,
        "8449": 45,
        "8450": 140,
        "8451": 60,
        "8452": 38,
        "8453": 222,
        "8454": 74,
        "8455": 128,
        "8456": 204,
        "8457": 231,
        "8458": 119,
        "8459": 60,
        "8460": 182,
        "8461": 108,
        "8462": 19,
        "8463": 242,
        "8464": 19,
        "8465": 253,
        "8466": 2,
        "8467": 90,
        "8468": 53,
        "8469": 106,
        "8470": 209,
        "8471": 172,
        "8472": 249,
        "8473": 157,
        "8474": 243,
        "8475": 47,
        "8476": 203,
        "8477": 177,
        "8478": 68,
        "8479": 209,
        "8480": 81,
        "8481": 27,
        "8482": 13,
        "8483": 174,
        "8484": 224,
        "8485": 229,
        "8486": 65,
        "8487": 217,
        "8488": 122,
        "8489": 78,
        "8490": 233,
        "8491": 152,
        "8492": 13,
        "8493": 231,
        "8494": 90,
        "8495": 151,
        "8496": 108,
        "8497": 37,
        "8498": 106,
        "8499": 242,
        "8500": 163,
        "8501": 64,
        "8502": 85,
        "8503": 219,
        "8504": 226,
        "8505": 228,
        "8506": 0,
        "8507": 142,
        "8508": 240,
        "8509": 44,
        "8510": 72,
        "8511": 2,
        "8512": 9,
        "8513": 93,
        "8514": 18,
        "8515": 105,
        "8516": 32,
        "8517": 18,
        "8518": 166,
        "8519": 69,
        "8520": 146,
        "8521": 91,
        "8522": 189,
        "8523": 105,
        "8524": 107,
        "8525": 105,
        "8526": 243,
        "8527": 59,
        "8528": 246,
        "8529": 174,
        "8530": 98,
        "8531": 5,
        "8532": 64,
        "8533": 95,
        "8534": 233,
        "8535": 4,
        "8536": 197,
        "8537": 0,
        "8538": 227,
        "8539": 133,
        "8540": 226,
        "8541": 28,
        "8542": 51,
        "8543": 220,
        "8544": 51,
        "8545": 215,
        "8546": 77,
        "8547": 252,
        "8548": 139,
        "8549": 73,
        "8550": 168,
        "8551": 212,
        "8552": 158,
        "8553": 168,
        "8554": 48,
        "8555": 182,
        "8556": 141,
        "8557": 157,
        "8558": 202,
        "8559": 67,
        "8560": 10,
        "8561": 145,
        "8562": 224,
        "8563": 47,
        "8564": 210,
        "8565": 109,
        "8566": 112,
        "8567": 240,
        "8568": 172,
        "8569": 100,
        "8570": 21,
        "8571": 73,
        "8572": 82,
        "8573": 141,
        "8574": 183,
        "8575": 213,
        "8576": 146,
        "8577": 227,
        "8578": 12,
        "8579": 99,
        "8580": 163,
        "8581": 40,
        "8582": 88,
        "8583": 150,
        "8584": 233,
        "8585": 76,
        "8586": 199,
        "8587": 227,
        "8588": 65,
        "8589": 174,
        "8590": 136,
        "8591": 147,
        "8592": 111,
        "8593": 122,
        "8594": 134,
        "8595": 177,
        "8596": 158,
        "8597": 56,
        "8598": 172,
        "8599": 116,
        "8600": 90,
        "8601": 190,
        "8602": 189,
        "8603": 149,
        "8604": 8,
        "8605": 161,
        "8606": 183,
        "8607": 26,
        "8608": 125,
        "8609": 206,
        "8610": 97,
        "8611": 159,
        "8612": 71,
        "8613": 37,
        "8614": 106,
        "8615": 54,
        "8616": 183,
        "8617": 221,
        "8618": 108,
        "8619": 80,
        "8620": 182,
        "8621": 13,
        "8622": 197,
        "8623": 223,
        "8624": 54,
        "8625": 176,
        "8626": 11,
        "8627": 194,
        "8628": 46,
        "8629": 117,
        "8630": 32,
        "8631": 226,
        "8632": 71,
        "8633": 10,
        "8634": 234,
        "8635": 12,
        "8636": 24,
        "8637": 195,
        "8638": 189,
        "8639": 118,
        "8640": 227,
        "8641": 69,
        "8642": 192,
        "8643": 89,
        "8644": 254,
        "8645": 238,
        "8646": 2,
        "8647": 66,
        "8648": 113,
        "8649": 187,
        "8650": 147,
        "8651": 198,
        "8652": 162,
        "8653": 44,
        "8654": 86,
        "8655": 198,
        "8656": 105,
        "8657": 171,
        "8658": 160,
        "8659": 143,
        "8660": 11,
        "8661": 129,
        "8662": 86,
        "8663": 97,
        "8664": 189,
        "8665": 228,
        "8666": 253,
        "8667": 220,
        "8668": 43,
        "8669": 35,
        "8670": 239,
        "8671": 84,
        "8672": 36,
        "8673": 120,
        "8674": 70,
        "8675": 185,
        "8676": 117,
        "8677": 209,
        "8678": 230,
        "8679": 255,
        "8680": 82,
        "8681": 113,
        "8682": 123,
        "8683": 144,
        "8684": 116,
        "8685": 40,
        "8686": 102,
        "8687": 35,
        "8688": 174,
        "8689": 230,
        "8690": 149,
        "8691": 80,
        "8692": 22,
        "8693": 128,
        "8694": 101,
        "8695": 198,
        "8696": 131,
        "8697": 226,
        "8698": 228,
        "8699": 46,
        "8700": 166,
        "8701": 169,
        "8702": 149,
        "8703": 214,
        "8704": 158,
        "8705": 45,
        "8706": 154,
        "8707": 202,
        "8708": 151,
        "8709": 236,
        "8710": 122,
        "8711": 101,
        "8712": 5,
        "8713": 209,
        "8714": 228,
        "8715": 232,
        "8716": 156,
        "8717": 149,
        "8718": 239,
        "8719": 16,
        "8720": 41,
        "8721": 202,
        "8722": 128,
        "8723": 81,
        "8724": 129,
        "8725": 122,
        "8726": 219,
        "8727": 23,
        "8728": 88,
        "8729": 81,
        "8730": 160,
        "8731": 210,
        "8732": 145,
        "8733": 3,
        "8734": 184,
        "8735": 188,
        "8736": 37,
        "8737": 42,
        "8738": 180,
        "8739": 119,
        "8740": 97,
        "8741": 1,
        "8742": 222,
        "8743": 171,
        "8744": 49,
        "8745": 73,
        "8746": 216,
        "8747": 153,
        "8748": 140,
        "8749": 30,
        "8750": 144,
        "8751": 58,
        "8752": 129,
        "8753": 136,
        "8754": 67,
        "8755": 86,
        "8756": 255,
        "8757": 199,
        "8758": 24,
        "8759": 86,
        "8760": 181,
        "8761": 70,
        "8762": 93,
        "8763": 220,
        "8764": 103,
        "8765": 13,
        "8766": 73,
        "8767": 1,
        "8768": 173,
        "8769": 51,
        "8770": 170,
        "8771": 14,
        "8772": 121,
        "8773": 255,
        "8774": 55,
        "8775": 181,
        "8776": 105,
        "8777": 223,
        "8778": 216,
        "8779": 137,
        "8780": 70,
        "8781": 185,
        "8782": 4,
        "8783": 6,
        "8784": 95,
        "8785": 162,
        "8786": 55,
        "8787": 110,
        "8788": 227,
        "8789": 54,
        "8790": 125,
        "8791": 56,
        "8792": 199,
        "8793": 157,
        "8794": 169,
        "8795": 4,
        "8796": 83,
        "8797": 18,
        "8798": 69,
        "8799": 154,
        "8800": 208,
        "8801": 129,
        "8802": 122,
        "8803": 33,
        "8804": 207,
        "8805": 77,
        "8806": 1,
        "8807": 168,
        "8808": 241,
        "8809": 189,
        "8810": 75,
        "8811": 66,
        "8812": 237,
        "8813": 225,
        "8814": 178,
        "8815": 42,
        "8816": 23,
        "8817": 138,
        "8818": 68,
        "8819": 137,
        "8820": 224,
        "8821": 100,
        "8822": 122,
        "8823": 224,
        "8824": 219,
        "8825": 190,
        "8826": 69,
        "8827": 241,
        "8828": 107,
        "8829": 23,
        "8830": 226,
        "8831": 161,
        "8832": 82,
        "8833": 220,
        "8834": 204,
        "8835": 94,
        "8836": 117,
        "8837": 30,
        "8838": 168,
        "8839": 227,
        "8840": 24,
        "8841": 2,
        "8842": 171,
        "8843": 39,
        "8844": 89,
        "8845": 232,
        "8846": 24,
        "8847": 116,
        "8848": 10,
        "8849": 150,
        "8850": 182,
        "8851": 247,
        "8852": 176,
        "8853": 161,
        "8854": 66,
        "8855": 186,
        "8856": 7,
        "8857": 212,
        "8858": 29,
        "8859": 24,
        "8860": 44,
        "8861": 92,
        "8862": 144,
        "8863": 181,
        "8864": 237,
        "8865": 0,
        "8866": 213,
        "8867": 37,
        "8868": 208,
        "8869": 20,
        "8870": 48,
        "8871": 78,
        "8872": 142,
        "8873": 33,
        "8874": 249,
        "8875": 27,
        "8876": 55,
        "8877": 248,
        "8878": 10,
        "8879": 140,
        "8880": 196,
        "8881": 129,
        "8882": 102,
        "8883": 232,
        "8884": 104,
        "8885": 134,
        "8886": 198,
        "8887": 9,
        "8888": 25,
        "8889": 214,
        "8890": 74,
        "8891": 160,
        "8892": 160,
        "8893": 148,
        "8894": 92,
        "8895": 121,
        "8896": 194,
        "8897": 54,
        "8898": 95,
        "8899": 12,
        "8900": 169,
        "8901": 236,
        "8902": 19,
        "8903": 192,
        "8904": 218,
        "8905": 162,
        "8906": 139,
        "8907": 122,
        "8908": 204,
        "8909": 99,
        "8910": 32,
        "8911": 138,
        "8912": 142,
        "8913": 175,
        "8914": 208,
        "8915": 130,
        "8916": 5,
        "8917": 179,
        "8918": 27,
        "8919": 21,
        "8920": 187,
        "8921": 16,
        "8922": 215,
        "8923": 196,
        "8924": 8,
        "8925": 174,
        "8926": 169,
        "8927": 55,
        "8928": 103,
        "8929": 122,
        "8930": 214,
        "8931": 248,
        "8932": 67,
        "8933": 30,
        "8934": 152,
        "8935": 103,
        "8936": 78,
        "8937": 250,
        "8938": 91,
        "8939": 194,
        "8940": 13,
        "8941": 225,
        "8942": 2,
        "8943": 179,
        "8944": 16,
        "8945": 67,
        "8946": 6,
        "8947": 235,
        "8948": 29,
        "8949": 110,
        "8950": 95,
        "8951": 151,
        "8952": 216,
        "8953": 131,
        "8954": 253,
        "8955": 154,
        "8956": 115,
        "8957": 24,
        "8958": 203,
        "8959": 198,
        "8960": 84,
        "8961": 246,
        "8962": 0,
        "8963": 140,
        "8964": 109,
        "8965": 233,
        "8966": 110,
        "8967": 136,
        "8968": 148,
        "8969": 247,
        "8970": 10,
        "8971": 105,
        "8972": 111,
        "8973": 218,
        "8974": 181,
        "8975": 83,
        "8976": 123,
        "8977": 229,
        "8978": 11,
        "8979": 108,
        "8980": 14,
        "8981": 243,
        "8982": 10,
        "8983": 144,
        "8984": 92,
        "8985": 154,
        "8986": 11,
        "8987": 243,
        "8988": 94,
        "8989": 214,
        "8990": 210,
        "8991": 97,
        "8992": 130,
        "8993": 232,
        "8994": 186,
        "8995": 153,
        "8996": 55,
        "8997": 144,
        "8998": 152,
        "8999": 181,
        "9000": 97,
        "9001": 230,
        "9002": 120,
        "9003": 224,
        "9004": 134,
        "9005": 188,
        "9006": 34,
        "9007": 108,
        "9008": 196,
        "9009": 203,
        "9010": 30,
        "9011": 23,
        "9012": 107,
        "9013": 177,
        "9014": 134,
        "9015": 72,
        "9016": 253,
        "9017": 196,
        "9018": 161,
        "9019": 66,
        "9020": 222,
        "9021": 140,
        "9022": 241,
        "9023": 137,
        "9024": 209,
        "9025": 65,
        "9026": 213,
        "9027": 70,
        "9028": 114,
        "9029": 57,
        "9030": 66,
        "9031": 233,
        "9032": 151,
        "9033": 16,
        "9034": 162,
        "9035": 150,
        "9036": 74,
        "9037": 219,
        "9038": 66,
        "9039": 238,
        "9040": 146,
        "9041": 179,
        "9042": 129,
        "9043": 2,
        "9044": 103,
        "9045": 228,
        "9046": 252,
        "9047": 187,
        "9048": 45,
        "9049": 140,
        "9050": 70,
        "9051": 97,
        "9052": 148,
        "9053": 69,
        "9054": 85,
        "9055": 89,
        "9056": 79,
        "9057": 187,
        "9058": 71,
        "9059": 245,
        "9060": 242,
        "9061": 251,
        "9062": 85,
        "9063": 134,
        "9064": 220,
        "9065": 192,
        "9066": 156,
        "9067": 199,
        "9068": 192,
        "9069": 43,
        "9070": 1,
        "9071": 41,
        "9072": 18,
        "9073": 90,
        "9074": 136,
        "9075": 42,
        "9076": 60,
        "9077": 37,
        "9078": 220,
        "9079": 50,
        "9080": 151,
        "9081": 1,
        "9082": 212,
        "9083": 72,
        "9084": 15,
        "9085": 208,
        "9086": 73,
        "9087": 19,
        "9088": 48,
        "9089": 200,
        "9090": 99,
        "9091": 5,
        "9092": 197,
        "9093": 6,
        "9094": 131,
        "9095": 72,
        "9096": 135,
        "9097": 45,
        "9098": 2,
        "9099": 232,
        "9100": 65,
        "9101": 22,
        "9102": 249,
        "9103": 164,
        "9104": 218,
        "9105": 171,
        "9106": 77,
        "9107": 139,
        "9108": 198,
        "9109": 59,
        "9110": 101,
        "9111": 250,
        "9112": 198,
        "9113": 246,
        "9114": 93,
        "9115": 252,
        "9116": 62,
        "9117": 195,
        "9118": 6,
        "9119": 99,
        "9120": 206,
        "9121": 75,
        "9122": 59,
        "9123": 178,
        "9124": 41,
        "9125": 222,
        "9126": 77,
        "9127": 111,
        "9128": 244,
        "9129": 98,
        "9130": 111,
        "9131": 19,
        "9132": 150,
        "9133": 39,
        "9134": 21,
        "9135": 168,
        "9136": 149,
        "9137": 73,
        "9138": 176,
        "9139": 221,
        "9140": 100,
        "9141": 26,
        "9142": 92,
        "9143": 166,
        "9144": 171,
        "9145": 183,
        "9146": 107,
        "9147": 15,
        "9148": 31,
        "9149": 232,
        "9150": 151,
        "9151": 33,
        "9152": 65,
        "9153": 230,
        "9154": 12,
        "9155": 14,
        "9156": 179,
        "9157": 134,
        "9158": 157,
        "9159": 38,
        "9160": 62,
        "9161": 112,
        "9162": 187,
        "9163": 247,
        "9164": 73,
        "9165": 173,
        "9166": 12,
        "9167": 4,
        "9168": 119,
        "9169": 105,
        "9170": 42,
        "9171": 130,
        "9172": 224,
        "9173": 193,
        "9174": 232,
        "9175": 158,
        "9176": 153,
        "9177": 140,
        "9178": 174,
        "9179": 210,
        "9180": 245,
        "9181": 106,
        "9182": 121,
        "9183": 26,
        "9184": 93,
        "9185": 125,
        "9186": 151,
        "9187": 110,
        "9188": 137,
        "9189": 12,
        "9190": 21,
        "9191": 195,
        "9192": 96,
        "9193": 49,
        "9194": 248,
        "9195": 23,
        "9196": 242,
        "9197": 25,
        "9198": 3,
        "9199": 237,
        "9200": 1,
        "9201": 98,
        "9202": 229,
        "9203": 151,
        "9204": 154,
        "9205": 127,
        "9206": 208,
        "9207": 109,
        "9208": 191,
        "9209": 40,
        "9210": 163,
        "9211": 133,
        "9212": 99,
        "9213": 4,
        "9214": 107,
        "9215": 91,
        "9216": 244,
        "9217": 200,
        "9218": 28,
        "9219": 40,
        "9220": 89,
        "9221": 16,
        "9222": 4,
        "9223": 80,
        "9224": 98,
        "9225": 190,
        "9226": 231,
        "9227": 2,
        "9228": 161,
        "9229": 224,
        "9230": 218,
        "9231": 147,
        "9232": 176,
        "9233": 214,
        "9234": 206,
        "9235": 175,
        "9236": 163,
        "9237": 151,
        "9238": 30,
        "9239": 102,
        "9240": 102,
        "9241": 246,
        "9242": 52,
        "9243": 140,
        "9244": 241,
        "9245": 32,
        "9246": 32,
        "9247": 78,
        "9248": 156,
        "9249": 164,
        "9250": 86,
        "9251": 199,
        "9252": 179,
        "9253": 153,
        "9254": 202,
        "9255": 170,
        "9256": 80,
        "9257": 150,
        "9258": 200,
        "9259": 117,
        "9260": 200,
        "9261": 119,
        "9262": 181,
        "9263": 95,
        "9264": 171,
        "9265": 21,
        "9266": 32,
        "9267": 225,
        "9268": 95,
        "9269": 238,
        "9270": 91,
        "9271": 39,
        "9272": 199,
        "9273": 251,
        "9274": 33,
        "9275": 176,
        "9276": 11,
        "9277": 216,
        "9278": 123,
        "9279": 44,
        "9280": 220,
        "9281": 235,
        "9282": 210,
        "9283": 162,
        "9284": 79,
        "9285": 94,
        "9286": 18,
        "9287": 14,
        "9288": 220,
        "9289": 189,
        "9290": 184,
        "9291": 181,
        "9292": 103,
        "9293": 119,
        "9294": 200,
        "9295": 177,
        "9296": 57,
        "9297": 146,
        "9298": 204,
        "9299": 108,
        "9300": 202,
        "9301": 158,
        "9302": 104,
        "9303": 195,
        "9304": 225,
        "9305": 168,
        "9306": 149,
        "9307": 12,
        "9308": 71,
        "9309": 184,
        "9310": 86,
        "9311": 120,
        "9312": 4,
        "9313": 164,
        "9314": 19,
        "9315": 190,
        "9316": 123,
        "9317": 215,
        "9318": 138,
        "9319": 104,
        "9320": 249,
        "9321": 109,
        "9322": 20,
        "9323": 156,
        "9324": 188,
        "9325": 80,
        "9326": 220,
        "9327": 159,
        "9328": 195,
        "9329": 220,
        "9330": 255,
        "9331": 3,
        "9332": 7,
        "9333": 174,
        "9334": 151,
        "9335": 6,
        "9336": 176,
        "9337": 52,
        "9338": 160,
        "9339": 149,
        "9340": 250,
        "9341": 46,
        "9342": 173,
        "9343": 173,
        "9344": 89,
        "9345": 3,
        "9346": 165,
        "9347": 153,
        "9348": 14,
        "9349": 34,
        "9350": 110,
        "9351": 152,
        "9352": 227,
        "9353": 159,
        "9354": 27,
        "9355": 87,
        "9356": 222,
        "9357": 84,
        "9358": 169,
        "9359": 14,
        "9360": 104,
        "9361": 17,
        "9362": 34,
        "9363": 58,
        "9364": 187,
        "9365": 18,
        "9366": 207,
        "9367": 227,
        "9368": 188,
        "9369": 53,
        "9370": 191,
        "9371": 106,
        "9372": 239,
        "9373": 4,
        "9374": 27,
        "9375": 197,
        "9376": 65,
        "9377": 250,
        "9378": 197,
        "9379": 181,
        "9380": 244,
        "9381": 65,
        "9382": 20,
        "9383": 223,
        "9384": 240,
        "9385": 179,
        "9386": 169,
        "9387": 148,
        "9388": 168,
        "9389": 119,
        "9390": 222,
        "9391": 49,
        "9392": 62,
        "9393": 24,
        "9394": 70,
        "9395": 207,
        "9396": 144,
        "9397": 170,
        "9398": 147,
        "9399": 157,
        "9400": 128,
        "9401": 244,
        "9402": 109,
        "9403": 123,
        "9404": 82,
        "9405": 222,
        "9406": 145,
        "9407": 61,
        "9408": 39,
        "9409": 115,
        "9410": 169,
        "9411": 39,
        "9412": 163,
        "9413": 67,
        "9414": 202,
        "9415": 247,
        "9416": 6,
        "9417": 47,
        "9418": 174,
        "9419": 31,
        "9420": 25,
        "9421": 3,
        "9422": 234,
        "9423": 45,
        "9424": 72,
        "9425": 235,
        "9426": 139,
        "9427": 4,
        "9428": 34,
        "9429": 224,
        "9430": 192,
        "9431": 112,
        "9432": 22,
        "9433": 192,
        "9434": 229,
        "9435": 124,
        "9436": 71,
        "9437": 17,
        "9438": 100,
        "9439": 127,
        "9440": 103,
        "9441": 50,
        "9442": 203,
        "9443": 43,
        "9444": 40,
        "9445": 25,
        "9446": 113,
        "9447": 226,
        "9448": 117,
        "9449": 10,
        "9450": 246,
        "9451": 94,
        "9452": 177,
        "9453": 87,
        "9454": 124,
        "9455": 159,
        "9456": 155,
        "9457": 104,
        "9458": 87,
        "9459": 233,
        "9460": 128,
        "9461": 78,
        "9462": 145,
        "9463": 48,
        "9464": 8,
        "9465": 81,
        "9466": 189,
        "9467": 61,
        "9468": 246,
        "9469": 202,
        "9470": 162,
        "9471": 196,
        "9472": 61,
        "9473": 164,
        "9474": 202,
        "9475": 159,
        "9476": 97,
        "9477": 161,
        "9478": 64,
        "9479": 22,
        "9480": 191,
        "9481": 162,
        "9482": 96,
        "9483": 69,
        "9484": 47,
        "9485": 26,
        "9486": 181,
        "9487": 253,
        "9488": 147,
        "9489": 237,
        "9490": 112,
        "9491": 60,
        "9492": 40,
        "9493": 228,
        "9494": 28,
        "9495": 91,
        "9496": 99,
        "9497": 159,
        "9498": 60,
        "9499": 88,
        "9500": 101,
        "9501": 222,
        "9502": 225,
        "9503": 204,
        "9504": 37,
        "9505": 89,
        "9506": 209,
        "9507": 77,
        "9508": 136,
        "9509": 143,
        "9510": 146,
        "9511": 155,
        "9512": 191,
        "9513": 143,
        "9514": 208,
        "9515": 26,
        "9516": 84,
        "9517": 111,
        "9518": 195,
        "9519": 47,
        "9520": 58,
        "9521": 18,
        "9522": 175,
        "9523": 88,
        "9524": 5,
        "9525": 209,
        "9526": 92,
        "9527": 225,
        "9528": 25,
        "9529": 48,
        "9530": 6,
        "9531": 245,
        "9532": 117,
        "9533": 18,
        "9534": 73,
        "9535": 235,
        "9536": 124,
        "9537": 198,
        "9538": 5,
        "9539": 124,
        "9540": 29,
        "9541": 193,
        "9542": 180,
        "9543": 170,
        "9544": 60,
        "9545": 255,
        "9546": 182,
        "9547": 37,
        "9548": 243,
        "9549": 202,
        "9550": 137,
        "9551": 6,
        "9552": 153,
        "9553": 121,
        "9554": 146,
        "9555": 60,
        "9556": 245,
        "9557": 85,
        "9558": 75,
        "9559": 202,
        "9560": 196,
        "9561": 157,
        "9562": 45,
        "9563": 250,
        "9564": 82,
        "9565": 91,
        "9566": 141,
        "9567": 51,
        "9568": 241,
        "9569": 10,
        "9570": 68,
        "9571": 106,
        "9572": 222,
        "9573": 196,
        "9574": 23,
        "9575": 247,
        "9576": 41,
        "9577": 81,
        "9578": 182,
        "9579": 11,
        "9580": 149,
        "9581": 63,
        "9582": 106,
        "9583": 119,
        "9584": 32,
        "9585": 168,
        "9586": 2,
        "9587": 10,
        "9588": 122,
        "9589": 243,
        "9590": 225,
        "9591": 72,
        "9592": 111,
        "9593": 211,
        "9594": 222,
        "9595": 127,
        "9596": 242,
        "9597": 143,
        "9598": 115,
        "9599": 245,
        "9600": 134,
        "9601": 239,
        "9602": 39,
        "9603": 225,
        "9604": 202,
        "9605": 170,
        "9606": 102,
        "9607": 9,
        "9608": 173,
        "9609": 65,
        "9610": 249,
        "9611": 103,
        "9612": 151,
        "9613": 231,
        "9614": 246,
        "9615": 27,
        "9616": 246,
        "9617": 254,
        "9618": 9,
        "9619": 98,
        "9620": 239,
        "9621": 82,
        "9622": 102,
        "9623": 249,
        "9624": 21,
        "9625": 180,
        "9626": 108,
        "9627": 248,
        "9628": 119,
        "9629": 196,
        "9630": 183,
        "9631": 223,
        "9632": 59,
        "9633": 235,
        "9634": 45,
        "9635": 133,
        "9636": 52,
        "9637": 234,
        "9638": 197,
        "9639": 207,
        "9640": 10,
        "9641": 166,
        "9642": 189,
        "9643": 102,
        "9644": 144,
        "9645": 16,
        "9646": 252,
        "9647": 91,
        "9648": 79,
        "9649": 117,
        "9650": 59,
        "9651": 10,
        "9652": 29,
        "9653": 50,
        "9654": 204,
        "9655": 98,
        "9656": 62,
        "9657": 190,
        "9658": 23,
        "9659": 45,
        "9660": 144,
        "9661": 228,
        "9662": 32,
        "9663": 108,
        "9664": 66,
        "9665": 73,
        "9666": 240,
        "9667": 124,
        "9668": 64,
        "9669": 222,
        "9670": 107,
        "9671": 54,
        "9672": 118,
        "9673": 146,
        "9674": 96,
        "9675": 205,
        "9676": 99,
        "9677": 203,
        "9678": 11,
        "9679": 227,
        "9680": 251,
        "9681": 111,
        "9682": 64,
        "9683": 171,
        "9684": 28,
        "9685": 151,
        "9686": 182,
        "9687": 241,
        "9688": 40,
        "9689": 44,
        "9690": 192,
        "9691": 104,
        "9692": 228,
        "9693": 106,
        "9694": 126,
        "9695": 107,
        "9696": 83,
        "9697": 130,
        "9698": 190,
        "9699": 77,
        "9700": 53,
        "9701": 93,
        "9702": 70,
        "9703": 144,
        "9704": 134,
        "9705": 204,
        "9706": 100,
        "9707": 175,
        "9708": 239,
        "9709": 2,
        "9710": 4,
        "9711": 22,
        "9712": 126,
        "9713": 252,
        "9714": 175,
        "9715": 218,
        "9716": 148,
        "9717": 189,
        "9718": 147,
        "9719": 171,
        "9720": 13,
        "9721": 76,
        "9722": 48,
        "9723": 41,
        "9724": 158,
        "9725": 79,
        "9726": 32,
        "9727": 88,
        "9728": 203,
        "9729": 215,
        "9730": 152,
        "9731": 69,
        "9732": 155,
        "9733": 15,
        "9734": 52,
        "9735": 79,
        "9736": 126,
        "9737": 67,
        "9738": 138,
        "9739": 42,
        "9740": 212,
        "9741": 36,
        "9742": 124,
        "9743": 132,
        "9744": 177,
        "9745": 47,
        "9746": 78,
        "9747": 86,
        "9748": 7,
        "9749": 182,
        "9750": 22,
        "9751": 211,
        "9752": 226,
        "9753": 175,
        "9754": 212,
        "9755": 215,
        "9756": 241,
        "9757": 179,
        "9758": 190,
        "9759": 193,
        "9760": 171,
        "9761": 156,
        "9762": 247,
        "9763": 225,
        "9764": 19,
        "9765": 81,
        "9766": 96,
        "9767": 39,
        "9768": 76,
        "9769": 160,
        "9770": 58,
        "9771": 155,
        "9772": 83,
        "9773": 203,
        "9774": 226,
        "9775": 110,
        "9776": 75,
        "9777": 160,
        "9778": 126,
        "9779": 85,
        "9780": 216,
        "9781": 252,
        "9782": 18,
        "9783": 24,
        "9784": 27,
        "9785": 64,
        "9786": 238,
        "9787": 222,
        "9788": 239,
        "9789": 99,
        "9790": 82,
        "9791": 164,
        "9792": 240,
        "9793": 88,
        "9794": 227,
        "9795": 115,
        "9796": 163,
        "9797": 181,
        "9798": 55,
        "9799": 83,
        "9800": 33,
        "9801": 20,
        "9802": 39,
        "9803": 31,
        "9804": 239,
        "9805": 219,
        "9806": 144,
        "9807": 122,
        "9808": 138,
        "9809": 157,
        "9810": 181,
        "9811": 244,
        "9812": 54,
        "9813": 115,
        "9814": 32,
        "9815": 83,
        "9816": 159,
        "9817": 201,
        "9818": 75,
        "9819": 135,
        "9820": 15,
        "9821": 129,
        "9822": 4,
        "9823": 84,
        "9824": 71,
        "9825": 243,
        "9826": 21,
        "9827": 166,
        "9828": 249,
        "9829": 203,
        "9830": 19,
        "9831": 114,
        "9832": 20,
        "9833": 232,
        "9834": 14,
        "9835": 179,
        "9836": 72,
        "9837": 239,
        "9838": 129,
        "9839": 85,
        "9840": 243,
        "9841": 122,
        "9842": 125,
        "9843": 237,
        "9844": 246,
        "9845": 211,
        "9846": 99,
        "9847": 140,
        "9848": 195,
        "9849": 48,
        "9850": 130,
        "9851": 169,
        "9852": 142,
        "9853": 230,
        "9854": 226,
        "9855": 47,
        "9856": 209,
        "9857": 118,
        "9858": 197,
        "9859": 173,
        "9860": 136,
        "9861": 243,
        "9862": 110,
        "9863": 26,
        "9864": 61,
        "9865": 182,
        "9866": 32,
        "9867": 32,
        "9868": 178,
        "9869": 140,
        "9870": 172,
        "9871": 8,
        "9872": 152,
        "9873": 87,
        "9874": 19,
        "9875": 225,
        "9876": 132,
        "9877": 174,
        "9878": 95,
        "9879": 14,
        "9880": 33,
        "9881": 134,
        "9882": 131,
        "9883": 130,
        "9884": 206,
        "9885": 97,
        "9886": 234,
        "9887": 16,
        "9888": 58,
        "9889": 212,
        "9890": 160,
        "9891": 91,
        "9892": 33,
        "9893": 123,
        "9894": 36,
        "9895": 245,
        "9896": 15,
        "9897": 241,
        "9898": 72,
        "9899": 251,
        "9900": 10,
        "9901": 231,
        "9902": 244,
        "9903": 6,
        "9904": 62,
        "9905": 62,
        "9906": 199,
        "9907": 230,
        "9908": 74,
        "9909": 189,
        "9910": 105,
        "9911": 44,
        "9912": 143,
        "9913": 3,
        "9914": 156,
        "9915": 227,
        "9916": 240,
        "9917": 69,
        "9918": 107,
        "9919": 246,
        "9920": 139,
        "9921": 43,
        "9922": 195,
        "9923": 142,
        "9924": 179,
        "9925": 163,
        "9926": 5,
        "9927": 9,
        "9928": 81,
        "9929": 119,
        "9930": 192,
        "9931": 18,
        "9932": 14,
        "9933": 77,
        "9934": 217,
        "9935": 47,
        "9936": 58,
        "9937": 221,
        "9938": 157,
        "9939": 51,
        "9940": 20,
        "9941": 240,
        "9942": 39,
        "9943": 14,
        "9944": 194,
        "9945": 44,
        "9946": 43,
        "9947": 147,
        "9948": 146,
        "9949": 53,
        "9950": 37,
        "9951": 23,
        "9952": 159,
        "9953": 93,
        "9954": 124,
        "9955": 96,
        "9956": 218,
        "9957": 36,
        "9958": 107,
        "9959": 135,
        "9960": 80,
        "9961": 238,
        "9962": 199,
        "9963": 168,
        "9964": 148,
        "9965": 210,
        "9966": 47,
        "9967": 248,
        "9968": 176,
        "9969": 223,
        "9970": 38,
        "9971": 40,
        "9972": 147,
        "9973": 228,
        "9974": 86,
        "9975": 88,
        "9976": 68,
        "9977": 207,
        "9978": 130,
        "9979": 52,
        "9980": 193,
        "9981": 166,
        "9982": 69,
        "9983": 159,
        "9984": 218,
        "9985": 19,
        "9986": 201,
        "9987": 70,
        "9988": 93,
        "9989": 98,
        "9990": 193,
        "9991": 44,
        "9992": 245,
        "9993": 129,
        "9994": 102,
        "9995": 158,
        "9996": 39,
        "9997": 70,
        "9998": 215,
        "9999": 37,
        "10000": 35,
        "10001": 8,
        "10002": 6,
        "10003": 112,
        "10004": 117,
        "10005": 69,
        "10006": 18,
        "10007": 237,
        "10008": 215,
        "10009": 200,
        "10010": 118,
        "10011": 199,
        "10012": 228,
        "10013": 215,
        "10014": 214,
        "10015": 183,
        "10016": 39,
        "10017": 196,
        "10018": 144,
        "10019": 205,
        "10020": 122,
        "10021": 209,
        "10022": 106,
        "10023": 247,
        "10024": 5,
        "10025": 117,
        "10026": 136,
        "10027": 187,
        "10028": 175,
        "10029": 219,
        "10030": 65,
        "10031": 145,
        "10032": 171,
        "10033": 94,
        "10034": 18,
        "10035": 97,
        "10036": 99,
        "10037": 191,
        "10038": 71,
        "10039": 79,
        "10040": 107,
        "10041": 200,
        "10042": 42,
        "10043": 34,
        "10044": 177,
        "10045": 80,
        "10046": 74,
        "10047": 124,
        "10048": 197,
        "10049": 181,
        "10050": 79,
        "10051": 235,
        "10052": 119,
        "10053": 63,
        "10054": 131,
        "10055": 140,
        "10056": 8,
        "10057": 205,
        "10058": 9,
        "10059": 217,
        "10060": 9,
        "10061": 188,
        "10062": 79,
        "10063": 192,
        "10064": 178,
        "10065": 90,
        "10066": 162,
        "10067": 13,
        "10068": 170,
        "10069": 106,
        "10070": 146,
        "10071": 169,
        "10072": 90,
        "10073": 3,
        "10074": 102,
        "10075": 83,
        "10076": 140,
        "10077": 28,
        "10078": 7,
        "10079": 80,
        "10080": 240,
        "10081": 227,
        "10082": 82,
        "10083": 240,
        "10084": 98,
        "10085": 147,
        "10086": 224,
        "10087": 223,
        "10088": 193,
        "10089": 71,
        "10090": 147,
        "10091": 134,
        "10092": 213,
        "10093": 103,
        "10094": 229,
        "10095": 94,
        "10096": 255,
        "10097": 204,
        "10098": 237,
        "10099": 0,
        "10100": 254,
        "10101": 80,
        "10102": 124,
        "10103": 75,
        "10104": 75,
        "10105": 178,
        "10106": 148,
        "10107": 147,
        "10108": 122,
        "10109": 223,
        "10110": 129,
        "10111": 172,
        "10112": 3,
        "10113": 16,
        "10114": 147,
        "10115": 25,
        "10116": 217,
        "10117": 245,
        "10118": 98,
        "10119": 136,
        "10120": 214,
        "10121": 124,
        "10122": 13,
        "10123": 55,
        "10124": 191,
        "10125": 129,
        "10126": 142,
        "10127": 101,
        "10128": 177,
        "10129": 195,
        "10130": 237,
        "10131": 71,
        "10132": 177,
        "10133": 120,
        "10134": 187,
        "10135": 14,
        "10136": 58,
        "10137": 157,
        "10138": 155,
        "10139": 23,
        "10140": 238,
        "10141": 236,
        "10142": 229,
        "10143": 165,
        "10144": 134,
        "10145": 81,
        "10146": 153,
        "10147": 244,
        "10148": 198,
        "10149": 14,
        "10150": 0,
        "10151": 84,
        "10152": 132,
        "10153": 248,
        "10154": 221,
        "10155": 242,
        "10156": 61,
        "10157": 0,
        "10158": 45,
        "10159": 157,
        "10160": 199,
        "10161": 11,
        "10162": 161,
        "10163": 97,
        "10164": 88,
        "10165": 101,
        "10166": 57,
        "10167": 53,
        "10168": 124,
        "10169": 156,
        "10170": 162,
        "10171": 98,
        "10172": 61,
        "10173": 131,
        "10174": 101,
        "10175": 154,
        "10176": 244,
        "10177": 246,
        "10178": 1,
        "10179": 200,
        "10180": 128,
        "10181": 177,
        "10182": 89,
        "10183": 80,
        "10184": 142,
        "10185": 178,
        "10186": 242,
        "10187": 218,
        "10188": 225,
        "10189": 85,
        "10190": 49,
        "10191": 117,
        "10192": 74,
        "10193": 181,
        "10194": 183,
        "10195": 187,
        "10196": 237,
        "10197": 26,
        "10198": 45,
        "10199": 107,
        "10200": 101,
        "10201": 124,
        "10202": 154,
        "10203": 180,
        "10204": 138,
        "10205": 152,
        "10206": 139,
        "10207": 249,
        "10208": 179,
        "10209": 1,
        "10210": 64,
        "10211": 46,
        "10212": 31,
        "10213": 105,
        "10214": 0,
        "10215": 152,
        "10216": 45,
        "10217": 203,
        "10218": 54,
        "10219": 119,
        "10220": 110,
        "10221": 67,
        "10222": 109,
        "10223": 221,
        "10224": 190,
        "10225": 189,
        "10226": 120,
        "10227": 202,
        "10228": 89,
        "10229": 31,
        "10230": 21,
        "10231": 71,
        "10232": 143,
        "10233": 131,
        "10234": 27,
        "10235": 162,
        "10236": 163,
        "10237": 52,
        "10238": 219,
        "10239": 128,
        "10240": 165,
        "10241": 47,
        "10242": 187,
        "10243": 15,
        "10244": 107,
        "10245": 173,
        "10246": 12,
        "10247": 144,
        "10248": 230,
        "10249": 137,
        "10250": 71,
        "10251": 253,
        "10252": 33,
        "10253": 208,
        "10254": 205,
        "10255": 207,
        "10256": 125,
        "10257": 249,
        "10258": 173,
        "10259": 70,
        "10260": 183,
        "10261": 187,
        "10262": 203,
        "10263": 52,
        "10264": 205,
        "10265": 45,
        "10266": 167,
        "10267": 235,
        "10268": 235,
        "10269": 195,
        "10270": 157,
        "10271": 227,
        "10272": 244,
        "10273": 246,
        "10274": 169,
        "10275": 215,
        "10276": 25,
        "10277": 26,
        "10278": 119,
        "10279": 69,
        "10280": 194,
        "10281": 50,
        "10282": 7,
        "10283": 114,
        "10284": 84,
        "10285": 160,
        "10286": 24,
        "10287": 81,
        "10288": 226,
        "10289": 37,
        "10290": 247,
        "10291": 224,
        "10292": 85,
        "10293": 29,
        "10294": 91,
        "10295": 4,
        "10296": 190,
        "10297": 162,
        "10298": 175,
        "10299": 27,
        "10300": 134,
        "10301": 27,
        "10302": 78,
        "10303": 58,
        "10304": 167,
        "10305": 246,
        "10306": 142,
        "10307": 73,
        "10308": 157,
        "10309": 38,
        "10310": 12,
        "10311": 173,
        "10312": 152,
        "10313": 0,
        "10314": 30,
        "10315": 125,
        "10316": 87,
        "10317": 169,
        "10318": 31,
        "10319": 230,
        "10320": 140,
        "10321": 59,
        "10322": 116,
        "10323": 32,
        "10324": 184,
        "10325": 252,
        "10326": 18,
        "10327": 32,
        "10328": 153,
        "10329": 51,
        "10330": 137,
        "10331": 224,
        "10332": 92,
        "10333": 31,
        "10334": 22,
        "10335": 128,
        "10336": 88,
        "10337": 98,
        "10338": 20,
        "10339": 158,
        "10340": 114,
        "10341": 118,
        "10342": 12,
        "10343": 6,
        "10344": 207,
        "10345": 36,
        "10346": 93,
        "10347": 223,
        "10348": 218,
        "10349": 126,
        "10350": 117,
        "10351": 55,
        "10352": 142,
        "10353": 62,
        "10354": 153,
        "10355": 133,
        "10356": 70,
        "10357": 121,
        "10358": 118,
        "10359": 17,
        "10360": 28,
        "10361": 51,
        "10362": 170,
        "10363": 67,
        "10364": 21,
        "10365": 67,
        "10366": 235,
        "10367": 143,
        "10368": 185,
        "10369": 167,
        "10370": 184,
        "10371": 229,
        "10372": 112,
        "10373": 4,
        "10374": 200,
        "10375": 25,
        "10376": 148,
        "10377": 7,
        "10378": 16,
        "10379": 41,
        "10380": 156,
        "10381": 90,
        "10382": 171,
        "10383": 123,
        "10384": 113,
        "10385": 14,
        "10386": 117,
        "10387": 240,
        "10388": 3,
        "10389": 153,
        "10390": 120,
        "10391": 117,
        "10392": 128,
        "10393": 164,
        "10394": 32,
        "10395": 102,
        "10396": 54,
        "10397": 171,
        "10398": 15,
        "10399": 148,
        "10400": 77,
        "10401": 115,
        "10402": 251,
        "10403": 98,
        "10404": 17,
        "10405": 129,
        "10406": 200,
        "10407": 222,
        "10408": 30,
        "10409": 212,
        "10410": 222,
        "10411": 118,
        "10412": 75,
        "10413": 116,
        "10414": 195,
        "10415": 97,
        "10416": 65,
        "10417": 184,
        "10418": 53,
        "10419": 249,
        "10420": 29,
        "10421": 172,
        "10422": 141,
        "10423": 216,
        "10424": 103,
        "10425": 162,
        "10426": 93,
        "10427": 178,
        "10428": 168,
        "10429": 24,
        "10430": 122,
        "10431": 215,
        "10432": 110,
        "10433": 71,
        "10434": 96,
        "10435": 175,
        "10436": 64,
        "10437": 160,
        "10438": 0,
        "10439": 27,
        "10440": 45,
        "10441": 25,
        "10442": 45,
        "10443": 42,
        "10444": 224,
        "10445": 133,
        "10446": 112,
        "10447": 222,
        "10448": 131,
        "10449": 120,
        "10450": 110,
        "10451": 131,
        "10452": 89,
        "10453": 200,
        "10454": 34,
        "10455": 207,
        "10456": 181,
        "10457": 70,
        "10458": 32,
        "10459": 168,
        "10460": 137,
        "10461": 171,
        "10462": 198,
        "10463": 173,
        "10464": 216,
        "10465": 124,
        "10466": 236,
        "10467": 35,
        "10468": 43,
        "10469": 20,
        "10470": 155,
        "10471": 19,
        "10472": 197,
        "10473": 162,
        "10474": 23,
        "10475": 52,
        "10476": 93,
        "10477": 225,
        "10478": 7,
        "10479": 226,
        "10480": 206,
        "10481": 55,
        "10482": 158,
        "10483": 129,
        "10484": 209,
        "10485": 99,
        "10486": 183,
        "10487": 199,
        "10488": 89,
        "10489": 144,
        "10490": 88,
        "10491": 6,
        "10492": 42,
        "10493": 149,
        "10494": 190,
        "10495": 210,
        "10496": 251,
        "10497": 55,
        "10498": 130,
        "10499": 201,
        "10500": 177,
        "10501": 214,
        "10502": 67,
        "10503": 10,
        "10504": 13,
        "10505": 77,
        "10506": 64,
        "10507": 183,
        "10508": 115,
        "10509": 125,
        "10510": 226,
        "10511": 197,
        "10512": 188,
        "10513": 236,
        "10514": 189,
        "10515": 75,
        "10516": 238,
        "10517": 222,
        "10518": 226,
        "10519": 214,
        "10520": 22,
        "10521": 206,
        "10522": 195,
        "10523": 150,
        "10524": 241,
        "10525": 63,
        "10526": 54,
        "10527": 203,
        "10528": 231,
        "10529": 220,
        "10530": 9,
        "10531": 232,
        "10532": 125,
        "10533": 249,
        "10534": 203,
        "10535": 139,
        "10536": 93,
        "10537": 154,
        "10538": 173,
        "10539": 157,
        "10540": 31,
        "10541": 44,
        "10542": 249,
        "10543": 30,
        "10544": 184,
        "10545": 101,
        "10546": 233,
        "10547": 41,
        "10548": 209,
        "10549": 229,
        "10550": 3,
        "10551": 237,
        "10552": 171,
        "10553": 120,
        "10554": 214,
        "10555": 182,
        "10556": 193,
        "10557": 65,
        "10558": 38,
        "10559": 44,
        "10560": 202,
        "10561": 189,
        "10562": 29,
        "10563": 243,
        "10564": 38,
        "10565": 9,
        "10566": 220,
        "10567": 55,
        "10568": 74,
        "10569": 30,
        "10570": 126,
        "10571": 254,
        "10572": 82,
        "10573": 60,
        "10574": 239,
        "10575": 210,
        "10576": 62,
        "10577": 253,
        "10578": 17,
        "10579": 30,
        "10580": 216,
        "10581": 164,
        "10582": 218,
        "10583": 53,
        "10584": 70,
        "10585": 11,
        "10586": 174,
        "10587": 192,
        "10588": 10,
        "10589": 161,
        "10590": 122,
        "10591": 237,
        "10592": 126,
        "10593": 115,
        "10594": 230,
        "10595": 158,
        "10596": 237,
        "10597": 172,
        "10598": 223,
        "10599": 4,
        "10600": 29,
        "10601": 86,
        "10602": 6,
        "10603": 47,
        "10604": 205,
        "10605": 250,
        "10606": 111,
        "10607": 120,
        "10608": 107,
        "10609": 39,
        "10610": 228,
        "10611": 83,
        "10612": 192,
        "10613": 248,
        "10614": 87,
        "10615": 14,
        "10616": 49,
        "10617": 25,
        "10618": 203,
        "10619": 237,
        "10620": 138,
        "10621": 147,
        "10622": 41,
        "10623": 110,
        "10624": 158,
        "10625": 153,
        "10626": 177,
        "10627": 150,
        "10628": 142,
        "10629": 188,
        "10630": 9,
        "10631": 68,
        "10632": 235,
        "10633": 238,
        "10634": 69,
        "10635": 119,
        "10636": 235,
        "10637": 19,
        "10638": 99,
        "10639": 75,
        "10640": 83,
        "10641": 133,
        "10642": 219,
        "10643": 148,
        "10644": 90,
        "10645": 245,
        "10646": 84,
        "10647": 144,
        "10648": 150,
        "10649": 220,
        "10650": 217,
        "10651": 103,
        "10652": 164,
        "10653": 11,
        "10654": 251,
        "10655": 247,
        "10656": 33,
        "10657": 33,
        "10658": 67,
        "10659": 99,
        "10660": 158,
        "10661": 90,
        "10662": 117,
        "10663": 5,
        "10664": 126,
        "10665": 154,
        "10666": 93,
        "10667": 224,
        "10668": 247,
        "10669": 22,
        "10670": 164,
        "10671": 152,
        "10672": 102,
        "10673": 13,
        "10674": 92,
        "10675": 23,
        "10676": 238,
        "10677": 41,
        "10678": 238,
        "10679": 239,
        "10680": 34,
        "10681": 216,
        "10682": 57,
        "10683": 209,
        "10684": 81,
        "10685": 94,
        "10686": 177,
        "10687": 104,
        "10688": 236,
        "10689": 134,
        "10690": 133,
        "10691": 202,
        "10692": 155,
        "10693": 235,
        "10694": 145,
        "10695": 78,
        "10696": 152,
        "10697": 93,
        "10698": 72,
        "10699": 99,
        "10700": 230,
        "10701": 196,
        "10702": 214,
        "10703": 127,
        "10704": 75,
        "10705": 108,
        "10706": 254,
        "10707": 231,
        "10708": 60,
        "10709": 122,
        "10710": 103,
        "10711": 11,
        "10712": 108,
        "10713": 234,
        "10714": 175,
        "10715": 54,
        "10716": 198,
        "10717": 60,
        "10718": 179,
        "10719": 26,
        "10720": 39,
        "10721": 42,
        "10722": 194,
        "10723": 129,
        "10724": 18,
        "10725": 248,
        "10726": 82,
        "10727": 18,
        "10728": 5,
        "10729": 10,
        "10730": 73,
        "10731": 134,
        "10732": 211,
        "10733": 101,
        "10734": 78,
        "10735": 144,
        "10736": 95,
        "10737": 130,
        "10738": 109,
        "10739": 170,
        "10740": 33,
        "10741": 214,
        "10742": 166,
        "10743": 246,
        "10744": 134,
        "10745": 222,
        "10746": 251,
        "10747": 249,
        "10748": 211,
        "10749": 75,
        "10750": 2,
        "10751": 136,
        "10752": 127,
        "10753": 135,
        "10754": 1,
        "10755": 251,
        "10756": 206,
        "10757": 221,
        "10758": 32,
        "10759": 24,
        "10760": 59,
        "10761": 214,
        "10762": 196,
        "10763": 53,
        "10764": 160,
        "10765": 139,
        "10766": 197,
        "10767": 238,
        "10768": 87,
        "10769": 248,
        "10770": 94,
        "10771": 55,
        "10772": 75,
        "10773": 79,
        "10774": 191,
        "10775": 149,
        "10776": 229,
        "10777": 154,
        "10778": 149,
        "10779": 33,
        "10780": 252,
        "10781": 193,
        "10782": 167,
        "10783": 176,
        "10784": 155,
        "10785": 71,
        "10786": 2,
        "10787": 145,
        "10788": 107,
        "10789": 160,
        "10790": 30,
        "10791": 161,
        "10792": 48,
        "10793": 246,
        "10794": 117,
        "10795": 53,
        "10796": 98,
        "10797": 27,
        "10798": 53,
        "10799": 124,
        "10800": 228,
        "10801": 11,
        "10802": 126,
        "10803": 218,
        "10804": 21,
        "10805": 111,
        "10806": 2,
        "10807": 65,
        "10808": 199,
        "10809": 131,
        "10810": 138,
        "10811": 32,
        "10812": 150,
        "10813": 208,
        "10814": 123,
        "10815": 26,
        "10816": 251,
        "10817": 230,
        "10818": 50,
        "10819": 10,
        "10820": 211,
        "10821": 237,
        "10822": 109,
        "10823": 61,
        "10824": 50,
        "10825": 224,
        "10826": 104,
        "10827": 83,
        "10828": 57,
        "10829": 28,
        "10830": 201,
        "10831": 199,
        "10832": 50,
        "10833": 219,
        "10834": 8,
        "10835": 65,
        "10836": 180,
        "10837": 32,
        "10838": 6,
        "10839": 46,
        "10840": 104,
        "10841": 2,
        "10842": 57,
        "10843": 241,
        "10844": 10,
        "10845": 3,
        "10846": 91,
        "10847": 2,
        "10848": 96,
        "10849": 181,
        "10850": 33,
        "10851": 247,
        "10852": 109,
        "10853": 4,
        "10854": 69,
        "10855": 178,
        "10856": 70,
        "10857": 112,
        "10858": 215,
        "10859": 69,
        "10860": 140,
        "10861": 217,
        "10862": 215,
        "10863": 12,
        "10864": 7,
        "10865": 8,
        "10866": 157,
        "10867": 107,
        "10868": 210,
        "10869": 80,
        "10870": 200,
        "10871": 102,
        "10872": 229,
        "10873": 32,
        "10874": 194,
        "10875": 117,
        "10876": 87,
        "10877": 209,
        "10878": 13,
        "10879": 224,
        "10880": 63,
        "10881": 117,
        "10882": 82,
        "10883": 94,
        "10884": 141,
        "10885": 249,
        "10886": 176,
        "10887": 66,
        "10888": 48,
        "10889": 63,
        "10890": 224,
        "10891": 82,
        "10892": 0,
        "10893": 53,
        "10894": 102,
        "10895": 78,
        "10896": 130,
        "10897": 196,
        "10898": 238,
        "10899": 104,
        "10900": 164,
        "10901": 39,
        "10902": 171,
        "10903": 56,
        "10904": 118,
        "10905": 66,
        "10906": 197,
        "10907": 195,
        "10908": 150,
        "10909": 80,
        "10910": 96,
        "10911": 71,
        "10912": 170,
        "10913": 154,
        "10914": 70,
        "10915": 192,
        "10916": 253,
        "10917": 167,
        "10918": 107,
        "10919": 247,
        "10920": 99,
        "10921": 190,
        "10922": 185,
        "10923": 50,
        "10924": 119,
        "10925": 236,
        "10926": 88,
        "10927": 191,
        "10928": 139,
        "10929": 58,
        "10930": 111,
        "10931": 59,
        "10932": 254,
        "10933": 32,
        "10934": 59,
        "10935": 30,
        "10936": 27,
        "10937": 244,
        "10938": 254,
        "10939": 40,
        "10940": 131,
        "10941": 12,
        "10942": 58,
        "10943": 214,
        "10944": 241,
        "10945": 215,
        "10946": 32,
        "10947": 168,
        "10948": 86,
        "10949": 213,
        "10950": 237,
        "10951": 108,
        "10952": 61,
        "10953": 153,
        "10954": 179,
        "10955": 219,
        "10956": 71,
        "10957": 241,
        "10958": 160,
        "10959": 185,
        "10960": 103,
        "10961": 238,
        "10962": 216,
        "10963": 22,
        "10964": 21,
        "10965": 251,
        "10966": 177,
        "10967": 103,
        "10968": 157,
        "10969": 32,
        "10970": 39,
        "10971": 8,
        "10972": 95,
        "10973": 191,
        "10974": 149,
        "10975": 227,
        "10976": 143,
        "10977": 20,
        "10978": 1,
        "10979": 175,
        "10980": 144,
        "10981": 155,
        "10982": 156,
        "10983": 25,
        "10984": 240,
        "10985": 223,
        "10986": 227,
        "10987": 233,
        "10988": 139,
        "10989": 66,
        "10990": 171,
        "10991": 248,
        "10992": 204,
        "10993": 173,
        "10994": 62,
        "10995": 103,
        "10996": 38,
        "10997": 25,
        "10998": 108,
        "10999": 152,
        "11000": 92,
        "11001": 89,
        "11002": 175,
        "11003": 106,
        "11004": 16,
        "11005": 77,
        "11006": 82,
        "11007": 143,
        "11008": 245,
        "11009": 134,
        "11010": 52,
        "11011": 104,
        "11012": 213,
        "11013": 42,
        "11014": 199,
        "11015": 62,
        "11016": 244,
        "11017": 53,
        "11018": 30,
        "11019": 169,
        "11020": 145,
        "11021": 254,
        "11022": 229,
        "11023": 194,
        "11024": 18,
        "11025": 249,
        "11026": 133,
        "11027": 109,
        "11028": 38,
        "11029": 132,
        "11030": 250,
        "11031": 233,
        "11032": 91,
        "11033": 235,
        "11034": 144,
        "11035": 165,
        "11036": 249,
        "11037": 31,
        "11038": 126,
        "11039": 151,
        "11040": 112,
        "11041": 108,
        "11042": 128,
        "11043": 111,
        "11044": 175,
        "11045": 237,
        "11046": 224,
        "11047": 33,
        "11048": 151,
        "11049": 223,
        "11050": 14,
        "11051": 79,
        "11052": 148,
        "11053": 39,
        "11054": 101,
        "11055": 191,
        "11056": 39,
        "11057": 39,
        "11058": 75,
        "11059": 222,
        "11060": 76,
        "11061": 134,
        "11062": 156,
        "11063": 17,
        "11064": 12,
        "11065": 17,
        "11066": 249,
        "11067": 133,
        "11068": 128,
        "11069": 132,
        "11070": 251,
        "11071": 202,
        "11072": 216,
        "11073": 12,
        "11074": 213,
        "11075": 23,
        "11076": 81,
        "11077": 239,
        "11078": 45,
        "11079": 232,
        "11080": 231,
        "11081": 92,
        "11082": 176,
        "11083": 215,
        "11084": 199,
        "11085": 36,
        "11086": 89,
        "11087": 66,
        "11088": 75,
        "11089": 200,
        "11090": 106,
        "11091": 22,
        "11092": 20,
        "11093": 142,
        "11094": 146,
        "11095": 161,
        "11096": 123,
        "11097": 28,
        "11098": 62,
        "11099": 226,
        "11100": 35,
        "11101": 132,
        "11102": 22,
        "11103": 93,
        "11104": 49,
        "11105": 119,
        "11106": 234,
        "11107": 37,
        "11108": 42,
        "11109": 201,
        "11110": 227,
        "11111": 33,
        "11112": 43,
        "11113": 54,
        "11114": 67,
        "11115": 239,
        "11116": 44,
        "11117": 216,
        "11118": 43,
        "11119": 240,
        "11120": 147,
        "11121": 158,
        "11122": 121,
        "11123": 154,
        "11124": 101,
        "11125": 127,
        "11126": 163,
        "11127": 118,
        "11128": 253,
        "11129": 127,
        "11130": 4,
        "11131": 155,
        "11132": 207,
        "11133": 13,
        "11134": 239,
        "11135": 7,
        "11136": 184,
        "11137": 101,
        "11138": 151,
        "11139": 89,
        "11140": 148,
        "11141": 189,
        "11142": 122,
        "11143": 202,
        "11144": 174,
        "11145": 182,
        "11146": 37,
        "11147": 204,
        "11148": 238,
        "11149": 206,
        "11150": 161,
        "11151": 87,
        "11152": 200,
        "11153": 50,
        "11154": 171,
        "11155": 197,
        "11156": 119,
        "11157": 243,
        "11158": 154,
        "11159": 152,
        "11160": 126,
        "11161": 241,
        "11162": 135,
        "11163": 210,
        "11164": 167,
        "11165": 102,
        "11166": 253,
        "11167": 155,
        "11168": 115,
        "11169": 68,
        "11170": 1,
        "11171": 160,
        "11172": 128,
        "11173": 237,
        "11174": 186,
        "11175": 201,
        "11176": 175,
        "11177": 140,
        "11178": 40,
        "11179": 129,
        "11180": 103,
        "11181": 111,
        "11182": 69,
        "11183": 96,
        "11184": 135,
        "11185": 172,
        "11186": 208,
        "11187": 174,
        "11188": 231,
        "11189": 105,
        "11190": 174,
        "11191": 74,
        "11192": 104,
        "11193": 0,
        "11194": 122,
        "11195": 186,
        "11196": 13,
        "11197": 229,
        "11198": 44,
        "11199": 126,
        "11200": 85,
        "11201": 148,
        "11202": 9,
        "11203": 226,
        "11204": 58,
        "11205": 93,
        "11206": 199,
        "11207": 238,
        "11208": 251,
        "11209": 5,
        "11210": 185,
        "11211": 4,
        "11212": 43,
        "11213": 45,
        "11214": 57,
        "11215": 81,
        "11216": 187,
        "11217": 64,
        "11218": 224,
        "11219": 51,
        "11220": 7,
        "11221": 178,
        "11222": 40,
        "11223": 130,
        "11224": 111,
        "11225": 223,
        "11226": 208,
        "11227": 20,
        "11228": 96,
        "11229": 193,
        "11230": 86,
        "11231": 166,
        "11232": 32,
        "11233": 12,
        "11234": 216,
        "11235": 23,
        "11236": 84,
        "11237": 52,
        "11238": 248,
        "11239": 2,
        "11240": 230,
        "11241": 86,
        "11242": 214,
        "11243": 22,
        "11244": 46,
        "11245": 225,
        "11246": 88,
        "11247": 196,
        "11248": 60,
        "11249": 93,
        "11250": 120,
        "11251": 158,
        "11252": 74,
        "11253": 206,
        "11254": 73,
        "11255": 135,
        "11256": 210,
        "11257": 54,
        "11258": 154,
        "11259": 46,
        "11260": 21,
        "11261": 97,
        "11262": 120,
        "11263": 137,
        "11264": 188,
        "11265": 219,
        "11266": 236,
        "11267": 174,
        "11268": 32,
        "11269": 140,
        "11270": 230,
        "11271": 34,
        "11272": 153,
        "11273": 59,
        "11274": 16,
        "11275": 106,
        "11276": 198,
        "11277": 75,
        "11278": 110,
        "11279": 249,
        "11280": 178,
        "11281": 51,
        "11282": 41,
        "11283": 227,
        "11284": 34,
        "11285": 79,
        "11286": 188,
        "11287": 147,
        "11288": 140,
        "11289": 75,
        "11290": 77,
        "11291": 151,
        "11292": 189,
        "11293": 243,
        "11294": 194,
        "11295": 93,
        "11296": 224,
        "11297": 134,
        "11298": 150,
        "11299": 220,
        "11300": 194,
        "11301": 230,
        "11302": 221,
        "11303": 161,
        "11304": 44,
        "11305": 212,
        "11306": 213,
        "11307": 205,
        "11308": 216,
        "11309": 154,
        "11310": 208,
        "11311": 208,
        "11312": 177,
        "11313": 33,
        "11314": 142,
        "11315": 51,
        "11316": 126,
        "11317": 84,
        "11318": 144,
        "11319": 37,
        "11320": 127,
        "11321": 60,
        "11322": 20,
        "11323": 165,
        "11324": 91,
        "11325": 232,
        "11326": 206,
        "11327": 198,
        "11328": 88,
        "11329": 17,
        "11330": 228,
        "11331": 78,
        "11332": 200,
        "11333": 254,
        "11334": 159,
        "11335": 9,
        "11336": 198,
        "11337": 23,
        "11338": 195,
        "11339": 154,
        "11340": 39,
        "11341": 122,
        "11342": 208,
        "11343": 33,
        "11344": 83,
        "11345": 208,
        "11346": 141,
        "11347": 30,
        "11348": 215,
        "11349": 197,
        "11350": 131,
        "11351": 190,
        "11352": 107,
        "11353": 13,
        "11354": 46,
        "11355": 61,
        "11356": 106,
        "11357": 6,
        "11358": 30,
        "11359": 226,
        "11360": 160,
        "11361": 144,
        "11362": 140,
        "11363": 55,
        "11364": 242,
        "11365": 123,
        "11366": 135,
        "11367": 34,
        "11368": 146,
        "11369": 222,
        "11370": 1,
        "11371": 48,
        "11372": 99,
        "11373": 90,
        "11374": 72,
        "11375": 254,
        "11376": 94,
        "11377": 93,
        "11378": 115,
        "11379": 185,
        "11380": 152,
        "11381": 164,
        "11382": 80,
        "11383": 26,
        "11384": 211,
        "11385": 247,
        "11386": 144,
        "11387": 182,
        "11388": 90,
        "11389": 167,
        "11390": 243,
        "11391": 5,
        "11392": 148,
        "11393": 214,
        "11394": 202,
        "11395": 120,
        "11396": 60,
        "11397": 220,
        "11398": 179,
        "11399": 244,
        "11400": 198,
        "11401": 173,
        "11402": 255,
        "11403": 124,
        "11404": 214,
        "11405": 119,
        "11406": 16,
        "11407": 229,
        "11408": 189,
        "11409": 76,
        "11410": 124,
        "11411": 162,
        "11412": 34,
        "11413": 151,
        "11414": 34,
        "11415": 194,
        "11416": 57,
        "11417": 24,
        "11418": 213,
        "11419": 15,
        "11420": 166,
        "11421": 31,
        "11422": 143,
        "11423": 185,
        "11424": 4,
        "11425": 161,
        "11426": 239,
        "11427": 76,
        "11428": 230,
        "11429": 36,
        "11430": 23,
        "11431": 251,
        "11432": 161,
        "11433": 162,
        "11434": 189,
        "11435": 28,
        "11436": 238,
        "11437": 231,
        "11438": 112,
        "11439": 48,
        "11440": 190,
        "11441": 78,
        "11442": 48,
        "11443": 111,
        "11444": 93,
        "11445": 159,
        "11446": 186,
        "11447": 5,
        "11448": 48,
        "11449": 183,
        "11450": 173,
        "11451": 52,
        "11452": 218,
        "11453": 137,
        "11454": 0,
        "11455": 170,
        "11456": 33,
        "11457": 174,
        "11458": 251,
        "11459": 120,
        "11460": 27,
        "11461": 201,
        "11462": 121,
        "11463": 153,
        "11464": 89,
        "11465": 155,
        "11466": 192,
        "11467": 153,
        "11468": 107,
        "11469": 94,
        "11470": 161,
        "11471": 28,
        "11472": 176,
        "11473": 48,
        "11474": 239,
        "11475": 44,
        "11476": 134,
        "11477": 46,
        "11478": 211,
        "11479": 47,
        "11480": 31,
        "11481": 75,
        "11482": 180,
        "11483": 10,
        "11484": 53,
        "11485": 244,
        "11486": 221,
        "11487": 140,
        "11488": 78,
        "11489": 208,
        "11490": 132,
        "11491": 198,
        "11492": 95,
        "11493": 65,
        "11494": 45,
        "11495": 109,
        "11496": 247,
        "11497": 203,
        "11498": 236,
        "11499": 230,
        "11500": 195,
        "11501": 22,
        "11502": 180,
        "11503": 90,
        "11504": 14,
        "11505": 211,
        "11506": 53,
        "11507": 129,
        "11508": 17,
        "11509": 122,
        "11510": 195,
        "11511": 12,
        "11512": 158,
        "11513": 120,
        "11514": 217,
        "11515": 214,
        "11516": 176,
        "11517": 148,
        "11518": 125,
        "11519": 43,
        "11520": 129,
        "11521": 42,
        "11522": 96,
        "11523": 89,
        "11524": 231,
        "11525": 175,
        "11526": 57,
        "11527": 173,
        "11528": 103,
        "11529": 21,
        "11530": 65,
        "11531": 63,
        "11532": 94,
        "11533": 76,
        "11534": 194,
        "11535": 56,
        "11536": 69,
        "11537": 109,
        "11538": 140,
        "11539": 242,
        "11540": 237,
        "11541": 137,
        "11542": 230,
        "11543": 111,
        "11544": 231,
        "11545": 161,
        "11546": 185,
        "11547": 167,
        "11548": 82,
        "11549": 200,
        "11550": 179,
        "11551": 154,
        "11552": 90,
        "11553": 16,
        "11554": 171,
        "11555": 24,
        "11556": 155,
        "11557": 115,
        "11558": 133,
        "11559": 227,
        "11560": 75,
        "11561": 215,
        "11562": 223,
        "11563": 210,
        "11564": 106,
        "11565": 174,
        "11566": 174,
        "11567": 21,
        "11568": 6,
        "11569": 25,
        "11570": 179,
        "11571": 33,
        "11572": 21,
        "11573": 254,
        "11574": 138,
        "11575": 129,
        "11576": 0,
        "11577": 119,
        "11578": 158,
        "11579": 229,
        "11580": 11,
        "11581": 130,
        "11582": 3,
        "11583": 249,
        "11584": 205,
        "11585": 122,
        "11586": 37,
        "11587": 127,
        "11588": 50,
        "11589": 104,
        "11590": 251,
        "11591": 22,
        "11592": 181,
        "11593": 119,
        "11594": 249,
        "11595": 21,
        "11596": 236,
        "11597": 10,
        "11598": 185,
        "11599": 4,
        "11600": 160,
        "11601": 155,
        "11602": 91,
        "11603": 21,
        "11604": 49,
        "11605": 180,
        "11606": 9,
        "11607": 88,
        "11608": 4,
        "11609": 132,
        "11610": 137,
        "11611": 20,
        "11612": 74,
        "11613": 72,
        "11614": 12,
        "11615": 62,
        "11616": 5,
        "11617": 81,
        "11618": 225,
        "11619": 124,
        "11620": 193,
        "11621": 16,
        "11622": 154,
        "11623": 137,
        "11624": 150,
        "11625": 107,
        "11626": 242,
        "11627": 10,
        "11628": 41,
        "11629": 72,
        "11630": 137,
        "11631": 214,
        "11632": 96,
        "11633": 55,
        "11634": 199,
        "11635": 1,
        "11636": 176,
        "11637": 221,
        "11638": 102,
        "11639": 249,
        "11640": 101,
        "11641": 142,
        "11642": 141,
        "11643": 50,
        "11644": 63,
        "11645": 66,
        "11646": 141,
        "11647": 197,
        "11648": 146,
        "11649": 11,
        "11650": 105,
        "11651": 200,
        "11652": 164,
        "11653": 89,
        "11654": 173,
        "11655": 2,
        "11656": 196,
        "11657": 120,
        "11658": 152,
        "11659": 178,
        "11660": 166,
        "11661": 65,
        "11662": 213,
        "11663": 93,
        "11664": 94,
        "11665": 232,
        "11666": 233,
        "11667": 104,
        "11668": 214,
        "11669": 118,
        "11670": 170,
        "11671": 183,
        "11672": 141,
        "11673": 252,
        "11674": 72,
        "11675": 253,
        "11676": 80,
        "11677": 130,
        "11678": 139,
        "11679": 87,
        "11680": 22,
        "11681": 69,
        "11682": 88,
        "11683": 93,
        "11684": 69,
        "11685": 40,
        "11686": 62,
        "11687": 33,
        "11688": 54,
        "11689": 192,
        "11690": 250,
        "11691": 203,
        "11692": 170,
        "11693": 200,
        "11694": 119,
        "11695": 129,
        "11696": 141,
        "11697": 100,
        "11698": 226,
        "11699": 237,
        "11700": 124,
        "11701": 209,
        "11702": 238,
        "11703": 111,
        "11704": 169,
        "11705": 105,
        "11706": 56,
        "11707": 158,
        "11708": 99,
        "11709": 203,
        "11710": 179,
        "11711": 254,
        "11712": 128,
        "11713": 237,
        "11714": 194,
        "11715": 1,
        "11716": 171,
        "11717": 216,
        "11718": 18,
        "11719": 126,
        "11720": 64,
        "11721": 196,
        "11722": 212,
        "11723": 228,
        "11724": 36,
        "11725": 118,
        "11726": 80,
        "11727": 103,
        "11728": 188,
        "11729": 14,
        "11730": 64,
        "11731": 11,
        "11732": 211,
        "11733": 28,
        "11734": 198,
        "11735": 227,
        "11736": 183,
        "11737": 24,
        "11738": 119,
        "11739": 59,
        "11740": 132,
        "11741": 73,
        "11742": 81,
        "11743": 163,
        "11744": 69,
        "11745": 164,
        "11746": 198,
        "11747": 119,
        "11748": 122,
        "11749": 32,
        "11750": 55,
        "11751": 50,
        "11752": 29,
        "11753": 77,
        "11754": 118,
        "11755": 137,
        "11756": 105,
        "11757": 73,
        "11758": 92,
        "11759": 34,
        "11760": 120,
        "11761": 162,
        "11762": 66,
        "11763": 169,
        "11764": 88,
        "11765": 125,
        "11766": 152,
        "11767": 94,
        "11768": 123,
        "11769": 116,
        "11770": 77,
        "11771": 173,
        "11772": 134,
        "11773": 43,
        "11774": 29,
        "11775": 250,
        "11776": 117,
        "11777": 177,
        "11778": 234,
        "11779": 236,
        "11780": 148,
        "11781": 208,
        "11782": 42,
        "11783": 28,
        "11784": 106,
        "11785": 16,
        "11786": 55,
        "11787": 223,
        "11788": 7,
        "11789": 250,
        "11790": 170,
        "11791": 133,
        "11792": 99,
        "11793": 6,
        "11794": 201,
        "11795": 205,
        "11796": 0,
        "11797": 148,
        "11798": 121,
        "11799": 99,
        "11800": 88,
        "11801": 28,
        "11802": 143,
        "11803": 68,
        "11804": 47,
        "11805": 45,
        "11806": 48,
        "11807": 30,
        "11808": 134,
        "11809": 10,
        "11810": 172,
        "11811": 22,
        "11812": 84,
        "11813": 38,
        "11814": 99,
        "11815": 74,
        "11816": 200,
        "11817": 11,
        "11818": 72,
        "11819": 105,
        "11820": 38,
        "11821": 61,
        "11822": 117,
        "11823": 28,
        "11824": 25,
        "11825": 166,
        "11826": 6,
        "11827": 165,
        "11828": 178,
        "11829": 159,
        "11830": 75,
        "11831": 234,
        "11832": 156,
        "11833": 183,
        "11834": 35,
        "11835": 187,
        "11836": 126,
        "11837": 238,
        "11838": 23,
        "11839": 115,
        "11840": 42,
        "11841": 193,
        "11842": 104,
        "11843": 222,
        "11844": 28,
        "11845": 50,
        "11846": 32,
        "11847": 163,
        "11848": 171,
        "11849": 41,
        "11850": 153,
        "11851": 83,
        "11852": 169,
        "11853": 73,
        "11854": 196,
        "11855": 114,
        "11856": 167,
        "11857": 35,
        "11858": 155,
        "11859": 220,
        "11860": 149,
        "11861": 224,
        "11862": 161,
        "11863": 226,
        "11864": 110,
        "11865": 106,
        "11866": 215,
        "11867": 100,
        "11868": 116,
        "11869": 23,
        "11870": 43,
        "11871": 91,
        "11872": 73,
        "11873": 117,
        "11874": 81,
        "11875": 43,
        "11876": 179,
        "11877": 131,
        "11878": 116,
        "11879": 203,
        "11880": 225,
        "11881": 201,
        "11882": 168,
        "11883": 138,
        "11884": 62,
        "11885": 110,
        "11886": 205,
        "11887": 177,
        "11888": 207,
        "11889": 110,
        "11890": 88,
        "11891": 55,
        "11892": 20,
        "11893": 71,
        "11894": 234,
        "11895": 236,
        "11896": 85,
        "11897": 238,
        "11898": 117,
        "11899": 90,
        "11900": 100,
        "11901": 186,
        "11902": 193,
        "11903": 120,
        "11904": 135,
        "11905": 253,
        "11906": 91,
        "11907": 240,
        "11908": 74,
        "11909": 243,
        "11910": 140,
        "11911": 40,
        "11912": 241,
        "11913": 190,
        "11914": 157,
        "11915": 182,
        "11916": 176,
        "11917": 60,
        "11918": 147,
        "11919": 21,
        "11920": 51,
        "11921": 61,
        "11922": 194,
        "11923": 201,
        "11924": 221,
        "11925": 211,
        "11926": 59,
        "11927": 65,
        "11928": 107,
        "11929": 105,
        "11930": 10,
        "11931": 73,
        "11932": 81,
        "11933": 9,
        "11934": 181,
        "11935": 3,
        "11936": 20,
        "11937": 94,
        "11938": 237,
        "11939": 228,
        "11940": 1,
        "11941": 181,
        "11942": 194,
        "11943": 208,
        "11944": 45,
        "11945": 92,
        "11946": 225,
        "11947": 54,
        "11948": 215,
        "11949": 205,
        "11950": 250,
        "11951": 152,
        "11952": 64,
        "11953": 32,
        "11954": 88,
        "11955": 8,
        "11956": 218,
        "11957": 244,
        "11958": 125,
        "11959": 107,
        "11960": 219,
        "11961": 225,
        "11962": 161,
        "11963": 158,
        "11964": 18,
        "11965": 109,
        "11966": 118,
        "11967": 181,
        "11968": 151,
        "11969": 185,
        "11970": 224,
        "11971": 237,
        "11972": 119,
        "11973": 176,
        "11974": 109,
        "11975": 217,
        "11976": 87,
        "11977": 85,
        "11978": 139,
        "11979": 116,
        "11980": 82,
        "11981": 112,
        "11982": 42,
        "11983": 149,
        "11984": 6,
        "11985": 10,
        "11986": 59,
        "11987": 219,
        "11988": 87,
        "11989": 8,
        "11990": 28,
        "11991": 20,
        "11992": 86,
        "11993": 124,
        "11994": 165,
        "11995": 173,
        "11996": 3,
        "11997": 145,
        "11998": 199,
        "11999": 116,
        "12000": 200,
        "12001": 31,
        "12002": 162,
        "12003": 186,
        "12004": 124,
        "12005": 20,
        "12006": 99,
        "12007": 185,
        "12008": 179,
        "12009": 67,
        "12010": 177,
        "12011": 209,
        "12012": 122,
        "12013": 26,
        "12014": 20,
        "12015": 220,
        "12016": 223,
        "12017": 228,
        "12018": 106,
        "12019": 157,
        "12020": 88,
        "12021": 77,
        "12022": 239,
        "12023": 133,
        "12024": 109,
        "12025": 79,
        "12026": 215,
        "12027": 59,
        "12028": 152,
        "12029": 92,
        "12030": 113,
        "12031": 96,
        "12032": 160,
        "12033": 59,
        "12034": 149,
        "12035": 50,
        "12036": 123,
        "12037": 102,
        "12038": 114,
        "12039": 18,
        "12040": 247,
        "12041": 73,
        "12042": 53,
        "12043": 151,
        "12044": 62,
        "12045": 173,
        "12046": 212,
        "12047": 122,
        "12048": 216,
        "12049": 239,
        "12050": 118,
        "12051": 156,
        "12052": 220,
        "12053": 163,
        "12054": 116,
        "12055": 149,
        "12056": 154,
        "12057": 94,
        "12058": 50,
        "12059": 33,
        "12060": 107,
        "12061": 92,
        "12062": 47,
        "12063": 3,
        "12064": 41,
        "12065": 75,
        "12066": 42,
        "12067": 249,
        "12068": 38,
        "12069": 242,
        "12070": 23,
        "12071": 180,
        "12072": 202,
        "12073": 180,
        "12074": 214,
        "12075": 71,
        "12076": 13,
        "12077": 156,
        "12078": 110,
        "12079": 119,
        "12080": 136,
        "12081": 129,
        "12082": 162,
        "12083": 202,
        "12084": 129,
        "12085": 242,
        "12086": 170,
        "12087": 78,
        "12088": 95,
        "12089": 175,
        "12090": 113,
        "12091": 253,
        "12092": 121,
        "12093": 191,
        "12094": 244,
        "12095": 1,
        "12096": 131,
        "12097": 77,
        "12098": 38,
        "12099": 52,
        "12100": 206,
        "12101": 219,
        "12102": 189,
        "12103": 243,
        "12104": 43,
        "12105": 234,
        "12106": 186,
        "12107": 217,
        "12108": 55,
        "12109": 7,
        "12110": 72,
        "12111": 150,
        "12112": 218,
        "12113": 118,
        "12114": 14,
        "12115": 108,
        "12116": 170,
        "12117": 239,
        "12118": 207,
        "12119": 180,
        "12120": 137,
        "12121": 41,
        "12122": 57,
        "12123": 104,
        "12124": 62,
        "12125": 71,
        "12126": 147,
        "12127": 210,
        "12128": 75,
        "12129": 9,
        "12130": 45,
        "12131": 196,
        "12132": 122,
        "12133": 46,
        "12134": 24,
        "12135": 88,
        "12136": 101,
        "12137": 6,
        "12138": 227,
        "12139": 117,
        "12140": 242,
        "12141": 25,
        "12142": 32,
        "12143": 112,
        "12144": 101,
        "12145": 91,
        "12146": 214,
        "12147": 133,
        "12148": 130,
        "12149": 209,
        "12150": 44,
        "12151": 166,
        "12152": 147,
        "12153": 249,
        "12154": 116,
        "12155": 200,
        "12156": 105,
        "12157": 250,
        "12158": 179,
        "12159": 204,
        "12160": 229,
        "12161": 157,
        "12162": 215,
        "12163": 60,
        "12164": 3,
        "12165": 220,
        "12166": 20,
        "12167": 134,
        "12168": 91,
        "12169": 245,
        "12170": 235,
        "12171": 3,
        "12172": 25,
        "12173": 65,
        "12174": 21,
        "12175": 15,
        "12176": 243,
        "12177": 85,
        "12178": 145,
        "12179": 158,
        "12180": 218,
        "12181": 179,
        "12182": 86,
        "12183": 27,
        "12184": 62,
        "12185": 160,
        "12186": 204,
        "12187": 232,
        "12188": 57,
        "12189": 171,
        "12190": 118,
        "12191": 164,
        "12192": 242,
        "12193": 237,
        "12194": 32,
        "12195": 171,
        "12196": 15,
        "12197": 236,
        "12198": 188,
        "12199": 2,
        "12200": 59,
        "12201": 102,
        "12202": 113,
        "12203": 82,
        "12204": 49,
        "12205": 1,
        "12206": 78,
        "12207": 156,
        "12208": 151,
        "12209": 31,
        "12210": 249,
        "12211": 87,
        "12212": 35,
        "12213": 16,
        "12214": 51,
        "12215": 62,
        "12216": 22,
        "12217": 181,
        "12218": 32,
        "12219": 89,
        "12220": 248,
        "12221": 69,
        "12222": 201,
        "12223": 73,
        "12224": 55,
        "12225": 191,
        "12226": 141,
        "12227": 105,
        "12228": 115,
        "12229": 19,
        "12230": 95,
        "12231": 156,
        "12232": 136,
        "12233": 170,
        "12234": 176,
        "12235": 250,
        "12236": 96,
        "12237": 236,
        "12238": 136,
        "12239": 252,
        "12240": 102,
        "12241": 35,
        "12242": 85,
        "12243": 64,
        "12244": 251,
        "12245": 79,
        "12246": 198,
        "12247": 39,
        "12248": 63,
        "12249": 206,
        "12250": 234,
        "12251": 126,
        "12252": 83,
        "12253": 81,
        "12254": 38,
        "12255": 63,
        "12256": 253,
        "12257": 190,
        "12258": 218,
        "12259": 31,
        "12260": 55,
        "12261": 206,
        "12262": 187,
        "12263": 238,
        "12264": 205,
        "12265": 147,
        "12266": 156,
        "12267": 226,
        "12268": 42,
        "12269": 99,
        "12270": 195,
        "12271": 237,
        "12272": 159,
        "12273": 50,
        "12274": 5,
        "12275": 119,
        "12276": 37,
        "12277": 197,
        "12278": 128,
        "12279": 136,
        "12280": 62,
        "12281": 188,
        "12282": 0,
        "12283": 9,
        "12284": 144,
        "12285": 105,
        "12286": 225,
        "12287": 178,
        "12288": 22,
        "12289": 38,
        "12290": 55,
        "12291": 47,
        "12292": 249,
        "12293": 242,
        "12294": 166,
        "12295": 5,
        "12296": 14,
        "12297": 119,
        "12298": 4,
        "12299": 242,
        "12300": 39,
        "12301": 156,
        "12302": 64,
        "12303": 10,
        "12304": 250,
        "12305": 111,
        "12306": 0,
        "12307": 144,
        "12308": 20,
        "12309": 101,
        "12310": 82,
        "12311": 89,
        "12312": 183,
        "12313": 109,
        "12314": 133,
        "12315": 32,
        "12316": 31,
        "12317": 209,
        "12318": 225,
        "12319": 145,
        "12320": 54,
        "12321": 195,
        "12322": 37,
        "12323": 131,
        "12324": 233,
        "12325": 19,
        "12326": 100,
        "12327": 148,
        "12328": 57,
        "12329": 40,
        "12330": 128,
        "12331": 106,
        "12332": 135,
        "12333": 141,
        "12334": 49,
        "12335": 129,
        "12336": 202,
        "12337": 50,
        "12338": 174,
        "12339": 172,
        "12340": 205,
        "12341": 69,
        "12342": 35,
        "12343": 142,
        "12344": 193,
        "12345": 159,
        "12346": 140,
        "12347": 5,
        "12348": 57,
        "12349": 59,
        "12350": 79,
        "12351": 24,
        "12352": 100,
        "12353": 136,
        "12354": 113,
        "12355": 156,
        "12356": 243,
        "12357": 96,
        "12358": 75,
        "12359": 182,
        "12360": 241,
        "12361": 130,
        "12362": 115,
        "12363": 116,
        "12364": 90,
        "12365": 91,
        "12366": 178,
        "12367": 3,
        "12368": 199,
        "12369": 169,
        "12370": 129,
        "12371": 166,
        "12372": 131,
        "12373": 246,
        "12374": 42,
        "12375": 36,
        "12376": 60,
        "12377": 60,
        "12378": 27,
        "12379": 163,
        "12380": 216,
        "12381": 195,
        "12382": 102,
        "12383": 5,
        "12384": 224,
        "12385": 186,
        "12386": 209,
        "12387": 13,
        "12388": 166,
        "12389": 90,
        "12390": 117,
        "12391": 91,
        "12392": 100,
        "12393": 250,
        "12394": 215,
        "12395": 24,
        "12396": 50,
        "12397": 1,
        "12398": 33,
        "12399": 185,
        "12400": 3,
        "12401": 162,
        "12402": 121,
        "12403": 65,
        "12404": 28,
        "12405": 212,
        "12406": 79,
        "12407": 90,
        "12408": 209,
        "12409": 1,
        "12410": 159,
        "12411": 163,
        "12412": 98,
        "12413": 89,
        "12414": 104,
        "12415": 160,
        "12416": 251,
        "12417": 9,
        "12418": 25,
        "12419": 67,
        "12420": 95,
        "12421": 165,
        "12422": 189,
        "12423": 111,
        "12424": 191,
        "12425": 217,
        "12426": 203,
        "12427": 109,
        "12428": 199,
        "12429": 251,
        "12430": 26,
        "12431": 240,
        "12432": 222,
        "12433": 23,
        "12434": 28,
        "12435": 238,
        "12436": 11,
        "12437": 27,
        "12438": 193,
        "12439": 212,
        "12440": 135,
        "12441": 143,
        "12442": 166,
        "12443": 220,
        "12444": 43,
        "12445": 15,
        "12446": 220,
        "12447": 224,
        "12448": 6,
        "12449": 211,
        "12450": 144,
        "12451": 231,
        "12452": 161,
        "12453": 169,
        "12454": 217,
        "12455": 168,
        "12456": 234,
        "12457": 251,
        "12458": 209,
        "12459": 231,
        "12460": 114,
        "12461": 213,
        "12462": 200,
        "12463": 137,
        "12464": 94,
        "12465": 135,
        "12466": 93,
        "12467": 8,
        "12468": 25,
        "12469": 148,
        "12470": 178,
        "12471": 137,
        "12472": 201,
        "12473": 54,
        "12474": 246,
        "12475": 60,
        "12476": 221,
        "12477": 41,
        "12478": 64,
        "12479": 9,
        "12480": 73,
        "12481": 216,
        "12482": 145,
        "12483": 98,
        "12484": 198,
        "12485": 195,
        "12486": 187,
        "12487": 194,
        "12488": 74,
        "12489": 99,
        "12490": 2,
        "12491": 31,
        "12492": 211,
        "12493": 149,
        "12494": 229,
        "12495": 123,
        "12496": 9,
        "12497": 143,
        "12498": 183,
        "12499": 51,
        "12500": 209,
        "12501": 94,
        "12502": 206,
        "12503": 242,
        "12504": 129,
        "12505": 245,
        "12506": 99,
        "12507": 126,
        "12508": 106,
        "12509": 39,
        "12510": 0,
        "12511": 154,
        "12512": 47,
        "12513": 19,
        "12514": 232,
        "12515": 142,
        "12516": 4,
        "12517": 97,
        "12518": 116,
        "12519": 66,
        "12520": 197,
        "12521": 29,
        "12522": 218,
        "12523": 98,
        "12524": 188,
        "12525": 155,
        "12526": 6,
        "12527": 6,
        "12528": 61,
        "12529": 172,
        "12530": 123,
        "12531": 77,
        "12532": 52,
        "12533": 167,
        "12534": 134,
        "12535": 224,
        "12536": 114,
        "12537": 62,
        "12538": 20,
        "12539": 167,
        "12540": 154,
        "12541": 128,
        "12542": 109,
        "12543": 71,
        "12544": 135,
        "12545": 197,
        "12546": 39,
        "12547": 240,
        "12548": 151,
        "12549": 10,
        "12550": 186,
        "12551": 67,
        "12552": 23,
        "12553": 160,
        "12554": 26,
        "12555": 17,
        "12556": 91,
        "12557": 221,
        "12558": 194,
        "12559": 203,
        "12560": 82,
        "12561": 187,
        "12562": 78,
        "12563": 61,
        "12564": 255,
        "12565": 192,
        "12566": 81,
        "12567": 189,
        "12568": 166,
        "12569": 251,
        "12570": 56,
        "12571": 19,
        "12572": 221,
        "12573": 120,
        "12574": 130,
        "12575": 41,
        "12576": 191,
        "12577": 209,
        "12578": 73,
        "12579": 3,
        "12580": 80,
        "12581": 146,
        "12582": 108,
        "12583": 72,
        "12584": 249,
        "12585": 85,
        "12586": 167,
        "12587": 222,
        "12588": 124,
        "12589": 213,
        "12590": 23,
        "12591": 104,
        "12592": 61,
        "12593": 227,
        "12594": 50,
        "12595": 83,
        "12596": 172,
        "12597": 43,
        "12598": 85,
        "12599": 142,
        "12600": 107,
        "12601": 164,
        "12602": 81,
        "12603": 132,
        "12604": 166,
        "12605": 126,
        "12606": 215,
        "12607": 151,
        "12608": 4,
        "12609": 213,
        "12610": 247,
        "12611": 170,
        "12612": 142,
        "12613": 25,
        "12614": 4,
        "12615": 245,
        "12616": 105,
        "12617": 240,
        "12618": 149,
        "12619": 142,
        "12620": 229,
        "12621": 134,
        "12622": 23,
        "12623": 82,
        "12624": 33,
        "12625": 112,
        "12626": 151,
        "12627": 204,
        "12628": 29,
        "12629": 162,
        "12630": 105,
        "12631": 4,
        "12632": 34,
        "12633": 103,
        "12634": 97,
        "12635": 104,
        "12636": 200,
        "12637": 127,
        "12638": 58,
        "12639": 234,
        "12640": 135,
        "12641": 12,
        "12642": 81,
        "12643": 99,
        "12644": 240,
        "12645": 184,
        "12646": 249,
        "12647": 91,
        "12648": 149,
        "12649": 244,
        "12650": 141,
        "12651": 208,
        "12652": 125,
        "12653": 159,
        "12654": 7,
        "12655": 194,
        "12656": 103,
        "12657": 56,
        "12658": 79,
        "12659": 91,
        "12660": 26,
        "12661": 8,
        "12662": 96,
        "12663": 147,
        "12664": 215,
        "12665": 197,
        "12666": 251,
        "12667": 217,
        "12668": 101,
        "12669": 233,
        "12670": 184,
        "12671": 19,
        "12672": 234,
        "12673": 56,
        "12674": 238,
        "12675": 147,
        "12676": 74,
        "12677": 196,
        "12678": 100,
        "12679": 168,
        "12680": 53,
        "12681": 250,
        "12682": 120,
        "12683": 70,
        "12684": 129,
        "12685": 227,
        "12686": 108,
        "12687": 154,
        "12688": 81,
        "12689": 201,
        "12690": 41,
        "12691": 8,
        "12692": 112,
        "12693": 124,
        "12694": 48,
        "12695": 32,
        "12696": 20,
        "12697": 45,
        "12698": 131,
        "12699": 253,
        "12700": 132,
        "12701": 73,
        "12702": 30,
        "12703": 108,
        "12704": 164,
        "12705": 72,
        "12706": 183,
        "12707": 138,
        "12708": 231,
        "12709": 127,
        "12710": 101,
        "12711": 127,
        "12712": 84,
        "12713": 93,
        "12714": 200,
        "12715": 221,
        "12716": 118,
        "12717": 230,
        "12718": 228,
        "12719": 95,
        "12720": 194,
        "12721": 112,
        "12722": 117,
        "12723": 60,
        "12724": 192,
        "12725": 249,
        "12726": 255,
        "12727": 221,
        "12728": 140,
        "12729": 108,
        "12730": 2,
        "12731": 30,
        "12732": 37,
        "12733": 215,
        "12734": 73,
        "12735": 249,
        "12736": 227,
        "12737": 154,
        "12738": 165,
        "12739": 46,
        "12740": 185,
        "12741": 178,
        "12742": 25,
        "12743": 199,
        "12744": 231,
        "12745": 115,
        "12746": 53,
        "12747": 137,
        "12748": 245,
        "12749": 126,
        "12750": 250,
        "12751": 114,
        "12752": 24,
        "12753": 245,
        "12754": 80,
        "12755": 144,
        "12756": 152,
        "12757": 195,
        "12758": 212,
        "12759": 162,
        "12760": 44,
        "12761": 120,
        "12762": 185,
        "12763": 31,
        "12764": 139,
        "12765": 156,
        "12766": 117,
        "12767": 223,
        "12768": 34,
        "12769": 171,
        "12770": 64,
        "12771": 38,
        "12772": 57,
        "12773": 252,
        "12774": 74,
        "12775": 182,
        "12776": 204,
        "12777": 59,
        "12778": 136,
        "12779": 50,
        "12780": 173,
        "12781": 252,
        "12782": 51,
        "12783": 249,
        "12784": 71,
        "12785": 77,
        "12786": 66,
        "12787": 100,
        "12788": 110,
        "12789": 9,
        "12790": 218,
        "12791": 11,
        "12792": 100,
        "12793": 234,
        "12794": 88,
        "12795": 116,
        "12796": 127,
        "12797": 55,
        "12798": 134,
        "12799": 118,
        "12800": 81,
        "12801": 127,
        "12802": 114,
        "12803": 241,
        "12804": 202,
        "12805": 141,
        "12806": 234,
        "12807": 118,
        "12808": 213,
        "12809": 40,
        "12810": 10,
        "12811": 85,
        "12812": 117,
        "12813": 60,
        "12814": 210,
        "12815": 47,
        "12816": 202,
        "12817": 213,
        "12818": 151,
        "12819": 186,
        "12820": 72,
        "12821": 254,
        "12822": 148,
        "12823": 230,
        "12824": 37,
        "12825": 188,
        "12826": 88,
        "12827": 108,
        "12828": 113,
        "12829": 120,
        "12830": 151,
        "12831": 63,
        "12832": 180,
        "12833": 208,
        "12834": 94,
        "12835": 115,
        "12836": 40,
        "12837": 209,
        "12838": 77,
        "12839": 98,
        "12840": 130,
        "12841": 94,
        "12842": 158,
        "12843": 182,
        "12844": 58,
        "12845": 117,
        "12846": 212,
        "12847": 121,
        "12848": 246,
        "12849": 167,
        "12850": 241,
        "12851": 122,
        "12852": 65,
        "12853": 112,
        "12854": 6,
        "12855": 14,
        "12856": 110,
        "12857": 50,
        "12858": 145,
        "12859": 216,
        "12860": 248,
        "12861": 236,
        "12862": 152,
        "12863": 23,
        "12864": 181,
        "12865": 2,
        "12866": 25,
        "12867": 30,
        "12868": 76,
        "12869": 139,
        "12870": 132,
        "12871": 247,
        "12872": 193,
        "12873": 253,
        "12874": 185,
        "12875": 33,
        "12876": 234,
        "12877": 249,
        "12878": 101,
        "12879": 163,
        "12880": 226,
        "12881": 239,
        "12882": 132,
        "12883": 199,
        "12884": 49,
        "12885": 89,
        "12886": 241,
        "12887": 30,
        "12888": 127,
        "12889": 195,
        "12890": 9,
        "12891": 164,
        "12892": 132,
        "12893": 208,
        "12894": 232,
        "12895": 10,
        "12896": 252,
        "12897": 97,
        "12898": 111,
        "12899": 187,
        "12900": 138,
        "12901": 2,
        "12902": 221,
        "12903": 246,
        "12904": 67,
        "12905": 156,
        "12906": 203,
        "12907": 90,
        "12908": 2,
        "12909": 15,
        "12910": 98,
        "12911": 195,
        "12912": 217,
        "12913": 155,
        "12914": 69,
        "12915": 170,
        "12916": 252,
        "12917": 139,
        "12918": 1,
        "12919": 141,
        "12920": 134,
        "12921": 223,
        "12922": 110,
        "12923": 176,
        "12924": 72,
        "12925": 95,
        "12926": 226,
        "12927": 230,
        "12928": 117,
        "12929": 248,
        "12930": 82,
        "12931": 63,
        "12932": 187,
        "12933": 29,
        "12934": 113,
        "12935": 198,
        "12936": 91,
        "12937": 205,
        "12938": 198,
        "12939": 144,
        "12940": 79,
        "12941": 67,
        "12942": 66,
        "12943": 155,
        "12944": 9,
        "12945": 72,
        "12946": 52,
        "12947": 239,
        "12948": 36,
        "12949": 50,
        "12950": 191,
        "12951": 182,
        "12952": 86,
        "12953": 227,
        "12954": 71,
        "12955": 226,
        "12956": 99,
        "12957": 122,
        "12958": 9,
        "12959": 182,
        "12960": 26,
        "12961": 103,
        "12962": 22,
        "12963": 240,
        "12964": 180,
        "12965": 45,
        "12966": 212,
        "12967": 76,
        "12968": 178,
        "12969": 87,
        "12970": 72,
        "12971": 179,
        "12972": 173,
        "12973": 227,
        "12974": 196,
        "12975": 117,
        "12976": 163,
        "12977": 82,
        "12978": 192,
        "12979": 75,
        "12980": 207,
        "12981": 33,
        "12982": 100,
        "12983": 84,
        "12984": 191,
        "12985": 69,
        "12986": 203,
        "12987": 140,
        "12988": 22,
        "12989": 105,
        "12990": 90,
        "12991": 32,
        "12992": 126,
        "12993": 175,
        "12994": 168,
        "12995": 225,
        "12996": 181,
        "12997": 22,
        "12998": 77,
        "12999": 7,
        "13000": 87,
        "13001": 159,
        "13002": 60,
        "13003": 10,
        "13004": 11,
        "13005": 179,
        "13006": 142,
        "13007": 32,
        "13008": 13,
        "13009": 118,
        "13010": 104,
        "13011": 139,
        "13012": 238,
        "13013": 78,
        "13014": 161,
        "13015": 73,
        "13016": 93,
        "13017": 101,
        "13018": 39,
        "13019": 145,
        "13020": 65,
        "13021": 6,
        "13022": 176,
        "13023": 255,
        "13024": 46,
        "13025": 145,
        "13026": 223,
        "13027": 22,
        "13028": 213,
        "13029": 101,
        "13030": 199,
        "13031": 57,
        "13032": 111,
        "13033": 3,
        "13034": 183,
        "13035": 101,
        "13036": 141,
        "13037": 141,
        "13038": 201,
        "13039": 222,
        "13040": 221,
        "13041": 248,
        "13042": 18,
        "13043": 202,
        "13044": 136,
        "13045": 159,
        "13046": 102,
        "13047": 109,
        "13048": 7,
        "13049": 197,
        "13050": 236,
        "13051": 57,
        "13052": 129,
        "13053": 117,
        "13054": 111,
        "13055": 202,
        "13056": 79,
        "13057": 220,
        "13058": 2,
        "13059": 226,
        "13060": 126,
        "13061": 213,
        "13062": 220,
        "13063": 58,
        "13064": 102,
        "13065": 50,
        "13066": 31,
        "13067": 141,
        "13068": 40,
        "13069": 106,
        "13070": 133,
        "13071": 110,
        "13072": 27,
        "13073": 158,
        "13074": 116,
        "13075": 94,
        "13076": 206,
        "13077": 70,
        "13078": 241,
        "13079": 94,
        "13080": 17,
        "13081": 248,
        "13082": 164,
        "13083": 179,
        "13084": 33,
        "13085": 171,
        "13086": 105,
        "13087": 252,
        "13088": 38,
        "13089": 124,
        "13090": 242,
        "13091": 13,
        "13092": 123,
        "13093": 120,
        "13094": 33,
        "13095": 52,
        "13096": 4,
        "13097": 217,
        "13098": 84,
        "13099": 106,
        "13100": 120,
        "13101": 73,
        "13102": 142,
        "13103": 207,
        "13104": 72,
        "13105": 98,
        "13106": 6,
        "13107": 45,
        "13108": 76,
        "13109": 73,
        "13110": 70,
        "13111": 105,
        "13112": 1,
        "13113": 78,
        "13114": 12,
        "13115": 111,
        "13116": 139,
        "13117": 86,
        "13118": 56,
        "13119": 9,
        "13120": 69,
        "13121": 172,
        "13122": 97,
        "13123": 71,
        "13124": 103,
        "13125": 188,
        "13126": 131,
        "13127": 199,
        "13128": 112,
        "13129": 125,
        "13130": 167,
        "13131": 247,
        "13132": 63,
        "13133": 254,
        "13134": 90,
        "13135": 163,
        "13136": 216,
        "13137": 179,
        "13138": 49,
        "13139": 42,
        "13140": 148,
        "13141": 227,
        "13142": 209,
        "13143": 246,
        "13144": 69,
        "13145": 242,
        "13146": 127,
        "13147": 63,
        "13148": 115,
        "13149": 44,
        "13150": 255,
        "13151": 145,
        "13152": 227,
        "13153": 97,
        "13154": 130,
        "13155": 7,
        "13156": 138,
        "13157": 153,
        "13158": 175,
        "13159": 51,
        "13160": 102,
        "13161": 178,
        "13162": 177,
        "13163": 248,
        "13164": 53,
        "13165": 64,
        "13166": 92,
        "13167": 52,
        "13168": 170,
        "13169": 202,
        "13170": 99,
        "13171": 48,
        "13172": 158,
        "13173": 23,
        "13174": 63,
        "13175": 88,
        "13176": 215,
        "13177": 71,
        "13178": 138,
        "13179": 136,
        "13180": 237,
        "13181": 253,
        "13182": 87,
        "13183": 47,
        "13184": 10,
        "13185": 19,
        "13186": 117,
        "13187": 55,
        "13188": 190,
        "13189": 129,
        "13190": 8,
        "13191": 133,
        "13192": 215,
        "13193": 249,
        "13194": 136,
        "13195": 31,
        "13196": 158,
        "13197": 228,
        "13198": 58,
        "13199": 39,
        "13200": 28,
        "13201": 113,
        "13202": 132,
        "13203": 109,
        "13204": 164,
        "13205": 1,
        "13206": 255,
        "13207": 0,
        "13208": 224,
        "13209": 177,
        "13210": 61,
        "13211": 253,
        "13212": 174,
        "13213": 31,
        "13214": 97,
        "13215": 181,
        "13216": 62,
        "13217": 151,
        "13218": 51,
        "13219": 244,
        "13220": 16,
        "13221": 130,
        "13222": 142,
        "13223": 65,
        "13224": 248,
        "13225": 201,
        "13226": 59,
        "13227": 145,
        "13228": 165,
        "13229": 32,
        "13230": 223,
        "13231": 169,
        "13232": 138,
        "13233": 2,
        "13234": 216,
        "13235": 36,
        "13236": 6,
        "13237": 5,
        "13238": 60,
        "13239": 73,
        "13240": 222,
        "13241": 105,
        "13242": 203,
        "13243": 167,
        "13244": 89,
        "13245": 36,
        "13246": 88,
        "13247": 72,
        "13248": 17,
        "13249": 8,
        "13250": 219,
        "13251": 245,
        "13252": 152,
        "13253": 171,
        "13254": 230,
        "13255": 118,
        "13256": 71,
        "13257": 217,
        "13258": 55,
        "13259": 162,
        "13260": 76,
        "13261": 172,
        "13262": 61,
        "13263": 185,
        "13264": 15,
        "13265": 167,
        "13266": 38,
        "13267": 148,
        "13268": 30,
        "13269": 166,
        "13270": 107,
        "13271": 253,
        "13272": 35,
        "13273": 24,
        "13274": 48,
        "13275": 79,
        "13276": 182,
        "13277": 202,
        "13278": 238,
        "13279": 111,
        "13280": 161,
        "13281": 169,
        "13282": 120,
        "13283": 219,
        "13284": 41,
        "13285": 135,
        "13286": 153,
        "13287": 141,
        "13288": 1,
        "13289": 118,
        "13290": 171,
        "13291": 170,
        "13292": 123,
        "13293": 122,
        "13294": 118,
        "13295": 58,
        "13296": 204,
        "13297": 106,
        "13298": 72,
        "13299": 63,
        "13300": 196,
        "13301": 147,
        "13302": 19,
        "13303": 13,
        "13304": 112,
        "13305": 218,
        "13306": 90,
        "13307": 197,
        "13308": 255,
        "13309": 30,
        "13310": 4,
        "13311": 157,
        "13312": 74,
        "13313": 152,
        "13314": 83,
        "13315": 135,
        "13316": 11,
        "13317": 206,
        "13318": 251,
        "13319": 174,
        "13320": 202,
        "13321": 118,
        "13322": 111,
        "13323": 1,
        "13324": 97,
        "13325": 36,
        "13326": 192,
        "13327": 170,
        "13328": 11,
        "13329": 91,
        "13330": 155,
        "13331": 170,
        "13332": 194,
        "13333": 210,
        "13334": 98,
        "13335": 148,
        "13336": 127,
        "13337": 12,
        "13338": 171,
        "13339": 71,
        "13340": 57,
        "13341": 234,
        "13342": 244,
        "13343": 205,
        "13344": 85,
        "13345": 80,
        "13346": 131,
        "13347": 89,
        "13348": 14,
        "13349": 80,
        "13350": 72,
        "13351": 20,
        "13352": 148,
        "13353": 149,
        "13354": 223,
        "13355": 130,
        "13356": 51,
        "13357": 219,
        "13358": 242,
        "13359": 77,
        "13360": 185,
        "13361": 131,
        "13362": 29,
        "13363": 22,
        "13364": 99,
        "13365": 79,
        "13366": 50,
        "13367": 72,
        "13368": 35,
        "13369": 137,
        "13370": 59,
        "13371": 47,
        "13372": 142,
        "13373": 9,
        "13374": 31,
        "13375": 52,
        "13376": 255,
        "13377": 150,
        "13378": 111,
        "13379": 184,
        "13380": 41,
        "13381": 200,
        "13382": 210,
        "13383": 118,
        "13384": 234,
        "13385": 252,
        "13386": 136,
        "13387": 163,
        "13388": 81,
        "13389": 166,
        "13390": 59,
        "13391": 60,
        "13392": 149,
        "13393": 134,
        "13394": 197,
        "13395": 181,
        "13396": 222,
        "13397": 109,
        "13398": 253,
        "13399": 9,
        "13400": 106,
        "13401": 217,
        "13402": 118,
        "13403": 164,
        "13404": 126,
        "13405": 125,
        "13406": 133,
        "13407": 67,
        "13408": 218,
        "13409": 54,
        "13410": 230,
        "13411": 114,
        "13412": 253,
        "13413": 147,
        "13414": 142,
        "13415": 155,
        "13416": 72,
        "13417": 179,
        "13418": 63,
        "13419": 97,
        "13420": 230,
        "13421": 11,
        "13422": 254,
        "13423": 254,
        "13424": 90,
        "13425": 154,
        "13426": 162,
        "13427": 175,
        "13428": 207,
        "13429": 68,
        "13430": 127,
        "13431": 160,
        "13432": 239,
        "13433": 111,
        "13434": 4,
        "13435": 199,
        "13436": 224,
        "13437": 23,
        "13438": 108,
        "13439": 148,
        "13440": 246,
        "13441": 112,
        "13442": 211,
        "13443": 18,
        "13444": 206,
        "13445": 77,
        "13446": 87,
        "13447": 72,
        "13448": 224,
        "13449": 140,
        "13450": 45,
        "13451": 246,
        "13452": 68,
        "13453": 230,
        "13454": 249,
        "13455": 77,
        "13456": 136,
        "13457": 211,
        "13458": 133,
        "13459": 161,
        "13460": 110,
        "13461": 130,
        "13462": 105,
        "13463": 157,
        "13464": 79,
        "13465": 224,
        "13466": 117,
        "13467": 206,
        "13468": 108,
        "13469": 166,
        "13470": 222,
        "13471": 239,
        "13472": 200,
        "13473": 80,
        "13474": 95,
        "13475": 78,
        "13476": 65,
        "13477": 82,
        "13478": 208,
        "13479": 221,
        "13480": 116,
        "13481": 218,
        "13482": 16,
        "13483": 179,
        "13484": 136,
        "13485": 20,
        "13486": 214,
        "13487": 185,
        "13488": 177,
        "13489": 179,
        "13490": 68,
        "13491": 67,
        "13492": 222,
        "13493": 172,
        "13494": 116,
        "13495": 162,
        "13496": 225,
        "13497": 168,
        "13498": 236,
        "13499": 198,
        "13500": 126,
        "13501": 215,
        "13502": 52,
        "13503": 59,
        "13504": 251,
        "13505": 166,
        "13506": 236,
        "13507": 246,
        "13508": 211,
        "13509": 60,
        "13510": 111,
        "13511": 224,
        "13512": 123,
        "13513": 212,
        "13514": 102,
        "13515": 220,
        "13516": 220,
        "13517": 167,
        "13518": 60,
        "13519": 55,
        "13520": 166,
        "13521": 120,
        "13522": 57,
        "13523": 180,
        "13524": 14,
        "13525": 42,
        "13526": 236,
        "13527": 14,
        "13528": 143,
        "13529": 19,
        "13530": 123,
        "13531": 252,
        "13532": 118,
        "13533": 202,
        "13534": 219,
        "13535": 154,
        "13536": 184,
        "13537": 94,
        "13538": 164,
        "13539": 136,
        "13540": 77,
        "13541": 153,
        "13542": 161,
        "13543": 196,
        "13544": 101,
        "13545": 109,
        "13546": 160,
        "13547": 137,
        "13548": 74,
        "13549": 86,
        "13550": 46,
        "13551": 109,
        "13552": 145,
        "13553": 88,
        "13554": 129,
        "13555": 236,
        "13556": 251,
        "13557": 202,
        "13558": 138,
        "13559": 86,
        "13560": 235,
        "13561": 72,
        "13562": 249,
        "13563": 132,
        "13564": 117,
        "13565": 201,
        "13566": 242,
        "13567": 11,
        "13568": 237,
        "13569": 224,
        "13570": 145,
        "13571": 27,
        "13572": 218,
        "13573": 251,
        "13574": 111,
        "13575": 134,
        "13576": 133,
        "13577": 120,
        "13578": 108,
        "13579": 53,
        "13580": 181,
        "13581": 25,
        "13582": 184,
        "13583": 70,
        "13584": 171,
        "13585": 38,
        "13586": 45,
        "13587": 157,
        "13588": 133,
        "13589": 98,
        "13590": 141,
        "13591": 152,
        "13592": 175,
        "13593": 154,
        "13594": 193,
        "13595": 129,
        "13596": 182,
        "13597": 194,
        "13598": 164,
        "13599": 11,
        "13600": 55,
        "13601": 177,
        "13602": 158,
        "13603": 207,
        "13604": 0,
        "13605": 85,
        "13606": 162,
        "13607": 154,
        "13608": 224,
        "13609": 62,
        "13610": 183,
        "13611": 32,
        "13612": 4,
        "13613": 104,
        "13614": 231,
        "13615": 241,
        "13616": 163,
        "13617": 74,
        "13618": 52,
        "13619": 60,
        "13620": 168,
        "13621": 62,
        "13622": 72,
        "13623": 159,
        "13624": 231,
        "13625": 24,
        "13626": 153,
        "13627": 199,
        "13628": 240,
        "13629": 137,
        "13630": 129,
        "13631": 128,
        "13632": 227,
        "13633": 149,
        "13634": 84,
        "13635": 226,
        "13636": 98,
        "13637": 53,
        "13638": 45,
        "13639": 104,
        "13640": 228,
        "13641": 182,
        "13642": 204,
        "13643": 31,
        "13644": 226,
        "13645": 106,
        "13646": 201,
        "13647": 40,
        "13648": 233,
        "13649": 10,
        "13650": 247,
        "13651": 4,
        "13652": 170,
        "13653": 242,
        "13654": 235,
        "13655": 54,
        "13656": 243,
        "13657": 165,
        "13658": 188,
        "13659": 103,
        "13660": 59,
        "13661": 4,
        "13662": 66,
        "13663": 224,
        "13664": 100,
        "13665": 0,
        "13666": 64,
        "13667": 236,
        "13668": 67,
        "13669": 162,
        "13670": 147,
        "13671": 226,
        "13672": 149,
        "13673": 78,
        "13674": 208,
        "13675": 209,
        "13676": 195,
        "13677": 137,
        "13678": 148,
        "13679": 20,
        "13680": 4,
        "13681": 110,
        "13682": 251,
        "13683": 179,
        "13684": 208,
        "13685": 177,
        "13686": 16,
        "13687": 106,
        "13688": 237,
        "13689": 142,
        "13690": 219,
        "13691": 246,
        "13692": 255,
        "13693": 64,
        "13694": 106,
        "13695": 73,
        "13696": 117,
        "13697": 149,
        "13698": 75,
        "13699": 10,
        "13700": 205,
        "13701": 216,
        "13702": 123,
        "13703": 18,
        "13704": 215,
        "13705": 34,
        "13706": 199,
        "13707": 177,
        "13708": 169,
        "13709": 5,
        "13710": 132,
        "13711": 201,
        "13712": 85,
        "13713": 57,
        "13714": 79,
        "13715": 34,
        "13716": 97,
        "13717": 151,
        "13718": 180,
        "13719": 30,
        "13720": 47,
        "13721": 205,
        "13722": 46,
        "13723": 104,
        "13724": 234,
        "13725": 67,
        "13726": 161,
        "13727": 63,
        "13728": 216,
        "13729": 196,
        "13730": 83,
        "13731": 150,
        "13732": 92,
        "13733": 201,
        "13734": 53,
        "13735": 27,
        "13736": 42,
        "13737": 108,
        "13738": 53,
        "13739": 13,
        "13740": 142,
        "13741": 244,
        "13742": 113,
        "13743": 122,
        "13744": 154,
        "13745": 25,
        "13746": 162,
        "13747": 110,
        "13748": 173,
        "13749": 254,
        "13750": 138,
        "13751": 217,
        "13752": 183,
        "13753": 181,
        "13754": 28,
        "13755": 99,
        "13756": 26,
        "13757": 73,
        "13758": 27,
        "13759": 210,
        "13760": 139,
        "13761": 111,
        "13762": 110,
        "13763": 254,
        "13764": 154,
        "13765": 123,
        "13766": 68,
        "13767": 3,
        "13768": 114,
        "13769": 195,
        "13770": 185,
        "13771": 136,
        "13772": 174,
        "13773": 20,
        "13774": 159,
        "13775": 162,
        "13776": 0,
        "13777": 179,
        "13778": 81,
        "13779": 159,
        "13780": 130,
        "13781": 77,
        "13782": 135,
        "13783": 130,
        "13784": 136,
        "13785": 128,
        "13786": 54,
        "13787": 67,
        "13788": 76,
        "13789": 217,
        "13790": 131,
        "13791": 30,
        "13792": 176,
        "13793": 159,
        "13794": 123,
        "13795": 49,
        "13796": 1,
        "13797": 200,
        "13798": 11,
        "13799": 68,
        "13800": 35,
        "13801": 158,
        "13802": 208,
        "13803": 108,
        "13804": 224,
        "13805": 18,
        "13806": 243,
        "13807": 126,
        "13808": 142,
        "13809": 142,
        "13810": 72,
        "13811": 48,
        "13812": 202,
        "13813": 46,
        "13814": 217,
        "13815": 139,
        "13816": 149,
        "13817": 235,
        "13818": 37,
        "13819": 254,
        "13820": 135,
        "13821": 170,
        "13822": 226,
        "13823": 35,
        "13824": 254,
        "13825": 105,
        "13826": 73,
        "13827": 16,
        "13828": 229,
        "13829": 75,
        "13830": 4,
        "13831": 118,
        "13832": 55,
        "13833": 132,
        "13834": 16,
        "13835": 221,
        "13836": 179,
        "13837": 153,
        "13838": 34,
        "13839": 216,
        "13840": 217,
        "13841": 155,
        "13842": 153,
        "13843": 59,
        "13844": 195,
        "13845": 200,
        "13846": 4,
        "13847": 99,
        "13848": 100,
        "13849": 238,
        "13850": 35,
        "13851": 206,
        "13852": 163,
        "13853": 103,
        "13854": 241,
        "13855": 229,
        "13856": 138,
        "13857": 7,
        "13858": 204,
        "13859": 253,
        "13860": 68,
        "13861": 130,
        "13862": 56,
        "13863": 50,
        "13864": 87,
        "13865": 249,
        "13866": 65,
        "13867": 45,
        "13868": 177,
        "13869": 74,
        "13870": 191,
        "13871": 4,
        "13872": 244,
        "13873": 28,
        "13874": 105,
        "13875": 17,
        "13876": 119,
        "13877": 110,
        "13878": 184,
        "13879": 19,
        "13880": 148,
        "13881": 207,
        "13882": 229,
        "13883": 119,
        "13884": 228,
        "13885": 64,
        "13886": 159,
        "13887": 89,
        "13888": 5,
        "13889": 137,
        "13890": 58,
        "13891": 67,
        "13892": 16,
        "13893": 137,
        "13894": 106,
        "13895": 159,
        "13896": 23,
        "13897": 74,
        "13898": 131,
        "13899": 15,
        "13900": 90,
        "13901": 40,
        "13902": 60,
        "13903": 109,
        "13904": 96,
        "13905": 51,
        "13906": 109,
        "13907": 63,
        "13908": 75,
        "13909": 54,
        "13910": 5,
        "13911": 22,
        "13912": 21,
        "13913": 220,
        "13914": 134,
        "13915": 3,
        "13916": 7,
        "13917": 34,
        "13918": 168,
        "13919": 57,
        "13920": 215,
        "13921": 4,
        "13922": 198,
        "13923": 5,
        "13924": 26,
        "13925": 206,
        "13926": 18,
        "13927": 33,
        "13928": 83,
        "13929": 59,
        "13930": 165,
        "13931": 68,
        "13932": 27,
        "13933": 116,
        "13934": 50,
        "13935": 207,
        "13936": 193,
        "13937": 43,
        "13938": 171,
        "13939": 55,
        "13940": 123,
        "13941": 144,
        "13942": 8,
        "13943": 60,
        "13944": 208,
        "13945": 211,
        "13946": 188,
        "13947": 129,
        "13948": 189,
        "13949": 95,
        "13950": 135,
        "13951": 46,
        "13952": 172,
        "13953": 120,
        "13954": 157,
        "13955": 73,
        "13956": 25,
        "13957": 119,
        "13958": 243,
        "13959": 50,
        "13960": 76,
        "13961": 118,
        "13962": 251,
        "13963": 13,
        "13964": 65,
        "13965": 223,
        "13966": 189,
        "13967": 148,
        "13968": 104,
        "13969": 125,
        "13970": 172,
        "13971": 107,
        "13972": 25,
        "13973": 205,
        "13974": 78,
        "13975": 45,
        "13976": 219,
        "13977": 255,
        "13978": 12,
        "13979": 187,
        "13980": 206,
        "13981": 233,
        "13982": 244,
        "13983": 2,
        "13984": 143,
        "13985": 36,
        "13986": 45,
        "13987": 199,
        "13988": 159,
        "13989": 177,
        "13990": 216,
        "13991": 204,
        "13992": 48,
        "13993": 103,
        "13994": 131,
        "13995": 147,
        "13996": 137,
        "13997": 69,
        "13998": 148,
        "13999": 202,
        "14000": 200,
        "14001": 169,
        "14002": 25,
        "14003": 38,
        "14004": 55,
        "14005": 237,
        "14006": 184,
        "14007": 112,
        "14008": 86,
        "14009": 126,
        "14010": 0,
        "14011": 208,
        "14012": 206,
        "14013": 157,
        "14014": 249,
        "14015": 40,
        "14016": 60,
        "14017": 253,
        "14018": 247,
        "14019": 149,
        "14020": 162,
        "14021": 226,
        "14022": 146,
        "14023": 188,
        "14024": 194,
        "14025": 61,
        "14026": 213,
        "14027": 199,
        "14028": 139,
        "14029": 2,
        "14030": 35,
        "14031": 232,
        "14032": 81,
        "14033": 208,
        "14034": 169,
        "14035": 85,
        "14036": 121,
        "14037": 12,
        "14038": 109,
        "14039": 44,
        "14040": 72,
        "14041": 161,
        "14042": 254,
        "14043": 178,
        "14044": 54,
        "14045": 18,
        "14046": 198,
        "14047": 30,
        "14048": 36,
        "14049": 247,
        "14050": 92,
        "14051": 89,
        "14052": 131,
        "14053": 39,
        "14054": 156,
        "14055": 149,
        "14056": 82,
        "14057": 206,
        "14058": 222,
        "14059": 181,
        "14060": 72,
        "14061": 7,
        "14062": 127,
        "14063": 121,
        "14064": 162,
        "14065": 105,
        "14066": 76,
        "14067": 26,
        "14068": 121,
        "14069": 142,
        "14070": 214,
        "14071": 3,
        "14072": 214,
        "14073": 83,
        "14074": 206,
        "14075": 114,
        "14076": 208,
        "14077": 165,
        "14078": 188,
        "14079": 24,
        "14080": 154,
        "14081": 60,
        "14082": 209,
        "14083": 176,
        "14084": 109,
        "14085": 112,
        "14086": 82,
        "14087": 150,
        "14088": 17,
        "14089": 140,
        "14090": 196,
        "14091": 140,
        "14092": 173,
        "14093": 83,
        "14094": 209,
        "14095": 187,
        "14096": 128,
        "14097": 195,
        "14098": 196,
        "14099": 193,
        "14100": 24,
        "14101": 208,
        "14102": 4,
        "14103": 148,
        "14104": 208,
        "14105": 53,
        "14106": 73,
        "14107": 151,
        "14108": 104,
        "14109": 205,
        "14110": 96,
        "14111": 244,
        "14112": 117,
        "14113": 162,
        "14114": 91,
        "14115": 67,
        "14116": 241,
        "14117": 176,
        "14118": 138,
        "14119": 47,
        "14120": 226,
        "14121": 230,
        "14122": 99,
        "14123": 73,
        "14124": 30,
        "14125": 47,
        "14126": 143,
        "14127": 49,
        "14128": 218,
        "14129": 61,
        "14130": 3,
        "14131": 26,
        "14132": 188,
        "14133": 113,
        "14134": 185,
        "14135": 7,
        "14136": 133,
        "14137": 25,
        "14138": 7,
        "14139": 75,
        "14140": 43,
        "14141": 214,
        "14142": 225,
        "14143": 71,
        "14144": 165,
        "14145": 119,
        "14146": 195,
        "14147": 222,
        "14148": 46,
        "14149": 226,
        "14150": 202,
        "14151": 249,
        "14152": 88,
        "14153": 73,
        "14154": 130,
        "14155": 70,
        "14156": 206,
        "14157": 206,
        "14158": 125,
        "14159": 147,
        "14160": 53,
        "14161": 42,
        "14162": 106,
        "14163": 56,
        "14164": 63,
        "14165": 202,
        "14166": 133,
        "14167": 137,
        "14168": 45,
        "14169": 207,
        "14170": 165,
        "14171": 14,
        "14172": 63,
        "14173": 218,
        "14174": 2,
        "14175": 55,
        "14176": 118,
        "14177": 247,
        "14178": 164,
        "14179": 191,
        "14180": 205,
        "14181": 26,
        "14182": 114,
        "14183": 182,
        "14184": 43,
        "14185": 166,
        "14186": 90,
        "14187": 115,
        "14188": 77,
        "14189": 66,
        "14190": 149,
        "14191": 24,
        "14192": 105,
        "14193": 4,
        "14194": 57,
        "14195": 62,
        "14196": 189,
        "14197": 159,
        "14198": 250,
        "14199": 224,
        "14200": 153,
        "14201": 58,
        "14202": 113,
        "14203": 30,
        "14204": 27,
        "14205": 62,
        "14206": 155,
        "14207": 138,
        "14208": 9,
        "14209": 26,
        "14210": 108,
        "14211": 39,
        "14212": 68,
        "14213": 3,
        "14214": 49,
        "14215": 1,
        "14216": 241,
        "14217": 201,
        "14218": 20,
        "14219": 99,
        "14220": 118,
        "14221": 24,
        "14222": 71,
        "14223": 110,
        "14224": 186,
        "14225": 127,
        "14226": 166,
        "14227": 143,
        "14228": 183,
        "14229": 193,
        "14230": 223,
        "14231": 39,
        "14232": 8,
        "14233": 25,
        "14234": 113,
        "14235": 144,
        "14236": 227,
        "14237": 47,
        "14238": 164,
        "14239": 13,
        "14240": 22,
        "14241": 170,
        "14242": 144,
        "14243": 111,
        "14244": 6,
        "14245": 52,
        "14246": 225,
        "14247": 98,
        "14248": 188,
        "14249": 197,
        "14250": 200,
        "14251": 162,
        "14252": 81,
        "14253": 70,
        "14254": 48,
        "14255": 218,
        "14256": 88,
        "14257": 75,
        "14258": 4,
        "14259": 201,
        "14260": 33,
        "14261": 214,
        "14262": 116,
        "14263": 83,
        "14264": 241,
        "14265": 229,
        "14266": 241,
        "14267": 172,
        "14268": 80,
        "14269": 193,
        "14270": 164,
        "14271": 217,
        "14272": 231,
        "14273": 96,
        "14274": 56,
        "14275": 204,
        "14276": 107,
        "14277": 230,
        "14278": 27,
        "14279": 21,
        "14280": 25,
        "14281": 117,
        "14282": 220,
        "14283": 199,
        "14284": 239,
        "14285": 17,
        "14286": 228,
        "14287": 78,
        "14288": 215,
        "14289": 167,
        "14290": 37,
        "14291": 44,
        "14292": 5,
        "14293": 128,
        "14294": 246,
        "14295": 217,
        "14296": 16,
        "14297": 188,
        "14298": 170,
        "14299": 41,
        "14300": 16,
        "14301": 255,
        "14302": 173,
        "14303": 119,
        "14304": 56,
        "14305": 225,
        "14306": 11,
        "14307": 14,
        "14308": 23,
        "14309": 235,
        "14310": 33,
        "14311": 217,
        "14312": 232,
        "14313": 131,
        "14314": 161,
        "14315": 84,
        "14316": 29,
        "14317": 153,
        "14318": 140,
        "14319": 145,
        "14320": 114,
        "14321": 86,
        "14322": 60,
        "14323": 60,
        "14324": 90,
        "14325": 115,
        "14326": 58,
        "14327": 247,
        "14328": 164,
        "14329": 67,
        "14330": 79,
        "14331": 72,
        "14332": 183,
        "14333": 19,
        "14334": 224,
        "14335": 138,
        "14336": 35,
        "14337": 17,
        "14338": 225,
        "14339": 26,
        "14340": 198,
        "14341": 111,
        "14342": 72,
        "14343": 119,
        "14344": 16,
        "14345": 249,
        "14346": 183,
        "14347": 12,
        "14348": 49,
        "14349": 201,
        "14350": 224,
        "14351": 115,
        "14352": 194,
        "14353": 109,
        "14354": 214,
        "14355": 227,
        "14356": 84,
        "14357": 4,
        "14358": 23,
        "14359": 234,
        "14360": 28,
        "14361": 170,
        "14362": 15,
        "14363": 131,
        "14364": 38,
        "14365": 29,
        "14366": 36,
        "14367": 171,
        "14368": 99,
        "14369": 124,
        "14370": 181,
        "14371": 201,
        "14372": 131,
        "14373": 134,
        "14374": 90,
        "14375": 53,
        "14376": 170,
        "14377": 46,
        "14378": 217,
        "14379": 102,
        "14380": 82,
        "14381": 207,
        "14382": 214,
        "14383": 21,
        "14384": 36,
        "14385": 7,
        "14386": 139,
        "14387": 157,
        "14388": 81,
        "14389": 213,
        "14390": 3,
        "14391": 65,
        "14392": 52,
        "14393": 229,
        "14394": 197,
        "14395": 65,
        "14396": 50,
        "14397": 80,
        "14398": 93,
        "14399": 223,
        "14400": 211,
        "14401": 204,
        "14402": 132,
        "14403": 131,
        "14404": 145,
        "14405": 231,
        "14406": 17,
        "14407": 143,
        "14408": 239,
        "14409": 76,
        "14410": 148,
        "14411": 46,
        "14412": 247,
        "14413": 203,
        "14414": 131,
        "14415": 60,
        "14416": 220,
        "14417": 44,
        "14418": 56,
        "14419": 119,
        "14420": 8,
        "14421": 115,
        "14422": 120,
        "14423": 167,
        "14424": 220,
        "14425": 128,
        "14426": 176,
        "14427": 226,
        "14428": 17,
        "14429": 1,
        "14430": 244,
        "14431": 182,
        "14432": 176,
        "14433": 182,
        "14434": 200,
        "14435": 73,
        "14436": 221,
        "14437": 22,
        "14438": 220,
        "14439": 65,
        "14440": 84,
        "14441": 85,
        "14442": 61,
        "14443": 59,
        "14444": 133,
        "14445": 181,
        "14446": 249,
        "14447": 141,
        "14448": 180,
        "14449": 136,
        "14450": 246,
        "14451": 145,
        "14452": 16,
        "14453": 165,
        "14454": 193,
        "14455": 251,
        "14456": 211,
        "14457": 30,
        "14458": 232,
        "14459": 238,
        "14460": 105,
        "14461": 64,
        "14462": 66,
        "14463": 80,
        "14464": 35,
        "14465": 1,
        "14466": 186,
        "14467": 63,
        "14468": 63,
        "14469": 204,
        "14470": 202,
        "14471": 141,
        "14472": 191,
        "14473": 84,
        "14474": 211,
        "14475": 198,
        "14476": 37,
        "14477": 180,
        "14478": 240,
        "14479": 194,
        "14480": 69,
        "14481": 125,
        "14482": 174,
        "14483": 210,
        "14484": 88,
        "14485": 132,
        "14486": 28,
        "14487": 60,
        "14488": 241,
        "14489": 133,
        "14490": 148,
        "14491": 177,
        "14492": 54,
        "14493": 202,
        "14494": 9,
        "14495": 230,
        "14496": 24,
        "14497": 70,
        "14498": 163,
        "14499": 186,
        "14500": 220,
        "14501": 169,
        "14502": 223,
        "14503": 72,
        "14504": 65,
        "14505": 203,
        "14506": 211,
        "14507": 128,
        "14508": 49,
        "14509": 66,
        "14510": 109,
        "14511": 235,
        "14512": 241,
        "14513": 149,
        "14514": 255,
        "14515": 136,
        "14516": 240,
        "14517": 102,
        "14518": 173,
        "14519": 46,
        "14520": 108,
        "14521": 197,
        "14522": 97,
        "14523": 6,
        "14524": 7,
        "14525": 152,
        "14526": 240,
        "14527": 128,
        "14528": 5,
        "14529": 28,
        "14530": 114,
        "14531": 105,
        "14532": 63,
        "14533": 192,
        "14534": 117,
        "14535": 71,
        "14536": 106,
        "14537": 11,
        "14538": 86,
        "14539": 167,
        "14540": 16,
        "14541": 36,
        "14542": 138,
        "14543": 239,
        "14544": 3,
        "14545": 6,
        "14546": 210,
        "14547": 4,
        "14548": 249,
        "14549": 193,
        "14550": 120,
        "14551": 2,
        "14552": 181,
        "14553": 16,
        "14554": 70,
        "14555": 32,
        "14556": 238,
        "14557": 70,
        "14558": 159,
        "14559": 161,
        "14560": 90,
        "14561": 130,
        "14562": 20,
        "14563": 164,
        "14564": 139,
        "14565": 13,
        "14566": 226,
        "14567": 153,
        "14568": 250,
        "14569": 27,
        "14570": 31,
        "14571": 205,
        "14572": 43,
        "14573": 134,
        "14574": 72,
        "14575": 190,
        "14576": 132,
        "14577": 216,
        "14578": 219,
        "14579": 81,
        "14580": 214,
        "14581": 144,
        "14582": 178,
        "14583": 39,
        "14584": 207,
        "14585": 186,
        "14586": 28,
        "14587": 44,
        "14588": 168,
        "14589": 82,
        "14590": 68,
        "14591": 50,
        "14592": 37,
        "14593": 177,
        "14594": 101,
        "14595": 25,
        "14596": 244,
        "14597": 160,
        "14598": 137,
        "14599": 91,
        "14600": 189,
        "14601": 224,
        "14602": 238,
        "14603": 243,
        "14604": 153,
        "14605": 41,
        "14606": 151,
        "14607": 185,
        "14608": 230,
        "14609": 36,
        "14610": 68,
        "14611": 222,
        "14612": 147,
        "14613": 101,
        "14614": 205,
        "14615": 27,
        "14616": 3,
        "14617": 48,
        "14618": 251,
        "14619": 104,
        "14620": 71,
        "14621": 41,
        "14622": 134,
        "14623": 84,
        "14624": 159,
        "14625": 59,
        "14626": 170,
        "14627": 238,
        "14628": 92,
        "14629": 225,
        "14630": 238,
        "14631": 65,
        "14632": 18,
        "14633": 122,
        "14634": 34,
        "14635": 43,
        "14636": 72,
        "14637": 95,
        "14638": 103,
        "14639": 108,
        "14640": 203,
        "14641": 181,
        "14642": 214,
        "14643": 110,
        "14644": 79,
        "14645": 0,
        "14646": 132,
        "14647": 136,
        "14648": 46,
        "14649": 96,
        "14650": 33,
        "14651": 98,
        "14652": 228,
        "14653": 250,
        "14654": 162,
        "14655": 245,
        "14656": 69,
        "14657": 80,
        "14658": 124,
        "14659": 2,
        "14660": 94,
        "14661": 81,
        "14662": 137,
        "14663": 36,
        "14664": 140,
        "14665": 147,
        "14666": 100,
        "14667": 130,
        "14668": 66,
        "14669": 45,
        "14670": 122,
        "14671": 152,
        "14672": 20,
        "14673": 233,
        "14674": 57,
        "14675": 41,
        "14676": 200,
        "14677": 18,
        "14678": 248,
        "14679": 150,
        "14680": 23,
        "14681": 162,
        "14682": 61,
        "14683": 125,
        "14684": 63,
        "14685": 236,
        "14686": 249,
        "14687": 20,
        "14688": 224,
        "14689": 247,
        "14690": 110,
        "14691": 74,
        "14692": 98,
        "14693": 142,
        "14694": 210,
        "14695": 98,
        "14696": 239,
        "14697": 228,
        "14698": 135,
        "14699": 128,
        "14700": 249,
        "14701": 124,
        "14702": 74,
        "14703": 220,
        "14704": 8,
        "14705": 126,
        "14706": 81,
        "14707": 212,
        "14708": 118,
        "14709": 200,
        "14710": 214,
        "14711": 5,
        "14712": 80,
        "14713": 59,
        "14714": 22,
        "14715": 166,
        "14716": 105,
        "14717": 145,
        "14718": 170,
        "14719": 246,
        "14720": 63,
        "14721": 79,
        "14722": 59,
        "14723": 253,
        "14724": 43,
        "14725": 43,
        "14726": 8,
        "14727": 157,
        "14728": 78,
        "14729": 66,
        "14730": 66,
        "14731": 25,
        "14732": 234,
        "14733": 114,
        "14734": 251,
        "14735": 109,
        "14736": 23,
        "14737": 149,
        "14738": 216,
        "14739": 217,
        "14740": 102,
        "14741": 101,
        "14742": 32,
        "14743": 81,
        "14744": 58,
        "14745": 171,
        "14746": 159,
        "14747": 213,
        "14748": 147,
        "14749": 207,
        "14750": 92,
        "14751": 36,
        "14752": 54,
        "14753": 40,
        "14754": 217,
        "14755": 145,
        "14756": 137,
        "14757": 114,
        "14758": 60,
        "14759": 247,
        "14760": 138,
        "14761": 84,
        "14762": 219,
        "14763": 197,
        "14764": 184,
        "14765": 207,
        "14766": 115,
        "14767": 226,
        "14768": 238,
        "14769": 41,
        "14770": 153,
        "14771": 216,
        "14772": 189,
        "14773": 179,
        "14774": 39,
        "14775": 10,
        "14776": 236,
        "14777": 114,
        "14778": 133,
        "14779": 42,
        "14780": 13,
        "14781": 208,
        "14782": 164,
        "14783": 243,
        "14784": 224,
        "14785": 75,
        "14786": 194,
        "14787": 118,
        "14788": 199,
        "14789": 5,
        "14790": 221,
        "14791": 209,
        "14792": 49,
        "14793": 182,
        "14794": 202,
        "14795": 189,
        "14796": 114,
        "14797": 66,
        "14798": 87,
        "14799": 128,
        "14800": 93,
        "14801": 94,
        "14802": 215,
        "14803": 149,
        "14804": 134,
        "14805": 25,
        "14806": 227,
        "14807": 50,
        "14808": 39,
        "14809": 175,
        "14810": 80,
        "14811": 197,
        "14812": 168,
        "14813": 166,
        "14814": 200,
        "14815": 229,
        "14816": 250,
        "14817": 17,
        "14818": 119,
        "14819": 124,
        "14820": 233,
        "14821": 48,
        "14822": 157,
        "14823": 92,
        "14824": 237,
        "14825": 20,
        "14826": 101,
        "14827": 200,
        "14828": 43,
        "14829": 162,
        "14830": 102,
        "14831": 141,
        "14832": 13,
        "14833": 143,
        "14834": 175,
        "14835": 210,
        "14836": 100,
        "14837": 199,
        "14838": 246,
        "14839": 221,
        "14840": 128,
        "14841": 71,
        "14842": 53,
        "14843": 92,
        "14844": 130,
        "14845": 89,
        "14846": 123,
        "14847": 170,
        "14848": 82,
        "14849": 94,
        "14850": 96,
        "14851": 144,
        "14852": 233,
        "14853": 248,
        "14854": 31,
        "14855": 176,
        "14856": 141,
        "14857": 140,
        "14858": 235,
        "14859": 118,
        "14860": 9,
        "14861": 30,
        "14862": 58,
        "14863": 232,
        "14864": 89,
        "14865": 106,
        "14866": 45,
        "14867": 102,
        "14868": 164,
        "14869": 150,
        "14870": 186,
        "14871": 166,
        "14872": 47,
        "14873": 106,
        "14874": 138,
        "14875": 158,
        "14876": 7,
        "14877": 248,
        "14878": 228,
        "14879": 155,
        "14880": 164,
        "14881": 145,
        "14882": 128,
        "14883": 4,
        "14884": 0,
        "14885": 88,
        "14886": 230,
        "14887": 72,
        "14888": 101,
        "14889": 248,
        "14890": 170,
        "14891": 117,
        "14892": 222,
        "14893": 74,
        "14894": 157,
        "14895": 252,
        "14896": 250,
        "14897": 221,
        "14898": 8,
        "14899": 69,
        "14900": 1,
        "14901": 30,
        "14902": 185,
        "14903": 232,
        "14904": 237,
        "14905": 232,
        "14906": 242,
        "14907": 184,
        "14908": 153,
        "14909": 151,
        "14910": 30,
        "14911": 131,
        "14912": 55,
        "14913": 41,
        "14914": 88,
        "14915": 7,
        "14916": 91,
        "14917": 84,
        "14918": 150,
        "14919": 179,
        "14920": 27,
        "14921": 130,
        "14922": 34,
        "14923": 198,
        "14924": 76,
        "14925": 99,
        "14926": 151,
        "14927": 134,
        "14928": 200,
        "14929": 217,
        "14930": 71,
        "14931": 18,
        "14932": 136,
        "14933": 154,
        "14934": 53,
        "14935": 194,
        "14936": 62,
        "14937": 254,
        "14938": 225,
        "14939": 78,
        "14940": 130,
        "14941": 233,
        "14942": 16,
        "14943": 89,
        "14944": 170,
        "14945": 20,
        "14946": 195,
        "14947": 0,
        "14948": 175,
        "14949": 110,
        "14950": 123,
        "14951": 214,
        "14952": 64,
        "14953": 37,
        "14954": 164,
        "14955": 52,
        "14956": 253,
        "14957": 112,
        "14958": 203,
        "14959": 93,
        "14960": 200,
        "14961": 205,
        "14962": 207,
        "14963": 111,
        "14964": 177,
        "14965": 97,
        "14966": 146,
        "14967": 238,
        "14968": 102,
        "14969": 253,
        "14970": 117,
        "14971": 4,
        "14972": 117,
        "14973": 229,
        "14974": 86,
        "14975": 225,
        "14976": 95,
        "14977": 8,
        "14978": 137,
        "14979": 191,
        "14980": 137,
        "14981": 123,
        "14982": 192,
        "14983": 73,
        "14984": 89,
        "14985": 151,
        "14986": 86,
        "14987": 52,
        "14988": 56,
        "14989": 98,
        "14990": 185,
        "14991": 54,
        "14992": 4,
        "14993": 37,
        "14994": 124,
        "14995": 52,
        "14996": 101,
        "14997": 118,
        "14998": 215,
        "14999": 28,
        "15000": 107,
        "15001": 227,
        "15002": 251,
        "15003": 79,
        "15004": 135,
        "15005": 182,
        "15006": 144,
        "15007": 46,
        "15008": 118,
        "15009": 8,
        "15010": 43,
        "15011": 104,
        "15012": 209,
        "15013": 161,
        "15014": 45,
        "15015": 103,
        "15016": 107,
        "15017": 89,
        "15018": 32,
        "15019": 91,
        "15020": 192,
        "15021": 26,
        "15022": 16,
        "15023": 32,
        "15024": 135,
        "15025": 37,
        "15026": 126,
        "15027": 206,
        "15028": 134,
        "15029": 109,
        "15030": 99,
        "15031": 233,
        "15032": 11,
        "15033": 240,
        "15034": 211,
        "15035": 46,
        "15036": 119,
        "15037": 166,
        "15038": 163,
        "15039": 191,
        "15040": 109,
        "15041": 110,
        "15042": 190,
        "15043": 156,
        "15044": 29,
        "15045": 180,
        "15046": 193,
        "15047": 226,
        "15048": 94,
        "15049": 9,
        "15050": 175,
        "15051": 108,
        "15052": 195,
        "15053": 154,
        "15054": 61,
        "15055": 173,
        "15056": 163,
        "15057": 85,
        "15058": 120,
        "15059": 174,
        "15060": 86,
        "15061": 86,
        "15062": 121,
        "15063": 149,
        "15064": 110,
        "15065": 34,
        "15066": 50,
        "15067": 48,
        "15068": 194,
        "15069": 108,
        "15070": 5,
        "15071": 167,
        "15072": 40,
        "15073": 174,
        "15074": 5,
        "15075": 76,
        "15076": 2,
        "15077": 23,
        "15078": 177,
        "15079": 100,
        "15080": 91,
        "15081": 194,
        "15082": 52,
        "15083": 221,
        "15084": 76,
        "15085": 187,
        "15086": 249,
        "15087": 189,
        "15088": 255,
        "15089": 232,
        "15090": 246,
        "15091": 239,
        "15092": 13,
        "15093": 143,
        "15094": 243,
        "15095": 29,
        "15096": 130,
        "15097": 131,
        "15098": 95,
        "15099": 95,
        "15100": 171,
        "15101": 221,
        "15102": 159,
        "15103": 48,
        "15104": 247,
        "15105": 170,
        "15106": 200,
        "15107": 225,
        "15108": 165,
        "15109": 49,
        "15110": 125,
        "15111": 8,
        "15112": 226,
        "15113": 27,
        "15114": 252,
        "15115": 243,
        "15116": 104,
        "15117": 166,
        "15118": 10,
        "15119": 59,
        "15120": 7,
        "15121": 159,
        "15122": 212,
        "15123": 33,
        "15124": 211,
        "15125": 229,
        "15126": 74,
        "15127": 12,
        "15128": 181,
        "15129": 177,
        "15130": 1,
        "15131": 190,
        "15132": 17,
        "15133": 239,
        "15134": 66,
        "15135": 186,
        "15136": 193,
        "15137": 244,
        "15138": 74,
        "15139": 43,
        "15140": 143,
        "15141": 8,
        "15142": 189,
        "15143": 199,
        "15144": 5,
        "15145": 219,
        "15146": 62,
        "15147": 27,
        "15148": 35,
        "15149": 23,
        "15150": 159,
        "15151": 95,
        "15152": 61,
        "15153": 214,
        "15154": 46,
        "15155": 247,
        "15156": 11,
        "15157": 68,
        "15158": 166,
        "15159": 182,
        "15160": 130,
        "15161": 99,
        "15162": 213,
        "15163": 93,
        "15164": 34,
        "15165": 123,
        "15166": 42,
        "15167": 183,
        "15168": 131,
        "15169": 152,
        "15170": 113,
        "15171": 3,
        "15172": 156,
        "15173": 104,
        "15174": 164,
        "15175": 130,
        "15176": 205,
        "15177": 212,
        "15178": 120,
        "15179": 10,
        "15180": 190,
        "15181": 102,
        "15182": 186,
        "15183": 249,
        "15184": 21,
        "15185": 160,
        "15186": 168,
        "15187": 55,
        "15188": 117,
        "15189": 251,
        "15190": 186,
        "15191": 81,
        "15192": 120,
        "15193": 155,
        "15194": 104,
        "15195": 211,
        "15196": 48,
        "15197": 149,
        "15198": 160,
        "15199": 125,
        "15200": 89,
        "15201": 188,
        "15202": 78,
        "15203": 19,
        "15204": 96,
        "15205": 225,
        "15206": 184,
        "15207": 63,
        "15208": 127,
        "15209": 121,
        "15210": 22,
        "15211": 191,
        "15212": 85,
        "15213": 9,
        "15214": 71,
        "15215": 222,
        "15216": 194,
        "15217": 101,
        "15218": 6,
        "15219": 47,
        "15220": 154,
        "15221": 138,
        "15222": 91,
        "15223": 50,
        "15224": 62,
        "15225": 167,
        "15226": 47,
        "15227": 88,
        "15228": 172,
        "15229": 33,
        "15230": 158,
        "15231": 93,
        "15232": 162,
        "15233": 250,
        "15234": 181,
        "15235": 189,
        "15236": 22,
        "15237": 240,
        "15238": 32,
        "15239": 222,
        "15240": 28,
        "15241": 250,
        "15242": 95,
        "15243": 231,
        "15244": 246,
        "15245": 234,
        "15246": 241,
        "15247": 194,
        "15248": 14,
        "15249": 239,
        "15250": 85,
        "15251": 11,
        "15252": 101,
        "15253": 211,
        "15254": 61,
        "15255": 123,
        "15256": 246,
        "15257": 16,
        "15258": 55,
        "15259": 192,
        "15260": 176,
        "15261": 200,
        "15262": 98,
        "15263": 195,
        "15264": 47,
        "15265": 168,
        "15266": 197,
        "15267": 16,
        "15268": 150,
        "15269": 74,
        "15270": 8,
        "15271": 140,
        "15272": 197,
        "15273": 1,
        "15274": 170,
        "15275": 167,
        "15276": 70,
        "15277": 157,
        "15278": 69,
        "15279": 23,
        "15280": 64,
        "15281": 86,
        "15282": 76,
        "15283": 211,
        "15284": 88,
        "15285": 75,
        "15286": 185,
        "15287": 32,
        "15288": 172,
        "15289": 112,
        "15290": 92,
        "15291": 214,
        "15292": 138,
        "15293": 94,
        "15294": 199,
        "15295": 102,
        "15296": 49,
        "15297": 12,
        "15298": 127,
        "15299": 93,
        "15300": 174,
        "15301": 37,
        "15302": 135,
        "15303": 45,
        "15304": 98,
        "15305": 231,
        "15306": 218,
        "15307": 94,
        "15308": 197,
        "15309": 21,
        "15310": 50,
        "15311": 185,
        "15312": 129,
        "15313": 86,
        "15314": 186,
        "15315": 60,
        "15316": 81,
        "15317": 219,
        "15318": 114,
        "15319": 158,
        "15320": 180,
        "15321": 17,
        "15322": 5,
        "15323": 223,
        "15324": 137,
        "15325": 168,
        "15326": 168,
        "15327": 204,
        "15328": 176,
        "15329": 192,
        "15330": 26,
        "15331": 163,
        "15332": 144,
        "15333": 16,
        "15334": 164,
        "15335": 42,
        "15336": 2,
        "15337": 236,
        "15338": 155,
        "15339": 236,
        "15340": 40,
        "15341": 213,
        "15342": 94,
        "15343": 252,
        "15344": 69,
        "15345": 30,
        "15346": 109,
        "15347": 77,
        "15348": 175,
        "15349": 30,
        "15350": 214,
        "15351": 137,
        "15352": 24,
        "15353": 225,
        "15354": 99,
        "15355": 148,
        "15356": 195,
        "15357": 118,
        "15358": 147,
        "15359": 231,
        "15360": 249,
        "15361": 251,
        "15362": 93,
        "15363": 137,
        "15364": 120,
        "15365": 209,
        "15366": 189,
        "15367": 243,
        "15368": 152,
        "15369": 252,
        "15370": 169,
        "15371": 67,
        "15372": 107,
        "15373": 18,
        "15374": 108,
        "15375": 94,
        "15376": 148,
        "15377": 132,
        "15378": 47,
        "15379": 61,
        "15380": 222,
        "15381": 19,
        "15382": 166,
        "15383": 155,
        "15384": 111,
        "15385": 135,
        "15386": 93,
        "15387": 249,
        "15388": 152,
        "15389": 128,
        "15390": 188,
        "15391": 65,
        "15392": 18,
        "15393": 251,
        "15394": 157,
        "15395": 122,
        "15396": 83,
        "15397": 28,
        "15398": 33,
        "15399": 149,
        "15400": 50,
        "15401": 91,
        "15402": 177,
        "15403": 34,
        "15404": 127,
        "15405": 40,
        "15406": 214,
        "15407": 77,
        "15408": 166,
        "15409": 231,
        "15410": 42,
        "15411": 96,
        "15412": 97,
        "15413": 149,
        "15414": 107,
        "15415": 241,
        "15416": 204,
        "15417": 69,
        "15418": 132,
        "15419": 87,
        "15420": 230,
        "15421": 9,
        "15422": 94,
        "15423": 235,
        "15424": 17,
        "15425": 242,
        "15426": 253,
        "15427": 137,
        "15428": 131,
        "15429": 185,
        "15430": 200,
        "15431": 226,
        "15432": 235,
        "15433": 169,
        "15434": 140,
        "15435": 136,
        "15436": 152,
        "15437": 209,
        "15438": 176,
        "15439": 140,
        "15440": 250,
        "15441": 33,
        "15442": 40,
        "15443": 218,
        "15444": 140,
        "15445": 140,
        "15446": 189,
        "15447": 46,
        "15448": 60,
        "15449": 21,
        "15450": 224,
        "15451": 240,
        "15452": 7,
        "15453": 180,
        "15454": 224,
        "15455": 183,
        "15456": 168,
        "15457": 199,
        "15458": 6,
        "15459": 143,
        "15460": 226,
        "15461": 243,
        "15462": 74,
        "15463": 68,
        "15464": 145,
        "15465": 199,
        "15466": 118,
        "15467": 254,
        "15468": 154,
        "15469": 176,
        "15470": 116,
        "15471": 251,
        "15472": 179,
        "15473": 183,
        "15474": 36,
        "15475": 144,
        "15476": 209,
        "15477": 62,
        "15478": 39,
        "15479": 234,
        "15480": 76,
        "15481": 113,
        "15482": 141,
        "15483": 172,
        "15484": 158,
        "15485": 160,
        "15486": 84,
        "15487": 203,
        "15488": 13,
        "15489": 220,
        "15490": 19,
        "15491": 60,
        "15492": 178,
        "15493": 199,
        "15494": 145,
        "15495": 133,
        "15496": 83,
        "15497": 111,
        "15498": 255,
        "15499": 3,
        "15500": 145,
        "15501": 224,
        "15502": 178,
        "15503": 72,
        "15504": 215,
        "15505": 211,
        "15506": 209,
        "15507": 228,
        "15508": 165,
        "15509": 123,
        "15510": 192,
        "15511": 251,
        "15512": 204,
        "15513": 117,
        "15514": 163,
        "15515": 190,
        "15516": 209,
        "15517": 207,
        "15518": 15,
        "15519": 203,
        "15520": 153,
        "15521": 185,
        "15522": 3,
        "15523": 197,
        "15524": 44,
        "15525": 18,
        "15526": 242,
        "15527": 88,
        "15528": 126,
        "15529": 201,
        "15530": 10,
        "15531": 77,
        "15532": 128,
        "15533": 206,
        "15534": 170,
        "15535": 67,
        "15536": 241,
        "15537": 231,
        "15538": 18,
        "15539": 75,
        "15540": 118,
        "15541": 49,
        "15542": 44,
        "15543": 89,
        "15544": 253,
        "15545": 252,
        "15546": 35,
        "15547": 174,
        "15548": 141,
        "15549": 72,
        "15550": 255,
        "15551": 59,
        "15552": 141,
        "15553": 98,
        "15554": 1,
        "15555": 220,
        "15556": 190,
        "15557": 99,
        "15558": 132,
        "15559": 189,
        "15560": 241,
        "15561": 174,
        "15562": 143,
        "15563": 208,
        "15564": 30,
        "15565": 159,
        "15566": 101,
        "15567": 26,
        "15568": 41,
        "15569": 64,
        "15570": 69,
        "15571": 223,
        "15572": 183,
        "15573": 91,
        "15574": 179,
        "15575": 38,
        "15576": 240,
        "15577": 158,
        "15578": 92,
        "15579": 29,
        "15580": 79,
        "15581": 92,
        "15582": 227,
        "15583": 227,
        "15584": 65,
        "15585": 30,
        "15586": 143,
        "15587": 171,
        "15588": 53,
        "15589": 174,
        "15590": 118,
        "15591": 135,
        "15592": 163,
        "15593": 250,
        "15594": 25,
        "15595": 206,
        "15596": 88,
        "15597": 31,
        "15598": 89,
        "15599": 112,
        "15600": 113,
        "15601": 129,
        "15602": 48,
        "15603": 6,
        "15604": 112,
        "15605": 94,
        "15606": 49,
        "15607": 57,
        "15608": 12,
        "15609": 11,
        "15610": 152,
        "15611": 140,
        "15612": 254,
        "15613": 44,
        "15614": 97,
        "15615": 147,
        "15616": 53,
        "15617": 95,
        "15618": 164,
        "15619": 242,
        "15620": 8,
        "15621": 70,
        "15622": 254,
        "15623": 236,
        "15624": 90,
        "15625": 209,
        "15626": 98,
        "15627": 6,
        "15628": 68,
        "15629": 159,
        "15630": 95,
        "15631": 127,
        "15632": 83,
        "15633": 202,
        "15634": 85,
        "15635": 146,
        "15636": 42,
        "15637": 33,
        "15638": 116,
        "15639": 122,
        "15640": 112,
        "15641": 35,
        "15642": 5,
        "15643": 1,
        "15644": 179,
        "15645": 20,
        "15646": 233,
        "15647": 208,
        "15648": 100,
        "15649": 84,
        "15650": 189,
        "15651": 132,
        "15652": 59,
        "15653": 180,
        "15654": 70,
        "15655": 250,
        "15656": 74,
        "15657": 219,
        "15658": 15,
        "15659": 35,
        "15660": 5,
        "15661": 189,
        "15662": 227,
        "15663": 214,
        "15664": 97,
        "15665": 20,
        "15666": 16,
        "15667": 50,
        "15668": 65,
        "15669": 33,
        "15670": 27,
        "15671": 209,
        "15672": 162,
        "15673": 105,
        "15674": 229,
        "15675": 17,
        "15676": 161,
        "15677": 78,
        "15678": 235,
        "15679": 237,
        "15680": 167,
        "15681": 69,
        "15682": 235,
        "15683": 248,
        "15684": 155,
        "15685": 87,
        "15686": 155,
        "15687": 113,
        "15688": 69,
        "15689": 90,
        "15690": 173,
        "15691": 27,
        "15692": 96,
        "15693": 245,
        "15694": 11,
        "15695": 100,
        "15696": 119,
        "15697": 171,
        "15698": 194,
        "15699": 5,
        "15700": 96,
        "15701": 227,
        "15702": 150,
        "15703": 126,
        "15704": 14,
        "15705": 232,
        "15706": 180,
        "15707": 211,
        "15708": 109,
        "15709": 115,
        "15710": 50,
        "15711": 11,
        "15712": 71,
        "15713": 50,
        "15714": 58,
        "15715": 127,
        "15716": 150,
        "15717": 226,
        "15718": 54,
        "15719": 179,
        "15720": 17,
        "15721": 62,
        "15722": 62,
        "15723": 161,
        "15724": 147,
        "15725": 39,
        "15726": 45,
        "15727": 234,
        "15728": 231,
        "15729": 148,
        "15730": 176,
        "15731": 141,
        "15732": 252,
        "15733": 119,
        "15734": 1,
        "15735": 217,
        "15736": 238,
        "15737": 88,
        "15738": 249,
        "15739": 11,
        "15740": 59,
        "15741": 147,
        "15742": 241,
        "15743": 79,
        "15744": 181,
        "15745": 108,
        "15746": 230,
        "15747": 155,
        "15748": 40,
        "15749": 31,
        "15750": 198,
        "15751": 25,
        "15752": 153,
        "15753": 182,
        "15754": 63,
        "15755": 1,
        "15756": 246,
        "15757": 62,
        "15758": 47,
        "15759": 242,
        "15760": 43,
        "15761": 227,
        "15762": 224,
        "15763": 203,
        "15764": 65,
        "15765": 197,
        "15766": 66,
        "15767": 248,
        "15768": 63,
        "15769": 179,
        "15770": 229,
        "15771": 231,
        "15772": 156,
        "15773": 126,
        "15774": 30,
        "15775": 153,
        "15776": 144,
        "15777": 247,
        "15778": 245,
        "15779": 200,
        "15780": 105,
        "15781": 64,
        "15782": 10,
        "15783": 83,
        "15784": 217,
        "15785": 35,
        "15786": 174,
        "15787": 72,
        "15788": 52,
        "15789": 119,
        "15790": 161,
        "15791": 238,
        "15792": 40,
        "15793": 247,
        "15794": 79,
        "15795": 126,
        "15796": 244,
        "15797": 151,
        "15798": 181,
        "15799": 15,
        "15800": 173,
        "15801": 190,
        "15802": 245,
        "15803": 241,
        "15804": 37,
        "15805": 167,
        "15806": 132,
        "15807": 157,
        "15808": 99,
        "15809": 250,
        "15810": 140,
        "15811": 198,
        "15812": 41,
        "15813": 233,
        "15814": 146,
        "15815": 245,
        "15816": 173,
        "15817": 3,
        "15818": 83,
        "15819": 213,
        "15820": 138,
        "15821": 87,
        "15822": 37,
        "15823": 119,
        "15824": 249,
        "15825": 86,
        "15826": 168,
        "15827": 101,
        "15828": 75,
        "15829": 45,
        "15830": 33,
        "15831": 71,
        "15832": 207,
        "15833": 208,
        "15834": 84,
        "15835": 68,
        "15836": 166,
        "15837": 4,
        "15838": 163,
        "15839": 185,
        "15840": 17,
        "15841": 61,
        "15842": 23,
        "15843": 203,
        "15844": 69,
        "15845": 76,
        "15846": 96,
        "15847": 3,
        "15848": 236,
        "15849": 122,
        "15850": 138,
        "15851": 238,
        "15852": 142,
        "15853": 136,
        "15854": 76,
        "15855": 52,
        "15856": 202,
        "15857": 247,
        "15858": 54,
        "15859": 248,
        "15860": 98,
        "15861": 125,
        "15862": 240,
        "15863": 12,
        "15864": 190,
        "15865": 209,
        "15866": 57,
        "15867": 155,
        "15868": 242,
        "15869": 232,
        "15870": 66,
        "15871": 180,
        "15872": 90,
        "15873": 70,
        "15874": 135,
        "15875": 124,
        "15876": 77,
        "15877": 193,
        "15878": 245,
        "15879": 11,
        "15880": 3,
        "15881": 112,
        "15882": 234,
        "15883": 163,
        "15884": 245,
        "15885": 17,
        "15886": 242,
        "15887": 184,
        "15888": 92,
        "15889": 131,
        "15890": 164,
        "15891": 36,
        "15892": 93,
        "15893": 18,
        "15894": 93,
        "15895": 159,
        "15896": 115,
        "15897": 37,
        "15898": 90,
        "15899": 73,
        "15900": 190,
        "15901": 65,
        "15902": 15,
        "15903": 1,
        "15904": 17,
        "15905": 89,
        "15906": 41,
        "15907": 203,
        "15908": 13,
        "15909": 53,
        "15910": 224,
        "15911": 193,
        "15912": 147,
        "15913": 148,
        "15914": 237,
        "15915": 49,
        "15916": 220,
        "15917": 206,
        "15918": 234,
        "15919": 236,
        "15920": 149,
        "15921": 166,
        "15922": 243,
        "15923": 146,
        "15924": 2,
        "15925": 190,
        "15926": 17,
        "15927": 53,
        "15928": 75,
        "15929": 129,
        "15930": 192,
        "15931": 165,
        "15932": 190,
        "15933": 204,
        "15934": 232,
        "15935": 43,
        "15936": 111,
        "15937": 241,
        "15938": 71,
        "15939": 187,
        "15940": 104,
        "15941": 198,
        "15942": 60,
        "15943": 123,
        "15944": 116,
        "15945": 199,
        "15946": 32,
        "15947": 128,
        "15948": 82,
        "15949": 166,
        "15950": 222,
        "15951": 221,
        "15952": 176,
        "15953": 252,
        "15954": 70,
        "15955": 148,
        "15956": 250,
        "15957": 27,
        "15958": 52,
        "15959": 147,
        "15960": 148,
        "15961": 231,
        "15962": 1,
        "15963": 17,
        "15964": 208,
        "15965": 195,
        "15966": 232,
        "15967": 116,
        "15968": 148,
        "15969": 14,
        "15970": 171,
        "15971": 4,
        "15972": 234,
        "15973": 45,
        "15974": 78,
        "15975": 162,
        "15976": 194,
        "15977": 76,
        "15978": 61,
        "15979": 176,
        "15980": 237,
        "15981": 7,
        "15982": 13,
        "15983": 91,
        "15984": 136,
        "15985": 240,
        "15986": 18,
        "15987": 43,
        "15988": 40,
        "15989": 163,
        "15990": 214,
        "15991": 58,
        "15992": 252,
        "15993": 121,
        "15994": 109,
        "15995": 47,
        "15996": 243,
        "15997": 188,
        "15998": 142,
        "15999": 76,
        "16000": 51,
        "16001": 101,
        "16002": 251,
        "16003": 59,
        "16004": 10,
        "16005": 11,
        "16006": 238,
        "16007": 55,
        "16008": 177,
        "16009": 98,
        "16010": 231,
        "16011": 51,
        "16012": 6,
        "16013": 220,
        "16014": 202,
        "16015": 23,
        "16016": 243,
        "16017": 177,
        "16018": 26,
        "16019": 129,
        "16020": 198,
        "16021": 69,
        "16022": 128,
        "16023": 188,
        "16024": 80,
        "16025": 45,
        "16026": 188,
        "16027": 43,
        "16028": 68,
        "16029": 58,
        "16030": 195,
        "16031": 73,
        "16032": 154,
        "16033": 165,
        "16034": 243,
        "16035": 23,
        "16036": 73,
        "16037": 82,
        "16038": 85,
        "16039": 168,
        "16040": 154,
        "16041": 46,
        "16042": 148,
        "16043": 207,
        "16044": 55,
        "16045": 225,
        "16046": 196,
        "16047": 219,
        "16048": 51,
        "16049": 167,
        "16050": 236,
        "16051": 69,
        "16052": 244,
        "16053": 153,
        "16054": 255,
        "16055": 93,
        "16056": 9,
        "16057": 81,
        "16058": 34,
        "16059": 253,
        "16060": 55,
        "16061": 15,
        "16062": 116,
        "16063": 141,
        "16064": 89,
        "16065": 16,
        "16066": 88,
        "16067": 250,
        "16068": 81,
        "16069": 55,
        "16070": 171,
        "16071": 5,
        "16072": 221,
        "16073": 227,
        "16074": 249,
        "16075": 39,
        "16076": 28,
        "16077": 230,
        "16078": 12,
        "16079": 227,
        "16080": 23,
        "16081": 202,
        "16082": 230,
        "16083": 88,
        "16084": 170,
        "16085": 115,
        "16086": 86,
        "16087": 26,
        "16088": 204,
        "16089": 180,
        "16090": 210,
        "16091": 19,
        "16092": 231,
        "16093": 171,
        "16094": 124,
        "16095": 153,
        "16096": 156,
        "16097": 104,
        "16098": 171,
        "16099": 134,
        "16100": 123,
        "16101": 166,
        "16102": 111,
        "16103": 193,
        "16104": 193,
        "16105": 98,
        "16106": 213,
        "16107": 158,
        "16108": 146,
        "16109": 8,
        "16110": 227,
        "16111": 29,
        "16112": 62,
        "16113": 207,
        "16114": 37,
        "16115": 118,
        "16116": 247,
        "16117": 22,
        "16118": 92,
        "16119": 21,
        "16120": 230,
        "16121": 27,
        "16122": 139,
        "16123": 125,
        "16124": 41,
        "16125": 117,
        "16126": 247,
        "16127": 34,
        "16128": 29,
        "16129": 142,
        "16130": 41,
        "16131": 24,
        "16132": 190,
        "16133": 167,
        "16134": 105,
        "16135": 186,
        "16136": 27,
        "16137": 98,
        "16138": 228,
        "16139": 159,
        "16140": 126,
        "16141": 234,
        "16142": 209,
        "16143": 176,
        "16144": 58,
        "16145": 66,
        "16146": 203,
        "16147": 39,
        "16148": 137,
        "16149": 152,
        "16150": 38,
        "16151": 240,
        "16152": 154,
        "16153": 132,
        "16154": 41,
        "16155": 57,
        "16156": 105,
        "16157": 50,
        "16158": 51,
        "16159": 3,
        "16160": 27,
        "16161": 29,
        "16162": 16,
        "16163": 130,
        "16164": 199,
        "16165": 40,
        "16166": 102,
        "16167": 31,
        "16168": 56,
        "16169": 85,
        "16170": 141,
        "16171": 254,
        "16172": 128,
        "16173": 124,
        "16174": 209,
        "16175": 115,
        "16176": 136,
        "16177": 75,
        "16178": 75,
        "16179": 159,
        "16180": 231,
        "16181": 131,
        "16182": 31,
        "16183": 230,
        "16184": 221,
        "16185": 207,
        "16186": 31,
        "16187": 143,
        "16188": 226,
        "16189": 165,
        "16190": 45,
        "16191": 30,
        "16192": 164,
        "16193": 148,
        "16194": 134,
        "16195": 228,
        "16196": 111,
        "16197": 147,
        "16198": 75,
        "16199": 212,
        "16200": 199,
        "16201": 239,
        "16202": 145,
        "16203": 182,
        "16204": 138,
        "16205": 39,
        "16206": 139,
        "16207": 41,
        "16208": 108,
        "16209": 247,
        "16210": 153,
        "16211": 125,
        "16212": 186,
        "16213": 197,
        "16214": 174,
        "16215": 134,
        "16216": 241,
        "16217": 27,
        "16218": 40,
        "16219": 74,
        "16220": 113,
        "16221": 188,
        "16222": 66,
        "16223": 166,
        "16224": 8,
        "16225": 151,
        "16226": 224,
        "16227": 177,
        "16228": 85,
        "16229": 204,
        "16230": 181,
        "16231": 139,
        "16232": 242,
        "16233": 200,
        "16234": 90,
        "16235": 132,
        "16236": 167,
        "16237": 80,
        "16238": 219,
        "16239": 25,
        "16240": 253,
        "16241": 175,
        "16242": 71,
        "16243": 192,
        "16244": 148,
        "16245": 217,
        "16246": 15,
        "16247": 83,
        "16248": 131,
        "16249": 70,
        "16250": 157,
        "16251": 81,
        "16252": 106,
        "16253": 42,
        "16254": 144,
        "16255": 15,
        "16256": 18,
        "16257": 179,
        "16258": 100,
        "16259": 202,
        "16260": 101,
        "16261": 25,
        "16262": 127,
        "16263": 76,
        "16264": 82,
        "16265": 106,
        "16266": 47,
        "16267": 152,
        "16268": 39,
        "16269": 33,
        "16270": 45,
        "16271": 198,
        "16272": 50,
        "16273": 28,
        "16274": 37,
        "16275": 251,
        "16276": 223,
        "16277": 108,
        "16278": 54,
        "16279": 197,
        "16280": 157,
        "16281": 91,
        "16282": 186,
        "16283": 8,
        "16284": 205,
        "16285": 205,
        "16286": 157,
        "16287": 41,
        "16288": 204,
        "16289": 87,
        "16290": 90,
        "16291": 142,
        "16292": 105,
        "16293": 115,
        "16294": 103,
        "16295": 221,
        "16296": 65,
        "16297": 29,
        "16298": 94,
        "16299": 58,
        "16300": 196,
        "16301": 171,
        "16302": 26,
        "16303": 132,
        "16304": 18,
        "16305": 217,
        "16306": 131,
        "16307": 231,
        "16308": 103,
        "16309": 156,
        "16310": 173,
        "16311": 35,
        "16312": 250,
        "16313": 43,
        "16314": 50,
        "16315": 60,
        "16316": 160,
        "16317": 4,
        "16318": 50,
        "16319": 111,
        "16320": 131,
        "16321": 109,
        "16322": 223,
        "16323": 55,
        "16324": 48,
        "16325": 148,
        "16326": 39,
        "16327": 169,
        "16328": 67,
        "16329": 116,
        "16330": 34,
        "16331": 106,
        "16332": 194,
        "16333": 79,
        "16334": 44,
        "16335": 119,
        "16336": 134,
        "16337": 20,
        "16338": 232,
        "16339": 222,
        "16340": 145,
        "16341": 90,
        "16342": 233,
        "16343": 22,
        "16344": 43,
        "16345": 226,
        "16346": 243,
        "16347": 190,
        "16348": 52,
        "16349": 128,
        "16350": 221,
        "16351": 74,
        "16352": 69,
        "16353": 90,
        "16354": 18,
        "16355": 80,
        "16356": 126,
        "16357": 232,
        "16358": 0,
        "16359": 180,
        "16360": 49,
        "16361": 68,
        "16362": 130,
        "16363": 212,
        "16364": 13,
        "16365": 81,
        "16366": 106,
        "16367": 79,
        "16368": 220,
        "16369": 22,
        "16370": 50,
        "16371": 134,
        "16372": 125,
        "16373": 129,
        "16374": 86,
        "16375": 206,
        "16376": 113,
        "16377": 241,
        "16378": 195,
        "16379": 174,
        "16380": 102,
        "16381": 138,
        "16382": 197,
        "16383": 142,
        "16384": 170,
        "16385": 218,
        "16386": 107,
        "16387": 53,
        "16388": 20,
        "16389": 226,
        "16390": 109,
        "16391": 245,
        "16392": 41,
        "16393": 78,
        "16394": 61,
        "16395": 227,
        "16396": 209,
        "16397": 131,
        "16398": 56,
        "16399": 255,
        "16400": 73,
        "16401": 154,
        "16402": 131,
        "16403": 240,
        "16404": 39,
        "16405": 166,
        "16406": 181,
        "16407": 241,
        "16408": 64,
        "16409": 169,
        "16410": 8,
        "16411": 43,
        "16412": 131,
        "16413": 157,
        "16414": 174,
        "16415": 19,
        "16416": 140,
        "16417": 110,
        "16418": 116,
        "16419": 201,
        "16420": 96,
        "16421": 177,
        "16422": 195,
        "16423": 90,
        "16424": 15,
        "16425": 125,
        "16426": 101,
        "16427": 0,
        "16428": 35,
        "16429": 139,
        "16430": 23,
        "16431": 211,
        "16432": 153,
        "16433": 194,
        "16434": 172,
        "16435": 153,
        "16436": 167,
        "16437": 149,
        "16438": 36,
        "16439": 169,
        "16440": 68,
        "16441": 122,
        "16442": 29,
        "16443": 156,
        "16444": 57,
        "16445": 15,
        "16446": 144,
        "16447": 209,
        "16448": 75,
        "16449": 224,
        "16450": 212,
        "16451": 127,
        "16452": 245,
        "16453": 182,
        "16454": 87,
        "16455": 204,
        "16456": 197,
        "16457": 241,
        "16458": 1,
        "16459": 61,
        "16460": 72,
        "16461": 115,
        "16462": 200,
        "16463": 123,
        "16464": 61,
        "16465": 211,
        "16466": 1,
        "16467": 106,
        "16468": 205,
        "16469": 120,
        "16470": 45,
        "16471": 218,
        "16472": 81,
        "16473": 60,
        "16474": 32,
        "16475": 99,
        "16476": 227,
        "16477": 205,
        "16478": 114,
        "16479": 90,
        "16480": 166,
        "16481": 114,
        "16482": 125,
        "16483": 53,
        "16484": 188,
        "16485": 125,
        "16486": 48,
        "16487": 241,
        "16488": 71,
        "16489": 247,
        "16490": 140,
        "16491": 10,
        "16492": 148,
        "16493": 79,
        "16494": 16,
        "16495": 180,
        "16496": 194,
        "16497": 220,
        "16498": 192,
        "16499": 178,
        "16500": 71,
        "16501": 4,
        "16502": 204,
        "16503": 38,
        "16504": 183,
        "16505": 68,
        "16506": 0,
        "16507": 11,
        "16508": 12,
        "16509": 150,
        "16510": 152,
        "16511": 248,
        "16512": 183,
        "16513": 212,
        "16514": 127,
        "16515": 45,
        "16516": 249,
        "16517": 109,
        "16518": 200,
        "16519": 179,
        "16520": 1,
        "16521": 8,
        "16522": 0,
        "16523": 0,
        "16524": 0,
        "16525": 0,
        "16526": 0,
        "16527": 0,
        "16528": 16,
        "16529": 0,
        "16530": 0,
        "16531": 0,
        "16532": 0,
        "16533": 0,
        "16534": 0,
        "16535": 0,
        "16536": 0,
        "16537": 0,
        "16538": 0,
        "16539": 0,
        "16540": 0,
        "16541": 0,
        "16542": 0,
        "16543": 0,
        "16544": 0,
        "16545": 0,
        "16546": 0,
        "16547": 0,
        "16548": 0,
        "16549": 0,
        "16550": 0,
        "16551": 0,
        "16552": 64,
        "16553": 0,
        "16554": 0,
        "16555": 0,
        "16556": 0,
        "16557": 0,
        "16558": 0,
        "16559": 0,
        "16560": 3,
        "16561": 0,
        "16562": 0,
        "16563": 0,
        "16564": 0,
        "16565": 0,
        "16566": 0,
        "16567": 0,
        "16568": 4,
        "16569": 0,
        "16570": 0,
        "16571": 0,
        "16572": 0,
        "16573": 0,
        "16574": 0,
        "16575": 0,
        "16576": 4,
        "16577": 0,
        "16578": 0,
        "16579": 0,
        "16580": 0,
        "16581": 0,
        "16582": 0,
        "16583": 0,
        "16584": 0,
        "16585": 0,
        "16586": 0,
        "16587": 0,
        "16588": 1,
        "16589": 0,
        "16590": 0,
        "16591": 0,
        "16592": 0,
        "16593": 0,
        "16594": 0,
        "16595": 0,
        "16596": 16,
        "16597": 0,
        "16598": 0,
        "16599": 0,
        "16600": 0,
        "16601": 0,
        "16602": 0,
        "16603": 0
      }
    }
  ],
  "numDeployments": 1,
  "solcInputHash": "c0e889dcb69b76266f445d0fe3402b92",
  "bytecode": "0x6101606040526200001760006200026660201b60201c565b6002553480156200002757600080fd5b50604051620046173803806200461783398181016040528101906200004d919062000b83565b6040518060400160405280600881526020017f46616b65204555520000000000000000000000000000000000000000000000008152506040518060400160405280600481526020017f6645555200000000000000000000000000000000000000000000000000000000815250338383836040518060400160405280601181526020017f4668656e6978205065726d697373696f6e0000000000000000000000000000008152506040518060400160405280600381526020017f312e3000000000000000000000000000000000000000000000000000000000008152506200013f6000836200028260201b90919060201c565b61012081815250506200015d6001826200028260201b90919060201c565b6101408181525050818051906020012060e08181525050808051906020012061010081815250504660a081815250506200019c620002da60201b60201c565b608081815250503073ffffffffffffffffffffffffffffffffffffffff1660c08173ffffffffffffffffffffffffffffffffffffffff168152505050508160059081620001ea919062000e1f565b508060069081620001fc919062000e1f565b505050600062000212826200033760201b60201c565b9050620002486200023c8262000230617fff6200026660201b60201c565b6200035560201b60201c565b620003f860201b60201c565b6200025a8382620004cb60201b60201c565b50505050505062001260565b60006200027b8260026200057160201b60201c565b9050919050565b6000602083511015620002a857620002a0836200062860201b60201c565b9050620002d4565b82620002ba836200069560201b60201c565b6000019081620002cb919062000e1f565b5060ff60001b90505b92915050565b60007f8b73c3c69bb8fe3d512ecc4cf759cc79239f7b179b0ffacaa9a75d522b39400f60e0516101005146306040516020016200031c95949392919062000f77565b60405160208183030381529060405280519060200120905090565b60006200034e82600001516200069f60201b60201c565b9050919050565b60006200036883620006bb60201b60201c565b62000382576200037f60006200026660201b60201c565b92505b6200039382620006bb60201b60201c565b620003ad57620003aa60006200026660201b60201c565b91505b600083905060008390506000620003ea60028484608073ffffffffffffffffffffffffffffffffffffffff1663eb274b77620006c860201b60201c565b905080935050505092915050565b62000409816200077960201b60201c565b62000423576200042060006200078660201b60201c565b90505b600081905060006200043b82620007a260201b60201c565b9050608073ffffffffffffffffffffffffffffffffffffffff16637d23f1db600d836040518363ffffffff1660e01b81526004016200047c9291906200104f565b600060405180830381865afa1580156200049a573d6000803e3d6000fd5b505050506040513d6000823e3d601f19601f82011682018060405250810190620004c5919062001083565b50505050565b62000516600360008473ffffffffffffffffffffffffffffffffffffffff1673ffffffffffffffffffffffffffffffffffffffff168152602001908152602001600020548262000803565b600360008473ffffffffffffffffffffffffffffffffffffffff1673ffffffffffffffffffffffffffffffffffffffff16815260200190815260200160002081905550620005676002548262000803565b6002819055505050565b60006060608073ffffffffffffffffffffffffffffffffffffffff166319e1c5c4620005a386620007a260201b60201c565b856040518363ffffffff1660e01b8152600401620005c3929190620010d4565b600060405180830381865afa158015620005e1573d6000803e3d6000fd5b505050506040513d6000823e3d601f19601f820116820180604052508101906200060c919062001083565b90506200061f816200081f60201b60201c565b91505092915050565b600080829050601f815111156200067857826040517f305a27a90000000000000000000000000000000000000000000000000000000081526004016200066f91906200115a565b60405180910390fd5b8051816200068690620011a5565b60001c1760001b915050919050565b6000819050919050565b6000620006b48260026200082d60201b60201c565b9050919050565b6000808214159050919050565b60006060838388620006e089620007a260201b60201c565b620006f189620007a260201b60201c565b6040518463ffffffff1660e01b8152600401620007119392919062001215565b600060405180830381865afa1580156200072f573d6000803e3d6000fd5b505050506040513d6000823e3d601f19601f820116820180604052508101906200075a919062001083565b90506200076d81620008d460201b60201c565b91505095945050505050565b6000808214159050919050565b60006200079b82600d6200057160201b60201c565b9050919050565b6060602067ffffffffffffffff811115620007c257620007c1620009ae565b5b6040519080825280601f01601f191660200182016040528015620007f55781602001600182028036833780820191505090505b509050816020820152919050565b6000620008178383620008e260201b60201c565b905092915050565b600060208201519050919050565b60006060608073ffffffffffffffffffffffffffffffffffffffff16635fa55ca784866040518363ffffffff1660e01b81526004016200086f9291906200104f565b600060405180830381865afa1580156200088d573d6000803e3d6000fd5b505050506040513d6000823e3d601f19601f82011682018060405250810190620008b8919062001083565b9050620008cb816200081f60201b60201c565b91505092915050565b600060208201519050919050565b6000620008f583620006bb60201b60201c565b6200090f576200090c60006200026660201b60201c565b92505b6200092082620006bb60201b60201c565b6200093a576200093760006200026660201b60201c565b91505b6000839050600083905060006200097660028484608073ffffffffffffffffffffffffffffffffffffffff16622df619620006c860201b60201c565b905080935050505092915050565b6000604051905090565b600080fd5b600080fd5b600080fd5b6000601f19601f8301169050919050565b7f4e487b7100000000000000000000000000000000000000000000000000000000600052604160045260246000fd5b620009e8826200099d565b810181811067ffffffffffffffff8211171562000a0a5762000a09620009ae565b5b80604052505050565b600062000a1f62000984565b905062000a2d8282620009dd565b919050565b600080fd5b600080fd5b600080fd5b600067ffffffffffffffff82111562000a5f5762000a5e620009ae565b5b62000a6a826200099d565b9050602081019050919050565b60005b8381101562000a9757808201518184015260208101905062000a7a565b60008484015250505050565b600062000aba62000ab48462000a41565b62000a13565b90508281526020810184848401111562000ad95762000ad862000a3c565b5b62000ae684828562000a77565b509392505050565b600082601f83011262000b065762000b0562000a37565b5b815162000b1884826020860162000aa3565b91505092915050565b60006020828403121562000b3a5762000b3962000998565b5b62000b46602062000a13565b9050600082015167ffffffffffffffff81111562000b695762000b6862000a32565b5b62000b778482850162000aee565b60008301525092915050565b60006020828403121562000b9c5762000b9b6200098e565b5b600082015167ffffffffffffffff81111562000bbd5762000bbc62000993565b5b62000bcb8482850162000b21565b91505092915050565b600081519050919050565b7f4e487b7100000000000000000000000000000000000000000000000000000000600052602260045260246000fd5b6000600282049050600182168062000c2757607f821691505b60208210810362000c3d5762000c3c62000bdf565b5b50919050565b60008190508160005260206000209050919050565b60006020601f8301049050919050565b600082821b905092915050565b60006008830262000ca77fffffffffffffffffffffffffffffffffffffffffffffffffffffffffffffffff8262000c68565b62000cb3868362000c68565b95508019841693508086168417925050509392505050565b6000819050919050565b6000819050919050565b600062000d0062000cfa62000cf48462000ccb565b62000cd5565b62000ccb565b9050919050565b6000819050919050565b62000d1c8362000cdf565b62000d3462000d2b8262000d07565b84845462000c75565b825550505050565b600090565b62000d4b62000d3c565b62000d5881848462000d11565b505050565b5b8181101562000d805762000d7460008262000d41565b60018101905062000d5e565b5050565b601f82111562000dcf5762000d998162000c43565b62000da48462000c58565b8101602085101562000db4578190505b62000dcc62000dc38562000c58565b83018262000d5d565b50505b505050565b600082821c905092915050565b600062000df46000198460080262000dd4565b1980831691505092915050565b600062000e0f838362000de1565b9150826002028217905092915050565b62000e2a8262000bd4565b67ffffffffffffffff81111562000e465762000e45620009ae565b5b62000e52825462000c0e565b62000e5f82828562000d84565b600060209050601f83116001811462000e97576000841562000e82578287015190505b62000e8e858262000e01565b86555062000efe565b601f19841662000ea78662000c43565b60005b8281101562000ed15784890151825560018201915060208501945060208101905062000eaa565b8683101562000ef1578489015162000eed601f89168262000de1565b8355505b6001600288020188555050505b505050505050565b6000819050919050565b62000f1b8162000f06565b82525050565b62000f2c8162000ccb565b82525050565b600073ffffffffffffffffffffffffffffffffffffffff82169050919050565b600062000f5f8262000f32565b9050919050565b62000f718162000f52565b82525050565b600060a08201905062000f8e600083018862000f10565b62000f9d602083018762000f10565b62000fac604083018662000f10565b62000fbb606083018562000f21565b62000fca608083018462000f66565b9695505050505050565b600060ff82169050919050565b62000fec8162000fd4565b82525050565b600081519050919050565b600082825260208201905092915050565b60006200101b8262000ff2565b62001027818562000ffd565b93506200103981856020860162000a77565b62001044816200099d565b840191505092915050565b600060408201905062001066600083018562000fe1565b81810360208301526200107a81846200100e565b90509392505050565b6000602082840312156200109c576200109b6200098e565b5b600082015167ffffffffffffffff811115620010bd57620010bc62000993565b5b620010cb8482850162000aee565b91505092915050565b60006040820190508181036000830152620010f081856200100e565b905062001101602083018462000fe1565b9392505050565b600082825260208201905092915050565b6000620011268262000bd4565b62001132818562001108565b93506200114481856020860162000a77565b6200114f816200099d565b840191505092915050565b6000602082019050818103600083015262001176818462001119565b905092915050565b6000819050602082019050919050565b60006200119c825162000f06565b80915050919050565b6000620011b28262000ff2565b82620011be846200117e565b9050620011cb816200118e565b925060208210156200120e57620012097fffffffffffffffffffffffffffffffffffffffffffffffffffffffffffffffff8360200360080262000c68565b831692505b5050919050565b60006060820190506200122c600083018662000fe1565b81810360208301526200124081856200100e565b905081810360408301526200125681846200100e565b9050949350505050565b60805160a05160c05160e05161010051610120516101405161335c620012bb60003960006118f5015260006118ba0152600061217f0152600061215e015260006119ea01526000611a4001526000611a69015261335c6000f3fe608060405234801561001057600080fd5b50600436106101425760003560e01c80637ecebe00116100b8578063a9059cbb1161007c578063a9059cbb146103b9578063af575a00146103e9578063c4224c1914610419578063d505accf14610449578063d918156e14610465578063dd62ed3e1461049557610142565b80637ecebe00146102fb57806384b0196e1461032b5780638624a3491461034f57806395d89b411461037f5780639f284be71461039d57610142565b80633644e5151161010a5780633644e5151461020157806339c217f71461021f5780635356c4291461024f578063602772041461027f5780636e0505e1146102af57806370a08231146102cb57610142565b806306fdde0314610147578063095ea7b31461016557806318160ddd1461019557806323b872dd146101b3578063313ce567146101e3575b600080fd5b61014f6104c5565b60405161015c9190612433565b60405180910390f35b61017f600480360381019061017a91906124fd565b610557565b60405161018c9190612558565b60405180910390f35b61019d6105ab565b6040516101aa9190612582565b60405180910390f35b6101cd60048036038101906101c8919061259d565b6105bd565b6040516101da9190612558565b60405180910390f35b6101eb610692565b6040516101f8919061260c565b60405180910390f35b610209610697565b6040516102169190612640565b60405180910390f35b6102396004803603810190610234919061267f565b610729565b6040516102469190612716565b60405180910390f35b61026960048036038101906102649190612750565b61074e565b6040516102769190612433565b60405180910390f35b61029960048036038101906102949190612983565b6108bf565b6040516102a69190612433565b60405180910390f35b6102c960048036038101906102c49190612a1b565b6109ec565b005b6102e560048036038101906102e09190612a48565b610b01565b6040516102f29190612582565b60405180910390f35b61031560048036038101906103109190612a48565b610b1c565b6040516103229190612582565b60405180910390f35b610333610b37565b6040516103469796959493929190612b7d565b60405180910390f35b61036960048036038101906103649190612c01565b610be1565b6040516103769190612716565b60405180910390f35b610387610c08565b6040516103949190612433565b60405180910390f35b6103b760048036038101906103b29190612a1b565b610c9a565b005b6103d360048036038101906103ce91906124fd565b610da7565b6040516103e09190612558565b60405180910390f35b61040360048036038101906103fe9190612c9c565b610e39565b6040516104109190612716565b60405180910390f35b610433600480360381019061042e9190612cef565b61118f565b6040516104409190612716565b60405180910390f35b610463600480360381019061045e9190612d5b565b611359565b005b61047f600480360381019061047a919061267f565b6114fd565b60405161048c9190612558565b60405180910390f35b6104af60048036038101906104aa9190612dfd565b6115f5565b6040516104bc9190612582565b60405180910390f35b6060600580546104d490612e6c565b80601f016020809104026020016040519081016040528092919081815260200182805461050090612e6c565b801561054d5780601f106105225761010080835404028352916020019161054d565b820191906000526020600020905b81548152906001019060200180831161053057829003601f168201915b5050505050905090565b600082602052637f5e9f20600c5233600052816034600c205581600052602c5160601c337f8c5be1e5ebec7d5bd14f71427d1e84f3dd0314c0f7b2291e5b200ac8c7c3b92560206000a36001905092915050565b60006805345cdf77eb68f44c54905090565b60006105ca848484611615565b8360601b33602052637f5e9f208117600c526034600c20805460018101156106085780851115610602576313be252b6000526004601cfd5b84810382555b6387a211a28317600c526020600c2080548087111561062f5763f4d678b86000526004601cfd5b8681038255876000526020600c2087815401815587602052600c5160601c8660601c7fddf252ad1be2c89b69c2b068fc378daa952ba7f163c4a11628f55a4df523b3ef602080a350505050505061068784848461161a565b600190509392505050565b600090565b6000806106a261161f565b90506000801b81036106c0576106b66104c5565b8051906020012090505b6040517f8b73c3c69bb8fe3d512ecc4cf759cc79239f7b179b0ffacaa9a75d522b39400f81528160208201527fc89efdaa54c0f20c7adf612882df0950f5a951637e0307cdcb4c672f298b8bc6604082015246606082015230608082015260a081209250505090565b6000610746836107418461073c90612ef5565b611624565b61118f565b905092915050565b60608161075a90612f08565b60006107b17f6bdaeb2d29561f159c7ef98b16b27015fb2aeb87209c7ee656226d912f59927d8360000151604051602001610796929190612f1b565b6040516020818303038152906040528051906020012061163a565b905060006107c3828460200151611654565b90503373ffffffffffffffffffffffffffffffffffffffff168173ffffffffffffffffffffffffffffffffffffffff161461082a576040517f3093a27700000000000000000000000000000000000000000000000000000000815260040160405180910390fd5b6108b4600460003373ffffffffffffffffffffffffffffffffffffffff1673ffffffffffffffffffffffffffffffffffffffff16815260200190815260200160002060008873ffffffffffffffffffffffffffffffffffffffff1673ffffffffffffffffffffffffffffffffffffffff168152602001908152602001600020548660000135611680565b935050505092915050565b60608183600061091a7f6bdaeb2d29561f159c7ef98b16b27015fb2aeb87209c7ee656226d912f59927d84600001516040516020016108ff929190612f1b565b6040516020818303038152906040528051906020012061163a565b9050600061092c828560200151611654565b90508273ffffffffffffffffffffffffffffffffffffffff168173ffffffffffffffffffffffffffffffffffffffff1614610993576040517f51c65eae00000000000000000000000000000000000000000000000000000000815260040160405180910390fd5b6109e0600360008973ffffffffffffffffffffffffffffffffffffffff1673ffffffffffffffffffffffffffffffffffffffff168152602001908152602001600020548760000151611680565b94505050505092915050565b6000610a45610a008363ffffffff166116b6565b600360003373ffffffffffffffffffffffffffffffffffffffff1673ffffffffffffffffffffffffffffffffffffffff168152602001908152602001600020546116ca565b9050610a90600360003373ffffffffffffffffffffffffffffffffffffffff1673ffffffffffffffffffffffffffffffffffffffff1681526020019081526020016000205482611743565b600360003373ffffffffffffffffffffffffffffffffffffffff1673ffffffffffffffffffffffffffffffffffffffff16815260200190815260200160002081905550610adf60025482611743565b600281905550610afd33610af283611757565b63ffffffff1661181a565b5050565b60006387a211a2600c52816000526020600c20549050919050565b60006338377508600c52816000526020600c20549050919050565b600060608060008060006060610b4b6118b1565b610b536118ec565b46306000801b600067ffffffffffffffff811115610b7457610b736127b1565b5b604051908082528060200260200182016040528015610ba25781602001602082028036833780820191505090505b507f0f00000000000000000000000000000000000000000000000000000000000000959493929190965096509650965096509650965090919293949596565b6000610bff8484610bfa85610bf590612ef5565b611624565b610e39565b90509392505050565b606060068054610c1790612e6c565b80601f0160208091040260200160405190810160405280929190818152602001828054610c4390612e6c565b8015610c905780601f10610c6557610100808354040283529160200191610c90565b820191906000526020600020905b815481529060010190602001808311610c7357829003601f168201915b5050505050905090565b8063ffffffff16610caa33610b01565b1015610ce2576040517ffda7bbda00000000000000000000000000000000000000000000000000000000815260040160405180910390fd5b610cf2338263ffffffff16611927565b6000610d038263ffffffff166116b6565b9050610d4e600360003373ffffffffffffffffffffffffffffffffffffffff1673ffffffffffffffffffffffffffffffffffffffff16815260200190815260200160002054826119be565b600360003373ffffffffffffffffffffffffffffffffffffffff1673ffffffffffffffffffffffffffffffffffffffff16815260200190815260200160002081905550610d9d600254826119be565b6002819055505050565b6000610db4338484611615565b6387a211a2600c52336000526020600c20805480841115610ddd5763f4d678b86000526004601cfd5b8381038255846000526020600c2084815401815584602052600c5160601c337fddf252ad1be2c89b69c2b068fc378daa952ba7f163c4a11628f55a4df523b3ef602080a3505050610e2f33848461161a565b6001905092915050565b600080610f0a83610f05600360008973ffffffffffffffffffffffffffffffffffffffff1673ffffffffffffffffffffffffffffffffffffffff16815260200190815260200160002054600460008a73ffffffffffffffffffffffffffffffffffffffff1673ffffffffffffffffffffffffffffffffffffffff16815260200190815260200160002060003373ffffffffffffffffffffffffffffffffffffffff1673ffffffffffffffffffffffffffffffffffffffff168152602001908152602001600020546116ca565b6116ca565b9050610f92600460008773ffffffffffffffffffffffffffffffffffffffff1673ffffffffffffffffffffffffffffffffffffffff16815260200190815260200160002060003373ffffffffffffffffffffffffffffffffffffffff1673ffffffffffffffffffffffffffffffffffffffff1681526020019081526020016000205482611743565b600460008773ffffffffffffffffffffffffffffffffffffffff1673ffffffffffffffffffffffffffffffffffffffff16815260200190815260200160002060003373ffffffffffffffffffffffffffffffffffffffff1673ffffffffffffffffffffffffffffffffffffffff1681526020019081526020016000208190555061105b600360008773ffffffffffffffffffffffffffffffffffffffff1673ffffffffffffffffffffffffffffffffffffffff1681526020019081526020016000205482611743565b600360008773ffffffffffffffffffffffffffffffffffffffff1673ffffffffffffffffffffffffffffffffffffffff168152602001908152602001600020819055506110e7600360008673ffffffffffffffffffffffffffffffffffffffff1673ffffffffffffffffffffffffffffffffffffffff16815260200190815260200160002054826119be565b600360008673ffffffffffffffffffffffffffffffffffffffff1673ffffffffffffffffffffffffffffffffffffffff168152602001908152602001600020819055508373ffffffffffffffffffffffffffffffffffffffff168573ffffffffffffffffffffffffffffffffffffffff167f7612539b010127d1a2f810eeff1131de23a28ecfa8228f92a9606a879300fbb560405160405180910390a3809150509392505050565b6000806111db83600360003373ffffffffffffffffffffffffffffffffffffffff1673ffffffffffffffffffffffffffffffffffffffff168152602001908152602001600020546116ca565b9050611226600360003373ffffffffffffffffffffffffffffffffffffffff1673ffffffffffffffffffffffffffffffffffffffff1681526020019081526020016000205482611743565b600360003373ffffffffffffffffffffffffffffffffffffffff1673ffffffffffffffffffffffffffffffffffffffff168152602001908152602001600020819055506112b2600360008673ffffffffffffffffffffffffffffffffffffffff1673ffffffffffffffffffffffffffffffffffffffff16815260200190815260200160002054826119be565b600360008673ffffffffffffffffffffffffffffffffffffffff1673ffffffffffffffffffffffffffffffffffffffff168152602001908152602001600020819055508373ffffffffffffffffffffffffffffffffffffffff163373ffffffffffffffffffffffffffffffffffffffff167f7612539b010127d1a2f810eeff1131de23a28ecfa8228f92a9606a879300fbb560405160405180910390a38091505092915050565b600061136361161f565b90506000801b8103611381576113776104c5565b8051906020012090505b8442111561139757631a15a3cc6000526004601cfd5b6040518860601b60601c98508760601b60601c975065383775081901600e52886000526020600c2080547f8b73c3c69bb8fe3d512ecc4cf759cc79239f7b179b0ffacaa9a75d522b39400f83528360208401527fc89efdaa54c0f20c7adf612882df0950f5a951637e0307cdcb4c672f298b8bc6604084015246606084015230608084015260a08320602e527f6e71edae12b1b97f4d1f60370fef10105fa2faae0126114a169c64845d6126c983528a60208401528960408401528860608401528060808401528760a084015260c08320604e526042602c206000528660ff1660205285604052846060526020806080600060015afa8b3d51146114a35763ddafbaef6000526004601cfd5b80820183558a637f5e9f2060a01b17604052896034602c20558a8c7f8c5be1e5ebec7d5bd14f71427d1e84f3dd0314c0f7b2291e5b200ac8c7c3b925602060608801a3836040526000606052505050505050505050505050565b60006115118261150c90612ef5565b611624565b600460003373ffffffffffffffffffffffffffffffffffffffff1673ffffffffffffffffffffffffffffffffffffffff16815260200190815260200160002060008573ffffffffffffffffffffffffffffffffffffffff1673ffffffffffffffffffffffffffffffffffffffff168152602001908152602001600020819055508273ffffffffffffffffffffffffffffffffffffffff163373ffffffffffffffffffffffffffffffffffffffff167f46f92913a39019d68e630493d23e0cf39761bf253f7b3f8eae384b33e393ed4e60405160405180910390a36001905092915050565b600081602052637f5e9f20600c52826000526034600c2054905092915050565b505050565b505050565b600090565b600061163382600001516119d2565b9050919050565b600061164d6116476119e6565b83611a9d565b9050919050565b6000806000806116648686611ade565b9250925092506116748282611b3a565b82935050505092915050565b606061168b83611c9e565b61169c5761169960006116b6565b92505b60008390506116ad60028285611cab565b91505092915050565b60006116c3826002611d61565b9050919050565b60006116d583611c9e565b6116e6576116e360006116b6565b92505b6116ef82611c9e565b611700576116fd60006116b6565b91505b60008390506000839050600061173560028484608073ffffffffffffffffffffffffffffffffffffffff16635211c679611e03565b905080935050505092915050565b600061174f8383611e97565b905092915050565b600061176282611c9e565b6117735761177060006116b6565b91505b6000829050600061178382611f10565b90506000608073ffffffffffffffffffffffffffffffffffffffff166373cc01546002846040518363ffffffff1660e01b81526004016117c4929190612f99565b602060405180830381865afa1580156117e1573d6000803e3d6000fd5b505050506040513d601f19601f820116820180604052508101906118059190612fde565b905061181081611f6d565b9350505050919050565b61182660008383611615565b6805345cdf77eb68f44c548181018181101561184a5763e5cfe9576000526004601cfd5b806805345cdf77eb68f44c556387a211a2600c52836000526020600c2083815401815583602052600c5160601c60007fddf252ad1be2c89b69c2b068fc378daa952ba7f163c4a11628f55a4df523b3ef602080a35050506118ad6000838361161a565b5050565b60606118e760007f0000000000000000000000000000000000000000000000000000000000000000611f7790919063ffffffff16565b905090565b606061192260017f0000000000000000000000000000000000000000000000000000000000000000611f7790919063ffffffff16565b905090565b61193382600083611615565b6387a211a2600c52816000526020600c2080548083111561195c5763f4d678b86000526004601cfd5b8281038255826805345cdf77eb68f44c54036805345cdf77eb68f44c558260005260008460601b60601c7fddf252ad1be2c89b69c2b068fc378daa952ba7f163c4a11628f55a4df523b3ef60206000a350506119ba8260008361161a565b5050565b60006119ca8383612027565b905092915050565b60006119df82600261209f565b9050919050565b60007f000000000000000000000000000000000000000000000000000000000000000073ffffffffffffffffffffffffffffffffffffffff163073ffffffffffffffffffffffffffffffffffffffff16148015611a6257507f000000000000000000000000000000000000000000000000000000000000000046145b15611a8f577f00000000000000000000000000000000000000000000000000000000000000009050611a9a565b611a97612139565b90505b90565b60006040517f190100000000000000000000000000000000000000000000000000000000000081528360028201528260228201526042812091505092915050565b60008060006041845103611b235760008060006020870151925060408701519150606087015160001a9050611b15888285856121cf565b955095509550505050611b33565b60006002855160001b9250925092505b9250925092565b60006003811115611b4e57611b4d61300b565b5b826003811115611b6157611b6061300b565b5b0315611c9a5760016003811115611b7b57611b7a61300b565b5b826003811115611b8e57611b8d61300b565b5b03611bc5576040517ff645eedf00000000000000000000000000000000000000000000000000000000815260040160405180910390fd5b60026003811115611bd957611bd861300b565b5b826003811115611bec57611beb61300b565b5b03611c31578060001c6040517ffce698f7000000000000000000000000000000000000000000000000000000008152600401611c289190612582565b60405180910390fd5b600380811115611c4457611c4361300b565b5b826003811115611c5757611c5661300b565b5b03611c9957806040517fd78bce0c000000000000000000000000000000000000000000000000000000008152600401611c909190612640565b60405180910390fd5b5b5050565b6000808214159050919050565b6060608073ffffffffffffffffffffffffffffffffffffffff1663a1848ff385611cd486611f10565b85604051602001611ce5919061305b565b6040516020818303038152906040526040518463ffffffff1660e01b8152600401611d1293929190613076565b600060405180830381865afa158015611d2f573d6000803e3d6000fd5b505050506040513d6000823e3d601f19601f82011682018060405250810190611d58919061315c565b90509392505050565b60006060608073ffffffffffffffffffffffffffffffffffffffff166319e1c5c4611d8b86611f10565b856040518363ffffffff1660e01b8152600401611da99291906131a5565b600060405180830381865afa158015611dc6573d6000803e3d6000fd5b505050506040513d6000823e3d601f19601f82011682018060405250810190611def9190613245565b9050611dfa816122c3565b91505092915050565b60006060838388611e1389611f10565b611e1c89611f10565b6040518463ffffffff1660e01b8152600401611e3a93929190613076565b600060405180830381865afa158015611e57573d6000803e3d6000fd5b505050506040513d6000823e3d601f19601f82011682018060405250810190611e809190613245565b9050611e8b816122d1565b91505095945050505050565b6000611ea283611c9e565b611eb357611eb060006116b6565b92505b611ebc82611c9e565b611ecd57611eca60006116b6565b91505b600083905060008390506000611f0260028484608073ffffffffffffffffffffffffffffffffffffffff1663cc2cbeff611e03565b905080935050505092915050565b6060602067ffffffffffffffff811115611f2d57611f2c6127b1565b5b6040519080825280601f01601f191660200182016040528015611f5f5781602001600182028036833780820191505090505b509050816020820152919050565b6000819050919050565b606060ff60001b8314611f9457611f8d836122df565b9050612021565b818054611fa090612e6c565b80601f0160208091040260200160405190810160405280929190818152602001828054611fcc90612e6c565b80156120195780601f10611fee57610100808354040283529160200191612019565b820191906000526020600020905b815481529060010190602001808311611ffc57829003601f168201915b505050505090505b92915050565b600061203283611c9e565b6120435761204060006116b6565b92505b61204c82611c9e565b61205d5761205a60006116b6565b91505b60008390506000839050600061209160028484608073ffffffffffffffffffffffffffffffffffffffff16622df619611e03565b905080935050505092915050565b60006060608073ffffffffffffffffffffffffffffffffffffffff16635fa55ca784866040518363ffffffff1660e01b81526004016120df929190612f99565b600060405180830381865afa1580156120fc573d6000803e3d6000fd5b505050506040513d6000823e3d601f19601f820116820180604052508101906121259190613245565b9050612130816122c3565b91505092915050565b60007f8b73c3c69bb8fe3d512ecc4cf759cc79239f7b179b0ffacaa9a75d522b39400f7f00000000000000000000000000000000000000000000000000000000000000007f000000000000000000000000000000000000000000000000000000000000000046306040516020016121b495949392919061328e565b60405160208183030381529060405280519060200120905090565b60008060007f7fffffffffffffffffffffffffffffff5d576e7357a4501ddfe92f46681b20a08460001c111561220f5760006003859250925092506122b9565b60006001888888886040516000815260200160405260405161223494939291906132e1565b6020604051602081039080840390855afa158015612256573d6000803e3d6000fd5b505050602060405103519050600073ffffffffffffffffffffffffffffffffffffffff168173ffffffffffffffffffffffffffffffffffffffff16036122aa57600060016000801b935093509350506122b9565b8060008060001b935093509350505b9450945094915050565b600060208201519050919050565b600060208201519050919050565b606060006122ec83612353565b90506000602067ffffffffffffffff81111561230b5761230a6127b1565b5b6040519080825280601f01601f19166020018201604052801561233d5781602001600182028036833780820191505090505b5090508181528360208201528092505050919050565b60008060ff8360001c169050601f81111561239a576040517fb3512b0c00000000000000000000000000000000000000000000000000000000815260040160405180910390fd5b80915050919050565b600081519050919050565b600082825260208201905092915050565b60005b838110156123dd5780820151818401526020810190506123c2565b60008484015250505050565b6000601f19601f8301169050919050565b6000612405826123a3565b61240f81856123ae565b935061241f8185602086016123bf565b612428816123e9565b840191505092915050565b6000602082019050818103600083015261244d81846123fa565b905092915050565b6000604051905090565b600080fd5b600080fd5b600073ffffffffffffffffffffffffffffffffffffffff82169050919050565b600061249482612469565b9050919050565b6124a481612489565b81146124af57600080fd5b50565b6000813590506124c18161249b565b92915050565b6000819050919050565b6124da816124c7565b81146124e557600080fd5b50565b6000813590506124f7816124d1565b92915050565b600080604083850312156125145761251361245f565b5b6000612522858286016124b2565b9250506020612533858286016124e8565b9150509250929050565b60008115159050919050565b6125528161253d565b82525050565b600060208201905061256d6000830184612549565b92915050565b61257c816124c7565b82525050565b60006020820190506125976000830184612573565b92915050565b6000806000606084860312156125b6576125b561245f565b5b60006125c4868287016124b2565b93505060206125d5868287016124b2565b92505060406125e6868287016124e8565b9150509250925092565b600060ff82169050919050565b612606816125f0565b82525050565b600060208201905061262160008301846125fd565b92915050565b6000819050919050565b61263a81612627565b82525050565b60006020820190506126556000830184612631565b92915050565b600080fd5b6000602082840312156126765761267561265b565b5b81905092915050565b600080604083850312156126965761269561245f565b5b60006126a4858286016124b2565b925050602083013567ffffffffffffffff8111156126c5576126c4612464565b5b6126d185828601612660565b9150509250929050565b6000819050919050565b60006127006126fb6126f6846124c7565b6126db565b6124c7565b9050919050565b612710816126e5565b82525050565b600060208201905061272b6000830184612707565b92915050565b6000604082840312156127475761274661265b565b5b81905092915050565b600080604083850312156127675761276661245f565b5b6000612775858286016124b2565b925050602083013567ffffffffffffffff81111561279657612795612464565b5b6127a285828601612731565b9150509250929050565b600080fd5b7f4e487b7100000000000000000000000000000000000000000000000000000000600052604160045260246000fd5b6127e9826123e9565b810181811067ffffffffffffffff82111715612808576128076127b1565b5b80604052505050565b600061281b612455565b905061282782826127e0565b919050565b600080fd5b61283a81612627565b811461284557600080fd5b50565b60008135905061285781612831565b92915050565b600080fd5b600080fd5b600067ffffffffffffffff821115612882576128816127b1565b5b61288b826123e9565b9050602081019050919050565b82818337600083830152505050565b60006128ba6128b584612867565b612811565b9050828152602081018484840111156128d6576128d5612862565b5b6128e1848285612898565b509392505050565b600082601f8301126128fe576128fd61285d565b5b813561290e8482602086016128a7565b91505092915050565b60006040828403121561292d5761292c6127ac565b5b6129376040612811565b9050600061294784828501612848565b600083015250602082013567ffffffffffffffff81111561296b5761296a61282c565b5b612977848285016128e9565b60208301525092915050565b6000806040838503121561299a5761299961245f565b5b60006129a8858286016124b2565b925050602083013567ffffffffffffffff8111156129c9576129c8612464565b5b6129d585828601612917565b9150509250929050565b600063ffffffff82169050919050565b6129f8816129df565b8114612a0357600080fd5b50565b600081359050612a15816129ef565b92915050565b600060208284031215612a3157612a3061245f565b5b6000612a3f84828501612a06565b91505092915050565b600060208284031215612a5e57612a5d61245f565b5b6000612a6c848285016124b2565b91505092915050565b60007fff0000000000000000000000000000000000000000000000000000000000000082169050919050565b612aaa81612a75565b82525050565b612ab981612489565b82525050565b600081519050919050565b600082825260208201905092915050565b6000819050602082019050919050565b612af4816124c7565b82525050565b6000612b068383612aeb565b60208301905092915050565b6000602082019050919050565b6000612b2a82612abf565b612b348185612aca565b9350612b3f83612adb565b8060005b83811015612b70578151612b578882612afa565b9750612b6283612b12565b925050600181019050612b43565b5085935050505092915050565b600060e082019050612b92600083018a612aa1565b8181036020830152612ba481896123fa565b90508181036040830152612bb881886123fa565b9050612bc76060830187612573565b612bd46080830186612ab0565b612be160a0830185612631565b81810360c0830152612bf38184612b1f565b905098975050505050505050565b600080600060608486031215612c1a57612c1961245f565b5b6000612c28868287016124b2565b9350506020612c39868287016124b2565b925050604084013567ffffffffffffffff811115612c5a57612c59612464565b5b612c6686828701612660565b9150509250925092565b612c79816124c7565b8114612c8457600080fd5b50565b600081359050612c9681612c70565b92915050565b600080600060608486031215612cb557612cb461245f565b5b6000612cc3868287016124b2565b9350506020612cd4868287016124b2565b9250506040612ce586828701612c87565b9150509250925092565b60008060408385031215612d0657612d0561245f565b5b6000612d14858286016124b2565b9250506020612d2585828601612c87565b9150509250929050565b612d38816125f0565b8114612d4357600080fd5b50565b600081359050612d5581612d2f565b92915050565b600080600080600080600060e0888a031215612d7a57612d7961245f565b5b6000612d888a828b016124b2565b9750506020612d998a828b016124b2565b9650506040612daa8a828b016124e8565b9550506060612dbb8a828b016124e8565b9450506080612dcc8a828b01612d46565b93505060a0612ddd8a828b01612848565b92505060c0612dee8a828b01612848565b91505092959891949750929550565b60008060408385031215612e1457612e1361245f565b5b6000612e22858286016124b2565b9250506020612e33858286016124b2565b9150509250929050565b7f4e487b7100000000000000000000000000000000000000000000000000000000600052602260045260246000fd5b60006002820490506001821680612e8457607f821691505b602082108103612e9757612e96612e3d565b5b50919050565b600060208284031215612eb357612eb26127ac565b5b612ebd6020612811565b9050600082013567ffffffffffffffff811115612edd57612edc61282c565b5b612ee9848285016128e9565b60008301525092915050565b6000612f013683612e9d565b9050919050565b6000612f143683612917565b9050919050565b6000604082019050612f306000830185612631565b612f3d6020830184612631565b9392505050565b600081519050919050565b600082825260208201905092915050565b6000612f6b82612f44565b612f758185612f4f565b9350612f858185602086016123bf565b612f8e816123e9565b840191505092915050565b6000604082019050612fae60008301856125fd565b8181036020830152612fc08184612f60565b90509392505050565b600081519050612fd8816124d1565b92915050565b600060208284031215612ff457612ff361245f565b5b600061300284828501612fc9565b91505092915050565b7f4e487b7100000000000000000000000000000000000000000000000000000000600052602160045260246000fd5b6000819050919050565b61305561305082612627565b61303a565b82525050565b60006130678284613044565b60208201915081905092915050565b600060608201905061308b60008301866125fd565b818103602083015261309d8185612f60565b905081810360408301526130b18184612f60565b9050949350505050565b600067ffffffffffffffff8211156130d6576130d56127b1565b5b6130df826123e9565b9050602081019050919050565b60006130ff6130fa846130bb565b612811565b90508281526020810184848401111561311b5761311a612862565b5b6131268482856123bf565b509392505050565b600082601f8301126131435761314261285d565b5b81516131538482602086016130ec565b91505092915050565b6000602082840312156131725761317161245f565b5b600082015167ffffffffffffffff8111156131905761318f612464565b5b61319c8482850161312e565b91505092915050565b600060408201905081810360008301526131bf8185612f60565b90506131ce60208301846125fd565b9392505050565b60006131e86131e384612867565b612811565b90508281526020810184848401111561320457613203612862565b5b61320f8482856123bf565b509392505050565b600082601f83011261322c5761322b61285d565b5b815161323c8482602086016131d5565b91505092915050565b60006020828403121561325b5761325a61245f565b5b600082015167ffffffffffffffff81111561327957613278612464565b5b61328584828501613217565b91505092915050565b600060a0820190506132a36000830188612631565b6132b06020830187612631565b6132bd6040830186612631565b6132ca6060830185612573565b6132d76080830184612ab0565b9695505050505050565b60006080820190506132f66000830187612631565b61330360208301866125fd565b6133106040830185612631565b61331d6060830184612631565b9594505050505056fea2646970667358221220d2ecefabf6474a46052e52e11ab32c5139690c9cccda6a7c37d9a6911a35acc664736f6c63430008180033",
  "devdoc": {
    "errors": {
      "AllowanceOverflow()": [
        {
          "details": "The allowance has overflowed."
        }
      ],
      "AllowanceUnderflow()": [
        {
          "details": "The allowance has underflowed."
        }
      ],
      "ECDSAInvalidSignature()": [
        {
          "details": "The signature derives the `address(0)`."
        }
      ],
      "ECDSAInvalidSignatureLength(uint256)": [
        {
          "details": "The signature has an invalid length."
        }
      ],
      "ECDSAInvalidSignatureS(bytes32)": [
        {
          "details": "The signature has an S value that is in the upper half order."
        }
      ],
      "InsufficientAllowance()": [
        {
          "details": "Insufficient allowance."
        }
      ],
      "InsufficientBalance()": [
        {
          "details": "Insufficient balance."
        }
      ],
      "InvalidPermit()": [
        {
          "details": "The permit is invalid."
        }
      ],
      "PermitExpired()": [
        {
          "details": "The permit has expired."
        }
      ],
      "TotalSupplyOverflow()": [
        {
          "details": "The total supply has overflowed."
        }
      ]
    },
    "events": {
      "Approval(address,address,uint256)": {
        "details": "Emitted when `amount` tokens is approved by `owner` to be used by `spender`."
      },
      "ApprovalEncrypted(address,address)": {
        "details": "Emitted when the allowance of a `spender` for an `owner` is set by a call to {approveEncrypted}. `value` is the new allowance."
      },
      "EIP712DomainChanged()": {
        "details": "MAY be emitted to signal that the domain could have changed."
      },
      "Transfer(address,address,uint256)": {
        "details": "Emitted when `amount` tokens is transferred from `from` to `to`."
      },
      "TransferEncrypted(address,address)": {
        "details": "Emitted when `value` tokens are moved from one account (`from`) to another (`to`). Note that `value` may be zero."
      }
    },
    "kind": "dev",
    "methods": {
      "DOMAIN_SEPARATOR()": {
        "details": "Returns the EIP-712 domain separator for the EIP-2612 permit."
      },
      "allowance(address,address)": {
        "details": "Returns the amount of tokens that `spender` can spend on behalf of `owner`."
      },
      "allowanceEncrypted(address,(bytes32,bytes))": {
        "details": "Returns the remaining number of tokens that `spender` will be allowed to spend on behalf of `owner` through {transferFrom}. This is zero by default. This value changes when {approve} or {transferFrom} are called."
      },
      "approve(address,uint256)": {
        "details": "Sets `amount` as the allowance of `spender` over the caller's tokens. Emits a {Approval} event."
      },
      "approveEncrypted(address,(bytes))": {
        "details": "Sets a `value` amount of tokens as the allowance of `spender` over the caller's tokens. Returns a boolean value indicating whether the operation succeeded. IMPORTANT: Beware that changing an allowance with this method brings the risk that someone may use both the old and the new allowance by unfortunate transaction ordering. One possible solution to mitigate this race condition is to first reduce the spender's allowance to 0 and set the desired value afterwards: https://github.com/ethereum/EIPs/issues/20#issuecomment-263524729 Emits an {ApprovalEncrypted} event."
      },
      "balanceOf(address)": {
        "details": "Returns the amount of tokens owned by `owner`."
      },
      "balanceOfEncrypted(address,(bytes32,bytes))": {
        "details": "Returns the value of tokens owned by `account`, sealed and encrypted for the caller."
      },
      "decimals()": {
        "details": "Returns the decimals places of the token."
      },
      "eip712Domain()": {
        "details": "See {IERC-5267}."
      },
      "name()": {
        "details": "Returns the name of the token."
      },
      "nonces(address)": {
        "details": "Returns the current nonce for `owner`. This value is used to compute the signature for EIP-2612 permit."
      },
      "permit(address,address,uint256,uint256,uint8,bytes32,bytes32)": {
        "details": "Sets `value` as the allowance of `spender` over the tokens of `owner`, authorized by a signed approval by `owner`. Emits a {Approval} event."
      },
      "symbol()": {
        "details": "Returns the symbol of the token."
      },
      "totalSupply()": {
        "details": "Returns the amount of tokens in existence."
      },
      "transfer(address,uint256)": {
        "details": "Transfer `amount` tokens from the caller to `to`. Requirements: - `from` must at least have `amount`. Emits a {Transfer} event."
      },
      "transferFrom(address,address,uint256)": {
        "details": "Transfers `amount` tokens from `from` to `to`. Note: Does not update the allowance if it is the maximum uint256 value. Requirements: - `from` must at least have `amount`. - The caller must have at least `amount` of allowance to transfer the tokens of `from`. Emits a {Transfer} event."
      },
      "transferFromEncrypted(address,address,(bytes))": {
        "details": "Moves a `value` amount of tokens from `from` to `to` using the allowance mechanism. `value` is then deducted from the caller's allowance. Returns a boolean value indicating whether the operation succeeded. Emits a {TransferEncrypted} event."
      }
    },
    "version": 1
  },
  "userdoc": {
    "errors": {
      "SignerNotMessageSender()": [
        {
          "notice": "Emitted when the signer is not the message sender"
        }
      ],
      "SignerNotOwner()": [
        {
          "notice": "Emitted when the signer is not the specified owner"
        }
      ]
    },
    "kind": "user",
    "methods": {},
    "version": 1
  },
  "storageLayout": {
    "storage": [
      {
        "astId": 16568,
        "contract": "contracts/tokens/FakeEUR.sol:FakeEUR",
        "label": "_nameFallback",
        "offset": 0,
        "slot": "0",
        "type": "t_string_storage"
      },
      {
        "astId": 16570,
        "contract": "contracts/tokens/FakeEUR.sol:FakeEUR",
        "label": "_versionFallback",
        "offset": 0,
        "slot": "1",
        "type": "t_string_storage"
      },
      {
        "astId": 18126,
        "contract": "contracts/tokens/FakeEUR.sol:FakeEUR",
        "label": "_encTotalSupply",
        "offset": 0,
        "slot": "2",
        "type": "t_userDefinedValueType(euint32)12"
      },
      {
        "astId": 18131,
        "contract": "contracts/tokens/FakeEUR.sol:FakeEUR",
        "label": "_encBalanceOf",
        "offset": 0,
        "slot": "3",
        "type": "t_mapping(t_address,t_userDefinedValueType(euint32)12)"
      },
      {
        "astId": 18138,
        "contract": "contracts/tokens/FakeEUR.sol:FakeEUR",
        "label": "_encAllowance",
        "offset": 0,
        "slot": "4",
        "type": "t_mapping(t_address,t_mapping(t_address,t_userDefinedValueType(euint32)12))"
      },
      {
        "astId": 18140,
        "contract": "contracts/tokens/FakeEUR.sol:FakeEUR",
        "label": "_name",
        "offset": 0,
        "slot": "5",
        "type": "t_string_storage"
      },
      {
        "astId": 18142,
        "contract": "contracts/tokens/FakeEUR.sol:FakeEUR",
        "label": "_symbol",
        "offset": 0,
        "slot": "6",
        "type": "t_string_storage"
      }
    ],
    "types": {
      "t_address": {
        "encoding": "inplace",
        "label": "address",
        "numberOfBytes": "20"
      },
      "t_mapping(t_address,t_mapping(t_address,t_userDefinedValueType(euint32)12))": {
        "encoding": "mapping",
        "key": "t_address",
        "label": "mapping(address => mapping(address => euint32))",
        "numberOfBytes": "32",
        "value": "t_mapping(t_address,t_userDefinedValueType(euint32)12)"
      },
      "t_mapping(t_address,t_userDefinedValueType(euint32)12)": {
        "encoding": "mapping",
        "key": "t_address",
        "label": "mapping(address => euint32)",
        "numberOfBytes": "32",
        "value": "t_userDefinedValueType(euint32)12"
      },
      "t_string_storage": {
        "encoding": "bytes",
        "label": "string",
        "numberOfBytes": "32"
      },
      "t_userDefinedValueType(euint32)12": {
        "encoding": "inplace",
        "label": "euint32",
        "numberOfBytes": "32"
      }
    }
  }
}