{
  "address": "0x465f860eCD54128BE3C42AB2AB943923983dAb1b",
  "abi": [
    {
      "inputs": [],
      "name": "BatchIsInSettlement",
      "type": "error"
    },
    {
      "inputs": [],
      "name": "EpochNotEnded",
      "type": "error"
    },
    {
      "inputs": [],
      "name": "InvalidShortString",
      "type": "error"
    },
    {
      "inputs": [],
      "name": "InvalidTokenOrder",
      "type": "error"
    },
    {
      "inputs": [],
      "name": "NotValidSettlementStep",
      "type": "error"
    },
    {
      "inputs": [],
      "name": "OrderAlreadyClaimed",
      "type": "error"
    },
    {
      "inputs": [],
      "name": "PoolAlreadyExists",
      "type": "error"
    },
    {
      "inputs": [],
      "name": "PoolNotFound",
      "type": "error"
    },
    {
      "inputs": [],
      "name": "SignerNotMessageSender",
      "type": "error"
    },
    {
      "inputs": [],
      "name": "SignerNotOwner",
      "type": "error"
    },
    {
      "inputs": [
        {
          "internalType": "string",
          "name": "str",
          "type": "string"
        }
      ],
      "name": "StringTooLong",
      "type": "error"
    },
    {
      "inputs": [],
      "name": "TooEarlyHarvest",
      "type": "error"
    },
    {
      "inputs": [],
      "name": "noCorrespondingFacet",
      "type": "error"
    },
    {
      "inputs": [],
      "name": "notOwner",
      "type": "error"
    },
    {
      "anonymous": false,
      "inputs": [
        {
          "indexed": false,
          "internalType": "address",
          "name": "recipient",
          "type": "address"
        },
        {
          "indexed": false,
          "internalType": "address",
          "name": "token",
          "type": "address"
        }
      ],
      "name": "Deposit",
      "type": "event"
    },
    {
      "anonymous": false,
      "inputs": [
        {
          "indexed": false,
          "internalType": "bytes32",
          "name": "poolId",
          "type": "bytes32"
        }
      ],
      "name": "Donation",
      "type": "event"
    },
    {
      "anonymous": false,
      "inputs": [],
      "name": "EIP712DomainChanged",
      "type": "event"
    },
    {
      "anonymous": false,
      "inputs": [
        {
          "indexed": false,
          "internalType": "bytes32",
          "name": "poolId",
          "type": "bytes32"
        }
      ],
      "name": "Harvest",
      "type": "event"
    },
    {
      "anonymous": false,
      "inputs": [
        {
          "indexed": false,
          "internalType": "address",
          "name": "tokenX",
          "type": "address"
        },
        {
          "indexed": false,
          "internalType": "address",
          "name": "tokenY",
          "type": "address"
        },
        {
          "indexed": false,
          "internalType": "bytes32",
          "name": "poolId",
          "type": "bytes32"
        }
      ],
      "name": "PoolCreated",
      "type": "event"
    },
    {
      "anonymous": false,
      "inputs": [
        {
          "indexed": false,
          "internalType": "address",
          "name": "recipient",
          "type": "address"
        },
        {
          "indexed": false,
          "internalType": "address",
          "name": "token",
          "type": "address"
        }
      ],
      "name": "Withdraw",
      "type": "event"
    },
    {
      "anonymous": false,
      "inputs": [
        {
          "indexed": false,
          "internalType": "bytes32",
          "name": "poolId",
          "type": "bytes32"
        },
        {
          "indexed": false,
          "internalType": "uint32",
          "name": "epoch",
          "type": "uint32"
        }
      ],
      "name": "batchSettled",
      "type": "event"
    },
    {
      "anonymous": false,
      "inputs": [
        {
          "indexed": false,
          "internalType": "bytes4",
          "name": "selector",
          "type": "bytes4"
        },
        {
          "indexed": false,
          "internalType": "address",
          "name": "facet",
          "type": "address"
        }
      ],
      "name": "facetAdded",
      "type": "event"
    },
    {
      "anonymous": false,
      "inputs": [
        {
          "indexed": false,
          "internalType": "bytes32",
          "name": "poolId",
          "type": "bytes32"
        },
        {
          "indexed": false,
          "internalType": "uint32",
          "name": "epoch",
          "type": "uint32"
        }
      ],
      "name": "liquidityRemoved",
      "type": "event"
    },
    {
      "anonymous": false,
      "inputs": [
        {
          "indexed": false,
          "internalType": "bytes32",
          "name": "poolId",
          "type": "bytes32"
        },
        {
          "indexed": false,
          "internalType": "uint32",
          "name": "epoch",
          "type": "uint32"
        },
        {
          "indexed": false,
          "internalType": "address",
          "name": "claimer",
          "type": "address"
        }
      ],
      "name": "orderClaimed",
      "type": "event"
    },
    {
      "anonymous": false,
      "inputs": [
        {
          "indexed": false,
          "internalType": "bytes32",
          "name": "poolId",
          "type": "bytes32"
        },
        {
          "indexed": false,
          "internalType": "uint32",
          "name": "epoch",
          "type": "uint32"
        }
      ],
      "name": "orderSubmitted",
      "type": "event"
    },
    {
      "inputs": [],
      "name": "eip712Domain",
      "outputs": [
        {
          "internalType": "bytes1",
          "name": "fields",
          "type": "bytes1"
        },
        {
          "internalType": "string",
          "name": "name",
          "type": "string"
        },
        {
          "internalType": "string",
          "name": "version",
          "type": "string"
        },
        {
          "internalType": "uint256",
          "name": "chainId",
          "type": "uint256"
        },
        {
          "internalType": "address",
          "name": "verifyingContract",
          "type": "address"
        },
        {
          "internalType": "bytes32",
          "name": "salt",
          "type": "bytes32"
        },
        {
          "internalType": "uint256[]",
          "name": "extensions",
          "type": "uint256[]"
        }
      ],
      "stateMutability": "view",
      "type": "function"
    },
    {
      "inputs": [
        {
          "internalType": "bytes32",
          "name": "poolId",
          "type": "bytes32"
        },
        {
          "components": [
            {
              "internalType": "bytes",
              "name": "data",
              "type": "bytes"
            }
          ],
          "internalType": "struct inEuint32",
          "name": "_exitAmount",
          "type": "tuple"
        }
      ],
      "name": "removeLiquidity",
      "outputs": [],
      "stateMutability": "nonpayable",
      "type": "function"
    },
    {
      "inputs": [
        {
          "internalType": "bytes32",
          "name": "poolId",
          "type": "bytes32"
        },
        {
          "components": [
            {
              "internalType": "bytes",
              "name": "data",
              "type": "bytes"
            }
          ],
          "internalType": "struct inEuint64",
          "name": "_packedAmounts",
          "type": "tuple"
        }
      ],
      "name": "submitOrder",
      "outputs": [
        {
          "internalType": "uint32",
          "name": "",
          "type": "uint32"
        }
      ],
      "stateMutability": "nonpayable",
      "type": "function"
    }
  ],
  "transactionHash": "0x23af2dde10cedca32a54b19a251b687eeab0a8631b6953d1a1e9e608c6d40324",
  "args": [],
  "numDeployments": 1,
  "solcInputHash": "0ea81f9570dafd01d0ea1f5e4dec455d",
  "bytecode": "0x6101606040526000600760006101000a81548160ff0219169083151502179055503480156200002d57600080fd5b506040518060400160405280601181526020017f4668656e6978205065726d697373696f6e0000000000000000000000000000008152506040518060400160405280600381526020017f312e300000000000000000000000000000000000000000000000000000000000815250620000b06000836200015060201b90919060201c565b6101208181525050620000ce6001826200015060201b90919060201c565b6101408181525050818051906020012060e08181525050808051906020012061010081815250504660a081815250506200010d620001a860201b60201c565b608081815250503073ffffffffffffffffffffffffffffffffffffffff1660c08173ffffffffffffffffffffffffffffffffffffffff1681525050505062000800565b600060208351101562000176576200016e836200020560201b60201c565b9050620001a2565b8262000188836200027260201b60201c565b6000019081620001999190620004f6565b5060ff60001b90505b92915050565b60007f8b73c3c69bb8fe3d512ecc4cf759cc79239f7b179b0ffacaa9a75d522b39400f60e051610100514630604051602001620001ea9594939291906200064e565b60405160208183030381529060405280519060200120905090565b600080829050601f815111156200025557826040517f305a27a90000000000000000000000000000000000000000000000000000000081526004016200024c91906200073a565b60405180910390fd5b805181620002639062000790565b60001c1760001b915050919050565b6000819050919050565b600081519050919050565b7f4e487b7100000000000000000000000000000000000000000000000000000000600052604160045260246000fd5b7f4e487b7100000000000000000000000000000000000000000000000000000000600052602260045260246000fd5b60006002820490506001821680620002fe57607f821691505b602082108103620003145762000313620002b6565b5b50919050565b60008190508160005260206000209050919050565b60006020601f8301049050919050565b600082821b905092915050565b6000600883026200037e7fffffffffffffffffffffffffffffffffffffffffffffffffffffffffffffffff826200033f565b6200038a86836200033f565b95508019841693508086168417925050509392505050565b6000819050919050565b6000819050919050565b6000620003d7620003d1620003cb84620003a2565b620003ac565b620003a2565b9050919050565b6000819050919050565b620003f383620003b6565b6200040b6200040282620003de565b8484546200034c565b825550505050565b600090565b6200042262000413565b6200042f818484620003e8565b505050565b5b8181101562000457576200044b60008262000418565b60018101905062000435565b5050565b601f821115620004a65762000470816200031a565b6200047b846200032f565b810160208510156200048b578190505b620004a36200049a856200032f565b83018262000434565b50505b505050565b600082821c905092915050565b6000620004cb60001984600802620004ab565b1980831691505092915050565b6000620004e68383620004b8565b9150826002028217905092915050565b62000501826200027c565b67ffffffffffffffff8111156200051d576200051c62000287565b5b620005298254620002e5565b620005368282856200045b565b600060209050601f8311600181146200056e576000841562000559578287015190505b620005658582620004d8565b865550620005d5565b601f1984166200057e866200031a565b60005b82811015620005a85784890151825560018201915060208501945060208101905062000581565b86831015620005c85784890151620005c4601f891682620004b8565b8355505b6001600288020188555050505b505050505050565b6000819050919050565b620005f281620005dd565b82525050565b6200060381620003a2565b82525050565b600073ffffffffffffffffffffffffffffffffffffffff82169050919050565b6000620006368262000609565b9050919050565b620006488162000629565b82525050565b600060a082019050620006656000830188620005e7565b620006746020830187620005e7565b620006836040830186620005e7565b620006926060830185620005f8565b620006a160808301846200063d565b9695505050505050565b600082825260208201905092915050565b60005b83811015620006dc578082015181840152602081019050620006bf565b60008484015250505050565b6000601f19601f8301169050919050565b600062000706826200027c565b620007128185620006ab565b935062000724818560208601620006bc565b6200072f81620006e8565b840191505092915050565b60006020820190508181036000830152620007568184620006f9565b905092915050565b600081519050919050565b6000819050602082019050919050565b6000620007878251620005dd565b80915050919050565b60006200079d826200075e565b82620007a98462000769565b9050620007b68162000779565b92506020821015620007f957620007f47fffffffffffffffffffffffffffffffffffffffffffffffffffffffffffffffff836020036008026200033f565b831692505b5050919050565b60805160a05160c05160e051610100516101205161014051612fbd6200084c60003960006106610152600061062601526000505060005050600050506000505060005050612fbd6000f3fe608060405234801561001057600080fd5b50600436106100415760003560e01c806384b0196e14610046578063ba198d5f1461006a578063f5398acd1461009a575b600080fd5b61004e6100b6565b60405161006197969594939291906127e3565b60405180910390f35b610084600480360381019061007f91906128cb565b610160565b6040516100919190612946565b60405180910390f35b6100b460048036038101906100af9190612980565b6103a5565b005b6000606080600080600060606100ca61061d565b6100d2610658565b46306000801b600067ffffffffffffffff8111156100f3576100f26129dc565b5b6040519080825280602002602001820160405280156101215781602001602082028036833780820191505090505b507f0f00000000000000000000000000000000000000000000000000000000000000959493929190965096509650965096509650965090919293949596565b600082600073ffffffffffffffffffffffffffffffffffffffff166006600083815260200190815260200160002060000160009054906101000a900473ffffffffffffffffffffffffffffffffffffffff1673ffffffffffffffffffffffffffffffffffffffff16036101ff576040517f76ecffc000000000000000000000000000000000000000000000000000000000815260040160405180910390fd5b600060066000868152602001908152602001600020905060008160070160008360010160149054906101000a900463ffffffff1663ffffffff1663ffffffff1681526020019081526020016000209050600061025a86610693565b9050600760009054906101000a900460ff161561027d5761027c8184846107be565b5b600061028a848484610802565b90506102c7336102bd8660000160009054906101000a900473ffffffffffffffffffffffffffffffffffffffff16610ac5565b8360000151610ae5565b610302336102f88660010160009054906101000a900473ffffffffffffffffffffffffffffffffffffffff16610ac5565b8360200151610ae5565b61030d818433610b9e565b6103178184610ec4565b61033633898660010160149054906101000a900463ffffffff16610f8c565b7f20b50106ec48113af87337548b09f0ce7f60a12bd3c545126cd25abb7fc1c630888560010160149054906101000a900463ffffffff1660405161037b929190612a0b565b60405180910390a18360010160149054906101000a900463ffffffff169550505050505092915050565b81600073ffffffffffffffffffffffffffffffffffffffff166006600083815260200190815260200160002060000160009054906101000a900473ffffffffffffffffffffffffffffffffffffffff1673ffffffffffffffffffffffffffffffffffffffff1603610442576040517f76ecffc000000000000000000000000000000000000000000000000000000000815260040160405180910390fd5b6000600660008581526020019081526020016000209050600061046d8461046890612b9c565b61110b565b90506104cc81600460003373ffffffffffffffffffffffffffffffffffffffff1673ffffffffffffffffffffffffffffffffffffffff168152602001908152602001600020600001600088815260200190815260200160002054611121565b905060006104eb6104e183856004015461119a565b8460060154611213565b9050600061050a61050084866005015461119a565b8560060154611213565b9050610517338885610ae5565b61052584600601548461128c565b846006018190555061053b84600401548361128c565b846004018190555061055184600501548261128c565b84600501819055506105903361058a8660000160009054906101000a900473ffffffffffffffffffffffffffffffffffffffff16610ac5565b846112a0565b6105c7336105c18660010160009054906101000a900473ffffffffffffffffffffffffffffffffffffffff16610ac5565b836112a0565b7f9462ef22a60b54cf6f60f7820daf676b73607ad76ca230d5bb366e6f04170467878560010160149054906101000a900463ffffffff1660405161060c929190612a0b565b60405180910390a150505050505050565b606061065360007f000000000000000000000000000000000000000000000000000000000000000061135990919063ffffffff16565b905090565b606061068e60017f000000000000000000000000000000000000000000000000000000000000000061135990919063ffffffff16565b905090565b61069b6125b8565b60006106af836106aa90612c07565b611409565b90506106b96125b8565b6106d56106d0836106cb617fff61141f565b611433565b6114ac565b81602001818152505061070e6106ff6106fa846106f5633fff800061141f565b611433565b6114ac565b610709600f6114c2565b6114d6565b81600001818152505061073f6107308361072b634000000061141f565b611433565b61073a600061141f565b61154f565b8160400181815250506107706107618361075c638000000061141f565b611433565b61076b600061141f565b61154f565b8160600181815250506107ab6107a6610797846107926507ff0000000061141f565b611433565b6107a1602061141f565b6115c8565b6114ac565b8160800181815250508092505050919050565b6000806107cb8585611641565b915091506000806107de8484898961171b565b915091506107ed828288611793565b6107f984848888611954565b50505050505050565b61080a6125b8565b6108978260000151600460003373ffffffffffffffffffffffffffffffffffffffff1673ffffffffffffffffffffffffffffffffffffffff16815260200190815260200160002060000160006108838860000160009054906101000a900473ffffffffffffffffffffffffffffffffffffffff16610ac5565b815260200190815260200160002054611121565b82600001818152505061092d8260200151600460003373ffffffffffffffffffffffffffffffffffffffff1673ffffffffffffffffffffffffffffffffffffffff16815260200190815260200160002060000160006109198860010160009054906101000a900473ffffffffffffffffffffffffffffffffffffffff16610ac5565b815260200190815260200160002054611121565b82602001818152505060006109558360000151610950600863ffffffff166114c2565b6114d6565b905060006109768460200151610971600863ffffffff166114c2565b6114d6565b90506109af336109a98860000160009054906101000a900473ffffffffffffffffffffffffffffffffffffffff16610ac5565b84610ae5565b6109e6336109e08860010160009054906101000a900473ffffffffffffffffffffffffffffffffffffffff16610ac5565b83610ae5565b60006109fb836109f660016114c2565b6114d6565b90506000610a1283610a0d60016114c2565b6114d6565b9050610a22886002015483611c02565b8860020181905550610a38886003015482611c02565b8860030181905550610a57610a51886007015486611c02565b8361128c565b8760070181905550610a76610a70886008015485611c02565b8261128c565b87600801819055508560400151856040018181525050610a9a86600001518561128c565b856000018181525050610ab186602001518461128c565b856020018181525050505050509392505050565b600060608260601b6bffffffffffffffffffffffff1916901c9050919050565b610b42600460008573ffffffffffffffffffffffffffffffffffffffff1673ffffffffffffffffffffffffffffffffffffffff1681526020019081526020016000206000016000848152602001908152602001600020548261128c565b600460008573ffffffffffffffffffffffffffffffffffffffff1673ffffffffffffffffffffffffffffffffffffffff168152602001908152602001600020600001600084815260200190815260200160002081905550505050565b610c078260000160008373ffffffffffffffffffffffffffffffffffffffff1673ffffffffffffffffffffffffffffffffffffffff16815260200190815260200160002060000154610c0285604001518660000151610bfd60006114c2565b611c16565b611c02565b8260000160008373ffffffffffffffffffffffffffffffffffffffff1673ffffffffffffffffffffffffffffffffffffffff16815260200190815260200160002060000181905550610cb88260000160008373ffffffffffffffffffffffffffffffffffffffff1673ffffffffffffffffffffffffffffffffffffffff16815260200190815260200160002060010154610cb385604001518660200151610cae60006114c2565b611c16565b611c02565b8260000160008373ffffffffffffffffffffffffffffffffffffffff1673ffffffffffffffffffffffffffffffffffffffff16815260200190815260200160002060010181905550610d698260000160008373ffffffffffffffffffffffffffffffffffffffff1673ffffffffffffffffffffffffffffffffffffffff16815260200190815260200160002060020154610d648560400151610d5a60006114c2565b8760000151611c16565b611c02565b8260000160008373ffffffffffffffffffffffffffffffffffffffff1673ffffffffffffffffffffffffffffffffffffffff16815260200190815260200160002060020181905550610e1a8260000160008373ffffffffffffffffffffffffffffffffffffffff1673ffffffffffffffffffffffffffffffffffffffff16815260200190815260200160002060030154610e158560400151610e0b60006114c2565b8760200151611c16565b611c02565b8260000160008373ffffffffffffffffffffffffffffffffffffffff1673ffffffffffffffffffffffffffffffffffffffff1681526020019081526020016000206003018190555060008260000160008373ffffffffffffffffffffffffffffffffffffffff1673ffffffffffffffffffffffffffffffffffffffff16815260200190815260200160002060040160006101000a81548160ff021916908315150217905550505050565b610eed8160030154610ee884604001518560000151610ee360006114c2565b611c16565b611c02565b8160030181905550610f1e8160040154610f1984604001518560200151610f1460006114c2565b611c16565b611c02565b8160040181905550610f4f8160050154610f4a8460400151610f4060006114c2565b8660000151611c16565b611c02565b8160050181905550610f808160060154610f7b8460400151610f7160006114c2565b8660200151611c16565b611c02565b81600601819055505050565b6000600460008573ffffffffffffffffffffffffffffffffffffffff1673ffffffffffffffffffffffffffffffffffffffff16815260200190815260200160002090506000805b826001018054905081101561107f5784836001018281548110610ff957610ff8612c1a565b5b90600052602060002090600202016000015414801561105a57508363ffffffff168360010182815481106110305761102f612c1a565b5b906000526020600020906002020160010160009054906101000a900463ffffffff1663ffffffff16145b1561107257818061106a90612c78565b92505061107f565b8080600101915050610fd3565b5060008103611104578160010160405180604001604052808681526020018563ffffffff1681525090806001815401808255809150506001900390600052602060002090600202016000909190919091506000820151816000015560208201518160010160006101000a81548163ffffffff021916908363ffffffff16021790555050505b5050505050565b600061111a8260000151611c94565b9050919050565b600061112c83611ca8565b61113d5761113a60006114c2565b92505b61114682611ca8565b6111575761115460006114c2565b91505b60008390506000839050600061118c60028484608073ffffffffffffffffffffffffffffffffffffffff16635211c679611cb5565b905080935050505092915050565b60006111a583611ca8565b6111b6576111b360006114c2565b92505b6111bf82611ca8565b6111d0576111cd60006114c2565b91505b60008390506000839050600061120560028484608073ffffffffffffffffffffffffffffffffffffffff16634284f765611cb5565b905080935050505092915050565b600061121e83611ca8565b61122f5761122c60006114c2565b92505b61123882611ca8565b6112495761124660006114c2565b91505b60008390506000839050600061127e60028484608073ffffffffffffffffffffffffffffffffffffffff16631f4cda2f611cb5565b905080935050505092915050565b60006112988383611d49565b905092915050565b6112fd600460008573ffffffffffffffffffffffffffffffffffffffff1673ffffffffffffffffffffffffffffffffffffffff16815260200190815260200160002060000160008481526020019081526020016000205482611c02565b600460008573ffffffffffffffffffffffffffffffffffffffff1673ffffffffffffffffffffffffffffffffffffffff168152602001908152602001600020600001600084815260200190815260200160002081905550505050565b606060ff60001b83146113765761136f83611dc2565b9050611403565b81805461138290612cef565b80601f01602080910402602001604051908101604052809291908181526020018280546113ae90612cef565b80156113fb5780601f106113d0576101008083540402835291602001916113fb565b820191906000526020600020905b8154815290600101906020018083116113de57829003601f168201915b505050505090505b92915050565b60006114188260000151611e36565b9050919050565b600061142c826003611e4a565b9050919050565b600061143e83611eec565b61144f5761144c600061141f565b92505b61145882611eec565b61146957611466600061141f565b91505b60008390506000839050600061149e60038484608073ffffffffffffffffffffffffffffffffffffffff1663ae104cfd611cb5565b905080935050505092915050565b60006114bb6003836002611ef9565b9050919050565b60006114cf826002611e4a565b9050919050565b60006114e183611ca8565b6114f2576114ef60006114c2565b92505b6114fb82611ca8565b61150c5761150960006114c2565b91505b60008390506000839050600061154160028484608073ffffffffffffffffffffffffffffffffffffffff16639944d12d611cb5565b905080935050505092915050565b600061155a83611eec565b61156b57611568600061141f565b92505b61157482611eec565b61158557611582600061141f565b91505b6000839050600083905060006115ba60038484608073ffffffffffffffffffffffffffffffffffffffff166392348b34611cb5565b905080935050505092915050565b60006115d383611eec565b6115e4576115e1600061141f565b92505b6115ed82611eec565b6115fe576115fb600061141f565b91505b60008390506000839050600061163360038484608073ffffffffffffffffffffffffffffffffffffffff16639944d12d611cb5565b905080935050505092915050565b60008061167f846060015161167061166187600001518860800151611f9e565b61166b600a6114c2565b6114d6565b61167a60006114c2565b611c16565b91506116bc846060015161169360006114c2565b6116b76116a888602001518960800151611f9e565b6116b2600a6114c2565b6114d6565b611c16565b90506116e78460600151836116e26116d8858860040154611f9e565b8760050154611fb2565b611c16565b9150611712846060015161170c611702858760050154611f9e565b8660040154611fb2565b83611c16565b90509250929050565b600080600061174e856060015161173f6117358a8a611f9e565b8760050154611fb2565b61174960006114c2565b611c16565b90506000611780866060015161176460006114c2565b61177b6117718c8c611f9e565b8960040154611fb2565b611c16565b9050818193509350505094509492505050565b61182461181f600460003373ffffffffffffffffffffffffffffffffffffffff1673ffffffffffffffffffffffffffffffffffffffff168152602001908152602001600020600001600061180a8560000160009054906101000a900473ffffffffffffffffffffffffffffffffffffffff16610ac5565b81526020019081526020016000205485611fc6565b61203f565b6118b56118b0600460003373ffffffffffffffffffffffffffffffffffffffff1673ffffffffffffffffffffffffffffffffffffffff168152602001908152602001600020600001600061189b8560010160009054906101000a900473ffffffffffffffffffffffffffffffffffffffff16610ac5565b81526020019081526020016000205484611fc6565b61203f565b6118ec336118e68360000160009054906101000a900473ffffffffffffffffffffffffffffffffffffffff16610ac5565b85610ae5565b6119233361191d8360010160009054906101000a900473ffffffffffffffffffffffffffffffffffffffff16610ac5565b84610ae5565b611931816002015484611c02565b8160020181905550611947816003015483611c02565b8160030181905550505050565b600061195e6120f4565b9050600061197961196f8388611f9e565b8560020154611121565b905060006119a661199c61199661199060016114c2565b8661128c565b88611f9e565b8660030154611121565b90506119b685600201548361128c565b85600201819055506119cc85600301548261128c565b8560030181905550611a228460000160003073ffffffffffffffffffffffffffffffffffffffff1673ffffffffffffffffffffffffffffffffffffffff1681526020019081526020016000206000015483611c02565b8460000160003073ffffffffffffffffffffffffffffffffffffffff1673ffffffffffffffffffffffffffffffffffffffff16815260200190815260200160002060000181905550611ab88460000160003073ffffffffffffffffffffffffffffffffffffffff1673ffffffffffffffffffffffffffffffffffffffff1681526020019081526020016000206001015482611c02565b8460000160003073ffffffffffffffffffffffffffffffffffffffff1673ffffffffffffffffffffffffffffffffffffffff1681526020019081526020016000206001018190555060008460000160003073ffffffffffffffffffffffffffffffffffffffff1673ffffffffffffffffffffffffffffffffffffffff16815260200190815260200160002060040160006101000a81548160ff021916908315150217905550611b6b846003015483611c02565b8460030181905550611b81846004015482611c02565b8460040181905550611bf930611bdf8760000160009054906101000a900473ffffffffffffffffffffffffffffffffffffffff168860010160009054906101000a900473ffffffffffffffffffffffffffffffffffffffff16612115565b8760010160149054906101000a900463ffffffff16610f8c565b50505050505050565b6000611c0e8383612252565b905092915050565b6000611c21846122ca565b611c3257611c2f60006122d7565b93505b611c3b83611ca8565b611c4c57611c4960006114c2565b92505b611c5582611ca8565b611c6657611c6360006114c2565b91505b6000849050600084905060008490506000611c8460028585856122eb565b9050809450505050509392505050565b6000611ca18260026123a3565b9050919050565b6000808214159050919050565b60006060838388611cc58961243d565b611cce8961243d565b6040518463ffffffff1660e01b8152600401611cec93929190612d91565b600060405180830381865afa158015611d09573d6000803e3d6000fd5b505050506040513d6000823e3d601f19601f82011682018060405250810190611d329190612e46565b9050611d3d8161249a565b91505095945050505050565b6000611d5483611ca8565b611d6557611d6260006114c2565b92505b611d6e82611ca8565b611d7f57611d7c60006114c2565b91505b600083905060008390506000611db460028484608073ffffffffffffffffffffffffffffffffffffffff1663cc2cbeff611cb5565b905080935050505092915050565b60606000611dcf836124a8565b90506000602067ffffffffffffffff811115611dee57611ded6129dc565b5b6040519080825280601f01601f191660200182016040528015611e205781602001600182028036833780820191505090505b5090508181528360208201528092505050919050565b6000611e438260036123a3565b9050919050565b60006060608073ffffffffffffffffffffffffffffffffffffffff166319e1c5c4611e748661243d565b856040518363ffffffff1660e01b8152600401611e92929190612e8f565b600060405180830381865afa158015611eaf573d6000803e3d6000fd5b505050506040513d6000823e3d601f19601f82011682018060405250810190611ed89190612e46565b9050611ee3816124f8565b91505092915050565b6000808214159050919050565b60006060608073ffffffffffffffffffffffffffffffffffffffff16634a5a111786611f248761243d565b866040518463ffffffff1660e01b8152600401611f4393929190612ebf565b600060405180830381865afa158015611f60573d6000803e3d6000fd5b505050506040513d6000823e3d601f19601f82011682018060405250810190611f899190612e46565b9050611f94816124f8565b9150509392505050565b6000611faa838361119a565b905092915050565b6000611fbe8383611213565b905092915050565b6000611fd183611ca8565b611fe257611fdf60006114c2565b92505b611feb82611ca8565b611ffc57611ff960006114c2565b91505b60008390506000839050600061203160028484608073ffffffffffffffffffffffffffffffffffffffff1663650de1cf611cb5565b905080935050505092915050565b612048816122ca565b6120595761205660006122d7565b90505b600081905060006120698261243d565b9050608073ffffffffffffffffffffffffffffffffffffffff16637d23f1db600d836040518363ffffffff1660e01b81526004016120a8929190612efd565b600060405180830381865afa1580156120c5573d6000803e3d6000fd5b505050506040513d6000823e3d601f19601f820116820180604052508101906120ee9190612e46565b50505050565b6000612110612101612506565b61210b60016114c2565b612528565b905090565b60008173ffffffffffffffffffffffffffffffffffffffff168373ffffffffffffffffffffffffffffffffffffffff16106121cc57600560008373ffffffffffffffffffffffffffffffffffffffff1673ffffffffffffffffffffffffffffffffffffffff16815260200190815260200160002060008473ffffffffffffffffffffffffffffffffffffffff1673ffffffffffffffffffffffffffffffffffffffff1681526020019081526020016000205461224a565b600560008473ffffffffffffffffffffffffffffffffffffffff1673ffffffffffffffffffffffffffffffffffffffff16815260200190815260200160002060008373ffffffffffffffffffffffffffffffffffffffff1673ffffffffffffffffffffffffffffffffffffffff168152602001908152602001600020545b905092915050565b600061225d83611ca8565b61226e5761226b60006114c2565b92505b61227782611ca8565b6122885761228560006114c2565b91505b6000839050600083905060006122bc60028484608073ffffffffffffffffffffffffffffffffffffffff16622df619611cb5565b905080935050505092915050565b6000808214159050919050565b60006122e482600d611e4a565b9050919050565b60006060608073ffffffffffffffffffffffffffffffffffffffff1663c2d96952876123168861243d565b61231f8861243d565b6123288861243d565b6040518563ffffffff1660e01b81526004016123479493929190612f2d565b600060405180830381865afa158015612364573d6000803e3d6000fd5b505050506040513d6000823e3d601f19601f8201168201806040525081019061238d9190612e46565b9050612398816124f8565b915050949350505050565b60006060608073ffffffffffffffffffffffffffffffffffffffff16635fa55ca784866040518363ffffffff1660e01b81526004016123e3929190612efd565b600060405180830381865afa158015612400573d6000803e3d6000fd5b505050506040513d6000823e3d601f19601f820116820180604052508101906124299190612e46565b9050612434816124f8565b91505092915050565b6060602067ffffffffffffffff81111561245a576124596129dc565b5b6040519080825280601f01601f19166020018201604052801561248c5781602001600182028036833780820191505090505b509050816020820152919050565b600060208201519050919050565b60008060ff8360001c169050601f8111156124ef576040517fb3512b0c00000000000000000000000000000000000000000000000000000000815260040160405180910390fd5b80915050919050565b600060208201519050919050565b6000806125116125a1565b90506125228163ffffffff166114c2565b91505090565b600061253383611ca8565b6125445761254160006114c2565b92505b61254d82611ca8565b61255e5761255b60006114c2565b91505b60008390506000839050600061259360028484608073ffffffffffffffffffffffffffffffffffffffff1663ae104cfd611cb5565b905080935050505092915050565b6000804390506000814060001c9050809250505090565b6040518060a0016040528060008152602001600081526020016000815260200160008152602001600081525090565b60007fff0000000000000000000000000000000000000000000000000000000000000082169050919050565b61261c816125e7565b82525050565b600081519050919050565b600082825260208201905092915050565b60005b8381101561265c578082015181840152602081019050612641565b60008484015250505050565b6000601f19601f8301169050919050565b600061268482612622565b61268e818561262d565b935061269e81856020860161263e565b6126a781612668565b840191505092915050565b6000819050919050565b6126c5816126b2565b82525050565b600073ffffffffffffffffffffffffffffffffffffffff82169050919050565b60006126f6826126cb565b9050919050565b612706816126eb565b82525050565b6000819050919050565b61271f8161270c565b82525050565b600081519050919050565b600082825260208201905092915050565b6000819050602082019050919050565b61275a816126b2565b82525050565b600061276c8383612751565b60208301905092915050565b6000602082019050919050565b600061279082612725565b61279a8185612730565b93506127a583612741565b8060005b838110156127d65781516127bd8882612760565b97506127c883612778565b9250506001810190506127a9565b5085935050505092915050565b600060e0820190506127f8600083018a612613565b818103602083015261280a8189612679565b9050818103604083015261281e8188612679565b905061282d60608301876126bc565b61283a60808301866126fd565b61284760a0830185612716565b81810360c08301526128598184612785565b905098975050505050505050565b6000604051905090565b600080fd5b600080fd5b6128848161270c565b811461288f57600080fd5b50565b6000813590506128a18161287b565b92915050565b600080fd5b6000602082840312156128c2576128c16128a7565b5b81905092915050565b600080604083850312156128e2576128e1612871565b5b60006128f085828601612892565b925050602083013567ffffffffffffffff81111561291157612910612876565b5b61291d858286016128ac565b9150509250929050565b600063ffffffff82169050919050565b61294081612927565b82525050565b600060208201905061295b6000830184612937565b92915050565b600060208284031215612977576129766128a7565b5b81905092915050565b6000806040838503121561299757612996612871565b5b60006129a585828601612892565b925050602083013567ffffffffffffffff8111156129c6576129c5612876565b5b6129d285828601612961565b9150509250929050565b7f4e487b7100000000000000000000000000000000000000000000000000000000600052604160045260246000fd5b6000604082019050612a206000830185612716565b612a2d6020830184612937565b9392505050565b600080fd5b612a4282612668565b810181811067ffffffffffffffff82111715612a6157612a606129dc565b5b80604052505050565b6000612a74612867565b9050612a808282612a39565b919050565b600080fd5b600080fd5b600080fd5b600067ffffffffffffffff821115612aaf57612aae6129dc565b5b612ab882612668565b9050602081019050919050565b82818337600083830152505050565b6000612ae7612ae284612a94565b612a6a565b905082815260208101848484011115612b0357612b02612a8f565b5b612b0e848285612ac5565b509392505050565b600082601f830112612b2b57612b2a612a8a565b5b8135612b3b848260208601612ad4565b91505092915050565b600060208284031215612b5a57612b59612a34565b5b612b646020612a6a565b9050600082013567ffffffffffffffff811115612b8457612b83612a85565b5b612b9084828501612b16565b60008301525092915050565b6000612ba83683612b44565b9050919050565b600060208284031215612bc557612bc4612a34565b5b612bcf6020612a6a565b9050600082013567ffffffffffffffff811115612bef57612bee612a85565b5b612bfb84828501612b16565b60008301525092915050565b6000612c133683612baf565b9050919050565b7f4e487b7100000000000000000000000000000000000000000000000000000000600052603260045260246000fd5b7f4e487b7100000000000000000000000000000000000000000000000000000000600052601160045260246000fd5b6000612c83826126b2565b91507fffffffffffffffffffffffffffffffffffffffffffffffffffffffffffffffff8203612cb557612cb4612c49565b5b600182019050919050565b7f4e487b7100000000000000000000000000000000000000000000000000000000600052602260045260246000fd5b60006002820490506001821680612d0757607f821691505b602082108103612d1a57612d19612cc0565b5b50919050565b600060ff82169050919050565b612d3681612d20565b82525050565b600081519050919050565b600082825260208201905092915050565b6000612d6382612d3c565b612d6d8185612d47565b9350612d7d81856020860161263e565b612d8681612668565b840191505092915050565b6000606082019050612da66000830186612d2d565b8181036020830152612db88185612d58565b90508181036040830152612dcc8184612d58565b9050949350505050565b6000612de9612de484612a94565b612a6a565b905082815260208101848484011115612e0557612e04612a8f565b5b612e1084828561263e565b509392505050565b600082601f830112612e2d57612e2c612a8a565b5b8151612e3d848260208601612dd6565b91505092915050565b600060208284031215612e5c57612e5b612871565b5b600082015167ffffffffffffffff811115612e7a57612e79612876565b5b612e8684828501612e18565b91505092915050565b60006040820190508181036000830152612ea98185612d58565b9050612eb86020830184612d2d565b9392505050565b6000606082019050612ed46000830186612d2d565b8181036020830152612ee68185612d58565b9050612ef56040830184612d2d565b949350505050565b6000604082019050612f126000830185612d2d565b8181036020830152612f248184612d58565b90509392505050565b6000608082019050612f426000830187612d2d565b8181036020830152612f548186612d58565b90508181036040830152612f688185612d58565b90508181036060830152612f7c8184612d58565b90509594505050505056fea2646970667358221220ac17c5b0fc10029dca68ee6f8ead1265be34e77fd11eafc2f32222d3f3615f9964736f6c63430008180033",
  "devdoc": {
    "events": {
      "EIP712DomainChanged()": {
        "details": "MAY be emitted to signal that the domain could have changed."
      }
    },
    "kind": "dev",
    "methods": {
      "eip712Domain()": {
        "details": "See {IERC-5267}."
      }
    },
    "version": 1
  },
  "userdoc": {
    "errors": {
      "SignerNotMessageSender()": [
        {
          "notice": "Emitted when the signer is not the message sender"
        }
      ],
      "SignerNotOwner()": [
        {
          "notice": "Emitted when the signer is not the specified owner"
        }
      ]
    },
    "kind": "user",
    "methods": {},
    "notice": "This contract handles order submission, which is settled in batch, and removeLiquidity, which can be filled immidiately. Orders are batched since they may affect the pool price, while removeLiquidity does not.",
    "version": 1
  },
  "storageLayout": {
    "storage": [
      {
        "astId": 16568,
        "contract": "contracts/FugaziOrderFacet.sol:FugaziOrderFacet",
        "label": "_nameFallback",
        "offset": 0,
        "slot": "0",
        "type": "t_string_storage"
      },
      {
        "astId": 16570,
        "contract": "contracts/FugaziOrderFacet.sol:FugaziOrderFacet",
        "label": "_versionFallback",
        "offset": 0,
        "slot": "1",
        "type": "t_string_storage"
      },
      {
        "astId": 19398,
        "contract": "contracts/FugaziOrderFacet.sol:FugaziOrderFacet",
        "label": "owner",
        "offset": 0,
        "slot": "2",
        "type": "t_address"
      },
      {
        "astId": 19402,
        "contract": "contracts/FugaziOrderFacet.sol:FugaziOrderFacet",
        "label": "selectorTofacet",
        "offset": 0,
        "slot": "3",
        "type": "t_mapping(t_bytes4,t_address)"
      },
      {
        "astId": 19437,
        "contract": "contracts/FugaziOrderFacet.sol:FugaziOrderFacet",
        "label": "account",
        "offset": 0,
        "slot": "4",
        "type": "t_mapping(t_address,t_struct(accountStruct)19432_storage)"
      },
      {
        "astId": 19574,
        "contract": "contracts/FugaziOrderFacet.sol:FugaziOrderFacet",
        "label": "poolIdMapping",
        "offset": 0,
        "slot": "5",
        "type": "t_mapping(t_address,t_mapping(t_address,t_bytes32))"
      },
      {
        "astId": 19579,
        "contract": "contracts/FugaziOrderFacet.sol:FugaziOrderFacet",
        "label": "poolState",
        "offset": 0,
        "slot": "6",
        "type": "t_mapping(t_bytes32,t_struct(poolStateStruct)19568_storage)"
      },
      {
        "astId": 19758,
        "contract": "contracts/FugaziOrderFacet.sol:FugaziOrderFacet",
        "label": "activateNoiseOrder",
        "offset": 0,
        "slot": "7",
        "type": "t_bool"
      }
    ],
    "types": {
      "t_address": {
        "encoding": "inplace",
        "label": "address",
        "numberOfBytes": "20"
      },
      "t_array(t_struct(unclaimedOrderStruct)19755_storage)dyn_storage": {
        "base": "t_struct(unclaimedOrderStruct)19755_storage",
        "encoding": "dynamic_array",
        "label": "struct FugaziStorageLayout.unclaimedOrderStruct[]",
        "numberOfBytes": "32"
      },
      "t_bool": {
        "encoding": "inplace",
        "label": "bool",
        "numberOfBytes": "1"
      },
      "t_bytes32": {
        "encoding": "inplace",
        "label": "bytes32",
        "numberOfBytes": "32"
      },
      "t_bytes4": {
        "encoding": "inplace",
        "label": "bytes4",
        "numberOfBytes": "4"
      },
      "t_mapping(t_address,t_bytes32)": {
        "encoding": "mapping",
        "key": "t_address",
        "label": "mapping(address => bytes32)",
        "numberOfBytes": "32",
        "value": "t_bytes32"
      },
      "t_mapping(t_address,t_mapping(t_address,t_bytes32))": {
        "encoding": "mapping",
        "key": "t_address",
        "label": "mapping(address => mapping(address => bytes32))",
        "numberOfBytes": "32",
        "value": "t_mapping(t_address,t_bytes32)"
      },
      "t_mapping(t_address,t_struct(accountStruct)19432_storage)": {
        "encoding": "mapping",
        "key": "t_address",
        "label": "mapping(address => struct FugaziStorageLayout.accountStruct)",
        "numberOfBytes": "32",
        "value": "t_struct(accountStruct)19432_storage"
      },
      "t_mapping(t_address,t_struct(orderStruct)19750_storage)": {
        "encoding": "mapping",
        "key": "t_address",
        "label": "mapping(address => struct FugaziStorageLayout.orderStruct)",
        "numberOfBytes": "32",
        "value": "t_struct(orderStruct)19750_storage"
      },
      "t_mapping(t_bytes32,t_struct(poolStateStruct)19568_storage)": {
        "encoding": "mapping",
        "key": "t_bytes32",
        "label": "mapping(bytes32 => struct FugaziStorageLayout.poolStateStruct)",
        "numberOfBytes": "32",
        "value": "t_struct(poolStateStruct)19568_storage"
      },
      "t_mapping(t_bytes32,t_userDefinedValueType(euint32)12)": {
        "encoding": "mapping",
        "key": "t_bytes32",
        "label": "mapping(bytes32 => euint32)",
        "numberOfBytes": "32",
        "value": "t_userDefinedValueType(euint32)12"
      },
      "t_mapping(t_bytes4,t_address)": {
        "encoding": "mapping",
        "key": "t_bytes4",
        "label": "mapping(bytes4 => address)",
        "numberOfBytes": "32",
        "value": "t_address"
      },
      "t_mapping(t_uint32,t_struct(batchStruct)19735_storage)": {
        "encoding": "mapping",
        "key": "t_uint32",
        "label": "mapping(uint32 => struct FugaziStorageLayout.batchStruct)",
        "numberOfBytes": "32",
        "value": "t_struct(batchStruct)19735_storage"
      },
      "t_string_storage": {
        "encoding": "bytes",
        "label": "string",
        "numberOfBytes": "32"
      },
      "t_struct(accountStruct)19432_storage": {
        "encoding": "inplace",
        "label": "struct FugaziStorageLayout.accountStruct",
        "members": [
          {
            "astId": 19427,
            "contract": "contracts/FugaziOrderFacet.sol:FugaziOrderFacet",
            "label": "balanceOf",
            "offset": 0,
            "slot": "0",
            "type": "t_mapping(t_bytes32,t_userDefinedValueType(euint32)12)"
          },
          {
            "astId": 19431,
            "contract": "contracts/FugaziOrderFacet.sol:FugaziOrderFacet",
            "label": "unclaimedOrders",
            "offset": 0,
            "slot": "1",
            "type": "t_array(t_struct(unclaimedOrderStruct)19755_storage)dyn_storage"
          }
        ],
        "numberOfBytes": "64"
      },
      "t_struct(batchStruct)19735_storage": {
        "encoding": "inplace",
        "label": "struct FugaziStorageLayout.batchStruct",
        "members": [
          {
            "astId": 19689,
            "contract": "contracts/FugaziOrderFacet.sol:FugaziOrderFacet",
            "label": "order",
            "offset": 0,
            "slot": "0",
            "type": "t_mapping(t_address,t_struct(orderStruct)19750_storage)"
          },
          {
            "astId": 19692,
            "contract": "contracts/FugaziOrderFacet.sol:FugaziOrderFacet",
            "label": "reserveX0",
            "offset": 0,
            "slot": "1",
            "type": "t_userDefinedValueType(euint32)12"
          },
          {
            "astId": 19695,
            "contract": "contracts/FugaziOrderFacet.sol:FugaziOrderFacet",
            "label": "reserveY0",
            "offset": 0,
            "slot": "2",
            "type": "t_userDefinedValueType(euint32)12"
          },
          {
            "astId": 19698,
            "contract": "contracts/FugaziOrderFacet.sol:FugaziOrderFacet",
            "label": "swapX",
            "offset": 0,
            "slot": "3",
            "type": "t_userDefinedValueType(euint32)12"
          },
          {
            "astId": 19701,
            "contract": "contracts/FugaziOrderFacet.sol:FugaziOrderFacet",
            "label": "swapY",
            "offset": 0,
            "slot": "4",
            "type": "t_userDefinedValueType(euint32)12"
          },
          {
            "astId": 19704,
            "contract": "contracts/FugaziOrderFacet.sol:FugaziOrderFacet",
            "label": "mintX",
            "offset": 0,
            "slot": "5",
            "type": "t_userDefinedValueType(euint32)12"
          },
          {
            "astId": 19707,
            "contract": "contracts/FugaziOrderFacet.sol:FugaziOrderFacet",
            "label": "mintY",
            "offset": 0,
            "slot": "6",
            "type": "t_userDefinedValueType(euint32)12"
          },
          {
            "astId": 19710,
            "contract": "contracts/FugaziOrderFacet.sol:FugaziOrderFacet",
            "label": "feeX",
            "offset": 0,
            "slot": "7",
            "type": "t_userDefinedValueType(euint32)12"
          },
          {
            "astId": 19713,
            "contract": "contracts/FugaziOrderFacet.sol:FugaziOrderFacet",
            "label": "feeY",
            "offset": 0,
            "slot": "8",
            "type": "t_userDefinedValueType(euint32)12"
          },
          {
            "astId": 19716,
            "contract": "contracts/FugaziOrderFacet.sol:FugaziOrderFacet",
            "label": "XForPricing",
            "offset": 0,
            "slot": "9",
            "type": "t_userDefinedValueType(euint32)12"
          },
          {
            "astId": 19719,
            "contract": "contracts/FugaziOrderFacet.sol:FugaziOrderFacet",
            "label": "YForPricing",
            "offset": 0,
            "slot": "10",
            "type": "t_userDefinedValueType(euint32)12"
          },
          {
            "astId": 19722,
            "contract": "contracts/FugaziOrderFacet.sol:FugaziOrderFacet",
            "label": "reserveX1",
            "offset": 0,
            "slot": "11",
            "type": "t_userDefinedValueType(euint32)12"
          },
          {
            "astId": 19725,
            "contract": "contracts/FugaziOrderFacet.sol:FugaziOrderFacet",
            "label": "reserveY1",
            "offset": 0,
            "slot": "12",
            "type": "t_userDefinedValueType(euint32)12"
          },
          {
            "astId": 19728,
            "contract": "contracts/FugaziOrderFacet.sol:FugaziOrderFacet",
            "label": "outX",
            "offset": 0,
            "slot": "13",
            "type": "t_userDefinedValueType(euint32)12"
          },
          {
            "astId": 19731,
            "contract": "contracts/FugaziOrderFacet.sol:FugaziOrderFacet",
            "label": "outY",
            "offset": 0,
            "slot": "14",
            "type": "t_userDefinedValueType(euint32)12"
          },
          {
            "astId": 19734,
            "contract": "contracts/FugaziOrderFacet.sol:FugaziOrderFacet",
            "label": "lpIncrement",
            "offset": 0,
            "slot": "15",
            "type": "t_userDefinedValueType(euint32)12"
          }
        ],
        "numberOfBytes": "512"
      },
      "t_struct(orderStruct)19750_storage": {
        "encoding": "inplace",
        "label": "struct FugaziStorageLayout.orderStruct",
        "members": [
          {
            "astId": 19738,
            "contract": "contracts/FugaziOrderFacet.sol:FugaziOrderFacet",
            "label": "swapX",
            "offset": 0,
            "slot": "0",
            "type": "t_userDefinedValueType(euint32)12"
          },
          {
            "astId": 19741,
            "contract": "contracts/FugaziOrderFacet.sol:FugaziOrderFacet",
            "label": "swapY",
            "offset": 0,
            "slot": "1",
            "type": "t_userDefinedValueType(euint32)12"
          },
          {
            "astId": 19744,
            "contract": "contracts/FugaziOrderFacet.sol:FugaziOrderFacet",
            "label": "mintX",
            "offset": 0,
            "slot": "2",
            "type": "t_userDefinedValueType(euint32)12"
          },
          {
            "astId": 19747,
            "contract": "contracts/FugaziOrderFacet.sol:FugaziOrderFacet",
            "label": "mintY",
            "offset": 0,
            "slot": "3",
            "type": "t_userDefinedValueType(euint32)12"
          },
          {
            "astId": 19749,
            "contract": "contracts/FugaziOrderFacet.sol:FugaziOrderFacet",
            "label": "claimed",
            "offset": 0,
            "slot": "4",
            "type": "t_bool"
          }
        ],
        "numberOfBytes": "160"
      },
      "t_struct(poolStateStruct)19568_storage": {
        "encoding": "inplace",
        "label": "struct FugaziStorageLayout.poolStateStruct",
        "members": [
          {
            "astId": 19539,
            "contract": "contracts/FugaziOrderFacet.sol:FugaziOrderFacet",
            "label": "tokenX",
            "offset": 0,
            "slot": "0",
            "type": "t_address"
          },
          {
            "astId": 19541,
            "contract": "contracts/FugaziOrderFacet.sol:FugaziOrderFacet",
            "label": "tokenY",
            "offset": 0,
            "slot": "1",
            "type": "t_address"
          },
          {
            "astId": 19543,
            "contract": "contracts/FugaziOrderFacet.sol:FugaziOrderFacet",
            "label": "epoch",
            "offset": 20,
            "slot": "1",
            "type": "t_uint32"
          },
          {
            "astId": 19545,
            "contract": "contracts/FugaziOrderFacet.sol:FugaziOrderFacet",
            "label": "lastSettlement",
            "offset": 24,
            "slot": "1",
            "type": "t_uint32"
          },
          {
            "astId": 19547,
            "contract": "contracts/FugaziOrderFacet.sol:FugaziOrderFacet",
            "label": "lastHarvest",
            "offset": 28,
            "slot": "1",
            "type": "t_uint32"
          },
          {
            "astId": 19550,
            "contract": "contracts/FugaziOrderFacet.sol:FugaziOrderFacet",
            "label": "protocolX",
            "offset": 0,
            "slot": "2",
            "type": "t_userDefinedValueType(euint32)12"
          },
          {
            "astId": 19553,
            "contract": "contracts/FugaziOrderFacet.sol:FugaziOrderFacet",
            "label": "protocolY",
            "offset": 0,
            "slot": "3",
            "type": "t_userDefinedValueType(euint32)12"
          },
          {
            "astId": 19556,
            "contract": "contracts/FugaziOrderFacet.sol:FugaziOrderFacet",
            "label": "reserveX",
            "offset": 0,
            "slot": "4",
            "type": "t_userDefinedValueType(euint32)12"
          },
          {
            "astId": 19559,
            "contract": "contracts/FugaziOrderFacet.sol:FugaziOrderFacet",
            "label": "reserveY",
            "offset": 0,
            "slot": "5",
            "type": "t_userDefinedValueType(euint32)12"
          },
          {
            "astId": 19562,
            "contract": "contracts/FugaziOrderFacet.sol:FugaziOrderFacet",
            "label": "lpTotalSupply",
            "offset": 0,
            "slot": "6",
            "type": "t_userDefinedValueType(euint32)12"
          },
          {
            "astId": 19567,
            "contract": "contracts/FugaziOrderFacet.sol:FugaziOrderFacet",
            "label": "batch",
            "offset": 0,
            "slot": "7",
            "type": "t_mapping(t_uint32,t_struct(batchStruct)19735_storage)"
          }
        ],
        "numberOfBytes": "256"
      },
      "t_struct(unclaimedOrderStruct)19755_storage": {
        "encoding": "inplace",
        "label": "struct FugaziStorageLayout.unclaimedOrderStruct",
        "members": [
          {
            "astId": 19752,
            "contract": "contracts/FugaziOrderFacet.sol:FugaziOrderFacet",
            "label": "poolId",
            "offset": 0,
            "slot": "0",
            "type": "t_bytes32"
          },
          {
            "astId": 19754,
            "contract": "contracts/FugaziOrderFacet.sol:FugaziOrderFacet",
            "label": "epoch",
            "offset": 0,
            "slot": "1",
            "type": "t_uint32"
          }
        ],
        "numberOfBytes": "64"
      },
      "t_uint32": {
        "encoding": "inplace",
        "label": "uint32",
        "numberOfBytes": "4"
      },
      "t_userDefinedValueType(euint32)12": {
        "encoding": "inplace",
        "label": "euint32",
        "numberOfBytes": "32"
      }
    }
  }
}