{
  "address": "0xEeC3c005FF707ee5d40bEd85e646Edd3Dbc6977D",
  "abi": [
    {
      "inputs": [],
      "name": "BatchIsInSettlement",
      "type": "error"
    },
    {
      "inputs": [],
      "name": "EpochNotEnded",
      "type": "error"
    },
    {
      "inputs": [],
      "name": "InvalidShortString",
      "type": "error"
    },
    {
      "inputs": [],
      "name": "InvalidTokenOrder",
      "type": "error"
    },
    {
      "inputs": [],
      "name": "NotValidSettlementStep",
      "type": "error"
    },
    {
      "inputs": [],
      "name": "OrderAlreadyClaimed",
      "type": "error"
    },
    {
      "inputs": [],
      "name": "PoolAlreadyExists",
      "type": "error"
    },
    {
      "inputs": [],
      "name": "PoolNotFound",
      "type": "error"
    },
    {
      "inputs": [],
      "name": "SignerNotMessageSender",
      "type": "error"
    },
    {
      "inputs": [],
      "name": "SignerNotOwner",
      "type": "error"
    },
    {
      "inputs": [
        {
          "internalType": "string",
          "name": "str",
          "type": "string"
        }
      ],
      "name": "StringTooLong",
      "type": "error"
    },
    {
      "inputs": [],
      "name": "TooEarlyHarvest",
      "type": "error"
    },
    {
      "inputs": [],
      "name": "noCorrespondingFacet",
      "type": "error"
    },
    {
      "inputs": [],
      "name": "notOwner",
      "type": "error"
    },
    {
      "anonymous": false,
      "inputs": [
        {
          "indexed": false,
          "internalType": "address",
          "name": "recipient",
          "type": "address"
        },
        {
          "indexed": false,
          "internalType": "address",
          "name": "token",
          "type": "address"
        }
      ],
      "name": "Deposit",
      "type": "event"
    },
    {
      "anonymous": false,
      "inputs": [],
      "name": "EIP712DomainChanged",
      "type": "event"
    },
    {
      "anonymous": false,
      "inputs": [
        {
          "indexed": false,
          "internalType": "address",
          "name": "tokenX",
          "type": "address"
        },
        {
          "indexed": false,
          "internalType": "address",
          "name": "tokenY",
          "type": "address"
        },
        {
          "indexed": false,
          "internalType": "bytes32",
          "name": "poolId",
          "type": "bytes32"
        }
      ],
      "name": "PoolCreated",
      "type": "event"
    },
    {
      "anonymous": false,
      "inputs": [
        {
          "indexed": false,
          "internalType": "address",
          "name": "recipient",
          "type": "address"
        },
        {
          "indexed": false,
          "internalType": "address",
          "name": "token",
          "type": "address"
        }
      ],
      "name": "Withdraw",
      "type": "event"
    },
    {
      "anonymous": false,
      "inputs": [
        {
          "indexed": false,
          "internalType": "bytes32",
          "name": "poolId",
          "type": "bytes32"
        },
        {
          "indexed": false,
          "internalType": "uint32",
          "name": "epoch",
          "type": "uint32"
        }
      ],
      "name": "batchSettled",
      "type": "event"
    },
    {
      "anonymous": false,
      "inputs": [
        {
          "indexed": false,
          "internalType": "bytes4",
          "name": "selector",
          "type": "bytes4"
        },
        {
          "indexed": false,
          "internalType": "address",
          "name": "facet",
          "type": "address"
        }
      ],
      "name": "facetAdded",
      "type": "event"
    },
    {
      "anonymous": false,
      "inputs": [
        {
          "indexed": false,
          "internalType": "bytes32",
          "name": "poolId",
          "type": "bytes32"
        },
        {
          "indexed": false,
          "internalType": "uint32",
          "name": "epoch",
          "type": "uint32"
        },
        {
          "indexed": false,
          "internalType": "address",
          "name": "claimer",
          "type": "address"
        }
      ],
      "name": "orderClaimed",
      "type": "event"
    },
    {
      "anonymous": false,
      "inputs": [
        {
          "indexed": false,
          "internalType": "bytes32",
          "name": "poolId",
          "type": "bytes32"
        },
        {
          "indexed": false,
          "internalType": "uint32",
          "name": "epoch",
          "type": "uint32"
        }
      ],
      "name": "orderSubmitted",
      "type": "event"
    },
    {
      "inputs": [
        {
          "internalType": "address",
          "name": "recipient",
          "type": "address"
        },
        {
          "internalType": "address",
          "name": "token",
          "type": "address"
        },
        {
          "components": [
            {
              "internalType": "bytes",
              "name": "data",
              "type": "bytes"
            }
          ],
          "internalType": "struct inEuint32",
          "name": "_amount",
          "type": "tuple"
        }
      ],
      "name": "deposit",
      "outputs": [],
      "stateMutability": "nonpayable",
      "type": "function"
    },
    {
      "inputs": [
        {
          "internalType": "bytes32",
          "name": "poolId",
          "type": "bytes32"
        },
        {
          "components": [
            {
              "internalType": "bytes",
              "name": "data",
              "type": "bytes"
            }
          ],
          "internalType": "struct inEuint32",
          "name": "_amount",
          "type": "tuple"
        }
      ],
      "name": "donateToProtocol",
      "outputs": [],
      "stateMutability": "nonpayable",
      "type": "function"
    },
    {
      "inputs": [],
      "name": "eip712Domain",
      "outputs": [
        {
          "internalType": "bytes1",
          "name": "fields",
          "type": "bytes1"
        },
        {
          "internalType": "string",
          "name": "name",
          "type": "string"
        },
        {
          "internalType": "string",
          "name": "version",
          "type": "string"
        },
        {
          "internalType": "uint256",
          "name": "chainId",
          "type": "uint256"
        },
        {
          "internalType": "address",
          "name": "verifyingContract",
          "type": "address"
        },
        {
          "internalType": "bytes32",
          "name": "salt",
          "type": "bytes32"
        },
        {
          "internalType": "uint256[]",
          "name": "extensions",
          "type": "uint256[]"
        }
      ],
      "stateMutability": "view",
      "type": "function"
    },
    {
      "inputs": [
        {
          "internalType": "bytes32",
          "name": "poolId",
          "type": "bytes32"
        }
      ],
      "name": "harvest",
      "outputs": [],
      "stateMutability": "nonpayable",
      "type": "function"
    },
    {
      "inputs": [
        {
          "internalType": "address",
          "name": "recipient",
          "type": "address"
        },
        {
          "internalType": "address",
          "name": "token",
          "type": "address"
        },
        {
          "components": [
            {
              "internalType": "bytes",
              "name": "data",
              "type": "bytes"
            }
          ],
          "internalType": "struct inEuint32",
          "name": "_amount",
          "type": "tuple"
        }
      ],
      "name": "withdraw",
      "outputs": [],
      "stateMutability": "nonpayable",
      "type": "function"
    }
  ],
  "transactionHash": "0xd91508d4674f1f336bc4a71a715fcadef6f5c3bc3f5d8ac8b6f2ec5b918100e1",
  "args": [],
  "numDeployments": 1,
  "solcInputHash": "417061d13dce79c45474aa2c83b16320",
  "bytecode": "0x6101606040523480156200001257600080fd5b506040518060400160405280601181526020017f4668656e6978205065726d697373696f6e0000000000000000000000000000008152506040518060400160405280600381526020017f312e300000000000000000000000000000000000000000000000000000000000815250620000956000836200013560201b90919060201c565b6101208181525050620000b36001826200013560201b90919060201c565b6101408181525050818051906020012060e08181525050808051906020012061010081815250504660a08181525050620000f26200018d60201b60201c565b608081815250503073ffffffffffffffffffffffffffffffffffffffff1660c08173ffffffffffffffffffffffffffffffffffffffff16815250505050620007e5565b60006020835110156200015b576200015383620001ea60201b60201c565b905062000187565b826200016d836200025760201b60201c565b60000190816200017e9190620004db565b5060ff60001b90505b92915050565b60007f8b73c3c69bb8fe3d512ecc4cf759cc79239f7b179b0ffacaa9a75d522b39400f60e051610100514630604051602001620001cf95949392919062000633565b60405160208183030381529060405280519060200120905090565b600080829050601f815111156200023a57826040517f305a27a90000000000000000000000000000000000000000000000000000000081526004016200023191906200071f565b60405180910390fd5b805181620002489062000775565b60001c1760001b915050919050565b6000819050919050565b600081519050919050565b7f4e487b7100000000000000000000000000000000000000000000000000000000600052604160045260246000fd5b7f4e487b7100000000000000000000000000000000000000000000000000000000600052602260045260246000fd5b60006002820490506001821680620002e357607f821691505b602082108103620002f957620002f86200029b565b5b50919050565b60008190508160005260206000209050919050565b60006020601f8301049050919050565b600082821b905092915050565b600060088302620003637fffffffffffffffffffffffffffffffffffffffffffffffffffffffffffffffff8262000324565b6200036f868362000324565b95508019841693508086168417925050509392505050565b6000819050919050565b6000819050919050565b6000620003bc620003b6620003b08462000387565b62000391565b62000387565b9050919050565b6000819050919050565b620003d8836200039b565b620003f0620003e782620003c3565b84845462000331565b825550505050565b600090565b62000407620003f8565b62000414818484620003cd565b505050565b5b818110156200043c5762000430600082620003fd565b6001810190506200041a565b5050565b601f8211156200048b576200045581620002ff565b620004608462000314565b8101602085101562000470578190505b620004886200047f8562000314565b83018262000419565b50505b505050565b600082821c905092915050565b6000620004b06000198460080262000490565b1980831691505092915050565b6000620004cb83836200049d565b9150826002028217905092915050565b620004e68262000261565b67ffffffffffffffff8111156200050257620005016200026c565b5b6200050e8254620002ca565b6200051b82828562000440565b600060209050601f8311600181146200055357600084156200053e578287015190505b6200054a8582620004bd565b865550620005ba565b601f1984166200056386620002ff565b60005b828110156200058d5784890151825560018201915060208501945060208101905062000566565b86831015620005ad5784890151620005a9601f8916826200049d565b8355505b6001600288020188555050505b505050505050565b6000819050919050565b620005d781620005c2565b82525050565b620005e88162000387565b82525050565b600073ffffffffffffffffffffffffffffffffffffffff82169050919050565b60006200061b82620005ee565b9050919050565b6200062d816200060e565b82525050565b600060a0820190506200064a6000830188620005cc565b620006596020830187620005cc565b620006686040830186620005cc565b620006776060830185620005dd565b62000686608083018462000622565b9695505050505050565b600082825260208201905092915050565b60005b83811015620006c1578082015181840152602081019050620006a4565b60008484015250505050565b6000601f19601f8301169050919050565b6000620006eb8262000261565b620006f7818562000690565b935062000709818560208601620006a1565b6200071481620006cd565b840191505092915050565b600060208201905081810360008301526200073b8184620006de565b905092915050565b600081519050919050565b6000819050602082019050919050565b60006200076c8251620005c2565b80915050919050565b6000620007828262000743565b826200078e846200074e565b90506200079b816200075e565b92506020821015620007de57620007d97fffffffffffffffffffffffffffffffffffffffffffffffffffffffffffffffff8360200360080262000324565b831692505b5050919050565b60805160a05160c05160e051610100516101205161014051611f61620008316000396000610fca01526000610f8f01526000505060005050600050506000505060005050611f616000f3fe608060405234801561001057600080fd5b50600436106100575760003560e01c8063441cc9441461005c5780634960b29d1461007857806384b0196e14610094578063a6462d0a146100b8578063e94af36e146100d4575b600080fd5b61007660048036038101906100719190611539565b6100f0565b005b610092600480360381019061008d9190611595565b61055b565b005b61009c610979565b6040516100af97969594939291906117b4565b60405180910390f35b6100d260048036038101906100cd9190611864565b610a23565b005b6100ee60048036038101906100e99190611864565b610baa565b005b81600073ffffffffffffffffffffffffffffffffffffffff166006600083815260200190815260200160002060000160009054906101000a900473ffffffffffffffffffffffffffffffffffffffff1673ffffffffffffffffffffffffffffffffffffffff160361018d576040517f76ecffc000000000000000000000000000000000000000000000000000000000815260040160405180910390fd5b600060066000858152602001908152602001600020905060006101b8846101b390611a6a565b610da9565b9050600061026c600460003373ffffffffffffffffffffffffffffffffffffffff1673ffffffffffffffffffffffffffffffffffffffff16815260200190815260200160002060000160006102308660000160009054906101000a900473ffffffffffffffffffffffffffffffffffffffff16610dbf565b81526020019081526020016000205461026761025885610253633fff8000610ddf565b610df3565b610262600f610ddf565b610e6c565b610ee5565b9050600061030c600460003373ffffffffffffffffffffffffffffffffffffffff1673ffffffffffffffffffffffffffffffffffffffff16815260200190815260200160002060000160006102e48760010160009054906101000a900473ffffffffffffffffffffffffffffffffffffffff16610dbf565b81526020019081526020016000205461030785610302617fff610ddf565b610df3565b610ee5565b9050610397600460003373ffffffffffffffffffffffffffffffffffffffff1673ffffffffffffffffffffffffffffffffffffffff16815260200190815260200160002060000160006103828760000160009054906101000a900473ffffffffffffffffffffffffffffffffffffffff16610dbf565b81526020019081526020016000205483610f5e565b600460003373ffffffffffffffffffffffffffffffffffffffff1673ffffffffffffffffffffffffffffffffffffffff16815260200190815260200160002060000160006104088760000160009054906101000a900473ffffffffffffffffffffffffffffffffffffffff16610dbf565b8152602001908152602001600020819055506104a3600460003373ffffffffffffffffffffffffffffffffffffffff1673ffffffffffffffffffffffffffffffffffffffff168152602001908152602001600020600001600061048e8760010160009054906101000a900473ffffffffffffffffffffffffffffffffffffffff16610dbf565b81526020019081526020016000205482610f5e565b600460003373ffffffffffffffffffffffffffffffffffffffff1673ffffffffffffffffffffffffffffffffffffffff16815260200190815260200160002060000160006105148760010160009054906101000a900473ffffffffffffffffffffffffffffffffffffffff16610dbf565b815260200190815260200160002081905550610534846002015483610f72565b846002018190555061054a846003015482610f72565b846003018190555050505050505050565b600260009054906101000a900473ffffffffffffffffffffffffffffffffffffffff1673ffffffffffffffffffffffffffffffffffffffff163373ffffffffffffffffffffffffffffffffffffffff16146105e2576040517f251c9d6300000000000000000000000000000000000000000000000000000000815260040160405180910390fd5b80600073ffffffffffffffffffffffffffffffffffffffff166006600083815260200190815260200160002060000160009054906101000a900473ffffffffffffffffffffffffffffffffffffffff1673ffffffffffffffffffffffffffffffffffffffff160361067f576040517f76ecffc000000000000000000000000000000000000000000000000000000000815260040160405180910390fd5b600060066000848152602001908152602001600020905062093a8081600101601c9054906101000a900463ffffffff166106b99190611abc565b63ffffffff164210156106f8576040517f1e358d1f00000000000000000000000000000000000000000000000000000000815260040160405180910390fd5b6000610711826002015461070c6004610ddf565b610e6c565b9050600061072c83600301546107276004610ddf565b610e6c565b905061073c836002015483610f5e565b8360020181905550610752836003015482610f5e565b83600301819055506107e3600460003373ffffffffffffffffffffffffffffffffffffffff1673ffffffffffffffffffffffffffffffffffffffff16815260200190815260200160002060000160006107ce8660000160009054906101000a900473ffffffffffffffffffffffffffffffffffffffff16610dbf565b81526020019081526020016000205483610f72565b600460003373ffffffffffffffffffffffffffffffffffffffff1673ffffffffffffffffffffffffffffffffffffffff16815260200190815260200160002060000160006108548660000160009054906101000a900473ffffffffffffffffffffffffffffffffffffffff16610dbf565b8152602001908152602001600020819055506108ef600460003373ffffffffffffffffffffffffffffffffffffffff1673ffffffffffffffffffffffffffffffffffffffff16815260200190815260200160002060000160006108da8660010160009054906101000a900473ffffffffffffffffffffffffffffffffffffffff16610dbf565b81526020019081526020016000205482610f72565b600460003373ffffffffffffffffffffffffffffffffffffffff1673ffffffffffffffffffffffffffffffffffffffff16815260200190815260200160002060000160006109608660010160009054906101000a900473ffffffffffffffffffffffffffffffffffffffff16610dbf565b8152602001908152602001600020819055505050505050565b60006060806000806000606061098d610f86565b610995610fc1565b46306000801b600067ffffffffffffffff8111156109b6576109b56118d8565b5b6040519080825280602002602001820160405280156109e45781602001602082028036833780820191505090505b507f0f00000000000000000000000000000000000000000000000000000000000000959493929190965096509650965096509650965090919293949596565b60008273ffffffffffffffffffffffffffffffffffffffff16638624a3493330856040518463ffffffff1660e01b8152600401610a6293929190611bd8565b6020604051808303816000875af1158015610a81573d6000803e3d6000fd5b505050506040513d601f19601f82011682018060405250810190610aa59190611c42565b9050610b0c600460003373ffffffffffffffffffffffffffffffffffffffff1673ffffffffffffffffffffffffffffffffffffffff1681526020019081526020016000206000016000610af786610dbf565b81526020019081526020016000205482610f72565b600460003373ffffffffffffffffffffffffffffffffffffffff1673ffffffffffffffffffffffffffffffffffffffff1681526020019081526020016000206000016000610b5986610dbf565b8152602001908152602001600020819055507f1944debb24a9aafcf2708be964e412cdb73fc36d6ea24577fd8dcc05b93b4a448484604051610b9c929190611c6f565b60405180910390a150505050565b6000610bbe82610bb990611a6a565b610da9565b9050610c2581600460003373ffffffffffffffffffffffffffffffffffffffff1673ffffffffffffffffffffffffffffffffffffffff1681526020019081526020016000206000016000610c1187610dbf565b815260200190815260200160002054610ee5565b9050610c8c600460003373ffffffffffffffffffffffffffffffffffffffff1673ffffffffffffffffffffffffffffffffffffffff1681526020019081526020016000206000016000610c7786610dbf565b81526020019081526020016000205482610f5e565b600460003373ffffffffffffffffffffffffffffffffffffffff1673ffffffffffffffffffffffffffffffffffffffff1681526020019081526020016000206000016000610cd986610dbf565b8152602001908152602001600020819055508273ffffffffffffffffffffffffffffffffffffffff1663c4224c1985836040518363ffffffff1660e01b8152600401610d26929190611cd3565b6020604051808303816000875af1158015610d45573d6000803e3d6000fd5b505050506040513d601f19601f82011682018060405250810190610d699190611c42565b507f34d58c18c6c1df2c698ccac556acea92941ca7b99d2fccf9e3ac1852d0dec36f8484604051610d9b929190611c6f565b60405180910390a150505050565b6000610db88260000151610ffc565b9050919050565b600060608260601b6bffffffffffffffffffffffff1916901c9050919050565b6000610dec826002611010565b9050919050565b6000610dfe836110b2565b610e0f57610e0c6000610ddf565b92505b610e18826110b2565b610e2957610e266000610ddf565b91505b600083905060008390506000610e5e60028484608073ffffffffffffffffffffffffffffffffffffffff1663ae104cfd6110bf565b905080935050505092915050565b6000610e77836110b2565b610e8857610e856000610ddf565b92505b610e91826110b2565b610ea257610e9f6000610ddf565b91505b600083905060008390506000610ed760028484608073ffffffffffffffffffffffffffffffffffffffff16639944d12d6110bf565b905080935050505092915050565b6000610ef0836110b2565b610f0157610efe6000610ddf565b92505b610f0a826110b2565b610f1b57610f186000610ddf565b91505b600083905060008390506000610f5060028484608073ffffffffffffffffffffffffffffffffffffffff16635211c6796110bf565b905080935050505092915050565b6000610f6a8383611153565b905092915050565b6000610f7e83836111cc565b905092915050565b6060610fbc60007f000000000000000000000000000000000000000000000000000000000000000061124490919063ffffffff16565b905090565b6060610ff760017f000000000000000000000000000000000000000000000000000000000000000061124490919063ffffffff16565b905090565b60006110098260026112f4565b9050919050565b60006060608073ffffffffffffffffffffffffffffffffffffffff166319e1c5c461103a8661138e565b856040518363ffffffff1660e01b8152600401611058929190611d6d565b600060405180830381865afa158015611075573d6000803e3d6000fd5b505050506040513d6000823e3d601f19601f8201168201806040525081019061109e9190611e0d565b90506110a9816113eb565b91505092915050565b6000808214159050919050565b600060608383886110cf8961138e565b6110d88961138e565b6040518463ffffffff1660e01b81526004016110f693929190611e56565b600060405180830381865afa158015611113573d6000803e3d6000fd5b505050506040513d6000823e3d601f19601f8201168201806040525081019061113c9190611e0d565b9050611147816113f9565b91505095945050505050565b600061115e836110b2565b61116f5761116c6000610ddf565b92505b611178826110b2565b611189576111866000610ddf565b91505b6000839050600083905060006111be60028484608073ffffffffffffffffffffffffffffffffffffffff1663cc2cbeff6110bf565b905080935050505092915050565b60006111d7836110b2565b6111e8576111e56000610ddf565b92505b6111f1826110b2565b611202576111ff6000610ddf565b91505b60008390506000839050600061123660028484608073ffffffffffffffffffffffffffffffffffffffff16622df6196110bf565b905080935050505092915050565b606060ff60001b83146112615761125a83611407565b90506112ee565b81805461126d90611eca565b80601f016020809104026020016040519081016040528092919081815260200182805461129990611eca565b80156112e65780601f106112bb576101008083540402835291602001916112e6565b820191906000526020600020905b8154815290600101906020018083116112c957829003601f168201915b505050505090505b92915050565b60006060608073ffffffffffffffffffffffffffffffffffffffff16635fa55ca784866040518363ffffffff1660e01b8152600401611334929190611efb565b600060405180830381865afa158015611351573d6000803e3d6000fd5b505050506040513d6000823e3d601f19601f8201168201806040525081019061137a9190611e0d565b9050611385816113eb565b91505092915050565b6060602067ffffffffffffffff8111156113ab576113aa6118d8565b5b6040519080825280601f01601f1916602001820160405280156113dd5781602001600182028036833780820191505090505b509050816020820152919050565b600060208201519050919050565b600060208201519050919050565b606060006114148361147b565b90506000602067ffffffffffffffff811115611433576114326118d8565b5b6040519080825280601f01601f1916602001820160405280156114655781602001600182028036833780820191505090505b5090508181528360208201528092505050919050565b60008060ff8360001c169050601f8111156114c2576040517fb3512b0c00000000000000000000000000000000000000000000000000000000815260040160405180910390fd5b80915050919050565b6000604051905090565b600080fd5b600080fd5b6000819050919050565b6114f2816114df565b81146114fd57600080fd5b50565b60008135905061150f816114e9565b92915050565b600080fd5b6000602082840312156115305761152f611515565b5b81905092915050565b600080604083850312156115505761154f6114d5565b5b600061155e85828601611500565b925050602083013567ffffffffffffffff81111561157f5761157e6114da565b5b61158b8582860161151a565b9150509250929050565b6000602082840312156115ab576115aa6114d5565b5b60006115b984828501611500565b91505092915050565b60007fff0000000000000000000000000000000000000000000000000000000000000082169050919050565b6115f7816115c2565b82525050565b600081519050919050565b600082825260208201905092915050565b60005b8381101561163757808201518184015260208101905061161c565b60008484015250505050565b6000601f19601f8301169050919050565b600061165f826115fd565b6116698185611608565b9350611679818560208601611619565b61168281611643565b840191505092915050565b6000819050919050565b6116a08161168d565b82525050565b600073ffffffffffffffffffffffffffffffffffffffff82169050919050565b60006116d1826116a6565b9050919050565b6116e1816116c6565b82525050565b6116f0816114df565b82525050565b600081519050919050565b600082825260208201905092915050565b6000819050602082019050919050565b61172b8161168d565b82525050565b600061173d8383611722565b60208301905092915050565b6000602082019050919050565b6000611761826116f6565b61176b8185611701565b935061177683611712565b8060005b838110156117a757815161178e8882611731565b975061179983611749565b92505060018101905061177a565b5085935050505092915050565b600060e0820190506117c9600083018a6115ee565b81810360208301526117db8189611654565b905081810360408301526117ef8188611654565b90506117fe6060830187611697565b61180b60808301866116d8565b61181860a08301856116e7565b81810360c083015261182a8184611756565b905098975050505050505050565b611841816116c6565b811461184c57600080fd5b50565b60008135905061185e81611838565b92915050565b60008060006060848603121561187d5761187c6114d5565b5b600061188b8682870161184f565b935050602061189c8682870161184f565b925050604084013567ffffffffffffffff8111156118bd576118bc6114da565b5b6118c98682870161151a565b9150509250925092565b600080fd5b7f4e487b7100000000000000000000000000000000000000000000000000000000600052604160045260246000fd5b61191082611643565b810181811067ffffffffffffffff8211171561192f5761192e6118d8565b5b80604052505050565b60006119426114cb565b905061194e8282611907565b919050565b600080fd5b600080fd5b600080fd5b600067ffffffffffffffff82111561197d5761197c6118d8565b5b61198682611643565b9050602081019050919050565b82818337600083830152505050565b60006119b56119b084611962565b611938565b9050828152602081018484840111156119d1576119d061195d565b5b6119dc848285611993565b509392505050565b600082601f8301126119f9576119f8611958565b5b8135611a098482602086016119a2565b91505092915050565b600060208284031215611a2857611a276118d3565b5b611a326020611938565b9050600082013567ffffffffffffffff811115611a5257611a51611953565b5b611a5e848285016119e4565b60008301525092915050565b6000611a763683611a12565b9050919050565b600063ffffffff82169050919050565b7f4e487b7100000000000000000000000000000000000000000000000000000000600052601160045260246000fd5b6000611ac782611a7d565b9150611ad283611a7d565b9250828201905063ffffffff811115611aee57611aed611a8d565b5b92915050565b600080fd5b600080fd5b600080fd5b60008083356001602003843603038112611b2057611b1f611afe565b5b83810192508235915060208301925067ffffffffffffffff821115611b4857611b47611af4565b5b600182023603831315611b5e57611b5d611af9565b5b509250929050565b600082825260208201905092915050565b6000611b838385611b66565b9350611b90838584611993565b611b9983611643565b840190509392505050565b600060208301611bb76000840184611b03565b8583036000870152611bca838284611b77565b925050508091505092915050565b6000606082019050611bed60008301866116d8565b611bfa60208301856116d8565b8181036040830152611c0c8184611ba4565b9050949350505050565b611c1f8161168d565b8114611c2a57600080fd5b50565b600081519050611c3c81611c16565b92915050565b600060208284031215611c5857611c576114d5565b5b6000611c6684828501611c2d565b91505092915050565b6000604082019050611c8460008301856116d8565b611c9160208301846116d8565b9392505050565b6000819050919050565b6000611cbd611cb8611cb38461168d565b611c98565b61168d565b9050919050565b611ccd81611ca2565b82525050565b6000604082019050611ce860008301856116d8565b611cf56020830184611cc4565b9392505050565b600081519050919050565b600082825260208201905092915050565b6000611d2382611cfc565b611d2d8185611d07565b9350611d3d818560208601611619565b611d4681611643565b840191505092915050565b600060ff82169050919050565b611d6781611d51565b82525050565b60006040820190508181036000830152611d878185611d18565b9050611d966020830184611d5e565b9392505050565b6000611db0611dab84611962565b611938565b905082815260208101848484011115611dcc57611dcb61195d565b5b611dd7848285611619565b509392505050565b600082601f830112611df457611df3611958565b5b8151611e04848260208601611d9d565b91505092915050565b600060208284031215611e2357611e226114d5565b5b600082015167ffffffffffffffff811115611e4157611e406114da565b5b611e4d84828501611ddf565b91505092915050565b6000606082019050611e6b6000830186611d5e565b8181036020830152611e7d8185611d18565b90508181036040830152611e918184611d18565b9050949350505050565b7f4e487b7100000000000000000000000000000000000000000000000000000000600052602260045260246000fd5b60006002820490506001821680611ee257607f821691505b602082108103611ef557611ef4611e9b565b5b50919050565b6000604082019050611f106000830185611d5e565b8181036020830152611f228184611d18565b9050939250505056fea2646970667358221220ee6e275e171d34e230a50b8a102bb9a677b918c15cf28098c10fa61f53a5b97664736f6c63430008180033",
  "devdoc": {
    "events": {
      "EIP712DomainChanged()": {
        "details": "MAY be emitted to signal that the domain could have changed."
      }
    },
    "kind": "dev",
    "methods": {
      "eip712Domain()": {
        "details": "See {IERC-5267}."
      }
    },
    "version": 1
  },
  "userdoc": {
    "errors": {
      "SignerNotMessageSender()": [
        {
          "notice": "Emitted when the signer is not the message sender"
        }
      ],
      "SignerNotOwner()": [
        {
          "notice": "Emitted when the signer is not the specified owner"
        }
      ]
    },
    "kind": "user",
    "methods": {},
    "notice": "This contract will handle deposit and withdrawal of user fund. Currently supports old version of FHERC20 only, since our AMM cannot handle big numbers (supports up to euint32 currently)",
    "version": 1
  },
  "storageLayout": {
    "storage": [
      {
        "astId": 16568,
        "contract": "contracts/FugaziBalanceFacet.sol:FugaziBalanceFacet",
        "label": "_nameFallback",
        "offset": 0,
        "slot": "0",
        "type": "t_string_storage"
      },
      {
        "astId": 16570,
        "contract": "contracts/FugaziBalanceFacet.sol:FugaziBalanceFacet",
        "label": "_versionFallback",
        "offset": 0,
        "slot": "1",
        "type": "t_string_storage"
      },
      {
        "astId": 18441,
        "contract": "contracts/FugaziBalanceFacet.sol:FugaziBalanceFacet",
        "label": "owner",
        "offset": 0,
        "slot": "2",
        "type": "t_address"
      },
      {
        "astId": 18445,
        "contract": "contracts/FugaziBalanceFacet.sol:FugaziBalanceFacet",
        "label": "selectorTofacet",
        "offset": 0,
        "slot": "3",
        "type": "t_mapping(t_bytes4,t_address)"
      },
      {
        "astId": 18472,
        "contract": "contracts/FugaziBalanceFacet.sol:FugaziBalanceFacet",
        "label": "account",
        "offset": 0,
        "slot": "4",
        "type": "t_mapping(t_address,t_struct(accountStruct)18467_storage)"
      },
      {
        "astId": 18555,
        "contract": "contracts/FugaziBalanceFacet.sol:FugaziBalanceFacet",
        "label": "poolIdMapping",
        "offset": 0,
        "slot": "5",
        "type": "t_mapping(t_address,t_mapping(t_address,t_bytes32))"
      },
      {
        "astId": 18560,
        "contract": "contracts/FugaziBalanceFacet.sol:FugaziBalanceFacet",
        "label": "poolState",
        "offset": 0,
        "slot": "6",
        "type": "t_mapping(t_bytes32,t_struct(poolStateStruct)18549_storage)"
      }
    ],
    "types": {
      "t_address": {
        "encoding": "inplace",
        "label": "address",
        "numberOfBytes": "20"
      },
      "t_array(t_struct(unclaimedOrderStruct)18730_storage)dyn_storage": {
        "base": "t_struct(unclaimedOrderStruct)18730_storage",
        "encoding": "dynamic_array",
        "label": "struct FugaziStorageLayout.unclaimedOrderStruct[]",
        "numberOfBytes": "32"
      },
      "t_bool": {
        "encoding": "inplace",
        "label": "bool",
        "numberOfBytes": "1"
      },
      "t_bytes32": {
        "encoding": "inplace",
        "label": "bytes32",
        "numberOfBytes": "32"
      },
      "t_bytes4": {
        "encoding": "inplace",
        "label": "bytes4",
        "numberOfBytes": "4"
      },
      "t_mapping(t_address,t_bytes32)": {
        "encoding": "mapping",
        "key": "t_address",
        "label": "mapping(address => bytes32)",
        "numberOfBytes": "32",
        "value": "t_bytes32"
      },
      "t_mapping(t_address,t_mapping(t_address,t_bytes32))": {
        "encoding": "mapping",
        "key": "t_address",
        "label": "mapping(address => mapping(address => bytes32))",
        "numberOfBytes": "32",
        "value": "t_mapping(t_address,t_bytes32)"
      },
      "t_mapping(t_address,t_struct(accountStruct)18467_storage)": {
        "encoding": "mapping",
        "key": "t_address",
        "label": "mapping(address => struct FugaziStorageLayout.accountStruct)",
        "numberOfBytes": "32",
        "value": "t_struct(accountStruct)18467_storage"
      },
      "t_mapping(t_address,t_struct(orderStruct)18725_storage)": {
        "encoding": "mapping",
        "key": "t_address",
        "label": "mapping(address => struct FugaziStorageLayout.orderStruct)",
        "numberOfBytes": "32",
        "value": "t_struct(orderStruct)18725_storage"
      },
      "t_mapping(t_bytes32,t_struct(poolStateStruct)18549_storage)": {
        "encoding": "mapping",
        "key": "t_bytes32",
        "label": "mapping(bytes32 => struct FugaziStorageLayout.poolStateStruct)",
        "numberOfBytes": "32",
        "value": "t_struct(poolStateStruct)18549_storage"
      },
      "t_mapping(t_bytes32,t_userDefinedValueType(euint32)12)": {
        "encoding": "mapping",
        "key": "t_bytes32",
        "label": "mapping(bytes32 => euint32)",
        "numberOfBytes": "32",
        "value": "t_userDefinedValueType(euint32)12"
      },
      "t_mapping(t_bytes4,t_address)": {
        "encoding": "mapping",
        "key": "t_bytes4",
        "label": "mapping(bytes4 => address)",
        "numberOfBytes": "32",
        "value": "t_address"
      },
      "t_mapping(t_uint32,t_struct(batchStruct)18710_storage)": {
        "encoding": "mapping",
        "key": "t_uint32",
        "label": "mapping(uint32 => struct FugaziStorageLayout.batchStruct)",
        "numberOfBytes": "32",
        "value": "t_struct(batchStruct)18710_storage"
      },
      "t_string_storage": {
        "encoding": "bytes",
        "label": "string",
        "numberOfBytes": "32"
      },
      "t_struct(accountStruct)18467_storage": {
        "encoding": "inplace",
        "label": "struct FugaziStorageLayout.accountStruct",
        "members": [
          {
            "astId": 18462,
            "contract": "contracts/FugaziBalanceFacet.sol:FugaziBalanceFacet",
            "label": "balanceOf",
            "offset": 0,
            "slot": "0",
            "type": "t_mapping(t_bytes32,t_userDefinedValueType(euint32)12)"
          },
          {
            "astId": 18466,
            "contract": "contracts/FugaziBalanceFacet.sol:FugaziBalanceFacet",
            "label": "unclaimedOrders",
            "offset": 0,
            "slot": "1",
            "type": "t_array(t_struct(unclaimedOrderStruct)18730_storage)dyn_storage"
          }
        ],
        "numberOfBytes": "64"
      },
      "t_struct(batchStruct)18710_storage": {
        "encoding": "inplace",
        "label": "struct FugaziStorageLayout.batchStruct",
        "members": [
          {
            "astId": 18664,
            "contract": "contracts/FugaziBalanceFacet.sol:FugaziBalanceFacet",
            "label": "order",
            "offset": 0,
            "slot": "0",
            "type": "t_mapping(t_address,t_struct(orderStruct)18725_storage)"
          },
          {
            "astId": 18667,
            "contract": "contracts/FugaziBalanceFacet.sol:FugaziBalanceFacet",
            "label": "reserveX0",
            "offset": 0,
            "slot": "1",
            "type": "t_userDefinedValueType(euint32)12"
          },
          {
            "astId": 18670,
            "contract": "contracts/FugaziBalanceFacet.sol:FugaziBalanceFacet",
            "label": "reserveY0",
            "offset": 0,
            "slot": "2",
            "type": "t_userDefinedValueType(euint32)12"
          },
          {
            "astId": 18673,
            "contract": "contracts/FugaziBalanceFacet.sol:FugaziBalanceFacet",
            "label": "swapX",
            "offset": 0,
            "slot": "3",
            "type": "t_userDefinedValueType(euint32)12"
          },
          {
            "astId": 18676,
            "contract": "contracts/FugaziBalanceFacet.sol:FugaziBalanceFacet",
            "label": "swapY",
            "offset": 0,
            "slot": "4",
            "type": "t_userDefinedValueType(euint32)12"
          },
          {
            "astId": 18679,
            "contract": "contracts/FugaziBalanceFacet.sol:FugaziBalanceFacet",
            "label": "mintX",
            "offset": 0,
            "slot": "5",
            "type": "t_userDefinedValueType(euint32)12"
          },
          {
            "astId": 18682,
            "contract": "contracts/FugaziBalanceFacet.sol:FugaziBalanceFacet",
            "label": "mintY",
            "offset": 0,
            "slot": "6",
            "type": "t_userDefinedValueType(euint32)12"
          },
          {
            "astId": 18685,
            "contract": "contracts/FugaziBalanceFacet.sol:FugaziBalanceFacet",
            "label": "feeX",
            "offset": 0,
            "slot": "7",
            "type": "t_userDefinedValueType(euint32)12"
          },
          {
            "astId": 18688,
            "contract": "contracts/FugaziBalanceFacet.sol:FugaziBalanceFacet",
            "label": "feeY",
            "offset": 0,
            "slot": "8",
            "type": "t_userDefinedValueType(euint32)12"
          },
          {
            "astId": 18691,
            "contract": "contracts/FugaziBalanceFacet.sol:FugaziBalanceFacet",
            "label": "XForPricing",
            "offset": 0,
            "slot": "9",
            "type": "t_userDefinedValueType(euint32)12"
          },
          {
            "astId": 18694,
            "contract": "contracts/FugaziBalanceFacet.sol:FugaziBalanceFacet",
            "label": "YForPricing",
            "offset": 0,
            "slot": "10",
            "type": "t_userDefinedValueType(euint32)12"
          },
          {
            "astId": 18697,
            "contract": "contracts/FugaziBalanceFacet.sol:FugaziBalanceFacet",
            "label": "reserveX1",
            "offset": 0,
            "slot": "11",
            "type": "t_userDefinedValueType(euint32)12"
          },
          {
            "astId": 18700,
            "contract": "contracts/FugaziBalanceFacet.sol:FugaziBalanceFacet",
            "label": "reserveY1",
            "offset": 0,
            "slot": "12",
            "type": "t_userDefinedValueType(euint32)12"
          },
          {
            "astId": 18703,
            "contract": "contracts/FugaziBalanceFacet.sol:FugaziBalanceFacet",
            "label": "outX",
            "offset": 0,
            "slot": "13",
            "type": "t_userDefinedValueType(euint32)12"
          },
          {
            "astId": 18706,
            "contract": "contracts/FugaziBalanceFacet.sol:FugaziBalanceFacet",
            "label": "outY",
            "offset": 0,
            "slot": "14",
            "type": "t_userDefinedValueType(euint32)12"
          },
          {
            "astId": 18709,
            "contract": "contracts/FugaziBalanceFacet.sol:FugaziBalanceFacet",
            "label": "lpIncrement",
            "offset": 0,
            "slot": "15",
            "type": "t_userDefinedValueType(euint32)12"
          }
        ],
        "numberOfBytes": "512"
      },
      "t_struct(orderStruct)18725_storage": {
        "encoding": "inplace",
        "label": "struct FugaziStorageLayout.orderStruct",
        "members": [
          {
            "astId": 18713,
            "contract": "contracts/FugaziBalanceFacet.sol:FugaziBalanceFacet",
            "label": "swapX",
            "offset": 0,
            "slot": "0",
            "type": "t_userDefinedValueType(euint32)12"
          },
          {
            "astId": 18716,
            "contract": "contracts/FugaziBalanceFacet.sol:FugaziBalanceFacet",
            "label": "swapY",
            "offset": 0,
            "slot": "1",
            "type": "t_userDefinedValueType(euint32)12"
          },
          {
            "astId": 18719,
            "contract": "contracts/FugaziBalanceFacet.sol:FugaziBalanceFacet",
            "label": "mintX",
            "offset": 0,
            "slot": "2",
            "type": "t_userDefinedValueType(euint32)12"
          },
          {
            "astId": 18722,
            "contract": "contracts/FugaziBalanceFacet.sol:FugaziBalanceFacet",
            "label": "mintY",
            "offset": 0,
            "slot": "3",
            "type": "t_userDefinedValueType(euint32)12"
          },
          {
            "astId": 18724,
            "contract": "contracts/FugaziBalanceFacet.sol:FugaziBalanceFacet",
            "label": "claimed",
            "offset": 0,
            "slot": "4",
            "type": "t_bool"
          }
        ],
        "numberOfBytes": "160"
      },
      "t_struct(poolStateStruct)18549_storage": {
        "encoding": "inplace",
        "label": "struct FugaziStorageLayout.poolStateStruct",
        "members": [
          {
            "astId": 18520,
            "contract": "contracts/FugaziBalanceFacet.sol:FugaziBalanceFacet",
            "label": "tokenX",
            "offset": 0,
            "slot": "0",
            "type": "t_address"
          },
          {
            "astId": 18522,
            "contract": "contracts/FugaziBalanceFacet.sol:FugaziBalanceFacet",
            "label": "tokenY",
            "offset": 0,
            "slot": "1",
            "type": "t_address"
          },
          {
            "astId": 18524,
            "contract": "contracts/FugaziBalanceFacet.sol:FugaziBalanceFacet",
            "label": "epoch",
            "offset": 20,
            "slot": "1",
            "type": "t_uint32"
          },
          {
            "astId": 18526,
            "contract": "contracts/FugaziBalanceFacet.sol:FugaziBalanceFacet",
            "label": "lastSettlement",
            "offset": 24,
            "slot": "1",
            "type": "t_uint32"
          },
          {
            "astId": 18528,
            "contract": "contracts/FugaziBalanceFacet.sol:FugaziBalanceFacet",
            "label": "lastHarvest",
            "offset": 28,
            "slot": "1",
            "type": "t_uint32"
          },
          {
            "astId": 18531,
            "contract": "contracts/FugaziBalanceFacet.sol:FugaziBalanceFacet",
            "label": "protocolX",
            "offset": 0,
            "slot": "2",
            "type": "t_userDefinedValueType(euint32)12"
          },
          {
            "astId": 18534,
            "contract": "contracts/FugaziBalanceFacet.sol:FugaziBalanceFacet",
            "label": "protocolY",
            "offset": 0,
            "slot": "3",
            "type": "t_userDefinedValueType(euint32)12"
          },
          {
            "astId": 18537,
            "contract": "contracts/FugaziBalanceFacet.sol:FugaziBalanceFacet",
            "label": "reserveX",
            "offset": 0,
            "slot": "4",
            "type": "t_userDefinedValueType(euint32)12"
          },
          {
            "astId": 18540,
            "contract": "contracts/FugaziBalanceFacet.sol:FugaziBalanceFacet",
            "label": "reserveY",
            "offset": 0,
            "slot": "5",
            "type": "t_userDefinedValueType(euint32)12"
          },
          {
            "astId": 18543,
            "contract": "contracts/FugaziBalanceFacet.sol:FugaziBalanceFacet",
            "label": "lpTotalSupply",
            "offset": 0,
            "slot": "6",
            "type": "t_userDefinedValueType(euint32)12"
          },
          {
            "astId": 18548,
            "contract": "contracts/FugaziBalanceFacet.sol:FugaziBalanceFacet",
            "label": "batch",
            "offset": 0,
            "slot": "7",
            "type": "t_mapping(t_uint32,t_struct(batchStruct)18710_storage)"
          }
        ],
        "numberOfBytes": "256"
      },
      "t_struct(unclaimedOrderStruct)18730_storage": {
        "encoding": "inplace",
        "label": "struct FugaziStorageLayout.unclaimedOrderStruct",
        "members": [
          {
            "astId": 18727,
            "contract": "contracts/FugaziBalanceFacet.sol:FugaziBalanceFacet",
            "label": "poolId",
            "offset": 0,
            "slot": "0",
            "type": "t_bytes32"
          },
          {
            "astId": 18729,
            "contract": "contracts/FugaziBalanceFacet.sol:FugaziBalanceFacet",
            "label": "epoch",
            "offset": 0,
            "slot": "1",
            "type": "t_uint32"
          }
        ],
        "numberOfBytes": "64"
      },
      "t_uint32": {
        "encoding": "inplace",
        "label": "uint32",
        "numberOfBytes": "4"
      },
      "t_userDefinedValueType(euint32)12": {
        "encoding": "inplace",
        "label": "euint32",
        "numberOfBytes": "32"
      }
    }
  }
}