{
  "address": "0xf1f2593E3c435e15e91A97541cC150CDf5F3E2f1",
  "abi": [
    {
      "inputs": [],
      "name": "BatchIsInSettlement",
      "type": "error"
    },
    {
      "inputs": [],
      "name": "EpochNotEnded",
      "type": "error"
    },
    {
      "inputs": [],
      "name": "InvalidShortString",
      "type": "error"
    },
    {
      "inputs": [],
      "name": "InvalidTokenOrder",
      "type": "error"
    },
    {
      "inputs": [],
      "name": "NotValidSettlementStep",
      "type": "error"
    },
    {
      "inputs": [],
      "name": "OrderAlreadyClaimed",
      "type": "error"
    },
    {
      "inputs": [],
      "name": "PoolAlreadyExists",
      "type": "error"
    },
    {
      "inputs": [],
      "name": "PoolNotFound",
      "type": "error"
    },
    {
      "inputs": [],
      "name": "SignerNotMessageSender",
      "type": "error"
    },
    {
      "inputs": [],
      "name": "SignerNotOwner",
      "type": "error"
    },
    {
      "inputs": [
        {
          "internalType": "string",
          "name": "str",
          "type": "string"
        }
      ],
      "name": "StringTooLong",
      "type": "error"
    },
    {
      "inputs": [],
      "name": "TooEarlyHarvest",
      "type": "error"
    },
    {
      "inputs": [],
      "name": "noCorrespondingFacet",
      "type": "error"
    },
    {
      "inputs": [],
      "name": "notOwner",
      "type": "error"
    },
    {
      "anonymous": false,
      "inputs": [
        {
          "indexed": false,
          "internalType": "address",
          "name": "recipient",
          "type": "address"
        },
        {
          "indexed": false,
          "internalType": "address",
          "name": "token",
          "type": "address"
        }
      ],
      "name": "Deposit",
      "type": "event"
    },
    {
      "anonymous": false,
      "inputs": [],
      "name": "EIP712DomainChanged",
      "type": "event"
    },
    {
      "anonymous": false,
      "inputs": [
        {
          "indexed": false,
          "internalType": "address",
          "name": "tokenX",
          "type": "address"
        },
        {
          "indexed": false,
          "internalType": "address",
          "name": "tokenY",
          "type": "address"
        },
        {
          "indexed": false,
          "internalType": "bytes32",
          "name": "poolId",
          "type": "bytes32"
        }
      ],
      "name": "PoolCreated",
      "type": "event"
    },
    {
      "anonymous": false,
      "inputs": [
        {
          "indexed": false,
          "internalType": "address",
          "name": "recipient",
          "type": "address"
        },
        {
          "indexed": false,
          "internalType": "address",
          "name": "token",
          "type": "address"
        }
      ],
      "name": "Withdraw",
      "type": "event"
    },
    {
      "anonymous": false,
      "inputs": [
        {
          "indexed": false,
          "internalType": "bytes32",
          "name": "poolId",
          "type": "bytes32"
        },
        {
          "indexed": false,
          "internalType": "uint32",
          "name": "epoch",
          "type": "uint32"
        }
      ],
      "name": "batchSettled",
      "type": "event"
    },
    {
      "anonymous": false,
      "inputs": [
        {
          "indexed": false,
          "internalType": "bytes4",
          "name": "selector",
          "type": "bytes4"
        },
        {
          "indexed": false,
          "internalType": "address",
          "name": "facet",
          "type": "address"
        }
      ],
      "name": "facetAdded",
      "type": "event"
    },
    {
      "anonymous": false,
      "inputs": [
        {
          "indexed": false,
          "internalType": "bytes32",
          "name": "poolId",
          "type": "bytes32"
        },
        {
          "indexed": false,
          "internalType": "uint32",
          "name": "epoch",
          "type": "uint32"
        },
        {
          "indexed": false,
          "internalType": "address",
          "name": "claimer",
          "type": "address"
        }
      ],
      "name": "orderClaimed",
      "type": "event"
    },
    {
      "anonymous": false,
      "inputs": [
        {
          "indexed": false,
          "internalType": "bytes32",
          "name": "poolId",
          "type": "bytes32"
        },
        {
          "indexed": false,
          "internalType": "uint32",
          "name": "epoch",
          "type": "uint32"
        }
      ],
      "name": "orderSubmitted",
      "type": "event"
    },
    {
      "inputs": [],
      "name": "eip712Domain",
      "outputs": [
        {
          "internalType": "bytes1",
          "name": "fields",
          "type": "bytes1"
        },
        {
          "internalType": "string",
          "name": "name",
          "type": "string"
        },
        {
          "internalType": "string",
          "name": "version",
          "type": "string"
        },
        {
          "internalType": "uint256",
          "name": "chainId",
          "type": "uint256"
        },
        {
          "internalType": "address",
          "name": "verifyingContract",
          "type": "address"
        },
        {
          "internalType": "bytes32",
          "name": "salt",
          "type": "bytes32"
        },
        {
          "internalType": "uint256[]",
          "name": "extensions",
          "type": "uint256[]"
        }
      ],
      "stateMutability": "view",
      "type": "function"
    },
    {
      "inputs": [
        {
          "internalType": "bytes32",
          "name": "poolId",
          "type": "bytes32"
        },
        {
          "components": [
            {
              "internalType": "bytes",
              "name": "data",
              "type": "bytes"
            }
          ],
          "internalType": "struct inEuint32",
          "name": "_exitAmount",
          "type": "tuple"
        }
      ],
      "name": "removeLiquidity",
      "outputs": [],
      "stateMutability": "nonpayable",
      "type": "function"
    },
    {
      "inputs": [
        {
          "internalType": "bytes32",
          "name": "poolId",
          "type": "bytes32"
        },
        {
          "components": [
            {
              "internalType": "bytes",
              "name": "data",
              "type": "bytes"
            }
          ],
          "internalType": "struct inEuint64",
          "name": "_packedAmounts",
          "type": "tuple"
        }
      ],
      "name": "submitOrder",
      "outputs": [
        {
          "internalType": "uint32",
          "name": "",
          "type": "uint32"
        }
      ],
      "stateMutability": "nonpayable",
      "type": "function"
    }
  ],
  "transactionHash": "0x36fb2ca9b54f34426f4b54140f2c513434d94daf1650ebf39255a6aa0b275473",
  "args": [],
  "numDeployments": 1,
  "solcInputHash": "388ab10c6fe88bd90e47b674625a93e3",
  "bytecode": "0x6101606040523480156200001257600080fd5b506040518060400160405280601181526020017f4668656e6978205065726d697373696f6e0000000000000000000000000000008152506040518060400160405280600381526020017f312e300000000000000000000000000000000000000000000000000000000000815250620000956000836200013560201b90919060201c565b6101208181525050620000b36001826200013560201b90919060201c565b6101408181525050818051906020012060e08181525050808051906020012061010081815250504660a08181525050620000f26200018d60201b60201c565b608081815250503073ffffffffffffffffffffffffffffffffffffffff1660c08173ffffffffffffffffffffffffffffffffffffffff16815250505050620007e5565b60006020835110156200015b576200015383620001ea60201b60201c565b905062000187565b826200016d836200025760201b60201c565b60000190816200017e9190620004db565b5060ff60001b90505b92915050565b60007f8b73c3c69bb8fe3d512ecc4cf759cc79239f7b179b0ffacaa9a75d522b39400f60e051610100514630604051602001620001cf95949392919062000633565b60405160208183030381529060405280519060200120905090565b600080829050601f815111156200023a57826040517f305a27a90000000000000000000000000000000000000000000000000000000081526004016200023191906200071f565b60405180910390fd5b805181620002489062000775565b60001c1760001b915050919050565b6000819050919050565b600081519050919050565b7f4e487b7100000000000000000000000000000000000000000000000000000000600052604160045260246000fd5b7f4e487b7100000000000000000000000000000000000000000000000000000000600052602260045260246000fd5b60006002820490506001821680620002e357607f821691505b602082108103620002f957620002f86200029b565b5b50919050565b60008190508160005260206000209050919050565b60006020601f8301049050919050565b600082821b905092915050565b600060088302620003637fffffffffffffffffffffffffffffffffffffffffffffffffffffffffffffffff8262000324565b6200036f868362000324565b95508019841693508086168417925050509392505050565b6000819050919050565b6000819050919050565b6000620003bc620003b6620003b08462000387565b62000391565b62000387565b9050919050565b6000819050919050565b620003d8836200039b565b620003f0620003e782620003c3565b84845462000331565b825550505050565b600090565b62000407620003f8565b62000414818484620003cd565b505050565b5b818110156200043c5762000430600082620003fd565b6001810190506200041a565b5050565b601f8211156200048b576200045581620002ff565b620004608462000314565b8101602085101562000470578190505b620004886200047f8562000314565b83018262000419565b50505b505050565b600082821c905092915050565b6000620004b06000198460080262000490565b1980831691505092915050565b6000620004cb83836200049d565b9150826002028217905092915050565b620004e68262000261565b67ffffffffffffffff8111156200050257620005016200026c565b5b6200050e8254620002ca565b6200051b82828562000440565b600060209050601f8311600181146200055357600084156200053e578287015190505b6200054a8582620004bd565b865550620005ba565b601f1984166200056386620002ff565b60005b828110156200058d5784890151825560018201915060208501945060208101905062000566565b86831015620005ad5784890151620005a9601f8916826200049d565b8355505b6001600288020188555050505b505050505050565b6000819050919050565b620005d781620005c2565b82525050565b620005e88162000387565b82525050565b600073ffffffffffffffffffffffffffffffffffffffff82169050919050565b60006200061b82620005ee565b9050919050565b6200062d816200060e565b82525050565b600060a0820190506200064a6000830188620005cc565b620006596020830187620005cc565b620006686040830186620005cc565b620006776060830185620005dd565b62000686608083018462000622565b9695505050505050565b600082825260208201905092915050565b60005b83811015620006c1578082015181840152602081019050620006a4565b60008484015250505050565b6000601f19601f8301169050919050565b6000620006eb8262000261565b620006f7818562000690565b935062000709818560208601620006a1565b6200071481620006cd565b840191505092915050565b600060208201905081810360008301526200073b8184620006de565b905092915050565b600081519050919050565b6000819050602082019050919050565b60006200076c8251620005c2565b80915050919050565b6000620007828262000743565b826200078e846200074e565b90506200079b816200075e565b92506020821015620007de57620007d97fffffffffffffffffffffffffffffffffffffffffffffffffffffffffffffffff8360200360080262000324565b831692505b5050919050565b60805160a05160c05160e0516101005161012051610140516133eb620008316000396000610f7101526000610f36015260005050600050506000505060005050600050506133eb6000f3fe608060405234801561001057600080fd5b50600436106100415760003560e01c806384b0196e14610046578063ba198d5f1461006a578063f5398acd1461009a575b600080fd5b61004e6100b6565b6040516100619796959493929190612c11565b60405180910390f35b610084600480360381019061007f9190612cf9565b610160565b6040516100919190612d74565b60405180910390f35b6100b460048036038101906100af9190612dae565b610aaf565b005b6000606080600080600060606100ca610f2d565b6100d2610f68565b46306000801b600067ffffffffffffffff8111156100f3576100f2612e0a565b5b6040519080825280602002602001820160405280156101215781602001602082028036833780820191505090505b507f0f00000000000000000000000000000000000000000000000000000000000000959493929190965096509650965096509650965090919293949596565b600082600073ffffffffffffffffffffffffffffffffffffffff166006600083815260200190815260200160002060000160009054906101000a900473ffffffffffffffffffffffffffffffffffffffff1673ffffffffffffffffffffffffffffffffffffffff16036101ff576040517f76ecffc000000000000000000000000000000000000000000000000000000000815260040160405180910390fd5b60006102138461020e90612fa1565b610fa3565b905061021d6129e6565b6102396102348361022f617fff610fb9565b610fcd565b611046565b81602001818152505061027261026361025e84610259633fff8000610fb9565b610fcd565b611046565b61026d600f61105c565b611070565b8160000181815250506102a36102948361028f6340000000610fb9565b610fcd565b61029e6000610fb9565b6110e9565b8160400181815250506102d46102c5836102c06380000000610fb9565b610fcd565b6102cf6000610fb9565b6110e9565b81606001818152505061030f61030a6102fb846102f6650ffe00000000610fb9565b610fcd565b6103056020610fb9565b611162565b611046565b816080018181525050600060066000888152602001908152602001600020905060008160070160008360010160149054906101000a900463ffffffff1663ffffffff1663ffffffff16815260200190815260200160002090506103738383836111db565b6104008360000151600460003373ffffffffffffffffffffffffffffffffffffffff1673ffffffffffffffffffffffffffffffffffffffff16815260200190815260200160002060000160006103ec8660000160009054906101000a900473ffffffffffffffffffffffffffffffffffffffff1661121f565b81526020019081526020016000205461123f565b8360000181815250506104968360200151600460003373ffffffffffffffffffffffffffffffffffffffff1673ffffffffffffffffffffffffffffffffffffffff16815260200190815260200160002060000160006104828660010160009054906101000a900473ffffffffffffffffffffffffffffffffffffffff1661121f565b81526020019081526020016000205461123f565b8360200181815250506104aa8282856112b8565b9250610539600460003373ffffffffffffffffffffffffffffffffffffffff1673ffffffffffffffffffffffffffffffffffffffff16815260200190815260200160002060000160006105208560000160009054906101000a900473ffffffffffffffffffffffffffffffffffffffff1661121f565b8152602001908152602001600020548460000151611685565b600460003373ffffffffffffffffffffffffffffffffffffffff1673ffffffffffffffffffffffffffffffffffffffff16815260200190815260200160002060000160006105aa8560000160009054906101000a900473ffffffffffffffffffffffffffffffffffffffff1661121f565b815260200190815260200160002081905550610649600460003373ffffffffffffffffffffffffffffffffffffffff1673ffffffffffffffffffffffffffffffffffffffff16815260200190815260200160002060000160006106308560010160009054906101000a900473ffffffffffffffffffffffffffffffffffffffff1661121f565b8152602001908152602001600020548460200151611685565b600460003373ffffffffffffffffffffffffffffffffffffffff1673ffffffffffffffffffffffffffffffffffffffff16815260200190815260200160002060000160006106ba8560010160009054906101000a900473ffffffffffffffffffffffffffffffffffffffff1661121f565b8152602001908152602001600020819055506106e8836040015184600001516106e3600061105c565b611699565b8160000160003373ffffffffffffffffffffffffffffffffffffffff1673ffffffffffffffffffffffffffffffffffffffff1681526020019081526020016000206000018190555061074c83604001518460200151610747600061105c565b611699565b8160000160003373ffffffffffffffffffffffffffffffffffffffff1673ffffffffffffffffffffffffffffffffffffffff168152602001908152602001600020600101819055506107b083604001516107a6600061105c565b8560000151611699565b8160000160003373ffffffffffffffffffffffffffffffffffffffff1673ffffffffffffffffffffffffffffffffffffffff16815260200190815260200160002060020181905550610814836040015161080a600061105c565b8560200151611699565b8160000160003373ffffffffffffffffffffffffffffffffffffffff1673ffffffffffffffffffffffffffffffffffffffff1681526020019081526020016000206003018190555060008160000160003373ffffffffffffffffffffffffffffffffffffffff1673ffffffffffffffffffffffffffffffffffffffff16815260200190815260200160002060040160006101000a81548160ff02191690831515021790555061090b81600301548260000160003373ffffffffffffffffffffffffffffffffffffffff1673ffffffffffffffffffffffffffffffffffffffff16815260200190815260200160002060000154611717565b816003018190555061096581600401548260000160003373ffffffffffffffffffffffffffffffffffffffff1673ffffffffffffffffffffffffffffffffffffffff16815260200190815260200160002060010154611717565b81600401819055506109bf81600501548260000160003373ffffffffffffffffffffffffffffffffffffffff1673ffffffffffffffffffffffffffffffffffffffff16815260200190815260200160002060020154611717565b8160050181905550610a1981600601548260000160003373ffffffffffffffffffffffffffffffffffffffff1673ffffffffffffffffffffffffffffffffffffffff16815260200190815260200160002060030154611717565b8160060181905550610a4033898460010160149054906101000a900463ffffffff1661172b565b7f20b50106ec48113af87337548b09f0ce7f60a12bd3c545126cd25abb7fc1c630888360010160149054906101000a900463ffffffff16604051610a85929190612fb4565b60405180910390a18160010160149054906101000a900463ffffffff169550505050505092915050565b81600073ffffffffffffffffffffffffffffffffffffffff166006600083815260200190815260200160002060000160009054906101000a900473ffffffffffffffffffffffffffffffffffffffff1673ffffffffffffffffffffffffffffffffffffffff1603610b4c576040517f76ecffc000000000000000000000000000000000000000000000000000000000815260040160405180910390fd5b60006006600085815260200190815260200160002090506000610b7784610b7290613035565b6118aa565b9050610bd681600460003373ffffffffffffffffffffffffffffffffffffffff1673ffffffffffffffffffffffffffffffffffffffff16815260200190815260200160002060000160008881526020019081526020016000205461123f565b90506000610bf5610beb8385600401546118c0565b8460060154611939565b90506000610c14610c0a8486600501546118c0565b8560060154611939565b9050610c73600460003373ffffffffffffffffffffffffffffffffffffffff1673ffffffffffffffffffffffffffffffffffffffff16815260200190815260200160002060000160008981526020019081526020016000205484611685565b600460003373ffffffffffffffffffffffffffffffffffffffff1673ffffffffffffffffffffffffffffffffffffffff168152602001908152602001600020600001600089815260200190815260200160002081905550610cd8846006015484611685565b8460060181905550610cee846004015483611685565b8460040181905550610d04846005015482611685565b8460050181905550610d95600460003373ffffffffffffffffffffffffffffffffffffffff1673ffffffffffffffffffffffffffffffffffffffff1681526020019081526020016000206000016000610d808760000160009054906101000a900473ffffffffffffffffffffffffffffffffffffffff1661121f565b81526020019081526020016000205483611717565b600460003373ffffffffffffffffffffffffffffffffffffffff1673ffffffffffffffffffffffffffffffffffffffff1681526020019081526020016000206000016000610e068760000160009054906101000a900473ffffffffffffffffffffffffffffffffffffffff1661121f565b815260200190815260200160002081905550610ea1600460003373ffffffffffffffffffffffffffffffffffffffff1673ffffffffffffffffffffffffffffffffffffffff1681526020019081526020016000206000016000610e8c8760010160009054906101000a900473ffffffffffffffffffffffffffffffffffffffff1661121f565b81526020019081526020016000205482611717565b600460003373ffffffffffffffffffffffffffffffffffffffff1673ffffffffffffffffffffffffffffffffffffffff1681526020019081526020016000206000016000610f128760010160009054906101000a900473ffffffffffffffffffffffffffffffffffffffff1661121f565b81526020019081526020016000208190555050505050505050565b6060610f6360007f00000000000000000000000000000000000000000000000000000000000000006119b290919063ffffffff16565b905090565b6060610f9e60017f00000000000000000000000000000000000000000000000000000000000000006119b290919063ffffffff16565b905090565b6000610fb28260000151611a62565b9050919050565b6000610fc6826003611a76565b9050919050565b6000610fd883611b18565b610fe957610fe66000610fb9565b92505b610ff282611b18565b611003576110006000610fb9565b91505b60008390506000839050600061103860038484608073ffffffffffffffffffffffffffffffffffffffff1663ae104cfd611b25565b905080935050505092915050565b60006110556003836002611bb9565b9050919050565b6000611069826002611a76565b9050919050565b600061107b83611c5e565b61108c57611089600061105c565b92505b61109582611c5e565b6110a6576110a3600061105c565b91505b6000839050600083905060006110db60028484608073ffffffffffffffffffffffffffffffffffffffff16639944d12d611b25565b905080935050505092915050565b60006110f483611b18565b611105576111026000610fb9565b92505b61110e82611b18565b61111f5761111c6000610fb9565b91505b60008390506000839050600061115460038484608073ffffffffffffffffffffffffffffffffffffffff166392348b34611b25565b905080935050505092915050565b600061116d83611b18565b61117e5761117b6000610fb9565b92505b61118782611b18565b611198576111956000610fb9565b91505b6000839050600083905060006111cd60038484608073ffffffffffffffffffffffffffffffffffffffff16639944d12d611b25565b905080935050505092915050565b6000806111e88585611c6b565b915091506000806111fb84848989611d3b565b9150915061120a828288611dd7565b61121684848888612142565b50505050505050565b600060608260601b6bffffffffffffffffffffffff1916901c9050919050565b600061124a83611c5e565b61125b57611258600061105c565b92505b61126482611c5e565b61127557611272600061105c565b91505b6000839050600083905060006112aa60028484608073ffffffffffffffffffffffffffffffffffffffff16635211c679611b25565b905080935050505092915050565b6112c06129e6565b60006112df83600001516112da600a63ffffffff1661105c565b611070565b9050600061130084602001516112fb600a63ffffffff1661105c565b611070565b905061133a61131883611313600061105c565b612344565b61132b84611326600161105c565b611717565b611335600061105c565b611699565b91506113746113528261134d600061105c565b612344565b61136583611360600161105c565b611717565b61136f600061105c565b611699565b90506113ff600460003373ffffffffffffffffffffffffffffffffffffffff1673ffffffffffffffffffffffffffffffffffffffff16815260200190815260200160002060000160006113ea8960000160009054906101000a900473ffffffffffffffffffffffffffffffffffffffff1661121f565b81526020019081526020016000205483611685565b600460003373ffffffffffffffffffffffffffffffffffffffff1673ffffffffffffffffffffffffffffffffffffffff16815260200190815260200160002060000160006114708960000160009054906101000a900473ffffffffffffffffffffffffffffffffffffffff1661121f565b81526020019081526020016000208190555061150b600460003373ffffffffffffffffffffffffffffffffffffffff1673ffffffffffffffffffffffffffffffffffffffff16815260200190815260200160002060000160006114f68960010160009054906101000a900473ffffffffffffffffffffffffffffffffffffffff1661121f565b81526020019081526020016000205482611685565b600460003373ffffffffffffffffffffffffffffffffffffffff1673ffffffffffffffffffffffffffffffffffffffff168152602001908152602001600020600001600061157c8960010160009054906101000a900473ffffffffffffffffffffffffffffffffffffffff1661121f565b8152602001908152602001600020819055506115ae86600201546115a9846115a4600161105c565b611070565b611717565b86600201819055506115d686600301546115d1836115cc600161105c565b611070565b611717565b86600301819055506116076115ef866007015484611717565b611602846115fd600161105c565b611070565b611685565b8560070181905550611638611620866008015483611717565b6116338361162e600161105c565b611070565b611685565b8560080181905550836040015183604001818152505061165c846000015183611685565b836000018181525050611673846020015182611685565b83602001818152505050509392505050565b600061169183836123bd565b905092915050565b60006116a484612436565b6116b5576116b26000612443565b93505b6116be83611c5e565b6116cf576116cc600061105c565b92505b6116d882611c5e565b6116e9576116e6600061105c565b91505b60008490506000849050600084905060006117076002858585612457565b9050809450505050509392505050565b6000611723838361250f565b905092915050565b6000600460008573ffffffffffffffffffffffffffffffffffffffff1673ffffffffffffffffffffffffffffffffffffffff16815260200190815260200160002090506000805b826001018054905081101561181e578483600101828154811061179857611797613048565b5b9060005260206000209060020201600001541480156117f957508363ffffffff168360010182815481106117cf576117ce613048565b5b906000526020600020906002020160010160009054906101000a900463ffffffff1663ffffffff16145b15611811578180611809906130a6565b92505061181e565b8080600101915050611772565b50600081036118a3578160010160405180604001604052808681526020018563ffffffff1681525090806001815401808255809150506001900390600052602060002090600202016000909190919091506000820151816000015560208201518160010160006101000a81548163ffffffff021916908363ffffffff16021790555050505b5050505050565b60006118b98260000151612587565b9050919050565b60006118cb83611c5e565b6118dc576118d9600061105c565b92505b6118e582611c5e565b6118f6576118f3600061105c565b91505b60008390506000839050600061192b60028484608073ffffffffffffffffffffffffffffffffffffffff16634284f765611b25565b905080935050505092915050565b600061194483611c5e565b61195557611952600061105c565b92505b61195e82611c5e565b61196f5761196c600061105c565b91505b6000839050600083905060006119a460028484608073ffffffffffffffffffffffffffffffffffffffff16631f4cda2f611b25565b905080935050505092915050565b606060ff60001b83146119cf576119c88361259b565b9050611a5c565b8180546119db9061311d565b80601f0160208091040260200160405190810160405280929190818152602001828054611a079061311d565b8015611a545780601f10611a2957610100808354040283529160200191611a54565b820191906000526020600020905b815481529060010190602001808311611a3757829003601f168201915b505050505090505b92915050565b6000611a6f82600361260f565b9050919050565b60006060608073ffffffffffffffffffffffffffffffffffffffff166319e1c5c4611aa0866126a9565b856040518363ffffffff1660e01b8152600401611abe9291906131bf565b600060405180830381865afa158015611adb573d6000803e3d6000fd5b505050506040513d6000823e3d601f19601f82011682018060405250810190611b04919061325f565b9050611b0f81612706565b91505092915050565b6000808214159050919050565b60006060838388611b35896126a9565b611b3e896126a9565b6040518463ffffffff1660e01b8152600401611b5c939291906132a8565b600060405180830381865afa158015611b79573d6000803e3d6000fd5b505050506040513d6000823e3d601f19601f82011682018060405250810190611ba2919061325f565b9050611bad81612714565b91505095945050505050565b60006060608073ffffffffffffffffffffffffffffffffffffffff16634a5a111786611be4876126a9565b866040518463ffffffff1660e01b8152600401611c03939291906132ed565b600060405180830381865afa158015611c20573d6000803e3d6000fd5b505050506040513d6000823e3d601f19601f82011682018060405250810190611c49919061325f565b9050611c5481612706565b9150509392505050565b6000808214159050919050565b600080611ca9611c9a611c9086606001518760000151611c8b600061105c565b611699565b8660800151612722565b611ca4600b61105c565b611070565b9150611ce6611cd7611ccd8660600151611cc3600061105c565b8860200151611699565b8660800151612722565b611ce1600b61105c565b611070565b9050611d0c82611d07611cfd848760040154612722565b8660050154612736565b611717565b9150611d3281611d2d611d23858760050154612722565b8660040154612736565b611717565b90509250929050565b6000806000611d808560600151611d71611d62611d588b8b612722565b8860050154612736565b611d6c600161105c565b611717565b611d7b600061105c565b611699565b90506000611dc48660600151611d96600061105c565b611dbf611db0611da68d8d612722565b8a60040154612736565b611dba600161105c565b611717565b611699565b9050818193509350505094509492505050565b611e68611e63600460003373ffffffffffffffffffffffffffffffffffffffff1673ffffffffffffffffffffffffffffffffffffffff1681526020019081526020016000206000016000611e4e8560000160009054906101000a900473ffffffffffffffffffffffffffffffffffffffff1661121f565b81526020019081526020016000205485612344565b61274a565b611ef9611ef4600460003373ffffffffffffffffffffffffffffffffffffffff1673ffffffffffffffffffffffffffffffffffffffff1681526020019081526020016000206000016000611edf8560010160009054906101000a900473ffffffffffffffffffffffffffffffffffffffff1661121f565b81526020019081526020016000205484612344565b61274a565b611f82600460003373ffffffffffffffffffffffffffffffffffffffff1673ffffffffffffffffffffffffffffffffffffffff1681526020019081526020016000206000016000611f6d8460000160009054906101000a900473ffffffffffffffffffffffffffffffffffffffff1661121f565b81526020019081526020016000205484611685565b600460003373ffffffffffffffffffffffffffffffffffffffff1673ffffffffffffffffffffffffffffffffffffffff1681526020019081526020016000206000016000611ff38460000160009054906101000a900473ffffffffffffffffffffffffffffffffffffffff1661121f565b81526020019081526020016000208190555061208e600460003373ffffffffffffffffffffffffffffffffffffffff1673ffffffffffffffffffffffffffffffffffffffff16815260200190815260200160002060000160006120798460010160009054906101000a900473ffffffffffffffffffffffffffffffffffffffff1661121f565b81526020019081526020016000205483611685565b600460003373ffffffffffffffffffffffffffffffffffffffff1673ffffffffffffffffffffffffffffffffffffffff16815260200190815260200160002060000160006120ff8460010160009054906101000a900473ffffffffffffffffffffffffffffffffffffffff1661121f565b81526020019081526020016000208190555061211f816002015484611717565b8160020181905550612135816003015483611717565b8160030181905550505050565b600061214c6127ff565b9050600061216761215d8388612722565b856002015461123f565b905060006121826121788488612722565b866003015461123f565b9050612192856002015483611685565b85600201819055506121a8856003015482611685565b8560030181905550818460000160003073ffffffffffffffffffffffffffffffffffffffff1673ffffffffffffffffffffffffffffffffffffffff16815260200190815260200160002060000181905550808460000160003073ffffffffffffffffffffffffffffffffffffffff1673ffffffffffffffffffffffffffffffffffffffff1681526020019081526020016000206001018190555060008460000160003073ffffffffffffffffffffffffffffffffffffffff1673ffffffffffffffffffffffffffffffffffffffff16815260200190815260200160002060040160006101000a81548160ff0219169083151502179055506122ad846003015483611717565b84600301819055506122c3846004015482611717565b846004018190555061233b306123218760000160009054906101000a900473ffffffffffffffffffffffffffffffffffffffff168860010160009054906101000a900473ffffffffffffffffffffffffffffffffffffffff16612820565b8760010160149054906101000a900463ffffffff1661172b565b50505050505050565b600061234f83611c5e565b6123605761235d600061105c565b92505b61236982611c5e565b61237a57612377600061105c565b91505b6000839050600083905060006123af60028484608073ffffffffffffffffffffffffffffffffffffffff1663874b1c10611b25565b905080935050505092915050565b60006123c883611c5e565b6123d9576123d6600061105c565b92505b6123e282611c5e565b6123f3576123f0600061105c565b91505b60008390506000839050600061242860028484608073ffffffffffffffffffffffffffffffffffffffff1663cc2cbeff611b25565b905080935050505092915050565b6000808214159050919050565b600061245082600d611a76565b9050919050565b60006060608073ffffffffffffffffffffffffffffffffffffffff1663c2d9695287612482886126a9565b61248b886126a9565b612494886126a9565b6040518563ffffffff1660e01b81526004016124b3949392919061332b565b600060405180830381865afa1580156124d0573d6000803e3d6000fd5b505050506040513d6000823e3d601f19601f820116820180604052508101906124f9919061325f565b905061250481612706565b915050949350505050565b600061251a83611c5e565b61252b57612528600061105c565b92505b61253482611c5e565b61254557612542600061105c565b91505b60008390506000839050600061257960028484608073ffffffffffffffffffffffffffffffffffffffff16622df619611b25565b905080935050505092915050565b600061259482600261260f565b9050919050565b606060006125a88361295d565b90506000602067ffffffffffffffff8111156125c7576125c6612e0a565b5b6040519080825280601f01601f1916602001820160405280156125f95781602001600182028036833780820191505090505b5090508181528360208201528092505050919050565b60006060608073ffffffffffffffffffffffffffffffffffffffff16635fa55ca784866040518363ffffffff1660e01b815260040161264f929190613385565b600060405180830381865afa15801561266c573d6000803e3d6000fd5b505050506040513d6000823e3d601f19601f82011682018060405250810190612695919061325f565b90506126a081612706565b91505092915050565b6060602067ffffffffffffffff8111156126c6576126c5612e0a565b5b6040519080825280601f01601f1916602001820160405280156126f85781602001600182028036833780820191505090505b509050816020820152919050565b600060208201519050919050565b600060208201519050919050565b600061272e83836118c0565b905092915050565b60006127428383611939565b905092915050565b61275381612436565b612764576127616000612443565b90505b60008190506000612774826126a9565b9050608073ffffffffffffffffffffffffffffffffffffffff16637d23f1db600d836040518363ffffffff1660e01b81526004016127b3929190613385565b600060405180830381865afa1580156127d0573d6000803e3d6000fd5b505050506040513d6000823e3d601f19601f820116820180604052508101906127f9919061325f565b50505050565b600061281b61280c6129ad565b612816601f61105c565b611070565b905090565b60008173ffffffffffffffffffffffffffffffffffffffff168373ffffffffffffffffffffffffffffffffffffffff16106128d757600560008373ffffffffffffffffffffffffffffffffffffffff1673ffffffffffffffffffffffffffffffffffffffff16815260200190815260200160002060008473ffffffffffffffffffffffffffffffffffffffff1673ffffffffffffffffffffffffffffffffffffffff16815260200190815260200160002054612955565b600560008473ffffffffffffffffffffffffffffffffffffffff1673ffffffffffffffffffffffffffffffffffffffff16815260200190815260200160002060008373ffffffffffffffffffffffffffffffffffffffff1673ffffffffffffffffffffffffffffffffffffffff168152602001908152602001600020545b905092915050565b60008060ff8360001c169050601f8111156129a4576040517fb3512b0c00000000000000000000000000000000000000000000000000000000815260040160405180910390fd5b80915050919050565b6000806129b86129cf565b90506129c98163ffffffff1661105c565b91505090565b6000804390506000814060001c9050809250505090565b6040518060a0016040528060008152602001600081526020016000815260200160008152602001600081525090565b60007fff0000000000000000000000000000000000000000000000000000000000000082169050919050565b612a4a81612a15565b82525050565b600081519050919050565b600082825260208201905092915050565b60005b83811015612a8a578082015181840152602081019050612a6f565b60008484015250505050565b6000601f19601f8301169050919050565b6000612ab282612a50565b612abc8185612a5b565b9350612acc818560208601612a6c565b612ad581612a96565b840191505092915050565b6000819050919050565b612af381612ae0565b82525050565b600073ffffffffffffffffffffffffffffffffffffffff82169050919050565b6000612b2482612af9565b9050919050565b612b3481612b19565b82525050565b6000819050919050565b612b4d81612b3a565b82525050565b600081519050919050565b600082825260208201905092915050565b6000819050602082019050919050565b612b8881612ae0565b82525050565b6000612b9a8383612b7f565b60208301905092915050565b6000602082019050919050565b6000612bbe82612b53565b612bc88185612b5e565b9350612bd383612b6f565b8060005b83811015612c04578151612beb8882612b8e565b9750612bf683612ba6565b925050600181019050612bd7565b5085935050505092915050565b600060e082019050612c26600083018a612a41565b8181036020830152612c388189612aa7565b90508181036040830152612c4c8188612aa7565b9050612c5b6060830187612aea565b612c686080830186612b2b565b612c7560a0830185612b44565b81810360c0830152612c878184612bb3565b905098975050505050505050565b6000604051905090565b600080fd5b600080fd5b612cb281612b3a565b8114612cbd57600080fd5b50565b600081359050612ccf81612ca9565b92915050565b600080fd5b600060208284031215612cf057612cef612cd5565b5b81905092915050565b60008060408385031215612d1057612d0f612c9f565b5b6000612d1e85828601612cc0565b925050602083013567ffffffffffffffff811115612d3f57612d3e612ca4565b5b612d4b85828601612cda565b9150509250929050565b600063ffffffff82169050919050565b612d6e81612d55565b82525050565b6000602082019050612d896000830184612d65565b92915050565b600060208284031215612da557612da4612cd5565b5b81905092915050565b60008060408385031215612dc557612dc4612c9f565b5b6000612dd385828601612cc0565b925050602083013567ffffffffffffffff811115612df457612df3612ca4565b5b612e0085828601612d8f565b9150509250929050565b7f4e487b7100000000000000000000000000000000000000000000000000000000600052604160045260246000fd5b600080fd5b612e4782612a96565b810181811067ffffffffffffffff82111715612e6657612e65612e0a565b5b80604052505050565b6000612e79612c95565b9050612e858282612e3e565b919050565b600080fd5b600080fd5b600080fd5b600067ffffffffffffffff821115612eb457612eb3612e0a565b5b612ebd82612a96565b9050602081019050919050565b82818337600083830152505050565b6000612eec612ee784612e99565b612e6f565b905082815260208101848484011115612f0857612f07612e94565b5b612f13848285612eca565b509392505050565b600082601f830112612f3057612f2f612e8f565b5b8135612f40848260208601612ed9565b91505092915050565b600060208284031215612f5f57612f5e612e39565b5b612f696020612e6f565b9050600082013567ffffffffffffffff811115612f8957612f88612e8a565b5b612f9584828501612f1b565b60008301525092915050565b6000612fad3683612f49565b9050919050565b6000604082019050612fc96000830185612b44565b612fd66020830184612d65565b9392505050565b600060208284031215612ff357612ff2612e39565b5b612ffd6020612e6f565b9050600082013567ffffffffffffffff81111561301d5761301c612e8a565b5b61302984828501612f1b565b60008301525092915050565b60006130413683612fdd565b9050919050565b7f4e487b7100000000000000000000000000000000000000000000000000000000600052603260045260246000fd5b7f4e487b7100000000000000000000000000000000000000000000000000000000600052601160045260246000fd5b60006130b182612ae0565b91507fffffffffffffffffffffffffffffffffffffffffffffffffffffffffffffffff82036130e3576130e2613077565b5b600182019050919050565b7f4e487b7100000000000000000000000000000000000000000000000000000000600052602260045260246000fd5b6000600282049050600182168061313557607f821691505b602082108103613148576131476130ee565b5b50919050565b600081519050919050565b600082825260208201905092915050565b60006131758261314e565b61317f8185613159565b935061318f818560208601612a6c565b61319881612a96565b840191505092915050565b600060ff82169050919050565b6131b9816131a3565b82525050565b600060408201905081810360008301526131d9818561316a565b90506131e860208301846131b0565b9392505050565b60006132026131fd84612e99565b612e6f565b90508281526020810184848401111561321e5761321d612e94565b5b613229848285612a6c565b509392505050565b600082601f83011261324657613245612e8f565b5b81516132568482602086016131ef565b91505092915050565b60006020828403121561327557613274612c9f565b5b600082015167ffffffffffffffff81111561329357613292612ca4565b5b61329f84828501613231565b91505092915050565b60006060820190506132bd60008301866131b0565b81810360208301526132cf818561316a565b905081810360408301526132e3818461316a565b9050949350505050565b600060608201905061330260008301866131b0565b8181036020830152613314818561316a565b905061332360408301846131b0565b949350505050565b600060808201905061334060008301876131b0565b8181036020830152613352818661316a565b90508181036040830152613366818561316a565b9050818103606083015261337a818461316a565b905095945050505050565b600060408201905061339a60008301856131b0565b81810360208301526133ac818461316a565b9050939250505056fea264697066735822122012b74b9e5a899b776ff7d59a7c75c793f17eb8f8f57a8e8572e7933520645e8e64736f6c63430008180033",
  "devdoc": {
    "events": {
      "EIP712DomainChanged()": {
        "details": "MAY be emitted to signal that the domain could have changed."
      }
    },
    "kind": "dev",
    "methods": {
      "eip712Domain()": {
        "details": "See {IERC-5267}."
      }
    },
    "version": 1
  },
  "userdoc": {
    "errors": {
      "SignerNotMessageSender()": [
        {
          "notice": "Emitted when the signer is not the message sender"
        }
      ],
      "SignerNotOwner()": [
        {
          "notice": "Emitted when the signer is not the specified owner"
        }
      ]
    },
    "kind": "user",
    "methods": {},
    "notice": "This contract handles order submission, which is settled in batch, and removeLiquidity, which can be filled immidiately. Orders are batched since they may affect the pool price, while removeLiquidity does not.",
    "version": 1
  },
  "storageLayout": {
    "storage": [
      {
        "astId": 16568,
        "contract": "contracts/FugaziOrderFacet.sol:FugaziOrderFacet",
        "label": "_nameFallback",
        "offset": 0,
        "slot": "0",
        "type": "t_string_storage"
      },
      {
        "astId": 16570,
        "contract": "contracts/FugaziOrderFacet.sol:FugaziOrderFacet",
        "label": "_versionFallback",
        "offset": 0,
        "slot": "1",
        "type": "t_string_storage"
      },
      {
        "astId": 21016,
        "contract": "contracts/FugaziOrderFacet.sol:FugaziOrderFacet",
        "label": "owner",
        "offset": 0,
        "slot": "2",
        "type": "t_address"
      },
      {
        "astId": 21020,
        "contract": "contracts/FugaziOrderFacet.sol:FugaziOrderFacet",
        "label": "selectorTofacet",
        "offset": 0,
        "slot": "3",
        "type": "t_mapping(t_bytes4,t_address)"
      },
      {
        "astId": 21047,
        "contract": "contracts/FugaziOrderFacet.sol:FugaziOrderFacet",
        "label": "account",
        "offset": 0,
        "slot": "4",
        "type": "t_mapping(t_address,t_struct(accountStruct)21042_storage)"
      },
      {
        "astId": 21130,
        "contract": "contracts/FugaziOrderFacet.sol:FugaziOrderFacet",
        "label": "poolIdMapping",
        "offset": 0,
        "slot": "5",
        "type": "t_mapping(t_address,t_mapping(t_address,t_bytes32))"
      },
      {
        "astId": 21135,
        "contract": "contracts/FugaziOrderFacet.sol:FugaziOrderFacet",
        "label": "poolState",
        "offset": 0,
        "slot": "6",
        "type": "t_mapping(t_bytes32,t_struct(poolStateStruct)21124_storage)"
      }
    ],
    "types": {
      "t_address": {
        "encoding": "inplace",
        "label": "address",
        "numberOfBytes": "20"
      },
      "t_array(t_struct(unclaimedOrderStruct)21305_storage)dyn_storage": {
        "base": "t_struct(unclaimedOrderStruct)21305_storage",
        "encoding": "dynamic_array",
        "label": "struct FugaziStorageLayout.unclaimedOrderStruct[]",
        "numberOfBytes": "32"
      },
      "t_bool": {
        "encoding": "inplace",
        "label": "bool",
        "numberOfBytes": "1"
      },
      "t_bytes32": {
        "encoding": "inplace",
        "label": "bytes32",
        "numberOfBytes": "32"
      },
      "t_bytes4": {
        "encoding": "inplace",
        "label": "bytes4",
        "numberOfBytes": "4"
      },
      "t_mapping(t_address,t_bytes32)": {
        "encoding": "mapping",
        "key": "t_address",
        "label": "mapping(address => bytes32)",
        "numberOfBytes": "32",
        "value": "t_bytes32"
      },
      "t_mapping(t_address,t_mapping(t_address,t_bytes32))": {
        "encoding": "mapping",
        "key": "t_address",
        "label": "mapping(address => mapping(address => bytes32))",
        "numberOfBytes": "32",
        "value": "t_mapping(t_address,t_bytes32)"
      },
      "t_mapping(t_address,t_struct(accountStruct)21042_storage)": {
        "encoding": "mapping",
        "key": "t_address",
        "label": "mapping(address => struct FugaziStorageLayout.accountStruct)",
        "numberOfBytes": "32",
        "value": "t_struct(accountStruct)21042_storage"
      },
      "t_mapping(t_address,t_struct(orderStruct)21300_storage)": {
        "encoding": "mapping",
        "key": "t_address",
        "label": "mapping(address => struct FugaziStorageLayout.orderStruct)",
        "numberOfBytes": "32",
        "value": "t_struct(orderStruct)21300_storage"
      },
      "t_mapping(t_bytes32,t_struct(poolStateStruct)21124_storage)": {
        "encoding": "mapping",
        "key": "t_bytes32",
        "label": "mapping(bytes32 => struct FugaziStorageLayout.poolStateStruct)",
        "numberOfBytes": "32",
        "value": "t_struct(poolStateStruct)21124_storage"
      },
      "t_mapping(t_bytes32,t_userDefinedValueType(euint32)12)": {
        "encoding": "mapping",
        "key": "t_bytes32",
        "label": "mapping(bytes32 => euint32)",
        "numberOfBytes": "32",
        "value": "t_userDefinedValueType(euint32)12"
      },
      "t_mapping(t_bytes4,t_address)": {
        "encoding": "mapping",
        "key": "t_bytes4",
        "label": "mapping(bytes4 => address)",
        "numberOfBytes": "32",
        "value": "t_address"
      },
      "t_mapping(t_uint32,t_struct(batchStruct)21285_storage)": {
        "encoding": "mapping",
        "key": "t_uint32",
        "label": "mapping(uint32 => struct FugaziStorageLayout.batchStruct)",
        "numberOfBytes": "32",
        "value": "t_struct(batchStruct)21285_storage"
      },
      "t_string_storage": {
        "encoding": "bytes",
        "label": "string",
        "numberOfBytes": "32"
      },
      "t_struct(accountStruct)21042_storage": {
        "encoding": "inplace",
        "label": "struct FugaziStorageLayout.accountStruct",
        "members": [
          {
            "astId": 21037,
            "contract": "contracts/FugaziOrderFacet.sol:FugaziOrderFacet",
            "label": "balanceOf",
            "offset": 0,
            "slot": "0",
            "type": "t_mapping(t_bytes32,t_userDefinedValueType(euint32)12)"
          },
          {
            "astId": 21041,
            "contract": "contracts/FugaziOrderFacet.sol:FugaziOrderFacet",
            "label": "unclaimedOrders",
            "offset": 0,
            "slot": "1",
            "type": "t_array(t_struct(unclaimedOrderStruct)21305_storage)dyn_storage"
          }
        ],
        "numberOfBytes": "64"
      },
      "t_struct(batchStruct)21285_storage": {
        "encoding": "inplace",
        "label": "struct FugaziStorageLayout.batchStruct",
        "members": [
          {
            "astId": 21239,
            "contract": "contracts/FugaziOrderFacet.sol:FugaziOrderFacet",
            "label": "order",
            "offset": 0,
            "slot": "0",
            "type": "t_mapping(t_address,t_struct(orderStruct)21300_storage)"
          },
          {
            "astId": 21242,
            "contract": "contracts/FugaziOrderFacet.sol:FugaziOrderFacet",
            "label": "reserveX0",
            "offset": 0,
            "slot": "1",
            "type": "t_userDefinedValueType(euint32)12"
          },
          {
            "astId": 21245,
            "contract": "contracts/FugaziOrderFacet.sol:FugaziOrderFacet",
            "label": "reserveY0",
            "offset": 0,
            "slot": "2",
            "type": "t_userDefinedValueType(euint32)12"
          },
          {
            "astId": 21248,
            "contract": "contracts/FugaziOrderFacet.sol:FugaziOrderFacet",
            "label": "swapX",
            "offset": 0,
            "slot": "3",
            "type": "t_userDefinedValueType(euint32)12"
          },
          {
            "astId": 21251,
            "contract": "contracts/FugaziOrderFacet.sol:FugaziOrderFacet",
            "label": "swapY",
            "offset": 0,
            "slot": "4",
            "type": "t_userDefinedValueType(euint32)12"
          },
          {
            "astId": 21254,
            "contract": "contracts/FugaziOrderFacet.sol:FugaziOrderFacet",
            "label": "mintX",
            "offset": 0,
            "slot": "5",
            "type": "t_userDefinedValueType(euint32)12"
          },
          {
            "astId": 21257,
            "contract": "contracts/FugaziOrderFacet.sol:FugaziOrderFacet",
            "label": "mintY",
            "offset": 0,
            "slot": "6",
            "type": "t_userDefinedValueType(euint32)12"
          },
          {
            "astId": 21260,
            "contract": "contracts/FugaziOrderFacet.sol:FugaziOrderFacet",
            "label": "feeX",
            "offset": 0,
            "slot": "7",
            "type": "t_userDefinedValueType(euint32)12"
          },
          {
            "astId": 21263,
            "contract": "contracts/FugaziOrderFacet.sol:FugaziOrderFacet",
            "label": "feeY",
            "offset": 0,
            "slot": "8",
            "type": "t_userDefinedValueType(euint32)12"
          },
          {
            "astId": 21266,
            "contract": "contracts/FugaziOrderFacet.sol:FugaziOrderFacet",
            "label": "XForPricing",
            "offset": 0,
            "slot": "9",
            "type": "t_userDefinedValueType(euint32)12"
          },
          {
            "astId": 21269,
            "contract": "contracts/FugaziOrderFacet.sol:FugaziOrderFacet",
            "label": "YForPricing",
            "offset": 0,
            "slot": "10",
            "type": "t_userDefinedValueType(euint32)12"
          },
          {
            "astId": 21272,
            "contract": "contracts/FugaziOrderFacet.sol:FugaziOrderFacet",
            "label": "reserveX1",
            "offset": 0,
            "slot": "11",
            "type": "t_userDefinedValueType(euint32)12"
          },
          {
            "astId": 21275,
            "contract": "contracts/FugaziOrderFacet.sol:FugaziOrderFacet",
            "label": "reserveY1",
            "offset": 0,
            "slot": "12",
            "type": "t_userDefinedValueType(euint32)12"
          },
          {
            "astId": 21278,
            "contract": "contracts/FugaziOrderFacet.sol:FugaziOrderFacet",
            "label": "outX",
            "offset": 0,
            "slot": "13",
            "type": "t_userDefinedValueType(euint32)12"
          },
          {
            "astId": 21281,
            "contract": "contracts/FugaziOrderFacet.sol:FugaziOrderFacet",
            "label": "outY",
            "offset": 0,
            "slot": "14",
            "type": "t_userDefinedValueType(euint32)12"
          },
          {
            "astId": 21284,
            "contract": "contracts/FugaziOrderFacet.sol:FugaziOrderFacet",
            "label": "lpIncrement",
            "offset": 0,
            "slot": "15",
            "type": "t_userDefinedValueType(euint32)12"
          }
        ],
        "numberOfBytes": "512"
      },
      "t_struct(orderStruct)21300_storage": {
        "encoding": "inplace",
        "label": "struct FugaziStorageLayout.orderStruct",
        "members": [
          {
            "astId": 21288,
            "contract": "contracts/FugaziOrderFacet.sol:FugaziOrderFacet",
            "label": "swapX",
            "offset": 0,
            "slot": "0",
            "type": "t_userDefinedValueType(euint32)12"
          },
          {
            "astId": 21291,
            "contract": "contracts/FugaziOrderFacet.sol:FugaziOrderFacet",
            "label": "swapY",
            "offset": 0,
            "slot": "1",
            "type": "t_userDefinedValueType(euint32)12"
          },
          {
            "astId": 21294,
            "contract": "contracts/FugaziOrderFacet.sol:FugaziOrderFacet",
            "label": "mintX",
            "offset": 0,
            "slot": "2",
            "type": "t_userDefinedValueType(euint32)12"
          },
          {
            "astId": 21297,
            "contract": "contracts/FugaziOrderFacet.sol:FugaziOrderFacet",
            "label": "mintY",
            "offset": 0,
            "slot": "3",
            "type": "t_userDefinedValueType(euint32)12"
          },
          {
            "astId": 21299,
            "contract": "contracts/FugaziOrderFacet.sol:FugaziOrderFacet",
            "label": "claimed",
            "offset": 0,
            "slot": "4",
            "type": "t_bool"
          }
        ],
        "numberOfBytes": "160"
      },
      "t_struct(poolStateStruct)21124_storage": {
        "encoding": "inplace",
        "label": "struct FugaziStorageLayout.poolStateStruct",
        "members": [
          {
            "astId": 21095,
            "contract": "contracts/FugaziOrderFacet.sol:FugaziOrderFacet",
            "label": "tokenX",
            "offset": 0,
            "slot": "0",
            "type": "t_address"
          },
          {
            "astId": 21097,
            "contract": "contracts/FugaziOrderFacet.sol:FugaziOrderFacet",
            "label": "tokenY",
            "offset": 0,
            "slot": "1",
            "type": "t_address"
          },
          {
            "astId": 21099,
            "contract": "contracts/FugaziOrderFacet.sol:FugaziOrderFacet",
            "label": "epoch",
            "offset": 20,
            "slot": "1",
            "type": "t_uint32"
          },
          {
            "astId": 21101,
            "contract": "contracts/FugaziOrderFacet.sol:FugaziOrderFacet",
            "label": "lastSettlement",
            "offset": 24,
            "slot": "1",
            "type": "t_uint32"
          },
          {
            "astId": 21103,
            "contract": "contracts/FugaziOrderFacet.sol:FugaziOrderFacet",
            "label": "lastHarvest",
            "offset": 28,
            "slot": "1",
            "type": "t_uint32"
          },
          {
            "astId": 21106,
            "contract": "contracts/FugaziOrderFacet.sol:FugaziOrderFacet",
            "label": "protocolX",
            "offset": 0,
            "slot": "2",
            "type": "t_userDefinedValueType(euint32)12"
          },
          {
            "astId": 21109,
            "contract": "contracts/FugaziOrderFacet.sol:FugaziOrderFacet",
            "label": "protocolY",
            "offset": 0,
            "slot": "3",
            "type": "t_userDefinedValueType(euint32)12"
          },
          {
            "astId": 21112,
            "contract": "contracts/FugaziOrderFacet.sol:FugaziOrderFacet",
            "label": "reserveX",
            "offset": 0,
            "slot": "4",
            "type": "t_userDefinedValueType(euint32)12"
          },
          {
            "astId": 21115,
            "contract": "contracts/FugaziOrderFacet.sol:FugaziOrderFacet",
            "label": "reserveY",
            "offset": 0,
            "slot": "5",
            "type": "t_userDefinedValueType(euint32)12"
          },
          {
            "astId": 21118,
            "contract": "contracts/FugaziOrderFacet.sol:FugaziOrderFacet",
            "label": "lpTotalSupply",
            "offset": 0,
            "slot": "6",
            "type": "t_userDefinedValueType(euint32)12"
          },
          {
            "astId": 21123,
            "contract": "contracts/FugaziOrderFacet.sol:FugaziOrderFacet",
            "label": "batch",
            "offset": 0,
            "slot": "7",
            "type": "t_mapping(t_uint32,t_struct(batchStruct)21285_storage)"
          }
        ],
        "numberOfBytes": "256"
      },
      "t_struct(unclaimedOrderStruct)21305_storage": {
        "encoding": "inplace",
        "label": "struct FugaziStorageLayout.unclaimedOrderStruct",
        "members": [
          {
            "astId": 21302,
            "contract": "contracts/FugaziOrderFacet.sol:FugaziOrderFacet",
            "label": "poolId",
            "offset": 0,
            "slot": "0",
            "type": "t_bytes32"
          },
          {
            "astId": 21304,
            "contract": "contracts/FugaziOrderFacet.sol:FugaziOrderFacet",
            "label": "epoch",
            "offset": 0,
            "slot": "1",
            "type": "t_uint32"
          }
        ],
        "numberOfBytes": "64"
      },
      "t_uint32": {
        "encoding": "inplace",
        "label": "uint32",
        "numberOfBytes": "4"
      },
      "t_userDefinedValueType(euint32)12": {
        "encoding": "inplace",
        "label": "euint32",
        "numberOfBytes": "32"
      }
    }
  }
}